Archive member included to satisfy reference by file (symbol)

external/rtt/librtt_nrf52840_xxAA.a(SEGGER_RTT.c.obj)
                              examples/experimental_lpn/CMakeFiles/lpn_nrf52840_xxAA_s140_6.1.1.dir/__/__/mesh/core/src/log.c.obj (SEGGER_RTT_Write)
external/rtt/librtt_nrf52840_xxAA.a(SEGGER_RTT_printf.c.obj)
                              examples/experimental_lpn/CMakeFiles/lpn_nrf52840_xxAA_s140_6.1.1.dir/__/__/mesh/core/src/log.c.obj (SEGGER_RTT_vprintf)
external/micro-ecc/libuECC_nrf52840_xxAA.a(uECC.c.obj)
                              examples/experimental_lpn/CMakeFiles/lpn_nrf52840_xxAA_s140_6.1.1.dir/__/__/mesh/prov/src/prov_utils.c.obj (uECC_secp256r1)
c:/mesh/arm_gcc/bin/../lib/gcc/arm-none-eabi/7.3.1/thumb/v7e-m/fpv4-sp/hard\libgcc.a(_aeabi_ldivmod.o)
                              examples/experimental_lpn/CMakeFiles/lpn_nrf52840_xxAA_s140_6.1.1.dir/__/common/src/rtt_input.c.obj (__aeabi_ldivmod)
c:/mesh/arm_gcc/bin/../lib/gcc/arm-none-eabi/7.3.1/thumb/v7e-m/fpv4-sp/hard\libgcc.a(_aeabi_uldivmod.o)
                              examples/experimental_lpn/CMakeFiles/lpn_nrf52840_xxAA_s140_6.1.1.dir/__/common/src/rtt_input.c.obj (__aeabi_uldivmod)
c:/mesh/arm_gcc/bin/../lib/gcc/arm-none-eabi/7.3.1/thumb/v7e-m/fpv4-sp/hard\libgcc.a(_udivmoddi4.o)
                              c:/mesh/arm_gcc/bin/../lib/gcc/arm-none-eabi/7.3.1/thumb/v7e-m/fpv4-sp/hard\libgcc.a(_aeabi_ldivmod.o) (__udivmoddi4)
c:/mesh/arm_gcc/bin/../lib/gcc/arm-none-eabi/7.3.1/thumb/v7e-m/fpv4-sp/hard\libgcc.a(_dvmd_tls.o)
                              c:/mesh/arm_gcc/bin/../lib/gcc/arm-none-eabi/7.3.1/thumb/v7e-m/fpv4-sp/hard\libgcc.a(_aeabi_ldivmod.o) (__aeabi_ldiv0)
c:/mesh/arm_gcc/bin/../lib/gcc/arm-none-eabi/7.3.1/../../../../arm-none-eabi/lib/thumb/v7e-m/fpv4-sp/hard\libg_nano.a(lib_a-calloc.o)
                              examples/experimental_lpn/CMakeFiles/lpn_nrf52840_xxAA_s140_6.1.1.dir/__/__/mesh/core/src/mesh_mem_stdlib.c.obj (calloc)
c:/mesh/arm_gcc/bin/../lib/gcc/arm-none-eabi/7.3.1/../../../../arm-none-eabi/lib/thumb/v7e-m/fpv4-sp/hard\libg_nano.a(lib_a-exit.o)
                              c:/mesh/arm_gcc/bin/../lib/gcc/arm-none-eabi/7.3.1/../../../../arm-none-eabi/lib/thumb/v7e-m/fpv4-sp/hard/crt0.o (exit)
c:/mesh/arm_gcc/bin/../lib/gcc/arm-none-eabi/7.3.1/../../../../arm-none-eabi/lib/thumb/v7e-m/fpv4-sp/hard\libg_nano.a(lib_a-impure.o)
                              c:/mesh/arm_gcc/bin/../lib/gcc/arm-none-eabi/7.3.1/../../../../arm-none-eabi/lib/thumb/v7e-m/fpv4-sp/hard\libg_nano.a(lib_a-exit.o) (_global_impure_ptr)
c:/mesh/arm_gcc/bin/../lib/gcc/arm-none-eabi/7.3.1/../../../../arm-none-eabi/lib/thumb/v7e-m/fpv4-sp/hard\libg_nano.a(lib_a-init.o)
                              c:/mesh/arm_gcc/bin/../lib/gcc/arm-none-eabi/7.3.1/../../../../arm-none-eabi/lib/thumb/v7e-m/fpv4-sp/hard/crt0.o (__libc_init_array)
c:/mesh/arm_gcc/bin/../lib/gcc/arm-none-eabi/7.3.1/../../../../arm-none-eabi/lib/thumb/v7e-m/fpv4-sp/hard\libg_nano.a(lib_a-malloc.o)
                              examples/experimental_lpn/CMakeFiles/lpn_nrf52840_xxAA_s140_6.1.1.dir/__/__/mesh/core/src/mesh_mem_stdlib.c.obj (malloc)
c:/mesh/arm_gcc/bin/../lib/gcc/arm-none-eabi/7.3.1/../../../../arm-none-eabi/lib/thumb/v7e-m/fpv4-sp/hard\libg_nano.a(lib_a-memcmp.o)
                              examples/experimental_lpn/CMakeFiles/lpn_nrf52840_xxAA_s140_6.1.1.dir/C_/mesh/deps/nRF5_SDK_15.3.0_59ac345/components/ble/peer_manager/id_manager.c.obj (memcmp)
c:/mesh/arm_gcc/bin/../lib/gcc/arm-none-eabi/7.3.1/../../../../arm-none-eabi/lib/thumb/v7e-m/fpv4-sp/hard\libg_nano.a(lib_a-memcpy-stub.o)
                              examples/experimental_lpn/CMakeFiles/lpn_nrf52840_xxAA_s140_6.1.1.dir/C_/mesh/deps/nRF5_SDK_15.3.0_59ac345/components/ble/ble_services/ble_dfu/ble_dfu_unbonded.c.obj (memcpy)
c:/mesh/arm_gcc/bin/../lib/gcc/arm-none-eabi/7.3.1/../../../../arm-none-eabi/lib/thumb/v7e-m/fpv4-sp/hard\libg_nano.a(lib_a-memset.o)
                              c:/mesh/arm_gcc/bin/../lib/gcc/arm-none-eabi/7.3.1/../../../../arm-none-eabi/lib/thumb/v7e-m/fpv4-sp/hard/crt0.o (memset)
c:/mesh/arm_gcc/bin/../lib/gcc/arm-none-eabi/7.3.1/../../../../arm-none-eabi/lib/thumb/v7e-m/fpv4-sp/hard\libg_nano.a(lib_a-nano-callocr.o)
                              c:/mesh/arm_gcc/bin/../lib/gcc/arm-none-eabi/7.3.1/../../../../arm-none-eabi/lib/thumb/v7e-m/fpv4-sp/hard\libg_nano.a(lib_a-calloc.o) (_calloc_r)
c:/mesh/arm_gcc/bin/../lib/gcc/arm-none-eabi/7.3.1/../../../../arm-none-eabi/lib/thumb/v7e-m/fpv4-sp/hard\libg_nano.a(lib_a-nano-freer.o)
                              c:/mesh/arm_gcc/bin/../lib/gcc/arm-none-eabi/7.3.1/../../../../arm-none-eabi/lib/thumb/v7e-m/fpv4-sp/hard\libg_nano.a(lib_a-malloc.o) (_free_r)
c:/mesh/arm_gcc/bin/../lib/gcc/arm-none-eabi/7.3.1/../../../../arm-none-eabi/lib/thumb/v7e-m/fpv4-sp/hard\libg_nano.a(lib_a-nano-mallocr.o)
                              c:/mesh/arm_gcc/bin/../lib/gcc/arm-none-eabi/7.3.1/../../../../arm-none-eabi/lib/thumb/v7e-m/fpv4-sp/hard\libg_nano.a(lib_a-malloc.o) (_malloc_r)
c:/mesh/arm_gcc/bin/../lib/gcc/arm-none-eabi/7.3.1/../../../../arm-none-eabi/lib/thumb/v7e-m/fpv4-sp/hard\libg_nano.a(lib_a-sbrkr.o)
                              c:/mesh/arm_gcc/bin/../lib/gcc/arm-none-eabi/7.3.1/../../../../arm-none-eabi/lib/thumb/v7e-m/fpv4-sp/hard\libg_nano.a(lib_a-nano-mallocr.o) (_sbrk_r)
c:/mesh/arm_gcc/bin/../lib/gcc/arm-none-eabi/7.3.1/../../../../arm-none-eabi/lib/thumb/v7e-m/fpv4-sp/hard\libg_nano.a(lib_a-strcpy.o)
                              external/rtt/librtt_nrf52840_xxAA.a(SEGGER_RTT.c.obj) (strcpy)
c:/mesh/arm_gcc/bin/../lib/gcc/arm-none-eabi/7.3.1/../../../../arm-none-eabi/lib/thumb/v7e-m/fpv4-sp/hard\libg_nano.a(lib_a-strlen.o)
                              examples/experimental_lpn/CMakeFiles/lpn_nrf52840_xxAA_s140_6.1.1.dir/__/common/src/ble_softdevice_support.c.obj (strlen)
c:/mesh/arm_gcc/bin/../lib/gcc/arm-none-eabi/7.3.1/../../../../arm-none-eabi/lib/thumb/v7e-m/fpv4-sp/hard\libg_nano.a(lib_a-strrchr.o)
                              examples/experimental_lpn/CMakeFiles/lpn_nrf52840_xxAA_s140_6.1.1.dir/src/main.c.obj (strrchr)
c:/mesh/arm_gcc/bin/../lib/gcc/arm-none-eabi/7.3.1/../../../../arm-none-eabi/lib/thumb/v7e-m/fpv4-sp/hard\libg_nano.a(lib_a-mlock.o)
                              c:/mesh/arm_gcc/bin/../lib/gcc/arm-none-eabi/7.3.1/../../../../arm-none-eabi/lib/thumb/v7e-m/fpv4-sp/hard\libg_nano.a(lib_a-nano-freer.o) (__malloc_lock)
c:/mesh/arm_gcc/bin/../lib/gcc/arm-none-eabi/7.3.1/../../../../arm-none-eabi/lib/thumb/v7e-m/fpv4-sp/hard\libg_nano.a(lib_a-reent.o)
                              c:/mesh/arm_gcc/bin/../lib/gcc/arm-none-eabi/7.3.1/../../../../arm-none-eabi/lib/thumb/v7e-m/fpv4-sp/hard\libg_nano.a(lib_a-sbrkr.o) (errno)
c:/mesh/arm_gcc/bin/../lib/gcc/arm-none-eabi/7.3.1/../../../../arm-none-eabi/lib/thumb/v7e-m/fpv4-sp/hard\libg_nano.a(lib_a-strchr.o)
                              c:/mesh/arm_gcc/bin/../lib/gcc/arm-none-eabi/7.3.1/../../../../arm-none-eabi/lib/thumb/v7e-m/fpv4-sp/hard\libg_nano.a(lib_a-strrchr.o) (strchr)
c:/mesh/arm_gcc/bin/../lib/gcc/arm-none-eabi/7.3.1/../../../../arm-none-eabi/lib/thumb/v7e-m/fpv4-sp/hard\libnosys.a(sbrk.o)
                              c:/mesh/arm_gcc/bin/../lib/gcc/arm-none-eabi/7.3.1/../../../../arm-none-eabi/lib/thumb/v7e-m/fpv4-sp/hard\libg_nano.a(lib_a-sbrkr.o) (_sbrk)
c:/mesh/arm_gcc/bin/../lib/gcc/arm-none-eabi/7.3.1/../../../../arm-none-eabi/lib/thumb/v7e-m/fpv4-sp/hard\libnosys.a(_exit.o)
                              c:/mesh/arm_gcc/bin/../lib/gcc/arm-none-eabi/7.3.1/../../../../arm-none-eabi/lib/thumb/v7e-m/fpv4-sp/hard\libg_nano.a(lib_a-exit.o) (_exit)

Allocating common symbols
Common symbol       size              file

nrf_nvic_state      0xc               examples/experimental_lpn/CMakeFiles/lpn_nrf52840_xxAA_s140_6.1.1.dir/C_/mesh/deps/nRF5_SDK_15.3.0_59ac345/components/libraries/util/app_util_platform.c.obj
m_packet            0x24              examples/experimental_lpn/CMakeFiles/lpn_nrf52840_xxAA_s140_6.1.1.dir/__/__/mesh/core/src/core_tx.c.obj
errno               0x4               c:/mesh/arm_gcc/bin/../lib/gcc/arm-none-eabi/7.3.1/../../../../arm-none-eabi/lib/thumb/v7e-m/fpv4-sp/hard\libg_nano.a(lib_a-reent.o)
_SEGGER_RTT         0x78              external/rtt/librtt_nrf52840_xxAA.a(SEGGER_RTT.c.obj)

Discarded input sections

 .text          0x00000000        0x0 c:/mesh/arm_gcc/bin/../lib/gcc/arm-none-eabi/7.3.1/thumb/v7e-m/fpv4-sp/hard/crti.o
 .data          0x00000000        0x0 c:/mesh/arm_gcc/bin/../lib/gcc/arm-none-eabi/7.3.1/thumb/v7e-m/fpv4-sp/hard/crti.o
 .bss           0x00000000        0x0 c:/mesh/arm_gcc/bin/../lib/gcc/arm-none-eabi/7.3.1/thumb/v7e-m/fpv4-sp/hard/crti.o
 .data          0x00000000        0x4 c:/mesh/arm_gcc/bin/../lib/gcc/arm-none-eabi/7.3.1/thumb/v7e-m/fpv4-sp/hard/crtbegin.o
 .data          0x00000000        0x0 c:/mesh/arm_gcc/bin/../lib/gcc/arm-none-eabi/7.3.1/../../../../arm-none-eabi/lib/thumb/v7e-m/fpv4-sp/hard/crt0.o
 .bss           0x00000000        0x0 c:/mesh/arm_gcc/bin/../lib/gcc/arm-none-eabi/7.3.1/../../../../arm-none-eabi/lib/thumb/v7e-m/fpv4-sp/hard/crt0.o
 .ARM.extab     0x00000000        0x0 c:/mesh/arm_gcc/bin/../lib/gcc/arm-none-eabi/7.3.1/../../../../arm-none-eabi/lib/thumb/v7e-m/fpv4-sp/hard/crt0.o
 .text          0x00000000        0x0 examples/experimental_lpn/CMakeFiles/lpn_nrf52840_xxAA_s140_6.1.1.dir/src/main.c.obj
 .data          0x00000000        0x0 examples/experimental_lpn/CMakeFiles/lpn_nrf52840_xxAA_s140_6.1.1.dir/src/main.c.obj
 .bss           0x00000000        0x0 examples/experimental_lpn/CMakeFiles/lpn_nrf52840_xxAA_s140_6.1.1.dir/src/main.c.obj
 .text          0x00000000        0x0 examples/experimental_lpn/CMakeFiles/lpn_nrf52840_xxAA_s140_6.1.1.dir/__/__/mesh/stack/src/mesh_stack.c.obj
 .data          0x00000000        0x0 examples/experimental_lpn/CMakeFiles/lpn_nrf52840_xxAA_s140_6.1.1.dir/__/__/mesh/stack/src/mesh_stack.c.obj
 .bss           0x00000000        0x0 examples/experimental_lpn/CMakeFiles/lpn_nrf52840_xxAA_s140_6.1.1.dir/__/__/mesh/stack/src/mesh_stack.c.obj
 .text.mesh_stack_persistence_flash_usage
                0x00000000       0x36 examples/experimental_lpn/CMakeFiles/lpn_nrf52840_xxAA_s140_6.1.1.dir/__/__/mesh/stack/src/mesh_stack.c.obj
 .text.mesh_stack_health_server_get
                0x00000000        0x8 examples/experimental_lpn/CMakeFiles/lpn_nrf52840_xxAA_s140_6.1.1.dir/__/__/mesh/stack/src/mesh_stack.c.obj
 .text          0x00000000        0x0 examples/experimental_lpn/CMakeFiles/lpn_nrf52840_xxAA_s140_6.1.1.dir/__/common/src/mesh_provisionee.c.obj
Memory Configuration

Name             Origin             Length             Attributes
FLASH            0x00026000         0x000d1000         xr
RAM              0x20002da0         0x0003cf60         xrw
*default*        0x00000000         0xffffffff

Linker script and memory map


.text           0x00026000    0x1cb30
 *(.isr_vector)
 .isr_vector    0x00026000      0x200 examples/experimental_lpn/CMakeFiles/lpn_nrf52840_xxAA_s140_6.1.1.dir/C_/mesh/deps/nRF5_SDK_15.3.0_59ac345/modules/nrfx/mdk/gcc_startup_nrf52840.S.obj
                0x00026000                __isr_vector
 *(.text*)
 .text          0x00026200       0x40 c:/mesh/arm_gcc/bin/../lib/gcc/arm-none-eabi/7.3.1/thumb/v7e-m/fpv4-sp/hard/crtbegin.o
 .text          0x00026240       0x74 c:/mesh/arm_gcc/bin/../lib/gcc/arm-none-eabi/7.3.1/../../../../arm-none-eabi/lib/thumb/v7e-m/fpv4-sp/hard/crt0.o
                0x00026240                _start
                0x00026240                _mainCRTStartup
 .text.sd_power_dcdc_mode_set
                0x000262b4        0x4 examples/experimental_lpn/CMakeFiles/lpn_nrf52840_xxAA_s140_6.1.1.dir/src/main.c.obj
 .text.sd_app_evt_wait
                0x000262b8        0x4 examples/experimental_lpn/CMakeFiles/lpn_nrf52840_xxAA_s140_6.1.1.dir/src/main.c.obj
 .text.app_generic_onoff_client_status_cb
                0x000262bc       0xd0 examples/experimental_lpn/CMakeFiles/lpn_nrf52840_xxAA_s140_6.1.1.dir/src/main.c.obj
 .text.send_app_state
                0x0002638c      0x164 examples/experimental_lpn/CMakeFiles/lpn_nrf52840_xxAA_s140_6.1.1.dir/src/main.c.obj
 .text.state_on_timer_handler
                0x000264f0        0x6 examples/experimental_lpn/CMakeFiles/lpn_nrf52840_xxAA_s140_6.1.1.dir/src/main.c.obj
 *fill*         0x000264f6        0x2 
 .text.node_reset
                0x000264f8       0x74 examples/experimental_lpn/CMakeFiles/lpn_nrf52840_xxAA_s140_6.1.1.dir/src/main.c.obj
 .text.button_event_handler
                0x0002656c      0x31c examples/experimental_lpn/CMakeFiles/lpn_nrf52840_xxAA_s140_6.1.1.dir/src/main.c.obj
 .text.rtt_input_handler
                0x00026888        0xc examples/experimental_lpn/CMakeFiles/lpn_nrf52840_xxAA_s140_6.1.1.dir/src/main.c.obj
 .text.config_server_evt_cb
                0x00026894        0xc examples/experimental_lpn/CMakeFiles/lpn_nrf52840_xxAA_s140_6.1.1.dir/src/main.c.obj
 .text.app_mesh_core_event_cb
                0x000268a0      0x288 examples/experimental_lpn/CMakeFiles/lpn_nrf52840_xxAA_s140_6.1.1.dir/src/main.c.obj
 .text.models_init_cb
                0x00026b28       0x98 examples/experimental_lpn/CMakeFiles/lpn_nrf52840_xxAA_s140_6.1.1.dir/src/main.c.obj
 .text.device_identification_start_cb
                0x00026bc0       0x22 examples/experimental_lpn/CMakeFiles/lpn_nrf52840_xxAA_s140_6.1.1.dir/src/main.c.obj
 .text.provisioning_aborted_cb
                0x00026be2        0x4 examples/experimental_lpn/CMakeFiles/lpn_nrf52840_xxAA_s140_6.1.1.dir/src/main.c.obj
 *fill*         0x00026be6        0x2 
 .text.provisioning_complete_cb
                0x00026be8       0xdc examples/experimental_lpn/CMakeFiles/lpn_nrf52840_xxAA_s140_6.1.1.dir/src/main.c.obj
 .text.app_gen_onoff_client_publish_interval_cb
                0x00026cc4       0x64 examples/experimental_lpn/CMakeFiles/lpn_nrf52840_xxAA_s140_6.1.1.dir/src/main.c.obj
 .text.startup.main
                0x00026d28      0x19c examples/experimental_lpn/CMakeFiles/lpn_nrf52840_xxAA_s140_6.1.1.dir/src/main.c.obj
                0x00026d28                main
 .text.mesh_evt_handler
                0x00026ec4       0x1c examples/experimental_lpn/CMakeFiles/lpn_nrf52840_xxAA_s140_6.1.1.dir/__/__/mesh/stack/src/mesh_stack.c.obj
 .text.mesh_stack_provisioning_data_store
                0x00026ee0       0xe4 examples/experimental_lpn/CMakeFiles/lpn_nrf52840_xxAA_s140_6.1.1.dir/__/__/mesh/stack/src/mesh_stack.c.obj
                0x00026ee0                mesh_stack_provisioning_data_store
 .text.mesh_stack_config_clear
                0x00026fc4       0x16 examples/experimental_lpn/CMakeFiles/lpn_nrf52840_xxAA_s140_6.1.1.dir/__/__/mesh/stack/src/mesh_stack.c.obj
                0x00026fc4                mesh_stack_config_clear
 .text.mesh_stack_is_device_provisioned
                0x00026fda       0x18 examples/experimental_lpn/CMakeFiles/lpn_nrf52840_xxAA_s140_6.1.1.dir/__/__/mesh/stack/src/mesh_stack.c.obj
                0x00026fda                mesh_stack_is_device_provisioned
 *fill*         0x00026ff2        0x2 
 .text.mesh_stack_init
                0x00026ff4       0x70 examples/experimental_lpn/CMakeFiles/lpn_nrf52840_xxAA_s140_6.1.1.dir/__/__/mesh/stack/src/mesh_stack.c.obj
                0x00026ff4                mesh_stack_init
 .text.mesh_stack_start
                0x00027064       0x1a examples/experimental_lpn/CMakeFiles/lpn_nrf52840_xxAA_s140_6.1.1.dir/__/__/mesh/stack/src/mesh_stack.c.obj
                0x00027064                mesh_stack_start
 *fill*         0x0002707e        0x2 
 .text.mesh_stack_device_reset
                0x00027080       0x20 examples/experimental_lpn/CMakeFiles/lpn_nrf52840_xxAA_s140_6.1.1.dir/__/__/mesh/stack/src/mesh_stack.c.obj
                0x00027080                mesh_stack_device_reset
 .text.sd_state_evt_handler
                0x000270a0       0xa8 examples/experimental_lpn/CMakeFiles/lpn_nrf52840_xxAA_s140_6.1.1.dir/__/common/src/mesh_provisionee.c.obj
 .text.mesh_evt_handler
                0x00027148       0x2c examples/experimental_lpn/CMakeFiles/lpn_nrf52840_xxAA_s140_6.1.1.dir/__/common/src/mesh_provisionee.c.obj
 .text.provisionee_start
                0x00027174       0x30 examples/experimental_lpn/CMakeFiles/lpn_nrf52840_xxAA_s140_6.1.1.dir/__/common/src/mesh_provisionee.c.obj
 .text.prov_evt_handler
                0x000271a4       0xbc examples/experimental_lpn/CMakeFiles/lpn_nrf52840_xxAA_s140_6.1.1.dir/__/common/src/mesh_provisionee.c.obj
 .text.mesh_provisionee_prov_start
                0x00027260       0x80 examples/experimental_lpn/CMakeFiles/lpn_nrf52840_xxAA_s140_6.1.1.dir/__/common/src/mesh_provisionee.c.obj
                0x00027260                mesh_provisionee_prov_start
 .text.timeout_handler
                0x000272e0       0x1c examples/experimental_lpn/CMakeFiles/lpn_nrf52840_xxAA_s140_6.1.1.dir/__/common/src/rtt_input.c.obj
                0x000272e0                timeout_handler
 .text.rtt_input_enable
                0x000272fc       0x6c examples/experimental_lpn/CMakeFiles/lpn_nrf52840_xxAA_s140_6.1.1.dir/__/common/src/rtt_input.c.obj
                0x000272fc                rtt_input_enable
 .text.led_timeout_handler
                0x00027368       0x54 examples/experimental_lpn/CMakeFiles/lpn_nrf52840_xxAA_s140_6.1.1.dir/__/common/src/simple_hal.c.obj
 .text.hal_led_pin_set
                0x000273bc       0x18 examples/experimental_lpn/CMakeFiles/lpn_nrf52840_xxAA_s140_6.1.1.dir/__/common/src/simple_hal.c.obj
                0x000273bc                hal_led_pin_set
 .text.hal_led_mask_set
                0x000273d4       0x12 examples/experimental_lpn/CMakeFiles/lpn_nrf52840_xxAA_s140_6.1.1.dir/__/common/src/simple_hal.c.obj
                0x000273d4                hal_led_mask_set
 *fill*         0x000273e6        0x2 
 .text.hal_led_blink_ms
                0x000273e8       0x64 examples/experimental_lpn/CMakeFiles/lpn_nrf52840_xxAA_s140_6.1.1.dir/__/common/src/simple_hal.c.obj
                0x000273e8                hal_led_blink_ms
 .text.hal_led_blink_stop
                0x0002744c       0x20 examples/experimental_lpn/CMakeFiles/lpn_nrf52840_xxAA_s140_6.1.1.dir/__/common/src/simple_hal.c.obj
                0x0002744c                hal_led_blink_stop
 .text.hal_leds_init
                0x0002746c       0x58 examples/experimental_lpn/CMakeFiles/lpn_nrf52840_xxAA_s140_6.1.1.dir/__/common/src/simple_hal.c.obj
                0x0002746c                hal_leds_init
 .text.hal_buttons_init
                0x000274c4       0x50 examples/experimental_lpn/CMakeFiles/lpn_nrf52840_xxAA_s140_6.1.1.dir/__/common/src/simple_hal.c.obj
                0x000274c4                hal_buttons_init
 .text.GPIOTE_IRQHandler
                0x00027514       0x60 examples/experimental_lpn/CMakeFiles/lpn_nrf52840_xxAA_s140_6.1.1.dir/__/common/src/simple_hal.c.obj
                0x00027514                GPIOTE_IRQHandler
 .text.mesh_app_uuid_print
                0x00027574      0x11c examples/experimental_lpn/CMakeFiles/lpn_nrf52840_xxAA_s140_6.1.1.dir/__/common/src/mesh_app_utils.c.obj
                0x00027574                mesh_app_uuid_print
 .text.sd_ble_gatts_hvx
                0x00027690        0x4 examples/experimental_lpn/CMakeFiles/lpn_nrf52840_xxAA_s140_6.1.1.dir/C_/mesh/deps/nRF5_SDK_15.3.0_59ac345/components/ble/ble_services/ble_dfu/ble_dfu.c.obj
 .text.sd_ble_gatts_rw_authorize_reply
                0x00027694        0x4 examples/experimental_lpn/CMakeFiles/lpn_nrf52840_xxAA_s140_6.1.1.dir/C_/mesh/deps/nRF5_SDK_15.3.0_59ac345/components/ble/ble_services/ble_dfu/ble_dfu.c.obj
 .text.sd_power_gpregret_set
                0x00027698        0x4 examples/experimental_lpn/CMakeFiles/lpn_nrf52840_xxAA_s140_6.1.1.dir/C_/mesh/deps/nRF5_SDK_15.3.0_59ac345/components/ble/ble_services/ble_dfu/ble_dfu.c.obj
 .text.sd_power_gpregret_clr
                0x0002769c        0x4 examples/experimental_lpn/CMakeFiles/lpn_nrf52840_xxAA_s140_6.1.1.dir/C_/mesh/deps/nRF5_SDK_15.3.0_59ac345/components/ble/ble_services/ble_dfu/ble_dfu.c.obj
 .text.ble_dfu_buttonless_on_ble_evt
                0x000276a0       0xe0 examples/experimental_lpn/CMakeFiles/lpn_nrf52840_xxAA_s140_6.1.1.dir/C_/mesh/deps/nRF5_SDK_15.3.0_59ac345/components/ble/ble_services/ble_dfu/ble_dfu.c.obj
                0x000276a0                ble_dfu_buttonless_on_ble_evt
 .text.ble_dfu_buttonless_resp_send
                0x00027780       0x60 examples/experimental_lpn/CMakeFiles/lpn_nrf52840_xxAA_s140_6.1.1.dir/C_/mesh/deps/nRF5_SDK_15.3.0_59ac345/components/ble/ble_services/ble_dfu/ble_dfu.c.obj
                0x00027780                ble_dfu_buttonless_resp_send
 .text.ble_dfu_buttonless_bootloader_start_finalize
                0x000277e0       0x30 examples/experimental_lpn/CMakeFiles/lpn_nrf52840_xxAA_s140_6.1.1.dir/C_/mesh/deps/nRF5_SDK_15.3.0_59ac345/components/ble/ble_services/ble_dfu/ble_dfu.c.obj
                0x000277e0                ble_dfu_buttonless_bootloader_start_finalize
 .text.ble_dfu_buttonless_on_sys_evt
                0x00027810       0x5c examples/experimental_lpn/CMakeFiles/lpn_nrf52840_xxAA_s140_6.1.1.dir/C_/mesh/deps/nRF5_SDK_15.3.0_59ac345/components/ble/ble_services/ble_dfu/ble_dfu_unbonded.c.obj
                0x00027810                ble_dfu_buttonless_on_sys_evt
 .text.ble_dfu_buttonless_on_ctrl_pt_write
                0x0002786c       0xa8 examples/experimental_lpn/CMakeFiles/lpn_nrf52840_xxAA_s140_6.1.1.dir/C_/mesh/deps/nRF5_SDK_15.3.0_59ac345/components/ble/ble_services/ble_dfu/ble_dfu_unbonded.c.obj
                0x0002786c                ble_dfu_buttonless_on_ctrl_pt_write
 .text.ble_dfu_buttonless_bootloader_start_prepare
                0x00027914       0x18 examples/experimental_lpn/CMakeFiles/lpn_nrf52840_xxAA_s140_6.1.1.dir/C_/mesh/deps/nRF5_SDK_15.3.0_59ac345/components/ble/ble_services/ble_dfu/ble_dfu_unbonded.c.obj
                0x00027914                ble_dfu_buttonless_bootloader_start_prepare
 .text.for_each_set_flag
                0x0002792c       0x34 examples/experimental_lpn/CMakeFiles/lpn_nrf52840_xxAA_s140_6.1.1.dir/C_/mesh/deps/nRF5_SDK_15.3.0_59ac345/components/ble/common/ble_conn_state.c.obj
 .text.conn_handle_list_get
                0x00027960       0x2e examples/experimental_lpn/CMakeFiles/lpn_nrf52840_xxAA_s140_6.1.1.dir/C_/mesh/deps/nRF5_SDK_15.3.0_59ac345/components/ble/common/ble_conn_state.c.obj
                0x00027960                conn_handle_list_get
 *fill*         0x0002798e        0x2 
 .text.ble_evt_handler
                0x00027990       0xd8 examples/experimental_lpn/CMakeFiles/lpn_nrf52840_xxAA_s140_6.1.1.dir/C_/mesh/deps/nRF5_SDK_15.3.0_59ac345/components/ble/common/ble_conn_state.c.obj
 .text.ble_conn_state_valid
                0x00027a68       0x14 examples/experimental_lpn/CMakeFiles/lpn_nrf52840_xxAA_s140_6.1.1.dir/C_/mesh/deps/nRF5_SDK_15.3.0_59ac345/components/ble/common/ble_conn_state.c.obj
                0x00027a68                ble_conn_state_valid
 .text.ble_conn_state_role
                0x00027a7c       0x20 examples/experimental_lpn/CMakeFiles/lpn_nrf52840_xxAA_s140_6.1.1.dir/C_/mesh/deps/nRF5_SDK_15.3.0_59ac345/components/ble/common/ble_conn_state.c.obj
                0x00027a7c                ble_conn_state_role
 .text.ble_conn_state_encrypted
                0x00027a9c       0x1c examples/experimental_lpn/CMakeFiles/lpn_nrf52840_xxAA_s140_6.1.1.dir/C_/mesh/deps/nRF5_SDK_15.3.0_59ac345/components/ble/common/ble_conn_state.c.obj
                0x00027a9c                ble_conn_state_encrypted
 .text.ble_conn_state_user_flag_get
                0x00027ab8       0x30 examples/experimental_lpn/CMakeFiles/lpn_nrf52840_xxAA_s140_6.1.1.dir/C_/mesh/deps/nRF5_SDK_15.3.0_59ac345/components/ble/common/ble_conn_state.c.obj
                0x00027ab8                ble_conn_state_user_flag_get
 .text.ble_conn_state_user_flag_set
                0x00027ae8       0x3c examples/experimental_lpn/CMakeFiles/lpn_nrf52840_xxAA_s140_6.1.1.dir/C_/mesh/deps/nRF5_SDK_15.3.0_59ac345/components/ble/common/ble_conn_state.c.obj
                0x00027ae8                ble_conn_state_user_flag_set
 .text.ble_conn_state_for_each_set_user_flag
                0x00027b24       0x30 examples/experimental_lpn/CMakeFiles/lpn_nrf52840_xxAA_s140_6.1.1.dir/C_/mesh/deps/nRF5_SDK_15.3.0_59ac345/components/ble/common/ble_conn_state.c.obj
                0x00027b24                ble_conn_state_for_each_set_user_flag
 .text.nrf_atfifo_item_alloc
                0x00027b54       0x54 examples/experimental_lpn/CMakeFiles/lpn_nrf52840_xxAA_s140_6.1.1.dir/C_/mesh/deps/nRF5_SDK_15.3.0_59ac345/components/libraries/atomic_fifo/nrf_atfifo.c.obj
                0x00027b54                nrf_atfifo_item_alloc
 .text.nrf_atfifo_item_put
                0x00027ba8       0x20 examples/experimental_lpn/CMakeFiles/lpn_nrf52840_xxAA_s140_6.1.1.dir/C_/mesh/deps/nRF5_SDK_15.3.0_59ac345/components/libraries/atomic_fifo/nrf_atfifo.c.obj
                0x00027ba8                nrf_atfifo_item_put
 .text.nrf_atfifo_item_get
                0x00027bc8       0x56 examples/experimental_lpn/CMakeFiles/lpn_nrf52840_xxAA_s140_6.1.1.dir/C_/mesh/deps/nRF5_SDK_15.3.0_59ac345/components/libraries/atomic_fifo/nrf_atfifo.c.obj
                0x00027bc8                nrf_atfifo_item_get
 .text.nrf_atfifo_item_free
                0x00027c1e       0x20 examples/experimental_lpn/CMakeFiles/lpn_nrf52840_xxAA_s140_6.1.1.dir/C_/mesh/deps/nRF5_SDK_15.3.0_59ac345/components/libraries/atomic_fifo/nrf_atfifo.c.obj
                0x00027c1e                nrf_atfifo_item_free
 .text.nrf_atflags_set
                0x00027c3e       0x12 examples/experimental_lpn/CMakeFiles/lpn_nrf52840_xxAA_s140_6.1.1.dir/C_/mesh/deps/nRF5_SDK_15.3.0_59ac345/components/libraries/atomic_flags/nrf_atflags.c.obj
                0x00027c3e                nrf_atflags_set
 .text.nrf_atflags_fetch_set
                0x00027c50       0x1c examples/experimental_lpn/CMakeFiles/lpn_nrf52840_xxAA_s140_6.1.1.dir/C_/mesh/deps/nRF5_SDK_15.3.0_59ac345/components/libraries/atomic_flags/nrf_atflags.c.obj
                0x00027c50                nrf_atflags_fetch_set
 .text.nrf_atflags_clear
                0x00027c6c       0x14 examples/experimental_lpn/CMakeFiles/lpn_nrf52840_xxAA_s140_6.1.1.dir/C_/mesh/deps/nRF5_SDK_15.3.0_59ac345/components/libraries/atomic_flags/nrf_atflags.c.obj
                0x00027c6c                nrf_atflags_clear
 .text.nrf_atflags_get
                0x00027c80       0x12 examples/experimental_lpn/CMakeFiles/lpn_nrf52840_xxAA_s140_6.1.1.dir/C_/mesh/deps/nRF5_SDK_15.3.0_59ac345/components/libraries/atomic_flags/nrf_atflags.c.obj
                0x00027c80                nrf_atflags_get
 .text.nrf_atflags_find_and_set_flag
                0x00027c92       0x5a examples/experimental_lpn/CMakeFiles/lpn_nrf52840_xxAA_s140_6.1.1.dir/C_/mesh/deps/nRF5_SDK_15.3.0_59ac345/components/libraries/atomic_flags/nrf_atflags.c.obj
                0x00027c92                nrf_atflags_find_and_set_flag
 .text.event_send
                0x00027cec       0x20 examples/experimental_lpn/CMakeFiles/lpn_nrf52840_xxAA_s140_6.1.1.dir/C_/mesh/deps/nRF5_SDK_15.3.0_59ac345/components/libraries/fds/fds.c.obj
 .text.write_space_reserve
                0x00027d0c       0x5c examples/experimental_lpn/CMakeFiles/lpn_nrf52840_xxAA_s140_6.1.1.dir/C_/mesh/deps/nRF5_SDK_15.3.0_59ac345/components/libraries/fds/fds.c.obj
 .text.gc_page_erase
                0x00027d68       0x40 examples/experimental_lpn/CMakeFiles/lpn_nrf52840_xxAA_s140_6.1.1.dir/C_/mesh/deps/nRF5_SDK_15.3.0_59ac345/components/libraries/fds/fds.c.obj
 .text.page_tag_write_swap
                0x00027da8       0x28 examples/experimental_lpn/CMakeFiles/lpn_nrf52840_xxAA_s140_6.1.1.dir/C_/mesh/deps/nRF5_SDK_15.3.0_59ac345/components/libraries/fds/fds.c.obj
 .text.page_tag_write_data
                0x00027dd0       0x20 examples/experimental_lpn/CMakeFiles/lpn_nrf52840_xxAA_s140_6.1.1.dir/C_/mesh/deps/nRF5_SDK_15.3.0_59ac345/components/libraries/fds/fds.c.obj
 .text.record_header_flag_dirty
                0x00027df0       0x38 examples/experimental_lpn/CMakeFiles/lpn_nrf52840_xxAA_s140_6.1.1.dir/C_/mesh/deps/nRF5_SDK_15.3.0_59ac345/components/libraries/fds/fds.c.obj
 .text.gc_record_copy
                0x00027e28       0x38 examples/experimental_lpn/CMakeFiles/lpn_nrf52840_xxAA_s140_6.1.1.dir/C_/mesh/deps/nRF5_SDK_15.3.0_59ac345/components/libraries/fds/fds.c.obj
 .text.queue_buf_get
                0x00027e60       0x1c examples/experimental_lpn/CMakeFiles/lpn_nrf52840_xxAA_s140_6.1.1.dir/C_/mesh/deps/nRF5_SDK_15.3.0_59ac345/components/libraries/fds/fds.c.obj
 .text.header_check
                0x00027e7c       0x28 examples/experimental_lpn/CMakeFiles/lpn_nrf52840_xxAA_s140_6.1.1.dir/C_/mesh/deps/nRF5_SDK_15.3.0_59ac345/components/libraries/fds/fds.c.obj
 .text.record_find_next
                0x00027ea4       0x58 examples/experimental_lpn/CMakeFiles/lpn_nrf52840_xxAA_s140_6.1.1.dir/C_/mesh/deps/nRF5_SDK_15.3.0_59ac345/components/libraries/fds/fds.c.obj
 .text.record_find_by_desc
                0x00027efc       0xac examples/experimental_lpn/CMakeFiles/lpn_nrf52840_xxAA_s140_6.1.1.dir/C_/mesh/deps/nRF5_SDK_15.3.0_59ac345/components/libraries/fds/fds.c.obj
 .text.record_find
                0x00027fa8       0x90 examples/experimental_lpn/CMakeFiles/lpn_nrf52840_xxAA_s140_6.1.1.dir/C_/mesh/deps/nRF5_SDK_15.3.0_59ac345/components/libraries/fds/fds.c.obj
 .text.gc_record_find_next
                0x00028038       0x24 examples/experimental_lpn/CMakeFiles/lpn_nrf52840_xxAA_s140_6.1.1.dir/C_/mesh/deps/nRF5_SDK_15.3.0_59ac345/components/libraries/fds/fds.c.obj
 .text.queue_process
                0x0002805c      0x4c0 examples/experimental_lpn/CMakeFiles/lpn_nrf52840_xxAA_s140_6.1.1.dir/C_/mesh/deps/nRF5_SDK_15.3.0_59ac345/components/libraries/fds/fds.c.obj
 .text.fs_event_handler
                0x0002851c        0x6 examples/experimental_lpn/CMakeFiles/lpn_nrf52840_xxAA_s140_6.1.1.dir/C_/mesh/deps/nRF5_SDK_15.3.0_59ac345/components/libraries/fds/fds.c.obj
 *fill*         0x00028522        0x2 
 .text.queue_start
                0x00028524       0x1c examples/experimental_lpn/CMakeFiles/lpn_nrf52840_xxAA_s140_6.1.1.dir/C_/mesh/deps/nRF5_SDK_15.3.0_59ac345/components/libraries/fds/fds.c.obj
 .text.write_enqueue
                0x00028540       0xec examples/experimental_lpn/CMakeFiles/lpn_nrf52840_xxAA_s140_6.1.1.dir/C_/mesh/deps/nRF5_SDK_15.3.0_59ac345/components/libraries/fds/fds.c.obj
 .text.fds_record_open
                0x0002862c       0x48 examples/experimental_lpn/CMakeFiles/lpn_nrf52840_xxAA_s140_6.1.1.dir/C_/mesh/deps/nRF5_SDK_15.3.0_59ac345/components/libraries/fds/fds.c.obj
                0x0002862c                fds_record_open
 .text.fds_record_close
                0x00028674       0x44 examples/experimental_lpn/CMakeFiles/lpn_nrf52840_xxAA_s140_6.1.1.dir/C_/mesh/deps/nRF5_SDK_15.3.0_59ac345/components/libraries/fds/fds.c.obj
                0x00028674                fds_record_close
 .text.fds_record_write
                0x000286b8        0x8 examples/experimental_lpn/CMakeFiles/lpn_nrf52840_xxAA_s140_6.1.1.dir/C_/mesh/deps/nRF5_SDK_15.3.0_59ac345/components/libraries/fds/fds.c.obj
                0x000286b8                fds_record_write
 .text.fds_record_update
                0x000286c0        0xe examples/experimental_lpn/CMakeFiles/lpn_nrf52840_xxAA_s140_6.1.1.dir/C_/mesh/deps/nRF5_SDK_15.3.0_59ac345/components/libraries/fds/fds.c.obj
                0x000286c0                fds_record_update
 *fill*         0x000286ce        0x2 
 .text.fds_file_delete
                0x000286d0       0x4c examples/experimental_lpn/CMakeFiles/lpn_nrf52840_xxAA_s140_6.1.1.dir/C_/mesh/deps/nRF5_SDK_15.3.0_59ac345/components/libraries/fds/fds.c.obj
                0x000286d0                fds_file_delete
 .text.fds_record_find
                0x0002871c       0x1c examples/experimental_lpn/CMakeFiles/lpn_nrf52840_xxAA_s140_6.1.1.dir/C_/mesh/deps/nRF5_SDK_15.3.0_59ac345/components/libraries/fds/fds.c.obj
                0x0002871c                fds_record_find
 .text.fds_record_find_by_key
                0x00028738       0x18 examples/experimental_lpn/CMakeFiles/lpn_nrf52840_xxAA_s140_6.1.1.dir/C_/mesh/deps/nRF5_SDK_15.3.0_59ac345/components/libraries/fds/fds.c.obj
                0x00028738                fds_record_find_by_key
 .text.fds_record_find_in_file
                0x00028750       0x18 examples/experimental_lpn/CMakeFiles/lpn_nrf52840_xxAA_s140_6.1.1.dir/C_/mesh/deps/nRF5_SDK_15.3.0_59ac345/components/libraries/fds/fds.c.obj
                0x00028750                fds_record_find_in_file
 .text.fds_record_id_from_desc
                0x00028768       0x10 examples/experimental_lpn/CMakeFiles/lpn_nrf52840_xxAA_s140_6.1.1.dir/C_/mesh/deps/nRF5_SDK_15.3.0_59ac345/components/libraries/fds/fds.c.obj
                0x00028768                fds_record_id_from_desc
 .text.nrf_fstorage_write
                0x00028778       0x5c examples/experimental_lpn/CMakeFiles/lpn_nrf52840_xxAA_s140_6.1.1.dir/C_/mesh/deps/nRF5_SDK_15.3.0_59ac345/components/libraries/fstorage/nrf_fstorage.c.obj
                0x00028778                nrf_fstorage_write
 .text.nrf_fstorage_erase
                0x000287d4       0x4c examples/experimental_lpn/CMakeFiles/lpn_nrf52840_xxAA_s140_6.1.1.dir/C_/mesh/deps/nRF5_SDK_15.3.0_59ac345/components/libraries/fstorage/nrf_fstorage.c.obj
                0x000287d4                nrf_fstorage_erase
 .text.sd_flash_write
                0x00028820        0x4 examples/experimental_lpn/CMakeFiles/lpn_nrf52840_xxAA_s140_6.1.1.dir/C_/mesh/deps/nRF5_SDK_15.3.0_59ac345/components/libraries/fstorage/nrf_fstorage_sd.c.obj
 .text.sd_flash_page_erase
                0x00028824        0x4 examples/experimental_lpn/CMakeFiles/lpn_nrf52840_xxAA_s140_6.1.1.dir/C_/mesh/deps/nRF5_SDK_15.3.0_59ac345/components/libraries/fstorage/nrf_fstorage_sd.c.obj
 .text.event_send
                0x00028828       0x52 examples/experimental_lpn/CMakeFiles/lpn_nrf52840_xxAA_s140_6.1.1.dir/C_/mesh/deps/nRF5_SDK_15.3.0_59ac345/components/libraries/fstorage/nrf_fstorage_sd.c.obj
 *fill*         0x0002887a        0x2 
 .text.nrf_fstorage_sdh_req_handler
                0x0002887c       0x14 examples/experimental_lpn/CMakeFiles/lpn_nrf52840_xxAA_s140_6.1.1.dir/C_/mesh/deps/nRF5_SDK_15.3.0_59ac345/components/libraries/fstorage/nrf_fstorage_sd.c.obj
                0x0002887c                nrf_fstorage_sdh_req_handler
 .text.queue_process
                0x00028890       0xa4 examples/experimental_lpn/CMakeFiles/lpn_nrf52840_xxAA_s140_6.1.1.dir/C_/mesh/deps/nRF5_SDK_15.3.0_59ac345/components/libraries/fstorage/nrf_fstorage_sd.c.obj
 .text.nrf_fstorage_sys_evt_handler
                0x00028934       0xa8 examples/experimental_lpn/CMakeFiles/lpn_nrf52840_xxAA_s140_6.1.1.dir/C_/mesh/deps/nRF5_SDK_15.3.0_59ac345/components/libraries/fstorage/nrf_fstorage_sd.c.obj
                0x00028934                nrf_fstorage_sys_evt_handler
 .text.nrf_fstorage_sdh_state_handler
                0x000289dc       0x20 examples/experimental_lpn/CMakeFiles/lpn_nrf52840_xxAA_s140_6.1.1.dir/C_/mesh/deps/nRF5_SDK_15.3.0_59ac345/components/libraries/fstorage/nrf_fstorage_sd.c.obj
                0x000289dc                nrf_fstorage_sdh_state_handler
 .text.sd_power_system_off
                0x000289fc        0x4 examples/experimental_lpn/CMakeFiles/lpn_nrf52840_xxAA_s140_6.1.1.dir/C_/mesh/deps/nRF5_SDK_15.3.0_59ac345/components/libraries/pwr_mgmt/nrf_pwr_mgmt.c.obj
 .text.nrf_pwr_mgmt_shutdown
                0x00028a00       0xa4 examples/experimental_lpn/CMakeFiles/lpn_nrf52840_xxAA_s140_6.1.1.dir/C_/mesh/deps/nRF5_SDK_15.3.0_59ac345/components/libraries/pwr_mgmt/nrf_pwr_mgmt.c.obj
                0x00028a00                nrf_pwr_mgmt_shutdown
 .text.sd_ble_gattc_char_value_by_uuid_read
                0x00028aa4        0x4 examples/experimental_lpn/CMakeFiles/lpn_nrf52840_xxAA_s140_6.1.1.dir/C_/mesh/deps/nRF5_SDK_15.3.0_59ac345/components/ble/peer_manager/gatt_cache_manager.c.obj
 .text.sd_ble_gattc_read
                0x00028aa8        0x4 examples/experimental_lpn/CMakeFiles/lpn_nrf52840_xxAA_s140_6.1.1.dir/C_/mesh/deps/nRF5_SDK_15.3.0_59ac345/components/ble/peer_manager/gatt_cache_manager.c.obj
 .text.sd_ble_gatts_value_get
                0x00028aac        0x4 examples/experimental_lpn/CMakeFiles/lpn_nrf52840_xxAA_s140_6.1.1.dir/C_/mesh/deps/nRF5_SDK_15.3.0_59ac345/components/ble/peer_manager/gatt_cache_manager.c.obj
 .text.sd_ble_gatts_initial_user_handle_get
                0x00028ab0        0x4 examples/experimental_lpn/CMakeFiles/lpn_nrf52840_xxAA_s140_6.1.1.dir/C_/mesh/deps/nRF5_SDK_15.3.0_59ac345/components/ble/peer_manager/gatt_cache_manager.c.obj
 .text.evt_send
                0x00028ab4       0x16 examples/experimental_lpn/CMakeFiles/lpn_nrf52840_xxAA_s140_6.1.1.dir/C_/mesh/deps/nRF5_SDK_15.3.0_59ac345/components/ble/peer_manager/gatt_cache_manager.c.obj
 .text.send_unexpected_error
                0x00028aca       0x28 examples/experimental_lpn/CMakeFiles/lpn_nrf52840_xxAA_s140_6.1.1.dir/C_/mesh/deps/nRF5_SDK_15.3.0_59ac345/components/ble/peer_manager/gatt_cache_manager.c.obj
 *fill*         0x00028af2        0x2 
 .text.local_db_apply_in_evt
                0x00028af4       0x6c examples/experimental_lpn/CMakeFiles/lpn_nrf52840_xxAA_s140_6.1.1.dir/C_/mesh/deps/nRF5_SDK_15.3.0_59ac345/components/ble/peer_manager/gatt_cache_manager.c.obj
 .text.apply_pending_handle
                0x00028b60        0x4 examples/experimental_lpn/CMakeFiles/lpn_nrf52840_xxAA_s140_6.1.1.dir/C_/mesh/deps/nRF5_SDK_15.3.0_59ac345/components/ble/peer_manager/gatt_cache_manager.c.obj
 .text.service_changed_pending_flags_check
                0x00028b64       0x14 examples/experimental_lpn/CMakeFiles/lpn_nrf52840_xxAA_s140_6.1.1.dir/C_/mesh/deps/nRF5_SDK_15.3.0_59ac345/components/ble/peer_manager/gatt_cache_manager.c.obj
 .text.sc_send_pending_handle
                0x00028b78      0x104 examples/experimental_lpn/CMakeFiles/lpn_nrf52840_xxAA_s140_6.1.1.dir/C_/mesh/deps/nRF5_SDK_15.3.0_59ac345/components/ble/peer_manager/gatt_cache_manager.c.obj
 .text.car_update_needed
                0x00028c7c       0x2c examples/experimental_lpn/CMakeFiles/lpn_nrf52840_xxAA_s140_6.1.1.dir/C_/mesh/deps/nRF5_SDK_15.3.0_59ac345/components/ble/peer_manager/gatt_cache_manager.c.obj
 .text.update_pending_flags_check
                0x00028ca8       0x34 examples/experimental_lpn/CMakeFiles/lpn_nrf52840_xxAA_s140_6.1.1.dir/C_/mesh/deps/nRF5_SDK_15.3.0_59ac345/components/ble/peer_manager/gatt_cache_manager.c.obj
 .text.car_update_pending_handle
                0x00028cdc       0x48 examples/experimental_lpn/CMakeFiles/lpn_nrf52840_xxAA_s140_6.1.1.dir/C_/mesh/deps/nRF5_SDK_15.3.0_59ac345/components/ble/peer_manager/gatt_cache_manager.c.obj
 .text.db_update_pending_handle
                0x00028d24       0x84 examples/experimental_lpn/CMakeFiles/lpn_nrf52840_xxAA_s140_6.1.1.dir/C_/mesh/deps/nRF5_SDK_15.3.0_59ac345/components/ble/peer_manager/gatt_cache_manager.c.obj
 .text.gcm_im_evt_handler
                0x00028da8       0x38 examples/experimental_lpn/CMakeFiles/lpn_nrf52840_xxAA_s140_6.1.1.dir/C_/mesh/deps/nRF5_SDK_15.3.0_59ac345/components/ble/peer_manager/gatt_cache_manager.c.obj
                0x00028da8                gcm_im_evt_handler
 .text.gcm_pdb_evt_handler
                0x00028de0       0x90 examples/experimental_lpn/CMakeFiles/lpn_nrf52840_xxAA_s140_6.1.1.dir/C_/mesh/deps/nRF5_SDK_15.3.0_59ac345/components/ble/peer_manager/gatt_cache_manager.c.obj
                0x00028de0                gcm_pdb_evt_handler
 .text.store_car_value
                0x00028e70       0x50 examples/experimental_lpn/CMakeFiles/lpn_nrf52840_xxAA_s140_6.1.1.dir/C_/mesh/deps/nRF5_SDK_15.3.0_59ac345/components/ble/peer_manager/gatt_cache_manager.c.obj
                0x00028e70                store_car_value
 .text.gcm_ble_evt_handler
                0x00028ec0      0x130 examples/experimental_lpn/CMakeFiles/lpn_nrf52840_xxAA_s140_6.1.1.dir/C_/mesh/deps/nRF5_SDK_15.3.0_59ac345/components/ble/peer_manager/gatt_cache_manager.c.obj
                0x00028ec0                gcm_ble_evt_handler
 .text.sd_ble_gatts_service_changed
                0x00028ff0        0x4 examples/experimental_lpn/CMakeFiles/lpn_nrf52840_xxAA_s140_6.1.1.dir/C_/mesh/deps/nRF5_SDK_15.3.0_59ac345/components/ble/peer_manager/gatts_cache_manager.c.obj
 .text.sd_ble_gatts_sys_attr_set
                0x00028ff4        0x4 examples/experimental_lpn/CMakeFiles/lpn_nrf52840_xxAA_s140_6.1.1.dir/C_/mesh/deps/nRF5_SDK_15.3.0_59ac345/components/ble/peer_manager/gatts_cache_manager.c.obj
 .text.sd_ble_gatts_sys_attr_get
                0x00028ff8        0x4 examples/experimental_lpn/CMakeFiles/lpn_nrf52840_xxAA_s140_6.1.1.dir/C_/mesh/deps/nRF5_SDK_15.3.0_59ac345/components/ble/peer_manager/gatts_cache_manager.c.obj
 .text.sd_ble_gatts_initial_user_handle_get
                0x00028ffc        0x4 examples/experimental_lpn/CMakeFiles/lpn_nrf52840_xxAA_s140_6.1.1.dir/C_/mesh/deps/nRF5_SDK_15.3.0_59ac345/components/ble/peer_manager/gatts_cache_manager.c.obj
 .text.evt_send
                0x00029000       0x16 examples/experimental_lpn/CMakeFiles/lpn_nrf52840_xxAA_s140_6.1.1.dir/C_/mesh/deps/nRF5_SDK_15.3.0_59ac345/components/ble/peer_manager/gatts_cache_manager.c.obj
 *fill*         0x00029016        0x2 
 .text.service_changed_pending_set
                0x00029018       0x6c examples/experimental_lpn/CMakeFiles/lpn_nrf52840_xxAA_s140_6.1.1.dir/C_/mesh/deps/nRF5_SDK_15.3.0_59ac345/components/ble/peer_manager/gatts_cache_manager.c.obj
 .text.gscm_pdb_evt_handler
                0x00029084       0x18 examples/experimental_lpn/CMakeFiles/lpn_nrf52840_xxAA_s140_6.1.1.dir/C_/mesh/deps/nRF5_SDK_15.3.0_59ac345/components/ble/peer_manager/gatts_cache_manager.c.obj
                0x00029084                gscm_pdb_evt_handler
 .text.gscm_local_db_cache_update
                0x0002909c       0x8a examples/experimental_lpn/CMakeFiles/lpn_nrf52840_xxAA_s140_6.1.1.dir/C_/mesh/deps/nRF5_SDK_15.3.0_59ac345/components/ble/peer_manager/gatts_cache_manager.c.obj
                0x0002909c                gscm_local_db_cache_update
 .text.gscm_local_db_cache_apply
                0x00029126       0x7a examples/experimental_lpn/CMakeFiles/lpn_nrf52840_xxAA_s140_6.1.1.dir/C_/mesh/deps/nRF5_SDK_15.3.0_59ac345/components/ble/peer_manager/gatts_cache_manager.c.obj
                0x00029126                gscm_local_db_cache_apply
 .text.gscm_service_changed_ind_needed
                0x000291a0       0x24 examples/experimental_lpn/CMakeFiles/lpn_nrf52840_xxAA_s140_6.1.1.dir/C_/mesh/deps/nRF5_SDK_15.3.0_59ac345/components/ble/peer_manager/gatts_cache_manager.c.obj
                0x000291a0                gscm_service_changed_ind_needed
 .text.gscm_service_changed_ind_send
                0x000291c4       0x34 examples/experimental_lpn/CMakeFiles/lpn_nrf52840_xxAA_s140_6.1.1.dir/C_/mesh/deps/nRF5_SDK_15.3.0_59ac345/components/ble/peer_manager/gatts_cache_manager.c.obj
                0x000291c4                gscm_service_changed_ind_send
 .text.gscm_db_change_notification_done
                0x000291f8       0x24 examples/experimental_lpn/CMakeFiles/lpn_nrf52840_xxAA_s140_6.1.1.dir/C_/mesh/deps/nRF5_SDK_15.3.0_59ac345/components/ble/peer_manager/gatts_cache_manager.c.obj
                0x000291f8                gscm_db_change_notification_done
 .text.sd_ecb_block_encrypt
                0x0002921c        0x4 examples/experimental_lpn/CMakeFiles/lpn_nrf52840_xxAA_s140_6.1.1.dir/C_/mesh/deps/nRF5_SDK_15.3.0_59ac345/components/ble/peer_manager/id_manager.c.obj
 .text.is_valid_irk
                0x00029220       0x16 examples/experimental_lpn/CMakeFiles/lpn_nrf52840_xxAA_s140_6.1.1.dir/C_/mesh/deps/nRF5_SDK_15.3.0_59ac345/components/ble/peer_manager/id_manager.c.obj
                0x00029220                is_valid_irk
 .text.addr_compare
                0x00029236       0x28 examples/experimental_lpn/CMakeFiles/lpn_nrf52840_xxAA_s140_6.1.1.dir/C_/mesh/deps/nRF5_SDK_15.3.0_59ac345/components/ble/peer_manager/id_manager.c.obj
                0x00029236                addr_compare
 .text.im_is_duplicate_bonding_data
                0x0002925e       0x62 examples/experimental_lpn/CMakeFiles/lpn_nrf52840_xxAA_s140_6.1.1.dir/C_/mesh/deps/nRF5_SDK_15.3.0_59ac345/components/ble/peer_manager/id_manager.c.obj
                0x0002925e                im_is_duplicate_bonding_data
 .text.im_find_duplicate_bonding_data
                0x000292c0       0x3c examples/experimental_lpn/CMakeFiles/lpn_nrf52840_xxAA_s140_6.1.1.dir/C_/mesh/deps/nRF5_SDK_15.3.0_59ac345/components/ble/peer_manager/id_manager.c.obj
                0x000292c0                im_find_duplicate_bonding_data
 .text.im_peer_id_get_by_conn_handle
                0x000292fc       0x24 examples/experimental_lpn/CMakeFiles/lpn_nrf52840_xxAA_s140_6.1.1.dir/C_/mesh/deps/nRF5_SDK_15.3.0_59ac345/components/ble/peer_manager/id_manager.c.obj
                0x000292fc                im_peer_id_get_by_conn_handle
 .text.im_ble_addr_get
                0x00029320       0x38 examples/experimental_lpn/CMakeFiles/lpn_nrf52840_xxAA_s140_6.1.1.dir/C_/mesh/deps/nRF5_SDK_15.3.0_59ac345/components/ble/peer_manager/id_manager.c.obj
                0x00029320                im_ble_addr_get
 .text.im_conn_handle_get
                0x00029358       0x44 examples/experimental_lpn/CMakeFiles/lpn_nrf52840_xxAA_s140_6.1.1.dir/C_/mesh/deps/nRF5_SDK_15.3.0_59ac345/components/ble/peer_manager/id_manager.c.obj
                0x00029358                im_conn_handle_get
 .text.im_master_id_is_valid
                0x0002939c       0x1a examples/experimental_lpn/CMakeFiles/lpn_nrf52840_xxAA_s140_6.1.1.dir/C_/mesh/deps/nRF5_SDK_15.3.0_59ac345/components/ble/peer_manager/id_manager.c.obj
                0x0002939c                im_master_id_is_valid
 .text.im_master_ids_compare
                0x000293b6       0x28 examples/experimental_lpn/CMakeFiles/lpn_nrf52840_xxAA_s140_6.1.1.dir/C_/mesh/deps/nRF5_SDK_15.3.0_59ac345/components/ble/peer_manager/id_manager.c.obj
                0x000293b6                im_master_ids_compare
 .text.im_peer_id_get_by_master_id
                0x000293de       0x40 examples/experimental_lpn/CMakeFiles/lpn_nrf52840_xxAA_s140_6.1.1.dir/C_/mesh/deps/nRF5_SDK_15.3.0_59ac345/components/ble/peer_manager/id_manager.c.obj
                0x000293de                im_peer_id_get_by_master_id
 *fill*         0x0002941e        0x2 
 .text.im_new_peer_id
                0x00029420       0x14 examples/experimental_lpn/CMakeFiles/lpn_nrf52840_xxAA_s140_6.1.1.dir/C_/mesh/deps/nRF5_SDK_15.3.0_59ac345/components/ble/peer_manager/id_manager.c.obj
                0x00029420                im_new_peer_id
 .text.im_peer_free
                0x00029434       0x28 examples/experimental_lpn/CMakeFiles/lpn_nrf52840_xxAA_s140_6.1.1.dir/C_/mesh/deps/nRF5_SDK_15.3.0_59ac345/components/ble/peer_manager/id_manager.c.obj
                0x00029434                im_peer_free
 .text.ah       0x0002945c       0x54 examples/experimental_lpn/CMakeFiles/lpn_nrf52840_xxAA_s140_6.1.1.dir/C_/mesh/deps/nRF5_SDK_15.3.0_59ac345/components/ble/peer_manager/id_manager.c.obj
                0x0002945c                ah
 .text.im_address_resolve
                0x000294b0       0x48 examples/experimental_lpn/CMakeFiles/lpn_nrf52840_xxAA_s140_6.1.1.dir/C_/mesh/deps/nRF5_SDK_15.3.0_59ac345/components/ble/peer_manager/id_manager.c.obj
                0x000294b0                im_address_resolve
 .text.im_ble_evt_handler
                0x000294f8       0xd0 examples/experimental_lpn/CMakeFiles/lpn_nrf52840_xxAA_s140_6.1.1.dir/C_/mesh/deps/nRF5_SDK_15.3.0_59ac345/components/ble/peer_manager/id_manager.c.obj
                0x000294f8                im_ble_evt_handler
 .text.evt_send
                0x000295c8       0x28 examples/experimental_lpn/CMakeFiles/lpn_nrf52840_xxAA_s140_6.1.1.dir/C_/mesh/deps/nRF5_SDK_15.3.0_59ac345/components/ble/peer_manager/peer_manager.c.obj
 .text.ble_evt_handler
                0x000295f0       0x24 examples/experimental_lpn/CMakeFiles/lpn_nrf52840_xxAA_s140_6.1.1.dir/C_/mesh/deps/nRF5_SDK_15.3.0_59ac345/components/ble/peer_manager/peer_manager.c.obj
 .text.pm_sm_evt_handler
                0x00029614        0x8 examples/experimental_lpn/CMakeFiles/lpn_nrf52840_xxAA_s140_6.1.1.dir/C_/mesh/deps/nRF5_SDK_15.3.0_59ac345/components/ble/peer_manager/peer_manager.c.obj
                0x00029614                pm_sm_evt_handler
 .text.pm_gcm_evt_handler
                0x0002961c        0x4 examples/experimental_lpn/CMakeFiles/lpn_nrf52840_xxAA_s140_6.1.1.dir/C_/mesh/deps/nRF5_SDK_15.3.0_59ac345/components/ble/peer_manager/peer_manager.c.obj
                0x0002961c                pm_gcm_evt_handler
 .text.pm_gscm_evt_handler
                0x00029620        0x4 examples/experimental_lpn/CMakeFiles/lpn_nrf52840_xxAA_s140_6.1.1.dir/C_/mesh/deps/nRF5_SDK_15.3.0_59ac345/components/ble/peer_manager/peer_manager.c.obj
                0x00029620                pm_gscm_evt_handler
 .text.pm_im_evt_handler
                0x00029624        0x4 examples/experimental_lpn/CMakeFiles/lpn_nrf52840_xxAA_s140_6.1.1.dir/C_/mesh/deps/nRF5_SDK_15.3.0_59ac345/components/ble/peer_manager/peer_manager.c.obj
                0x00029624                pm_im_evt_handler
 .text.pm_peer_ranks_get
                0x00029628       0xcc examples/experimental_lpn/CMakeFiles/lpn_nrf52840_xxAA_s140_6.1.1.dir/C_/mesh/deps/nRF5_SDK_15.3.0_59ac345/components/ble/peer_manager/peer_manager.c.obj
                0x00029628                pm_peer_ranks_get
 .text.rank_vars_update
                0x000296f4       0x2c examples/experimental_lpn/CMakeFiles/lpn_nrf52840_xxAA_s140_6.1.1.dir/C_/mesh/deps/nRF5_SDK_15.3.0_59ac345/components/ble/peer_manager/peer_manager.c.obj
 .text.pm_pdb_evt_handler
                0x00029720      0x138 examples/experimental_lpn/CMakeFiles/lpn_nrf52840_xxAA_s140_6.1.1.dir/C_/mesh/deps/nRF5_SDK_15.3.0_59ac345/components/ble/peer_manager/peer_manager.c.obj
                0x00029720                pm_pdb_evt_handler
 .text.peer_data_id_is_valid
                0x00029858       0x10 examples/experimental_lpn/CMakeFiles/lpn_nrf52840_xxAA_s140_6.1.1.dir/C_/mesh/deps/nRF5_SDK_15.3.0_59ac345/components/ble/peer_manager/peer_data_storage.c.obj
 .text.pds_evt_send
                0x00029868        0xa examples/experimental_lpn/CMakeFiles/lpn_nrf52840_xxAA_s140_6.1.1.dir/C_/mesh/deps/nRF5_SDK_15.3.0_59ac345/components/ble/peer_manager/peer_data_storage.c.obj
 .text.peer_data_find
                0x00029872       0x32 examples/experimental_lpn/CMakeFiles/lpn_nrf52840_xxAA_s140_6.1.1.dir/C_/mesh/deps/nRF5_SDK_15.3.0_59ac345/components/ble/peer_manager/peer_data_storage.c.obj
 .text.peer_data_delete_process
                0x000298a4       0x8c examples/experimental_lpn/CMakeFiles/lpn_nrf52840_xxAA_s140_6.1.1.dir/C_/mesh/deps/nRF5_SDK_15.3.0_59ac345/components/ble/peer_manager/peer_data_storage.c.obj
 .text.pds_peer_data_read
                0x00029930       0x6c examples/experimental_lpn/CMakeFiles/lpn_nrf52840_xxAA_s140_6.1.1.dir/C_/mesh/deps/nRF5_SDK_15.3.0_59ac345/components/ble/peer_manager/peer_data_storage.c.obj
                0x00029930                pds_peer_data_read
 .text.pds_peer_data_iterate_prepare
                0x0002999c       0x10 examples/experimental_lpn/CMakeFiles/lpn_nrf52840_xxAA_s140_6.1.1.dir/C_/mesh/deps/nRF5_SDK_15.3.0_59ac345/components/ble/peer_manager/peer_data_storage.c.obj
                0x0002999c                pds_peer_data_iterate_prepare
 .text.pds_peer_data_iterate
                0x000299ac       0x5c examples/experimental_lpn/CMakeFiles/lpn_nrf52840_xxAA_s140_6.1.1.dir/C_/mesh/deps/nRF5_SDK_15.3.0_59ac345/components/ble/peer_manager/peer_data_storage.c.obj
                0x000299ac                pds_peer_data_iterate
 .text.pds_peer_data_store
                0x00029a08       0x7e examples/experimental_lpn/CMakeFiles/lpn_nrf52840_xxAA_s140_6.1.1.dir/C_/mesh/deps/nRF5_SDK_15.3.0_59ac345/components/ble/peer_manager/peer_data_storage.c.obj
                0x00029a08                pds_peer_data_store
 .text.pds_peer_id_allocate
                0x00029a86        0x8 examples/experimental_lpn/CMakeFiles/lpn_nrf52840_xxAA_s140_6.1.1.dir/C_/mesh/deps/nRF5_SDK_15.3.0_59ac345/components/ble/peer_manager/peer_data_storage.c.obj
                0x00029a86                pds_peer_id_allocate
 .text.pds_peer_id_free
                0x00029a8e       0x16 examples/experimental_lpn/CMakeFiles/lpn_nrf52840_xxAA_s140_6.1.1.dir/C_/mesh/deps/nRF5_SDK_15.3.0_59ac345/components/ble/peer_manager/peer_data_storage.c.obj
                0x00029a8e                pds_peer_id_free
 .text.pds_peer_id_is_allocated
                0x00029aa4        0x4 examples/experimental_lpn/CMakeFiles/lpn_nrf52840_xxAA_s140_6.1.1.dir/C_/mesh/deps/nRF5_SDK_15.3.0_59ac345/components/ble/peer_manager/peer_data_storage.c.obj
                0x00029aa4                pds_peer_id_is_allocated
 .text.pds_next_peer_id_get
                0x00029aa8        0x4 examples/experimental_lpn/CMakeFiles/lpn_nrf52840_xxAA_s140_6.1.1.dir/C_/mesh/deps/nRF5_SDK_15.3.0_59ac345/components/ble/peer_manager/peer_data_storage.c.obj
                0x00029aa8                pds_next_peer_id_get
 .text.pds_next_deleted_peer_id_get
                0x00029aac        0x4 examples/experimental_lpn/CMakeFiles/lpn_nrf52840_xxAA_s140_6.1.1.dir/C_/mesh/deps/nRF5_SDK_15.3.0_59ac345/components/ble/peer_manager/peer_data_storage.c.obj
                0x00029aac                pds_next_deleted_peer_id_get
 .text.write_buffer_record_find_next
                0x00029ab0       0x28 examples/experimental_lpn/CMakeFiles/lpn_nrf52840_xxAA_s140_6.1.1.dir/C_/mesh/deps/nRF5_SDK_15.3.0_59ac345/components/ble/peer_manager/peer_database.c.obj
 .text.write_buffer_record_find
                0x00029ad8       0x36 examples/experimental_lpn/CMakeFiles/lpn_nrf52840_xxAA_s140_6.1.1.dir/C_/mesh/deps/nRF5_SDK_15.3.0_59ac345/components/ble/peer_manager/peer_database.c.obj
 .text.pdb_evt_send
                0x00029b0e       0x1e examples/experimental_lpn/CMakeFiles/lpn_nrf52840_xxAA_s140_6.1.1.dir/C_/mesh/deps/nRF5_SDK_15.3.0_59ac345/components/ble/peer_manager/peer_database.c.obj
 .text.write_buffer_record_release
                0x00029b2c       0x44 examples/experimental_lpn/CMakeFiles/lpn_nrf52840_xxAA_s140_6.1.1.dir/C_/mesh/deps/nRF5_SDK_15.3.0_59ac345/components/ble/peer_manager/peer_database.c.obj
 .text.write_buf_store
                0x00029b70       0xb4 examples/experimental_lpn/CMakeFiles/lpn_nrf52840_xxAA_s140_6.1.1.dir/C_/mesh/deps/nRF5_SDK_15.3.0_59ac345/components/ble/peer_manager/peer_database.c.obj
                0x00029b70                write_buf_store
 .text.pdb_pds_evt_handler
                0x00029c24       0xec examples/experimental_lpn/CMakeFiles/lpn_nrf52840_xxAA_s140_6.1.1.dir/C_/mesh/deps/nRF5_SDK_15.3.0_59ac345/components/ble/peer_manager/peer_database.c.obj
                0x00029c24                pdb_pds_evt_handler
 .text.pdb_peer_data_ptr_get
                0x00029d10        0x6 examples/experimental_lpn/CMakeFiles/lpn_nrf52840_xxAA_s140_6.1.1.dir/C_/mesh/deps/nRF5_SDK_15.3.0_59ac345/components/ble/peer_manager/peer_database.c.obj
                0x00029d10                pdb_peer_data_ptr_get
 *fill*         0x00029d16        0x2 
 .text.pdb_write_buf_get
                0x00029d18       0xc0 examples/experimental_lpn/CMakeFiles/lpn_nrf52840_xxAA_s140_6.1.1.dir/C_/mesh/deps/nRF5_SDK_15.3.0_59ac345/components/ble/peer_manager/peer_database.c.obj
                0x00029d18                pdb_write_buf_get
 .text.pdb_write_buf_release
                0x00029dd8       0x14 examples/experimental_lpn/CMakeFiles/lpn_nrf52840_xxAA_s140_6.1.1.dir/C_/mesh/deps/nRF5_SDK_15.3.0_59ac345/components/ble/peer_manager/peer_database.c.obj
                0x00029dd8                pdb_write_buf_release
 .text.pdb_peer_free
                0x00029dec       0x42 examples/experimental_lpn/CMakeFiles/lpn_nrf52840_xxAA_s140_6.1.1.dir/C_/mesh/deps/nRF5_SDK_15.3.0_59ac345/components/ble/peer_manager/peer_database.c.obj
                0x00029dec                pdb_peer_free
 .text.pdb_write_buf_store
                0x00029e2e       0x36 examples/experimental_lpn/CMakeFiles/lpn_nrf52840_xxAA_s140_6.1.1.dir/C_/mesh/deps/nRF5_SDK_15.3.0_59ac345/components/ble/peer_manager/peer_database.c.obj
                0x00029e2e                pdb_write_buf_store
 .text.claim    0x00029e64       0x36 examples/experimental_lpn/CMakeFiles/lpn_nrf52840_xxAA_s140_6.1.1.dir/C_/mesh/deps/nRF5_SDK_15.3.0_59ac345/components/ble/peer_manager/peer_id.c.obj
 *fill*         0x00029e9a        0x2 
 .text.peer_id_allocate
                0x00029e9c        0xc examples/experimental_lpn/CMakeFiles/lpn_nrf52840_xxAA_s140_6.1.1.dir/C_/mesh/deps/nRF5_SDK_15.3.0_59ac345/components/ble/peer_manager/peer_id.c.obj
                0x00029e9c                peer_id_allocate
 .text.peer_id_delete
                0x00029ea8       0x24 examples/experimental_lpn/CMakeFiles/lpn_nrf52840_xxAA_s140_6.1.1.dir/C_/mesh/deps/nRF5_SDK_15.3.0_59ac345/components/ble/peer_manager/peer_id.c.obj
                0x00029ea8                peer_id_delete
 .text.peer_id_free
                0x00029ecc       0x28 examples/experimental_lpn/CMakeFiles/lpn_nrf52840_xxAA_s140_6.1.1.dir/C_/mesh/deps/nRF5_SDK_15.3.0_59ac345/components/ble/peer_manager/peer_id.c.obj
                0x00029ecc                peer_id_free
 .text.peer_id_is_allocated
                0x00029ef4       0x14 examples/experimental_lpn/CMakeFiles/lpn_nrf52840_xxAA_s140_6.1.1.dir/C_/mesh/deps/nRF5_SDK_15.3.0_59ac345/components/ble/peer_manager/peer_id.c.obj
                0x00029ef4                peer_id_is_allocated
 .text.peer_id_is_deleted
                0x00029f08       0x14 examples/experimental_lpn/CMakeFiles/lpn_nrf52840_xxAA_s140_6.1.1.dir/C_/mesh/deps/nRF5_SDK_15.3.0_59ac345/components/ble/peer_manager/peer_id.c.obj
                0x00029f08                peer_id_is_deleted
 .text.next_id_get
                0x00029f1c       0x32 examples/experimental_lpn/CMakeFiles/lpn_nrf52840_xxAA_s140_6.1.1.dir/C_/mesh/deps/nRF5_SDK_15.3.0_59ac345/components/ble/peer_manager/peer_id.c.obj
                0x00029f1c                next_id_get
 *fill*         0x00029f4e        0x2 
 .text.peer_id_get_next_used
                0x00029f50       0x34 examples/experimental_lpn/CMakeFiles/lpn_nrf52840_xxAA_s140_6.1.1.dir/C_/mesh/deps/nRF5_SDK_15.3.0_59ac345/components/ble/peer_manager/peer_id.c.obj
                0x00029f50                peer_id_get_next_used
 .text.peer_id_get_next_deleted
                0x00029f84        0xc examples/experimental_lpn/CMakeFiles/lpn_nrf52840_xxAA_s140_6.1.1.dir/C_/mesh/deps/nRF5_SDK_15.3.0_59ac345/components/ble/peer_manager/peer_id.c.obj
                0x00029f84                peer_id_get_next_deleted
 .text.pm_buffer_ptr_get
                0x00029f90       0x32 examples/experimental_lpn/CMakeFiles/lpn_nrf52840_xxAA_s140_6.1.1.dir/C_/mesh/deps/nRF5_SDK_15.3.0_59ac345/components/ble/peer_manager/pm_buffer.c.obj
                0x00029f90                pm_buffer_ptr_get
 .text.pm_buffer_release
                0x00029fc2       0x30 examples/experimental_lpn/CMakeFiles/lpn_nrf52840_xxAA_s140_6.1.1.dir/C_/mesh/deps/nRF5_SDK_15.3.0_59ac345/components/ble/peer_manager/pm_buffer.c.obj
                0x00029fc2                pm_buffer_release
 .text.pm_buffer_block_acquire
                0x00029ff2       0x64 examples/experimental_lpn/CMakeFiles/lpn_nrf52840_xxAA_s140_6.1.1.dir/C_/mesh/deps/nRF5_SDK_15.3.0_59ac345/components/ble/peer_manager/pm_buffer.c.obj
                0x00029ff2                pm_buffer_block_acquire
 .text.sd_ble_gap_authenticate
                0x0002a056        0x4 examples/experimental_lpn/CMakeFiles/lpn_nrf52840_xxAA_s140_6.1.1.dir/C_/mesh/deps/nRF5_SDK_15.3.0_59ac345/components/ble/peer_manager/security_dispatcher.c.obj
 .text.sd_ble_gap_sec_params_reply
                0x0002a05a        0x4 examples/experimental_lpn/CMakeFiles/lpn_nrf52840_xxAA_s140_6.1.1.dir/C_/mesh/deps/nRF5_SDK_15.3.0_59ac345/components/ble/peer_manager/security_dispatcher.c.obj
 .text.sd_ble_gap_encrypt
                0x0002a05e        0x4 examples/experimental_lpn/CMakeFiles/lpn_nrf52840_xxAA_s140_6.1.1.dir/C_/mesh/deps/nRF5_SDK_15.3.0_59ac345/components/ble/peer_manager/security_dispatcher.c.obj
 .text.sd_ble_gap_sec_info_reply
                0x0002a062        0x4 examples/experimental_lpn/CMakeFiles/lpn_nrf52840_xxAA_s140_6.1.1.dir/C_/mesh/deps/nRF5_SDK_15.3.0_59ac345/components/ble/peer_manager/security_dispatcher.c.obj
 .text.evt_send
                0x0002a066       0x16 examples/experimental_lpn/CMakeFiles/lpn_nrf52840_xxAA_s140_6.1.1.dir/C_/mesh/deps/nRF5_SDK_15.3.0_59ac345/components/ble/peer_manager/security_dispatcher.c.obj
 .text.send_config_req
                0x0002a07c       0x24 examples/experimental_lpn/CMakeFiles/lpn_nrf52840_xxAA_s140_6.1.1.dir/C_/mesh/deps/nRF5_SDK_15.3.0_59ac345/components/ble/peer_manager/security_dispatcher.c.obj
 .text.send_unexpected_error
                0x0002a0a0       0x28 examples/experimental_lpn/CMakeFiles/lpn_nrf52840_xxAA_s140_6.1.1.dir/C_/mesh/deps/nRF5_SDK_15.3.0_59ac345/components/ble/peer_manager/security_dispatcher.c.obj
 .text.conn_sec_failure
                0x0002a0c8       0x48 examples/experimental_lpn/CMakeFiles/lpn_nrf52840_xxAA_s140_6.1.1.dir/C_/mesh/deps/nRF5_SDK_15.3.0_59ac345/components/ble/peer_manager/security_dispatcher.c.obj
 .text.pairing_success_evt_send
                0x0002a110       0x2e examples/experimental_lpn/CMakeFiles/lpn_nrf52840_xxAA_s140_6.1.1.dir/C_/mesh/deps/nRF5_SDK_15.3.0_59ac345/components/ble/peer_manager/security_dispatcher.c.obj
 *fill*         0x0002a13e        0x2 
 .text.sec_proc_start
                0x0002a140       0x64 examples/experimental_lpn/CMakeFiles/lpn_nrf52840_xxAA_s140_6.1.1.dir/C_/mesh/deps/nRF5_SDK_15.3.0_59ac345/components/ble/peer_manager/security_dispatcher.c.obj
 .text.link_secure_failure.part.1
                0x0002a1a4       0x64 examples/experimental_lpn/CMakeFiles/lpn_nrf52840_xxAA_s140_6.1.1.dir/C_/mesh/deps/nRF5_SDK_15.3.0_59ac345/components/ble/peer_manager/security_dispatcher.c.obj
 .text.smd_params_reply
                0x0002a208      0x104 examples/experimental_lpn/CMakeFiles/lpn_nrf52840_xxAA_s140_6.1.1.dir/C_/mesh/deps/nRF5_SDK_15.3.0_59ac345/components/ble/peer_manager/security_dispatcher.c.obj
                0x0002a208                smd_params_reply
 .text.smd_link_secure
                0x0002a30c       0xd4 examples/experimental_lpn/CMakeFiles/lpn_nrf52840_xxAA_s140_6.1.1.dir/C_/mesh/deps/nRF5_SDK_15.3.0_59ac345/components/ble/peer_manager/security_dispatcher.c.obj
                0x0002a30c                smd_link_secure
 .text.smd_ble_evt_handler
                0x0002a3e0      0x2f8 examples/experimental_lpn/CMakeFiles/lpn_nrf52840_xxAA_s140_6.1.1.dir/C_/mesh/deps/nRF5_SDK_15.3.0_59ac345/components/ble/peer_manager/security_dispatcher.c.obj
                0x0002a3e0                smd_ble_evt_handler
 .text.events_send_from_err_code.part.0
                0x0002a6d8       0x6a examples/experimental_lpn/CMakeFiles/lpn_nrf52840_xxAA_s140_6.1.1.dir/C_/mesh/deps/nRF5_SDK_15.3.0_59ac345/components/ble/peer_manager/security_manager.c.obj
 .text.params_req_send
                0x0002a742       0x28 examples/experimental_lpn/CMakeFiles/lpn_nrf52840_xxAA_s140_6.1.1.dir/C_/mesh/deps/nRF5_SDK_15.3.0_59ac345/components/ble/peer_manager/security_manager.c.obj
 *fill*         0x0002a76a        0x2 
 .text.link_secure
                0x0002a76c       0xd8 examples/experimental_lpn/CMakeFiles/lpn_nrf52840_xxAA_s140_6.1.1.dir/C_/mesh/deps/nRF5_SDK_15.3.0_59ac345/components/ble/peer_manager/security_manager.c.obj
 .text.link_secure_pending_handle
                0x0002a844       0x30 examples/experimental_lpn/CMakeFiles/lpn_nrf52840_xxAA_s140_6.1.1.dir/C_/mesh/deps/nRF5_SDK_15.3.0_59ac345/components/ble/peer_manager/security_manager.c.obj
 .text.smd_params_reply_perform
                0x0002a874       0x80 examples/experimental_lpn/CMakeFiles/lpn_nrf52840_xxAA_s140_6.1.1.dir/C_/mesh/deps/nRF5_SDK_15.3.0_59ac345/components/ble/peer_manager/security_manager.c.obj
 .text.params_reply_pending_handle
                0x0002a8f4        0x6 examples/experimental_lpn/CMakeFiles/lpn_nrf52840_xxAA_s140_6.1.1.dir/C_/mesh/deps/nRF5_SDK_15.3.0_59ac345/components/ble/peer_manager/security_manager.c.obj
 *fill*         0x0002a8fa        0x2 
 .text.sm_smd_evt_handler
                0x0002a8fc       0x60 examples/experimental_lpn/CMakeFiles/lpn_nrf52840_xxAA_s140_6.1.1.dir/C_/mesh/deps/nRF5_SDK_15.3.0_59ac345/components/ble/peer_manager/security_manager.c.obj
                0x0002a8fc                sm_smd_evt_handler
 .text.sm_pdb_evt_handler
                0x0002a95c       0x48 examples/experimental_lpn/CMakeFiles/lpn_nrf52840_xxAA_s140_6.1.1.dir/C_/mesh/deps/nRF5_SDK_15.3.0_59ac345/components/ble/peer_manager/security_manager.c.obj
                0x0002a95c                sm_pdb_evt_handler
 .text.sm_ble_evt_handler
                0x0002a9a4       0x34 examples/experimental_lpn/CMakeFiles/lpn_nrf52840_xxAA_s140_6.1.1.dir/C_/mesh/deps/nRF5_SDK_15.3.0_59ac345/components/ble/peer_manager/security_manager.c.obj
                0x0002a9a4                sm_ble_evt_handler
 .text.sd_ble_gap_adv_set_configure
                0x0002a9d8        0x4 examples/experimental_lpn/CMakeFiles/lpn_nrf52840_xxAA_s140_6.1.1.dir/__/common/src/mesh_adv.c.obj
 .text.sd_ble_gap_adv_start
                0x0002a9dc        0x4 examples/experimental_lpn/CMakeFiles/lpn_nrf52840_xxAA_s140_6.1.1.dir/__/common/src/mesh_adv.c.obj
 .text.sd_ble_gap_adv_stop
                0x0002a9e0        0x4 examples/experimental_lpn/CMakeFiles/lpn_nrf52840_xxAA_s140_6.1.1.dir/__/common/src/mesh_adv.c.obj
 .text.mesh_adv_data_set
                0x0002a9e4       0xdc examples/experimental_lpn/CMakeFiles/lpn_nrf52840_xxAA_s140_6.1.1.dir/__/common/src/mesh_adv.c.obj
                0x0002a9e4                mesh_adv_data_set
 .text.mesh_adv_params_set
                0x0002aac0       0x28 examples/experimental_lpn/CMakeFiles/lpn_nrf52840_xxAA_s140_6.1.1.dir/__/common/src/mesh_adv.c.obj
                0x0002aac0                mesh_adv_params_set
 .text.mesh_adv_start
                0x0002aae8       0x20 examples/experimental_lpn/CMakeFiles/lpn_nrf52840_xxAA_s140_6.1.1.dir/__/common/src/mesh_adv.c.obj
                0x0002aae8                mesh_adv_start
 .text.mesh_adv_stop
                0x0002ab08       0x1c examples/experimental_lpn/CMakeFiles/lpn_nrf52840_xxAA_s140_6.1.1.dir/__/common/src/mesh_adv.c.obj
                0x0002ab08                mesh_adv_stop
 .text.sd_ble_gap_disconnect
                0x0002ab24        0x4 examples/experimental_lpn/CMakeFiles/lpn_nrf52840_xxAA_s140_6.1.1.dir/__/common/src/ble_softdevice_support.c.obj
 .text.sd_ble_gap_ppcp_set
                0x0002ab28        0x4 examples/experimental_lpn/CMakeFiles/lpn_nrf52840_xxAA_s140_6.1.1.dir/__/common/src/ble_softdevice_support.c.obj
 .text.sd_ble_gap_device_name_set
                0x0002ab2c        0x4 examples/experimental_lpn/CMakeFiles/lpn_nrf52840_xxAA_s140_6.1.1.dir/__/common/src/ble_softdevice_support.c.obj
 .text.conn_params_error_handler
                0x0002ab30        0x4 examples/experimental_lpn/CMakeFiles/lpn_nrf52840_xxAA_s140_6.1.1.dir/__/common/src/ble_softdevice_support.c.obj
 .text.on_sd_evt
                0x0002ab34        0x4 examples/experimental_lpn/CMakeFiles/lpn_nrf52840_xxAA_s140_6.1.1.dir/__/common/src/ble_softdevice_support.c.obj
 .text.on_conn_params_evt
                0x0002ab38       0x80 examples/experimental_lpn/CMakeFiles/lpn_nrf52840_xxAA_s140_6.1.1.dir/__/common/src/ble_softdevice_support.c.obj
 .text.ble_stack_init
                0x0002abb8       0x32 examples/experimental_lpn/CMakeFiles/lpn_nrf52840_xxAA_s140_6.1.1.dir/__/common/src/ble_softdevice_support.c.obj
                0x0002abb8                ble_stack_init
 *fill*         0x0002abea        0x2 
 .text.gap_params_init
                0x0002abec       0x50 examples/experimental_lpn/CMakeFiles/lpn_nrf52840_xxAA_s140_6.1.1.dir/__/common/src/ble_softdevice_support.c.obj
                0x0002abec                gap_params_init
 .text.conn_params_init
                0x0002ac3c       0x68 examples/experimental_lpn/CMakeFiles/lpn_nrf52840_xxAA_s140_6.1.1.dir/__/common/src/ble_softdevice_support.c.obj
                0x0002ac3c                conn_params_init
 .text.app_util_critical_region_enter
                0x0002aca4       0x48 examples/experimental_lpn/CMakeFiles/lpn_nrf52840_xxAA_s140_6.1.1.dir/C_/mesh/deps/nRF5_SDK_15.3.0_59ac345/components/libraries/util/app_util_platform.c.obj
                0x0002aca4                app_util_critical_region_enter
 .text.app_util_critical_region_exit
                0x0002acec       0x2c examples/experimental_lpn/CMakeFiles/lpn_nrf52840_xxAA_s140_6.1.1.dir/C_/mesh/deps/nRF5_SDK_15.3.0_59ac345/components/libraries/util/app_util_platform.c.obj
                0x0002acec                app_util_critical_region_exit
 .text.sd_ble_gap_addr_get
                0x0002ad18        0x4 examples/experimental_lpn/CMakeFiles/lpn_nrf52840_xxAA_s140_6.1.1.dir/C_/mesh/deps/nRF5_SDK_15.3.0_59ac345/components/ble/common/ble_advdata.c.obj
 .text.sd_ble_gap_appearance_get
                0x0002ad1c        0x4 examples/experimental_lpn/CMakeFiles/lpn_nrf52840_xxAA_s140_6.1.1.dir/C_/mesh/deps/nRF5_SDK_15.3.0_59ac345/components/ble/common/ble_advdata.c.obj
 .text.sd_ble_gap_device_name_get
                0x0002ad20        0x4 examples/experimental_lpn/CMakeFiles/lpn_nrf52840_xxAA_s140_6.1.1.dir/C_/mesh/deps/nRF5_SDK_15.3.0_59ac345/components/ble/common/ble_advdata.c.obj
 .text.sd_ble_uuid_encode
                0x0002ad24        0x4 examples/experimental_lpn/CMakeFiles/lpn_nrf52840_xxAA_s140_6.1.1.dir/C_/mesh/deps/nRF5_SDK_15.3.0_59ac345/components/ble/common/ble_advdata.c.obj
 .text.uuid_list_sized_encode
                0x0002ad28       0xa4 examples/experimental_lpn/CMakeFiles/lpn_nrf52840_xxAA_s140_6.1.1.dir/C_/mesh/deps/nRF5_SDK_15.3.0_59ac345/components/ble/common/ble_advdata.c.obj
 .text.uuid_list_encode
                0x0002adcc       0x34 examples/experimental_lpn/CMakeFiles/lpn_nrf52840_xxAA_s140_6.1.1.dir/C_/mesh/deps/nRF5_SDK_15.3.0_59ac345/components/ble/common/ble_advdata.c.obj
 .text.ble_advdata_encode
                0x0002ae00      0x392 examples/experimental_lpn/CMakeFiles/lpn_nrf52840_xxAA_s140_6.1.1.dir/C_/mesh/deps/nRF5_SDK_15.3.0_59ac345/components/ble/common/ble_advdata.c.obj
                0x0002ae00                ble_advdata_encode
 .text.nrf_section_iter_init
                0x0002b192       0x12 examples/experimental_lpn/CMakeFiles/lpn_nrf52840_xxAA_s140_6.1.1.dir/C_/mesh/deps/nRF5_SDK_15.3.0_59ac345/components/libraries/experimental_section_vars/nrf_section_iter.c.obj
                0x0002b192                nrf_section_iter_init
 .text.nrf_section_iter_next
                0x0002b1a4       0x18 examples/experimental_lpn/CMakeFiles/lpn_nrf52840_xxAA_s140_6.1.1.dir/C_/mesh/deps/nRF5_SDK_15.3.0_59ac345/components/libraries/experimental_section_vars/nrf_section_iter.c.obj
                0x0002b1a4                nrf_section_iter_next
 .text.sd_evt_get
                0x0002b1bc        0x4 examples/experimental_lpn/CMakeFiles/lpn_nrf52840_xxAA_s140_6.1.1.dir/C_/mesh/deps/nRF5_SDK_15.3.0_59ac345/components/softdevice/common/nrf_sdh_soc.c.obj
 .text.nrf_sdh_soc_evts_poll
                0x0002b1c0       0x3c examples/experimental_lpn/CMakeFiles/lpn_nrf52840_xxAA_s140_6.1.1.dir/C_/mesh/deps/nRF5_SDK_15.3.0_59ac345/components/softdevice/common/nrf_sdh_soc.c.obj
 .text.sd_ble_enable
                0x0002b1fc        0x4 examples/experimental_lpn/CMakeFiles/lpn_nrf52840_xxAA_s140_6.1.1.dir/C_/mesh/deps/nRF5_SDK_15.3.0_59ac345/components/softdevice/common/nrf_sdh_ble.c.obj
 .text.sd_ble_cfg_set
                0x0002b200        0x4 examples/experimental_lpn/CMakeFiles/lpn_nrf52840_xxAA_s140_6.1.1.dir/C_/mesh/deps/nRF5_SDK_15.3.0_59ac345/components/softdevice/common/nrf_sdh_ble.c.obj
 .text.sd_ble_evt_get
                0x0002b204        0x4 examples/experimental_lpn/CMakeFiles/lpn_nrf52840_xxAA_s140_6.1.1.dir/C_/mesh/deps/nRF5_SDK_15.3.0_59ac345/components/softdevice/common/nrf_sdh_ble.c.obj
 .text.nrf_sdh_ble_evts_poll
                0x0002b208       0x50 examples/experimental_lpn/CMakeFiles/lpn_nrf52840_xxAA_s140_6.1.1.dir/C_/mesh/deps/nRF5_SDK_15.3.0_59ac345/components/softdevice/common/nrf_sdh_ble.c.obj
 .text.nrf_sdh_ble_default_cfg_set
                0x0002b258       0xd4 examples/experimental_lpn/CMakeFiles/lpn_nrf52840_xxAA_s140_6.1.1.dir/C_/mesh/deps/nRF5_SDK_15.3.0_59ac345/components/softdevice/common/nrf_sdh_ble.c.obj
                0x0002b258                nrf_sdh_ble_default_cfg_set
 .text.nrf_sdh_ble_enable
                0x0002b32c       0x14 examples/experimental_lpn/CMakeFiles/lpn_nrf52840_xxAA_s140_6.1.1.dir/C_/mesh/deps/nRF5_SDK_15.3.0_59ac345/components/softdevice/common/nrf_sdh_ble.c.obj
                0x0002b32c                nrf_sdh_ble_enable
 .text.sd_softdevice_enable
                0x0002b340        0x4 examples/experimental_lpn/CMakeFiles/lpn_nrf52840_xxAA_s140_6.1.1.dir/C_/mesh/deps/nRF5_SDK_15.3.0_59ac345/components/softdevice/common/nrf_sdh.c.obj
 .text.sd_softdevice_disable
                0x0002b344        0x4 examples/experimental_lpn/CMakeFiles/lpn_nrf52840_xxAA_s140_6.1.1.dir/C_/mesh/deps/nRF5_SDK_15.3.0_59ac345/components/softdevice/common/nrf_sdh.c.obj
 .text.sdh_request_observer_notify
                0x0002b348       0x30 examples/experimental_lpn/CMakeFiles/lpn_nrf52840_xxAA_s140_6.1.1.dir/C_/mesh/deps/nRF5_SDK_15.3.0_59ac345/components/softdevice/common/nrf_sdh.c.obj
 .text.sdh_state_observer_notify
                0x0002b378       0x28 examples/experimental_lpn/CMakeFiles/lpn_nrf52840_xxAA_s140_6.1.1.dir/C_/mesh/deps/nRF5_SDK_15.3.0_59ac345/components/softdevice/common/nrf_sdh.c.obj
 .text.softdevice_evt_irq_disable
                0x0002b3a0       0x24 examples/experimental_lpn/CMakeFiles/lpn_nrf52840_xxAA_s140_6.1.1.dir/C_/mesh/deps/nRF5_SDK_15.3.0_59ac345/components/softdevice/common/nrf_sdh.c.obj
 .text.softdevices_evt_irq_enable
                0x0002b3c4       0x38 examples/experimental_lpn/CMakeFiles/lpn_nrf52840_xxAA_s140_6.1.1.dir/C_/mesh/deps/nRF5_SDK_15.3.0_59ac345/components/softdevice/common/nrf_sdh.c.obj
 .text.nrf_sdh_enable_request
                0x0002b3fc       0x78 examples/experimental_lpn/CMakeFiles/lpn_nrf52840_xxAA_s140_6.1.1.dir/C_/mesh/deps/nRF5_SDK_15.3.0_59ac345/components/softdevice/common/nrf_sdh.c.obj
                0x0002b3fc                nrf_sdh_enable_request
 .text.nrf_sdh_disable_request
                0x0002b474       0x60 examples/experimental_lpn/CMakeFiles/lpn_nrf52840_xxAA_s140_6.1.1.dir/C_/mesh/deps/nRF5_SDK_15.3.0_59ac345/components/softdevice/common/nrf_sdh.c.obj
                0x0002b474                nrf_sdh_disable_request
 .text.nrf_sdh_request_continue
                0x0002b4d4       0x20 examples/experimental_lpn/CMakeFiles/lpn_nrf52840_xxAA_s140_6.1.1.dir/C_/mesh/deps/nRF5_SDK_15.3.0_59ac345/components/softdevice/common/nrf_sdh.c.obj
                0x0002b4d4                nrf_sdh_request_continue
 .text.nrf_sdh_is_enabled
                0x0002b4f4        0xc examples/experimental_lpn/CMakeFiles/lpn_nrf52840_xxAA_s140_6.1.1.dir/C_/mesh/deps/nRF5_SDK_15.3.0_59ac345/components/softdevice/common/nrf_sdh.c.obj
                0x0002b4f4                nrf_sdh_is_enabled
 .text.nrf_sdh_evts_poll
                0x0002b500       0x28 examples/experimental_lpn/CMakeFiles/lpn_nrf52840_xxAA_s140_6.1.1.dir/C_/mesh/deps/nRF5_SDK_15.3.0_59ac345/components/softdevice/common/nrf_sdh.c.obj
                0x0002b500                nrf_sdh_evts_poll
 .text.SWI2_EGU2_IRQHandler
                0x0002b528        0x4 examples/experimental_lpn/CMakeFiles/lpn_nrf52840_xxAA_s140_6.1.1.dir/C_/mesh/deps/nRF5_SDK_15.3.0_59ac345/components/softdevice/common/nrf_sdh.c.obj
                0x0002b528                SWI2_EGU2_IRQHandler
 .text.sd_ble_gap_conn_param_update
                0x0002b52c        0x4 examples/experimental_lpn/CMakeFiles/lpn_nrf52840_xxAA_s140_6.1.1.dir/C_/mesh/deps/nRF5_SDK_15.3.0_59ac345/components/ble/common/ble_conn_params.c.obj
 .text.sd_ble_gap_disconnect
                0x0002b530        0x4 examples/experimental_lpn/CMakeFiles/lpn_nrf52840_xxAA_s140_6.1.1.dir/C_/mesh/deps/nRF5_SDK_15.3.0_59ac345/components/ble/common/ble_conn_params.c.obj
 .text.sd_ble_gap_ppcp_set
                0x0002b534        0x4 examples/experimental_lpn/CMakeFiles/lpn_nrf52840_xxAA_s140_6.1.1.dir/C_/mesh/deps/nRF5_SDK_15.3.0_59ac345/components/ble/common/ble_conn_params.c.obj
 .text.sd_ble_gap_ppcp_get
                0x0002b538        0x4 examples/experimental_lpn/CMakeFiles/lpn_nrf52840_xxAA_s140_6.1.1.dir/C_/mesh/deps/nRF5_SDK_15.3.0_59ac345/components/ble/common/ble_conn_params.c.obj
 .text.instance_get
                0x0002b53c       0x14 examples/experimental_lpn/CMakeFiles/lpn_nrf52840_xxAA_s140_6.1.1.dir/C_/mesh/deps/nRF5_SDK_15.3.0_59ac345/components/ble/common/ble_conn_params.c.obj
 .text.send_error_evt
                0x0002b550       0x10 examples/experimental_lpn/CMakeFiles/lpn_nrf52840_xxAA_s140_6.1.1.dir/C_/mesh/deps/nRF5_SDK_15.3.0_59ac345/components/ble/common/ble_conn_params.c.obj
 .text.update_timeout_handler
                0x0002b560       0x6c examples/experimental_lpn/CMakeFiles/lpn_nrf52840_xxAA_s140_6.1.1.dir/C_/mesh/deps/nRF5_SDK_15.3.0_59ac345/components/ble/common/ble_conn_params.c.obj
 .text.conn_params_negotiation
                0x0002b5cc       0x48 examples/experimental_lpn/CMakeFiles/lpn_nrf52840_xxAA_s140_6.1.1.dir/C_/mesh/deps/nRF5_SDK_15.3.0_59ac345/components/ble/common/ble_conn_params.c.obj
 .text.is_conn_params_ok.constprop.3
                0x0002b614       0x3a examples/experimental_lpn/CMakeFiles/lpn_nrf52840_xxAA_s140_6.1.1.dir/C_/mesh/deps/nRF5_SDK_15.3.0_59ac345/components/ble/common/ble_conn_params.c.obj
 *fill*         0x0002b64e        0x2 
 .text.ble_evt_handler
                0x0002b650       0xe0 examples/experimental_lpn/CMakeFiles/lpn_nrf52840_xxAA_s140_6.1.1.dir/C_/mesh/deps/nRF5_SDK_15.3.0_59ac345/components/ble/common/ble_conn_params.c.obj
 .text.ble_conn_params_init
                0x0002b730       0x74 examples/experimental_lpn/CMakeFiles/lpn_nrf52840_xxAA_s140_6.1.1.dir/C_/mesh/deps/nRF5_SDK_15.3.0_59ac345/components/ble/common/ble_conn_params.c.obj
                0x0002b730                ble_conn_params_init
 .text.nrf_atomic_u32_fetch_store
                0x0002b7a4       0x14 examples/experimental_lpn/CMakeFiles/lpn_nrf52840_xxAA_s140_6.1.1.dir/C_/mesh/deps/nRF5_SDK_15.3.0_59ac345/components/libraries/atomic/nrf_atomic.c.obj
                0x0002b7a4                nrf_atomic_u32_fetch_store
 .text.nrf_atomic_u32_fetch_or
                0x0002b7b8       0x16 examples/experimental_lpn/CMakeFiles/lpn_nrf52840_xxAA_s140_6.1.1.dir/C_/mesh/deps/nRF5_SDK_15.3.0_59ac345/components/libraries/atomic/nrf_atomic.c.obj
                0x0002b7b8                nrf_atomic_u32_fetch_or
 .text.nrf_atomic_u32_or
                0x0002b7ce       0x16 examples/experimental_lpn/CMakeFiles/lpn_nrf52840_xxAA_s140_6.1.1.dir/C_/mesh/deps/nRF5_SDK_15.3.0_59ac345/components/libraries/atomic/nrf_atomic.c.obj
                0x0002b7ce                nrf_atomic_u32_or
 .text.nrf_atomic_u32_and
                0x0002b7e4       0x16 examples/experimental_lpn/CMakeFiles/lpn_nrf52840_xxAA_s140_6.1.1.dir/C_/mesh/deps/nRF5_SDK_15.3.0_59ac345/components/libraries/atomic/nrf_atomic.c.obj
                0x0002b7e4                nrf_atomic_u32_and
 .text.nrf_atomic_u32_fetch_add
                0x0002b7fa       0x16 examples/experimental_lpn/CMakeFiles/lpn_nrf52840_xxAA_s140_6.1.1.dir/C_/mesh/deps/nRF5_SDK_15.3.0_59ac345/components/libraries/atomic/nrf_atomic.c.obj
                0x0002b7fa                nrf_atomic_u32_fetch_add
 .text.nrf_atomic_u32_add
                0x0002b810       0x16 examples/experimental_lpn/CMakeFiles/lpn_nrf52840_xxAA_s140_6.1.1.dir/C_/mesh/deps/nRF5_SDK_15.3.0_59ac345/components/libraries/atomic/nrf_atomic.c.obj
                0x0002b810                nrf_atomic_u32_add
 .text.nrf_atomic_u32_sub
                0x0002b826       0x16 examples/experimental_lpn/CMakeFiles/lpn_nrf52840_xxAA_s140_6.1.1.dir/C_/mesh/deps/nRF5_SDK_15.3.0_59ac345/components/libraries/atomic/nrf_atomic.c.obj
                0x0002b826                nrf_atomic_u32_sub
 .text.ble_srv_is_notification_enabled
                0x0002b83c        0x8 examples/experimental_lpn/CMakeFiles/lpn_nrf52840_xxAA_s140_6.1.1.dir/C_/mesh/deps/nRF5_SDK_15.3.0_59ac345/components/ble/common/ble_srv_common.c.obj
                0x0002b83c                ble_srv_is_notification_enabled
 .text.ble_srv_is_indication_enabled
                0x0002b844        0x8 examples/experimental_lpn/CMakeFiles/lpn_nrf52840_xxAA_s140_6.1.1.dir/C_/mesh/deps/nRF5_SDK_15.3.0_59ac345/components/ble/common/ble_srv_common.c.obj
                0x0002b844                ble_srv_is_indication_enabled
 .text._weak_handler
                0x0002b84c        0x4 examples/experimental_lpn/CMakeFiles/lpn_nrf52840_xxAA_s140_6.1.1.dir/__/nrf_mesh_weak.c.obj
                0x0002b84c                nrf_mesh_dfu_init
                0x0002b84c                nrf_mesh_dfu_jump_to_bootloader
                0x0002b84c                nrf_mesh_dfu_rx
                0x0002b84c                prov_provisioner_provision
                0x0002b84c                nrf_mesh_dfu_bank_info_get
                0x0002b84c                prov_provisioner_oob_pubkey
                0x0002b84c                nrf_mesh_dfu_request
                0x0002b84c                nrf_mesh_dfu_bank_flash
                0x0002b84c                nrf_mesh_dfu_enable
                0x0002b84c                _weak_handler
                0x0002b84c                nrf_mesh_dfu_relay
                0x0002b84c                nrf_mesh_dfu_abort
                0x0002b84c                mesh_flash_op_execute
                0x0002b84c                prov_provisionee_init
                0x0002b84c                nrf_mesh_dfu_state_get
                0x0002b84c                prov_provisioner_shared_secret
                0x0002b84c                prov_provisioner_auth_data
                0x0002b84c                prov_bearer_adv_packet_in
                0x0002b84c                prov_provisioner_oob_use
 .text.app_error_fault_handler
                0x0002b850      0x200 examples/experimental_lpn/CMakeFiles/lpn_nrf52840_xxAA_s140_6.1.1.dir/__/common/src/app_error_weak.c.obj
                0x0002b850                app_error_fault_handler
 .text.mesh_assertion_handler
                0x0002ba50       0x24 examples/experimental_lpn/CMakeFiles/lpn_nrf52840_xxAA_s140_6.1.1.dir/__/common/src/assertion_handler_weak.c.obj
                0x0002ba50                mesh_assertion_handler
 .text.nrf_mesh_configure_device_uuid_set
                0x0002ba74       0x10 examples/experimental_lpn/CMakeFiles/lpn_nrf52840_xxAA_s140_6.1.1.dir/__/__/mesh/core/src/nrf_mesh_configure.c.obj
                0x0002ba74                nrf_mesh_configure_device_uuid_set
 .text.nrf_mesh_configure_device_uuid_reset
                0x0002ba84       0x3c examples/experimental_lpn/CMakeFiles/lpn_nrf52840_xxAA_s140_6.1.1.dir/__/__/mesh/core/src/nrf_mesh_configure.c.obj
                0x0002ba84                nrf_mesh_configure_device_uuid_reset
 .text.nrf_mesh_configure_device_uuid_get
                0x0002bac0        0x8 examples/experimental_lpn/CMakeFiles/lpn_nrf52840_xxAA_s140_6.1.1.dir/__/__/mesh/core/src/nrf_mesh_configure.c.obj
                0x0002bac0                nrf_mesh_configure_device_uuid_get
 .text.msg_cache_init
                0x0002bac8       0x24 examples/experimental_lpn/CMakeFiles/lpn_nrf52840_xxAA_s140_6.1.1.dir/__/__/mesh/core/src/msg_cache.c.obj
                0x0002bac8                msg_cache_init
 .text.msg_cache_entry_exists
                0x0002baec       0x3c examples/experimental_lpn/CMakeFiles/lpn_nrf52840_xxAA_s140_6.1.1.dir/__/__/mesh/core/src/msg_cache.c.obj
                0x0002baec                msg_cache_entry_exists
 .text.msg_cache_entry_add
                0x0002bb28       0x2c examples/experimental_lpn/CMakeFiles/lpn_nrf52840_xxAA_s140_6.1.1.dir/__/__/mesh/core/src/msg_cache.c.obj
                0x0002bb28                msg_cache_entry_add
 .text.seqauth_sequence_number_get
                0x0002bb54       0x12 examples/experimental_lpn/CMakeFiles/lpn_nrf52840_xxAA_s140_6.1.1.dir/__/__/mesh/core/src/transport.c.obj
 *fill*         0x0002bb66        0x2 
 .text.control_packet_callback_get
                0x0002bb68       0x40 examples/experimental_lpn/CMakeFiles/lpn_nrf52840_xxAA_s140_6.1.1.dir/__/__/mesh/core/src/transport.c.obj
 .text.tx_complete
                0x0002bba8       0x2c examples/experimental_lpn/CMakeFiles/lpn_nrf52840_xxAA_s140_6.1.1.dir/__/__/mesh/core/src/transport.c.obj
 .text.seqauth_get
                0x0002bbd4       0x24 examples/experimental_lpn/CMakeFiles/lpn_nrf52840_xxAA_s140_6.1.1.dir/__/__/mesh/core/src/transport.c.obj
 .text.sar_rx_session_mark_as_handled
                0x0002bbf8       0x5c examples/experimental_lpn/CMakeFiles/lpn_nrf52840_xxAA_s140_6.1.1.dir/__/__/mesh/core/src/transport.c.obj
 .text.block_ack_full
                0x0002bc54       0x1a examples/experimental_lpn/CMakeFiles/lpn_nrf52840_xxAA_s140_6.1.1.dir/__/__/mesh/core/src/transport.c.obj
 .text.upper_trs_packet_encrypt
                0x0002bc6e       0x86 examples/experimental_lpn/CMakeFiles/lpn_nrf52840_xxAA_s140_6.1.1.dir/__/__/mesh/core/src/transport.c.obj
 .text.sar_ctx_free
                0x0002bcf4       0x44 examples/experimental_lpn/CMakeFiles/lpn_nrf52840_xxAA_s140_6.1.1.dir/__/__/mesh/core/src/transport.c.obj
 .text.sar_ctx_tx_complete
                0x0002bd38       0x2e examples/experimental_lpn/CMakeFiles/lpn_nrf52840_xxAA_s140_6.1.1.dir/__/__/mesh/core/src/transport.c.obj
 *fill*         0x0002bd66        0x2 
 .text.sar_ctx_alloc
                0x0002bd68       0xe0 examples/experimental_lpn/CMakeFiles/lpn_nrf52840_xxAA_s140_6.1.1.dir/__/__/mesh/core/src/transport.c.obj
 .text.transport_metadata_validate
                0x0002be48       0x54 examples/experimental_lpn/CMakeFiles/lpn_nrf52840_xxAA_s140_6.1.1.dir/__/__/mesh/core/src/transport.c.obj
 .text.test_transport_decrypt
                0x0002be9c       0x88 examples/experimental_lpn/CMakeFiles/lpn_nrf52840_xxAA_s140_6.1.1.dir/__/__/mesh/core/src/transport.c.obj
 .text.replay_list_add
                0x0002bf24       0x44 examples/experimental_lpn/CMakeFiles/lpn_nrf52840_xxAA_s140_6.1.1.dir/__/__/mesh/core/src/transport.c.obj
 .text.upper_transport_access_packet_in
                0x0002bf68      0x1a0 examples/experimental_lpn/CMakeFiles/lpn_nrf52840_xxAA_s140_6.1.1.dir/__/__/mesh/core/src/transport.c.obj
 .text.trs_packet_header_build
                0x0002c108       0xa4 examples/experimental_lpn/CMakeFiles/lpn_nrf52840_xxAA_s140_6.1.1.dir/__/__/mesh/core/src/transport.c.obj
 .text.unsegmented_packet_tx
                0x0002c1ac       0x82 examples/experimental_lpn/CMakeFiles/lpn_nrf52840_xxAA_s140_6.1.1.dir/__/__/mesh/core/src/transport.c.obj
 *fill*         0x0002c22e        0x2 
 .text.tx_retry_timer_reset
                0x0002c230       0x44 examples/experimental_lpn/CMakeFiles/lpn_nrf52840_xxAA_s140_6.1.1.dir/__/__/mesh/core/src/transport.c.obj
 .text.sar_ctx_cancel
                0x0002c274       0xb0 examples/experimental_lpn/CMakeFiles/lpn_nrf52840_xxAA_s140_6.1.1.dir/__/__/mesh/core/src/transport.c.obj
 .text.sar_rx_ctx_cancel_all
                0x0002c324       0x28 examples/experimental_lpn/CMakeFiles/lpn_nrf52840_xxAA_s140_6.1.1.dir/__/__/mesh/core/src/transport.c.obj
 .text.abort_timeout
                0x0002c34c        0x8 examples/experimental_lpn/CMakeFiles/lpn_nrf52840_xxAA_s140_6.1.1.dir/__/__/mesh/core/src/transport.c.obj
 .text.sar_tx_session_continue
                0x0002c354       0x2c examples/experimental_lpn/CMakeFiles/lpn_nrf52840_xxAA_s140_6.1.1.dir/__/__/mesh/core/src/transport.c.obj
 .text.sar_tx_pending_retries_send
                0x0002c380       0x2c examples/experimental_lpn/CMakeFiles/lpn_nrf52840_xxAA_s140_6.1.1.dir/__/__/mesh/core/src/transport.c.obj
 .text.mesh_evt_handler
                0x0002c3ac       0x3a examples/experimental_lpn/CMakeFiles/lpn_nrf52840_xxAA_s140_6.1.1.dir/__/__/mesh/core/src/transport.c.obj
 .text.retry_timeout
                0x0002c3e6       0x30 examples/experimental_lpn/CMakeFiles/lpn_nrf52840_xxAA_s140_6.1.1.dir/__/__/mesh/core/src/transport.c.obj
 .text.trs_sar_packet_out
                0x0002c416       0xf4 examples/experimental_lpn/CMakeFiles/lpn_nrf52840_xxAA_s140_6.1.1.dir/__/__/mesh/core/src/transport.c.obj
 *fill*         0x0002c50a        0x2 
 .text.transport_control_packet_in
                0x0002c50c      0x1dc examples/experimental_lpn/CMakeFiles/lpn_nrf52840_xxAA_s140_6.1.1.dir/__/__/mesh/core/src/transport.c.obj
 .text.segmented_packet_tx
                0x0002c6e8      0x140 examples/experimental_lpn/CMakeFiles/lpn_nrf52840_xxAA_s140_6.1.1.dir/__/__/mesh/core/src/transport.c.obj
 .text.transport_init
                0x0002c828       0x90 examples/experimental_lpn/CMakeFiles/lpn_nrf52840_xxAA_s140_6.1.1.dir/__/__/mesh/core/src/transport.c.obj
                0x0002c828                transport_init
 .text.transport_enable
                0x0002c8b8        0x4 examples/experimental_lpn/CMakeFiles/lpn_nrf52840_xxAA_s140_6.1.1.dir/__/__/mesh/core/src/transport.c.obj
                0x0002c8b8                transport_enable
 .text.transport_tx
                0x0002c8bc       0xec examples/experimental_lpn/CMakeFiles/lpn_nrf52840_xxAA_s140_6.1.1.dir/__/__/mesh/core/src/transport.c.obj
                0x0002c8bc                transport_tx
 .text.transport_control_tx
                0x0002c9a8       0x98 examples/experimental_lpn/CMakeFiles/lpn_nrf52840_xxAA_s140_6.1.1.dir/__/__/mesh/core/src/transport.c.obj
                0x0002c9a8                transport_control_tx
 .text.sar_ack_send
                0x0002ca40       0xa4 examples/experimental_lpn/CMakeFiles/lpn_nrf52840_xxAA_s140_6.1.1.dir/__/__/mesh/core/src/transport.c.obj
 .text.ack_timeout
                0x0002cae4       0x30 examples/experimental_lpn/CMakeFiles/lpn_nrf52840_xxAA_s140_6.1.1.dir/__/__/mesh/core/src/transport.c.obj
 .text.transport_packet_in
                0x0002cb14      0x58c examples/experimental_lpn/CMakeFiles/lpn_nrf52840_xxAA_s140_6.1.1.dir/__/__/mesh/core/src/transport.c.obj
                0x0002cb14                transport_packet_in
 .text.transport_sar_process
                0x0002d0a0       0x70 examples/experimental_lpn/CMakeFiles/lpn_nrf52840_xxAA_s140_6.1.1.dir/__/__/mesh/core/src/transport.c.obj
 .text.transport_control_packet_consumer_add
                0x0002d110       0x64 examples/experimental_lpn/CMakeFiles/lpn_nrf52840_xxAA_s140_6.1.1.dir/__/__/mesh/core/src/transport.c.obj
                0x0002d110                transport_control_packet_consumer_add
 .text.event_handle
                0x0002d174       0x54 examples/experimental_lpn/CMakeFiles/lpn_nrf52840_xxAA_s140_6.1.1.dir/__/__/mesh/core/src/event.c.obj
                0x0002d174                event_handle
 .text.event_handler_add
                0x0002d1c8       0x20 examples/experimental_lpn/CMakeFiles/lpn_nrf52840_xxAA_s140_6.1.1.dir/__/__/mesh/core/src/event.c.obj
                0x0002d1c8                event_handler_add
 .text.event_handler_remove
                0x0002d1e8       0x34 examples/experimental_lpn/CMakeFiles/lpn_nrf52840_xxAA_s140_6.1.1.dir/__/__/mesh/core/src/event.c.obj
                0x0002d1e8                event_handler_remove
 .text.m_index_increment
                0x0002d21c       0x1e examples/experimental_lpn/CMakeFiles/lpn_nrf52840_xxAA_s140_6.1.1.dir/__/__/mesh/core/src/packet_buffer.c.obj
 .text.m_get_next_packet
                0x0002d23a       0x1c examples/experimental_lpn/CMakeFiles/lpn_nrf52840_xxAA_s140_6.1.1.dir/__/__/mesh/core/src/packet_buffer.c.obj
 .text.packet_buffer_init
                0x0002d256       0xac examples/experimental_lpn/CMakeFiles/lpn_nrf52840_xxAA_s140_6.1.1.dir/__/__/mesh/core/src/packet_buffer.c.obj
                0x0002d256                packet_buffer_init
 .text.packet_buffer_flush
                0x0002d302       0x50 examples/experimental_lpn/CMakeFiles/lpn_nrf52840_xxAA_s140_6.1.1.dir/__/__/mesh/core/src/packet_buffer.c.obj
                0x0002d302                packet_buffer_flush
 .text.packet_buffer_reserve
                0x0002d352       0xa2 examples/experimental_lpn/CMakeFiles/lpn_nrf52840_xxAA_s140_6.1.1.dir/__/__/mesh/core/src/packet_buffer.c.obj
                0x0002d352                packet_buffer_reserve
 .text.packet_buffer_commit
                0x0002d3f4       0x62 examples/experimental_lpn/CMakeFiles/lpn_nrf52840_xxAA_s140_6.1.1.dir/__/__/mesh/core/src/packet_buffer.c.obj
                0x0002d3f4                packet_buffer_commit
 .text.packet_buffer_pop
                0x0002d456       0x5a examples/experimental_lpn/CMakeFiles/lpn_nrf52840_xxAA_s140_6.1.1.dir/__/__/mesh/core/src/packet_buffer.c.obj
                0x0002d456                packet_buffer_pop
 .text.packet_buffer_can_pop
                0x0002d4b0       0x34 examples/experimental_lpn/CMakeFiles/lpn_nrf52840_xxAA_s140_6.1.1.dir/__/__/mesh/core/src/packet_buffer.c.obj
                0x0002d4b0                packet_buffer_can_pop
 .text.packet_buffer_packets_ready_to_pop
                0x0002d4e4       0x36 examples/experimental_lpn/CMakeFiles/lpn_nrf52840_xxAA_s140_6.1.1.dir/__/__/mesh/core/src/packet_buffer.c.obj
                0x0002d4e4                packet_buffer_packets_ready_to_pop
 .text.packet_buffer_free
                0x0002d51a       0x74 examples/experimental_lpn/CMakeFiles/lpn_nrf52840_xxAA_s140_6.1.1.dir/__/__/mesh/core/src/packet_buffer.c.obj
                0x0002d51a                packet_buffer_free
 .text.packet_buffer_is_empty
                0x0002d58e       0x28 examples/experimental_lpn/CMakeFiles/lpn_nrf52840_xxAA_s140_6.1.1.dir/__/__/mesh/core/src/packet_buffer.c.obj
                0x0002d58e                packet_buffer_is_empty
 .text.get_last_page
                0x0002d5b6       0x14 examples/experimental_lpn/CMakeFiles/lpn_nrf52840_xxAA_s140_6.1.1.dir/__/__/mesh/core/src/flash_manager_defrag.c.obj
 *fill*         0x0002d5ca        0x2 
 .text.defrag_on_end
                0x0002d5cc       0x1c examples/experimental_lpn/CMakeFiles/lpn_nrf52840_xxAA_s140_6.1.1.dir/__/__/mesh/core/src/flash_manager_defrag.c.obj
 .text.execute_procedure_step
                0x0002d5e8       0x70 examples/experimental_lpn/CMakeFiles/lpn_nrf52840_xxAA_s140_6.1.1.dir/__/__/mesh/core/src/flash_manager_defrag.c.obj
 .text.get_next_entry
                0x0002d658       0x34 examples/experimental_lpn/CMakeFiles/lpn_nrf52840_xxAA_s140_6.1.1.dir/__/__/mesh/core/src/flash_manager_defrag.c.obj
 .text.get_next_data_entry
                0x0002d68c       0x26 examples/experimental_lpn/CMakeFiles/lpn_nrf52840_xxAA_s140_6.1.1.dir/__/__/mesh/core/src/flash_manager_defrag.c.obj
 *fill*         0x0002d6b2        0x2 
 .text.on_flash_op_end
                0x0002d6b4       0x30 examples/experimental_lpn/CMakeFiles/lpn_nrf52840_xxAA_s140_6.1.1.dir/__/__/mesh/core/src/flash_manager_defrag.c.obj
 .text.check_for_invalid_entries
                0x0002d6e4       0x38 examples/experimental_lpn/CMakeFiles/lpn_nrf52840_xxAA_s140_6.1.1.dir/__/__/mesh/core/src/flash_manager_defrag.c.obj
 .text.erase_recovery_area
                0x0002d71c       0x34 examples/experimental_lpn/CMakeFiles/lpn_nrf52840_xxAA_s140_6.1.1.dir/__/__/mesh/core/src/flash_manager_defrag.c.obj
 .text.flash.constprop.6
                0x0002d750       0x24 examples/experimental_lpn/CMakeFiles/lpn_nrf52840_xxAA_s140_6.1.1.dir/__/__/mesh/core/src/flash_manager_defrag.c.obj
 .text.invalidate_duplicate_entries
                0x0002d774       0xa8 examples/experimental_lpn/CMakeFiles/lpn_nrf52840_xxAA_s140_6.1.1.dir/__/__/mesh/core/src/flash_manager_defrag.c.obj
 .text.seal_storage_page
                0x0002d81c       0x50 examples/experimental_lpn/CMakeFiles/lpn_nrf52840_xxAA_s140_6.1.1.dir/__/__/mesh/core/src/flash_manager_defrag.c.obj
 .text.copy_metadata
                0x0002d86c       0x3c examples/experimental_lpn/CMakeFiles/lpn_nrf52840_xxAA_s140_6.1.1.dir/__/__/mesh/core/src/flash_manager_defrag.c.obj
 .text.write_defrag_start_pointer
                0x0002d8a8       0x20 examples/experimental_lpn/CMakeFiles/lpn_nrf52840_xxAA_s140_6.1.1.dir/__/__/mesh/core/src/flash_manager_defrag.c.obj
 .text.write_back
                0x0002d8c8       0x28 examples/experimental_lpn/CMakeFiles/lpn_nrf52840_xxAA_s140_6.1.1.dir/__/__/mesh/core/src/flash_manager_defrag.c.obj
 .text.post_process
                0x0002d8f0       0x40 examples/experimental_lpn/CMakeFiles/lpn_nrf52840_xxAA_s140_6.1.1.dir/__/__/mesh/core/src/flash_manager_defrag.c.obj
 .text.backup_entries
                0x0002d930       0xd8 examples/experimental_lpn/CMakeFiles/lpn_nrf52840_xxAA_s140_6.1.1.dir/__/__/mesh/core/src/flash_manager_defrag.c.obj
 .text.erase_source
                0x0002da08       0x34 examples/experimental_lpn/CMakeFiles/lpn_nrf52840_xxAA_s140_6.1.1.dir/__/__/mesh/core/src/flash_manager_defrag.c.obj
 .text.flash_manager_defrag_init
                0x0002da3c       0x8c examples/experimental_lpn/CMakeFiles/lpn_nrf52840_xxAA_s140_6.1.1.dir/__/__/mesh/core/src/flash_manager_defrag.c.obj
                0x0002da3c                flash_manager_defrag_init
 .text.flash_manager_defragging
                0x0002dac8       0x38 examples/experimental_lpn/CMakeFiles/lpn_nrf52840_xxAA_s140_6.1.1.dir/__/__/mesh/core/src/flash_manager_defrag.c.obj
                0x0002dac8                flash_manager_defragging
 .text.flash_manager_defrag_is_running
                0x0002db00       0x10 examples/experimental_lpn/CMakeFiles/lpn_nrf52840_xxAA_s140_6.1.1.dir/__/__/mesh/core/src/flash_manager_defrag.c.obj
                0x0002db00                flash_manager_defrag_is_running
 .text.flash_manager_defrag
                0x0002db10       0x44 examples/experimental_lpn/CMakeFiles/lpn_nrf52840_xxAA_s140_6.1.1.dir/__/__/mesh/core/src/flash_manager_defrag.c.obj
                0x0002db10                flash_manager_defrag
 .text.flash_manager_defrag_recovery_page_get
                0x0002db54        0xc examples/experimental_lpn/CMakeFiles/lpn_nrf52840_xxAA_s140_6.1.1.dir/__/__/mesh/core/src/flash_manager_defrag.c.obj
                0x0002db54                flash_manager_defrag_recovery_page_get
 .text.fifo_init
                0x0002db60       0x34 examples/experimental_lpn/CMakeFiles/lpn_nrf52840_xxAA_s140_6.1.1.dir/__/__/mesh/core/src/fifo.c.obj
                0x0002db60                fifo_init
 .text.fifo_pop
                0x0002db94       0x52 examples/experimental_lpn/CMakeFiles/lpn_nrf52840_xxAA_s140_6.1.1.dir/__/__/mesh/core/src/fifo.c.obj
                0x0002db94                fifo_pop
 *fill*         0x0002dbe6        0x2 
 .text.wait_for_ready
                0x0002dbe8       0x10 examples/experimental_lpn/CMakeFiles/lpn_nrf52840_xxAA_s140_6.1.1.dir/__/__/mesh/core/src/nrf_flash.c.obj
 .text.nrf_flash_erase
                0x0002dbf8       0x50 examples/experimental_lpn/CMakeFiles/lpn_nrf52840_xxAA_s140_6.1.1.dir/__/__/mesh/core/src/nrf_flash.c.obj
                0x0002dbf8                nrf_flash_erase
 .text.nrf_flash_write
                0x0002dc48       0x50 examples/experimental_lpn/CMakeFiles/lpn_nrf52840_xxAA_s140_6.1.1.dir/__/__/mesh/core/src/nrf_flash.c.obj
                0x0002dc48                nrf_flash_write
 .text.entry_recover_cb
                0x0002dc98       0x18 examples/experimental_lpn/CMakeFiles/lpn_nrf52840_xxAA_s140_6.1.1.dir/__/__/mesh/core/src/net_state.c.obj
 .text.flash_store_iv_index
                0x0002dcb0       0x38 examples/experimental_lpn/CMakeFiles/lpn_nrf52840_xxAA_s140_6.1.1.dir/__/__/mesh/core/src/net_state.c.obj
 .text.flash_mem_available
                0x0002dce8       0x14 examples/experimental_lpn/CMakeFiles/lpn_nrf52840_xxAA_s140_6.1.1.dir/__/__/mesh/core/src/net_state.c.obj
 .text.iv_index_notify
                0x0002dcfc       0x30 examples/experimental_lpn/CMakeFiles/lpn_nrf52840_xxAA_s140_6.1.1.dir/__/__/mesh/core/src/net_state.c.obj
 .text.seqnum_block_allocate
                0x0002dd2c       0x4c examples/experimental_lpn/CMakeFiles/lpn_nrf52840_xxAA_s140_6.1.1.dir/__/__/mesh/core/src/net_state.c.obj
 .text.net_state_reset
                0x0002dd78       0x48 examples/experimental_lpn/CMakeFiles/lpn_nrf52840_xxAA_s140_6.1.1.dir/__/__/mesh/core/src/net_state.c.obj
                0x0002dd78                net_state_reset
 .text.flash_write_complete
                0x0002ddc0       0x64 examples/experimental_lpn/CMakeFiles/lpn_nrf52840_xxAA_s140_6.1.1.dir/__/__/mesh/core/src/net_state.c.obj
 .text.net_state_recover_from_flash
                0x0002de24       0x60 examples/experimental_lpn/CMakeFiles/lpn_nrf52840_xxAA_s140_6.1.1.dir/__/__/mesh/core/src/net_state.c.obj
                0x0002de24                net_state_recover_from_flash
 .text.net_state_flash_area_get
                0x0002de84        0xc examples/experimental_lpn/CMakeFiles/lpn_nrf52840_xxAA_s140_6.1.1.dir/__/__/mesh/core/src/net_state.c.obj
                0x0002de84                net_state_flash_area_get
 .text.init_flash_storage
                0x0002de90       0x40 examples/experimental_lpn/CMakeFiles/lpn_nrf52840_xxAA_s140_6.1.1.dir/__/__/mesh/core/src/net_state.c.obj
 .text.net_state_init
                0x0002ded0       0x44 examples/experimental_lpn/CMakeFiles/lpn_nrf52840_xxAA_s140_6.1.1.dir/__/__/mesh/core/src/net_state.c.obj
                0x0002ded0                net_state_init
 .text.net_state_enable
                0x0002df14       0x30 examples/experimental_lpn/CMakeFiles/lpn_nrf52840_xxAA_s140_6.1.1.dir/__/__/mesh/core/src/net_state.c.obj
                0x0002df14                net_state_enable
 .text.net_state_iv_update_start
                0x0002df44       0x50 examples/experimental_lpn/CMakeFiles/lpn_nrf52840_xxAA_s140_6.1.1.dir/__/__/mesh/core/src/net_state.c.obj
                0x0002df44                net_state_iv_update_start
 .text.iv_update_trigger_if_pending
                0x0002df94       0x6c examples/experimental_lpn/CMakeFiles/lpn_nrf52840_xxAA_s140_6.1.1.dir/__/__/mesh/core/src/net_state.c.obj
 .text.iv_update_timer_handler
                0x0002e000       0x64 examples/experimental_lpn/CMakeFiles/lpn_nrf52840_xxAA_s140_6.1.1.dir/__/__/mesh/core/src/net_state.c.obj
 .text.incoming_data_received.isra.2
                0x0002e064       0x78 examples/experimental_lpn/CMakeFiles/lpn_nrf52840_xxAA_s140_6.1.1.dir/__/__/mesh/core/src/net_state.c.obj
 .text.mesh_evt_handler
                0x0002e0dc       0x2e examples/experimental_lpn/CMakeFiles/lpn_nrf52840_xxAA_s140_6.1.1.dir/__/__/mesh/core/src/net_state.c.obj
 *fill*         0x0002e10a        0x2 
 .text.net_state_seqnum_alloc
                0x0002e10c       0x68 examples/experimental_lpn/CMakeFiles/lpn_nrf52840_xxAA_s140_6.1.1.dir/__/__/mesh/core/src/net_state.c.obj
                0x0002e10c                net_state_seqnum_alloc
 .text.net_state_iv_index_lock
                0x0002e174       0x3c examples/experimental_lpn/CMakeFiles/lpn_nrf52840_xxAA_s140_6.1.1.dir/__/__/mesh/core/src/net_state.c.obj
                0x0002e174                net_state_iv_index_lock
 .text.net_state_key_refresh_phase_changed
                0x0002e1b0       0x20 examples/experimental_lpn/CMakeFiles/lpn_nrf52840_xxAA_s140_6.1.1.dir/__/__/mesh/core/src/net_state.c.obj
                0x0002e1b0                net_state_key_refresh_phase_changed
 .text.net_state_beacon_iv_index_get
                0x0002e1d0        0xc examples/experimental_lpn/CMakeFiles/lpn_nrf52840_xxAA_s140_6.1.1.dir/__/__/mesh/core/src/net_state.c.obj
                0x0002e1d0                net_state_beacon_iv_index_get
 .text.net_state_tx_iv_index_get
                0x0002e1dc       0x14 examples/experimental_lpn/CMakeFiles/lpn_nrf52840_xxAA_s140_6.1.1.dir/__/__/mesh/core/src/net_state.c.obj
                0x0002e1dc                net_state_tx_iv_index_get
 .text.net_state_rx_iv_index_get
                0x0002e1f0       0x18 examples/experimental_lpn/CMakeFiles/lpn_nrf52840_xxAA_s140_6.1.1.dir/__/__/mesh/core/src/net_state.c.obj
                0x0002e1f0                net_state_rx_iv_index_get
 .text.net_state_iv_update_get
                0x0002e208        0xc examples/experimental_lpn/CMakeFiles/lpn_nrf52840_xxAA_s140_6.1.1.dir/__/__/mesh/core/src/net_state.c.obj
                0x0002e208                net_state_iv_update_get
 .text.net_state_iv_index_set
                0x0002e214       0x34 examples/experimental_lpn/CMakeFiles/lpn_nrf52840_xxAA_s140_6.1.1.dir/__/__/mesh/core/src/net_state.c.obj
                0x0002e214                net_state_iv_index_set
 .text.send_end_events
                0x0002e248       0x84 examples/experimental_lpn/CMakeFiles/lpn_nrf52840_xxAA_s140_6.1.1.dir/__/__/mesh/core/src/mesh_flash.c.obj
 .text.flash_op_action_prepare
                0x0002e2cc       0x78 examples/experimental_lpn/CMakeFiles/lpn_nrf52840_xxAA_s140_6.1.1.dir/__/__/mesh/core/src/mesh_flash.c.obj
 .text.flash_op_schedule
                0x0002e344       0x20 examples/experimental_lpn/CMakeFiles/lpn_nrf52840_xxAA_s140_6.1.1.dir/__/__/mesh/core/src/mesh_flash.c.obj
 .text.flash_op_start
                0x0002e364      0x13c examples/experimental_lpn/CMakeFiles/lpn_nrf52840_xxAA_s140_6.1.1.dir/__/__/mesh/core/src/mesh_flash.c.obj
 .text.mesh_flash_init
                0x0002e4a0       0x7c examples/experimental_lpn/CMakeFiles/lpn_nrf52840_xxAA_s140_6.1.1.dir/__/__/mesh/core/src/mesh_flash.c.obj
                0x0002e4a0                mesh_flash_init
 .text.mesh_flash_user_callback_set
                0x0002e51c       0x20 examples/experimental_lpn/CMakeFiles/lpn_nrf52840_xxAA_s140_6.1.1.dir/__/__/mesh/core/src/mesh_flash.c.obj
                0x0002e51c                mesh_flash_user_callback_set
 .text.mesh_flash_op_push
                0x0002e53c      0x10c examples/experimental_lpn/CMakeFiles/lpn_nrf52840_xxAA_s140_6.1.1.dir/__/__/mesh/core/src/mesh_flash.c.obj
                0x0002e53c                mesh_flash_op_push
 .text.mesh_flash_set_suspended
                0x0002e648       0x70 examples/experimental_lpn/CMakeFiles/lpn_nrf52840_xxAA_s140_6.1.1.dir/__/__/mesh/core/src/mesh_flash.c.obj
                0x0002e648                mesh_flash_set_suspended
 .text.nrf_mesh_address_type_get
                0x0002e6b8       0x10 examples/experimental_lpn/CMakeFiles/lpn_nrf52840_xxAA_s140_6.1.1.dir/__/__/mesh/core/src/nrf_mesh_utils.c.obj
                0x0002e6b8                nrf_mesh_address_type_get
 .text.sd_softdevice_is_enabled
                0x0002e6c8        0x4 examples/experimental_lpn/CMakeFiles/lpn_nrf52840_xxAA_s140_6.1.1.dir/__/__/mesh/core/src/nrf_mesh.c.obj
 .text.nrf_mesh_listen
                0x0002e6cc      0x138 examples/experimental_lpn/CMakeFiles/lpn_nrf52840_xxAA_s140_6.1.1.dir/__/__/mesh/core/src/nrf_mesh.c.obj
 .text.scanner_packet_process_cb
                0x0002e804       0x8c examples/experimental_lpn/CMakeFiles/lpn_nrf52840_xxAA_s140_6.1.1.dir/__/__/mesh/core/src/nrf_mesh.c.obj
 .text.bearer_stopped_cb
                0x0002e890       0x30 examples/experimental_lpn/CMakeFiles/lpn_nrf52840_xxAA_s140_6.1.1.dir/__/__/mesh/core/src/nrf_mesh.c.obj
 .text.nrf_mesh_init
                0x0002e8c0       0xec examples/experimental_lpn/CMakeFiles/lpn_nrf52840_xxAA_s140_6.1.1.dir/__/__/mesh/core/src/nrf_mesh.c.obj
                0x0002e8c0                nrf_mesh_init
 .text.nrf_mesh_enable
                0x0002e9ac       0xa8 examples/experimental_lpn/CMakeFiles/lpn_nrf52840_xxAA_s140_6.1.1.dir/__/__/mesh/core/src/nrf_mesh.c.obj
                0x0002e9ac                nrf_mesh_enable
 .text.nrf_mesh_disable
                0x0002ea54       0x2c examples/experimental_lpn/CMakeFiles/lpn_nrf52840_xxAA_s140_6.1.1.dir/__/__/mesh/core/src/nrf_mesh.c.obj
                0x0002ea54                nrf_mesh_disable
 .text.nrf_mesh_packet_send
                0x0002ea80        0x4 examples/experimental_lpn/CMakeFiles/lpn_nrf52840_xxAA_s140_6.1.1.dir/__/__/mesh/core/src/nrf_mesh.c.obj
                0x0002ea80                nrf_mesh_packet_send
 .text.nrf_mesh_evt_handler_add
                0x0002ea84        0x4 examples/experimental_lpn/CMakeFiles/lpn_nrf52840_xxAA_s140_6.1.1.dir/__/__/mesh/core/src/nrf_mesh.c.obj
                0x0002ea84                nrf_mesh_evt_handler_add
 .text.nrf_mesh_evt_handler_remove
                0x0002ea88        0x4 examples/experimental_lpn/CMakeFiles/lpn_nrf52840_xxAA_s140_6.1.1.dir/__/__/mesh/core/src/nrf_mesh.c.obj
                0x0002ea88                nrf_mesh_evt_handler_remove
 .text.nrf_mesh_on_sd_evt
                0x0002ea8c        0xa examples/experimental_lpn/CMakeFiles/lpn_nrf52840_xxAA_s140_6.1.1.dir/__/__/mesh/core/src/nrf_mesh.c.obj
                0x0002ea8c                nrf_mesh_on_sd_evt
 .text.nrf_mesh_subnet_added
                0x0002ea96        0x4 examples/experimental_lpn/CMakeFiles/lpn_nrf52840_xxAA_s140_6.1.1.dir/__/__/mesh/core/src/nrf_mesh.c.obj
                0x0002ea96                nrf_mesh_subnet_added
 *fill*         0x0002ea9a        0x2 
 .text.nrf_mesh_unique_token_get
                0x0002ea9c       0x18 examples/experimental_lpn/CMakeFiles/lpn_nrf52840_xxAA_s140_6.1.1.dir/__/__/mesh/core/src/nrf_mesh.c.obj
                0x0002ea9c                nrf_mesh_unique_token_get
 .text.queue_init
                0x0002eab4       0x14 examples/experimental_lpn/CMakeFiles/lpn_nrf52840_xxAA_s140_6.1.1.dir/__/__/mesh/core/src/queue.c.obj
                0x0002eab4                queue_init
 .text.queue_push
                0x0002eac8       0x34 examples/experimental_lpn/CMakeFiles/lpn_nrf52840_xxAA_s140_6.1.1.dir/__/__/mesh/core/src/queue.c.obj
                0x0002eac8                queue_push
 .text.queue_pop
                0x0002eafc       0x26 examples/experimental_lpn/CMakeFiles/lpn_nrf52840_xxAA_s140_6.1.1.dir/__/__/mesh/core/src/queue.c.obj
                0x0002eafc                queue_pop
 .text.queue_peek
                0x0002eb22       0x10 examples/experimental_lpn/CMakeFiles/lpn_nrf52840_xxAA_s140_6.1.1.dir/__/__/mesh/core/src/queue.c.obj
                0x0002eb22                queue_peek
 .text.sd_power_reset_reason_clr
                0x0002eb32        0x4 examples/experimental_lpn/CMakeFiles/lpn_nrf52840_xxAA_s140_6.1.1.dir/__/__/mesh/core/src/hal.c.obj
 *fill*         0x0002eb36        0x2 
 .text.hal_device_reset
                0x0002eb38       0x2c examples/experimental_lpn/CMakeFiles/lpn_nrf52840_xxAA_s140_6.1.1.dir/__/__/mesh/core/src/hal.c.obj
                0x0002eb38                hal_device_reset
 .text.hal_lfclk_ppm_get
                0x0002eb64       0x14 examples/experimental_lpn/CMakeFiles/lpn_nrf52840_xxAA_s140_6.1.1.dir/__/__/mesh/core/src/hal.c.obj
                0x0002eb64                hal_lfclk_ppm_get
 .text.hal_irq_active_get
                0x0002eb78       0x10 examples/experimental_lpn/CMakeFiles/lpn_nrf52840_xxAA_s140_6.1.1.dir/__/__/mesh/core/src/hal.c.obj
                0x0002eb78                hal_irq_active_get
 .text.hal_irq_is_enabled
                0x0002eb88       0x28 examples/experimental_lpn/CMakeFiles/lpn_nrf52840_xxAA_s140_6.1.1.dir/__/__/mesh/core/src/hal.c.obj
                0x0002eb88                hal_irq_is_enabled
 .text.sd_ecb_block_encrypt
                0x0002ebb0        0x4 examples/experimental_lpn/CMakeFiles/lpn_nrf52840_xxAA_s140_6.1.1.dir/__/__/mesh/core/src/aes_cmac.c.obj
 .text.utils_xor.constprop.1
                0x0002ebb4       0x20 examples/experimental_lpn/CMakeFiles/lpn_nrf52840_xxAA_s140_6.1.1.dir/__/__/mesh/core/src/aes_cmac.c.obj
 .text.aes_cmac
                0x0002ebd4      0x10c examples/experimental_lpn/CMakeFiles/lpn_nrf52840_xxAA_s140_6.1.1.dir/__/__/mesh/core/src/aes_cmac.c.obj
                0x0002ebd4                aes_cmac
 .text.add_evt  0x0002ece0       0x50 examples/experimental_lpn/CMakeFiles/lpn_nrf52840_xxAA_s140_6.1.1.dir/__/__/mesh/core/src/timer_scheduler.c.obj
 .text.remove_evt
                0x0002ed30       0x50 examples/experimental_lpn/CMakeFiles/lpn_nrf52840_xxAA_s140_6.1.1.dir/__/__/mesh/core/src/timer_scheduler.c.obj
 .text.timer_cb
                0x0002ed80        0xc examples/experimental_lpn/CMakeFiles/lpn_nrf52840_xxAA_s140_6.1.1.dir/__/__/mesh/core/src/timer_scheduler.c.obj
 .text.setup_timeout.isra.0
                0x0002ed8c       0x1c examples/experimental_lpn/CMakeFiles/lpn_nrf52840_xxAA_s140_6.1.1.dir/__/__/mesh/core/src/timer_scheduler.c.obj
 .text.flag_event_cb
                0x0002eda8       0xa4 examples/experimental_lpn/CMakeFiles/lpn_nrf52840_xxAA_s140_6.1.1.dir/__/__/mesh/core/src/timer_scheduler.c.obj
 .text.timer_sch_init
                0x0002ee4c       0x2c examples/experimental_lpn/CMakeFiles/lpn_nrf52840_xxAA_s140_6.1.1.dir/__/__/mesh/core/src/timer_scheduler.c.obj
                0x0002ee4c                timer_sch_init
 .text.timer_sch_schedule
                0x0002ee78       0x44 examples/experimental_lpn/CMakeFiles/lpn_nrf52840_xxAA_s140_6.1.1.dir/__/__/mesh/core/src/timer_scheduler.c.obj
                0x0002ee78                timer_sch_schedule
 .text.timer_sch_abort
                0x0002eebc       0x2e examples/experimental_lpn/CMakeFiles/lpn_nrf52840_xxAA_s140_6.1.1.dir/__/__/mesh/core/src/timer_scheduler.c.obj
                0x0002eebc                timer_sch_abort
 .text.timer_sch_reschedule
                0x0002eeea       0x38 examples/experimental_lpn/CMakeFiles/lpn_nrf52840_xxAA_s140_6.1.1.dir/__/__/mesh/core/src/timer_scheduler.c.obj
                0x0002eeea                timer_sch_reschedule
 .text.timer_init
                0x0002ef22       0x1a examples/experimental_lpn/CMakeFiles/lpn_nrf52840_xxAA_s140_6.1.1.dir/__/__/mesh/core/src/timer.c.obj
                0x0002ef22                timer_init
 .text.timer_now
                0x0002ef3c       0x48 examples/experimental_lpn/CMakeFiles/lpn_nrf52840_xxAA_s140_6.1.1.dir/__/__/mesh/core/src/timer.c.obj
                0x0002ef3c                timer_now
 .text.nrf_mesh_timer_tail_handle
                0x0002ef84       0x34 examples/experimental_lpn/CMakeFiles/lpn_nrf52840_xxAA_s140_6.1.1.dir/__/__/mesh/core/src/timer.c.obj
                0x0002ef84                nrf_mesh_timer_tail_handle
 .text.nrf_mesh_timer_ovfw_handle
                0x0002efb8       0x98 examples/experimental_lpn/CMakeFiles/lpn_nrf52840_xxAA_s140_6.1.1.dir/__/__/mesh/core/src/timer.c.obj
                0x0002efb8                nrf_mesh_timer_ovfw_handle
 .text.timer_start
                0x0002f050       0xac examples/experimental_lpn/CMakeFiles/lpn_nrf52840_xxAA_s140_6.1.1.dir/__/__/mesh/core/src/timer.c.obj
                0x0002f050                timer_start
 .text.timer_stop
                0x0002f0fc       0x30 examples/experimental_lpn/CMakeFiles/lpn_nrf52840_xxAA_s140_6.1.1.dir/__/__/mesh/core/src/timer.c.obj
                0x0002f0fc                timer_stop
 .text.sd_rand_application_bytes_available_get
                0x0002f12c        0x4 examples/experimental_lpn/CMakeFiles/lpn_nrf52840_xxAA_s140_6.1.1.dir/__/__/mesh/core/src/rand.c.obj
 .text.sd_rand_application_vector_get
                0x0002f130        0x4 examples/experimental_lpn/CMakeFiles/lpn_nrf52840_xxAA_s140_6.1.1.dir/__/__/mesh/core/src/rand.c.obj
 .text.rand_prng_get
                0x0002f134       0x24 examples/experimental_lpn/CMakeFiles/lpn_nrf52840_xxAA_s140_6.1.1.dir/__/__/mesh/core/src/rand.c.obj
                0x0002f134                rand_prng_get
 .text.rand_hw_rng_get
                0x0002f158       0x44 examples/experimental_lpn/CMakeFiles/lpn_nrf52840_xxAA_s140_6.1.1.dir/__/__/mesh/core/src/rand.c.obj
                0x0002f158                rand_hw_rng_get
 .text.rand_prng_seed
                0x0002f19c       0x34 examples/experimental_lpn/CMakeFiles/lpn_nrf52840_xxAA_s140_6.1.1.dir/__/__/mesh/core/src/rand.c.obj
                0x0002f19c                rand_prng_seed
 .text.mesh_opt_init
                0x0002f1d0        0x2 examples/experimental_lpn/CMakeFiles/lpn_nrf52840_xxAA_s140_6.1.1.dir/__/__/mesh/core/src/mesh_opt.c.obj
                0x0002f1d0                mesh_opt_init
 .text.sd_radio_session_open
                0x0002f1d2        0x4 examples/experimental_lpn/CMakeFiles/lpn_nrf52840_xxAA_s140_6.1.1.dir/__/__/mesh/core/src/timeslot.c.obj
 .text.sd_radio_session_close
                0x0002f1d6        0x4 examples/experimental_lpn/CMakeFiles/lpn_nrf52840_xxAA_s140_6.1.1.dir/__/__/mesh/core/src/timeslot.c.obj
 .text.sd_radio_request
                0x0002f1da        0x4 examples/experimental_lpn/CMakeFiles/lpn_nrf52840_xxAA_s140_6.1.1.dir/__/__/mesh/core/src/timeslot.c.obj
 *fill*         0x0002f1de        0x2 
 .text.end_timer_handler
                0x0002f1e0       0x24 examples/experimental_lpn/CMakeFiles/lpn_nrf52840_xxAA_s140_6.1.1.dir/__/__/mesh/core/src/timeslot.c.obj
 .text.get_end_time.isra.3
                0x0002f204       0x20 examples/experimental_lpn/CMakeFiles/lpn_nrf52840_xxAA_s140_6.1.1.dir/__/__/mesh/core/src/timeslot.c.obj
 .text.on_ts_begin.constprop.9
                0x0002f224       0x48 examples/experimental_lpn/CMakeFiles/lpn_nrf52840_xxAA_s140_6.1.1.dir/__/__/mesh/core/src/timeslot.c.obj
 .text.handle_extend_end.constprop.5
                0x0002f26c       0x88 examples/experimental_lpn/CMakeFiles/lpn_nrf52840_xxAA_s140_6.1.1.dir/__/__/mesh/core/src/timeslot.c.obj
 .text.radio_signal_callback
                0x0002f2f4      0x12c examples/experimental_lpn/CMakeFiles/lpn_nrf52840_xxAA_s140_6.1.1.dir/__/__/mesh/core/src/timeslot.c.obj
 .text.timeslot_sd_event_handler
                0x0002f420       0x60 examples/experimental_lpn/CMakeFiles/lpn_nrf52840_xxAA_s140_6.1.1.dir/__/__/mesh/core/src/timeslot.c.obj
                0x0002f420                timeslot_sd_event_handler
 .text.timeslot_init
                0x0002f480       0x50 examples/experimental_lpn/CMakeFiles/lpn_nrf52840_xxAA_s140_6.1.1.dir/__/__/mesh/core/src/timeslot.c.obj
                0x0002f480                timeslot_init
 .text.timeslot_start
                0x0002f4d0       0x48 examples/experimental_lpn/CMakeFiles/lpn_nrf52840_xxAA_s140_6.1.1.dir/__/__/mesh/core/src/timeslot.c.obj
                0x0002f4d0                timeslot_start
 .text.timeslot_end_is_pending
                0x0002f518       0x28 examples/experimental_lpn/CMakeFiles/lpn_nrf52840_xxAA_s140_6.1.1.dir/__/__/mesh/core/src/timeslot.c.obj
                0x0002f518                timeslot_end_is_pending
 .text.timeslot_length_get
                0x0002f540        0xc examples/experimental_lpn/CMakeFiles/lpn_nrf52840_xxAA_s140_6.1.1.dir/__/__/mesh/core/src/timeslot.c.obj
                0x0002f540                timeslot_length_get
 .text.timeslot_remaining_time_get
                0x0002f54c       0x24 examples/experimental_lpn/CMakeFiles/lpn_nrf52840_xxAA_s140_6.1.1.dir/__/__/mesh/core/src/timeslot.c.obj
                0x0002f54c                timeslot_remaining_time_get
 .text.timeslot_is_in_ts
                0x0002f570        0xc examples/experimental_lpn/CMakeFiles/lpn_nrf52840_xxAA_s140_6.1.1.dir/__/__/mesh/core/src/timeslot.c.obj
                0x0002f570                timeslot_is_in_ts
 .text.timeslot_is_in_cb
                0x0002f57c        0xc examples/experimental_lpn/CMakeFiles/lpn_nrf52840_xxAA_s140_6.1.1.dir/__/__/mesh/core/src/timeslot.c.obj
                0x0002f57c                timeslot_is_in_cb
 .text.timeslot_session_is_active
                0x0002f588       0x10 examples/experimental_lpn/CMakeFiles/lpn_nrf52840_xxAA_s140_6.1.1.dir/__/__/mesh/core/src/timeslot.c.obj
                0x0002f588                timeslot_session_is_active
 .text.timeslot_trigger
                0x0002f598       0x24 examples/experimental_lpn/CMakeFiles/lpn_nrf52840_xxAA_s140_6.1.1.dir/__/__/mesh/core/src/timeslot.c.obj
                0x0002f598                timeslot_trigger
 .text.timeslot_stop
                0x0002f5bc       0x1c examples/experimental_lpn/CMakeFiles/lpn_nrf52840_xxAA_s140_6.1.1.dir/__/__/mesh/core/src/timeslot.c.obj
                0x0002f5bc                timeslot_stop
 .text.timeslot_restart
                0x0002f5d8       0x24 examples/experimental_lpn/CMakeFiles/lpn_nrf52840_xxAA_s140_6.1.1.dir/__/__/mesh/core/src/timeslot.c.obj
                0x0002f5d8                timeslot_restart
 .text.timeslot_state_lock
                0x0002f5fc       0x24 examples/experimental_lpn/CMakeFiles/lpn_nrf52840_xxAA_s140_6.1.1.dir/__/__/mesh/core/src/timeslot.c.obj
                0x0002f5fc                timeslot_state_lock
 .text.timer_mut_unlock
                0x0002f620       0x10 examples/experimental_lpn/CMakeFiles/lpn_nrf52840_xxAA_s140_6.1.1.dir/__/__/mesh/core/src/timeslot_timer.c.obj
 .text.ts_timer_order_cb
                0x0002f630       0x64 examples/experimental_lpn/CMakeFiles/lpn_nrf52840_xxAA_s140_6.1.1.dir/__/__/mesh/core/src/timeslot_timer.c.obj
                0x0002f630                ts_timer_order_cb
 .text.ts_timer_now
                0x0002f694       0x40 examples/experimental_lpn/CMakeFiles/lpn_nrf52840_xxAA_s140_6.1.1.dir/__/__/mesh/core/src/timeslot_timer.c.obj
                0x0002f694                ts_timer_now
 .text.ts_timer_event_handler
                0x0002f6d4       0x68 examples/experimental_lpn/CMakeFiles/lpn_nrf52840_xxAA_s140_6.1.1.dir/__/__/mesh/core/src/timeslot_timer.c.obj
                0x0002f6d4                ts_timer_event_handler
 .text.ts_timer_to_device_time
                0x0002f73c        0xc examples/experimental_lpn/CMakeFiles/lpn_nrf52840_xxAA_s140_6.1.1.dir/__/__/mesh/core/src/timeslot_timer.c.obj
                0x0002f73c                ts_timer_to_device_time
 .text.ts_timer_on_ts_begin
                0x0002f748       0x64 examples/experimental_lpn/CMakeFiles/lpn_nrf52840_xxAA_s140_6.1.1.dir/__/__/mesh/core/src/timeslot_timer.c.obj
                0x0002f748                ts_timer_on_ts_begin
 .text.ts_timer_on_ts_end
                0x0002f7ac       0x48 examples/experimental_lpn/CMakeFiles/lpn_nrf52840_xxAA_s140_6.1.1.dir/__/__/mesh/core/src/timeslot_timer.c.obj
                0x0002f7ac                ts_timer_on_ts_end
 .text.trigger_event_handler
                0x0002f7f4       0x1c examples/experimental_lpn/CMakeFiles/lpn_nrf52840_xxAA_s140_6.1.1.dir/__/__/mesh/core/src/bearer_event.c.obj
 .text.bearer_event_init
                0x0002f810       0x58 examples/experimental_lpn/CMakeFiles/lpn_nrf52840_xxAA_s140_6.1.1.dir/__/__/mesh/core/src/bearer_event.c.obj
                0x0002f810                bearer_event_init
 .text.bearer_event_start
                0x0002f868       0x44 examples/experimental_lpn/CMakeFiles/lpn_nrf52840_xxAA_s140_6.1.1.dir/__/__/mesh/core/src/bearer_event.c.obj
                0x0002f868                bearer_event_start
 .text.bearer_event_critical_section_begin
                0x0002f8ac       0x80 examples/experimental_lpn/CMakeFiles/lpn_nrf52840_xxAA_s140_6.1.1.dir/__/__/mesh/core/src/bearer_event.c.obj
                0x0002f8ac                bearer_event_critical_section_begin
 .text.bearer_event_critical_section_end
                0x0002f92c       0x60 examples/experimental_lpn/CMakeFiles/lpn_nrf52840_xxAA_s140_6.1.1.dir/__/__/mesh/core/src/bearer_event.c.obj
                0x0002f92c                bearer_event_critical_section_end
 .text.bearer_event_flag_add
                0x0002f98c       0x3c examples/experimental_lpn/CMakeFiles/lpn_nrf52840_xxAA_s140_6.1.1.dir/__/__/mesh/core/src/bearer_event.c.obj
                0x0002f98c                bearer_event_flag_add
 .text.bearer_event_flag_set
                0x0002f9c8       0x44 examples/experimental_lpn/CMakeFiles/lpn_nrf52840_xxAA_s140_6.1.1.dir/__/__/mesh/core/src/bearer_event.c.obj
                0x0002f9c8                bearer_event_flag_set
 .text.bearer_event_sequential_add
                0x0002fa0c       0x2e examples/experimental_lpn/CMakeFiles/lpn_nrf52840_xxAA_s140_6.1.1.dir/__/__/mesh/core/src/bearer_event.c.obj
                0x0002fa0c                bearer_event_sequential_add
 *fill*         0x0002fa3a        0x2 
 .text.bearer_event_sequential_post
                0x0002fa3c       0x44 examples/experimental_lpn/CMakeFiles/lpn_nrf52840_xxAA_s140_6.1.1.dir/__/__/mesh/core/src/bearer_event.c.obj
                0x0002fa3c                bearer_event_sequential_post
 .text.bearer_event_sequential_pending
                0x0002fa80       0x10 examples/experimental_lpn/CMakeFiles/lpn_nrf52840_xxAA_s140_6.1.1.dir/__/__/mesh/core/src/bearer_event.c.obj
                0x0002fa80                bearer_event_sequential_pending
 .text.bearer_event_handler
                0x0002fa90       0xe4 examples/experimental_lpn/CMakeFiles/lpn_nrf52840_xxAA_s140_6.1.1.dir/__/__/mesh/core/src/bearer_event.c.obj
                0x0002fa90                bearer_event_handler
 .text.QDEC_IRQHandler
                0x0002fb74        0x4 examples/experimental_lpn/CMakeFiles/lpn_nrf52840_xxAA_s140_6.1.1.dir/__/__/mesh/core/src/bearer_event.c.obj
                0x0002fb74                QDEC_IRQHandler
 .text.bearer_event_in_correct_irq_priority
                0x0002fb78       0x74 examples/experimental_lpn/CMakeFiles/lpn_nrf52840_xxAA_s140_6.1.1.dir/__/__/mesh/core/src/bearer_event.c.obj
                0x0002fb78                bearer_event_in_correct_irq_priority
 .text.sd_ecb_block_encrypt
                0x0002fbec        0x4 examples/experimental_lpn/CMakeFiles/lpn_nrf52840_xxAA_s140_6.1.1.dir/__/__/mesh/core/src/enc.c.obj
 .text.enc_aes_encrypt
                0x0002fbf0       0x32 examples/experimental_lpn/CMakeFiles/lpn_nrf52840_xxAA_s140_6.1.1.dir/__/__/mesh/core/src/enc.c.obj
                0x0002fbf0                enc_aes_encrypt
 .text.enc_aes_cmac
                0x0002fc22        0x4 examples/experimental_lpn/CMakeFiles/lpn_nrf52840_xxAA_s140_6.1.1.dir/__/__/mesh/core/src/enc.c.obj
                0x0002fc22                enc_aes_cmac
 .text.enc_aes_ccm_encrypt
                0x0002fc26        0x4 examples/experimental_lpn/CMakeFiles/lpn_nrf52840_xxAA_s140_6.1.1.dir/__/__/mesh/core/src/enc.c.obj
                0x0002fc26                enc_aes_ccm_encrypt
 .text.enc_aes_ccm_decrypt
                0x0002fc2a        0x4 examples/experimental_lpn/CMakeFiles/lpn_nrf52840_xxAA_s140_6.1.1.dir/__/__/mesh/core/src/enc.c.obj
                0x0002fc2a                enc_aes_ccm_decrypt
 .text.enc_nonce_generate
                0x0002fc2e       0xbc examples/experimental_lpn/CMakeFiles/lpn_nrf52840_xxAA_s140_6.1.1.dir/__/__/mesh/core/src/enc.c.obj
                0x0002fc2e                enc_nonce_generate
 .text.enc_s1   0x0002fcea       0x2c examples/experimental_lpn/CMakeFiles/lpn_nrf52840_xxAA_s140_6.1.1.dir/__/__/mesh/core/src/enc.c.obj
                0x0002fcea                enc_s1
 .text.enc_k1   0x0002fd16       0x3c examples/experimental_lpn/CMakeFiles/lpn_nrf52840_xxAA_s140_6.1.1.dir/__/__/mesh/core/src/enc.c.obj
                0x0002fd16                enc_k1
 *fill*         0x0002fd52        0x2 
 .text.enc_k2   0x0002fd54       0xc0 examples/experimental_lpn/CMakeFiles/lpn_nrf52840_xxAA_s140_6.1.1.dir/__/__/mesh/core/src/enc.c.obj
                0x0002fd54                enc_k2
 .text.enc_k3   0x0002fe14       0x5c examples/experimental_lpn/CMakeFiles/lpn_nrf52840_xxAA_s140_6.1.1.dir/__/__/mesh/core/src/enc.c.obj
                0x0002fe14                enc_k3
 .text.enc_k4   0x0002fe70       0x54 examples/experimental_lpn/CMakeFiles/lpn_nrf52840_xxAA_s140_6.1.1.dir/__/__/mesh/core/src/enc.c.obj
                0x0002fe70                enc_k4
 .text.allocate_packet
                0x0002fec4       0x6e examples/experimental_lpn/CMakeFiles/lpn_nrf52840_xxAA_s140_6.1.1.dir/__/__/mesh/core/src/network.c.obj
 *fill*         0x0002ff32        0x2 
 .text.network_init
                0x0002ff34       0x24 examples/experimental_lpn/CMakeFiles/lpn_nrf52840_xxAA_s140_6.1.1.dir/__/__/mesh/core/src/network.c.obj
                0x0002ff34                network_init
 .text.network_enable
                0x0002ff58        0x4 examples/experimental_lpn/CMakeFiles/lpn_nrf52840_xxAA_s140_6.1.1.dir/__/__/mesh/core/src/network.c.obj
                0x0002ff58                network_enable
 .text.network_packet_alloc
                0x0002ff5c       0x42 examples/experimental_lpn/CMakeFiles/lpn_nrf52840_xxAA_s140_6.1.1.dir/__/__/mesh/core/src/network.c.obj
                0x0002ff5c                network_packet_alloc
 *fill*         0x0002ff9e        0x2 
 .text.network_packet_send
                0x0002ffa0       0xe0 examples/experimental_lpn/CMakeFiles/lpn_nrf52840_xxAA_s140_6.1.1.dir/__/__/mesh/core/src/network.c.obj
                0x0002ffa0                network_packet_send
 .text.network_packet_in
                0x00030080      0x2dc examples/experimental_lpn/CMakeFiles/lpn_nrf52840_xxAA_s140_6.1.1.dir/__/__/mesh/core/src/network.c.obj
                0x00030080                network_packet_in
 .text.nonce_type_get
                0x0003035c       0x16 examples/experimental_lpn/CMakeFiles/lpn_nrf52840_xxAA_s140_6.1.1.dir/__/__/mesh/core/src/net_packet.c.obj
 .text.header_transfuscate
                0x00030372       0x54 examples/experimental_lpn/CMakeFiles/lpn_nrf52840_xxAA_s140_6.1.1.dir/__/__/mesh/core/src/net_packet.c.obj
 *fill*         0x000303c6        0x2 
 .text.try_decrypt
                0x000303c8      0x18c examples/experimental_lpn/CMakeFiles/lpn_nrf52840_xxAA_s140_6.1.1.dir/__/__/mesh/core/src/net_packet.c.obj
 .text.net_packet_decrypt
                0x00030554       0x94 examples/experimental_lpn/CMakeFiles/lpn_nrf52840_xxAA_s140_6.1.1.dir/__/__/mesh/core/src/net_packet.c.obj
                0x00030554                net_packet_decrypt
 .text.net_packet_encrypt
                0x000305e8       0x7e examples/experimental_lpn/CMakeFiles/lpn_nrf52840_xxAA_s140_6.1.1.dir/__/__/mesh/core/src/net_packet.c.obj
                0x000305e8                net_packet_encrypt
 .text.net_packet_header_set
                0x00030666       0xaa examples/experimental_lpn/CMakeFiles/lpn_nrf52840_xxAA_s140_6.1.1.dir/__/__/mesh/core/src/net_packet.c.obj
                0x00030666                net_packet_header_set
 .text.net_packet_payload_len_get
                0x00030710       0x10 examples/experimental_lpn/CMakeFiles/lpn_nrf52840_xxAA_s140_6.1.1.dir/__/__/mesh/core/src/net_packet.c.obj
                0x00030710                net_packet_payload_len_get
 .text.net_packet_from_payload
                0x00030720        0x4 examples/experimental_lpn/CMakeFiles/lpn_nrf52840_xxAA_s140_6.1.1.dir/__/__/mesh/core/src/net_packet.c.obj
                0x00030720                net_packet_from_payload
 .text.net_packet_payload_get
                0x00030724        0x4 examples/experimental_lpn/CMakeFiles/lpn_nrf52840_xxAA_s140_6.1.1.dir/__/__/mesh/core/src/net_packet.c.obj
                0x00030724                net_packet_payload_get
 .text.net_packet_obfuscation_start_get
                0x00030728        0x4 examples/experimental_lpn/CMakeFiles/lpn_nrf52840_xxAA_s140_6.1.1.dir/__/__/mesh/core/src/net_packet.c.obj
                0x00030728                net_packet_obfuscation_start_get
 .text.stage_get_available
                0x0003072c       0x24 examples/experimental_lpn/CMakeFiles/lpn_nrf52840_xxAA_s140_6.1.1.dir/__/__/mesh/core/src/msqueue.c.obj
 .text.msq_get  0x00030750       0x38 examples/experimental_lpn/CMakeFiles/lpn_nrf52840_xxAA_s140_6.1.1.dir/__/__/mesh/core/src/msqueue.c.obj
                0x00030750                msq_get
 .text.msq_move
                0x00030788       0x2e examples/experimental_lpn/CMakeFiles/lpn_nrf52840_xxAA_s140_6.1.1.dir/__/__/mesh/core/src/msqueue.c.obj
                0x00030788                msq_move
 .text.msq_reset
                0x000307b6       0x20 examples/experimental_lpn/CMakeFiles/lpn_nrf52840_xxAA_s140_6.1.1.dir/__/__/mesh/core/src/msqueue.c.obj
                0x000307b6                msq_reset
 .text.msq_init
                0x000307d6       0x48 examples/experimental_lpn/CMakeFiles/lpn_nrf52840_xxAA_s140_6.1.1.dir/__/__/mesh/core/src/msqueue.c.obj
                0x000307d6                msq_init
 .text.msq_available
                0x0003081e       0x26 examples/experimental_lpn/CMakeFiles/lpn_nrf52840_xxAA_s140_6.1.1.dir/__/__/mesh/core/src/msqueue.c.obj
                0x0003081e                msq_available
 .text.nrf_mesh_keygen_aid
                0x00030844       0x12 examples/experimental_lpn/CMakeFiles/lpn_nrf52840_xxAA_s140_6.1.1.dir/__/__/mesh/core/src/nrf_mesh_keygen.c.obj
                0x00030844                nrf_mesh_keygen_aid
 .text.nrf_mesh_keygen_network_secmat
                0x00030856       0x20 examples/experimental_lpn/CMakeFiles/lpn_nrf52840_xxAA_s140_6.1.1.dir/__/__/mesh/core/src/nrf_mesh_keygen.c.obj
                0x00030856                nrf_mesh_keygen_network_secmat
 .text.nrf_mesh_keygen_friendship_secmat
                0x00030876       0x52 examples/experimental_lpn/CMakeFiles/lpn_nrf52840_xxAA_s140_6.1.1.dir/__/__/mesh/core/src/nrf_mesh_keygen.c.obj
                0x00030876                nrf_mesh_keygen_friendship_secmat
 .text.nrf_mesh_keygen_beacon_secmat
                0x000308c8       0x50 examples/experimental_lpn/CMakeFiles/lpn_nrf52840_xxAA_s140_6.1.1.dir/__/__/mesh/core/src/nrf_mesh_keygen.c.obj
                0x000308c8                nrf_mesh_keygen_beacon_secmat
 .text.nrf_mesh_keygen_identitykey
                0x00030918       0x4c examples/experimental_lpn/CMakeFiles/lpn_nrf52840_xxAA_s140_6.1.1.dir/__/__/mesh/core/src/nrf_mesh_keygen.c.obj
                0x00030918                nrf_mesh_keygen_identitykey
 .text.nrf_mesh_keygen_virtual_address
                0x00030964       0x50 examples/experimental_lpn/CMakeFiles/lpn_nrf52840_xxAA_s140_6.1.1.dir/__/__/mesh/core/src/nrf_mesh_keygen.c.obj
                0x00030964                nrf_mesh_keygen_virtual_address
 .text.erase_at
                0x000309b4       0x14 examples/experimental_lpn/CMakeFiles/lpn_nrf52840_xxAA_s140_6.1.1.dir/__/__/mesh/core/src/cache.c.obj
 .text.cache_init
                0x000309c8       0x1e examples/experimental_lpn/CMakeFiles/lpn_nrf52840_xxAA_s140_6.1.1.dir/__/__/mesh/core/src/cache.c.obj
                0x000309c8                cache_init
 .text.cache_has_elem
                0x000309e6       0x40 examples/experimental_lpn/CMakeFiles/lpn_nrf52840_xxAA_s140_6.1.1.dir/__/__/mesh/core/src/cache.c.obj
                0x000309e6                cache_has_elem
 .text.cache_put
                0x00030a26       0x30 examples/experimental_lpn/CMakeFiles/lpn_nrf52840_xxAA_s140_6.1.1.dir/__/__/mesh/core/src/cache.c.obj
                0x00030a26                cache_put
 .text.list_insert
                0x00030a56       0x1c examples/experimental_lpn/CMakeFiles/lpn_nrf52840_xxAA_s140_6.1.1.dir/__/__/mesh/core/src/list.c.obj
 .text.list_add
                0x00030a72       0x42 examples/experimental_lpn/CMakeFiles/lpn_nrf52840_xxAA_s140_6.1.1.dir/__/__/mesh/core/src/list.c.obj
                0x00030a72                list_add
 .text.list_remove
                0x00030ab4       0x3a examples/experimental_lpn/CMakeFiles/lpn_nrf52840_xxAA_s140_6.1.1.dir/__/__/mesh/core/src/list.c.obj
                0x00030ab4                list_remove
 .text.list_compare_add
                0x00030aee       0x56 examples/experimental_lpn/CMakeFiles/lpn_nrf52840_xxAA_s140_6.1.1.dir/__/__/mesh/core/src/list.c.obj
                0x00030aee                list_compare_add
 .text.log_callback_rtt
                0x00030b44       0x2c examples/experimental_lpn/CMakeFiles/lpn_nrf52840_xxAA_s140_6.1.1.dir/__/__/mesh/core/src/log.c.obj
                0x00030b44                log_callback_rtt
 .text.log_init
                0x00030b70       0x1c examples/experimental_lpn/CMakeFiles/lpn_nrf52840_xxAA_s140_6.1.1.dir/__/__/mesh/core/src/log.c.obj
                0x00030b70                log_init
 .text.log_vprintf
                0x00030b8c       0x1c examples/experimental_lpn/CMakeFiles/lpn_nrf52840_xxAA_s140_6.1.1.dir/__/__/mesh/core/src/log.c.obj
                0x00030b8c                log_vprintf
 .text.log_printf
                0x00030ba8       0x18 examples/experimental_lpn/CMakeFiles/lpn_nrf52840_xxAA_s140_6.1.1.dir/__/__/mesh/core/src/log.c.obj
                0x00030ba8                log_printf
 .text.get_area_end
                0x00030bc0        0xc examples/experimental_lpn/CMakeFiles/lpn_nrf52840_xxAA_s140_6.1.1.dir/__/__/mesh/core/src/flash_manager.c.obj
 .text.handle_matches_filter
                0x00030bcc       0x26 examples/experimental_lpn/CMakeFiles/lpn_nrf52840_xxAA_s140_6.1.1.dir/__/__/mesh/core/src/flash_manager.c.obj
 .text.flash_area_is_blank
                0x00030bf2       0x2c examples/experimental_lpn/CMakeFiles/lpn_nrf52840_xxAA_s140_6.1.1.dir/__/__/mesh/core/src/flash_manager.c.obj
 *fill*         0x00030c1e        0x2 
 .text.get_packet_buffer
                0x00030c20       0x20 examples/experimental_lpn/CMakeFiles/lpn_nrf52840_xxAA_s140_6.1.1.dir/__/__/mesh/core/src/flash_manager.c.obj
 .text.flash    0x00030c40       0x1c examples/experimental_lpn/CMakeFiles/lpn_nrf52840_xxAA_s140_6.1.1.dir/__/__/mesh/core/src/flash_manager.c.obj
 .text.free_packet_buffer
                0x00030c5c       0x3c examples/experimental_lpn/CMakeFiles/lpn_nrf52840_xxAA_s140_6.1.1.dir/__/__/mesh/core/src/flash_manager.c.obj
 .text.iterate_callback_entry_copy
                0x00030c98       0x38 examples/experimental_lpn/CMakeFiles/lpn_nrf52840_xxAA_s140_6.1.1.dir/__/__/mesh/core/src/flash_manager.c.obj
 .text.reserve_action_buffer
                0x00030cd0       0x24 examples/experimental_lpn/CMakeFiles/lpn_nrf52840_xxAA_s140_6.1.1.dir/__/__/mesh/core/src/flash_manager.c.obj
 .text.commit_action_buffer
                0x00030cf4       0x18 examples/experimental_lpn/CMakeFiles/lpn_nrf52840_xxAA_s140_6.1.1.dir/__/__/mesh/core/src/flash_manager.c.obj
 .text.schedule_processing
                0x00030d0c        0xc examples/experimental_lpn/CMakeFiles/lpn_nrf52840_xxAA_s140_6.1.1.dir/__/__/mesh/core/src/flash_manager.c.obj
 .text.get_next_entry
                0x00030d18       0x34 examples/experimental_lpn/CMakeFiles/lpn_nrf52840_xxAA_s140_6.1.1.dir/__/__/mesh/core/src/flash_manager.c.obj
 .text.get_last_entry.isra.1
                0x00030d4c       0x30 examples/experimental_lpn/CMakeFiles/lpn_nrf52840_xxAA_s140_6.1.1.dir/__/__/mesh/core/src/flash_manager.c.obj
 .text.process_action_queue
                0x00030d7c      0x3fc examples/experimental_lpn/CMakeFiles/lpn_nrf52840_xxAA_s140_6.1.1.dir/__/__/mesh/core/src/flash_manager.c.obj
 .text.flash_op_ended_callback
                0x00031178       0x24 examples/experimental_lpn/CMakeFiles/lpn_nrf52840_xxAA_s140_6.1.1.dir/__/__/mesh/core/src/flash_manager.c.obj
 .text.flash_manager_init
                0x0003119c       0x68 examples/experimental_lpn/CMakeFiles/lpn_nrf52840_xxAA_s140_6.1.1.dir/__/__/mesh/core/src/flash_manager.c.obj
                0x0003119c                flash_manager_init
 .text.flash_manager_remove
                0x00031204       0x24 examples/experimental_lpn/CMakeFiles/lpn_nrf52840_xxAA_s140_6.1.1.dir/__/__/mesh/core/src/flash_manager.c.obj
                0x00031204                flash_manager_remove
 .text.flash_manager_entries_read
                0x00031228       0xea examples/experimental_lpn/CMakeFiles/lpn_nrf52840_xxAA_s140_6.1.1.dir/__/__/mesh/core/src/flash_manager.c.obj
                0x00031228                flash_manager_entries_read
 *fill*         0x00031312        0x2 
 .text.flash_manager_entry_read
                0x00031314       0x50 examples/experimental_lpn/CMakeFiles/lpn_nrf52840_xxAA_s140_6.1.1.dir/__/__/mesh/core/src/flash_manager.c.obj
                0x00031314                flash_manager_entry_read
 .text.flash_manager_entry_count_get
                0x00031364       0x1e examples/experimental_lpn/CMakeFiles/lpn_nrf52840_xxAA_s140_6.1.1.dir/__/__/mesh/core/src/flash_manager.c.obj
                0x00031364                flash_manager_entry_count_get
 .text.flash_manager_entry_alloc
                0x00031382       0x5c examples/experimental_lpn/CMakeFiles/lpn_nrf52840_xxAA_s140_6.1.1.dir/__/__/mesh/core/src/flash_manager.c.obj
                0x00031382                flash_manager_entry_alloc
 *fill*         0x000313de        0x2 
 .text.flash_manager_entry_commit
                0x000313e0       0x2c examples/experimental_lpn/CMakeFiles/lpn_nrf52840_xxAA_s140_6.1.1.dir/__/__/mesh/core/src/flash_manager.c.obj
                0x000313e0                flash_manager_entry_commit
 .text.flash_manager_entry_invalidate
                0x0003140c       0x4e examples/experimental_lpn/CMakeFiles/lpn_nrf52840_xxAA_s140_6.1.1.dir/__/__/mesh/core/src/flash_manager.c.obj
                0x0003140c                flash_manager_entry_invalidate
 *fill*         0x0003145a        0x2 
 .text.flash_manager_add
                0x0003145c      0x220 examples/experimental_lpn/CMakeFiles/lpn_nrf52840_xxAA_s140_6.1.1.dir/__/__/mesh/core/src/flash_manager.c.obj
                0x0003145c                flash_manager_add
 .text.flash_manager_mem_listener_register
                0x0003167c       0x30 examples/experimental_lpn/CMakeFiles/lpn_nrf52840_xxAA_s140_6.1.1.dir/__/__/mesh/core/src/flash_manager.c.obj
                0x0003167c                flash_manager_mem_listener_register
 .text.flash_manager_is_stable
                0x000316ac       0x20 examples/experimental_lpn/CMakeFiles/lpn_nrf52840_xxAA_s140_6.1.1.dir/__/__/mesh/core/src/flash_manager.c.obj
                0x000316ac                flash_manager_is_stable
 .text.flash_manager_on_defrag_end
                0x000316cc       0x4c examples/experimental_lpn/CMakeFiles/lpn_nrf52840_xxAA_s140_6.1.1.dir/__/__/mesh/core/src/flash_manager.c.obj
                0x000316cc                flash_manager_on_defrag_end
 .text.flash_manager_recovery_page_get
                0x00031718        0x4 examples/experimental_lpn/CMakeFiles/lpn_nrf52840_xxAA_s140_6.1.1.dir/__/__/mesh/core/src/flash_manager.c.obj
                0x00031718                flash_manager_recovery_page_get
 .text.flash_manager_action_queue_empty_cb_set
                0x0003171c       0x1c examples/experimental_lpn/CMakeFiles/lpn_nrf52840_xxAA_s140_6.1.1.dir/__/__/mesh/core/src/flash_manager.c.obj
                0x0003171c                flash_manager_action_queue_empty_cb_set
 .text.utils_xor
                0x00031738       0x14 examples/experimental_lpn/CMakeFiles/lpn_nrf52840_xxAA_s140_6.1.1.dir/__/__/mesh/core/src/ccm_soft.c.obj
 .text.sd_ecb_block_encrypt
                0x0003174c        0x4 examples/experimental_lpn/CMakeFiles/lpn_nrf52840_xxAA_s140_6.1.1.dir/__/__/mesh/core/src/ccm_soft.c.obj
 .text.ccm_soft_crypt
                0x00031750       0x4c examples/experimental_lpn/CMakeFiles/lpn_nrf52840_xxAA_s140_6.1.1.dir/__/__/mesh/core/src/ccm_soft.c.obj
 .text.ccm_soft_authenticate_blocks
                0x0003179c       0x6c examples/experimental_lpn/CMakeFiles/lpn_nrf52840_xxAA_s140_6.1.1.dir/__/__/mesh/core/src/ccm_soft.c.obj
 .text.ccm_soft_authenticate
                0x00031808       0x94 examples/experimental_lpn/CMakeFiles/lpn_nrf52840_xxAA_s140_6.1.1.dir/__/__/mesh/core/src/ccm_soft.c.obj
 .text.ccm_soft_encrypt
                0x0003189c       0x54 examples/experimental_lpn/CMakeFiles/lpn_nrf52840_xxAA_s140_6.1.1.dir/__/__/mesh/core/src/ccm_soft.c.obj
                0x0003189c                ccm_soft_encrypt
 .text.ccm_soft_decrypt
                0x000318f0       0x9c examples/experimental_lpn/CMakeFiles/lpn_nrf52840_xxAA_s140_6.1.1.dir/__/__/mesh/core/src/ccm_soft.c.obj
                0x000318f0                ccm_soft_decrypt
 .text.iv_index_get.isra.0
                0x0003198c       0x34 examples/experimental_lpn/CMakeFiles/lpn_nrf52840_xxAA_s140_6.1.1.dir/__/__/mesh/core/src/replay_cache.c.obj
 .text.evt_handler
                0x000319c0       0x60 examples/experimental_lpn/CMakeFiles/lpn_nrf52840_xxAA_s140_6.1.1.dir/__/__/mesh/core/src/replay_cache.c.obj
 .text.replay_cache_enable
                0x00031a20       0x10 examples/experimental_lpn/CMakeFiles/lpn_nrf52840_xxAA_s140_6.1.1.dir/__/__/mesh/core/src/replay_cache.c.obj
                0x00031a20                replay_cache_enable
 .text.replay_cache_add
                0x00031a30       0x78 examples/experimental_lpn/CMakeFiles/lpn_nrf52840_xxAA_s140_6.1.1.dir/__/__/mesh/core/src/replay_cache.c.obj
                0x00031a30                replay_cache_add
 .text.replay_cache_has_elem
                0x00031aa8       0x50 examples/experimental_lpn/CMakeFiles/lpn_nrf52840_xxAA_s140_6.1.1.dir/__/__/mesh/core/src/replay_cache.c.obj
                0x00031aa8                replay_cache_has_elem
 .text.replay_cache_clear
                0x00031af8       0x18 examples/experimental_lpn/CMakeFiles/lpn_nrf52840_xxAA_s140_6.1.1.dir/__/__/mesh/core/src/replay_cache.c.obj
                0x00031af8                replay_cache_clear
 .text.replay_cache_init
                0x00031b10       0x14 examples/experimental_lpn/CMakeFiles/lpn_nrf52840_xxAA_s140_6.1.1.dir/__/__/mesh/core/src/replay_cache.c.obj
                0x00031b10                replay_cache_init
 .text.beacon_create
                0x00031b24       0x46 examples/experimental_lpn/CMakeFiles/lpn_nrf52840_xxAA_s140_6.1.1.dir/__/__/mesh/core/src/beacon.c.obj
                0x00031b24                beacon_create
 *fill*         0x00031b6a        0x2 
 .text.beacon_packet_in
                0x00031b6c      0x130 examples/experimental_lpn/CMakeFiles/lpn_nrf52840_xxAA_s140_6.1.1.dir/__/__/mesh/core/src/beacon.c.obj
                0x00031b6c                beacon_packet_in
 .text.entry_get
                0x00031c9c       0x78 examples/experimental_lpn/CMakeFiles/lpn_nrf52840_xxAA_s140_6.1.1.dir/__/__/mesh/core/src/flash_manager_internal.c.obj
                0x00031c9c                entry_get
 .text.core_tx_complete_cb_set
                0x00031d14        0xc examples/experimental_lpn/CMakeFiles/lpn_nrf52840_xxAA_s140_6.1.1.dir/__/__/mesh/core/src/core_tx.c.obj
                0x00031d14                core_tx_complete_cb_set
 .text.core_tx_packet_alloc
                0x00031d20       0xac examples/experimental_lpn/CMakeFiles/lpn_nrf52840_xxAA_s140_6.1.1.dir/__/__/mesh/core/src/core_tx.c.obj
                0x00031d20                core_tx_packet_alloc
 .text.core_tx_packet_send
                0x00031dcc       0x4c examples/experimental_lpn/CMakeFiles/lpn_nrf52840_xxAA_s140_6.1.1.dir/__/__/mesh/core/src/core_tx.c.obj
                0x00031dcc                core_tx_packet_send
 .text.core_tx_packet_discard
                0x00031e18       0x40 examples/experimental_lpn/CMakeFiles/lpn_nrf52840_xxAA_s140_6.1.1.dir/__/__/mesh/core/src/core_tx.c.obj
                0x00031e18                core_tx_packet_discard
 .text.core_tx_complete
                0x00031e58       0x34 examples/experimental_lpn/CMakeFiles/lpn_nrf52840_xxAA_s140_6.1.1.dir/__/__/mesh/core/src/core_tx.c.obj
                0x00031e58                core_tx_complete
 .text.core_tx_bearer_add
                0x00031e8c       0x74 examples/experimental_lpn/CMakeFiles/lpn_nrf52840_xxAA_s140_6.1.1.dir/__/__/mesh/core/src/core_tx.c.obj
                0x00031e8c                core_tx_bearer_add
 .text.hb_pub_deleter
                0x00031f00       0x28 examples/experimental_lpn/CMakeFiles/lpn_nrf52840_xxAA_s140_6.1.1.dir/__/__/mesh/core/src/heartbeat.c.obj
 .text.hb_pub_getter
                0x00031f28       0x2c examples/experimental_lpn/CMakeFiles/lpn_nrf52840_xxAA_s140_6.1.1.dir/__/__/mesh/core/src/heartbeat.c.obj
 .text.hb_pub_setter
                0x00031f54       0xd0 examples/experimental_lpn/CMakeFiles/lpn_nrf52840_xxAA_s140_6.1.1.dir/__/__/mesh/core/src/heartbeat.c.obj
 .text.heartbeat_subscription_timer_cb
                0x00032024       0x3c examples/experimental_lpn/CMakeFiles/lpn_nrf52840_xxAA_s140_6.1.1.dir/__/__/mesh/core/src/heartbeat.c.obj
 .text.heartbeat_opcode_handle
                0x00032060       0x88 examples/experimental_lpn/CMakeFiles/lpn_nrf52840_xxAA_s140_6.1.1.dir/__/__/mesh/core/src/heartbeat.c.obj
 .text.heartbeat_publish
                0x000320e8       0xb8 examples/experimental_lpn/CMakeFiles/lpn_nrf52840_xxAA_s140_6.1.1.dir/__/__/mesh/core/src/heartbeat.c.obj
 .text.on_feature_update
                0x000321a0       0x34 examples/experimental_lpn/CMakeFiles/lpn_nrf52840_xxAA_s140_6.1.1.dir/__/__/mesh/core/src/heartbeat.c.obj
 .text.heartbeat_relay_listener_cb
                0x000321d4       0x1c examples/experimental_lpn/CMakeFiles/lpn_nrf52840_xxAA_s140_6.1.1.dir/__/__/mesh/core/src/heartbeat.c.obj
 .text.heartbeat_proxy_listener_cb
                0x000321f0       0x14 examples/experimental_lpn/CMakeFiles/lpn_nrf52840_xxAA_s140_6.1.1.dir/__/__/mesh/core/src/heartbeat.c.obj
 .text.heartbeat_core_evt_cb
                0x00032204       0x34 examples/experimental_lpn/CMakeFiles/lpn_nrf52840_xxAA_s140_6.1.1.dir/__/__/mesh/core/src/heartbeat.c.obj
 .text.heartbeat_publication_timer_cb
                0x00032238       0x54 examples/experimental_lpn/CMakeFiles/lpn_nrf52840_xxAA_s140_6.1.1.dir/__/__/mesh/core/src/heartbeat.c.obj
 .text.heartbeat_init
                0x0003228c       0x58 examples/experimental_lpn/CMakeFiles/lpn_nrf52840_xxAA_s140_6.1.1.dir/__/__/mesh/core/src/heartbeat.c.obj
                0x0003228c                heartbeat_init
 .text.heartbeat_subscription_set
                0x000322e4       0xd0 examples/experimental_lpn/CMakeFiles/lpn_nrf52840_xxAA_s140_6.1.1.dir/__/__/mesh/core/src/heartbeat.c.obj
                0x000322e4                heartbeat_subscription_set
 .text.heartbeat_subscription_get
                0x000323b4        0x8 examples/experimental_lpn/CMakeFiles/lpn_nrf52840_xxAA_s140_6.1.1.dir/__/__/mesh/core/src/heartbeat.c.obj
                0x000323b4                heartbeat_subscription_get
 .text.heartbeat_publication_get
                0x000323bc        0x8 examples/experimental_lpn/CMakeFiles/lpn_nrf52840_xxAA_s140_6.1.1.dir/__/__/mesh/core/src/heartbeat.c.obj
                0x000323bc                heartbeat_publication_get
 .text.heartbeat_publication_set
                0x000323c4       0x18 examples/experimental_lpn/CMakeFiles/lpn_nrf52840_xxAA_s140_6.1.1.dir/__/__/mesh/core/src/heartbeat.c.obj
                0x000323c4                heartbeat_publication_set
 .text.heartbeat_public_info_getter_register
                0x000323dc       0x14 examples/experimental_lpn/CMakeFiles/lpn_nrf52840_xxAA_s140_6.1.1.dir/__/__/mesh/core/src/heartbeat.c.obj
                0x000323dc                heartbeat_public_info_getter_register
 .text.beacon_deleter
                0x000323f0       0x28 examples/experimental_lpn/CMakeFiles/lpn_nrf52840_xxAA_s140_6.1.1.dir/__/__/mesh/core/src/net_beacon.c.obj
 .text.beacon_getter
                0x00032418       0x24 examples/experimental_lpn/CMakeFiles/lpn_nrf52840_xxAA_s140_6.1.1.dir/__/__/mesh/core/src/net_beacon.c.obj
 .text.beacon_setter
                0x0003243c       0x5c examples/experimental_lpn/CMakeFiles/lpn_nrf52840_xxAA_s140_6.1.1.dir/__/__/mesh/core/src/net_beacon.c.obj
 .text.make_network_beacon_packet
                0x00032498       0x50 examples/experimental_lpn/CMakeFiles/lpn_nrf52840_xxAA_s140_6.1.1.dir/__/__/mesh/core/src/net_beacon.c.obj
 .text.beacon_tx
                0x000324e8      0x188 examples/experimental_lpn/CMakeFiles/lpn_nrf52840_xxAA_s140_6.1.1.dir/__/__/mesh/core/src/net_beacon.c.obj
 .text.tx_complete_cb
                0x00032670        0xe examples/experimental_lpn/CMakeFiles/lpn_nrf52840_xxAA_s140_6.1.1.dir/__/__/mesh/core/src/net_beacon.c.obj
 .text.beacon_tx_timeout
                0x0003267e        0x4 examples/experimental_lpn/CMakeFiles/lpn_nrf52840_xxAA_s140_6.1.1.dir/__/__/mesh/core/src/net_beacon.c.obj
 .text.is_valid_beacon_pkt.part.1
                0x00032682       0x30 examples/experimental_lpn/CMakeFiles/lpn_nrf52840_xxAA_s140_6.1.1.dir/__/__/mesh/core/src/net_beacon.c.obj
 *fill*         0x000326b2        0x2 
 .text.net_beacon_init
                0x000326b4       0x7c examples/experimental_lpn/CMakeFiles/lpn_nrf52840_xxAA_s140_6.1.1.dir/__/__/mesh/core/src/net_beacon.c.obj
                0x000326b4                net_beacon_init
 .text.net_beacon_state_set
                0x00032730       0x20 examples/experimental_lpn/CMakeFiles/lpn_nrf52840_xxAA_s140_6.1.1.dir/__/__/mesh/core/src/net_beacon.c.obj
                0x00032730                net_beacon_state_set
 .text.net_beacon_state_get
                0x00032750       0x24 examples/experimental_lpn/CMakeFiles/lpn_nrf52840_xxAA_s140_6.1.1.dir/__/__/mesh/core/src/net_beacon.c.obj
                0x00032750                net_beacon_state_get
 .text.net_beacon_build
                0x00032774       0x24 examples/experimental_lpn/CMakeFiles/lpn_nrf52840_xxAA_s140_6.1.1.dir/__/__/mesh/core/src/net_beacon.c.obj
                0x00032774                net_beacon_build
 .text.net_beacon_packet_in
                0x00032798      0x16c examples/experimental_lpn/CMakeFiles/lpn_nrf52840_xxAA_s140_6.1.1.dir/__/__/mesh/core/src/net_beacon.c.obj
                0x00032798                net_beacon_packet_in
 .text.listeners_notify
                0x00032904       0x4c examples/experimental_lpn/CMakeFiles/lpn_nrf52840_xxAA_s140_6.1.1.dir/__/__/mesh/core/src/mesh_config.c.obj
 .text.entry_flags_get.isra.0
                0x00032950       0x1c examples/experimental_lpn/CMakeFiles/lpn_nrf52840_xxAA_s140_6.1.1.dir/__/__/mesh/core/src/mesh_config.c.obj
 .text.entry_params_find
                0x0003296c       0x38 examples/experimental_lpn/CMakeFiles/lpn_nrf52840_xxAA_s140_6.1.1.dir/__/__/mesh/core/src/mesh_config.c.obj
 .text.restore_callback
                0x000329a4       0x66 examples/experimental_lpn/CMakeFiles/lpn_nrf52840_xxAA_s140_6.1.1.dir/__/__/mesh/core/src/mesh_config.c.obj
 *fill*         0x00032a0a        0x2 
 .text.dirty_entries_process
                0x00032a0c       0xdc examples/experimental_lpn/CMakeFiles/lpn_nrf52840_xxAA_s140_6.1.1.dir/__/__/mesh/core/src/mesh_config.c.obj
 .text.mesh_config_init
                0x00032ae8       0xa0 examples/experimental_lpn/CMakeFiles/lpn_nrf52840_xxAA_s140_6.1.1.dir/__/__/mesh/core/src/mesh_config.c.obj
                0x00032ae8                mesh_config_init
 .text.mesh_config_load
                0x00032b88        0xc examples/experimental_lpn/CMakeFiles/lpn_nrf52840_xxAA_s140_6.1.1.dir/__/__/mesh/core/src/mesh_config.c.obj
                0x00032b88                mesh_config_load
 .text.mesh_config_is_busy
                0x00032b94       0x34 examples/experimental_lpn/CMakeFiles/lpn_nrf52840_xxAA_s140_6.1.1.dir/__/__/mesh/core/src/mesh_config.c.obj
                0x00032b94                mesh_config_is_busy
 .text.backend_evt_handler
                0x00032bc8       0x88 examples/experimental_lpn/CMakeFiles/lpn_nrf52840_xxAA_s140_6.1.1.dir/__/__/mesh/core/src/mesh_config.c.obj
 .text.mesh_config_entry_set
                0x00032c50       0x80 examples/experimental_lpn/CMakeFiles/lpn_nrf52840_xxAA_s140_6.1.1.dir/__/__/mesh/core/src/mesh_config.c.obj
                0x00032c50                mesh_config_entry_set
 .text.mesh_config_entry_get
                0x00032cd0       0x3c examples/experimental_lpn/CMakeFiles/lpn_nrf52840_xxAA_s140_6.1.1.dir/__/__/mesh/core/src/mesh_config.c.obj
                0x00032cd0                mesh_config_entry_get
 .text.mesh_config_entry_delete
                0x00032d0c       0x4a examples/experimental_lpn/CMakeFiles/lpn_nrf52840_xxAA_s140_6.1.1.dir/__/__/mesh/core/src/mesh_config.c.obj
                0x00032d0c                mesh_config_entry_delete
 *fill*         0x00032d56        0x2 
 .text.mesh_config_clear
                0x00032d58       0x4c examples/experimental_lpn/CMakeFiles/lpn_nrf52840_xxAA_s140_6.1.1.dir/__/__/mesh/core/src/mesh_config.c.obj
                0x00032d58                mesh_config_clear
 .text.fsm_event_post_try
                0x00032da4       0xaa examples/experimental_lpn/CMakeFiles/lpn_nrf52840_xxAA_s140_6.1.1.dir/__/__/mesh/core/src/fsm.c.obj
 .text.fsm_init
                0x00032e4e       0x66 examples/experimental_lpn/CMakeFiles/lpn_nrf52840_xxAA_s140_6.1.1.dir/__/__/mesh/core/src/fsm.c.obj
                0x00032e4e                fsm_init
 .text.fsm_event_post
                0x00032eb4       0x40 examples/experimental_lpn/CMakeFiles/lpn_nrf52840_xxAA_s140_6.1.1.dir/__/__/mesh/core/src/fsm.c.obj
                0x00032eb4                fsm_event_post
 .text.fsm_is_processing
                0x00032ef4        0xa examples/experimental_lpn/CMakeFiles/lpn_nrf52840_xxAA_s140_6.1.1.dir/__/__/mesh/core/src/fsm.c.obj
                0x00032ef4                fsm_is_processing
 .text.dummy_event
                0x00032efe        0x2 examples/experimental_lpn/CMakeFiles/lpn_nrf52840_xxAA_s140_6.1.1.dir/__/__/mesh/core/src/mesh_config_backend.c.obj
 .text.file_get
                0x00032f00       0x34 examples/experimental_lpn/CMakeFiles/lpn_nrf52840_xxAA_s140_6.1.1.dir/__/__/mesh/core/src/mesh_config_backend.c.obj
 .text.mesh_config_backend_init
                0x00032f34      0x11c examples/experimental_lpn/CMakeFiles/lpn_nrf52840_xxAA_s140_6.1.1.dir/__/__/mesh/core/src/mesh_config_backend.c.obj
                0x00032f34                mesh_config_backend_init
 .text.mesh_config_backend_store
                0x00033050       0x4e examples/experimental_lpn/CMakeFiles/lpn_nrf52840_xxAA_s140_6.1.1.dir/__/__/mesh/core/src/mesh_config_backend.c.obj
                0x00033050                mesh_config_backend_store
 .text.mesh_config_backend_erase
                0x0003309e       0x34 examples/experimental_lpn/CMakeFiles/lpn_nrf52840_xxAA_s140_6.1.1.dir/__/__/mesh/core/src/mesh_config_backend.c.obj
                0x0003309e                mesh_config_backend_erase
 *fill*         0x000330d2        0x2 
 .text.mesh_config_backend_read_all
                0x000330d4       0x38 examples/experimental_lpn/CMakeFiles/lpn_nrf52840_xxAA_s140_6.1.1.dir/__/__/mesh/core/src/mesh_config_backend.c.obj
                0x000330d4                mesh_config_backend_read_all
 .text.entry_read_cb
                0x0003310c       0x38 examples/experimental_lpn/CMakeFiles/lpn_nrf52840_xxAA_s140_6.1.1.dir/__/__/mesh/core/src/mesh_config_flashman_glue.c.obj
 .text.write_complete_cb
                0x00033144       0x30 examples/experimental_lpn/CMakeFiles/lpn_nrf52840_xxAA_s140_6.1.1.dir/__/__/mesh/core/src/mesh_config_flashman_glue.c.obj
 .text.invalidate_complete_cb
                0x00033174       0x2c examples/experimental_lpn/CMakeFiles/lpn_nrf52840_xxAA_s140_6.1.1.dir/__/__/mesh/core/src/mesh_config_flashman_glue.c.obj
 .text.remove_complete_cb
                0x000331a0        0x2 examples/experimental_lpn/CMakeFiles/lpn_nrf52840_xxAA_s140_6.1.1.dir/__/__/mesh/core/src/mesh_config_flashman_glue.c.obj
 .text.flash_stable_cb
                0x000331a2       0x20 examples/experimental_lpn/CMakeFiles/lpn_nrf52840_xxAA_s140_6.1.1.dir/__/__/mesh/core/src/mesh_config_flashman_glue.c.obj
 *fill*         0x000331c2        0x2 
 .text.mesh_config_backend_glue_init
                0x000331c4       0x28 examples/experimental_lpn/CMakeFiles/lpn_nrf52840_xxAA_s140_6.1.1.dir/__/__/mesh/core/src/mesh_config_flashman_glue.c.obj
                0x000331c4                mesh_config_backend_glue_init
 .text.mesh_config_backend_file_create
                0x000331ec       0x58 examples/experimental_lpn/CMakeFiles/lpn_nrf52840_xxAA_s140_6.1.1.dir/__/__/mesh/core/src/mesh_config_flashman_glue.c.obj
                0x000331ec                mesh_config_backend_file_create
 .text.mesh_config_backend_record_write
                0x00033244       0x2c examples/experimental_lpn/CMakeFiles/lpn_nrf52840_xxAA_s140_6.1.1.dir/__/__/mesh/core/src/mesh_config_flashman_glue.c.obj
                0x00033244                mesh_config_backend_record_write
 .text.mesh_config_backend_record_erase
                0x00033270       0x30 examples/experimental_lpn/CMakeFiles/lpn_nrf52840_xxAA_s140_6.1.1.dir/__/__/mesh/core/src/mesh_config_flashman_glue.c.obj
                0x00033270                mesh_config_backend_record_erase
 .text.mesh_config_backend_records_read
                0x000332a0       0x30 examples/experimental_lpn/CMakeFiles/lpn_nrf52840_xxAA_s140_6.1.1.dir/__/__/mesh/core/src/mesh_config_flashman_glue.c.obj
                0x000332a0                mesh_config_backend_records_read
 .text.mesh_config_record_size_calculate
                0x000332d0        0xa examples/experimental_lpn/CMakeFiles/lpn_nrf52840_xxAA_s140_6.1.1.dir/__/__/mesh/core/src/mesh_config_flashman_glue.c.obj
                0x000332d0                mesh_config_record_size_calculate
 .text.mesh_config_backend_file_power_down_time_get
                0x000332da       0x24 examples/experimental_lpn/CMakeFiles/lpn_nrf52840_xxAA_s140_6.1.1.dir/__/__/mesh/core/src/mesh_config_flashman_glue.c.obj
                0x000332da                mesh_config_backend_file_power_down_time_get
 *fill*         0x000332fe        0x2 
 .text.lpn_fsm_action
                0x00033300       0x10 examples/experimental_lpn/CMakeFiles/lpn_nrf52840_xxAA_s140_6.1.1.dir/__/__/mesh/core/src/lpn.c.obj
 .text.lpn_fsm_guard
                0x00033310       0x10 examples/experimental_lpn/CMakeFiles/lpn_nrf52840_xxAA_s140_6.1.1.dir/__/__/mesh/core/src/lpn.c.obj
 .text.g_is_last_frndreq
                0x00033320       0x1c examples/experimental_lpn/CMakeFiles/lpn_nrf52840_xxAA_s140_6.1.1.dir/__/__/mesh/core/src/lpn.c.obj
 .text.g_is_last_attempt
                0x0003333c       0x1c examples/experimental_lpn/CMakeFiles/lpn_nrf52840_xxAA_s140_6.1.1.dir/__/__/mesh/core/src/lpn.c.obj
 .text.g_is_not_established
                0x00033358       0x10 examples/experimental_lpn/CMakeFiles/lpn_nrf52840_xxAA_s140_6.1.1.dir/__/__/mesh/core/src/lpn.c.obj
 .text.g_is_no_more_data
                0x00033368        0xe examples/experimental_lpn/CMakeFiles/lpn_nrf52840_xxAA_s140_6.1.1.dir/__/__/mesh/core/src/lpn.c.obj
 *fill*         0x00033376        0x2 
 .text.g_is_subman_data
                0x00033378       0x10 examples/experimental_lpn/CMakeFiles/lpn_nrf52840_xxAA_s140_6.1.1.dir/__/__/mesh/core/src/lpn.c.obj
 .text.g_is_offer_suitable
                0x00033388        0xe examples/experimental_lpn/CMakeFiles/lpn_nrf52840_xxAA_s140_6.1.1.dir/__/__/mesh/core/src/lpn.c.obj
 *fill*         0x00033396        0x2 
 .text.lpn_task_process
                0x00033398       0x1c examples/experimental_lpn/CMakeFiles/lpn_nrf52840_xxAA_s140_6.1.1.dir/__/__/mesh/core/src/lpn.c.obj
 .text.friend_offer_handle
                0x000333b4       0x1c examples/experimental_lpn/CMakeFiles/lpn_nrf52840_xxAA_s140_6.1.1.dir/__/__/mesh/core/src/lpn.c.obj
 .text.lpn_fault_task
                0x000333d0       0x10 examples/experimental_lpn/CMakeFiles/lpn_nrf52840_xxAA_s140_6.1.1.dir/__/__/mesh/core/src/lpn.c.obj
 .text.lpn_establish_task
                0x000333e0       0x10 examples/experimental_lpn/CMakeFiles/lpn_nrf52840_xxAA_s140_6.1.1.dir/__/__/mesh/core/src/lpn.c.obj
 .text.lpn_offer_accept_task
                0x000333f0       0x10 examples/experimental_lpn/CMakeFiles/lpn_nrf52840_xxAA_s140_6.1.1.dir/__/__/mesh/core/src/lpn.c.obj
 .text.lpn_poll_task
                0x00033400       0x2c examples/experimental_lpn/CMakeFiles/lpn_nrf52840_xxAA_s140_6.1.1.dir/__/__/mesh/core/src/lpn.c.obj
 .text.friend_update_handle
                0x0003342c       0x58 examples/experimental_lpn/CMakeFiles/lpn_nrf52840_xxAA_s140_6.1.1.dir/__/__/mesh/core/src/lpn.c.obj
 .text.a_offer_received_notify
                0x00033484       0x54 examples/experimental_lpn/CMakeFiles/lpn_nrf52840_xxAA_s140_6.1.1.dir/__/__/mesh/core/src/lpn.c.obj
 .text.a_friend_search_finished_notify
                0x000334d8       0x16 examples/experimental_lpn/CMakeFiles/lpn_nrf52840_xxAA_s140_6.1.1.dir/__/__/mesh/core/src/lpn.c.obj
 *fill*         0x000334ee        0x2 
 .text.termination_evt_prepare
                0x000334f0       0x34 examples/experimental_lpn/CMakeFiles/lpn_nrf52840_xxAA_s140_6.1.1.dir/__/__/mesh/core/src/lpn.c.obj
 .text.a_fault_notify
                0x00033524       0x18 examples/experimental_lpn/CMakeFiles/lpn_nrf52840_xxAA_s140_6.1.1.dir/__/__/mesh/core/src/lpn.c.obj
 .text.a_polling_terminated_notify
                0x0003353c       0x2c examples/experimental_lpn/CMakeFiles/lpn_nrf52840_xxAA_s140_6.1.1.dir/__/__/mesh/core/src/lpn.c.obj
 .text.a_poll_schedule
                0x00033568       0x30 examples/experimental_lpn/CMakeFiles/lpn_nrf52840_xxAA_s140_6.1.1.dir/__/__/mesh/core/src/lpn.c.obj
 .text.timeout_handle
                0x00033598       0x18 examples/experimental_lpn/CMakeFiles/lpn_nrf52840_xxAA_s140_6.1.1.dir/__/__/mesh/core/src/lpn.c.obj
 .text.lpn_fault_task_post
                0x000335b0       0x14 examples/experimental_lpn/CMakeFiles/lpn_nrf52840_xxAA_s140_6.1.1.dir/__/__/mesh/core/src/lpn.c.obj
 .text.a_friend_clear_send
                0x000335c4       0x8c examples/experimental_lpn/CMakeFiles/lpn_nrf52840_xxAA_s140_6.1.1.dir/__/__/mesh/core/src/lpn.c.obj
 .text.transmit_and_reschedule
                0x00033650       0xc0 examples/experimental_lpn/CMakeFiles/lpn_nrf52840_xxAA_s140_6.1.1.dir/__/__/mesh/core/src/lpn.c.obj
 .text.a_subman_data_send
                0x00033710       0x60 examples/experimental_lpn/CMakeFiles/lpn_nrf52840_xxAA_s140_6.1.1.dir/__/__/mesh/core/src/lpn.c.obj
 .text.receive_delay_handle
                0x00033770       0x28 examples/experimental_lpn/CMakeFiles/lpn_nrf52840_xxAA_s140_6.1.1.dir/__/__/mesh/core/src/lpn.c.obj
 .text.lpn_terminate_task
                0x00033798       0x30 examples/experimental_lpn/CMakeFiles/lpn_nrf52840_xxAA_s140_6.1.1.dir/__/__/mesh/core/src/lpn.c.obj
 .text.a_friend_request_send
                0x000337c8       0xe4 examples/experimental_lpn/CMakeFiles/lpn_nrf52840_xxAA_s140_6.1.1.dir/__/__/mesh/core/src/lpn.c.obj
 .text.a_friend_poll_send
                0x000338ac       0x78 examples/experimental_lpn/CMakeFiles/lpn_nrf52840_xxAA_s140_6.1.1.dir/__/__/mesh/core/src/lpn.c.obj
 .text.mesh_lpn_init
                0x00033924       0x44 examples/experimental_lpn/CMakeFiles/lpn_nrf52840_xxAA_s140_6.1.1.dir/__/__/mesh/core/src/lpn.c.obj
                0x00033924                mesh_lpn_init
 .text.mesh_lpn_friend_request
                0x00033968       0xa4 examples/experimental_lpn/CMakeFiles/lpn_nrf52840_xxAA_s140_6.1.1.dir/__/__/mesh/core/src/lpn.c.obj
                0x00033968                mesh_lpn_friend_request
 .text.mesh_lpn_friend_accept
                0x00033a0c       0x90 examples/experimental_lpn/CMakeFiles/lpn_nrf52840_xxAA_s140_6.1.1.dir/__/__/mesh/core/src/lpn.c.obj
                0x00033a0c                mesh_lpn_friend_accept
 .text.mesh_lpn_friend_poll
                0x00033a9c       0x30 examples/experimental_lpn/CMakeFiles/lpn_nrf52840_xxAA_s140_6.1.1.dir/__/__/mesh/core/src/lpn.c.obj
                0x00033a9c                mesh_lpn_friend_poll
 .text.a_polling_finished_notify
                0x00033acc       0x2c examples/experimental_lpn/CMakeFiles/lpn_nrf52840_xxAA_s140_6.1.1.dir/__/__/mesh/core/src/lpn.c.obj
 .text.a_friendship_established_notify
                0x00033af8       0x40 examples/experimental_lpn/CMakeFiles/lpn_nrf52840_xxAA_s140_6.1.1.dir/__/__/mesh/core/src/lpn.c.obj
 .text.mesh_lpn_friendship_terminate
                0x00033b38       0x24 examples/experimental_lpn/CMakeFiles/lpn_nrf52840_xxAA_s140_6.1.1.dir/__/__/mesh/core/src/lpn.c.obj
                0x00033b38                mesh_lpn_friendship_terminate
 .text.mesh_lpn_is_in_friendship
                0x00033b5c        0xc examples/experimental_lpn/CMakeFiles/lpn_nrf52840_xxAA_s140_6.1.1.dir/__/__/mesh/core/src/lpn.c.obj
                0x00033b5c                mesh_lpn_is_in_friendship
 .text.mesh_lpn_rx_notify
                0x00033b68       0x64 examples/experimental_lpn/CMakeFiles/lpn_nrf52840_xxAA_s140_6.1.1.dir/__/__/mesh/core/src/lpn.c.obj
                0x00033b68                mesh_lpn_rx_notify
 .text.mesh_lpn_subman_data_push
                0x00033bcc       0x34 examples/experimental_lpn/CMakeFiles/lpn_nrf52840_xxAA_s140_6.1.1.dir/__/__/mesh/core/src/lpn.c.obj
                0x00033bcc                mesh_lpn_subman_data_push
 .text.mesh_lpn_subman_data_clear
                0x00033c00        0xc examples/experimental_lpn/CMakeFiles/lpn_nrf52840_xxAA_s140_6.1.1.dir/__/__/mesh/core/src/lpn.c.obj
                0x00033c00                mesh_lpn_subman_data_clear
 .text.packet_discard
                0x00033c0c       0x1c examples/experimental_lpn/CMakeFiles/lpn_nrf52840_xxAA_s140_6.1.1.dir/__/__/mesh/core/src/core_tx_lpn.c.obj
 .text.tx_complete_process
                0x00033c28       0x30 examples/experimental_lpn/CMakeFiles/lpn_nrf52840_xxAA_s140_6.1.1.dir/__/__/mesh/core/src/core_tx_lpn.c.obj
 .text.packet_alloc
                0x00033c58       0x28 examples/experimental_lpn/CMakeFiles/lpn_nrf52840_xxAA_s140_6.1.1.dir/__/__/mesh/core/src/core_tx_lpn.c.obj
 .text.packet_send
                0x00033c80       0x64 examples/experimental_lpn/CMakeFiles/lpn_nrf52840_xxAA_s140_6.1.1.dir/__/__/mesh/core/src/core_tx_lpn.c.obj
 .text.tx_complete_cb
                0x00033ce4       0x20 examples/experimental_lpn/CMakeFiles/lpn_nrf52840_xxAA_s140_6.1.1.dir/__/__/mesh/core/src/core_tx_lpn.c.obj
 .text.core_tx_lpn_init
                0x00033d04       0x98 examples/experimental_lpn/CMakeFiles/lpn_nrf52840_xxAA_s140_6.1.1.dir/__/__/mesh/core/src/core_tx_lpn.c.obj
                0x00033d04                core_tx_lpn_init
 .text.subman_next_pdu_create
                0x00033d9c       0x98 examples/experimental_lpn/CMakeFiles/lpn_nrf52840_xxAA_s140_6.1.1.dir/__/__/mesh/core/src/mesh_lpn_subman.c.obj
 .text.pdu_send_if_not_sending_but_established
                0x00033e34       0x34 examples/experimental_lpn/CMakeFiles/lpn_nrf52840_xxAA_s140_6.1.1.dir/__/__/mesh/core/src/mesh_lpn_subman.c.obj
 .text.subman_lpn_event_handler
                0x00033e68       0x7c examples/experimental_lpn/CMakeFiles/lpn_nrf52840_xxAA_s140_6.1.1.dir/__/__/mesh/core/src/mesh_lpn_subman.c.obj
 .text.subman_friend_subscription_confirm_handle
                0x00033ee4       0xf0 examples/experimental_lpn/CMakeFiles/lpn_nrf52840_xxAA_s140_6.1.1.dir/__/__/mesh/core/src/mesh_lpn_subman.c.obj
 .text.mesh_lpn_subman_add
                0x00033fd4       0x74 examples/experimental_lpn/CMakeFiles/lpn_nrf52840_xxAA_s140_6.1.1.dir/__/__/mesh/core/src/mesh_lpn_subman.c.obj
                0x00033fd4                mesh_lpn_subman_add
 .text.mesh_lpn_subman_remove
                0x00034048       0x4c examples/experimental_lpn/CMakeFiles/lpn_nrf52840_xxAA_s140_6.1.1.dir/__/__/mesh/core/src/mesh_lpn_subman.c.obj
                0x00034048                mesh_lpn_subman_remove
 .text.mesh_lpn_subman_init
                0x00034094       0x48 examples/experimental_lpn/CMakeFiles/lpn_nrf52840_xxAA_s140_6.1.1.dir/__/__/mesh/core/src/mesh_lpn_subman.c.obj
                0x00034094                mesh_lpn_subman_init
 .text.packet_discard
                0x000340dc       0x30 examples/experimental_lpn/CMakeFiles/lpn_nrf52840_xxAA_s140_6.1.1.dir/__/__/mesh/core/src/core_tx_local.c.obj
 .text.packet_send
                0x0003410c       0x58 examples/experimental_lpn/CMakeFiles/lpn_nrf52840_xxAA_s140_6.1.1.dir/__/__/mesh/core/src/core_tx_local.c.obj
 .text.loopback_process
                0x00034164       0x64 examples/experimental_lpn/CMakeFiles/lpn_nrf52840_xxAA_s140_6.1.1.dir/__/__/mesh/core/src/core_tx_local.c.obj
 .text.packet_alloc
                0x000341c8       0x48 examples/experimental_lpn/CMakeFiles/lpn_nrf52840_xxAA_s140_6.1.1.dir/__/__/mesh/core/src/core_tx_local.c.obj
 .text.core_tx_local_init
                0x00034210       0x34 examples/experimental_lpn/CMakeFiles/lpn_nrf52840_xxAA_s140_6.1.1.dir/__/__/mesh/core/src/core_tx_local.c.obj
                0x00034210                core_tx_local_init
 .text.core_tx_adv_get
                0x00034244       0x3c examples/experimental_lpn/CMakeFiles/lpn_nrf52840_xxAA_s140_6.1.1.dir/__/__/mesh/core/src/core_tx_adv.c.obj
 .text.core_tx_tx_power_get
                0x00034280       0x30 examples/experimental_lpn/CMakeFiles/lpn_nrf52840_xxAA_s140_6.1.1.dir/__/__/mesh/core/src/core_tx_adv.c.obj
 .text.core_tx_adv_delete
                0x000342b0       0x50 examples/experimental_lpn/CMakeFiles/lpn_nrf52840_xxAA_s140_6.1.1.dir/__/__/mesh/core/src/core_tx_adv.c.obj
 .text.core_tx_adv_set
                0x00034300       0x6c examples/experimental_lpn/CMakeFiles/lpn_nrf52840_xxAA_s140_6.1.1.dir/__/__/mesh/core/src/core_tx_adv.c.obj
 .text.core_tx_tx_power_delete
                0x0003436c       0x30 examples/experimental_lpn/CMakeFiles/lpn_nrf52840_xxAA_s140_6.1.1.dir/__/__/mesh/core/src/core_tx_adv.c.obj
 .text.core_tx_tx_power_set
                0x0003439c       0x34 examples/experimental_lpn/CMakeFiles/lpn_nrf52840_xxAA_s140_6.1.1.dir/__/__/mesh/core/src/core_tx_adv.c.obj
 .text.core_tx_adv_addr_delete
                0x000343d0       0x34 examples/experimental_lpn/CMakeFiles/lpn_nrf52840_xxAA_s140_6.1.1.dir/__/__/mesh/core/src/core_tx_adv.c.obj
 .text.core_tx_adv_addr_set
                0x00034404       0x40 examples/experimental_lpn/CMakeFiles/lpn_nrf52840_xxAA_s140_6.1.1.dir/__/__/mesh/core/src/core_tx_adv.c.obj
 .text.core_tx_adv_addr_get
                0x00034444       0x34 examples/experimental_lpn/CMakeFiles/lpn_nrf52840_xxAA_s140_6.1.1.dir/__/__/mesh/core/src/core_tx_adv.c.obj
 .text.packet_discard
                0x00034478       0x40 examples/experimental_lpn/CMakeFiles/lpn_nrf52840_xxAA_s140_6.1.1.dir/__/__/mesh/core/src/core_tx_adv.c.obj
 .text.packet_send
                0x000344b8       0x58 examples/experimental_lpn/CMakeFiles/lpn_nrf52840_xxAA_s140_6.1.1.dir/__/__/mesh/core/src/core_tx_adv.c.obj
 .text.packet_alloc
                0x00034510       0x58 examples/experimental_lpn/CMakeFiles/lpn_nrf52840_xxAA_s140_6.1.1.dir/__/__/mesh/core/src/core_tx_adv.c.obj
 .text.adv_tx_complete_callback
                0x00034568       0x20 examples/experimental_lpn/CMakeFiles/lpn_nrf52840_xxAA_s140_6.1.1.dir/__/__/mesh/core/src/core_tx_adv.c.obj
 .text.mesh_opt_core_adv_set
                0x00034588       0x22 examples/experimental_lpn/CMakeFiles/lpn_nrf52840_xxAA_s140_6.1.1.dir/__/__/mesh/core/src/core_tx_adv.c.obj
                0x00034588                mesh_opt_core_adv_set
 .text.mesh_opt_core_adv_get
                0x000345aa       0x22 examples/experimental_lpn/CMakeFiles/lpn_nrf52840_xxAA_s140_6.1.1.dir/__/__/mesh/core/src/core_tx_adv.c.obj
                0x000345aa                mesh_opt_core_adv_get
 .text.core_tx_adv_init
                0x000345cc       0x60 examples/experimental_lpn/CMakeFiles/lpn_nrf52840_xxAA_s140_6.1.1.dir/__/__/mesh/core/src/core_tx_adv.c.obj
                0x000345cc                core_tx_adv_init
 .text.core_tx_adv_is_enabled
                0x0003462c       0x20 examples/experimental_lpn/CMakeFiles/lpn_nrf52840_xxAA_s140_6.1.1.dir/__/__/mesh/core/src/core_tx_adv.c.obj
                0x0003462c                core_tx_adv_is_enabled
 .text.mesh_mem_init
                0x0003464c        0x2 examples/experimental_lpn/CMakeFiles/lpn_nrf52840_xxAA_s140_6.1.1.dir/__/__/mesh/core/src/mesh_mem_stdlib.c.obj
                0x0003464c                mesh_mem_init
 .text.mesh_mem_alloc
                0x0003464e        0x4 examples/experimental_lpn/CMakeFiles/lpn_nrf52840_xxAA_s140_6.1.1.dir/__/__/mesh/core/src/mesh_mem_stdlib.c.obj
                0x0003464e                mesh_mem_alloc
 .text.mesh_mem_free
                0x00034652        0x4 examples/experimental_lpn/CMakeFiles/lpn_nrf52840_xxAA_s140_6.1.1.dir/__/__/mesh/core/src/mesh_mem_stdlib.c.obj
                0x00034652                mesh_mem_free
 *fill*         0x00034656        0x2 
 .text.ad_listener_subscribe
                0x00034658       0x5c examples/experimental_lpn/CMakeFiles/lpn_nrf52840_xxAA_s140_6.1.1.dir/__/__/mesh/bearer/src/ad_listener.c.obj
                0x00034658                ad_listener_subscribe
 .text.ad_listener_process
                0x000346b4       0x68 examples/experimental_lpn/CMakeFiles/lpn_nrf52840_xxAA_s140_6.1.1.dir/__/__/mesh/bearer/src/ad_listener.c.obj
                0x000346b4                ad_listener_process
 .text.adtype_filter_handle
                0x0003471c       0x64 examples/experimental_lpn/CMakeFiles/lpn_nrf52840_xxAA_s140_6.1.1.dir/__/__/mesh/bearer/src/ad_type_filter.c.obj
 .text.bearer_adtype_filtering_set
                0x00034780       0x20 examples/experimental_lpn/CMakeFiles/lpn_nrf52840_xxAA_s140_6.1.1.dir/__/__/mesh/bearer/src/ad_type_filter.c.obj
                0x00034780                bearer_adtype_filtering_set
 .text.bearer_adtype_add
                0x000347a0       0x20 examples/experimental_lpn/CMakeFiles/lpn_nrf52840_xxAA_s140_6.1.1.dir/__/__/mesh/bearer/src/ad_type_filter.c.obj
                0x000347a0                bearer_adtype_add
 .text.bearer_adtype_mode_set
                0x000347c0       0x18 examples/experimental_lpn/CMakeFiles/lpn_nrf52840_xxAA_s140_6.1.1.dir/__/__/mesh/bearer/src/ad_type_filter.c.obj
                0x000347c0                bearer_adtype_mode_set
 .text.tx_complete_event_callback
                0x000347d8       0x24 examples/experimental_lpn/CMakeFiles/lpn_nrf52840_xxAA_s140_6.1.1.dir/__/__/mesh/bearer/src/advertiser.c.obj
 .text.set_gap_addr_type
                0x000347fc       0x26 examples/experimental_lpn/CMakeFiles/lpn_nrf52840_xxAA_s140_6.1.1.dir/__/__/mesh/bearer/src/advertiser.c.obj
 .text.broadcast_complete_cb
                0x00034822       0x46 examples/experimental_lpn/CMakeFiles/lpn_nrf52840_xxAA_s140_6.1.1.dir/__/__/mesh/bearer/src/advertiser.c.obj
 .text.schedule_first_time
                0x00034868       0x28 examples/experimental_lpn/CMakeFiles/lpn_nrf52840_xxAA_s140_6.1.1.dir/__/__/mesh/bearer/src/advertiser.c.obj
 .text.timeout_event
                0x00034890      0x114 examples/experimental_lpn/CMakeFiles/lpn_nrf52840_xxAA_s140_6.1.1.dir/__/__/mesh/bearer/src/advertiser.c.obj
 .text.advertiser_init
                0x000349a4        0xc examples/experimental_lpn/CMakeFiles/lpn_nrf52840_xxAA_s140_6.1.1.dir/__/__/mesh/bearer/src/advertiser.c.obj
                0x000349a4                advertiser_init
 .text.advertiser_enable
                0x000349b0       0x2a examples/experimental_lpn/CMakeFiles/lpn_nrf52840_xxAA_s140_6.1.1.dir/__/__/mesh/bearer/src/advertiser.c.obj
                0x000349b0                advertiser_enable
 .text.advertiser_disable
                0x000349da        0xa examples/experimental_lpn/CMakeFiles/lpn_nrf52840_xxAA_s140_6.1.1.dir/__/__/mesh/bearer/src/advertiser.c.obj
                0x000349da                advertiser_disable
 .text.advertiser_packet_alloc
                0x000349e4       0x76 examples/experimental_lpn/CMakeFiles/lpn_nrf52840_xxAA_s140_6.1.1.dir/__/__/mesh/bearer/src/advertiser.c.obj
                0x000349e4                advertiser_packet_alloc
 .text.advertiser_packet_send
                0x00034a5a       0x52 examples/experimental_lpn/CMakeFiles/lpn_nrf52840_xxAA_s140_6.1.1.dir/__/__/mesh/bearer/src/advertiser.c.obj
                0x00034a5a                advertiser_packet_send
 .text.advertiser_packet_discard
                0x00034aac       0x1e examples/experimental_lpn/CMakeFiles/lpn_nrf52840_xxAA_s140_6.1.1.dir/__/__/mesh/bearer/src/advertiser.c.obj
                0x00034aac                advertiser_packet_discard
 .text.advertiser_address_set
                0x00034aca       0x3c examples/experimental_lpn/CMakeFiles/lpn_nrf52840_xxAA_s140_6.1.1.dir/__/__/mesh/bearer/src/advertiser.c.obj
                0x00034aca                advertiser_address_set
 .text.advertiser_interval_set
                0x00034b06       0x40 examples/experimental_lpn/CMakeFiles/lpn_nrf52840_xxAA_s140_6.1.1.dir/__/__/mesh/bearer/src/advertiser.c.obj
                0x00034b06                advertiser_interval_set
 .text.advertiser_tx_power_set
                0x00034b46       0x14 examples/experimental_lpn/CMakeFiles/lpn_nrf52840_xxAA_s140_6.1.1.dir/__/__/mesh/bearer/src/advertiser.c.obj
                0x00034b46                advertiser_tx_power_set
 *fill*         0x00034b5a        0x2 
 .text.advertiser_address_default_get
                0x00034b5c       0x38 examples/experimental_lpn/CMakeFiles/lpn_nrf52840_xxAA_s140_6.1.1.dir/__/__/mesh/bearer/src/advertiser.c.obj
                0x00034b5c                advertiser_address_default_get
 .text.advertiser_instance_init
                0x00034b94       0x98 examples/experimental_lpn/CMakeFiles/lpn_nrf52840_xxAA_s140_6.1.1.dir/__/__/mesh/bearer/src/advertiser.c.obj
                0x00034b94                advertiser_instance_init
 .text.notify_stop
                0x00034c2c       0x14 examples/experimental_lpn/CMakeFiles/lpn_nrf52840_xxAA_s140_6.1.1.dir/__/__/mesh/bearer/src/bearer_handler.c.obj
 .text.action_in_progress
                0x00034c40       0x30 examples/experimental_lpn/CMakeFiles/lpn_nrf52840_xxAA_s140_6.1.1.dir/__/__/mesh/bearer/src/bearer_handler.c.obj
 .text.action_timer_start
                0x00034c70       0x88 examples/experimental_lpn/CMakeFiles/lpn_nrf52840_xxAA_s140_6.1.1.dir/__/__/mesh/bearer/src/bearer_handler.c.obj
 .text.action_switch
                0x00034cf8      0x104 examples/experimental_lpn/CMakeFiles/lpn_nrf52840_xxAA_s140_6.1.1.dir/__/__/mesh/bearer/src/bearer_handler.c.obj
 .text.end_handle
                0x00034dfc       0x44 examples/experimental_lpn/CMakeFiles/lpn_nrf52840_xxAA_s140_6.1.1.dir/__/__/mesh/bearer/src/bearer_handler.c.obj
 .text.TIMER2_IRQHandler
                0x00034e40       0x58 examples/experimental_lpn/CMakeFiles/lpn_nrf52840_xxAA_s140_6.1.1.dir/__/__/mesh/bearer/src/bearer_handler.c.obj
                0x00034e40                TIMER2_IRQHandler
 .text.bearer_handler_init
                0x00034e98       0x44 examples/experimental_lpn/CMakeFiles/lpn_nrf52840_xxAA_s140_6.1.1.dir/__/__/mesh/bearer/src/bearer_handler.c.obj
                0x00034e98                bearer_handler_init
 .text.bearer_handler_stop
                0x00034edc       0x48 examples/experimental_lpn/CMakeFiles/lpn_nrf52840_xxAA_s140_6.1.1.dir/__/__/mesh/bearer/src/bearer_handler.c.obj
                0x00034edc                bearer_handler_stop
 .text.bearer_handler_wake_up
                0x00034f24       0x2c examples/experimental_lpn/CMakeFiles/lpn_nrf52840_xxAA_s140_6.1.1.dir/__/__/mesh/bearer/src/bearer_handler.c.obj
                0x00034f24                bearer_handler_wake_up
 .text.bearer_handler_start
                0x00034f50       0x1c examples/experimental_lpn/CMakeFiles/lpn_nrf52840_xxAA_s140_6.1.1.dir/__/__/mesh/bearer/src/bearer_handler.c.obj
                0x00034f50                bearer_handler_start
 .text.bearer_handler_action_enqueue
                0x00034f6c       0x6c examples/experimental_lpn/CMakeFiles/lpn_nrf52840_xxAA_s140_6.1.1.dir/__/__/mesh/bearer/src/bearer_handler.c.obj
                0x00034f6c                bearer_handler_action_enqueue
 .text.bearer_handler_action_end
                0x00034fd8       0x48 examples/experimental_lpn/CMakeFiles/lpn_nrf52840_xxAA_s140_6.1.1.dir/__/__/mesh/bearer/src/bearer_handler.c.obj
                0x00034fd8                bearer_handler_action_end
 .text.bearer_handler_radio_irq_handler
                0x00035020       0x70 examples/experimental_lpn/CMakeFiles/lpn_nrf52840_xxAA_s140_6.1.1.dir/__/__/mesh/bearer/src/bearer_handler.c.obj
                0x00035020                bearer_handler_radio_irq_handler
 .text.bearer_handler_timer_irq_handler
                0x00035090       0x34 examples/experimental_lpn/CMakeFiles/lpn_nrf52840_xxAA_s140_6.1.1.dir/__/__/mesh/bearer/src/bearer_handler.c.obj
                0x00035090                bearer_handler_timer_irq_handler
 .text.bearer_handler_on_ts_begin
                0x000350c4       0x38 examples/experimental_lpn/CMakeFiles/lpn_nrf52840_xxAA_s140_6.1.1.dir/__/__/mesh/bearer/src/bearer_handler.c.obj
                0x000350c4                bearer_handler_on_ts_begin
 .text.bearer_handler_on_ts_end
                0x000350fc       0x70 examples/experimental_lpn/CMakeFiles/lpn_nrf52840_xxAA_s140_6.1.1.dir/__/__/mesh/bearer/src/bearer_handler.c.obj
                0x000350fc                bearer_handler_on_ts_end
 .text.bearer_handler_on_ts_session_closed
                0x0003516c       0x10 examples/experimental_lpn/CMakeFiles/lpn_nrf52840_xxAA_s140_6.1.1.dir/__/__/mesh/bearer/src/bearer_handler.c.obj
                0x0003516c                bearer_handler_on_ts_session_closed
 .text.radio_irq_handler
                0x0003517c       0xa4 examples/experimental_lpn/CMakeFiles/lpn_nrf52840_xxAA_s140_6.1.1.dir/__/__/mesh/bearer/src/broadcast.c.obj
 .text.broadcast_start
                0x00035220       0xb4 examples/experimental_lpn/CMakeFiles/lpn_nrf52840_xxAA_s140_6.1.1.dir/__/__/mesh/bearer/src/broadcast.c.obj
 .text.broadcast_send
                0x000352d4       0x6c examples/experimental_lpn/CMakeFiles/lpn_nrf52840_xxAA_s140_6.1.1.dir/__/__/mesh/bearer/src/broadcast.c.obj
                0x000352d4                broadcast_send
 .text.fen_filter_start
                0x00035340       0x3c examples/experimental_lpn/CMakeFiles/lpn_nrf52840_xxAA_s140_6.1.1.dir/__/__/mesh/bearer/src/filter_engine.c.obj
                0x00035340                fen_filter_start
 .text.fen_filter_stop
                0x0003537c       0x30 examples/experimental_lpn/CMakeFiles/lpn_nrf52840_xxAA_s140_6.1.1.dir/__/__/mesh/bearer/src/filter_engine.c.obj
                0x0003537c                fen_filter_stop
 .text.fen_filters_apply
                0x000353ac       0x44 examples/experimental_lpn/CMakeFiles/lpn_nrf52840_xxAA_s140_6.1.1.dir/__/__/mesh/bearer/src/filter_engine.c.obj
                0x000353ac                fen_filters_apply
 .text.radio_config_reset
                0x000353f0       0x40 examples/experimental_lpn/CMakeFiles/lpn_nrf52840_xxAA_s140_6.1.1.dir/__/__/mesh/bearer/src/radio_config.c.obj
                0x000353f0                radio_config_reset
 .text.radio_config_channel_set
                0x00035430       0x28 examples/experimental_lpn/CMakeFiles/lpn_nrf52840_xxAA_s140_6.1.1.dir/__/__/mesh/bearer/src/radio_config.c.obj
                0x00035430                radio_config_channel_set
 .text.radio_config_config
                0x00035458       0x8c examples/experimental_lpn/CMakeFiles/lpn_nrf52840_xxAA_s140_6.1.1.dir/__/__/mesh/bearer/src/radio_config.c.obj
                0x00035458                radio_config_config
 .text.radio_config_access_addr_set
                0x000354e4       0x50 examples/experimental_lpn/CMakeFiles/lpn_nrf52840_xxAA_s140_6.1.1.dir/__/__/mesh/bearer/src/radio_config.c.obj
                0x000354e4                radio_config_access_addr_set
 .text.radio_trigger
                0x00035534       0x24 examples/experimental_lpn/CMakeFiles/lpn_nrf52840_xxAA_s140_6.1.1.dir/__/__/mesh/bearer/src/scanner.c.obj
 .text.scan_window_end
                0x00035558       0x10 examples/experimental_lpn/CMakeFiles/lpn_nrf52840_xxAA_s140_6.1.1.dir/__/__/mesh/bearer/src/scanner.c.obj
 .text.scan_window_start
                0x00035568       0x24 examples/experimental_lpn/CMakeFiles/lpn_nrf52840_xxAA_s140_6.1.1.dir/__/__/mesh/bearer/src/scanner.c.obj
 .text.radio_configure
                0x0003558c       0x78 examples/experimental_lpn/CMakeFiles/lpn_nrf52840_xxAA_s140_6.1.1.dir/__/__/mesh/bearer/src/scanner.c.obj
 .text.radio_set_packet
                0x00035604       0x4c examples/experimental_lpn/CMakeFiles/lpn_nrf52840_xxAA_s140_6.1.1.dir/__/__/mesh/bearer/src/scanner.c.obj
 .text.radio_start
                0x00035650       0x78 examples/experimental_lpn/CMakeFiles/lpn_nrf52840_xxAA_s140_6.1.1.dir/__/__/mesh/bearer/src/scanner.c.obj
 .text.radio_stop
                0x000356c8       0x38 examples/experimental_lpn/CMakeFiles/lpn_nrf52840_xxAA_s140_6.1.1.dir/__/__/mesh/bearer/src/scanner.c.obj
 .text.schedule_timers
                0x00035700       0x38 examples/experimental_lpn/CMakeFiles/lpn_nrf52840_xxAA_s140_6.1.1.dir/__/__/mesh/bearer/src/scanner.c.obj
 .text.scanner_radio_start
                0x00035738       0x28 examples/experimental_lpn/CMakeFiles/lpn_nrf52840_xxAA_s140_6.1.1.dir/__/__/mesh/bearer/src/scanner.c.obj
                0x00035738                scanner_radio_start
 .text.scanner_radio_stop
                0x00035760       0x10 examples/experimental_lpn/CMakeFiles/lpn_nrf52840_xxAA_s140_6.1.1.dir/__/__/mesh/bearer/src/scanner.c.obj
                0x00035760                scanner_radio_stop
 .text.scanner_radio_irq_handler
                0x00035770      0x144 examples/experimental_lpn/CMakeFiles/lpn_nrf52840_xxAA_s140_6.1.1.dir/__/__/mesh/bearer/src/scanner.c.obj
                0x00035770                scanner_radio_irq_handler
 .text.scanner_timer_irq_handler
                0x000358b4       0x30 examples/experimental_lpn/CMakeFiles/lpn_nrf52840_xxAA_s140_6.1.1.dir/__/__/mesh/bearer/src/scanner.c.obj
                0x000358b4                scanner_timer_irq_handler
 .text.scanner_enable
                0x000358e4       0x2c examples/experimental_lpn/CMakeFiles/lpn_nrf52840_xxAA_s140_6.1.1.dir/__/__/mesh/bearer/src/scanner.c.obj
                0x000358e4                scanner_enable
 .text.scanner_disable
                0x00035910       0x3c examples/experimental_lpn/CMakeFiles/lpn_nrf52840_xxAA_s140_6.1.1.dir/__/__/mesh/bearer/src/scanner.c.obj
                0x00035910                scanner_disable
 .text.scanner_is_enabled
                0x0003594c       0x10 examples/experimental_lpn/CMakeFiles/lpn_nrf52840_xxAA_s140_6.1.1.dir/__/__/mesh/bearer/src/scanner.c.obj
                0x0003594c                scanner_is_enabled
 .text.scanner_packet_release
                0x0003595c       0x2c examples/experimental_lpn/CMakeFiles/lpn_nrf52840_xxAA_s140_6.1.1.dir/__/__/mesh/bearer/src/scanner.c.obj
                0x0003595c                scanner_packet_release
 .text.scanner_rx
                0x00035988       0x34 examples/experimental_lpn/CMakeFiles/lpn_nrf52840_xxAA_s140_6.1.1.dir/__/__/mesh/bearer/src/scanner.c.obj
                0x00035988                scanner_rx
 .text.scanner_rx_pending
                0x000359bc        0xc examples/experimental_lpn/CMakeFiles/lpn_nrf52840_xxAA_s140_6.1.1.dir/__/__/mesh/bearer/src/scanner.c.obj
                0x000359bc                scanner_rx_pending
 .text.scanner_config_scan_time_set
                0x000359c8       0x4c examples/experimental_lpn/CMakeFiles/lpn_nrf52840_xxAA_s140_6.1.1.dir/__/__/mesh/bearer/src/scanner.c.obj
                0x000359c8                scanner_config_scan_time_set
 .text.scanner_config_channels_set
                0x00035a14       0x50 examples/experimental_lpn/CMakeFiles/lpn_nrf52840_xxAA_s140_6.1.1.dir/__/__/mesh/bearer/src/scanner.c.obj
                0x00035a14                scanner_config_channels_set
 .text.scanner_config_access_addresses_set
                0x00035a64       0x38 examples/experimental_lpn/CMakeFiles/lpn_nrf52840_xxAA_s140_6.1.1.dir/__/__/mesh/bearer/src/scanner.c.obj
                0x00035a64                scanner_config_access_addresses_set
 .text.scanner_config_reset
                0x00035a9c       0x50 examples/experimental_lpn/CMakeFiles/lpn_nrf52840_xxAA_s140_6.1.1.dir/__/__/mesh/bearer/src/scanner.c.obj
                0x00035a9c                scanner_config_reset
 .text.scanner_init
                0x00035aec       0x54 examples/experimental_lpn/CMakeFiles/lpn_nrf52840_xxAA_s140_6.1.1.dir/__/__/mesh/bearer/src/scanner.c.obj
                0x00035aec                scanner_init
 .text.pin_clear
                0x00035b40       0x24 examples/experimental_lpn/CMakeFiles/lpn_nrf52840_xxAA_s140_6.1.1.dir/__/__/mesh/bearer/src/mesh_pa_lna.c.obj
 .text.ppi_setup.isra.0
                0x00035b64       0x3c examples/experimental_lpn/CMakeFiles/lpn_nrf52840_xxAA_s140_6.1.1.dir/__/__/mesh/bearer/src/mesh_pa_lna.c.obj
 .text.mesh_pa_setup_start
                0x00035ba0       0x5c examples/experimental_lpn/CMakeFiles/lpn_nrf52840_xxAA_s140_6.1.1.dir/__/__/mesh/bearer/src/mesh_pa_lna.c.obj
                0x00035ba0                mesh_pa_setup_start
 .text.mesh_lna_setup_start
                0x00035bfc       0x5c examples/experimental_lpn/CMakeFiles/lpn_nrf52840_xxAA_s140_6.1.1.dir/__/__/mesh/bearer/src/mesh_pa_lna.c.obj
                0x00035bfc                mesh_lna_setup_start
 .text.mesh_pa_lna_disable_start
                0x00035c58       0x1c examples/experimental_lpn/CMakeFiles/lpn_nrf52840_xxAA_s140_6.1.1.dir/__/__/mesh/bearer/src/mesh_pa_lna.c.obj
                0x00035c58                mesh_pa_lna_disable_start
 .text.mesh_pa_lna_setup_stop
                0x00035c74       0x4c examples/experimental_lpn/CMakeFiles/lpn_nrf52840_xxAA_s140_6.1.1.dir/__/__/mesh/bearer/src/mesh_pa_lna.c.obj
                0x00035c74                mesh_pa_lna_setup_stop
 .text.mesh_pa_lna_cleanup
                0x00035cc0       0x48 examples/experimental_lpn/CMakeFiles/lpn_nrf52840_xxAA_s140_6.1.1.dir/__/__/mesh/bearer/src/mesh_pa_lna.c.obj
                0x00035cc0                mesh_pa_lna_cleanup
 .text.sd_ble_gap_disconnect
                0x00035d08        0x4 examples/experimental_lpn/CMakeFiles/lpn_nrf52840_xxAA_s140_6.1.1.dir/__/__/mesh/gatt/src/mesh_gatt.c.obj
 .text.sd_ble_gap_sec_params_reply
                0x00035d0c        0x4 examples/experimental_lpn/CMakeFiles/lpn_nrf52840_xxAA_s140_6.1.1.dir/__/__/mesh/gatt/src/mesh_gatt.c.obj
 .text.sd_ble_gap_phy_update
                0x00035d10        0x4 examples/experimental_lpn/CMakeFiles/lpn_nrf52840_xxAA_s140_6.1.1.dir/__/__/mesh/gatt/src/mesh_gatt.c.obj
 .text.sd_ble_gap_data_length_update
                0x00035d14        0x4 examples/experimental_lpn/CMakeFiles/lpn_nrf52840_xxAA_s140_6.1.1.dir/__/__/mesh/gatt/src/mesh_gatt.c.obj
 .text.sd_ble_gatts_service_add
                0x00035d18        0x4 examples/experimental_lpn/CMakeFiles/lpn_nrf52840_xxAA_s140_6.1.1.dir/__/__/mesh/gatt/src/mesh_gatt.c.obj
 .text.sd_ble_gatts_characteristic_add
                0x00035d1c        0x4 examples/experimental_lpn/CMakeFiles/lpn_nrf52840_xxAA_s140_6.1.1.dir/__/__/mesh/gatt/src/mesh_gatt.c.obj
 .text.sd_ble_gatts_hvx
                0x00035d20        0x4 examples/experimental_lpn/CMakeFiles/lpn_nrf52840_xxAA_s140_6.1.1.dir/__/__/mesh/gatt/src/mesh_gatt.c.obj
 .text.sd_ble_gatts_sys_attr_set
                0x00035d24        0x4 examples/experimental_lpn/CMakeFiles/lpn_nrf52840_xxAA_s140_6.1.1.dir/__/__/mesh/gatt/src/mesh_gatt.c.obj
 .text.sd_ble_gatts_exchange_mtu_reply
                0x00035d28        0x4 examples/experimental_lpn/CMakeFiles/lpn_nrf52840_xxAA_s140_6.1.1.dir/__/__/mesh/gatt/src/mesh_gatt.c.obj
 .text.timeout_cb
                0x00035d2c       0x1c examples/experimental_lpn/CMakeFiles/lpn_nrf52840_xxAA_s140_6.1.1.dir/__/__/mesh/gatt/src/mesh_gatt.c.obj
 .text.mesh_gatt_init
                0x00035d48      0x14c examples/experimental_lpn/CMakeFiles/lpn_nrf52840_xxAA_s140_6.1.1.dir/__/__/mesh/gatt/src/mesh_gatt.c.obj
                0x00035d48                mesh_gatt_init
 .text.mesh_gatt_packet_alloc
                0x00035e94       0x7c examples/experimental_lpn/CMakeFiles/lpn_nrf52840_xxAA_s140_6.1.1.dir/__/__/mesh/gatt/src/mesh_gatt.c.obj
                0x00035e94                mesh_gatt_packet_alloc
 .text.mesh_gatt_packet_discard
                0x00035f10       0x4c examples/experimental_lpn/CMakeFiles/lpn_nrf52840_xxAA_s140_6.1.1.dir/__/__/mesh/gatt/src/mesh_gatt.c.obj
                0x00035f10                mesh_gatt_packet_discard
 .text.mesh_gatt_packet_is_pending
                0x00035f5c       0x20 examples/experimental_lpn/CMakeFiles/lpn_nrf52840_xxAA_s140_6.1.1.dir/__/__/mesh/gatt/src/mesh_gatt.c.obj
                0x00035f5c                mesh_gatt_packet_is_pending
 .text.mesh_gatt_disconnect
                0x00035f7c       0x30 examples/experimental_lpn/CMakeFiles/lpn_nrf52840_xxAA_s140_6.1.1.dir/__/__/mesh/gatt/src/mesh_gatt.c.obj
                0x00035f7c                mesh_gatt_disconnect
 .text.mesh_gatt_pdu_send
                0x00035fac      0x170 examples/experimental_lpn/CMakeFiles/lpn_nrf52840_xxAA_s140_6.1.1.dir/__/__/mesh/gatt/src/mesh_gatt.c.obj
 .text.mesh_gatt_packet_send
                0x0003611c       0x88 examples/experimental_lpn/CMakeFiles/lpn_nrf52840_xxAA_s140_6.1.1.dir/__/__/mesh/gatt/src/mesh_gatt.c.obj
                0x0003611c                mesh_gatt_packet_send
 .text.mesh_gatt_on_ble_evt
                0x000361a4      0x3b0 examples/experimental_lpn/CMakeFiles/lpn_nrf52840_xxAA_s140_6.1.1.dir/__/__/mesh/gatt/src/mesh_gatt.c.obj
                0x000361a4                mesh_gatt_on_ble_evt
 .text.active_connection_count
                0x00036554        0xc examples/experimental_lpn/CMakeFiles/lpn_nrf52840_xxAA_s140_6.1.1.dir/__/__/mesh/gatt/src/proxy.c.obj
 .text.proxy_get
                0x00036560       0x10 examples/experimental_lpn/CMakeFiles/lpn_nrf52840_xxAA_s140_6.1.1.dir/__/__/mesh/gatt/src/proxy.c.obj
 .text.proxy_delete
                0x00036570       0x10 examples/experimental_lpn/CMakeFiles/lpn_nrf52840_xxAA_s140_6.1.1.dir/__/__/mesh/gatt/src/proxy.c.obj
 .text.packet_discard
                0x00036580       0x30 examples/experimental_lpn/CMakeFiles/lpn_nrf52840_xxAA_s140_6.1.1.dir/__/__/mesh/gatt/src/proxy.c.obj
 .text.core_tx_packet_discard_cb
                0x000365b0       0x18 examples/experimental_lpn/CMakeFiles/lpn_nrf52840_xxAA_s140_6.1.1.dir/__/__/mesh/gatt/src/proxy.c.obj
 .text.packet_send
                0x000365c8       0x3c examples/experimental_lpn/CMakeFiles/lpn_nrf52840_xxAA_s140_6.1.1.dir/__/__/mesh/gatt/src/proxy.c.obj
 .text.core_tx_packet_send_cb
                0x00036604       0x38 examples/experimental_lpn/CMakeFiles/lpn_nrf52840_xxAA_s140_6.1.1.dir/__/__/mesh/gatt/src/proxy.c.obj
 .text.packet_alloc
                0x0003663c       0x44 examples/experimental_lpn/CMakeFiles/lpn_nrf52840_xxAA_s140_6.1.1.dir/__/__/mesh/gatt/src/proxy.c.obj
 .text.core_tx_packet_alloc_cb
                0x00036680       0x40 examples/experimental_lpn/CMakeFiles/lpn_nrf52840_xxAA_s140_6.1.1.dir/__/__/mesh/gatt/src/proxy.c.obj
 .text.adv_data_set
