:020000022000DC
:1060000000FD0320A1FB0300C9FB0300CBFB030041
:10601000CDFB0300CFFB0300D1FB03000000000019
:10602000000000000000000000000000D3FB03009F
:10603000D5FB030000000000D7FB0300D9FB0300E1
:10604000DBFB0300DBFB0300DBFB0300DBFB0300EC
:10605000DBFB0300DBFB030015750200DBFB030029
:10606000DBFB0300DBFB0300414E0300DBFB030013
:10607000DBFB0300DBFB0300DBFB0300DBFB0300BC
:10608000DBFB0300F1E2030075FB0200DBFB030016
:10609000C1E30300DBFB030029B50200DBFB0300C7
:1060A000DBFB0300DBFB0300DBFB0300DBFB03008C
:1060B000DBFB0300DBFB030000000000000000002E
:1060C000DBFB0300DBFB0300DBFB0300DBFB03006C
:1060D000DBFB0300DBFB0300DBFB0300DBFB03005C
:1060E000DBFB0300DBFB0300DBFB03000000000025
:1060F00000000000DBFB030000000000DBFB0300EE
:10610000000000000000000000000000000000008F
:10611000000000000000000000000000000000007F
:10612000000000000000000000000000000000006F
:10613000000000000000000000000000000000005F
:10614000000000000000000000000000000000004F
:10615000000000000000000000000000000000003F
:10616000000000000000000000000000000000002F
:10617000000000000000000000000000000000001F
:10618000000000000000000000000000000000000F
:1061900000000000000000000000000000000000FF
:1061A00000000000000000000000000000000000EF
:1061B00000000000000000000000000000000000DF
:1061C00000000000000000000000000000000000CF
:1061D00000000000000000000000000000000000BF
:1061E00000000000000000000000000000000000AF
:1061F000000000000000000000000000000000009F
:1062000010B5054C237833B9044B13B10448AFF3F0
:1062100000800123237010BD602F002000000000CB
:106220002C2B040008B5034B1BB103490348AFF303
:10623000008008BD00000000642F00202C2B04000B
:10624000154B002B08BF134B9D46A3F5803A002148
:106250008B460F461348144A121A1BF0A5F80F4B31
:10626000002B00D098470E4B002B00D09847002001
:10627000002104000D000D48002802D00C48AFF3A7
:1062800000801BF043F82000290000F04DFD1BF0BA
:1062900029F800BF0000080000FD032000000000F6
:1062A00000000000602F0020345A00200000000091
:1062B000000000003FDF704741DF704730B52D4BD5
:1062C00014461B68526887B00D4603F4804352B3EE
:1062D000F3B1294B1B68032B1ADD2F2127481BF034
:1062E00033F9B8B12F2125481BF02EF9411C244B5E
:1062F0006268D3F80435049262780392227802929D
:106300006A8801921F4A00920420B1220AF04CFCD4
:1063100007B030BD5C2119481BF016F908B15C21AB
:10632000E1E71649E3E7002BF2D0134B1B68032B80
:10633000EEDD2F2111481BF007F990B12F210F48F6
:106340001BF002F9411C0E4B2278D3F8043502925F
:106350006A8801920C4A00920420B6220AF024FCBA
:10636000D6E75C2105481BF0EFF808B15C21E6E7B1
:106370000249E8E7482E0020442E0020FF150400C3
:1063800000100140271604007916040010B54F4A8A
:106390004F4C137886B0591C11708DF80D30322196
:1063A0006423CDE9043123688DF80C0058041AD514
:1063B000484B1B68032B16DD2F2147481BF0C4F800
:1063C00000283DD02F2144481BF0BEF8411C434B10
:1063D0009DF80C20D3F804350192414A0092042024
:1063E000E1220AF0E1FB022304AA03A93D4810F0D0
:1063F000FBFF072841D02CD878B304285FD123684D
:106400005A0416D5334B1B68002B12DD2F2132485E
:106410001BF09AF840B32F212F481BF095F8411C30
:106420002E4B314AD3F804350092F52201200AF0B0
:10643000BBFB062232214FF4F03000F0D5FF11E013
:106440005C2125481BF080F808B15C21BBE722499C
:10645000BDE70828D3D01128D0E79DF80C100D20F7
:1064600000F0ACFF06B010BD5C211B481BF06CF8BF
:1064700008B15C21D0E71849D2E723685B04D8D57E
:10648000144B1B68002BD4DD2F2113481BF05CF844
:1064900060B12F2110481BF057F8411C0F4B134AD5
:1064A000D3F80435009240F20312BFE75C210A489A
:1064B0001BF04AF808B15C21ECE70749EEE7064A11
:1064C0004FF4857119F097FBCCE700BFD42F002063
:1064D000482E0020442E0020FF150400001001402B
:1064E000091904007C2F0020241904003D19040020
:1064F0000020FFF74BBF000007B5174B1B685B047C
:1065000016D5164B1B68032B12DD2F2114481BF0E8
:106510001BF8C0B12F2112481BF016F8411C114B7B
:10652000114AD3F8043500920420C4220AF03CFB3F
:106530000322C8214FF4F03000F056FF03B05DF89D
:1065400004EB00F09DBD5C2105481AF0FDFF08B189
:106550005C21E0E70249E2E7482E0020442E0020BB
:10656000FF15040000100140BF18040030B58A4C2C
:1065700023685A0487B0054618D5884B1B68032B3F
:1065800014DD2F2186481AF0DFFF78B32F218448CD
:106590001AF0DAFF411C834B834AD3F8043500928A
:1065A000019540F24D1204200AF0FEFA00F015FDAC
:1065B00070BB23685B0417D5784B1B68012B13DD78
:1065C0002F2177481AF0C0FFC8B12F2174481AF064
:1065D000BBFF411C734B754AD3F80435009202206F
:1065E00040F251120AF0E0FA07B030BD5C216C486D
:1065F0001AF0AAFF08B15C21C9E76949CBE75C2121
:1066000067481AF0A1FF08B15C21DFE76449E1E7C0
:10661000674818F0CFF820B1614A40F2551119F0DF
:10662000EAFA032DE0D8DFE815F0040017001D009A
:106630001B010120FFF7AAFE00224FF420315C4825
:1066400018F074F80028CFD0554A4FF4AF7107B056
:10665000BDE8304019F0CFBA002007B0BDE83040A7
:10666000FFF794BE0DF07AFA2368002840F0A88066
:106670005D0417D5494B1B68032B13DD2F214848B8
:106680001AF062FF80B32F2145481AF05DFF411CCC
:10669000444B484AD3F804350092042040F21112CA
:1066A0000AF082FA9DF81430042262F3061303F014
:1066B000F303022262F301038DF8143006AA42F2BA
:1066C00010730493642342F80C3D4FF47A7307CAA5
:1066D0000DF04AF907283DD008280ED0002883D0B5
:1066E0002F4A40F22F11B2E75C212D481AF02CFFFF
:1066F00008B15C21C8E72A49CAE72368580417D5BE
:10670000264B1B68002B13DD2F2125481AF01CFF98
:10671000B8B12F2122481AF017FF411C214B264AFD
:10672000D3F80435009240F2211201200AF03CFA1D
:10673000062232214FF4F03007B0BDE8304000F0BF
:1067400053BE5C2116481AF0FFFE08B15C21E1E758
:106750001349E3E723685904EAD5104B1B68002B63
:10676000E6DD2F210E481AF0EFFE60B12F210C4814
:106770001AF0EAFE411C0B4B104AD3F80435009284
:106780004FF49472D1E75C2105481AF0DDFE08B1A0
:106790005C21ECE70249EEE7482E0020442E002061
:1067A000FF15040000100140711704008417040055
:1067B000B42F0020A4170400D8170400F917040010
:1067C0005A0417D52B4B1B68032B13DD2F212A48A6
:1067D0001AF0BAFE70B32F2127481AF0B5FE411CFB
:1067E000264B274AD3F80435009204204FF49B72BD
:1067F0000AF0DAF90DF0A0F900283FF4F5AE082808
:106800002AD123685B0493D51A4B1B68002B8FDDBC
:106810002F2119481AF098FEA8B12F2116481AF016
:1068200093FE411C154B174AD3F80435009240F2F1
:106830003F127AE75C2110481AF086FE08B15C210D
:10684000CAE70D49CCE75C210B481AF07DFE08B180
:106850005C21E3E70849E5E7074A4FF4A371F6E650
:1068600010F076FC00F0AEFB07B0BDE83040FFF75B
:1068700043BE00BF442E0020FF150400001001405D
:106880002D180400501804003038032801D8FFF7F1
:106890006DBE704703781C2B01D1FFF72DBE7047EA
:1068A0007FB50378153B0446052B00F29080DFE8A6
:1068B00013F006008E0099007200BF00ED008F4DAE
:1068C0002A68530400F1040619D58D4B1B68032B6D
:1068D00015DD2F218B481AF037FE18B32F21894878
:1068E0001AF032FE411C884BA288D3F8043501927D
:1068F000864A009204204FF4CA720AF055F93046D5
:106900000DF084F80828044615D8072815D2002869
:106910005DD07C4A40F2A911204604B0BDE8704029
:1069200019F069B95C2177481AF00EFE08B15C21B4
:10693000D5E77449D7E70E28EBD12B685D0418D54D
:106940006F4B1B68002B14DD2F216E481AF0FCFDE5
:10695000C0B12F216B481AF0F7FD411C6A4B6C4AFD
:10696000D3F804350092019440F2A11201200AF0FC
:106970001BF9062232214FF4F03004B0BDE870401C
:1069800000F032BD5C215F481AF0DEFD08B15C21E9
:10699000E0E75C49E2E7594B1B68580417D5584BB0
:1069A0001B68032B13DD2F2156481AF0CDFD80B153
:1069B0002F2154481AF0C8FD411C534B554AD3F8B7
:1069C00004350092042040F2B1120AF0EDF804B050
:1069D00070BD5C214B481AF0B7FD08B15C21E8E7B7
:1069E0004849EAE7454B1B685904C2D5444B1B682C
:1069F000032BBEDD2F2143481AF0A6FD78B12F21CD
:106A000040481AF0A1FD411C3F4B434AD3F80435DE
:106A10000092042040F2B5120AF0C6F8A9E75C2102
:106A200038481AF091FD08B15C21E9E73549EBE7F8
:106A3000324B1B685A0419D5314B1B68032B15DDEB
:106A40002F2130481AF080FDB8B12F212D481AF0BF
:106A50007BFD411C2C4B2289D3F8043501922F4A2F
:106A60000092042040F2C3120AF09EF801210E2089
:106A700004B0BDE8704000F0A1BC5C2121481AF0D0
:106A800063FD08B15C21E1E71E49E3E71B4B1B688E
:106A90005B041BD51A4B1B68032B17DD2F211948EC
:106AA0001AF052FD00B32F2116481AF04DFD411C7B
:106AB000154BA27AD3F80435029222890192184A22
:106AC000009204204FF4E9720AF06EF80E200021C3
:106AD00000F074FC134817F06DFE00283FF477AF08
:106AE000084A4FF4EC7118E75C2106481AF02CFDB7
:106AF00008B15C21D8E70349DAE700BF482E00203F
:106B0000442E0020FF15040000100140A2160400CE
:106B1000C5160400E3160400031704001D17040043
:106B200042170400B42F002007B51E4B1B685B04FE
:106B300017D51D4B1B68032B13DD2F211B481AF0A3
:106B400003FD18B32F2119481AF0FEFC411C184B05
:106B5000184AD3F804350092042040F2E3120AF0F8
:106B600023F81548154B036301210023836280F845
:106B70002C3080F82D3010F00BFC80B10B4A4FF414
:106B8000F57103B05DF804EB19F035B85C210748E6
:106B90001AF0DAFC08B15C21D5E70449D7E703B065
:106BA0005DF804FB482E0020442E0020FF15040051
:106BB000001001409F1804007C2F00207018040072
:106BC00010B5044600214FF4F03004EB840400F0CB
:106BD00001FC620032214FF4C030BDE8104000F0EB
:106BE00003BC00F033BC00001FB5304C22685204D7
:106BF00017D52F4B1B68032B13DD2F212D481AF0BF
:106C0000A3FC002840D02F212A481AF09DFC411CEB
:106C1000294B2A4AD3F80435009204208D2209F02A
:106C2000C3FF03F0E3FF04F009F803A816F00EFA1F
:106C300023685B0419D51E4B1B68032B15DD2F2120
:106C40001C481AF081FC40B32F211A481AF07CFC32
:106C5000411C194BBDF80C20D3F804350192184A99
:106C6000009204209A2209F09FFF00F0EFFB002120
:106C70004FF4F03000F0AEFB0422C8214FF4F030A6
:106C800000F0B2FB04B010BD5C210A481AF05CFCB5
:106C900008B15C21B8E70749BAE75C2105481AF05A
:106CA00053FC08B15C21D0E70249D2E7482E00200E
:106CB000442E0020FF15040000100140D8180400E5
:106CC000F218040007B5134B1B685B0416D5124B72
:106CD0001B68012B12DD2F2110481AF035FC80B102
:106CE0002F210E481AF030FC411C0D4B0D4AD3F8F1
:106CF000043500920220A62209F056FF03B05DF889
:106D000004FB5C2105481AF01FFC08B15C21E8E790
:106D10000249EAE7482E0020442E0020FF15040017
:106D200000100140E015040000B5574A8DB0042161
:106D30004FF4C04009F01CFF544B1B685B0419D58D
:106D4000534B1B68032B15DD2F2152481AF0FCFB17
:106D5000002800F08F802F214E481AF0F5FB411CCF
:106D60004D4B4E4AD3F804350092042040F20922DC
:106D700009F01AFF17F06EFC20B1464A40F20B21D1
:106D800018F039FF00F072FB454800F09BFB20B182
:106D9000404A40F2122118F02EFF03F00DFF03F0DD
:106DA00025FF03F04BFF0021202203A81AF0FCFA74
:106DB00001238DF80C3007238DF80F3006238DF852
:106DC0001430384B07933849384B0B9303A800F025
:106DD00011F920B12F4A40F2F71118F00CFF344896
:106DE00007F050FE0120FFF765FA20B1294A40F272
:106DF000232118F000FF0CF095FD64212D4800F0D0
:106E00007DFA2D4A2D48002117F07EFC20B1214A41
:106E100040F22F2118F0EFFE234B1B7883B9284D49
:106E20000FCD03AC0FC495E8030084E8030003A86A
:106E300000F016FA20B1174A40F23D2118F0DBFEAF
:106E400004F03EFE00F096FB00F00CF920B1114A70
:106E500040F2422118F0CFFE00214FF4F03000F054
:106E6000B9FA0222C8214FF4F03000F0BDFAFFF762
:106E700023FAFCE75C2107481AF066FB08B15C21A5
:106E80006AE704496CE700BF450B0300482E002069
:106E9000442E0020FF15040000100140801804005B
:106EA0006D65020095680200B02F0020296B02007A
:106EB000A02D002089680200F16402007C18040003
:106EC000C815040010B504460AF0F0FB38B1237869
:106ED0000E2B04D10020BDE8104007F02DBE10BDE0
:106EE00070B5837DC27D86B043EA0223ADF81430CD
:106EF0000446022305A80E46ADF8163016F06AF8CF
:106F00000546002847D104AA2146208A16F03EFAF9
:106F1000054600283FD10DF112033246BDF810108E
:106F2000E08A16F0C1FC0546002834D1217ED4F851
:106F3000120001F0010107F06DF910B1784604F07C
:106F400087FDBDF8120012F09FFD054618BB184BD7
:106F50001B681B031DD5174B1B68062B19DD2F2142
:106F600015481AF0F1FAC8B12F2113481AF0ECFABB
:106F7000411C227E114B02F00102D3F8043502922B
:106F8000D4F8122001920E4A00920720C32209F081
:106F90000BFE13F019FD284606B070BD5C210648B3
:106FA0001AF0D2FA08B15C21DFE70349E1E700BF3C
:106FB000482E0020442E00207E19040000100140BD
:106FC0009D19040008B50BF0C7FE14F04CF915F03C
:106FD0008BFFBDE8084006F0CFBE07B501A816F04C
:106FE00035F8BDF80400003018BF012003B05DF88B
:106FF00004FB000073B50E46054678B307F060FC4D
:10700000044640BB15F0C6FF14F0A0FE286912F03C
:107010000BFD0446F8B92B7F0193AB690093014641
:107020006B690F48592212F08FFF044698B92B6AFA
:1070300003B198470BF0A8FD15F0C6FE13F060FEF3
:1070400008B113F0C1FCFFF7C8FF054608B10FF007
:1070500053FC06B13570204602B070BD0E24FAE72D
:10706000D82F002008B5FFF7B8FF20B10FF004FDBE
:1070700008B10FF083FCBDE8084007F097BC0000A2
:1070800008B50AF013FB20B10020BDE8084007F066
:1070900053BD0248BDE8084007F0F4BCAC2D002009
:1070A00030B5274D297885B019B1012803D00328C0
:1070B0003FD005B030BD04AC002344F8083D214664
:1070C00004F0CAF808B118F089FD204604F02EF942
:1070D00008B118F083FD04A9012341F8043D0DF126
:1070E000060016F0C3FB08B118F078FDBDF80600E5
:1070F00016F0D3F80DF1050116F0D6F908B118F025
:107100006DFD0FF0F9FB9DF80510002010F054F80C
:1071100010B1784604F09CFC07F048FC08B118F068
:107120005DFD00232B70074B1B68002BC1D09847D7
:10713000BFE704F063F90028BBD018F04FFDB8E7B3
:10714000323000203430002008B503781C2B0CD1DD
:10715000064B1B784BB104F08DF908B118F03EFDD9
:107160000348BDE8084007F08FBC08BD323000205E
:10717000B82D002010B50749074817F0EBFE02466E
:1071800038B90649064809690223BDE8104017F0DE
:10719000FABE10BD4C300020F03100203430002009
:1071A000BC30002010B50378023B082B4AD8DFE83A
:1071B00003F01E051249493849493F00224B5B68DC
:1071C000002B3FD0007A00283CD0204A01211170CA
:1071D000BDE8104018471C4B9B68002B32D01B4A5F
:1071E000117879B300211170BDE810401847184B91
:1071F0001A784AB9144BDB6813B114490A709847DE
:10720000BDE81040FFF7B6BF124B134801221A70B9
:1072100007F038FC07F01EFCA0B1BDE8104018F0E4
:10722000DDBC094B0D485969102217F0F1FEF3E758
:10723000D0E90210FFF754FE08B118F0CFFC044B60
:1072400001221A7010BD00BF343000203030002001
:107250003130002032300020B82D0020BC3000201A
:1072600070B5184A184E5168044686B0106803ABD2
:1072700003C31189927A19809A700FCC35460FC5D5
:1072800094E8030085E803007369C3B10F4B0093D2
:107290000F4A1049104803AB17F02EFE68B90F488B
:1072A00018F056FB48B90D4818F084FB01460A480F
:1072B00017F03CFE08B9FFF75DFF06B070BD072070
:1072C000FBE700BFBD19040034300020A5710200A7
:1072D0004C300020F0310020BC3000206C30002009
:1072E00010B5054C226832B118F0B6FD002802DB5B
:1072F00023689847F8E710BD30320020154B164A36
:1073000010B50C4618600121144817F0FDF918B1AA
:10731000134A4A2118F06FFC610C0023E00341F28C
:107320006F728B4208BF824210D24FF47A720023F0
:1073300019F058FE014600220A4817F0F7F938B153
:10734000074A4B21BDE8104018F055BC0521F2E773
:1073500010BD00BF30320020E1720200C8190400E5
:10736000CC1904003432002070B5104C206808B9E4
:1073700018F034FC4FF0A0450D4ED5F804353268B6
:107380005340C5F804352368013B236063B90948BD
:1073900017F010FA3268D5F8043523EA0203064ADA
:1073A00012681343C5F8043570BD00BF5432002085
:1073B000583200205C32002084320020012303FA7E
:1073C00000F04FF0A04311B1C3F80C057047C3F8AB
:1073D000080570474FF0A04311B1C3F80C05704782
:1073E000C3F8080570470000F8B52AB3132923D95C
:1073F000124B134D5200013A4FF0A0441A6028601E
:10740000D4F8043518400F4B4FF4FA761860002773
:107410004FF40040E0FB01674FF47A7200233046DE
:10742000394619F0DFFD00220146074817F07EF9C2
:1074300010B92B68C4F80C35F8BD00BF54320020D9
:1074400058320020843200205C32002008B5054804
:1074500017F0B0F9044B1A684FF0A043C3F80825A1
:1074600008BD00BF5C3200205832002008B54FF044
:10747000A04303224FF40051C3F83427C3F8081582
:107480004FF48041C3F83827C3F808154FF4004182
:10749000C3F83C27C3F80815C3F840274FF48032DF
:1074A000C3F808250121054A054817F02DF918B140
:1074B000BDE8084018F092BB08BD00BF6973020028
:1074C000F0190400D8B10F4B0F4A18604FF0A043D9
:1074D0000020C3F82C27C3F83027C3F86027C3F86F
:1074E00064270A4B4FF00042C3F80423C3F87C0121
:1074F000074BC02283F8062340221A6070470E20F3
:10750000704700BF7C3200200C0003000060004088
:1075100000E100E0124B70B50024124E124DC3F88A
:107520007C414FF0A043A15DD3F8102501238B408F
:10753000934311D00D49D5F804250B68981A48BF1C
:10754000D01A43F23333984206D9D5F804350B608C
:10755000074B20461B6898470134042CE1D170BDCD
:1075600000600040F4190400001001408032002047
:107570007C32002070B50446CEB0002864D03C4D6B
:107580002A6852042FD53B4B1B68032B2BDD3A4B4B
:107590000DAE19680023E25C100902F00F02085CCE
:1075A00006F81300885C06EB43020133102B507081
:1075B000F1D100232F21314886F8203019F0C4FF83
:1075C000002843D02F212D4819F0BEFF411C2C4B21
:1075D0002C4AD3F8043501922B4A0092029641229C
:1075E000042009F0E1FA2B685B042DD5214B1B68C0
:1075F000032B29DD2F21214819F0A6FF00282ED0CA
:107600002F211E4819F0A0FF411C1D4BE27BD3F82F
:1076100004350B92A27B0A92627B0992227B08922C
:10762000E27A0792A27A0692627A0592227A04920C
:10763000E2880392A288029222680192134A009281
:107640000420462209F0B0FA4EB070BD5C210B4810
:1076500019F07AFF08B15C21B5E70849B7E75C216A
:10766000064819F071FF08B15C21CAE70349CCE76D
:10767000482E0020442E00204C2E0020F819040033
:1076800000100140201A0400321A04003A1A0400C3
:10769000AEDF7047B0DF70473CDF70473DDF7047BB
:1076A0007FB5044638B10388502B5AD005D8102B2B
:1076B00017D0112B19D004B070BD512B1DD0532BF6
:1076C000F9D12E4DC288EB889A42F4D16B7E002B03
:1076D000F1D000F01FF90028EDD06B690220984727
:1076E000E9E78288254B9A80E5E7244B81889A88D0
:1076F0009142E0D14FF6FF72F5E7204D8288AB88CA
:107700009A42D8D18679022ED5D10289EB889A4245
:10771000D1D1837B043B022BCDD9102200216846B6
:1077200019F042FE2B7E8DF80060BBB19DF806304B
:1077300043F001038DF806300023ADF804306946AC
:10774000A888FFF7A7FF1128F9D0BDF80430002B57
:10775000B1D104F1080000F089F8ACE740F2FD1364
:10776000EBE7064DC2886B899A42A4D1038A022BAB
:10777000A1D1123004F066F828769CE78832002008
:1077800030B587B005460C461022002102A819F03A
:107790000BFE0323ADF8023020238DF804300F4B8D
:1077A0008DF80550DA88ADF8082002228DF80A20FD
:1077B0000022ADF80C200DF10202049202A901AAE8
:1077C00098888DF806400592FFF762FF20B9BDF852
:1077D0000230032B18BF0C2007B030BD88320020C8
:1077E00010B54FF0FF310020FFF758FF044658B99D
:1077F000B121FFF751FF044630B9044B01205B690A
:107800009847022001F0FCF8204610BD8832002085
:1078100070B514490B6823B34B6813B3083198470C
:1078200008281ED0104C2368254658B998760121A7
:107830000220FFF7A5FFA0B123685B690320BDE824
:107840007040184700229A7606210220FFF798FF21
:1078500018B1236803205B6998472B6802205B6995
:10786000EDE770BDC4320020C032002070B505467F
:10787000007B254C012803D0022825D0022117E0E7
:1078800023689E7E56B10621FFF77AFF002835D087
:1078900023685B690320BDE87040184758760146AD
:1078A000FFF76EFF50B3236811285E7627D00421BE
:1078B000287BFFF765FF18B1236803205B699847B1
:1078C000236802205B69E6E76A7B531E132B18D8F6
:1078D0000E4E05F10E01301D19F05BFD6B7BB3619F
:1078E00023689B7E002BE2D10949304651F8083BC2
:1078F00098470028DBD1236801229A7670BD0621C3
:10790000D6E70521D4E700BFC0320020A432002012
:10791000C432002008B5044B1B6800205B699847FF
:10792000BDE80840FFF75CBFC0320020F7B517463E
:1079300001900E4691B1019C6CB100252C46294660
:1079400001A800F09DF918B13946A8B2B04701343A
:107950000135142DF3D1204603B0F0BD0C46FAE7F3
:1079600073B50191019C06466CB100252C46294651
:1079700001A800F085F918B106EB440301349D809D
:107980000135142DF3D13046346002B070BD0000D3
:107990002DE9F04303888488112B8DB0064640D032
:1079A0001A2B43D0102B16D1294DAB680CA8DB4302
:1079B00040F8303D55F8041F03F014FF009901A86A
:1079C000FFF7CEFF0027019B9F4207D3132C18D946
:1079D000042018F003F90DB0BDE8F08301AB03EB10
:1079E00047034FF00008B3F8049005EB0800494640
:1079F00008F1040800F03AF9B8F1740FF5D1013735
:107A0000E1E72146134800F01AF92146124800F038
:107A100016F9F37B012BDED01048214600F00FF958
:107A2000D9E70C48214600F021F9D4E7057A0C4843
:107A30002D09012D214606D900F001F9022D21461C
:107A40000848F0D0EAE700F011F921460548EAE7D6
:107A5000D0320020D8320020D4320020DC32002086
:107A6000E0320020E43200201328014602D8024808
:107A700000F006B900207047D432002010B504464B
:107A8000FFF7F2FF38B12146034800F0F9F800286B
:107A900014BF0220012010BDDC32002010B50446C6
:107AA000FFF7E2FF28B121460248BDE8104000F090
:107AB000E7B810BDE032002070B50A4D06462846F2
:107AC0000C4600F0DDF858B13046FFF7CDFF38B175
:107AD000A01D314605EB8000BDE8704000F0D0B835
:107AE000002070BDD0320020F8B50D4C0546204670
:107AF0000E46174600F0C4F880B12846FFF7B4FFE1
:107B000060B1B01D04EB800029461FB1BDE8F8400C
:107B100000F095B8BDE8F84000F0A8B8F8BD00BF87
:107B2000D0320020F8B50A4C05460E4601462046E4
:107B3000174600F0A5F848B1043504EB85043A4631
:107B4000A0683146BDE8F840FFF7F0BEF8BD00BFC1
:107B5000D032002037B550E8013F9DB2C48925449A
:107B60008489A54228BF2D1B0489A54202BFBFF30B
:107B70002F8F002207E0C5EA030540E80154002CDE
:107B8000E9D14FF001028DF803200193019B9DF88C
:107B900003200B6002F0FF0322B10B880068184439
:107BA00003B030BD1846FBE70A884B889A4209D1DA
:107BB00050E8012FC2EA024240E80123002BF7D12E
:107BC000012070470020704737B550E8023F1FFA88
:107BD000A3F5C488A54202BFBFF32F8F00220DE09A
:107BE000C48925448489A54228BF2D1BC3EA0545C5
:107BF00040E80254002CE8D14FF001028DF8032038
:107C00000193019B9DF803200B6002F0FF0322B15A
:107C10004B880068184403B030BD1846FBE70A885B
:107C20004B889A4209D150E8022FC2EA224240E82A
:107C30000223002BF7D1012070470020704701F08C
:107C40001F024B090121914000EB830003F0BFBDEF
:107C50004B0910B501F01F040121A14000EB830086
:107C600003F0AAFDE04000F0010010BD01F01F0389
:107C700001229A404B0900EB8300D14303F0B2BDCF
:107C80004B0901F01F0150F82300C84000F001002B
:107C900070472DE9F0474E1E760980460F460136A3
:107CA000002558F8254008EB850AE44394FAA4F42B
:107CB000B4FA84F44FEA4519202C06D10135AE42BE
:107CC000EFD83C462046BDE8F0874C44A742F5D9A2
:107CD00021464046FFF7BCFF0028F3D0DAF8004009
:107CE000E44394FAA4F4B4FA84F4E5E770B5064EDC
:107CF0000546002456F824300BB128469847013435
:107D0000042CF7D170BD00BF54330020033080B283
:107D100040F2FD33984230B51FD8124B1A783AB969
:107D20001C895D892C440444A4B2B4F5806F0AD345
:107D30001A7DA2B99A8BDC8B2244024492B2B2F52E
:107D4000806F0CD201220A801446142202FB0433F5
:107D50005A8910445881002030BD0920FCE70720D3
:107D6000FAE700BF883300200B4A0C4B51881420DF
:107D700000FB0131CB6833B904204968107001223F
:107D8000074800F027BD05230649137002238B80A6
:107D9000012200230968F3E76C33002088330020B8
:107DA000482F0020C433002007B500230549009365
:107DB000054A09680548082300F0DEFC03B05DF8B9
:107DC00004FB00BFC4330020881A0400482F0020A1
:107DD00007B50023009301460823034A034800F037
:107DE000CBFC03B05DF804FB801A0400482F002090
:107DF00013B500230C46009301460423074A0848A4
:107E000000F0BAFC38B9074B142202FB04340123FA
:107E1000237402B010BD0E20FBE700BF7C1A0400E3
:107E2000482F00208833002037B50A480A4B4268A3
:107E30009C88196853880325033305709BB2002082
:107E400000909B0001EB8401044800F095FC03B016
:107E500030BD00BF6C330020C4330020482F002009
:107E600010B501460448FFF775FE1C2204460021A8
:107E700019F09AFA204610BDB0330020438803332E
:107E800000EB8303994209D382884FF6FF739A422D
:107E900006D00088B0FA80F0400970470220704791
:107EA0000120704770B5144A142303FB00200B68AF
:107EB00044680D4604F580569BB15C88033403EB9F
:107EC0008404B4420BD22368013308D031462046E3
:107ED000FFF7D4FF012809D005D30228F1D10020F3
:107EE00003E00834EDE72C60012070BD63880333A4
:107EF00004EB8304E5E700BF8833002073B54368D3
:107F000005460C466BB3254AD1688B4229D31269CA
:107F1000934226D813F0030223D12149008909890D
:107F200088421ED12868996888421AD11D4948683C
:107F3000834203D900F5805083420ED38A6993426D
:107F40000DD902F58052934209D2012323800020EB
:107F5000B0FA80F0400902B070BD1346F6E70A207F
:107F6000F6E7002323801E462388012B01D9002039
:107F7000F1E7019601A92088FFF794FF18B923883B
:107F800001332380F0E7019B2A6899689142F1D17F
:107F90006B60034B1B892B81DDE700BF482F00205E
:107FA0006C330020883300202DE9F8431C461F4B1A
:107FB0001B7806460F461546002B32D0002A32D0D9
:107FC000002C30D0DFF86C804FF01409A388012B0F
:107FD00001D90A201BE009FB03F318F80330C3B1F1
:107FE000A3880133A380F1E723681EB19988328802
:107FF00091420ED11FB119883A88914209D19B68EC
:108000002B6023686B600A4B1B892B810020BDE825
:10801000F8832146A088FFF745FF0028E4D12060BF
:10802000DEE70220F3E70520F1E700BF643300201C
:108030006C3300208833002008B5074B191D588881
:10804000FFF730FF18B1BDE80840FFF7EDBEBDE80F
:108050000840FFF789BE00BF6C3300202DE9F04FC8
:10806000A04FDFF8A49289B00646B8463B6823B912
:1080700049469D48FFF7A8FD3860D8F80050297898
:108080004B1E052B00F21381DFE813F0060076008B
:108090007600070107015D0126B1944B00225A606A
:1080A000012424E02B79032B1DD8DFE803F015020F
:1080B000424D8F490B78022B084631D00B7D022BA5
:1080C0004FF001032ED114225343C2180020C8548C
:1080D0005068FFF77DFE03E001232B71FFF764FE7C
:1080E000002800F0D480814B00225A600E24142214
:1080F000002103A819F058F941F61D539C4208BF0E
:108100000024D8F8003004941A78023A042A00F2C5
:10811000D381DFE812F0B401C001E301EB01F20109
:108120000023D0E7714A13700023536041F61D54B9
:10813000DDE770497048002302222B718A800122FA
:10814000096800F047FBCBE76A4C00262E712068D7
:10815000674DFFF73DFE694BD4F800C05A881423E1
:108160005343EA18EE5451682160A188C2F804C054
:1081700011810222A280B3E7B5F814A0AA7DDFF82E
:1081800070B11423AEB1022A06D903FB0AB3EA8800
:10819000198903320A441A81142303FB0ABAEB88B3
:1081A000BAF80A20C3F57F43FD331344AAF80A3016
:1081B00076E703FB0AB318895C6804EB8004062A9F
:1081C00005D8DFE802F0274D35431D5967000F241D
:1081D000AB7D022B07D9142202FB0AB2EB8811896E
:1081E00003330B441381142303FB0ABAEB88BAF858
:1081F0000A20C3F57F43FD331344AAF80A3076E71B
:108200003F48404900234360AB690360FFF776FEB7
:1082100000285AD00223AB75002300930423EA18E8
:108220002146354800F0A8FA002830D00E24CFE7C8
:108230002B69002B0CBF01230323AB750023009394
:1082400005F10C02042304F10801EAE70123AB75F0
:108250000022EB8800929B002A6904F10C01E0E700
:10826000032914BF06230523AB75002300930423C1
:1082700005F10802E118D4E70623AB75214B1988F4
:108280001F4B5868FFF7B4FD04460028A0D109B081
:10829000BDE8F08F41F61D549AE7002E7FF400AF41
:1082A0002B79012B32D004D3022B3FF43FAF0F24A4
:1082B0001DE702232B71CDE904660DF10A01EB687D
:1082C000039303A8FFF71AFE08B90A240FE70498DE
:1082D000BDF80A108388EB8003882B81FFF788FDA7
:1082E000044626E084330020B033002064330020AD
:1082F00088330020C4330020482F00206C33002036
:1083000048330020CC3300207C330020DFF808A263
:1083100003AA53463146A81DFFF746FE044660B93E
:10832000BAF804100498FFF763FD04460A2C3FF4E2
:10833000FDAE002C7FF4DBAEA9E7082231465046A3
:1083400019F032F8F2E7002E7FF4AAAE6D4B1A7BDB
:10835000B2B11E731A78013A062AA8D801A151F8C1
:1083600022F000BF0B840200318402004F8402001F
:1083700055840200AF8202005B8402007184020017
:108380001A78072AE6D801A151F822F0AD8302003D
:108390005583020055830200D3830200E783020065
:1083A0000784020007840200CF8302001A8956491D
:1083B00001321A8100225A801A730A78B2FA82F2C4
:1083C00052099A720A7DB2FA82F25209DA720122D5
:1083D00007E04E4958688A884088033202448A8000
:1083E00002221A70B6E7484C5A884849142505FB02
:1083F00002420868546850608888108102228A808E
:108400000C600622EDE70722EBE79A7A32B9DA7AB6
:108410008AB900221A705A805A6087E63A490022C7
:108420009A72CA68002AF2D1097C0029EFD05A80DA
:10843000FFF702FE54E70022DA72334A116A00297C
:10844000E7D192F82420002AE3D00122EFE7FFF7DA
:10845000EBFC45E7FFF788FC42E706221A702A4A40
:108460005B88142101FB03235868FFF7B1FC37E751
:1084700007221A7000225A60FFF796FC30E70122AB
:108480008DF80C201A89ADF818209A88ADF81A20BA
:10849000DB68059310E002228DF80C201A89ADF8F4
:1084A00018209A88ADF81A20DA6805929B7D9A1FE9
:1084B000534253418DF81C3003A8FFF717FC0026E8
:1084C00049461348C8F80060FFF7A9FB012111488D
:1084D00003F0A9F900287FF4C9ADD8E603228DF88E
:1084E0000C20DA88ADF818201A89CFE704228DF81D
:1084F0000C20DB88ADF81830DEE705238DF80C3052
:10850000DAE700BF6C33002088330020C43300203A
:10851000B0330020C0330020D03300204068FFF784
:108520009DBD000008B50121044803F066F918B9A3
:10853000BDE80840FFF792BD08BD00BFC033002072
:108540002DE9F3419846344B1B7806460D46002B27
:1085500059D0002959D009884FF6FF73994256D057
:108560006B88002B53D06B689B0752D14AB92F8977
:108570000DF102013846FFF7C9FB30B102B0BDE88A
:10858000F08113885788ADF8023001A8FFF768FC26
:10859000044658B9BDF80230204A142101FB0323D8
:1085A00058890338C01B58810820E7E780F800800D
:1085B00000238375BDF8023083826B68036101215B
:1085C000174803F025F9E0602B8823816B88A3808E
:1085D000B8F1030F04BF0423A375E78004BF336819
:1085E000A3610025658101A90E48FFF7DDFA36B1C8
:1085F0007560E36833600C4BB5721B893381FFF7FC
:1086000091FF0020BAE70220B8E70520B6E7042072
:10861000B4E70320B2E700BF6433002088330020B2
:1086200080330020B03300206C33002073B50D463A
:108630000446C8B1C1B10DF10601FFF75FFCA8B156
:108640000B4BBDF806006668142202FB00300121C6
:108650000C3003F0DDF82E6063680C336B6001238F
:10866000A372002002B070BD0520FBE70A20F9E7E5
:108670008833002013B50446A8B10DF10601FFF7B9
:108680003DFC90B10B4ABDF80630142101FB0323D9
:10869000DA6862B1A27A52B1DA680020013ADA608F
:1086A000A07202B010BD0520FBE70A20F9E7062002
:1086B000F7E700BF8833002002230022FFF740BF06
:1086C00018B103230022FFF73BBF052070470000CD
:1086D00013B5104B1B780446ABB14FF6FF739842AD
:1086E00013D001A8FFF7BCFB88B105230370012359
:1086F0000371C48001A90848FFF756FAFFF712FF7B
:10870000002002B010BD0220FBE70420F9E708209A
:10871000F7E700BF64330020B033002007B5ADF8A1
:10872000060002A820F8041D01460DF10600FFF71F
:108730003BFC03B05DF804FB13B502AC134624F810
:10874000020D0A4600202146FFF72EFC02B010BDA4
:1087500013B502AC134624F8020D0A462046002148
:10876000FFF722FC02B010BD20B119B103680B6005
:1087700000207047052070472DE9F04108B302B38F
:10878000D0F800E0BEF1000F1ED0FBB14768D7F86B
:108790000480B3FBF8F708FB1737BFB942EA010CB6
:1087A0001CF0030F14D1C768B94211D34C1E0569E0
:1087B0001C44AC420CD8DEF80C40A446BDE8F041A5
:1087C00060470E20BDE8F0810820FBE70920F9E7AB
:1087D0001020F7E7F0B5D8B1D0F800C0BCF1000F19
:1087E00018D0CAB14768D7F800E00EF1FF370F4242
:1087F00014D1C768B94211D34C1E05690EFB02445F
:10880000AC420BD8DCF81040A446BDE8F04060470D
:108810000E20F0BD0820FCE70920FAE71020F8E759
:1088200029DF704728DF704770B50568AB6886B0F0
:1088300004460E4673B114220021684618F0B4FDB8
:10884000A36805932379019633B1012B0ED0AB6851
:108850006846984706B070BD01238DF80030236943
:108860000293E368039363690493F0E702238DF8AE
:108870000030E3681B030293F5E70000034B187A0E
:108880000122B0FA80F05A7440097047E8330020A2
:1088900070B5244D244E2B7A2C463BB923492448ED
:1088A000FFF792F9306008B9686070BD0223237247
:1088B00033681A7972B1012A24D018460321FFF7D0
:1088C000B3FF00232372636018491948BDE8704064
:1088D000FFF7A5B9D3E90520121AB2F5805F28BFCA
:1088E0004FF48052D3E903159208012A014438BF9E
:1088F00001222844FFF794FF50B11128DDD1012354
:108900002372D2E7D3E903021044FFF78BFFF3E7AA
:10891000237C002BC9D10146BDE87040022000F045
:1089200009B800BFE833002000340020FC330020E9
:10893000D833002038B5831E012B45D8234C237A29
:10894000002B41D0022B09D1032830D0204B00222C
:108950001B68E2601A793AB1012A22D0637C7BBBA2
:10896000BDE83840FFF794BFD3E905128D1AB5F57D
:10897000805F94BF521902F580529A619142EDD105
:1089800002284FF0000308BF19462372104B18BF8E
:108990000D211868FFF748FF0E490F48FFF73FF910
:1089A000DCE71A6901321A615B699A42E7E7E3681A
:1089B0000133082B01D8E360D0E70023E360DFE751
:1089C000BDE8384002F086BD38BD00BFE833002066
:1089D00000340020FC330020D833002000F0FD03D9
:1089E000012B08D1044B00225A74421E50425041C0
:1089F0001874FFF74DBF7047E833002033DF70472E
:108A000070B5224C05460121204602F0CBFEBFF393
:108A10005F8F264638B9042D0AD01D4B1A781AB13B
:108A2000BFF35F8F206070BD1A4A157001221A7063
:108A3000194C184D636828787BB90238012813D87F
:108A4000BFF34F8F1549164BCA6802F4E062134317
:108A5000CB60BFF34F8F00BFFDE71B68984788B11D
:108A6000204602F09FFBE5E702F044FD08B1FFF766
:108A7000C5FF4FF080430122C3F80025BFF34F8F9D
:108A800020BFFDE7BFF35F8F3060CCE710340020DC
:108A90000D3400200C3400200434002000ED00E0F0
:108AA0000400FA05A0DF7047A1DF7047ADDF704713
:108AB000B3DF704710B50446408800F01FFCA0806B
:108AC0002046BDE8104000F0A9BD30B587B005468E
:108AD0000C4618220021684618F066FC07236846F9
:108AE0008DF80030ADF802500294FFF7E3FF07B0B5
:108AF00030BD000030B587B0054618220021684619
:108B000018F052FC4FF6FF739D42ADF802501AD098
:108B1000284600F008FB0B2804461DD005D8A0B15C
:108B200021462846FFF7D1FF05E0112805D043F282
:108B300002039842F4D1002200E00122074B2846AC
:108B40001978FEF7D1FF07B030BD0E2368468DF8C7
:108B50000030FFF7AFFFEEE70F23F7E71B340020ED
:108B6000FFF7C8BF024B034918780022FEF7DABFAF
:108B70001D340020798B02002DE9F0433D4F89B070
:108B800039780446FEF798FF064600286BD1204648
:108B900000F018FB0828014622D006D888B1062824
:108BA0004BD02046FFF791FF09E043F202039842C1
:108BB00005D043F20143984258D01128F1D1012346
:108BC00046E03146182202A818F0EEFB102302A856
:108BD0008DF80830ADF80A400126FFF76BFFEEE78D
:108BE00001A8FFF765FF012533464FF002080DF19C
:108BF0000609BDF80420AA421FD902AA2946204628
:108C0000CDE90289FFF752FFB8B9BDF8062001355A
:108C100033B942F60523D21A53425341ADB2E8E7C5
:108C200042F602118A42F9D10DF102020392A9B271
:108C300002AA2046FFF73AFF30B1204600F05EFB63
:108C400000F0DAFA002303E0BDF80220002AF4D095
:108C50001A46094B20461978FEF746FF3246397806
:108C60002046FEF741FF09B0BDE8F0832046FFF73C
:108C700041FFA4E71E3400201D34002013B5044634
:108C800000F03CFB00236A46092100F051FE052854
:108C900005D1044B012219782046FEF725FF02B0CA
:108CA00010BD00BF1934002008B5084B08491878DA
:108CB0000022FEF737FF024630B9064B0649187806
:108CC000BDE80840FEF72EBF08BD00BF1C340020E1
:108CD000258D020019340020DD8C020013B504221A
:108CE00004460021684618F05FFB0C4A42F6A623B2
:108CF0001068ADF800300190012301AA69462046B2
:108D00008DF80230FFF7CEFE28B91A46044B2046F4
:108D10001978FEF7E9FE02B010BD00BF901A0400FA
:108D20001834002030B5012187B005461C4802F0F8
:108D300039FD0446BFF35F8F00BB284600F0AEF953
:108D4000112801461CD005D860B12846FFF7BDFEAA
:108D5000002405E0862815D043F202039842F4D19E
:108D6000224601E0012402460E4B28461978FEF700
:108D7000BBFE1CB9BFF35F8F094B1C6007B030BD51
:108D80000122F1E718222146684618F00DFB062360
:108D900068468DF80030ADF80250FFF78BFEDFE734
:108DA000143400201C34002038B503780446A3B9DD
:108DB0004088FFF79FFE6588284600F0F1F928B14A
:108DC000064B012219782846FEF78EFE6088FFF7D1
:108DD00055FFBDE83840FFF767BF38BD1D340020A0
:108DE00037B50378082B044630D1427A72BB057A36
:108DF000072D1BD0082D2DD0012D27D16A462946DD
:108E0000808800F085FF08BB019B1B78F3B1A08828
:108E100000F0A2FA4FF6FF73984217D0114B2A4682
:108E20001978FEF761FEFFF79DFE0FE0808800F0E5
:108E300093FA4FF6FF739842044607D00A4B01227B
:108E40001978FEF751FE2046FFF718FFFFF72CFFB9
:108E500003B030BD054B19680129F7D1BFF35F8F0F
:108E60001A60F3E71D3400201C3400201434002065
:108E700073B501230024ADF800300923CDF802407A
:108E80008DF802300B4BADF8064022460E4619789D
:108E90000546FEF729FE084B08492846A64208BFAA
:108EA0001946019100F02AFA2246694600F0ACFD0D
:108EB00002B070BD19340020941A0400981A0400FE
:108EC00070B503888488502B86B0054637D00DD8FE
:108ED000352B47D0362B62D03E4B3F4918780022C5
:108EE000FEF720FEFFF73EFE06B070BD522B22D0EB
:108EF000542BF1D118220021684618F055FA11239D
:108F000020468DF80030ADF8024000F0F7F9ADF8DA
:108F1000040000F071F9314B204619780022FEF769
:108F2000E3FD2F4B204600221978FEF7DDFD684651
:108F3000FFF7C0FDD0E72046FFF7DCFDCCE7037B61
:108F4000012BC9D1827A012AC6D1018942F60213C6
:108F50009942C1D1234B20461978FEF7C5FDFFF792
:108F6000A3FEB9E7204E20463178FEF7A5FD002884
:108F7000B2D0002231782046FEF7B6FDEA883ABB2F
:108F8000AB89012B24D1E9892046FFF78DFDF8B983
:108F90001A46164B20461978FEF7A6FD9CE7134E9D
:108FA00020463178FEF788FD002895D031780022E0
:108FB0002046FEF799FDE98851B9EB89012B03D1D1
:108FC000297C003118BF01212046FFF751FF83E7BC
:108FD0000021F9E71B340020618B02001E340020C1
:108FE0001D3400201C340020183400201A340020C6
:108FF000AFDF7047B1DF7047B2DF7047B3DF704754
:1090000010B50446808800F0A7F960802046BDE8CE
:10901000104000F005BB0000F0B5184B184C93E869
:10902000030089B06E4686E803004FF6FF7720887C
:10903000B8421CD00022314600F0E6FC0546C0B123
:109040001822002102A818F0AFF92388ADF80C30DF
:10905000112D0CD0862D0CBF0623072302A80EBFAE
:109060008DF808308DF808300495FFF7C9FF09B076
:10907000F0BD208800F018FD2080D8E79C1A04007D
:1090800020340020044B1A884FF6FF739A4201D017
:10909000FFF7C2BF704700BF203400202DE9F7431F
:1090A000804600F02BF94FF6FF739842064637D002
:1090B00001224FF003096B4608213046571C00F08F
:1090C0002BFEBFB2054630BB01990A46032342F886
:1090D000049B06314046FFF78FFF044648B93246ED
:1090E0000821304600F0A3FE0446204603B0BDE848
:1090F000F0830C280DD0052800D12C4608213046DD
:1091000000F06AFE002818BF03243A46002DD2D191
:10911000EBE70125F2E7072814BF04460C24E4E737
:1091200043F20204E1E72DE9F341804600F0E6F85E
:109130004FF6FF73984217D10024032526460127D6
:109140002B46224631464046FFF754FF042820D0E4
:10915000082823D00B281DD115F002030FD18EB99A
:10916000A4B902B0BDE8F0816A46082100F0D0FD44
:109170000028E1D1019B9E1D9C881D68DFE7012529
:109180000027DDE703251C461E46F9E70325344684
:10919000F6E71120002F08BF0B20E2E70020F9E7D7
:1091A0001FB50DF10703039300F0A8F802AA0121EF
:1091B00000F0AEFD20B9039B187805B05DF804FB04
:1091C0000020FAE738B504460A48FFF717FF70B9E0
:1091D000084B43F203054FF6FF7219882046FFF74C
:1091E00007FFA84204D11A8801321A80F3E703204E
:1091F00038BD00BF2234002013B5074A044692E868
:1092000003006B4683E8030000221946204600F065
:10921000FBFB02B010BD00BFA41A040046DF70477C
:10922000421E00F10F0312F8010F10B99A42FAD151
:1092300070470120704708B570B171B103780A78A2
:10924000534013F0FE0F08D106220131013018F00F
:1092500091F8B0FA80F0400908BD0020FCE72DE944
:10926000F04700F101084F1C06460D4600F11109B8
:1092700001F1110A10223946404618F07BF80446E5
:10928000E0B94046FFF7CCFF18B13846FFF7C8FFFA
:10929000044651464846FFF7CEFF737C03F0FC03BB
:1092A000042B04D06B7C03F0FC03042B02D1201CA4
:1092B00018BF012000F00100BDE8F0870024E8E7B6
:1092C00030B585B004460D4600F068FB02AA0DF1EA
:1092D0000601072000F06AFB10B94FF6FF700BE0A3
:1092E000BDF80630AB42F1D003992046FFF7B7FF37
:1092F0000028EBD0BDF8060005B030BD132810B52E
:10930000044602D94FF6FF7010BDFEF7ADFB0028F2
:10931000F8D00A206043014B185AF5E724340020A6
:10932000132838B504460D4602D943F2020038BD71
:10933000FEF79AFB0028F8D006480A2303FB040036
:1093400050F8023F2B608388AB808379AB7100209B
:10935000EDE700BF243400204FF6FF7398422DE95B
:10936000F04106460CD00C4F00244FF00A0808FBD1
:1093700004F3A5B2DB5BB34205D00134142CF6D163
:109380004FF6FF7504E02846FEF76EFB0028F4D088
:109390002846BDE8F08100BF24340020038843B98B
:1093A000821C00F10A0312F8010B10B99A42FAD19B
:1093B00070470120704710B50446FFF7EFFF58B122
:1093C00022880B889A4208D108220231A01C17F08B
:1093D000D1FFB0FA80F0400910BD0020FCE71FB5B6
:1093E000044600F0DBFA02AA0DF10601072000F0A6
:1093F000DDFA10B94FF6FF7007E0039920464631B9
:10940000FFF7D9FF18B1BDF8060004B010BD0399ED
:1094100020462A31FFF7CFFF0028E4D0F3E7000011
:1094200013289FBF0A235843014B1952704700BFAE
:109430002434002038B50546FFF78EFF0446284641
:1094400000F0D4FC38B9132C05D80A236343024A30
:109450004FF6FF71D15238BD2434002030B58DB0A5
:1094600014460D4600F110030DF1FF3213F8011DF3
:1094700002F8011F9842F9D10D22002104A817F02B
:1094800093FF2B788DF81F306B788DF81E3068466F
:10949000AB788DF81D30FFF7C1FE9DF82F3023709B
:1094A0009DF82E3063709DF82D30A3700DB030BD47
:1094B00030B5037803F0FE03042B85B004460D4657
:1094C00018D1411C032201A817F063FF0322211DBC
:1094D00003A817F05EFF02AA03A92846FFF7BEFF04
:1094E000032202A901A817F045FFB0FA80F0400955
:1094F00005B030BD0020FBE730B50388102B93B0DA
:1095000052D1041D0FCC07AD0FC50FCC0FC594E889
:10951000070012AC85E8070014F8283D03F0FE03AD
:10952000062B4BD000F03AFA9DF820305B08012B57
:109530003CD9022B42D101AA0DF10201072000F013
:1095400035FA00283AD0029920460131FFF7B0FFE2
:109550000028F0D005E0029920461131FFF76BFE9C
:1095600020B3BDF80230BDF81C1016480A224A4349
:1095700085188352AA1C0898C5F80200A588A0790E
:10958000958090714FF6FF7293420DD012ACADF8FA
:109590000830002304F8443D2046ADF8061000F0E2
:1095A00041F82046FFF700FC13B030BD01AA0DF1D1
:1095B0000201072000F0FAF90028CCD14FF6FF7322
:1095C000D1E700BF24340020F8B5074D074F064609
:1095D00000242B78A34200DCF8BD57F82430304635
:1095E00098470134F5E700BF03350020F43400202C
:1095F00010B5074B1B7804464BB1FFF77DFF2046A3
:1096000001F0D0F92046BDE81040FFF759BC10BD6D
:109610000235002008B1FFF7D7BF7047FFF7D4BF6E
:10962000FFF7D2BFFFF7D0BF2DE9F04F87B0CDE9EC
:1096300000232F4B1B7882468946002B55D04FF6CE
:10964000FF7000F031FA0423ADF80A300DF1100B71
:1096500003AB002505935A460DF10A030621044683
:109660000395049500F064F907283AD04FF6FF7689
:10967000B0464FF0FF37F0B1052825D04FF6FF7305
:109680009C4230D1A0452AD0A6420CBF0520002024
:10969000BAF1000F01D0AAF80080B9F1000F01D093
:1096A000C9F80050009B03B11E80019B03B11F60ED
:1096B00007B0BDE8F08F039BAB4224BFA0461D4618
:1096C000BB423CBF26461F46204600F0EDF90DF197
:1096D0000A035A460621044600F02AF9CBE7052082
:1096E000D6E70520E4E70320E2E70820E0E700BF33
:1096F0000235002008B500231A4606490648FFF740
:1097000093FF28B1431F58425841044B187008BDBD
:109710000120FAE7EC340020003500200435002059
:10972000F0B5044687B08088FFF716FE2378608086
:10973000083B032B20D8DFE803F002213166637A6F
:109740005BB9404A116851B1E068814207D11360AA
:109750003D4AA1881180E3600EE0012B0CD13B4B08
:109760001B784BB1384BA2881B889A4204D1237ACC
:10977000062B01D1FFF7BEFF204660E0637A002B85
:10978000FAD1304A11680029F6D0E0688142F3D15D
:109790002F4913600A68013A0A60DCE72D4F3B78D5
:1097A00073B90125294B1B7833B1274BA2881B883D
:1097B0009A4201D1FFF79EFF002DDDD107B0F0BD29
:1097C0004FF6FF7000F070F94FF6FF7398420546B0
:1097D000E7D100F06BF9A8420646E2D10025182235
:1097E000294668463D7017F0DFFD0C2320468DF8B2
:1097F0000030ADF80460ADF80260FFF7E5FE6846A2
:10980000FFF7E2FECEE7134B1A78002AB4D000210E
:1098100018226846197017F0C7FD0D238DF8003027
:109820004FF6FF73ADF80430ADF80230A368029331
:109830002046237B8DF80C30FFF7C6FE6846FFF705
:10984000C3FEBBE7083500200035002004350020AA
:10985000EC340020F0340020012804D0043805281E
:109860008CBF0020012070474FF6FF73438000F04B
:10987000D9B973B504460D4616460021082268463C
:1098800017F092FDA5F58041A4F580406B46324665
:1098900089B280B2FEF742FF002814BF05200020E5
:1098A00002B070BDF0B5214D8DB00021082201A895
:1098B000297017F079FD4FF6FF7000F063FB4FF64B
:1098C000FF770446BC4211D0A4F58046B6B201AA87
:1098D00003A93046FEF73CFF0A2809D03046FEF7C0
:1098E000F7FE082806460BD101232B700DB0F0BD02
:1098F000204600F0EBFA204600F044FB0446E1E786
:10990000002EF3D0182200210DEB020017F04CFDC1
:1099100007238DF8183006A80123ADF81C400896DF
:109920008DF82430FFF7A0FFE0E700BF14350020DA
:10993000F0B5FF2887B004460D4617461E462BD8C3
:109940000846FFF789FF38B303AA2046FFF791FFC7
:1099500018B10524204607B0F0BD01A903A8FEF701
:1099600065FE04460028F4D1019BBD705D883D80F2
:10997000029926B9796003A8FEF77CFEEAE73688EB
:109980007868AD00AE4228BF2E46324617F001FD82
:10999000B542F0D90C24DDE70724DBE708220021DB
:1099A000014817F001BD00BF0C350020F0B587B0AD
:1099B00007460E461546FFF74FFF0446F8B1A7F5D8
:1099C0008040104A03A980B2FEF7B6FE18B1002409
:1099D000204607B0F0BD01A903A8FEF727FE002826
:1099E000F5D1019BAF705A882A80029A6A609B88E1
:1099F00003F58043338003A8FEF73CFEE8E701242B
:109A0000E6E700BF0C35002030B5FF2887B00346DD
:109A10000C46154635D889780846FFF71DFF80B3F8
:109A2000A3F58042ADF80020A1F58042ADF80220F8
:109A30006268019222880292184603AAFFF719FF72
:109A40000528694603A808D1FEF736FE0728044614
:109A50000CD005D870B1032409E0FEF731FEF5E71C
:109A6000082801D00E28F6D1112400E086242046D3
:109A700007B030BD002DFAD0294603A8FEF774FECA
:109A8000F5E70724F3E74FF6FF7000F007BAFF2869
:109A900008B505D800F008FAFFF704FF002008BD5C
:109AA0000720FCE700F026BA00F052BA00F06ABACC
:109AB0000A68084B70B50C25032A01D9002006E07E
:109AC00005FB02F4E65A864202D10A60181970BDFD
:109AD0000132F1E72835002073B502AC002344F8C9
:109AE000043D0E4605462146FFF7E2FF38B1837874
:109AF000B34206D1837A9B0703D143680BB902B006
:109B000070BD019B0133019321462846ECE710B557
:109B10000446FFF705FE204600F020FF2046FFF731
:109B2000B1FA2046BDE81040FFF75AB970B50F4EA4
:109B300004460025237AAB420FD84FF6FF732380EB
:109B4000A370FF236372A37A03F0FD036FF3000396
:109B5000A37200232372636070BD617A2944C9B285
:109B6000304600F02EFA0135E4E700BF183500203A
:109B700013B50023CDE9003304468378417A2748A2
:109B80008DF8023000F004FAF0B1237AA2788DF853
:109B9000022003EB83039B00ADF80030531E0190BD
:109BA000072B08D8DFE803F0120707070712041491
:109BB0001423ADF80030221D69462088FFF724FFEA
:109BC00007281DD008D8A8B1032019E00123F0E729
:109BD000838809339B08ECE7112813D08628F3D13A
:109BE000A37A03F0FD0343F00103A3720C4B01229F
:109BF0001A7005E0A37A60F3410360F30003A372D7
:109C000002B010BDA37A43F002036FF30003A37206
:109C1000034B01221A700020F2E700BF1835002024
:109C2000153500202DE9F047374AC16886B0054652
:109C300000230C24174604FB03204668B14203D0DE
:109C40000133042BF7D100202B78304E092B10D094
:109C5000132B50D0082B01D0002406E06C7A002C86
:109C6000FAD10028F8D0FFF761FF2846FFF74FFF31
:109C70000BE06C7A002CEFD100283ED0837A446050
:109C800043F00203837201233370337883B30025DA
:109C900035704FF00C084FF0010A08FB05739A7AF3
:109CA000C2F340030BB9D20729D586F800A003B947
:109CB0002CB308FB05794846FFF75AFFF8B14FF679
:109CC000FF738628ADF80230B9F80030ADF80430E3
:109CD00017BF072306238DF80030029018BF00231A
:109CE00068460CBF8DF800308DF80C30FFF70FFF81
:109CF00006B0BDE8F0870124B7E70446B5E70135B3
:109D0000042DCAD1F4E700BF283500201535002006
:109D10000023FFF70DBE00002DE9F04180460E46FE
:109D200014461F46002B4ED0CB1F012B4ED8531E7E
:109D3000032B4BD8FFF7D0FE054610BBFF214FF693
:109D4000FF70FFF7C9FE0546C8B1A0F80080867015
:109D50006B7AFF2B1AD121461E4800F04AF9FF28E2
:109D600068722DD14FF6FF732B80AB7AA87003F089
:109D7000FD036FF30003AB7200232B726B601120A5
:109D800022E0037AA342E3D00F201DE04FF0000849
:109D90002C72697A0F4800F0FBF8C8B104EB840418
:109DA0002401A4B2A408BE7078603C80B8F1000F12
:109DB00004D0082E02D1A400063C8480002003E0D9
:109DC0004FF00108E4E70E20BDE8F0810720FBE733
:109DD0000320F9E71835002008B5FFF77DFE18B11C
:109DE000FFF7A4FE002008BD0520FCE737B502AC54
:109DF000002344F8043D05462146FFF759FE30B9DB
:109E00002846FFF744FE50B1072808D006E08178C5
:109E10002846FFF7E1FF20B1052802D0032003B058
:109E200030BD019B0133019321462846E5E7CB1F56
:109E3000012B70B506460C46154601D9072070BDAA
:109E40001046FFF72FFE0028F8D021463046FFF7D6
:109E500043FE28B105808470BDE87040FFF788BEDE
:109E60000520ECE710B54FF6FF7304469C42084608
:109E70000AD14FF48071FDF70CFF84B2B4F5807FF6
:109E800009D14FF6FF7406E0FF2CFAD82146FDF702
:109E9000DFFE0028F5D1204610BD00000149FFF784
:109EA000E1BF00BF583500204FF6FF73984210B550
:109EB000044606D00449FFF7D5FF231A58425841FB
:109EC00010BD0020FCE700BF78350020FF2810B54A
:109ED000044609D801460548FDF7C8FE2146044856
:109EE000BDE81040FDF7C2BE10BD00BF58350020D0
:109EF00078350020FF28014602D80248FDF7C0BE91
:109F00000020704758350020FF28014602D802483B
:109F1000FDF7B6BE00207047783500204FF6FF737E
:109F2000984270B518BF441C0E4614BFA4B200245A
:109F3000A5B2FF2D02D94FF6FF7506E02146304647
:109F4000FDF79EFE01340028F2D0284670BD0000C7
:109F500070B50B490A4EFFF7E1FF4FF6FF75044657
:109F6000AC4201D1204670BD2046FFF7CDFF00284E
:109F7000F8D020463146FFF7D1FF0446F0E700BF96
:109F8000583500200149FFF7C9BF00BF78350020D0
:109F900038B50C46054608B9002038BD0368002BCB
:109FA000FAD040680028F7D0FF29F5D0BFF35F8FC3
:109FB000FDF766FE0028EFD0EB68286803FB04007D
:109FC000EBE738B50D46044690B1036883B14068AD
:109FD00070B1FF290CD0BFF35F8FFDF751FE38B190
:109FE0006068BFF35F8F2946BDE83840FDF73EBE8D
:109FF00038BD2DE9F0418846064618B9FF242046B1
:10A00000BDE8F0810368002BF8D04368002BF5D041
:10A010000027FF24B368FDB2AB42EFD92946706830
:10A02000FDF716FEBFF35F8F40B9FF2C08BF2C462B
:10A030002D1B01354545E2D00137EBE7FF2C07D159
:10A04000FF24F9E721463046FFF7BBFF0134E4B2B5
:10A05000A542F7D8F4E77EDF70477FDF704785DFE2
:10A06000704786DF704710B504464088FFF746F911
:10A07000A0802046BDE8104000F040BC10B586B07E
:10A08000044618220021684617F08EF9042368461A
:10A090008DF80030ADF80240FFF7E5FF06B010BDC7
:10A0A00030B587B005460C4618220021684617F0E7
:10A0B0007BF9072368468DF80030ADF80250029412
:10A0C000FFF7D1FF07B030BDF0B587B004460F46AB
:10A0D00016460021182268461D4617F065F903232D
:10A0E0008DF80030094BADF80240002219788DF848
:10A0F00008702046ADF80A608DF80C50FDF7F4FCAE
:10A100006846FFF7B0FF07B0F0BD00BFC52D0020C7
:10A110007FB502238DF800300388ADF80230437913
:10A120008DF8091013F0040F14BF012302236846B1
:10A130008DF80830FFF797FF07B05DF804FB0000CB
:10A1400070B5154B0E4686B014460A46197805467A
:10A15000FDF7CAFCF6B1114B221C197818BF012279
:10A160002846FDF7C1FC631E5A425A410C4B284653
:10A170001978FDF7B9FC18220021684617F014F988
:10A18000012368468DF80030ADF802508DF8084084
:10A19000FFF769FF06B070BDC52D0020C72D002058
:10A1A000C62D00202DE9F041154B0D4619780446C7
:10A1B0001646FDF781FC0146F0B1124B2046197896
:10A1C000FDF77AFC002804F580704FF0070180B29B
:10A1D00014BF01270227FFF7FFFD014620B1052824
:10A1E00002D02046FFF75CFF33462A463946204618
:10A1F000BDE8F041FFF768BF33462A46F7E700BFE6
:10A20000C72D0020C62D00202DE9F0418AB00F4651
:10A2100090460446FDF732FC20220646002102A8A3
:10A2200017F0C2F8012E1FD1364B002219782046B4
:10A23000FDF75AFC002F5DD02046FFF75FF84FF680
:10A24000FF73984215D100253B78DB0725D42E4BB0
:10A25000CDF814800993012E51D102AB3A4629461C
:10A260002046FFF7FAFE26E0002E45D143F2020019
:10A2700021E0012EE7D1234D20462978FDF71CFC73
:10A280000028E0D12046FFF7F9FE29782046FDF7A7
:10A2900013FC0028D7D18525D6E7852DDBD004F522
:10A2A00080706B460122072180B2FFF735FD11282F
:10A2B00001D018B103200AB0BDE8F0810146502258
:10A2C000019817F071F8019B1E700199CDF8148068
:10A2D00001F13403029301F1180306934B1C079319
:10A2E0001131094B09932046FFF71AF80028B2D024
:10A2F0000820E0E78525B0E7002F9DD1852502AB3A
:10A300000022ACE7C42D00209835002073B5054627
:10A310000E461446FDF7B2FB01284AD002284CD164
:10A3200056B931462846FFF796FE0428044600D168
:10A330001124204602B070BD284B224619782846C9
:10A34000FDF7D2FB2846FEF7D9FF4FF6FF73984280
:10A3500020D0FCB96A460721FFF7DAFC044678BB37
:10A36000019890F84430DB072ED500F134042246E2
:10A3700004F112012846FFF772FE044602E0112C98
:10A3800018BF03240022B4FA84F149092846FFF7D4
:10A39000D7FECEE731462846FFF75DFE3378042826
:10A3A00014BF0446112413F0010F14BF012202222E
:10A3B000E9E7002EB5D13446BBE743F20204B8E723
:10A3C0000528DCD11124DDE700F118042A30FEF75E
:10A3D000E5FF0028CBD10B24D4E700BFC42D00201B
:10A3E0002DE9F0470388113B88B004460D2B6AD84D
:10A3F000DFE813F00E0069002300440069006900E3
:10A4000069006900B2003D016900690069009600B9
:10A41000037A85883D2BAD4B2846197841F23D04DF
:10A4200018BF4FF48854FDF747FB00284BD000229B
:10A4300021462846FFF7B6FE45E08088FDF71EFB63
:10A440000128014608D1237AA08813F0010F0CBF20
:10A4500002220122FFF774FE34F8045F1822002163
:10A4600002A816F0A1FF043405238DF80830ADF8DA
:10A470000A50049402A8FFF7F6FD24E000F110064C
:10A480003046FEF7ACFF4FF6FF7398420546A088B2
:10A490001CD1FEF733FF054600220121A088FFF7FB
:10A4A0004FFE4FF6FF739D4214D10025002329462D
:10A4B0001A46A088FFF7D5FD0828014603D010B33F
:10A4C000A088FFF7EDFD08B0BDE8F0872946FEF74C
:10A4D000A7FFE1E702AA07212846FFF719FC002899
:10A4E000E3D1A37ED907E0D5039D95F84430DA0780
:10A4F00001D53435DAE7314605F14600FEF75BFF5A
:10A500000028F6D1D1E7A37EDB07DCD5002DDAD118
:10A51000A0882B4641F206022946FFF7D5FDD2E777
:10A520006A4B80881978FDF7C7FA01460028CAD11E
:10A53000182202A816F038FF12238DF80830A388DD
:10A54000ADF80A30237AC3F30002C3F340038DF859
:10A5500010208DF811308DE75C4B067A87881978CA
:10A56000002E77D100F1040832463846FDF7BCFAD8
:10A57000617A11F0040103D14046FFF7C9FDA2E75B
:10A5800007F580791FFA89F96B46012207214846B1
:10A59000FFF7C2FB054628B101463846FFF780FDAC
:10A5A0003146E9E73846FEF7A9FE4FF6FF739842B9
:10A5B000044682462ED101460198FEF781FE5045A1
:10A5C0000446064676D0DFF80CA101463846FEF771
:10A5D00027FF9AF800103846FDF76EFA0646C8B90C
:10A5E0003846FFF74BFD9AF800103846FDF764FA3D
:10A5F00001460028C0D0072122464846FFF717FC35
:10A60000014648B90121B7E721463846FEF708FF61
:10A610000126F0E72E46EEE786280DD1182200210C
:10A6200002A816F0C1FE062302A88DF80830ADF886
:10A630000A70FFF718FDE5E73846FFF731FD002106
:10A640004046FFF765FD002E3FF43DAF2046FEF784
:10A65000F1FE38E7447A384604F00304FDF72CFA9B
:10A6600000283FF430AF224631463846E2E6184B28
:10A6700080881978FDF720FA054600287FF423AF7B
:10A68000A088FDF70BFA0146A08819B9012341F211
:10A69000060242E70D4B2A461978FDF725FA0223F8
:10A6A0008DF80830A388ADF80A308DF810508DF879
:10A6B0001150DFE6FFF7E7F9B0420446A4D10421C8
:10A6C0003846FFF7EDFC294656E700BFC52D0020B0
:10A6D000C72D0020C42D002070B586B006460C465C
:10A6E000154600211822684616F05EFE3046ADF889
:10A6F0000260FEF703FE0D2CADF8040019D1032310
:10A700008DF800309DB12B7813F0010F0CBF0223A0
:10A7100001238DF8083000238DF80C3041F201132D
:10A72000ADF80A306846FEF775FF06B070BD02232B
:10A73000EFE707238DF80030002302948DF80C30EA
:10A74000F0E730B587B005230D4614468DF800308C
:10A75000ADF80200FEF7D2FDADF804006846CDE981
:10A760000254FEF757FF07B030BD00002DE9F0435B
:10A77000054687B0904699460E46D9B92C4BCDE98F
:10A7800004111B68039306AA12E907006B4683E8CD
:10A7900007001A4631462846FFF7D3FF254B009F96
:10A7A0001B7843B99DF809302BB90526304607B010
:10A7B000BDE8F0830027424639462846FFF7A6FD4C
:10A7C000A0F111035A425A411B4B044619782846FE
:10A7D000FDF78AF90B2C03D004D80CB1082C17D143
:10A7E000264616E0112C05D043F202039C42F7D016
:10A7F0000D2CF4E7114B324619782846FDF774F911
:10A800000F4B424619782846FDF76EF90026CDE732
:10A810000326B9F1000FC9D034F00803C6D0112CBB
:10A82000C4D03A4621462846FFF756FFBEE700BF90
:10A83000E4350020E1350020CA2D0020C92D00207C
:10A84000C82D002070B5094B19780446FDF734F97E
:10A85000074B054619782046FDF72EF92A46014692
:10A8600001232046BDE87040FFF780BFC82D0020BF
:10A87000C92D002070B51B4B86B00026CDE90466BB
:10A880001B68039306AA04460D4612E907006B46AF
:10A8900083E807001A4629462046FFF752FF124B6D
:10A8A00000991A682046FFF7AFFCA0F111035A4245
:10A8B0005A410E4B054619782046FDF715F90C4B09
:10A8C000324619782046FDF70FF935F0080306D017
:10A8D000112D04D0009A29462046FFF7FDFE06B050
:10A8E00070BD00BFE4350020D8350020CB2D0020FE
:10A8F000CA2D00200021FFF7BDBF000010B503786E
:10A90000052B044606D0122B0AD02046BDE8104085
:10A91000FEF780BE81684088BDE81040FFF7AABFFF
:10A920000C4B1B689BB10C4B017A1B7803F00102A6
:10A9300091420CD8417AC3F34003994294BF00215D
:10A940000121012300226088FFF710FFDDE70121CC
:10A95000F7E700BFE4350020DC35002008B50378B8
:10A96000083BDBB20B2B14D8012202FA03F340F6AA
:10A970000F0213420DD0074B074918780022FDF74C
:10A98000D1F8064B064918780022BDE80840FDF7CB
:10A99000C9B808BDCB2D0020F5A80200CA2D0020A3
:10A9A00045A8020008B5FFF71BFD074B07491878BB
:10A9B0000022FDF7B7F8064B064918780022BDE8DB
:10A9C0000840FDF7AFB800BFCB2D0020F5A802006E
:10A9D000CA2D002045A8020072DF704773DF704760
:10A9E00074DF7047F0B52F4CA3B005460E461746EE
:10A9F00000211022204616F0D7FC2B482B4A037862
:10AA00002B49C3EB431C62440133614403F001034F
:10AA1000A2601F2203702160A280A28100213C223B
:10AA200004A816F0C1FC062301AA8DF813300E927B
:10AA300001233C22002113A88DF80230ADF820300C
:10AA40008DF83C30ADF80050CDF824D0ADF804506E
:10AA5000ADF80870039616F0A7FC0223221D2168AA
:10AA60008DF84C3004A800F0CBF908B115F0B6F819
:10AA7000104AA16813A800F0C3F908B115F0AEF8A8
:10AA80000D4A08490D48FFF7A7FF082804D1002206
:10AA900004490A48FFF7A0FF08B115F09FF823B05A
:10AAA000F0BD00BF28360020E835002038360020F1
:10AAB000E935002034360020D02D0020CC2D002098
:10AAC000B0F5202F0AD20A23B0FBF3F310B1002B0C
:10AAD00008BF0123034A9381916070474FF6FF73CB
:10AAE000F8E700BFD02D002008B5064B01211878EB
:10AAF000FFF774FF08B115F071F80020BDE80840B9
:10AB000004F06ABDCC2D002008B5054B1878FFF77E
:10AB100067FF18B1BDE8084015F060B808BD00BF78
:10AB2000CC2D002076DF70477ADF70477CDF7047DE
:10AB300015F054B803F0AABF07B503784BB93B2111
:10AB40004088FFF7EFFF08B303B05DF804EB15F0A2
:10AB500045B8012B1AD1134B1B685B0416D5124B59
:10AB60001B68032B12DD2F21104816F0EDFC80B17D
:10AB70002F210E4816F0E8FC411C0D4B0D4AD3F86E
:10AB8000043500920420682206F00EF803B05DF848
:10AB900004FB5C21054816F0D7FC08B15C21E8E70E
:10ABA0000249EAE7482E0020442E0020CA1A040079
:10ABB00000100140FA1A040013B500F01FFC08B1A0
:10ABC00015F00CF802AC002344F8043D01202146A6
:10ABD00000F042FB08B115F001F8204600F0A6FB9A
:10ABE00008B114F0FBFF02B010BD00001FB504ACAB
:10ABF0001123104804F80C3D16F09EFC0D4982B25A
:10AC00002046FFF793FF08B114F0E8FF08220DEB90
:10AC10000200002116F0C8FB074A4FF0C87302A8D3
:10AC2000CDE90223FFF780FF08B114F0D7FF04B08D
:10AC300010BD00BFB41A04007800C80010B58AB077
:10AC400001AC08220021204616F0AEFB124A4FF05C
:10AC5000C873CDE9012300211C2203A816F0A4FB30
:10AC60004FF4803340F6CD41CDE9041303238DF832
:10AC700018300023ADF81A308DF81C30074B0893BC
:10AC800003A8074B0394099300F052FD08B114F098
:10AC9000A5FF0AB010BD00BF7800C80039AB0200A4
:10ACA00031AB020070B5EFF3108672B60C4A9468AF
:10ACB00001239CB993600B4B0B4DD3F880102940B6
:10ACC0001160C3F88050D3F8841051604FF0FF3208
:10ACD000C3F88420047006B962B670BD0370FAE749
:10ACE0008859002000E100E0FC06FFBD10B5084BCC
:10ACF0009A685AB150B9EFF3108172B6054A1C68D0
:10AD000014605C685460986001B962B610BD00BF01
:10AD10008859002000E100E06DDF704779DF70475F
:10AD20007DDF704764DF70472DE9F74F0C9CBDF85D
:10AD300034B02788002580468A4691462E46B8F8CA
:10AD40000020B2420BDC35B12288013AD21B92B20C
:10AD5000FF2A39D8DA55002003B0BDE8F08FD8F8C3
:10AD6000042052F82600019000220DF1030101A8F1
:10AD7000FFF7D8FF0028EFD19DF803204A4521D1E5
:10AD80002288002D14BF0020022002EB090101449B
:10AD9000594519DC3DB9013292B2228003F802A074
:10ADA00022880132228022880DF103011A4401A871
:10ADB000FFF7B8FF0028CFD121889DF803200A446F
:10ADC000228001250136BAE70C20C5E72DE9F341C1
:10ADD000089CBDF824501746CDE9004502220646DE
:10ADE000FFF7A2FF48B9102239463046CDE90845A1
:10ADF00002B0BDE8F041FFF797BF02B0BDE8F081B7
:10AE00002DE9F04F00231688138090F82D3085B07F
:10AE100007460D46144653B3082E01D80C2026E1F0
:10AE200002A8FFF779FF002840F02181138808224B
:10AE3000CA54238801339BB21B222380CA54208822
:10AE4000013080B2208006220DF10901284416F05D
:10AE5000A0FA23889DF8082006339BB212F0FE0268
:10AE600018BF01222380EA54238801332380BB7852
:10AE7000FBB123880433B342D0D802A8FFF74EFFBA
:10AE8000002840F0F48023880322EA542388013309
:10AE90009BB219222380EA542388BDF8082001338D
:10AEA0009BB2E9182380EA54120A4A7023880233BD
:10AEB0002380FA789AB12388D91CB142AED80221F6
:10AEC000E954238801339BB201212380E95423886C
:10AED0000B449BB22380EA5423880B4423807A6876
:10AEE000AAB12388D91CB14298D8022192F9002036
:10AEF000E954238801339BB20A212380E954238833
:10AF000001339BB22380EA542388013323803B8999
:10AF1000002B40F0A0803B8A5BB1CDE900462B4678
:10AF20000722032107F11000FFF750FF002840F02F
:10AF30009E803B8B5BB1CDE900462B461522142148
:10AF400007F11800FFF742FF002840F090803A6AAE
:10AF5000002A40F08F80D7F82480B8F1000F30D05D
:10AF6000B8F804302188981C8A1C0244B2423FF68B
:10AF700055AFFE283FF652AF03336B54238801339D
:10AF80009BB2FF222380EA54238801339BB22380A3
:10AF9000B8F80020EA54E918120A4A7020880230F2
:10AFA00080B22080B8F804205AB1D8F808100029DF
:10AFB0006AD0284416F0EDF92388B8F80420134429
:10AFC000238097F82C30002B40F0998038780028A7
:10AFD0004DD03B88012B57D021888A1CB2423FF6C6
:10AFE0001DAF012805D17B7802330B449E42FFF44C
:10AFF00015AF023E761A04A9B6B221F8086DA8185A
:10B00000FFF78EFE98BB3978BDF80820022900F0C2
:10B01000BB807B78934202D3B24240F2B3800129D5
:10B0200040F0B4809BB29E42C0F0B080ADF80830D2
:10B030000821BDF80830FE2B3FF6F0AE2288013320
:10B04000AB542288013292B22280A9542288134440
:10B05000238000200BE0CDE900462B46062202218A
:10B0600007F10800FFF7B2FE00283FF454AF05B027
:10B07000BDE8F08FB4F800C00CF10603B3423FF610
:10B08000CDAE1188052901D80720F0E76FF4486E8E
:10B0900001EB0E039BB24FF27D3E7345F4D953880A
:10B0A000052BF1D96FF44860181880B27045EBD9C0
:10B0B0004FF6FF70814203D0834201D09942E3D81A
:10B0C000052305F80C30238801339BB2122123801D
:10B0D000E954238801339BB223801188E954E8188E
:10B0E000090A4170238802339BB223805288EA54B4
:10B0F000E918120A4A702388023323802BE7BB6ABF
:10B10000002BC1D04FF000094FF00C0A4FF0160B86
:10B1100097F82C305FFA89F293427FF657AFB96AFD
:10B120000AFB02F201EB0208B8F80430981CFE2872
:10B130003FF674AE208803332B54238801339BB22F
:10B14000238005F803B0238801339BB223808A5AF9
:10B15000EA54E918120A4A702088023080B220802E
:10B16000B8F804205AB1D8F8081000298CD0284427
:10B1700016F00FF92388B8F804201344238009F14E
:10B180000109C5E7092154E7B242FBD9ADF80860CF
:10B190004EE701600B6843604A68934204BF002396
:10B1A00043607047436843B1026891680B44436051
:10B1B0005268934204BF0023436070474BDF7047DF
:10B1C0001FB50D4C01A8FFF7F9FF70B9214602A881
:10B1D000FFF7DFFF039B002BF4D00198D3E9002198
:10B1E000904702A8FFF7DEFFF4E7052801D014F02E
:10B1F000F5FC04B010BD00BF281B040060DF7047E1
:10B2000069DF704761DF704730B5114B1B78A9B01B
:10B21000E3B1104D94240DF1020103A8ADF80240F2
:10B22000FFF7F0FF70B9294601A8FFF7B2FF029BB4
:10B23000002BF0D003A8D3E90021904701A8FFF725
:10B24000B1FFF4E7052801D014F0C8FC29B030BDE7
:10B2500076360020341B0400F0B5074685B00D4655
:10B2600000295ED0304B0B600C22002101A816F0A3
:10B270009BF8012606232A68ADF8083001A9202092
:10B280008DF804708DF80660FFF7BAFF0C220021DC
:10B2900001A816F089F800242A688DF8056001A934
:10B2A00040208DF806408DF80740FFF7A9FF0C22DB
:10B2B000214601A816F078F845232A68ADF8063033
:10B2C00001A923208DF80470FFF79AFF0C22214674
:10B2D00001A816F069F82A688DF8046001A93046C3
:10B2E000FFF78EFF0C22214601A816F05DF84FF4FF
:10B2F000B0632A68019301A9A120FFF781FF0C2206
:10B30000214601A816F050F89DF804302A6833430E
:10B3100001A9A0208DF80430FFF772FF204605B088
:10B32000F0BD0E20FBE700BFA02D002008B5FFF701
:10B3300065FF10B9014B01221A7008BD7636002056
:10B3400010DF704711DF704713B50446094968469E
:10B35000FFF71FFF019808B902B010BDD0E9003116
:10B360002046984718B16846FFF71CFFF2E7112006
:10B37000F2E700BF441B040013B5044607496846C2
:10B38000FFF707FF019B0BB902B010BD2046D3E9C0
:10B39000002190476846FFF705FFF3E75C1B0400B8
:10B3A000064B9A6822B11A6822F480021A6070472C
:10B3B000034B4FF48002C3F8802070478859002067
:10B3C00000E100E00B4991F816335A09EC231341D0
:10B3D000DB0706D5084B9A683AB94FF480030B6037
:10B3E000704742F2020014F0F9BB1A6842F480027E
:10B3F0001A60704700E100E088590020F7B5184F47
:10B400003C785CBB174E012520463570FFF79CFF4A
:10B41000112820D02046FFF7AFFF134B186801908A
:10B4200002A800F8054DFFF73DFC104901A8FFF701
:10B4300087FF0446B0FA80F0400938709DF8030099
:10B44000FFF754FC3CB90A4B34701C70FFF7BAFF8D
:10B450002846FFF791FF204603B0F0BD0824FAE725
:10B460007836002077360020401B040051B80200D7
:10B4700079360020F7B5154F3B7813B3144E0120F1
:10B480003070FFF761FF11284FF000051BD002203C
:10B49000FFF772FF02A800F8015DFFF703FCFFF75A
:10B4A00051FF04469DF807003D70FFF71FFC2CB9C3
:10B4B0003470FFF775FF0320FFF75EFF204603B0EF
:10B4C000F0BD0824FAE72C46F8E700BF78360020E4
:10B4D00077360020054B1B7833B1054B1B780BB139
:10B4E000FFF7C8BFFFF78ABF0820704777360020F4
:10B4F00078360020014B1878704700BF783600205E
:10B5000007B508496846FFF744FE019B13B903B02D
:10B510005DF804FBD3E9002090476846FFF742FE40
:10B52000F3E700BF501B0400FFF7EABF75DF704769
:10B5300076DF70477ADF70477BDF7047034B1A88EE
:10B5400082420CBF18460020704700BF983600208A
:10B55000024B9B6903B11847704700BF7C3600203F
:10B5600037B585B22846FFF7E9FF034670B1164CA0
:10B57000017A227B91420BD200F10A012846FFF7A3
:10B58000D5FFE8B1112801D0FFF7E2FF03B030BDCD
:10B59000237C0022027243B13B212846FFF7C8FFFB
:10B5A00030F0080301D0FFF7D3FF6369002BEDD023
:10B5B00000228DF80420ADF8065001A89847E5E771
:10B5C0001A7A01321A72E1E77C36002013B50B4675
:10B5D000497A0F4C024669B9D4E901101C7A002C53
:10B5E00018BF0146586813F0A1F808B1FFF7B0FF83
:10B5F00002B010BD002119726369002BF8D001213F
:10B60000ADF806008DF8041001A89847F0E700BFD8
:10B610007C36002030B583880588B3F5FA7F24BFD7
:10B620006FF4F9729C184A8838BF002495420CD8F0
:10B630004088904209D38A88A24206D303F2F310CD
:10B64000904234BF0020012030BD0020FCE7000004
:10B6500070B50388112B014648D002D8102B1ED09C
:10B6600070BD122B52D0502BFAD12F4BC288DB89E0
:10B670009A42F5D1038A022BF2D186883046FFF731
:10B680005DFF05460028EBD001F1120000F0D6F86E
:10B6900030BB686813F08EF80028E1D009E0C37B66
:10B6A000012BDDD14FF6FF70FFF748FF054620B9AB
:10B6B0000420BDE87040FFF74BBF8E881B4A068010
:10B6C000002303721368C5F80A300A3053684360D8
:10B6D0001031FFF79FFF144B6872DB89002BBFD13D
:10B6E00029463046BDE87040FFF770BF8088FFF7FD
:10B6F00025FF04460028B3D0406813F05BF808B17A
:10B70000FFF726FF4FF6FF732380A9E786883046B0
:10B71000FFF714FF05460028A2D008310A30FFF7D2
:10B7200079FF6872DCE700BF7C360020AC36002071
:10B73000F8B5064650B305460FCD154F3C460FC42D
:10B7400095E8070084E807003068124B3B60B8B109
:10B75000FFF7F0FEC8B931680A681A604A685A6093
:10B760000D480E4A4FF6FF7303800D4B40F8043F1F
:10B77000002112F0C9FF002814BF0320002004E0BC
:10B780001846FFF7D9FE0028EAD0F8BD0E20FCE7E6
:10B790007C360020AC3600209836002061B50200CF
:10B7A000B436002050E8002F0B4640E8003C9CF0E7
:10B7B000000FF7D11046704750E8002F42EA01030E
:10B7C00040E8003C9CF0000FF6D11046704750E86E
:10B7D000003F43EA010240E8002C9CF0000FF6D144
:10B7E0001046704750E8003F03EA010240E8002C91
:10B7F0009CF0000FF6D11046704750E8002F02EB86
:10B80000010340E8003C9CF0000FF6D11046704761
:10B8100050E8003F03EB010240E8002C9CF0000FD1
:10B82000F6D11046704750E8003FA3EB010240E814
:10B83000002C9CF0000FF6D110467047007800F005
:10B84000010070470078C0F3400070470620704741
:10B8500030B5754B14461B6841F20102904287B027
:10B860000D4603F480437ED01ED8012845D0002B1E
:10B870005DD06E4B1B68002B59DD2F216C4815F0F5
:10B8800063FE002800F0C4802F21694815F05CFE9B
:10B89000411C684B684AD3F80435009201957B221D
:10B8A000012005F081F942E044F20102904200F0EB
:10B8B000858044F202029042D9D1002B37D05B4BF5
:10B8C0001B68002B33DD2F21594815F03DFE002861
:10B8D0006BD02F21564815F037FE411C554B22885E
:10B8E000D3F8043503926268CDE90152534A0092BD
:10B8F00001206C2205F058F919E0C3B14B4B1B68CD
:10B90000002B14DD2F214A4815F01EFE10B32F2105
:10B91000474815F019FE411C464B494AD3F80435F7
:10B920000092CDE901546022012005F03DF94FF06D
:10B93000A0434FF4F032C3F81825C3F80C25EFF3F9
:10B94000108372B64DF6AD6C3E4A1378002B68D169
:10B9500007B030BD5C21364815F0F6FD08B15C211A
:10B96000D6E73349D8E7002BE1D0304B1B68002BDA
:10B97000DDDD2F212E4815F0E7FD68B12F212C4881
:10B9800015F0E2FD411C2B4B2F4AD3F804350092F1
:10B99000CDE901546322C7E75C21254815F0D4FDA9
:10B9A00008B15C21EBE72249EDE75C21204815F066
:10B9B000CBFD08B15C218DE71D498FE7002BB6D088
:10B9C0001A4B1B68002BB2DD2F21194815F0BCFD66
:10B9D000A8B12F21164815F0B7FD411C154B226860
:10B9E000D3F8043504926268CDE90252A26801924C
:10B9F000164A00920120772205F0D6F897E75C21DD
:10BA00000B4815F0A1FD08B15C21E3E70849E5E723
:10BA10005C21074815F098FD08B15C2135E7044921
:10BA200037E730BF91E700BF482E0020442E0020AA
:10BA3000681B0400001001400C1C0400CC1B040017
:10BA4000901B0400E82D0020AA1B0400EB1B04003F
:10BA500007B50023ADF800300146054B01936A4657
:10BA600044F20200FFF7F4FE03B05DF804FB00BFF0
:10BA7000F126040001461022014815F08ABC00BFDF
:10BA8000D436002010B50B4C0B490822204615F087
:10BA900080FC0822A018094915F07BFCE3790422F8
:10BAA00062F30713E371237A022262F3871323728E
:10BAB00010BD00BFD436002060000010A4000010AC
:10BAC00000487047D4360020064B002203F58071F1
:10BAD0005A805A6003F8082B8B42F9D1024B1A6046
:10BAE000704700BFE4360020E4370020F0B50C4B6F
:10BAF0000C4C1B68064620227BB1013B14F8330036
:10BB000050B104EBC3056F88B74202D16D688D4216
:10BB100002D0013AF0D11046F0BD1F23EEE700BF7E
:10BB2000E4370020E436002030B5084A084C13689A
:10BB300004EBC3056960012104F833100B44202B8A
:10BB400008BF00236880136030BD00BFE4370020C9
:10BB5000E4360020C0F30C038B42084438BFA0F544
:10BB60000050C01A70470000F0B50D4B0D4A1E681A
:10BB700000218E4212D0156800230AE052F8044CCE
:10BB800004EBC30714F83340844201D17868F0BD58
:10BB900001339D42F2D101310832EAE70020F6E795
:10BBA000E8370020F037002000B58DB040B99A1C6E
:10BBB00006D0012201A88DF80420029301F0DAFAE0
:10BBC000034B186803F000FF0DB05DF804FB00BFE5
:10BBD0000438002010B50378044613B97846FFF7FF
:10BBE00037FFE188A069FFF7B5FFE1690A060B0A94
:10BBF000101843F1000110BDF8B5037805460E4654
:10BC000013B97846FFF724FF104AA88A0023144688
:10BC100019018F5A874214D1002353520C4A1368DA
:10BC2000591C03F007031B011160AA8AE25206B1F6
:10BC30006E781C442846A670FFF7CCFFC4E90201C9
:10BC4000F8BD0133082BE3D1E8E700BF0838002036
:10BC50008838002010B50378044613B97846FFF7FA
:10BC6000F7FE607A431C01209840013810BD2DE991
:10BC7000F0410E468EB015461C46074610B9784670
:10BC8000FFF7E6FE16B97846FFF7E2FE636AA27890
:10BC900002330593E378A2F10800002B14BF0121C1
:10BCA00002210DF1040842424241434604F10C00D6
:10BCB00003F0BDFFA3788DF83430237BADF820501E
:10BCC000022B16FA85F5CDE906870B960C950FD158
:10BCD000236913B97846FFF7BBFE23690993102344
:10BCE00005A8ADF8283003F09EFF0EB0BDE8F08146
:10BCF0000023F5E710B50F4B0446006F984201D0C2
:10BD000008F0A7FC04F1300003F0D8F894F84C30A8
:10BD1000022B03D104F1540003F0D0F82046742222
:10BD2000002115F041FB002084F84C00BDE81040D4
:10BD300002F020BAA438002010B590F84C30012B46
:10BD40008CB0044602D07846FFF782FE01238DF8BE
:10BD5000043001A8A36D029301F00CFA2046FFF70E
:10BD6000C9FF0CB010BD0000B2F5C07F2DE9F0474F
:10BD700082468846914602D97846FFF769FE08F167
:10BD8000FF335E422A4F5E41742303FB067393F830
:10BD90004C20002A39D1742505FB067586BB254B3E
:10BDA0003B67742404FB0674236F9BB33022514617
:10BDB000284615F0EEFA0023B8F1010F2365A4F828
:10BDC0004E902BD11C4A84F85630127D84F857309F
:10BDD00084F8543084F85520DAF82820A4F85C3030
:10BDE0006FF00103A362154BA265A36325640120D4
:10BDF00002F0C0F9742303FB067686F84C800AE053
:10BE0000484608F024FC2867CBE70136042E03F1EE
:10BE10007403BCD100252846BDE8F0876FF001020D
:10BE200084F86C30064BE365A2626566054BDCE77F
:10BE3000243A0020A43800208C380020E7C30200F8
:10BE4000E5CA02004DC3020010B50446808A02F024
:10BE500033FC01281CD1237BD3B194F91620002A8E
:10BE600018DBE27D5AB1022B12D094F90330002B7B
:10BE700010DBA378002B0CBF0020072010BDE27858
:10BE80000AB9012B06D1237833B9A378042BF2E742
:10BE90001020F3E70720F1E70020EFE71FB50022AD
:10BEA0000B468DF80F2028B30230086018460DF1BC
:10BEB0000F0103F0BAFE9DF80F30DBB1144B1B6885
:10BEC0005B0717D5134B1B68032B13DD2F2112487B
:10BED00015F03AFB98B12F210F4815F035FB411CA6
:10BEE0000E4B0F4AD3F804350092042040F237423B
:10BEF00004F05AFE9DF80F0005B05DF804FB5C21CC
:10BF0000054815F021FB08B15C21E5E70249E7E7A8
:10BF1000482E0020442E0020691C0400001001401F
:10BF2000861C040070B50446D0E906128CB0808AE5
:10BF300005F07EFD0546A0B12C22002101A8A68AAD
:10BF4000E46915F031FA0F238DF804304FF0000347
:10BF500064F3000301A8ADF808608DF80A3001F021
:10BF600009F928460CB070BD2DE9F04F99461378B9
:10BF7000D2F81880F3B007468A46144623B1D18818
:10BF80004046FFF7E7FD9061E378A278002BA2F12D
:10BF9000080003AD14BF0121022104F10C06424246
:10BFA0002B464241304603F042FEA278C4F8188086
:10BFB000CDE908571FFA8AF5AB1A9BB21F44ADF8BA
:10BFC0002830E3780E974FF0000812AF0D978DF8E8
:10BFD0003C20ADF83080002B65D04FF0100B04F101
:10BFE000240A237BC4F82480022B02BF2369ADF806
:10BFF00030B00B93206A2179524611F053FF606AEA
:10C0000030BB237B022B05D13146E08912F004F8C6
:10C010000028E6D1374B1B685B0741D5364B1B68C0
:10C02000052B3DDD2F21354815F08EFA002858D01C
:10C030002F21324815F088FA411C314B314AD3F890
:10C0400004350092062040F20E7204F0ADFD27E0A8
:10C0500007A9FFF723FF0028CCD02046FFF762FF97
:10C06000F0B9A2780B908DF81C0096E80300A38A23
:10C07000ADF82A30AD1A0CAB01228DF8282083E8E8
:10C080000300A37D8DF84030236A0E9307A8636AEE
:10C090000897ADF824500F93CDF8449001F06AF85A
:10C0A00073B0BDE8F08F227B012AB3D1A046E089AE
:10C0B000B4F814A048F8243F414611F027FF07A91F
:10C0C000606AFFF7EBFE0028C7D160624146504628
:10C0D00011F01CFF07A9606AFFF7E0FE002899D065
:10C0E000BBE75C21054815F02FFA08B15C21A0E7F9
:10C0F0000249A2E7482E0020442E0020691C0400BB
:10C1000000100140571D0400C37D0A7830B5002B94
:10C110003DD0C37822F07F0203F07F031A430A70F8
:10C120000B78027803F07F0343EAC2130B700378A5
:10C1300063B38378083B5A425A414B7803F07F033C
:10C1400043EAC2134B708A78C58802F00302C5F334
:10C15000861442EA850223F07F032343D2B28A7019
:10C160004B70CB78057A03F01F03C5F3C10422F0AE
:10C17000030243EA45132243DBB2CB708A70427A52
:10C1800023F01F0302F01F021343CB7030BDC478AD
:10C1900022F0400343EA8413DBB20B70027923F0F0
:10C1A0003F0302F03F0213430B70B9E72DE9F04162
:10C1B000837890461344C27D002A14BF0B220F22BD
:10C1C000934286B004460F462FD8024612F80C1B45
:10C1D0000092002914BF042501252B440293836A91
:10C1E0000193C36A0393684600238DF8103003F06F
:10C1F000B5FE064670B9059920460D44FFF784FF49
:10C20000E37D5BB142463946284615F0C2F86846E0
:10C2100003F0C6FE304606B0BDE8F0812346424634
:10C2200029463846FFF723FDF1E70926F2E700002B
:10C2300038B590F84C30012B044602D07846FFF711
:10C2400007FC02F07BFE237B094A012B05BFD2E9E4
:10C250000315A37DD16805FB0311012284F8482052
:10C26000014404F13000BDE8384002F03EBE00BF9A
:10C270008C38002070B50D4690B0044610B9784651
:10C28000FFF7E6FB94F84C30022B03D10021204647
:10C29000FFF7B2FC2C22002105A8A66D15F084F84A
:10C2A000102305A88DF8143006968DF81C5000F068
:10C2B00061FF2046FFF71EFD154B1B685B071BD572
:10C2C000144B1B68032B17DD2F21134815F03CF985
:10C2D000A0B12F21104815F037F9411C0F4BD3F8AE
:10C2E0000435029594F84C2001920D4A00920420E6
:10C2F00040F22E2204F058FC10B070BD5C210648BC
:10C3000015F022F908B15C21E4E70349E6E700BF34
:10C31000482E0020442E0020691C0400001001401B
:10C32000381C040070B5084E05460024301990F8FA
:10C330004C30022B02D12946FFF79CFF7434B4F530
:10C34000E87FF3D170BD00BF243A002008460021E9
:10C35000FFF790BF90F855204AB1013A074B80F89B
:10C360005520002280F85420186803F02DBB017B73
:10C37000012901D1FFF77EBFFFF7DEBC04380020A2
:10C3800038B5094D0024281990F84C30012B05D1FF
:10C3900090F84830022B01D1FFF7DCFF7434B4F57C
:10C3A000E87FF0D138BD00BF243A002008B50378FB
:10C3B000192B0FD01A2B08D0182B13D10820FFF7F8
:10C3C000B1FFBDE80840FFF7DBBF0379012B09D1BE
:10C3D0000620F4E70379012B04D10720BDE80840CB
:10C3E000FFF7A0BF08BD91F84C30012B10B50C46EB
:10C3F00002D07846FFF72CFB07F0B0FB30B10020ED
:10C4000007F04CFB022384F8483010BD2046BDE8FD
:10C410001040FFF79FBF2DE9F04F044689B00F464B
:10C4200009B100230B6004F10C0394F854500193FC
:10C430004FF001084FF0000B627AAA4203D20020AD
:10C4400009B0BDE8F08F216D08FA05F30B4259D110
:10C45000E37D2572002B0CBF0C260826954206FBB7
:10C4600005FA237808BFB4F84E608DF818B008BFFD
:10C47000A6EB0A06002B14BF4FF004094FF0010988
:10C4800006EB09030493019B0293A36A039302A89A
:10C49000E36A059303F062FD0028D1D1079B99441C
:10C4A00045B994F857302BB9A36984F85780C3F382
:10C4B0000C03E380E37D8BB994F8563073B915B162
:10C4C0007846FFF7C5FAB4F84E10A2788A1A216FA1
:10C4D00023460846FFF7CBFB84F856800799204691
:10C4E000FFF712FE216F32465144484614F051FFC7
:10C4F00002A803F055FD17B13B6801333B606B1C8C
:10C5000084F854300135EDB296E700002DE9F04390
:10C5100007468FB01046884615469946FFF702FD3C
:10C520000446002860D1EE78002E40F0AE80B8F1CD
:10C53000060F59D138787A78DFF8A8C1830103F45F
:10C54000FE5343EA9203D7F802204FF0740812BA60
:10C55000674608FB04C696F84C10012925D1B6F8A9
:10C5600014E0E9898E4520D1F18899421DD1B6F8B1
:10C570005CE0A98ABEF1000F01D08E4515D110F004
:10C58000800F4FF074033BD003FB0473A3F85C10DF
:10C59000742303FB0474256D15432565002A61D1BE
:10C5A00003213046FFF766FE1EE00134042CD0D193
:10C5B000464B1B685B0717D5454B1B68012B13DDEA
:10C5C0002F21444814F0C0FF88B12F21414814F0B6
:10C5D000BBFF411C404B414AD3F804350092022076
:10C5E00040F2846204F0E0FA0FB0BDE8F0835C2111
:10C5F000384814F0A9FF08B15C21E7E73549E9E7BD
:10C6000003FB0473DB898B42C2D0304B1B685A0793
:10C61000EAD52F4B1B68012BE6DD2F212D4814F0A6
:10C6200093FFB0B12F212B4814F08EFF411C2A4BF1
:10C63000AA8AD3F804350292742202FB0474022001
:10C64000E2890192264A009240F28C6204F0ACFA30
:10C65000CAE75C211F4814F077FF08B15C21E2E7CC
:10C660001C49E4E73046FFF7F5FA854203D130462E
:10C67000FFF762FBB8E7002184F854103046FFF75B
:10C68000CAFE3046FFF7D4FDAEE73046FFF76CFA3E
:10C6900003460028A8D005F10C012A6A0B9203C9B1
:10C6A000AA8AADF8222009AA82E80300AA7D8DF8A3
:10C6B00030202A788DF82020EA6A8DF81460CDE9C0
:10C6C00006780D92494605A898478DE7482E002028
:10C6D000442E0020691C040000100140991C040035
:10C6E000C71C0400243A0020F0B5C37D15468278AB
:10C6F000002B2A4414BF4FF480734FF4C07393424D
:10C70000C7B00E4679D3404C0023E11891F84C7025
:10C71000012F08D1B1F814C0878ABC4503D1CF8955
:10C72000C1898F426BD07433B3F5E87FEDD101211D
:10C73000FFF71AFB0446002863D02A463146006FF3
:10C7400014F027FE002304A920460493FFF763FE9C
:10C7500030F0040506464BD1049B13B12046FFF789
:10C7600067FD2A4B1B685B0728D5294B1B68032BE9
:10C7700024DDB4F84E10274B8029186828BF80218B
:10C78000002305AE8B421CD100222F21224806F83F
:10C79000132014F0D9FE10B32F211F4814F0D4FE3B
:10C7A000411C1E4B1E4AD3F8043501921D4A0092CB
:10C7B000029640F27152042004F0F6F9284647B080
:10C7C000F0BD226FD25C170902F00F02C75D06F8B8
:10C7D0001370875C06EB430201335770D2E75C218C
:10C7E0000D4814F0B1FE08B15C21D6E70A49D8E73C
:10C7F0002046FFF77FFA3546E0E70925DEE7082502
:10C80000DCE70425DAE700BF243A0020482E0020A8
:10C81000442E00204C2E0020691C04000010014012
:10C820005B1C0400321A040010B54FF4E8720021BA
:10C83000154814F0B9FD002405F06AF9134B1448AB
:10C840001C602146802214F0AFFD124B1249134A9E
:10C8500013489C75C3E9001212494CF25032C3E9E7
:10C8600002211A6140F604029A8203F08FF80E4BFF
:10C8700018600E4B0E481C6005F04CFA0D48BDE8E0
:10C88000104002F0FFB800BF243A00208838002092
:10C89000083800208C38002080969800F04902006B
:10C8A000A1D0020020A1070004380020E8370020B2
:10C8B000A9BB0200EC2D002005F0B2B830B504464B
:10C8C0008DB000286CD00369002B69D0C369002BA0
:10C8D00066D08569002D63D05A788DF804201A78C7
:10C8E0000993838A82F001020B2B8DF80320027BCF
:10C8F00043D90121022A8DF8001001D1294A927DE5
:10C90000002A44D1042213448DF802200B330C2258
:10C9100093FBF2F3013B8DF8093000238DF80830CA
:10C9200094E8030000238DF8173003AB83E803007D
:10C930002389ADF81430A37A8DF81630236A0A9350
:10C940002046DF2308950B9311F068FC28B123786B
:10C95000012B0CBF2023FF230B9368462569A48A73
:10C96000FFF772FA38B99DF800302246294668462A
:10C970009BB1FFF7B9FE0DB030BDC17A0029B8D127
:10C98000012A0CBF012200228DF8002001D10822CB
:10C99000B9E704238DF80230C2E7FFF707FCEAE7A6
:10C9A0000E20E8E78C380020F0B503468DB00F4626
:10C9B000002843D04568002D40D08669002E3DD028
:10C9C000846802788DF803200B2C4FF00002099246
:10C9D00094BF027B012202F0010100208DF80010BB
:10C9E0008DF8020032B1E11DC90801398DF8091036
:10C9F0008DF8080003F1100103C901228DF81720FA
:10CA000003AA82E80300DA89ADF814201A7F1B6AB2
:10CA1000089668468DF81620CDE90A73FFF714FAD8
:10CA200038B99DF800302246294668461BB1FFF709
:10CA30005BFE0DB0F0BDFFF7B9FBFAE70E20F8E79B
:10CA400070B5067B012E8CB004460D4646D10B22F4
:10CA50000021684614F0A8FC9DF80120E3888DF8B9
:10CA6000055002F0030242EA83028DF801202A0EEB
:10CA70008DF802202A0C8DF803202A0A8DF8042054
:10CA800062788DF81C60911E4A424A41C3F38613B6
:10CA900043EAC2138DF8003006230593A38AADF84C
:10CAA0001E30002308938DF80C308DF81830E38980
:10CAB000ADF81A30E36A0B93A37D226ACDF810D04B
:10CAC000099243B96FF0010103A88DF82830FFF7F0
:10CAD0006BFF0CB070BD024B5B7DF3E70020F8E705
:10CAE0008C38002010B591F84C30022B0C4602D047
:10CAF0007846FEF7ADFF022384F86C3094F84C3092
:10CB0000022B06D1216D2046FFF79AFF08B984F861
:10CB10006C0010BD2DE9F04F0C469FB090461F46AB
:10CB20000546002800F0F681002A00F0F38121B9C3
:10CB3000092630461FB0BDE8F08F1822414609A8EB
:10CB400014F027FC2B78002059B2CA0F81428DF8CF
:10CB50001820ACBF0122042294428DF81900E7D3BB
:10CB60009DF82F60EEB103F07F0381428DF81B30FA
:10CB70008DF81A002EDA6A78AB78920102F4FE5230
:10CB800042EA9302ADF81E20DB00EA7803F01803B6
:10CB900043EA521302F01F028DF820308DF8212055
:10CBA00018E0C3F38010002903F03F038DF81B0049
:10CBB0008DF81C3008DA95F90130002BACBF042346
:10CBC00008238DF81A30D6E704231A4494428DF8CE
:10CBD0001A30ADD300230F933B78032B02D978464C
:10CBE000FEF736FF3A78B94B06A853F82230119376
:10CBF000FFF72AF9064600289BD1404606F0B4FF0D
:10CC0000D8E90312B8F8080004F04EFF002890D1CC
:10CC10003146082204A814F0C7FB04A9B8F80200A2
:10CC200011F0FAF938B19DF8193043F001038DF88D
:10CC30001930059B0A939DF81930002B3FF479AF0A
:10CC40009DF81820002A00F05381A14A4FF0000AF5
:10CC5000934602EB0A0393F84C10022940D00AF1E4
:10CC6000740ABAF5E87FF4D19DF8183013B9784604
:10CC7000FEF7EEFE06A8FEF7ADFFBDF82CE0954AE4
:10CC80004FF0000C4FEA0C1838F8023073456CD1A5
:10CC90009044D8E9029A514508BF484565D106AD90
:10CCA0000FCD12AC0FC40FCD0FC495E80F0084E870
:10CCB0000F0098F802308DF84930002B3FF439AF5F
:10CCC00012A8FEF7C7FF014612A8FFF7B9FE98F8B1
:10CCD0000230DC077FF52DAF06A8FFF723F928E720
:10CCE000988ABDF82C108842B9D106A8CDE9023245
:10CCF000FEF770FF029B804618468946FEF76AFFE2
:10CD0000894508BF8045039AA9D206F027FF00286D
:10CD10003FF40FAF704B1B685D077FF50AAF6F4B99
:10CD20001B68012B7FF705AF2F216D4814F00CFC19
:10CD300090B12F216A4814F007FC411C694BBDF8E3
:10CD40001E20D3F804350192674A009202204FF466
:10CD5000577203F029FFECE65C21614814F0F4FB04
:10CD600008B15C21E6E75E49E8E70CF1010CBCF193
:10CD7000080F87D10023742202FB03BA9AF84C10E3
:10CD8000022915D1BAF81410714511D106A8FEF781
:10CD900021FF804650468946FEF71CFF494508BFE3
:10CDA000404580F0B98005215046FFF763FA02E064
:10CDB0000133042BE0D106F0D1FE10B10520FFF7BE
:10CDC000B1FA9DF82F209DF82130002A0CBF4FF0BA
:10CDD0000C084FF0080803FB08880CBF4FF4C07321
:10CDE0004FF48073984527D93B4B1B6858077FF554
:10CDF000A0AE3A4B1B68002B7FF79BAE2F21384823
:10CE000014F0A2FB78B12F21354814F09DFB411C92
:10CE1000344B364AD3F804350092CDF8048040F202
:10CE20009232012095E75C212D4814F08DFB08B16A
:10CE30005C21E9E72A49EBE7BDF81E100C98FEF7E4
:10CE400089FE0D9A0146BDF82C0004F02DFE002845
:10CE50007FF46FAE4246022106A8FEF785FF8246A8
:10CE6000002859D106F07AFE10B17846FEF7F0FDA1
:10CE7000002106A8FFF7E4FD2C22002112A814F0DF
:10CE800093FA10238DF8483012A802238DF8503001
:10CE900000F070F94DE65C21114814F055FB08B123
:10CEA0005C2148E00E494AE0002B0CBF0C2308230C
:10CEB0009C4200F0A78004215046FFF7DBF938E6DA
:10CEC0003B465246FFF750F8D5E000BF281C04004F
:10CED000243A002008380020482E0020442E00204C
:10CEE000691C040000100140081D0400331D0400EB
:10CEF000DA077FF51EAE9DF82F30681C611E23B146
:10CF00003B4606AAFFF702FB13E63B4606AAFFF7DD
:10CF10002BF80EE60E260CE65B4B1B685B071BD559
:10CF20005A4B1B68032B17DD2F21594814F00CFBBB
:10CF30000028B0D02F21564814F006FB411C554B59
:10CF40009DF82020D3F804350192534A0092042022
:10CF50004FF4717203F028FE06F000FE88BB9AF8C9
:10CF60004C30022B02D07846FEF772FDDFF82C81A0
:10CF7000D8F8009001F0E2FF09EB00010AF130005F
:10CF800001F0B3FF9AF80C30012B1AD19AF86C30EB
:10CF9000BBB99AF84C30022B02D07846FEF758FD08
:10CFA000D8E9013298F8151002FB013801F0C6FFEC
:10CFB00000EB08010AF1540001F097FF01238AF801
:10CFC0006C309DF82010DAF8503001228A4013426C
:10CFD0007FF4AFAD1343CAF850309DF82F309AF864
:10CFE0000920002B0CBF4FF00C084FF008088A42B4
:10CFF000A4F1040408FB01F87FF456AF08EB040326
:10D00000AAF84E30DAF818200C9B9A420BD20DF198
:10D01000240EBEE80F000AF10C0CACE80F009EE8ED
:10D0200003008CE80300DAF870002246291D404412
:10D0300014F0AFF95046DAF85040FEF70BFE844288
:10D040007FF477AD06F08AFD20B9DAF8501050462B
:10D05000FFF7F6FC9AF80130D9070CD59AF817308B
:10D06000DAF87000BAF84E10002B3FF429AF3B46B7
:10D070005246FFF74BFA50460121FEF7BDFD5046E0
:10D08000FEF738FE55E500BF482E0020442E002054
:10D09000691C040000100140471D04008C3800206A
:10D0A0002DE9F341194E00243746A046351995F86D
:10D0B0004C30012B0CD102A9284641F8048DFFF712
:10D0C000AAF9042801D0019B13B12846FFF7B0F854
:10D0D0007434B4F5E87FE9D100257C1994F84C301C
:10D0E000022B0AD194F86C30022B06D1216D204618
:10D0F000FFF7A6FC08B984F86C007435B5F5E87F35
:10D10000EBD1012002B0BDE8F08100BF243A00203D
:10D110002DE9F0418846074608B3144E3468022CC6
:10D120001BD8002545450AD1114B43F8347003EB59
:10D13000C40301345D6034600020BDE8F08107EB7A
:10D14000C5035B685BB117F83500030609D450B11D
:10D15000FEF70AFD38B90135E4E70420EDE70E20BB
:10D16000EBE70B20E9E70F20E7E700BFE8370020F7
:10D17000EC370020F8B5074610B97846FEF768FC92
:10D180000F4E346894B10F4D01232B7023791BB9D6
:10D1900054F8043C384698472468002CF6D12B7884
:10D1A000022B03D13168064C09B92970F8BD0B79FF
:10D1B0000E6813B1204603F07DFC3146F4E700BF52
:10D1C000F83B0020F43B002010B5044610B9784627
:10D1D000FEF73EFC00232372211D0248BDE81040EB
:10D1E00003F047BCF83B002010B5044610B9784660
:10D1F000FEF72EFC074A1378013B012B04D80223CB
:10D2000013700123237210BD211D0348BDE8104097
:10D2100003F050BCF43B0020F83B00200B888268F0
:10D22000D25A073222F00302134402889BB2043A16
:10D23000934288BF00230B80704713B58368CB1AD5
:10D2400002A921F8023DFFF7E9FFBDF8063080682A
:10D25000184402B010BD70B5064615460C4611BB09
:10D260007846FEF7F5FBFEB17846FEF7F1FB6B1E44
:10D270002344B3F1005F34D94FF08052D2F80C212F
:10D2800002F50022B3EB822F2ED2042D02D878466D
:10D29000FEF7DEFB35800023043D7380B380B4606D
:10D2A0002580A37070BD10B97846FEF7D1FBB4F1AC
:10D2B000005F12D94FF08053D3F80C3103F50023EF
:10D2C000B4EB832FD3D34FF08053D3F80C3103F555
:10D2D0000053B4EB832FC7D2C9E7B4F5000FF2D8DF
:10D2E000C2E7B3F5000F08D94FF08052D2F80C21F5
:10D2F00002F50052B3EB822FC7D37846FEF7A8FBA6
:10D30000C3E738B5044610B97846FEF7A1FB62883A
:10D31000A36813449B78012B02D17846FEF798FB53
:10D32000EFF3108572B6A268A18811448B78032BA5
:10D330000AD12046FFF781FFA368C31A6380002348
:10D34000837005B962B638BD002393706380A380F3
:10D35000F7E7F8B50E461546044610B97846FEF7CD
:10D3600077FB16B97846FEF773FB6288A36813440F
:10D370009B78012B02D17846FEF76AFB002D37D04F
:10D380002388043B9BB29D4232D8EFF3108772B6DC
:10D390006188A388EA1D22F00302994292B204D266
:10D3A0005B1A9A4210DD042016E018D92088401A32
:10D3B000904209D29A42F6D8032881BFA3685B182D
:10D3C00004229A70002363806288A1688B188D52B2
:10D3D00001229A700020336007B962B6F8BDA268D6
:10D3E00013449B78002BDED193706380A380EBE71E
:10D3F0000920F3E7F8B50D461646044610B97846FD
:10D40000FEF726FB15B97846FEF722FBAB78012B19
:10D4100002D07846FEF71CFB2B88B34202D2784636
:10D42000FEF716FB16B97846FEF712FBEFF31087EE
:10D4300072B60223AB70E1182E802046FFF7EEFE95
:10D440006288A38893421FBFA3689B1800229A702A
:10D4500007B962B6F8BD70B50D46044610B97846F6
:10D46000FEF7F6FA15B97846FEF7F2FAEFF31086F2
:10D4700072B6A288A36813449A78042A06D1211DA3
:10D480002046FFF7CBFEA288A36813449A78022AAD
:10D4900003D0032A08D0052003E003229A702B60F2
:10D4A000002006B962B670BD7846FEF7D1FAF7E7FC
:10D4B00038B5044610B97846FEF7CAFAEFF310857E
:10D4C00072B6A088A16801448B78042B03D1204652
:10D4D000FFF7B3FE01468878831E5842584105B9CC
:10D4E00062B638BD38B5044610B97846FEF7B0FAD2
:10D4F000EFF3108572B6A088A16801448878C31E36
:10D50000012B05D9831E5842584105B962B638BD72
:10D510002046FFF792FE0146F0E7F8B50D460446B7
:10D5200010B97846FEF794FA15B97846FEF790FAE6
:10D53000EFF3108672B6AB78012B19D0032B22D1F2
:10D54000A288A36813449D4202D07846FEF780FA71
:10D550000027AF70211D2046FFF760FEA288A36858
:10D5600013449B78042B00D1A78006B962B6F8BD9E
:10D570006288A36813449D4202D07846FEF768FA99
:10D580000023AB70F1E77846FEF762FAEDE710B5DD
:10D59000EFF3108472B68288816811448B78042B73
:10D5A00002D1FFF74AFE01468878B0FA80F04009C0
:10D5B00004B962B610BD037942799B1A03F57F2343
:10D5C00003F6FF7300EB03307047000010B5054809
:10D5D00084681C22002113F0E7FE2046BDE81040BD
:10D5E00004F074B8FC3B002070B5194CE36813B923
:10D5F0007846FEF72DFA237E13B17846FEF728FA17
:10D600006368092B02D97846FEF722FA114D0026ED
:10D61000636855F823309847022811D003280DD0AD
:10D62000012810D163680133092B636002D9784661
:10D63000FEF70EFA237E002BEAD004E06660F9E7DD
:10D64000237E0BB1207070BDBDE87040FFF7BEBFF8
:10D65000FC3B0020801D040010B50388044613B96C
:10D660007846FEF7F5F92088074B04EB800030EA96
:10D67000030203D06288B2F5FE4F04D11C4004F5CA
:10D6800080542078204410BD00F0FFFF70B50446A0
:10D690000E4647F6FE65FFF7DFFFB04207D2844231
:10D6A00005D24388013B9BB2AB42F4D870BD002049
:10D6B000FCE700000B78032B094B04BF00221A760D
:10D6C0001A78012A03D11B7E43B9FFF78DBF022AC6
:10D6D00004D10B78032B01D1FFF778BF704700BF4F
:10D6E000FC3B002010B50C4CE3681878002203F5D1
:10D6F0008051184404F0D2FA50B9E1680846FFF7A7
:10D700005AFF814206D001F58051E160032010BD2F
:10D710000120FCE70220FAE7FC3B00201FB50A4B82
:10D7200002221B688DF800200193084A4FF48053B1
:10D7300069460120029300F001FFB0FA80F0400931
:10D7400005B05DF804FB00BF1C3C0020183C002025
:10D750001FB50123CDE902210190054A8DF8003063
:10D760006946184600F0EAFE05B05DF804FB00BF0C
:10D77000183C00202DE9F047254BD8680279417903
:10D78000013A91421E4603D101205876BDE8F08748
:10D7900000F580531F491C781C440B6813F8045F84
:10D7A0001D44FFF708FF6388013B9BB247F6FE620A
:10D7B000934200F58057884604D920463946FFF742
:10D7C00065FF0446DFF850A04FF001092CB9B4FA08
:10D7D00084F4640974760120D8E7D8F800106288D0
:10D7E000284601F5805104F059FA05460028EED08C
:10D7F00004225146204686F81890FFF7A9FF28B961
:10D8000020463946FFF742FF0446DFE70020BDE728
:10D81000FC3B00201C3C0020441F040038B5104C89
:10D82000E36818784FF6FF7203F58051184404F04E
:10D8300035FA88B1E36819780B4498420CD0657EBC
:10D840000849094B0422002D08BF1946FFF780FF45
:10D8500020B90120207638BD0120FCE70020FAE73E
:10D86000FC3B00204C1F0400481F040070B50C4D09
:10D870000C4EE96830680C7804302246FFF768FFE8
:10D8800058B9336804F0FC0404341C44EB686C6140
:10D890001A7813442B61012070BD0020FCE700BF03
:10D8A000FC3B00201C3C002008B5054B05491868CE
:10D8B0000422FFF74DFFB0FA80F0400908BD00BF19
:10D8C0001C3C0020083C002010B5074B074C196891
:10D8D000E06840F6FC720431FFF73AFF10B901200E
:10D8E000207610BD0020FCE71C3C0020FC3B002003
:10D8F00010B50C4CE1680846FFF75DFE81420AD185
:10D90000094B0A4918680422FFF722FF40B9012396
:10D910002376022010BD01F58051E1600320F9E774
:10D920000020F7E7FC3B00201C3C0020203C0020AE
:10D930002DE9F74F324C236913B97846FEF788F882
:10D94000636913B97846FEF783F8DFF8B89047F6B5
:10D95000FE6A6369D4E9030603EA0908A8EB030831
:10D96000FFF729FE7388013B9BB2534508F58058A9
:10D9700000F5805B06D930465946FFF787FE06461C
:10D98000002835D0354600275D4519D22A8807EB97
:10D990008202904509D986EA050313EA090F04D1EA
:10D9A0006B88013B9BB2534502D957B9012318E05C
:10D9B00028460192FFF750FE019A05461746E3E715
:10D9C000E7B13A4631466069FFF7C2FE90B9636934
:10D9D0001F44676115B97846FEF73AF825610023C0
:10D9E00035B1698847F6FF72914201D0002BB0D063
:10D9F000012000E0002003B0BDE8F08F0123EFE735
:10DA0000FC3B002000F0FFFF1FB50A4B0222DB6841
:10DA10008DF800200193084A4FF480536946012095
:10DA2000029300F08BFDB0FA80F0400905B05DF87C
:10DA300004FB00BFFC3B0020183C002010B54FF059
:10DA400010235A69013225D05A691AB35B69A3F5CC
:10DA50008053A3F58053174A196813604B1E033394
:10DA600025D8C1F30B0313BB134A1448D16001211D
:10DA70001170134913765376936051F82340844212
:10DA80000ED1536001200F4900F048FDFFF7ACFDB7
:10DA9000012010BD4FF08052516913694B43D8E704
:10DAA00001330A2BE9D17846FDF7D2FFEAE70020DF
:10DAB000EFE700BF1C3C0020FC3B002009DA02001D
:10DAC000801D0400B5D6020010B5044610B9784692
:10DAD000FDF7BEFF094B187860B1E068D96843795B
:10DAE000A0EB0333994206D3FFF765FD81428CBF5B
:10DAF0000020012010BD0020FCE700BFFC3B0020FF
:10DB0000024B1878003018BF01207047FC3B002002
:10DB100038B50E4C2378054613B17846FDF798FFCB
:10DB20002B78032B02D07846FDF792FFEB68E36079
:10DB3000012000230649A560636023762070637688
:10DB400000F0ECFCBDE83840FFF74EBDFC3B002088
:10DB5000B5D60200014B1868704700BF1C3C00207E
:10DB600010B5044610B97846FDF772FF63681BB123
:10DB700023680BB1A36813B97846FDF769FFA36862
:10DB80005A1E1A4202D07846FDF762FF0023C4E90C
:10DB9000033310BD70B50E460446F0B18368F3B18F
:10DBA000EFF3108572B6D0E90331994203D105B97C
:10DBB00062B605250FE04EB18368013B0B40D0E90A
:10DBC0000012304602FB031113F0E3FB236901331B
:10DBD000236135B962B6284670BD0E25FBE70925DD
:10DBE000F9E70025F7E70000024AD2F80034002BDD
:10DBF000FBD0704700E00140C0F30B0310B5E3B960
:10DC0000E9B1104C0223C4F80435FFF7EDFF01F62B
:10DC1000FF7121F47F6121F00F010144884205D199
:10DC20000020C4F80405FFF7DFFF10BDC4F80805A5
:10DC3000FFF7DAFF00F58050F0E71020F5E7092044
:10DC4000F3E700BF00E0014070B540EA010414F0C2
:10DC500003041BD1E2B195071AD10E4E0123C6F879
:10DC600004359508FFF7C0FFAC4205D10020C6F887
:10DC70000405FFF7B9FF70BD51F824305A1C03D0DA
:10DC800040F82430FFF7B0FF0134EDE71020F2E751
:10DC90000920F0E700E001404388012B05D0022B6A
:10DCA00001D1043008600120704704304860FAE771
:10DCB00008B508220221094803F063FB20B908488F
:10DCC000BDE8084003F0DABC064A91684160127B67
:10DCD0000272BDE8084003F083BB00BF2C3C00206B
:10DCE000082E0020783C002010B5044610B9784674
:10DCF000FDF7AEFE2346BDE81040184700B50A4BBD
:10DD00001A7B9B688DB0012A08BF03F1FF33039093
:10DD10000CA80493022300F82C3D8DF80820FFF78F
:10DD200029FA0DB05DF804FB783C002038B50E4DA3
:10DD30002B78C3B90D4B5C6804F50054B4F1807FB7
:10DD400011D8042201210A4803F01BFB20B909481D
:10DD5000BDE8384003F092BC012344602B70BDE85D
:10DD6000384003F03DBB38BD8C3C0020783C00209F
:10DD70002C3C0020F82D002010B501210C4803F0A8
:10DD800045FB80B902210A4803F040FB044650B924
:10DD900001461422074813F007FB074B1C70BDE82F
:10DDA0001040FFF7C3BF054803F068FCF7E700BF6A
:10DDB0002C3C0020783C0020503C0020282E0020E5
:10DDC00030B50D468DB07AB94B88012B0AD1124C73
:10DDD000227812B97846FDF73BFE104B6A685A600C
:10DDE000002323700DB030BD032A02D07846FDF722
:10DDF0002FFE2C22002101A813F0D6FA11238DF852
:10DE00000430074B0395DA681B69059201A8069355
:10DE1000FFF7B0F9E6E700BF8C3C0020783C00201B
:10DE20002C3C002013B501F041FD00216B46124A45
:10DE30001248134CCDE9001103F0F6F9009B0BB129
:10DE4000019A6AB900232360A3602373FFF730FFB0
:10DE500023686360FFF76AFF01F068FD02B010BD40
:10DE60001968A16019792173934203D91B790BB901
:10DE70002360EDE71368FBE799DC02002C3C0020EF
:10DE8000783C002008B503F047FCA0F5805008BDA1
:10DE90007FB500211822684613F086FA002302930A
:10DEA000FFF7F0FF0123009001936946054B0648F8
:10DEB000039303F0D3FA10B1044803F0DFFB07B07B
:10DEC0005DF804FBC1DD02002C3C0020182E002070
:10DED00008B5142200210A4813F066FA01F02EF862
:10DEE000084B094A09499A6000225860C3E90312A5
:10DEF0005A61074B1A70BDE80840FFF7C9BF00BF61
:10DF0000783C0020543C002001E00200008793038D
:10DF10008D3C002010B5074C23784BB90648074BC1
:10DF2000036000F0AFFD064800F0A6FF0123237058
:10DF300010BD00BF283C00206C3C0020DDE002004A
:10DF4000543C002010B501F0B1FC104A117B13467F
:10DF5000C9B9917BB9B9118A41F28262914202D862
:10DF60000B4A12787AB101221A739A68002401329E
:10DF70001C829A60FFF79CFE2046FFF7BFFE01F06F
:10DF8000D5FC204610BD0824F9E700BF783C0020EE
:10DF90008D3C002010B501F089FC174A547B1346D4
:10DFA000BCB1917B21BB118A41F28262914202D8BD
:10DFB000124A1278F2B11A7B002058732AB1012A52
:10DFC0000BD07846FDF744FD03E0FFF7BBFF0028C8
:10DFD000F7D101F0ABFC204610BDC3E90000187377
:10DFE0001882FFF78BFEFFF763FEFFF79FFEF0E757
:10DFF0000024EEE71446ECE7783C00208D3C00203E
:10E0000010B5164C237B2BB1012B12D07846FDF7AF
:10E010001FFD18E0228A41F282639A4202D8104B17
:10E020001B7883B1FFF7B6FF638A0BB1013B6382B4
:10E0300010BD228A41F282618A4208D8084B1B78BF
:10E040000BB1FFF7A7FF238A01332382ECE742F2EB
:10E05000B0118A42F5D96373E4E700BF783C002031
:10E060008D3C002038B51B4B1C7B05465CBB588A99
:10E07000E8B99C6812B9A14203D838BD621C91422C
:10E0800017D92A34A142F8D89A7B002AF5D1996091
:10E0900011491961C3E900225A731A73FFF708FE88
:10E0A000FFF744FE2846BDE83840FFF727BE002AA8
:10E0B000E3D09A6801329142DFD101225A73BDE860
:10E0C0003840FFF767BF012CD7D1002AD5D19A6815
:10E0D000F1E700BF783C00200000062D0378042BF8
:10E0E0000CD143681B787BB1027E8368511E4A4283
:10E0F0004A41416903F11000FFF7B4BF162B03D169
:10E10000427AC1680020F7E77047000038B5164C26
:10E11000D4E900239A4205461FD2207B134B1449B1
:10E12000012808BF0B469A4207D263682268403B29
:10E130009A4208D3FFF7FAFD05E001236373FFF766
:10E1400029FF0028F1D0EFF3108072B623685A1C23
:10E1500022602B6028B962B638BDFFF7E7FD0F20BB
:10E16000FAE70020F8E700BF783C0020FFFF7F00BF
:10E1700000E0FF0010B50C4A1368144628B10120D6
:10E180000A4903448873136010BD13B97846FDF73C
:10E190005FFC2368013B2360002BF5D1034A937396
:10E1A000BDE81040FFF7F6BE243C0020783C00207C
:10E1B00000B58DB00323ADF808000CA88DF8102031
:10E1C00000F82C3D0391FEF7D5FF0DB05DF804FB80
:10E1D000014B9868704700BF783C0020034B98685B
:10E1E0001B7B012B08BF00F1FF307047783C0020FB
:10E1F000044B9B685840C20748BF03F1FF331846E1
:10E20000704700BF783C0020014B187B704700BF6F
:10E21000783C002038B50A4B1C787CB9094D0122A6
:10E220001A702973A860FFF743FD2046FFF766FDCB
:10E23000C5E90044FFF77AFD204638BD0820FCE719
:10E24000503C0020783C00202DE9F8431D4CDFF8BD
:10E25000789000260221204602F07AFA5FFA86F8CA
:10E2600005460027ADB967B12946204602F0D7FA26
:10E27000082806D154F8043C1BB12A4649464046BA
:10E2800098470136032E04F1BC04E3D10120BDE818
:10E29000F88354F8043C34F80C2C13B1294640465A
:10E2A000984734F80C3C02210133204624F80C3CFA
:10E2B00002F06AFA0221204602F04AFA01370546C6
:10E2C000D0E700BFA43C0020A81D040038B5012100
:10E2D00004460C3002F03CFA054620B3164BC4F855
:10E2E0009C300023C4F8A03003786268012B07D06B
:10E2F000022B1AD07846FDF7ABFB4FF4FA7306E019
:10E3000081688B1A990829234B4303F5FA730B4A4A
:10E31000934294BFC4F8A830C4F8A8200123C4F8DD
:10E32000AC4084F8B830284638BD83689B1A1A0B75
:10E33000034B5343E9E700BF65E30200608501003A
:10E34000084C010010B50446FFF7C0FF48B104F1C6
:10E350009C0006F00BFE20B17846BDE81040FDF7AA
:10E3600077BB10BD2DE9F74F4A4B1B7880460D4611
:10E370003BB106F031FE002385F8B83003B0BDE8AC
:10E38000F08F01F10C09D1F8A8704846012102F084
:10E39000DFF9064610B97846FDF75AFBDFF8FCA016
:10E3A000A7F5FA7700244FF0290B3378012BA7EB60
:10E3B000040406D0022B3BD07846FDF749FB00232E
:10E3C0001FE06B68B268B4FBFBF4D21AA40094425D
:10E3D00028BF144624B901937846FDF739FB019B09
:10E3E000F168706823F00303224619441844FFF7CC
:10E3F0002BFC10B17846FDF72BFB6B681C446C605E
:10E40000B3686A689A422AD106F0E6FD48460121BF
:10E4100002F0BAF900236B6085F8B8301E4B18681B
:10E4200001F0D2FA284603B0BDE8F04FFFF78ABFEB
:10E430006B68B268B4FBFAF4D21A2403944228BF82
:10E44000144624B901937846FDF702FB019B7068DE
:10E4500023F0030321461844FFF7CEFBC9E701F080
:10E4600019F93378B0EB080448BFA8EB0004012B7E
:10E470000DD0022B06D153462344BB4295D906F05A
:10E48000ABFDCFE77846FDF7E3FA0023F4E7292355
:10E49000F2E700BF943C0020903C0020084C0100B3
:10E4A00070B51B481B4C01F071FA1B4B186004F14E
:10E4B0001C0341F203060825636104F10C0004F11A
:10E4C00018032361A681A57302F085F904F1D8032E
:10E4D000C4F8D03004F1C80004F1D403C4F8CC303F
:10E4E000A4F8C86084F8CA5002F075F904F5CA733C
:10E4F000C4F88C3104F5C873A4F8846184F886519B
:10E50000C4F8883104F5C270BDE8704002F063B908
:10E5100049E20200983C0020903C0020022838B5D7
:10E5200004460D4602D97846FDF792FA024BBC220A
:10E5300002FB0434A56038BD983C002002282DE978
:10E54000F84F07460C46924602D97846FDF780FA06
:10E5500014B97846FDF77CFA2378012B12D1636851
:10E56000990702D07846FDF773FAE3689A0702D05C
:10E570007846FDF76DFAA3689B0711D07846FDF742
:10E5800067FA0DE0022B0DD16368C3F30B0313B1DF
:10E590007846FDF75DFAA368C3F30B03002BEDD1BA
:10E5A000A36813B97846FDF753FAEFF3108872B6F3
:10E5B000BC257D43224E05F10C09B144002148469B
:10E5C00002F0C6F8834690B30021484602F0DCF81A
:10E5D00010222146584612F0DCFEBAF1000F03D09B
:10E5E00073195B88AAF80030BC2303FB07677B889C
:10E5F00097F8B84001337B8004BB124B1F78BFB93A
:10E600007019FFF763FEB8F1000F0ED162B64446F1
:10E6100040B105F19C00304406F0A8FC10B17846EA
:10E62000FDF716FA2046BDE8F88F3C46F0E70424D3
:10E63000B8F1000FF6D1A0460020E7E70024F7E785
:10E64000983C0020943C002070B5EFF3108672B621
:10E65000144C236818BB13B97846FDF7F9F9236801
:10E66000013B236093B9104D95F8B83013B9284693
:10E67000FFF768FE95F8743113B90C48FFF762FE96
:10E6800095F8303213B90A48FFF75CFE2368094A4F
:10E69000003318BF0123137006B962B670BD013391
:10E6A0002360F3E7CC3E0020983C0020543D00203E
:10E6B000103E0020943C002010B1800B014B185CF0
:10E6C000704700BFB81D040012DF704713B5137800
:10E6D00063B1022B0CBF0723002310F8011C29296A
:10E6E00062D005D8162973D002B010BD537DF4E76F
:10E6F0002A2927D02B29F7D1022BF5D110F8021C9B
:10E700000139C9B203F032FA04460028ECD0374B85
:10E710001B685B06E8D5364B1B68012BE4DD2F2117
:10E72000344812F011FF002849D02F21314812F04F
:10E730000BFF411C304B314AD3F804350092019451
:10E74000A62224E0022B01D0072BCDD110F8021C09
:10E75000013901F095FC04460028C5D0234B1B6805
:10E760005A06C1D5224B1B68012BBDDD2F21214844
:10E7700012F0EAFE78B12F211E4812F0E5FE411C8E
:10E780001D4B1F4AD3F804350092019493220220B6
:10E7900002F00AFAA8E75C21164812F0D5FE08B18B
:10E7A0005C21E9E71349EBE7022B9DD110F8021C2D
:10E7B0000139C9B202B0BDE81040FDF747B85C218D
:10E7C0000C4812F0C1FE08B15C21AFE70949B1E77E
:10E7D00001884FF6E463994286D110F8021C02309A
:10E7E000033902B0BDE81040FDF730B8482E0020D4
:10E7F000442E0020E11D040000100140261E0400EC
:10E80000FD1D040070B58AB007F0BEF8044600286C
:10E8100034D000238DF8103006460FCE05AD0FC55D
:10E8200033682B60627D052A0CD9207D00F00F0330
:10E83000072B07D004AB063A04F11D0100F00F00CE
:10E8400005F038FF114B1A68AAB104AB0393237D7E
:10E85000C3F303038DF80430637D062B89BF063BA9
:10E8600000238DF8053004F11D0398BF8DF80530A5
:10E87000029301A89047204607F070F807F09EF831
:10E8800080F00100C0B20AB070BD00BFD43E0020CD
:10E8900000B50A4B1A78032A8DB00CD104221A70E5
:10E8A00000212C2201A812F07FFD1C2301A88DF865
:10E8B0000430FEF75FFC0DB05DF804FBD03E002095
:10E8C000F7B5364F3A780546002A5DD100285DD06D
:10E8D000067A0F2E01D0062E5AD105F0B7FEE86851
:10E8E00000284ED0FDF7C6F80DF10700FFF7ECFE4B
:10E8F0000446002842D19DF80730012B4AD1FDF78C
:10E90000E3F800F0A3FA304600F082FFE87800F068
:10E9100029F900F0B5FD06F0BFFA214807F0E6F846
:10E9200006F040F8FFF7BCFD04F0DEF800F050FC04
:10E9300005F04CFE05F0E6F905F06AFC284601F00A
:10E94000F9FAFDF771FF03F0A1FCFCF77FFF08B1B6
:10E95000062821D1134805F07FFE2A2005F020FF6C
:10E960002B2005F01DFF292005F01AFF162005F0C9
:10E9700017FF0D4B00221A6001233B70204603B0A5
:10E98000F0BDFDF77FF8AFE70824F7E70E24F5E7C1
:10E990000724F3E70224F1E70446EFE7D03E002026
:10E9A00005E80200382E0020D43E002037B5234D64
:10E9B0002A78012A05D002D3033A012A36D908243D
:10E9C00026E001F0C9FAFDF777FFFCF73FFF0446A8
:10E9D00050B3062828D01A4B1B685B0418D5194B76
:10E9E0001B68012B14DD2F21174812F0ADFD90B1EB
:10E9F0002F21154812F0A8FD411C144B144AD3F8DE
:10EA000004350092019440F2A712022002F0CCF8E3
:10EA1000204603B030BD5C210B4812F095FD08B1D3
:10EA20005C21E6E70849E8E700F01EFF06F090FAEF
:10EA300004460028ECD102232B70E9E7D03E0020E9
:10EA4000482E0020442E0020E11D0400001001404B
:10EA5000BC1D040008B5084B1A78022A0AD103220B
:10EA600006481A7006F03AFA18B17846FCF7F0FF3B
:10EA7000002008BD0820FCE7D03E002091E80200FD
:10EA8000FDF71CBFFEF7A0BBFEF7AEBB08B500F05C
:10EA9000C7FC002008BD07F08DBF0000044B1A68BA
:10EAA0000132B2F1704F08BF01221A601868704736
:10EAB000D83E002010B5044610B97846FCF7C8FFD0
:10EAC0000023C4E9003310BD38B50D46044610B923
:10EAD0007846FCF7BDFF15B97846FCF7B9FF00236F
:10EAE0006B60EFF3108372B6226822B9256065600F
:10EAF00003B962B638BD62685560F8E710B50446E0
:10EB000010B97846FCF7A4FFEFF3108272B62068C4
:10EB100008B143682360236803B9636002B962B631
:10EB200010BD10B5044610B97846FCF791FF206877
:10EB300010BD35DF7047000008B54FF0FF30FFF71C
:10EB4000F8FFBFF34F8F0549054BCA6802F4E06236
:10EB50001343CB60BFF34F8F00BFFDE700ED00E034
:10EB60000400FA0507289ABF024B33F81000FA2078
:10EB7000704700BF521E0400024B5868103840B264
:10EB8000704700BF00ED00E0084A202390FBF3F33C
:10EB900052F82330424202F01F0200F01F0058BF1B
:10EBA000504223FA00F000F00100704700E100E05D
:10EBB00046DF704730B501F110031032103013F802
:10EBC000014D12F8015D8B4284EA050400F8014D05
:10EBD000F5D130BD2DE9F047144690B002F10F0594
:10EBE000102288462D1101460DEB0200994604F0D3
:10EBF0000F0412F0CEFB002D51D0002C4FD1012676
:10EC0000B2461022002108A812F0CEFB04A8FFF79C
:10EC1000CFFF01220DF13F0110AB13F9100D1F467C
:10EC200093F800C04FEA4C0C5FFA8CFC83F800C0EC
:10EC300013F801EF4CEADE1C994203F801CCEFD146
:10EC40009DF83F305B00DBB20028B8BF83F087033C
:10EC50008DF83F30531C9A454FF00202DCD2013D43
:10EC600008EB0511FEB10CAA6846FFF7A3FF1022BE
:10EC700000210CA812F098FB0024AC4225DB3A4698
:10EC8000694608A8FFF796FF04A8FFF791FF102236
:10EC90003946484612F07DFB10B0BDE8F0870026EB
:10ECA0004FF0020AADE72246684612F072FB10AB45
:10ECB0002344802203F8402C0134102C02D10CAAEA
:10ECC0006946D1E70DF80460F6E708EB041239460F
:10ECD00008A8FFF76FFF04A8FFF76AFF0134CCE72D
:10ECE00038B5124B1A6804462AB11A68456852684A
:10ECF000AA1A002A0DDA1A6862611C609A88013229
:10ED000092B29A8012B97846FCF7A2FE01232370D2
:10ED100038BD19684A691AB15068401B002802DBE7
:10ED200062614C61EAE71146F4E700BFE03E002073
:10ED300010B5124B1A68824204461A460BD142693A
:10ED40001A609A8892B2511E89B299808AB978461F
:10ED5000FCF77EFE0DE01B685BB15969A1420BD147
:10ED60006169596193889BB2591E89B29180002BC9
:10ED7000EDD00023237010BD0B46EDE7E03E0020F0
:10ED8000014B186800F020BEDC3E0020044B1A68DE
:10ED900022B11B680349586800F05AB900F0AEB9B7
:10EDA000E03E002081ED02002DE9F04100F0C6F8C0
:10EDB000254E054637464FF00008336823B13368C7
:10EDC0005B685B1B642B06D400F0B8F8FFF7DEFF2E
:10EDD0000120BDE8F08134682378012B02D0784609
:10EDE000FCF736FE63693B60BB88C4F814809BB2B5
:10EDF0005A1E92B2BA8013B97846FCF729FEA3686E
:10EE000013B97846FCF724FE0223284623702169B3
:10EE1000A368984700F092F82378022B0546CCD1DE
:10EE2000E2680AB92270C8E763686FF06301891A63
:10EE30001344091AD018C14204D463602046FFF776
:10EE40004FFFBAE70346F5E7E03E002008B5082289
:10EE50000021064812F0A8FA054800F097FD054B7E
:10EE60001860BDE8084000F05CB800BFE03E00203C
:10EE7000A9ED0200DC3E002010B5044600F07CFE47
:10EE800010B97846FCF7E4FD14B97846FCF7E0FDCC
:10EE9000A36813B97846FCF7DBFD2378012B02D178
:10EEA0007846FCF7D5FD002363612046FFF718FF85
:10EEB00000F044F8BDE81040FFF768BF10B5044605
:10EEC00000F05AFE10B97846FCF7C2FD14B9784636
:10EED000FCF7BEFD2046FFF72BFF0023636100F027
:10EEE0002DF8BDE81040FFF751BF38B504460D4678
:10EEF00000F042FE10B97846FCF7AAFD14B9784636
:10EF0000FCF7A6FD2046FFF713FF002363612046B0
:10EF10006560FFF7E5FE00F011F8BDE83840FFF747
:10EF200035BF08B50FF056FC38B90FF093FB20B190
:10EF30007846BDE80840FCF78BBD08BD10B5EFF37F
:10EF4000108072B60C4A0D4B1968D2F80435D2F80D
:10EF50000441012C04BFD2F80435013100B962B676
:10EF6000074843EA01614FF480420023E0FB01239C
:10EF7000D00B40EA434010BD00100140E83E0020A5
:10EF800040420F0010B50A4B0A4C4FF40032C3F850
:10EF90004823C3F80823226812B97846FCF758FDC5
:10EFA0002468FFF7CBFF2346BDE81040184700BF99
:10EFB00000100140F43E002010B5EFF3108072B64F
:10EFC0001E4B1F490022C3F804210A6801320A605F
:10EFD00000B962B61B4A116809B3116801391160A2
:10EFE0001268E2B9184AD3F804051168884217D2AA
:10EFF000EFF3108072B6D3F8041514680131A14202
:10F000002ABFD3F8042512680232C3F8442500B998
:10F0100062B64FF40032C3F84423C3F8042310BD92
:10F020000A4C226812B97846FCF712FD2468FFF7F3
:10F0300085FF2346BDE81040184700BF001001407F
:10F04000E83E0020EC3E0020F03E0020F43E002090
:10F0500037B50023044601930D4611B97846FCF7F5
:10F06000F7FC204B1D60FFF769FF031B002BB8BFA7
:10F07000241A1D481D4AA8BF00244FF40045002152
:10F080000023E5FB040111F0ADFFEFF310830193C2
:10F0900072B6174A174CD2F804350228C3F1FF1193
:10F0A00001F57F4138BF02208142134910D3034448
:10F0B000C2F844354FF40033C2F84433C2F8043385
:10F0C000002323600B60019B03B962B603B030BD1F
:10F0D00003F17F43013303441A0E0132226023F00F
:10F0E0007F43EFE7F43E002020A1070040420F00DD
:10F0F00000100140EC3E0020F03E0020074B4FF492
:10F100000032C3F84823C3F80823054A00231360DC
:10F11000044A1360044A1360704700BF00100140A6
:10F12000EC3E0020F03E0020F43E002030DF70472F
:10F1300031DF704710B5D0E900238468C168A2EBC5
:10F14000731283EAF43303600C44134411444460A3
:10F150008160C360184610BD37B50C46054610B92E
:10F160007846FCF775FC00239C4201D803B030BD03
:10F170000DF10700FFF7DAFF9DF807100029F7D01F
:10F18000E21A914288BF8DF80720E8189DF8071011
:10F19000FFF7CEFF9DF807201344E5E737B5044697
:10F1A00002A8002340F8043D0421FFF7D5FF074BD8
:10F1B0002360019BE360C4E9013314252046FFF777
:10F1C000B9FF013DFAD103B030BD00BFED5EEAF1F9
:10F1D000704748DF704749DF70474ADF70470000DB
:10F1E000064A032313741168054B536140F6D86235
:10F1F000914288BF43F2B0629A607047243F00207A
:10F20000443F0020054B1B68A0F178022833584387
:10F21000034BB0FBF3F0101A704700BF403F0020D3
:10F2200040420F0038B50E4A0E4C0123637113683B
:10F23000002501331360257400F086FA05F042FFC3
:10F240002068FFF7DFFF084A0146284600F0F0F982
:10F2500020B17846BDE83840FCF7FABB38BD00BFA6
:10F26000583F0020243F0020E1F1020010B41F4B62
:10F270005A6928B11968DC6811440134DC601960EE
:10F28000996801240131E24001291C7499605A6196
:10F290001C680ED002291AD05B69154A1C4494429E
:10F2A00003D840F6D76293421CD85DF8044BFFF7B1
:10F2B000B9BFB2F5FA7F03D130B900225A61EBE74A
:10F2C00040F6D8618A42E7D840F6D862F6E7DA68B5
:10F2D000022A02D1064A121BF0E7012ADCD10028DB
:10F2E000EBD0D9E75DF8044B704700BF243F002006
:10F2F0008096980070B5424C424D012323712B78C3
:10F300001BB1414B1E78002E5BD0002323740428D0
:10F3100053D8DFE800F0034D4A4844003B4DA17943
:10F32000AA68C4E9023323682260002934D001218D
:10F3300021743749002B08BF0B46991AB1F57A7F23
:10F3400026D39A4224D8616143F2B06043F69822F2
:10F35000C5E9020201236B71A371237C023B012BDF
:10F360000DD8637943B105F0C9FE2068FFF74AFF65
:10F3700000F01CFA00236371234B00221A70237CD7
:10F380002448022B04BF012323760023237170BD80
:10F390004FF47A736361D7E7FFF744FFD4E70120A6
:10F3A000FFF764FFD9E70020FAE705F039FED4E75C
:10F3B00000F090F905F06CFECFE77846FCF748FBCB
:10F3C000CBE700F067F92B782060022B0FD0032BDE
:10F3D00006D0012B10D10223237400232B70BCE72D
:10F3E0000A4B0D490D4A5E71C3E90212A67103234F
:10F3F0002374064B6361F0E77846FCF729FBECE7E2
:10F40000243F0020553F0020543F0020443F00206F
:10F4100080969800343F0020A0860100FF1FA107BE
:10F42000043808B5042825D8DFE800F016220A03BE
:10F430000F00114B1B7E012B1CD1FFF7CCFEC8B176
:10F440007846BDE80840FCF703BB0B4B00221A7658
:10F45000BDE8084005F08ABE08480123437143F621
:10F46000982240F6D863C0E90232FFF7B6FEE6E71D
:10F470000248FAE708BD00BF243F0020443F0020B7
:10F480000D4A4FF480710023918043F2B06C43F633
:10F4900098211370C2E902C1084A1060084A13702B
:10F4A000084A1370084A1360084A137153711360B5
:10F4B0001376012393717047443F0020403F0020A2
:10F4C000543F0020553F0020583F0020243F00209B
:10F4D00010B50E4C227E012A0CD004D3022A0CBF98
:10F4E0001120002010BD0A48FFF773FE10B17846C6
:10F4F000FCF7AEFA0748FFF770FE10B17846FCF74C
:10F50000A7FA022323760020ECE700BF243F002067
:10F51000F5F20200443F0020074B1B7C023B012B0D
:10F5200007D9064B1878013802288CBF002001202B
:10F5300070470120704700BF243F0020553F002046
:10F54000014B1868704700BF243F002010B5074BDF
:10F55000587948B11868FFF755FE044600F09AF84C
:10F560000346201A48BF181B10BD00BF243F0020CF
:10F57000014B5879704700BF243F0020014B187998
:10F58000704700BF243F0020024B187E003018BF98
:10F5900001207047243F0020EFF3108372B6054A24
:10F5A000527922B1044A4FF48071C2F8001103B9B4
:10F5B00062B67047243F002000E100E0044B1B7E50
:10F5C000022B04D1034B01221A70FFF7E5BF7047ED
:10F5D000243F0020553F0020064B1B7E022B07D105
:10F5E0000128054B0CBF032202221A70FFF7D4BF7B
:10F5F000704700BF243F0020553F0020064B19787C
:10F600001A4631B128B90549097811B11870FFF7C8
:10F61000C3BF1070704700BF543F0020553F00200B
:10F62000024B1B6803B962B6704700BF6C3F0020F5
:10F63000022810B522D8EFF31084114B1C6072B66B
:10F64000104B43F82020104B002243F820200F4B92
:10F650001B787BB1830003F1804303F50043103036
:10F66000C3F84021012202FA00F0094AC2F804035B
:10F67000C3F84015FFF7D4FF002010BD0720FCE7BA
:10F680006C3F00205C3F0020783F0020683F002056
:10F690000080004008B5EFF310820A4B1A6072B682
:10F6A000094B1B7853B1094B0022C3F84C210122AE
:10F6B000DA64D3F84C05FFF7B3FF08BD044B1868B4
:10F6C000F9E700BF6C3F0020683F00200080004049
:10F6D000703F00202DE9F84FDFF85880DFF8589090
:10F6E0000024A70007F1804505F50045D5F8403115
:10F6F000D3B1D8F8043304F1100201269640334206
:10F7000012D057F809B0BBF1000F02D17846FCF7D0
:10F710009FF94FF0000A49F807A0C8F80863FFF7FF
:10F72000B9FFD847C5F840A10134032CD9D1BDE8B1
:10F73000F88F00BF008000405C3F0020014B1B6839
:10F7400018447047743F002008B5134B0022C3F8DB
:10F750004025C3F84021D3F84011C3F84425C3F82D
:10F760004421D3F84411C3F84825C3F84821D3F8FD
:10F7700048310A4B1B681BB9094B4FF480721A6061
:10F78000084B01221A70FFF7D9FB0146FFF782FFF1
:10F79000054B081A186008BD008000406C3F00202F
:10F7A00000E100E0683F0020743F00200B4A0C4954
:10F7B00000231360536093600A4A0B6010600A4A8A
:10F7C0004B6013708B60094B4FF0FF32C3F8082376
:10F7D000074B4FF48072C3F880217047783F0020B8
:10F7E0005C3F0020703F0020683F00200080004008
:10F7F00000E100E0044B1B780F2B1EBF034B4FF4BE
:10F800008022C3F800217047CC40002000E100E0D6
:10F8100010B5104C104B2070104803601023C0E945
:10F820000133FEF79DF90E48FFF744F923780F2BBB
:10F830000AD0072B09D8EC221A41D20705D55B0163
:10F84000084ADBB282F8123310BD7846BDE810409A
:10F85000FCF7FEB8CC400020983F0020843F0020F9
:10F86000D040002000E100E00D4B1B780F2B0DD0A5
:10F870000C4991F812335A09EC231341DB0706D5E2
:10F88000094B9A6832B94FF480230B607047784671
:10F89000FCF7DEB81A6842F480221A60704700BF95
:10F8A000CC40002000E100E088590020F8B5EFF3DB
:10F8B000108772B617480268511C016002BB164BD4
:10F8C0001B780F2B21D0EFF3108C72B6134A144C17
:10F8D00095680123E5B99360124B134ED3F880105D
:10F8E00031401160C3F88060D3F8841051604FF04C
:10F8F000FF32C3F884202570BCF1000F00D162B63E
:10F90000036813B97846FCF7A3F807B962B6F8BDE7
:10F910002370F1E798400020CC4000208859002057
:10F92000CD40002000E100E0FC06FFBD38B5EFF35C
:10F93000108572B6104C236813B97846FCF788F826
:10F940002368013B2360A3B90C4B1B780F2B10D00D
:10F950000B4B9A686AB10B4A127852B9EFF31080D8
:10F9600072B609491C680C605C684C609A6000B90A
:10F9700062B605B962B638BD98400020CC40002080
:10F9800088590020CD40002000E100E038B5054650
:10F9900010B97846FCF75CF8094C2368092B02D9AA
:10F9A0007846FCF755F8EFF3108372B62068421CD6
:10F9B0002260044A42F8205003B962B638BD00BF45
:10F9C0009C400020A040002010B50E4B1B688342D5
:10F9D000044602D87846FCF73BF8EFF3108072B685
:10F9E000094A6109012304F01F0403FA04F452F8E0
:10F9F0002130234342F82130FFF7FCFE00B962B604
:10FA000010BD00BF9C400020C840002070B50D46CE
:10FA10001646044610B97846FCF71AF815B9784628
:10FA2000FCF716F8EFF3108372B60022C4E9025611
:10FA30002274246003B962B670BD000070B504463C
:10FA400010B97846FCF704F8A36813B97846FBF7B9
:10FA5000FFFFEFF3108672B6237C03F0FF055BB95E
:10FA60000123064823742146FFF72EF8FFF7C2FE54
:10FA7000284606B962B670BD1120FAE7D0400020D2
:10FA800010B5044610B97846FBF7E2FF207C10BDA4
:10FA90002DE9FF47314E337813B17846FBF7D8FF95
:10FAA0000125DFF8C8802E4FDFF8C49035700024A0
:10FAB000D8F80030A34212D82A48DFF8A880FFF710
:10FAC0001DF8002750BB284C69462046FEF762F817
:10FAD00090B300232846337004B0BDE8F087610975
:10FAE00004F01F020123934057F82120134213D042
:10FAF000EFF3108072B657F8212022EA030347F88B
:10FB0000213000B962B659F824309847824618B9B6
:10FB10002046FFF759FF55460134C9E70468237CA6
:10FB200013B97846FBF794FFD4E90230984727745D
:10FB30004046FEF7E3FFC5E79DF8003043B1012BD7
:10FB4000C2D1019B002BBFD0DDE902019847BBE782
:10FB5000019B002BB8D002989847B5E7D840002009
:10FB6000C8400020D0400020843F00209C4000205E
:10FB7000A0400020FFF78CBF07B5FEF7FDFF8DF812
:10FB800003009DF803301749F02B0DD10B780F2B94
:10FB900025D01220FEF7F8FF80F00100C0B200F07F
:10FBA000010003B05DF804FB9DF803305BB2002B4D
:10FBB000ADBF03F1604303F00F030B4A03F561434C
:10FBC000B4BFD35C93F800335B090193019A0B78BF
:10FBD000934204D0019A9342DBD30020DFE7012057
:10FBE000DDE700BFCC40002014ED00E046DF7047A9
:10FBF00030B58DB00D46144601461022684611F00E
:10FC0000C8FB102229460DEB020011F0C2FB68462A
:10FC1000FFF7ECFF102208A9204611F0BAFB0DB047
:10FC200030BDFEF7D7BF01F039BE01F061BE30B480
:10FC3000032956D8DFE801F00227275000241C7062
:10FC4000817A5A7861F306025A70C17AD2B261F3AE
:10FC5000C7125A70C1680D04C1F3074205F47F054D
:10FC600001F47F412A430A43C2F307219A70120C20
:10FC70001A71D9700189DC710A0A42EA0122A3F8DB
:10FC800005201C7222E01970597801F0800162F39E
:10FC9000C7115970C1680C04C1F3074204F47F0412
:10FCA00001F47F4122430A439A70C2F30721120CE8
:10FCB0001A71D97001890A0A42EA0122A3F80520C3
:10FCC00041880A0A42EA0122A3F80720026912BA0F
:10FCD000C3F8092030BC7047032200241A705C70FE
:10FCE000B8E7784630BCFBF7B3BE7FB50E46154685
:10FCF000044600B112B97846FBF7AAFE1022002193
:10FD0000684611F051FB2B46324621466846FEF705
:10FD100061FF04B070BD2DE9FF410B9D884616467A
:10FD20001C46074610B10AB103B115B97846FBF776
:10FD30008FFE6B46424639463046FEF74BFF2B4658
:10FD40009DF8282021466846FEF744FF04B0BDE830
:10FD5000F0810000F0B50D468FB014461F460646F0
:10FD600008B101B113B97846FBF772FE1CB97846A9
:10FD7000FBF76EFE01E0102CF9D8254B18680090B7
:10FD800005AA68460421FFF7B0FF01AB314605A87C
:10FD90001022FEF71FFF2246294605A811F0F9FAA6
:10FDA0000EAB2344012203F8242C05ABA2181946FC
:10FDB00001A892B2FEF70EFF9DF823303E4603F0F5
:10FDC0007F0306F8013B2246294609A811F0E1FA13
:10FDD00004F110050EAB1D441134A4B2022305F842
:10FDE000243C2246334605A901A8FEF7F3FE31461E
:10FDF000102205A811F0CDFA032305F8243C224671
:10FE000007F1110305A901A8FEF7E4FE0FB0F0BD4C
:10FE1000621E040070B50D4688B0064600B111B9E7
:10FE20007846FBF715FE114C04212068019004AAC6
:10FE30000DEB0100FFF759FF04AB314618461022C5
:10FE4000FEF7C8FE234602A953F8040F02901B795F
:10FE50008DF80C3004AB18460522FEF7BBFE0822D5
:10FE600006A9284611F095FA08B070BD661E040078
:10FE700070B50D4686B0064600B111B97846FBF75D
:10FE8000E7FD0F4C54F8040B009002AA68460421C9
:10FE9000FFF72BFF02AB314618461022FEF79AFE01
:10FEA0002068019002AB042218460DEB0201FEF718
:10FEB00091FE9DF8173003F03F032B7006B070BD24
:10FEC0006F1E040030B50268037CD17A87B0002928
:10FED0008DF8043083680CBF0421082109330B44DA
:10FEE000CDE90232436804930446C368059369462A
:10FEF00001A801F015FFD0B1237C012B0ED025689D
:10FF0000FEF76CF9286120680C30FEF7FFF8054613
:10FF100020B101F081FF284607B030BD216800986C
:10FF200000F0A1FB009B093363610025F3E7042582
:10FF3000F1E7000008B5074B40B91860FDF7C8FFAE
:10FF4000FDF770FFBDE8084002F0B4BB42681A60DC
:10FF5000F4E700BFDC400020FDF7DCBF10B504462D
:10FF600010B97846FBF774FD236813B97846FBF7A0
:10FF70006FFD23685B6913B97846FBF769FD237C45
:10FF8000012B02D97846FBF763FDE36813B9784685
:10FF9000FBF75EFD2046BDE81040FFF793BF000071
:10FFA00070B50446C6B010B97846FBF751FD6369D9
:10FFB00013B97846FBF74CFD236813B97846FBF775
:10FFC00047FD23685B6913B97846FBF741FD60691B
:10FFD00000F0A6FB234B1B689B0706462FD5224B40
:10FFE0001B68042B2BDD214B05AD19680023F25C47
:10FFF000100902F00F02085C05F81300885C05EB9D
:020000023000CC
:10000000430201331D2B5070F1D100232F211848DA
:1000100085F83A3011F098FAD8B12F21144811F030
:1000200093FA411C134B144AD3F804350192134A36
:10003000009202954FF49472052000F0B5FD002364
:100040003246A168206800F0CFFA01F0BFFE46B04A
:1000500070BD5C21064811F077FA08B15C21DDE73C
:100060000349DFE7482E0020442E00204C2E0020BC
:10007000C21E040000100140DD1E0400321A0400FC
:100080002DE9F0478846D4B017460546002800F011
:100090004E8100F049FB0DF12C09A64E421B29466A
:1000A000484611F076F9336899072AD5A24B1B68A8
:1000B000042B26DD4046A14B8028196828BF8020EC
:1000C000002313AC834240F0C98000222F219C48BA
:1000D00004F8132011F038FA002800F0D0802F2106
:1000E000974811F031FA411C964B974AD3F80435E2
:1000F0000192964A0092029440F24D12052000F0BF
:1001000053FD002305AC00932A464B46414620464A
:1001100000F020FA8246002840F0DB802378002B94
:1001200000F0D780E268B2F1807F80F0D280E27A7E
:1001300012B1022B00F0CD8094F90A30002BC0F2EE
:10014000C880336813F0020F13AD29D07A4B1B68B7
:10015000042B25DD4046794B8028196828BF802074
:100160000023834240F0948000222F21744805F838
:10017000132011F0E9F9002800F09C802F2170482D
:1001800011F0E2F9411C6F4B714AD3F8043501922A
:100190006E4A009202954FF4AB72052000F004FD08
:1001A000636913B97846FBF753FC3946204606F0DD
:1001B0002DFC4146204600F0ABFA5FFA80F83B4642
:1001C000224641460DF13500FCF7A4FCE168824669
:1001D0002089FBF7A9FC294620890DF01DFF002886
:1001E00077D1012004F022FA002872D0A37A012BE3
:1001F0006FD92378012B66D03B78012B03D106F011
:100200003BFC002865D0534BA27A1B68002B64D1BD
:10021000A37A2C60013BA3724FF0FF336B60DF23A6
:10022000EB6001232B743B78C5F80880012B06D0C6
:1002300006F022FC18B9EB6883F00203EB60284655
:10024000FFF740FE00284ED142460DF135016869A6
:1002500011F09FF82846FFF7A3FE3AE0EA5C4FEA68
:10026000121C02F00F0211F80CC004F813C011F8B0
:1002700002C004EB4302013382F801C022E75C2193
:100280002F4811F061F908B15C2129E72C492BE7CF
:1002900019F803204FEA121C02F00F0211F80CC0EB
:1002A00005F813C011F802C005EB4302013382F8D0
:1002B00001C056E75C21224811F046F908B15C21E3
:1002C0005DE71F495FE7294660880DF0A5FE00281D
:1002D00092D0504654B0BDE8F08761882089984795
:1002E000002895D1F5E733689B07F2D5124B1B68C0
:1002F000012BEEDD2F21124811F026F970B12F21CC
:100300000F4811F021F9411C0E4B134AD3F8043564
:1003100000920220A72200F047FCDAE75C2108489F
:1003200011F012F908B15C21EAE70549ECE74FF05A
:100330000E0ACEE7482E0020442E00204C2E00202E
:10034000C21E040000100140771E0400321A04008F
:10035000861E0400DC400020951E040008B510B184
:10036000012801D1032008BD7846FBF771FB00206E
:10037000F9E770B5064688B00D46144600210522FF
:1003800004A811F011F8336907221BBAA9180DF15E
:100390001900CDF8153010F0FCFF70696A46113075
:1003A00004A9FFF725FCAB1D0DF10600E21D13F8B3
:1003B000011910F8014DAB4281EA040102F8011D58
:1003C000F5D108B070BD00002DE9F041D4B01E4653
:1003D00000238DF81730ADF83C300E93D31D0C93ED
:1003E000F31D10935A9B43610F460DF118081146F7
:1003F00032460446CDF82C80FFF7BBFF7378DB094B
:10040000E372737803F07F03A372F378B2781B0270
:1004100043EA024332791343E3607379B07940EAE7
:1004200003202081FEF748F9012869D1E27A002AE9
:10043000A7F1090314BF08220422934260D3E168A4
:100440002089FBF753FB0546002859D1E37A9DF834
:100450006C01002B14BF08230423073F8DF848309C
:10046000FF1A0C9BBFB2ADF834701F441197FFF711
:1004700075FF434601462A462046FFF7D8FB6369CD
:100480000DF1170101330AA80A93FFF7CEFB9DF87F
:100490001730002B34D0F379307A40EA03206080A3
:1004A000FEF70AF9244B20701B689B0728D5234BC5
:1004B0001B68032B24DDBDF83420214B109E1968E6
:1004C000802A28BF8022284613AC90421DD10023E9
:1004D00004F810302F211B4811F036F810B32F21EB
:1004E000184811F031F8411C174B184AD3F804355D
:1004F0000192174A00920294DF22042000F054FB7C
:100500009DF8170054B0BDE8F081335C1D0903F07D
:100510000F034D5D04F81050CD5C04EB4003013037
:100520005D70D2E75C21074811F00EF808B15C213C
:10053000D6E70449D8E700BF482E0020442E00200B
:100540004C2E0020E41E040000100140021F040095
:10055000321A04002DE9FF47894615461F469DF8CB
:1005600030A0064618B112B10BB19A4202D17846BA
:10057000FBF76EFAA9F10903142B31D82878C009CA
:10058000FDF736FE00233061736195F80080CDE9F8
:10059000023308F07F0803AA02A940460DF0F8FBD9
:1005A000029BB3B1CDE9003A2A463B464946304664
:1005B000FFF70AFF044608B100200EE0039B43B199
:1005C000CDE9003A2A463B4649463046FFF7FCFE55
:1005D00040B9029B002BDED1052004B0BDE8F087B6
:1005E0000920FAE72046F8E7F0B50C468FB016462A
:1005F0001F46054610B97846FBF72AFA16B9784621
:10060000FBF726FA012F02D97846FBF721FA384684
:10061000FFF7A4FE01AF3B46014600222846FFF744
:1006200006FBEB7A002B14BF082304238DF834302B
:100630006B69A11C0133CDE9053789B2F31D002296
:10064000ADF8201005A8194407930B93ADF82820A6
:1006500009920C91FFF7E7FA324631462846FFF738
:1006600088FE0FB0F0BD38B50D46044610B9784687
:10067000FBF7EEF915B97846FBF7EAF92889FEF79A
:100680001BF8012802D07846FBF7E2F995F90A3009
:10069000002B02DA7846FBF7DBF9EB68B3F1807FD9
:1006A00002D37846FBF7D4F96B6913B97846FBF7A8
:1006B000CFF92B6903F00102237803F07F0343EAAB
:1006C000C21323706A69127823F07F0302F07F025D
:1006D000134323706378EA7A03F07F0343EAC2137B
:1006E000DBB26370AA7A23F07F0302F07F02134328
:1006F0006370EB6823711A0CA2701A0AE2702B89DE
:10070000A3711A0A62716B8823721A0AE27138BDEA
:10071000C37A002B14BF082004200939081A704737
:10072000093870470930704701307047436849B94C
:10073000027880781A441B78C31A12F8010C184406
:10074000C0B270475A185B5C12F8010CC01AF7E788
:1007500038B50D46044610B97846FBF779F9237889
:10076000AB4202D87846FBF773F929462046FFF7DB
:10077000DDFF40B163686278585DA378013B1840A3
:10078000A36802FB003038BD38B50C46054610B9E9
:100790007846FBF75DF92B78A34202D87846FBF741
:1007A00057F921462846FFF7C1FF18B16A68135D63
:1007B0000133135538BD10B5044610B97846FBF720
:1007C00047F90023194622789A4200D810BD626882
:1007D000D1540133F7E710B54378044613B978468E
:1007E000FBF736F92378012B02D87846FBF730F96E
:1007F000A36813B97846FBF72BF9636813B97846F9
:10080000FBF726F9A37813B15A1E1A4202D0784694
:10081000FBF71EF92046BDE81040FFF7CCBF38B506
:100820000D46044610B97846FBF712F92378AB421F
:1008300002D87846FBF70CF929462046BDE8384037
:10084000FFF774BF08B520B119B1FFF711FB002005
:1008500008BD0E20FCE713B50B4650B149B102A903
:10086000002401F8014D0122FFF774FA204602B07E
:1008700010BD0E20FBE71FB5134618B311B30AB322
:1008800001228DF804200A88140A44EA02244A88C6
:10089000ADF80540140A44EA02248A88ADF80740FE
:1008A000140A44EA0224CA88ADF80940110A41EA50
:1008B0000221ADF80B10092201A9FFF74BFA002025
:1008C00004B010BD0E20FBE730B50C468BB00546DA
:1008D000E0B1D9B11031FFF79DFA0D4B03930D4BE9
:1008E000186804909B88ADF8143006AA042103A868
:1008F000FFF7FBF9062300932846019404AB06AAF0
:100900001021FFF708FA00200BB030BD0E20FBE7E6
:100910006E6B626B151F040030B50D468BB004463C
:10092000C8B1C1B10D4B03930D4B186804909B885F
:10093000ADF8143006AA042103A8FFF7D6F9062360
:1009400000932046019504AB06AA1021FFF7E3F9B6
:1009500000200BB030BD0E20FBE700BF6E6B696B53
:10096000151F040030B50C4687B00546F0B1E9B15B
:1009700004210F4B01930DEB010002AAFFF7B5F91B
:1009800002AB184610222946FFF74BF99DF81630A6
:100990009DF817201B026FEA424203F47C536FEA72
:1009A000524213432380002007B030BD0E20FBE7E6
:1009B000767461648369D0E9000201FB020003B12F
:1009C0001847194610F0F0BC38B505460024AB684E
:1009D000A34202D8013BEB6038BD21462846FFF711
:1009E000E9FF0134F3E7F8B5C56804460F46002671
:1009F000A368B34201D8002012E0D4E90012636971
:100A000002FB0511384633B1984740B9A36845B198
:100A1000013D0136ECE710F0ADFC0028F6D10120D5
:100A2000F8BD5D1EF5E710B4C36882680469013340
:100A30009342C36004BF0023C3604268C368006878
:100A400003FB02001CB123465DF8044B18475DF818
:100A5000044B10F09EBC38B50D46044600B111B9E8
:100A60007846FAF7F5FFAC421EBF23682B6025607D
:100A700038BD38B50C46054600B111B97846FAF7CD
:100A8000E7FF2B68A34202D17846FAF7E1FF286816
:100A900040B92C60206038BDA54202D17846FAF7F3
:100AA000D7FF28460568002DF6D12146BDE838401D
:100AB000FFF7D1BF38B505460C4601B110B97846ED
:100AC000FAF7C6FF2B6883B1A34205D123682B60D8
:100AD0000020206038BD13461A6822B1A242FAD124
:100AE00022681A60F4E7002CFAD00520F2E7F8B586
:100AF0000E461746044608B101B112B97846FAF716
:100B0000A7FF2368B34202D17846FAF7A1FF256810
:100B10005DB9266028463560F8BD2C68A64202D132
:100B20007846FAF795FF3CB1254631462846B84746
:100B30000028F2D00F20EFE728463146FFF78BFF61
:100B40002046E9E737B506AC184654F8045B009236
:100B50000B460246054900200FF02EFB224629468F
:100B600000200FF00BFA03B030BD00BF1C1F0400C3
:100B7000034B1860034B1960034B1A60704700BFAA
:100B8000482E0020442E0020502E002010B4054C8A
:100B900024681CB1A4465DF8044B60475DF8044B23
:100BA000704700BF502E002030B585B008AC54F817
:100BB000045B0394CDE90054FFF7E8FF05B030BDB6
:100BC000037942799B1A00EB03307047431E9BB2B6
:100BD00047F6FE62934208D849B14B8858400B88CB
:100BE00018420CBF012000207047002070470120F0
:100BF0007047830770B504460E46054602D0784616
:100C0000FAF726FF26F003063444A54201D101205D
:100C100070BD55F8043B0133F7D00020F8E7000021
:100C2000064B984210B5044603D303F582739842ED
:100C300002D97846FAF70CFF201F10BDEC400020C7
:100C40001FB50124CDE9022101901A4669462046CC
:100C50008DF80040FDF772FC04B010BDF8B50C4DE6
:100C600001460C48FCF759FC6E687EB10027284607
:100C7000FDF744FF044610B97846FAF7E9FE236809
:100C80002760D3E902209047A642F0D1F8BD00BF0B
:100C9000F4410020E040002038B503884A6803F1A1
:100CA0008043013B9C001368033323F00303A342FA
:100CB0000D4605D009238B606B681C60002038BD91
:100CC00000238B601268011D286810F062FBF3E7B7
:100CD00013B502A9002482B241F8044D0448FCF780
:100CE00038FB18B90198043002B010BD2046FBE76C
:100CF000E040002008B5FFF793FFBDE8084001463B
:100D000002880148FCF776BBE0400020014B1868E0
:100D1000FEF75ABEFC41002010B50388044613B903
:100D20007846FAF795FE2088074B04EB800030EAFE
:100D3000030203D06288B2F5FE4F04D11C4004F5D3
:100D400080542078204410BD00F0FFFF70B5046887
:100D5000237805461C4400214FF6FF762868FFF7EC
:100D60002FFF844202D26388B34201D1084670BD8E
:100D70002046FFF7D1FF21460446EFE72DE9F04F6B
:100D8000934FDFF8708287B03E4698F800203B789A
:100D9000022A14D1032BFDD8DFE813F00400390038
:100DA0001100670106A9002341F8103D8948FCF7AE
:100DB00052FB014638B1884B1B6803B198470120AC
:100DC00007B0BDE8F08F029C844B94F80890221D78
:100DD0001A60012399453370D7D86568E868FFF732
:100DE000EFFE6B69C01AAB68C01AB9F1000F01D1F0
:100DF000218A89008142C8DB6B68002BC5D00323A0
:100E00002B70606888F80030FCF782FEBDE7734BFA
:100E10001C682379042B00F2D380DFE813F005006F
:100E20008A00AD00ED0017012368DD682846FFF752
:100E3000C7FE2B78E2890146E81800F02FFF2568ED
:100E4000AB68824673B9D5F80C904846FFF7B8FEF8
:100E500099F80030014647F6FF7209EB030000F0F5
:100E60001DFFA8602268A189D2F80890DFF880B140
:100E700029F47F6525F00F0505F58055A5EB0903DD
:100E800089008B4233D909EB01052146002331F853
:100E90000C2F48469200FFF7D3FE10B17846FAF7C0
:100EA000D7FD4F4B4F4904222846FFF7C9FE10B12A
:100EB0007846FAF7CDFDBAF1000F10D02268BAF8E3
:100EC0000010536803EB810353604749444B0422ED
:100ED0005046FFF7B5FE10B17846FAF7B9FD00238A
:100EE000C4F808908BF80030022333704DE7D068C7
:100EF0000193FFF765FE8542019B04D101238BF826
:100F000000300323F1E78B4202D12B781D44BCE76C
:100F10000023042235494846FFF792FE10B1784677
:100F2000FAF796FD95F80090A944A58909EB850587
:100F3000ABE72368DD682846FFF742FE2B78E2899D
:100F40000146E81800F0AAFE294D10B902232B70C3
:100F5000D7E72268A0600188536803EB81035360E0
:100F600021491F4B0422FFF76BFE60B37846FAF766
:100F70006FFD00232B70B7E72268637BD56805EB14
:100F8000033508212846FFF734FE90B905F1FF3AF2
:100F900004F1070904F10F0B1AF8013F19F8012FAA
:100FA0009A4204D0FF2B02D07846FAF751FDCB4588
:100FB000F2D108220A4BA1182846FFF741FE10B1D2
:100FC0007846FAF745FD0A4B00221A708CE700BFFD
:100FD000F0410020E04000200042002008420020B4
:100FE000064200204C1F0400441F0400481F040058
:100FF0000C4200200442002020680C30FFF7A6FEBF
:10100000054610B97846FAF723FD6B884BB1554B6E
:10101000554904222846FFF713FE10B17846FAF727
:1010200017FD2846D4F80090FFF776FEC9F80800AF
:101030002168C868FFF7C4FD8B688342C3D2284685
:10104000FFF76AFE474B49490422B6E72368D3E914
:10105000032302211B038DF80810CDE9032302A905
:10106000404A0120FDF76AFAA9E7414C236813B909
:101070007846FAF7EDFC3F4B246893F80090B9F1FD
:10108000000F21D12379D4F808A0012B13D00AD363
:10109000022B1CD023792568042B35D8DFE803F018
:1010A0001F3B433451002146504631F80C2F92002B
:1010B00010F060F901E0BAF80200B0FA80F04009DF
:1010C0000028E7D14FF0030904F10C0AE2E7236896
:1010D000607BDB680822A11803EB0030E8E7B9F178
:1010E000000F0BD1A068FFF717FEA860428847F6F3
:1010F000FF739A4202D07846FAF7AAFCAB691BB19B
:101100004A465146284698472046FFF789FDFFF793
:10111000A5FD0023E9E6EB69002BF5D04A46E189FD
:1011200028469847F0E72B78012B02D07846FAF74B
:101130008FFC237B627B013B9A42E5D102232B701B
:10114000E2E7B9F1000F02D07846FAF781FC2B787C
:10115000012B1CBF00232B702B6A002BD4D02846F8
:101160009847D1E706420020441F04004C1F0400AA
:10117000084200200C420020064B1B88934207D1F6
:10118000054B1A78022A03D103221A70FFF7F6BD25
:10119000704700BF06420020F041002008B54FF420
:1011A00082720F490F48FCF756F80F490120FDF7EE
:1011B000B5F90E48FEF7EAFB0D4B0E4A1860002306
:1011C00013700D4A0D481380FDF774FCFCF736FCD4
:1011D0000B4B10B103221A7008BD0222FBE700BFBF
:1011E000EC400020E0400020791103007D0D030059
:1011F000FC410020F041002006420020F441002084
:101200000442002010B504460820FFF761FD0423C6
:1012100040B1237003710460FFF76CFDFFF776FDAA
:10122000002010BD1846FCE72DE9F04F87B081463D
:1012300003910192049310B97846FAF709FC012052
:10124000FDF702FAFCF786FC0024031D054627463D
:101250004FF00108029347F6FE6BD9F81010A14237
:1012600002D9B8F1010F06D00020FDF7EDF938469C
:1012700007B0BDE8F08FD9F80C30286803EB0432D2
:10128000904202F5805604F1010426D1A14205F5F1
:10129000805A20D0327816447188013989B2594574
:1012A00035D900F5005230460592FFF735FD059A15
:1012B000824210D986420ED24188013989B25945FD
:1012C000F2D82E79029B42885146981900F0E6FC2C
:1012D000002818BF8246029A5646137802EB030A8A
:1012E000B245BADAB8F1010FB7D10399BAF80200E2
:1012F000FFF76CFC30B1019B01371BB104995046DC
:10130000984780465046FFF707FD8246E8E730469B
:10131000D7E700007FB5E8B1E2B1DBB14C1EA4B263
:1013200047F6FE66B44217D80478023C012C15D863
:10133000CDE901230523ADF8021003934FF6FF74A6
:1013400001AB074AADF800406946FFF76DFF03980F
:1013500004B070BD0E20FBE70720F9E70820F7E78F
:10136000990C030070B50D46044610B97846FAF79B
:101370006FFB0023294620461A46BDE87040FFF760
:1013800053BF70B50E461446054610B97846FAF7B5
:101390005FFB731E9BB247F6FE62934206D947F687
:1013A000FF739E4202D07846FAF752FB802C02D996
:1013B0007846FAF74DFB2B780BB9002070BD04F18D
:1013C0001000FFF785FC0028F7D00334A4080023A1
:1013D00001340371C681848140F80C5BEEE70000A4
:1013E000094B984210B5044603D303F58273984223
:1013F00002D97846FAF72CFBA4F10C00FFF77AFC2F
:10140000BDE81040FFF782BCEC40002038B50C4628
:10141000054610B97846FAF71BFB631E9BB247F6E8
:10142000FE62934206D947F6FF739C4202D078468B
:10143000FAF70EFB1020FFF74BFC60B1012202719E
:101440004FF6FF72C48182810560FFF753FCFFF7FE
:101450005DFC002038BD0420FCE700002DE9F843C6
:10146000002303700B68C3F30B0304460D4613B14E
:101470007846FAF7EDFA6B68FE2B02D97846FAF750
:10148000E7FA04F10C0718222946384600260FF027
:1014900080FFC4E9016623699E4257D32046FCF7CA
:1014A00013FB064600287CD1E5682846FFF788FB39
:1014B0002B7880461D4447F6FF796B88C3F30E02F4
:1014C0004A4572D166602046FCF7FEFA10B17846B4
:1014D000FAF7BEFA3846FFF739FCA060002873D14E
:1014E000E3681A7813444FF6FF725988914200D18D
:1014F000A360022323702046FCF7E6FA10B1784679
:10150000FAF7A6FAE5682B781D44A3689D424AD2F3
:101510002846FFF701FCA3689842064668D16A880E
:10152000531E9BB247F6FE618B423CD8E3681878A5
:101530002946184400F0B2FB002834D0A84232D02B
:1015400041882046BDE8F843FFF760BF3503E368F4
:101550005A195B5D083BDBB2F62B15D85379FF2B8C
:1015600012D01279FF2A0FD09E4202D07846FAF7A5
:101570006FFAE3682B441A7923699A4202D07846BD
:10158000FAF766FA013686E701233B4F2370002500
:1015900023699D4231D3FFF7B9FBE3680833A360A9
:1015A00001E003232370002018E013B92B8806EB19
:1015B00083062846FFF7B0FB804505463FF67DAF22
:1015C0007846FAF745FA78E7428847F6FF739A4279
:1015D0008FD00820FFF77CFB10B90420BDE8F8830A
:1015E000032202710460FFF785FBFFF78FFB80E7A2
:1015F0003046FFF791FB35468DE7E0682E03304417
:1016000040F6FC710430FFF7F4FA90B11020FFF7B8
:101610005FFB0028E1D002220271876045732269D6
:1016200002734FF6FF72C2810460FFF763FB01355E
:10163000AEE7E3689A199B5D083BDBB2F62B05D851
:101640005379FF2B02D01379FF2B02D17846FAF79A
:10165000FFF9E36833445B799D4202D07846FAF79C
:10166000F7F9E3681E44236932799A42DFD078465D
:10167000FAF7EEF9DBE700BF0804101010B50446D6
:1016800010B97846FAF7E4F9A36813B97846FAF77F
:10169000DFF9236833B9246021460348BDE81040D0
:1016A000FDF712BA10BD00BFF441002008B506488E
:1016B000FBF76DFF20B1FCF723FA80F00100C0B208
:1016C00000F0010008BD00BFE040002038B504462E
:1016D00098B1C5682846FFF773FA2B78014647F69C
:1016E000FF72E81800F0DAFAA06010B97846FAF74D
:1016F000AFF90223237000236360054B05490222E2
:1017000001201A70FCF70AFFBDE83840FFF7FEBA67
:101710000442002079110300FCF71CBA38B50546D5
:10172000044C20B1236813B17846FAF791F925608B
:1017300038BD00BF0042002030B503B930BD013BC9
:101740009BB2CC5CD55C6C40C454F6E746DF704776
:101750002DE9F843858907468846012401F12009CF
:101760000DB9BDE8F88363BAA8F81E304046FFF70C
:10177000EDFF102D04F1FF3CB968B8692E464FEA21
:101780000C1C28BF102633464A4661446044AD1BFA
:101790000134FFF7D1FFADB2A4B2E1E72DE9F04784
:1017A00007460E461446994600F1100500F1200840
:1017B0000CB9BDE8F087C9F1100A544505EB0900E2
:1017C00018DA224631460FF0E4FD04EB0900C0F1BF
:1017D0001002002128440FF0E7FD002410232A46C0
:1017E00041462846FFF7A8FF3846FFF7AFFF4FF006
:1017F0000009DDE7103C3146524619FA84F40FF037
:10180000C8FDA4B25644E9E770B5838A002B90F86E
:1018100020300D46A3F102034FF0020193FBF1F3D8
:101820004FEAC30303F03803164643F0010314BF25
:1018300040220022134304462B7441680D2205F117
:1018400011000FF0A6FDA289130A43EA0223EB83DD
:101850002846FFF77BFFA38A83B1B3F57F4F02D3FE
:101860007846FAF7F5F8A28A130A43EA02232B8294
:10187000A28A216902232846FFF790FFA28922B19C
:101880000023A1682846FFF789FF94F8202005F17E
:1018900020013046BDE870400FF07BBD30B50446F6
:1018A0008DB00168102268460FF073FDE269694649
:1018B0002046FFF7A9FFE569616801230D220DF1BC
:1018C00011008DF810300FF064FD00236846ADF86C
:1018D0001E30FFF73BFF94F8203008AA294628461F
:1018E000FFF72AFF69462046FFF732FF0DB030BDF3
:1018F00070B590F82030102B90B004460D4602D9F8
:101900007846FAF7A5F8102221680DEB02000FF0D7
:1019100040FDA3897BB1012361688DF820300D2241
:101920000DF121000FF035FD002304A92046ADF88C
:101930002E30FFF70DFFA369A668A3606A4604A9CD
:101940002046FFF761FF616801230D220DF12100A0
:101950008DF820300FF01DFD002304A8ADF82E30C7
:10196000FFF7F4FE94F820300CAA69466846FFF7AA
:10197000E3FEA66094F82020E16968460FF0FAFCC7
:10198000B0FA80F04009287010B070BD70B50B4CF3
:10199000038825889D42064606D001339BB29D42AE
:1019A00002D07846FAF754F830882368854238BF69
:1019B00003F1FF331B0C1B04184470BD10420020C0
:1019C0002DE9F8430378022B0DD1FCF701FC114EF1
:1019D000DFF848800546002400F1FF3933689C4257
:1019E00003D30D4B1D60BDE8F88308EBC407B81D99
:1019F000FFF7CCFF85420BD0484509D03368013B47
:101A0000336008EBC30393E8030087E80300E5E7CE
:101A10000134E3E714420020104200201842002065
:101A200008B5FCF7D5FB014B186008BD104200203B
:101A30002DE9F8431A4D1B4E2B6888469146002429
:101A4000A3420CD1282B29D0164A02EBC30142F83D
:101A5000338001338880A1F806902B6015E0E70001
:101A6000F2199188814217D1901DFFF78FFF8145B0
:101A70000ED156F83400804594BF0020012028B1D3
:101A8000374446F83480A7F806900020BDE8F88374
:101A90008CBF01200020F2E70134D1E70420F5E7F4
:101AA0001442002018420020F8B5114B114E0C468C
:101AB000196817460025A94201D1002011E006EB64
:101AC000C5039A88824211D1981DFFF75FFF8742B4
:101AD00008D156F83500844294BF0020012080F0E0
:101AE0000100F8BD8CBF01200020F8E70135E2E7D6
:101AF0001442002018420020034B044800214FF4F8
:101B0000A07219600FF050BC14420020184200204F
:101B100008B50348FCF7B6FFBDE80840FFF7ECBF87
:101B2000542E00202DE9F041884616461F460446F3
:101B3000B0B1C2B1013B1B2B15D8FF2913D0BD1C7E
:101B4000EDB2691C02F04EFF044648B12B234574E8
:101B5000837480F813803A46314614300FF019FC34
:101B60002046BDE8F0810024FAE70000F0B50E46FB
:101B7000C7B01746054610B97846F9F769FF002E39
:101B80007AD02C78711EC9B2002C57D0012C5CD0B1
:101B90003A4C2268D20519D5394B1B68012B15DD4B
:101BA0002F2138480FF0D0FC002853D02F21354882
:101BB0000FF0CAFC411C344B2A78D3F8043501924B
:101BC000324A009202206D22FEF7EEFF2368DB0509
:101BD00032D52B4B1B68032B2EDD2D4B802E196825
:101BE00028BF8026002305AC15F8012F100902F04C
:101BF0000F02085C04F81300885C04EB4302013315
:101C00009E425070F0D100232F211E4804F8163058
:101C10000FF09AFC38B32F211A480FF095FC411CA5
:101C2000194B1C4AD3F8043501921B4A00920294C6
:101C30006E220420FEF7B8FF0B2004E03A46681C31
:101C40000DF0EEFA002047B0F0BD3A46681C00F0F7
:101C5000A3FDF7E75C210B480FF076FC08B15C218F
:101C6000A5E70849A7E75C2106480FF06DFC08B11D
:101C70005C21D1E70349D3E70920E4E7482E00209F
:101C8000442E0020501F0400001001406A1F040071
:101C90004C2E0020901F0400321A040088422DE9C7
:101CA000F84307460E46904602D97846F9F7D0FE2B
:101CB0003C46DFF85C901AE0238804EB83039E42E5
:101CC00021D9238813B97846F9F7C2FE238804EB9B
:101CD000830333EA090203D06288B2F5FE4F01D1D3
:101CE0002B782B449E420ED99F421C460BD2638810
:101CF000434509D004EA090505F58055B542E0D30E
:101D0000B3F5FE4FD8D100242046BDE8F88300BFCC
:101D100000F0FFFF014B1860704700BF5C430020DC
:101D20002DE9F0410F46054610B97846F9F790FEC7
:101D300017B97846F9F78CFE2B78012B02D9784633
:101D4000F9F786FE1E4C236A13B17846F9F780FE38
:101D50006B681D2B02D97846F9F77AFE2B78012B98
:101D600009D1EB685A1C06D003F50073012B02D988
:101D70007846F9F76DFE134B1E684FF0010846B91F
:101D8000236A1BB16B6823700F4B3B60206ABDE870
:101D9000F08116F8032C2B691A42A6F108000CD02A
:101DA00056F8083C29461B68984730B916F8043C99
:101DB000226A08FA03F3134323623668DFE700BFA1
:101DC000945900206043002095590020F8B50F4D2C
:101DD0002B6A13B97846F9F73BFE0D4B0D4F1C6883
:101DE00001260CB92C62F8BD14F8043C2A6A06FAE4
:101DF00003F31342A4F1080005D054F8083C2A78F4
:101E00005B68394698472468EBE700BF9459002087
:101E1000604300209559002070B50D4D2B6A13B911
:101E20007846F9F715FE0B4B1C6801260CB92C629D
:101E300070BD14F8043C2A6A06FA03F31342A4F1B5
:101E4000080003D054F8083C9B6898472468EDE7E5
:101E500094590020604300202DE9F0410E461746BA
:101E60009846054610B97846F9F7F2FD064B1C680E
:101E70003CB143463A4629793046A446BDE8F04194
:101E80006047BDE8F08100BF5C430020F8B50E4616
:101E90001746044610B97846F9F7DAFD16B97846C0
:101EA000F9F7D6FD1FB97846F9F7D2FD01E0FF2F0B
:101EB000F9D0336813B97846F9F7CAFD736813B9D6
:101EC0007846F9F7C5FDB36813B97846F9F7C0FD50
:101ED000094D2B781F2B02D97846F9F7B9FD2B78DD
:101EE00026605A1C237167712A7004F108010348A7
:101EF000BDE8F840FEF7BDBD584300206043002018
:101F000007B540F20713B3EB104F019002D07846AB
:101F1000F9F79EFD03481422002103B05DF804EB9D
:101F20000FF042BA7043002013B540F20713B3EB31
:101F3000104F01900C4602D07846F9F789FD04490C
:101F40001422204602B0BDE810400FF022BA00BFB4
:101F500070430020F7B540F20713B3EB104F019028
:101F60000F4602D07846F9F773FD3888FCF7A4FBDA
:101F700002284AD07B68B3F5004F03D94FF6FF72B1
:101F8000934242D1BB68B3F5803F3ED897F90C30FD
:101F9000002B3ADB3E460FCE1D4C25460FC533685D
:101FA0002B603A88234612B9C4E901222273194AE8
:101FB00014785A68E4B14FF6FF70111A4A424A4148
:101FC000E2B19A68D2B1144BB4B1B2F5E16F1446E4
:101FD00028BF4FF4E164121B1A60FCF7AFFF0F49F2
:101FE00001FB04010E48FCF780FF002003B0F0BDA8
:101FF000003218BF0122E3E71C60EEE70024084826
:10200000C3E90144FCF75AFFEFE70720EEE700BF02
:1020100070430020B84300209C43002040420F0042
:10202000A043002030B50C4DAC688DB08CB90B4886
:10203000FCF744FF2C22214601A8AC600FF0B4F954
:10204000062301A88DF804300295FBF793F80DB034
:1020500030BD013CAC60FAE788430020BC4300205F
:1020600010B503780A2B8CB039D11E4AC489138865
:10207000A34234D1418A5388994230D18368032BDB
:102080002DD193685BB35368B3F5004F3CBF013368
:1020900053604168007F05238DF804300B7803F00E
:1020A0007F038DF808300B78C0F1010003F07F0347
:1020B0000344DBB28DF809308978ADF80C4001F0AB
:1020C0000F01ADF80A1091899BB29942D18988BF5E
:1020D000938101A8994238BFD381FBF74BF80CB02C
:1020E00010BD00BF8843002070B5294C23888EB0F6
:1020F000002B4BD0274D2A6812B97846F9F7A8FC77
:102100002B6868469847054600283FD102AE032257
:10211000014630460FF048F99DF80830227B8DF8D3
:10212000095023F07F0302F07F0213438DF808303B
:10213000194B1B788DF80A30019B13B97846F9F7D3
:1021400087FC0A238DF8143000238DF82030208876
:10215000BDF80030ADF82230ADF82600FCF7ACFA3F
:10216000019B0B9303230793237B8DF824008DF8A9
:1021700030306FF00201FF2305A80D930696FAF7A1
:1021800013FC064B003018BF012018700EB070BD54
:1021900070430020D443002098430020B94300201E
:1021A00010B40A4A137818420CBF012400248C4250
:1021B00009D143401370064BDB89184203D05DF808
:1021C000044BFFF791BF5DF8044B70479843002024
:1021D0007043002082B0C1F30743012B019105D168
:1021E00020B91178184602B0FFF7DABF02B0704785
:1021F00082B0019120B91178022002B0FFF7D0BF60
:1022000002B070470378192B08D01A2B0CD0012B81
:102210000FD1084B1B7863B1FFF766BF0179012925
:1022200007D10820FFF7BCBF0379012B01D10021A2
:10223000F7E77047B943002038B5114D114C2B8892
:10224000DBB16B68CBB1226852B94FF6FF72934293
:102250001CBF03F1FF336B60FFF746FFAB682360E1
:102260002368094AB3F5E16F194628BF4FF4E161CD
:102270004A435B1A2261236001E00023236138BDD9
:10228000704300209C43002040420F0008B501210C
:102290000B48FAF73DFF10B17846F9F7D9FB094B27
:1022A000094ADA60094B0A4A9A600A480A4ADA601F
:1022B0000A4B0360FAF788FF094B01221A7008BD28
:1022C000B01F04009C43002039220300BC430020BF
:1022D000252003006443002040420F000522030034
:1022E000B8430020F0B5054691B010B97846F9F72B
:1022F000AFFB0DF1020168460BF026FFAB68B3F5AA
:10230000803F02D9072011B0F0BD2888FCF7D4F92E
:1023100001282FD16888FCF7CFF948B16888FCF70D
:10232000CBF9032804D06A88BDF800309A42E9D17D
:102330001E4C94E80F0001AE86E80F00AB68FBB9B5
:1023400000231B482360A360FCF7B8FD2C2200216A
:1023500005A80FF029F806238DF81430BDF80630D3
:10236000002B08BF002605A8CDE90664FAF702FF96
:102370000020C8E72888FCF79FF90028CAD0C1E7E9
:1023800029880029DCD06A88002AD9D0084DA360AA
:1023900021806280EF68FCF7D1FD39182846FCF7F0
:1023A000A4FD7F23E36000236360CFE78843002020
:1023B000BC43002000487047884300200048704715
:1023C00070430020034B00221A70034B014618682B
:1023D00000F03EBCB8430020AA1F0400034B186065
:1023E00010B97846F9F734BB704700BFD4430020DA
:1023F00007B5064B0190002205481A7002F0EDFA6D
:10240000044803B05DF804EBFCF758BDB844002065
:10241000D8430020BC44002013B50190000CB0F557
:10242000837F0C4602D07846F9F712FB024B1B78EB
:10243000237002B010BD00BFB844002037B5019032
:10244000000CB0F5837F0C4602D07846F9F700FB0C
:1024500025780E4C22787AB955B10D4802F0A8FAC9
:10246000FCF76CFD0B4BD96801441846FCF73DFDA9
:102470000020257003B030BD002DF9D1044802F0D2
:10248000ACFA0448FCF71AFDF2E700BFB84400209C
:10249000D8430020BC4400207FB5089C06461D465A
:1024A0002078531E5A425A4161F3000062F3410002
:1024B000024620466FF3870206F1100100F8012B57
:1024C0002DBA08220EF065FF6B4621463046C4F84F
:1024D00009500D22FDF7A5FB0822694604F10D0005
:1024E0000EF057FF04B070BDF0B595B005460DF184
:1024F00037025749564C574F00200BF03DFD2646FA
:102500002268002A00F0918051680888142300FB9B
:1025100003335B089BB2B3F5167F28BF4FF41673E5
:102520000A2B38BF0A238B80526893780133DBB2C1
:10253000022B937006D123685A6800239370226897
:1025400052681380336859688B68EA1A48BF5A1B6F
:102550008B887B43934273D8FBF73AFE0446FBF724
:1025600053FE9DF837103368A1F1020C0229024690
:102570000EAF0CBF03F1300003F10800DCF10001E5
:1025800041EB0C0123460097FFF786FF012115233D
:102590003A463148FFF7C6FA0146002845D00123E4
:1025A00003712D4802F059FA2C4B1B689B0739D553
:1025B0002B4B1B68042B35DD2F212A480EF0C4FF5E
:1025C000002834D02F2127480EF0BEFF411C9DF873
:1025D0003820254B02F00100C2F34002D3F8043545
:1025E00009929DF8402008929DF83F2007929DF89F
:1025F0003E2006929DF83D2005929DF83C200492D5
:102600009DF83B2003929DF83A2002929DF83920D4
:102610000192164A0A900092052040F201120B9492
:10262000FEF7C2FA33685B689D6015B0F0BD5C21AF
:102630000C480EF089FF08B15C21C4E70949C6E7E0
:102640000DF13702214600200BF096FC58E700BF41
:10265000D444002040420F00D8430020482E0020E0
:10266000442E0020BC1F040000100140DA1F0400AB
:1026700008B5FCF763FCBDE80840FFF735BFFFF77E
:1026800033BF10B586B002AB0D220C46FDF7C9FA78
:1026900008220DEB020168460EF07BFE082204F1D1
:1026A0000D0168460EF066FEB0FA80F0400906B0F3
:1026B00010BD000013B5154A154C0023136004210A
:1026C000144AE2600DEB0100134AA2602361FCF79B
:1026D00043FDFCF733FC0199E268B1FBF2F302FB26
:1026E0001313184460600D4C0D4A0E4934232046E4
:1026F00002F050FA20464FF47A7102F004FA0A4AC6
:102700000A480421FDF7F1FA02B010BDD4440020BC
:10271000BC440020809698007F260300D843002008
:102720007444002071260300A84400201D200400EA
:102730001FB504A901F8090D044800F089FA10B189
:102740007846F9F785F905B05DF804FB030006014A
:1027500007B507480DF1030100F0BAFA10B1784649
:10276000F9F776F99DF8030003B05DF804FB00BFAC
:102770000300060137B50C461946069B50B14BB114
:10278000012503F8015B00932346FFF785FE002037
:1027900003B030BD0E20FBE72DE9F04717469AB095
:1027A000044610B97846F9F753F900230E93504BBD
:1027B000D4F809601B689B0736BA30D54D4B1B68AF
:1027C000042B2CDD2F214C480EF0BEFE002836D005
:1027D0002F2149480EF0B8FE411C484BD3F8043570
:1027E0000B96227802F00100C2F340020A9009928F
:1027F000227A0892E2790792A2790692627905928A
:1028000022790492E2780392A2780292627801928D
:102810003B4A009205204FF4D572FEF7C5F9651CBE
:102820000DF137020EA928460BF0A6FB4FF6FF78F4
:102830004FF004090E9B5BB91AB0BDE8F0875C212C
:102840002D480EF081FE08B15C21C2E72A49C4E799
:102850005B6813B97846F9F7FBF80E98082200F187
:10286000080A294618300EF085FD50BB2146504617
:10287000FFF707FF28B30E9B08330E9A51680A88AA
:1028800042451CBF01320A8021468DF83C9011F868
:102890000D2B1496C2F34000C2F300028DF85520B0
:1028A0000E9A8DF854000FA8CDE91023CDE91271CE
:1028B000FAF760FC0DF137020EA928460BF05CFB1D
:1028C000B8E79DF83730002BF4D00E98082200F1BD
:1028D000300A294640300EF04DFD0028EAD121464D
:1028E0005046FFF7CEFE0028E4D00E9B3033C4E7FD
:1028F000482E0020442E0020BC1F04000010014080
:10290000222004002DE9F3410F4C104E01920546A0
:102910000F469846A64202D102B0BDE8F081226877
:102920002B681188188888420CD151885B888B42AB
:1029300008D8EA881A448A4204DD4246019963684D
:10294000384698470834E5E7782C0400882C0400C2
:1029500038B503685C88C3880C1B9C42054602D3CB
:102960007846F9F775F8A869204438BD37B585B2BF
:102970000190020C094C0A48844202D1002003B0A5
:1029800030BD03681988A94206D15988914203D8FD
:10299000C3880B449342F2DC1C30EDE7782C040032
:1029A000982B040070B58EB00E4601901546FFF7C7
:1029B000DDFF044688B18388AB4222D8C368019802
:1029C00031469847F8B9BDF806102046FFF7C0FF1A
:1029D0000223037001200EB070BD02242C220021BE
:1029E00003A80EF0E1FC0198CDF81200142303A80F
:1029F0008DF80C308DF81040CDE90665FAF7BAFB7A
:102A0000E8E70024EAE70124E8E700002DE9F041C7
:102A1000304C314E314FDFF8CC8092B0A4F11C0322
:102A20009E4202D112B0BDE8F08154F81C3C1A88D5
:102A30002B4BBB4205D17846F9F70AF800239B7867
:102A4000FFDE1988914201D00833F2E79B78012B11
:102A500007D0022B01D01C34E0E798F80030002B9F
:102A6000F9D000252BE054F8043C5A5D02F0050330
:102A7000012B23D154F81C3C18685B8801902B442F
:102A800092079BB220D5ADF8063054F80C2C019873
:102A900002A9904734F8182C019802A900F0D8FA3E
:102AA0000028BFD154F8042C535D23F00103535583
:102AB00054F8042C535D43F004035355013534F8A6
:102AC000163CAB42CFD8C6E7ADF80630019800F00F
:102AD000E6FAE5E7B42B0400782C0400902C0400FF
:102AE000882C0400D84400202DE9F341204C214ECD
:102AF000A4F11C07A4F11C0846450FD11E4A1F4B28
:102B00001F4900919B1AF61BDB081E481C21B6FBCF
:102B1000F1F100F00FFA02B0BDE8F08154F81C3C6E
:102B200034F8162C5B881344B3F5803F02D3784603
:102B3000F8F78EFF134DB54201D11C34DAE7454555
:102B4000FBD054F81C2C2B681088198888420DD1B2
:102B500050885988EA880A44904207DA34F8163CCB
:102B60000344994202DA7846F8F772FF1C35E2E72F
:102B7000B42B0400782C0400882C0400902C040052
:102B8000C92B0300982B0400014800F0A3BA00BF32
:102B9000A529030010B50A4B0A4898420ED0D988DF
:102BA000002205E09C69A45C14F0050F04D10132F9
:102BB0009142F7D81C33F0E7012010BD0020FCE75C
:102BC000982B0400782C040030B504468DB0D0F862
:102BD0000200FFF7CBFE054610B97846F8F738FF3C
:102BE0002846A188FFF7B4FE03785B07054602D4A8
:102BF0007846F8F72DFF2B7823F004032B70237809
:102C0000022B0DD12C22002101A80EF0CDFBD4F80F
:102C100002000290132301A88DF80430FAF7AAFAF3
:102C2000FFF7B8FF014618B1FFF7F0FE0DB030BD59
:102C3000064B2C22187001A80EF0B6FB122301A837
:102C40008DF80430FAF796FAF0E700BFD844002078
:102C5000F0B585B00E46019089B3FFF787FE0546B3
:102C600078B30198EB6803903146BDF80670984739
:102C7000044608BB39462846FFF76AFE0378124A25
:102C800043F0030303702B6810481F882346D118B4
:102C9000884203D17846F8F7DBFE05E00833D11807
:102CA00031F8081CB942F2D1FFF7B0FE3346039A5F
:102CB00000212846FFF726FE204605B0F0BD0E2471
:102CC000FAE70524F8E700BF882C0400902C0400E4
:102CD00037B50D460190A9B1FFF748FE044698B1FB
:102CE000037A33B10198236929469847002003B03D
:102CF00030BDBDF80610FFF72BFE03789B07F1D41B
:102D00000820F4E70E20F2E70520F0E713B5019064
:102D1000FFF72CFE0446D0B1BDF80610FFF718FEF1
:102D200003789A0715D523F0020343F001030370DB
:102D300063690BB101989847FFF768FE20460023AE
:102D4000019A0121FFF7DEFD002002B010BD052031
:102D5000FBE70820F9E700000F4B73B501220F4C89
:102D60000F4E1A70A4F11C039E4213D102B070BD25
:102D700054F81C3C18685B8801902B44ADF8063071
:102D80000198FFF7C3FF013534F8163CAB42EFD88A
:102D90001C34E7E70025F7E7D8440020B42B0400F3
:102DA000782C04002DE9F8438846016817460C6822
:102DB00042790E790546D2B204EB86060BB9017949
:102DC00049B904EB83040AE011F8043C83F0800362
:102DD000934204D00C46A64204F10401F4D8043412
:102DE000B44201D3002014E0237843452CD163780A
:102DF000FF2B10D1A378FF2B1CD1E378FF2B07D03A
:102E0000AB79012B02D07846F8F722FEE3786B719C
:102E10000120BDE8F8832B68D3F80890B9F1000FC2
:102E200002D17846F8F714FE39466078C847002882
:102E3000E0D1D4E72B68DE6816B97846F8F708FECB
:102E40003946A078B047D8E71B06C8D5CAE72DE9B0
:102E5000F0470F46064610B97846F8F7F9FD17B95E
:102E60007846F8F7F5FD37607B7973710025B57109
:102E7000D7F80090FF243B795FFA85F8984507D38F
:102E8000FF2C02D09C4228BFFF243471BDE8F0879C
:102E9000FF2C4FEA880A06D019F92830002B02DAF5
:102EA0007846F8F7D5FD19F80A300135FF2B08BF31
:102EB0004446E0E770B50D461646044610B978461C
:102EC000F8F7C6FDA3790133DBB2A37132460023C4
:102ED00029462046FFF766FF38B92379FF2B04D037
:102EE000324629462046FFF75DFFA379013BDBB25E
:102EF000A37170BD8079003018BF01207047704702
:102F000030B50A4B1C680A4B196800239C4201D15A
:102F1000002207E031F83350854201EBC30203D1B0
:102F200053681880104630BD0133EFE7DC440020C1
:102F3000E44400202DE9F84FDDF828808946174643
:102F40009A46044610B97846F8F782FDB9F1000FA9
:102F500002D17846F8F77CFD17B97846F8F778FD86
:102F6000BAF1000F02D17846F8F772FD344E3548B9
:102F700037600023344D354F2B60984518BF4046CD
:102F8000C7F800A000F01EF91C2303FB09494C45BB
:102F90000AD100220023D7F800E030681C467345B0
:102FA0003DD14CBBBDE8F88F23681888FFF7A8FF18
:102FB000804608B1436813B97846F8F749FDD8F858
:102FC0000430A088B3F802B000F082F9B4F806A08B
:102FD00000FB0ABABAF5803F02DB7846F8F738FD05
:102FE000D8F80430A3F802A0D8F80420E188938828
:102FF0000B4493801C34CAE7A37833B1606800F0B7
:10300000F5F810B17846F8F723FD204600F065F991
:103010002B68228818440132286092B2BAE730F84F
:1030200033C0944500EBC30108D324B1B4F8008049
:10303000E04598BF214601330C46B0E72146FAE748
:10304000E4440020FF2E0300E0440020DC44002084
:1030500073B5164601900D4611B97846F8F7F8FC9D
:1030600016B97846F8F7F4FCBDF80400FFF748FFFE
:10307000044610B97846F8F7EBFC63685B8813B92F
:103080007846F8F7E5FC6368BDF80620DA806068EA
:103090003246294602B0BDE8704000F0D3B813B5FF
:1030A000019080B2FFF72CFF044610B97846F8F77C
:1030B000CFFC63685B8813B97846F8F7C9FC63688E
:1030C000BDF80620DA80606802B0BDE8104000F06C
:1030D000CFB80000F8B5054610B97846F8F7B8FC47
:1030E000084E094F00243368A34200D8F8BD3B685E
:1030F00003EBC4039A781AB12946586800F0D0F857
:103100000134F0E7DC440020E444002007B54B68BC
:103110004288DA804B681B88ADF80430438830F869
:10312000042BADF8063002F18042013A0B689200A0
:10313000014601989847024B185C03B05DF804FB08
:103140006520040007B5002A0CBF002302238DF878
:10315000003030F8083CADF802304B88ADF8043050
:10316000034B68461B68984703B05DF804FB00BF3B
:10317000EC44002007B5002A0CBF012302238DF880
:10318000003030F8083CADF80230044BADF80410C4
:103190001B686846984703B05DF804FBEC440020C8
:1031A000704700B58DB02C22002101A80EF0FCF86C
:1031B0000E2301A88DF80430F9F7DCFF0DB05DF89F
:1031C00004FB000008B5064B00221A70054B18607E
:1031D000FDF7E4FF0448BDE80840FEF79FBA00BFD2
:1031E000E8440020EC440020A331030070B5114EE8
:1031F000448840F6F87304F6F774B4FBF3F43378BC
:1032000086B023440546337008F06FFD3378A0EB99
:1032100003306B880293084B0393084B0493CDE96A
:103220000004074B0593694605F10800FEF716F9FF
:1032300006B070BDE844002045310300753103003D
:10324000A131030070B508300D4630F8021C164657
:10325000FEF797F8044648B13246294604300EF08E
:1032600098F82046FEF7BCF8002070BD0420FCE76B
:1032700037B54FF6FF7300F108050446ADF804308A
:1032800001A9C388ADF806302846FEF76BF828B1CF
:10329000E1882846FEF7BAF803B030BD0520FBE709
:1032A00037B50D46044610B97846F8F7D1FB15B985
:1032B0007846F8F7CDFB6B46044A002104F108007C
:1032C000CDE90054FDF7B0FF03B030BD0D31030070
:1032D000C31D4FF6FC70184070478378022B0CD149
:1032E00043689A88588864235343033003F5FA737C
:1032F0002922800802FB0030704700207047000040
:10330000024B53F820300846184700BF68200400DD
:10331000024B53F820300846184700BF94200400A1
:10332000054B93F82C000138C0B283F82C00B0FA9A
:1033300080F04009704700BFF0440020054B93F82F
:103340002B000138C0B283F82B00B0FA80F040099E
:10335000704700BFF0440020024B187880F0010055
:10336000704700BFF044002003685B685879B0FAEA
:1033700080F0400970470000024B986C003018BF85
:1033800001207047F044002003685B681878003023
:1033900018BF01207047000010B5054C626812B9D3
:1033A0007846F8F755FB63689847012010BD00BFC9
:1033B000F044002007B5CDE900016A460221034828
:1033C000FFF778FD03B05DF804FB00BF3C4500202B
:1033D000002208210148FFF76DBD00BF3C450020D9
:1033E000002211460148FFF765BD00BF3C450020A3
:1033F000002207210148FFF75DBD00BF3C450020CA
:1034000007B500230193074B0748196A02AA42F83F
:10341000081D062183F82B100421FFF74BFD03B094
:103420005DF804FBF04400203C45002000B58FB05F
:103430001623CDE901018DF80C30836904934368AC
:103440001A78C2F340028DF81520D3F8012012BA81
:1034500006921A7802F001028DF814205B79B3FA13
:1034600083F35B0903A88DF81630F9F783FE01AAF0
:1034700003210348FFF71EFD0FB05DF804FB00BFFA
:103480003C45002000B5D0E900328DB015218DF803
:103490000410D98905929A69ADF808100492596808
:1034A00008794A7942EA0022ADF80A205A6852782F
:1034B0008DF80D205A68D2788DF80F205A6812784E
:1034C0008DF80C205B6801A89B788DF80E30F9F719
:1034D00051FE0DB05DF804FB00B58DB00CA81723AC
:1034E00000F82C3DF9F746FE0DB05DF804FB000036
:1034F00037B504460D4601A80DF106010AF024FE79
:10350000074B00221A701A222270012222711B8D91
:103510002381BDF80430E380A57203B030BD00BF45
:10352000F044002000B58DB0032101A8FFF7E0FFB3
:1035300001A8F9F71FFE0DB05DF804FB00B5094BBB
:103540001B788DB04BB1022101A8FFF7D1FF01A874
:10355000F9F710FE0DB05DF804FB17238DF8043069
:10356000F5E700BFF044002010B50446FBF7E6FC89
:10357000014624B123684FF47A7202FB0301044828
:10358000044B8363BDE810403030FBF7AEBC00BF96
:10359000F04400209935030008B502F0B9F9002283
:1035A00001210248BDE80840FFF784BC3C450020EB
:1035B000024B034A98685A60FCF706BAF0440020B0
:1035C000D133030000B58FB00DF1020168460AF057
:1035D000BBFD01A9BDF800000AF0FCFD019921B96D
:1035E000FFF7E6FF0FB05DF804FB184A0B910523C7
:1035F0008DF8143001238DF82430138DADF826306A
:1036000002A900230A938DF830308DF820300691FE
:10361000BDF80030ADF822300421079110210D9142
:103620008DF80930190AD38C8DF808101A0A6FF03A
:10363000050105A88DF80A208DF80B30F9F7B4F9CB
:103640000028CDD102F064F9CCE700BFF04400209F
:103650002DE9F34114461F46F9F7A6F98046FBF71A
:103660006DFC224D0646B8F1000F0FD14FF47A736E
:1036700003FB04017B432B641D4B01F58C711D483A
:10368000AB6302B0BDE8F041FBF72FBC1A4B1B68DF
:10369000DB0319D5194B1B68042B15DD2F211848A6
:1036A0000DF052FFC8B12F2115480DF04DFF411C00
:1036B000144B154AD3F804350092CDF8048040F23B
:1036C000C7220520FDF770FA00233C444FF47A71BD
:1036D0002B6401FB04610D4BD1E75C2108480DF020
:1036E00033FF08B15C21DFE70549E1E7F044002042
:1036F0007137030020450020482E0020442E002072
:103700001C210400001001403321040099350300FE
:1037100037B5164D0DF102016846AC6C0AF014FD88
:1037200001A9BDF800000AF055FD019A1AB9FFF78A
:103730003FFF03B030BD012323742B8D6382002330
:10374000636123732377BDF80030E3811023236284
:103750002378A261072B6A69EB690CBF6FF0040143
:103760006FF003012046FFF773FFE2E7F04400200B
:1037700038B5074C0D4602F0B5F8064BA363FBF7CE
:10378000DDFB291804F13000BDE83840FBF7ADBB84
:10379000F04400209935030000B500228DB00621C9
:1037A0000748FFF787FB0748FBF788FB002101A8C4
:1037B000FFF79EFE01A8F9F7DDFC0DB05DF804FBF4
:1037C0003C4500202045002000B58FB00DF10201DE
:1037D00068460AF0B9FC01A9BDF800000AF0AAFB8E
:1037E000019A22B9FFF7E4FE0FB05DF804FB032352
:1037F0008DF814308DF824304FF6FD73ADF8263077
:1038000000230A938DF830308DF82030BDF8003059
:10381000ADF8223002AB244906930A230793102304
:103820000B920D9391F824209DF8083002F00300CC
:1038300023F0600343EA401323F01803C2F381002E
:1038400043EAC003C2F3021223F0070313438DF8C7
:1038500008304B698DF809300B6964226333B3FB80
:10386000F2F3180C8DF80A008DF80C30180A0B8D45
:103870008DF80B008DF80E30180ABDF802308DF867
:103880000F30CB8C8DF80D0001339BB2180ACB841E
:103890008DF810008DF8113005A88B696FF00601C6
:1038A000FFF7D6FEA0E700BFF044002000B58FB0C0
:1038B0000DF1020168460AF047FCBDF8000001A9BD
:1038C0000AF088FC019820B9FFF772FE0FB05DF88E
:1038D00004FB134A0B90118DADF8261000210A91BC
:1038E0008DF830108DF82010BDF80010ADF82210C2
:1038F000012302A9CDE906138DF814308DF8243088
:1039000010230D9392F82A3003F001038DF808304C
:103910006FF00701D369526905A8FFF799FED5E753
:10392000F044002010B50B490B48FFF790FA022134
:103930000A48F9F7EDFB10B17846F8F789F8084C1A
:1039400000F0A8FB002307482385FCF71FF8A060C0
:1039500010BD00BFBC2004003C450020AC2004008A
:10396000F044002099330300F0B585B004AC04E9BD
:1039700007009DF80C0010F0700F3BD0019EA6F1DF
:103980000A02F52A36D8029D1C4AA5F57A719142A1
:1039900030D8A3F16402B2F5617F2BD8062707FB6C
:1039A00006F202F2FA52AA4224D8154A117819BB3B
:1039B0001449497901F0FF04F1B992F82410936198
:1039C000C0F3021C6CF30611C0F3810C6CF383018D
:1039D000C0F3010060F301010B4B906882F82410E2
:1039E000C2E9045682F82C705360FBF7EDFF2046C5
:1039F00005B0F0BD0720FBE70820F9E7B46B991488
:103A0000F04400203C450020E13303007FB505462B
:103A1000002838D01E4C2378002B36D11D4B5B7903
:103A2000012B32D10DF1060101A80AF08DFBBDF882
:103A30000430ADF808302B88ADF80A30E38CADF8CF
:103A40000C3002A96B88A868ADF80E300AF08CFB28
:103A50000646A8B92B8823852B79E361AA7984F8D7
:103A600025204FF4C062628562692169A068134411
:103A7000062202FB1313E360074B6360FBF7A4FF0E
:103A8000304604B070BD0E26FAE70826F8E700BFFE
:103A9000F04400203C450020F133030008B5094BF9
:103AA0001A7852B1DA68824209D31862064A9868D5
:103AB0005A60FBF789FF002008BD0820FCE70720BB
:103AC000FAE700BFF04400200134030000B58DB0D8
:103AD0000CA8182300F82C3DF9F74CFB054BD868CF
:103AE000FFF7DCFF10B17846F7F7B2FF0DB05DF8D5
:103AF00004FB00BFF044002010B50E4B0468D868EA
:103B00008CB001221A70FFF7C9FF10B17846F7F7A1
:103B10009FFF19238DF8043001238DF80830E389C5
:103B2000ADF80C3001A8638AADF80A30F9F722FB32
:103B30000CB010BDF044002008B5064B1A7832B125
:103B4000054A98685A60FBF73FFF002008BD08202F
:103B5000FCE700BFF044002099370300014B1878C0
:103B6000704700BFF04400201FB5164B5B79044638
:103B700033B300230DF1060101A802930AF0E4FA21
:103B800002A9BDF804000AF025FB029BC3B16269DB
:103B90009A4215D101F0BCFE0B4B9A6C22B993F8F6
:103BA0002A20013283F82A2032220021CDE9022185
:103BB000062283F82B20052102AA0248FFF77AF992
:103BC00004B010BD3C450020F044002038B5054647
:103BD00010B97846F7F73CFF084CA26C12B1784652
:103BE000F7F736FF3220A564FFF758FF20B178467B
:103BF000BDE83840F7F72CBF38BD00BFF0440020C7
:103C0000014B00229A647047F044002010B5054C27
:103C10002278012A02D07846F7F71AFF0023237092
:103C200010BD00BF5045002010B5094C2378022B71
:103C300002D07846F7F70CFF00232370626DE36D26
:103C400094F858100348BDE81040FEF705B900BFCE
:103C500050450020444500200B69102B0AD1074B2A
:103C6000187848B90A7883F85820CA68DA650122BA
:103C70001A7070470120704702207047504500209D
:103C800070B5154C2378012B0E46154602D07846A8
:103C9000F7F7DEFEAB1C1F2B02D97846F7F7D8FEEC
:103CA000EBB203F1080284F861202A22013384F880
:103CB0006A2031462A46094884F869300DF069FBCC
:103CC00002230748237001F005FB20B17846BDE8C8
:103CD0007040F7F7BDBE70BD50450020BB450020C9
:103CE00054450020064808B540304161FBF7A6FE68
:103CF00020B17846BDE80840F7F7AABE08BD00BF6E
:103D00005045002037B51E4C1E4BE362032384F858
:103D1000283084F8383025221B4BE28400251B4ACA
:103D20002363684604F160032362626384F82450CD
:103D300000F014FF0DF10101062204F163000DF003
:103D400028FB94F860301249022262F303039DF8C5
:103D50000020204612F0FE0F14BF01222A4662F313
:103D6000861300F8405B224684F86030FBF74EFE75
:103D7000102208490848FEF789F803B030BD00BF9B
:103D800050450020D6BE898EE53C0300602E002001
:103D9000293C030054210400444500202DE9F04F44
:103DA000204B214D214E1B782B7000221346012100
:103DB000B14696464FF0020A32F806C0BCF1000F39
:103DC00022D0B718BC78012C1AD107281CD103F1D6
:103DD0000108013C05EB4303012C4FEA1C2B01F1C8
:103DE000020183F801B083F802C088BF29F802E01D
:103DF00089B294BF87F802A087F802E0434603E047
:103E0000032C01D10728E2D1242A03D0052B02F18B
:103E10000402D1D1064A10709160181C18BF01200D
:103E2000BDE8F08F0146002028460020D84500203C
:103E30000446002038B5084D2C7864B9074B1B7830
:103E40004BB1FFF7ABFF30B1012305482B70FFF7F3
:103E5000BDFE044B1C7038BD004600200246002009
:103E6000044600200346002038B50378192B02D001
:103E70001A2B15D038BD0379002BFBD0134D2C78AD
:103E800054B90720FFF78AFF30B1012310482B7087
:103E9000FFF79CFE0F4B1C700F4B01221A70E9E7D5
:103EA0000379002BE6D000230C4A1C469C52D11803
:103EB0000433282B8C70F9D1FFF7A2FE084B1C703D
:103EC000024B1C70044B1C70D4E700BF004600205E
:103ED000044600200346002002460020D84500206A
:103EE0000146002037B5314D0446FFF789FE2B7897
:103EF00023B903B0BDE83040FFF71EBE63682C4C09
:103F00001A782C4B1B789A4211D12B4A1378013323
:103F10001370082000232370FFF740FF00283DD0D6
:103F20002648FFF753FE0023237003B030BD2378EB
:103F3000012B22D82148FFF749FE23780133237053
:103F40001F4B1B685B07F0D51E4B1B68012BECDD7C
:103F50002F211D480DF0F8FAB8B12F211A480DF0A5
:103F6000F3FA411C194B1A4AD3F804350092022087
:103F700040F23512FCF718FED7E7FFF7DDFD002809
:103F8000DED07846F7F764FDDAE75C210E480DF0E5
:103F9000DBFA08B15C21E1E70B49E3E70720FFF713
:103FA000FDFE0028BCD12870BFE700BF00460020FE
:103FB0000346002028460020014600200446002039
:103FC000482E0020442E00206821040000100140EB
:103FD0008B21040038B50546FAF76EFB0238C0B2F3
:103FE00001282AD8FFF7BAFD48B3164B00211A461C
:103FF00033F82140AC424FEA810005D103449A785E
:10400000032A12D0002038BD01310A29F0D1002343
:1040100032F8234099005CB922F823500A44012366
:1040200093700720FFF706FFECE701229A70E9E79B
:1040300001330A2BECD10420E5E70720E3E7082051
:10404000E1E700BFD845002010B50446FAF734FB7D
:104050000238C0B2012816D8FFF780FDA8B10C4A7B
:10406000002332F82300A0424FEA830107D10A441B
:10407000032393700820FFF7DDFE002010BD0133FD
:104080000A2BEED1F9E70720F8E70820F6E700BF92
:10409000D845002008B50B4B0B4800221A700B4B7B
:1040A0000B4A5A600B4B0360FAF7ECFC01210A48FB
:1040B000F9F72EF820B17846BDE80840F7F7C8BCFC
:1040C00008BD00BF01460020642E002004460020E9
:1040D00028460020693E030060210400094B83420A
:1040E00010B502D07846F7F7B3FC074C236813B934
:1040F0007846F7F7ADFC206800F0ABFA00232360A8
:1041000010BD00BF344600204C460020114B8342B6
:1041100070B50E46154602D07846F7F799FC0E4C5E
:1041200023681B69AB4202D27846F7F791FC2068FE
:104130002A46314614300DF02CF921680748FAF769
:10414000C3FC00232360064BBDE870401868FBF7F2
:104150003BBC00BF344600204C46002040460020B7
:1041600048460020F0B587B01822002168460DF0BF
:104170001BF9032312488DF80030FAF7BFFC114DEC
:104180000F4E044614B9012007B0F0BDE368277A4A
:104190000193FAF7D3FEE368024639462846FDF755
:1041A0005BFE21696A4604F11400FBF769FF3046A3
:1041B000FAF7A4FC0746204600F04BFA3C46E1E73C
:1041C00040460020344600200F4B834270B50D4618
:1041D00002D07846F7F73CFC2B699B0610D50B4EB6
:1041E00034686CB96868143000F031FA306048B156
:1041F0002B780372EB68C3606B680361204670BD67
:104200000120FCE70220FAE7344600204C4600205B
:1042100008B50748FBF7BAFB064B07491860202290
:104220000648FDF733FE0648BDE80840FAF742BCF1
:104230006541030048460020BC21040034460020AC
:104240004046002037B5C0F30745012D01900C46CC
:1042500002D97846F7F7FCFB084AA02068431318F8
:1042600019792170125862705B6F4FF47A7203F5FE
:10427000FA73B3FBF2F3638003B030BD5C460020F9
:1042800037B5C0F30744023CE4B2012C01900D465F
:1042900002D97846F7F7DCFB0448A02303FB0404AB
:1042A00094F82C302B7003B030BD00BF5C4600206A
:1042B00073B5C0F30745012D019002D97846F7F791
:1042C000C7FB0E4CA0226A43161D224426441279D5
:1042D00012B9304600F06CFB012D1CBFA0235D43DA
:1042E0004FF0140118BF012330460CBFC4F8A05092
:1042F000635102B0BDE8704000F005BC5C46002090
:10430000F7B5C0F30746012E01900D4602D9784655
:10431000F7F79EFB6B78013B072B22D86B88143B89
:10432000B3F5917F1DD8104F2978A02474433A1912
:10433000043412793C4471B112B9204600F038FBC4
:10434000A02070436B783B502046698800F0DBFB6F
:10435000002003B0F0BD002AF2D0204600F03DFB63
:10436000EEE70720F5E700BF5C46002013B5C0F379
:104370000744023CE4B2012C019002D97846F7F7D9
:1043800067FB0548A02303FB04000021043002B0B2
:10439000BDE8104000F0D7BB5C46002037B5C0F345
:1043A0000744023CE4B2012C01900D4602D9784644
:1043B000F7F74EFB05482978A02303FB04000430DF
:1043C00000F0C1FB002003B030BD00BF5C46002000
:1043D0001FB5C0F30744043CE4B2012C019002D99C
:1043E0007846F7F735FB02A800F0B8FB0448A02395
:1043F00003FB040002A9043000F067FB04B010BD09
:104400005C46002073B5C0F30744043CE4B2012CC1
:1044100001900E4602D97846F7F71AFB307810F073
:10442000FC050AD10648A02303FB040004303146F2
:1044300000F04BFB284602B070BD0720FBE700BF31
:104440005C46002037B5C0F30744043CE4B2012CBD
:1044500001900D4602D97846F7F7FAFA0549A020EF
:1044600000FB041107226C31284603B0BDE8304040
:104470000CF08FBF5C4600200C4B834210B502D07D
:104480007846F7F7E5FA0A4C636813B97846F7F708
:10449000DFFA084B20786168A02202FB003004306C
:1044A00000F004FB0023636010BD00BF50460020F5
:1044B0009C4700205C460020124B834270B50E469C
:1044C000154602D07846F7F7C3FA0F4C636813B964
:1044D0007846F7F7BDFA60682A2383746B1C43742F
:1044E0002A46314613300CF054FF084B207861689F
:1044F000A02202FB0030043000F0AFFA002363601A
:1045000070BD00BF504600209C4700205C46002044
:10451000F8B5124B83420D4602D07846F7F798FA69
:104520000F4C636813B17846F7F792FA28780D4F6D
:104530006968A02606FB00700231043000F052FAD0
:10454000606048B1EB6803602B785E43BB59037130
:104550002B7823700020F8BD0220FCE75046002095
:104560009C4700205C460020044BC01A044B4011BD
:1045700058430B46C1B20348FDF76EBC60460020AD
:10458000CDCCCCCC50460020012882B00AD80323E1
:1045900000F58070ADF80430ADF80600019802B067
:1045A000FEF756BB072002B07047012882B00AD838
:1045B000032300F58070ADF80430ADF806000198D3
:1045C00002B0FEF785BB072002B0704770B5114CF2
:1045D000114A12492546012645F8046B4FF48073B1
:1045E000284600F0D7FA284600F0E2F9A43444F84F
:1045F000046C0B4A00212046802300F0CBFA2046B1
:1046000000F0D6F9324607490748BDE87040FDF78B
:104610003DBC00BF5C460020AA470020694503005E
:10462000AA480020D421040050460020012810B5DB
:10463000044602D97846F7F70BFA034BA02202FB97
:104640000434207910BD00BF5C46002070470CF098
:1046500081BE0CF087BE000070B5064618B34368F3
:104660000BB34378073BDBB2F72B1ED9104B007816
:104670001C68A8B90546E8B2013500F091F8B5F517
:10468000807FF8D106F108010948FCF7F2F92CB94E
:10469000204600F095F8012000F072F8002003E0B9
:1046A00000F07EF8EEE70E2070BD0720FCE700BFAB
:1046B0002C4900202DE9F047DFF85C8006461F46B4
:1046C0000C468D18AC4201D3BDE8F087D8F8002025
:1046D00004F1020942B1617812F8083C994207D00E
:1046E00033B11268002AF7D1227801321444E9E785
:1046F000082AF9D012F8071CD2F800A0B14201D064
:10470000FF2906D1217852F8043C01393A4648463F
:1047100098475246DEE700BF2C490020F0B5174A03
:10472000447D137C063CE4B200214FF0010C8C4226
:1047300003DCB3FA83F0400917E04618B57F767FB3
:104740006F0902EB870705F01F057F690CFA05F575
:104750003D4210D0611AB14204DC536B0133536304
:104760000120F0BD181C18BF01200028F9D0936B60
:1047700001339363F5E701363144D8E7304900202F
:1047800030B10548054B43600023037000F0D8BDED
:10479000014800F0F3BD00BF304900201D47030071
:1047A0004109064A012300F01F0003FA00F052F805
:1047B0002130034342F82130704700BF44490020B4
:1047C000012810B5044602D97846F7F741F9014BA4
:1047D0001C7410BD3049002010B5044610B978464D
:1047E000F7F736F9E36F13B97846F7F731F9E36F66
:1047F000D4E925122046BDE81040184710B50378CB
:1048000013F0FC0F044602D07846F7F721F923781D
:1048100003F0FE03022B02BFA37963F03F03A371F1
:1048200010BD10B550F8202C1379013BDBB2FD2BE5
:1048300004460BD9836D4BB11368C0E91C315C3061
:10484000FBF7FCF810B17846F7F702F954F8201C92
:104850000B7943B944F8203C04F138000439BDE831
:104860001040F8F75ABE10BD38B5054607480C464B
:10487000FAF760FCB0FBF4F101FB1404FAF75EFBFD
:1048800001192846BDE83840FAF72FBB6C490020D3
:10489000F7B500230B650B780C46002B4AD091F836
:1048A0004030002B33D1CB6F002B2AD104F15C05B3
:1048B00000266368002B3FD01B79FF2B04D12846CC
:1048C000F8F710FE002837D163681B79002B33D02E
:1048D00094F87830002B5FD165682B7913B978464E
:1048E000F7F7B6F82B79FF2B1CBF03F1FF332B71C1
:1048F00004F1080000F0EEFC48B17846F7F7A8F89C
:1049000005E001F18000FBF7BBF80028CED094F859
:104910004430256F022B02D07846F7F799F82048EB
:10492000FAF708FC42F21073B0FBF3F202FB13003B
:104930002844206503B0F0BD616821B104392846E0
:10494000F8F7EBFD666001A92846F8F784FD00281A
:10495000F0D1019B1A1D0C3362606362A9E73846EF
:10496000FAF7E8FB94F87730B0FBF3F202FB1300A0
:10497000C3B2AB4209D02544204495F8743090F876
:10498000742085F8742080F87430013694F87730FC
:10499000F5B2AB42E3D89FE70026014FF6E700BF30
:1049A0006C4900200148FAF7F9BB00BF6C490020B0
:1049B00010B5037804467BB901230370436833B113
:1049C000216F04F14400BDE81040FFF74DBF5C309B
:1049D000F8F76EFD0028F3D110BD002300F8443B2A
:1049E000FAF76CBA2DE9F3410D46064610B9784640
:1049F000F7F72EF81F2D02D97846F7F729F805F1B9
:104A0000110292B201A906F15C00F8F7A2FC8046FF
:104A1000E0B9019C237B022262F303030635237372
:104A2000657396F86830227B5B0863F38612227305
:104A300006F16901062204F10F000CF0AAFC271D03
:104A4000C4F80480384602B0BDE8F081042802D0E2
:104A50007846F6F7FDFF0027F4E738B505460C4623
:104A600001B110B97846F6F7F3FF237913B9784608
:104A7000F6F7EEFF237A03F0CF036FF3C713237229
:104A800021460023A37231F8042D05F15C00F8F7EC
:104A9000B1FC2B784BB195F8443033B9296F05F14F
:104AA0004400BDE83840FFF7DFBE38BD38B50446E6
:104AB0000D4601B110B97846F6F7CAFF291F04F177
:104AC0005C00BDE83840F8F728BD70B50D460446D7
:104AD00000B111B97846F6F7BBFF2B7813F0FC0F45
:104AE00002D07846F6F7B4FFEFF3108672B668345A
:104AF0000722294620460CF04CFC2046FFF77EFE9C
:104B000006B962B670BD38B50D46044610B9784690
:104B1000F6F79EFF132D03D87846F6F799FF02E0CB
:104B2000B5F5205FF8D84FF47A7194F844306943B2
:104B300021673BB123782BB104F14400BDE8384034
:104B4000FFF792BE38BD38B50D46044610B9784619
:104B5000F6F77EFF84F8285038BD000010B54FF0FE
:104B600080530446D3F8A0200378094912F00102CB
:104B700014BF62F347036FF347030370062201304B
:104B80000CF007FC2046BDE81040FFF737BE00BF21
:104B9000A4000010F8B50D4616461F46044600B1A5
:104BA00012B97846F6F754FF0A2F02D87846F6F77E
:104BB0004FFFBAB2314604F15C00F8F74CFB04F148
:104BC0006800FFF7CBFF144BE56744F62062C4E9A9
:104BD0001C23124A226325226285032284F82C209A
:104BE00084F83C200E4A6263002304F174010D4AEC
:104BF00084F8783084F82830A1636362E2646465E5
:104C000023703DB1224604F180000749BDE8F84019
:104C1000FAF7FCBEF8BD00BF25262703D6BE898E55
:104C20002348030091480300D9470300034A13684F
:104C300013B1002111601847704700BF9049002050
:104C400008B50848F9F76DFF48B9074B186818B15F
:104C5000064B187880F0010000F0010008BD01202B
:104C6000FAE700BF80490020944900207C490020D9
:104C70001C4B10B501214FF0FF321B4C59604FF413
:104C80008060D960C3F808230022C3F80022C4F86A
:104C900080010424C3F84021C3F84015C3F810452F
:104CA000C3F80425114CC3F80825114AC2F8604521
:104CB000A4F50354383CC2F86445C2F804051960F1
:104CC000D3F840110029FBD00021C3F840114FF464
:104CD0008061C2F80815074AD2F84805D3F8403574
:104CE000C01A10BD00A0004000E100E040A100405B
:104CF00000F0014000800040F8B5FAF70DFC0028F4
:104D00006BD13648F9F70DFF054680B10468FAF714
:104D10001DFC0646FAF714FC002C40D0E36864330F
:104D2000984206D20120BDE8F840FAF755BC044687
:104D3000EDE79E4233D92A4E33781BB100F010FDC7
:104D4000002333702548F9F7D9FE854202D0784612
:104D5000F6F77EFE002501206561FAF74FFC214B36
:104D6000214F1C60214B224E4FF0FF32C3F8082325
:104D7000204B0222C3F88021FFF77AFFE3681E4A26
:104D8000216935700344136001233B702368984701
:104D900033783D700BB3BDE8F84000F02FB8B6F59E
:104DA000FA7F1AD900F0D2FD98B10D4B1A78A2B94A
:104DB0000E4A4FF0FF31C2F808130E4A0221C2F822
:104DC000801101221A70FFF753FFBDE8F84000F090
:104DD000B3BCBDE8F840FAF7F1BBF8BD804900204C
:104DE0008D490020944900208C490020001000408B
:104DF0007C49002000E100E08849002008B5FAF76E
:104E000049FC0C4B1B68C01A002802DB7846F6F7F9
:104E10001FFE0020FAF7F2FB074B00221A60074B37
:104E20001B781BB1BDE80840FAF7C8BBBDE80840D5
:104E3000FFF762BF88490020944900208E49002076
:104E400038B5114C2268A2B1936813B97846F6F7C9
:104E5000FFFD0E4D01232B7023689A681869904757
:104E600000232B700A4B1B786BB1BDE83840FFF76D
:104E7000C5BF084B1B7813B97846F6F7E9FDBDE8C6
:104E8000384000F017BD38BD944900208C490020FF
:104E90007C4900208D49002008B50948F9F70AFE31
:104EA000084A00231360084A1370084A0121117050
:104EB000074A1370074A1370074A82F80A3308BD7D
:104EC00080490020944900208D4900208E4900200F
:104ED0008C4900207C49002000E100E038B50F4BF0
:104EE0001A7802F0FF04B2B90D4A106001221A705C
:104EF000FAF73EFB054618B1FAF74EFB204606E0EE
:104F0000FAF742FB044618B1FAF758FB284638BDB9
:104F1000FFF78CFEF2E70820F9E700BF8E4900207A
:104F20009049002008B5094B1B786BB900F00EFDC5
:104F300030B1FAF7CDFA38B1BDE80840FAF72CBB2A
:104F4000FFF77EFE0028F4D108BD00BF8E49002087
:104F500010B5054B1A782AB100241C70FFF7E2FF48
:104F6000204610BD0820FCE78E49002010B50446FD
:104F700010B97846F6F76CFD236813B97846F6F752
:104F800067FDE36813B97846F6F762FDE2680E4BF9
:104F90009A4202D97846F6F75BFD6369A34211D0C5
:104FA0000A48646104F11401F9F78EFD084B1B787F
:104FB00003F0FF0023B9074B1C6824B9FFF7B2FFC9
:104FC000002000E0082010BD60850100804900201D
:104FD0008E4900209449002010B50E4B1B6813B970
:104FE0007846F6F735FDFAF7C9FA10B97846F6F7BC
:104FF0002FFD094C227812B17846F6F729FD074BB0
:105000001B7813B10123237010BDBDE81040FFF7DA
:10501000F5BE00BF944900207C4900208C49002047
:1050200038B5FAF7ABFA10B97846F6F711FD144C1B
:105030002268A2B1536813B97846F6F709FD114DFD
:1050400001232B7023685A681869904700232B703E
:105050000D4B1B7893B1BDE83840FFF7CFBE0B4B2B
:105060001B7813B97846F6F7F3FC00F081FB00F0EB
:105070006DFC18B9BDE83840FAF7A0BA38BD00BFDA
:10508000944900208C4900207C4900208D49002053
:1050900008B5FAF773FA10B97846F6F7D9FC074B5A
:1050A0001B6853B9064B1B781BB1BDE80840FAF7E3
:1050B00085BABDE80840FFF71FBE08BD944900202F
:1050C0008E49002008B5FAF759FA10B97846F6F774
:1050D000BFFC084B1B6813B17846F6F7B9FC064BCA
:1050E0004FF480621A6002221A60BDE80840FFF7A0
:1050F00003BE00BF9449002000E100E038B5FAF794
:105100003DFA10B97846F6F7A3FC134B1B6813B1B0
:105110007846F6F79DFC114C23781BB100F020FB7C
:10512000002323700E4B0F4D01214FF0FF3400225E
:105130005960D960C3F80843C3F800220A4A4FF403
:105140008060C2F88001C5F808430224C2F880419B
:105150001961C2F8800038BD944900208D490020B3
:1051600000A000400010004000E100E0024B1B786E
:105170000BB1FFF75BBD70478E49002070B5244C22
:10518000D4F81031054613B97846F6F761FC214E84
:105190000023C4F8103133780133337000F05CFD24
:1051A00095F8342033789A421DD21B4BD3F84065D2
:1051B0001A4B19680E44FAF76DFAEB6A0446314649
:1051C00005F11C009847FAF765FA001B502802D435
:1051D0007846F6F73DFC00F073FDFFF7FDFE002377
:1051E00085F8383070BD0DD92A6BD05C00F020F9FD
:1051F000074BD3F81031002BF4D07846BDE870404F
:10520000F6F726BC0323C4F8003200F033FDEFE7C5
:10521000001000409C49002000A000409849002058
:10522000F8B5264A264B274FC3F8602502F50F42F2
:105230003C32C3F864254FF480620D46C3F8042560
:10524000044600F0D5F805F1200000F005F9002132
:10525000A86A00F047F92B6B187800F0E9F80126EE
:1052600020463E70FAF76AFA174B184C1860EB6943
:10527000C4F804350023C4F810311023C4F80433F3
:10528000134B5E642660D3F844053146304400F089
:1052900087FC95F83430B34209D90723C4F80032AB
:1052A0003B782A6BD05CBDE8F84000F0C1B803231E
:1052B000C4F80032BDE8F84000F0DCBC0411004046
:1052C00000F001409C490020984900200010004057
:1052D00000A0004010B5C36A044613B97846F6F73B
:1052E000B7FB94F838301BBB124B2360124B636042
:1052F000E36994F82410587894F83420042900F1D4
:105300000A0308BF00F10B030C48415C4B432E33EA
:1053100053439833C4E90334012384F838302046DA
:10532000FFF724FE18B17846F6F792FB002010BD77
:105330001120FCE7215203007D510300E02104000D
:1053400010B5044610B97846F6F782FB636813B9C6
:105350007846F6F77DFB2378012B02D97846F6F7DD
:1053600077FB2078044B04F10C0103EBC000BDE88F
:105370001040FBF77EBB00BFA049002010B50446DB
:1053800010B97846F6F764FB2378012B02D97846EA
:10539000F6F75EFB2078044B04F10C0103EBC00030
:1053A000BDE81040FBF786BBA0490020F8B50646D3
:1053B0000F4611B97846F6F74BFB012E02D9784615
:1053C000F6F746FB094C54F8365035B904EBC600E5
:1053D0004368013343602846F8BD55E90231384639
:1053E00098470028F8D12D68EFE700BFA0490020BA
:1053F0000D4B0022C3F8FC2F0122C3F8FC2F40F212
:105400005B62C3F8382540F20312C3F83425074A1B
:10541000C3F83C259622C3F84425D3F8502642F021
:105420000102C3F850267047001000405555550042
:10543000272810B5044602D97846F6F709FB044B35
:105440001A5D044BC3F80825C3F8544510BD00BFCE
:10545000E62104000010004010B5044610B978465B
:10546000F6F7F6FA2379052B02D97846F6F7F0FA23
:10547000638813B97846F6F7EBFA63880233B3F51D
:10548000817F02D97846F6F7E3FA154B2278C3F804
:105490000C252279C3F81025A27842F0007242F45C
:1054A0004032C3F818256288252A8CBF08220622BC
:1054B000C2F1080142F4807242EA0142C3F81425A5
:1054C000D3F8142542F48012C3F814252279042A53
:1054D00002BFD3F8142542F08072C3F8142510BD22
:1054E0000010004070B5124DD5F81835C3F30243D3
:1054F000032B04460E4602D07846F6F7A9FA36B1D9
:10550000012E0BD07846BDE87040F6F7A1BA230E05
:105510002402C5F82435C5F81C4570BD230C044A87
:1055200003F47F432402C2F82435C2F82045F4E78F
:1055300000100040EFF3108372B6054A52781AB19A
:10554000044A0221C2F8001103B962B6704700BFD5
:10555000B049002000E100E0024B00221A71FFF781
:10556000E9BF00BFB0490020074B5A7993F82F10CC
:105570000132D2B291425A719CBF00225A7102226A
:105580001A71FFF7D7BF00BFB0490020F8B5194D19
:10559000194EFFF72DFF00241848FFF75DFF012784
:1055A000C5F8304556F8040F48B12146FFF79AFF79
:1055B000D5F8302507FA04F31343C5F83035013424
:1055C000082CEFD10B4B1122C3F80443C3F800227F
:1055D0000022C3F8042103F5F033094AC3F860251B
:1055E00002F5DE424432C3F864254FF48062C3F80A
:1055F0000425F8BD00100040DC490020CC49002003
:105600000411004010B50F4CA36813B17846F6F7AB
:105610001FFA0D493C2201F17C00F7F79AFE031EA8
:1056200009BFA268A2690949183213BF0132C1F843
:1056300004250120002018BFA261003318BF0123F8
:10564000A37010BDB0490020B849002000100040F0
:1056500038B5194BD3F8503513B17846F6F7F8F949
:10566000164D6B792B4493F82C00FFF7E1FEEB7895
:105670001BB1FFF78BFF0023EB70FFF7C3FFB8B13F
:105680000F4C0D4B012161645960D4F84405084466
:1056900000F0B4FA00F0EEFA0023C4F84431094BEC
:1056A0004FF48062C3F880214FF40033C4F8043310
:1056B00001232B7138BD00BF00100040B04900200D
:1056C00000A0004000E100E070B50B4C0B4D012242
:1056D00000262261C4F80C61A96821B105F184009B
:1056E000F7F71BFFAE60D4F85035002BFBD1BDE8B7
:1056F000704000F0E5BA00BF00100040B049002043
:1057000010B5F9F71BFC04460948D0E909138B4290
:1057100008D16830F9F7D2FB21460648BDE81040B1
:10572000F9F7E3BB21446830F9F7DFFBF4E700BF8A
:10573000B0490020004A002010B5084C01236370D6
:105740000023E370FFF722FF2378022B05D1237992
:105750001BB1BDE81040FFF77BBF10BDB049002072
:10576000024B00225A70FFF7AFBF00BFB0490020C4
:10577000F8B54C4B4C4CD3F80C21002A50D00022E9
:10578000C3F80C21D3F80C21D3F80024A56822B962
:10579000236901332361294655E0697EE28B9142FA
:1057A00048D8D3F8482552426A73D3F8082404EB4A
:1057B00082022E1D126BAA60D3F8543503F03F030A
:1057C0002B733A4BD3F848753846F9F7B7FF0622E2
:1057D000686005F11B0105F10F000BF0DAFD2B7E6F
:1057E000AA7BC3F3801161F34702AA73C3F30303D7
:1057F0006B75E3680133E360D4F89032F3B9314656
:105800000020FFF7D3FDE8B96A7E2948A168173266
:10581000F7F7F0FDD4F88000FAF7D6F80023A3607C
:105820002378012B13D0022B15D07846BDE8F84021
:10583000F6F70EB9636901336361ACE73946304668
:105840009847DCE7A1681A48F7F767FEE6E7BDE886
:10585000F840FFF739BF134BD3F85035032BE4D88A
:10586000DFE803F002190A1923799BB1022BDCD877
:10587000BDE8F840FFF7ECBE2479012C05D0E6D353
:10588000022CD2D1FFF720FFF2E7FFF7BBFE08B1F1
:10589000044B9C60F8BD2379012BFBD0D7D3022B9E
:1058A000EFE700BF00100040B0490020008000403A
:1058B000344A002010B50A4CD4F8443113B9784664
:1058C000F6F7C6F84FF40033C4F808330023C4F8E1
:1058D0004431D4F84431BDE8104000F0BDB900BFF8
:1058E00000A0004010B5094C237813B97846F6F7AC
:1058F000AFF82378012B07D1FFF702FF02232370B3
:10590000BDE81040FFF70EBB10BD00BFB04900203E
:1059100010B50B4C237813B97846F6F799F823782D
:10592000022B0BD10748F9F7C9FA0748F9F7C6FA6D
:1059300001232370BDE81040FFF7FCBD10BD00BF80
:10594000B0490020184A0020004A0020024B187875
:10595000831E584258417047B049002038B505466B
:1059600010B97846F6F774F8064C291F04F1840044
:10597000F7F7D3FDA3781BB1BDE83840FFF7DABDD8
:1059800038BD00BFB049002013B50B4C01A920461B
:10599000F7F761FD08B100200BE001990120043107
:1059A000FFF704FD019B18B1181DFFF7D7FFEDE7C6
:1059B000181D02B010BD00BF344A00200148F7F79F
:1059C00077BD00BF344A0020884238B504460D46F2
:1059D00002D27846F6F73CF80C4B9C4202D9784646
:1059E000F6F736F840F6B7339D4202D87846F6F718
:1059F0002FF8074BC3E909545C67DC651B78022B61
:105A000003D1BDE83840FFF77BBE38BD000071020E
:105A1000B04900204B1E022B70B506460C4602D939
:105A20007846F6F715F83246931BDBB29C420AD94A
:105A300012F8013B252BF7D0262BF5D0272BF3D0DE
:105A40007846F6F705F8064D2246314605F12C005A
:105A50000BF09FFC00236B7185F82F4070BD00BFD9
:105A6000B04900204B1E072B70B506460D4602D9E3
:105A70007846F5F7EDFF084C2022002104F13000B4
:105A80000BF092FCAA00314604F130000BF081FCCF
:105A90000123E37070BD00BFB049002007B50F4B74
:105AA00068461A889B78ADF8002003218DF80230F3
:105AB000FFF7B0FF02A80A4B40F8043D0121FFF7B1
:105AC000D1FF084B0849032283F820200846012211
:105AD000DA70FFF779FF03B05DF804FB0E220400D3
:105AE000D6BE898EB049002080841E0038B5114C86
:105AF00005464FF42572002120460BF055FC4FF46B
:105B0000007204F1900104F18400F7F7A4FBFFF7A1
:105B1000C5FF002323772523E383074B2367074B28
:105B2000A3652846012323702371F9F72FFFC4F8DA
:105B3000800038BDB0490020595503006955030065
:105B40000278D3070DD59108012312F0020F03FA52
:105B500001F34FF0A04202D0C2F80C357047C2F8F2
:105B600008357047002303600B4B99781B79CA00F6
:105B700002F180429B0002F5F83203F1804303F505
:105B8000C043C2F81005C2F814350123034A8B4004
:105B9000C2F80435704700BF444C002000F00140BB
:105BA00038B5114B5A7905460C46E2B11A78D1073F
:105BB00019D599780D4B0E4812F0020F18BF4FF00F
:105BC0000313920843EA022301F5A272094900EB8C
:105BD000840041F82230FFF7C5FF04F5A874064B96
:105BE000163543F8245038BD444C00200300130000
:105BF00040A100400060004000A0004038B5114BBB
:105C00005A7905460C46E2B15A78D10719D59978E8
:105C10000D4B0E4812F0020F18BF4FF003139208FD
:105C200043EA022301F5A272094900EB840041F81E
:105C30002230FFF797FF04F5A874064B163543F89A
:105C4000245038BD444C00200300130040A1004004
:105C50000060004000A00040044B5A792AB19A78B5
:105C600001239340024AC2F808357047444C002093
:105C700000F001400F494B79D3B10F4B0022C3F81C
:105C80001021C878C20002F1804202F5F83203F513
:105C90008873C2F810350B799B0003F1804303F53C
:105CA000C043C2F814350123044A8340C2F80435C6
:105CB000704700BF444C00200010004000F001403D
:105CC00010B50F4C6379CBB1E178A378012202FAC9
:105CD00003F38A4013430B4AC2F808352379A2F52F
:105CE000C83203F5A2730021204642F82310FFF7C3
:105CF00027FF601CBDE81040FFF722BF10BD00BFAA
:105D0000444C002000F0014076DF70477FDF704791
:105D10008FDF704790DF7047A8DF7047AADF7047BA
:105D2000AEDF7047B1DF7047B5DF704708B5088850
:105D30001321FFF7E9FF30F0080304D07846BDE8EF
:105D40000840F5F785BE08BDF0B50E468FB0174682
:105D5000054600B111B97846F5F77AFE484CFF23A5
:105D600084F84D31474BC4F8583104F11C03C4F892
:105D70006031D822444BE361002104F12C000BF088
:105D800013FBD82204F12C0104F12000F7F763FA89
:105D90000622294620460BF0FCFAA66101AE2B88AC
:105DA000ADF804300120A21D31468DF80600FFF742
:105DB000B3FF10B17846F5F74BFE1C22AB88ADF867
:105DC000043000210DEB02000BF0EEFA9DF81C30C0
:105DD000032243F00403002168468DF81C300BF0C9
:105DE000E3FA9DF80030012262F3030362F3071324
:105DF0008DF800309DF8013062F3030362F307135E
:105E00008DF801309DF8023062F3420303F0E7039E
:105E100013430021142202A88DF802300BF0C4FABB
:105E2000002342220493ADF81420069302AA174BD4
:105E3000E088029607A9CDF80CD0FFF76FFF10B1EC
:105E40007846F5F705FE1C226B88ADF8043000217A
:105E50000DEB02000BF0A8FA9DF81C30E08843F02F
:105E600010038DF81C3002AA094B07A9FFF756FF53
:105E700010B17846F5F7ECFDC4F868710FB0F0BDCD
:105E80004C4C00202D5D0300FFFF14005C4C0020F3
:105E9000544C0020F7B50E4615461F46044610B177
:105EA0007846F5F7D5FD032E02D97846F5F7D0FDF3
:105EB000422D02D97846F5F7CBFD14484FF4A6736E
:105EC0006343C218918B4FF6FF72914202D10020BA
:105ED00003B0F0BD02A90024AA1D203341F8044DEF
:105EE00092B21844F7F735FA48B90198437A4760F7
:105EF000013566F30503057243720A30E8E70428AA
:105F0000E5D07846F5F7A4FD2046E1E74C4C0020AB
:105F100070B504460E4611B97846F5F799FD14B1EF
:105F20007846F5F795FD0C4D4FF4A67303FB04532B
:105F30009A8B4FF6FF739A4202D17846F5F788FDA7
:105F40004FF4A67000FB0450A6F10A012030BDE812
:105F50007040F7F7E2BA00BF4C4C0020064A08B583
:105F60004FF4A67303FB00202030F7F710FB80F0FE
:105F70000100C0B208BD00BF4C4C002070B5064601
:105F800010B17846F5F764FD4FF4A6757543064CDD
:105F900005F5A87020442C44F8F790FFA08B13213E
:105FA000BDE87040FFF7B0BE4C4C00202DE9F04F2B
:105FB000594E4FF4A67303FB006387B0D3F8047106
:105FC000054617B97846F5F743FD4FF4A67303FB72
:105FD000056393F808213B7A9A4202D37846F5F795
:105FE00037FD4FF4A67303FB05633C7A93F8082151
:105FF000DB8B002A5DD1A3422CBF4FF000084FF08D
:10600000010808F1FF395FFA89F9B9F1010F59D98F
:10601000B8F1000F02D0B8F1030F55D1A41AA4B201
:10602000A34202D27846F5F713FD4FF4A67A0AFB95
:10603000056A04379AF8083105330021FA5C68F3E1
:106040008712FA5402A8102207EB030B0BF0ACF9ED
:106050003389ADF808300DF10603049302A901233A
:10606000BAF81C008DF80A30ADF80640CDF814B02F
:10607000FFF756FE43F20143984212D100231A461D
:106080001946BAF81C00FFF74DFE10B17846F5F737
:10609000DFFC4FF4A67303FB056302A9988BFFF79F
:1060A0003FFE082812D12846FFF768FF07B0BDE879
:1060B000F08FA4EB02089845CCBF4FF002084FF0D8
:1060C00003089EE71C46B0E70024AEE71328EDD096
:1060D00018B9BDF80630A34202D07846F5F7B8FCEF
:1060E0004FF4A67303FB0563B9F1010F93F8081190
:1060F00001F1FF331C44E4B206D80531601D0122D2
:10610000394438440BF045F94FF4A67303FB056599
:1061100085F80841CAE700BF4C4C00202DE9F0414A
:1061200080460E4611B97846F5F792FCB8F1000F9B
:1061300002D07846F5F78CFC194D4FF4A67404FB99
:1061400008F42B199A8B4FF6FF739A4226D03146EA
:1061500004F120072F44384631F80A2DF7F74AF9A1
:106160003846F7F7A5F9B8B104F5827129443846E5
:10617000F7F771F910B17846F5F76AFC4FF4A6739A
:1061800003FB0855D5F8043113B97846F5F760FCE0
:106190004046FFF70BFF0020BDE8F0810820FBE739
:1061A0004C4C0020F0B50388232B89B0044600F046
:1061B000628114D8112B00F0918003D8102B74D079
:1061C00009B0F0BD132B00F06781212BF8D108A98D
:1061D000002321F8103D8088FFF79AFD55E1522BEE
:1061E00000F0428117D8262B00F0A680502BE7D173
:1061F000B84D8388AA8B9A42E2D1C388AA899A4271
:1062000040F0AB80028A022A40F0A780837CDA0744
:10621000D6D5052359E0552B00F04581572BCFD11A
:10622000AC4B81889A8B91421C46C9D1D3F804515A
:10623000002DC5D093F808212B7A013B9A4230D12A
:10624000294604F12000F7F768F900230122C4F879
:10625000043184F808318DF810208DF811306B7AF4
:10626000D4F86811C3F305038DF818306B680593F3
:1062700004A8A369984704F12000F7F719F900284A
:106280009ED004F58271A1F1E400F7F7E4F810B1B3
:106290007846F5F7DDFBD4F8043113B97846F5F705
:1062A000D7FB0020FFF782FE8AE78A4DAA8B4FF6C4
:1062B000FF739A4284D18388AB83D82205F12C01E5
:1062C00005F12000F6F7C7FF03238DF810300023F7
:1062D0008DF81130AB69D5F868112AE07D4B8188C3
:1062E0009A8B91421C467FF46BAF03F5A870F8F7C8
:1062F000E5FDD4F804110025FF2384F84E5184F8FD
:106300004D3139B104F12000F7F707F9C4F8045111
:1063100084F808517048F6F7F4FF4FF6FF73A38333
:1063200004238DF8103000238DF81130D4F8681153
:10633000A36904A8984743E7037A012B7FF440AF91
:1063400002238DF8103083888DF81130614B04A83A
:106350009A69D3F86811904732E72A8A9A427FF403
:106360002FAF268A012E1AD995F84E01C0F14203AB
:106370009E4214D8A37C03F03F03032B0FD895F85B
:106380004D21934201D0FF2A09D1A37C013EB6B230
:106390009A09002845D0022A05D0032A1AD00020E5
:1063A000FFF7ECFD0CE7F8F7C9FD4C4901444C48F8
:1063B000F8F79BFD95F84E0100F58670324604F122
:1063C000130128440AF0E5FF95F84E311E4485F884
:1063D0004E61F5E600F58670324604F1130128445B
:1063E0000AF0D7FF95F84D318DF8143095F84E31FD
:1063F0003C4FD5F86811069700241E4404A8AB69E9
:106400008DF810408DF81140ADF81C60984707F1E9
:106410004400F8F753FDFF2385F84E4185F84D31D0
:10642000CEE6A2B1012ABAD1F8F788FD2B49014482
:106430002B48F8F75AFD324604F1130129480AF0B7
:10644000A8FFA37CC3F3050385F84D31BFE7C3F371
:10645000050313348DF810008DF811008DF81430F9
:106460000694ADF81C6035E700231A46194680886B
:10647000FFF758FCA4E60822002104A80AF094FFC4
:10648000002204A9A088FFF745FC00283FF498AE3D
:106490007846F5F7DDFA93E600231A4685218088D1
:1064A000FFF734FCF1E70B4BA288988B82427FF414
:1064B00087AEE588162D0BD9442D94BF2C46452474
:1064C0002146FFF731FC064670B9033CDC8377E6D2
:1064D0001724F5E74C4C00206C4C0020002D3101B6
:1064E0009C4D0020584D0020154B1B689B067FF5E6
:1064F00067AE144B1B68012B7FF762AE2F21124849
:106500000BF022F890B12F210F480BF01DF8411C21
:106510000E4B0F4AD3F804350092CDE90254019690
:1065200040F21B220220FAF73FFB49E65C210648B5
:106530000BF00AF808B15C21E6E70349E8E700BF81
:10654000482E0020442E002011220400001001409B
:106550002E220400014B93F844007047384E00206F
:10656000024B1B780B7082B002B07047702E002077
:10657000024B82B001221A7002B07047702E0020C8
:1065800010B5C36C044613B97846F5F761FA0648AE
:10659000064BE16C201A8010584380B2FFF7B8FC1C
:1065A0000023E36410BD00BF384E0020A737BDE9CB
:1065B00010B5044610B97846F5F74AFAA4F1500030
:1065C000BDE81040FFF7DCBF38B5C36C054613B912
:1065D0007846F5F73DFA094CE96C2C1BA310084CE2
:1065E0005C43A4B22046FFF799FD18B1E96C204640
:1065F000FFF78EFC0023EB6438BD00BF384E00204F
:10660000A737BDE9F8B50D461746044600B111B9E4
:106610007846F5F71DFA54F8043CA4F1500613B976
:106620007846F5F715FA3A46294654F8040C0AF06C
:10663000B0FE3046BDE8F840FFF7C6BF2DE9F04197
:106640009846C36C04460E46174613B17846F5F7D4
:10665000FFF90948094D201A801068434346BAB231
:10666000314680B2FFF716FC0028E0640CBF04201E
:106670000020BDE8F08100BF384E0020A737BDE9FB
:1066800038B50D46044600B111B97846F5F7E0F982
:1066900014F80C3C0BB9012038BDAB68503C59884C
:1066A000204600F035FE0028F5D0EB686A6800212E
:1066B0002046FFF7C3FF00280CBF00200220EBE7B5
:1066C00070B5274BDC6993F820208EB00CB1A2B9CD
:1066D00008345D789DB90EAE082206F8145D04F109
:1066E00010010DF125000AF054FE0922314641F651
:1066F0002800F4F777F90EB070BD3034E9E7012DCA
:10670000F9D10DF10201684607F01EFDBDF80060E9
:106710000622002101A80AF047FE08210DF10A0017
:10672000F8F71AFD330A43EA062305AA01A904F182
:106730001800ADF81230F9F75BFA082207A90DF13D
:1067400025008DF824500AF024FE08220DF10A01DC
:106750000DF12D000AF01DFE112209A9C7E700BFA7
:10676000B84D002010B5034C201DF8F7A7FB0023FF
:10677000237010BDB84D0020034B93F8440010B1B6
:106780000020FFF7EBBB7047384E002013B50B4CD1
:1067900000200DF1070204F11C0107F0EDFBE06998
:1067A00050B90DF1070204F11C0107F0E5FBE369A4
:1067B00013B97846F5F74CF902B010BDB84D00207A
:1067C00008B5FFF7E3FFBDE80840FFF779BF000019
:1067D00070B5144C2278607005460E460AB1F4F785
:1067E00093F9AEB1FFF7D2FFF8F7A8FB2169014496
:1067F0000D48F8F77AFB7DB94FF448612846F4F765
:106800005FF9FFF75DFFF4F76FF90123237070BDA7
:106810000548F8F753FBEEE74FF4A07141F28830DA
:10682000EDE700BFB84D0020BC4D002013B50C4B68
:106830000C780190187824B178B901221A7002B04E
:1068400010BD50B11C70074B18780028F7D0F4F732
:106850005BF9FFF787FF2046F1E70820EFE700BF6D
:10686000702E0020B84D00202DE9F743124D95F809
:10687000444006460F4690469946B4B1002316227E
:1068800001212846FFF7DAFE044690B9EB6C00932D
:1068900042464B4639463046FBF76CFF10B178460E
:1068A000F5F7D6F80448FFF78FFE204603B0BDE8A1
:1068B000F0830424F9E700BF384E002010B50378B8
:1068C000042B044615D1C3681B78012B11D0016934
:1068D0000848FAF788F860B9637E227E6169A0688B
:1068E000FFF7C2FF28B921690248BDE81040FAF756
:1068F0009AB810BDDC4D002037B5154B1549186806
:10690000009000229B88ADF804306846FFF71CFA1F
:106910001148124B0360F8F7B5F81148114C0823E1
:106920008360114B036004234360FAF74DF80F4B6B
:106930000F4ADA600F4A1A61002502220E491D70C3
:1069400004F15000FBF7A2FA84F8445003B030BDC4
:1069500072220400B96A0300944E0020BD6803004F
:10696000DC4D0020384E0020F84D0020B84D0020AE
:10697000C1670300809698005823040010B50B4BA4
:106980001B7863B10A490A785AB9FFF7E3FD044658
:1069900048B9C8610121FFF71BFF204610BD08243C
:1069A000FBE70024F9E71446F7E700BF702E00204C
:1069B000B84D002037B50C4611B97846F5F748F8C0
:1069C00000230DF1030201A92046019307F0D4FA38
:1069D000019B13B97846F5F73BF8019C9DF803300D
:1069E0000CB18BB90834F7F7F3FB0546F7F70CFC4D
:1069F0009DF803309A1E53425341294602462046D1
:106A0000FFF732FF03B030BD3034ECE710B40A7842
:106A1000012A044614D10B890B485C2101FB0300B9
:106A200090F8443063B190F8423004F108011BB98A
:106A30005DF8044B00F01ABC5DF8044B00F040BC5C
:106A40005DF8044B704700BF384E0020084B1B78A0
:106A500053B1084A13783BB15378012B06D118B1D2
:106A6000D3691A1A53425341184670470023FBE773
:106A7000702E0020B84D0020014B1878704700BFE1
:106A8000702E002008B5044B187820B1FFF762FD86
:106A9000003018BF012008BD702E002010B5054C35
:106AA00094F844302BB10020FFF768FA002384F8F3
:106AB000443010BD384E00202DE9F04F7F49477813
:106AC0007F4D0B6802785C2417FB04F4B3B080465A
:106AD0002E1903F001038946052A00F20183DFE83D
:106AE00012F003019302D402060047008F00BBB1ED
:106AF000744B1B68032B13DD2F2173480AF024FD10
:106B000068B32F2170480AF01FFD411C6F4B704A7B
:106B1000D3F804350092042040F25522FAF744F8E5
:106B2000FFF720FE5C2303FB0757012387F844305F
:106B3000304600F07DFB002004F1450204F14801DD
:106B4000B8642A44294407F017FAFFF703FD18B97F
:106B500001210020FFF73CFE33B0BDE8F08F5C213F
:106B600059480AF0F1FC08B15C21CBE75649CDE762
:106B7000C3B1544B1B68032B14DD2F2152480AF07C
:106B8000E3FC002833D02F214F480AF0DDFC411CE4
:106B90004E4B504AD3F804350092042040F265224F
:106BA000FAF702F85C2303FB0755002385F844300D
:106BB000494B1B7833B1494B187818B90121D8617A
:106BC000FFF706FE464A1378002BC5D0FFF7C2FC3C
:106BD00001460028C0D110702C2221A80AF0E4FB45
:106BE0001B2321A88DF88430F6F7C4FAB4E75C21A2
:106BF00035480AF0A9FC08B15C21C5E73249C7E76E
:106C0000C3B1304B1B68032B14DD2F212E480AF033
:106C10009BFC002846D02F212B480AF095FC411CF4
:106C20002A4B304AD3F804350092042040F27B22EC
:106C3000F9F7BAFF04F148085C234534A8442C4412
:106C400003FB0755AF6C002F86D095F8453093BBFA
:106C50000837F7F7BDFA8146F7F7D6FA00238246E0
:106C600016220121304695F845B0FFF7E7FC0028D1
:106C70007FF472AFEB6C00931BF1000318BF01238C
:106C8000524649463846FBF775FD10B17846F4F791
:106C9000DFFE3046FFF798FC22464146002007F011
:106CA0006BF9CFE75C2108480AF04EFC08B15C2183
:106CB000B2E70549B4E73037CBE700BF482E0020E4
:106CC000384E0020442E00207C2204000010014099
:106CD00095220400A0220400702E0020B84D002050
:106CE000A14E0020AE220400CBB1BF4B1B68032B8A
:106CF00015DD2F21BD480AF027FC002800F08D800B
:106D00002F21BA480AF020FC411CB94BB94AD3F8EC
:106D10000435009204204FF42072F9F745FF182241
:106D2000002105A898F804A0D8F80840B8F80C800D
:106D30000AF03AFB01238DF81430F8F7FFF8731BC3
:106D40009A10AD4B06905343ADF81C30D9F8003083
:106D5000DA071AD5A44B1B68032B16DD2F21A34895
:106D60000AF0F2FB002861D02F21A0480AF0ECFBCA
:106D7000411C9F4BA14AD3F804350092CDE901A8EC
:106D800040F23B220420F9F70FFFBAF1010F5CD06B
:106D900055D3BAF1020F7FF4DFAE08F1FF33412B78
:106DA00000F2F78001230093224621AB41460BA855
:106DB000F9F7D0FB0446002840F0C3809DF8373037
:106DC000002B00F0BE809DF83630002B40F0B980DB
:106DD000BDF82E30002B40F0B48021A8F9F7A2FCBA
:106DE000814641460BA8F9F793FC99F80030012B36
:106DF00000F1FF3273D02FD3022B7FF4ADAE402AC7
:106E00003FF6AAAED0073FF5A7AE520811A9A2429D
:106E10007ED1304600F054FA29E05C2173480AF034
:106E200093FB08B15C216CE770496EE75C216F4809
:106E30000AF08AFB08B15C2197E76C4999E705AA3B
:106E400041462046F9F71CF986E605AA5FFA88F163
:106E50002046FAF78BFE7FE6012A7FF47DAE99F893
:106E60000110304600F0F0F900287FF475AE0023E1
:106E7000152202213046109CFFF7E0FB80460028D7
:106E80007FF46AAE5C2303FB0755E86CF9F74AFC14
:106E900000283FF461AE0323037095F8423043703D
:106EA000B5F84020130A43EA0223438018224146E2
:106EB00011A801270AF078FA8DF84F70F7F78EF9CC
:106EC0000DF11201CDE9150413A807F03DF914A83E
:106ED000F7F71CF938B33046FFF752FB3CE6402A7F
:106EE0003FF63AAED3073FF537AE520811A9A2429A
:106EF00003D1304600F0BAF9B9E709EB4403B3F81F
:106F00000100030A43EA002321F814300134EEE7BC
:106F100009EB4403B3F80100030A43EA002321F814
:106F20001430013473E711A9E86CF9F79CFB11A840
:106F30003B46EA6C0421F9F757FB3046FFF744FB68
:106F40000AE6D9F80030D9077FF506AE264B1B6854
:106F5000032B7FF701AE2F2124480AF0F5FA78B110
:106F60002F2122480AF0F0FA411C214B244AD3F881
:106F700004350092042040F22522F9F715FEEBE5D6
:106F80005C211A480AF0E0FA08B15C21E9E71749E8
:106F9000EBE7D9F80030DA077FF5DEAD124B1B685E
:106FA000012B7FF7D9AD2F2110480AF0CDFA88B117
:106FB0002F210E480AF0C8FA411C0D4B114AD3F894
:106FC00004350092CDF8048040F22A220220F9F71D
:106FD000EBFDC1E55C2105480AF0B6FA08B15C2179
:106FE000E7E70249E9E700BF442E00207C220400C5
:106FF00000100140B8220400A737BDE9BC220400FC
:10700000DB220400EE220400BBB1484B1B68032BBB
:1070100013DD2F2146480AF097FA68B32F21444820
:107020000AF092FA411C434B434AD3F804350092CC
:1070300004204FF42272F9F7B7FD98F8083073B9BD
:10704000D8F804104B1C5E425E41F7F777FF5034CE
:107050000246D8F8043031462819FAF7FDFE374BBE
:107060001B78002B3FF478ADFFF786FB00287FF4F8
:1070700073ADFFF713FD6FE55C212D480AF064FA4C
:1070800008B15C21CBE72A49CDE7BBB1274B1B6890
:10709000032B13DD2F2126480AF056FAB8B12F2111
:1070A00023480AF051FA411C224B254AD3F80435F3
:1070B0000092042040F2A122F9F776FD214B002234
:1070C0001A70214B1B78002B3FF446AD40E55C2144
:1070D00017480AF039FA08B15C21E1E71449E3E7FF
:1070E000002B3FF439AD114B1B68012B7FF734ADFA
:1070F0002F210F480AF028FA78B12F210C480AF006
:1071000023FA411C0B4B98F80020D3F80435019268
:107110000E4A009240F2AB2258E75C2104480AF084
:1071200013FA08B15C21E9E70149EBE7442E00209E
:107130007C220400001001401D230400A14E002009
:107140002A230400B84D0020702E002037230400AD
:1071500030B5164C22788DB022B3154B1B781BB17D
:10716000F3F7D2FCFFF7FEFA00252570FFF7F2F9DE
:10717000044668B901462C2201A80AF015F91B2320
:1071800001A88DF80430F5F7F5FF20460DB030BDAD
:10719000084B01221A70FFF7EFFA044620B9FFF7F7
:1071A0007DFCF2E70824F0E72C46EEE7702E002085
:1071B000B84D0020A14E002010B50246FFF7CAF9D5
:1071C000044658B9064B83F82010B2FA82F14909F7
:1071D0000120DA61FFF7FCFA204610BD1124FBE71D
:1071E000B84D002010B50020FFF730FC68B1084B07
:1071F0001C782CB101210020FFF7EAFA002010BD15
:10720000F3F782FCFFF7AEFAF8E70820F7E700BFD4
:10721000702E002007B5054B02A901F8010D186872
:10722000FBF716FD03B05DF804FB00BF78220400F5
:1072300010B5044610B97846F4F70AFC002384F828
:107240004230A4F8403010BD38B50D46044610B9A0
:107250007846F4F7FDFB012D06D82046FFF7E8FF3E
:1072600084F84250002038BD0B20FCE7F8B50D46ED
:107270001646044610B97846F4F7EAFB15B9784685
:10728000F4F7E6FB0023B34203D0B4F840201F2AF2
:1072900000D9F8BD35F8131081B90133F3E734F89C
:1072A00010708F42F9D001309042F8D3511CA4F8ED
:1072B000401035F8131024F81210EEE70020F3E721
:1072C00070B50C461646054610B97846F4F7C0FB73
:1072D00014B97846F4F7BCFB214604EB4606B142EC
:1072E00015D0B5F84030002000E0013083420CD9C1
:1072F0000C8835F810209442F7D1013B9BB2A5F8D9
:10730000403035F8133025F810300231E7E770BD12
:1073100038B50D46044610B97846F4F799FBB4F831
:1073200040200023934206D3002094F842300BB152
:1073300080F0010038BD34F81310A94201D00133A8
:10734000F0E70120F1E737B50C4609890023CDE9C4
:10735000003321F00203012B15460FD16368012988
:107360001A788DF800200BD11B788DF801302B6B2B
:107370006A461B6804F10C012846984703B030BDEB
:107380005A7898788DF8012000F078F80190EEE7AF
:1073900010B5044686B0F0B1036BE3B11A68D2B100
:1073A0009A68C2B1826A0AB90C4A82620C4A009297
:1073B0000C4A02920122CDE90324ADF804109B6827
:1073C00005932146684603F057FF10B9208804F062
:1073D000A5F906B010BD0E20FBE700BF809698000F
:1073E000FFFF0110642304002DE9F04115461E46FD
:1073F000044600283AD0002938D042B112681D4B0B
:107400009A4235D86A6840F2FB439A4230D80B78EA
:10741000A3704B78E37004F10208EDB1286800F026
:107420004DF82071686800F079F804236071124A01
:10743000A38294F82C30A37594F82D30E375C4E939
:107440000328F7F72BFB04F10C07A06100250320AC
:10745000AE4203D2BDE8F0810223E8E73946208836
:1074600003F0E2FF0028F5D10135F1E70E20F1E746
:107470000720EFE780A037020382FFFF20F0C00360
:107480003F2B16D000F0C00040280CD002D838B1F5
:1074900000207047802809D0C028F9D1064800E0B4
:1074A0006420584370474FF47A70FAE742F2107044
:1074B000F7E74FF0FF307047C027090041F6380367
:1074C000984204D86423B0FBF3F0C0B270474FF287
:1074D0003023984206D84FF47A73B0FBF3F040F0B3
:1074E0004000F2E70A4B984206D842F21073B0FB14
:1074F000F3F060F07F00E8E7064B984205D8064BB2
:10750000B0FBF3F060F03F00DFE73F20704700BFC3
:10751000E075090080A03702C0270900FF289DBF41
:107520000523B0FBF3F0C0B2FF2070472DE9F04F08
:107530000C468BB0804600B111B97846F4F788FA52
:107540002388212B02D87846F4F782FA59224FF487
:107550002013CDE9072300260B230A2207A9404662
:10756000ADF82430ADF80A6009F013FF0A23238038
:10757000B5B20DF10E01284604F0C4FA10B17846F8
:10758000F4F766FA0DF10F01284604F0CDFA10B1B8
:107590007846F4F75DFA9DF80E309DF80F20D3423F
:1075A00043D003A9284604F09DFA10B17846F4F7B9
:1075B0004FFA0AAA04230DF1140922F81E3D494688
:1075C000284604F009FB10B17846F4F741FA208808
:1075D000042203A9404409F0DCFE27889DF80E3000
:1075E0000437BFB227806BB1BDF80A3001934FF06A
:1075F000000A55464FF6FF7B019B9A451BD3238813
:107600001D4425809DF80F307BB12788BDF80A30D6
:1076100001934FF0000A474455464FF6FF7B019B0C
:107620009A4521D323881D44258016B10BB0BDE8AF
:10763000F08F01269CE704A939F81A0004F086FAB5
:1076400010B17846F4F704FABDF810205A4508D175
:10765000E81902220DF11201404409F09AFE0235A8
:10766000ADB20AF1010AC7E704A939F81A0004F01B
:107670006DFA10B17846F4F7EBF9BDF810205A45D1
:107680000ED0022204A9781909F083FEA81C022258
:107690000DF1120117FA80F009F07BFE0435ADB24E
:1076A0000AF1010ABBE70000024B1B6803B118474F
:1076B000704700BFA44E002013B5044601A805F092
:1076C000C5FCBDF80400A04208D8201A80B24FF6CD
:1076D000FF73012888BF184602B010BD4FF6FF7037
:1076E000FAE737B50446FAF769FE0546002301A814
:1076F000009305F0ABFC6946288A06F033FB30B9ED
:10770000009B6360BDF80430238003B030BD0520CA
:10771000FBE71FB50193BDF81830ADF80830002322
:10772000ADF800208DF80A304FF6FF720223ADF855
:1077300002208DF80B306A46079B039303F0A0FEEE
:1077400005B05DF804FB7FB505460E46002003A991
:107750008DF80800FCF729FF10B17846F4F778F9A6
:107760009DF80D309DF80820013B0A2104AC63F31D
:107770000202BDF80E30B3FBF1F3013B63F3C70225
:1077800004F8082DF7F78AF901230190009348F2D5
:107790002502234631462846FFF7BBFF04B070BDE3
:1077A0007FB50B89012B06460D4631D14C688DF80B
:1077B00004302378C3F3020301338DF805302378B6
:1077C000DA080A2302FB0333142BB8BF142301A9E0
:1077D0000020ADF80630FCF7D7FE10B17846F4F77C
:1077E00037F930462946FFF7AEFF0023CDE90233D3
:1077F00011238DF808302378C3F302038DF80C3081
:10780000237802A8C3F3C4038DF80D30FFF74CFFB3
:1078100004B070BD0B890BB9FFF795BF704700002E
:1078200037B504460D46F7F739F9084B1860084B91
:1078300001221A7000230190009348F24A0229465F
:107840002046FFF766FF03B030BD00BFAC4E0020FE
:10785000A84E002030B585B004460D468DF80C20AA
:10786000ADF80D30F7F71AF903230190009348F2B1
:10787000440203AB29462046FFF74BFF05B030BD5D
:1078800030B585B004460D46002303A90120ADF8AC
:107890000830FCF78AFE10B17846F4F7D9F89DF865
:1078A0000C308DF808309DF80D309DF80920013B13
:1078B00063F30202BDF80E308DF80920142B15D1A8
:1078C000D2B212F0070111D161F3C7028DF809207D
:1078D000F7F7E4F802230190009348F2280202AB84
:1078E00029462046FFF715FF05B030BD0A22B3FB3D
:1078F000F2F39DF80920013B63F3C702E6E77FB589
:107900000B89022B05460E463ED14C682378012B8D
:107910003AD803F001038DF804306378C3F302030F
:1079200001338DF80530637883BB1423ADF806303E
:10793000BDF80630142B38BF142301A90120ADF87F
:107940000630FCF721FE10B17846F4F781F828469E
:107950003146FFF795FF0023CDE9023312238DF85E
:10796000083023785A1E534253418DF80C30637807
:10797000C3F302038DF80D30637802A8C3F3C40388
:107980008DF80E30FFF790FE04B070BDDB080133B8
:1079900003EB83035B00C9E70B890BB9FFF770BFEB
:1079A000704770B586B00D46ADF80F309DF82C309D
:1079B000ADF80D2000218B4204460A988DF80C107A
:1079C00014BF07260926CDF81100F7F767F803ABB7
:1079D000CDE9006048F21F0229462046FFF799FED4
:1079E00006B070BD30B587B00446039306AB8DF882
:1079F000142033F80C2DADF815209B788DF8173036
:107A00000D46F7F74BF804230190009348F2030268
:107A100005AB29462046FFF77CFE07B030BD2DE9B7
:107A2000F0410B89032B86B007460E4627D14D68DF
:107A3000AB78012B23D806AC002344F8083D2888F6
:107A400005F02BFC2146804606F07AF9D0B10420DF
:107A50008DF814002B88ADF8153070BB0498FEF734
:107A6000F5FF8DF81700F7F719F80423019000933C
:107A700048F2480205AB31463846FFF74AFE06B0E9
:107A8000BDE8F0810DF10F01404605F00DFD044603
:107A90000028DCD1AB78012B0BD1FEF7EDFF30B124
:107AA0009DF80F100498FFF787FB0028D0D00E2018
:107AB000CEE7FFF797FB2046CAE70020D1E72DE984
:107AC000F0430B89022B85B081460C4638D14B68B8
:107AD0001E88C6F30B0005F0E0FBA38C834207462B
:107AE00031D133460C2221464846FFF7B3FE27E04A
:107AF00038F8150005F0F4FB28F815000135029B55
:107B0000AB42F5D82EE038F8150004F0D3F810B1E8
:107B10007846F3F79DFF0135029BAB42F3D833461D
:107B2000484600222146FFF795FE0023CDE90233A7
:107B300002A819238DF80830ADF80C70FFF7B4FDDA
:107B400005B0BDE8F0834FF6FF739842E7D00DF122
:107B50000408012302AA4146029306F07BF8054679
:107B60000028CCD0384606F031F805460028D3D09E
:107B70000F28B6D033460422B5E70000F0B50B89D4
:107B8000122B85B007460D4625D14E680A8834462B
:107B900048F2400334F8020B9A42C0F30B001CD1A8
:107BA00021460DF1060205F0F1FB182304460F2CC7
:107BB0008DF80830BDF80630ADF80C3096BF0C4B90
:107BC00010221A5D338829463846FFF743FE14B960
:107BD00002A8FFF769FD05B0F0BD05F05EFB214688
:107BE000ADF8060005F070FC1A230446DFE700BF7D
:107BF0006C2304002DE9F0431F460B8847F6E57817
