Archive member included to satisfy reference by file (symbol)

external/rtt/librtt_nrf52840_xxAA.a(SEGGER_RTT.c.obj)
                              examples/experimental_dimming/dimming_server/CMakeFiles/light_switch_dimming_server_nrf52840_xxAA_s140_6.1.1.dir/__/__/__/mesh/core/src/log.c.obj (SEGGER_RTT_Write)
external/rtt/librtt_nrf52840_xxAA.a(SEGGER_RTT_printf.c.obj)
                              examples/experimental_dimming/dimming_server/CMakeFiles/light_switch_dimming_server_nrf52840_xxAA_s140_6.1.1.dir/__/__/__/mesh/core/src/log.c.obj (SEGGER_RTT_vprintf)
external/micro-ecc/libuECC_nrf52840_xxAA.a(uECC.c.obj)
                              examples/experimental_dimming/dimming_server/CMakeFiles/light_switch_dimming_server_nrf52840_xxAA_s140_6.1.1.dir/__/__/__/mesh/prov/src/prov_utils.c.obj (uECC_secp256r1)
c:/mesh/arm_gcc/bin/../lib/gcc/arm-none-eabi/7.3.1/thumb/v7e-m/fpv4-sp/hard\libgcc.a(_aeabi_ldivmod.o)
                              examples/experimental_dimming/dimming_server/CMakeFiles/light_switch_dimming_server_nrf52840_xxAA_s140_6.1.1.dir/__/__/common/src/app_level.c.obj (__aeabi_ldivmod)
c:/mesh/arm_gcc/bin/../lib/gcc/arm-none-eabi/7.3.1/thumb/v7e-m/fpv4-sp/hard\libgcc.a(_aeabi_uldivmod.o)
                              examples/experimental_dimming/dimming_server/CMakeFiles/light_switch_dimming_server_nrf52840_xxAA_s140_6.1.1.dir/__/__/common/src/app_level.c.obj (__aeabi_uldivmod)
c:/mesh/arm_gcc/bin/../lib/gcc/arm-none-eabi/7.3.1/thumb/v7e-m/fpv4-sp/hard\libgcc.a(_udivmoddi4.o)
                              c:/mesh/arm_gcc/bin/../lib/gcc/arm-none-eabi/7.3.1/thumb/v7e-m/fpv4-sp/hard\libgcc.a(_aeabi_ldivmod.o) (__udivmoddi4)
c:/mesh/arm_gcc/bin/../lib/gcc/arm-none-eabi/7.3.1/thumb/v7e-m/fpv4-sp/hard\libgcc.a(_dvmd_tls.o)
                              c:/mesh/arm_gcc/bin/../lib/gcc/arm-none-eabi/7.3.1/thumb/v7e-m/fpv4-sp/hard\libgcc.a(_aeabi_ldivmod.o) (__aeabi_ldiv0)
c:/mesh/arm_gcc/bin/../lib/gcc/arm-none-eabi/7.3.1/../../../../arm-none-eabi/lib/thumb/v7e-m/fpv4-sp/hard\libg_nano.a(lib_a-abs.o)
                              examples/experimental_dimming/dimming_server/CMakeFiles/light_switch_dimming_server_nrf52840_xxAA_s140_6.1.1.dir/__/__/common/src/app_level.c.obj (abs)
c:/mesh/arm_gcc/bin/../lib/gcc/arm-none-eabi/7.3.1/../../../../arm-none-eabi/lib/thumb/v7e-m/fpv4-sp/hard\libg_nano.a(lib_a-calloc.o)
                              examples/experimental_dimming/dimming_server/CMakeFiles/light_switch_dimming_server_nrf52840_xxAA_s140_6.1.1.dir/__/__/__/mesh/core/src/mesh_mem_stdlib.c.obj (calloc)
c:/mesh/arm_gcc/bin/../lib/gcc/arm-none-eabi/7.3.1/../../../../arm-none-eabi/lib/thumb/v7e-m/fpv4-sp/hard\libg_nano.a(lib_a-exit.o)
                              c:/mesh/arm_gcc/bin/../lib/gcc/arm-none-eabi/7.3.1/../../../../arm-none-eabi/lib/thumb/v7e-m/fpv4-sp/hard/crt0.o (exit)
c:/mesh/arm_gcc/bin/../lib/gcc/arm-none-eabi/7.3.1/../../../../arm-none-eabi/lib/thumb/v7e-m/fpv4-sp/hard\libg_nano.a(lib_a-impure.o)
                              c:/mesh/arm_gcc/bin/../lib/gcc/arm-none-eabi/7.3.1/../../../../arm-none-eabi/lib/thumb/v7e-m/fpv4-sp/hard\libg_nano.a(lib_a-exit.o) (_global_impure_ptr)
c:/mesh/arm_gcc/bin/../lib/gcc/arm-none-eabi/7.3.1/../../../../arm-none-eabi/lib/thumb/v7e-m/fpv4-sp/hard\libg_nano.a(lib_a-init.o)
                              c:/mesh/arm_gcc/bin/../lib/gcc/arm-none-eabi/7.3.1/../../../../arm-none-eabi/lib/thumb/v7e-m/fpv4-sp/hard/crt0.o (__libc_init_array)
c:/mesh/arm_gcc/bin/../lib/gcc/arm-none-eabi/7.3.1/../../../../arm-none-eabi/lib/thumb/v7e-m/fpv4-sp/hard\libg_nano.a(lib_a-malloc.o)
                              examples/experimental_dimming/dimming_server/CMakeFiles/light_switch_dimming_server_nrf52840_xxAA_s140_6.1.1.dir/__/__/__/mesh/core/src/mesh_mem_stdlib.c.obj (malloc)
c:/mesh/arm_gcc/bin/../lib/gcc/arm-none-eabi/7.3.1/../../../../arm-none-eabi/lib/thumb/v7e-m/fpv4-sp/hard\libg_nano.a(lib_a-memcmp.o)
                              examples/experimental_dimming/dimming_server/CMakeFiles/light_switch_dimming_server_nrf52840_xxAA_s140_6.1.1.dir/C_/mesh/deps/nRF5_SDK_15.3.0_59ac345/components/ble/common/ble_advdata.c.obj (memcmp)
c:/mesh/arm_gcc/bin/../lib/gcc/arm-none-eabi/7.3.1/../../../../arm-none-eabi/lib/thumb/v7e-m/fpv4-sp/hard\libg_nano.a(lib_a-memcpy-stub.o)
                              examples/experimental_dimming/dimming_server/CMakeFiles/light_switch_dimming_server_nrf52840_xxAA_s140_6.1.1.dir/C_/mesh/deps/nRF5_SDK_15.3.0_59ac345/components/ble/common/ble_advdata.c.obj (memcpy)
c:/mesh/arm_gcc/bin/../lib/gcc/arm-none-eabi/7.3.1/../../../../arm-none-eabi/lib/thumb/v7e-m/fpv4-sp/hard\libg_nano.a(lib_a-memset.o)
                              c:/mesh/arm_gcc/bin/../lib/gcc/arm-none-eabi/7.3.1/../../../../arm-none-eabi/lib/thumb/v7e-m/fpv4-sp/hard/crt0.o (memset)
c:/mesh/arm_gcc/bin/../lib/gcc/arm-none-eabi/7.3.1/../../../../arm-none-eabi/lib/thumb/v7e-m/fpv4-sp/hard\libg_nano.a(lib_a-nano-callocr.o)
                              c:/mesh/arm_gcc/bin/../lib/gcc/arm-none-eabi/7.3.1/../../../../arm-none-eabi/lib/thumb/v7e-m/fpv4-sp/hard\libg_nano.a(lib_a-calloc.o) (_calloc_r)
c:/mesh/arm_gcc/bin/../lib/gcc/arm-none-eabi/7.3.1/../../../../arm-none-eabi/lib/thumb/v7e-m/fpv4-sp/hard\libg_nano.a(lib_a-nano-freer.o)
                              c:/mesh/arm_gcc/bin/../lib/gcc/arm-none-eabi/7.3.1/../../../../arm-none-eabi/lib/thumb/v7e-m/fpv4-sp/hard\libg_nano.a(lib_a-malloc.o) (_free_r)
c:/mesh/arm_gcc/bin/../lib/gcc/arm-none-eabi/7.3.1/../../../../arm-none-eabi/lib/thumb/v7e-m/fpv4-sp/hard\libg_nano.a(lib_a-nano-mallocr.o)
                              c:/mesh/arm_gcc/bin/../lib/gcc/arm-none-eabi/7.3.1/../../../../arm-none-eabi/lib/thumb/v7e-m/fpv4-sp/hard\libg_nano.a(lib_a-malloc.o) (_malloc_r)
c:/mesh/arm_gcc/bin/../lib/gcc/arm-none-eabi/7.3.1/../../../../arm-none-eabi/lib/thumb/v7e-m/fpv4-sp/hard\libg_nano.a(lib_a-sbrkr.o)
                              c:/mesh/arm_gcc/bin/../lib/gcc/arm-none-eabi/7.3.1/../../../../arm-none-eabi/lib/thumb/v7e-m/fpv4-sp/hard\libg_nano.a(lib_a-nano-mallocr.o) (_sbrk_r)
c:/mesh/arm_gcc/bin/../lib/gcc/arm-none-eabi/7.3.1/../../../../arm-none-eabi/lib/thumb/v7e-m/fpv4-sp/hard\libg_nano.a(lib_a-strcpy.o)
                              external/rtt/librtt_nrf52840_xxAA.a(SEGGER_RTT.c.obj) (strcpy)
c:/mesh/arm_gcc/bin/../lib/gcc/arm-none-eabi/7.3.1/../../../../arm-none-eabi/lib/thumb/v7e-m/fpv4-sp/hard\libg_nano.a(lib_a-strlen.o)
                              examples/experimental_dimming/dimming_server/CMakeFiles/light_switch_dimming_server_nrf52840_xxAA_s140_6.1.1.dir/__/__/common/src/ble_softdevice_support.c.obj (strlen)
c:/mesh/arm_gcc/bin/../lib/gcc/arm-none-eabi/7.3.1/../../../../arm-none-eabi/lib/thumb/v7e-m/fpv4-sp/hard\libg_nano.a(lib_a-strrchr.o)
                              examples/experimental_dimming/dimming_server/CMakeFiles/light_switch_dimming_server_nrf52840_xxAA_s140_6.1.1.dir/src/main.c.obj (strrchr)
c:/mesh/arm_gcc/bin/../lib/gcc/arm-none-eabi/7.3.1/../../../../arm-none-eabi/lib/thumb/v7e-m/fpv4-sp/hard\libg_nano.a(lib_a-mlock.o)
                              c:/mesh/arm_gcc/bin/../lib/gcc/arm-none-eabi/7.3.1/../../../../arm-none-eabi/lib/thumb/v7e-m/fpv4-sp/hard\libg_nano.a(lib_a-nano-freer.o) (__malloc_lock)
c:/mesh/arm_gcc/bin/../lib/gcc/arm-none-eabi/7.3.1/../../../../arm-none-eabi/lib/thumb/v7e-m/fpv4-sp/hard\libg_nano.a(lib_a-reent.o)
                              c:/mesh/arm_gcc/bin/../lib/gcc/arm-none-eabi/7.3.1/../../../../arm-none-eabi/lib/thumb/v7e-m/fpv4-sp/hard\libg_nano.a(lib_a-sbrkr.o) (errno)
c:/mesh/arm_gcc/bin/../lib/gcc/arm-none-eabi/7.3.1/../../../../arm-none-eabi/lib/thumb/v7e-m/fpv4-sp/hard\libg_nano.a(lib_a-strchr.o)
                              c:/mesh/arm_gcc/bin/../lib/gcc/arm-none-eabi/7.3.1/../../../../arm-none-eabi/lib/thumb/v7e-m/fpv4-sp/hard\libg_nano.a(lib_a-strrchr.o) (strchr)
c:/mesh/arm_gcc/bin/../lib/gcc/arm-none-eabi/7.3.1/../../../../arm-none-eabi/lib/thumb/v7e-m/fpv4-sp/hard\libnosys.a(sbrk.o)
                              c:/mesh/arm_gcc/bin/../lib/gcc/arm-none-eabi/7.3.1/../../../../arm-none-eabi/lib/thumb/v7e-m/fpv4-sp/hard\libg_nano.a(lib_a-sbrkr.o) (_sbrk)
c:/mesh/arm_gcc/bin/../lib/gcc/arm-none-eabi/7.3.1/../../../../arm-none-eabi/lib/thumb/v7e-m/fpv4-sp/hard\libnosys.a(_exit.o)
                              c:/mesh/arm_gcc/bin/../lib/gcc/arm-none-eabi/7.3.1/../../../../arm-none-eabi/lib/thumb/v7e-m/fpv4-sp/hard\libg_nano.a(lib_a-exit.o) (_exit)

Allocating common symbols
Common symbol       size              file

nrf_nvic_state      0xc               examples/experimental_dimming/dimming_server/CMakeFiles/light_switch_dimming_server_nrf52840_xxAA_s140_6.1.1.dir/C_/mesh/deps/nRF5_SDK_15.3.0_59ac345/components/libraries/util/app_util_platform.c.obj
m_packet            0x24              examples/experimental_dimming/dimming_server/CMakeFiles/light_switch_dimming_server_nrf52840_xxAA_s140_6.1.1.dir/__/__/__/mesh/core/src/core_tx.c.obj
errno               0x4               c:/mesh/arm_gcc/bin/../lib/gcc/arm-none-eabi/7.3.1/../../../../arm-none-eabi/lib/thumb/v7e-m/fpv4-sp/hard\libg_nano.a(lib_a-reent.o)
m_pwm_PWM0_cb       0x24              examples/experimental_dimming/dimming_server/CMakeFiles/light_switch_dimming_server_nrf52840_xxAA_s140_6.1.1.dir/src/main.c.obj
m_pwm_ready_counter
                    0xa               examples/experimental_dimming/dimming_server/CMakeFiles/light_switch_dimming_server_nrf52840_xxAA_s140_6.1.1.dir/C_/mesh/deps/nRF5_SDK_15.3.0_59ac345/components/libraries/pwm/app_pwm.c.obj
_SEGGER_RTT         0x78              external/rtt/librtt_nrf52840_xxAA.a(SEGGER_RTT.c.obj)

Discarded input sections

 .text          0x00000000        0x0 c:/mesh/arm_gcc/bin/../lib/gcc/arm-none-eabi/7.3.1/thumb/v7e-m/fpv4-sp/hard/crti.o
 .data          0x00000000        0x0 c:/mesh/arm_gcc/bin/../lib/gcc/arm-none-eabi/7.3.1/thumb/v7e-m/fpv4-sp/hard/crti.o
 .bss           0x00000000        0x0 c:/mesh/arm_gcc/bin/../lib/gcc/arm-none-eabi/7.3.1/thumb/v7e-m/fpv4-sp/hard/crti.o
 .data          0x00000000        0x4 c:/mesh/arm_gcc/bin/../lib/gcc/arm-none-eabi/7.3.1/thumb/v7e-m/fpv4-sp/hard/crtbegin.o
 .data          0x00000000        0x0 c:/mesh/arm_gcc/bin/../lib/gcc/arm-none-eabi/7.3.1/../../../../arm-none-eabi/lib/thumb/v7e-m/fpv4-sp/hard/crt0.o
 .bss           0x00000000        0x0 c:/mesh/arm_gcc/bin/../lib/gcc/arm-none-eabi/7.3.1/../../../../arm-none-eabi/lib/thumb/v7e-m/fpv4-sp/hard/crt0.o
 .ARM.extab     0x00000000        0x0 c:/mesh/arm_gcc/bin/../lib/gcc/arm-none-eabi/7.3.1/../../../../arm-none-eabi/lib/thumb/v7e-m/fpv4-sp/hard/crt0.o
 .text          0x00000000        0x0 examples/experimental_dimming/dimming_server/CMakeFiles/light_switch_dimming_server_nrf52840_xxAA_s140_6.1.1.dir/src/main.c.obj
 .data          0x00000000        0x0 examples/experimental_dimming/dimming_server/CMakeFiles/light_switch_dimming_server_nrf52840_xxAA_s140_6.1.1.dir/src/main.c.obj
 .bss           0x00000000        0x0 examples/experimental_dimming/dimming_server/CMakeFiles/light_switch_dimming_server_nrf52840_xxAA_s140_6.1.1.dir/src/main.c.obj
 .text          0x00000000        0x0 examples/experimental_dimming/dimming_server/CMakeFiles/light_switch_dimming_server_nrf52840_xxAA_s140_6.1.1.dir/__/__/common/src/app_level.c.obj
 .data          0x00000000        0x0 examples/experimental_dimming/dimming_server/CMakeFiles/light_switch_dimming_server_nrf52840_xxAA_s140_6.1.1.dir/__/__/common/src/app_level.c.obj
 .bss           0x00000000        0x0 examples/experimental_dimming/dimming_server/CMakeFiles/light_switch_dimming_server_nrf52840_xxAA_s140_6.1.1.dir/__/__/common/src/app_level.c.obj
 .text          0x00000000        0x0 examples/experimental_dimming/dimming_server/CMakeFiles/light_switch_dimming_server_nrf52840_xxAA_s140_6.1.1.dir/__/__/__/mesh/stack/src/mesh_stack.c.obj
 .data          0x00000000        0x0 examples/experimental_dimming/dimming_server/CMakeFiles/light_switch_dimming_server_nrf52840_xxAA_s140_6.1.1.dir/__/__/__/mesh/stack/src/mesh_stack.c.obj
 .bss           0x00000000        0x0 examples/experimental_dimming/dimming_server/CMakeFiles/light_switch_dimming_server_nrf52840_xxAA_s140_6.1.1.dir/__/__/__/mesh/stack/src/mesh_stack.c.obj
 .text.mesh_stack_persistence_flash_usage
                0x00000000       0x36 examples/experimental_dimming/dimming_server/CMakeFiles/light_switch_dimming_server_nrf52840_xxAA_s140_6.1.1.dir/__/__/__/mesh/stack/src/mesh_stack.c.obj
Memory Configuration

Name             Origin             Length             Attributes
FLASH            0x00026000         0x000d1000         xr
RAM              0x20002da0         0x0003cf60         xrw
*default*        0x00000000         0xffffffff

Linker script and memory map


.text           0x00026000    0x1ab28
 *(.isr_vector)
 .isr_vector    0x00026000      0x200 examples/experimental_dimming/dimming_server/CMakeFiles/light_switch_dimming_server_nrf52840_xxAA_s140_6.1.1.dir/C_/mesh/deps/nRF5_SDK_15.3.0_59ac345/modules/nrfx/mdk/gcc_startup_nrf52840.S.obj
                0x00026000                __isr_vector
 *(.text*)
 .text          0x00026200       0x40 c:/mesh/arm_gcc/bin/../lib/gcc/arm-none-eabi/7.3.1/thumb/v7e-m/fpv4-sp/hard/crtbegin.o
 .text          0x00026240       0x74 c:/mesh/arm_gcc/bin/../lib/gcc/arm-none-eabi/7.3.1/../../../../arm-none-eabi/lib/thumb/v7e-m/fpv4-sp/hard/crt0.o
                0x00026240                _start
                0x00026240                _mainCRTStartup
 .text.sd_app_evt_wait
                0x000262b4        0x4 examples/experimental_dimming/dimming_server/CMakeFiles/light_switch_dimming_server_nrf52840_xxAA_s140_6.1.1.dir/src/main.c.obj
 .text.app_level_server_get_cb
                0x000262b8        0xc examples/experimental_dimming/dimming_server/CMakeFiles/light_switch_dimming_server_nrf52840_xxAA_s140_6.1.1.dir/src/main.c.obj
 .text.models_init_cb
                0x000262c4       0x80 examples/experimental_dimming/dimming_server/CMakeFiles/light_switch_dimming_server_nrf52840_xxAA_s140_6.1.1.dir/src/main.c.obj
 .text.node_reset
                0x00026344       0x68 examples/experimental_dimming/dimming_server/CMakeFiles/light_switch_dimming_server_nrf52840_xxAA_s140_6.1.1.dir/src/main.c.obj
 .text.config_server_evt_cb
                0x000263ac        0xc examples/experimental_dimming/dimming_server/CMakeFiles/light_switch_dimming_server_nrf52840_xxAA_s140_6.1.1.dir/src/main.c.obj
 .text.provisioning_complete_cb
                0x000263b8       0xc4 examples/experimental_dimming/dimming_server/CMakeFiles/light_switch_dimming_server_nrf52840_xxAA_s140_6.1.1.dir/src/main.c.obj
 .text.app_rtt_input_handler
                0x0002647c      0x204 examples/experimental_dimming/dimming_server/CMakeFiles/light_switch_dimming_server_nrf52840_xxAA_s140_6.1.1.dir/src/main.c.obj
 .text.app_level_server_set_cb
                0x00026680       0x2c examples/experimental_dimming/dimming_server/CMakeFiles/light_switch_dimming_server_nrf52840_xxAA_s140_6.1.1.dir/src/main.c.obj
 .text.startup.main
                0x000266ac      0x1ac examples/experimental_dimming/dimming_server/CMakeFiles/light_switch_dimming_server_nrf52840_xxAA_s140_6.1.1.dir/src/main.c.obj
                0x000266ac                main
 .text.app_level_fsm_action
                0x00026858       0x10 examples/experimental_dimming/dimming_server/CMakeFiles/light_switch_dimming_server_nrf52840_xxAA_s140_6.1.1.dir/__/__/common/src/app_level.c.obj
 .text.app_level_fsm_guard
                0x00026868       0x10 examples/experimental_dimming/dimming_server/CMakeFiles/light_switch_dimming_server_nrf52840_xxAA_s140_6.1.1.dir/__/__/common/src/app_level.c.obj
 .text.g_set_delay
                0x00026878        0xa examples/experimental_dimming/dimming_server/CMakeFiles/light_switch_dimming_server_nrf52840_xxAA_s140_6.1.1.dir/__/__/common/src/app_level.c.obj
 .text.a_transition_complete
                0x00026882       0x44 examples/experimental_dimming/dimming_server/CMakeFiles/light_switch_dimming_server_nrf52840_xxAA_s140_6.1.1.dir/__/__/common/src/app_level.c.obj
 .text.g_transition_complete
                0x000268c6       0x3c examples/experimental_dimming/dimming_server/CMakeFiles/light_switch_dimming_server_nrf52840_xxAA_s140_6.1.1.dir/__/__/common/src/app_level.c.obj
 *fill*         0x00026902        0x2 
 .text.a_transition_tick
                0x00026904      0x128 examples/experimental_dimming/dimming_server/CMakeFiles/light_switch_dimming_server_nrf52840_xxAA_s140_6.1.1.dir/__/__/common/src/app_level.c.obj
 .text.generic_level_state_get_cb
                0x00026a2c       0xd4 examples/experimental_dimming/dimming_server/CMakeFiles/light_switch_dimming_server_nrf52840_xxAA_s140_6.1.1.dir/__/__/common/src/app_level.c.obj
 .text.a_transition_start
                0x00026b00      0x1dc examples/experimental_dimming/dimming_server/CMakeFiles/light_switch_dimming_server_nrf52840_xxAA_s140_6.1.1.dir/__/__/common/src/app_level.c.obj
 .text.level_state_timer_cb
                0x00026cdc        0xa examples/experimental_dimming/dimming_server/CMakeFiles/light_switch_dimming_server_nrf52840_xxAA_s140_6.1.1.dir/__/__/common/src/app_level.c.obj
 *fill*         0x00026ce6        0x2 
 .text.generic_level_state_move_set_cb
                0x00026ce8       0xe0 examples/experimental_dimming/dimming_server/CMakeFiles/light_switch_dimming_server_nrf52840_xxAA_s140_6.1.1.dir/__/__/common/src/app_level.c.obj
 .text.generic_level_state_set_cb
                0x00026dc8       0xd0 examples/experimental_dimming/dimming_server/CMakeFiles/light_switch_dimming_server_nrf52840_xxAA_s140_6.1.1.dir/__/__/common/src/app_level.c.obj
 .text.generic_level_state_delta_set_cb
                0x00026e98      0x1a8 examples/experimental_dimming/dimming_server/CMakeFiles/light_switch_dimming_server_nrf52840_xxAA_s140_6.1.1.dir/__/__/common/src/app_level.c.obj
 .text.g_set_transition
                0x00027040       0x32 examples/experimental_dimming/dimming_server/CMakeFiles/light_switch_dimming_server_nrf52840_xxAA_s140_6.1.1.dir/__/__/common/src/app_level.c.obj
 *fill*         0x00027072        0x2 
 .text.a_delay_start
                0x00027074       0x94 examples/experimental_dimming/dimming_server/CMakeFiles/light_switch_dimming_server_nrf52840_xxAA_s140_6.1.1.dir/__/__/common/src/app_level.c.obj
 .text.app_level_current_value_publish
                0x00027108       0x38 examples/experimental_dimming/dimming_server/CMakeFiles/light_switch_dimming_server_nrf52840_xxAA_s140_6.1.1.dir/__/__/common/src/app_level.c.obj
                0x00027108                app_level_current_value_publish
 .text.app_level_init
                0x00027140       0x44 examples/experimental_dimming/dimming_server/CMakeFiles/light_switch_dimming_server_nrf52840_xxAA_s140_6.1.1.dir/__/__/common/src/app_level.c.obj
                0x00027140                app_level_init
 .text.mesh_evt_handler
                0x00027184       0x1c examples/experimental_dimming/dimming_server/CMakeFiles/light_switch_dimming_server_nrf52840_xxAA_s140_6.1.1.dir/__/__/__/mesh/stack/src/mesh_stack.c.obj
 .text.mesh_stack_provisioning_data_store
                0x000271a0       0xe4 examples/experimental_dimming/dimming_server/CMakeFiles/light_switch_dimming_server_nrf52840_xxAA_s140_6.1.1.dir/__/__/__/mesh/stack/src/mesh_stack.c.obj
                0x000271a0                mesh_stack_provisioning_data_store
 .text.mesh_stack_config_clear
                0x00027284       0x16 examples/experimental_dimming/dimming_server/CMakeFiles/light_switch_dimming_server_nrf52840_xxAA_s140_6.1.1.dir/__/__/__/mesh/stack/src/mesh_stack.c.obj
                0x00027284                mesh_stack_config_clear
 .text.mesh_stack_is_device_provisioned
                0x0002729a       0x18 examples/experimental_dimming/dimming_server/CMakeFiles/light_switch_dimming_server_nrf52840_xxAA_s140_6.1.1.dir/__/__/__/mesh/stack/src/mesh_stack.c.obj
                0x0002729a                mesh_stack_is_device_provisioned
 *fill*         0x000272b2        0x2 
 .text.mesh_stack_init
                0x000272b4       0x70 examples/experimental_dimming/dimming_server/CMakeFiles/light_switch_dimming_server_nrf52840_xxAA_s140_6.1.1.dir/__/__/__/mesh/stack/src/mesh_stack.c.obj
                0x000272b4                mesh_stack_init
 .text.mesh_stack_start
                0x00027324       0x1a examples/experimental_dimming/dimming_server/CMakeFiles/light_switch_dimming_server_nrf52840_xxAA_s140_6.1.1.dir/__/__/__/mesh/stack/src/mesh_stack.c.obj
                0x00027324                mesh_stack_start
 *fill*         0x0002733e        0x2 
 .text.mesh_stack_device_reset
                0x00027340       0x20 examples/experimental_dimming/dimming_server/CMakeFiles/light_switch_dimming_server_nrf52840_xxAA_s140_6.1.1.dir/__/__/__/mesh/stack/src/mesh_stack.c.obj
                0x00027340                mesh_stack_device_reset
 .text.sd_state_evt_handler
                0x00027360       0xa8 examples/experimental_dimming/dimming_server/CMakeFiles/light_switch_dimming_server_nrf52840_xxAA_s140_6.1.1.dir/__/__/common/src/mesh_provisionee.c.obj
 .text.mesh_evt_handler
                0x00027408       0x2c examples/experimental_dimming/dimming_server/CMakeFiles/light_switch_dimming_server_nrf52840_xxAA_s140_6.1.1.dir/__/__/common/src/mesh_provisionee.c.obj
 .text.provisionee_start
                0x00027434       0x30 examples/experimental_dimming/dimming_server/CMakeFiles/light_switch_dimming_server_nrf52840_xxAA_s140_6.1.1.dir/__/__/common/src/mesh_provisionee.c.obj
 .text.prov_evt_handler
                0x00027464       0xbc examples/experimental_dimming/dimming_server/CMakeFiles/light_switch_dimming_server_nrf52840_xxAA_s140_6.1.1.dir/__/__/common/src/mesh_provisionee.c.obj
 .text.mesh_provisionee_prov_start
                0x00027520       0x94 examples/experimental_dimming/dimming_server/CMakeFiles/light_switch_dimming_server_nrf52840_xxAA_s140_6.1.1.dir/__/__/common/src/mesh_provisionee.c.obj
                0x00027520                mesh_provisionee_prov_start
 .text.timeout_handler
                0x000275b4       0x1c examples/experimental_dimming/dimming_server/CMakeFiles/light_switch_dimming_server_nrf52840_xxAA_s140_6.1.1.dir/__/__/common/src/rtt_input.c.obj
                0x000275b4                timeout_handler
 .text.rtt_input_enable
                0x000275d0       0x6c examples/experimental_dimming/dimming_server/CMakeFiles/light_switch_dimming_server_nrf52840_xxAA_s140_6.1.1.dir/__/__/common/src/rtt_input.c.obj
                0x000275d0                rtt_input_enable
 .text.mesh_app_uuid_print
                0x0002763c      0x11c examples/experimental_dimming/dimming_server/CMakeFiles/light_switch_dimming_server_nrf52840_xxAA_s140_6.1.1.dir/__/__/common/src/mesh_app_utils.c.obj
                0x0002763c                mesh_app_uuid_print
 .text.pwm_dealloc
                0x00027758       0x58 examples/experimental_dimming/dimming_server/CMakeFiles/light_switch_dimming_server_nrf52840_xxAA_s140_6.1.1.dir/C_/mesh/deps/nRF5_SDK_15.3.0_59ac345/components/libraries/pwm/app_pwm.c.obj
 .text.pwm_ready_tick
                0x000277b0       0x5c examples/experimental_dimming/dimming_server/CMakeFiles/light_switch_dimming_server_nrf52840_xxAA_s140_6.1.1.dir/C_/mesh/deps/nRF5_SDK_15.3.0_59ac345/components/libraries/pwm/app_pwm.c.obj
                0x000277b0                pwm_ready_tick
 .text.app_pwm_busy_check
                0x0002780c       0x3c examples/experimental_dimming/dimming_server/CMakeFiles/light_switch_dimming_server_nrf52840_xxAA_s140_6.1.1.dir/C_/mesh/deps/nRF5_SDK_15.3.0_59ac345/components/libraries/pwm/app_pwm.c.obj
                0x0002780c                app_pwm_busy_check
 .text.app_pwm_channel_duty_ticks_set
                0x00027848      0x160 examples/experimental_dimming/dimming_server/CMakeFiles/light_switch_dimming_server_nrf52840_xxAA_s140_6.1.1.dir/C_/mesh/deps/nRF5_SDK_15.3.0_59ac345/components/libraries/pwm/app_pwm.c.obj
                0x00027848                app_pwm_channel_duty_ticks_set
 .text.app_pwm_channel_duty_ticks_get
                0x000279a8        0xc examples/experimental_dimming/dimming_server/CMakeFiles/light_switch_dimming_server_nrf52840_xxAA_s140_6.1.1.dir/C_/mesh/deps/nRF5_SDK_15.3.0_59ac345/components/libraries/pwm/app_pwm.c.obj
                0x000279a8                app_pwm_channel_duty_ticks_get
 .text.app_pwm_cycle_ticks_get
                0x000279b4        0x6 examples/experimental_dimming/dimming_server/CMakeFiles/light_switch_dimming_server_nrf52840_xxAA_s140_6.1.1.dir/C_/mesh/deps/nRF5_SDK_15.3.0_59ac345/components/libraries/pwm/app_pwm.c.obj
                0x000279b4                app_pwm_cycle_ticks_get
 *fill*         0x000279ba        0x2 
 .text.app_pwm_init
                0x000279bc      0x2b0 examples/experimental_dimming/dimming_server/CMakeFiles/light_switch_dimming_server_nrf52840_xxAA_s140_6.1.1.dir/C_/mesh/deps/nRF5_SDK_15.3.0_59ac345/components/libraries/pwm/app_pwm.c.obj
                0x000279bc                app_pwm_init
 .text.app_pwm_enable
                0x00027c6c       0x74 examples/experimental_dimming/dimming_server/CMakeFiles/light_switch_dimming_server_nrf52840_xxAA_s140_6.1.1.dir/C_/mesh/deps/nRF5_SDK_15.3.0_59ac345/components/libraries/pwm/app_pwm.c.obj
                0x00027c6c                app_pwm_enable
 .text.nrfx_timer_init
                0x00027ce0       0xdc examples/experimental_dimming/dimming_server/CMakeFiles/light_switch_dimming_server_nrf52840_xxAA_s140_6.1.1.dir/C_/mesh/deps/nRF5_SDK_15.3.0_59ac345/modules/nrfx/drivers/src/nrfx_timer.c.obj
                0x00027ce0                nrfx_timer_init
 .text.nrfx_timer_enable
                0x00027dbc       0x1c examples/experimental_dimming/dimming_server/CMakeFiles/light_switch_dimming_server_nrf52840_xxAA_s140_6.1.1.dir/C_/mesh/deps/nRF5_SDK_15.3.0_59ac345/modules/nrfx/drivers/src/nrfx_timer.c.obj
                0x00027dbc                nrfx_timer_enable
 .text.nrfx_timer_disable
                0x00027dd8       0x18 examples/experimental_dimming/dimming_server/CMakeFiles/light_switch_dimming_server_nrf52840_xxAA_s140_6.1.1.dir/C_/mesh/deps/nRF5_SDK_15.3.0_59ac345/modules/nrfx/drivers/src/nrfx_timer.c.obj
                0x00027dd8                nrfx_timer_disable
 .text.nrfx_timer_uninit
                0x00027df0       0x50 examples/experimental_dimming/dimming_server/CMakeFiles/light_switch_dimming_server_nrf52840_xxAA_s140_6.1.1.dir/C_/mesh/deps/nRF5_SDK_15.3.0_59ac345/modules/nrfx/drivers/src/nrfx_timer.c.obj
                0x00027df0                nrfx_timer_uninit
 .text.nrfx_timer_clear
                0x00027e40        0x8 examples/experimental_dimming/dimming_server/CMakeFiles/light_switch_dimming_server_nrf52840_xxAA_s140_6.1.1.dir/C_/mesh/deps/nRF5_SDK_15.3.0_59ac345/modules/nrfx/drivers/src/nrfx_timer.c.obj
                0x00027e40                nrfx_timer_clear
 .text.nrfx_timer_compare
                0x00027e48       0x36 examples/experimental_dimming/dimming_server/CMakeFiles/light_switch_dimming_server_nrf52840_xxAA_s140_6.1.1.dir/C_/mesh/deps/nRF5_SDK_15.3.0_59ac345/modules/nrfx/drivers/src/nrfx_timer.c.obj
                0x00027e48                nrfx_timer_compare
 .text.nrfx_timer_extended_compare
                0x00027e7e       0x2e examples/experimental_dimming/dimming_server/CMakeFiles/light_switch_dimming_server_nrf52840_xxAA_s140_6.1.1.dir/C_/mesh/deps/nRF5_SDK_15.3.0_59ac345/modules/nrfx/drivers/src/nrfx_timer.c.obj
                0x00027e7e                nrfx_timer_extended_compare
 .text.nrfx_timer_compare_int_enable
                0x00027eac       0x28 examples/experimental_dimming/dimming_server/CMakeFiles/light_switch_dimming_server_nrf52840_xxAA_s140_6.1.1.dir/C_/mesh/deps/nRF5_SDK_15.3.0_59ac345/modules/nrfx/drivers/src/nrfx_timer.c.obj
                0x00027eac                nrfx_timer_compare_int_enable
 .text.nrfx_timer_compare_int_disable
                0x00027ed4       0x10 examples/experimental_dimming/dimming_server/CMakeFiles/light_switch_dimming_server_nrf52840_xxAA_s140_6.1.1.dir/C_/mesh/deps/nRF5_SDK_15.3.0_59ac345/modules/nrfx/drivers/src/nrfx_timer.c.obj
                0x00027ed4                nrfx_timer_compare_int_disable
 .text.TIMER1_IRQHandler
                0x00027ee4       0x54 examples/experimental_dimming/dimming_server/CMakeFiles/light_switch_dimming_server_nrf52840_xxAA_s140_6.1.1.dir/C_/mesh/deps/nRF5_SDK_15.3.0_59ac345/modules/nrfx/drivers/src/nrfx_timer.c.obj
                0x00027ee4                TIMER1_IRQHandler
 .text.nrfx_ppi_channel_alloc
                0x00027f38       0x68 examples/experimental_dimming/dimming_server/CMakeFiles/light_switch_dimming_server_nrf52840_xxAA_s140_6.1.1.dir/C_/mesh/deps/nRF5_SDK_15.3.0_59ac345/modules/nrfx/drivers/src/nrfx_ppi.c.obj
                0x00027f38                nrfx_ppi_channel_alloc
 .text.nrfx_ppi_channel_free
                0x00027fa0       0x44 examples/experimental_dimming/dimming_server/CMakeFiles/light_switch_dimming_server_nrf52840_xxAA_s140_6.1.1.dir/C_/mesh/deps/nRF5_SDK_15.3.0_59ac345/modules/nrfx/drivers/src/nrfx_ppi.c.obj
                0x00027fa0                nrfx_ppi_channel_free
 .text.nrfx_ppi_channel_assign
                0x00027fe4       0x40 examples/experimental_dimming/dimming_server/CMakeFiles/light_switch_dimming_server_nrf52840_xxAA_s140_6.1.1.dir/C_/mesh/deps/nRF5_SDK_15.3.0_59ac345/modules/nrfx/drivers/src/nrfx_ppi.c.obj
                0x00027fe4                nrfx_ppi_channel_assign
 .text.nrfx_ppi_channel_enable
                0x00028024       0x30 examples/experimental_dimming/dimming_server/CMakeFiles/light_switch_dimming_server_nrf52840_xxAA_s140_6.1.1.dir/C_/mesh/deps/nRF5_SDK_15.3.0_59ac345/modules/nrfx/drivers/src/nrfx_ppi.c.obj
                0x00028024                nrfx_ppi_channel_enable
 .text.nrfx_ppi_channel_disable
                0x00028054       0x30 examples/experimental_dimming/dimming_server/CMakeFiles/light_switch_dimming_server_nrf52840_xxAA_s140_6.1.1.dir/C_/mesh/deps/nRF5_SDK_15.3.0_59ac345/modules/nrfx/drivers/src/nrfx_ppi.c.obj
                0x00028054                nrfx_ppi_channel_disable
 .text.nrf_gpiote_event_clear
                0x00028084       0x18 examples/experimental_dimming/dimming_server/CMakeFiles/light_switch_dimming_server_nrf52840_xxAA_s140_6.1.1.dir/C_/mesh/deps/nRF5_SDK_15.3.0_59ac345/modules/nrfx/drivers/src/nrfx_gpiote.c.obj
 .text.nrf_gpio_pin_port_decode
                0x0002809c       0x18 examples/experimental_dimming/dimming_server/CMakeFiles/light_switch_dimming_server_nrf52840_xxAA_s140_6.1.1.dir/C_/mesh/deps/nRF5_SDK_15.3.0_59ac345/modules/nrfx/drivers/src/nrfx_gpiote.c.obj
 .text.nrf_gpio_cfg_sense_set
                0x000280b4       0x32 examples/experimental_dimming/dimming_server/CMakeFiles/light_switch_dimming_server_nrf52840_xxAA_s140_6.1.1.dir/C_/mesh/deps/nRF5_SDK_15.3.0_59ac345/modules/nrfx/drivers/src/nrfx_gpiote.c.obj
 *fill*         0x000280e6        0x2 
 .text.channel_free
                0x000280e8       0x1c examples/experimental_dimming/dimming_server/CMakeFiles/light_switch_dimming_server_nrf52840_xxAA_s140_6.1.1.dir/C_/mesh/deps/nRF5_SDK_15.3.0_59ac345/modules/nrfx/drivers/src/nrfx_gpiote.c.obj
 .text.nrfx_gpiote_init
                0x00028104       0x6c examples/experimental_dimming/dimming_server/CMakeFiles/light_switch_dimming_server_nrf52840_xxAA_s140_6.1.1.dir/C_/mesh/deps/nRF5_SDK_15.3.0_59ac345/modules/nrfx/drivers/src/nrfx_gpiote.c.obj
                0x00028104                nrfx_gpiote_init
 .text.nrfx_gpiote_is_init
                0x00028170       0x14 examples/experimental_dimming/dimming_server/CMakeFiles/light_switch_dimming_server_nrf52840_xxAA_s140_6.1.1.dir/C_/mesh/deps/nRF5_SDK_15.3.0_59ac345/modules/nrfx/drivers/src/nrfx_gpiote.c.obj
                0x00028170                nrfx_gpiote_is_init
 .text.nrfx_gpiote_out_init
                0x00028184       0xec examples/experimental_dimming/dimming_server/CMakeFiles/light_switch_dimming_server_nrf52840_xxAA_s140_6.1.1.dir/C_/mesh/deps/nRF5_SDK_15.3.0_59ac345/modules/nrfx/drivers/src/nrfx_gpiote.c.obj
                0x00028184                nrfx_gpiote_out_init
 .text.nrfx_gpiote_out_uninit
                0x00028270       0x6c examples/experimental_dimming/dimming_server/CMakeFiles/light_switch_dimming_server_nrf52840_xxAA_s140_6.1.1.dir/C_/mesh/deps/nRF5_SDK_15.3.0_59ac345/modules/nrfx/drivers/src/nrfx_gpiote.c.obj
                0x00028270                nrfx_gpiote_out_uninit
 .text.nrfx_gpiote_out_task_enable
                0x000282dc       0x24 examples/experimental_dimming/dimming_server/CMakeFiles/light_switch_dimming_server_nrf52840_xxAA_s140_6.1.1.dir/C_/mesh/deps/nRF5_SDK_15.3.0_59ac345/modules/nrfx/drivers/src/nrfx_gpiote.c.obj
                0x000282dc                nrfx_gpiote_out_task_enable
 .text.nrfx_gpiote_set_task_addr_get
                0x00028300       0x1c examples/experimental_dimming/dimming_server/CMakeFiles/light_switch_dimming_server_nrf52840_xxAA_s140_6.1.1.dir/C_/mesh/deps/nRF5_SDK_15.3.0_59ac345/modules/nrfx/drivers/src/nrfx_gpiote.c.obj
                0x00028300                nrfx_gpiote_set_task_addr_get
 .text.nrfx_gpiote_clr_task_addr_get
                0x0002831c       0x1c examples/experimental_dimming/dimming_server/CMakeFiles/light_switch_dimming_server_nrf52840_xxAA_s140_6.1.1.dir/C_/mesh/deps/nRF5_SDK_15.3.0_59ac345/modules/nrfx/drivers/src/nrfx_gpiote.c.obj
                0x0002831c                nrfx_gpiote_clr_task_addr_get
 .text.nrfx_gpiote_out_task_force
                0x00028338       0x30 examples/experimental_dimming/dimming_server/CMakeFiles/light_switch_dimming_server_nrf52840_xxAA_s140_6.1.1.dir/C_/mesh/deps/nRF5_SDK_15.3.0_59ac345/modules/nrfx/drivers/src/nrfx_gpiote.c.obj
                0x00028338                nrfx_gpiote_out_task_force
 .text.GPIOTE_IRQHandler
                0x00028368      0x19c examples/experimental_dimming/dimming_server/CMakeFiles/light_switch_dimming_server_nrf52840_xxAA_s140_6.1.1.dir/C_/mesh/deps/nRF5_SDK_15.3.0_59ac345/modules/nrfx/drivers/src/nrfx_gpiote.c.obj
                0x00028368                GPIOTE_IRQHandler
 .text.nrf_drv_ppi_init
                0x00028504       0x14 examples/experimental_dimming/dimming_server/CMakeFiles/light_switch_dimming_server_nrf52840_xxAA_s140_6.1.1.dir/C_/mesh/deps/nRF5_SDK_15.3.0_59ac345/integration/nrfx/legacy/nrf_drv_ppi.c.obj
                0x00028504                nrf_drv_ppi_init
 .text.sd_ble_gap_adv_set_configure
                0x00028518        0x4 examples/experimental_dimming/dimming_server/CMakeFiles/light_switch_dimming_server_nrf52840_xxAA_s140_6.1.1.dir/__/__/common/src/mesh_adv.c.obj
 .text.sd_ble_gap_adv_start
                0x0002851c        0x4 examples/experimental_dimming/dimming_server/CMakeFiles/light_switch_dimming_server_nrf52840_xxAA_s140_6.1.1.dir/__/__/common/src/mesh_adv.c.obj
 .text.sd_ble_gap_adv_stop
                0x00028520        0x4 examples/experimental_dimming/dimming_server/CMakeFiles/light_switch_dimming_server_nrf52840_xxAA_s140_6.1.1.dir/__/__/common/src/mesh_adv.c.obj
 .text.mesh_adv_data_set
                0x00028524       0xdc examples/experimental_dimming/dimming_server/CMakeFiles/light_switch_dimming_server_nrf52840_xxAA_s140_6.1.1.dir/__/__/common/src/mesh_adv.c.obj
                0x00028524                mesh_adv_data_set
 .text.mesh_adv_params_set
                0x00028600       0x28 examples/experimental_dimming/dimming_server/CMakeFiles/light_switch_dimming_server_nrf52840_xxAA_s140_6.1.1.dir/__/__/common/src/mesh_adv.c.obj
                0x00028600                mesh_adv_params_set
 .text.mesh_adv_start
                0x00028628       0x20 examples/experimental_dimming/dimming_server/CMakeFiles/light_switch_dimming_server_nrf52840_xxAA_s140_6.1.1.dir/__/__/common/src/mesh_adv.c.obj
                0x00028628                mesh_adv_start
 .text.mesh_adv_stop
                0x00028648       0x1c examples/experimental_dimming/dimming_server/CMakeFiles/light_switch_dimming_server_nrf52840_xxAA_s140_6.1.1.dir/__/__/common/src/mesh_adv.c.obj
                0x00028648                mesh_adv_stop
 .text.sd_ble_gap_disconnect
                0x00028664        0x4 examples/experimental_dimming/dimming_server/CMakeFiles/light_switch_dimming_server_nrf52840_xxAA_s140_6.1.1.dir/__/__/common/src/ble_softdevice_support.c.obj
 .text.sd_ble_gap_ppcp_set
                0x00028668        0x4 examples/experimental_dimming/dimming_server/CMakeFiles/light_switch_dimming_server_nrf52840_xxAA_s140_6.1.1.dir/__/__/common/src/ble_softdevice_support.c.obj
 .text.sd_ble_gap_device_name_set
                0x0002866c        0x4 examples/experimental_dimming/dimming_server/CMakeFiles/light_switch_dimming_server_nrf52840_xxAA_s140_6.1.1.dir/__/__/common/src/ble_softdevice_support.c.obj
 .text.conn_params_error_handler
                0x00028670        0x4 examples/experimental_dimming/dimming_server/CMakeFiles/light_switch_dimming_server_nrf52840_xxAA_s140_6.1.1.dir/__/__/common/src/ble_softdevice_support.c.obj
 .text.on_sd_evt
                0x00028674        0x4 examples/experimental_dimming/dimming_server/CMakeFiles/light_switch_dimming_server_nrf52840_xxAA_s140_6.1.1.dir/__/__/common/src/ble_softdevice_support.c.obj
 .text.on_conn_params_evt
                0x00028678       0x80 examples/experimental_dimming/dimming_server/CMakeFiles/light_switch_dimming_server_nrf52840_xxAA_s140_6.1.1.dir/__/__/common/src/ble_softdevice_support.c.obj
 .text.ble_stack_init
                0x000286f8       0x32 examples/experimental_dimming/dimming_server/CMakeFiles/light_switch_dimming_server_nrf52840_xxAA_s140_6.1.1.dir/__/__/common/src/ble_softdevice_support.c.obj
                0x000286f8                ble_stack_init
 *fill*         0x0002872a        0x2 
 .text.gap_params_init
                0x0002872c       0x50 examples/experimental_dimming/dimming_server/CMakeFiles/light_switch_dimming_server_nrf52840_xxAA_s140_6.1.1.dir/__/__/common/src/ble_softdevice_support.c.obj
                0x0002872c                gap_params_init
 .text.conn_params_init
                0x0002877c       0x68 examples/experimental_dimming/dimming_server/CMakeFiles/light_switch_dimming_server_nrf52840_xxAA_s140_6.1.1.dir/__/__/common/src/ble_softdevice_support.c.obj
                0x0002877c                conn_params_init
 .text.app_util_critical_region_enter
                0x000287e4       0x48 examples/experimental_dimming/dimming_server/CMakeFiles/light_switch_dimming_server_nrf52840_xxAA_s140_6.1.1.dir/C_/mesh/deps/nRF5_SDK_15.3.0_59ac345/components/libraries/util/app_util_platform.c.obj
                0x000287e4                app_util_critical_region_enter
 .text.app_util_critical_region_exit
                0x0002882c       0x2c examples/experimental_dimming/dimming_server/CMakeFiles/light_switch_dimming_server_nrf52840_xxAA_s140_6.1.1.dir/C_/mesh/deps/nRF5_SDK_15.3.0_59ac345/components/libraries/util/app_util_platform.c.obj
                0x0002882c                app_util_critical_region_exit
 .text.sd_ble_gap_addr_get
                0x00028858        0x4 examples/experimental_dimming/dimming_server/CMakeFiles/light_switch_dimming_server_nrf52840_xxAA_s140_6.1.1.dir/C_/mesh/deps/nRF5_SDK_15.3.0_59ac345/components/ble/common/ble_advdata.c.obj
 .text.sd_ble_gap_appearance_get
                0x0002885c        0x4 examples/experimental_dimming/dimming_server/CMakeFiles/light_switch_dimming_server_nrf52840_xxAA_s140_6.1.1.dir/C_/mesh/deps/nRF5_SDK_15.3.0_59ac345/components/ble/common/ble_advdata.c.obj
 .text.sd_ble_gap_device_name_get
                0x00028860        0x4 examples/experimental_dimming/dimming_server/CMakeFiles/light_switch_dimming_server_nrf52840_xxAA_s140_6.1.1.dir/C_/mesh/deps/nRF5_SDK_15.3.0_59ac345/components/ble/common/ble_advdata.c.obj
 .text.sd_ble_uuid_encode
                0x00028864        0x4 examples/experimental_dimming/dimming_server/CMakeFiles/light_switch_dimming_server_nrf52840_xxAA_s140_6.1.1.dir/C_/mesh/deps/nRF5_SDK_15.3.0_59ac345/components/ble/common/ble_advdata.c.obj
 .text.uuid_list_sized_encode
                0x00028868       0xa4 examples/experimental_dimming/dimming_server/CMakeFiles/light_switch_dimming_server_nrf52840_xxAA_s140_6.1.1.dir/C_/mesh/deps/nRF5_SDK_15.3.0_59ac345/components/ble/common/ble_advdata.c.obj
 .text.uuid_list_encode
                0x0002890c       0x34 examples/experimental_dimming/dimming_server/CMakeFiles/light_switch_dimming_server_nrf52840_xxAA_s140_6.1.1.dir/C_/mesh/deps/nRF5_SDK_15.3.0_59ac345/components/ble/common/ble_advdata.c.obj
 .text.ble_advdata_encode
                0x00028940      0x392 examples/experimental_dimming/dimming_server/CMakeFiles/light_switch_dimming_server_nrf52840_xxAA_s140_6.1.1.dir/C_/mesh/deps/nRF5_SDK_15.3.0_59ac345/components/ble/common/ble_advdata.c.obj
                0x00028940                ble_advdata_encode
 .text.nrf_section_iter_init
                0x00028cd2       0x12 examples/experimental_dimming/dimming_server/CMakeFiles/light_switch_dimming_server_nrf52840_xxAA_s140_6.1.1.dir/da3a6a21821fc8f19b737641d22f3037/libraries/experimental_section_vars/nrf_section_iter.c.obj
                0x00028cd2                nrf_section_iter_init
 .text.nrf_section_iter_next
                0x00028ce4       0x18 examples/experimental_dimming/dimming_server/CMakeFiles/light_switch_dimming_server_nrf52840_xxAA_s140_6.1.1.dir/da3a6a21821fc8f19b737641d22f3037/libraries/experimental_section_vars/nrf_section_iter.c.obj
                0x00028ce4                nrf_section_iter_next
 .text.sd_evt_get
                0x00028cfc        0x4 examples/experimental_dimming/dimming_server/CMakeFiles/light_switch_dimming_server_nrf52840_xxAA_s140_6.1.1.dir/C_/mesh/deps/nRF5_SDK_15.3.0_59ac345/components/softdevice/common/nrf_sdh_soc.c.obj
 .text.nrf_sdh_soc_evts_poll
                0x00028d00       0x3c examples/experimental_dimming/dimming_server/CMakeFiles/light_switch_dimming_server_nrf52840_xxAA_s140_6.1.1.dir/C_/mesh/deps/nRF5_SDK_15.3.0_59ac345/components/softdevice/common/nrf_sdh_soc.c.obj
 .text.sd_ble_enable
                0x00028d3c        0x4 examples/experimental_dimming/dimming_server/CMakeFiles/light_switch_dimming_server_nrf52840_xxAA_s140_6.1.1.dir/C_/mesh/deps/nRF5_SDK_15.3.0_59ac345/components/softdevice/common/nrf_sdh_ble.c.obj
 .text.sd_ble_cfg_set
                0x00028d40        0x4 examples/experimental_dimming/dimming_server/CMakeFiles/light_switch_dimming_server_nrf52840_xxAA_s140_6.1.1.dir/C_/mesh/deps/nRF5_SDK_15.3.0_59ac345/components/softdevice/common/nrf_sdh_ble.c.obj
 .text.sd_ble_evt_get
                0x00028d44        0x4 examples/experimental_dimming/dimming_server/CMakeFiles/light_switch_dimming_server_nrf52840_xxAA_s140_6.1.1.dir/C_/mesh/deps/nRF5_SDK_15.3.0_59ac345/components/softdevice/common/nrf_sdh_ble.c.obj
 .text.nrf_sdh_ble_evts_poll
                0x00028d48       0x50 examples/experimental_dimming/dimming_server/CMakeFiles/light_switch_dimming_server_nrf52840_xxAA_s140_6.1.1.dir/C_/mesh/deps/nRF5_SDK_15.3.0_59ac345/components/softdevice/common/nrf_sdh_ble.c.obj
 .text.nrf_sdh_ble_default_cfg_set
                0x00028d98       0xd4 examples/experimental_dimming/dimming_server/CMakeFiles/light_switch_dimming_server_nrf52840_xxAA_s140_6.1.1.dir/C_/mesh/deps/nRF5_SDK_15.3.0_59ac345/components/softdevice/common/nrf_sdh_ble.c.obj
                0x00028d98                nrf_sdh_ble_default_cfg_set
 .text.nrf_sdh_ble_enable
                0x00028e6c       0x14 examples/experimental_dimming/dimming_server/CMakeFiles/light_switch_dimming_server_nrf52840_xxAA_s140_6.1.1.dir/C_/mesh/deps/nRF5_SDK_15.3.0_59ac345/components/softdevice/common/nrf_sdh_ble.c.obj
                0x00028e6c                nrf_sdh_ble_enable
 .text.sd_softdevice_enable
                0x00028e80        0x4 examples/experimental_dimming/dimming_server/CMakeFiles/light_switch_dimming_server_nrf52840_xxAA_s140_6.1.1.dir/C_/mesh/deps/nRF5_SDK_15.3.0_59ac345/components/softdevice/common/nrf_sdh.c.obj
 .text.sd_softdevice_disable
                0x00028e84        0x4 examples/experimental_dimming/dimming_server/CMakeFiles/light_switch_dimming_server_nrf52840_xxAA_s140_6.1.1.dir/C_/mesh/deps/nRF5_SDK_15.3.0_59ac345/components/softdevice/common/nrf_sdh.c.obj
 .text.sdh_request_observer_notify
                0x00028e88       0x30 examples/experimental_dimming/dimming_server/CMakeFiles/light_switch_dimming_server_nrf52840_xxAA_s140_6.1.1.dir/C_/mesh/deps/nRF5_SDK_15.3.0_59ac345/components/softdevice/common/nrf_sdh.c.obj
 .text.sdh_state_observer_notify
                0x00028eb8       0x28 examples/experimental_dimming/dimming_server/CMakeFiles/light_switch_dimming_server_nrf52840_xxAA_s140_6.1.1.dir/C_/mesh/deps/nRF5_SDK_15.3.0_59ac345/components/softdevice/common/nrf_sdh.c.obj
 .text.softdevice_evt_irq_disable
                0x00028ee0       0x24 examples/experimental_dimming/dimming_server/CMakeFiles/light_switch_dimming_server_nrf52840_xxAA_s140_6.1.1.dir/C_/mesh/deps/nRF5_SDK_15.3.0_59ac345/components/softdevice/common/nrf_sdh.c.obj
 .text.softdevices_evt_irq_enable
                0x00028f04       0x38 examples/experimental_dimming/dimming_server/CMakeFiles/light_switch_dimming_server_nrf52840_xxAA_s140_6.1.1.dir/C_/mesh/deps/nRF5_SDK_15.3.0_59ac345/components/softdevice/common/nrf_sdh.c.obj
 .text.nrf_sdh_enable_request
                0x00028f3c       0x78 examples/experimental_dimming/dimming_server/CMakeFiles/light_switch_dimming_server_nrf52840_xxAA_s140_6.1.1.dir/C_/mesh/deps/nRF5_SDK_15.3.0_59ac345/components/softdevice/common/nrf_sdh.c.obj
                0x00028f3c                nrf_sdh_enable_request
 .text.nrf_sdh_disable_request
                0x00028fb4       0x60 examples/experimental_dimming/dimming_server/CMakeFiles/light_switch_dimming_server_nrf52840_xxAA_s140_6.1.1.dir/C_/mesh/deps/nRF5_SDK_15.3.0_59ac345/components/softdevice/common/nrf_sdh.c.obj
                0x00028fb4                nrf_sdh_disable_request
 .text.nrf_sdh_evts_poll
                0x00029014       0x28 examples/experimental_dimming/dimming_server/CMakeFiles/light_switch_dimming_server_nrf52840_xxAA_s140_6.1.1.dir/C_/mesh/deps/nRF5_SDK_15.3.0_59ac345/components/softdevice/common/nrf_sdh.c.obj
                0x00029014                nrf_sdh_evts_poll
 .text.SWI2_EGU2_IRQHandler
                0x0002903c        0x4 examples/experimental_dimming/dimming_server/CMakeFiles/light_switch_dimming_server_nrf52840_xxAA_s140_6.1.1.dir/C_/mesh/deps/nRF5_SDK_15.3.0_59ac345/components/softdevice/common/nrf_sdh.c.obj
                0x0002903c                SWI2_EGU2_IRQHandler
 .text.sd_ble_gap_conn_param_update
                0x00029040        0x4 examples/experimental_dimming/dimming_server/CMakeFiles/light_switch_dimming_server_nrf52840_xxAA_s140_6.1.1.dir/C_/mesh/deps/nRF5_SDK_15.3.0_59ac345/components/ble/common/ble_conn_params.c.obj
 .text.sd_ble_gap_disconnect
                0x00029044        0x4 examples/experimental_dimming/dimming_server/CMakeFiles/light_switch_dimming_server_nrf52840_xxAA_s140_6.1.1.dir/C_/mesh/deps/nRF5_SDK_15.3.0_59ac345/components/ble/common/ble_conn_params.c.obj
 .text.sd_ble_gap_ppcp_set
                0x00029048        0x4 examples/experimental_dimming/dimming_server/CMakeFiles/light_switch_dimming_server_nrf52840_xxAA_s140_6.1.1.dir/C_/mesh/deps/nRF5_SDK_15.3.0_59ac345/components/ble/common/ble_conn_params.c.obj
 .text.sd_ble_gap_ppcp_get
                0x0002904c        0x4 examples/experimental_dimming/dimming_server/CMakeFiles/light_switch_dimming_server_nrf52840_xxAA_s140_6.1.1.dir/C_/mesh/deps/nRF5_SDK_15.3.0_59ac345/components/ble/common/ble_conn_params.c.obj
 .text.instance_get
                0x00029050       0x14 examples/experimental_dimming/dimming_server/CMakeFiles/light_switch_dimming_server_nrf52840_xxAA_s140_6.1.1.dir/C_/mesh/deps/nRF5_SDK_15.3.0_59ac345/components/ble/common/ble_conn_params.c.obj
 .text.send_error_evt
                0x00029064       0x10 examples/experimental_dimming/dimming_server/CMakeFiles/light_switch_dimming_server_nrf52840_xxAA_s140_6.1.1.dir/C_/mesh/deps/nRF5_SDK_15.3.0_59ac345/components/ble/common/ble_conn_params.c.obj
 .text.update_timeout_handler
                0x00029074       0x6c examples/experimental_dimming/dimming_server/CMakeFiles/light_switch_dimming_server_nrf52840_xxAA_s140_6.1.1.dir/C_/mesh/deps/nRF5_SDK_15.3.0_59ac345/components/ble/common/ble_conn_params.c.obj
 .text.conn_params_negotiation
                0x000290e0       0x48 examples/experimental_dimming/dimming_server/CMakeFiles/light_switch_dimming_server_nrf52840_xxAA_s140_6.1.1.dir/C_/mesh/deps/nRF5_SDK_15.3.0_59ac345/components/ble/common/ble_conn_params.c.obj
 .text.is_conn_params_ok.constprop.3
                0x00029128       0x3a examples/experimental_dimming/dimming_server/CMakeFiles/light_switch_dimming_server_nrf52840_xxAA_s140_6.1.1.dir/C_/mesh/deps/nRF5_SDK_15.3.0_59ac345/components/ble/common/ble_conn_params.c.obj
 *fill*         0x00029162        0x2 
 .text.ble_evt_handler
                0x00029164       0xe0 examples/experimental_dimming/dimming_server/CMakeFiles/light_switch_dimming_server_nrf52840_xxAA_s140_6.1.1.dir/C_/mesh/deps/nRF5_SDK_15.3.0_59ac345/components/ble/common/ble_conn_params.c.obj
 .text.ble_conn_params_init
                0x00029244       0x74 examples/experimental_dimming/dimming_server/CMakeFiles/light_switch_dimming_server_nrf52840_xxAA_s140_6.1.1.dir/C_/mesh/deps/nRF5_SDK_15.3.0_59ac345/components/ble/common/ble_conn_params.c.obj
                0x00029244                ble_conn_params_init
 .text.ble_srv_is_notification_enabled
                0x000292b8        0x8 examples/experimental_dimming/dimming_server/CMakeFiles/light_switch_dimming_server_nrf52840_xxAA_s140_6.1.1.dir/C_/mesh/deps/nRF5_SDK_15.3.0_59ac345/components/ble/common/ble_srv_common.c.obj
                0x000292b8                ble_srv_is_notification_enabled
 .text._weak_handler
                0x000292c0        0x4 examples/experimental_dimming/dimming_server/CMakeFiles/light_switch_dimming_server_nrf52840_xxAA_s140_6.1.1.dir/__/__/nrf_mesh_weak.c.obj
                0x000292c0                nrf_mesh_dfu_init
                0x000292c0                nrf_mesh_dfu_jump_to_bootloader
                0x000292c0                nrf_mesh_dfu_rx
                0x000292c0                prov_provisioner_provision
                0x000292c0                nrf_mesh_dfu_bank_info_get
                0x000292c0                prov_provisioner_oob_pubkey
                0x000292c0                nrf_mesh_dfu_request
                0x000292c0                nrf_mesh_dfu_bank_flash
                0x000292c0                nrf_mesh_dfu_enable
                0x000292c0                _weak_handler
                0x000292c0                nrf_mesh_dfu_relay
                0x000292c0                nrf_mesh_dfu_abort
                0x000292c0                mesh_flash_op_execute
                0x000292c0                prov_provisionee_init
                0x000292c0                nrf_mesh_dfu_state_get
                0x000292c0                prov_provisioner_shared_secret
                0x000292c0                prov_provisioner_auth_data
                0x000292c0                prov_provisioner_oob_use
 .text.app_error_fault_handler
                0x000292c4      0x200 examples/experimental_dimming/dimming_server/CMakeFiles/light_switch_dimming_server_nrf52840_xxAA_s140_6.1.1.dir/__/__/common/src/app_error_weak.c.obj
                0x000292c4                app_error_fault_handler
 .text.mesh_assertion_handler
                0x000294c4       0x24 examples/experimental_dimming/dimming_server/CMakeFiles/light_switch_dimming_server_nrf52840_xxAA_s140_6.1.1.dir/__/__/common/src/assertion_handler_weak.c.obj
                0x000294c4                mesh_assertion_handler
 .text.nrf_mesh_configure_device_uuid_set
                0x000294e8       0x10 examples/experimental_dimming/dimming_server/CMakeFiles/light_switch_dimming_server_nrf52840_xxAA_s140_6.1.1.dir/__/__/__/mesh/core/src/nrf_mesh_configure.c.obj
                0x000294e8                nrf_mesh_configure_device_uuid_set
 .text.nrf_mesh_configure_device_uuid_reset
                0x000294f8       0x3c examples/experimental_dimming/dimming_server/CMakeFiles/light_switch_dimming_server_nrf52840_xxAA_s140_6.1.1.dir/__/__/__/mesh/core/src/nrf_mesh_configure.c.obj
                0x000294f8                nrf_mesh_configure_device_uuid_reset
 .text.nrf_mesh_configure_device_uuid_get
                0x00029534        0x8 examples/experimental_dimming/dimming_server/CMakeFiles/light_switch_dimming_server_nrf52840_xxAA_s140_6.1.1.dir/__/__/__/mesh/core/src/nrf_mesh_configure.c.obj
                0x00029534                nrf_mesh_configure_device_uuid_get
 .text.msg_cache_init
                0x0002953c       0x24 examples/experimental_dimming/dimming_server/CMakeFiles/light_switch_dimming_server_nrf52840_xxAA_s140_6.1.1.dir/__/__/__/mesh/core/src/msg_cache.c.obj
                0x0002953c                msg_cache_init
 .text.msg_cache_entry_exists
                0x00029560       0x3c examples/experimental_dimming/dimming_server/CMakeFiles/light_switch_dimming_server_nrf52840_xxAA_s140_6.1.1.dir/__/__/__/mesh/core/src/msg_cache.c.obj
                0x00029560                msg_cache_entry_exists
 .text.msg_cache_entry_add
                0x0002959c       0x2c examples/experimental_dimming/dimming_server/CMakeFiles/light_switch_dimming_server_nrf52840_xxAA_s140_6.1.1.dir/__/__/__/mesh/core/src/msg_cache.c.obj
                0x0002959c                msg_cache_entry_add
 .text.seqauth_sequence_number_get
                0x000295c8       0x12 examples/experimental_dimming/dimming_server/CMakeFiles/light_switch_dimming_server_nrf52840_xxAA_s140_6.1.1.dir/__/__/__/mesh/core/src/transport.c.obj
 *fill*         0x000295da        0x2 
 .text.control_packet_callback_get
                0x000295dc       0x40 examples/experimental_dimming/dimming_server/CMakeFiles/light_switch_dimming_server_nrf52840_xxAA_s140_6.1.1.dir/__/__/__/mesh/core/src/transport.c.obj
 .text.tx_complete
                0x0002961c       0x2c examples/experimental_dimming/dimming_server/CMakeFiles/light_switch_dimming_server_nrf52840_xxAA_s140_6.1.1.dir/__/__/__/mesh/core/src/transport.c.obj
 .text.seqauth_get
                0x00029648       0x24 examples/experimental_dimming/dimming_server/CMakeFiles/light_switch_dimming_server_nrf52840_xxAA_s140_6.1.1.dir/__/__/__/mesh/core/src/transport.c.obj
 .text.block_ack_full
                0x0002966c       0x1a examples/experimental_dimming/dimming_server/CMakeFiles/light_switch_dimming_server_nrf52840_xxAA_s140_6.1.1.dir/__/__/__/mesh/core/src/transport.c.obj
 *fill*         0x00029686        0x2 
 .text.sar_rx_session_mark_as_handled
                0x00029688       0x5c examples/experimental_dimming/dimming_server/CMakeFiles/light_switch_dimming_server_nrf52840_xxAA_s140_6.1.1.dir/__/__/__/mesh/core/src/transport.c.obj
 .text.upper_trs_packet_encrypt
                0x000296e4       0x86 examples/experimental_dimming/dimming_server/CMakeFiles/light_switch_dimming_server_nrf52840_xxAA_s140_6.1.1.dir/__/__/__/mesh/core/src/transport.c.obj
 *fill*         0x0002976a        0x2 
 .text.sar_ctx_alloc
                0x0002976c       0xbc examples/experimental_dimming/dimming_server/CMakeFiles/light_switch_dimming_server_nrf52840_xxAA_s140_6.1.1.dir/__/__/__/mesh/core/src/transport.c.obj
 .text.sar_ctx_free
                0x00029828       0x3a examples/experimental_dimming/dimming_server/CMakeFiles/light_switch_dimming_server_nrf52840_xxAA_s140_6.1.1.dir/__/__/__/mesh/core/src/transport.c.obj
 .text.sar_ctx_tx_complete
                0x00029862       0x2e examples/experimental_dimming/dimming_server/CMakeFiles/light_switch_dimming_server_nrf52840_xxAA_s140_6.1.1.dir/__/__/__/mesh/core/src/transport.c.obj
 .text.transport_metadata_validate
                0x00029890       0x54 examples/experimental_dimming/dimming_server/CMakeFiles/light_switch_dimming_server_nrf52840_xxAA_s140_6.1.1.dir/__/__/__/mesh/core/src/transport.c.obj
 .text.test_transport_decrypt
                0x000298e4       0x88 examples/experimental_dimming/dimming_server/CMakeFiles/light_switch_dimming_server_nrf52840_xxAA_s140_6.1.1.dir/__/__/__/mesh/core/src/transport.c.obj
 .text.replay_list_add
                0x0002996c       0x44 examples/experimental_dimming/dimming_server/CMakeFiles/light_switch_dimming_server_nrf52840_xxAA_s140_6.1.1.dir/__/__/__/mesh/core/src/transport.c.obj
 .text.upper_transport_access_packet_in
                0x000299b0      0x1a0 examples/experimental_dimming/dimming_server/CMakeFiles/light_switch_dimming_server_nrf52840_xxAA_s140_6.1.1.dir/__/__/__/mesh/core/src/transport.c.obj
 .text.trs_packet_header_build
                0x00029b50       0xa4 examples/experimental_dimming/dimming_server/CMakeFiles/light_switch_dimming_server_nrf52840_xxAA_s140_6.1.1.dir/__/__/__/mesh/core/src/transport.c.obj
 .text.unsegmented_packet_tx
                0x00029bf4       0x82 examples/experimental_dimming/dimming_server/CMakeFiles/light_switch_dimming_server_nrf52840_xxAA_s140_6.1.1.dir/__/__/__/mesh/core/src/transport.c.obj
 *fill*         0x00029c76        0x2 
 .text.tx_retry_timer_reset
                0x00029c78       0x3c examples/experimental_dimming/dimming_server/CMakeFiles/light_switch_dimming_server_nrf52840_xxAA_s140_6.1.1.dir/__/__/__/mesh/core/src/transport.c.obj
 .text.sar_ctx_cancel
                0x00029cb4       0xb0 examples/experimental_dimming/dimming_server/CMakeFiles/light_switch_dimming_server_nrf52840_xxAA_s140_6.1.1.dir/__/__/__/mesh/core/src/transport.c.obj
 .text.abort_timeout
                0x00029d64        0x8 examples/experimental_dimming/dimming_server/CMakeFiles/light_switch_dimming_server_nrf52840_xxAA_s140_6.1.1.dir/__/__/__/mesh/core/src/transport.c.obj
 .text.retry_timeout
                0x00029d6c       0x4c examples/experimental_dimming/dimming_server/CMakeFiles/light_switch_dimming_server_nrf52840_xxAA_s140_6.1.1.dir/__/__/__/mesh/core/src/transport.c.obj
 .text.trs_sar_packet_out
                0x00029db8       0xf4 examples/experimental_dimming/dimming_server/CMakeFiles/light_switch_dimming_server_nrf52840_xxAA_s140_6.1.1.dir/__/__/__/mesh/core/src/transport.c.obj
 .text.transport_control_packet_in
                0x00029eac      0x1dc examples/experimental_dimming/dimming_server/CMakeFiles/light_switch_dimming_server_nrf52840_xxAA_s140_6.1.1.dir/__/__/__/mesh/core/src/transport.c.obj
 .text.segmented_packet_tx
                0x0002a088      0x140 examples/experimental_dimming/dimming_server/CMakeFiles/light_switch_dimming_server_nrf52840_xxAA_s140_6.1.1.dir/__/__/__/mesh/core/src/transport.c.obj
 .text.transport_init
                0x0002a1c8       0x84 examples/experimental_dimming/dimming_server/CMakeFiles/light_switch_dimming_server_nrf52840_xxAA_s140_6.1.1.dir/__/__/__/mesh/core/src/transport.c.obj
                0x0002a1c8                transport_init
 .text.transport_enable
                0x0002a24c        0x4 examples/experimental_dimming/dimming_server/CMakeFiles/light_switch_dimming_server_nrf52840_xxAA_s140_6.1.1.dir/__/__/__/mesh/core/src/transport.c.obj
                0x0002a24c                transport_enable
 .text.transport_tx
                0x0002a250       0xec examples/experimental_dimming/dimming_server/CMakeFiles/light_switch_dimming_server_nrf52840_xxAA_s140_6.1.1.dir/__/__/__/mesh/core/src/transport.c.obj
                0x0002a250                transport_tx
 .text.transport_control_tx
                0x0002a33c       0x98 examples/experimental_dimming/dimming_server/CMakeFiles/light_switch_dimming_server_nrf52840_xxAA_s140_6.1.1.dir/__/__/__/mesh/core/src/transport.c.obj
                0x0002a33c                transport_control_tx
 .text.sar_ack_send
                0x0002a3d4       0xa4 examples/experimental_dimming/dimming_server/CMakeFiles/light_switch_dimming_server_nrf52840_xxAA_s140_6.1.1.dir/__/__/__/mesh/core/src/transport.c.obj
 .text.ack_timeout
                0x0002a478       0x30 examples/experimental_dimming/dimming_server/CMakeFiles/light_switch_dimming_server_nrf52840_xxAA_s140_6.1.1.dir/__/__/__/mesh/core/src/transport.c.obj
 .text.transport_packet_in
                0x0002a4a8      0x504 examples/experimental_dimming/dimming_server/CMakeFiles/light_switch_dimming_server_nrf52840_xxAA_s140_6.1.1.dir/__/__/__/mesh/core/src/transport.c.obj
                0x0002a4a8                transport_packet_in
 .text.transport_sar_process
                0x0002a9ac       0x70 examples/experimental_dimming/dimming_server/CMakeFiles/light_switch_dimming_server_nrf52840_xxAA_s140_6.1.1.dir/__/__/__/mesh/core/src/transport.c.obj
 .text.transport_control_packet_consumer_add
                0x0002aa1c       0x5c examples/experimental_dimming/dimming_server/CMakeFiles/light_switch_dimming_server_nrf52840_xxAA_s140_6.1.1.dir/__/__/__/mesh/core/src/transport.c.obj
                0x0002aa1c                transport_control_packet_consumer_add
 .text.event_handle
                0x0002aa78       0x54 examples/experimental_dimming/dimming_server/CMakeFiles/light_switch_dimming_server_nrf52840_xxAA_s140_6.1.1.dir/__/__/__/mesh/core/src/event.c.obj
                0x0002aa78                event_handle
 .text.event_handler_add
                0x0002aacc       0x20 examples/experimental_dimming/dimming_server/CMakeFiles/light_switch_dimming_server_nrf52840_xxAA_s140_6.1.1.dir/__/__/__/mesh/core/src/event.c.obj
                0x0002aacc                event_handler_add
 .text.event_handler_remove
                0x0002aaec       0x34 examples/experimental_dimming/dimming_server/CMakeFiles/light_switch_dimming_server_nrf52840_xxAA_s140_6.1.1.dir/__/__/__/mesh/core/src/event.c.obj
                0x0002aaec                event_handler_remove
 .text.m_index_increment
                0x0002ab20       0x1e examples/experimental_dimming/dimming_server/CMakeFiles/light_switch_dimming_server_nrf52840_xxAA_s140_6.1.1.dir/__/__/__/mesh/core/src/packet_buffer.c.obj
 .text.m_get_next_packet
                0x0002ab3e       0x1c examples/experimental_dimming/dimming_server/CMakeFiles/light_switch_dimming_server_nrf52840_xxAA_s140_6.1.1.dir/__/__/__/mesh/core/src/packet_buffer.c.obj
 .text.packet_buffer_init
                0x0002ab5a       0xac examples/experimental_dimming/dimming_server/CMakeFiles/light_switch_dimming_server_nrf52840_xxAA_s140_6.1.1.dir/__/__/__/mesh/core/src/packet_buffer.c.obj
                0x0002ab5a                packet_buffer_init
 .text.packet_buffer_flush
                0x0002ac06       0x50 examples/experimental_dimming/dimming_server/CMakeFiles/light_switch_dimming_server_nrf52840_xxAA_s140_6.1.1.dir/__/__/__/mesh/core/src/packet_buffer.c.obj
                0x0002ac06                packet_buffer_flush
 .text.packet_buffer_reserve
                0x0002ac56       0xa2 examples/experimental_dimming/dimming_server/CMakeFiles/light_switch_dimming_server_nrf52840_xxAA_s140_6.1.1.dir/__/__/__/mesh/core/src/packet_buffer.c.obj
                0x0002ac56                packet_buffer_reserve
 .text.packet_buffer_commit
                0x0002acf8       0x62 examples/experimental_dimming/dimming_server/CMakeFiles/light_switch_dimming_server_nrf52840_xxAA_s140_6.1.1.dir/__/__/__/mesh/core/src/packet_buffer.c.obj
                0x0002acf8                packet_buffer_commit
 .text.packet_buffer_pop
                0x0002ad5a       0x5a examples/experimental_dimming/dimming_server/CMakeFiles/light_switch_dimming_server_nrf52840_xxAA_s140_6.1.1.dir/__/__/__/mesh/core/src/packet_buffer.c.obj
                0x0002ad5a                packet_buffer_pop
 .text.packet_buffer_can_pop
                0x0002adb4       0x34 examples/experimental_dimming/dimming_server/CMakeFiles/light_switch_dimming_server_nrf52840_xxAA_s140_6.1.1.dir/__/__/__/mesh/core/src/packet_buffer.c.obj
                0x0002adb4                packet_buffer_can_pop
 .text.packet_buffer_packets_ready_to_pop
                0x0002ade8       0x36 examples/experimental_dimming/dimming_server/CMakeFiles/light_switch_dimming_server_nrf52840_xxAA_s140_6.1.1.dir/__/__/__/mesh/core/src/packet_buffer.c.obj
                0x0002ade8                packet_buffer_packets_ready_to_pop
 .text.packet_buffer_free
                0x0002ae1e       0x74 examples/experimental_dimming/dimming_server/CMakeFiles/light_switch_dimming_server_nrf52840_xxAA_s140_6.1.1.dir/__/__/__/mesh/core/src/packet_buffer.c.obj
                0x0002ae1e                packet_buffer_free
 .text.packet_buffer_is_empty
                0x0002ae92       0x28 examples/experimental_dimming/dimming_server/CMakeFiles/light_switch_dimming_server_nrf52840_xxAA_s140_6.1.1.dir/__/__/__/mesh/core/src/packet_buffer.c.obj
                0x0002ae92                packet_buffer_is_empty
 .text.get_last_page
                0x0002aeba       0x14 examples/experimental_dimming/dimming_server/CMakeFiles/light_switch_dimming_server_nrf52840_xxAA_s140_6.1.1.dir/__/__/__/mesh/core/src/flash_manager_defrag.c.obj
 *fill*         0x0002aece        0x2 
 .text.defrag_on_end
                0x0002aed0       0x1c examples/experimental_dimming/dimming_server/CMakeFiles/light_switch_dimming_server_nrf52840_xxAA_s140_6.1.1.dir/__/__/__/mesh/core/src/flash_manager_defrag.c.obj
 .text.execute_procedure_step
                0x0002aeec       0x70 examples/experimental_dimming/dimming_server/CMakeFiles/light_switch_dimming_server_nrf52840_xxAA_s140_6.1.1.dir/__/__/__/mesh/core/src/flash_manager_defrag.c.obj
 .text.get_next_entry
                0x0002af5c       0x34 examples/experimental_dimming/dimming_server/CMakeFiles/light_switch_dimming_server_nrf52840_xxAA_s140_6.1.1.dir/__/__/__/mesh/core/src/flash_manager_defrag.c.obj
 .text.get_next_data_entry
                0x0002af90       0x26 examples/experimental_dimming/dimming_server/CMakeFiles/light_switch_dimming_server_nrf52840_xxAA_s140_6.1.1.dir/__/__/__/mesh/core/src/flash_manager_defrag.c.obj
 *fill*         0x0002afb6        0x2 
 .text.on_flash_op_end
                0x0002afb8       0x30 examples/experimental_dimming/dimming_server/CMakeFiles/light_switch_dimming_server_nrf52840_xxAA_s140_6.1.1.dir/__/__/__/mesh/core/src/flash_manager_defrag.c.obj
 .text.check_for_invalid_entries
                0x0002afe8       0x38 examples/experimental_dimming/dimming_server/CMakeFiles/light_switch_dimming_server_nrf52840_xxAA_s140_6.1.1.dir/__/__/__/mesh/core/src/flash_manager_defrag.c.obj
 .text.erase_recovery_area
                0x0002b020       0x34 examples/experimental_dimming/dimming_server/CMakeFiles/light_switch_dimming_server_nrf52840_xxAA_s140_6.1.1.dir/__/__/__/mesh/core/src/flash_manager_defrag.c.obj
 .text.flash.constprop.6
                0x0002b054       0x24 examples/experimental_dimming/dimming_server/CMakeFiles/light_switch_dimming_server_nrf52840_xxAA_s140_6.1.1.dir/__/__/__/mesh/core/src/flash_manager_defrag.c.obj
 .text.invalidate_duplicate_entries
                0x0002b078       0xa8 examples/experimental_dimming/dimming_server/CMakeFiles/light_switch_dimming_server_nrf52840_xxAA_s140_6.1.1.dir/__/__/__/mesh/core/src/flash_manager_defrag.c.obj
 .text.seal_storage_page
                0x0002b120       0x50 examples/experimental_dimming/dimming_server/CMakeFiles/light_switch_dimming_server_nrf52840_xxAA_s140_6.1.1.dir/__/__/__/mesh/core/src/flash_manager_defrag.c.obj
 .text.copy_metadata
                0x0002b170       0x3c examples/experimental_dimming/dimming_server/CMakeFiles/light_switch_dimming_server_nrf52840_xxAA_s140_6.1.1.dir/__/__/__/mesh/core/src/flash_manager_defrag.c.obj
 .text.write_defrag_start_pointer
                0x0002b1ac       0x20 examples/experimental_dimming/dimming_server/CMakeFiles/light_switch_dimming_server_nrf52840_xxAA_s140_6.1.1.dir/__/__/__/mesh/core/src/flash_manager_defrag.c.obj
 .text.write_back
                0x0002b1cc       0x28 examples/experimental_dimming/dimming_server/CMakeFiles/light_switch_dimming_server_nrf52840_xxAA_s140_6.1.1.dir/__/__/__/mesh/core/src/flash_manager_defrag.c.obj
 .text.post_process
                0x0002b1f4       0x40 examples/experimental_dimming/dimming_server/CMakeFiles/light_switch_dimming_server_nrf52840_xxAA_s140_6.1.1.dir/__/__/__/mesh/core/src/flash_manager_defrag.c.obj
 .text.backup_entries
                0x0002b234       0xd8 examples/experimental_dimming/dimming_server/CMakeFiles/light_switch_dimming_server_nrf52840_xxAA_s140_6.1.1.dir/__/__/__/mesh/core/src/flash_manager_defrag.c.obj
 .text.erase_source
                0x0002b30c       0x34 examples/experimental_dimming/dimming_server/CMakeFiles/light_switch_dimming_server_nrf52840_xxAA_s140_6.1.1.dir/__/__/__/mesh/core/src/flash_manager_defrag.c.obj
 .text.flash_manager_defrag_init
                0x0002b340       0x8c examples/experimental_dimming/dimming_server/CMakeFiles/light_switch_dimming_server_nrf52840_xxAA_s140_6.1.1.dir/__/__/__/mesh/core/src/flash_manager_defrag.c.obj
                0x0002b340                flash_manager_defrag_init
 .text.flash_manager_defragging
                0x0002b3cc       0x38 examples/experimental_dimming/dimming_server/CMakeFiles/light_switch_dimming_server_nrf52840_xxAA_s140_6.1.1.dir/__/__/__/mesh/core/src/flash_manager_defrag.c.obj
                0x0002b3cc                flash_manager_defragging
 .text.flash_manager_defrag_is_running
                0x0002b404       0x10 examples/experimental_dimming/dimming_server/CMakeFiles/light_switch_dimming_server_nrf52840_xxAA_s140_6.1.1.dir/__/__/__/mesh/core/src/flash_manager_defrag.c.obj
                0x0002b404                flash_manager_defrag_is_running
 .text.flash_manager_defrag
                0x0002b414       0x44 examples/experimental_dimming/dimming_server/CMakeFiles/light_switch_dimming_server_nrf52840_xxAA_s140_6.1.1.dir/__/__/__/mesh/core/src/flash_manager_defrag.c.obj
                0x0002b414                flash_manager_defrag
 .text.flash_manager_defrag_recovery_page_get
                0x0002b458        0xc examples/experimental_dimming/dimming_server/CMakeFiles/light_switch_dimming_server_nrf52840_xxAA_s140_6.1.1.dir/__/__/__/mesh/core/src/flash_manager_defrag.c.obj
                0x0002b458                flash_manager_defrag_recovery_page_get
 .text.fifo_init
                0x0002b464       0x34 examples/experimental_dimming/dimming_server/CMakeFiles/light_switch_dimming_server_nrf52840_xxAA_s140_6.1.1.dir/__/__/__/mesh/core/src/fifo.c.obj
                0x0002b464                fifo_init
 .text.fifo_pop
                0x0002b498       0x52 examples/experimental_dimming/dimming_server/CMakeFiles/light_switch_dimming_server_nrf52840_xxAA_s140_6.1.1.dir/__/__/__/mesh/core/src/fifo.c.obj
                0x0002b498                fifo_pop
 *fill*         0x0002b4ea        0x2 
 .text.wait_for_ready
                0x0002b4ec       0x10 examples/experimental_dimming/dimming_server/CMakeFiles/light_switch_dimming_server_nrf52840_xxAA_s140_6.1.1.dir/__/__/__/mesh/core/src/nrf_flash.c.obj
 .text.nrf_flash_erase
                0x0002b4fc       0x50 examples/experimental_dimming/dimming_server/CMakeFiles/light_switch_dimming_server_nrf52840_xxAA_s140_6.1.1.dir/__/__/__/mesh/core/src/nrf_flash.c.obj
                0x0002b4fc                nrf_flash_erase
 .text.nrf_flash_write
                0x0002b54c       0x50 examples/experimental_dimming/dimming_server/CMakeFiles/light_switch_dimming_server_nrf52840_xxAA_s140_6.1.1.dir/__/__/__/mesh/core/src/nrf_flash.c.obj
                0x0002b54c                nrf_flash_write
 .text.entry_recover_cb
                0x0002b59c       0x18 examples/experimental_dimming/dimming_server/CMakeFiles/light_switch_dimming_server_nrf52840_xxAA_s140_6.1.1.dir/__/__/__/mesh/core/src/net_state.c.obj
 .text.flash_store_iv_index
                0x0002b5b4       0x38 examples/experimental_dimming/dimming_server/CMakeFiles/light_switch_dimming_server_nrf52840_xxAA_s140_6.1.1.dir/__/__/__/mesh/core/src/net_state.c.obj
 .text.flash_mem_available
                0x0002b5ec       0x14 examples/experimental_dimming/dimming_server/CMakeFiles/light_switch_dimming_server_nrf52840_xxAA_s140_6.1.1.dir/__/__/__/mesh/core/src/net_state.c.obj
 .text.iv_index_notify
                0x0002b600       0x30 examples/experimental_dimming/dimming_server/CMakeFiles/light_switch_dimming_server_nrf52840_xxAA_s140_6.1.1.dir/__/__/__/mesh/core/src/net_state.c.obj
 .text.seqnum_block_allocate
                0x0002b630       0x4c examples/experimental_dimming/dimming_server/CMakeFiles/light_switch_dimming_server_nrf52840_xxAA_s140_6.1.1.dir/__/__/__/mesh/core/src/net_state.c.obj
 .text.net_state_reset
                0x0002b67c       0x48 examples/experimental_dimming/dimming_server/CMakeFiles/light_switch_dimming_server_nrf52840_xxAA_s140_6.1.1.dir/__/__/__/mesh/core/src/net_state.c.obj
                0x0002b67c                net_state_reset
 .text.flash_write_complete
                0x0002b6c4       0x64 examples/experimental_dimming/dimming_server/CMakeFiles/light_switch_dimming_server_nrf52840_xxAA_s140_6.1.1.dir/__/__/__/mesh/core/src/net_state.c.obj
 .text.net_state_recover_from_flash
                0x0002b728       0x60 examples/experimental_dimming/dimming_server/CMakeFiles/light_switch_dimming_server_nrf52840_xxAA_s140_6.1.1.dir/__/__/__/mesh/core/src/net_state.c.obj
                0x0002b728                net_state_recover_from_flash
 .text.net_state_flash_area_get
                0x0002b788        0xc examples/experimental_dimming/dimming_server/CMakeFiles/light_switch_dimming_server_nrf52840_xxAA_s140_6.1.1.dir/__/__/__/mesh/core/src/net_state.c.obj
                0x0002b788                net_state_flash_area_get
 .text.init_flash_storage
                0x0002b794       0x40 examples/experimental_dimming/dimming_server/CMakeFiles/light_switch_dimming_server_nrf52840_xxAA_s140_6.1.1.dir/__/__/__/mesh/core/src/net_state.c.obj
 .text.net_state_init
                0x0002b7d4       0x44 examples/experimental_dimming/dimming_server/CMakeFiles/light_switch_dimming_server_nrf52840_xxAA_s140_6.1.1.dir/__/__/__/mesh/core/src/net_state.c.obj
                0x0002b7d4                net_state_init
 .text.net_state_enable
                0x0002b818       0x30 examples/experimental_dimming/dimming_server/CMakeFiles/light_switch_dimming_server_nrf52840_xxAA_s140_6.1.1.dir/__/__/__/mesh/core/src/net_state.c.obj
                0x0002b818                net_state_enable
 .text.net_state_iv_update_start
                0x0002b848       0x50 examples/experimental_dimming/dimming_server/CMakeFiles/light_switch_dimming_server_nrf52840_xxAA_s140_6.1.1.dir/__/__/__/mesh/core/src/net_state.c.obj
                0x0002b848                net_state_iv_update_start
 .text.iv_update_trigger_if_pending
                0x0002b898       0x6c examples/experimental_dimming/dimming_server/CMakeFiles/light_switch_dimming_server_nrf52840_xxAA_s140_6.1.1.dir/__/__/__/mesh/core/src/net_state.c.obj
 .text.iv_update_timer_handler
                0x0002b904       0x64 examples/experimental_dimming/dimming_server/CMakeFiles/light_switch_dimming_server_nrf52840_xxAA_s140_6.1.1.dir/__/__/__/mesh/core/src/net_state.c.obj
 .text.mesh_evt_handler
                0x0002b968       0x8c examples/experimental_dimming/dimming_server/CMakeFiles/light_switch_dimming_server_nrf52840_xxAA_s140_6.1.1.dir/__/__/__/mesh/core/src/net_state.c.obj
 .text.net_state_seqnum_alloc
                0x0002b9f4       0x68 examples/experimental_dimming/dimming_server/CMakeFiles/light_switch_dimming_server_nrf52840_xxAA_s140_6.1.1.dir/__/__/__/mesh/core/src/net_state.c.obj
                0x0002b9f4                net_state_seqnum_alloc
 .text.net_state_iv_index_lock
                0x0002ba5c       0x3c examples/experimental_dimming/dimming_server/CMakeFiles/light_switch_dimming_server_nrf52840_xxAA_s140_6.1.1.dir/__/__/__/mesh/core/src/net_state.c.obj
                0x0002ba5c                net_state_iv_index_lock
 .text.net_state_key_refresh_phase_changed
                0x0002ba98       0x20 examples/experimental_dimming/dimming_server/CMakeFiles/light_switch_dimming_server_nrf52840_xxAA_s140_6.1.1.dir/__/__/__/mesh/core/src/net_state.c.obj
                0x0002ba98                net_state_key_refresh_phase_changed
 .text.net_state_beacon_iv_index_get
                0x0002bab8        0xc examples/experimental_dimming/dimming_server/CMakeFiles/light_switch_dimming_server_nrf52840_xxAA_s140_6.1.1.dir/__/__/__/mesh/core/src/net_state.c.obj
                0x0002bab8                net_state_beacon_iv_index_get
 .text.net_state_tx_iv_index_get
                0x0002bac4       0x14 examples/experimental_dimming/dimming_server/CMakeFiles/light_switch_dimming_server_nrf52840_xxAA_s140_6.1.1.dir/__/__/__/mesh/core/src/net_state.c.obj
                0x0002bac4                net_state_tx_iv_index_get
 .text.net_state_rx_iv_index_get
                0x0002bad8       0x18 examples/experimental_dimming/dimming_server/CMakeFiles/light_switch_dimming_server_nrf52840_xxAA_s140_6.1.1.dir/__/__/__/mesh/core/src/net_state.c.obj
                0x0002bad8                net_state_rx_iv_index_get
 .text.net_state_iv_update_get
                0x0002baf0        0xc examples/experimental_dimming/dimming_server/CMakeFiles/light_switch_dimming_server_nrf52840_xxAA_s140_6.1.1.dir/__/__/__/mesh/core/src/net_state.c.obj
                0x0002baf0                net_state_iv_update_get
 .text.net_state_iv_index_set
                0x0002bafc       0x34 examples/experimental_dimming/dimming_server/CMakeFiles/light_switch_dimming_server_nrf52840_xxAA_s140_6.1.1.dir/__/__/__/mesh/core/src/net_state.c.obj
                0x0002bafc                net_state_iv_index_set
 .text.send_end_events
                0x0002bb30       0x84 examples/experimental_dimming/dimming_server/CMakeFiles/light_switch_dimming_server_nrf52840_xxAA_s140_6.1.1.dir/__/__/__/mesh/core/src/mesh_flash.c.obj
 .text.flash_op_action_prepare
                0x0002bbb4       0x78 examples/experimental_dimming/dimming_server/CMakeFiles/light_switch_dimming_server_nrf52840_xxAA_s140_6.1.1.dir/__/__/__/mesh/core/src/mesh_flash.c.obj
 .text.flash_op_schedule
                0x0002bc2c       0x20 examples/experimental_dimming/dimming_server/CMakeFiles/light_switch_dimming_server_nrf52840_xxAA_s140_6.1.1.dir/__/__/__/mesh/core/src/mesh_flash.c.obj
 .text.flash_op_start
                0x0002bc4c      0x13c examples/experimental_dimming/dimming_server/CMakeFiles/light_switch_dimming_server_nrf52840_xxAA_s140_6.1.1.dir/__/__/__/mesh/core/src/mesh_flash.c.obj
 .text.mesh_flash_init
                0x0002bd88       0x7c examples/experimental_dimming/dimming_server/CMakeFiles/light_switch_dimming_server_nrf52840_xxAA_s140_6.1.1.dir/__/__/__/mesh/core/src/mesh_flash.c.obj
                0x0002bd88                mesh_flash_init
 .text.mesh_flash_user_callback_set
                0x0002be04       0x20 examples/experimental_dimming/dimming_server/CMakeFiles/light_switch_dimming_server_nrf52840_xxAA_s140_6.1.1.dir/__/__/__/mesh/core/src/mesh_flash.c.obj
                0x0002be04                mesh_flash_user_callback_set
 .text.mesh_flash_op_push
                0x0002be24      0x10c examples/experimental_dimming/dimming_server/CMakeFiles/light_switch_dimming_server_nrf52840_xxAA_s140_6.1.1.dir/__/__/__/mesh/core/src/mesh_flash.c.obj
                0x0002be24                mesh_flash_op_push
 .text.mesh_flash_set_suspended
                0x0002bf30       0x70 examples/experimental_dimming/dimming_server/CMakeFiles/light_switch_dimming_server_nrf52840_xxAA_s140_6.1.1.dir/__/__/__/mesh/core/src/mesh_flash.c.obj
                0x0002bf30                mesh_flash_set_suspended
 .text.nrf_mesh_address_type_get
                0x0002bfa0       0x10 examples/experimental_dimming/dimming_server/CMakeFiles/light_switch_dimming_server_nrf52840_xxAA_s140_6.1.1.dir/__/__/__/mesh/core/src/nrf_mesh_utils.c.obj
                0x0002bfa0                nrf_mesh_address_type_get
 .text.sd_softdevice_is_enabled
                0x0002bfb0        0x4 examples/experimental_dimming/dimming_server/CMakeFiles/light_switch_dimming_server_nrf52840_xxAA_s140_6.1.1.dir/__/__/__/mesh/core/src/nrf_mesh.c.obj
 .text.nrf_mesh_listen
                0x0002bfb4      0x138 examples/experimental_dimming/dimming_server/CMakeFiles/light_switch_dimming_server_nrf52840_xxAA_s140_6.1.1.dir/__/__/__/mesh/core/src/nrf_mesh.c.obj
 .text.scanner_packet_process_cb
                0x0002c0ec       0x8c examples/experimental_dimming/dimming_server/CMakeFiles/light_switch_dimming_server_nrf52840_xxAA_s140_6.1.1.dir/__/__/__/mesh/core/src/nrf_mesh.c.obj
 .text.bearer_stopped_cb
                0x0002c178       0x30 examples/experimental_dimming/dimming_server/CMakeFiles/light_switch_dimming_server_nrf52840_xxAA_s140_6.1.1.dir/__/__/__/mesh/core/src/nrf_mesh.c.obj
 .text.nrf_mesh_init
                0x0002c1a8       0xe8 examples/experimental_dimming/dimming_server/CMakeFiles/light_switch_dimming_server_nrf52840_xxAA_s140_6.1.1.dir/__/__/__/mesh/core/src/nrf_mesh.c.obj
                0x0002c1a8                nrf_mesh_init
 .text.nrf_mesh_enable
                0x0002c290       0xac examples/experimental_dimming/dimming_server/CMakeFiles/light_switch_dimming_server_nrf52840_xxAA_s140_6.1.1.dir/__/__/__/mesh/core/src/nrf_mesh.c.obj
                0x0002c290                nrf_mesh_enable
 .text.nrf_mesh_disable
                0x0002c33c       0x2c examples/experimental_dimming/dimming_server/CMakeFiles/light_switch_dimming_server_nrf52840_xxAA_s140_6.1.1.dir/__/__/__/mesh/core/src/nrf_mesh.c.obj
                0x0002c33c                nrf_mesh_disable
 .text.nrf_mesh_packet_send
                0x0002c368        0x4 examples/experimental_dimming/dimming_server/CMakeFiles/light_switch_dimming_server_nrf52840_xxAA_s140_6.1.1.dir/__/__/__/mesh/core/src/nrf_mesh.c.obj
                0x0002c368                nrf_mesh_packet_send
 .text.nrf_mesh_evt_handler_add
                0x0002c36c        0x4 examples/experimental_dimming/dimming_server/CMakeFiles/light_switch_dimming_server_nrf52840_xxAA_s140_6.1.1.dir/__/__/__/mesh/core/src/nrf_mesh.c.obj
                0x0002c36c                nrf_mesh_evt_handler_add
 .text.nrf_mesh_evt_handler_remove
                0x0002c370        0x4 examples/experimental_dimming/dimming_server/CMakeFiles/light_switch_dimming_server_nrf52840_xxAA_s140_6.1.1.dir/__/__/__/mesh/core/src/nrf_mesh.c.obj
                0x0002c370                nrf_mesh_evt_handler_remove
 .text.nrf_mesh_on_sd_evt
                0x0002c374        0xa examples/experimental_dimming/dimming_server/CMakeFiles/light_switch_dimming_server_nrf52840_xxAA_s140_6.1.1.dir/__/__/__/mesh/core/src/nrf_mesh.c.obj
                0x0002c374                nrf_mesh_on_sd_evt
 .text.nrf_mesh_subnet_added
                0x0002c37e        0x4 examples/experimental_dimming/dimming_server/CMakeFiles/light_switch_dimming_server_nrf52840_xxAA_s140_6.1.1.dir/__/__/__/mesh/core/src/nrf_mesh.c.obj
                0x0002c37e                nrf_mesh_subnet_added
 *fill*         0x0002c382        0x2 
 .text.nrf_mesh_unique_token_get
                0x0002c384       0x18 examples/experimental_dimming/dimming_server/CMakeFiles/light_switch_dimming_server_nrf52840_xxAA_s140_6.1.1.dir/__/__/__/mesh/core/src/nrf_mesh.c.obj
                0x0002c384                nrf_mesh_unique_token_get
 .text.queue_init
                0x0002c39c       0x14 examples/experimental_dimming/dimming_server/CMakeFiles/light_switch_dimming_server_nrf52840_xxAA_s140_6.1.1.dir/__/__/__/mesh/core/src/queue.c.obj
                0x0002c39c                queue_init
 .text.queue_push
                0x0002c3b0       0x34 examples/experimental_dimming/dimming_server/CMakeFiles/light_switch_dimming_server_nrf52840_xxAA_s140_6.1.1.dir/__/__/__/mesh/core/src/queue.c.obj
                0x0002c3b0                queue_push
 .text.queue_pop
                0x0002c3e4       0x26 examples/experimental_dimming/dimming_server/CMakeFiles/light_switch_dimming_server_nrf52840_xxAA_s140_6.1.1.dir/__/__/__/mesh/core/src/queue.c.obj
                0x0002c3e4                queue_pop
 .text.queue_peek
                0x0002c40a       0x10 examples/experimental_dimming/dimming_server/CMakeFiles/light_switch_dimming_server_nrf52840_xxAA_s140_6.1.1.dir/__/__/__/mesh/core/src/queue.c.obj
                0x0002c40a                queue_peek
 .text.sd_power_reset_reason_clr
                0x0002c41a        0x4 examples/experimental_dimming/dimming_server/CMakeFiles/light_switch_dimming_server_nrf52840_xxAA_s140_6.1.1.dir/__/__/__/mesh/core/src/hal.c.obj
 *fill*         0x0002c41e        0x2 
 .text.hal_device_reset
                0x0002c420       0x2c examples/experimental_dimming/dimming_server/CMakeFiles/light_switch_dimming_server_nrf52840_xxAA_s140_6.1.1.dir/__/__/__/mesh/core/src/hal.c.obj
                0x0002c420                hal_device_reset
 .text.hal_lfclk_ppm_get
                0x0002c44c       0x14 examples/experimental_dimming/dimming_server/CMakeFiles/light_switch_dimming_server_nrf52840_xxAA_s140_6.1.1.dir/__/__/__/mesh/core/src/hal.c.obj
                0x0002c44c                hal_lfclk_ppm_get
 .text.hal_irq_active_get
                0x0002c460       0x10 examples/experimental_dimming/dimming_server/CMakeFiles/light_switch_dimming_server_nrf52840_xxAA_s140_6.1.1.dir/__/__/__/mesh/core/src/hal.c.obj
                0x0002c460                hal_irq_active_get
 .text.hal_irq_is_enabled
                0x0002c470       0x28 examples/experimental_dimming/dimming_server/CMakeFiles/light_switch_dimming_server_nrf52840_xxAA_s140_6.1.1.dir/__/__/__/mesh/core/src/hal.c.obj
                0x0002c470                hal_irq_is_enabled
 .text.sd_ecb_block_encrypt
                0x0002c498        0x4 examples/experimental_dimming/dimming_server/CMakeFiles/light_switch_dimming_server_nrf52840_xxAA_s140_6.1.1.dir/__/__/__/mesh/core/src/aes_cmac.c.obj
 .text.utils_xor.constprop.1
                0x0002c49c       0x20 examples/experimental_dimming/dimming_server/CMakeFiles/light_switch_dimming_server_nrf52840_xxAA_s140_6.1.1.dir/__/__/__/mesh/core/src/aes_cmac.c.obj
 .text.aes_cmac
                0x0002c4bc      0x10c examples/experimental_dimming/dimming_server/CMakeFiles/light_switch_dimming_server_nrf52840_xxAA_s140_6.1.1.dir/__/__/__/mesh/core/src/aes_cmac.c.obj
                0x0002c4bc                aes_cmac
 .text.add_evt  0x0002c5c8       0x50 examples/experimental_dimming/dimming_server/CMakeFiles/light_switch_dimming_server_nrf52840_xxAA_s140_6.1.1.dir/__/__/__/mesh/core/src/timer_scheduler.c.obj
 .text.remove_evt
                0x0002c618       0x50 examples/experimental_dimming/dimming_server/CMakeFiles/light_switch_dimming_server_nrf52840_xxAA_s140_6.1.1.dir/__/__/__/mesh/core/src/timer_scheduler.c.obj
 .text.timer_cb
                0x0002c668        0xc examples/experimental_dimming/dimming_server/CMakeFiles/light_switch_dimming_server_nrf52840_xxAA_s140_6.1.1.dir/__/__/__/mesh/core/src/timer_scheduler.c.obj
 .text.setup_timeout.isra.0
                0x0002c674       0x1c examples/experimental_dimming/dimming_server/CMakeFiles/light_switch_dimming_server_nrf52840_xxAA_s140_6.1.1.dir/__/__/__/mesh/core/src/timer_scheduler.c.obj
 .text.flag_event_cb
                0x0002c690       0xa4 examples/experimental_dimming/dimming_server/CMakeFiles/light_switch_dimming_server_nrf52840_xxAA_s140_6.1.1.dir/__/__/__/mesh/core/src/timer_scheduler.c.obj
 .text.timer_sch_init
                0x0002c734       0x2c examples/experimental_dimming/dimming_server/CMakeFiles/light_switch_dimming_server_nrf52840_xxAA_s140_6.1.1.dir/__/__/__/mesh/core/src/timer_scheduler.c.obj
                0x0002c734                timer_sch_init
 .text.timer_sch_schedule
                0x0002c760       0x44 examples/experimental_dimming/dimming_server/CMakeFiles/light_switch_dimming_server_nrf52840_xxAA_s140_6.1.1.dir/__/__/__/mesh/core/src/timer_scheduler.c.obj
                0x0002c760                timer_sch_schedule
 .text.timer_sch_abort
                0x0002c7a4       0x2e examples/experimental_dimming/dimming_server/CMakeFiles/light_switch_dimming_server_nrf52840_xxAA_s140_6.1.1.dir/__/__/__/mesh/core/src/timer_scheduler.c.obj
                0x0002c7a4                timer_sch_abort
 .text.timer_sch_reschedule
                0x0002c7d2       0x38 examples/experimental_dimming/dimming_server/CMakeFiles/light_switch_dimming_server_nrf52840_xxAA_s140_6.1.1.dir/__/__/__/mesh/core/src/timer_scheduler.c.obj
                0x0002c7d2                timer_sch_reschedule
 .text.timer_init
                0x0002c80a       0x1a examples/experimental_dimming/dimming_server/CMakeFiles/light_switch_dimming_server_nrf52840_xxAA_s140_6.1.1.dir/__/__/__/mesh/core/src/timer.c.obj
                0x0002c80a                timer_init
 .text.timer_now
                0x0002c824       0x48 examples/experimental_dimming/dimming_server/CMakeFiles/light_switch_dimming_server_nrf52840_xxAA_s140_6.1.1.dir/__/__/__/mesh/core/src/timer.c.obj
                0x0002c824                timer_now
 .text.nrf_mesh_timer_tail_handle
                0x0002c86c       0x34 examples/experimental_dimming/dimming_server/CMakeFiles/light_switch_dimming_server_nrf52840_xxAA_s140_6.1.1.dir/__/__/__/mesh/core/src/timer.c.obj
                0x0002c86c                nrf_mesh_timer_tail_handle
 .text.nrf_mesh_timer_ovfw_handle
                0x0002c8a0       0x98 examples/experimental_dimming/dimming_server/CMakeFiles/light_switch_dimming_server_nrf52840_xxAA_s140_6.1.1.dir/__/__/__/mesh/core/src/timer.c.obj
                0x0002c8a0                nrf_mesh_timer_ovfw_handle
 .text.timer_start
                0x0002c938       0xac examples/experimental_dimming/dimming_server/CMakeFiles/light_switch_dimming_server_nrf52840_xxAA_s140_6.1.1.dir/__/__/__/mesh/core/src/timer.c.obj
                0x0002c938                timer_start
 .text.timer_stop
                0x0002c9e4       0x30 examples/experimental_dimming/dimming_server/CMakeFiles/light_switch_dimming_server_nrf52840_xxAA_s140_6.1.1.dir/__/__/__/mesh/core/src/timer.c.obj
                0x0002c9e4                timer_stop
 .text.sd_rand_application_bytes_available_get
                0x0002ca14        0x4 examples/experimental_dimming/dimming_server/CMakeFiles/light_switch_dimming_server_nrf52840_xxAA_s140_6.1.1.dir/__/__/__/mesh/core/src/rand.c.obj
 .text.sd_rand_application_vector_get
                0x0002ca18        0x4 examples/experimental_dimming/dimming_server/CMakeFiles/light_switch_dimming_server_nrf52840_xxAA_s140_6.1.1.dir/__/__/__/mesh/core/src/rand.c.obj
 .text.rand_prng_get
                0x0002ca1c       0x24 examples/experimental_dimming/dimming_server/CMakeFiles/light_switch_dimming_server_nrf52840_xxAA_s140_6.1.1.dir/__/__/__/mesh/core/src/rand.c.obj
                0x0002ca1c                rand_prng_get
 .text.rand_hw_rng_get
                0x0002ca40       0x44 examples/experimental_dimming/dimming_server/CMakeFiles/light_switch_dimming_server_nrf52840_xxAA_s140_6.1.1.dir/__/__/__/mesh/core/src/rand.c.obj
                0x0002ca40                rand_hw_rng_get
 .text.rand_prng_seed
                0x0002ca84       0x34 examples/experimental_dimming/dimming_server/CMakeFiles/light_switch_dimming_server_nrf52840_xxAA_s140_6.1.1.dir/__/__/__/mesh/core/src/rand.c.obj
                0x0002ca84                rand_prng_seed
 .text.mesh_opt_init
                0x0002cab8        0x2 examples/experimental_dimming/dimming_server/CMakeFiles/light_switch_dimming_server_nrf52840_xxAA_s140_6.1.1.dir/__/__/__/mesh/core/src/mesh_opt.c.obj
                0x0002cab8                mesh_opt_init
 .text.sd_radio_session_open
                0x0002caba        0x4 examples/experimental_dimming/dimming_server/CMakeFiles/light_switch_dimming_server_nrf52840_xxAA_s140_6.1.1.dir/__/__/__/mesh/core/src/timeslot.c.obj
 .text.sd_radio_session_close
                0x0002cabe        0x4 examples/experimental_dimming/dimming_server/CMakeFiles/light_switch_dimming_server_nrf52840_xxAA_s140_6.1.1.dir/__/__/__/mesh/core/src/timeslot.c.obj
 .text.sd_radio_request
                0x0002cac2        0x4 examples/experimental_dimming/dimming_server/CMakeFiles/light_switch_dimming_server_nrf52840_xxAA_s140_6.1.1.dir/__/__/__/mesh/core/src/timeslot.c.obj
 *fill*         0x0002cac6        0x2 
 .text.end_timer_handler
                0x0002cac8       0x24 examples/experimental_dimming/dimming_server/CMakeFiles/light_switch_dimming_server_nrf52840_xxAA_s140_6.1.1.dir/__/__/__/mesh/core/src/timeslot.c.obj
 .text.get_end_time.isra.3
                0x0002caec       0x20 examples/experimental_dimming/dimming_server/CMakeFiles/light_switch_dimming_server_nrf52840_xxAA_s140_6.1.1.dir/__/__/__/mesh/core/src/timeslot.c.obj
 .text.on_ts_begin.constprop.9
                0x0002cb0c       0x48 examples/experimental_dimming/dimming_server/CMakeFiles/light_switch_dimming_server_nrf52840_xxAA_s140_6.1.1.dir/__/__/__/mesh/core/src/timeslot.c.obj
 .text.handle_extend_end.constprop.5
                0x0002cb54       0x88 examples/experimental_dimming/dimming_server/CMakeFiles/light_switch_dimming_server_nrf52840_xxAA_s140_6.1.1.dir/__/__/__/mesh/core/src/timeslot.c.obj
 .text.radio_signal_callback
                0x0002cbdc      0x12c examples/experimental_dimming/dimming_server/CMakeFiles/light_switch_dimming_server_nrf52840_xxAA_s140_6.1.1.dir/__/__/__/mesh/core/src/timeslot.c.obj
 .text.timeslot_sd_event_handler
                0x0002cd08       0x60 examples/experimental_dimming/dimming_server/CMakeFiles/light_switch_dimming_server_nrf52840_xxAA_s140_6.1.1.dir/__/__/__/mesh/core/src/timeslot.c.obj
                0x0002cd08                timeslot_sd_event_handler
 .text.timeslot_init
                0x0002cd68       0x50 examples/experimental_dimming/dimming_server/CMakeFiles/light_switch_dimming_server_nrf52840_xxAA_s140_6.1.1.dir/__/__/__/mesh/core/src/timeslot.c.obj
                0x0002cd68                timeslot_init
 .text.timeslot_start
                0x0002cdb8       0x48 examples/experimental_dimming/dimming_server/CMakeFiles/light_switch_dimming_server_nrf52840_xxAA_s140_6.1.1.dir/__/__/__/mesh/core/src/timeslot.c.obj
                0x0002cdb8                timeslot_start
 .text.timeslot_end_is_pending
                0x0002ce00       0x28 examples/experimental_dimming/dimming_server/CMakeFiles/light_switch_dimming_server_nrf52840_xxAA_s140_6.1.1.dir/__/__/__/mesh/core/src/timeslot.c.obj
                0x0002ce00                timeslot_end_is_pending
 .text.timeslot_length_get
                0x0002ce28        0xc examples/experimental_dimming/dimming_server/CMakeFiles/light_switch_dimming_server_nrf52840_xxAA_s140_6.1.1.dir/__/__/__/mesh/core/src/timeslot.c.obj
                0x0002ce28                timeslot_length_get
 .text.timeslot_remaining_time_get
                0x0002ce34       0x24 examples/experimental_dimming/dimming_server/CMakeFiles/light_switch_dimming_server_nrf52840_xxAA_s140_6.1.1.dir/__/__/__/mesh/core/src/timeslot.c.obj
                0x0002ce34                timeslot_remaining_time_get
 .text.timeslot_is_in_ts
                0x0002ce58        0xc examples/experimental_dimming/dimming_server/CMakeFiles/light_switch_dimming_server_nrf52840_xxAA_s140_6.1.1.dir/__/__/__/mesh/core/src/timeslot.c.obj
                0x0002ce58                timeslot_is_in_ts
 .text.timeslot_is_in_cb
                0x0002ce64        0xc examples/experimental_dimming/dimming_server/CMakeFiles/light_switch_dimming_server_nrf52840_xxAA_s140_6.1.1.dir/__/__/__/mesh/core/src/timeslot.c.obj
                0x0002ce64                timeslot_is_in_cb
 .text.timeslot_session_is_active
                0x0002ce70       0x10 examples/experimental_dimming/dimming_server/CMakeFiles/light_switch_dimming_server_nrf52840_xxAA_s140_6.1.1.dir/__/__/__/mesh/core/src/timeslot.c.obj
                0x0002ce70                timeslot_session_is_active
 .text.timeslot_trigger
                0x0002ce80       0x24 examples/experimental_dimming/dimming_server/CMakeFiles/light_switch_dimming_server_nrf52840_xxAA_s140_6.1.1.dir/__/__/__/mesh/core/src/timeslot.c.obj
                0x0002ce80                timeslot_trigger
 .text.timeslot_stop
                0x0002cea4       0x1c examples/experimental_dimming/dimming_server/CMakeFiles/light_switch_dimming_server_nrf52840_xxAA_s140_6.1.1.dir/__/__/__/mesh/core/src/timeslot.c.obj
                0x0002cea4                timeslot_stop
 .text.timeslot_restart
                0x0002cec0       0x24 examples/experimental_dimming/dimming_server/CMakeFiles/light_switch_dimming_server_nrf52840_xxAA_s140_6.1.1.dir/__/__/__/mesh/core/src/timeslot.c.obj
                0x0002cec0                timeslot_restart
 .text.timeslot_state_lock
                0x0002cee4       0x24 examples/experimental_dimming/dimming_server/CMakeFiles/light_switch_dimming_server_nrf52840_xxAA_s140_6.1.1.dir/__/__/__/mesh/core/src/timeslot.c.obj
                0x0002cee4                timeslot_state_lock
 .text.timer_mut_unlock
                0x0002cf08       0x10 examples/experimental_dimming/dimming_server/CMakeFiles/light_switch_dimming_server_nrf52840_xxAA_s140_6.1.1.dir/__/__/__/mesh/core/src/timeslot_timer.c.obj
 .text.ts_timer_order_cb
                0x0002cf18       0x64 examples/experimental_dimming/dimming_server/CMakeFiles/light_switch_dimming_server_nrf52840_xxAA_s140_6.1.1.dir/__/__/__/mesh/core/src/timeslot_timer.c.obj
                0x0002cf18                ts_timer_order_cb
 .text.ts_timer_now
                0x0002cf7c       0x40 examples/experimental_dimming/dimming_server/CMakeFiles/light_switch_dimming_server_nrf52840_xxAA_s140_6.1.1.dir/__/__/__/mesh/core/src/timeslot_timer.c.obj
                0x0002cf7c                ts_timer_now
 .text.ts_timer_event_handler
                0x0002cfbc       0x68 examples/experimental_dimming/dimming_server/CMakeFiles/light_switch_dimming_server_nrf52840_xxAA_s140_6.1.1.dir/__/__/__/mesh/core/src/timeslot_timer.c.obj
                0x0002cfbc                ts_timer_event_handler
 .text.ts_timer_to_device_time
                0x0002d024        0xc examples/experimental_dimming/dimming_server/CMakeFiles/light_switch_dimming_server_nrf52840_xxAA_s140_6.1.1.dir/__/__/__/mesh/core/src/timeslot_timer.c.obj
                0x0002d024                ts_timer_to_device_time
 .text.ts_timer_on_ts_begin
                0x0002d030       0x64 examples/experimental_dimming/dimming_server/CMakeFiles/light_switch_dimming_server_nrf52840_xxAA_s140_6.1.1.dir/__/__/__/mesh/core/src/timeslot_timer.c.obj
                0x0002d030                ts_timer_on_ts_begin
 .text.ts_timer_on_ts_end
                0x0002d094       0x48 examples/experimental_dimming/dimming_server/CMakeFiles/light_switch_dimming_server_nrf52840_xxAA_s140_6.1.1.dir/__/__/__/mesh/core/src/timeslot_timer.c.obj
                0x0002d094                ts_timer_on_ts_end
 .text.trigger_event_handler
                0x0002d0dc       0x1c examples/experimental_dimming/dimming_server/CMakeFiles/light_switch_dimming_server_nrf52840_xxAA_s140_6.1.1.dir/__/__/__/mesh/core/src/bearer_event.c.obj
 .text.bearer_event_init
                0x0002d0f8       0x58 examples/experimental_dimming/dimming_server/CMakeFiles/light_switch_dimming_server_nrf52840_xxAA_s140_6.1.1.dir/__/__/__/mesh/core/src/bearer_event.c.obj
                0x0002d0f8                bearer_event_init
 .text.bearer_event_start
                0x0002d150       0x44 examples/experimental_dimming/dimming_server/CMakeFiles/light_switch_dimming_server_nrf52840_xxAA_s140_6.1.1.dir/__/__/__/mesh/core/src/bearer_event.c.obj
                0x0002d150                bearer_event_start
 .text.bearer_event_critical_section_begin
                0x0002d194       0x80 examples/experimental_dimming/dimming_server/CMakeFiles/light_switch_dimming_server_nrf52840_xxAA_s140_6.1.1.dir/__/__/__/mesh/core/src/bearer_event.c.obj
                0x0002d194                bearer_event_critical_section_begin
 .text.bearer_event_critical_section_end
                0x0002d214       0x60 examples/experimental_dimming/dimming_server/CMakeFiles/light_switch_dimming_server_nrf52840_xxAA_s140_6.1.1.dir/__/__/__/mesh/core/src/bearer_event.c.obj
                0x0002d214                bearer_event_critical_section_end
 .text.bearer_event_flag_add
                0x0002d274       0x3c examples/experimental_dimming/dimming_server/CMakeFiles/light_switch_dimming_server_nrf52840_xxAA_s140_6.1.1.dir/__/__/__/mesh/core/src/bearer_event.c.obj
                0x0002d274                bearer_event_flag_add
 .text.bearer_event_flag_set
                0x0002d2b0       0x44 examples/experimental_dimming/dimming_server/CMakeFiles/light_switch_dimming_server_nrf52840_xxAA_s140_6.1.1.dir/__/__/__/mesh/core/src/bearer_event.c.obj
                0x0002d2b0                bearer_event_flag_set
 .text.bearer_event_sequential_add
                0x0002d2f4       0x2e examples/experimental_dimming/dimming_server/CMakeFiles/light_switch_dimming_server_nrf52840_xxAA_s140_6.1.1.dir/__/__/__/mesh/core/src/bearer_event.c.obj
                0x0002d2f4                bearer_event_sequential_add
 *fill*         0x0002d322        0x2 
 .text.bearer_event_sequential_post
                0x0002d324       0x44 examples/experimental_dimming/dimming_server/CMakeFiles/light_switch_dimming_server_nrf52840_xxAA_s140_6.1.1.dir/__/__/__/mesh/core/src/bearer_event.c.obj
                0x0002d324                bearer_event_sequential_post
 .text.bearer_event_sequential_pending
                0x0002d368       0x10 examples/experimental_dimming/dimming_server/CMakeFiles/light_switch_dimming_server_nrf52840_xxAA_s140_6.1.1.dir/__/__/__/mesh/core/src/bearer_event.c.obj
                0x0002d368                bearer_event_sequential_pending
 .text.bearer_event_handler
                0x0002d378       0xe4 examples/experimental_dimming/dimming_server/CMakeFiles/light_switch_dimming_server_nrf52840_xxAA_s140_6.1.1.dir/__/__/__/mesh/core/src/bearer_event.c.obj
                0x0002d378                bearer_event_handler
 .text.QDEC_IRQHandler
                0x0002d45c        0x4 examples/experimental_dimming/dimming_server/CMakeFiles/light_switch_dimming_server_nrf52840_xxAA_s140_6.1.1.dir/__/__/__/mesh/core/src/bearer_event.c.obj
                0x0002d45c                QDEC_IRQHandler
 .text.bearer_event_in_correct_irq_priority
                0x0002d460       0x74 examples/experimental_dimming/dimming_server/CMakeFiles/light_switch_dimming_server_nrf52840_xxAA_s140_6.1.1.dir/__/__/__/mesh/core/src/bearer_event.c.obj
                0x0002d460                bearer_event_in_correct_irq_priority
 .text.sd_ecb_block_encrypt
                0x0002d4d4        0x4 examples/experimental_dimming/dimming_server/CMakeFiles/light_switch_dimming_server_nrf52840_xxAA_s140_6.1.1.dir/__/__/__/mesh/core/src/enc.c.obj
 .text.enc_aes_encrypt
                0x0002d4d8       0x32 examples/experimental_dimming/dimming_server/CMakeFiles/light_switch_dimming_server_nrf52840_xxAA_s140_6.1.1.dir/__/__/__/mesh/core/src/enc.c.obj
                0x0002d4d8                enc_aes_encrypt
 .text.enc_aes_cmac
                0x0002d50a        0x4 examples/experimental_dimming/dimming_server/CMakeFiles/light_switch_dimming_server_nrf52840_xxAA_s140_6.1.1.dir/__/__/__/mesh/core/src/enc.c.obj
                0x0002d50a                enc_aes_cmac
 .text.enc_aes_ccm_encrypt
                0x0002d50e        0x4 examples/experimental_dimming/dimming_server/CMakeFiles/light_switch_dimming_server_nrf52840_xxAA_s140_6.1.1.dir/__/__/__/mesh/core/src/enc.c.obj
                0x0002d50e                enc_aes_ccm_encrypt
 .text.enc_aes_ccm_decrypt
                0x0002d512        0x4 examples/experimental_dimming/dimming_server/CMakeFiles/light_switch_dimming_server_nrf52840_xxAA_s140_6.1.1.dir/__/__/__/mesh/core/src/enc.c.obj
                0x0002d512                enc_aes_ccm_decrypt
 .text.enc_nonce_generate
                0x0002d516       0xbc examples/experimental_dimming/dimming_server/CMakeFiles/light_switch_dimming_server_nrf52840_xxAA_s140_6.1.1.dir/__/__/__/mesh/core/src/enc.c.obj
                0x0002d516                enc_nonce_generate
 .text.enc_s1   0x0002d5d2       0x2c examples/experimental_dimming/dimming_server/CMakeFiles/light_switch_dimming_server_nrf52840_xxAA_s140_6.1.1.dir/__/__/__/mesh/core/src/enc.c.obj
                0x0002d5d2                enc_s1
 .text.enc_k1   0x0002d5fe       0x3c examples/experimental_dimming/dimming_server/CMakeFiles/light_switch_dimming_server_nrf52840_xxAA_s140_6.1.1.dir/__/__/__/mesh/core/src/enc.c.obj
                0x0002d5fe                enc_k1
 *fill*         0x0002d63a        0x2 
 .text.enc_k2   0x0002d63c       0xc0 examples/experimental_dimming/dimming_server/CMakeFiles/light_switch_dimming_server_nrf52840_xxAA_s140_6.1.1.dir/__/__/__/mesh/core/src/enc.c.obj
                0x0002d63c                enc_k2
 .text.enc_k3   0x0002d6fc       0x5c examples/experimental_dimming/dimming_server/CMakeFiles/light_switch_dimming_server_nrf52840_xxAA_s140_6.1.1.dir/__/__/__/mesh/core/src/enc.c.obj
                0x0002d6fc                enc_k3
 .text.enc_k4   0x0002d758       0x54 examples/experimental_dimming/dimming_server/CMakeFiles/light_switch_dimming_server_nrf52840_xxAA_s140_6.1.1.dir/__/__/__/mesh/core/src/enc.c.obj
                0x0002d758                enc_k4
 .text.allocate_packet
                0x0002d7ac       0x6e examples/experimental_dimming/dimming_server/CMakeFiles/light_switch_dimming_server_nrf52840_xxAA_s140_6.1.1.dir/__/__/__/mesh/core/src/network.c.obj
 *fill*         0x0002d81a        0x2 
 .text.network_init
                0x0002d81c       0x24 examples/experimental_dimming/dimming_server/CMakeFiles/light_switch_dimming_server_nrf52840_xxAA_s140_6.1.1.dir/__/__/__/mesh/core/src/network.c.obj
                0x0002d81c                network_init
 .text.network_enable
                0x0002d840        0xe examples/experimental_dimming/dimming_server/CMakeFiles/light_switch_dimming_server_nrf52840_xxAA_s140_6.1.1.dir/__/__/__/mesh/core/src/network.c.obj
                0x0002d840                network_enable
 .text.network_packet_alloc
                0x0002d84e       0x42 examples/experimental_dimming/dimming_server/CMakeFiles/light_switch_dimming_server_nrf52840_xxAA_s140_6.1.1.dir/__/__/__/mesh/core/src/network.c.obj
                0x0002d84e                network_packet_alloc
 .text.network_packet_send
                0x0002d890       0xe0 examples/experimental_dimming/dimming_server/CMakeFiles/light_switch_dimming_server_nrf52840_xxAA_s140_6.1.1.dir/__/__/__/mesh/core/src/network.c.obj
                0x0002d890                network_packet_send
 .text.network_packet_in
                0x0002d970      0x2dc examples/experimental_dimming/dimming_server/CMakeFiles/light_switch_dimming_server_nrf52840_xxAA_s140_6.1.1.dir/__/__/__/mesh/core/src/network.c.obj
                0x0002d970                network_packet_in
 .text.nonce_type_get
                0x0002dc4c       0x16 examples/experimental_dimming/dimming_server/CMakeFiles/light_switch_dimming_server_nrf52840_xxAA_s140_6.1.1.dir/__/__/__/mesh/core/src/net_packet.c.obj
 .text.header_transfuscate
                0x0002dc62       0x54 examples/experimental_dimming/dimming_server/CMakeFiles/light_switch_dimming_server_nrf52840_xxAA_s140_6.1.1.dir/__/__/__/mesh/core/src/net_packet.c.obj
 *fill*         0x0002dcb6        0x2 
 .text.try_decrypt
                0x0002dcb8      0x18c examples/experimental_dimming/dimming_server/CMakeFiles/light_switch_dimming_server_nrf52840_xxAA_s140_6.1.1.dir/__/__/__/mesh/core/src/net_packet.c.obj
 .text.net_packet_decrypt
                0x0002de44       0x94 examples/experimental_dimming/dimming_server/CMakeFiles/light_switch_dimming_server_nrf52840_xxAA_s140_6.1.1.dir/__/__/__/mesh/core/src/net_packet.c.obj
                0x0002de44                net_packet_decrypt
 .text.net_packet_encrypt
                0x0002ded8       0x7e examples/experimental_dimming/dimming_server/CMakeFiles/light_switch_dimming_server_nrf52840_xxAA_s140_6.1.1.dir/__/__/__/mesh/core/src/net_packet.c.obj
                0x0002ded8                net_packet_encrypt
 .text.net_packet_header_set
                0x0002df56       0xaa examples/experimental_dimming/dimming_server/CMakeFiles/light_switch_dimming_server_nrf52840_xxAA_s140_6.1.1.dir/__/__/__/mesh/core/src/net_packet.c.obj
                0x0002df56                net_packet_header_set
 .text.net_packet_payload_len_get
                0x0002e000       0x10 examples/experimental_dimming/dimming_server/CMakeFiles/light_switch_dimming_server_nrf52840_xxAA_s140_6.1.1.dir/__/__/__/mesh/core/src/net_packet.c.obj
                0x0002e000                net_packet_payload_len_get
 .text.net_packet_from_payload
                0x0002e010        0x4 examples/experimental_dimming/dimming_server/CMakeFiles/light_switch_dimming_server_nrf52840_xxAA_s140_6.1.1.dir/__/__/__/mesh/core/src/net_packet.c.obj
                0x0002e010                net_packet_from_payload
 .text.net_packet_payload_get
                0x0002e014        0x4 examples/experimental_dimming/dimming_server/CMakeFiles/light_switch_dimming_server_nrf52840_xxAA_s140_6.1.1.dir/__/__/__/mesh/core/src/net_packet.c.obj
                0x0002e014                net_packet_payload_get
 .text.net_packet_obfuscation_start_get
                0x0002e018        0x4 examples/experimental_dimming/dimming_server/CMakeFiles/light_switch_dimming_server_nrf52840_xxAA_s140_6.1.1.dir/__/__/__/mesh/core/src/net_packet.c.obj
                0x0002e018                net_packet_obfuscation_start_get
 .text.stage_get_available
                0x0002e01c       0x24 examples/experimental_dimming/dimming_server/CMakeFiles/light_switch_dimming_server_nrf52840_xxAA_s140_6.1.1.dir/__/__/__/mesh/core/src/msqueue.c.obj
 .text.msq_get  0x0002e040       0x38 examples/experimental_dimming/dimming_server/CMakeFiles/light_switch_dimming_server_nrf52840_xxAA_s140_6.1.1.dir/__/__/__/mesh/core/src/msqueue.c.obj
                0x0002e040                msq_get
 .text.msq_move
                0x0002e078       0x2e examples/experimental_dimming/dimming_server/CMakeFiles/light_switch_dimming_server_nrf52840_xxAA_s140_6.1.1.dir/__/__/__/mesh/core/src/msqueue.c.obj
                0x0002e078                msq_move
 .text.msq_reset
                0x0002e0a6       0x20 examples/experimental_dimming/dimming_server/CMakeFiles/light_switch_dimming_server_nrf52840_xxAA_s140_6.1.1.dir/__/__/__/mesh/core/src/msqueue.c.obj
                0x0002e0a6                msq_reset
 .text.msq_init
                0x0002e0c6       0x48 examples/experimental_dimming/dimming_server/CMakeFiles/light_switch_dimming_server_nrf52840_xxAA_s140_6.1.1.dir/__/__/__/mesh/core/src/msqueue.c.obj
                0x0002e0c6                msq_init
 .text.msq_available
                0x0002e10e       0x26 examples/experimental_dimming/dimming_server/CMakeFiles/light_switch_dimming_server_nrf52840_xxAA_s140_6.1.1.dir/__/__/__/mesh/core/src/msqueue.c.obj
                0x0002e10e                msq_available
 .text.nrf_mesh_keygen_aid
                0x0002e134       0x12 examples/experimental_dimming/dimming_server/CMakeFiles/light_switch_dimming_server_nrf52840_xxAA_s140_6.1.1.dir/__/__/__/mesh/core/src/nrf_mesh_keygen.c.obj
                0x0002e134                nrf_mesh_keygen_aid
 .text.nrf_mesh_keygen_network_secmat
                0x0002e146       0x20 examples/experimental_dimming/dimming_server/CMakeFiles/light_switch_dimming_server_nrf52840_xxAA_s140_6.1.1.dir/__/__/__/mesh/core/src/nrf_mesh_keygen.c.obj
                0x0002e146                nrf_mesh_keygen_network_secmat
 *fill*         0x0002e166        0x2 
 .text.nrf_mesh_keygen_beacon_secmat
                0x0002e168       0x50 examples/experimental_dimming/dimming_server/CMakeFiles/light_switch_dimming_server_nrf52840_xxAA_s140_6.1.1.dir/__/__/__/mesh/core/src/nrf_mesh_keygen.c.obj
                0x0002e168                nrf_mesh_keygen_beacon_secmat
 .text.nrf_mesh_keygen_identitykey
                0x0002e1b8       0x4c examples/experimental_dimming/dimming_server/CMakeFiles/light_switch_dimming_server_nrf52840_xxAA_s140_6.1.1.dir/__/__/__/mesh/core/src/nrf_mesh_keygen.c.obj
                0x0002e1b8                nrf_mesh_keygen_identitykey
 .text.nrf_mesh_keygen_virtual_address
                0x0002e204       0x50 examples/experimental_dimming/dimming_server/CMakeFiles/light_switch_dimming_server_nrf52840_xxAA_s140_6.1.1.dir/__/__/__/mesh/core/src/nrf_mesh_keygen.c.obj
                0x0002e204                nrf_mesh_keygen_virtual_address
 .text.erase_at
                0x0002e254       0x14 examples/experimental_dimming/dimming_server/CMakeFiles/light_switch_dimming_server_nrf52840_xxAA_s140_6.1.1.dir/__/__/__/mesh/core/src/cache.c.obj
 .text.cache_init
                0x0002e268       0x1e examples/experimental_dimming/dimming_server/CMakeFiles/light_switch_dimming_server_nrf52840_xxAA_s140_6.1.1.dir/__/__/__/mesh/core/src/cache.c.obj
                0x0002e268                cache_init
 .text.cache_has_elem
                0x0002e286       0x40 examples/experimental_dimming/dimming_server/CMakeFiles/light_switch_dimming_server_nrf52840_xxAA_s140_6.1.1.dir/__/__/__/mesh/core/src/cache.c.obj
                0x0002e286                cache_has_elem
 .text.cache_put
                0x0002e2c6       0x30 examples/experimental_dimming/dimming_server/CMakeFiles/light_switch_dimming_server_nrf52840_xxAA_s140_6.1.1.dir/__/__/__/mesh/core/src/cache.c.obj
                0x0002e2c6                cache_put
 .text.list_insert
                0x0002e2f6       0x1c examples/experimental_dimming/dimming_server/CMakeFiles/light_switch_dimming_server_nrf52840_xxAA_s140_6.1.1.dir/__/__/__/mesh/core/src/list.c.obj
 .text.list_add
                0x0002e312       0x42 examples/experimental_dimming/dimming_server/CMakeFiles/light_switch_dimming_server_nrf52840_xxAA_s140_6.1.1.dir/__/__/__/mesh/core/src/list.c.obj
                0x0002e312                list_add
 .text.list_remove
                0x0002e354       0x3a examples/experimental_dimming/dimming_server/CMakeFiles/light_switch_dimming_server_nrf52840_xxAA_s140_6.1.1.dir/__/__/__/mesh/core/src/list.c.obj
                0x0002e354                list_remove
 .text.list_compare_add
                0x0002e38e       0x56 examples/experimental_dimming/dimming_server/CMakeFiles/light_switch_dimming_server_nrf52840_xxAA_s140_6.1.1.dir/__/__/__/mesh/core/src/list.c.obj
                0x0002e38e                list_compare_add
 .text.log_callback_rtt
                0x0002e3e4       0x2c examples/experimental_dimming/dimming_server/CMakeFiles/light_switch_dimming_server_nrf52840_xxAA_s140_6.1.1.dir/__/__/__/mesh/core/src/log.c.obj
                0x0002e3e4                log_callback_rtt
 .text.log_init
                0x0002e410       0x1c examples/experimental_dimming/dimming_server/CMakeFiles/light_switch_dimming_server_nrf52840_xxAA_s140_6.1.1.dir/__/__/__/mesh/core/src/log.c.obj
                0x0002e410                log_init
 .text.log_vprintf
                0x0002e42c       0x1c examples/experimental_dimming/dimming_server/CMakeFiles/light_switch_dimming_server_nrf52840_xxAA_s140_6.1.1.dir/__/__/__/mesh/core/src/log.c.obj
                0x0002e42c                log_vprintf
 .text.log_printf
                0x0002e448       0x18 examples/experimental_dimming/dimming_server/CMakeFiles/light_switch_dimming_server_nrf52840_xxAA_s140_6.1.1.dir/__/__/__/mesh/core/src/log.c.obj
                0x0002e448                log_printf
 .text.get_area_end
                0x0002e460        0xc examples/experimental_dimming/dimming_server/CMakeFiles/light_switch_dimming_server_nrf52840_xxAA_s140_6.1.1.dir/__/__/__/mesh/core/src/flash_manager.c.obj
 .text.handle_matches_filter
                0x0002e46c       0x26 examples/experimental_dimming/dimming_server/CMakeFiles/light_switch_dimming_server_nrf52840_xxAA_s140_6.1.1.dir/__/__/__/mesh/core/src/flash_manager.c.obj
 .text.flash_area_is_blank
                0x0002e492       0x2c examples/experimental_dimming/dimming_server/CMakeFiles/light_switch_dimming_server_nrf52840_xxAA_s140_6.1.1.dir/__/__/__/mesh/core/src/flash_manager.c.obj
 *fill*         0x0002e4be        0x2 
 .text.get_packet_buffer
                0x0002e4c0       0x20 examples/experimental_dimming/dimming_server/CMakeFiles/light_switch_dimming_server_nrf52840_xxAA_s140_6.1.1.dir/__/__/__/mesh/core/src/flash_manager.c.obj
 .text.flash    0x0002e4e0       0x1c examples/experimental_dimming/dimming_server/CMakeFiles/light_switch_dimming_server_nrf52840_xxAA_s140_6.1.1.dir/__/__/__/mesh/core/src/flash_manager.c.obj
 .text.free_packet_buffer
                0x0002e4fc       0x3c examples/experimental_dimming/dimming_server/CMakeFiles/light_switch_dimming_server_nrf52840_xxAA_s140_6.1.1.dir/__/__/__/mesh/core/src/flash_manager.c.obj
 .text.iterate_callback_entry_copy
                0x0002e538       0x38 examples/experimental_dimming/dimming_server/CMakeFiles/light_switch_dimming_server_nrf52840_xxAA_s140_6.1.1.dir/__/__/__/mesh/core/src/flash_manager.c.obj
 .text.reserve_action_buffer
                0x0002e570       0x24 examples/experimental_dimming/dimming_server/CMakeFiles/light_switch_dimming_server_nrf52840_xxAA_s140_6.1.1.dir/__/__/__/mesh/core/src/flash_manager.c.obj
 .text.commit_action_buffer
                0x0002e594       0x18 examples/experimental_dimming/dimming_server/CMakeFiles/light_switch_dimming_server_nrf52840_xxAA_s140_6.1.1.dir/__/__/__/mesh/core/src/flash_manager.c.obj
 .text.schedule_processing
                0x0002e5ac        0xc examples/experimental_dimming/dimming_server/CMakeFiles/light_switch_dimming_server_nrf52840_xxAA_s140_6.1.1.dir/__/__/__/mesh/core/src/flash_manager.c.obj
 .text.get_next_entry
                0x0002e5b8       0x34 examples/experimental_dimming/dimming_server/CMakeFiles/light_switch_dimming_server_nrf52840_xxAA_s140_6.1.1.dir/__/__/__/mesh/core/src/flash_manager.c.obj
 .text.get_last_entry.isra.1
                0x0002e5ec       0x30 examples/experimental_dimming/dimming_server/CMakeFiles/light_switch_dimming_server_nrf52840_xxAA_s140_6.1.1.dir/__/__/__/mesh/core/src/flash_manager.c.obj
 .text.process_action_queue
                0x0002e61c      0x3fc examples/experimental_dimming/dimming_server/CMakeFiles/light_switch_dimming_server_nrf52840_xxAA_s140_6.1.1.dir/__/__/__/mesh/core/src/flash_manager.c.obj
 .text.flash_op_ended_callback
                0x0002ea18       0x24 examples/experimental_dimming/dimming_server/CMakeFiles/light_switch_dimming_server_nrf52840_xxAA_s140_6.1.1.dir/__/__/__/mesh/core/src/flash_manager.c.obj
 .text.flash_manager_init
                0x0002ea3c       0x68 examples/experimental_dimming/dimming_server/CMakeFiles/light_switch_dimming_server_nrf52840_xxAA_s140_6.1.1.dir/__/__/__/mesh/core/src/flash_manager.c.obj
                0x0002ea3c                flash_manager_init
 .text.flash_manager_remove
                0x0002eaa4       0x24 examples/experimental_dimming/dimming_server/CMakeFiles/light_switch_dimming_server_nrf52840_xxAA_s140_6.1.1.dir/__/__/__/mesh/core/src/flash_manager.c.obj
                0x0002eaa4                flash_manager_remove
 .text.flash_manager_entries_read
                0x0002eac8       0xea examples/experimental_dimming/dimming_server/CMakeFiles/light_switch_dimming_server_nrf52840_xxAA_s140_6.1.1.dir/__/__/__/mesh/core/src/flash_manager.c.obj
                0x0002eac8                flash_manager_entries_read
 *fill*         0x0002ebb2        0x2 
 .text.flash_manager_entry_read
                0x0002ebb4       0x50 examples/experimental_dimming/dimming_server/CMakeFiles/light_switch_dimming_server_nrf52840_xxAA_s140_6.1.1.dir/__/__/__/mesh/core/src/flash_manager.c.obj
                0x0002ebb4                flash_manager_entry_read
 .text.flash_manager_entry_count_get
                0x0002ec04       0x1e examples/experimental_dimming/dimming_server/CMakeFiles/light_switch_dimming_server_nrf52840_xxAA_s140_6.1.1.dir/__/__/__/mesh/core/src/flash_manager.c.obj
                0x0002ec04                flash_manager_entry_count_get
 .text.flash_manager_entry_alloc
                0x0002ec22       0x5c examples/experimental_dimming/dimming_server/CMakeFiles/light_switch_dimming_server_nrf52840_xxAA_s140_6.1.1.dir/__/__/__/mesh/core/src/flash_manager.c.obj
                0x0002ec22                flash_manager_entry_alloc
 *fill*         0x0002ec7e        0x2 
 .text.flash_manager_entry_commit
                0x0002ec80       0x2c examples/experimental_dimming/dimming_server/CMakeFiles/light_switch_dimming_server_nrf52840_xxAA_s140_6.1.1.dir/__/__/__/mesh/core/src/flash_manager.c.obj
                0x0002ec80                flash_manager_entry_commit
 .text.flash_manager_entry_invalidate
                0x0002ecac       0x4e examples/experimental_dimming/dimming_server/CMakeFiles/light_switch_dimming_server_nrf52840_xxAA_s140_6.1.1.dir/__/__/__/mesh/core/src/flash_manager.c.obj
                0x0002ecac                flash_manager_entry_invalidate
 *fill*         0x0002ecfa        0x2 
 .text.flash_manager_add
                0x0002ecfc      0x220 examples/experimental_dimming/dimming_server/CMakeFiles/light_switch_dimming_server_nrf52840_xxAA_s140_6.1.1.dir/__/__/__/mesh/core/src/flash_manager.c.obj
                0x0002ecfc                flash_manager_add
 .text.flash_manager_mem_listener_register
                0x0002ef1c       0x30 examples/experimental_dimming/dimming_server/CMakeFiles/light_switch_dimming_server_nrf52840_xxAA_s140_6.1.1.dir/__/__/__/mesh/core/src/flash_manager.c.obj
                0x0002ef1c                flash_manager_mem_listener_register
 .text.flash_manager_is_stable
                0x0002ef4c       0x20 examples/experimental_dimming/dimming_server/CMakeFiles/light_switch_dimming_server_nrf52840_xxAA_s140_6.1.1.dir/__/__/__/mesh/core/src/flash_manager.c.obj
                0x0002ef4c                flash_manager_is_stable
 .text.flash_manager_on_defrag_end
                0x0002ef6c       0x4c examples/experimental_dimming/dimming_server/CMakeFiles/light_switch_dimming_server_nrf52840_xxAA_s140_6.1.1.dir/__/__/__/mesh/core/src/flash_manager.c.obj
                0x0002ef6c                flash_manager_on_defrag_end
 .text.flash_manager_recovery_page_get
                0x0002efb8        0x4 examples/experimental_dimming/dimming_server/CMakeFiles/light_switch_dimming_server_nrf52840_xxAA_s140_6.1.1.dir/__/__/__/mesh/core/src/flash_manager.c.obj
                0x0002efb8                flash_manager_recovery_page_get
 .text.flash_manager_action_queue_empty_cb_set
                0x0002efbc       0x1c examples/experimental_dimming/dimming_server/CMakeFiles/light_switch_dimming_server_nrf52840_xxAA_s140_6.1.1.dir/__/__/__/mesh/core/src/flash_manager.c.obj
                0x0002efbc                flash_manager_action_queue_empty_cb_set
 .text.utils_xor
                0x0002efd8       0x14 examples/experimental_dimming/dimming_server/CMakeFiles/light_switch_dimming_server_nrf52840_xxAA_s140_6.1.1.dir/__/__/__/mesh/core/src/ccm_soft.c.obj
 .text.sd_ecb_block_encrypt
                0x0002efec        0x4 examples/experimental_dimming/dimming_server/CMakeFiles/light_switch_dimming_server_nrf52840_xxAA_s140_6.1.1.dir/__/__/__/mesh/core/src/ccm_soft.c.obj
 .text.ccm_soft_crypt
                0x0002eff0       0x4c examples/experimental_dimming/dimming_server/CMakeFiles/light_switch_dimming_server_nrf52840_xxAA_s140_6.1.1.dir/__/__/__/mesh/core/src/ccm_soft.c.obj
 .text.ccm_soft_authenticate_blocks
                0x0002f03c       0x6c examples/experimental_dimming/dimming_server/CMakeFiles/light_switch_dimming_server_nrf52840_xxAA_s140_6.1.1.dir/__/__/__/mesh/core/src/ccm_soft.c.obj
 .text.ccm_soft_authenticate
                0x0002f0a8       0x94 examples/experimental_dimming/dimming_server/CMakeFiles/light_switch_dimming_server_nrf52840_xxAA_s140_6.1.1.dir/__/__/__/mesh/core/src/ccm_soft.c.obj
 .text.ccm_soft_encrypt
                0x0002f13c       0x54 examples/experimental_dimming/dimming_server/CMakeFiles/light_switch_dimming_server_nrf52840_xxAA_s140_6.1.1.dir/__/__/__/mesh/core/src/ccm_soft.c.obj
                0x0002f13c                ccm_soft_encrypt
 .text.ccm_soft_decrypt
                0x0002f190       0x9c examples/experimental_dimming/dimming_server/CMakeFiles/light_switch_dimming_server_nrf52840_xxAA_s140_6.1.1.dir/__/__/__/mesh/core/src/ccm_soft.c.obj
                0x0002f190                ccm_soft_decrypt
 .text.iv_index_get.isra.0
                0x0002f22c       0x34 examples/experimental_dimming/dimming_server/CMakeFiles/light_switch_dimming_server_nrf52840_xxAA_s140_6.1.1.dir/__/__/__/mesh/core/src/replay_cache.c.obj
 .text.evt_handler
                0x0002f260       0x60 examples/experimental_dimming/dimming_server/CMakeFiles/light_switch_dimming_server_nrf52840_xxAA_s140_6.1.1.dir/__/__/__/mesh/core/src/replay_cache.c.obj
 .text.replay_cache_enable
                0x0002f2c0       0x10 examples/experimental_dimming/dimming_server/CMakeFiles/light_switch_dimming_server_nrf52840_xxAA_s140_6.1.1.dir/__/__/__/mesh/core/src/replay_cache.c.obj
                0x0002f2c0                replay_cache_enable
 .text.replay_cache_add
                0x0002f2d0       0x78 examples/experimental_dimming/dimming_server/CMakeFiles/light_switch_dimming_server_nrf52840_xxAA_s140_6.1.1.dir/__/__/__/mesh/core/src/replay_cache.c.obj
                0x0002f2d0                replay_cache_add
 .text.replay_cache_has_elem
                0x0002f348       0x50 examples/experimental_dimming/dimming_server/CMakeFiles/light_switch_dimming_server_nrf52840_xxAA_s140_6.1.1.dir/__/__/__/mesh/core/src/replay_cache.c.obj
                0x0002f348                replay_cache_has_elem
 .text.replay_cache_clear
                0x0002f398       0x18 examples/experimental_dimming/dimming_server/CMakeFiles/light_switch_dimming_server_nrf52840_xxAA_s140_6.1.1.dir/__/__/__/mesh/core/src/replay_cache.c.obj
                0x0002f398                replay_cache_clear
 .text.replay_cache_init
                0x0002f3b0       0x14 examples/experimental_dimming/dimming_server/CMakeFiles/light_switch_dimming_server_nrf52840_xxAA_s140_6.1.1.dir/__/__/__/mesh/core/src/replay_cache.c.obj
                0x0002f3b0                replay_cache_init
 .text.beacon_create
                0x0002f3c4       0x46 examples/experimental_dimming/dimming_server/CMakeFiles/light_switch_dimming_server_nrf52840_xxAA_s140_6.1.1.dir/__/__/__/mesh/core/src/beacon.c.obj
                0x0002f3c4                beacon_create
 *fill*         0x0002f40a        0x2 
 .text.beacon_packet_in
                0x0002f40c      0x130 examples/experimental_dimming/dimming_server/CMakeFiles/light_switch_dimming_server_nrf52840_xxAA_s140_6.1.1.dir/__/__/__/mesh/core/src/beacon.c.obj
                0x0002f40c                beacon_packet_in
 .text.entry_get
                0x0002f53c       0x78 examples/experimental_dimming/dimming_server/CMakeFiles/light_switch_dimming_server_nrf52840_xxAA_s140_6.1.1.dir/__/__/__/mesh/core/src/flash_manager_internal.c.obj
                0x0002f53c                entry_get
 .text.core_tx_complete_cb_set
                0x0002f5b4        0xc examples/experimental_dimming/dimming_server/CMakeFiles/light_switch_dimming_server_nrf52840_xxAA_s140_6.1.1.dir/__/__/__/mesh/core/src/core_tx.c.obj
                0x0002f5b4                core_tx_complete_cb_set
 .text.core_tx_packet_alloc
                0x0002f5c0       0xac examples/experimental_dimming/dimming_server/CMakeFiles/light_switch_dimming_server_nrf52840_xxAA_s140_6.1.1.dir/__/__/__/mesh/core/src/core_tx.c.obj
                0x0002f5c0                core_tx_packet_alloc
 .text.core_tx_packet_send
                0x0002f66c       0x4c examples/experimental_dimming/dimming_server/CMakeFiles/light_switch_dimming_server_nrf52840_xxAA_s140_6.1.1.dir/__/__/__/mesh/core/src/core_tx.c.obj
                0x0002f66c                core_tx_packet_send
 .text.core_tx_packet_discard
                0x0002f6b8       0x40 examples/experimental_dimming/dimming_server/CMakeFiles/light_switch_dimming_server_nrf52840_xxAA_s140_6.1.1.dir/__/__/__/mesh/core/src/core_tx.c.obj
                0x0002f6b8                core_tx_packet_discard
 .text.core_tx_complete
                0x0002f6f8       0x34 examples/experimental_dimming/dimming_server/CMakeFiles/light_switch_dimming_server_nrf52840_xxAA_s140_6.1.1.dir/__/__/__/mesh/core/src/core_tx.c.obj
                0x0002f6f8                core_tx_complete
 .text.core_tx_bearer_add
                0x0002f72c       0x74 examples/experimental_dimming/dimming_server/CMakeFiles/light_switch_dimming_server_nrf52840_xxAA_s140_6.1.1.dir/__/__/__/mesh/core/src/core_tx.c.obj
                0x0002f72c                core_tx_bearer_add
 .text.hb_pub_deleter
                0x0002f7a0       0x28 examples/experimental_dimming/dimming_server/CMakeFiles/light_switch_dimming_server_nrf52840_xxAA_s140_6.1.1.dir/__/__/__/mesh/core/src/heartbeat.c.obj
 .text.hb_pub_getter
                0x0002f7c8       0x2c examples/experimental_dimming/dimming_server/CMakeFiles/light_switch_dimming_server_nrf52840_xxAA_s140_6.1.1.dir/__/__/__/mesh/core/src/heartbeat.c.obj
 .text.hb_pub_setter
                0x0002f7f4       0xd0 examples/experimental_dimming/dimming_server/CMakeFiles/light_switch_dimming_server_nrf52840_xxAA_s140_6.1.1.dir/__/__/__/mesh/core/src/heartbeat.c.obj
 .text.heartbeat_subscription_timer_cb
                0x0002f8c4       0x3c examples/experimental_dimming/dimming_server/CMakeFiles/light_switch_dimming_server_nrf52840_xxAA_s140_6.1.1.dir/__/__/__/mesh/core/src/heartbeat.c.obj
 .text.heartbeat_opcode_handle
                0x0002f900       0x88 examples/experimental_dimming/dimming_server/CMakeFiles/light_switch_dimming_server_nrf52840_xxAA_s140_6.1.1.dir/__/__/__/mesh/core/src/heartbeat.c.obj
 .text.heartbeat_publish
                0x0002f988       0xb8 examples/experimental_dimming/dimming_server/CMakeFiles/light_switch_dimming_server_nrf52840_xxAA_s140_6.1.1.dir/__/__/__/mesh/core/src/heartbeat.c.obj
 .text.on_feature_update
                0x0002fa40       0x34 examples/experimental_dimming/dimming_server/CMakeFiles/light_switch_dimming_server_nrf52840_xxAA_s140_6.1.1.dir/__/__/__/mesh/core/src/heartbeat.c.obj
 .text.heartbeat_relay_listener_cb
                0x0002fa74       0x1c examples/experimental_dimming/dimming_server/CMakeFiles/light_switch_dimming_server_nrf52840_xxAA_s140_6.1.1.dir/__/__/__/mesh/core/src/heartbeat.c.obj
 .text.heartbeat_proxy_listener_cb
                0x0002fa90       0x14 examples/experimental_dimming/dimming_server/CMakeFiles/light_switch_dimming_server_nrf52840_xxAA_s140_6.1.1.dir/__/__/__/mesh/core/src/heartbeat.c.obj
 .text.heartbeat_core_evt_cb
                0x0002faa4       0x18 examples/experimental_dimming/dimming_server/CMakeFiles/light_switch_dimming_server_nrf52840_xxAA_s140_6.1.1.dir/__/__/__/mesh/core/src/heartbeat.c.obj
 .text.heartbeat_publication_timer_cb
                0x0002fabc       0x54 examples/experimental_dimming/dimming_server/CMakeFiles/light_switch_dimming_server_nrf52840_xxAA_s140_6.1.1.dir/__/__/__/mesh/core/src/heartbeat.c.obj
 .text.heartbeat_init
                0x0002fb10       0x58 examples/experimental_dimming/dimming_server/CMakeFiles/light_switch_dimming_server_nrf52840_xxAA_s140_6.1.1.dir/__/__/__/mesh/core/src/heartbeat.c.obj
                0x0002fb10                heartbeat_init
 .text.heartbeat_subscription_set
                0x0002fb68       0xd0 examples/experimental_dimming/dimming_server/CMakeFiles/light_switch_dimming_server_nrf52840_xxAA_s140_6.1.1.dir/__/__/__/mesh/core/src/heartbeat.c.obj
                0x0002fb68                heartbeat_subscription_set
 .text.heartbeat_subscription_get
                0x0002fc38        0x8 examples/experimental_dimming/dimming_server/CMakeFiles/light_switch_dimming_server_nrf52840_xxAA_s140_6.1.1.dir/__/__/__/mesh/core/src/heartbeat.c.obj
                0x0002fc38                heartbeat_subscription_get
 .text.heartbeat_publication_get
                0x0002fc40        0x8 examples/experimental_dimming/dimming_server/CMakeFiles/light_switch_dimming_server_nrf52840_xxAA_s140_6.1.1.dir/__/__/__/mesh/core/src/heartbeat.c.obj
                0x0002fc40                heartbeat_publication_get
 .text.heartbeat_publication_set
                0x0002fc48       0x18 examples/experimental_dimming/dimming_server/CMakeFiles/light_switch_dimming_server_nrf52840_xxAA_s140_6.1.1.dir/__/__/__/mesh/core/src/heartbeat.c.obj
                0x0002fc48                heartbeat_publication_set
 .text.heartbeat_public_info_getter_register
                0x0002fc60       0x14 examples/experimental_dimming/dimming_server/CMakeFiles/light_switch_dimming_server_nrf52840_xxAA_s140_6.1.1.dir/__/__/__/mesh/core/src/heartbeat.c.obj
                0x0002fc60                heartbeat_public_info_getter_register
 .text.beacon_deleter
                0x0002fc74       0x34 examples/experimental_dimming/dimming_server/CMakeFiles/light_switch_dimming_server_nrf52840_xxAA_s140_6.1.1.dir/__/__/__/mesh/core/src/net_beacon.c.obj
 .text.beacon_getter
                0x0002fca8       0x24 examples/experimental_dimming/dimming_server/CMakeFiles/light_switch_dimming_server_nrf52840_xxAA_s140_6.1.1.dir/__/__/__/mesh/core/src/net_beacon.c.obj
 .text.beacon_setter
                0x0002fccc       0x5c examples/experimental_dimming/dimming_server/CMakeFiles/light_switch_dimming_server_nrf52840_xxAA_s140_6.1.1.dir/__/__/__/mesh/core/src/net_beacon.c.obj
 .text.make_network_beacon_packet
                0x0002fd28       0x50 examples/experimental_dimming/dimming_server/CMakeFiles/light_switch_dimming_server_nrf52840_xxAA_s140_6.1.1.dir/__/__/__/mesh/core/src/net_beacon.c.obj
 .text.beacon_tx
                0x0002fd78      0x188 examples/experimental_dimming/dimming_server/CMakeFiles/light_switch_dimming_server_nrf52840_xxAA_s140_6.1.1.dir/__/__/__/mesh/core/src/net_beacon.c.obj
 .text.tx_complete_cb
                0x0002ff00        0xe examples/experimental_dimming/dimming_server/CMakeFiles/light_switch_dimming_server_nrf52840_xxAA_s140_6.1.1.dir/__/__/__/mesh/core/src/net_beacon.c.obj
 .text.beacon_tx_timeout
                0x0002ff0e        0x4 examples/experimental_dimming/dimming_server/CMakeFiles/light_switch_dimming_server_nrf52840_xxAA_s140_6.1.1.dir/__/__/__/mesh/core/src/net_beacon.c.obj
 .text.is_valid_beacon_pkt.part.1
                0x0002ff12       0x30 examples/experimental_dimming/dimming_server/CMakeFiles/light_switch_dimming_server_nrf52840_xxAA_s140_6.1.1.dir/__/__/__/mesh/core/src/net_beacon.c.obj
 *fill*         0x0002ff42        0x2 
 .text.net_beacon_init
                0x0002ff44       0x7c examples/experimental_dimming/dimming_server/CMakeFiles/light_switch_dimming_server_nrf52840_xxAA_s140_6.1.1.dir/__/__/__/mesh/core/src/net_beacon.c.obj
                0x0002ff44                net_beacon_init
 .text.net_beacon_enable
                0x0002ffc0       0x28 examples/experimental_dimming/dimming_server/CMakeFiles/light_switch_dimming_server_nrf52840_xxAA_s140_6.1.1.dir/__/__/__/mesh/core/src/net_beacon.c.obj
                0x0002ffc0                net_beacon_enable
 .text.net_beacon_state_set
                0x0002ffe8       0x20 examples/experimental_dimming/dimming_server/CMakeFiles/light_switch_dimming_server_nrf52840_xxAA_s140_6.1.1.dir/__/__/__/mesh/core/src/net_beacon.c.obj
                0x0002ffe8                net_beacon_state_set
 .text.net_beacon_state_get
                0x00030008       0x24 examples/experimental_dimming/dimming_server/CMakeFiles/light_switch_dimming_server_nrf52840_xxAA_s140_6.1.1.dir/__/__/__/mesh/core/src/net_beacon.c.obj
                0x00030008                net_beacon_state_get
 .text.net_beacon_build
                0x0003002c       0x24 examples/experimental_dimming/dimming_server/CMakeFiles/light_switch_dimming_server_nrf52840_xxAA_s140_6.1.1.dir/__/__/__/mesh/core/src/net_beacon.c.obj
                0x0003002c                net_beacon_build
 .text.net_beacon_packet_in
                0x00030050      0x16c examples/experimental_dimming/dimming_server/CMakeFiles/light_switch_dimming_server_nrf52840_xxAA_s140_6.1.1.dir/__/__/__/mesh/core/src/net_beacon.c.obj
                0x00030050                net_beacon_packet_in
 .text.listeners_notify
                0x000301bc       0x4c examples/experimental_dimming/dimming_server/CMakeFiles/light_switch_dimming_server_nrf52840_xxAA_s140_6.1.1.dir/__/__/__/mesh/core/src/mesh_config.c.obj
 .text.entry_flags_get.isra.0
                0x00030208       0x1c examples/experimental_dimming/dimming_server/CMakeFiles/light_switch_dimming_server_nrf52840_xxAA_s140_6.1.1.dir/__/__/__/mesh/core/src/mesh_config.c.obj
 .text.entry_params_find
                0x00030224       0x38 examples/experimental_dimming/dimming_server/CMakeFiles/light_switch_dimming_server_nrf52840_xxAA_s140_6.1.1.dir/__/__/__/mesh/core/src/mesh_config.c.obj
 .text.restore_callback
                0x0003025c       0x66 examples/experimental_dimming/dimming_server/CMakeFiles/light_switch_dimming_server_nrf52840_xxAA_s140_6.1.1.dir/__/__/__/mesh/core/src/mesh_config.c.obj
 *fill*         0x000302c2        0x2 
 .text.dirty_entries_process
                0x000302c4       0xdc examples/experimental_dimming/dimming_server/CMakeFiles/light_switch_dimming_server_nrf52840_xxAA_s140_6.1.1.dir/__/__/__/mesh/core/src/mesh_config.c.obj
 .text.mesh_config_init
                0x000303a0       0xa0 examples/experimental_dimming/dimming_server/CMakeFiles/light_switch_dimming_server_nrf52840_xxAA_s140_6.1.1.dir/__/__/__/mesh/core/src/mesh_config.c.obj
                0x000303a0                mesh_config_init
 .text.mesh_config_load
                0x00030440        0xc examples/experimental_dimming/dimming_server/CMakeFiles/light_switch_dimming_server_nrf52840_xxAA_s140_6.1.1.dir/__/__/__/mesh/core/src/mesh_config.c.obj
                0x00030440                mesh_config_load
 .text.mesh_config_is_busy
                0x0003044c       0x34 examples/experimental_dimming/dimming_server/CMakeFiles/light_switch_dimming_server_nrf52840_xxAA_s140_6.1.1.dir/__/__/__/mesh/core/src/mesh_config.c.obj
                0x0003044c                mesh_config_is_busy
 .text.backend_evt_handler
                0x00030480       0x88 examples/experimental_dimming/dimming_server/CMakeFiles/light_switch_dimming_server_nrf52840_xxAA_s140_6.1.1.dir/__/__/__/mesh/core/src/mesh_config.c.obj
 .text.mesh_config_entry_set
                0x00030508       0x80 examples/experimental_dimming/dimming_server/CMakeFiles/light_switch_dimming_server_nrf52840_xxAA_s140_6.1.1.dir/__/__/__/mesh/core/src/mesh_config.c.obj
                0x00030508                mesh_config_entry_set
 .text.mesh_config_entry_get
                0x00030588       0x3c examples/experimental_dimming/dimming_server/CMakeFiles/light_switch_dimming_server_nrf52840_xxAA_s140_6.1.1.dir/__/__/__/mesh/core/src/mesh_config.c.obj
                0x00030588                mesh_config_entry_get
 .text.mesh_config_entry_delete
                0x000305c4       0x4a examples/experimental_dimming/dimming_server/CMakeFiles/light_switch_dimming_server_nrf52840_xxAA_s140_6.1.1.dir/__/__/__/mesh/core/src/mesh_config.c.obj
                0x000305c4                mesh_config_entry_delete
 *fill*         0x0003060e        0x2 
 .text.mesh_config_clear
                0x00030610       0x4c examples/experimental_dimming/dimming_server/CMakeFiles/light_switch_dimming_server_nrf52840_xxAA_s140_6.1.1.dir/__/__/__/mesh/core/src/mesh_config.c.obj
                0x00030610                mesh_config_clear
 .text.fsm_event_post_try
                0x0003065c       0xaa examples/experimental_dimming/dimming_server/CMakeFiles/light_switch_dimming_server_nrf52840_xxAA_s140_6.1.1.dir/__/__/__/mesh/core/src/fsm.c.obj
 .text.fsm_init
                0x00030706       0x66 examples/experimental_dimming/dimming_server/CMakeFiles/light_switch_dimming_server_nrf52840_xxAA_s140_6.1.1.dir/__/__/__/mesh/core/src/fsm.c.obj
                0x00030706                fsm_init
 .text.fsm_event_post
                0x0003076c       0x40 examples/experimental_dimming/dimming_server/CMakeFiles/light_switch_dimming_server_nrf52840_xxAA_s140_6.1.1.dir/__/__/__/mesh/core/src/fsm.c.obj
                0x0003076c                fsm_event_post
 .text.fsm_is_processing
                0x000307ac        0xa examples/experimental_dimming/dimming_server/CMakeFiles/light_switch_dimming_server_nrf52840_xxAA_s140_6.1.1.dir/__/__/__/mesh/core/src/fsm.c.obj
                0x000307ac                fsm_is_processing
 .text.dummy_event
                0x000307b6        0x2 examples/experimental_dimming/dimming_server/CMakeFiles/light_switch_dimming_server_nrf52840_xxAA_s140_6.1.1.dir/__/__/__/mesh/core/src/mesh_config_backend.c.obj
 .text.file_get
                0x000307b8       0x34 examples/experimental_dimming/dimming_server/CMakeFiles/light_switch_dimming_server_nrf52840_xxAA_s140_6.1.1.dir/__/__/__/mesh/core/src/mesh_config_backend.c.obj
 .text.mesh_config_backend_init
                0x000307ec      0x11c examples/experimental_dimming/dimming_server/CMakeFiles/light_switch_dimming_server_nrf52840_xxAA_s140_6.1.1.dir/__/__/__/mesh/core/src/mesh_config_backend.c.obj
                0x000307ec                mesh_config_backend_init
 .text.mesh_config_backend_store
                0x00030908       0x4e examples/experimental_dimming/dimming_server/CMakeFiles/light_switch_dimming_server_nrf52840_xxAA_s140_6.1.1.dir/__/__/__/mesh/core/src/mesh_config_backend.c.obj
                0x00030908                mesh_config_backend_store
 .text.mesh_config_backend_erase
                0x00030956       0x34 examples/experimental_dimming/dimming_server/CMakeFiles/light_switch_dimming_server_nrf52840_xxAA_s140_6.1.1.dir/__/__/__/mesh/core/src/mesh_config_backend.c.obj
                0x00030956                mesh_config_backend_erase
 *fill*         0x0003098a        0x2 
 .text.mesh_config_backend_read_all
                0x0003098c       0x38 examples/experimental_dimming/dimming_server/CMakeFiles/light_switch_dimming_server_nrf52840_xxAA_s140_6.1.1.dir/__/__/__/mesh/core/src/mesh_config_backend.c.obj
                0x0003098c                mesh_config_backend_read_all
 .text.entry_read_cb
                0x000309c4       0x38 examples/experimental_dimming/dimming_server/CMakeFiles/light_switch_dimming_server_nrf52840_xxAA_s140_6.1.1.dir/__/__/__/mesh/core/src/mesh_config_flashman_glue.c.obj
 .text.write_complete_cb
                0x000309fc       0x30 examples/experimental_dimming/dimming_server/CMakeFiles/light_switch_dimming_server_nrf52840_xxAA_s140_6.1.1.dir/__/__/__/mesh/core/src/mesh_config_flashman_glue.c.obj
 .text.invalidate_complete_cb
                0x00030a2c       0x2c examples/experimental_dimming/dimming_server/CMakeFiles/light_switch_dimming_server_nrf52840_xxAA_s140_6.1.1.dir/__/__/__/mesh/core/src/mesh_config_flashman_glue.c.obj
 .text.remove_complete_cb
                0x00030a58        0x2 examples/experimental_dimming/dimming_server/CMakeFiles/light_switch_dimming_server_nrf52840_xxAA_s140_6.1.1.dir/__/__/__/mesh/core/src/mesh_config_flashman_glue.c.obj
 .text.flash_stable_cb
                0x00030a5a       0x20 examples/experimental_dimming/dimming_server/CMakeFiles/light_switch_dimming_server_nrf52840_xxAA_s140_6.1.1.dir/__/__/__/mesh/core/src/mesh_config_flashman_glue.c.obj
 *fill*         0x00030a7a        0x2 
 .text.mesh_config_backend_glue_init
                0x00030a7c       0x28 examples/experimental_dimming/dimming_server/CMakeFiles/light_switch_dimming_server_nrf52840_xxAA_s140_6.1.1.dir/__/__/__/mesh/core/src/mesh_config_flashman_glue.c.obj
                0x00030a7c                mesh_config_backend_glue_init
 .text.mesh_config_backend_file_create
                0x00030aa4       0x58 examples/experimental_dimming/dimming_server/CMakeFiles/light_switch_dimming_server_nrf52840_xxAA_s140_6.1.1.dir/__/__/__/mesh/core/src/mesh_config_flashman_glue.c.obj
                0x00030aa4                mesh_config_backend_file_create
 .text.mesh_config_backend_record_write
                0x00030afc       0x2c examples/experimental_dimming/dimming_server/CMakeFiles/light_switch_dimming_server_nrf52840_xxAA_s140_6.1.1.dir/__/__/__/mesh/core/src/mesh_config_flashman_glue.c.obj
                0x00030afc                mesh_config_backend_record_write
 .text.mesh_config_backend_record_erase
                0x00030b28       0x30 examples/experimental_dimming/dimming_server/CMakeFiles/light_switch_dimming_server_nrf52840_xxAA_s140_6.1.1.dir/__/__/__/mesh/core/src/mesh_config_flashman_glue.c.obj
                0x00030b28                mesh_config_backend_record_erase
 .text.mesh_config_backend_records_read
                0x00030b58       0x30 examples/experimental_dimming/dimming_server/CMakeFiles/light_switch_dimming_server_nrf52840_xxAA_s140_6.1.1.dir/__/__/__/mesh/core/src/mesh_config_flashman_glue.c.obj
                0x00030b58                mesh_config_backend_records_read
 .text.mesh_config_record_size_calculate
                0x00030b88        0xa examples/experimental_dimming/dimming_server/CMakeFiles/light_switch_dimming_server_nrf52840_xxAA_s140_6.1.1.dir/__/__/__/mesh/core/src/mesh_config_flashman_glue.c.obj
                0x00030b88                mesh_config_record_size_calculate
 .text.mesh_config_backend_file_power_down_time_get
                0x00030b92       0x24 examples/experimental_dimming/dimming_server/CMakeFiles/light_switch_dimming_server_nrf52840_xxAA_s140_6.1.1.dir/__/__/__/mesh/core/src/mesh_config_flashman_glue.c.obj
                0x00030b92                mesh_config_backend_file_power_down_time_get
 *fill*         0x00030bb6        0x2 
 .text.packet_discard
                0x00030bb8       0x30 examples/experimental_dimming/dimming_server/CMakeFiles/light_switch_dimming_server_nrf52840_xxAA_s140_6.1.1.dir/__/__/__/mesh/core/src/core_tx_local.c.obj
 .text.packet_send
                0x00030be8       0x58 examples/experimental_dimming/dimming_server/CMakeFiles/light_switch_dimming_server_nrf52840_xxAA_s140_6.1.1.dir/__/__/__/mesh/core/src/core_tx_local.c.obj
 .text.loopback_process
                0x00030c40       0x64 examples/experimental_dimming/dimming_server/CMakeFiles/light_switch_dimming_server_nrf52840_xxAA_s140_6.1.1.dir/__/__/__/mesh/core/src/core_tx_local.c.obj
 .text.packet_alloc
                0x00030ca4       0x48 examples/experimental_dimming/dimming_server/CMakeFiles/light_switch_dimming_server_nrf52840_xxAA_s140_6.1.1.dir/__/__/__/mesh/core/src/core_tx_local.c.obj
 .text.core_tx_local_init
                0x00030cec       0x34 examples/experimental_dimming/dimming_server/CMakeFiles/light_switch_dimming_server_nrf52840_xxAA_s140_6.1.1.dir/__/__/__/mesh/core/src/core_tx_local.c.obj
                0x00030cec                core_tx_local_init
 .text.core_tx_adv_get
                0x00030d20       0x3c examples/experimental_dimming/dimming_server/CMakeFiles/light_switch_dimming_server_nrf52840_xxAA_s140_6.1.1.dir/__/__/__/mesh/core/src/core_tx_adv.c.obj
 .text.core_tx_tx_power_get
                0x00030d5c       0x30 examples/experimental_dimming/dimming_server/CMakeFiles/light_switch_dimming_server_nrf52840_xxAA_s140_6.1.1.dir/__/__/__/mesh/core/src/core_tx_adv.c.obj
 .text.core_tx_adv_delete
                0x00030d8c       0x50 examples/experimental_dimming/dimming_server/CMakeFiles/light_switch_dimming_server_nrf52840_xxAA_s140_6.1.1.dir/__/__/__/mesh/core/src/core_tx_adv.c.obj
 .text.core_tx_adv_set
                0x00030ddc       0x6c examples/experimental_dimming/dimming_server/CMakeFiles/light_switch_dimming_server_nrf52840_xxAA_s140_6.1.1.dir/__/__/__/mesh/core/src/core_tx_adv.c.obj
 .text.core_tx_tx_power_delete
                0x00030e48       0x30 examples/experimental_dimming/dimming_server/CMakeFiles/light_switch_dimming_server_nrf52840_xxAA_s140_6.1.1.dir/__/__/__/mesh/core/src/core_tx_adv.c.obj
 .text.core_tx_tx_power_set
                0x00030e78       0x34 examples/experimental_dimming/dimming_server/CMakeFiles/light_switch_dimming_server_nrf52840_xxAA_s140_6.1.1.dir/__/__/__/mesh/core/src/core_tx_adv.c.obj
 .text.core_tx_adv_addr_delete
                0x00030eac       0x34 examples/experimental_dimming/dimming_server/CMakeFiles/light_switch_dimming_server_nrf52840_xxAA_s140_6.1.1.dir/__/__/__/mesh/core/src/core_tx_adv.c.obj
 .text.core_tx_adv_addr_set
                0x00030ee0       0x40 examples/experimental_dimming/dimming_server/CMakeFiles/light_switch_dimming_server_nrf52840_xxAA_s140_6.1.1.dir/__/__/__/mesh/core/src/core_tx_adv.c.obj
 .text.core_tx_adv_addr_get
                0x00030f20       0x34 examples/experimental_dimming/dimming_server/CMakeFiles/light_switch_dimming_server_nrf52840_xxAA_s140_6.1.1.dir/__/__/__/mesh/core/src/core_tx_adv.c.obj
 .text.packet_discard
                0x00030f54       0x40 examples/experimental_dimming/dimming_server/CMakeFiles/light_switch_dimming_server_nrf52840_xxAA_s140_6.1.1.dir/__/__/__/mesh/core/src/core_tx_adv.c.obj
 .text.packet_send
                0x00030f94       0x58 examples/experimental_dimming/dimming_server/CMakeFiles/light_switch_dimming_server_nrf52840_xxAA_s140_6.1.1.dir/__/__/__/mesh/core/src/core_tx_adv.c.obj
 .text.packet_alloc
                0x00030fec       0x58 examples/experimental_dimming/dimming_server/CMakeFiles/light_switch_dimming_server_nrf52840_xxAA_s140_6.1.1.dir/__/__/__/mesh/core/src/core_tx_adv.c.obj
 .text.adv_tx_complete_callback
                0x00031044       0x20 examples/experimental_dimming/dimming_server/CMakeFiles/light_switch_dimming_server_nrf52840_xxAA_s140_6.1.1.dir/__/__/__/mesh/core/src/core_tx_adv.c.obj
 .text.mesh_opt_core_adv_set
                0x00031064       0x22 examples/experimental_dimming/dimming_server/CMakeFiles/light_switch_dimming_server_nrf52840_xxAA_s140_6.1.1.dir/__/__/__/mesh/core/src/core_tx_adv.c.obj
                0x00031064                mesh_opt_core_adv_set
 .text.mesh_opt_core_adv_get
                0x00031086       0x22 examples/experimental_dimming/dimming_server/CMakeFiles/light_switch_dimming_server_nrf52840_xxAA_s140_6.1.1.dir/__/__/__/mesh/core/src/core_tx_adv.c.obj
                0x00031086                mesh_opt_core_adv_get
 .text.core_tx_adv_init
                0x000310a8       0x60 examples/experimental_dimming/dimming_server/CMakeFiles/light_switch_dimming_server_nrf52840_xxAA_s140_6.1.1.dir/__/__/__/mesh/core/src/core_tx_adv.c.obj
                0x000310a8                core_tx_adv_init
 .text.core_tx_adv_is_enabled
                0x00031108       0x20 examples/experimental_dimming/dimming_server/CMakeFiles/light_switch_dimming_server_nrf52840_xxAA_s140_6.1.1.dir/__/__/__/mesh/core/src/core_tx_adv.c.obj
                0x00031108                core_tx_adv_is_enabled
 .text.mesh_mem_init
                0x00031128        0x2 examples/experimental_dimming/dimming_server/CMakeFiles/light_switch_dimming_server_nrf52840_xxAA_s140_6.1.1.dir/__/__/__/mesh/core/src/mesh_mem_stdlib.c.obj
                0x00031128                mesh_mem_init
 .text.mesh_mem_alloc
                0x0003112a        0x4 examples/experimental_dimming/dimming_server/CMakeFiles/light_switch_dimming_server_nrf52840_xxAA_s140_6.1.1.dir/__/__/__/mesh/core/src/mesh_mem_stdlib.c.obj
                0x0003112a                mesh_mem_alloc
 .text.mesh_mem_free
                0x0003112e        0x4 examples/experimental_dimming/dimming_server/CMakeFiles/light_switch_dimming_server_nrf52840_xxAA_s140_6.1.1.dir/__/__/__/mesh/core/src/mesh_mem_stdlib.c.obj
                0x0003112e                mesh_mem_free
 *fill*         0x00031132        0x2 
 .text.ad_listener_subscribe
                0x00031134       0x5c examples/experimental_dimming/dimming_server/CMakeFiles/light_switch_dimming_server_nrf52840_xxAA_s140_6.1.1.dir/__/__/__/mesh/bearer/src/ad_listener.c.obj
                0x00031134                ad_listener_subscribe
 .text.ad_listener_process
                0x00031190       0x68 examples/experimental_dimming/dimming_server/CMakeFiles/light_switch_dimming_server_nrf52840_xxAA_s140_6.1.1.dir/__/__/__/mesh/bearer/src/ad_listener.c.obj
                0x00031190                ad_listener_process
 .text.adtype_filter_handle
                0x000311f8       0x64 examples/experimental_dimming/dimming_server/CMakeFiles/light_switch_dimming_server_nrf52840_xxAA_s140_6.1.1.dir/__/__/__/mesh/bearer/src/ad_type_filter.c.obj
 .text.bearer_adtype_filtering_set
                0x0003125c       0x20 examples/experimental_dimming/dimming_server/CMakeFiles/light_switch_dimming_server_nrf52840_xxAA_s140_6.1.1.dir/__/__/__/mesh/bearer/src/ad_type_filter.c.obj
                0x0003125c                bearer_adtype_filtering_set
 .text.bearer_adtype_add
                0x0003127c       0x20 examples/experimental_dimming/dimming_server/CMakeFiles/light_switch_dimming_server_nrf52840_xxAA_s140_6.1.1.dir/__/__/__/mesh/bearer/src/ad_type_filter.c.obj
                0x0003127c                bearer_adtype_add
 .text.bearer_adtype_mode_set
                0x0003129c       0x18 examples/experimental_dimming/dimming_server/CMakeFiles/light_switch_dimming_server_nrf52840_xxAA_s140_6.1.1.dir/__/__/__/mesh/bearer/src/ad_type_filter.c.obj
                0x0003129c                bearer_adtype_mode_set
 .text.tx_complete_event_callback
                0x000312b4       0x24 examples/experimental_dimming/dimming_server/CMakeFiles/light_switch_dimming_server_nrf52840_xxAA_s140_6.1.1.dir/__/__/__/mesh/bearer/src/advertiser.c.obj
 .text.set_gap_addr_type
                0x000312d8       0x26 examples/experimental_dimming/dimming_server/CMakeFiles/light_switch_dimming_server_nrf52840_xxAA_s140_6.1.1.dir/__/__/__/mesh/bearer/src/advertiser.c.obj
 .text.broadcast_complete_cb
                0x000312fe       0x46 examples/experimental_dimming/dimming_server/CMakeFiles/light_switch_dimming_server_nrf52840_xxAA_s140_6.1.1.dir/__/__/__/mesh/bearer/src/advertiser.c.obj
 .text.schedule_first_time
                0x00031344       0x28 examples/experimental_dimming/dimming_server/CMakeFiles/light_switch_dimming_server_nrf52840_xxAA_s140_6.1.1.dir/__/__/__/mesh/bearer/src/advertiser.c.obj
 .text.timeout_event
                0x0003136c      0x114 examples/experimental_dimming/dimming_server/CMakeFiles/light_switch_dimming_server_nrf52840_xxAA_s140_6.1.1.dir/__/__/__/mesh/bearer/src/advertiser.c.obj
 .text.advertiser_init
                0x00031480        0xc examples/experimental_dimming/dimming_server/CMakeFiles/light_switch_dimming_server_nrf52840_xxAA_s140_6.1.1.dir/__/__/__/mesh/bearer/src/advertiser.c.obj
                0x00031480                advertiser_init
 .text.advertiser_enable
                0x0003148c       0x2a examples/experimental_dimming/dimming_server/CMakeFiles/light_switch_dimming_server_nrf52840_xxAA_s140_6.1.1.dir/__/__/__/mesh/bearer/src/advertiser.c.obj
                0x0003148c                advertiser_enable
 .text.advertiser_disable
                0x000314b6        0xa examples/experimental_dimming/dimming_server/CMakeFiles/light_switch_dimming_server_nrf52840_xxAA_s140_6.1.1.dir/__/__/__/mesh/bearer/src/advertiser.c.obj
                0x000314b6                advertiser_disable
 .text.advertiser_packet_alloc
                0x000314c0       0x76 examples/experimental_dimming/dimming_server/CMakeFiles/light_switch_dimming_server_nrf52840_xxAA_s140_6.1.1.dir/__/__/__/mesh/bearer/src/advertiser.c.obj
                0x000314c0                advertiser_packet_alloc
 .text.advertiser_packet_send
                0x00031536       0x52 examples/experimental_dimming/dimming_server/CMakeFiles/light_switch_dimming_server_nrf52840_xxAA_s140_6.1.1.dir/__/__/__/mesh/bearer/src/advertiser.c.obj
                0x00031536                advertiser_packet_send
 .text.advertiser_packet_discard
                0x00031588       0x1e examples/experimental_dimming/dimming_server/CMakeFiles/light_switch_dimming_server_nrf52840_xxAA_s140_6.1.1.dir/__/__/__/mesh/bearer/src/advertiser.c.obj
                0x00031588                advertiser_packet_discard
 .text.advertiser_address_set
                0x000315a6       0x3c examples/experimental_dimming/dimming_server/CMakeFiles/light_switch_dimming_server_nrf52840_xxAA_s140_6.1.1.dir/__/__/__/mesh/bearer/src/advertiser.c.obj
                0x000315a6                advertiser_address_set
 .text.advertiser_interval_set
                0x000315e2       0x40 examples/experimental_dimming/dimming_server/CMakeFiles/light_switch_dimming_server_nrf52840_xxAA_s140_6.1.1.dir/__/__/__/mesh/bearer/src/advertiser.c.obj
                0x000315e2                advertiser_interval_set
 .text.advertiser_tx_power_set
                0x00031622       0x14 examples/experimental_dimming/dimming_server/CMakeFiles/light_switch_dimming_server_nrf52840_xxAA_s140_6.1.1.dir/__/__/__/mesh/bearer/src/advertiser.c.obj
                0x00031622                advertiser_tx_power_set
 .text.advertiser_flush
                0x00031636       0x1e examples/experimental_dimming/dimming_server/CMakeFiles/light_switch_dimming_server_nrf52840_xxAA_s140_6.1.1.dir/__/__/__/mesh/bearer/src/advertiser.c.obj
                0x00031636                advertiser_flush
 .text.advertiser_address_default_get
                0x00031654       0x38 examples/experimental_dimming/dimming_server/CMakeFiles/light_switch_dimming_server_nrf52840_xxAA_s140_6.1.1.dir/__/__/__/mesh/bearer/src/advertiser.c.obj
                0x00031654                advertiser_address_default_get
 .text.advertiser_instance_init
                0x0003168c       0x98 examples/experimental_dimming/dimming_server/CMakeFiles/light_switch_dimming_server_nrf52840_xxAA_s140_6.1.1.dir/__/__/__/mesh/bearer/src/advertiser.c.obj
                0x0003168c                advertiser_instance_init
 .text.notify_stop
                0x00031724       0x14 examples/experimental_dimming/dimming_server/CMakeFiles/light_switch_dimming_server_nrf52840_xxAA_s140_6.1.1.dir/__/__/__/mesh/bearer/src/bearer_handler.c.obj
 .text.action_in_progress
                0x00031738       0x30 examples/experimental_dimming/dimming_server/CMakeFiles/light_switch_dimming_server_nrf52840_xxAA_s140_6.1.1.dir/__/__/__/mesh/bearer/src/bearer_handler.c.obj
 .text.action_timer_start
                0x00031768       0x88 examples/experimental_dimming/dimming_server/CMakeFiles/light_switch_dimming_server_nrf52840_xxAA_s140_6.1.1.dir/__/__/__/mesh/bearer/src/bearer_handler.c.obj
 .text.action_switch
                0x000317f0      0x104 examples/experimental_dimming/dimming_server/CMakeFiles/light_switch_dimming_server_nrf52840_xxAA_s140_6.1.1.dir/__/__/__/mesh/bearer/src/bearer_handler.c.obj
 .text.end_handle
                0x000318f4       0x44 examples/experimental_dimming/dimming_server/CMakeFiles/light_switch_dimming_server_nrf52840_xxAA_s140_6.1.1.dir/__/__/__/mesh/bearer/src/bearer_handler.c.obj
 .text.TIMER2_IRQHandler
                0x00031938       0x58 examples/experimental_dimming/dimming_server/CMakeFiles/light_switch_dimming_server_nrf52840_xxAA_s140_6.1.1.dir/__/__/__/mesh/bearer/src/bearer_handler.c.obj
                0x00031938                TIMER2_IRQHandler
 .text.bearer_handler_init
                0x00031990       0x44 examples/experimental_dimming/dimming_server/CMakeFiles/light_switch_dimming_server_nrf52840_xxAA_s140_6.1.1.dir/__/__/__/mesh/bearer/src/bearer_handler.c.obj
                0x00031990                bearer_handler_init
 .text.bearer_handler_stop
                0x000319d4       0x48 examples/experimental_dimming/dimming_server/CMakeFiles/light_switch_dimming_server_nrf52840_xxAA_s140_6.1.1.dir/__/__/__/mesh/bearer/src/bearer_handler.c.obj
                0x000319d4                bearer_handler_stop
 .text.bearer_handler_wake_up
                0x00031a1c       0x2c examples/experimental_dimming/dimming_server/CMakeFiles/light_switch_dimming_server_nrf52840_xxAA_s140_6.1.1.dir/__/__/__/mesh/bearer/src/bearer_handler.c.obj
                0x00031a1c                bearer_handler_wake_up
 .text.bearer_handler_start
                0x00031a48       0x1c examples/experimental_dimming/dimming_server/CMakeFiles/light_switch_dimming_server_nrf52840_xxAA_s140_6.1.1.dir/__/__/__/mesh/bearer/src/bearer_handler.c.obj
                0x00031a48                bearer_handler_start
 .text.bearer_handler_action_enqueue
                0x00031a64       0x6c examples/experimental_dimming/dimming_server/CMakeFiles/light_switch_dimming_server_nrf52840_xxAA_s140_6.1.1.dir/__/__/__/mesh/bearer/src/bearer_handler.c.obj
                0x00031a64                bearer_handler_action_enqueue
 .text.bearer_handler_action_end
                0x00031ad0       0x48 examples/experimental_dimming/dimming_server/CMakeFiles/light_switch_dimming_server_nrf52840_xxAA_s140_6.1.1.dir/__/__/__/mesh/bearer/src/bearer_handler.c.obj
                0x00031ad0                bearer_handler_action_end
 .text.bearer_handler_radio_irq_handler
                0x00031b18       0x70 examples/experimental_dimming/dimming_server/CMakeFiles/light_switch_dimming_server_nrf52840_xxAA_s140_6.1.1.dir/__/__/__/mesh/bearer/src/bearer_handler.c.obj
                0x00031b18                bearer_handler_radio_irq_handler
 .text.bearer_handler_timer_irq_handler
                0x00031b88       0x34 examples/experimental_dimming/dimming_server/CMakeFiles/light_switch_dimming_server_nrf52840_xxAA_s140_6.1.1.dir/__/__/__/mesh/bearer/src/bearer_handler.c.obj
                0x00031b88                bearer_handler_timer_irq_handler
 .text.bearer_handler_on_ts_begin
                0x00031bbc       0x38 examples/experimental_dimming/dimming_server/CMakeFiles/light_switch_dimming_server_nrf52840_xxAA_s140_6.1.1.dir/__/__/__/mesh/bearer/src/bearer_handler.c.obj
                0x00031bbc                bearer_handler_on_ts_begin
 .text.bearer_handler_on_ts_end
                0x00031bf4       0x70 examples/experimental_dimming/dimming_server/CMakeFiles/light_switch_dimming_server_nrf52840_xxAA_s140_6.1.1.dir/__/__/__/mesh/bearer/src/bearer_handler.c.obj
                0x00031bf4                bearer_handler_on_ts_end
 .text.bearer_handler_on_ts_session_closed
                0x00031c64       0x10 examples/experimental_dimming/dimming_server/CMakeFiles/light_switch_dimming_server_nrf52840_xxAA_s140_6.1.1.dir/__/__/__/mesh/bearer/src/bearer_handler.c.obj
                0x00031c64                bearer_handler_on_ts_session_closed
 .text.radio_irq_handler
                0x00031c74       0xa4 examples/experimental_dimming/dimming_server/CMakeFiles/light_switch_dimming_server_nrf52840_xxAA_s140_6.1.1.dir/__/__/__/mesh/bearer/src/broadcast.c.obj
 .text.broadcast_start
                0x00031d18       0xb4 examples/experimental_dimming/dimming_server/CMakeFiles/light_switch_dimming_server_nrf52840_xxAA_s140_6.1.1.dir/__/__/__/mesh/bearer/src/broadcast.c.obj
 .text.broadcast_send
                0x00031dcc       0x6c examples/experimental_dimming/dimming_server/CMakeFiles/light_switch_dimming_server_nrf52840_xxAA_s140_6.1.1.dir/__/__/__/mesh/bearer/src/broadcast.c.obj
                0x00031dcc                broadcast_send
 .text.fen_filter_start
                0x00031e38       0x3c examples/experimental_dimming/dimming_server/CMakeFiles/light_switch_dimming_server_nrf52840_xxAA_s140_6.1.1.dir/__/__/__/mesh/bearer/src/filter_engine.c.obj
                0x00031e38                fen_filter_start
 .text.fen_filter_stop
                0x00031e74       0x30 examples/experimental_dimming/dimming_server/CMakeFiles/light_switch_dimming_server_nrf52840_xxAA_s140_6.1.1.dir/__/__/__/mesh/bearer/src/filter_engine.c.obj
                0x00031e74                fen_filter_stop
 .text.fen_filters_apply
                0x00031ea4       0x44 examples/experimental_dimming/dimming_server/CMakeFiles/light_switch_dimming_server_nrf52840_xxAA_s140_6.1.1.dir/__/__/__/mesh/bearer/src/filter_engine.c.obj
                0x00031ea4                fen_filters_apply
 .text.radio_config_reset
                0x00031ee8       0x40 examples/experimental_dimming/dimming_server/CMakeFiles/light_switch_dimming_server_nrf52840_xxAA_s140_6.1.1.dir/__/__/__/mesh/bearer/src/radio_config.c.obj
                0x00031ee8                radio_config_reset
 .text.radio_config_channel_set
                0x00031f28       0x28 examples/experimental_dimming/dimming_server/CMakeFiles/light_switch_dimming_server_nrf52840_xxAA_s140_6.1.1.dir/__/__/__/mesh/bearer/src/radio_config.c.obj
                0x00031f28                radio_config_channel_set
 .text.radio_config_config
                0x00031f50       0x8c examples/experimental_dimming/dimming_server/CMakeFiles/light_switch_dimming_server_nrf52840_xxAA_s140_6.1.1.dir/__/__/__/mesh/bearer/src/radio_config.c.obj
                0x00031f50                radio_config_config
 .text.radio_config_access_addr_set
                0x00031fdc       0x50 examples/experimental_dimming/dimming_server/CMakeFiles/light_switch_dimming_server_nrf52840_xxAA_s140_6.1.1.dir/__/__/__/mesh/bearer/src/radio_config.c.obj
                0x00031fdc                radio_config_access_addr_set
 .text.radio_trigger
                0x0003202c       0x24 examples/experimental_dimming/dimming_server/CMakeFiles/light_switch_dimming_server_nrf52840_xxAA_s140_6.1.1.dir/__/__/__/mesh/bearer/src/scanner.c.obj
 .text.scan_window_end
                0x00032050       0x10 examples/experimental_dimming/dimming_server/CMakeFiles/light_switch_dimming_server_nrf52840_xxAA_s140_6.1.1.dir/__/__/__/mesh/bearer/src/scanner.c.obj
 .text.scan_window_start
                0x00032060       0x24 examples/experimental_dimming/dimming_server/CMakeFiles/light_switch_dimming_server_nrf52840_xxAA_s140_6.1.1.dir/__/__/__/mesh/bearer/src/scanner.c.obj
 .text.radio_configure
                0x00032084       0x78 examples/experimental_dimming/dimming_server/CMakeFiles/light_switch_dimming_server_nrf52840_xxAA_s140_6.1.1.dir/__/__/__/mesh/bearer/src/scanner.c.obj
 .text.radio_set_packet
                0x000320fc       0x4c examples/experimental_dimming/dimming_server/CMakeFiles/light_switch_dimming_server_nrf52840_xxAA_s140_6.1.1.dir/__/__/__/mesh/bearer/src/scanner.c.obj
 .text.radio_start
                0x00032148       0x78 examples/experimental_dimming/dimming_server/CMakeFiles/light_switch_dimming_server_nrf52840_xxAA_s140_6.1.1.dir/__/__/__/mesh/bearer/src/scanner.c.obj
 .text.radio_stop
                0x000321c0       0x38 examples/experimental_dimming/dimming_server/CMakeFiles/light_switch_dimming_server_nrf52840_xxAA_s140_6.1.1.dir/__/__/__/mesh/bearer/src/scanner.c.obj
 .text.schedule_timers
                0x000321f8       0x38 examples/experimental_dimming/dimming_server/CMakeFiles/light_switch_dimming_server_nrf52840_xxAA_s140_6.1.1.dir/__/__/__/mesh/bearer/src/scanner.c.obj
 .text.scanner_radio_start
                0x00032230       0x28 examples/experimental_dimming/dimming_server/CMakeFiles/light_switch_dimming_server_nrf52840_xxAA_s140_6.1.1.dir/__/__/__/mesh/bearer/src/scanner.c.obj
                0x00032230                scanner_radio_start
 .text.scanner_radio_stop
                0x00032258       0x10 examples/experimental_dimming/dimming_server/CMakeFiles/light_switch_dimming_server_nrf52840_xxAA_s140_6.1.1.dir/__/__/__/mesh/bearer/src/scanner.c.obj
                0x00032258                scanner_radio_stop
 .text.scanner_radio_irq_handler
                0x00032268      0x144 examples/experimental_dimming/dimming_server/CMakeFiles/light_switch_dimming_server_nrf52840_xxAA_s140_6.1.1.dir/__/__/__/mesh/bearer/src/scanner.c.obj
                0x00032268                scanner_radio_irq_handler
 .text.scanner_timer_irq_handler
                0x000323ac       0x30 examples/experimental_dimming/dimming_server/CMakeFiles/light_switch_dimming_server_nrf52840_xxAA_s140_6.1.1.dir/__/__/__/mesh/bearer/src/scanner.c.obj
                0x000323ac                scanner_timer_irq_handler
 .text.scanner_enable
                0x000323dc       0x2c examples/experimental_dimming/dimming_server/CMakeFiles/light_switch_dimming_server_nrf52840_xxAA_s140_6.1.1.dir/__/__/__/mesh/bearer/src/scanner.c.obj
                0x000323dc                scanner_enable
 .text.scanner_is_enabled
                0x00032408       0x10 examples/experimental_dimming/dimming_server/CMakeFiles/light_switch_dimming_server_nrf52840_xxAA_s140_6.1.1.dir/__/__/__/mesh/bearer/src/scanner.c.obj
                0x00032408                scanner_is_enabled
 .text.scanner_packet_release
                0x00032418       0x2c examples/experimental_dimming/dimming_server/CMakeFiles/light_switch_dimming_server_nrf52840_xxAA_s140_6.1.1.dir/__/__/__/mesh/bearer/src/scanner.c.obj
                0x00032418                scanner_packet_release
 .text.scanner_rx
                0x00032444       0x34 examples/experimental_dimming/dimming_server/CMakeFiles/light_switch_dimming_server_nrf52840_xxAA_s140_6.1.1.dir/__/__/__/mesh/bearer/src/scanner.c.obj
                0x00032444                scanner_rx
 .text.scanner_rx_pending
                0x00032478        0xc examples/experimental_dimming/dimming_server/CMakeFiles/light_switch_dimming_server_nrf52840_xxAA_s140_6.1.1.dir/__/__/__/mesh/bearer/src/scanner.c.obj
                0x00032478                scanner_rx_pending
 .text.scanner_config_scan_time_set
                0x00032484       0x4c examples/experimental_dimming/dimming_server/CMakeFiles/light_switch_dimming_server_nrf52840_xxAA_s140_6.1.1.dir/__/__/__/mesh/bearer/src/scanner.c.obj
                0x00032484                scanner_config_scan_time_set
 .text.scanner_config_channels_set
                0x000324d0       0x50 examples/experimental_dimming/dimming_server/CMakeFiles/light_switch_dimming_server_nrf52840_xxAA_s140_6.1.1.dir/__/__/__/mesh/bearer/src/scanner.c.obj
                0x000324d0                scanner_config_channels_set
 .text.scanner_config_access_addresses_set
                0x00032520       0x38 examples/experimental_dimming/dimming_server/CMakeFiles/light_switch_dimming_server_nrf52840_xxAA_s140_6.1.1.dir/__/__/__/mesh/bearer/src/scanner.c.obj
                0x00032520                scanner_config_access_addresses_set
 .text.scanner_config_reset
                0x00032558       0x50 examples/experimental_dimming/dimming_server/CMakeFiles/light_switch_dimming_server_nrf52840_xxAA_s140_6.1.1.dir/__/__/__/mesh/bearer/src/scanner.c.obj
                0x00032558                scanner_config_reset
 .text.scanner_init
                0x000325a8       0x54 examples/experimental_dimming/dimming_server/CMakeFiles/light_switch_dimming_server_nrf52840_xxAA_s140_6.1.1.dir/__/__/__/mesh/bearer/src/scanner.c.obj
                0x000325a8                scanner_init
 .text.pin_clear
                0x000325fc       0x24 examples/experimental_dimming/dimming_server/CMakeFiles/light_switch_dimming_server_nrf52840_xxAA_s140_6.1.1.dir/__/__/__/mesh/bearer/src/mesh_pa_lna.c.obj
 .text.ppi_setup.isra.0
                0x00032620       0x3c examples/experimental_dimming/dimming_server/CMakeFiles/light_switch_dimming_server_nrf52840_xxAA_s140_6.1.1.dir/__/__/__/mesh/bearer/src/mesh_pa_lna.c.obj
 .text.mesh_pa_setup_start
                0x0003265c       0x5c examples/experimental_dimming/dimming_server/CMakeFiles/light_switch_dimming_server_nrf52840_xxAA_s140_6.1.1.dir/__/__/__/mesh/bearer/src/mesh_pa_lna.c.obj
                0x0003265c                mesh_pa_setup_start
 .text.mesh_lna_setup_start
                0x000326b8       0x5c examples/experimental_dimming/dimming_server/CMakeFiles/light_switch_dimming_server_nrf52840_xxAA_s140_6.1.1.dir/__/__/__/mesh/bearer/src/mesh_pa_lna.c.obj
                0x000326b8                mesh_lna_setup_start
 .text.mesh_pa_lna_disable_start
                0x00032714       0x1c examples/experimental_dimming/dimming_server/CMakeFiles/light_switch_dimming_server_nrf52840_xxAA_s140_6.1.1.dir/__/__/__/mesh/bearer/src/mesh_pa_lna.c.obj
                0x00032714                mesh_pa_lna_disable_start
 .text.mesh_pa_lna_setup_stop
                0x00032730       0x4c examples/experimental_dimming/dimming_server/CMakeFiles/light_switch_dimming_server_nrf52840_xxAA_s140_6.1.1.dir/__/__/__/mesh/bearer/src/mesh_pa_lna.c.obj
                0x00032730                mesh_pa_lna_setup_stop
 .text.mesh_pa_lna_cleanup
                0x0003277c       0x48 examples/experimental_dimming/dimming_server/CMakeFiles/light_switch_dimming_server_nrf52840_xxAA_s140_6.1.1.dir/__/__/__/mesh/bearer/src/mesh_pa_lna.c.obj
                0x0003277c                mesh_pa_lna_cleanup
 .text.sd_ble_gap_disconnect
                0x000327c4        0x4 examples/experimental_dimming/dimming_server/CMakeFiles/light_switch_dimming_server_nrf52840_xxAA_s140_6.1.1.dir/__/__/__/mesh/gatt/src/mesh_gatt.c.obj
 .text.sd_ble_gap_sec_params_reply
                0x000327c8        0x4 examples/experimental_dimming/dimming_server/CMakeFiles/light_switch_dimming_server_nrf52840_xxAA_s140_6.1.1.dir/__/__/__/mesh/gatt/src/mesh_gatt.c.obj
 .text.sd_ble_gap_phy_update
                0x000327cc        0x4 examples/experimental_dimming/dimming_server/CMakeFiles/light_switch_dimming_server_nrf52840_xxAA_s140_6.1.1.dir/__/__/__/mesh/gatt/src/mesh_gatt.c.obj
 .text.sd_ble_gap_data_length_update
                0x000327d0        0x4 examples/experimental_dimming/dimming_server/CMakeFiles/light_switch_dimming_server_nrf52840_xxAA_s140_6.1.1.dir/__/__/__/mesh/gatt/src/mesh_gatt.c.obj
 .text.sd_ble_gatts_service_add
                0x000327d4        0x4 examples/experimental_dimming/dimming_server/CMakeFiles/light_switch_dimming_server_nrf52840_xxAA_s140_6.1.1.dir/__/__/__/mesh/gatt/src/mesh_gatt.c.obj
 .text.sd_ble_gatts_characteristic_add
                0x000327d8        0x4 examples/experimental_dimming/dimming_server/CMakeFiles/light_switch_dimming_server_nrf52840_xxAA_s140_6.1.1.dir/__/__/__/mesh/gatt/src/mesh_gatt.c.obj
 .text.sd_ble_gatts_hvx
                0x000327dc        0x4 examples/experimental_dimming/dimming_server/CMakeFiles/light_switch_dimming_server_nrf52840_xxAA_s140_6.1.1.dir/__/__/__/mesh/gatt/src/mesh_gatt.c.obj
 .text.sd_ble_gatts_sys_attr_set
                0x000327e0        0x4 examples/experimental_dimming/dimming_server/CMakeFiles/light_switch_dimming_server_nrf52840_xxAA_s140_6.1.1.dir/__/__/__/mesh/gatt/src/mesh_gatt.c.obj
 .text.sd_ble_gatts_exchange_mtu_reply
                0x000327e4        0x4 examples/experimental_dimming/dimming_server/CMakeFiles/light_switch_dimming_server_nrf52840_xxAA_s140_6.1.1.dir/__/__/__/mesh/gatt/src/mesh_gatt.c.obj
 .text.timeout_cb
                0x000327e8       0x1c examples/experimental_dimming/dimming_server/CMakeFiles/light_switch_dimming_server_nrf52840_xxAA_s140_6.1.1.dir/__/__/__/mesh/gatt/src/mesh_gatt.c.obj
 .text.mesh_gatt_init
                0x00032804      0x14c examples/experimental_dimming/dimming_server/CMakeFiles/light_switch_dimming_server_nrf52840_xxAA_s140_6.1.1.dir/__/__/__/mesh/gatt/src/mesh_gatt.c.obj
                0x00032804                mesh_gatt_init
 .text.mesh_gatt_packet_alloc
                0x00032950       0x7c examples/experimental_dimming/dimming_server/CMakeFiles/light_switch_dimming_server_nrf52840_xxAA_s140_6.1.1.dir/__/__/__/mesh/gatt/src/mesh_gatt.c.obj
                0x00032950                mesh_gatt_packet_alloc
 .text.mesh_gatt_packet_discard
                0x000329cc       0x4c examples/experimental_dimming/dimming_server/CMakeFiles/light_switch_dimming_server_nrf52840_xxAA_s140_6.1.1.dir/__/__/__/mesh/gatt/src/mesh_gatt.c.obj
                0x000329cc                mesh_gatt_packet_discard
 .text.mesh_gatt_packet_is_pending
                0x00032a18       0x20 examples/experimental_dimming/dimming_server/CMakeFiles/light_switch_dimming_server_nrf52840_xxAA_s140_6.1.1.dir/__/__/__/mesh/gatt/src/mesh_gatt.c.obj
                0x00032a18                mesh_gatt_packet_is_pending
 .text.mesh_gatt_disconnect
                0x00032a38       0x30 examples/experimental_dimming/dimming_server/CMakeFiles/light_switch_dimming_server_nrf52840_xxAA_s140_6.1.1.dir/__/__/__/mesh/gatt/src/mesh_gatt.c.obj
                0x00032a38                mesh_gatt_disconnect
 .text.mesh_gatt_pdu_send
                0x00032a68      0x170 examples/experimental_dimming/dimming_server/CMakeFiles/light_switch_dimming_server_nrf52840_xxAA_s140_6.1.1.dir/__/__/__/mesh/gatt/src/mesh_gatt.c.obj
 .text.mesh_gatt_packet_send
                0x00032bd8       0x88 examples/experimental_dimming/dimming_server/CMakeFiles/light_switch_dimming_server_nrf52840_xxAA_s140_6.1.1.dir/__/__/__/mesh/gatt/src/mesh_gatt.c.obj
                0x00032bd8                mesh_gatt_packet_send
 .text.mesh_gatt_on_ble_evt
                0x00032c60      0x3b0 examples/experimental_dimming/dimming_server/CMakeFiles/light_switch_dimming_server_nrf52840_xxAA_s140_6.1.1.dir/__/__/__/mesh/gatt/src/mesh_gatt.c.obj
                0x00032c60                mesh_gatt_on_ble_evt
 .text.active_connection_count
                0x00033010        0xc examples/experimental_dimming/dimming_server/CMakeFiles/light_switch_dimming_server_nrf52840_xxAA_s140_6.1.1.dir/__/__/__/mesh/gatt/src/proxy.c.obj
 .text.proxy_get
                0x0003301c       0x10 examples/experimental_dimming/dimming_server/CMakeFiles/light_switch_dimming_server_nrf52840_xxAA_s140_6.1.1.dir/__/__/__/mesh/gatt/src/proxy.c.obj
 .text.proxy_delete
                0x0003302c       0x10 examples/experimental_dimming/dimming_server/CMakeFiles/light_switch_dimming_server_nrf52840_xxAA_s140_6.1.1.dir/__/__/__/mesh/gatt/src/proxy.c.obj
 .text.packet_discard
                0x0003303c       0x30 examples/experimental_dimming/dimming_server/CMakeFiles/light_switch_dimming_server_nrf52840_xxAA_s140_6.1.1.dir/__/__/__/mesh/gatt/src/proxy.c.obj
 .text.core_tx_packet_discard_cb
                0x0003306c       0x18 examples/experimental_dimming/dimming_server/CMakeFiles/light_switch_dimming_server_nrf52840_xxAA_s140_6.1.1.dir/__/__/__/mesh/gatt/src/proxy.c.obj
 .text.packet_send
                0x00033084       0x3c examples/experimental_dimming/dimming_server/CMakeFiles/light_switch_dimming_server_nrf52840_xxAA_s140_6.1.1.dir/__/__/__/mesh/gatt/src/proxy.c.obj
 .text.core_tx_packet_send_cb
                0x000330c0       0x38 examples/experimental_dimming/dimming_server/CMakeFiles/light_switch_dimming_server_nrf52840_xxAA_s140_6.1.1.dir/__/__/__/mesh/gatt/src/proxy.c.obj
 .text.packet_alloc
                0x000330f8       0x44 examples/experimental_dimming/dimming_server/CMakeFiles/light_switch_dimming_server_nrf52840_xxAA_s140_6.1.1.dir/__/__/__/mesh/gatt/src/proxy.c.obj
 .text.core_tx_packet_alloc_cb
                0x0003313c       0x40 examples/experimental_dimming/dimming_server/CMakeFiles/light_switch_dimming_server_nrf52840_xxAA_s140_6.1.1.dir/__/__/__/mesh/gatt/src/proxy.c.obj
 .text.adv_data_set
                0x0003317c       0xa4 examples/experimental_dimming/dimming_server/CMakeFiles/light_switch_dimming_server_nrf52840_xxAA_s140_6.1.1.dir/__/__/__/mesh/gatt/src/proxy.c.obj
 .text.on_adv_end
                0x00033220       0x14 examples/experimental_dimming/dimming_server/CMakeFiles/light_switch_dimming_server_nrf52840_xxAA_s140_6.1.1.dir/__/__/__/mesh/gatt/src/proxy.c.obj
 .text.has_pending_packets
                0x00033234       0x14 examples/experimental_dimming/dimming_server/CMakeFiles/light_switch_dimming_server_nrf52840_xxAA_s140_6.1.1.dir/__/__/__/mesh/gatt/src/proxy.c.obj
 .text.adv_net_iterate
                0x00033248       0x34 examples/experimental_dimming/dimming_server/CMakeFiles/light_switch_dimming_server_nrf52840_xxAA_s140_6.1.1.dir/__/__/__/mesh/gatt/src/proxy.c.obj
 .text.adv_timer_handler
                0x0003327c        0xe examples/experimental_dimming/dimming_server/CMakeFiles/light_switch_dimming_server_nrf52840_xxAA_s140_6.1.1.dir/__/__/__/mesh/gatt/src/proxy.c.obj
 *fill*         0x0003328a        0x2 
 .text.adv_start
                0x0003328c       0x5c examples/experimental_dimming/dimming_server/CMakeFiles/light_switch_dimming_server_nrf52840_xxAA_s140_6.1.1.dir/__/__/__/mesh/gatt/src/proxy.c.obj
 .text.proxy_set
                0x000332e8       0x3c examples/experimental_dimming/dimming_server/CMakeFiles/light_switch_dimming_server_nrf52840_xxAA_s140_6.1.1.dir/__/__/__/mesh/gatt/src/proxy.c.obj
 .text.beacon_packet_send_to_all
                0x00033324       0x54 examples/experimental_dimming/dimming_server/CMakeFiles/light_switch_dimming_server_nrf52840_xxAA_s140_6.1.1.dir/__/__/__/mesh/gatt/src/proxy.c.obj
 .text.mesh_evt_handle
                0x00033378       0x3c examples/experimental_dimming/dimming_server/CMakeFiles/light_switch_dimming_server_nrf52840_xxAA_s140_6.1.1.dir/__/__/__/mesh/gatt/src/proxy.c.obj
 .text.proxy_init
                0x000333b4       0x84 examples/experimental_dimming/dimming_server/CMakeFiles/light_switch_dimming_server_nrf52840_xxAA_s140_6.1.1.dir/__/__/__/mesh/gatt/src/proxy.c.obj
                0x000333b4                proxy_init
 .text.proxy_start
                0x00033438       0x38 examples/experimental_dimming/dimming_server/CMakeFiles/light_switch_dimming_server_nrf52840_xxAA_s140_6.1.1.dir/__/__/__/mesh/gatt/src/proxy.c.obj
                0x00033438                proxy_start
 .text.proxy_subnet_added
                0x00033470       0x58 examples/experimental_dimming/dimming_server/CMakeFiles/light_switch_dimming_server_nrf52840_xxAA_s140_6.1.1.dir/__/__/__/mesh/gatt/src/proxy.c.obj
                0x00033470                proxy_subnet_added
 .text.proxy_net_packet_processed
                0x000334c8       0x40 examples/experimental_dimming/dimming_server/CMakeFiles/light_switch_dimming_server_nrf52840_xxAA_s140_6.1.1.dir/__/__/__/mesh/gatt/src/proxy.c.obj
                0x000334c8                proxy_net_packet_processed
 .text.proxy_node_id_is_enabled
                0x00033508       0x2c examples/experimental_dimming/dimming_server/CMakeFiles/light_switch_dimming_server_nrf52840_xxAA_s140_6.1.1.dir/__/__/__/mesh/gatt/src/proxy.c.obj
                0x00033508                proxy_node_id_is_enabled
 .text.proxy_is_enabled
                0x00033534        0xc examples/experimental_dimming/dimming_server/CMakeFiles/light_switch_dimming_server_nrf52840_xxAA_s140_6.1.1.dir/__/__/__/mesh/gatt/src/proxy.c.obj
                0x00033534                proxy_is_enabled
 .text.proxy_is_connected
                0x00033540       0x18 examples/experimental_dimming/dimming_server/CMakeFiles/light_switch_dimming_server_nrf52840_xxAA_s140_6.1.1.dir/__/__/__/mesh/gatt/src/proxy.c.obj
                0x00033540                proxy_is_connected
 .text.proxy_disconnect
                0x00033558       0x1c examples/experimental_dimming/dimming_server/CMakeFiles/light_switch_dimming_server_nrf52840_xxAA_s140_6.1.1.dir/__/__/__/mesh/gatt/src/proxy.c.obj
                0x00033558                proxy_disconnect
 .text.gatt_evt_handler
                0x00033574      0x698 examples/experimental_dimming/dimming_server/CMakeFiles/light_switch_dimming_server_nrf52840_xxAA_s140_6.1.1.dir/__/__/__/mesh/gatt/src/proxy.c.obj
 .text.proxy_stop
                0x00033c0c       0x68 examples/experimental_dimming/dimming_server/CMakeFiles/light_switch_dimming_server_nrf52840_xxAA_s140_6.1.1.dir/__/__/__/mesh/gatt/src/proxy.c.obj
                0x00033c0c                proxy_stop
 .text.proxy_node_id_enable
                0x00033c74       0x2c examples/experimental_dimming/dimming_server/CMakeFiles/light_switch_dimming_server_nrf52840_xxAA_s140_6.1.1.dir/__/__/__/mesh/gatt/src/proxy.c.obj
                0x00033c74                proxy_node_id_enable
 .text.proxy_node_id_disable
                0x00033ca0       0x30 examples/experimental_dimming/dimming_server/CMakeFiles/light_switch_dimming_server_nrf52840_xxAA_s140_6.1.1.dir/__/__/__/mesh/gatt/src/proxy.c.obj
                0x00033ca0                proxy_node_id_disable
 .text.mesh_opt_gatt_proxy_set
                0x00033cd0       0x1c examples/experimental_dimming/dimming_server/CMakeFiles/light_switch_dimming_server_nrf52840_xxAA_s140_6.1.1.dir/__/__/__/mesh/gatt/src/proxy.c.obj
                0x00033cd0                mesh_opt_gatt_proxy_set
 .text.proxy_filter_clear
                0x00033cec       0x18 examples/experimental_dimming/dimming_server/CMakeFiles/light_switch_dimming_server_nrf52840_xxAA_s140_6.1.1.dir/__/__/__/mesh/gatt/src/proxy_filter.c.obj
                0x00033cec                proxy_filter_clear
 .text.proxy_filter_type_set
                0x00033d04       0x24 examples/experimental_dimming/dimming_server/CMakeFiles/light_switch_dimming_server_nrf52840_xxAA_s140_6.1.1.dir/__/__/__/mesh/gatt/src/proxy_filter.c.obj
                0x00033d04                proxy_filter_type_set
 .text.proxy_filter_add
                0x00033d28       0x54 examples/experimental_dimming/dimming_server/CMakeFiles/light_switch_dimming_server_nrf52840_xxAA_s140_6.1.1.dir/__/__/__/mesh/gatt/src/proxy_filter.c.obj
                0x00033d28                proxy_filter_add
 .text.proxy_filter_remove
                0x00033d7c       0x50 examples/experimental_dimming/dimming_server/CMakeFiles/light_switch_dimming_server_nrf52840_xxAA_s140_6.1.1.dir/__/__/__/mesh/gatt/src/proxy_filter.c.obj
                0x00033d7c                proxy_filter_remove
 .text.proxy_filter_accept
                0x00033dcc       0x36 examples/experimental_dimming/dimming_server/CMakeFiles/light_switch_dimming_server_nrf52840_xxAA_s140_6.1.1.dir/__/__/__/mesh/gatt/src/proxy_filter.c.obj
                0x00033dcc                proxy_filter_accept
 .text.config_composition_data_get
                0x00033e02      0x166 examples/experimental_dimming/dimming_server/CMakeFiles/light_switch_dimming_server_nrf52840_xxAA_s140_6.1.1.dir/__/__/__/models/foundation/config/src/composition_data.c.obj
                0x00033e02                config_composition_data_get
 .text.app_evt_send
                0x00033f68       0x10 examples/experimental_dimming/dimming_server/CMakeFiles/light_switch_dimming_server_nrf52840_xxAA_s140_6.1.1.dir/__/__/__/models/foundation/config/src/config_server.c.obj
 .text.get_element_index
                0x00033f78       0x1c examples/experimental_dimming/dimming_server/CMakeFiles/light_switch_dimming_server_nrf52840_xxAA_s140_6.1.1.dir/__/__/__/models/foundation/config/src/config_server.c.obj
 .text.config_server_heartbeat_publication_params_get
                0x00033f94       0x30 examples/experimental_dimming/dimming_server/CMakeFiles/light_switch_dimming_server_nrf52840_xxAA_s140_6.1.1.dir/__/__/__/models/foundation/config/src/config_server.c.obj
 .text.send_reply
                0x00033fc4       0x34 examples/experimental_dimming/dimming_server/CMakeFiles/light_switch_dimming_server_nrf52840_xxAA_s140_6.1.1.dir/__/__/__/models/foundation/config/src/config_server.c.obj
 .text.send_network_transmit_status
                0x00033ff8       0x5a examples/experimental_dimming/dimming_server/CMakeFiles/light_switch_dimming_server_nrf52840_xxAA_s140_6.1.1.dir/__/__/__/models/foundation/config/src/config_server.c.obj
 .text.handle_config_network_transmit_set
                0x00034052       0x74 examples/experimental_dimming/dimming_server/CMakeFiles/light_switch_dimming_server_nrf52840_xxAA_s140_6.1.1.dir/__/__/__/models/foundation/config/src/config_server.c.obj
 .text.handle_config_network_transmit_get
                0x000340c6        0xa examples/experimental_dimming/dimming_server/CMakeFiles/light_switch_dimming_server_nrf52840_xxAA_s140_6.1.1.dir/__/__/__/models/foundation/config/src/config_server.c.obj
 .text.handle_node_reset
                0x000340d0       0x34 examples/experimental_dimming/dimming_server/CMakeFiles/light_switch_dimming_server_nrf52840_xxAA_s140_6.1.1.dir/__/__/__/models/foundation/config/src/config_server.c.obj
 .text.send_netkey_status
                0x00034104       0x2c examples/experimental_dimming/dimming_server/CMakeFiles/light_switch_dimming_server_nrf52840_xxAA_s140_6.1.1.dir/__/__/__/models/foundation/config/src/config_server.c.obj
 .text.send_relay_status
                0x00034130       0x7e examples/experimental_dimming/dimming_server/CMakeFiles/light_switch_dimming_server_nrf52840_xxAA_s140_6.1.1.dir/__/__/__/models/foundation/config/src/config_server.c.obj
 .text.handle_config_relay_set
                0x000341ae       0x9a examples/experimental_dimming/dimming_server/CMakeFiles/light_switch_dimming_server_nrf52840_xxAA_s140_6.1.1.dir/__/__/__/models/foundation/config/src/config_server.c.obj
 .text.handle_config_relay_get
                0x00034248        0xa examples/experimental_dimming/dimming_server/CMakeFiles/light_switch_dimming_server_nrf52840_xxAA_s140_6.1.1.dir/__/__/__/models/foundation/config/src/config_server.c.obj
 .text.send_subscription_status
                0x00034252       0x42 examples/experimental_dimming/dimming_server/CMakeFiles/light_switch_dimming_server_nrf52840_xxAA_s140_6.1.1.dir/__/__/__/models/foundation/config/src/config_server.c.obj
 .text.send_appkey_status
                0x00034294       0x3a examples/experimental_dimming/dimming_server/CMakeFiles/light_switch_dimming_server_nrf52840_xxAA_s140_6.1.1.dir/__/__/__/models/foundation/config/src/config_server.c.obj
 .text.handle_node_identity_set
                0x000342ce       0xa0 examples/experimental_dimming/dimming_server/CMakeFiles/light_switch_dimming_server_nrf52840_xxAA_s140_6.1.1.dir/__/__/__/models/foundation/config/src/config_server.c.obj
 .text.handle_netkey_delete
                0x0003436e       0xbc examples/experimental_dimming/dimming_server/CMakeFiles/light_switch_dimming_server_nrf52840_xxAA_s140_6.1.1.dir/__/__/__/models/foundation/config/src/config_server.c.obj
 *fill*         0x0003442a        0x2 
 .text.handle_netkey_add_update
                0x0003442c       0x78 examples/experimental_dimming/dimming_server/CMakeFiles/light_switch_dimming_server_nrf52840_xxAA_s140_6.1.1.dir/__/__/__/models/foundation/config/src/config_server.c.obj
 .text.status_error_sub_send
                0x000344a4      0x124 examples/experimental_dimming/dimming_server/CMakeFiles/light_switch_dimming_server_nrf52840_xxAA_s140_6.1.1.dir/__/__/__/models/foundation/config/src/config_server.c.obj
 .text.delete_all_subscriptions
                0x000345c8       0x66 examples/experimental_dimming/dimming_server/CMakeFiles/light_switch_dimming_server_nrf52840_xxAA_s140_6.1.1.dir/__/__/__/models/foundation/config/src/config_server.c.obj
 .text.send_publication_status
                0x0003462e      0x188 examples/experimental_dimming/dimming_server/CMakeFiles/light_switch_dimming_server_nrf52840_xxAA_s140_6.1.1.dir/__/__/__/models/foundation/config/src/config_server.c.obj
 .text.handle_config_key_refresh_phase_set
                0x000347b6       0xc8 examples/experimental_dimming/dimming_server/CMakeFiles/light_switch_dimming_server_nrf52840_xxAA_s140_6.1.1.dir/__/__/__/models/foundation/config/src/config_server.c.obj
 .text.handle_config_default_ttl_set
                0x0003487e       0x50 examples/experimental_dimming/dimming_server/CMakeFiles/light_switch_dimming_server_nrf52840_xxAA_s140_6.1.1.dir/__/__/__/models/foundation/config/src/config_server.c.obj
 .text.send_net_beacon_state
                0x000348ce       0x2c examples/experimental_dimming/dimming_server/CMakeFiles/light_switch_dimming_server_nrf52840_xxAA_s140_6.1.1.dir/__/__/__/models/foundation/config/src/config_server.c.obj
 .text.handle_config_beacon_get
                0x000348fa        0xa examples/experimental_dimming/dimming_server/CMakeFiles/light_switch_dimming_server_nrf52840_xxAA_s140_6.1.1.dir/__/__/__/models/foundation/config/src/config_server.c.obj
 .text.handle_heartbeat_publication_set
                0x00034904       0xea examples/experimental_dimming/dimming_server/CMakeFiles/light_switch_dimming_server_nrf52840_xxAA_s140_6.1.1.dir/__/__/__/models/foundation/config/src/config_server.c.obj
 *fill*         0x000349ee        0x2 
 .text.apply_reset
                0x000349f0       0x30 examples/experimental_dimming/dimming_server/CMakeFiles/light_switch_dimming_server_nrf52840_xxAA_s140_6.1.1.dir/__/__/__/models/foundation/config/src/config_server.c.obj
 .text.mesh_event_cb
                0x00034a20       0x68 examples/experimental_dimming/dimming_server/CMakeFiles/light_switch_dimming_server_nrf52840_xxAA_s140_6.1.1.dir/__/__/__/models/foundation/config/src/config_server.c.obj
 .text.handle_config_friend_set.part.6
                0x00034a88       0x2a examples/experimental_dimming/dimming_server/CMakeFiles/light_switch_dimming_server_nrf52840_xxAA_s140_6.1.1.dir/__/__/__/models/foundation/config/src/config_server.c.obj
 .text.handle_config_friend_set
                0x00034ab2       0x14 examples/experimental_dimming/dimming_server/CMakeFiles/light_switch_dimming_server_nrf52840_xxAA_s140_6.1.1.dir/__/__/__/models/foundation/config/src/config_server.c.obj
 .text.handle_config_friend_get
                0x00034ac6        0xa examples/experimental_dimming/dimming_server/CMakeFiles/light_switch_dimming_server_nrf52840_xxAA_s140_6.1.1.dir/__/__/__/models/foundation/config/src/config_server.c.obj
 .text.handle_config_key_refresh_phase_get
                0x00034ad0       0x58 examples/experimental_dimming/dimming_server/CMakeFiles/light_switch_dimming_server_nrf52840_xxAA_s140_6.1.1.dir/__/__/__/models/foundation/config/src/config_server.c.obj
 .text.handle_config_gatt_proxy_get
                0x00034b28       0x30 examples/experimental_dimming/dimming_server/CMakeFiles/light_switch_dimming_server_nrf52840_xxAA_s140_6.1.1.dir/__/__/__/models/foundation/config/src/config_server.c.obj
 .text.handle_node_identity_get
                0x00034b58       0x64 examples/experimental_dimming/dimming_server/CMakeFiles/light_switch_dimming_server_nrf52840_xxAA_s140_6.1.1.dir/__/__/__/models/foundation/config/src/config_server.c.obj
 .text.handle_netkey_get
                0x00034bbc       0x50 examples/experimental_dimming/dimming_server/CMakeFiles/light_switch_dimming_server_nrf52840_xxAA_s140_6.1.1.dir/__/__/__/models/foundation/config/src/config_server.c.obj
 .text.handle_appkey_get
                0x00034c0c       0x82 examples/experimental_dimming/dimming_server/CMakeFiles/light_switch_dimming_server_nrf52840_xxAA_s140_6.1.1.dir/__/__/__/models/foundation/config/src/config_server.c.obj
 .text.status_error_pub_send
                0x00034c8e       0x90 examples/experimental_dimming/dimming_server/CMakeFiles/light_switch_dimming_server_nrf52840_xxAA_s140_6.1.1.dir/__/__/__/models/foundation/config/src/config_server.c.obj
 .text.handle_config_gatt_proxy_set
                0x00034d1e       0x52 examples/experimental_dimming/dimming_server/CMakeFiles/light_switch_dimming_server_nrf52840_xxAA_s140_6.1.1.dir/__/__/__/models/foundation/config/src/config_server.c.obj
 .text.handle_config_default_ttl_get
                0x00034d70       0x30 examples/experimental_dimming/dimming_server/CMakeFiles/light_switch_dimming_server_nrf52840_xxAA_s140_6.1.1.dir/__/__/__/models/foundation/config/src/config_server.c.obj
 .text.handle_config_beacon_set
                0x00034da0       0x42 examples/experimental_dimming/dimming_server/CMakeFiles/light_switch_dimming_server_nrf52840_xxAA_s140_6.1.1.dir/__/__/__/models/foundation/config/src/config_server.c.obj
 .text.handle_composition_data_get
                0x00034de2       0x44 examples/experimental_dimming/dimming_server/CMakeFiles/light_switch_dimming_server_nrf52840_xxAA_s140_6.1.1.dir/__/__/__/models/foundation/config/src/config_server.c.obj
 *fill*         0x00034e26        0x2 
 .text.handle_appkey_add
                0x00034e28      0x140 examples/experimental_dimming/dimming_server/CMakeFiles/light_switch_dimming_server_nrf52840_xxAA_s140_6.1.1.dir/__/__/__/models/foundation/config/src/config_server.c.obj
 .text.get_subscription_list.constprop.25
                0x00034f68       0x4e examples/experimental_dimming/dimming_server/CMakeFiles/light_switch_dimming_server_nrf52840_xxAA_s140_6.1.1.dir/__/__/__/models/foundation/config/src/config_server.c.obj
 .text.handle_config_sig_model_subscription_get
                0x00034fb6       0xa2 examples/experimental_dimming/dimming_server/CMakeFiles/light_switch_dimming_server_nrf52840_xxAA_s140_6.1.1.dir/__/__/__/models/foundation/config/src/config_server.c.obj
 .text.heartbeat_subscription_count_encode
                0x00035058       0x32 examples/experimental_dimming/dimming_server/CMakeFiles/light_switch_dimming_server_nrf52840_xxAA_s140_6.1.1.dir/__/__/__/models/foundation/config/src/config_server.c.obj
 .text.heartbeat_pubsub_period_encode
                0x0003508a       0x26 examples/experimental_dimming/dimming_server/CMakeFiles/light_switch_dimming_server_nrf52840_xxAA_s140_6.1.1.dir/__/__/__/models/foundation/config/src/config_server.c.obj
 .text.handle_heartbeat_publication_get
                0x000350b0       0x8a examples/experimental_dimming/dimming_server/CMakeFiles/light_switch_dimming_server_nrf52840_xxAA_s140_6.1.1.dir/__/__/__/models/foundation/config/src/config_server.c.obj
 .text.handle_heartbeat_subscription_get
                0x0003513a       0x84 examples/experimental_dimming/dimming_server/CMakeFiles/light_switch_dimming_server_nrf52840_xxAA_s140_6.1.1.dir/__/__/__/models/foundation/config/src/config_server.c.obj
 .text.handle_appkey_update
                0x000351be       0xbc examples/experimental_dimming/dimming_server/CMakeFiles/light_switch_dimming_server_nrf52840_xxAA_s140_6.1.1.dir/__/__/__/models/foundation/config/src/config_server.c.obj
 .text.handle_appkey_delete
                0x0003527a       0xc2 examples/experimental_dimming/dimming_server/CMakeFiles/light_switch_dimming_server_nrf52840_xxAA_s140_6.1.1.dir/__/__/__/models/foundation/config/src/config_server.c.obj
 .text.handle_heartbeat_subscription_set
                0x0003533c       0xa8 examples/experimental_dimming/dimming_server/CMakeFiles/light_switch_dimming_server_nrf52840_xxAA_s140_6.1.1.dir/__/__/__/models/foundation/config/src/config_server.c.obj
 .text.handle_config_model_publication_get
                0x000353e4       0x8c examples/experimental_dimming/dimming_server/CMakeFiles/light_switch_dimming_server_nrf52840_xxAA_s140_6.1.1.dir/__/__/__/models/foundation/config/src/config_server.c.obj
 .text.handle_config_model_subscription_delete_all
