:020000022000DC
:1060000000FD0320B18F0300D98F0300DB8F030055
:10601000DD8F0300DF8F0300E18F0300000000002D
:10602000000000000000000000000000E38F0300FB
:10603000E58F030000000000E78F0300E98F0300F5
:10604000EB8F0300EB8F0300A9F00200EB8F03003E
:10605000EB8F0300EB8F0300CD660200EB8F030094
:10606000EB8F0300EB8F0300D1790300EB8F03006C
:10607000EB8F0300EB8F0300EB8F0300EB8F03002C
:10608000EB8F0300E988030029470300EB8F03002F
:10609000B9890300EB8F0300916B0200EB8F0300C3
:1060A000EB8F0300EB8F0300EB8F0300EB8F0300FC
:1060B000EB8F0300EB8F03000000000000000000E6
:1060C000EB8F0300EB8F0300EB8F0300EB8F0300DC
:1060D000EB8F0300EB8F0300EB8F0300EB8F0300CC
:1060E000EB8F0300EB8F0300EB8F03000000000039
:1060F00000000000EB8F030000000000EB8F0300A6
:10610000000000000000000000000000000000008F
:10611000000000000000000000000000000000007F
:10612000000000000000000000000000000000006F
:10613000000000000000000000000000000000005F
:10614000000000000000000000000000000000004F
:10615000000000000000000000000000000000003F
:10616000000000000000000000000000000000002F
:10617000000000000000000000000000000000001F
:10618000000000000000000000000000000000000F
:1061900000000000000000000000000000000000FF
:1061A00000000000000000000000000000000000EF
:1061B00000000000000000000000000000000000DF
:1061C00000000000000000000000000000000000CF
:1061D00000000000000000000000000000000000BF
:1061E00000000000000000000000000000000000AF
:1061F000000000000000000000000000000000009F
:1062000010B5054C237833B9044B13B10448AFF3F0
:1062100000800123237010BD582E002000000000D4
:10622000A0BD030008B5034B1BB103490348AFF3FE
:10623000008008BD000000005C2E0020A0BD03000F
:10624000154B002B08BF134B9D46A3F5803A002148
:106250008B460F461348144A121A14F04BFA0F4B90
:10626000002B00D098470E4B002B00D09847002001
:10627000002104000D000D48002802D00C48AFF3A7
:10628000008014F0E9F92000290000F015F814F05E
:10629000CFF900BF0000080000FD0320000000004F
:1062A00000000000582E0020605D0020000000006B
:1062B0000000000041DF704700B5884C884A8DB06F
:1062C00004214EF207000FF079F923685B0418D51A
:1062D000844B1B68032B14DD2F21834814F0DAFA5A
:1062E000002800F0CD802F217F4814F0D3FA411C04
:1062F0007E4B7F4AD3F80435009204204D220FF0E4
:1063000079F912F0A3FC18B1774A4F2112F07BFE05
:1063100000F0B0F900F09EFA0021242203A814F046
:10632000E9F901238DF80C3007238DF80F307149FE
:10633000062303A88DF8143000F000F918B16A4A5A
:106340003D2112F060FE2368580418D5654B1B6888
:10635000032B14DD2F21644814F09CFA002800F070
:1063600098802F21604814F095FA411C5F4B624AD7
:10637000D3F80435009204203F220FF03BF90120AE
:1063800001F0A0FE18B1584A402112F03CFE2368EB
:10639000590417D5534B1B68032B13DD2F2152488B
:1063A00014F078FA00287DD02F214F4814F072FAAB
:1063B000411C4E4B514AD3F804350092042042222E
:1063C0000FF018F900200AF009FD18B1464A4321E0
:1063D00012F019FE23685A0417D5424B1B68032B91
:1063E00013DD2F21404814F055FA002863D02F21E7
:1063F0003D4814F04FFA411C3C4B414AD3F8043558
:106400000092042056220FF0F5F80AF002FD18B1B0
:10641000354A5B2112F0F7FD0AF054FE00F086F9D0
:1064200000F072F818B1304A5F2112F0ECFD2368D9
:106430005B0417D52B4B1B68032B13DD2F212A4838
:1064400014F028FA00283FD02F21274814F022FA10
:10645000411C264B2B4AD3F80435009204206122BC
:106460000FF0C8F800214FF4F03000F0C7F8022216
:10647000C8214FF4F03000F0CBF8FFF71BFFFCE72A
:106480005C21194814F006FA08B15C212CE7164982
:106490002EE75C21144814F0FDF908B15C2161E796
:1064A000114963E75C21104814F0F4F908B15C214C
:1064B0007BE70D497DE75C210B4814F0EBF908B14F
:1064C0005C2195E7084997E75C21074814F0E2F959
:1064D00008B15C21B9E70449BBE700BFC82D002023
:1064E00091550300C42D002014A9030000100140A1
:1064F00032A90300742E00206BA9030088A90300B1
:10650000AAA90300C4A903000DF012B808B510F041
:10651000FDFA03F015FD04F0B5FEBDE808400CF0EF
:106520005BBB07B501A804F03BFFBDF804000030D9
:1065300018BF012003B05DF804FB000073B50E46E0
:10654000054660B30CF082FF044628BB04F0E6FE6B
:1065500003F002FD286908F077FA0446E0B92B7FC2
:106560000193AB69009301466B690E484FF6FF72C9
:1065700008F0E8FC044678B92B6A03B1984710F09C
:106580003FFA04F07DFE03F0FAFA08B103F0F9FADD
:10659000FFF7C7FF06B13070204602B070BD0E2471
:1065A000FAE700BF782E002070B5104C206808B9BB
:1065B00012F01CFD4FF0A0450D4ED5F804353268A1
:1065C0005340C5F804352368013B236063B909488B
:1065D00012F0ECFB3268D5F8043523EA0203064AD0
:1065E00012681343C5F8043570BD00BFD02E0020DB
:1065F000D42E0020D82E0020002F00204FF0A043E2
:1066000011B1C3F80C057047C3F8080570470000C6
:10661000F8B52AB3132923D9124B134D5200013A6E
:106620004FF0A0441A602860D4F8043518400F4B8E
:106630004FF4FA76186000274FF40040E0FB016742
:106640004FF47A7200233046394613F071FE00226F
:106650000146074812F066FB10B92B68C4F80C35E8
:10666000F8BD00BFD02E0020D42E0020002F002027
:10667000D82E002008B54FF0A04303224FF400515C
:10668000C3F83427C3F808154FF48041C3F83827FE
:10669000C3F808154FF40041C3F83C27C3F80815A8
:1066A000C3F840274FF48032C3F808250121054A7A
:1066B000054812F025FB18B1BDE8084012F096BC61
:1066C00008BD00BFA9650200FCA90300124B70B50C
:1066D0000024124E124DC3F87C414FF0A043A15D3F
:1066E000D3F8102501238B40934311D00D49D5F8E1
:1066F00004250B68981A48BFD01A43F233339842E6
:1067000006D9D5F804350B60074B20461B6898471F
:106710000134042CE1D170BD0060004000AA0300E8
:1067200000100140FC2E0020F82E002070B5044619
:10673000CEB0002864D03C4D2A6852042FD53B4B84
:106740001B68032B2BDD3A4B0DAE19680023E25C6E
:10675000100902F00F02085C06F81300885C06EBD3
:1067600043020133102B5070F1D100232F21314807
:1067700086F8203014F08EF8002843D02F212D48C1
:1067800014F088F8411C2C4B2C4AD3F804350192A4
:106790002B4A00920296412204200EF02BFF2B6818
:1067A0005B042DD5214B1B68032B29DD2F212148AC
:1067B00014F070F800282ED02F211E4814F06AF82B
:1067C000411C1D4BE27BD3F804350B92A27B0A924D
:1067D000627B0992227B0892E27A0792A27A069261
:1067E000627A0592227A0492E2880392A288029247
:1067F00022680192134A0092042046220EF0FAFE0B
:106800004EB070BD5C210B4814F044F808B15C2117
:10681000B5E70849B7E75C21064814F03BF808B132
:106820005C21CAE70349CCE7C82D0020C42D002015
:10683000CC2D002004AA0300001001402CAA030064
:106840003EAA030046AA030060DF704769DF704775
:106850000CF0DEBE10B588B000F04AF908B112F0B5
:10686000C5FB2B4B0393039B04930C22002105A82B
:1068700013F040FF0023049A8DF8143005A901207D
:10688000FFF7E4FF08B112F0B1FB0C22002105A8CC
:1068900013F030FFF823049A059305A9A120FFF710
:1068A000D5FF08B112F0A2FB04A8FFF7CDFF039BB0
:1068B000049A9A4204461CD0164B1B685B0418D5F8
:1068C000154B1B68012B14DD2F21144813F0E2FF38
:1068D000A8B12F21114813F0DDFF411C104B049A81
:1068E000D3F8043501920F4A00920220A2220EF042
:1068F00081FE14B1204612F079FB08B010BD5C2176
:10690000064813F0C7FF08B15C21E3E70349E5E758
:10691000A02D0020C82D0020C42D002086AA030031
:1069200000100140B6AA030070B5EFF3108672B6EE
:106930000C4A946801239CB993600B4B0B4DD3F820
:10694000801029401160C3F88050D3F88410516042
:106950004FF0FF32C3F88420047006B962B670BDF0
:106960000370FAE7B45C002000E100E0FC06FFBD24
:1069700010B5084B9A685AB150B9EFF3108172B64E
:10698000054A1C6814605C685460986001B962B67E
:1069900010BD00BFB45C002000E100E001600B68A6
:1069A00043604A68934204BF0023436070474368D2
:1069B00043B1026891680B4443605268934204BF3C
:1069C0000023436070474BDF704700001FB50D4C3C
:1069D00001A8FFF7F8FF70B9214602A8FFF7DEFF14
:1069E000039B002BF4D00198D3E90021904702A823
:1069F000FFF7DDFFF4E7052801D012F0F7FA04B045
:106A000010BD00BFF0AA030061DF704730B5114B25
:106A10001B7891B0E3B1104D34240DF1020103A8AD
:106A2000ADF80240FFF7F0FF70B9294601A8FFF763
:106A3000B5FF029B002BF0D003A8D3E900219047BB
:106A400001A8FFF7B4FFF4E7052801D012F0CEFA51
:106A500011B030BD042F0020FCAA030010DF7047E6
:106A600013B5044609496846FFF798FF019808B92D
:106A700002B010BDD0E900312046984718B16846F1
:106A8000FFF795FFF2E71120F2E700BF0CAB030020
:106A900013B5044607496846FFF780FF019B0BB911
:106AA00002B010BD2046D3E9002190476846FFF7A9
:106AB0007EFFF3E724AB03000B4991F816335A0924
:106AC000EC231341DB0706D5084B9A683AB94FF41B
:106AD00080030B60704742F2020012F087BA1A6816
:106AE00042F480021A60704700E100E0B45C0020CC
:106AF000F7B5184F3C785CBB174E01252046357022
:106B0000FFF7AEFF112820D02046FFF7C1FF134B3F
:106B10001868019002A800F8054DFFF705FF10491D
:106B200001A8FFF79BFF0446B0FA80F040093870D7
:106B30009DF80300FFF71CFF3CB90A4B34701C7032
:106B4000FFF7BAFF2846FFF7A3FF204603B0F0BDCA
:106B50000824FAE7062F0020052F002008AB0300C9
:106B6000550E0300072F002007B508496846FFF7B8
:106B700015FF019B13B903B05DF804FBD3E90020B6
:106B800090476846FFF713FFF3E700BF18AB030019
:106B9000FFF7EABF00B5036993F80B2189B05AB13A
:106BA000002283F80B21022201938DF800208DF83A
:106BB0000810DB686846984709B05DF804FB10B51B
:106BC000046994F80B31012B88B010D18DF8003096
:106BD00068460194E368984704F1F50294F831118E
:106BE000A06800F087FF20B9032384F80B3108B0B8
:106BF00010BDA068836802211B699847F7E71FB59D
:106C0000044600F1D50100F1A5036A4601F0D6F86B
:106C10006946A06800F0BFFF10B90F2384F80B315C
:106C200004B010BD30B590F80C3189B00446032B88
:106C30003BD8DFE803F0312B1D0200F1C5052946E2
:106C400001F098F905238DF8003094F806318DF89D
:106C5000093094F807318DF808300194039510231A
:106C600084F80B316846E3689847002009B030BDCE
:106C700006238DF8003090F806318DF8093090F831
:106C800007318DF8083001900B23E9E707238DF8D1
:106C9000003001900C23E3E710220021C53013F0EF
:106CA00029FD2046FFF7ABFFE0E70320DEE710B544
:106CB00088B0044601F01CFA88B10A2384F80B312D
:106CC0000B238DF800306369039304F118030293DA
:106CD00068460194E3689847002008B010BD04F1AD
:106CE0005801204601F02CF90028F6D12046FFF784
:106CF00099FFF2E710B5046994F80B31062B88B0C0
:106D00001DD194F808315BB108238DF800300923B8
:106D100084F80B310194E3686846984708B010BDC9
:106D20002169A06800F019FF18B9082384F80B3115
:106D3000F4E7A068836802211B699847EEE7072BF8
:106D4000ECD12046FFF7B3FFE8E70000F0B50D46B1
:106D5000A7B004690E782846114600F0BDFE08B1C0
:106D6000092E04D9A068836802211B691AE1324602
:106D700094F80B1194F8090101F0C8F948BB904B45
:106D80001B681B07EED58F4B1B68042BEADD2F21F8
:106D90008D4813F07FFD98B12F218B4813F07AFDB9
:106DA000411C94F80B21894BD3F80435CDE90162DD
:106DB000874A0092052040F235120EF01BFCD1E705
:106DC0005C21814813F066FD08B15C21E5E77E494E
:106DD000E7E72B78013B082BC4D801A252F823F037
:106DE000056E0200656D02006D6E0200956E020078
:106DF0009D6E0200C16E0200656D0200836F02008D
:106E0000A96F02000B22691C04F1F60013F067FC65
:106E1000042384F80B3109238DF874306B788DF8D6
:106E20007C301E946A88130A43EA0223ADF87D3051
:106E30002B798DF87F306B798DF88030AB798DF8B8
:106E40008130B5F80720130A43EA0223ADF88230F7
:106E50006B7A8DF884306A89130A43EA0223ADF80D
:106E60008530E3681DA8984727B0F0BD0135284656
:106E700001F05AF800283FF475AF4022294604F18A
:106E8000180013F02CFC2046FFF711FF00287FF4B8
:106E900069AFE9E72046FFF7B2FEF7E7691C102269
:106EA00004F1E50013F01BFC04F1A501A06800F05B
:106EB00085FE00287FF456AF112384F80B31D3E709
:106EC0001022691C04F1B50013F009FC204601F002
:106ED0009DF800283FF446AF05AD09AE04F17803F4
:106EE0002A46314620460DAF00F0C8FF0723102286
:106EF00004F58C7138468DF8503013F0F0FBD4F85F
:106F00002A31B4F82E211BBACDF84730130A43EAD0
:106F10000223B4F82821ADF84B30130A43EA0223C8
:106F200094F83021ADF844309DF846301F97C2F3F5
:106F3000400161F30003C2F3000262F341036FF307
:106F400087038DF846301923ADF880300DF15103D9
:106F500023930DF16A03249300232193ADF8883025
:106F60001DA80823CDE91D658DF894300DF035FC82
:106F700014A9A06800F04DFE00287FF4F3AE13239F
:106F80009BE70A238DF8743004F178031F9304F50E
:106F90008C731E942093E3681DA89847A0688368AB
:106FA0001B69002198475FE70C238DF874306B78DC
:106FB0001E948DF87C30E3681DA89847D2E600BF88
:106FC000C82D0020C42D002040AB0300001001405C
:106FD00064AB030070B5044690F80B010E46B8B9D7
:106FE000A5680C49E960194684F8090184F8312143
:106FF00004F58C70192213F072FBAB68064ADB684B
:1070000031462846984710B9012384F80B3170BDEA
:107010000820FCE730AB03000087930337B5044634
:1070200090F80B01042833D1102B01D813B939B1D2
:1070300009202BE00029FBD0102B01D00129F7D02B
:1070400094F8100184F80721012900F0010008BF1D
:10705000002284F80C1184F8063184F8080108BF76
:10706000002302258DF802008DF803108DF804200E
:10707000694604F1F502A068ADF800508DF80530BE
:1070800000F05BFD10B9062384F80B3103B030BD6E
:107090000820FBE790F80B310B3B012B01D8FFF7E1
:1070A000AEBD0820704710B590F80B210A2A04469F
:1070B00009D151B12022583013F011FB2046BDE810
:1070C0001040FFF7AFBD082010BD0E20FCE700B553
:1070D00089B00A238DF8003000F17803029300F59F
:1070E0008C7301900393C3686846984709B05DF8B4
:1070F00004FB70B505692C68A86088B006465CB9C9
:10710000022385F80B3101238DF800300195EB68DF
:107110006846984708B070BDB44203D0A3682046C3
:107120009B6898472468EAE730B5046994F80B3106
:10713000122B89B00D4603D111B92046FFF7C7FFC6
:10714000002384F80B3102238DF8003001948DF870
:107150000850E3686846984709B030BD30B590F8EC
:107160000C3189B00446032B3BD8DFE803F0312B08
:10717000170206238DF8003090F806318DF809309B
:1071800090F807318DF8083001900B2384F80B310B
:107190006846E3689847002009B030BD00F1C50596
:1071A000294600F0E7FE05238DF8003094F80631FB
:1071B0008DF8093094F807318DF808300194039563
:1071C0000F23E3E707238DF8003001900C23DDE760
:1071D00010220021C53013F08DFA0F2384F80B31F3
:1071E000D9E70320D8E730B5044689B080680D465A
:1071F00000F002FD20B1A068836802211B69984756
:1072000094F80B31152B0DD00C238DF8003015237D
:1072100084F80B3101948DF8085084F80A51E36822
:107220006846984709B030BD10B588B0044600F0F4
:107230005FFF80B10B238DF800306369039304F185
:10724000180302930A2384F80B310194E36868461B
:10725000984708B010BD04F15801204600F070FEB8
:1072600048B92046FFF77AFF0028F2D005212046D2
:10727000FFF7B9FFEDE70221F9E7000013B5046954
:1072800094F80B31023B132B47D8DFE803F00A4692
:10729000460D46460F4646154617461746191B46E5
:1072A0004620052384F80B3102B010BD204602B001
:1072B000BDE81040FFF7B8BF0F23F3E71123F1E754
:1072C0001223EFE72046FFF702FF1423EAE7274BDC
:1072D0001B681A07E8D5264B1B68032BE4DD2F211A
:1072E000244813F0D7FA78B12F21224813F0D2FAAC
:1072F000411C214B214AD3F80435009204204FF45D
:1073000015720EF077F9CFE75C211A4813F0C2FA34
:1073100008B15C21E9E71749EBE7144B1B681B0731
:10732000C2D5134B1B68002BBEDD2F21114813F073
:10733000B1FA90B12F210F4813F0ACFA411C0E4B5B
:1073400094F80B21D3F8043501920D4A00920120E4
:1073500040F257220EF04EF9A6E75C21054813F0E3
:1073600099FA08B15C21E6E70249E8E7C82D002058
:10737000C42D002098AB030000100140BCAB0300FB
:10738000ECAB030070B50D4698B004690E78284642
:10739000114600F0A1FB08B1092E04D901212046B5
:1073A000FFF721FFD4E0324694F80B1194F809015D
:1073B00000F0ACFE50BB984B1B681B071BD5974BCE
:1073C0001B68042B17DD2F21954813F063FAA0B139
:1073D0002F21934813F05EFA411C94F80B21914B36
:1073E000D3F80435CDE901628F4A009205204FF4AD
:1073F000C4720EF0FFF80321D1E75C21884813F036
:1074000049FA08B15C21E4E78549E6E72B78072BC8
:1074100000F27C81DFE813F008007A014D00A00043
:107420007A01B800E3000A01012204F1F506A91867
:10743000304613F054F903238DF83C306B781094E8
:107440008DF84430E3680FA8984701238DF8183071
:1074500094F80D318DF81930B4F80E21130A43EA6F
:107460000223ADF81A3094F810318DF81C3094F8DE
:1074700011318DF81D3094F812318DF81E30B4F8AA
:107480001321130A43EA0223ADF81F3094F8153193
:107490008DF82130B4F81621130A43EA0223ADF81F
:1074A0002230324606A9A06800F038FB00284FD0F1
:1074B00087E06B788BB9AB78012B0ED8EA78032A7A
:1074C0000BD8012B03D194F81031012B05D1012ADF
:1074D0002B7904D80BB96B794BB102215FE7022AF3
:1074E00038D1042BF9D86B79013B072BF5D8691CEF
:1074F000052204F2011013F0F2F8AB78003318BF44
:10750000012384F80831EB7884F80C31EB78012BF7
:1075100014BF6B79102384F806312B7984F8073176
:1075200004238DF83C301094E3680FA8984794F832
:107530000831082584F80B5153B1202200210FA8EF
:1075400013F0D8F88DF83C501094E3680FA89847D2
:1075500018B070BD032BC5E70135284600F0E4FCE8
:107560000028BAD04022294604F1180013F0B7F8D9
:1075700094F8083123B92169A06800F0EEFA95E784
:107580002046FFF751FEE3E794F80B310F2B1AD199
:107590001022691C04F1E50013F0A1F804F1D501F3
:1075A000204604F1A5030FAA00F008FC0FA9A0686B
:1075B00000F0F1FA0028CBD0042802D0784609F078
:1075C00049FD0521EBE60C2BC2D11022691C04F108
:1075D000E50013F084F80D2384F80B31B8E710228E
:1075E000691C04F1B50013F07AF8204600F00EFD96
:1075F00008B90421D3E604F1A501A06800F0DEFA81
:107600000028DED104F1780304F1980204F1880126
:10761000204600F033FC9BE7C82D0020C42D00203D
:1076200098AB03000010014064AB030004F1880331
:107630000F9304F1980310936B1C119318A919234D
:10764000ADF848300DEB03060023082201F8493D50
:107650001A350FA81393ADF85030159616958DF87E
:107660005C200DF0BCF89DF81730002B3FD01022A5
:10767000314604F58C7013F032F80B9B94F83011FE
:107680001BBAC4F82A31BDF83030180A40EA03208A
:1076900080B2A4F82E01BDF82920130A43EA022380
:1076A0009BB2A4F828319DF82B20C2F3400262F36C
:1076B000000184F830119DF82B20C9B2C2F30002FA
:1076C00062F34101B3F5805F84F83011BFF405AF78
:1076D0000BF0B8FD01287FF400AFB4F82E0194F848
:1076E0000D510BF0AFFD012803D0082157E606210C
:1076F00055E6B4F82E010138284480B20BF0A2FD03
:107700000128F2D1A06800F06CFACFE6784609F0C3
:10771000A1FC1DE730B40C4611461A4690F80B3117
:10772000012B08D8054BE360A3685D68044B204635
:10773000AC4630BC6047082030BC704788AB0300C3
:10774000008793031FB590F80B31A3F10B02022AB7
:10775000044619D80B2B04D1806800F011FA04B04C
:1077600010BD0D2B0BD100F1A50300F1D5016A4628
:1077700000F024FB6946A06800F00DFAEFE70F2344
:1077800080F80B310020EAE70820E8E710B590F810
:107790000B210A2A044609D151B12022583012F097
:1077A0009EFF2046BDE81040FFF7D8BC082010BD62
:1077B0000E20FCE700790B79C31A584258417047F4
:1077C00010B5431E00F11002073013F8011F12F824
:1077D000014D1C7083421170F7D110BD4A0901F0B0
:1077E0001F034FF0FF31994050F82230194009D063
:1077F0004B420B4004495943C90E044B585C00EB03
:10780000421070470320704731B57C071BAC030062
:1078100038B5049D88B181B17AB173B16DB190F87A
:107820000B4164B9C0E90351426119460B2200F2D1
:107830000D1012F054FF204638BD0E20FCE7082042
:10784000FAE7000038B50D46044650B149B1064A82
:107850000DF072FE20B92C612A79636813436360CE
:1078600038BD0E20FCE700BFB577020000F0F6BA85
:1078700038B5054678B190F80B31012B0DD104686D
:107880001CB985F80B41204638BDA36820469B688B
:1078900098472468F4E70E20F6E70820F4E72DE97E
:1078A000F7430F46904601930446A0B190F80B2190
:1078B000012A12D81BB1416833EA01010FD0072514
:1078C0002EE02A799A421FD02D6818E0711C0229F7
:1078D0000BD9002524E00E2522E0082520E04FF0FA
:1078E000010980F80B9180F8099101A8FFF776FF54
:1078F00003280646EDD009FA06F32568DBB2002D11
:10790000DFD1784609F0A6FB294643463A46204691
:10791000FFF700FF05460028D8D02046FFF7A8FF54
:10792000284603B0BDE8F0832DE9F0410E46174626
:107930001D469DF818800446F0B1E9B1E3B11B8AF9
:10794000B3F5805F02D30B20BDE8F081E88A0BF02D
:1079500079FC0128F7D1206848B9A06070B12B46A6
:107960003A4631462046BDE8F041FFF733BB037984
:107970004345F2D00068EFE70E20E5E70620E3E795
:1079800010B490F809411CB95DF8044BFFF746BBF1
:1079900008205DF8044B7047F8B50E4615460446BE
:1079A00000286FD000296DD0102A6DD890F80631CC
:1079B000934269D190F80C31012B0DD1C53012F0F2
:1079C0008EFE94F809312A4631462046002B55D1C7
:1079D000BDE8F840FFF75EBB90F80921DAB9022B49
:1079E00021D190F80731032B1DD82946304600F0ED
:1079F0004FFBC0B104F1C50704223146384612F0EE
:107A00006EFE0C22002104F1C90012F073FE38460C
:107A1000FFF7D6FED5E7012A05D1032B03D190F855
:107A20000731022BE0E794F80931EBB994F80C31F7
:107A3000022B01D00820F8BD94F80731042BF9D1AE
:107A40002946304600F010FB0028F3D004F1C507AA
:107A50002A463146384612F042FE05F1C500C5F10E
:107A6000100200212044D0E7012BE3D194F80C311F
:107A7000032BDFD194F80731032BE0E7BDE8F84092
:107A8000FFF760BE0E20D6E70920D4E790F8093151
:107A90000BB9FFF708BBFFF779BE08B518B100F0C6
:107AA00029F9002008BD0E20FCE700F02FB970B5C1
:107AB000044616460D4611B9784609F0CBFA14B9BA
:107AC000784609F0C7FAA3683246294620461B6863
:107AD000BDE870401847000048B10378092B05D86D
:107AE000034AD05C431A58425841704700207047FF
:107AF0003BAC030013B5002304468DF80510104677
:107B00000DF1050101228DF8043012F0E8FD02228A
:107B100001A92046FFF7CBFF02B010BD38B50546DE
:107B20000C46501C01310B2212F0D9FD214628468B
:107B30000C22BDE83840FFF7BABF38B505460C4601
:107B400002F10C000131052212F0C9FD2146284640
:107B50000622BDE83840FFF7AABF30B593B012AC9B
:107B6000032304F8443D054640220DF1050012F0C0
:107B7000B6FD412221462846FFF799FF13B030BDDC
:107B800007B502A9042301F8043D0122FFF78FFF86
:107B900003B05DF804FB30B587B006AC052304F8EC
:107BA000143D054610220DEB030012F098FD112242
:107BB00021462846FFF77BFF07B030BD30B587B0C0
:107BC00006AC062304F8143D054610220DF105000D
:107BD00012F085FD112221462846FFF768FF07B005
:107BE00030BD07B502A9082301F8043D0122FFF7C3
:107BF0005EFF03B05DF804FB07B509238DF805109F
:107C0000022201A98DF80430FFF751FF03B05DF89F
:107C100004FB2222FFF74BBF70B506468AB014461C
:107C20000D4609B3084612F02DFE6A4681B2284679
:107C30000CF035FE042269460DF1220012F04FFDD2
:107C4000162564BAADF8204009F03CFA102201462E
:107C50000DEB020012F043FD2B4604AA0021304632
:107C60000DF06EFF0AB070BD1225EAE7F0B50F46C1
:107C700089B01446064610B9784609F0EBF914B9F4
:107C8000784609F0E7F907F0FB03122B25D1184DD0
:107C90002A6812B320220021684612F02BFD102220
:107CA000314601A8079412F01AFD23785A1E534258
:107CB00053410021162F8DF814308DF800100ED18D
:107CC0000123042206F112010DF116008DF8153082
:107CD00012F005FD2B686846984709B0F0BD0422F4
:107CE0000DF116008DF8151012F004FDF2E700BF3B
:107CF000082F002010B5044610B9784609F0AAF9FB
:107D0000014B1C6010BD00BF082F0020014B00225A
:107D10001A607047082F00200A78034B82B00020B9
:107D20001A7002B0704700BF0D2F0020024B1B7865
:107D30000B7082B002B070470D2F0020024B82B052
:107D400000221A7002B070470D2F002073B505464F
:107D50000A4E68460C460BF0BFFF002324219C42CC
:107D600001D802B070BD1DF80300B0FBF1F201FBB9
:107D70001202D2B2B25CEA540133F0E74AAC03001B
:107D800037B50D46042104460DEB01000BF0A4FFAE
:107D9000094B019953F82520B1FBF2F302FB1313B1
:107DA00004221BBA0DEB020104F10C00019312F046
:107DB00096FC03B030BD00BF70AC03002DE9F0416C
:107DC0000446ACB00F46904600F1F501112207A819
:107DD0001E4612F084FC94F8093104F11805402283
:107DE00093BB21690DF12D0012F079FC4022294648
:107DF0000DF16D0012F073FC3A4607A891210CF0CA
:107E00004EFD03AD04233A46009304F15800124B93
:107E1000019520210CF059FD304610210BF05CFF3C
:107E20003146102207A812F05AFC04F1C5011022B5
:107E30000BA812F054FC4346202207A928460CF058
:107E4000CAFC2CB0BDE8F08129460DF12D0012F0DE
:107E500046FC40222169CBE7AAAC030038B50446B2
:107E60000D4611F0E9FE29460246204611F0E8FED3
:107E7000012814BF0320002038BD00002DE9F04385
:107E8000044697B08946904600F1D50110220AA811
:107E90001F4612F024FC94F8093104F1B50604F1F0
:107EA000A505102293BB29460EA812F018FC10223B
:107EB000314612A812F013FC5834042502AA0AA86D
:107EC00030210CF0ECFC02AA2046CDF8049000957D
:107ED000124B20210CF0F9FC06ABCDE9005302AAAD
:107EE0000F4B204620210CF0F0FC0DF11B010D2260
:107EF000404612F0F4FBCDE900570A4B02AA2021BC
:107F000020460CF0E2FC17B0BDE8F08331460EA825
:107F100012F0E5FB10222946CBE700BFAFAC03000F
:107F2000B4AC0300B9AC030010B5044611F084FEF4
:107F30000146204611F060FF003018BF012010BD3F
:107F400070B500F11804054620460E46FFF7ECFF19
:107F500010B9784609F07EF86D6911F06DFE324671
:107F600003462946204611F0A9FE00280CBF032035
:107F7000002070BD37B590F80631013B072B044651
:107F80000D4602D9784609F065F8102200212846EE
:107F900012F0B0FB94F80C31022B03D0032B16D057
:107FA00003B030BD94F80731042BF9D8DFE803F0B3
:107FB0001E1E1E03090094F806112846FFF7E0FE76
:107FC000EEE794F806112846FFF7C0FEE8E794F8BC
:107FD0000731032BE4D801A252F823F0ED7F020011
:107FE000ED7F0200B77F0200C37F020001210DF187
:107FF000070094F806410BF06FFE9DF80720B2FBD6
:10800000F4F304FB13230133EB73C9E730B593B0EA
:1080100002AD04230446009300F1D502114B0195F3
:10802000202158300CF051FC04F1B50110220AA8AF
:1080300012F055FB04F1C50110220EA812F04FFBFF
:1080400006AB0AA9284620220CF0C5FB102204F139
:10805000E50106A812F034FBB0FA80F0400913B035
:1080600030BD00BFAAAC030010B50246131ADBB244
:10807000994201D8012010BD12F8013BA3F1300450
:10808000092CF3D9413B192BF0D90020F3E700006C
:10809000082937B505460C4602D9784608F0DAFFBC
:1080A000042229460DEB020012F019FB044B53F891
:1080B0002400019B984294BF0020012003B030BDF2
:1080C00070AC030007B5054B02A901F8010D186853
:1080D0000EF09CFC03B05DF804FB00BF46AC03004F
:1080E000024B014618680EF0CFBC00BF46AC03003F
:1080F00007B50DF10700FFF7F3FF10B1784608F060
:10810000A9FF9DF8070003B05DF804FB0A4B5B5C18
:1081100060B923F0800342F040018B4204D0092A69
:1081200014BF0020012070470120704723F0400356
:1081300042F080008342F3E794AC0300D1F8B831F9
:1081400008461B69012100F5D8701847F8B5114D94
:108150002B68064613B9784608F07CFFEFF31087CA
:1081600072B62C68B4420BD1D6F8C4312B6007B973
:1081700062B6F8BD13B9784608F06CFFD4F8C44174
:10818000D4F8C431B342F5D1D6F8C431C4F8C431FF
:10819000EDE700BF102F002070B590F8A130023B32
:1081A000022B04460D4602D9784608F053FF2046BC
:1081B000FFF7CCFF94F8A030012B02D0784608F0EE
:1081C00049FF20460FF083FA002384F8A03084F89A
:1081D000E03084F8A13004F1C0000BF02FFCD4F89B
:1081E000BC31294604F5D870DB68BDE870401847FB
:1081F00010B5044610B9784608F02CFFA4F5D874E1
:1082000094F8A130012B09D12046FFF79FFF2046AB
:108210000FF05DFA002084F8A10010BD0820FCE7F3
:108220002DE9F0418846911C064615461F460FF081
:1082300063F9044600B36B1C4374292383742A46F4
:108240004146133012F04BFA2771EFF3108772B6E4
:10825000D6F8A85101356B1CC6F8A85102D1784652
:1082600008F0F8FE07B962B63046256021460FF0E7
:108270007EF90020BDE8F0810420FBE72DE9F04104
:1082800090F8E030022B88B0044602D0784608F01F
:10829000E1FE94F8E330002B42D194F8A130032B97
:1082A00002D0784608F0D6FE94F8E030022B02D0D7
:1082B000784608F0CFFED4F89C2094F8E13012BA4A
:1082C000009294F8A3208DF804209DF8052002F078
:1082D000FC02142B03F102014FF01700B1FBF0F187
:1082E00061F387021D468DF8052028BF142594F8F8
:1082F000E2208DF808201B022A4604F1E4010DF16A
:108300000900ADF8063012F0EAF9012305F109027F
:1083100069462046FFF784FF80B9012384F8E330E3
:1083200094F8E3501726022794F8E18008F102033D
:10833000B3FBF6F30133DBB2AB4202D808B0BDE8C1
:10834000F0816B1E03EB4301C3EBC101D4F89C30F9
:10835000143189B21BBAA8EB0108009394F8A3303A
:108360008DF804301FFA88F89DF80530B8F1170F22
:1083700028BF4FF0170867F30103E43165F3870363
:10838000424621440DF106008DF8053012F0A7F9A0
:10839000012308F1060269462046FFF741FF002845
:1083A000CCD194F8E330013384F8E3300135BBE7F6
:1083B00000B5D0F89C3089B01BBA00934FF43063FD
:1083C000ADF804308DF80610042307226946FFF744
:1083D00027FF09B05DF804FB38B50D46044610B917
:1083E000784608F037FE022D02D9784608F032FEB2
:1083F000A4F5D87494F8A13013F0FB0F0FD0023B12
:10840000012B02D9784608F025FE29462046FFF7C1
:10841000CFFF28B9042384F8A13084F8A45038BDD4
:1084200029462046BDE83840FFF7B6BE00B5D0F873
:108430009C3089B01BBA00938DF8041001230622EA
:1084400069468DF80530FFF7EBFE09B05DF804FBD7
:1084500000B5D0F89C3089B01BBA00934FF4E063AC
:10846000ADF80430062201236946FFF7D9FE09B0B2
:108470005DF804FB10B504460BF020FBD4F8DC10CB
:10848000014404F1C000BDE810400BF0EEBA00005A
:10849000D0F8A8318B4206D1012380F8AC31024BD1
:1084A00018680CF06BB87047A02D002037B591F814
:1084B000A130032B05460C464ED191F8E030022B3B
:1084C0004AD1D1F8D8301B1A002B14DA01212046EA
:1084D000FFF76EFF48B9042384F8A130012384F824
:1084E000A430C4F8B40003B030BD1D4BC4F8B430A0
:1084F000C4F8D850F7E71B4B1B681B071AD51A4B5B
:108500001B68042B16DD2F21184812F0C3F9D0B1D7
:108510002F21164812F0BEF9411C154B94F8E420A7
:10852000D3F804350192134A0092052040F2BB3281
:108530000DF060F80023204684F8E33003B0BDE876
:108540003040FFF79BBE5C21084812F0A3F908B148
:108550005C21DEE70549E0E70023C4F8B430C2E758
:1085600040420F00C82D0020C42D00206EB0030033
:108570000010014091B0030013B50446EFF31082E0
:1085800072B6174B1968C0F8C411186002B962B608
:10859000144B1B681B0718D5134B1B68032B14DDEA
:1085A0002F21124812F076F988B12F210F4812F0CE
:1085B00071F9411C0E4B0F4AD3F804350092019417
:1085C0004FF4C87204200DF015F802B010BD5C2104
:1085D000064812F05FF908B15C21E7E70349E9E7D3
:1085E000102F0020C82D0020C42D00206EB00300E5
:1085F00000100140BEAC0300F0B50E4689B017462E
:10860000054610B9784608F025FDA5F5D87494F80C
:10861000A010012903D194F8A130002B54D10023DC
:108620000129C4F8DC70C4F8CC3084F8E03084F858
:10863000A33084F8A23084F8A130C4F8A83113D054
:10864000012384F8A030214BC4F8B030204BC4F88B
:10865000C830C4F8B840C4F8D0408023A5F18802DF
:108660001C4920460FF05EF8A5F58A7528460421BE
:108670000BF032FB002384F8A330802384F8A2306F
:108680002B681BBA009310224FF4407331460DF152
:108690000600ADF8043012F022F8042316226946D1
:1086A0002046FFF7BDFD054658B92046FFF7E2FE1C
:1086B00020460EF007FF2046FFF75EFF022384F8F6
:1086C000A130284609B0F0BD0825FAE7AD840200C4
:1086D0003D8102009184020038B5124B1C680025D0
:1086E0000CB9012038BD94F8AC3193B194F8A120B5
:1086F00084F8AC51042A94F8E0300DD1022B03D158
:1087000004F1A8000BF09AF994F8A4102046FFF7A2
:1087100043FDD4F8C441E3E7022BFAD12046FFF72A
:10872000ADFDF6E7102F00202DE9F0410E4617466B
:108730009846054610B9784608F08CFCA5F5D87423
:1087400094F8A020012A03D194F8A130002B50D135
:108750000023012AC4F8DC80C4F8CC3084F8E0306F
:1087600084F8A33084F8A23084F8A130C4F8A8318A
:1087700013D0012384F8A0301F4BC4F8B0301F4B36
:10878000C4F8C830C4F8B840C4F8D0408023A5F17C
:1087900088021B4920460EF0C5FF0023802284F882
:1087A000A320C4F89C3084F8A2303A4631462046D3
:1087B000FFF732FA054610B9784608F04BFCFF2364
:1087C0002B714FF0FF332B604FF4FA6120460EF00F
:1087D00054FF294620460EF0CAFE20460EF072FED7
:1087E0002046FFF7C9FE012384F8A1300020BDE830
:1087F000F0810820FBE700BFAD8402003D8102004C
:108800009184020030B5074D0246FF23141AA1429D
:1088100002DCD843C0B230BD12F8014B6340EB5CC0
:10882000F4E700BFEAAC03002DE9F843A0F5D874E3
:10883000804694F8A130032B0F46164640D1412ABA
:1088400040D810F8D05C002D3ED12046FFF712FE34
:108850000BF034F91723B11CB1FBF3F10131CBB2AA
:10886000216F594301F5F411184B01F5906148F857
:10887000FC1C81460144C4F8B030A8F584700BF0AC
:10888000F4F8134B4B4448F8D83C022384F8E0300A
:108890003146C4F8B84084F8E35084F8E1603846C3
:1088A000FFF7B0FF324684F8E2003946A8F1CC0069
:1088B00011F015FF2046FFF7E1FC2846BDE8F883DC
:1088C0000820FBE70920F9E71120F7E7AD84020053
:1088D00080C3C9012DE9F0410B78012B92B0054608
:1088E0000C4602D0784608F0B5FB261D617830466C
:1088F000FFF788FFA378834226D195F8A210284677
:108900000027FFF793FDE77095F8A220531C03F0B2
:108910007F0322F07F02134385F8A23094F8018090
:108920003146424601A811F0DAFE28462770FFF7CB
:10893000A1FDD5F8BC3142461B6801A905F5D870E8
:10894000984712B0BDE8F08100232370F9E70000DA
:1089500038B5044610B9784608F07CFB084D2B6802
:10896000013303D107480BF0EBFD2860012384F8A5
:10897000B431054BC4F8B83104F5D87038BD00BF28
:10898000A02D0020D9860200ECAD03002DE9FF41A7
:1089900088461446054610B9784608F05BFB14B9C2
:1089A000784608F057FB2B681BBAEFF3108172B6BC
:1089B000A44E34686CB901B962B6687900F003035B
:1089C000032B00F29C80DFE813F00B005801D70165
:1089D0006202D4F89C209342EDD0D4F8C441E9E778
:1089E000002C00F08C8094F8A130032B40F087809D
:1089F00094F8E020002A40F08E802A7994F8A23082
:108A00009A4230D1EB881B0A84F8E13017220233F6
:108A1000B3FBF2F30133DBB2072B07D9022104F5D4
:108A2000D87004B0BDE8F041FFF7D6BC2B7A84F8CB
:108A3000E230A8F10908012384F8E03084F8E3303B
:108A4000424605F1090104F1E40011F048FE94F8F2
:108A5000E130984553D104F1E001204604B0BDE86F
:108A6000F041FFF737BF784B1B6803F0080328D2AB
:108A7000BBB1764B1B68042B13DD2F21744811F01A
:108A800009FFA8B12F21724811F004FF411C714B5E
:108A9000714AD3F80435009240F2C92205200CF047
:108AA000A9FD2979204604B0BDE8F041FFF7BEBC1E
:108AB0005C21674811F0EEFE08B15C21E3E76449F0
:108AC000E5E7E3B1614B1B68012B18DD2F216048FE
:108AD00011F0E0FEB0B12F215D4811F0DBFE411C2A
:108AE0005C4B94F8A220D3F8043502922A790192C3
:108AF0005A4A009240F2CE2202200CF07BFD04B0D4
:108B0000BDE8F0815C21524811F0C4FE08B15C213F
:108B1000E2E74F49E4E74C4B1B68022A03F00803E5
:108B200073D1297994F8A220914220D2002BB8D099
:108B3000464B1B68042BB4DD2F21454811F0AAFEDB
:108B400060B12F21424811F0A5FE411C414B424A21
:108B5000D3F80435009240F2D5229FE75C213C48CF
:108B600011F098FE08B15C21ECE73949EEE725D910
:108B7000002BC4D0354B1B68012BC0DD2F2134489E
:108B800011F088FE88B12F21314811F083FE411C7D
:108B9000304B94F8A220D3F8043502922A7901923E
:108BA0002E4A009240F2DA22A6E75C21284811F012
:108BB00071FE08B15C21E7E72549E9E7002B9ED06B
:108BC000224B1B68042B9ADD2F21214811F062FEF5
:108BD00090B12F211E4811F05DFE411C1D4B94F8F1
:108BE000A220D3F8043502922A7901921C4A0092FD
:108BF000052040F2DE2280E75C21154811F04AFE94
:108C000008B15C21E6E71249E8E7002B3FF477AFB3
:108C10000E4B1B68012B7FF772AF2F210C4811F010
:108C200039FE08B32F210A4811F034FE411C094BCC
:108C30000C4AD3F80435009240F2E32202200CF0F3
:108C4000D9FC5CE7102F0020C82D0020C42D002087
:108C50006EB003000010014000AE030050AE0300F0
:108C60009AAE0300D3AE03005C21B54811F012FEAA
:108C700008B15C21D7E7B249D9E7002C3FF43FAFF8
:108C800094F8A130032B7FF43AAFAE4B94F8E02078
:108C90001B68022A03F008034BD1297994F8A3201A
:108CA000914246D1D3B1A84B1B68032B16DD2F216F
:108CB000A34811F0EFFD98B32F21A14811F0EAFD70
:108CC000411CA24B94F8E420D3F804350192A04A49
:108CD0000092042040F21E320CF08CFC002504F1BE
:108CE000A800C4F8B4500AF0A9FE20460EF0EFFC2C
:108CF00094F8A32084F8E050531C03F07F0322F083
:108D00007F02134384F8A3302046FFF7B3FBD4F867
:108D1000BC315B6804F5D87004B0BDE8F041184779
:108D20005C21874811F0B6FD08B15C21C5E7844994
:108D3000C7E7002B3FF4E3AE834B1B68012B7FF7A3
:108D4000DEAE2F217E4811F0A5FD60B12F217C48B9
:108D500011F0A0FD411C7D4B7E4AD3F804350092F2
:108D60004FF44C726AE75C21754811F093FD08B12D
:108D70005C21ECE77249EEE7002C3FF4C0AE94F8BA
:108D8000A130032B7FF4BBAE94F8E060297994F80E
:108D9000A230012E4CD1994225D194F8E3308008BD
:108DA0000341DA073FF5ABAE1727013807FB004058
:108DB000A8F10602A91DF83011F091FC6B7994F826
:108DC000E3209B0806FA03F3134394F8E1200232F0
:108DD000B2FBF7F70137DBB2FFB284F8E330BE40F5
:108DE0000133B34236E6574B1B681B077FF587AE4E
:108DF000554B1B68012B7FF782AE2F21504811F095
:108E000049FD60B12F214E4811F044FD411C4F4BEC
:108E1000514AD3F8043500924FF442720EE75C21B8
:108E2000474811F037FD08B15C21ECE74449EEE713
:108E30009942FFF437AE7FF662AE424B1B681F07C4
:108E40007FF55DAE404B1B68012B7FF758AE2F219D
:108E50003B4811F01FFD88B12F21394811F01AFD50
:108E6000411C3A4B94F8A220D3F8043502922A7997
:108E700001923A4A00924FF445723DE65C21304837
:108E800011F008FD08B15C21E7E72D49E9E780080A
:108E9000012875D023D3022800F0D380294B1B680A
:108EA0001B077FF52CAE284B1B68012B7FF727AEE5
:108EB0002F21234811F0EEFC002800F027812F21FC
:108EC0001F4811F0E7FC411C6A79204B9208D3F847
:108ED00004350192224A009240F29232A4E0B8F1A5
:108EE000160F7FF40CAE08F0EDF810220146A81D15
:108EF00011F0E6FB00287FF402AE002C40F0118157
:108F0000EFF3108372B6346824B9002B7FF4F7AD09
:108F100062B6F4E594F8A120012A00F00081D4F8AB
:108F2000C441F1E75C21064811F0B4FC08B15C21B2
:108F30001AE103491CE10023C4F89C30DFE500BFBF
:108F40006EB00300C82D0020C42D00200010014089
:108F500005AF030020AF030040AF030071AF030073
:108F600047B00300032B7FF4CAAD94F8E030002B28
:108F70007FF4C5AD204604B0BDE8F041FFF768BA04
:108F8000002C3FF4BCADB8F1060F7FF4B8AD94F8F7
:108F9000A130814D022B2AD120460EF098FB1421DE
:108FA00020460EF06AFB2B681D0740F1EB807B4BDF
:108FB0001B68032B40F3E6802F21794811F06AFCEF
:108FC00060B12F21764811F065FC411C754B764A43
:108FD000D3F80435009240F26E32D0E05C21704844
:108FE00011F058FC08B15C21ECE76D49EEE72B6805
:108FF00018077FF584AD694B1B68012B7FF77FADA8
:109000002F21674811F046FC90B12F21644811F0E0
:1090100041FC411C634B94F8A120D3F80435019224
:10902000624A009240F2763202200CF0E3FA66E5E2
:109030005C215B4811F02EFC08B15C21E6E7584941
:10904000E8E7002C3FF45BADB8F1070F7FF457ADB4
:1090500094F8A130504E023B012B30D894F8E03008
:10906000022B03D104F1A8000AF0E8FCA9792046FC
:10907000FFF792F8336819077FF541AD474B1B683E
:10908000032B7FF73CAD2F21454811F003FC68B15D
:109090002F21434811F0FEFB411C424B444AD3F8B8
:1090A0000435009204204FF46272C8E55C213C480C
:1090B00011F0F0FB08B15C21EBE73949EDE73368CB
:1090C0001A077FF51CAD354B1B68012B7FF717ADD9
:1090D0002F21334811F0DEFB78B12F21304811F0F9
:1090E000D9FB411C2F4B94F8A120D3F804350192F1
:1090F000304A009240F28D3296E75C21284811F008
:10910000C9FB08B15C21E9E72549EBE75C2124486C
:1091100011F0C0FB08B15C21D2E62149D4E603B9C5
:1091200062B694F8A130012B7FF41CAF2B681BBAF8
:109130002046C4F89C3014210EF09FFA2046FFF719
:1091400087F900287FF4F7AE134B1B681E0719D56B
:10915000124B1B68032B15DD2F21114811F09AFBD0
:1091600000283FF4DFAE2F210D4811F093FB411C86
:109170000C4B0D4AD3F80435009240F251320420D2
:109180000CF038FA032384F8A1302046FFF772F977
:10919000D4F8BC319B68BDE5C82D0020C42D00204B
:1091A0006EB0030000100140B7AF0300CDAF030065
:1091B000FEAF030014B0030038B5837803F0030258
:1091C0000446032A22D8DFE802F00214191D9B0886
:1091D000154A1648126813440268A3600021EAB1D8
:1091E00095685D1B002D16DAD1B91146E160046067
:1091F00038BD9B0803EB83035B00E9E79B0864220F
:109200005343E5E79B0841F27072F9E7784607F0AF
:1092100021FF0023DCE71146D268E0E70029E5D012
:10922000CC60E260E4E700BF2C2F0020342F002048
:1092300008B5032809D8DFE800F00D020406064847
:1092400008BD0648FCE70648FAE7784607F002FF43
:109250000020F5E70348F3E740420F0080969800AE
:109260000046C323A08601002DE9F041574D2B781D
:10927000A3B1574B574E5C680AF020FC241A307893
:10928000FFF7D6FF3278544B001B002A40D14CF236
:10929000503290423CD91A6801321A60DFF8488196
:1092A000D8F80020002A00F087804A4E9378307862
:1092B00003F003038342344664DD474B97681B6821
:1092C000FB1A464F5F43FFF7B3FFD8F80030B7FBF8
:1092D000F0F09F78C7F30107FBB2022B1FD031D803
:1092E000012B47D10A22B0FBF2F302FB1300002846
:1092F00040D10AF0E3FB00F5742101F510713770DD
:109300002B78002B50D03248BDE8F0410AF0ADBBBD
:109310001A683249B0FBF1F010441860BEE73378A8
:1093200063B96422B0FBF2F302FB130010BB0AF036
:10933000C5FB2B49022301442370E1E7012B19D11E
:109340000A22EFE7337863B941F27072B0FBF2F3AF
:1093500002FB130070B90AF0B1FB22490323014458
:10936000EAE7012B02D14FF41672EFE7022B01D18D
:109370003C22EBE70AF0A2FB06462078FFF758FFF5
:109380003118BDE70AF09AFBD8F800300446987807
:1093900000F00300FFF74CFFD8F800309B78C3F3D0
:1093A000010321183370ABE70948012341602B709A
:1093B000BDE8F0410AF020BB2B7823B10448BDE89A
:1093C000F0410AF03BBBBDE8F08100BF302F002028
:1093D000142F0020312F00202C2F0020A086010008
:1093E000809698000046C323342F00202DE9F341D6
:1093F000244B1B78032B2AD8DFE803F0021B1F2322
:10940000214A136801331360204B214E1E4D002268
:109410001A70B04634683CB1A3682A6893421AD0E7
:109420002A689B1A002B16DBFFF71EFF02B0BDE86F
:10943000F081154A13680A33E5E7134A1368643369
:10944000E1E7114A136803F5BB531033DBE77846B5
:1094500007F000FED8E72788E368C8F8003002A9C3
:10946000002341F8043D384601F076FA10B1784601
:1094700007F0F0FD38466368019998472046FFF7EA
:109480009BFEC7E7312F00202C2F0020302F00201B
:10949000342F002010B5084C18220021204611F06E
:1094A00029F9064B064AA36000231360054A13609E
:1094B000054A137010BD00BF142F0020ED93020069
:1094C0002C2F0020342F0020302F0020F8B50F461D
:1094D0001646044610B9784607F0BCFD124D0AF056
:1094E000BFFF2B6800220BB1A34216D1A17867F30E
:1094F000010166F38701A1709BB1DB6882B92B6023
:109500002EB12046FFF758FE2B689C4201D1FFF791
:10951000ABFEBDE8F8400AF0E3BF1A46DB68E2E7BD
:10952000D360002EF5D0ECE7342F00200A4B93F8DF
:10953000390093F85D2080F00100404280B24AB1CA
:109540004FF6FF72904204D0586D1B6BC01AC00FCB
:1095500070470120704700BF382F002038B5154CE8
:10956000242303FB0043054693F8393013B97846AA
:1095700007F070FDB4F8603013B9784607F06AFD63
:10958000242202FB0543002183F83910B4F860302F
:10959000013B9BB2A4F860301BB94FF6FF73A4F8EF
:1095A000623002FB0544A06A0DF0DDFD0023A362DA
:1095B00038BD00BF382F00202DE9F84F2C4DB5F8ED
:1095C0006030064613B9784607F044FD294C06F58D
:1095D0007A7B00274FF0010948F2111A637C1FFAC9
:1095E00087F8C3B1A368A3EB0B03002B13DAA3889E
:1095F0002268A4F11001404600F088FC102827D80A
:1096000009FA00F313EA0A0F25D11B4A13421ED0B0
:109610004046FFF7A3FF2434BFB1FFF787FFB5F83B
:109620006030A5F862000BB3012802D9784607F034
:1096300011FDB5F86230242202FB03531B6B9A1B09
:1096400048BFF21AEA60BDE8F88F0127C6E710B1FB
:10965000784607F0FFFC237C013BDBB22374002B30
:10966000D6D0D4E902321344A360D4E7EB60EAE732
:10967000382F0020602F0020A002010010B5064CFA
:1096800064220021204611F035F8044BA3604FF608
:10969000FF73A4F8623010BD382F0020B995020086
:1096A0002DE9F04701280646884617469A46BDF838
:1096B000209002D9784607F0CDFCB8F1000F02D116
:1096C000784607F0C7FC17B9784607F0C3FC98F84E
:1096D00000305B0702D1784607F0BCFCBAF1000FFE
:1096E00002D1784607F0B6FCB9F1000F02D17846F6
:1096F00007F0B0FC274C242303FB064393F83930D2
:1097000013B13046FFF72AFF0AF0D8F9844697E8EC
:109710000F00242505FB064505F1180E8EE80F0005
:10972000C5F828A0A5F82C9098F80030C3F30203E0
:1097300085F8383098F80000C3084CF2503003FB2D
:109740000000012385F83930B4F860306863604464
:1097500001332863A4F86030FFF7E8FEB4F8623004
:10976000834201D19E4213D14FF6FF739842A4F871
:10977000620002D1784607F06DFCB4F8623005480B
:10978000242202FB0344216BBDE8F0470AF06DB9C7
:10979000BDE8F087382F00204A09012301F01F019E
:1097A00003FA01F150F82230194214BF01200020C1
:1097B00070474FF6FF72B2EB104F82B083B215D1F3
:1097C00013F47F4007D003F44043B3F5004F14BFB8
:1097D0000020012006E023F07F022AB97F3B18BF5A
:1097E0000123184602B070470346FAE723F03F030F
:1097F000C02BECE701289FBF054B382202FB00304D
:1098000090F8340094BF00F001000020704700BFC2
:10981000B02F002070B51C460B89B3F5BE7F0546FE
:10982000164606D3092323602068B0FA80F0400969
:1098300070BDFFF7DFFF28B10C48382303FB05009C
:1098400083890BB10523EEE73EB982884FF6FF739B
:109850009A4206D0C2889A4203D00868FFF7A9FF4F
:1098600008B90723DFE70023DDE700BFB02F0020A2
:1098700010B50E4C70220021204610F03BFF06224E
:1098800000210B4810F036FF18220021094810F083
:1098900031FF4FF0FF31084A61600123E260A38489
:1098A000E1636264A4F85C3010BD00BFB02F0020FB
:1098B0009E2F002020300020FFFF02002DE9F04FF6
:1098C000D5B0044607A80D4604929946BDF87881A4
:1098D00001F066FD704BBDF81E10049A382000FBA5
:1098E00004308789B94205D84FF0100A504655B068
:1098F000BDE8F08FBDF81C10049108AE002A00F0FE
:10990000968002F10C0103C9B2F81EB0B2F824A08F
:10991000127F86E80300002A00F09980382202FBBB
:109920000434647CFF2C01D15C4B1C78B9F1000F2E
:1099300002D1784607F08EFBB8F1000F02D17846CD
:1099400007F088FB0AAB184624220021059310F08B
:10995000D1FE504610AA594602F008FC059B8246EB
:109960000028C3D1049A9C7296E803001744AA7A8F
:10997000DA72EA7A1A7383E80300EA681F815146B3
:109980001846C3F81090A3F814801A6209F03CFE40
:1099900082460028AAD1424C226892041AD5414B33
:1099A0001B68042B16DD2F213F4810F073FF0028A1
:1099B0004FD02F213C4810F06DFF411C3B4B2A88B3
:1099C000D3F8043501923A4A009205204FF4CE7242
:1099D0000BF010FE23689B0488D5324B1B68042BC8
:1099E00084DD2989334B8029186828BF8021002312
:1099F00013AC8B4236D100222F212B4804F81320C0
:109A000010F048FF00283BD02F21274810F042FFDC
:109A1000411C264B284AD3F804350192274A00926C
:109A2000029440F29D1205200BF0E4FD5EE7B0F8D1
:109A300004B0C0880593314601F068FD48BB7288C8
:109A4000002A3FF451AF4FF6FF7A059B66E71446B4
:109A50006CE75C21144810F01DFF08B15C21A9E7F8
:109A60001149ABE76A68D25C160902F00F02865D05
:109A700004F81360865C04EB430201335670B8E7C8
:109A80005C21094810F006FF08B15C21BDE70649DA
:109A9000BFE74FF0050A29E7B02F0020A42D0020D2
:109AA000C82D0020C42D002015B103000010014076
:109AB00031B10300CC2D002045B103003EAA0300C4
:109AC0002DE9F04F85B08146924698460E9F0D468F
:109AD00011B9784607F0BEFA03AB5246294648460C
:109AE000FFF798FE18B9039805B0BDE8F08F6988B4
:109AF0002B884FF6FF72914230D1B3F5807F34BF8F
:109B00004FF0010B4FF0020B2E895E44B6B2304687
:109B10000DF027FB044680B36A882B884FF6FF7050
:109B20008242D9B21DD06270120A2170A2702A89B5
:109B3000696804EB0B0010F0D2FD009623465246F4
:109B400029464846FFF7BAFE039018B9B8F1000F4E
:109B500000D077B920460DF006FBC4E74FF0030BA9
:109B6000D2E713F47F4F1DBF1B0A23706170217071
:109B7000DDE7C8F800403E80B6E70420B4E70020E7
:109B8000704770472DE9F04F00F114048FB005467F
:109B9000204602F04DFD8146002876D04FF6FF7337
:109BA000ADF832302B7D012B72D10DA801F0F8FBFE
:109BB000EB8ABDF834209B1A9BB209934E46564C53
:109BC0004FF0000A002E7CD0A788099BFA1A574252
:109BD000574194F82C30E98B03F0010320460A9397
:109BE000FFF7DAFD29880B90A28C68884FF00008F7
:109BF000904577D34FF00008C346484B1B689B0441
:109C000025D5474B1B68062B21DD2F21454810F039
:109C100041FE002876D02F21424810F03BFE411C27
:109C20000B9A414BD3F80435CDF818B0CDE9047246
:109C30000A9A039234F8062C029234F8082C019206
:109C40003A4A0092072040F259420BF0D3FC0A9B9B
:109C5000BBB1B7B10B9BA3B1BBF1000F11D02B7DF2
:109C6000012B1FFA8AF704D1A26A2946384600F070
:109C7000FDFF236AA26A03EBC80329465B683846E6
:109C800098473834BAF1000F18D00FB0BDE8F08F04
:109C9000EB8A04339BB2032B0AD90DF13201204623
:109CA00001F0C8FC40B1784607F0D4F9002686E7F9
:109CB00000230646099382E7064680E74FF0010A33
:109CC00080E7E08801280BD8194ABDF832100C2330
:109CD00003FB00200430FFF75FFD00F0010778E789
:109CE0003046FAE7236A03EBC80C33F838308B426E
:109CF00003D1BCF80230834202D008F1010877E7B3
:109D0000CB467AE75C21074810F0C4FD08B15C211E
:109D100082E7044984E700BFB82F0020C82D002047
:109D2000C42D002015B1030000100140A5B00300B0
:109D3000203000202DE9F04303681D7805F0C002B3
:109D4000402AD1B004460FD003D86AB10026354668
:109D500010E0802A00F09D80C02AF7D19A785E78C2
:109D6000ADB246EA022605E0ADB27F2D00F08E804E
:109D70004FF6FF765A4B1A6812F4005F984619D0D6
:109D8000584B1B68042B15DD2F21574810F082FD1E
:109D9000002800F082802F21534810F07BFD411CE9
:109DA000524B534AD3F8043500920195F622052010
:109DB0000BF020FCE06901F0ABFC8146A06901F0EA
:109DC00093FC4FF6FF739E42ADF81450ADF8166049
:109DD00027686BD1FF2D8CBF022301234FF6FF7242
:109DE0001F4496420697A38862D1FF2D8CBF0222A2
:109DF00001229B1A227A8DF820206289ADF8222058
:109E0000E2680992227C8DF82820628AADF82A2027
:109E100062690B9294F820208DF83020626A0D92CE
:109E2000D8F80020ADF832909BB29204ADF81C3007
:109E3000ADF8380027D52B4A1268042A23DD2D4AB5
:109E4000802B106828BF802300220FAC9A4231D1AA
:109E500000232F21244804F8123010F01BFD0028A5
:109E600035D02F21204810F015FD411C1F4B224AF0
:109E7000D3F804350192214A0092029440F20D1267
:109E800005200BF0B7FB05A8FFF77CFE51B0BDE83D
:109E9000F0835B7843EA05256AE75C21124810F0FD
:109EA000F9FC08B15C2177E70F4979E7032395E7CF
:109EB00003229EE7B95C0D0901F00F01455D04F82E
:109EC0001250455C04EB420101324D70BEE75C214B
:109ED000054810F0DFFC08B15C21C3E70249C5E783
:109EE000C82D0020C42D002015B103000010014032
:109EF000FAB00300CC2D00200DB103003EAA0300F0
:109F0000037813B90430FFF715BF7047F0B5064664
:109F100085B014461D4681B17AB173B103AB0022FE
:109F2000FFF778FC10B9039805B0F0BD0095234603
:109F300000223046FFF7C2FCF6E70E20F4E70000EF
:109F400008B5FFF795FC00F0D3FE024B00221A7013
:109F500008BD00BF9C2F002008B5FFF789FC07480B
:109F6000074B036009F052FB00F0B4FEFFF792FAD2
:109F7000FFF784FB034B00221A7008BDA42F0020BA
:109F8000019F02009C2F00202DE9F041044600288B
:109F900000F0BC80002900F0B980C3681BB1836861
:109FA000002B00F0B3804FF6FF730B80E3681BB902
:109FB000A368002B40F0AC80A388002B40F0AA805F
:109FC000574B1B7813B10F20BDE8F081554DAB788E
:109FD000E878C34270D1D4E902870026B74240F046
:109FE0008E800A884FF6FF739A424F4B40D193F808
:109FF000342012F0010205D093F86C20D20700F152
:10A000008D80012238200A8000FB02324FF6FF7655
:10A01000D6800A8800FB023296800A88A78800FB57
:10A02000023297810A88678800FB023257800A88CB
:10A03000278842439F520A8800FB023046742088DA
:10A04000A288B0424FF0060000FB02520BBF90788E
:10A05000D078013001300CBF9070D0700A88382061
:10A0600000FB023292F8340040F0020082F8340023
:10A0700008882569382202FB003005630888A56836
:10A0800002FB003085620888E56802FB00308585A8
:10A090000888646902FB00308461088802FB003490
:10A0A000A082098802FB0133002093F8342042F09B
:10A0B000010283F8342087E71B4B20889A89668841
:10A0C0002AB95F88B74202D11F8887420DD0B3F802
:10A0D0004420002A7FF47FAF5A8FB2427FF47BAFD7
:10A0E0001A8F82427FF477AF0122382000FB0233BF
:10A0F0000A8093F83430D8077FF56DAF63E758F8DE
:10A100003600FFF756FB38B1013667E70E205BE7F4
:10A11000092059E7052057E7072055E7042053E7B2
:10A120009C2F00209E2F0020B02F00207FB50546D9
:10A130000E4619B30DF10A030022009303ABADF8EC
:10A140000A20FFF7BDFC044688B90D48039B38225E
:10A150006A438118C97C49070CD002F11301BDF88C
:10A160000A200092014432462846FFF799FA204619
:10A1700004B070BD18460CF0F6FFF8E70E24F6E7C1
:10A18000B02F002013B514460A4639B134B100236C
:10A1900000932146FFF794FC02B010BD0E20FBE7B0
:10A1A00010B50446FFF726FB88B1272911D80A48C5
:10A1B000382303FB0400C3888B4206D090F8343068
:10A1C000C18043F0020380F83430002000E0052015
:10A1D00010BD0720FCE700BFB02F002010B50446DB
:10A1E00051B1FFF707FB48B1054B382202FB04349D
:10A1F0000020E3880B8010BD0E20FCE70520FAE765
:10A20000B02F0020012870B51DD8104A382404FB57
:10A21000002494F83430DD0715D5E47C01F00705FF
:10A2200004F00706AE4204D1C1F3C405B5EBD40F68
:10A2300007D0382404FB002043F00203C17480F8E7
:10A240003430002000E0052070BD00BFB02F00209A
:10A2500069B101280DD8084B382202FB003090F874
:10A260003430DB0705D5C37C0B70002070470E200F
:10A2700070470520704700BFB02F002038B5044656
:10A28000154699B192B1FFF7B5FA88B10A4838235B
:10A2900003FB040083696BB1837CC3F301030B7080
:10A2A000837CC3F385032B70002038BD0E20FCE7B0
:10A2B0000520FAE70620F8E7B02F00202DE9F3414A
:10A2C0000DF107020DF106010546FFF7D7FF10B1AA
:10A2D000784606F0BFFE284E9DF807709DF80610E0
:10A2E000382303FB05633C46B3F82480032923D8B5
:10A2F000DFE801F005021A1E07EB87046400B4FBD7
:10A30000F8F3092B1CD8002F33D0012B38BF0123C1
:10A31000DFB20021382000FB05603A461430FFF719
:10A32000D5F802B0BDE8F081642417FB04F4E6E739
:10A3300041F270747C43E2E7784606F08BFEDEE77C
:10A34000632B05D80A220121B3FBF2F3DFB2E1E768
:10A3500041F26F72934295BF642241F27072B3FB77
:10A36000F2F3B3FBF2F399BFDFB20221DFB20321B4
:10A37000D0E73946CEE700BFB02F0020012810B546
:10A380000FD80B4A382404FB002393F83420D2075B
:10A3900007D59A693AB141B19984FFF78FFF002040
:10A3A00010BD0520FCE70620FAE70720F8E700BF0C
:10A3B000B02F0020012838B52AD8184C382303FBC9
:10A3C000004393F8345015F0010F254620D09C69C6
:10A3D00004B33F2A20D803291ED89B7CB2EB930FED
:10A3E00003D103F003038B4210D0382404FB005444
:10A3F000A37C62F3870361F30103A374FFF75EFF9D
:10A4000094F8343043F0020384F83430002000E044
:10A41000052038BD0620FCE70720FAE7B02F002012
:10A4200038B5144B19780446E9B9FFF7E3F9E0B100
:10A430001148382202FB0402D289022A11D10F49A5
:10A440000B7813F0010203D00B7BDA070FD4012243
:10A450000C25554343F003034B55382303FB0404F9
:10A46000E281002038BD0F20FCE70520FAE7042038
:10A47000F8E700BF9C2F0020B02F002020300020E4
:10A48000F8B505460C46FFF7B5F908B3144B38226A
:10A4900002FB0535EB89022B1CD027291CD80C2583
:10A4A000104F5D432E1D3E443046FFF775F9A8B9A5
:10A4B0006209012304F01F0403FA04F456F8223061
:10A4C000234346F822307B5D43F002037B55F8BD01
:10A4D0000520FCE70620FAE70720F8E70020F6E76A
:10A4E000B02F002020300020F8B505460C46FFF7BD
:10A4F00081F918B3144B382202FB0535EB89022B86
:10A500001ED027291ED80C25104F5D432E1D3E441A
:10A510003046FFF741F980B16209012304F01F04BE
:10A5200003FA04F456F8223023EA040346F82230F2
:10A530007B5D43F002037B550020F8BD0520FCE75E
:10A540000620FAE70720F8E7B02F0020203000208F
:10A550002DE9F047064615460F4651B34AB3FFF7BB
:10A5600049F940B3174B382202FB0636F389022B18
:10A5700023D00024DFF85090B5F800802C804FF0F5
:10A580000C0AF08901280ED80AFB009021460430FD
:10A59000FFF702F938B12B88984510D927F81340F6
:10A5A0002B8801332B800134282CEAD10020BDE810
:10A5B000F0870E20FBE70520F9E70620F7E70920E2
:10A5C000F5E700BFB02F002020300020F8B5064688
:10A5D0000F46FFF70FF9C0B1112918D838250E4CD6
:10A5E000754305F10806A019FFF7D6F888B90123CD
:10A5F00003FA07F1A3590B43A3512C4494F83430C8
:10A6000043F0020384F83430F8BD0520FCE707204E
:10A61000FAE70020F8E700BFB02F0020F8B50646A3
:10A620000F46FFF7E7F8D0B111291AD838250E4C9C
:10A63000754305F10806A019FFF7AEF870B10123C4
:10A6400003FA07F1A35923EA0103A3512C44002084
:10A6500094F8343043F0020384F83430F8BD052018
:10A66000FCE70720FAE700BFB02F00202DE9F041FA
:10A67000064615460F46F9B1F2B1FFF7BBF8E8B14F
:10A68000104BB5F800803822002402FB06362C80DF
:10A69000083621463046FFF77FF838B12B889845B9
:10A6A0000ED927F813402B8801332B800134082C56
:10A6B000EFD10020BDE8F0810E20FBE70520F9E78F
:10A6C0000920F7E7B02F002010B50446FFF792F8F5
:10A6D00088B1112911D80A48382303FB0400838864
:10A6E0008B4206D090F83430818043F0020380F82A
:10A6F0003430002000E0052010BD0720FCE700BF3B
:10A70000B02F002010B5044651B1FFF773F848B1DF
:10A71000054B382202FB04340020A3880B8010BDB7
:10A720000E20FCE70520FAE7B02F0020030605D431
:10A73000012803D0024B1870002070470720704793
:10A74000A42D0020014B1878704700BFA42D0020D5
:10A7500010B50446FFF74EF890B10A4A382303FBC0
:10A760000423187C88421EBF93F8340040F0020096
:10A7700083F83400382303FB04240020217410BD27
:10A780000520FCE7B02F002010B5044651B1FFF7BB
:10A7900031F848B1054B382202FB04340020237CF9
:10A7A0000B7010BD0E20FCE70520FAE7B02F00204B
:10A7B00010B50446FFF71EF898B181F080037E2B98
:10A7C00011D90A48382303FB0400437C8B4206D08E
:10A7D00090F83430417443F0020380F834300020A4
:10A7E00000E0052010BD0720FCE700BFB02F0020CF
:10A7F00010B5044651B1FEF7FDFF48B1054B3822B4
:10A8000002FB04340020637C0B7010BD0E20FCE7BB
:10A810000520FAE7B02F002048B9064B1A888A4273
:10A8200006D05A79198042F002025A717047052009
:10A83000704700BF9E2F002021B128B9034B1B8811
:10A840000B8070470E207047052070479E2F002018
:10A8500021B128B9034B9B780B7070470E207047CD
:10A86000052070479E2F002021B128B9034BDB78CB
:10A870000B7070470E207047052070479E2F0020F8
:10A8800010B5044661B1FEF7B5FF58B1064B38204C
:10A8900060431A1852884A801B5A0B80002010BD52
:10A8A0000E20FCE70520FAE7B02F002073B50191D8
:10A8B00012B310B1052002B070BD4FF6FF730F49FF
:10A8C00013808B89BDF80440BDF8065008462BB9AB
:10A8D0004E88AE4202D10988A1420AD0B0F8443075
:10A8E000002BE7D1438FAB42E4D1038FA342E1D1E8
:10A8F000012313800020DEE70E20DCE7B02F0020CC
:10A90000F0B509B302B308BB124E158810800223BC
:10A910006FF037071088A8421AD207FB036494F837
:10A92000A4C01CF0010F09D0B4F87C4034B9C3F1C5
:10A93000020421F81040108801301080012B01D151
:10A940000020F0BD0123E5E70E20FAE70520F8E737
:10A950000920F6E7B02F002010B5044651B1FEF7EC
:10A9600049FF48B1054B382202FB04340020236B19
:10A970000B6010BD0E20FCE70520FAE7B02F002089
:10A9800070B50646FEF736FF08B33825114C7543FF
:10A99000002205F1140011462044FEF797FD3046D1
:10A9A0006619103500F0EAF92C44F08800F04AFDF1
:10A9B00000204FF0FF3373606070A070E07096F875
:10A9C0003430B07543F0020386F8343070BD052092
:10A9D000FCE700BFB02F0020112837B505461CD872
:10A9E0000DF106010020FFF78DFE28B9BDF80630F5
:10A9F000AB4201D1FFF7C4FF0DF106010120FFF7C3
:10AA000081FE044658B9BDF80630AB4202D10120A0
:10AA1000FFF7B6FF204603B030BD0724FAE7002455
:10AA2000F8E700002DE9F04F5A4DB5F8703085B0C9
:10AA3000804613B9784606F00DFB574CDFF86CA141
:10AA40004FF6FF7308F57A79A5F87230002604F105
:10AA5000040B94F82830CBB1A369A3EB0903002BB6
:10AA600019DA002384F82830B5F87030013BA5F8D6
:10AA7000703003A92088FFF76FFF10B1784606F009
:10AA8000E9FAE36903992088012298472C34002EC3
:10AA900050D10126DDE7236AA3EB0902002A66DA1A
:10AAA000A5F872602C2101FB06B12088FFF73EFB60
:10AAB0000746E8B1DAF800309B0417D5374B1B681E
:10AAC000042B13DD2F2136480FF0E4FEE8B12F21CF
:10AAD00033480FF0DFFE411C324B334AD3F80435C4
:10AAE00000920197802205200AF084FD082F15D1DD
:10AAF000D4E908231A445B0022626362A269236AD4
:10AB0000D31A002BC2DA2262C0E75C2124480FF07E
:10AB1000C1FE08B15C21DBE72149DDE7042F01D04C
:10AB20000F2F20D12C2303FB0656B36B03F51C43D8
:10AB30004033B363B5F870304BB3B5F87230012BC6
:10AB400002D9784606F086FAB5F872302C2202FB5C
:10AB500003539B6BB3EB080248BFA8EB0302EA6008
:10AB600005B0BDE8F08F784606F074FAC6E7B5F890
:10AB700072204FF6FF718A4206D02C2101FB02524F
:10AB8000926B9B1A002B81DAA5F872607EE7EB606E
:10AB9000E6E700BF3830002050300020C42D0020F0
:10ABA0004DB103000010014072B10300C82D002018
:10ABB00038B52C4C2C2303FB0043054693F840305A
:10ABC00013B9784606F046FAB4F8703013B97846EF
:10ABD00006F040FA2C2202FB0542002382F84030A6
:10ABE000B4F87030013B9BB2A4F87030A3B3B4F852
:10ABF0007230AB4235D1926B1B4B134494F840201A
:10AC0000EAB1A26BD11A0029B8BF13464FF6FF7202
:10AC1000B8BF002294F86C10A1B1616ECB1A002B62
:10AC200010DA0123A4F87230B4F872300D482C22E7
:10AC300002FB0344A16BBDE8384008F016BF4FF695
:10AC4000FF72E7E74FF6FF739A42A4F87220EBD148
:10AC5000784606F0FFF9E7E70248BDE8384008F01B
:10AC6000EDBE38BD38300020008793030128F8B5C9
:10AC700005460E46174602D9784606F0EBF909F06C
:10AC8000EFFB134B93F8402012B11A8BAA421DD050
:10AC900093F86C20B2B1B3F84420AA4212D101203B
:10ACA0002C2404FB00343388A28D9A420AD1E28D11
:10ACB00073889A4206D1FFF77BFF636B0022394607
:10ACC00028469847BDE8F84009F00ABC0020E7E7AD
:10ACD0003830002010B5044C7422002120460FF0BB
:10ACE00009FD024BA36010BD3830002025AA0200E8
:10ACF00073B51F4C09F0B4FBB4F870302BB10023CE
:10AD00002046A4F8703008F099FE94F840307BB1EA
:10AD1000258B1848666B00212C220FF0EBFC01A953
:10AD20002846FFF719FEF0B9022201992846B047DC
:10AD300094F86C309BB1B4F844500F48246E002155
:10AD40002C220FF0D7FC01A92846FFF705FE10B111
:10AD5000784606F07FF9022201992846A04709F0BB
:10AD6000BFFB02B070BD784606F074F9DCE700BFA7
:10AD700038300020503000207C300020012873B58E
:10AD800005462DD8174C09F06BFB94F8403013B1F1
:10AD9000238BAB4220D094F86C30FBB1B4F8443034
:10ADA000AB421BD101263046FFF702FF01A928461E
:10ADB000FFF7D2FD10B1784606F04CF92C2303FBC7
:10ADC00006440222636B019928469847002409F043
:10ADD00087FB204602B070BD0026E4E70524F6E7B5
:10ADE0000524F6E7383000204A09012301F01F014D
:10ADF00003FA01F150F82230194214BF012000205B
:10AE000070474A09012301F01F0103FA01F150F8CC
:10AE100022300B4340F8223070474A09012301F0E9
:10AE20001F0103FA01F150F8223023EA010340F830
:10AE300022307047A0F1200189B2072902D80248C8
:10AE4000FFF7D2BF00207047BC3000202DE9F0474B
:10AE50004FF6FF73DFF84080DFF840900B80074625
:10AE60000D4600241E464FF0AC0A21464046FFF72F
:10AE7000BBFF40B10AFB04F333F80930BB4206D1F3
:10AE80002C80BDE8F0872B88B34208BF2C800134AA
:10AE9000082CEAD10020F4E7943300209C330020F2
:10AEA0002DE9F0474FF6FF73DFF84880DFF8489050
:10AEB0000B8007460D4600241E464FF0160A214619
:10AEC0004046FFF791FF48B10AFB04F333F809301D
:10AED000BB4209D108342C80BDE8F0872B88B342EF
:10AEE00004BF04F108032B8001340A2CE7D10020B1
:10AEF000F2E700BF9C320020A43200202DE9F04789
:10AF00004FF6FF73DFF84080DFF840900B80074674
:10AF10000D4600241E464FF02A0A21464046FFF700
:10AF200063FF40B10AFB04F333F80930BB4206D19A
:10AF30002C80BDE8F0872B88B34208BF2C800134F9
:10AF4000082CEAD10020F4E7443100204C310020E5
:10AF500010B5044610B9784606F07CF80A4B00227A
:10AF600093F8421090B269B1A3420AD003F12101D3
:10AF70008C4206D00132082A03F1AC03F0D14FF61F
:10AF8000FF7010BDA342F4E7BE3300202DE9F04767
:10AF90004FF6FF760E80144607460D4608F052F92C
:10AFA000022820701ED1DFF87480DFF874A000241E
:10AFB0004FF014092B88B3420AD121465046FFF7BF
:10AFC00013FF28B92C800134082CF3D1002007E0AE
:10AFD00009FB04F333F80830BB42F4D12C80012084
:10AFE000BDE8F08700F0FD000128EFD1DFF83480E4
:10AFF000DFF8349000242B88B34209D1214648461B
:10B00000FFF7F2FE20B92C800134202CF3D1DDE7CC
:10B0100038F82430BB42F7D1E0E700BFFC3800200D
:10B02000BC300020C4300020AC3000202DE9F047B7
:10B030004FF6FF73DFF84C80DFF84CA00B8007461B
:10B040000D4600244FF0140921464046FFF7CCFE80
:10B05000064650B92A884FF6FF739A4200D12C80D9
:10B060000134082CF0D1002608E01022394609FBF3
:10B0700004A00FF025FB0028F2D12C803046BDE85B
:10B08000F08700BFBC300020003900202DE9F347D5
:10B090004FF6FF7688461446ADF8066081460028D4
:10B0A0003ED000293CD00DF10601FFF7BFFFBDF8EF
:10B0B000063003F12005ADB2F0B9B34232D0A5F1AC
:10B0C000200714267E43DFF868A0301D4946102271
:10B0D00050440FF004FB0AEB060148460AF0B8F9A9
:10B0E00010B1784605F0B6FF39460F48FFF789FEE4
:10B0F00039460E48FFF785FEBDF806300C4AA8F821
:10B100000050142101FB032334B9DA780132DA70DC
:10B11000002002B0BDE8F0879A7801329A70F7E714
:10B120000E20F6E70420F4E7BC300020C0300020F9
:10B13000FC38002001460148FFF756BEAC30002025
:10B1400008B528B9784605F085FF4FF6FF700BE08B
:10B15000064B9842F9D303F2B4429042F5D8C01A94
:10B16000AC23B0FBF3F080B208BD00BF1034002068
:10B1700008B528B9784605F06DFF4FF6FF700BE073
:10B180000C4B984209D303F59372904205D8C01A2C
:10B190002A23B0FBF3F080B208BD074B9842ECD3F2
:10B1A00003F1C6029042E8D8C01A1623B0FBF3F0B0
:10B1B0000830F0E750310020A832002041090B4A46
:10B1C00000F01F004FF0FF33834052F8210003408E
:10B1D00009D05A421A40064B5343DB0E054AD05C55
:10B1E00000EB411070470820704700BF94330020E7
:10B1F00031B57C07E5B103001F2810B5044602D81D
:10B20000FFF798FF28B92046FFF714FE00F0010071
:10B2100010BD0120FAE700001F2870B5044611D8C0
:10B22000FFF788FF70B1124E06EB8403987838B9A7
:10B23000DD78E5B921460F48FFF7EFFD26F82450E9
:10B24000002014E02046FFF7F5FD78B1A4F12001BD
:10B25000094E14244C43331998780028F0D1DD7836
:10B260002DB90648FFF7D9FD3553E9E7052070BD34
:10B27000C4300020AC300020FC380020BC3000205E
:10B280000020704710B500231A481946C21804332D
:10B29000802BD1709170F9D1002317491C46CA1830
:10B2A0001433A02BD4709470F9D1042200211348D8
:10B2B0000FF020FA0422002111480FF01BFA04229B
:10B2C000002110480FF016FA042200210E480FF05A
:10B2D00011FA042200210D480FF00CFA042200217B
:10B2E0000B480FF007FA0B4B1C805C800A4B1C705C
:10B2F00010BD00BFC4300020FC380020B430002056
:10B30000AC300020BC3000209433002044310020B9
:10B310009C32002082330020803300200248034BFF
:10B32000036008F073B900BF88330020D1BB02006E
:10B3300070B5044610B9784605F08CFE154E30689D
:10B3400010F0010523D1208863880344984201DB73
:10B350000B2070BD07F076FF0128F9D120886388A3
:10B360001844013880B207F06DFF0128F0D10422A3
:10B37000214609480FF0B3F93368084A43F0010346
:10B380003360136843F0010313602846E1E70F20A0
:10B39000DFE700BFB430002082330020B830002047
:10B3A00010B5044610B9784605F054FE2046042234
:10B3B0000249BDE810400FF092B900BF823300206F
:10B3C00073B506460D4661B30DF105020DF1060198
:10B3D000FFF7DCFD9DF8053003F0FD03012B22D1C2
:10B3E00098B9BDF806404FF6FF739C421DD0104B34
:10B3F00023F8246003EB8403214658800D48FFF7AF
:10B4000000FD21460C48FFF7FCFCBDF80620084B68
:10B410002A8003EB820300209A7801329A7002B0EE
:10B4200070BD0E20FBE71020F9E70420F7E700BF0E
:10B43000C4300020AC300020B03000200122FFF7E3
:10B4400025BE00001F2810B504460DD8FFF772FE78
:10B4500050B10C4B03EB84039A78013A9A70204662
:10B46000BDE81040FFF7D8BE2046FFF7E3FC30B13F
:10B47000054AA4F12003142101FB0323ECE7052076
:10B4800010BD00BFC4300020FC38002073B5064654
:10B490000D4651B30DF105020DF10601FFF776FDE2
:10B4A0009DF80530032B22D198B9BDF806404FF620
:10B4B000FF739C421DD0104B23F8246003EB8403E0
:10B4C000214658800D48FFF79CFC21460C48FFF7A9
:10B4D00098FCBDF80620084B2A8003EB820300206D
:10B4E000DA780132DA7002B070BD0E20FBE710206E
:10B4F000F9E70420F7E700BFC4300020AC3000209B
:10B50000B03000200022FFF7C1BD000038B505466D
:10B510000C4609B31F280ED8FFF70CFE58B1104B8C
:10B5200033F82520628033F8250007F08BFE207069
:10B530000020606038BD2846FFF77CFC70B1142302
:10B54000203D084A5D430020535B63800435154469
:10B55000022365602370EDE70E20EBE70520E9E7A5
:10B56000C4300020FC38002013B50446FFF744FE29
:10B5700008B369462046FFF7C9FFC0B99DF80030FF
:10B58000032B0BD10D4B03EB8403DA789AB1013A0C
:10B59000DA702046FFF740FE02B010BD022B08D142
:10B5A000074AA4F12003142101FB0323EDE7002047
:10B5B000F2E70F20F0E70520EEE700BFC4300020DF
:10B5C000FC3800202DE9F0410E46074658B351B330
:10B5D0000025DFF858802C4629464046FFF704FC3A
:10B5E00040B13368A34202D10920BDE8F08127F8B9
:10B5F000145001340135202DEED1DFF834800025C0
:10B6000029464046FFF7F0FB38B13368A342EBD040
:10B6100005F1200327F8143001340135082DEFD14E
:10B6200034600020E1E70E20DFE700BFAC300020EF
:10B63000BC3000202DE9F7430D46044600283CD0DD
:10B6400000293AD0408807F0FDFD022824D00328C5
:10B6500001D0012833D14FF6FF73DFF86880DFF89F
:10B66000689067882B8000241E4621464046FFF7DD
:10B67000BBFB40B139F82430BB4208D12C800020FC
:10B6800003B0BDE8F0832B88B34208BF2C8001349F
:10B69000202CEAD10520F3E760684FF6FF73ADF880
:10B6A000063050B10DF10601FFF7C0FC0028F1D0C3
:10B6B000BDF8063020332B80E1E70E20E0E71020B4
:10B6C000DEE700BFAC300020C430002007B50DF12C
:10B6D0000601FFF7BBFB20B1BDF8060003B05DF823
:10B6E00004FB4FF6FF70F9E708B1FFF731BC4FF6E6
:10B6F000FF70704707B50DF10601FFF7FFFB20B1A2
:10B70000BDF8060003B05DF804FB4FF6FF70F9E7E3
:10B7100008B1FFF72DBD4FF6FF70704738B50446EE
:10B720000D4669B107280DD801460748FFF75CFBB5
:10B7300040B12A206043054B1B5A2B80002038BDA6
:10B740000E20FCE70520FAE7443100204C310020B0
:10B75000112870B504460E4645D8002941D0072867
:10B7600021D801462148FFF73FFB00283BD0204D60
:10B770002A2303FB04535B88072B02D9784605F084
:10B7800069FC2A2303FB04531A485988FFF72CFB52
:10B7900010B9784605F05EFC2A2303FB0454002010
:10B7A0006388338070BDA0F1080421461248FFF77A
:10B7B0001BFBC0B1114D162303FB04535B88072B01
:10B7C00002D9784605F046FC162303FB04530948CA
:10B7D0005988FFF709FB10B9784605F03BFC1623A2
:10B7E000DBE70E20DEE70520DCE700BF4431002068
:10B7F0004C310020943300209C320020A4320020E1
:10B800002DE9F0478046C6B091460E46002900F06B
:10B81000AC80002A00F0A980B0F5805F80F0A7809E
:10B820001146FFF713FBB9F8007078B1534BAC2009
:10B8300000FB07301022314602300EF041FF002895
:10B8400014BF0F20032046B0BDE8F0874FF6FF730A
:10B850009F4200F08E80494DAC2000FB07F42A196E
:10B8600004F168032B449367B8F1000F02D1444BF5
:10B8700001221A7004F122012944304609F0AFFD7B
:10B8800010B1784605F0E6FB04F17C01294430460E
:10B8900009F0B6FD10B1784605F0DCFBA01C1022C3
:10B8A000314628440EF01BFF04F112001022002143
:10B8B0004FF0AC0A28440EF01DFF0AFB07F3EA180C
:10B8C000002482F8644039462E4825F80380FFF7AB
:10B8D00098FA39462C48FFF794FAB9F800100AFB99
:10B8E000015140468C3107F098FE284B186810F43F
:10B8F0008020A8D0264B1B68062B3CDD254B1A6800
:10B90000204605AC335C190903F00F03515C04F8C1
:10B910001010D15C04EB4003013010285970F1D1B4
:10B9200000232F211C4884F820300EF0B3FF98B17B
:10B930002F2119480EF0AEFF411C184B184AD3F8BE
:10B9400004350192174A00920720029440F66E12C5
:10B9500009F050FE002076E75C210F480EF09AFFB8
:10B9600008B15C21E5E70C49E7E70E206BE707200B
:10B9700069E7042067E7204665E700BF9C330020A5
:10B98000803300209433002098330020C82D0020FD
:10B99000C42D0020CC2D0020AEB1030000100140CA
:10B9A000D8B103003EAA0300072838B504460D4667
:10B9B0000DD801460748FFF717FA40B1064BAC22F5
:10B9C00002FB0434002094F864302B7038BD05204D
:10B9D000FCE700BF943300209C3300202DE9F041A8
:10B9E0000646884600294AD007284AD801462648F4
:10B9F000FFF7FAF9002844D0244BAC2474431A19F9
:10BA00001D4692F8642062B1012A07D104F11200A8
:10BA10001022414618440EF053FE00B10820BDE844
:10BA2000F08104F112071F444146102238460EF0FF
:10BA300056FE04F143012944404609F0D0FC10B100
:10BA4000784605F007FB04F194012944384609F0D3
:10BA5000D7FC10B1784605F0FDFAAC237343E91822
:10BA6000012281F8642004F1A401E85A294407F076
:10BA700015FA07483146FFF7C4F90020CFE70E203A
:10BA8000CDE70520CBE700BF943300209C33002096
:10BA900098330020072810B504461BD801460F48EC
:10BAA000FFF7A2F9B0B10E48AC236343C11891F877
:10BAB0006420012A10D1022281F8642003F1A4013C
:10BAC0000144C05A07F0EAF906482146FFF799F900
:10BAD000002010BD0520FCE70820FAE79433002081
:10BAE0009C3300209833002007282DE9F8430746AF
:10BAF0005BD801462F48FFF777F9002855D02E4D27
:10BB0000AC247C4305EB040898F86430002B4ED03D
:10BB100004F11201A01C1022294428440EF0DFFD7C
:10BB200004F1430104F122002122294428440EF0AB
:10BB3000D6FD04F1940104F17C0018222944284424
:10BB40000EF0CDFD002604F18C0188F864603246C9
:10BB5000285BDFF878802944344607F09FF9174EB8
:10BB6000A6F1130921464046FFF73EF998B12A2075
:10BB7000134D604305446B88BB420CD1AB7D53B180
:10BB80003118122248440EF0AAFD0023AB7521465D
:10BB90000C48FFF736F90134082CE3D10A4839463E
:10BBA000FFF72FF90020BDE8F8830520FBE7082008
:10BBB000F9E700BF943300209C330020633100205C
:10BBC0004C310020483100209833002044310020BF
:10BBD00070B50378042B1ED1D0E90146457E20467E
:10BBE000FFF7AEFA4FF6FF72904214D02034A6420F
:10BBF00011D1094AAC2101FB002393F864302DB127
:10BC0000012B08D1BDE87040FFF744BF1BB1BDE870
:10BC10007040FFF769BF70BD9C3300202DE9F047ED
:10BC20000D46064600B3F9B10024DFF84480DFF882
:10BC300044900F680C604FF0AC0A21464046FFF775
:10BC4000D3F858B12B689F4210D00AFB04F232F8A7
:10BC5000092026F813202B6801332B600134082CAF
:10BC6000EBD10020BDE8F0870E20FBE70920F9E7C3
:10BC7000943300209C3300202DE9F04F8246C9B058
:10BC8000884699461746002A7FD0002B7DD007F0C2
:10BC9000D9FA012883467AD1B8F1070F79D84146FD
:10BCA0004048FFF7A1F8002873D00DF11A01504663
:10BCB000FFF7F6F8044600286DD1BDF81A504FF68C
:10BCC000FF739D4269D0083D1626374B05936E439E
:10BCD000B01D1022394618440EF001FD059B334873
:10BCE00023F806A09A192946547182F804B0A2F8E4
:10BCF0000280FFF786F82E482946FFF782F8BDF844
:10BD00001A30A9F800302B4B186810F4802030D07E
:10BD1000294B1B68062B42DD284B1A68204607ACCE
:10BD20003B5C190903F00F03515C04F81010D15C5F
:10BD300004EB4003013010285970F1D100232F216A
:10BD40001F4884F820300EF0A5FDA8B12F211C4813
:10BD50000EF0A0FD411C1B4B1B4AD3F80435019289
:10BD60001A4A00920720029440F6752209F042FC1C
:10BD7000002049B0BDE8F08F5C2111480EF08AFD2B
:10BD800008B15C21E3E70E49E5E70E20F1E710205A
:10BD9000EFE70520EDE70F20EBE70420E9E7204679
:10BDA000E7E700BF94330020A43200209C3200203B
:10BDB000A0320020C82D0020C42D0020CC2D002052
:10BDC000AEB1030000100140A1B103003EAA030080
:10BDD000083838B585B2092D0FD829460848FFF72D
:10BDE00003F850B116236B43064A05480024D45289
:10BDF0002946FFF712F8204638BD0520FCE700BFB2
:10BE00009C320020A43200202DE9F0470746C6B03E
:10BE100088461C461646002A00F09880002B00F049
:10BE20009580072900F294804D48FEF7DDFF002839
:10BE300000F08E80B7F5805F80F08C802146384618
:10BE4000FFF75CF8B4F80090824678B1454B2A20A1
:10BE500000FB09301022314606300EF031FC00287C
:10BE600014BF0F20032046B0BDE8F0874FF6FF73E4
:10BE7000994571D02A2505FB09F53A4CA81D1022D9
:10BE8000314620440EF02BFC05F1190051461022DA
:10BE900020440EF02FFC691D2144304609F096FA2B
:10BEA00010B1784605F0D6F82A2303FB09F3E2180F
:10BEB0000025E75215719575A2F8028049462A4877
:10BEC000FEF79FFF29484946FEF79BFF284B18685D
:10BED00010F48020C7D0274B1B68062B3EDD264B75
:10BEE0001A68284605AC335C190903F00F03515C4E
:10BEF00004F81010D15C04EB400301301028597095
:10BF0000F1D100232F211D4884F820300EF0C2FC0F
:10BF100098B12F2119480EF0BDFC411C184B194A4D
:10BF2000D3F804350192184A00920720029440F693
:10BF3000C52209F05FFB002095E75C210F480EF059
:10BF4000A9FC08B15C21E5E70C49E7E70E208AE788
:10BF5000052088E7072086E7042084E7284682E753
:10BF6000943300204C31002044310020483100201F
:10BF7000C82D0020C42D0020CC2D0020AEB1030020
:10BF80000010014094B103003EAA0300F8B5054635
:10BF90000E4600293AD007283AD801461D48FEF738
:10BFA00023FFA8B31C481D492A246C430319AC275E
:10BFB0005A8807FB0212074692F86420012A09D129
:10BFC00004F119010844997D31B1102231460EF077
:10BFD00077FB00B10820F8BD9A75314610220EF0AB
:10BFE0007EFB04F118013944304609F0EFF910B135
:10BFF000784605F02FF82A2303FB057308481A79C1
:10C00000DA752946FEF7FDFE0020E4E70E20E2E7A0
:10C010000520E0E7443100204C3100209C33002013
:10C0200048310020072810B504460AD801460648C2
:10C03000FEF7DAFE28B104482146FEF7EEFE0020A6
:10C0400010BD0520FCE700BF4431002007282DE982
:10C05000F04105463CD801461F48FEF7C5FE0028C2
:10C0600036D00020FFF7AAF80024082828D1012C98
:10C0700030D01A4E1A4F00244FF02A08214630467D
:10C08000FEF7B2FE58B108FB04735B88AB4206D1E1
:10C09000A0B2FFF7C7FF10B1784604F0DBFF013410
:10C0A000082CEBD1AC236B430E4AD35A0BB90E4A82
:10C0B000137009482946FEF7B0FE0020BDE8F08164
:10C0C0000130072804F10104D1D8FFF777F8CCE755
:10C0D0000520F3E70F20F1E79433002044310020DE
:10C0E0004C3100209C330020803300202DE9F84F94
:10C0F000064615460F4669B362B307282CD8014699
:10C100001748FEF771FE38B30024DFF858A0DFF8B7
:10C110005880D5F800902C604FF02A0B21465046ED
:10C12000FEF762FE80B10BFB04F208EB02035B88B2
:10C13000B34209D12B68994510D032F8082027F86E
:10C1400013202B6801332B600134082CE6D100202A
:10C15000BDE8F88F0E20FBE70520F9E70920F7E797
:10C1600094330020443100204C31002070B5064645
:10C170000C461546002A51D0112951D8072992BFE3
:10C1800029482A48A4F10801FEF72EFE002847D0CE
:10C190004FF6FF739E420DD1072C95BF244A254AC6
:10C1A0002A23A4F108038ABF162103FB042301FB01
:10C1B00003235E88072E35D831461F48FEF714FE4C
:10C1C00080B3072C1D4923D8AC2303FB0613184862
:10C1D00093F86430022B15D12A236343C218927D51
:10C1E00082B1173303446B60AC2303FB06F00B18DA
:10C1F00093F86430022B0CBF43302230084428608F
:10C20000002070BD2A2202FB040404346C60EBE7BA
:10C21000084B083C162202FB0434F6E70E20F0E738
:10C220000520EEE70820ECE7443100209C32002096
:10C230004C310020A4320020943300209C33002095
:10C2400038B50D46FFF742FA044675B107280ED8F7
:10C2500001460848FEF7C8FD48B1074BAC2202FB77
:10C26000043422342C60002038BD0E20FCE7052069
:10C27000FAE700BF943300209C3300202DE9F843F7
:10C28000074690460E4611B9784604F0E3FEB8F131
:10C29000000F02D1784604F0DDFE306807F07F071A
:10C2A00030BB002400233360C8F800301B4BDFF89C
:10C2B0007090AC2505FB0435A3B2072B16D8214698
:10C2C0004846FEF791FD00B395F8643095F82200DA
:10C2D00005F12201ABB1874205F1430395F84320F4
:10C2E00016D1BA420FD13160C8F80030BDE8F883EA
:10C2F000FEF72EFE4FF6FF739842D2D0441CA4B234
:10C30000D0E7874201D1316005E0AC350134D3E795
:10C310009742FAD133600023E6E700BF9C33002048
:10C32000943300202DE9F04704468846164612B99A
:10C33000784604F08FFE14B9784604F08BFE204650
:10C34000FFF7D2F94FF6FF739842074603D1002357
:10C350003360BDE8F087306800B3FEF709FF441C86
:10C360001148DFF848A02A2505FB0405053581465C
:10C37000072CECD821465046FEF736FD80B135F843
:10C38000033CBB420CD12B7888EA03039B0607D100
:10C390002A2000FB049404343460DAE70446DFE723
:10C3A00001342A35E4E700BF4C310020443100203D
:10C3B00070B504460D4611B9784604F04BFE4CB1F9
:10C3C00008490023162000FB03F2565AA64203D167
:10C3D000141D0C442C6070BD01330A2BF3D10024D2
:10C3E000F8E700BFA43200202DE9F0470746914648
:10C3F000884611B9784604F02DFEB9F1000F02D13C
:10C40000784604F027FED8F8000000284CD0FEF74C
:10C4100097FE441C254EDFF89CA0AC2505FB046567
:10C420008C353BE021465046FEF7DEFCA0B315F804
:10C43000283C4BB94FB10822294638460EF040F946
:10C44000B0FA80F0400901E0CFB9012020B3184BC9
:10C450001B78FBB1AC236343F35AB3FA83F35B0954
:10C46000AC20444332197434264482F87430C8F83E
:10C47000006092F8643089F80030BDE8F087082247
:10C48000294638460EF01CF90028DED0082205F1B6
:10C490001801D2E70123E3E70134AC35072CC1D9F9
:10C4A0000023C8F80030E8E70446B3E79C330020D7
:10C4B00080330020943300202DE9F74306460C46D4
:10C4C00006F0C0FE02285FD0032818D0012801D052
:10C4D000002011E0484B1B6813F00103F8D0474BD4
:10C4E0001A889642F4D35B8813449E424FF00003AF
:10C4F000EEDA66802070636003B0BDE8F08300234D
:10C500006360A6F57F43FC3B66802070032B16D842
:10C5100001A252F823F000BFD1C40200D1C402002E
:10C5200029C5020085C5020001A901200AF0C7FD46
:10C5300010B1784604F08EFD9DF80400DCE74FF65C
:10C54000FF752F4FDFF8C0900024A84645450FD156
:10C5500021464846FEF748FC50B9A5B20134202CCC
:10C56000F4D109F019FF4088831B58425841C3E7B2
:10C5700037F82420B2424FEA8403EFD13B44DB7802
:10C58000002BEBD00120B7E76068E8B94FF6FF73E6
:10C59000ADF80430BDF80450DFF87080194F072D56
:10C5A0004FF6FF7394BF01350025ADF804304FF00E
:10C5B0001409082D8CD029464046FEF715FC48B9D1
:10C5C000ADF804500135F4E701A9FEF72FFD00286E
:10C5D000DCD0DFE709FB05F3DA5BB242F2D1FA18EF
:10C5E000D278002A3FF474AF043302221F446680DD
:10C5F0002270676080E700BFB430002082330020E3
:10C60000C4300020FC380020AC300020BC300020BA
:10C6100038B50C46054600B111B9784604F01AFD4C
:10C62000024B1A882A805B88238038BD8233002021
:10C6300007B50378022B0AD0032B01D0012B17D1A9
:10C6400069464088FFF738FF03B05DF804FB694690
:10C650004068FEF7EBFC0028F6D0BDF80030054A34
:10C66000142101FB0323D878003018BF0120EBE729
:10C670000020E9E7FC3800202DE9F04F0C4689B096
:10C68000814600B111B9784604F0E4FC2388152BEB
:10C6900002D8784604F0DEFC4FF6FF724FF4201308
:10C6A000CDE905230025012305A90A224846ADF856
:10C6B0001C30ADF806500EF012F80A2323800DF15D
:10C6C0000E012846FEF7C4F810B1784604F0C2FC0B
:10C6D0000DF10F010020FEF7C7F810B1784604F005
:10C6E000B9FC9DF80E309DF80F20D3423DD003A930
:10C6F0000020FEF7A1F810B1784604F0ABFC08AAC0
:10C7000002230DF1080822F81A3D41460020FEF7E9
:10C71000F7F810B1784604F09DFC2088042203A9A4
:10C7200048440DF0DCFF26889DF80E300436B6B282
:10C73000268053B10027BDF806A03D464FF6FF7B8B
:10C74000574515D323881D4425809DF80F3063B1CC
:10C750002388BDF806700026994435464FF6FF7AC7
:10C76000BE421DD323881D44258009B0BDE8F08F4B
:10C7700004A938F81700FEF783F810B1784604F0E2
:10C7800069FCBDF810305B4508D1A81902220DF1F3
:10C79000120148440DF0A3FF0235ADB20137CFE7D7
:10C7A00004A938F81600FEF76BF810B1784604F0CB
:10C7B00051FCBDF8103053450FD0022204A909EBFB
:10C7C00005000DF08CFFA81C02220DF1120119FAD0
:10C7D00080F00DF084FF0435ADB20136C0E70000F3
:10C7E000024B1B6803B11847704700BF9C390020FB
:10C7F00013B5044601A8FEF7D3FDBDF80400001BE5
:10C8000018BF4FF0FF3080B202B010BD37B50446FC
:10C8100009F0C6FD0546002301A80093FEF7C0FD00
:10C820006946288AFFF70CFD30B9009B6360BDF8AC
:10C830000430238003B030BD0520FBE71FB5019312
:10C84000BDF81830ADF808300023ADF800208DF8A1
:10C850000A304FF6FF720223ADF802208DF80B303C
:10C860006A46079B0393FDF78DFC05B05DF804FB5A
:10C870007FB505460E46002003A98DF808000AF092
:10C880001EFC10B1784604F0E5FB9DF80D309DF8D4
:10C890000820013B0A2104AC63F30202BDF80E300C
:10C8A000B3FBF1F3013B63F3C70204F8082D06F074
:10C8B000B5FE01230190009348F22502234631463C
:10C8C0002846FFF7BBFF04B070BD7FB50B89012B75
:10C8D00006460D4631D14C688DF804302378C3F3F9
:10C8E000020301338DF805302378DA080A2302FBAE
:10C8F0000333142BB8BF142301A90020ADF8063070
:10C900000AF0CCFB10B1784604F0A4FB304629466F
:10C91000FFF7AEFF0023CDE9023311238DF8083075
:10C920002378C3F302038DF80C30237802A8C3F3F5
:10C93000C4038DF80D30FFF753FF04B070BD0B89B1
:10C940000BB9FFF795BF704737B504460D4606F0A3
:10C9500065FE084B1860084B01221A7000230190F5
:10C96000009348F24A0229462046FFF767FF03B0CA
:10C9700030BD00BFA4390020A039002030B50B899C
:10C98000032B85B005460C4618D14B689A78012ACE
:10C9900014D800228DF80C201B88ADF80D3002232E
:10C9A0008DF80F3006F03AFE04230190009348F210
:10C9B000480203AB21462846FFF740FF05B030BDD3
:10C9C00030B585B004460D468DF80C20ADF80D301D
:10C9D00006F024FE03230190009348F2440203ABC7
:10C9E00029462046FFF72AFF05B030BD30B585B097
:10C9F00004460D46002303A90120ADF808300AF0D3
:10CA00005EFB10B1784604F025FB9DF80C308DF8E4
:10CA100008309DF80D309DF80920013B63F30202B8
:10CA2000BDF80E308DF80920142B15D1D2B212F0BA
:10CA3000070111D161F3C7028DF8092006F0EEFD60
:10CA400002230190009348F2280202AB29462046B7
:10CA5000FFF7F4FE05B030BD0A22B3FBF2F39DF8F8
:10CA60000920013B63F3C702E6E77FB50B89022B80
:10CA700005460E463ED14C682378012B3AD803F088
:10CA800001038DF804306378C3F3020301338DF89A
:10CA90000530637883BB1423ADF80630BDF806304B
:10CAA000142B38BF142301A90120ADF806300AF079
:10CAB000F5FA10B1784604F0CDFA28463146FFF772
:10CAC00095FF0023CDE9023312238DF80830237837
:10CAD0005A1E534253418DF80C306378C3F302035E
:10CAE0008DF80D30637802A8C3F3C4038DF80E30BF
:10CAF000FFF776FE04B070BDDB08013303EB830360
:10CB00005B00C9E70B890BB9FFF770BF704770B5C1
:10CB100086B00D46ADF80F309DF82C30ADF80D20E5
:10CB200000218B4204460A988DF80C1014BF07268A
:10CB30000926CDF8110006F071FD03ABCDE90060C8
:10CB400048F21F0229462046FFF778FE06B070BD66
:10CB500030B587B00446039306AB8DF8142033F844
:10CB60000C2DADF815209B788DF817300D4606F08A
:10CB700055FD04230190009348F2030205AB2946BA
:10CB80002046FFF75BFE07B030BD2DE9F0430B896F
:10CB9000022B87B081460C4638D14B681F88C7F3FB
:10CBA0000B00FEF793FDA38C8342804631D13B46B8
:10CBB0000C2221464846FFF703FF27E036F8150010
:10CBC000FEF798FD26F815000135019BAB42F5D81C
:10CBD0002EE036F81500FDF7FFFE10B1784604F0A0
:10CBE00039FA0135019BAB42F3D83B464846002257
:10CBF0002146FFF7E5FE00230293736030461923B8
:10CC00008DF80830ADF80C80FFF7EAFD07B0BDE8FD
:10CC1000F0834FF6FF73984202AEE6D006AA0823CF
:10CC200042F8143D3146FFF761FA05460028CCD0A2
:10CC30004046FFF70BFA05460028D3D00F28B6D0A0
:10CC40003B460422B5E70000F0B50B89122B85B0F6
:10CC500007460D4625D14E680A88344648F24003FF
:10CC600034F8020B9A42C0F30B001CD121460DF19F
:10CC70000602FEF7C5FD182304460F2C8DF8083078
:10CC8000BDF80630ADF80C3096BF0C4B10221A5D83
:10CC9000338829463846FFF793FE14B902A8FFF7F8
:10CCA0009FFD05B0F0BDFEF711FD2146ADF8060071
:10CCB000FEF794FE1A230446DFE700BF05B2030027
:10CCC0002DE9F0431F460B8847F6E57843449BB2B5
:10CCD000102B87B005460C46164656D84FF0010972
:10CCE00009FA03F313F0EF011BD113F4803060D184
:10CCF0005B044AD50146052203A80DF0FBFC6368DE
:10CD00008DF80C701A88ADF80D205B88ADF80F30E7
:10CD100006F084FC05230093019003AB48F22A023D
:10CD20002FE00922002103A80DF0E4FC23888DF8F0
:10CD30000C7043449BB2072B0AD809FA03F313F093
:10CD40000B0F09D113F004022DD113F0E00F1FD106
:10CD5000784604F07FF909E063681A88ADF80D2081
:10CD60005A88ADF80F205B68CDF81130002E14BF43
:10CD70000726092606F052FCCDE9006003AB48F215
:10CD80001F0221462846FFF759FD07B0BDE8F08392
:10CD9000636833F8121BADF80D108DF80F208DF875
:10CDA00010201B68E0E7636833F8022BADF80D2014
:10CDB000F7E7072203A80DF09DFC63688DF80C705F
:10CDC0001A88ADF80D209A88ADF811205B88ADF86F
:10CDD0000F3006F023FC07230093019003AB48F2C9
:10CDE0002C02CEE773B502AA022322F8063D01A960
:10CDF0000646FDF7ADFB062825D010B1784604F0B5
:10CE000029F90025BDF80220ABB29A4202D80020D1
:10CE100002B070BDACB2640002AB2344304633F8BC
:10CE2000041CFDF761FB10B1784604F013F902AB66
:10CE30001C4434F8040CFEF797FB10B1784604F05C
:10CE400009F90135DEE70820E2E72DE9F0438DB06E
:10CE50001C46154606460F46092200210DF1250005
:10CE60000DF048FC00230DF10B0120468DF8203019
:10CE7000ADF82150FDF788FC10B1784604F0EAF8CF
:10CE80009DF826309DF80B2062F304136FF34713CF
:10CE900005A920468DF82630FDF7F2FC10B1784642
:10CEA00004F0D8F8BDF81450BDF816304FF6FF72F4
:10CEB00095420DF10E0120460EBFADF82A30ADF8B7
:10CEC0002C30ADF82A50FDF789F910B1784604F0FE
:10CED000C1F8BDF80E004FF6FF73984218D1002339
:10CEE0008DF823308DF824304FF6FF739D4214BF28
:10CEF0000E250C2506F092FB08ABCDE9005048F258
:10CF0000190239463046FFF799FC0DB0BDE8F083B1
:10CF100006A9FEF7FBFA10B1784604F09BF8BDF8BD
:10CF20001A30ADF8233004A92046FDF7EBFB0528A5
:10CF30008046D4D0002848D10DF11201BDF8100070
:10CF4000FEF7ECFB0528814604D18DF823808DF88F
:10CF50002480C9E70028C7D19DF812308DF825300C
:10CF60009DF8133003F00F029DF8263023F00F03D5
:10CF700013430DF1270120468DF82630FDF738FCCC
:10CF80000122494603A80DF0B5FB0DF10D0203A9DE
:10CF90002046FDF773F99DF80C209DF80D3002A98D
:10CFA00043EA821320468DF82830FDF751F99DF8A9
:10CFB00008209DF82930C2F3020161F30203D20870
:10CFC00062F3C7038DF829308EE7784604F042F803
:10CFD0008AE7F0B50B89032B87B007460C4619D1B9
:10CFE0004D6804238DF80C302B88ADF80D300023EC
:10CFF0008DF80F302888C0F30B00FEF767FB0DF1AA
:10D000000B010646FEF7D0FCD0B9AB78022B03D05B
:10D01000032B32D007B0F0BD9DF80B305A1E012A09
:10D02000F8D8012B06D13046FEF734FD10B1784612
:10D0300004F010F800238DF80C3002238DF80F3027
:10D0400006F0ECFA04230190009348F2170203ABB8
:10D0500021463846FFF7F2FB9DF80C30002BD9D162
:10D06000CDE9043308238DF8103004A89DF80F3063
:10D070008DF81430FFF7B4FBCCE79DF80B30032B91
:10D08000C8D033B13046FEF72FFD10B1784603F01B
:10D09000E1FF00238DF80C30D0E770B50D89012D2C
:10D0A00086B006460C461ED14B6818788DF80F00E6
:10D0B000FDF73CFBB8B90523CDE904008DF810302D
:10D0C00004A89DF80F308DF81430FFF789FB06F0A7
:10D0D000A5FA0DF10F03CDE9005048F20E022146EA
:10D0E0003046FFF7ABFB06B070BD7FB50E46054678
:10D0F00009F03AFB04AC04F8040D06F08FFA0123A2
:10D100000190009348F20B02234631462846FFF770
:10D1100095FB04B070BD0B890BB9FFF7E6BF7047F4
:10D1200070B50B89092B8CB006460D465CD14C6856
:10D130002388ADF81C30A3782BB1102B56D8013BB7
:10D14000012202FA03F30893E37843B1112B9DBF48
:10D1500003F1FF33012202FA03F34FF0FF33099387
:10D1600023798DF82830B4F8053003F00F03ADF8BB
:10D170002A30B4F80730ADF82C30B4F80700FEF7C9
:10D18000A5FA4FF6FF73984237D104238DF810307B
:10D190002388ADF81130E3788DF81430A3788DF83A
:10D1A000133023798DF81530B4F8053003F00F03F0
:10D1B000ADF81630B4F80730ADF8183006F02EFA96
:10D1C0000A2301900093062204AB29463046FFF75C
:10D1D00035FB9DF810303BB914238DF8083002A8B8
:10D1E00007AB0393FFF7FCFA0CB070BDFF2B4FF6B3
:10D1F000FF7318BF4FF0FF33A5E707A809F0D4F875
:10D2000000280CBF00230F23C0E7000037B50378C8
:10D21000012B03D00E2B17D003B030BD0D4B42684D
:10D220001B689A42F8D10C4D2B78012BF4D1F9F7F9
:10D230006DF900241C236846CDE900448DF80030C8
:10D24000FFF7CEFA2C70E7E7034D2B78022BE3D1E2
:10D25000EFE700BFA4390020A039002030B50B89CA
:10D26000022B85B005460C4614D14A6800218DF882
:10D270000C101288ADF80D208DF80F3006F0CEF9A5
:10D2800004230190009348F2480203AB214628464C
:10D29000FFF7D4FA05B030BD7FB504AC022304F823
:10D2A000043D05460E4606F0B9F9012301900093AE
:10D2B00048F21402234631462846FFF7BFFA04B06D
:10D2C00070BD0A89012A05D14B681B78012B01D852
:10D2D000FFF7E2BF70470B890BB9FFF7DDBF70475F
:10D2E0007FB504AC022304F8043D05460E4606F063
:10D2F00095F901230190009348F21102234631462B
:10D300002846FFF79BFA04B070BD0A89012A05D1AF
:10D310004B681B78012B01D8FFF7E2BF70470B89E0
:10D320000BB9FFF7DDBF704770B50B898AB00646B1
:10D330000D46FBB90AA9082341F8203D06A8FEF7CF
:10D340006DFC029B9AB25B0803EB430302F00104FD
:10D3500003A906A803EB440401F0A6FB06F05EF95E
:10D36000A4B2CDE9004003AB48F24302294630465F
:10D37000FFF764FA0AB070BDF0B50B89022B8DB0CF
:10D3800006460D4632D14F680CAC0823388844F865
:10D39000243DC0F30B00FEF799F9224608A9FEF7D9
:10D3A000A5FE3B88ADF8113018B1052820D0102318
:10D3B0001FE0039C8DF81000A2B2640804EB440443
:10D3C00002F0010304EB430403340DF1130108A838
:10D3D000A4B201F069FB06F021F904ABCDE90040ED
:10D3E00048F2020229463046FFF728FA0DB0F0BD98
:10D3F00004238DF810300324EDE7F0B516460A88B3
:10D400001F4648F218039A4287B005460C4605D0DD
:10D4100048F21A039A4201D0032A2CD10E2200218D
:10D4200002A80DF067F923888DF8087048F21802F9
:10D43000934209D048F21A0293421ED0032B20D106
:10D44000636833F8092B02E0636833F8022BADF808
:10D4500009201B68CDF81230002E14BF0C260E26B2
:10D4600006F0DCF802ABCDE9006048F21902214673
:10D470002846FFF7E3F907B0F0BD636833F8172BD0
:10D48000E5E7784603F0E6FDE6E77FB50B89022B7A
:10D4900006460C461FD14D682888C0F30B00FEF7E6
:10D4A00015F90DF10B01FEF77FFA002303932B888A
:10D4B000ADF80D3088B99DF80B308DF80F3006F0BF
:10D4C000ADF804230190009348F2170203AB214604
:10D4D0003046FFF7B3F904B070BD04238DF80C306B
:10D4E000EDE77FB50B8906460D4683B9FDF72AF9AE
:10D4F00004AC04F8010D06F091F8012301900093AB
:10D5000048F20E02234629463046FFF797F904B049
:10D5100070BD37B50B89012B05460C4618D14B68F9
:10D520001A78012A14D80022CDE9002204228DF8AD
:10D5300000201878431E584258418DF8040009F025
:10D5400003F928462146FFF7D0FD6846FFF748F962
:10D5500003B030BD70B50B89012B8AB006460D466D
:10D5600018D10AA900238DF81030162321F81A3D8E
:10D570000DF11100FFF780F8BDF80E4006F04EF8EF
:10D580000134A4B2CDE9004004AB02222946304662
:10D59000FFF754F90AB070BD2DE9F0470B89132B42
:10D5A00088B080460C4670D14E68B5787078377870
:10D5B0003388ADF814304FEA051A4AEA101A00F021
:10D5C0000F0047EA00208DF81650FEF77FF8002381
:10D5D0008DF81830F21C07AB014681465046FEF725
:10D5E00013FC384B1B685B0406461CD5364B1B6886
:10D5F000032B18DD2F2135480DF04CF9F8B12F2100
:10D6000032480DF047F9411C314BBDF81C20D3F8CE
:10D61000043501922F4A0092CDF808A040F27522FD
:10D62000042007F0E7FF0F2E48D8DFE806F03E475A
:10D6300047114049473347474747474747315C21F0
:10D6400022480DF027F908B15C21D9E71F49DBE733
:10D650000DF11201BDF81C00FEF77AF810B1784602
:10D6600003F0F8FCBDF812204A4514BF0422002242
:10D670008DF814708DF81650059B21464046FFF733
:10D6800067FA16B906A8FFF7ABF808B0BDE8F0874F
:10D690000622EDE78DF814708DF81650059B0322D5
:10D6A00021464046FFF754FAEFE70022E0E78DF805
:10D6B00014708DF81650059B0522F1E71022D7E76C
:10D6C0000422D5E7C82D0020C42D002015B2030088
:10D6D0000010014045B2030073B50D461646FCF735
:10D6E00037FF0528044607D006281AD0B8B9338872
:10D6F0009C4204D3002000E0022002B070BD6946C5
:10D700002888FDF703FF50B99DF80030023B012B3C
:10D7100005D8BDF8023025F8023B0134E7E71020B8
:10D72000EBE70820E9E72DE9F0410B89042BAEB0C7
:10D7300006460D4612D14C684FF6FF786788208860
:10D74000ADF80E70ADF80C80FFF752F8404508D1E7
:10D750000123012229463046FFF7B2FA2EB0BDE878
:10D76000F08102AA0399FDF7A1F808B10223F0E7BE
:10D770002EAA282322F8AE3D04A9BDF80800FFF721
:10D78000ABFF03460028E4D1BDF80A208DF8600005
:10D790002388ADF8613004A952000DF16500ADF8A1
:10D7A00063700CF09CFFBDF80A4005F037FF640081
:10D7B0000534A4B2CDE9004018AB48F22A0229464C
:10D7C0003046FFF73BF8C9E708B590B1B0F5004F18
:10D7D00006D8002301334008DBB2FBD1184608BD50
:10D7E0004FF6FF73984206D0784603F033FC1023BF
:10D7F000F4E70346F2E7FF23F0E708B570B1B0F5B0
:10D80000803F06D8002301334008DBB2FBD1184625
:10D8100008BD784603F01EFC1123F8E70346F6E73F
:10D8200070B50C4686B0054608F0BAFD218906465B
:10D8300019BB8DF80C100388ADF80D304368012B2F
:10D840001DD8DBB2B0688DF80F30FFF7D6FF337B01
:10D850008DF81130F389ADF81230338AADF81430F9
:10D860008DF8100005F0DAFE0A23019000930622DD
:10D8700003AB21462846FEF7E1FF06B070BDB3F5C5
:10D88000004F07D8013B5B08CAB201F10101FAD190
:10D89000931CD6E74FF6FF72934204D0784603F00C
:10D8A000D9FB1023CEE7FF23CCE7F0B50E8987B074
:10D8B00007460D462EBB08F06FFD8DF80C600388FF
:10D8C00004460BB14288F2B900238DF80D308DF873
:10D8D0000E308DF80F308DF810308DF811308DF836
:10D8E00012308DF813308DF8143005F097FE0923AF
:10D8F0000190009348F23C0203AB29463846FEF7FC
:10D900009DFF07B0F0BDADF80D304388ADF80F3086
:10D910004068FFF759FF8DF81200A068FFF76DFF10
:10D92000A3898DF813308DF81100E389DBE72DE929
:10D93000F04F0B89132B85B080460D463ED14C68C5
:10D94000607823882778ADF804304FEA101B002355
:10D9500000F00F00A6788DF80660CDE9023347EAA3
:10D96000002001238DF80830FDF7B0FE4FF6FF7A56
:10D970005045814633D04BEA0610FDF7BBFE5045BB
:10D98000ADF80C002DD00DF10201FDF7E1FE10B154
:10D99000784603F05FFBBDF802304B4511D01124EF
:10D9A0008DF804708DF80660019B2246294640469A
:10D9B000FFF7CEF814B902A8FEF712FF05B0BDE8D4
:10D9C000F08FE11CBDF80C00FEF7E0FA052808D046
:10D9D000082808D000280CBF00241024E0E7042405
:10D9E000DEE70324DCE70B24DAE72DE9F0430A89BC
:10D9F000032A85B080460D4653D14B689E7819881E
:10DA00001F785B78ADF80410300140EA13108DF8F0
:10DA1000066003F00F048DF80820FDF76BFE4FF64B
:10DA2000FF794845ADF80C0024D047EA0420FDF703
:10DA30004DFE4845044637D00DF10201BDF80C00FB
:10DA4000FDF786FE10B1784603F004FBBDF8023006
:10DA5000A34211D1BDF80C00FCF7BEFF10B178460F
:10DA600003F0F8FABDF80C00FEF7DCFA10B17846C6
:10DA700003F0F0FA002400E011248DF804708DF812
:10DA80000660019B224629464046FFF761F844B9EB
:10DA9000BDF80C204FF6FF739A4202D002A8FEF7A1
:10DAA0009FFE05B0BDE8F0830424E6E7F0B50B89DE
:10DAB000052B8DB007460D464AD14C681022002137
:10DAC00008A80CF017FE2388ADF820306388ADF865
:10DAD0002230237943B1112B9DBF03F1FF33012283
:10DAE00002FA03F34FF0FF3308A80A9308F0ECFBA7
:10DAF000064668BB08F050FC8DF814600388ADF84A
:10DB00001530044643888068ADF81730FFF775FE7E
:10DB10008DF819006068FFF757FEA3898DF81B3058
:10DB2000E3898DF81C308DF81A0005F077FD092384
:10DB300001900093384605AB48F23C022946FEF7B7
:10DB40007DFE152303A88DF80C300494FEF748FEE3
:10DB50000DB0F0BD2DE9F347B1F8088028F00203BD
:10DB6000042B06460C4621D14D686B882888B8F1F5
:10DB7000040F9FB21BBF6A792B79ADF8063043EAD8
:10DB800002230BBF4FF001094FF000094FF6FF775A
:10DB9000ADF80630FEF72CFE4FF6FF7A504508D15F
:10DBA00001234A4621463046FFF727FC02B0BDE874
:10DBB000F087ADF804700DF102020199FCF776FED2
:10DBC00020B9B8F1040F03D0574501D10223E8E78B
:10DBD000BDF802302A8821463046FFF736F9E5E7DE
:10DBE0002DE9F047B1F8089029F00203042B86B024
:10DBF00007460D4621D14C6863882088B9F1040F8F
:10DC00009EB21BBF62792379ADF80E3043EA02233E
:10DC10000BBF4FF001084FF000084FF6FF76ADF84C
:10DC20000E30FEF7E5FD4FF6FF7A504508D101238F
:10DC3000424629463846FFF743F806B0BDE8F0876C
:10DC4000ADF80C600DF10A020399FCF72FFE20B924
:10DC5000B9F1040F03D0564501D10223E8E7BDF81E
:10DC60000A00FFF7BFF8064608B10346E0E7FBF7F6
:10DC700088FF34F8022BCDF80480206800903346EA
:10DC800038462946FEF743FF0C23CDE9046604A875
:10DC90008DF81030BDF80A30ADF81430FEF7A0FD55
:10DCA000CBE72DE9F047B1F8089029F00203142BD7
:10DCB00088B006460D462ED14C68638A2088B9F19B
:10DCC000140F1FFA83F81BBF627D237DADF80E3061
:10DCD00043EA02230BBF012700274FF6FF78ADF878
:10DCE0000E30FEF785FD4FF6FF7A504501D1012336
:10DCF0000CE0ADF80C8002AA0399FCF7D7FD20B91F
:10DD0000B9F1140F0AD0D04508D102233A4629466A
:10DD10003046FEF7D5FF08B0BDE8F08702238DF846
:10DD20001030A01C00230DF11201ADF81230059047
:10DD300007F08EFB10B1784603F08CF90DF10A0163
:10DD400004A8FDF777FC0528D1D008B11023DDE742
:10DD5000BDF80A10BDF80800FCF7C6FB08B10C239B
:10DD6000D4E7BDF80A00FDF7FFFB10B1784603F0D9
:10DD700071F9FBF706FF34F8122B01972068BDF804
:10DD80001230009029463046FEF7C1FE0F238DF871
:10DD90001830BDF80830ADF81C3006A8BDF80A30C0
:10DDA000ADF81E30FEF71CFDB5E72DE9F047B1F8E0
:10DDB000089029F00203142B88B006460D4620D1A6
:10DDC0004C68638A2088B9F1140F1FFA83F81BBFCF
:10DDD000627D237DADF80E3043EA02230BBF01279D
:10DDE00000274FF6FF78ADF80E30FEF701FD4FF635
:10DDF000FF7A504508D101233A4629463046FEF7BE
:10DE00005FFF08B0BDE8F087ADF80C8002AA039967
:10DE1000FCF74CFD20B9B9F1140F03D0D04501D166
:10DE20000223E9E70DF10A01A01CFDF76BFB20B10D
:10DE300004280CBF05231023DEE7BDF80A10BDF847
:10DE40000800FCF71DFB8046BDF80A00B8F1000F82
:10DE50000BD0FDF789FB10B1784603F0FBF8B8F161
:10DE6000060F0CBF08231023C6E704A9FDF74EFBDD
:10DE700010B1784603F0EEF8FBF783FE34F8122B6E
:10DE800001972068BDF81230009029463046FEF711
:10DE90003EFE0E238DF81830BDF80830ADF81C306A
:10DEA00006A8BDF80A30ADF81E30FEF799FCA8E7C9
:10DEB0002DE9F04FB1F80880B8F1080F89B0064697
:10DEC0000D4602D0B8F1060F21D16C68A3882088D6
:10DED000B8F1060F1FFA83F91BBFE279A379ADF8F9
:10DEE0000E3043EA02230BBF012700274FF6FF79CC
:10DEF000ADF80E30FEF77CFC4FF6FF7A50458346B6
:10DF000008D101233A4629463046FEF7D9FE09B02A
:10DF1000BDE8F08F608805F095F90328F1D1ADF8E0
:10DF20000C9002AA03995846FCF7C0FC20B9B8F13E
:10DF3000060F03D0D14501D10223E3E703238DF877
:10DF400010306388ADF812300DF10A01002304A8E7
:10DF50000593FDF76FFB78BBBDF80A10BDF808000C
:10DF6000FCF7C2FA062801D10823CBE708B1102339
:10DF7000C8E7BDF80A00FDF7F7FA10B1784603F0DC
:10DF800069F8FBF7FEFD638834F8042B01972068DD
:10DF9000009029463046FEF7BAFD0B238DF8183065
:10DFA000BDF80830ADF81C3006A8BDF80A30ADF851
:10DFB0001E30FEF715FCAAE70528D8D1E3E72DE9C6
:10DFC000F04FB1F80880B8F1080F87B006460D464B
:10DFD00002D0B8F1060F21D16C68A3882088B8F16F
:10DFE000060F1FFA83FA1BBFE279A379ADF80E3052
:10DFF00043EA02230BBF012700274FF6FF7AADF853
:10E000000E30FEF7F5FB4FF6FF794845834608D101
:10E0100001233A4629463046FEF752FE07B0BDE8D6
:10E02000F08F608805F00EF90328F1D163884B4525
:10E03000EED0ADF80CA002AA03995846FCF736FCC6
:10E0400020B9B8F1060F03D0CA4501D10223E0E799
:10E050000DF10A016088FDF719FA40B1042804D0D7
:10E0600010280CBF01231023D3E70523D1E7BDF807
:10E070000A10BDF80800FCF703FA804668B1BDF845
:10E080000A00FDF771FA10B1784602F0E3FFB8F12B
:10E09000060F0CBF08231023BBE7FBF772FD638854
:10E0A00034F8042B01972068009029463046FEF78B
:10E0B0002EFD0A238DF81030BDF80830ADF814306D
:10E0C00004A8BDF80A30ADF81630FEF789FBA5E7C5
:10E0D0002DE9F047B1F8089029F00203142B88B01D
:10E0E00006460D4620D14C68638A2088B9F1140F8A
:10E0F0001FFA83F81BBF627D237DADF80E3043EA23
:10E1000002230BBF012700274FF6FF78ADF80E3032
:10E11000FEF76EFB4FF6FF7A504508D101233A46D1
:10E1200029463046FEF7CCFD08B0BDE8F087ADF8D3
:10E130000C8002AA0399FCF7B9FB20B9B9F1140FBE
:10E1400003D0D04501D10223E9E7BDF80800FEF76E
:10E1500049FE03460028E2D10DF10A01A01CFDF79B
:10E16000D1F958B104280CBF052310233A4629469B
:10E170003046FEF7A5FDFBF704FDD5E7BDF80A1014
:10E18000BDF80800FCF77CF98046BDF80A00B8F13C
:10E19000000F0CD0FDF7E8F910B1784602F05AFFF5
:10E1A000B8F1060F01D10823E0E71023DEE704A948
:10E1B000FDF7ACF910B1784602F04CFF34F8122BA1
:10E1C00001972068BDF81230009029463046FEF7CE
:10E1D0009EFC10238DF81830BDF80830ADF81C30C7
:10E1E00006A8BDF80A30ADF81E30FEF7F9FAC2E70E
:10E1F0002DE9F04F0F8927F00203042B8FB08246E0
:10E200000D4640F0AD804E6874883088042F16BFEC
:10E21000A0464FF6FF78B488FEF7EAFA2A8848F25B
:10E220004B039A424FF6FF7340F0AB80984200F0E8
:10E23000828048F24C09ADF81080ADF8124003AA74
:10E240000499FCF733FB28B9042F1FD04FF6FF7356
:10E2500098451BD129883388ADF8253048F24B0208
:10E2600091424FF002020CBFADF82740ADF82940B3
:10E270008DF824200EBF0524ADF82780072405F073
:10E28000CDF90190009409AB4A4665E00EAA082337
:10E2900022F82A3D05A9BDF80C00FCF7E7F910B1FA
:10E2A000784602F0D7FE4FF0000BBDF80E701FFA53
:10E2B0008BF39F4221D829883388ADF8253048F266
:10E2C0004B0291424FF000028DF8242027D13A46AC
:10E2D0000DF1290105A8ADF8274000F0E5FB052464
:10E2E00005F09CF97B0803EB430307F0010703EB00
:10E2F00047073C440190E4B2C4E71FFA8BF14900A0
:10E300000EAB0B4405AA114433F8240CFDF706FAB2
:10E3100010B1784602F09EFE0BF1010BC5E73A46BC
:10E320000DF12B0105A8ADF82940ADF82780072491
:10E3300000F0BAFBD4E73388ADF825300122ADF800
:10E3400027408DF8242048F24C06052405F066F994
:10E35000CDE9004009AB324629465046FEF76EFA39
:10E360000FB0BDE8F08F3388ADF825300122ADF84D
:10E3700029408DF82420ADF8278048F24E06072466
:10E38000E4E79842EFD048F24E0954E72DE9F04F08
:10E39000B1F80880B8F1080F87B006460D4602D0E4
:10E3A000B8F1060F21D16C68A3882088B8F1060F58
:10E3B0001FFA83F91BBFE279A379ADF80E3043EA67
:10E3C00002230BBF012700274FF6FF79ADF80E306F
:10E3D000FEF70EFA4FF6FF7A5045834608D1012327
:10E3E0003A4629463046FEF76BFC07B0BDE8F08F91
:10E3F000608804F027FF0328F1D1ADF80C9002AA41
:10E4000003995846FCF752FA20B9B8F1060F03D029
:10E41000D14501D10223E3E7BDF80800FEF7E2FC95
:10E4200003460028DCD10DF10A016088FDF72EF8C3
:10E4300040B1042804D010280CBF01231023CFE7DB
:10E440000523CDE7BDF80A10BDF80800FCF718F861
:10E45000804668B1BDF80A00FDF786F810B178462D
:10E4600002F0F8FDB8F1060F0CBF08231023B7E740
:10E47000FBF787FB638834F8042B01972068009032
:10E4800029463046FEF743FB0D238DF81030BDF8CA
:10E490000830ADF8143004A8BDF80A30ADF81630D5
:10E4A000FEF79EF9A1E72DE9F0470B89062BAEB0E8
:10E4B00007460E461DD14D682888FEF799F9B6F833
:10E4C0000890B9F1040F0CBF0124002414D1AB78DB
:10E4D000EA7843EA0223ADF80E304FF6FF784FF6A4
:10E4E000FF7A504511D10123224631463846FEF7C6
:10E4F000E7FB2EB0BDE8F0872B796A79B5F802808A
:10E5000043EA0223ADF80E30E9E7ADF80C8002AA29
:10E510000399FCF7CBF920B9B9F1040F03D0D0452A
:10E5200001D10223E0E72EAA282322F8AE3D04A958
:10E53000BDF80800FFF7D0F803460028D4D18DF8C5
:10E5400060002B88BDF80A40ADF86130AB88ADF8AB
:10E5500065306400A4B26B88ADF86330224604A92C
:10E560000DF167000CF0BBF805F058F80734A4B2C1
:10E570000190009418AB48F22C0231463846FEF761
:10E580005DF9B6E72DE9F04F0C89082C8FB0804675
:10E590000D4601D0062C27D16E68B788062C4FF0A7
:10E5A00000031CBFB946F7888DF82C303388ADF8CE
:10E5B0002D307388ADF82F3008BF4FF6FF797368A0
:10E5C000CDF83130062C12D18FB90D238DF82C30B7
:10E5D00005F024F80723019000930BAB48F23E02AC
:10E5E00029464046FEF72AF90FB0BDE8F08F308883
:10E5F000FEF7FEF84FF6FF73984282460BD10123D7
:10E60000062C14BF092407248DF82C3005F006F8D9
:10E61000CDE90040E1E7ADF82090ADF8227007AAFF
:10E620000899FCF743F94D4B1B689B0483461DD5A5
:10E630004B4B1B68032B19DD2F214A480CF02AF99C
:10E64000F8B12F2147480CF025F9411CBDF81C20DA
:10E65000454BD3F80435CDE90392444A0092CDE905
:10E6600001A740F68912042006F0C4FFBBF1000F99
:10E6700005D1062C0ED04FF6FF7399450AD102231F
:10E68000BEE75C2137480CF005F908B15C21D9E7F9
:10E690003449DBE77088C0F30B00FDF72BF82A88BC
:10E6A00048F23D039A420646BDF81C0010D11623DD
:10E6B00031468DF82430ADF82800ADF82A60FBF71C
:10E6C00085FF052843D0072845D018B310233FE025
:10E6D000172331468DF82430ADF82800ADF82A60B4
:10E6E000FBF79CFF0028ECD10DF11E01BDF81C00CA
:10E6F000FCF708F810B1784602F0ACFCBDF81E300B
:10E70000B34207D1BDF81C00FCF73AF910B17846C6
:10E7100002F0A0FC00238DF82C30FBF732FA062C17
:10E7200014BF0924072404F079FF0BABCDE90040A6
:10E7300048F23E0229464046FEF780F89DF82C300C
:10E74000002B7FF451AF09A8FEF74AF84CE70223EB
:10E750008DF82C30E3E70323FAE700BFC82D002033
:10E76000C42D002015B203000010014077B2030051
:10E770002DE9F04F0A880B89032A89B007460D4618
:10E7800027D10D2B01D00B2B56D16A680B2BB2F879
:10E79000093014BF117BADF80E301FFA83FA18BF91
:10E7A000D37A14461CBF43EA0123ADF80E3034F887
:10E7B000049BB2F802800ABF012600264FF6FF7ABA
:10E7C0004846FEF715F84FF6FF7B584524D1012344
:10E7D0002DE048F21A018A4203D123F00202192ADD
:10E7E0002AD16C68192BB4F8173014BFA27EADF88B
:10E7F0000E301FFA83FA18BF637E34F8129B15BFE0
:10E8000043EA0223012600264FF6FF7A18BFADF82F
:10E810000E304FF00008D3E7ADF80CA002AA039920
:10E82000FCF744F810B956B9DA4508D1022332464C
:10E8300029463846FEF7E1FD09B0BDE8F08F637860
:10E84000207803F00F0340EA0320FCF753FF4FF654
:10E85000FF739842824601D10323E8E74046ADF8B2
:10E860000A3004F0EFFC2B88032B32D10228AED003
:10E8700000F0FD00012840F0E1800DF10A01BDF833
:10E880000800FBF7ABFC58B10DF10A014046FCF75C
:10E8900097FD00283CD004280CBF05231023C6E7B1
:10E8A00004A9BDF80A00FCF731FE0028ECD19DF860
:10E8B0001030022B03D0BDF81230434528D0BDF8EC
:10E8C0000A00FCF7BFFD0028DED0784602F0C2FB4C
:10E8D000DAE76B68BDF808000DF10A0103F1020BDD
:10E8E000FBF77CFC28B10DF10A015846FCF7A6FDA8
:10E8F000CFE704A9BDF80A00FCF708FE0028F2D112
:10E900009DF81030022B25D09DF81030022B28D115
:10E91000B8F1000F2FD0227994F80380BDF80800D9
:10E92000C2F302014FF0000B61F3020BD20862F355
:10E93000C70B00224FEA981311460193FBF73AFDEB
:10E9400008F03F08019B28B306281ED0784602F045
:10E9500081FB71E71022594605980BF0B1FE0028A3
:10E96000D2D0BDF80A00FCF76DFD0028BBD0784678
:10E9700002F070FBB7E72A8848F21A039A42CAD01D
:10E98000BDF80800FBF7FCFF3DE0B8F1000F0ED02A
:10E9900007234CE7B8F1000F09D042461946BDF8ED
:10E9A0000800FBF707FD10B1784602F053FB59460B
:10E9B000BDF80800FBF726FC10B1784602F04AFBD0
:10E9C000BDF80A10BDF80800FBF7EAFB10B1784665
:10E9D00002F040FB5146BDF80800FBF775FE10B190
:10E9E000784602F037FB6178BDF80800C1F30011EA
:10E9F000FBF7AEFE10B1784602F02CFBA178BDF813
:10EA00000800FBF7D5FE10B1784602F023FBFBF7B8
:10EA1000B8F8BDF8083038464A462946FEF715FAD8
:10EA20000023CDE9063302238DF8183006A8BDF87F
:10EA30000830ADF81C30FDF7D3FEFDE6B8F1000F4D
:10EA40007FF469AF9CE7000030B587B01622002143
:10EA500005460DF102000BF04DFE0E4B02934FF6F2
:10EA6000FF742E230C480393ADF8004004F0CEFD54
:10EA70000A4807F0A5FC0A4B1B88A34202D078463F
:10EA800002F0E8FA074B06491D606846FBF77CFA7E
:10EA900007B030BDBCB20300A82D00200DC8020095
:10EAA000A62D00209C39002030B50024A24200D8B9
:10EAB00030BD30F814300B70651CC3F30323AA4239
:10EAC0004B7007D900EB44056D8843EA05132D0907
:10EAD0004B708D7002340331E8E7000082B0064BC2
:10EAE0000190C0F30F40A0F50C7080B253F82030B5
:10EAF0009B780B7002B07047C8390020C0F30F40FC
:10EB0000A0F50C7080B2044B53F8203082B0002284
:10EB10009A7002B0704700BFC839002070B5144D1C
:10EB20002C68002634B92B6803BB1248BDE870403E
:10EB300004F084BF94F8503013B1013B84F8503096
:10EB400094F8503043B92B689C4208D1636D2B6018
:10EB5000E36C0021204698472646646DE2E716B92B
:10EB6000784602F077FA636D7365F1E770BD00BF18
:10EB7000C4390020A839002030B587B090F8503053
:10EB80008DF804300C4B029301AB03930123ADF8D5
:10EB9000103000238DF81230022304460D468DF804
:10EBA000133004F03BFD02AA059029462088FBF7AC
:10EBB000E9FA07B030BD00BF0780FFFF0B8913B92A
:10EBC0001046FFF7D9BF704730B587B083788DF80E
:10EBD00004300C4B029301AB03930123ADF81030CA
:10EBE00000238DF81230022304460D468DF81330B1
:10EBF00004F014FD02AA059029462088FBF7C2FA0A
:10EC000007B030BD3780FFFF0B8913B91046FFF7FF
:10EC1000DBBF704738B504460D4605F021FC94F87B
:10EC2000503084F850505BBB55B3E36C0121204653
:10EC3000984705F015FCE36C13B9784602F00AFA20
:10EC400094F8503013B9784602F004FA0E4B196864
:10EC500061651C6091B90D4C182220460BF04AFDED
:10EC600004F02CFF00F5742000F51070084B606074
:10EC7000E3602046074BA36004F0BEFE05F030FCC5
:10EC8000BDE8384005F02CBCC4390020A83900206C
:10EC900040420F001DEB020038B50B89012B0C46DA
:10ECA000154611D1D36C23B14B6810461978FFF784
:10ECB000B1FF228848F205039A4205D12146284631
:10ECC000BDE83840FFF758BF38BD000037B50B89A5
:10ECD000012B0C46154618D149680B780E2B0BD921
:10ECE000228848F235039A420FD12146284603B0C4
:10ECF000BDE83040FFF768BF054B1B68934204D165
:10ED0000044807F083FE0028EAD003B030BD00BFFE
:10ED1000C8390020030030024B0901F01F024FF0F8
:10ED2000FF31914050F82320114049B14A420A4036
:10ED300008495143C90E084A505C00EB4310704724
:10ED40000133072B02D850F82310EEE74FF4807000
:10ED5000704700BF31B57C0788B403002DE9F0434C
:10ED6000C7B0042905AE437A33700CBF00F12C09FB
:10ED700000F10C094389A6F801300546884648464B
:10ED800000211746FFF7C8FF0024B0F5807F234617
:10ED90001BD14FF6FF73ADF8063000238DF80E300F
:10EDA00003340223ADF804800296ADF80C408DF8D0
:10EDB0000F3004F033FC049028888FB101AA394643
:10EDC000FBF7E0F947B0BDE8F0833344411C013460
:10EDD000FF29E4B2D870DCD84846FFF79DFFD4E79E
:10EDE00001A9FBF7A3F9EDE7084600220421FFF78C
:10EDF000B5BFF8B50B89032B0D46144610D1138807
:10EE0000834202D0784602F025F96E686389B6F82D
:10EE100001108B4204D1207A0023DAB2904200D84C
:10EE2000F8BD626812F833C002EBC307327862455E
:10EE300003F10103F1D17B68204698473378637270
:10EE40002A8848F232039A42EAD12A46204605210E
:10EE5000BDE8F840FFF782BF38B50B89022B0D469D
:10EE6000144611D11388834202D0784602F0F2F89A
:10EE70006B681A8863899A4206D12A462046052182
:10EE8000BDE83840FFF76ABF38BD38B50B89022BA3
:10EE90000D4614461CD11388834202D0784602F0F6
:10EEA000D9F86B681A8863899A4211D1202200210F
:10EEB00004F10C000BF01EFC2A8848F22F039A4242
:10EEC00006D12A4620460521BDE83840FFF746BF57
:10EED00038BD38B500F12C0500212846FFF71CFF8E
:10EEE0000024B0F5807F01D1E0B238BD411CFF297C
:10EEF00004F10104F8D82846FFF70EFFF1E70000FF
:10EF000037B50190C0F30F40A0F50C700C4B0D7895
:10EF100080B253F82040A378AB420DD0A5702046B4
:10EF2000FFF7D7FF40B10121A940208889B203B083
:10EF3000BDE83040FBF722BA002003B030BD00BF6F
:10EF4000C839002070B586B0C3640A9B43600025B1
:10EF50009DF82C300372044642810E46457280F8BB
:10EF6000505085704565202229460C300BF0C2FBBD
:10EF70002946202204F12C000BF0BCFB0B4B009324
:10EF80000B4B02930B23CDE903342146094BADF81B
:10EF9000046068460593FAF7F7FF28B9064B43F873
:10EFA00026402088FBF73CFA06B070BDFFFF020048
:10EFB00030B40300E9ED0200C8390020002839D040
:10EFC000002937D01C4B18601C4B19604FF0A04330
:10EFD0000C22C3F820274021C3F81C270322C3F8C2
:10EFE0001827C3F80815C3F81427154B0622C3F8D1
:10EFF0000C250822C3F814250722C3F81025052282
:10F00000C3F8082501210F4AC3F86C158420C3F802
:10F0100024250422C3F80025C3F804030020C3F804
:10F020000801C3F81C011960074BC02183F80213C3
:10F030001A6070470E207047D0390020D439002064
:10F040000020004000E0D70100E100E070B5124D63
:10F05000124E134C29783368002011B1D4F80821DE
:10F060006AB9D4F81C31ABB10023C4F81C31D4F810
:10F070001C310C4B1B686BB1BDE870401847C4F8DD
:10F080000801D4F80821002BE7D0D4F81805C0B245
:10F090009847DFE770BD00BFCC390020D039002091
:10F0A00000200040D4390020FFF7D0BF014B18707A
:10F0B000704700BFCC39002038B50B4D2B788BB989
:10F0C0000A4C0B48214603F006FC58B9236819790D
:10F0D000084B01222A70C3F81C1507490A80C3F89F
:10F0E0001C019A60012038BDF83B0020143E00202E
:10F0F000043E002000200040D839002070B5174C95
:10F10000237813B9784601F0A5FF154D296849B950
:10F11000144B0122DA602170134BBDE8704018686F
:10F1200005F02CBA114A08791388461CB3420BD15A
:10F1300001330F48138003F030FC0A4A00230121F9
:10F140002B60D1602370E7E7834206DC194401336A
:10F150001380044B0979C3F81C1570BDF83B0020DF
:10F16000143E002000200040DC390020D839002067
:10F17000043E002008B54FF402721149114803F013
:10F18000AAFA114911484FF4027203F0A4FA104987
:10F190001048FFF713FF10B1784601F05BFF012024
:10F1A000FFF784FF0C4A0D48002313700C4A1380AC
:10F1B0000C4A138005F0C4F90B4B186008BD00BF62
:10F1C000FC3B0020043E0020E2390020EC3B002004
:10F1D000FDF002008DF20200F83B0020B9F00200C1
:10F1E000FA3B0020D8390020DC39002037B5421C1A
:10F1F00004460D4692B201A9044803F0EAFA18B990
:10F20000019B1A1D2A601C7103B030BD043E002012
:10F2100038B5044610B9784601F01CFF251FAB78BD
:10F22000012B02D0784601F015FF227834F8043C17
:10F230009A4202D9784601F00DFF05F011F9074B0B
:10F24000186805F09BF934F8042C0548294603F0AA
:10F2500011FBBDE8384005F043B900BFDC390020A0
:10F26000043E002013B5044601A90320FFF7BEFFAA
:10F2700048B9019A84235370019A9470019AD3700B
:10F280000198FFF7C5FF02B010BD00002DE9F04165
:10F29000294A1388074690461BB1013B1380BDE8FD
:10F2A000F081264D2B8873BB254E348804B9441C4D
:10F2B000012C07D8013CA8F800400020BDE8F0412F
:10F2C000FFF7D0BF1F4803F0F6F98442F2D8B4F537
:10F2D000807FEFD8DFF870801A482246414603F05D
:10F2E00078FA28B134800020BDE8F041FFF7DEBE97
:10F2F000338843B12B88D8F8002030801A44013C71
:10F30000013314712B80104C2B882168CA180133EB
:10F3100017710A799BB2013293422B80BFD1002B27
:10F32000BDD00A880748002603F0A4FA266000F042
:10F3300027FB2E80B3E700BFE0390020183E0020F5
:10F34000FA3B0020EC3B0020103E002013B50446A1
:10F3500001A90B4803F0BFFA78B90199204631F8AA
:10F36000042B0BF0BCF90199054803F016FB0120B2
:10F37000FFF79CFE012002B010BD0020FBE700BF9C
:10F38000EC3B002070B5044615461E46084649B9B8
:10F3900000F00EFB33462A4601462046BDE8704089
:10F3A00000F03CBB00F004FB00231A46F4E770B405
:10F3B00045780023934204D100231A46822128462F
:10F3C00012E011F83360AE4201EBC30412D163784E
:10F3D0000278934204D2A17801330B449A4206DDAD
:10F3E00000231A468421304670BC00F017BB6368C6
:10F3F00070BC18470133DDE710B50446FAF7C1FBCE
:10F40000002360781A461946BDE8104000F006BB9C
:10F4100030B5C1B040ACFA2324F8FC3D0546224685
:10F420000DF106014088FBF76BFA6D78034608B1D1
:10F4300009280AD1184600F0BBFAFC2322460146EF
:10F44000284600F0EBFA41B030BD00F0B1FA0023DD
:10F450001A46F4E713B5044601AA41684088FBF751
:10F4600025FA0223014601AA6078FFF78BFF02B05C
:10F4700010BD13B5044601A94088FBF701FA042327
:10F4800001460DEB03026078FFF77CFF02B010BD70
:10F4900013B5044601A94088FBF7E6F901230146AC
:10F4A00001AA6078FFF76EFF02B010BD13B50446E5
:10F4B00001A94088FBF7CCF90123014601AA607835
:10F4C000FFF760FF02B010BD13B5044601A94088E4
:10F4D000FBF7B2F90223014601AA6078FFF752FF59
:10F4E00002B010BD10B5044681884088FBF794F93E
:10F4F000647800F05DFA002301461A462046BDE814
:10F50000104000F08BBA13B5044601A94088FBF700
:10F510006FF90123014601AA6078FFF733FF02B0BB
:10F5200010BD10B5044601794088FBF741F96478B5
:10F5300000F03EFA002301461A462046BDE810407E
:10F5400000F06CBA13B5044601A94088FBF7DAF85D
:10F550000223014601AA6078FFF714FF02B010BD34
:10F5600010B5044681884088FBF7AEF8647800F057
:10F570001FFA002301461A462046BDE8104000F05D
:10F580004DBA30B5C1B040AC7D2324F8FC3D0546F2
:10F5900022460DF106014088FBF768F86D780346B6
:10F5A00008B109280AD1184600F002FAFC232246C5
:10F5B0000146284600F032FA41B030BD00F0F8F9BB
:10F5C00000231A46F4E710B5044681884088FBF70B
:10F5D00025F8647800F0ECF9002301461A4620462D
:10F5E000BDE8104000F01ABA10B504468188408882
:10F5F000FAF7ECFF647800F0DBF9002301461A46C5
:10F600002046BDE8104000F009BA30B5C1B040ACAA
:10F61000FA2324F8FC3D054622460DF106014088F8
:10F62000FAF796FF6D78034608B109280AD1184603
:10F6300000F0BEF9FC2322460146284600F0EEF910
:10F6400041B030BD00F0B4F900231A46F4E710B51C
:10F65000044681884088FAF747FF647800F0A8F9EB
:10F66000002301461A462046BDE8104000F0D6B9F6
:10F6700010B5044681884088FAF702FF647800F0EC
:10F6800097F9002301461A462046BDE8104000F0D5
:10F69000C5B913B504460DF1050201A94088FAF772
:10F6A000EDFD0223014601AA6078FFF76BFE02B070
:10F6B00010BD10B50446427901794088FAF77AFE08
:10F6C000647800F075F9002301461A462046BDE82B
:10F6D000104000F0A3B913B5044601A94088FAF719
:10F6E0007DFD0223014601AA6078FFF74BFE02B0C0
:10F6F00010BD10B5044681884088FAF751FD647842
:10F7000000F056F9002301461A462046BDE8104095
:10F7100000F084B910B54378F52B044602D9784639
:10F7200001F098FC204616220249BDE81040FFF780
:10F730003EBE00BFA8B4030010B50446407845287B
:10F7400086B00FD842281DD240281BD0412820D097
:10F7500040381F2802D9784601F07CFC00231A4665
:10F76000822139E053282ED05428F1D12378012B5F
:10F7700012D101F0A7FC1022014602A80AF0AFFF47
:10F7800010231EE000231A46822100F047F906B03C
:10F7900010BD2378012B03D000231A468421F4E7FF
:10F7A000684607F0A3FF9DF800300622C3F3460326
:10F7B0000DF101010DF109008DF808300AF08FFFFD
:10F7C000072302AA07E02378112BE5D1A01C01F042
:10F7D00053FC00231A4600216078D6E710B5044692
:10F7E0004078782811D12046002210F8021B0139F8
:10F7F00001F02EFB647800F0DBF8002301461A4686
:10F800002046BDE8104000F009B900231A468221C5
:10F81000F7E7000038B5054D2C782CB9FFF7AAFCA6
:10F8200001232B70204638BD0820FCE71B3E00203A
:10F8300010B50B4B1B78022B10D1FFF7D7FC042817
:10F84000044604D0092802D020B9204610BD01F09A
:10F85000BBFAFAE7784601F0FDFBF6E70824F4E787
:10F860001B3E002010B5064B1B78022B044602D02D
:10F87000784601F0EFFB2046BDE81040FFF7C8BC1A
:10F880001B3E00207FB5374D2B78012B25D0364B02
:10F890001B681A0416D5354B1B68012B12DD2F216E
:10F8A00033480AF0F7FF78B12F2131480AF0F2FF10
:10F8B000411C304B304AD3F8043500920220992283
:10F8C00005F098FE08242EE05C2129480AF0E2FFAA
:10F8D00008B15C21E9E72649EBE7022603A90420E9
:10F8E0002E70FFF7A5FF044648B31F4B1B681B048F
:10F8F00017D51E4B1B68002B13DD2F211C480AF067
:10F90000C9FF98B12F211A480AF0C4FF411C194BB6
:10F910001A4AD3F8043500920194A322012005F07D
:10F9200069FE01232B70204604B070BD5C21104895
:10F930000AF0B0FF08B15C21E5E70D49E7E7039B5A
:10F9400081225A70039B9E704FF08043039AD3F834
:10F95000003403F00803D3700398FE230371FFF70C
:10F9600081FFE0E71B3E0020C82D0020C42D0020B1
:10F97000B7B5030000100140D3B50300E4B50300A0
:10F9800038B5084C25785DB9074B1B78022B07D199
:10F99000012329460548237004F048FD00B1257075
:10F9A00038BD00BF1A3E00201B3E002075FA020041
:10F9B000092823D009D8032826D001D818B97047C0
:10F9C000072819D016D9832070470E281CD008D8D4
:10F9D0000B2815D0F7D30C2810D00D2812D080207A
:10F9E000704710280CD005D311280FD043F2010323
:10F9F0009842F4D18E20704785207047842070474C
:10FA00008720704793207047812070478620704779
:10FA1000014B1878704700BF1B3E0020F7B5074622
:10FA20000E461C461546EAB1F3B1114B1B78022B6A
:10FA300016D1E01C01A980B2FFF7FAFE80B9019B44
:10FA400084225A70019B9F70019BDE702DB101983A
:10FA50002246294604300AF042FE0198FFF702FFD1
:10FA600003B0F0BD002BE0D0784601F0F3FADCE7FC
:10FA70001B3E002070B5274B274C284D284E0022F6
:10FA8000C2B01A7002A8FFF761FC08B942B070BD9D
:10FA90009DF80910002314F8330088424FEAC3028E
:10FAA00007D822445078884203D3536802A8984765
:10FAB000E8E70133092BEED12B681B0418D5194B4D
:10FAC0001B68012B14DD2F2117480AF0E3FEB8B1A3
:10FAD0002F2115480AF0DEFE411C9DF80920D6F8BA
:10FAE00004350192114A00920220812205F082FD24
:10FAF00000231A4682219DF80900FFF78FFFC1E716
:10FB00005C2109480AF0C6FE08B15C21E1E706491C
:10FB1000E3E700BF1A3E002058B50300C82D0020BF
:10FB200000100140C42D0020B7B50300A0B50300AC
:10FB3000064B984206D003F59A73984204D10120EF
:10FB4000C0B270470020FBE7FF207047CC41002087
:10FB500037B5037804460C2B73D8DFE813F00D009B
:10FB60003300420074007D00E300F700B60072002D
:10FB700052008600CB000C01844B1B78002B60D018
:10FB800001A91A20FFF754FE00285AD1019BC02278
:10FB90005A70019D1022211DA81C0AF0A0FDE369E6
:10FBA00093F90D30AB74237DEB74E3699B7BC3F356
:10FBB00046032B75E16906220F3105F115000AF0A5
:10FBC0008EFD3BE001A90220FFF732FE002838D16C
:10FBD000019BC1225A706068FFF7AAFF019B9870D1
:10FBE0002CE001A90320FFF723FE50BB019BC2229A
:10FBF0005A706068019AFFF79BFF9070237AD37068
:10FC00001CE001A90B20FFF713FED0B9019BC32212
:10FC10005A706068019AFFF78BFF9070237AD37057
:10FC2000E37A1371237B5371637B9371E389A2F8A9
:10FC30000730237C5372B4F8113053810198FFF7D9
:10FC400011FE03B030BD01A90320FFF7F1FD00282C
:10FC5000F7D1019BC422CBE701A90220FFF7E8FD01
:10FC60000028EED1019BCA22B4E701A92C20FFF79E
:10FC7000DFFD0028E5D1019BC5225A706068019D17
:10FC8000FFF756FFA870E368D3F81230C5F80330C9
:10FC9000E368DB8AA5F80930E3681B8AA5F807301A
:10FCA000E3681B7EC3F30003EB72E3681B7EC3F3C0
:10FCB00040032B731022A16805F10D000AF00FFD1F
:10FCC0001022E16805F11D0079E701A90520FFF781
:10FCD000AFFD01460028B4D1019BC6225A7060686E
:10FCE000019AFFF725FF0123D37090701171102343
:10FCF0005371A3E701A96220FFF79AFD0028A0D164
:10FD0000019BC7225A706068019DFFF711FFA87020
:10FD10004022A168E81C0AF0E2FC2022E16805F11B
:10FD200043004CE701A91320FFF782FD002888D18A
:10FD3000019BC8225A706068019DFFF7F9FEA87008
:10FD4000237AEB70627AE168281D38E701A9052063
:10FD5000FFF76EFD00287FF474AF019BC6225A7036
:10FD60006068019AFFF7E4FE03239070D370237A52
:10FD70001371637ABCE701A90320FFF759FD00283E
:10FD80007FF45FAF019BC92232E700BF7F440020B0
:10FD900007B5244B1B681B0418D5234B1B68032B8A
:10FDA00014DD2F2121480AF075FD002830D02F21C5
:10FDB0001E480AF06FFD411C1D4B1E4AD3F8043546
:10FDC0000092042040F20B1205F014FC1A491B4863
:10FDD000F7F74CFD10B1784601F03CF91848F8F7F8
:10FDE000B7FD01461748F7F72DFD10B1784601F031
:10FDF00031F91548F8F7ACFD01461448F7F722FD34
:10FE000010B1784601F026F9002003B05DF804FB3C
:10FE10005C2106480AF03EFD08B15C21C8E70349B1
:10FE2000CAE700BFC82D0020C42D00201AB6030069
:10FE30000010014043B60300AC4100203F440020C5
:10FE40001C3E0020CC410020E43F00200043002065
:10FE500070B54378613B8AB00446092B7FD8DFE850
:10FE600013F00A0022002E0082007E009900B000EC
:10FE7000C900DE00EA007B4B1A7832B100231A4633
:10FE800083216120FFF7CAFD69E0012276481A70DC
:10FE9000F7F703FE10B1784601F0DCF800231A46AC
:10FEA00019466078EEE76F4A13781BB91A4683212A
:10FEB0006220E7E700251570F7F7F7FDEEE7837896
:10FEC000012B4ED81922002103A80AF013FC10229E
:10FED00004F1130103A80AF002FC022204F1230139
:10FEE00007A80AF0FCFB042204F125010DF11E0015
:10FEF0000AF0F5FB022204F129010DF122000AF0BB
:10FF0000EEFB94F82B209DF82430A078574D5849EB
:10FF100062F3000394F82C2062F341038DF824303F
:10FF20004FF49A76504B0093524A534B06FB0050C5
:10FF3000F7F76EFC50B9A07894F82D2001230093B8
:10FF4000E11C03AB06FB0050F7F7EEFCA3788DF83D
:10FF50000C300146012303AA6320FFF713FA0AB00D
:10FF600070BD0B20F2E7404B0093424A424B4049A0
:10FF70003E48F7F74DFC28B90246014601233B48AD
:10FF8000F7F78DFC6478FFF713FD002301461A464E
:10FF9000204677E78578012D11D8C1784379027919
:10FFA00032484FF49A7606FB0500F7F7E9FC014664
:10FFB0000AAAA37802F81C3D66200123CDE70B2195
:10FFC000F6E78378012B13D80146284811F8032B54
:10FFD0004FF49A75023AD2B205FB0300F7F7DCFC46
:10FFE00001460AAAA37802F81C3D67200123B4E762
:10FFF0000B21F6E78378012B0FD81C4AC11C4FF464
:020000023000CC
:100000009A7000FB0320F7F741FD01460AAAA37886
:1000100002F81C3D682001239FE70B21F6E7811CB5
:10002000202214480AF05BFB402204F12201104810
:100030000AF055FB32E7104A83781370002393705F
:1000400001215170C178D17001791171017A117259
:10005000B0F80910A2F8091041795171C188D18016
:100060001DE700BF7F44002051FB0200CC4100206F
:100070003F440020AC4100203444002013B50378F5
:10008000073B0446062B29D8DFE803F0334F5D75A4
:1000900090042A0001A91620FFF7CAFBF0B9019BC2
:1000A000A5225A70019B22799A702346019853F831
:1000B000052FC0F803205A68C0F807201B89A0F854
:1000C0000B30019854F80F3FC0F80D306368C0F84A
:1000D00011302389A0F81530FFF7C4FB02B010BD22
:1000E00001A91620FFF7A4FB0028F7D1019BA62247
:1000F000D7E701A90D20FFF79BFB0028EED1019B5C
:10010000A0225A70019B22799A702346019853F8D5
:10011000052FC0F803205A68C0F807201B89A0F8F3
:100120000B300198E37B4373D6E701A90220FFF768
:100130007FFB0028D2D1019BA1225A70019B22791A
:100140009A700198C8E701A90D20FFF771FB0028FC
:10015000C4D1019BA2225A70019B22799A70019B03
:100160006279DA70019854F8063F436063688360EF
:1001700023898381B0E701A90E20FFF759FB0028EE
:10018000ACD1019BA3225A70019B22799A70019BEA
:100190006279DA702346019853F8062F42605A6854
:1001A00082601B898381237C837395E701A91520D5
:1001B000FFF73EFB002891D1019BA4225A70019BBE
:1001C00022799A702346019853F8052FC0F803202E
:1001D0005A68C0F807201B89A0F80B3001982369E2
:1001E000C0F80D306369C0F81130237E437573E7A2
:1001F0000248034B036003F009BA00BF80440020AB
:100200007D00030010B504464078A0F1D003062B12
:100210008AB00BD84E4A2178D25C914206D0002396
:100220001A468421FFF7FAFB0AB010BD062B00F234
:100230008280DFE803F0040D14191C404C0000F02C
:1002400007FE6478FFF7B4FB00231A46014630E04E
:10025000D4F80D20A078E11C00F0FAFDF1E7E11CD4
:10026000A07800F0F5FDECE700F0F2FDE9E7694663
:10027000A07800F0EDFD647801460028E2D19DF8F9
:1002800000308DF814300AAB53F8272DCDF8152027
:100290005A681B89ADF81D309DF80B308DF81F3062
:1002A000039B0893049B09931423CDF819200DEBAD
:1002B00003022046B6E72378022B04D000231A4617
:1002C0008421D520AEE7A07800F0C2FDB9E72378FD
:1002D000012B04D000231A468421D620A2E7002156
:1002E0000A220DF102000AF005FA684600F0B0FD9E
:1002F000647801460028A5D19DF800308DF81430AF
:100300009DF801308DF81530DDF80230CDF816304B
:10031000DDF80630CDF81A30BDF80A30ADF81E30E1
:100320009DF80C308DF820309DF80D308DF821307F
:1003300005AA0E23BDE73030C0B20F2802D9784697
:1003400000F088FE00231A46822160786AE700BF29
:1003500065B60300F8B503780446032B7FD8DFE8C1
:1003600003F00272536207893D4EEB2F384628BFD7
:10037000EB201430314680B2FFF75AFA00286ED1D4
:1003800035682389A5F81330237D012B2FD1D02385
:100390006B70E38AAB80E3896B80206AFBF7B8F966
:1003A000E880E069FBF7A0F9288194F82430AB726B
:1003B000A36A9B7BC3F34603EB72A16A06220F314B
:1003C00005F10C000AF08BF9A36A93F90D30AB74B8
:1003D00047B1EB2F3A46616828BFEB2205F11500C3
:1003E0000AF07DF93068BDE8F840FFF73BBAD12349
:1003F0006B70291D04F11400FBF71CF90028CAD00A
:10040000784600F027FEC6E7154D05202946FFF780
:100410000FFA20BB2B68D3225A702B68E268C3F80E
:1004200002202868DFE70E4D04202946FFF700FA76
:10043000A8B92B68D4225A702B68A2885A802868E1
:10044000237B0371CFE7064D05202946FFF7F0F91E
:1004500028B92B68D2225A702B686268DFE7F8BD92
:100460009844002010B50446F9F76AFDFAF70AFF30
:1004700002F0B2FB002360781A461946BDE810402E
:10048000FFF7CCBA10B58CB000210446242203A893
:100490000AF030F903F0C2F803A90190E088FBF7F5
:1004A00035F8002839D102A8FAF77AFFA288BDF8FA
:1004B00008108A423AD3BDF80A300B449A4235DA22
:1004C00009AA61884FF6FF70FBF750FE28BB6279DE
:1004D000237943EA0223ADF81430237A8DF81630DD
:1004E000637A003318BF01238DF81730A37A8DF893
:1004F000183023780B2B83BF0B3B04F10C02ADF8B3
:100500002030079098BFADF82000019B88BF07926C
:10051000002103A80B9303F077F8042301460DEBA9
:1005200003026078FEF72EFF0CB010BD1020F4E738
:1005300007B502AA202322F8043D002102234078B7
:10054000FEF720FF03B05DF804FB13B504466846D0
:10055000FAF726FFBDF80030ADF80430BDF80230E0
:10056000ADF8063004230DEB030200216078FEF79E
:1005700009FF02B010BD07B502AA0A2322F8043D04
:10058000002102234078FEF7FDFE03B05DF804FB76
:1005900007B502AA082322F8043D0021022340786F
:1005A000FEF7F0FE03B05DF804FBFFF7F1BFFFF7C5
:1005B000EFBF10B5C0B07E230446694601A8009382
:1005C000FBF700F8009B0146607833B15B009BB2FB
:1005D00001AAFEF7D7FE40B010BD1A46F9E730B5C4
:1005E00089B0694604464088FAF790FF162205460E
:1005F000002102A80AF07EF80DBBA378E27843EA56
:100600000223ADF8083068469DF800308DF80A30B6
:10061000FCF70EF80199BDF802308DF80B00ADF82B
:100620000C3071B110220DF10E000AF058F81623AB
:1006300002AA29466078FEF7A5FE09B030BD002366
:10064000F6E70623F4E713B504464088FAF7FAFE06
:10065000E278A37843EA022302AA014622F8043D85
:1006600060780223FEF78EFE02B010BD13B504467B
:100670000DF106010230FAF7E1FE02AABDF80630DC
:1006800022F8043D014602236078FEF77BFE02B0AB
:1006900010BD13B504460DF106014088FAF790FE2F
:1006A00002AABDF8063022F8043D01460223607814
:1006B000FEF768FE02B010BD13B504464088FAF795
:1006C00053FFE278A37843EA022302AA014622F804
:1006D000043D60780223FEF755FE02B010BD13B54D
:1006E00004460DF106010230FAF70CFF02AABDF82C
:1006F000063022F8043D014602236078FEF742FEF0
:1007000002B010BD13B504460DF106014088FAF79A
:10071000BDFE02AABDF8063022F8043D01460223C0
:100720006078FEF72FFE02B010BD13B5C278837853
:1007300043EA0223ADF8043042790379044643EAE0
:10074000022301A8ADF80630FAF7F2FD00230146B6
:100750001A466078FEF716FE02B010BD13B50446C7
:100760004088FBF735FBE278A37843EA022302AA2C
:10077000014622F8043D60780223FEF703FE02B032
:1007800010BD13B5821D044601AB81884088FBF77C
:1007900073FA0223014601AA6078FEF7F3FD02B066
:1007A00010BD30B5C1B07D23009340AC05460DF1BE
:1007B0000601408824F8FC0D6A46FBF797FC009B75
:1007C0000146687823B91A46FEF7DCFD41B030BD1A
:1007D00001335B009BB22246F6E713B5044640881E
:1007E000FBF720FCE278A37843EA022302AA014641
:1007F00022F8043D60780223FEF7C4FD02B010BD6C
:1008000013B50446011D4088FBF7C0FBE278A378CE
:1008100043EA022302AA014622F8043D607802233B
:10082000FEF7B0FD02B010BD13B5821D04460DF1F8
:10083000060381884088FBF7E7FA02AABDF8063074
:1008400022F8043D014602236078FEF79BFD02B0CA
:1008500010BD10B5C0B07E230446694601A80093C0
:10086000FBF7DCF9009B0146607823B91A46FEF7D6
:1008700089FD40B010BD5B009BB201AAF7E713B53C
:1008800004464088FBF7E2FBE278A37843EA0223C0
:1008900002AA014622F8043D60780223FEF772FDA9
:1008A00002B010BD13B50446011D4088FBF796F851
:1008B000E278A37843EA022302AA014622F8043D23
:1008C00060780223FEF75EFD02B010BD13B504464A
:1008D0000DF10602011D4088FAF792FF02AABDF849
:1008E000063022F8043D014602236078FEF74AFDF7
:1008F00002B010BD10B5447802F070FE002301462E
:100900001A462046BDE81040FEF73CBD10B54478BD
:1009100002F00EFE002301461A462046BDE81040B4
:10092000FEF730BD0248034B036002F06FBE00BF0C
:100930008C4400205503030070B543787033DBB25C
:100940001F2B054602D9784600F084FB6878AC2856
:1009500006D900231A468221BDE87040FFF75EB831
:10096000A0F190060E4C14F83620824202D0784650
:1009700000F070FB04EBC60329785A788A4204D24F
:10098000987801320244914204DD00231A46842102
:100990006878E1E728465B68BDE87040184700BF0B
:1009A0006CB6030038B50D4C636805460BB90020E2
:1009B00038BD0422214609F083FE58B12369002B7B
:1009C000F5D0042204F10C01284609F079FE002834
:1009D000EDD101200C2303FB0040E9E79C440020FB
:1009E00070B5C0B0054669464088F9F749FF04462E
:1009F000E0B96846FFF7D6FFB8B140AE836806F8A5
:100A0000FC4DA81C314698479DF8043004466BB154
:100A10006C78FEF7CDFF9DF8043001460133324675
:100A20002046FEF7FBFF40B070BD052420466D78E0
:100A3000FEF7BEFF002301461A462846F1E737B508
:100A4000851C04462846FFF7ADFF0023ADF80430AF
:100A500080B143680DF1060128469847BDF806307D
:100A6000ADF804300146022301AA6078FEF78AFC43
:100A700003B030BD0521F6E730B51B4DC1B00446CB
:100A8000FA22002101A809F035FE6B68F3B10422B7
:100A90000DEB0203981C294609F021FEBDF8040065
:100AA0002B69013080B2ADF804007BB13D2819D824
:100AB00001AB03EB8000042205F10C01023009F0C8
:100AC0000EFEBDF804300133ADF804300021BDF84E
:100AD000043060789B0002339BB201AAFEF752FCFF
:100AE00041B030BD0C21F2E79C44002010B54378A2
:100AF000FF2B044602D1784600F0ACFA20460322D0
:100B00000249BDE81040FEF752BC00BF54B70300D5
:100B100010B5042204460021054809F0EBFD00232E
:100B200060781A461946BDE81040FEF777BF00BF4F
:100B3000F045002013B50422044600210DEB02000D
:100B400009F0D8FD054B60781B68019304230DEB79
:100B500003020021FEF762FF02B010BDF045002045
:100B600007B502AA0A2322F8043D00210223407897
:100B7000FEF754FF03B05DF804FB00231A46822100
:100B80004078FEF74BBFFFF7F8BF000037B5847819
:100B9000054684BBD0F80510184806F06EFD052206
:100BA0002146684609F0A6FD29799DF803302246C2
:100BB00041FA02F0C00708D502AC581C234402F1E8
:100BC000250403F8084CC3B201240132032AEFD1F3
:100BD0000CB18DF803300948694606F000FD00208D
:100BE0006C78FEF7E5FE002301461A462046FEF724
:100BF00015FF03B030BD0720F2E700BFB844002066
:100C000070B584780546BCB90D4E3378012B15D1EB
:100C1000301D06F05CFDAA784FF49E7353432046C6
:100C2000F4546C78FEF7C4FE002301461A462046B1
:100C3000BDE87040FEF7F2BE0720F2E70820F0E7BB
:100C4000B44400202DE9F041847805465CBB067869
:100C5000DFF85C80023E314608F1040006F04CFCEF
:100C6000074610B3FF2303713246E91C113009F027
:100C700036FDA8784FF49E7606FB00800430394696
:100C800006F075FCAB785E43012308F80630204679
:100C90006C78FEF78DFE002301461A462046BDE81B
:100CA000F041FEF7BBBE0720F2E70420F0E700BFEB
:100CB000B444002010B50446012002F0FDFC0023DE
:100CC00060781A468E21BDE81040FEF7A7BE13B526
:100CD000044601A90078FEF7ABFD60B9019B8222B2
:100CE0005A70019810F8022BA11C013A09F0F7FC88
:100CF0000198FEF7B7FD02B010BD00002DE9F743E3
:100D00008578044645B100231A4685216078FEF7B0
:100D100085FE03B0BDE8F083194E8DF800508DF8C4
:100D20000250A6F178074FF0010897F87B30AB42EC
:100D300010D87B6F4FF47A7203F5FA73B3FBF2F3BA
:100D4000CDF8033097F82C308DF801306A46072330
:100D50000021DBE73378253B022BB14602D97846E8
:100D600000F078F999F800309DF80220253B08FA48
:100D700003F3134301368DF802300135D5E700BF88
:100D80002C45002010B5064A141D20469C23A03295
:100D9000002106F0C7FC2046BDE8104006F092BBDB
:100DA000B444002010B543781F2B044602D978467E
:100DB00000F050F920460B220249BDE81040FEF732
:100DC000F6BA00BF6CB70300034A1368591C1CBF76
:100DD00001331360704700BFF045002038B5054669
:100DE000FEF716FE98B9FEF7D3FF044668B9FEF782
:100DF00011FD044648B9FFF7C5FFFFF793FDFFF764
:100E0000F7F915B1284600F007F8204638BD082448
:100E1000FBE7FEF737BD0000014B1860704700BFCD
:100E2000F445002010B5094B1B6804465BB110F86F
:100E3000021B0139984700231A4619466078BDE81D
:100E40001040FEF7EBBD1A468E21F7E7F44500206F
:100E50000620704730B5754B14461B6841F20102FD
:100E6000904287B00D4603F480437ED01ED80128FF
:100E700045D0002B5DD06E4B1B68002B59DD2F2118
:100E80006C4809F007FD002800F0C4802F21694854
:100E900009F000FD411C684B684AD3F80435009204
:100EA00001957B22012004F0A5FB42E044F20102FF
:100EB000904200F0858044F202029042D9D1002B8A
:100EC00037D05B4B1B68002B33DD2F21594809F0CD
:100ED000E1FC00286BD02F21564809F0DBFC411CB7
:100EE000554B2288D3F8043503926268CDE901524C
:100EF000534A009201206C2204F07CFB19E0C3B13C
:100F00004B4B1B68002B14DD2F214A4809F0C2FC13
:100F100010B32F21474809F0BDFC411C464B494AFC
:100F2000D3F804350092CDE901546022012004F089
:100F300061FB4FF0A0434FF4F032C3F81825C3F81B
:100F40000C25EFF3108372B64DF6AD6C3E4A137864
:100F5000002B68D107B030BD5C21364809F09AFCFF
:100F600008B15C21D6E73349D8E7002BE1D0304BFC
:100F70001B68002BDDDD2F212E4809F08BFC68B1AA
:100F80002F212C4809F086FC411C2B4B2F4AD3F80B
:100F900004350092CDE901546322C7E75C2125485E
:100FA00009F078FC08B15C21EBE72249EDE75C2110
:100FB000204809F06FFC08B15C218DE71D498FE7DF
:100FC000002BB6D01A4B1B68002BB2DD2F2119481D
:100FD00009F060FCA8B12F21164809F05BFC411C08
:100FE000154B2268D3F8043504926268CDE90252A9
:100FF000A2680192164A00920120772204F0FAFAC0
:1010000097E75C210B4809F045FC08B15C21E3E758
:101010000849E5E75C21074809F03CFC08B15C2180
:1010200035E7044937E730BF91E700BFC82D0020FE
:10103000C42D0020C4B703000010014068B80300AD
:1010400028B80300ECB70300B42D002006B8030055
:1010500047B8030007B50023ADF800300146054B43
:1010600001936A4644F20200FFF7F4FE03B05DF814
:1010700004FB00BF44B1030001461022014809F0FF
:101080002EBB00BFF845002010B50B4C0B490822C1
:10109000204609F024FB0822A018094909F01FFB8B
:1010A000E379042262F30713E371237A022262F3E5
:1010B0008713237210BD00BFF845002060000010A8
:1010C000A400001000487047F8450020064B00229D
:1010D00003F580715A805A6003F8082B8B42F9D1CE
:1010E000024B1A60704700BF0846002008470020E6
:1010F000F0B50C4B0C4C1B68064620227BB1013B23
:1011000014F8330050B104EBC3056F88B74202D125
:101110006D688D4202D0013AF0D11046F0BD1F2318
:10112000EEE700BF084700200846002030B5084A17
:10113000084C136804EBC3056960012104F83310FF
:101140000B44202B08BF00236880136030BD00BF14
:101150000847002008460020C0F30C038B420844D7
:1011600038BFA0F50050C01A70470000F0B50D4B15
:101170000D4A1E6800218E4212D0156800230AE035
:1011800052F8044C04EBC30714F83340844201D1F5
:101190007868F0BD01339D42F2D101310832EAE7AF
:1011A0000020F6E70C4700201447002000B58DB062
:1011B00040B99A1C06D0012201A88DF804200293A0
:1011C00001F022FA034B186803F0D8F90DB05DF86E
:1011D00004FB00BF1847002010B50378044613B97C
:1011E0007846FFF737FFE188A069FFF7B5FFE169AF
:1011F0000A060B0A101843F1000110BD10B5037860
:10120000044613B97846FFF725FF607A431C012096
:101210009840013810BD0000F8B5037805460E4629
:1012200013B97846FFF716FF104AA88A0023144620
:1012300019018F5A874214D1002353520C4A136864
:10124000591C03F007031B011160AA8AE25206B180
:101250006E781C442846A670FFF7BEFFC4E9020161
:10126000F8BD0133082BE3D1E8E700BF2047002099
:10127000A04700202DE9F0410E468EB015461C46D1
:10128000074610B97846FFF7E5FE16B97846FFF72E
:10129000E1FE636AA27802330593E378A2F10800C5
:1012A000002B14BF012102210DF1040842424241EA
:1012B000434604F10C0003F094FAA3788DF834301F
:1012C000237BADF82050022B16FA85F5CDE9068771
:1012D0000B960C950FD1236913B97846FFF7BAFE28
:1012E00023690993102305A8ADF8283003F075FA97
:1012F0000EB0BDE8F0810023F5E70000B2F5C07F35
:101300002DE9F04781468846174602D97846FFF70F
:10131000A1FE244B002570229A4602FB053494F866
:10132000486046B9384605F01CFFE06638B900242D
:101330002046BDE8F0870135042DEED1F7E73022D5
:101340004946204609F0CBF9B8F1010FE664A4F84C
:101350004A701DD1144B84F852601B7D84F85130C3
:1013600084F8536084F85060D9F8283063656FF0D2
:101370000103A3620D4BA4F85860A3632464012009
:1013800001F06EFD702303FB05A585F84880CFE7CB
:101390006FF00103A362064BA36584F868602466BE
:1013A000044BEAE7BC470020A4470020FD180300D7
:1013B00009200300F518030010B50446C06E05F0BF
:1013C000D2FE04F1300002F039FB94F84830022BD1
:1013D00003D104F1500002F031FB204670220021BD
:1013E00009F088F9002084F84800BDE8104001F0B9
:1013F00037BD10B590F84830012B8CB0044602D0B0
:101400007846FFF727FE01238DF8043001A8636DAD
:10141000029301F0F9F82046FFF7CEFF0CB010BDA3
:1014200010B50446808A01F00DFF01281CD1237BF2
:10143000D3B194F91620002A18DBE27D5AB1022BB1
:1014400012D094F90330002B10DBA378002B0CBFD3
:101450000020072010BDE2780AB9012B06D12378BD
:1014600033B9A378042BF2E71020F3E70720F1E764
:101470000020EFE71FB500220B468DF80F2028B3A0
:101480000230086018460DF10F0103F0A8F99DF82D
:101490000F30DBB1144B1B685B0717D5134B1B6870
:1014A000032B13DD2F21124809F0F4F998B12F21F5
:1014B0000F4809F0EFF9411C0E4B0F4AD3F80435E1
:1014C0000092042040F2374204F094F89DF80F0097
:1014D00005B05DF804FB5C21054809F0DBF908B1B3
:1014E0005C21E5E70249E7E7C82D0020C42D002074
:1014F000C5B8030000100140E2B8030070B504460F
:10150000D0E906128CB0808A04F0A0FA0546A0B19A
:101510002C22002101A8A68AE46909F0EBF80F2328
:101520008DF804304FF0000364F3000301A8ADF818
:1015300008608DF80A3001F067F828460CB070BDDD
:101540002DE9F04F99461378D2F81880F3B007468A
:101550008A46144623B1D1884046FFF7FDFD9061CD
:10156000E378A278002BA2F1080003AD14BF01219B
:10157000022104F10C0642422B464241304603F060
:1015800030F9A278C4F81880CDE908571FFA8AF517
:10159000AB1A9BB21F44ADF82830E3780E974FF09A
:1015A000000812AF0D978DF83C20ADF83080002B6D
:1015B00065D04FF0100B04F1240A237BC4F824807B
:1015C000022B02BF2369ADF830B00B93206A21795A
:1015D0005246FAF7A7FE606A30BB237B022B05D187
:1015E0003146E089FAF768FF0028E6D1374B1B68DF
:1015F0005B0741D5364B1B68052B3DDD2F21354858
:1016000009F048F9002858D02F21324809F042F952
:10161000411C314B314AD3F804350092062040F288
:101620000E7203F0E7FF27E007A9FFF723FF00286A
:10163000CCD02046FFF762FFF0B9A2780B908DF86E
:101640001C0096E80300A38AADF82A30AD1A0CAB53
:1016500001228DF8282083E80300A37D8DF8403017
:10166000236A0E9307A8636A0897ADF824500F9376
:10167000CDF8449000F0C8FF73B0BDE8F08F227B36
:10168000012AB3D1A046E089B4F814A048F8243F59
:101690004146FAF78DFE07A9606AFFF7EBFE0028C6
:1016A000C7D1606241465046FAF782FE07A9606AD8
:1016B000FFF7E0FE002899D0BBE75C21054809F060
:1016C000E9F808B15C21A0E70249A2E7C82D002093
:1016D000C42D0020C5B803000010014088B90300E4
:1016E000C37D0A7830B5002B3DD0C37822F07F024D
:1016F00003F07F031A430A700B78027803F07F032C
:1017000043EAC2130B70037863B38378083B5A42F1
:101710005A414B7803F07F0343EAC2134B708A7837
:10172000C58802F00302C5F3861442EA850223F05D
:101730007F032343D2B28A704B70CB78057A03F0D3
:101740001F03C5F3C10422F0030243EA45132243F9
:10175000DBB2CB708A70427A23F01F0302F01F02C3
:101760001343CB7030BDC47822F0400343EA8413A6
:10177000DBB20B70027923F03F0302F03F02134308
:101780000B70B9E72DE9F041837890461344C27D90
:10179000002A14BF0B220F22934286B004460F4644
:1017A0002FD8024612F80C1B0092002914BF042502
:1017B00001252B440293836A0193C36A039368460D
:1017C00000238DF8103003F0A8F9064670B905998A
:1017D00020460D44FFF784FFE37D5BB14246394666
:1017E000284608F07CFF684603F0B8F9304606B09A
:1017F000BDE8F0812346424629463846FFF73AFDC8
:10180000F1E70926F2E7000038B590F84830012BDF
:10181000044602D07846FFF71DFC02F04FF9237B07
:10182000074A012B05BFD2E90315A37DD16805FB4B
:101830000311014404F13000BDE8384002F015B94D
:10184000A447002070B50D4690B0044610B9784604
:10185000FFF700FC94F84830022B03D1002120460A
:10186000FFF7DAFC2C22002105A8666D08F042FF84
:10187000102305A88DF8143006968DF81C5000F042
:10188000C3FE2046FFF798FD154B1B685B071BD571
:10189000144B1B68032B17DD2F21134808F0FAFFA8
:1018A000A0B12F21104808F0F5FF411C0F4BD3F8D1
:1018B0000435029594F8482001920D4A00920420C4
:1018C00040F22E2203F096FE10B070BD5C21064857
:1018D00008F0E0FF08B15C21E4E70349E6E700BF58
:1018E000C82D0020C42D0020C5B803000010014001
:1018F00094B8030008460021FFF7A4BF10B591F883
:101900004830012B0C4602D07846FFF7A3FB94F831
:1019100051305BB1013B84F85130002384F85030E2
:10192000084BBDE81040186802F028BE217B012951
:10193000204603D1BDE81040FFF784BFBDE810404A
:10194000FFF757BD184700202DE9F04F044689B036
:101950000F4609B100230B6004F10C0394F85050BA
:1019600001934FF001084FF0000B627AAA4203D2B4
:10197000002009B0BDE8F08FE16C08FA05F30B42D6
:1019800059D1E37D2572002B0CBF0C260826954209
:1019900006FB05FA237808BFB4F84A608DF818B042
:1019A00008BFA6EB0A06002B14BF4FF004094FF046
:1019B000010906EB09030493019B0293A36A0393B5
:1019C00002A8E36A059303F0A8F80028D1D1079B89
:1019D000994445B994F853302BB9A36984F85380DE
:1019E000C3F30C03E380E37D8BB994F8523073B9F1
:1019F00015B17846FFF72EFBB4F84A10A2788A1A80
:101A0000E16E23460846FFF735FC84F852800799BB
:101A10002046FFF765FEE16E32465144484608F025
:101A20005EFE02A803F09AF817B13B6801333B60F1
:101A30006B1C84F850300135EDB296E72DE9F04388
:101A400007468FB01046884615469946FFF756FD63
:101A50000446002860D1EE78002E40F0AE80B8F148
:101A6000060F59D138787A78DFF8A8C1830103F4DA
:101A7000FE5343EA9203D7F802204FF0700812BADF
:101A8000674608FB04C696F84810012925D1B6F828
:101A900014E0E9898E4520D1F18899421DD1B6F82C
:101AA00058E0A98ABEF1000F01D08E4515D110F083
:101AB000800F4FF070033BD003FB0473A3F8581062
:101AC000702303FB0474E56C1543E564002A61D1BF
:101AD00003213046FFF7B6FE1EE00134042CD0D1BE
:101AE000464B1B685B0717D5454B1B68012B13DD65
:101AF0002F21444808F0CEFE88B12F21414808F03C
:101B0000C9FE411C404B414AD3F8043500920220E3
:101B100040F2846203F06EFD0FB0BDE8F0835C21FB
:101B2000384808F0B7FE08B15C21E7E73549E9E736
:101B300003FB0473DB898B42C2D0304B1B685A070E
:101B4000EAD52F4B1B68012BE6DD2F212D4808F02D
:101B5000A1FEB0B12F212B4808F09CFE411C2A4B5E
:101B6000AA8AD3F804350292702202FB0474022080
:101B7000E2890192264A009240F28C6203F03AFD1B
:101B8000CAE75C211F4808F085FE08B15C21E2E746
:101B90001C49E4E73046FFF731FB854203D130466C
:101BA000FFF727FCB8E7002184F850103046FFF714
:101BB000CBFE3046FFF728FEAEE73046FFF7D6FAF9
:101BC00003460028A8D005F10C012A6A0B9203C92C
:101BD000AA8AADF8222009AA82E80300AA7D8DF81E
:101BE00030202A788DF82020EA6A8DF81460CDE93B
:101BF00006780D92494605A898478DE7C82D002024
:101C0000C42D0020C5B8030000100140F5B8030042
:101C100023B90300BC470020F0B5C37D1546827888
:101C2000002B2A4414BF4FF480734FF4C0739342C7
:101C3000C7B00E4679D3404C0023E11891F84870A4
:101C4000012F08D1B1F814C0878ABC4503D1CF89D0
:101C5000C1898F426BD07033B3F5E07FEDD10121A4
:101C6000FFF74CFB0446002863D02A463146C06E7D
:101C700008F035FD002304A920460493FFF764FE15
:101C800030F0040506464BD1049B13B12046FFF704
:101C9000BBFD2A4B1B685B0728D5294B1B68032B10
:101CA00024DDB4F84A10274B8029186828BF80210A
:101CB000002305AE8B421CD100222F21224806F8BA
:101CC000132008F0E7FD10B32F211F4808F0E2FDB4
:101CD000411C1E4B1E4AD3F8043501921D4A009246
:101CE000029640F27152042003F084FC284647B06B
:101CF000F0BDE26ED25C170902F00F02C75D06F874
:101D00001370875C06EB430201335770D2E75C2106
:101D10000D4808F0BFFD08B15C21D6E70A49D8E7B5
:101D20002046FFF749FB3546E0E70925DEE70825B1
:101D3000DCE70425DAE700BFBC470020C82D0020FF
:101D4000C42D0020CC2D0020C5B803000010014098
:101D5000B7B803003EAA030010B54FF4E0720021AB
:101D6000134808F0C7FC002403F0E0FE114B1248B2
:101D70001C602146802208F0BDFC104B1049114A1E
:101D800011489C75C3E9001210494CF25032C3E966
:101D900002211A6140F604029A8202F0D1FB0C4B38
:101DA00018600C4B0C481C60BDE8104003F0C0BF2D
:101DB000BC470020A047002020470020A447002067
:101DC00080969800F04902003D25030020A10700FD
:101DD000184700200C470020AD11030003F02EBE71
:101DE00030B504468DB000286CD00369002B69D053
:101DF000C369002B66D08569002D63D05A788DF8B1
:101E000004201A780993838A82F001020B2B8DF843
:101E10000320027B43D90121022A8DF8001001D151
:101E2000294A927D002A44D1042213448DF80220CD
:101E30000B330C2293FBF2F3013B8DF809300023A6
:101E40008DF8083094E8030000238DF8173003ABB9
:101E500083E803002389ADF81430A37A8DF8163097
:101E6000236A0A932046DF2308950B93FAF7E0FBD9
:101E700028B12378012B0CBF2023FF230B93684646
:101E80002569A48AFFF7CCFA38B99DF800302246BC
:101E9000294668469BB1FFF7BFFE0DB030BDC17A41
:101EA0000029B8D1012A0CBF012200228DF80020A0
:101EB00001D10822B9E704238DF80230C2E7FFF709
:101EC00061FCEAE70E20E8E7A4470020F0B50346EE
:101ED0008DB00F46002843D04568002D40D086695C
:101EE000002E3DD0846802788DF803200B2C4FF033
:101EF0000002099294BF027B012202F0010100203E
:101F00008DF800108DF8020032B1E11DC9080139C9
:101F10008DF809108DF8080003F1100103C90122A2
:101F20008DF8172003AA82E80300DA89ADF814209F
:101F30001A7F1B6A089668468DF81620CDE90A7349
:101F4000FFF76EFA38B99DF80030224629466846F8
:101F50001BB1FFF761FE0DB0F0BDFFF713FCFAE710
:101F60000E20F8E770B5067B012E8CB004460D46B6
:101F700046D10B220021684608F0BCFB9DF80120E9
:101F8000E3888DF8055002F0030242EA83028DF8DF
:101F900001202A0E8DF802202A0C8DF803202A0A2F
:101FA0008DF8042062788DF81C60911E4A424A41E7
:101FB000C3F3861343EAC2138DF80030062305935A
:101FC000A38AADF81E30002308938DF80C308DF8ED
:101FD0001830E389ADF81A30E36A0B93A37D226AC7
:101FE000CDF810D0099243B96FF0010103A88DF824
:101FF0002830FFF76BFF0CB070BD024B5B7DF3E741
:102000000020F8E7A447002010B591F84830022BD3
:102010000C4602D07846FFF71DF8022384F868309A
:1020200094F84830022B06D1E16C2046FFF79AFF66
:1020300008B984F8680010BD2DE9F04F0C469FB038
:1020400090461F460546002800F0A781002A00F0B0
:10205000A48121B9092630461FB0BDE8F08F1822AF
:10206000414609A808F03BFB2B78002059B2CA0F63
:1020700081428DF81820ACBF0122042294428DF8D1
:102080001900E7D39DF82F60EEB103F07F03814282
:102090008DF81B308DF81A002EDA6A78AB78920131
:1020A00002F4FE5242EA9302ADF81E20DB00EA7809
:1020B00003F0180343EA521302F01F028DF8203098
:1020C0008DF8212018E0C3F38010002903F03F03AE
:1020D0008DF81B008DF81C3008DA95F90130002BC3
:1020E000ACBF042308238DF81A30D6E704231A4422
:1020F00094428DF81A30ADD300230F933B78032B15
:1021000002D97846FEF7A6FF3A78A54B06A853F801
:1021100022301193FFF784F9064600289BD1D8E9B5
:102120000312B8F8080003F0CDFC002893D1314623
:10213000082204A808F0DEFA04A9B8F80200FAF7A9
:10214000BBF938B19DF8193043F001038DF819300F
:10215000059B0A939DF81930002B3FF47CAF9DF846
:102160001820002A00F007818E4A4FF0000A93469B
:1021700002EB0A0393F84810022940D00AF1700AD2
:10218000BAF5E07FF4D19DF8183013B97846FEF720
:1021900061FF06A8FFF720F8BDF82CE0824A4FF057
:1021A000000C4FEA0C1838F8023073453DD19044CA
:1021B000D8E9029A514508BF484536D106AD0FCD42
:1021C00012AC0FC40FCD0FC495E80F0084E80F00C8
:1021D00098F802308DF84930002B3FF43CAF12A83C
:1021E000FFF70CF8014612A8FFF7BCFE98F8023082
:1021F000DC077FF530AF06A8FFF780F92BE7988A58
:10220000BDF82C108842B9D106A8CDE90232FEF7FC
:10221000E3FF029B804618468946FEF7DDFF8945AD
:1022200008BF8045039AA9D215E70CF1010CBCF157
:10223000080FB6D10023702202FB03BA9AF84810A7
:10224000022915D1BAF81410714511D106A8FEF76C
:10225000C3FF804650468946FEF7BEFF494508BF8A
:10226000404580F0AD8005215046FFF7EBFA02E0D3
:102270000133042BE0D19DF82F209DF82130002A56
:102280000CBF4FF00C084FF0080803FB08880CBF88
:102290004FF4C0734FF48073984529D9434B1B68A2
:1022A00058077FF5D8AE424B1B68002B7FF7D3AEA3
:1022B0002F21404808F0EEFA88B12F213D4808F060
:1022C000E9FA411C3C4B3D4AD3F804350092CDF865
:1022D000048040F29232012003F08CF9BBE65C21CD
:1022E000344808F0D7FA08B15C21E7E73149E9E75B
:1022F000BDF81E100C98FEF72FFF0D9A0146BDF891
:102300002C0003F0DFFB00287FF4A5AE424602213B
:1023100006A8FEF7F3FF8246002851D1014606A821
:10232000FFF720FE2C22514612A808F0E3F91023F3
:102330008DF8483012A802238DF8503000F064F96F
:1023400089E65C211B4808F0A5FA08B15C2146E04B
:10235000184948E0002B0CBF0C2308239C4200F0D6
:10236000A28004215046FFF76DFA74E63B465246C0
:10237000FFF7E6F8CDE0DA077FF56DAE9DF82F3078
:10238000681C611E23B13B4606AAFFF757FB62E6B5
:102390003B4606AAFFF7D4F85DE60E265BE600BFD3
:1023A00084B80300BC47002020470020C82D00202F
:1023B000C42D0020C5B803000010014064B903001B
:1023C000584B1B685B071BD5574B1B68032B17DD4E
:1023D0002F21564808F05EFA0028B2D02F2153482A
:1023E00008F058FA411C524B9DF82020D3F80435D0
:1023F0000192504A009204204FF4717203F0FAF8EF
:102400009AF84830022B02D07846FEF723FEDFF818
:102410002881D8F8009001F051FB09EB00010AF186
:10242000300001F022FB9AF80C30012B1AD19AF8F7
:102430006830BBB99AF84830022B02D07846FEF7D4
:1024400009FED8E9013298F8151002FB013801F0B5
:1024500035FB00EB08010AF1500001F006FB0123F7
:102460008AF868309DF82010DAF84C3001228A4052
:1024700013427FF4F0AD1343CAF84C309DF82F306F
:102480009AF80920002B0CBF4FF00C084FF00808F9
:102490008A42A4F1040408FB01F87FF45BAF08EB67
:1024A0000403AAF84A30DAF818200C9B9A420BD29F
:1024B0000DF1240EBEE80F000AF10C0CACE80F0081
:1024C0009EE803008CE80300DAF86C002246291D20
:1024D000404408F004F95046DAF84C40FEF78EFE0E
:1024E00084427FF4B8ADDAF84C105046FFF73AFD5D
:1024F0009AF80130D9070CD59AF81730DAF86C0041
:10250000BAF84A10002B3FF431AF3B465246FFF772
:1025100095FA50460121FEF77FFE5046FEF74CFF2C
:1025200099E500BFC82D0020C42D0020C5B80300C8
:102530000010014078B90300A44700202DE9F341C1
:10254000194E00243746A046351995F84830012B1E
:102550000CD102A9284641F8048DFFF7F5F90428AB
:1025600001D0019B13B12846FFF74EF97034B4F542
:10257000E07FE9D100257C1994F84830022B0AD17C
:1025800094F86830022B06D1E16C2046FFF7EAFC94
:1025900008B984F868007035B5F5E07FEBD101200B
:1025A00002B0BDE8F08100BFBC4700202DE9F0413A
:1025B00088460746E8B1124E3468C4B925464545F9
:1025C00007D1104BC3E90075012333602046BDE8F5
:1025D000F08107EBC5035B685BB117F835000306B4
:1025E00009D450B1FEF7C2FD38B90135E7E704243C
:1025F000ECE70E24EAE70B24E8E70F24E6E700BF48
:102600000C47002010470020F8B5074610B978465F
:10261000FEF720FD0F4E346894B10F4D01232B704F
:1026200023791BB954F8043C384698472468002C99
:10263000F6D12B78022B03D13168064C09B92970E9
:10264000F8BD0B790E6813B1204602F058FF3146F1
:10265000F4E700BF804900207C49002010B5044603
:1026600010B97846FEF7F6FC00232372211D0248BC
:10267000BDE8104002F022BF804900200B8882682C
:10268000D25A073222F00302134402889BB2043A62
:10269000934288BF00230B80704713B58368CB1A21
:1026A00002A921F8023DFFF7E9FFBDF80630806876
:1026B000184402B010BD10B5044610B97846FEF7B4
:1026C000C9FC2388042B02D87846FEF7C3FC208877
:1026D000043880B210BD70B5064615460C4611BBD5
:1026E0007846FEF7B7FCFEB17846FEF7B3FC6B1EEA
:1026F0002344B3F1005F34D94FF08052D2F80C215B
:1027000002F50022B3EB822F2ED2042D02D8784698
:10271000FEF7A0FC35800023043D7380B380B460D5
:102720002580A37070BD10B97846FEF793FCB4F114
:10273000005F12D94FF08053D3F80C3103F500231A
:10274000B4EB832FD3D34FF08053D3F80C3103F580
:102750000053B4EB832FC7D2C9E7B4F5000FF2D80A
:10276000C2E7B3F5000F08D94FF08052D2F80C2120
:1027700002F50052B3EB822FC7D37846FEF76AFC0E
:10278000C3E738B5044610B97846FEF763FC6288A3
:10279000A36813449B78012B02D17846FEF75AFCBC
:1027A000EFF3108572B6A268A18811448B78032BD1
:1027B0000AD12046FFF771FFA368C31A6380002384
:1027C000837005B962B638BD002393706380A3801F
:1027D000F7E7F8B50E461546044610B97846FEF7F9
:1027E00039FC16B97846FEF735FC6288A3681344B5
:1027F0009B78012B02D17846FEF72CFC002D37D0B8
:102800002388043B9BB29D4232D8EFF3108772B607
:102810006188A388EA1D22F00302994292B204D291
:102820005B1A9A4210DD042016E018D92088401A5D
:10283000904209D29A42F6D8032881BFA3685B1858
:1028400004229A70002363806288A1688B188D52DD
:1028500001229A700020336007B962B6F8BDA26801
:1028600013449B78002BDED193706380A380EBE749
:102870000920F3E7F8B50D461646044610B9784628
:10288000FEF7E8FB15B97846FEF7E4FBAB78012BC1
:1028900002D07846FEF7DEFB2B88B34202D27846A0
:1028A000FEF7D8FB16B97846FEF7D4FBEFF3108796
:1028B00072B60223AB70E1182E802046FFF7DEFED1
:1028C0006288A38893421FBFA3689B1800229A7056
:1028D00007B962B6F8BD70B50D46044610B9784622
:1028E000FEF7B8FB15B97846FEF7B4FBEFF3108698
:1028F00072B6A288A36813449A78042A06D1211DCF
:102900002046FFF7BBFEA288A36813449A78022AE8
:1029100003D0032A08D0052003E003229A702B601D
:10292000002006B962B670BD7846FEF793FBF7E764
:1029300038B5044610B97846FEF78CFBEFF31085E6
:1029400072B6A088A16801448B78042B03D120467D
:10295000FFF7A3FE01468878831E5842584105B907
:1029600062B638BD38B5044610B97846FEF772FB3A
:10297000EFF3108572B6A088A16801448878C31E61
:10298000012B05D9831E5842584105B962B638BD9E
:102990002046FFF782FE0146F0E7F8B50D460446F3
:1029A00010B97846FEF756FB15B97846FEF752FB8C
:1029B000EFF3108672B6AB78012B19D0032B22D11E
:1029C000A288A36813449D4202D07846FEF742FBDA
:1029D0000027AF70211D2046FFF750FEA288A36894
:1029E00013449B78042B00D1A78006B962B6F8BDCA
:1029F0006288A36813449D4202D07846FEF72AFB02
:102A00000023AB70F1E77846FEF724FBEDE700000A
:102A1000014B1868704700BF8449002010B5044678
:102A200010B97846FEF716FB63681BB123680BB13B
:102A3000A36813B97846FEF70DFBA3685A1E1A4225
:102A400002D07846FEF706FB0023C4E9033310BD2D
:102A500038B50546F0B1E9B18368EBB1EFF3108406
:102A600072B6D0E902302A691A44824203D104B90D
:102A700062B604240CE0013B0340D5E9000202FBEE
:102A8000030007F02CFEEB680133EB6034B962B64B
:102A9000204638BD0E24FBE70924F9E70024F7E7B8
:102AA00070B50E460446F0B18368F3B1EFF31085BC
:102AB00072B6D0E90331994203D105B962B6052552
:102AC0000FE04EB18368013B0B40D0E90012304665
:102AD00002FB031107F003FE23690133236135B9BB
:102AE00062B6284670BD0E25FBE70925F9E70025EB
:102AF000F7E70000024AD2F80034002BFBD0704701
:102B000000E00140C0F30B0310B5E3B9E9B1104C8C
:102B10000223C4F80435FFF7EDFF01F6FF7121F43D
:102B20007F6121F00F010144884205D10020C4F8E3
:102B30000405FFF7DFFF10BDC4F80805FFF7DAFF53
:102B400000F58050F0E71020F5E70920F3E700BF1B
:102B500000E0014070B540EA010414F003041BD109
:102B6000E2B195071AD10E4E0123C6F80435950837
:102B7000FFF7C0FFAC4205D10020C6F80405FFF7FF
:102B8000B9FF70BD51F824305A1C03D040F82430EE
:102B9000FFF7B0FF0134EDE71020F2E70920F0E77E
:102BA00000E0014000B50A4B1A7B9B688DB0012AFA
:102BB00008BF03F1FF3303900CA80493022300F82D
:102BC0002C3D8DF80820FFF71FFD0DB05DF804FBCC
:102BD000B44900207047000010B5064C14220021B3
:102BE000204607F087FD044B00221A704FF08073D7
:102BF000636010BDB44900208D49002010B50B4C16
:102C000014220021204607F075FD00F057FF084B05
:102C1000084A09499A6000225860C3E903125A61C0
:102C2000064B1A704FF08073636010BDB4490020EA
:102C300090490020252D030000879303C8490020F8
:102C400010B5074C23784BB90648074B036000F0DA
:102C5000DDFC064800F0D0FE0123237010BD00BF4C
:102C60008C490020A8490020892D030090490020AC
:102C700010B501F0F5FB0F4A117B1346B9B9917BF2
:102C8000A9B9118A41F28262914202D80A4A1278A5
:102C90006AB101221A739A680024013220461C820C
:102CA0009A60FFF77FFF01F01BFC204610BD08244F
:102CB000F9E700BFB4490020C849002010B501F071
:102CC000CFFB164A547B1346BCB1917B11BB118AD2
:102CD00041F28262914202D8114A1278E2B11A7B23
:102CE000002058732AB1012A0BD07846FEF7B2F9BA
:102CF00003E0FFF7BDFF0028F7D101F0F1FB20460C
:102D000010BD4FF0807218605A6018731882FFF778
:102D100049FFF2E70024F0E71446EEE7B44900204B
:102D2000C849002010B5164C237B2BB1012B12D0C3
:102D30007846FEF78FF918E0228A41F282639A42C0
:102D400002D8104B1B7883B1FFF7B8FF638A0BB131
:102D5000013B638210BD228A41F282618A4208D817
:102D6000084B1B780BB1FFF7A9FF238A013323829D
:102D7000ECE742F2B0118A42F5D96373E4E700BF91
:102D8000B4490020C849002010B40378042B0ED1A8
:102D900043681B785BB11C4B4269197B047E69BB9D
:102DA000598AF9B9012C996804D08A4205D85DF88E
:102DB000044B70474C1CA24216D92A318A42F6D8DD
:102DC000997B0029F3D180689A604FF080725A6035
:102DD0000E4A19601A615973197310305DF8044B6B
:102DE000FFF7E0BE012CE2D1996801318A42DED1C1
:102DF00001225A735DF8044BFFF760BF0129D6D159
:102E0000012CD4D09968F1E7B44900200000062DC8
:102E100038B5104CD4E900239A42054615D2207BE0
:102E20000D4B0E49012808BF0B469A4203D30123DC
:102E30006373FFF743FFEFF3108072B623685A1CE9
:102E400022602B6018B962B638BD0F20FCE7002065
:102E5000FAE700BFB4490020FFFF7F0000E0FF0059
:102E600010B50C4A1368144628B101200A490344DE
:102E70008873136010BD13B97846FEF7EBF823682A
:102E8000013B2360002BF5D1034A9373BDE810404A
:102E9000FFF714BF88490020B449002000B58DB069
:102EA0000323ADF808000CA88DF8102000F82C3D85
:102EB0000391FFF7A9FB0DB05DF804FB014B986887
:102EC000704700BFB4490020034B98681B7B012B5F
:102ED00008BF00F1FF307047B4490020044B9B68E5
:102EE0005840C20748BF03F1FF331846704700BF80
:102EF000B4490020014B187B704700BFB449002043
:102F00002DE9F8431D4CDFF8789000260221204679
:102F100002F0E2F95FFA86F805460027ADB967B11D
:102F20002946204602F03FFA082806D154F8043C0E
:102F30001BB12A464946404698470136032E04F104
:102F4000BC04E3D10120BDE8F88354F8043C34F814
:102F50000C2C13B129464046984734F80C3C02210A
:102F60000133204624F80C3C02F0D2F9022120461D
:102F700002F0B2F901370546D0E700BFE049002072
:102F8000B4B9030038B5012104460C3002F0A4F9AD
:102F9000054620B3164BC4F89C300023C4F8A0307B
:102FA00003786268012B07D0022B1AD07846FEF70F
:102FB00051F84FF4FA7306E081688B1A99082923B7
:102FC0004B4303F5FA730B4A934294BFC4F8A830FD
:102FD000C4F8A8200123C4F8AC4084F8B8302846CF
:102FE00038BD83689B1A1A0B034B5343E9E700BFB4
:102FF0001D30030060850100084C010010B5044637
:10300000FFF7C0FF48B104F19C0004F077FD20B148
:103010007846BDE81040FEF71DB810BD2DE9F74F0A
:103020004A4B1B7880460D463BB104F09DFD0023C2
:1030300085F8B83003B0BDE8F08F01F10C09D1F884
:10304000A8704846012102F047F9064610B97846B3
:10305000FEF700F8DFF8FCA0A7F5FA7700244FF0A0
:10306000290B3378012BA7EB040406D0022B3BD0AD
:103070007846FDF7EFFF00231FE06B68B268B4FBF2
:10308000FBF4D21AA400944228BF144624B9019339
:103090007846FDF7DFFF019BF168706823F00303BA
:1030A000224619441844FFF755FD10B17846FDF744
:1030B000D1FF6B681C446C60B3686A689A422AD17D
:1030C00004F052FD4846012102F022F900236B6012
:1030D00085F8B8301E4B186801F050FA284603B046
:1030E000BDE8F04FFFF78ABF6B68B268B4FBFAF433
:1030F000D21A2403944228BF144624B90193784677
:10310000FDF7A8FF019B706823F0030321461844D4
:10311000FFF7F8FCC9E701F07DF83378B0EB08045D
:1031200048BFA8EB0004012B0DD0022B06D153465B
:103130002344BB4295D904F017FDCFE77846FDF74D
:1031400089FF0023F4E72923F2E700BFD0490020DC
:10315000CC490020084C010070B51B481B4C01F005
:10316000EFF91B4B186004F11C0341F2030608251C
:10317000636104F10C0004F118032361A681A573B7
:1031800002F0EDF804F1D803C4F8D03004F1C8001F
:1031900004F1D403C4F8CC30A4F8C86084F8CA5051
:1031A00002F0DDF804F5CA73C4F88C3104F5C87375
:1031B000A4F8846184F88651C4F8883104F5C2709B
:1031C000BDE8704002F0CBB8012F0300D4490020C5
:1031D000CC49002070B5EFF3108672B6144C23680A
:1031E00018BB13B97846FDF735FF2368013B236010
:1031F00093B9104D95F8B83013B92846FFF7FEFE85
:1032000095F8743113B90C48FFF7F8FE95F8303291
:1032100013B90A48FFF7F2FE2368094A003318BFC2
:103220000123137006B962B670BD01332360F3E762
:10323000084C0020D4490020904A00204C4B00202C
:10324000D049002010B1800B014B185C704700BFC3
:10325000C4B9030012DF704713B5137863B1022BB2
:103260000CBF0723002310F8011C292962D005D8C0
:10327000162973D002B010BD537DF4E72A2927D058
:103280002B29F7D1022BF5D110F8021C0139C9B254
:1032900002F07AFC04460028ECD0374B1B685B0632
:1032A000E8D5364B1B68012BE4DD2F21344807F0AD
:1032B000F1FA002849D02F21314807F0EBFA411CE0
:1032C000304B314AD3F8043500920194A62224E011
:1032D000022B01D0072BCDD110F8021C013901F0CF
:1032E000ADFC04460028C5D0234B1B685A06C1D547
:1032F000224B1B68012BBDDD2F21214807F0CAFAA4
:1033000078B12F211E4807F0C5FA411C1D4B1F4AFA
:10331000D3F80435009201949322022002F06AF956
:10332000A8E75C21164807F0B5FA08B15C21E9E787
:103330001349EBE7022B9DD110F8021C0139C9B2E9
:1033400002B0BDE81040F5F721BB5C210C4807F046
:10335000A1FA08B15C21AFE70949B1E701884FF64E
:10336000E463994286D110F8021C0230033902B09E
:10337000BDE81040FDF76CBDC82D0020C42D002015
:10338000EDB903000010014032BA030009BA03008E
:1033900070B58AB005F0A2F80446002834D00023A6
:1033A0008DF8103006460FCE05AD0FC533682B6083
:1033B000627D052A0CD9207D00F00F03072B07D072
:1033C00004AB063A04F11D0100F00F0003F0FCFE0F
:1033D000114B1A68AAB104AB0393237DC3F3030313
:1033E0008DF80430637D062B89BF063B00238DF8E2
:1033F000053004F11D0398BF8DF80530029301A834
:103400009047204605F054F805F082F880F001005E
:10341000C0B20AB070BD00BF104C002000B50A4B0E
:103420001A78032A8DB00CD104221A7000212C22A4
:1034300001A807F05FF91C2301A88DF80430FFF7FD
:10344000E3F80DB05DF804FB0C4C0020F7B5344FE9
:103450003A780546002A59D1002859D0067A0F2E0D
:1034600001D0062E56D103F07BFEE86800284AD032
:10347000FDF702FE0DF10700FFF7ECFE0446002801
:103480003ED19DF80730012B46D1FDF71FFE00F01D
:103490009DFA304600F07CFFE87800F023F900F058
:1034A000AFFD04F0C1FA1F4805F0CAF804F004F8B3
:1034B000FFF752FE00F04CFC03F012FE03F032FC6A
:1034C000284601F011FBFEF747FC02F0D1FEFDF7A4
:1034D000BFFC08B1062821D1134803F047FE2A207B
:1034E00003F0E8FE2B2003F0E5FE292003F0E2FEC6
:1034F000162003F0DFFE0D4B00221A6001233B7003
:10350000204603B0F0BDFDF7BFFDB3E70824F7E7A1
:103510000E24F5E70724F3E70224F1E70446EFE77A
:103520000C4C002091330300B82D0020104C0020DB
:1035300037B5244D2A78012A05D002D3033A012A4F
:1035400038D9082428E004F095FF01F0DFFAFEF7EF
:1035500045FCFDF77DFC044650B3062828D01A4BE5
:103560001B685B0418D5194B1B68012B14DD2F2138
:10357000174807F08FF990B12F21154807F08AF905
:10358000411C144B144AD3F804350092019440F2C4
:10359000A712022002F02EF8204603B030BD5C21B5
:1035A0000B4807F077F908B15C21E6E70849E8E73E
:1035B00000F01AFF04F094FA04460028ECD102232C
:1035C0002B70E9E70C4C0020C82D0020C42D0020F2
:1035D000EDB9030000100140C8B9030008B5084B5D
:1035E0001A78022A0AD1032206481A7004F03EFA19
:1035F00018B17846FDF72EFD002008BD0820FCE735
:103600000C4C00201D340300FEF7EABBFFF726B880
:1036100008B500F0C5FC002008BD7047044B1A68CF
:103620000132B2F1704F08BF01221A60186870476A
:10363000144C002010B5044610B97846FDF70AFD79
:103640000023C4E9003310BD38B50D46044610B957
:103650007846FDF7FFFC15B97846FDF7FBFC002323
:103660006B60EFF3108372B6226822B92560656043
:1036700003B962B638BD62685560F8E710B5044614
:1036800010B97846FDF7E6FCEFF3108272B62068B9
:1036900008B143682360236803B9636002B962B666
:1036A00010BD10B5044610B97846FDF7D3FC20686C
:1036B00010BD35DF7047000008B54FF0FF30FFF751
:1036C000F8FFBFF34F8F0549054BCA6802F4E0626B
:1036D0001343CB60BFF34F8F00BFFDE700ED00E069
:1036E0000400FA0507289ABF024B33F81000FA20AD
:1036F000704700BF5EBA0300024B5868103840B2F2
:10370000704700BF00ED00E0084A202390FBF3F370
:1037100052F82330424202F01F0200F01F0058BF4F
:10372000504223FA00F000F00100704700E100E091
:1037300046DF704730B501F110031032103013F836
:10374000014D12F8015D8B4284EA050400F8014D39
:10375000F5D130BD2DE9F047144690B002F10F05C8
:10376000102288462D1101460DEB0200994604F007
:103770000F0406F0B4FF002D51D0002C4FD10126CC
:10378000B2461022002108A806F0B4FF04A8FFF7F3
:10379000CFFF01220DF13F0110AB13F9100D1F46B1
:1037A00093F800C04FEA4C0C5FFA8CFC83F800C021
:1037B00013F801EF4CEADE1C994203F801CCEFD17B
:1037C0009DF83F305B00DBB20028B8BF83F0870371
:1037D0008DF83F30531C9A454FF00202DCD2013D78
:1037E00008EB0511FEB10CAA6846FFF7A3FF1022F3
:1037F00000210CA806F07EFF0024AC4225DB3A46EF
:10380000694608A8FFF796FF04A8FFF791FF10226A
:103810003946484606F063FF10B0BDE8F087002641
:103820004FF0020AADE72246684606F058FF10AB9B
:103830002344802203F8402C0134102C02D10CAA1E
:103840006946D1E70DF80460F6E708EB0412394643
:1038500008A8FFF76FFF04A8FFF76AFF0134CCE761
:1038600038B5124B1A6804462AB11A68456852687E
:10387000AA1A002A0DDA1A6862611C609A8801325D
:1038800092B29A8012B97846FDF7E4FB01232370C7
:1038900038BD19684A691AB15068401B002802DB1C
:1038A00062614C61EAE71146F4E700BF1C4C00205E
:1038B00010B5124B1A68824204461A460BD142696F
:1038C0001A609A8892B2511E89B299808AB9784654
:1038D000FDF7C0FB0DE01B685BB15969A1420BD13C
:1038E0006169596193889BB2591E89B29180002BFE
:1038F000EDD00023237010BD0B46EDE71C4C0020DB
:10390000014B186800F03ABE184C0020044B1A68AE
:1039100022B11B680349586800F05AB900F0AEB9EB
:103920001C4C0020013903002DE9F04100F0C6F8DD
:10393000254E054637464FF00008336823B13368FB
:103940005B685B1B642B06D400F0B8F8FFF7DEFF62
:103950000120BDE8F08134682378012B02D078463D
:10396000FDF778FB63693B60BB88C4F814809BB2A9
:103970005A1E92B2BA8013B97846FDF76BFBA36862
:1039800013B97846FDF766FB0223284623702169A8
:10399000A368984700F092F82378022B0546CCD113
:1039A000E2680AB92270C8E763686FF06301891A98
:1039B0001344091AD018C14204D463602046FFF7AB
:1039C0004FFFBAE70346F5E71C4C002008B5082274
:1039D0000021064806F08EFE054800F0B1FD054BBB
:1039E0001860BDE8084000F05CB800BF1C4C002027
:1039F00029390300184C002010B5044600F096FE4B
:103A000010B97846FDF726FB14B97846FDF722FB7E
:103A1000A36813B97846FDF71DFB2378012B02D16B
:103A20007846FDF717FB002363612046FFF718FF78
:103A300000F044F8BDE81040FFF768BF10B5044639
:103A400000F074FE10B97846FDF704FB14B978460F
:103A5000FDF700FB2046FFF72BFF0023636100F01A
:103A60002DF8BDE81040FFF751BF38B504460D46AC
:103A700000F05CFE10B97846FDF7ECFA14B9784610
:103A8000FDF7E8FA2046FFF713FF002363612046A5
:103A90006560FFF7E5FE00F011F8BDE83840FFF77C
:103AA00035BF08B505F092F938B905F0CFF820B167
:103AB0007846BDE80840FDF7CDBA08BD10B5EFF374
:103AC000108072B60C4A0D4B1968D2F80435D2F842
:103AD0000441012C04BFD2F80435013100B962B6AB
:103AE000074843EA01614FF480420023E0FB0123D1
:103AF000D00B40EA434010BD00100140244C002090
:103B000040420F0010B50A4B0A4C4FF40032C3F884
:103B10004823C3F80823226812B97846FDF79AFAB9
:103B20002468FFF7CBFF2346BDE81040184700BFCD
:103B300000100140304C002010B5EFF3108072B639
:103B40001E4B1F490022C3F804210A6801320A6093
:103B500000B962B61B4A116809B3116801391160D6
:103B60001268E2B9184AD3F804051168884217D2DE
:103B7000EFF3108072B6D3F8041514680131A14236
:103B80002ABFD3F8042512680232C3F8442500B9CD
:103B900062B64FF40032C3F84423C3F8042310BDC7
:103BA0000A4C226812B97846FDF754FA2468FFF7E8
:103BB00085FF2346BDE81040184700BF00100140B4
:103BC000244C0020284C00202C4C0020304C00209D
:103BD00037B50023044601930D4611B97846FDF729
:103BE00039FA204B1D60FFF769FF031B002BB8BF9C
:103BF000241A1D481D4AA8BF00244FF40045002187
:103C00000023E5FB040106F093FBEFF3108301931F
:103C100072B6174A174CD2F804350228C3F1FF11C7
:103C200001F57F4138BF02208142134910D303447C
:103C3000C2F844354FF40033C2F84433C2F80433B9
:103C4000002323600B60019B03B962B603B030BD53
:103C500003F17F43013303441A0E0132226023F043
:103C60007F43EFE7304C002020A1070040420F00C7
:103C700000100140284C00202C4C0020074B4FF432
:103C80000032C3F84823C3F80823054A0023136011
:103C9000044A1360044A1360704700BF00100140DB
:103CA000284C00202C4C0020304C002030DF704786
:103CB00031DF704710B5D0E900238468C168A2EBFA
:103CC000731283EAF43303600C44134411444460D8
:103CD0008160C360184610BD37B50C46054610B963
:103CE0007846FDF7B7F900239C4201D803B030BDF8
:103CF0000DF10700FFF7DAFF9DF807100029F7D054
:103D0000E21A914288BF8DF80720E8189DF8071045
:103D1000FFF7CEFF9DF807201344E5E737B50446CB
:103D200002A8002340F8043D0421FFF7D5FF074B0C
:103D30002360019BE360C4E9013314252046FFF7AB
:103D4000B9FF013DFAD103B030BD00BFED5EEAF12D
:103D5000704748DF704749DF70474ADF704700000F
:103D6000064A032313741168054B536140F6D86269
:103D7000914288BF43F2B0629A607047604C002065
:103D8000804C0020054B1B68A0F178022833584373
:103D9000034BB0FBF3F0101A704700BF7C4C0020BF
:103DA00040420F0038B50E4A0E4C01236371136870
:103DB000002501331360257400F086FA03F04AFFF2
:103DC0002068FFF7DFFF084A0146284600F0F0F9B7
:103DD00020B17846BDE83840FDF73CB938BD00BF9A
:103DE000944C0020604C0020613D030010B41F4B38
:103DF0005A6928B11968DC6811440134DC60196023
:103E0000996801240131E24001291C7499605A61CA
:103E10001C680ED002291AD05B69154A1C449442D2
:103E200003D840F6D76293421CD85DF8044BFFF7E5
:103E3000B9BFB2F5FA7F03D130B900225A61EBE77E
:103E400040F6D8618A42E7D840F6D862F6E7DA68E9
:103E5000022A02D1064A121BF0E7012ADCD100280F
:103E6000EBD0D9E75DF8044B704700BF604C0020F1
:103E70008096980070B5424C424D012323712B78F7
:103E80001BB1414B1E78002E5BD000232374042805
:103E900053D8DFE800F0034D4A4844003B4DA17978
:103EA000AA68C4E9023323682260002934D00121C2
:103EB00021743749002B08BF0B46991AB1F57A7F58
:103EC00026D39A4224D8616143F2B06043F6982227
:103ED000C5E9020201236B71A371237C023B012B14
:103EE0000DD8637943B103F0D1FE2068FFF74AFF94
:103EF00000F01CFA00236371234B00221A70237C0C
:103F00002448022B04BF012323760023237170BDB4
:103F10004FF47A736361D7E7FFF744FFD4E70120DA
:103F2000FFF764FFD9E70020FAE703F041FED4E78A
:103F300000F090F903F074FECFE77846FDF78AF8B9
:103F4000CBE700F067F92B782060022B0FD0032B12
:103F500006D0012B10D10223237400232B70BCE761
:103F60000A4B0D490D4A5E71C3E90212A671032383
:103F70002374064B6361F0E77846FDF76BF8ECE7D6
:103F8000604C0020914C0020904C0020804C002080
:103F900080969800704C0020A0860100FF1FA107AA
:103FA000043808B5042825D8DFE800F016220A03F3
:103FB0000F00114B1B7E012B1CD1FFF7CCFEC8B1AB
:103FC0007846BDE80840FDF745B80B4B00221A764D
:103FD000BDE8084003F092BE08480123437143F650
:103FE000982240F6D863C0E90232FFF7B6FEE6E752
:103FF0000248FAE708BD00BF604C0020804C00205A
:104000000D4A4FF480710023918043F2B06C43F667
:1040100098211370C2E902C1084A1060084A13705F
:10402000084A1370084A1360084A137153711360E9
:104030001376012393717047804C00207C4C002044
:10404000904C0020914C0020944C0020604C0020AB
:1040500010B50E4C227E012A0CD004D3022A0CBFCC
:104060001120002010BD0A48FFF773FE10B17846FA
:10407000FCF7F0FF0748FFF770FE10B17846FCF739
:10408000E9FF022323760020ECE700BF604C00200C
:10409000753E0300804C0020074B1B7C023B012B2C
:1040A00007D9064B1878013802288CBF0020012060
:1040B00070470120704700BF604C0020914C0020E9
:1040C000014B1868704700BF604C002010B5074BCB
:1040D000587948B11868FFF755FE044600F09AF881
:1040E0000346201A48BF181B10BD00BF604C0020BB
:1040F000014B5879704700BF604C0020014B187984
:10410000704700BF604C0020024B187E003018BF83
:1041100001207047604C0020EFF3108372B6054A0F
:10412000527922B1044A4FF48071C2F8001103B9E8
:1041300062B67047604C002000E100E0044B1B7E3B
:10414000022B04D1034B01221A70FFF7E5BF704721
:10415000604C0020914C0020064B1B7E022B07D1A7
:104160000128054B0CBF032202221A70FFF7D4BFAF
:10417000704700BF604C0020914C0020064B19781E
:104180001A4631B128B90549097811B11870FFF7FD
:10419000C3BF1070704700BF904C0020914C0020AE
:1041A000024B1B6803B962B6704700BFA84C0020E1
:1041B000022810B522D8EFF31084114B1C6072B6A0
:1041C000104B43F82020104B002243F820200F4BC7
:1041D0001B787BB1830003F1804303F5004310306B
:1041E000C3F84021012202FA00F0094AC2F8040390
:1041F000C3F84015FFF7D4FF002010BD0720FCE7EF
:10420000A84C0020984C0020B44C0020A44C002066
:104210000080004008B5EFF310820A4B1A6072B6B6
:10422000094B1B7853B1094B0022C3F84C210122E2
:10423000DA64D3F84C05FFF7B3FF08BD044B1868E8
:10424000F9E700BFA84C0020A44C002000800040EB
:10425000AC4C00202DE9F84FDFF85880DFF858907B
:104260000024A70007F1804505F50045D5F8403149
:10427000D3B1D8F8043304F110020126964033423A
:1042800012D057F809B0BBF1000F02D17846FCF705
:10429000E1FE4FF0000A49F807A0C8F80863FFF7ED
:1042A000B9FFD847C5F840A10134032CD9D1BDE8E6
:1042B000F88F00BF00800040984C0020014B1B6825
:1042C00018447047B04C002008B5134B0022C3F8C7
:1042D0004025C3F84021D3F84011C3F84425C3F862
:1042E0004421D3F84411C3F84825C3F84821D3F832
:1042F00048310A4B1B681BB9094B4FF480721A6096
:10430000084B01221A70FFF7D9FB0146FFF782FF25
:10431000054B081A186008BD00800040A84C00201A
:1043200000E100E0A44C0020B04C00200B4A0C49F6
:1043300000231360536093600A4A0B6010600A4ABE
:104340004B6013708B60094B4FF0FF32C3F80823AA
:10435000074B4FF48072C3F880217047B44C0020A3
:10436000984C0020AC4C0020A44C00200080004061
:1043700000E100E0044B1B780F2B1EBF034B4FF4F2
:104380008022C3F800217047084E002000E100E0C1
:1043900010B5104C104B2070104803601023C0E97A
:1043A0000133FEF73BFB0E48FFF744F923780F2B50
:1043B0000AD0072B09D8EC221A41D20705D55B0198
:1043C000084ADBB282F8123310BD7846BDE81040CF
:1043D000FCF740BE084E0020D44C0020C04C00200A
:1043E0000C4E002000E100E00D4B1B780F2B0DD090
:1043F0000C4991F812335A09EC231341DB0706D517
:10440000094B9A6832B94FF480230B6070477846A5
:10441000FCF720BE1A6842F480221A60704700BF81
:10442000084E002000E100E0B45C002030B50D46ED
:1044300085B0044610B97846FCF70CFE00236946A7
:1044400006488DF80030CDE90145FEF701FB18B9AB
:10445000FFF790FF05B030BD0420FBE7C04C002003
:10446000F8B5EFF3108772B617480268511C016067
:1044700002BB164B1B780F2B21D0EFF3108C72B6BA
:10448000134A144C95680123E5B99360124B134EFF
:10449000D3F8801031401160C3F88060D3F88410E5
:1044A00051604FF0FF32C3F884202570BCF1000F3B
:1044B00000D162B6036813B97846FCF7CBFD07B9A3
:1044C00062B6F8BD2370F1E7D44D0020084E0020FD
:1044D000B45C0020094E002000E100E0FC06FFBDB6
:1044E00038B5EFF3108572B6104C236813B97846CF
:1044F000FCF7B0FD2368013B2360A3B90C4B1B788C
:104500000F2B10D00B4B9A686AB10B4A127852B934
:10451000EFF3108072B609491C680C605C684C604F
:104520009A6000B962B605B962B638BDD44D0020B4
:10453000084E0020B45C0020094E002000E100E09D
:1045400038B5054610B97846FCF784FD094C236858
:10455000092B02D97846FCF77DFDEFF3108372B684
:104560002068421C2260044A42F8205003B962B617
:1045700038BD00BFD84D0020DC4D002010B50E4BDB
:104580001B688342044602D87846FCF763FDEFF3CC
:10459000108072B6094A6109012304F01F0403FA6E
:1045A00004F452F82130234342F82130FFF7E2FEB1
:1045B00000B962B610BD00BFD84D0020044E0020E7
:1045C00070B50D461646044610B97846FCF742FD14
:1045D00015B97846FCF73EFDEFF3108372B6002262
:1045E000C4E902562274246003B962B670BD0000AB
:1045F00070B5044610B97846FCF72CFDA36813B9D2
:104600007846FCF727FDEFF3108672B6237C03F0A3
:10461000FF055BB90123064823742146FFF714F810
:10462000FFF7A8FE284606B962B670BD1120FAE76A
:104630000C4E002010B5044610B97846FCF70AFD70
:10464000207C10BD2DE9FF47314E337813B17846F9
:10465000FCF700FD0125DFF8C8802E4FDFF8C4907D
:1046600035700024D8F80030A34212D82A48DFF869
:10467000A880FFF703F8002750BB284C6946204666
:10468000FEF70EFA90B300232846337004B0BDE85D
:10469000F087610904F01F020123934057F821209D
:1046A000134213D0EFF3108072B657F8212022EA9C
:1046B000030347F8213000B962B659F8243098470F
:1046C000824618B92046FFF759FF55460134C9E71D
:1046D0000468237C13B97846FCF7BCFCD4E90230AB
:1046E000984727744046FEF7C9FFC5E79DF800309C
:1046F00043B1012BC2D1019B002BBFD0DDE90201E8
:104700009847BBE7019B002BB8D002989847B5E7C4
:10471000144E0020044E00200C4E0020C04C0020FF
:10472000D84D0020DC4D0020FFF78CBF07B5FEF709
:10473000E3FF8DF803009DF803301749F02B0DD1EE
:104740000B780F2B25D01220FEF7DEFF80F0010042
:10475000C0B200F0010003B05DF804FB9DF8033027
:104760005BB2002BADBF03F1604303F00F030B4AB4
:1047700003F56143B4BFD35C93F800335B09019345
:10478000019A0B78934204D0019A9342DBD3002024
:10479000DFE70120DDE700BF084E002014ED00E058
:1047A00046DF704730B58DB00D46144601461022E5
:1047B000684605F094FF102229460DEB020005F033
:1047C0008EFF6846FFF7ECFF102208A9204605F08F
:1047D00086FF0DB030BDFEF7BDBF01F06CB801F033
:1047E00094B830B4032956D8DFE801F002272750E7
:1047F00000241C70817A5A7861F306025A70C17ADB
:10480000D2B261F3C7125A70C1680D04C1F30742F6
:1048100005F47F0501F47F412A430A43C2F30721CF
:104820009A70120C1A71D9700189DC710A0A42EA75
:104830000122A3F805201C7222E01970597801F0BA
:10484000800162F3C7115970C1680C04C1F30742BB
:1048500004F47F0401F47F4122430A439A70C2F3B7
:104860000721120C1A71D97001890A0A42EA012241
:10487000A3F8052041880A0A42EA0122A3F807208A
:10488000026912BAC3F8092030BC70470322002421
:104890001A705C70B8E7784630BCFCF7DBBB7FB5BC
:1048A0000E461546044600B112B97846FCF7D2FB15
:1048B00010220021684605F01DFF2B463246214696
:1048C0006846FEF747FF04B070BD2DE9FF410B9D20
:1048D000884616461C46074610B10AB103B115B901
:1048E0007846FCF7B7FB6B46424639463046FEF742
:1048F00031FF2B469DF8282021466846FEF72AFF07
:1049000004B0BDE8F0810000F0B50D468FB014464C
:104910001F46064608B101B113B97846FCF79AFB69
:104920001CB97846FCF796FB01E0102CF9D8254B12
:104930001868009005AA68460421FFF7B0FF01AB94
:10494000314605A81022FEF705FF2246294605A894
:1049500005F0C5FE0EAB2344012203F8242C05AB61
:10496000A218194601A892B2FEF7F4FE9DF8233072
:104970003E4603F07F0306F8013B2246294609A87C
:1049800005F0ADFE04F110050EAB1D441134A4B2C8
:10499000022305F8243C2246334605A901A8FEF768
:1049A000D9FE3146102205A805F099FE032305F82B
:1049B000243C224607F1110305A901A8FEF7CAFE0F
:1049C0000FB0F0BD6EBA030070B50D4688B0064654
:1049D00000B111B97846FCF73DFB114C0421206869
:1049E000019004AA0DEB0100FFF759FF04AB31461B
:1049F00018461022FEF7AEFE234602A953F8040F14
:104A000002901B798DF80C3004AB18460522FEF796
:104A1000A1FE082206A9284605F061FE08B070BD77
:104A200072BA030070B50D4686B0064600B111B9E2
:104A30007846FCF70FFB0F4C54F8040B009002AAC9
:104A400068460421FFF72BFF02AB314618461022BF
:104A5000FEF780FE2068019002AB042218460DEBA1
:104A60000201FEF777FE9DF8173003F03F032B702D
:104A700006B070BD7BBA030030B50268037CD17A02
:104A800087B000298DF8043083680CBF0421082109
:104A900009330B44CDE90232436804930446C368EA
:104AA0000593694601A801F049F9D0B1237C012B97
:104AB0000ED02568FEF708FA286120680C30FEF752
:104AC000A7F9054620B101F0B5F9284607B030BD79
:104AD0002168009800F08DFB009B0933636100257D
:104AE000F3E70425F1E7000008B5074B40B918606B
:104AF000FEF784F8FEF76EF8BDE8084001F0D2BD7D
:104B000042681A60F4E700BF184E002008B5FEF7AF
:104B100097F8BDE8084001F003BE10B5044610B98F
:104B20007846FCF797FA236813B97846FCF792FAAF
:104B300023685B6913B97846FCF78CFA237C012B58
:104B400002D97846FCF786FAE36813B97846FCF791
:104B500081FA2046BDE81040FFF78EBF70B50446CD
:104B6000C6B010B97846FCF775FA636913B9784690
:104B7000FCF770FA236813B97846FCF76BFA2368E0
:104B80005B6913B97846FCF765FA606900F08EFB43
:104B9000234B1B689B0706462FD5224B1B68042B13
:104BA0002BDD214B05AD19680023F25C100902F0E2
:104BB0000F02085C05F81300885C05EB4302013323
:104BC0001D2B5070F1D100232F21184885F83A3061
:104BD00005F060FED8B12F21144805F05BFE411CA2
:104BE000134B144AD3F804350192134A00920295EC
:104BF0004FF49472052000F0FDFC00233246A168BA
:104C0000206800F0B7FA01F0EFF846B070BD5C2103
:104C1000064805F03FFE08B15C21DDE70349DFE708
:104C2000C82D0020C42D0020CC2D0020CEBA0300BA
:104C300000100140E9BA03003EAA03002DE9F04745
:104C40000F46D4B091460546002800F0368100F0AA
:104C50002FFB0DF12C089A4E421B2946404605F0C9
:104C60003EFD336899072AD5964B1B68042B26DD39
:104C7000954B802F3846196828BF8020002313AC3D
:104C8000834240F0B18000222F21904804F8132085
:104C900005F000FE002800F0B8802F218B4805F0B9
:104CA000F9FD411C8A4B8B4AD3F8043501928A4A9C
:104CB0000092029440F24D12052000F09BFC00236C
:104CC00005AC00932A4643463946204600F008FAD0
:104CD0008246002840F0C3802378002B00F0BF807C
:104CE000E268B2F1807F80F0BA80E27A12B1022BE2
:104CF00000F0B58094F90A30002BC0F2B080336820
:104D000013F0020F13AD28D06E4B1B68042B24DD6B
:104D10006D4B802F3846196828BF802000238342BE
:104D20007CD100222F21694805F8132005F0B2FD3F
:104D3000002800F085802F21644805F0ABFD411C60
:104D4000634B664AD3F804350192634A0092029598
:104D50004FF4AB72052000F04DFC636913B978463F
:104D6000FCF778F93946204600F098FAC7B24B466E
:104D7000224639460DF13500FDF75EF9E1688246BD
:104D80002089FCF7D3F929462089F7F795FB0028FD
:104D900065D1012002F0D4F9002860D0A37A012B5C
:104DA0005DD92378012B54D04D4BA27A1B68002B80
:104DB00059D1A37A2C60013BA3724FF0FF336B6093
:104DC000DF23EB6028460123AF602B74FFF754FE0E
:104DD00000284ED13A460DF13501686905F07FFC97
:104DE0002846FFF7BBFE3AE0EA5C4FEA121C02F0ED
:104DF0000F0211F80CC004F813C011F802C004EB44
:104E00004302013382F801C03AE75C212F4805F0E4
:104E100041FD08B15C2141E72C4943E718F8032024
:104E20004FEA121C02F00F0211F80CC005F813C073
:104E300011F802C005EB4302013382F801C06EE7AE
:104E40005C21224805F026FD08B15C2174E71F496A
:104E500076E729466088F7F72FFB0028A4D0504654
:104E600054B0BDE8F0876188208998470028A0D118
:104E7000F5E733689B07F2D5124B1B68012BEEDD7B
:104E80002F21124805F006FD70B12F210F4805F0C3
:104E900001FD411C0E4B134AD3F804350092022049
:104EA000A72200F0A7FBDAE75C21084805F0F2FC36
:104EB00008B15C21EAE70549ECE74FF00E0ACEE7BE
:104EC000C82D0020C42D0020CC2D0020CEBA030018
:104ED0000010014083BA03003EAA030092BA030007
:104EE000184E0020A1BA030008B510B1012801D165
:104EF000032008BD7846FCF7ADF80020F9E770B54F
:104F0000064688B00D4614460021052204A805F087
:104F1000F1FB336907221BBAA9180DF11900CDF86E
:104F2000153005F0DCFB70696A46113004A9FFF703
:104F300039FCAB1D0DF10600E21D13F8011910F844
:104F4000014DAB4281EA040102F8011DF5D108B020
:104F500070BD00002DE9F041D4B01E4600238DF84D
:104F60001730ADF83C300E93D31D0C93F31D109306
:104F70005A9B43610F460DF118081146324604460C
:104F8000CDF82C80FFF7BBFF7378DB09E3727378F1
:104F900003F07F03A372F378B2781B0243EA024363
:104FA00032791343E3607379B07940EA03202081BA
:104FB000FEF748F9012869D1E27A002AA7F109032E
:104FC00014BF08220422934260D3E1682089FCF7D1
:104FD0008FF80546002859D1E37A9DF86C01002B23
:104FE00014BF08230423073F8DF84830FF1A0C9B99
:104FF000BFB2ADF834701F441197FFF775FF4346F9
:1050000001462A462046FFF7ECFB63690DF11701C4
:1050100001330AA80A93FFF7E2FB9DF81730002B33
:1050200034D0F379307A40EA03206080FEF70AF941
:10503000244B20701B689B0728D5234B1B68032B30
:1050400024DDBDF83420214B109E1968802A28BF2A
:105050008022284613AC90421DD1002304F8103062
:105060002F211B4805F016FC10B32F21184805F01E
:1050700011FC411C174B184AD3F804350192174A0A
:1050800000920294DF22042000F0B4FA9DF8170089
:1050900054B0BDE8F081335C1D0903F00F034D5D92
:1050A00004F81050CD5C04EB400301305D70D2E792
:1050B0005C21074805F0EEFB08B15C21D6E7044906
:1050C000D8E700BFC82D0020C42D0020CC2D002023
:1050D000F0BA0300001001400EBB03003EAA03001B
:1050E0002DE9FF47894615461F469DF830A0064624
:1050F00018B112B10BB19A4202D17846FBF7AAFF60
:10510000A9F10903142B31D82878C009FDF7E6FE70
:1051100000233061736195F80080CDE9023308F017
:105120007F0803AA02A94046F7F7A8F8029BB3B18B
:10513000CDE9003A2A463B4649463046FFF70AFF8A
:10514000044608B100200EE0039B43B1CDE9003ACC
:105150002A463B4649463046FFF7FCFE40B9029BD3
:10516000002BDED1052004B0BDE8F0870920FAE766
:105170002046F8E7F0B50C468FB016461F460546A8
:1051800010B97846FBF766FF16B97846FBF762FF61
:10519000012F02D97846FBF75DFF3846FFF7A4FEE2
:1051A00001AF3B46014600222846FFF71AFBEB7A87
:1051B000002B14BF082304238DF834306B69A11C25
:1051C0000133CDE9053789B2F31D0022ADF8201077
:1051D00005A8194407930B93ADF8282009920C9168
:1051E000FFF7FBFA324631462846FFF788FE0FB03C
:1051F000F0BD38B50D46044610B97846FBF72AFFD6
:1052000015B97846FBF726FF2889FEF71BF8012819
:1052100002D07846FBF71EFF95F90A30002B02DA20
:105220007846FBF717FFEB68B3F1807F02D378462F
:10523000FBF710FF6B6913B97846FBF70BFF2B697F
:1052400003F00102237803F07F0343EAC2132370C3
:105250006A69127823F07F0302F07F021343237000
:105260006378EA7A03F07F0343EAC213DBB2637028
:10527000AA7A23F07F0302F07F0213436370EB6886
:1052800023711A0CA2701A0AE2702B89A3711A0AF0
:1052900062716B8823721A0AE27138BDC37A002BDF
:1052A00014BF082004200939081A704709387047CC
:1052B00001307047436849B9027880781A441B78F6
:1052C000C31A12F8010C1844C0B270475A185B5C3C
:1052D00012F8010CC01AF7E738B50D46044610B9AC
:1052E0007846FBF7B7FE2378AB4202D87846FBF747
:1052F000B1FE29462046FFF7DDFF40B163686278C2
:10530000585DA378013B1840A36802FB003038BD0C
:1053100038B50C46054610B97846FBF79BFE2B784E
:10532000A34202D87846FBF795FE21462846FFF7B0
:10533000C1FF18B16A68135D0133135538BD10B54C
:10534000044610B97846FBF785FE002319462278FB
:105350009A4200D810BD6268D1540133F7E710B506
:105360004378044613B97846FBF774FE2378012B83
:1053700002D87846FBF76EFEA36813B97846FBF7B0
:1053800069FE636813B97846FBF764FEA37813B12E
:105390005A1E1A4202D07846FBF75CFE2046BDE852
:1053A0001040FFF7CCBF38B50D46044610B978461B
:1053B000FBF750FE2378AB4202D87846FBF74AFE53
:1053C00029462046BDE83840FFF774BF08B520B134
:1053D00019B1FFF727FB002008BD0E20FCE713B52D
:1053E0000B4650B149B102A9002401F8014D012238
:1053F000FFF78AFA204602B010BD0E20FBE700003E
:1054000030B50C468BB00546E0B1D9B11031FFF78D
:10541000DBFA0D4B03930D4B186804909B88ADF895
:10542000143006AA042103A8FFF739FA06230093D3
:105430002846019404AB06AA1021FFF746FA002083
:105440000BB030BD0E20FBE76E6B626B21BB03001F
:1054500030B50C4687B00546F0B1E9B104210F4BD9
:1054600001930DEB010002AAFFF719FA02AB1846EF
:1054700010222946FFF7AFF99DF816309DF8172046
:105480001B026FEA424203F47C536FEA5242134319
:105490002380002007B030BD0E20FBE776746164E6
:1054A00038B50D46044600B111B97846FBF7D2FD78
:1054B000AC421EBF23682B60256038BD38B50C4652
:1054C000054600B111B97846FBF7C4FD2B68A3422D
:1054D00002D17846FBF7BEFD286840B92C602060F9
:1054E00038BDA54202D17846FBF7B4FD28460568D1
:1054F000002DF6D12146BDE83840FFF7D1BF38B5C1
:1055000005460C4601B110B97846FBF7A3FD2B68A0
:1055100083B1A34205D123682B600020206038BDF1
:1055200013461A6822B1A242FAD122681A60F4E73F
:10553000002CFAD00520F2E7F8B50E4617460446CF
:1055400008B101B112B97846FBF784FD2368B34274
:1055500002D17846FBF77EFD25685DB926602846B6
:105560003560F8BD2C68A64202D17846FBF772FD83
:105570003CB1254631462846B8470028F2D00F20D6
:10558000EFE728463146FFF78BFF2046E9E70000AA
:1055900037B506AC184654F8045B00920B46024639
:1055A0000549002004F0B4FE22462946002004F0FC
:1055B00091FD03B030BD00BF28BB0300034B186052
:1055C000034B1960034B1A60704700BFC82D0020C1
:1055D000C42D0020D02D002010B4054C24681CB12F
:1055E000A4465DF8044B60475DF8044B704700BF6C
:1055F000D02D002030B585B008AC54F8045B03947E
:10560000CDE90054FFF7E8FF05B030BD431E9BB263
:1056100047F6FE62934208D849B14B8858400B8840
:1056200018420CBF01200020704700207047012065
:105630007047000010B50388044613B97846FBF79D
:1056400009FD2088074B04EB800030EA030203D0F9
:105650006288B2F5FE4F04D11C4004F580542078D6
:10566000204410BD00F0FFFF2DE9F04F87B08146C8
:1056700003910192049310B97846FBF7EBFC0120EB
:10568000FDF7A8FDFDF7C4F90024031D05462746D4
:105690004FF00108029347F6FE6BD9F81010A142B3
:1056A00002D9B8F1010F06D00020FDF793FD38466E
:1056B00007B0BDE8F08FD9F80C30286803EB04324E
:1056C000904202F5805604F1010426D1A14205F56D
:1056D000805A20D0327816447188013989B25945F0
:1056E00035D900F5005230460592FFF7A3FF059A21
:1056F000824210D986420ED24188013989B2594579
:10570000F2D82E79029B42885146981900F0D4FABB
:10571000002818BF8246029A5646137802EB030A05
:10572000B245BADAB8F1010FB7D10399BAF802005D
:10573000FFF76CFF30B1019B01371BB10499504654
:10574000984780465046FFF775FF8246E8E73046A7
:10575000D7E730B503B930BD013B9BB2CC5CD55C1B
:105760006C40C454F6E746DF70472DE9F84385895D
:1057700007468846012401F120090DB9BDE8F883E8
:1057800063BAA8F81E304046FFF7EDFF102D04F174
:10579000FF3CB968B8692E464FEA0C1C28BF10269A
:1057A00033464A4661446044AD1B0134FFF7D1FFE4
:1057B000ADB2A4B2E1E72DE9F04707460E46144624
:1057C000994600F1100500F120080CB9BDE8F087FA
:1057D000C9F1100A544505EB090018DA2246314692
:1057E00004F07DFF04EB0900C0F110020021284401
:1057F00004F080FF002410232A4641462846FFF784
:10580000A8FF3846FFF7AFFF4FF00009DDE7103C77
:105810003146524619FA84F404F061FFA4B25644AA
:10582000E9E770B5838A002B90F820300D46A3F18C
:1058300002034FF0020193FBF1F34FEAC30303F0BD
:105840003803164643F0010314BF402200221343DD
:1058500004462B7441680D2205F1110004F03FFF4E
:10586000A289130A43EA0223EB832846FFF77BFF52
:10587000A38A83B1B3F57F4F02D37846FBF7EAFBE7
:10588000A28A130A43EA02232B82A28A21690223F5
:105890002846FFF790FFA28922B10023A16828467D
:1058A000FFF789FF94F8202005F120013046BDE87C
:1058B000704004F014BF30B504468DB0016810226A
:1058C000684604F00CFFE26969462046FFF7A9FF2D
:1058D000E569616801230D220DF111008DF810308A
:1058E00004F0FDFE00236846ADF81E30FFF73BFFD5
:1058F00094F8203008AA29462846FFF72AFF69466F
:105900002046FFF732FF0DB030BD70B590F8203063
:10591000102B90B004460D4602D97846FBF79AFB4F
:10592000102221680DEB020004F0D9FEA3897BB19F
:10593000012361688DF820300D220DF1210004F063
:10594000CEFE002304A92046ADF82E30FFF70DFF50
:10595000A369A668A3606A4604A92046FFF761FF11
:10596000616801230D220DF121008DF8203004F033
:10597000B6FE002304A8ADF82E30FFF7F4FE94F82D
:1059800020300CAA69466846FFF7E3FEA66094F84B
:105990002020E169684604F093FEB0FA80F04009E7
:1059A000287010B070BD000070B50B4C03882588BE
:1059B0009D42064606D001339BB29D4202D07846F6
:1059C000FBF748FB30882368854238BF03F1FF337B
:1059D0001B0C1B04184470BD1C4E00202DE9F8431D
:1059E0000378022B0DD1FDF769FA114EDFF84880DC
:1059F0000546002400F1FF3933689C4203D30D4B68
:105A00001D60BDE8F88308EBC407B81DFFF7CCFFA5
:105A100085420BD0484509D03368013B336008EB21
:105A2000C30393E8030087E80300E5E70134E3E7F5
:105A3000204E00201C4E0020244E002008B5FDF70B
:105A40003DFA014B186008BD1C4E00202DE9F843BB
:105A50001A4D1B4E2B68884691460024A3420CD158
:105A6000282B29D0164A02EBC30142F833800133B8
:105A70008880A1F806902B6015E0E700F219918864
:105A8000814217D1901DFFF78FFF81450ED156F847
:105A90003400804594BF0020012028B1374446F8E7
:105AA0003480A7F806900020BDE8F8838CBF012061
:105AB0000020F2E70134D1E70420F5E7204E002072
:105AC000244E0020F8B5114B114E0C4619681746AC
:105AD0000025A94201D1002011E006EBC5039A88F8
:105AE000824211D1981DFFF75FFF874208D156F817
:105AF0003500844294BF0020012080F00100F8BDF1
:105B00008CBF01200020F8E70135E2E7204E00209D
:105B1000244E0020034B044800214FF4A07219606A
:105B200004F0E8BD204E0020244E002008B50348B4
:105B3000FDF76CFDBDE80840FFF7ECBFD42D002059
:105B40002DE9F041884616461F460446B0B1C2B161
:105B5000013B1B2B15D8FF2913D0BD1CEDB2691CCE
:105B600001F0CAFC044648B12B234574837480F8C5
:105B700013803A463146143004F0B1FD2046BDE8AA
:105B8000F0810024FAE70000F0B50E46C7B01746D2
:105B9000054610B97846FBF75DFA002E7AD02C78CE
:105BA000711EC9B2002C57D0012C5CD03A4C22682F
:105BB000D20519D5394B1B68012B15DD2F2138482B
:105BC00004F068FE002853D02F21354804F062FE0F
:105BD000411C344B2A78D3F804350192324A0092A2
:105BE00002206D22FFF706FD2368DB0532D52B4B23
:105BF0001B68032B2EDD2D4B802E196828BF8026B5
:105C0000002305AC15F8012F100902F00F02085C03
:105C100004F81300885C04EB430201339E42507089
:105C2000F0D100232F211E4804F8163004F032FE74
:105C300038B32F211A4804F02DFE411C194B1C4A81
:105C4000D3F8043501921B4A009202946E2204207C
:105C5000FFF7D0FC0B2004E03A46681CF2F706F888
:105C6000002047B0F0BD3A46681C00F08FFDF7E712
:105C70005C210B4804F00EFE08B15C21A5E7084941
:105C8000A7E75C21064804F005FE08B15C21D1E7D6
:105C90000349D3E70920E4E7C82D0020C42D0020E4
:105CA0004EBB03000010014068BB0300CC2D002058
:105CB0008EBB03003EAA030088422DE9F843074645
:105CC0000E46904602D97846FBF7C4F93C46DFF809
:105CD0005C901AE0238804EB83039E4221D9238839
:105CE00013B97846FBF7B6F9238804EB830333EA4C
:105CF000090203D06288B2F5FE4F01D12B782B4404
:105D00009E420ED99F421C460BD26388434509D060
:105D100004EA090505F58055B542E0D3B3F5FE4F19
:105D2000D8D100242046BDE8F88300BF00F0FFFF73
:105D3000014B1860704700BF684F00202DE9F0410B
:105D40000F46054610B97846FBF784F917B978462F
:105D5000FBF780F92B78012B02D97846FBF77AF90B
:105D60001E4C236A13B17846FBF774F96B681D2B40
:105D700002D97846FBF76EF92B78012B09D1EB6835
:105D80005A1C06D003F50073012B02D97846FBF7A5
:105D900061F9134B1E684FF0010846B9236A1BB125
:105DA0006B6823700F4B3B60206ABDE8F08116F8EA
:105DB000032C2B691A42A6F108000CD056F8083CB7
:105DC00029461B68984730B916F8043C226A08FA3D
:105DD00003F3134323623668DFE700BFC05C002093
:105DE0006C4F0020C15C0020F8B50F4D2B6A13B931
:105DF0007846FBF72FF90D4B0D4F1C6801260CB9A7
:105E00002C62F8BD14F8043C2A6A06FA03F3134224
:105E1000A4F1080005D054F8083C2A785B6839469C
:105E200098472468EBE700BFC05C00206C4F00205F
:105E3000C15C002070B50D4D2B6A13B97846FBF795
:105E400009F90B4B1C6801260CB92C6270BD14F8C3
:105E5000043C2A6A06FA03F31342A4F1080003D0B3
:105E600054F8083C9B6898472468EDE7C05C002024
:105E70006C4F00202DE9F0410E4617469846054626
:105E800010B97846FBF7E6F8064B1C683CB1434670
:105E90003A4629793046A446BDE8F0416047BDE85E
:105EA000F08100BF684F0020F8B50E461746044643
:105EB00010B97846FBF7CEF816B97846FBF7CAF862
:105EC0001FB97846FBF7C6F801E0FF2FF9D0336819
:105ED00013B97846FBF7BEF8736813B97846FBF739
:105EE000B9F8B36813B97846FBF7B4F8094D2B78C5
:105EF0001F2B02D97846FBF7ADF82B7826605A1C89
:105F0000237167712A7004F108010348BDE8F84065
:105F1000FFF7D4BA644F00206C4F002007B540F261
:105F20000713B3EB104F019002D07846FBF792F8BD
:105F300003481422002103B05DF804EB04F0DABB3F
:105F40007C4F002013B540F20713B3EB104F0190C4
:105F50000C4602D07846FBF77DF80449142220460F
:105F600002B0BDE8104004F0BABB00BF7C4F002077
:105F7000F7B540F20713B3EB104F01900F4602D074
:105F80007846FBF767F83888FDF75CF902284AD0B5
:105F90007B68B3F5004F03D94FF6FF72934242D1AD
:105FA000BB68B3F5803F3ED897F90C30002B3ADB45
:105FB0003E460FCE1D4C25460FC533682B603A88F0
:105FC000234612B9C4E901222273194A14785A6887
:105FD000E4B14FF6FF70111A4A424A41E2B19A68A1
:105FE000D2B1144BB4B1B2F5E16F144628BF4FF4EF
:105FF000E164121B1A60FDF761FD0F4901FB04010A
:106000000E48FDF732FD002003B0F0BD003218BF8E
:106010000122E3E71C60EEE700240848C3E90144DD
:10602000FDF70CFDEFE70720EEE700BF7C4F0020F7
:10603000C44F0020A84F002040420F00AC4F00206A
:1060400030B50C4DAC688DB08CB90B48FDF7F6FC43
:106050002C22214601A8AC6004F04CFB062301A8C9
:106060008DF804300295FCF7CFFA0DB030BD013C3D
:10607000AC60FAE7944F0020C84F002010B50378B9
:106080000A2B8CB039D11E4AC4891388A34234D15B
:10609000418A5388994230D18368032B2DD193686C
:1060A0005BB35368B3F5004F3CBF013353604168A5
:1060B000007F05238DF804300B7803F07F038DF803
:1060C00008300B78C0F1010003F07F030344DBB21A
:1060D0008DF809308978ADF80C4001F00F01ADF86A
:1060E0000A1091899BB29942D18988BF938101A8F6
:1060F000994238BFD381FCF787FA0CB010BD00BFBE
:10610000944F002070B5294C23888EB0002B4BD0C3
:10611000274D2A6812B97846FAF79CFF2B68684623
:106120009847054600283FD102AE0322014630467B
:1061300004F0E0FA9DF80830227B8DF8095023F036
:106140007F0302F07F0213438DF80830194B1B7850
:106150008DF80A30019B13B97846FAF77BFF0A23C2
:106160008DF8143000238DF820302088BDF80030E1
:10617000ADF82230ADF82600FDF764F8019B0B93D3
:1061800003230793237B8DF824008DF830306FF0C4
:106190000201FF2305A80D930696FBF797FE064B19
:1061A000003018BF012018700EB070BD7C4F002069
:1061B000E04F0020A44F0020C54F00200378012BA2
:1061C00004D1034B1B780BB1FFF79CBF704700BF96
:1061D000C54F002038B5114D114C2B88DBB16B68D1
:1061E000CBB1226852B94FF6FF7293421CBF03F144
:1061F000FF336B60FFF786FFAB6823602368094AB3
:10620000B3F5E16F194628BF4FF4E1614A435B1AC9
:106210002261236001E00023236138BD7C4F002010
:10622000A84F002040420F0017B40191C1F307416D
:10623000012914D198B90C4814780378D94301F096
:10624000010294420BD183F001030370074BDB89F9
:10625000DB0704D503B05DF8044BFFF753BF03B071
:106260005DF8044B704700BFA44F00207C4F002016
:1062700008B501210B48FCF799F910B17846FAF7F7
:10628000E9FE094B094ADA60094B0A4A9A600A4852
:106290000A4ADA600A4B0360FCF7E0F9094B012275
:1062A0001A7008BDA8BB0300A84F0020D5610300E9
:1062B000C84F002041600300704F002040420F0093
:1062C000BD610300C44F0020F0B5054691B010B980
:1062D0007846FAF7BFFE0DF102016846F6F798F925
:1062E000AB68B3F5803F02D9072011B0F0BD288814
:1062F000FCF7A8FF01282FD16888FCF7A3FF48B15D
:106300006888FCF79FFF032804D06A88BDF8003036
:106310009A42E9D11E4C94E80F0001AE86E80F00C6
:10632000AB68FBB900231B482360A360FDF786FB25
:106330002C22002105A804F0DDF906238DF8143085
:10634000BDF80630002B08BF002605A8CDE906647D
:10635000FCF75AF90020C8E72888FCF773FF0028EB
:10636000CAD0C1E729880029DCD06A88002AD9D0A0
:10637000084DA36021806280EF68FDF79FFB39180C
:106380002846FDF772FB7F23E36000236360CFE7BD
:10639000944F0020C84F002000487047944F0020C1
:1063A000004870477C4F0020034B00221A70034BBB
:1063B0000146186800F02ABBC44F0020A4BB0300AC
:1063C000034B186010B97846FAF744BE704700BF17
:1063D000E04F002007B5094B0190012208481A70D0
:1063E00001F070F8FDF76AFB064BD96801441846C6
:1063F00003B05DF804EBFDF738BB00BFC4500020CC
:10640000E44F0020C850002013B50190000CB0F5F7
:10641000837F0C4602D07846FAF71CFE024B1B78AD
:10642000237002B010BD00BFC450002037B50190EA
:10643000000CB0F5837F0C4602D07846FAF70AFECE
:1064400025780E4C22787AB955B10D4801F03AF80A
:10645000FDF734FB0B4BD96801441846FDF705FBEB
:106460000020257003B030BD002DF9D1044801F0A3
:106470003EF80448FDF7E2FAF2E700BFC4500020FE
:10648000E44F0020C85000207FB5089C06461D46FA
:106490002078531E5A425A4161F3000062F34100D2
:1064A000024620466FF3870206F1100100F8012B27
:1064B0002DBA082204F013F96B4621463046C4F881
:1064C00009500D22FEF787F90822694604F10D00F4
:1064D00004F005F904B070BDF0B595B005460DF1B6
:1064E00037025749564C574F0020F5F77DFF264697
:1064F0002268002A00F0918051680888142300FB6C
:1065000003335B089BB2B3F5167F28BF4FF41673B5
:106510000A2B38BF0A238B80526893780133DBB291
:10652000022B937006D123685A6800239370226867
:1065300052681380336859688B68EA1A48BF5A1B3F
:106540008B887B43934273D8FCF7B8FC0446FCF776
:10655000D1FC9DF837103368A1F1020C02290246E4
:106560000EAF0CBF03F1200003F10800DCF10001C5
:1065700041EB0C0123460097FFF786FF012115230D
:106580003A463148FFF7DCFA0146002845D001239E
:1065900003712D4800F0EBFF2C4B1B689B0739D58E
:1065A0002B4B1B68042B35DD2F212A4804F072F990
:1065B000002834D02F21274804F06CF9411C9DF8A5
:1065C0003820254B02F00100C2F34002D3F8043515
:1065D00009929DF8402008929DF83F2007929DF86F
:1065E0003E2006929DF83D2005929DF83C200492A5
:1065F0009DF83B2003929DF83A2002929DF83920A5
:106600000192164A0A900092052040F201120B9462
:10661000FEF7F0FF33685B689D6015B0F0BD5C214C
:106620000C4804F037F908B15C21C4E70949C6E712
:106630000DF1370221460020F5F7D6FE58E700BFDE
:10664000E050002040420F00E44F0020C82D002001
:10665000C42D0020B4BB030000100140D2BB0300D6
:1066600008B5FDF72BFABDE80840FFF735BFFFF787
:1066700033BF10B586B002AB0D220C46FEF7ABF867
:1066800008220DEB0201684604F029F8082204F103
:106690000D01684604F014F8B0FA80F0400906B025
:1066A00010BD000013B5154A154C002313600421DA
:1066B000144AE2600DEB0100134AA2602361FDF76A
:1066C0000BFBFDF7FBF90199E268B1FBF2F302FB6A
:1066D0001313184460600D4C0D4A0E4934232046B4
:1066E00001F020F820464FF47A7100F0C6FF0A4A04
:1066F0000A480421FEF7D3F802B010BDE050002094
:10670000C8500020809698006F660300E44F002078
:106710008050002061660300B450002015BC0300C7
:1067200010B5064C23783BB9054800F0CBFE054870
:10673000FDF762F90123237010BD00BFC450002093
:10674000E44F0020C85000201FB504A901F8090D2E
:10675000044800F05BF910B17846FAF77BFC05B00D
:106760005DF804FB0300060107B507480DF10301BE
:1067700000F08AF910B17846FAF76CFC9DF8030036
:1067800003B05DF804FB00BF030006012DE9F047EC
:1067900017469AB0044610B97846FAF75BFC002316
:1067A0000E93504BD4F809601B689B0736BA30D55E
:1067B0004D4B1B68042B2CDD2F214C4804F06AF84C
:1067C000002836D02F21494804F064F8411C484B7A
:1067D000D3F804350B96227802F00100C2F3400290
:1067E0000A900992227A0892E2790792A279069297
:1067F0006279059222790492E2780392A278029259
:10680000627801923B4A009205204FF4D572FEF760
:10681000F1FE651C0DF137020EA92846F5F7E4FDDF
:106820004FF6FF784FF004090E9B5BB91AB0BDE834
:10683000F0875C212D4804F02DF808B15C21C2E7F7
:106840002A49C4E75B6813B97846FAF703FC0E9847
:10685000082200F1080A2946183003F031FF50BB26
:1068600021465046FFF705FF28B30E9B08330E9ACA
:1068700051680A8842451CBF01320A8021468DF8C2
:106880003C9011F80D2B1496C2F34000C2F30002A5
:106890008DF855200E9A8DF854000FA8CDE91023DD
:1068A000CDE91271FBF7B0FE0DF137020EA92846B3
:1068B000F5F79AFDB8E79DF83730002BF4D00E9825
:1068C000082200F1200A2946303003F0F9FE0028A2
:1068D000EAD121465046FFF7CCFE0028E4D00E9BBB
:1068E0002033C4E7C82D0020C42D0020B4BB030012
:1068F000001001401ABC03002DE9F3410F4C104E6B
:10690000019205460F469846A64202D102B0BDE864
:10691000F08122682B681188188888420CD1518830
:106920005B888B4208D8EA881A448A4204DD4246D2
:1069300001996368384698470834E5E780BE03004C
:1069400088BE030038B503685C88C3880C1B9C4272
:10695000054602D37846FAF77DFBA869204438BD86
:1069600037B585B20190020C094C0A48844202D125
:10697000002003B030BD03681988A94206D15988A8
:10698000914203D8C3880B449342F2DC1C30EDE7FC
:1069900080BE0300BCBD030070B58EB00E460190F2
:1069A0001546FFF7DDFF044688B18388AB4222D845
:1069B000C368019831469847F8B9BDF806102046DB
:1069C000FFF7C0FF0223037001200EB070BD022448
:1069D0002C22002103A803F08DFE0198CDF81200AF
:1069E000142303A88DF80C308DF81040CDE906650E
:1069F000FBF70AFEE8E70024EAE70124E8E70000E5
:106A0000014800F0A5B800BF99690300F0B585B052
:106A10000E46019079B3FFF7A3FF054668B30198CE
:106A2000EB6803903146BDF8067098470446F8B904
:106A300039462846FFF786FF0378114A43F00303DF
:106A400003702B680F481F882346D118884203D152
:106A50007846FAF7FFFA05E00833D11831F8081C38
:106A6000B942F2D13346039A00212846FFF744FF8A
:106A7000204605B0F0BD0E24FAE70524F8E700BF74
:106A800088BE030090BE030037B50D460190A9B142
:106A9000FFF766FF044698B1037A33B10198236982
:106AA00029469847002003B030BDBDF80610FFF717
:106AB00049FF03789B07F1D40820F4E70E20F2E7A2
:106AC0000520F0E713B50190FFF74AFF0446C0B177
:106AD000BDF80610FFF736FF03789A0713D523F0A9
:106AE000020343F00103037063690BB101989847F7
:106AF00020460023019A0121FFF7FEFE002002B08C
:106B000010BD0520FBE70820F9E7000073B50E4C27
:106B10000E4EA4F11C039E4213D102B070BD54F876
:106B20001C3C18685B8801902B44ADF80630019836
:106B3000FFF7C8FF013534F8163CAB42EFD81C34E0
:106B4000E7E70025F7E700BFD8BD030080BE0300DC
:106B5000F8B5054610B97846FAF77CFA084E094FA1
:106B600000243368A34200D8F8BD3B6803EBC4039C
:106B70009A781AB12946586800F022F80134F0E7F3
:106B8000E4500020E850002007B54B684288DA80C6
:106B90004B681B88ADF80430438830F8042BADF8FF
:106BA000063002F18042013A0B68920001460198DA
:106BB0009847024B185C03B05DF804FB5DBC030012
:106BC00037B50D46044610B97846FAF743FA15B9B9
:106BD0007846FAF73FFA6B46044A002104F10800B0
:106BE000CDE90054FEF740FD03B030BD896B0300D2
:106BF000094B834210B502D07846FAF72BFA074CBE
:106C0000236813B97846FAF725FA206800F0ABFA42
:106C10000023236010BD00BFEC5000200451002071
:106C2000114B834270B50E46154602D07846FAF7EE
:106C300011FA0E4C23681B69AB4202D27846FAF770
:106C400009FA20682A463146143003F048FD2168CD
:106C50000748FCF7F9FC00232360064BBDE87040B1
:106C60001868FDF78BBC00BFEC50002004510020D9
:106C7000F850002000510020F0B587B01822002104
:106C8000684603F037FD032312488DF80030FCF707
:106C9000F5FC114D0F4E044614B9012007B0F0BDAC
:106CA000E368277A0193FCF709FFE3680246394657
:106CB0002846FFF7DFF821696A4604F11400FDF762
:106CC000BDFF3046FCF7DAFC0746204600F04BFAE1
:106CD0003C46E1E7F8500020EC5000200F4B834287
:106CE00070B50D4602D07846FAF7B4F92B699B06C9
:106CF00010D50B4E34686CB96868143000F031FA66
:106D0000306048B12B780372EB68C3606B68036135
:106D1000204670BD0120FCE70220FAE7EC5000207D
:106D20000451002008B50748FDF70AFC064B074947
:106D3000186020220648FFF7B7F80648BDE808406B
:106D4000FCF778BC796C03000051002060BC0300A4
:106D5000EC500020F850002037B5C0F30745012D56
:106D600001900C4602D97846FAF774F9084AA02037
:106D70006843131819792170125862705B6F4FF4D1
:106D80007A7203F5FA73B3FBF2F3638003B030BD9C
:106D90001451002037B5C0F30744023CE4B2012C83
:106DA00001900D4602D97846FAF754F90448A02319
:106DB00003FB040494F82C302B7003B030BD00BFEB
:106DC0001451002073B5C0F30745012D019002D97D
:106DD0007846FAF73FF90E4CA0226A43161D22446A
:106DE0002644127912B9304600F06CFB012D1CBF0D
:106DF000A0235D434FF0140118BF012330460CBFA0
:106E0000C4F8A050635102B0BDE8704000F035BC3A
:106E100014510020F7B5C0F30746012E01900D462E
:106E200002D97846FAF716F96B78013B072B22D87E
:106E30006B88143BB3F5917F1DD8104F2978A0249F
:106E400074433A19043412793C4471B112B92046A2
:106E500000F038FBA02070436B783B5020466988D7
:106E600000F00BFC002003B0F0BD002AF2D0204659
:106E700000F03DFBEEE70720F5E700BF14510020CE
:106E800013B5C0F30744023CE4B2012C019002D9CF
:106E90007846FAF7DFF80548A02303FB0400002139
:106EA000043002B0BDE8104000F007BC14510020CF
:106EB00037B5C0F30744023CE4B2012C01900D4603
:106EC00002D97846FAF7C6F805482978A02303FBCB
:106ED0000400043000F0F1FB002003B030BD00BF1F
:106EE000145100201FB5C0F30744043CE4B2012C48
:106EF000019002D97846FAF7ADF802A800F0F6FB47
:106F00000448A02303FB040002A9043000F097FB0F
:106F100004B010BD1451002073B5C0F30744043C05
:106F2000E4B2012C01900E4602D97846FAF792F8A5
:106F3000307810F0FC050AD10648A02303FB0400BA
:106F40000430314600F07BFB284602B070BD0720BC
:106F5000FBE700BF1451002037B5C0F30744043CE1
:106F6000E4B2012C01900D4602D97846FAF772F886
:106F70000549A02000FB041107226C31284603B00C
:106F8000BDE8304003F0ABBB145100200C4B8342F2
:106F900010B502D07846FAF75DF80A4C636813B969
:106FA0007846FAF757F8084B20786168A02202FB70
:106FB0000030043000F004FB0023636010BD00BF0C
:106FC000085100205452002014510020124B8342DB
:106FD00070B50E46154602D07846FAF73BF80F4CCE
:106FE000636813B97846FAF735F860682A23837422
:106FF0006B1C43742A463146133003F070FB084B78
:1070000020786168A02202FB0030043000F0AFFA63
:107010000023636070BD00BF08510020545200205F
:1070200014510020F8B5124B83420D4602D0784629
:10703000FAF710F80F4C636813B17846FAF70AF8BC
:1070400028780D4F6968A02606FB007002310430D5
:1070500000F052FA606048B1EB6803602B785E4341
:10706000BB5903712B7823700020F8BD0220FCE788
:10707000085100205452002014510020044BC01A23
:10708000044B401158430B46C1B20348FEF7F2BE11
:1070900018510020CDCCCCCC08510020012882B062
:1070A0000AD8032300F58070ADF80430ADF806006F
:1070B000019802B0FFF7AABC072002B07047012870
:1070C00082B00AD8032300F58070ADF80430ADF823
:1070D0000600019802B0FFF7D7BC072002B0704746
:1070E00070B5114C114A12492546012645F8046B2A
:1070F0004FF48073284600F015FB284600F0E2F9B3
:10710000A43444F8046C0B4A00212046802300F08C
:1071100009FB204600F0D6F9324607490748BDE88A
:107120007040FEF7C1BE00BF145100206252002023
:107130007D7003006253002078BC030008510020DA
:10714000012810B5044602D97846F9F783FF034BAE
:10715000A02202FB0434207910BD00BF145100208E
:10716000704703F09DBA03F0A3BA000070B506465D
:1071700018B343680BB34378073BDBB2F72B1ED938
:10718000104B00781C68A8B90546E8B2013500F03C
:1071900091F8B5F5807FF8D106F108010948FEF7AE
:1071A0008DF92CB9204600F095F8012000F072F816
:1071B000002003E000F07EF8EEE70E2070BD07200F
:1071C000FCE700BFE45300202DE9F047DFF85C80C6
:1071D00006461F460C468D18AC4201D3BDE8F08729
:1071E000D8F8002004F1020942B1617812F8083C95
:1071F000994207D033B11268002AF7D122780132C0
:107200001444E9E7082AF9D012F8071CD2F800A0C4
:10721000B14201D0FF2906D1217852F8043C01394E
:107220003A46484698475246DEE700BFE4530020FE
:10723000F0B5174A447D137C063CE4B200214FF0C0
:10724000010C8C4203DCB3FA83F0400917E04618C6
:10725000B57F767F6F0902EB870705F01F057F6911
:107260000CFA05F53D4210D0611AB14204DC536BB3
:10727000013353630120F0BD181C18BF0120002802
:10728000F9D0936B01339363F5E701363144D8E7C6
:10729000E853002030B10548054B436000230370DC
:1072A00000F016BE014800F031BE00BFE8530020D8
:1072B000317203004109064A012300F01F0003FA5E
:1072C00000F052F82130034342F82130704700BFEC
:1072D000FC530020012810B5044602D97846F9F77E
:1072E000B9FE014B1C7410BDE853002010B50446D4
:1072F00010B97846F9F7AEFEE36F13B97846F9F79F
:10730000A9FEE36FD4E925122046BDE810401847D6
:1073100010B5037813F0FC0F044602D07846F9F755
:1073200099FE237803F0FE03022B02BFA37963F0DA
:107330003F03A37110BD10B550F8202C1379013B09
:10734000DBB2FD2B04460BD9836D4BB11368C0E94A
:107350001C315C30FDF74CF910B17846F9F77AFE34
:1073600054F8201C0B7943B944F8203C04F1380050
:107370000439BDE81040FBF710BB10BD38B5054619
:1073800007480C46FCF796FCB0FBF4F101FB140433
:10739000FCF794FB01192846BDE83840FCF765BBB3
:1073A00024540020F7B500230B650B780C46002B06
:1073B0004AD091F84030002B33D1CB6F002B2AD12B
:1073C00004F15C0500266368002B3FD01B79FF2B7E
:1073D00004D12846FBF7C6FA002837D163681B7929
:1073E000002B33D094F87830002B5FD165682B796F
:1073F00013B97846F9F72EFE2B79FF2B1CBF03F14A
:10740000FF332B7104F1080000F02CFD48B17846E1
:10741000F9F720FE05E001F18000FDF70BF90028E7
:10742000CED094F84430256F022B02D07846F9F77D
:1074300011FE2048FCF73EFC42F21073B0FBF3F261
:1074400002FB13002844206503B0F0BD616821B140
:1074500004392846FBF7A1FA666001A92846FBF724
:107460003AFA0028F0D1019B1A1D0C336260636266
:10747000A9E73846FCF71EFC94F87730B0FBF3F22E
:1074800002FB1300C3B2AB4209D02544204495F857
:10749000743090F8742085F8742080F874300136C8
:1074A00094F87730F5B2AB42E3D89FE70026014F5E
:1074B000F6E700BF245400200148FCF72FBC00BFB2
:1074C0002454002010B5037804467BB901230370CF
:1074D000436833B1216F04F14400BDE81040FFF769
:1074E0004DBF5C30FBF724FA0028F3D110BD002318
:1074F00000F8443BFCF7A2BA2DE9F3410D460646DD
:1075000010B97846F9F7A6FD1F2D02D97846F9F78C
:10751000A1FD05F1110292B201A906F15C00FBF791
:1075200058F98046E0B9019C237B022262F30303F1
:1075300006352373657396F86830227B5B0863F326
:107540008612227306F16901062204F10F0003F08E
:10755000C6F8271DC4F80480384602B0BDE8F081A3
:10756000042802D07846F9F775FD0027F4E738B50E
:1075700005460C4601B110B97846F9F76BFD237941
:1075800013B97846F9F766FD237A03F0CF036FF35A
:10759000C713237221460023A37231F8042D05F18D
:1075A0005C00FBF767F92B784BB195F8443033B9A1
:1075B000296F05F14400BDE83840FFF7DFBE38BD54
:1075C00038B504460D4601B110B97846F9F742FDC9
:1075D000291F04F15C00BDE83840FBF7DEB970B547
:1075E0000C46054600B111B97846F9F733FDE3784A
:1075F00013B97846F9F72EFDE378032B02D97846C4
:10760000F9F728FD2646E278331B9A420FD8EFF3AC
:10761000108672B60522214605F1740003F05FF86A
:1076200095F8773085F83C3006B962B670BD16F82B
:10763000013B272BE7D97846F9F70CFDE3E770B556
:107640000D46044600B111B97846F9F703FD2B78D1
:1076500013F0FC0F02D07846F9F7FCFCEFF310862C
:1076600072B6683407222946204603F038F82046CF
:10767000FFF74EFE06B962B670BD38B50D4604463A
:1076800010B97846F9F7E6FC132D03D87846F9F7D8
:10769000E1FC02E0B5F5205FF8D84FF47A7194F878
:1076A0004430694321673BB123782BB104F1440096
:1076B000BDE83840FFF762BE38BD38B50D46044618
:1076C00010B97846F9F7C6FC84F8285038BD10B5D3
:1076D00004465C30FBF755F8EFF3108272B663682E
:1076E0000BB10021197102B962B610BD10B54FF08F
:1076F00080530446D3F8A0200378094912F0010210
:1077000014BF62F347036FF347030370062201308F
:1077100002F0E5FF2046BDE81040FFF7F9BD00BFCD
:10772000A4000010F8B50D4616461F46044600B1E9
:1077300012B97846F9F78EFC0A2F02D87846F9F785
:1077400089FCBAB2314604F15C00FAF7C4FF04F1D7
:107750006800FFF7CBFF144BE56744F62062C4E9ED
:107760001C23124A226325226285032284F82C20DE
:1077700084F83C200E4A6263002304F174010D4A30
:1077800084F8783084F82830A1636362E264646529
:1077900023703DB1224604F180000749BDE8F8405E
:1077A000FCF70EBFF8BD00BF25262703D6BE898E85
:1077B00037730300A5730300ED720300034A1368D7
:1077C00013B1002111601847704700BF48540020D2
:1077D00008B50848FBF765FF48B9074B186818B1AA
:1077E000064B187880F0010000F0010008BD012070
:1077F000FAE700BF385400204C54002034540020D5
:107800001C4B10B501214FF0FF321B4C59604FF457
:107810008060D960C3F808230022C3F80022C4F8AE
:1078200080010424C3F84021C3F84015C3F8104573
:10783000C3F80425114CC3F80825114AC2F8604565
:10784000A4F50354383CC2F86445C2F80405196035
:10785000D3F840110029FBD00021C3F840114FF4A8
:107860008061C2F80815074AD2F84805D3F84035B8
:10787000C01A10BD00A0004000E100E040A100409F
:1078800000F0014000800040F8B5FCF705FC00283E
:107890006BD13648FBF705FF054680B10468FCF75D
:1078A00015FC0646FCF70CFC002C40D0E368643362
:1078B000984206D20120BDE8F840FCF74DBC0446D2
:1078C000EDE79E4233D92A4E33781BB100F010FD0C
:1078D000002333702548FBF7D1FE854202D078465D
:1078E000F9F7B8FB002501206561FCF747FC214B47
:1078F000214F1C60214B224E4FF0FF32C3F808236A
:10790000204B0222C3F88021FFF77AFFE3681E4A6A
:10791000216935700344136001233B702368984745
:1079200033783D700BB3BDE8F84000F02FB8B6F5E2
:10793000FA7F1AD900F0B4FD98B10D4B1A78A2B9AC
:107940000E4A4FF0FF31C2F808130E4A0221C2F866
:10795000801101221A70FFF753FFBDE8F84000F0D4
:10796000B3BCBDE8F840FCF7E9BBF8BD38540020D3
:10797000455400204C540020445400200010004086
:107980003454002000E100E04054002008B5FCF72A
:1079900041FC0C4B1B68C01A002802DB7846F9F743
:1079A00059FB0020FCF7EAFB074B00221A60074B4B
:1079B0001B781BB1BDE80840FCF7C0BBBDE8084020
:1079C000FFF762BF405400204C5400204654002072
:1079D00038B5114C2268A2B1936813B97846F9F70B
:1079E00039FB0E4D01232B7023689A681869904764
:1079F00000232B700A4B1B786BB1BDE83840FFF7B2
:107A0000C5BF084B1B7813B97846F9F723FBBDE8CF
:107A1000384000F017BD38BD4C54002044540020BD
:107A2000345400204554002008B50948FBF702FEF5
:107A3000084A00231360084A1370084A0121117094
:107A4000074A1370074A1370074A82F80A3308BDC1
:107A5000385400204C540020455400204654002047
:107A6000445400203454002000E100E038B50F4BAE
:107A70001A7802F0FF04B2B90D4A106001221A70A0
:107A8000FCF736FB054618B1FCF746FB204606E03E
:107A9000FCF73AFB044618B1FCF750FB284638BD0A
:107AA000FFF78CFEF2E70820F9E700BF46540020FC
:107AB0004854002008B5094B1B786BB900F0F0FC66
:107AC00030B1FCF7C5FA38B1BDE80840FCF724BB7B
:107AD000FFF77EFE0028F4D108BD00BF4654002009
:107AE00010B5054B1A782AB100241C70FFF7E2FF8D
:107AF000204610BD0820FCE74654002010B504467F
:107B000010B97846F9F7A6FA236813B97846F9F759
:107B1000A1FAE36813B97846F9F79CFAE2680E4BCC
:107B20009A4202D97846F9F795FA6369A34211D0CF
:107B30000A48646104F11401FBF786FD084B1B78C9
:107B400003F0FF0023B9074B1C6824B9FFF7B2FF0D
:107B5000002000E0082010BD60850100385400209E
:107B6000465400204C54002010B50E4B1B6813B92E
:107B70007846F9F76FFAFCF7C1FA10B97846F9F7C9
:107B800069FA094C227812B17846F9F763FA074B83
:107B90001B7813B10123237010BDBDE81040FFF71F
:107BA000F5BE00BF4C540020345400204454002043
:107BB00038B5FCF7A3FA10B97846F9F74BFA144C2C
:107BC0002268A2B1536813B97846F9F743FA114D08
:107BD00001232B7023685A681869904700232B7083
:107BE0000D4B1B7893B1BDE83840FFF7CFBE0B4B70
:107BF0001B7813B97846F9F72DFA00F081FB00F0F5
