Component: ARM Compiler 5.06 update 1 (build 61) Tool: armlink [4d35a8]

==============================================================================

Section Cross References

    main.o(.text) refers to rt_memcpy_w.o(.text) for __aeabi_memcpy4
    main.o(.text) refers to mesh_stack.o(.text) for mesh_stack_init
    main.o(.text) refers to app_error_handler_keil.o(.emb_text) for app_error_handler
    main.o(.text) refers to log.o(.text) for log_printf
    main.o(.text) refers to prov_utils.o(.text) for mesh_opt_prov_ecdh_offloading_set
    main.o(.text) refers to nrf_mesh_serial.o(.text) for nrf_mesh_serial_init
    main.o(.text) refers to app_timer_mesh.o(.text) for app_timer_init
    main.o(.text) refers to simple_hal.o(.text) for hal_leds_init
    main.o(.text) refers to ble_softdevice_support.o(.text) for ble_stack_init
    main.o(.text) refers to nrf_mesh_configure.o(.text) for nrf_mesh_configure_device_uuid_get
    main.o(.text) refers to mesh_app_utils.o(.text) for mesh_app_uuid_print
    main.o(.text) refers to main.o(.constdata) for .constdata
    main.o(.text) refers to main.o(.data) for .data
    main.o(.text) refers to log.o(.data) for g_log_dbg_msk
    mesh_stack.o(.text) refers to device_state_manager.o(.text) for dsm_local_unicast_addresses_get
    mesh_stack.o(.text) refers to nrf_mesh.o(.text) for nrf_mesh_init
    mesh_stack.o(.text) refers to access.o(.text) for access_init
    mesh_stack.o(.text) refers to config_server.o(.text) for config_server_init
==============================================================================

Removing Unused input sections from the image.

    Removing main.o(.rev16_text), (4 bytes).
    Removing main.o(.revsh_text), (4 bytes).
    Removing main.o(.rrx_text), (6 bytes).
    Removing mesh_stack.o(.rev16_text), (4 bytes).
    Removing mesh_stack.o(.revsh_text), (4 bytes).
    Removing mesh_stack.o(.rrx_text), (6 bytes).
    Removing simple_hal.o(.rev16_text), (4 bytes).
    Removing simple_hal.o(.revsh_text), (4 bytes).
    Removing simple_hal.o(.rrx_text), (6 bytes).
    Removing mesh_app_utils.o(.rev16_text), (4 bytes).
    Removing mesh_app_utils.o(.revsh_text), (4 bytes).
    Removing mesh_app_utils.o(.rrx_text), (6 bytes).
    Removing mesh_adv.o(.rev16_text), (4 bytes).
    Removing mesh_adv.o(.revsh_text), (4 bytes).
    Removing mesh_adv.o(.rrx_text), (6 bytes).
    Removing mesh_adv.o(.text), (280 bytes).
    Removing mesh_adv.o(.bss), (140 bytes).
    Removing mesh_adv.o(.constdata), (4 bytes).
==============================================================================

Image Stack Usage Information.

Maximum stack usage for Image.

Maximum Stack Usage for handle_fault_test 0x6e0 bytes.
Call chain for maximum stack usage:
handle_fault_test => send_fault_status => access_model_publish => packet_alloc_and_tx => packet_tx => nrf_mesh_packet_send => transport_tx => upper_transport_tx => segmented_packet_tx => trs_sar_packet_out => sar_segment_send => network_packet_send => net_packet_encrypt => enc_aes_ccm_encrypt => ccm_soft_encrypt => ccm_soft_authenticate => mesh_assertion_handler => app_error_fault_handler => log_printf => log_vprintf

Maximum stack usage per global function.

Maximum Stack Usage for app_error_handler 0x50 bytes.
Call chain for maximum stack usage:
app_error_handler => app_error_fault_handler => log_printf => log_vprintf

Maximum Stack Usage for main 0x35c bytes.
Call chain for maximum stack usage:
main => initialize => mesh_init => nrf_mesh_serial_init => serial_handler_prov_init => nrf_mesh_prov_generate_keys => prov_utils_keys_generate => uECC_make_key => EccPoint_compute_public_key => EccPoint_mult => XYcZ_addC => uECC_vli_modSquare_fast => uECC_vli_modMult_fast => uECC_vli_mult => muladd

Maximum Stack Usage for mesh_stack_is_device_provisioned 0x70 bytes.
Call chain for maximum stack usage:
mesh_stack_is_device_provisioned => dsm_local_unicast_addresses_get => mesh_assertion_handler => app_error_fault_handler => log_printf => log_vprintf

Maximum Stack Usage for mesh_stack_init 0x140 bytes.
Call chain for maximum stack usage:
mesh_stack_init => nrf_mesh_init => network_init => net_beacon_init => enc_s1 => enc_aes_cmac => aes_cmac => aes_cmac_subkey_generate => mesh_assertion_handler => app_error_fault_handler => log_printf => log_vprintf

Maximum Stack Usage for mesh_stack_start 0xc8 bytes.
Call chain for maximum stack usage:
mesh_stack_start => nrf_mesh_enable => network_enable => net_beacon_enable => advertiser_enable => schedule_first_time => timer_sch_reschedule => setup_timeout => timer_start => mesh_assertion_handler => app_error_fault_handler => log_printf => log_vprintf

Maximum Stack Usage for mesh_stack_config_clear 0xa8 bytes.
Call chain for maximum stack usage:
mesh_stack_config_clear => access_clear => access_reliable_cancel_all => timer_sch_abort => setup_timeout => timer_start => mesh_assertion_handler => app_error_fault_handler => log_printf => log_vprintf

Maximum Stack Usage for hal_led_blink_ms 0x3c bytes.
Call chain for maximum stack usage:
hal_led_blink_ms => app_timer_start => app_util_critical_region_enter

Maximum Stack Usage for hal_leds_init 0x68 bytes.
Call chain for maximum stack usage:
hal_leds_init => app_error_handler_bare => app_error_fault_handler => log_printf => log_vprintf

Maximum Stack Usage for GPIOTE_IRQHandler 0x28 bytes.
Call chain for maximum stack usage:
GPIOTE_IRQHandler

Maximum Stack Usage for mesh_app_uuid_print 0x150 bytes.
Call chain for maximum stack usage:
mesh_app_uuid_print => log_printf => log_vprintf

Maximum Stack Usage for ble_stack_init 0xa8 bytes.
Call chain for maximum stack usage:
ble_stack_init => nrf_sdh_enable_request => softdevices_evt_irq_enable => app_error_handler_bare => app_error_fault_handler => log_printf => log_vprintf

Maximum Stack Usage for app_util_critical_region_enter 0xc bytes.
Call chain for maximum stack usage:
app_util_critical_region_enter

Maximum Stack Usage for nrf_section_iter_init 0x8 bytes.
Call chain for maximum stack usage:
nrf_section_iter_init => nrf_section_iter_item_set

Maximum Stack Usage for nrf_section_iter_next 0x8 bytes.
Call chain for maximum stack usage:
nrf_section_iter_next => nrf_section_iter_item_set

Maximum Stack Usage for nrf_sdh_enable_request 0x80 bytes.
Call chain for maximum stack usage:
nrf_sdh_enable_request => softdevices_evt_irq_enable => app_error_handler_bare => app_error_fault_handler => log_printf => log_vprintf

Maximum Stack Usage for nrf_sdh_evts_poll 0x18 bytes.
Call chain for maximum stack usage:
nrf_sdh_evts_poll => nrf_section_iter_next => nrf_section_iter_item_set

Maximum Stack Usage for SWI2_EGU2_IRQHandler 0x18 bytes.
Call chain for maximum stack usage:
SWI2_EGU2_IRQHandler => nrf_sdh_evts_poll => nrf_section_iter_next => nrf_section_iter_item_set

Maximum Stack Usage for prov_provisioner_provision 0x10 bytes.
Call chain for maximum stack usage:
prov_provisioner_provision

Maximum Stack Usage for prov_provisioner_oob_use 0x80 bytes.
Call chain for maximum stack usage:
prov_provisioner_oob_use => prov_tx_start => send_data => mesh_assertion_handler => app_error_fault_handler => log_printf => log_vprintf

Maximum Stack Usage for prov_provisioner_auth_data 0x208 bytes.
Call chain for maximum stack usage:
prov_provisioner_auth_data => send_confirmation => prov_utils_authentication_values_derive => create_confirmation_salt => enc_s1 => enc_aes_cmac => aes_cmac => aes_cmac_subkey_generate => mesh_assertion_handler => app_error_fault_handler => log_printf => log_vprintf

Maximum Stack Usage for prov_provisioner_shared_secret 0x240 bytes.
Call chain for maximum stack usage:
prov_provisioner_shared_secret => request_authentication => send_confirmation => prov_utils_authentication_values_derive => create_confirmation_salt => enc_s1 => enc_aes_cmac => aes_cmac => aes_cmac_subkey_generate => mesh_assertion_handler => app_error_fault_handler => log_printf => log_vprintf

Maximum Stack Usage for prov_provisionee_listen 0x10 bytes.
Call chain for maximum stack usage:
prov_provisionee_listen

Maximum Stack Usage for prov_provisionee_auth_data 0x208 bytes.
Call chain for maximum stack usage:
prov_provisionee_auth_data => prov_utils_authentication_values_derive => create_confirmation_salt => enc_s1 => enc_aes_cmac => aes_cmac => aes_cmac_subkey_generate => mesh_assertion_handler => app_error_fault_handler => log_printf => log_vprintf

Maximum Stack Usage for prov_provisionee_shared_secret 0xe8 bytes.
Call chain for maximum stack usage:
prov_provisionee_shared_secret => request_authentication => prov_utils_generate_oob_data => oob_gen_alphanumeric => rand_hw_rng_get => mesh_assertion_handler => app_error_fault_handler => log_printf => log_vprintf

Maximum Stack Usage for nrf_mesh_prov_init 0xc bytes.
Call chain for maximum stack usage:
nrf_mesh_prov_init

Maximum Stack Usage for nrf_mesh_prov_bearer_add 0x98 bytes.
Call chain for maximum stack usage:
nrf_mesh_prov_bearer_add => list_compare_add => list_insert => mesh_assertion_handler => app_error_fault_handler => log_printf => log_vprintf

Maximum Stack Usage for nrf_mesh_prov_generate_keys 0x2ec bytes.
Call chain for maximum stack usage:
nrf_mesh_prov_generate_keys => prov_utils_keys_generate => uECC_make_key => EccPoint_compute_public_key => EccPoint_mult => XYcZ_addC => uECC_vli_modSquare_fast => uECC_vli_modMult_fast => uECC_vli_mult => muladd

Maximum Stack Usage for nrf_mesh_prov_listen_stop 0x10 bytes.
Call chain for maximum stack usage:
nrf_mesh_prov_listen_stop

Maximum Stack Usage for nrf_mesh_prov_listen 0x90 bytes.
Call chain for maximum stack usage:
nrf_mesh_prov_listen => mesh_assertion_handler => app_error_fault_handler => log_printf => log_vprintf

Maximum Stack Usage for nrf_mesh_prov_provision 0x28 bytes.
Call chain for maximum stack usage:
nrf_mesh_prov_provision => prov_provisioner_provision

Maximum Stack Usage for nrf_mesh_prov_oob_use 0x88 bytes.
Call chain for maximum stack usage:
nrf_mesh_prov_oob_use => prov_provisioner_oob_use => prov_tx_start => send_data => mesh_assertion_handler => app_error_fault_handler => log_printf => log_vprintf

Maximum Stack Usage for nrf_mesh_prov_auth_data_provide 0x220 bytes.
Call chain for maximum stack usage:
nrf_mesh_prov_auth_data_provide => prov_provisionee_auth_data => prov_utils_authentication_values_derive => create_confirmation_salt => enc_s1 => enc_aes_cmac => aes_cmac => aes_cmac_subkey_generate => mesh_assertion_handler => app_error_fault_handler => log_printf => log_vprintf

Maximum Stack Usage for nrf_mesh_prov_shared_secret_provide 0x240 bytes.
Call chain for maximum stack usage:
nrf_mesh_prov_shared_secret_provide => prov_provisioner_shared_secret => request_authentication => send_confirmation => prov_utils_authentication_values_derive => create_confirmation_salt => enc_s1 => enc_aes_cmac => aes_cmac => aes_cmac_subkey_generate => mesh_assertion_handler => app_error_fault_handler => log_printf => log_vprintf

Maximum Stack Usage for nrf_mesh_prov_scan_start 0x70 bytes.
Call chain for maximum stack usage:
nrf_mesh_prov_scan_start => prov_beacon_scan_start => mesh_assertion_handler => app_error_fault_handler => log_printf => log_vprintf

Maximum Stack Usage for prov_tx_invite 0x78 bytes.
Call chain for maximum stack usage:
prov_tx_invite => send_data => mesh_assertion_handler => app_error_fault_handler => log_printf => log_vprintf

Maximum Stack Usage for prov_tx_capabilities 0x70 bytes.
Call chain for maximum stack usage:
prov_tx_capabilities => send_data => mesh_assertion_handler => app_error_fault_handler => log_printf => log_vprintf

Maximum Stack Usage for prov_tx_start 0x70 bytes.
Call chain for maximum stack usage:
prov_tx_start => send_data => mesh_assertion_handler => app_error_fault_handler => log_printf => log_vprintf

Maximum Stack Usage for prov_tx_public_key 0xc0 bytes.
Call chain for maximum stack usage:
prov_tx_public_key => send_data => mesh_assertion_handler => app_error_fault_handler => log_printf => log_vprintf

Maximum Stack Usage for prov_tx_input_complete 0x78 bytes.
Call chain for maximum stack usage:
prov_tx_input_complete => send_data => mesh_assertion_handler => app_error_fault_handler => log_printf => log_vprintf

Maximum Stack Usage for prov_tx_confirmation 0x90 bytes.
Call chain for maximum stack usage:
prov_tx_confirmation => send_data => mesh_assertion_handler => app_error_fault_handler => log_printf => log_vprintf

Maximum Stack Usage for prov_tx_random 0x90 bytes.
Call chain for maximum stack usage:
prov_tx_random => send_data => mesh_assertion_handler => app_error_fault_handler => log_printf => log_vprintf

Maximum Stack Usage for prov_tx_complete 0x78 bytes.
Call chain for maximum stack usage:
prov_tx_complete => send_data => mesh_assertion_handler => app_error_fault_handler => log_printf => log_vprintf

Maximum Stack Usage for prov_tx_failed 0x78 bytes.
Call chain for maximum stack usage:
prov_tx_failed => send_data => mesh_assertion_handler => app_error_fault_handler => log_printf => log_vprintf

Maximum Stack Usage for prov_tx_data 0x70 bytes.
Call chain for maximum stack usage:
prov_tx_data => send_data => mesh_assertion_handler => app_error_fault_handler => log_printf => log_vprintf

Maximum Stack Usage for prov_beacon_unprov_build 0x138 bytes.
Call chain for maximum stack usage:
prov_beacon_unprov_build => enc_s1 => enc_aes_cmac => aes_cmac => aes_cmac_subkey_generate => mesh_assertion_handler => app_error_fault_handler => log_printf => log_vprintf

Maximum Stack Usage for prov_beacon_unprov_packet_in 0x98 bytes.
Call chain for maximum stack usage:
prov_beacon_unprov_packet_in => mesh_assertion_handler => app_error_fault_handler => log_printf => log_vprintf

Maximum Stack Usage for prov_beacon_scan_start 0x68 bytes.
Call chain for maximum stack usage:
prov_beacon_scan_start => mesh_assertion_handler => app_error_fault_handler => log_printf => log_vprintf

Maximum Stack Usage for mesh_opt_prov_ecdh_offloading_set 0x90 bytes.
Call chain for maximum stack usage:
mesh_opt_prov_ecdh_offloading_set => mesh_config_entry_set => entry_flags_get => mesh_assertion_handler => app_error_fault_handler => log_printf => log_vprintf

Maximum Stack Usage for mesh_opt_prov_ecdh_offloading_get 0x80 bytes.
Call chain for maximum stack usage:
mesh_opt_prov_ecdh_offloading_get => mesh_config_entry_get => entry_flags_get => mesh_assertion_handler => app_error_fault_handler => log_printf => log_vprintf

Maximum Stack Usage for prov_utils_use_ecdh_offloading 0x88 bytes.
Call chain for maximum stack usage:
prov_utils_use_ecdh_offloading => mesh_opt_prov_ecdh_offloading_get => mesh_config_entry_get => entry_flags_get => mesh_assertion_handler => app_error_fault_handler => log_printf => log_vprintf

Maximum Stack Usage for prov_utils_authentication_values_derive 0x1f0 bytes.
Call chain for maximum stack usage:
prov_utils_authentication_values_derive => create_confirmation_salt => enc_s1 => enc_aes_cmac => aes_cmac => aes_cmac_subkey_generate => mesh_assertion_handler => app_error_fault_handler => log_printf => log_vprintf

Maximum Stack Usage for prov_utils_keys_generate 0x2ec bytes.
Call chain for maximum stack usage:
prov_utils_keys_generate => uECC_make_key => EccPoint_compute_public_key => EccPoint_mult => XYcZ_addC => uECC_vli_modSquare_fast => uECC_vli_modMult_fast => uECC_vli_mult => muladd

Maximum Stack Usage for prov_utils_derive_keys 0x180 bytes.
Call chain for maximum stack usage:
prov_utils_derive_keys => enc_k1 => enc_aes_cmac => aes_cmac => aes_cmac_subkey_generate => mesh_assertion_handler => app_error_fault_handler => log_printf => log_vprintf

Maximum Stack Usage for prov_utils_is_valid_public_key 0x14c bytes.
Call chain for maximum stack usage:
prov_utils_is_valid_public_key => uECC_valid_public_key => uECC_valid_point => uECC_vli_modSquare_fast => uECC_vli_modMult_fast => uECC_vli_mult => muladd

Maximum Stack Usage for prov_utils_calculate_shared_secret 0x2c4 bytes.
Call chain for maximum stack usage:
prov_utils_calculate_shared_secret => uECC_shared_secret => EccPoint_mult => XYcZ_addC => uECC_vli_modSquare_fast => uECC_vli_modMult_fast => uECC_vli_mult => muladd

Maximum Stack Usage for prov_utils_generate_oob_data 0xa8 bytes.
Call chain for maximum stack usage:
prov_utils_generate_oob_data => oob_gen_alphanumeric => rand_hw_rng_get => mesh_assertion_handler => app_error_fault_handler => log_printf => log_vprintf

Maximum Stack Usage for prov_utils_confirmation_check 0x158 bytes.
Call chain for maximum stack usage:
prov_utils_confirmation_check => enc_k1 => enc_aes_cmac => aes_cmac => aes_cmac_subkey_generate => mesh_assertion_handler => app_error_fault_handler => log_printf => log_vprintf

Maximum Stack Usage for prov_utils_auth_data_is_alphanumeric 0x8 bytes.
Call chain for maximum stack usage:
prov_utils_auth_data_is_alphanumeric

Maximum Stack Usage for prov_utils_auth_data_is_valid_number 0x70 bytes.
Call chain for maximum stack usage:
prov_utils_auth_data_is_valid_number => mesh_assertion_handler => app_error_fault_handler => log_printf => log_vprintf

Maximum Stack Usage for calculate_3GPP_CRC 0xc bytes.
Call chain for maximum stack usage:
calculate_3GPP_CRC

Maximum Stack Usage for nrf_mesh_prov_bearer_adv_interface_get 0x80 bytes.
Call chain for maximum stack usage:
nrf_mesh_prov_bearer_adv_interface_get => bearer_event_flag_add => mesh_assertion_handler => app_error_fault_handler => log_printf => log_vprintf

Maximum Stack Usage for prov_bearer_adv_packet_in 0x170 bytes.
Call chain for maximum stack usage:
prov_bearer_adv_packet_in => handle_transaction_continuation_packet => prov_buffer_rx => send_transaction_ack => send_packet => advertiser_packet_send => schedule_first_time => timer_sch_reschedule => setup_timeout => timer_start => mesh_assertion_handler => app_error_fault_handler => log_printf => log_vprintf

Maximum Stack Usage for access_publish_init 0xc bytes.
Call chain for maximum stack usage:
access_publish_init => __aeabi_memclr4

Maximum Stack Usage for access_publish_period_set 0xb0 bytes.
Call chain for maximum stack usage:
access_publish_period_set => schedule_publication_timer => timer_sch_reschedule => setup_timeout => timer_start => mesh_assertion_handler => app_error_fault_handler => log_printf => log_vprintf

Maximum Stack Usage for access_publish_retransmission_init 0xc bytes.
Call chain for maximum stack usage:
access_publish_retransmission_init => __aeabi_memclr4

Maximum Stack Usage for access_publish_retransmission_message_add 0xa8 bytes.
Call chain for maximum stack usage:
access_publish_retransmission_message_add => timer_sch_reschedule => setup_timeout => timer_start => mesh_assertion_handler => app_error_fault_handler => log_printf => log_vprintf

Maximum Stack Usage for access_incoming_handle 0x110 bytes.
Call chain for maximum stack usage:
access_incoming_handle => nrf_mesh_is_address_rx => nrf_mesh_rx_address_get => rx_group_address_get => mesh_opt_core_adv_get => mesh_config_entry_get => entry_flags_get => mesh_assertion_handler => app_error_fault_handler => log_printf => log_vprintf

Maximum Stack Usage for access_model_publish_period_get 0x10 bytes.
Call chain for maximum stack usage:
access_model_publish_period_get

Maximum Stack Usage for access_packet_tx 0x568 bytes.
Call chain for maximum stack usage:
access_packet_tx => packet_tx => nrf_mesh_packet_send => transport_tx => upper_transport_tx => segmented_packet_tx => trs_sar_packet_out => sar_segment_send => network_packet_send => net_packet_encrypt => enc_aes_ccm_encrypt => ccm_soft_encrypt => ccm_soft_authenticate => mesh_assertion_handler => app_error_fault_handler => log_printf => log_vprintf

Maximum Stack Usage for access_clear 0xa0 bytes.
Call chain for maximum stack usage:
access_clear => access_reliable_cancel_all => timer_sch_abort => setup_timeout => timer_start => mesh_assertion_handler => app_error_fault_handler => log_printf => log_vprintf

Maximum Stack Usage for access_init 0x90 bytes.
Call chain for maximum stack usage:
access_init => nrf_mesh_evt_handler_add => event_handler_add => list_add => list_insert => mesh_assertion_handler => app_error_fault_handler => log_printf => log_vprintf

Maximum Stack Usage for access_model_add 0x34 bytes.
Call chain for maximum stack usage:
access_model_add => element_has_model_id

Maximum Stack Usage for access_model_publish 0x590 bytes.
Call chain for maximum stack usage:
access_model_publish => packet_alloc_and_tx => packet_tx => nrf_mesh_packet_send => transport_tx => upper_transport_tx => segmented_packet_tx => trs_sar_packet_out => sar_segment_send => network_packet_send => net_packet_encrypt => enc_aes_ccm_encrypt => ccm_soft_encrypt => ccm_soft_authenticate => mesh_assertion_handler => app_error_fault_handler => log_printf => log_vprintf

Maximum Stack Usage for access_model_reply 0x588 bytes.
Call chain for maximum stack usage:
access_model_reply => packet_alloc_and_tx => packet_tx => nrf_mesh_packet_send => transport_tx => upper_transport_tx => segmented_packet_tx => trs_sar_packet_out => sar_segment_send => network_packet_send => net_packet_encrypt => enc_aes_ccm_encrypt => ccm_soft_encrypt => ccm_soft_authenticate => mesh_assertion_handler => app_error_fault_handler => log_printf => log_vprintf

Maximum Stack Usage for access_model_publish_address_set 0x10 bytes.
Call chain for maximum stack usage:
access_model_publish_address_set

Maximum Stack Usage for access_model_publish_address_get 0x10 bytes.
Call chain for maximum stack usage:
access_model_publish_address_get

Maximum Stack Usage for access_model_publish_retransmit_set 0xc bytes.
Call chain for maximum stack usage:
access_model_publish_retransmit_set

Maximum Stack Usage for access_model_publish_period_divisor_set 0xd8 bytes.
Call chain for maximum stack usage:
access_model_publish_period_divisor_set => access_publish_timing_update => access_publish_period_set => schedule_publication_timer => timer_sch_reschedule => setup_timeout => timer_start => mesh_assertion_handler => app_error_fault_handler => log_printf => log_vprintf

Maximum Stack Usage for access_model_publish_period_set 0xe0 bytes.
Call chain for maximum stack usage:
access_model_publish_period_set => access_publish_timing_update => access_publish_period_set => schedule_publication_timer => timer_sch_reschedule => setup_timeout => timer_start => mesh_assertion_handler => app_error_fault_handler => log_printf => log_vprintf

Maximum Stack Usage for access_model_subscription_list_alloc 0x8 bytes.
Call chain for maximum stack usage:
access_model_subscription_list_alloc

Maximum Stack Usage for access_model_subscription_add 0x18 bytes.
Call chain for maximum stack usage:
access_model_subscription_add => bitfield_set

Maximum Stack Usage for access_model_subscription_remove 0x18 bytes.
Call chain for maximum stack usage:
access_model_subscription_remove => bitfield_clear

Maximum Stack Usage for access_model_subscriptions_get 0x20 bytes.
Call chain for maximum stack usage:
access_model_subscriptions_get => model_subscribes_to_addr

Maximum Stack Usage for access_model_application_bind 0x18 bytes.
Call chain for maximum stack usage:
access_model_application_bind => bitfield_set

Maximum Stack Usage for access_model_application_unbind 0x18 bytes.
Call chain for maximum stack usage:
access_model_application_unbind => bitfield_clear

Maximum Stack Usage for access_model_applications_get 0x18 bytes.
Call chain for maximum stack usage:
access_model_applications_get

Maximum Stack Usage for access_model_publish_application_set 0x10 bytes.
Call chain for maximum stack usage:
access_model_publish_application_set

Maximum Stack Usage for access_model_publish_application_get 0x10 bytes.
Call chain for maximum stack usage:
access_model_publish_application_get

Maximum Stack Usage for access_model_publish_friendship_credential_flag_set 0x10 bytes.
Call chain for maximum stack usage:
access_model_publish_friendship_credential_flag_set

Maximum Stack Usage for access_model_publish_friendship_credential_flag_get 0x10 bytes.
Call chain for maximum stack usage:
access_model_publish_friendship_credential_flag_get

Maximum Stack Usage for access_model_publish_ttl_set 0x10 bytes.
Call chain for maximum stack usage:
access_model_publish_ttl_set

Maximum Stack Usage for access_model_publish_ttl_get 0x10 bytes.
Call chain for maximum stack usage:
access_model_publish_ttl_get

Maximum Stack Usage for access_model_id_get 0x10 bytes.
Call chain for maximum stack usage:
access_model_id_get

Maximum Stack Usage for access_handle_get 0x14 bytes.
Call chain for maximum stack usage:
access_handle_get

Maximum Stack Usage for access_element_models_get 0x14 bytes.
Call chain for maximum stack usage:
access_element_models_get

Maximum Stack Usage for access_model_p_args_get 0x10 bytes.
Call chain for maximum stack usage:
access_model_p_args_get

Maximum Stack Usage for access_model_publication_stop 0xc8 bytes.
Call chain for maximum stack usage:
access_model_publication_stop => access_model_reliable_cancel => remove_and_reschedule => timer_sch_reschedule => setup_timeout => timer_start => mesh_assertion_handler => app_error_fault_handler => log_printf => log_vprintf

Maximum Stack Usage for access_model_publication_by_appkey_stop 0xd8 bytes.
Call chain for maximum stack usage:
access_model_publication_by_appkey_stop => access_model_publication_stop => access_model_reliable_cancel => remove_and_reschedule => timer_sch_reschedule => setup_timeout => timer_start => mesh_assertion_handler => app_error_fault_handler => log_printf => log_vprintf

Maximum Stack Usage for access_reliable_message_rx_cb 0xb8 bytes.
Call chain for maximum stack usage:
access_reliable_message_rx_cb => remove_and_reschedule => timer_sch_reschedule => setup_timeout => timer_start => mesh_assertion_handler => app_error_fault_handler => log_printf => log_vprintf

Maximum Stack Usage for access_reliable_init 0xc bytes.
Call chain for maximum stack usage:
access_reliable_init => __aeabi_memclr4

Maximum Stack Usage for access_reliable_cancel_all 0x98 bytes.
Call chain for maximum stack usage:
access_reliable_cancel_all => timer_sch_abort => setup_timeout => timer_start => mesh_assertion_handler => app_error_fault_handler => log_printf => log_vprintf

Maximum Stack Usage for access_model_reliable_cancel 0xb8 bytes.
Call chain for maximum stack usage:
access_model_reliable_cancel => remove_and_reschedule => timer_sch_reschedule => setup_timeout => timer_start => mesh_assertion_handler => app_error_fault_handler => log_printf => log_vprintf

Maximum Stack Usage for dsm_subnet_update_commit 0xc8 bytes.
Call chain for maximum stack usage:
dsm_subnet_update_commit => net_state_key_refresh_phase_changed => event_handle => list_remove => mesh_assertion_handler => app_error_fault_handler => log_printf => log_vprintf

Maximum Stack Usage for dsm_subnet_update_swap_keys 0xc0 bytes.
Call chain for maximum stack usage:
dsm_subnet_update_swap_keys => net_state_key_refresh_phase_changed => event_handle => list_remove => mesh_assertion_handler => app_error_fault_handler => log_printf => log_vprintf

Maximum Stack Usage for dsm_clear 0xc bytes.
Call chain for maximum stack usage:
dsm_clear => bitfield_clear_all => __aeabi_memclr4

Maximum Stack Usage for dsm_init 0x88 bytes.
Call chain for maximum stack usage:
dsm_init => nrf_mesh_evt_handler_add => event_handler_add => list_add => list_insert => mesh_assertion_handler => app_error_fault_handler => log_printf => log_vprintf

Maximum Stack Usage for dsm_local_unicast_addresses_set 0x68 bytes.
Call chain for maximum stack usage:
dsm_local_unicast_addresses_set => mesh_assertion_handler => app_error_fault_handler => log_printf => log_vprintf

Maximum Stack Usage for dsm_local_unicast_addresses_get 0x68 bytes.
Call chain for maximum stack usage:
dsm_local_unicast_addresses_get => mesh_assertion_handler => app_error_fault_handler => log_printf => log_vprintf

Maximum Stack Usage for dsm_address_publish_add 0x40 bytes.
Call chain for maximum stack usage:
dsm_address_publish_add => add_address => address_exists

Maximum Stack Usage for dsm_address_publish_virtual_add 0x140 bytes.
Call chain for maximum stack usage:
dsm_address_publish_virtual_add => add_address_virtual => nrf_mesh_keygen_virtual_address => enc_s1 => enc_aes_cmac => aes_cmac => aes_cmac_subkey_generate => mesh_assertion_handler => app_error_fault_handler => log_printf => log_vprintf

Maximum Stack Usage for dsm_address_publish_remove 0x20 bytes.
Call chain for maximum stack usage:
dsm_address_publish_remove => address_delete_if_unused => address_handle_virtual_valid

Maximum Stack Usage for dsm_address_subscription_add 0x40 bytes.
Call chain for maximum stack usage:
dsm_address_subscription_add => add_address => address_exists

Maximum Stack Usage for dsm_address_subscription_virtual_add 0x140 bytes.
Call chain for maximum stack usage:
dsm_address_subscription_virtual_add => add_address_virtual => nrf_mesh_keygen_virtual_address => enc_s1 => enc_aes_cmac => aes_cmac => aes_cmac_subkey_generate => mesh_assertion_handler => app_error_fault_handler => log_printf => log_vprintf

Maximum Stack Usage for nrf_mesh_rx_address_get 0xb0 bytes.
Call chain for maximum stack usage:
nrf_mesh_rx_address_get => rx_group_address_get => mesh_opt_core_adv_get => mesh_config_entry_get => entry_flags_get => mesh_assertion_handler => app_error_fault_handler => log_printf => log_vprintf

Maximum Stack Usage for nrf_mesh_is_address_rx 0xc0 bytes.
Call chain for maximum stack usage:
nrf_mesh_is_address_rx => nrf_mesh_rx_address_get => rx_group_address_get => mesh_opt_core_adv_get => mesh_config_entry_get => entry_flags_get => mesh_assertion_handler => app_error_fault_handler => log_printf => log_vprintf

Maximum Stack Usage for dsm_address_get 0x18 bytes.
Call chain for maximum stack usage:
dsm_address_get => address_handle_virtual_valid

Maximum Stack Usage for dsm_address_subscription_remove 0x30 bytes.
Call chain for maximum stack usage:
dsm_address_subscription_remove => address_delete_if_unused => address_handle_virtual_valid

Maximum Stack Usage for dsm_address_get_all 0x18 bytes.
Call chain for maximum stack usage:
dsm_address_get_all

Maximum Stack Usage for dsm_address_handle_get 0x40 bytes.
Call chain for maximum stack usage:
dsm_address_handle_get => virtual_address_uuid_index_get => memcmp

Maximum Stack Usage for dsm_net_key_index_to_subnet_handle 0x20 bytes.
Call chain for maximum stack usage:
dsm_net_key_index_to_subnet_handle => net_key_handle_get

Maximum Stack Usage for dsm_subnet_handle_get 0x70 bytes.
Call chain for maximum stack usage:
dsm_subnet_handle_get => get_subnet_handle => mesh_assertion_handler => app_error_fault_handler => log_printf => log_vprintf

Maximum Stack Usage for dsm_appkey_index_to_appkey_handle 0x20 bytes.
Call chain for maximum stack usage:
dsm_appkey_index_to_appkey_handle => app_key_handle_get

Maximum Stack Usage for dsm_appkey_handle_get 0x68 bytes.
Call chain for maximum stack usage:
dsm_appkey_handle_get => get_app_handle => mesh_assertion_handler => app_error_fault_handler => log_printf => log_vprintf

Maximum Stack Usage for dsm_appkey_handle_to_appkey_index 0x10 bytes.
Call chain for maximum stack usage:
dsm_appkey_handle_to_appkey_index

Maximum Stack Usage for dsm_appkey_handle_to_subnet_handle 0x70 bytes.
Call chain for maximum stack usage:
dsm_appkey_handle_to_subnet_handle => mesh_assertion_handler => app_error_fault_handler => log_printf => log_vprintf

Maximum Stack Usage for dsm_subnet_add 0x298 bytes.
Call chain for maximum stack usage:
dsm_subnet_add => subnet_set => nrf_mesh_keygen_network_secmat => enc_k2 => enc_s1 => enc_aes_cmac => aes_cmac => aes_cmac_subkey_generate => mesh_assertion_handler => app_error_fault_handler => log_printf => log_vprintf

Maximum Stack Usage for dsm_subnet_kr_phase_get 0x10 bytes.
Call chain for maximum stack usage:
dsm_subnet_kr_phase_get

Maximum Stack Usage for dsm_subnet_update 0x170 bytes.
Call chain for maximum stack usage:
dsm_subnet_update => nrf_mesh_keygen_network_secmat => enc_k2 => enc_s1 => enc_aes_cmac => aes_cmac => aes_cmac_subkey_generate => mesh_assertion_handler => app_error_fault_handler => log_printf => log_vprintf

Maximum Stack Usage for dsm_appkey_delete 0x10 bytes.
Call chain for maximum stack usage:
dsm_appkey_delete => bitfield_clear

Maximum Stack Usage for dsm_subnet_delete 0x78 bytes.
Call chain for maximum stack usage:
dsm_subnet_delete => mesh_assertion_handler => app_error_fault_handler => log_printf => log_vprintf

Maximum Stack Usage for dsm_subnet_get_all 0x18 bytes.
Call chain for maximum stack usage:
dsm_subnet_get_all

Maximum Stack Usage for dsm_devkey_add 0x150 bytes.
Call chain for maximum stack usage:
dsm_devkey_add => log_printf => log_vprintf

Maximum Stack Usage for dsm_devkey_delete 0x10 bytes.
Call chain for maximum stack usage:
dsm_devkey_delete => bitfield_clear

Maximum Stack Usage for dsm_appkey_add 0x270 bytes.
Call chain for maximum stack usage:
dsm_appkey_add => appkey_set => nrf_mesh_keygen_aid => enc_k4 => enc_s1 => enc_aes_cmac => aes_cmac => aes_cmac_subkey_generate => mesh_assertion_handler => app_error_fault_handler => log_printf => log_vprintf

Maximum Stack Usage for dsm_appkey_update 0x138 bytes.
Call chain for maximum stack usage:
dsm_appkey_update => nrf_mesh_keygen_aid => enc_k4 => enc_s1 => enc_aes_cmac => aes_cmac => aes_cmac_subkey_generate => mesh_assertion_handler => app_error_fault_handler => log_printf => log_vprintf

Maximum Stack Usage for dsm_appkey_get_all 0x20 bytes.
Call chain for maximum stack usage:
dsm_appkey_get_all

Maximum Stack Usage for dsm_tx_secmat_get 0x30 bytes.
Call chain for maximum stack usage:
dsm_tx_secmat_get => app_tx_secmat_get

Maximum Stack Usage for dsm_net_secmat_from_keyindex_get 0x30 bytes.
Call chain for maximum stack usage:
dsm_net_secmat_from_keyindex_get => dsm_net_key_index_to_subnet_handle => net_key_handle_get

Maximum Stack Usage for nrf_mesh_net_secmat_next_get 0x90 bytes.
Call chain for maximum stack usage:
nrf_mesh_net_secmat_next_get => get_subnet_handle => mesh_assertion_handler => app_error_fault_handler => log_printf => log_vprintf

Maximum Stack Usage for nrf_mesh_app_secmat_next_get 0x88 bytes.
Call chain for maximum stack usage:
nrf_mesh_app_secmat_next_get => dsm_subnet_handle_get => get_subnet_handle => mesh_assertion_handler => app_error_fault_handler => log_printf => log_vprintf

Maximum Stack Usage for nrf_mesh_devkey_secmat_get 0x70 bytes.
Call chain for maximum stack usage:
nrf_mesh_devkey_secmat_get => mesh_assertion_handler => app_error_fault_handler => log_printf => log_vprintf

Maximum Stack Usage for nrf_mesh_beacon_info_next_get 0x88 bytes.
Call chain for maximum stack usage:
nrf_mesh_beacon_info_next_get => get_subnet_handle_by_beacon_info => mesh_assertion_handler => app_error_fault_handler => log_printf => log_vprintf

Maximum Stack Usage for nrf_mesh_unicast_address_get 0x70 bytes.
Call chain for maximum stack usage:
nrf_mesh_unicast_address_get => mesh_assertion_handler => app_error_fault_handler => log_printf => log_vprintf

Maximum Stack Usage for config_composition_data_get 0x98 bytes.
Call chain for maximum stack usage:
config_composition_data_get => mesh_assertion_handler => app_error_fault_handler => log_printf => log_vprintf

Maximum Stack Usage for config_server_init 0xb0 bytes.
Call chain for maximum stack usage:
config_server_init => nrf_mesh_evt_handler_add => event_handler_add => list_add => list_insert => mesh_assertion_handler => app_error_fault_handler => log_printf => log_vprintf

Maximum Stack Usage for packed_index_list_create 0x14 bytes.
Call chain for maximum stack usage:
packed_index_list_create

Maximum Stack Usage for health_server_fault_count_get 0x1c bytes.
Call chain for maximum stack usage:
health_server_fault_count_get => bitfield_next_get

Maximum Stack Usage for health_server_init 0x5c bytes.
Call chain for maximum stack usage:
health_server_init => access_model_add => element_has_model_id

Maximum Stack Usage for serial_uart_process 0x18 bytes.
Call chain for maximum stack usage:
serial_uart_process

Maximum Stack Usage for UARTE0_UART0_IRQHandler 0x18 bytes.
Call chain for maximum stack usage:
UARTE0_UART0_IRQHandler => serial_uart_process

Maximum Stack Usage for serial_uart_init 0x48 bytes.
Call chain for maximum stack usage:
serial_uart_init => nrf_gpio_cfg_input => nrf_gpio_cfg

Maximum Stack Usage for serial_bearer_tx 0x88 bytes.
Call chain for maximum stack usage:
serial_bearer_tx => packet_buffer_commit => mesh_assertion_handler => app_error_fault_handler => log_printf => log_vprintf

Maximum Stack Usage for serial_bearer_packet_buffer_get 0x88 bytes.
Call chain for maximum stack usage:
serial_bearer_packet_buffer_get => packet_buffer_reserve => mesh_assertion_handler => app_error_fault_handler => log_printf => log_vprintf

Maximum Stack Usage for serial_bearer_init 0x88 bytes.
Call chain for maximum stack usage:
serial_bearer_init => packet_buffer_init => mesh_assertion_handler => app_error_fault_handler => log_printf => log_vprintf

Maximum Stack Usage for serial_bearer_rx_get 0x88 bytes.
Call chain for maximum stack usage:
serial_bearer_rx_get => packet_buffer_pop => mesh_assertion_handler => app_error_fault_handler => log_printf => log_vprintf

Maximum Stack Usage for serial_handler_common_cmd_rsp_nodata_on_error 0xb8 bytes.
Call chain for maximum stack usage:
serial_handler_common_cmd_rsp_nodata_on_error => serial_cmd_rsp_send => serial_packet_buffer_get => serial_bearer_packet_buffer_get => packet_buffer_reserve => mesh_assertion_handler => app_error_fault_handler => log_printf => log_vprintf

Maximum Stack Usage for serial_handler_common_rx 0xb0 bytes.
Call chain for maximum stack usage:
serial_handler_common_rx => serial_cmd_rsp_send => serial_packet_buffer_get => serial_bearer_packet_buffer_get => packet_buffer_reserve => mesh_assertion_handler => app_error_fault_handler => log_printf => log_vprintf

Maximum Stack Usage for serial_handler_access_rx 0xb8 bytes.
Call chain for maximum stack usage:
serial_handler_access_rx => serial_handler_common_rx => serial_cmd_rsp_send => serial_packet_buffer_get => serial_bearer_packet_buffer_get => packet_buffer_reserve => mesh_assertion_handler => app_error_fault_handler => log_printf => log_vprintf

Maximum Stack Usage for serial_handler_config_rx 0xc0 bytes.
Call chain for maximum stack usage:
serial_handler_config_rx => serial_cmd_rsp_send => serial_packet_buffer_get => serial_bearer_packet_buffer_get => packet_buffer_reserve => mesh_assertion_handler => app_error_fault_handler => log_printf => log_vprintf

Maximum Stack Usage for serial_handler_openmesh_rx 0xb0 bytes.
Call chain for maximum stack usage:
serial_handler_openmesh_rx => serial_cmd_rsp_send => serial_packet_buffer_get => serial_bearer_packet_buffer_get => packet_buffer_reserve => mesh_assertion_handler => app_error_fault_handler => log_printf => log_vprintf

Maximum Stack Usage for serial_tx 0x90 bytes.
Call chain for maximum stack usage:
serial_tx => serial_bearer_tx => packet_buffer_commit => mesh_assertion_handler => app_error_fault_handler => log_printf => log_vprintf

Maximum Stack Usage for serial_packet_buffer_get 0x90 bytes.
Call chain for maximum stack usage:
serial_packet_buffer_get => serial_bearer_packet_buffer_get => packet_buffer_reserve => mesh_assertion_handler => app_error_fault_handler => log_printf => log_vprintf

Maximum Stack Usage for serial_cmd_rsp_send 0xa8 bytes.
Call chain for maximum stack usage:
serial_cmd_rsp_send => serial_packet_buffer_get => serial_bearer_packet_buffer_get => packet_buffer_reserve => mesh_assertion_handler => app_error_fault_handler => log_printf => log_vprintf

Maximum Stack Usage for serial_init 0x90 bytes.
Call chain for maximum stack usage:
serial_init => serial_bearer_init => packet_buffer_init => mesh_assertion_handler => app_error_fault_handler => log_printf => log_vprintf

Maximum Stack Usage for serial_start 0xb8 bytes.
Call chain for maximum stack usage:
serial_start => serial_packet_buffer_get => serial_bearer_packet_buffer_get => packet_buffer_reserve => mesh_assertion_handler => app_error_fault_handler => log_printf => log_vprintf

Maximum Stack Usage for serial_process 0x88 bytes.
Call chain for maximum stack usage:
serial_process => bearer_event_generic_post => mesh_assertion_handler => app_error_fault_handler => log_printf => log_vprintf

Maximum Stack Usage for serial_handler_prov_init 0x304 bytes.
Call chain for maximum stack usage:
serial_handler_prov_init => nrf_mesh_prov_generate_keys => prov_utils_keys_generate => uECC_make_key => EccPoint_compute_public_key => EccPoint_mult => XYcZ_addC => uECC_vli_modSquare_fast => uECC_vli_modMult_fast => uECC_vli_mult => muladd

Maximum Stack Usage for serial_handler_prov_pkt_in 0x280 bytes.
Call chain for maximum stack usage:
serial_handler_prov_pkt_in => nrf_mesh_prov_shared_secret_provide => prov_provisioner_shared_secret => request_authentication => send_confirmation => prov_utils_authentication_values_derive => create_confirmation_salt => enc_s1 => enc_aes_cmac => aes_cmac => aes_cmac_subkey_generate => mesh_assertion_handler => app_error_fault_handler => log_printf => log_vprintf

Maximum Stack Usage for serial_handler_dfu_init 0x88 bytes.
Call chain for maximum stack usage:
serial_handler_dfu_init => nrf_mesh_evt_handler_add => event_handler_add => list_add => list_insert => mesh_assertion_handler => app_error_fault_handler => log_printf => log_vprintf

Maximum Stack Usage for serial_handler_dfu_rx 0xd8 bytes.
Call chain for maximum stack usage:
serial_handler_dfu_rx => serial_cmd_rsp_send => serial_packet_buffer_get => serial_bearer_packet_buffer_get => packet_buffer_reserve => mesh_assertion_handler => app_error_fault_handler => log_printf => log_vprintf

Maximum Stack Usage for serial_handler_mesh_init 0x88 bytes.
Call chain for maximum stack usage:
serial_handler_mesh_init => nrf_mesh_evt_handler_add => event_handler_add => list_add => list_insert => mesh_assertion_handler => app_error_fault_handler => log_printf => log_vprintf

Maximum Stack Usage for serial_handler_mesh_rx 0xb8 bytes.
Call chain for maximum stack usage:
serial_handler_mesh_rx => serial_cmd_rsp_send => serial_packet_buffer_get => serial_bearer_packet_buffer_get => packet_buffer_reserve => mesh_assertion_handler => app_error_fault_handler => log_printf => log_vprintf

Maximum Stack Usage for serial_handler_models_rx 0xb8 bytes.
Call chain for maximum stack usage:
serial_handler_models_rx => serial_handler_common_rx => serial_cmd_rsp_send => serial_packet_buffer_get => serial_bearer_packet_buffer_get => packet_buffer_reserve => mesh_assertion_handler => app_error_fault_handler => log_printf => log_vprintf

Maximum Stack Usage for serial_handler_device_init 0xb0 bytes.
Call chain for maximum stack usage:
serial_handler_device_init => advertiser_enable => schedule_first_time => timer_sch_reschedule => setup_timeout => timer_start => mesh_assertion_handler => app_error_fault_handler => log_printf => log_vprintf

Maximum Stack Usage for serial_handler_device_rx 0xb8 bytes.
Call chain for maximum stack usage:
serial_handler_device_rx => serial_handler_common_rx => serial_cmd_rsp_send => serial_packet_buffer_get => serial_bearer_packet_buffer_get => packet_buffer_reserve => mesh_assertion_handler => app_error_fault_handler => log_printf => log_vprintf

Maximum Stack Usage for nrf_mesh_serial_init 0x30c bytes.
Call chain for maximum stack usage:
nrf_mesh_serial_init => serial_handler_prov_init => nrf_mesh_prov_generate_keys => prov_utils_keys_generate => uECC_make_key => EccPoint_compute_public_key => EccPoint_mult => XYcZ_addC => uECC_vli_modSquare_fast => uECC_vli_modMult_fast => uECC_vli_mult => muladd

Maximum Stack Usage for nrf_mesh_serial_enable 0xb8 bytes.
Call chain for maximum stack usage:
nrf_mesh_serial_enable => serial_start => serial_packet_buffer_get => serial_bearer_packet_buffer_get => packet_buffer_reserve => mesh_assertion_handler => app_error_fault_handler => log_printf => log_vprintf

Maximum Stack Usage for serial_handler_app_rx 0xb0 bytes.
Call chain for maximum stack usage:
serial_handler_app_rx => serial_cmd_rsp_send => serial_packet_buffer_get => serial_bearer_packet_buffer_get => packet_buffer_reserve => mesh_assertion_handler => app_error_fault_handler => log_printf => log_vprintf

Maximum Stack Usage for app_error_fault_handler 0x50 bytes.
Call chain for maximum stack usage:
app_error_fault_handler => log_printf => log_vprintf

Maximum Stack Usage for mesh_assertion_handler 0x60 bytes.
Call chain for maximum stack usage:
mesh_assertion_handler => app_error_fault_handler => log_printf => log_vprintf

Maximum Stack Usage for msg_cache_entry_exists 0x10 bytes.
Call chain for maximum stack usage:
msg_cache_entry_exists

Maximum Stack Usage for msg_cache_entry_add 0xc bytes.
Call chain for maximum stack usage:
msg_cache_entry_add

Maximum Stack Usage for transport_control_tx 0x3e0 bytes.
Call chain for maximum stack usage:
transport_control_tx => upper_transport_tx => segmented_packet_tx => trs_sar_packet_out => sar_segment_send => network_packet_send => net_packet_encrypt => enc_aes_ccm_encrypt => ccm_soft_encrypt => ccm_soft_authenticate => mesh_assertion_handler => app_error_fault_handler => log_printf => log_vprintf

Maximum Stack Usage for transport_init 0xa0 bytes.
Call chain for maximum stack usage:
transport_init => replay_cache_init => nrf_mesh_evt_handler_add => event_handler_add => list_add => list_insert => mesh_assertion_handler => app_error_fault_handler => log_printf => log_vprintf

Maximum Stack Usage for transport_enable 0x8 bytes.
Call chain for maximum stack usage:
transport_enable => replay_cache_enable

Maximum Stack Usage for transport_packet_in 0x4f0 bytes.
Call chain for maximum stack usage:
transport_packet_in => trs_seg_packet_in => sar_rx_ctx_get => sar_ack_send => transport_control_tx => upper_transport_tx => segmented_packet_tx => trs_sar_packet_out => sar_segment_send => network_packet_send => net_packet_encrypt => enc_aes_ccm_encrypt => ccm_soft_encrypt => ccm_soft_authenticate => mesh_assertion_handler => app_error_fault_handler => log_printf => log_vprintf

Maximum Stack Usage for transport_tx 0x3e0 bytes.
Call chain for maximum stack usage:
transport_tx => upper_transport_tx => segmented_packet_tx => trs_sar_packet_out => sar_segment_send => network_packet_send => net_packet_encrypt => enc_aes_ccm_encrypt => ccm_soft_encrypt => ccm_soft_authenticate => mesh_assertion_handler => app_error_fault_handler => log_printf => log_vprintf

Maximum Stack Usage for transport_control_packet_consumer_add 0x2c bytes.
Call chain for maximum stack usage:
transport_control_packet_consumer_add => control_packet_callback_get

Maximum Stack Usage for event_handle 0x80 bytes.
Call chain for maximum stack usage:
event_handle => list_remove => mesh_assertion_handler => app_error_fault_handler => log_printf => log_vprintf

Maximum Stack Usage for event_handler_add 0x88 bytes.
Call chain for maximum stack usage:
event_handler_add => list_add => list_insert => mesh_assertion_handler => app_error_fault_handler => log_printf => log_vprintf

Maximum Stack Usage for packet_buffer_max_packet_len_get 0x68 bytes.
Call chain for maximum stack usage:
packet_buffer_max_packet_len_get => mesh_assertion_handler => app_error_fault_handler => log_printf => log_vprintf

Maximum Stack Usage for packet_buffer_init 0x80 bytes.
Call chain for maximum stack usage:
packet_buffer_init => mesh_assertion_handler => app_error_fault_handler => log_printf => log_vprintf

Maximum Stack Usage for packet_buffer_flush 0x70 bytes.
Call chain for maximum stack usage:
packet_buffer_flush => mesh_assertion_handler => app_error_fault_handler => log_printf => log_vprintf

Maximum Stack Usage for packet_buffer_reserve 0x78 bytes.
Call chain for maximum stack usage:
packet_buffer_reserve => mesh_assertion_handler => app_error_fault_handler => log_printf => log_vprintf

Maximum Stack Usage for packet_buffer_commit 0x78 bytes.
Call chain for maximum stack usage:
packet_buffer_commit => mesh_assertion_handler => app_error_fault_handler => log_printf => log_vprintf

Maximum Stack Usage for packet_buffer_pop 0x78 bytes.
Call chain for maximum stack usage:
packet_buffer_pop => mesh_assertion_handler => app_error_fault_handler => log_printf => log_vprintf

Maximum Stack Usage for packet_buffer_can_pop 0x70 bytes.
Call chain for maximum stack usage:
packet_buffer_can_pop => mesh_assertion_handler => app_error_fault_handler => log_printf => log_vprintf

Maximum Stack Usage for packet_buffer_packets_ready_to_pop 0x70 bytes.
Call chain for maximum stack usage:
packet_buffer_packets_ready_to_pop => mesh_assertion_handler => app_error_fault_handler => log_printf => log_vprintf

Maximum Stack Usage for packet_buffer_free 0x78 bytes.
Call chain for maximum stack usage:
packet_buffer_free => mesh_assertion_handler => app_error_fault_handler => log_printf => log_vprintf

Maximum Stack Usage for flash_manager_defrag 0xb8 bytes.
Call chain for maximum stack usage:
flash_manager_defrag => execute_procedure_step => defrag_on_end => flash_manager_on_defrag_end => entry_get => mesh_assertion_handler => app_error_fault_handler => log_printf => log_vprintf

Maximum Stack Usage for fifo_init 0x68 bytes.
Call chain for maximum stack usage:
fifo_init => mesh_assertion_handler => app_error_fault_handler => log_printf => log_vprintf

Maximum Stack Usage for fifo_push 0x10 bytes.
Call chain for maximum stack usage:
fifo_push

Maximum Stack Usage for fifo_pop 0x10 bytes.
Call chain for maximum stack usage:
fifo_pop

Maximum Stack Usage for nrf_flash_erase 0x10 bytes.
Call chain for maximum stack usage:
nrf_flash_erase

Maximum Stack Usage for nrf_flash_write 0x10 bytes.
Call chain for maximum stack usage:
nrf_flash_write

Maximum Stack Usage for net_state_iv_update_start 0xb8 bytes.
Call chain for maximum stack usage:
net_state_iv_update_start => iv_index_notify => event_handle => list_remove => mesh_assertion_handler => app_error_fault_handler => log_printf => log_vprintf

Maximum Stack Usage for net_state_reset 0xc bytes.
Call chain for maximum stack usage:
net_state_reset => __aeabi_memclr4

Maximum Stack Usage for net_state_init 0x10 bytes.
Call chain for maximum stack usage:
net_state_init => timer_now

Maximum Stack Usage for net_state_enable 0x90 bytes.
Call chain for maximum stack usage:
net_state_enable => nrf_mesh_evt_handler_add => event_handler_add => list_add => list_insert => mesh_assertion_handler => app_error_fault_handler => log_printf => log_vprintf

Maximum Stack Usage for net_state_seqnum_alloc 0xd8 bytes.
Call chain for maximum stack usage:
net_state_seqnum_alloc => iv_update_trigger_if_pending => net_state_iv_update_start => iv_index_notify => event_handle => list_remove => mesh_assertion_handler => app_error_fault_handler => log_printf => log_vprintf

Maximum Stack Usage for net_state_iv_index_lock 0xd8 bytes.
Call chain for maximum stack usage:
net_state_iv_index_lock => iv_update_trigger_if_pending => net_state_iv_update_start => iv_index_notify => event_handle => list_remove => mesh_assertion_handler => app_error_fault_handler => log_printf => log_vprintf

Maximum Stack Usage for net_state_key_refresh_phase_changed 0xb0 bytes.
Call chain for maximum stack usage:
net_state_key_refresh_phase_changed => event_handle => list_remove => mesh_assertion_handler => app_error_fault_handler => log_printf => log_vprintf

Maximum Stack Usage for mesh_flash_init 0x88 bytes.
Call chain for maximum stack usage:
mesh_flash_init => bearer_event_flag_add => mesh_assertion_handler => app_error_fault_handler => log_printf => log_vprintf

Maximum Stack Usage for mesh_flash_user_callback_set 0x70 bytes.
Call chain for maximum stack usage:
mesh_flash_user_callback_set => mesh_assertion_handler => app_error_fault_handler => log_printf => log_vprintf

Maximum Stack Usage for mesh_flash_op_push 0xa0 bytes.
Call chain for maximum stack usage:
mesh_flash_op_push => bearer_handler_action_enqueue => bearer_handler_wake_up => action_in_progress => queue_peek => mesh_assertion_handler => app_error_fault_handler => log_printf => log_vprintf

Maximum Stack Usage for mesh_flash_set_suspended 0xa0 bytes.
Call chain for maximum stack usage:
mesh_flash_set_suspended => flash_op_schedule => bearer_handler_action_enqueue => bearer_handler_wake_up => action_in_progress => queue_peek => mesh_assertion_handler => app_error_fault_handler => log_printf => log_vprintf

Maximum Stack Usage for nrf_mesh_init 0x128 bytes.
Call chain for maximum stack usage:
nrf_mesh_init => network_init => net_beacon_init => enc_s1 => enc_aes_cmac => aes_cmac => aes_cmac_subkey_generate => mesh_assertion_handler => app_error_fault_handler => log_printf => log_vprintf

Maximum Stack Usage for nrf_mesh_enable 0xc8 bytes.
Call chain for maximum stack usage:
nrf_mesh_enable => network_enable => net_beacon_enable => advertiser_enable => schedule_first_time => timer_sch_reschedule => setup_timeout => timer_start => mesh_assertion_handler => app_error_fault_handler => log_printf => log_vprintf

Maximum Stack Usage for nrf_mesh_disable 0x68 bytes.
Call chain for maximum stack usage:
nrf_mesh_disable => mesh_assertion_handler => app_error_fault_handler => log_printf => log_vprintf

Maximum Stack Usage for nrf_mesh_packet_send 0x3e0 bytes.
Call chain for maximum stack usage:
nrf_mesh_packet_send => transport_tx => upper_transport_tx => segmented_packet_tx => trs_sar_packet_out => sar_segment_send => network_packet_send => net_packet_encrypt => enc_aes_ccm_encrypt => ccm_soft_encrypt => ccm_soft_authenticate => mesh_assertion_handler => app_error_fault_handler => log_printf => log_vprintf

Maximum Stack Usage for nrf_mesh_evt_handler_add 0x88 bytes.
Call chain for maximum stack usage:
nrf_mesh_evt_handler_add => event_handler_add => list_add => list_insert => mesh_assertion_handler => app_error_fault_handler => log_printf => log_vprintf

Maximum Stack Usage for nrf_mesh_on_sd_evt 0x70 bytes.
Call chain for maximum stack usage:
nrf_mesh_on_sd_evt => timeslot_sd_event_handler => mesh_assertion_handler => app_error_fault_handler => log_printf => log_vprintf

Maximum Stack Usage for queue_init 0x68 bytes.
Call chain for maximum stack usage:
queue_init => mesh_assertion_handler => app_error_fault_handler => log_printf => log_vprintf

Maximum Stack Usage for queue_push 0x70 bytes.
Call chain for maximum stack usage:
queue_push => mesh_assertion_handler => app_error_fault_handler => log_printf => log_vprintf

Maximum Stack Usage for queue_pop 0x68 bytes.
Call chain for maximum stack usage:
queue_pop => mesh_assertion_handler => app_error_fault_handler => log_printf => log_vprintf

Maximum Stack Usage for queue_peek 0x68 bytes.
Call chain for maximum stack usage:
queue_peek => mesh_assertion_handler => app_error_fault_handler => log_printf => log_vprintf

Maximum Stack Usage for aes_cmac 0xd8 bytes.
Call chain for maximum stack usage:
aes_cmac => aes_cmac_subkey_generate => mesh_assertion_handler => app_error_fault_handler => log_printf => log_vprintf

Maximum Stack Usage for timer_sch_init 0x78 bytes.
Call chain for maximum stack usage:
timer_sch_init => bearer_event_flag_add => mesh_assertion_handler => app_error_fault_handler => log_printf => log_vprintf

Maximum Stack Usage for timer_sch_schedule 0x80 bytes.
Call chain for maximum stack usage:
timer_sch_schedule => setup_timeout => timer_start => mesh_assertion_handler => app_error_fault_handler => log_printf => log_vprintf

Maximum Stack Usage for timer_sch_abort 0x80 bytes.
Call chain for maximum stack usage:
timer_sch_abort => setup_timeout => timer_start => mesh_assertion_handler => app_error_fault_handler => log_printf => log_vprintf

Maximum Stack Usage for timer_sch_reschedule 0x88 bytes.
Call chain for maximum stack usage:
timer_sch_reschedule => setup_timeout => timer_start => mesh_assertion_handler => app_error_fault_handler => log_printf => log_vprintf

Maximum Stack Usage for timer_now 0x8 bytes.
Call chain for maximum stack usage:
timer_now

Maximum Stack Usage for nrf_mesh_timer_tail_handle 0x68 bytes.
Call chain for maximum stack usage:
nrf_mesh_timer_tail_handle => mesh_assertion_handler => app_error_fault_handler => log_printf => log_vprintf

Maximum Stack Usage for nrf_mesh_timer_ovfw_handle 0x70 bytes.
Call chain for maximum stack usage:
nrf_mesh_timer_ovfw_handle => mesh_assertion_handler => app_error_fault_handler => log_printf => log_vprintf

Maximum Stack Usage for timer_init 0x68 bytes.
Call chain for maximum stack usage:
timer_init => mesh_assertion_handler => app_error_fault_handler => log_printf => log_vprintf

Maximum Stack Usage for timer_start 0x78 bytes.
Call chain for maximum stack usage:
timer_start => mesh_assertion_handler => app_error_fault_handler => log_printf => log_vprintf

Maximum Stack Usage for rand_prng_get 0x8 bytes.
Call chain for maximum stack usage:
rand_prng_get

Maximum Stack Usage for rand_hw_rng_get 0x78 bytes.
Call chain for maximum stack usage:
rand_hw_rng_get => mesh_assertion_handler => app_error_fault_handler => log_printf => log_vprintf

Maximum Stack Usage for rand_prng_seed 0x88 bytes.
Call chain for maximum stack usage:
rand_prng_seed => rand_hw_rng_get => mesh_assertion_handler => app_error_fault_handler => log_printf => log_vprintf

Maximum Stack Usage for timeslot_sd_event_handler 0x68 bytes.
Call chain for maximum stack usage:
timeslot_sd_event_handler => mesh_assertion_handler => app_error_fault_handler => log_printf => log_vprintf

Maximum Stack Usage for timeslot_init 0x8 bytes.
Call chain for maximum stack usage:
timeslot_init

Maximum Stack Usage for timeslot_start 0x68 bytes.
Call chain for maximum stack usage:
timeslot_start => mesh_assertion_handler => app_error_fault_handler => log_printf => log_vprintf

Maximum Stack Usage for timeslot_remaining_time_get 0x10 bytes.
Call chain for maximum stack usage:
timeslot_remaining_time_get => ts_timer_now

Maximum Stack Usage for ts_timer_now 0x8 bytes.
Call chain for maximum stack usage:
ts_timer_now

Maximum Stack Usage for ts_timer_event_handler 0x88 bytes.
Call chain for maximum stack usage:
ts_timer_event_handler => mesh_assertion_handler => app_error_fault_handler => log_printf => log_vprintf

Maximum Stack Usage for ts_timer_order_cb 0x18 bytes.
Call chain for maximum stack usage:
ts_timer_order_cb => timer_set

Maximum Stack Usage for ts_timer_on_ts_begin 0x18 bytes.
Call chain for maximum stack usage:
ts_timer_on_ts_begin => timer_now

Maximum Stack Usage for ts_timer_on_ts_end 0x8 bytes.
Call chain for maximum stack usage:
ts_timer_on_ts_end

Maximum Stack Usage for bearer_event_flag_set 0x70 bytes.
Call chain for maximum stack usage:
bearer_event_flag_set => mesh_assertion_handler => app_error_fault_handler => log_printf => log_vprintf

Maximum Stack Usage for bearer_event_handler 0x98 bytes.
Call chain for maximum stack usage:
bearer_event_handler => bearer_event_flag_set => mesh_assertion_handler => app_error_fault_handler => log_printf => log_vprintf

Maximum Stack Usage for QDEC_IRQHandler 0x98 bytes.
Call chain for maximum stack usage:
QDEC_IRQHandler => bearer_event_handler => bearer_event_flag_set => mesh_assertion_handler => app_error_fault_handler => log_printf => log_vprintf

Maximum Stack Usage for bearer_event_init 0x70 bytes.
Call chain for maximum stack usage:
bearer_event_init => queue_init => mesh_assertion_handler => app_error_fault_handler => log_printf => log_vprintf

Maximum Stack Usage for bearer_event_start 0x68 bytes.
Call chain for maximum stack usage:
bearer_event_start => mesh_assertion_handler => app_error_fault_handler => log_printf => log_vprintf

Maximum Stack Usage for bearer_event_generic_post 0x80 bytes.
Call chain for maximum stack usage:
bearer_event_generic_post => mesh_assertion_handler => app_error_fault_handler => log_printf => log_vprintf

Maximum Stack Usage for bearer_event_critical_section_begin 0x70 bytes.
Call chain for maximum stack usage:
bearer_event_critical_section_begin => mesh_assertion_handler => app_error_fault_handler => log_printf => log_vprintf

Maximum Stack Usage for bearer_event_critical_section_end 0x70 bytes.
Call chain for maximum stack usage:
bearer_event_critical_section_end => mesh_assertion_handler => app_error_fault_handler => log_printf => log_vprintf

Maximum Stack Usage for bearer_event_flag_add 0x70 bytes.
Call chain for maximum stack usage:
bearer_event_flag_add => mesh_assertion_handler => app_error_fault_handler => log_printf => log_vprintf

Maximum Stack Usage for bearer_event_sequential_add 0x70 bytes.
Call chain for maximum stack usage:
bearer_event_sequential_add => mesh_assertion_handler => app_error_fault_handler => log_printf => log_vprintf

Maximum Stack Usage for bearer_event_sequential_post 0x80 bytes.
Call chain for maximum stack usage:
bearer_event_sequential_post => queue_push => mesh_assertion_handler => app_error_fault_handler => log_printf => log_vprintf

Maximum Stack Usage for bearer_event_sequential_pending 0x68 bytes.
Call chain for maximum stack usage:
bearer_event_sequential_pending => mesh_assertion_handler => app_error_fault_handler => log_printf => log_vprintf

Maximum Stack Usage for bearer_event_in_correct_irq_priority 0x10 bytes.
Call chain for maximum stack usage:
bearer_event_in_correct_irq_priority

Maximum Stack Usage for enc_aes_encrypt 0x40 bytes.
Call chain for maximum stack usage:
enc_aes_encrypt

Maximum Stack Usage for enc_aes_cmac 0xd8 bytes.
Call chain for maximum stack usage:
enc_aes_cmac => aes_cmac => aes_cmac_subkey_generate => mesh_assertion_handler => app_error_fault_handler => log_printf => log_vprintf

Maximum Stack Usage for enc_aes_ccm_encrypt 0xb0 bytes.
Call chain for maximum stack usage:
enc_aes_ccm_encrypt => ccm_soft_encrypt => ccm_soft_authenticate => mesh_assertion_handler => app_error_fault_handler => log_printf => log_vprintf

Maximum Stack Usage for enc_aes_ccm_decrypt 0xc8 bytes.
Call chain for maximum stack usage:
enc_aes_ccm_decrypt => ccm_soft_decrypt => ccm_soft_authenticate => mesh_assertion_handler => app_error_fault_handler => log_printf => log_vprintf

Maximum Stack Usage for enc_nonce_generate 0x70 bytes.
Call chain for maximum stack usage:
enc_nonce_generate => mesh_assertion_handler => app_error_fault_handler => log_printf => log_vprintf

Maximum Stack Usage for enc_s1 0xf8 bytes.
Call chain for maximum stack usage:
enc_s1 => enc_aes_cmac => aes_cmac => aes_cmac_subkey_generate => mesh_assertion_handler => app_error_fault_handler => log_printf => log_vprintf

Maximum Stack Usage for enc_k1 0x108 bytes.
Call chain for maximum stack usage:
enc_k1 => enc_aes_cmac => aes_cmac => aes_cmac_subkey_generate => mesh_assertion_handler => app_error_fault_handler => log_printf => log_vprintf

Maximum Stack Usage for enc_k2 0x148 bytes.
Call chain for maximum stack usage:
enc_k2 => enc_s1 => enc_aes_cmac => aes_cmac => aes_cmac_subkey_generate => mesh_assertion_handler => app_error_fault_handler => log_printf => log_vprintf

Maximum Stack Usage for enc_k3 0x120 bytes.
Call chain for maximum stack usage:
enc_k3 => enc_s1 => enc_aes_cmac => aes_cmac => aes_cmac_subkey_generate => mesh_assertion_handler => app_error_fault_handler => log_printf => log_vprintf

Maximum Stack Usage for enc_k4 0x120 bytes.
Call chain for maximum stack usage:
enc_k4 => enc_s1 => enc_aes_cmac => aes_cmac => aes_cmac_subkey_generate => mesh_assertion_handler => app_error_fault_handler => log_printf => log_vprintf

Maximum Stack Usage for network_packet_send 0x220 bytes.
Call chain for maximum stack usage:
network_packet_send => net_packet_encrypt => enc_aes_ccm_encrypt => ccm_soft_encrypt => ccm_soft_authenticate => mesh_assertion_handler => app_error_fault_handler => log_printf => log_vprintf

Maximum Stack Usage for network_init 0x110 bytes.
Call chain for maximum stack usage:
network_init => net_beacon_init => enc_s1 => enc_aes_cmac => aes_cmac => aes_cmac_subkey_generate => mesh_assertion_handler => app_error_fault_handler => log_printf => log_vprintf

Maximum Stack Usage for network_enable 0xb0 bytes.
Call chain for maximum stack usage:
network_enable => net_beacon_enable => advertiser_enable => schedule_first_time => timer_sch_reschedule => setup_timeout => timer_start => mesh_assertion_handler => app_error_fault_handler => log_printf => log_vprintf

Maximum Stack Usage for network_packet_alloc 0x108 bytes.
Call chain for maximum stack usage:
network_packet_alloc => allocate_packet => net_state_seqnum_alloc => iv_update_trigger_if_pending => net_state_iv_update_start => iv_index_notify => event_handle => list_remove => mesh_assertion_handler => app_error_fault_handler => log_printf => log_vprintf

Maximum Stack Usage for network_packet_in 0x668 bytes.
Call chain for maximum stack usage:
network_packet_in => transport_packet_in => trs_seg_packet_in => sar_rx_ctx_get => sar_ack_send => transport_control_tx => upper_transport_tx => segmented_packet_tx => trs_sar_packet_out => sar_segment_send => network_packet_send => net_packet_encrypt => enc_aes_ccm_encrypt => ccm_soft_encrypt => ccm_soft_authenticate => mesh_assertion_handler => app_error_fault_handler => log_printf => log_vprintf

Maximum Stack Usage for net_packet_decrypt 0x260 bytes.
Call chain for maximum stack usage:
net_packet_decrypt => try_decrypt => enc_aes_ccm_decrypt => ccm_soft_decrypt => ccm_soft_authenticate => mesh_assertion_handler => app_error_fault_handler => log_printf => log_vprintf

Maximum Stack Usage for net_packet_encrypt 0xf8 bytes.
Call chain for maximum stack usage:
net_packet_encrypt => enc_aes_ccm_encrypt => ccm_soft_encrypt => ccm_soft_authenticate => mesh_assertion_handler => app_error_fault_handler => log_printf => log_vprintf

Maximum Stack Usage for net_packet_header_set 0x70 bytes.
Call chain for maximum stack usage:
net_packet_header_set => mesh_assertion_handler => app_error_fault_handler => log_printf => log_vprintf

Maximum Stack Usage for net_packet_payload_len_get 0x8 bytes.
Call chain for maximum stack usage:
net_packet_payload_len_get

Maximum Stack Usage for msq_reset 0x68 bytes.
Call chain for maximum stack usage:
msq_reset => mesh_assertion_handler => app_error_fault_handler => log_printf => log_vprintf

Maximum Stack Usage for msq_init 0x70 bytes.
Call chain for maximum stack usage:
msq_init => msq_reset => mesh_assertion_handler => app_error_fault_handler => log_printf => log_vprintf

Maximum Stack Usage for msq_get 0x70 bytes.
Call chain for maximum stack usage:
msq_get => mesh_assertion_handler => app_error_fault_handler => log_printf => log_vprintf

Maximum Stack Usage for msq_move 0x70 bytes.
Call chain for maximum stack usage:
msq_move => mesh_assertion_handler => app_error_fault_handler => log_printf => log_vprintf

Maximum Stack Usage for msq_available 0x70 bytes.
Call chain for maximum stack usage:
msq_available => mesh_assertion_handler => app_error_fault_handler => log_printf => log_vprintf

Maximum Stack Usage for nrf_mesh_keygen_aid 0x128 bytes.
Call chain for maximum stack usage:
nrf_mesh_keygen_aid => enc_k4 => enc_s1 => enc_aes_cmac => aes_cmac => aes_cmac_subkey_generate => mesh_assertion_handler => app_error_fault_handler => log_printf => log_vprintf

Maximum Stack Usage for nrf_mesh_keygen_network_secmat 0x150 bytes.
Call chain for maximum stack usage:
nrf_mesh_keygen_network_secmat => enc_k2 => enc_s1 => enc_aes_cmac => aes_cmac => aes_cmac_subkey_generate => mesh_assertion_handler => app_error_fault_handler => log_printf => log_vprintf

Maximum Stack Usage for nrf_mesh_keygen_beacon_secmat 0x150 bytes.
Call chain for maximum stack usage:
nrf_mesh_keygen_beacon_secmat => enc_k3 => enc_s1 => enc_aes_cmac => aes_cmac => aes_cmac_subkey_generate => mesh_assertion_handler => app_error_fault_handler => log_printf => log_vprintf

Maximum Stack Usage for nrf_mesh_keygen_virtual_address 0x118 bytes.
Call chain for maximum stack usage:
nrf_mesh_keygen_virtual_address => enc_s1 => enc_aes_cmac => aes_cmac => aes_cmac_subkey_generate => mesh_assertion_handler => app_error_fault_handler => log_printf => log_vprintf

Maximum Stack Usage for list_add 0x80 bytes.
Call chain for maximum stack usage:
list_add => list_insert => mesh_assertion_handler => app_error_fault_handler => log_printf => log_vprintf

Maximum Stack Usage for list_remove 0x70 bytes.
Call chain for maximum stack usage:
list_remove => mesh_assertion_handler => app_error_fault_handler => log_printf => log_vprintf

Maximum Stack Usage for list_compare_add 0x88 bytes.
Call chain for maximum stack usage:
list_compare_add => list_insert => mesh_assertion_handler => app_error_fault_handler => log_printf => log_vprintf

Maximum Stack Usage for log_callback_rtt 0x140 bytes.
Call chain for maximum stack usage:
log_callback_rtt => SEGGER_RTT_printf => SEGGER_RTT_vprintf => _PrintInt => _PrintUnsigned => _StoreChar => SEGGER_RTT_Write => SEGGER_RTT_WriteNoLock => _WriteBlocking

Maximum Stack Usage for log_vprintf 0x18 bytes.
Call chain for maximum stack usage:
log_vprintf

Maximum Stack Usage for log_printf 0x28 bytes.
Call chain for maximum stack usage:
log_printf => log_vprintf

Maximum Stack Usage for flash_manager_entries_read 0xd8 bytes.
Call chain for maximum stack usage:
flash_manager_entries_read => mesh_flash_set_suspended => flash_op_schedule => bearer_handler_action_enqueue => bearer_handler_wake_up => action_in_progress => queue_peek => mesh_assertion_handler => app_error_fault_handler => log_printf => log_vprintf

Maximum Stack Usage for flash_manager_on_defrag_end 0x90 bytes.
Call chain for maximum stack usage:
flash_manager_on_defrag_end => entry_get => mesh_assertion_handler => app_error_fault_handler => log_printf => log_vprintf

Maximum Stack Usage for ccm_soft_encrypt 0xb0 bytes.
Call chain for maximum stack usage:
ccm_soft_encrypt => ccm_soft_authenticate => mesh_assertion_handler => app_error_fault_handler => log_printf => log_vprintf

Maximum Stack Usage for ccm_soft_decrypt 0xc8 bytes.
Call chain for maximum stack usage:
ccm_soft_decrypt => ccm_soft_authenticate => mesh_assertion_handler => app_error_fault_handler => log_printf => log_vprintf

Maximum Stack Usage for replay_cache_clear 0x4 bytes.
Call chain for maximum stack usage:
replay_cache_clear => __aeabi_memclr4

Maximum Stack Usage for replay_cache_init 0x90 bytes.
Call chain for maximum stack usage:
replay_cache_init => nrf_mesh_evt_handler_add => event_handler_add => list_add => list_insert => mesh_assertion_handler => app_error_fault_handler => log_printf => log_vprintf

Maximum Stack Usage for replay_cache_enable 0x8 bytes.
Call chain for maximum stack usage:
replay_cache_enable

Maximum Stack Usage for replay_cache_add 0x98 bytes.
Call chain for maximum stack usage:
replay_cache_add => packet_is_new => iv_index_get => mesh_assertion_handler => app_error_fault_handler => log_printf => log_vprintf

Maximum Stack Usage for replay_cache_has_elem 0x90 bytes.
Call chain for maximum stack usage:
replay_cache_has_elem => packet_is_new => iv_index_get => mesh_assertion_handler => app_error_fault_handler => log_printf => log_vprintf

Maximum Stack Usage for beacon_create 0xa0 bytes.
Call chain for maximum stack usage:
beacon_create => advertiser_packet_alloc => packet_buffer_reserve => mesh_assertion_handler => app_error_fault_handler => log_printf => log_vprintf

Maximum Stack Usage for beacon_packet_in 0x288 bytes.
Call chain for maximum stack usage:
beacon_packet_in => net_beacon_packet_in => is_valid_beacon_pkt => make_network_beacon_cmac => enc_aes_cmac => aes_cmac => aes_cmac_subkey_generate => mesh_assertion_handler => app_error_fault_handler => log_printf => log_vprintf

Maximum Stack Usage for entry_get 0x80 bytes.
Call chain for maximum stack usage:
entry_get => mesh_assertion_handler => app_error_fault_handler => log_printf => log_vprintf

Maximum Stack Usage for core_tx_packet_alloc 0x80 bytes.
Call chain for maximum stack usage:
core_tx_packet_alloc => mesh_assertion_handler => app_error_fault_handler => log_printf => log_vprintf

Maximum Stack Usage for core_tx_packet_send 0x70 bytes.
Call chain for maximum stack usage:
core_tx_packet_send => mesh_assertion_handler => app_error_fault_handler => log_printf => log_vprintf

Maximum Stack Usage for core_tx_packet_discard 0x70 bytes.
Call chain for maximum stack usage:
core_tx_packet_discard => mesh_assertion_handler => app_error_fault_handler => log_printf => log_vprintf

Maximum Stack Usage for core_tx_complete 0x78 bytes.
Call chain for maximum stack usage:
core_tx_complete => mesh_assertion_handler => app_error_fault_handler => log_printf => log_vprintf

Maximum Stack Usage for core_tx_bearer_add 0x98 bytes.
Call chain for maximum stack usage:
core_tx_bearer_add => list_add => list_insert => mesh_assertion_handler => app_error_fault_handler => log_printf => log_vprintf

Maximum Stack Usage for heartbeat_init 0x90 bytes.
Call chain for maximum stack usage:
heartbeat_init => event_handler_add => list_add => list_insert => mesh_assertion_handler => app_error_fault_handler => log_printf => log_vprintf

Maximum Stack Usage for heartbeat_subscription_set 0xe0 bytes.
Call chain for maximum stack usage:
heartbeat_subscription_set => timer_sch_reschedule => setup_timeout => timer_start => mesh_assertion_handler => app_error_fault_handler => log_printf => log_vprintf

Maximum Stack Usage for heartbeat_publication_set 0x88 bytes.
Call chain for maximum stack usage:
heartbeat_publication_set => mesh_config_entry_set => entry_flags_get => mesh_assertion_handler => app_error_fault_handler => log_printf => log_vprintf

Maximum Stack Usage for heartbeat_public_info_getter_register 0x60 bytes.
Call chain for maximum stack usage:
heartbeat_public_info_getter_register => mesh_assertion_handler => app_error_fault_handler => log_printf => log_vprintf

Maximum Stack Usage for net_beacon_init 0x108 bytes.
Call chain for maximum stack usage:
net_beacon_init => enc_s1 => enc_aes_cmac => aes_cmac => aes_cmac_subkey_generate => mesh_assertion_handler => app_error_fault_handler => log_printf => log_vprintf

Maximum Stack Usage for net_beacon_enable 0xa8 bytes.
Call chain for maximum stack usage:
net_beacon_enable => advertiser_enable => schedule_first_time => timer_sch_reschedule => setup_timeout => timer_start => mesh_assertion_handler => app_error_fault_handler => log_printf => log_vprintf

Maximum Stack Usage for net_beacon_state_set 0x90 bytes.
Call chain for maximum stack usage:
net_beacon_state_set => mesh_config_entry_set => entry_flags_get => mesh_assertion_handler => app_error_fault_handler => log_printf => log_vprintf

Maximum Stack Usage for net_beacon_state_get 0x88 bytes.
Call chain for maximum stack usage:
net_beacon_state_get => mesh_config_entry_get => entry_flags_get => mesh_assertion_handler => app_error_fault_handler => log_printf => log_vprintf

Maximum Stack Usage for net_beacon_packet_in 0x160 bytes.
Call chain for maximum stack usage:
net_beacon_packet_in => is_valid_beacon_pkt => make_network_beacon_cmac => enc_aes_cmac => aes_cmac => aes_cmac_subkey_generate => mesh_assertion_handler => app_error_fault_handler => log_printf => log_vprintf

Maximum Stack Usage for mesh_config_load 0x100 bytes.
Call chain for maximum stack usage:
mesh_config_load => mesh_config_backend_read_all => mesh_config_backend_records_read => flash_manager_entries_read => mesh_flash_set_suspended => flash_op_schedule => bearer_handler_action_enqueue => bearer_handler_wake_up => action_in_progress => queue_peek => mesh_assertion_handler => app_error_fault_handler => log_printf => log_vprintf

Maximum Stack Usage for mesh_config_entry_set 0x88 bytes.
Call chain for maximum stack usage:
mesh_config_entry_set => entry_flags_get => mesh_assertion_handler => app_error_fault_handler => log_printf => log_vprintf

Maximum Stack Usage for mesh_config_entry_get 0x80 bytes.
Call chain for maximum stack usage:
mesh_config_entry_get => entry_flags_get => mesh_assertion_handler => app_error_fault_handler => log_printf => log_vprintf

Maximum Stack Usage for mesh_config_entry_delete 0x80 bytes.
Call chain for maximum stack usage:
mesh_config_entry_delete => entry_flags_get => mesh_assertion_handler => app_error_fault_handler => log_printf => log_vprintf

Maximum Stack Usage for mesh_config_clear 0x90 bytes.
Call chain for maximum stack usage:
mesh_config_clear => mesh_config_entry_delete => entry_flags_get => mesh_assertion_handler => app_error_fault_handler => log_printf => log_vprintf

Maximum Stack Usage for mesh_config_backend_read_all 0x100 bytes.
Call chain for maximum stack usage:
mesh_config_backend_read_all => mesh_config_backend_records_read => flash_manager_entries_read => mesh_flash_set_suspended => flash_op_schedule => bearer_handler_action_enqueue => bearer_handler_wake_up => action_in_progress => queue_peek => mesh_assertion_handler => app_error_fault_handler => log_printf => log_vprintf

Maximum Stack Usage for mesh_config_backend_records_read 0xf0 bytes.
Call chain for maximum stack usage:
mesh_config_backend_records_read => flash_manager_entries_read => mesh_flash_set_suspended => flash_op_schedule => bearer_handler_action_enqueue => bearer_handler_wake_up => action_in_progress => queue_peek => mesh_assertion_handler => app_error_fault_handler => log_printf => log_vprintf

Maximum Stack Usage for core_tx_local_init 0xa0 bytes.
Call chain for maximum stack usage:
core_tx_local_init => core_tx_bearer_add => list_add => list_insert => mesh_assertion_handler => app_error_fault_handler => log_printf => log_vprintf

Maximum Stack Usage for mesh_opt_core_adv_set 0x88 bytes.
Call chain for maximum stack usage:
mesh_opt_core_adv_set => mesh_config_entry_set => entry_flags_get => mesh_assertion_handler => app_error_fault_handler => log_printf => log_vprintf

Maximum Stack Usage for mesh_opt_core_adv_get 0x80 bytes.
Call chain for maximum stack usage:
mesh_opt_core_adv_get => mesh_config_entry_get => entry_flags_get => mesh_assertion_handler => app_error_fault_handler => log_printf => log_vprintf

Maximum Stack Usage for core_tx_adv_init 0xb0 bytes.
Call chain for maximum stack usage:
core_tx_adv_init => advertiser_enable => schedule_first_time => timer_sch_reschedule => setup_timeout => timer_start => mesh_assertion_handler => app_error_fault_handler => log_printf => log_vprintf

Maximum Stack Usage for core_tx_adv_is_enabled 0x68 bytes.
Call chain for maximum stack usage:
core_tx_adv_is_enabled => mesh_assertion_handler => app_error_fault_handler => log_printf => log_vprintf

Maximum Stack Usage for mesh_mem_alloc 0x30 bytes.
Call chain for maximum stack usage:
mesh_mem_alloc => malloc

Maximum Stack Usage for mesh_mem_free 0x10 bytes.
Call chain for maximum stack usage:
mesh_mem_free => free

Maximum Stack Usage for ad_listener_subscribe 0x98 bytes.
Call chain for maximum stack usage:
ad_listener_subscribe => bearer_adtype_filtering_set => fen_filter_start => list_add => list_insert => mesh_assertion_handler => app_error_fault_handler => log_printf => log_vprintf

Maximum Stack Usage for ad_listener_process 0x18 bytes.
Call chain for maximum stack usage:
ad_listener_process

Maximum Stack Usage for bearer_adtype_filtering_set 0x88 bytes.
Call chain for maximum stack usage:
bearer_adtype_filtering_set => fen_filter_start => list_add => list_insert => mesh_assertion_handler => app_error_fault_handler => log_printf => log_vprintf

Maximum Stack Usage for bearer_adtype_add 0x8 bytes.
Call chain for maximum stack usage:
bearer_adtype_add

Maximum Stack Usage for bearer_adtype_mode_set 0x68 bytes.
Call chain for maximum stack usage:
bearer_adtype_mode_set => mesh_assertion_handler => app_error_fault_handler => log_printf => log_vprintf

Maximum Stack Usage for advertiser_address_default_get 0x78 bytes.
Call chain for maximum stack usage:
advertiser_address_default_get => set_gap_addr_type => mesh_assertion_handler => app_error_fault_handler => log_printf => log_vprintf

Maximum Stack Usage for advertiser_init 0x88 bytes.
Call chain for maximum stack usage:
advertiser_init => rand_prng_seed => rand_hw_rng_get => mesh_assertion_handler => app_error_fault_handler => log_printf => log_vprintf

Maximum Stack Usage for advertiser_instance_init 0x98 bytes.
Call chain for maximum stack usage:
advertiser_instance_init => packet_buffer_init => mesh_assertion_handler => app_error_fault_handler => log_printf => log_vprintf

Maximum Stack Usage for advertiser_enable 0xa0 bytes.
Call chain for maximum stack usage:
advertiser_enable => schedule_first_time => timer_sch_reschedule => setup_timeout => timer_start => mesh_assertion_handler => app_error_fault_handler => log_printf => log_vprintf

Maximum Stack Usage for advertiser_disable 0x80 bytes.
Call chain for maximum stack usage:
advertiser_disable => timer_sch_abort => setup_timeout => timer_start => mesh_assertion_handler => app_error_fault_handler => log_printf => log_vprintf

Maximum Stack Usage for advertiser_packet_alloc 0x88 bytes.
Call chain for maximum stack usage:
advertiser_packet_alloc => packet_buffer_reserve => mesh_assertion_handler => app_error_fault_handler => log_printf => log_vprintf

Maximum Stack Usage for advertiser_packet_send 0xa8 bytes.
Call chain for maximum stack usage:
advertiser_packet_send => schedule_first_time => timer_sch_reschedule => setup_timeout => timer_start => mesh_assertion_handler => app_error_fault_handler => log_printf => log_vprintf

Maximum Stack Usage for advertiser_packet_discard 0x88 bytes.
Call chain for maximum stack usage:
advertiser_packet_discard => packet_buffer_free => mesh_assertion_handler => app_error_fault_handler => log_printf => log_vprintf

Maximum Stack Usage for advertiser_interval_set 0xa8 bytes.
Call chain for maximum stack usage:
advertiser_interval_set => schedule_first_time => timer_sch_reschedule => setup_timeout => timer_start => mesh_assertion_handler => app_error_fault_handler => log_printf => log_vprintf

Maximum Stack Usage for advertiser_address_set 0x80 bytes.
Call chain for maximum stack usage:
advertiser_address_set => set_gap_addr_type => mesh_assertion_handler => app_error_fault_handler => log_printf => log_vprintf

Maximum Stack Usage for advertiser_channels_set 0x70 bytes.
Call chain for maximum stack usage:
advertiser_channels_set => mesh_assertion_handler => app_error_fault_handler => log_printf => log_vprintf

Maximum Stack Usage for advertiser_tx_power_set 0x70 bytes.
Call chain for maximum stack usage:
advertiser_tx_power_set => mesh_assertion_handler => app_error_fault_handler => log_printf => log_vprintf

Maximum Stack Usage for advertiser_flush 0x78 bytes.
Call chain for maximum stack usage:
advertiser_flush => packet_buffer_flush => mesh_assertion_handler => app_error_fault_handler => log_printf => log_vprintf

Maximum Stack Usage for TIMER2_IRQHandler 0xc8 bytes.
Call chain for maximum stack usage:
TIMER2_IRQHandler => end_handle => action_switch => scanner_radio_start => radio_start => radio_configure => radio_config_access_addr_set => mesh_assertion_handler => app_error_fault_handler => log_printf => log_vprintf

Maximum Stack Usage for bearer_handler_init 0x70 bytes.
Call chain for maximum stack usage:
bearer_handler_init => queue_init => mesh_assertion_handler => app_error_fault_handler => log_printf => log_vprintf

Maximum Stack Usage for bearer_handler_wake_up 0x78 bytes.
Call chain for maximum stack usage:
bearer_handler_wake_up => action_in_progress => queue_peek => mesh_assertion_handler => app_error_fault_handler => log_printf => log_vprintf

Maximum Stack Usage for bearer_handler_start 0x80 bytes.
Call chain for maximum stack usage:
bearer_handler_start => bearer_handler_wake_up => action_in_progress => queue_peek => mesh_assertion_handler => app_error_fault_handler => log_printf => log_vprintf

Maximum Stack Usage for bearer_handler_stop 0x8 bytes.
Call chain for maximum stack usage:
bearer_handler_stop

Maximum Stack Usage for bearer_handler_action_enqueue 0x80 bytes.
Call chain for maximum stack usage:
bearer_handler_action_enqueue => bearer_handler_wake_up => action_in_progress => queue_peek => mesh_assertion_handler => app_error_fault_handler => log_printf => log_vprintf

Maximum Stack Usage for bearer_handler_action_end 0xc8 bytes.
Call chain for maximum stack usage:
bearer_handler_action_end => end_handle => action_switch => scanner_radio_start => radio_start => radio_configure => radio_config_access_addr_set => mesh_assertion_handler => app_error_fault_handler => log_printf => log_vprintf

Maximum Stack Usage for bearer_handler_radio_irq_handler 0xc8 bytes.
Call chain for maximum stack usage:
bearer_handler_radio_irq_handler => end_handle => action_switch => scanner_radio_start => radio_start => radio_configure => radio_config_access_addr_set => mesh_assertion_handler => app_error_fault_handler => log_printf => log_vprintf

Maximum Stack Usage for bearer_handler_timer_irq_handler 0xc0 bytes.
Call chain for maximum stack usage:
bearer_handler_timer_irq_handler => action_switch => scanner_radio_start => radio_start => radio_configure => radio_config_access_addr_set => mesh_assertion_handler => app_error_fault_handler => log_printf => log_vprintf

Maximum Stack Usage for bearer_handler_on_ts_begin 0xc0 bytes.
Call chain for maximum stack usage:
bearer_handler_on_ts_begin => action_switch => scanner_radio_start => radio_start => radio_configure => radio_config_access_addr_set => mesh_assertion_handler => app_error_fault_handler => log_printf => log_vprintf

Maximum Stack Usage for bearer_handler_on_ts_end 0x98 bytes.
Call chain for maximum stack usage:
bearer_handler_on_ts_end => scanner_stop => scanner_radio_stop => radio_stop => packet_buffer_free => mesh_assertion_handler => app_error_fault_handler => log_printf => log_vprintf

Maximum Stack Usage for broadcast_send 0x88 bytes.
Call chain for maximum stack usage:
broadcast_send => bearer_handler_action_enqueue => bearer_handler_wake_up => action_in_progress => queue_peek => mesh_assertion_handler => app_error_fault_handler => log_printf => log_vprintf

Maximum Stack Usage for fen_filter_start 0x88 bytes.
Call chain for maximum stack usage:
fen_filter_start => list_add => list_insert => mesh_assertion_handler => app_error_fault_handler => log_printf => log_vprintf

Maximum Stack Usage for fen_filter_stop 0x78 bytes.
Call chain for maximum stack usage:
fen_filter_stop => list_remove => mesh_assertion_handler => app_error_fault_handler => log_printf => log_vprintf

Maximum Stack Usage for fen_filters_apply 0x78 bytes.
Call chain for maximum stack usage:
fen_filters_apply => mesh_assertion_handler => app_error_fault_handler => log_printf => log_vprintf

Maximum Stack Usage for radio_config_channel_set 0x68 bytes.
Call chain for maximum stack usage:
radio_config_channel_set => mesh_assertion_handler => app_error_fault_handler => log_printf => log_vprintf

Maximum Stack Usage for radio_config_config 0x68 bytes.
Call chain for maximum stack usage:
radio_config_config => mesh_assertion_handler => app_error_fault_handler => log_printf => log_vprintf

Maximum Stack Usage for radio_config_access_addr_set 0x70 bytes.
Call chain for maximum stack usage:
radio_config_access_addr_set => mesh_assertion_handler => app_error_fault_handler => log_printf => log_vprintf

Maximum Stack Usage for scanner_radio_start 0xa8 bytes.
Call chain for maximum stack usage:
scanner_radio_start => radio_start => radio_configure => radio_config_access_addr_set => mesh_assertion_handler => app_error_fault_handler => log_printf => log_vprintf

Maximum Stack Usage for scanner_radio_stop 0x88 bytes.
Call chain for maximum stack usage:
scanner_radio_stop => radio_stop => packet_buffer_free => mesh_assertion_handler => app_error_fault_handler => log_printf => log_vprintf

Maximum Stack Usage for scanner_radio_irq_handler 0xb0 bytes.
Call chain for maximum stack usage:
scanner_radio_irq_handler => radio_setup_next_operation => radio_start => radio_configure => radio_config_access_addr_set => mesh_assertion_handler => app_error_fault_handler => log_printf => log_vprintf

Maximum Stack Usage for scanner_timer_irq_handler 0x68 bytes.
Call chain for maximum stack usage:
scanner_timer_irq_handler => mesh_assertion_handler => app_error_fault_handler => log_printf => log_vprintf

Maximum Stack Usage for scanner_config_scan_time_set 0xa0 bytes.
Call chain for maximum stack usage:
scanner_config_scan_time_set => schedule_timers => timer_sch_reschedule => setup_timeout => timer_start => mesh_assertion_handler => app_error_fault_handler => log_printf => log_vprintf

Maximum Stack Usage for scanner_config_access_addresses_set 0x70 bytes.
Call chain for maximum stack usage:
scanner_config_access_addresses_set => mesh_assertion_handler => app_error_fault_handler => log_printf => log_vprintf

Maximum Stack Usage for scanner_config_channels_set 0x80 bytes.
Call chain for maximum stack usage:
scanner_config_channels_set => mesh_assertion_handler => app_error_fault_handler => log_printf => log_vprintf

Maximum Stack Usage for scanner_config_reset 0xb0 bytes.
Call chain for maximum stack usage:
scanner_config_reset => scanner_config_scan_time_set => schedule_timers => timer_sch_reschedule => setup_timeout => timer_start => mesh_assertion_handler => app_error_fault_handler => log_printf => log_vprintf

Maximum Stack Usage for scanner_init 0xc0 bytes.
Call chain for maximum stack usage:
scanner_init => scanner_config_reset => scanner_config_scan_time_set => schedule_timers => timer_sch_reschedule => setup_timeout => timer_start => mesh_assertion_handler => app_error_fault_handler => log_printf => log_vprintf

Maximum Stack Usage for scanner_enable 0x98 bytes.
Call chain for maximum stack usage:
scanner_enable => schedule_timers => timer_sch_reschedule => setup_timeout => timer_start => mesh_assertion_handler => app_error_fault_handler => log_printf => log_vprintf

Maximum Stack Usage for scanner_packet_release 0x80 bytes.
Call chain for maximum stack usage:
scanner_packet_release => packet_buffer_free => mesh_assertion_handler => app_error_fault_handler => log_printf => log_vprintf

Maximum Stack Usage for scanner_rx 0x90 bytes.
Call chain for maximum stack usage:
scanner_rx => scanner_packet_release => packet_buffer_free => mesh_assertion_handler => app_error_fault_handler => log_printf => log_vprintf

Maximum Stack Usage for scanner_rx_pending 0x70 bytes.
Call chain for maximum stack usage:
scanner_rx_pending => packet_buffer_can_pop => mesh_assertion_handler => app_error_fault_handler => log_printf => log_vprintf

Maximum Stack Usage for mesh_pa_lna_cleanup 0x8 bytes.
Call chain for maximum stack usage:
mesh_pa_lna_cleanup

Maximum Stack Usage for mesh_pa_setup_start 0x18 bytes.
Call chain for maximum stack usage:
mesh_pa_setup_start => ppi_setup

Maximum Stack Usage for mesh_lna_setup_start 0x18 bytes.
Call chain for maximum stack usage:
mesh_lna_setup_start => ppi_setup

Maximum Stack Usage for mesh_pa_lna_setup_stop 0x8 bytes.
Call chain for maximum stack usage:
mesh_pa_lna_setup_stop

Maximum Stack Usage for RTC1_IRQHandler 0x80 bytes.
Call chain for maximum stack usage:
RTC1_IRQHandler => nrf_mesh_timer_ovfw_handle => mesh_assertion_handler => app_error_fault_handler => log_printf => log_vprintf

Maximum Stack Usage for SWI0_EGU0_IRQHandler 0x48 bytes.
Call chain for maximum stack usage:
SWI0_EGU0_IRQHandler => timer_list_handler => list_insertions_handler => timer_list_insert

Maximum Stack Usage for app_timer_init 0x18 bytes.
Call chain for maximum stack usage:
app_timer_init

Maximum Stack Usage for app_timer_start 0x34 bytes.
Call chain for maximum stack usage:
app_timer_start => app_util_critical_region_enter

Maximum Stack Usage for app_timer_stop 0x24 bytes.
Call chain for maximum stack usage:
app_timer_stop => timer_stop_op_schedule => app_util_critical_region_enter

Maximum Stack Usage for SystemInit 0xc bytes.
Call chain for maximum stack usage:
SystemInit

Maximum Stack Usage for app_error_handler_bare 0x60 bytes.
Call chain for maximum stack usage:
app_error_handler_bare => app_error_fault_handler => log_printf => log_vprintf

Maximum Stack Usage for uECC_make_key 0x2dc bytes.
Call chain for maximum stack usage:
uECC_make_key => EccPoint_compute_public_key => EccPoint_mult => XYcZ_addC => uECC_vli_modSquare_fast => uECC_vli_modMult_fast => uECC_vli_mult => muladd

Maximum Stack Usage for uECC_shared_secret 0x2b4 bytes.
Call chain for maximum stack usage:
uECC_shared_secret => EccPoint_mult => XYcZ_addC => uECC_vli_modSquare_fast => uECC_vli_modMult_fast => uECC_vli_mult => muladd

Maximum Stack Usage for uECC_valid_point 0xf4 bytes.
Call chain for maximum stack usage:
uECC_valid_point => uECC_vli_modSquare_fast => uECC_vli_modMult_fast => uECC_vli_mult => muladd

Maximum Stack Usage for uECC_valid_public_key 0x144 bytes.
Call chain for maximum stack usage:
uECC_valid_public_key => uECC_valid_point => uECC_vli_modSquare_fast => uECC_vli_modMult_fast => uECC_vli_mult => muladd

Maximum Stack Usage for SEGGER_RTT_WriteNoLock 0x30 bytes.
Call chain for maximum stack usage:
SEGGER_RTT_WriteNoLock => _WriteBlocking

Maximum Stack Usage for SEGGER_RTT_Write 0x40 bytes.
Call chain for maximum stack usage:
SEGGER_RTT_Write => SEGGER_RTT_WriteNoLock => _WriteBlocking

Maximum Stack Usage for SEGGER_RTT_vprintf 0x118 bytes.
Call chain for maximum stack usage:
SEGGER_RTT_vprintf => _PrintInt => _PrintUnsigned => _StoreChar => SEGGER_RTT_Write => SEGGER_RTT_WriteNoLock => _WriteBlocking

Maximum Stack Usage for SEGGER_RTT_printf 0x130 bytes.
Call chain for maximum stack usage:
SEGGER_RTT_printf => SEGGER_RTT_vprintf => _PrintInt => _PrintUnsigned => _StoreChar => SEGGER_RTT_Write => SEGGER_RTT_WriteNoLock => _WriteBlocking

Stack Usage for functions.

Stack Usage for __main 0x0 bytes.
Stack Usage for __scatterload unknown bytes.
Stack Usage for __scatterload_rt2 unknown bytes.
Stack Usage for __scatterload_rt2_thumb_only unknown bytes.
Stack Usage for __scatterload_null unknown bytes.
Stack Usage for __decompress unknown bytes.
Stack Usage for __decompress0 unknown bytes.
Stack Usage for __scatterload_zeroinit unknown bytes.
Stack Usage for __rt_lib_init unknown bytes.
Stack Usage for __rt_lib_init_fp_1 unknown bytes.
Stack Usage for __rt_lib_init_heap_2 unknown bytes.
Stack Usage for __rt_lib_init_preinit_1 unknown bytes.
Stack Usage for __rt_lib_init_alloca_1 unknown bytes.
Stack Usage for __rt_lib_init_argv_1 unknown bytes.
Stack Usage for __rt_lib_init_atexit_1 unknown bytes.
Stack Usage for __rt_lib_init_clock_1 unknown bytes.
Stack Usage for __rt_lib_init_cpp_1 unknown bytes.
Stack Usage for __rt_lib_init_exceptions_1 unknown bytes.
Stack Usage for __rt_lib_init_fp_trap_1 unknown bytes.
Stack Usage for __rt_lib_init_getenv_1 unknown bytes.
Stack Usage for __rt_lib_init_heap_1 unknown bytes.
Stack Usage for __rt_lib_init_lc_collate_1 unknown bytes.
Stack Usage for __rt_lib_init_lc_ctype_1 unknown bytes.
Stack Usage for __rt_lib_init_lc_monetary_1 unknown bytes.
Stack Usage for __rt_lib_init_lc_numeric_1 unknown bytes.
Stack Usage for __rt_lib_init_lc_time_1 unknown bytes.
Stack Usage for __rt_lib_init_rand_1 unknown bytes.
Stack Usage for __rt_lib_init_return unknown bytes.
Stack Usage for __rt_lib_init_signal_1 unknown bytes.
Stack Usage for __rt_lib_init_stdio_1 unknown bytes.
Stack Usage for __rt_lib_init_user_alloc_1 unknown bytes.
Stack Usage for __rt_lib_shutdown unknown bytes.
Stack Usage for __rt_lib_shutdown_cpp_1 unknown bytes.
Stack Usage for __rt_lib_shutdown_fp_trap_1 unknown bytes.
Stack Usage for __rt_lib_shutdown_heap_1 unknown bytes.
Stack Usage for __rt_lib_shutdown_return unknown bytes.
Stack Usage for __rt_lib_shutdown_signal_1 unknown bytes.
Stack Usage for __rt_lib_shutdown_stdio_1 unknown bytes.
Stack Usage for __rt_lib_shutdown_user_alloc_1 unknown bytes.
Stack Usage for __rt_entry unknown bytes.
Stack Usage for __rt_entry_presh_1 unknown bytes.
Stack Usage for __rt_entry_sh unknown bytes.
Stack Usage for __rt_entry_li unknown bytes.
Stack Usage for __rt_entry_postsh_1 unknown bytes.
Stack Usage for __rt_entry_main unknown bytes.
Stack Usage for __rt_entry_postli_1 unknown bytes.
Stack Usage for __rt_exit unknown bytes.
Stack Usage for __rt_exit_ls unknown bytes.
Stack Usage for __rt_exit_prels_1 unknown bytes.
Stack Usage for __rt_exit_exit unknown bytes.
Stack Usage for app_error_handler 0x0 bytes.
Stack Usage for __asm___18_prov_provisioner_c_dc711a8a____REV16 0x0 bytes.
Stack Usage for _maybe_terminate_alloc 0x0 bytes.
Stack Usage for __asm___18_prov_provisionee_c_96a69ecf____REV16 0x0 bytes.
Stack Usage for __asm___13_prov_beacon_c_17c6bfa8____REV16 0x0 bytes.
Stack Usage for __asm___17_prov_bearer_adv_c_f600122b____REV16 0x0 bytes.
Stack Usage for __asm___5_enc_c_9f7860bf____REV16 0x0 bytes.
Stack Usage for __asm___17_nrf_mesh_keygen_c_97125f96____REV16 0x0 bytes.
Stack Usage for __asm___10_ccm_soft_c_0047811c____REV16 0x0 bytes.
Stack Usage for main 0x0 bytes.
Stack Usage for mesh_stack_is_device_provisioned 0x8 bytes.
Stack Usage for mesh_stack_init 0x18 bytes.
Stack Usage for mesh_stack_start 0x0 bytes.
Stack Usage for mesh_stack_provisioning_data_store 0x28 bytes.
Stack Usage for mesh_stack_config_clear 0x8 bytes.
Stack Usage for mesh_stack_device_reset 0x0 bytes.
Stack Usage for mesh_stack_persistence_flash_usage 0x0 bytes.
Stack Usage for mesh_stack_health_server_get 0x0 bytes.
Stack Usage for hal_led_pin_get 0x0 bytes.
Stack Usage for hal_led_pin_set 0x0 bytes.
Stack Usage for hal_led_mask_set 0x0 bytes.
Stack Usage for hal_led_blink_ms 0x8 bytes.
Stack Usage for hal_led_blink_stop 0x8 bytes.
Stack Usage for hal_leds_init 0x8 bytes.
Stack Usage for hal_buttons_init 0x0 bytes.
Stack Usage for GPIOTE_IRQHandler 0x28 bytes.
Stack Usage for mesh_app_uuid_print 0x128 bytes.
Stack Usage for ble_stack_init 0x28 bytes.
Stack Usage for app_util_disable_irq 0x0 bytes.
Stack Usage for app_util_enable_irq 0x0 bytes.
Stack Usage for app_util_critical_region_enter 0xc bytes.
Stack Usage for app_util_critical_region_exit 0x0 bytes.
Stack Usage for privilege_level_get 0x0 bytes.
Stack Usage for current_int_priority_get 0x0 bytes.
Stack Usage for nrf_section_iter_init 0x0 bytes.
Stack Usage for nrf_section_iter_next 0x0 bytes.
Stack Usage for nrf_sdh_ble_app_ram_start_get 0x0 bytes.
Stack Usage for nrf_sdh_ble_default_cfg_set 0x18 bytes.
Stack Usage for nrf_sdh_ble_enable 0x0 bytes.
Stack Usage for nrf_sdh_enable_request 0x18 bytes.
Stack Usage for nrf_sdh_disable_request 0x18 bytes.
Stack Usage for nrf_sdh_request_continue 0x0 bytes.
Stack Usage for nrf_sdh_is_enabled 0x0 bytes.
Stack Usage for nrf_sdh_suspend 0x8 bytes.
Stack Usage for nrf_sdh_resume 0x10 bytes.
Stack Usage for nrf_sdh_is_suspended 0x0 bytes.
Stack Usage for nrf_sdh_evts_poll 0x10 bytes.
Stack Usage for SWI2_EGU2_IRQHandler 0x0 bytes.
Stack Usage for prov_provisioner_provision 0x10 bytes.
Stack Usage for prov_provisioner_oob_use 0x10 bytes.
Stack Usage for prov_provisioner_auth_data 0x0 bytes.
Stack Usage for prov_provisioner_shared_secret 0x8 bytes.
Stack Usage for prov_provisioner_oob_pubkey 0x10 bytes.
Stack Usage for prov_provisionee_listen 0x10 bytes.
Stack Usage for prov_provisionee_auth_data 0x18 bytes.
Stack Usage for prov_provisionee_shared_secret 0x8 bytes.
Stack Usage for nrf_mesh_prov_init 0xc bytes.
Stack Usage for nrf_mesh_prov_bearer_add 0x10 bytes.
Stack Usage for nrf_mesh_prov_generate_keys 0x0 bytes.
Stack Usage for nrf_mesh_prov_listen_stop 0x10 bytes.
Stack Usage for nrf_mesh_prov_listen 0x30 bytes.
Stack Usage for nrf_mesh_prov_provision 0x18 bytes.
Stack Usage for nrf_mesh_prov_oob_use 0x8 bytes.
Stack Usage for nrf_mesh_prov_auth_data_provide 0x18 bytes.
Stack Usage for nrf_mesh_prov_shared_secret_provide 0x0 bytes.
Stack Usage for nrf_mesh_prov_pubkey_provide 0x0 bytes.
Stack Usage for nrf_mesh_prov_scan_start 0x8 bytes.
Stack Usage for nrf_mesh_prov_scan_stop 0x0 bytes.
Stack Usage for prov_packet_length_valid 0x0 bytes.
Stack Usage for prov_tx_invite 0x8 bytes.
Stack Usage for prov_tx_capabilities 0x0 bytes.
Stack Usage for prov_tx_start 0x0 bytes.
Stack Usage for prov_tx_public_key 0x50 bytes.
Stack Usage for prov_tx_input_complete 0x8 bytes.
Stack Usage for prov_tx_confirmation 0x20 bytes.
Stack Usage for prov_tx_random 0x20 bytes.
Stack Usage for prov_tx_complete 0x8 bytes.
Stack Usage for prov_tx_failed 0x8 bytes.
Stack Usage for prov_tx_data 0x0 bytes.
Stack Usage for prov_tx 0x0 bytes.
Stack Usage for prov_beacon_unprov_build 0x40 bytes.
Stack Usage for prov_beacon_unprov_packet_in 0x38 bytes.
Stack Usage for prov_beacon_scan_start 0x8 bytes.
Stack Usage for prov_beacon_scan_stop 0x0 bytes.
Stack Usage for mesh_opt_prov_ecdh_offloading_set 0x8 bytes.
Stack Usage for prov_utils_opt_set 0x0 bytes.
Stack Usage for mesh_opt_prov_ecdh_offloading_get 0x0 bytes.
Stack Usage for prov_utils_opt_get 0x0 bytes.
Stack Usage for prov_utils_use_ecdh_offloading 0x8 bytes.
Stack Usage for prov_utils_authentication_values_derive 0x50 bytes.
Stack Usage for prov_utils_keys_generate 0x10 bytes.
Stack Usage for prov_utils_derive_keys 0x78 bytes.
Stack Usage for prov_utils_is_valid_public_key 0x8 bytes.
Stack Usage for prov_utils_calculate_shared_secret 0x10 bytes.
Stack Usage for prov_utils_generate_oob_data 0x10 bytes.
Stack Usage for prov_utils_confirmation_check 0x50 bytes.
Stack Usage for prov_utils_auth_data_is_alphanumeric 0x8 bytes.
Stack Usage for prov_utils_auth_data_is_valid_number 0x10 bytes.
Stack Usage for prov_utils_is_valid_pdu 0x0 bytes.
Stack Usage for calculate_3GPP_CRC 0xc bytes.
Stack Usage for nrf_mesh_prov_bearer_adv_interface_get 0x10 bytes.
Stack Usage for prov_bearer_adv_packet_in 0x10 bytes.
Stack Usage for access_publish_init 0x8 bytes.
Stack Usage for access_publish_period_set 0x18 bytes.
Stack Usage for access_publish_period_get 0x10 bytes.
Stack Usage for access_publish_retransmission_init 0x8 bytes.
Stack Usage for access_publish_retransmission_message_add 0x20 bytes.
Stack Usage for access_incoming_handle 0x50 bytes.
Stack Usage for access_model_publish_period_get 0x10 bytes.
Stack Usage for access_flash_config_load 0x0 bytes.
Stack Usage for access_flash_config_store 0x0 bytes.
Stack Usage for access_packet_tx 0x20 bytes.
Stack Usage for access_clear 0x8 bytes.
Stack Usage for access_init 0x8 bytes.
Stack Usage for access_model_add 0x20 bytes.
Stack Usage for access_model_publish 0x18 bytes.
Stack Usage for access_model_reply 0x10 bytes.
Stack Usage for access_model_element_index_get 0x10 bytes.
Stack Usage for access_model_publish_address_set 0x10 bytes.
Stack Usage for access_model_publish_address_get 0x10 bytes.
Stack Usage for access_model_publish_retransmit_set 0xc bytes.
Stack Usage for access_model_publish_retransmit_get 0x0 bytes.
Stack Usage for access_model_publish_period_divisor_set 0x8 bytes.
Stack Usage for access_model_publish_period_set 0x10 bytes.
Stack Usage for access_model_subscription_list_alloc 0x8 bytes.
Stack Usage for access_model_subscription_list_dealloc 0x18 bytes.
Stack Usage for access_model_subscription_lists_share 0x10 bytes.
Stack Usage for access_model_subscription_add 0x10 bytes.
Stack Usage for access_model_subscription_remove 0x10 bytes.
Stack Usage for access_model_subscriptions_get 0x18 bytes.
Stack Usage for access_model_application_bind 0x10 bytes.
Stack Usage for access_model_application_unbind 0x10 bytes.
Stack Usage for access_model_applications_get 0x18 bytes.
Stack Usage for access_model_publish_application_set 0x10 bytes.
Stack Usage for access_model_publish_application_get 0x10 bytes.
Stack Usage for access_default_ttl_set 0x0 bytes.
Stack Usage for access_default_ttl_get 0x0 bytes.
Stack Usage for access_model_publish_friendship_credential_flag_set 0x10 bytes.
Stack Usage for access_model_publish_friendship_credential_flag_get 0x10 bytes.
Stack Usage for access_model_publish_ttl_set 0x10 bytes.
Stack Usage for access_model_publish_ttl_get 0x10 bytes.
Stack Usage for access_element_location_set 0x0 bytes.
Stack Usage for access_element_location_get 0x0 bytes.
Stack Usage for access_element_sig_model_count_get 0x0 bytes.
Stack Usage for access_element_vendor_model_count_get 0x0 bytes.
Stack Usage for access_model_id_get 0x10 bytes.
Stack Usage for access_handle_get 0x14 bytes.
Stack Usage for access_element_models_get 0x14 bytes.
Stack Usage for access_model_p_args_get 0x10 bytes.
Stack Usage for access_model_publication_stop 0x10 bytes.
Stack Usage for access_model_publication_by_appkey_stop 0x10 bytes.
Stack Usage for access_flash_area_get 0x8 bytes.
Stack Usage for access_reliable_message_rx_cb 0x18 bytes.
Stack Usage for access_reliable_model_is_free 0x8 bytes.
Stack Usage for access_reliable_init 0x8 bytes.
Stack Usage for access_reliable_cancel_all 0x18 bytes.
Stack Usage for access_model_reliable_cancel 0x18 bytes.
Stack Usage for access_model_reliable_publish 0x10 bytes.
Stack Usage for dsm_subnet_update_commit 0x18 bytes.
Stack Usage for dsm_subnet_update_swap_keys 0x10 bytes.
Stack Usage for dsm_flash_config_load 0x0 bytes.
Stack Usage for dsm_has_unflashed_data 0x0 bytes.
Stack Usage for dsm_flash_area_get 0x0 bytes.
Stack Usage for dsm_clear 0x8 bytes.
Stack Usage for dsm_init 0x0 bytes.
Stack Usage for dsm_local_unicast_addresses_set 0x8 bytes.
Stack Usage for dsm_local_unicast_addresses_get 0x8 bytes.
Stack Usage for dsm_address_publish_add 0x0 bytes.
Stack Usage for dsm_address_publish_add_handle 0x8 bytes.
Stack Usage for dsm_address_publish_virtual_add 0x0 bytes.
Stack Usage for dsm_address_publish_remove 0x8 bytes.
Stack Usage for dsm_address_subscription_add 0x0 bytes.
Stack Usage for dsm_address_subscription_virtual_add 0x0 bytes.
Stack Usage for dsm_address_subscription_add_handle 0x8 bytes.
Stack Usage for dsm_address_subscription_get 0x8 bytes.
Stack Usage for nrf_mesh_rx_address_get 0x10 bytes.
Stack Usage for nrf_mesh_is_address_rx 0x10 bytes.
Stack Usage for dsm_address_is_rx 0x0 bytes.
Stack Usage for dsm_address_get 0x10 bytes.
Stack Usage for dsm_address_subscription_count_get 0x18 bytes.
Stack Usage for dsm_address_subscription_remove 0x18 bytes.
Stack Usage for dsm_address_get_all 0x18 bytes.
Stack Usage for dsm_address_handle_get 0x20 bytes.
Stack Usage for dsm_net_key_index_to_subnet_handle 0x8 bytes.
Stack Usage for dsm_subnet_handle_get 0x0 bytes.
Stack Usage for dsm_subnet_handle_to_netkey_index 0x10 bytes.
Stack Usage for dsm_appkey_index_to_appkey_handle 0x8 bytes.
Stack Usage for dsm_appkey_handle_get 0x0 bytes.
Stack Usage for dsm_appkey_handle_to_appkey_index 0x10 bytes.
Stack Usage for dsm_appkey_handle_to_subnet_handle 0x10 bytes.
Stack Usage for dsm_subnet_add 0x128 bytes.
Stack Usage for dsm_subnet_kr_phase_get 0x10 bytes.
Stack Usage for dsm_subnet_update 0x20 bytes.
Stack Usage for dsm_appkey_delete 0x8 bytes.
Stack Usage for dsm_subnet_delete 0x18 bytes.
Stack Usage for dsm_subnet_get_all 0x18 bytes.
Stack Usage for dsm_subnet_key_get 0x10 bytes.
Stack Usage for dsm_devkey_add 0x128 bytes.
Stack Usage for dsm_devkey_delete 0x8 bytes.
Stack Usage for dsm_devkey_handle_get 0x10 bytes.
Stack Usage for dsm_appkey_add 0x128 bytes.
Stack Usage for dsm_appkey_update 0x10 bytes.
Stack Usage for dsm_appkey_get_all 0x20 bytes.
Stack Usage for dsm_tx_secmat_get 0x18 bytes.
Stack Usage for dsm_beacon_info_get 0x10 bytes.
Stack Usage for dsm_net_secmat_from_keyindex_get 0x10 bytes.
Stack Usage for nrf_mesh_net_secmat_next_get 0x20 bytes.
Stack Usage for nrf_mesh_app_secmat_next_get 0x18 bytes.
Stack Usage for nrf_mesh_devkey_secmat_get 0x10 bytes.
Stack Usage for nrf_mesh_primary_net_secmat_get 0x20 bytes.
Stack Usage for nrf_mesh_beacon_info_next_get 0x20 bytes.
Stack Usage for nrf_mesh_unicast_address_get 0x10 bytes.
Stack Usage for nrf_mesh_key_refresh_phase_get 0x8 bytes.
Stack Usage for nrf_mesh_net_secmat_from_index_get 0x8 bytes.
Stack Usage for config_composition_data_get 0x38 bytes.
Stack Usage for config_server_init 0x28 bytes.
Stack Usage for config_server_bind 0x0 bytes.
Stack Usage for packed_index_list_create 0x14 bytes.
Stack Usage for health_server_fault_count_get 0x10 bytes.
Stack Usage for health_server_fault_register 0x10 bytes.
Stack Usage for health_server_fault_clear 0x10 bytes.
Stack Usage for health_server_fault_is_set 0x0 bytes.
Stack Usage for health_server_attention_get 0x0 bytes.
Stack Usage for health_server_attention_set 0x0 bytes.
Stack Usage for health_server_init 0x28 bytes.
Stack Usage for serial_uart_process 0x18 bytes.
Stack Usage for UARTE0_UART0_IRQHandler 0x0 bytes.
Stack Usage for serial_uart_init 0x10 bytes.
Stack Usage for serial_uart_receive_set 0x0 bytes.
Stack Usage for serial_bearer_tx 0x10 bytes.
Stack Usage for serial_bearer_packet_buffer_get 0x10 bytes.
Stack Usage for serial_bearer_init 0x8 bytes.
Stack Usage for serial_bearer_blocking_buffer_get 0x18 bytes.
Stack Usage for serial_bearer_rx_get 0x10 bytes.
Stack Usage for serial_bearer_rx_pending 0x0 bytes.
Stack Usage for serial_handler_common_cmd_rsp_nodata_on_error 0x10 bytes.
Stack Usage for serial_handler_common_rx 0x8 bytes.
Stack Usage for serial_handler_access_rx 0x8 bytes.
Stack Usage for serial_handler_config_rx 0x18 bytes.
Stack Usage for serial_handler_openmesh_rx 0x8 bytes.
Stack Usage for serial_tx 0x8 bytes.
Stack Usage for serial_packet_buffer_get 0x8 bytes.
Stack Usage for serial_cmd_rsp_send 0x18 bytes.
Stack Usage for serial_init 0x8 bytes.
Stack Usage for serial_start 0x28 bytes.
Stack Usage for serial_process 0x8 bytes.
Stack Usage for serial_translate_error 0x0 bytes.
Stack Usage for serial_state_get 0x0 bytes.
Stack Usage for serial_handler_prov_init 0x18 bytes.
Stack Usage for serial_handler_prov_pkt_in 0x40 bytes.
Stack Usage for serial_handler_prov_context_get 0x0 bytes.
Stack Usage for serial_handler_prov_keys_get 0x0 bytes.
Stack Usage for serial_handler_prov_oob_caps_get 0x0 bytes.
Stack Usage for serial_handler_dfu_init 0x0 bytes.
Stack Usage for serial_handler_dfu_rx 0x30 bytes.
Stack Usage for serial_handler_mesh_init 0x0 bytes.
Stack Usage for serial_handler_mesh_rx 0x10 bytes.
Stack Usage for serial_handler_models_rx 0x8 bytes.
Stack Usage for serial_handler_models_register 0xc bytes.
Stack Usage for serial_handler_device_init 0x10 bytes.
Stack Usage for serial_handler_device_rx 0x8 bytes.
Stack Usage for serial_handler_device_alloc_fail_report 0x0 bytes.
Stack Usage for nrf_mesh_serial_init 0x8 bytes.
Stack Usage for nrf_mesh_serial_enable 0x0 bytes.
Stack Usage for nrf_mesh_serial_state_get 0x0 bytes.
Stack Usage for nrf_mesh_serial_tx 0x18 bytes.
Stack Usage for serial_handler_app_cb_set 0x0 bytes.
Stack Usage for serial_handler_app_rx 0x8 bytes.
Stack Usage for _weak_handler 0x0 bytes.
Stack Usage for mesh_flash_op_execute 0x0 bytes.
Stack Usage for nrf_mesh_dfu_abort 0x0 bytes.
Stack Usage for nrf_mesh_dfu_bank_flash 0x0 bytes.
Stack Usage for nrf_mesh_dfu_bank_info_get 0x0 bytes.
Stack Usage for nrf_mesh_dfu_enable 0x0 bytes.
Stack Usage for nrf_mesh_dfu_init 0x0 bytes.
Stack Usage for nrf_mesh_dfu_jump_to_bootloader 0x0 bytes.
Stack Usage for nrf_mesh_dfu_relay 0x0 bytes.
Stack Usage for nrf_mesh_dfu_request 0x0 bytes.
Stack Usage for nrf_mesh_dfu_rx 0x0 bytes.
Stack Usage for nrf_mesh_dfu_state_get 0x0 bytes.
Stack Usage for prov_provisionee_init 0x0 bytes.
Stack Usage for _weak_handler_ptr 0x0 bytes.
Stack Usage for app_error_fault_handler 0x28 bytes.
Stack Usage for mesh_assertion_handler 0x10 bytes.
Stack Usage for nrf_mesh_configure_device_uuid_set 0x0 bytes.
Stack Usage for nrf_mesh_configure_device_uuid_reset 0x0 bytes.
Stack Usage for nrf_mesh_configure_device_uuid_get 0x0 bytes.
Stack Usage for msg_cache_init 0x0 bytes.
Stack Usage for msg_cache_entry_exists 0x10 bytes.
Stack Usage for msg_cache_entry_add 0xc bytes.
Stack Usage for msg_cache_clear 0x0 bytes.
Stack Usage for transport_control_tx 0x38 bytes.
Stack Usage for transport_init 0x10 bytes.
Stack Usage for transport_enable 0x0 bytes.
Stack Usage for transport_packet_in 0x58 bytes.
Stack Usage for transport_tx 0x38 bytes.
Stack Usage for transport_opt_set 0xc bytes.
Stack Usage for transport_opt_get 0x0 bytes.
Stack Usage for transport_control_packet_consumer_add 0x18 bytes.
Stack Usage for event_handle 0x10 bytes.
Stack Usage for event_handler_add 0x8 bytes.
Stack Usage for event_handler_remove 0x8 bytes.
Stack Usage for packet_buffer_max_packet_len_get 0x8 bytes.
Stack Usage for packet_buffer_init 0x20 bytes.
Stack Usage for packet_buffer_flush 0x10 bytes.
Stack Usage for packet_buffer_reserve 0x18 bytes.
Stack Usage for packet_buffer_commit 0x18 bytes.
Stack Usage for packet_buffer_pop 0x18 bytes.
Stack Usage for packet_buffer_can_pop 0x10 bytes.
Stack Usage for packet_buffer_packets_ready_to_pop 0x10 bytes.
Stack Usage for packet_buffer_free 0x18 bytes.
Stack Usage for packet_buffer_is_empty 0x8 bytes.
Stack Usage for flash_manager_defrag_init 0x0 bytes.
Stack Usage for flash_manager_defragging 0x10 bytes.
Stack Usage for flash_manager_defrag_is_running 0x0 bytes.
Stack Usage for flash_manager_defrag 0x10 bytes.
Stack Usage for flash_manager_defrag_recovery_page_get 0x0 bytes.
Stack Usage for fifo_init 0x8 bytes.
Stack Usage for fifo_push 0x10 bytes.
Stack Usage for fifo_pop 0x10 bytes.
Stack Usage for fifo_get_len 0x0 bytes.
Stack Usage for fifo_peek_at 0x10 bytes.
Stack Usage for fifo_peek 0x0 bytes.
Stack Usage for fifo_flush 0x0 bytes.
Stack Usage for fifo_is_full 0x0 bytes.
Stack Usage for fifo_is_empty 0x0 bytes.
Stack Usage for nrf_flash_erase 0x10 bytes.
Stack Usage for nrf_flash_write 0x10 bytes.
Stack Usage for net_state_iv_update_start 0x8 bytes.
Stack Usage for net_state_recover_from_flash 0x0 bytes.
Stack Usage for net_state_reset 0x8 bytes.
Stack Usage for net_state_flash_area_get 0x0 bytes.
Stack Usage for net_state_init 0x8 bytes.
Stack Usage for net_state_enable 0x8 bytes.
Stack Usage for net_state_seqnum_alloc 0x10 bytes.
Stack Usage for net_state_iv_update_test_mode_set 0x0 bytes.
Stack Usage for net_state_test_mode_transition_run 0x8 bytes.
Stack Usage for net_state_iv_index_lock 0x10 bytes.
Stack Usage for net_state_key_refresh_phase_changed 0x30 bytes.
Stack Usage for net_state_beacon_iv_index_get 0x0 bytes.
Stack Usage for net_state_tx_iv_index_get 0x0 bytes.
Stack Usage for net_state_rx_iv_index_get 0x0 bytes.
Stack Usage for net_state_iv_update_get 0x0 bytes.
Stack Usage for net_state_iv_index_set 0x8 bytes.
Stack Usage for mesh_flash_init 0x18 bytes.
Stack Usage for mesh_flash_user_callback_set 0x10 bytes.
Stack Usage for mesh_flash_op_push 0x20 bytes.
Stack Usage for mesh_flash_op_available_slots 0x8 bytes.
Stack Usage for mesh_flash_in_progress 0x10 bytes.
Stack Usage for mesh_flash_set_suspended 0x18 bytes.
Stack Usage for nrf_mesh_rand_get 0x8 bytes.
Stack Usage for nrf_mesh_address_type_get 0x0 bytes.
Stack Usage for nrf_mesh_gap_address_type_get 0x8 bytes.
Stack Usage for nrf_mesh_init 0x18 bytes.
Stack Usage for nrf_mesh_enable 0x18 bytes.
Stack Usage for nrf_mesh_disable 0x8 bytes.
Stack Usage for nrf_mesh_packet_send 0x0 bytes.
Stack Usage for nrf_mesh_process 0x0 bytes.
Stack Usage for nrf_mesh_evt_handler_add 0x0 bytes.
Stack Usage for nrf_mesh_evt_handler_remove 0x0 bytes.
Stack Usage for nrf_mesh_on_sd_evt 0x8 bytes.
Stack Usage for nrf_mesh_rx_cb_set 0x0 bytes.
Stack Usage for nrf_mesh_rx_cb_clear 0x0 bytes.
Stack Usage for nrf_mesh_subnet_added 0x0 bytes.
Stack Usage for nrf_mesh_unique_token_get 0x0 bytes.
Stack Usage for queue_init 0x8 bytes.
Stack Usage for queue_push 0x10 bytes.
Stack Usage for queue_pop 0x8 bytes.
Stack Usage for queue_peek 0x8 bytes.
Stack Usage for queue_merge 0x10 bytes.
Stack Usage for queue_iterator_iterate 0x0 bytes.
Stack Usage for queue_iterator_elem_remove 0x18 bytes.
Stack Usage for queue_iterator_elem_insert 0x0 bytes.
Stack Usage for hal_device_reset 0x0 bytes.
Stack Usage for hal_lfclk_ppm_get 0x0 bytes.
Stack Usage for hal_irq_active_get 0x0 bytes.
Stack Usage for hal_irq_is_enabled 0x0 bytes.
Stack Usage for aes_cmac 0x60 bytes.
Stack Usage for timer_sch_init 0x8 bytes.
Stack Usage for timer_sch_schedule 0x8 bytes.
Stack Usage for timer_sch_abort 0x8 bytes.
Stack Usage for timer_sch_reschedule 0x10 bytes.
Stack Usage for timer_sch_is_scheduled 0x0 bytes.
Stack Usage for timer_now 0x8 bytes.
Stack Usage for nrf_mesh_timer_tail_handle 0x8 bytes.
Stack Usage for nrf_mesh_timer_ovfw_handle 0x10 bytes.
Stack Usage for timer_init 0x8 bytes.
Stack Usage for timer_start 0x18 bytes.
Stack Usage for timer_stop 0x0 bytes.
Stack Usage for rand_prng_get 0x8 bytes.
Stack Usage for rand_hw_rng_get 0x18 bytes.
Stack Usage for rand_prng_seed 0x10 bytes.
Stack Usage for mesh_opt_init 0x0 bytes.
Stack Usage for timeslot_state_listener 0x0 bytes.
Stack Usage for timeslot_sd_event_handler 0x8 bytes.
Stack Usage for timeslot_init 0x8 bytes.
Stack Usage for timeslot_start 0x8 bytes.
Stack Usage for timeslot_trigger 0x0 bytes.
Stack Usage for timeslot_stop 0x0 bytes.
Stack Usage for timeslot_restart 0x0 bytes.
Stack Usage for timeslot_state_lock 0x0 bytes.
Stack Usage for timeslot_end_is_pending 0x0 bytes.
Stack Usage for timeslot_end_time_get 0x0 bytes.
Stack Usage for timeslot_length_get 0x0 bytes.
Stack Usage for timeslot_remaining_time_get 0x8 bytes.
Stack Usage for timeslot_is_in_ts 0x0 bytes.
Stack Usage for timeslot_is_in_cb 0x0 bytes.
Stack Usage for timeslot_session_is_active 0x0 bytes.
Stack Usage for timeslot_count_get 0x0 bytes.
Stack Usage for ts_timer_now 0x8 bytes.
Stack Usage for ts_timer_event_handler 0x28 bytes.
Stack Usage for ts_timer_order_cb 0x10 bytes.
Stack Usage for ts_timer_order_cb_ppi 0x18 bytes.
Stack Usage for ts_timer_order_ppi 0x10 bytes.
Stack Usage for ts_timer_abort 0x10 bytes.
Stack Usage for ts_timer_start_get 0x0 bytes.
Stack Usage for ts_timer_to_device_time 0x0 bytes.
Stack Usage for ts_timer_on_ts_begin 0x10 bytes.
Stack Usage for ts_timer_on_ts_end 0x8 bytes.
Stack Usage for bearer_event_flag_set 0x10 bytes.
Stack Usage for bearer_event_handler 0x28 bytes.
Stack Usage for QDEC_IRQHandler 0x0 bytes.
Stack Usage for bearer_event_init 0x8 bytes.
Stack Usage for bearer_event_start 0x8 bytes.
Stack Usage for bearer_event_generic_post 0x20 bytes.
Stack Usage for bearer_event_timer_sch_post 0x20 bytes.
Stack Usage for bearer_event_critical_section_begin 0x10 bytes.
Stack Usage for bearer_event_critical_section_end 0x10 bytes.
Stack Usage for bearer_event_flag_add 0x10 bytes.
Stack Usage for bearer_event_sequential_add 0x10 bytes.
Stack Usage for bearer_event_sequential_post 0x10 bytes.
Stack Usage for bearer_event_sequential_pending 0x8 bytes.
Stack Usage for bearer_event_in_correct_irq_priority 0x10 bytes.
Stack Usage for enc_key_generate 0x0 bytes.
Stack Usage for enc_aes_encrypt 0x40 bytes.
Stack Usage for enc_aes_cmac 0x0 bytes.
Stack Usage for enc_aes_ccm_encrypt 0x0 bytes.
Stack Usage for enc_aes_ccm_decrypt 0x0 bytes.
Stack Usage for enc_nonce_generate 0x10 bytes.
Stack Usage for enc_s1 0x20 bytes.
Stack Usage for enc_k1 0x30 bytes.
Stack Usage for enc_k2 0x50 bytes.
Stack Usage for enc_k3 0x28 bytes.
Stack Usage for enc_k4 0x28 bytes.
Stack Usage for network_packet_send 0x128 bytes.
Stack Usage for network_init 0x8 bytes.
Stack Usage for network_enable 0x8 bytes.
Stack Usage for network_packet_alloc 0x8 bytes.
Stack Usage for network_packet_discard 0x8 bytes.
Stack Usage for network_packet_in 0x178 bytes.
Stack Usage for network_opt_set 0x10 bytes.
Stack Usage for network_opt_get 0x10 bytes.
Stack Usage for net_packet_obfuscation_start_get 0x0 bytes.
Stack Usage for net_packet_enc_start_get 0x0 bytes.
Stack Usage for net_packet_decrypt 0x38 bytes.
Stack Usage for net_packet_encrypt 0x48 bytes.
Stack Usage for net_packet_header_set 0x10 bytes.
Stack Usage for net_packet_payload_len_get 0x8 bytes.
Stack Usage for net_packet_from_payload 0x0 bytes.
Stack Usage for net_packet_payload_get 0x0 bytes.
Stack Usage for msq_reset 0x8 bytes.
Stack Usage for msq_init 0x8 bytes.
Stack Usage for msq_get 0x10 bytes.
Stack Usage for msq_move 0x10 bytes.
Stack Usage for msq_available 0x10 bytes.
Stack Usage for nrf_mesh_keygen_aid 0x8 bytes.
Stack Usage for nrf_mesh_keygen_network_secmat 0x8 bytes.
Stack Usage for nrf_mesh_keygen_friendship_secmat 0x20 bytes.
Stack Usage for nrf_mesh_keygen_beacon_secmat 0x30 bytes.
Stack Usage for nrf_mesh_keygen_identitykey 0x30 bytes.
Stack Usage for nrf_mesh_keygen_virtual_address 0x20 bytes.
Stack Usage for list_add 0x10 bytes.
Stack Usage for list_remove 0x10 bytes.
Stack Usage for list_size_get 0x0 bytes.
Stack Usage for list_sorted_add 0x18 bytes.
Stack Usage for list_compare_add 0x18 bytes.
Stack Usage for log_callback_rtt 0x10 bytes.
Stack Usage for log_callback_logview 0x10 bytes.
Stack Usage for log_init 0x0 bytes.
Stack Usage for log_set_callback 0x0 bytes.
Stack Usage for log_vprintf 0x18 bytes.
Stack Usage for log_printf 0x10 bytes.
Stack Usage for flash_manager_entry_invalidate 0x10 bytes.
Stack Usage for flash_manager_init 0x8 bytes.
Stack Usage for flash_manager_add 0x20 bytes.
Stack Usage for flash_manager_remove 0x8 bytes.
Stack Usage for flash_manager_entry_get 0x10 bytes.
Stack Usage for flash_manager_entries_read 0x38 bytes.
Stack Usage for flash_manager_entry_read 0x28 bytes.
Stack Usage for flash_manager_entry_next_get 0x10 bytes.
Stack Usage for flash_manager_entry_count_get 0x10 bytes.
Stack Usage for flash_manager_entry_alloc 0x10 bytes.
Stack Usage for flash_manager_entry_commit 0x8 bytes.
Stack Usage for flash_manager_entry_release 0x8 bytes.
Stack Usage for flash_manager_mem_listener_register 0x8 bytes.
Stack Usage for flash_manager_is_stable 0x8 bytes.
Stack Usage for flash_manager_on_defrag_end 0x10 bytes.
Stack Usage for flash_manager_recovery_page_get 0x0 bytes.
Stack Usage for flash_manager_action_queue_empty_cb_set 0x10 bytes.
Stack Usage for ccm_soft_encrypt 0x38 bytes.
Stack Usage for ccm_soft_decrypt 0x50 bytes.
Stack Usage for replay_cache_clear 0x0 bytes.
Stack Usage for replay_cache_init 0x8 bytes.
Stack Usage for replay_cache_enable 0x8 bytes.
Stack Usage for replay_cache_add 0x18 bytes.
Stack Usage for replay_cache_has_elem 0x10 bytes.
Stack Usage for beacon_create 0x18 bytes.
Stack Usage for beacon_packet_in 0x128 bytes.
Stack Usage for entry_get 0x20 bytes.
Stack Usage for core_tx_complete_cb_set 0x0 bytes.
Stack Usage for core_tx_packet_alloc 0x20 bytes.
Stack Usage for core_tx_packet_send 0x10 bytes.
Stack Usage for core_tx_packet_discard 0x10 bytes.
Stack Usage for core_tx_bearer_type_get 0x0 bytes.
Stack Usage for core_tx_bearer_count_get 0x0 bytes.
Stack Usage for core_tx_complete 0x18 bytes.
Stack Usage for core_tx_bearer_add 0x18 bytes.
Stack Usage for heartbeat_init 0x8 bytes.
Stack Usage for heartbeat_subscription_set 0x58 bytes.
Stack Usage for heartbeat_subscription_get 0x0 bytes.
Stack Usage for heartbeat_publication_get 0x0 bytes.
Stack Usage for heartbeat_publication_set 0x0 bytes.
Stack Usage for heartbeat_public_info_getter_register 0x0 bytes.
Stack Usage for net_beacon_init 0x10 bytes.
Stack Usage for net_beacon_enable 0x8 bytes.
Stack Usage for net_beacon_state_set 0x8 bytes.
Stack Usage for net_beacon_state_get 0x8 bytes.
Stack Usage for net_beacon_build 0x10 bytes.
Stack Usage for net_beacon_packet_in 0x50 bytes.
Stack Usage for mesh_config_init 0x0 bytes.
Stack Usage for mesh_config_load 0x0 bytes.
Stack Usage for mesh_config_is_busy 0x0 bytes.
Stack Usage for mesh_config_power_down 0x30 bytes.
Stack Usage for mesh_config_entry_available_id 0x8 bytes.
Stack Usage for mesh_config_entry_set 0x18 bytes.
Stack Usage for mesh_config_entry_get 0x10 bytes.
Stack Usage for mesh_config_entry_delete 0x10 bytes.
Stack Usage for mesh_config_power_down_time_get 0x0 bytes.
Stack Usage for mesh_config_clear 0x10 bytes.
Stack Usage for mesh_config_backend_init 0x20 bytes.
Stack Usage for mesh_config_backend_store 0x18 bytes.
Stack Usage for mesh_config_backend_erase 0x10 bytes.
Stack Usage for mesh_config_backend_read 0x18 bytes.
Stack Usage for mesh_config_backend_read_all 0x10 bytes.
Stack Usage for mesh_config_backend_power_down_time_get 0x0 bytes.
Stack Usage for mesh_config_backend_glue_init 0x8 bytes.
Stack Usage for mesh_config_backend_file_create 0x30 bytes.
Stack Usage for mesh_config_backend_record_write 0x10 bytes.
Stack Usage for mesh_config_backend_record_erase 0x10 bytes.
Stack Usage for mesh_config_backend_record_read 0x10 bytes.
Stack Usage for mesh_config_backend_records_read 0x18 bytes.
Stack Usage for mesh_config_record_size_calculate 0x0 bytes.
Stack Usage for mesh_config_backend_flash_usage_get 0x8 bytes.
Stack Usage for mesh_config_backend_file_power_down_time_get 0x0 bytes.
Stack Usage for core_tx_local_init 0x8 bytes.
Stack Usage for mesh_opt_core_adv_set 0x0 bytes.
Stack Usage for mesh_opt_core_adv_get 0x0 bytes.
Stack Usage for mesh_opt_core_adv_delete 0x0 bytes.
Stack Usage for mesh_opt_core_adv_addr_set 0x0 bytes.
Stack Usage for mesh_opt_core_adv_addr_get 0x0 bytes.
Stack Usage for mesh_opt_core_adv_addr_delete 0x0 bytes.
Stack Usage for mesh_opt_core_tx_power_set 0x10 bytes.
Stack Usage for mesh_opt_core_tx_power_get 0x0 bytes.
Stack Usage for mesh_opt_core_tx_power_delete 0x0 bytes.
Stack Usage for core_tx_adv_init 0x10 bytes.
Stack Usage for core_tx_adv_is_enabled 0x8 bytes.
Stack Usage for mesh_mem_init 0x0 bytes.
Stack Usage for mesh_mem_alloc 0x0 bytes.
Stack Usage for mesh_mem_free 0x0 bytes.
Stack Usage for mesh_mem_calloc 0x0 bytes.
Stack Usage for ad_listener_subscribe 0x10 bytes.
Stack Usage for ad_listener_unsubscribe 0x10 bytes.
Stack Usage for ad_listener_process 0x18 bytes.
Stack Usage for bearer_adtype_filtering_set 0x0 bytes.
Stack Usage for bearer_adtype_add 0x8 bytes.
Stack Usage for bearer_adtype_remove 0x8 bytes.
Stack Usage for bearer_adtype_clear 0x0 bytes.
Stack Usage for bearer_adtype_mode_set 0x8 bytes.
Stack Usage for bearer_invalid_length_amount_get 0x0 bytes.
Stack Usage for bearer_adtype_filtered_amount_get 0x0 bytes.
Stack Usage for advertiser_address_default_get 0x8 bytes.
Stack Usage for advertiser_init 0x0 bytes.
Stack Usage for advertiser_instance_init 0x18 bytes.
Stack Usage for advertiser_enable 0x8 bytes.
Stack Usage for advertiser_disable 0x0 bytes.
Stack Usage for advertiser_packet_alloc 0x10 bytes.
Stack Usage for advertiser_packet_send 0x10 bytes.
Stack Usage for advertiser_packet_discard 0x10 bytes.
Stack Usage for advertiser_interval_set 0x10 bytes.
Stack Usage for advertiser_address_set 0x10 bytes.
Stack Usage for advertiser_channels_set 0x10 bytes.
Stack Usage for advertiser_config_set 0x10 bytes.
Stack Usage for advertiser_config_get 0x10 bytes.
Stack Usage for advertiser_tx_power_set 0x10 bytes.
Stack Usage for advertiser_flush 0x8 bytes.
Stack Usage for TIMER2_IRQHandler 0x8 bytes.
Stack Usage for bearer_handler_init 0x8 bytes.
Stack Usage for bearer_handler_wake_up 0x8 bytes.
Stack Usage for bearer_handler_start 0x8 bytes.
Stack Usage for bearer_handler_stop 0x8 bytes.
Stack Usage for bearer_handler_action_enqueue 0x8 bytes.
Stack Usage for bearer_handler_action_fire 0x8 bytes.
Stack Usage for bearer_handler_action_end 0x8 bytes.
Stack Usage for bearer_handler_radio_irq_handler 0x8 bytes.
Stack Usage for bearer_handler_timer_irq_handler 0x8 bytes.
Stack Usage for bearer_handler_on_ts_begin 0x8 bytes.
Stack Usage for bearer_handler_on_ts_end 0x8 bytes.
Stack Usage for bearer_handler_on_ts_session_closed 0x0 bytes.
Stack Usage for broadcast_send 0x8 bytes.
Stack Usage for fen_filter_start 0x8 bytes.
Stack Usage for fen_filter_stop 0x8 bytes.
Stack Usage for fen_filters_apply 0x18 bytes.
Stack Usage for fen_accepted_amount_get 0x8 bytes.
Stack Usage for radio_config_reset 0x0 bytes.
Stack Usage for radio_config_channel_set 0x8 bytes.
Stack Usage for radio_config_config 0x8 bytes.
Stack Usage for radio_config_access_addr_set 0x10 bytes.
Stack Usage for radio_config_access_addr_get 0x10 bytes.
Stack Usage for scanner_radio_start 0x8 bytes.
Stack Usage for scanner_radio_stop 0x0 bytes.
Stack Usage for scanner_radio_irq_handler 0x8 bytes.
Stack Usage for scanner_timer_irq_handler 0x8 bytes.
Stack Usage for scanner_config_scan_time_set 0x10 bytes.
Stack Usage for scanner_config_radio_mode_set 0x0 bytes.
Stack Usage for scanner_config_access_addresses_set 0x10 bytes.
Stack Usage for scanner_config_channels_set 0x20 bytes.
Stack Usage for scanner_config_reset 0x10 bytes.
Stack Usage for scanner_init 0x10 bytes.
Stack Usage for scanner_rx_callback_set 0x10 bytes.
Stack Usage for scanner_enable 0x8 bytes.
Stack Usage for scanner_disable 0x8 bytes.
Stack Usage for scanner_is_enabled 0x0 bytes.
Stack Usage for scanner_packet_release 0x8 bytes.
Stack Usage for scanner_rx 0x10 bytes.
Stack Usage for scanner_stats_get 0x0 bytes.
Stack Usage for scanner_rx_pending 0x0 bytes.
Stack Usage for mesh_pa_lna_gpiote_enable 0x8 bytes.
Stack Usage for mesh_pa_lna_cleanup 0x8 bytes.
Stack Usage for mesh_pa_lna_gpiote_disable 0x8 bytes.
Stack Usage for mesh_pa_lna_gpiote_params_get 0x0 bytes.
Stack Usage for mesh_pa_setup_start 0x10 bytes.
Stack Usage for mesh_lna_setup_start 0x10 bytes.
Stack Usage for mesh_pa_lna_disable_start 0x0 bytes.
Stack Usage for mesh_pa_lna_setup_stop 0x8 bytes.
Stack Usage for RTC1_IRQHandler 0x10 bytes.
Stack Usage for SWI0_EGU0_IRQHandler 0x0 bytes.
Stack Usage for app_timer_init 0x18 bytes.
Stack Usage for app_timer_create 0x0 bytes.
Stack Usage for app_timer_start 0x28 bytes.
Stack Usage for app_timer_stop 0x0 bytes.
Stack Usage for app_timer_stop_all 0x0 bytes.
Stack Usage for app_timer_cnt_get 0x0 bytes.
Stack Usage for app_timer_cnt_diff_compute 0x0 bytes.
Stack Usage for app_timer_pause 0x0 bytes.
Stack Usage for app_timer_resume 0x0 bytes.
Stack Usage for is_app_timer_init 0x0 bytes.
Stack Usage for SystemCoreClockUpdate 0x0 bytes.
Stack Usage for SystemInit 0xc bytes.
Stack Usage for Reset_Handler 0x0 bytes.
Stack Usage for NMI_Handler 0x0 bytes.
Stack Usage for HardFault_Handler 0x0 bytes.
Stack Usage for MemoryManagement_Handler 0x0 bytes.
Stack Usage for BusFault_Handler 0x0 bytes.
Stack Usage for UsageFault_Handler 0x0 bytes.
Stack Usage for SVC_Handler 0x0 bytes.
Stack Usage for DebugMon_Handler 0x0 bytes.
Stack Usage for PendSV_Handler 0x0 bytes.
Stack Usage for SysTick_Handler 0x0 bytes.
Stack Usage for CCM_AAR_IRQHandler 0x0 bytes.
Stack Usage for COMP_LPCOMP_IRQHandler 0x0 bytes.
Stack Usage for CRYPTOCELL_IRQHandler 0x0 bytes.
Stack Usage for ECB_IRQHandler 0x0 bytes.
Stack Usage for FPU_IRQHandler 0x0 bytes.
Stack Usage for I2S_IRQHandler 0x0 bytes.
Stack Usage for MWU_IRQHandler 0x0 bytes.
Stack Usage for NFCT_IRQHandler 0x0 bytes.
Stack Usage for PDM_IRQHandler 0x0 bytes.
Stack Usage for POWER_CLOCK_IRQHandler 0x0 bytes.
Stack Usage for PWM0_IRQHandler 0x0 bytes.
Stack Usage for PWM1_IRQHandler 0x0 bytes.
Stack Usage for PWM2_IRQHandler 0x0 bytes.
Stack Usage for PWM3_IRQHandler 0x0 bytes.
Stack Usage for QSPI_IRQHandler 0x0 bytes.
Stack Usage for RADIO_IRQHandler 0x0 bytes.
Stack Usage for RNG_IRQHandler 0x0 bytes.
Stack Usage for RTC0_IRQHandler 0x0 bytes.
Stack Usage for RTC2_IRQHandler 0x0 bytes.
Stack Usage for SAADC_IRQHandler 0x0 bytes.
Stack Usage for SPIM0_SPIS0_TWIM0_TWIS0_SPI0_TWI0_IRQHandler 0x0 bytes.
Stack Usage for SPIM1_SPIS1_TWIM1_TWIS1_SPI1_TWI1_IRQHandler 0x0 bytes.
Stack Usage for SPIM2_SPIS2_SPI2_IRQHandler 0x0 bytes.
Stack Usage for SPIM3_IRQHandler 0x0 bytes.
Stack Usage for SWI1_EGU1_IRQHandler 0x0 bytes.
Stack Usage for SWI3_EGU3_IRQHandler 0x0 bytes.
Stack Usage for SWI4_EGU4_IRQHandler 0x0 bytes.
Stack Usage for SWI5_EGU5_IRQHandler 0x0 bytes.
Stack Usage for TEMP_IRQHandler 0x0 bytes.
Stack Usage for TIMER0_IRQHandler 0x0 bytes.
Stack Usage for TIMER1_IRQHandler 0x0 bytes.
Stack Usage for TIMER3_IRQHandler 0x0 bytes.
Stack Usage for TIMER4_IRQHandler 0x0 bytes.
Stack Usage for UARTE1_IRQHandler 0x0 bytes.
Stack Usage for USBD_IRQHandler 0x0 bytes.
Stack Usage for WDT_IRQHandler 0x0 bytes.
Stack Usage for __user_initial_stackheap 0x0 bytes.
Stack Usage for app_error_handler_bare 0x10 bytes.
Stack Usage for app_error_save_and_stop 0x8 bytes.
Stack Usage for uECC_set_rng 0x0 bytes.
Stack Usage for uECC_get_rng 0x0 bytes.
Stack Usage for uECC_curve_private_key_size 0x0 bytes.
Stack Usage for uECC_curve_public_key_size 0x0 bytes.
Stack Usage for uECC_secp256r1 0x0 bytes.
Stack Usage for uECC_make_key 0x78 bytes.
Stack Usage for uECC_shared_secret 0xb0 bytes.
Stack Usage for uECC_valid_point 0x58 bytes.
Stack Usage for uECC_valid_public_key 0x50 bytes.
Stack Usage for uECC_compute_public_key 0x70 bytes.
Stack Usage for uECC_sign 0x48 bytes.
Stack Usage for uECC_sign_deterministic 0x60 bytes.
Stack Usage for uECC_verify 0x210 bytes.
Stack Usage for SEGGER_RTT_ReadNoLock 0x20 bytes.
Stack Usage for SEGGER_RTT_Read 0x0 bytes.
Stack Usage for SEGGER_RTT_WriteSkipNoLock 0x18 bytes.
Stack Usage for SEGGER_RTT_WriteNoLock 0x10 bytes.
Stack Usage for SEGGER_RTT_Write 0x10 bytes.
Stack Usage for SEGGER_RTT_WriteString 0x10 bytes.
Stack Usage for SEGGER_RTT_GetKey 0x8 bytes.
Stack Usage for SEGGER_RTT_WaitKey 0x8 bytes.
Stack Usage for SEGGER_RTT_HasKey 0x8 bytes.
Stack Usage for SEGGER_RTT_HasData 0x0 bytes.
Stack Usage for SEGGER_RTT_AllocDownBuffer 0x18 bytes.
Stack Usage for SEGGER_RTT_AllocUpBuffer 0x18 bytes.
Stack Usage for SEGGER_RTT_ConfigUpBuffer 0x20 bytes.
Stack Usage for SEGGER_RTT_ConfigDownBuffer 0x20 bytes.
Stack Usage for SEGGER_RTT_SetNameUpBuffer 0x10 bytes.
Stack Usage for SEGGER_RTT_SetNameDownBuffer 0x10 bytes.
Stack Usage for SEGGER_RTT_Init 0x0 bytes.
Stack Usage for SEGGER_RTT_SetTerminal 0x20 bytes.
Stack Usage for SEGGER_RTT_TerminalOut 0x20 bytes.
Stack Usage for SEGGER_RTT_vprintf 0x78 bytes.
Stack Usage for SEGGER_RTT_printf 0x18 bytes.
Stack Usage for calloc 0x10 bytes.
Stack Usage for malloc 0x10 bytes.
Stack Usage for free 0x10 bytes.
Stack Usage for __aeabi_uldivmod 0x30 bytes.
Stack Usage for _ll_udiv 0x30 bytes.
Stack Usage for memcmp 0x8 bytes.
Stack Usage for strcpy 0xc bytes.
Stack Usage for strlen 0x8 bytes.
Stack Usage for __aeabi_memcpy 0x0 bytes.
Stack Usage for __rt_memcpy 0x0 bytes.
Stack Usage for _memcpy_lastbytes unknown bytes.
Stack Usage for __aeabi_memcpy4 0x8 bytes.
Stack Usage for __aeabi_memcpy8 0x8 bytes.
Stack Usage for __rt_memcpy_w 0x8 bytes.
Stack Usage for _memcpy_lastbytes_aligned unknown bytes.
Stack Usage for __aeabi_memclr 0x0 bytes.
Stack Usage for __rt_memclr 0x0 bytes.
Stack Usage for _memset unknown bytes.
Stack Usage for __aeabi_memclr4 0x4 bytes.
Stack Usage for __aeabi_memclr8 0x4 bytes.
Stack Usage for __rt_memclr_w 0x4 bytes.
Stack Usage for _memset_w unknown bytes.
Stack Usage for __use_two_region_memory 0x0 bytes.
Stack Usage for __rt_heap_escrow 0x0 bytes.
Stack Usage for __rt_heap_expand 0x0 bytes.
Stack Usage for __rt_heap_descriptor 0x0 bytes.
Stack Usage for __use_no_heap 0x0 bytes.
Stack Usage for __heap$guard 0x0 bytes.
Stack Usage for _terminate_user_alloc 0x0 bytes.
Stack Usage for _init_user_alloc 0x0 bytes.
Stack Usage for __Heap_Full 0x10 bytes.
Stack Usage for __Heap_Broken 0x0 bytes.
Stack Usage for _init_alloc 0x18 bytes.
Stack Usage for __Heap_Initialize 0x0 bytes.
Stack Usage for __Heap_DescSize 0x0 bytes.
Stack Usage for __user_libspace 0x0 bytes.
Stack Usage for __user_perproc_libspace 0x0 bytes.
Stack Usage for __user_perthread_libspace 0x0 bytes.
Stack Usage for __Heap_ProvideMemory 0x0 bytes.
Stack Usage for __rt_SIGRTMEM 0x8 bytes.
Stack Usage for __I$use$semihosting 0x0 bytes.
Stack Usage for __use_no_semihosting_swi 0x0 bytes.
Stack Usage for __semihosting_library_function 0x8 bytes.
Stack Usage for __user_setup_stackheap 0x8 bytes.
Stack Usage for exit 0x8 bytes.
Stack Usage for __sig_exit 0x0 bytes.
Stack Usage for __rt_SIGRTMEM_inner 0x8 bytes.
Stack Usage for _sys_exit 0x0 bytes.
Stack Usage for __default_signal_display 0x10 bytes.
Stack Usage for _ttywrch 0x8 bytes.
Stack Usage for _fp_init 0x0 bytes.
Stack Usage for __fplib_config_fpu_vfp unknown bytes.
Stack Usage for __fplib_config_pureend_doubles unknown bytes.
Stack Usage for mesh_init 0x38 bytes.
Stack Usage for initialize 0x18 bytes.
Stack Usage for start 0x8 bytes.
Stack Usage for led_timeout_handler 0x10 bytes.
Stack Usage for on_sd_evt 0x0 bytes.
Stack Usage for nrf_section_iter_item_set 0x8 bytes.
Stack Usage for nrf_sdh_soc_evts_poll 0x18 bytes.
Stack Usage for nrf_sdh_ble_evts_poll 0x50 bytes.
Stack Usage for __sd_nvic_app_accessible_irq 0x0 bytes.
Stack Usage for sdh_request_observer_notify 0x18 bytes.
Stack Usage for softdevices_evt_irq_enable 0x8 bytes.
Stack Usage for softdevice_evt_irq_disable 0x8 bytes.
Stack Usage for sdh_state_observer_notify 0x18 bytes.
Stack Usage for request_authentication 0x30 bytes.
Stack Usage for start_authentication 0x30 bytes.
Stack Usage for prov_provisioner_cb_link_established 0x28 bytes.
Stack Usage for prov_provisioner_cb_ack_received 0x30 bytes.
Stack Usage for prov_provisioner_cb_link_closed 0x28 bytes.
Stack Usage for prov_provisioner_pkt_in 0x30 bytes.
Stack Usage for send_data 0x78 bytes.
Stack Usage for send_confirmation 0x18 bytes.
Stack Usage for send_failed 0x30 bytes.
Stack Usage for request_authentication 0x38 bytes.
Stack Usage for start_authentication 0x28 bytes.
Stack Usage for prov_provisionee_pkt_in 0x40 bytes.
Stack Usage for prov_provisionee_cb_ack_received 0x10 bytes.
Stack Usage for prov_provisionee_cb_link_established 0x30 bytes.
Stack Usage for prov_provisionee_cb_link_closed 0x30 bytes.
Stack Usage for handle_prov_start 0x8 bytes.
Stack Usage for handle_data 0x58 bytes.
Stack Usage for complete_provisioning 0x28 bytes.
Stack Usage for bitfield_next_get 0xc bytes.
Stack Usage for bearer_compare_callback 0x0 bytes.
Stack Usage for utils_reverse_array 0xc bytes.
Stack Usage for prov_bearer_find 0x0 bytes.
Stack Usage for send_data 0x10 bytes.
Stack Usage for ecdh_setter 0x0 bytes.
Stack Usage for ecdh_getter 0x0 bytes.
Stack Usage for ecdh_deleter 0x0 bytes.
Stack Usage for create_confirmation_salt 0xa8 bytes.
Stack Usage for oob_gen_count 0x10 bytes.
Stack Usage for oob_gen_numeric 0x10 bytes.
Stack Usage for oob_gen_alphanumeric 0x20 bytes.
Stack Usage for link_timeout_cb 0x0 bytes.
Stack Usage for tx_complete_cb 0x0 bytes.
Stack Usage for send_packet 0x18 bytes.
Stack Usage for prov_buffer_tx 0x10 bytes.
Stack Usage for send_link_close 0x28 bytes.
Stack Usage for tx_retry_cb 0x18 bytes.
Stack Usage for init_bearer_structure 0x0 bytes.
Stack Usage for add_active_bearer 0x10 bytes.
Stack Usage for remove_active_bearer 0x18 bytes.
Stack Usage for send_link_ack 0x28 bytes.
Stack Usage for prov_buffer_rx 0x58 bytes.
Stack Usage for close_link 0x10 bytes.
Stack Usage for prov_bearer_adv_link_close 0x10 bytes.
Stack Usage for handle_transaction_start_packet 0x20 bytes.
Stack Usage for handle_transaction_continuation_packet 0x20 bytes.
Stack Usage for handle_transaction_ack_packet 0x18 bytes.
Stack Usage for handle_control_packet 0x28 bytes.
Stack Usage for async_process 0x10 bytes.
Stack Usage for prov_bearer_adv_listen 0x18 bytes.
Stack Usage for prov_bearer_adv_listen_stop 0x8 bytes.
Stack Usage for prov_bearer_adv_link_open 0x30 bytes.
Stack Usage for prov_bearer_adv_tx 0x18 bytes.
Stack Usage for reset_timeout_timer 0x8 bytes.
Stack Usage for transaction_total_segment_count_get 0x0 bytes.
Stack Usage for send_transaction_continuation 0x30 bytes.
Stack Usage for send_transaction_start 0x30 bytes.
Stack Usage for send_transaction_ack 0x28 bytes.
Stack Usage for add_to_publication_list 0x10 bytes.
Stack Usage for calculate_next_timestamp 0x10 bytes.
Stack Usage for schedule_publication_timer 0x10 bytes.
Stack Usage for publish_timer_tick 0x8 bytes.
Stack Usage for step_resolution_to_us 0x8 bytes.
Stack Usage for trigger_publication_timers 0x18 bytes.
Stack Usage for get_next_timeout_index 0x10 bytes.
Stack Usage for message_remove 0x10 bytes.
Stack Usage for retransmissions_timer_cb 0x20 bytes.
Stack Usage for message_add 0x18 bytes.
Stack Usage for is_valid_opcode 0x0 bytes.
Stack Usage for mesh_msg_handle 0x160 bytes.
Stack Usage for mesh_evt_cb 0x0 bytes.
Stack Usage for check_tx_params 0x18 bytes.
Stack Usage for packet_tx 0x168 bytes.
Stack Usage for packet_alloc_and_tx 0x30 bytes.
Stack Usage for access_state_clear 0x10 bytes.
Stack Usage for access_publish_timing_update 0x20 bytes.
Stack Usage for bitfield_get 0x0 bytes.
Stack Usage for bitfield_set 0x8 bytes.
Stack Usage for bitfield_clear 0x8 bytes.
Stack Usage for access_utils_opcode_size_get 0x0 bytes.
Stack Usage for element_has_model_id 0x14 bytes.
Stack Usage for model_handle_valid_and_allocated 0x0 bytes.
Stack Usage for model_subscribes_to_addr 0x8 bytes.
Stack Usage for divide_publish_interval 0x18 bytes.
Stack Usage for reliable_timer_cb 0x30 bytes.
Stack Usage for find_index 0x10 bytes.
Stack Usage for add_reliable_message 0x18 bytes.
Stack Usage for remove_and_reschedule 0x18 bytes.
Stack Usage for available_context_get 0x18 bytes.
Stack Usage for calculate_interval 0x10 bytes.
Stack Usage for bitfield_next_get 0xc bytes.
Stack Usage for virtual_address_uuid_index_get 0x18 bytes.
Stack Usage for net_key_handle_get 0x18 bytes.
Stack Usage for dev_key_handle_get 0x18 bytes.
Stack Usage for app_key_handle_get 0x18 bytes.
Stack Usage for get_subnet_handle 0x10 bytes.
Stack Usage for get_subnet_handle_by_beacon_info 0x8 bytes.
Stack Usage for get_app_handle 0x8 bytes.
Stack Usage for app_tx_secmat_get 0x18 bytes.
Stack Usage for subnet_set 0x20 bytes.
Stack Usage for address_delete_if_unused 0x10 bytes.
Stack Usage for add_address 0x28 bytes.
Stack Usage for add_address_virtual 0x28 bytes.
Stack Usage for mesh_evt_handler 0x10 bytes.
Stack Usage for bitfield_get 0x0 bytes.
Stack Usage for bitfield_set 0x8 bytes.
Stack Usage for bitfield_clear 0x8 bytes.
Stack Usage for bitfield_clear_all 0x0 bytes.
Stack Usage for address_handle_nonvirtual_valid 0x8 bytes.
Stack Usage for address_handle_virtual_valid 0x8 bytes.
Stack Usage for address_handle_valid 0x8 bytes.
Stack Usage for address_exists 0x18 bytes.
Stack Usage for rx_group_address_get 0x20 bytes.
Stack Usage for rx_virtual_address_get 0x20 bytes.
Stack Usage for get_net_secmat_by_nid 0x20 bytes.
Stack Usage for appkey_set 0x20 bytes.
Stack Usage for devkey_set 0x20 bytes.
Stack Usage for model_id_extract 0x0 bytes.
Stack Usage for send_reply 0x28 bytes.
Stack Usage for send_publication_status 0x58 bytes.
Stack Usage for status_error_pub_send 0x28 bytes.
Stack Usage for status_error_sub_send 0x28 bytes.
Stack Usage for delete_all_subscriptions 0x18 bytes.
Stack Usage for send_subscription_status 0x28 bytes.
Stack Usage for get_subscription_list 0x18 bytes.
Stack Usage for config_server_heartbeat_publication_params_get 0x18 bytes.
Stack Usage for handle_appkey_add 0x38 bytes.
Stack Usage for handle_appkey_update 0x38 bytes.
Stack Usage for handle_appkey_delete 0x30 bytes.
Stack Usage for handle_appkey_get 0x40 bytes.
Stack Usage for handle_config_beacon_set 0x18 bytes.
Stack Usage for handle_config_beacon_get 0x0 bytes.
Stack Usage for handle_composition_data_get 0x30 bytes.
Stack Usage for handle_config_default_ttl_get 0x18 bytes.
Stack Usage for handle_config_default_ttl_set 0x20 bytes.
Stack Usage for handle_config_friend_get 0x18 bytes.
Stack Usage for handle_config_friend_set 0x18 bytes.
Stack Usage for handle_config_gatt_proxy_get 0x18 bytes.
Stack Usage for handle_config_gatt_proxy_set 0x18 bytes.
Stack Usage for handle_config_key_refresh_phase_get 0x20 bytes.
Stack Usage for handle_config_key_refresh_phase_set 0x28 bytes.
Stack Usage for handle_config_model_publication_get 0x20 bytes.
Stack Usage for handle_config_model_publication_set 0x50 bytes.
Stack Usage for handle_config_model_subscription_add 0x38 bytes.
Stack Usage for handle_config_model_subscription_delete 0x40 bytes.
Stack Usage for handle_config_model_subscription_delete_all 0x30 bytes.
Stack Usage for handle_config_model_subscription_overwrite 0x38 bytes.
Stack Usage for handle_config_model_subscription_virtual_address_add 0x40 bytes.
Stack Usage for handle_config_model_subscription_virtual_address_delete 0x40 bytes.
Stack Usage for handle_config_model_subscription_virtual_address_overwrite 0x40 bytes.
Stack Usage for send_relay_status 0x20 bytes.
Stack Usage for handle_config_relay_get 0x0 bytes.
Stack Usage for handle_config_relay_set 0x20 bytes.
Stack Usage for send_network_transmit_status 0x20 bytes.
Stack Usage for handle_config_network_transmit_get 0x0 bytes.
Stack Usage for handle_config_network_transmit_set 0x20 bytes.
Stack Usage for handle_config_sig_model_subscription_get 0xd0 bytes.
Stack Usage for handle_config_vendor_model_subscription_get 0xd8 bytes.
Stack Usage for heartbeat_subscription_count_encode 0x8 bytes.
Stack Usage for handle_heartbeat_publication_get 0x28 bytes.
Stack Usage for handle_heartbeat_publication_set 0x40 bytes.
Stack Usage for handle_heartbeat_subscription_get 0x28 bytes.
Stack Usage for handle_heartbeat_subscription_set 0x40 bytes.
Stack Usage for handle_model_app_bind_unbind 0x60 bytes.
Stack Usage for handle_netkey_add_update 0x20 bytes.
Stack Usage for handle_netkey_delete 0x38 bytes.
Stack Usage for handle_netkey_get 0x38 bytes.
Stack Usage for handle_node_identity_get 0x18 bytes.
Stack Usage for handle_node_identity_set 0x18 bytes.
Stack Usage for handle_node_reset 0x18 bytes.
Stack Usage for model_app_response_create 0x18 bytes.
Stack Usage for handle_model_app_get 0x60 bytes.
Stack Usage for mesh_event_cb 0x18 bytes.
Stack Usage for log2_get 0x0 bytes.
Stack Usage for config_msg_key_index_24_get 0x8 bytes.
Stack Usage for app_evt_send 0x0 bytes.
Stack Usage for send_net_beacon_state 0x18 bytes.
Stack Usage for send_appkey_status 0x28 bytes.
Stack Usage for send_netkey_status 0x18 bytes.
Stack Usage for get_element_index 0x10 bytes.
Stack Usage for heartbeat_pubsub_period_decode 0x0 bytes.
Stack Usage for heartbeat_pubsub_period_encode 0x8 bytes.
Stack Usage for bitfield_next_get 0xc bytes.
Stack Usage for health_server_fpd_set 0x10 bytes.
Stack Usage for health_server_fpd_get 0x0 bytes.
Stack Usage for health_server_fpd_delete 0x0 bytes.
Stack Usage for send_fault_status 0x138 bytes.
Stack Usage for health_publish_timeout_handler 0x0 bytes.
Stack Usage for attention_timer_handler 0x10 bytes.
Stack Usage for attention_timer_set 0x10 bytes.
Stack Usage for send_attention_status 0x20 bytes.
Stack Usage for send_period_status 0x20 bytes.
Stack Usage for handle_fault_get 0x10 bytes.
Stack Usage for handle_fault_clear 0x10 bytes.
Stack Usage for handle_fault_test 0x18 bytes.
Stack Usage for handle_period_get 0x0 bytes.
Stack Usage for handle_period_set 0x18 bytes.
Stack Usage for handle_attention_set 0x10 bytes.
Stack Usage for handle_attention_get 0x0 bytes.
Stack Usage for bitfield_set 0x8 bytes.
Stack Usage for bitfield_clear_all 0x0 bytes.
Stack Usage for attention_timer_add 0x8 bytes.
Stack Usage for nrf_gpio_pin_port_decode 0x0 bytes.
Stack Usage for nrf_gpio_cfg_output 0x10 bytes.
Stack Usage for nrf_gpio_cfg_input 0x10 bytes.
Stack Usage for nrf_gpio_cfg 0x28 bytes.
Stack Usage for char_rx 0x10 bytes.
Stack Usage for char_tx 0x8 bytes.
Stack Usage for do_transmit 0x8 bytes.
Stack Usage for schedule_transmit 0x0 bytes.
Stack Usage for end_reception 0x10 bytes.
Stack Usage for char_rx_first_byte 0x10 bytes.
Stack Usage for char_tx_simple 0x8 bytes.
Stack Usage for send_cmd_response 0x10 bytes.
Stack Usage for model_pub_addr_set 0x8 bytes.
Stack Usage for model_pub_addr_get 0x10 bytes.
Stack Usage for model_pub_period_set 0x8 bytes.
Stack Usage for model_pub_period_get 0x10 bytes.
Stack Usage for model_subs_add 0x10 bytes.
Stack Usage for model_subs_remove 0x10 bytes.
Stack Usage for model_subs_get 0x108 bytes.
Stack Usage for model_app_bind 0x10 bytes.
Stack Usage for model_app_unbind 0x10 bytes.
Stack Usage for model_app_get 0x108 bytes.
Stack Usage for model_pub_app_set 0x10 bytes.
Stack Usage for model_pub_app_get 0x10 bytes.
Stack Usage for model_pub_ttl_set 0x10 bytes.
Stack Usage for model_pub_ttl_get 0x10 bytes.
Stack Usage for elem_loc_set 0x10 bytes.
Stack Usage for elem_loc_get 0x10 bytes.
Stack Usage for elem_sig_model_cnt_get 0x10 bytes.
Stack Usage for elem_vendor_model_cnt_get 0x10 bytes.
Stack Usage for model_id_get 0x10 bytes.
Stack Usage for handle_get 0x10 bytes.
Stack Usage for elem_models_get 0x108 bytes.
Stack Usage for access_flash_store 0x8 bytes.
Stack Usage for serial_process_cmd 0x110 bytes.
Stack Usage for serial_handler_prov_evt_in 0x18 bytes.
Stack Usage for find_context_id 0x0 bytes.
Stack Usage for serial_handler_mesh_evt_handle 0x10 bytes.
Stack Usage for handle_cmd_enable 0x8 bytes.
Stack Usage for handle_cmd_disable 0x8 bytes.
Stack Usage for handle_cmd_subnet_add 0x10 bytes.
Stack Usage for handle_cmd_subnet_update 0x10 bytes.
Stack Usage for handle_cmd_subnet_delete 0x10 bytes.
Stack Usage for handle_cmd_subnet_get_all 0x108 bytes.
Stack Usage for handle_cmd_subnet_count_max_get 0x8 bytes.
Stack Usage for handle_cmd_appkey_add 0x10 bytes.
Stack Usage for handle_cmd_appkey_update 0x10 bytes.
Stack Usage for handle_cmd_appkey_delete 0x10 bytes.
Stack Usage for handle_cmd_appkey_get_all 0x108 bytes.
Stack Usage for handle_cmd_appkey_count_max_get 0x8 bytes.
Stack Usage for handle_cmd_devkey_add 0x10 bytes.
Stack Usage for handle_cmd_devkey_delete 0x10 bytes.
Stack Usage for handle_cmd_devkey_count_max_get 0x8 bytes.
Stack Usage for handle_cmd_addr_local_unicast_set 0x10 bytes.
Stack Usage for handle_cmd_addr_local_unicast_get 0x10 bytes.
Stack Usage for handle_cmd_addr_get 0x30 bytes.
Stack Usage for handle_cmd_addr_get_all 0x108 bytes.
Stack Usage for handle_cmd_addr_nonvirtual_count_max_get 0x8 bytes.
Stack Usage for handle_cmd_addr_virtual_count_max_get 0x8 bytes.
Stack Usage for handle_cmd_addr_subscription_add 0x10 bytes.
Stack Usage for handle_cmd_addr_subscription_add_virtual 0x10 bytes.
Stack Usage for handle_cmd_addr_subscription_remove 0x10 bytes.
Stack Usage for handle_cmd_addr_publication_add 0x10 bytes.
Stack Usage for handle_cmd_addr_publication_add_virtual 0x10 bytes.
Stack Usage for handle_cmd_addr_publication_remove 0x10 bytes.
Stack Usage for handle_cmd_packet_send 0x38 bytes.
Stack Usage for handle_cmd_clear 0x8 bytes.
Stack Usage for serial_handler_mesh_evt_handle 0x18 bytes.
Stack Usage for registered_model_get 0x10 bytes.
Stack Usage for models_get 0x110 bytes.
Stack Usage for model_init 0x18 bytes.
Stack Usage for model_command 0x110 bytes.
Stack Usage for handle_cmd_device_echo 0x10 bytes.
Stack Usage for handle_cmd_device_internal_events_report 0x0 bytes.
Stack Usage for handle_cmd_device_serial_version_get 0x8 bytes.
Stack Usage for handle_cmd_device_fw_info_get 0x0 bytes.
Stack Usage for handle_cmd_device_radio_reset 0x8 bytes.
Stack Usage for handle_cmd_device_beacon_start 0x18 bytes.
Stack Usage for handle_cmd_device_beacon_stop 0x18 bytes.
Stack Usage for handle_cmd_device_beacon_params_get 0x20 bytes.
Stack Usage for handle_cmd_device_beacon_params_set 0x18 bytes.
Stack Usage for handle_cmd_hk_data_get 0x8 bytes.
Stack Usage for handle_cmd_hk_data_clear 0x0 bytes.
Stack Usage for seqauth_get 0x8 bytes.
Stack Usage for replay_list_add 0x40 bytes.
Stack Usage for sar_rx_session_mark_as_handled 0x10 bytes.
Stack Usage for sar_ctx_free 0x8 bytes.
Stack Usage for sar_ctx_cancel 0x18 bytes.
Stack Usage for abort_timeout 0x0 bytes.
Stack Usage for upper_trs_packet_encrypt 0x48 bytes.
Stack Usage for trs_packet_header_build 0x8 bytes.
Stack Usage for upper_trs_packet_alloc 0x10 bytes.
Stack Usage for tx_retry_timer_reset 0x10 bytes.
Stack Usage for trs_sar_packet_out 0x18 bytes.
Stack Usage for segmented_packet_tx 0x128 bytes.
Stack Usage for transport_metadata_validate 0x8 bytes.
Stack Usage for upper_transport_tx 0x10 bytes.
Stack Usage for sar_ack_send 0x40 bytes.
Stack Usage for ack_timeout 0x8 bytes.
Stack Usage for retry_timeout 0x8 bytes.
Stack Usage for sar_ctx_alloc 0x18 bytes.
Stack Usage for sar_rx_ctx_get 0x50 bytes.
Stack Usage for test_transport_decrypt 0x10 bytes.
Stack Usage for upper_trs_packet_decrypt 0x58 bytes.
Stack Usage for control_packet_callback_get 0x14 bytes.
Stack Usage for segack_packet_in 0x20 bytes.
Stack Usage for upper_transport_packet_in 0x38 bytes.
Stack Usage for trs_seg_packet_in 0x28 bytes.
Stack Usage for transport_sar_process 0x18 bytes.
Stack Usage for transport_metadata_build 0x18 bytes.
Stack Usage for tx_complete 0x30 bytes.
Stack Usage for block_ack_full 0x8 bytes.
Stack Usage for seqauth_sequence_number_get 0x0 bytes.
Stack Usage for m_send_sar_cancel_event 0x38 bytes.
Stack Usage for tx_retry_timer_delay_get 0x0 bytes.
Stack Usage for unsegmented_packet_tx 0x30 bytes.
Stack Usage for sar_segment_send 0x38 bytes.
Stack Usage for trs_sar_rx_pending_ack_send 0x8 bytes.
Stack Usage for sar_ctx_tx_complete 0x38 bytes.
Stack Usage for sar_active_tx_ctx_get 0x10 bytes.
Stack Usage for upper_transport_access_packet_in 0x1c0 bytes.
Stack Usage for transport_metadata_from_tx_params 0x10 bytes.
Stack Usage for m_index_increment 0x0 bytes.
Stack Usage for m_get_next_packet 0x10 bytes.
Stack Usage for m_reset_buffer 0x0 bytes.
Stack Usage for m_prepare_for_reserve 0x8 bytes.
Stack Usage for get_next_entry 0x8 bytes.
Stack Usage for check_for_invalid_entries 0x8 bytes.
Stack Usage for erase_recovery_area 0x8 bytes.
Stack Usage for copy_metadata 0x10 bytes.
Stack Usage for backup_entries 0x28 bytes.
Stack Usage for write_defrag_start_pointer 0x8 bytes.
Stack Usage for erase_source 0x8 bytes.
Stack Usage for write_back 0x8 bytes.
Stack Usage for invalidate_duplicate_entries 0x20 bytes.
Stack Usage for seal_storage_page 0x8 bytes.
Stack Usage for post_process 0x8 bytes.
Stack Usage for execute_procedure_step 0x10 bytes.
Stack Usage for on_flash_op_end 0x0 bytes.
Stack Usage for flash 0x18 bytes.
Stack Usage for erase 0x18 bytes.
Stack Usage for get_last_page 0x0 bytes.
Stack Usage for handle_represents_data 0x0 bytes.
Stack Usage for get_next_data_entry 0x10 bytes.
Stack Usage for defrag_on_end 0x8 bytes.
Stack Usage for recover_defrag_progress 0x8 bytes.
Stack Usage for iv_index_notify 0x30 bytes.
Stack Usage for iv_update_trigger_if_pending 0x10 bytes.
Stack Usage for iv_update_timer_handler 0x10 bytes.
Stack Usage for mesh_evt_handler 0x0 bytes.
Stack Usage for iv_timeout_limit_passed 0x0 bytes.
Stack Usage for incoming_data_received 0x10 bytes.
Stack Usage for send_end_events 0x20 bytes.
Stack Usage for execute_next_operation_chunk 0x18 bytes.
Stack Usage for flash_op_start 0x28 bytes.
Stack Usage for flash_op_action_prepare 0x10 bytes.
Stack Usage for flash_op_schedule 0x8 bytes.
Stack Usage for nrf_mesh_listen 0x18 bytes.
Stack Usage for scanner_packet_process_cb 0x38 bytes.
Stack Usage for bearer_stopped_cb 0x30 bytes.
Stack Usage for utils_xor 0xc bytes.
Stack Usage for aes_cmac_subkey_generate 0x18 bytes.
Stack Usage for timer_cb 0x0 bytes.
Stack Usage for add_evt 0x10 bytes.
Stack Usage for remove_evt 0x8 bytes.
Stack Usage for flag_event_cb 0x8 bytes.
Stack Usage for fire_timers 0x18 bytes.
Stack Usage for setup_timeout 0x0 bytes.
Stack Usage for end_timer_handler 0x0 bytes.
Stack Usage for on_ts_begin 0x8 bytes.
Stack Usage for handle_extend_end 0x10 bytes.
Stack Usage for radio_signal_callback 0x20 bytes.
Stack Usage for get_end_time 0x0 bytes.
Stack Usage for radio_request_params_reset 0x0 bytes.
Stack Usage for timer_set 0x8 bytes.
Stack Usage for timer_mut_lock 0x0 bytes.
Stack Usage for timer_mut_unlock 0x0 bytes.
Stack Usage for __sd_nvic_app_accessible_irq 0x0 bytes.
Stack Usage for NVIC_GetPriority 0x0 bytes.
Stack Usage for __sd_nvic_is_app_accessible_priority 0x0 bytes.
Stack Usage for trigger_event_handler 0x0 bytes.
Stack Usage for evt_push 0x8 bytes.
Stack Usage for allocate_packet 0x28 bytes.
Stack Usage for packet_relay 0x30 bytes.
Stack Usage for should_relay 0x10 bytes.
Stack Usage for header_transfuscate 0x30 bytes.
Stack Usage for try_decrypt 0x160 bytes.
Stack Usage for net_packet_mic_size_get 0x0 bytes.
Stack Usage for nonce_type_get 0x8 bytes.
Stack Usage for stage_get_available 0x0 bytes.
Stack Usage for list_insert 0x10 bytes.
Stack Usage for get_next_entry 0x8 bytes.
Stack Usage for iterate_callback_entry_copy 0x10 bytes.
Stack Usage for flash_area_is_blank 0x10 bytes.
Stack Usage for free_packet_buffer 0x10 bytes.
Stack Usage for execute_action_replace 0x18 bytes.
Stack Usage for execute_action 0x28 bytes.
Stack Usage for process_action_queue 0x20 bytes.
Stack Usage for flash_op_ended_callback 0x0 bytes.
Stack Usage for flash 0x18 bytes.
Stack Usage for get_area_end 0x0 bytes.
Stack Usage for handle_represents_data 0x0 bytes.
Stack Usage for handle_is_valid 0x8 bytes.
Stack Usage for handle_matches_filter 0x10 bytes.
Stack Usage for schedule_processing 0x0 bytes.
Stack Usage for get_packet_buffer 0x8 bytes.
Stack Usage for get_entry_action 0x8 bytes.
Stack Usage for reserve_action_buffer 0x8 bytes.
Stack Usage for commit_action_buffer 0x8 bytes.
Stack Usage for metadata_is_valid 0x0 bytes.
Stack Usage for flash_area_build 0x18 bytes.
Stack Usage for recover_seal 0x8 bytes.
Stack Usage for invalidate_duplicate_of_last_entry 0x10 bytes.
Stack Usage for end_action 0x18 bytes.
Stack Usage for execute_action_recover_seal 0x10 bytes.
Stack Usage for get_last_entry 0x18 bytes.
Stack Usage for validate_result 0x8 bytes.
Stack Usage for ccm_soft_authenticate_blocks 0x20 bytes.
Stack Usage for ccm_soft_authenticate 0x18 bytes.
Stack Usage for ccm_soft_crypt 0x20 bytes.
Stack Usage for utils_xor 0xc bytes.
Stack Usage for build_a_block 0x10 bytes.
Stack Usage for build_mic 0x18 bytes.
Stack Usage for iv_index_get 0x10 bytes.
Stack Usage for evt_handler 0x20 bytes.
Stack Usage for packet_is_new 0x10 bytes.
Stack Usage for heartbeat_opcode_handle 0x30 bytes.
Stack Usage for heartbeat_publish 0x10 bytes.
Stack Usage for heartbeat_subscription_timer_cb 0x38 bytes.
Stack Usage for heartbeat_publication_timer_cb 0x10 bytes.
Stack Usage for heartbeat_core_evt_cb 0x0 bytes.
Stack Usage for heartbeat_relay_listener_cb 0x0 bytes.
Stack Usage for hb_pub_setter 0x10 bytes.
Stack Usage for hb_pub_getter 0x8 bytes.
Stack Usage for hb_pub_deleter 0x8 bytes.
Stack Usage for publish_is_enabled 0x0 bytes.
Stack Usage for heartbeat_send 0x48 bytes.
Stack Usage for is_valid_beacon_pkt 0x18 bytes.
Stack Usage for make_network_beacon_packet 0x8 bytes.
Stack Usage for beacon_tx 0x60 bytes.
Stack Usage for beacon_tx_timeout 0x0 bytes.
Stack Usage for tx_complete_cb 0x8 bytes.
Stack Usage for beacon_setter 0x10 bytes.
Stack Usage for beacon_getter 0x8 bytes.
Stack Usage for beacon_deleter 0x8 bytes.
Stack Usage for make_network_beacon_cmac 0x20 bytes.
Stack Usage for update_beacon_interval 0x8 bytes.
Stack Usage for contains_entry 0x8 bytes.
Stack Usage for listeners_notify 0x20 bytes.
Stack Usage for restore_callback 0x40 bytes.
Stack Usage for entry_flags_get 0x10 bytes.
Stack Usage for entry_params_find 0x10 bytes.
Stack Usage for entry_validation 0x10 bytes.
Stack Usage for dummy_event 0x0 bytes.
Stack Usage for file_get 0x8 bytes.
Stack Usage for flash_stable_cb 0x30 bytes.
Stack Usage for entry_read_cb 0x8 bytes.
Stack Usage for write_complete_cb 0x10 bytes.
Stack Usage for invalidate_complete_cb 0x10 bytes.
Stack Usage for remove_complete_cb 0x0 bytes.
Stack Usage for packet_alloc 0x10 bytes.
Stack Usage for packet_send 0x10 bytes.
Stack Usage for packet_discard 0x8 bytes.
Stack Usage for loopback_process 0x28 bytes.
Stack Usage for adv_tx_complete_callback 0x0 bytes.
Stack Usage for packet_alloc 0x10 bytes.
Stack Usage for packet_send 0x10 bytes.
Stack Usage for packet_discard 0x8 bytes.
Stack Usage for core_tx_adv_set 0x10 bytes.
Stack Usage for core_tx_adv_get 0x10 bytes.
Stack Usage for core_tx_adv_delete 0x10 bytes.
Stack Usage for core_tx_tx_power_set 0x10 bytes.
Stack Usage for core_tx_tx_power_get 0x10 bytes.
Stack Usage for core_tx_tx_power_delete 0x8 bytes.
Stack Usage for core_tx_adv_addr_set 0x10 bytes.
Stack Usage for core_tx_adv_addr_get 0x10 bytes.
Stack Usage for core_tx_adv_addr_delete 0x10 bytes.
Stack Usage for item_by_ad_get 0x0 bytes.
Stack Usage for input_param_check 0x0 bytes.
Stack Usage for adtype_filter_handle 0x14 bytes.
Stack Usage for broadcast_complete_cb 0x8 bytes.
Stack Usage for timeout_event 0x10 bytes.
Stack Usage for tx_complete_event_callback 0x8 bytes.
Stack Usage for is_active 0x0 bytes.
Stack Usage for schedule_first_time 0x10 bytes.
Stack Usage for next_packet_fetch 0x10 bytes.
Stack Usage for schedule_broadcast 0x10 bytes.
Stack Usage for set_gap_addr_type 0x10 bytes.
Stack Usage for action_timer_start 0x10 bytes.
Stack Usage for action_switch 0x10 bytes.
Stack Usage for end_handle 0x8 bytes.
Stack Usage for NVIC_EnableIRQ 0x0 bytes.
Stack Usage for action_in_progress 0x8 bytes.
Stack Usage for timer_irq_clear 0x0 bytes.
Stack Usage for radio_irq_clear 0x0 bytes.
Stack Usage for scanner_stop 0x8 bytes.
Stack Usage for action_start 0x10 bytes.
Stack Usage for notify_stop 0x0 bytes.
Stack Usage for NVIC_ClearPendingIRQ 0x0 bytes.
Stack Usage for broadcast_start 0x18 bytes.
Stack Usage for radio_irq_handler 0x18 bytes.
Stack Usage for configure_next_channel 0x0 bytes.
Stack Usage for radio_set_packet 0x8 bytes.
Stack Usage for radio_configure 0x18 bytes.
Stack Usage for radio_stop 0x10 bytes.
Stack Usage for radio_start 0x18 bytes.
Stack Usage for radio_handle_end_event 0x18 bytes.
Stack Usage for scan_window_end 0x0 bytes.
Stack Usage for scan_window_start 0x0 bytes.
Stack Usage for schedule_timers 0x8 bytes.
Stack Usage for radio_trigger 0x0 bytes.
Stack Usage for radio_setup_next_operation 0x8 bytes.
Stack Usage for ppi_setup 0x8 bytes.
Stack Usage for pin_clear 0x0 bytes.
Stack Usage for gpiote_setup 0x0 bytes.
Stack Usage for pin_init 0x0 bytes.
Stack Usage for list_insertions_handler 0x20 bytes.
Stack Usage for user_op_alloc 0x0 bytes.
Stack Usage for timer_stop_op_schedule 0x18 bytes.
Stack Usage for NVIC_EnableIRQ 0x0 bytes.
Stack Usage for NVIC_SetPendingIRQ 0x0 bytes.
Stack Usage for NVIC_ClearPendingIRQ 0x0 bytes.
Stack Usage for NVIC_SetPriority 0x0 bytes.
Stack Usage for nrfx_coredep_delay_us 0x0 bytes.
Stack Usage for timer_list_insert 0x8 bytes.
Stack Usage for timer_timeouts_check 0x18 bytes.
Stack Usage for timer_list_handler 0x20 bytes.
Stack Usage for elapsed_ticks_acquire 0x8 bytes.
Stack Usage for compare_reg_update 0x18 bytes.
Stack Usage for default_RNG 0x8 bytes.
Stack Usage for uECC_vli_numBits 0x0 bytes.
Stack Usage for uECC_vli_sub 0x14 bytes.
Stack Usage for uECC_vli_cmp 0x30 bytes.
Stack Usage for uECC_vli_add 0x14 bytes.
Stack Usage for muladd 0x14 bytes.
Stack Usage for uECC_vli_mult 0x38 bytes.
Stack Usage for uECC_vli_modAdd 0x10 bytes.
Stack Usage for uECC_vli_mmod 0xb0 bytes.
Stack Usage for vli_modInv_update 0x10 bytes.
Stack Usage for uECC_vli_modInv 0x98 bytes.
Stack Usage for double_jacobian_default 0x60 bytes.
Stack Usage for x_side_default 0x38 bytes.
Stack Usage for vli_mmod_fast_secp256r1 0x38 bytes.
Stack Usage for apply_z 0x38 bytes.
Stack Usage for XYcZ_add 0x40 bytes.
Stack Usage for XYcZ_addC 0x80 bytes.
Stack Usage for EccPoint_mult 0xe8 bytes.
Stack Usage for regularize_k 0x18 bytes.
Stack Usage for EccPoint_compute_public_key 0x60 bytes.
Stack Usage for uECC_vli_bytesToNative 0x10 bytes.
Stack Usage for uECC_generate_random_int 0x28 bytes.
Stack Usage for bits2int 0x20 bytes.
Stack Usage for uECC_sign_with_k 0xc8 bytes.
Stack Usage for HMAC_init 0x10 bytes.
Stack Usage for HMAC_finish 0x10 bytes.
Stack Usage for uECC_vli_clear 0x0 bytes.
Stack Usage for uECC_vli_isZero 0x8 bytes.
Stack Usage for uECC_vli_testBit 0x0 bytes.
Stack Usage for uECC_vli_set 0x8 bytes.
Stack Usage for uECC_vli_cmp_unsafe 0x8 bytes.
Stack Usage for uECC_vli_equal 0xc bytes.
Stack Usage for uECC_vli_rshift1 0x0 bytes.
Stack Usage for uECC_vli_modSub 0x10 bytes.
Stack Usage for uECC_vli_modMult 0x50 bytes.
Stack Usage for uECC_vli_modMult_fast 0x50 bytes.
Stack Usage for uECC_vli_modSquare_fast 0x0 bytes.
Stack Usage for XYcZ_initial_double 0x40 bytes.
Stack Usage for uECC_vli_nativeToBytes 0xc bytes.
Stack Usage for HMAC_update 0x0 bytes.
Stack Usage for update_V 0x10 bytes.
Stack Usage for _DoInit 0x8 bytes.
Stack Usage for _WriteBlocking 0x20 bytes.
Stack Usage for _WriteNoCheck 0x18 bytes.
Stack Usage for _PostTerminalSwitch 0x8 bytes.
Stack Usage for _GetAvailWriteSpace 0x0 bytes.
Stack Usage for _StoreChar 0x8 bytes.
Stack Usage for _PrintUnsigned 0x28 bytes.
Stack Usage for _PrintInt 0x30 bytes.

Potential Stack Usage Inaccuracies.

Mutually recursive functions.

 * action_start => end_handle
 * NMI_Handler => NMI_Handler
 * HardFault_Handler => HardFault_Handler
 * MemoryManagement_Handler => MemoryManagement_Handler
 * BusFault_Handler => BusFault_Handler
 * UsageFault_Handler => UsageFault_Handler
 * SVC_Handler => SVC_Handler
 * DebugMon_Handler => DebugMon_Handler
 * PendSV_Handler => PendSV_Handler
 * SysTick_Handler => SysTick_Handler
 * CCM_AAR_IRQHandler => CCM_AAR_IRQHandler

Untraceable function pointers.

 * BusFault_Handler from arm_startup_nrf52840.o(.text) referenced from arm_startup_nrf52840.o(RESET)
 * CCM_AAR_IRQHandler from arm_startup_nrf52840.o(.text) referenced from arm_startup_nrf52840.o(RESET)
 * COMP_LPCOMP_IRQHandler from arm_startup_nrf52840.o(.text) referenced from arm_startup_nrf52840.o(RESET)
 * CRYPTOCELL_IRQHandler from arm_startup_nrf52840.o(.text) referenced from arm_startup_nrf52840.o(RESET)
 * DebugMon_Handler from arm_startup_nrf52840.o(.text) referenced from arm_startup_nrf52840.o(RESET)
 * ECB_IRQHandler from arm_startup_nrf52840.o(.text) referenced from arm_startup_nrf52840.o(RESET)
 * FPU_IRQHandler from arm_startup_nrf52840.o(.text) referenced from arm_startup_nrf52840.o(RESET)
 * GPIOTE_IRQHandler from simple_hal.o(.text) referenced from arm_startup_nrf52840.o(RESET)
 * HardFault_Handler from arm_startup_nrf52840.o(.text) referenced from arm_startup_nrf52840.o(RESET)
 * I2S_IRQHandler from arm_startup_nrf52840.o(.text) referenced from arm_startup_nrf52840.o(RESET)
 * MWU_IRQHandler from arm_startup_nrf52840.o(.text) referenced from arm_startup_nrf52840.o(RESET)
 * MemoryManagement_Handler from arm_startup_nrf52840.o(.text) referenced from arm_startup_nrf52840.o(RESET)
 * NFCT_IRQHandler from arm_startup_nrf52840.o(.text) referenced from arm_startup_nrf52840.o(RESET)
 * NMI_Handler from arm_startup_nrf52840.o(.text) referenced from arm_startup_nrf52840.o(RESET)
 * PDM_IRQHandler from arm_startup_nrf52840.o(.text) referenced from arm_startup_nrf52840.o(RESET)
 * POWER_CLOCK_IRQHandler from arm_startup_nrf52840.o(.text) referenced from arm_startup_nrf52840.o(RESET)
 * PWM0_IRQHandler from arm_startup_nrf52840.o(.text) referenced from arm_startup_nrf52840.o(RESET)
 * PWM1_IRQHandler from arm_startup_nrf52840.o(.text) referenced from arm_startup_nrf52840.o(RESET)
 * PWM2_IRQHandler from arm_startup_nrf52840.o(.text) referenced from arm_startup_nrf52840.o(RESET)
 * PWM3_IRQHandler from arm_startup_nrf52840.o(.text) referenced from arm_startup_nrf52840.o(RESET)
 * PendSV_Handler from arm_startup_nrf52840.o(.text) referenced from arm_startup_nrf52840.o(RESET)
 * QDEC_IRQHandler from bearer_event.o(.text) referenced from arm_startup_nrf52840.o(RESET)
 * QSPI_IRQHandler from arm_startup_nrf52840.o(.text) referenced from arm_startup_nrf52840.o(RESET)
 * RADIO_IRQHandler from arm_startup_nrf52840.o(.text) referenced from arm_startup_nrf52840.o(RESET)
 * RNG_IRQHandler from arm_startup_nrf52840.o(.text) referenced from arm_startup_nrf52840.o(RESET)
 * RTC0_IRQHandler from arm_startup_nrf52840.o(.text) referenced from arm_startup_nrf52840.o(RESET)
 * RTC1_IRQHandler from app_timer_mesh.o(.text) referenced from arm_startup_nrf52840.o(RESET)
 * RTC2_IRQHandler from arm_startup_nrf52840.o(.text) referenced from arm_startup_nrf52840.o(RESET)
 * Reset_Handler from arm_startup_nrf52840.o(.text) referenced from arm_startup_nrf52840.o(RESET)
 * SAADC_IRQHandler from arm_startup_nrf52840.o(.text) referenced from arm_startup_nrf52840.o(RESET)
 * SPIM0_SPIS0_TWIM0_TWIS0_SPI0_TWI0_IRQHandler from arm_startup_nrf52840.o(.text) referenced from arm_startup_nrf52840.o(RESET)
 * SPIM1_SPIS1_TWIM1_TWIS1_SPI1_TWI1_IRQHandler from arm_startup_nrf52840.o(.text) referenced from arm_startup_nrf52840.o(RESET)
 * SPIM2_SPIS2_SPI2_IRQHandler from arm_startup_nrf52840.o(.text) referenced from arm_startup_nrf52840.o(RESET)
 * SPIM3_IRQHandler from arm_startup_nrf52840.o(.text) referenced from arm_startup_nrf52840.o(RESET)
 * SVC_Handler from arm_startup_nrf52840.o(.text) referenced from arm_startup_nrf52840.o(RESET)
 * SWI0_EGU0_IRQHandler from app_timer_mesh.o(.text) referenced from arm_startup_nrf52840.o(RESET)
 * SWI1_EGU1_IRQHandler from arm_startup_nrf52840.o(.text) referenced from arm_startup_nrf52840.o(RESET)
 * SWI2_EGU2_IRQHandler from nrf_sdh.o(.text) referenced from arm_startup_nrf52840.o(RESET)
 * SWI3_EGU3_IRQHandler from arm_startup_nrf52840.o(.text) referenced from arm_startup_nrf52840.o(RESET)
 * SWI4_EGU4_IRQHandler from arm_startup_nrf52840.o(.text) referenced from arm_startup_nrf52840.o(RESET)
 * SWI5_EGU5_IRQHandler from arm_startup_nrf52840.o(.text) referenced from arm_startup_nrf52840.o(RESET)
 * SysTick_Handler from arm_startup_nrf52840.o(.text) referenced from arm_startup_nrf52840.o(RESET)
 * SystemInit from system_nrf52840.o(.text) referenced from arm_startup_nrf52840.o(.text)
 * TEMP_IRQHandler from arm_startup_nrf52840.o(.text) referenced from arm_startup_nrf52840.o(RESET)
 * TIMER0_IRQHandler from arm_startup_nrf52840.o(.text) referenced from arm_startup_nrf52840.o(RESET)
 * TIMER1_IRQHandler from arm_startup_nrf52840.o(.text) referenced from arm_startup_nrf52840.o(RESET)
 * TIMER2_IRQHandler from bearer_handler.o(.text) referenced from arm_startup_nrf52840.o(RESET)
 * TIMER3_IRQHandler from arm_startup_nrf52840.o(.text) referenced from arm_startup_nrf52840.o(RESET)
 * TIMER4_IRQHandler from arm_startup_nrf52840.o(.text) referenced from arm_startup_nrf52840.o(RESET)
 * UARTE0_UART0_IRQHandler from serial_uart.o(.text) referenced from arm_startup_nrf52840.o(RESET)
 * UARTE1_IRQHandler from arm_startup_nrf52840.o(.text) referenced from arm_startup_nrf52840.o(RESET)
 * USBD_IRQHandler from arm_startup_nrf52840.o(.text) referenced from arm_startup_nrf52840.o(RESET)
 * UsageFault_Handler from arm_startup_nrf52840.o(.text) referenced from arm_startup_nrf52840.o(RESET)
 * WDT_IRQHandler from arm_startup_nrf52840.o(.text) referenced from arm_startup_nrf52840.o(RESET)
 * __main from __main.o(!!!main) referenced from arm_startup_nrf52840.o(.text)
 * abort_timeout from transport.o(.text) referenced from transport.o(.text)
 * access_flash_store from serial_handler_access.o(.text) referenced from serial_handler_access.o(.constdata)
 * ack_timeout from transport.o(.text) referenced from transport.o(.text)
 * adtype_filter_handle from ad_type_filter.o(.text) referenced from ad_type_filter.o(.text)
 * adv_tx_complete_callback from core_tx_adv.o(.text) referenced from core_tx_adv.o(.text)
 * app_error_fault_handler from app_error_weak.o(.text) referenced from nrf_sdh.o(.text)
 * async_process from prov_bearer_adv.o(.text) referenced from prov_bearer_adv.o(.text)
 * attention_timer_handler from health_server.o(.text) referenced from health_server.o(.text)
 * backup_entries from flash_manager_defrag.o(.text) referenced from flash_manager_defrag.o(.constdata)
 * beacon_deleter from net_beacon.o(.text) referenced from net_beacon.o(mesh_config_entries)
 * beacon_getter from net_beacon.o(.text) referenced from net_beacon.o(mesh_config_entries)
 * beacon_setter from net_beacon.o(.text) referenced from net_beacon.o(mesh_config_entries)
 * beacon_tx_timeout from net_beacon.o(.text) referenced from net_beacon.o(.text)
 * bearer_compare_callback from nrf_mesh_prov.o(.text) referenced from nrf_mesh_prov.o(.text)
 * bearer_stopped_cb from nrf_mesh.o(.text) referenced from nrf_mesh.o(.text)
 * broadcast_complete_cb from advertiser.o(.text) referenced from advertiser.o(.text)
 * broadcast_start from broadcast.o(.text) referenced from broadcast.o(.text)
 * char_rx from serial_bearer.o(.text) referenced from serial_bearer.o(.text)
 * char_tx from serial_bearer.o(.text) referenced from serial_bearer.o(.text)
 * check_for_invalid_entries from flash_manager_defrag.o(.text) referenced from flash_manager_defrag.o(.constdata)
 * config_server_heartbeat_publication_params_get from config_server.o(.text) referenced from config_server.o(.text)
 * copy_metadata from flash_manager_defrag.o(.text) referenced from flash_manager_defrag.o(.constdata)
 * core_tx_adv_addr_delete from core_tx_adv.o(.text) referenced from core_tx_adv.o(mesh_config_entries)
 * core_tx_adv_addr_get from core_tx_adv.o(.text) referenced from core_tx_adv.o(mesh_config_entries)
 * core_tx_adv_addr_set from core_tx_adv.o(.text) referenced from core_tx_adv.o(mesh_config_entries)
 * core_tx_adv_delete from core_tx_adv.o(.text) referenced from core_tx_adv.o(mesh_config_entries)
 * core_tx_adv_get from core_tx_adv.o(.text) referenced from core_tx_adv.o(mesh_config_entries)
 * core_tx_adv_set from core_tx_adv.o(.text) referenced from core_tx_adv.o(mesh_config_entries)
 * core_tx_tx_power_delete from core_tx_adv.o(.text) referenced from core_tx_adv.o(mesh_config_entries)
 * core_tx_tx_power_get from core_tx_adv.o(.text) referenced from core_tx_adv.o(mesh_config_entries)
 * core_tx_tx_power_set from core_tx_adv.o(.text) referenced from core_tx_adv.o(mesh_config_entries)
 * default_RNG from uECC.o(.text) referenced 2 times from uECC.o(.data)
 * do_transmit from serial_bearer.o(.text) referenced from serial_bearer.o(.text)
 * double_jacobian_default from uECC.o(.text) referenced from uECC.o(.constdata)
 * dummy_event from mesh_config_backend.o(.text) referenced from mesh_config_backend.o(.text)
 * ecdh_deleter from prov_utils.o(.text) referenced from prov_utils.o(mesh_config_entries)
 * ecdh_getter from prov_utils.o(.text) referenced from prov_utils.o(mesh_config_entries)
 * ecdh_setter from prov_utils.o(.text) referenced from prov_utils.o(mesh_config_entries)
 * elem_loc_get from serial_handler_access.o(.text) referenced from serial_handler_access.o(.constdata)
 * elem_loc_set from serial_handler_access.o(.text) referenced from serial_handler_access.o(.constdata)
 * elem_models_get from serial_handler_access.o(.text) referenced from serial_handler_access.o(.constdata)
 * elem_sig_model_cnt_get from serial_handler_access.o(.text) referenced from serial_handler_access.o(.constdata)
 * elem_vendor_model_cnt_get from serial_handler_access.o(.text) referenced from serial_handler_access.o(.constdata)
 * end_timer_handler from timeslot.o(.text) referenced from timeslot.o(.text)
 * entry_read_cb from mesh_config_flashman_glue.o(.text) referenced from mesh_config_flashman_glue.o(.text)
 * erase_recovery_area from flash_manager_defrag.o(.text) referenced from flash_manager_defrag.o(.constdata)
 * erase_source from flash_manager_defrag.o(.text) referenced from flash_manager_defrag.o(.constdata)
 * erase_source from flash_manager_defrag.o(.text) referenced from flash_manager_defrag.o(.text)
 * evt_handler from replay_cache.o(.text) referenced 2 times from replay_cache.o(.data)
 * flag_event_cb from timer_scheduler.o(.text) referenced from timer_scheduler.o(.text)
 * flash_op_ended_callback from flash_manager.o(.text) referenced 2 times from flash_manager.o(.text)
 * flash_op_start from mesh_flash.o(.text) referenced from mesh_flash.o(.text)
 * flash_stable_cb from mesh_config_flashman_glue.o(.text) referenced from mesh_config_flashman_glue.o(.text)
 * handle_appkey_add from config_server.o(.text) referenced from config_server.o(.constdata)
 * handle_appkey_delete from config_server.o(.text) referenced from config_server.o(.constdata)
 * handle_appkey_get from config_server.o(.text) referenced from config_server.o(.constdata)
 * handle_appkey_update from config_server.o(.text) referenced from config_server.o(.constdata)
 * handle_attention_get from health_server.o(.text) referenced from health_server.o(.constdata)
 * handle_attention_set from health_server.o(.text) referenced 2 times from health_server.o(.constdata)
 * handle_cmd_addr_get from serial_handler_mesh.o(.text) referenced from serial_handler_mesh.o(.constdata)
 * handle_cmd_addr_get_all from serial_handler_mesh.o(.text) referenced from serial_handler_mesh.o(.constdata)
 * handle_cmd_addr_local_unicast_get from serial_handler_mesh.o(.text) referenced from serial_handler_mesh.o(.constdata)
 * handle_cmd_addr_local_unicast_set from serial_handler_mesh.o(.text) referenced from serial_handler_mesh.o(.constdata)
 * handle_cmd_addr_nonvirtual_count_max_get from serial_handler_mesh.o(.text) referenced from serial_handler_mesh.o(.constdata)
 * handle_cmd_addr_publication_add from serial_handler_mesh.o(.text) referenced from serial_handler_mesh.o(.constdata)
 * handle_cmd_addr_publication_add_virtual from serial_handler_mesh.o(.text) referenced from serial_handler_mesh.o(.constdata)
 * handle_cmd_addr_publication_remove from serial_handler_mesh.o(.text) referenced from serial_handler_mesh.o(.constdata)
 * handle_cmd_addr_subscription_add from serial_handler_mesh.o(.text) referenced from serial_handler_mesh.o(.constdata)
 * handle_cmd_addr_subscription_add_virtual from serial_handler_mesh.o(.text) referenced from serial_handler_mesh.o(.constdata)
 * handle_cmd_addr_subscription_remove from serial_handler_mesh.o(.text) referenced from serial_handler_mesh.o(.constdata)
 * handle_cmd_addr_virtual_count_max_get from serial_handler_mesh.o(.text) referenced from serial_handler_mesh.o(.constdata)
 * handle_cmd_appkey_add from serial_handler_mesh.o(.text) referenced from serial_handler_mesh.o(.constdata)
 * handle_cmd_appkey_count_max_get from serial_handler_mesh.o(.text) referenced from serial_handler_mesh.o(.constdata)
 * handle_cmd_appkey_delete from serial_handler_mesh.o(.text) referenced from serial_handler_mesh.o(.constdata)
 * handle_cmd_appkey_get_all from serial_handler_mesh.o(.text) referenced from serial_handler_mesh.o(.constdata)
 * handle_cmd_appkey_update from serial_handler_mesh.o(.text) referenced from serial_handler_mesh.o(.constdata)
 * handle_cmd_clear from serial_handler_mesh.o(.text) referenced from serial_handler_mesh.o(.constdata)
 * handle_cmd_device_beacon_params_get from serial_handler_device.o(.text) referenced from serial_handler_device.o(.constdata)
 * handle_cmd_device_beacon_params_set from serial_handler_device.o(.text) referenced from serial_handler_device.o(.constdata)
 * handle_cmd_device_beacon_start from serial_handler_device.o(.text) referenced from serial_handler_device.o(.constdata)
 * handle_cmd_device_beacon_stop from serial_handler_device.o(.text) referenced from serial_handler_device.o(.constdata)
 * handle_cmd_device_echo from serial_handler_device.o(.text) referenced from serial_handler_device.o(.constdata)
 * handle_cmd_device_fw_info_get from serial_handler_device.o(.text) referenced from serial_handler_device.o(.constdata)
 * handle_cmd_device_internal_events_report from serial_handler_device.o(.text) referenced from serial_handler_device.o(.constdata)
 * handle_cmd_device_radio_reset from serial_handler_device.o(.text) referenced from serial_handler_device.o(.constdata)
 * handle_cmd_device_serial_version_get from serial_handler_device.o(.text) referenced from serial_handler_device.o(.constdata)
 * handle_cmd_devkey_add from serial_handler_mesh.o(.text) referenced from serial_handler_mesh.o(.constdata)
 * handle_cmd_devkey_count_max_get from serial_handler_mesh.o(.text) referenced from serial_handler_mesh.o(.constdata)
 * handle_cmd_devkey_delete from serial_handler_mesh.o(.text) referenced from serial_handler_mesh.o(.constdata)
 * handle_cmd_disable from serial_handler_mesh.o(.text) referenced from serial_handler_mesh.o(.constdata)
 * handle_cmd_enable from serial_handler_mesh.o(.text) referenced from serial_handler_mesh.o(.constdata)
 * handle_cmd_hk_data_clear from serial_handler_device.o(.text) referenced from serial_handler_device.o(.constdata)
 * handle_cmd_hk_data_get from serial_handler_device.o(.text) referenced from serial_handler_device.o(.constdata)
 * handle_cmd_packet_send from serial_handler_mesh.o(.text) referenced from serial_handler_mesh.o(.constdata)
 * handle_cmd_subnet_add from serial_handler_mesh.o(.text) referenced from serial_handler_mesh.o(.constdata)
 * handle_cmd_subnet_count_max_get from serial_handler_mesh.o(.text) referenced from serial_handler_mesh.o(.constdata)
 * handle_cmd_subnet_delete from serial_handler_mesh.o(.text) referenced from serial_handler_mesh.o(.constdata)
 * handle_cmd_subnet_get_all from serial_handler_mesh.o(.text) referenced from serial_handler_mesh.o(.constdata)
 * handle_cmd_subnet_update from serial_handler_mesh.o(.text) referenced from serial_handler_mesh.o(.constdata)
 * handle_composition_data_get from config_server.o(.text) referenced from config_server.o(.constdata)
 * handle_config_beacon_get from config_server.o(.text) referenced from config_server.o(.constdata)
 * handle_config_beacon_set from config_server.o(.text) referenced from config_server.o(.constdata)
 * handle_config_default_ttl_get from config_server.o(.text) referenced from config_server.o(.constdata)
 * handle_config_default_ttl_set from config_server.o(.text) referenced from config_server.o(.constdata)
 * handle_config_friend_get from config_server.o(.text) referenced from config_server.o(.constdata)
 * handle_config_friend_set from config_server.o(.text) referenced from config_server.o(.constdata)
 * handle_config_gatt_proxy_get from config_server.o(.text) referenced from config_server.o(.constdata)
 * handle_config_gatt_proxy_set from config_server.o(.text) referenced from config_server.o(.constdata)
 * handle_config_key_refresh_phase_get from config_server.o(.text) referenced from config_server.o(.constdata)
 * handle_config_key_refresh_phase_set from config_server.o(.text) referenced from config_server.o(.constdata)
 * handle_config_model_publication_get from config_server.o(.text) referenced from config_server.o(.constdata)
 * handle_config_model_publication_set from config_server.o(.text) referenced 2 times from config_server.o(.constdata)
 * handle_config_model_subscription_add from config_server.o(.text) referenced from config_server.o(.constdata)
 * handle_config_model_subscription_delete from config_server.o(.text) referenced from config_server.o(.constdata)
 * handle_config_model_subscription_delete_all from config_server.o(.text) referenced from config_server.o(.constdata)
 * handle_config_model_subscription_overwrite from config_server.o(.text) referenced from config_server.o(.constdata)
 * handle_config_model_subscription_virtual_address_add from config_server.o(.text) referenced from config_server.o(.constdata)
 * handle_config_model_subscription_virtual_address_delete from config_server.o(.text) referenced from config_server.o(.constdata)
 * handle_config_model_subscription_virtual_address_overwrite from config_server.o(.text) referenced from config_server.o(.constdata)
 * handle_config_network_transmit_get from config_server.o(.text) referenced from config_server.o(.constdata)
 * handle_config_network_transmit_set from config_server.o(.text) referenced from config_server.o(.constdata)
 * handle_config_relay_get from config_server.o(.text) referenced from config_server.o(.constdata)
 * handle_config_relay_set from config_server.o(.text) referenced from config_server.o(.constdata)
 * handle_config_sig_model_subscription_get from config_server.o(.text) referenced from config_server.o(.constdata)
 * handle_config_vendor_model_subscription_get from config_server.o(.text) referenced from config_server.o(.constdata)
 * handle_fault_clear from health_server.o(.text) referenced 2 times from health_server.o(.constdata)
 * handle_fault_get from health_server.o(.text) referenced from health_server.o(.constdata)
 * handle_fault_test from health_server.o(.text) referenced 2 times from health_server.o(.constdata)
 * handle_get from serial_handler_access.o(.text) referenced from serial_handler_access.o(.constdata)
 * handle_heartbeat_publication_get from config_server.o(.text) referenced from config_server.o(.constdata)
 * handle_heartbeat_publication_set from config_server.o(.text) referenced from config_server.o(.constdata)
 * handle_heartbeat_subscription_get from config_server.o(.text) referenced from config_server.o(.constdata)
 * handle_heartbeat_subscription_set from config_server.o(.text) referenced from config_server.o(.constdata)
 * handle_model_app_bind_unbind from config_server.o(.text) referenced 2 times from config_server.o(.constdata)
 * handle_model_app_get from config_server.o(.text) referenced 2 times from config_server.o(.constdata)
 * handle_netkey_add_update from config_server.o(.text) referenced 2 times from config_server.o(.constdata)
 * handle_netkey_delete from config_server.o(.text) referenced from config_server.o(.constdata)
 * handle_netkey_get from config_server.o(.text) referenced from config_server.o(.constdata)
 * handle_node_identity_get from config_server.o(.text) referenced from config_server.o(.constdata)
 * handle_node_identity_set from config_server.o(.text) referenced from config_server.o(.constdata)
 * handle_node_reset from config_server.o(.text) referenced from config_server.o(.constdata)
 * handle_period_get from health_server.o(.text) referenced from health_server.o(.constdata)
 * handle_period_set from health_server.o(.text) referenced 2 times from health_server.o(.constdata)
 * hb_pub_deleter from heartbeat.o(.text) referenced from heartbeat.o(mesh_config_entries)
 * hb_pub_getter from heartbeat.o(.text) referenced from heartbeat.o(mesh_config_entries)
 * hb_pub_setter from heartbeat.o(.text) referenced from heartbeat.o(mesh_config_entries)
 * health_publish_timeout_handler from health_server.o(.text) referenced from health_server.o(.constdata)
 * health_server_fpd_delete from health_server.o(.text) referenced from health_server.o(mesh_config_entries)
 * health_server_fpd_get from health_server.o(.text) referenced from health_server.o(mesh_config_entries)
 * health_server_fpd_set from health_server.o(.text) referenced from health_server.o(mesh_config_entries)
 * heartbeat_core_evt_cb from heartbeat.o(.text) referenced from heartbeat.o(.text)
 * heartbeat_opcode_handle from heartbeat.o(.text) referenced from heartbeat.o(.constdata)
 * heartbeat_publication_timer_cb from heartbeat.o(.text) referenced from heartbeat.o(.text)
 * heartbeat_relay_listener_cb from heartbeat.o(.text) referenced from heartbeat.o(mesh_config_entry_listeners)
 * heartbeat_subscription_timer_cb from heartbeat.o(.text) referenced from heartbeat.o(.text)
 * invalidate_complete_cb from mesh_config_flashman_glue.o(.text) referenced from mesh_config_flashman_glue.o(.constdata)
 * invalidate_duplicate_entries from flash_manager_defrag.o(.text) referenced from flash_manager_defrag.o(.constdata)
 * iterate_callback_entry_copy from flash_manager.o(.text) referenced from flash_manager.o(.text)
 * iv_update_timer_handler from net_state.o(.text) referenced from net_state.o(.text)
 * led_timeout_handler from simple_hal.o(.text) referenced from simple_hal.o(.text)
 * link_timeout_cb from prov_bearer_adv.o(.text) referenced from prov_bearer_adv.o(.text)
 * log_callback_rtt from log.o(.text) referenced 2 times from log.o(.data)
 * log_callback_rtt from log.o(.text) referenced from main.o(.text)
 * loopback_process from core_tx_local.o(.text) referenced from core_tx_local.o(.text)
 * mesh_event_cb from config_server.o(.text) referenced 2 times from config_server.o(.data)
 * mesh_evt_cb from access.o(.text) referenced from access.o(.text)
 * mesh_evt_handler from device_state_manager.o(.text) referenced 2 times from device_state_manager.o(.text)
 * model_app_bind from serial_handler_access.o(.text) referenced from serial_handler_access.o(.constdata)
 * model_app_get from serial_handler_access.o(.text) referenced from serial_handler_access.o(.constdata)
 * model_app_unbind from serial_handler_access.o(.text) referenced from serial_handler_access.o(.constdata)
 * model_command from serial_handler_models.o(.text) referenced from serial_handler_models.o(.constdata)
 * model_id_get from serial_handler_access.o(.text) referenced from serial_handler_access.o(.constdata)
 * model_init from serial_handler_models.o(.text) referenced from serial_handler_models.o(.constdata)
 * model_pub_addr_get from serial_handler_access.o(.text) referenced from serial_handler_access.o(.constdata)
 * model_pub_addr_set from serial_handler_access.o(.text) referenced from serial_handler_access.o(.constdata)
 * model_pub_app_get from serial_handler_access.o(.text) referenced from serial_handler_access.o(.constdata)
 * model_pub_app_set from serial_handler_access.o(.text) referenced from serial_handler_access.o(.constdata)
 * model_pub_period_get from serial_handler_access.o(.text) referenced from serial_handler_access.o(.constdata)
 * model_pub_period_set from serial_handler_access.o(.text) referenced from serial_handler_access.o(.constdata)
 * model_pub_ttl_get from serial_handler_access.o(.text) referenced from serial_handler_access.o(.constdata)
 * model_pub_ttl_set from serial_handler_access.o(.text) referenced from serial_handler_access.o(.constdata)
 * model_subs_add from serial_handler_access.o(.text) referenced from serial_handler_access.o(.constdata)
 * model_subs_get from serial_handler_access.o(.text) referenced from serial_handler_access.o(.constdata)
 * model_subs_remove from serial_handler_access.o(.text) referenced from serial_handler_access.o(.constdata)
 * models_get from serial_handler_models.o(.text) referenced from serial_handler_models.o(.constdata)
 * nrf_mesh_listen from nrf_mesh.o(.text) referenced 2 times from nrf_mesh.o(.data)
 * nrf_sdh_ble_evts_poll from nrf_sdh_ble.o(.text) referenced from nrf_sdh_ble.o(sdh_stack_observers0)
 * nrf_sdh_soc_evts_poll from nrf_sdh_soc.o(.text) referenced from nrf_sdh_soc.o(sdh_stack_observers0)
 * on_flash_op_end from flash_manager_defrag.o(.text) referenced 2 times from flash_manager_defrag.o(.text)
 * on_sd_evt from ble_softdevice_support.o(.text) referenced from ble_softdevice_support.o(sdh_soc_observers0)
 * packet_alloc from core_tx_local.o(.text) referenced 2 times from core_tx_local.o(.constdata)
 * packet_discard from core_tx_local.o(.text) referenced 2 times from core_tx_local.o(.constdata)
 * packet_send from core_tx_local.o(.text) referenced 2 times from core_tx_local.o(.constdata)
 * post_process from flash_manager_defrag.o(.text) referenced from flash_manager_defrag.o(.constdata)
 * process_action_queue from flash_manager.o(.text) referenced from flash_manager.o(.text)
 * prov_bearer_adv_link_close from prov_bearer_adv.o(.text) referenced from prov_bearer_adv.o(.constdata)
 * prov_bearer_adv_link_open from prov_bearer_adv.o(.text) referenced from prov_bearer_adv.o(.constdata)
 * prov_bearer_adv_listen from prov_bearer_adv.o(.text) referenced from prov_bearer_adv.o(.constdata)
 * prov_bearer_adv_listen_stop from prov_bearer_adv.o(.text) referenced from prov_bearer_adv.o(.constdata)
 * prov_bearer_adv_tx from prov_bearer_adv.o(.text) referenced from prov_bearer_adv.o(.constdata)
 * prov_provisionee_cb_ack_received from prov_provisionee.o(.text) referenced from prov_provisionee.o(.constdata)
 * prov_provisionee_cb_link_closed from prov_provisionee.o(.text) referenced from prov_provisionee.o(.constdata)
 * prov_provisionee_cb_link_established from prov_provisionee.o(.text) referenced from prov_provisionee.o(.constdata)
 * prov_provisionee_pkt_in from prov_provisionee.o(.text) referenced from prov_provisionee.o(.constdata)
 * prov_provisioner_cb_ack_received from prov_provisioner.o(.text) referenced from prov_provisioner.o(.constdata)
 * prov_provisioner_cb_link_closed from prov_provisioner.o(.text) referenced from prov_provisioner.o(.constdata)
 * prov_provisioner_cb_link_established from prov_provisioner.o(.text) referenced from prov_provisioner.o(.constdata)
 * prov_provisioner_pkt_in from prov_provisioner.o(.text) referenced from prov_provisioner.o(.constdata)
 * publish_timer_tick from access_publish.o(.text) referenced from access_publish.o(.text)
 * radio_irq_handler from broadcast.o(.text) referenced from broadcast.o(.text)
 * radio_signal_callback from timeslot.o(.text) referenced from timeslot.o(.text)
 * reliable_timer_cb from access_reliable.o(.text) referenced from access_reliable.o(.text)
 * remove_complete_cb from mesh_config_flashman_glue.o(.text) referenced from mesh_config_flashman_glue.o(.constdata)
 * restore_callback from mesh_config.o(.text) referenced from mesh_config.o(.text)
 * retransmissions_timer_cb from access_publish_retransmission.o(.text) referenced from access_publish_retransmission.o(.text)
 * retry_timeout from transport.o(.text) referenced from transport.o(.text)
 * scan_window_end from scanner.o(.text) referenced from scanner.o(.text)
 * scan_window_start from scanner.o(.text) referenced from scanner.o(.text)
 * scanner_packet_process_cb from nrf_mesh.o(.text) referenced from nrf_mesh.o(.text)
 * seal_storage_page from flash_manager_defrag.o(.text) referenced from flash_manager_defrag.o(.constdata)
 * send_end_events from mesh_flash.o(.text) referenced from mesh_flash.o(.text)
 * serial_handler_access_rx from serial_handler_access.o(.text) referenced from serial.o(.constdata)
 * serial_handler_app_rx from serial_handler_app.o(.text) referenced from serial.o(.constdata)
 * serial_handler_config_rx from serial_handler_config.o(.text) referenced from serial.o(.constdata)
 * serial_handler_device_rx from serial_handler_device.o(.text) referenced from serial.o(.constdata)
 * serial_handler_dfu_rx from serial_handler_dfu.o(.text) referenced from serial.o(.constdata)
 * serial_handler_mesh_evt_handle from serial_handler_dfu.o(.text) referenced 2 times from serial_handler_dfu.o(.text)
 * serial_handler_mesh_rx from serial_handler_mesh.o(.text) referenced from serial.o(.constdata)
 * serial_handler_models_rx from serial_handler_models.o(.text) referenced from serial.o(.constdata)
 * serial_handler_openmesh_rx from serial_handler_openmesh.o(.text) referenced from serial.o(.constdata)
 * serial_handler_prov_evt_in from serial_handler_prov.o(.text) referenced from serial_handler_prov.o(.text)
 * serial_handler_prov_pkt_in from serial_handler_prov.o(.text) referenced from serial.o(.constdata)
 * serial_process_cmd from serial.o(.text) referenced from serial.o(.text)
 * timeout_event from advertiser.o(.text) referenced from advertiser.o(.text)
 * timer_cb from timer_scheduler.o(.text) referenced from timer_scheduler.o(.text)
 * transport_sar_process from transport.o(.text) referenced from transport.o(.text)
 * tx_complete from transport.o(.text) referenced from transport.o(.text)
 * tx_complete_cb from prov_bearer_adv.o(.text) referenced 2 times from prov_bearer_adv.o(.text)
 * tx_complete_event_callback from advertiser.o(.text) referenced from advertiser.o(.text)
 * tx_retry_cb from prov_bearer_adv.o(.text) referenced 2 times from prov_bearer_adv.o(.text)
 * vli_mmod_fast_secp256r1 from uECC.o(.text) referenced from uECC.o(.constdata)
 * write_back from flash_manager_defrag.o(.text) referenced from flash_manager_defrag.o(.constdata)
 * write_complete_cb from mesh_config_flashman_glue.o(.text) referenced from mesh_config_flashman_glue.o(.constdata)
 * write_defrag_start_pointer from flash_manager_defrag.o(.text) referenced from flash_manager_defrag.o(.constdata)
 * x_side_default from uECC.o(.text) referenced from uECC.o(.constdata)

==============================================================================

Image Symbol Table

    Local Symbols

    Symbol Name                              Value     Ov Type        Size  Object(Section)

    ../clib/angel/boardlib.s                 0x00000000   Number         0  boardinit2.o ABSOLUTE
    ../clib/angel/boardlib.s                 0x00000000   Number         0  boardinit3.o ABSOLUTE
    ../clib/angel/boardlib.s                 0x00000000   Number         0  boardinit1.o ABSOLUTE
    ../clib/angel/boardlib.s                 0x00000000   Number         0  boardshut.o ABSOLUTE
    ../clib/angel/dczerorl.s                 0x00000000   Number         0  __dczerorl.o ABSOLUTE
    ../clib/angel/handlers.s                 0x00000000   Number         0  __scatter_zi.o ABSOLUTE
    ../clib/angel/kernel.s                   0x00000000   Number         0  rtexit.o ABSOLUTE
    ../clib/angel/kernel.s                   0x00000000   Number         0  __rtentry.o ABSOLUTE
    ../clib/angel/kernel.s                   0x00000000   Number         0  rtexit2.o ABSOLUTE
    ../clib/angel/kernel.s                   0x00000000   Number         0  __rtentry4.o ABSOLUTE
    ../clib/angel/kernel.s                   0x00000000   Number         0  __rtentry2.o ABSOLUTE
    ../clib/angel/rt.s                       0x00000000   Number         0  rt_heap_descriptor.o ABSOLUTE
    ../clib/angel/rt.s                       0x00000000   Number         0  aeabi_ldiv0.o ABSOLUTE
    ../clib/angel/rt.s                       0x00000000   Number         0  rt_raise.o ABSOLUTE
    ../clib/angel/rt.s                       0x00000000   Number         0  aeabi_ldiv0_sigfpe.o ABSOLUTE
    ../clib/angel/rt.s                       0x00000000   Number         0  rt_heap_descriptor_intlibspace.o ABSOLUTE
    ../clib/angel/rt.s                       0x00000000   Number         0  rt_div0.o ABSOLUTE
    ../clib/angel/scatter.s                  0x00000000   Number         0  __scatter.o ABSOLUTE
    ../clib/angel/startup.s                  0x00000000   Number         0  __main.o ABSOLUTE
    ../clib/angel/sys.s                      0x00000000   Number         0  sys_stackheap_outer.o ABSOLUTE
    ../clib/angel/sys.s                      0x00000000   Number         0  mutex_dummy.o ABSOLUTE
    ../clib/angel/sys.s                      0x00000000   Number         0  indicate_semi.o ABSOLUTE
    ../clib/angel/sys.s                      0x00000000   Number         0  use_no_semi.o ABSOLUTE
    ../clib/angel/sys.s                      0x00000000   Number         0  libspace.o ABSOLUTE
    ../clib/angel/sysapp.c                   0x00000000   Number         0  sys_exit.o ABSOLUTE
    ../clib/angel/sysapp.c                   0x00000000   Number         0  sys_wrch.o ABSOLUTE
    ../clib/angel/sysapp.c                   0x00000000   Number         0  sys_command.o ABSOLUTE
    ../clib/armsys.c                         0x00000000   Number         0  argv_veneer.o ABSOLUTE
    ../clib/armsys.c                         0x00000000   Number         0  argv_veneer.o ABSOLUTE
    ../clib/armsys.c                         0x00000000   Number         0  _get_argv.o ABSOLUTE
    ../clib/armsys.c                         0x00000000   Number         0  _get_argv_nomalloc.o ABSOLUTE
    ../clib/armsys.c                         0x00000000   Number         0  no_argv.o ABSOLUTE
    ../clib/heap1.c                          0x00000000   Number         0  h1_alloc.o ABSOLUTE
    ../clib/heap1.c                          0x00000000   Number         0  h1_extend_mt.o ABSOLUTE
    ../clib/heap1.c                          0x00000000   Number         0  h1_init.o ABSOLUTE
    ../clib/heap1.c                          0x00000000   Number         0  h1_extend.o ABSOLUTE
    ../clib/heap1.c                          0x00000000   Number         0  h1_final_mt.o ABSOLUTE
    ../clib/heap1.c                          0x00000000   Number         0  h1_final.o ABSOLUTE
    ../clib/heap1.c                          0x00000000   Number         0  h1_free_mt.o ABSOLUTE
    ../clib/heap1.c                          0x00000000   Number         0  h1_alloc_mt.o ABSOLUTE
    ../clib/heap1.c                          0x00000000   Number         0  h1_init_mt.o ABSOLUTE
    ../clib/heap1.c                          0x00000000   Number         0  h1_free.o ABSOLUTE
