:020000022000DC
:1060000000FD00201DC6030045C6030047C603006F
:1060100049C603004BC603004DC603000000000044
:106020000000000000000000000000004FC6030058
:1060300051C603000000000053C6030055C603000C
:1060400057C6030057C60300A967020057C60300DE
:1060500057C6030057C60300D987020057C603007E
:1060600057C6030057C6030045AF030057C60300D9
:1060700057C6030057C6030057C6030057C60300A0
:1060800057C603005DBE0300996C030057C60300AA
:106090002DBF030057C603009D8C020057C60300A6
:1060A00057C6030057C6030057C6030057C6030070
:1060B00057C6030057C603000000000000000000A0
:1060C00057C6030057C6030057C6030057C6030050
:1060D00057C6030057C6030057C603000000000060
:1060E00000000000000000000000000000000000B0
:1060F00000000000000000000000000000000000A0
:10610000000000000000000000000000000000008F
:10611000000000000000000000000000000000007F
:10612000000000000000000000000000000000006F
:10613000000000000000000000000000000000005F
:10614000000000000000000000000000000000004F
:10615000000000000000000000000000000000003F
:10616000000000000000000000000000000000002F
:10617000000000000000000000000000000000001F
:10618000000000000000000000000000000000000F
:1061900000000000000000000000000000000000FF
:1061A00000000000000000000000000000000000EF
:1061B00000000000000000000000000000000000DF
:1061C00000000000000000000000000000000000CF
:1061D00000000000000000000000000000000000BF
:1061E00000000000000000000000000000000000AF
:1061F000000000000000000000000000000000009F
:1062000010B5054C237833B9044B13B10448AFF3F0
:1062100000800123237010BDF82E00200000000034
:1062200060F7030008B5034B1BB103490348AFF304
:10623000008008BD00000000FC2E002060F7030075
:10624000154B002B08BF134B9D46A3F5803A002148
:106250008B460F461348144A121A17F081FD0F4B54
:10626000002B00D098470E4B002B00D09847002001
:10627000002104000D000D48002802D00C48AFF3A7
:10628000008017F01FFD2000290000F009F917F029
:1062900005FD00BF0000080000FD00200000000018
:1062A00000000000F82E0020906100200000000097
:1062B0000000000041DF704707B503781C2B2ED18A
:1062C000184B1B685B0416D5174B1B68032B12DD9C
:1062D0002F21164817F014FEC0B12F21134817F0D4
:1062E0000FFE411C124B134AD3F8043500920420D0
:1062F000912211F037FC0322C8214FF4F01002F074
:106300000DFA03B05DF804EB0CF086BC5C21074885
:1063100017F0F6FD08B15C21E0E70449E2E703B0BD
:106320005DF804FB682E0020642E002098DF030037
:1063300000100140B3DF03007FB50378093B04463A
:10634000042B64D8DFE803F081858E030300007915
:10635000022804F105055CD004286CD1B4F81320A0
:10636000B4F809309A425BD1D4F80F20D4F8053044
:106370009A4255D1D4F81530D4F80B2093422CBF53
:1063800000230123002B56D003A902A80CF054FCD3
:1063900018B13B4A5C2116F06CF93A4A029B3A4E1E
:1063A00013443A4A5B08934224BF03F6FF731E402E
:1063B000374B1B683CBF02F6FF7216405B0417D5D3
:1063C000344B1B68032B13DD2F212D4817F098FD4C
:1063D00040B32F212A4817F093FD411C2E4B2F4A22
:1063E000D3F80435009201966D22042011F0BAFB17
:1063F0003246294620790CF069F918B1204A7121FA
:1064000016F037F900214FF4F01002F07DF904B0D6
:1064100070BDE27B63799A4202D1237CA279ADE719
:106420000023AFE75C21164817F06AFD08B15C2134
:10643000D0E71349D2E729460CF094F90028E6D0BA
:106440000F4A772116F015F9E1E701214FF42020DA
:10645000DBE700214FF4F01002F056F901214FF470
:10646000C020D2E74FF4F010002102F04DF920795E
:106470000CF0DAF90028CAD0014A8621E2E700BF11
:1064800098DF03000060020000F0FFFF58F80300EF
:10649000682E0020642E00200010014042E003001E
:1064A00000B58DB015F08CFE18B1764AB32116F008
:1064B000E0F8754E02F064F94CF28700734A04214B
:1064C00011F034FB3368580418D5714B1B68032B4B
:1064D00014DD2F216B4817F013FD002800F0AE806B
:1064E0002F21684817F00CFD411C6A4B6A4AD3F80B
:1064F000043500920420B72211F034FB02F030FA88
:106500000021242203A817F02BFC01238DF80C3066
:1065100007238DF80F3006238DF814305F49604B48
:10652000079303A80CF042FB18B1564AA72116F0B6
:10653000A0F8002001F0DEFF18B1524AAA2116F09F
:1065400098F85848584B03600FF00AFB3368590419
:1065500017D54F4B1B68032B13DD2F21494817F02C
:10656000CFFC002873D02F21464817F0C9FC411CEE
:10657000484B4E4AD3F8043500920420BD2211F056
:10658000F1FA464B1B787BB9494D0FCD03AC0FC4D4
:1065900095E8030084E8030003A802F04FF818B15F
:1065A000384ACE2116F065F833685A0417D5384BAF
:1065B0001B68032B13DD2F21324817F0A1FC0028A4
:1065C0004ED02F212F4817F09BFC411C314B394AEC
:1065D000D3F8043500920420D22211F0C3FA01F05E
:1065E000A4FF18B1274AD32116F043F80CF066FB3C
:1065F00002F022F90CF04EFA18B1224AD82116F016
:1066000038F833685B0416D5214B1B68032B12DD69
:106610002F211C4817F074FC58B32F21194817F08C
:106620006FFC411C1B4B244AD3F804350092042014
:10663000DA2211F097FAFFF73DFEFCE75C211148E2
:1066400017F05EFC08B15C214BE70E494DE75C2179
:106650000C4817F055FC08B15C2185E7094987E72C
:106660005C21084817F04CFC08B15C21AAE70549F9
:10667000ACE75C21034817F043FC08B15C21CDE78F
:106680000049CFE798DF0300682E0020017B03005C
:10669000642E002000100140CCDF0300142F0020E6
:1066A000B9620200182F002039630200F4DF0300F2
:1066B00080DF03000EE003002CE00300002839D047
:1066C000002937D01C4B18601C4B19604FF0A043B9
:1066D0000C22C3F820274021C3F81C270322C3F84B
:1066E0001827C3F80815C3F81427154B0622C3F85A
:1066F0000C250822C3F814250722C3F8102505220B
:10670000C3F8082501210F4AC3F86C158420C3F88B
:1067100024250422C3F80025C3F804030020C3F88D
:106720000801C3F81C011960074BC02183F802134C
:106730001A6070470E207047282F00202C2F002051
:106740000020004000E0D70100E100E070B5124DEC
:10675000124E134C29783368002011B1D4F8082167
:106760006AB9D4F81C31ABB10023C4F81C31D4F899
:106770001C310C4B1B686BB1BDE870401847C4F866
:106780000801D4F80821002BE7D0D4F81805C0B2CE
:106790009847DFE770BD00BF242F0020282F00207E
:1067A000002000402C2F0020FFF7D0BF014B1870B5
:1067B000704700BF242F002038B50B4D2B788BB9C4
:1067C0000A4C0B4821460DF082FE58B9236819790E
:1067D000084B01222A70C3F81C1507490A80C3F828
:1067E0001C019A60012038BD503100206C3300201C
:1067F0005C33002000200040302F002070B5174C83
:10680000237813B978460CF025F9154D296849B954
:10681000144B0122DA602170134BBDE870401868F8
:1068200010F064B9114A08791388461CB3420BD1A1
:1068300001330F4813800DF0ACFE0A4A00230121FA
:106840002B60D1602370E7E7834206DC19440133F3
:106850001380044B0979C3F81C1570BD503100201A
:106860006C33002000200040342F0020302F002007
:106870005C33002008B54FF40272114911480DF045
:1068800026FD114911484FF402720DF020FD104908
:106890001048FFF713FF10B178460CF0DBF8012029
:1068A000FFF784FF0C4A0D48002313700C4A138035
:1068B0000C4A138010F0FCF80B4B186008BD00BFA9
:1068C000543100205C3300203A2F00204431002056
:1068D000FD6702008D69020050310020B967020097
:1068E00052310020302F0020342F002037B5421CB9
:1068F00004460D4692B201A904480DF066FD18B990
:10690000019B1A1D2A601C7103B030BD5C3300204E
:1069100038B5044610B978460CF09CF8251FAB78C2
:10692000012B02D078460CF095F8227834F8043C1C
:106930009A4202D978460CF08DF810F049F8074BCE
:10694000186810F0D3F834F8042C054829460DF0E7
:106950008DFDBDE8384010F07BB800BF342F00201B
:106960005C33002013B5044601A90320FFF7BEFFE6
:1069700048B9019A84235370019A9470019AD37094
:106980000198FFF7C5FF02B010BD00002DE9F041EE
:10699000294A1388074690461BB1013B1380BDE886
:1069A000F081264D2B8873BB254E348804B9441CD6
:1069B000012C07D8013CA8F800400020BDE8F041B8
:1069C000FFF7D0BF1F480DF072FC8442F2D8B4F537
:1069D000807FEFD8DFF870801A48224641460DF0DC
:1069E000F4FC28B134800020BDE8F041FFF7DEBEA2
:1069F000338843B12B88D8F8002030801A44013CFA
:106A0000013314712B80104C2B882168CA18013374
:106A100017710A799BB2013293422B80BFD1002BB0
:106A2000BDD00A88074800260DF020FD266000F042
:106A300027FB2E80B3E700BF382F002070330020E3
:106A400052310020443100206833002013B5044641
:106A500001A90B480DF03BFD78B90199204631F8AA
:106A6000042B17F072F9019905480DF092FD0120F1
:106A7000FFF79CFE012002B010BD0020FBE700BF25
:106A80004431002070B5044615461E46084649B9F3
:106A900000F00EFB33462A4601462046BDE8704012
:106AA00000F03CBB00F004FB00231A46F4E770B48E
:106AB00045780023934204D100231A4682212846B8
:106AC00012E011F83360AE4201EBC30412D16378D7
:106AD0000278934204D2A17801330B449A4206DD36
:106AE00000231A468421304670BC00F017BB63684F
:106AF00070BC18470133DDE710B5044602F0D6FD3F
:106B0000002360781A461946BDE8104000F006BB25
:106B100030B5C1B040ACFA2324F8FC3D054622460E
:106B20000DF10601408803F095FE6D78034608B12B
:106B300009280AD1184600F0BBFAFC232246014678
:106B4000284600F0EBFA41B030BD00F0B1FA002366
:106B50001A46F4E713B5044601AA4168408803F0D9
:106B60004FFE0223014601AA6078FFF78BFF02B0B7
:106B700010BD13B5044601A9408803F02BFE042381
:106B800001460DEB03026078FFF77CFF02B010BDF9
:106B900013B5044601A9408803F010FE0123014605
:106BA00001AA6078FFF76EFF02B010BD13B504466E
:106BB00001A9408803F0F6FD0123014601AA60788F
:106BC000FFF760FF02B010BD13B5044601A940886D
:106BD00003F0DCFD0223014601AA6078FFF752FFB3
:106BE00002B010BD10B504468188408803F0BEFD98
:106BF000647800F05DFA002301461A462046BDE89D
:106C0000104000F08BBA13B5044601A9408803F088
:106C100099FD0123014601AA6078FFF733FF02B016
:106C200010BD10B504460179408803F06BFD64780F
:106C300000F03EFA002301461A462046BDE8104007
:106C400000F06CBA13B5044601A9408803F004FDB6
:106C50000223014601AA6078FFF714FF02B010BDBD
:106C600010B504468188408803F0D8FC647800F0B1
:106C70001FFA002301461A462046BDE8104000F0E6
:106C80004DBA30B5C1B040AC7D2324F8FC3D05467B
:106C900022460DF10601408803F092FC6D78034610
:106CA00008B109280AD1184600F002FAFC2322464E
:106CB0000146284600F032FA41B030BD00F0F8F944
:106CC00000231A46F4E710B504468188408803F093
:106CD0004FFC647800F0ECF9002301461A46204688
:106CE000BDE8104000F01ABA10B50446818840880B
:106CF00003F016FC647800F0DBF9002301461A4625
:106D00002046BDE8104000F009BA30B5C1B040AC33
:106D1000FA2324F8FC3D054622460DF10601408881
:106D200003F0C2FB6D78034608B109280AD1184662
:106D300000F0BEF9FC2322460146284600F0EEF999
:106D400041B030BD00F0B4F900231A46F4E710B5A5
:106D500004468188408803F077FB647800F0A8F946
:106D6000002301461A462046BDE8104000F0D6B97F
:106D700010B504468188408803F036FB647800F043
:106D800097F9002301461A462046BDE8104000F05E
:106D9000C5B913B504460DF1050201A9408803F0F9
:106DA00023FA0223014601AA6078FFF76BFE02B0C6
:106DB00010BD10B5044642790179408803F0B0FA5D
:106DC000647800F075F9002301461A462046BDE8B4
:106DD000104000F0A3B913B5044601A9408803F0A0
:106DE000B3F90223014601AA6078FFF74BFE02B017
:106DF00010BD10B504468188408803F087F9647897
:106E000000F056F9002301461A462046BDE810401E
:106E100000F084B910B54378F52B044602D97846C2
:106E20000BF018FE204616220249BDE81040FFF77D
:106E30003EBE00BF94E0030010B5044640784528EC
:106E400086B00FD842281DD240281BD0412820D020
:106E500040381F2802D978460BF0FCFD00231A4663
:106E6000822139E053282ED05428F1D12378012BE8
:106E700012D10BF023FF1022014602A816F065FF85
:106E800010231EE000231A46822100F047F906B0C5
:106E900010BD2378012B03D000231A468421F4E788
:106EA000684613F0DDFE9DF800300622C3F346036A
:106EB0000DF101010DF109008DF8083016F045FFC4
:106EC000072302AA07E02378112BE5D1A01C0BF0C1
:106ED000CFFE00231A4600216078D6E710B504469D
:106EE0004078782811D12046002210F8021B013981
:106EF0000BF08CFB647800F0DBF8002301461A46A7
:106F00002046BDE8104000F009B900231A4682214E
:106F1000F7E7000038B5054D2C782CB9FFF7AAFC2F
:106F200001232B70204638BD0820FCE77333002076
:106F300010B50B4B1B78022B10D1FFF7D7FC0428A0
:106F4000044604D0092802D020B9204610BD01F023
:106F5000C7FAFAE778460BF07DFDF6E70824F4E778
:106F60007333002010B5064B1B78022B044602D069
:106F700078460BF06FFD2046BDE81040FFF7C8BC17
:106F8000733300207FB5374D2B78012B25D0364B3E
:106F90001B681A0416D5354B1B68012B12DD2F21F7
:106FA000334816F0ADFF78B12F21314816F0A8FF15
:106FB000411C304B304AD3F804350092022099220C
:106FC00010F0D0FD08242EE05C21294816F098FF2F
:106FD00008B15C21E9E72649EBE7022603A9042072
:106FE0002E70FFF7A5FF044648B31F4B1B681B0418
:106FF00017D51E4B1B68002B13DD2F211C4816F0E4
:107000007FFF98B12F211A4816F07AFF411C194BC7
:107010001A4AD3F8043500920194A322012010F0FB
:10702000A1FD01232B70204604B070BD5C211048E7
:1070300016F066FF08B15C21E5E70D49E7E7039B21
:1070400081225A70039B9E704FF08043039AD3F8BD
:10705000003403F00803D3700398FE230371FFF795
:1070600081FFE0E773330020682E0020642E0020AB
:10707000A3E1030000100140BFE10300D0E10300E1
:1070800038B5084C25785DB9074B1B78022B07D122
:1070900001232946054823700FF080FC00B12570BC
:1070A00038BD00BF723300207333002075710200B9
:1070B000092823D009D8032826D001D818B9704749
:1070C000072819D016D9832070470E281CD008D85D
:1070D0000B2815D0F7D30C2810D00D2812D0802003
:1070E000704710280CD005D311280FD043F20103AC
:1070F0009842F4D18E2070478520704784207047D5
:107100008720704793207047812070478620704702
:10711000014B1878704700BF73330020F7B507465E
:107120000E461C461546EAB1F3B1114B1B78022BF3
:1071300016D1E01C01A980B2FFF7FAFE80B9019BCD
:1071400084225A70019B9F70019BDE702DB10198C3
:1071500022462946043016F0F8FD0198FFF702FF99
:1071600003B0F0BD002BE0D078460BF073FCDCE7F9
:107170007333002070B5274B274C284D284E002232
:10718000C2B01A7002A8FFF761FC08B942B070BD26
:107190009DF80910002314F8330088424FEAC30217
:1071A00007D822445078884203D3536802A89847EE
:1071B000E8E70133092BEED12B681B0418D5194BD6
:1071C0001B68012B14DD2F21174816F099FEB8B16A
:1071D0002F21154816F094FE411C9DF80920D6F881
:1071E00004350192114A00920220812210F0BAFC6B
:1071F00000231A4682219DF80900FFF78FFFC1E79F
:107200005C21094816F07CFE08B15C21E1E70649E3
:10721000E3E700BF7233002044E10300682E002042
:1072200000100140642E0020A3E103008CE1030064
:10723000064B984206D003F59A73984204D1012078
:10724000C0B270470020FBE7FF20704724370020C2
:1072500037B5037804460C2B73D8DFE813F00D0024
:107260003300420074007D00E300F700B6007200B6
:1072700052008600CB000C01844B1B78002B60D0A1
:1072800001A91A20FFF754FE00285AD1019BC02201
:107290005A70019D1022211DA81C16F056FDE369AD
:1072A00093F90D30AB74237DEB74E3699B7BC3F3DF
:1072B00046032B75E16906220F3105F1150016F022
:1072C00044FD3BE001A90220FFF732FE002838D13F
:1072D000019BC1225A706068FFF7AAFF019B98705A
:1072E0002CE001A90320FFF723FE50BB019BC22223
:1072F0005A706068019AFFF79BFF9070237AD370F1
:107300001CE001A90B20FFF713FED0B9019BC3229B
:107310005A706068019AFFF78BFF9070237AD370E0
:10732000E37A1371237B5371637B9371E389A2F832
:107330000730237C5372B4F8113053810198FFF762
:1073400011FE03B030BD01A90320FFF7F1FD0028B5
:10735000F7D1019BC422CBE701A90220FFF7E8FD8A
:107360000028EED1019BCA22B4E701A92C20FFF727
:10737000DFFD0028E5D1019BC5225A706068019DA0
:10738000FFF756FFA870E368D3F81230C5F8033052
:10739000E368DB8AA5F80930E3681B8AA5F80730A3
:1073A000E3681B7EC3F30003EB72E3681B7EC3F349
:1073B00040032B731022A16805F10D0016F0C5FCE7
:1073C0001022E16805F11D0079E701A90520FFF70A
:1073D000AFFD01460028B4D1019BC6225A706068F7
:1073E000019AFFF725FF0123D370907011711023CC
:1073F0005371A3E701A96220FFF79AFD0028A0D1ED
:10740000019BC7225A706068019DFFF711FFA870A9
:107410004022A168E81C16F098FC2022E16805F1E2
:1074200043004CE701A91320FFF782FD002888D113
:10743000019BC8225A706068019DFFF7F9FEA87091
:10744000237AEB70627AE168281D38E701A90520EC
:10745000FFF76EFD00287FF474AF019BC6225A70BF
:107460006068019AFFF7E4FE03239070D370237ADB
:107470001371637ABCE701A90320FFF759FD0028C7
:107480007FF45FAF019BC92232E700BFD7390020EC
:1074900007B5244B1B681B0418D5234B1B68032B13
:1074A00014DD2F21214816F02BFD002830D02F218C
:1074B0001E4816F025FD411C1D4B1E4AD3F804350D
:1074C0000092042040F20B1210F04CFB1A491B48AA
:1074D00008F0DAFC10B178460BF0BCFA184809F055
:1074E00011FD0146174808F0BBFC10B178460BF0BF
:1074F000B1FA154809F006FD0146144808F0B0FC41
:1075000010B178460BF0A6FA002003B05DF804FB3A
:107510005C21064816F0F4FC08B15C21C8E7034979
:10752000CAE700BF682E0020642E002006E2030098
:10753000001001402FE2030004370020973900209B
:1075400074330020243700203C35002058380020B8
:1075500070B54378613B8AB00446092B7FD8DFE8D9
:1075600013F00A0022002E0082007E009900B00075
:10757000C900DE00EA007B4B1A7832B100231A46BC
:1075800083216120FFF7CAFD69E0012276481A7065
:1075900008F091FD10B178460BF05CFA00231A4612
:1075A00019466078EEE76F4A13781BB91A468321B3
:1075B0006220E7E70025157008F085FDEEE7837887
:1075C000012B4ED81922002103A816F0C9FB102266
:1075D00004F1130103A816F0B8FB022204F1230101
:1075E00007A816F0B2FB042204F125010DF11E00DC
:1075F00016F0ABFB022204F129010DF1220016F076
:10760000A4FB94F82B209DF82430A078574D5849BE
:1076100062F3000394F82C2062F341038DF82430C8
:107620004FF49A76504B0093524A534B06FB00504E
:1076300008F0FCFB50B9A07894F82D2001230093AA
:10764000E11C03AB06FB005008F07CFCA3788DF82E
:107650000C300146012303AA6320FFF713FA0AB096
:1076600070BD0B20F2E7404B0093424A424B404929
:107670003E4808F0DBFB28B90246014601233B489F
:1076800008F01BFC6478FFF713FD002301461A463F
:10769000204677E78578012D11D8C17843790279A2
:1076A00032484FF49A7606FB050008F077FC014655
:1076B0000AAAA37802F81C3D66200123CDE70B211E
:1076C000F6E78378012B13D80146284811F8032BDD
:1076D0004FF49A75023AD2B205FB030008F06AFC37
:1076E00001460AAAA37802F81C3D67200123B4E7EB
:1076F0000B21F6E78378012B0FD81C4AC11C4FF4ED
:107700009A7000FB032008F0CFFC01460AAAA37878
:1077100002F81C3D682001239FE70B21F6E7811C3E
:107720002022144816F011FB402204F122011048D7
:1077300016F00BFB32E7104A837813700023937026
:1077400001215170C178D17001791171017A1172E2
:10775000B0F80910A2F8091041795171C188D1809F
:107760001DE700BFD73900205172020024370020E6
:1077700097390020043700208C39002013B5037896
:10778000073B0446062B29D8DFE803F0334F5D752D
:1077900090042A0001A91620FFF7CAFBF0B9019B4B
:1077A000A5225A70019B22799A702346019853F8BA
:1077B000052FC0F803205A68C0F807201B89A0F8DD
:1077C0000B30019854F80F3FC0F80D306368C0F8D3
:1077D00011302389A0F81530FFF7C4FB02B010BDAB
:1077E00001A91620FFF7A4FB0028F7D1019BA622D0
:1077F000D7E701A90D20FFF79BFB0028EED1019BE5
:10780000A0225A70019B22799A702346019853F85E
:10781000052FC0F803205A68C0F807201B89A0F87C
:107820000B300198E37B4373D6E701A90220FFF7F1
:107830007FFB0028D2D1019BA1225A70019B2279A3
:107840009A700198C8E701A90D20FFF771FB002885
:10785000C4D1019BA2225A70019B22799A70019B8C
:107860006279DA70019854F8063F43606368836078
:1078700023898381B0E701A90E20FFF759FB002877
:10788000ACD1019BA3225A70019B22799A70019B73
:107890006279DA702346019853F8062F42605A68DD
:1078A00082601B898381237C837395E701A915205E
:1078B000FFF73EFB002891D1019BA4225A70019B47
:1078C00022799A702346019853F8052FC0F80320B7
:1078D0005A68C0F807201B89A0F80B30019823696B
:1078E000C0F80D306369C0F81130237E437573E72B
:1078F0000248034B03600EF033B900BFD8390020B3
:107900007D77020010B504464078A0F1D003062B25
:107910008AB00BD84E4A2178D25C914206D000231F
:107920001A468421FFF7FAFB0AB010BD062B00F2BD
:107930008280DFE803F0040D14191C404C000AF0AB
:1079400007FC6478FFF7B4FB00231A46014630E0D9
:10795000D4F80D20A078E11C0AF0B8FEF1E7E11C94
:10796000A0780AF0FFFEECE70AF030FFE9E769468D
:10797000A0780AF041FF647801460028E2D19DF822
:1079800000308DF814300AAB53F8272DCDF81520B0
:107990005A681B89ADF81D309DF80B308DF81F30EB
:1079A000039B0893049B09931423CDF819200DEB36
:1079B00003022046B6E72378022B04D000231A46A0
:1079C0008421D520AEE7A0780AF02EFFB9E723780E
:1079D000012B04D000231A468421D620A2E70021DF
:1079E0000A220DF1020016F0BBF968460AF0D0FB3E
:1079F000647801460028A5D19DF800308DF8143038
:107A00009DF801308DF81530DDF80230CDF81630D4
:107A1000DDF80630CDF81A30BDF80A30ADF81E306A
:107A20009DF80C308DF820309DF80D308DF8213008
:107A300005AA0E23BDE73030C0B20F2802D9784620
:107A40000BF008F800231A46822160786AE700BF2D
:107A500051E20300F8B503780446032B7FD8DFE832
:107A600003F00272536207893D4EEB2F384628BF60
:107A7000EB201430314680B2FFF75AFA00286ED15D
:107A800035682389A5F81330237D012B2FD1D0230E
:107A90006B70E38AAB80E3896B80206A04F044FA60
:107AA000E880E06904F02CFA288194F82430AB7265
:107AB000A36A9B7BC3F34603EB72A16A06220F31D4
:107AC00005F10C0016F041F9A36A93F90D30AB747F
:107AD00047B1EB2F3A46616828BFEB2205F115004C
:107AE00016F033F93068BDE8F840FFF73BBAD12310
:107AF0006B70291D04F1140004F0A8F90028CAD005
:107B000078460AF0A7FFC6E7154D05202946FFF77E
:107B10000FFA20BB2B68D3225A702B68E268C3F897
:107B200002202868DFE70E4D04202946FFF700FAFF
:107B3000A8B92B68D4225A702B68A2885A8028686A
:107B4000237B0371CFE7064D05202946FFF7F0F9A7
:107B500028B92B68D2225A702B686268DFE7F8BD1B
:107B6000F039002010B5044602F0BBF903F0A4FF81
:107B70000DF066F9002360781A461946BDE81040FA
:107B8000FFF7CCBA10B58CB000210446242203A81C
:107B900016F0E6F80DF0ECFF03A90190E08804F080
:107BA000BDF8002839D102A804F03AF8A288BDF83F
:107BB00008108A423AD3BDF80A300B449A4235DAAB
:107BC00009AA61884FF6FF7004F062FE28BB627953
:107BD000237943EA0223ADF81430237A8DF8163066
:107BE000637A003318BF01238DF81730A37A8DF81C
:107BF000183023780B2B83BF0B3B04F10C02ADF83C
:107C00002030079098BFADF82000019B88BF0792F5
:107C1000002103A80B930DF0A1FF042301460DEBF7
:107C200003026078FEF72EFF0CB010BD1020F4E7C1
:107C300007B502AA102322F8043D00210223407850
:107C4000FEF720FF03B05DF804FB13B50446684659
:107C500003F0E6FFBDF80030ADF80430BDF80230A7
:107C6000ADF8063004230DEB030200216078FEF727
:107C700009FF02B010BD07B502AA012322F8043D96
:107C8000002102234078FEF7FDFE03B05DF804FBFF
:107C900007B502AA082322F8043D002102234078F8
:107CA000FEF7F0FE03B05DF804FBFFF7F1BF07B588
:107CB00002AA042322F8043D002102234078FEF7A3
:107CC000E1FE03B05DF804FB10B5C0B07E230446AE
:107CD000694601A8009304F081F8009B0146607892
:107CE00033B15B009BB201AAFEF7CCFE40B010BDE1
:107CF0001A46F9E730B589B069460446408804F071
:107D00000DF816220546002102A816F029F80DBB31
:107D1000A378E27843EA0223ADF8083068469DF87C
:107D200000308DF80A3005F003F80199BDF80230F3
:107D30008DF80B00ADF80C3071B110220DF10E0072
:107D400016F003F8162302AA29466078FEF79AFE79
:107D500009B030BD0023F6E70623F4E713B5044667
:107D6000408803F091FFE278A37843EA022302AA55
:107D7000014622F8043D60780223FEF783FE02B03C
:107D800010BD13B504460DF10601023003F078FF73
:107D900002AABDF8063022F8043D014602236078AD
:107DA000FEF770FE02B010BD13B504460DF10601DA
:107DB000408803F045FF02AABDF8063022F8043DD2
:107DC000014602236078FEF75DFE02B010BD13B5D8
:107DD0000446408803F0D4FFE278A37843EA022304
:107DE00002AA014622F8043D60780223FEF74AFE0B
:107DF00002B010BD13B504460DF10601023003F0C8
:107E00006EFF02AABDF8063022F8043D01460223A7
:107E10006078FEF737FE02B010BD13B504460DF1D1
:107E20000601408803F058FF02AABDF8063022F888
:107E3000043D014602236078FEF724FE02B010BD27
:107E400013B5C278837843EA0223ADF8043042794F
:107E50000379044643EA022301A8ADF8063003F093
:107E6000A3FE002301461A466078FEF70BFE02B01F
:107E700010BD13B50446408804F05AFBE278A3789D
:107E800043EA022302AA014622F8043D6078022355
:107E9000FEF7F8FD02B010BD13B5821D044601AB1C
:107EA0008188408804F0B2FA0223014601AA607872
:107EB000FEF7E8FD02B010BD30B5C1B07D230093E0
:107EC00040AC05460DF10601408824F8FC0D6A46D9
:107ED00004F09EFC009B0146687823B91A46FEF721
:107EE000D1FD41B030BD01335B009BB22246F6E7C5
:107EF00013B50446408804F01FFCE278A37843EAF7
:107F0000022302AA014622F8043D60780223FEF70C
:107F1000B9FD02B010BD13B50446011D408804F040
:107F2000B9FBE278A37843EA022302AA014622F8C9
:107F3000043D60780223FEF7A5FD02B010BD13B525
:107F4000821D04460DF106038188408804F00CFB75
:107F500002AABDF8063022F8043D014602236078EB
:107F6000FEF790FD02B010BD10B5C0B07E230446F0
:107F7000694601A8009304F01BFA009B0146607853
:107F800023B91A46FEF77EFD40B010BD5B009BB2E0
:107F900001AAF7E713B50446408804F0E5FBE27850
:107FA000A37843EA022302AA014622F8043D60783E
:107FB0000223FEF767FD02B010BD13B50446011D94
:107FC000408804F0C7F8E278A37843EA022302AAC3
:107FD000014622F8043D60780223FEF753FD02B00B
:107FE00010BD13B504460DF10602011D408804F0D2
:107FF00009F802AABDF8063022F8043D0146022322
:108000006078FEF73FFD02B010BD10B544780DF06A
:108010008FFD002301461A462046BDE81040FEF7BA
:1080200031BD10B544780DF02DFD002301461A46F0
:108030002046BDE81040FEF725BD00000248034B76
:1080400003600DF08DBD00BFE4390020557A0200B9
:1080500070B543787033DBB21F2B054602D97846E2
:108060000AF0F8FC6878AC2806D900231A46822169
:10807000BDE87040FFF752B8A0F190060E4C14F81E
:108080003620824202D078460AF0E4FC04EBC603B4
:1080900029785A788A4204D298780132024491426F
:1080A00004DD00231A4684216878E1E728465B68EE
:1080B000BDE87040184700BF58E2030038B50D4CCA
:1080C000636805460BB9002038BD0422214615F02F
:1080D0002DFE58B12369002BF5D0042204F10C01C8
:1080E000284615F023FE0028EDD101200C2303FBC8
:1080F0000040E9E7F439002070B5C0B00546694694
:10810000408802F067FB0446E0B96846FFF7D6FFF7
:10811000B8B140AE836806F8FC4DA81C31469847BC
:108120009DF8043004466BB16C78FEF7C1FF9DF8F2
:1081300004300146013332462046FEF7EFFF40B0DF
:1081400070BD052420466D78FEF7B2FF002301467E
:108150001A462846F1E737B5851C04462846FFF73E
:10816000ADFF0023ADF8043080B143680DF1060186
:1081700028469847BDF80630ADF804300146022382
:1081800001AA6078FEF77EFC03B030BD0521F6E75A
:1081900030B51B4DC1B00446FA22002101A815F0EC
:1081A000DFFD6B68F3B104220DEB0203981C294636
:1081B00015F0CBFDBDF804002B69013080B2ADF89D
:1081C00004007BB13D2819D801AB03EB80000422E9
:1081D00005F10C01023015F0B8FDBDF80430013393
:1081E000ADF804300021BDF8043060789B00023304
:1081F0009BB201AAFEF746FC41B030BD0C21F2E76C
:10820000F439002010B54378FF2B044602D178469C
:108210000AF020FC204603220249BDE81040FEF788
:1082200046BC00BF40E3030010B504220446002111
:10823000054815F095FD002360781A461946BDE8FB
:108240001040FEF76BBF00BF483B002013B504226F
:10825000044600210DEB020015F082FD054B60780D
:108260001B68019304230DEB03020021FEF756FF68
:1082700002B010BD483B002007B502AA0A2322F82D
:10828000043D002102234078FEF748FF03B05DF86B
:1082900004FB00231A4682214078FEF73FBFFFF718
:1082A000F8BF000037B58478054684BBD0F80510C8
:1082B000184812F09CFC05222146684615F050FD36
:1082C00029799DF80330224641FA02F0C00708D50B
:1082D00002AC581C234402F1250403F8084CC3B235
:1082E00001240132032AEFD10CB18DF80330094883
:1082F000694612F02EFC00206C78FEF7D9FE0023B0
:1083000001461A462046FEF709FF03B030BD07209C
:10831000F2E700BF103A002070B584780546BCB97A
:108320000D4E3378012B15D1301D12F08AFCAA783E
:108330004FF49E7353432046F4546C78FEF7B8FE16
:10834000002301461A462046BDE87040FEF7E6BE0F
:108350000720F2E70820F0E70C3A00202DE9F04171
:10836000847805465CBB0678DFF85C80023E3146C7
:1083700008F1040012F07AFB074610B3FF230371E3
:108380003246E91C113015F0E0FCA8784FF49E76D7
:1083900006FB00800430394612F0A3FBAB785E4345
:1083A000012308F8063020466C78FEF781FE002392
:1083B00001461A462046BDE8F041FEF7AFBE072051
:1083C000F2E70420F0E700BF0C3A002010B50446A5
:1083D00001200DF01FFC002360781A468E21BDE8B5
:1083E0001040FEF79BBE13B5044601A90078FEF7C6
:1083F0009FFD60B9019B82225A70019810F8022BF0
:10840000A11C013A15F0A1FC0198FEF7ABFD02B0EA
:1084100010BD00002DE9F7438578044645B10023DF
:108420001A4685216078FEF779FE03B0BDE8F08337
:10843000194E8DF800508DF80250A6F178074FF0D4
:10844000010897F87B30AB4210D87B6F4FF47A72FB
:1084500003F5FA73B3FBF2F3CDF8033097F82C3041
:108460008DF801306A4607230021DBE73378253B8E
:10847000022BB14602D978460AF0ECFA99F800309E
:108480009DF80220253B08FA03F3134301368DF8CB
:1084900002300135D5E700BF843A002010B5064A06
:1084A000141D20469C23A032002112F0F5FB20462B
:1084B000BDE8104012F0C0BA0C3A002010B5437865
:1084C0001F2B044602D978460AF0C4FA20460B2234
:1084D0000249BDE81040FEF7EABA00BF58E30300C6
:1084E000034A1368591C1CBF01331360704700BF57
:1084F000483B002038B50546FEF70AFE98B9FEF75E
:10850000C7FF044668B9FEF705FD044648B9FFF702
:10851000C5FFFFF793FDFFF7EBF915B1284600F013
:1085200007F8204638BD0824FBE7FEF72BBD000006
:10853000014B1860704700BF4C3B002010B5094B41
:108540001B6804465BB110F8021B013998470023F1
:108550001A4619466078BDE81040FEF7DFBD1A469E
:108560008E21F7E74C3B002010B50749074807F07C
:108570008BFC024638B90649064809690123BDE863
:10858000104007F09ABC10BD6C3B0020883E0020D4
:10859000543B0020543D002010B50378023B082BCB
:1085A0002CD8DFE803F01B05102B2B2C2B2B3800CD
:1085B0001E4B5B6813B3007A00B31D4A0121117092
:1085C000BDE810401847194B9B68BBB1184A117899
:1085D000A1B100211170BDE810401847154B1A7861
:1085E000124B42B9DB6813B111490A709847BDE8D4
:1085F0001040FFF7B9BF1B68002BECD110BD0B4B2F
:108600000D485969102207F0D5FC0028F6D0BDE8C6
:10861000104014F021B8D0E902100AF03DFA08B178
:1086200014F01AF8034B01221A70E7E7543B0020BC
:10863000503B0020513B0020543D002070B5164AAD
:10864000164E5168044686B0106803AB03C3118907
:10865000927A19809A700FCC35460FC594E80300C2
:1086600085E803007369A3B10D4B00930D4A0E49D1
:108670000E4803AB07F0DAFB48B90D4808F042FC9E
:1086800001460A4807F0ECFB08B9FFF76DFF06B09A
:1086900070BD0720FBE700BFB0E30300543B0020A0
:1086A000998502006C3B0020883E0020543D00204C
:1086B0008C3B002070B5104C206808B913F0CCFF3B
:1086C0004FF0A0450D4ED5F8043532685340C5F83B
:1086D00004352368013B236063B9094813F020FE89
:1086E0003268D5F8043523EA0203064A12681343B8
:1086F000C5F8043570BD00BFC83E0020CC3E002048
:10870000D03E0020F83E00204FF0A04311B1C3F846
:108710000C057047C3F8080570470000F8B52AB388
:10872000132923D9124B134D5200013A4FF0A044A4
:108730001A602860D4F8043518400F4B4FF4FA76CD
:10874000186000274FF40040E0FB01674FF47A7295
:1087500000233046394615F021F90022014607482A
:1087600013F09AFD10B92B68C4F80C35F8BD00BFA2
:10877000C83E0020CC3E0020F83E0020D03E002025
:1087800008B54FF0A04303224FF40031C3F844274B
:10879000C3F808154FF48021C3F84827C3F808151B
:1087A0004FF40021C3F84C27C3F80815C3F850272D
:1087B0004FF48012C3F808250121054A054813F03B
:1087C00059FD18B1BDE8084013F046BF08BD00BF11
:1087D000B5860200BCE30300124B70B50024124EB4
:1087E000124DC3F87C414FF0A043A15DD3F8102592
:1087F00001238B40934311D00D49D5F804250B6814
:10880000981A48BFD01A43F23333984206D9D5F8A4
:1088100004350B60074B20461B6898470134042C35
:10882000E1D170BD00600040C0E3030000100140D2
:10883000F43E0020F03E002070B50446CEB0002883
:1088400064D03C4D2A6852042FD53B4B1B68032B48
:108850002BDD3A4B0DAE19680023E25C100902F0E3
:108860000F02085C06F81300885C06EB4302013334
:10887000102B5070F1D100232F21314886F8203081
:1088800015F03EFB002843D02F212D4815F038FB72
:10889000411C2C4B2C4AD3F8043501922B4A0092F0
:1088A0000296412204200FF05DF92B685B042DD560
:1088B000214B1B68032B29DD2F21214815F020FBBC
:1088C00000282ED02F211E4815F01AFB411C1D4BED
:1088D000E27BD3F804350B92A27B0A92627B099269
:1088E000227B0892E27A0792A27A0692627A059235
:1088F000227A0492E2880392A2880292226801926C
:10890000134A0092042046220FF02CF94EB070BD9D
:108910005C210B4815F0F4FA08B15C21B5E7084971
:10892000B7E75C21064815F0EBFA08B15C21CAE70D
:108930000349CCE7682E0020642E00206C2E002016
:10894000C4E3030000100140ECE30300FEE3030076
:1089500006E4030060DF704769DF70470DF002B97D
:1089600010B588B000F04AF908B113F075FE2B4B32
:108970000393039B04930C22002105A815F0F0F942
:108980000023049A8DF8143005A90120FFF7E4FFB5
:1089900008B113F061FE0C22002105A815F0E0F9E2
:1089A000F823049A059305A9A120FFF7D5FF08B184
:1089B00013F052FE04A8FFF7CDFF039B049A9A42DE
:1089C00004461CD0164B1B685B0418D5154B1B685E
:1089D000012B14DD2F21144815F092FAA8B12F2194
:1089E000114815F08DFA411C104B049AD3F8043548
:1089F00001920F4A00920220A2220FF0B3F814B1A4
:108A0000204613F029FE08B010BD5C21064815F081
:108A100077FA08B15C21E3E70349E5E7A02D0020E0
:108A2000682E0020642E002046E403000010014060
:108A300076E4030070B5EFF3108672B60C4A9468C2
:108A400001239CB993600B4B0B4DD3F88010294048
:108A50001160C3F88050D3F8841051604FF0FF329A
:108A6000C3F88420047006B962B670BD0370FAE7DB
:108A7000E060002000E100E0FC06FFBD10B5084BFF
:108A80009A685AB150B9EFF3108172B6054A1C6862
:108A900014605C685460986001B962B610BD00BF94
:108AA000E060002000E100E001600B6843604A687C
:108AB000934204BF002343607047436843B1026898
:108AC00091680B4443605268934204BF00234360A3
:108AD00070474BDF704700001FB50D4C01A8FFF732
:108AE000F8FF70B9214602A8FFF7DEFF039B002BB9
:108AF000F4D00198D3E90021904702A8FFF7DDFFE9
:108B0000F4E7052801D013F0A7FD04B010BD00BFA5
:108B1000B0E4030061DF704730B5114B1B7891B0B2
:108B2000E3B1104D34240DF1020103A8ADF8024069
:108B3000FFF7F0FF70B9294601A8FFF7B5FF029BC8
:108B4000002BF0D003A8D3E90021904701A8FFF73C
:108B5000B4FFF4E7052801D013F07EFD11B030BD5D
:108B6000FC3E0020BCE4030010DF704713B5044650
:108B700009496846FFF798FF019808B902B010BD8F
:108B8000D0E900312046984718B16846FFF795FFB5
:108B9000F2E71120F2E700BFCCE4030013B504466E
:108BA00007496846FFF780FF019B0BB902B010BD73
:108BB0002046D3E9002190476846FFF77EFFF3E7A0
:108BC000E4E403000B4991F816335A09EC231341EE
:108BD000DB0706D5084B9A683AB94FF480030B605F
:108BE000704742F2020013F037BD1A6842F4800267
:108BF0001A60704700E100E0E0600020F7B5184F10
:108C00003C785CBB174E012520463570FFF7AEFF60
:108C1000112820D02046FFF7C1FF134B18680190A0
:108C200002A800F8054DFFF705FF104901A8FFF75E
:108C30009BFF0446B0FA80F0400938709DF80300AD
:108C4000FFF71CFF3CB90A4B34701C70FFF7BAFFEA
:108C50002846FFF7A3FF204603B0F0BD0824FAE73B
:108C6000FE3E0020FD3E0020C8E40300552803001E
:108C7000FF3E002007B508496846FFF715FF019B36
:108C800013B903B05DF804FBD3E9002090476846B0
:108C9000FFF713FFF3E700BFD8E40300FFF7EABFD5
:108CA00038B5837803F003020446032A22D8DFE8AC
:108CB00002F00214191D9B08154A16481268134445
:108CC0000268A3600021EAB195685D1B002D16DAE9
:108CD000D1B91146E160046038BD9B0803EB830302
:108CE0005B00E9E79B0864225343E5E79B0841F2F8
:108CF0007072F9E7784609F0ADFE0023DCE7114613
:108D0000D268E0E70029E5D0CC60E260E4E700BF8C
:108D1000183F0020203F002008B5032809D8DFE8CD
:108D200000F00D020406064808BD0648FCE70648A8
:108D3000FAE7784609F08EFE0020F5E70348F3E7EE
:108D400040420F00809698000046C323A086010091
:108D50002DE9F041574D2B78A3B1574B574E5C6826
:108D60000DF064F9241A3078FFF7D6FF3278544BAF
:108D7000001B002A40D14CF2503290423CD91A6874
:108D800001321A60DFF84881D8F80020002A00F08C
:108D900087804A4E9378307803F003038342344649
:108DA00064DD474B97681B68FB1A464F5F43FFF72C
:108DB000B3FFD8F80030B7FBF0F09F78C7F3010796
:108DC000FBB2022B1FD031D8012B47D10A22B0FBB6
:108DD000F2F302FB1300002840D10DF027F900F553
:108DE000742101F5107137702B78002B50D0324868
:108DF000BDE8F0410DF0F1B81A683249B0FBF1F06E
:108E000010441860BEE7337863B96422B0FBF2F314
:108E100002FB130010BB0DF009F92B49022301449A
:108E20002370E1E7012B19D10A22EFE7337863B908
:108E300041F27072B0FBF2F302FB130070B90DF057
:108E4000F5F8224903230144EAE7012B02D14FF44C
:108E50001672EFE7022B01D13C22EBE70DF0E6F8AA
:108E600006462078FFF758FF3118BDE70DF0DEF811
:108E7000D8F800300446987800F00300FFF74CFF64
:108E8000D8F800309B78C3F3010321183370ABE7A7
:108E90000948012341602B70BDE8F0410DF064B832
:108EA0002B7823B10448BDE8F0410DF07FB8BDE850
:108EB000F08100BF1C3F0020003F00201D3F00202C
:108EC000183F0020A0860100809698000046C3232A
:108ED000203F00202DE9F341244B1B78032B2AD897
:108EE000DFE803F0021B1F23214A136801331360DC
:108EF000204B214E1E4D00221A70B04634683CB102
:108F0000A3682A6893421AD02A689B1A002B16DBA2
:108F1000FFF71EFF02B0BDE8F081154A13680A335F
:108F2000E5E7134A13686433E1E7114A136803F570
:108F3000BB531033DBE7784609F08CFDD8E7278870
:108F4000E368C8F8003002A9002341F8043D384620
:108F500001F0ACFC10B1784609F07CFD384663683E
:108F6000019998472046FFF79BFEC7E71D3F002069
:108F7000183F00201C3F0020203F002010B5084C67
:108F800018220021204614F0EBFE064B064AA3608F
:108F900000231360054A1360054A137010BD00BF1B
:108FA000003F0020D58E0200183F0020203F002007
:108FB0001C3F0020F8B50F461646044610B9784607
:108FC00009F048FD124D0DF003FD2B6800220BB196
:108FD000A34216D1A17867F3010166F38701A1705E
:108FE0009BB1DB6882B92B602EB12046FFF758FE9B
:108FF0002B689C4201D1FFF7ABFEBDE8F8400DF0B5
:1090000027BD1A46DB68E2E7D360002EF5D0ECE717
:10901000203F00200A4B93F8390093F85D2080F040
:109020000100404280B24AB14FF6FF72904204D034
:10903000586D1B6BC01AC00F70470120704700BFEE
:10904000243F002038B5154C242303FB004305467C
:1090500093F8393013B9784609F0FCFCB4F8603065
:1090600013B9784609F0F6FC242202FB05430021DF
:1090700083F83910B4F86030013B9BB2A4F860303B
:109080001BB94FF6FF73A4F8623002FB0544A06AD7
:1090900011F023FB0023A36238BD00BF243F002052
:1090A0002DE9F84F2C4DB5F86030064613B97846D7
:1090B00009F0D0FC294C06F57A7B00274FF0010916
:1090C00048F2111A637C1FFA87F8C3B1A368A3EBB7
:1090D0000B03002B13DAA3882268A4F11001404689
:1090E00000F0E6FE102827D809FA00F313EA0A0F69
:1090F00025D11B4A13421ED04046FFF7A3FF24345C
:10910000BFB1FFF787FFB5F86030A5F862000BB379
:10911000012802D9784609F09DFCB5F86230242276
:1091200002FB03531B6B9A1B48BFF21AEA60BDE8AF
:10913000F88F0127C6E710B1784609F08BFC237C35
:10914000013BDBB22374002BD6D0D4E902321344A6
:10915000A360D4E7EB60EAE7243F00204C3F002007
:10916000A002010010B5064C64220021204614F034
:10917000F7FD044BA3604FF6FF73A4F8623010BDF7
:10918000243F0020A19002002DE9F0470128064667
:10919000884617469A46BDF8209002D9784609F0CD
:1091A00059FCB8F1000F02D1784609F053FC17B909
:1091B000784609F04FFC98F800305B0702D17846FA
:1091C00009F048FCBAF1000F02D1784609F042FCE0
:1091D000B9F1000F02D1784609F03CFC274C24235A
:1091E00003FB064393F8393013B13046FFF72AFFEB
:1091F0000CF01CFF844697E80F00242505FB06456C
:1092000005F1180E8EE80F00C5F828A0A5F82C90DF
:1092100098F80030C3F3020385F8383098F800005E
:10922000C3084CF2503003FB0000012385F83930AD
:10923000B4F860306863604401332863A4F8603098
:10924000FFF7E8FEB4F86230834201D19E4213D1A9
:109250004FF6FF739842A4F8620002D1784609F0F5
:10926000F9FBB4F862300548242202FB0344216B69
:10927000BDE8F0470CF0B1BEBDE8F087243F002008
:109280004A09012301F01F0103FA01F150F82230CD
:10929000194214BF0120002070474FF6FF72B2EB55
:1092A000104F82B083B215D113F47F4007D003F47E
:1092B0004043B3F5004F14BF0020012006E023F027
:1092C0007F022AB97F3B18BF0123184602B07047BE
:1092D0000346FAE723F03F03C02BECE701289FBFCA
:1092E000054B382202FB003090F8340094BF00F0A8
:1092F00001000020704700BFC43F0020004700006D
:109300004388C3F30B03012B02D900200870704778
:10931000064A12F8331041F0010102F8331002EB53
:10932000C3034268D2435A60012070473440002092
:109330004388C3F30B0313B1002008707047024B3E
:1093400082881A80012070478A3F002007B51346A3
:109350004FF47042ADF804200122ADF806001A70F7
:1093600003480A4601A90EF03DFF03B05DF804FB77
:109370009C3F002070B51C460B89B3F5BE7F0546A7
:10938000164606D3092323602068B0FA80F040090E
:1093900070BDFFF7A3FF28B10C48382303FB05007D
:1093A00083890BB10523EEE73EB982884FF6FF7340
:1093B0009A4206D0C2889A4203D00868FFF76DFF30
:1093C00008B90723DFE70023DDE700BFC43F002023
:1093D000784609F03FBB000008B5094B0948002258
:1093E0001A70094B01221A700EF0EAFE20B10748EC
:1093F000BDE808400FF020B9054B187008BD00BF4C
:10940000C13F00209C3F0020C03F0020B02D002025
:10941000883F002010B50E4C70220021204614F029
:109420009FFC062200210B4814F09AFC1022002118
:10943000094814F095FC4FF0FF31084A61600123A0
:10944000E260A384E1636264A4F85C3010BD00BFF5
:10945000C43F00208A3F002034400020FFFF02006C
:109460002DE9F04FD5B0044607A80D460492994661
:10947000BDF8788102F0D4FB704BBDF81E10049A41
:10948000382000FB04308789B94205D84FF0100A14
:10949000504655B0BDE8F08FBDF81C10049108AEE1
:1094A000002A00F0968002F10C0103C9B2F81EB048
:1094B000B2F824A0127F86E80300002A00F0998009
:1094C000382202FB0434647CFF2C01D15C4B1C78F5
:1094D000B9F1000F02D1784609F0BCFAB8F1000FDB
:1094E00002D1784609F0B6FA0AAB184624220021C8
:1094F000059314F035FC504610AA594603F0C8F9FC
:10950000059B82460028C3D1049A9C7296E803000A
:109510001744AA7ADA72EA7A1A7383E80300EA68CF
:109520001F8151461846C3F81090A3F814801A62A0
:109530000CF014FB82460028AAD1424C2268920407
:109540001AD5414B1B68042B16DD2F213F4814F020
:10955000D7FC00284FD02F213C4814F0D1FC411CEF
:109560003B4B2A88D3F8043501923A4A00920520F1
:109570004FF4CE720EF0F6FA23689B0488D5324B76
:109580001B68042B84DD2989334B8029186828BF88
:109590008021002313AC8B4236D100222F212B488F
:1095A00004F8132014F0ACFC00283BD02F212748EE
:1095B00014F0A6FC411C264B284AD3F8043501922E
:1095C000274A0092029440F29D1205200EF0CAFA3A
:1095D0005EE7B0F804B0C0880593314602F09EFB08
:1095E00048BB7288002A3FF451AF4FF6FF7A059BC3
:1095F00066E714466CE75C21144814F081FC08B15E
:109600005C21A9E71149ABE76A68D25C160902F050
:109610000F02865D04F81360865C04EB430201339D
:109620005670B8E75C21094814F06AFC08B15C2167
:10963000BDE70649BFE74FF0050A29E7C43F002010
:10964000D02D0020682E0020642E0020A2E503000B
:1096500000100140BEE503006C2E0020D2E503009F
:10966000FEE3030030B5012A8DB004460D4604D157
:10967000784609F0EFF90DB030BD022AF8D0032A80
:10968000F9D12C22002101A814F06AFB11238DF8D6
:10969000043002238DF80830E368059301A823699C
:1096A000039506930AF0ACFDE5E700002DE9F041D3
:1096B0004E4B1B78002B00F096800DF089F94C4B37
:1096C0001B78BBB94B4C23786BB9062201214A4861
:1096D0000EF035FE70B102220125C5800281828024
:1096E0000EF05CFE25700024444DDFF80C81264608
:1096F000A1B21EB142480EF09FFF6CE015F8343065
:1097000003F00303032B4FEAC40711D1042241F4F1
:10971000405140460EF013FE002860D0EB195B6804
:10972000DB4343600EF03AFE7B5D23F002037B5582
:10973000002C56D0002EDDD1324C63799B070FD51B
:1097400002224FF480512C480EF0F9FD0028D1D0B0
:10975000228882800EF022FE637923F00203637177
:10976000294C94F8343003F00303032B16D1142250
:109770004FF4005120480EF0E2FD05460028B9D014
:1097800014222146043014F0E0FA28460EF006FEBA
:1097900094F8343023F0020384F8343094F86C30B9
:1097A00003F00303032B16D1142242F201011248E5
:1097B0000EF0C5FD054600289CD014221349043044
:1097C00014F0C3FA28460EF0E9FD94F86C3023F04B
:1097D000020384F86C30BDE8F0410DF039B9112670
:1097E000A6E7012484E7BDE8F08100BF883F0020A0
:1097F000C03F0020C13F00209C3F0020344000209B
:10980000C02D00208A3F0020C43F0020FC3F0020E4
:109810004A0901F01F034FF0FF31994050F8223000
:10982000194009D04B420B4004495943C90E044B1F
:10983000585C00EB421070471820704731B57C0728
:1098400082E503002DE9F04F85B0814692469846A7
:109850000E9F0D4611B9784609F0FCF803AB52464D
:1098600029464846FFF786FD18B9039805B0BDE8BC
:10987000F08F69882B884FF6FF72914230D1B3F593
:10988000807F34BF4FF0010B4FF0020B2E895E44F6
:10989000B6B2304610F01FFF044680B36A882B88AA
:1098A0004FF6FF708242D9B21DD06270120A217049
:1098B000A2702A89696804EB0B0014F046FA00963E
:1098C0002346524629464846FFF7CAFD039018B979
:1098D000B8F1000F00D077B9204610F0FEFEC4E7C3
:1098E0004FF0030BD2E713F47F4F1DBF1B0A237009
:1098F00061702170DDE7C8F800403E80B6E70420C3
:10990000B4E7000038B54388C3F30B03012B0446CA
:1099100010D8028A72B91B48382202FB0302D5898B
:10992000628A012D09D8954204D1174D15F832509D
:10993000ED0704D40020087038BD012A06D8124D66
:1099400015F8321041F0040105F8321038251422C0
:10995000211D05FB030014F0F8F9A188238A4FF6B6
:10996000FF729142094A4FF0060101FB03234FF0B9
:1099700001000BBF9A78DA78013201320CBF9A707D
:10998000DA70D9E7C43F0020344000208A3F00202D
:109990002DE9F04F87B006AB062243F80C2D0121CC
:1099A00004AA54480EF094FC044628B1524B0120FE
:1099B000187007B0BDE8F08FBDF81230012B09D048
:1099C0004E4B1B689B0473D402F076F8FFF704FD3E
:1099D000002052E0BDF81420022AF1D1BDF8102079
:1099E000022AEDD1464A474913704FF440500DF119
:1099F0000B02FFF7ABFC9DF80B30002BE0D0424B85
:109A000042495A791C8022F002025A715C800DF1A1
:109A10000B024FF48050FFF799FC9DF80B30002BA0
:109A2000CED00DF10B023A494FF40050FFF78EFCF7
:109A30009DF80B30EBB1E0B1364FDFF8ECA0B94642
:109A40004FF6FF78A346BB89434510D0F8884045C0
:109A500005D002F0F9F810B1784608F0FBFFFE8956
:109A6000022E10D1382303FB049383F812B0383749
:109A70003CB19DF80B000028A2D01F4B01221A70A8
:109A800097E70124DFE70AEBC606043600213046DB
:109A9000FFF7BEFE18280546E4D0A8B202F022F96E
:109AA00010B1784608F0D6FF691C1729EFD9D9E71D
:109AB000194B1B68002B87DD2F21184814F020FA62
:109AC00078B12F21154814F01BFA411C144B154A8C
:109AD000D3F804350092012040F2E2320EF042F851
:109AE00072E75C210D4814F00BFA08B15C21E9E73C
:109AF0000A49EBE79C3F0020883F0020682E0020A9
:109B0000C13F0020019302008A3F002031930200F0
:109B100005990200C43F0020642E0020A2E5030046
:109B200000100140F0E40300344000202DE9F04F24
:109B300000F114048FB00546204603F0F9F8814681
:109B4000002876D04FF6FF73ADF832302B7D012B15
:109B500072D10DA802F064F8EB8ABDF834209B1A8C
:109B60009BB209934E46554C4FF0000A002E7CD014
:109B7000A788099BFA1A5742574194F82C30E98B71
:109B800003F0010320460A93FFF77AFB29880B9024
:109B9000A28C68884FF00008904576D34FF00008FB
:109BA000C346474B1B689B0425D5464B1B68062BB9
:109BB00021DD2F21444814F0A3F9002875D02F216E
:109BC000414814F09DF9411C0B9A404BD3F80435E1
:109BD000CDF818B0CDE904720A9A039234F8062C35
:109BE000029234F8082C0192394A0092072040F280
:109BF00059420DF0B7FF0A9BBBB1B7B10B9BA3B1A4
:109C0000BBF1000F11D02B7D012B1FFA8AF704D175
:109C1000A26A2946384601F04BF8236AA26A03EB90
:109C2000C80329465B68384698473834BAF1000FB4
:109C300018D00FB0BDE8F08FEB8A04339BB2032B32
:109C40000AD90DF13201204602F000F940B1784600
:109C500008F000FF002686E700230646099382E706
:109C6000064680E74FF0010A80E7E08801280AD81D
:109C7000184BBDF8321003EBC0000430FFF700FBB7
:109C800000F0010779E73046FAE7236A03EBC80CD6
:109C900033F838308B4203D1BCF80230834202D013
:109CA00008F1010878E7CB467BE75C21064814F011
:109CB00027F908B15C2183E7034985E7CC3F002001
:109CC000682E0020642E0020A2E503000010014051
:109CD00012E50300344000202DE9F04303681D78AD
:109CE00005F0C002402AD1B004460FD003D86AB1B3
:109CF0000026354610E0802A00F09D80C02AF7D16A
:109D00009A785E78ADB246EA022605E0ADB27F2DC4
:109D100000F08E804FF6FF765A4B1A6812F4005FFF
:109D2000984619D0584B1B68042B15DD2F21574836
:109D300014F0E6F8002800F082802F21534814F038
:109D4000DFF8411C524B534AD3F804350092019579
:109D5000F62205200DF006FFE06902F0E5F88146E5
:109D6000A06902F0CDF84FF6FF739E42ADF8145093
:109D7000ADF8166027686BD1FF2D8CBF022301233D
:109D80004FF6FF721F4496420697A38862D1FF2DBB
:109D90008CBF022201229B1A227A8DF82020628930
:109DA000ADF82220E2680992227C8DF82820628A90
:109DB000ADF82A2062690B9294F820208DF83020AB
:109DC000626A0D92D8F80020ADF832909BB29204EE
:109DD000ADF81C30ADF8380027D52B4A1268042A9C
:109DE00023DD2D4A802B106828BF802300220FAC72
:109DF0009A4231D100232F21244804F8123014F064
:109E00007FF8002835D02F21204814F079F8411C24
:109E10001F4B224AD3F804350192214A0092029442
:109E200040F20D1205200DF09DFE05A8FFF77EFE05
:109E300051B0BDE8F0835B7843EA05256AE75C2111
:109E4000124814F05DF808B15C2177E70F4979E713
:109E5000032395E703229EE7B95C0D0901F00F018A
:109E6000455D04F81250455C04EB420101324D702F
:109E7000BEE75C21054814F043F808B15C21C3E754
:109E80000249C5E7682E0020642E0020A2E50300E9
:109E90000010014067E503006C2E00207AE5030006
:109EA000FEE30300037813B90430FFF715BF7047D2
:109EB000F0B5064685B014461D4681B17AB173B13E
:109EC00003AB0022FFF756FA10B9039805B0F0BDB6
:109ED0000095234600223046FFF7C2FAF6E70E202F
:109EE000F4E708B5FFF796FA00F024FFBDE8084054
:109EF000FFF772BA2DE9F0410446002800F0BC805B
:109F0000002900F0B980C3681BB18368002B00F002
:109F1000B3804FF6FF730B80E3681BB9A368002B77
:109F200040F0AC80A388002B40F0AA80574B1B78F0
:109F300013B10F20BDE8F081554DAB78E878C342EE
:109F400070D1D4E902870026B74240F08E800A889B
:109F50004FF6FF739A424F4B40D193F8342012F0E2
:109F6000010205D093F86C20D20700F18D80012208
:109F700038200A8000FB02324FF6FF76D6800A882E
:109F800000FB023296800A88A78800FB0232978184
:109F90000A88678800FB023257800A882788424374
:109FA0009F520A8800FB023046742088A288B04283
:109FB0004FF0060000FB02520BBF9078D0780130C2
:109FC00001300CBF9070D0700A88382000FB02323C
:109FD00092F8340040F0020082F8340008882569C5
:109FE000382202FB003005630888A56802FB0030B8
:109FF00085620888E56802FB003085850888646909
:10A0000002FB00308461088802FB0034A0820988CA
:10A0100002FB0133002093F8342042F0010283F860
:10A02000342087E71B4B20889A8966882AB95F8885
:10A03000B74202D11F8887420DD0B3F84420002ACE
:10A040007FF47FAF5A8FB2427FF47BAF1A8F824288
:10A050007FF477AF0122382000FB02330A8093F8A7
:10A060003430D8077FF56DAF63E758F83600FFF757
:10A0700014F938B1013667E70E205BE7092059E78C
:10A08000052057E7072055E7042053E7883F0020C5
:10A090008A3F0020C43F00207FB505460E4619B315
:10A0A0000DF10A030022009303ABADF80A20FFF77D
:10A0B000C9FB044688B90D48039B38226A438118BE
:10A0C000C97C49070CD002F11301BDF80A200092A7
:10A0D000014432462846FFF757F8204604B070BDC9
:10A0E000184610F0FAFAF8E70E24F6E7C43F00200D
:10A0F00013B514460A4639B134B100230093214602
:10A10000FFF7A0FB02B010BD0E20FBE710B5044620
:10A11000FFF7E4F888B1172911D80A48382303FB60
:10A120000400C3888B4206D090F83430C18043F0DD
:10A13000020380F83430002000E0052010BD072025
:10A14000FCE700BFC43F002010B5044651B1FFF743
:10A15000C5F848B1054B382202FB04340020E388DF
:10A160000B8010BD0E20FCE70520FAE7C43F00205D
:10A17000012870B51DD8104A382404FB002494F837
:10A180003430DD0715D5E47C01F0070504F007063F
:10A19000AE4204D1C1F3C405B5EBD40F07D03824C7
:10A1A00004FB002043F00203C17480F83430002027
:10A1B00000E0052070BD00BFC43F002069B1012848
:10A1C0000DD8084B382202FB003090F83430DB0702
:10A1D00005D5C37C0B70002070470E20704705200A
:10A1E000704700BFC43F002038B50446154699B1FA
:10A1F00092B1FFF773F888B10A48382303FB0400D3
:10A2000083696BB1837CC3F301030B70837CC3F35D
:10A2100085032B70002038BD0E20FCE70520FAE7EF
:10A220000620F8E7C43F00202DE9F3410DF10702B5
:10A230000DF106010546FFF7D7FF10B1784608F08B
:10A2400009FC284E9DF807709DF80610382303FB83
:10A2500005633C46B3F82480032923D8DFE801F0E6
:10A2600005021A1E07EB87046400B4FBF8F3092B00
:10A270001CD8002F33D0012B38BF0123DFB20021BF
:10A28000382000FB05603A461430FEF793FE02B01A
:10A29000BDE8F081642417FB04F4E6E741F2707432
:10A2A0007C43E2E7784608F0D5FBDEE7632B05D870
:10A2B0000A220121B3FBF2F3DFB2E1E741F26F7250
:10A2C000934295BF642241F27072B3FBF2F3B3FB89
:10A2D000F2F399BFDFB20221DFB20321D0E73946A2
:10A2E000CEE700BFC43F0020012810B50FD80B4AAD
:10A2F000382404FB002393F83420D20707D59A6949
:10A300003AB141B19984FFF78FFF002010BD0520BD
:10A31000FCE70620FAE70720F8E700BFC43F00206B
:10A32000012838B52AD8184C382303FB004393F88A
:10A33000345015F0010F254620D09C6904B33F2A04
:10A3400020D803291ED89B7CB2EB930F03D103F0D6
:10A3500003038B4210D0382404FB0054A37C62F327
:10A36000870361F30103A374FFF75EFF94F83430B1
:10A3700043F0020384F83430002000E0052038BDAB
:10A380000620FCE70720FAE7C43F002010B5134B76
:10A3900019780446E1B9FEF7A1FFD8B11048382278
:10A3A00002FB0402D289022A10D10E490B7813F065
:10A3B000010203D00B7ADA070ED4012243F0030323
:10A3C00001F83230382303FB0404E281002010BD81
:10A3D0000F20FCE70520FAE70420F8E7883F00207B
:10A3E000C43F002034400020F8B504460F46FEF775
:10A3F00075FFE0B1124B382202FB0434E689022ECD
:10A4000017D0172917D80F4CF50004356019FEF73F
:10A4100037FF90B9012303FA07F163590B436351E6
:10A4200014F8363043F0020304F83630F8BD052046
:10A43000FCE70620FAE70720F8E70020F6E700BF70
:10A44000C43F002034400020F8B504460F46FEF714
:10A4500045FFF0B1124B382202FB0434E689022E8C
:10A4600019D0172919D80F4CF50004356019FEF7DB
:10A4700007FF68B1012303FA07F1635923EA0103D7
:10A48000635114F8363043F0020304F836300020EC
:10A49000F8BD0520FCE70620FAE70720F8E700BF33
:10A4A000C43F0020344000202DE9F84306461546FD
:10A4B0000F4641B33AB3FEF711FF30B3164B3822C3
:10A4C00002FB0636F389022B21D00024DFF84C90E2
:10A4D000B5F800802C80F08901280ED809EBC00067
:10A4E00021460430FEF7CCFE38B12B88984510D9B0
:10A4F00027F813402B8801332B800134182CEAD124
:10A500000020BDE8F8830E20FBE70520F9E70620D0
:10A51000F7E70920F5E700BFC43F002034400020E2
:10A52000F8B506460F46FEF7D9FEC0B1082918D87F
:10A5300038250E4C754305F10806A019FEF7A0FE5C
:10A5400088B9012303FA07F1A3590B43A3512C4403
:10A5500094F8343043F0020384F83430F8BD052019
:10A56000FCE70720FAE70020F8E700BFC43F00201F
:10A57000F8B506460F46FEF7B1FED0B108291AD845
:10A5800038250E4C754305F10806A019FEF778FE34
:10A5900070B1012303FA07F1A35923EA0103A35180
:10A5A0002C44002094F8343043F0020384F8343013
:10A5B000F8BD0520FCE70720FAE700BFC43F0020F4
:10A5C0002DE9F041064615460F46F9B1F2B1FEF706
:10A5D00085FEE8B1104BB5F800803822002402FB5C
:10A5E00006362C80083621463046FEF749FE38B143
:10A5F0002B8898450ED927F813402B8801332B80E0
:10A600000134082CEFD10020BDE8F0810E20FBE7DB
:10A610000520F9E70920F7E7C43F002010B50446FC
:10A62000FEF75CFE88B1082911D80A48382303FBDD
:10A63000040083888B4206D090F83430818043F048
:10A64000020380F83430002000E0052010BD072010
:10A65000FCE700BFC43F002010B5044651B1FEF72F
:10A660003DFE48B1054B382202FB04340020A3888C
:10A670000B8010BD0E20FCE70520FAE7C43F002048
:10A68000030605D4012803D0024B18700020704740
:10A6900007207047D02D0020014B1878704700BF6D
:10A6A000D02D002010B50446FEF718FE90B10A4ADE
:10A6B000382303FB0423187C88421EBF93F8340020
:10A6C00040F0020083F83400382303FB0424002008
:10A6D000217410BD0520FCE7C43F002010B50446DE
:10A6E00051B1FEF7FBFD48B1054B382202FB0434A3
:10A6F0000020237C0B7010BD0E20FCE70520FAE73C
:10A70000C43F002010B50446FEF7E8FD98B181F083
:10A7100080037E2B11D90A48382303FB0400437CB5
:10A720008B4206D090F83430417443F0020380F835
:10A730003430002000E0052010BD0720FCE700BFFA
:10A74000C43F002010B5044651B1FEF7C7FD48B123
:10A75000054B382202FB04340020637C0B7010BDD3
:10A760000E20FCE70520FAE7C43F002048B9064B5D
:10A770001A888A4206D05A79198042F002025A7128
:10A7800070470520704700BF8A3F002021B128B9DB
:10A79000034B1B880B8070470E20704705207047C5
:10A7A0008A3F002021B128B9034B9B780B7070477A
:10A7B0000E207047052070478A3F002021B128B93C
:10A7C000034BDB780B7070470E20704705207047F5
:10A7D0008A3F002010B5044661B1FEF77FFD58B1F5
:10A7E000064B382060431A1852884A801B5A0B8047
:10A7F000002010BD0E20FCE70520FAE7C43F002032
:10A8000073B5019112B310B1052002B070BD4FF6BF
:10A81000FF730F4913808B89BDF80440BDF80650C3
:10A8200008462BB94E88AE4202D10988A1420AD00F
:10A83000B0F84430002BE7D1438FAB42E4D1038F13
:10A84000A342E1D1012313800020DEE70E20DCE7E4
:10A85000C43F0020F0B509B302B308BB124E1588FF
:10A86000108002236FF037071088A8421AD207FB26
:10A87000036494F8A4C01CF0010F09D0B4F87C4024
:10A8800034B9C3F1020421F810401088013010805F
:10A89000012B01D10020F0BD0123E5E70E20FAE7EE
:10A8A0000520F8E70920F6E7C43F002010B504466C
:10A8B00051B1FEF713FD48B1054B382202FB0434B9
:10A8C0000020236B0B6010BD0E20FCE70520FAE78B
:10A8D000C43F002070B50646FEF700FD08B33825DA
:10A8E000114C7543002205F1140011462044FEF777
:10A8F00061FB30466619103500F062FA2C44F0888E
:10A9000001F0C2F900204FF0FF3373606070A07057
:10A91000E07096F83430B07543F0020386F83430B6
:10A9200070BD0520FCE700BFC43F0020082837B5F4
:10A9300005461CD80DF106010020FFF78DFE28B951
:10A94000BDF80630AB4201D1FFF7C4FF0DF106019F
:10A950000120FFF781FE044658B9BDF80630AB422E
:10A9600002D10120FFF7B6FF204603B030BD072417
:10A97000FAE70024F8E708B501F04AF8A0F580509E
:10A9800008BD000010B586B00D4B03930D4B04932A
:10A990000D4B059304230293FFF7EDFF0B4C009042
:10A9A000012369460A48019323700DF035FD20B15B
:10A9B00008480DF041FE06B010BD2070FBE700BF57
:10A9C00065960200D19302000DAA0200C03F00204C
:10A9D0009C3F0020A02D002008B5FEF71BFD084875
:10A9E000084B03600BF0BCF800F096F9FEF7C6FACE
:10A9F000FEF7B8FBFFF7C6FF034B00221A7008BD35
:10AA0000903F0020A59E0200883F0020134B1A783B
:10AA1000D00744BF42F002021A701A7AD10744BF2D
:10AA200042F002021A720E4B1A881AB15A7942F099
:10AA300002025A710B4B93F83420D00744BF42F006
:10AA4000020283F8342093F86C20D10744BF42F00F
:10AA5000020283F86C20FFF795BF00BF344000204E
:10AA60008A3F0020C43F00202DE9F04F5A4DB5F831
:10AA7000703085B0804613B9784607F0EBFF574C2D
:10AA8000DFF86CA14FF6FF7308F57A79A5F87230FC
:10AA9000002604F1040B94F82830CBB1A369A3EB92
:10AAA0000903002B19DA002384F82830B5F8703038
:10AAB000013BA5F8703003A92088FFF7F7FE10B11D
:10AAC000784607F0C7FFE369039920880122984779
:10AAD0002C34002E50D10126DDE7236AA3EB0902B6
:10AAE000002A66DAA5F872602C2101FB06B12088E5
:10AAF000FFF7D2FA0746E8B1DAF800309B0417D521
:10AB0000374B1B68042B13DD2F21364813F0F8F95F
:10AB1000E8B12F21334813F0F3F9411C324B334A8B
:10AB2000D3F8043500920197802205200DF01AF821
:10AB3000082F15D1D4E908231A445B00226263620E
:10AB4000A269236AD31A002BC2DA2262C0E75C2111
:10AB5000244813F0D5F908B15C21DBE72149DDE792
:10AB6000042F01D00F2F20D12C2303FB0656B36BEB
:10AB700003F51C434033B363B5F870304BB3B5F8FD
:10AB80007230012B02D9784607F064FFB5F87230B5
:10AB90002C2202FB03539B6BB3EB080248BFA8EBCC
:10ABA0000302EA6005B0BDE8F08F784607F052FF77
:10ABB000C6E7B5F872204FF6FF718A4206D02C2105
:10ABC00001FB0252926B9B1A002B81DAA5F872608E
:10ABD0007EE7EB60E6E700BF444000205C400020D9
:10ABE000642E0020DAE5030000100140FFE50300B9
:10ABF000682E002038B52C4C2C2303FB004305465F
:10AC000093F8403013B9784607F024FFB4F8703059
:10AC100013B9784607F01EFF2C2202FB05420023E1
:10AC200082F84030B4F87030013B9BB2A4F8703029
:10AC3000A3B3B4F87230AB4235D1926B1B4B1344C3
:10AC400094F84020EAB1A26BD11A0029B8BF13468C
:10AC50004FF6FF72B8BF002294F86C10A1B1616E7C
:10AC6000CB1A002B10DA0123A4F87230B4F872303A
:10AC70000D482C2202FB0344A16BBDE838400BF0C9
:10AC8000ACB94FF6FF72E7E74FF6FF739A42A4F8AC
:10AC90007220EBD1784607F0DDFEE7E70248BDE819
:10ACA00038400BF083B938BD44400020008793033F
:10ACB0000128F8B505460E46174602D9784607F032
:10ACC000C9FE0BF085FE134B93F8402012B11A8B8E
:10ACD000AA421DD093F86C20B2B1B3F84420AA4226
:10ACE00012D101202C2404FB00343388A28D9A4217
:10ACF0000AD1E28D73889A4206D1FFF77BFF636B1E
:10AD00000022394628469847BDE8F8400BF0A0BE1F
:10AD10000020E7E74440002010B5044C74220021D5
:10AD2000204613F01DF8024BA36010BD44400020E4
:10AD300069AA020073B51F4C0BF04AFEB4F87030DC
:10AD40002BB100232046A4F870300BF02FF994F8B3
:10AD500040307BB1258B1848666B00212C2212F005
:10AD6000FFFF01A92846FFF7A1FDF0B902220199D2
:10AD70002846B04794F86C309BB1B4F844500F4863
:10AD8000246E00212C2212F0EBFF01A92846FFF7C8
:10AD90008DFD10B1784607F05DFE0222019928462C
:10ADA000A0470BF055FE02B070BD784607F052FE8A
:10ADB000DCE700BF444000205C40002088400020C9
:10ADC000012873B505462DD8174C0BF001FE94F8F9
:10ADD000403013B1238BAB4220D094F86C30FBB1E0
:10ADE000B4F84430AB421BD101263046FFF702FFD6
:10ADF00001A92846FFF75AFD10B1784607F02AFE50
:10AE00002C2303FB06440222636B019928469847D2
:10AE100000240BF01DFE204602B070BD0026E4E7C2
:10AE20000524F6E70524F6E7444000204A090123FB
:10AE300001F01F0103FA01F150F82230194214BF4A
:10AE40000120002070474A09012301F01F0103FA85
:10AE500001F150F822300B4340F8223070474A0984
:10AE6000012301F01F0103FA01F150F8223023EA17
:10AE7000010340F82230704701F11F02520970B5FA
:10AE8000551EA1EB45140121A140002301399A422E
:10AE900001D1012070BD9D4250F823400CBF0E46E9
:10AEA0004FF0FF36264201D10133F0E70020F1E7F1
:10AEB000A0F1100189B2072902D80248FFF7B6BFF6
:10AEC00000207047C84000202DE9F0474FF6FF737F
:10AED000DFF84080DFF840900B8007460D460024E5
:10AEE0001E464FF0AC0A21464046FFF79FFF40B197
:10AEF0000AFB04F333F80930BB4206D12C80BDE8CD
:10AF0000F0872B88B34208BF2C800134042CEAD18F
:10AF10000020F4E7D0420020D84200202DE9F0477D
:10AF20004FF6FF73DFF84080DFF840900B80074654
:10AF30000D4600241E464FF02A0A21464046FFF7E0
:10AF400075FF40B10AFB04F333F80930BB4206D168
:10AF50002C80BDE8F0872B88B34208BF2C800134D9
:10AF6000082CEAD10020F4E710410020184100200D
:10AF7000024B33F820300B80704700BFD0400020D8
:10AF80002DE9F041A3F1080516240E4E6C43074647
:10AF9000A01D884630441146102212F0D6FE331907
:10AFA00000225A7101222946A3F8028006481A712C
:10AFB0003753FFF748FF29460448BDE8F041FFF743
:10AFC00042BF00BF70420020684200206C42002057
:10AFD00010B40C4600F108030A1D208849885DF86A
:10AFE000044B9BB2FFF7CCBF70B516244443074E09
:10AFF0000D46A11D10223144281D12F0A6FE325B21
:10B000002A8033195B886B8070BD00BF70420020BE
:10B01000044A0B46142101FB00210431102218467A
:10B0200012F093BE884500200422014812F08DBE24
:10B03000BE42002008460422014912F086BE00BF2D
:10B04000BE4200202DE9F0414488012C05463ED047
:10B0500004F47043B3F5005F43D009D8002B39D016
:10B06000B3F5805F3BD0784607F0F4FC00240BE09A
:10B07000B3F5804F07D0B3F5A04F2ED0B3F5405FA6
:10B08000F1D1032400E00424174F6E881C2202FB38
:10B090000472052C9289A6EB02062A8802F57F52DB
:10B0A00002F13F024FEA820205F1040895B202D98B
:10B0B000784607F0CFFC1C2303FB0474414630465E
:10B0C000A3692A46984731466068FFF7BCFE012015
:10B0D000BDE8F081023CE4B2D6E70524D4E70124C0
:10B0E000D2E70224D0E700BF74E6030010B504469F
:10B0F00010B9784607F0AEFC2346BDE8104018476B
:10B1000010B5044610B9784607F0A4FC0A4B00229B
:10B1100093F8421090B269B1A3420AD003F1210121
:10B120008C4206D00132042A03F1AC03F0D14FF671
:10B13000FF7010BDA342F4E7FA4200202DE9F84366
:10B140002A255D43164C91468046A81D10220F46C5
:10B15000204449461E4612F0F8FD05F11900002171
:10B160001022204412F0FCFD691D214448460CF0D9
:10B17000E5FB10B1784607F06DFC2A237343E21813
:10B1800000211171917557803146064824F80380DB
:10B19000FFF759FE31460448BDE8F843FFF753BEB8
:10B1A000184100201041002014410020F8B50D4640
:10B1B00006462A2474430021104E174628462422AE
:10B1C00012F0CEFDA11D10223144281D12F0BDFD4C
:10B1D000325B2A8033195A886A809B7D4BB104F117
:10B1E0001901314405F114001022BDE8F84012F0B5
:10B1F000ACBD3B88043B3B80F8BD00BF184100203C
:10B200002DE9F0418046AC240D46144E04FB08F4B1
:10B21000002117462846242212F0A2FD06EB04085E
:10B22000335B2B8098F86430AB70A11C1022314442
:10B23000E81C12F08AFD98F864304BB104F1120159
:10B24000314405F113001022BDE8F04112F07DBD3C
:10B250003B88043B3B80BDE8F08100BFD842002022
:10B2600001F11F0252099200002112F079BD000085
:10B270002DE9F041204CAC255543164605F16803F5
:10B28000621923440F469367804610B91B4B012275
:10B290001A7005F12201214438460CF058FB10B118
:10B2A000784607F0D7FB05F17C01214438460CF0C5
:10B2B0005FFB10B1784607F0CDFBA81C3946102281
:10B2C000204412F042FD05F112001022002120441A
:10B2D00012F046FDAC237343E21824F803800023E8
:10B2E0003146074882F86430FFF7ADFD3146054826
:10B2F000BDE8F041FFF7A7BDD8420020BC420020C6
:10B30000D0420020D4420020F8B5A1F11005142449
:10B310006C430D4F0646201D31461022384412F072
:10B3200014FD391930460CF04BFB10B1784607F08C
:10B3300091FB29460548FFF786FD29460448BDE8EC
:10B34000F840FFF780BD00BF88450020C8400020BE
:10B35000CC4000200B4600F1100189B21846FFF7DF
:10B36000D3BF000008B5064B064800221A700CF047
:10B3700027FF20B10448BDE808400DF05DB908BDC5
:10B380008642002088420020D42D00202DE9F84379
:10B39000044688460BF01CFB052C02D9784607F0C2
:10B3A00059FB154BDFF85C901F78C7B11C2505FBD6
:10B3B00004951248A9892A69414489B20CF0BFFF5B
:10B3C000064660B10246011D6B694046984730460B
:10B3D0000CF0E4FF0BF03CFB3846BDE8F8831C237F
:10B3E00003FB04944146A068FFF72DFD04480DF0CF
:10B3F00023F90027EEE700BF8642002088420020A4
:10B40000AC42002074E60300F8B505460E460BF08A
:10B41000DFFA052D02D9784607F01CFB0F4B104FC1
:10B420001C7874B91C2303FB05753146A868FFF727
:10B430000AFD0C480DF000F900240BF009FB204632
:10B44000F8BD1C2303FB057307489989314489B271
:10B450000CF0BAFF0028E5D1EFE700BF86420020DC
:10B4600074E60300AC420020884200202DE9F84336
:10B47000184D0026AF68D5F80080384641465FFA7F
:10B4800086F9FFF7F9FCF8B1052E1FD1BDE8F88366
:10B4900021463846FFF7CAFC70B121466868FFF7BD
:10B4A000C5FC214660B14846FFF770FF0028EDD08B
:10B4B00021463846FFF7D3FC0134A045E8D1E3E745
:10B4C0004846FFF7A1FFF1E70446F6E701361C35D1
:10B4D000D0E700BF74E603002DE9F74F804692469F
:10B4E0000E46002953D00AF055F90228814627D08C
:10B4F00020F00207FBB2012B22D14FF6FF74354B2F
:10B50000354A0025A3465C450ED1104629460193D5
:10B510000092FFF78BFCDDE9002328B9ACB20135BE
:10B52000102DF0D1002305E033F825104145F6D168
:10B53000ACB20123BAF1000F04D1B9F1030F28D046
:10B54000102021E0FFB2012FFAD1ABB94FF6FF7204
:10B55000944223D01F4A204822F8248002EB840220
:10B5600021465380FFF76FFC21461C48FFF76BFC18
:10B5700021463846FFF70AFF164B348003EB84045C
:10B58000A3780133A370002003B0BDE8F08F0E2034
:10B59000FAE7BBB94FF6FF72944201D10420F3E7FA
:10B5A0000C4A0D4822F8248002EB84022146538085
:10B5B000FFF749FC21460948FFF745FC21460120D9
:10B5C000FFF7E4FE034B348003EB8404E37801339C
:10B5D000E370D8E7D0400020B8400020BC400020F5
:10B5E0002DE9F0474FF6FF73DFF84C80DFF84CA0F1
:10B5F0000B8007460D4600244FF0140921464046B3
:10B60000FFF714FC064650B92A884FF6FF739A429A
:10B6100000D12C800134082CF0D1002608E0102243
:10B62000394609FB04A012F081FB0028F2D12C80DE
:10B630003046BDE8F08700BFC84000208C450020A0
:10B640002DE9F3414FF6FF770E461446ADF806702C
:10B65000804640B339B30DF10601FFF7C1FFBDF8D5
:10B66000063003F11005ADB250B9BB421DD02946DA
:10B670004046FFF749FEBDF806100220FFF786FEA0
:10B68000BDF806300A4A3580142101FB032334B982
:10B69000DA780132DA70002002B0BDE8F0819A78E1
:10B6A00001329A70F7E70E20F6E70420F4E700BFB6
:10B6B0008845002008B528B9784607F0CBF94FF641
:10B6C000FF700BE0064B9842F9D303F501729042EC
:10B6D000F5D8C01AAC23B0FBF3F080B208BD00BFB0
:10B6E0004C43002008B528B9784607F0B3F94FF667
:10B6F000FF7008BD0A4B984209D303F5937290423C
:10B7000005D8C01A2A23B0FBF3F080B2F1E7054A4E
:10B710004FF6FF73904214BF18460820E9E700BFB8
:10B720001C41002074420020F8B50C46154683B237
:10B730000A1D064649882088FFF700FD242D1DD1EB
:10B74000124F2A2575437B190122143405F1190083
:10B750009A7521461022384412F0F7FA05F11801C3
:10B76000394420460CF0EAF810B1784607F072F937
:10B770002A2303FB06763379F375F8BD142DFCD02C
:10B780007846BDE8F84007F065B900BF18410020D1
:10B790002DE9F0410D46174E07469046033182B21F
:10B7A000AC242888FFF764FDAB7804FB076282F8BD
:10B7B0006430D3B1B8F1240F02D0784607F04AF9CB
:10B7C0007C43133504F1120029461022304412F054
:10B7D000BCFA04F14301314428460CF0B8F838B102
:10B7E0007846BDE8F04107F035B9B8F1140FF7D14C
:10B7F000BDE8F081D842002010B501298CB0044684
:10B8000004D1784607F026F90CB010BD0229F8D013
:10B810000329F9D12C22002101A812F0A1FA112349
:10B820008DF8043002238DF80830054B0394DA6854
:10B830001B69059201A8069308F0E2FCE4E700BF4B
:10B840008842002011460020FFF7D6BF0846114667
:10B85000FFF7D2BF41090B4A00F01F004FF0FF3342
:10B86000834052F82100034009D05A421A40064B47
:10B870005343DB0E054AD05C00EB411070470420B7
:10B88000704700BFD042002031B57C071CE70300A1
:10B890004FF6FF730B80084B1B6813F0010307D0B2
:10B8A000064B1B88834205D108230B80012070477B
:10B8B00008220A8000207047684200207042002061
:10B8C0000F2810B5044604D801460648FFF7AEFA23
:10B8D00028B92046FFF7ECFA00F0010010BD012066
:10B8E000FAE700BFB84000200F28F8B5044617D883
:10B8F00001461748FFF79AFA90B1164E06EB8403FB
:10B90000987858B9DD7815BB21461148FFF7A7FA9A
:10B9100026F8245021460120FFF776FD002016E08E
:10B920002046FFF7C5FA88B1103C0B4F142565433C
:10B930007B1998780028F1D1DE7846B9214607486E
:10B94000FFF78DFA7E5321460220E5E70520F8BD7A
:10B95000B8400020D040002088450020C84000208A
:10B9600010B5094B0A8884B2214623F8242003EB42
:10B970008403002205485A80FFF765FA21460448EF
:10B98000BDE81040FFF75FBAD0400020B84000206B
:10B99000BC4000201FB51A4B1B781BB9002005B016
:10B9A0005DF804FB04AB0A2243F8102D012101AA23
:10B9B00014480CF08DFC03460028EFD1BDF80A2096
:10B9C000102A0FD1BDF80C20082A0BD1BDF8062093
:10B9D000082A07D1BDF80820012A03D1BDF80420A8
:10B9E000042A02D0FFF7BEFCD8E70146064A054804
:10B9F0000CF0F8FB054B186800F00100CFE700BF22
:10BA0000864200208842002045B00200C04000204D
:10BA100008B509F09BFAA0F5805008BD70B586B056
:10BA20001E4B03931E4B04931E4B05931E4E002387
:10BA30000293FFF7EDFF3278009001230193A2B942
:10BA40001A4C0AF0C5FF694620460CF0E5FC28B107
:10BA50000AF0FEFF16480CF0EFFD06E02578012DF8
:10BA600005D00AF0F5FF0123337006B070BD204603
:10BA70000A2229460CF063FC044648B11023438196
:10BA80000422082383818280C38005810CF086FC18
:10BA90000AF0DEFF002CDDD0E5E700BF4DB8020064
:10BAA00045B80200B5BA0200864200208842002054
:10BAB000E42D0020FFF7B2BF70B5214C04F1A806B9
:10BAC000256860682946FFF7CBFB1C3454F8140C3A
:10BAD0002946FFF7C5FBB442F2D1002319481946A5
:10BAE000C2180433402BD1709170F9D1002316494C
:10BAF0001C46CA181433A02BD4709470F9D10121BC
:10BB00001248FFF7ADFB01211148FFF7A9FB012106
:10BB10001048FFF7A5FB01210F48FFF7A1FB01210A
:10BB20000E48FFF79DFB01210D48FFF799FB0D4BD8
:10BB30001C805C800C4B1C70BDE87040FFF712BC91
:10BB400074E60300D040002088450020C04000205B
:10BB5000B8400020C8400020D04200201041002002
:10BB600068420020BE420020BC420020084808B5C0
:10BB7000084B036009F0F4FF074B084A9A60084A33
:10BB8000DA60084B00221A70BDE80840FFF746BF94
:10BB9000C442002065C30200AC420020EDB00200A8
:10BBA0006DB402008642002070B5054610B9784693
:10BBB00006F050FF174E346814F0010427D128888E
:10BBC0006B880344984201DB0B2070BD09F0E2FD55
:10BBD0000128F9D128886B881844013880B209F00F
:10BBE000D9FD0128F0D1042229460B4812F0ADF806
:10BBF0003368214643F0010320463360FFF7C6FB5C
:10BC0000064A136843F0010313602046DDE70F2066
:10BC1000DBE700BFC0400020BE420020C44000203F
:10BC200010B5044610B9784606F014FF20460422E9
:10BC30000249BDE8104012F088B800BFBE420020A3
:10BC40000122FFF749BC000010B50446FFF738FE9B
:10BC500078B10F2C89BF084B084B103C14228CBFC5
:10BC600002FB043403EB84040020A3780133A370A7
:10BC700010BD0520FCE700BF88450020D040002013
:10BC80000122FFF7DDBC00000F2810B504460FD8D5
:10BC900001460E48FFF7CAF850B10D4B03EB840381
:10BCA0009A78013A9A702046BDE81040FFF71CBE12
:10BCB0002046FFF7FDF830B1064AA4F11003142125
:10BCC00001FB0323ECE7052010BD00BFB8400020B6
:10BCD000D0400020884500200022FFF7FDBB002255
:10BCE000FFF7AEBC10B50446FFF7EAFD78B10F2CA4
:10BCF00089BF084B084B103C14228CBF02FB043454
:10BD000003EB84040020E3780133E37010BD0520C9
:10BD1000FCE700BF88450020D040002038B504462D
:10BD20000D4619B30F2810D801461248FFF77EF8C8
:10BD300058B1114B33F824206A8033F8240009F0FD
:10BD400029FD28700020686038BD2046FFF7B0F854
:10BD500070B11423103C094A5C430020135B6B80D4
:10BD60000434144402236C602B70EDE70E20EBE7E3
:10BD70000520E9E7B8400020D04000208845002099
:10BD800013B50446FFF79CFD08B369462046FFF74C
:10BD9000C5FFC0B99DF80030032B0BD10D4B03EB51
:10BDA0008403DA789AB1013ADA702046FFF79CFDF5
:10BDB00002B010BD022B08D1074AA4F110031421D0
:10BDC00001FB0323EDE70020F2E70F20F0E7052059
:10BDD000EEE700BFD0400020884500202DE9F0416B
:10BDE0000E46074658B351B30025DFF858802C465D
:10BDF00029464046FFF71AF840B13368A34202D102
:10BE00000920BDE8F08127F8145001340135102DC8
:10BE1000EED1DFF83480002529464046FFF706F8CA
:10BE200038B13368A342EBD005F1100327F8143082
:10BE300001340135082DEFD134600020E1E70E20F8
:10BE4000DFE700BFB8400020C84000202DE9F743DD
:10BE50000D46044600283CD000293AD0408809F01D
:10BE600099FC022824D0032801D0012833D14FF6B1
:10BE7000FF73DFF86880DFF8689067882B80002404
:10BE80001E4621464046FEF7D1FF40B139F8243026
:10BE9000BB4208D12C80002003B0BDE8F0832B8882
:10BEA000B34208BF2C800134102CEAD10520F3E7FF
:10BEB00060684FF6FF73ADF8063050B10DF1060122
:10BEC000FFF78EFB0028F1D0BDF8063010332B8031
:10BED000E1E70E20E0E71020DEE700BFB8400020D9
:10BEE000D040002007B50DF10601FEF7EDFF20B1AF
:10BEF000BDF8060003B05DF804FB4FF6FF70F9E7EC
:10BF000008B1FFF7FDB84FF6FF70704707B50DF1A8
:10BF10000601FFF703F820B1BDF8060003B05DF895
:10BF200004FB4FF6FF70F9E708B1FFF7DBBB4FF6F4
:10BF3000FF70704738B504460D4669B107280DD823
:10BF400001460748FEF772FF40B12A206043054BC7
:10BF50001B5A2B80002038BD0E20FCE70520FAE795
:10BF60001041002018410020082870B504460E46F4
:10BF70003CD8002938D0082821D001461C48FEF7BB
:10BF800055FF002832D01B4D2A2303FB04535B8846
:10BF9000032B02D9784606F05DFD2A2303FB0453E8
:10BFA00015485988FEF742FF10B9784606F052FD51
:10BFB0002A2303FB045463883380002070BD0F4B99
:10BFC0001B68DB0712D50E4C6388032B02D9784619
:10BFD00006F040FD61880848FEF728FF0028EAD1F6
:10BFE000784606F037FDE6E70E20E7E70520E5E7AF
:10BFF0001041002018410020D0420020684200205B
:10C0000070420020F0B50746C7B015460E4600291D
:10C010006ED0002A6CD0B0F5805F6BD21146FEF76F
:10C0200053FF2A88044670B13548AC2303FB020055
:10C0300031461022023011F079FE00280CBF032097
:10C040000F2047B0F0BD4FF6FF739A4254D03146EF
:10C050003846FFF70DF929880320FFF797F9284B99
:10C060002988AC2202FB013138468C3109F07FFD72
:10C07000244B186810F48020E3D0234B1B68062B58
:10C080003CDD224B1A68204605AC335C190903F0ED
:10C090000F03515C04F81010D15C04EB4003013035
:10C0A00010285970F1D100232F21194884F820302D
:10C0B00011F026FF98B12F21154811F021FF411CE6
:10C0C000144B154AD3F804350192144A0092072004
:10C0D000029440F66E120BF045FD0020B1E75C21A2
:10C0E0000B4811F00DFF08B15C21E5E70849E7E7CF
:10C0F0000E20A6E70720A4E70420A2E72046A0E739
:10C10000D8420020682E0020642E00206C2E0020D3
:10C110003BE603000010014065E60300FEE3030078
:10C12000032838B504460D460DD801460748FEF7EA
:10C130007DFE40B1064BAC2202FB0434002094F893
:10C1400064302B7038BD0520FCE700BFD0420020D2
:10C15000D84200202DE9F0410546884600294ED0FE
:10C1600003284ED801462848FEF760FE002848D034
:10C17000264BAC246C431A191E4692F8642062B117
:10C18000012A07D104F1120010224146184411F08F
:10C19000CDFD00B10820BDE8F08104F112071F4475
:10C1A00041461022384611F0D0FD04F143013144DC
:10C1B00040460BF0CCFB10B1784606F04BFC04F186
:10C1C0009401314438460BF0D3FB10B1784606F0A9
:10C1D00041FCAC236B43F118012281F8642004F187
:10C1E000A401F05A314409F039F829460848FEF70D
:10C1F0002AFE29460320FFF7C9F80020CBE70E20CE
:10C20000C9E70520C7E700BFD0420020D842002080
:10C21000D4420020032810B504461FD80146114817
:10C22000FEF704FED0B11048AC236343C11891F867
:10C230006420012A14D1022281F8642003F1A401B0
:10C240000144C05A09F00AF821460848FEF7FBFDF0
:10C2500021460320FFF79AF8002010BD0520FCE7D7
:10C260000820FAE7D0420020D8420020D442002023
:10C2700003282DE9F843074662D801463248FEF705
:10C28000D5FD00285CD0314EAC257D4306EB05087A
:10C2900098F86430002B55D005F11201A81C3144E8
:10C2A0001022304411F051FD05F1430105F1220047
:10C2B00031442122304411F048FD05F1940105F18B
:10C2C0007C0031441822304411F03FFD002405F178
:10C2D0008C0188F864403144705B1D4EDFF880802B
:10C2E000224608F0BBFFA6F1130921464046FEF79F
:10C2F0009DFDB8B12A20174D604305446B88BB42B1
:10C3000010D1AB7D73B131181222484411F01DFDDC
:10C31000002321461048AB75FEF795FD2146042009
:10C32000FFF734F80134082CDFD139460B48FEF70B
:10C330008AFD39460320FFF729F80020BDE8F8837D
:10C340000520FBE70820F9E7D0420020D842002072
:10C350002F4100201841002014410020D442002029
:10C360001041002070B50378042B1ED1D0E901469E
:10C37000457E2046FFF79EF94FF6FF72904214D09B
:10C380002034A64211D1094AAC2101FB002393F8C5
:10C3900064302DB1012B08D1BDE87040FFF73ABFE2
:10C3A0001BB1BDE87040FFF763BF70BDD8420020ED
:10C3B0002DE9F0470D46064600B3F9B10024DFF839
:10C3C0004480DFF844900F680C604FF0AC0A2146BF
:10C3D0004046FEF72BFD58B12B689F4210D00AFB58
:10C3E00004F232F8092026F813202B6801332B6061
:10C3F0000134042CEBD10020BDE8F0870E20FBE7D0
:10C400000920F9E7D0420020D84200202DE9F04170
:10C410008046C6B00E461F461546002A6BD0002B3C
:10C4200069D009F0B7F9012867D1032E67D83146E2
:10C430003748FEF7FBFC002861D00DF112014046A1
:10C44000FFF726FA044600285BD1BDF812304FF6FC
:10C45000FF72934257D02A4631464046FEF790FD80
:10C46000BDF8121005200839FEF790FFBDF8123014
:10C470003B80284B186810F4802030D0264B1B6876
:10C48000062B42DD254B1A68204605AC2B5C1909AA
:10C4900003F00F03515C04F81010D15C04EB40036F
:10C4A000013010285970F1D100232F211C4884F845
:10C4B000203011F025FDA8B12F21194811F020FDE1
:10C4C000411C184B184AD3F804350192174A0092C0
:10C4D0000720029440F675220BF044FB002046B082
:10C4E000BDE8F0815C210E4811F00AFD08B15C2125
:10C4F000E3E70B49E5E70E20F1E71020EFE7052021
:10C50000EDE70F20EBE70420E9E72046E7E700BF6F
:10C51000D0420020682E0020642E00206C2E0020C7
:10C520003BE60300001001402EE60300FEE303009B
:10C53000082810B511D100210948FEF777FC60B139
:10C54000084B074800241C802146FEF788FC214642
:10C550000520FEF759FF204610BD0520FCE700BF6F
:10C5600068420020704200202DE9F0410746C6B025
:10C5700088461E461546002A6FD0002B6DD0032931
:10C580006DD83B48FEF752FC002868D0B7F5805FB5
:10C5900067D231463846FEF7C1FC3388044678B18D
:10C5A00034482A2202FB030029461022063011F0EB
:10C5B000BDFB00280CBF03200F2046B0BDE8F08172
:10C5C0004FF6FF7293424ED02A4641463846FEF758
:10C5D000B5FD31880420FEF7D9FE274B186810F40A
:10C5E0008020EAD0254B1B68062B3EDD244B1A68C1
:10C5F000204605AC2B5C190903F00F03515C04F8CD
:10C600001010D15C04EB4003013010285970F1D1B7
:10C6100000232F211B4884F8203011F071FC98B1C1
:10C620002F21184811F06CFC411C174B174AD3F806
:10C6300004350192164A00920720029440F6C52262
:10C640000BF090FA0020B8E75C210E4811F058FC7E
:10C6500008B15C21E5E70B49E7E70E20ADE70520CF
:10C66000ABE70720A9E70420A7E72046A5E700BF1E
:10C67000D042002018410020682E0020642E0020A7
:10C680006C2E00203BE603000010014021E6030071
:10C69000FEE30300F8B505460E4600293FD0072803
:10C6A0003FD801462048FEF7C1FB002839D01F487B
:10C6B0001F492A246C430319AC275A8807FB02122E
:10C6C000074692F86420012A09D104F119010844AF
:10C6D000997D31B11022314611F028FB00B10820BC
:10C6E000F8BD9A753146102211F02FFB04F11801A4
:10C6F000394430460BF022F910B1784606F0AAF919
:10C700002A2303FB057329461A79DA750948FEF7CF
:10C710009AFB29460420FEF739FE0020E0E70E20B0
:10C72000DEE70520DCE700BF1041002018410020B3
:10C73000D842002014410020072810B504460ED826
:10C7400001460848FEF772FB48B121460548FEF74E
:10C7500086FB21460420FEF757FE002010BD052071
:10C76000FCE700BF1041002003282DE9F0410446FA
:10C7700040D801462148FEF759FB00283AD0002056
:10C78000FFF768F8002504282CD1012D34D01C4E69
:10C790001C4F00254FF02A0829463046FEF746FB7D
:10C7A00058B108FB05735B88A34206D1A8B2FFF716
:10C7B000C3FF10B1784606F04DF90135082DEBD1D5
:10C7C000AC236343104AD35A0BB9104A1370214665
:10C7D0000A48FEF744FB21460320FEF715FE002021
:10C7E000BDE8F0810130032805F10105CDD8FFF740
:10C7F00031F8C8E70520F3E70F20F1E7D042002029
:10C800001041002018410020D8420020BC420020E6
:10C810002DE9F84F064615460F4669B362B3032863
:10C820002CD801461748FEF701FB38B30024DFF887
:10C8300058A0DFF85880D5F800902C604FF02A0BF4
:10C8400021465046FEF7F2FA80B10BFB04F208EBEA
:10C8500002035B88B34209D12B68994510D032F8A6
:10C86000082027F813202B6801332B600134082C93
:10C87000E6D10020BDE8F88F0E20FBE70520F9E7A0
:10C880000920F7E7D0420020104100201841002085
:10C8900070B506460C461546002A45D0082945D8ED
:10C8A00012BF244824480021FEF7C0FA00283DD0DA
:10C8B0004FF6FF739E4207D1082C17BF1F4A204B2B
:10C8C0002A2303FB04235E88032E31D831461D48FA
:10C8D000FEF7ACFA60B3082C1B4923D0AC2303FB52
:10C8E0000613164A93F86430022B08D12A236343B7
:10C8F000D018807D18B1173313446B6004E02A23ED
:10C9000003FB042404346C60AC2303FB06F00B1817
:10C9100093F86430022B0CBF433022300844286067
:10C92000002070BD094BE8E70E20FAE70520F8E784
:10C930000820F6E71041002068420020184100203E
:10C9400070420020D0420020D842002074420020D3
:10C9500038B50D46FFF7C6FA044675B103280ED860
:10C9600001460848FEF762FA48B1074BAC2202FBC9
:10C97000043422342C60002038BD0E20FCE7052052
:10C98000FAE700BFD0420020D84200202DE9F8434A
:10C99000074690460E4611B9784606F05BF8B8F1A6
:10C9A000000F02D1784606F055F8306807F07F078F
:10C9B00030BB002400233360C8F800301B4BDFF885
:10C9C0007090AC2505FB0435A3B2032B16D8214685
:10C9D0004846FEF72BFA00B395F8643095F822002C
:10C9E00005F12201ABB1874205F1430395F84320DD
:10C9F00016D1BA420FD13160C8F80030BDE8F883D3
:10CA0000FEF77EFB4FF6FF739842D2D0441CA4B2CF
:10CA1000D0E7874201D1316005E0AC350134D3E77E
:10CA20009742FAD133600023E6E700BFD8420020E6
:10CA3000D04200202DE9F04704468846164612B938
:10CA4000784606F007F814B9784606F003F8204651
:10CA5000FFF756FA4FF6FF739842074603D10023BB
:10CA60003360BDE8F087306800B3FEF73BFE441C3E
:10CA70001148DFF848A02A2505FB04050535814645
:10CA8000072CECD821465046FEF7D0F980B135F896
:10CA9000033CBB420CD12B7888EA03039B0607D1E9
:10CAA0002A2000FB049404343460DAE70446DFE70C
:10CAB00001342A35E4E700BF18410020104100206E
:10CAC00038B504460D4611B9784605F0C3FF34B1B8
:10CAD000044B33F8042BA2420CBF1C4600242C60EC
:10CAE00038BD00BF704200202DE9F047074691464F
:10CAF000884611B9784605F0ADFFB9F1000F02D1B3
:10CB0000784605F0A7FFD8F8000000284CD0FEF7C3
:10CB1000D1FD441C254EDFF89CA0AC2505FB046527
:10CB20008C353BE021465046FEF780F9A0B315F85E
:10CB3000283C4BB94FB108222946384611F0F6F887
:10CB4000B0FA80F0400901E0CFB9012020B3184BC2
:10CB50001B78FBB1AC236343F35AB3FA83F35B094D
:10CB6000AC20444332197434264482F87430C8F837
:10CB7000006092F8643089F80030BDE8F087082240
:10CB80002946384611F0D2F80028DED0082205F1F7
:10CB90001801D2E70123E3E70134AC35032CC1D9F6
:10CBA0000023C8F80030E8E70446B3E7D842002085
:10CBB000BC420020D04200202DE9F74306460C4637
:10CBC00008F0E8FD02285FD0032818D0012801D022
:10CBD000002011E0484B1B6813F00103F8D0474BCD
:10CBE0001A889642F4D35B8813449E424FF00003A8
:10CBF000EEDA66802070636003B0BDE8F083002346
:10CC00006360A6F57F43FC3B66802070032B16D83B
:10CC100001A252F823F000BFD1CB0200D1CB020019
:10CC200029CC020085CC020001A901200DF001FDF4
:10CC300010B1784605F00EFF9DF80400DCE74FF6D2
:10CC4000FF752F4FDFF8C0900024A84645450FD14F
:10CC500021464846FEF7EAF850B9A5B20134102C37
:10CC6000F4D10CF069FB4088831B58425841C3E75C
:10CC700037F82420B2424FEA8403EFD13B44DB78FB
:10CC8000002BEBD00120B7E76068E8B94FF6FF73DF
:10CC9000ADF80430BDF80450DFF87080194F072D4F
:10CCA0004FF6FF7394BF01350025ADF804304FF007
:10CCB0001409082D8CD029464046FEF7B7F848B92C
:10CCC000ADF804500135F4E701A9FEF789FC00280E
:10CCD000DCD0DFE709FB05F3DA5BB242F2D1FA18E8
:10CCE000D278002A3FF474AF043302221F446680D6
:10CCF0002270676080E700BFC0400020BE42002075
:10CD0000D040002088450020B8400020C8400020C6
:10CD100038B50C46054600B111B9784605F09AFEC3
:10CD2000024B1A882A805B88238038BDBE420020CF
:10CD300007B50378022B0AD0032B01D0012B17D1A2
:10CD400069464088FFF738FF03B05DF804FB694689
:10CD50004068FEF745FC0028F6D0BDF80030054AD3
:10CD6000142101FB0323D878003018BF0120EBE722
:10CD70000020E9E7884500202DE9F04F0C4689B0F6
:10CD8000814600B111B9784605F064FE2388152B61
:10CD900002D8784605F05EFE4FF6FF724FF420137E
:10CDA000CDE905230025012305A90A224846ADF84F
:10CDB0001C30ADF8065010F0C8FF0A2323800DF197
:10CDC0000E012846FDF7EEFC10B1784605F042FE54
:10CDD0000DF10F010020FDF7F1FC10B1784605F0D0
:10CDE00039FE9DF80E309DF80F20D3423DD003A9A7
:10CDF0000020FDF7CBFC10B1784605F02BFE08AA09
:10CE000002230DF1080822F81A3D41460020FDF7E3
:10CE100021FD10B1784605F01DFE2088042203A9EB
:10CE2000484410F092FF26889DF80E300436B6B2C2
:10CE3000268053B10027BDF806A03D464FF6FF7B84
:10CE4000574515D323881D4425809DF80F3063B1C5
:10CE50002388BDF806700026994435464FF6FF7AC0
:10CE6000BE421DD323881D44258009B0BDE8F08F44
:10CE700004A938F81700FDF7ADFC10B1784605F0AD
:10CE8000E9FDBDF810305B4508D1A81902220DF16B
:10CE90001201484410F059FF0235ADB20137CFE717
:10CEA00004A938F81600FDF795FC10B1784605F096
:10CEB000D1FDBDF8103053450FD0022204A909EB73
:10CEC000050010F042FFA81C02220DF1120119FA10
:10CED00080F010F03AFF0435ADB20136C0E7000033
:10CEE000024B1B6803B11847704700BF284600205B
:10CEF00013B5044601A8FEF793FEBDF80400001B1D
:10CF000018BF4FF0FF3080B202B010BD37B50446F5
:10CF10000CF016FA0546002301A80093FEF780FEE8
:10CF20006946288AFFF714FD30B9009B6360BDF89D
:10CF30000430238003B030BD0520FBE71FB501930B
:10CF4000BDF81830ADF808300023ADF800208DF89A
:10CF50000A304FF6FF720223ADF802208DF80B3035
:10CF60006A46079B0393FDF7C3F805B05DF804FB21
:10CF70007FB505460E46002003A98DF808000DF088
:10CF800058FB10B1784605F065FD9DF80D309DF811
:10CF90000820013B0A2104AC63F30202BDF80E3005
:10CFA000B3FBF1F3013B63F3C70204F8082D08F06B
:10CFB000DFFD01230190009348F22502234631460C
:10CFC0002846FFF7BBFF04B070BD7FB50B89012B6E
:10CFD00006460D4631D14C688DF804302378C3F3F2
:10CFE000020301338DF805302378DA080A2302FBA7
:10CFF0000333142BB8BF142301A90020ADF8063069
:10D000000DF006FB10B1784605F024FD30462946A8
:10D01000FFF7AEFF0023CDE9023311238DF808306E
:10D020002378C3F302038DF80C30237802A8C3F3EE
:10D03000C4038DF80D30FFF753FF04B070BD0B89AA
:10D040000BB9FFF795BF704737B504460D4608F09A
:10D050008FFD084B1860084B01221A7000230190C5
:10D06000009348F24A0229462046FFF767FF03B0C3
:10D0700030BD00BF304600202C46002030B50B8963
:10D08000032B85B005460C4618D14B689A78012AC7
:10D0900014D800228DF80C201B88ADF80D30022327
:10D0A0008DF80F3008F064FD04230190009348F2DE
:10D0B000480203AB21462846FFF740FF05B030BDCC
:10D0C00030B585B004460D468DF80C20ADF80D3016
:10D0D00008F04EFD03230190009348F2440203AB95
:10D0E00029462046FFF72AFF05B030BD30B585B090
:10D0F00004460D46002303A90120ADF808300DF0C9
:10D1000098FA10B1784605F0A5FC9DF80C308DF822
:10D1100008309DF80D309DF80920013B63F30202B1
:10D12000BDF80E308DF80920142B15D1D2B212F0B3
:10D13000070111D161F3C7028DF8092008F018FD2D
:10D1400002230190009348F2280202AB29462046B0
:10D15000FFF7F4FE05B030BD0A22B3FBF2F39DF8F1
:10D160000920013B63F3C702E6E77FB50B89022B79
:10D1700005460E463ED14C682378012B3AD803F081
:10D1800001038DF804306378C3F3020301338DF893
:10D190000530637883BB1423ADF80630BDF8063044
:10D1A000142B38BF142301A90120ADF806300DF06F
:10D1B0002FFA10B1784605F04DFC28463146FFF7AE
:10D1C00095FF0023CDE9023312238DF80830237830
:10D1D0005A1E534253418DF80C306378C3F3020357
:10D1E0008DF80D30637802A8C3F3C4038DF80E30B8
:10D1F000FFF776FE04B070BDDB08013303EB830359
:10D200005B00C9E70B890BB9FFF770BF704770B5BA
:10D2100086B00D46ADF80F309DF82C30ADF80D20DE
:10D2200000218B4204460A988DF80C1014BF072683
:10D230000926CDF8110008F09BFC03ABCDE9006096
:10D2400048F21F0229462046FFF778FE06B070BD5F
:10D2500030B587B00446039306AB8DF8142033F83D
:10D260000C2DADF815209B788DF817300D4608F081
:10D270007FFC04230190009348F2030205AB29468A
:10D280002046FFF75BFE07B030BD2DE9F0430B8968
:10D29000022B87B081460C4638D14B681F88C7F3F4
:10D2A0000B00FEF71FFEA38C8342804631D13B4624
:10D2B0000C2221464846FFF703FF27E036F8150009
:10D2C000FEF724FE26F815000135019BAB42F5D888
:10D2D0002EE036F81500FDF729FB10B1784605F071
:10D2E000B9FB0135019BAB42F3D83B4648460022CF
:10D2F0002146FFF7E5FE00230293736030461923B1
:10D300008DF80830ADF80C80FFF7EAFD07B0BDE8F6
:10D31000F0834FF6FF73984202AEE6D006AA0823C8
:10D3200042F8143D3146FFF773FA05460028CCD089
:10D330004046FFF719FA05460028D3D00F28B6D08B
:10D340003B460422B5E70000F0B50B89122B85B0EF
:10D3500007460D4625D14E680A88344648F24003F8
:10D3600034F8020B9A42C0F30B001CD121460DF198
:10D370000602FEF747FE182304460F2C8DF80830EE
:10D38000BDF80630ADF80C3096BF0C4B10221A5D7C
:10D39000338829463846FFF793FE14B902A8FFF7F1
:10D3A0009FFD05B0F0BDFEF79DFD2146ADF80600DE
:10D3B000FEF7D0FE1A230446DFE700BF3CE7030078
:10D3C0002DE9F0431F460B8847F6E57843449BB2AE
:10D3D000102B87B005460C46164656D84FF001096B
:10D3E00009FA03F313F0EF011BD113F4803060D17D
:10D3F0005B044AD50146052203A810F0B1FC63681E
:10D400008DF80C701A88ADF80D205B88ADF80F30E0
:10D4100008F0AEFB05230093019003AB48F22A020B
:10D420002FE00922002103A810F09AFC23888DF830
:10D430000C7043449BB2072B0AD809FA03F313F08C
:10D440000B0F09D113F004022DD113F0E00F1FD1FF
:10D45000784605F0FFFA09E063681A88ADF80D20F8
:10D460005A88ADF80F205B68CDF81130002E14BF3C
:10D470000726092608F07CFBCDE9006003AB48F2E3
:10D480001F0221462846FFF759FD07B0BDE8F0838B
:10D49000636833F8121BADF80D108DF80F208DF86E
:10D4A00010201B68E0E7636833F8022BADF80D200D
:10D4B000F7E7072203A810F053FC63688DF80C709F
:10D4C0001A88ADF80D209A88ADF811205B88ADF868
:10D4D0000F3008F04DFB07230093019003AB48F297
:10D4E0002C02CEE773B502AA022322F8063D01A959
:10D4F0000646FCF7D9FF062825D010B1784605F07E
:10D50000A9FA0025BDF80220ABB29A4202D8002049
:10D5100002B070BDACB2640002AB2344304633F8B5
:10D52000041CFCF791FF10B1784605F093FA02ABAA
:10D530001C4434F8040CFEF723FC10B1784605F0C7
:10D5400089FA0135DEE70820E2E72DE9F0438DB0E6
:10D550001C46154606460F46092200210DF12500FE
:10D5600010F0FEFB00230DF10B0120468DF820305A
:10D57000ADF82150FDF7B2F810B1784605F06AFA1F
:10D580009DF826309DF80B2062F304136FF34713C8
:10D5900005A920468DF82630FDF71CF910B1784614
:10D5A00005F058FABDF81450BDF816304FF6FF726A
:10D5B00095420DF10E0120460EBFADF82A30ADF8B0
:10D5C0002C30ADF82A50FCF7BFFD10B1784605F0BD
:10D5D00041FABDF80E004FF6FF73984218D10023B0
:10D5E0008DF823308DF824304FF6FF739D4214BF21
:10D5F0000E250C2508F0BCFA08ABCDE9005048F226
:10D60000190239463046FFF799FC0DB0BDE8F083AA
:10D6100006A9FEF783FB10B1784605F01BFABDF8AA
:10D620001A30ADF8233004A92046FDF715F8052877
:10D630008046D4D0002848D10DF11201BDF8100069
:10D64000FEF778FC0528814604D18DF823808DF8FB
:10D650002480C9E70028C7D19DF812308DF8253005
:10D660009DF8133003F00F029DF8263023F00F03CE
:10D6700013430DF1270120468DF82630FDF762F89F
:10D680000122494603A810F06BFB0DF10D0203A91E
:10D690002046FCF7A9FD9DF80C209DF80D3002A94D
:10D6A00043EA821320468DF82830FCF787FD9DF869
:10D6B00008209DF82930C2F3020161F30203D20869
:10D6C00062F3C7038DF829308EE7784605F0C2F97A
:10D6D0008AE7F0B50B89032B87B007460C4619D1B2
:10D6E0004D6804238DF80C302B88ADF80D300023E5
:10D6F0008DF80F302888C0F30B00FEF7F3FB0DF117
:10D700000B010646FEF70CFDD0B9AB78022B03D017
:10D71000032B32D007B0F0BD9DF80B305A1E012A02
:10D72000F8D8012B06D13046FEF774FD10B17846CB
:10D7300005F090F900238DF80C3002238DF80F309E
:10D7400008F016FA04230190009348F2170203AB85
:10D7500021463846FFF7F2FB9DF80C30002BD9D15B
:10D76000CDE9043308238DF8103004A89DF80F305C
:10D770008DF81430FFF7B4FBCCE79DF80B30032B8A
:10D78000C8D033B13046FEF773FD10B1784605F0CE
:10D7900061F900238DF80C30D0E770B50D89012DAB
:10D7A00086B006460C461ED14B6818788DF80F00DF
:10D7B000FCF766FFB8B90523CDE904008DF81030F9
:10D7C00004A89DF80F308DF81430FFF789FB08F09E
:10D7D000CFF90DF10F03CDE9005048F20E022146BA
:10D7E0003046FFF7ABFB06B070BD7FB50E46054671
:10D7F0000BF08AFF04AC04F8040D08F0B9F901231A
:10D800000190009348F20B02234631462846FFF769
:10D8100095FB04B070BD0B890BB9FFF7E6BF7047ED
:10D8200070B50B89092B8CB006460D465CD14C684F
:10D830002388ADF81C30A3782BB1102B56D8013BB0
:10D84000012202FA03F30893E37843B1112B9DBF41
:10D8500003F1FF33012202FA03F34FF0FF33099380
:10D8600023798DF82830B4F8053003F00F03ADF8B4
:10D870002A30B4F80730ADF82C30B4F80700FEF7C2
:10D8800031FB4FF6FF73984237D104238DF81030E7
:10D890002388ADF81130E3788DF81430A3788DF833
:10D8A000133023798DF81530B4F8053003F00F03E9
:10D8B000ADF81630B4F80730ADF8183008F058F964
:10D8C0000A2301900093062204AB29463046FFF755
:10D8D00035FB9DF810303BB914238DF8083002A8B1
:10D8E00007AB0393FFF7FCFA0CB070BDFF2B4FF6AC
:10D8F000FF7318BF4FF0FF33A5E707A80BF024FD17
:10D9000000280CBF00230F23C0E7000037B50378C1
:10D91000012B03D00E2B1DD003B030BD154B426838
:10D920001B689A42F8D1144C2378012BF4D105F0EE
:10D9300025F90AF099FE10B902232370ECE70025BF
:10D940001C236846CDE900558DF80030FFF7C8FA72
:10D950002570E1E7084D2B78022BDDD100241C2334
:10D960006846CDE900448DF80030FFF7B9FA2C7015
:10D97000D2E700BF304600202C46002030B50B898E
:10D98000022B85B005460C4614D14A6800218DF85B
:10D990000C101288ADF80D208DF80F3008F0E8F863
:10D9A00004230190009348F2480203AB2146284625
:10D9B000FFF7C4FA05B030BD7FB504AC022304F80C
:10D9C000043D05460E4608F0D3F80123019000936C
:10D9D00048F21402234631462846FFF7AFFA04B056
:10D9E00070BD0A89012A05D14B681B78012B01D82B
:10D9F000FFF7E2BF70470B890BB9FFF7DDBF704738
:10DA00007FB504AC022304F8043D05460E4608F039
:10DA1000AFF801230190009348F2110223463146EA
:10DA20002846FFF78BFA04B070BD0A89012A05D198
:10DA30004B681B78012B01D8FFF7E2BF70470B89B9
:10DA40000BB9FFF7DDBF704770B50B8988B006468C
:10DA50000D46FBB908A9042341F8143D06A8FEF7BA
:10DA6000A7FC039B9AB25B0803EB430302F001049B
:10DA700004A906A803EB440401F0AEFB08F078F813
:10DA8000A4B2CDE9004004AB48F243022946304637
:10DA9000FFF754FA08B070BDF0B50B89022B8DB0BA
:10DAA00006460D4632D14F680CAC0823388844F83E
:10DAB000243DC0F30B00FEF715FA224608A9FEF735
:10DAC000A7FE3B88ADF8113018B1052820D01023EF
:10DAD0001FE0039C8DF81000A2B2640804EB44041C
:10DAE00002F0010304EB430403340DF1130108A811
:10DAF000A4B201F071FB08F03BF804ABCDE90040A3
:10DB000048F2020229463046FFF718FA0DB0F0BD80
:10DB100004238DF810300324EDE7F0B516460A888B
:10DB20001F4648F218039A4287B005460C4605D0B6
:10DB300048F21A039A4201D0032A2CD10E22002166
:10DB400002A810F00DF923888DF8087048F2180229
:10DB5000934209D048F21A0293421ED0032B20D1DF
:10DB6000636833F8092B02E0636833F8022BADF8E1
:10DB700009201B68CDF81230002E14BF0C260E268B
:10DB800007F0F6FF02ABCDE9006048F2190221462A
:10DB90002846FFF7D3F907B0F0BD636833F8172BB9
:10DBA000E5E7784604F056FFE6E77FB50B89022BE0
:10DBB00006460C461FD14D682888C0F30B00FEF7BF
:10DBC00091F90DF10B01FEF7ABFA002303932B88BB
:10DBD000ADF80D3088B99DF80B308DF80F3007F097
:10DBE000C7FF04230190009348F2170203AB2146BC
:10DBF0003046FFF7A3F904B070BD04238DF80C3054
:10DC0000EDE77FB50B8906460D4683B9FCF744FD69
:10DC100004AC04F8010D07F0ABFF01230190009361
:10DC200048F20E02234629463046FFF787F904B032
:10DC300070BD37B50B89012B05460C4618D14B68D2
:10DC40001A78012A14D80022CDE9002204228DF886
:10DC500000201878431E584258418DF804000BF0FC
:10DC600043FD28462146FFF7C0FD6846FFF738F917
:10DC700003B030BD70B50B89012B8AB006460D4646
:10DC800018D10AA900238DF81030162321F81A3D67
:10DC90000DF11100FFF770F8BDF80E4007F068FFB6
:10DCA0000134A4B2CDE9004004AB0222294630463B
:10DCB000FFF744F90AB070BD2DE9F0470B89132B2B
:10DCC00088B080460C4670D14E68B5787078377849
:10DCD0003388ADF814304FEA051A4AEA101A00F0FA
:10DCE0000F0047EA00208DF81650FEF7FBF80023DE
:10DCF0008DF81830F21C07AB014681465046FEF7FE
:10DD000033FC384B1B685B0406461CD5364B1B683E
:10DD1000032B18DD2F21354810F0F2F8F8B12F2130
:10DD2000324810F0EDF8411C314BBDF81C20D3F8FF
:10DD3000043501922F4A0092CDF808A040F27522D6
:10DD4000042009F00FFF0F2E48D8DFE806F03E4709
:10DD500047114049473347474747474747315C21C9
:10DD6000224810F0CDF808B15C21D9E71F49DBE764
:10DD70000DF11201BDF81C00FEF7F6F810B178465F
:10DD800004F068FEBDF812204A4514BF04220022A8
:10DD90008DF814708DF81650059B21464046FFF70C
:10DDA00057FA16B906A8FFF79BF808B0BDE8F08748
:10DDB0000622EDE78DF814708DF81650059B0322AE
:10DDC00021464046FFF744FAEFE70022E0E78DF8EE
:10DDD00014708DF81650059B0522F1E71022D7E745
:10DDE0000422D5E7682E0020642E00204CE70300B3
:10DDF000001001407CE7030073B50D461646FCF7A2
:10DE000053FB0528044607D006281AD0B8B9338832
:10DE10009C4204D3002000E0022002B070BD69469D
:10DE20002888FDF77BFF50B99DF80030023B012B9D
:10DE300005D8BDF8023025F8023B0134E7E7102091
:10DE4000EBE70820E9E72DE9F0410B89042B9EB0B0
:10DE500006460D4612D14C684FF6FF786788208839
:10DE6000ADF80E70ADF80C80FFF742F8404508D1D0
:10DE70000123012229463046FFF7A2FA1EB0BDE871
:10DE8000F08102AA0399FCF7BBFC08B10223F0E77A
:10DE90001EAA182322F86E3D04A9BDF80800FFF75A
:10DEA000ABFF03460028E4D1BDF80A208DF84000FE
:10DEB0002388ADF8413004A952000DF14500ADF8BA
:10DEC00043700FF042FFBDF80A4007F051FE6400B6
:10DED0000534A4B2CDE9004010AB48F22A0229462D
:10DEE0003046FFF72BF8C9E708B590B1B0F5004F01
:10DEF00006D8002301334008DBB2FBD1184608BD29
:10DF00004FF6FF73984206D0784604F0A3FD102325
:10DF1000F4E70346F2E7FF23F0E708B570B1B0F588
:10DF2000803F06D8002301334008DBB2FBD11846FE
:10DF300008BD784604F08EFD1123F8E70346F6E7A6
:10DF400070B50C4686B005460BF0FAF921890646F5
:10DF500019BB8DF80C100388ADF80D304368012B08
:10DF60001DD8DBB2B0688DF80F30FFF7D6FF337BDA
:10DF70008DF81130F389ADF81230338AADF81430D2
:10DF80008DF8100007F0F4FD0A230190009306229B
:10DF900003AB21462846FEF7D1FF06B070BDB3F5AE
:10DFA000004F07D8013B5B08CAB201F10101FAD169
:10DFB000931CD6E74FF6FF72934204D0784604F0E4
:10DFC00049FD1023CEE7FF23CCE7F0B50E8987B0DB
:10DFD00007460D462EBB0BF0AFF98DF80C60038899
:10DFE00004460BB14288F2B900238DF80D308DF84C
:10DFF0000E308DF80F308DF810308DF811308DF80F
:10E0000012308DF813308DF8143007F0B1FD09236C
:10E010000190009348F23C0203AB29463846FEF7D4
:10E020008DFF07B0F0BDADF80D304388ADF80F306F
:10E030004068FFF759FF8DF81200A068FFF76DFFE9
:10E04000A3898DF813308DF81100E389DBE72DE902
:10E05000F04F0B89132B85B080460D463ED14C689E
:10E06000607823882778ADF804304FEA101B00232E
:10E0700000F00F00A6788DF80660CDE9023347EA7C
:10E08000002001238DF80830FDF72CFF4FF6FF7AB2
:10E090005045814633D04BEA0610FDF737FF504517
:10E0A000ADF80C002DD00DF10201FDF75DFF10B1B0
:10E0B000784604F0CFFCBDF802304B4511D0112456
:10E0C0008DF804708DF80660019B22462946404673
:10E0D000FFF7BEF814B902A8FEF702FF05B0BDE8CD
:10E0E000F08FE11CBDF80C00FEF7D4FA052808D02B
:10E0F000082808D000280CBF00241024E0E70424DE
:10E10000DEE70324DCE70B24DAE72DE9F0430A8994
:10E11000032A85B080460D4653D14B689E781988F6
:10E120001F785B78ADF80410300140EA13108DF8C9
:10E13000066003F00F048DF80820FDF7E7FE4FF6A8
:10E14000FF794845ADF80C0024D047EA0420FDF7DC
:10E15000C9FE4845044637D00DF10201BDF80C0058
:10E16000FDF702FF10B1784604F074FCBDF80230F0
:10E17000A34211D1BDF80C00FCF7D8FB10B17846D2
:10E1800004F068FCBDF80C00FEF7D6FA10B1784632
:10E1900004F060FC002400E011248DF804708DF878
:10E1A0000660019B224629464046FFF751F844B9D4
:10E1B000BDF80C204FF6FF739A4202D002A8FEF77A
:10E1C0008FFE05B0BDE8F0830424E6E7F0B50B89C7
:10E1D000052B8DB007460D464AD14C681022002110
:10E1E00008A80FF0BDFD2388ADF820306388ADF896
:10E1F0002230237943B1112B9DBF03F1FF3301225C
:10E2000002FA03F34FF0FF3308A80A930BF02CF83F
:10E21000064668BB0BF090F88DF814600388ADF8E3
:10E220001530044643888068ADF81730FFF775FE57
:10E230008DF819006068FFF757FEA3898DF81B3031
:10E24000E3898DF81C308DF81A0007F091FC092342
:10E2500001900093384605AB48F23C022946FEF790
:10E260006DFE152303A88DF80C300494FEF738FEDC
:10E270000DB0F0BD2DE9F347B1F8088028F0020396
:10E28000042B06460C4621D14D686B882888B8F1CE
:10E29000040F9FB21BBF6A792B79ADF8063043EAB1
:10E2A00002230BBF4FF001094FF000094FF6FF7733
:10E2B000ADF80630FEF71CFE4FF6FF7A504508D148
:10E2C00001234A4621463046FFF727FC02B0BDE84D
:10E2D000F087ADF804700DF102020199FCF790FA95
:10E2E00020B9B8F1040F03D0574501D10223E8E764
:10E2F000BDF802302A8821463046FFF726F9E5E7C7
:10E300002DE9F047B1F8089029F00203042B86B0FC
:10E3100007460D4621D14C6863882088B9F1040F67
:10E320009EB21BBF62792379ADF80E3043EA022317
:10E330000BBF4FF001084FF000084FF6FF76ADF825
:10E340000E30FEF7D5FD4FF6FF7A504508D1012378
:10E35000424629463846FFF733F806B0BDE8F08755
:10E36000ADF80C600DF10A020399FCF749FA20B9E7
:10E37000B9F1040F03D0564501D10223E8E7BDF8F7
:10E380000A00FFF7AFF8064608B10346E0E7FBF7DF
:10E390008DF934F8022BCDF80480206800903346C4
:10E3A00038462946FEF733FF0C23CDE9046604A85E
:10E3B0008DF81030BDF80A30ADF81430FEF790FD3E
:10E3C000CBE72DE9F047B1F8089029F00203142BB0
:10E3D00088B006460D462ED14C68638A2088B9F174
:10E3E000140F1FFA83F81BBF627D237DADF80E303A
:10E3F00043EA02230BBF012700274FF6FF78ADF851
:10E400000E30FEF775FD4FF6FF7A504501D101231E
:10E410000CE0ADF80C8002AA0399FCF7F1F920B9E1
:10E42000B9F1140F0AD0D04508D102233A46294643
:10E430003046FEF7C5FF08B0BDE8F08702238DF82F
:10E440001030A01C00230DF11201ADF81230059020
:10E4500009F0B6FA10B1784604F0FCFA0DF10A01A1
:10E4600004A8FDF7F3FC0528D1D008B11023DDE79F
:10E47000BDF80A10BDF80800FBF7E6FF08B10C2351
:10E48000D4E7BDF80A00FDF77BFC10B1784604F034
:10E49000E1FAFBF70BF934F8122B01972068BDF86D
:10E4A0001230009029463046FEF7B1FE0F238DF85A
:10E4B0001830BDF80830ADF81C3006A8BDF80A3099
:10E4C000ADF81E30FEF70CFDB5E72DE9F047B1F8C9
:10E4D000089029F00203142B88B006460D4620D17F
:10E4E0004C68638A2088B9F1140F1FFA83F81BBFA8
:10E4F000627D237DADF80E3043EA02230BBF012776
:10E5000000274FF6FF78ADF80E30FEF7F1FC4FF61E
:10E51000FF7A504508D101233A4629463046FEF796
:10E520004FFF08B0BDE8F087ADF80C8002AA039950
:10E53000FCF766F920B9B9F1140F03D0D04501D129
:10E540000223E9E70DF10A01A01CFDF7C8FB20B189
:10E5500004280CBF05231023DEE7BDF80A10BDF820
:10E560000800FBF741FF8046BDF80A00B8F1000F34
:10E570000BD0FDF705FC10B1784604F06BFAB8F14A
:10E58000060F0CBF08231023C6E704A9FDF7C6FB3E
:10E5900010B1784604F05EFAFBF788F834F8122BD5
:10E5A00001972068BDF81230009029463046FEF7EA
:10E5B0002EFE0E238DF81830BDF80830ADF81C3053
:10E5C00006A8BDF80A30ADF81E30FEF789FCA8E7B2
:10E5D0002DE9F04FB1F80880B8F1080F89B0064670
:10E5E0000D4602D0B8F1060F21D16C68A3882088AF
:10E5F000B8F1060F1FFA83F91BBFE279A379ADF8D2
:10E600000E3043EA02230BBF012700274FF6FF79A4
:10E61000ADF80E30FEF76CFC4FF6FF7A504583469E
:10E6200008D101233A4629463046FEF7C9FE09B013
:10E63000BDE8F08F608807F0ADF80328F1D1ADF8A0
:10E640000C9002AA03995846FCF7DAF820B9B8F101
:10E65000060F03D0D14501D10223E3E703238DF850
:10E6600010306388ADF812300DF10A01002304A8C0
:10E670000593FDF7EBFB78BBBDF80A10BDF8080069
:10E68000FBF7E2FE062801D10823CBE708B11023EF
:10E69000C8E7BDF80A00FDF773FB10B1784604F037
:10E6A000D9F9FBF703F8638834F8042B0197206845
:10E6B000009029463046FEF7AAFD0B238DF818304E
:10E6C000BDF80830ADF81C3006A8BDF80A30ADF82A
:10E6D0001E30FEF705FCAAE70528D8D1E3E72DE9AF
:10E6E000F04FB1F80880B8F1080F87B006460D4624
:10E6F00002D0B8F1060F21D16C68A3882088B8F148
:10E70000060F1FFA83FA1BBFE279A379ADF80E302A
:10E7100043EA02230BBF012700274FF6FF7AADF82B
:10E720000E30FEF7E5FB4FF6FF794845834608D1EA
:10E7300001233A4629463046FEF742FE07B0BDE8BF
:10E74000F08F608807F026F80328F1D163884B45E5
:10E75000EED0ADF80CA002AA03995846FCF750F889
:10E7600020B9B8F1060F03D0CA4501D10223E0E772
:10E770000DF10A016088FDF7AFFA40B1042804D01A
:10E7800010280CBF01231023D3E70523D1E7BDF8E0
:10E790000A10BDF80800FBF727FE804668B1BDF8F7
:10E7A0000A00FDF7EDFA10B1784604F053F9B8F11C
:10E7B000060F0CBF08231023BBE7FAF777FF638827
:10E7C00034F8042B01972068009029463046FEF764
:10E7D0001EFD0A238DF81030BDF80830ADF8143056
:10E7E00004A8BDF80A30ADF81630FEF779FBA5E7AE
:10E7F0002DE9F047B1F8089029F00203142B88B0F6
:10E8000006460D4620D14C68638A2088B9F1140F62
:10E810001FFA83F81BBF627D237DADF80E3043EAFB
:10E8200002230BBF012700274FF6FF78ADF80E300B
:10E83000FEF75EFB4FF6FF7A504508D101233A46BA
:10E8400029463046FEF7BCFD08B0BDE8F087ADF8BC
:10E850000C8002AA0399FBF7D3FF20B9B9F1140F7A
:10E8600003D0D04501D10223E9E7BDF80800FEF747
:10E8700039FE03460028E2D10DF10A01A01CFDF784
:10E880002EFA58B104280CBF052310233A46294616
:10E890003046FEF795FDFAF709FFD5E7BDF80A10F7
:10E8A000BDF80800FBF7A0FD8046BDF80A00B8F1EE
:10E8B000000F0CD0FDF764FA10B1784604F0CAF8E6
:10E8C000B8F1060F01D10823E0E71023DEE704A921
:10E8D000FDF724FA10B1784604F0BCF834F8122B96
:10E8E00001972068BDF81230009029463046FEF7A7
:10E8F0008EFC10238DF81830BDF80830ADF81C30B0
:10E9000006A8BDF80A30ADF81E30FEF7E9FAC2E7F6
:10E910002DE9F04F0F8927F00203042B8FB08246B8
:10E920000D4640F0AD804E6874883088042F16BFC5
:10E93000A0464FF6FF78B488FEF7DAFA2A8848F244
:10E940004B039A424FF6FF7340F0AB80984200F0C1
:10E95000828048F24C09ADF81080ADF8124003AA4D
:10E960000499FBF74DFF28B9042F1FD04FF6FF7312
:10E9700098451BD129883388ADF8253048F24B02E1
:10E9800091424FF002020CBFADF82740ADF829408C
:10E990008DF824200EBF0524ADF82780072407F04A
:10E9A000E7F80190009409AB4A4665E00EAA0823F7
:10E9B00022F82A3D05A9BDF80C00FBF701FE10B1B5
:10E9C000784604F047F84FF0000BBDF80E701FFAC0
:10E9D0008BF39F4221D829883388ADF8253048F23F
:10E9E0004B0291424FF000028DF8242027D13A4685
:10E9F0000DF1290105A8ADF8274000F0EDFB052435
:10EA000007F0B6F87B0803EB430307F0010703EBBD
:10EA100047073C440190E4B2C4E71FFA8BF1490078
:10EA20000EAB0B4405AA114433F8240CFDF782FA0F
:10EA300010B1784604F00EF80BF1010BC5E73A4629
:10EA40000DF12B0105A8ADF82940ADF8278007246A
:10EA500000F0C2FBD4E73388ADF825300122ADF8D1
:10EA600027408DF8242048F24C06052407F080F852
:10EA7000CDE9004009AB324629465046FEF75EFA22
:10EA80000FB0BDE8F08F3388ADF825300122ADF826
:10EA900029408DF82420ADF8278048F24E0607243F
:10EAA000E4E79842EFD048F24E0954E72DE9F04FE1
:10EAB000B1F80880B8F1080F87B006460D4602D0BD
:10EAC000B8F1060F21D16C68A3882088B8F1060F31
:10EAD0001FFA83F91BBFE279A379ADF80E3043EA40
:10EAE00002230BBF012700274FF6FF79ADF80E3048
:10EAF000FEF7FEF94FF6FF7A5045834608D1012311
:10EB00003A4629463046FEF75BFC07B0BDE8F08F79
:10EB1000608806F03FFE0328F1D1ADF80C9002AA00
:10EB200003995846FBF76CFE20B9B8F1060F03D0E5
:10EB3000D14501D10223E3E7BDF80800FEF7D2FC7E
:10EB400003460028DCD10DF10A016088FDF7C4F806
:10EB500040B1042804D010280CBF01231023CFE7B4
:10EB60000523CDE7BDF80A10BDF80800FBF73CFC13
:10EB7000804668B1BDF80A00FDF702F910B1784689
:10EB800003F068FFB8F1060F0CBF08231023B7E7A6
:10EB9000FAF78CFD638834F8042B01972068009005
:10EBA00029463046FEF733FB0D238DF81030BDF8B3
:10EBB0000830ADF8143004A8BDF80A30ADF81630AE
:10EBC000FEF78EF9A1E72DE9F0470B89062B9EB0E1
:10EBD00007460E461DD14D682888FEF789F9B6F81C
:10EBE0000890B9F1040F0CBF0124002414D1AB78B4
:10EBF000EA7843EA0223ADF80E304FF6FF784FF67D
:10EC0000FF7A504511D10123224631463846FEF79E
:10EC1000D7FB1EB0BDE8F0872B796A79B5F8028082
:10EC200043EA0223ADF80E30E9E7ADF80C8002AA02
:10EC30000399FBF7E5FD20B9B9F1040F03D0D045E6
:10EC400001D10223E0E71EAA182322F86E3D04A991
:10EC5000BDF80800FFF7D0F803460028D4D18DF89E
:10EC600040002B88BDF80A40ADF84130AB88ADF8C4
:10EC700045306400A4B26B88ADF84330224604A945
:10EC80000DF147000FF061F806F072FF0734A4B2EF
:10EC90000190009410AB48F22C0231463846FEF742
:10ECA0004DF9B6E72DE9F04F0C89082C8FB080465E
:10ECB0000D4601D0062C27D16E68B788062C4FF080
:10ECC00000031CBFB946F7888DF82C303388ADF8A7
:10ECD0002D307388ADF82F3008BF4FF6FF79736879
:10ECE000CDF83130062C12D18FB90D238DF82C3090
:10ECF00006F03EFF0723019000930BAB48F23E0263
:10ED000029464046FEF71AF90FB0BDE8F08F30886B
:10ED1000FEF7EEF84FF6FF73984282460BD10123BF
:10ED2000062C14BF092407248DF82C3006F020FF90
:10ED3000CDE90040E1E7ADF82090ADF8227007AAD8
:10ED40000899FBF75DFD4D4B1B689B0483461DD561
:10ED50004B4B1B68032B19DD2F214A480FF0D0F8CD
:10ED6000F8B12F2147480FF0CBF8411CBDF81C200B
:10ED7000454BD3F80435CDE90392444A0092CDE9DE
:10ED800001A740F68912042008F0ECFEBBF1000F49
:10ED900005D1062C0ED04FF6FF7399450AD10223F8
:10EDA000BEE75C2137480FF0ABF808B15C21D9E72A
:10EDB0003449DBE77088C0F30B00FDF7A7F82A8819
:10EDC00048F23D039A420646BDF81C0010D11623B6
:10EDD00031468DF82430ADF82800ADF82A60FBF7F5
:10EDE0009FFB052843D0072845D018B310233FE0E8
:10EDF000172331468DF82430ADF82800ADF82A608D
:10EE0000FBF7B6FB0028ECD10DF11E01BDF81C008C
:10EE1000FBF722FC10B1784603F01CFEBDF81E3053
:10EE2000B34207D1BDF81C00FBF754FD10B1784682
:10EE300003F010FE00238DF82C30FAF737FC062C77
:10EE400014BF0924072406F093FE0BABCDE9004064
:10EE500048F23E0229464046FEF770F89DF82C30F5
:10EE6000002B7FF451AF09A8FEF73AF84CE70223D4
:10EE70008DF82C30E3E70323FAE700BF682E00206B
:10EE8000642E00204CE7030000100140AEE70300B1
:10EE90002DE9F04F0A880B89032A89B007460D46F1
:10EEA00027D10D2B01D00B2B56D16A680B2BB2F852
:10EEB000093014BF117BADF80E301FFA83FA18BF6A
:10EEC000D37A14461CBF43EA0123ADF80E3034F860
:10EED000049BB2F802800ABF012600264FF6FF7A93
:10EEE0004846FEF705F84FF6FF7B584524D101232D
:10EEF0002DE048F21A018A4203D123F00202192AB6
:10EF00002AD16C68192BB4F8173014BFA27EADF863
:10EF10000E301FFA83FA18BF637E34F8129B15BFB8
:10EF200043EA0223012600264FF6FF7A18BFADF808
:10EF30000E304FF00008D3E7ADF80CA002AA0399F9
:10EF4000FBF75EFC10B956B9DA4508D10223324608
:10EF500029463846FEF7E1FD09B0BDE8F08F637839
:10EF6000207803F00F0340EA0320FCF7CFFF4FF6B1
:10EF7000FF739842824601D10323E8E74046ADF88B
:10EF80000A3006F007FC2B88032B32D10228AED0C2
:10EF900000F0FD00012840F0E1800DF10A01BDF80C
:10EFA0000800FBF7D1F858B10DF10A014046FCF713
:10EFB00047FE00283CD004280CBF05231023C6E7D9
:10EFC00004A9BDF80A00FCF7A9FE0028ECD19DF8C1
:10EFD0001030022B03D0BDF81230434528D0BDF8C5
:10EFE0000A00FCF751FE0028DED0784603F032FD1F
:10EFF000DAE76B68BDF808000DF10A0103F1020BB6
:10F00000FBF7A2F828B10DF10A015846FCF738FECB
:10F01000CFE704A9BDF80A00FCF780FE0028F2D172
:10F020009DF81030022B25D09DF81030022B28D1EE
:10F03000B8F1000F2FD0227994F80380BDF80800B2
:10F04000C2F302014FF0000B61F3020BD20862F32E
:10F05000C70B00224FEA981311460193FBF760F9A2
:10F0600008F03F08019B28B306281ED0784603F01D
:10F07000F1FC71E71022594605980EF057FE002862
:10F08000D2D0BDF80A00FCF7FFFD0028BBD07846BF
:10F0900003F0E0FCB7E72A8848F21A039A42CAD084
:10F0A000BDF80800FBF716FC3DE0B8F1000F0ED0EC
:10F0B00007234CE7B8F1000F09D042461946BDF8C6
:10F0C0000800FBF72DF910B1784603F0C3FC594650
:10F0D000BDF80800FBF74CF810B1784603F0BAFC15
:10F0E000BDF80A10BDF80800FBF710F810B178461B
:10F0F00003F0B0FC5146BDF80800FBF78FFA10B1E1
:10F10000784603F0A7FC6178BDF80800C1F3001150
:10F11000FBF7C8FA10B1784603F09CFCA178BDF863
:10F120000800FBF7EFFA10B1784603F093FCFAF70A
:10F13000BDFABDF8083038464A462946FEF705FABA
:10F140000023CDE9063302238DF8183006A8BDF858
:10F150000830ADF81C30FDF7C3FEFDE6B8F1000F36
:10F160007FF469AF9CE7000030B587B0162200211C
:10F1700005460DF102000EF0F3FD0E4B02934FF623
:10F18000FF742E230C480393ADF8004006F0E8FC12
:10F190000A480AF0E5F80A4B1B88A34202D07846D9
:10F1A00003F058FC074B06491D606846FAF7A2FEBB
:10F1B00007B030BDF4E70300F82D00200DCF0200AA
:10F1C000F42D002028460020024B01461888FBF74A
:10F1D000A7B900BFF42D002030B50024A24200D80A
:10F1E00030BD30F814300B70651CC3F30323AA4202
:10F1F0004B7007D900EB44056D8843EA05132D09D0
:10F200004B708D7002340331E8E7000082B0064B8A
:10F210000190C0F30F40A0F50C7080B253F820307D
:10F220009B780B7002B0704754460020C0F30F402B
:10F23000A0F50C7080B2044B53F8203082B000224D
:10F240009A7002B0704700BF5446002070B5144D4C
:10F250002C68002634B92B6803BB1248BDE8704007
:10F2600006F0A4BE94F8503013B1013B84F850303E
:10F2700094F8503043B92B689C4208D1636D2B60E1
:10F28000E36C0021204698472646646DE2E716B9F4
:10F29000784603F0DFFB636D7365F1E770BD00BF77
:10F2A000504600203446002030B587B090F85030EA
:10F2B0008DF804300C4B029301AB03930123ADF89E
:10F2C000103000238DF81230022304460D468DF8CD
:10F2D000133006F04DFC02AA059029462088FAF763
:10F2E00007FF07B030BD00BF0780FFFF0B8913B9D0
:10F2F0001046FFF7D9BF704730B587B083788DF8D7
:10F3000004300C4B029301AB03930123ADF8103092
:10F3100000238DF81230022304460D468DF8133079
:10F3200006F026FC02AA059029462088FAF7E0FE9E
:10F3300007B030BD3780FFFF0B8913B91046FFF7C8
:10F34000DBBF704738B504460D4607F041FB94F823
:10F35000503084F850505BBB55B3E36C012120461C
:10F36000984707F035FBE36C13B9784603F072FB5E
:10F3700094F8503013B9784603F06CFB0E4B1968C3
:10F3800061651C6091B90D4C182220460EF0E8FC16
:10F3900006F04CFE00F5742000F51070084B60601C
:10F3A000E3602046074BA36006F0DEFD07F050FB4C
:10F3B000BDE8384007F04CBB5046002034460020E2
:10F3C00040420F004DF2020038B50B89012B0C466C
:10F3D000154611D1D36C23B14B6810461978FFF74D
:10F3E000B1FF228848F205039A4205D121462846FA
:10F3F000BDE83840FFF758BF38BD000037B50B896E
:10F40000012B0C46154618D149680B780E2B0BD9E9
:10F41000228848F235039A420FD12146284603B08C
:10F42000BDE83040FFF768BF054B1B68934204D12D
:10F4300004480AF0D7FB0028EAD003B030BD00BF73
:10F4400054460020030030024B0901F01F024FF028
:10F45000FF31914050F82320114049B14A420A40FF
:10F4600008495143C90E084A505C00EB43107047ED
:10F470000133072B02D850F82310EEE74FF48070C9
:10F48000704700BF31B57C07C0E903002DE9F043A8
:10F49000C7B0042905AE437A33700CBF00F12C09C4
:10F4A00000F10C094389A6F8013005468846484614
:10F4B00000211746FFF7C8FF0024B0F5807F2346E0
:10F4C0001BD14FF6FF73ADF8063000238DF80E30D8
:10F4D00003340223ADF804800296ADF80C408DF899
:10F4E0000F3006F045FB049028888FB101AA3946F9
:10F4F000FAF7FEFD47B0BDE8F0833344411C013408
:10F50000FF29E4B2D870DCD84846FFF79DFFD4E766
:10F5100001A9FAF7C1FDEDE7084600220421FFF733
:10F52000B5BFF8B50B89032B0D46144610D11388CF
:10F53000834202D0784603F08DFA6E686389B6F88C
:10F5400001108B4204D1207A0023DAB2904200D815
:10F55000F8BD626812F833C002EBC3073278624527
:10F5600003F10103F1D17B68204698473378637239
:10F570002A8848F232039A42EAD12A4620460521D7
:10F58000BDE8F840FFF782BF38B50B89022B0D4666
:10F59000144611D11388834202D0784603F05AFAF8
:10F5A0006B681A8863899A4206D12A46204605214B
:10F5B000BDE83840FFF76ABF38BD38B50B89022B6C
:10F5C0000D4614461CD11388834202D0784603F0BE
:10F5D00041FA6B681A8863899A4211D1202200216E
:10F5E00004F10C000EF0BCFB2A8848F22F039A426B
:10F5F00006D12A4620460521BDE83840FFF746BF20
:10F6000038BD38B500F12C0500212846FFF71CFF56
:10F610000024B0F5807F01D1E0B238BD411CFF2944
:10F6200004F10104F8D82846FFF70EFFF1E70000C7
:10F6300037B50190C0F30F40A0F50C700C4B0D785E
:10F6400080B253F82040A378AB420DD0A57020467D
:10F65000FFF7D7FF40B10121A940208889B203B04C
:10F66000BDE83040FAF740BE002003B030BD00BF17
:10F670005446002070B586B0C3640A9B43600025E1
:10F680009DF82C300372044642810E46457280F884
:10F69000505085704565202229460C300EF060FBE5
:10F6A0002946202204F12C000EF05AFB0B4B00934C
:10F6B0000B4B02930B23CDE903342146094BADF8E4
:10F6C000046068460593FAF715FC28B9064B43F821
:10F6D00026402088FAF75AFE06B070BDFFFF0200F0
:10F6E00068E9030019F502005446002000B589B00E
:10F6F0000A238DF8003000F17803029300F58C7333
:10F7000001900393C3686846984709B05DF804FB0D
:10F7100070B505692C68A86088B006465CB90223FC
:10F7200085F80B3101238DF800300195EB686846B0
:10F73000984708B070BDB44203D0A36820469B68C8
:10F7400098472468EAE730B5046994F80B31122B26
:10F7500089B00D4603D111B92046FFF7C7FF00233A
:10F7600084F80B3102238DF8003001948DF8085095
:10F77000E3686846984709B030BD30B590F80C3161
:10F7800089B00446032B3BD8DFE803F0312B170286
:10F7900006238DF8003090F806318DF8093090F886
:10F7A00007318DF8083001900B2384F80B3168463F
:10F7B000E3689847002009B030BD00F1C50529462F
:10F7C00000F0C0FE05238DF8003094F806318DF866
:10F7D000093094F807318DF80830019403950F2310
:10F7E000E3E707238DF8003001900C23DDE71022BA
:10F7F0000021C5300EF0B4FA0F2384F80B31D9E79D
:10F800000320D8E730B5044689B080680D4600F083
:10F81000DDFC20B1A068836802211B69984794F839
:10F820000B31152B0DD00C238DF80030152384F8E7
:10F830000B3101948DF8085084F80A51E36868464A
:10F84000984709B030BD10B588B0044600F02AFFD3
:10F8500080B10B238DF800306369039304F1180322
:10F8600002930A2384F80B310194E36868469847B1
:10F8700008B010BD04F15801204600F049FE48B917
:10F880002046FFF77AFF0028F2D005212046FFF737
:10F89000B9FFEDE70221F9E713B5046994F80B31DC
:10F8A000023B132B47D8DFE803F00A46460D4646D5
:10F8B0000F4646154617461746191B464620052390
:10F8C00084F80B3102B010BD204602B0BDE81040F4
:10F8D000FFF7B9BF0F23F3E71123F1E71223EFE797
:10F8E0002046FFF703FF1423EAE7274B1B681A079C
:10F8F000E8D5264B1B68032BE4DD2F2124480EF0AE
:10F90000FFFA78B12F2122480EF0FAFA411C214B60
:10F91000214AD3F80435009204204FF4157208F000
:10F9200021F9CFE75C211A480EF0EAFA08B15C2110
:10F93000E9E71749EBE7144B1B681B07C2D5134BCC
:10F940001B68002BBEDD2F2111480EF0D9FA90B1B3
:10F950002F210F480EF0D4FA411C0E4B94F80B21C6
:10F96000D3F8043501920D4A0092012040F257224B
:10F9700008F0F8F8A6E75C2105480EF0C1FA08B1D6
:10F980005C21E6E70249E8E7682E0020642E0020AB
:10F99000F0E903000010014014EA030044EA030008
:10F9A00070B50D4698B004690E782846114600F0EF
:10F9B000A1FB08B1092E04D901212046FFF722FF3F
:10F9C000D4E0324694F80B1194F8090100F078FE67
:10F9D00050BB984B1B681B071BD5974B1B68042B10
:10F9E00017DD2F2195480EF08BFAA0B12F219348F7
:10F9F0000EF086FA411C94F80B21914BD3F8043594
:10FA0000CDE901628F4A009205204FF4C47208F0DC
:10FA1000A9F80321D1E75C2188480EF071FA08B1FA
:10FA20005C21E4E78549E6E72B78072B00F27C812F
:10FA3000DFE813F008007A014D00A0007A01B80059
:10FA4000E3000A01012204F1F506A91830460EF080
:10FA50007CF903238DF83C306B7810948DF844309A
:10FA6000E3680FA8984701238DF8183094F80D31FA
:10FA70008DF81930B4F80E21130A43EA0223ADF8C9
:10FA80001A3094F810318DF81C3094F811318DF83B
:10FA90001D3094F812318DF81E30B4F81321130A7A
:10FAA00043EA0223ADF81F3094F815318DF8213068
:10FAB000B4F81621130A43EA0223ADF82230324685
:10FAC00006A9A06800F024FB00284FD087E06B78DF
:10FAD0008BB9AB78012B0ED8EA78032A0BD8012B0F
:10FAE00003D194F81031012B05D1012A2B7904D8C8
:10FAF0000BB96B794BB102215FE7022A38D1042B95
:10FB0000F9D86B79013B072BF5D8691C052204F263
:10FB100001100EF01AF9AB78003318BF012384F8F6
:10FB20000831EB7884F80C31EB78012B14BF6B793A
:10FB3000102384F806312B7984F8073104238DF8DB
:10FB40003C301094E3680FA8984794F808310825D2
:10FB500084F80B5153B1202200210FA80EF000F9B8
:10FB60008DF83C501094E3680FA8984718B070BD0A
:10FB7000032BC5E70135284600F0BEFC0028BAD0AB
:10FB80004022294604F118000EF0DFF894F80831FD
:10FB900023B92169A06800F0CAFA95E72046FFF76B
:10FBA00052FEE3E794F80B310F2B1AD11022691C97
:10FBB00004F1E5000EF0C9F804F1D501204604F186
:10FBC000A5030FAA00F0E2FB0FA9A06800F0CDFA90
:10FBD0000028CBD0042802D0784602F03BFF052154
:10FBE000EBE60C2BC2D11022691C04F1E5000EF0EB
:10FBF000ACF80D2384F80B31B8E71022691C04F12E
:10FC0000B5000EF0A2F8204600F0E8FC08B9042187
:10FC1000D3E604F1A501A06800F0BAFA0028DED10D
:10FC200004F1780304F1980204F18801204600F001
:10FC30000DFC9BE7682E0020642E0020F0E90300F5
:10FC40000010014073EA030004F188030F9304F1EC
:10FC5000980310936B1C119318A91923ADF8483021
:10FC60000DEB03060023082201F8493D1A350FA8C1
:10FC70001393ADF85030159616958DF85C2007F06B
:10FC800066F89DF81730002B3FD01022314604F55E
:10FC90008C700EF05AF80B9B94F830111BBAC4F814
:10FCA0002A31BDF83030180A40EA032080B2A4F8A7
:10FCB0002E01BDF82920130A43EA02239BB2A4F8BF
:10FCC00028319DF82B20C2F3400262F3000184F832
:10FCD00030119DF82B20C9B2C2F3000262F341013A
:10FCE000B3F5805F84F83011BFF405AF05F052FD25
:10FCF00001287FF400AFB4F82E0194F80D5105F0FF
:10FD000049FD012803D0082157E6062155E6B4F83D
:10FD10002E010138284480B205F03CFD0128F2D1C3
:10FD2000A06800F048FACFE6784602F093FE1DE79F
:10FD300030B40C4611461A4690F80B31012B08D806
:10FD4000054BE360A3685D68044B2046AC4630BCBD
:10FD50006047082030BC7047E0E903000087930348
:10FD60001FB590F80B31A3F10B02022A044619D8F3
:10FD70000B2B04D1806800F0EDF904B010BD0D2B01
:10FD80000BD100F1A50300F1D5016A4600F0FEFA9F
:10FD90006946A06800F0E9F9EFE70F2380F80B311E
:10FDA0000020EAE70820E8E710B590F80B210A2ABE
:10FDB000044609D151B1202258300DF0C6FF20462B
:10FDC000BDE81040FFF7D9BC082010BD0E20FCE7AD
:10FDD00000790B79C31A58425841704710B5431E39
:10FDE00000F11002073013F8011F12F8014D1C70CA
:10FDF00083421170F7D110BD4A0901F01F034FF083
:10FE0000FF31994050F82230194009D04B420B4045
:10FE100004495943C90E044B585C00EB421070472B
:10FE20000320704731B57C0796EA030038B5049D7E
:10FE300088B181B17AB173B16DB190F80B4164B9F9
:10FE4000C0E90351426119460B2200F20D100DF07A
:10FE50007CFF204638BD0E20FCE70820FAE70000B2
:10FE600038B50D46044650B149B1064A07F01CFEAC
:10FE700020B92C612A7963681343636038BD0E2072
:10FE8000FCE700BFD1FD020000F0D0BA38B505464E
:10FE900078B190F80B31012B0DD104681CB985F8AD
:10FEA0000B41204638BDA36820469B6898472468CC
:10FEB000F4E70E20F6E70820F4E72DE9F7430F46B4
:10FEC000904601930446A0B190F80B21012A12D864
:10FED0001BB1416833EA01010FD007252EE02A79D2
:10FEE0009A421FD02D6818E0711C02290BD90025F9
:10FEF00024E00E2522E0082520E04FF0010980F8DB
:10FF00000B9180F8099101A8FFF776FF03280646B8
:10FF1000EDD009FA06F32568DBB2002DDFD1784673
:10FF200002F098FD294643463A462046FFF700FF77
:10FF300005460028D8D02046FFF7A8FF284603B082
:10FF4000BDE8F0832DE9F0410E4617461D469DF8A9
:10FF500018800446F0B1E9B1E3B11B8AB3F5805FC4
:10FF600002D30B20BDE8F081E88A05F013FC0128DC
:10FF7000F7D1206848B9A06070B12B463A463146A7
:10FF80002046BDE8F04102F063BC03794345F2D05E
:10FF90000068EFE70E20E5E70620E3E710B490F8ED
:10FFA00009411CB95DF8044B02F052BC08205DF811
:10FFB000044B7047F8B50E461546044600286FD02E
:10FFC00000296DD0102A6DD890F80631934269D17E
:10FFD00090F80C31012B0DD1C5300DF0B6FE94F820
:10FFE00009312A4631462046002B55D1BDE8F8405C
:10FFF00002F02EBC90F80921DAB9022B21D190F839
:020000023000CC
:100000000731032B1DD82946304600F029FBC0B12B
:1000100004F1C5070422314638460DF096FE0C2245
:10002000002104F1C9000DF09BFE3846FFF7D6FE13
:10003000D5E7012A05D1032B03D190F80731022B14
:10004000E0E794F80931EBB994F80C31022B01D0B8
:100050000820F8BD94F80731042BF9D12946304621
:1000600000F0EAFA0028F3D004F1C5072A46314629
:1000700038460DF06AFE05F1C500C5F110020021F9
:100080002044D0E7012BE3D194F80C31032BDFD1CE
:1000900094F80731032BE0E7BDE8F840FFF760BEB6
:1000A0000E20D6E70920D4E790F809310BB902F009
:1000B000CFBBFFF779BE08B518B100F003F90020F7
:1000C00008BD0E20FCE700F009B970B504461646DD
:1000D0000D4611B9784602F0BDFC14B9784602F01D
:1000E000B9FCA3683246294620461B68BDE870402B
:1000F0001847000048B10378092B05D8034AD05CA3
:10010000431A58425841704700207047B6EA03002E
:1001100038B505460C46501C01310B220DF015FE7A
:10012000214628460C22BDE83840FFF7CEBF30B547
:1001300093B012AC032304F8443D054640220DF170
:1001400005000DF002FE412221462846FFF7BDFFC3
:1001500013B030BD07B502A9042301F8043D012204
:10016000FFF7B3FF03B05DF804FB30B587B006AC12
:10017000052304F8143D054610220DEB03000DF095
:10018000E4FD112221462846FFF79FFF07B030BD4E
:1001900030B587B006AC062304F8143D054610229E
:1001A0000DF105000DF0D1FD112221462846FFF783
:1001B0008CFF07B030BD07B502A9082301F8043D44
:1001C0000122FFF782FF03B05DF804FB07B50923A6
:1001D0008DF80510022201A98DF80430FFF775FF94
:1001E00003B05DF804FB70B506468AB014460D46B0
:1001F00009B308460DF07CFE6A4681B2284606F037
:1002000006FE042269460DF122000DF09EFD162522
:1002100064BAADF8204002F051FD102201460DEB0A
:1002200002000DF092FD2B4604AA0021304608F092
:1002300057FC0AB070BD1225EAE70000F0B50F4682
:1002400089B01446064610B9784602F003FC14B98A
:10025000784602F0FFFB07F0FB03122B25D1184D67
:100260002A6812B32022002168460DF079FD102281
:10027000314601A807940DF068FD23785A1E5342B9
:1002800053410021162F8DF814308DF800100ED137
:100290000123042206F112010DF116008DF815302C
:1002A0000DF053FD2B686846984709B0F0BD042255
:1002B0000DF116008DF815100DF052FDF2E700BF9C
:1002C0005846002010B5044610B9784602F0C2FB2B
:1002D000014B1C6010BD00BF58460020014B00229E
:1002E0001A607047584600200A78034B82B00020FD
:1002F0001A7002B0704700BF5D460020024B1B78A9
:100300000B7082B002B070475D460020024B82B095
:1003100000221A7002B070475D46002073B5054692
:100320000A4E68460C4605F08FFF002324219C42AC
:1003300001D802B070BD1DF80300B0FBF1F201FB63
:100340001202D2B2B25CEA540133F0E7C4EA03000D
:1003500037B50D46042104460DEB010005F074FF8E
:10036000094B019953F82520B1FBF2F302FB13135B
:1003700004221BBA0DEB020104F10C0001930DF0F5
:10038000E4FC03B030BD00BFECEA03002DE9F0410E
:100390000446ACB00F46904600F1F501112207A8C3
:1003A0001E460DF0D2FC94F8093104F118054022E4
:1003B00093BB21690DF12D000DF0C7FC40222946A9
:1003C0000DF16D000DF0C1FC3A4607A8912106F031
:1003D0001EFD03AD04233A46009304F15800124B6E
:1003E0000195202106F029FD3046102105F02CFF53
:1003F0003146102207A80DF0A8FC04F1C501102217
:100400000BA80DF0A2FC4346202207A9284606F0BF
:100410009AFC2CB0BDE8F08129460DF12D000DF0BD
:1004200094FC40222169CBE726EB030038B5044653
:100430000D460DF0B9F92946024620460DF0B8F9EF
:10044000012814BF0320002038BD00002DE9F0432F
:10045000044697B08946904600F1D50110220AA8BB
:100460001F460DF072FC94F8093104F1B50604F151
:10047000A505102293BB29460EA80DF066FC10229C
:10048000314612A80DF061FC5834042502AA0AA8CE
:10049000302106F0BCFC02AA2046CDF8049000955D
:1004A000124B202106F0C9FC06ABCDE9005302AA8D
:1004B0000F4B2046202106F0C0FC0DF11B010D2240
:1004C00040460DF042FCCDE900570A4B02AA20211C
:1004D000204606F0B2FC17B0BDE8F08331460EA806
:1004E0000DF033FC10222946CBE700BF2BEB0300B5
:1004F00030EB030035EB030010B504460DF054F962
:10050000014620460DF030FA003018BF012010BD22
:1005100070B500F11804054620460E46FFF7ECFFC3
:1005200010B9784602F096FA6D690DF03DF9324641
:100530000346294620460DF079F900280CBF032018
:10054000002070BD37B590F80631013B072B0446FB
:100550000D4602D9784602F07DFA10220021284685
:100560000DF0FEFB94F80C31022B03D0032B16D0B8
:1005700003B030BD94F80731042BF9D8DFE803F05D
:100580001E1E1E03090094F806112846FFF7E0FE20
:10059000EEE794F806112846FFF7C0FEE8E794F866
:1005A0000731032BE4D801A252F823F0BD05030064
:1005B000BD050300870503009305030001210DF12C
:1005C000070094F8064105F03FFE9DF80720B2FBB6
:1005D000F4F304FB13230133EB73C9E730B593B095
:1005E00002AD04230446009300F1D502114B01959E
:1005F0002021583006F021FC04F1B50110220AA890
:100600000DF0A3FB04F1C50110220EA80DF09DFB17
:1006100006AB0AA92846202206F095FB102204F119
:10062000E50106A80DF082FBB0FA80F0400913B096
:1006300030BD00BF26EB030010B50246131ADBB233
:10064000994201D8012010BD12F8013BA3F13004FA
:10065000092CF3D9413B192BF0D90020F3E7000016
:10066000082937B505460C4602D9784602F0F2F95A
:10067000042229460DEB02000DF067FB044B53F8F2
:100680002400019B984294BF0020012003B030BD9C
:10069000ECEA0300024B0146186809F0E3BA00BF18
:1006A000C0EA030007B50DF10700FFF7F3FF10B133
:1006B000784602F0CFF99DF8070003B05DF804FB1F
:1006C0000A4B5B5C60B923F0800342F040018B422F
:1006D00004D0092A14BF0020012070470120704770
:1006E00023F0400342F080008342F3E710EB030065
:1006F000D1F8B83108461B69012100F5D8701847B8
:10070000F8B5114D2B68064613B9784602F0A2F9E8
:10071000EFF3108772B62C68B4420BD1D6F8C4310F
:100720002B6007B962B6F8BD13B9784602F092F9AA
:10073000D4F8C441D4F8C431B342F5D1D6F8C431A9
:10074000C4F8C431EDE700BF6046002070B590F8F2
:10075000A130023B022B04460D4602D9784602F036
:1007600079F92046FFF7CCFF94F8A030012B02D096
:10077000784602F06FF920460AF063FA002384F805
:10078000A03084F8E03084F8A13004F1C00005F016
:100790000DFCD4F8BC31294604F5D870DB68BDE8FF
:1007A0007040184710B5044610B9784602F052F967
:1007B000A4F5D87494F8A130012B09D12046FFF795
:1007C0009FFF20460AF03DFA002084F8A10010BDEA
:1007D0000820FCE72DE9F0418846911C06461546A5
:1007E0001F460AF043F9044600B36B1C43742923E7
:1007F00083742A46414613300DF0A7FA2771EFF3B0
:10080000108772B6D6F8A85101356B1CC6F8A851EE
:1008100002D1784602F01EF907B962B6304625606B
:1008200021460AF05EF90020BDE8F0810420FBE7D4
:100830002DE9F04190F8E030022B88B0044602D058
:10084000784602F007F994F8E330002B42D194F88F
:10085000A130032B02D0784602F0FCF894F8E03087
:10086000022B02D0784602F0F5F8D4F89C2094F8D8
:10087000E13012BA009294F8A3208DF804209DF87C
:10088000052002F0FC02142B03F102014FF01700C7
:10089000B1FBF0F161F387021D468DF8052028BFFA
:1008A000142594F8E2208DF808201B022A4604F152
:1008B000E4010DF10900ADF806300DF046FA012310
:1008C00005F1090269462046FFF784FF80B901233C
:1008D00084F8E33094F8E3501726022794F8E18077
:1008E00008F10203B3FBF6F30133DBB2AB4202D8EB
:1008F00008B0BDE8F0816B1E03EB4301C3EBC101FF
:10090000D4F89C30143189B21BBAA8EB01080093CB
:1009100094F8A3308DF804301FFA88F89DF805305C
:10092000B8F1170F28BF4FF0170867F30103E43140
:1009300065F38703424621440DF106008DF805302A
:100940000DF003FA012308F1060269462046FFF77D
:1009500041FF0028CCD194F8E330013384F8E33030
:100960000135BBE700B5D0F89C3089B01BBA0093C5
:100970004FF43063ADF804308DF8061004230722DD
:100980006946FFF727FF09B05DF804FB38B50D464F
:10099000044610B9784602F05DF8022D02D9784677
:1009A00002F058F8A4F5D87494F8A13013F0FB0FB6
:1009B0000FD0023B012B02D9784602F04BF82946B2
:1009C0002046FFF7CFFF28B9042384F8A13084F82C
:1009D000A45038BD29462046BDE83840FFF7B6BED2
:1009E00000B5D0F89C3089B01BBA00938DF8041084
:1009F0000123062269468DF80530FFF7EBFE09B0AA
:100A00005DF804FB00B5D0F89C3089B01BBA0093A8
:100A10004FF4E063ADF80430062201236946FFF786
:100A2000D9FE09B05DF804FB10B5044605F0FEFAE6
:100A3000D4F8DC10014404F1C000BDE8104005F01A
:100A4000CCBA0000D0F8A8318B4206D1012380F83F
:100A5000AC31024B186806F049B87047042E0020EC
:100A600037B591F8A130032B05460C464ED191F8CD
:100A7000E030022B4AD1D1F8D8301B1A002B14DAFF
:100A800001212046FFF76EFF48B9042384F8A13006
:100A9000012384F8A430C4F8B40003B030BD1D4B6A
:100AA000C4F8B430C4F8D850F7E71B4B1B681B07D9
:100AB0001AD51A4B1B68042B16DD2F2118480DF090
:100AC0001FFAD0B12F2116480DF01AFA411C154B10
:100AD00094F8E420D3F804350192134A00920520DB
:100AE00040F2BB3207F03EF80023204684F8E330A2
:100AF00003B0BDE83040FFF79BBE5C2108480DF015
:100B0000FFF908B15C21DEE70549E0E70023C4F8FE
:100B1000B430C2E740420F00682E0020642E00204F
:100B2000EAEE0300001001400DEF030013B5044688
:100B3000EFF3108272B6174B1968C0F8C411186031
:100B400002B962B6144B1B681B0718D5134B1B6800
:100B5000032B14DD2F2112480DF0D2F988B12F217B
:100B60000F480DF0CDF9411C0E4B0F4AD3F8043558
:100B7000009201944FF4C872042006F0F3FF02B013
:100B800010BD5C2106480DF0BBF908B15C21E7E718
:100B90000349E9E760460020682E0020642E00200B
:100BA000EAEE0300001001403AEB0300F0B50E46F8
:100BB00089B01746054610B9784601F04BFFA5F5F8
:100BC000D87494F8A010012903D194F8A130002B17
:100BD00054D100230129C4F8DC70C4F8CC3084F867
:100BE000E03084F8A33084F8A23084F8A130C4F84F
:100BF000A83113D0012384F8A030214BC4F8B030C1
:100C0000204BC4F8C830C4F8B840C4F8D0408023A2
:100C1000A5F188021C4920460AF03EF8A5F58A7520
:100C20002846042105F010FB002384F8A33080231C
:100C300084F8A2302B681BBA009310224FF4407343
:100C400031460DF10600ADF804300DF07EF80423B6
:100C5000162269462046FFF7BDFD054658B92046D5
:100C6000FFF7E2FE204609F0E7FE2046FFF75EFFB1
:100C7000022384F8A130284609B0F0BD0825FAE720
:100C8000610A0300F1060300450A030038B5124B60
:100C90001C6800250CB9012038BD94F8AC3193B123
:100CA00094F8A12084F8AC51042A94F8E0300DD1D6
:100CB000022B03D104F1A80005F078F994F8A410F0
:100CC0002046FFF743FDD4F8C441E3E7022BFAD1F5
:100CD0002046FFF7ADFDF6E7604600202DE9F04124
:100CE0000E4617469846054610B9784601F0B2FE02
:100CF000A5F5D87494F8A020012A03D194F8A13066
:100D0000002B50D10023012AC4F8DC80C4F8CC3079
:100D100084F8E03084F8A33084F8A23084F8A1305D
:100D2000C4F8A83113D0012384F8A0301F4BC4F8B5
:100D3000B0301F4BC4F8C830C4F8B840C4F8D04035
:100D40008023A5F188021B49204609F0A5FF002356
:100D5000802284F8A320C4F89C3084F8A2303A465C
:100D600031462046FFF73FFA054610B9784601F0B4
:100D700071FEFF232B714FF0FF332B604FF4FA61AC
:100D8000204609F034FF2946204609F0AAFE2046F5
:100D900009F052FE2046FFF7C9FE012384F8A13076
:100DA0000020BDE8F0810820FBE700BF610A0300D6
:100DB000F1060300450A030030B5074D0246FF2344
:100DC000141AA14202DCD843C0B230BD12F8014B64
:100DD0006340EB5CF4E700BF66EB03002DE9F843EA
:100DE000A0F5D874804694F8A130032B0F46164620
:100DF00040D1412A40D810F8D05C002D3ED1204689
:100E0000FFF712FE05F012F91723B11CB1FBF3F145
:100E10000131CBB2216F594301F5F411184B01F5A3
:100E2000906148F8FC1C81460144C4F8B030A8F534
:100E3000847005F0D2F8134B4B4448F8D83C022399
:100E400084F8E0303146C4F8B84084F8E35084F8C0
:100E5000E1603846FFF7B0FF324684F8E2003946D9
:100E6000A8F1CC000CF071FF2046FFF7E1FC28460A
:100E7000BDE8F8830820FBE70920F9E71120F7E730
:100E8000610A030080C3C9012DE9F0410B78012BF1
:100E900092B005460C4602D0784601F0DBFD261DD7
:100EA00061783046FFF788FFA378834226D195F812
:100EB000A21028460027FFF793FDE77095F8A220BF
:100EC000531C03F07F0322F07F02134385F8A23006
:100ED00094F801803146424601A80CF036FF2846BE
:100EE0002770FFF7A1FDD5F8BC3142461B6801A968
:100EF00005F5D870984712B0BDE8F0810023237043
:100F0000F9E7000038B5044610B9784601F0A2FDB3
:100F1000084D2B68013303D1074805F0C9FD28604F
:100F2000012384F8B431054BC4F8B83104F5D87006
:100F300038BD00BF042E00208D0C030068EC0300B8
:100F40002DE9FF4188461446054610B9784601F060
:100F500081FD14B9784601F07DFD2B681BBAEFF3D3
:100F6000108172B6A44E34686CB901B962B6687962
:100F700000F00303032B00F29C80DFE813F00B006A
:100F80005801D7016202D4F89C209342EDD0D4F8E6
:100F9000C441E9E7002C00F08C8094F8A130032BC9
:100FA00040F0878094F8E020002A40F08E802A7973
:100FB00094F8A2309A4230D1EB881B0A84F8E130D1
:100FC00017220233B3FBF2F30133DBB2072B07D94D
:100FD000022104F5D87004B0BDE8F041FFF7D6BC9B
:100FE0002B7A84F8E230A8F10908012384F8E03074
:100FF00084F8E330424605F1090104F1E4000CF005
:10100000A4FE94F8E130984553D104F1E001204664
:1010100004B0BDE8F041FFF737BF784B1B6803F021
:10102000080328D2BBB1764B1B68042B13DD2F219C
:1010300074480CF065FFA8B12F2172480CF060FFD6
:10104000411C714B714AD3F80435009240F2C92219
:10105000052006F087FD2979204604B0BDE8F0415F
:10106000FFF7BEBC5C2167480CF04AFF08B15C2169
:10107000E3E76449E5E7E3B1614B1B68012B18DD49
:101080002F2160480CF03CFFB0B12F215D480CF0DF
:1010900037FF411C5C4B94F8A220D3F80435029230
:1010A0002A7901925A4A009240F2CE22022006F09A
:1010B00059FD04B0BDE8F0815C2152480CF020FFDE
:1010C00008B15C21E2E74F49E4E74C4B1B68022A78
:1010D00003F0080373D1297994F8A220914220D219
:1010E000002BB8D0464B1B68042BB4DD2F2145489C
:1010F0000CF006FF60B12F2142480CF001FF411CAB
:10110000414B424AD3F80435009240F2D5229FE782
:101110005C213C480CF0F4FE08B15C21ECE7394955
:10112000EEE725D9002BC4D0354B1B68012BC0DD61
:101130002F2134480CF0E4FE88B12F2131480CF007
:10114000DFFE411C304B94F8A220D3F80435029204
:101150002A7901922E4A009240F2DA22A6E75C2117
:1011600028480CF0CDFE08B15C21E7E72549E9E706
:10117000002B9ED0224B1B68042B9ADD2F21214887
:101180000CF0BEFE90B12F211E480CF0B9FE411CA0
:101190001D4B94F8A220D3F8043502922A790192CB
:1011A0001C4A0092052040F2DE2280E75C211548AF
:1011B0000CF0A6FE08B15C21E6E71249E8E7002B37
:1011C0003FF477AF0E4B1B68012B7FF772AF2F21D7
:1011D0000C480CF095FE08B32F210A480CF090FE45
:1011E000411C094B0C4AD3F80435009240F2E3222B
:1011F000022006F0B7FC5CE760460020682E002065
:10120000642E0020EAEE0300001001407CEC030095
:10121000CCEC030016ED03004FED03005C21B54854
:101220000CF06EFE08B15C21D7E7B249D9E7002C7B
:101230003FF43FAF94F8A130032B7FF43AAFAE4BAD
:1012400094F8E0201B68022A03F008034BD12979A7
:1012500094F8A320914246D1D3B1A84B1B68032B2D
:1012600016DD2F21A3480CF04BFE98B32F21A14887
:101270000CF046FE411CA24B94F8E420D3F8043550
:101280000192A04A0092042040F21E3206F06AFC4D
:10129000002504F1A800C4F8B45004F087FE2046ED
:1012A00009F0CFFC94F8A32084F8E050531C03F01D
:1012B0007F0322F07F02134384F8A3302046FFF718
:1012C000B3FBD4F8BC315B6804F5D87004B0BDE85A
:1012D000F04118475C2187480CF012FE08B15C21F0
:1012E000C5E78449C7E7002B3FF4E3AE834B1B6897
:1012F000012B7FF7DEAE2F217E480CF001FE60B19E
:101300002F217C480CF0FCFD411C7D4B7E4AD3F81C
:10131000043500924FF44C726AE75C2175480CF07A
:10132000EFFD08B15C21ECE77249EEE7002C3FF4D9
:10133000C0AE94F8A130032B7FF4BBAE94F8E0600C
:10134000297994F8A230012E4CD1994225D194F8F4
:10135000E33080080341DA073FF5ABAE17270138C9
:1013600007FB0040A8F10602A91DF8300CF0EDFCC7
:101370006B7994F8E3209B0806FA03F3134394F87F
:10138000E1200232B2FBF7F70137DBB2FFB284F89B
:10139000E330BE400133B34236E6574B1B681B07B0
:1013A0007FF587AE554B1B68012B7FF782AE2F214F
:1013B00050480CF0A5FD60B12F214E480CF0A0FD67
:1013C000411C4F4B514AD3F8043500924FF44272FE
:1013D0000EE75C2147480CF093FD08B15C21ECE777
:1013E0004449EEE79942FFF437AE7FF662AE424BD6
:1013F0001B681F077FF55DAE404B1B68012B7FF715
:1014000058AE2F213B480CF07BFD88B12F21394885
:101410000CF076FD411C3A4B94F8A220D3F8043529
:1014200002922A7901923A4A00924FF445723DE6BF
:101430005C2130480CF064FD08B15C21E7E72D49E0
:10144000E9E78008012875D023D3022800F0D38073
:10145000294B1B681B077FF52CAE284B1B68012B03
:101460007FF727AE2F2123480CF04AFD002800F01B
:1014700027812F211F480CF043FD411C6A79204B26
:101480009208D3F804350192224A009240F2923237
:10149000A4E0B8F1160F7FF40CAE01F00FFC10229F
:1014A0000146A81D0CF042FC00287FF402AE002C7F
:1014B00040F01181EFF3108372B6346824B9002B29
:1014C0007FF4F7AD62B6F4E594F8A120012A00F0AC
:1014D0000081D4F8C441F1E75C2106480CF010FD0E
:1014E00008B15C211AE103491CE10023C4F89C30D7
:1014F000DFE500BFEAEE0300682E0020642E002026
:101500000010014081ED03009CED0300BCED0300E1
:10151000EDED0300C3EE0300032B7FF4CAAD94F896
:10152000E030002B7FF4C5AD204604B0BDE8F041AB
:10153000FFF768BA002C3FF4BCADB8F1060F7FF49A
:10154000B8AD94F8A130814D022B2AD1204609F084
:1015500078FB1421204609F04AFB2B681D0740F157
:10156000EB807B4B1B68032B40F3E6802F217948EF
:101570000CF0C6FC60B12F2176480CF0C1FC411C78
:10158000754B764AD3F80435009240F26E32D0E0C3
:101590005C2170480CF0B4FC08B15C21ECE76D49AB
:1015A000EEE72B6818077FF584AD694B1B68012BAC
:1015B0007FF77FAD2F2167480CF0A2FC90B12F215F
:1015C00064480CF09DFC411C634B94F8A120D3F8B7
:1015D00004350192624A009240F27632022006F00F
:1015E000C1FA66E55C215B480CF08AFC08B15C211D
:1015F000E6E75849E8E7002C3FF45BADB8F1070F88
:101600007FF457AD94F8A130504E023B012B30D8F7
:1016100094F8E030022B03D104F1A80004F0C6FCDA
:10162000A9792046FFF792F8336819077FF541AD95
:10163000474B1B68032B7FF73CAD2F2145480CF02F
:101640005FFC68B12F2143480CF05AFC411C424B0F
:10165000444AD3F80435009204204FF46272C8E57E
:101660005C213C480CF04CFC08B15C21EBE73949AB
:10167000EDE733681A077FF51CAD354B1B68012B6E
:101680007FF717AD2F2133480CF03AFC78B12F21AA
:1016900030480CF035FC411C2F4B94F8A120D3F8B6
:1016A00004350192304A009240F28D3296E75C2177
:1016B00028480CF025FC08B15C21E9E72549EBE757
:1016C0005C2124480CF01CFC08B15C21D2E62149C5
:1016D000D4E603B962B694F8A130012B7FF41CAFB5
:1016E0002B681BBA2046C4F89C30142109F07FFAFD
:1016F0002046FFF787F900287FF4F7AE134B1B68ED
:101700001E0719D5124B1B68032B15DD2F2111481D
:101710000CF0F6FB00283FF4DFAE2F210D480CF053
:10172000EFFB411C0C4B0D4AD3F80435009240F2FC
:101730005132042006F016FA032384F8A130204623
:10174000FFF772F9D4F8BC319B68BDE5682E002024
:10175000642E0020EAEE03000010014033EE030087
:1017600049EE03007AEE030090EE0300704700009C
:1017700008B5064804F01AFC054B00221A70DA81FD
:101780001A825A7001221A7308BD00BFD846002081
:10179000F046002000B5104A8DB00A238DF80430C1
:1017A00053788DF8093013468DF8140053F8021F52
:1017B000CDF80A1059681B89ADF812301378CDF8AE
:1017C0000E108DF80830FFF7D3FF01A802F018FDC6
:1017D0000DB05DF804FB00BFF04600202DE9F04F8E
:1017E0000378242B93B0044600F0FC8100F2818042
:1017F000202BB64A00F0048128D8012B00F09283F8
:10180000C0F0D380022B00F0FD81B04B1B681B069B
:1018100040F1B881AE4B1B68012B40F3B3812F21FF
:10182000AC480CF06DFB002800F0AA832F21A948DA
:101830000CF066FB411CA84BA84AD3F80435009273
:10184000022040F2592206F08DF99BE1222B00F094
:10185000798100F1060640F2FD8013681D0619D556
:101860009B4B1B68032B15DD2F219A480CF048FB7E
:10187000002800F0AE812F2196480CF041FB411C5E
:10188000954B974AD3F80435009204204FF4D77251
:1018900006F068F92179934B9348197001290CBF20
:1018A000052209221A7300253268C3F80220DD815F
:1018B000726833894260038109208DF81C006079C9
:1018C0008DF821003068CDF8220007A8CDF8262039
:1018D000ADF82A308DF8201002F092FC834C844B36
:1018E000A36004F0A3FB83490144204604F075FB88
:1018F0005EE0602B00F0F68128D8502B00F0BF810D
:10190000512B00F0CD81252B7FF47FAF6F4B1B68EF
:10191000180619D56E4B1B68032B15DD2F216D485A
:101920000CF0EEFA002800F064812F2169480CF0D9
:10193000E7FA411C684B704AD3F804350092042042
:101940004FF4E77206F00EF9002077E0622B00F00A
:1019500096825E4EC0F06C82702B00F0A582712BD7
:101960007FF453AF336819061BD5594B1B68032B03
:1019700017DD2F2157480CF0C3FA002800F0C98268
:101980002F2154480CF0BCFA411C534B6268D3F829
:1019900004350192594A0092042040F24D2206F08B
:1019A000E1F8524804F002FB02E013681A0603D47F
:1019B000002013B0BDE8F08F454B1B68032BF7DD0B
:1019C0002F2144480CF09CFA88B12F2141480CF09B
:1019D00097FA411C404B4A4AD3F80435009204342C
:1019E000019440F27B12042006F0BCF8E0E75C2191
:1019F00038480CF085FA08B15C21E7E73549E9E79A
:101A000013681B0619D5324B1B68032B15DD2F21DC
:101A100030480CF075FAA0B12F212E480CF070FA66
:101A2000411C2D4B2279D3F804350192354A00929E
:101A3000042040F27F1206F095F82079FFF7AAFE05
:101A4000B6E75C2123480CF05BFA08B15C21E4E7BF
:101A50002049E6E713681F0618D51D4B1B68032BAA
:101A600014DD2F211B480CF04BFA002850D02F21F9
:101A700018480CF045FA411C174B234AD3F804359B
:101A8000009204204FF4C37206F06CF80D23326804
:101A90008DF81C306379CDF821207268CDF82520AF
:101AA000022B32898DF82030ADF8292039D0042B53
:101AB0003BD0012B7FF47CAF144B1B681B88ADF827
:101AC0002B3007A802F09CFB72E700BF682E0020B5
:101AD000642E00203AEF030000100140A8F003003C
:101AE000BDEF0300F0460020F2460020D84600205B
:101AF000F12403000046C323C9EF03007FF0030075
:101B00006EEF030079EF030095EF03003C480020DF
:101B10005C216D480CF0F4F908B15C21A8E76A4932
:101B2000AAE76A4B1B685B88C9E7684B1B6853F8D8
:101B3000042FCDF82B205A68CDF82F201B89ADF843
:101B40003330BEE713681E0617D5614B1B68032BA5
:101B500013DD2F215C480CF0D3F9A8B12F215A488E
:101B60000CF0CEF9411C5B4B5B4AD3F80435009274
:101B700004204FF4CB7205F0F5FF2379022B0CD033
:101B8000032B1FD0062014E75C214F480CF0B8F956
:101B900008B15C21E3E74C49E5E707238DF81C30E9
:101BA000A3798DF82030234653F8072FCDF8212054
:101BB0005A681B89ADF82930637CCDF825208DF853
:101BC0002B307EE708238DF81C30A3798DF8203068
:101BD00077E75C213C480CF093F908B15C214BE6B7
:101BE00039494DE63D4BDA890132DA81C2881A82E1
:101BF00074E65C2134480CF083F908B15C2195E669
:101C0000314997E61368190617D5314B1B68032B2A
:101C100013DD2F212C480CF073F938B32F212A48FB
:101C20000CF06EF9411C2B4B2D4AD3F80435009271
:101C3000042040F2D51205F095FF0B238DF81C30DF
:101C400023798DF82030234653F8062FCDF8212034
:101C50005A681B89ADF82930E3690B93236A0C930A
:101C60006379CDF825208DF834302AE75C211648B9
:101C70000CF046F908B15C21D1E71349D3E743687A
:101C8000C3F30B02002A40F0848102210893836889
:101C90008DF81C1007A91046099303F0A5FC88E6EF
:101CA0004068820740F07581A1688B0740F0718120
:101CB000E36813F0030240F06E8101248DF81C40AC
:101CC00008900A91E6E700BF3AEF03003C48002085
:101CD000642E002000100140A5EF0300F046002014
:101CE000D4EF0300AD4E33681F0629D5AC4B1B68FB
:101CF000032B25DD2F21AB480CF002F9002800F062
:101D000085802F21A7480CF0FBF8411C94F80CC0EB
:101D1000A54FA64AA64BA07B657BD3F80435BCF142
:101D2000000F08BF3A4667683F88CDE90327A14AFC
:101D30000092CDE901054FF40472042005F012FF72
:101D400094F80E809C4D08EBC807BF00EB1993F880
:101D500020300BB333681E061ED5914B1B68012B38
:101D60001ADD2F218F480CF0CBF8002857D02F21F7
:101D70008C480CF0C5F8411C242202FB08528C4B05
:101D800092F82120D3F8043501928C4A0092022067
:101D900040F2162205F0E6FE4FF0240909FB08F98F
:101DA00005EB09064FF0000B86F820B004F03EF971
:101DB000237BB371824686F821B086F822B0A6F85C
:101DC00004B07F4804F02EFA0AF57A7A1AFA80F005
:101DD00045F80900A368F377F81DD4E901122844F7
:101DE0000BF0B3FF774A637B86F82030137833B16A
:101DF00055F8093052689B1A5B45BFF6D9AD2423CC
:101E000003FB08F86F4855F808106FE55C2165483A
:101E10000CF076F808B15C2174E7624976E75C2142
:101E200060480CF06DF808B15C21A1E75D49A3E7BB
:101E300033681C067FF5BCAD594B1B68032B7FF73D
:101E4000B7AD2F2157480CF05BF878B12F215548DA
:101E50000CF056F8411C564B5B4AD3F804350092FF
:101E6000042040F2312205F07DFEA1E55C214D48C1
:101E70000CF046F808B15C21E9E74A49EBE7037941
:101E8000072B00F2AB804C4903EBC30201EB82024B
:101E900092F82020002A00F0A380242202FB0313E2
:101EA000002083F8200084E5484F494BBB6004F0D4
:101EB000BDF8A56805442946384604F08EF8336815
:101EC00018067FF575AD364B1B68032B7FF770AD99
:101ED0002F2134480CF014F890B12F2131480CF028
:101EE0000FF8411C324BD3F804350295A2680192D9
:101EF000384A009204204FF4127205F033FE57E581
:101F00005C2128480BF0FCFF08B15C21E6E725497D
:101F1000E8E75C2123480BF0F3FF08B15C2130E5D2
:101F2000204932E513681A061DD51D4B1B68002B8E
:101F300019DD2F211B480BF0E3FFC0B12F211948F9
:101F40000BF0DEFF411C1A4BE268D3F80435039214
:101F5000A2680292626801921F4A0092012040F238
:101F6000552205F0FFFD784600F074FD20E55C2168
:101F70000C480BF0C5FF08B15C21E0E70949E2E736
:101F80005C2108480BF0BCFF08B15C214FE4054917
:101F900051E410200DE509200BE500BF682E00205C
:101FA000642E00203AEF030059EF030065EF0300B1
:101FB00000100140E9EF03000447002021F0030076
:101FC000C84600202448002054F00300D8460020D2
:101FD0007125030061F0030091F003000720E8E49D
:101FE0000820E6E408B58379012B13D006D3022B31
:101FF00019D0784600F02EFD00200AE090F821204C
:10200000012393408288006810440A4A013B02FB86
:10201000030008BD0268838890F821001344054A34
:1020200002FB0030F5E70268838890F82100134432
:10203000014AF5E7A0860100809698002DE9F84F47
:10204000DFF80091DFF80081DFF800A100F1004522
:10205000013D4C460026CB46A8EB000894F8203002
:102060008BB32046FFF7BEFF18EB000F074622D5C3
:1020700094F82230012B31D994F8213094F82020A3
:102080009A4206D9013384F821302B4804F0CAF86B
:10209000A080242202FB06B2002384F82230118C97
:1020A0004FF6FF7291423DD1276084F821302046DF
:1020B000FFF798FF074694F8203023B17B1B35EAE1
:1020C000230528BF3D460136082E04F12404C5D15E
:1020D00029461A48BDE8F84F03F07FBF9AF8383018
:1020E000002BD6D1E27F164802F10A034370D31CBD
:1020F0004372162383726FF01B03C3726FF00103E8
:10210000037309F10701242303FB06110D300BF0C3
:102110001CFE504609F060F90028ADD0784600F06A
:1021200099FCA9E794F8202094F82110914228BF47
:1021300084F82030BBE700BFC846002024480020B8
:10214000644600200447002018FCFFFF8C46002056
:1021500010B54FF010235B69013315D00B4A11689D
:102160000023012021FA03F4E40748BF00FA03F436
:1021700003F1010348BFC2F88040202BF2D10120B7
:1021800003F048FD002010BD0F20FCE700E100E057
:1021900030B5104B1C7BC4B1C8B11A7802705A78A4
:1021A00042701A46047352F8021FC0F802105168B8
:1021B000C0F806101289D989428164224A431B8AD9
:1021C000B2FBF3F34373002030BD0820FCE70E2080
:1021D000FAE700BFF046002037B51D4D2B680446D6
:1021E00033BB1C4B1B681B0617D51B4B1B68002BF6
:1021F00013DD2F2119480BF083FE80B12F211748E2
:102200000BF07EFE411C164B164AD3F804350092A3
:1022100001204FF4627205F0A5FC062413E05C2156
:102220000E480BF06DFE08B15C21E8E70B49EAE7C8
:1022300060B1012003F076FA20462B6898470446E7
:10224000002003F06FFA204603B030BD0E24FAE7F9
:10225000EC600020682E0020642E00203AEF03007E
:1022600000100140FAF00300F0B54FF080518DB03E
:10227000D1F80C313C4E03F500239B0253F8043C8B
:10228000002B64D04FF01020426901325FD04C69BE
:102290000A6962439A425AD94269934257D3334AF0
:1022A0003348136003F0F2FF324B334A9A60002147
:1022B000C3E903115961314A314B6846C3E9022130
:1022C0001822C3E904110BF04BFD2E4B029301259C
:1022D00040F6010368468DF80450ADF80C308DF8D7
:1022E0000E50FFF779FF044678BB274F06A808F089
:1022F000B7FC06220DF11901F81C0BF026FD9DF824
:1023000018203B78214922480894520862F386132A
:10231000022262F303033B701E4BADF81C2099624E
:10232000032183F8341083F82410252159841A4995
:10233000186383F82040D962DF6106A830238DF846
:102340001830FFF749FF044638B1357302E0012326
:102350003373062420460DB0F0BD104B089A104987
:102360001A6003F031F9F0E7F0460020EC6000203D
:10237000C8460020D8460020712503003D200300F8
:1023800024480020DD17030064460020D6BE898E55
:10239000F7F003008C4600206D1703003C48002036
:1023A000A523030010B50C4688B010B1784600F0A4
:1023B00051FB2378022B35D0032B5DD0012B40F04D
:1023C000848060238DF80830E3680393414B1B68D9
:1023D000190619D5404B1B68032B15DD2F213F48EB
:1023E0000BF08EFDA8B12F213C480BF089FD411C5C
:1023F0003B4BE268D3F8043501923A4A00924FF41D
:10240000A272042005F0AEFB02A8FFF7E5FE08B0BB
:1024100010BD5C2131480BF073FD08B15C21E3E78E
:102420002E49E5E761238DF8083063680393294B53
:102430001B681A06E8D5284B1B68032BE4DD2F2107
:1024400026480BF05DFD70B12F2124480BF058FD9C
:10245000411C234B6268D3F804350192224A009252
:1024600040F24912CDE75C211C480BF049FD08B150
:102470005C21EAE71949ECE762238DF80830154B37
:102480001B681B06C0D5144B1B68032BBCDD2F211A
:1024900012480BF035FD78B12F2110480BF030FDBC
:1024A000411C0F4B114AD3F804350092042040F22E
:1024B0004D1205F057FBA7E75C2108480BF020FD03
:1024C00008B15C21E9E70549EBE7784600F0C2FA7C
:1024D0009AE700BF682E0020642E00203AEF030028
:1024E00000100140BCF00300D3F00300EAF0030049
:1024F00010B51A4B1B681B0688B0044618D5184B3C
:102500001B68032B14DD2F2116480BF0F9FCD8B102
:102510002F2114480BF0F4FC411C134B134AD3F841
:1025200004350092019440F22912042005F01AFBB0
:1025300008A8232300F8183DFFF74EFE10B9062027
:10254000FFF728F908B010BD5C2106480BF0D8FC55
:1025500008B15C21DDE70349DFE700BF682E0020FA
:10256000642E00203AEF03000010014021EF030029
:1025700010B5194B1B681B0688B0044618D5174BBD
:102580001B68032B14DD2F2115480BF0B9FCD0B1CB
:102590002F2113480BF0B4FC411C124B124AD3F804
:1025A0000435009201944FF49A72042005F0DAFA8F
:1025B00003238DF8083002A800238DF80C30FFF7B4
:1025C0000BFE08B010BD5C2105480BF099FC08B16A
:1025D0005C21DEE70249E0E7682E0020642E00203F
:1025E0003AEF03000010014027EF03007FB51822E7
:1025F000002168460BF0B4FB012368468DF80030DB
:10260000FFF7EAFD07B05DF804FB0000F0B52D4BC5
:102610001B7B87B005460C46002B4AD000284AD0C9
:1026200002884FF6F8739A4247D903F063F80028FE
:1026300045D12B884FF6FC72934227D1698829B384
:10264000214E242707FB006292F820C0BCF1000F46
:102650002BD0B2F807C09C4527D1B2F809C08C45F1
:1026600023D1D2F80BE0D5F804C0E6451DD192F88D
:1026700022C0BCF1FF0F18D0EFF3108172B692F8B0
:102680002230013382F8223001B962B618220021CB
:1026900068460BF065FB022368468DF80030CDE9F3
:1026A0000154FFF799FD07B0F0BD01300828C9D1EA
:1026B000ECE70820F7E70E20F5E71020F3E71120FC
:1026C000F1E700BFF0460020044700202DE9F0416B
:1026D0001F4C94F80C80B8F1010F86B007460E46E7
:1026E00032D199B392B320238DF800300B68CDF826
:1026F00005304B688DF80400CDF8093068460B8929
:10270000ADF80D300492FFF767FD0546C0B9336898
:10271000C4F802307368C4F8063033896381032338
:1027200023730C4B0C4A84F800806770E081208290
:102730009A6003F07BFC09490144094803F04DFC11
:10274000284606B0BDE8F0810825F9E70E25F7E731
:10275000F0460020D8460020F12403000046C323A1
:102760002448002070B5184C237B86B006460D46E1
:102770002BB331B321238DF800300B68CDF8053031
:102780004B68CDF809300B898DF80400ADF80D3099
:10279000684600230493FFF71FFD70B90223E21877
:1027A00023702B68C4F802306B6853602B89138147
:1027B000082366702373E081208206B070BD082074
:1027C000FBE70E20F9E700BFF046002010B5094BEB
:1027D0001B7B86B063B106A8232300F8183DFFF7E2
:1027E000FBFC044608B9FEF7C3FF204606B010BD47
:1027F0000824FAE7F04600207FB50A4B1B7B63B143
:1028000069B125238DF8040068468DF800300291E7
:10281000FFF7E2FC07B05DF804FB0820FAE70E20A2
:10282000F8E700BFF04600207FB5084B1B7B53B193
:1028300024238DF8040068468DF80030FFF7CCFCA7
:1028400007B05DF804FB0820FAE700BFF04600205F
:102850000620704730B5754B14461B6841F20102E3
:10286000904287B00D4603F480437ED01ED80128E5
:1028700045D0002B5DD06E4B1B68002B59DD2F21FE
:102880006C480BF03DFB002800F0C4802F21694804
:102890000BF036FB411C684B684AD3F804350092B4
:1028A00001957B22012005F05DF942E044F201022E
:1028B000904200F0858044F202029042D9D1002B70
:1028C00037D05B4B1B68002B33DD2F2159480BF0B1
:1028D00017FB00286BD02F2156480BF011FB411C31
:1028E000554B2288D3F8043503926268CDE9015232
:1028F000534A009201206C2205F034F919E0C3B16B
:102900004B4B1B68002B14DD2F214A480BF0F8FAC3
:1029100010B32F2147480BF0F3FA411C464B494AAC
:10292000D3F804350092CDE901546022012005F06E
:1029300019F94FF0A0434FF4F012C3F81825C3F86B
:102940000C25EFF3108372B64DF6AD6C3E4A13784A
:10295000002B68D107B030BD5C2136480BF0D0FAAF
:1029600008B15C21D6E73349D8E7002BE1D0304BE2
:102970001B68002BDDDD2F212E480BF0C1FA68B15A
:102980002F212C480BF0BCFA411C2B4B2F4AD3F8BB
:1029900004350092CDE901546322C7E75C21254844
:1029A0000BF0AEFA08B15C21EBE72249EDE75C21C0
:1029B00020480BF0A5FA08B15C218DE71D498FE78F
:1029C000002BB6D01A4B1B68002BB2DD2F21194803
:1029D0000BF096FAA8B12F2116480BF091FA411C82
:1029E000154B2268D3F8043504926268CDE902528F
:1029F000A2680192164A00920120772205F0B2F8EF
:102A000097E75C210B480BF07BFA08B15C21E3E708
:102A10000849E5E75C2107480BF072FA08B15C2130
:102A200035E7044937E730BF91E700BF682E002043
:102A3000642E002012F1030000100140B6F10300E3
:102A400076F103003AF10300082E002054F1030050
:102A500095F1030007B50023ADF800300146054BA2
:102A600001936A4644F20200FFF7F4FE03B05DF8FA
:102A700004FB00BFD1E5030010B5044605F0F4FDEA
:102A800038B123780E2B04D10020BDE8104003F0AC
:102A9000C1B810BD02F0F6BF70B5837DC27D86B0AF
:102AA00043EA0223ADF814300446012305A80E467C
:102AB000ADF81630F9F778F80546002847D104AA92
:102AC0002146208AF9F79EFA054600283FD10DF1EC
:102AD00012033246BDF81010E08AF9F797FC05465C
:102AE000002834D1217ED4F8120001F0010102F057
:102AF000E7FB10B17846FFF7ADFFBDF81200FCF719
:102B000063FB054618BB184B1B681B031DD5174BF1
:102B10001B68062B19DD2F2115480BF0F1F9C8B100
:102B20002F2113480BF0ECF9411C227E114B02F0CF
:102B30000102D3F804350292D4F8122001920E4A11
:102B400000920720C32205F00DF8F6F7AFFD2846E6
:102B500006B070BD5C2106480BF0D2F908B15C21CB
:102B6000DFE70349E1E700BF682E0020642E002064
:102B7000CFF1030000100140EEF1030008B507F0AB
:102B8000B5F8F7F7AEF9F8F797FFBDE8084002F09F
:102B900057B907B501A8F9F743F8BDF804000030AC
:102BA00018BF012003B05DF804FB000073B50E46AA
:102BB000054660B302F0F2FE044628BBF8F7D6FFE4
:102BC000F7F70AFF2869FCF7CFFA0446E0B92B7F34
:102BD0000193AB69009301466B690E484FF6FF7293
:102BE000FCF748FD044678B92B6A03B1984706F014
:102BF00095FFF8F7CFFEF6F7CBFE08B1F6F756FDD6
:102C0000FFF7C7FF06B13070204602B070BD0E243A
:102C1000FAE700BF4048002008B505F025FD20B1C7
:102C20000020BDE8084002F0F5BF0248BDE80840BA
:102C300002F096BF0C2E002037B50D460446A0B119
:102C400099B1684607F068FA009B53B1236005F01C
:102C500041FD2368C01A00F580502860002003B0B1
:102C600030BDF7F788FE2060F1E70E20F7E700009F
:102C70000146102201480BF068B800BF98480020B8
:102C800010B50B4C0B49082220460BF05EF80822C9
:102C9000A01809490BF059F8E379042262F30713ED
:102CA000E371237A022262F38713237210BD00BFFF
:102CB0009848002060000010A400001000487047F1
:102CC00098480020064B002203F580715A805A6014
:102CD00003F8082B8B42F9D1024B1A60704700BFF2
:102CE000A8480020A8490020F0B50C4B0C4C1B68EC
:102CF000064620227BB1013B14F8330050B104EBAF
:102D0000C3056F88B74202D16D688D4202D0013A87
:102D1000F0D11046F0BD1F23EEE700BFA849002008
:102D2000A848002030B5084A084C136804EBC305D6
:102D30006960012104F833100B44202B08BF0023E5
:102D40006880136030BD00BFA8490020A84800205B
:102D5000C0F30C038B42084438BFA0F50050C01AE2
:102D600070470000F0B50D4B0D4A1E6800218E42E1
:102D700012D0156800230AE052F8044C04EBC30794
:102D800014F83340844201D17868F0BD01339D428C
:102D9000F2D101310832EAE70020F6E7AC49002021
:102DA000B449002000B58DB040B99A1C06D001226C
:102DB00001A88DF80420029301F022FA034B186851
:102DC00003F094FE0DB05DF804FB00BFB84900208D
:102DD00010B50378044613B97846FFF73BFEE18847
:102DE000A069FFF7B5FFE1690A060B0A101843F165
:102DF000000110BD10B50378044613B97846FFF7FB
:102E000029FE607A431C01209840013810BD000063
:102E1000F8B5037805460E4613B97846FFF71AFE53
:102E2000104AA88A0023144619018F5A874214D1E8
:102E3000002353520C4A1368591C03F007031B016B
:102E40001160AA8AE25206B16E781C442846A67028
:102E5000FFF7BEFFC4E90201F8BD0133082BE3D13F
:102E6000E8E700BFC0490020404A00202DE9F041BA
:102E70000E468EB015461C46074610B97846FFF739
:102E8000E9FD16B97846FFF7E5FD636AA2780233DB
:102E90000593E378A2F10800002B14BF0121022161
:102EA0000DF1040842424241434604F10C0003F094
:102EB00050FFA3788DF83430237BADF82050022BDF
:102EC00016FA85F5CDE906870B960C950FD1236987
:102ED00013B97846FFF7BEFD23690993102305A8AF
:102EE000ADF8283003F031FF0EB0BDE8F0810023CB
:102EF000F5E70000B2F5C07F2DE9F047814688462E
:102F0000174602D97846FFF7A5FD244B002570220D
:102F10009A4602FB053494F8486046B9384607F0F3
:102F2000DAFBE06638B900242046BDE8F0870135B9
:102F3000042DEED1F7E73022494620460AF005FF7E
:102F4000B8F1010FE664A4F84A701DD1144B84F85F
:102F500052601B7D84F8513084F8536084F85060CF
:102F6000D9F8283063656FF00103A3620D4BA4F814
:102F70005860A3632464012002F052F9702303FB1C
:102F800005A585F84880CFE76FF00103A362064BE3
:102F9000A36584F868602466044BEAE75C4A002075
:102FA000444A0020F5340300013C0300ED340300E3
:102FB00010B50446C06E07F090FB04F1300002F03B
:102FC000F5FF94F84830022B03D104F1500002F0D1
:102FD000EDFF2046702200210AF0C2FE002084F896
:102FE0004800BDE8104002F01BB910B590F8483019
:102FF000012B8CB0044602D07846FFF72BFD01234D
:103000008DF8043001A8636D029301F0F9F82046B1
:10301000FFF7CEFF0CB010BD10B50446808A02F059
:10302000B9FB01281CD1237BD3B194F91620002AC7
:1030300018DBE27D5AB1022B12D094F90330002B39
:1030400010DBA378002B0CBF0020072010BDE27816
:103050000AB9012B06D1237833B9A378042BF2E700
:103060001020F3E70720F1E70020EFE71FB500226B
:103070000B468DF80F2028B30230086018460DF17A
:103080000F0103F064FE9DF80F30DBB1144B1B6899
:103090005B0717D5134B1B68032B13DD2F21124839
:1030A0000AF02EFF98B12F210F480AF029FF411C8A
:1030B0000E4B0F4AD3F804350092042040F23742F9
:1030C00004F050FD9DF80F0005B05DF804FB5C2195
:1030D00005480AF015FF08B15C21E5E70249E7E77A
:1030E000682E0020642E002051F2030000100140E1
:1030F0006EF2030070B50446D0E906128CB0808AE7
:1031000005F074FC0546A0B12C22002101A8A68A76
:10311000E4690AF025FE0F238DF804304FF0000318
:1031200064F3000301A8ADF808608DF80A3001F0DF
:1031300067F828460CB070BD2DE9F04F994613781A
:10314000D2F81880F3B007468A46144623B1D188D6
:103150004046FFF7FDFD9061E378A278002BA2F1D5
:10316000080003AD14BF0121022104F10C06424204
:103170002B464241304603F0ECFDA278C4F818809B
:10318000CDE908571FFA8AF5AB1A9BB21F44ADF878
:103190002830E3780E974FF0000812AF0D978DF8A6
:1031A0003C20ADF83080002B65D04FF0100B04F1BF
:1031B000240A237BC4F82480022B02BF2369ADF8C4
:1031C00030B00B93206A21795246F9F733FC606ADC
:1031D00030BB237B022B05D13146E089F9F7ECFCAB
:1031E0000028E6D1374B1B685B0741D5364B1B687F
:1031F000052B3DDD2F2135480AF082FE002858D0EE
:103200002F2132480AF07CFE411C314B314AD3F861
:1032100004350092062040F20E7204F0A3FC27E071
:1032200007A9FFF723FF0028CCD02046FFF762FF55
:10323000F0B9A2780B908DF81C0096E80300A38AE1
:10324000ADF82A30AD1A0CAB01228DF8282083E8A6
:103250000300A37D8DF84030236A0E9307A8636AAC
:103260000897ADF824500F93CDF8449000F0C8FFB4
:1032700073B0BDE8F08F227B012AB3D1A046E0896C
:10328000B4F814A048F8243F4146F9F719FC07A9FF
:10329000606AFFF7EBFE0028C7D1606241465046E6
:1032A000F9F70EFC07A9606AFFF7E0FE002899D045
:1032B000BBE75C2105480AF023FE08B15C21A0E7CA
:1032C0000249A2E7682E0020642E002051F203007C
:1032D0000010014014F30300C37D0A7830B5002BC1
:1032E0003DD0C37822F07F0203F07F031A430A70B7
:1032F0000B78027803F07F0343EAC2130B70037864
:1033000063B38378083B5A425A414B7803F07F03FA
:1033100043EAC2134B708A78C58802F00302C5F3F2
:10332000861442EA850223F07F032343D2B28A70D7
:103330004B70CB78057A03F01F03C5F3C10422F06C
:10334000030243EA45132243DBB2CB708A70427A10
:1033500023F01F0302F01F021343CB7030BDC4786B
:1033600022F0400343EA8413DBB20B70027923F0AE
:103370003F0302F03F0213430B70B9E72DE9F04120
:10338000837890461344C27D002A14BF0B220F227B
:10339000934286B004460F462FD8024612F80C1B03
:1033A0000092002914BF042501252B440293836A4F
:1033B0000193C36A0393684600238DF8103003F02D
:1033C00064FE064670B9059920460D44FFF784FF58
:1033D000E37D5BB14246394628460AF0B6FC6846B2
:1033E00003F074FE304606B0BDE8F0812346424645
:1033F00029463846FFF73AFDF1E70926F2E70000D3
:1034000038B590F84830012B044602D07846FFF7D3
:1034100021FB02F00BFE237B074A012B05BFD2E9FB
:103420000315A37DD16805FB0311014404F13000AD
:10343000BDE8384002F0D1BD444A002070B50D46C9
:1034400090B0044610B97846FFF704FB94F8483072
:10345000022B03D100212046FFF7DAFC2C220021A9
:1034600005A8666D0AF07CFC102305A88DF81430C1
:1034700006968DF81C5000F0C3FE2046FFF798FD1D
:10348000154B1B685B071BD5144B1B68032B17DD03
:103490002F2113480AF034FDA0B12F2110480AF063
:1034A0002FFD411C0F4BD3F80435029594F84820AA
:1034B00001920D4A0092042040F22E2204F052FBA9
:1034C00010B070BD5C2106480AF01AFD08B15C21FD
:1034D000E4E70349E6E700BF682E0020642E0020E1
:1034E00051F203000010014020F2030008460021C1
:1034F000FFF7A4BF10B591F84830012B0C4602D05D
:103500007846FFF7A7FA94F851305BB1013B84F895
:103510005130002384F85030084BBDE81040186843
:1035200003F0E4BA217B0129204603D1BDE8104015
:10353000FFF784BFBDE81040FFF757BDB849002032
:103540002DE9F04F044689B00F4609B100230B6006
:1035500004F10C0394F8505001934FF001084FF020
:10356000000B627AAA4203D2002009B0BDE8F08FB6
:10357000E16C08FA05F30B4259D1E37D2572002B6B
:103580000CBF0C260826954206FB05FA237808BFD7
:10359000B4F84A608DF818B008BFA6EB0A06002BF5
:1035A00014BF4FF004094FF0010906EB090304931F
:1035B000019B0293A36A039302A8E36A059303F0B5
:1035C00064FD0028D1D1079B994445B994F8533044
:1035D0002BB9A36984F85380C3F30C03E380E37D24
:1035E0008BB994F8523073B915B17846FFF732FAB7
:1035F000B4F84A10A2788A1AE16E23460846FFF70B
:1036000035FC84F8528007992046FFF765FEE16E8D
:103610003246514448460AF098FB02A803F056FD92
:1036200017B13B6801333B606B1C84F850300135A7
:10363000EDB296E72DE9F04307468FB01046884675
:1036400015469946FFF756FD0446002860D1EE78EE
:10365000002E40F0AE80B8F1060F59D138787A7854
:10366000DFF8A8C1830103F4FE5343EA9203D7F8BD
:1036700002204FF0700812BA674608FB04C696F89D
:103680004810012925D1B6F814E0E9898E4520D1EA
:10369000F18899421DD1B6F858E0A98ABEF1000F11
:1036A00001D08E4515D110F0800F4FF070033BD044
:1036B00003FB0473A3F85810702303FB0474E56C38
:1036C0001543E564002A61D103213046FFF7B6FEB9
:1036D0001EE00134042CD0D1464B1B685B0717D584
:1036E000454B1B68012B13DD2F2144480AF008FCD1
:1036F00088B12F2141480AF003FC411C404B414A4C
:10370000D3F804350092022040F2846204F02AFAD1
:103710000FB0BDE8F0835C2138480AF0F1FB08B136
:103720005C21E7E73549E9E703FB0473DB898B425A
:10373000C2D0304B1B685A07EAD52F4B1B68012BB0
:10374000E6DD2F212D480AF0DBFBB0B12F212B48FD
:103750000AF0D6FB411C2A4BAA8AD3F80435029200
:10376000702202FB04740220E2890192264A009230
:1037700040F28C6204F0F6F9CAE75C211F480AF0B7
:10378000BFFB08B15C21E2E71C49E4E73046FFF7E4
:1037900031FB854203D13046FFF727FCB8E7002113
:1037A00084F850103046FFF7CBFE3046FFF728FE76
:1037B000AEE73046FFF7D6FA03460028A8D005F159
:1037C0000C012A6A0B9203C9AA8AADF8222009AA21
:1037D00082E80300AA7D8DF830202A788DF8202019
:1037E000EA6A8DF81460CDE906780D92494605A87D
:1037F00098478DE7682E0020642E002051F20300C8
:103800000010014081F20300AFF203005C4A002087
:10381000F0B5C37D15468278002B2A4414BF4FF4BF
:1038200080734FF4C0739342C7B00E4679D3404CB7
:103830000023E11891F84870012F08D1B1F814C0A5
:10384000878ABC4503D1CF89C1898F426BD0703341
:10385000B3F5E07FEDD10121FFF74CFB04460028D2
:1038600063D02A463146C06E0AF06FFA002304A9DD
:1038700020460493FFF764FE30F0040506464BD162
:10388000049B13B12046FFF7BBFD2A4B1B685B0767
:1038900028D5294B1B68032B24DDB4F84A10274B8D
:1038A0008029186828BF8021002305AE8B421CD1D7
:1038B00000222F21224806F813200AF021FB10B322
:1038C0002F211F480AF01CFB411C1E4B1E4AD3F837
:1038D000043501921D4A0092029640F27152042072
:1038E00004F040F9284647B0F0BDE26ED25C1709FB
:1038F00002F00F02C75D06F81370875C06EB430207
:1039000001335770D2E75C210D480AF0F9FA08B18B
:103910005C21D6E70A49D8E72046FFF749FB354640
:10392000E0E70925DEE70825DCE70425DAE700BF44
:103930005C4A0020682E0020642E00206C2E00209F
:1039400051F203000010014043F20300FEE30300C4
:1039500010B54FF4E072002113480AF001FA002478
:1039600005F0B4F8114B12481C60214680220AF081
:10397000F7F9104B1049114A11489C75C3E9001220
:1039800010494CF25032C3E902211A6140F6040298
:103990009A8203F08DF80C4B18600C4B0C481C609D
:1039A000BDE8104005F094B95C4A0020404A002070
:1039B000C0490020444A002080969800F049020047
:1039C0003541030020A10700B8490020AC49002080
:1039D000A52D030005F002B830B504468DB00028CF
:1039E0006CD00369002B69D0C369002B66D0856950
:1039F000002D63D05A788DF804201A780993838AB1
:103A000082F001020B2B8DF80320027B43D90121A8
:103A1000022A8DF8001001D1294A927D002A44D152
:103A2000042213448DF802200B330C2293FBF2F393
:103A3000013B8DF8093000238DF8083094E803002D
:103A400000238DF8173003AB83E803002389ADF81A
:103A50001430A37A8DF81630236A0A932046DF23A8
:103A600008950B93F9F764F928B12378012B0CBF63
:103A70002023FF230B9368462569A48AFFF7CCFA1D
:103A800038B99DF800302246294668469BB1FFF7B9
:103A9000BFFE0DB030BDC17A0029B8D1012A0CBFDC
:103AA000012200228DF8002001D10822B9E7042369
:103AB0008DF80230C2E7FFF761FCEAE70E20E8E785
:103AC000444A0020F0B503468DB00F46002843D08D
:103AD0004568002D40D08669002E3DD0846802786C
:103AE0008DF803200B2C4FF00002099294BF027B4B
:103AF000012202F0010100208DF800108DF8020073
:103B000032B1E11DC90801398DF809108DF808009E
:103B100003F1100103C901228DF8172003AA82E8DE
:103B20000300DA89ADF814201A7F1B6A08966846EC
:103B30008DF81620CDE90A73FFF76EFA38B99DF8B3
:103B400000302246294668461BB1FFF761FE0DB0E2
:103B5000F0BDFFF713FCFAE70E20F8E770B5067B1F
:103B6000012E8CB004460D4646D10B22002168463A
:103B70000AF0F6F89DF80120E3888DF8055002F070
:103B8000030242EA83028DF801202A0E8DF80220FA
:103B90002A0C8DF803202A0A8DF8042062788DF80B
:103BA0001C60911E4A424A41C3F3861343EAC21382
:103BB0008DF8003006230593A38AADF81E3000234C
:103BC00008938DF80C308DF81830E389ADF81A3071
:103BD000E36A0B93A37D226ACDF810D0099243B912
:103BE0006FF0010103A88DF82830FFF76BFF0CB0D0
:103BF00070BD024B5B7DF3E70020F8E7444A0020EC
:103C000010B591F84830022B0C4602D07846FEF7EA
:103C100021FF022384F8683094F84830022B06D143
:103C2000E16C2046FFF79AFF08B984F8680010BDE0
:103C30002DE9F04F0C469FB090461F4605460028E0
:103C400000F0A781002A00F0A48121B9092630469E
:103C50001FB0BDE8F08F1822414609A80AF075F898
:103C60002B78002059B2CA0F81428DF81820ACBFC2
:103C70000122042294428DF81900E7D39DF82F60A9
:103C8000EEB103F07F0381428DF81B308DF81A00EE
:103C90002EDA6A78AB78920102F4FE5242EA93027D
:103CA000ADF81E20DB00EA7803F0180343EA521354
:103CB00002F01F028DF820308DF8212018E0C3F3A8
:103CC0008010002903F03F038DF81B008DF81C3095
:103CD00008DA95F90130002BACBF042308238DF8D6
:103CE0001A30D6E704231A4494428DF81A30ADD323
:103CF00000230F933B78032B02D97846FEF7AAFEE8
:103D00003A78A54B06A853F822301193FFF784F9AF
:103D1000064600289BD1D8E90312B8F8080004F041
:103D2000A1FE002893D13146082204A80AF018F811
:103D300004A9B8F80200F8F73FFF38B19DF8193030
:103D400043F001038DF81930059B0A939DF8193053
:103D5000002B3FF47CAF9DF81820002A00F007816B
:103D60008E4A4FF0000A934602EB0A0393F848107C
:103D7000022940D00AF1700ABAF5E07FF4D19DF82B
:103D8000183013B97846FEF765FE06A8FFF720F84D
:103D9000BDF82CE0824A4FF0000C4FEA0C1838F8BE
:103DA000023073453DD19044D8E9029A514508BF8D
:103DB000484536D106AD0FCD12AC0FC40FCD0FC4A0
:103DC00095E80F0084E80F0098F802308DF849302C
:103DD000002B3FF43CAF12A8FFF70CF8014612A8E5
:103DE000FFF7BCFE98F80230DC077FF530AF06A87D
:103DF000FFF780F92BE7988ABDF82C108842B9D1DB
:103E000006A8CDE90232FEF7E3FF029B8046184682
:103E10008946FEF7DDFF894508BF8045039AA9D290
:103E200015E70CF1010CBCF1080FB6D1002370228C
:103E300002FB03BA9AF84810022915D1BAF81410F7
:103E4000714511D106A8FEF7C3FF8046504689464A
:103E5000FEF7BEFF494508BF404580F0AD80052113
:103E60005046FFF7EBFA02E00133042BE0D19DF856
:103E70002F209DF82130002A0CBF4FF00C084FF086
:103E8000080803FB08880CBF4FF4C0734FF480731D
:103E9000984529D9434B1B6858077FF5D8AE424B4C
:103EA0001B68002B7FF7D3AE2F2140480AF028F87B
:103EB00088B12F213D480AF023F8411C3C4B3D4A74
:103EC000D3F804350092CDF8048040F292320120FC
:103ED00003F048FEBBE65C2134480AF011F808B153
:103EE0005C21E7E73149E9E7BDF81E100C98FEF7C1
:103EF0002FFF0D9A0146BDF82C0004F0B3FD0028F9
:103F00007FF4A5AE4246022106A8FEF7F3FF8246E3
:103F1000002851D1014606A8FFF720FE2C22514669
:103F200012A809F01DFF10238DF8483012A80223B3
:103F30008DF8503000F064F989E65C211B4809F0E7
:103F4000DFFF08B15C2146E0184948E0002B0CBFB8
:103F50000C2308239C4200F0A28004215046FFF766
:103F60006DFA74E63B465246FFF7E6F8CDE0DA0715
:103F70007FF56DAE9DF82F30681C611E23B13B4666
:103F800006AAFFF757FB62E63B4606AAFFF7D4F8FE
:103F90005DE60E265BE600BF10F203005C4A0020DF
:103FA000C0490020682E0020642E002051F203003A
:103FB00000100140F0F20300584B1B685B071BD553
:103FC000574B1B68032B17DD2F21564809F098FF2C
:103FD0000028B2D02F21534809F092FF411C524BC8
:103FE0009DF82020D3F804350192504A0092042015
:103FF0004FF4717203F0B6FD9AF84830022B02D0EC
:104000007846FEF727FDDFF82881D8F8009002F007
:104010000DF809EB00010AF1300001F0DEFF9AF81B
:104020000C30012B1AD19AF86830BBB99AF8483095
:10403000022B02D07846FEF70DFDD8E9013298F840
:10404000151002FB013801F0F1FF00EB08010AF145
:10405000500001F0C2FF01238AF868309DF820105B
:10406000DAF84C3001228A4013427FF4F0AD13435A
:10407000CAF84C309DF82F309AF80920002B0CBF5D
:104080004FF00C084FF008088A42A4F1040408FB22
:1040900001F87FF45BAF08EB0403AAF84A30DAF8C2
:1040A00018200C9B9A420BD20DF1240EBEE80F0093
:1040B0000AF10C0CACE80F009EE803008CE803004A
:1040C000DAF86C002246291D404409F03EFE5046B5
:1040D000DAF84C40FEF78EFE84427FF4B8ADDAF891
:1040E0004C105046FFF73AFD9AF80130D9070CD52D
:1040F0009AF81730DAF86C00BAF84A10002B3FF43F
:1041000031AF3B465246FFF795FA50460121FEF784
:104110007FFE5046FEF74CFF99E500BF682E002059
:10412000642E002051F203000010014004F303004C
:10413000444A00202DE9F341194E00243746A04699
:10414000351995F84830012B0CD102A9284641F8C1
:10415000048DFFF7F5F9042801D0019B13B128461F
:10416000FFF74EF97034B4F5E07FE9D100257C19F2
:1041700094F84830022B0AD194F86830022B06D10B
:10418000E16C2046FFF7EAFC08B984F86800703556
:10419000B5F5E07FEBD1012002B0BDE8F08100BFB2
:1041A0005C4A00202DE9F04188460746E8B1124EEE
:1041B0003468C4B92546454507D1104BC3E900759D
:1041C000012333602046BDE8F08107EBC5035B683F
:1041D0005BB117F83500030609D450B1FEF7C2FDF4
:1041E00038B90135E7E70424ECE70E24EAE70B24AD
:1041F000E8E70F24E6E700BFAC490020B049002003
:10420000F8B5074610B97846FEF724FC0F4E34681F
:1042100094B10F4D01232B7023791BB954F8043C42
:10422000384698472468002CF6D12B78022B03D10E
:104230003168064C09B92970F8BD0B790E6813B1C5
:10424000204603F014FC3146F4E700BF204C002068
:104250001C4C002010B5044610B97846FEF7FAFB56
:1042600000232372211D0248BDE8104003F0DEBB8D
:10427000204C00200B888268D25A073222F00302B9
:10428000134402889BB2043A934288BF00230B80F8
:10429000704713B58368CB1A02A921F8023DFFF7D6
:1042A000E9FFBDF806308068184402B010BD10B5B3
:1042B000044610B97846FEF7CDFB2388042B02D8BC
:1042C0007846FEF7C7FB2088043880B210BD70B571
:1042D000064615460C4611BB7846FEF7BBFBFEB101
:1042E0007846FEF7B7FB6B1E2344B3F1005F34D969
:1042F0004FF08052D2F80C2102F50022B3EB822F4E
:104300002ED2042D02D87846FEF7A4FB3580002378
:10431000043D7380B380B4602580A37070BD10B974
:104320007846FEF797FBB4F1005F12D94FF0805347
:10433000D3F80C3103F50023B4EB832FD3D34FF024
:104340008053D3F80C3103F50053B4EB832FC7D25D
:10435000C9E7B4F5000FF2D8C2E7B3F5000F08D9EA
:104360004FF08052D2F80C2102F50052B3EB822FAD
:10437000C7D37846FEF76EFBC3E738B5044610B9DD
:104380007846FEF767FB6288A36813449B78012B8D
:1043900002D17846FEF75EFBEFF3108572B6A26895
:1043A000A18811448B78032B0AD12046FFF771FFB7
:1043B000A368C31A63800023837005B962B638BD51
:1043C000002393706380A380F7E7F8B50E46154687
:1043D000044610B97846FEF73DFB16B97846FEF75D
:1043E00039FB6288A36813449B78012B02D178467D
:1043F000FEF730FB002D37D02388043B9BB29D4253
:1044000032D8EFF3108772B66188A388EA1D22F0D4
:104410000302994292B204D25B1A9A4210DD042040
:1044200016E018D92088401A904209D29A42F6D84C
:10443000032881BFA3685B1804229A70002363805D
:104440006288A1688B188D5201229A700020336017
:1044500007B962B6F8BDA26813449B78002BDED181
:1044600093706380A380EBE70920F3E7F8B50D466E
:104470001646044610B97846FEF7ECFA15B97846A8
:10448000FEF7E8FAAB78012B02D07846FEF7E2FAA5
:104490002B88B34202D27846FEF7DCFA16B978468A
:1044A000FEF7D8FAEFF3108772B60223AB70E1186B
:1044B0002E802046FFF7DEFE6288A38893421FBF4E
:1044C000A3689B1800229A7007B962B6F8BD70B550
:1044D0000D46044610B97846FEF7BCFA15B9784681
:1044E000FEF7B8FAEFF3108672B6A288A3681344F9
:1044F0009A78042A06D1211D2046FFF7BBFEA28828
:10450000A36813449A78022A03D0032A08D005200E
:1045100003E003229A702B60002006B962B670BDDA
:104520007846FEF797FAF7E738B5044610B97846AB
:10453000FEF790FAEFF3108572B6A088A1680144E7
:104540008B78042B03D12046FFF7A3FE0146887821
:10455000831E5842584105B962B638BD38B5044685
:1045600010B97846FEF776FAEFF3108572B6A08898
:10457000A16801448878C31E012B05D9831E5842C7
:10458000584105B962B638BD2046FFF782FE0146A4
:10459000F0E7F8B50D46044610B97846FEF75AFA2A
:1045A00015B97846FEF756FAEFF3108672B6AB7877
:1045B000012B19D0032B22D1A288A36813449D425A
:1045C00002D07846FEF746FA0027AF70211D20463C
:1045D000FFF750FEA288A36813449B78042B00D1F8
:1045E000A78006B962B6F8BD6288A36813449D42ED
:1045F00002D07846FEF72EFA0023AB70F1E778463A
:10460000FEF728FAEDE710B5EFF3108472B6828852
:10461000816811448B78042B02D1FFF73AFE0146E2
:104620008878B0FA80F0400904B962B610BD037909
:1046300042799B1A03F57F2303F6FF7300EB0330E7
:104640007047000010B5054884681C22002109F05D
:1046500087FB2046BDE8104004F016B8244C00202B
:1046600070B5194CE36813B97846FEF7F3F9237E69
:1046700013B17846FEF7EEF96368092B02D9784644
:10468000FEF7E8F9114D0026636855F82330984786
:10469000022811D003280DD0012810D163680133FE
:1046A000092B636002D97846FEF7D4F9237E002BEC
:1046B000EAD004E06660F9E7237E0BB1207070BD9C
:1046C000BDE87040FFF7BEBF244C002040F303005C
:1046D00010B50388044613B97846FEF7BBF9208865
:1046E000074B04EB800030EA030203D06288B2F586
:1046F000FE4F04D11C4004F580542078204410BDA6
:1047000000F0FFFF70B504460E4647F6FE65FFF762
:10471000DFFFB04207D2844205D24388013B9BB2FF
:10472000AB42F4D870BD0020FCE700000B78032BEF
:10473000094B04BF00221A761A78012A03D11B7E86
:1047400043B9FFF78DBF022A04D10B78032B01D1A7
:10475000FFF778BF704700BF244C002010B50C4C09
:10476000E3681878002203F58051184404F074FAC5
:1047700050B9E1680846FFF75AFF814206D001F5BB
:104780008051E160032010BD0120FCE70220FAE720
:10479000244C00201FB50A4B02221B688DF8002014
:1047A0000193084A4FF4805369460120029300F0B8
:1047B0001BFFB0FA80F0400905B05DF804FB00BFB4
:1047C000444C0020404C00201FB50123CDE90221BC
:1047D0000190054A8DF800306946184600F004FF44
:1047E00005B05DF804FB00BF404C00202DE9F04708
:1047F000254BD86802794179013A91421E4603D18E
:1048000001205876BDE8F08700F580531F491C78D9
:104810001C440B6813F8045F1D44FFF708FF63880E
:10482000013B9BB247F6FE62934200F580578846F3
:1048300004D920463946FFF765FF0446DFF850A04B
:104840004FF001092CB9B4FA84F46409747601209C
:10485000D8E7D8F800106288284601F5805104F0A6
:10486000FBF905460028EED004225146204686F882
:104870001890FFF7A9FF28B920463946FFF742FFF5
:104880000446DFE70020BDE7244C0020444C002014
:1048900004F5030038B5104CE36818784FF6FF7242
:1048A00003F58051184404F0D7F988B1E36819780A
:1048B0000B4498420CD0657E0849094B0422002D18
:1048C00008BF1946FFF780FF20B90120207638BDC8
:1048D0000120FCE70020FAE7244C00200CF503003F
:1048E00008F5030070B50C4D0C4EE96830680C7883
:1048F00004302246FFF768FF58B9336804F0FC041F
:1049000004341C44EB686C611A7813442B61012059
:1049100070BD0020FCE700BF244C0020444C002068
:1049200008B5054B054918680422FFF74DFFB0FA9A
:1049300080F0400908BD00BF444C0020304C0020EE
:1049400010B5074B074C1968E06840F6FC7204315B
:10495000FFF73AFF10B90120207610BD0020FCE7D8
:10496000444C0020244C002010B50C4CE168084653
:10497000FFF75DFE81420AD1094B0A4918680422FB
:10498000FFF722FF40B901232376022010BD01F575
:104990008051E1600320F9E70020F7E7244C002074
:1049A000444C0020484C00202DE9F74F324C23693D
:1049B00013B97846FEF74EF8636913B97846FEF7E7
:1049C00049F8DFF8B89047F6FE6A6369D4E9030650
:1049D00003EA0908A8EB0308FFF729FE7388013BE7
:1049E0009BB2534508F5805800F5805B06D93046E8
:1049F0005946FFF787FE0646002835D03546002782
:104A00005D4519D22A8807EB8202904509D986EACA
:104A1000050313EA090F04D16B88013B9BB2534590
:104A200002D957B9012318E028460192FFF750FE3A
:104A3000019A05461746E3E7E7B13A463146606911
:104A4000FFF7C2FE90B963691F44676115B97846E4
:104A5000FEF700F82561002335B1698847F6FF723B
:104A6000914201D0002BB0D0012000E0002003B023
:104A7000BDE8F08F0123EFE7244C002000F0FFFF9A
:104A80001FB50A4B0222DB688DF800200193084A0B
:104A90004FF4805369460120029300F0A5FDB0FA5F
:104AA00080F0400905B05DF804FB00BF244C0020F5
:104AB000404C002010B54FF010235A69013225D028
:104AC0005A691AB35B69A3F58053A3F58053174A5B
:104AD000196813604B1E033325D8C1F30B0313BBB6
:104AE000134A1448D160012111701349137653768B
:104AF000936051F8234084420ED1536001200F4946
:104B000000F062FDFFF7ACFD012010BD4FF08052B8
:104B1000516913694B43D8E701330A2BE9D1784631
:104B2000FDF798FFEAE70020EFE700BF444C0020C4
:104B3000244C0020814A030040F303002D4703006A
:104B400010B5044610B97846FDF784FF094B187874
:104B500060B1E068D9684379A0EB0333994206D38A
:104B6000FFF765FD81428CBF0020012010BD0020B1
:104B7000FCE700BF244C0020024B1878003018BF1F
:104B800001207047244C002038B50E4C2378054690
:104B900013B17846FDF75EFF2B78032B02D07846E1
:104BA000FDF758FFEB68E360012000230649A5608C
:104BB000636023762070637600F006FDBDE8384020
:104BC000FFF74EBD244C00202D470300014B186811
:104BD000704700BF444C002010B5044610B9784619
:104BE000FDF738FF63681BB123680BB1A36813B9E5
:104BF0007846FDF72FFFA3685A1E1A4202D0784666
:104C0000FDF728FF0023C4E9033310BD38B505467E
:104C1000F0B1E9B18368EBB1EFF3108472B6D0E97B
:104C200002302A691A44824203D104B962B60424CC
:104C30000CE0013B0340D5E9000202FB030009F050
:104C400084F8EB680133EB6034B962B6204638BDB6
:104C50000E24FBE70924F9E70024F7E770B50E46B8
:104C60000446F0B18368F3B1EFF3108572B6D0E972
:104C70000331994203D105B962B605250FE04EB163
:104C80008368013B0B40D0E90012304602FB031160
:104C900009F05BF823690133236135B962B6284610
:104CA00070BD0E25FBE70925F9E70025F7E70000B1
:104CB000024AD2F80034002BFBD0704700E00140DC
:104CC000C0F30B0310B5E3B9E9B1104C0223C4F8EB
:104CD0000435FFF7EDFF01F6FF7121F47F6121F04C
:104CE0000F010144884205D10020C4F80405FFF7F4
:104CF000DFFF10BDC4F80805FFF7DAFF00F58050AC
:104D0000F0E71020F5E70920F3E700BF00E00140DD
:104D100070B540EA010414F003041BD1E2B1950719
:104D20001AD10E4E0123C6F804359508FFF7C0FFCF
:104D3000AC4205D10020C6F80405FFF7B9FF70BDED
:104D400051F824305A1C03D040F82430FFF7B0FF4C
:104D50000134EDE71020F2E70920F0E700E0014020
:104D60004388012B05D0022B01D1043008600120BB
:104D7000704704304860FAE708B508220221094864
:104D800003F0DDFA20B90848BDE8084003F054BC40
:104D9000064A91684160127B0272BDE8084003F048
:104DA000FDBA00BF544C0020282E0020A04C00204B
:104DB00010B5044610B97846FDF74CFE2346BDE811
:104DC0001040184700B50A4B1A7B9B688DB0012A2A
:104DD00008BF03F1FF3303900CA80493022300F8EB
:104DE0002C3D8DF80820FFF70BFA0DB05DF804FBA1
:104DF000A04C002038B50E4D2B78C3B90D4B5C6824
:104E000004F50054B4F1807F11D8042201210A482E
:104E100003F095FA20B90948BDE8384003F00CBC0E
:104E2000012344602B70BDE8384003F0B7BA38BDA9
:104E3000B44C0020A04C0020544C0020182E002020
:104E400010B501210C4803F0BFFA80B902210A48CD
:104E500003F0BAFA044650B901461422074808F094
:104E60007FFF074B1C70BDE81040FFF7C3BF05482C
:104E700003F0E2FBF7E700BF544C0020A04C0020F9
:104E8000784C0020482E002030B50D468DB07AB900
:104E90004B88012B0AD1124C227812B97846FDF7C3
:104EA000D9FD104B6A685A60002323700DB030BDE5
:104EB000032A02D07846FDF7CDFD2C22002101A85F
:104EC00008F04EFF11238DF80430074B0395DA6884
:104ED0001B69059201A80693FFF792F9E6E700BF68
:104EE000B44C0020A04C0020544C002013B501F01D
:104EF0006FFD00216B46124A1248134CCDE9001198
:104F000003F070F9009B0BB1019A6AB9002323608A
:104F1000A3602373FFF730FF23686360FFF76AFF26
:104F200001F096FD02B010BD1968A16019792173D6
:104F3000934203D91B790BB92360EDE71368FBE7B4
:104F4000614D0300544C0020A04C002008B503F034
:104F5000C1FBA0F5805008BD7FB50021182268462E
:104F600008F0FEFE00230293FFF7F0FF01230090FC
:104F700001936946054B0648039303F04DFA10B1BF
:104F8000044803F059FB07B05DF804FB894E0300A9
:104F9000544C0020382E002008B5142200210A4865
:104FA00008F0DEFE01F042F8084B094A09499A6010
:104FB00000225860C3E903125A61074B1A70BDE81A
:104FC0000840FFF7C9BF00BFA04C00207C4C002068
:104FD000C950030000879303B54C002010B5074C5F
:104FE00023784BB90648074B036000F0B9FD06482B
:104FF00000F0BAFF0123237010BD00BF504C002009
:10500000944C00202D5103007C4C002010B501F081
:10501000DFFC104A117B1346C9B9917BB9B9118ADB
:1050200041F28262914202D80B4A12787AB101228F
:105030001A739A68002401321C829A60FFF79CFE62
:105040002046FFF7BFFE01F003FD204610BD0824F7
:10505000F9E700BFA04C0020B54C002010B501F0CE
:10506000B7FC174A547B1346BCB1917B21BB118A14
:1050700041F28262914202D8124A1278F2B11A7B4E
:10508000002058732AB1012A0BD07846FDF7E2FCC4
:1050900003E0FFF7BBFF0028F7D101F0D9FC204661
:1050A00010BDC3E9000018731882FFF78BFEFFF7ED
:1050B00063FEFFF79FFEF0E70024EEE71446ECE7FF
:1050C000A04C0020B54C002010B5164C237B2BB112
:1050D000012B12D07846FDF7BDFC18E0228A41F280
:1050E00082639A4202D8104B1B7883B1FFF7B6FF58
:1050F000638A0BB1013B638210BD228A41F2826157
:105100008A4208D8084B1B780BB1FFF7A7FF238A08
:1051100001332382ECE742F2B0118A42F5D963737E
:10512000E4E700BFA04C0020B54C002010B5037888
:10513000042B0ED143681B785BB11D4B4269197B70
:10514000047E71BB598A01BB012C996802D08A4246
:1051500003D810BD4C1CA24219D92A318A42F8D872
:10516000997B0029F5D184689A60124A1A61C3E9D3
:10517000001159731973FFF7FFFDFFF73BFE04F1B0
:105180001000BDE81040FFF71DBE012CE1D1996869
:1051900001318A42DDD101225A73BDE81040FFF788
:1051A0005DBF0129D5D1012CD3D09968F1E700BFAB
:1051B000A04C00200000062D38B5164CD4E9002381
:1051C0009A4205461FD2207B134B1449012808BF81
:1051D0000B469A4207D263682268403B9A4208D342
:1051E000FFF708FE05E001236373FFF737FF002890
:1051F000F1D0EFF3108072B623685A1C22602B6046
:1052000028B962B638BDFFF7F5FD0F20FAE7002098
:10521000F8E700BFA04C0020FFFF7F0000E0FF0088
:1052200010B50C4A1368144628B101200A490344FA
:105230008873136010BD13B97846FDF70BFC236823
:10524000013B2360002BF5D1034A9373BDE8104066
:10525000FFF704BF4C4C0020A04C002000B58DB0DF
:105260000323ADF808000CA88DF8102000F82C3DA1
:105270000391FEF7C5FF0DB05DF804FB014B986884
:10528000704700BFA04C0020034B98681B7B012B8C
:1052900008BF00F1FF307047A04C0020044B9B6812
:1052A0005840C20748BF03F1FF331846704700BF9C
:1052B000A04C0020014B187B704700BFA04C002081
:1052C00038B50A4B1C787CB9094D01221A70297334
:1052D000A860FFF751FD2046FFF774FDC5E90044C3
:1052E000FFF788FD204638BD0820FCE7784C0020F9
:1052F000A04C00202DE9F8431D4CDFF878900026E3
:105300000221204602F0A0FA5FFA86F8054600273F
:10531000ADB967B12946204602F0FDFA082806D14A
:1053200054F8043C1BB12A4649464046984701368A
:10533000032E04F1BC04E3D10120BDE8F88354F846
:10534000043C34F80C2C13B129464046984734F8F5
:105350000C3C02210133204624F80C3C02F090FA68
:105360000221204602F070FA01370546D0E700BF5F
:10537000CC4C002068F3030038B5012104460C3002
:1053800002F062FA054628B3164BC4F89C3000239D
:10539000C4F8A03003786268012B07D0022B1BD021
:1053A0007846FDF757FB4FF4FA7307E081688B1AD4
:1053B00099084FF4A9734B4303F5FA730A4A9342D1
:1053C00094BFC4F8A830C4F8A8200123C4F8AC40A6
:1053D00084F8B830284638BD83689B1A1A0B034BF3
:1053E0005343E9E71154030060850100645E010046
:1053F00010B50446FFF7C0FF48B104F19C0005F06A
:1054000037FE20B17846BDE81040FDF723BB10BD44
:105410002DE9F74F4A4B1B7880460D463BB105F00E
:105420005DFE002385F8B83003B0BDE8F08F01F1D0
:105430000C09D1F8A8704846012102F005FA064689
:1054400010B97846FDF706FBDFF8FCA0A7F5FA7760
:1054500000244FF4A97B3378012BA7EB040406D07A
:10546000022B3BD07846FDF7F5FA00231FE06B686E
:10547000B268B4FBFBF4D21AA400944228BF1446CD
:1054800024B901937846FDF7E5FA019BF16870684D
:1054900023F00303224619441844FFF739FC10B1E6
:1054A0007846FDF7D7FA6B681C446C60B3686A688D
:1054B0009A422AD105F012FE4846012102F0E0F995
:1054C00000236B6085F8B8301E4B186801F00EFBA6
:1054D000284603B0BDE8F04FFFF78ABF6B68B2689B
:1054E000B4FBFAF4D21A2403944228BF144624B918
:1054F00001937846FDF7AEFA019B706823F0030331
:1055000021461844FFF7DCFBC9E701F03BF933788B
:10551000B0EB080448BFA8EB0004012B0DD0022B10
:1055200006D153462344BB4295D905F0D7FDCFE7BA
:105530007846FDF78FFA0023F4E74FF4A973F1E7FB
:10554000BC4C0020B84C0020645E010070B51B48C4
:105550001B4C01F0ADFA1B4B186004F11C0341F227
:1055600003060825636104F10C0004F118032361AC
:10557000A681A57302F0ABF904F1D803C4F8D030CA
:1055800004F1C80004F1D403C4F8CC30A4F8C86016
:1055900084F8CA5002F09BF904F5CA73C4F88C3140
:1055A00004F5C873A4F8846184F88651C4F888317E
:1055B00004F5C270BDE8704002F089B9F5520300ED
:1055C000C04C0020B84C0020022838B504460D46D7
:1055D00002D97846FDF73EFA024BBC2202FB0434A6
:1055E000A56038BDC04C002002282DE9F84F0746C1
:1055F0000C46924602D97846FDF72CFA14B9784643
:10560000FDF728FA2378012B12D16368990702D09D
:105610007846FDF71FFAE3689A0702D07846FDF74F
:1056200019FAA3689B0711D07846FDF713FA0DE02D
:10563000022B0DD16368C3F30B0313B17846FDF75A
:1056400009FAA368C3F30B03002BEDD1A36813B9C8
:105650007846FDF7FFF9EFF3108872B6BC257D435D
:10566000224E05F10C09B1440021484602F0ECF845
:10567000834690B30021484602F002F910222146E9
:10568000584608F062FBBAF1000F03D073195B882B
:10569000AAF80030BC2303FB07677B8897F8B84063
:1056A00001337B8004BB124B1F78BFB97019FFF721
:1056B00063FEB8F1000F0ED162B6444640B105F169
:1056C0009C00304405F0D4FC10B17846FDF7C2F9D7
:1056D0002046BDE8F88F3C46F0E70424B8F1000FFF
:1056E000F6D1A0460020E7E70024F7E7C04C0020F1
:1056F000BC4C002070B50A4D0024EFF3108672B642
:105700000021281902F007F906B962B6082805D168
:10571000BC34B4F50D7FF0D1002070BD0120FCE752
:10572000CC4C002070B5EFF3108672B6144C236891
:1057300018BB13B97846FDF78DF92368013B236048
:1057400093B9104D95F8B83013B92846FFF750FEBD
:1057500095F8743113B90C48FFF74AFE95F83032CA
:1057600013B90A48FFF744FE2368094A003318BFFB
:105770000123137006B962B670BD01332360F3E7ED
:10578000F44E0020C04C00207C4D0020384E0020FC
:10579000BC4C002010B1800B014B185C704700BF5F
:1057A00078F3030012DF704713B5137863B1022B4F
:1057B0000CBF0723002310F8011C292962D005D84B
:1057C000162973D002B010BD537DF4E72A2927D0E3
:1057D0002B29F7D1022BF5D110F8021C0139C9B2DF
:1057E00003F0A2F904460028ECD0374B1B685B0697
:1057F000E8D5364B1B68012BE4DD2F21344808F037
:105800007FFB002849D02F21314808F079FB411C4B
:10581000304B314AD3F8043500920194A62224E09B
:10582000022B01D0072BCDD110F8021C013901F059
:10583000BDFC04460028C5D0234B1B685A06C1D5C1
:10584000224B1B68012BBDDD2F21214808F058FB9E
:1058500078B12F211E4808F053FB411C1D4B1F4AF5
:10586000D3F80435009201949322022002F07AF9D1
:10587000A8E75C21164808F043FB08B15C21E9E782
:105880001349EBE7022B9DD110F8021C0139C9B274
:1058900002B0BDE81040FBF753BB5C210C4808F098
:1058A0002FFB08B15C21AFE70949B1E701884FF64A
:1058B000E463994286D110F8021C0230033902B029
:1058C000BDE81040FCF7A2BE682E0020642E002028
:1058D000A1F3030000100140E6F30300BDF3030051
:1058E00070B58AB006F0B4F80446002834D000231E
:1058F0008DF8103006460FCE05AD0FC533682B600E
:10590000627D052A0CD9207D00F00F03072B07D0FC
:1059100004AB063A04F11D0100F00F0004F00EFF85
:10592000114B1A68AAB104AB0393237DC3F303039D
:105930008DF80430637D062B89BF063B00238DF86C
:10594000053004F11D0398BF8DF80530029301A8BE
:105950009047204606F066F806F094F880F00100C3
:10596000C0B20AB070BD00BFFC4E002000B50A4BAB
:105970001A78032A8DB00CD104221A7000212C222F
:1059800001A808F0EDF91C2301A88DF80430FEF7FA
:1059900037FC0DB05DF804FBF84E0020F7B5354F2D
:1059A0003A780546002A5BD100285BD0067A0F2E94
:1059B00001D0062E58D104F08DFEE86800284CD0A6
:1059C000FDF756F90DF10700FFF7ECFE044600283D
:1059D00040D19DF80730012B48D1FDF773F900F055
:1059E000ADFA304600F08CFFE87800F033F900F0B3
:1059F000BFFD05F0D3FA204806F0DCF805F016F8F4
:105A0000FFF7A4FD04F03AF800F05AFC04F022FE7F
:105A100004F042FC284601F01FFBFDF799FF03F05C
:105A2000F7FBFCF721FC08B1062821D1134804F04C
:105A300057FE2A2004F0F8FE2B2004F0F5FE292062
:105A400004F0F2FE162004F0EFFE0D4B00221A6067
:105A500001233B70204603B0F0BDFDF711F9B1E71B
:105A60000824F7E70E24F5E70724F3E70224F1E71B
:105A70000446EFE7F84E0020E1580300582E0020BE
:105A8000FC4E002037B5244D2A78012A05D002D3D8
:105A9000033A012A38D9082428E005F0A5FF01F0CF
:105AA000EDFAFDF797FFFCF7A1FD044650B3062879
:105AB00028D01A4B1B685B0418D5194B1B68012BA7
:105AC00014DD2F21174808F01BFA90B12F2115483B
:105AD00008F016FA411C144B144AD3F8043500920E
:105AE000019440F2A712022002F03CF8204603B0D5
:105AF00030BD5C210B4808F003FA08B15C21E6E7F1
:105B00000849E8E700F028FF05F0A4FA0446002859
:105B1000ECD102232B70E9E7F84E0020682E00201C
:105B2000642E0020A1F30300001001407CF3030069
:105B300008B5084B1A78022A0AD1032206481A70BF
:105B400005F04EFA18B17846FCF784FF002008BD36
:105B50000820FCE7F84E00206D590300FDF73CBF1C
:105B6000FEF778BB08B500F0D3FC002008BD7047F5
:105B7000044B1A680132B2F1704F08BF01221A605B
:105B800018687047004F002010B5044610B97846D9
:105B9000FCF760FF0023C4E9003310BD38B50D46A3
:105BA000044610B97846FCF755FF15B97846FCF75E
:105BB00051FF00236B60EFF3108372B6226822B9A5
:105BC0002560656003B962B638BD62685560F8E764
:105BD00010B5044610B97846FCF73CFFEFF310828D
:105BE00072B6206808B143682360236803B9636014
:105BF00002B962B610BD10B5044610B97846FCF77C
:105C000029FF206810BD35DF70473CDF70473DDF5E
:105C10007047000008B503464FF0FF30FFF7F3FF71
:105C2000FF210020FFF7F3FF00201946FFF7EDFFEB
:105C3000BFF34F8F0549064BCA6802F4E062134375
:105C4000CB60BFF34F8F00BFFDE700BF00ED00E06A
:105C50000400FA0507289ABF024B33F81000FA2017
:105C6000704700BF12F40300024B5868103840B26E
:105C7000704700BF00ED00E0084A202390FBF3F3DB
:105C800052F82330424202F01F0200F01F0058BFBA
:105C9000504223FA00F000F00100704700E100E0FC
:105CA00046DF704730B501F110031032103013F8A1
:105CB000014D12F8015D8B4284EA050400F8014DA4
:105CC000F5D130BD2DE9F047144690B002F10F0533
:105CD000102288462D1101460DEB0200994604F072
:105CE0000F0408F032F8002D51D0002C4FD10126BE
:105CF000B2461022002108A808F032F804A8FFF7E5
:105D0000CFFF01220DF13F0110AB13F9100D1F461B
:105D100093F800C04FEA4C0C5FFA8CFC83F800C08B
:105D200013F801EF4CEADE1C994203F801CCEFD1E5
:105D30009DF83F305B00DBB20028B8BF83F08703DB
:105D40008DF83F30531C9A454FF00202DCD2013DE2
:105D500008EB0511FEB10CAA6846FFF7A3FF10225D
:105D600000210CA807F0FCFF0024AC4225DB3A46DA
:105D7000694608A8FFF796FF04A8FFF791FF1022D5
:105D80003946484607F0E1FF10B0BDE8F08700262D
:105D90004FF0020AADE72246684607F0D6FF10AB87
:105DA0002344802203F8402C0134102C02D10CAA89
:105DB0006946D1E70DF80460F6E708EB04123946AE
:105DC00008A8FFF76FFF04A8FFF76AFF0134CCE7CC
:105DD00038B5124B1A6804462AB11A6845685268E9
:105DE000AA1A002A0DDA1A6862611C609A880132C8
:105DF00092B29A8012B97846FCF72CFE01232370E8
:105E000038BD19684A691AB15068401B002802DB86
:105E100062614C61EAE71146F4E700BF084F0020D9
:105E200010B5124B1A68824204461A460BD14269D9
:105E30001A609A8892B2511E89B299808AB97846BE
:105E4000FCF708FE0DE01B685BB15969A1420BD15C
:105E50006169596193889BB2591E89B29180002B68
:105E6000EDD00023237010BD0B46EDE7084F002056
:105E7000014B186800F03ABE044F0020044B1A682A
:105E800022B11B680349586800F05AB900F0AEB956
:105E9000084F0020715E03002DE9F04100F0C6F8C4
:105EA000254E054637464FF00008336823B1336866
:105EB0005B685B1B642B06D400F0B8F8FFF7DEFFCD
:105EC0000120BDE8F08134682378012B02D07846A8
:105ED000FCF7C0FD63693B60BB88C4F814809BB2CB
:105EE0005A1E92B2BA8013B97846FCF7B3FDA36884
:105EF00013B97846FCF7AEFD0223284623702169CA
:105F0000A368984700F092F82378022B0546CCD17D
:105F1000E2680AB92270C8E763686FF06301891A02
:105F20001344091AD018C14204D463602046FFF715
:105F30004FFFBAE70346F5E7084F002008B50822EF
:105F40000021064807F00CFF054800F0B1FD054BA5
:105F50001860BDE8084000F05CB800BF084F0020A2
:105F6000995E0300044F002010B5044600F096FE31
:105F700010B97846FCF76EFD14B97846FCF76AFD57
:105F8000A36813B97846FCF765FD2378012B02D18D
:105F90007846FCF75FFD002363612046FFF718FF9A
:105FA00000F044F8BDE81040FFF768BF10B50446A4
:105FB00000F074FE10B97846FCF74CFD14B9784631
:105FC000FCF748FD2046FFF72BFF0023636100F03C
:105FD0002DF8BDE81040FFF751BF38B504460D4617
:105FE00000F05CFE10B97846FCF734FD14B9784631
:105FF000FCF730FD2046FFF713FF002363612046C6
:106000006560FFF7E5FE00F011F8BDE83840FFF7E6
:1060100035BF08B506F094F938B906F0D1F820B1CB
:106020007846BDE80840FCF715BD08BD10B5EFF394
:10603000108072B60C4A0D4B1968D2F80435D2F8AC
:106040000441012C04BFD2F80435013100B962B615
:10605000074843EA01614FF480420023E0FB01233B
:10606000D00B40EA434010BD00100140104F00200B
:1060700040420F0010B50A4B0A4C4FF40032C3F8EF
:106080004823C3F80823226812B97846FCF7E2FCDB
:106090002468FFF7CBFF2346BDE81040184700BF38
:1060A000001001401C4F002010B5EFF3108072B6B5
:1060B0001E4B1F490022C3F804210A6801320A60FE
:1060C00000B962B61B4A116809B311680139116041
:1060D0001268E2B9184AD3F804051168884217D249
:1060E000EFF3108072B6D3F8041514680131A142A1
:1060F0002ABFD3F8042512680232C3F8442500B938
:1061000062B64FF40032C3F84423C3F8042310BD31
:106110000A4C226812B97846FCF79CFC2468FFF709
:1061200085FF2346BDE81040184700BF001001401E
:10613000104F0020144F0020184F00201C4F00204B
:1061400037B50023044601930D4611B97846FCF794
:1061500081FC204B1D60FFF769FF031B002BB8BFBC
:10616000241A1D481D4AA8BF00244FF400450021F1
:106170000023E5FB040107F011FCEFF3108301930A
:1061800072B6174A174CD2F804350228C3F1FF1132
:1061900001F57F4138BF02208142134910D30344E7
:1061A000C2F844354FF40033C2F84433C2F8043324
:1061B000002323600B60019B03B962B603B030BDBE
:1061C00003F17F43013303441A0E0132226023F0AE
:1061D0007F43EFE71C4F002020A1070040420F0043
:1061E00000100140144F0020184F0020074B4FF4BF
:1061F0000032C3F84823C3F80823054A002313607C
:10620000044A1360044A1360704700BF0010014045
:10621000144F0020184F00201C4F002030DF704723
:1062200031DF704710B5D0E900238468C168A2EB64
:10623000731283EAF43303600C4413441144446042
:106240008160C360184610BD37B50C46054610B9CD
:106250007846FCF7FFFB00239C4201D803B030BD19
:106260000DF10700FFF7DAFF9DF807100029F7D0BE
:10627000E21A914288BF8DF80720E8189DF80710B0
:10628000FFF7CEFF9DF807201344E5E737B5044636
:1062900002A8002340F8043D0421FFF7D5FF074B77
:1062A0002360019BE360C4E9013314252046FFF716
:1062B000B9FF013DFAD103B030BD00BFED5EEAF198
:1062C000704748DF704749DF70474ADF704700007A
:1062D000064A032313741168054B536140F6D862D4
:1062E000914288BF43F2B0629A6070474C4F0020E1
:1062F0006C4F0020054B1B68A0F1780228335843EF
:10630000034BB0FBF3F0101A704700BF684F00203A
:1063100040420F0038B50E4A0E4C012363711368DA
:10632000002501331360257400F086FA04F04CFF59
:106330002068FFF7DFFF084A0146284600F0F0F921
:1063400020B17846BDE83840FCF784BB38BD00BFBB
:10635000804F00204C4F0020D162030010B41F4B2F
:106360005A6928B11968DC6811440134DC6019608D
:10637000996801240131E24001291C7499605A6135
:106380001C680ED002291AD05B69154A1C4494423D
:1063900003D840F6D76293421CD85DF8044BFFF750
:1063A000B9BFB2F5FA7F03D130B900225A61EBE7E9
:1063B00040F6D8618A42E7D840F6D862F6E7DA6854
:1063C000022A02D1064A121BF0E7012ADCD100287A
:1063D000EBD0D9E75DF8044B704700BF4C4F00206D
:1063E0008096980070B5424C424D012323712B7862
:1063F0001BB1414B1E78002E5BD000232374042870
:1064000053D8DFE800F0034D4A4844003B4DA179E2
:10641000AA68C4E9023323682260002934D001212C
:1064200021743749002B08BF0B46991AB1F57A7FC2
:1064300026D39A4224D8616143F2B06043F6982291
:10644000C5E9020201236B71A371237C023B012B7E
:106450000DD8637943B104F0D3FE2068FFF74AFFFB
:1064600000F01CFA00236371234B00221A70237C76
:106470002448022B04BF012323760023237170BD1F
:106480004FF47A736361D7E7FFF744FFD4E7012045
:10649000FFF764FFD9E70020FAE704F043FED4E7F2
:1064A00000F090F904F076FECFE77846FCF7D2FAD8
:1064B000CBE700F067F92B782060022B0FD0032B7D
:1064C00006D0012B10D10223237400232B70BCE7CC
:1064D0000A4B0D490D4A5E71C3E90212A6710323EE
:1064E0002374064B6361F0E77846FCF7B3FAECE7F8
:1064F0004C4F00207D4F00207C4F00206C4F00202F
:10650000809698005C4F0020A0860100FF1FA10725
:10651000043808B5042825D8DFE800F016220A035D
:106520000F00114B1B7E012B1CD1FFF7CCFEC8B115
:106530007846BDE80840FCF78DBA0B4B00221A766E
:10654000BDE8084004F094BE08480123437143F6B7
:10655000982240F6D863C0E90232FFF7B6FEE6E7BC
:106560000248FAE708BD00BF4C4F00206C4F0020E6
:106570000D4A4FF480710023918043F2B06C43F6D2
:1065800098211370C2E902C1084A1060084A1370CA
:10659000084A1370084A1360084A13715371136054
:1065A00013760123937170476C4F0020684F0020D1
:1065B0007C4F00207D4F0020804F00204C4F00205A
:1065C00010B50E4C227E012A0CD004D3022A0CBF37
:1065D0001120002010BD0A48FFF773FE10B1784665
:1065E000FCF738FA0748FFF770FE10B17846FCF761
:1065F00031FA022323760020ECE700BF4C4F002045
:10660000E56303006C4F0020074B1B7C023B012B12
:1066100007D9064B1878013802288CBF00200120CA
:1066200070470120704700BF4C4F00207D4F002075
:10663000014B1868704700BF4C4F002010B5074B46
:10664000587948B11868FFF755FE044600F09AF8EB
:106650000346201A48BF181B10BD00BF4C4F002036
:10666000014B5879704700BF4C4F0020014B1879FF
:10667000704700BF4C4F0020024B187E003018BFFF
:10668000012070474C4F0020EFF3108372B6054A8B
:10669000527922B1044A4FF48071C2F8001103B953
:1066A00062B670474C4F002000E100E0044B1B7EB7
:1066B000022B04D1034B01221A70FFF7E5BF70478C
:1066C0004C4F00207D4F0020064B1B7E022B07D134
:1066D0000128054B0CBF032202221A70FFF7D4BF1A
:1066E000704700BF4C4F00207D4F0020064B1978AB
:1066F0001A4631B128B90549097811B11870FFF768
:10670000C3BF1070704700BF7C4F00207D4F00203A
:10671000024B1B6803B962B6704700BF944F00205C
:10672000022810B522D8EFF31084114B1C6072B60A
:10673000104B43F82020104B002243F820200F4B31
:106740001B787BB1830003F1804303F500431030D5
:10675000C3F84021012202FA00F0094AC2F80403FA
:10676000C3F84015FFF7D4FF002010BD0720FCE759
:10677000944F0020844F0020A04F0020904F002015
:106780000080004008B5EFF310820A4B1A6072B621
:10679000094B1B7853B1094B0022C3F84C2101224D
:1067A000DA64D3F84C05FFF7B3FF08BD044B186853
:1067B000F9E700BF944F0020904F00200080004078
:1067C000984F00202DE9F84FDFF85880DFF85890F7
:1067D0000024A70007F1804505F50045D5F84031B4
:1067E000D3B1D8F8043304F11002012696403342A5
:1067F00012D057F809B0BBF1000F02D17846FCF770
:1068000029F94FF0000A49F807A0C8F80863FFF714
:10681000B9FFD847C5F840A10134032CD9D1BDE850
:10682000F88F00BF00800040844F0020014B1B68A0
:10683000184470479C4F002008B5134B0022C3F842
:106840004025C3F84021D3F84011C3F84425C3F8CC
:106850004421D3F84411C3F84825C3F84821D3F89C
:1068600048310A4B1B681BB9094B4FF480721A6000
:10687000084B01221A70FFF7D9FB0146FFF782FF90
:10688000054B081A186008BD00800040944F002096
:1068900000E100E0904F00209C4F00200B4A0C4983
:1068A00000231360536093600A4A0B6010600A4A29
:1068B0004B6013708B60094B4FF0FF32C3F8082315
:1068C000074B4FF48072C3F880217047A04F00201F
:1068D000844F0020984F0020904F002000800040FF
:1068E00000E100E0044B1B780F2B1EBF034B4FF45D
:1068F0008022C3F800217047F450002000E100E03E
:1069000010B5104C104B2070104803601023C0E9E4
:106910000133FEF761F90E48FFF736F923780F2BA4
:106920000AD0072B09D8EC221A41D20705D55B0102
:10693000084ADBB282F8123310BD7846BDE8104039
:10694000FCF788B8F4500020C04F0020AC4F002066
:10695000F850002000E100E00D4B1B780F2B0DD00C
:106960000C4991F812335A09EC231341DB0706D581
:10697000094B9A6832B94FF480230B607047784610
:10698000FCF768B81A6842F480221A60704700BFAA
:10699000F450002000E100E0E060002030B50D463A
:1069A00085B0044610B97846FCF754F800236946D0
:1069B00006488DF80030CDE90145FEF727F918B9F2
:1069C000FFF790FF05B030BD0420FBE7AC4F00207F
:1069D000F8B5EFF3108772B617480268511C0160D2
:1069E00002BB164B1B780F2B21D0EFF3108C72B625
:1069F000134A144C95680123E5B99360124B134E6A
:106A0000D3F8801031401160C3F88060D3F884104F
:106A100051604FF0FF32C3F884202570BCF1000FA5
:106A200000D162B6036813B97846FCF713F807B9CA
:106A300062B6F8BD2370F1E7C0500020F45000208A
:106A4000E0600020F550002000E100E0FC06FFBD02
:106A500038B5EFF3108572B6104C236813B9784639
:106A6000FBF7F8FF2368013B2360A3B90C4B1B78AD
:106A70000F2B10D00B4B9A686AB10B4A127852B99F
:106A8000EFF3108072B609491C680C605C684C60BA
:106A90009A6000B962B605B962B638BDC050002030
:106AA000F4500020E0600020F550002000E100E0FC
:106AB00038B5054610B97846FBF7CCFF094C23687A
:106AC000092B02D97846FBF7C5FFEFF3108372B6A6
:106AD0002068421C2260044A42F8205003B962B682
:106AE00038BD00BFC4500020C850002010B50E4B68
:106AF0001B688342044602D87846FBF7ABFFEFF3EE
:106B0000108072B6094A6109012304F01F0403FAD8
:106B100004F452F82130234342F82130FFF7E2FE1B
:106B200000B962B610BD00BFC4500020F050002074
:106B300070B50D461646044610B97846FBF78AFF35
:106B400015B97846FBF786FFEFF3108372B6002283
:106B5000C4E902562274246003B962B670BD000015
:106B600070B5044610B97846FBF774FFA36813B9F3
:106B70007846FBF76FFFEFF3108672B6237C03F0C5
:106B8000FF055BB90123064823742146FFF706F889
:106B9000FFF7A8FE284606B962B670BD1120FAE7D5
:106BA000F850002010B5044610B97846FBF752FFA4
:106BB000207C10BD2DE9FF47314E337813B1784664
:106BC000FBF748FF0125DFF8C8802E4FDFF8C4909F
:106BD00035700024D8F80030A34212D82A48DFF8D4
:106BE000A880FEF7F5FF002750BB284C69462046D9
:106BF000FEF734F890B300232846337004B0BDE8A4
:106C0000F087610904F01F020123934057F8212007
:106C1000134213D0EFF3108072B657F8212022EA06
:106C2000030347F8213000B962B659F82430984779
:106C3000824618B92046FFF759FF55460134C9E787
:106C40000468237C13B97846FBF704FFD4E90230CB
:106C5000984727744046FEF7BBFFC5E79DF8003014
:106C600043B1012BC2D1019B002BBFD0DDE9020152
:106C70009847BBE7019B002BB8D002989847B5E72F
:106C800000510020F0500020F8500020AC4F0020B0
:106C9000C4500020C8500020FFF78CBF07B5FEF796
:106CA000E3FF8DF803009DF803301749F02B0DD159
:106CB0000B780F2B25D01220FEF7DEFF80F00100AD
:106CC000C0B200F0010003B05DF804FB9DF8033092
:106CD0005BB2002BADBF03F1604303F00F030B4A1F
:106CE00003F56143B4BFD35C93F800335B090193B0
:106CF000019A0B78934204D0019A9342DBD300208F
:106D0000DFE70120DDE700BFF450002014ED00E0D4
:106D100046DF704730B58DB00D461446014610224F
:106D2000684607F012F8102229460DEB020007F022
:106D30000CF86846FFF7ECFF102208A9204607F080
:106D400004F80DB030BDFEF7BDBF01F085BD01F008
:106D5000ADBD30B4032956D8DFE801F00227275033
:106D600000241C70817A5A7861F306025A70C17A45
:106D7000D2B261F3C7125A70C1680D04C1F3074261
:106D800005F47F0501F47F412A430A43C2F307213A
:106D90009A70120C1A71D9700189DC710A0A42EAE0
:106DA0000122A3F805201C7222E01970597801F025
:106DB000800162F3C7115970C1680C04C1F3074226
:106DC00004F47F0401F47F4122430A439A70C2F322
:106DD0000721120C1A71D97001890A0A42EA0122AC
:106DE000A3F8052041880A0A42EA0122A3F80720F5
:106DF000026912BAC3F8092030BC7047032200248C
:106E00001A705C70B8E7784630BCFBF723BE7FB5DC
:106E10000E461546044600B112B97846FBF71AFE35
:106E200010220021684606F09BFF2B463246214681
:106E30006846FEF747FF04B070BD2DE9FF410B9D8A
:106E4000884616461C46074610B10AB103B115B96B
:106E50007846FBF7FFFD6B46424639463046FEF763
:106E600031FF2B469DF8282021466846FEF72AFF71
:106E700004B0BDE8F0810000F0B50D468FB01446B7
:106E80001F46064608B101B113B97846FBF7E2FD8B
:106E90001CB97846FBF7DEFD01E0102CF9D8254B34
:106EA0001868009005AA68460421FFF7B0FF01ABFF
:106EB000314605A81022FEF705FF2246294605A8FF
:106EC00006F043FF0EAB2344012203F8242C05AB4C
:106ED000A218194601A892B2FEF7F4FE9DF82330DD
:106EE0003E4603F07F0306F8013B2246294609A8E7
:106EF00006F02BFF04F110050EAB1D441134A4B2B3
:106F0000022305F8243C2246334605A901A8FEF7D2
:106F1000D9FE3146102205A806F017FF032305F815
:106F2000243C224607F1110305A901A8FEF7CAFE79
:106F30000FB0F0BD22F4030070B50D4688B00646D0
:106F400000B111B97846FBF785FD114C042120688A
:106F5000019004AA0DEB0100FFF759FF04AB314685
:106F600018461022FEF7AEFE234602A953F8040F7E
:106F700002901B798DF80C3004AB18460522FEF701
:106F8000A1FE082206A9284606F0DFFE08B070BD63
:106F900026F4030070B50D4686B0064600B111B95F
:106FA0007846FBF757FD0F4C54F8040B009002AAEB
:106FB00068460421FFF72BFF02AB3146184610222A
:106FC000FEF780FE2068019002AB042218460DEB0C
:106FD0000201FEF777FE9DF8173003F03F032B7098
:106FE00006B070BD2FF4030030B50268037CD17A7F
:106FF00087B000298DF8043083680CBF0421082174
:1070000009330B44CDE90232436804930446C36854
:107010000593694601A801F061FED0B1237C012BE4
:107020000ED02568FEF730F9286120680C30FEF795
:10703000C3F8054620B101F0CDFE284607B030BDAB
:107040002168009800F08DFB009B093363610025E7
:10705000F3E70425F1E7000008B5074B40B91860D5
:10706000FDF79AFFFDF742FFBDE8084002F0EABADB
:1070700042681A60F4E700BF0451002008B5FDF72C
:10708000ADFFBDE8084002F01BBB10B5044610B9C7
:107090007846FBF7DFFC236813B97846FBF7DAFC88
:1070A00023685B6913B97846FBF7D4FC237C012B7A
:1070B00002D97846FBF7CEFCE36813B97846FBF7B4
:1070C000C9FC2046BDE81040FFF78EBF70B50446EE
:1070D000C6B010B97846FBF7BDFC636913B97846B2
:1070E000FBF7B8FC236813B97846FBF7B3FC2368B9
:1070F0005B6913B97846FBF7ADFC606900F08EFB65
:10710000234B1B689B0706462FD5224B1B68042B7D
:107110002BDD214B05AD19680023F25C100902F04C
:107120000F02085C05F81300885C05EB430201338D
:107130001D2B5070F1D100232F21184885F83A30CB
:1071400006F0DEFED8B12F21144806F0D9FE411C0E
:10715000134B144AD3F804350192134A0092029556
:107160004FF49472052000F0FDFC00233246A16824
:10717000206800F0B7FA01F007FE46B070BD5C2150
:10718000064806F0BDFE08B15C21DDE70349DFE7F4
:10719000682E0020642E00206C2E002082F4030054
:1071A000001001409DF40300FEE303002DE9F047C9
:1071B0000F46D4B091460546002800F0368100F015
:1071C0002FFB0DF12C089A4E421B2946404606F033
:1071D000BCFD336899072AD5964B1B68042B26DD26
:1071E000954B802F3846196828BF8020002313ACA8
:1071F000834240F0B18000222F21904804F81320F0
:1072000006F07EFE002800F0B8802F218B4806F0A3
:1072100077FE411C8A4B8B4AD3F8043501928A4A87
:107220000092029440F24D12052000F09BFC0023D6
:1072300005AC00932A4643463946204600F008FA3A
:107240008246002840F0C3802378002B00F0BF80E6
:10725000E268B2F1807F80F0BA80E27A12B1022B4C
:1072600000F0B58094F90A30002BC0F2B08033688A
:1072700013F0020F13AD28D06E4B1B68042B24DDD6
:107280006D4B802F3846196828BF80200023834229
:107290007CD100222F21694805F8132006F030FE2A
:1072A000002800F085802F21644806F029FE411C4B
:1072B000634B664AD3F804350192634A0092029503
:1072C0004FF4AB72052000F04DFC636913B97846AA
:1072D000FBF7C0FB3946204600F098FAC7B24B4690
:1072E000224639460DF13500FCF7A2FCE1688246E2
:1072F0002089FBF717FD29462089F5F75DFC00285A
:1073000065D1012003F0D6F9002860D0A37A012BC3
:107310005DD92378012B54D04D4BA27A1B68002BEA
:1073200059D1A37A2C60013BA3724FF0FF336B60FD
:10733000DF23EB6028460123AF602B74FFF754FE78
:1073400000284ED13A460DF13501686906F0FDFC82
:107350002846FFF7BBFE3AE0EA5C4FEA121C02F057
:107360000F0211F80CC004F813C011F802C004EBAE
:107370004302013382F801C03AE75C212F4806F04E
:10738000BFFD08B15C2141E72C4943E718F8032011
:107390004FEA121C02F00F0211F80CC005F813C0DE
:1073A00011F802C005EB4302013382F801C06EE719
:1073B0005C21224806F0A4FD08B15C2174E71F4956
:1073C00076E729466088F5F7F7FB0028A4D05046F9
:1073D00054B0BDE8F0876188208998470028A0D183
:1073E000F5E733689B07F2D5124B1B68012BEEDDE6
:1073F0002F21124806F084FD70B12F210F4806F0AE
:107400007FFD411C0E4B134AD3F804350092022035
:10741000A72200F0A7FBDAE75C21084806F070FD20
:1074200008B15C21EAE70549ECE74FF00E0ACEE728
:10743000682E0020642E00206C2E002082F40300B1
:107440000010014037F40300FEE3030046F403009C
:107450000451002055F4030008B510B1012801D1F2
:10746000032008BD7846FBF7F5FA0020F9E770B570
:10747000064688B00D4614460021052204A806F0F1
:107480006FFC336907221BBAA9180DF11900CDF85A
:10749000153006F05AFC70696A46113004A9FFF7EE
:1074A00039FCAB1D0DF10600E21D13F8011910F8AF
:1074B000014DAB4281EA040102F8011DF5D108B08B
:1074C00070BD00002DE9F041D4B01E4600238DF8B8
:1074D0001730ADF83C300E93D31D0C93F31D109371
:1074E0005A9B43610F460DF1180811463246044677
:1074F000CDF82C80FFF7BBFF7378DB09E37273785C
:1075000003F07F03A372F378B2781B0243EA0243CD
:1075100032791343E3607379B07940EA0320208124
:10752000FEF738F9012869D1E27A002AA7F10903A8
:1075300014BF08220422934260D3E1682089FBF73C
:10754000D3FB0546002859D1E37A9DF86C01002B46
:1075500014BF08230423073F8DF84830FF1A0C9B03
:10756000BFB2ADF834701F441197FFF775FF434663
:1075700001462A462046FFF7ECFB63690DF117012F
:1075800001330AA80A93FFF7E2FB9DF81730002B9E
:1075900034D0F379307A40EA03206080FEF7FAF8BD
:1075A000244B20701B689B0728D5234B1B68032B9B
:1075B00024DDBDF83420214B109E1968802A28BF95
:1075C0008022284613AC90421DD1002304F81030CD
:1075D0002F211B4806F094FC10B32F21184806F009
:1075E0008FFC411C174B184AD3F804350192174AF7
:1075F00000920294DF22042000F0B4FA9DF81700F4
:1076000054B0BDE8F081335C1D0903F00F034D5DFC
:1076100004F81050CD5C04EB400301305D70D2E7FC
:107620005C21074806F06CFC08B15C21D6E70449F0
:10763000D8E700BF682E0020642E00206C2E0020AA
:10764000A4F4030000100140C2F40300FEE30300B1
:107650002DE9FF47894615461F469DF830A006468E
:1076600018B112B10BB19A4202D17846FBF7F2F988
:10767000A9F10903142B31D82878C009FDF70EFEB3
:1076800000233061736195F80080CDE9023308F082
:107690007F0803AA02A94046F5F778F9029BB3B127
:1076A000CDE9003A2A463B4649463046FFF70AFFF5
:1076B000044608B100200EE0039B43B1CDE9003A37
:1076C0002A463B4649463046FFF7FCFE40B9029B3E
:1076D000002BDED1052004B0BDE8F0870920FAE7D1
:1076E0002046F8E7F0B50C468FB016461F46054613
:1076F00010B97846FBF7AEF916B97846FBF7AAF948
:10770000012F02D97846FBF7A5F93846FFF7A4FE0A
:1077100001AF3B46014600222846FFF71AFBEB7AF1
:10772000002B14BF082304238DF834306B69A11C8F
:107730000133CDE9053789B2F31D0022ADF82010E1
:1077400005A8194407930B93ADF8282009920C91D2
:10775000FFF7FBFA324631462846FFF788FE0FB0A6
:10776000F0BD38B50D46044610B97846FBF772F9FE
:1077700015B97846FBF76EF92889FEF70BF8012852
:1077800002D07846FBF766F995F90A30002B02DA49
:107790007846FBF75FF9EB68B3F1807F02D3784658
:1077A000FBF758F96B6913B97846FBF753F92B6966
:1077B00003F00102237803F07F0343EAC21323702E
:1077C0006A69127823F07F0302F07F02134323706B
:1077D0006378EA7A03F07F0343EAC213DBB2637093
:1077E000AA7A23F07F0302F07F0213436370EB68F1
:1077F00023711A0CA2701A0AE2702B89A3711A0A5B
:1078000062716B8823721A0AE27138BDC37A002B49
:1078100014BF082004200939081A70470938704736
:1078200001307047436849B9027880781A441B7860
:10783000C31A12F8010C1844C0B270475A185B5CA6
:1078400012F8010CC01AF7E738B50D46044610B916
:107850007846FBF7FFF82378AB4202D87846FBF76F
:10786000F9F829462046FFF7DDFF40B163686278EA
:10787000585DA378013B1840A36802FB003038BD77
:1078800038B50C46054610B97846FBF7E3F82B7877
:10789000A34202D87846FBF7DDF821462846FFF7D9
:1078A000C1FF18B16A68135D0133135538BD10B5B7
:1078B000044610B97846FBF7CDF800231946227824
:1078C0009A4200D810BD6268D1540133F7E710B571
:1078D0004378044613B97846FBF7BCF82378012BAC
:1078E00002D87846FBF7B6F8A36813B97846FBF7D9
:1078F000B1F8636813B97846FBF7ACF8A37813B115
:107900005A1E1A4202D07846FBF7A4F82046BDE87A
:107910001040FFF7CCBF38B50D46044610B9784685
:10792000FBF798F82378AB4202D87846FBF792F839
:1079300029462046BDE83840FFF774BF08B520B19E
:1079400019B1FFF727FB002008BD0E20FCE713B597
:107950000B4650B149B102A9002401F8014D0122A2
:10796000FFF78AFA204602B010BD0E20FBE70000A8
:1079700030B50C468BB00546E0B1D9B11031FFF7F8
:10798000DBFA0D4B03930D4B186804909B88ADF800
:10799000143006AA042103A8FFF739FA062300933E
:1079A0002846019404AB06AA1021FFF746FA0020EE
:1079B0000BB030BD0E20FBE76E6B626BD5F403009D
:1079C00030B50C4687B00546F0B1E9B104210F4B44
:1079D00001930DEB010002AAFFF719FA02AB18465A
:1079E00010222946FFF7AFF99DF816309DF81720B1
:1079F0001B026FEA424203F47C536FEA5242134384
:107A00002380002007B030BD0E20FBE77674616450
:107A100038B50D46044600B111B97846FBF71AF89F
:107A2000AC421EBF23682B60256038BD38B50C46BC
:107A3000054600B111B97846FBF70CF82B68A34254
:107A400002D17846FBF706F8286840B92C60206020
:107A500038BDA54202D17846FAF7FCFF28460568F2
:107A6000002DF6D12146BDE83840FFF7D1BF38B52B
:107A700005460C4601B110B97846FAF7EBFF2B68C2
:107A800083B1A34205D123682B600020206038BD5C
:107A900013461A6822B1A242FAD122681A60F4E7AA
:107AA000002CFAD00520F2E7F8B50E46174604463A
:107AB00008B101B112B97846FAF7CCFF2368B34296
:107AC00002D17846FAF7C6FF25685DB926602846D8
:107AD0003560F8BD2C68A64202D17846FAF7BAFFA5
:107AE0003CB1254631462846B8470028F2D00F2041
:107AF000EFE728463146FFF78BFF2046E9E7000015
:107B000037B506AC184654F8045B00920B460246A3
:107B10000549002005F02CF822462946002004F0F3
:107B200009FF03B030BD00BFDCF40300034B186055
:107B3000034B1960034B1A60704700BF682E00208A
:107B4000642E0020702E002010B4054C24681CB157
:107B5000A4465DF8044B60475DF8044B704700BFD6
:107B6000702E002030B585B008AC54F8045B039447
:107B7000CDE90054FFF7E8FF05B030BD0379427945
:107B80009B1A00EB03307047431E9BB247F6FE6220
:107B9000934208D849B14B8858400B8818420CBF13
:107BA00001200020704700207047012070478307A4
:107BB00070B504460E46054602D07846FAF74AFFED
:107BC00026F003063444A54201D1012070BD55F8CA
:107BD000043B0133F7D00020F8E70000064B984241
:107BE00010B5044603D303F58273984202D9784650
:107BF000FAF730FF201F10BD145100201FB50124DB
