Archive member included to satisfy reference by file (symbol)

external/rtt/librtt_nrf52840_xxAA.a(SEGGER_RTT.c.obj)
                              examples/dfu/CMakeFiles/dfu_no_serial_nrf52840_xxAA_s140_6.1.1.dir/__/__/mesh/core/src/log.c.obj (SEGGER_RTT_Write)
external/rtt/librtt_nrf52840_xxAA.a(SEGGER_RTT_printf.c.obj)
                              examples/dfu/CMakeFiles/dfu_no_serial_nrf52840_xxAA_s140_6.1.1.dir/__/__/mesh/core/src/log.c.obj (SEGGER_RTT_vprintf)
external/micro-ecc/libuECC_nrf52840_xxAA.a(uECC.c.obj)
                              examples/dfu/CMakeFiles/dfu_no_serial_nrf52840_xxAA_s140_6.1.1.dir/__/__/mesh/prov/src/prov_utils.c.obj (uECC_secp256r1)
c:/mesh/arm_gcc/bin/../lib/gcc/arm-none-eabi/7.3.1/thumb/v7e-m/fpv4-sp/hard\libgcc.a(_aeabi_ldivmod.o)
                              examples/dfu/CMakeFiles/dfu_no_serial_nrf52840_xxAA_s140_6.1.1.dir/__/common/src/simple_hal.c.obj (__aeabi_ldivmod)
c:/mesh/arm_gcc/bin/../lib/gcc/arm-none-eabi/7.3.1/thumb/v7e-m/fpv4-sp/hard\libgcc.a(_aeabi_uldivmod.o)
                              examples/dfu/CMakeFiles/dfu_no_serial_nrf52840_xxAA_s140_6.1.1.dir/__/common/src/simple_hal.c.obj (__aeabi_uldivmod)
c:/mesh/arm_gcc/bin/../lib/gcc/arm-none-eabi/7.3.1/thumb/v7e-m/fpv4-sp/hard\libgcc.a(_udivmoddi4.o)
                              c:/mesh/arm_gcc/bin/../lib/gcc/arm-none-eabi/7.3.1/thumb/v7e-m/fpv4-sp/hard\libgcc.a(_aeabi_ldivmod.o) (__udivmoddi4)
c:/mesh/arm_gcc/bin/../lib/gcc/arm-none-eabi/7.3.1/thumb/v7e-m/fpv4-sp/hard\libgcc.a(_dvmd_tls.o)
                              c:/mesh/arm_gcc/bin/../lib/gcc/arm-none-eabi/7.3.1/thumb/v7e-m/fpv4-sp/hard\libgcc.a(_aeabi_ldivmod.o) (__aeabi_ldiv0)
c:/mesh/arm_gcc/bin/../lib/gcc/arm-none-eabi/7.3.1/../../../../arm-none-eabi/lib/thumb/v7e-m/fpv4-sp/hard\libg_nano.a(lib_a-calloc.o)
                              examples/dfu/CMakeFiles/dfu_no_serial_nrf52840_xxAA_s140_6.1.1.dir/__/__/mesh/core/src/mesh_mem_stdlib.c.obj (calloc)
c:/mesh/arm_gcc/bin/../lib/gcc/arm-none-eabi/7.3.1/../../../../arm-none-eabi/lib/thumb/v7e-m/fpv4-sp/hard\libg_nano.a(lib_a-exit.o)
                              c:/mesh/arm_gcc/bin/../lib/gcc/arm-none-eabi/7.3.1/../../../../arm-none-eabi/lib/thumb/v7e-m/fpv4-sp/hard/crt0.o (exit)
c:/mesh/arm_gcc/bin/../lib/gcc/arm-none-eabi/7.3.1/../../../../arm-none-eabi/lib/thumb/v7e-m/fpv4-sp/hard\libg_nano.a(lib_a-impure.o)
                              c:/mesh/arm_gcc/bin/../lib/gcc/arm-none-eabi/7.3.1/../../../../arm-none-eabi/lib/thumb/v7e-m/fpv4-sp/hard\libg_nano.a(lib_a-exit.o) (_global_impure_ptr)
c:/mesh/arm_gcc/bin/../lib/gcc/arm-none-eabi/7.3.1/../../../../arm-none-eabi/lib/thumb/v7e-m/fpv4-sp/hard\libg_nano.a(lib_a-init.o)
                              c:/mesh/arm_gcc/bin/../lib/gcc/arm-none-eabi/7.3.1/../../../../arm-none-eabi/lib/thumb/v7e-m/fpv4-sp/hard/crt0.o (__libc_init_array)
c:/mesh/arm_gcc/bin/../lib/gcc/arm-none-eabi/7.3.1/../../../../arm-none-eabi/lib/thumb/v7e-m/fpv4-sp/hard\libg_nano.a(lib_a-malloc.o)
                              examples/dfu/CMakeFiles/dfu_no_serial_nrf52840_xxAA_s140_6.1.1.dir/__/__/mesh/core/src/mesh_mem_stdlib.c.obj (malloc)
c:/mesh/arm_gcc/bin/../lib/gcc/arm-none-eabi/7.3.1/../../../../arm-none-eabi/lib/thumb/v7e-m/fpv4-sp/hard\libg_nano.a(lib_a-memcmp.o)
                              examples/dfu/CMakeFiles/dfu_no_serial_nrf52840_xxAA_s140_6.1.1.dir/C_/mesh/deps/nRF5_SDK_15.3.0_59ac345/components/ble/common/ble_advdata.c.obj (memcmp)
c:/mesh/arm_gcc/bin/../lib/gcc/arm-none-eabi/7.3.1/../../../../arm-none-eabi/lib/thumb/v7e-m/fpv4-sp/hard\libg_nano.a(lib_a-memcpy-stub.o)
                              examples/dfu/CMakeFiles/dfu_no_serial_nrf52840_xxAA_s140_6.1.1.dir/C_/mesh/deps/nRF5_SDK_15.3.0_59ac345/components/ble/common/ble_advdata.c.obj (memcpy)
c:/mesh/arm_gcc/bin/../lib/gcc/arm-none-eabi/7.3.1/../../../../arm-none-eabi/lib/thumb/v7e-m/fpv4-sp/hard\libg_nano.a(lib_a-memset.o)
                              c:/mesh/arm_gcc/bin/../lib/gcc/arm-none-eabi/7.3.1/../../../../arm-none-eabi/lib/thumb/v7e-m/fpv4-sp/hard/crt0.o (memset)
c:/mesh/arm_gcc/bin/../lib/gcc/arm-none-eabi/7.3.1/../../../../arm-none-eabi/lib/thumb/v7e-m/fpv4-sp/hard\libg_nano.a(lib_a-nano-callocr.o)
                              c:/mesh/arm_gcc/bin/../lib/gcc/arm-none-eabi/7.3.1/../../../../arm-none-eabi/lib/thumb/v7e-m/fpv4-sp/hard\libg_nano.a(lib_a-calloc.o) (_calloc_r)
c:/mesh/arm_gcc/bin/../lib/gcc/arm-none-eabi/7.3.1/../../../../arm-none-eabi/lib/thumb/v7e-m/fpv4-sp/hard\libg_nano.a(lib_a-nano-freer.o)
                              c:/mesh/arm_gcc/bin/../lib/gcc/arm-none-eabi/7.3.1/../../../../arm-none-eabi/lib/thumb/v7e-m/fpv4-sp/hard\libg_nano.a(lib_a-malloc.o) (_free_r)
c:/mesh/arm_gcc/bin/../lib/gcc/arm-none-eabi/7.3.1/../../../../arm-none-eabi/lib/thumb/v7e-m/fpv4-sp/hard\libg_nano.a(lib_a-nano-mallocr.o)
                              c:/mesh/arm_gcc/bin/../lib/gcc/arm-none-eabi/7.3.1/../../../../arm-none-eabi/lib/thumb/v7e-m/fpv4-sp/hard\libg_nano.a(lib_a-malloc.o) (_malloc_r)
c:/mesh/arm_gcc/bin/../lib/gcc/arm-none-eabi/7.3.1/../../../../arm-none-eabi/lib/thumb/v7e-m/fpv4-sp/hard\libg_nano.a(lib_a-sbrkr.o)
                              c:/mesh/arm_gcc/bin/../lib/gcc/arm-none-eabi/7.3.1/../../../../arm-none-eabi/lib/thumb/v7e-m/fpv4-sp/hard\libg_nano.a(lib_a-nano-mallocr.o) (_sbrk_r)
c:/mesh/arm_gcc/bin/../lib/gcc/arm-none-eabi/7.3.1/../../../../arm-none-eabi/lib/thumb/v7e-m/fpv4-sp/hard\libg_nano.a(lib_a-strcpy.o)
                              external/rtt/librtt_nrf52840_xxAA.a(SEGGER_RTT.c.obj) (strcpy)
c:/mesh/arm_gcc/bin/../lib/gcc/arm-none-eabi/7.3.1/../../../../arm-none-eabi/lib/thumb/v7e-m/fpv4-sp/hard\libg_nano.a(lib_a-strlen.o)
                              examples/dfu/CMakeFiles/dfu_no_serial_nrf52840_xxAA_s140_6.1.1.dir/C_/mesh/deps/nRF5_SDK_15.3.0_59ac345/components/ble/common/ble_advdata.c.obj (strlen)
c:/mesh/arm_gcc/bin/../lib/gcc/arm-none-eabi/7.3.1/../../../../arm-none-eabi/lib/thumb/v7e-m/fpv4-sp/hard\libg_nano.a(lib_a-strrchr.o)
                              examples/dfu/CMakeFiles/dfu_no_serial_nrf52840_xxAA_s140_6.1.1.dir/src/main.c.obj (strrchr)
c:/mesh/arm_gcc/bin/../lib/gcc/arm-none-eabi/7.3.1/../../../../arm-none-eabi/lib/thumb/v7e-m/fpv4-sp/hard\libg_nano.a(lib_a-mlock.o)
                              c:/mesh/arm_gcc/bin/../lib/gcc/arm-none-eabi/7.3.1/../../../../arm-none-eabi/lib/thumb/v7e-m/fpv4-sp/hard\libg_nano.a(lib_a-nano-freer.o) (__malloc_lock)
c:/mesh/arm_gcc/bin/../lib/gcc/arm-none-eabi/7.3.1/../../../../arm-none-eabi/lib/thumb/v7e-m/fpv4-sp/hard\libg_nano.a(lib_a-reent.o)
                              c:/mesh/arm_gcc/bin/../lib/gcc/arm-none-eabi/7.3.1/../../../../arm-none-eabi/lib/thumb/v7e-m/fpv4-sp/hard\libg_nano.a(lib_a-sbrkr.o) (errno)
c:/mesh/arm_gcc/bin/../lib/gcc/arm-none-eabi/7.3.1/../../../../arm-none-eabi/lib/thumb/v7e-m/fpv4-sp/hard\libg_nano.a(lib_a-strchr.o)
                              c:/mesh/arm_gcc/bin/../lib/gcc/arm-none-eabi/7.3.1/../../../../arm-none-eabi/lib/thumb/v7e-m/fpv4-sp/hard\libg_nano.a(lib_a-strrchr.o) (strchr)
c:/mesh/arm_gcc/bin/../lib/gcc/arm-none-eabi/7.3.1/../../../../arm-none-eabi/lib/thumb/v7e-m/fpv4-sp/hard\libnosys.a(sbrk.o)
                              c:/mesh/arm_gcc/bin/../lib/gcc/arm-none-eabi/7.3.1/../../../../arm-none-eabi/lib/thumb/v7e-m/fpv4-sp/hard\libg_nano.a(lib_a-sbrkr.o) (_sbrk)
c:/mesh/arm_gcc/bin/../lib/gcc/arm-none-eabi/7.3.1/../../../../arm-none-eabi/lib/thumb/v7e-m/fpv4-sp/hard\libnosys.a(_exit.o)
                              c:/mesh/arm_gcc/bin/../lib/gcc/arm-none-eabi/7.3.1/../../../../arm-none-eabi/lib/thumb/v7e-m/fpv4-sp/hard\libg_nano.a(lib_a-exit.o) (_exit)

Allocating common symbols
Common symbol       size              file

nrf_nvic_state      0xc               examples/dfu/CMakeFiles/dfu_no_serial_nrf52840_xxAA_s140_6.1.1.dir/C_/mesh/deps/nRF5_SDK_15.3.0_59ac345/components/libraries/util/app_util_platform.c.obj
m_packet            0x24              examples/dfu/CMakeFiles/dfu_no_serial_nrf52840_xxAA_s140_6.1.1.dir/__/__/mesh/core/src/core_tx.c.obj
m_cmd_handler       0x4               examples/dfu/CMakeFiles/dfu_no_serial_nrf52840_xxAA_s140_6.1.1.dir/__/__/mesh/dfu/src/nrf_mesh_dfu.c.obj
errno               0x4               c:/mesh/arm_gcc/bin/../lib/gcc/arm-none-eabi/7.3.1/../../../../arm-none-eabi/lib/thumb/v7e-m/fpv4-sp/hard\libg_nano.a(lib_a-reent.o)
_SEGGER_RTT         0x78              external/rtt/librtt_nrf52840_xxAA.a(SEGGER_RTT.c.obj)

Discarded input sections

 .text          0x00000000        0x0 c:/mesh/arm_gcc/bin/../lib/gcc/arm-none-eabi/7.3.1/thumb/v7e-m/fpv4-sp/hard/crti.o
 .data          0x00000000        0x0 c:/mesh/arm_gcc/bin/../lib/gcc/arm-none-eabi/7.3.1/thumb/v7e-m/fpv4-sp/hard/crti.o
 .bss           0x00000000        0x0 c:/mesh/arm_gcc/bin/../lib/gcc/arm-none-eabi/7.3.1/thumb/v7e-m/fpv4-sp/hard/crti.o
 .data          0x00000000        0x4 c:/mesh/arm_gcc/bin/../lib/gcc/arm-none-eabi/7.3.1/thumb/v7e-m/fpv4-sp/hard/crtbegin.o
 .data          0x00000000        0x0 c:/mesh/arm_gcc/bin/../lib/gcc/arm-none-eabi/7.3.1/../../../../arm-none-eabi/lib/thumb/v7e-m/fpv4-sp/hard/crt0.o
 .bss           0x00000000        0x0 c:/mesh/arm_gcc/bin/../lib/gcc/arm-none-eabi/7.3.1/../../../../arm-none-eabi/lib/thumb/v7e-m/fpv4-sp/hard/crt0.o
 .ARM.extab     0x00000000        0x0 c:/mesh/arm_gcc/bin/../lib/gcc/arm-none-eabi/7.3.1/../../../../arm-none-eabi/lib/thumb/v7e-m/fpv4-sp/hard/crt0.o
 .text          0x00000000        0x0 examples/dfu/CMakeFiles/dfu_no_serial_nrf52840_xxAA_s140_6.1.1.dir/src/main.c.obj
 .data          0x00000000        0x0 examples/dfu/CMakeFiles/dfu_no_serial_nrf52840_xxAA_s140_6.1.1.dir/src/main.c.obj
 .bss           0x00000000        0x0 examples/dfu/CMakeFiles/dfu_no_serial_nrf52840_xxAA_s140_6.1.1.dir/src/main.c.obj
 .text          0x00000000        0x0 examples/dfu/CMakeFiles/dfu_no_serial_nrf52840_xxAA_s140_6.1.1.dir/__/common/src/mesh_provisionee.c.obj
 .data          0x00000000        0x0 examples/dfu/CMakeFiles/dfu_no_serial_nrf52840_xxAA_s140_6.1.1.dir/__/common/src/mesh_provisionee.c.obj
 .bss           0x00000000        0x0 examples/dfu/CMakeFiles/dfu_no_serial_nrf52840_xxAA_s140_6.1.1.dir/__/common/src/mesh_provisionee.c.obj
 .text.mesh_provisionee_prov_listen_stop
                0x00000000        0xc examples/dfu/CMakeFiles/dfu_no_serial_nrf52840_xxAA_s140_6.1.1.dir/__/common/src/mesh_provisionee.c.obj
 .text          0x00000000        0x0 examples/dfu/CMakeFiles/dfu_no_serial_nrf52840_xxAA_s140_6.1.1.dir/__/common/src/simple_hal.c.obj
 .data          0x00000000        0x0 examples/dfu/CMakeFiles/dfu_no_serial_nrf52840_xxAA_s140_6.1.1.dir/__/common/src/simple_hal.c.obj
 .bss           0x00000000        0x0 examples/dfu/CMakeFiles/dfu_no_serial_nrf52840_xxAA_s140_6.1.1.dir/__/common/src/simple_hal.c.obj
Memory Configuration

Name             Origin             Length             Attributes
FLASH            0x00026000         0x000d1000         xr
RAM              0x20002da0         0x0003cf60         xrw
*default*        0x00000000         0xffffffff

Linker script and memory map


.text           0x00026000    0x16fb4
 *(.isr_vector)
 .isr_vector    0x00026000      0x200 examples/dfu/CMakeFiles/dfu_no_serial_nrf52840_xxAA_s140_6.1.1.dir/C_/mesh/deps/nRF5_SDK_15.3.0_59ac345/modules/nrfx/mdk/gcc_startup_nrf52840.S.obj
                0x00026000                __isr_vector
 *(.text*)
 .text          0x00026200       0x40 c:/mesh/arm_gcc/bin/../lib/gcc/arm-none-eabi/7.3.1/thumb/v7e-m/fpv4-sp/hard/crtbegin.o
 .text          0x00026240       0x74 c:/mesh/arm_gcc/bin/../lib/gcc/arm-none-eabi/7.3.1/../../../../arm-none-eabi/lib/thumb/v7e-m/fpv4-sp/hard/crt0.o
                0x00026240                _start
                0x00026240                _mainCRTStartup
 .text.sd_app_evt_wait
                0x000262b4        0x4 examples/dfu/CMakeFiles/dfu_no_serial_nrf52840_xxAA_s140_6.1.1.dir/src/main.c.obj
 .text.config_server_evt_cb
                0x000262b8       0x80 examples/dfu/CMakeFiles/dfu_no_serial_nrf52840_xxAA_s140_6.1.1.dir/src/main.c.obj
 .text.mesh_evt_handler
                0x00026338      0x168 examples/dfu/CMakeFiles/dfu_no_serial_nrf52840_xxAA_s140_6.1.1.dir/src/main.c.obj
 .text.startup.main
                0x000264a0      0x1b4 examples/dfu/CMakeFiles/dfu_no_serial_nrf52840_xxAA_s140_6.1.1.dir/src/main.c.obj
                0x000264a0                main
 .text.provisionee_start
                0x00026654       0x30 examples/dfu/CMakeFiles/dfu_no_serial_nrf52840_xxAA_s140_6.1.1.dir/__/common/src/mesh_provisionee.c.obj
 .text.prov_evt_handler
                0x00026684       0xa4 examples/dfu/CMakeFiles/dfu_no_serial_nrf52840_xxAA_s140_6.1.1.dir/__/common/src/mesh_provisionee.c.obj
 .text.mesh_provisionee_prov_start
                0x00026728       0x78 examples/dfu/CMakeFiles/dfu_no_serial_nrf52840_xxAA_s140_6.1.1.dir/__/common/src/mesh_provisionee.c.obj
                0x00026728                mesh_provisionee_prov_start
 .text.led_timeout_handler
                0x000267a0       0x54 examples/dfu/CMakeFiles/dfu_no_serial_nrf52840_xxAA_s140_6.1.1.dir/__/common/src/simple_hal.c.obj
 .text.hal_led_mask_set
                0x000267f4       0x12 examples/dfu/CMakeFiles/dfu_no_serial_nrf52840_xxAA_s140_6.1.1.dir/__/common/src/simple_hal.c.obj
                0x000267f4                hal_led_mask_set
 *fill*         0x00026806        0x2 
 .text.hal_led_blink_ms
                0x00026808       0x64 examples/dfu/CMakeFiles/dfu_no_serial_nrf52840_xxAA_s140_6.1.1.dir/__/common/src/simple_hal.c.obj
                0x00026808                hal_led_blink_ms
 .text.hal_leds_init
                0x0002686c       0x58 examples/dfu/CMakeFiles/dfu_no_serial_nrf52840_xxAA_s140_6.1.1.dir/__/common/src/simple_hal.c.obj
                0x0002686c                hal_leds_init
 .text.GPIOTE_IRQHandler
                0x000268c4       0x60 examples/dfu/CMakeFiles/dfu_no_serial_nrf52840_xxAA_s140_6.1.1.dir/__/common/src/simple_hal.c.obj
                0x000268c4                GPIOTE_IRQHandler
 .text.mesh_app_uuid_print
                0x00026924      0x11c examples/dfu/CMakeFiles/dfu_no_serial_nrf52840_xxAA_s140_6.1.1.dir/__/common/src/mesh_app_utils.c.obj
                0x00026924                mesh_app_uuid_print
 .text.sd_ble_enable
                0x00026a40        0x4 examples/dfu/CMakeFiles/dfu_no_serial_nrf52840_xxAA_s140_6.1.1.dir/__/common/src/ble_softdevice_support.c.obj
 .text.sd_ble_cfg_set
                0x00026a44        0x4 examples/dfu/CMakeFiles/dfu_no_serial_nrf52840_xxAA_s140_6.1.1.dir/__/common/src/ble_softdevice_support.c.obj
 .text.on_sd_evt
                0x00026a48        0x4 examples/dfu/CMakeFiles/dfu_no_serial_nrf52840_xxAA_s140_6.1.1.dir/__/common/src/ble_softdevice_support.c.obj
 .text.ble_stack_init
                0x00026a4c       0xd4 examples/dfu/CMakeFiles/dfu_no_serial_nrf52840_xxAA_s140_6.1.1.dir/__/common/src/ble_softdevice_support.c.obj
                0x00026a4c                ble_stack_init
 .text.app_util_critical_region_enter
                0x00026b20       0x48 examples/dfu/CMakeFiles/dfu_no_serial_nrf52840_xxAA_s140_6.1.1.dir/C_/mesh/deps/nRF5_SDK_15.3.0_59ac345/components/libraries/util/app_util_platform.c.obj
                0x00026b20                app_util_critical_region_enter
 .text.app_util_critical_region_exit
                0x00026b68       0x2c examples/dfu/CMakeFiles/dfu_no_serial_nrf52840_xxAA_s140_6.1.1.dir/C_/mesh/deps/nRF5_SDK_15.3.0_59ac345/components/libraries/util/app_util_platform.c.obj
                0x00026b68                app_util_critical_region_exit
 .text.nrf_section_iter_init
                0x00026b94       0x12 examples/dfu/CMakeFiles/dfu_no_serial_nrf52840_xxAA_s140_6.1.1.dir/C_/mesh/deps/nRF5_SDK_15.3.0_59ac345/components/libraries/experimental_section_vars/nrf_section_iter.c.obj
                0x00026b94                nrf_section_iter_init
 .text.nrf_section_iter_next
                0x00026ba6       0x18 examples/dfu/CMakeFiles/dfu_no_serial_nrf52840_xxAA_s140_6.1.1.dir/C_/mesh/deps/nRF5_SDK_15.3.0_59ac345/components/libraries/experimental_section_vars/nrf_section_iter.c.obj
                0x00026ba6                nrf_section_iter_next
 .text.sd_evt_get
                0x00026bbe        0x4 examples/dfu/CMakeFiles/dfu_no_serial_nrf52840_xxAA_s140_6.1.1.dir/C_/mesh/deps/nRF5_SDK_15.3.0_59ac345/components/softdevice/common/nrf_sdh_soc.c.obj
 *fill*         0x00026bc2        0x2 
 .text.nrf_sdh_soc_evts_poll
                0x00026bc4       0x3c examples/dfu/CMakeFiles/dfu_no_serial_nrf52840_xxAA_s140_6.1.1.dir/C_/mesh/deps/nRF5_SDK_15.3.0_59ac345/components/softdevice/common/nrf_sdh_soc.c.obj
 .text.sd_ble_evt_get
                0x00026c00        0x4 examples/dfu/CMakeFiles/dfu_no_serial_nrf52840_xxAA_s140_6.1.1.dir/C_/mesh/deps/nRF5_SDK_15.3.0_59ac345/components/softdevice/common/nrf_sdh_ble.c.obj
 .text.nrf_sdh_ble_evts_poll
                0x00026c04       0x50 examples/dfu/CMakeFiles/dfu_no_serial_nrf52840_xxAA_s140_6.1.1.dir/C_/mesh/deps/nRF5_SDK_15.3.0_59ac345/components/softdevice/common/nrf_sdh_ble.c.obj
 .text.sd_softdevice_enable
                0x00026c54        0x4 examples/dfu/CMakeFiles/dfu_no_serial_nrf52840_xxAA_s140_6.1.1.dir/C_/mesh/deps/nRF5_SDK_15.3.0_59ac345/components/softdevice/common/nrf_sdh.c.obj
 .text.sdh_request_observer_notify
                0x00026c58       0x30 examples/dfu/CMakeFiles/dfu_no_serial_nrf52840_xxAA_s140_6.1.1.dir/C_/mesh/deps/nRF5_SDK_15.3.0_59ac345/components/softdevice/common/nrf_sdh.c.obj
 .text.sdh_state_observer_notify
                0x00026c88       0x28 examples/dfu/CMakeFiles/dfu_no_serial_nrf52840_xxAA_s140_6.1.1.dir/C_/mesh/deps/nRF5_SDK_15.3.0_59ac345/components/softdevice/common/nrf_sdh.c.obj
 .text.softdevices_evt_irq_enable
                0x00026cb0       0x38 examples/dfu/CMakeFiles/dfu_no_serial_nrf52840_xxAA_s140_6.1.1.dir/C_/mesh/deps/nRF5_SDK_15.3.0_59ac345/components/softdevice/common/nrf_sdh.c.obj
 .text.nrf_sdh_enable_request
                0x00026ce8       0x78 examples/dfu/CMakeFiles/dfu_no_serial_nrf52840_xxAA_s140_6.1.1.dir/C_/mesh/deps/nRF5_SDK_15.3.0_59ac345/components/softdevice/common/nrf_sdh.c.obj
                0x00026ce8                nrf_sdh_enable_request
 .text.nrf_sdh_evts_poll
                0x00026d60       0x28 examples/dfu/CMakeFiles/dfu_no_serial_nrf52840_xxAA_s140_6.1.1.dir/C_/mesh/deps/nRF5_SDK_15.3.0_59ac345/components/softdevice/common/nrf_sdh.c.obj
                0x00026d60                nrf_sdh_evts_poll
 .text.SWI2_EGU2_IRQHandler
                0x00026d88        0x4 examples/dfu/CMakeFiles/dfu_no_serial_nrf52840_xxAA_s140_6.1.1.dir/C_/mesh/deps/nRF5_SDK_15.3.0_59ac345/components/softdevice/common/nrf_sdh.c.obj
                0x00026d88                SWI2_EGU2_IRQHandler
 .text.add_to_publication_list
                0x00026d8c       0x78 examples/dfu/CMakeFiles/dfu_no_serial_nrf52840_xxAA_s140_6.1.1.dir/__/__/mesh/access/src/access_publish.c.obj
 .text.step_resolution_to_us
                0x00026e04       0x38 examples/dfu/CMakeFiles/dfu_no_serial_nrf52840_xxAA_s140_6.1.1.dir/__/__/mesh/access/src/access_publish.c.obj
 .text.schedule_publication_timer
                0x00026e3c      0x184 examples/dfu/CMakeFiles/dfu_no_serial_nrf52840_xxAA_s140_6.1.1.dir/__/__/mesh/access/src/access_publish.c.obj
 .text.publish_timer_tick
                0x00026fc0       0xa8 examples/dfu/CMakeFiles/dfu_no_serial_nrf52840_xxAA_s140_6.1.1.dir/__/__/mesh/access/src/access_publish.c.obj
 .text.access_publish_init
                0x00027068       0x38 examples/dfu/CMakeFiles/dfu_no_serial_nrf52840_xxAA_s140_6.1.1.dir/__/__/mesh/access/src/access_publish.c.obj
                0x00027068                access_publish_init
 .text.access_publish_period_set
                0x000270a0       0x60 examples/dfu/CMakeFiles/dfu_no_serial_nrf52840_xxAA_s140_6.1.1.dir/__/__/mesh/access/src/access_publish.c.obj
                0x000270a0                access_publish_period_set
 .text.get_next_timeout_index
                0x00027100       0x30 examples/dfu/CMakeFiles/dfu_no_serial_nrf52840_xxAA_s140_6.1.1.dir/__/__/mesh/access/src/access_publish_retransmission.c.obj
 .text.message_remove
                0x00027130       0x5c examples/dfu/CMakeFiles/dfu_no_serial_nrf52840_xxAA_s140_6.1.1.dir/__/__/mesh/access/src/access_publish_retransmission.c.obj
 .text.retransmissions_timer_cb
                0x0002718c       0xc4 examples/dfu/CMakeFiles/dfu_no_serial_nrf52840_xxAA_s140_6.1.1.dir/__/__/mesh/access/src/access_publish_retransmission.c.obj
 .text.access_publish_retransmission_init
                0x00027250       0x24 examples/dfu/CMakeFiles/dfu_no_serial_nrf52840_xxAA_s140_6.1.1.dir/__/__/mesh/access/src/access_publish_retransmission.c.obj
                0x00027250                access_publish_retransmission_init
 .text.access_publish_retransmission_message_add
                0x00027274       0xf8 examples/dfu/CMakeFiles/dfu_no_serial_nrf52840_xxAA_s140_6.1.1.dir/__/__/mesh/access/src/access_publish_retransmission.c.obj
                0x00027274                access_publish_retransmission_message_add
 .text.bitfield_get
                0x0002736c       0x1a examples/dfu/CMakeFiles/dfu_no_serial_nrf52840_xxAA_s140_6.1.1.dir/__/__/mesh/access/src/access.c.obj
 .text.is_valid_opcode
                0x00027386       0x42 examples/dfu/CMakeFiles/dfu_no_serial_nrf52840_xxAA_s140_6.1.1.dir/__/__/mesh/access/src/access.c.obj
 .text.model_handle_valid_and_allocated
                0x000273c8       0x20 examples/dfu/CMakeFiles/dfu_no_serial_nrf52840_xxAA_s140_6.1.1.dir/__/__/mesh/access/src/access.c.obj
 .text.flash_manager_mem_available
                0x000273e8        0x2 examples/dfu/CMakeFiles/dfu_no_serial_nrf52840_xxAA_s140_6.1.1.dir/__/__/mesh/access/src/access.c.obj
 *fill*         0x000273ea        0x2 
 .text.restore_acquired_subscription
                0x000273ec       0x30 examples/dfu/CMakeFiles/dfu_no_serial_nrf52840_xxAA_s140_6.1.1.dir/__/__/mesh/access/src/access.c.obj
 .text.restore_acquired_element
                0x0002741c       0x1c examples/dfu/CMakeFiles/dfu_no_serial_nrf52840_xxAA_s140_6.1.1.dir/__/__/mesh/access/src/access.c.obj
 .text.restore_flash_data
                0x00027438       0x28 examples/dfu/CMakeFiles/dfu_no_serial_nrf52840_xxAA_s140_6.1.1.dir/__/__/mesh/access/src/access.c.obj
 .text.check_tx_params
                0x00027460       0x5c examples/dfu/CMakeFiles/dfu_no_serial_nrf52840_xxAA_s140_6.1.1.dir/__/__/mesh/access/src/access.c.obj
 .text.flash_invalidate_complete
                0x000274bc        0x6 examples/dfu/CMakeFiles/dfu_no_serial_nrf52840_xxAA_s140_6.1.1.dir/__/__/mesh/access/src/access.c.obj
 *fill*         0x000274c2        0x2 
 .text.access_flash_config_clear
                0x000274c4       0x3c examples/dfu/CMakeFiles/dfu_no_serial_nrf52840_xxAA_s140_6.1.1.dir/__/__/mesh/access/src/access.c.obj
 .text.access_state_clear
                0x00027500       0x4c examples/dfu/CMakeFiles/dfu_no_serial_nrf52840_xxAA_s140_6.1.1.dir/__/__/mesh/access/src/access.c.obj
 .text.packet_tx
                0x0002754c      0x204 examples/dfu/CMakeFiles/dfu_no_serial_nrf52840_xxAA_s140_6.1.1.dir/__/__/mesh/access/src/access.c.obj
 .text.flash_write_complete
                0x00027750       0x46 examples/dfu/CMakeFiles/dfu_no_serial_nrf52840_xxAA_s140_6.1.1.dir/__/__/mesh/access/src/access.c.obj
 *fill*         0x00027796        0x2 
 .text.access_flash_config_store
                0x00027798      0x164 examples/dfu/CMakeFiles/dfu_no_serial_nrf52840_xxAA_s140_6.1.1.dir/__/__/mesh/access/src/access.c.obj
                0x00027798                access_flash_config_store
 .text.bitfield_next_get.part.0.constprop.10
                0x000278fc       0x34 examples/dfu/CMakeFiles/dfu_no_serial_nrf52840_xxAA_s140_6.1.1.dir/__/__/mesh/access/src/access.c.obj
 .text.packet_alloc_and_tx
                0x00027930       0xbe examples/dfu/CMakeFiles/dfu_no_serial_nrf52840_xxAA_s140_6.1.1.dir/__/__/mesh/access/src/access.c.obj
 *fill*         0x000279ee        0x2 
 .text.restore_acquired_model
                0x000279f0       0x8c examples/dfu/CMakeFiles/dfu_no_serial_nrf52840_xxAA_s140_6.1.1.dir/__/__/mesh/access/src/access.c.obj
 .text.access_flash_config_load
                0x00027a7c      0x19c examples/dfu/CMakeFiles/dfu_no_serial_nrf52840_xxAA_s140_6.1.1.dir/__/__/mesh/access/src/access.c.obj
                0x00027a7c                access_flash_config_load
 .text.access_incoming_handle
                0x00027c18      0x1ac examples/dfu/CMakeFiles/dfu_no_serial_nrf52840_xxAA_s140_6.1.1.dir/__/__/mesh/access/src/access.c.obj
                0x00027c18                access_incoming_handle
 .text.mesh_msg_handle
                0x00027dc4      0x1cc examples/dfu/CMakeFiles/dfu_no_serial_nrf52840_xxAA_s140_6.1.1.dir/__/__/mesh/access/src/access.c.obj
 .text.mesh_evt_cb
                0x00027f90        0xc examples/dfu/CMakeFiles/dfu_no_serial_nrf52840_xxAA_s140_6.1.1.dir/__/__/mesh/access/src/access.c.obj
 .text.access_packet_tx
                0x00027f9c       0x32 examples/dfu/CMakeFiles/dfu_no_serial_nrf52840_xxAA_s140_6.1.1.dir/__/__/mesh/access/src/access.c.obj
                0x00027f9c                access_packet_tx
 .text.access_clear
                0x00027fce       0x12 examples/dfu/CMakeFiles/dfu_no_serial_nrf52840_xxAA_s140_6.1.1.dir/__/__/mesh/access/src/access.c.obj
                0x00027fce                access_clear
 .text.access_model_add
                0x00027fe0      0x1a4 examples/dfu/CMakeFiles/dfu_no_serial_nrf52840_xxAA_s140_6.1.1.dir/__/__/mesh/access/src/access.c.obj
                0x00027fe0                access_model_add
 .text.access_model_publish
                0x00028184       0x58 examples/dfu/CMakeFiles/dfu_no_serial_nrf52840_xxAA_s140_6.1.1.dir/__/__/mesh/access/src/access.c.obj
                0x00028184                access_model_publish
 .text.access_model_reply
                0x000281dc       0x1c examples/dfu/CMakeFiles/dfu_no_serial_nrf52840_xxAA_s140_6.1.1.dir/__/__/mesh/access/src/access.c.obj
                0x000281dc                access_model_reply
 .text.access_model_publish_address_set
                0x000281f8       0x3c examples/dfu/CMakeFiles/dfu_no_serial_nrf52840_xxAA_s140_6.1.1.dir/__/__/mesh/access/src/access.c.obj
                0x000281f8                access_model_publish_address_set
 .text.access_model_publish_address_get
                0x00028234       0x28 examples/dfu/CMakeFiles/dfu_no_serial_nrf52840_xxAA_s140_6.1.1.dir/__/__/mesh/access/src/access.c.obj
                0x00028234                access_model_publish_address_get
 .text.access_model_publish_retransmit_set
                0x0002825c       0x4c examples/dfu/CMakeFiles/dfu_no_serial_nrf52840_xxAA_s140_6.1.1.dir/__/__/mesh/access/src/access.c.obj
                0x0002825c                access_model_publish_retransmit_set
 .text.access_model_publish_retransmit_get
                0x000282a8       0x2c examples/dfu/CMakeFiles/dfu_no_serial_nrf52840_xxAA_s140_6.1.1.dir/__/__/mesh/access/src/access.c.obj
                0x000282a8                access_model_publish_retransmit_get
 .text.access_model_publish_period_get
                0x000282d4       0x40 examples/dfu/CMakeFiles/dfu_no_serial_nrf52840_xxAA_s140_6.1.1.dir/__/__/mesh/access/src/access.c.obj
                0x000282d4                access_model_publish_period_get
 .text.access_publish_timing_update
                0x00028314       0xc0 examples/dfu/CMakeFiles/dfu_no_serial_nrf52840_xxAA_s140_6.1.1.dir/__/__/mesh/access/src/access.c.obj
 .text.access_model_publish_period_divisor_set
                0x000283d4       0x38 examples/dfu/CMakeFiles/dfu_no_serial_nrf52840_xxAA_s140_6.1.1.dir/__/__/mesh/access/src/access.c.obj
                0x000283d4                access_model_publish_period_divisor_set
 .text.access_model_publish_period_set
                0x0002840c       0x6c examples/dfu/CMakeFiles/dfu_no_serial_nrf52840_xxAA_s140_6.1.1.dir/__/__/mesh/access/src/access.c.obj
                0x0002840c                access_model_publish_period_set
 .text.access_model_subscription_list_alloc
                0x00028478       0x5c examples/dfu/CMakeFiles/dfu_no_serial_nrf52840_xxAA_s140_6.1.1.dir/__/__/mesh/access/src/access.c.obj
                0x00028478                access_model_subscription_list_alloc
 .text.access_model_subscription_add
                0x000284d4       0x60 examples/dfu/CMakeFiles/dfu_no_serial_nrf52840_xxAA_s140_6.1.1.dir/__/__/mesh/access/src/access.c.obj
                0x000284d4                access_model_subscription_add
 .text.access_model_subscription_remove
                0x00028534       0x60 examples/dfu/CMakeFiles/dfu_no_serial_nrf52840_xxAA_s140_6.1.1.dir/__/__/mesh/access/src/access.c.obj
                0x00028534                access_model_subscription_remove
 .text.access_model_subscriptions_get
                0x00028594       0x78 examples/dfu/CMakeFiles/dfu_no_serial_nrf52840_xxAA_s140_6.1.1.dir/__/__/mesh/access/src/access.c.obj
                0x00028594                access_model_subscriptions_get
 .text.access_model_application_bind
                0x0002860c       0x50 examples/dfu/CMakeFiles/dfu_no_serial_nrf52840_xxAA_s140_6.1.1.dir/__/__/mesh/access/src/access.c.obj
                0x0002860c                access_model_application_bind
 .text.access_model_application_unbind
                0x0002865c       0x50 examples/dfu/CMakeFiles/dfu_no_serial_nrf52840_xxAA_s140_6.1.1.dir/__/__/mesh/access/src/access.c.obj
                0x0002865c                access_model_application_unbind
 .text.access_model_applications_get
                0x000286ac       0x5c examples/dfu/CMakeFiles/dfu_no_serial_nrf52840_xxAA_s140_6.1.1.dir/__/__/mesh/access/src/access.c.obj
                0x000286ac                access_model_applications_get
 .text.access_model_publish_application_set
                0x00028708       0x3c examples/dfu/CMakeFiles/dfu_no_serial_nrf52840_xxAA_s140_6.1.1.dir/__/__/mesh/access/src/access.c.obj
                0x00028708                access_model_publish_application_set
 .text.access_model_publish_application_get
                0x00028744       0x28 examples/dfu/CMakeFiles/dfu_no_serial_nrf52840_xxAA_s140_6.1.1.dir/__/__/mesh/access/src/access.c.obj
                0x00028744                access_model_publish_application_get
 .text.access_default_ttl_set
                0x0002876c       0x18 examples/dfu/CMakeFiles/dfu_no_serial_nrf52840_xxAA_s140_6.1.1.dir/__/__/mesh/access/src/access.c.obj
                0x0002876c                access_default_ttl_set
 .text.access_default_ttl_get
                0x00028784        0xc examples/dfu/CMakeFiles/dfu_no_serial_nrf52840_xxAA_s140_6.1.1.dir/__/__/mesh/access/src/access.c.obj
                0x00028784                access_default_ttl_get
 .text.access_model_publish_friendship_credential_flag_set
                0x00028790       0x38 examples/dfu/CMakeFiles/dfu_no_serial_nrf52840_xxAA_s140_6.1.1.dir/__/__/mesh/access/src/access.c.obj
                0x00028790                access_model_publish_friendship_credential_flag_set
 .text.access_model_publish_friendship_credential_flag_get
                0x000287c8       0x28 examples/dfu/CMakeFiles/dfu_no_serial_nrf52840_xxAA_s140_6.1.1.dir/__/__/mesh/access/src/access.c.obj
                0x000287c8                access_model_publish_friendship_credential_flag_get
 .text.access_model_publish_ttl_set
                0x000287f0       0x40 examples/dfu/CMakeFiles/dfu_no_serial_nrf52840_xxAA_s140_6.1.1.dir/__/__/mesh/access/src/access.c.obj
                0x000287f0                access_model_publish_ttl_set
 .text.access_model_publish_ttl_get
                0x00028830       0x28 examples/dfu/CMakeFiles/dfu_no_serial_nrf52840_xxAA_s140_6.1.1.dir/__/__/mesh/access/src/access.c.obj
                0x00028830                access_model_publish_ttl_get
 .text.access_element_location_get
                0x00028858       0x18 examples/dfu/CMakeFiles/dfu_no_serial_nrf52840_xxAA_s140_6.1.1.dir/__/__/mesh/access/src/access.c.obj
                0x00028858                access_element_location_get
 .text.access_element_sig_model_count_get
                0x00028870       0x18 examples/dfu/CMakeFiles/dfu_no_serial_nrf52840_xxAA_s140_6.1.1.dir/__/__/mesh/access/src/access.c.obj
                0x00028870                access_element_sig_model_count_get
 .text.access_element_vendor_model_count_get
                0x00028888       0x18 examples/dfu/CMakeFiles/dfu_no_serial_nrf52840_xxAA_s140_6.1.1.dir/__/__/mesh/access/src/access.c.obj
                0x00028888                access_element_vendor_model_count_get
 .text.access_model_id_get
                0x000288a0       0x2c examples/dfu/CMakeFiles/dfu_no_serial_nrf52840_xxAA_s140_6.1.1.dir/__/__/mesh/access/src/access.c.obj
                0x000288a0                access_model_id_get
 .text.access_handle_get
                0x000288cc       0x54 examples/dfu/CMakeFiles/dfu_no_serial_nrf52840_xxAA_s140_6.1.1.dir/__/__/mesh/access/src/access.c.obj
                0x000288cc                access_handle_get
 .text.access_element_models_get
                0x00028920       0x58 examples/dfu/CMakeFiles/dfu_no_serial_nrf52840_xxAA_s140_6.1.1.dir/__/__/mesh/access/src/access.c.obj
                0x00028920                access_element_models_get
 .text.access_model_p_args_get
                0x00028978       0x28 examples/dfu/CMakeFiles/dfu_no_serial_nrf52840_xxAA_s140_6.1.1.dir/__/__/mesh/access/src/access.c.obj
                0x00028978                access_model_p_args_get
 .text.access_model_publication_stop
                0x000289a0       0x58 examples/dfu/CMakeFiles/dfu_no_serial_nrf52840_xxAA_s140_6.1.1.dir/__/__/mesh/access/src/access.c.obj
                0x000289a0                access_model_publication_stop
 .text.access_model_publication_by_appkey_stop
                0x000289f8       0x4a examples/dfu/CMakeFiles/dfu_no_serial_nrf52840_xxAA_s140_6.1.1.dir/__/__/mesh/access/src/access.c.obj
                0x000289f8                access_model_publication_by_appkey_stop
 .text.access_flash_area_get
                0x00028a42        0xc examples/dfu/CMakeFiles/dfu_no_serial_nrf52840_xxAA_s140_6.1.1.dir/__/__/mesh/access/src/access.c.obj
                0x00028a42                access_flash_area_get
 *fill*         0x00028a4e        0x2 
 .text.add_flash_manager
                0x00028a50       0x54 examples/dfu/CMakeFiles/dfu_no_serial_nrf52840_xxAA_s140_6.1.1.dir/__/__/mesh/access/src/access.c.obj
 .text.access_init
                0x00028aa4       0x34 examples/dfu/CMakeFiles/dfu_no_serial_nrf52840_xxAA_s140_6.1.1.dir/__/__/mesh/access/src/access.c.obj
                0x00028aa4                access_init
 .text.flash_remove_complete
                0x00028ad8       0x5c examples/dfu/CMakeFiles/dfu_no_serial_nrf52840_xxAA_s140_6.1.1.dir/__/__/mesh/access/src/access.c.obj
 .text.reliable_timer_cb
                0x00028b34      0x18c examples/dfu/CMakeFiles/dfu_no_serial_nrf52840_xxAA_s140_6.1.1.dir/__/__/mesh/access/src/access_reliable.c.obj
 .text.remove_and_reschedule
                0x00028cc0       0xbc examples/dfu/CMakeFiles/dfu_no_serial_nrf52840_xxAA_s140_6.1.1.dir/__/__/mesh/access/src/access_reliable.c.obj
 .text.access_reliable_message_rx_cb
                0x00028d7c       0x68 examples/dfu/CMakeFiles/dfu_no_serial_nrf52840_xxAA_s140_6.1.1.dir/__/__/mesh/access/src/access_reliable.c.obj
                0x00028d7c                access_reliable_message_rx_cb
 .text.access_reliable_init
                0x00028de4       0x1c examples/dfu/CMakeFiles/dfu_no_serial_nrf52840_xxAA_s140_6.1.1.dir/__/__/mesh/access/src/access_reliable.c.obj
                0x00028de4                access_reliable_init
 .text.access_reliable_cancel_all
                0x00028e00       0x8c examples/dfu/CMakeFiles/dfu_no_serial_nrf52840_xxAA_s140_6.1.1.dir/__/__/mesh/access/src/access_reliable.c.obj
                0x00028e00                access_reliable_cancel_all
 .text.access_model_reliable_cancel
                0x00028e8c       0x6c examples/dfu/CMakeFiles/dfu_no_serial_nrf52840_xxAA_s140_6.1.1.dir/__/__/mesh/access/src/access_reliable.c.obj
                0x00028e8c                access_model_reliable_cancel
 .text.bitfield_get
                0x00028ef8       0x1a examples/dfu/CMakeFiles/dfu_no_serial_nrf52840_xxAA_s140_6.1.1.dir/__/__/mesh/access/src/device_state_manager.c.obj
 .text.bitfield_set
                0x00028f12       0x18 examples/dfu/CMakeFiles/dfu_no_serial_nrf52840_xxAA_s140_6.1.1.dir/__/__/mesh/access/src/device_state_manager.c.obj
 .text.bitfield_clear
                0x00028f2a       0x1a examples/dfu/CMakeFiles/dfu_no_serial_nrf52840_xxAA_s140_6.1.1.dir/__/__/mesh/access/src/device_state_manager.c.obj
 .text.bitfield_is_all_clear
                0x00028f44       0x38 examples/dfu/CMakeFiles/dfu_no_serial_nrf52840_xxAA_s140_6.1.1.dir/__/__/mesh/access/src/device_state_manager.c.obj
 .text.address_handle_virtual_valid
                0x00028f7c       0x18 examples/dfu/CMakeFiles/dfu_no_serial_nrf52840_xxAA_s140_6.1.1.dir/__/__/mesh/access/src/device_state_manager.c.obj
 .text.net_key_handle_get
                0x00028f94       0x54 examples/dfu/CMakeFiles/dfu_no_serial_nrf52840_xxAA_s140_6.1.1.dir/__/__/mesh/access/src/device_state_manager.c.obj
 .text.app_key_handle_get
                0x00028fe8       0x54 examples/dfu/CMakeFiles/dfu_no_serial_nrf52840_xxAA_s140_6.1.1.dir/__/__/mesh/access/src/device_state_manager.c.obj
 .text.addr_nonvirtual_to_flash_entry
                0x0002903c       0x10 examples/dfu/CMakeFiles/dfu_no_serial_nrf52840_xxAA_s140_6.1.1.dir/__/__/mesh/access/src/device_state_manager.c.obj
 .text.devkey_set
                0x0002904c       0x50 examples/dfu/CMakeFiles/dfu_no_serial_nrf52840_xxAA_s140_6.1.1.dir/__/__/mesh/access/src/device_state_manager.c.obj
 .text.devkey_to_dsm_entry
                0x0002909c       0x18 examples/dfu/CMakeFiles/dfu_no_serial_nrf52840_xxAA_s140_6.1.1.dir/__/__/mesh/access/src/device_state_manager.c.obj
 .text.devkey_to_flash_entry
                0x000290b4       0x28 examples/dfu/CMakeFiles/dfu_no_serial_nrf52840_xxAA_s140_6.1.1.dir/__/__/mesh/access/src/device_state_manager.c.obj
 .text.addr_virtual_to_flash_entry
                0x000290dc       0x18 examples/dfu/CMakeFiles/dfu_no_serial_nrf52840_xxAA_s140_6.1.1.dir/__/__/mesh/access/src/device_state_manager.c.obj
 .text.addr_unicast_to_dsm_entry
                0x000290f4        0xc examples/dfu/CMakeFiles/dfu_no_serial_nrf52840_xxAA_s140_6.1.1.dir/__/__/mesh/access/src/device_state_manager.c.obj
 .text.addr_unicast_to_flash_entry
                0x00029100       0x10 examples/dfu/CMakeFiles/dfu_no_serial_nrf52840_xxAA_s140_6.1.1.dir/__/__/mesh/access/src/device_state_manager.c.obj
 .text.flash_read_callback
                0x00029110       0xa8 examples/dfu/CMakeFiles/dfu_no_serial_nrf52840_xxAA_s140_6.1.1.dir/__/__/mesh/access/src/device_state_manager.c.obj
 .text.flash_mem_listener_callback
                0x000291b8       0x14 examples/dfu/CMakeFiles/dfu_no_serial_nrf52840_xxAA_s140_6.1.1.dir/__/__/mesh/access/src/device_state_manager.c.obj
 .text.get_subnet_handle
                0x000291cc       0x3c examples/dfu/CMakeFiles/dfu_no_serial_nrf52840_xxAA_s140_6.1.1.dir/__/__/mesh/access/src/device_state_manager.c.obj
 .text.appkey_set
                0x00029208       0x70 examples/dfu/CMakeFiles/dfu_no_serial_nrf52840_xxAA_s140_6.1.1.dir/__/__/mesh/access/src/device_state_manager.c.obj
 .text.appkey_to_flash_entry
                0x00029278       0x54 examples/dfu/CMakeFiles/dfu_no_serial_nrf52840_xxAA_s140_6.1.1.dir/__/__/mesh/access/src/device_state_manager.c.obj
 .text.subnet_to_flash_entry
                0x000292cc       0x60 examples/dfu/CMakeFiles/dfu_no_serial_nrf52840_xxAA_s140_6.1.1.dir/__/__/mesh/access/src/device_state_manager.c.obj
 .text.bitfield_clear_all
                0x0002932c        0xe examples/dfu/CMakeFiles/dfu_no_serial_nrf52840_xxAA_s140_6.1.1.dir/__/__/mesh/access/src/device_state_manager.c.obj
 *fill*         0x0002933a        0x2 
 .text.subnet_set
                0x0002933c       0x98 examples/dfu/CMakeFiles/dfu_no_serial_nrf52840_xxAA_s140_6.1.1.dir/__/__/mesh/access/src/device_state_manager.c.obj
 .text.virtual_address_set
                0x000293d4       0x4c examples/dfu/CMakeFiles/dfu_no_serial_nrf52840_xxAA_s140_6.1.1.dir/__/__/mesh/access/src/device_state_manager.c.obj
 .text.addr_virtual_to_dsm_entry
                0x00029420        0xe examples/dfu/CMakeFiles/dfu_no_serial_nrf52840_xxAA_s140_6.1.1.dir/__/__/mesh/access/src/device_state_manager.c.obj
 *fill*         0x0002942e        0x2 
 .text.reset_flash_area
                0x00029430       0x28 examples/dfu/CMakeFiles/dfu_no_serial_nrf52840_xxAA_s140_6.1.1.dir/__/__/mesh/access/src/device_state_manager.c.obj
 .text.flash_save
                0x00029458       0x7c examples/dfu/CMakeFiles/dfu_no_serial_nrf52840_xxAA_s140_6.1.1.dir/__/__/mesh/access/src/device_state_manager.c.obj
 .text.flash_invalidate
                0x000294d4       0x64 examples/dfu/CMakeFiles/dfu_no_serial_nrf52840_xxAA_s140_6.1.1.dir/__/__/mesh/access/src/device_state_manager.c.obj
 .text.flash_update_all
                0x00029538       0x6c examples/dfu/CMakeFiles/dfu_no_serial_nrf52840_xxAA_s140_6.1.1.dir/__/__/mesh/access/src/device_state_manager.c.obj
 .text.add_address
                0x000295a4      0x108 examples/dfu/CMakeFiles/dfu_no_serial_nrf52840_xxAA_s140_6.1.1.dir/__/__/mesh/access/src/device_state_manager.c.obj
 .text.virtual_address_uuid_index_get
                0x000296ac       0x60 examples/dfu/CMakeFiles/dfu_no_serial_nrf52840_xxAA_s140_6.1.1.dir/__/__/mesh/access/src/device_state_manager.c.obj
 .text.add_address_virtual
                0x0002970c       0x74 examples/dfu/CMakeFiles/dfu_no_serial_nrf52840_xxAA_s140_6.1.1.dir/__/__/mesh/access/src/device_state_manager.c.obj
 .text.get_subnet_handle_by_beacon_info
                0x00029780       0x30 examples/dfu/CMakeFiles/dfu_no_serial_nrf52840_xxAA_s140_6.1.1.dir/__/__/mesh/access/src/device_state_manager.c.obj
 .text.get_app_handle
                0x000297b0       0x44 examples/dfu/CMakeFiles/dfu_no_serial_nrf52840_xxAA_s140_6.1.1.dir/__/__/mesh/access/src/device_state_manager.c.obj
 .text.appkey_to_dsm_entry
                0x000297f4       0x68 examples/dfu/CMakeFiles/dfu_no_serial_nrf52840_xxAA_s140_6.1.1.dir/__/__/mesh/access/src/device_state_manager.c.obj
 .text.subnet_to_dsm_entry
                0x0002985c       0x68 examples/dfu/CMakeFiles/dfu_no_serial_nrf52840_xxAA_s140_6.1.1.dir/__/__/mesh/access/src/device_state_manager.c.obj
 .text.flash_operation_complete
                0x000298c4       0x4c examples/dfu/CMakeFiles/dfu_no_serial_nrf52840_xxAA_s140_6.1.1.dir/__/__/mesh/access/src/device_state_manager.c.obj
 .text.flash_invalidate_complete
                0x00029910        0x8 examples/dfu/CMakeFiles/dfu_no_serial_nrf52840_xxAA_s140_6.1.1.dir/__/__/mesh/access/src/device_state_manager.c.obj
 .text.flash_write_complete
                0x00029918        0x8 examples/dfu/CMakeFiles/dfu_no_serial_nrf52840_xxAA_s140_6.1.1.dir/__/__/mesh/access/src/device_state_manager.c.obj
 .text.bitfield_next_get.part.0.constprop.19
                0x00029920       0x3c examples/dfu/CMakeFiles/dfu_no_serial_nrf52840_xxAA_s140_6.1.1.dir/__/__/mesh/access/src/device_state_manager.c.obj
 .text.dev_key_handle_get
                0x0002995c       0x30 examples/dfu/CMakeFiles/dfu_no_serial_nrf52840_xxAA_s140_6.1.1.dir/__/__/mesh/access/src/device_state_manager.c.obj
 .text.address_handle_valid
                0x0002998c       0x28 examples/dfu/CMakeFiles/dfu_no_serial_nrf52840_xxAA_s140_6.1.1.dir/__/__/mesh/access/src/device_state_manager.c.obj
 .text.address_delete_if_unused
                0x000299b4       0x78 examples/dfu/CMakeFiles/dfu_no_serial_nrf52840_xxAA_s140_6.1.1.dir/__/__/mesh/access/src/device_state_manager.c.obj
 .text.addr_nonvirtual_to_dsm_entry
                0x00029a2c       0x34 examples/dfu/CMakeFiles/dfu_no_serial_nrf52840_xxAA_s140_6.1.1.dir/__/__/mesh/access/src/device_state_manager.c.obj
 .text.dsm_flash_config_load
                0x00029a60       0x7c examples/dfu/CMakeFiles/dfu_no_serial_nrf52840_xxAA_s140_6.1.1.dir/__/__/mesh/access/src/device_state_manager.c.obj
                0x00029a60                dsm_flash_config_load
 .text.dsm_flash_area_get
                0x00029adc        0xc examples/dfu/CMakeFiles/dfu_no_serial_nrf52840_xxAA_s140_6.1.1.dir/__/__/mesh/access/src/device_state_manager.c.obj
                0x00029adc                dsm_flash_area_get
 .text.build_flash_area
                0x00029ae8       0x98 examples/dfu/CMakeFiles/dfu_no_serial_nrf52840_xxAA_s140_6.1.1.dir/__/__/mesh/access/src/device_state_manager.c.obj
 .text.flash_remove_complete
                0x00029b80        0x4 examples/dfu/CMakeFiles/dfu_no_serial_nrf52840_xxAA_s140_6.1.1.dir/__/__/mesh/access/src/device_state_manager.c.obj
 .text.dsm_clear
                0x00029b84       0xb4 examples/dfu/CMakeFiles/dfu_no_serial_nrf52840_xxAA_s140_6.1.1.dir/__/__/mesh/access/src/device_state_manager.c.obj
                0x00029b84                dsm_clear
 .text.dsm_init
                0x00029c38       0x3c examples/dfu/CMakeFiles/dfu_no_serial_nrf52840_xxAA_s140_6.1.1.dir/__/__/mesh/access/src/device_state_manager.c.obj
                0x00029c38                dsm_init
 .text.dsm_local_unicast_addresses_set
                0x00029c74       0x78 examples/dfu/CMakeFiles/dfu_no_serial_nrf52840_xxAA_s140_6.1.1.dir/__/__/mesh/access/src/device_state_manager.c.obj
                0x00029c74                dsm_local_unicast_addresses_set
 .text.dsm_local_unicast_addresses_get
                0x00029cec       0x20 examples/dfu/CMakeFiles/dfu_no_serial_nrf52840_xxAA_s140_6.1.1.dir/__/__/mesh/access/src/device_state_manager.c.obj
                0x00029cec                dsm_local_unicast_addresses_get
 .text.dsm_address_publish_add
                0x00029d0c        0x6 examples/dfu/CMakeFiles/dfu_no_serial_nrf52840_xxAA_s140_6.1.1.dir/__/__/mesh/access/src/device_state_manager.c.obj
                0x00029d0c                dsm_address_publish_add
 *fill*         0x00029d12        0x2 
 .text.dsm_address_publish_add_handle
                0x00029d14       0x38 examples/dfu/CMakeFiles/dfu_no_serial_nrf52840_xxAA_s140_6.1.1.dir/__/__/mesh/access/src/device_state_manager.c.obj
                0x00029d14                dsm_address_publish_add_handle
 .text.dsm_address_publish_virtual_add
                0x00029d4c        0x6 examples/dfu/CMakeFiles/dfu_no_serial_nrf52840_xxAA_s140_6.1.1.dir/__/__/mesh/access/src/device_state_manager.c.obj
                0x00029d4c                dsm_address_publish_virtual_add
 *fill*         0x00029d52        0x2 
 .text.dsm_address_publish_remove
                0x00029d54       0x50 examples/dfu/CMakeFiles/dfu_no_serial_nrf52840_xxAA_s140_6.1.1.dir/__/__/mesh/access/src/device_state_manager.c.obj
                0x00029d54                dsm_address_publish_remove
 .text.dsm_address_subscription_add
                0x00029da4        0x6 examples/dfu/CMakeFiles/dfu_no_serial_nrf52840_xxAA_s140_6.1.1.dir/__/__/mesh/access/src/device_state_manager.c.obj
                0x00029da4                dsm_address_subscription_add
 .text.dsm_address_subscription_virtual_add
                0x00029daa        0x6 examples/dfu/CMakeFiles/dfu_no_serial_nrf52840_xxAA_s140_6.1.1.dir/__/__/mesh/access/src/device_state_manager.c.obj
                0x00029daa                dsm_address_subscription_virtual_add
 .text.dsm_address_subscription_add_handle
                0x00029db0       0x38 examples/dfu/CMakeFiles/dfu_no_serial_nrf52840_xxAA_s140_6.1.1.dir/__/__/mesh/access/src/device_state_manager.c.obj
                0x00029db0                dsm_address_subscription_add_handle
 .text.dsm_address_get
                0x00029de8       0x64 examples/dfu/CMakeFiles/dfu_no_serial_nrf52840_xxAA_s140_6.1.1.dir/__/__/mesh/access/src/device_state_manager.c.obj
                0x00029de8                dsm_address_get
 .text.dsm_address_subscription_remove
                0x00029e4c       0x5c examples/dfu/CMakeFiles/dfu_no_serial_nrf52840_xxAA_s140_6.1.1.dir/__/__/mesh/access/src/device_state_manager.c.obj
                0x00029e4c                dsm_address_subscription_remove
 .text.dsm_address_handle_get
                0x00029ea8       0x98 examples/dfu/CMakeFiles/dfu_no_serial_nrf52840_xxAA_s140_6.1.1.dir/__/__/mesh/access/src/device_state_manager.c.obj
                0x00029ea8                dsm_address_handle_get
 .text.dsm_net_key_index_to_subnet_handle
                0x00029f40       0x1c examples/dfu/CMakeFiles/dfu_no_serial_nrf52840_xxAA_s140_6.1.1.dir/__/__/mesh/access/src/device_state_manager.c.obj
                0x00029f40                dsm_net_key_index_to_subnet_handle
 .text.dsm_subnet_handle_get
                0x00029f5c        0xc examples/dfu/CMakeFiles/dfu_no_serial_nrf52840_xxAA_s140_6.1.1.dir/__/__/mesh/access/src/device_state_manager.c.obj
                0x00029f5c                dsm_subnet_handle_get
 .text.dsm_appkey_index_to_appkey_handle
                0x00029f68       0x1c examples/dfu/CMakeFiles/dfu_no_serial_nrf52840_xxAA_s140_6.1.1.dir/__/__/mesh/access/src/device_state_manager.c.obj
                0x00029f68                dsm_appkey_index_to_appkey_handle
 .text.dsm_appkey_handle_get
                0x00029f84        0xc examples/dfu/CMakeFiles/dfu_no_serial_nrf52840_xxAA_s140_6.1.1.dir/__/__/mesh/access/src/device_state_manager.c.obj
                0x00029f84                dsm_appkey_handle_get
 .text.dsm_appkey_handle_to_appkey_index
                0x00029f90       0x34 examples/dfu/CMakeFiles/dfu_no_serial_nrf52840_xxAA_s140_6.1.1.dir/__/__/mesh/access/src/device_state_manager.c.obj
                0x00029f90                dsm_appkey_handle_to_appkey_index
 .text.dsm_appkey_handle_to_subnet_handle
                0x00029fc4       0x9c examples/dfu/CMakeFiles/dfu_no_serial_nrf52840_xxAA_s140_6.1.1.dir/__/__/mesh/access/src/device_state_manager.c.obj
                0x00029fc4                dsm_appkey_handle_to_subnet_handle
 .text.dsm_subnet_add
                0x0002a060      0x11c examples/dfu/CMakeFiles/dfu_no_serial_nrf52840_xxAA_s140_6.1.1.dir/__/__/mesh/access/src/device_state_manager.c.obj
                0x0002a060                dsm_subnet_add
 .text.dsm_subnet_kr_phase_get
                0x0002a17c       0x34 examples/dfu/CMakeFiles/dfu_no_serial_nrf52840_xxAA_s140_6.1.1.dir/__/__/mesh/access/src/device_state_manager.c.obj
                0x0002a17c                dsm_subnet_kr_phase_get
 .text.dsm_subnet_update
                0x0002a1b0       0xc0 examples/dfu/CMakeFiles/dfu_no_serial_nrf52840_xxAA_s140_6.1.1.dir/__/__/mesh/access/src/device_state_manager.c.obj
                0x0002a1b0                dsm_subnet_update
 .text.dsm_subnet_update_swap_keys
                0x0002a270       0x5c examples/dfu/CMakeFiles/dfu_no_serial_nrf52840_xxAA_s140_6.1.1.dir/__/__/mesh/access/src/device_state_manager.c.obj
                0x0002a270                dsm_subnet_update_swap_keys
 .text.dsm_subnet_update_commit
                0x0002a2cc       0xf4 examples/dfu/CMakeFiles/dfu_no_serial_nrf52840_xxAA_s140_6.1.1.dir/__/__/mesh/access/src/device_state_manager.c.obj
                0x0002a2cc                dsm_subnet_update_commit
 .text.mesh_evt_handler
                0x0002a3c0       0x4c examples/dfu/CMakeFiles/dfu_no_serial_nrf52840_xxAA_s140_6.1.1.dir/__/__/mesh/access/src/device_state_manager.c.obj
 .text.dsm_subnet_get_all
                0x0002a40c       0x5c examples/dfu/CMakeFiles/dfu_no_serial_nrf52840_xxAA_s140_6.1.1.dir/__/__/mesh/access/src/device_state_manager.c.obj
                0x0002a40c                dsm_subnet_get_all
 .text.dsm_devkey_add
                0x0002a468      0x124 examples/dfu/CMakeFiles/dfu_no_serial_nrf52840_xxAA_s140_6.1.1.dir/__/__/mesh/access/src/device_state_manager.c.obj
                0x0002a468                dsm_devkey_add
 .text.dsm_appkey_add
                0x0002a58c      0x12c examples/dfu/CMakeFiles/dfu_no_serial_nrf52840_xxAA_s140_6.1.1.dir/__/__/mesh/access/src/device_state_manager.c.obj
                0x0002a58c                dsm_appkey_add
 .text.dsm_appkey_update
                0x0002a6b8       0xa4 examples/dfu/CMakeFiles/dfu_no_serial_nrf52840_xxAA_s140_6.1.1.dir/__/__/mesh/access/src/device_state_manager.c.obj
                0x0002a6b8                dsm_appkey_update
 .text.dsm_appkey_delete
                0x0002a75c       0x30 examples/dfu/CMakeFiles/dfu_no_serial_nrf52840_xxAA_s140_6.1.1.dir/__/__/mesh/access/src/device_state_manager.c.obj
                0x0002a75c                dsm_appkey_delete
 .text.dsm_subnet_delete
                0x0002a78c       0xa8 examples/dfu/CMakeFiles/dfu_no_serial_nrf52840_xxAA_s140_6.1.1.dir/__/__/mesh/access/src/device_state_manager.c.obj
                0x0002a78c                dsm_subnet_delete
 .text.dsm_appkey_get_all
                0x0002a834       0x80 examples/dfu/CMakeFiles/dfu_no_serial_nrf52840_xxAA_s140_6.1.1.dir/__/__/mesh/access/src/device_state_manager.c.obj
                0x0002a834                dsm_appkey_get_all
 .text.dsm_tx_secmat_get
                0x0002a8b4       0xc0 examples/dfu/CMakeFiles/dfu_no_serial_nrf52840_xxAA_s140_6.1.1.dir/__/__/mesh/access/src/device_state_manager.c.obj
                0x0002a8b4                dsm_tx_secmat_get
 .text.dsm_net_secmat_from_keyindex_get
                0x0002a974       0x3c examples/dfu/CMakeFiles/dfu_no_serial_nrf52840_xxAA_s140_6.1.1.dir/__/__/mesh/access/src/device_state_manager.c.obj
                0x0002a974                dsm_net_secmat_from_keyindex_get
 .text.nrf_mesh_net_secmat_next_get
                0x0002a9b0       0xa8 examples/dfu/CMakeFiles/dfu_no_serial_nrf52840_xxAA_s140_6.1.1.dir/__/__/mesh/access/src/device_state_manager.c.obj
                0x0002a9b0                nrf_mesh_net_secmat_next_get
 .text.nrf_mesh_app_secmat_next_get
                0x0002aa58       0x8c examples/dfu/CMakeFiles/dfu_no_serial_nrf52840_xxAA_s140_6.1.1.dir/__/__/mesh/access/src/device_state_manager.c.obj
                0x0002aa58                nrf_mesh_app_secmat_next_get
 .text.nrf_mesh_devkey_secmat_get
                0x0002aae4       0x28 examples/dfu/CMakeFiles/dfu_no_serial_nrf52840_xxAA_s140_6.1.1.dir/__/__/mesh/access/src/device_state_manager.c.obj
                0x0002aae4                nrf_mesh_devkey_secmat_get
 .text.nrf_mesh_beacon_info_next_get
                0x0002ab0c       0xd0 examples/dfu/CMakeFiles/dfu_no_serial_nrf52840_xxAA_s140_6.1.1.dir/__/__/mesh/access/src/device_state_manager.c.obj
                0x0002ab0c                nrf_mesh_beacon_info_next_get
 .text.nrf_mesh_rx_address_get
                0x0002abdc      0x158 examples/dfu/CMakeFiles/dfu_no_serial_nrf52840_xxAA_s140_6.1.1.dir/__/__/mesh/access/src/device_state_manager.c.obj
                0x0002abdc                nrf_mesh_rx_address_get
 .text.nrf_mesh_unicast_address_get
                0x0002ad34       0x20 examples/dfu/CMakeFiles/dfu_no_serial_nrf52840_xxAA_s140_6.1.1.dir/__/__/mesh/access/src/device_state_manager.c.obj
                0x0002ad34                nrf_mesh_unicast_address_get
 .text.nrf_mesh_is_address_rx
                0x0002ad54       0x48 examples/dfu/CMakeFiles/dfu_no_serial_nrf52840_xxAA_s140_6.1.1.dir/__/__/mesh/access/src/device_state_manager.c.obj
                0x0002ad54                nrf_mesh_is_address_rx
 .text.config_composition_data_get
                0x0002ad9c      0x166 examples/dfu/CMakeFiles/dfu_no_serial_nrf52840_xxAA_s140_6.1.1.dir/__/__/models/foundation/config/src/composition_data.c.obj
                0x0002ad9c                config_composition_data_get
 *fill*         0x0002af02        0x2 
 .text.app_evt_send
                0x0002af04       0x10 examples/dfu/CMakeFiles/dfu_no_serial_nrf52840_xxAA_s140_6.1.1.dir/__/__/models/foundation/config/src/config_server.c.obj
 .text.get_element_index
                0x0002af14       0x1c examples/dfu/CMakeFiles/dfu_no_serial_nrf52840_xxAA_s140_6.1.1.dir/__/__/models/foundation/config/src/config_server.c.obj
 .text.config_server_heartbeat_publication_params_get
                0x0002af30       0x30 examples/dfu/CMakeFiles/dfu_no_serial_nrf52840_xxAA_s140_6.1.1.dir/__/__/models/foundation/config/src/config_server.c.obj
 .text.send_reply
                0x0002af60       0x34 examples/dfu/CMakeFiles/dfu_no_serial_nrf52840_xxAA_s140_6.1.1.dir/__/__/models/foundation/config/src/config_server.c.obj
 .text.send_network_transmit_status
                0x0002af94       0x5a examples/dfu/CMakeFiles/dfu_no_serial_nrf52840_xxAA_s140_6.1.1.dir/__/__/models/foundation/config/src/config_server.c.obj
 .text.handle_config_network_transmit_set
                0x0002afee       0x74 examples/dfu/CMakeFiles/dfu_no_serial_nrf52840_xxAA_s140_6.1.1.dir/__/__/models/foundation/config/src/config_server.c.obj
 .text.handle_config_network_transmit_get
                0x0002b062        0xa examples/dfu/CMakeFiles/dfu_no_serial_nrf52840_xxAA_s140_6.1.1.dir/__/__/models/foundation/config/src/config_server.c.obj
 .text.handle_node_reset
                0x0002b06c       0x34 examples/dfu/CMakeFiles/dfu_no_serial_nrf52840_xxAA_s140_6.1.1.dir/__/__/models/foundation/config/src/config_server.c.obj
 .text.handle_node_identity_set
                0x0002b0a0       0x44 examples/dfu/CMakeFiles/dfu_no_serial_nrf52840_xxAA_s140_6.1.1.dir/__/__/models/foundation/config/src/config_server.c.obj
 .text.send_netkey_status
                0x0002b0e4       0x2c examples/dfu/CMakeFiles/dfu_no_serial_nrf52840_xxAA_s140_6.1.1.dir/__/__/models/foundation/config/src/config_server.c.obj
 .text.send_relay_status
                0x0002b110       0x7e examples/dfu/CMakeFiles/dfu_no_serial_nrf52840_xxAA_s140_6.1.1.dir/__/__/models/foundation/config/src/config_server.c.obj
 .text.handle_config_relay_set
                0x0002b18e       0x9a examples/dfu/CMakeFiles/dfu_no_serial_nrf52840_xxAA_s140_6.1.1.dir/__/__/models/foundation/config/src/config_server.c.obj
 .text.handle_config_relay_get
                0x0002b228        0xa examples/dfu/CMakeFiles/dfu_no_serial_nrf52840_xxAA_s140_6.1.1.dir/__/__/models/foundation/config/src/config_server.c.obj
 .text.send_subscription_status
                0x0002b232       0x42 examples/dfu/CMakeFiles/dfu_no_serial_nrf52840_xxAA_s140_6.1.1.dir/__/__/models/foundation/config/src/config_server.c.obj
 .text.send_appkey_status
                0x0002b274       0x3a examples/dfu/CMakeFiles/dfu_no_serial_nrf52840_xxAA_s140_6.1.1.dir/__/__/models/foundation/config/src/config_server.c.obj
 .text.handle_netkey_delete
                0x0002b2ae       0xbc examples/dfu/CMakeFiles/dfu_no_serial_nrf52840_xxAA_s140_6.1.1.dir/__/__/models/foundation/config/src/config_server.c.obj
 *fill*         0x0002b36a        0x2 
 .text.handle_netkey_add_update
                0x0002b36c       0x78 examples/dfu/CMakeFiles/dfu_no_serial_nrf52840_xxAA_s140_6.1.1.dir/__/__/models/foundation/config/src/config_server.c.obj
 .text.status_error_sub_send
                0x0002b3e4      0x124 examples/dfu/CMakeFiles/dfu_no_serial_nrf52840_xxAA_s140_6.1.1.dir/__/__/models/foundation/config/src/config_server.c.obj
 .text.delete_all_subscriptions
                0x0002b508       0x66 examples/dfu/CMakeFiles/dfu_no_serial_nrf52840_xxAA_s140_6.1.1.dir/__/__/models/foundation/config/src/config_server.c.obj
 .text.send_publication_status
                0x0002b56e      0x188 examples/dfu/CMakeFiles/dfu_no_serial_nrf52840_xxAA_s140_6.1.1.dir/__/__/models/foundation/config/src/config_server.c.obj
 .text.handle_config_key_refresh_phase_set
                0x0002b6f6       0xc8 examples/dfu/CMakeFiles/dfu_no_serial_nrf52840_xxAA_s140_6.1.1.dir/__/__/models/foundation/config/src/config_server.c.obj
 .text.handle_config_default_ttl_set
                0x0002b7be       0x50 examples/dfu/CMakeFiles/dfu_no_serial_nrf52840_xxAA_s140_6.1.1.dir/__/__/models/foundation/config/src/config_server.c.obj
 .text.send_net_beacon_state
                0x0002b80e       0x2c examples/dfu/CMakeFiles/dfu_no_serial_nrf52840_xxAA_s140_6.1.1.dir/__/__/models/foundation/config/src/config_server.c.obj
 .text.handle_config_beacon_get
                0x0002b83a        0xa examples/dfu/CMakeFiles/dfu_no_serial_nrf52840_xxAA_s140_6.1.1.dir/__/__/models/foundation/config/src/config_server.c.obj
 .text.handle_heartbeat_publication_set
                0x0002b844       0xea examples/dfu/CMakeFiles/dfu_no_serial_nrf52840_xxAA_s140_6.1.1.dir/__/__/models/foundation/config/src/config_server.c.obj
 *fill*         0x0002b92e        0x2 
 .text.mesh_event_cb
                0x0002b930       0x70 examples/dfu/CMakeFiles/dfu_no_serial_nrf52840_xxAA_s140_6.1.1.dir/__/__/models/foundation/config/src/config_server.c.obj
 .text.handle_node_identity_get
                0x0002b9a0       0x3c examples/dfu/CMakeFiles/dfu_no_serial_nrf52840_xxAA_s140_6.1.1.dir/__/__/models/foundation/config/src/config_server.c.obj
 .text.handle_config_gatt_proxy_set.part.6
                0x0002b9dc       0x2a examples/dfu/CMakeFiles/dfu_no_serial_nrf52840_xxAA_s140_6.1.1.dir/__/__/models/foundation/config/src/config_server.c.obj
 .text.handle_config_gatt_proxy_set
                0x0002ba06       0x14 examples/dfu/CMakeFiles/dfu_no_serial_nrf52840_xxAA_s140_6.1.1.dir/__/__/models/foundation/config/src/config_server.c.obj
 .text.handle_config_gatt_proxy_get
                0x0002ba1a        0xa examples/dfu/CMakeFiles/dfu_no_serial_nrf52840_xxAA_s140_6.1.1.dir/__/__/models/foundation/config/src/config_server.c.obj
 .text.handle_config_friend_set.part.8
                0x0002ba24       0x2a examples/dfu/CMakeFiles/dfu_no_serial_nrf52840_xxAA_s140_6.1.1.dir/__/__/models/foundation/config/src/config_server.c.obj
 .text.handle_config_friend_set
                0x0002ba4e       0x14 examples/dfu/CMakeFiles/dfu_no_serial_nrf52840_xxAA_s140_6.1.1.dir/__/__/models/foundation/config/src/config_server.c.obj
 .text.handle_config_friend_get
                0x0002ba62        0xa examples/dfu/CMakeFiles/dfu_no_serial_nrf52840_xxAA_s140_6.1.1.dir/__/__/models/foundation/config/src/config_server.c.obj
 .text.handle_netkey_get
                0x0002ba6c       0x50 examples/dfu/CMakeFiles/dfu_no_serial_nrf52840_xxAA_s140_6.1.1.dir/__/__/models/foundation/config/src/config_server.c.obj
 .text.handle_appkey_get
                0x0002babc       0x82 examples/dfu/CMakeFiles/dfu_no_serial_nrf52840_xxAA_s140_6.1.1.dir/__/__/models/foundation/config/src/config_server.c.obj
 .text.status_error_pub_send
                0x0002bb3e       0x90 examples/dfu/CMakeFiles/dfu_no_serial_nrf52840_xxAA_s140_6.1.1.dir/__/__/models/foundation/config/src/config_server.c.obj
 .text.handle_config_key_refresh_phase_get
                0x0002bbce       0x58 examples/dfu/CMakeFiles/dfu_no_serial_nrf52840_xxAA_s140_6.1.1.dir/__/__/models/foundation/config/src/config_server.c.obj
 .text.handle_config_default_ttl_get
                0x0002bc26       0x30 examples/dfu/CMakeFiles/dfu_no_serial_nrf52840_xxAA_s140_6.1.1.dir/__/__/models/foundation/config/src/config_server.c.obj
 .text.handle_config_beacon_set
                0x0002bc56       0x42 examples/dfu/CMakeFiles/dfu_no_serial_nrf52840_xxAA_s140_6.1.1.dir/__/__/models/foundation/config/src/config_server.c.obj
 .text.handle_composition_data_get
                0x0002bc98       0x44 examples/dfu/CMakeFiles/dfu_no_serial_nrf52840_xxAA_s140_6.1.1.dir/__/__/models/foundation/config/src/config_server.c.obj
 .text.handle_appkey_add
                0x0002bcdc      0x140 examples/dfu/CMakeFiles/dfu_no_serial_nrf52840_xxAA_s140_6.1.1.dir/__/__/models/foundation/config/src/config_server.c.obj
 .text.get_subscription_list.constprop.24
                0x0002be1c       0x4e examples/dfu/CMakeFiles/dfu_no_serial_nrf52840_xxAA_s140_6.1.1.dir/__/__/models/foundation/config/src/config_server.c.obj
 .text.handle_config_sig_model_subscription_get
                0x0002be6a       0xa2 examples/dfu/CMakeFiles/dfu_no_serial_nrf52840_xxAA_s140_6.1.1.dir/__/__/models/foundation/config/src/config_server.c.obj
 .text.heartbeat_subscription_count_encode
                0x0002bf0c       0x32 examples/dfu/CMakeFiles/dfu_no_serial_nrf52840_xxAA_s140_6.1.1.dir/__/__/models/foundation/config/src/config_server.c.obj
 .text.heartbeat_pubsub_period_encode
                0x0002bf3e       0x26 examples/dfu/CMakeFiles/dfu_no_serial_nrf52840_xxAA_s140_6.1.1.dir/__/__/models/foundation/config/src/config_server.c.obj
 .text.handle_heartbeat_publication_get
                0x0002bf64       0x8a examples/dfu/CMakeFiles/dfu_no_serial_nrf52840_xxAA_s140_6.1.1.dir/__/__/models/foundation/config/src/config_server.c.obj
 .text.handle_heartbeat_subscription_get
                0x0002bfee       0x84 examples/dfu/CMakeFiles/dfu_no_serial_nrf52840_xxAA_s140_6.1.1.dir/__/__/models/foundation/config/src/config_server.c.obj
 .text.handle_appkey_update
                0x0002c072       0xbc examples/dfu/CMakeFiles/dfu_no_serial_nrf52840_xxAA_s140_6.1.1.dir/__/__/models/foundation/config/src/config_server.c.obj
 .text.handle_appkey_delete
                0x0002c12e       0xc2 examples/dfu/CMakeFiles/dfu_no_serial_nrf52840_xxAA_s140_6.1.1.dir/__/__/models/foundation/config/src/config_server.c.obj
 .text.handle_heartbeat_subscription_set
                0x0002c1f0       0xa8 examples/dfu/CMakeFiles/dfu_no_serial_nrf52840_xxAA_s140_6.1.1.dir/__/__/models/foundation/config/src/config_server.c.obj
 .text.handle_config_model_publication_get
                0x0002c298       0x8c examples/dfu/CMakeFiles/dfu_no_serial_nrf52840_xxAA_s140_6.1.1.dir/__/__/models/foundation/config/src/config_server.c.obj
 .text.handle_config_model_subscription_delete_all
                0x0002c324       0xc2 examples/dfu/CMakeFiles/dfu_no_serial_nrf52840_xxAA_s140_6.1.1.dir/__/__/models/foundation/config/src/config_server.c.obj
 .text.handle_config_model_subscription_virtual_address_delete
                0x0002c3e6      0x108 examples/dfu/CMakeFiles/dfu_no_serial_nrf52840_xxAA_s140_6.1.1.dir/__/__/models/foundation/config/src/config_server.c.obj
 .text.handle_config_model_subscription_virtual_address_add
                0x0002c4ee      0x106 examples/dfu/CMakeFiles/dfu_no_serial_nrf52840_xxAA_s140_6.1.1.dir/__/__/models/foundation/config/src/config_server.c.obj
 .text.handle_config_model_subscription_delete
                0x0002c5f4      0x10e examples/dfu/CMakeFiles/dfu_no_serial_nrf52840_xxAA_s140_6.1.1.dir/__/__/models/foundation/config/src/config_server.c.obj
 .text.handle_config_model_subscription_add
                0x0002c702      0x112 examples/dfu/CMakeFiles/dfu_no_serial_nrf52840_xxAA_s140_6.1.1.dir/__/__/models/foundation/config/src/config_server.c.obj
 .text.handle_config_model_subscription_virtual_address_overwrite
                0x0002c814      0x120 examples/dfu/CMakeFiles/dfu_no_serial_nrf52840_xxAA_s140_6.1.1.dir/__/__/models/foundation/config/src/config_server.c.obj
 .text.handle_model_app_get
                0x0002c934      0x19c examples/dfu/CMakeFiles/dfu_no_serial_nrf52840_xxAA_s140_6.1.1.dir/__/__/models/foundation/config/src/config_server.c.obj
 .text.handle_config_model_subscription_overwrite
                0x0002cad0      0x11a examples/dfu/CMakeFiles/dfu_no_serial_nrf52840_xxAA_s140_6.1.1.dir/__/__/models/foundation/config/src/config_server.c.obj
 .text.handle_config_vendor_model_subscription_get
                0x0002cbea       0xde examples/dfu/CMakeFiles/dfu_no_serial_nrf52840_xxAA_s140_6.1.1.dir/__/__/models/foundation/config/src/config_server.c.obj
 .text.handle_model_app_bind_unbind
                0x0002ccc8      0x1ec examples/dfu/CMakeFiles/dfu_no_serial_nrf52840_xxAA_s140_6.1.1.dir/__/__/models/foundation/config/src/config_server.c.obj
 .text.handle_config_model_publication_set
                0x0002ceb4      0x2d6 examples/dfu/CMakeFiles/dfu_no_serial_nrf52840_xxAA_s140_6.1.1.dir/__/__/models/foundation/config/src/config_server.c.obj
 *fill*         0x0002d18a        0x2 
 .text.config_server_init
                0x0002d18c       0x60 examples/dfu/CMakeFiles/dfu_no_serial_nrf52840_xxAA_s140_6.1.1.dir/__/__/models/foundation/config/src/config_server.c.obj
                0x0002d18c                config_server_init
 .text.config_server_bind
                0x0002d1ec       0x10 examples/dfu/CMakeFiles/dfu_no_serial_nrf52840_xxAA_s140_6.1.1.dir/__/__/models/foundation/config/src/config_server.c.obj
                0x0002d1ec                config_server_bind
 .text.packed_index_list_create
                0x0002d1fc       0x32 examples/dfu/CMakeFiles/dfu_no_serial_nrf52840_xxAA_s140_6.1.1.dir/__/__/models/foundation/config/src/packed_index_list.c.obj
                0x0002d1fc                packed_index_list_create
 *fill*         0x0002d22e        0x2 
 .text.health_server_fpd_get
                0x0002d230       0x20 examples/dfu/CMakeFiles/dfu_no_serial_nrf52840_xxAA_s140_6.1.1.dir/__/__/models/foundation/health/src/health_server.c.obj
 .text.health_server_fpd_delete
                0x0002d250       0x20 examples/dfu/CMakeFiles/dfu_no_serial_nrf52840_xxAA_s140_6.1.1.dir/__/__/models/foundation/health/src/health_server.c.obj
 .text.attention_timer_handler
                0x0002d270       0x5c examples/dfu/CMakeFiles/dfu_no_serial_nrf52840_xxAA_s140_6.1.1.dir/__/__/models/foundation/health/src/health_server.c.obj
 .text.send_attention_status
                0x0002d2cc       0x44 examples/dfu/CMakeFiles/dfu_no_serial_nrf52840_xxAA_s140_6.1.1.dir/__/__/models/foundation/health/src/health_server.c.obj
 .text.handle_attention_get
                0x0002d310        0xc examples/dfu/CMakeFiles/dfu_no_serial_nrf52840_xxAA_s140_6.1.1.dir/__/__/models/foundation/health/src/health_server.c.obj
 .text.send_period_status
                0x0002d31c       0x40 examples/dfu/CMakeFiles/dfu_no_serial_nrf52840_xxAA_s140_6.1.1.dir/__/__/models/foundation/health/src/health_server.c.obj
 .text.handle_period_get
                0x0002d35c        0xc examples/dfu/CMakeFiles/dfu_no_serial_nrf52840_xxAA_s140_6.1.1.dir/__/__/models/foundation/health/src/health_server.c.obj
 .text.attention_timer_set.part.1
                0x0002d368       0x84 examples/dfu/CMakeFiles/dfu_no_serial_nrf52840_xxAA_s140_6.1.1.dir/__/__/models/foundation/health/src/health_server.c.obj
 .text.handle_attention_set
                0x0002d3ec       0x32 examples/dfu/CMakeFiles/dfu_no_serial_nrf52840_xxAA_s140_6.1.1.dir/__/__/models/foundation/health/src/health_server.c.obj
 *fill*         0x0002d41e        0x2 
 .text.handle_period_set
                0x0002d420       0x4c examples/dfu/CMakeFiles/dfu_no_serial_nrf52840_xxAA_s140_6.1.1.dir/__/__/models/foundation/health/src/health_server.c.obj
 .text.bitfield_next_get.part.0.constprop.10
                0x0002d46c       0x44 examples/dfu/CMakeFiles/dfu_no_serial_nrf52840_xxAA_s140_6.1.1.dir/__/__/models/foundation/health/src/health_server.c.obj
 .text.send_fault_status
                0x0002d4b0       0x8c examples/dfu/CMakeFiles/dfu_no_serial_nrf52840_xxAA_s140_6.1.1.dir/__/__/models/foundation/health/src/health_server.c.obj
 .text.health_publish_timeout_handler
                0x0002d53c        0xa examples/dfu/CMakeFiles/dfu_no_serial_nrf52840_xxAA_s140_6.1.1.dir/__/__/models/foundation/health/src/health_server.c.obj
 .text.handle_fault_test
                0x0002d546       0x66 examples/dfu/CMakeFiles/dfu_no_serial_nrf52840_xxAA_s140_6.1.1.dir/__/__/models/foundation/health/src/health_server.c.obj
 .text.handle_fault_get
                0x0002d5ac       0x32 examples/dfu/CMakeFiles/dfu_no_serial_nrf52840_xxAA_s140_6.1.1.dir/__/__/models/foundation/health/src/health_server.c.obj
 .text.handle_fault_clear
                0x0002d5de       0x48 examples/dfu/CMakeFiles/dfu_no_serial_nrf52840_xxAA_s140_6.1.1.dir/__/__/models/foundation/health/src/health_server.c.obj
 .text.health_server_fault_count_get
                0x0002d626       0x2c examples/dfu/CMakeFiles/dfu_no_serial_nrf52840_xxAA_s140_6.1.1.dir/__/__/models/foundation/health/src/health_server.c.obj
                0x0002d626                health_server_fault_count_get
 *fill*         0x0002d652        0x2 
 .text.health_server_fpd_set
                0x0002d654       0x44 examples/dfu/CMakeFiles/dfu_no_serial_nrf52840_xxAA_s140_6.1.1.dir/__/__/models/foundation/health/src/health_server.c.obj
 .text.health_server_init
                0x0002d698       0x78 examples/dfu/CMakeFiles/dfu_no_serial_nrf52840_xxAA_s140_6.1.1.dir/__/__/models/foundation/health/src/health_server.c.obj
                0x0002d698                health_server_init
 .text.complete_provisioning
                0x0002d710       0x24 examples/dfu/CMakeFiles/dfu_no_serial_nrf52840_xxAA_s140_6.1.1.dir/__/__/mesh/prov/src/prov_provisionee.c.obj
 .text.prov_provisionee_cb_link_established
                0x0002d734       0x36 examples/dfu/CMakeFiles/dfu_no_serial_nrf52840_xxAA_s140_6.1.1.dir/__/__/mesh/prov/src/prov_provisionee.c.obj
 .text.prov_provisionee_cb_link_closed
                0x0002d76a       0x34 examples/dfu/CMakeFiles/dfu_no_serial_nrf52840_xxAA_s140_6.1.1.dir/__/__/mesh/prov/src/prov_provisionee.c.obj
 .text.request_authentication
                0x0002d79e       0x8a examples/dfu/CMakeFiles/dfu_no_serial_nrf52840_xxAA_s140_6.1.1.dir/__/__/mesh/prov/src/prov_provisionee.c.obj
 .text.send_failed
                0x0002d828       0x42 examples/dfu/CMakeFiles/dfu_no_serial_nrf52840_xxAA_s140_6.1.1.dir/__/__/mesh/prov/src/prov_provisionee.c.obj
 .text.start_authentication
                0x0002d86a       0x52 examples/dfu/CMakeFiles/dfu_no_serial_nrf52840_xxAA_s140_6.1.1.dir/__/__/mesh/prov/src/prov_provisionee.c.obj
 .text.prov_provisionee_cb_ack_received
                0x0002d8bc      0x108 examples/dfu/CMakeFiles/dfu_no_serial_nrf52840_xxAA_s140_6.1.1.dir/__/__/mesh/prov/src/prov_provisionee.c.obj
 .text.prov_provisionee_pkt_in
                0x0002d9c4      0x390 examples/dfu/CMakeFiles/dfu_no_serial_nrf52840_xxAA_s140_6.1.1.dir/__/__/mesh/prov/src/prov_provisionee.c.obj
 .text.prov_provisionee_listen
                0x0002dd54       0x30 examples/dfu/CMakeFiles/dfu_no_serial_nrf52840_xxAA_s140_6.1.1.dir/__/__/mesh/prov/src/prov_provisionee.c.obj
                0x0002dd54                prov_provisionee_listen
 .text.prov_provisionee_auth_data
                0x0002dd84       0x48 examples/dfu/CMakeFiles/dfu_no_serial_nrf52840_xxAA_s140_6.1.1.dir/__/__/mesh/prov/src/prov_provisionee.c.obj
                0x0002dd84                prov_provisionee_auth_data
 .text.bearer_compare_callback
                0x0002ddcc        0xc examples/dfu/CMakeFiles/dfu_no_serial_nrf52840_xxAA_s140_6.1.1.dir/__/__/mesh/prov/src/nrf_mesh_prov.c.obj
 .text.utils_reverse_array.constprop.2
                0x0002ddd8       0x1c examples/dfu/CMakeFiles/dfu_no_serial_nrf52840_xxAA_s140_6.1.1.dir/__/__/mesh/prov/src/nrf_mesh_prov.c.obj
 .text.bitfield_next_get.part.0.constprop.5
                0x0002ddf4       0x34 examples/dfu/CMakeFiles/dfu_no_serial_nrf52840_xxAA_s140_6.1.1.dir/__/__/mesh/prov/src/nrf_mesh_prov.c.obj
 .text.nrf_mesh_prov_init
                0x0002de28       0x32 examples/dfu/CMakeFiles/dfu_no_serial_nrf52840_xxAA_s140_6.1.1.dir/__/__/mesh/prov/src/nrf_mesh_prov.c.obj
                0x0002de28                nrf_mesh_prov_init
 *fill*         0x0002de5a        0x2 
 .text.nrf_mesh_prov_bearer_add
                0x0002de5c       0x28 examples/dfu/CMakeFiles/dfu_no_serial_nrf52840_xxAA_s140_6.1.1.dir/__/__/mesh/prov/src/nrf_mesh_prov.c.obj
                0x0002de5c                nrf_mesh_prov_bearer_add
 .text.nrf_mesh_prov_generate_keys
                0x0002de84        0x4 examples/dfu/CMakeFiles/dfu_no_serial_nrf52840_xxAA_s140_6.1.1.dir/__/__/mesh/prov/src/nrf_mesh_prov.c.obj
                0x0002de84                nrf_mesh_prov_generate_keys
 .text.nrf_mesh_prov_listen_stop
                0x0002de88       0x2e examples/dfu/CMakeFiles/dfu_no_serial_nrf52840_xxAA_s140_6.1.1.dir/__/__/mesh/prov/src/nrf_mesh_prov.c.obj
                0x0002de88                nrf_mesh_prov_listen_stop
 .text.nrf_mesh_prov_listen
                0x0002deb6       0x8a examples/dfu/CMakeFiles/dfu_no_serial_nrf52840_xxAA_s140_6.1.1.dir/__/__/mesh/prov/src/nrf_mesh_prov.c.obj
                0x0002deb6                nrf_mesh_prov_listen
 .text.nrf_mesh_prov_auth_data_provide
                0x0002df40       0xf4 examples/dfu/CMakeFiles/dfu_no_serial_nrf52840_xxAA_s140_6.1.1.dir/__/__/mesh/prov/src/nrf_mesh_prov.c.obj
                0x0002df40                nrf_mesh_prov_auth_data_provide
 .text.send_data
                0x0002e034       0x28 examples/dfu/CMakeFiles/dfu_no_serial_nrf52840_xxAA_s140_6.1.1.dir/__/__/mesh/prov/src/provisioning.c.obj
 .text.prov_packet_length_valid
                0x0002e05c       0x1c examples/dfu/CMakeFiles/dfu_no_serial_nrf52840_xxAA_s140_6.1.1.dir/__/__/mesh/prov/src/provisioning.c.obj
                0x0002e05c                prov_packet_length_valid
 .text.prov_tx_capabilities
                0x0002e078       0x1e examples/dfu/CMakeFiles/dfu_no_serial_nrf52840_xxAA_s140_6.1.1.dir/__/__/mesh/prov/src/provisioning.c.obj
                0x0002e078                prov_tx_capabilities
 .text.prov_tx_public_key
                0x0002e096       0x26 examples/dfu/CMakeFiles/dfu_no_serial_nrf52840_xxAA_s140_6.1.1.dir/__/__/mesh/prov/src/provisioning.c.obj
                0x0002e096                prov_tx_public_key
 .text.prov_tx_input_complete
                0x0002e0bc       0x16 examples/dfu/CMakeFiles/dfu_no_serial_nrf52840_xxAA_s140_6.1.1.dir/__/__/mesh/prov/src/provisioning.c.obj
                0x0002e0bc                prov_tx_input_complete
 .text.prov_tx_confirmation
                0x0002e0d2       0x26 examples/dfu/CMakeFiles/dfu_no_serial_nrf52840_xxAA_s140_6.1.1.dir/__/__/mesh/prov/src/provisioning.c.obj
                0x0002e0d2                prov_tx_confirmation
 .text.prov_tx_random
                0x0002e0f8       0x26 examples/dfu/CMakeFiles/dfu_no_serial_nrf52840_xxAA_s140_6.1.1.dir/__/__/mesh/prov/src/provisioning.c.obj
                0x0002e0f8                prov_tx_random
 .text.prov_tx_complete
                0x0002e11e       0x16 examples/dfu/CMakeFiles/dfu_no_serial_nrf52840_xxAA_s140_6.1.1.dir/__/__/mesh/prov/src/provisioning.c.obj
                0x0002e11e                prov_tx_complete
 .text.prov_tx_failed
                0x0002e134       0x1a examples/dfu/CMakeFiles/dfu_no_serial_nrf52840_xxAA_s140_6.1.1.dir/__/__/mesh/prov/src/provisioning.c.obj
                0x0002e134                prov_tx_failed
 .text.prov_beacon_unprov_build
                0x0002e14e       0x54 examples/dfu/CMakeFiles/dfu_no_serial_nrf52840_xxAA_s140_6.1.1.dir/__/__/mesh/prov/src/prov_beacon.c.obj
                0x0002e14e                prov_beacon_unprov_build
 *fill*         0x0002e1a2        0x2 
 .text.prov_beacon_unprov_packet_in
                0x0002e1a4       0x88 examples/dfu/CMakeFiles/dfu_no_serial_nrf52840_xxAA_s140_6.1.1.dir/__/__/mesh/prov/src/prov_beacon.c.obj
                0x0002e1a4                prov_beacon_unprov_packet_in
 .text.ecdh_setter
                0x0002e22c       0x14 examples/dfu/CMakeFiles/dfu_no_serial_nrf52840_xxAA_s140_6.1.1.dir/__/__/mesh/prov/src/prov_utils.c.obj
 .text.ecdh_getter
                0x0002e240       0x10 examples/dfu/CMakeFiles/dfu_no_serial_nrf52840_xxAA_s140_6.1.1.dir/__/__/mesh/prov/src/prov_utils.c.obj
 .text.ecdh_deleter
                0x0002e250       0x10 examples/dfu/CMakeFiles/dfu_no_serial_nrf52840_xxAA_s140_6.1.1.dir/__/__/mesh/prov/src/prov_utils.c.obj
 .text.oob_gen_alphanumeric
                0x0002e260       0x34 examples/dfu/CMakeFiles/dfu_no_serial_nrf52840_xxAA_s140_6.1.1.dir/__/__/mesh/prov/src/prov_utils.c.obj
 .text.oob_gen_numeric
                0x0002e294       0x3c examples/dfu/CMakeFiles/dfu_no_serial_nrf52840_xxAA_s140_6.1.1.dir/__/__/mesh/prov/src/prov_utils.c.obj
 .text.prov_utils_authentication_values_derive
                0x0002e2d0       0xa0 examples/dfu/CMakeFiles/dfu_no_serial_nrf52840_xxAA_s140_6.1.1.dir/__/__/mesh/prov/src/prov_utils.c.obj
                0x0002e2d0                prov_utils_authentication_values_derive
 .text.prov_utils_keys_generate
                0x0002e370       0x1e examples/dfu/CMakeFiles/dfu_no_serial_nrf52840_xxAA_s140_6.1.1.dir/__/__/mesh/prov/src/prov_utils.c.obj
                0x0002e370                prov_utils_keys_generate
 *fill*         0x0002e38e        0x2 
 .text.prov_utils_derive_keys
                0x0002e390       0xac examples/dfu/CMakeFiles/dfu_no_serial_nrf52840_xxAA_s140_6.1.1.dir/__/__/mesh/prov/src/prov_utils.c.obj
                0x0002e390                prov_utils_derive_keys
 .text.prov_utils_is_valid_public_key
                0x0002e43c       0x18 examples/dfu/CMakeFiles/dfu_no_serial_nrf52840_xxAA_s140_6.1.1.dir/__/__/mesh/prov/src/prov_utils.c.obj
                0x0002e43c                prov_utils_is_valid_public_key
 .text.prov_utils_calculate_shared_secret
                0x0002e454       0x34 examples/dfu/CMakeFiles/dfu_no_serial_nrf52840_xxAA_s140_6.1.1.dir/__/__/mesh/prov/src/prov_utils.c.obj
                0x0002e454                prov_utils_calculate_shared_secret
 .text.prov_utils_generate_oob_data
                0x0002e488       0x98 examples/dfu/CMakeFiles/dfu_no_serial_nrf52840_xxAA_s140_6.1.1.dir/__/__/mesh/prov/src/prov_utils.c.obj
                0x0002e488                prov_utils_generate_oob_data
 .text.prov_utils_confirmation_check
                0x0002e520       0x5c examples/dfu/CMakeFiles/dfu_no_serial_nrf52840_xxAA_s140_6.1.1.dir/__/__/mesh/prov/src/prov_utils.c.obj
                0x0002e520                prov_utils_confirmation_check
 .text.prov_utils_auth_data_is_alphanumeric
                0x0002e57c       0x26 examples/dfu/CMakeFiles/dfu_no_serial_nrf52840_xxAA_s140_6.1.1.dir/__/__/mesh/prov/src/prov_utils.c.obj
                0x0002e57c                prov_utils_auth_data_is_alphanumeric
 *fill*         0x0002e5a2        0x2 
 .text.prov_utils_auth_data_is_valid_number
                0x0002e5a4       0x34 examples/dfu/CMakeFiles/dfu_no_serial_nrf52840_xxAA_s140_6.1.1.dir/__/__/mesh/prov/src/prov_utils.c.obj
                0x0002e5a4                prov_utils_auth_data_is_valid_number
 .text.mesh_opt_prov_ecdh_offloading_get
                0x0002e5d8       0x10 examples/dfu/CMakeFiles/dfu_no_serial_nrf52840_xxAA_s140_6.1.1.dir/__/__/mesh/prov/src/prov_utils.c.obj
                0x0002e5d8                mesh_opt_prov_ecdh_offloading_get
 .text.prov_utils_use_ecdh_offloading
                0x0002e5e8       0x1c examples/dfu/CMakeFiles/dfu_no_serial_nrf52840_xxAA_s140_6.1.1.dir/__/__/mesh/prov/src/prov_utils.c.obj
                0x0002e5e8                prov_utils_use_ecdh_offloading
 .text.prov_utils_is_valid_pdu
                0x0002e604       0x30 examples/dfu/CMakeFiles/dfu_no_serial_nrf52840_xxAA_s140_6.1.1.dir/__/__/mesh/prov/src/prov_utils.c.obj
                0x0002e604                prov_utils_is_valid_pdu
 .text.link_timeout_cb
                0x0002e634       0x10 examples/dfu/CMakeFiles/dfu_no_serial_nrf52840_xxAA_s140_6.1.1.dir/__/__/mesh/prov/src/prov_bearer_adv.c.obj
 .text.remove_active_bearer
                0x0002e644       0x4c examples/dfu/CMakeFiles/dfu_no_serial_nrf52840_xxAA_s140_6.1.1.dir/__/__/mesh/prov/src/prov_bearer_adv.c.obj
 .text.close_link
                0x0002e690       0x58 examples/dfu/CMakeFiles/dfu_no_serial_nrf52840_xxAA_s140_6.1.1.dir/__/__/mesh/prov/src/prov_bearer_adv.c.obj
 .text.prov_bearer_adv_listen_stop
                0x0002e6e8       0x30 examples/dfu/CMakeFiles/dfu_no_serial_nrf52840_xxAA_s140_6.1.1.dir/__/__/mesh/prov/src/prov_bearer_adv.c.obj
 .text.send_packet
                0x0002e718       0x5c examples/dfu/CMakeFiles/dfu_no_serial_nrf52840_xxAA_s140_6.1.1.dir/__/__/mesh/prov/src/prov_bearer_adv.c.obj
 .text.prov_buffer_tx
                0x0002e774      0x134 examples/dfu/CMakeFiles/dfu_no_serial_nrf52840_xxAA_s140_6.1.1.dir/__/__/mesh/prov/src/prov_bearer_adv.c.obj
 .text.send_link_close
                0x0002e8a8       0x28 examples/dfu/CMakeFiles/dfu_no_serial_nrf52840_xxAA_s140_6.1.1.dir/__/__/mesh/prov/src/prov_bearer_adv.c.obj
 .text.prov_bearer_adv_link_close
                0x0002e8d0       0x54 examples/dfu/CMakeFiles/dfu_no_serial_nrf52840_xxAA_s140_6.1.1.dir/__/__/mesh/prov/src/prov_bearer_adv.c.obj
 .text.send_transaction_ack
                0x0002e924       0x24 examples/dfu/CMakeFiles/dfu_no_serial_nrf52840_xxAA_s140_6.1.1.dir/__/__/mesh/prov/src/prov_bearer_adv.c.obj
 .text.send_link_ack
                0x0002e948       0x24 examples/dfu/CMakeFiles/dfu_no_serial_nrf52840_xxAA_s140_6.1.1.dir/__/__/mesh/prov/src/prov_bearer_adv.c.obj
 .text.reset_timeout_timer
                0x0002e96c       0x1a examples/dfu/CMakeFiles/dfu_no_serial_nrf52840_xxAA_s140_6.1.1.dir/__/__/mesh/prov/src/prov_bearer_adv.c.obj
 *fill*         0x0002e986        0x2 
 .text.tx_complete_cb
                0x0002e988       0x1c examples/dfu/CMakeFiles/dfu_no_serial_nrf52840_xxAA_s140_6.1.1.dir/__/__/mesh/prov/src/prov_bearer_adv.c.obj
 .text.tx_retry_cb
                0x0002e9a4       0xcc examples/dfu/CMakeFiles/dfu_no_serial_nrf52840_xxAA_s140_6.1.1.dir/__/__/mesh/prov/src/prov_bearer_adv.c.obj
 .text.add_active_bearer
                0x0002ea70       0x80 examples/dfu/CMakeFiles/dfu_no_serial_nrf52840_xxAA_s140_6.1.1.dir/__/__/mesh/prov/src/prov_bearer_adv.c.obj
 .text.prov_bearer_adv_link_open
                0x0002eaf0       0xe0 examples/dfu/CMakeFiles/dfu_no_serial_nrf52840_xxAA_s140_6.1.1.dir/__/__/mesh/prov/src/prov_bearer_adv.c.obj
 .text.async_process
                0x0002ebd0       0x50 examples/dfu/CMakeFiles/dfu_no_serial_nrf52840_xxAA_s140_6.1.1.dir/__/__/mesh/prov/src/prov_bearer_adv.c.obj
 .text.prov_bearer_adv_listen
                0x0002ec20       0xdc examples/dfu/CMakeFiles/dfu_no_serial_nrf52840_xxAA_s140_6.1.1.dir/__/__/mesh/prov/src/prov_bearer_adv.c.obj
 .text.calculate_3GPP_CRC
                0x0002ecfc       0x24 examples/dfu/CMakeFiles/dfu_no_serial_nrf52840_xxAA_s140_6.1.1.dir/__/__/mesh/prov/src/prov_bearer_adv.c.obj
                0x0002ecfc                calculate_3GPP_CRC
 .text.prov_bearer_adv_tx
                0x0002ed20       0xac examples/dfu/CMakeFiles/dfu_no_serial_nrf52840_xxAA_s140_6.1.1.dir/__/__/mesh/prov/src/prov_bearer_adv.c.obj
 .text.prov_buffer_rx
                0x0002edcc       0x7a examples/dfu/CMakeFiles/dfu_no_serial_nrf52840_xxAA_s140_6.1.1.dir/__/__/mesh/prov/src/prov_bearer_adv.c.obj
 *fill*         0x0002ee46        0x2 
 .text.nrf_mesh_prov_bearer_adv_interface_get
                0x0002ee48       0x3c examples/dfu/CMakeFiles/dfu_no_serial_nrf52840_xxAA_s140_6.1.1.dir/__/__/mesh/prov/src/prov_bearer_adv.c.obj
                0x0002ee48                nrf_mesh_prov_bearer_adv_interface_get
 .text.prov_bearer_adv_packet_in
                0x0002ee84      0x82c examples/dfu/CMakeFiles/dfu_no_serial_nrf52840_xxAA_s140_6.1.1.dir/__/__/mesh/prov/src/prov_bearer_adv.c.obj
                0x0002ee84                prov_bearer_adv_packet_in
 .text.tx_complete_cb
                0x0002f6b0        0x2 examples/dfu/CMakeFiles/dfu_no_serial_nrf52840_xxAA_s140_6.1.1.dir/__/__/mesh/dfu/src/nrf_mesh_dfu.c.obj
 *fill*         0x0002f6b2        0x2 
 .text.reset_transfer_state
                0x0002f6b4       0x24 examples/dfu/CMakeFiles/dfu_no_serial_nrf52840_xxAA_s140_6.1.1.dir/__/__/mesh/dfu/src/nrf_mesh_dfu.c.obj
 .text.end_transfer
                0x0002f6d8       0x48 examples/dfu/CMakeFiles/dfu_no_serial_nrf52840_xxAA_s140_6.1.1.dir/__/__/mesh/dfu/src/nrf_mesh_dfu.c.obj
 .text.dfu_evt_handler
                0x0002f720      0x808 examples/dfu/CMakeFiles/dfu_no_serial_nrf52840_xxAA_s140_6.1.1.dir/__/__/mesh/dfu/src/nrf_mesh_dfu.c.obj
 .text.next_tx_timeout
                0x0002ff28       0x58 examples/dfu/CMakeFiles/dfu_no_serial_nrf52840_xxAA_s140_6.1.1.dir/__/__/mesh/dfu/src/nrf_mesh_dfu.c.obj
 .text.tx_timeout
                0x0002ff80      0x114 examples/dfu/CMakeFiles/dfu_no_serial_nrf52840_xxAA_s140_6.1.1.dir/__/__/mesh/dfu/src/nrf_mesh_dfu.c.obj
 .text.nrf_mesh_dfu_cmd_send
                0x00030094       0x90 examples/dfu/CMakeFiles/dfu_no_serial_nrf52840_xxAA_s140_6.1.1.dir/__/__/mesh/dfu/src/nrf_mesh_dfu.c.obj
                0x00030094                nrf_mesh_dfu_cmd_send
 .text.nrf_mesh_dfu_init
                0x00030124      0x13c examples/dfu/CMakeFiles/dfu_no_serial_nrf52840_xxAA_s140_6.1.1.dir/__/__/mesh/dfu/src/nrf_mesh_dfu.c.obj
                0x00030124                nrf_mesh_dfu_init
 .text.flash_op_complete
                0x00030260      0x14c examples/dfu/CMakeFiles/dfu_no_serial_nrf52840_xxAA_s140_6.1.1.dir/__/__/mesh/dfu/src/nrf_mesh_dfu.c.obj
 .text.abort_timeout
                0x000303ac       0x80 examples/dfu/CMakeFiles/dfu_no_serial_nrf52840_xxAA_s140_6.1.1.dir/__/__/mesh/dfu/src/nrf_mesh_dfu.c.obj
 .text.timer_timeout
                0x0003042c       0x7c examples/dfu/CMakeFiles/dfu_no_serial_nrf52840_xxAA_s140_6.1.1.dir/__/__/mesh/dfu/src/nrf_mesh_dfu.c.obj
 .text.nrf_mesh_dfu_enable
                0x000304a8       0x1e examples/dfu/CMakeFiles/dfu_no_serial_nrf52840_xxAA_s140_6.1.1.dir/__/__/mesh/dfu/src/nrf_mesh_dfu.c.obj
                0x000304a8                nrf_mesh_dfu_enable
 *fill*         0x000304c6        0x2 
 .text.nrf_mesh_dfu_rx
                0x000304c8       0xc0 examples/dfu/CMakeFiles/dfu_no_serial_nrf52840_xxAA_s140_6.1.1.dir/__/__/mesh/dfu/src/nrf_mesh_dfu.c.obj
                0x000304c8                nrf_mesh_dfu_rx
 .text.nrf_mesh_dfu_request
                0x00030588       0x98 examples/dfu/CMakeFiles/dfu_no_serial_nrf52840_xxAA_s140_6.1.1.dir/__/__/mesh/dfu/src/nrf_mesh_dfu.c.obj
                0x00030588                nrf_mesh_dfu_request
 .text.nrf_mesh_dfu_relay
                0x00030620       0x68 examples/dfu/CMakeFiles/dfu_no_serial_nrf52840_xxAA_s140_6.1.1.dir/__/__/mesh/dfu/src/nrf_mesh_dfu.c.obj
                0x00030620                nrf_mesh_dfu_relay
 .text.nrf_mesh_dfu_bank_flash
                0x00030688       0x28 examples/dfu/CMakeFiles/dfu_no_serial_nrf52840_xxAA_s140_6.1.1.dir/__/__/mesh/dfu/src/nrf_mesh_dfu.c.obj
                0x00030688                nrf_mesh_dfu_bank_flash
 .text._weak_handler
                0x000306b0        0x4 examples/dfu/CMakeFiles/dfu_no_serial_nrf52840_xxAA_s140_6.1.1.dir/__/nrf_mesh_weak.c.obj
                0x000306b0                prov_provisioner_oob_pubkey
                0x000306b0                _weak_handler
                0x000306b0                mesh_flash_op_execute
                0x000306b0                prov_provisionee_init
                0x000306b0                prov_provisioner_shared_secret
                0x000306b0                prov_provisioner_auth_data
                0x000306b0                prov_provisioner_oob_use
                0x000306b0                prov_provisioner_provision
 .text.app_error_fault_handler
                0x000306b4      0x200 examples/dfu/CMakeFiles/dfu_no_serial_nrf52840_xxAA_s140_6.1.1.dir/__/common/src/app_error_weak.c.obj
                0x000306b4                app_error_fault_handler
 .text.mesh_assertion_handler
                0x000308b4       0x24 examples/dfu/CMakeFiles/dfu_no_serial_nrf52840_xxAA_s140_6.1.1.dir/__/common/src/assertion_handler_weak.c.obj
                0x000308b4                mesh_assertion_handler
 .text.mesh_evt_handler
                0x000308d8       0x1c examples/dfu/CMakeFiles/dfu_no_serial_nrf52840_xxAA_s140_6.1.1.dir/__/__/mesh/stack/src/mesh_stack.c.obj
 .text.mesh_stack_start
                0x000308f4        0x4 examples/dfu/CMakeFiles/dfu_no_serial_nrf52840_xxAA_s140_6.1.1.dir/__/__/mesh/stack/src/mesh_stack.c.obj
                0x000308f4                mesh_stack_start
 .text.mesh_stack_provisioning_data_store
                0x000308f8       0xe4 examples/dfu/CMakeFiles/dfu_no_serial_nrf52840_xxAA_s140_6.1.1.dir/__/__/mesh/stack/src/mesh_stack.c.obj
                0x000308f8                mesh_stack_provisioning_data_store
 .text.mesh_stack_config_clear
                0x000309dc       0x16 examples/dfu/CMakeFiles/dfu_no_serial_nrf52840_xxAA_s140_6.1.1.dir/__/__/mesh/stack/src/mesh_stack.c.obj
                0x000309dc                mesh_stack_config_clear
 .text.mesh_stack_is_device_provisioned
                0x000309f2       0x18 examples/dfu/CMakeFiles/dfu_no_serial_nrf52840_xxAA_s140_6.1.1.dir/__/__/mesh/stack/src/mesh_stack.c.obj
                0x000309f2                mesh_stack_is_device_provisioned
 *fill*         0x00030a0a        0x2 
 .text.mesh_stack_init
                0x00030a0c       0x6c examples/dfu/CMakeFiles/dfu_no_serial_nrf52840_xxAA_s140_6.1.1.dir/__/__/mesh/stack/src/mesh_stack.c.obj
                0x00030a0c                mesh_stack_init
 .text.mesh_stack_device_reset
                0x00030a78       0x20 examples/dfu/CMakeFiles/dfu_no_serial_nrf52840_xxAA_s140_6.1.1.dir/__/__/mesh/stack/src/mesh_stack.c.obj
                0x00030a78                mesh_stack_device_reset
 .text.mesh_stack_persistence_flash_usage
                0x00030a98       0x36 examples/dfu/CMakeFiles/dfu_no_serial_nrf52840_xxAA_s140_6.1.1.dir/__/__/mesh/stack/src/mesh_stack.c.obj
                0x00030a98                mesh_stack_persistence_flash_usage
 *fill*         0x00030ace        0x2 
 .text.nrf_mesh_configure_device_uuid_set
                0x00030ad0       0x10 examples/dfu/CMakeFiles/dfu_no_serial_nrf52840_xxAA_s140_6.1.1.dir/__/__/mesh/core/src/nrf_mesh_configure.c.obj
                0x00030ad0                nrf_mesh_configure_device_uuid_set
 .text.nrf_mesh_configure_device_uuid_reset
                0x00030ae0       0x3c examples/dfu/CMakeFiles/dfu_no_serial_nrf52840_xxAA_s140_6.1.1.dir/__/__/mesh/core/src/nrf_mesh_configure.c.obj
                0x00030ae0                nrf_mesh_configure_device_uuid_reset
 .text.nrf_mesh_configure_device_uuid_get
                0x00030b1c        0x8 examples/dfu/CMakeFiles/dfu_no_serial_nrf52840_xxAA_s140_6.1.1.dir/__/__/mesh/core/src/nrf_mesh_configure.c.obj
                0x00030b1c                nrf_mesh_configure_device_uuid_get
 .text.msg_cache_init
                0x00030b24       0x24 examples/dfu/CMakeFiles/dfu_no_serial_nrf52840_xxAA_s140_6.1.1.dir/__/__/mesh/core/src/msg_cache.c.obj
                0x00030b24                msg_cache_init
 .text.msg_cache_entry_exists
                0x00030b48       0x3c examples/dfu/CMakeFiles/dfu_no_serial_nrf52840_xxAA_s140_6.1.1.dir/__/__/mesh/core/src/msg_cache.c.obj
                0x00030b48                msg_cache_entry_exists
 .text.msg_cache_entry_add
                0x00030b84       0x2c examples/dfu/CMakeFiles/dfu_no_serial_nrf52840_xxAA_s140_6.1.1.dir/__/__/mesh/core/src/msg_cache.c.obj
                0x00030b84                msg_cache_entry_add
 .text.seqauth_sequence_number_get
                0x00030bb0       0x12 examples/dfu/CMakeFiles/dfu_no_serial_nrf52840_xxAA_s140_6.1.1.dir/__/__/mesh/core/src/transport.c.obj
 *fill*         0x00030bc2        0x2 
 .text.control_packet_callback_get
                0x00030bc4       0x40 examples/dfu/CMakeFiles/dfu_no_serial_nrf52840_xxAA_s140_6.1.1.dir/__/__/mesh/core/src/transport.c.obj
 .text.tx_complete
                0x00030c04       0x2c examples/dfu/CMakeFiles/dfu_no_serial_nrf52840_xxAA_s140_6.1.1.dir/__/__/mesh/core/src/transport.c.obj
 .text.seqauth_get
                0x00030c30       0x24 examples/dfu/CMakeFiles/dfu_no_serial_nrf52840_xxAA_s140_6.1.1.dir/__/__/mesh/core/src/transport.c.obj
 .text.block_ack_full
                0x00030c54       0x1a examples/dfu/CMakeFiles/dfu_no_serial_nrf52840_xxAA_s140_6.1.1.dir/__/__/mesh/core/src/transport.c.obj
 *fill*         0x00030c6e        0x2 
 .text.sar_rx_session_mark_as_handled
                0x00030c70       0x5c examples/dfu/CMakeFiles/dfu_no_serial_nrf52840_xxAA_s140_6.1.1.dir/__/__/mesh/core/src/transport.c.obj
 .text.upper_trs_packet_encrypt
                0x00030ccc       0x86 examples/dfu/CMakeFiles/dfu_no_serial_nrf52840_xxAA_s140_6.1.1.dir/__/__/mesh/core/src/transport.c.obj
 *fill*         0x00030d52        0x2 
 .text.sar_ctx_alloc
                0x00030d54       0xbc examples/dfu/CMakeFiles/dfu_no_serial_nrf52840_xxAA_s140_6.1.1.dir/__/__/mesh/core/src/transport.c.obj
 .text.sar_ctx_free
                0x00030e10       0x3a examples/dfu/CMakeFiles/dfu_no_serial_nrf52840_xxAA_s140_6.1.1.dir/__/__/mesh/core/src/transport.c.obj
 .text.sar_ctx_tx_complete
                0x00030e4a       0x2e examples/dfu/CMakeFiles/dfu_no_serial_nrf52840_xxAA_s140_6.1.1.dir/__/__/mesh/core/src/transport.c.obj
 .text.transport_metadata_validate
                0x00030e78       0x54 examples/dfu/CMakeFiles/dfu_no_serial_nrf52840_xxAA_s140_6.1.1.dir/__/__/mesh/core/src/transport.c.obj
 .text.test_transport_decrypt
                0x00030ecc       0x88 examples/dfu/CMakeFiles/dfu_no_serial_nrf52840_xxAA_s140_6.1.1.dir/__/__/mesh/core/src/transport.c.obj
 .text.replay_list_add
                0x00030f54       0x44 examples/dfu/CMakeFiles/dfu_no_serial_nrf52840_xxAA_s140_6.1.1.dir/__/__/mesh/core/src/transport.c.obj
 .text.upper_transport_access_packet_in
                0x00030f98      0x1a0 examples/dfu/CMakeFiles/dfu_no_serial_nrf52840_xxAA_s140_6.1.1.dir/__/__/mesh/core/src/transport.c.obj
 .text.trs_packet_header_build
                0x00031138       0xa4 examples/dfu/CMakeFiles/dfu_no_serial_nrf52840_xxAA_s140_6.1.1.dir/__/__/mesh/core/src/transport.c.obj
 .text.unsegmented_packet_tx
                0x000311dc       0x82 examples/dfu/CMakeFiles/dfu_no_serial_nrf52840_xxAA_s140_6.1.1.dir/__/__/mesh/core/src/transport.c.obj
 *fill*         0x0003125e        0x2 
 .text.tx_retry_timer_reset
                0x00031260       0x3c examples/dfu/CMakeFiles/dfu_no_serial_nrf52840_xxAA_s140_6.1.1.dir/__/__/mesh/core/src/transport.c.obj
 .text.sar_ctx_cancel
                0x0003129c       0xb0 examples/dfu/CMakeFiles/dfu_no_serial_nrf52840_xxAA_s140_6.1.1.dir/__/__/mesh/core/src/transport.c.obj
 .text.abort_timeout
                0x0003134c        0x8 examples/dfu/CMakeFiles/dfu_no_serial_nrf52840_xxAA_s140_6.1.1.dir/__/__/mesh/core/src/transport.c.obj
 .text.retry_timeout
                0x00031354       0x4c examples/dfu/CMakeFiles/dfu_no_serial_nrf52840_xxAA_s140_6.1.1.dir/__/__/mesh/core/src/transport.c.obj
 .text.trs_sar_packet_out
                0x000313a0       0xf4 examples/dfu/CMakeFiles/dfu_no_serial_nrf52840_xxAA_s140_6.1.1.dir/__/__/mesh/core/src/transport.c.obj
 .text.transport_control_packet_in
                0x00031494      0x1dc examples/dfu/CMakeFiles/dfu_no_serial_nrf52840_xxAA_s140_6.1.1.dir/__/__/mesh/core/src/transport.c.obj
 .text.segmented_packet_tx
                0x00031670      0x140 examples/dfu/CMakeFiles/dfu_no_serial_nrf52840_xxAA_s140_6.1.1.dir/__/__/mesh/core/src/transport.c.obj
 .text.transport_init
                0x000317b0       0x84 examples/dfu/CMakeFiles/dfu_no_serial_nrf52840_xxAA_s140_6.1.1.dir/__/__/mesh/core/src/transport.c.obj
                0x000317b0                transport_init
 .text.transport_enable
                0x00031834        0x4 examples/dfu/CMakeFiles/dfu_no_serial_nrf52840_xxAA_s140_6.1.1.dir/__/__/mesh/core/src/transport.c.obj
                0x00031834                transport_enable
 .text.transport_tx
                0x00031838       0xec examples/dfu/CMakeFiles/dfu_no_serial_nrf52840_xxAA_s140_6.1.1.dir/__/__/mesh/core/src/transport.c.obj
                0x00031838                transport_tx
 .text.transport_control_tx
                0x00031924       0x98 examples/dfu/CMakeFiles/dfu_no_serial_nrf52840_xxAA_s140_6.1.1.dir/__/__/mesh/core/src/transport.c.obj
                0x00031924                transport_control_tx
 .text.sar_ack_send
                0x000319bc       0xa4 examples/dfu/CMakeFiles/dfu_no_serial_nrf52840_xxAA_s140_6.1.1.dir/__/__/mesh/core/src/transport.c.obj
 .text.ack_timeout
                0x00031a60       0x30 examples/dfu/CMakeFiles/dfu_no_serial_nrf52840_xxAA_s140_6.1.1.dir/__/__/mesh/core/src/transport.c.obj
 .text.transport_packet_in
                0x00031a90      0x504 examples/dfu/CMakeFiles/dfu_no_serial_nrf52840_xxAA_s140_6.1.1.dir/__/__/mesh/core/src/transport.c.obj
                0x00031a90                transport_packet_in
 .text.transport_sar_process
                0x00031f94       0x70 examples/dfu/CMakeFiles/dfu_no_serial_nrf52840_xxAA_s140_6.1.1.dir/__/__/mesh/core/src/transport.c.obj
 .text.transport_control_packet_consumer_add
                0x00032004       0x5c examples/dfu/CMakeFiles/dfu_no_serial_nrf52840_xxAA_s140_6.1.1.dir/__/__/mesh/core/src/transport.c.obj
                0x00032004                transport_control_packet_consumer_add
 .text.event_handle
                0x00032060       0x54 examples/dfu/CMakeFiles/dfu_no_serial_nrf52840_xxAA_s140_6.1.1.dir/__/__/mesh/core/src/event.c.obj
                0x00032060                event_handle
 .text.event_handler_add
                0x000320b4       0x20 examples/dfu/CMakeFiles/dfu_no_serial_nrf52840_xxAA_s140_6.1.1.dir/__/__/mesh/core/src/event.c.obj
                0x000320b4                event_handler_add
 .text.m_index_increment
                0x000320d4       0x1e examples/dfu/CMakeFiles/dfu_no_serial_nrf52840_xxAA_s140_6.1.1.dir/__/__/mesh/core/src/packet_buffer.c.obj
 .text.m_get_next_packet
                0x000320f2       0x1c examples/dfu/CMakeFiles/dfu_no_serial_nrf52840_xxAA_s140_6.1.1.dir/__/__/mesh/core/src/packet_buffer.c.obj
 .text.packet_buffer_init
                0x0003210e       0xac examples/dfu/CMakeFiles/dfu_no_serial_nrf52840_xxAA_s140_6.1.1.dir/__/__/mesh/core/src/packet_buffer.c.obj
                0x0003210e                packet_buffer_init
 .text.packet_buffer_flush
                0x000321ba       0x50 examples/dfu/CMakeFiles/dfu_no_serial_nrf52840_xxAA_s140_6.1.1.dir/__/__/mesh/core/src/packet_buffer.c.obj
                0x000321ba                packet_buffer_flush
 .text.packet_buffer_reserve
                0x0003220a       0xa2 examples/dfu/CMakeFiles/dfu_no_serial_nrf52840_xxAA_s140_6.1.1.dir/__/__/mesh/core/src/packet_buffer.c.obj
                0x0003220a                packet_buffer_reserve
 .text.packet_buffer_commit
                0x000322ac       0x62 examples/dfu/CMakeFiles/dfu_no_serial_nrf52840_xxAA_s140_6.1.1.dir/__/__/mesh/core/src/packet_buffer.c.obj
                0x000322ac                packet_buffer_commit
 .text.packet_buffer_pop
                0x0003230e       0x5a examples/dfu/CMakeFiles/dfu_no_serial_nrf52840_xxAA_s140_6.1.1.dir/__/__/mesh/core/src/packet_buffer.c.obj
                0x0003230e                packet_buffer_pop
 .text.packet_buffer_can_pop
                0x00032368       0x34 examples/dfu/CMakeFiles/dfu_no_serial_nrf52840_xxAA_s140_6.1.1.dir/__/__/mesh/core/src/packet_buffer.c.obj
                0x00032368                packet_buffer_can_pop
 .text.packet_buffer_packets_ready_to_pop
                0x0003239c       0x36 examples/dfu/CMakeFiles/dfu_no_serial_nrf52840_xxAA_s140_6.1.1.dir/__/__/mesh/core/src/packet_buffer.c.obj
                0x0003239c                packet_buffer_packets_ready_to_pop
 .text.packet_buffer_free
                0x000323d2       0x74 examples/dfu/CMakeFiles/dfu_no_serial_nrf52840_xxAA_s140_6.1.1.dir/__/__/mesh/core/src/packet_buffer.c.obj
                0x000323d2                packet_buffer_free
 .text.packet_buffer_is_empty
                0x00032446       0x28 examples/dfu/CMakeFiles/dfu_no_serial_nrf52840_xxAA_s140_6.1.1.dir/__/__/mesh/core/src/packet_buffer.c.obj
                0x00032446                packet_buffer_is_empty
 .text.get_last_page
                0x0003246e       0x14 examples/dfu/CMakeFiles/dfu_no_serial_nrf52840_xxAA_s140_6.1.1.dir/__/__/mesh/core/src/flash_manager_defrag.c.obj
 *fill*         0x00032482        0x2 
 .text.defrag_on_end
                0x00032484       0x1c examples/dfu/CMakeFiles/dfu_no_serial_nrf52840_xxAA_s140_6.1.1.dir/__/__/mesh/core/src/flash_manager_defrag.c.obj
 .text.execute_procedure_step
                0x000324a0       0x70 examples/dfu/CMakeFiles/dfu_no_serial_nrf52840_xxAA_s140_6.1.1.dir/__/__/mesh/core/src/flash_manager_defrag.c.obj
 .text.get_next_entry
                0x00032510       0x34 examples/dfu/CMakeFiles/dfu_no_serial_nrf52840_xxAA_s140_6.1.1.dir/__/__/mesh/core/src/flash_manager_defrag.c.obj
 .text.get_next_data_entry
                0x00032544       0x26 examples/dfu/CMakeFiles/dfu_no_serial_nrf52840_xxAA_s140_6.1.1.dir/__/__/mesh/core/src/flash_manager_defrag.c.obj
 *fill*         0x0003256a        0x2 
 .text.on_flash_op_end
                0x0003256c       0x30 examples/dfu/CMakeFiles/dfu_no_serial_nrf52840_xxAA_s140_6.1.1.dir/__/__/mesh/core/src/flash_manager_defrag.c.obj
 .text.check_for_invalid_entries
                0x0003259c       0x38 examples/dfu/CMakeFiles/dfu_no_serial_nrf52840_xxAA_s140_6.1.1.dir/__/__/mesh/core/src/flash_manager_defrag.c.obj
 .text.erase_recovery_area
                0x000325d4       0x34 examples/dfu/CMakeFiles/dfu_no_serial_nrf52840_xxAA_s140_6.1.1.dir/__/__/mesh/core/src/flash_manager_defrag.c.obj
 .text.flash.constprop.6
                0x00032608       0x24 examples/dfu/CMakeFiles/dfu_no_serial_nrf52840_xxAA_s140_6.1.1.dir/__/__/mesh/core/src/flash_manager_defrag.c.obj
 .text.invalidate_duplicate_entries
                0x0003262c       0xa8 examples/dfu/CMakeFiles/dfu_no_serial_nrf52840_xxAA_s140_6.1.1.dir/__/__/mesh/core/src/flash_manager_defrag.c.obj
 .text.seal_storage_page
                0x000326d4       0x50 examples/dfu/CMakeFiles/dfu_no_serial_nrf52840_xxAA_s140_6.1.1.dir/__/__/mesh/core/src/flash_manager_defrag.c.obj
 .text.copy_metadata
                0x00032724       0x3c examples/dfu/CMakeFiles/dfu_no_serial_nrf52840_xxAA_s140_6.1.1.dir/__/__/mesh/core/src/flash_manager_defrag.c.obj
 .text.write_defrag_start_pointer
                0x00032760       0x20 examples/dfu/CMakeFiles/dfu_no_serial_nrf52840_xxAA_s140_6.1.1.dir/__/__/mesh/core/src/flash_manager_defrag.c.obj
 .text.write_back
                0x00032780       0x28 examples/dfu/CMakeFiles/dfu_no_serial_nrf52840_xxAA_s140_6.1.1.dir/__/__/mesh/core/src/flash_manager_defrag.c.obj
 .text.post_process
                0x000327a8       0x40 examples/dfu/CMakeFiles/dfu_no_serial_nrf52840_xxAA_s140_6.1.1.dir/__/__/mesh/core/src/flash_manager_defrag.c.obj
 .text.backup_entries
                0x000327e8       0xd8 examples/dfu/CMakeFiles/dfu_no_serial_nrf52840_xxAA_s140_6.1.1.dir/__/__/mesh/core/src/flash_manager_defrag.c.obj
 .text.erase_source
                0x000328c0       0x34 examples/dfu/CMakeFiles/dfu_no_serial_nrf52840_xxAA_s140_6.1.1.dir/__/__/mesh/core/src/flash_manager_defrag.c.obj
 .text.flash_manager_defrag_init
                0x000328f4       0x8c examples/dfu/CMakeFiles/dfu_no_serial_nrf52840_xxAA_s140_6.1.1.dir/__/__/mesh/core/src/flash_manager_defrag.c.obj
                0x000328f4                flash_manager_defrag_init
 .text.flash_manager_defragging
                0x00032980       0x38 examples/dfu/CMakeFiles/dfu_no_serial_nrf52840_xxAA_s140_6.1.1.dir/__/__/mesh/core/src/flash_manager_defrag.c.obj
                0x00032980                flash_manager_defragging
 .text.flash_manager_defrag_is_running
                0x000329b8       0x10 examples/dfu/CMakeFiles/dfu_no_serial_nrf52840_xxAA_s140_6.1.1.dir/__/__/mesh/core/src/flash_manager_defrag.c.obj
                0x000329b8                flash_manager_defrag_is_running
 .text.flash_manager_defrag
                0x000329c8       0x44 examples/dfu/CMakeFiles/dfu_no_serial_nrf52840_xxAA_s140_6.1.1.dir/__/__/mesh/core/src/flash_manager_defrag.c.obj
                0x000329c8                flash_manager_defrag
 .text.flash_manager_defrag_recovery_page_get
                0x00032a0c        0xc examples/dfu/CMakeFiles/dfu_no_serial_nrf52840_xxAA_s140_6.1.1.dir/__/__/mesh/core/src/flash_manager_defrag.c.obj
                0x00032a0c                flash_manager_defrag_recovery_page_get
 .text.fifo_init
                0x00032a18       0x34 examples/dfu/CMakeFiles/dfu_no_serial_nrf52840_xxAA_s140_6.1.1.dir/__/__/mesh/core/src/fifo.c.obj
                0x00032a18                fifo_init
 .text.fifo_pop
                0x00032a4c       0x52 examples/dfu/CMakeFiles/dfu_no_serial_nrf52840_xxAA_s140_6.1.1.dir/__/__/mesh/core/src/fifo.c.obj
                0x00032a4c                fifo_pop
 *fill*         0x00032a9e        0x2 
 .text.wait_for_ready
                0x00032aa0       0x10 examples/dfu/CMakeFiles/dfu_no_serial_nrf52840_xxAA_s140_6.1.1.dir/__/__/mesh/core/src/nrf_flash.c.obj
 .text.nrf_flash_erase
                0x00032ab0       0x50 examples/dfu/CMakeFiles/dfu_no_serial_nrf52840_xxAA_s140_6.1.1.dir/__/__/mesh/core/src/nrf_flash.c.obj
                0x00032ab0                nrf_flash_erase
 .text.nrf_flash_write
                0x00032b00       0x50 examples/dfu/CMakeFiles/dfu_no_serial_nrf52840_xxAA_s140_6.1.1.dir/__/__/mesh/core/src/nrf_flash.c.obj
                0x00032b00                nrf_flash_write
 .text.entry_recover_cb
                0x00032b50       0x18 examples/dfu/CMakeFiles/dfu_no_serial_nrf52840_xxAA_s140_6.1.1.dir/__/__/mesh/core/src/net_state.c.obj
 .text.flash_store_iv_index
                0x00032b68       0x38 examples/dfu/CMakeFiles/dfu_no_serial_nrf52840_xxAA_s140_6.1.1.dir/__/__/mesh/core/src/net_state.c.obj
 .text.flash_mem_available
                0x00032ba0       0x14 examples/dfu/CMakeFiles/dfu_no_serial_nrf52840_xxAA_s140_6.1.1.dir/__/__/mesh/core/src/net_state.c.obj
 .text.iv_index_notify
                0x00032bb4       0x30 examples/dfu/CMakeFiles/dfu_no_serial_nrf52840_xxAA_s140_6.1.1.dir/__/__/mesh/core/src/net_state.c.obj
 .text.seqnum_block_allocate
                0x00032be4       0x4c examples/dfu/CMakeFiles/dfu_no_serial_nrf52840_xxAA_s140_6.1.1.dir/__/__/mesh/core/src/net_state.c.obj
 .text.net_state_reset
                0x00032c30       0x48 examples/dfu/CMakeFiles/dfu_no_serial_nrf52840_xxAA_s140_6.1.1.dir/__/__/mesh/core/src/net_state.c.obj
                0x00032c30                net_state_reset
 .text.flash_write_complete
                0x00032c78       0x64 examples/dfu/CMakeFiles/dfu_no_serial_nrf52840_xxAA_s140_6.1.1.dir/__/__/mesh/core/src/net_state.c.obj
 .text.net_state_recover_from_flash
                0x00032cdc       0x60 examples/dfu/CMakeFiles/dfu_no_serial_nrf52840_xxAA_s140_6.1.1.dir/__/__/mesh/core/src/net_state.c.obj
                0x00032cdc                net_state_recover_from_flash
 .text.net_state_flash_area_get
                0x00032d3c        0xc examples/dfu/CMakeFiles/dfu_no_serial_nrf52840_xxAA_s140_6.1.1.dir/__/__/mesh/core/src/net_state.c.obj
                0x00032d3c                net_state_flash_area_get
 .text.init_flash_storage
                0x00032d48       0x40 examples/dfu/CMakeFiles/dfu_no_serial_nrf52840_xxAA_s140_6.1.1.dir/__/__/mesh/core/src/net_state.c.obj
 .text.net_state_init
                0x00032d88       0x44 examples/dfu/CMakeFiles/dfu_no_serial_nrf52840_xxAA_s140_6.1.1.dir/__/__/mesh/core/src/net_state.c.obj
                0x00032d88                net_state_init
 .text.net_state_enable
                0x00032dcc       0x30 examples/dfu/CMakeFiles/dfu_no_serial_nrf52840_xxAA_s140_6.1.1.dir/__/__/mesh/core/src/net_state.c.obj
                0x00032dcc                net_state_enable
 .text.net_state_iv_update_start
                0x00032dfc       0x50 examples/dfu/CMakeFiles/dfu_no_serial_nrf52840_xxAA_s140_6.1.1.dir/__/__/mesh/core/src/net_state.c.obj
                0x00032dfc                net_state_iv_update_start
 .text.iv_update_trigger_if_pending
                0x00032e4c       0x6c examples/dfu/CMakeFiles/dfu_no_serial_nrf52840_xxAA_s140_6.1.1.dir/__/__/mesh/core/src/net_state.c.obj
 .text.iv_update_timer_handler
                0x00032eb8       0x64 examples/dfu/CMakeFiles/dfu_no_serial_nrf52840_xxAA_s140_6.1.1.dir/__/__/mesh/core/src/net_state.c.obj
 .text.mesh_evt_handler
                0x00032f1c       0x8c examples/dfu/CMakeFiles/dfu_no_serial_nrf52840_xxAA_s140_6.1.1.dir/__/__/mesh/core/src/net_state.c.obj
 .text.net_state_seqnum_alloc
                0x00032fa8       0x68 examples/dfu/CMakeFiles/dfu_no_serial_nrf52840_xxAA_s140_6.1.1.dir/__/__/mesh/core/src/net_state.c.obj
                0x00032fa8                net_state_seqnum_alloc
 .text.net_state_iv_index_lock
                0x00033010       0x3c examples/dfu/CMakeFiles/dfu_no_serial_nrf52840_xxAA_s140_6.1.1.dir/__/__/mesh/core/src/net_state.c.obj
                0x00033010                net_state_iv_index_lock
 .text.net_state_key_refresh_phase_changed
                0x0003304c       0x20 examples/dfu/CMakeFiles/dfu_no_serial_nrf52840_xxAA_s140_6.1.1.dir/__/__/mesh/core/src/net_state.c.obj
                0x0003304c                net_state_key_refresh_phase_changed
 .text.net_state_beacon_iv_index_get
                0x0003306c        0xc examples/dfu/CMakeFiles/dfu_no_serial_nrf52840_xxAA_s140_6.1.1.dir/__/__/mesh/core/src/net_state.c.obj
                0x0003306c                net_state_beacon_iv_index_get
 .text.net_state_tx_iv_index_get
                0x00033078       0x14 examples/dfu/CMakeFiles/dfu_no_serial_nrf52840_xxAA_s140_6.1.1.dir/__/__/mesh/core/src/net_state.c.obj
                0x00033078                net_state_tx_iv_index_get
 .text.net_state_rx_iv_index_get
                0x0003308c       0x18 examples/dfu/CMakeFiles/dfu_no_serial_nrf52840_xxAA_s140_6.1.1.dir/__/__/mesh/core/src/net_state.c.obj
                0x0003308c                net_state_rx_iv_index_get
 .text.net_state_iv_update_get
                0x000330a4        0xc examples/dfu/CMakeFiles/dfu_no_serial_nrf52840_xxAA_s140_6.1.1.dir/__/__/mesh/core/src/net_state.c.obj
                0x000330a4                net_state_iv_update_get
 .text.net_state_iv_index_set
                0x000330b0       0x34 examples/dfu/CMakeFiles/dfu_no_serial_nrf52840_xxAA_s140_6.1.1.dir/__/__/mesh/core/src/net_state.c.obj
                0x000330b0                net_state_iv_index_set
 .text.send_end_events
                0x000330e4       0x84 examples/dfu/CMakeFiles/dfu_no_serial_nrf52840_xxAA_s140_6.1.1.dir/__/__/mesh/core/src/mesh_flash.c.obj
 .text.flash_op_action_prepare
                0x00033168       0x78 examples/dfu/CMakeFiles/dfu_no_serial_nrf52840_xxAA_s140_6.1.1.dir/__/__/mesh/core/src/mesh_flash.c.obj
 .text.flash_op_schedule
                0x000331e0       0x20 examples/dfu/CMakeFiles/dfu_no_serial_nrf52840_xxAA_s140_6.1.1.dir/__/__/mesh/core/src/mesh_flash.c.obj
 .text.flash_op_start
                0x00033200      0x13c examples/dfu/CMakeFiles/dfu_no_serial_nrf52840_xxAA_s140_6.1.1.dir/__/__/mesh/core/src/mesh_flash.c.obj
 .text.mesh_flash_init
                0x0003333c       0x7c examples/dfu/CMakeFiles/dfu_no_serial_nrf52840_xxAA_s140_6.1.1.dir/__/__/mesh/core/src/mesh_flash.c.obj
                0x0003333c                mesh_flash_init
 .text.mesh_flash_user_callback_set
                0x000333b8       0x20 examples/dfu/CMakeFiles/dfu_no_serial_nrf52840_xxAA_s140_6.1.1.dir/__/__/mesh/core/src/mesh_flash.c.obj
                0x000333b8                mesh_flash_user_callback_set
 .text.mesh_flash_op_push
                0x000333d8      0x10c examples/dfu/CMakeFiles/dfu_no_serial_nrf52840_xxAA_s140_6.1.1.dir/__/__/mesh/core/src/mesh_flash.c.obj
                0x000333d8                mesh_flash_op_push
 .text.mesh_flash_in_progress
                0x000334e4       0x30 examples/dfu/CMakeFiles/dfu_no_serial_nrf52840_xxAA_s140_6.1.1.dir/__/__/mesh/core/src/mesh_flash.c.obj
                0x000334e4                mesh_flash_in_progress
 .text.mesh_flash_set_suspended
                0x00033514       0x70 examples/dfu/CMakeFiles/dfu_no_serial_nrf52840_xxAA_s140_6.1.1.dir/__/__/mesh/core/src/mesh_flash.c.obj
                0x00033514                mesh_flash_set_suspended
 .text.nrf_mesh_address_type_get
                0x00033584       0x10 examples/dfu/CMakeFiles/dfu_no_serial_nrf52840_xxAA_s140_6.1.1.dir/__/__/mesh/core/src/nrf_mesh_utils.c.obj
                0x00033584                nrf_mesh_address_type_get
 .text.sd_softdevice_is_enabled
                0x00033594        0x4 examples/dfu/CMakeFiles/dfu_no_serial_nrf52840_xxAA_s140_6.1.1.dir/__/__/mesh/core/src/nrf_mesh.c.obj
 .text.nrf_mesh_listen
                0x00033598      0x138 examples/dfu/CMakeFiles/dfu_no_serial_nrf52840_xxAA_s140_6.1.1.dir/__/__/mesh/core/src/nrf_mesh.c.obj
 .text.scanner_packet_process_cb
                0x000336d0       0x8c examples/dfu/CMakeFiles/dfu_no_serial_nrf52840_xxAA_s140_6.1.1.dir/__/__/mesh/core/src/nrf_mesh.c.obj
 .text.nrf_mesh_init
                0x0003375c       0xe8 examples/dfu/CMakeFiles/dfu_no_serial_nrf52840_xxAA_s140_6.1.1.dir/__/__/mesh/core/src/nrf_mesh.c.obj
                0x0003375c                nrf_mesh_init
 .text.nrf_mesh_enable
                0x00033844       0xac examples/dfu/CMakeFiles/dfu_no_serial_nrf52840_xxAA_s140_6.1.1.dir/__/__/mesh/core/src/nrf_mesh.c.obj
                0x00033844                nrf_mesh_enable
 .text.nrf_mesh_packet_send
                0x000338f0        0x4 examples/dfu/CMakeFiles/dfu_no_serial_nrf52840_xxAA_s140_6.1.1.dir/__/__/mesh/core/src/nrf_mesh.c.obj
                0x000338f0                nrf_mesh_packet_send
 .text.nrf_mesh_evt_handler_add
                0x000338f4        0x4 examples/dfu/CMakeFiles/dfu_no_serial_nrf52840_xxAA_s140_6.1.1.dir/__/__/mesh/core/src/nrf_mesh.c.obj
                0x000338f4                nrf_mesh_evt_handler_add
 .text.nrf_mesh_on_sd_evt
                0x000338f8        0xa examples/dfu/CMakeFiles/dfu_no_serial_nrf52840_xxAA_s140_6.1.1.dir/__/__/mesh/core/src/nrf_mesh.c.obj
                0x000338f8                nrf_mesh_on_sd_evt
 .text.nrf_mesh_subnet_added
                0x00033902        0x2 examples/dfu/CMakeFiles/dfu_no_serial_nrf52840_xxAA_s140_6.1.1.dir/__/__/mesh/core/src/nrf_mesh.c.obj
                0x00033902                nrf_mesh_subnet_added
 .text.nrf_mesh_unique_token_get
                0x00033904       0x18 examples/dfu/CMakeFiles/dfu_no_serial_nrf52840_xxAA_s140_6.1.1.dir/__/__/mesh/core/src/nrf_mesh.c.obj
                0x00033904                nrf_mesh_unique_token_get
 .text.queue_init
                0x0003391c       0x14 examples/dfu/CMakeFiles/dfu_no_serial_nrf52840_xxAA_s140_6.1.1.dir/__/__/mesh/core/src/queue.c.obj
                0x0003391c                queue_init
 .text.queue_push
                0x00033930       0x34 examples/dfu/CMakeFiles/dfu_no_serial_nrf52840_xxAA_s140_6.1.1.dir/__/__/mesh/core/src/queue.c.obj
                0x00033930                queue_push
 .text.queue_pop
                0x00033964       0x26 examples/dfu/CMakeFiles/dfu_no_serial_nrf52840_xxAA_s140_6.1.1.dir/__/__/mesh/core/src/queue.c.obj
                0x00033964                queue_pop
 .text.queue_peek
                0x0003398a       0x10 examples/dfu/CMakeFiles/dfu_no_serial_nrf52840_xxAA_s140_6.1.1.dir/__/__/mesh/core/src/queue.c.obj
                0x0003398a                queue_peek
 .text.sd_power_reset_reason_clr
                0x0003399a        0x4 examples/dfu/CMakeFiles/dfu_no_serial_nrf52840_xxAA_s140_6.1.1.dir/__/__/mesh/core/src/hal.c.obj
 *fill*         0x0003399e        0x2 
 .text.hal_device_reset
                0x000339a0       0x2c examples/dfu/CMakeFiles/dfu_no_serial_nrf52840_xxAA_s140_6.1.1.dir/__/__/mesh/core/src/hal.c.obj
                0x000339a0                hal_device_reset
 .text.hal_lfclk_ppm_get
                0x000339cc       0x14 examples/dfu/CMakeFiles/dfu_no_serial_nrf52840_xxAA_s140_6.1.1.dir/__/__/mesh/core/src/hal.c.obj
                0x000339cc                hal_lfclk_ppm_get
 .text.hal_irq_active_get
                0x000339e0       0x10 examples/dfu/CMakeFiles/dfu_no_serial_nrf52840_xxAA_s140_6.1.1.dir/__/__/mesh/core/src/hal.c.obj
                0x000339e0                hal_irq_active_get
 .text.hal_irq_is_enabled
                0x000339f0       0x28 examples/dfu/CMakeFiles/dfu_no_serial_nrf52840_xxAA_s140_6.1.1.dir/__/__/mesh/core/src/hal.c.obj
                0x000339f0                hal_irq_is_enabled
 .text.sd_ecb_block_encrypt
                0x00033a18        0x4 examples/dfu/CMakeFiles/dfu_no_serial_nrf52840_xxAA_s140_6.1.1.dir/__/__/mesh/core/src/aes_cmac.c.obj
 .text.utils_xor.constprop.1
                0x00033a1c       0x20 examples/dfu/CMakeFiles/dfu_no_serial_nrf52840_xxAA_s140_6.1.1.dir/__/__/mesh/core/src/aes_cmac.c.obj
 .text.aes_cmac
                0x00033a3c      0x10c examples/dfu/CMakeFiles/dfu_no_serial_nrf52840_xxAA_s140_6.1.1.dir/__/__/mesh/core/src/aes_cmac.c.obj
                0x00033a3c                aes_cmac
 .text.add_evt  0x00033b48       0x50 examples/dfu/CMakeFiles/dfu_no_serial_nrf52840_xxAA_s140_6.1.1.dir/__/__/mesh/core/src/timer_scheduler.c.obj
 .text.remove_evt
                0x00033b98       0x50 examples/dfu/CMakeFiles/dfu_no_serial_nrf52840_xxAA_s140_6.1.1.dir/__/__/mesh/core/src/timer_scheduler.c.obj
 .text.timer_cb
                0x00033be8        0xc examples/dfu/CMakeFiles/dfu_no_serial_nrf52840_xxAA_s140_6.1.1.dir/__/__/mesh/core/src/timer_scheduler.c.obj
 .text.setup_timeout.isra.0
                0x00033bf4       0x1c examples/dfu/CMakeFiles/dfu_no_serial_nrf52840_xxAA_s140_6.1.1.dir/__/__/mesh/core/src/timer_scheduler.c.obj
 .text.flag_event_cb
                0x00033c10       0xa4 examples/dfu/CMakeFiles/dfu_no_serial_nrf52840_xxAA_s140_6.1.1.dir/__/__/mesh/core/src/timer_scheduler.c.obj
 .text.timer_sch_init
                0x00033cb4       0x2c examples/dfu/CMakeFiles/dfu_no_serial_nrf52840_xxAA_s140_6.1.1.dir/__/__/mesh/core/src/timer_scheduler.c.obj
                0x00033cb4                timer_sch_init
 .text.timer_sch_schedule
                0x00033ce0       0x44 examples/dfu/CMakeFiles/dfu_no_serial_nrf52840_xxAA_s140_6.1.1.dir/__/__/mesh/core/src/timer_scheduler.c.obj
                0x00033ce0                timer_sch_schedule
 .text.timer_sch_abort
                0x00033d24       0x2e examples/dfu/CMakeFiles/dfu_no_serial_nrf52840_xxAA_s140_6.1.1.dir/__/__/mesh/core/src/timer_scheduler.c.obj
                0x00033d24                timer_sch_abort
 .text.timer_sch_reschedule
                0x00033d52       0x38 examples/dfu/CMakeFiles/dfu_no_serial_nrf52840_xxAA_s140_6.1.1.dir/__/__/mesh/core/src/timer_scheduler.c.obj
                0x00033d52                timer_sch_reschedule
 .text.timer_init
                0x00033d8a       0x1a examples/dfu/CMakeFiles/dfu_no_serial_nrf52840_xxAA_s140_6.1.1.dir/__/__/mesh/core/src/timer.c.obj
                0x00033d8a                timer_init
 .text.timer_now
                0x00033da4       0x48 examples/dfu/CMakeFiles/dfu_no_serial_nrf52840_xxAA_s140_6.1.1.dir/__/__/mesh/core/src/timer.c.obj
                0x00033da4                timer_now
 .text.nrf_mesh_timer_tail_handle
                0x00033dec       0x34 examples/dfu/CMakeFiles/dfu_no_serial_nrf52840_xxAA_s140_6.1.1.dir/__/__/mesh/core/src/timer.c.obj
                0x00033dec                nrf_mesh_timer_tail_handle
 .text.nrf_mesh_timer_ovfw_handle
                0x00033e20       0x98 examples/dfu/CMakeFiles/dfu_no_serial_nrf52840_xxAA_s140_6.1.1.dir/__/__/mesh/core/src/timer.c.obj
                0x00033e20                nrf_mesh_timer_ovfw_handle
 .text.timer_start
                0x00033eb8       0xac examples/dfu/CMakeFiles/dfu_no_serial_nrf52840_xxAA_s140_6.1.1.dir/__/__/mesh/core/src/timer.c.obj
                0x00033eb8                timer_start
 .text.timer_stop
                0x00033f64       0x30 examples/dfu/CMakeFiles/dfu_no_serial_nrf52840_xxAA_s140_6.1.1.dir/__/__/mesh/core/src/timer.c.obj
                0x00033f64                timer_stop
 .text.sd_rand_application_bytes_available_get
                0x00033f94        0x4 examples/dfu/CMakeFiles/dfu_no_serial_nrf52840_xxAA_s140_6.1.1.dir/__/__/mesh/core/src/rand.c.obj
 .text.sd_rand_application_vector_get
                0x00033f98        0x4 examples/dfu/CMakeFiles/dfu_no_serial_nrf52840_xxAA_s140_6.1.1.dir/__/__/mesh/core/src/rand.c.obj
 .text.rand_prng_get
                0x00033f9c       0x24 examples/dfu/CMakeFiles/dfu_no_serial_nrf52840_xxAA_s140_6.1.1.dir/__/__/mesh/core/src/rand.c.obj
                0x00033f9c                rand_prng_get
 .text.rand_hw_rng_get
                0x00033fc0       0x44 examples/dfu/CMakeFiles/dfu_no_serial_nrf52840_xxAA_s140_6.1.1.dir/__/__/mesh/core/src/rand.c.obj
                0x00033fc0                rand_hw_rng_get
 .text.rand_prng_seed
                0x00034004       0x34 examples/dfu/CMakeFiles/dfu_no_serial_nrf52840_xxAA_s140_6.1.1.dir/__/__/mesh/core/src/rand.c.obj
                0x00034004                rand_prng_seed
 .text.mesh_opt_init
                0x00034038        0x2 examples/dfu/CMakeFiles/dfu_no_serial_nrf52840_xxAA_s140_6.1.1.dir/__/__/mesh/core/src/mesh_opt.c.obj
                0x00034038                mesh_opt_init
 .text.sd_radio_session_open
                0x0003403a        0x4 examples/dfu/CMakeFiles/dfu_no_serial_nrf52840_xxAA_s140_6.1.1.dir/__/__/mesh/core/src/timeslot.c.obj
 .text.sd_radio_session_close
                0x0003403e        0x4 examples/dfu/CMakeFiles/dfu_no_serial_nrf52840_xxAA_s140_6.1.1.dir/__/__/mesh/core/src/timeslot.c.obj
 .text.sd_radio_request
                0x00034042        0x4 examples/dfu/CMakeFiles/dfu_no_serial_nrf52840_xxAA_s140_6.1.1.dir/__/__/mesh/core/src/timeslot.c.obj
 *fill*         0x00034046        0x2 
 .text.end_timer_handler
                0x00034048       0x24 examples/dfu/CMakeFiles/dfu_no_serial_nrf52840_xxAA_s140_6.1.1.dir/__/__/mesh/core/src/timeslot.c.obj
 .text.get_end_time.isra.3
                0x0003406c       0x20 examples/dfu/CMakeFiles/dfu_no_serial_nrf52840_xxAA_s140_6.1.1.dir/__/__/mesh/core/src/timeslot.c.obj
 .text.on_ts_begin.constprop.9
                0x0003408c       0x48 examples/dfu/CMakeFiles/dfu_no_serial_nrf52840_xxAA_s140_6.1.1.dir/__/__/mesh/core/src/timeslot.c.obj
 .text.handle_extend_end.constprop.5
                0x000340d4       0x88 examples/dfu/CMakeFiles/dfu_no_serial_nrf52840_xxAA_s140_6.1.1.dir/__/__/mesh/core/src/timeslot.c.obj
 .text.radio_signal_callback
                0x0003415c      0x12c examples/dfu/CMakeFiles/dfu_no_serial_nrf52840_xxAA_s140_6.1.1.dir/__/__/mesh/core/src/timeslot.c.obj
 .text.timeslot_sd_event_handler
                0x00034288       0x60 examples/dfu/CMakeFiles/dfu_no_serial_nrf52840_xxAA_s140_6.1.1.dir/__/__/mesh/core/src/timeslot.c.obj
                0x00034288                timeslot_sd_event_handler
 .text.timeslot_init
                0x000342e8       0x50 examples/dfu/CMakeFiles/dfu_no_serial_nrf52840_xxAA_s140_6.1.1.dir/__/__/mesh/core/src/timeslot.c.obj
                0x000342e8                timeslot_init
 .text.timeslot_start
                0x00034338       0x48 examples/dfu/CMakeFiles/dfu_no_serial_nrf52840_xxAA_s140_6.1.1.dir/__/__/mesh/core/src/timeslot.c.obj
                0x00034338                timeslot_start
 .text.timeslot_end_is_pending
                0x00034380       0x28 examples/dfu/CMakeFiles/dfu_no_serial_nrf52840_xxAA_s140_6.1.1.dir/__/__/mesh/core/src/timeslot.c.obj
                0x00034380                timeslot_end_is_pending
 .text.timeslot_length_get
                0x000343a8        0xc examples/dfu/CMakeFiles/dfu_no_serial_nrf52840_xxAA_s140_6.1.1.dir/__/__/mesh/core/src/timeslot.c.obj
                0x000343a8                timeslot_length_get
 .text.timeslot_remaining_time_get
                0x000343b4       0x24 examples/dfu/CMakeFiles/dfu_no_serial_nrf52840_xxAA_s140_6.1.1.dir/__/__/mesh/core/src/timeslot.c.obj
                0x000343b4                timeslot_remaining_time_get
 .text.timeslot_is_in_cb
                0x000343d8        0xc examples/dfu/CMakeFiles/dfu_no_serial_nrf52840_xxAA_s140_6.1.1.dir/__/__/mesh/core/src/timeslot.c.obj
                0x000343d8                timeslot_is_in_cb
 .text.timeslot_trigger
                0x000343e4       0x24 examples/dfu/CMakeFiles/dfu_no_serial_nrf52840_xxAA_s140_6.1.1.dir/__/__/mesh/core/src/timeslot.c.obj
                0x000343e4                timeslot_trigger
 .text.timeslot_stop
                0x00034408       0x1c examples/dfu/CMakeFiles/dfu_no_serial_nrf52840_xxAA_s140_6.1.1.dir/__/__/mesh/core/src/timeslot.c.obj
                0x00034408                timeslot_stop
 .text.timeslot_restart
                0x00034424       0x24 examples/dfu/CMakeFiles/dfu_no_serial_nrf52840_xxAA_s140_6.1.1.dir/__/__/mesh/core/src/timeslot.c.obj
                0x00034424                timeslot_restart
 .text.timeslot_state_lock
                0x00034448       0x24 examples/dfu/CMakeFiles/dfu_no_serial_nrf52840_xxAA_s140_6.1.1.dir/__/__/mesh/core/src/timeslot.c.obj
                0x00034448                timeslot_state_lock
 .text.timer_mut_unlock
                0x0003446c       0x10 examples/dfu/CMakeFiles/dfu_no_serial_nrf52840_xxAA_s140_6.1.1.dir/__/__/mesh/core/src/timeslot_timer.c.obj
 .text.ts_timer_order_cb
                0x0003447c       0x64 examples/dfu/CMakeFiles/dfu_no_serial_nrf52840_xxAA_s140_6.1.1.dir/__/__/mesh/core/src/timeslot_timer.c.obj
                0x0003447c                ts_timer_order_cb
 .text.ts_timer_now
                0x000344e0       0x40 examples/dfu/CMakeFiles/dfu_no_serial_nrf52840_xxAA_s140_6.1.1.dir/__/__/mesh/core/src/timeslot_timer.c.obj
                0x000344e0                ts_timer_now
 .text.ts_timer_event_handler
                0x00034520       0x68 examples/dfu/CMakeFiles/dfu_no_serial_nrf52840_xxAA_s140_6.1.1.dir/__/__/mesh/core/src/timeslot_timer.c.obj
                0x00034520                ts_timer_event_handler
 .text.ts_timer_to_device_time
                0x00034588        0xc examples/dfu/CMakeFiles/dfu_no_serial_nrf52840_xxAA_s140_6.1.1.dir/__/__/mesh/core/src/timeslot_timer.c.obj
                0x00034588                ts_timer_to_device_time
 .text.ts_timer_on_ts_begin
                0x00034594       0x64 examples/dfu/CMakeFiles/dfu_no_serial_nrf52840_xxAA_s140_6.1.1.dir/__/__/mesh/core/src/timeslot_timer.c.obj
                0x00034594                ts_timer_on_ts_begin
 .text.ts_timer_on_ts_end
                0x000345f8       0x48 examples/dfu/CMakeFiles/dfu_no_serial_nrf52840_xxAA_s140_6.1.1.dir/__/__/mesh/core/src/timeslot_timer.c.obj
                0x000345f8                ts_timer_on_ts_end
 .text.trigger_event_handler
                0x00034640       0x1c examples/dfu/CMakeFiles/dfu_no_serial_nrf52840_xxAA_s140_6.1.1.dir/__/__/mesh/core/src/bearer_event.c.obj
 .text.bearer_event_init
                0x0003465c       0x58 examples/dfu/CMakeFiles/dfu_no_serial_nrf52840_xxAA_s140_6.1.1.dir/__/__/mesh/core/src/bearer_event.c.obj
                0x0003465c                bearer_event_init
 .text.bearer_event_start
                0x000346b4       0x44 examples/dfu/CMakeFiles/dfu_no_serial_nrf52840_xxAA_s140_6.1.1.dir/__/__/mesh/core/src/bearer_event.c.obj
                0x000346b4                bearer_event_start
 .text.bearer_event_critical_section_begin
                0x000346f8       0x80 examples/dfu/CMakeFiles/dfu_no_serial_nrf52840_xxAA_s140_6.1.1.dir/__/__/mesh/core/src/bearer_event.c.obj
                0x000346f8                bearer_event_critical_section_begin
 .text.bearer_event_critical_section_end
                0x00034778       0x60 examples/dfu/CMakeFiles/dfu_no_serial_nrf52840_xxAA_s140_6.1.1.dir/__/__/mesh/core/src/bearer_event.c.obj
                0x00034778                bearer_event_critical_section_end
 .text.bearer_event_flag_add
                0x000347d8       0x3c examples/dfu/CMakeFiles/dfu_no_serial_nrf52840_xxAA_s140_6.1.1.dir/__/__/mesh/core/src/bearer_event.c.obj
                0x000347d8                bearer_event_flag_add
 .text.bearer_event_flag_set
                0x00034814       0x44 examples/dfu/CMakeFiles/dfu_no_serial_nrf52840_xxAA_s140_6.1.1.dir/__/__/mesh/core/src/bearer_event.c.obj
                0x00034814                bearer_event_flag_set
 .text.bearer_event_sequential_add
                0x00034858       0x2e examples/dfu/CMakeFiles/dfu_no_serial_nrf52840_xxAA_s140_6.1.1.dir/__/__/mesh/core/src/bearer_event.c.obj
                0x00034858                bearer_event_sequential_add
 *fill*         0x00034886        0x2 
 .text.bearer_event_sequential_post
                0x00034888       0x44 examples/dfu/CMakeFiles/dfu_no_serial_nrf52840_xxAA_s140_6.1.1.dir/__/__/mesh/core/src/bearer_event.c.obj
                0x00034888                bearer_event_sequential_post
 .text.bearer_event_sequential_pending
                0x000348cc       0x10 examples/dfu/CMakeFiles/dfu_no_serial_nrf52840_xxAA_s140_6.1.1.dir/__/__/mesh/core/src/bearer_event.c.obj
                0x000348cc                bearer_event_sequential_pending
 .text.bearer_event_handler
                0x000348dc       0xe4 examples/dfu/CMakeFiles/dfu_no_serial_nrf52840_xxAA_s140_6.1.1.dir/__/__/mesh/core/src/bearer_event.c.obj
                0x000348dc                bearer_event_handler
 .text.QDEC_IRQHandler
                0x000349c0        0x4 examples/dfu/CMakeFiles/dfu_no_serial_nrf52840_xxAA_s140_6.1.1.dir/__/__/mesh/core/src/bearer_event.c.obj
                0x000349c0                QDEC_IRQHandler
 .text.bearer_event_in_correct_irq_priority
                0x000349c4       0x74 examples/dfu/CMakeFiles/dfu_no_serial_nrf52840_xxAA_s140_6.1.1.dir/__/__/mesh/core/src/bearer_event.c.obj
                0x000349c4                bearer_event_in_correct_irq_priority
 .text.sd_ecb_block_encrypt
                0x00034a38        0x4 examples/dfu/CMakeFiles/dfu_no_serial_nrf52840_xxAA_s140_6.1.1.dir/__/__/mesh/core/src/enc.c.obj
 .text.enc_aes_encrypt
                0x00034a3c       0x32 examples/dfu/CMakeFiles/dfu_no_serial_nrf52840_xxAA_s140_6.1.1.dir/__/__/mesh/core/src/enc.c.obj
                0x00034a3c                enc_aes_encrypt
 .text.enc_aes_cmac
                0x00034a6e        0x4 examples/dfu/CMakeFiles/dfu_no_serial_nrf52840_xxAA_s140_6.1.1.dir/__/__/mesh/core/src/enc.c.obj
                0x00034a6e                enc_aes_cmac
 .text.enc_aes_ccm_encrypt
                0x00034a72        0x4 examples/dfu/CMakeFiles/dfu_no_serial_nrf52840_xxAA_s140_6.1.1.dir/__/__/mesh/core/src/enc.c.obj
                0x00034a72                enc_aes_ccm_encrypt
 .text.enc_aes_ccm_decrypt
                0x00034a76        0x4 examples/dfu/CMakeFiles/dfu_no_serial_nrf52840_xxAA_s140_6.1.1.dir/__/__/mesh/core/src/enc.c.obj
                0x00034a76                enc_aes_ccm_decrypt
 .text.enc_nonce_generate
                0x00034a7a       0xbc examples/dfu/CMakeFiles/dfu_no_serial_nrf52840_xxAA_s140_6.1.1.dir/__/__/mesh/core/src/enc.c.obj
                0x00034a7a                enc_nonce_generate
 .text.enc_s1   0x00034b36       0x2c examples/dfu/CMakeFiles/dfu_no_serial_nrf52840_xxAA_s140_6.1.1.dir/__/__/mesh/core/src/enc.c.obj
                0x00034b36                enc_s1
 .text.enc_k1   0x00034b62       0x3c examples/dfu/CMakeFiles/dfu_no_serial_nrf52840_xxAA_s140_6.1.1.dir/__/__/mesh/core/src/enc.c.obj
                0x00034b62                enc_k1
 *fill*         0x00034b9e        0x2 
 .text.enc_k2   0x00034ba0       0xc0 examples/dfu/CMakeFiles/dfu_no_serial_nrf52840_xxAA_s140_6.1.1.dir/__/__/mesh/core/src/enc.c.obj
                0x00034ba0                enc_k2
 .text.enc_k3   0x00034c60       0x5c examples/dfu/CMakeFiles/dfu_no_serial_nrf52840_xxAA_s140_6.1.1.dir/__/__/mesh/core/src/enc.c.obj
                0x00034c60                enc_k3
 .text.enc_k4   0x00034cbc       0x54 examples/dfu/CMakeFiles/dfu_no_serial_nrf52840_xxAA_s140_6.1.1.dir/__/__/mesh/core/src/enc.c.obj
                0x00034cbc                enc_k4
 .text.allocate_packet
                0x00034d10       0x6e examples/dfu/CMakeFiles/dfu_no_serial_nrf52840_xxAA_s140_6.1.1.dir/__/__/mesh/core/src/network.c.obj
 *fill*         0x00034d7e        0x2 
 .text.network_init
                0x00034d80       0x24 examples/dfu/CMakeFiles/dfu_no_serial_nrf52840_xxAA_s140_6.1.1.dir/__/__/mesh/core/src/network.c.obj
                0x00034d80                network_init
 .text.network_enable
                0x00034da4        0xe examples/dfu/CMakeFiles/dfu_no_serial_nrf52840_xxAA_s140_6.1.1.dir/__/__/mesh/core/src/network.c.obj
                0x00034da4                network_enable
 .text.network_packet_alloc
                0x00034db2       0x42 examples/dfu/CMakeFiles/dfu_no_serial_nrf52840_xxAA_s140_6.1.1.dir/__/__/mesh/core/src/network.c.obj
                0x00034db2                network_packet_alloc
 .text.network_packet_send
                0x00034df4       0xe0 examples/dfu/CMakeFiles/dfu_no_serial_nrf52840_xxAA_s140_6.1.1.dir/__/__/mesh/core/src/network.c.obj
                0x00034df4                network_packet_send
 .text.network_packet_in
                0x00034ed4      0x2ac examples/dfu/CMakeFiles/dfu_no_serial_nrf52840_xxAA_s140_6.1.1.dir/__/__/mesh/core/src/network.c.obj
                0x00034ed4                network_packet_in
 .text.nonce_type_get
                0x00035180       0x16 examples/dfu/CMakeFiles/dfu_no_serial_nrf52840_xxAA_s140_6.1.1.dir/__/__/mesh/core/src/net_packet.c.obj
 .text.header_transfuscate
                0x00035196       0x54 examples/dfu/CMakeFiles/dfu_no_serial_nrf52840_xxAA_s140_6.1.1.dir/__/__/mesh/core/src/net_packet.c.obj
 *fill*         0x000351ea        0x2 
 .text.try_decrypt
                0x000351ec      0x18c examples/dfu/CMakeFiles/dfu_no_serial_nrf52840_xxAA_s140_6.1.1.dir/__/__/mesh/core/src/net_packet.c.obj
 .text.net_packet_decrypt
                0x00035378       0x94 examples/dfu/CMakeFiles/dfu_no_serial_nrf52840_xxAA_s140_6.1.1.dir/__/__/mesh/core/src/net_packet.c.obj
                0x00035378                net_packet_decrypt
 .text.net_packet_encrypt
                0x0003540c       0x7e examples/dfu/CMakeFiles/dfu_no_serial_nrf52840_xxAA_s140_6.1.1.dir/__/__/mesh/core/src/net_packet.c.obj
                0x0003540c                net_packet_encrypt
 .text.net_packet_header_set
                0x0003548a       0xaa examples/dfu/CMakeFiles/dfu_no_serial_nrf52840_xxAA_s140_6.1.1.dir/__/__/mesh/core/src/net_packet.c.obj
                0x0003548a                net_packet_header_set
 .text.net_packet_payload_len_get
                0x00035534       0x10 examples/dfu/CMakeFiles/dfu_no_serial_nrf52840_xxAA_s140_6.1.1.dir/__/__/mesh/core/src/net_packet.c.obj
                0x00035534                net_packet_payload_len_get
 .text.net_packet_from_payload
                0x00035544        0x4 examples/dfu/CMakeFiles/dfu_no_serial_nrf52840_xxAA_s140_6.1.1.dir/__/__/mesh/core/src/net_packet.c.obj
                0x00035544                net_packet_from_payload
 .text.net_packet_obfuscation_start_get
                0x00035548        0x4 examples/dfu/CMakeFiles/dfu_no_serial_nrf52840_xxAA_s140_6.1.1.dir/__/__/mesh/core/src/net_packet.c.obj
                0x00035548                net_packet_obfuscation_start_get
 .text.stage_get_available
                0x0003554c       0x24 examples/dfu/CMakeFiles/dfu_no_serial_nrf52840_xxAA_s140_6.1.1.dir/__/__/mesh/core/src/msqueue.c.obj
 .text.msq_get  0x00035570       0x38 examples/dfu/CMakeFiles/dfu_no_serial_nrf52840_xxAA_s140_6.1.1.dir/__/__/mesh/core/src/msqueue.c.obj
                0x00035570                msq_get
 .text.msq_move
                0x000355a8       0x2e examples/dfu/CMakeFiles/dfu_no_serial_nrf52840_xxAA_s140_6.1.1.dir/__/__/mesh/core/src/msqueue.c.obj
                0x000355a8                msq_move
 .text.msq_reset
                0x000355d6       0x20 examples/dfu/CMakeFiles/dfu_no_serial_nrf52840_xxAA_s140_6.1.1.dir/__/__/mesh/core/src/msqueue.c.obj
                0x000355d6                msq_reset
 .text.msq_init
                0x000355f6       0x48 examples/dfu/CMakeFiles/dfu_no_serial_nrf52840_xxAA_s140_6.1.1.dir/__/__/mesh/core/src/msqueue.c.obj
                0x000355f6                msq_init
 .text.msq_available
                0x0003563e       0x26 examples/dfu/CMakeFiles/dfu_no_serial_nrf52840_xxAA_s140_6.1.1.dir/__/__/mesh/core/src/msqueue.c.obj
                0x0003563e                msq_available
 .text.nrf_mesh_keygen_aid
                0x00035664       0x12 examples/dfu/CMakeFiles/dfu_no_serial_nrf52840_xxAA_s140_6.1.1.dir/__/__/mesh/core/src/nrf_mesh_keygen.c.obj
                0x00035664                nrf_mesh_keygen_aid
 .text.nrf_mesh_keygen_network_secmat
                0x00035676       0x20 examples/dfu/CMakeFiles/dfu_no_serial_nrf52840_xxAA_s140_6.1.1.dir/__/__/mesh/core/src/nrf_mesh_keygen.c.obj
                0x00035676                nrf_mesh_keygen_network_secmat
 *fill*         0x00035696        0x2 
 .text.nrf_mesh_keygen_beacon_secmat
                0x00035698       0x50 examples/dfu/CMakeFiles/dfu_no_serial_nrf52840_xxAA_s140_6.1.1.dir/__/__/mesh/core/src/nrf_mesh_keygen.c.obj
                0x00035698                nrf_mesh_keygen_beacon_secmat
 .text.nrf_mesh_keygen_virtual_address
                0x000356e8       0x50 examples/dfu/CMakeFiles/dfu_no_serial_nrf52840_xxAA_s140_6.1.1.dir/__/__/mesh/core/src/nrf_mesh_keygen.c.obj
                0x000356e8                nrf_mesh_keygen_virtual_address
 .text.list_insert
                0x00035738       0x1c examples/dfu/CMakeFiles/dfu_no_serial_nrf52840_xxAA_s140_6.1.1.dir/__/__/mesh/core/src/list.c.obj
 .text.list_add
                0x00035754       0x42 examples/dfu/CMakeFiles/dfu_no_serial_nrf52840_xxAA_s140_6.1.1.dir/__/__/mesh/core/src/list.c.obj
                0x00035754                list_add
 .text.list_remove
                0x00035796       0x3a examples/dfu/CMakeFiles/dfu_no_serial_nrf52840_xxAA_s140_6.1.1.dir/__/__/mesh/core/src/list.c.obj
                0x00035796                list_remove
 .text.list_compare_add
                0x000357d0       0x56 examples/dfu/CMakeFiles/dfu_no_serial_nrf52840_xxAA_s140_6.1.1.dir/__/__/mesh/core/src/list.c.obj
                0x000357d0                list_compare_add
 *fill*         0x00035826        0x2 
 .text.log_callback_rtt
                0x00035828       0x2c examples/dfu/CMakeFiles/dfu_no_serial_nrf52840_xxAA_s140_6.1.1.dir/__/__/mesh/core/src/log.c.obj
                0x00035828                log_callback_rtt
 .text.log_init
                0x00035854       0x1c examples/dfu/CMakeFiles/dfu_no_serial_nrf52840_xxAA_s140_6.1.1.dir/__/__/mesh/core/src/log.c.obj
                0x00035854                log_init
 .text.log_vprintf
                0x00035870       0x1c examples/dfu/CMakeFiles/dfu_no_serial_nrf52840_xxAA_s140_6.1.1.dir/__/__/mesh/core/src/log.c.obj
                0x00035870                log_vprintf
 .text.log_printf
                0x0003588c       0x18 examples/dfu/CMakeFiles/dfu_no_serial_nrf52840_xxAA_s140_6.1.1.dir/__/__/mesh/core/src/log.c.obj
                0x0003588c                log_printf
 .text.get_area_end
                0x000358a4        0xc examples/dfu/CMakeFiles/dfu_no_serial_nrf52840_xxAA_s140_6.1.1.dir/__/__/mesh/core/src/flash_manager.c.obj
 .text.handle_matches_filter
                0x000358b0       0x26 examples/dfu/CMakeFiles/dfu_no_serial_nrf52840_xxAA_s140_6.1.1.dir/__/__/mesh/core/src/flash_manager.c.obj
 .text.flash_area_is_blank
                0x000358d6       0x2c examples/dfu/CMakeFiles/dfu_no_serial_nrf52840_xxAA_s140_6.1.1.dir/__/__/mesh/core/src/flash_manager.c.obj
 *fill*         0x00035902        0x2 
 .text.get_packet_buffer
                0x00035904       0x20 examples/dfu/CMakeFiles/dfu_no_serial_nrf52840_xxAA_s140_6.1.1.dir/__/__/mesh/core/src/flash_manager.c.obj
 .text.flash    0x00035924       0x1c examples/dfu/CMakeFiles/dfu_no_serial_nrf52840_xxAA_s140_6.1.1.dir/__/__/mesh/core/src/flash_manager.c.obj
 .text.free_packet_buffer
                0x00035940       0x3c examples/dfu/CMakeFiles/dfu_no_serial_nrf52840_xxAA_s140_6.1.1.dir/__/__/mesh/core/src/flash_manager.c.obj
 .text.iterate_callback_entry_copy
                0x0003597c       0x38 examples/dfu/CMakeFiles/dfu_no_serial_nrf52840_xxAA_s140_6.1.1.dir/__/__/mesh/core/src/flash_manager.c.obj
 .text.reserve_action_buffer
                0x000359b4       0x24 examples/dfu/CMakeFiles/dfu_no_serial_nrf52840_xxAA_s140_6.1.1.dir/__/__/mesh/core/src/flash_manager.c.obj
 .text.commit_action_buffer
                0x000359d8       0x18 examples/dfu/CMakeFiles/dfu_no_serial_nrf52840_xxAA_s140_6.1.1.dir/__/__/mesh/core/src/flash_manager.c.obj
 .text.schedule_processing
                0x000359f0        0xc examples/dfu/CMakeFiles/dfu_no_serial_nrf52840_xxAA_s140_6.1.1.dir/__/__/mesh/core/src/flash_manager.c.obj
 .text.get_next_entry
                0x000359fc       0x34 examples/dfu/CMakeFiles/dfu_no_serial_nrf52840_xxAA_s140_6.1.1.dir/__/__/mesh/core/src/flash_manager.c.obj
 .text.get_last_entry.isra.1
                0x00035a30       0x30 examples/dfu/CMakeFiles/dfu_no_serial_nrf52840_xxAA_s140_6.1.1.dir/__/__/mesh/core/src/flash_manager.c.obj
 .text.process_action_queue
                0x00035a60      0x3fc examples/dfu/CMakeFiles/dfu_no_serial_nrf52840_xxAA_s140_6.1.1.dir/__/__/mesh/core/src/flash_manager.c.obj
 .text.flash_op_ended_callback
                0x00035e5c       0x24 examples/dfu/CMakeFiles/dfu_no_serial_nrf52840_xxAA_s140_6.1.1.dir/__/__/mesh/core/src/flash_manager.c.obj
 .text.flash_manager_init
                0x00035e80       0x68 examples/dfu/CMakeFiles/dfu_no_serial_nrf52840_xxAA_s140_6.1.1.dir/__/__/mesh/core/src/flash_manager.c.obj
                0x00035e80                flash_manager_init
 .text.flash_manager_remove
                0x00035ee8       0x24 examples/dfu/CMakeFiles/dfu_no_serial_nrf52840_xxAA_s140_6.1.1.dir/__/__/mesh/core/src/flash_manager.c.obj
                0x00035ee8                flash_manager_remove
 .text.flash_manager_entries_read
                0x00035f0c       0xea examples/dfu/CMakeFiles/dfu_no_serial_nrf52840_xxAA_s140_6.1.1.dir/__/__/mesh/core/src/flash_manager.c.obj
                0x00035f0c                flash_manager_entries_read
 *fill*         0x00035ff6        0x2 
 .text.flash_manager_entry_read
                0x00035ff8       0x50 examples/dfu/CMakeFiles/dfu_no_serial_nrf52840_xxAA_s140_6.1.1.dir/__/__/mesh/core/src/flash_manager.c.obj
                0x00035ff8                flash_manager_entry_read
 .text.flash_manager_entry_count_get
                0x00036048       0x1e examples/dfu/CMakeFiles/dfu_no_serial_nrf52840_xxAA_s140_6.1.1.dir/__/__/mesh/core/src/flash_manager.c.obj
                0x00036048                flash_manager_entry_count_get
 .text.flash_manager_entry_alloc
                0x00036066       0x5c examples/dfu/CMakeFiles/dfu_no_serial_nrf52840_xxAA_s140_6.1.1.dir/__/__/mesh/core/src/flash_manager.c.obj
                0x00036066                flash_manager_entry_alloc
 *fill*         0x000360c2        0x2 
 .text.flash_manager_entry_commit
                0x000360c4       0x2c examples/dfu/CMakeFiles/dfu_no_serial_nrf52840_xxAA_s140_6.1.1.dir/__/__/mesh/core/src/flash_manager.c.obj
                0x000360c4                flash_manager_entry_commit
 .text.flash_manager_entry_invalidate
                0x000360f0       0x4e examples/dfu/CMakeFiles/dfu_no_serial_nrf52840_xxAA_s140_6.1.1.dir/__/__/mesh/core/src/flash_manager.c.obj
                0x000360f0                flash_manager_entry_invalidate
 *fill*         0x0003613e        0x2 
 .text.flash_manager_add
                0x00036140      0x220 examples/dfu/CMakeFiles/dfu_no_serial_nrf52840_xxAA_s140_6.1.1.dir/__/__/mesh/core/src/flash_manager.c.obj
                0x00036140                flash_manager_add
 .text.flash_manager_mem_listener_register
                0x00036360       0x30 examples/dfu/CMakeFiles/dfu_no_serial_nrf52840_xxAA_s140_6.1.1.dir/__/__/mesh/core/src/flash_manager.c.obj
                0x00036360                flash_manager_mem_listener_register
 .text.flash_manager_is_stable
                0x00036390       0x20 examples/dfu/CMakeFiles/dfu_no_serial_nrf52840_xxAA_s140_6.1.1.dir/__/__/mesh/core/src/flash_manager.c.obj
                0x00036390                flash_manager_is_stable
 .text.flash_manager_on_defrag_end
                0x000363b0       0x4c examples/dfu/CMakeFiles/dfu_no_serial_nrf52840_xxAA_s140_6.1.1.dir/__/__/mesh/core/src/flash_manager.c.obj
                0x000363b0                flash_manager_on_defrag_end
 .text.flash_manager_recovery_page_get
                0x000363fc        0x4 examples/dfu/CMakeFiles/dfu_no_serial_nrf52840_xxAA_s140_6.1.1.dir/__/__/mesh/core/src/flash_manager.c.obj
                0x000363fc                flash_manager_recovery_page_get
 .text.flash_manager_action_queue_empty_cb_set
                0x00036400       0x1c examples/dfu/CMakeFiles/dfu_no_serial_nrf52840_xxAA_s140_6.1.1.dir/__/__/mesh/core/src/flash_manager.c.obj
                0x00036400                flash_manager_action_queue_empty_cb_set
 .text.utils_xor
                0x0003641c       0x14 examples/dfu/CMakeFiles/dfu_no_serial_nrf52840_xxAA_s140_6.1.1.dir/__/__/mesh/core/src/ccm_soft.c.obj
 .text.sd_ecb_block_encrypt
                0x00036430        0x4 examples/dfu/CMakeFiles/dfu_no_serial_nrf52840_xxAA_s140_6.1.1.dir/__/__/mesh/core/src/ccm_soft.c.obj
 .text.ccm_soft_crypt
                0x00036434       0x4c examples/dfu/CMakeFiles/dfu_no_serial_nrf52840_xxAA_s140_6.1.1.dir/__/__/mesh/core/src/ccm_soft.c.obj
 .text.ccm_soft_authenticate_blocks
                0x00036480       0x6c examples/dfu/CMakeFiles/dfu_no_serial_nrf52840_xxAA_s140_6.1.1.dir/__/__/mesh/core/src/ccm_soft.c.obj
 .text.ccm_soft_authenticate
                0x000364ec       0x94 examples/dfu/CMakeFiles/dfu_no_serial_nrf52840_xxAA_s140_6.1.1.dir/__/__/mesh/core/src/ccm_soft.c.obj
 .text.ccm_soft_encrypt
                0x00036580       0x54 examples/dfu/CMakeFiles/dfu_no_serial_nrf52840_xxAA_s140_6.1.1.dir/__/__/mesh/core/src/ccm_soft.c.obj
                0x00036580                ccm_soft_encrypt
 .text.ccm_soft_decrypt
                0x000365d4       0x9c examples/dfu/CMakeFiles/dfu_no_serial_nrf52840_xxAA_s140_6.1.1.dir/__/__/mesh/core/src/ccm_soft.c.obj
                0x000365d4                ccm_soft_decrypt
 .text.iv_index_get.isra.0
                0x00036670       0x34 examples/dfu/CMakeFiles/dfu_no_serial_nrf52840_xxAA_s140_6.1.1.dir/__/__/mesh/core/src/replay_cache.c.obj
 .text.evt_handler
                0x000366a4       0x60 examples/dfu/CMakeFiles/dfu_no_serial_nrf52840_xxAA_s140_6.1.1.dir/__/__/mesh/core/src/replay_cache.c.obj
 .text.replay_cache_enable
                0x00036704       0x10 examples/dfu/CMakeFiles/dfu_no_serial_nrf52840_xxAA_s140_6.1.1.dir/__/__/mesh/core/src/replay_cache.c.obj
                0x00036704                replay_cache_enable
 .text.replay_cache_add
                0x00036714       0x78 examples/dfu/CMakeFiles/dfu_no_serial_nrf52840_xxAA_s140_6.1.1.dir/__/__/mesh/core/src/replay_cache.c.obj
                0x00036714                replay_cache_add
 .text.replay_cache_has_elem
                0x0003678c       0x50 examples/dfu/CMakeFiles/dfu_no_serial_nrf52840_xxAA_s140_6.1.1.dir/__/__/mesh/core/src/replay_cache.c.obj
                0x0003678c                replay_cache_has_elem
 .text.replay_cache_clear
                0x000367dc       0x18 examples/dfu/CMakeFiles/dfu_no_serial_nrf52840_xxAA_s140_6.1.1.dir/__/__/mesh/core/src/replay_cache.c.obj
                0x000367dc                replay_cache_clear
 .text.replay_cache_init
                0x000367f4       0x14 examples/dfu/CMakeFiles/dfu_no_serial_nrf52840_xxAA_s140_6.1.1.dir/__/__/mesh/core/src/replay_cache.c.obj
                0x000367f4                replay_cache_init
 .text.beacon_create
                0x00036808       0x46 examples/dfu/CMakeFiles/dfu_no_serial_nrf52840_xxAA_s140_6.1.1.dir/__/__/mesh/core/src/beacon.c.obj
                0x00036808                beacon_create
 *fill*         0x0003684e        0x2 
 .text.beacon_packet_in
                0x00036850      0x130 examples/dfu/CMakeFiles/dfu_no_serial_nrf52840_xxAA_s140_6.1.1.dir/__/__/mesh/core/src/beacon.c.obj
                0x00036850                beacon_packet_in
 .text.entry_get
                0x00036980       0x78 examples/dfu/CMakeFiles/dfu_no_serial_nrf52840_xxAA_s140_6.1.1.dir/__/__/mesh/core/src/flash_manager_internal.c.obj
                0x00036980                entry_get
 .text.core_tx_complete_cb_set
                0x000369f8        0xc examples/dfu/CMakeFiles/dfu_no_serial_nrf52840_xxAA_s140_6.1.1.dir/__/__/mesh/core/src/core_tx.c.obj
                0x000369f8                core_tx_complete_cb_set
 .text.core_tx_packet_alloc
                0x00036a04       0xac examples/dfu/CMakeFiles/dfu_no_serial_nrf52840_xxAA_s140_6.1.1.dir/__/__/mesh/core/src/core_tx.c.obj
                0x00036a04                core_tx_packet_alloc
 .text.core_tx_packet_send
                0x00036ab0       0x4c examples/dfu/CMakeFiles/dfu_no_serial_nrf52840_xxAA_s140_6.1.1.dir/__/__/mesh/core/src/core_tx.c.obj
                0x00036ab0                core_tx_packet_send
 .text.core_tx_packet_discard
                0x00036afc       0x40 examples/dfu/CMakeFiles/dfu_no_serial_nrf52840_xxAA_s140_6.1.1.dir/__/__/mesh/core/src/core_tx.c.obj
                0x00036afc                core_tx_packet_discard
 .text.core_tx_complete
                0x00036b3c       0x34 examples/dfu/CMakeFiles/dfu_no_serial_nrf52840_xxAA_s140_6.1.1.dir/__/__/mesh/core/src/core_tx.c.obj
                0x00036b3c                core_tx_complete
 .text.core_tx_bearer_add
                0x00036b70       0x74 examples/dfu/CMakeFiles/dfu_no_serial_nrf52840_xxAA_s140_6.1.1.dir/__/__/mesh/core/src/core_tx.c.obj
                0x00036b70                core_tx_bearer_add
 .text.hb_pub_deleter
                0x00036be4       0x28 examples/dfu/CMakeFiles/dfu_no_serial_nrf52840_xxAA_s140_6.1.1.dir/__/__/mesh/core/src/heartbeat.c.obj
 .text.hb_pub_getter
                0x00036c0c       0x2c examples/dfu/CMakeFiles/dfu_no_serial_nrf52840_xxAA_s140_6.1.1.dir/__/__/mesh/core/src/heartbeat.c.obj
 .text.hb_pub_setter
                0x00036c38       0xd0 examples/dfu/CMakeFiles/dfu_no_serial_nrf52840_xxAA_s140_6.1.1.dir/__/__/mesh/core/src/heartbeat.c.obj
 .text.heartbeat_subscription_timer_cb
                0x00036d08       0x3c examples/dfu/CMakeFiles/dfu_no_serial_nrf52840_xxAA_s140_6.1.1.dir/__/__/mesh/core/src/heartbeat.c.obj
 .text.heartbeat_opcode_handle
                0x00036d44       0x88 examples/dfu/CMakeFiles/dfu_no_serial_nrf52840_xxAA_s140_6.1.1.dir/__/__/mesh/core/src/heartbeat.c.obj
 .text.heartbeat_publish
                0x00036dcc       0xb8 examples/dfu/CMakeFiles/dfu_no_serial_nrf52840_xxAA_s140_6.1.1.dir/__/__/mesh/core/src/heartbeat.c.obj
 .text.heartbeat_core_evt_cb
                0x00036e84       0x18 examples/dfu/CMakeFiles/dfu_no_serial_nrf52840_xxAA_s140_6.1.1.dir/__/__/mesh/core/src/heartbeat.c.obj
 .text.heartbeat_publication_timer_cb
                0x00036e9c       0x54 examples/dfu/CMakeFiles/dfu_no_serial_nrf52840_xxAA_s140_6.1.1.dir/__/__/mesh/core/src/heartbeat.c.obj
 .text.heartbeat_relay_listener_cb
                0x00036ef0       0x48 examples/dfu/CMakeFiles/dfu_no_serial_nrf52840_xxAA_s140_6.1.1.dir/__/__/mesh/core/src/heartbeat.c.obj
 .text.heartbeat_init
                0x00036f38       0x58 examples/dfu/CMakeFiles/dfu_no_serial_nrf52840_xxAA_s140_6.1.1.dir/__/__/mesh/core/src/heartbeat.c.obj
                0x00036f38                heartbeat_init
 .text.heartbeat_subscription_set
                0x00036f90       0xd0 examples/dfu/CMakeFiles/dfu_no_serial_nrf52840_xxAA_s140_6.1.1.dir/__/__/mesh/core/src/heartbeat.c.obj
                0x00036f90                heartbeat_subscription_set
 .text.heartbeat_subscription_get
                0x00037060        0x8 examples/dfu/CMakeFiles/dfu_no_serial_nrf52840_xxAA_s140_6.1.1.dir/__/__/mesh/core/src/heartbeat.c.obj
                0x00037060                heartbeat_subscription_get
 .text.heartbeat_publication_get
                0x00037068        0x8 examples/dfu/CMakeFiles/dfu_no_serial_nrf52840_xxAA_s140_6.1.1.dir/__/__/mesh/core/src/heartbeat.c.obj
                0x00037068                heartbeat_publication_get
 .text.heartbeat_publication_set
                0x00037070       0x18 examples/dfu/CMakeFiles/dfu_no_serial_nrf52840_xxAA_s140_6.1.1.dir/__/__/mesh/core/src/heartbeat.c.obj
                0x00037070                heartbeat_publication_set
 .text.heartbeat_public_info_getter_register
                0x00037088       0x14 examples/dfu/CMakeFiles/dfu_no_serial_nrf52840_xxAA_s140_6.1.1.dir/__/__/mesh/core/src/heartbeat.c.obj
                0x00037088                heartbeat_public_info_getter_register
 .text.beacon_deleter
                0x0003709c       0x34 examples/dfu/CMakeFiles/dfu_no_serial_nrf52840_xxAA_s140_6.1.1.dir/__/__/mesh/core/src/net_beacon.c.obj
 .text.beacon_getter
                0x000370d0       0x24 examples/dfu/CMakeFiles/dfu_no_serial_nrf52840_xxAA_s140_6.1.1.dir/__/__/mesh/core/src/net_beacon.c.obj
 .text.beacon_setter
                0x000370f4       0x5c examples/dfu/CMakeFiles/dfu_no_serial_nrf52840_xxAA_s140_6.1.1.dir/__/__/mesh/core/src/net_beacon.c.obj
 .text.make_network_beacon_packet
                0x00037150       0x50 examples/dfu/CMakeFiles/dfu_no_serial_nrf52840_xxAA_s140_6.1.1.dir/__/__/mesh/core/src/net_beacon.c.obj
 .text.beacon_tx
                0x000371a0      0x188 examples/dfu/CMakeFiles/dfu_no_serial_nrf52840_xxAA_s140_6.1.1.dir/__/__/mesh/core/src/net_beacon.c.obj
 .text.tx_complete_cb
                0x00037328        0xe examples/dfu/CMakeFiles/dfu_no_serial_nrf52840_xxAA_s140_6.1.1.dir/__/__/mesh/core/src/net_beacon.c.obj
 .text.beacon_tx_timeout
                0x00037336        0x4 examples/dfu/CMakeFiles/dfu_no_serial_nrf52840_xxAA_s140_6.1.1.dir/__/__/mesh/core/src/net_beacon.c.obj
 .text.is_valid_beacon_pkt.part.1
                0x0003733a       0x30 examples/dfu/CMakeFiles/dfu_no_serial_nrf52840_xxAA_s140_6.1.1.dir/__/__/mesh/core/src/net_beacon.c.obj
 *fill*         0x0003736a        0x2 
 .text.net_beacon_init
                0x0003736c       0x7c examples/dfu/CMakeFiles/dfu_no_serial_nrf52840_xxAA_s140_6.1.1.dir/__/__/mesh/core/src/net_beacon.c.obj
                0x0003736c                net_beacon_init
 .text.net_beacon_enable
                0x000373e8       0x28 examples/dfu/CMakeFiles/dfu_no_serial_nrf52840_xxAA_s140_6.1.1.dir/__/__/mesh/core/src/net_beacon.c.obj
                0x000373e8                net_beacon_enable
 .text.net_beacon_state_set
                0x00037410       0x20 examples/dfu/CMakeFiles/dfu_no_serial_nrf52840_xxAA_s140_6.1.1.dir/__/__/mesh/core/src/net_beacon.c.obj
                0x00037410                net_beacon_state_set
 .text.net_beacon_state_get
                0x00037430       0x24 examples/dfu/CMakeFiles/dfu_no_serial_nrf52840_xxAA_s140_6.1.1.dir/__/__/mesh/core/src/net_beacon.c.obj
                0x00037430                net_beacon_state_get
 .text.net_beacon_packet_in
                0x00037454      0x16c examples/dfu/CMakeFiles/dfu_no_serial_nrf52840_xxAA_s140_6.1.1.dir/__/__/mesh/core/src/net_beacon.c.obj
                0x00037454                net_beacon_packet_in
 .text.listeners_notify
                0x000375c0       0x4c examples/dfu/CMakeFiles/dfu_no_serial_nrf52840_xxAA_s140_6.1.1.dir/__/__/mesh/core/src/mesh_config.c.obj
 .text.entry_flags_get.isra.0
                0x0003760c       0x1c examples/dfu/CMakeFiles/dfu_no_serial_nrf52840_xxAA_s140_6.1.1.dir/__/__/mesh/core/src/mesh_config.c.obj
 .text.entry_params_find
                0x00037628       0x38 examples/dfu/CMakeFiles/dfu_no_serial_nrf52840_xxAA_s140_6.1.1.dir/__/__/mesh/core/src/mesh_config.c.obj
 .text.restore_callback
                0x00037660       0x66 examples/dfu/CMakeFiles/dfu_no_serial_nrf52840_xxAA_s140_6.1.1.dir/__/__/mesh/core/src/mesh_config.c.obj
 *fill*         0x000376c6        0x2 
 .text.dirty_entries_process
                0x000376c8       0xdc examples/dfu/CMakeFiles/dfu_no_serial_nrf52840_xxAA_s140_6.1.1.dir/__/__/mesh/core/src/mesh_config.c.obj
 .text.mesh_config_init
                0x000377a4       0xa0 examples/dfu/CMakeFiles/dfu_no_serial_nrf52840_xxAA_s140_6.1.1.dir/__/__/mesh/core/src/mesh_config.c.obj
                0x000377a4                mesh_config_init
 .text.mesh_config_load
                0x00037844        0xc examples/dfu/CMakeFiles/dfu_no_serial_nrf52840_xxAA_s140_6.1.1.dir/__/__/mesh/core/src/mesh_config.c.obj
                0x00037844                mesh_config_load
 .text.mesh_config_is_busy
                0x00037850       0x34 examples/dfu/CMakeFiles/dfu_no_serial_nrf52840_xxAA_s140_6.1.1.dir/__/__/mesh/core/src/mesh_config.c.obj
                0x00037850                mesh_config_is_busy
 .text.backend_evt_handler
                0x00037884       0x88 examples/dfu/CMakeFiles/dfu_no_serial_nrf52840_xxAA_s140_6.1.1.dir/__/__/mesh/core/src/mesh_config.c.obj
 .text.mesh_config_entry_set
                0x0003790c       0x80 examples/dfu/CMakeFiles/dfu_no_serial_nrf52840_xxAA_s140_6.1.1.dir/__/__/mesh/core/src/mesh_config.c.obj
                0x0003790c                mesh_config_entry_set
 .text.mesh_config_entry_get
                0x0003798c       0x3c examples/dfu/CMakeFiles/dfu_no_serial_nrf52840_xxAA_s140_6.1.1.dir/__/__/mesh/core/src/mesh_config.c.obj
                0x0003798c                mesh_config_entry_get
 .text.mesh_config_entry_delete
                0x000379c8       0x4a examples/dfu/CMakeFiles/dfu_no_serial_nrf52840_xxAA_s140_6.1.1.dir/__/__/mesh/core/src/mesh_config.c.obj
                0x000379c8                mesh_config_entry_delete
 *fill*         0x00037a12        0x2 
 .text.mesh_config_clear
                0x00037a14       0x4c examples/dfu/CMakeFiles/dfu_no_serial_nrf52840_xxAA_s140_6.1.1.dir/__/__/mesh/core/src/mesh_config.c.obj
                0x00037a14                mesh_config_clear
 .text.dummy_event
                0x00037a60        0x2 examples/dfu/CMakeFiles/dfu_no_serial_nrf52840_xxAA_s140_6.1.1.dir/__/__/mesh/core/src/mesh_config_backend.c.obj
 *fill*         0x00037a62        0x2 
 .text.file_get
                0x00037a64       0x34 examples/dfu/CMakeFiles/dfu_no_serial_nrf52840_xxAA_s140_6.1.1.dir/__/__/mesh/core/src/mesh_config_backend.c.obj
 .text.mesh_config_backend_init
                0x00037a98      0x11c examples/dfu/CMakeFiles/dfu_no_serial_nrf52840_xxAA_s140_6.1.1.dir/__/__/mesh/core/src/mesh_config_backend.c.obj
                0x00037a98                mesh_config_backend_init
 .text.mesh_config_backend_store
                0x00037bb4       0x4e examples/dfu/CMakeFiles/dfu_no_serial_nrf52840_xxAA_s140_6.1.1.dir/__/__/mesh/core/src/mesh_config_backend.c.obj
                0x00037bb4                mesh_config_backend_store
 .text.mesh_config_backend_erase
                0x00037c02       0x34 examples/dfu/CMakeFiles/dfu_no_serial_nrf52840_xxAA_s140_6.1.1.dir/__/__/mesh/core/src/mesh_config_backend.c.obj
                0x00037c02                mesh_config_backend_erase
 *fill*         0x00037c36        0x2 
 .text.mesh_config_backend_read_all
                0x00037c38       0x38 examples/dfu/CMakeFiles/dfu_no_serial_nrf52840_xxAA_s140_6.1.1.dir/__/__/mesh/core/src/mesh_config_backend.c.obj
                0x00037c38                mesh_config_backend_read_all
 .text.entry_read_cb
                0x00037c70       0x38 examples/dfu/CMakeFiles/dfu_no_serial_nrf52840_xxAA_s140_6.1.1.dir/__/__/mesh/core/src/mesh_config_flashman_glue.c.obj
 .text.write_complete_cb
                0x00037ca8       0x30 examples/dfu/CMakeFiles/dfu_no_serial_nrf52840_xxAA_s140_6.1.1.dir/__/__/mesh/core/src/mesh_config_flashman_glue.c.obj
 .text.invalidate_complete_cb
                0x00037cd8       0x2c examples/dfu/CMakeFiles/dfu_no_serial_nrf52840_xxAA_s140_6.1.1.dir/__/__/mesh/core/src/mesh_config_flashman_glue.c.obj
 .text.remove_complete_cb
                0x00037d04        0x2 examples/dfu/CMakeFiles/dfu_no_serial_nrf52840_xxAA_s140_6.1.1.dir/__/__/mesh/core/src/mesh_config_flashman_glue.c.obj
 .text.flash_stable_cb
                0x00037d06       0x20 examples/dfu/CMakeFiles/dfu_no_serial_nrf52840_xxAA_s140_6.1.1.dir/__/__/mesh/core/src/mesh_config_flashman_glue.c.obj
 *fill*         0x00037d26        0x2 
 .text.mesh_config_backend_glue_init
                0x00037d28       0x28 examples/dfu/CMakeFiles/dfu_no_serial_nrf52840_xxAA_s140_6.1.1.dir/__/__/mesh/core/src/mesh_config_flashman_glue.c.obj
                0x00037d28                mesh_config_backend_glue_init
 .text.mesh_config_backend_file_create
                0x00037d50       0x58 examples/dfu/CMakeFiles/dfu_no_serial_nrf52840_xxAA_s140_6.1.1.dir/__/__/mesh/core/src/mesh_config_flashman_glue.c.obj
                0x00037d50                mesh_config_backend_file_create
 .text.mesh_config_backend_record_write
                0x00037da8       0x2c examples/dfu/CMakeFiles/dfu_no_serial_nrf52840_xxAA_s140_6.1.1.dir/__/__/mesh/core/src/mesh_config_flashman_glue.c.obj
                0x00037da8                mesh_config_backend_record_write
 .text.mesh_config_backend_record_erase
                0x00037dd4       0x30 examples/dfu/CMakeFiles/dfu_no_serial_nrf52840_xxAA_s140_6.1.1.dir/__/__/mesh/core/src/mesh_config_flashman_glue.c.obj
                0x00037dd4                mesh_config_backend_record_erase
 .text.mesh_config_backend_records_read
                0x00037e04       0x30 examples/dfu/CMakeFiles/dfu_no_serial_nrf52840_xxAA_s140_6.1.1.dir/__/__/mesh/core/src/mesh_config_flashman_glue.c.obj
                0x00037e04                mesh_config_backend_records_read
 .text.mesh_config_record_size_calculate
                0x00037e34        0xa examples/dfu/CMakeFiles/dfu_no_serial_nrf52840_xxAA_s140_6.1.1.dir/__/__/mesh/core/src/mesh_config_flashman_glue.c.obj
                0x00037e34                mesh_config_record_size_calculate
 *fill*         0x00037e3e        0x2 
 .text.mesh_config_backend_flash_usage_get
                0x00037e40       0x24 examples/dfu/CMakeFiles/dfu_no_serial_nrf52840_xxAA_s140_6.1.1.dir/__/__/mesh/core/src/mesh_config_flashman_glue.c.obj
                0x00037e40                mesh_config_backend_flash_usage_get
 .text.mesh_config_backend_file_power_down_time_get
                0x00037e64       0x24 examples/dfu/CMakeFiles/dfu_no_serial_nrf52840_xxAA_s140_6.1.1.dir/__/__/mesh/core/src/mesh_config_flashman_glue.c.obj
                0x00037e64                mesh_config_backend_file_power_down_time_get
 .text.packet_discard
                0x00037e88       0x30 examples/dfu/CMakeFiles/dfu_no_serial_nrf52840_xxAA_s140_6.1.1.dir/__/__/mesh/core/src/core_tx_local.c.obj
 .text.packet_send
                0x00037eb8       0x58 examples/dfu/CMakeFiles/dfu_no_serial_nrf52840_xxAA_s140_6.1.1.dir/__/__/mesh/core/src/core_tx_local.c.obj
 .text.loopback_process
                0x00037f10       0x64 examples/dfu/CMakeFiles/dfu_no_serial_nrf52840_xxAA_s140_6.1.1.dir/__/__/mesh/core/src/core_tx_local.c.obj
 .text.packet_alloc
                0x00037f74       0x48 examples/dfu/CMakeFiles/dfu_no_serial_nrf52840_xxAA_s140_6.1.1.dir/__/__/mesh/core/src/core_tx_local.c.obj
 .text.core_tx_local_init
                0x00037fbc       0x34 examples/dfu/CMakeFiles/dfu_no_serial_nrf52840_xxAA_s140_6.1.1.dir/__/__/mesh/core/src/core_tx_local.c.obj
                0x00037fbc                core_tx_local_init
 .text.core_tx_adv_get
                0x00037ff0       0x3c examples/dfu/CMakeFiles/dfu_no_serial_nrf52840_xxAA_s140_6.1.1.dir/__/__/mesh/core/src/core_tx_adv.c.obj
 .text.core_tx_tx_power_get
                0x0003802c       0x30 examples/dfu/CMakeFiles/dfu_no_serial_nrf52840_xxAA_s140_6.1.1.dir/__/__/mesh/core/src/core_tx_adv.c.obj
 .text.core_tx_adv_delete
                0x0003805c       0x50 examples/dfu/CMakeFiles/dfu_no_serial_nrf52840_xxAA_s140_6.1.1.dir/__/__/mesh/core/src/core_tx_adv.c.obj
 .text.core_tx_adv_set
                0x000380ac       0x6c examples/dfu/CMakeFiles/dfu_no_serial_nrf52840_xxAA_s140_6.1.1.dir/__/__/mesh/core/src/core_tx_adv.c.obj
 .text.core_tx_tx_power_delete
                0x00038118       0x30 examples/dfu/CMakeFiles/dfu_no_serial_nrf52840_xxAA_s140_6.1.1.dir/__/__/mesh/core/src/core_tx_adv.c.obj
 .text.core_tx_tx_power_set
                0x00038148       0x34 examples/dfu/CMakeFiles/dfu_no_serial_nrf52840_xxAA_s140_6.1.1.dir/__/__/mesh/core/src/core_tx_adv.c.obj
 .text.core_tx_adv_addr_delete
                0x0003817c       0x34 examples/dfu/CMakeFiles/dfu_no_serial_nrf52840_xxAA_s140_6.1.1.dir/__/__/mesh/core/src/core_tx_adv.c.obj
 .text.core_tx_adv_addr_set
                0x000381b0       0x40 examples/dfu/CMakeFiles/dfu_no_serial_nrf52840_xxAA_s140_6.1.1.dir/__/__/mesh/core/src/core_tx_adv.c.obj
 .text.core_tx_adv_addr_get
                0x000381f0       0x34 examples/dfu/CMakeFiles/dfu_no_serial_nrf52840_xxAA_s140_6.1.1.dir/__/__/mesh/core/src/core_tx_adv.c.obj
 .text.packet_discard
                0x00038224       0x40 examples/dfu/CMakeFiles/dfu_no_serial_nrf52840_xxAA_s140_6.1.1.dir/__/__/mesh/core/src/core_tx_adv.c.obj
 .text.packet_send
                0x00038264       0x58 examples/dfu/CMakeFiles/dfu_no_serial_nrf52840_xxAA_s140_6.1.1.dir/__/__/mesh/core/src/core_tx_adv.c.obj
 .text.packet_alloc
                0x000382bc       0x58 examples/dfu/CMakeFiles/dfu_no_serial_nrf52840_xxAA_s140_6.1.1.dir/__/__/mesh/core/src/core_tx_adv.c.obj
 .text.adv_tx_complete_callback
                0x00038314       0x20 examples/dfu/CMakeFiles/dfu_no_serial_nrf52840_xxAA_s140_6.1.1.dir/__/__/mesh/core/src/core_tx_adv.c.obj
 .text.mesh_opt_core_adv_set
                0x00038334       0x22 examples/dfu/CMakeFiles/dfu_no_serial_nrf52840_xxAA_s140_6.1.1.dir/__/__/mesh/core/src/core_tx_adv.c.obj
                0x00038334                mesh_opt_core_adv_set
 .text.mesh_opt_core_adv_get
                0x00038356       0x22 examples/dfu/CMakeFiles/dfu_no_serial_nrf52840_xxAA_s140_6.1.1.dir/__/__/mesh/core/src/core_tx_adv.c.obj
                0x00038356                mesh_opt_core_adv_get
 .text.core_tx_adv_init
                0x00038378       0x60 examples/dfu/CMakeFiles/dfu_no_serial_nrf52840_xxAA_s140_6.1.1.dir/__/__/mesh/core/src/core_tx_adv.c.obj
                0x00038378                core_tx_adv_init
 .text.core_tx_adv_is_enabled
                0x000383d8       0x20 examples/dfu/CMakeFiles/dfu_no_serial_nrf52840_xxAA_s140_6.1.1.dir/__/__/mesh/core/src/core_tx_adv.c.obj
                0x000383d8                core_tx_adv_is_enabled
 .text.mesh_mem_init
                0x000383f8        0x2 examples/dfu/CMakeFiles/dfu_no_serial_nrf52840_xxAA_s140_6.1.1.dir/__/__/mesh/core/src/mesh_mem_stdlib.c.obj
                0x000383f8                mesh_mem_init
 .text.mesh_mem_alloc
                0x000383fa        0x4 examples/dfu/CMakeFiles/dfu_no_serial_nrf52840_xxAA_s140_6.1.1.dir/__/__/mesh/core/src/mesh_mem_stdlib.c.obj
                0x000383fa                mesh_mem_alloc
 .text.mesh_mem_free
                0x000383fe        0x4 examples/dfu/CMakeFiles/dfu_no_serial_nrf52840_xxAA_s140_6.1.1.dir/__/__/mesh/core/src/mesh_mem_stdlib.c.obj
                0x000383fe                mesh_mem_free
 *fill*         0x00038402        0x2 
 .text.ad_listener_subscribe
                0x00038404       0x5c examples/dfu/CMakeFiles/dfu_no_serial_nrf52840_xxAA_s140_6.1.1.dir/__/__/mesh/bearer/src/ad_listener.c.obj
                0x00038404                ad_listener_subscribe
 .text.ad_listener_process
                0x00038460       0x68 examples/dfu/CMakeFiles/dfu_no_serial_nrf52840_xxAA_s140_6.1.1.dir/__/__/mesh/bearer/src/ad_listener.c.obj
                0x00038460                ad_listener_process
 .text.adtype_filter_handle
                0x000384c8       0x64 examples/dfu/CMakeFiles/dfu_no_serial_nrf52840_xxAA_s140_6.1.1.dir/__/__/mesh/bearer/src/ad_type_filter.c.obj
 .text.bearer_adtype_filtering_set
                0x0003852c       0x20 examples/dfu/CMakeFiles/dfu_no_serial_nrf52840_xxAA_s140_6.1.1.dir/__/__/mesh/bearer/src/ad_type_filter.c.obj
                0x0003852c                bearer_adtype_filtering_set
 .text.bearer_adtype_add
                0x0003854c       0x20 examples/dfu/CMakeFiles/dfu_no_serial_nrf52840_xxAA_s140_6.1.1.dir/__/__/mesh/bearer/src/ad_type_filter.c.obj
                0x0003854c                bearer_adtype_add
 .text.bearer_adtype_mode_set
                0x0003856c       0x18 examples/dfu/CMakeFiles/dfu_no_serial_nrf52840_xxAA_s140_6.1.1.dir/__/__/mesh/bearer/src/ad_type_filter.c.obj
                0x0003856c                bearer_adtype_mode_set
 .text.tx_complete_event_callback
                0x00038584       0x24 examples/dfu/CMakeFiles/dfu_no_serial_nrf52840_xxAA_s140_6.1.1.dir/__/__/mesh/bearer/src/advertiser.c.obj
 .text.set_gap_addr_type
                0x000385a8       0x26 examples/dfu/CMakeFiles/dfu_no_serial_nrf52840_xxAA_s140_6.1.1.dir/__/__/mesh/bearer/src/advertiser.c.obj
 .text.broadcast_complete_cb
                0x000385ce       0x46 examples/dfu/CMakeFiles/dfu_no_serial_nrf52840_xxAA_s140_6.1.1.dir/__/__/mesh/bearer/src/advertiser.c.obj
 .text.schedule_first_time
                0x00038614       0x28 examples/dfu/CMakeFiles/dfu_no_serial_nrf52840_xxAA_s140_6.1.1.dir/__/__/mesh/bearer/src/advertiser.c.obj
 .text.timeout_event
                0x0003863c      0x114 examples/dfu/CMakeFiles/dfu_no_serial_nrf52840_xxAA_s140_6.1.1.dir/__/__/mesh/bearer/src/advertiser.c.obj
 .text.advertiser_init
                0x00038750        0xc examples/dfu/CMakeFiles/dfu_no_serial_nrf52840_xxAA_s140_6.1.1.dir/__/__/mesh/bearer/src/advertiser.c.obj
                0x00038750                advertiser_init
 .text.advertiser_enable
                0x0003875c       0x2a examples/dfu/CMakeFiles/dfu_no_serial_nrf52840_xxAA_s140_6.1.1.dir/__/__/mesh/bearer/src/advertiser.c.obj
                0x0003875c                advertiser_enable
 .text.advertiser_disable
                0x00038786        0xa examples/dfu/CMakeFiles/dfu_no_serial_nrf52840_xxAA_s140_6.1.1.dir/__/__/mesh/bearer/src/advertiser.c.obj
                0x00038786                advertiser_disable
 .text.advertiser_packet_alloc
                0x00038790       0x76 examples/dfu/CMakeFiles/dfu_no_serial_nrf52840_xxAA_s140_6.1.1.dir/__/__/mesh/bearer/src/advertiser.c.obj
                0x00038790                advertiser_packet_alloc
 .text.advertiser_packet_send
                0x00038806       0x52 examples/dfu/CMakeFiles/dfu_no_serial_nrf52840_xxAA_s140_6.1.1.dir/__/__/mesh/bearer/src/advertiser.c.obj
                0x00038806                advertiser_packet_send
 .text.advertiser_packet_discard
                0x00038858       0x1e examples/dfu/CMakeFiles/dfu_no_serial_nrf52840_xxAA_s140_6.1.1.dir/__/__/mesh/bearer/src/advertiser.c.obj
                0x00038858                advertiser_packet_discard
 .text.advertiser_address_set
                0x00038876       0x3c examples/dfu/CMakeFiles/dfu_no_serial_nrf52840_xxAA_s140_6.1.1.dir/__/__/mesh/bearer/src/advertiser.c.obj
                0x00038876                advertiser_address_set
 .text.advertiser_interval_set
                0x000388b2       0x40 examples/dfu/CMakeFiles/dfu_no_serial_nrf52840_xxAA_s140_6.1.1.dir/__/__/mesh/bearer/src/advertiser.c.obj
                0x000388b2                advertiser_interval_set
 .text.advertiser_tx_power_set
                0x000388f2       0x14 examples/dfu/CMakeFiles/dfu_no_serial_nrf52840_xxAA_s140_6.1.1.dir/__/__/mesh/bearer/src/advertiser.c.obj
                0x000388f2                advertiser_tx_power_set
 .text.advertiser_flush
                0x00038906       0x1e examples/dfu/CMakeFiles/dfu_no_serial_nrf52840_xxAA_s140_6.1.1.dir/__/__/mesh/bearer/src/advertiser.c.obj
                0x00038906                advertiser_flush
 .text.advertiser_address_default_get
                0x00038924       0x38 examples/dfu/CMakeFiles/dfu_no_serial_nrf52840_xxAA_s140_6.1.1.dir/__/__/mesh/bearer/src/advertiser.c.obj
                0x00038924                advertiser_address_default_get
 .text.advertiser_instance_init
                0x0003895c       0x98 examples/dfu/CMakeFiles/dfu_no_serial_nrf52840_xxAA_s140_6.1.1.dir/__/__/mesh/bearer/src/advertiser.c.obj
                0x0003895c                advertiser_instance_init
 .text.notify_stop
                0x000389f4       0x14 examples/dfu/CMakeFiles/dfu_no_serial_nrf52840_xxAA_s140_6.1.1.dir/__/__/mesh/bearer/src/bearer_handler.c.obj
 .text.action_in_progress
                0x00038a08       0x30 examples/dfu/CMakeFiles/dfu_no_serial_nrf52840_xxAA_s140_6.1.1.dir/__/__/mesh/bearer/src/bearer_handler.c.obj
 .text.action_timer_start
                0x00038a38       0x88 examples/dfu/CMakeFiles/dfu_no_serial_nrf52840_xxAA_s140_6.1.1.dir/__/__/mesh/bearer/src/bearer_handler.c.obj
 .text.action_switch
                0x00038ac0      0x104 examples/dfu/CMakeFiles/dfu_no_serial_nrf52840_xxAA_s140_6.1.1.dir/__/__/mesh/bearer/src/bearer_handler.c.obj
 .text.end_handle
                0x00038bc4       0x44 examples/dfu/CMakeFiles/dfu_no_serial_nrf52840_xxAA_s140_6.1.1.dir/__/__/mesh/bearer/src/bearer_handler.c.obj
 .text.TIMER2_IRQHandler
                0x00038c08       0x58 examples/dfu/CMakeFiles/dfu_no_serial_nrf52840_xxAA_s140_6.1.1.dir/__/__/mesh/bearer/src/bearer_handler.c.obj
                0x00038c08                TIMER2_IRQHandler
 .text.bearer_handler_init
                0x00038c60       0x44 examples/dfu/CMakeFiles/dfu_no_serial_nrf52840_xxAA_s140_6.1.1.dir/__/__/mesh/bearer/src/bearer_handler.c.obj
                0x00038c60                bearer_handler_init
 .text.bearer_handler_wake_up
                0x00038ca4       0x2c examples/dfu/CMakeFiles/dfu_no_serial_nrf52840_xxAA_s140_6.1.1.dir/__/__/mesh/bearer/src/bearer_handler.c.obj
                0x00038ca4                bearer_handler_wake_up
 .text.bearer_handler_start
                0x00038cd0       0x1c examples/dfu/CMakeFiles/dfu_no_serial_nrf52840_xxAA_s140_6.1.1.dir/__/__/mesh/bearer/src/bearer_handler.c.obj
                0x00038cd0                bearer_handler_start
 .text.bearer_handler_action_enqueue
                0x00038cec       0x6c examples/dfu/CMakeFiles/dfu_no_serial_nrf52840_xxAA_s140_6.1.1.dir/__/__/mesh/bearer/src/bearer_handler.c.obj
                0x00038cec                bearer_handler_action_enqueue
 .text.bearer_handler_action_end
                0x00038d58       0x48 examples/dfu/CMakeFiles/dfu_no_serial_nrf52840_xxAA_s140_6.1.1.dir/__/__/mesh/bearer/src/bearer_handler.c.obj
                0x00038d58                bearer_handler_action_end
 .text.bearer_handler_radio_irq_handler
                0x00038da0       0x70 examples/dfu/CMakeFiles/dfu_no_serial_nrf52840_xxAA_s140_6.1.1.dir/__/__/mesh/bearer/src/bearer_handler.c.obj
                0x00038da0                bearer_handler_radio_irq_handler
 .text.bearer_handler_timer_irq_handler
                0x00038e10       0x34 examples/dfu/CMakeFiles/dfu_no_serial_nrf52840_xxAA_s140_6.1.1.dir/__/__/mesh/bearer/src/bearer_handler.c.obj
                0x00038e10                bearer_handler_timer_irq_handler
 .text.bearer_handler_on_ts_begin
                0x00038e44       0x38 examples/dfu/CMakeFiles/dfu_no_serial_nrf52840_xxAA_s140_6.1.1.dir/__/__/mesh/bearer/src/bearer_handler.c.obj
                0x00038e44                bearer_handler_on_ts_begin
 .text.bearer_handler_on_ts_end
                0x00038e7c       0x70 examples/dfu/CMakeFiles/dfu_no_serial_nrf52840_xxAA_s140_6.1.1.dir/__/__/mesh/bearer/src/bearer_handler.c.obj
                0x00038e7c                bearer_handler_on_ts_end
 .text.bearer_handler_on_ts_session_closed
                0x00038eec       0x10 examples/dfu/CMakeFiles/dfu_no_serial_nrf52840_xxAA_s140_6.1.1.dir/__/__/mesh/bearer/src/bearer_handler.c.obj
                0x00038eec                bearer_handler_on_ts_session_closed
 .text.radio_irq_handler
                0x00038efc       0xa4 examples/dfu/CMakeFiles/dfu_no_serial_nrf52840_xxAA_s140_6.1.1.dir/__/__/mesh/bearer/src/broadcast.c.obj
 .text.broadcast_start
                0x00038fa0       0xb4 examples/dfu/CMakeFiles/dfu_no_serial_nrf52840_xxAA_s140_6.1.1.dir/__/__/mesh/bearer/src/broadcast.c.obj
 .text.broadcast_send
                0x00039054       0x6c examples/dfu/CMakeFiles/dfu_no_serial_nrf52840_xxAA_s140_6.1.1.dir/__/__/mesh/bearer/src/broadcast.c.obj
                0x00039054                broadcast_send
 .text.fen_filter_start
                0x000390c0       0x3c examples/dfu/CMakeFiles/dfu_no_serial_nrf52840_xxAA_s140_6.1.1.dir/__/__/mesh/bearer/src/filter_engine.c.obj
                0x000390c0                fen_filter_start
 .text.fen_filter_stop
                0x000390fc       0x30 examples/dfu/CMakeFiles/dfu_no_serial_nrf52840_xxAA_s140_6.1.1.dir/__/__/mesh/bearer/src/filter_engine.c.obj
                0x000390fc                fen_filter_stop
 .text.fen_filters_apply
                0x0003912c       0x44 examples/dfu/CMakeFiles/dfu_no_serial_nrf52840_xxAA_s140_6.1.1.dir/__/__/mesh/bearer/src/filter_engine.c.obj
                0x0003912c                fen_filters_apply
 .text.radio_config_reset
                0x00039170       0x40 examples/dfu/CMakeFiles/dfu_no_serial_nrf52840_xxAA_s140_6.1.1.dir/__/__/mesh/bearer/src/radio_config.c.obj
                0x00039170                radio_config_reset
 .text.radio_config_channel_set
                0x000391b0       0x28 examples/dfu/CMakeFiles/dfu_no_serial_nrf52840_xxAA_s140_6.1.1.dir/__/__/mesh/bearer/src/radio_config.c.obj
                0x000391b0                radio_config_channel_set
 .text.radio_config_config
                0x000391d8       0x8c examples/dfu/CMakeFiles/dfu_no_serial_nrf52840_xxAA_s140_6.1.1.dir/__/__/mesh/bearer/src/radio_config.c.obj
                0x000391d8                radio_config_config
 .text.radio_config_access_addr_set
                0x00039264       0x50 examples/dfu/CMakeFiles/dfu_no_serial_nrf52840_xxAA_s140_6.1.1.dir/__/__/mesh/bearer/src/radio_config.c.obj
                0x00039264                radio_config_access_addr_set
 .text.radio_trigger
                0x000392b4       0x24 examples/dfu/CMakeFiles/dfu_no_serial_nrf52840_xxAA_s140_6.1.1.dir/__/__/mesh/bearer/src/scanner.c.obj
 .text.scan_window_end
                0x000392d8       0x10 examples/dfu/CMakeFiles/dfu_no_serial_nrf52840_xxAA_s140_6.1.1.dir/__/__/mesh/bearer/src/scanner.c.obj
 .text.scan_window_start
                0x000392e8       0x24 examples/dfu/CMakeFiles/dfu_no_serial_nrf52840_xxAA_s140_6.1.1.dir/__/__/mesh/bearer/src/scanner.c.obj
 .text.radio_configure
                0x0003930c       0x78 examples/dfu/CMakeFiles/dfu_no_serial_nrf52840_xxAA_s140_6.1.1.dir/__/__/mesh/bearer/src/scanner.c.obj
 .text.radio_set_packet
                0x00039384       0x4c examples/dfu/CMakeFiles/dfu_no_serial_nrf52840_xxAA_s140_6.1.1.dir/__/__/mesh/bearer/src/scanner.c.obj
 .text.radio_start
                0x000393d0       0x78 examples/dfu/CMakeFiles/dfu_no_serial_nrf52840_xxAA_s140_6.1.1.dir/__/__/mesh/bearer/src/scanner.c.obj
 .text.radio_stop
                0x00039448       0x38 examples/dfu/CMakeFiles/dfu_no_serial_nrf52840_xxAA_s140_6.1.1.dir/__/__/mesh/bearer/src/scanner.c.obj
 .text.schedule_timers
                0x00039480       0x38 examples/dfu/CMakeFiles/dfu_no_serial_nrf52840_xxAA_s140_6.1.1.dir/__/__/mesh/bearer/src/scanner.c.obj
 .text.scanner_radio_start
                0x000394b8       0x28 examples/dfu/CMakeFiles/dfu_no_serial_nrf52840_xxAA_s140_6.1.1.dir/__/__/mesh/bearer/src/scanner.c.obj
                0x000394b8                scanner_radio_start
 .text.scanner_radio_stop
                0x000394e0       0x10 examples/dfu/CMakeFiles/dfu_no_serial_nrf52840_xxAA_s140_6.1.1.dir/__/__/mesh/bearer/src/scanner.c.obj
                0x000394e0                scanner_radio_stop
 .text.scanner_radio_irq_handler
                0x000394f0      0x144 examples/dfu/CMakeFiles/dfu_no_serial_nrf52840_xxAA_s140_6.1.1.dir/__/__/mesh/bearer/src/scanner.c.obj
                0x000394f0                scanner_radio_irq_handler
 .text.scanner_timer_irq_handler
                0x00039634       0x30 examples/dfu/CMakeFiles/dfu_no_serial_nrf52840_xxAA_s140_6.1.1.dir/__/__/mesh/bearer/src/scanner.c.obj
                0x00039634                scanner_timer_irq_handler
 .text.scanner_enable
                0x00039664       0x2c examples/dfu/CMakeFiles/dfu_no_serial_nrf52840_xxAA_s140_6.1.1.dir/__/__/mesh/bearer/src/scanner.c.obj
                0x00039664                scanner_enable
 .text.scanner_is_enabled
                0x00039690       0x10 examples/dfu/CMakeFiles/dfu_no_serial_nrf52840_xxAA_s140_6.1.1.dir/__/__/mesh/bearer/src/scanner.c.obj
                0x00039690                scanner_is_enabled
 .text.scanner_packet_release
                0x000396a0       0x2c examples/dfu/CMakeFiles/dfu_no_serial_nrf52840_xxAA_s140_6.1.1.dir/__/__/mesh/bearer/src/scanner.c.obj
                0x000396a0                scanner_packet_release
 .text.scanner_rx
                0x000396cc       0x34 examples/dfu/CMakeFiles/dfu_no_serial_nrf52840_xxAA_s140_6.1.1.dir/__/__/mesh/bearer/src/scanner.c.obj
                0x000396cc                scanner_rx
 .text.scanner_rx_pending
                0x00039700        0xc examples/dfu/CMakeFiles/dfu_no_serial_nrf52840_xxAA_s140_6.1.1.dir/__/__/mesh/bearer/src/scanner.c.obj
                0x00039700                scanner_rx_pending
 .text.scanner_config_scan_time_set
                0x0003970c       0x4c examples/dfu/CMakeFiles/dfu_no_serial_nrf52840_xxAA_s140_6.1.1.dir/__/__/mesh/bearer/src/scanner.c.obj
                0x0003970c                scanner_config_scan_time_set
 .text.scanner_config_channels_set
                0x00039758       0x50 examples/dfu/CMakeFiles/dfu_no_serial_nrf52840_xxAA_s140_6.1.1.dir/__/__/mesh/bearer/src/scanner.c.obj
                0x00039758                scanner_config_channels_set
 .text.scanner_config_access_addresses_set
                0x000397a8       0x38 examples/dfu/CMakeFiles/dfu_no_serial_nrf52840_xxAA_s140_6.1.1.dir/__/__/mesh/bearer/src/scanner.c.obj
                0x000397a8                scanner_config_access_addresses_set
 .text.scanner_config_reset
                0x000397e0       0x50 examples/dfu/CMakeFiles/dfu_no_serial_nrf52840_xxAA_s140_6.1.1.dir/__/__/mesh/bearer/src/scanner.c.obj
                0x000397e0                scanner_config_reset
 .text.scanner_init
                0x00039830       0x54 examples/dfu/CMakeFiles/dfu_no_serial_nrf52840_xxAA_s140_6.1.1.dir/__/__/mesh/bearer/src/scanner.c.obj
                0x00039830                scanner_init
 .text.pin_clear
                0x00039884       0x24 examples/dfu/CMakeFiles/dfu_no_serial_nrf52840_xxAA_s140_6.1.1.dir/__/__/mesh/bearer/src/mesh_pa_lna.c.obj
 .text.ppi_setup.isra.0
                0x000398a8       0x3c examples/dfu/CMakeFiles/dfu_no_serial_nrf52840_xxAA_s140_6.1.1.dir/__/__/mesh/bearer/src/mesh_pa_lna.c.obj
 .text.mesh_pa_setup_start
                0x000398e4       0x5c examples/dfu/CMakeFiles/dfu_no_serial_nrf52840_xxAA_s140_6.1.1.dir/__/__/mesh/bearer/src/mesh_pa_lna.c.obj
                0x000398e4                mesh_pa_setup_start
 .text.mesh_lna_setup_start
                0x00039940       0x5c examples/dfu/CMakeFiles/dfu_no_serial_nrf52840_xxAA_s140_6.1.1.dir/__/__/mesh/bearer/src/mesh_pa_lna.c.obj
                0x00039940                mesh_lna_setup_start
 .text.mesh_pa_lna_disable_start
                0x0003999c       0x1c examples/dfu/CMakeFiles/dfu_no_serial_nrf52840_xxAA_s140_6.1.1.dir/__/__/mesh/bearer/src/mesh_pa_lna.c.obj
                0x0003999c                mesh_pa_lna_disable_start
 .text.mesh_pa_lna_setup_stop
                0x000399b8       0x4c examples/dfu/CMakeFiles/dfu_no_serial_nrf52840_xxAA_s140_6.1.1.dir/__/__/mesh/bearer/src/mesh_pa_lna.c.obj
                0x000399b8                mesh_pa_lna_setup_stop
 .text.mesh_pa_lna_cleanup
                0x00039a04       0x48 examples/dfu/CMakeFiles/dfu_no_serial_nrf52840_xxAA_s140_6.1.1.dir/__/__/mesh/bearer/src/mesh_pa_lna.c.obj
                0x00039a04                mesh_pa_lna_cleanup
 .text.user_op_alloc
                0x00039a4c       0x2c examples/dfu/CMakeFiles/dfu_no_serial_nrf52840_xxAA_s140_6.1.1.dir/__/__/external/app_timer/app_timer_mesh.c.obj
 .text.timer_stop_op_schedule
                0x00039a78       0x50 examples/dfu/CMakeFiles/dfu_no_serial_nrf52840_xxAA_s140_6.1.1.dir/__/__/external/app_timer/app_timer_mesh.c.obj
 .text.nrfx_coredep_delay_us.constprop.3
                0x00039ac8       0x10 examples/dfu/CMakeFiles/dfu_no_serial_nrf52840_xxAA_s140_6.1.1.dir/__/__/external/app_timer/app_timer_mesh.c.obj
 .text.RTC1_IRQHandler
                0x00039ad8       0xd0 examples/dfu/CMakeFiles/dfu_no_serial_nrf52840_xxAA_s140_6.1.1.dir/__/__/external/app_timer/app_timer_mesh.c.obj
                0x00039ad8                RTC1_IRQHandler
 .text.SWI0_EGU0_IRQHandler
                0x00039ba8      0x294 examples/dfu/CMakeFiles/dfu_no_serial_nrf52840_xxAA_s140_6.1.1.dir/__/__/external/app_timer/app_timer_mesh.c.obj
                0x00039ba8                SWI0_EGU0_IRQHandler
 .text.app_timer_init
                0x00039e3c       0xb4 examples/dfu/CMakeFiles/dfu_no_serial_nrf52840_xxAA_s140_6.1.1.dir/__/__/external/app_timer/app_timer_mesh.c.obj
                0x00039e3c                app_timer_init
 .text.app_timer_create
                0x00039ef0       0x24 examples/dfu/CMakeFiles/dfu_no_serial_nrf52840_xxAA_s140_6.1.1.dir/__/__/external/app_timer/app_timer_mesh.c.obj
                0x00039ef0                app_timer_create
 .text.app_timer_start
                0x00039f14       0x88 examples/dfu/CMakeFiles/dfu_no_serial_nrf52840_xxAA_s140_6.1.1.dir/__/__/external/app_timer/app_timer_mesh.c.obj
                0x00039f14                app_timer_start
 .text.app_timer_stop
                0x00039f9c       0x20 examples/dfu/CMakeFiles/dfu_no_serial_nrf52840_xxAA_s140_6.1.1.dir/__/__/external/app_timer/app_timer_mesh.c.obj
                0x00039f9c                app_timer_stop
 .text.is_app_timer_init
                0x00039fbc        0xc examples/dfu/CMakeFiles/dfu_no_serial_nrf52840_xxAA_s140_6.1.1.dir/__/__/external/app_timer/app_timer_mesh.c.obj
                0x00039fbc                is_app_timer_init
 .text.errata_98
                0x00039fc8       0x20 examples/dfu/CMakeFiles/dfu_no_serial_nrf52840_xxAA_s140_6.1.1.dir/C_/mesh/deps/nRF5_SDK_15.3.0_59ac345/modules/nrfx/mdk/system_nrf52840.c.obj
 .text.SystemInit
                0x00039fe8      0x1b8 examples/dfu/CMakeFiles/dfu_no_serial_nrf52840_xxAA_s140_6.1.1.dir/C_/mesh/deps/nRF5_SDK_15.3.0_59ac345/modules/nrfx/mdk/system_nrf52840.c.obj
                0x00039fe8                SystemInit
 .text          0x0003a1a0       0x3c examples/dfu/CMakeFiles/dfu_no_serial_nrf52840_xxAA_s140_6.1.1.dir/C_/mesh/deps/nRF5_SDK_15.3.0_59ac345/modules/nrfx/mdk/gcc_startup_nrf52840.S.obj
                0x0003a1a0                Reset_Handler
                0x0003a1c8                NMI_Handler
                0x0003a1ca                HardFault_Handler
                0x0003a1cc                MemoryManagement_Handler
                0x0003a1ce                BusFault_Handler
                0x0003a1d0                UsageFault_Handler
                0x0003a1d2                SVC_Handler
                0x0003a1d4                DebugMon_Handler
                0x0003a1d6                PendSV_Handler
                0x0003a1d8                SysTick_Handler
                0x0003a1da                TEMP_IRQHandler
                0x0003a1da                TIMER3_IRQHandler
                0x0003a1da                PWM3_IRQHandler
                0x0003a1da                FPU_IRQHandler
                0x0003a1da                USBD_IRQHandler
                0x0003a1da                SPIM0_SPIS0_TWIM0_TWIS0_SPI0_TWI0_IRQHandler
                0x0003a1da                PDM_IRQHandler
                0x0003a1da                UARTE0_UART0_IRQHandler
                0x0003a1da                TIMER4_IRQHandler
                0x0003a1da                CRYPTOCELL_IRQHandler
                0x0003a1da                I2S_IRQHandler
                0x0003a1da                SWI4_EGU4_IRQHandler
                0x0003a1da                TIMER0_IRQHandler
                0x0003a1da                RTC0_IRQHandler
                0x0003a1da                POWER_CLOCK_IRQHandler
                0x0003a1da                TIMER1_IRQHandler
                0x0003a1da                SPIM3_IRQHandler
                0x0003a1da                PWM2_IRQHandler
                0x0003a1da                ECB_IRQHandler
                0x0003a1da                SPIM1_SPIS1_TWIM1_TWIS1_SPI1_TWI1_IRQHandler
                0x0003a1da                Default_Handler
                0x0003a1da                SAADC_IRQHandler
                0x0003a1da                CCM_AAR_IRQHandler
                0x0003a1da                WDT_IRQHandler
                0x0003a1da                RADIO_IRQHandler
                0x0003a1da                SWI5_EGU5_IRQHandler
                0x0003a1da                RNG_IRQHandler
                0x0003a1da                RTC2_IRQHandler
                0x0003a1da                PWM0_IRQHandler
                0x0003a1da                SWI3_EGU3_IRQHandler
                0x0003a1da                SWI1_EGU1_IRQHandler
                0x0003a1da                SPIM2_SPIS2_SPI2_IRQHandler
                0x0003a1da                NFCT_IRQHandler
                0x0003a1da                UARTE1_IRQHandler
                0x0003a1da                MWU_IRQHandler
                0x0003a1da                PWM1_IRQHandler
                0x0003a1da                QSPI_IRQHandler
                0x0003a1da                COMP_LPCOMP_IRQHandler
 .text.app_error_handler_bare
                0x0003a1dc       0x1a examples/dfu/CMakeFiles/dfu_no_serial_nrf52840_xxAA_s140_6.1.1.dir/C_/mesh/deps/nRF5_SDK_15.3.0_59ac345/components/libraries/util/app_error.c.obj
                0x0003a1dc                app_error_handler_bare
 .text.app_error_handler
                0x0003a1f6       0x1a examples/dfu/CMakeFiles/dfu_no_serial_nrf52840_xxAA_s140_6.1.1.dir/C_/mesh/deps/nRF5_SDK_15.3.0_59ac345/components/libraries/util/app_error_handler_gcc.c.obj
                0x0003a1f6                app_error_handler
 .text._GetAvailWriteSpace
                0x0003a210       0x1c external/rtt/librtt_nrf52840_xxAA.a(SEGGER_RTT.c.obj)
 .text._WriteNoCheck
                0x0003a22c       0x3a external/rtt/librtt_nrf52840_xxAA.a(SEGGER_RTT.c.obj)
 .text._WriteBlocking
                0x0003a266       0x52 external/rtt/librtt_nrf52840_xxAA.a(SEGGER_RTT.c.obj)
 .text._DoInit  0x0003a2b8       0x60 external/rtt/librtt_nrf52840_xxAA.a(SEGGER_RTT.c.obj)
 .text.SEGGER_RTT_WriteNoLock
                0x0003a318       0x68 external/rtt/librtt_nrf52840_xxAA.a(SEGGER_RTT.c.obj)
                0x0003a318                SEGGER_RTT_WriteNoLock
 .text.SEGGER_RTT_Write
                0x0003a380       0x34 external/rtt/librtt_nrf52840_xxAA.a(SEGGER_RTT.c.obj)
                0x0003a380                SEGGER_RTT_Write
 .text._StoreChar
                0x0003a3b4       0x3c external/rtt/librtt_nrf52840_xxAA.a(SEGGER_RTT_printf.c.obj)
 .text._PrintUnsigned
                0x0003a3f0       0xc8 external/rtt/librtt_nrf52840_xxAA.a(SEGGER_RTT_printf.c.obj)
 .text.SEGGER_RTT_vprintf
                0x0003a4b8      0x23c external/rtt/librtt_nrf52840_xxAA.a(SEGGER_RTT_printf.c.obj)
                0x0003a4b8                SEGGER_RTT_vprintf
 .text.SEGGER_RTT_printf
                0x0003a6f4       0x1e external/rtt/librtt_nrf52840_xxAA.a(SEGGER_RTT_printf.c.obj)
                0x0003a6f4                SEGGER_RTT_printf
 .text.uECC_vli_mult
                0x0003a712       0x64 external/micro-ecc/libuECC_nrf52840_xxAA.a(uECC.c.obj)
 .text.uECC_vli_clear
                0x0003a776       0x16 external/micro-ecc/libuECC_nrf52840_xxAA.a(uECC.c.obj)
 .text.uECC_vli_isZero
                0x0003a78c       0x1e external/micro-ecc/libuECC_nrf52840_xxAA.a(uECC.c.obj)
 .text.uECC_vli_testBit
                0x0003a7aa       0x14 external/micro-ecc/libuECC_nrf52840_xxAA.a(uECC.c.obj)
 .text.uECC_vli_numBits
                0x0003a7be       0x3e external/micro-ecc/libuECC_nrf52840_xxAA.a(uECC.c.obj)
 .text.uECC_vli_set
                0x0003a7fc       0x18 external/micro-ecc/libuECC_nrf52840_xxAA.a(uECC.c.obj)
 .text.uECC_vli_cmp_unsafe
                0x0003a814       0x2a external/micro-ecc/libuECC_nrf52840_xxAA.a(uECC.c.obj)
 .text.uECC_vli_rshift1
                0x0003a83e       0x1a external/micro-ecc/libuECC_nrf52840_xxAA.a(uECC.c.obj)
 .text.uECC_vli_modMult_fast
                0x0003a858       0x20 external/micro-ecc/libuECC_nrf52840_xxAA.a(uECC.c.obj)
 .text.uECC_vli_modSquare_fast
                0x0003a878        0x8 external/micro-ecc/libuECC_nrf52840_xxAA.a(uECC.c.obj)
 .text.apply_z  0x0003a880       0x3e external/micro-ecc/libuECC_nrf52840_xxAA.a(uECC.c.obj)
 .text.uECC_vli_nativeToBytes
                0x0003a8be       0x28 external/micro-ecc/libuECC_nrf52840_xxAA.a(uECC.c.obj)
 .text.uECC_vli_bytesToNative
                0x0003a8e6       0x40 external/micro-ecc/libuECC_nrf52840_xxAA.a(uECC.c.obj)
 .text.default_RNG
                0x0003a926        0xc external/micro-ecc/libuECC_nrf52840_xxAA.a(uECC.c.obj)
 .text.uECC_vli_add.isra.0
                0x0003a932       0x4a external/micro-ecc/libuECC_nrf52840_xxAA.a(uECC.c.obj)
 .text.regularize_k
                0x0003a97c       0x50 external/micro-ecc/libuECC_nrf52840_xxAA.a(uECC.c.obj)
 .text.uECC_vli_sub.isra.1
                0x0003a9cc       0x4e external/micro-ecc/libuECC_nrf52840_xxAA.a(uECC.c.obj)
 .text.uECC_vli_cmp
                0x0003aa1a       0x30 external/micro-ecc/libuECC_nrf52840_xxAA.a(uECC.c.obj)
 *fill*         0x0003aa4a        0x2 
 .text.uECC_generate_random_int
                0x0003aa4c       0x74 external/micro-ecc/libuECC_nrf52840_xxAA.a(uECC.c.obj)
 .text.uECC_vli_modAdd
                0x0003aac0       0x2e external/micro-ecc/libuECC_nrf52840_xxAA.a(uECC.c.obj)
 *fill*         0x0003aaee        0x2 
 .text.vli_mmod_fast_secp256r1
                0x0003aaf0      0x194 external/micro-ecc/libuECC_nrf52840_xxAA.a(uECC.c.obj)
 .text.uECC_vli_modSub.isra.2
                0x0003ac84       0x1c external/micro-ecc/libuECC_nrf52840_xxAA.a(uECC.c.obj)
 .text.double_jacobian_default
                0x0003aca0      0x146 external/micro-ecc/libuECC_nrf52840_xxAA.a(uECC.c.obj)
 .text.x_side_default
                0x0003ade6       0x5e external/micro-ecc/libuECC_nrf52840_xxAA.a(uECC.c.obj)
 .text.XYcZ_add
                0x0003ae44       0xbc external/micro-ecc/libuECC_nrf52840_xxAA.a(uECC.c.obj)
 .text.XYcZ_addC
                0x0003af00      0x10a external/micro-ecc/libuECC_nrf52840_xxAA.a(uECC.c.obj)
 .text.vli_modInv_update
