:020000022000DC
:1060000000FD0320A1A10300C9A10300CBA103004F
:10601000CDA10300CFA10300D1A103000000000027
:10602000000000000000000000000000D3A10300F9
:10603000D5A1030000000000D7A10300D9A10300EF
:10604000DBA10300DBA10300DBA10300DBA1030054
:10605000DBA10300DBA10300C5680200DBA1030094
:10606000DBA10300DBA10300098C0300DBA103001B
:10607000DBA10300DBA10300DBA10300DBA1030024
:10608000DBA10300D99A0300C1490300DBA103008F
:10609000A99B0300DBA10300896D0200DBA10300C3
:1060A000DBA10300DBA10300DBA10300DBA10300F4
:1060B000DBA10300DBA103000000000000000000E2
:1060C000DBA10300DBA10300DBA10300DBA10300D4
:1060D000DBA10300DBA10300DBA10300DBA10300C4
:1060E000DBA10300DBA10300DBA103000000000033
:1060F00000000000DBA1030000000000DBA10300A2
:10610000000000000000000000000000000000008F
:10611000000000000000000000000000000000007F
:10612000000000000000000000000000000000006F
:10613000000000000000000000000000000000005F
:10614000000000000000000000000000000000004F
:10615000000000000000000000000000000000003F
:10616000000000000000000000000000000000002F
:10617000000000000000000000000000000000001F
:10618000000000000000000000000000000000000F
:1061900000000000000000000000000000000000FF
:1061A00000000000000000000000000000000000EF
:1061B00000000000000000000000000000000000DF
:1061C00000000000000000000000000000000000CF
:1061D00000000000000000000000000000000000BF
:1061E00000000000000000000000000000000000AF
:1061F000000000000000000000000000000000009F
:1062000010B5054C237833B9044B13B10448AFF3F0
:1062100000800123237010BDF82E00200000000034
:10622000B0CF030008B5034B1BB103490348AFF3DC
:10623000008008BD00000000FC2E0020B0CF03004D
:10624000154B002B08BF134B9D46A3F5803A002148
:106250008B460F461348144A121A15F043FB0F4B96
:10626000002B00D098470E4B002B00D09847002001
:10627000002104000D000D48002802D00C48AFF3A7
:10628000008015F0E1FA2000290000F009F915F06E
:10629000C7FA00BF0000080000FD03200000000056
:1062A00000000000F82E00206055002000000000D3
:1062B0000000000041DF704707B503781C2B2ED18A
:1062C000184B1B685B0416D5174B1B68032B12DD9C
:1062D0002F21164815F0D6FBC0B12F21134815F019
:1062E000D1FB411C124B134AD3F804350092042011
:1062F00091220FF0CBFA0322C8214FF4F03000F0C6
:1063000083FA03B05DF804EB0AF0B6BB5C210748E2
:1063100015F0B8FB08B15C21E0E70449E2E703B0FF
:106320005DF804FB682E0020642E00201CBB0300D7
:106330000010014037BB03007FB50378093B0446DA
:10634000042B64D8DFE803F081858E030300007915
:10635000022804F105055CD004286CD1B4F81320A0
:10636000B4F809309A425BD1D4F80F20D4F8053044
:106370009A4255D1D4F81530D4F80B2093422CBF53
:1063800000230123002B56D003A902A80AF084FBA6
:1063900018B13B4A5C2113F02EFF3A4A029B3A4E59
:1063A00013443A4A5B08934224BF03F6FF731E402E
:1063B000374B1B683CBF02F6FF7216405B0417D5D3
:1063C000344B1B68032B13DD2F212D4815F05AFB8E
:1063D00040B32F212A4815F055FB411C2E4B2F4A64
:1063E000D3F80435009201966D2204200FF04EFA86
:1063F0003246294620790AF0C7F818B1204A71219F
:1064000013F0F9FE00214FF4F03000F0F3F904B07E
:1064100070BDE27B63799A4202D1237CA279ADE719
:106420000023AFE75C21164815F02CFB08B15C2176
:10643000D0E71349D2E729460AF0F2F80028E6D05F
:106440000F4A772113F0D7FEE1E701214FF42040F6
:10645000DBE700214FF4F03000F0CCF901214FF4DC
:10646000C040D2E74FF4F030002100F0C3F92079AA
:106470000AF00AF90028CAD0014A8621E2E700BFE3
:106480001CBB03000060020000F0FFFFA8D0030067
:10649000682E0020642E002000100140A8BB0300DD
:1064A00000B58DB013F0CAFC18B15D4AB32113F0EA
:1064B000A2FE5C4E00F0DAF904215B4A4CF2870040
:1064C0000FF0C8F93368590418D5584B1B68032BD3
:1064D00014DD2F21524815F0D5FA002800F08480F1
:1064E0002F214F4815F0CEFA411C514B514AD3F899
:1064F000043500920420B7220FF0C8F900F0A6FA84
:106500000021242203A815F0EDF901238DF80C30A9
:1065100007238DF80F3006238DF814304649474B7A
:10652000079303A80AF072FA18B13D4AA72113F0A5
:1065300062FE4348434B03600DF0DCF933685A04B4
:1065400017D53A4B1B68032B13DD2F21344815F068
:1065500099FA002851D02F21314815F093FA411CA7
:10656000334B394AD3F8043500920420BD220FF092
:106570008DF9314B1B787BB9344D0FCD03AC0FC473
:1065800095E8030084E8030003A800F0CDF818B1F3
:10659000234ACE2113F02FFE0AF0C0FA00F0C2F910
:1065A0000AF0A8F918B11E4AD82113F024FE336866
:1065B0005B0416D51D4B1B68032B12DD2F211848D9
:1065C00015F060FA10B32F21154815F05BFA411C45
:1065D000174B1F4AD3F8043500920420DA220FF03B
:1065E00055F9FFF767FEFCE75C210D4815F04AFA04
:1065F00008B15C2175E70A4977E75C21084815F086
:1066000041FA08B15C21A7E70549A9E75C210448E4
:1066100015F038FA08B15C21D6E70149D8E700BF88
:106620001CBB0300682E002029580300642E0020A4
:106630000010014050BB0300142F0020B96202007B
:10664000182F00203963020078BB030004BB03004D
:1066500092BB030010B50749074807F013FC024638
:1066600038B90649064809690123BDE8104007F01A
:1066700022BC10BD402F00205C320020282F0020BB
:106680002831002010B50378023B082B2CD8DFE816
:1066900003F01B05102B2B2C2B2B38001E4B5B689B
:1066A00013B3007A00B31D4A01211170BDE81040F8
:1066B0001847194B9B68BBB1184A1178A1B100214A
:1066C0001170BDE810401847154B1A78124B42B9AB
:1066D000DB6813B111490A709847BDE81040FFF715
:1066E000B9BF1B68002BECD110BD0B4B0D4859698D
:1066F000102207F025FC0028F6D0BDE8104013F06A
:106700006DBDD0E902100AF0F7F808B113F066FD8C
:10671000034B01221A70E7E7282F0020242F0020C6
:10672000252F00202831002070B5164A164E5168DA
:10673000044686B0106803AB03C31189927A1980AE
:106740009A700FCC35460FC594E8030085E8030026
:106750007369A3B10D4B00930D4A0E490E4803AB6C
:1067600007F062FB48B90D4808F06EFB01460A4885
:1067700007F074FB08B9FFF76DFF06B070BD072086
:10678000FBE700BFF8BB0300282F0020856602004E
:10679000402F00205C32002028310020602F002094
:1067A00070B5104C206808B913F018FD4FF0A045E3
:1067B0000D4ED5F8043532685340C5F804352368CA
:1067C000013B236063B9094813F0E8FB3268D5F850
:1067D000043523EA0203064A12681343C5F8043558
:1067E00070BD00BF9C320020A0320020A4320020E7
:1067F000CC3200204FF0A04311B1C3F80C05704714
:10680000C3F8080570470000F8B52AB3132923D947
:10681000124B134D5200013A4FF0A0441A60286009
:10682000D4F8043518400F4B4FF4FA76186000275F
:106830004FF40040E0FB01674FF47A7200233046CA
:10684000394614F06DFE00220146074813F062FB42
:1068500010B92B68C4F80C35F8BD00BF9C3200207D
:10686000A0320020CC320020A432002008B54FF026
:10687000A04303224FF40051C3F83427C3F808158E
:106880004FF48041C3F83827C3F808154FF400418E
:10689000C3F83C27C3F80815C3F840274FF48032EB
:1068A000C3F808250121054A054813F021FB18B15A
:1068B000BDE8084013F092BC08BD00BFA16702000C
:1068C00004BC0300124B70B50024124E124DC3F8E5
:1068D0007C414FF0A043A15DD3F8102501238B40EC
:1068E000934311D00D49D5F804250B68981A48BF79
:1068F000D01A43F23333984206D9D5F804350B60E9
:10690000074B20461B6898470134042CE1D170BD29
:106910000060004008BC030000100140C8320020A5
:10692000C432002070B50446CEB0002864D03C4D7F
:106930002A6852042FD53B4B1B68032B2BDD3A4BA7
:106940000DAE19680023E25C100902F00F02085C2A
:1069500006F81300885C06EB43020133102B5070DD
:10696000F1D100232F21314886F8203015F08AF824
:10697000002843D02F212D4815F084F8411C2C4BC2
:106980002C4AD3F8043501922B4A009202964122F8
:1069900004200EF07BFF2B685B042DD5214B1B6878
:1069A000032B29DD2F21214815F06CF800282ED06B
:1069B0002F211E4815F066F8411C1D4BE27BD3F8D1
:1069C00004350B92A27B0A92627B0992227B089289
:1069D000E27A0792A27A0692627A0592227A049269
:1069E000E2880392A288029222680192134A0092DE
:1069F000042046220EF04AFF4EB070BD5C210B48C9
:106A000015F040F808B15C21B5E70849B7E75C210B
:106A1000064815F037F808B15C21CAE70349CCE70E
:106A2000682E0020642E00206C2E00200CBC030079
:106A30000010014034BC030046BC03004EBC030000
:106A400060DF704769DF70470CF056BF10B588B043
:106A500000F04AF908B113F0C1FB2B4B0393039BE1
:106A600004930C22002105A814F03CFF0023049A93
:106A70008DF8143005A90120FFF7E4FF08B113F0E9
:106A8000ADFB0C22002105A814F02CFFF823049A7A
:106A9000059305A9A120FFF7D5FF08B113F09EFBD0
:106AA00004A8FFF7CDFF039B049A9A4204461CD02A
:106AB000164B1B685B0418D5154B1B68012B14DDA6
:106AC0002F21144814F0DEFFA8B12F21114814F033
:106AD000D9FF411C104B049AD3F8043501920F4A98
:106AE00000920220A2220EF0D1FE14B1204613F033
:106AF00075FB08B010BD5C21064814F0C3FF08B157
:106B00005C21E3E70349E5E7A02D0020682E002083
:106B1000642E00208EBC030000100140BEBC0300A8
:106B200070B5EFF3108672B60C4A946801239CB9D5
:106B300093600B4B0B4DD3F8801029401160C3F8C4
:106B40008050D3F8841051604FF0FF32C3F8842096
:106B5000047006B962B670BD0370FAE7B054002045
:106B600000E100E0FC06FFBD10B5084B9A685AB181
:106B700050B9EFF3108172B6054A1C6814605C6866
:106B80005460986001B962B610BD00BFB0540020D7
:106B900000E100E001600B6843604A68934204BF73
:106BA000002343607047436843B1026891680B4417
:106BB00043605268934204BF0023436070474BDF39
:106BC000704700001FB50D4C01A8FFF7F8FF70B922
:106BD000214602A8FFF7DEFF039B002BF4D00198AB
:106BE000D3E90021904702A8FFF7DDFFF4E705286D
:106BF00001D013F0F3FA04B010BD00BFF8BC0300DD
:106C000061DF704730B5114B1B7891B0E3B1104D87
:106C100034240DF1020103A8ADF80240FFF7F0FFA4
:106C200070B9294601A8FFF7B5FF029B002BF0D0F1
:106C300003A8D3E90021904701A8FFF7B4FFF4E7C8
:106C4000052801D013F0CAFA11B030BDD0320020AF
:106C500004BD030010DF704713B5044609496846B8
:106C6000FFF798FF019808B902B010BDD0E90031D4
:106C70002046984718B16846FFF795FFF2E71120C4
:106C8000F2E700BF14BD030013B504460749684688
:106C9000FFF780FF019B0BB902B010BD2046D3E97E
:106CA000002190476846FFF77EFFF3E72CBD030005
:106CB0000B4991F816335A09EC231341DB0706D52B
:106CC000084B9A683AB94FF480030B60704742F260
:106CD000020013F083BA1A6842F480021A60704707
:106CE00000E100E0B0540020F7B5184F3C785CBBE1
:106CF000174E012520463570FFF7AEFF112820D032
:106D00002046FFF7C1FF134B1868019002A800F856
:106D1000054DFFF705FF104901A8FFF79BFF04464B
:106D2000B0FA80F0400938709DF80300FFF71CFFAF
:106D30003CB90A4B34701C70FFF7BAFF2846FFF7C6
:106D4000A3FF204603B0F0BD0824FAE7D2320020AA
:106D5000D132002010BD0300B5060300D33200205D
:106D600007B508496846FFF715FF019B13B903B043
:106D70005DF804FBD3E9002090476846FFF713FF56
:106D8000F3E700BF20BD0300FFF7EABF38B5837803
:106D900003F003020446032A22D8DFE802F00214BB
:106DA000191D9B08154A1648126813440268A3600F
:106DB0000021EAB195685D1B002D16DAD1B91146A4
:106DC000E160046038BD9B0803EB83035B00E9E7E7
:106DD0009B0864225343E5E79B0841F27072F9E790
:106DE000784609F067FD0023DCE71146D268E0E74A
:106DF0000029E5D0CC60E260E4E700BFEC3200207F
:106E0000F432002008B5032809D8DFE800F00D02AD
:106E10000406064808BD0648FCE70648FAE7784637
:106E200009F048FD0020F5E70348F3E740420F0072
:106E3000809698000046C323A08601002DE9F0410A
:106E4000574D2B78A3B1574B574E5C680CF0AAFFF7
:106E5000241A3078FFF7D6FF3278544B001B002AF3
:106E600040D14CF2503290423CD91A6801321A603B
:106E7000DFF84881D8F80020002A00F087804A4EC9
:106E80009378307803F003038342344664DD474B44
:106E900097681B68FB1A464F5F43FFF7B3FFD8F8AC
:106EA0000030B7FBF0F09F78C7F30107FBB2022B6D
:106EB0001FD031D8012B47D10A22B0FBF2F302FBDD
:106EC0001300002840D10CF06DFF00F5742101F58E
:106ED000107137702B78002B50D03248BDE8F0414C
:106EE0000CF037BF1A683249B0FBF1F0104418605B
:106EF000BEE7337863B96422B0FBF2F302FB130000
:106F000010BB0CF04FFF2B49022301442370E1E733
:106F1000012B19D10A22EFE7337863B941F270727D
:106F2000B0FBF2F302FB130070B90CF03BFF2249F7
:106F300003230144EAE7012B02D14FF41672EFE775
:106F4000022B01D13C22EBE70CF02CFF0646207807
:106F5000FFF758FF3118BDE70CF024FFD8F80030D8
:106F60000446987800F00300FFF74CFFD8F8003093
:106F70009B78C3F3010321183370ABE70948012361
:106F800041602B70BDE8F0410CF0AABE2B7823B114
:106F90000448BDE8F0410CF0C5BEBDE8F08100BF7B
:106FA000F0320020D4320020F1320020EC320020F8
:106FB000A0860100809698000046C323F43200208A
:106FC0002DE9F341244B1B78032B2AD8DFE803F08B
:106FD000021B1F23214A136801331360204B214EEB
:106FE0001E4D00221A70B04634683CB1A3682A686E
:106FF00093421AD02A689B1A002B16DBFFF71EFF5C
:1070000002B0BDE8F081154A13680A33E5E7134A78
:1070100013686433E1E7114A136803F5BB53103377
:10702000DBE7784609F046FCD8E72788E368C8F82C
:10703000003002A9002341F8043D384601F09CFCD1
:1070400010B1784609F036FC3846636801999847D4
:107050002046FFF79BFEC7E7F1320020EC3200200C
:10706000F0320020F432002010B5084C1822002124
:10707000204614F037FC064B064AA3600023136039
:10708000054A1360054A137010BD00BFD4320020BA
:10709000C16F0200EC320020F4320020F0320020F8
:1070A000F8B50F461646044610B9784609F002FCBA
:1070B000124D0DF021FB2B6800220BB1A34216D11B
:1070C000A17867F3010166F38701A1709BB1DB68CA
:1070D00082B92B602EB12046FFF758FE2B689C42E8
:1070E00001D1FFF7ABFEBDE8F8400DF045BB1A46F5
:1070F000DB68E2E7D360002EF5D0ECE7F432002045
:107100000A4B93F8390093F85D2080F0010040426B
:1071100080B24AB14FF6FF72904204D0586D1B6B9B
:10712000C01AC00F70470120704700BFF83200201E
:1071300038B5154C242303FB0043054693F839303A
:1071400013B9784609F0B6FBB4F8603013B9784645
:1071500009F0B0FB242202FB0543002183F839101B
:10716000B4F86030013B9BB2A4F860301BB94FF615
:10717000FF73A4F8623002FB0544A06A11F03FF9E6
:107180000023A36238BD00BFF83200202DE9F84F7C
:107190002C4DB5F86030064613B9784609F08AFBE5
:1071A000294C06F57A7B00274FF0010948F2111AA5
:1071B000637C1FFA87F8C3B1A368A3EB0B03002B12
:1071C00013DAA3882268A4F11001404600F0E6FE1D
:1071D000102827D809FA00F313EA0A0F25D11B4A11
:1071E00013421ED04046FFF7A3FF2434BFB1FFF780
:1071F00087FFB5F86030A5F862000BB3012802D90B
:10720000784609F057FBB5F86230242202FB03539D
:107210001B6B9A1B48BFF21AEA60BDE8F88F012782
:10722000C6E710B1784609F045FB237C013BDBB291
:107230002374002BD6D0D4E902321344A360D4E7E0
:10724000EB60EAE7F832002020330020A0020100C2
:1072500010B5064C64220021204614F043FB044B79
:10726000A3604FF6FF73A4F8623010BDF83200201F
:107270008D7102002DE9F047012806468846174621
:107280009A46BDF8209002D9784609F013FBB8F170
:10729000000F02D1784609F00DFB17B9784609F0C6
:1072A00009FB98F800305B0702D1784609F002FB31
:1072B000BAF1000F02D1784609F0FCFAB9F1000FDB
:1072C00002D1784609F0F6FA274C242303FB064343
:1072D00093F8393013B13046FFF72AFF0CF062FD06
:1072E000844697E80F00242505FB064505F1180E96
:1072F0008EE80F00C5F828A0A5F82C9098F800306B
:10730000C3F3020385F8383098F80000C3084CF244
:10731000503003FB0000012385F83930B4F86030A9
:107320006863604401332863A4F86030FFF7E8FE27
:10733000B4F86230834201D19E4213D14FF6FF73FD
:107340009842A4F8620002D1784609F0B3FAB4F882
:1073500062300548242202FB0344216BBDE8F0475C
:107360000CF0F7BCBDE8F087F83200204A09012391
:1073700001F01F0103FA01F150F82230194214BF45
:107380000120002070474FF6FF72B2EB104F82B021
:1073900083B215D113F47F4007D003F44043B3F513
:1073A000004F14BF0020012006E023F07F022AB91D
:1073B0007F3B18BF0123184602B070470346FAE727
:1073C00023F03F03C02BECE701289FBF054B382279
:1073D00002FB003090F8340094BF00F00100002060
:1073E000704700BF98330020004700004388C3F374
:1073F0000B03012B02D9002008707047064A12F8CF
:10740000331041F0010102F8331002EBC30342686C
:10741000D2435A6001207047083400204388C3F3E8
:107420000B0313B1002008707047024B82881A804A
:10743000012070475E33002007B513464FF47042B9
:10744000ADF804200122ADF806001A7003480A4680
:1074500001A90EF05BFD03B05DF804FB7033002062
:1074600070B51C460B89B3F5BE7F0546164606D39C
:10747000092323602068B0FA80F0400970BDFFF74F
:10748000A3FF28B10C48382303FB050083890BB107
:107490000523EEE73EB982884FF6FF739A4206D085
:1074A000C2889A4203D00868FFF76DFF08B9072326
:1074B000DFE70023DDE700BF98330020784609F0BE
:1074C000F9B9000008B5094B094800221A70094BA8
:1074D00001221A700EF008FD20B10748BDE80840EF
:1074E0000EF03EBF054B187008BD00BF953300205D
:1074F0007033002094330020B02D00205C33002036
:1075000010B50E4C70220021204614F0EBF9062233
:1075100000210B4814F0E6F910220021094814F06C
:10752000E1F94FF0FF31084A61600123E260A38472
:10753000E1636264A4F85C3010BD00BF98330020A2
:107540005E33002008340020FFFF02002DE9F04FD9
:10755000D5B0044607A80D4604929946BDF8788137
:1075600002F0C4FB704BBDF81E10049A382000FBDB
:1075700004308789B94205D84FF0100A504655B0FB
:10758000BDE8F08FBDF81C10049108AE002A00F091
:10759000968002F10C0103C9B2F81EB0B2F824A023
:1075A000127F86E80300002A00F09980382202FB4F
:1075B0000434647CFF2C01D15C4B1C78B9F1000FC2
:1075C00002D1784609F076F9B8F1000F02D1784679
:1075D00009F070F90AAB184624220021059314F033
:1075E00081F9504610AA594603F064F9059B82467A
:1075F0000028C3D1049A9C7296E803001744AA7A23
:10760000DA72EA7A1A7383E80300EA681F81514646
:107610001846C3F81090A3F814801A620CF068F9A9
:1076200082460028AAD1424C226892041AD5414BC6
:107630001B68042B16DD2F213F4814F023FA002885
:107640004FD02F213C4814F01DFA411C3B4B2A8897
:10765000D3F8043501923A4A009205204FF4CE72D5
:107660000EF014F923689B0488D5324B1B68042B59
:1076700084DD2989334B8029186828BF80210023A5
:1076800013AC8B4236D100222F212B4804F8132053
:1076900014F0F8F900283BD02F21274814F0F2F914
:1076A000411C264B284AD3F804350192274A009200
:1076B000029440F29D1205200EF0E8F85EE7B0F863
:1076C00004B0C0880593314602F08EFB48BB728837
:1076D000002A3FF451AF4FF6FF7A059B66E7144648
:1076E0006CE75C21144814F0CDF908B15C21A9E7DE
:1076F0001149ABE76A68D25C160902F00F02865D99
:1077000004F81360865C04EB430201335670B8E75B
:107710005C21094814F0B6F908B15C21BDE70649BF
:10772000BFE74FF0050A29E798330020D02D00204D
:10773000682E0020642E0020EABD030000100140E6
:1077400006BE03006C2E00201ABE030046BC0300D8
:1077500030B5012A8DB004460D4604D1784609F0B3
:10776000A9F80DB030BD022AF8D0032AF9D12C2295
:10777000002101A814F0B6F811238DF8043002237B
:107780008DF80830E368059301A8236903950693F3
:107790000AF066FCE5E700002DE9F0414E4B1B784E
:1077A000002B00F096800CF0A7FF4C4B1B78BBB968
:1077B0004B4C23786BB9062201214A480EF053FC4A
:1077C00070B102220125C580028182800EF07AFC10
:1077D00025700024444DDFF80C812646A1B21EB16D
:1077E00042480EF0BDFD6CE015F8343003F00303A1
:1077F000032B4FEAC40711D1042241F44051404603
:107800000EF031FC002860D0EB195B68DB4343606D
:107810000EF058FC7B5D23F002037B55002C56D004
:10782000002EDDD1324C63799B070FD502224FF435
:1078300080512C480EF017FC0028D1D0228882807D
:107840000EF040FC637923F002036371294C94F835
:10785000343003F00303032B16D114224FF40051EC
:1078600020480EF000FC05460028B9D0142221461D
:10787000043014F02CF828460EF024FC94F8343030
:1078800023F0020384F8343094F86C3003F00303DF
:10789000032B16D1142242F2010112480EF0E3FB31
:1078A000054600289CD014221349043014F00FF828
:1078B00028460EF007FC94F86C3023F0020384F89D
:1078C0006C30BDE8F0410CF057BF1126A6E701244B
:1078D00084E7BDE8F08100BF5C33002094330020D2
:1078E000953300207033002008340020C02D002084
:1078F0005E33002098330020D03300204A0901F085
:107900001F034FF0FF31994050F82230194009D041
:107910004B420B4004495943C90E044B585C00EBE1
:10792000421070471820704731B57C07CABD03006C
:107930002DE9F04F85B08146924698460E9F0D4640
:1079400011B9784608F0B6FF03AB524629464846BF
:10795000FFF786FD18B9039805B0BDE8F08F698878
:107960002B884FF6FF72914230D1B3F5807F34BF40
:107970004FF0010B4FF0020B2E895E44B6B2304639
:1079800010F03BFD044680B36A882B884FF6FF70E9
:107990008242D9B21DD06270120A2170A2702A8967
:1079A000696804EB0B0013F092FF009623465246E1
:1079B00029464846FFF7CAFD039018B9B8F1000FF1
:1079C00000D077B9204610F01AFDC4E74FF0030B42
:1079D000D2E713F47F4F1DBF1B0A23706170217023
:1079E000DDE7C8F800403E80B6E70420B4E70000B9
:1079F00038B54388C3F30B03012B044610D8028A21
:107A000072B91B48382202FB0302D589628A012D14
:107A100009D8954204D1174D15F83250ED0704D41A
:107A20000020087038BD012A06D8124D15F8321012
:107A300041F0040105F8321038251422211D05FB00
:107A4000030013F044FFA188238A4FF6FF7291428E
:107A5000094A4FF0060101FB03234FF001000BBF61
:107A60009A78DA78013201320CBF9A70DA70D9E76D
:107A700098330020083400205E3300202DE9F04FB9
:107A800087B006AB062243F80C2D012104AA544806
:107A90000EF0B2FA044628B1524B0120187007B01C
:107AA000BDE8F08FBDF81230012B09D04E4B1B689A
:107AB0009B0473D402F066F8FFF704FD002052E047
:107AC000BDF81420022AF1D1BDF81020022AEDD110
:107AD000464A474913704FF440500DF10B02FFF72F
:107AE000ABFC9DF80B30002BE0D0424B42495A7959
:107AF0001C8022F002025A715C800DF10B024FF4DF
:107B00008050FFF799FC9DF80B30002BCED00DF183
:107B10000B023A494FF40050FFF78EFC9DF80B30F2
:107B2000EBB1E0B1364FDFF8ECA0B9464FF6FF7885
:107B3000A346BB89434510D0F888404505D002F0E4
:107B4000E9F810B1784608F0B5FEFE89022E10D192
:107B5000382303FB049383F812B038373CB19DF807
:107B60000B000028A2D01F4B01221A7097E70124B6
:107B7000DFE70AEBC606043600213046FFF7BEFEFB
:107B800018280546E4D0A8B202F012F910B17846E0
:107B900008F090FE691C1729EFD9D9E7194B1B682B
:107BA000002B87DD2F21184813F06CFF78B12F21AF
:107BB000154813F067FF411C144B154AD3F80435E0
:107BC0000092012040F2E2320DF060FE72E75C218B
:107BD0000D4813F057FF08B15C21E9E70A49EBE7CC
:107BE000703300205C330020682E00209533002085
:107BF000ED7302005E3300201D740200F179020073
:107C000098330020642E0020EABD030000100140DC
:107C100038BD0300083400202DE9F04F00F11404B2
:107C20008FB00546204603F095F88146002876D0AF
:107C30004FF6FF73ADF832302B7D012B72D10DA8BA
:107C400002F054F8EB8ABDF834209B1A9BB20993DA
:107C50004E46554C4FF0000A002E7CD0A788099B59
:107C6000FA1A5742574194F82C30E98B03F001037C
:107C700020460A93FFF77AFB29880B90A28C68882C
:107C80004FF00008904576D34FF00008C346474BAD
:107C90001B689B0425D5464B1B68062B21DD2F2135
:107CA000444813F0EFFE002875D02F21414813F00F
:107CB000E9FE411C0B9A404BD3F80435CDF818B0BF
:107CC000CDE904720A9A039234F8062C029234F831
:107CD000082C0192394A0092072040F259420DF0D7
:107CE000D5FD0A9BBBB1B7B10B9BA3B1BBF1000F94
:107CF00011D02B7D012B1FFA8AF704D1A26A2946E5
:107D0000384601F03BF8236AA26A03EBC803294610
:107D10005B68384698473834BAF1000F18D00FB076
:107D2000BDE8F08FEB8A04339BB2032B0AD90DF127
:107D30003201204602F0B8F840B1784608F0BAFDAA
:107D4000002686E700230646099382E7064680E779
:107D50004FF0010A80E7E08801280AD8184BBDF8E7
:107D6000321003EBC0000430FFF700FB00F0010706
:107D700079E73046FAE7236A03EBC80C33F838306A
:107D80008B4203D1BCF80230834202D008F10108D3
:107D900078E7CB467BE75C21064813F073FE08B119
:107DA0005C2183E7034985E7A0330020682E00208B
:107DB000642E0020EABD0300001001405ABD0300FC
:107DC000083400202DE9F04303681D7805F0C00257
:107DD000402AD1B004460FD003D86AB100263546F8
:107DE00010E0802A00F09D80C02AF7D19A785E7852
:107DF000ADB246EA022605E0ADB27F2D00F08E80DE
:107E00004FF6FF765A4B1A6812F4005F984619D065
:107E1000584B1B68042B15DD2F21574813F032FEF9
:107E2000002800F082802F21534813F02BFE411CC4
:107E3000524B534AD3F8043500920195F62205209F
:107E40000DF024FDE06902F09DF88146A06902F082
:107E500085F84FF6FF739E42ADF81450ADF81660EA
:107E600027686BD1FF2D8CBF022301234FF6FF72D1
:107E70001F4496420697A38862D1FF2D8CBF022231
:107E800001229B1A227A8DF820206289ADF82220E7
:107E9000E2680992227C8DF82820628AADF82A20B7
:107EA00062690B9294F820208DF83020626A0D925E
:107EB000D8F80020ADF832909BB29204ADF81C3097
:107EC000ADF8380027D52B4A1268042A23DD2D4A45
:107ED000802B106828BF802300220FAC9A4231D13A
:107EE00000232F21244804F8123013F0CBFD002882
:107EF00035D02F21204813F0C5FD411C1F4B224ACD
:107F0000D3F804350192214A0092029440F20D12F6
:107F100005200DF0BBFC05A8FFF77EFE51B0BDE8C3
:107F2000F0835B7843EA05256AE75C21124813F089
:107F3000A9FD08B15C2177E70F4979E7032395E7AD
:107F400003229EE7B95C0D0901F00F01455D04F8BD
:107F50001250455C04EB420101324D70BEE75C21DA
:107F6000054813F08FFD08B15C21C3E70249C5E75E
:107F7000682E0020642E0020EABD0300001001409E
:107F8000AFBD03006C2E0020C2BD030046BC030041
:107F9000037813B90430FFF715BF7047F0B50646F4
:107FA00085B014461D4681B17AB173B103AB00228E
:107FB000FFF756FA10B9039805B0F0BD00952346B7
:107FC00000223046FFF7C2FAF6E70E20F4E708B5C4
:107FD000FFF796FA00F014FFBDE80840FFF772BA09
:107FE0002DE9F0410446002800F0BC80002900F093
:107FF000B980C3681BB18368002B00F0B3804FF6D3
:10800000FF730B80E3681BB9A368002B40F0AC80C2
:10801000A388002B40F0AA80574B1B7813B10F2088
:10802000BDE8F081554DAB78E878C34270D1D4E912
:1080300002870026B74240F08E800A884FF6FF7311
:108040009A424F4B40D193F8342012F0010205D0F0
:1080500093F86C20D20700F18D80012238200A802D
:1080600000FB02324FF6FF76D6800A8800FB023210
:1080700096800A88A78800FB023297810A88678861
:1080800000FB023257800A88278842439F520A88A1
:1080900000FB023046742088A288B0424FF00600F0
:1080A00000FB02520BBF9078D078013001300CBF3A
:1080B0009070D0700A88382000FB023292F83400A9
:1080C00040F0020082F8340008882569382202FB5B
:1080D000003005630888A56802FB003085620888C7
:1080E000E56802FB003085850888646902FB003082
:1080F0008461088802FB0034A082098802FB0133F6
:10810000002093F8342042F0010283F8342087E7FE
:108110001B4B20889A8966882AB95F88B74202D1AA
:108120001F8887420DD0B3F84420002A7FF47FAF28
:108130005A8FB2427FF47BAF1A8F82427FF477AFBF
:108140000122382000FB02330A8093F83430D8072C
:108150007FF56DAF63E758F83600FFF714F938B1D3
:10816000013667E70E205BE7092059E7052057E74E
:10817000072055E7042053E75C3300205E330020DE
:10818000983300207FB505460E4619B30DF10A035A
:108190000022009303ABADF80A20FFF7C9FB0446A9
:1081A00088B90D48039B38226A438118C97C490766
:1081B0000CD002F11301BDF80A20009201443246AE
:1081C0002846FFF757F8204604B070BD184610F057
:1081D00016F9F8E70E24F6E79833002013B5144695
:1081E0000A4639B134B1002300932146FFF7A0FBC2
:1081F00002B010BD0E20FBE710B50446FFF7E4F80F
:1082000088B1172911D80A48382303FB0400C38812
:108210008B4206D090F83430C18043F0020380F8DE
:108220003430002000E0052010BD0720FCE700BF2F
:108230009833002010B5044651B1FFF7C5F848B196
:10824000054B382202FB04340020E3880B8010BD6C
:108250000E20FCE70520FAE798330020012870B5CE
:108260001DD8104A382404FB002494F83430DD076C
:1082700015D5E47C01F0070504F00706AE4204D1F1
:10828000C1F3C405B5EBD40F07D0382404FB00209C
:1082900043F00203C17480F83430002000E0052070
:1082A00070BD00BF9833002069B101280DD8084B7C
:1082B000382202FB003090F83430DB0705D5C37C50
:1082C0000B70002070470E2070470520704700BFDC
:1082D0009833002038B50446154699B192B1FFF79E
:1082E00073F888B10A48382303FB040083696BB133
:1082F000837CC3F301030B70837CC3F385032B7072
:10830000002038BD0E20FCE70520FAE70620F8E73C
:10831000983300202DE9F3410DF107020DF106011C
:108320000546FFF7D7FF10B1784608F0C3FA284E8C
:108330009DF807709DF80610382303FB05633C4643
:10834000B3F82480032923D8DFE801F005021A1EC0
:1083500007EB87046400B4FBF8F3092B1CD8002F4B
:1083600033D0012B38BF0123DFB20021382000FBBE
:1083700005603A461430FEF793FE02B0BDE8F08186
:10838000642417FB04F4E6E741F270747C43E2E7EF
:10839000784608F08FFADEE7632B05D80A22012120
:1083A000B3FBF2F3DFB2E1E741F26F72934295BFA4
:1083B000642241F27072B3FBF2F3B3FBF2F399BFA4
:1083C000DFB20221DFB20321D0E73946CEE700BF9A
:1083D00098330020012810B50FD80B4A382404FB2D
:1083E000002393F83420D20707D59A693AB141B1F6
:1083F0009984FFF78FFF002010BD0520FCE70620C1
:10840000FAE70720F8E700BF98330020012838B5C5
:108410002AD8184C382303FB004393F8345015F046
:10842000010F254620D09C6904B33F2A20D8032998
:108430001ED89B7CB2EB930F03D103F003038B4256
:1084400010D0382404FB0054A37C62F3870361F34B
:108450000103A374FFF75EFF94F8343043F0020386
:1084600084F83430002000E0052038BD0620FCE709
:108470000720FAE79833002010B5134B197804460B
:10848000E1B9FEF7A1FFD8B11048382202FB04027F
:10849000D289022A10D10E490B7813F0010203D0C1
:1084A0000B7ADA070ED4012243F0030301F83230CD
:1084B000382303FB0404E281002010BD0F20FCE7F9
:1084C0000520FAE70420F8E75C3300209833002009
:1084D00008340020F8B504460F46FEF775FFE0B1FA
:1084E000124B382202FB0434E689022E17D01729DA
:1084F00017D80F4CF50004356019FEF737FF90B917
:10850000012303FA07F163590B43635114F8363022
:1085100043F0020304F83630F8BD0520FCE70620DE
:10852000FAE70720F8E70020F6E700BF98330020BD
:1085300008340020F8B504460F46FEF745FFF0B1B9
:10854000124B382202FB0434E689022E19D0172977
:1085500019D80F4CF50004356019FEF707FF68B114
:10856000012303FA07F1635923EA0103635114F865
:10857000363043F0020304F836300020F8BD052001
:10858000FCE70620FAE70720F8E700BF9833002051
:10859000083400202DE9F843064615460F4641B33E
:1085A0003AB3FEF711FF30B3164B382202FB063602
:1085B000F389022B21D00024DFF84C90B5F800801D
:1085C0002C80F08901280ED809EBC0002146043028
:1085D000FEF7CCFE38B12B88984510D927F8134008
:1085E0002B8801332B800134182CEAD10020BDE800
:1085F000F8830E20FBE70520F9E70620F7E70920BE
:10860000F5E700BF9833002008340020F8B506468F
:108610000F46FEF7D9FEC0B1082918D838250E4CF0
:10862000754305F10806A019FEF7A0FE88B90123DD
:1086300003FA07F1A3590B43A3512C4494F83430A7
:1086400043F0020384F83430F8BD0520FCE707202E
:10865000FAE70020F8E700BF98330020F8B5064697
:108660000F46FEF7B1FED0B108291AD838250E4CB6
:10867000754305F10806A019FEF778FE70B10123D5
:1086800003FA07F1A35923EA0103A3512C44002064
:1086900094F8343043F0020384F83430F8BD0520F8
:1086A000FCE70720FAE700BF983300202DE9F041EE
:1086B000064615460F46F9B1F2B1FEF785FEE8B160
:1086C000104BB5F800803822002402FB06362C80BF
:1086D000083621463046FEF749FE38B12B889845CA
:1086E0000ED927F813402B8801332B800134082C36
:1086F000EFD10020BDE8F0810E20FBE70520F9E76F
:108700000920F7E79833002010B50446FEF75CFE19
:1087100088B1082911D80A48382303FB040083884C
:108720008B4206D090F83430818043F0020380F809
:108730003430002000E0052010BD0720FCE700BF1A
:108740009833002010B5044651B1FEF73DFE48B104
:10875000054B382202FB04340020A3880B8010BD97
:108760000E20FCE70520FAE798330020030605D425
:10877000012803D0024B1870002070470720704773
:10878000D02D0020014B1878704700BFD02D00205D
:1087900010B50446FEF718FE90B10A4A382303FBD1
:1087A0000423187C88421EBF93F8340040F0020076
:1087B00083F83400382303FB04240020217410BD07
:1087C0000520FCE79833002010B5044651B1FEF7B0
:1087D000FBFD48B1054B382202FB04340020237C0A
:1087E0000B7010BD0E20FCE70520FAE7983300203F
:1087F00010B50446FEF7E8FD98B181F080037E2BAA
:1088000011D90A48382303FB0400437C8B4206D06D
:1088100090F83430417443F0020380F83430002083
:1088200000E0052010BD0720FCE700BF98330020C2
:1088300010B5044651B1FEF7C7FD48B1054B3822CB
:1088400002FB04340020637C0B7010BD0E20FCE79B
:108850000520FAE79833002021B128B9034B1B8883
:108860000B8070470E207047052070475E33002054
:1088700021B128B9034B9B780B7070470E207047CD
:10888000052070475E33002021B128B9034BDB7807
:108890000B7070470E207047052070475E33002034
:1088A00010B5044661B1FEF78FFD58B1064B382074
:1088B00060431A1852884A801B5A0B80002010BD52
:1088C0000E20FCE70520FAE79833002073B50191EC
:1088D00012B310B1052002B070BD4FF6FF730F49FF
:1088E00013808B89BDF80440BDF8065008462BB9AB
:1088F0004E88AE4202D10988A1420AD0B0F8443075
:10890000002BE7D1438FAB42E4D1038FA342E1D1E7
:10891000012313800020DEE70E20DCE798330020DF
:10892000F0B509B302B308BB124E158810800223BC
:108930006FF037071088A8421AD207FB036494F837
:10894000A4C01CF0010F09D0B4F87C4034B9C3F1C5
:10895000020421F81040108801301080012B01D151
:108960000020F0BD0123E5E70E20FAE70520F8E737
:108970000920F6E79833002010B5044651B1FEF700
:1089800023FD48B1054B382202FB04340020236B41
:108990000B6010BD0E20FCE70520FAE7983300209D
:1089A00070B50646FEF710FD08B33825114C754327
:1089B000002205F1140011462044FEF771FB3046F9
:1089C0006619103500F062FA2C44F08801F0C2F903
:1089D00000204FF0FF3373606070A070E07096F875
:1089E0003430B07543F0020386F8343070BD052092
:1089F000FCE700BF98330020082837B505461CD88F
:108A00000DF106010020FFF79DFE28B9BDF80630E4
:108A1000AB4201D1FFF7C4FF0DF106010120FFF7C2
:108A200091FE044658B9BDF80630AB4202D1012090
:108A3000FFF7B6FF204603B030BD0724FAE7002455
:108A4000F8E708B501F04AF8A0F5805008BD00002D
:108A500010B586B00D4B03930D4B04930D4B05934E
:108A600004230293FFF7EDFF0B4C009001236946AE
:108A70000A48019323700DF063FB20B108480DF004
:108A80006FFC06B010BD2070FBE700BF51770200FD
:108A9000BD740200D98A0200943300207033002094
:108AA000A02D002008B5FEF72BFD0848084B0360F9
:108AB0000AF020FF00F096F9FEF7D6FAFEF7C8FBA1
:108AC000FFF7C6FF034B00221A7008BD6433002075
:108AD000917F02005C330020134B1A78D00744BF0B
:108AE00042F002021A701A7AD10744BF42F0020221
:108AF0001A720E4B1A881AB15A7942F002025A7150
:108B00000B4B93F83420D00744BF42F0020283F8A5
:108B1000342093F86C20D10744BF42F0020283F85E
:108B20006C20FFF795BF00BF083400205E330020A3
:108B3000983300202DE9F04F5A4DB5F8703085B0CC
:108B4000804613B9784607F0B5FE574CDFF86CA1A4
:108B50004FF6FF7308F57A79A5F87230002604F114
:108B6000040B94F82830CBB1A369A3EB0903002BC5
:108B700019DA002384F82830B5F87030013BA5F8E5
:108B8000703003A92088FFF7F7FE10B1784607F090
:108B900091FEE36903992088012298472C34002E26
:108BA00050D10126DDE7236AA3EB0902002A66DA29
:108BB000A5F872602C2101FB06B12088FFF7E2FACC
:108BC0000746E8B1DAF800309B0417D5374B1B682D
:108BD000042B13DD2F21364812F054FFE8B12F216A
:108BE000334812F04FFF411C324B334AD3F804355F
:108BF00000920197802205200CF048FE082F15D125
:108C0000D4E908231A445B0022626362A269236AE2
:108C1000D31A002BC2DA2262C0E75C21244812F08A
:108C200031FF08B15C21DBE72149DDE7042F01D0EA
:108C30000F2F20D12C2303FB0656B36B03F51C43E7
:108C40004033B363B5F870304BB3B5F87230012BD5
:108C500002D9784607F02EFEB5F872302C2202FBBE
:108C600003539B6BB3EB080248BFA8EB0302EA6017
:108C700005B0BDE8F08F784607F01CFEC6E7B5F8F2
:108C800072204FF6FF718A4206D02C2101FB02525E
:108C9000926B9B1A002B81DAA5F872607EE7EB607D
:108CA000E6E700BF1834002030340020642E002096
:108CB00022BE03000010014047BE0300682E0020C2
:108CC00038B52C4C2C2303FB0043054693F8403069
:108CD00013B9784607F0EEFDB4F8703013B9784652
:108CE00007F0E8FD2C2202FB0542002382F8403009
:108CF000B4F87030013B9BB2A4F87030A3B3B4F861
:108D00007230AB4235D1926B1B4B134494F8402028
:108D1000EAB1A26BD11A0029B8BF13464FF6FF7211
:108D2000B8BF002294F86C10A1B1616ECB1A002B71
:108D300010DA0123A4F87230B4F872300D482C22F6
:108D400002FB0344A16BBDE838400BF002B84FF6BC
:108D5000FF72E7E74FF6FF739A42A4F87220EBD157
:108D6000784607F0A7FDE7E70248BDE838400AF07B
:108D7000D9BF38BD18340020008793030128F8B507
:108D800005460E46174602D9784607F093FD0BF0CC
:108D9000B3FC134B93F8402012B11A8BAA421DD09A
:108DA00093F86C20B2B1B3F84420AA4212D101204A
:108DB0002C2404FB00343388A28D9A420AD1E28D20
:108DC00073889A4206D1FFF77BFF636B0022394616
:108DD00028469847BDE8F8400BF0CEBC0020E7E7F6
:108DE0001834002010B5044C74220021204612F0E3
:108DF00079FD024BA36010BD18340020358B0200B2
:108E000073B51F4C0BF078FCB4F870302BB1002315
:108E10002046A4F870300AF085FF94F840307BB10A
:108E2000258B1848666B00212C2212F05BFD01A9EE
:108E30002846FFF7A1FDF0B9022201992846B04764
:108E400094F86C309BB1B4F844500F48246E002164
:108E50002C2212F047FD01A92846FFF78DFD10B125
:108E6000784607F027FD022201992846A0470BF01B
:108E700083FC02B070BD784607F01CFDDCE700BF44
:108E800018340020303400205C340020012873B5F1
:108E900005462DD8174C0BF02FFC94F8403013B139
:108EA000238BAB4220D094F86C30FBB1B4F8443043
:108EB000AB421BD101263046FFF702FF01A928462D
:108EC000FFF75AFD10B1784607F0F4FC2C2303FBA2
:108ED00006440222636B01992846984700240BF050
:108EE0004BFC204602B070BD0026E4E70524F6E7FF
:108EF0000524F6E7183400204A09012301F01F0178
:108F000003FA01F150F82230194214BF0120002069
:108F100070474A09012301F01F0103FA01F150F8DB
:108F200022300B4340F8223070474A09012301F0F8
:108F30001F0103FA01F150F8223023EA010340F83F
:108F40002230704701F11F02520970B5551EA1EB86
:108F500045140121A140002301399A4201D1012089
:108F600070BD9D4250F823400CBF0E464FF0FF36B7
:108F7000264201D10133F0E70020F1E7A0F1100112
:108F800089B2072902D80248FFF7B6BF0020704710
:108F90009C3400202DE9F0474FF6FF73DFF8408046
:108FA000DFF840900B8007460D4600241E464FF028
:108FB000AC0A21464046FFF79FFF40B10AFB04F38D
:108FC00033F80930BB4206D12C80BDE8F0872B88EE
:108FD000B34208BF2C800134042CEAD10020F4E70E
:108FE000A4360020AC3600202DE9F0474FF6FF7381
:108FF000DFF84080DFF840900B8007460D460024E4
:109000001E464FF02A0A21464046FFF775FF40B141
:109010000AFB04F333F80930BB4206D12C80BDE8CB
:10902000F0872B88B34208BF2C800134082CEAD18A
:109030000020F4E7E4340020EC340020024B33F845
:1090400020300B80704700BFA43400202DE9F04190
:10905000A3F1080516240E4E6C430746A01D884652
:1090600030441146102212F032FC331900225A719A
:1090700001222946A3F8028006481A713753FFF7E8
:1090800048FF29460448BDE8F041FFF742BF00BF52
:10909000443600203C3600204036002010B40C46F8
:1090A00000F108030A1D208849885DF8044B9BB233
:1090B000FFF7CCBF70B516244443074E0D46A11DE3
:1090C00010223144281D12F002FC325B2A80331931
:1090D0005B886B8070BD00BF44360020044A0B469D
:1090E000142101FB002104311022184612F0EFBBBD
:1090F0005C3900200422014812F0E9BB92360020BE
:1091000008460422014912F0E2BB00BF923600205B
:109110002DE9F0414488012C05463ED004F470430B
:10912000B3F5005F43D009D8002B39D0B3F5805F89
:109130003BD0784607F0BEFB00240BE0B3F5804F30
:1091400007D0B3F5A04F2ED0B3F5405FF1D1032483
:1091500000E00424174F6E881C2202FB0472052CC9
:109160009289A6EB02062A8802F57F5202F13F029D
:109170004FEA820205F1040895B202D9784607F059
:1091800099FB1C2303FB047441463046A3692A461D
:10919000984731466068FFF7BCFE0120BDE8F081CA
:1091A000023CE4B2D6E70524D4E70124D2E7022446
:1091B000D0E700BFBCBE030010B5044610B9784626
:1091C00007F078FB2346BDE81040184710B5044669
:1091D00010B9784607F06EFB0A4B002293F8421054
:1091E00090B269B1A3420AD003F121018C4206D0AA
:1091F0000132042A03F1AC03F0D14FF6FF7010BD29
:10920000A342F4E7CE3600202DE9F8432A255D433A
:10921000164C91468046A81D10220F462044494610
:109220001E4612F054FB05F11900002110222044C3
:1092300012F058FB691D214448460CF013FA10B196
:10924000784607F037FB2A237343E2180021117197
:10925000917557803146064824F80380FFF759FE80
:1092600031460448BDE8F843FFF753BEEC34002014
:10927000E4340020E8340020F8B50D4606462A24E0
:1092800074430021104E17462846242212F02AFB70
:10929000A11D10223144281D12F019FB325B2A80D7
:1092A00033195A886A809B7D4BB104F1190131440E
:1092B00005F114001022BDE8F84012F008BB3B880D
:1092C000043B3B80F8BD00BFEC3400202DE9F041A9
:1092D0008046AC240D46144E04FB08F400211746CA
:1092E0002846242212F0FEFA06EB0408335B2B809A
:1092F00098F86430AB70A11C10223144E81C12F0C5
:10930000E6FA98F864304BB104F11201314405F1EA
:1093100013001022BDE8F04112F0D9BA3B88043B9B
:109320003B80BDE8F08100BFAC36002001F11F0298
:1093300052099200002112F0D5BA00002DE9F04147
:10934000204CAC255543164605F1680362192344A9
:109350000F469367804610B91B4B01221A7005F126
:109360002201214438460CF086F910B1784607F006
:10937000A1FA05F17C01214438460CF08DF910B1B9
:10938000784607F097FAA81C39461022204412F0BC
:109390009EFA05F1120010220021204412F0A2FAD8
:1093A000AC237343E21824F80380002331460748B6
:1093B00082F86430FFF7ADFD31460548BDE8F04165
:1093C000FFF7A7BDAC36002090360020A436002061
:1093D000A8360020F8B5A1F1100514246C430D4FF8
:1093E0000646201D31461022384412F070FA391911
:1093F00030460CF079F910B1784607F05BFA29464F
:109400000548FFF786FD29460448BDE8F840FFF708
:1094100080BD00BF5C3900209C340020A0340020B7
:109420000B4600F1100189B21846FFF7D3BF0000C8
:1094300008B5064B064800221A700CF055FD20B105
:109440000448BDE808400CF08BBF08BD5A36002028
:109450005C360020D42D00202DE9F84304468846D0
:109460000BF04AF9052C02D9784607F023FA154B80
:10947000DFF85C901F78C7B11C2505FB04951248E6
:10948000A9892A69414489B20CF0EDFD064660B114
:109490000246011D6B694046984730460CF012FEAB
:1094A0000BF06AF93846BDE8F8831C2303FB0494EB
:1094B0004146A068FFF72DFD04480CF051FF00273E
:1094C000EEE700BF5A3600205C36002080360020D0
:1094D000BCBE0300F8B505460E460BF00DF9052D90
:1094E00002D9784607F0E6F90F4B104F1C7874B993
:1094F0001C2303FB05753146A868FFF70AFD0C48DD
:109500000CF02EFF00240BF037F92046F8BD1C2389
:1095100003FB057307489989314489B20CF0E8FDD3
:109520000028E5D1EFE700BF5A360020BCBE03009B
:10953000803600205C3600202DE9F843184D0026C7
:10954000AF68D5F80080384641465FFA86F9FFF7E4
:10955000F9FCF8B1052E1FD1BDE8F8832146384645
:10956000FFF7CAFC70B121466868FFF7C5FC2146C9
:1095700060B14846FFF770FF0028EDD0214638461D
:10958000FFF7D3FC0134A045E8D1E3E74846FFF7F5
:10959000A1FFF1E70446F6E701361C35D0E700BF2E
:1095A000BCBE03002DE9F74F804692460E460029C7
:1095B00053D009F0E7FF0228814627D020F00207A8
:1095C000FBB2012B22D14FF6FF74354B354A0025F3
:1095D000A3465C450ED11046294601930092FFF741
:1095E0008BFCDDE9002328B9ACB20135102DF0D198
:1095F000002305E033F825104145F6D1ACB2012334
:10960000BAF1000F04D1B9F1030F28D0102021E0E6
:10961000FFB2012FFAD1ABB94FF6FF72944223D0BB
:109620001F4A204822F8248002EB840221465380FE
:10963000FFF76FFC21461C48FFF76BFC21463846BC
:10964000FFF70AFF164B348003EB8404A378013341
:10965000A370002003B0BDE8F08F0E20FAE7BBB97D
:109660004FF6FF72944201D10420F3E70C4A0D48F3
:1096700022F8248002EB840221465380FFF749FC44
:1096800021460948FFF745FC21460120FFF7E4FE8B
:10969000034B348003EB8404E3780133E370D8E7B1
:1096A000A43400208C340020903400202DE9F047B1
:1096B0004FF6FF73DFF84C80DFF84CA00B800746B5
:1096C0000D4600244FF0140921464046FFF714FCD4
:1096D000064650B92A884FF6FF739A4200D12C8073
:1096E0000134082CF0D1002608E01022394609FB8D
:1096F00004A012F0DDF80028F2D12C803046BDE83D
:10970000F08700BF9C340020603900202DE9F34130
:109710004FF6FF770E461446ADF80670804640B30C
:1097200039B30DF10601FFF7C1FFBDF8063003F1B3
:109730001005ADB250B9BB421DD029464046FFF7D7
:1097400049FEBDF806100220FFF786FEBDF8063080
:109750000A4A3580142101FB032334B9DA78013237
:10976000DA70002002B0BDE8F0819A7801329A7078
:10977000F7E70E20F6E70420F4E700BF5C3900208D
:1097800008B528B9784607F095F84FF6FF700BE05A
:10979000064B9842F9D303F501729042F5D8C01AEE
:1097A000AC23B0FBF3F080B208BD00BF203700202F
:1097B00008B528B9784607F07DF84FF6FF7008BD68
:1097C0000A4B984209D303F59372904205D8C01A08
:1097D0002A23B0FBF3F080B2F1E7054A4FF6FF739E
:1097E000904214BF18460820E9E700BFF03400207B
:1097F00048360020F8B50C46154683B20A1D0646C9
:1098000049882088FFF700FD242D1DD1124F2A25FD
:1098100075437B190122143405F119009A7521460C
:109820001022384412F053F805F11801394420464B
:109830000BF018FF10B1784607F03CF82A2303FB21
:1098400006763379F375F8BD142DFCD07846BDE863
:10985000F84007F02FB800BFEC3400202DE9F041AC
:109860000D46174E07469046033182B2AC24288835
:10987000FFF764FDAB7804FB076282F86430D3B174
:10988000B8F1240F02D0784607F014F87C43133562
:1098900004F1120029461022304412F018F804F1A5
:1098A0004301314428460BF0E6FE38B17846BDE866
:1098B000F04106F0FFBFB8F1140FF7D1BDE8F08119
:1098C000AC36002010B501298CB0044604D178468E
:1098D00006F0F0FF0CB010BD0229F8D00329F9D131
:1098E0002C22002101A811F0FDFF11238DF8043076
:1098F00002238DF80830054B0394DA681B69059242
:1099000001A8069308F0ACFBE4E700BF5C3600203A
:1099100011460020FFF7D6BF08461146FFF7D2BF19
:1099200041090B4A00F01F004FF0FF33834052F80B
:109930002100034009D05A421A40064B5343DB0E24
:10994000054AD05C00EB411070470420704700BF0F
:10995000A436002031B57C0764BF03004FF6FF73C7
:109960000B80084B1B6813F0010307D0064B1B88C4
:10997000834205D108230B800120704708220A800A
:10998000002070473C360020443600200F2810B5D8
:10999000044604D801460648FFF7AEFA28B9204627
:1099A000FFF7ECFA00F0010010BD0120FAE700BF5C
:1099B0008C3400200F28F8B5044617D80146174804
:1099C000FFF79AFA90B1164E06EB8403987858B9CF
:1099D000DD7815BB21461148FFF7A7FA26F8245079
:1099E00021460120FFF776FD002016E02046FFF714
:1099F000C5FA88B1103C0B4F142565437B19987844
:109A00000028F1D1DE7846B921460748FFF78DFAE4
:109A10007E5321460220E5E70520F8BD8C34002066
:109A2000A43400205C3900209C34002010B5094B80
:109A30000A8884B2214623F8242003EB8403002201
:109A400005485A80FFF765FA21460448BDE81040F2
:109A5000FFF75FBAA43400208C340020903400203B
:109A60001FB51A4B1B781BB9002005B05DF804FB2D
:109A700004AB0A2243F8102D012101AA14480CF06E
:109A8000BBFA03460028EFD1BDF80A20102A0FD1F7
:109A9000BDF80C20082A0BD1BDF80620082A07D1F2
:109AA000BDF80820012A03D1BDF80420042A02D001
:109AB000FFF7BEFCD8E70146064A05480CF026FA37
:109AC000054B186800F00100CFE700BF5A360020B0
:109AD0005C360020119102009434002008B509F092
:109AE0002DF9A0F5805008BD70B586B01E4B0393CC
:109AF0001E4B04931E4B05931E4E00230293FFF74B
:109B0000EDFF3278009001230193A2B91A4C0AF0BC
:109B1000F3FD694620460CF013FB28B10AF02CFE39
:109B200016480CF01DFC06E02578012D05D00AF042
:109B300023FE0123337006B070BD20460A22294659
:109B40000CF091FA044648B1102343810422082303
:109B500083818280C38005810CF0B4FA0AF00CFE88
:109B6000002CDDD0E5E700BF199902001199020031
:109B7000819B02005A3600205C360020E42D002034
:109B8000FFF7B2BF70B5214C04F1A80625686068E4
:109B90002946FFF7CBFB1C3454F8140C2946FFF779
:109BA000C5FBB442F2D1002319481946C218043348
:109BB000402BD1709170F9D1002316491C46CA1868
:109BC0001433A02BD4709470F9D101211248FFF7FF
:109BD000ADFB01211148FFF7A9FB01211048FFF758
:109BE000A5FB01210F48FFF7A1FB01210E48FFF75C
:109BF0009DFB01210D48FFF799FB0D4B1C805C80FC
:109C00000C4B1C70BDE87040FFF712BCBCBE0300DB
:109C1000A43400205C390020943400208C340020CF
:109C20009C340020A4360020E43400203C36002080
:109C30009236002090360020084808B5084B036093
:109C400009F058FE074B084A9A60084ADA60084B48
:109C500000221A70BDE80840FFF746BF9836002082
:109C6000C1A3020080360020B9910200399502009C
:109C70005A36002070B5054610B9784606F01AFE2F
:109C8000174E346814F0010427D128886B880344E8
:109C9000984201DB0B2070BD09F074FC0128F9D15A
:109CA00028886B881844013880B209F06BFC0128C1
:109CB000F0D1042229460B4811F009FE33682146F1
:109CC00043F0010320463360FFF7C6FB064A1368E2
:109CD00043F0010313602046DDE70F20DBE700BF00
:109CE00094340020923600209834002010B50446A9
:109CF00010B9784606F0DEFD204604220249BDE890
:109D0000104011F0E4BD00BF923600200122FFF7A1
:109D100049BC000010B50446FFF738FE78B10F2C9F
:109D200089BF084B084B103C14228CBF02FB043443
:109D300003EB84040020A3780133A37010BD052039
:109D4000FCE700BF5C390020A43400200122FFF7AB
:109D5000DDBC00000F2810B504460FD801460E48A0
:109D6000FFF7CAF850B10D4B03EB84039A78013A20
:109D70009A702046BDE81040FFF71CBE2046FFF752
:109D8000FDF830B1064AA4F11003142101FB0323AE
:109D9000ECE7052010BD00BF8C340020A434002067
:109DA0005C3900200022FFF7FDBB0022FFF7AEBCAC
:109DB00010B50446FFF7EAFD78B10F2C89BF084BB8
:109DC000084B103C14228CBF02FB043403EB8404C8
:109DD0000020E3780133E37010BD0520FCE700BFED
:109DE0005C390020A434002038B504460D4619B370
:109DF0000F2810D801461248FFF77EF858B1114BD2
:109E000033F824206A8033F8240009F0BBFB287063
:109E10000020686038BD2046FFF7B0F870B1142309
:109E2000103C094A5C430020135B6B8004341444EB
:109E300002236C602B70EDE70E20EBE70520E9E7CD
:109E40008C340020A43400205C39002013B5044673
:109E5000FFF79CFD08B369462046FFF7C5FFC0B970
:109E60009DF80030032B0BD10D4B03EB8403DA7804
:109E70009AB1013ADA702046FFF79CFD02B010BD9E
:109E8000022B08D1074AA4F11003142101FB03237C
:109E9000EDE70020F2E70F20F0E70520EEE700BF36
:109EA000A43400205C3900202DE9F7430D46044618
:109EB00000283CD000293AD0408809F063FB0228F2
:109EC00024D0032801D0012833D14FF6FF73DFF8E7
:109ED0006880DFF8689067882B8000241E46214642
:109EE0004046FFF709F840B139F82430BB4208D1A9
:109EF0002C80002003B0BDE8F0832B88B34208BF5C
:109F00002C800134102CEAD10520F3E760684FF66D
:109F1000FF73ADF8063050B10DF10601FFF7C6FB37
:109F20000028F1D0BDF8063010332B80E1E70E2079
:109F3000E0E71020DEE700BF8C340020A4340020CE
:109F400007B50DF10601FFF725F820B1BDF80600B1
:109F500003B05DF804FB4FF6FF70F9E708B1FFF7B7
:109F600035B94FF6FF70704707B50DF10601FFF7E1
:109F70003BF820B1BDF8060003B05DF804FB4FF6D6
:109F8000FF70F9E708B1FFF713BC4FF6FF70704799
:109F900038B504460D4669B107280DD80146074873
:109FA000FEF7AAFF40B12A206043054B1B5A2B80C5
:109FB000002038BD0E20FCE70520FAE7E43400203D
:109FC000EC340020082870B504460E463CD8002921
:109FD00038D0082821D001461C48FEF78DFF002804
:109FE00032D01B4D2A2303FB04535B88032B02D979
:109FF000784606F05FFC2A2303FB04531548598872
:10A00000FEF77AFF10B9784606F054FC2A2303FBCA
:10A01000045463883380002070BD0F4B1B68DB073E
:10A0200012D50E4C6388032B02D9784606F042FC09
:10A0300061880848FEF760FF0028EAD1784606F0FC
:10A0400039FCE6E70E20E7E70520E5E7E4340020E9
:10A05000EC340020A43600203C360020443600209A
:10A06000F0B50746C7B015460E4600296ED0002A47
:10A070006CD0B0F5805F6BD21146FEF78BFF2A885B
:10A08000044670B13548AC2303FB02003146102270
:10A09000023011F00DFC00280CBF03200F2047B048
:10A0A000F0BD4FF6FF739A4254D031463846FFF761
:10A0B00045F929880320FFF7CFF9284B2988AC22DE
:10A0C00002FB013138468C3109F01BFC244B186827
:10A0D00010F48020E3D0234B1B68062B3CDD224B81
:10A0E0001A68204605AC335C190903F00F03515C74
:10A0F00004F81010D15C04EB4003013010285970B3
:10A10000F1D100232F21194884F8203011F0BAFC36
:10A1100098B12F21154811F0B5FC411C144B154A7C
:10A12000D3F804350192144A00920720029440F6B5
:10A130006E120BF0ABFB0020B1E75C210B4811F075
:10A14000A1FC08B15C21E5E70849E7E70E20A6E796
:10A150000720A4E70420A2E72046A0E7AC360020B1
:10A16000682E0020642E00206C2E002083BE030089
:10A1700000100140ADBE030046BC0300032838B503
:10A1800004460D460DD801460748FEF7B5FE40B11E
:10A19000064BAC2202FB0434002094F864302B7090
:10A1A00038BD0520FCE700BFA4360020AC360020F7
:10A1B0002DE9F0410546884600294ED003284ED8A7
:10A1C00001462848FEF798FE002848D0264BAC24CC
:10A1D0006C431A191E4692F8642062B1012A07D115
:10A1E00004F1120010224146184411F061FB00B145
:10A1F0000820BDE8F08104F112071F4441461022F7
:10A20000384611F064FB04F14301314440460BF041
:10A2100032FA10B1784606F04DFB04F19401314456
:10A2200038460BF039FA10B1784606F043FBAC2300
:10A230006B43F118012281F8642004F1A401F05A63
:10A24000314408F003FF29460848FEF762FE29461C
:10A250000320FFF701F90020CBE70E20C9E7052016
:10A26000C7E700BFA4360020AC360020A836002087
:10A27000032810B504461FD801461148FEF73CFEDE
:10A28000D0B11048AC236343C11891F86420012A6F
:10A2900014D1022281F8642003F1A4010144C05AC0
:10A2A00008F0D4FE21460848FEF733FE214603207D
:10A2B000FFF7D2F8002010BD0520FCE70820FAE7E0
:10A2C000A4360020AC360020A836002003282DE953
:10A2D000F843074662D801463248FEF70DFE0028D3
:10A2E0005CD0314EAC257D4306EB050898F8643010
:10A2F000002B55D005F11201A81C31441022304426
:10A3000011F0E5FA05F1430105F122003144212263
:10A31000304411F0DCFA05F1940105F17C00314480
:10A320001822304411F0D3FA002405F18C0188F88A
:10A3300064403144705B1D4EDFF88080224608F097
:10A3400085FEA6F1130921464046FEF7D5FDB8B1BA
:10A350002A20174D604305446B88BB4210D1AB7D6A
:10A3600073B131181222484411F0B1FA002321468A
:10A370001048AB75FEF7CDFD21460420FFF76CF8C1
:10A380000134082CDFD139460B48FEF7C2FD3946AF
:10A390000320FFF761F80020BDE8F8830520FBE704
:10A3A0000820F9E7A4360020AC3600200335002051
:10A3B000EC340020E8340020A8360020E4340020EB
:10A3C00070B50378042B1ED1D0E90146457E2046A6
:10A3D000FFF7D6F94FF6FF72904214D02034A64210
:10A3E00011D1094AAC2101FB002393F864302DB14F
:10A3F000012B08D1BDE87040FFF73ABF1BB1BDE8A3
:10A400007040FFF763BF70BDAC3600202DE9F04708
:10A410000D46064600B3F9B10024DFF84480DFF8AA
:10A4200044900F680C604FF0AC0A21464046FEF79E
:10A4300063FD58B12B689F4210D00AFB04F232F83A
:10A44000092026F813202B6801332B600134042CDB
:10A45000EBD10020BDE8F0870E20FBE70920F9E7EB
:10A46000A4360020AC3600202DE9F0418046C6B06D
:10A470000E461F461546002A6BD0002B69D009F006
:10A4800081F8012867D1032E67D831463748FEF797
:10A4900033FD002861D00DF112014046FFF75EFA4E
:10A4A000044600285BD1BDF812304FF6FF7293428C
:10A4B00057D02A4631464046FEF7C8FDBDF8121077
:10A4C00005200839FEF7C8FFBDF812303B80284B45
:10A4D000186810F4802030D0264B1B68062B42DD14
:10A4E000254B1A68204605AC2B5C190903F00F03B5
:10A4F000515C04F81010D15C04EB400301301028CB
:10A500005970F1D100232F211C4884F8203011F01C
:10A51000B9FAA8B12F21194811F0B4FA411C184B0F
:10A52000184AD3F804350192174A00920720029482
:10A5300040F675220BF0AAF9002046B0BDE8F08184
:10A540005C210E4811F09EFA08B15C21E3E70B494B
:10A55000E5E70E20F1E71020EFE70520EDE70F20FB
:10A56000EBE70420E9E72046E7E700BFA436002038
:10A57000682E0020642E00206C2E002083BE030075
:10A580000010014076BE030046BC03002DE9F041F7
:10A590000746C6B088461E461546002A6FD0002BD7
:10A5A0006DD003296DD83B48FEF7A6FC002868D083
:10A5B000B7F5805F67D231463846FEF715FD338820
:10A5C000044678B134482A2202FB030029461022AF
:10A5D000063011F06DF900280CBF03200F2046B0A3
:10A5E000BDE8F0814FF6FF7293424ED02A464146B5
:10A5F0003846FEF709FE31880420FEF72DFF274B71
:10A60000186810F48020EAD0254B1B68062B3EDD2D
:10A61000244B1A68204605AC2B5C190903F00F0384
:10A62000515C04F81010D15C04EB40030130102899
:10A630005970F1D100232F211B4884F8203011F0EC
:10A6400021FA98B12F21184811F01CFA411C174B20
:10A65000174AD3F804350192164A00920720029453
:10A6600040F6C5220BF012F90020B8E75C210E4835
:10A6700011F008FA08B15C21E5E70B49E7E70E2085
:10A68000ADE70520ABE70720A9E70420A7E72046B0
:10A69000A5E700BFA4360020EC340020682E00207F
:10A6A000642E00206C2E002083BE030000100140A9
:10A6B00069BE030046BC0300F8B505460E460029F6
:10A6C0003FD007283FD801462048FEF715FC002858
:10A6D00039D01F481F492A246C430319AC275A88D4
:10A6E00007FB0212074692F86420012A09D104F1FF
:10A6F00019010844997D31B11022314611F0D8F882
:10A7000000B10820F8BD9A753146102211F0DFF82B
:10A7100004F11801394430460AF0A4FF10B178461C
:10A7200006F0C8F82A2303FB057329461A79DA755F
:10A730000948FEF7EEFB29460420FEF78DFE0020B7
:10A74000E0E70E20DEE70520DCE700BFE434002070
:10A75000EC340020AC360020E8340020072810B587
:10A7600004460ED801460848FEF7C6FB48B121460C
:10A770000548FEF7DAFB21460420FEF7ABFE002079
:10A7800010BD0520FCE700BFE434002003282DE9BC
:10A79000F041044640D801462148FEF7ADFB0028B1
:10A7A0003AD00020FFF7BCF8002504282CD1012D59
:10A7B00034D01C4E1C4F00254FF02A082946304645
:10A7C000FEF79AFB58B108FB05735B88A34206D1DC
:10A7D000A8B2FFF7C3FF10B1784606F06BF8013559
:10A7E000082DEBD1AC236343104AD35A0BB9104A5E
:10A7F000137021460A48FEF798FB21460320FEF716
:10A8000069FE0020BDE8F0810130032805F1010553
:10A81000CDD8FFF785F8C8E70520F3E70F20F1E76B
:10A82000A4360020E4340020EC340020AC360020B4
:10A83000903600202DE9F84F064615460F4669B3BD
:10A8400062B303282CD801461748FEF755FB38B3EE
:10A850000024DFF858A0DFF85880D5F800902C606D
:10A860004FF02A0B21465046FEF746FB80B10BFB0A
:10A8700004F208EB02035B88B34209D12B689945C7
:10A8800010D032F8082027F813202B6801332B60F2
:10A890000134082CE6D10020BDE8F88F0E20FBE73C
:10A8A0000520F9E70920F7E7A4360020E43400206A
:10A8B000EC34002070B506460C461546002A45D0FB
:10A8C000082945D812BF244824480021FEF714FB6C
:10A8D00000283DD04FF6FF739E4207D1082C17BFCA
:10A8E0001F4A204B2A2303FB04235E88032E31D802
:10A8F00031461D48FEF700FB60B3082C1B4923D0EE
:10A90000AC2303FB0613164A93F86430022B08D1DC
:10A910002A236343D018807D18B1173313446B602A
:10A9200004E02A2303FB042404346C60AC2303FBFF
:10A9300006F00B1893F86430022B0CBF4330223022
:10A9400008442860002070BD094BE8E70E20FAE7B4
:10A950000520F8E70820F6E7E43400203C36002024
:10A96000EC34002044360020A4360020AC36002011
:10A970004836002038B50D46FFF7E2FA044675B1B7
:10A9800003280ED801460848FEF7B6FA48B1074B2F
:10A99000AC2202FB043422342C60002038BD0E208F
:10A9A000FCE70520FAE700BFA4360020AC36002003
:10A9B0002DE9F843074690460E4611B9784605F052
:10A9C00079FFB8F1000F02D1784605F073FF3068C7
:10A9D00007F07F0730BB002400233360C8F8003045
:10A9E0001B4BDFF87090AC2505FB0435A3B2032B9D
:10A9F00016D821464846FEF77FFA00B395F8643032
:10AA000095F8220005F12201ABB1874205F143031D
:10AA100095F8432016D1BA420FD13160C8F8003002
:10AA2000BDE8F883FEF7D2FB4FF6FF739842D2D011
:10AA3000441CA4B2D0E7874201D1316005E0AC35B7
:10AA40000134D3E79742FAD133600023E6E700BF31
:10AA5000AC360020A43600202DE9F0470446884695
:10AA6000164612B9784605F025FF14B9784605F068
:10AA700021FF2046FFF772FA4FF6FF739842074610
:10AA800003D100233360BDE8F087306800B3FEF7E0
:10AA90008FFE441C1148DFF848A02A2505FB040559
:10AAA00005358146072CECD821465046FEF724FA9E
:10AAB00080B135F8033CBB420CD12B7888EA030304
:10AAC0009B0607D12A2000FB049404343460DAE7A3
:10AAD0000446DFE701342A35E4E700BFEC34002008
:10AAE000E434002038B504460D4611B9784605F027
:10AAF000E1FE34B1044B33F8042BA2420CBF1C46D8
:10AB000000242C6038BD00BF443600202DE9F047FA
:10AB100007469146884611B9784605F0CBFEB9F153
:10AB2000000F02D1784605F0C5FED8F800000028D5
:10AB30004CD0FEF725FE441C254EDFF89CA0AC252A
:10AB400005FB04658C353BE021465046FEF7D4F901
:10AB5000A0B315F8283C4BB94FB108222946384616
:10AB600010F0A6FEB0FA80F0400901E0CFB9012054
:10AB700020B3184B1B78FBB1AC236343F35AB3FAF1
:10AB800083F35B09AC20444332197434264482F8C1
:10AB90007430C8F8006092F8643089F80030BDE87D
:10ABA000F08708222946384610F082FE0028DED0C1
:10ABB000082205F11801D2E70123E3E70134AC359F
:10ABC000032CC1D90023C8F80030E8E70446B3E7F6
:10ABD000AC36002090360020A43600202DE9F74343
:10ABE00006460C4608F0CEFC02285FD0032818D099
:10ABF000012801D0002011E0484B1B6813F001032D
:10AC0000F8D0474B1A889642F4D35B8813449E428F
:10AC10004FF00003EEDA66802070636003B0BDE899
:10AC2000F08300236360A6F57F43FC3B66802070C1
:10AC3000032B16D801A252F823F000BFF5AB020097
:10AC4000F5AB02004DAC0200A9AC020001A9012045
:10AC50000DF081FB10B1784605F02CFE9DF8040044
:10AC6000DCE74FF6FF752F4FDFF8C0900024A846B1
:10AC700045450FD121464846FEF73EF950B9A5B2E9
:10AC80000134102CF4D10CF0EBF94088831B5842AE
:10AC90005841C3E737F82420B2424FEA8403EFD18A
:10ACA0003B44DB78002BEBD00120B7E76068E8B9C4
:10ACB0004FF6FF73ADF80430BDF80450DFF8708034
:10ACC000194F072D4FF6FF7394BF01350025ADF8DE
:10ACD00004304FF01409082D8CD029464046FEF769
:10ACE0000BF948B9ADF804500135F4E701A9FEF7B6
:10ACF000DDFC0028DCD0DFE709FB05F3DA5BB242BC
:10AD0000F2D1FA18D278002A3FF474AF0433022249
:10AD10001F4466802270676080E700BF9434002083
:10AD200092360020A43400205C3900208C340020AE
:10AD30009C34002038B50C46054600B111B9784660
:10AD400005F0B8FD024B1A882A805B88238038BD45
:10AD50009236002007B50378022B0AD0032B01D0CE
:10AD6000012B17D169464088FFF738FF03B05DF823
:10AD700004FB69464068FEF799FC0028F6D0BDF850
:10AD80000030054A142101FB0323D878003018BF96
:10AD90000120EBE70020E9E75C3900202DE9F04FC6
:10ADA0000C4689B0814600B111B9784605F082FDA4
:10ADB0002388152B02D8784605F07CFD4FF6FF72EC
:10ADC0004FF42013CDE905230025012305A90A220C
:10ADD0004846ADF81C30ADF8065010F078FD0A2357
:10ADE00023800DF10E012846FDF742FD10B1784693
:10ADF00005F060FD0DF10F010020FDF745FD10B1DC
:10AE0000784605F057FD9DF80E309DF80F20D3428F
:10AE10003DD003A90020FDF71FFD10B1784605F0D5
:10AE200049FD08AA02230DF1080822F81A3D4146FF
:10AE30000020FDF775FD10B1784605F03BFD208838
:10AE4000042203A9484410F042FD26889DF80E30E4
:10AE50000436B6B2268053B10027BDF806A03D46A1
:10AE60004FF6FF7B574515D323881D4425809DF859
:10AE70000F3063B12388BDF806700026994435462B
:10AE80004FF6FF7ABE421DD323881D44258009B0AA
:10AE9000BDE8F08F04A938F81700FDF701FD10B1E7
:10AEA000784605F007FDBDF810305B4508D1A819BC
:10AEB00002220DF11201484410F009FD0235ADB235
:10AEC0000137CFE704A938F81600FDF7E9FC10B107
:10AED000784605F0EFFCBDF8103053450FD0022244
:10AEE00004A909EB050010F0F2FCA81C02220DF1E8
:10AEF000120119FA80F010F0EAFC0435ADB2013607
:10AF0000C0E70000024B1B6803B11847704700BF41
:10AF1000FC39002013B5044601A8FEF7E7FEBDF892
:10AF20000400001B18BF4FF0FF3080B202B010BD0C
:10AF300037B504460CF098F80546002301A80093A5
:10AF4000FEF7D4FE6946288AFFF714FD30B9009B4E
:10AF50006360BDF80430238003B030BD0520FBE7FB
:10AF60001FB50193BDF81830ADF808300023ADF8D7
:10AF700000208DF80A304FF6FF720223ADF8022050
:10AF80008DF80B306A46079B0393FDF727F905B050
:10AF90005DF804FB7FB505460E46002003A98DF839
:10AFA00008000DF0D8F910B1784605F083FC9DF843
:10AFB0000D309DF80820013B0A2104AC63F3020226
:10AFC000BDF80E30B3FBF1F3013B63F3C70204F8A5
:10AFD000082D08F097FC01230190009348F2250208
:10AFE000234631462846FFF7BBFF04B070BD7FB54E
:10AFF0000B89012B06460D4631D14C688DF8043083
:10B000002378C3F3020301338DF805302378DA087F
:10B010000A2302FB0333142BB8BF142301A9002019
:10B02000ADF806300DF086F910B1784605F042FC17
:10B0300030462946FFF7AEFF0023CDE90233112346
:10B040008DF808302378C3F302038DF80C30237891
:10B0500002A8C3F3C4038DF80D30FFF753FF04B00B
:10B0600070BD0B890BB9FFF795BF704737B5044624
:10B070000D4608F047FC084B1860084B01221A7077
:10B0800000230190009348F24A0229462046FFF728
:10B0900067FF03B030BD00BF043A0020003A002033
:10B0A00030B50B89032B85B005460C4618D14B688B
:10B0B0009A78012A14D800228DF80C201B88ADF84C
:10B0C0000D3002238DF80F3008F01CFC0423019092
:10B0D000009348F2480203AB21462846FFF740FFA1
:10B0E00005B030BD30B585B004460D468DF80C2056
:10B0F000ADF80D3008F006FC03230190009348F2F0
:10B10000440203AB29462046FFF72AFF05B030BDB5
:10B1100030B585B004460D46002303A90120ADF8E3
:10B1200008300DF018F910B1784605F0C3FB9DF812
:10B130000C308DF808309DF80D309DF80920013B4A
:10B1400063F30202BDF80E308DF80920142B15D1DF
:10B15000D2B212F0070111D161F3C7028DF80920B4
:10B1600008F0D0FB02230190009348F2280202ABC2
:10B1700029462046FFF7F4FE05B030BD0A22B3FB96
:10B18000F2F39DF80920013B63F3C702E6E77FB5C0
:10B190000B89022B05460E463ED14C682378012BC5
:10B1A0003AD803F001038DF804306378C3F3020347
:10B1B00001338DF80530637883BB1423ADF8063076
:10B1C000BDF80630142B38BF142301A90120ADF8B7
:10B1D00006300DF0AFF810B1784605F06BFB28464D
:10B1E0003146FFF795FF0023CDE9023312238DF896
:10B1F000083023785A1E534253418DF80C3063783F
:10B20000C3F302038DF80D30637802A8C3F3C403BF
:10B210008DF80E30FFF776FE04B070BDDB08013309
:10B2200003EB83035B00C9E70B890BB9FFF770BF22
:10B23000704770B586B00D46ADF80F309DF82C30D4
:10B24000ADF80D2000218B4204460A988DF80C10B1
:10B2500014BF07260926CDF8110008F053FB03ABF5
:10B26000CDE9006048F21F0229462046FFF778FE2C
:10B2700006B070BD30B587B00446039306AB8DF8B9
:10B28000142033F80C2DADF815209B788DF817306D
:10B290000D4608F037FB04230190009348F20302A7
:10B2A00005AB29462046FFF75BFE07B030BD2DE910
:10B2B000F0430B89022B87B081460C4638D14B688E
:10B2C0001F88C7F30B00FEF73BFEA38C834280462A
:10B2D00031D13B460C2221464846FFF703FF27E0C9
:10B2E00036F81500FEF740FE26F815000135019BE3
:10B2F000AB42F5D82EE036F81500FDF77DFB10B116
:10B30000784605F0D7FA0135019BAB42F3D83B46AE
:10B31000484600222146FFF7E5FE002302937360B2
:10B32000304619238DF80830ADF80C80FFF7EAFDA0
:10B3300007B0BDE8F0834FF6FF73984202AEE6D047
:10B3400006AA082342F8143D3146FFF773FA054672
:10B350000028CCD04046FFF719FA05460028D3D084
:10B360000F28B6D03B460422B5E70000F0B50B89A4
:10B37000122B85B007460D4625D14E680A88344603
:10B3800048F2400334F8020B9A42C0F30B001CD180
:10B3900021460DF10602FEF763FE182304460F2C2A
:10B3A0008DF80830BDF80630ADF80C3096BF0C4B68
:10B3B00010221A5D338829463846FFF793FE14B9E8
:10B3C00002A8FFF79FFD05B0F0BDFEF7B9FD2146CD
:10B3D000ADF80600FEF7ECFE1A230446DFE700BFD7
:10B3E00084BF03002DE9F0431F460B8847F6E5783C
:10B3F00043449BB2102B87B005460C46164656D8E0
:10B400004FF0010909FA03F313F0EF011BD113F414
:10B41000803060D15B044AD50146052203A810F0B4
:10B4200061FA63688DF80C701A88ADF80D205B889E
:10B43000ADF80F3008F066FA05230093019003ABD6
:10B4400048F22A022FE00922002103A810F04AFA4C
:10B4500023888DF80C7043449BB2072B0AD809FA55
:10B4600003F313F00B0F09D113F004022DD113F0E5
:10B47000E00F1FD1784605F01DFA09E063681A88CD
:10B48000ADF80D205A88ADF80F205B68CDF811306B
:10B49000002E14BF0726092608F034FACDE9006013
:10B4A00003AB48F21F0221462846FFF759FD07B0BB
:10B4B000BDE8F083636833F8121BADF80D108DF80A
:10B4C0000F208DF810201B68E0E7636833F8022B2B
:10B4D000ADF80D20F7E7072203A810F003FA636820
:10B4E0008DF80C701A88ADF80D209A88ADF81120EF
:10B4F0005B88ADF80F3008F005FA07230093019040
:10B5000003AB48F22C02CEE773B502AA022322F85D
:10B51000063D01A90646FDF73DF8062825D010B1E5
:10B52000784605F0C7F90025BDF80220ABB29A4273
:10B5300002D8002002B070BDACB2640002AB23445C
:10B54000304633F8041CFCF7F5FF10B1784605F0DF
:10B55000B1F902AB1C4434F8040CFEF777FC10B1CF
:10B56000784605F0A7F90135DEE70820E2E72DE986
:10B57000F0438DB01C46154606460F4609220021B1
:10B580000DF1250010F0AEF900230DF10B0120465E
:10B590008DF82030ADF82150FDF716F910B178463E
:10B5A00005F088F99DF826309DF80B2062F304130E
:10B5B0006FF3471305A920468DF82630FDF770F983
:10B5C00010B1784605F076F9BDF81450BDF8163084
:10B5D0004FF6FF7295420DF10E0120460EBFADF8F9
:10B5E0002A30ADF82C30ADF82A50FCF723FE10B10C
:10B5F000784605F05FF9BDF80E004FF6FF739842EC
:10B6000018D100238DF823308DF824304FF6FF73C6
:10B610009D4214BF0E250C2508F074F908ABCDE946
:10B62000005048F2190239463046FFF799FC0DB038
:10B63000BDE8F08306A9FEF7D7FB10B1784605F008
:10B6400039F9BDF81A30ADF8233004A92046FDF7CA
:10B6500079F805288046D4D0002848D10DF1120190
:10B66000BDF81000FEF794FC0528814604D18DF842
:10B6700023808DF82480C9E70028C7D19DF81230B7
:10B680008DF825309DF8133003F00F029DF8263019
:10B6900023F00F0313430DF1270120468DF82630C8
:10B6A000FDF7C6F80122494603A810F01BF90DF179
:10B6B0000D0203A92046FCF70DFE9DF80C209DF815
:10B6C0000D3002A943EA821320468DF82830FCF79A
:10B6D000EBFD9DF808209DF82930C2F3020161F3CB
:10B6E0000203D20862F3C7038DF829308EE778464B
:10B6F00005F0E0F88AE7F0B50B89032B87B0074621
:10B700000C4619D14D6804238DF80C302B88ADF808
:10B710000D3000238DF80F302888C0F30B00FEF7A2
:10B720000FFC0DF10B010646FEF728FDD0B9AB78F2
:10B73000022B03D0032B32D007B0F0BD9DF80B30A5
:10B740005A1E012AF8D8012B06D13046FEF790FD8B
:10B7500010B1784605F0AEF800238DF80C300223C6
:10B760008DF80F3008F0CEF804230190009348F2D2
:10B77000170203AB21463846FFF7F2FB9DF80C3069
:10B78000002BD9D1CDE9043308238DF8103004A85B
:10B790009DF80F308DF81430FFF7B4FBCCE79DF81F
:10B7A0000B30032BC8D033B13046FEF78FFD10B1FC
:10B7B000784605F07FF800238DF80C30D0E770B59F
:10B7C0000D89012D86B006460C461ED14B681878AF
:10B7D0008DF80F00FCF7CAFFB8B90523CDE90400C6
:10B7E0008DF8103004A89DF80F308DF81430FFF755
:10B7F00089FB08F087F80DF10F03CDE9005048F2FE
:10B800000E0221463046FFF7ABFB06B070BD7FB598
:10B810000E4605460BF00CFE04AC04F8040D08F0CF
:10B8200071F801230190009348F20B022346314640
:10B830002846FFF795FB04B070BD0B890BB9FFF7E5
:10B84000E6BF704770B50B89092B8CB006460D46D4
:10B850005CD14C682388ADF81C30A3782BB1102B39
:10B8600056D8013B012202FA03F30893E37843B16F
:10B87000112B9DBF03F1FF33012202FA03F34FF0B6
:10B88000FF33099323798DF82830B4F8053003F09D
:10B890000F03ADF82A30B4F80730ADF82C30B4F807
:10B8A0000700FEF74DFB4FF6FF73984237D1042394
:10B8B0008DF810302388ADF81130E3788DF814300E
:10B8C000A3788DF8133023798DF81530B4F805304E
:10B8D00003F00F03ADF81630B4F80730ADF81830A8
:10B8E00008F010F80A2301900093062204AB2946C1
:10B8F0003046FFF735FB9DF810303BB914238DF827
:10B90000083002A807AB0393FFF7FCFA0CB070BD38
:10B91000FF2B4FF6FF7318BF4FF0FF33A5E707A8C3
:10B920000BF0A6FB00280CBF00230F23C0E700008C
:10B9300037B50378012B03D00E2B1DD003B030BDDB
:10B94000154B42681B689A42F8D1144C2378012B9E
:10B95000F4D105F043F80AF01BFD10B9022323705F
:10B96000ECE700251C236846CDE900558DF8003032
:10B97000FFF7C8FA2570E1E7084D2B78022BDDD1DF
:10B9800000241C236846CDE900448DF80030FFF701
:10B99000B9FA2C70D2E700BF043A0020003A002028
:10B9A00030B50B89022B85B005460C4614D14A6888
:10B9B00000218DF80C101288ADF80D208DF80F3095
:10B9C00007F0A0FF04230190009348F2480203AB64
:10B9D00021462846FFF7C4FA05B030BD7FB504AC58
:10B9E000022304F8043D05460E4607F08BFF0123B1
:10B9F0000190009348F21402234631462846FFF78F
:10BA0000AFFA04B070BD0A89012A05D14B681B78D2
:10BA1000012B01D8FFF7E2BF70470B890BB9FFF785
:10BA2000DDBF70477FB504AC022304F8043D054632
:10BA30000E4607F067FF01230190009348F21102C0
:10BA4000234631462846FFF78BFA04B070BD0A89B9
:10BA5000012A05D14B681B78012B01D8FFF7E2BF03
:10BA600070470B890BB9FFF7DDBF704770B50B89C5
:10BA700088B006460D46FBB908A9042341F8143DD9
:10BA800006A8FEF7C3FC039B9AB25B0803EB4303D3
:10BA900002F0010404A906A803EB440401F0AEFB84
:10BAA00007F030FFA4B2CDE9004004AB48F24302F6
:10BAB00029463046FFF754FA08B070BDF0B50B893F
:10BAC000022B8DB006460D4632D14F680CAC0823D0
:10BAD000388844F8243DC0F30B00FEF731FA2246C3
:10BAE00008A9FEF7A7FE3B88ADF8113018B105286C
:10BAF00020D010231FE0039C8DF81000A2B2640830
:10BB000004EB440402F0010304EB430403340DF19D
:10BB1000130108A8A4B201F071FB07F0F3FE04AB17
:10BB2000CDE9004048F2020229463046FFF718FAF4
:10BB30000DB0F0BD04238DF810300324EDE7F0B50F
:10BB400016460A881F4648F218039A4287B00546EF
:10BB50000C4605D048F21A039A4201D0032A2CD190
:10BB60000E22002102A80FF0BDFE23888DF8087078
:10BB700048F21802934209D048F21A0293421ED0AA
:10BB8000032B20D1636833F8092B02E0636833F894
:10BB9000022BADF809201B68CDF81230002E14BF1F
:10BBA0000C260E2607F0AEFE02ABCDE9006048F28F
:10BBB000190221462846FFF7D3F907B0F0BD6368A4
:10BBC00033F8172BE5E7784604F074FEE6E77FB517
:10BBD0000B89022B06460C461FD14D682888C0F3FE
:10BBE0000B00FEF7ADF90DF10B01FEF7C7FA0023CC
:10BBF00003932B88ADF80D3088B99DF80B308DF884
:10BC00000F3007F07FFE04230190009348F21702E3
:10BC100003AB21463046FFF7A3F904B070BD0423FF
:10BC20008DF80C30EDE77FB50B8906460D4683B9DC
:10BC3000FCF7A8FD04AC04F8010D07F063FE012336
:10BC40000190009348F20E02234629463046FFF742
:10BC500087F904B070BD37B50B89012B05460C463A
:10BC600018D14B681A78012A14D80022CDE9002295
:10BC700004228DF800201878431E584258418DF850
:10BC800004000BF0C5FB28462146FFF7C0FD6846BF
:10BC9000FFF738F903B030BD70B50B89012B8AB0BE
:10BCA00006460D4618D10AA900238DF81030162338
:10BCB00021F81A3D0DF11100FFF770F8BDF80E40A4
:10BCC00007F020FE0134A4B2CDE9004004AB02220B
:10BCD00029463046FFF744F90AB070BD2DE9F04718
:10BCE0000B89132B88B080460C4670D14E68B5780E
:10BCF000707837783388ADF814304FEA051A4AEA7D
:10BD0000101A00F00F0047EA00208DF81650FEF7D9
:10BD100017F900238DF81830F21C07AB0146814655
:10BD20005046FEF733FC384B1B685B0406461CD5B7
:10BD3000364B1B68032B18DD2F2135480FF0A2FE70
:10BD4000F8B12F2132480FF09DFE411C314BBDF858
:10BD50001C20D3F8043501922F4A0092CDF808A098
:10BD600040F27522042009F091FD0F2E48D8DFE83B
:10BD700006F03E4747114049473347474747474743
:10BD800047315C2122480FF07DFE08B15C21D9E7E4
:10BD90001F49DBE70DF11201BDF81C00FEF712F997
:10BDA00010B1784604F086FDBDF812204A4514BF54
:10BDB000042200228DF814708DF81650059B214640
:10BDC0004046FFF757FA16B906A8FFF79BF808B0E8
:10BDD000BDE8F0870622EDE78DF814708DF8165057
:10BDE000059B032221464046FFF744FAEFE7002275
:10BDF000E0E78DF814708DF81650059B0522F1E7E9
:10BE00001022D7E70422D5E7682E0020642E0020F8
:10BE100094BF030000100140C4BF030073B50D467A
:10BE20001646FCF7B7FB0528044607D006281AD0AB
:10BE3000B8B933889C4204D3002000E0022002B04D
:10BE400070BD69462888FDF7CFFF50B99DF80030D6
:10BE5000023B012B05D8BDF8023025F8023B013426
:10BE6000E7E71020EBE70820E9E72DE9F0410B892F
:10BE7000042B9EB006460D4612D14C684FF6FF7853
:10BE800067882088ADF80E70ADF80C80FFF742F897
:10BE9000404508D10123012229463046FFF7A2FA86
:10BEA0001EB0BDE8F08102AA0399FCF70FFD08B1AE
:10BEB0000223F0E71EAA182322F86E3D04A9BDF85C
:10BEC0000800FFF7ABFF03460028E4D1BDF80A20C5
:10BED0008DF840002388ADF8413004A952000DF1DF
:10BEE0004500ADF843700FF0F2FCBDF80A4007F0D2
:10BEF00009FD64000534A4B2CDE9004010AB48F25E
:10BF00002A0229463046FFF72BF8C9E708B590B159
:10BF1000B0F5004F06D8002301334008DBB2FBD157
:10BF2000184608BD4FF6FF73984206D0784604F0D5
:10BF3000C1FC1023F4E70346F2E7FF23F0E708B55E
:10BF400070B1B0F5803F06D8002301334008DBB262
:10BF5000FBD1184608BD784604F0ACFC1123F8E785
:10BF60000346F6E770B50C4686B005460BF07CF844
:10BF70002189064619BB8DF80C100388ADF80D30E9
:10BF80004368012B1DD8DBB2B0688DF80F30FFF786
:10BF9000D6FF337B8DF81130F389ADF81230338A38
:10BFA000ADF814308DF8100007F0ACFC0A230190B6
:10BFB0000093062203AB21462846FEF7D1FF06B0C8
:10BFC00070BDB3F5004F07D8013B5B08CAB201F161
:10BFD0000101FAD1931CD6E74FF6FF72934204D0C9
:10BFE000784604F067FC1023CEE7FF23CCE7F0B5DA
:10BFF0000E8987B007460D462EBB0BF031F88DF841
:10C000000C60038804460BB14288F2B900238DF816
:10C010000D308DF80E308DF80F308DF810308DF812
:10C0200011308DF812308DF813308DF8143007F080
:10C0300069FC09230190009348F23C0203AB2946B6
:10C040003846FEF78DFF07B0F0BDADF80D304388E0
:10C05000ADF80F304068FFF759FF8DF81200A06867
:10C06000FFF76DFFA3898DF813308DF81100E38978
:10C07000DBE72DE9F04F0B89132B85B080460D4689
:10C080003ED14C68607823882778ADF804304FEAB9
:10C09000101B002300F00F00A6788DF80660CDE994
:10C0A000023347EA002001238DF80830FDF748FFEE
:10C0B0004FF6FF7A5045814633D04BEA0610FDF724
:10C0C00053FF5045ADF80C002DD00DF10201FDF7E6
:10C0D00079FF10B1784604F0EDFBBDF802304B4516
:10C0E00011D011248DF804708DF80660019B224652
:10C0F00029464046FFF7BEF814B902A8FEF702FF32
:10C1000005B0BDE8F08FE11CBDF80C00FEF7D4FAD5
:10C11000052808D0082808D000280CBF00241024C7
:10C12000E0E70424DEE70324DCE70B24DAE72DE96B
:10C13000F0430A89032A85B080460D4653D14B68E7
:10C140009E7819881F785B78ADF80410300140EABA
:10C1500013108DF8066003F00F048DF80820FDF72A
:10C1600003FF4FF6FF794845ADF80C0024D047EAAD
:10C170000420FDF7E5FE4845044637D00DF10201E5
:10C18000BDF80C00FDF71EFF10B1784604F092FBDD
:10C19000BDF80230A34211D1BDF80C00FCF72CFC15
:10C1A00010B1784604F086FBBDF80C00FEF7D6FA15
:10C1B00010B1784604F07EFB002400E011248DF8D5
:10C1C00004708DF80660019B224629464046FFF721
:10C1D00051F844B9BDF80C204FF6FF739A4202D0D3
:10C1E00002A8FEF78FFE05B0BDE8F0830424E6E761
:10C1F000F0B50B89052B8DB007460D464AD14C682A
:10C200001022002108A80FF06DFB2388ADF8203024
:10C210006388ADF82230237943B1112B9DBF03F120
:10C22000FF33012202FA03F34FF0FF3308A80A9309
:10C230000AF0AEFE064668BB0AF012FF8DF81460E5
:10C240000388ADF81530044643888068ADF8173090
:10C25000FFF775FE8DF819006068FFF757FEA38998
:10C260008DF81B30E3898DF81C308DF81A0007F02B
:10C2700049FB092301900093384605AB48F23C0284
:10C280002946FEF76DFE152303A88DF80C300494A3
:10C29000FEF738FE0DB0F0BD2DE9F347B1F8088088
:10C2A00028F00203042B06460C4621D14D686B880A
:10C2B0002888B8F1040F9FB21BBF6A792B79ADF8BB
:10C2C000063043EA02230BBF4FF001094FF000098B
:10C2D0004FF6FF77ADF80630FEF71CFE4FF6FF7AFB
:10C2E000504508D101234A4621463046FFF727FC36
:10C2F00002B0BDE8F087ADF804700DF102020199BB
:10C30000FCF7E4FA20B9B8F1040F03D0574501D186
:10C310000223E8E7BDF802302A8821463046FFF7BD
:10C3200026F9E5E72DE9F047B1F8089029F0020376
:10C33000042B86B007460D4621D14C6863882088BF
:10C34000B9F1040F9EB21BBF62792379ADF80E30AC
:10C3500043EA02230BBF4FF001084FF000084FF6ED
:10C36000FF76ADF80E30FEF7D5FD4FF6FF7A50455B
:10C3700008D10123424629463846FFF733F806B074
:10C38000BDE8F087ADF80C600DF10A020399FCF7E7
:10C390009DFA20B9B9F1040F03D0564501D102230B
:10C3A000E8E7BDF80A00FFF7AFF8064608B1034614
:10C3B000E0E7FBF7F1F934F8022BCDF804802068B0
:10C3C0000090334638462946FEF733FF0C23CDE96B
:10C3D000046604A88DF81030BDF80A30ADF81430AA
:10C3E000FEF790FDCBE72DE9F047B1F8089029F072
:10C3F0000203142B88B006460D462ED14C68638A82
:10C400002088B9F1140F1FFA83F81BBF627D237DCA
:10C41000ADF80E3043EA02230BBF012700274FF689
:10C42000FF78ADF80E30FEF775FD4FF6FF7A5045F8
:10C4300001D101230CE0ADF80C8002AA0399FCF7AE
:10C4400045FA20B9B9F1140F0AD0D04508D102231A
:10C450003A4629463046FEF7C5FF08B0BDE8F087EA
:10C4600002238DF81030A01C00230DF11201ADF84D
:10C470001230059009F038F910B1784604F01AFA34
:10C480000DF10A0104A8FDF70FFD0528D1D008B170
:10C490001023DDE7BDF80A10BDF80800FCF74AF8E4
:10C4A00008B10C23D4E7BDF80A00FDF7CFFC10B1AA
:10C4B000784604F0FFF9FBF76FF934F8122B019777
:10C4C0002068BDF81230009029463046FEF7B1FED4
:10C4D0000F238DF81830BDF80830ADF81C3006A8D1
:10C4E000BDF80A30ADF81E30FEF70CFDB5E72DE9BA
:10C4F000F047B1F8089029F00203142B88B00646E3
:10C500000D4620D14C68638A2088B9F1140F1FFAB8
:10C5100083F81BBF627D237DADF80E3043EA022312
:10C520000BBF012700274FF6FF78ADF80E30FEF75E
:10C53000F1FC4FF6FF7A504508D101233A462946CF
:10C540003046FEF74FFF08B0BDE8F087ADF80C802D
:10C5500002AA0399FCF7BAF920B9B9F1140F03D074
:10C56000D04501D10223E9E70DF10A01A01CFDF736
:10C570001CFC20B104280CBF05231023DEE7BDF806
:10C580000A10BDF80800FBF7A5FF8046BDF80A00B9
:10C59000B8F1000F0BD0FDF759FC10B1784604F04C
:10C5A00089F9B8F1060F0CBF08231023C6E704A9C8
:10C5B000FDF71AFC10B1784604F07CF9FBF7ECF8B3
:10C5C00034F8122B01972068BDF8123000902946EC
:10C5D0003046FEF72EFE0E238DF81830BDF80830D9
:10C5E000ADF81C3006A8BDF80A30ADF81E30FEF7D5
:10C5F00089FCA8E72DE9F04FB1F80880B8F1080FE1
:10C6000089B006460D4602D0B8F1060F21D16C68FC
:10C61000A3882088B8F1060F1FFA83F91BBFE279BF
:10C62000A379ADF80E3043EA02230BBF01270027A0
:10C630004FF6FF79ADF80E30FEF76CFC4FF6FF7A3F
:10C640005045834608D101233A4629463046FEF735
:10C65000C9FE09B0BDE8F08F608806F093FF03289B
:10C66000F1D1ADF80C9002AA03995846FCF72EF9C7
:10C6700020B9B8F1060F03D0D14501D10223E3E779
:10C6800003238DF810306388ADF812300DF10A01E4
:10C69000002304A80593FDF707FC78BBBDF80A103A
:10C6A000BDF80800FBF746FF062801D10823CBE7B9
:10C6B00008B11023C8E7BDF80A00FDF7C7FB10B1A9
:10C6C000784604F0F7F8FBF767F8638834F8042B32
:10C6D00001972068009029463046FEF7AAFD0B23FB
:10C6E0008DF81830BDF80830ADF81C3006A8BDF83C
:10C6F0000A30ADF81E30FEF705FCAAE70528D8D1B0
:10C70000E3E72DE9F04FB1F80880B8F1080F87B0E2
:10C7100006460D4602D0B8F1060F21D16C68A388F9
:10C720002088B8F1060F1FFA83FA1BBFE279A379BC
:10C73000ADF80E3043EA02230BBF012700274FF666
:10C74000FF7AADF80E30FEF7E5FB4FF6FF7948456E
:10C75000834608D101233A4629463046FEF742FE79
:10C7600007B0BDE8F08F608806F00CFF0328F1D118
:10C7700063884B45EED0ADF80CA002AA0399584649
:10C78000FCF7A4F820B9B8F1060F03D0CA4501D1CF
:10C790000223E0E70DF10A016088FDF703FB40B1D9
:10C7A000042804D010280CBF01231023D3E705234D
:10C7B000D1E7BDF80A10BDF80800FBF78BFE8046F4
:10C7C00068B1BDF80A00FDF741FB10B1784604F0EE
:10C7D00071F8B8F1060F0CBF08231023BBE7FAF776
:10C7E000DBFF638834F8042B01972068009029460A
:10C7F0003046FEF71EFD0A238DF81030BDF80830D4
:10C80000ADF8143004A8BDF80A30ADF81630FEF7C4
:10C8100079FBA5E72DE9F047B1F8089029F002036C
:10C82000142B88B006460D4620D14C68638A2088B8
:10C83000B9F1140F1FFA83F81BBF627D237DADF899
:10C840000E3043EA02230BBF012700274FF6FF7883
:10C85000ADF80E30FEF75EFB4FF6FF7A504508D17B
:10C8600001233A4629463046FEF7BCFD08B0BDE834
:10C87000F087ADF80C8002AA0399FCF727F820B9DD
:10C88000B9F1140F03D0D04501D10223E9E7BDF877
:10C890000800FEF739FE03460028E2D10DF10A0137
:10C8A000A01CFDF782FA58B104280CBF0523102301
:10C8B0003A4629463046FEF795FDFAF76DFFD5E773
:10C8C000BDF80A10BDF80800FBF704FE8046BDF86D
:10C8D0000A00B8F1000F0CD0FDF7B8FA10B1784695
:10C8E00003F0E8FFB8F1060F01D10823E0E71023B9
:10C8F000DEE704A9FDF778FA10B1784603F0DAFF15
:10C9000034F8122B01972068BDF8123000902946A8
:10C910003046FEF78EFC10238DF81830BDF8083035
:10C92000ADF81C3006A8BDF80A30ADF81E30FEF791
:10C93000E9FAC2E72DE9F04F0F8927F00203042B33
:10C940008FB082460D4640F0AD804E6874883088C6
:10C95000042F16BFA0464FF6FF78B488FEF7DAFA28
:10C960002A8848F24B039A424FF6FF7340F0AB809F
:10C97000984200F0828048F24C09ADF81080ADF882
:10C98000124003AA0499FBF7A1FF28B9042F1FD076
:10C990004FF6FF7398451BD129883388ADF82530B1
:10C9A00048F24B0291424FF002020CBFADF8274013
:10C9B000ADF829408DF824200EBF0524ADF827805E
:10C9C000072406F09FFF0190009409AB4A4665E0FA
:10C9D0000EAA082322F82A3D05A9BDF80C00FBF792
:10C9E00065FE10B1784603F065FF4FF0000BBDF80F
:10C9F0000E701FFA8BF39F4221D829883388ADF837
:10CA0000253048F24B0291424FF000028DF824206D
:10CA100027D13A460DF1290105A8ADF8274000F0CD
:10CA2000EDFB052406F06EFF7B0803EB430307F0E4
:10CA3000010703EB47073C440190E4B2C4E71FFA47
:10CA40008BF149000EAB0B4405AA114433F8240CBA
:10CA5000FDF79EFA10B1784603F02CFF0BF1010BA5
:10CA6000C5E73A460DF12B0105A8ADF82940ADF810
:10CA70002780072400F0C2FBD4E73388ADF82530C7
:10CA80000122ADF827408DF8242048F24C060524F9
:10CA900006F038FFCDE9004009AB32462946504642
:10CAA000FEF75EFA0FB0BDE8F08F3388ADF82530A1
:10CAB0000122ADF829408DF82420ADF8278048F2F6
:10CAC0004E060724E4E79842EFD048F24E0954E7B7
:10CAD0002DE9F04FB1F80880B8F1080F87B006468D
:10CAE0000D4602D0B8F1060F21D16C68A3882088CA
:10CAF000B8F1060F1FFA83F91BBFE279A379ADF8ED
:10CB00000E3043EA02230BBF012700274FF6FF79BF
:10CB1000ADF80E30FEF7FEF94FF6FF7A504583462A
:10CB200008D101233A4629463046FEF75BFC07B0A0
:10CB3000BDE8F08F608806F025FD0328F1D1ADF83F
:10CB40000C9002AA03995846FBF7C0FE20B9B8F131
:10CB5000060F03D0D14501D10223E3E7BDF8080059
:10CB6000FEF7D2FC03460028DCD10DF10A016088F3
:10CB7000FDF718F940B1042804D010280CBF012398
:10CB80001023CFE70523CDE7BDF80A10BDF8080054
:10CB9000FBF7A0FC804668B1BDF80A00FDF756F926
:10CBA00010B1784603F086FEB8F1060F0CBF0823DB
:10CBB0001023B7E7FAF7F0FD638834F8042B0197E8
:10CBC0002068009029463046FEF733FB0D238DF890
:10CBD0001030BDF80830ADF8143004A8BDF80A30A4
:10CBE000ADF81630FEF78EF9A1E72DE9F0470B8975
:10CBF000062B9EB007460E461DD14D682888FEF7CD
:10CC000089F9B6F80890B9F1040F0CBF012400248B
:10CC100014D1AB78EA7843EA0223ADF80E304FF630
:10CC2000FF784FF6FF7A504511D101232246314655
:10CC30003846FEF7D7FB1EB0BDE8F0872B796A793E
:10CC4000B5F8028043EA0223ADF80E30E9E7ADF80B
:10CC50000C8002AA0399FBF739FE20B9B9F1040F41
:10CC600003D0D04501D10223E0E71EAA182322F801
:10CC70006E3D04A9BDF80800FFF7D0F80346002870
:10CC8000D4D18DF840002B88BDF80A40ADF8413072
:10CC9000AB88ADF845306400A4B26B88ADF8433082
:10CCA000224604A90DF147000EF011FE06F02AFEFF
:10CCB0000734A4B20190009410AB48F22C02314624
:10CCC0003846FEF74DF9B6E72DE9F04F0C89082CF0
:10CCD0008FB080460D4601D0062C27D16E68B788EC
:10CCE000062C4FF000031CBFB946F7888DF82C3096
:10CCF0003388ADF82D307388ADF82F3008BF4FF66C
:10CD0000FF797368CDF83130062C12D18FB90D231D
:10CD10008DF82C3006F0F6FD0723019000930BAB45
:10CD200048F23E0229464046FEF71AF90FB0BDE828
:10CD3000F08F3088FEF7EEF84FF6FF739842824688
:10CD40000BD10123062C14BF092407248DF82C30A5
:10CD500006F0D8FDCDE90040E1E7ADF82090ADF850
:10CD6000227007AA0899FBF7B1FD4D4B1B689B0485
:10CD700083461DD54B4B1B68032B19DD2F214A48D9
:10CD80000EF080FEF8B12F2147480EF07BFE411CCB
:10CD9000BDF81C20454BD3F80435CDE90392444A35
:10CDA0000092CDE901A740F68912042008F06EFD3B
:10CDB000BBF1000F05D1062C0ED04FF6FF7399453D
:10CDC0000AD10223BEE75C2137480EF05BFE08B1B2
:10CDD0005C21D9E73449DBE77088C0F30B00FDF72D
:10CDE000C3F82A8848F23D039A420646BDF81C0063
:10CDF00010D1162331468DF82430ADF82800ADF857
:10CE00002A60FBF703FC052843D0072845D018B358
:10CE100010233FE0172331468DF82430ADF8280069
:10CE2000ADF82A60FBF71AFC0028ECD10DF11E01C9
:10CE3000BDF81C00FBF786FC10B1784603F03AFD04
:10CE4000BDF81E30B34207D1BDF81C00FBF7A8FDAA
:10CE500010B1784603F02EFD00238DF82C30FAF740
:10CE60009BFC062C14BF0924072406F04BFD0BABDA
:10CE7000CDE9004048F23E0229464046FEF770F8F0
:10CE80009DF82C30002B7FF451AF09A8FEF73AF83B
:10CE90004CE702238DF82C30E3E70323FAE700BFC9
:10CEA000682E0020642E002094BF03000010014073
:10CEB000F6BF03002DE9F04F0A880B89032A89B0D9
:10CEC00007460D4627D10D2B01D00B2B56D16A6892
:10CED0000B2BB2F8093014BF117BADF80E301FFADE
:10CEE00083FA18BFD37A14461CBF43EA0123ADF876
:10CEF0000E3034F8049BB2F802800ABF01260026E7
:10CF00004FF6FF7A4846FEF705F84FF6FF7B584587
:10CF100024D101232DE048F21A018A4203D123F0E3
:10CF20000202192A2AD16C68192BB4F8173014BFE1
:10CF3000A27EADF80E301FFA83FA18BF637E34F874
:10CF4000129B15BF43EA0223012600264FF6FF7A03
:10CF500018BFADF80E304FF00008D3E7ADF80CA0C5
:10CF600002AA0399FBF7B2FC10B956B9DA4508D109
:10CF70000223324629463846FEF7E1FD09B0BDE8F6
:10CF8000F08F6378207803F00F0340EA0320FCF76A
:10CF9000EBFF4FF6FF739842824601D10323E8E787
:10CFA0004046ADF80A3006F0EDFA2B88032B32D15B
:10CFB0000228AED000F0FD00012840F0E1800DF124
:10CFC0000A01BDF80800FBF735F958B10DF10A0167
:10CFD0004046FCF79BFE00283CD004280CBF0523EC
:10CFE0001023C6E704A9BDF80A00FCF7FDFE0028DF
:10CFF000ECD19DF81030022B03D0BDF81230434520
:10D0000028D0BDF80A00FCF7A5FE0028DED078463F
:10D0100003F050FCDAE76B68BDF808000DF10A0177
:10D0200003F1020BFBF706F928B10DF10A0158468E
:10D03000FCF78CFECFE704A9BDF80A00FCF7D4FE8C
:10D040000028F2D19DF81030022B25D09DF8103029
:10D05000022B28D1B8F1000F2FD0227994F8038049
:10D06000BDF80800C2F302014FF0000B61F3020BA0
:10D07000D20862F3C70B00224FEA981311460193BE
:10D08000FBF7C4F908F03F08019B28B306281ED01F
:10D09000784603F00FFC71E71022594605980EF010
:10D0A00007FC0028D2D0BDF80A00FCF753FE002888
:10D0B000BBD0784603F0FEFBB7E72A8848F21A0394
:10D0C0009A42CAD0BDF80800FBF76AFC3DE0B8F10F
:10D0D000000F0ED007234CE7B8F1000F09D04246ED
:10D0E0001946BDF80800FBF791F910B1784603F036
:10D0F000E1FB5946BDF80800FBF7B0F810B17846DF
:10D1000003F0D8FBBDF80A10BDF80800FBF774F86F
:10D1100010B1784603F0CEFB5146BDF80800FBF78E
:10D12000F3FA10B1784603F0C5FB6178BDF808004A
:10D13000C1F30011FBF72CFB10B1784603F0BAFBEA
:10D14000A178BDF80800FBF753FB10B1784603F057
:10D15000B1FBFAF721FBBDF8083038464A462946AC
:10D16000FEF705FA0023CDE9063302238DF81830C7
:10D1700006A8BDF80830ADF81C30FDF7C3FEFDE68B
:10D18000B8F1000F7FF469AF9CE7000030B587B0BD
:10D190001622002105460DF102000EF0A3FB0E4BF6
:10D1A00002934FF6FF742E230C480393ADF8004012
:10D1B00006F0A0FB0A4809F067FF0A4B1B88A34250
:10D1C00002D0784603F076FB074B06491D6068469F
:10D1D000FAF706FF07B030BD3CC00300F82D002071
:10D1E00031AF0200F42D0020FC390020024B014633
:10D1F0001888FBF70BBA00BFF42D002030B50024CF
:10D20000A24200D830BD30F814300B70651CC3F357
:10D210000323AA424B7007D900EB44056D8843EA0B
:10D2200005132D094B708D7002340331E8E70000BF
:10D2300082B0064B0190C0F30F40A0F50C7080B295
:10D2400053F820309B780B7002B07047283A0020CA
:10D25000C0F30F40A0F50C7080B2044B53F820309F
:10D2600082B000229A7002B0704700BF283A0020B6
:10D2700070B5144D2C68002634B92B6803BB1248D6
:10D28000BDE8704006F04EBD94F8503013B1013B3C
:10D2900084F8503094F8503043B92B689C4208D140
:10D2A000636D2B60E36C0021204698472646646D31
:10D2B000E2E716B9784603F0FDFA636D7365F1E7AE
:10D2C00070BD00BF243A0020083A002030B587B076
:10D2D00090F850308DF804300C4B029301AB03935F
:10D2E0000123ADF8103000238DF8123002230446DC
:10D2F0000D468DF8133006F005FB02AA059029466D
:10D300002088FAF76BFF07B030BD00BF0780FFFF32
:10D310000B8913B91046FFF7D9BF704730B587B0F6
:10D3200083788DF804300C4B029301AB03930123F7
:10D33000ADF8103000238DF81230022304460D465C
:10D340008DF8133006F0DEFA02AA059029462088EF
:10D35000FAF744FF07B030BD3780FFFF0B8913B9E0
:10D360001046FFF7DBBF704738B504460D4607F09F
:10D37000C3F994F8503084F850505BBB55B3E36C5C
:10D3800001212046984707F0B7F9E36C13B97846B6
:10D3900003F090FA94F8503013B9784603F08AFA03
:10D3A0000E4B196861651C6091B90D4C182220461E
:10D3B0000EF098FA06F0F6FC00F5742000F51070F7
:10D3C000084B6060E3602046074BA36006F088FCD2
:10D3D00007F0D2F9BDE8384007F0CEB9243A002072
:10D3E000083A002040420F0071D2020038B50B8984
:10D3F000012B0C46154611D1D36C23B14B68104656
:10D400001978FFF7B1FF228848F205039A4205D147
:10D4100021462846BDE83840FFF758BF38BD000018
:10D4200037B50B89012B0C46154618D149680B7886
:10D430000E2B0BD9228848F235039A420FD1214690
:10D44000284603B0BDE83040FFF768BF054B1B68B6
:10D45000934204D104480AF059FA0028EAD003B0F4
:10D4600030BD00BF283A0020030030024B0901F014
:10D470001F024FF0FF31914050F82320114049B175
:10D480004A420A4008495143C90E084A505C00EB21
:10D49000431070470133072B02D850F82310EEE7F2
:10D4A0004FF48070704700BF31B57C0708C203009D
:10D4B0002DE9F043C7B0042905AE437A33700CBFA1
:10D4C00000F12C0900F10C094389A6F8013005464A
:10D4D0008846484600211746FFF7C8FF0024B0F5EC
:10D4E000807F23461BD14FF6FF73ADF80630002333
:10D4F0008DF80E3003340223ADF804800296ADF8A7
:10D500000C408DF80F3006F0FDF9049028888FB19B
:10D5100001AA3946FAF762FE47B0BDE8F08333440A
:10D52000411C0134FF29E4B2D870DCD84846FFF72B
:10D530009DFFD4E701A9FAF725FEEDE70846002292
:10D540000421FFF7B5BFF8B50B89032B0D46144630
:10D5500010D11388834202D0784603F0ABF96E688D
:10D560006389B6F801108B4204D1207A0023DAB225
:10D57000904200D8F8BD626812F833C002EBC307CE
:10D580003278624503F10103F1D17B682046984768
:10D59000337863722A8848F232039A42EAD12A46E3
:10D5A00020460521BDE8F840FFF782BF38B50B895A
:10D5B000022B0D46144611D11388834202D07846BF
:10D5C00003F078F96B681A8863899A4206D12A4673
:10D5D00020460521BDE83840FFF76ABF38BD38B5A1
:10D5E0000B89022B0D4614461CD11388834202D0AE
:10D5F000784603F05FF96B681A8863899A4211D103
:10D600002022002104F10C000EF06CF92A8848F267
:10D610002F039A4206D12A4620460521BDE838400C
:10D62000FFF746BF38BD38B500F12C05002128466C
:10D63000FFF71CFF0024B0F5807F01D1E0B238BDB8
:10D64000411CFF2904F10104F8D82846FFF70EFF1A
:10D65000F1E7000037B50190C0F30F40A0F50C7062
:10D660000C4B0D7880B253F82040A378AB420DD01C
:10D67000A5702046FFF7D7FF40B10121A9402088BF
:10D6800089B203B0BDE83040FAF7A4BE002003B071
:10D6900030BD00BF283A002070B586B0C3640A9B35
:10D6A000436000259DF82C300372044642810E46EB
:10D6B000457280F8505085704565202229460C300F
:10D6C0000EF010F92946202204F12C000EF00AF980
:10D6D0000B4B00930B4B02930B23CDE903342146F4
:10D6E000094BADF8046068460593FAF779FC28B950
:10D6F000064B43F826402088FAF7BEFE06B070BD00
:10D70000FFFF0200B0C103003DD50200283A00200F
:10D7100000B589B00A238DF8003000F17803029338
:10D7200000F58C7301900393C3686846984709B06D
:10D730005DF804FB70B505692C68A86088B00646E2
:10D740005CB9022385F80B3101238DF80030019577
:10D75000EB686846984708B070BDB44203D0A36830
:10D7600020469B6898472468EAE730B5046994F836
:10D770000B31122B89B00D4603D111B92046FFF7AA
:10D78000C7FF002384F80B3102238DF80030019489
:10D790008DF80850E3686846984709B030BD30B549
:10D7A00090F80C3189B00446032B3BD8DFE803F036
:10D7B000312B170206238DF8003090F806318DF8D2
:10D7C000093090F807318DF8083001900B2384F868
:10D7D0000B316846E3689847002009B030BD00F17E
:10D7E000C505294600F050FE05238DF8003094F859
:10D7F00006318DF8093094F807318DF8083001941E
:10D8000003950F23E3E707238DF8003001900C23E5
:10D81000DDE710220021C5300EF064F80F2384F8F4
:10D820000B31D9E70320D8E730B5044689B08068CA
:10D830000D4600F07FFC20B1A068836802211B69BF
:10D84000984794F80B31152B0DD00C238DF8003030
:10D85000152384F80B3101948DF8085084F80A518F
:10D86000E3686846984709B030BD10B588B00446F3
:10D8700000F0BAFE80B10B238DF80030636903938A
:10D8800004F1180302930A2384F80B310194E3682E
:10D890006846984708B010BD04F15801204600F0D2
:10D8A000D9FD48B92046FFF77AFF0028F2D00521BC
:10D8B0002046FFF7B9FFEDE70221F9E713B5046948
:10D8C00094F80B31023B132B47D8DFE803F00A46EC
:10D8D000460D46460F4646154617461746191B463F
:10D8E0004620052384F80B3102B010BD204602B05B
:10D8F000BDE81040FFF7B9BF0F23F3E71123F1E7AD
:10D900001223EFE72046FFF703FF1423EAE7274B34
:10D910001B681A07E8D5264B1B68032BE4DD2F2173
:10D9200024480EF0AFF878B12F2122480EF0AAF863
:10D93000411C214B214AD3F80435009204204FF4B6
:10D94000157207F0A3FFCFE75C211A480EF09AF892
:10D9500008B15C21E9E71749EBE7144B1B681B078B
:10D96000C2D5134B1B68002BBEDD2F2111480EF0D2
:10D9700089F890B12F210F480EF084F8411C0E4B0E
:10D9800094F80B21D3F8043501920D4A009201203E
:10D9900040F2572207F07AFFA6E75C2105480EF017
:10D9A00071F808B15C21E6E70249E8E7682E00203B
:10D9B000642E002038C20300001001405CC2030046
:10D9C0008CC2030070B50D4698B004690E782846E5
:10D9D000114600F043FB08B1092E04D9012120466D
:10D9E000FFF722FFD4E0324694F80B1194F80901B6
:10D9F00000F008FE50BB984B1B681B071BD5974BCC
:10DA00001B68042B17DD2F2195480EF03BF8A0B1C1
:10DA10002F2193480EF036F8411C94F80B21914BBE
:10DA2000D3F80435CDE901628F4A009205204FF406
:10DA3000C47207F02BFF0321D1E75C2188480EF068
:10DA400021F808B15C21E4E78549E6E72B78072B4C
:10DA500000F27C81DFE813F008007A014D00A0009D
:10DA60007A01B800E3000A01012204F1F506A918C1
:10DA700030460DF02CFF03238DF83C306B7810946A
:10DA80008DF84430E3680FA8984701238DF81830CB
:10DA900094F80D318DF81930B4F80E21130A43EAC9
:10DAA0000223ADF81A3094F810318DF81C3094F838
:10DAB00011318DF81D3094F812318DF81E30B4F804
:10DAC0001321130A43EA0223ADF81F3094F81531ED
:10DAD0008DF82130B4F81621130A43EA0223ADF879
:10DAE0002230324606A9A06800F0C6FA00284FD0BE
:10DAF00087E06B788BB9AB78012B0ED8EA78032AD4
:10DB00000BD8012B03D194F81031012B05D1012A38
:10DB10002B7904D80BB96B794BB102215FE7022A4C
:10DB200038D1042BF9D86B79013B072BF5D8691C48
:10DB3000052204F201100DF0CAFEAB78003318BFC5
:10DB4000012384F80831EB7884F80C31EB78012B51
:10DB500014BF6B79102384F806312B7984F80731D0
:10DB600004238DF83C301094E3680FA8984794F88C
:10DB70000831082584F80B5153B1202200210FA849
:10DB80000DF0B0FE8DF83C501094E3680FA8984754
:10DB900018B070BD032BC5E70135284600F04EFCD8
:10DBA0000028BAD04022294604F118000DF08FFE5B
:10DBB00094F8083123B92169A06800F06CFA95E760
:10DBC0002046FFF752FEE3E794F80B310F2B1AD1F2
:10DBD0001022691C04F1E5000DF079FE04F1D50175
:10DBE000204604F1A5030FAA00F072FB0FA9A0685C
:10DBF00000F06FFA0028CBD0042802D0784602F05B
:10DC000059FE0521EBE60C2BC2D11022691C04F150
:10DC1000E5000DF05CFE0D2384F80B31B8E710220F
:10DC2000691C04F1B5000DF052FE204600F078FCAE
:10DC300008B90421D3E604F1A501A06800F05CFA5C
:10DC40000028DED104F1780304F1980204F1880180
:10DC5000204600F09DFB9BE7682E0020642E0020EC
:10DC600038C2030000100140BBC2030004F1880366
:10DC70000F9304F1980310936B1C119318A91923A7
:10DC8000ADF848300DEB03060023082201F8493DAA
:10DC90001A350FA81393ADF85030159616958DF8D8
:10DCA0005C2006F0E8FE9DF81730002B3FD01022D4
:10DCB000314604F58C700DF00AFE0B9B94F8301180
:10DCC0001BBAC4F82A31BDF83030180A40EA0320E4
:10DCD00080B2A4F82E01BDF82920130A43EA0223DA
:10DCE0009BB2A4F828319DF82B20C2F3400262F3C6
:10DCF000000184F830119DF82B20C9B2C2F3000254
:10DD000062F34101B3F5805F84F83011BFF405AFD1
:10DD100005F038FC01287FF400AFB4F82E0194F828
:10DD20000D5105F02FFC012803D0082157E60621EC
:10DD300055E6B4F82E010138284480B205F022FCE3
:10DD40000128F2D1A06800F0EAF9CFE6784602F0A7
:10DD5000B1FD1DE730B40C4611461A4690F80B3160
:10DD6000012B08D8054BE360A3685D68044B20468F
:10DD7000AC4630BC6047082030BC704728C2030066
:10DD8000008793031FB590F80B31A3F10B02022A11
:10DD9000044619D80B2B04D1806800F08FF904B029
:10DDA00010BD0D2B0BD100F1A50300F1D5016A4682
:10DDB00000F08EFA6946A06800F08BF9EFE70F23B8
:10DDC00080F80B310020EAE70820E8E700790B79BA
:10DDD000C31A58425841704710B5431E00F1100253
:10DDE000073013F8011F12F8014D1C7083421170A7
:10DDF000F7D110BD4A0901F01F034FF0FF319940E0
:10DE000050F82230194009D04B420B400449594385
:10DE1000C90E044B585C00EB42107047032070475A
:10DE200031B57C07DEC2030038B5049D88B181B1ED
:10DE30007AB173B16DB190F80B4164B9C0E9035187
:10DE4000426119460B2200F20D100DF040FD2046F4
:10DE500038BD0E20FCE70820FAE7000038B50D4673
:10DE6000044650B149B1064A07F0B2FC20B92C6112
:10DE70002A7963681343636038BD0E20FCE700BF56
:10DE8000CDDD020000F074BA38B5054678B190F8DF
:10DE90000B31012B0DD104681CB985F80B412046CC
:10DEA00038BDA36820469B6898472468F4E70E2095
:10DEB000F6E70820F4E72DE9F7430F469046019373
:10DEC0000446A0B190F80B21012A12D81BB1416879
:10DED00033EA01010FD007252EE02A799A421FD09C
:10DEE0002D6818E0711C02290BD9002524E00E25AD
:10DEF00022E0082520E04FF0010980F80B9180F81E
:10DF0000099101A8FFF776FF03280646EDD009FA2C
:10DF100006F32568DBB2002DDFD1784602F0CAFC9B
:10DF2000294643463A462046FFF714FF0546002897
:10DF3000D8D02046FFF7A8FF284603B0BDE8F083FD
:10DF4000F8B50E461546044600286FD000296DD05E
:10DF5000102A6DD890F80631934269D190F80C31AF
:10DF6000012B0DD1C5300DF0B2FC94F809312A46D1
:10DF700031462046002B55D1BDE8F84002F098BB51
:10DF800090F80921DAB9022B21D190F80731032B3F
:10DF90001DD82946304600F005FBC0B104F1C50785
:10DFA0000422314638460DF092FC0C22002104F187
:10DFB000C9000DF097FC3846FFF70EFFD5E7012AA0
:10DFC00005D1032B03D190F80731022BE0E794F839
:10DFD0000931EBB994F80C31022B01D00820F8BDBF
:10DFE00094F80731042BF9D12946304600F0C6FADF
:10DFF0000028F3D004F1C5072A46314638460DF013
:10E0000066FC05F1C500C5F1100200212044D0E7EF
:10E01000012BE3D194F80C31032BDFD194F80731B5
:10E02000032BE0E7BDE8F840FFF7ACBE0E20D6E7D3
:10E030000920D4E770B5044616460D4611B9784656
:10E0400002F038FC14B9784602F034FCA36832467A
:10E05000294620461B68BDE87040184748B1037840
:10E06000092B05D8034AD05C431A584258417047DF
:10E0700000207047FEC2030038B505460C46501C10
:10E0800001310B220DF023FC214628460C22BDE86D
:10E090003840FFF7CFBF30B593B012AC032304F87C
:10E0A000443D054640220DF105000DF010FC4122D3
:10E0B00021462846FFF7BEFF13B030BD07B502A9C1
:10E0C000042301F8043D0122FFF7B4FF03B05DF81B
:10E0D00004FB30B587B006AC052304F8143D0546B3
:10E0E00010220DEB03000DF0F2FB11222146284611
:10E0F000FFF7A0FF07B030BD30B587B006AC0623F0
:10E1000004F8143D054610220DF105000DF0DFFB6B
:10E11000112221462846FFF78DFF07B030BD07B515
:10E1200002A9082301F8043D0122FFF783FF03B091
:10E130005DF804FB07B509238DF80510022201A93B
:10E140008DF80430FFF776FF03B05DF804FB70B57F
:10E1500006468AB014460D4609B308460DF08AFCFF
:10E160006A4681B2284606F0E6FC042269460DF1B3
:10E1700022000DF0ACFB162564BAADF8204002F089
:10E18000CDFC102201460DEB02000DF0A0FB2B464A
:10E1900004AA0021304608F037FB0AB070BD1225F2
:10E1A000EAE70000F0B50F4689B01446064610B9FC
:10E1B000784602F07FFB14B9784602F07BFB07F04B
:10E1C000FB03122B25D1184D2A6812B320220021FF
:10E1D00068460DF087FB1022314601A807940DF028
:10E1E00076FB23785A1E534253410021162F8DF897
:10E1F00014308DF800100ED10123042206F1120113
:10E200000DF116008DF815300DF061FB2B68684696
:10E21000984709B0F0BD04220DF116008DF81510D5
:10E220000DF060FBF2E700BF2C3A00200A78034BA8
:10E2300082B000201A7002B0704700BF313A00204F
:10E24000024B1B780B7082B002B07047313A00204D
:10E25000024B82B000221A7002B07047313A00209F
:10E2600073B505460A4E68460C4605F0A9FE002324
:10E2700024219C4201D802B070BD1DF80300B0FB00
:10E28000F1F201FB1202D2B2B25CEA540133F0E7C0
:10E290000CC3030037B50D46042104460DEB010005
:10E2A00005F08EFE094B019953F82520B1FBF2F3DE
:10E2B00002FB131304221BBA0DEB020104F10C0044
:10E2C00001930DF004FB03B030BD00BF34C3030065
:10E2D0002DE9F0410446ACB00F46904600F1F5013F
:10E2E000112207A81E460DF0F2FA94F8093104F144
:10E2F0001805402293BB21690DF12D000DF0E7FABE
:10E30000402229460DF16D000DF0E1FA3A4607A8CA
:10E31000912106F010FC03AD04233A46009304F16A
:10E320005800124B0195202106F01BFC30461021AD
:10E3300005F046FE3146102207A80DF0C8FA04F198
:10E34000C50110220BA80DF0C2FA4346202207A9EE
:10E35000284606F08CFB2CB0BDE8F08129460DF173
:10E360002D000DF0B4FA40222169CBE76EC3030003
:10E3700038B504460D460CF0D9FF29460246204622
:10E380000CF0D8FF012814BF0320002038BD000086
:10E390002DE9F043044697B08946904600F1D50137
:10E3A00010220AA81F460DF092FA94F8093104F1E0
:10E3B000B50604F1A505102293BB29460EA80DF061
:10E3C00086FA1022314612A80DF081FA583404253D
:10E3D00002AA0AA8302106F0AEFB02AA2046CDF818
:10E3E00004900095124B202106F0BBFB06ABCDE953
:10E3F000005302AA0F4B2046202106F0B2FB0DF17C
:10E400001B010D2240460DF062FACDE900570A4B80
:10E4100002AA2021204606F0A4FB17B0BDE8F08335
:10E4200031460EA80DF053FA10222946CBE700BF63
:10E4300073C3030078C303007DC3030010B5044613
:10E440000CF074FF014620460DF050F8003018BF64
:10E45000012010BD70B500F11804054620460E4697
:10E46000FFF7ECFF10B9784602F024FA6D690CF062
:10E470005DFF32460346294620460CF099FF0028EE
:10E480000CBF0320002070BD37B590F80631013B6A
:10E49000072B04460D4602D9784602F00BFA1022EB
:10E4A000002128460DF01EFA94F80C31022B03D0FF
:10E4B000032B16D003B030BD94F80731042BF9D8E4
:10E4C000DFE803F01E1E1E03090094F8061128461B
:10E4D000FFF7E0FEEEE794F806112846FFF7C0FECE
:10E4E000E8E794F80731032BE4D801A252F823F0AF
:10E4F00001E5020001E50200CBE40200D7E40200DE
:10E5000001210DF1070094F8064105F059FD9DF831
:10E510000720B2FBF4F304FB13230133EB73C9E7C9
:10E5200030B593B002AD04230446009300F1D50248
:10E53000114B01952021583006F013FB04F1B50171
:10E5400010220AA80DF0C3F904F1C50110220EA88B
:10E550000DF0BDF906AB0AA92846202206F087FA7D
:10E56000102204F1E50106A80DF0A2F9B0FA80F03E
:10E57000400913B030BD00BF6EC3030010B50246A2
:10E58000131ADBB2994201D8012010BD12F8013BE9
:10E59000A3F13004092CF3D9413B192BF0D9002009
:10E5A000F3E70000082937B505460C4602D978463E
:10E5B00002F080F9042229460DEB02000DF087F9E4
:10E5C000044B53F82400019B984294BF0020012083
:10E5D00003B030BD34C30300024B0146186809F094
:10E5E000D5B900BF08C3030007B50DF10700FFF759
:10E5F000F3FF10B1784602F05DF99DF8070003B013
:10E600005DF804FB0A4B5B5C60B923F0800342F0C9
:10E6100040018B4204D0092A14BF0020012070471A
:10E620000120704723F0400342F080008342F3E76B
:10E6300058C30300D1F8B83108461B69012100F521
:10E64000D8701847F8B5114D2B68064613B97846AF
:10E6500002F030F9EFF3108772B62C68B4420BD198
:10E66000D6F8C4312B6007B962B6F8BD13B9784645
:10E6700002F020F9D4F8C441D4F8C431B342F5D142
:10E68000D6F8C431C4F8C431EDE700BF343A0020F5
:10E6900070B590F8A130023B022B04460D4602D91A
:10E6A000784602F007F92046FFF7CCFF94F8A03037
:10E6B000012B02D0784602F0FDF820460AF023F93B
:10E6C000002384F8A03084F8E03084F8A13004F10D
:10E6D000C00005F027FBD4F8BC31294604F5D870FA
:10E6E000DB68BDE87040184710B5044610B978469D
:10E6F00002F0E0F8A4F5D87494F8A130012B09D108
:10E700002046FFF79FFF20460AF0FDF8002084F81E
:10E71000A10010BD0820FCE72DE9F0418846911CBE
:10E72000064615461F460AF033F8044600B36B1C34
:10E730004374292383742A46414613300DF0C7F8E9
:10E740002771EFF3108772B6D6F8A85101356B1C0C
:10E75000C6F8A85102D1784602F0ACF807B962B603
:10E760003046256021460AF04EF80020BDE8F081D1
:10E770000420FBE72DE9F04190F8E030022B88B04F
:10E78000044602D0784602F095F894F8E330002B66
:10E7900042D194F8A130032B02D0784602F08AF8D7
:10E7A00094F8E030022B02D0784602F083F8D4F8D7
:10E7B0009C2094F8E13012BA009294F8A3208DF8CE
:10E7C00004209DF8052002F0FC02142B03F1020145
:10E7D0004FF01700B1FBF0F161F387021D468DF891
:10E7E000052028BF142594F8E2208DF808201B028C
:10E7F0002A4604F1E4010DF10900ADF806300DF0F0
:10E8000066F8012305F1090269462046FFF784FFF7
:10E8100080B9012384F8E33094F8E35017260227E7
:10E8200094F8E18008F10203B3FBF6F30133DBB2A5
:10E83000AB4202D808B0BDE8F0816B1E03EB430188
:10E84000C3EBC101D4F89C30143189B21BBAA8EBD8
:10E850000108009394F8A3308DF804301FFA88F86B
:10E860009DF80530B8F1170F28BF4FF0170867F370
:10E870000103E43165F38703424621440DF10600AC
:10E880008DF805300DF023F8012308F106026946E2
:10E890002046FFF741FF0028CCD194F8E330013344
:10E8A00084F8E3300135BBE700B5D0F89C3089B07F
:10E8B0001BBA00934FF43063ADF804308DF80610A6
:10E8C000042307226946FFF727FF09B05DF804FB20
:10E8D00038B50D46044610B9784601F0EBFF022D1D
:10E8E00002D9784601F0E6FFA4F5D87494F8A13077
:10E8F00013F0FB0F0FD0023B012B02D9784601F039
:10E90000D9FF29462046FFF7CFFF28B9042384F812
:10E91000A13084F8A45038BD29462046BDE83840CF
:10E92000FFF7B6BE00B5D0F89C3089B01BBA009393
:10E930008DF804100123062269468DF80530FFF793
:10E94000EBFE09B05DF804FB00B5D0F89C3089B04F
:10E950001BBA00934FF4E063ADF8043006220123A4
:10E960006946FFF7D9FE09B05DF804FB10B504460F
:10E9700005F018FAD4F8DC10014404F1C000BDE839
:10E98000104005F0E6B90000D0F8A8318B4206D15E
:10E99000012380F8AC31024B186805F03BBF70478B
:10E9A000042E002037B591F8A130032B05460C4604
:10E9B0004ED191F8E030022B4AD1D1F8D8301B1A51
:10E9C000002B14DA01212046FFF76EFF48B904231B
:10E9D00084F8A130012384F8A430C4F8B40003B053
:10E9E00030BD1D4BC4F8B430C4F8D850F7E71B4B0A
:10E9F0001B681B071AD51A4B1B68042B16DD2F2129
:10EA000018480DF03FF8D0B12F2116480DF03AF814
:10EA1000411C154B94F8E420D3F804350192134AB5
:10EA20000092052040F2BB3206F030FF0023204662
:10EA300084F8E33003B0BDE83040FFF79BBE5C21B3
:10EA400008480DF01FF808B15C21DEE70549E0E752
:10EA50000023C4F8B430C2E740420F00682E002003
:10EA6000642E002032C703000010014055C7030088
:10EA700013B50446EFF3108272B6174B1968C0F84D
:10EA8000C411186002B962B6144B1B681B0718D575
:10EA9000134B1B68032B14DD2F2112480CF0F2FFDF
:10EAA00088B12F210F480CF0EDFF411C0E4B0F4A8F
:10EAB000D3F80435009201944FF4C872042006F094
:10EAC000E5FE02B010BD5C2106480CF0DBFF08B18A
:10EAD0005C21E7E70349E9E7343A0020682E00208B
:10EAE000642E002032C703000010014082C30300DF
:10EAF000F0B50E4689B01746054610B9784601F0C4
:10EB0000D9FEA5F5D87494F8A010012903D194F882
:10EB1000A130002B54D100230129C4F8DC70C4F8C3
:10EB2000CC3084F8E03084F8A33084F8A23084F844
:10EB3000A130C4F8A83113D0012384F8A030214BB0
:10EB4000C4F8B030204BC4F8C830C4F8B840C4F89A
:10EB5000D0408023A5F188021C49204609F0FEFE22
:10EB6000A5F58A752846042105F02AFA002384F8C1
:10EB7000A330802384F8A2302B681BBA00931022A4
:10EB80004FF4407331460DF10600ADF804300CF03F
:10EB90009EFE0423162269462046FFF7BDFD05466A
:10EBA00058B92046FFF7E2FE204609F0D7FD20467F
:10EBB000FFF75EFF022384F8A130284609B0F0BDBC
:10EBC0000825FAE7A5E9020035E6020089E9020016
:10EBD00038B5124B1C6800250CB9012038BD94F8DB
:10EBE000AC3193B194F8A12084F8AC51042A94F884
:10EBF000E0300DD1022B03D104F1A80005F092F80A
:10EC000094F8A4102046FFF743FDD4F8C441E3E78D
:10EC1000022BFAD12046FFF7ADFDF6E7343A00208B
:10EC20002DE9F0410E4617469846054610B978463C
:10EC300001F040FEA5F5D87494F8A020012A03D174
:10EC400094F8A130002B50D10023012AC4F8DC80B5
:10EC5000C4F8CC3084F8E03084F8A33084F8A230D3
:10EC600084F8A130C4F8A83113D0012384F8A0306F
:10EC70001F4BC4F8B0301F4BC4F8C830C4F8B840BC
:10EC8000C4F8D0408023A5F188021B49204609F032
:10EC900065FE0023802284F8A320C4F89C3084F809
:10ECA000A2303A4631462046FFF751FA054610B9E0
:10ECB000784601F0FFFDFF232B714FF0FF332B60EF
:10ECC0004FF4FA61204609F0F4FD2946204609F088
:10ECD0009AFD204609F042FD2046FFF7C9FE0123B8
:10ECE00084F8A1300020BDE8F0810820FBE700BFD8
:10ECF000A5E9020035E6020089E9020030B5074DBA
:10ED00000246FF23141AA14202DCD843C0B230BD30
:10ED100012F8014B6340EB5CF4E700BFAEC30300A5
:10ED20002DE9F843A0F5D874804694F8A130032B60
:10ED30000F46164640D1412A40D810F8D05C002D2D
:10ED40003ED12046FFF712FE05F02CF81723B11C28
:10ED5000B1FBF3F10131CBB2216F594301F5F4114D
:10ED6000184B01F5906148F8FC1C81460144C4F839
:10ED7000B030A8F5847004F0ECFF134B4B4448F816
:10ED8000D83C022384F8E0303146C4F8B84084F817
:10ED9000E35084F8E1603846FFF7B0FF324684F86C
:10EDA000E2003946A8F1CC000CF091FD2046FFF7B7
:10EDB000E1FC2846BDE8F8830820FBE70920F9E7D5
:10EDC0001120F7E7A5E9020080C3C9012DE9F04150
:10EDD0000B78012B92B005460C4602D0784601F024
:10EDE00069FD261D61783046FFF788FFA3788342CE
:10EDF00026D195F8A21028460027FFF793FDE7706B
:10EE000095F8A220531C03F07F0322F07F021343E6
:10EE100085F8A23094F801803146424601A80CF0F2
:10EE200056FD28462770FFF7A1FDD5F8BC314246B4
:10EE30001B6801A905F5D870984712B0BDE8F081AC
:10EE400000232370F9E7000038B5044610B978466E
:10EE500001F030FD084D2B68013303D1074805F060
:10EE6000BBFC2860012384F8B431054BC4F8B831E9
:10EE700004F5D87038BD00BF042E0020D1EB02008D
:10EE8000B0C403002DE9FF4188461446054610B979
:10EE9000784601F00FFD14B9784601F00BFD2B68A0
:10EEA0001BBAEFF3108172B6A44E34686CB901B985
:10EEB00062B6687900F00303032B00F29C80DFE860
:10EEC00013F00B005801D7016202D4F89C20934242
:10EED000EDD0D4F8C441E9E7002C00F08C8094F820
:10EEE000A130032B40F0878094F8E020002A40F006
:10EEF0008E802A7994F8A2309A4230D1EB881B0A8E
:10EF000084F8E13017220233B3FBF2F30133DBB2B2
:10EF1000072B07D9022104F5D87004B0BDE8F041F1
:10EF2000FFF7D6BC2B7A84F8E230A8F10908012358
:10EF300084F8E03084F8E330424605F1090104F139
:10EF4000E4000CF0C4FC94F8E130984553D104F18E
:10EF5000E001204604B0BDE8F041FFF737BF784B31
:10EF60001B6803F0080328D2BBB1764B1B68042B47
:10EF700013DD2F2174480CF085FDA8B12F217248B4
:10EF80000CF080FD411C714B714AD3F8043500929E
:10EF900040F2C922052006F079FC2979204604B008
:10EFA000BDE8F041FFF7BEBC5C2167480CF06AFD8C
:10EFB00008B15C21E3E76449E5E7E3B1614B1B6815
:10EFC000012B18DD2F2160480CF05CFDB0B12F2122
:10EFD0005D480CF057FD411C5C4B94F8A220D3F81F
:10EFE000043502922A7901925A4A009240F2CE22C6
:10EFF000022006F04BFC04B0BDE8F0815C215248D1
:10F000000CF040FD08B15C21E2E74F49E4E74C4BCE
:10F010001B68022A03F0080373D1297994F8A2200F
:10F02000914220D2002BB8D0464B1B68042BB4DD94
:10F030002F2145480CF026FD60B12F2142480CF0ED
:10F0400021FD411C414B424AD3F80435009240F265
:10F05000D5229FE75C213C480CF014FD08B15C21EF
:10F06000ECE73949EEE725D9002BC4D0354B1B68B6
:10F07000012BC0DD2F2134480CF004FD88B12F2175
:10F0800031480CF0FFFC411C304B94F8A220D3F81F
:10F09000043502922A7901922E4A009240F2DA2235
:10F0A000A6E75C2128480CF0EDFC08B15C21E7E7FD
:10F0B0002549E9E7002B9ED0224B1B68042B9ADDE3
:10F0C0002F2121480CF0DEFC90B12F211E480CF0BE
:10F0D000D9FC411C1D4B94F8A220D3F804350292B0
:10F0E0002A7901921C4A0092052040F2DE2280E734
:10F0F0005C2115480CF0C6FC08B15C21E6E712491A
:10F10000E8E7002B3FF477AF0E4B1B68012B7FF72E
:10F1100072AF2F210C480CF0B5FC08B32F210A4820
:10F120000CF0B0FC411C094B0C4AD3F8043500929A
:10F1300040F2E322022006F0A9FB5CE7343A00200B
:10F14000682E0020642E002032C70300001001400A
:10F15000C4C4030014C503005EC5030097C50300C3
:10F160005C21B5480CF08EFC08B15C21D7E7B249B0
:10F17000D9E7002C3FF43FAF94F8A130032B7FF484
:10F180003AAFAE4B94F8E0201B68022A03F0080364
:10F190004BD1297994F8A320914246D1D3B1A84B01
:10F1A0001B68032B16DD2F21A3480CF06BFC98B3D2
:10F1B0002F21A1480CF066FC411CA24B94F8E420DE
:10F1C000D3F804350192A04A0092042040F21E3286
:10F1D00006F05CFB002504F1A800C4F8B45004F06C
:10F1E000A1FD204609F08FFB94F8A32084F8E0509D
:10F1F000531C03F07F0322F07F02134384F8A330F3
:10F200002046FFF7B3FBD4F8BC315B6804F5D87037
:10F2100004B0BDE8F04118475C2187480CF032FC8F
:10F2200008B15C21C5E78449C7E7002B3FF4E3AE92
:10F23000834B1B68012B7FF7DEAE2F217E480CF03D
:10F2400021FC60B12F217C480CF01CFC411C7D4B43
:10F250007E4AD3F8043500924FF44C726AE75C2181
:10F2600075480CF00FFC08B15C21ECE77249EEE741
:10F27000002C3FF4C0AE94F8A130032B7FF4BBAE5A
:10F2800094F8E060297994F8A230012E4CD199428B
:10F2900025D194F8E33080080341DA073FF5ABAE9F
:10F2A0001727013807FB0040A8F10602A91DF83016
:10F2B0000CF00DFB6B7994F8E3209B0806FA03F33E
:10F2C000134394F8E1200232B2FBF7F70137DBB2C7
:10F2D000FFB284F8E330BE400133B34236E6574B09
:10F2E0001B681B077FF587AE554B1B68012B7FF70B
:10F2F00082AE2F2150480CF0C5FB60B12F214E4843
:10F300000CF0C0FB411C4F4B514AD3F8043500921E
:10F310004FF442720EE75C2147480CF0B3FB08B192
:10F320005C21ECE74449EEE79942FFF437AE7FF603
:10F3300062AE424B1B681F077FF55DAE404B1B68FA
:10F34000012B7FF758AE2F213B480CF09BFB88B177
:10F350002F2139480CF096FB411C3A4B94F8A2201F
:10F36000D3F8043502922A7901923A4A00924FF476
:10F3700045723DE65C2130480CF084FB08B15C210D
:10F38000E7E72D49E9E78008012875D023D3022853
:10F3900000F0D380294B1B681B077FF52CAE284B50
:10F3A0001B68012B7FF727AE2F2123480CF06AFB47
:10F3B000002800F027812F211F480CF063FB411C1F
:10F3C0006A79204B9208D3F804350192224A0092C0
:10F3D00040F29232A4E0B8F1160F7FF40CAE01F0C7
:10F3E0009DFB10220146A81D0CF062FA00287FF454
:10F3F00002AE002C40F01181EFF3108372B6346836
:10F4000024B9002B7FF4F7AD62B6F4E594F8A1209F
:10F41000012A00F00081D4F8C441F1E75C210648DC
:10F420000CF030FB08B15C211AE103491CE1002318
:10F43000C4F89C30DFE500BF32C70300682E00200F
:10F44000642E002000100140C9C50300E4C503007C
:10F4500004C6030035C603000BC70300032B7FF46B
:10F46000CAAD94F8E030002B7FF4C5AD204604B05F
:10F47000BDE8F041FFF768BA002C3FF4BCADB8F12D
:10F48000060F7FF4B8AD94F8A130814D022B2AD13C
:10F49000204609F038FA1421204609F00AFA2B68B0
:10F4A0001D0740F1EB807B4B1B68032B40F3E6808C
:10F4B0002F2179480CF0E6FA60B12F2176480CF044
:10F4C000E1FA411C754B764AD3F80435009240F2BC
:10F4D0006E32D0E05C2170480CF0D4FA08B15C21A7
:10F4E000ECE76D49EEE72B6818077FF584AD694BB3
:10F4F0001B68012B7FF77FAD2F2167480CF0C2FA04
:10F5000090B12F2164480CF0BDFA411C634B94F874
:10F51000A120D3F804350192624A009240F276327B
:10F52000022006F0B3F966E55C215B480CF0AAFA0C
:10F5300008B15C21E6E75849E8E7002C3FF45BADF1
:10F54000B8F1070F7FF457AD94F8A130504E023B4D
:10F55000012B30D894F8E030022B03D104F1A8003D
:10F5600004F0E0FBA9792046FFF792F83368190709
:10F570007FF541AD474B1B68032B7FF73CAD2F2137
:10F5800045480CF07FFA68B12F2143480CF07AFA15
:10F59000411C424B444AD3F80435009204204FF4F6
:10F5A0006272C8E55C213C480CF06CFA08B15C2141
:10F5B000EBE73949EDE733681A077FF51CAD354BAA
:10F5C0001B68012B7FF717AD2F2133480CF05AFA37
:10F5D00078B12F2130480CF055FA411C2F4B94F88C
:10F5E000A120D3F804350192304A009240F28D32C6
:10F5F00096E75C2128480CF045FA08B15C21E9E760
:10F600002549EBE75C2124480CF03CFA08B15C2169
:10F61000D2E62149D4E603B962B694F8A130012BB1
:10F620007FF41CAF2B681BBA2046C4F89C30142111
:10F6300009F03FF92046FFF787F900287FF4F7AE7D
:10F64000134B1B681E0719D5124B1B68032B15DDC6
:10F650002F2111480CF016FA00283FF4DFAE2F21BD
:10F660000D480CF00FFA411C0C4B0D4AD3F8043531
:10F67000009240F25132042006F008F9032384F886
:10F68000A1302046FFF772F9D4F8BC319B68BDE584
:10F69000682E0020642E002032C7030000100140B5
:10F6A0007BC6030091C60300C2C60300D8C6030090
:10F6B0007047000008B5064804F034FB054B0022F3
:10F6C0001A70DA811A825A7001221A7308BD00BFBB
:10F6D000AC3A0020C43A002000B5104A8DB00A238D
:10F6E0008DF8043053788DF8093013468DF81400E6
:10F6F00053F8021FCDF80A1059681B89ADF8123073
:10F700001378CDF80E108DF80830FFF7D3FF01A85D
:10F7100002F0A6FC0DB05DF804FB00BFC43A002067
:10F720002DE9F04F0378242B93B0044600F0FC81C0
:10F7300000F28180202BB64A00F0048128D8012BEA
:10F7400000F09283C0F0D380022B00F0FD81B04B1B
:10F750001B681B0640F1B881AE4B1B68012B40F3C0
:10F76000B3812F21AC480CF08DF9002800F0AA835A
:10F770002F21A9480CF086F9411CA84BA84AD3F8C0
:10F7800004350092022040F2592206F07FF89BE1F6
:10F79000222B00F0798100F1060640F2FD8013680B
:10F7A0001D0619D59B4B1B68032B15DD2F219A488D
:10F7B0000CF068F9002800F0AE812F2196480CF07B
:10F7C00061F9411C954B974AD3F804350092042007
:10F7D0004FF4D77206F05AF82179934B9348197079
:10F7E00001290CBF052209221A7300253268C3F8CB
:10F7F0000220DD81726833894260038109208DF81F
:10F800001C0060798DF821003068CDF8220007A82F
:10F81000CDF82620ADF82A308DF8201002F020FC1B
:10F82000834C844BA36004F0BDFA83490144204615
:10F8300004F08FFA5EE0602B00F0F68128D8502BA0
:10F8400000F0BF81512B00F0CD81252B7FF47FAFDD
:10F850006F4B1B68180619D56E4B1B68032B15DD03
:10F860002F216D480CF00EF9002800F064812F2143
:10F8700069480CF007F9411C684B704AD3F804350D
:10F88000009204204FF4E77206F000F8002077E0C1
:10F89000622B00F096825E4EC0F06C82702B00F0FE
:10F8A000A582712B7FF453AF336819061BD5594BD2
:10F8B0001B68032B17DD2F2157480CF0E3F80028B5
:10F8C00000F0C9822F2154480CF0DCF8411C534B46
:10F8D0006268D3F804350192594A0092042040F23C
:10F8E0004D2205F0D3FF524804F01CFA02E01368E1
:10F8F0001A0603D4002013B0BDE8F08F454B1B68F7
:10F90000032BF7DD2F2144480CF0BCF888B12F21E0
:10F9100041480CF0B7F8411C404B4A4AD3F8043533
:10F9200000920434019440F27B12042005F0AEFFF3
:10F93000E0E75C2138480CF0A5F808B15C21E7E766
:10F940003549E9E713681B0619D5324B1B68032BB1
:10F9500015DD2F2130480CF095F8A0B12F212E484D
:10F960000CF090F8411C2D4B2279D3F8043501920C
:10F97000354A0092042040F27F1205F087FF20797B
:10F98000FFF7AAFEB6E75C2123480CF07BF808B12C
:10F990005C21E4E72049E6E713681F0618D51D4BF4
:10F9A0001B68032B14DD2F211B480CF06BF800287B
:10F9B00050D02F2118480CF065F8411C174B234AF2
:10F9C000D3F80435009204204FF4C37205F05EFFB3
:10F9D0000D2332688DF81C306379CDF821207268D0
:10F9E000CDF82520022B32898DF82030ADF8292062
:10F9F00039D0042B3BD0012B7FF47CAF144B1B6818
:10FA00001B88ADF82B3007A802F02AFB72E700BF75
:10FA1000682E0020642E002082C7030000100140E1
:10FA2000F0C8030005C80300C43A0020C63A00200D
:10FA3000AC3A0020AD0303000046C32311C8030005
:10FA4000C7C80300B6C70300C1C70300DDC7030072
:10FA5000103C00205C216D480CF014F808B15C21CA
:10FA6000A8E76A49AAE76A4B1B685B88C9E7684B45
:10FA70001B6853F8042FCDF82B205A68CDF82F209F
:10FA80001B89ADF83330BEE713681E0617D5614BEE
:10FA90001B68032B13DD2F215C480BF0F3FFA8B18B
:10FAA0002F215A480BF0EEFF411C5B4B5B4AD3F809
:10FAB0000435009204204FF4CB7205F0E7FE237961
:10FAC000022B0CD0032B1FD0062014E75C214F48DB
:10FAD0000BF0D8FF08B15C21E3E74C49E5E70723C9
:10FAE0008DF81C30A3798DF82030234653F8072F6A
:10FAF000CDF821205A681B89ADF82930637CCDF8F8
:10FB000025208DF82B307EE708238DF81C30A37953
:10FB10008DF8203077E75C213C480BF0B3FF08B14B
:10FB20005C214BE639494DE63D4BDA890132DA81F9
:10FB3000C2881A8274E65C2134480BF0A3FF08B136
:10FB40005C2195E6314997E61368190617D5314BC4
:10FB50001B68032B13DD2F212C480BF093FF38B3C8
:10FB60002F212A480BF08EFF411C2B4B2D4AD3F836
:10FB700004350092042040F2D51205F087FE0B23D5
:10FB80008DF81C3023798DF82030234653F8062F4A
:10FB9000CDF821205A681B89ADF82930E3690B9311
:10FBA000236A0C936379CDF825208DF834302AE749
:10FBB0005C2116480BF066FF08B15C21D1E71349C0
:10FBC000D3E74368C3F30B02002A40F0848102218B
:10FBD000089383688DF81C1007A91046099303F059
:10FBE000FBFB88E64068820740F07581A1688B07BF
:10FBF00040F07181E36813F0030240F06E8101244C
:10FC00008DF81C4008900A91E6E700BF82C7030008
:10FC1000103C0020642E002000100140EDC70300BE
:10FC2000C43A00201CC80300AD4E33681F0629D516
:10FC3000AC4B1B68032B25DD2F21AB480BF022FFBB
:10FC4000002800F085802F21A7480BF01BFF411CE6
:10FC500094F80CC0A54FA64AA64BA07B657BD3F8B1
:10FC60000435BCF1000F08BF3A4667683F88CDE90C
:10FC70000327A14A0092CDE901054FF40472042044
:10FC800005F004FE94F80E809C4D08EBC807BF00F9
:10FC9000EB1993F820300BB333681E061ED5914B39
:10FCA0001B68012B1ADD2F218F480BF0EBFE00287B
:10FCB00057D02F218C480BF0E5FE411C242202FB7B
:10FCC00008528C4B92F82120D3F8043501928C4ACB
:10FCD0000092022040F2162205F0D8FD4FF02409D0
:10FCE00009FB08F905EB09064FF0000B86F820B078
:10FCF00004F058F8237BB371824686F821B086F869
:10FD000022B0A6F804B07F4804F048F90AF57A7AE0
:10FD10001AFA80F045F80900A368F377F81DD4E9D2
:10FD2000011228440BF0D3FD774A637B86F820301C
:10FD3000137833B155F8093052689B1A5B45BFF60A
:10FD4000D9AD242303FB08F86F4855F808106FE578
:10FD50005C2165480BF096FE08B15C2174E76249AE
:10FD600076E75C2160480BF08DFE08B15C21A1E7CD
:10FD70005D49A3E733681C067FF5BCAD594B1B6892
:10FD8000032B7FF7B7AD2F2157480BF07BFE78B1DF
:10FD90002F2155480BF076FE411C564B5B4AD3F899
:10FDA00004350092042040F2312205F06FFDA1E5F8
:10FDB0005C214D480BF066FE08B15C21E9E74A4939
:10FDC000EBE70379072B00F2AB804C4903EBC3024E
:10FDD00001EB820292F82020002A00F0A380242266
:10FDE00002FB0313002083F8200084E5484F494BB1
:10FDF000BB6003F0D7FFA56805442946384603F0E9
:10FE0000A8FF336818067FF575AD364B1B68032BCA
:10FE10007FF770AD2F2134480BF034FE90B12F21C5
:10FE200031480BF02FFE411C324BD3F804350295BC
:10FE3000A2680192384A009204204FF4127205F031
:10FE400025FD57E55C2128480BF01CFE08B15C211C
:10FE5000E6E72549E8E75C2123480BF013FE08B1EB
:10FE60005C2130E5204932E513681A061DD51D4B8B
:10FE70001B68002B19DD2F211B480BF003FEC0B1BE
:10FE80002F2119480BF0FEFD411C1A4BE268D3F8F4
:10FE900004350392A2680292626801921F4A00929E
:10FEA000012040F2552205F0F1FC784600F002FDF9
:10FEB00020E55C210C480BF0E5FD08B15C21E0E792
:10FEC0000949E2E75C2108480BF0DCFD08B15C2140
:10FED0004FE4054951E410200DE509200BE500BF72
:10FEE000682E0020642E002082C70300A1C70300F3
:10FEF000ADC703000010014031C80300D83A00200C
:10FF000069C803009C3A0020F83B00209CC803000D
:10FF1000AC3A00202D040300A9C80300D9C803008F
:10FF20000720E8E40820E6E408B58379012B13D024
:10FF300006D3022B19D0784600F0BCFC00200AE062
:10FF400090F82120012393408288006810440A4AD7
:10FF5000013B02FB030008BD0268838890F8210082
:10FF60001344054A02FB0030F5E70268838890F8E5
:10FF700021001344014AF5E7A0860100809698000D
:10FF80002DE9F84FDFF80091DFF80081DFF800A1DC
:10FF900000F10045013D4C460026CB46A8EB000889
:10FFA00094F820308BB32046FFF7BEFF18EB000F0C
:10FFB000074622D594F82230012B31D994F821300C
:10FFC00094F820209A4206D9013384F821302B4836
:10FFD00003F0E4FFA080242202FB06B2002384F891
:10FFE0002230118C4FF6FF7291423DD1276084F888
:10FFF00021302046FFF798FF074694F8203023B1C0
:020000023000CC
:100000007B1B35EA230528BF3D460136082E04F147
:100010002404C5D129461A48BDE8F84F03F099BE1B
:100020009AF83830002BD6D1E27F164802F10A0345
:100030004370D31C4372162383726FF01B03C37289
:100040006FF00103037309F10701242303FB061179
:100050000D300BF03CFC504608F0FCFF0028ADD002
:10006000784600F027FCA9E794F8202094F82110A6
:10007000914228BF84F82030BBE700BF9C3A0020A3
:10008000F83B0020383A0020D83A002018FCFFFF47
:10009000603A002037B51D4D2B68044633BB1C4B1E
:1000A0001B681B0617D51B4B1B68002B13DD2F216C
:1000B00019480BF0E7FC80B12F2117480BF0E2FC48
:1000C000411C164B164AD3F80435009201204FF418
:1000D000627205F0DBFB062413E05C210E480BF096
:1000E000D1FC08B15C21E8E70B49EAE760B10120E7
:1000F00003F010FA20462B6898470446002003F0CE
:1001000009FA204603B030BD0E24FAE7BC540020A3
:10011000682E0020642E002082C7030000100140DA
:1001200042C90300F0B54FF080518DB0D1F80C31C9
:100130003C4E03F500239B0253F8043C002B64D093
:100140004FF01020426901325FD04C690A69624366
:100150009A425AD94269934257D3334A334813607B
:1001600003F050FF324B334A9A600021C3E9031178
:100170005961314A314B6846C3E902211822C3E96B
:1001800004110BF0AFFB2E4B0293012540F6010347
:1001900068468DF80450ADF80C308DF80E50FFF71E
:1001A00079FF044678BB274F06A808F0BBFB062260
:1001B0000DF11901F81C0BF08AFB9DF818203B7813
:1001C000214922480894520862F38613022262F3FE
:1001D00003033B701E4BADF81C209962032183F88A
:1001E000341083F82410252159841A49186383F8A0
:1001F0002040D962DF6106A830238DF81830FFF760
:1002000049FF044638B1357302E0012333730624F5
:1002100020460DB0F0BD104B089A10491A6003F04B
:10022000CBF8F0E7C43A0020BC5400209C3A0020F0
:10023000AC3A00202D04030081FF0200F83B0020AF
:1002400021F70200383A0020D6BE898E3FC903004C
:10025000603A0020B1F60200103C00206102030069
:1002600010B50C4688B010B1784600F023FB237817
:10027000022B35D0032B5DD0012B40F0848060230E
:100280008DF80830E3680393414B1B68190619D5B4
:10029000404B1B68032B15DD2F213F480BF0F2FB71
:1002A000A8B12F213C480BF0EDFB411C3B4BE26811
:1002B000D3F8043501923A4A00924FF4A272042016
:1002C00005F0E4FA02A8FFF7E5FE08B010BD5C21D6
:1002D00031480BF0D7FB08B15C21E3E72E49E5E795
:1002E00061238DF8083063680393294B1B681A0655
:1002F000E8D5284B1B68032BE4DD2F2126480BF0A3
:10030000C1FB70B12F2124480BF0BCFB411C234BD7
:100310006268D3F804350192224A009240F24912F1
:10032000CDE75C211C480BF0ADFB08B15C21EAE78E
:100330001949ECE762238DF80830154B1B681B0642
:10034000C0D5144B1B68032BBCDD2F2112480BF0CA
:1003500099FB78B12F2110480BF094FB411C0F4BF7
:10036000114AD3F804350092042040F24D1205F0F2
:100370008DFAA7E75C2108480BF084FB08B15C21EB
:10038000E9E70549EBE7784600F094FA9AE700BF01
:10039000682E0020642E002082C703000010014058
:1003A00004C903001BC9030032C9030010B51A4B6E
:1003B0001B681B0688B0044618D5184B1B68032B16
:1003C00014DD2F2116480BF05DFBD8B12F21144806
:1003D0000BF058FB411C134B134AD3F80435009221
:1003E000019440F22912042005F050FA08A82323B2
:1003F00000F8183DFFF74EFE10B90620FFF76CF924
:1004000008B010BD5C2106480BF03CFB08B15C2134
:10041000DDE70349DFE700BF682E0020642E0020DF
:1004200082C703000010014069C7030010B5194BD3
:100430001B681B0688B0044618D5174B1B68032B96
:1004400014DD2F2115480BF01DFBD0B12F211348CF
:100450000BF018FB411C124B124AD3F804350092E2
:1004600001944FF49A72042005F010FA03238DF8DA
:10047000083002A800238DF80C30FFF70BFE08B0FF
:1004800010BD5C2105480BF0FDFA08B15C21DEE7E8
:100490000249E0E7682E0020642E002082C7030096
:1004A000001001406FC703007FB518220021684685
:1004B0000BF018FA012368468DF80030FFF7EAFDCB
:1004C00007B05DF804FB0000F0B52D4B1B7B87B037
:1004D00005460C46002B4AD000284AD002884FF629
:1004E000F8739A4247D902F0FDFF002845D12B88C6
:1004F0004FF6FC72934227D1698829B3214E2427F5
:1005000007FB006292F820C0BCF1000F2BD0B2F8BC
:1005100007C09C4527D1B2F809C08C4523D1D2F839
:100520000BE0D5F804C0E6451DD192F822C0BCF11D
:10053000FF0F18D0EFF3108172B692F8223001331A
:1005400082F8223001B962B61822002168460BF009
:10055000C9F9022368468DF80030CDE90154FFF750
:1005600099FD07B0F0BD01300828C9D1ECE708209B
:10057000F7E70E20F5E71020F3E71120F1E700BFC1
:10058000C43A0020D83A00202DE9F0411F4C94F8DD
:100590000C80B8F1010F86B007460E4632D199B3F0
:1005A00092B320238DF800300B68CDF805304B68EE
:1005B0008DF80400CDF8093068460B89ADF80D3090
:1005C0000492FFF767FD0546C0B93368C4F80230EE
:1005D0007368C4F8063033896381032323730C4B9B
:1005E0000C4A84F800806770E08120829A6003F0F2
:1005F000D9FB09490144094803F0ABFB284606B082
:10060000BDE8F0810825F9E70E25F7E7C43A002098
:10061000AC3A0020AD0303000046C323F83B0020A2
:1006200070B5184C237B86B006460D462BB331B30C
:1006300021238DF800300B68CDF805304B68CDF8DC
:1006400009300B898DF80400ADF80D3068460023A1
:100650000493FFF71FFD70B90223E21823702B6883
:10066000C4F802306B6853602B89138108236670CD
:100670002373E081208206B070BD0820FBE70E20C6
:10068000F9E700BFC43A00207FB5084B1B7B53B18C
:1006900024238DF8040068468DF80030FFF7FAFC3B
:1006A00007B05DF804FB0820FAE700BFC43A002059
:1006B0000620704730B5754B14461B6841F20102A5
:1006C000904287B00D4603F480437ED01ED80128A7
:1006D00045D0002B5DD06E4B1B68002B59DD2F21C0
:1006E0006C480BF0CFF9002800F0C4802F21694836
:1006F0000BF0C8F9411C684B684AD3F804350092E6
:1007000001957B22012005F0C1F842E044F201028C
:10071000904200F0858044F202029042D9D1002B31
:1007200037D05B4B1B68002B33DD2F2159480BF072
:10073000A9F900286BD02F2156480BF0A3F9411CD2
:10074000554B2288D3F8043503926268CDE90152F3
:10075000534A009201206C2205F098F819E0C3B1C9
:100760004B4B1B68002B14DD2F214A480BF08AF9F4
:1007700010B32F2147480BF085F9411C464B494ADD
:10078000D3F804350092CDE901546022012005F030
:100790007DF84FF0A0434FF4F032C3F81825C3F8AA
:1007A0000C25EFF3108372B64DF6AD6C3E4A13780C
:1007B000002B68D107B030BD5C2136480BF062F9E0
:1007C00008B15C21D6E73349D8E7002BE1D0304BA4
:1007D0001B68002BDDDD2F212E480BF053F968B18B
:1007E0002F212C480BF04EF9411C2B4B2F4AD3F8EC
:1007F00004350092CDE901546322C7E75C21254806
:100800000BF040F908B15C21EBE72249EDE75C21F0
:1008100020480BF037F908B15C218DE71D498FE7BF
:10082000002BB6D01A4B1B68002BB2DD2F211948C4
:100830000BF028F9A8B12F2116480BF023F9411C21
:10084000154B2268D3F8043504926268CDE9025250
:10085000A2680192164A00920120772205F016F84C
:1008600097E75C210B480BF00DF908B15C21E3E739
:100870000849E5E75C2107480BF004F908B15C2161
:1008800035E7044937E730BF91E700BF682E002005
:10089000642E00205AC9030000100140FEC9030065
:1008A000BEC9030082C90300082E00209CC90300B2
:1008B000DDC9030007B50023ADF800300146054B44
:1008C00001936A4644F20200FFF7F4FE03B05DF8BC
:1008D00004FB00BF19BE030010B5044605F058FD27
:1008E00038B123780E2B04D10020BDE8104003F06E
:1008F00057B810BD02F0A6BF70B5837DC27D86B02B
:1009000043EA0223ADF814300446012305A80E463D
:10091000ADF81630F9F7AEF90546002847D104AA1C
:100920002146208AF9F79CFB054600283FD10DF1AE
:1009300012033246BDF81010E08AF9F795FD05461E
:10094000002834D1217ED4F8120001F0010102F018
:10095000AFFB10B17846FFF7ADFFBDF81200FCF712
:1009600045FC054618BB184B1B681B031DD5174BD0
:100970001B68062B19DD2F2115480BF083F8C8B131
:100980002F2113480BF07EF8411C227E114B02F000
:100990000102D3F804350292D4F8122001920E4AD3
:1009A00000920720C32204F071FFF6F7F5FE2846F7
:1009B00006B070BD5C2106480BF064F808B15C21FC
:1009C000DFE70349E1E700BF682E0020642E002026
:1009D00017CA03000010014036CA030008B507F02B
:1009E00019F8F7F7F4FAF9F7CDF8BDE8084002F086
:1009F0001FB907B501A8F9F779F9BDF8040000306F
:100A000018BF012003B05DF804FB000073B50E466B
:100A1000054660B302F0A2FE044628BBF9F70CF9C4
:100A2000F8F740F82869FCF7B1FB0446E0B92B7FE2
:100A30000193AB69009301466B690E484FF6FF7254
:100A4000FCF72AFE044678B92B6A03B1984706F0F2
:100A5000F9FEF9F705F8F7F711F808B1F6F79CFE7B
:100A6000FFF7C7FF06B13070204602B070BD0E24FC
:100A7000FAE700BF143C002008B505F089FC20B15E
:100A80000020BDE8084002F08BBF0248BDE80840E6
:100A900002F030BF0C2E002037B50D460446A0B141
:100AA00099B1684607F0CCF9009B53B1236005F07B
:100AB000A5FC2368C01A00F580502860002003B010
:100AC00030BDF7F7BEFF2060F1E70E20F7E700002A
:100AD0000146102201480AF0FABE00BF6C3C00201B
:100AE00010B50B4C0B49082220460AF0F0FE0822F4
:100AF000A01809490AF0EBFEE379042262F3071318
:100B0000E371237A022262F38713237210BD00BFC0
:100B10006C3C002060000010A400001000487047EA
:100B20006C3C0020064B002203F580715A805A600D
:100B300003F8082B8B42F9D1024B1A60704700BFB3
:100B40007C3C00207C3D0020F0B50C4B0C4C1B681D
:100B5000064620227BB1013B14F8330050B104EB70
:100B6000C3056F88B74202D16D688D4202D0013A49
:100B7000F0D11046F0BD1F23EEE700BF7C3D002002
:100B80007C3C002030B5084A084C136804EBC305D0
:100B90006960012104F833100B44202B08BF0023A7
:100BA0006880136030BD00BF7C3D00207C3C00208D
:100BB000C0F30C038B42084438BFA0F50050C01AA4
:100BC00070470000F0B50D4B0D4A1E6800218E42A3
:100BD00012D0156800230AE052F8044C04EBC30756
:100BE00014F83340844201D17868F0BD01339D424E
:100BF000F2D101310832EAE70020F6E7803D00201B
:100C0000883D002000B58DB040B99A1C06D0012265
:100C100001A88DF80420029301F022FA034B186812
:100C200003F0F8FD0DB05DF804FB00BF8C3D002023
:100C300010B50378044613B97846FFF73BFEE18808
:100C4000A069FFF7B5FFE1690A060B0A101843F126
:100C5000000110BD10B50378044613B97846FFF7BC
:100C600029FE607A431C01209840013810BD000025
:100C7000F8B5037805460E4613B97846FFF71AFE15
:100C8000104AA88A0023144619018F5A874214D1AA
:100C9000002353520C4A1368591C03F007031B012D
:100CA0001160AA8AE25206B16E781C442846A670EA
:100CB000FFF7BEFFC4E90201F8BD0133082BE3D101
:100CC000E8E700BF903D0020103E00202DE9F041F4
:100CD0000E468EB015461C46074610B97846FFF7FB
:100CE000E9FD16B97846FFF7E5FD636AA27802339D
:100CF0000593E378A2F10800002B14BF0121022123
:100D00000DF1040842424241434604F10C0003F055
:100D1000B4FEA3788DF83430237BADF82050022B3D
:100D200016FA85F5CDE906870B960C950FD1236948
:100D300013B97846FFF7BEFD23690993102305A870
:100D4000ADF8283003F095FE0EB0BDE8F081002329
:100D5000F5E70000B2F5C07F2DE9F04781468846EF
:100D6000174602D97846FFF7A5FD244B00257022CF
:100D70009A4602FB053494F8486046B9384607F0B5
:100D80003CFBE06638B900242046BDE8F087013519
:100D9000042DEED1F7E73022494620460AF097FDB0
:100DA000B8F1010FE664A4F84A701DD1144B84F821
:100DB00052601B7D84F8513084F8536084F8506091
:100DC000D9F8283063656FF00103A3620D4BA4F8D6
:100DD0005860A3632464012002F01AF9702303FB16
:100DE00005A585F84880CFE76FF00103A362064BA5
:100DF000A36584F868602466044BEAE72C3E002073
:100E0000143E002055130300611A03004D13030024
:100E100010B50446C06E07F0F2FA04F1300002F09B
:100E200081FF94F84830022B03D104F1500002F006
:100E300079FF2046702200210AF054FD002084F83A
:100E40004800BDE8104002F0E3B810B590F8483013
:100E5000012B8CB0044602D07846FFF72BFD01230E
:100E60008DF8043001A8636D029301F0F9F8204673
:100E7000FFF7CEFF0CB010BD10B50446808A02F01B
:100E800081FB01281CD1237BD3B194F91620002AC1
:100E900018DBE27D5AB1022B12D094F90330002BFB
:100EA00010DBA378002B0CBF0020072010BDE278D8
:100EB0000AB9012B06D1237833B9A378042BF2E7C2
:100EC0001020F3E70720F1E70020EFE71FB500222D
:100ED0000B468DF80F2028B30230086018460DF13C
:100EE0000F0103F0C8FD9DF80F30DBB1144B1B68F8
:100EF0005B0717D5134B1B68032B13DD2F211248FB
:100F00000AF0C0FD98B12F210F480AF0BBFD411C2B
:100F10000E4B0F4AD3F804350092042040F23742BA
:100F200004F0B4FC9DF80F0005B05DF804FB5C21F3
:100F300005480AF0A7FD08B15C21E5E70249E7E7AB
:100F4000682E0020642E002099CA03000010014082
:100F5000B6CA030070B50446D0E906128CB0808A88
:100F600005F0D8FB0546A0B12C22002101A8A68AD5
:100F7000E4690AF0B7FC0F238DF804304FF000034A
:100F800064F3000301A8ADF808608DF80A3001F0A1
:100F900067F828460CB070BD2DE9F04F99461378DC
:100FA000D2F81880F3B007468A46144623B1D18898
:100FB0004046FFF7FDFD9061E378A278002BA2F197
:100FC000080003AD14BF0121022104F10C064242C6
:100FD0002B464241304603F050FDA278C4F81880F9
:100FE000CDE908571FFA8AF5AB1A9BB21F44ADF83A
:100FF0002830E3780E974FF0000812AF0D978DF868
:101000003C20ADF83080002B65D04FF0100B04F180
:10101000240A237BC4F82480022B02BF2369ADF885
:1010200030B00B93206A21795246F9F715FD606ABA
:1010300030BB237B022B05D13146E089F9F7CEFD89
:101040000028E6D1374B1B685B0741D5364B1B6840
:10105000052B3DDD2F2135480AF014FD002858D01E
:101060002F2132480AF00EFD411C314B314AD3F892
:1010700004350092062040F20E7204F007FC27E0CF
:1010800007A9FFF723FF0028CCD02046FFF762FF17
:10109000F0B9A2780B908DF81C0096E80300A38AA3
:1010A000ADF82A30AD1A0CAB01228DF8282083E868
:1010B0000300A37D8DF84030236A0E9307A8636A6E
:1010C0000897ADF824500F93CDF8449000F0C8FF76
:1010D00073B0BDE8F08F227B012AB3D1A046E0892E
:1010E000B4F814A048F8243F4146F9F7FBFC07A9DF
:1010F000606AFFF7EBFE0028C7D1606241465046A8
:10110000F9F7F0FC07A9606AFFF7E0FE002899D024
:10111000BBE75C2105480AF0B5FC08B15C21A0E7FB
:101120000249A2E7682E0020642E002099CA03001D
:10113000001001405CCB0300C37D0A7830B5002B62
:101140003DD0C37822F07F0203F07F031A430A7078
:101150000B78027803F07F0343EAC2130B70037825
:1011600063B38378083B5A425A414B7803F07F03BC
:1011700043EAC2134B708A78C58802F00302C5F3B4
:10118000861442EA850223F07F032343D2B28A7099
:101190004B70CB78057A03F01F03C5F3C10422F02E
:1011A000030243EA45132243DBB2CB708A70427AD2
:1011B00023F01F0302F01F021343CB7030BDC4782D
:1011C00022F0400343EA8413DBB20B70027923F070
:1011D0003F0302F03F0213430B70B9E72DE9F041E2
:1011E000837890461344C27D002A14BF0B220F223D
:1011F000934286B004460F462FD8024612F80C1BC5
:101200000092002914BF042501252B440293836A10
:101210000193C36A0393684600238DF8103003F0EE
:10122000C8FD064670B9059920460D44FFF784FFB6
:10123000E37D5BB14246394628460AF048FB6846E2
:1012400003F0D8FD304606B0BDE8F08123464246A3
:1012500029463846FFF73AFDF1E70926F2E7000094
:1012600038B590F84830012B044602D07846FFF795
:1012700021FB02F097FD237B074A012B05BFD2E932
:101280000315A37DD16805FB0311014404F130006F
:10129000BDE8384002F05DBD143E002070B50D463B
:1012A00090B0044610B97846FFF704FB94F8483034
:1012B000022B03D100212046FFF7DAFC2C2200216B
:1012C00005A8666D0AF00EFB102305A88DF81430F2
:1012D00006968DF81C5000F0C3FE2046FFF798FDDF
:1012E000154B1B685B071BD5144B1B68032B17DDC5
:1012F0002F2113480AF0C6FBA0B12F2110480AF095
:10130000C1FB411C0F4BD3F80435029594F84820DB
:1013100001920D4A0092042040F22E2204F0B6FA07
:1013200010B070BD5C2106480AF0ACFB08B15C212E
:10133000E4E70349E6E700BF682E0020642E0020A2
:1013400099CA03000010014068CA03000846002142
:10135000FFF7A4BF10B591F84830012B0C4602D01E
:101360007846FFF7A7FA94F851305BB1013B84F857
:101370005130002384F85030084BBDE81040186805
:1013800003F048BA217B0129204603D1BDE8104073
:10139000FFF784BFBDE81040FFF757BD8C3D00202C
:1013A0002DE9F04F044689B00F4609B100230B60C8
:1013B00004F10C0394F8505001934FF001084FF0E2
:1013C000000B627AAA4203D2002009B0BDE8F08F78
:1013D000E16C08FA05F30B4259D1E37D2572002B2D
:1013E0000CBF0C260826954206FB05FA237808BF99
:1013F000B4F84A608DF818B008BFA6EB0A06002BB7
:1014000014BF4FF004094FF0010906EB09030493E0
:10141000019B0293A36A039302A8E36A059303F076
:10142000C8FC0028D1D1079B994445B994F85330A2
:101430002BB9A36984F85380C3F30C03E380E37DE5
:101440008BB994F8523073B915B17846FFF732FA78
:10145000B4F84A10A2788A1AE16E23460846FFF7CC
:1014600035FC84F8528007992046FFF765FEE16E4F
:101470003246514448460AF02AFA02A803F0BAFC60
:1014800017B13B6801333B606B1C84F85030013569
:10149000EDB296E72DE9F04307468FB01046884637
:1014A00015469946FFF756FD0446002860D1EE78B0
:1014B000002E40F0AE80B8F1060F59D138787A7816
:1014C000DFF8A8C1830103F4FE5343EA9203D7F87F
:1014D00002204FF0700812BA674608FB04C696F85F
:1014E0004810012925D1B6F814E0E9898E4520D1AC
:1014F000F18899421DD1B6F858E0A98ABEF1000FD3
:1015000001D08E4515D110F0800F4FF070033BD005
:1015100003FB0473A3F85810702303FB0474E56CF9
:101520001543E564002A61D103213046FFF7B6FE7A
:101530001EE00134042CD0D1464B1B685B0717D545
:10154000454B1B68012B13DD2F2144480AF09AFA02
:1015500088B12F2141480AF095FA411C404B414A7D
:10156000D3F804350092022040F2846204F08EF930
:101570000FB0BDE8F0835C2138480AF083FA08B167
:101580005C21E7E73549E9E703FB0473DB898B421C
:10159000C2D0304B1B685A07EAD52F4B1B68012B72
:1015A000E6DD2F212D480AF06DFAB0B12F212B482E
:1015B0000AF068FA411C2A4BAA8AD3F80435029231
:1015C000702202FB04740220E2890192264A0092F2
:1015D00040F28C6204F05AF9CAE75C211F480AF015
:1015E00051FA08B15C21E2E71C49E4E73046FFF715
:1015F00031FB854203D13046FFF727FCB8E70021D5
:1016000084F850103046FFF7CBFE3046FFF728FE37
:10161000AEE73046FFF7D6FA03460028A8D005F11A
:101620000C012A6A0B9203C9AA8AADF8222009AAE2
:1016300082E80300AA7D8DF830202A788DF82020DA
:10164000EA6A8DF81460CDE906780D92494605A83E
:1016500098478DE7682E0020642E002099CA030069
:1016600000100140C9CA0300F7CA03002C3E002045
:10167000F0B5C37D15468278002B2A4414BF4FF481
:1016800080734FF4C0739342C7B00E4679D3404C79
:101690000023E11891F84870012F08D1B1F814C067
:1016A000878ABC4503D1CF89C1898F426BD0703303
:1016B000B3F5E07FEDD10121FFF74CFB0446002894
:1016C00063D02A463146C06E0AF001F9002304A90E
:1016D00020460493FFF764FE30F0040506464BD124
:1016E000049B13B12046FFF7BBFD2A4B1B685B0729
:1016F00028D5294B1B68032B24DDB4F84A10274B4F
:101700008029186828BF8021002305AE8B421CD198
:1017100000222F21224806F813200AF0B3F910B353
:101720002F211F480AF0AEF9411C1E4B1E4AD3F868
:10173000043501921D4A0092029640F27152042033
:1017400004F0A4F8284647B0F0BDE26ED25C170959
:1017500002F00F02C75D06F81370875C06EB4302C8
:1017600001335770D2E75C210D480AF08BF908B1BC
:101770005C21D6E70A49D8E72046FFF749FB354602
:10178000E0E70925DEE70825DCE70425DAE700BF06
:101790002C3E0020682E0020642E00206C2E00209D
:1017A00099CA0300001001408BCA030046BC030025
:1017B00010B54FF4E072002113480AF093F80024AA
:1017C00005F018F8114B12481C60214680220AF0DF
:1017D00089F8104B1049114A11489C75C3E9001251
:1017E00010494CF25032C3E902211A6140F604025A
:1017F0009A8202F0F1FF0C4B18600C4B0C481C60F5
:10180000BDE8104005F0F8B82C3E0020103E002046
:10181000903D0020143E002080969800F049020080
:10182000951F030020A107008C3D0020803D002073
:10183000050C030004F066BF30B504468DB00028E7
:101840006CD00369002B69D0C369002B66D0856911
:10185000002D63D05A788DF804201A780993838A72
:1018600082F001020B2B8DF80320027B43D901216A
:10187000022A8DF8001001D1294A927D002A44D114
:10188000042213448DF802200B330C2293FBF2F355
:10189000013B8DF8093000238DF8083094E80300EF
:1018A00000238DF8173003AB83E803002389ADF8DC
:1018B0001430A37A8DF81630236A0A932046DF236A
:1018C00008950B93F9F746FA28B12378012B0CBF42
:1018D0002023FF230B9368462569A48AFFF7CCFADF
:1018E00038B99DF800302246294668469BB1FFF77B
:1018F000BFFE0DB030BDC17A0029B8D1012A0CBF9E
:10190000012200228DF8002001D10822B9E704232A
:101910008DF80230C2E7FFF761FCEAE70E20E8E746
:10192000143E0020F0B503468DB00F46002843D08A
:101930004568002D40D08669002E3DD0846802782D
:101940008DF803200B2C4FF00002099294BF027B0C
:10195000012202F0010100208DF800108DF8020034
:1019600032B1E11DC90801398DF809108DF8080060
:1019700003F1100103C901228DF8172003AA82E8A0
:101980000300DA89ADF814201A7F1B6A08966846AE
:101990008DF81620CDE90A73FFF76EFA38B99DF875
:1019A00000302246294668461BB1FFF761FE0DB0A4
:1019B000F0BDFFF713FCFAE70E20F8E770B5067BE1
:1019C000012E8CB004460D4646D10B2200216846FC
:1019D00009F088FF9DF80120E3888DF8055002F09A
:1019E000030242EA83028DF801202A0E8DF80220BC
:1019F0002A0C8DF803202A0A8DF8042062788DF8CD
:101A00001C60911E4A424A41C3F3861343EAC21343
:101A10008DF8003006230593A38AADF81E3000230D
:101A200008938DF80C308DF81830E389ADF81A3032
:101A3000E36A0B93A37D226ACDF810D0099243B9D3
:101A40006FF0010103A88DF82830FFF76BFF0CB091
:101A500070BD024B5B7DF3E70020F8E7143E0020E9
:101A600010B591F84830022B0C4602D07846FEF7AC
:101A700021FF022384F8683094F84830022B06D105
:101A8000E16C2046FFF79AFF08B984F8680010BDA2
:101A90002DE9F04F0C469FB090461F4605460028A2
:101AA00000F0A781002A00F0A48121B90926304660
:101AB0001FB0BDE8F08F1822414609A809F007FFC2
:101AC0002B78002059B2CA0F81428DF81820ACBF84
:101AD0000122042294428DF81900E7D39DF82F606B
:101AE000EEB103F07F0381428DF81B308DF81A00B0
:101AF0002EDA6A78AB78920102F4FE5242EA93023F
:101B0000ADF81E20DB00EA7803F0180343EA521315
:101B100002F01F028DF820308DF8212018E0C3F369
:101B20008010002903F03F038DF81B008DF81C3056
:101B300008DA95F90130002BACBF042308238DF897
:101B40001A30D6E704231A4494428DF81A30ADD3E4
:101B500000230F933B78032B02D97846FEF7AAFEA9
:101B60003A78A54B06A853F822301193FFF784F971
:101B7000064600289BD1D8E90312B8F8080004F003
:101B800005FE002893D13146082204A809F0AAFED8
:101B900004A9B8F80200F9F721F838B19DF8193016
:101BA00043F001038DF81930059B0A939DF8193015
:101BB000002B3FF47CAF9DF81820002A00F007812D
:101BC0008E4A4FF0000A934602EB0A0393F848103E
:101BD000022940D00AF1700ABAF5E07FF4D19DF8ED
:101BE000183013B97846FEF765FE06A8FFF720F80F
:101BF000BDF82CE0824A4FF0000C4FEA0C1838F880
:101C0000023073453DD19044D8E9029A514508BF4E
:101C1000484536D106AD0FCD12AC0FC40FCD0FC461
:101C200095E80F0084E80F0098F802308DF84930ED
:101C3000002B3FF43CAF12A8FFF70CF8014612A8A6
:101C4000FFF7BCFE98F80230DC077FF530AF06A83E
:101C5000FFF780F92BE7988ABDF82C108842B9D19C
:101C600006A8CDE90232FEF7E3FF029B8046184644
:101C70008946FEF7DDFF894508BF8045039AA9D252
:101C800015E70CF1010CBCF1080FB6D1002370224E
:101C900002FB03BA9AF84810022915D1BAF81410B9
:101CA000714511D106A8FEF7C3FF8046504689460C
:101CB000FEF7BEFF494508BF404580F0AD800521D5
:101CC0005046FFF7EBFA02E00133042BE0D19DF818
:101CD0002F209DF82130002A0CBF4FF00C084FF048
:101CE000080803FB08880CBF4FF4C0734FF48073DF
:101CF000984529D9434B1B6858077FF5D8AE424B0E
:101D00001B68002B7FF7D3AE2F21404809F0BAFEA5
:101D100088B12F213D4809F0B5FE411C3C4B3D4A9E
:101D2000D3F804350092CDF8048040F292320120BD
:101D300003F0ACFDBBE65C21344809F0A3FE08B11A
:101D40005C21E7E73149E9E7BDF81E100C98FEF782
:101D50002FFF0D9A0146BDF82C0004F017FD002856
:101D60007FF4A5AE4246022106A8FEF7F3FF8246A5
:101D7000002851D1014606A8FFF720FE2C2251462B
:101D800012A809F0AFFD10238DF8483012A80223E5
:101D90008DF8503000F064F989E65C211B4809F0A9
:101DA00071FE08B15C2146E0184948E0002B0CBFE9
:101DB0000C2308239C4200F0A28004215046FFF728
:101DC0006DFA74E63B465246FFF7E6F8CDE0DA07D7
:101DD0007FF56DAE9DF82F30681C611E23B13B4628
:101DE00006AAFFF757FB62E63B4606AAFFF7D4F8C0
:101DF0005DE60E265BE600BF58CA03002C3E0020BD
:101E0000903D0020682E0020642E002099CA030017
:101E10000010014038CB0300584B1B685B071BD5F3
:101E2000574B1B68032B17DD2F21564809F02AFE5C
:101E30000028B2D02F21534809F024FE411C524BF8
:101E40009DF82020D3F804350192504A00920420D6
:101E50004FF4717203F01AFD9AF84830022B02D049
:101E60007846FEF727FDDFF82881D8F8009001F0CA
:101E700099FF09EB00010AF1300001F06AFF9AF8BE
:101E80000C30012B1AD19AF86830BBB99AF8483057
:101E9000022B02D07846FEF70DFDD8E9013298F802
:101EA000151002FB013801F07DFF00EB08010AF17B
:101EB000500001F04EFF01238AF868309DF8201091
:101EC000DAF84C3001228A4013427FF4F0AD13431C
:101ED000CAF84C309DF82F309AF80920002B0CBF1F
:101EE0004FF00C084FF008088A42A4F1040408FBE4
:101EF00001F87FF45BAF08EB0403AAF84A30DAF884
:101F000018200C9B9A420BD20DF1240EBEE80F0054
:101F10000AF10C0CACE80F009EE803008CE803000B
:101F2000DAF86C002246291D404409F0D0FC5046E6
:101F3000DAF84C40FEF78EFE84427FF4B8ADDAF852
:101F40004C105046FFF73AFD9AF80130D9070CD5EE
:101F50009AF81730DAF86C00BAF84A10002B3FF400
:101F600031AF3B465246FFF795FA50460121FEF746
:101F70007FFE5046FEF74CFF99E500BF682E00201B
:101F8000642E002099CA0300001001404CCB0300CE
:101F9000143E00202DE9F341194E00243746A04697
:101FA000351995F84830012B0CD102A9284641F883
:101FB000048DFFF7F5F9042801D0019B13B12846E1
:101FC000FFF74EF97034B4F5E07FE9D100257C19B4
:101FD00094F84830022B0AD194F86830022B06D1CD
:101FE000E16C2046FFF7EAFC08B984F86800703518
:101FF000B5F5E07FEBD1012002B0BDE8F08100BF74
:102000002C3E00202DE9F04188460746E8B1124EEB
:102010003468C4B92546454507D1104BC3E900755E
:10202000012333602046BDE8F08107EBC5035B6800
:102030005BB117F83500030609D450B1FEF7C2FDB5
:1020400038B90135E7E70424ECE70E24EAE70B246E
:10205000E8E70F24E6E700BF803D0020843D002034
:10206000F8B5074610B97846FEF724FC0F4E3468E1
:1020700094B10F4D01232B7023791BB954F8043C04
:10208000384698472468002CF6D12B78022B03D1D0
:102090003168064C09B92970F8BD0B790E6813B187
:1020A000204603F078FB3146F4E700BFF03F002004
:1020B000EC3F002010B5044610B97846FEF7FAFB55
:1020C00000232372211D0248BDE8104003F042BBEB
:1020D000F03F00200B888268D25A073222F00302B8
:1020E000134402889BB2043A934288BF00230B80BA
:1020F000704713B58368CB1A02A921F8023DFFF798
:10210000E9FFBDF806308068184402B010BD70B514
:10211000064615460C4611BB7846FEF7CBFBFEB1D2
:102120007846FEF7C7FB6B1E2344B3F1005F34D93A
:102130004FF08052D2F80C2102F50022B3EB822F2F
:102140002ED2042D02D87846FEF7B4FB358000234A
:10215000043D7380B380B4602580A37070BD10B956
:102160007846FEF7A7FBB4F1005F12D94FF0805319
:10217000D3F80C3103F50023B4EB832FD3D34FF006
:102180008053D3F80C3103F50053B4EB832FC7D23F
:10219000C9E7B4F5000FF2D8C2E7B3F5000F08D9CC
:1021A0004FF08052D2F80C2102F50052B3EB822F8F
:1021B000C7D37846FEF77EFBC3E738B5044610B9AF
:1021C0007846FEF777FB6288A36813449B78012B5F
:1021D00002D17846FEF76EFBEFF3108572B6A26867
:1021E000A18811448B78032B0AD12046FFF781FF89
:1021F000A368C31A63800023837005B962B638BD33
:10220000002393706380A380F7E7F8B50E46154668
:10221000044610B97846FEF74DFB16B97846FEF72E
:1022200049FB6288A36813449B78012B02D178464E
:10223000FEF740FB002D37D02388043B9BB29D4224
:1022400032D8EFF3108772B66188A388EA1D22F0B6
:102250000302994292B204D25B1A9A4210DD042022
:1022600016E018D92088401A904209D29A42F6D82E
:10227000032881BFA3685B1804229A70002363803F
:102280006288A1688B188D5201229A7000203360F9
:1022900007B962B6F8BDA26813449B78002BDED163
:1022A00093706380A380EBE70920F3E7F8B50D4650
:1022B0001646044610B97846FEF7FCFA15B978467A
:1022C000FEF7F8FAAB78012B02D07846FEF7F2FA67
:1022D0002B88B34202D27846FEF7ECFA16B978465C
:1022E000FEF7E8FAEFF3108772B60223AB70E1183D
:1022F0002E802046FFF7EEFE6288A38893421FBF20
:10230000A3689B1800229A7007B962B6F8BD70B531
:102310000D46044610B97846FEF7CCFA15B9784652
:10232000FEF7C8FAEFF3108672B6A288A3681344CA
:102330009A78042A06D1211D2046FFF7CBFEA288F9
:10234000A36813449A78022A03D0032A08D00520F0
:1023500003E003229A702B60002006B962B670BDBC
:102360007846FEF7A7FAF7E738B5044610B978467D
:10237000FEF7A0FAEFF3108572B6A088A1680144B9
:102380008B78042B03D12046FFF7B3FE01468878F3
:10239000831E5842584105B962B638BD38B5044667
:1023A00010B97846FEF786FAEFF3108572B6A0886A
:1023B000A16801448878C31E012B05D9831E5842A9
:1023C000584105B962B638BD2046FFF792FE014676
:1023D000F0E7F8B50D46044610B97846FEF76AFAFC
:1023E00015B97846FEF766FAEFF3108672B6AB7849
:1023F000012B19D0032B22D1A288A36813449D423C
:1024000002D07846FEF756FA0027AF70211D20460D
:10241000FFF760FEA288A36813449B78042B00D1C9
:10242000A78006B962B6F8BD6288A36813449D42CE
:1024300002D07846FEF73EFA0023AB70F1E778460B
:10244000FEF738FAEDE710B5EFF3108472B6828824
:10245000816811448B78042B02D1FFF74AFE0146B4
:102460008878B0FA80F0400904B962B610BD0379EB
:1024700042799B1A03F57F2303F6FF7300EB0330C9
:102480007047000010B5054884681C22002109F03F
:1024900029FA2046BDE8104003F08ABFF43F00202F
:1024A00070B5194CE36813B97846FEF703FA237E3A
:1024B00013B17846FEF7FEF96368092B02D9784616
:1024C000FEF7F8F9114D0026636855F82330984758
:1024D000022811D003280DD0012810D163680133E0
:1024E000092B636002D97846FEF7E4F9237E002BBE
:1024F000EAD004E06660F9E7237E0BB1207070BD7E
:10250000BDE87040FFF7BEBFF43F002088CB03005A
:1025100010B50388044613B97846FEF7CBF9208836
:10252000074B04EB800030EA030203D06288B2F567
:10253000FE4F04D11C4004F580542078204410BD87
:1025400000F0FFFF70B504460E4647F6FE65FFF744
:10255000DFFFB04207D2844205D24388013B9BB2E1
:10256000AB42F4D870BD0020FCE700000B78032BD1
:10257000094B04BF00221A761A78012A03D11B7E68
:1025800043B9FFF78DBF022A04D10B78032B01D189
:10259000FFF778BF704700BFF43F002010B50C4C28
:1025A000E3681878002203F58051184404F0E8F934
:1025B00050B9E1680846FFF75AFF814206D001F59D
:1025C0008051E160032010BD0120FCE70220FAE702
:1025D000F43F00201FB50A4B02221B688DF8002033
:1025E0000193084A4FF4805369460120029300F09A
:1025F000F3FEB0FA80F0400905B05DF804FB00BFBF
:1026000014400020104000201FB50123CDE9022115
:102610000190054A8DF800306946184600F0DCFE4E
:1026200005B05DF804FB00BF104000202DE9F04725
:10263000254BD86802794179013A91421E4603D16F
:1026400001205876BDE8F08700F580531F491C78BB
:102650001C440B6813F8045F1D44FFF708FF6388F0
:10266000013B9BB247F6FE62934200F580578846D5
:1026700004D920463946FFF765FF0446DFF850A02D
:102680004FF001092CB9B4FA84F46409747601207E
:10269000D8E7D8F800106288284601F5805104F088
:1026A0006FF905460028EED004225146204686F8F0
:1026B0001890FFF7A9FF28B920463946FFF742FFD7
:1026C0000446DFE70020BDE7F43F0020144000206F
:1026D0004CCD030038B5104CE36818784FF6FF7204
:1026E00003F58051184404F04BF988B1E368197878
:1026F0000B4498420CD0657E0849094B0422002DFA
:1027000008BF1946FFF780FF20B90120207638BDA9
:102710000120FCE70020FAE7F43F002054CD03003D
:1027200050CD030070B50C4D0C4EE96830680C7844
:1027300004302246FFF768FF58B9336804F0FC0400
:1027400004341C44EB686C611A7813442B6101203B
:1027500070BD0020FCE700BFF43F002014400020C3
:1027600008B5054B054918680422FFF74DFFB0FA7C
:1027700080F0400908BD00BF144000200040002048
:1027800010B5074B074C1968E06840F6FC7204313D
:10279000FFF73AFF10B90120207610BD0020FCE7BA
:1027A00014400020F43F002010B50C4CE1680846AE
:1027B000FFF75DFE81420AD1094B0A4918680422DD
:1027C000FFF722FF40B901232376022010BD01F557
:1027D0008051E1600320F9E70020F7E7F43F002093
:1027E00014400020184000202DE9F74F324C236997
:1027F00013B97846FEF75EF8636913B97846FEF7B9
:1028000059F8DFF8B89047F6FE6A6369D4E9030621
:1028100003EA0908A8EB0308FFF729FE7388013BC8
:102820009BB2534508F5805800F5805B06D93046C9
:102830005946FFF787FE0646002835D03546002763
:102840005D4519D22A8807EB8202904509D986EAAC
:10285000050313EA090F04D16B88013B9BB2534572
:1028600002D957B9012318E028460192FFF750FE1C
:10287000019A05461746E3E7E7B13A4631466069F3
:10288000FFF7C2FE90B963691F44676115B97846C6
:10289000FEF710F82561002335B1698847F6FF720D
:1028A000914201D0002BB0D0012000E0002003B005
:1028B000BDE8F08F0123EFE7F43F002000F0FFFFB9
:1028C0001FB50A4B0222DB688DF800200193084AED
:1028D0004FF4805369460120029300F07DFDB0FA69
:1028E00080F0400905B05DF804FB00BFF43F002014
:1028F0001040002010B54FF010235A69013225D046
:102900005A691AB35B69A3F58053A3F58053174A3C
:10291000196813604B1E033325D8C1F30B0313BB97
:10292000134A1448D160012111701349137653766C
:10293000936051F8234084420ED1536001200F4927
:1029400000F03AFDFFF7ACFD012010BD4FF08052C2
:10295000516913694B43D8E701330A2BE9D1784613
:10296000FDF7A8FFEAE70020EFE700BF14400020D2
:10297000F43F0020C128030088CB03006D2503002D
:1029800010B5044610B97846FDF794FF094B187846
:1029900060B1E068D9684379A0EB0333994206D36C
:1029A000FFF765FD81428CBF0020012010BD002093
:1029B000FCE700BFF43F0020024B1878003018BF3E
:1029C00001207047F43F002038B50E4C23780546AF
:1029D00013B17846FDF76EFF2B78032B02D07846B3
:1029E000FDF768FFEB68E360012000230649A5605E
:1029F000636023762070637600F0DEFCBDE838402B
:102A0000FFF74EBDF43F00206D250300014B186811
:102A1000704700BF1440002010B5044610B9784636
:102A2000FDF748FF63681BB123680BB1A36813B9B6
:102A30007846FDF73FFFA3685A1E1A4202D0784637
:102A4000FDF738FF0023C4E9033310BD70B50E460F
:102A50000446F0B18368F3B1EFF3108572B6D0E9A4
:102A60000331994203D105B962B605250FE04EB195
:102A70008368013B0B40D0E90012304602FB031192
:102A800008F025FF23690133236135B962B6284672
:102A900070BD0E25FBE70925F9E70025F7E70000E3
:102AA000024AD2F80034002BFBD0704700E001400E
:102AB000C0F30B0310B5E3B9E9B1104C0223C4F81D
:102AC0000435FFF7EDFF01F6FF7121F47F6121F07E
:102AD0000F010144884205D10020C4F80405FFF726
:102AE000DFFF10BDC4F80805FFF7DAFF00F58050DE
:102AF000F0E71020F5E70920F3E700BF00E0014010
:102B000070B540EA010414F003041BD1E2B195074B
:102B10001AD10E4E0123C6F804359508FFF7C0FF01
:102B2000AC4205D10020C6F80405FFF7B9FF70BD1F
:102B300051F824305A1C03D040F82430FFF7B0FF7E
:102B40000134EDE71020F2E70920F0E700E0014052
:102B50004388012B05D0022B01D1043008600120ED
:102B6000704704304860FAE708B508220221094896
:102B700003F079FA20B90848BDE8084003F0F0BB3B
:102B8000064A91684160127B0272BDE8084003F07A
:102B900099BA00BF24400020282E00207040002059
:102BA00010B5044610B97846FDF784FE2346BDE80B
:102BB0001040184700B50A4B1A7B9B688DB0012A5C
:102BC00008BF03F1FF3303900CA80493022300F81D
:102BD0002C3D8DF80820FFF743FA0DB05DF804FB9B
:102BE0007040002038B50E4D2B78C3B90D4B5C6892
:102BF00004F50054B4F1807F11D8042201210A4861
:102C000003F031FA20B90948BDE8384003F0A8BB09
:102C1000012344602B70BDE8384003F053BA38BD3F
:102C2000844000207040002024400020182E002006
:102C300010B501210C4803F05BFA80B902210A4863
:102C400003F056FA044650B901461422074808F02A
:102C500049FE074B1C70BDE81040FFF7C3BF054895
:102C600003F07EFBF7E700BF244000207040002007
:102C700048400020482E002030B50D468DB07AB96E
:102C80004B88012B0AD1124C227812B97846FDF7F5
:102C900011FE104B6A685A60002323700DB030BDDE
:102CA000032A02D07846FDF705FE2C22002101A858
:102CB00008F018FE11238DF80430074B0395DA68ED
:102CC0001B69059201A80693FFF7CAF9E6E700BF62
:102CD00084400020704000202440002013B501F003
:102CE0000BFD00216B46124A1248134CCDE900112E
:102CF00003F00CF9009B0BB1019A6AB90023236021
:102D0000A3602373FFF730FF23686360FFF76AFF58
:102D100001F032FD02B010BD1968A160197921736C
:102D2000934203D91B790BB92360EDE71368FBE7E6
:102D3000512B0300244000207040002008B503F010
:102D40005DFBA0F5805008BD7FB5002118226846C4
:102D500008F0C8FD00230293FFF7F0FF0123009065
:102D600001936946054B0648039303F0E9F910B156
:102D7000044803F0F5FA07B05DF804FB792C030072
:102D800024400020382E002008B5142200210A48D3
:102D900008F0A8FD01F006F8084B094A09499A60B5
:102DA00000225860C3E903125A61074B1A70BDE84C
:102DB0000840FFF7C9BF00BF704000204C40002012
:102DC000B92E0300008793038540002010B5074CFF
:102DD00023784BB90648074B036000F08BFD06488B
:102DE00000F07EFF0123237010BD00BF20400020B3
:102DF000644000201D2F03004C40002010B501F05E
:102E00007BFC104A117B1346C9B9917BB9B9118A71
:102E100041F28262914202D80B4A12787AB10122C1
:102E20001A739A68002401321C829A60FFF79CFE94
:102E30002046FFF7BFFE01F09FFC204610BD08248E
:102E4000F9E700BF704000208540002010B501F078
:102E500053FC174A547B1346BCB1917B21BB118AAA
:102E600041F28262914202D8124A1278F2B11A7B80
:102E7000002058732AB1012A0BD07846FDF71AFDBD
:102E800003E0FFF7BBFF0028F7D101F075FC2046F7
:102E900010BDC3E9000018731882FFF78BFEFFF71F
:102EA00063FEFFF79FFEF0E70024EEE71446ECE731
:102EB000704000208540002010B5164C237B2BB1BC
:102EC000012B12D07846FDF7F5FC18E0228A41F27A
:102ED00082639A4202D8104B1B7883B1FFF7B6FF8A
:102EE000638A0BB1013B638210BD228A41F2826189
:102EF0008A4208D8084B1B780BB1FFF7A7FF238A3B
:102F000001332382ECE742F2B0118A42F5D96373B0
:102F1000E4E700BF704000208540002010B5037832
:102F2000042B0ED143681B785BB11D4B4269197BA2
:102F3000047E71BB598A01BB012C996802D08A4278
:102F400003D810BD4C1CA24219D92A318A42F8D8A4
:102F5000997B0029F5D184689A60124A1A61C3E905
:102F6000001159731973FFF7FFFDFFF73BFE04F1E2
:102F70001000BDE81040FFF71DBE012CE1D199689B
:102F800001318A42DDD101225A73BDE81040FFF7BA
:102F90005DBF0129D5D1012CD3D09968F1E700BFDD
:102FA000704000200000062D38B5164CD4E90023EF
:102FB0009A4205461FD2207B134B1449012808BFB3
:102FC0000B469A4207D263682268403B9A4208D374
:102FD000FFF708FE05E001236373FFF737FF0028C2
:102FE000F1D0EFF3108072B623685A1C22602B6078
:102FF00028B962B638BDFFF7F5FD0F20FAE70020CB
:10300000F8E700BF70400020FFFF7F0000E0FF00F6
:1030100010B50C4A1368144628B101200A4903442C
:103020008873136010BD13B97846FDF743FC23681D
:10303000013B2360002BF5D1034A9373BDE8104098
:10304000FFF704BF1C4000207040002000B58DB089
:103050000323ADF808000CA88DF8102000F82C3DD3
:103060000391FEF7FDFF0DB05DF804FB014B98687E
:10307000704700BF70400020034B98681B7B012BFA
:1030800008BF00F1FF30704770400020044B9B6880
:103090005840C20748BF03F1FF331846704700BFCE
:1030A00070400020014B187B704700BF704000202B
:1030B00038B50A4B1C787CB9094D01221A70297366
:1030C000A860FFF751FD2046FFF774FDC5E90044F5
:1030D000FFF788FD204638BD0820FCE74840002067
:1030E000704000202DE9F8431D4CDFF87890002651
:1030F0000221204602F03CFA5FFA86F805460027D6
:10310000ADB967B12946204602F099FA082806D1E0
:1031100054F8043C1BB12A464946404698470136BC
:10312000032E04F1BC04E3D10120BDE8F88354F878
:10313000043C34F80C2C13B129464046984734F827
:103140000C3C02210133204624F80C3C02F02CFAFE
:103150000221204602F00CFA01370546D0E700BFF5
:103160009C400020B0CB030038B5012104460C3050
:1031700002F0FEF9054620B3164BC4F89C3000233C
:10318000C4F8A03003786268012B07D0022B1AD054
:103190007846FDF78FFB4FF4FA7306E081688B1ACF
:1031A000990829234B4303F5FA730B4A934294BFC2
:1031B000C4F8A830C4F8A8200123C4F8AC4084F8AF
:1031C000B830284638BD83689B1A1A0B034B53430B
:1031D000E9E700BF0132030060850100084C0100EF
:1031E00010B50446FFF7C0FF48B104F19C0005F09C
:1031F0007DFD20B17846BDE81040FDF75BBB10BDFA
:103200002DE9F74F4A4B1B7880460D463BB105F040
:10321000A3FD002385F8B83003B0BDE8F08F01F1BD
:103220000C09D1F8A8704846012102F0A1F9064620
:1032300010B97846FDF73EFBDFF8FCA0A7F5FA775A
:1032400000244FF0290B3378012BA7EB040406D0A0
:10325000022B3BD07846FDF72DFB00231FE06B6867
:10326000B268B4FBFBF4D21AA400944228BF1446FF
:1032700024B901937846FDF71DFB019BF168706846
:1032800023F00303224619441844FFF739FC10B118
:103290007846FDF70FFB6B681C446C60B3686A6886
:1032A0009A422AD105F058FD4846012102F07CF9E6
:1032B00000236B6085F8B8301E4B186801F0AAFA3D
:1032C000284603B0BDE8F04FFFF78ABF6B68B268CD
:1032D000B4FBFAF4D21A2403944228BF144624B94A
:1032E00001937846FDF7E6FA019B706823F003032B
:1032F00021461844FFF7DCFBC9E701F0F1F8337809
:10330000B0EB080448BFA8EB0004012B0DD0022B42
:1033100006D153462344BB4295D905F01DFDCFE7A6
:103320007846FDF7C7FA0023F4E72923F2E700BF48
:103330008C40002088400020084C010070B51B48DC
:103340001B4C01F049FA1B4B186004F11C0341F2BD
:1033500003060825636104F10C0004F118032361DE
:10336000A681A57302F047F904F1D803C4F8D03060
:1033700004F1C80004F1D403C4F8CC30A4F8C86048
:1033800084F8CA5002F037F904F5CA73C4F88C31D6
:1033900004F5C873A4F8846184F88651C4F88831B0
:1033A00004F5C270BDE8704002F025B9E5300300B5
:1033B0009040002088400020022838B504460D4681
:1033C00002D97846FDF776FA024BBC2202FB0434A0
:1033D000A56038BD9040002002282DE9F84F07462F
:1033E0000C46924602D97846FDF764FA14B978463D
:1033F000FDF760FA2378012B12D16368990702D098
:103400007846FDF757FAE3689A0702D07846FDF749
:1034100051FAA3689B0711D07846FDF74BFA0DE0EF
:10342000022B0DD16368C3F30B0313B17846FDF78C
:1034300041FAA368C3F30B03002BEDD1A36813B9C2
:103440007846FDF737FAEFF3108872B6BC257D4356
:10345000224E05F10C09B1440021484602F088F8DB
:10346000834690B30021484602F09EF81022214680
:10347000584608F02CFABAF1000F03D073195B8894
:10348000AAF80030BC2303FB07677B8897F8B84095
:1034900001337B8004BB124B1F78BFB97019FFF753
:1034A00063FEB8F1000F0ED162B6444640B105F19B
:1034B0009C00304405F01AFC10B17846FDF7FAF98B
:1034C0002046BDE8F88F3C46F0E70424B8F1000F31
:1034D000F6D1A0460020E7E70024F7E7904000205F
:1034E0008C40002070B50A4D0024EFF3108672B6B0
:1034F0000021281902F0A3F806B962B6082805D100
:10350000BC34B4F50D7FF0D1002070BD0120FCE784
:103510009C40002070B5EFF3108672B6144C2368FF
:1035200018BB13B97846FDF7C5F92368013B236042
:1035300093B9104D95F8B83013B92846FFF750FEEF
:1035400095F8743113B90C48FFF74AFE95F83032FC
:1035500013B90A48FFF744FE2368094A003318BF2D
:103560000123137006B962B670BD01332360F3E71F
:10357000C4420020904000204C410020084200201E
:103580008C40002010B1800B014B185C704700BFCD
:10359000C0CB030012DF704713B5137863B1022B61
:1035A0000CBF0723002310F8011C292962D005D87D
:1035B000162973D002B010BD537DF4E72A2927D015
:1035C0002B29F7D1022BF5D110F8021C0139C9B211
:1035D00003F03EF904460028ECD0374B1B685B062D
:1035E000E8D5364B1B68012BE4DD2F21344808F069
:1035F00049FA002849D02F21314808F043FA411CEC
:10360000304B314AD3F8043500920194A62224E0CD
:10361000022B01D0072BCDD110F8021C013901F08B
:1036200059FC04460028C5D0234B1B685A06C1D557
:10363000224B1B68012BBDDD2F21214808F022FA07
:1036400078B12F211E4808F01DFA411C1D4B1F4A5E
:10365000D3F80435009201949322022002F016F967
:10366000A8E75C21164808F00DFA08B15C21E9E7EB
:103670001349EBE7022B9DD110F8021C0139C9B2A6
:1036800002B0BDE81040FBF7FDBB5C210C4808F020
:10369000F9F908B15C21AFE70949B1E701884FF6B4
:1036A000E463994286D110F8021C0230033902B05B
:1036B000BDE81040FCF708BF682E0020642E0020F3
:1036C000E9CB0300001001402ECC030005CC030021
:1036D00070B58AB005F0FAFF0446002834D0002304
:1036E0008DF8103006460FCE05AD0FC533682B6040
:1036F000627D052A0CD9207D00F00F03072B07D02F
:1037000004AB063A04F11D0100F00F0004F0A8FE1E
:10371000114B1A68AAB104AB0393237DC3F30303CF
:103720008DF80430637D062B89BF063B00238DF89E
:10373000053004F11D0398BF8DF80530029301A8F0
:103740009047204605F0ACFF05F0DAFF80F001005D
:10375000C0B20AB070BD00BFCC420020F7B5354FF3
:103760003A780546002A5BD100285BD0067A0F2EF6
:1037700001D0062E58D104F03FFEE86800284CD056
:10378000FDF7A6F90DF10700FFF704FF0446002836
:1037900040D19DF80730012B48D1FDF7C3F900F067
:1037A00089FA304600F05AFFE87800F00FF900F08F
:1037B0009BFD05F055FA204806F03AF804F0C8FFE2
:1037C000FFF7BCFD03F0EEFF00F036FC04F0D4FD83
:1037D00004F0F4FB284601F0D3FAFDF7E9FF03F00B
:1037E000ABFBFCF79FFC08B1062821D1134804F07D
:1037F00009FE2A2004F0AAFE2B2004F0A7FE2920AF
:1038000004F0A4FE162004F0A1FE0D4B00221A6065
:1038100001233B70204603B0F0BDFDF761F9B1E72D
:103820000824F7E70E24F5E70724F3E70224F1E77D
:103830000446EFE7C8420020D1360300582E00208E
:10384000CC42002037B5244D2A78012A05D002D376
:10385000033A012A38D9082428E005F003FF01F0D3
:10386000A1FAFDF7E7FFFCF71FFE044650B3062858
:1038700028D01A4B1B685B0418D5194B1B68012B09
:1038800014DD2F21174808F0FDF890B12F211548BD
:1038900008F0F8F8411C144B144AD3F80435009290
:1038A000019440F2A712022001F0F0FF204603B07D
:1038B00030BD5C210B4808F0E5F808B15C21E6E773
:1038C0000849E8E700F0F6FE05F002FA0446002891
:1038D000ECD102232B70E9E7C8420020682E0020BB
:1038E000642E0020E9CB030000100140C4CB03008C
:1038F000FDF7A2BFFEF7DEBB08B500F0C5FC002057
:1039000008BD7047044B1A680132B2F1704F08BF0E
:1039100001221A6018687047D042002010B5044692
:1039200010B97846FCF7C6FF0023C4E9003310BD88
:1039300038B50D46044610B97846FCF7BBFF15B9FB
:103940007846FCF7B7FF00236B60EFF3108372B685
:10395000226822B92560656003B962B638BD626825
:103960005560F8E710B5044610B97846FCF7A2FF99
:10397000EFF3108272B6206808B1436823602368B1
:1039800003B9636002B962B610BD10B5044610B940
:103990007846FCF78FFF206810BD35DF70470000C8
:1039A00008B54FF0FF30FFF7F8FFBFF34F8F054921
:1039B000054BCA6802F4E0621343CB60BFF34F8F3C
:1039C00000BFFDE700ED00E00400FA0507289ABFFC
:1039D000024B33F81000FA20704700BF5ACC0300A6
:1039E000024B5868103840B2704700BF00ED00E04D
:1039F000084A202390FBF3F352F82330424202F0AE
:103A00001F0200F01F0058BF504223FA00F000F0E0
:103A10000100704700E100E046DF704730B501F17A
:103A200010031032103013F8014D12F8015D8B4273
:103A300084EA050400F8014DF5D130BD2DE9F047C9
:103A4000144690B002F10F05102288462D11014650
:103A50000DEB0200994604F00F0407F038FF002D2B
:103A600051D0002C4FD10126B2461022002108A8C7
:103A700007F038FF04A8FFF7CFFF01220DF13F0147
:103A800010AB13F9100D1F4693F800C04FEA4C0C11
:103A90005FFA8CFC83F800C013F801EF4CEADE1CDF
:103AA000994203F801CCEFD19DF83F305B00DBB2C7
:103AB0000028B8BF83F087038DF83F30531C9A4528
:103AC0004FF00202DCD2013D08EB0511FEB10CAA59
:103AD0006846FFF7A3FF102200210CA807F002FFA1
:103AE0000024AC4225DB3A46694608A8FFF796FF5A
:103AF00004A8FFF791FF10223946484607F0E7FE79
:103B000010B0BDE8F08700264FF0020AADE722466C
:103B1000684607F0DCFE10AB2344802203F8402CFB
:103B20000134102C02D10CAA6946D1E70DF80460CB
:103B3000F6E708EB0412394608A8FFF76FFF04A860
:103B4000FFF76AFF0134CCE738B5124B1A68044618
:103B50002AB11A6845685268AA1A002A0DDA1A684A
:103B600062611C609A88013292B29A8012B97846DA
:103B7000FCF7A0FE0123237038BD19684A691AB109
:103B80005068401B002802DB62614C61EAE7114685
:103B9000F4E700BFD842002010B5124B1A688242E9
:103BA00004461A460BD142691A609A8892B2511E95
:103BB00089B299808AB97846FCF77CFE0DE01B68D3
:103BC0005BB15969A1420BD16169596193889BB27C
:103BD000591E89B29180002BEDD00023237010BDB7
:103BE0000B46EDE7D8420020014B186800F012BEEA
:103BF000D4420020044B1A6822B11B68034958685C
:103C000000F05AB900F0AEB9D8420020E93B0300F9
:103C10002DE9F04100F0C6F8254E054637464FF035
:103C20000008336823B133685B685B1B642B06D4E0
:103C300000F0B8F8FFF7DEFF0120BDE8F08134683E
:103C40002378012B02D07846FCF734FE63693B6091
:103C5000BB88C4F814809BB25A1E92B2BA8013B9C2
:103C60007846FCF727FEA36813B97846FCF722FED6
:103C70000223284623702169A368984700F092F830
:103C80002378022B0546CCD1E2680AB92270C8E736
:103C900063686FF06301891A1344091AD018C1428E
:103CA00004D463602046FFF74FFFBAE70346F5E709
:103CB000D842002008B508220021064807F012FE6D
:103CC000054800F089FD054B1860BDE8084000F08C
:103CD0005CB800BFD8420020113C0300D442002051
:103CE00010B5044600F06EFE10B97846FCF7E2FD10
:103CF00014B97846FCF7DEFDA36813B97846FCF7E3
:103D0000D9FD2378012B02D17846FCF7D3FD00239F
:103D100063612046FFF718FF00F044F8BDE810404B
:103D2000FFF768BF10B5044600F04CFE10B97846A6
:103D3000FCF7C0FD14B97846FCF7BCFD2046FFF740
:103D40002BFF0023636100F02DF8BDE81040FFF762
:103D500051BF38B504460D4600F034FE10B9784620
:103D6000FCF7A8FD14B97846FCF7A4FD2046FFF740
:103D700013FF0023636120466560FFF7E5FE00F056
:103D800011F8BDE83840FFF735BF08B506F016F961
:103D900038B906F053F820B17846BDE80840FCF782
:103DA00089BD08BD10B5EFF3108072B60C4A0D4BFB
:103DB0001968D2F80435D2F80441012C04BFD2F8B6
:103DC0000435013100B962B6074843EA01614FF496
:103DD00080420023E0FB0123D00B40EA434010BDAA
:103DE00000100140E042002040420F0010B50A4B95
:103DF0000A4C4FF40032C3F84823C3F80823226862
:103E000012B97846FCF756FD2468FFF7CBFF23462E
:103E1000BDE81040184700BF00100140EC420020F0
:103E200010B5EFF3108072B61E4B1F490022C3F885
:103E300004210A6801320A6000B962B61B4A11689F
:103E400009B31168013911601268E2B9184AD3F850
:103E500004051168884217D2EFF3108072B6D3F8C8
:103E6000041514680131A1422ABFD3F80425126851
:103E70000232C3F8442500B962B64FF40032C3F8E9
:103E80004423C3F8042310BD0A4C226812B97846B3
:103E9000FCF710FD2468FFF785FF2346BDE81040BE
:103EA000184700BF00100140E0420020E44200201B
:103EB000E8420020EC42002037B50023044601937D
:103EC0000D4611B97846FCF7F5FC204B1D60FFF755
:103ED00069FF031B002BB8BF241A1D481D4AA8BF49
:103EE00000244FF4004500210023E5FB040107F006
:103EF00017FBEFF31083019372B6174A174CD2F8F1
:103F000004350228C3F1FF1101F57F4138BF0220BB
:103F10008142134910D30344C2F844354FF40033AF
:103F2000C2F84433C2F80433002323600B60019BC2
:103F300003B962B603B030BD03F17F4301330344DC
:103F40001A0E0132226023F07F43EFE7EC4200209B
:103F500020A1070040420F0000100140E442002071
:103F6000E8420020074B4FF40032C3F84823C3F85F
:103F70000823054A00231360044A1360044A1360AF
:103F8000704700BF00100140E4420020E8420020DA
:103F9000EC42002030DF704731DF704710B5D0E9C8
:103FA00000238468C168A2EB731283EAF4330360D0
:103FB0000C441344114444608160C360184610BD32
:103FC00037B50C46054610B97846FCF773FC00235C
:103FD0009C4201D803B030BD0DF10700FFF7DAFFB6
:103FE0009DF807100029F7D0E21A914288BF8DF89A
:103FF0000720E8189DF80710FFF7CEFF9DF807206F
:104000001344E5E737B5044602A8002340F8043D11
:104010000421FFF7D5FF074B2360019BE360C4E950
:10402000013314252046FFF7B9FF013DFAD103B053
:1040300030BD00BFED5EEAF1704748DF704749DFF1
:1040400070474ADF70470000064A03231374116863
:10405000054B536140F6D862914288BF43F2B0628B
:104060009A6070471C4300203C430020054B1B68AE
:10407000A0F1780228335843034BB0FBF3F0101A39
:10408000704700BF3843002040420F0038B50E4A49
:104090000E4C0123637113680025013313602574EE
:1040A00000F078FA04F0CEFE2068FFF7DFFF084A40
:1040B0000146284600F0E2F920B17846BDE83840D4
:1040C000FCF7F8BB38BD00BF504300201C43002064
:1040D0004940030010B41F4B5A6928B11968DC68C5
:1040E00011440134DC601960996801240131E24017
:1040F00001291C7499605A611C680ED002291AD0DB
:104100005B69154A1C44944203D840F6D762934237
:104110001CD85DF8044BFFF7B9BFB2F5FA7F03D1A5
:1041200030B900225A61EBE740F6D8618A42E7D8FD
:1041300040F6D862F6E7DA68022A02D1064A121B74
:10414000F0E7012ADCD10028EBD0D9E75DF8044B79
:10415000704700BF1C4300208096980070B5424C09
:10416000424D012323712B781BB1414B1E78002E49
:104170005BD000232374042853D8DFE800F0034DFC
:104180004A4844003B4DA179AA68C4E90233236838
:104190002260002934D0012121743749002B08BF47
:1041A0000B46991AB1F57A7F26D39A4224D86161D9
:1041B00043F2B06043F69822C5E9020201236B7115
:1041C000A371237C023B012B0DD8637943B104F02A
:1041D00055FE2068FFF74AFF00F00EFA00236371D6
:1041E000234B00221A70237C2448022B04BF012396
:1041F00023760023237170BD4FF47A736361D7E790
:10420000FFF744FFD4E70120FFF764FFD9E7002060
:10421000FAE704F0C5FDD4E700F082F904F0F8FDF8
:10422000CFE77846FCF746FBCBE700F059F92B784F
:104230002060022B0FD0032B06D0012B10D10223BC
:10424000237400232B70BCE70A4B0D490D4A5E71A5
:10425000C3E90212A67103232374064B6361F0E7DE
:104260007846FCF727FBECE71C4300204D43002079
:104270004C4300203C430020809698002C430020B3
:10428000A0860100FF1FA107043808B5042825D81F
:10429000DFE800F016220A030F00114B1B7E012BF2
:1042A0001CD1FFF7CCFEC8B17846BDE80840FCF74A
:1042B00001BB0B4B00221A76BDE8084004F016BE85
:1042C00008480123437143F6982240F6D863C0E9B9
:1042D0000232FFF7B6FEE6E70248FAE708BD00BF84
:1042E0001C4300203C4300200D4A4FF48071002302
:1042F000918043F2B06C43F698211370C2E902C179
:10430000084A1060084A1370084A1370084A13607C
:10431000084A137153711360137601239371704728
:104320003C430020384300204C4300204D430020F4
:10433000504300201C43002010B50E4C227E012A61
:104340000CD004D3022A0CBF1120002010BD0A4853
:10435000FFF773FE10B17846FCF7ACFA0748FFF799
:1043600070FE10B17846FCF7A5FA022323760020F0
:10437000ECE700BF1C4300205D4103003C430020EC
:10438000074B1B7C023B012B07D9064B18780138E1
:1043900002288CBF0020012070470120704700BF19
:1043A0001C4300204D430020014B1868704700BF9C
:1043B0001C43002010B5074B587948B11868FFF727
:1043C00055FE044600F08CF80346201A48BF181B1F
:1043D00010BD00BF1C430020014B1879704700BF7F
:1043E0001C430020EFF3108372B6054A527922B1C4
:1043F000044A4FF48071C2F8001103B962B67047E5
:104400001C43002000E100E0044B1B7E022B04D182
:10441000034B01221A70FFF7E5BF70471C430020D1
:104420004D430020064B1B7E022B07D10128054B74
:104430000CBF032202221A70FFF7D4BF704700BFDF
:104440001C4300204D430020064B19781A4631B119
:1044500028B90549097811B11870FFF7C3BF10706A
:10446000704700BF4C4300204D430020024B1B68A7
:1044700003B962B6704700BF64430020022810B53C
:1044800022D8EFF31084114B1C6072B6104B43F826
:104490002020104B002243F820200F4B1B787BB1CB
:1044A000830003F1804303F500431030C3F840213B
:1044B000012202FA00F0094AC2F80403C3F84015C9
:1044C000FFF7D4FF002010BD0720FCE76443002065
:1044D00054430020704300206043002000800040CF
:1044E00008B5EFF310820A4B1A6072B6094B1B78BD
:1044F00053B1094B0022C3F84C210122DA64D3F8EE
:104500004C05FFF7B3FF08BD044B1868F9E700BF7F
:104510006443002060430020008000406843002086
:104520002DE9F84FDFF85880DFF858900024A700F5
:1045300007F1804505F50045D5F84031D3B1D8F8ED
:10454000043304F1100201269640334212D057F88A
:1045500009B0BBF1000F02D17846FCF7ABF94FF080
:10456000000A49F807A0C8F80863FFF7B9FFD84761
:10457000C5F840A10134032CD9D1BDE8F88F00BFA4
:104580000080004054430020014B1B6818447047D2
:104590006C43002008B5134B0022C3F84025C3F834
:1045A0004021D3F84011C3F84425C3F84421D3F87F
:1045B0004411C3F84825C3F84821D3F848310A4BC1
:1045C0001B681BB9094B4FF480721A60084B01221B
:1045D0001A70FFF7E7FB0146FFF782FF054B081A49
:1045E000186008BD008000406443002000E100E046
:1045F000604300206C4300200B4A0C4900231360E9
:10460000536093600A4A0B6010600A4A4B60137053
:104610008B60094B4FF0FF32C3F80823074B4FF470
:104620008072C3F8802170477043002054430020FB
:1046300068430020604300200080004000E100E06B
:10464000044B1B780F2B1EBF034B4FF48022C3F883
:1046500000217047C444002000E100E010B5104C78
:10466000104B2070104803601023C0E90133FEF79F
:10467000D3F90E48FFF752F923780F2B0AD0072BF6
:1046800009D8EC221A41D20705D55B01084ADBB2F2
:1046900082F8123310BD7846BDE81040FCF70AB925
:1046A000C4440020904300207C430020C8440020E4
:1046B00000E100E00D4B1B780F2B0DD00C4991F859
:1046C00012335A09EC231341DB0706D5094B9A68CC
:1046D00032B94FF480230B6070477846FCF7EAB894
:1046E0001A6842F480221A60704700BFC444002058
:1046F00000E100E0B0540020F8B5EFF3108772B687
:1047000017480268511C016002BB164B1B780F2B27
:1047100021D0EFF3108C72B6134A144C9568012324
:10472000E5B99360124B134ED3F8801031401160FD
:10473000C3F88060D3F8841051604FF0FF32C3F8A3
:1047400084202570BCF1000F00D162B6036813B954
:104750007846FCF7AFF807B962B6F8BD2370F1E709
:1047600090440020C4440020B0540020C5440020E0
:1047700000E100E0FC06FFBD38B5EFF3108572B62E
:10478000104C236813B97846FCF794F82368013B72
:104790002360A3B90C4B1B780F2B10D00B4B9A68DE
:1047A0006AB10B4A127852B9EFF3108072B6094918
:1047B0001C680C605C684C609A6000B962B605B910
:1047C00062B638BD90440020C4440020B05400209C
:1047D000C544002000E100E038B5054610B9784630
:1047E000FCF768F8094C2368092B02D97846FCF7D6
:1047F00061F8EFF3108372B62068421C2260044A0D
:1048000042F8205003B962B638BD00BF944400207E
:104810009844002010B50E4B1B688342044602D812
:104820007846FCF747F8EFF3108072B6094A610941
:10483000012304F01F0403FA04F452F82130234347
:1048400042F82130FFF7FCFE00B962B610BD00BF90
:1048500094440020C044002070B50D46164604461E
:1048600010B97846FCF726F815B97846FCF722F817
:10487000EFF3108372B60022C4E90256227424605A
:1048800003B962B670BD000070B5044610B9784631
:10489000FCF710F8A36813B97846FCF70BF8EFF3B0
:1048A000108672B6237C03F0FF055BB9012306482E
:1048B00023742146FFF73CF8FFF7C2FE284606B9ED
:1048C00062B670BD1120FAE7C844002010B5044656
:1048D00010B97846FBF7EEFF207C10BD2DE9FF47AD
:1048E000314E337813B17846FBF7E4FF0125DFF84A
:1048F000C8802E4FDFF8C49035700024D8F80030FF
:10490000A34212D82A48DFF8A880FFF72BF8002727
:1049100050BB284C69462046FEF798F890B3002318
:104920002846337004B0BDE8F087610904F01F0227
:104930000123934057F82120134213D0EFF3108046
:1049400072B657F8212022EA030347F8213000B954
:1049500062B659F824309847824618B92046FFF7C6
:1049600059FF55460134C9E70468237C13B97846DA
:10497000FBF7A0FFD4E90230984727744046FEF7C2
:10498000F1FFC5E79DF8003043B1012BC2D1019B77
:10499000002BBFD0DDE902019847BBE7019B002B4C
:1049A000B8D002989847B5E7D0440020C044002012
:1049B000C84400207C4300209444002098440020F8
:1049C000FFF78CBF07B5FFF70BF88DF803009DF8D4
:1049D00003301749F02B0DD10B780F2B25D0122067
:1049E000FFF706F880F00100C0B200F0010003B04C
:1049F0005DF804FB9DF803305BB2002BADBF03F103
:104A0000604303F00F030B4A03F56143B4BFD35C6B
:104A100093F800335B090193019A0B78934204D019
:104A2000019A9342DBD30020DFE70120DDE700BFDE
:104A3000C444002014ED00E046DF704730B58DB06F
:104A40000D46144601461022684606F040FF10222B
:104A500029460DEB020006F03AFF6846FFF7ECFF2F
:104A6000102208A9204606F032FF0DB030BDFEF737
:104A7000E5BF01F085BD01F0ADBD30B4032956D8C6
:104A8000DFE801F00227275000241C70817A5A7851
:104A900061F306025A70C17AD2B261F3C7125A703A
:104AA000C1680D04C1F3074205F47F0501F47F419D
:104AB0002A430A43C2F307219A70120C1A71D97063
:104AC0000189DC710A0A42EA0122A3F805201C725E
:104AD00022E01970597801F0800162F3C711597012
:104AE000C1680C04C1F3074204F47F0401F47F4160
:104AF00022430A439A70C2F30721120C1A71D9702B
:104B000001890A0A42EA0122A3F8052041880A0A1B
:104B100042EA0122A3F80720026912BAC3F8092069
:104B200030BC7047032200241A705C70B8E77846E6
:104B300030BCFBF7BFBE7FB50E461546044600B13C
:104B400012B97846FBF7B6FE10220021684606F03F
:104B5000C9FE2B46324621466846FEF76FFF04B079
:104B600070BD2DE9FF410B9D884616461C46074641
:104B700010B10AB103B115B97846FBF79BFE6B463D
:104B8000424639463046FEF759FF2B469DF828200D
:104B900021466846FEF752FF04B0BDE8F0810000F0
:104BA000F0B50D468FB014461F46064608B101B158
:104BB00013B97846FBF77EFE1CB97846FBF77AFE00
:104BC00001E0102CF9D8254B1868009005AA68461A
:104BD0000421FFF7B0FF01AB314605A81022FEF714
:104BE0002DFF2246294605A806F071FE0EAB234490
:104BF000012203F8242C05ABA218194601A892B291
:104C0000FEF71CFF9DF823303E4603F07F0306F8B5
:104C1000013B2246294609A806F059FE04F1100579
:104C20000EAB1D441134A4B2022305F8243C2246E5
:104C3000334605A901A8FEF701FF3146102205A859
:104C400006F045FE032305F8243C224607F1110334
:104C500005A901A8FEF7F2FE0FB0F0BD6ACC030073
:104C600070B50D4688B0064600B111B97846FBF71D
:104C700021FE114C04212068019004AA0DEB0100D3
:104C8000FFF759FF04AB314618461022FEF7D6FE57
:104C9000234602A953F8040F02901B798DF80C30BB
:104CA00004AB18460522FEF7C9FE082206A92846CD
:104CB00006F00DFE08B070BD6ECC030070B50D4659
:104CC00086B0064600B111B97846FBF7F3FD0F4CEC
:104CD00054F8040B009002AA68460421FFF72BFF4A
:104CE00002AB314618461022FEF7A8FE206801905C
:104CF00002AB042218460DEB0201FEF79FFE9DF861
:104D0000173003F03F032B7006B070BD77CC030063
:104D100030B50268037CD17A87B000298DF8043061
:104D200083680CBF0421082109330B44CDE902320A
:104D3000436804930446C3680593694601A801F0DB
:104D400061FED0B1237C012B0ED02568FEF794F9CB
:104D5000286120680C30FEF727F9054620B101F0E4
:104D6000CDFE284607B030BD2168009800F08DFBCD
:104D7000009B093363610025F3E70425F1E7000098
:104D800008B5074B40B91860FDF7FEFFFDF7A6FF19
:104D9000BDE8084002F0EABA42681A60F4E700BFD2
:104DA000D444002008B5FEF711F8BDE8084002F031
:104DB0001BBB10B5044610B97846FBF77BFD236892
:104DC00013B97846FBF776FD23685B6913B978461B
:104DD000FBF770FD237C012B02D97846FBF76AFDB7
:104DE000E36813B97846FBF765FD2046BDE810403F
:104DF000FFF78EBF70B50446C6B010B97846FBF712
:104E000059FD636913B97846FBF754FD236813B95C
:104E10007846FBF74FFD23685B6913B97846FBF7CB
:104E200049FD606900F08EFB234B1B689B0706461B
:104E30002FD5224B1B68042B2BDD214B05AD1968A8
:104E40000023F25C100902F00F02085C05F8130061
:104E5000885C05EB430201331D2B5070F1D1002318
:104E60002F21184885F83A3006F00CFED8B12F21D2
:104E7000144806F007FE411C134B144AD3F80435BE
:104E80000192134A009202954FF49472052000F0AB
:104E9000FDFC00233246A168206800F0B7FA01F05B
:104EA00007FE46B070BD5C21064806F0EBFD08B178
:104EB0005C21DDE70349DFE7682E0020642E002037
:104EC0006C2E0020CACC030000100140E5CC03008A
:104ED00046BC03002DE9F0470F46D4B09146054685
:104EE000002800F0368100F02FFB0DF12C089A4EBF
:104EF000421B2946404606F0EAFC336899072AD54A
:104F0000964B1B68042B26DD954B802F384619687D
:104F100028BF8020002313AC834240F0B1800022E0
:104F20002F21904804F8132006F0ACFD002800F073
:104F3000B8802F218B4806F0A5FD411C8A4B8B4A77
:104F4000D3F8043501928A4A0092029440F24D123D
:104F5000052000F09BFC002305AC00932A46434645
:104F60003946204600F008FA8246002840F0C38007
:104F70002378002B00F0BF80E268B2F1807F80F0E0
:104F8000BA80E27A12B1022B00F0B58094F90A30AF
:104F9000002BC0F2B080336813F0020F13AD28D09D
:104FA0006E4B1B68042B24DD6D4B802F384619682F
:104FB00028BF8020002383427CD100222F21694812
:104FC00005F8132006F05EFD002800F085802F21F3
:104FD000644806F057FD411C634B664AD3F804351C
:104FE0000192634A009202954FF4AB72052000F0E3
:104FF0004DFC636913B97846FBF75CFC39462046E3
:1050000000F098FAC7B24B46224639460DF13500FA
:10501000FCF73EFDE16882462089FBF7B3FD294697
:105020002089F5F7DBFD002865D1012003F0D4F9D4
:10503000002860D0A37A012B5DD92378012B54D0AE
:105040004D4BA27A1B68002B59D1A37A2C60013BEF
:10505000A3724FF0FF336B60DF23EB602846012320
:10506000AF602B74FFF754FE00284ED13A460DF185
:105070003501686906F02BFC2846FFF7BBFE3AE0D5
:10508000EA5C4FEA121C02F00F0211F80CC004F89F
:1050900013C011F802C004EB4302013382F801C0CF
:1050A0003AE75C212F4806F0EDFC08B15C2141E7AE
:1050B0002C4943E718F803204FEA121C02F00F02B4
:1050C00011F80CC005F813C011F802C005EB43023B
:1050D000013382F801C06EE75C21224806F0D2FC61
:1050E00008B15C2174E71F4976E729466088F5F727
:1050F00075FD0028A4D0504654B0BDE8F087618803
:10510000208998470028A0D1F5E733689B07F2D59E
:10511000124B1B68012BEEDD2F21124806F0B2FC6A
:1051200070B12F210F4806F0ADFC411C0E4B134A05
:10513000D3F8043500920220A72200F0A7FBDAE79B
:105140005C21084806F09EFC08B15C21EAE70549AD
:10515000ECE74FF00E0ACEE7682E0020642E002008
:105160006C2E0020CACC0300001001407FCC03004D
:1051700046BC03008ECC0300D44400209DCC030029
:1051800008B510B1012801D1032008BD7846FBF70E
:1051900091FB0020F9E770B5064688B00D4614462D
:1051A0000021052204A806F09DFB336907221BBAE3
:1051B000A9180DF11900CDF8153006F088FB7069BB
:1051C0006A46113004A9FFF739FCAB1D0DF106004A
:1051D000E21D13F8011910F8014DAB4281EA0401F8
:1051E00002F8011DF5D108B070BD00002DE9F041B5
:1051F000D4B01E4600238DF81730ADF83C300E9326
:10520000D31D0C93F31D10935A9B43610F460DF170
:105210001808114632460446CDF82C80FFF7BBFF34
:105220007378DB09E372737803F07F03A372F3787A
:10523000B2781B0243EA024332791343E360737985
:10524000B07940EA03202081FEF79CF9012869D15A
:10525000E27A002AA7F1090314BF0822042293422C
:1052600060D3E1682089FBF76FFC0546002859D11F
:10527000E37A9DF86C01002B14BF08230423073F39
:105280008DF84830FF1A0C9BBFB2ADF834701F4444
:105290001197FFF775FF434601462A462046FFF760
:1052A000ECFB63690DF1170101330AA80A93FFF7BC
:1052B000E2FB9DF81730002B34D0F379307A40EAC6
:1052C00003206080FEF75EF9244B20701B689B076B
:1052D00028D5234B1B68032B24DDBDF83420214B3C
:1052E000109E1968802A28BF8022284613AC90425D
:1052F0001DD1002304F810302F211B4806F0C2FBFB
:1053000010B32F21184806F0BDFB411C174B184A5B
:10531000D3F804350192174A00920294DF22042048
:1053200000F0B4FA9DF8170054B0BDE8F081335C8A
:105330001D0903F00F034D5D04F81050CD5C04EB24
:10534000400301305D70D2E75C21074806F09AFB0C
:1053500008B15C21D6E70449D8E700BF682E0020D9
:10536000642E00206C2E0020ECCC030000100140C5
:105370000ACD030046BC03002DE9FF4789461546C8
:105380001F469DF830A0064618B112B10BB19A42E3
:1053900002D17846FBF78EFAA9F10903142B31D814
:1053A0002878C009FDF772FE00233061736195F81B
:1053B0000080CDE9023308F07F0803AA02A9404625
:1053C000F5F7F6FA029BB3B1CDE9003A2A463B461F
:1053D00049463046FFF70AFF044608B100200EE0B8
:1053E000039B43B1CDE9003A2A463B464946304645
:1053F000FFF7FCFE40B9029B002BDED1052004B074
:10540000BDE8F0870920FAE72046F8E7F0B50C463A
:105410008FB016461F46054610B97846FBF74AFA84
:1054200016B97846FBF746FA012F02D97846FBF702
:1054300041FA3846FFF7A4FE01AF3B460146002281
:105440002846FFF71AFBEB7A002B14BF082304232E
:105450008DF834306B69A11C0133CDE9053789B271
:10546000F31D0022ADF8201005A8194407930B93F3
:10547000ADF8282009920C91FFF7FBFA324631462D
:105480002846FFF788FE0FB0F0BD38B50D4604463C
:1054900010B97846FBF70EFA15B97846FBF70AFA09
:1054A0002889FEF76FF8012802D07846FBF702FA48
:1054B00095F90A30002B02DA7846FBF7FBF9EB6826
:1054C000B3F1807F02D37846FBF7F4F96B6913B927
:1054D0007846FBF7EFF92B6903F00102237803F01C
:1054E0007F0343EAC21323706A69127823F07F03B3
:1054F00002F07F02134323706378EA7A03F07F039C
:1055000043EAC213DBB26370AA7A23F07F0302F08E
:105510007F0213436370EB6823711A0CA2701A0A9E
:10552000E2702B89A3711A0A62716B8823721A0ABE
:10553000E27138BDC37A002B14BF0820042009395A
:10554000081A70470938704701307047436849B9F5
:10555000027880781A441B78C31A12F8010C184498
:10556000C0B270475A185B5C12F8010CC01AF7E71A
:1055700038B50D46044610B97846FBF79BF92378F9
:10558000AB4202D87846FBF795F929462046FFF74B
:10559000DDFF40B163686278585DA378013B184035
:1055A000A36802FB003038BD38B50C46054610B97B
:1055B0007846FBF77FF92B78A34202D87846FBF7B1
:1055C00079F921462846FFF7C1FF18B16A68135DD3
:1055D0000133135538BD10B5044610B97846FBF7B2
:1055E00069F90023194622789A4200D810BD6268F2
:1055F000D1540133F7E710B54378044613B9784620
:10560000FBF758F92378012B02D87846FBF752F9BB
:10561000A36813B97846FBF74DF9636813B9784668
:10562000FBF748F9A37813B15A1E1A4202D0784604
:10563000FBF740F92046BDE81040FFF7CCBF38B576
:105640000D46044610B97846FBF734F92378AB428F
:1056500002D87846FBF72EF929462046BDE83840A7
:10566000FFF774BF08B520B119B1FFF727FB002081
:1056700008BD0E20FCE713B50B4650B149B102A995
:10568000002401F8014D0122FFF78AFA204602B0FA
:1056900010BD0E20FBE7000030B50C468BB0054670
:1056A000E0B1D9B11031FFF7DBFA0D4B03930D4B8D
:1056B000186804909B88ADF8143006AA042103A84A
:1056C000FFF739FA062300932846019404AB06AA93
:1056D0001021FFF746FA00200BB030BD0E20FBE78B
:1056E0006E6B626B1DCD030030B50C4687B005466E
:1056F000F0B1E9B104210F4B01930DEB010002AAB7
:10570000FFF719FA02AB184610222946FFF7AFF946
:105710009DF816309DF817201B026FEA424203F4F1
:105720007C536FEA524213432380002007B030BD00
:105730000E20FBE77674616438B50D46044600B16F
:1057400011B97846FBF7B6F8AC421EBF23682B6050
:10575000256038BD38B50C46054600B111B978460C
:10576000FBF7A8F82B68A34202D17846FBF7A2F812
:10577000286840B92C60206038BDA54202D1784627
:10578000FBF798F828460568002DF6D12146BDE8BC
:105790003840FFF7D1BF38B505460C4601B110B906
:1057A0007846FBF787F82B6883B1A34205D12368BD
:1057B0002B600020206038BD13461A6822B1A24237
:1057C000FAD122681A60F4E7002CFAD00520F2E73B
:1057D000F8B50E461746044608B101B112B978462D
:1057E000FBF768F82368B34202D17846FBF762F80A
:1057F00025685DB9266028463560F8BD2C68A6424C
:1058000002D17846FBF756F83CB12546314628468A
:10581000B8470028F2D00F20EFE728463146FFF7BF
:105820008BFF2046E9E7000037B506AC184654F870
:10583000045B00920B4602460549002004F05AFF23
:1058400022462946002004F037FE03B030BD00BFD9
:1058500024CD0300034B1860034B1960034B1A60FF
:10586000704700BF682E0020642E0020702E00209C
:1058700010B4054C24681CB1A4465DF8044B604785
:105880005DF8044B704700BF702E002030B585B026
:1058900008AC54F8045B0394CDE90054FFF7E8FF2B
:1058A00005B030BD037942799B1A00EB0330704795
:1058B000431E9BB247F6FE62934208D849B14B881B
:1058C00058400B8818420CBF012000207047002070
:1058D000704701207047830770B504460E460546A1
:1058E00002D07846FAF7E6FF26F003063444A542D4
:1058F00001D1012070BD55F8043B0133F7D00020E1
:10590000F8E70000064B984210B5044603D303F5B0
:105910008273984202D97846FAF7CCFF201F10BD57
:10592000E44400201FB50124CDE9022101901A466C
:10593000694620468DF80040FDF74EFD04B010BDCD
:10594000F8B50C4D01460C48FCF743FD6E687EB17E
:1059500000272846FEF706F8044610B97846FAF7FD
:10596000A9FF23682760D3E902209047A642F0D11F
:10597000F8BD00BFEC450020D844002038B50388AE
:105980004A6803F18043013B9C001368033323F012
:105990000303A3420D4605D009238B606B681C608E
:1059A000002038BD00238B601268011D286805F0B7
:1059B0008EFFF3E713B502A9002482B241F8044D2B
:1059C0000448FCF722FC18B90198043002B010BD5D
:1059D0002046FBE7D844002008B5FFF793FFBDE859
:1059E0000840014602880148FCF760BCD84400200A
:1059F000014B1868FEF70EBFF445002010B5038870
:105A0000044613B97846FAF755FF2088074B04EB94
:105A1000800030EA030203D06288B2F5FE4F04D161
:105A20001C4004F580542078204410BD00F0FFFF96
:105A300070B50468237805461C4400214FF6FF76B4
:105A40002868FFF72FFF844202D26388B34201D156
:105A5000084670BD2046FFF7D1FF21460446EFE718
:105A60002DE9F04F934FDFF8708287B03E4698F8EB
:105A700000203B78022A14D1032BFDD8DFE813F075
:105A8000040039001100670106A9002341F8103D08
:105A90008948FCF73CFC014638B1884B1B6803B1D0
:105AA0009847012007B0BDE8F08F029C844B94F822
:105AB0000890221D1A60012399453370D7D8656874
:105AC000E868FFF7EFFE6B69C01AAB68C01AB9F15E
:105AD000000F01D1218A89008142C8DB6B68002B4D
:105AE000C5D003232B70606888F80030FCF76CFF8A
:105AF000BDE7734B1C682379042B00F2D380DFE8E9
:105B000013F005008A00AD00ED0017012368DD6881
:105B10002846FFF7C7FE2B78E2890146E81800F017
:105B20002FFF2568AB68824673B9D5F80C904846BC
:105B3000FFF7B8FE99F80030014647F6FF7209EB0F
:105B4000030000F01DFFA8602268A189D2F8089028
:105B5000DFF880B129F47F6525F00F0505F5805544
:105B6000A5EB090389008B4233D909EB01052146D6
:105B7000002331F80C2F48469200FFF7D3FE10B1F6
:105B80007846FAF797FE4F4B4F4904222846FFF715
:105B9000C9FE10B17846FAF78DFEBAF1000F10D0A9
:105BA0002268BAF80010536803EB81035360474939
:105BB000444B04225046FFF7B5FE10B17846FAF781
:105BC00079FE0023C4F808908BF80030022333706C
:105BD0004DE7D0680193FFF765FE8542019B04D134
:105BE00001238BF800300323F1E78B4202D12B789D
:105BF0001D44BCE70023042235494846FFF792FEC6
:105C000010B17846FAF756FE95F80090A944A58998
:105C100009EB8505ABE72368DD682846FFF742FE00
:105C20002B78E2890146E81800F0AAFE294D10B948
:105C300002232B70D7E72268A0600188536803EB2A
:105C40008103536021491F4B0422FFF76BFE60B3B1
:105C50007846FAF72FFE00232B70B7E72268637BA4
:105C6000D56805EB033508212846FFF734FE90B9C7
:105C700005F1FF3A04F1070904F10F0B1AF8013F8F
:105C800019F8012F9A4204D0FF2B02D07846FAF778
:105C900011FECB45F2D108220A4BA1182846FFF786
:105CA00041FE10B17846FAF705FE0A4B00221A7041
:105CB0008CE700BFE8450020D8440020F8450020CC
:105CC00000460020FE45002054CD03004CCD0300CB
:105CD00050CD030004460020FC45002020680C3015
:105CE000FFF7A6FE054610B97846FAF7E3FD6B8884
:105CF0004BB1554B554904222846FFF713FE10B10E
:105D00007846FAF7D7FD2846D4F80090FFF776FEDC
:105D1000C9F808002168C868FFF7C4FD8B68834292
:105D2000C3D22846FFF76AFE474B49490422B6E72B
:105D30002368D3E9032302211B038DF80810CDE962
:105D4000032302A9404A0120FDF746FBA9E7414C85
:105D5000236813B97846FAF7ADFD3F4B246893F8F2
:105D60000090B9F1000F21D12379D4F808A0012BBC
:105D700013D00AD3022B1CD023792568042B35D8E5
:105D8000DFE803F01F3B433451002146504631F811
:105D90000C2F920005F08CFD01E0BAF80200B0FA79
:105DA00080F040090028E7D14FF0030904F10C0A04
:105DB000E2E72368607BDB680822A11803EB003070
:105DC000E8E7B9F1000F0BD1A068FFF717FEA86054
:105DD000428847F6FF739A4202D07846FAF76AFD86
:105DE000AB691BB14A465146284698472046FFF703
:105DF00089FDFFF7A5FD0023E9E6EB69002BF5D04F
:105E00004A46E18928469847F0E72B78012B02D0D3
:105E10007846FAF74FFD237B627B013B9A42E5D13E
:105E200002232B70E2E7B9F1000F02D07846FAF7AF
:105E300041FD2B78012B1CBF00232B702B6A002BFC
:105E4000D4D028469847D1E7FE4500204CCD03002A
:105E500054CD03000046002004460020064B1B885A
:105E6000934207D1054B1A78022A03D103221A70F4
:105E7000FFF7F6BD704700BFFE450020E845002053
:105E800008B54FF482720F490F48FCF740F90F49EB
:105E90000120FDF791FA0E48FEF79EFC0D4B0E4ACD
:105EA0001860002313700D4A0D481380FDF736FD6E
:105EB000FCF720FD0B4B10B103221A7008BD022223
:105EC000FBE700BFE4440020D84400205D5E0300EF
:105ED000615A0300F4450020E8450020FE450020FB
:105EE000EC450020FC45002010B504460820FFF7D3
:105EF00061FD042340B1237003710460FFF76CFD62
:105F0000FFF776FD002010BD1846FCE72DE9F04FA5
:105F100087B0814603910192049310B97846FAF74D
:105F2000C9FC0120FDF7F6FAFCF770FD0024031D03
:105F3000054627464FF00108029347F6FE6BD9F855
:105F40001010A14202D9B8F1010F06D00020FDF7D0
:105F5000E1FA384607B0BDE8F08FD9F80C30286870
:105F600003EB0432904202F5805604F1010426D17D
:105F7000A14205F5805A20D0327816447188013943
:105F800089B2594535D900F5005230460592FFF7E0
:105F900035FD059A824210D986420ED241880139D8
:105FA00089B25945F2D82E79029B428851469819F8
:105FB00000F0E6FC002818BF8246029A5646137885
:105FC00002EB030AB245BADAB8F1010FB7D103996F
:105FD000BAF80200FFF76CFC30B1019B01371BB12E
:105FE00004995046984780465046FFF707FD824681
:105FF000E8E73046D7E700007FB5E8B1E2B1DBB1B2
:106000004C1EA4B247F6FE66B44217D80478023C90
:10601000012C15D8CDE901230523ADF80210039317
:106020004FF6FF7401AB074AADF800406946FFF731
:106030006DFF039804B070BD0E20FBE70720F9E761
:106040000820F7E77D59030070B50D46044610B9E6
:106050007846FAF72FFC0023294620461A46BDE869
:106060007040FFF753BF70B50E461446054610B991
:106070007846FAF71FFC731E9BB247F6FE62934206
:1060800006D947F6FF739E4202D07846FAF712FC13
:10609000802C02D97846FAF70DFC2B780BB900203A
:1060A00070BD04F11000FFF785FC0028F7D0033421
:1060B000A408002301340371C681848140F80C5B7D
:1060C000EEE70000094B984210B5044603D303F5F0
:1060D0008273984202D97846FAF7ECFBA4F10C00DF
:1060E000FFF77AFCBDE81040FFF782BCE4440020D3
:1060F00038B50C46054610B97846FAF7DBFB631E47
:106100009BB247F6FE62934206D947F6FF739C4264
:1061100002D07846FAF7CEFB1020FFF74BFC60B1B7
:10612000012202714FF6FF72C48182810560FFF780
:1061300053FCFFF75DFC002038BD0420FCE70000A5
:106140002DE9F843002303700B68C3F30B030446E7
:106150000D4613B17846FAF7ADFB6B68FE2B02D9FA
:106160007846FAF7A7FB04F10C07182229463846AF
:10617000002605F0ACFBC4E9016623699E4257D3B3
:106180002046FCF7FDFB064600287CD1E568284642
:10619000FFF788FB2B7880461D4447F6FF796B8814
:1061A000C3F30E024A4572D166602046FCF7E8FB55
:1061B00010B17846FAF77EFB3846FFF739FCA0604D
:1061C000002873D1E3681A7813444FF6FF72598898
:1061D000914200D1A360022323702046FCF7D0FB3C
:1061E00010B17846FAF766FBE5682B781D44A36882
:1061F0009D424AD22846FFF701FCA3689842064612
:1062000068D16A88531E9BB247F6FE618B423CD828
:10621000E36818782946184400F0B2FB002834D00F
:10622000A84232D041882046BDE8F843FFF760BF5E
:106230003503E3685A195B5D083BDBB2F62B15D8D2
:106240005379FF2B12D01279FF2A0FD09E4202D031
:106250007846FAF72FFBE3682B441A7923699A42B0
:1062600002D07846FAF726FB013686E701233B4F3A
:106270002370002523699D4231D3FFF7B9FBE36802
:106280000833A36001E003232370002018E013B952
:106290002B8806EB83062846FFF7B0FB80450546B2
:1062A0003FF67DAF7846FAF705FB78E7428847F678
:1062B000FF739A428FD00820FFF77CFB10B90420AF
:1062C000BDE8F883032202710460FFF785FBFFF746
:1062D0008FFB80E73046FFF791FB35468DE7E0689E
:1062E0002E03304440F6FC710430FFF7F4FA90B10D
:1062F0001020FFF75FFB0028E1D0022202718760C7
:106300004573226902734FF6FF72C2810460FFF782
:1063100063FB0135AEE7E3689A199B5D083BDBB28E
:10632000F62B05D85379FF2B02D01379FF2B02D11E
:106330007846FAF7BFFAE36833445B799D4202D0AE
:106340007846FAF7B7FAE3681E44236932799A422D
:10635000DFD07846FAF7AEFADBE700BF080410108A
:1063600010B5044610B97846FAF7A4FAA36813B931
:106370007846FAF79FFA236833B924602146034828
:10638000BDE81040FDF7D4BA10BD00BFEC450020B9
:1063900008B50648FCF757F820B1FCF70DFB80F074
:1063A0000100C0B200F0010008BD00BFD8440020C9
:1063B00038B5044698B1C5682846FFF773FA2B78BC
:1063C000014647F6FF72E81800F0DAFAA06010B94B
:1063D0007846FAF76FFA0223237000236360054BB7
:1063E0000549022201201A70FCF7E6FFBDE838409B
:1063F000FFF7FEBAFC4500205D5E0300FCF706BB1C
:1064000038B50546044C20B1236813B17846FAF735
:1064100051FA256038BD00BFF845002030B503B9FA
:1064200030BD013B9BB2CC5CD55C6C40C454F6E7FC
:1064300046DF70472DE9F8438589074688460124E1
:1064400001F120090DB9BDE8F88363BAA8F81E3040
:106450004046FFF7EDFF102D04F1FF3CB968B86925
:106460002E464FEA0C1C28BF102633464A4661448C
:106470006044AD1B0134FFF7D1FFADB2A4B2E1E738
:106480002DE9F04707460E461446994600F11005DF
:1064900000F120080CB9BDE8F087C9F1100A544595
:1064A00005EB090018DA2246314605F010FA04EB34
:1064B0000900C0F110020021284405F013FA00245D
:1064C00010232A4641462846FFF7A8FF3846FFF723
:1064D000AFFF4FF00009DDE7103C3146524619FA94
:1064E00084F405F0F4F9A4B25644E9E770B5838A60
:1064F000002B90F820300D46A3F102034FF002016B
:1065000093FBF1F34FEAC30303F03803164643F05D
:10651000010314BF40220022134304462B74416838
:106520000D2205F1110005F0D2F9A289130A43EA00
:106530000223EB832846FFF77BFFA38A83B1B3F5E1
:106540007F4F02D37846FAF7B5F9A28A130A43EAD5
:1065500002232B82A28A216902232846FFF790FF9B
:10656000A28922B10023A1682846FFF789FF94F889
:10657000202005F120013046BDE8704005F0A7B9A4
:1065800030B504468DB001681022684605F09FF9C9
:10659000E26969462046FFF7A9FFE56961680123C2
:1065A0000D220DF111008DF8103005F090F9002347
:1065B0006846ADF81E30FFF73BFF94F8203008AA7C
:1065C00029462846FFF72AFF69462046FFF732FF93
:1065D0000DB030BD70B590F82030102B90B004464F
:1065E0000D4602D97846FAF765F9102221680DEBBD
:1065F000020005F06CF9A3897BB1012361688DF875
:1066000020300D220DF1210005F061F9002304A9CD
:106610002046ADF82E30FFF70DFFA369A668A360F2
:106620006A4604A92046FFF761FF616801230D2235
:106630000DF121008DF8203005F049F9002304A860
:10664000ADF82E30FFF7F4FE94F820300CAA69461E
:106650006846FFF7E3FEA66094F82020E1696846EB
:1066600005F026F9B0FA80F04009287010B070BD2E
:1066700070B50B4C038825889D42064606D0013331
:106680009BB29D4202D07846FAF714F9308823680D
:10669000854238BF03F1FF331B0C1B04184470BD47
:1066A000084600202DE9F8430378022B0DD1FCF7B2
:1066B000DDFC114EDFF848800546002400F1FF396B
:1066C00033689C4203D30D4B1D60BDE8F88308EB93
:1066D000C407B81DFFF7CCFF85420BD0484509D051
:1066E0003368013B336008EBC30393E8030087E89A
:1066F0000300E5E70134E3E70C46002008460020EC
:106700001046002008B5FCF7B1FC014B186008BD2D
:10671000084600202DE9F8431A4D1B4E2B68884689
:1067200091460024A3420CD1282B29D0164A02EB13
:10673000C30142F8338001338880A1F806902B60B2
:1067400015E0E700F2199188814217D1901DFFF7FB
:106750008FFF81450ED156F83400804594BF00204C
:10676000012028B1374446F83480A7F8069000206D
:10677000BDE8F8838CBF01200020F2E70134D1E7A7
:106780000420F5E70C46002010460020F8B5114B18
:10679000114E0C46196817460025A94201D1002068
:1067A00011E006EBC5039A88824211D1981DFFF7CC
:1067B0005FFF874208D156F83500844294BF00201D
:1067C000012080F00100F8BD8CBF01200020F8E717
:1067D0000135E2E70C46002010460020034B044838
:1067E00000214FF4A072196005F07CB80C4600201F
:1067F0001046002008B50348FDF77CF8BDE80840C6
:10680000FFF7ECBF742E00202DE9F04188461646B4
:106810001F460446B0B1C2B1013B1B2B15D8FF295E
:1068200013D0BD1CEDB2691C01F0B2FF044648B1A3
:106830002B234574837480F813803A463146143014
:1068400005F045F82046BDE8F0810024FAE7000095
:10685000F0B50E46C7B01746054610B97846FAF7A8
:1068600029F8002E7AD02C78711EC9B2002C57D08E
:10687000012C5CD03A4C2268D20519D5394B1B68E3
:10688000012B15DD2F21384805F0FCF8002853D0E6
:106890002F21354805F0F6F8411C344B2A78D3F8FF
:1068A00004350192324A009202206D22FEF7EEFF7B
:1068B0002368DB0532D52B4B1B68032B2EDD2D4BBC
:1068C000802E196828BF8026002305AC15F8012FFB
:1068D000100902F00F02085C04F81300885C04EB56
:1068E000430201339E425070F0D100232F211E48F5
:1068F00004F8163005F0C6F838B32F211A4805F011
:10690000C1F8411C194B1C4AD3F8043501921B4AAB
:10691000009202946E220420FEF7B8FF0B2004E0E0
:106920003A46681CF7F73EFC002047B0F0BD3A46F7
:10693000681C00F08FFDF7E75C210B4805F0A2F81A
:1069400008B15C21A5E70849A7E75C21064805F0E6
:1069500099F808B15C21D1E70349D3E70920E4E7BE
:10696000682E0020642E002058CD03000010014046
:1069700072CD03006C2E002098CD030046BC0300AE
:1069800088422DE9F84307460E46904602D97846DC
:10699000F9F790FF3C46DFF85C901AE0238804EB9F
:1069A00083039E4221D9238813B97846F9F782FFE1
:1069B000238804EB830333EA090203D06288B2F52B
:1069C000FE4F01D12B782B449E420ED99F421C468C
:1069D0000BD26388434509D004EA090505F58055C3
:1069E000B542E0D3B3F5FE4FD8D100242046BDE830
:1069F000F88300BF00F0FFFF014B1860704700BF35
:106A0000544700202DE9F0410F46054610B978465D
:106A1000F9F750FF17B97846F9F74CFF2B78012B9F
:106A200002D97846F9F746FF1E4C236A13B178461F
:106A3000F9F740FF6B681D2B02D97846F9F73AFF4A
:106A40002B78012B09D1EB685A1C06D003F5007393
:106A5000012B02D97846F9F72DFF134B1E684FF032
:106A6000010846B9236A1BB16B6823700F4B3B606A
:106A7000206ABDE8F08116F8032C2B691A42A6F1B2
:106A800008000CD056F8083C29461B68984730B9D6
:106A900016F8043C226A08FA03F3134323623668AB
:106AA000DFE700BFC054002058470020C154002039
:106AB000F8B50F4D2B6A13B97846F9F7FBFE0D4B6D
:106AC0000D4F1C6801260CB92C62F8BD14F8043C6B
:106AD0002A6A06FA03F31342A4F1080005D054F819
:106AE000083C2A785B68394698472468EBE700BF82
:106AF000C054002058470020C154002070B50D4DEF
:106B00002B6A13B97846F9F7D5FE0B4B1C680126A2
:106B10000CB92C6270BD14F8043C2A6A06FA03F31F
:106B20001342A4F1080003D054F8083C9B6898472E
:106B30002468EDE7C0540020584700202DE9F041BB
:106B40000E4617469846054610B97846F9F7B2FE44
:106B5000064B1C683CB143463A4629793046A44668
:106B6000BDE8F0416047BDE8F08100BF5447002018
:106B7000F8B50E461746044610B97846F9F79AFE5E
:106B800016B97846F9F796FE1FB97846F9F792FEDE
:106B900001E0FF2FF9D0336813B97846F9F78AFE80
:106BA000736813B97846F9F785FEB36813B9784668
:106BB000F9F780FE094D2B781F2B02D97846F9F79B
:106BC00079FE2B7826605A1C237167712A7004F1B4
:106BD00008010348BDE8F840FEF7BCBD504700205F
:106BE0005847002007B540F20713B3EB104F019050
:106BF00002D07846F9F75EFE03481422002103B064
:106C00005DF804EB04F06EBE6847002013B540F257
:106C10000713B3EB104F01900C4602D07846F9F7FA
:106C200049FE04491422204602B0BDE8104004F099
:106C30004EBE00BF68470020F7B540F20713B3EB24
:106C4000104F01900F4602D07846F9F733FE38888E
:106C5000FCF798FC02284AD07B68B3F5004F03D9B3
:106C60004FF6FF72934242D1BB68B3F5803F3ED8E6
:106C700097F90C30002B3ADB3E460FCE1D4C2546D3
:106C80000FC533682B603A88234612B9C4E9012244
:106C90002273194A14785A68E4B14FF6FF70111A3A
:106CA0004A424A41E2B19A68D2B1144BB4B1B2F54A
:106CB000E16F144628BF4FF4E164121B1A60FDF720
:106CC00071F80F4901FB04010E48FDF742F800205E
:106CD00003B0F0BD003218BF0122E3E71C60EEE70D
:106CE00000240848C3E90144FDF71CF8EFE707203A
:106CF000EEE700BF68470020B0470020944700201F
:106D000040420F009847002030B50C4DAC688DB064
:106D10008CB90B48FDF706F82C22214601A8AC607F
:106D200004F0E0FD062301A88DF804300295FBF77E
:106D300097F90DB030BD013CAC60FAE78047002008
:106D4000B447002010B503780A2B8CB039D11E4A05
:106D5000C4891388A34234D1418A5388994230D1DF
:106D60008368032B2DD193685BB35368B3F5004F51
:106D70003CBF013353604168007F05238DF8043028
:106D80000B7803F07F038DF808300B78C0F1010019
:106D900003F07F030344DBB28DF809308978ADF846
:106DA0000C4001F00F01ADF80A1091899BB2994295
:106DB000D18988BF938101A8994238BFD381FBF75D
:106DC0004FF90CB010BD00BF8047002070B5294CB2
:106DD00023888EB0002B4BD0274D2A6812B97846F5
:106DE000F9F768FD2B6868469847054600283FD1AB
:106DF00002AE03220146304604F074FD9DF80830CF
:106E0000227B8DF8095023F07F0302F07F021343A9
:106E10008DF80830194B1B788DF80A30019B13B997
:106E20007846F9F747FD0A238DF8143000238DF8D2
:106E300020302088BDF80030ADF82230ADF82600B3
:106E4000FCF7A0FB019B0B9303230793237B8DF897
:106E500024008DF830306FF00201FF2305A80D9358
:106E60000696FAF75FFD064B003018BF0120187038
:106E70000EB070BD68470020CC470020904700202E
:106E8000B14700200378012B04D1034B1B780BB1D1
:106E9000FFF79CBF704700BFB147002038B5114DC8
:106EA000114C2B88DBB16B68CBB1226852B94FF61D
:106EB000FF7293421CBF03F1FF336B60FFF786FF45
:106EC000AB6823602368094AB3F5E16F194628BF10
:106ED0004FF4E1614A435B1A2261236001E0002321
:106EE000236138BD684700209447002040420F00CE
:106EF00017B40191C1F30741012914D198B90C4885
:106F000014780378D94301F0010294420BD183F045
:106F100001030370074BDB89DB0704D503B05DF881
:106F2000044BFFF753BF03B05DF8044B704700BF3D
:106F3000904700206847002008B501210B48FBF767
:106F400061F810B17846F9F7B5FC094B094ADA60E7
:106F5000094B0A4A9A600A480A4ADA600A4B0360F7
:106F6000FBF7A8F8094B01221A7008BDB4CD030045
:106F7000944700209D6E0300B4470020096D030074
:106F80005C47002040420F00856E0300B0470020A0
:106F9000F0B5054691B010B97846F9F78BFC0DF1C4
:106FA00002016846F3F7C6FEAB68B3F5803F02D92D
:106FB000072011B0F0BD2888FCF7E4FA01282FD192
:106FC0006888FCF7DFFA48B16888FCF7DBFA032829
:106FD00004D06A88BDF800309A42E9D11E4C94E88A
:106FE0000F0001AE86E80F00AB68FBB900231B4819
:106FF0002360A360FCF796FE2C22002105A804F074
:1070000071FC06238DF81430BDF80630002B08BF44
:10701000002605A8CDE90664FBF722F80020C8E7A2
:107020002888FCF7AFFA0028CAD0C1E729880029D0
:10703000DCD06A88002AD9D0084DA3602180628004
:10704000EF68FCF7AFFE39182846FCF782FE7F2375
:10705000E36000236360CFE780470020B44700204F
:10706000004870478047002000487047684700206C
:10707000034B00221A70034B0146186800F046BC0F
:10708000B0470020AECD0300034B186010B978461E
:10709000F9F710BC704700BFCC47002007B5094B7B
:1070A0000190012208481A7001F058FBFCF77AFEA3
:1070B000064BD9680144184603B05DF804EBFCF7B1
:1070C00048BE00BFB0480020D0470020B448002090
:1070D00013B50190000CB0F5837F0C4602D07846C2
:1070E000F9F7E8FB024B1B78237002B010BD00BF1C
:1070F000B048002037B50190000CB0F5837F0C46F6
:1071000002D07846F9F7D6FB25780E4C22787AB96A
:1071100055B10D4801F022FBFCF744FE0B4BD9683A
:1071200001441846FCF715FE0020257003B030BD61
:10713000002DF9D1044801F026FB0448FCF7F2FDCC
:10714000F2E700BFB0480020D0470020B44800203C
:107150007FB5089C06461D462078531E5A425A4168
:1071600061F3000062F34100024620466FF387029C
:1071700006F1100100F8012B2DBA082204F0A7FB3C
:107180006B4621463046C4F809500D22FDF76FFCCE
:107190000822694604F10D0004F099FB04B070BDAB
:1071A000F0B595B005460DF137025749564C574F8B
:1071B0000020F3F7ABFC26462268002A00F09180FD
:1071C00051680888142300FB03335B089BB2B3F5B6
:1071D000167F28BF4FF416730A2B38BF0A238B8003
:1071E000526893780133DBB2022B937006D1236887
:1071F0005A68002393702268526813803368596874
:107200008B68EA1A48BF5A1B8B887B43934273D81A
:10721000FBF72CFF0446FBF745FF9DF8371033685A
:10722000A1F1020C022902460EAF0CBF03F12000AF
:1072300003F10800DCF1000141EB0C01234600974B
:10724000FFF786FF012115233A463148FFF7DCFAA4
:107250000146002845D0012303712D4801F0D3FADF
:107260002C4B1B689B0739D52B4B1B68042B35DD3A
:107270002F212A4804F006FC002834D02F2127486B
:1072800004F000FC411C9DF83820254B02F0010061
:10729000C2F34002D3F8043509929DF840200892C9
:1072A0009DF83F2007929DF83E2006929DF83D20D4
:1072B00005929DF83C2004929DF83B2003929DF896
:1072C0003A2002929DF839200192164A0A900092C3
:1072D000052040F201120B94FEF7D8FA33685B6880
:1072E0009D6015B0F0BD5C210C4804F0CBFB08B1EB
:1072F0005C21C4E70949C6E70DF1370221460020A9
:10730000F3F704FC58E700BFCC48002040420F00D0
:10731000D0470020682E0020642E0020C0CD03003E
:1073200000100140DECD030008B5FCF73BFDBDE8D1
:107330000840FFF735BFFFF733BF10B586B002AB8B
:107340000D220C46FDF793FB08220DEB0201684667
:1073500004F0BDFA082204F10D01684604F0A8FA11
:10736000B0FA80F0400906B010BD000013B5154A10
:10737000154C002313600421144AE2600DEB010058
:10738000134AA2602361FCF71BFEFCF70BFD019979
:10739000E268B1FBF2F302FB1313184460600D4C7A
:1073A0000D4A0E493423204601F0D8FA20464FF406
:1073B0007A7101F07EFA0A4A0A480421FDF7BBFB04
:1073C00002B010BDCC480020B44800208096980040
:1073D00037730300D04700206C4800202973030056
:1073E000A048002021CE030010B5064C23783BB9FD
:1073F000054801F0B3F90548FCF772FC012323703E
:1074000010BD00BFB0480020D0470020B448002085
:107410001FB504A901F8090D044800F077FA10B16E
:107420007846F9F747FA05B05DF804FB030006015A
:1074300007B507480DF1030100F0A8FA10B178462E
:10744000F9F738FA9DF8030003B05DF804FB00BFBC
:10745000030006012DE9F04717469AB0044610B91B
:107460007846F9F727FA00230E93504BD4F80960B9
:107470001B689B0736BA30D54D4B1B68042B2CDD9F
:107480002F214C4804F0FEFA002836D02F2149481D
:1074900004F0F8FA411C484BD3F804350B962278D7
:1074A00002F00100C2F340020A900992227A089287
:1074B000E2790792A2790692627905922279049282
:1074C000E2780392A2780292627801923B4A00929B
:1074D00005204FF4D572FEF7D9F9651C0DF137027E
:1074E0000EA92846F3F712FB4FF6FF784FF0040978
:1074F0000E9B5BB91AB0BDE8F0875C212D4804F003
:10750000C1FA08B15C21C2E72A49C4E75B6813B934
:107510007846F9F7CFF90E98082200F1080A2946B3
:10752000183004F0C5F950BB21465046FFF705FF5F
:1075300028B30E9B08330E9A51680A8842451CBF37
:1075400001320A8021468DF83C9011F80D2B1496DB
:10755000C2F34000C2F300028DF855200E9A8DF858
:1075600054000FA8CDE91023CDE91271FAF778FD88
:107570000DF137020EA92846F3F7C8FAB8E79DF8CF
:107580003730002BF4D00E98082200F1200A29464B
:10759000303004F08DF90028EAD121465046FFF73B
:1075A000CCFE0028E4D00E9B2033C4E7682E0020D8
:1075B000642E0020C0CD03000010014026CE030041
:1075C0002DE9F3410F4C104E019205460F469846A7
:1075D000A64202D102B0BDE8F08122682B68118872
:1075E000188888420CD151885B888B4208D8EA8879
:1075F0001A448A4204DD4246019963683846984736
:107600000834E5E790D0030098D0030038B503684C
:107610005C88C3880C1B9C42054602D37846F9F768
:1076200049F9A869204438BD37B585B20190020CEC
:10763000094C0A48844202D1002003B030BD0368DF
:107640001988A94206D15988914203D8C3880B44AE
:107650009342F2DC1C30EDE790D00300CCCF030066
:1076600070B58EB00E4601901546FFF7DDFF04465B
:1076700088B18388AB4222D8C368019831469847C5
:10768000F8B9BDF806102046FFF7C0FF02230370CB
:1076900001200EB070BD02242C22002103A804F0AA
:1076A00021F90198CDF81200142303A88DF80C30AD
:1076B0008DF81040CDE90665FAF7D2FCE8E7002422
:1076C000EAE70124E8E700002DE9F041304C314EB3
:1076D000314FDFF8CC8092B0A4F11C039E4202D15E
:1076E00012B0BDE8F08154F81C3C1A882B4BBB4209
:1076F00005D17846F9F7DEF800239B78FFDE19887C
:10770000914201D00833F2E79B78012B07D0022B7E
:1077100001D01C34E0E798F80030002BF9D00025A8
:107720002BE054F8043C5A5D02F00503012B23D1F1
:1077300054F81C3C18685B8801902B4492079BB25C
:1077400020D5ADF8063054F80C2C019802A99047CA
:1077500034F8182C019802A900F02CFA0028BFD1A7
:1077600054F8042C535D23F00103535554F8042CB2
:10777000535D43F004035355013534F8163CAB42D6
:10778000CFD8C6E7ADF80630019800F03AFAE5E741
:10779000E8CF030090D00300A0D0030098D00300EE
:1077A000D04800202DE9F341204C214EA4F11C07C4
:1077B000A4F11C0846450FD11E4A1F4B1F490091DA
:1077C0009B1AF61BDB081E481C21B6FBF1F100F0EA
:1077D00063F902B0BDE8F08154F81C3C34F8162C73
:1077E0005B881344B3F5803F02D37846F9F762F81B
:1077F000134DB54201D11C34DAE74545FBD054F8AE
:107800001C2C2B681088198888420DD15088598803
:10781000EA880A44904207DA34F8163C0344994255
:1078200002DA7846F9F746F81C35E2E7E8CF0300BC
:1078300090D0030098D00300A0D003008578030007
:10784000CCCF0300014800F0F7B900BF6176030018
:1078500010B50A4B0A4898420ED0D988002205E09C
:107860009C69A45C14F0050F04D101329142F7D851
:107870001C33F0E7012010BD0020FCE7CCCF030053
:1078800090D0030030B504468DB0D0F80200FFF769
:10789000CBFE054610B97846F9F70CF82846A188C2
:1078A000FFF7B4FE03785B07054602D47846F9F784
:1078B00001F82B7823F004032B702378022B0DD1D1
:1078C0002C22002101A804F00DF8D4F80200029047
:1078D000132301A88DF80430FAF7C2FBFFF7B8FFB5
:1078E000014618B1FFF7F0FE0DB030BD064B2C225B
:1078F000187001A803F0F6FF122301A88DF80430D8
:10790000FAF7AEFBF0E700BFD0480020F0B585B035
:107910000E46019089B3FFF787FE054678B30198BC
:10792000EB6803903146BDF806709847044608BBE3
:1079300039462846FFF76AFE0378124A43F00303EC
:1079400003702B6810481F882346D118884203D142
:107950007846F8F7AFFF05E00833D11831F8081C76
:10796000B942F2D1FFF7B0FE3346039A0021284610
:10797000FFF726FE204605B0F0BD0E24FAE70524E9
:10798000F8E700BF98D00300A0D0030037B50D463C
:107990000190A9B1FFF748FE044698B1037A33B1CC
:1079A0000198236929469847002003B030BDBDF8EF
:1079B0000610FFF72BFE03789B07F1D40820F4E7AD
:1079C0000E20F2E70520F0E713B50190FFF72CFE3B
:1079D0000446D0B1BDF80610FFF718FE03789A07E9
:1079E00015D523F0020343F00103037063690BB163
:1079F00001989847FFF768FE20460023019A01216D
:107A0000FFF7DEFD002002B010BD0520FBE70820D7
:107A1000F9E700000F4B73B501220F4C0F4E1A709F
:107A2000A4F11C039E4213D102B070BD54F81C3C5B
:107A300018685B8801902B44ADF806300198FFF779
:107A4000C3FF013534F8163CAB42EFD81C34E7E7EE
:107A50000025F7E7D0480020E8CF030090D00300CE
:107A60007047000030B50A4B1C680A4B19680023A8
:107A70009C4201D1002207E031F83350854201EBEE
:107A8000C30203D153681880104630BD0133EFE7BD
:107A9000D4480020DC4800202DE9F84FDDF828808C
:107AA000894617469A46044610B97846F8F702FF09
:107AB000B9F1000F02D17846F8F7FCFE17B9784605
:107AC000F8F7F8FEBAF1000F02D17846F8F7F2FEA7
:107AD000344E354837600023344D354F2B60984580
:107AE00018BF4046C7F800A000F01EF91C2303FB96
:107AF00009494C450AD100220023D7F800E030683C
:107B00001C4673453DD14CBBBDE8F88F23681888EF
:107B1000FFF7A8FF804608B1436813B97846F8F725
:107B2000C9FED8F80430A088B3F802B000F082F99A
:107B3000B4F806A000FB0ABABAF5803F02DB78462B
:107B4000F8F7B8FED8F80430A3F802A0D8F804205B
:107B5000E18893880B4493801C34CAE7A37833B13F
:107B6000606800F0F5F810B17846F8F7A3FE2046FB
:107B700000F078F92B68228818440132286092B20C
:107B8000BAE730F833C0944500EBC30108D324B101
:107B9000B4F80080E04598BF214601330C46B0E7B9
:107BA0002146FAE7DC480020617A0300D84800202B
:107BB000D448002073B5164601900D4611B9784699
:107BC000F8F778FE16B97846F8F774FEBDF80400A9
:107BD000FFF748FF044610B97846F8F76BFE636874
:107BE0005B8813B97846F8F765FE6368BDF8062030
:107BF000DA8060683246294602B0BDE8704000F085
