Archive member included to satisfy reference by file (symbol)

external/rtt/librtt_nrf52840_xxAA.a(SEGGER_RTT.c.obj)
                              examples/beaconing/CMakeFiles/beaconing_nrf52840_xxAA_s140_6.1.1.dir/__/__/mesh/core/src/log.c.obj (SEGGER_RTT_Write)
external/rtt/librtt_nrf52840_xxAA.a(SEGGER_RTT_printf.c.obj)
                              examples/beaconing/CMakeFiles/beaconing_nrf52840_xxAA_s140_6.1.1.dir/__/__/mesh/core/src/log.c.obj (SEGGER_RTT_vprintf)
external/micro-ecc/libuECC_nrf52840_xxAA.a(uECC.c.obj)
                              examples/beaconing/CMakeFiles/beaconing_nrf52840_xxAA_s140_6.1.1.dir/__/__/mesh/prov/src/prov_utils.c.obj (uECC_secp256r1)
c:/mesh/arm_gcc/bin/../lib/gcc/arm-none-eabi/7.3.1/thumb/v7e-m/fpv4-sp/hard\libgcc.a(_aeabi_ldivmod.o)
                              examples/beaconing/CMakeFiles/beaconing_nrf52840_xxAA_s140_6.1.1.dir/__/common/src/simple_hal.c.obj (__aeabi_ldivmod)
c:/mesh/arm_gcc/bin/../lib/gcc/arm-none-eabi/7.3.1/thumb/v7e-m/fpv4-sp/hard\libgcc.a(_aeabi_uldivmod.o)
                              examples/beaconing/CMakeFiles/beaconing_nrf52840_xxAA_s140_6.1.1.dir/__/common/src/simple_hal.c.obj (__aeabi_uldivmod)
c:/mesh/arm_gcc/bin/../lib/gcc/arm-none-eabi/7.3.1/thumb/v7e-m/fpv4-sp/hard\libgcc.a(_udivmoddi4.o)
                              c:/mesh/arm_gcc/bin/../lib/gcc/arm-none-eabi/7.3.1/thumb/v7e-m/fpv4-sp/hard\libgcc.a(_aeabi_ldivmod.o) (__udivmoddi4)
c:/mesh/arm_gcc/bin/../lib/gcc/arm-none-eabi/7.3.1/thumb/v7e-m/fpv4-sp/hard\libgcc.a(_dvmd_tls.o)
                              c:/mesh/arm_gcc/bin/../lib/gcc/arm-none-eabi/7.3.1/thumb/v7e-m/fpv4-sp/hard\libgcc.a(_aeabi_ldivmod.o) (__aeabi_ldiv0)
c:/mesh/arm_gcc/bin/../lib/gcc/arm-none-eabi/7.3.1/../../../../arm-none-eabi/lib/thumb/v7e-m/fpv4-sp/hard\libg_nano.a(lib_a-calloc.o)
                              examples/beaconing/CMakeFiles/beaconing_nrf52840_xxAA_s140_6.1.1.dir/__/__/mesh/core/src/mesh_mem_stdlib.c.obj (calloc)
c:/mesh/arm_gcc/bin/../lib/gcc/arm-none-eabi/7.3.1/../../../../arm-none-eabi/lib/thumb/v7e-m/fpv4-sp/hard\libg_nano.a(lib_a-exit.o)
                              c:/mesh/arm_gcc/bin/../lib/gcc/arm-none-eabi/7.3.1/../../../../arm-none-eabi/lib/thumb/v7e-m/fpv4-sp/hard/crt0.o (exit)
c:/mesh/arm_gcc/bin/../lib/gcc/arm-none-eabi/7.3.1/../../../../arm-none-eabi/lib/thumb/v7e-m/fpv4-sp/hard\libg_nano.a(lib_a-impure.o)
                              c:/mesh/arm_gcc/bin/../lib/gcc/arm-none-eabi/7.3.1/../../../../arm-none-eabi/lib/thumb/v7e-m/fpv4-sp/hard\libg_nano.a(lib_a-exit.o) (_global_impure_ptr)
c:/mesh/arm_gcc/bin/../lib/gcc/arm-none-eabi/7.3.1/../../../../arm-none-eabi/lib/thumb/v7e-m/fpv4-sp/hard\libg_nano.a(lib_a-init.o)
                              c:/mesh/arm_gcc/bin/../lib/gcc/arm-none-eabi/7.3.1/../../../../arm-none-eabi/lib/thumb/v7e-m/fpv4-sp/hard/crt0.o (__libc_init_array)
c:/mesh/arm_gcc/bin/../lib/gcc/arm-none-eabi/7.3.1/../../../../arm-none-eabi/lib/thumb/v7e-m/fpv4-sp/hard\libg_nano.a(lib_a-malloc.o)
                              examples/beaconing/CMakeFiles/beaconing_nrf52840_xxAA_s140_6.1.1.dir/__/__/mesh/core/src/mesh_mem_stdlib.c.obj (malloc)
c:/mesh/arm_gcc/bin/../lib/gcc/arm-none-eabi/7.3.1/../../../../arm-none-eabi/lib/thumb/v7e-m/fpv4-sp/hard\libg_nano.a(lib_a-memcmp.o)
                              examples/beaconing/CMakeFiles/beaconing_nrf52840_xxAA_s140_6.1.1.dir/C_/mesh/deps/nRF5_SDK_15.3.0_59ac345/components/ble/common/ble_advdata.c.obj (memcmp)
c:/mesh/arm_gcc/bin/../lib/gcc/arm-none-eabi/7.3.1/../../../../arm-none-eabi/lib/thumb/v7e-m/fpv4-sp/hard\libg_nano.a(lib_a-memcpy-stub.o)
                              examples/beaconing/CMakeFiles/beaconing_nrf52840_xxAA_s140_6.1.1.dir/src/main.c.obj (memcpy)
c:/mesh/arm_gcc/bin/../lib/gcc/arm-none-eabi/7.3.1/../../../../arm-none-eabi/lib/thumb/v7e-m/fpv4-sp/hard\libg_nano.a(lib_a-memset.o)
                              c:/mesh/arm_gcc/bin/../lib/gcc/arm-none-eabi/7.3.1/../../../../arm-none-eabi/lib/thumb/v7e-m/fpv4-sp/hard/crt0.o (memset)
c:/mesh/arm_gcc/bin/../lib/gcc/arm-none-eabi/7.3.1/../../../../arm-none-eabi/lib/thumb/v7e-m/fpv4-sp/hard\libg_nano.a(lib_a-nano-callocr.o)
                              c:/mesh/arm_gcc/bin/../lib/gcc/arm-none-eabi/7.3.1/../../../../arm-none-eabi/lib/thumb/v7e-m/fpv4-sp/hard\libg_nano.a(lib_a-calloc.o) (_calloc_r)
c:/mesh/arm_gcc/bin/../lib/gcc/arm-none-eabi/7.3.1/../../../../arm-none-eabi/lib/thumb/v7e-m/fpv4-sp/hard\libg_nano.a(lib_a-nano-freer.o)
                              c:/mesh/arm_gcc/bin/../lib/gcc/arm-none-eabi/7.3.1/../../../../arm-none-eabi/lib/thumb/v7e-m/fpv4-sp/hard\libg_nano.a(lib_a-malloc.o) (_free_r)
c:/mesh/arm_gcc/bin/../lib/gcc/arm-none-eabi/7.3.1/../../../../arm-none-eabi/lib/thumb/v7e-m/fpv4-sp/hard\libg_nano.a(lib_a-nano-mallocr.o)
                              c:/mesh/arm_gcc/bin/../lib/gcc/arm-none-eabi/7.3.1/../../../../arm-none-eabi/lib/thumb/v7e-m/fpv4-sp/hard\libg_nano.a(lib_a-malloc.o) (_malloc_r)
c:/mesh/arm_gcc/bin/../lib/gcc/arm-none-eabi/7.3.1/../../../../arm-none-eabi/lib/thumb/v7e-m/fpv4-sp/hard\libg_nano.a(lib_a-sbrkr.o)
                              c:/mesh/arm_gcc/bin/../lib/gcc/arm-none-eabi/7.3.1/../../../../arm-none-eabi/lib/thumb/v7e-m/fpv4-sp/hard\libg_nano.a(lib_a-nano-mallocr.o) (_sbrk_r)
c:/mesh/arm_gcc/bin/../lib/gcc/arm-none-eabi/7.3.1/../../../../arm-none-eabi/lib/thumb/v7e-m/fpv4-sp/hard\libg_nano.a(lib_a-sprintf.o)
                              examples/beaconing/CMakeFiles/beaconing_nrf52840_xxAA_s140_6.1.1.dir/src/main.c.obj (sprintf)
c:/mesh/arm_gcc/bin/../lib/gcc/arm-none-eabi/7.3.1/../../../../arm-none-eabi/lib/thumb/v7e-m/fpv4-sp/hard\libg_nano.a(lib_a-strcpy.o)
                              external/rtt/librtt_nrf52840_xxAA.a(SEGGER_RTT.c.obj) (strcpy)
c:/mesh/arm_gcc/bin/../lib/gcc/arm-none-eabi/7.3.1/../../../../arm-none-eabi/lib/thumb/v7e-m/fpv4-sp/hard\libg_nano.a(lib_a-strlen.o)
                              examples/beaconing/CMakeFiles/beaconing_nrf52840_xxAA_s140_6.1.1.dir/C_/mesh/deps/nRF5_SDK_15.3.0_59ac345/components/ble/common/ble_advdata.c.obj (strlen)
c:/mesh/arm_gcc/bin/../lib/gcc/arm-none-eabi/7.3.1/../../../../arm-none-eabi/lib/thumb/v7e-m/fpv4-sp/hard\libg_nano.a(lib_a-strrchr.o)
                              examples/beaconing/CMakeFiles/beaconing_nrf52840_xxAA_s140_6.1.1.dir/src/main.c.obj (strrchr)
c:/mesh/arm_gcc/bin/../lib/gcc/arm-none-eabi/7.3.1/../../../../arm-none-eabi/lib/thumb/v7e-m/fpv4-sp/hard\libg_nano.a(lib_a-mlock.o)
                              c:/mesh/arm_gcc/bin/../lib/gcc/arm-none-eabi/7.3.1/../../../../arm-none-eabi/lib/thumb/v7e-m/fpv4-sp/hard\libg_nano.a(lib_a-nano-freer.o) (__malloc_lock)
c:/mesh/arm_gcc/bin/../lib/gcc/arm-none-eabi/7.3.1/../../../../arm-none-eabi/lib/thumb/v7e-m/fpv4-sp/hard\libg_nano.a(lib_a-nano-svfprintf.o)
                              c:/mesh/arm_gcc/bin/../lib/gcc/arm-none-eabi/7.3.1/../../../../arm-none-eabi/lib/thumb/v7e-m/fpv4-sp/hard\libg_nano.a(lib_a-sprintf.o) (_svfprintf_r)
c:/mesh/arm_gcc/bin/../lib/gcc/arm-none-eabi/7.3.1/../../../../arm-none-eabi/lib/thumb/v7e-m/fpv4-sp/hard\libg_nano.a(lib_a-nano-vfprintf_i.o)
                              c:/mesh/arm_gcc/bin/../lib/gcc/arm-none-eabi/7.3.1/../../../../arm-none-eabi/lib/thumb/v7e-m/fpv4-sp/hard\libg_nano.a(lib_a-nano-svfprintf.o) (_printf_i)
c:/mesh/arm_gcc/bin/../lib/gcc/arm-none-eabi/7.3.1/../../../../arm-none-eabi/lib/thumb/v7e-m/fpv4-sp/hard\libg_nano.a(lib_a-reent.o)
                              c:/mesh/arm_gcc/bin/../lib/gcc/arm-none-eabi/7.3.1/../../../../arm-none-eabi/lib/thumb/v7e-m/fpv4-sp/hard\libg_nano.a(lib_a-sbrkr.o) (errno)
c:/mesh/arm_gcc/bin/../lib/gcc/arm-none-eabi/7.3.1/../../../../arm-none-eabi/lib/thumb/v7e-m/fpv4-sp/hard\libg_nano.a(lib_a-strchr.o)
                              c:/mesh/arm_gcc/bin/../lib/gcc/arm-none-eabi/7.3.1/../../../../arm-none-eabi/lib/thumb/v7e-m/fpv4-sp/hard\libg_nano.a(lib_a-strrchr.o) (strchr)
c:/mesh/arm_gcc/bin/../lib/gcc/arm-none-eabi/7.3.1/../../../../arm-none-eabi/lib/thumb/v7e-m/fpv4-sp/hard\libg_nano.a(lib_a-memchr.o)
                              c:/mesh/arm_gcc/bin/../lib/gcc/arm-none-eabi/7.3.1/../../../../arm-none-eabi/lib/thumb/v7e-m/fpv4-sp/hard\libg_nano.a(lib_a-nano-svfprintf.o) (memchr)
c:/mesh/arm_gcc/bin/../lib/gcc/arm-none-eabi/7.3.1/../../../../arm-none-eabi/lib/thumb/v7e-m/fpv4-sp/hard\libg_nano.a(lib_a-memmove.o)
                              c:/mesh/arm_gcc/bin/../lib/gcc/arm-none-eabi/7.3.1/../../../../arm-none-eabi/lib/thumb/v7e-m/fpv4-sp/hard\libg_nano.a(lib_a-nano-svfprintf.o) (memmove)
c:/mesh/arm_gcc/bin/../lib/gcc/arm-none-eabi/7.3.1/../../../../arm-none-eabi/lib/thumb/v7e-m/fpv4-sp/hard\libg_nano.a(lib_a-nano-reallocr.o)
                              c:/mesh/arm_gcc/bin/../lib/gcc/arm-none-eabi/7.3.1/../../../../arm-none-eabi/lib/thumb/v7e-m/fpv4-sp/hard\libg_nano.a(lib_a-nano-svfprintf.o) (_realloc_r)
c:/mesh/arm_gcc/bin/../lib/gcc/arm-none-eabi/7.3.1/../../../../arm-none-eabi/lib/thumb/v7e-m/fpv4-sp/hard\libg_nano.a(lib_a-nano-msizer.o)
                              c:/mesh/arm_gcc/bin/../lib/gcc/arm-none-eabi/7.3.1/../../../../arm-none-eabi/lib/thumb/v7e-m/fpv4-sp/hard\libg_nano.a(lib_a-nano-reallocr.o) (_malloc_usable_size_r)
c:/mesh/arm_gcc/bin/../lib/gcc/arm-none-eabi/7.3.1/../../../../arm-none-eabi/lib/thumb/v7e-m/fpv4-sp/hard\libnosys.a(sbrk.o)
                              c:/mesh/arm_gcc/bin/../lib/gcc/arm-none-eabi/7.3.1/../../../../arm-none-eabi/lib/thumb/v7e-m/fpv4-sp/hard\libg_nano.a(lib_a-sbrkr.o) (_sbrk)
c:/mesh/arm_gcc/bin/../lib/gcc/arm-none-eabi/7.3.1/../../../../arm-none-eabi/lib/thumb/v7e-m/fpv4-sp/hard\libnosys.a(_exit.o)
                              c:/mesh/arm_gcc/bin/../lib/gcc/arm-none-eabi/7.3.1/../../../../arm-none-eabi/lib/thumb/v7e-m/fpv4-sp/hard\libg_nano.a(lib_a-exit.o) (_exit)

Allocating common symbols
Common symbol       size              file

nrf_nvic_state      0xc               examples/beaconing/CMakeFiles/beaconing_nrf52840_xxAA_s140_6.1.1.dir/C_/mesh/deps/nRF5_SDK_15.3.0_59ac345/components/libraries/util/app_util_platform.c.obj
m_packet            0x24              examples/beaconing/CMakeFiles/beaconing_nrf52840_xxAA_s140_6.1.1.dir/__/__/mesh/core/src/core_tx.c.obj
errno               0x4               c:/mesh/arm_gcc/bin/../lib/gcc/arm-none-eabi/7.3.1/../../../../arm-none-eabi/lib/thumb/v7e-m/fpv4-sp/hard\libg_nano.a(lib_a-reent.o)
_SEGGER_RTT         0x78              external/rtt/librtt_nrf52840_xxAA.a(SEGGER_RTT.c.obj)

Discarded input sections

 .text          0x00000000        0x0 c:/mesh/arm_gcc/bin/../lib/gcc/arm-none-eabi/7.3.1/thumb/v7e-m/fpv4-sp/hard/crti.o
 .data          0x00000000        0x0 c:/mesh/arm_gcc/bin/../lib/gcc/arm-none-eabi/7.3.1/thumb/v7e-m/fpv4-sp/hard/crti.o
 .bss           0x00000000        0x0 c:/mesh/arm_gcc/bin/../lib/gcc/arm-none-eabi/7.3.1/thumb/v7e-m/fpv4-sp/hard/crti.o
 .data          0x00000000        0x4 c:/mesh/arm_gcc/bin/../lib/gcc/arm-none-eabi/7.3.1/thumb/v7e-m/fpv4-sp/hard/crtbegin.o
 .data          0x00000000        0x0 c:/mesh/arm_gcc/bin/../lib/gcc/arm-none-eabi/7.3.1/../../../../arm-none-eabi/lib/thumb/v7e-m/fpv4-sp/hard/crt0.o
 .bss           0x00000000        0x0 c:/mesh/arm_gcc/bin/../lib/gcc/arm-none-eabi/7.3.1/../../../../arm-none-eabi/lib/thumb/v7e-m/fpv4-sp/hard/crt0.o
 .ARM.extab     0x00000000        0x0 c:/mesh/arm_gcc/bin/../lib/gcc/arm-none-eabi/7.3.1/../../../../arm-none-eabi/lib/thumb/v7e-m/fpv4-sp/hard/crt0.o
 .text          0x00000000        0x0 examples/beaconing/CMakeFiles/beaconing_nrf52840_xxAA_s140_6.1.1.dir/src/main.c.obj
 .data          0x00000000        0x0 examples/beaconing/CMakeFiles/beaconing_nrf52840_xxAA_s140_6.1.1.dir/src/main.c.obj
 .bss           0x00000000        0x0 examples/beaconing/CMakeFiles/beaconing_nrf52840_xxAA_s140_6.1.1.dir/src/main.c.obj
 .text          0x00000000        0x0 examples/beaconing/CMakeFiles/beaconing_nrf52840_xxAA_s140_6.1.1.dir/__/__/mesh/stack/src/mesh_stack.c.obj
 .data          0x00000000        0x0 examples/beaconing/CMakeFiles/beaconing_nrf52840_xxAA_s140_6.1.1.dir/__/__/mesh/stack/src/mesh_stack.c.obj
 .bss           0x00000000        0x0 examples/beaconing/CMakeFiles/beaconing_nrf52840_xxAA_s140_6.1.1.dir/__/__/mesh/stack/src/mesh_stack.c.obj
 .text.mesh_stack_persistence_flash_usage
                0x00000000       0x36 examples/beaconing/CMakeFiles/beaconing_nrf52840_xxAA_s140_6.1.1.dir/__/__/mesh/stack/src/mesh_stack.c.obj
 .text.mesh_stack_health_server_get
                0x00000000        0x8 examples/beaconing/CMakeFiles/beaconing_nrf52840_xxAA_s140_6.1.1.dir/__/__/mesh/stack/src/mesh_stack.c.obj
 .text          0x00000000        0x0 examples/beaconing/CMakeFiles/beaconing_nrf52840_xxAA_s140_6.1.1.dir/__/common/src/mesh_provisionee.c.obj
Memory Configuration

Name             Origin             Length             Attributes
FLASH            0x00026000         0x000d1000         xr
RAM              0x20002da0         0x0003cf60         xrw
*default*        0x00000000         0xffffffff

Linker script and memory map


.text           0x00026000    0x16618
 *(.isr_vector)
 .isr_vector    0x00026000      0x200 examples/beaconing/CMakeFiles/beaconing_nrf52840_xxAA_s140_6.1.1.dir/C_/mesh/deps/nRF5_SDK_15.3.0_59ac345/modules/nrfx/mdk/gcc_startup_nrf52840.S.obj
                0x00026000                __isr_vector
 *(.text*)
 .text          0x00026200       0x40 c:/mesh/arm_gcc/bin/../lib/gcc/arm-none-eabi/7.3.1/thumb/v7e-m/fpv4-sp/hard/crtbegin.o
 .text          0x00026240       0x74 c:/mesh/arm_gcc/bin/../lib/gcc/arm-none-eabi/7.3.1/../../../../arm-none-eabi/lib/thumb/v7e-m/fpv4-sp/hard/crt0.o
                0x00026240                _start
                0x00026240                _mainCRTStartup
 .text.sd_app_evt_wait
                0x000262b4        0x4 examples/beaconing/CMakeFiles/beaconing_nrf52840_xxAA_s140_6.1.1.dir/src/main.c.obj
 .text.rx_cb    0x000262b8       0xfc examples/beaconing/CMakeFiles/beaconing_nrf52840_xxAA_s140_6.1.1.dir/src/main.c.obj
 .text.config_server_evt_cb
                0x000263b4       0x80 examples/beaconing/CMakeFiles/beaconing_nrf52840_xxAA_s140_6.1.1.dir/src/main.c.obj
 .text.device_identification_start_cb
                0x00026434       0x22 examples/beaconing/CMakeFiles/beaconing_nrf52840_xxAA_s140_6.1.1.dir/src/main.c.obj
 .text.provisioning_aborted_cb
                0x00026456        0x4 examples/beaconing/CMakeFiles/beaconing_nrf52840_xxAA_s140_6.1.1.dir/src/main.c.obj
 *fill*         0x0002645a        0x2 
 .text.provisioning_complete_cb
                0x0002645c       0xd4 examples/beaconing/CMakeFiles/beaconing_nrf52840_xxAA_s140_6.1.1.dir/src/main.c.obj
 .text.startup.main
                0x00026530      0x208 examples/beaconing/CMakeFiles/beaconing_nrf52840_xxAA_s140_6.1.1.dir/src/main.c.obj
                0x00026530                main
 .text.mesh_evt_handler
                0x00026738       0x1c examples/beaconing/CMakeFiles/beaconing_nrf52840_xxAA_s140_6.1.1.dir/__/__/mesh/stack/src/mesh_stack.c.obj
 .text.mesh_stack_start
                0x00026754        0x4 examples/beaconing/CMakeFiles/beaconing_nrf52840_xxAA_s140_6.1.1.dir/__/__/mesh/stack/src/mesh_stack.c.obj
                0x00026754                mesh_stack_start
 .text.mesh_stack_provisioning_data_store
                0x00026758       0xe4 examples/beaconing/CMakeFiles/beaconing_nrf52840_xxAA_s140_6.1.1.dir/__/__/mesh/stack/src/mesh_stack.c.obj
                0x00026758                mesh_stack_provisioning_data_store
 .text.mesh_stack_config_clear
                0x0002683c       0x16 examples/beaconing/CMakeFiles/beaconing_nrf52840_xxAA_s140_6.1.1.dir/__/__/mesh/stack/src/mesh_stack.c.obj
                0x0002683c                mesh_stack_config_clear
 .text.mesh_stack_is_device_provisioned
                0x00026852       0x18 examples/beaconing/CMakeFiles/beaconing_nrf52840_xxAA_s140_6.1.1.dir/__/__/mesh/stack/src/mesh_stack.c.obj
                0x00026852                mesh_stack_is_device_provisioned
 *fill*         0x0002686a        0x2 
 .text.mesh_stack_init
                0x0002686c       0x6c examples/beaconing/CMakeFiles/beaconing_nrf52840_xxAA_s140_6.1.1.dir/__/__/mesh/stack/src/mesh_stack.c.obj
                0x0002686c                mesh_stack_init
 .text.mesh_stack_device_reset
                0x000268d8       0x20 examples/beaconing/CMakeFiles/beaconing_nrf52840_xxAA_s140_6.1.1.dir/__/__/mesh/stack/src/mesh_stack.c.obj
                0x000268d8                mesh_stack_device_reset
 .text.provisionee_start
                0x000268f8       0x30 examples/beaconing/CMakeFiles/beaconing_nrf52840_xxAA_s140_6.1.1.dir/__/common/src/mesh_provisionee.c.obj
 .text.prov_evt_handler
                0x00026928       0xa4 examples/beaconing/CMakeFiles/beaconing_nrf52840_xxAA_s140_6.1.1.dir/__/common/src/mesh_provisionee.c.obj
 .text.mesh_provisionee_prov_start
                0x000269cc       0x78 examples/beaconing/CMakeFiles/beaconing_nrf52840_xxAA_s140_6.1.1.dir/__/common/src/mesh_provisionee.c.obj
                0x000269cc                mesh_provisionee_prov_start
 .text.led_timeout_handler
                0x00026a44       0x54 examples/beaconing/CMakeFiles/beaconing_nrf52840_xxAA_s140_6.1.1.dir/__/common/src/simple_hal.c.obj
 .text.hal_led_mask_set
                0x00026a98       0x12 examples/beaconing/CMakeFiles/beaconing_nrf52840_xxAA_s140_6.1.1.dir/__/common/src/simple_hal.c.obj
                0x00026a98                hal_led_mask_set
 *fill*         0x00026aaa        0x2 
 .text.hal_led_blink_ms
                0x00026aac       0x64 examples/beaconing/CMakeFiles/beaconing_nrf52840_xxAA_s140_6.1.1.dir/__/common/src/simple_hal.c.obj
                0x00026aac                hal_led_blink_ms
 .text.hal_led_blink_stop
                0x00026b10       0x20 examples/beaconing/CMakeFiles/beaconing_nrf52840_xxAA_s140_6.1.1.dir/__/common/src/simple_hal.c.obj
                0x00026b10                hal_led_blink_stop
 .text.hal_leds_init
                0x00026b30       0x58 examples/beaconing/CMakeFiles/beaconing_nrf52840_xxAA_s140_6.1.1.dir/__/common/src/simple_hal.c.obj
                0x00026b30                hal_leds_init
 .text.GPIOTE_IRQHandler
                0x00026b88       0x60 examples/beaconing/CMakeFiles/beaconing_nrf52840_xxAA_s140_6.1.1.dir/__/common/src/simple_hal.c.obj
                0x00026b88                GPIOTE_IRQHandler
 .text.mesh_app_uuid_print
                0x00026be8      0x11c examples/beaconing/CMakeFiles/beaconing_nrf52840_xxAA_s140_6.1.1.dir/__/common/src/mesh_app_utils.c.obj
                0x00026be8                mesh_app_uuid_print
 .text.sd_ble_enable
                0x00026d04        0x4 examples/beaconing/CMakeFiles/beaconing_nrf52840_xxAA_s140_6.1.1.dir/__/common/src/ble_softdevice_support.c.obj
 .text.sd_ble_cfg_set
                0x00026d08        0x4 examples/beaconing/CMakeFiles/beaconing_nrf52840_xxAA_s140_6.1.1.dir/__/common/src/ble_softdevice_support.c.obj
 .text.on_sd_evt
                0x00026d0c        0x4 examples/beaconing/CMakeFiles/beaconing_nrf52840_xxAA_s140_6.1.1.dir/__/common/src/ble_softdevice_support.c.obj
 .text.ble_stack_init
                0x00026d10       0xd4 examples/beaconing/CMakeFiles/beaconing_nrf52840_xxAA_s140_6.1.1.dir/__/common/src/ble_softdevice_support.c.obj
                0x00026d10                ble_stack_init
 .text.app_util_critical_region_enter
                0x00026de4       0x48 examples/beaconing/CMakeFiles/beaconing_nrf52840_xxAA_s140_6.1.1.dir/C_/mesh/deps/nRF5_SDK_15.3.0_59ac345/components/libraries/util/app_util_platform.c.obj
                0x00026de4                app_util_critical_region_enter
 .text.app_util_critical_region_exit
                0x00026e2c       0x2c examples/beaconing/CMakeFiles/beaconing_nrf52840_xxAA_s140_6.1.1.dir/C_/mesh/deps/nRF5_SDK_15.3.0_59ac345/components/libraries/util/app_util_platform.c.obj
                0x00026e2c                app_util_critical_region_exit
 .text.nrf_section_iter_init
                0x00026e58       0x12 examples/beaconing/CMakeFiles/beaconing_nrf52840_xxAA_s140_6.1.1.dir/C_/mesh/deps/nRF5_SDK_15.3.0_59ac345/components/libraries/experimental_section_vars/nrf_section_iter.c.obj
                0x00026e58                nrf_section_iter_init
 .text.nrf_section_iter_next
                0x00026e6a       0x18 examples/beaconing/CMakeFiles/beaconing_nrf52840_xxAA_s140_6.1.1.dir/C_/mesh/deps/nRF5_SDK_15.3.0_59ac345/components/libraries/experimental_section_vars/nrf_section_iter.c.obj
                0x00026e6a                nrf_section_iter_next
 .text.sd_evt_get
                0x00026e82        0x4 examples/beaconing/CMakeFiles/beaconing_nrf52840_xxAA_s140_6.1.1.dir/C_/mesh/deps/nRF5_SDK_15.3.0_59ac345/components/softdevice/common/nrf_sdh_soc.c.obj
 *fill*         0x00026e86        0x2 
 .text.nrf_sdh_soc_evts_poll
                0x00026e88       0x3c examples/beaconing/CMakeFiles/beaconing_nrf52840_xxAA_s140_6.1.1.dir/C_/mesh/deps/nRF5_SDK_15.3.0_59ac345/components/softdevice/common/nrf_sdh_soc.c.obj
 .text.sd_ble_evt_get
                0x00026ec4        0x4 examples/beaconing/CMakeFiles/beaconing_nrf52840_xxAA_s140_6.1.1.dir/C_/mesh/deps/nRF5_SDK_15.3.0_59ac345/components/softdevice/common/nrf_sdh_ble.c.obj
 .text.nrf_sdh_ble_evts_poll
                0x00026ec8       0x50 examples/beaconing/CMakeFiles/beaconing_nrf52840_xxAA_s140_6.1.1.dir/C_/mesh/deps/nRF5_SDK_15.3.0_59ac345/components/softdevice/common/nrf_sdh_ble.c.obj
 .text.sd_softdevice_enable
                0x00026f18        0x4 examples/beaconing/CMakeFiles/beaconing_nrf52840_xxAA_s140_6.1.1.dir/C_/mesh/deps/nRF5_SDK_15.3.0_59ac345/components/softdevice/common/nrf_sdh.c.obj
 .text.sdh_request_observer_notify
                0x00026f1c       0x30 examples/beaconing/CMakeFiles/beaconing_nrf52840_xxAA_s140_6.1.1.dir/C_/mesh/deps/nRF5_SDK_15.3.0_59ac345/components/softdevice/common/nrf_sdh.c.obj
 .text.sdh_state_observer_notify
                0x00026f4c       0x28 examples/beaconing/CMakeFiles/beaconing_nrf52840_xxAA_s140_6.1.1.dir/C_/mesh/deps/nRF5_SDK_15.3.0_59ac345/components/softdevice/common/nrf_sdh.c.obj
 .text.softdevices_evt_irq_enable
                0x00026f74       0x38 examples/beaconing/CMakeFiles/beaconing_nrf52840_xxAA_s140_6.1.1.dir/C_/mesh/deps/nRF5_SDK_15.3.0_59ac345/components/softdevice/common/nrf_sdh.c.obj
 .text.nrf_sdh_enable_request
                0x00026fac       0x78 examples/beaconing/CMakeFiles/beaconing_nrf52840_xxAA_s140_6.1.1.dir/C_/mesh/deps/nRF5_SDK_15.3.0_59ac345/components/softdevice/common/nrf_sdh.c.obj
                0x00026fac                nrf_sdh_enable_request
 .text.nrf_sdh_evts_poll
                0x00027024       0x28 examples/beaconing/CMakeFiles/beaconing_nrf52840_xxAA_s140_6.1.1.dir/C_/mesh/deps/nRF5_SDK_15.3.0_59ac345/components/softdevice/common/nrf_sdh.c.obj
                0x00027024                nrf_sdh_evts_poll
 .text.SWI2_EGU2_IRQHandler
                0x0002704c        0x4 examples/beaconing/CMakeFiles/beaconing_nrf52840_xxAA_s140_6.1.1.dir/C_/mesh/deps/nRF5_SDK_15.3.0_59ac345/components/softdevice/common/nrf_sdh.c.obj
                0x0002704c                SWI2_EGU2_IRQHandler
 .text.add_to_publication_list
                0x00027050       0x78 examples/beaconing/CMakeFiles/beaconing_nrf52840_xxAA_s140_6.1.1.dir/__/__/mesh/access/src/access_publish.c.obj
 .text.step_resolution_to_us
                0x000270c8       0x38 examples/beaconing/CMakeFiles/beaconing_nrf52840_xxAA_s140_6.1.1.dir/__/__/mesh/access/src/access_publish.c.obj
 .text.schedule_publication_timer
                0x00027100      0x184 examples/beaconing/CMakeFiles/beaconing_nrf52840_xxAA_s140_6.1.1.dir/__/__/mesh/access/src/access_publish.c.obj
 .text.publish_timer_tick
                0x00027284       0xa8 examples/beaconing/CMakeFiles/beaconing_nrf52840_xxAA_s140_6.1.1.dir/__/__/mesh/access/src/access_publish.c.obj
 .text.access_publish_init
                0x0002732c       0x38 examples/beaconing/CMakeFiles/beaconing_nrf52840_xxAA_s140_6.1.1.dir/__/__/mesh/access/src/access_publish.c.obj
                0x0002732c                access_publish_init
 .text.access_publish_period_set
                0x00027364       0x60 examples/beaconing/CMakeFiles/beaconing_nrf52840_xxAA_s140_6.1.1.dir/__/__/mesh/access/src/access_publish.c.obj
                0x00027364                access_publish_period_set
 .text.get_next_timeout_index
                0x000273c4       0x30 examples/beaconing/CMakeFiles/beaconing_nrf52840_xxAA_s140_6.1.1.dir/__/__/mesh/access/src/access_publish_retransmission.c.obj
 .text.message_remove
                0x000273f4       0x5c examples/beaconing/CMakeFiles/beaconing_nrf52840_xxAA_s140_6.1.1.dir/__/__/mesh/access/src/access_publish_retransmission.c.obj
 .text.retransmissions_timer_cb
                0x00027450       0xc4 examples/beaconing/CMakeFiles/beaconing_nrf52840_xxAA_s140_6.1.1.dir/__/__/mesh/access/src/access_publish_retransmission.c.obj
 .text.access_publish_retransmission_init
                0x00027514       0x24 examples/beaconing/CMakeFiles/beaconing_nrf52840_xxAA_s140_6.1.1.dir/__/__/mesh/access/src/access_publish_retransmission.c.obj
                0x00027514                access_publish_retransmission_init
 .text.access_publish_retransmission_message_add
                0x00027538       0xf8 examples/beaconing/CMakeFiles/beaconing_nrf52840_xxAA_s140_6.1.1.dir/__/__/mesh/access/src/access_publish_retransmission.c.obj
                0x00027538                access_publish_retransmission_message_add
 .text.bitfield_get
                0x00027630       0x1a examples/beaconing/CMakeFiles/beaconing_nrf52840_xxAA_s140_6.1.1.dir/__/__/mesh/access/src/access.c.obj
 .text.is_valid_opcode
                0x0002764a       0x42 examples/beaconing/CMakeFiles/beaconing_nrf52840_xxAA_s140_6.1.1.dir/__/__/mesh/access/src/access.c.obj
 .text.model_handle_valid_and_allocated
                0x0002768c       0x20 examples/beaconing/CMakeFiles/beaconing_nrf52840_xxAA_s140_6.1.1.dir/__/__/mesh/access/src/access.c.obj
 .text.flash_manager_mem_available
                0x000276ac        0x2 examples/beaconing/CMakeFiles/beaconing_nrf52840_xxAA_s140_6.1.1.dir/__/__/mesh/access/src/access.c.obj
 *fill*         0x000276ae        0x2 
 .text.restore_acquired_subscription
                0x000276b0       0x30 examples/beaconing/CMakeFiles/beaconing_nrf52840_xxAA_s140_6.1.1.dir/__/__/mesh/access/src/access.c.obj
 .text.restore_acquired_element
                0x000276e0       0x1c examples/beaconing/CMakeFiles/beaconing_nrf52840_xxAA_s140_6.1.1.dir/__/__/mesh/access/src/access.c.obj
 .text.restore_flash_data
                0x000276fc       0x28 examples/beaconing/CMakeFiles/beaconing_nrf52840_xxAA_s140_6.1.1.dir/__/__/mesh/access/src/access.c.obj
 .text.check_tx_params
                0x00027724       0x5c examples/beaconing/CMakeFiles/beaconing_nrf52840_xxAA_s140_6.1.1.dir/__/__/mesh/access/src/access.c.obj
 .text.flash_invalidate_complete
                0x00027780        0x6 examples/beaconing/CMakeFiles/beaconing_nrf52840_xxAA_s140_6.1.1.dir/__/__/mesh/access/src/access.c.obj
 *fill*         0x00027786        0x2 
 .text.access_flash_config_clear
                0x00027788       0x3c examples/beaconing/CMakeFiles/beaconing_nrf52840_xxAA_s140_6.1.1.dir/__/__/mesh/access/src/access.c.obj
 .text.access_state_clear
                0x000277c4       0x4c examples/beaconing/CMakeFiles/beaconing_nrf52840_xxAA_s140_6.1.1.dir/__/__/mesh/access/src/access.c.obj
 .text.packet_tx
                0x00027810      0x204 examples/beaconing/CMakeFiles/beaconing_nrf52840_xxAA_s140_6.1.1.dir/__/__/mesh/access/src/access.c.obj
 .text.flash_write_complete
                0x00027a14       0x46 examples/beaconing/CMakeFiles/beaconing_nrf52840_xxAA_s140_6.1.1.dir/__/__/mesh/access/src/access.c.obj
 *fill*         0x00027a5a        0x2 
 .text.access_flash_config_store
                0x00027a5c      0x164 examples/beaconing/CMakeFiles/beaconing_nrf52840_xxAA_s140_6.1.1.dir/__/__/mesh/access/src/access.c.obj
                0x00027a5c                access_flash_config_store
 .text.bitfield_next_get.part.0.constprop.10
                0x00027bc0       0x34 examples/beaconing/CMakeFiles/beaconing_nrf52840_xxAA_s140_6.1.1.dir/__/__/mesh/access/src/access.c.obj
 .text.packet_alloc_and_tx
                0x00027bf4       0xbe examples/beaconing/CMakeFiles/beaconing_nrf52840_xxAA_s140_6.1.1.dir/__/__/mesh/access/src/access.c.obj
 *fill*         0x00027cb2        0x2 
 .text.restore_acquired_model
                0x00027cb4       0x8c examples/beaconing/CMakeFiles/beaconing_nrf52840_xxAA_s140_6.1.1.dir/__/__/mesh/access/src/access.c.obj
 .text.access_flash_config_load
                0x00027d40      0x19c examples/beaconing/CMakeFiles/beaconing_nrf52840_xxAA_s140_6.1.1.dir/__/__/mesh/access/src/access.c.obj
                0x00027d40                access_flash_config_load
 .text.access_incoming_handle
                0x00027edc      0x1ac examples/beaconing/CMakeFiles/beaconing_nrf52840_xxAA_s140_6.1.1.dir/__/__/mesh/access/src/access.c.obj
                0x00027edc                access_incoming_handle
 .text.mesh_msg_handle
                0x00028088      0x1cc examples/beaconing/CMakeFiles/beaconing_nrf52840_xxAA_s140_6.1.1.dir/__/__/mesh/access/src/access.c.obj
 .text.mesh_evt_cb
                0x00028254        0xc examples/beaconing/CMakeFiles/beaconing_nrf52840_xxAA_s140_6.1.1.dir/__/__/mesh/access/src/access.c.obj
 .text.access_packet_tx
                0x00028260       0x32 examples/beaconing/CMakeFiles/beaconing_nrf52840_xxAA_s140_6.1.1.dir/__/__/mesh/access/src/access.c.obj
                0x00028260                access_packet_tx
 .text.access_clear
                0x00028292       0x12 examples/beaconing/CMakeFiles/beaconing_nrf52840_xxAA_s140_6.1.1.dir/__/__/mesh/access/src/access.c.obj
                0x00028292                access_clear
 .text.access_model_add
                0x000282a4      0x1a4 examples/beaconing/CMakeFiles/beaconing_nrf52840_xxAA_s140_6.1.1.dir/__/__/mesh/access/src/access.c.obj
                0x000282a4                access_model_add
 .text.access_model_publish
                0x00028448       0x58 examples/beaconing/CMakeFiles/beaconing_nrf52840_xxAA_s140_6.1.1.dir/__/__/mesh/access/src/access.c.obj
                0x00028448                access_model_publish
 .text.access_model_reply
                0x000284a0       0x1c examples/beaconing/CMakeFiles/beaconing_nrf52840_xxAA_s140_6.1.1.dir/__/__/mesh/access/src/access.c.obj
                0x000284a0                access_model_reply
 .text.access_model_publish_address_set
                0x000284bc       0x3c examples/beaconing/CMakeFiles/beaconing_nrf52840_xxAA_s140_6.1.1.dir/__/__/mesh/access/src/access.c.obj
                0x000284bc                access_model_publish_address_set
 .text.access_model_publish_address_get
                0x000284f8       0x28 examples/beaconing/CMakeFiles/beaconing_nrf52840_xxAA_s140_6.1.1.dir/__/__/mesh/access/src/access.c.obj
                0x000284f8                access_model_publish_address_get
 .text.access_model_publish_retransmit_set
                0x00028520       0x4c examples/beaconing/CMakeFiles/beaconing_nrf52840_xxAA_s140_6.1.1.dir/__/__/mesh/access/src/access.c.obj
                0x00028520                access_model_publish_retransmit_set
 .text.access_model_publish_retransmit_get
                0x0002856c       0x2c examples/beaconing/CMakeFiles/beaconing_nrf52840_xxAA_s140_6.1.1.dir/__/__/mesh/access/src/access.c.obj
                0x0002856c                access_model_publish_retransmit_get
 .text.access_model_publish_period_get
                0x00028598       0x40 examples/beaconing/CMakeFiles/beaconing_nrf52840_xxAA_s140_6.1.1.dir/__/__/mesh/access/src/access.c.obj
                0x00028598                access_model_publish_period_get
 .text.access_publish_timing_update
                0x000285d8       0xc0 examples/beaconing/CMakeFiles/beaconing_nrf52840_xxAA_s140_6.1.1.dir/__/__/mesh/access/src/access.c.obj
 .text.access_model_publish_period_divisor_set
                0x00028698       0x38 examples/beaconing/CMakeFiles/beaconing_nrf52840_xxAA_s140_6.1.1.dir/__/__/mesh/access/src/access.c.obj
                0x00028698                access_model_publish_period_divisor_set
 .text.access_model_publish_period_set
                0x000286d0       0x6c examples/beaconing/CMakeFiles/beaconing_nrf52840_xxAA_s140_6.1.1.dir/__/__/mesh/access/src/access.c.obj
                0x000286d0                access_model_publish_period_set
 .text.access_model_subscription_list_alloc
                0x0002873c       0x5c examples/beaconing/CMakeFiles/beaconing_nrf52840_xxAA_s140_6.1.1.dir/__/__/mesh/access/src/access.c.obj
                0x0002873c                access_model_subscription_list_alloc
 .text.access_model_subscription_add
                0x00028798       0x60 examples/beaconing/CMakeFiles/beaconing_nrf52840_xxAA_s140_6.1.1.dir/__/__/mesh/access/src/access.c.obj
                0x00028798                access_model_subscription_add
 .text.access_model_subscription_remove
                0x000287f8       0x60 examples/beaconing/CMakeFiles/beaconing_nrf52840_xxAA_s140_6.1.1.dir/__/__/mesh/access/src/access.c.obj
                0x000287f8                access_model_subscription_remove
 .text.access_model_subscriptions_get
                0x00028858       0x78 examples/beaconing/CMakeFiles/beaconing_nrf52840_xxAA_s140_6.1.1.dir/__/__/mesh/access/src/access.c.obj
                0x00028858                access_model_subscriptions_get
 .text.access_model_application_bind
                0x000288d0       0x50 examples/beaconing/CMakeFiles/beaconing_nrf52840_xxAA_s140_6.1.1.dir/__/__/mesh/access/src/access.c.obj
                0x000288d0                access_model_application_bind
 .text.access_model_application_unbind
                0x00028920       0x50 examples/beaconing/CMakeFiles/beaconing_nrf52840_xxAA_s140_6.1.1.dir/__/__/mesh/access/src/access.c.obj
                0x00028920                access_model_application_unbind
 .text.access_model_applications_get
                0x00028970       0x5c examples/beaconing/CMakeFiles/beaconing_nrf52840_xxAA_s140_6.1.1.dir/__/__/mesh/access/src/access.c.obj
                0x00028970                access_model_applications_get
 .text.access_model_publish_application_set
                0x000289cc       0x3c examples/beaconing/CMakeFiles/beaconing_nrf52840_xxAA_s140_6.1.1.dir/__/__/mesh/access/src/access.c.obj
                0x000289cc                access_model_publish_application_set
 .text.access_model_publish_application_get
                0x00028a08       0x28 examples/beaconing/CMakeFiles/beaconing_nrf52840_xxAA_s140_6.1.1.dir/__/__/mesh/access/src/access.c.obj
                0x00028a08                access_model_publish_application_get
 .text.access_default_ttl_set
                0x00028a30       0x18 examples/beaconing/CMakeFiles/beaconing_nrf52840_xxAA_s140_6.1.1.dir/__/__/mesh/access/src/access.c.obj
                0x00028a30                access_default_ttl_set
 .text.access_default_ttl_get
                0x00028a48        0xc examples/beaconing/CMakeFiles/beaconing_nrf52840_xxAA_s140_6.1.1.dir/__/__/mesh/access/src/access.c.obj
                0x00028a48                access_default_ttl_get
 .text.access_model_publish_friendship_credential_flag_set
                0x00028a54       0x38 examples/beaconing/CMakeFiles/beaconing_nrf52840_xxAA_s140_6.1.1.dir/__/__/mesh/access/src/access.c.obj
                0x00028a54                access_model_publish_friendship_credential_flag_set
 .text.access_model_publish_friendship_credential_flag_get
                0x00028a8c       0x28 examples/beaconing/CMakeFiles/beaconing_nrf52840_xxAA_s140_6.1.1.dir/__/__/mesh/access/src/access.c.obj
                0x00028a8c                access_model_publish_friendship_credential_flag_get
 .text.access_model_publish_ttl_set
                0x00028ab4       0x40 examples/beaconing/CMakeFiles/beaconing_nrf52840_xxAA_s140_6.1.1.dir/__/__/mesh/access/src/access.c.obj
                0x00028ab4                access_model_publish_ttl_set
 .text.access_model_publish_ttl_get
                0x00028af4       0x28 examples/beaconing/CMakeFiles/beaconing_nrf52840_xxAA_s140_6.1.1.dir/__/__/mesh/access/src/access.c.obj
                0x00028af4                access_model_publish_ttl_get
 .text.access_element_location_get
                0x00028b1c       0x18 examples/beaconing/CMakeFiles/beaconing_nrf52840_xxAA_s140_6.1.1.dir/__/__/mesh/access/src/access.c.obj
                0x00028b1c                access_element_location_get
 .text.access_element_sig_model_count_get
                0x00028b34       0x18 examples/beaconing/CMakeFiles/beaconing_nrf52840_xxAA_s140_6.1.1.dir/__/__/mesh/access/src/access.c.obj
                0x00028b34                access_element_sig_model_count_get
 .text.access_element_vendor_model_count_get
                0x00028b4c       0x18 examples/beaconing/CMakeFiles/beaconing_nrf52840_xxAA_s140_6.1.1.dir/__/__/mesh/access/src/access.c.obj
                0x00028b4c                access_element_vendor_model_count_get
 .text.access_model_id_get
                0x00028b64       0x2c examples/beaconing/CMakeFiles/beaconing_nrf52840_xxAA_s140_6.1.1.dir/__/__/mesh/access/src/access.c.obj
                0x00028b64                access_model_id_get
 .text.access_handle_get
                0x00028b90       0x54 examples/beaconing/CMakeFiles/beaconing_nrf52840_xxAA_s140_6.1.1.dir/__/__/mesh/access/src/access.c.obj
                0x00028b90                access_handle_get
 .text.access_element_models_get
                0x00028be4       0x58 examples/beaconing/CMakeFiles/beaconing_nrf52840_xxAA_s140_6.1.1.dir/__/__/mesh/access/src/access.c.obj
                0x00028be4                access_element_models_get
 .text.access_model_p_args_get
                0x00028c3c       0x28 examples/beaconing/CMakeFiles/beaconing_nrf52840_xxAA_s140_6.1.1.dir/__/__/mesh/access/src/access.c.obj
                0x00028c3c                access_model_p_args_get
 .text.access_model_publication_stop
                0x00028c64       0x58 examples/beaconing/CMakeFiles/beaconing_nrf52840_xxAA_s140_6.1.1.dir/__/__/mesh/access/src/access.c.obj
                0x00028c64                access_model_publication_stop
 .text.access_model_publication_by_appkey_stop
                0x00028cbc       0x4a examples/beaconing/CMakeFiles/beaconing_nrf52840_xxAA_s140_6.1.1.dir/__/__/mesh/access/src/access.c.obj
                0x00028cbc                access_model_publication_by_appkey_stop
 .text.access_flash_area_get
                0x00028d06        0xc examples/beaconing/CMakeFiles/beaconing_nrf52840_xxAA_s140_6.1.1.dir/__/__/mesh/access/src/access.c.obj
                0x00028d06                access_flash_area_get
 *fill*         0x00028d12        0x2 
 .text.add_flash_manager
                0x00028d14       0x54 examples/beaconing/CMakeFiles/beaconing_nrf52840_xxAA_s140_6.1.1.dir/__/__/mesh/access/src/access.c.obj
 .text.access_init
                0x00028d68       0x34 examples/beaconing/CMakeFiles/beaconing_nrf52840_xxAA_s140_6.1.1.dir/__/__/mesh/access/src/access.c.obj
                0x00028d68                access_init
 .text.flash_remove_complete
                0x00028d9c       0x5c examples/beaconing/CMakeFiles/beaconing_nrf52840_xxAA_s140_6.1.1.dir/__/__/mesh/access/src/access.c.obj
 .text.reliable_timer_cb
                0x00028df8      0x18c examples/beaconing/CMakeFiles/beaconing_nrf52840_xxAA_s140_6.1.1.dir/__/__/mesh/access/src/access_reliable.c.obj
 .text.remove_and_reschedule
                0x00028f84       0xbc examples/beaconing/CMakeFiles/beaconing_nrf52840_xxAA_s140_6.1.1.dir/__/__/mesh/access/src/access_reliable.c.obj
 .text.access_reliable_message_rx_cb
                0x00029040       0x68 examples/beaconing/CMakeFiles/beaconing_nrf52840_xxAA_s140_6.1.1.dir/__/__/mesh/access/src/access_reliable.c.obj
                0x00029040                access_reliable_message_rx_cb
 .text.access_reliable_init
                0x000290a8       0x1c examples/beaconing/CMakeFiles/beaconing_nrf52840_xxAA_s140_6.1.1.dir/__/__/mesh/access/src/access_reliable.c.obj
                0x000290a8                access_reliable_init
 .text.access_reliable_cancel_all
                0x000290c4       0x8c examples/beaconing/CMakeFiles/beaconing_nrf52840_xxAA_s140_6.1.1.dir/__/__/mesh/access/src/access_reliable.c.obj
                0x000290c4                access_reliable_cancel_all
 .text.access_model_reliable_cancel
                0x00029150       0x6c examples/beaconing/CMakeFiles/beaconing_nrf52840_xxAA_s140_6.1.1.dir/__/__/mesh/access/src/access_reliable.c.obj
                0x00029150                access_model_reliable_cancel
 .text.bitfield_get
                0x000291bc       0x1a examples/beaconing/CMakeFiles/beaconing_nrf52840_xxAA_s140_6.1.1.dir/__/__/mesh/access/src/device_state_manager.c.obj
 .text.bitfield_set
                0x000291d6       0x18 examples/beaconing/CMakeFiles/beaconing_nrf52840_xxAA_s140_6.1.1.dir/__/__/mesh/access/src/device_state_manager.c.obj
 .text.bitfield_clear
                0x000291ee       0x1a examples/beaconing/CMakeFiles/beaconing_nrf52840_xxAA_s140_6.1.1.dir/__/__/mesh/access/src/device_state_manager.c.obj
 .text.bitfield_is_all_clear
                0x00029208       0x38 examples/beaconing/CMakeFiles/beaconing_nrf52840_xxAA_s140_6.1.1.dir/__/__/mesh/access/src/device_state_manager.c.obj
 .text.address_handle_virtual_valid
                0x00029240       0x18 examples/beaconing/CMakeFiles/beaconing_nrf52840_xxAA_s140_6.1.1.dir/__/__/mesh/access/src/device_state_manager.c.obj
 .text.net_key_handle_get
                0x00029258       0x54 examples/beaconing/CMakeFiles/beaconing_nrf52840_xxAA_s140_6.1.1.dir/__/__/mesh/access/src/device_state_manager.c.obj
 .text.app_key_handle_get
                0x000292ac       0x54 examples/beaconing/CMakeFiles/beaconing_nrf52840_xxAA_s140_6.1.1.dir/__/__/mesh/access/src/device_state_manager.c.obj
 .text.addr_nonvirtual_to_flash_entry
                0x00029300       0x10 examples/beaconing/CMakeFiles/beaconing_nrf52840_xxAA_s140_6.1.1.dir/__/__/mesh/access/src/device_state_manager.c.obj
 .text.devkey_set
                0x00029310       0x50 examples/beaconing/CMakeFiles/beaconing_nrf52840_xxAA_s140_6.1.1.dir/__/__/mesh/access/src/device_state_manager.c.obj
 .text.devkey_to_dsm_entry
                0x00029360       0x18 examples/beaconing/CMakeFiles/beaconing_nrf52840_xxAA_s140_6.1.1.dir/__/__/mesh/access/src/device_state_manager.c.obj
 .text.devkey_to_flash_entry
                0x00029378       0x28 examples/beaconing/CMakeFiles/beaconing_nrf52840_xxAA_s140_6.1.1.dir/__/__/mesh/access/src/device_state_manager.c.obj
 .text.addr_virtual_to_flash_entry
                0x000293a0       0x18 examples/beaconing/CMakeFiles/beaconing_nrf52840_xxAA_s140_6.1.1.dir/__/__/mesh/access/src/device_state_manager.c.obj
 .text.addr_unicast_to_dsm_entry
                0x000293b8        0xc examples/beaconing/CMakeFiles/beaconing_nrf52840_xxAA_s140_6.1.1.dir/__/__/mesh/access/src/device_state_manager.c.obj
 .text.addr_unicast_to_flash_entry
                0x000293c4       0x10 examples/beaconing/CMakeFiles/beaconing_nrf52840_xxAA_s140_6.1.1.dir/__/__/mesh/access/src/device_state_manager.c.obj
 .text.flash_read_callback
                0x000293d4       0xa8 examples/beaconing/CMakeFiles/beaconing_nrf52840_xxAA_s140_6.1.1.dir/__/__/mesh/access/src/device_state_manager.c.obj
 .text.flash_mem_listener_callback
                0x0002947c       0x14 examples/beaconing/CMakeFiles/beaconing_nrf52840_xxAA_s140_6.1.1.dir/__/__/mesh/access/src/device_state_manager.c.obj
 .text.get_subnet_handle
                0x00029490       0x3c examples/beaconing/CMakeFiles/beaconing_nrf52840_xxAA_s140_6.1.1.dir/__/__/mesh/access/src/device_state_manager.c.obj
 .text.appkey_set
                0x000294cc       0x70 examples/beaconing/CMakeFiles/beaconing_nrf52840_xxAA_s140_6.1.1.dir/__/__/mesh/access/src/device_state_manager.c.obj
 .text.appkey_to_flash_entry
                0x0002953c       0x54 examples/beaconing/CMakeFiles/beaconing_nrf52840_xxAA_s140_6.1.1.dir/__/__/mesh/access/src/device_state_manager.c.obj
 .text.subnet_to_flash_entry
                0x00029590       0x60 examples/beaconing/CMakeFiles/beaconing_nrf52840_xxAA_s140_6.1.1.dir/__/__/mesh/access/src/device_state_manager.c.obj
 .text.bitfield_clear_all
                0x000295f0        0xe examples/beaconing/CMakeFiles/beaconing_nrf52840_xxAA_s140_6.1.1.dir/__/__/mesh/access/src/device_state_manager.c.obj
 *fill*         0x000295fe        0x2 
 .text.subnet_set
                0x00029600       0x98 examples/beaconing/CMakeFiles/beaconing_nrf52840_xxAA_s140_6.1.1.dir/__/__/mesh/access/src/device_state_manager.c.obj
 .text.virtual_address_set
                0x00029698       0x4c examples/beaconing/CMakeFiles/beaconing_nrf52840_xxAA_s140_6.1.1.dir/__/__/mesh/access/src/device_state_manager.c.obj
 .text.addr_virtual_to_dsm_entry
                0x000296e4        0xe examples/beaconing/CMakeFiles/beaconing_nrf52840_xxAA_s140_6.1.1.dir/__/__/mesh/access/src/device_state_manager.c.obj
 *fill*         0x000296f2        0x2 
 .text.reset_flash_area
                0x000296f4       0x28 examples/beaconing/CMakeFiles/beaconing_nrf52840_xxAA_s140_6.1.1.dir/__/__/mesh/access/src/device_state_manager.c.obj
 .text.flash_save
                0x0002971c       0x7c examples/beaconing/CMakeFiles/beaconing_nrf52840_xxAA_s140_6.1.1.dir/__/__/mesh/access/src/device_state_manager.c.obj
 .text.flash_invalidate
                0x00029798       0x64 examples/beaconing/CMakeFiles/beaconing_nrf52840_xxAA_s140_6.1.1.dir/__/__/mesh/access/src/device_state_manager.c.obj
 .text.flash_update_all
                0x000297fc       0x6c examples/beaconing/CMakeFiles/beaconing_nrf52840_xxAA_s140_6.1.1.dir/__/__/mesh/access/src/device_state_manager.c.obj
 .text.add_address
                0x00029868      0x108 examples/beaconing/CMakeFiles/beaconing_nrf52840_xxAA_s140_6.1.1.dir/__/__/mesh/access/src/device_state_manager.c.obj
 .text.virtual_address_uuid_index_get
                0x00029970       0x60 examples/beaconing/CMakeFiles/beaconing_nrf52840_xxAA_s140_6.1.1.dir/__/__/mesh/access/src/device_state_manager.c.obj
 .text.add_address_virtual
                0x000299d0       0x74 examples/beaconing/CMakeFiles/beaconing_nrf52840_xxAA_s140_6.1.1.dir/__/__/mesh/access/src/device_state_manager.c.obj
 .text.get_subnet_handle_by_beacon_info
                0x00029a44       0x30 examples/beaconing/CMakeFiles/beaconing_nrf52840_xxAA_s140_6.1.1.dir/__/__/mesh/access/src/device_state_manager.c.obj
 .text.get_app_handle
                0x00029a74       0x44 examples/beaconing/CMakeFiles/beaconing_nrf52840_xxAA_s140_6.1.1.dir/__/__/mesh/access/src/device_state_manager.c.obj
 .text.appkey_to_dsm_entry
                0x00029ab8       0x68 examples/beaconing/CMakeFiles/beaconing_nrf52840_xxAA_s140_6.1.1.dir/__/__/mesh/access/src/device_state_manager.c.obj
 .text.subnet_to_dsm_entry
                0x00029b20       0x68 examples/beaconing/CMakeFiles/beaconing_nrf52840_xxAA_s140_6.1.1.dir/__/__/mesh/access/src/device_state_manager.c.obj
 .text.flash_operation_complete
                0x00029b88       0x4c examples/beaconing/CMakeFiles/beaconing_nrf52840_xxAA_s140_6.1.1.dir/__/__/mesh/access/src/device_state_manager.c.obj
 .text.flash_invalidate_complete
                0x00029bd4        0x8 examples/beaconing/CMakeFiles/beaconing_nrf52840_xxAA_s140_6.1.1.dir/__/__/mesh/access/src/device_state_manager.c.obj
 .text.flash_write_complete
                0x00029bdc        0x8 examples/beaconing/CMakeFiles/beaconing_nrf52840_xxAA_s140_6.1.1.dir/__/__/mesh/access/src/device_state_manager.c.obj
 .text.bitfield_next_get.part.0.constprop.19
                0x00029be4       0x3c examples/beaconing/CMakeFiles/beaconing_nrf52840_xxAA_s140_6.1.1.dir/__/__/mesh/access/src/device_state_manager.c.obj
 .text.dev_key_handle_get
                0x00029c20       0x30 examples/beaconing/CMakeFiles/beaconing_nrf52840_xxAA_s140_6.1.1.dir/__/__/mesh/access/src/device_state_manager.c.obj
 .text.address_handle_valid
                0x00029c50       0x28 examples/beaconing/CMakeFiles/beaconing_nrf52840_xxAA_s140_6.1.1.dir/__/__/mesh/access/src/device_state_manager.c.obj
 .text.address_delete_if_unused
                0x00029c78       0x78 examples/beaconing/CMakeFiles/beaconing_nrf52840_xxAA_s140_6.1.1.dir/__/__/mesh/access/src/device_state_manager.c.obj
 .text.addr_nonvirtual_to_dsm_entry
                0x00029cf0       0x34 examples/beaconing/CMakeFiles/beaconing_nrf52840_xxAA_s140_6.1.1.dir/__/__/mesh/access/src/device_state_manager.c.obj
 .text.dsm_flash_config_load
                0x00029d24       0x7c examples/beaconing/CMakeFiles/beaconing_nrf52840_xxAA_s140_6.1.1.dir/__/__/mesh/access/src/device_state_manager.c.obj
                0x00029d24                dsm_flash_config_load
 .text.dsm_flash_area_get
                0x00029da0        0xc examples/beaconing/CMakeFiles/beaconing_nrf52840_xxAA_s140_6.1.1.dir/__/__/mesh/access/src/device_state_manager.c.obj
                0x00029da0                dsm_flash_area_get
 .text.build_flash_area
                0x00029dac       0x98 examples/beaconing/CMakeFiles/beaconing_nrf52840_xxAA_s140_6.1.1.dir/__/__/mesh/access/src/device_state_manager.c.obj
 .text.flash_remove_complete
                0x00029e44        0x4 examples/beaconing/CMakeFiles/beaconing_nrf52840_xxAA_s140_6.1.1.dir/__/__/mesh/access/src/device_state_manager.c.obj
 .text.dsm_clear
                0x00029e48       0xb4 examples/beaconing/CMakeFiles/beaconing_nrf52840_xxAA_s140_6.1.1.dir/__/__/mesh/access/src/device_state_manager.c.obj
                0x00029e48                dsm_clear
 .text.dsm_init
                0x00029efc       0x3c examples/beaconing/CMakeFiles/beaconing_nrf52840_xxAA_s140_6.1.1.dir/__/__/mesh/access/src/device_state_manager.c.obj
                0x00029efc                dsm_init
 .text.dsm_local_unicast_addresses_set
                0x00029f38       0x78 examples/beaconing/CMakeFiles/beaconing_nrf52840_xxAA_s140_6.1.1.dir/__/__/mesh/access/src/device_state_manager.c.obj
                0x00029f38                dsm_local_unicast_addresses_set
 .text.dsm_local_unicast_addresses_get
                0x00029fb0       0x20 examples/beaconing/CMakeFiles/beaconing_nrf52840_xxAA_s140_6.1.1.dir/__/__/mesh/access/src/device_state_manager.c.obj
                0x00029fb0                dsm_local_unicast_addresses_get
 .text.dsm_address_publish_add
                0x00029fd0        0x6 examples/beaconing/CMakeFiles/beaconing_nrf52840_xxAA_s140_6.1.1.dir/__/__/mesh/access/src/device_state_manager.c.obj
                0x00029fd0                dsm_address_publish_add
 *fill*         0x00029fd6        0x2 
 .text.dsm_address_publish_add_handle
                0x00029fd8       0x38 examples/beaconing/CMakeFiles/beaconing_nrf52840_xxAA_s140_6.1.1.dir/__/__/mesh/access/src/device_state_manager.c.obj
                0x00029fd8                dsm_address_publish_add_handle
 .text.dsm_address_publish_virtual_add
                0x0002a010        0x6 examples/beaconing/CMakeFiles/beaconing_nrf52840_xxAA_s140_6.1.1.dir/__/__/mesh/access/src/device_state_manager.c.obj
                0x0002a010                dsm_address_publish_virtual_add
 *fill*         0x0002a016        0x2 
 .text.dsm_address_publish_remove
                0x0002a018       0x50 examples/beaconing/CMakeFiles/beaconing_nrf52840_xxAA_s140_6.1.1.dir/__/__/mesh/access/src/device_state_manager.c.obj
                0x0002a018                dsm_address_publish_remove
 .text.dsm_address_subscription_add
                0x0002a068        0x6 examples/beaconing/CMakeFiles/beaconing_nrf52840_xxAA_s140_6.1.1.dir/__/__/mesh/access/src/device_state_manager.c.obj
                0x0002a068                dsm_address_subscription_add
 .text.dsm_address_subscription_virtual_add
                0x0002a06e        0x6 examples/beaconing/CMakeFiles/beaconing_nrf52840_xxAA_s140_6.1.1.dir/__/__/mesh/access/src/device_state_manager.c.obj
                0x0002a06e                dsm_address_subscription_virtual_add
 .text.dsm_address_subscription_add_handle
                0x0002a074       0x38 examples/beaconing/CMakeFiles/beaconing_nrf52840_xxAA_s140_6.1.1.dir/__/__/mesh/access/src/device_state_manager.c.obj
                0x0002a074                dsm_address_subscription_add_handle
 .text.dsm_address_get
                0x0002a0ac       0x64 examples/beaconing/CMakeFiles/beaconing_nrf52840_xxAA_s140_6.1.1.dir/__/__/mesh/access/src/device_state_manager.c.obj
                0x0002a0ac                dsm_address_get
 .text.dsm_address_subscription_remove
                0x0002a110       0x5c examples/beaconing/CMakeFiles/beaconing_nrf52840_xxAA_s140_6.1.1.dir/__/__/mesh/access/src/device_state_manager.c.obj
                0x0002a110                dsm_address_subscription_remove
 .text.dsm_address_handle_get
                0x0002a16c       0x98 examples/beaconing/CMakeFiles/beaconing_nrf52840_xxAA_s140_6.1.1.dir/__/__/mesh/access/src/device_state_manager.c.obj
                0x0002a16c                dsm_address_handle_get
 .text.dsm_net_key_index_to_subnet_handle
                0x0002a204       0x1c examples/beaconing/CMakeFiles/beaconing_nrf52840_xxAA_s140_6.1.1.dir/__/__/mesh/access/src/device_state_manager.c.obj
                0x0002a204                dsm_net_key_index_to_subnet_handle
 .text.dsm_subnet_handle_get
                0x0002a220        0xc examples/beaconing/CMakeFiles/beaconing_nrf52840_xxAA_s140_6.1.1.dir/__/__/mesh/access/src/device_state_manager.c.obj
                0x0002a220                dsm_subnet_handle_get
 .text.dsm_appkey_index_to_appkey_handle
                0x0002a22c       0x1c examples/beaconing/CMakeFiles/beaconing_nrf52840_xxAA_s140_6.1.1.dir/__/__/mesh/access/src/device_state_manager.c.obj
                0x0002a22c                dsm_appkey_index_to_appkey_handle
 .text.dsm_appkey_handle_get
                0x0002a248        0xc examples/beaconing/CMakeFiles/beaconing_nrf52840_xxAA_s140_6.1.1.dir/__/__/mesh/access/src/device_state_manager.c.obj
                0x0002a248                dsm_appkey_handle_get
 .text.dsm_appkey_handle_to_appkey_index
                0x0002a254       0x34 examples/beaconing/CMakeFiles/beaconing_nrf52840_xxAA_s140_6.1.1.dir/__/__/mesh/access/src/device_state_manager.c.obj
                0x0002a254                dsm_appkey_handle_to_appkey_index
 .text.dsm_appkey_handle_to_subnet_handle
                0x0002a288       0x9c examples/beaconing/CMakeFiles/beaconing_nrf52840_xxAA_s140_6.1.1.dir/__/__/mesh/access/src/device_state_manager.c.obj
                0x0002a288                dsm_appkey_handle_to_subnet_handle
 .text.dsm_subnet_add
                0x0002a324      0x11c examples/beaconing/CMakeFiles/beaconing_nrf52840_xxAA_s140_6.1.1.dir/__/__/mesh/access/src/device_state_manager.c.obj
                0x0002a324                dsm_subnet_add
 .text.dsm_subnet_kr_phase_get
                0x0002a440       0x34 examples/beaconing/CMakeFiles/beaconing_nrf52840_xxAA_s140_6.1.1.dir/__/__/mesh/access/src/device_state_manager.c.obj
                0x0002a440                dsm_subnet_kr_phase_get
 .text.dsm_subnet_update
                0x0002a474       0xc0 examples/beaconing/CMakeFiles/beaconing_nrf52840_xxAA_s140_6.1.1.dir/__/__/mesh/access/src/device_state_manager.c.obj
                0x0002a474                dsm_subnet_update
 .text.dsm_subnet_update_swap_keys
                0x0002a534       0x5c examples/beaconing/CMakeFiles/beaconing_nrf52840_xxAA_s140_6.1.1.dir/__/__/mesh/access/src/device_state_manager.c.obj
                0x0002a534                dsm_subnet_update_swap_keys
 .text.dsm_subnet_update_commit
                0x0002a590       0xf4 examples/beaconing/CMakeFiles/beaconing_nrf52840_xxAA_s140_6.1.1.dir/__/__/mesh/access/src/device_state_manager.c.obj
                0x0002a590                dsm_subnet_update_commit
 .text.mesh_evt_handler
                0x0002a684       0x4c examples/beaconing/CMakeFiles/beaconing_nrf52840_xxAA_s140_6.1.1.dir/__/__/mesh/access/src/device_state_manager.c.obj
 .text.dsm_subnet_get_all
                0x0002a6d0       0x5c examples/beaconing/CMakeFiles/beaconing_nrf52840_xxAA_s140_6.1.1.dir/__/__/mesh/access/src/device_state_manager.c.obj
                0x0002a6d0                dsm_subnet_get_all
 .text.dsm_devkey_add
                0x0002a72c      0x124 examples/beaconing/CMakeFiles/beaconing_nrf52840_xxAA_s140_6.1.1.dir/__/__/mesh/access/src/device_state_manager.c.obj
                0x0002a72c                dsm_devkey_add
 .text.dsm_appkey_add
                0x0002a850      0x12c examples/beaconing/CMakeFiles/beaconing_nrf52840_xxAA_s140_6.1.1.dir/__/__/mesh/access/src/device_state_manager.c.obj
                0x0002a850                dsm_appkey_add
 .text.dsm_appkey_update
                0x0002a97c       0xa4 examples/beaconing/CMakeFiles/beaconing_nrf52840_xxAA_s140_6.1.1.dir/__/__/mesh/access/src/device_state_manager.c.obj
                0x0002a97c                dsm_appkey_update
 .text.dsm_appkey_delete
                0x0002aa20       0x30 examples/beaconing/CMakeFiles/beaconing_nrf52840_xxAA_s140_6.1.1.dir/__/__/mesh/access/src/device_state_manager.c.obj
                0x0002aa20                dsm_appkey_delete
 .text.dsm_subnet_delete
                0x0002aa50       0xa8 examples/beaconing/CMakeFiles/beaconing_nrf52840_xxAA_s140_6.1.1.dir/__/__/mesh/access/src/device_state_manager.c.obj
                0x0002aa50                dsm_subnet_delete
 .text.dsm_appkey_get_all
                0x0002aaf8       0x80 examples/beaconing/CMakeFiles/beaconing_nrf52840_xxAA_s140_6.1.1.dir/__/__/mesh/access/src/device_state_manager.c.obj
                0x0002aaf8                dsm_appkey_get_all
 .text.dsm_tx_secmat_get
                0x0002ab78       0xc0 examples/beaconing/CMakeFiles/beaconing_nrf52840_xxAA_s140_6.1.1.dir/__/__/mesh/access/src/device_state_manager.c.obj
                0x0002ab78                dsm_tx_secmat_get
 .text.dsm_net_secmat_from_keyindex_get
                0x0002ac38       0x3c examples/beaconing/CMakeFiles/beaconing_nrf52840_xxAA_s140_6.1.1.dir/__/__/mesh/access/src/device_state_manager.c.obj
                0x0002ac38                dsm_net_secmat_from_keyindex_get
 .text.nrf_mesh_net_secmat_next_get
                0x0002ac74       0xa8 examples/beaconing/CMakeFiles/beaconing_nrf52840_xxAA_s140_6.1.1.dir/__/__/mesh/access/src/device_state_manager.c.obj
                0x0002ac74                nrf_mesh_net_secmat_next_get
 .text.nrf_mesh_app_secmat_next_get
                0x0002ad1c       0x8c examples/beaconing/CMakeFiles/beaconing_nrf52840_xxAA_s140_6.1.1.dir/__/__/mesh/access/src/device_state_manager.c.obj
                0x0002ad1c                nrf_mesh_app_secmat_next_get
 .text.nrf_mesh_devkey_secmat_get
                0x0002ada8       0x28 examples/beaconing/CMakeFiles/beaconing_nrf52840_xxAA_s140_6.1.1.dir/__/__/mesh/access/src/device_state_manager.c.obj
                0x0002ada8                nrf_mesh_devkey_secmat_get
 .text.nrf_mesh_beacon_info_next_get
                0x0002add0       0xd0 examples/beaconing/CMakeFiles/beaconing_nrf52840_xxAA_s140_6.1.1.dir/__/__/mesh/access/src/device_state_manager.c.obj
                0x0002add0                nrf_mesh_beacon_info_next_get
 .text.nrf_mesh_rx_address_get
                0x0002aea0      0x158 examples/beaconing/CMakeFiles/beaconing_nrf52840_xxAA_s140_6.1.1.dir/__/__/mesh/access/src/device_state_manager.c.obj
                0x0002aea0                nrf_mesh_rx_address_get
 .text.nrf_mesh_unicast_address_get
                0x0002aff8       0x20 examples/beaconing/CMakeFiles/beaconing_nrf52840_xxAA_s140_6.1.1.dir/__/__/mesh/access/src/device_state_manager.c.obj
                0x0002aff8                nrf_mesh_unicast_address_get
 .text.nrf_mesh_is_address_rx
                0x0002b018       0x48 examples/beaconing/CMakeFiles/beaconing_nrf52840_xxAA_s140_6.1.1.dir/__/__/mesh/access/src/device_state_manager.c.obj
                0x0002b018                nrf_mesh_is_address_rx
 .text._weak_handler
                0x0002b060        0x4 examples/beaconing/CMakeFiles/beaconing_nrf52840_xxAA_s140_6.1.1.dir/__/nrf_mesh_weak.c.obj
                0x0002b060                nrf_mesh_dfu_init
                0x0002b060                nrf_mesh_dfu_jump_to_bootloader
                0x0002b060                nrf_mesh_dfu_rx
                0x0002b060                prov_provisioner_provision
                0x0002b060                nrf_mesh_dfu_bank_info_get
                0x0002b060                prov_provisioner_oob_pubkey
                0x0002b060                nrf_mesh_dfu_request
                0x0002b060                nrf_mesh_dfu_bank_flash
                0x0002b060                nrf_mesh_dfu_enable
                0x0002b060                _weak_handler
                0x0002b060                nrf_mesh_dfu_relay
                0x0002b060                nrf_mesh_dfu_abort
                0x0002b060                mesh_flash_op_execute
                0x0002b060                prov_provisionee_init
                0x0002b060                nrf_mesh_dfu_state_get
                0x0002b060                prov_provisioner_shared_secret
                0x0002b060                prov_provisioner_auth_data
                0x0002b060                prov_provisioner_oob_use
 .text.app_error_fault_handler
                0x0002b064      0x200 examples/beaconing/CMakeFiles/beaconing_nrf52840_xxAA_s140_6.1.1.dir/__/common/src/app_error_weak.c.obj
                0x0002b064                app_error_fault_handler
 .text.mesh_assertion_handler
                0x0002b264       0x24 examples/beaconing/CMakeFiles/beaconing_nrf52840_xxAA_s140_6.1.1.dir/__/common/src/assertion_handler_weak.c.obj
                0x0002b264                mesh_assertion_handler
 .text.config_composition_data_get
                0x0002b288      0x166 examples/beaconing/CMakeFiles/beaconing_nrf52840_xxAA_s140_6.1.1.dir/__/__/models/foundation/config/src/composition_data.c.obj
                0x0002b288                config_composition_data_get
 *fill*         0x0002b3ee        0x2 
 .text.app_evt_send
                0x0002b3f0       0x10 examples/beaconing/CMakeFiles/beaconing_nrf52840_xxAA_s140_6.1.1.dir/__/__/models/foundation/config/src/config_server.c.obj
 .text.get_element_index
                0x0002b400       0x1c examples/beaconing/CMakeFiles/beaconing_nrf52840_xxAA_s140_6.1.1.dir/__/__/models/foundation/config/src/config_server.c.obj
 .text.config_server_heartbeat_publication_params_get
                0x0002b41c       0x30 examples/beaconing/CMakeFiles/beaconing_nrf52840_xxAA_s140_6.1.1.dir/__/__/models/foundation/config/src/config_server.c.obj
 .text.send_reply
                0x0002b44c       0x34 examples/beaconing/CMakeFiles/beaconing_nrf52840_xxAA_s140_6.1.1.dir/__/__/models/foundation/config/src/config_server.c.obj
 .text.send_network_transmit_status
                0x0002b480       0x5a examples/beaconing/CMakeFiles/beaconing_nrf52840_xxAA_s140_6.1.1.dir/__/__/models/foundation/config/src/config_server.c.obj
 .text.handle_config_network_transmit_set
                0x0002b4da       0x74 examples/beaconing/CMakeFiles/beaconing_nrf52840_xxAA_s140_6.1.1.dir/__/__/models/foundation/config/src/config_server.c.obj
 .text.handle_config_network_transmit_get
                0x0002b54e        0xa examples/beaconing/CMakeFiles/beaconing_nrf52840_xxAA_s140_6.1.1.dir/__/__/models/foundation/config/src/config_server.c.obj
 .text.handle_node_reset
                0x0002b558       0x34 examples/beaconing/CMakeFiles/beaconing_nrf52840_xxAA_s140_6.1.1.dir/__/__/models/foundation/config/src/config_server.c.obj
 .text.handle_node_identity_set
                0x0002b58c       0x44 examples/beaconing/CMakeFiles/beaconing_nrf52840_xxAA_s140_6.1.1.dir/__/__/models/foundation/config/src/config_server.c.obj
 .text.send_netkey_status
                0x0002b5d0       0x2c examples/beaconing/CMakeFiles/beaconing_nrf52840_xxAA_s140_6.1.1.dir/__/__/models/foundation/config/src/config_server.c.obj
 .text.send_relay_status
                0x0002b5fc       0x7e examples/beaconing/CMakeFiles/beaconing_nrf52840_xxAA_s140_6.1.1.dir/__/__/models/foundation/config/src/config_server.c.obj
 .text.handle_config_relay_set
                0x0002b67a       0x9a examples/beaconing/CMakeFiles/beaconing_nrf52840_xxAA_s140_6.1.1.dir/__/__/models/foundation/config/src/config_server.c.obj
 .text.handle_config_relay_get
                0x0002b714        0xa examples/beaconing/CMakeFiles/beaconing_nrf52840_xxAA_s140_6.1.1.dir/__/__/models/foundation/config/src/config_server.c.obj
 .text.send_subscription_status
                0x0002b71e       0x42 examples/beaconing/CMakeFiles/beaconing_nrf52840_xxAA_s140_6.1.1.dir/__/__/models/foundation/config/src/config_server.c.obj
 .text.send_appkey_status
                0x0002b760       0x3a examples/beaconing/CMakeFiles/beaconing_nrf52840_xxAA_s140_6.1.1.dir/__/__/models/foundation/config/src/config_server.c.obj
 .text.handle_netkey_delete
                0x0002b79a       0xbc examples/beaconing/CMakeFiles/beaconing_nrf52840_xxAA_s140_6.1.1.dir/__/__/models/foundation/config/src/config_server.c.obj
 *fill*         0x0002b856        0x2 
 .text.handle_netkey_add_update
                0x0002b858       0x78 examples/beaconing/CMakeFiles/beaconing_nrf52840_xxAA_s140_6.1.1.dir/__/__/models/foundation/config/src/config_server.c.obj
 .text.status_error_sub_send
                0x0002b8d0      0x124 examples/beaconing/CMakeFiles/beaconing_nrf52840_xxAA_s140_6.1.1.dir/__/__/models/foundation/config/src/config_server.c.obj
 .text.delete_all_subscriptions
                0x0002b9f4       0x66 examples/beaconing/CMakeFiles/beaconing_nrf52840_xxAA_s140_6.1.1.dir/__/__/models/foundation/config/src/config_server.c.obj
 .text.send_publication_status
                0x0002ba5a      0x188 examples/beaconing/CMakeFiles/beaconing_nrf52840_xxAA_s140_6.1.1.dir/__/__/models/foundation/config/src/config_server.c.obj
 .text.handle_config_key_refresh_phase_set
                0x0002bbe2       0xc8 examples/beaconing/CMakeFiles/beaconing_nrf52840_xxAA_s140_6.1.1.dir/__/__/models/foundation/config/src/config_server.c.obj
 .text.handle_config_default_ttl_set
                0x0002bcaa       0x50 examples/beaconing/CMakeFiles/beaconing_nrf52840_xxAA_s140_6.1.1.dir/__/__/models/foundation/config/src/config_server.c.obj
 .text.send_net_beacon_state
                0x0002bcfa       0x2c examples/beaconing/CMakeFiles/beaconing_nrf52840_xxAA_s140_6.1.1.dir/__/__/models/foundation/config/src/config_server.c.obj
 .text.handle_config_beacon_get
                0x0002bd26        0xa examples/beaconing/CMakeFiles/beaconing_nrf52840_xxAA_s140_6.1.1.dir/__/__/models/foundation/config/src/config_server.c.obj
 .text.handle_heartbeat_publication_set
                0x0002bd30       0xea examples/beaconing/CMakeFiles/beaconing_nrf52840_xxAA_s140_6.1.1.dir/__/__/models/foundation/config/src/config_server.c.obj
 *fill*         0x0002be1a        0x2 
 .text.mesh_event_cb
                0x0002be1c       0x70 examples/beaconing/CMakeFiles/beaconing_nrf52840_xxAA_s140_6.1.1.dir/__/__/models/foundation/config/src/config_server.c.obj
 .text.handle_node_identity_get
                0x0002be8c       0x3c examples/beaconing/CMakeFiles/beaconing_nrf52840_xxAA_s140_6.1.1.dir/__/__/models/foundation/config/src/config_server.c.obj
 .text.handle_config_gatt_proxy_set.part.6
                0x0002bec8       0x2a examples/beaconing/CMakeFiles/beaconing_nrf52840_xxAA_s140_6.1.1.dir/__/__/models/foundation/config/src/config_server.c.obj
 .text.handle_config_gatt_proxy_set
                0x0002bef2       0x14 examples/beaconing/CMakeFiles/beaconing_nrf52840_xxAA_s140_6.1.1.dir/__/__/models/foundation/config/src/config_server.c.obj
 .text.handle_config_gatt_proxy_get
                0x0002bf06        0xa examples/beaconing/CMakeFiles/beaconing_nrf52840_xxAA_s140_6.1.1.dir/__/__/models/foundation/config/src/config_server.c.obj
 .text.handle_config_friend_set.part.8
                0x0002bf10       0x2a examples/beaconing/CMakeFiles/beaconing_nrf52840_xxAA_s140_6.1.1.dir/__/__/models/foundation/config/src/config_server.c.obj
 .text.handle_config_friend_set
                0x0002bf3a       0x14 examples/beaconing/CMakeFiles/beaconing_nrf52840_xxAA_s140_6.1.1.dir/__/__/models/foundation/config/src/config_server.c.obj
 .text.handle_config_friend_get
                0x0002bf4e        0xa examples/beaconing/CMakeFiles/beaconing_nrf52840_xxAA_s140_6.1.1.dir/__/__/models/foundation/config/src/config_server.c.obj
 .text.handle_netkey_get
                0x0002bf58       0x50 examples/beaconing/CMakeFiles/beaconing_nrf52840_xxAA_s140_6.1.1.dir/__/__/models/foundation/config/src/config_server.c.obj
 .text.handle_appkey_get
                0x0002bfa8       0x82 examples/beaconing/CMakeFiles/beaconing_nrf52840_xxAA_s140_6.1.1.dir/__/__/models/foundation/config/src/config_server.c.obj
 .text.status_error_pub_send
                0x0002c02a       0x90 examples/beaconing/CMakeFiles/beaconing_nrf52840_xxAA_s140_6.1.1.dir/__/__/models/foundation/config/src/config_server.c.obj
 .text.handle_config_key_refresh_phase_get
                0x0002c0ba       0x58 examples/beaconing/CMakeFiles/beaconing_nrf52840_xxAA_s140_6.1.1.dir/__/__/models/foundation/config/src/config_server.c.obj
 .text.handle_config_default_ttl_get
                0x0002c112       0x30 examples/beaconing/CMakeFiles/beaconing_nrf52840_xxAA_s140_6.1.1.dir/__/__/models/foundation/config/src/config_server.c.obj
 .text.handle_config_beacon_set
                0x0002c142       0x42 examples/beaconing/CMakeFiles/beaconing_nrf52840_xxAA_s140_6.1.1.dir/__/__/models/foundation/config/src/config_server.c.obj
 .text.handle_composition_data_get
                0x0002c184       0x44 examples/beaconing/CMakeFiles/beaconing_nrf52840_xxAA_s140_6.1.1.dir/__/__/models/foundation/config/src/config_server.c.obj
 .text.handle_appkey_add
                0x0002c1c8      0x140 examples/beaconing/CMakeFiles/beaconing_nrf52840_xxAA_s140_6.1.1.dir/__/__/models/foundation/config/src/config_server.c.obj
 .text.get_subscription_list.constprop.24
                0x0002c308       0x4e examples/beaconing/CMakeFiles/beaconing_nrf52840_xxAA_s140_6.1.1.dir/__/__/models/foundation/config/src/config_server.c.obj
 .text.handle_config_sig_model_subscription_get
                0x0002c356       0xa2 examples/beaconing/CMakeFiles/beaconing_nrf52840_xxAA_s140_6.1.1.dir/__/__/models/foundation/config/src/config_server.c.obj
 .text.heartbeat_subscription_count_encode
                0x0002c3f8       0x32 examples/beaconing/CMakeFiles/beaconing_nrf52840_xxAA_s140_6.1.1.dir/__/__/models/foundation/config/src/config_server.c.obj
 .text.heartbeat_pubsub_period_encode
                0x0002c42a       0x26 examples/beaconing/CMakeFiles/beaconing_nrf52840_xxAA_s140_6.1.1.dir/__/__/models/foundation/config/src/config_server.c.obj
 .text.handle_heartbeat_publication_get
                0x0002c450       0x8a examples/beaconing/CMakeFiles/beaconing_nrf52840_xxAA_s140_6.1.1.dir/__/__/models/foundation/config/src/config_server.c.obj
 .text.handle_heartbeat_subscription_get
                0x0002c4da       0x84 examples/beaconing/CMakeFiles/beaconing_nrf52840_xxAA_s140_6.1.1.dir/__/__/models/foundation/config/src/config_server.c.obj
 .text.handle_appkey_update
                0x0002c55e       0xbc examples/beaconing/CMakeFiles/beaconing_nrf52840_xxAA_s140_6.1.1.dir/__/__/models/foundation/config/src/config_server.c.obj
 .text.handle_appkey_delete
                0x0002c61a       0xc2 examples/beaconing/CMakeFiles/beaconing_nrf52840_xxAA_s140_6.1.1.dir/__/__/models/foundation/config/src/config_server.c.obj
 .text.handle_heartbeat_subscription_set
                0x0002c6dc       0xa8 examples/beaconing/CMakeFiles/beaconing_nrf52840_xxAA_s140_6.1.1.dir/__/__/models/foundation/config/src/config_server.c.obj
 .text.handle_config_model_publication_get
                0x0002c784       0x8c examples/beaconing/CMakeFiles/beaconing_nrf52840_xxAA_s140_6.1.1.dir/__/__/models/foundation/config/src/config_server.c.obj
 .text.handle_config_model_subscription_delete_all
                0x0002c810       0xc2 examples/beaconing/CMakeFiles/beaconing_nrf52840_xxAA_s140_6.1.1.dir/__/__/models/foundation/config/src/config_server.c.obj
 .text.handle_config_model_subscription_virtual_address_delete
                0x0002c8d2      0x108 examples/beaconing/CMakeFiles/beaconing_nrf52840_xxAA_s140_6.1.1.dir/__/__/models/foundation/config/src/config_server.c.obj
 .text.handle_config_model_subscription_virtual_address_add
                0x0002c9da      0x106 examples/beaconing/CMakeFiles/beaconing_nrf52840_xxAA_s140_6.1.1.dir/__/__/models/foundation/config/src/config_server.c.obj
 .text.handle_config_model_subscription_delete
                0x0002cae0      0x10e examples/beaconing/CMakeFiles/beaconing_nrf52840_xxAA_s140_6.1.1.dir/__/__/models/foundation/config/src/config_server.c.obj
 .text.handle_config_model_subscription_add
                0x0002cbee      0x112 examples/beaconing/CMakeFiles/beaconing_nrf52840_xxAA_s140_6.1.1.dir/__/__/models/foundation/config/src/config_server.c.obj
 .text.handle_config_model_subscription_virtual_address_overwrite
                0x0002cd00      0x120 examples/beaconing/CMakeFiles/beaconing_nrf52840_xxAA_s140_6.1.1.dir/__/__/models/foundation/config/src/config_server.c.obj
 .text.handle_model_app_get
                0x0002ce20      0x19c examples/beaconing/CMakeFiles/beaconing_nrf52840_xxAA_s140_6.1.1.dir/__/__/models/foundation/config/src/config_server.c.obj
 .text.handle_config_model_subscription_overwrite
                0x0002cfbc      0x11a examples/beaconing/CMakeFiles/beaconing_nrf52840_xxAA_s140_6.1.1.dir/__/__/models/foundation/config/src/config_server.c.obj
 .text.handle_config_vendor_model_subscription_get
                0x0002d0d6       0xde examples/beaconing/CMakeFiles/beaconing_nrf52840_xxAA_s140_6.1.1.dir/__/__/models/foundation/config/src/config_server.c.obj
 .text.handle_model_app_bind_unbind
                0x0002d1b4      0x1ec examples/beaconing/CMakeFiles/beaconing_nrf52840_xxAA_s140_6.1.1.dir/__/__/models/foundation/config/src/config_server.c.obj
 .text.handle_config_model_publication_set
                0x0002d3a0      0x2d6 examples/beaconing/CMakeFiles/beaconing_nrf52840_xxAA_s140_6.1.1.dir/__/__/models/foundation/config/src/config_server.c.obj
 *fill*         0x0002d676        0x2 
 .text.config_server_init
                0x0002d678       0x60 examples/beaconing/CMakeFiles/beaconing_nrf52840_xxAA_s140_6.1.1.dir/__/__/models/foundation/config/src/config_server.c.obj
                0x0002d678                config_server_init
 .text.config_server_bind
                0x0002d6d8       0x10 examples/beaconing/CMakeFiles/beaconing_nrf52840_xxAA_s140_6.1.1.dir/__/__/models/foundation/config/src/config_server.c.obj
                0x0002d6d8                config_server_bind
 .text.packed_index_list_create
                0x0002d6e8       0x32 examples/beaconing/CMakeFiles/beaconing_nrf52840_xxAA_s140_6.1.1.dir/__/__/models/foundation/config/src/packed_index_list.c.obj
                0x0002d6e8                packed_index_list_create
 *fill*         0x0002d71a        0x2 
 .text.health_server_fpd_get
                0x0002d71c       0x20 examples/beaconing/CMakeFiles/beaconing_nrf52840_xxAA_s140_6.1.1.dir/__/__/models/foundation/health/src/health_server.c.obj
 .text.health_server_fpd_delete
                0x0002d73c       0x20 examples/beaconing/CMakeFiles/beaconing_nrf52840_xxAA_s140_6.1.1.dir/__/__/models/foundation/health/src/health_server.c.obj
 .text.attention_timer_handler
                0x0002d75c       0x5c examples/beaconing/CMakeFiles/beaconing_nrf52840_xxAA_s140_6.1.1.dir/__/__/models/foundation/health/src/health_server.c.obj
 .text.send_attention_status
                0x0002d7b8       0x44 examples/beaconing/CMakeFiles/beaconing_nrf52840_xxAA_s140_6.1.1.dir/__/__/models/foundation/health/src/health_server.c.obj
 .text.handle_attention_get
                0x0002d7fc        0xc examples/beaconing/CMakeFiles/beaconing_nrf52840_xxAA_s140_6.1.1.dir/__/__/models/foundation/health/src/health_server.c.obj
 .text.send_period_status
                0x0002d808       0x40 examples/beaconing/CMakeFiles/beaconing_nrf52840_xxAA_s140_6.1.1.dir/__/__/models/foundation/health/src/health_server.c.obj
 .text.handle_period_get
                0x0002d848        0xc examples/beaconing/CMakeFiles/beaconing_nrf52840_xxAA_s140_6.1.1.dir/__/__/models/foundation/health/src/health_server.c.obj
 .text.attention_timer_set.part.1
                0x0002d854       0x84 examples/beaconing/CMakeFiles/beaconing_nrf52840_xxAA_s140_6.1.1.dir/__/__/models/foundation/health/src/health_server.c.obj
 .text.handle_attention_set
                0x0002d8d8       0x32 examples/beaconing/CMakeFiles/beaconing_nrf52840_xxAA_s140_6.1.1.dir/__/__/models/foundation/health/src/health_server.c.obj
 *fill*         0x0002d90a        0x2 
 .text.handle_period_set
                0x0002d90c       0x4c examples/beaconing/CMakeFiles/beaconing_nrf52840_xxAA_s140_6.1.1.dir/__/__/models/foundation/health/src/health_server.c.obj
 .text.bitfield_next_get.part.0.constprop.10
                0x0002d958       0x44 examples/beaconing/CMakeFiles/beaconing_nrf52840_xxAA_s140_6.1.1.dir/__/__/models/foundation/health/src/health_server.c.obj
 .text.send_fault_status
                0x0002d99c       0x8c examples/beaconing/CMakeFiles/beaconing_nrf52840_xxAA_s140_6.1.1.dir/__/__/models/foundation/health/src/health_server.c.obj
 .text.health_publish_timeout_handler
                0x0002da28        0xa examples/beaconing/CMakeFiles/beaconing_nrf52840_xxAA_s140_6.1.1.dir/__/__/models/foundation/health/src/health_server.c.obj
 .text.handle_fault_test
                0x0002da32       0x66 examples/beaconing/CMakeFiles/beaconing_nrf52840_xxAA_s140_6.1.1.dir/__/__/models/foundation/health/src/health_server.c.obj
 .text.handle_fault_get
                0x0002da98       0x32 examples/beaconing/CMakeFiles/beaconing_nrf52840_xxAA_s140_6.1.1.dir/__/__/models/foundation/health/src/health_server.c.obj
 .text.handle_fault_clear
                0x0002daca       0x48 examples/beaconing/CMakeFiles/beaconing_nrf52840_xxAA_s140_6.1.1.dir/__/__/models/foundation/health/src/health_server.c.obj
 .text.health_server_fault_count_get
                0x0002db12       0x2c examples/beaconing/CMakeFiles/beaconing_nrf52840_xxAA_s140_6.1.1.dir/__/__/models/foundation/health/src/health_server.c.obj
                0x0002db12                health_server_fault_count_get
 *fill*         0x0002db3e        0x2 
 .text.health_server_fpd_set
                0x0002db40       0x44 examples/beaconing/CMakeFiles/beaconing_nrf52840_xxAA_s140_6.1.1.dir/__/__/models/foundation/health/src/health_server.c.obj
 .text.health_server_init
                0x0002db84       0x78 examples/beaconing/CMakeFiles/beaconing_nrf52840_xxAA_s140_6.1.1.dir/__/__/models/foundation/health/src/health_server.c.obj
                0x0002db84                health_server_init
 .text.complete_provisioning
                0x0002dbfc       0x24 examples/beaconing/CMakeFiles/beaconing_nrf52840_xxAA_s140_6.1.1.dir/__/__/mesh/prov/src/prov_provisionee.c.obj
 .text.prov_provisionee_cb_link_established
                0x0002dc20       0x36 examples/beaconing/CMakeFiles/beaconing_nrf52840_xxAA_s140_6.1.1.dir/__/__/mesh/prov/src/prov_provisionee.c.obj
 .text.prov_provisionee_cb_link_closed
                0x0002dc56       0x34 examples/beaconing/CMakeFiles/beaconing_nrf52840_xxAA_s140_6.1.1.dir/__/__/mesh/prov/src/prov_provisionee.c.obj
 .text.request_authentication
                0x0002dc8a       0x8a examples/beaconing/CMakeFiles/beaconing_nrf52840_xxAA_s140_6.1.1.dir/__/__/mesh/prov/src/prov_provisionee.c.obj
 .text.send_failed
                0x0002dd14       0x42 examples/beaconing/CMakeFiles/beaconing_nrf52840_xxAA_s140_6.1.1.dir/__/__/mesh/prov/src/prov_provisionee.c.obj
 .text.start_authentication
                0x0002dd56       0x52 examples/beaconing/CMakeFiles/beaconing_nrf52840_xxAA_s140_6.1.1.dir/__/__/mesh/prov/src/prov_provisionee.c.obj
 .text.prov_provisionee_cb_ack_received
                0x0002dda8      0x108 examples/beaconing/CMakeFiles/beaconing_nrf52840_xxAA_s140_6.1.1.dir/__/__/mesh/prov/src/prov_provisionee.c.obj
 .text.prov_provisionee_pkt_in
                0x0002deb0      0x390 examples/beaconing/CMakeFiles/beaconing_nrf52840_xxAA_s140_6.1.1.dir/__/__/mesh/prov/src/prov_provisionee.c.obj
 .text.prov_provisionee_listen
                0x0002e240       0x30 examples/beaconing/CMakeFiles/beaconing_nrf52840_xxAA_s140_6.1.1.dir/__/__/mesh/prov/src/prov_provisionee.c.obj
                0x0002e240                prov_provisionee_listen
 .text.prov_provisionee_auth_data
                0x0002e270       0x48 examples/beaconing/CMakeFiles/beaconing_nrf52840_xxAA_s140_6.1.1.dir/__/__/mesh/prov/src/prov_provisionee.c.obj
                0x0002e270                prov_provisionee_auth_data
 .text.bearer_compare_callback
                0x0002e2b8        0xc examples/beaconing/CMakeFiles/beaconing_nrf52840_xxAA_s140_6.1.1.dir/__/__/mesh/prov/src/nrf_mesh_prov.c.obj
 .text.utils_reverse_array.constprop.2
                0x0002e2c4       0x1c examples/beaconing/CMakeFiles/beaconing_nrf52840_xxAA_s140_6.1.1.dir/__/__/mesh/prov/src/nrf_mesh_prov.c.obj
 .text.bitfield_next_get.part.0.constprop.5
                0x0002e2e0       0x34 examples/beaconing/CMakeFiles/beaconing_nrf52840_xxAA_s140_6.1.1.dir/__/__/mesh/prov/src/nrf_mesh_prov.c.obj
 .text.nrf_mesh_prov_init
                0x0002e314       0x32 examples/beaconing/CMakeFiles/beaconing_nrf52840_xxAA_s140_6.1.1.dir/__/__/mesh/prov/src/nrf_mesh_prov.c.obj
                0x0002e314                nrf_mesh_prov_init
 *fill*         0x0002e346        0x2 
 .text.nrf_mesh_prov_bearer_add
                0x0002e348       0x28 examples/beaconing/CMakeFiles/beaconing_nrf52840_xxAA_s140_6.1.1.dir/__/__/mesh/prov/src/nrf_mesh_prov.c.obj
                0x0002e348                nrf_mesh_prov_bearer_add
 .text.nrf_mesh_prov_generate_keys
                0x0002e370        0x4 examples/beaconing/CMakeFiles/beaconing_nrf52840_xxAA_s140_6.1.1.dir/__/__/mesh/prov/src/nrf_mesh_prov.c.obj
                0x0002e370                nrf_mesh_prov_generate_keys
 .text.nrf_mesh_prov_listen_stop
                0x0002e374       0x2e examples/beaconing/CMakeFiles/beaconing_nrf52840_xxAA_s140_6.1.1.dir/__/__/mesh/prov/src/nrf_mesh_prov.c.obj
                0x0002e374                nrf_mesh_prov_listen_stop
 .text.nrf_mesh_prov_listen
                0x0002e3a2       0x8a examples/beaconing/CMakeFiles/beaconing_nrf52840_xxAA_s140_6.1.1.dir/__/__/mesh/prov/src/nrf_mesh_prov.c.obj
                0x0002e3a2                nrf_mesh_prov_listen
 .text.nrf_mesh_prov_auth_data_provide
                0x0002e42c       0xf4 examples/beaconing/CMakeFiles/beaconing_nrf52840_xxAA_s140_6.1.1.dir/__/__/mesh/prov/src/nrf_mesh_prov.c.obj
                0x0002e42c                nrf_mesh_prov_auth_data_provide
 .text.send_data
                0x0002e520       0x28 examples/beaconing/CMakeFiles/beaconing_nrf52840_xxAA_s140_6.1.1.dir/__/__/mesh/prov/src/provisioning.c.obj
 .text.prov_packet_length_valid
                0x0002e548       0x1c examples/beaconing/CMakeFiles/beaconing_nrf52840_xxAA_s140_6.1.1.dir/__/__/mesh/prov/src/provisioning.c.obj
                0x0002e548                prov_packet_length_valid
 .text.prov_tx_capabilities
                0x0002e564       0x1e examples/beaconing/CMakeFiles/beaconing_nrf52840_xxAA_s140_6.1.1.dir/__/__/mesh/prov/src/provisioning.c.obj
                0x0002e564                prov_tx_capabilities
 .text.prov_tx_public_key
                0x0002e582       0x26 examples/beaconing/CMakeFiles/beaconing_nrf52840_xxAA_s140_6.1.1.dir/__/__/mesh/prov/src/provisioning.c.obj
                0x0002e582                prov_tx_public_key
 .text.prov_tx_input_complete
                0x0002e5a8       0x16 examples/beaconing/CMakeFiles/beaconing_nrf52840_xxAA_s140_6.1.1.dir/__/__/mesh/prov/src/provisioning.c.obj
                0x0002e5a8                prov_tx_input_complete
 .text.prov_tx_confirmation
                0x0002e5be       0x26 examples/beaconing/CMakeFiles/beaconing_nrf52840_xxAA_s140_6.1.1.dir/__/__/mesh/prov/src/provisioning.c.obj
                0x0002e5be                prov_tx_confirmation
 .text.prov_tx_random
                0x0002e5e4       0x26 examples/beaconing/CMakeFiles/beaconing_nrf52840_xxAA_s140_6.1.1.dir/__/__/mesh/prov/src/provisioning.c.obj
                0x0002e5e4                prov_tx_random
 .text.prov_tx_complete
                0x0002e60a       0x16 examples/beaconing/CMakeFiles/beaconing_nrf52840_xxAA_s140_6.1.1.dir/__/__/mesh/prov/src/provisioning.c.obj
                0x0002e60a                prov_tx_complete
 .text.prov_tx_failed
                0x0002e620       0x1a examples/beaconing/CMakeFiles/beaconing_nrf52840_xxAA_s140_6.1.1.dir/__/__/mesh/prov/src/provisioning.c.obj
                0x0002e620                prov_tx_failed
 .text.prov_beacon_unprov_build
                0x0002e63a       0x54 examples/beaconing/CMakeFiles/beaconing_nrf52840_xxAA_s140_6.1.1.dir/__/__/mesh/prov/src/prov_beacon.c.obj
                0x0002e63a                prov_beacon_unprov_build
 *fill*         0x0002e68e        0x2 
 .text.prov_beacon_unprov_packet_in
                0x0002e690       0x88 examples/beaconing/CMakeFiles/beaconing_nrf52840_xxAA_s140_6.1.1.dir/__/__/mesh/prov/src/prov_beacon.c.obj
                0x0002e690                prov_beacon_unprov_packet_in
 .text.ecdh_setter
                0x0002e718       0x14 examples/beaconing/CMakeFiles/beaconing_nrf52840_xxAA_s140_6.1.1.dir/__/__/mesh/prov/src/prov_utils.c.obj
 .text.ecdh_getter
                0x0002e72c       0x10 examples/beaconing/CMakeFiles/beaconing_nrf52840_xxAA_s140_6.1.1.dir/__/__/mesh/prov/src/prov_utils.c.obj
 .text.ecdh_deleter
                0x0002e73c       0x10 examples/beaconing/CMakeFiles/beaconing_nrf52840_xxAA_s140_6.1.1.dir/__/__/mesh/prov/src/prov_utils.c.obj
 .text.oob_gen_alphanumeric
                0x0002e74c       0x34 examples/beaconing/CMakeFiles/beaconing_nrf52840_xxAA_s140_6.1.1.dir/__/__/mesh/prov/src/prov_utils.c.obj
 .text.oob_gen_numeric
                0x0002e780       0x3c examples/beaconing/CMakeFiles/beaconing_nrf52840_xxAA_s140_6.1.1.dir/__/__/mesh/prov/src/prov_utils.c.obj
 .text.prov_utils_authentication_values_derive
                0x0002e7bc       0xa0 examples/beaconing/CMakeFiles/beaconing_nrf52840_xxAA_s140_6.1.1.dir/__/__/mesh/prov/src/prov_utils.c.obj
                0x0002e7bc                prov_utils_authentication_values_derive
 .text.prov_utils_keys_generate
                0x0002e85c       0x1e examples/beaconing/CMakeFiles/beaconing_nrf52840_xxAA_s140_6.1.1.dir/__/__/mesh/prov/src/prov_utils.c.obj
                0x0002e85c                prov_utils_keys_generate
 *fill*         0x0002e87a        0x2 
 .text.prov_utils_derive_keys
                0x0002e87c       0xac examples/beaconing/CMakeFiles/beaconing_nrf52840_xxAA_s140_6.1.1.dir/__/__/mesh/prov/src/prov_utils.c.obj
                0x0002e87c                prov_utils_derive_keys
 .text.prov_utils_is_valid_public_key
                0x0002e928       0x18 examples/beaconing/CMakeFiles/beaconing_nrf52840_xxAA_s140_6.1.1.dir/__/__/mesh/prov/src/prov_utils.c.obj
                0x0002e928                prov_utils_is_valid_public_key
 .text.prov_utils_calculate_shared_secret
                0x0002e940       0x34 examples/beaconing/CMakeFiles/beaconing_nrf52840_xxAA_s140_6.1.1.dir/__/__/mesh/prov/src/prov_utils.c.obj
                0x0002e940                prov_utils_calculate_shared_secret
 .text.prov_utils_generate_oob_data
                0x0002e974       0x98 examples/beaconing/CMakeFiles/beaconing_nrf52840_xxAA_s140_6.1.1.dir/__/__/mesh/prov/src/prov_utils.c.obj
                0x0002e974                prov_utils_generate_oob_data
 .text.prov_utils_confirmation_check
                0x0002ea0c       0x5c examples/beaconing/CMakeFiles/beaconing_nrf52840_xxAA_s140_6.1.1.dir/__/__/mesh/prov/src/prov_utils.c.obj
                0x0002ea0c                prov_utils_confirmation_check
 .text.prov_utils_auth_data_is_alphanumeric
                0x0002ea68       0x26 examples/beaconing/CMakeFiles/beaconing_nrf52840_xxAA_s140_6.1.1.dir/__/__/mesh/prov/src/prov_utils.c.obj
                0x0002ea68                prov_utils_auth_data_is_alphanumeric
 *fill*         0x0002ea8e        0x2 
 .text.prov_utils_auth_data_is_valid_number
                0x0002ea90       0x34 examples/beaconing/CMakeFiles/beaconing_nrf52840_xxAA_s140_6.1.1.dir/__/__/mesh/prov/src/prov_utils.c.obj
                0x0002ea90                prov_utils_auth_data_is_valid_number
 .text.mesh_opt_prov_ecdh_offloading_get
                0x0002eac4       0x10 examples/beaconing/CMakeFiles/beaconing_nrf52840_xxAA_s140_6.1.1.dir/__/__/mesh/prov/src/prov_utils.c.obj
                0x0002eac4                mesh_opt_prov_ecdh_offloading_get
 .text.prov_utils_use_ecdh_offloading
                0x0002ead4       0x1c examples/beaconing/CMakeFiles/beaconing_nrf52840_xxAA_s140_6.1.1.dir/__/__/mesh/prov/src/prov_utils.c.obj
                0x0002ead4                prov_utils_use_ecdh_offloading
 .text.prov_utils_is_valid_pdu
                0x0002eaf0       0x30 examples/beaconing/CMakeFiles/beaconing_nrf52840_xxAA_s140_6.1.1.dir/__/__/mesh/prov/src/prov_utils.c.obj
                0x0002eaf0                prov_utils_is_valid_pdu
 .text.link_timeout_cb
                0x0002eb20       0x10 examples/beaconing/CMakeFiles/beaconing_nrf52840_xxAA_s140_6.1.1.dir/__/__/mesh/prov/src/prov_bearer_adv.c.obj
 .text.remove_active_bearer
                0x0002eb30       0x4c examples/beaconing/CMakeFiles/beaconing_nrf52840_xxAA_s140_6.1.1.dir/__/__/mesh/prov/src/prov_bearer_adv.c.obj
 .text.close_link
                0x0002eb7c       0x58 examples/beaconing/CMakeFiles/beaconing_nrf52840_xxAA_s140_6.1.1.dir/__/__/mesh/prov/src/prov_bearer_adv.c.obj
 .text.prov_bearer_adv_listen_stop
                0x0002ebd4       0x30 examples/beaconing/CMakeFiles/beaconing_nrf52840_xxAA_s140_6.1.1.dir/__/__/mesh/prov/src/prov_bearer_adv.c.obj
 .text.send_packet
                0x0002ec04       0x5c examples/beaconing/CMakeFiles/beaconing_nrf52840_xxAA_s140_6.1.1.dir/__/__/mesh/prov/src/prov_bearer_adv.c.obj
 .text.prov_buffer_tx
                0x0002ec60      0x134 examples/beaconing/CMakeFiles/beaconing_nrf52840_xxAA_s140_6.1.1.dir/__/__/mesh/prov/src/prov_bearer_adv.c.obj
 .text.send_link_close
                0x0002ed94       0x28 examples/beaconing/CMakeFiles/beaconing_nrf52840_xxAA_s140_6.1.1.dir/__/__/mesh/prov/src/prov_bearer_adv.c.obj
 .text.prov_bearer_adv_link_close
                0x0002edbc       0x54 examples/beaconing/CMakeFiles/beaconing_nrf52840_xxAA_s140_6.1.1.dir/__/__/mesh/prov/src/prov_bearer_adv.c.obj
 .text.send_transaction_ack
                0x0002ee10       0x24 examples/beaconing/CMakeFiles/beaconing_nrf52840_xxAA_s140_6.1.1.dir/__/__/mesh/prov/src/prov_bearer_adv.c.obj
 .text.send_link_ack
                0x0002ee34       0x24 examples/beaconing/CMakeFiles/beaconing_nrf52840_xxAA_s140_6.1.1.dir/__/__/mesh/prov/src/prov_bearer_adv.c.obj
 .text.reset_timeout_timer
                0x0002ee58       0x1a examples/beaconing/CMakeFiles/beaconing_nrf52840_xxAA_s140_6.1.1.dir/__/__/mesh/prov/src/prov_bearer_adv.c.obj
 *fill*         0x0002ee72        0x2 
 .text.tx_complete_cb
                0x0002ee74       0x1c examples/beaconing/CMakeFiles/beaconing_nrf52840_xxAA_s140_6.1.1.dir/__/__/mesh/prov/src/prov_bearer_adv.c.obj
 .text.tx_retry_cb
                0x0002ee90       0xcc examples/beaconing/CMakeFiles/beaconing_nrf52840_xxAA_s140_6.1.1.dir/__/__/mesh/prov/src/prov_bearer_adv.c.obj
 .text.add_active_bearer
                0x0002ef5c       0x80 examples/beaconing/CMakeFiles/beaconing_nrf52840_xxAA_s140_6.1.1.dir/__/__/mesh/prov/src/prov_bearer_adv.c.obj
 .text.prov_bearer_adv_link_open
                0x0002efdc       0xe0 examples/beaconing/CMakeFiles/beaconing_nrf52840_xxAA_s140_6.1.1.dir/__/__/mesh/prov/src/prov_bearer_adv.c.obj
 .text.async_process
                0x0002f0bc       0x50 examples/beaconing/CMakeFiles/beaconing_nrf52840_xxAA_s140_6.1.1.dir/__/__/mesh/prov/src/prov_bearer_adv.c.obj
 .text.prov_bearer_adv_listen
                0x0002f10c       0xdc examples/beaconing/CMakeFiles/beaconing_nrf52840_xxAA_s140_6.1.1.dir/__/__/mesh/prov/src/prov_bearer_adv.c.obj
 .text.calculate_3GPP_CRC
                0x0002f1e8       0x24 examples/beaconing/CMakeFiles/beaconing_nrf52840_xxAA_s140_6.1.1.dir/__/__/mesh/prov/src/prov_bearer_adv.c.obj
                0x0002f1e8                calculate_3GPP_CRC
 .text.prov_bearer_adv_tx
                0x0002f20c       0xac examples/beaconing/CMakeFiles/beaconing_nrf52840_xxAA_s140_6.1.1.dir/__/__/mesh/prov/src/prov_bearer_adv.c.obj
 .text.prov_buffer_rx
                0x0002f2b8       0x7a examples/beaconing/CMakeFiles/beaconing_nrf52840_xxAA_s140_6.1.1.dir/__/__/mesh/prov/src/prov_bearer_adv.c.obj
 *fill*         0x0002f332        0x2 
 .text.nrf_mesh_prov_bearer_adv_interface_get
                0x0002f334       0x3c examples/beaconing/CMakeFiles/beaconing_nrf52840_xxAA_s140_6.1.1.dir/__/__/mesh/prov/src/prov_bearer_adv.c.obj
                0x0002f334                nrf_mesh_prov_bearer_adv_interface_get
 .text.prov_bearer_adv_packet_in
                0x0002f370      0x82c examples/beaconing/CMakeFiles/beaconing_nrf52840_xxAA_s140_6.1.1.dir/__/__/mesh/prov/src/prov_bearer_adv.c.obj
                0x0002f370                prov_bearer_adv_packet_in
 .text.nrf_mesh_configure_device_uuid_set
                0x0002fb9c       0x10 examples/beaconing/CMakeFiles/beaconing_nrf52840_xxAA_s140_6.1.1.dir/__/__/mesh/core/src/nrf_mesh_configure.c.obj
                0x0002fb9c                nrf_mesh_configure_device_uuid_set
 .text.nrf_mesh_configure_device_uuid_reset
                0x0002fbac       0x3c examples/beaconing/CMakeFiles/beaconing_nrf52840_xxAA_s140_6.1.1.dir/__/__/mesh/core/src/nrf_mesh_configure.c.obj
                0x0002fbac                nrf_mesh_configure_device_uuid_reset
 .text.nrf_mesh_configure_device_uuid_get
                0x0002fbe8        0x8 examples/beaconing/CMakeFiles/beaconing_nrf52840_xxAA_s140_6.1.1.dir/__/__/mesh/core/src/nrf_mesh_configure.c.obj
                0x0002fbe8                nrf_mesh_configure_device_uuid_get
 .text.msg_cache_init
                0x0002fbf0       0x24 examples/beaconing/CMakeFiles/beaconing_nrf52840_xxAA_s140_6.1.1.dir/__/__/mesh/core/src/msg_cache.c.obj
                0x0002fbf0                msg_cache_init
 .text.msg_cache_entry_exists
                0x0002fc14       0x3c examples/beaconing/CMakeFiles/beaconing_nrf52840_xxAA_s140_6.1.1.dir/__/__/mesh/core/src/msg_cache.c.obj
                0x0002fc14                msg_cache_entry_exists
 .text.msg_cache_entry_add
                0x0002fc50       0x2c examples/beaconing/CMakeFiles/beaconing_nrf52840_xxAA_s140_6.1.1.dir/__/__/mesh/core/src/msg_cache.c.obj
                0x0002fc50                msg_cache_entry_add
 .text.seqauth_sequence_number_get
                0x0002fc7c       0x12 examples/beaconing/CMakeFiles/beaconing_nrf52840_xxAA_s140_6.1.1.dir/__/__/mesh/core/src/transport.c.obj
 *fill*         0x0002fc8e        0x2 
 .text.control_packet_callback_get
                0x0002fc90       0x40 examples/beaconing/CMakeFiles/beaconing_nrf52840_xxAA_s140_6.1.1.dir/__/__/mesh/core/src/transport.c.obj
 .text.tx_complete
                0x0002fcd0       0x2c examples/beaconing/CMakeFiles/beaconing_nrf52840_xxAA_s140_6.1.1.dir/__/__/mesh/core/src/transport.c.obj
 .text.seqauth_get
                0x0002fcfc       0x24 examples/beaconing/CMakeFiles/beaconing_nrf52840_xxAA_s140_6.1.1.dir/__/__/mesh/core/src/transport.c.obj
 .text.block_ack_full
                0x0002fd20       0x1a examples/beaconing/CMakeFiles/beaconing_nrf52840_xxAA_s140_6.1.1.dir/__/__/mesh/core/src/transport.c.obj
 *fill*         0x0002fd3a        0x2 
 .text.sar_rx_session_mark_as_handled
                0x0002fd3c       0x5c examples/beaconing/CMakeFiles/beaconing_nrf52840_xxAA_s140_6.1.1.dir/__/__/mesh/core/src/transport.c.obj
 .text.upper_trs_packet_encrypt
                0x0002fd98       0x86 examples/beaconing/CMakeFiles/beaconing_nrf52840_xxAA_s140_6.1.1.dir/__/__/mesh/core/src/transport.c.obj
 *fill*         0x0002fe1e        0x2 
 .text.sar_ctx_alloc
                0x0002fe20       0xbc examples/beaconing/CMakeFiles/beaconing_nrf52840_xxAA_s140_6.1.1.dir/__/__/mesh/core/src/transport.c.obj
 .text.sar_ctx_free
                0x0002fedc       0x3a examples/beaconing/CMakeFiles/beaconing_nrf52840_xxAA_s140_6.1.1.dir/__/__/mesh/core/src/transport.c.obj
 .text.sar_ctx_tx_complete
                0x0002ff16       0x2e examples/beaconing/CMakeFiles/beaconing_nrf52840_xxAA_s140_6.1.1.dir/__/__/mesh/core/src/transport.c.obj
 .text.transport_metadata_validate
                0x0002ff44       0x54 examples/beaconing/CMakeFiles/beaconing_nrf52840_xxAA_s140_6.1.1.dir/__/__/mesh/core/src/transport.c.obj
 .text.test_transport_decrypt
                0x0002ff98       0x88 examples/beaconing/CMakeFiles/beaconing_nrf52840_xxAA_s140_6.1.1.dir/__/__/mesh/core/src/transport.c.obj
 .text.replay_list_add
                0x00030020       0x44 examples/beaconing/CMakeFiles/beaconing_nrf52840_xxAA_s140_6.1.1.dir/__/__/mesh/core/src/transport.c.obj
 .text.upper_transport_access_packet_in
                0x00030064      0x1a0 examples/beaconing/CMakeFiles/beaconing_nrf52840_xxAA_s140_6.1.1.dir/__/__/mesh/core/src/transport.c.obj
 .text.trs_packet_header_build
                0x00030204       0xa4 examples/beaconing/CMakeFiles/beaconing_nrf52840_xxAA_s140_6.1.1.dir/__/__/mesh/core/src/transport.c.obj
 .text.unsegmented_packet_tx
                0x000302a8       0x82 examples/beaconing/CMakeFiles/beaconing_nrf52840_xxAA_s140_6.1.1.dir/__/__/mesh/core/src/transport.c.obj
 *fill*         0x0003032a        0x2 
 .text.tx_retry_timer_reset
                0x0003032c       0x3c examples/beaconing/CMakeFiles/beaconing_nrf52840_xxAA_s140_6.1.1.dir/__/__/mesh/core/src/transport.c.obj
 .text.sar_ctx_cancel
                0x00030368       0xb0 examples/beaconing/CMakeFiles/beaconing_nrf52840_xxAA_s140_6.1.1.dir/__/__/mesh/core/src/transport.c.obj
 .text.abort_timeout
                0x00030418        0x8 examples/beaconing/CMakeFiles/beaconing_nrf52840_xxAA_s140_6.1.1.dir/__/__/mesh/core/src/transport.c.obj
 .text.retry_timeout
                0x00030420       0x4c examples/beaconing/CMakeFiles/beaconing_nrf52840_xxAA_s140_6.1.1.dir/__/__/mesh/core/src/transport.c.obj
 .text.trs_sar_packet_out
                0x0003046c       0xf4 examples/beaconing/CMakeFiles/beaconing_nrf52840_xxAA_s140_6.1.1.dir/__/__/mesh/core/src/transport.c.obj
 .text.transport_control_packet_in
                0x00030560      0x1dc examples/beaconing/CMakeFiles/beaconing_nrf52840_xxAA_s140_6.1.1.dir/__/__/mesh/core/src/transport.c.obj
 .text.segmented_packet_tx
                0x0003073c      0x140 examples/beaconing/CMakeFiles/beaconing_nrf52840_xxAA_s140_6.1.1.dir/__/__/mesh/core/src/transport.c.obj
 .text.transport_init
                0x0003087c       0x84 examples/beaconing/CMakeFiles/beaconing_nrf52840_xxAA_s140_6.1.1.dir/__/__/mesh/core/src/transport.c.obj
                0x0003087c                transport_init
 .text.transport_enable
                0x00030900        0x4 examples/beaconing/CMakeFiles/beaconing_nrf52840_xxAA_s140_6.1.1.dir/__/__/mesh/core/src/transport.c.obj
                0x00030900                transport_enable
 .text.transport_tx
                0x00030904       0xec examples/beaconing/CMakeFiles/beaconing_nrf52840_xxAA_s140_6.1.1.dir/__/__/mesh/core/src/transport.c.obj
                0x00030904                transport_tx
 .text.transport_control_tx
                0x000309f0       0x98 examples/beaconing/CMakeFiles/beaconing_nrf52840_xxAA_s140_6.1.1.dir/__/__/mesh/core/src/transport.c.obj
                0x000309f0                transport_control_tx
 .text.sar_ack_send
                0x00030a88       0xa4 examples/beaconing/CMakeFiles/beaconing_nrf52840_xxAA_s140_6.1.1.dir/__/__/mesh/core/src/transport.c.obj
 .text.ack_timeout
                0x00030b2c       0x30 examples/beaconing/CMakeFiles/beaconing_nrf52840_xxAA_s140_6.1.1.dir/__/__/mesh/core/src/transport.c.obj
 .text.transport_packet_in
                0x00030b5c      0x504 examples/beaconing/CMakeFiles/beaconing_nrf52840_xxAA_s140_6.1.1.dir/__/__/mesh/core/src/transport.c.obj
                0x00030b5c                transport_packet_in
 .text.transport_sar_process
                0x00031060       0x70 examples/beaconing/CMakeFiles/beaconing_nrf52840_xxAA_s140_6.1.1.dir/__/__/mesh/core/src/transport.c.obj
 .text.transport_control_packet_consumer_add
                0x000310d0       0x5c examples/beaconing/CMakeFiles/beaconing_nrf52840_xxAA_s140_6.1.1.dir/__/__/mesh/core/src/transport.c.obj
                0x000310d0                transport_control_packet_consumer_add
 .text.event_handle
                0x0003112c       0x54 examples/beaconing/CMakeFiles/beaconing_nrf52840_xxAA_s140_6.1.1.dir/__/__/mesh/core/src/event.c.obj
                0x0003112c                event_handle
 .text.event_handler_add
                0x00031180       0x20 examples/beaconing/CMakeFiles/beaconing_nrf52840_xxAA_s140_6.1.1.dir/__/__/mesh/core/src/event.c.obj
                0x00031180                event_handler_add
 .text.m_index_increment
                0x000311a0       0x1e examples/beaconing/CMakeFiles/beaconing_nrf52840_xxAA_s140_6.1.1.dir/__/__/mesh/core/src/packet_buffer.c.obj
 .text.m_get_next_packet
                0x000311be       0x1c examples/beaconing/CMakeFiles/beaconing_nrf52840_xxAA_s140_6.1.1.dir/__/__/mesh/core/src/packet_buffer.c.obj
 .text.packet_buffer_init
                0x000311da       0xac examples/beaconing/CMakeFiles/beaconing_nrf52840_xxAA_s140_6.1.1.dir/__/__/mesh/core/src/packet_buffer.c.obj
                0x000311da                packet_buffer_init
 .text.packet_buffer_flush
                0x00031286       0x50 examples/beaconing/CMakeFiles/beaconing_nrf52840_xxAA_s140_6.1.1.dir/__/__/mesh/core/src/packet_buffer.c.obj
                0x00031286                packet_buffer_flush
 .text.packet_buffer_reserve
                0x000312d6       0xa2 examples/beaconing/CMakeFiles/beaconing_nrf52840_xxAA_s140_6.1.1.dir/__/__/mesh/core/src/packet_buffer.c.obj
                0x000312d6                packet_buffer_reserve
 .text.packet_buffer_commit
                0x00031378       0x62 examples/beaconing/CMakeFiles/beaconing_nrf52840_xxAA_s140_6.1.1.dir/__/__/mesh/core/src/packet_buffer.c.obj
                0x00031378                packet_buffer_commit
 .text.packet_buffer_pop
                0x000313da       0x5a examples/beaconing/CMakeFiles/beaconing_nrf52840_xxAA_s140_6.1.1.dir/__/__/mesh/core/src/packet_buffer.c.obj
                0x000313da                packet_buffer_pop
 .text.packet_buffer_can_pop
                0x00031434       0x34 examples/beaconing/CMakeFiles/beaconing_nrf52840_xxAA_s140_6.1.1.dir/__/__/mesh/core/src/packet_buffer.c.obj
                0x00031434                packet_buffer_can_pop
 .text.packet_buffer_packets_ready_to_pop
                0x00031468       0x36 examples/beaconing/CMakeFiles/beaconing_nrf52840_xxAA_s140_6.1.1.dir/__/__/mesh/core/src/packet_buffer.c.obj
                0x00031468                packet_buffer_packets_ready_to_pop
 .text.packet_buffer_free
                0x0003149e       0x74 examples/beaconing/CMakeFiles/beaconing_nrf52840_xxAA_s140_6.1.1.dir/__/__/mesh/core/src/packet_buffer.c.obj
                0x0003149e                packet_buffer_free
 .text.packet_buffer_is_empty
                0x00031512       0x28 examples/beaconing/CMakeFiles/beaconing_nrf52840_xxAA_s140_6.1.1.dir/__/__/mesh/core/src/packet_buffer.c.obj
                0x00031512                packet_buffer_is_empty
 .text.get_last_page
                0x0003153a       0x14 examples/beaconing/CMakeFiles/beaconing_nrf52840_xxAA_s140_6.1.1.dir/__/__/mesh/core/src/flash_manager_defrag.c.obj
 *fill*         0x0003154e        0x2 
 .text.defrag_on_end
                0x00031550       0x1c examples/beaconing/CMakeFiles/beaconing_nrf52840_xxAA_s140_6.1.1.dir/__/__/mesh/core/src/flash_manager_defrag.c.obj
 .text.execute_procedure_step
                0x0003156c       0x70 examples/beaconing/CMakeFiles/beaconing_nrf52840_xxAA_s140_6.1.1.dir/__/__/mesh/core/src/flash_manager_defrag.c.obj
 .text.get_next_entry
                0x000315dc       0x34 examples/beaconing/CMakeFiles/beaconing_nrf52840_xxAA_s140_6.1.1.dir/__/__/mesh/core/src/flash_manager_defrag.c.obj
 .text.get_next_data_entry
                0x00031610       0x26 examples/beaconing/CMakeFiles/beaconing_nrf52840_xxAA_s140_6.1.1.dir/__/__/mesh/core/src/flash_manager_defrag.c.obj
 *fill*         0x00031636        0x2 
 .text.on_flash_op_end
                0x00031638       0x30 examples/beaconing/CMakeFiles/beaconing_nrf52840_xxAA_s140_6.1.1.dir/__/__/mesh/core/src/flash_manager_defrag.c.obj
 .text.check_for_invalid_entries
                0x00031668       0x38 examples/beaconing/CMakeFiles/beaconing_nrf52840_xxAA_s140_6.1.1.dir/__/__/mesh/core/src/flash_manager_defrag.c.obj
 .text.erase_recovery_area
                0x000316a0       0x34 examples/beaconing/CMakeFiles/beaconing_nrf52840_xxAA_s140_6.1.1.dir/__/__/mesh/core/src/flash_manager_defrag.c.obj
 .text.flash.constprop.6
                0x000316d4       0x24 examples/beaconing/CMakeFiles/beaconing_nrf52840_xxAA_s140_6.1.1.dir/__/__/mesh/core/src/flash_manager_defrag.c.obj
 .text.invalidate_duplicate_entries
                0x000316f8       0xa8 examples/beaconing/CMakeFiles/beaconing_nrf52840_xxAA_s140_6.1.1.dir/__/__/mesh/core/src/flash_manager_defrag.c.obj
 .text.seal_storage_page
                0x000317a0       0x50 examples/beaconing/CMakeFiles/beaconing_nrf52840_xxAA_s140_6.1.1.dir/__/__/mesh/core/src/flash_manager_defrag.c.obj
 .text.copy_metadata
                0x000317f0       0x3c examples/beaconing/CMakeFiles/beaconing_nrf52840_xxAA_s140_6.1.1.dir/__/__/mesh/core/src/flash_manager_defrag.c.obj
 .text.write_defrag_start_pointer
                0x0003182c       0x20 examples/beaconing/CMakeFiles/beaconing_nrf52840_xxAA_s140_6.1.1.dir/__/__/mesh/core/src/flash_manager_defrag.c.obj
 .text.write_back
                0x0003184c       0x28 examples/beaconing/CMakeFiles/beaconing_nrf52840_xxAA_s140_6.1.1.dir/__/__/mesh/core/src/flash_manager_defrag.c.obj
 .text.post_process
                0x00031874       0x40 examples/beaconing/CMakeFiles/beaconing_nrf52840_xxAA_s140_6.1.1.dir/__/__/mesh/core/src/flash_manager_defrag.c.obj
 .text.backup_entries
                0x000318b4       0xd8 examples/beaconing/CMakeFiles/beaconing_nrf52840_xxAA_s140_6.1.1.dir/__/__/mesh/core/src/flash_manager_defrag.c.obj
 .text.erase_source
                0x0003198c       0x34 examples/beaconing/CMakeFiles/beaconing_nrf52840_xxAA_s140_6.1.1.dir/__/__/mesh/core/src/flash_manager_defrag.c.obj
 .text.flash_manager_defrag_init
                0x000319c0       0x8c examples/beaconing/CMakeFiles/beaconing_nrf52840_xxAA_s140_6.1.1.dir/__/__/mesh/core/src/flash_manager_defrag.c.obj
                0x000319c0                flash_manager_defrag_init
 .text.flash_manager_defragging
                0x00031a4c       0x38 examples/beaconing/CMakeFiles/beaconing_nrf52840_xxAA_s140_6.1.1.dir/__/__/mesh/core/src/flash_manager_defrag.c.obj
                0x00031a4c                flash_manager_defragging
 .text.flash_manager_defrag_is_running
                0x00031a84       0x10 examples/beaconing/CMakeFiles/beaconing_nrf52840_xxAA_s140_6.1.1.dir/__/__/mesh/core/src/flash_manager_defrag.c.obj
                0x00031a84                flash_manager_defrag_is_running
 .text.flash_manager_defrag
                0x00031a94       0x44 examples/beaconing/CMakeFiles/beaconing_nrf52840_xxAA_s140_6.1.1.dir/__/__/mesh/core/src/flash_manager_defrag.c.obj
                0x00031a94                flash_manager_defrag
 .text.flash_manager_defrag_recovery_page_get
                0x00031ad8        0xc examples/beaconing/CMakeFiles/beaconing_nrf52840_xxAA_s140_6.1.1.dir/__/__/mesh/core/src/flash_manager_defrag.c.obj
                0x00031ad8                flash_manager_defrag_recovery_page_get
 .text.fifo_init
                0x00031ae4       0x34 examples/beaconing/CMakeFiles/beaconing_nrf52840_xxAA_s140_6.1.1.dir/__/__/mesh/core/src/fifo.c.obj
                0x00031ae4                fifo_init
 .text.fifo_pop
                0x00031b18       0x52 examples/beaconing/CMakeFiles/beaconing_nrf52840_xxAA_s140_6.1.1.dir/__/__/mesh/core/src/fifo.c.obj
                0x00031b18                fifo_pop
 *fill*         0x00031b6a        0x2 
 .text.wait_for_ready
                0x00031b6c       0x10 examples/beaconing/CMakeFiles/beaconing_nrf52840_xxAA_s140_6.1.1.dir/__/__/mesh/core/src/nrf_flash.c.obj
 .text.nrf_flash_erase
                0x00031b7c       0x50 examples/beaconing/CMakeFiles/beaconing_nrf52840_xxAA_s140_6.1.1.dir/__/__/mesh/core/src/nrf_flash.c.obj
                0x00031b7c                nrf_flash_erase
 .text.nrf_flash_write
                0x00031bcc       0x50 examples/beaconing/CMakeFiles/beaconing_nrf52840_xxAA_s140_6.1.1.dir/__/__/mesh/core/src/nrf_flash.c.obj
                0x00031bcc                nrf_flash_write
 .text.entry_recover_cb
                0x00031c1c       0x18 examples/beaconing/CMakeFiles/beaconing_nrf52840_xxAA_s140_6.1.1.dir/__/__/mesh/core/src/net_state.c.obj
 .text.flash_store_iv_index
                0x00031c34       0x38 examples/beaconing/CMakeFiles/beaconing_nrf52840_xxAA_s140_6.1.1.dir/__/__/mesh/core/src/net_state.c.obj
 .text.flash_mem_available
                0x00031c6c       0x14 examples/beaconing/CMakeFiles/beaconing_nrf52840_xxAA_s140_6.1.1.dir/__/__/mesh/core/src/net_state.c.obj
 .text.iv_index_notify
                0x00031c80       0x30 examples/beaconing/CMakeFiles/beaconing_nrf52840_xxAA_s140_6.1.1.dir/__/__/mesh/core/src/net_state.c.obj
 .text.seqnum_block_allocate
                0x00031cb0       0x4c examples/beaconing/CMakeFiles/beaconing_nrf52840_xxAA_s140_6.1.1.dir/__/__/mesh/core/src/net_state.c.obj
 .text.net_state_reset
                0x00031cfc       0x48 examples/beaconing/CMakeFiles/beaconing_nrf52840_xxAA_s140_6.1.1.dir/__/__/mesh/core/src/net_state.c.obj
                0x00031cfc                net_state_reset
 .text.flash_write_complete
                0x00031d44       0x64 examples/beaconing/CMakeFiles/beaconing_nrf52840_xxAA_s140_6.1.1.dir/__/__/mesh/core/src/net_state.c.obj
 .text.net_state_recover_from_flash
                0x00031da8       0x60 examples/beaconing/CMakeFiles/beaconing_nrf52840_xxAA_s140_6.1.1.dir/__/__/mesh/core/src/net_state.c.obj
                0x00031da8                net_state_recover_from_flash
 .text.net_state_flash_area_get
                0x00031e08        0xc examples/beaconing/CMakeFiles/beaconing_nrf52840_xxAA_s140_6.1.1.dir/__/__/mesh/core/src/net_state.c.obj
                0x00031e08                net_state_flash_area_get
 .text.init_flash_storage
                0x00031e14       0x40 examples/beaconing/CMakeFiles/beaconing_nrf52840_xxAA_s140_6.1.1.dir/__/__/mesh/core/src/net_state.c.obj
 .text.net_state_init
                0x00031e54       0x44 examples/beaconing/CMakeFiles/beaconing_nrf52840_xxAA_s140_6.1.1.dir/__/__/mesh/core/src/net_state.c.obj
                0x00031e54                net_state_init
 .text.net_state_enable
                0x00031e98       0x30 examples/beaconing/CMakeFiles/beaconing_nrf52840_xxAA_s140_6.1.1.dir/__/__/mesh/core/src/net_state.c.obj
                0x00031e98                net_state_enable
 .text.net_state_iv_update_start
                0x00031ec8       0x50 examples/beaconing/CMakeFiles/beaconing_nrf52840_xxAA_s140_6.1.1.dir/__/__/mesh/core/src/net_state.c.obj
                0x00031ec8                net_state_iv_update_start
 .text.iv_update_trigger_if_pending
                0x00031f18       0x6c examples/beaconing/CMakeFiles/beaconing_nrf52840_xxAA_s140_6.1.1.dir/__/__/mesh/core/src/net_state.c.obj
 .text.iv_update_timer_handler
                0x00031f84       0x64 examples/beaconing/CMakeFiles/beaconing_nrf52840_xxAA_s140_6.1.1.dir/__/__/mesh/core/src/net_state.c.obj
 .text.mesh_evt_handler
                0x00031fe8       0x8c examples/beaconing/CMakeFiles/beaconing_nrf52840_xxAA_s140_6.1.1.dir/__/__/mesh/core/src/net_state.c.obj
 .text.net_state_seqnum_alloc
                0x00032074       0x68 examples/beaconing/CMakeFiles/beaconing_nrf52840_xxAA_s140_6.1.1.dir/__/__/mesh/core/src/net_state.c.obj
                0x00032074                net_state_seqnum_alloc
 .text.net_state_iv_index_lock
                0x000320dc       0x3c examples/beaconing/CMakeFiles/beaconing_nrf52840_xxAA_s140_6.1.1.dir/__/__/mesh/core/src/net_state.c.obj
                0x000320dc                net_state_iv_index_lock
 .text.net_state_key_refresh_phase_changed
                0x00032118       0x20 examples/beaconing/CMakeFiles/beaconing_nrf52840_xxAA_s140_6.1.1.dir/__/__/mesh/core/src/net_state.c.obj
                0x00032118                net_state_key_refresh_phase_changed
 .text.net_state_beacon_iv_index_get
                0x00032138        0xc examples/beaconing/CMakeFiles/beaconing_nrf52840_xxAA_s140_6.1.1.dir/__/__/mesh/core/src/net_state.c.obj
                0x00032138                net_state_beacon_iv_index_get
 .text.net_state_tx_iv_index_get
                0x00032144       0x14 examples/beaconing/CMakeFiles/beaconing_nrf52840_xxAA_s140_6.1.1.dir/__/__/mesh/core/src/net_state.c.obj
                0x00032144                net_state_tx_iv_index_get
 .text.net_state_rx_iv_index_get
                0x00032158       0x18 examples/beaconing/CMakeFiles/beaconing_nrf52840_xxAA_s140_6.1.1.dir/__/__/mesh/core/src/net_state.c.obj
                0x00032158                net_state_rx_iv_index_get
 .text.net_state_iv_update_get
                0x00032170        0xc examples/beaconing/CMakeFiles/beaconing_nrf52840_xxAA_s140_6.1.1.dir/__/__/mesh/core/src/net_state.c.obj
                0x00032170                net_state_iv_update_get
 .text.net_state_iv_index_set
                0x0003217c       0x34 examples/beaconing/CMakeFiles/beaconing_nrf52840_xxAA_s140_6.1.1.dir/__/__/mesh/core/src/net_state.c.obj
                0x0003217c                net_state_iv_index_set
 .text.send_end_events
                0x000321b0       0x84 examples/beaconing/CMakeFiles/beaconing_nrf52840_xxAA_s140_6.1.1.dir/__/__/mesh/core/src/mesh_flash.c.obj
 .text.flash_op_action_prepare
                0x00032234       0x78 examples/beaconing/CMakeFiles/beaconing_nrf52840_xxAA_s140_6.1.1.dir/__/__/mesh/core/src/mesh_flash.c.obj
 .text.flash_op_schedule
                0x000322ac       0x20 examples/beaconing/CMakeFiles/beaconing_nrf52840_xxAA_s140_6.1.1.dir/__/__/mesh/core/src/mesh_flash.c.obj
 .text.flash_op_start
                0x000322cc      0x13c examples/beaconing/CMakeFiles/beaconing_nrf52840_xxAA_s140_6.1.1.dir/__/__/mesh/core/src/mesh_flash.c.obj
 .text.mesh_flash_init
                0x00032408       0x7c examples/beaconing/CMakeFiles/beaconing_nrf52840_xxAA_s140_6.1.1.dir/__/__/mesh/core/src/mesh_flash.c.obj
                0x00032408                mesh_flash_init
 .text.mesh_flash_user_callback_set
                0x00032484       0x20 examples/beaconing/CMakeFiles/beaconing_nrf52840_xxAA_s140_6.1.1.dir/__/__/mesh/core/src/mesh_flash.c.obj
                0x00032484                mesh_flash_user_callback_set
 .text.mesh_flash_op_push
                0x000324a4      0x10c examples/beaconing/CMakeFiles/beaconing_nrf52840_xxAA_s140_6.1.1.dir/__/__/mesh/core/src/mesh_flash.c.obj
                0x000324a4                mesh_flash_op_push
 .text.mesh_flash_set_suspended
                0x000325b0       0x70 examples/beaconing/CMakeFiles/beaconing_nrf52840_xxAA_s140_6.1.1.dir/__/__/mesh/core/src/mesh_flash.c.obj
                0x000325b0                mesh_flash_set_suspended
 .text.nrf_mesh_address_type_get
                0x00032620       0x10 examples/beaconing/CMakeFiles/beaconing_nrf52840_xxAA_s140_6.1.1.dir/__/__/mesh/core/src/nrf_mesh_utils.c.obj
                0x00032620                nrf_mesh_address_type_get
 .text.sd_softdevice_is_enabled
                0x00032630        0x4 examples/beaconing/CMakeFiles/beaconing_nrf52840_xxAA_s140_6.1.1.dir/__/__/mesh/core/src/nrf_mesh.c.obj
 .text.nrf_mesh_listen
                0x00032634      0x138 examples/beaconing/CMakeFiles/beaconing_nrf52840_xxAA_s140_6.1.1.dir/__/__/mesh/core/src/nrf_mesh.c.obj
 .text.scanner_packet_process_cb
                0x0003276c       0x8c examples/beaconing/CMakeFiles/beaconing_nrf52840_xxAA_s140_6.1.1.dir/__/__/mesh/core/src/nrf_mesh.c.obj
 .text.nrf_mesh_init
                0x000327f8       0xe8 examples/beaconing/CMakeFiles/beaconing_nrf52840_xxAA_s140_6.1.1.dir/__/__/mesh/core/src/nrf_mesh.c.obj
                0x000327f8                nrf_mesh_init
 .text.nrf_mesh_enable
                0x000328e0       0xac examples/beaconing/CMakeFiles/beaconing_nrf52840_xxAA_s140_6.1.1.dir/__/__/mesh/core/src/nrf_mesh.c.obj
                0x000328e0                nrf_mesh_enable
 .text.nrf_mesh_packet_send
                0x0003298c        0x4 examples/beaconing/CMakeFiles/beaconing_nrf52840_xxAA_s140_6.1.1.dir/__/__/mesh/core/src/nrf_mesh.c.obj
                0x0003298c                nrf_mesh_packet_send
 .text.nrf_mesh_evt_handler_add
                0x00032990        0x4 examples/beaconing/CMakeFiles/beaconing_nrf52840_xxAA_s140_6.1.1.dir/__/__/mesh/core/src/nrf_mesh.c.obj
                0x00032990                nrf_mesh_evt_handler_add
 .text.nrf_mesh_on_sd_evt
                0x00032994        0xa examples/beaconing/CMakeFiles/beaconing_nrf52840_xxAA_s140_6.1.1.dir/__/__/mesh/core/src/nrf_mesh.c.obj
                0x00032994                nrf_mesh_on_sd_evt
 *fill*         0x0003299e        0x2 
 .text.nrf_mesh_rx_cb_set
                0x000329a0        0xc examples/beaconing/CMakeFiles/beaconing_nrf52840_xxAA_s140_6.1.1.dir/__/__/mesh/core/src/nrf_mesh.c.obj
                0x000329a0                nrf_mesh_rx_cb_set
 .text.nrf_mesh_subnet_added
                0x000329ac        0x2 examples/beaconing/CMakeFiles/beaconing_nrf52840_xxAA_s140_6.1.1.dir/__/__/mesh/core/src/nrf_mesh.c.obj
                0x000329ac                nrf_mesh_subnet_added
 *fill*         0x000329ae        0x2 
 .text.nrf_mesh_unique_token_get
                0x000329b0       0x18 examples/beaconing/CMakeFiles/beaconing_nrf52840_xxAA_s140_6.1.1.dir/__/__/mesh/core/src/nrf_mesh.c.obj
                0x000329b0                nrf_mesh_unique_token_get
 .text.queue_init
                0x000329c8       0x14 examples/beaconing/CMakeFiles/beaconing_nrf52840_xxAA_s140_6.1.1.dir/__/__/mesh/core/src/queue.c.obj
                0x000329c8                queue_init
 .text.queue_push
                0x000329dc       0x34 examples/beaconing/CMakeFiles/beaconing_nrf52840_xxAA_s140_6.1.1.dir/__/__/mesh/core/src/queue.c.obj
                0x000329dc                queue_push
 .text.queue_pop
                0x00032a10       0x26 examples/beaconing/CMakeFiles/beaconing_nrf52840_xxAA_s140_6.1.1.dir/__/__/mesh/core/src/queue.c.obj
                0x00032a10                queue_pop
 .text.queue_peek
                0x00032a36       0x10 examples/beaconing/CMakeFiles/beaconing_nrf52840_xxAA_s140_6.1.1.dir/__/__/mesh/core/src/queue.c.obj
                0x00032a36                queue_peek
 .text.sd_power_reset_reason_clr
                0x00032a46        0x4 examples/beaconing/CMakeFiles/beaconing_nrf52840_xxAA_s140_6.1.1.dir/__/__/mesh/core/src/hal.c.obj
 *fill*         0x00032a4a        0x2 
 .text.hal_device_reset
                0x00032a4c       0x2c examples/beaconing/CMakeFiles/beaconing_nrf52840_xxAA_s140_6.1.1.dir/__/__/mesh/core/src/hal.c.obj
                0x00032a4c                hal_device_reset
 .text.hal_lfclk_ppm_get
                0x00032a78       0x14 examples/beaconing/CMakeFiles/beaconing_nrf52840_xxAA_s140_6.1.1.dir/__/__/mesh/core/src/hal.c.obj
                0x00032a78                hal_lfclk_ppm_get
 .text.hal_irq_active_get
                0x00032a8c       0x10 examples/beaconing/CMakeFiles/beaconing_nrf52840_xxAA_s140_6.1.1.dir/__/__/mesh/core/src/hal.c.obj
                0x00032a8c                hal_irq_active_get
 .text.hal_irq_is_enabled
                0x00032a9c       0x28 examples/beaconing/CMakeFiles/beaconing_nrf52840_xxAA_s140_6.1.1.dir/__/__/mesh/core/src/hal.c.obj
                0x00032a9c                hal_irq_is_enabled
 .text.sd_ecb_block_encrypt
                0x00032ac4        0x4 examples/beaconing/CMakeFiles/beaconing_nrf52840_xxAA_s140_6.1.1.dir/__/__/mesh/core/src/aes_cmac.c.obj
 .text.utils_xor.constprop.1
                0x00032ac8       0x20 examples/beaconing/CMakeFiles/beaconing_nrf52840_xxAA_s140_6.1.1.dir/__/__/mesh/core/src/aes_cmac.c.obj
 .text.aes_cmac
                0x00032ae8      0x10c examples/beaconing/CMakeFiles/beaconing_nrf52840_xxAA_s140_6.1.1.dir/__/__/mesh/core/src/aes_cmac.c.obj
                0x00032ae8                aes_cmac
 .text.add_evt  0x00032bf4       0x50 examples/beaconing/CMakeFiles/beaconing_nrf52840_xxAA_s140_6.1.1.dir/__/__/mesh/core/src/timer_scheduler.c.obj
 .text.remove_evt
                0x00032c44       0x50 examples/beaconing/CMakeFiles/beaconing_nrf52840_xxAA_s140_6.1.1.dir/__/__/mesh/core/src/timer_scheduler.c.obj
 .text.timer_cb
                0x00032c94        0xc examples/beaconing/CMakeFiles/beaconing_nrf52840_xxAA_s140_6.1.1.dir/__/__/mesh/core/src/timer_scheduler.c.obj
 .text.setup_timeout.isra.0
                0x00032ca0       0x1c examples/beaconing/CMakeFiles/beaconing_nrf52840_xxAA_s140_6.1.1.dir/__/__/mesh/core/src/timer_scheduler.c.obj
 .text.flag_event_cb
                0x00032cbc       0xa4 examples/beaconing/CMakeFiles/beaconing_nrf52840_xxAA_s140_6.1.1.dir/__/__/mesh/core/src/timer_scheduler.c.obj
 .text.timer_sch_init
                0x00032d60       0x2c examples/beaconing/CMakeFiles/beaconing_nrf52840_xxAA_s140_6.1.1.dir/__/__/mesh/core/src/timer_scheduler.c.obj
                0x00032d60                timer_sch_init
 .text.timer_sch_schedule
                0x00032d8c       0x44 examples/beaconing/CMakeFiles/beaconing_nrf52840_xxAA_s140_6.1.1.dir/__/__/mesh/core/src/timer_scheduler.c.obj
                0x00032d8c                timer_sch_schedule
 .text.timer_sch_abort
                0x00032dd0       0x2e examples/beaconing/CMakeFiles/beaconing_nrf52840_xxAA_s140_6.1.1.dir/__/__/mesh/core/src/timer_scheduler.c.obj
                0x00032dd0                timer_sch_abort
 .text.timer_sch_reschedule
                0x00032dfe       0x38 examples/beaconing/CMakeFiles/beaconing_nrf52840_xxAA_s140_6.1.1.dir/__/__/mesh/core/src/timer_scheduler.c.obj
                0x00032dfe                timer_sch_reschedule
 .text.timer_init
                0x00032e36       0x1a examples/beaconing/CMakeFiles/beaconing_nrf52840_xxAA_s140_6.1.1.dir/__/__/mesh/core/src/timer.c.obj
                0x00032e36                timer_init
 .text.timer_now
                0x00032e50       0x48 examples/beaconing/CMakeFiles/beaconing_nrf52840_xxAA_s140_6.1.1.dir/__/__/mesh/core/src/timer.c.obj
                0x00032e50                timer_now
 .text.nrf_mesh_timer_tail_handle
                0x00032e98       0x34 examples/beaconing/CMakeFiles/beaconing_nrf52840_xxAA_s140_6.1.1.dir/__/__/mesh/core/src/timer.c.obj
                0x00032e98                nrf_mesh_timer_tail_handle
 .text.nrf_mesh_timer_ovfw_handle
                0x00032ecc       0x98 examples/beaconing/CMakeFiles/beaconing_nrf52840_xxAA_s140_6.1.1.dir/__/__/mesh/core/src/timer.c.obj
                0x00032ecc                nrf_mesh_timer_ovfw_handle
 .text.timer_start
                0x00032f64       0xac examples/beaconing/CMakeFiles/beaconing_nrf52840_xxAA_s140_6.1.1.dir/__/__/mesh/core/src/timer.c.obj
                0x00032f64                timer_start
 .text.timer_stop
                0x00033010       0x30 examples/beaconing/CMakeFiles/beaconing_nrf52840_xxAA_s140_6.1.1.dir/__/__/mesh/core/src/timer.c.obj
                0x00033010                timer_stop
 .text.sd_rand_application_bytes_available_get
                0x00033040        0x4 examples/beaconing/CMakeFiles/beaconing_nrf52840_xxAA_s140_6.1.1.dir/__/__/mesh/core/src/rand.c.obj
 .text.sd_rand_application_vector_get
                0x00033044        0x4 examples/beaconing/CMakeFiles/beaconing_nrf52840_xxAA_s140_6.1.1.dir/__/__/mesh/core/src/rand.c.obj
 .text.rand_prng_get
                0x00033048       0x24 examples/beaconing/CMakeFiles/beaconing_nrf52840_xxAA_s140_6.1.1.dir/__/__/mesh/core/src/rand.c.obj
                0x00033048                rand_prng_get
 .text.rand_hw_rng_get
                0x0003306c       0x44 examples/beaconing/CMakeFiles/beaconing_nrf52840_xxAA_s140_6.1.1.dir/__/__/mesh/core/src/rand.c.obj
                0x0003306c                rand_hw_rng_get
 .text.rand_prng_seed
                0x000330b0       0x34 examples/beaconing/CMakeFiles/beaconing_nrf52840_xxAA_s140_6.1.1.dir/__/__/mesh/core/src/rand.c.obj
                0x000330b0                rand_prng_seed
 .text.mesh_opt_init
                0x000330e4        0x2 examples/beaconing/CMakeFiles/beaconing_nrf52840_xxAA_s140_6.1.1.dir/__/__/mesh/core/src/mesh_opt.c.obj
                0x000330e4                mesh_opt_init
 .text.sd_radio_session_open
                0x000330e6        0x4 examples/beaconing/CMakeFiles/beaconing_nrf52840_xxAA_s140_6.1.1.dir/__/__/mesh/core/src/timeslot.c.obj
 .text.sd_radio_session_close
                0x000330ea        0x4 examples/beaconing/CMakeFiles/beaconing_nrf52840_xxAA_s140_6.1.1.dir/__/__/mesh/core/src/timeslot.c.obj
 .text.sd_radio_request
                0x000330ee        0x4 examples/beaconing/CMakeFiles/beaconing_nrf52840_xxAA_s140_6.1.1.dir/__/__/mesh/core/src/timeslot.c.obj
 *fill*         0x000330f2        0x2 
 .text.end_timer_handler
                0x000330f4       0x24 examples/beaconing/CMakeFiles/beaconing_nrf52840_xxAA_s140_6.1.1.dir/__/__/mesh/core/src/timeslot.c.obj
 .text.get_end_time.isra.3
                0x00033118       0x20 examples/beaconing/CMakeFiles/beaconing_nrf52840_xxAA_s140_6.1.1.dir/__/__/mesh/core/src/timeslot.c.obj
 .text.on_ts_begin.constprop.9
                0x00033138       0x48 examples/beaconing/CMakeFiles/beaconing_nrf52840_xxAA_s140_6.1.1.dir/__/__/mesh/core/src/timeslot.c.obj
 .text.handle_extend_end.constprop.5
                0x00033180       0x88 examples/beaconing/CMakeFiles/beaconing_nrf52840_xxAA_s140_6.1.1.dir/__/__/mesh/core/src/timeslot.c.obj
 .text.radio_signal_callback
                0x00033208      0x12c examples/beaconing/CMakeFiles/beaconing_nrf52840_xxAA_s140_6.1.1.dir/__/__/mesh/core/src/timeslot.c.obj
 .text.timeslot_sd_event_handler
                0x00033334       0x60 examples/beaconing/CMakeFiles/beaconing_nrf52840_xxAA_s140_6.1.1.dir/__/__/mesh/core/src/timeslot.c.obj
                0x00033334                timeslot_sd_event_handler
 .text.timeslot_init
                0x00033394       0x50 examples/beaconing/CMakeFiles/beaconing_nrf52840_xxAA_s140_6.1.1.dir/__/__/mesh/core/src/timeslot.c.obj
                0x00033394                timeslot_init
 .text.timeslot_start
                0x000333e4       0x48 examples/beaconing/CMakeFiles/beaconing_nrf52840_xxAA_s140_6.1.1.dir/__/__/mesh/core/src/timeslot.c.obj
                0x000333e4                timeslot_start
 .text.timeslot_end_is_pending
                0x0003342c       0x28 examples/beaconing/CMakeFiles/beaconing_nrf52840_xxAA_s140_6.1.1.dir/__/__/mesh/core/src/timeslot.c.obj
                0x0003342c                timeslot_end_is_pending
 .text.timeslot_length_get
                0x00033454        0xc examples/beaconing/CMakeFiles/beaconing_nrf52840_xxAA_s140_6.1.1.dir/__/__/mesh/core/src/timeslot.c.obj
                0x00033454                timeslot_length_get
 .text.timeslot_remaining_time_get
                0x00033460       0x24 examples/beaconing/CMakeFiles/beaconing_nrf52840_xxAA_s140_6.1.1.dir/__/__/mesh/core/src/timeslot.c.obj
                0x00033460                timeslot_remaining_time_get
 .text.timeslot_is_in_cb
                0x00033484        0xc examples/beaconing/CMakeFiles/beaconing_nrf52840_xxAA_s140_6.1.1.dir/__/__/mesh/core/src/timeslot.c.obj
                0x00033484                timeslot_is_in_cb
 .text.timeslot_trigger
                0x00033490       0x24 examples/beaconing/CMakeFiles/beaconing_nrf52840_xxAA_s140_6.1.1.dir/__/__/mesh/core/src/timeslot.c.obj
                0x00033490                timeslot_trigger
 .text.timeslot_stop
                0x000334b4       0x1c examples/beaconing/CMakeFiles/beaconing_nrf52840_xxAA_s140_6.1.1.dir/__/__/mesh/core/src/timeslot.c.obj
                0x000334b4                timeslot_stop
 .text.timeslot_restart
                0x000334d0       0x24 examples/beaconing/CMakeFiles/beaconing_nrf52840_xxAA_s140_6.1.1.dir/__/__/mesh/core/src/timeslot.c.obj
                0x000334d0                timeslot_restart
 .text.timeslot_state_lock
                0x000334f4       0x24 examples/beaconing/CMakeFiles/beaconing_nrf52840_xxAA_s140_6.1.1.dir/__/__/mesh/core/src/timeslot.c.obj
                0x000334f4                timeslot_state_lock
 .text.timer_mut_unlock
                0x00033518       0x10 examples/beaconing/CMakeFiles/beaconing_nrf52840_xxAA_s140_6.1.1.dir/__/__/mesh/core/src/timeslot_timer.c.obj
 .text.ts_timer_order_cb
                0x00033528       0x64 examples/beaconing/CMakeFiles/beaconing_nrf52840_xxAA_s140_6.1.1.dir/__/__/mesh/core/src/timeslot_timer.c.obj
                0x00033528                ts_timer_order_cb
 .text.ts_timer_now
                0x0003358c       0x40 examples/beaconing/CMakeFiles/beaconing_nrf52840_xxAA_s140_6.1.1.dir/__/__/mesh/core/src/timeslot_timer.c.obj
                0x0003358c                ts_timer_now
 .text.ts_timer_event_handler
                0x000335cc       0x68 examples/beaconing/CMakeFiles/beaconing_nrf52840_xxAA_s140_6.1.1.dir/__/__/mesh/core/src/timeslot_timer.c.obj
                0x000335cc                ts_timer_event_handler
 .text.ts_timer_to_device_time
                0x00033634        0xc examples/beaconing/CMakeFiles/beaconing_nrf52840_xxAA_s140_6.1.1.dir/__/__/mesh/core/src/timeslot_timer.c.obj
                0x00033634                ts_timer_to_device_time
 .text.ts_timer_on_ts_begin
                0x00033640       0x64 examples/beaconing/CMakeFiles/beaconing_nrf52840_xxAA_s140_6.1.1.dir/__/__/mesh/core/src/timeslot_timer.c.obj
                0x00033640                ts_timer_on_ts_begin
 .text.ts_timer_on_ts_end
                0x000336a4       0x48 examples/beaconing/CMakeFiles/beaconing_nrf52840_xxAA_s140_6.1.1.dir/__/__/mesh/core/src/timeslot_timer.c.obj
                0x000336a4                ts_timer_on_ts_end
 .text.trigger_event_handler
                0x000336ec       0x1c examples/beaconing/CMakeFiles/beaconing_nrf52840_xxAA_s140_6.1.1.dir/__/__/mesh/core/src/bearer_event.c.obj
 .text.bearer_event_init
                0x00033708       0x58 examples/beaconing/CMakeFiles/beaconing_nrf52840_xxAA_s140_6.1.1.dir/__/__/mesh/core/src/bearer_event.c.obj
                0x00033708                bearer_event_init
 .text.bearer_event_start
                0x00033760       0x44 examples/beaconing/CMakeFiles/beaconing_nrf52840_xxAA_s140_6.1.1.dir/__/__/mesh/core/src/bearer_event.c.obj
                0x00033760                bearer_event_start
 .text.bearer_event_critical_section_begin
                0x000337a4       0x80 examples/beaconing/CMakeFiles/beaconing_nrf52840_xxAA_s140_6.1.1.dir/__/__/mesh/core/src/bearer_event.c.obj
                0x000337a4                bearer_event_critical_section_begin
 .text.bearer_event_critical_section_end
                0x00033824       0x60 examples/beaconing/CMakeFiles/beaconing_nrf52840_xxAA_s140_6.1.1.dir/__/__/mesh/core/src/bearer_event.c.obj
                0x00033824                bearer_event_critical_section_end
 .text.bearer_event_flag_add
                0x00033884       0x3c examples/beaconing/CMakeFiles/beaconing_nrf52840_xxAA_s140_6.1.1.dir/__/__/mesh/core/src/bearer_event.c.obj
                0x00033884                bearer_event_flag_add
 .text.bearer_event_flag_set
                0x000338c0       0x44 examples/beaconing/CMakeFiles/beaconing_nrf52840_xxAA_s140_6.1.1.dir/__/__/mesh/core/src/bearer_event.c.obj
                0x000338c0                bearer_event_flag_set
 .text.bearer_event_sequential_add
                0x00033904       0x2e examples/beaconing/CMakeFiles/beaconing_nrf52840_xxAA_s140_6.1.1.dir/__/__/mesh/core/src/bearer_event.c.obj
                0x00033904                bearer_event_sequential_add
 *fill*         0x00033932        0x2 
 .text.bearer_event_sequential_post
                0x00033934       0x44 examples/beaconing/CMakeFiles/beaconing_nrf52840_xxAA_s140_6.1.1.dir/__/__/mesh/core/src/bearer_event.c.obj
                0x00033934                bearer_event_sequential_post
 .text.bearer_event_sequential_pending
                0x00033978       0x10 examples/beaconing/CMakeFiles/beaconing_nrf52840_xxAA_s140_6.1.1.dir/__/__/mesh/core/src/bearer_event.c.obj
                0x00033978                bearer_event_sequential_pending
 .text.bearer_event_handler
                0x00033988       0xe4 examples/beaconing/CMakeFiles/beaconing_nrf52840_xxAA_s140_6.1.1.dir/__/__/mesh/core/src/bearer_event.c.obj
                0x00033988                bearer_event_handler
 .text.QDEC_IRQHandler
                0x00033a6c        0x4 examples/beaconing/CMakeFiles/beaconing_nrf52840_xxAA_s140_6.1.1.dir/__/__/mesh/core/src/bearer_event.c.obj
                0x00033a6c                QDEC_IRQHandler
 .text.bearer_event_in_correct_irq_priority
                0x00033a70       0x74 examples/beaconing/CMakeFiles/beaconing_nrf52840_xxAA_s140_6.1.1.dir/__/__/mesh/core/src/bearer_event.c.obj
                0x00033a70                bearer_event_in_correct_irq_priority
 .text.sd_ecb_block_encrypt
                0x00033ae4        0x4 examples/beaconing/CMakeFiles/beaconing_nrf52840_xxAA_s140_6.1.1.dir/__/__/mesh/core/src/enc.c.obj
 .text.enc_aes_encrypt
                0x00033ae8       0x32 examples/beaconing/CMakeFiles/beaconing_nrf52840_xxAA_s140_6.1.1.dir/__/__/mesh/core/src/enc.c.obj
                0x00033ae8                enc_aes_encrypt
 .text.enc_aes_cmac
                0x00033b1a        0x4 examples/beaconing/CMakeFiles/beaconing_nrf52840_xxAA_s140_6.1.1.dir/__/__/mesh/core/src/enc.c.obj
                0x00033b1a                enc_aes_cmac
 .text.enc_aes_ccm_encrypt
                0x00033b1e        0x4 examples/beaconing/CMakeFiles/beaconing_nrf52840_xxAA_s140_6.1.1.dir/__/__/mesh/core/src/enc.c.obj
                0x00033b1e                enc_aes_ccm_encrypt
 .text.enc_aes_ccm_decrypt
                0x00033b22        0x4 examples/beaconing/CMakeFiles/beaconing_nrf52840_xxAA_s140_6.1.1.dir/__/__/mesh/core/src/enc.c.obj
                0x00033b22                enc_aes_ccm_decrypt
 .text.enc_nonce_generate
                0x00033b26       0xbc examples/beaconing/CMakeFiles/beaconing_nrf52840_xxAA_s140_6.1.1.dir/__/__/mesh/core/src/enc.c.obj
                0x00033b26                enc_nonce_generate
 .text.enc_s1   0x00033be2       0x2c examples/beaconing/CMakeFiles/beaconing_nrf52840_xxAA_s140_6.1.1.dir/__/__/mesh/core/src/enc.c.obj
                0x00033be2                enc_s1
 .text.enc_k1   0x00033c0e       0x3c examples/beaconing/CMakeFiles/beaconing_nrf52840_xxAA_s140_6.1.1.dir/__/__/mesh/core/src/enc.c.obj
                0x00033c0e                enc_k1
 *fill*         0x00033c4a        0x2 
 .text.enc_k2   0x00033c4c       0xc0 examples/beaconing/CMakeFiles/beaconing_nrf52840_xxAA_s140_6.1.1.dir/__/__/mesh/core/src/enc.c.obj
                0x00033c4c                enc_k2
 .text.enc_k3   0x00033d0c       0x5c examples/beaconing/CMakeFiles/beaconing_nrf52840_xxAA_s140_6.1.1.dir/__/__/mesh/core/src/enc.c.obj
                0x00033d0c                enc_k3
 .text.enc_k4   0x00033d68       0x54 examples/beaconing/CMakeFiles/beaconing_nrf52840_xxAA_s140_6.1.1.dir/__/__/mesh/core/src/enc.c.obj
                0x00033d68                enc_k4
 .text.allocate_packet
                0x00033dbc       0x6e examples/beaconing/CMakeFiles/beaconing_nrf52840_xxAA_s140_6.1.1.dir/__/__/mesh/core/src/network.c.obj
 *fill*         0x00033e2a        0x2 
 .text.network_init
                0x00033e2c       0x24 examples/beaconing/CMakeFiles/beaconing_nrf52840_xxAA_s140_6.1.1.dir/__/__/mesh/core/src/network.c.obj
                0x00033e2c                network_init
 .text.network_enable
                0x00033e50        0xe examples/beaconing/CMakeFiles/beaconing_nrf52840_xxAA_s140_6.1.1.dir/__/__/mesh/core/src/network.c.obj
                0x00033e50                network_enable
 .text.network_packet_alloc
                0x00033e5e       0x42 examples/beaconing/CMakeFiles/beaconing_nrf52840_xxAA_s140_6.1.1.dir/__/__/mesh/core/src/network.c.obj
                0x00033e5e                network_packet_alloc
 .text.network_packet_send
                0x00033ea0       0xe0 examples/beaconing/CMakeFiles/beaconing_nrf52840_xxAA_s140_6.1.1.dir/__/__/mesh/core/src/network.c.obj
                0x00033ea0                network_packet_send
 .text.network_packet_in
                0x00033f80      0x2ac examples/beaconing/CMakeFiles/beaconing_nrf52840_xxAA_s140_6.1.1.dir/__/__/mesh/core/src/network.c.obj
                0x00033f80                network_packet_in
 .text.nonce_type_get
                0x0003422c       0x16 examples/beaconing/CMakeFiles/beaconing_nrf52840_xxAA_s140_6.1.1.dir/__/__/mesh/core/src/net_packet.c.obj
 .text.header_transfuscate
                0x00034242       0x54 examples/beaconing/CMakeFiles/beaconing_nrf52840_xxAA_s140_6.1.1.dir/__/__/mesh/core/src/net_packet.c.obj
 *fill*         0x00034296        0x2 
 .text.try_decrypt
                0x00034298      0x18c examples/beaconing/CMakeFiles/beaconing_nrf52840_xxAA_s140_6.1.1.dir/__/__/mesh/core/src/net_packet.c.obj
 .text.net_packet_decrypt
                0x00034424       0x94 examples/beaconing/CMakeFiles/beaconing_nrf52840_xxAA_s140_6.1.1.dir/__/__/mesh/core/src/net_packet.c.obj
                0x00034424                net_packet_decrypt
 .text.net_packet_encrypt
                0x000344b8       0x7e examples/beaconing/CMakeFiles/beaconing_nrf52840_xxAA_s140_6.1.1.dir/__/__/mesh/core/src/net_packet.c.obj
                0x000344b8                net_packet_encrypt
 .text.net_packet_header_set
                0x00034536       0xaa examples/beaconing/CMakeFiles/beaconing_nrf52840_xxAA_s140_6.1.1.dir/__/__/mesh/core/src/net_packet.c.obj
                0x00034536                net_packet_header_set
 .text.net_packet_payload_len_get
                0x000345e0       0x10 examples/beaconing/CMakeFiles/beaconing_nrf52840_xxAA_s140_6.1.1.dir/__/__/mesh/core/src/net_packet.c.obj
                0x000345e0                net_packet_payload_len_get
 .text.net_packet_from_payload
                0x000345f0        0x4 examples/beaconing/CMakeFiles/beaconing_nrf52840_xxAA_s140_6.1.1.dir/__/__/mesh/core/src/net_packet.c.obj
                0x000345f0                net_packet_from_payload
 .text.net_packet_obfuscation_start_get
                0x000345f4        0x4 examples/beaconing/CMakeFiles/beaconing_nrf52840_xxAA_s140_6.1.1.dir/__/__/mesh/core/src/net_packet.c.obj
                0x000345f4                net_packet_obfuscation_start_get
 .text.stage_get_available
                0x000345f8       0x24 examples/beaconing/CMakeFiles/beaconing_nrf52840_xxAA_s140_6.1.1.dir/__/__/mesh/core/src/msqueue.c.obj
 .text.msq_get  0x0003461c       0x38 examples/beaconing/CMakeFiles/beaconing_nrf52840_xxAA_s140_6.1.1.dir/__/__/mesh/core/src/msqueue.c.obj
                0x0003461c                msq_get
 .text.msq_move
                0x00034654       0x2e examples/beaconing/CMakeFiles/beaconing_nrf52840_xxAA_s140_6.1.1.dir/__/__/mesh/core/src/msqueue.c.obj
                0x00034654                msq_move
 .text.msq_reset
                0x00034682       0x20 examples/beaconing/CMakeFiles/beaconing_nrf52840_xxAA_s140_6.1.1.dir/__/__/mesh/core/src/msqueue.c.obj
                0x00034682                msq_reset
 .text.msq_init
                0x000346a2       0x48 examples/beaconing/CMakeFiles/beaconing_nrf52840_xxAA_s140_6.1.1.dir/__/__/mesh/core/src/msqueue.c.obj
                0x000346a2                msq_init
 .text.msq_available
                0x000346ea       0x26 examples/beaconing/CMakeFiles/beaconing_nrf52840_xxAA_s140_6.1.1.dir/__/__/mesh/core/src/msqueue.c.obj
                0x000346ea                msq_available
 .text.nrf_mesh_keygen_aid
                0x00034710       0x12 examples/beaconing/CMakeFiles/beaconing_nrf52840_xxAA_s140_6.1.1.dir/__/__/mesh/core/src/nrf_mesh_keygen.c.obj
                0x00034710                nrf_mesh_keygen_aid
 .text.nrf_mesh_keygen_network_secmat
                0x00034722       0x20 examples/beaconing/CMakeFiles/beaconing_nrf52840_xxAA_s140_6.1.1.dir/__/__/mesh/core/src/nrf_mesh_keygen.c.obj
                0x00034722                nrf_mesh_keygen_network_secmat
 *fill*         0x00034742        0x2 
 .text.nrf_mesh_keygen_beacon_secmat
                0x00034744       0x50 examples/beaconing/CMakeFiles/beaconing_nrf52840_xxAA_s140_6.1.1.dir/__/__/mesh/core/src/nrf_mesh_keygen.c.obj
                0x00034744                nrf_mesh_keygen_beacon_secmat
 .text.nrf_mesh_keygen_virtual_address
                0x00034794       0x50 examples/beaconing/CMakeFiles/beaconing_nrf52840_xxAA_s140_6.1.1.dir/__/__/mesh/core/src/nrf_mesh_keygen.c.obj
                0x00034794                nrf_mesh_keygen_virtual_address
 .text.list_insert
                0x000347e4       0x1c examples/beaconing/CMakeFiles/beaconing_nrf52840_xxAA_s140_6.1.1.dir/__/__/mesh/core/src/list.c.obj
 .text.list_add
                0x00034800       0x42 examples/beaconing/CMakeFiles/beaconing_nrf52840_xxAA_s140_6.1.1.dir/__/__/mesh/core/src/list.c.obj
                0x00034800                list_add
 .text.list_remove
                0x00034842       0x3a examples/beaconing/CMakeFiles/beaconing_nrf52840_xxAA_s140_6.1.1.dir/__/__/mesh/core/src/list.c.obj
                0x00034842                list_remove
 .text.list_compare_add
                0x0003487c       0x56 examples/beaconing/CMakeFiles/beaconing_nrf52840_xxAA_s140_6.1.1.dir/__/__/mesh/core/src/list.c.obj
                0x0003487c                list_compare_add
 *fill*         0x000348d2        0x2 
 .text.log_callback_rtt
                0x000348d4       0x2c examples/beaconing/CMakeFiles/beaconing_nrf52840_xxAA_s140_6.1.1.dir/__/__/mesh/core/src/log.c.obj
                0x000348d4                log_callback_rtt
 .text.log_init
                0x00034900       0x1c examples/beaconing/CMakeFiles/beaconing_nrf52840_xxAA_s140_6.1.1.dir/__/__/mesh/core/src/log.c.obj
                0x00034900                log_init
 .text.log_vprintf
                0x0003491c       0x1c examples/beaconing/CMakeFiles/beaconing_nrf52840_xxAA_s140_6.1.1.dir/__/__/mesh/core/src/log.c.obj
                0x0003491c                log_vprintf
 .text.log_printf
                0x00034938       0x18 examples/beaconing/CMakeFiles/beaconing_nrf52840_xxAA_s140_6.1.1.dir/__/__/mesh/core/src/log.c.obj
                0x00034938                log_printf
 .text.get_area_end
                0x00034950        0xc examples/beaconing/CMakeFiles/beaconing_nrf52840_xxAA_s140_6.1.1.dir/__/__/mesh/core/src/flash_manager.c.obj
 .text.handle_matches_filter
                0x0003495c       0x26 examples/beaconing/CMakeFiles/beaconing_nrf52840_xxAA_s140_6.1.1.dir/__/__/mesh/core/src/flash_manager.c.obj
 .text.flash_area_is_blank
                0x00034982       0x2c examples/beaconing/CMakeFiles/beaconing_nrf52840_xxAA_s140_6.1.1.dir/__/__/mesh/core/src/flash_manager.c.obj
 *fill*         0x000349ae        0x2 
 .text.get_packet_buffer
                0x000349b0       0x20 examples/beaconing/CMakeFiles/beaconing_nrf52840_xxAA_s140_6.1.1.dir/__/__/mesh/core/src/flash_manager.c.obj
 .text.flash    0x000349d0       0x1c examples/beaconing/CMakeFiles/beaconing_nrf52840_xxAA_s140_6.1.1.dir/__/__/mesh/core/src/flash_manager.c.obj
 .text.free_packet_buffer
                0x000349ec       0x3c examples/beaconing/CMakeFiles/beaconing_nrf52840_xxAA_s140_6.1.1.dir/__/__/mesh/core/src/flash_manager.c.obj
 .text.iterate_callback_entry_copy
                0x00034a28       0x38 examples/beaconing/CMakeFiles/beaconing_nrf52840_xxAA_s140_6.1.1.dir/__/__/mesh/core/src/flash_manager.c.obj
 .text.reserve_action_buffer
                0x00034a60       0x24 examples/beaconing/CMakeFiles/beaconing_nrf52840_xxAA_s140_6.1.1.dir/__/__/mesh/core/src/flash_manager.c.obj
 .text.commit_action_buffer
                0x00034a84       0x18 examples/beaconing/CMakeFiles/beaconing_nrf52840_xxAA_s140_6.1.1.dir/__/__/mesh/core/src/flash_manager.c.obj
 .text.schedule_processing
                0x00034a9c        0xc examples/beaconing/CMakeFiles/beaconing_nrf52840_xxAA_s140_6.1.1.dir/__/__/mesh/core/src/flash_manager.c.obj
 .text.get_next_entry
                0x00034aa8       0x34 examples/beaconing/CMakeFiles/beaconing_nrf52840_xxAA_s140_6.1.1.dir/__/__/mesh/core/src/flash_manager.c.obj
 .text.get_last_entry.isra.1
                0x00034adc       0x30 examples/beaconing/CMakeFiles/beaconing_nrf52840_xxAA_s140_6.1.1.dir/__/__/mesh/core/src/flash_manager.c.obj
 .text.process_action_queue
                0x00034b0c      0x3fc examples/beaconing/CMakeFiles/beaconing_nrf52840_xxAA_s140_6.1.1.dir/__/__/mesh/core/src/flash_manager.c.obj
 .text.flash_op_ended_callback
                0x00034f08       0x24 examples/beaconing/CMakeFiles/beaconing_nrf52840_xxAA_s140_6.1.1.dir/__/__/mesh/core/src/flash_manager.c.obj
 .text.flash_manager_init
                0x00034f2c       0x68 examples/beaconing/CMakeFiles/beaconing_nrf52840_xxAA_s140_6.1.1.dir/__/__/mesh/core/src/flash_manager.c.obj
                0x00034f2c                flash_manager_init
 .text.flash_manager_remove
                0x00034f94       0x24 examples/beaconing/CMakeFiles/beaconing_nrf52840_xxAA_s140_6.1.1.dir/__/__/mesh/core/src/flash_manager.c.obj
                0x00034f94                flash_manager_remove
 .text.flash_manager_entries_read
                0x00034fb8       0xea examples/beaconing/CMakeFiles/beaconing_nrf52840_xxAA_s140_6.1.1.dir/__/__/mesh/core/src/flash_manager.c.obj
                0x00034fb8                flash_manager_entries_read
 *fill*         0x000350a2        0x2 
 .text.flash_manager_entry_read
                0x000350a4       0x50 examples/beaconing/CMakeFiles/beaconing_nrf52840_xxAA_s140_6.1.1.dir/__/__/mesh/core/src/flash_manager.c.obj
                0x000350a4                flash_manager_entry_read
 .text.flash_manager_entry_count_get
                0x000350f4       0x1e examples/beaconing/CMakeFiles/beaconing_nrf52840_xxAA_s140_6.1.1.dir/__/__/mesh/core/src/flash_manager.c.obj
                0x000350f4                flash_manager_entry_count_get
 .text.flash_manager_entry_alloc
                0x00035112       0x5c examples/beaconing/CMakeFiles/beaconing_nrf52840_xxAA_s140_6.1.1.dir/__/__/mesh/core/src/flash_manager.c.obj
                0x00035112                flash_manager_entry_alloc
 *fill*         0x0003516e        0x2 
 .text.flash_manager_entry_commit
                0x00035170       0x2c examples/beaconing/CMakeFiles/beaconing_nrf52840_xxAA_s140_6.1.1.dir/__/__/mesh/core/src/flash_manager.c.obj
                0x00035170                flash_manager_entry_commit
 .text.flash_manager_entry_invalidate
                0x0003519c       0x4e examples/beaconing/CMakeFiles/beaconing_nrf52840_xxAA_s140_6.1.1.dir/__/__/mesh/core/src/flash_manager.c.obj
                0x0003519c                flash_manager_entry_invalidate
 *fill*         0x000351ea        0x2 
 .text.flash_manager_add
                0x000351ec      0x220 examples/beaconing/CMakeFiles/beaconing_nrf52840_xxAA_s140_6.1.1.dir/__/__/mesh/core/src/flash_manager.c.obj
                0x000351ec                flash_manager_add
 .text.flash_manager_mem_listener_register
                0x0003540c       0x30 examples/beaconing/CMakeFiles/beaconing_nrf52840_xxAA_s140_6.1.1.dir/__/__/mesh/core/src/flash_manager.c.obj
                0x0003540c                flash_manager_mem_listener_register
 .text.flash_manager_is_stable
                0x0003543c       0x20 examples/beaconing/CMakeFiles/beaconing_nrf52840_xxAA_s140_6.1.1.dir/__/__/mesh/core/src/flash_manager.c.obj
                0x0003543c                flash_manager_is_stable
 .text.flash_manager_on_defrag_end
                0x0003545c       0x4c examples/beaconing/CMakeFiles/beaconing_nrf52840_xxAA_s140_6.1.1.dir/__/__/mesh/core/src/flash_manager.c.obj
                0x0003545c                flash_manager_on_defrag_end
 .text.flash_manager_recovery_page_get
                0x000354a8        0x4 examples/beaconing/CMakeFiles/beaconing_nrf52840_xxAA_s140_6.1.1.dir/__/__/mesh/core/src/flash_manager.c.obj
                0x000354a8                flash_manager_recovery_page_get
 .text.flash_manager_action_queue_empty_cb_set
                0x000354ac       0x1c examples/beaconing/CMakeFiles/beaconing_nrf52840_xxAA_s140_6.1.1.dir/__/__/mesh/core/src/flash_manager.c.obj
                0x000354ac                flash_manager_action_queue_empty_cb_set
 .text.utils_xor
                0x000354c8       0x14 examples/beaconing/CMakeFiles/beaconing_nrf52840_xxAA_s140_6.1.1.dir/__/__/mesh/core/src/ccm_soft.c.obj
 .text.sd_ecb_block_encrypt
                0x000354dc        0x4 examples/beaconing/CMakeFiles/beaconing_nrf52840_xxAA_s140_6.1.1.dir/__/__/mesh/core/src/ccm_soft.c.obj
 .text.ccm_soft_crypt
                0x000354e0       0x4c examples/beaconing/CMakeFiles/beaconing_nrf52840_xxAA_s140_6.1.1.dir/__/__/mesh/core/src/ccm_soft.c.obj
 .text.ccm_soft_authenticate_blocks
                0x0003552c       0x6c examples/beaconing/CMakeFiles/beaconing_nrf52840_xxAA_s140_6.1.1.dir/__/__/mesh/core/src/ccm_soft.c.obj
 .text.ccm_soft_authenticate
                0x00035598       0x94 examples/beaconing/CMakeFiles/beaconing_nrf52840_xxAA_s140_6.1.1.dir/__/__/mesh/core/src/ccm_soft.c.obj
 .text.ccm_soft_encrypt
                0x0003562c       0x54 examples/beaconing/CMakeFiles/beaconing_nrf52840_xxAA_s140_6.1.1.dir/__/__/mesh/core/src/ccm_soft.c.obj
                0x0003562c                ccm_soft_encrypt
 .text.ccm_soft_decrypt
                0x00035680       0x9c examples/beaconing/CMakeFiles/beaconing_nrf52840_xxAA_s140_6.1.1.dir/__/__/mesh/core/src/ccm_soft.c.obj
                0x00035680                ccm_soft_decrypt
 .text.iv_index_get.isra.0
                0x0003571c       0x34 examples/beaconing/CMakeFiles/beaconing_nrf52840_xxAA_s140_6.1.1.dir/__/__/mesh/core/src/replay_cache.c.obj
 .text.evt_handler
                0x00035750       0x60 examples/beaconing/CMakeFiles/beaconing_nrf52840_xxAA_s140_6.1.1.dir/__/__/mesh/core/src/replay_cache.c.obj
 .text.replay_cache_enable
                0x000357b0       0x10 examples/beaconing/CMakeFiles/beaconing_nrf52840_xxAA_s140_6.1.1.dir/__/__/mesh/core/src/replay_cache.c.obj
                0x000357b0                replay_cache_enable
 .text.replay_cache_add
                0x000357c0       0x78 examples/beaconing/CMakeFiles/beaconing_nrf52840_xxAA_s140_6.1.1.dir/__/__/mesh/core/src/replay_cache.c.obj
                0x000357c0                replay_cache_add
 .text.replay_cache_has_elem
                0x00035838       0x50 examples/beaconing/CMakeFiles/beaconing_nrf52840_xxAA_s140_6.1.1.dir/__/__/mesh/core/src/replay_cache.c.obj
                0x00035838                replay_cache_has_elem
 .text.replay_cache_clear
                0x00035888       0x18 examples/beaconing/CMakeFiles/beaconing_nrf52840_xxAA_s140_6.1.1.dir/__/__/mesh/core/src/replay_cache.c.obj
                0x00035888                replay_cache_clear
 .text.replay_cache_init
                0x000358a0       0x14 examples/beaconing/CMakeFiles/beaconing_nrf52840_xxAA_s140_6.1.1.dir/__/__/mesh/core/src/replay_cache.c.obj
                0x000358a0                replay_cache_init
 .text.beacon_create
                0x000358b4       0x46 examples/beaconing/CMakeFiles/beaconing_nrf52840_xxAA_s140_6.1.1.dir/__/__/mesh/core/src/beacon.c.obj
                0x000358b4                beacon_create
 *fill*         0x000358fa        0x2 
 .text.beacon_packet_in
                0x000358fc      0x130 examples/beaconing/CMakeFiles/beaconing_nrf52840_xxAA_s140_6.1.1.dir/__/__/mesh/core/src/beacon.c.obj
                0x000358fc                beacon_packet_in
 .text.entry_get
                0x00035a2c       0x78 examples/beaconing/CMakeFiles/beaconing_nrf52840_xxAA_s140_6.1.1.dir/__/__/mesh/core/src/flash_manager_internal.c.obj
                0x00035a2c                entry_get
 .text.core_tx_complete_cb_set
                0x00035aa4        0xc examples/beaconing/CMakeFiles/beaconing_nrf52840_xxAA_s140_6.1.1.dir/__/__/mesh/core/src/core_tx.c.obj
                0x00035aa4                core_tx_complete_cb_set
 .text.core_tx_packet_alloc
                0x00035ab0       0xac examples/beaconing/CMakeFiles/beaconing_nrf52840_xxAA_s140_6.1.1.dir/__/__/mesh/core/src/core_tx.c.obj
                0x00035ab0                core_tx_packet_alloc
 .text.core_tx_packet_send
                0x00035b5c       0x4c examples/beaconing/CMakeFiles/beaconing_nrf52840_xxAA_s140_6.1.1.dir/__/__/mesh/core/src/core_tx.c.obj
                0x00035b5c                core_tx_packet_send
 .text.core_tx_packet_discard
                0x00035ba8       0x40 examples/beaconing/CMakeFiles/beaconing_nrf52840_xxAA_s140_6.1.1.dir/__/__/mesh/core/src/core_tx.c.obj
                0x00035ba8                core_tx_packet_discard
 .text.core_tx_complete
                0x00035be8       0x34 examples/beaconing/CMakeFiles/beaconing_nrf52840_xxAA_s140_6.1.1.dir/__/__/mesh/core/src/core_tx.c.obj
                0x00035be8                core_tx_complete
 .text.core_tx_bearer_add
                0x00035c1c       0x74 examples/beaconing/CMakeFiles/beaconing_nrf52840_xxAA_s140_6.1.1.dir/__/__/mesh/core/src/core_tx.c.obj
                0x00035c1c                core_tx_bearer_add
 .text.hb_pub_deleter
                0x00035c90       0x28 examples/beaconing/CMakeFiles/beaconing_nrf52840_xxAA_s140_6.1.1.dir/__/__/mesh/core/src/heartbeat.c.obj
 .text.hb_pub_getter
                0x00035cb8       0x2c examples/beaconing/CMakeFiles/beaconing_nrf52840_xxAA_s140_6.1.1.dir/__/__/mesh/core/src/heartbeat.c.obj
 .text.hb_pub_setter
                0x00035ce4       0xd0 examples/beaconing/CMakeFiles/beaconing_nrf52840_xxAA_s140_6.1.1.dir/__/__/mesh/core/src/heartbeat.c.obj
 .text.heartbeat_subscription_timer_cb
                0x00035db4       0x3c examples/beaconing/CMakeFiles/beaconing_nrf52840_xxAA_s140_6.1.1.dir/__/__/mesh/core/src/heartbeat.c.obj
 .text.heartbeat_opcode_handle
                0x00035df0       0x88 examples/beaconing/CMakeFiles/beaconing_nrf52840_xxAA_s140_6.1.1.dir/__/__/mesh/core/src/heartbeat.c.obj
 .text.heartbeat_publish
                0x00035e78       0xb8 examples/beaconing/CMakeFiles/beaconing_nrf52840_xxAA_s140_6.1.1.dir/__/__/mesh/core/src/heartbeat.c.obj
 .text.heartbeat_core_evt_cb
                0x00035f30       0x18 examples/beaconing/CMakeFiles/beaconing_nrf52840_xxAA_s140_6.1.1.dir/__/__/mesh/core/src/heartbeat.c.obj
 .text.heartbeat_publication_timer_cb
                0x00035f48       0x54 examples/beaconing/CMakeFiles/beaconing_nrf52840_xxAA_s140_6.1.1.dir/__/__/mesh/core/src/heartbeat.c.obj
 .text.heartbeat_relay_listener_cb
                0x00035f9c       0x48 examples/beaconing/CMakeFiles/beaconing_nrf52840_xxAA_s140_6.1.1.dir/__/__/mesh/core/src/heartbeat.c.obj
 .text.heartbeat_init
                0x00035fe4       0x58 examples/beaconing/CMakeFiles/beaconing_nrf52840_xxAA_s140_6.1.1.dir/__/__/mesh/core/src/heartbeat.c.obj
                0x00035fe4                heartbeat_init
 .text.heartbeat_subscription_set
                0x0003603c       0xd0 examples/beaconing/CMakeFiles/beaconing_nrf52840_xxAA_s140_6.1.1.dir/__/__/mesh/core/src/heartbeat.c.obj
                0x0003603c                heartbeat_subscription_set
 .text.heartbeat_subscription_get
                0x0003610c        0x8 examples/beaconing/CMakeFiles/beaconing_nrf52840_xxAA_s140_6.1.1.dir/__/__/mesh/core/src/heartbeat.c.obj
                0x0003610c                heartbeat_subscription_get
 .text.heartbeat_publication_get
                0x00036114        0x8 examples/beaconing/CMakeFiles/beaconing_nrf52840_xxAA_s140_6.1.1.dir/__/__/mesh/core/src/heartbeat.c.obj
                0x00036114                heartbeat_publication_get
 .text.heartbeat_publication_set
                0x0003611c       0x18 examples/beaconing/CMakeFiles/beaconing_nrf52840_xxAA_s140_6.1.1.dir/__/__/mesh/core/src/heartbeat.c.obj
                0x0003611c                heartbeat_publication_set
 .text.heartbeat_public_info_getter_register
                0x00036134       0x14 examples/beaconing/CMakeFiles/beaconing_nrf52840_xxAA_s140_6.1.1.dir/__/__/mesh/core/src/heartbeat.c.obj
                0x00036134                heartbeat_public_info_getter_register
 .text.beacon_deleter
                0x00036148       0x34 examples/beaconing/CMakeFiles/beaconing_nrf52840_xxAA_s140_6.1.1.dir/__/__/mesh/core/src/net_beacon.c.obj
 .text.beacon_getter
                0x0003617c       0x24 examples/beaconing/CMakeFiles/beaconing_nrf52840_xxAA_s140_6.1.1.dir/__/__/mesh/core/src/net_beacon.c.obj
 .text.beacon_setter
                0x000361a0       0x5c examples/beaconing/CMakeFiles/beaconing_nrf52840_xxAA_s140_6.1.1.dir/__/__/mesh/core/src/net_beacon.c.obj
 .text.make_network_beacon_packet
                0x000361fc       0x50 examples/beaconing/CMakeFiles/beaconing_nrf52840_xxAA_s140_6.1.1.dir/__/__/mesh/core/src/net_beacon.c.obj
 .text.beacon_tx
                0x0003624c      0x188 examples/beaconing/CMakeFiles/beaconing_nrf52840_xxAA_s140_6.1.1.dir/__/__/mesh/core/src/net_beacon.c.obj
 .text.tx_complete_cb
                0x000363d4        0xe examples/beaconing/CMakeFiles/beaconing_nrf52840_xxAA_s140_6.1.1.dir/__/__/mesh/core/src/net_beacon.c.obj
 .text.beacon_tx_timeout
                0x000363e2        0x4 examples/beaconing/CMakeFiles/beaconing_nrf52840_xxAA_s140_6.1.1.dir/__/__/mesh/core/src/net_beacon.c.obj
 .text.is_valid_beacon_pkt.part.1
                0x000363e6       0x30 examples/beaconing/CMakeFiles/beaconing_nrf52840_xxAA_s140_6.1.1.dir/__/__/mesh/core/src/net_beacon.c.obj
 *fill*         0x00036416        0x2 
 .text.net_beacon_init
                0x00036418       0x7c examples/beaconing/CMakeFiles/beaconing_nrf52840_xxAA_s140_6.1.1.dir/__/__/mesh/core/src/net_beacon.c.obj
                0x00036418                net_beacon_init
 .text.net_beacon_enable
                0x00036494       0x28 examples/beaconing/CMakeFiles/beaconing_nrf52840_xxAA_s140_6.1.1.dir/__/__/mesh/core/src/net_beacon.c.obj
                0x00036494                net_beacon_enable
 .text.net_beacon_state_set
                0x000364bc       0x20 examples/beaconing/CMakeFiles/beaconing_nrf52840_xxAA_s140_6.1.1.dir/__/__/mesh/core/src/net_beacon.c.obj
                0x000364bc                net_beacon_state_set
 .text.net_beacon_state_get
                0x000364dc       0x24 examples/beaconing/CMakeFiles/beaconing_nrf52840_xxAA_s140_6.1.1.dir/__/__/mesh/core/src/net_beacon.c.obj
                0x000364dc                net_beacon_state_get
 .text.net_beacon_packet_in
                0x00036500      0x16c examples/beaconing/CMakeFiles/beaconing_nrf52840_xxAA_s140_6.1.1.dir/__/__/mesh/core/src/net_beacon.c.obj
                0x00036500                net_beacon_packet_in
 .text.listeners_notify
                0x0003666c       0x4c examples/beaconing/CMakeFiles/beaconing_nrf52840_xxAA_s140_6.1.1.dir/__/__/mesh/core/src/mesh_config.c.obj
 .text.entry_flags_get.isra.0
                0x000366b8       0x1c examples/beaconing/CMakeFiles/beaconing_nrf52840_xxAA_s140_6.1.1.dir/__/__/mesh/core/src/mesh_config.c.obj
 .text.entry_params_find
                0x000366d4       0x38 examples/beaconing/CMakeFiles/beaconing_nrf52840_xxAA_s140_6.1.1.dir/__/__/mesh/core/src/mesh_config.c.obj
 .text.restore_callback
                0x0003670c       0x66 examples/beaconing/CMakeFiles/beaconing_nrf52840_xxAA_s140_6.1.1.dir/__/__/mesh/core/src/mesh_config.c.obj
 *fill*         0x00036772        0x2 
 .text.dirty_entries_process
                0x00036774       0xdc examples/beaconing/CMakeFiles/beaconing_nrf52840_xxAA_s140_6.1.1.dir/__/__/mesh/core/src/mesh_config.c.obj
 .text.mesh_config_init
                0x00036850       0xa0 examples/beaconing/CMakeFiles/beaconing_nrf52840_xxAA_s140_6.1.1.dir/__/__/mesh/core/src/mesh_config.c.obj
                0x00036850                mesh_config_init
 .text.mesh_config_load
                0x000368f0        0xc examples/beaconing/CMakeFiles/beaconing_nrf52840_xxAA_s140_6.1.1.dir/__/__/mesh/core/src/mesh_config.c.obj
                0x000368f0                mesh_config_load
 .text.mesh_config_is_busy
                0x000368fc       0x34 examples/beaconing/CMakeFiles/beaconing_nrf52840_xxAA_s140_6.1.1.dir/__/__/mesh/core/src/mesh_config.c.obj
                0x000368fc                mesh_config_is_busy
 .text.backend_evt_handler
                0x00036930       0x88 examples/beaconing/CMakeFiles/beaconing_nrf52840_xxAA_s140_6.1.1.dir/__/__/mesh/core/src/mesh_config.c.obj
 .text.mesh_config_entry_set
                0x000369b8       0x80 examples/beaconing/CMakeFiles/beaconing_nrf52840_xxAA_s140_6.1.1.dir/__/__/mesh/core/src/mesh_config.c.obj
                0x000369b8                mesh_config_entry_set
 .text.mesh_config_entry_get
                0x00036a38       0x3c examples/beaconing/CMakeFiles/beaconing_nrf52840_xxAA_s140_6.1.1.dir/__/__/mesh/core/src/mesh_config.c.obj
                0x00036a38                mesh_config_entry_get
 .text.mesh_config_entry_delete
                0x00036a74       0x4a examples/beaconing/CMakeFiles/beaconing_nrf52840_xxAA_s140_6.1.1.dir/__/__/mesh/core/src/mesh_config.c.obj
                0x00036a74                mesh_config_entry_delete
 *fill*         0x00036abe        0x2 
 .text.mesh_config_clear
                0x00036ac0       0x4c examples/beaconing/CMakeFiles/beaconing_nrf52840_xxAA_s140_6.1.1.dir/__/__/mesh/core/src/mesh_config.c.obj
                0x00036ac0                mesh_config_clear
 .text.dummy_event
                0x00036b0c        0x2 examples/beaconing/CMakeFiles/beaconing_nrf52840_xxAA_s140_6.1.1.dir/__/__/mesh/core/src/mesh_config_backend.c.obj
 *fill*         0x00036b0e        0x2 
 .text.file_get
                0x00036b10       0x34 examples/beaconing/CMakeFiles/beaconing_nrf52840_xxAA_s140_6.1.1.dir/__/__/mesh/core/src/mesh_config_backend.c.obj
 .text.mesh_config_backend_init
                0x00036b44      0x11c examples/beaconing/CMakeFiles/beaconing_nrf52840_xxAA_s140_6.1.1.dir/__/__/mesh/core/src/mesh_config_backend.c.obj
                0x00036b44                mesh_config_backend_init
 .text.mesh_config_backend_store
                0x00036c60       0x4e examples/beaconing/CMakeFiles/beaconing_nrf52840_xxAA_s140_6.1.1.dir/__/__/mesh/core/src/mesh_config_backend.c.obj
                0x00036c60                mesh_config_backend_store
 .text.mesh_config_backend_erase
                0x00036cae       0x34 examples/beaconing/CMakeFiles/beaconing_nrf52840_xxAA_s140_6.1.1.dir/__/__/mesh/core/src/mesh_config_backend.c.obj
                0x00036cae                mesh_config_backend_erase
 *fill*         0x00036ce2        0x2 
 .text.mesh_config_backend_read_all
                0x00036ce4       0x38 examples/beaconing/CMakeFiles/beaconing_nrf52840_xxAA_s140_6.1.1.dir/__/__/mesh/core/src/mesh_config_backend.c.obj
                0x00036ce4                mesh_config_backend_read_all
 .text.entry_read_cb
                0x00036d1c       0x38 examples/beaconing/CMakeFiles/beaconing_nrf52840_xxAA_s140_6.1.1.dir/__/__/mesh/core/src/mesh_config_flashman_glue.c.obj
 .text.write_complete_cb
                0x00036d54       0x30 examples/beaconing/CMakeFiles/beaconing_nrf52840_xxAA_s140_6.1.1.dir/__/__/mesh/core/src/mesh_config_flashman_glue.c.obj
 .text.invalidate_complete_cb
                0x00036d84       0x2c examples/beaconing/CMakeFiles/beaconing_nrf52840_xxAA_s140_6.1.1.dir/__/__/mesh/core/src/mesh_config_flashman_glue.c.obj
 .text.remove_complete_cb
                0x00036db0        0x2 examples/beaconing/CMakeFiles/beaconing_nrf52840_xxAA_s140_6.1.1.dir/__/__/mesh/core/src/mesh_config_flashman_glue.c.obj
 .text.flash_stable_cb
                0x00036db2       0x20 examples/beaconing/CMakeFiles/beaconing_nrf52840_xxAA_s140_6.1.1.dir/__/__/mesh/core/src/mesh_config_flashman_glue.c.obj
 *fill*         0x00036dd2        0x2 
 .text.mesh_config_backend_glue_init
                0x00036dd4       0x28 examples/beaconing/CMakeFiles/beaconing_nrf52840_xxAA_s140_6.1.1.dir/__/__/mesh/core/src/mesh_config_flashman_glue.c.obj
                0x00036dd4                mesh_config_backend_glue_init
 .text.mesh_config_backend_file_create
                0x00036dfc       0x58 examples/beaconing/CMakeFiles/beaconing_nrf52840_xxAA_s140_6.1.1.dir/__/__/mesh/core/src/mesh_config_flashman_glue.c.obj
                0x00036dfc                mesh_config_backend_file_create
 .text.mesh_config_backend_record_write
                0x00036e54       0x2c examples/beaconing/CMakeFiles/beaconing_nrf52840_xxAA_s140_6.1.1.dir/__/__/mesh/core/src/mesh_config_flashman_glue.c.obj
                0x00036e54                mesh_config_backend_record_write
 .text.mesh_config_backend_record_erase
                0x00036e80       0x30 examples/beaconing/CMakeFiles/beaconing_nrf52840_xxAA_s140_6.1.1.dir/__/__/mesh/core/src/mesh_config_flashman_glue.c.obj
                0x00036e80                mesh_config_backend_record_erase
 .text.mesh_config_backend_records_read
                0x00036eb0       0x30 examples/beaconing/CMakeFiles/beaconing_nrf52840_xxAA_s140_6.1.1.dir/__/__/mesh/core/src/mesh_config_flashman_glue.c.obj
                0x00036eb0                mesh_config_backend_records_read
 .text.mesh_config_record_size_calculate
                0x00036ee0        0xa examples/beaconing/CMakeFiles/beaconing_nrf52840_xxAA_s140_6.1.1.dir/__/__/mesh/core/src/mesh_config_flashman_glue.c.obj
                0x00036ee0                mesh_config_record_size_calculate
 .text.mesh_config_backend_file_power_down_time_get
                0x00036eea       0x24 examples/beaconing/CMakeFiles/beaconing_nrf52840_xxAA_s140_6.1.1.dir/__/__/mesh/core/src/mesh_config_flashman_glue.c.obj
                0x00036eea                mesh_config_backend_file_power_down_time_get
 *fill*         0x00036f0e        0x2 
 .text.packet_discard
                0x00036f10       0x30 examples/beaconing/CMakeFiles/beaconing_nrf52840_xxAA_s140_6.1.1.dir/__/__/mesh/core/src/core_tx_local.c.obj
 .text.packet_send
                0x00036f40       0x58 examples/beaconing/CMakeFiles/beaconing_nrf52840_xxAA_s140_6.1.1.dir/__/__/mesh/core/src/core_tx_local.c.obj
 .text.loopback_process
                0x00036f98       0x64 examples/beaconing/CMakeFiles/beaconing_nrf52840_xxAA_s140_6.1.1.dir/__/__/mesh/core/src/core_tx_local.c.obj
 .text.packet_alloc
                0x00036ffc       0x48 examples/beaconing/CMakeFiles/beaconing_nrf52840_xxAA_s140_6.1.1.dir/__/__/mesh/core/src/core_tx_local.c.obj
 .text.core_tx_local_init
                0x00037044       0x34 examples/beaconing/CMakeFiles/beaconing_nrf52840_xxAA_s140_6.1.1.dir/__/__/mesh/core/src/core_tx_local.c.obj
                0x00037044                core_tx_local_init
 .text.core_tx_adv_get
                0x00037078       0x3c examples/beaconing/CMakeFiles/beaconing_nrf52840_xxAA_s140_6.1.1.dir/__/__/mesh/core/src/core_tx_adv.c.obj
 .text.core_tx_tx_power_get
                0x000370b4       0x30 examples/beaconing/CMakeFiles/beaconing_nrf52840_xxAA_s140_6.1.1.dir/__/__/mesh/core/src/core_tx_adv.c.obj
 .text.core_tx_adv_delete
                0x000370e4       0x50 examples/beaconing/CMakeFiles/beaconing_nrf52840_xxAA_s140_6.1.1.dir/__/__/mesh/core/src/core_tx_adv.c.obj
 .text.core_tx_adv_set
                0x00037134       0x6c examples/beaconing/CMakeFiles/beaconing_nrf52840_xxAA_s140_6.1.1.dir/__/__/mesh/core/src/core_tx_adv.c.obj
 .text.core_tx_tx_power_delete
                0x000371a0       0x30 examples/beaconing/CMakeFiles/beaconing_nrf52840_xxAA_s140_6.1.1.dir/__/__/mesh/core/src/core_tx_adv.c.obj
 .text.core_tx_tx_power_set
                0x000371d0       0x34 examples/beaconing/CMakeFiles/beaconing_nrf52840_xxAA_s140_6.1.1.dir/__/__/mesh/core/src/core_tx_adv.c.obj
 .text.core_tx_adv_addr_delete
                0x00037204       0x34 examples/beaconing/CMakeFiles/beaconing_nrf52840_xxAA_s140_6.1.1.dir/__/__/mesh/core/src/core_tx_adv.c.obj
 .text.core_tx_adv_addr_set
                0x00037238       0x40 examples/beaconing/CMakeFiles/beaconing_nrf52840_xxAA_s140_6.1.1.dir/__/__/mesh/core/src/core_tx_adv.c.obj
 .text.core_tx_adv_addr_get
                0x00037278       0x34 examples/beaconing/CMakeFiles/beaconing_nrf52840_xxAA_s140_6.1.1.dir/__/__/mesh/core/src/core_tx_adv.c.obj
 .text.packet_discard
                0x000372ac       0x40 examples/beaconing/CMakeFiles/beaconing_nrf52840_xxAA_s140_6.1.1.dir/__/__/mesh/core/src/core_tx_adv.c.obj
 .text.packet_send
                0x000372ec       0x58 examples/beaconing/CMakeFiles/beaconing_nrf52840_xxAA_s140_6.1.1.dir/__/__/mesh/core/src/core_tx_adv.c.obj
 .text.packet_alloc
                0x00037344       0x58 examples/beaconing/CMakeFiles/beaconing_nrf52840_xxAA_s140_6.1.1.dir/__/__/mesh/core/src/core_tx_adv.c.obj
 .text.adv_tx_complete_callback
                0x0003739c       0x20 examples/beaconing/CMakeFiles/beaconing_nrf52840_xxAA_s140_6.1.1.dir/__/__/mesh/core/src/core_tx_adv.c.obj
 .text.mesh_opt_core_adv_set
                0x000373bc       0x22 examples/beaconing/CMakeFiles/beaconing_nrf52840_xxAA_s140_6.1.1.dir/__/__/mesh/core/src/core_tx_adv.c.obj
                0x000373bc                mesh_opt_core_adv_set
 .text.mesh_opt_core_adv_get
                0x000373de       0x22 examples/beaconing/CMakeFiles/beaconing_nrf52840_xxAA_s140_6.1.1.dir/__/__/mesh/core/src/core_tx_adv.c.obj
                0x000373de                mesh_opt_core_adv_get
 .text.core_tx_adv_init
                0x00037400       0x60 examples/beaconing/CMakeFiles/beaconing_nrf52840_xxAA_s140_6.1.1.dir/__/__/mesh/core/src/core_tx_adv.c.obj
                0x00037400                core_tx_adv_init
 .text.core_tx_adv_is_enabled
                0x00037460       0x20 examples/beaconing/CMakeFiles/beaconing_nrf52840_xxAA_s140_6.1.1.dir/__/__/mesh/core/src/core_tx_adv.c.obj
                0x00037460                core_tx_adv_is_enabled
 .text.mesh_mem_init
                0x00037480        0x2 examples/beaconing/CMakeFiles/beaconing_nrf52840_xxAA_s140_6.1.1.dir/__/__/mesh/core/src/mesh_mem_stdlib.c.obj
                0x00037480                mesh_mem_init
 .text.mesh_mem_alloc
                0x00037482        0x4 examples/beaconing/CMakeFiles/beaconing_nrf52840_xxAA_s140_6.1.1.dir/__/__/mesh/core/src/mesh_mem_stdlib.c.obj
                0x00037482                mesh_mem_alloc
 .text.mesh_mem_free
                0x00037486        0x4 examples/beaconing/CMakeFiles/beaconing_nrf52840_xxAA_s140_6.1.1.dir/__/__/mesh/core/src/mesh_mem_stdlib.c.obj
                0x00037486                mesh_mem_free
 *fill*         0x0003748a        0x2 
 .text.ad_listener_subscribe
                0x0003748c       0x5c examples/beaconing/CMakeFiles/beaconing_nrf52840_xxAA_s140_6.1.1.dir/__/__/mesh/bearer/src/ad_listener.c.obj
                0x0003748c                ad_listener_subscribe
 .text.ad_listener_process
                0x000374e8       0x68 examples/beaconing/CMakeFiles/beaconing_nrf52840_xxAA_s140_6.1.1.dir/__/__/mesh/bearer/src/ad_listener.c.obj
                0x000374e8                ad_listener_process
 .text.adtype_filter_handle
                0x00037550       0x64 examples/beaconing/CMakeFiles/beaconing_nrf52840_xxAA_s140_6.1.1.dir/__/__/mesh/bearer/src/ad_type_filter.c.obj
 .text.bearer_adtype_filtering_set
                0x000375b4       0x20 examples/beaconing/CMakeFiles/beaconing_nrf52840_xxAA_s140_6.1.1.dir/__/__/mesh/bearer/src/ad_type_filter.c.obj
                0x000375b4                bearer_adtype_filtering_set
 .text.bearer_adtype_add
                0x000375d4       0x20 examples/beaconing/CMakeFiles/beaconing_nrf52840_xxAA_s140_6.1.1.dir/__/__/mesh/bearer/src/ad_type_filter.c.obj
                0x000375d4                bearer_adtype_add
 .text.bearer_adtype_mode_set
                0x000375f4       0x18 examples/beaconing/CMakeFiles/beaconing_nrf52840_xxAA_s140_6.1.1.dir/__/__/mesh/bearer/src/ad_type_filter.c.obj
                0x000375f4                bearer_adtype_mode_set
 .text.tx_complete_event_callback
                0x0003760c       0x24 examples/beaconing/CMakeFiles/beaconing_nrf52840_xxAA_s140_6.1.1.dir/__/__/mesh/bearer/src/advertiser.c.obj
 .text.set_gap_addr_type
                0x00037630       0x26 examples/beaconing/CMakeFiles/beaconing_nrf52840_xxAA_s140_6.1.1.dir/__/__/mesh/bearer/src/advertiser.c.obj
 .text.broadcast_complete_cb
                0x00037656       0x46 examples/beaconing/CMakeFiles/beaconing_nrf52840_xxAA_s140_6.1.1.dir/__/__/mesh/bearer/src/advertiser.c.obj
 .text.schedule_first_time
                0x0003769c       0x28 examples/beaconing/CMakeFiles/beaconing_nrf52840_xxAA_s140_6.1.1.dir/__/__/mesh/bearer/src/advertiser.c.obj
 .text.timeout_event
                0x000376c4      0x114 examples/beaconing/CMakeFiles/beaconing_nrf52840_xxAA_s140_6.1.1.dir/__/__/mesh/bearer/src/advertiser.c.obj
 .text.advertiser_init
                0x000377d8        0xc examples/beaconing/CMakeFiles/beaconing_nrf52840_xxAA_s140_6.1.1.dir/__/__/mesh/bearer/src/advertiser.c.obj
                0x000377d8                advertiser_init
 .text.advertiser_enable
                0x000377e4       0x2a examples/beaconing/CMakeFiles/beaconing_nrf52840_xxAA_s140_6.1.1.dir/__/__/mesh/bearer/src/advertiser.c.obj
                0x000377e4                advertiser_enable
 .text.advertiser_disable
                0x0003780e        0xa examples/beaconing/CMakeFiles/beaconing_nrf52840_xxAA_s140_6.1.1.dir/__/__/mesh/bearer/src/advertiser.c.obj
                0x0003780e                advertiser_disable
 .text.advertiser_packet_alloc
                0x00037818       0x76 examples/beaconing/CMakeFiles/beaconing_nrf52840_xxAA_s140_6.1.1.dir/__/__/mesh/bearer/src/advertiser.c.obj
                0x00037818                advertiser_packet_alloc
 .text.advertiser_packet_send
                0x0003788e       0x52 examples/beaconing/CMakeFiles/beaconing_nrf52840_xxAA_s140_6.1.1.dir/__/__/mesh/bearer/src/advertiser.c.obj
                0x0003788e                advertiser_packet_send
 .text.advertiser_packet_discard
                0x000378e0       0x1e examples/beaconing/CMakeFiles/beaconing_nrf52840_xxAA_s140_6.1.1.dir/__/__/mesh/bearer/src/advertiser.c.obj
                0x000378e0                advertiser_packet_discard
 .text.advertiser_address_set
                0x000378fe       0x3c examples/beaconing/CMakeFiles/beaconing_nrf52840_xxAA_s140_6.1.1.dir/__/__/mesh/bearer/src/advertiser.c.obj
                0x000378fe                advertiser_address_set
 .text.advertiser_interval_set
                0x0003793a       0x40 examples/beaconing/CMakeFiles/beaconing_nrf52840_xxAA_s140_6.1.1.dir/__/__/mesh/bearer/src/advertiser.c.obj
                0x0003793a                advertiser_interval_set
 .text.advertiser_tx_power_set
                0x0003797a       0x14 examples/beaconing/CMakeFiles/beaconing_nrf52840_xxAA_s140_6.1.1.dir/__/__/mesh/bearer/src/advertiser.c.obj
                0x0003797a                advertiser_tx_power_set
 .text.advertiser_flush
                0x0003798e       0x1e examples/beaconing/CMakeFiles/beaconing_nrf52840_xxAA_s140_6.1.1.dir/__/__/mesh/bearer/src/advertiser.c.obj
                0x0003798e                advertiser_flush
 .text.advertiser_address_default_get
                0x000379ac       0x38 examples/beaconing/CMakeFiles/beaconing_nrf52840_xxAA_s140_6.1.1.dir/__/__/mesh/bearer/src/advertiser.c.obj
                0x000379ac                advertiser_address_default_get
 .text.advertiser_instance_init
                0x000379e4       0x98 examples/beaconing/CMakeFiles/beaconing_nrf52840_xxAA_s140_6.1.1.dir/__/__/mesh/bearer/src/advertiser.c.obj
                0x000379e4                advertiser_instance_init
 .text.notify_stop
                0x00037a7c       0x14 examples/beaconing/CMakeFiles/beaconing_nrf52840_xxAA_s140_6.1.1.dir/__/__/mesh/bearer/src/bearer_handler.c.obj
 .text.action_in_progress
                0x00037a90       0x30 examples/beaconing/CMakeFiles/beaconing_nrf52840_xxAA_s140_6.1.1.dir/__/__/mesh/bearer/src/bearer_handler.c.obj
 .text.action_timer_start
                0x00037ac0       0x88 examples/beaconing/CMakeFiles/beaconing_nrf52840_xxAA_s140_6.1.1.dir/__/__/mesh/bearer/src/bearer_handler.c.obj
 .text.action_switch
                0x00037b48      0x104 examples/beaconing/CMakeFiles/beaconing_nrf52840_xxAA_s140_6.1.1.dir/__/__/mesh/bearer/src/bearer_handler.c.obj
 .text.end_handle
                0x00037c4c       0x44 examples/beaconing/CMakeFiles/beaconing_nrf52840_xxAA_s140_6.1.1.dir/__/__/mesh/bearer/src/bearer_handler.c.obj
 .text.TIMER2_IRQHandler
                0x00037c90       0x58 examples/beaconing/CMakeFiles/beaconing_nrf52840_xxAA_s140_6.1.1.dir/__/__/mesh/bearer/src/bearer_handler.c.obj
                0x00037c90                TIMER2_IRQHandler
 .text.bearer_handler_init
                0x00037ce8       0x44 examples/beaconing/CMakeFiles/beaconing_nrf52840_xxAA_s140_6.1.1.dir/__/__/mesh/bearer/src/bearer_handler.c.obj
                0x00037ce8                bearer_handler_init
 .text.bearer_handler_wake_up
                0x00037d2c       0x2c examples/beaconing/CMakeFiles/beaconing_nrf52840_xxAA_s140_6.1.1.dir/__/__/mesh/bearer/src/bearer_handler.c.obj
                0x00037d2c                bearer_handler_wake_up
 .text.bearer_handler_start
                0x00037d58       0x1c examples/beaconing/CMakeFiles/beaconing_nrf52840_xxAA_s140_6.1.1.dir/__/__/mesh/bearer/src/bearer_handler.c.obj
                0x00037d58                bearer_handler_start
 .text.bearer_handler_action_enqueue
                0x00037d74       0x6c examples/beaconing/CMakeFiles/beaconing_nrf52840_xxAA_s140_6.1.1.dir/__/__/mesh/bearer/src/bearer_handler.c.obj
                0x00037d74                bearer_handler_action_enqueue
 .text.bearer_handler_action_end
                0x00037de0       0x48 examples/beaconing/CMakeFiles/beaconing_nrf52840_xxAA_s140_6.1.1.dir/__/__/mesh/bearer/src/bearer_handler.c.obj
                0x00037de0                bearer_handler_action_end
 .text.bearer_handler_radio_irq_handler
                0x00037e28       0x70 examples/beaconing/CMakeFiles/beaconing_nrf52840_xxAA_s140_6.1.1.dir/__/__/mesh/bearer/src/bearer_handler.c.obj
                0x00037e28                bearer_handler_radio_irq_handler
 .text.bearer_handler_timer_irq_handler
                0x00037e98       0x34 examples/beaconing/CMakeFiles/beaconing_nrf52840_xxAA_s140_6.1.1.dir/__/__/mesh/bearer/src/bearer_handler.c.obj
                0x00037e98                bearer_handler_timer_irq_handler
 .text.bearer_handler_on_ts_begin
                0x00037ecc       0x38 examples/beaconing/CMakeFiles/beaconing_nrf52840_xxAA_s140_6.1.1.dir/__/__/mesh/bearer/src/bearer_handler.c.obj
                0x00037ecc                bearer_handler_on_ts_begin
 .text.bearer_handler_on_ts_end
                0x00037f04       0x70 examples/beaconing/CMakeFiles/beaconing_nrf52840_xxAA_s140_6.1.1.dir/__/__/mesh/bearer/src/bearer_handler.c.obj
                0x00037f04                bearer_handler_on_ts_end
 .text.bearer_handler_on_ts_session_closed
                0x00037f74       0x10 examples/beaconing/CMakeFiles/beaconing_nrf52840_xxAA_s140_6.1.1.dir/__/__/mesh/bearer/src/bearer_handler.c.obj
                0x00037f74                bearer_handler_on_ts_session_closed
 .text.radio_irq_handler
                0x00037f84       0xa4 examples/beaconing/CMakeFiles/beaconing_nrf52840_xxAA_s140_6.1.1.dir/__/__/mesh/bearer/src/broadcast.c.obj
 .text.broadcast_start
                0x00038028       0xb4 examples/beaconing/CMakeFiles/beaconing_nrf52840_xxAA_s140_6.1.1.dir/__/__/mesh/bearer/src/broadcast.c.obj
 .text.broadcast_send
                0x000380dc       0x6c examples/beaconing/CMakeFiles/beaconing_nrf52840_xxAA_s140_6.1.1.dir/__/__/mesh/bearer/src/broadcast.c.obj
                0x000380dc                broadcast_send
 .text.fen_filter_start
                0x00038148       0x3c examples/beaconing/CMakeFiles/beaconing_nrf52840_xxAA_s140_6.1.1.dir/__/__/mesh/bearer/src/filter_engine.c.obj
                0x00038148                fen_filter_start
 .text.fen_filter_stop
                0x00038184       0x30 examples/beaconing/CMakeFiles/beaconing_nrf52840_xxAA_s140_6.1.1.dir/__/__/mesh/bearer/src/filter_engine.c.obj
                0x00038184                fen_filter_stop
 .text.fen_filters_apply
                0x000381b4       0x44 examples/beaconing/CMakeFiles/beaconing_nrf52840_xxAA_s140_6.1.1.dir/__/__/mesh/bearer/src/filter_engine.c.obj
                0x000381b4                fen_filters_apply
 .text.radio_config_reset
                0x000381f8       0x40 examples/beaconing/CMakeFiles/beaconing_nrf52840_xxAA_s140_6.1.1.dir/__/__/mesh/bearer/src/radio_config.c.obj
                0x000381f8                radio_config_reset
 .text.radio_config_channel_set
                0x00038238       0x28 examples/beaconing/CMakeFiles/beaconing_nrf52840_xxAA_s140_6.1.1.dir/__/__/mesh/bearer/src/radio_config.c.obj
                0x00038238                radio_config_channel_set
 .text.radio_config_config
                0x00038260       0x8c examples/beaconing/CMakeFiles/beaconing_nrf52840_xxAA_s140_6.1.1.dir/__/__/mesh/bearer/src/radio_config.c.obj
                0x00038260                radio_config_config
 .text.radio_config_access_addr_set
                0x000382ec       0x50 examples/beaconing/CMakeFiles/beaconing_nrf52840_xxAA_s140_6.1.1.dir/__/__/mesh/bearer/src/radio_config.c.obj
                0x000382ec                radio_config_access_addr_set
 .text.radio_trigger
                0x0003833c       0x24 examples/beaconing/CMakeFiles/beaconing_nrf52840_xxAA_s140_6.1.1.dir/__/__/mesh/bearer/src/scanner.c.obj
 .text.scan_window_end
                0x00038360       0x10 examples/beaconing/CMakeFiles/beaconing_nrf52840_xxAA_s140_6.1.1.dir/__/__/mesh/bearer/src/scanner.c.obj
 .text.scan_window_start
                0x00038370       0x24 examples/beaconing/CMakeFiles/beaconing_nrf52840_xxAA_s140_6.1.1.dir/__/__/mesh/bearer/src/scanner.c.obj
 .text.radio_configure
                0x00038394       0x78 examples/beaconing/CMakeFiles/beaconing_nrf52840_xxAA_s140_6.1.1.dir/__/__/mesh/bearer/src/scanner.c.obj
 .text.radio_set_packet
                0x0003840c       0x4c examples/beaconing/CMakeFiles/beaconing_nrf52840_xxAA_s140_6.1.1.dir/__/__/mesh/bearer/src/scanner.c.obj
 .text.radio_start
                0x00038458       0x78 examples/beaconing/CMakeFiles/beaconing_nrf52840_xxAA_s140_6.1.1.dir/__/__/mesh/bearer/src/scanner.c.obj
 .text.radio_stop
                0x000384d0       0x38 examples/beaconing/CMakeFiles/beaconing_nrf52840_xxAA_s140_6.1.1.dir/__/__/mesh/bearer/src/scanner.c.obj
 .text.schedule_timers
                0x00038508       0x38 examples/beaconing/CMakeFiles/beaconing_nrf52840_xxAA_s140_6.1.1.dir/__/__/mesh/bearer/src/scanner.c.obj
 .text.scanner_radio_start
                0x00038540       0x28 examples/beaconing/CMakeFiles/beaconing_nrf52840_xxAA_s140_6.1.1.dir/__/__/mesh/bearer/src/scanner.c.obj
                0x00038540                scanner_radio_start
 .text.scanner_radio_stop
                0x00038568       0x10 examples/beaconing/CMakeFiles/beaconing_nrf52840_xxAA_s140_6.1.1.dir/__/__/mesh/bearer/src/scanner.c.obj
                0x00038568                scanner_radio_stop
 .text.scanner_radio_irq_handler
                0x00038578      0x144 examples/beaconing/CMakeFiles/beaconing_nrf52840_xxAA_s140_6.1.1.dir/__/__/mesh/bearer/src/scanner.c.obj
                0x00038578                scanner_radio_irq_handler
 .text.scanner_timer_irq_handler
                0x000386bc       0x30 examples/beaconing/CMakeFiles/beaconing_nrf52840_xxAA_s140_6.1.1.dir/__/__/mesh/bearer/src/scanner.c.obj
                0x000386bc                scanner_timer_irq_handler
 .text.scanner_enable
                0x000386ec       0x2c examples/beaconing/CMakeFiles/beaconing_nrf52840_xxAA_s140_6.1.1.dir/__/__/mesh/bearer/src/scanner.c.obj
                0x000386ec                scanner_enable
 .text.scanner_is_enabled
                0x00038718       0x10 examples/beaconing/CMakeFiles/beaconing_nrf52840_xxAA_s140_6.1.1.dir/__/__/mesh/bearer/src/scanner.c.obj
                0x00038718                scanner_is_enabled
 .text.scanner_packet_release
                0x00038728       0x2c examples/beaconing/CMakeFiles/beaconing_nrf52840_xxAA_s140_6.1.1.dir/__/__/mesh/bearer/src/scanner.c.obj
                0x00038728                scanner_packet_release
 .text.scanner_rx
                0x00038754       0x34 examples/beaconing/CMakeFiles/beaconing_nrf52840_xxAA_s140_6.1.1.dir/__/__/mesh/bearer/src/scanner.c.obj
                0x00038754                scanner_rx
 .text.scanner_rx_pending
                0x00038788        0xc examples/beaconing/CMakeFiles/beaconing_nrf52840_xxAA_s140_6.1.1.dir/__/__/mesh/bearer/src/scanner.c.obj
                0x00038788                scanner_rx_pending
 .text.scanner_config_scan_time_set
                0x00038794       0x4c examples/beaconing/CMakeFiles/beaconing_nrf52840_xxAA_s140_6.1.1.dir/__/__/mesh/bearer/src/scanner.c.obj
                0x00038794                scanner_config_scan_time_set
 .text.scanner_config_channels_set
                0x000387e0       0x50 examples/beaconing/CMakeFiles/beaconing_nrf52840_xxAA_s140_6.1.1.dir/__/__/mesh/bearer/src/scanner.c.obj
                0x000387e0                scanner_config_channels_set
 .text.scanner_config_access_addresses_set
                0x00038830       0x38 examples/beaconing/CMakeFiles/beaconing_nrf52840_xxAA_s140_6.1.1.dir/__/__/mesh/bearer/src/scanner.c.obj
                0x00038830                scanner_config_access_addresses_set
 .text.scanner_config_reset
                0x00038868       0x50 examples/beaconing/CMakeFiles/beaconing_nrf52840_xxAA_s140_6.1.1.dir/__/__/mesh/bearer/src/scanner.c.obj
                0x00038868                scanner_config_reset
 .text.scanner_init
                0x000388b8       0x54 examples/beaconing/CMakeFiles/beaconing_nrf52840_xxAA_s140_6.1.1.dir/__/__/mesh/bearer/src/scanner.c.obj
                0x000388b8                scanner_init
 .text.pin_clear
                0x0003890c       0x24 examples/beaconing/CMakeFiles/beaconing_nrf52840_xxAA_s140_6.1.1.dir/__/__/mesh/bearer/src/mesh_pa_lna.c.obj
 .text.ppi_setup.isra.0
                0x00038930       0x3c examples/beaconing/CMakeFiles/beaconing_nrf52840_xxAA_s140_6.1.1.dir/__/__/mesh/bearer/src/mesh_pa_lna.c.obj
 .text.mesh_pa_setup_start
                0x0003896c       0x5c examples/beaconing/CMakeFiles/beaconing_nrf52840_xxAA_s140_6.1.1.dir/__/__/mesh/bearer/src/mesh_pa_lna.c.obj
                0x0003896c                mesh_pa_setup_start
 .text.mesh_lna_setup_start
                0x000389c8       0x5c examples/beaconing/CMakeFiles/beaconing_nrf52840_xxAA_s140_6.1.1.dir/__/__/mesh/bearer/src/mesh_pa_lna.c.obj
                0x000389c8                mesh_lna_setup_start
 .text.mesh_pa_lna_disable_start
                0x00038a24       0x1c examples/beaconing/CMakeFiles/beaconing_nrf52840_xxAA_s140_6.1.1.dir/__/__/mesh/bearer/src/mesh_pa_lna.c.obj
                0x00038a24                mesh_pa_lna_disable_start
 .text.mesh_pa_lna_setup_stop
                0x00038a40       0x4c examples/beaconing/CMakeFiles/beaconing_nrf52840_xxAA_s140_6.1.1.dir/__/__/mesh/bearer/src/mesh_pa_lna.c.obj
                0x00038a40                mesh_pa_lna_setup_stop
 .text.mesh_pa_lna_cleanup
                0x00038a8c       0x48 examples/beaconing/CMakeFiles/beaconing_nrf52840_xxAA_s140_6.1.1.dir/__/__/mesh/bearer/src/mesh_pa_lna.c.obj
                0x00038a8c                mesh_pa_lna_cleanup
 .text.user_op_alloc
                0x00038ad4       0x2c examples/beaconing/CMakeFiles/beaconing_nrf52840_xxAA_s140_6.1.1.dir/__/__/external/app_timer/app_timer_mesh.c.obj
 .text.timer_stop_op_schedule
                0x00038b00       0x50 examples/beaconing/CMakeFiles/beaconing_nrf52840_xxAA_s140_6.1.1.dir/__/__/external/app_timer/app_timer_mesh.c.obj
 .text.nrfx_coredep_delay_us.constprop.3
                0x00038b50       0x10 examples/beaconing/CMakeFiles/beaconing_nrf52840_xxAA_s140_6.1.1.dir/__/__/external/app_timer/app_timer_mesh.c.obj
 .text.RTC1_IRQHandler
                0x00038b60       0xd0 examples/beaconing/CMakeFiles/beaconing_nrf52840_xxAA_s140_6.1.1.dir/__/__/external/app_timer/app_timer_mesh.c.obj
                0x00038b60                RTC1_IRQHandler
 .text.SWI0_EGU0_IRQHandler
                0x00038c30      0x294 examples/beaconing/CMakeFiles/beaconing_nrf52840_xxAA_s140_6.1.1.dir/__/__/external/app_timer/app_timer_mesh.c.obj
                0x00038c30                SWI0_EGU0_IRQHandler
 .text.app_timer_init
                0x00038ec4       0xb4 examples/beaconing/CMakeFiles/beaconing_nrf52840_xxAA_s140_6.1.1.dir/__/__/external/app_timer/app_timer_mesh.c.obj
                0x00038ec4                app_timer_init
 .text.app_timer_create
                0x00038f78       0x24 examples/beaconing/CMakeFiles/beaconing_nrf52840_xxAA_s140_6.1.1.dir/__/__/external/app_timer/app_timer_mesh.c.obj
                0x00038f78                app_timer_create
 .text.app_timer_start
                0x00038f9c       0x88 examples/beaconing/CMakeFiles/beaconing_nrf52840_xxAA_s140_6.1.1.dir/__/__/external/app_timer/app_timer_mesh.c.obj
                0x00038f9c                app_timer_start
 .text.app_timer_stop
                0x00039024       0x20 examples/beaconing/CMakeFiles/beaconing_nrf52840_xxAA_s140_6.1.1.dir/__/__/external/app_timer/app_timer_mesh.c.obj
                0x00039024                app_timer_stop
 .text.is_app_timer_init
                0x00039044        0xc examples/beaconing/CMakeFiles/beaconing_nrf52840_xxAA_s140_6.1.1.dir/__/__/external/app_timer/app_timer_mesh.c.obj
                0x00039044                is_app_timer_init
 .text.errata_98
                0x00039050       0x20 examples/beaconing/CMakeFiles/beaconing_nrf52840_xxAA_s140_6.1.1.dir/C_/mesh/deps/nRF5_SDK_15.3.0_59ac345/modules/nrfx/mdk/system_nrf52840.c.obj
 .text.SystemInit
                0x00039070      0x1b8 examples/beaconing/CMakeFiles/beaconing_nrf52840_xxAA_s140_6.1.1.dir/C_/mesh/deps/nRF5_SDK_15.3.0_59ac345/modules/nrfx/mdk/system_nrf52840.c.obj
                0x00039070                SystemInit
 .text          0x00039228       0x3c examples/beaconing/CMakeFiles/beaconing_nrf52840_xxAA_s140_6.1.1.dir/C_/mesh/deps/nRF5_SDK_15.3.0_59ac345/modules/nrfx/mdk/gcc_startup_nrf52840.S.obj
                0x00039228                Reset_Handler
                0x00039250                NMI_Handler
                0x00039252                HardFault_Handler
                0x00039254                MemoryManagement_Handler
                0x00039256                BusFault_Handler
                0x00039258                UsageFault_Handler
                0x0003925a                SVC_Handler
                0x0003925c                DebugMon_Handler
                0x0003925e                PendSV_Handler
                0x00039260                SysTick_Handler
                0x00039262                TEMP_IRQHandler
                0x00039262                TIMER3_IRQHandler
                0x00039262                PWM3_IRQHandler
                0x00039262                FPU_IRQHandler
                0x00039262                USBD_IRQHandler
                0x00039262                SPIM0_SPIS0_TWIM0_TWIS0_SPI0_TWI0_IRQHandler
                0x00039262                PDM_IRQHandler
                0x00039262                UARTE0_UART0_IRQHandler
                0x00039262                TIMER4_IRQHandler
                0x00039262                CRYPTOCELL_IRQHandler
                0x00039262                I2S_IRQHandler
                0x00039262                SWI4_EGU4_IRQHandler
                0x00039262                TIMER0_IRQHandler
                0x00039262                RTC0_IRQHandler
                0x00039262                POWER_CLOCK_IRQHandler
                0x00039262                TIMER1_IRQHandler
                0x00039262                SPIM3_IRQHandler
                0x00039262                PWM2_IRQHandler
                0x00039262                ECB_IRQHandler
                0x00039262                SPIM1_SPIS1_TWIM1_TWIS1_SPI1_TWI1_IRQHandler
                0x00039262                Default_Handler
                0x00039262                SAADC_IRQHandler
                0x00039262                CCM_AAR_IRQHandler
                0x00039262                WDT_IRQHandler
                0x00039262                RADIO_IRQHandler
                0x00039262                SWI5_EGU5_IRQHandler
                0x00039262                RNG_IRQHandler
                0x00039262                RTC2_IRQHandler
                0x00039262                PWM0_IRQHandler
                0x00039262                SWI3_EGU3_IRQHandler
                0x00039262                SWI1_EGU1_IRQHandler
                0x00039262                SPIM2_SPIS2_SPI2_IRQHandler
                0x00039262                NFCT_IRQHandler
                0x00039262                UARTE1_IRQHandler
                0x00039262                MWU_IRQHandler
                0x00039262                PWM1_IRQHandler
                0x00039262                QSPI_IRQHandler
                0x00039262                COMP_LPCOMP_IRQHandler
 .text.app_error_handler_bare
                0x00039264       0x1a examples/beaconing/CMakeFiles/beaconing_nrf52840_xxAA_s140_6.1.1.dir/C_/mesh/deps/nRF5_SDK_15.3.0_59ac345/components/libraries/util/app_error.c.obj
                0x00039264                app_error_handler_bare
 .text.app_error_handler
                0x0003927e       0x1a examples/beaconing/CMakeFiles/beaconing_nrf52840_xxAA_s140_6.1.1.dir/C_/mesh/deps/nRF5_SDK_15.3.0_59ac345/components/libraries/util/app_error_handler_gcc.c.obj
                0x0003927e                app_error_handler
 .text._GetAvailWriteSpace
                0x00039298       0x1c external/rtt/librtt_nrf52840_xxAA.a(SEGGER_RTT.c.obj)
 .text._WriteNoCheck
                0x000392b4       0x3a external/rtt/librtt_nrf52840_xxAA.a(SEGGER_RTT.c.obj)
 .text._WriteBlocking
                0x000392ee       0x52 external/rtt/librtt_nrf52840_xxAA.a(SEGGER_RTT.c.obj)
 .text._DoInit  0x00039340       0x60 external/rtt/librtt_nrf52840_xxAA.a(SEGGER_RTT.c.obj)
 .text.SEGGER_RTT_WriteNoLock
                0x000393a0       0x68 external/rtt/librtt_nrf52840_xxAA.a(SEGGER_RTT.c.obj)
                0x000393a0                SEGGER_RTT_WriteNoLock
 .text.SEGGER_RTT_Write
                0x00039408       0x34 external/rtt/librtt_nrf52840_xxAA.a(SEGGER_RTT.c.obj)
                0x00039408                SEGGER_RTT_Write
 .text._StoreChar
                0x0003943c       0x3c external/rtt/librtt_nrf52840_xxAA.a(SEGGER_RTT_printf.c.obj)
 .text._PrintUnsigned
                0x00039478       0xc8 external/rtt/librtt_nrf52840_xxAA.a(SEGGER_RTT_printf.c.obj)
 .text.SEGGER_RTT_vprintf
                0x00039540      0x23c external/rtt/librtt_nrf52840_xxAA.a(SEGGER_RTT_printf.c.obj)
                0x00039540                SEGGER_RTT_vprintf
 .text.SEGGER_RTT_printf
                0x0003977c       0x1e external/rtt/librtt_nrf52840_xxAA.a(SEGGER_RTT_printf.c.obj)
                0x0003977c                SEGGER_RTT_printf
 .text.uECC_vli_mult
                0x0003979a       0x64 external/micro-ecc/libuECC_nrf52840_xxAA.a(uECC.c.obj)
 .text.uECC_vli_clear
                0x000397fe       0x16 external/micro-ecc/libuECC_nrf52840_xxAA.a(uECC.c.obj)
 .text.uECC_vli_isZero
                0x00039814       0x1e external/micro-ecc/libuECC_nrf52840_xxAA.a(uECC.c.obj)
 .text.uECC_vli_testBit
                0x00039832       0x14 external/micro-ecc/libuECC_nrf52840_xxAA.a(uECC.c.obj)
 .text.uECC_vli_numBits
                0x00039846       0x3e external/micro-ecc/libuECC_nrf52840_xxAA.a(uECC.c.obj)
 .text.uECC_vli_set
                0x00039884       0x18 external/micro-ecc/libuECC_nrf52840_xxAA.a(uECC.c.obj)
 .text.uECC_vli_cmp_unsafe
                0x0003989c       0x2a external/micro-ecc/libuECC_nrf52840_xxAA.a(uECC.c.obj)
 .text.uECC_vli_rshift1
                0x000398c6       0x1a external/micro-ecc/libuECC_nrf52840_xxAA.a(uECC.c.obj)
 .text.uECC_vli_modMult_fast
                0x000398e0       0x20 external/micro-ecc/libuECC_nrf52840_xxAA.a(uECC.c.obj)
 .text.uECC_vli_modSquare_fast
                0x00039900        0x8 external/micro-ecc/libuECC_nrf52840_xxAA.a(uECC.c.obj)
 .text.apply_z  0x00039908       0x3e external/micro-ecc/libuECC_nrf52840_xxAA.a(uECC.c.obj)
 .text.uECC_vli_nativeToBytes
                0x00039946       0x28 external/micro-ecc/libuECC_nrf52840_xxAA.a(uECC.c.obj)
 .text.uECC_vli_bytesToNative
                0x0003996e       0x40 external/micro-ecc/libuECC_nrf52840_xxAA.a(uECC.c.obj)
 .text.default_RNG
                0x000399ae        0xc external/micro-ecc/libuECC_nrf52840_xxAA.a(uECC.c.obj)
 .text.uECC_vli_add.isra.0
                0x000399ba       0x4a external/micro-ecc/libuECC_nrf52840_xxAA.a(uECC.c.obj)
 .text.regularize_k
                0x00039a04       0x50 external/micro-ecc/libuECC_nrf52840_xxAA.a(uECC.c.obj)
 .text.uECC_vli_sub.isra.1
