:020000022000DC
:1060000000FD0320299203005192030053920300E4
:1060100055920300579203005992030000000000BC
:106020000000000000000000000000005B92030080
:106030005D920300000000005F9203006192030084
:106040006392030063920300639203006392030070
:106050006392030063920300896B02006392030062
:106060006392030063920300917C03006392030038
:106070006392030063920300639203006392030040
:1060800063920300618B03006D3A03006392030087
:10609000318C0300639203004D7002006392030091
:1060A0006392030063920300639203006392030010
:1060B00063920300639203000000000000000000F0
:1060C00063920300639203006392030063920300F0
:1060D00063920300639203006392030063920300E0
:1060E00063920300639203006392030000000000C8
:1060F00000000000639203000000000063920300B0
:10610000000000000000000000000000000000008F
:10611000000000000000000000000000000000007F
:10612000000000000000000000000000000000006F
:10613000000000000000000000000000000000005F
:10614000000000000000000000000000000000004F
:10615000000000000000000000000000000000003F
:10616000000000000000000000000000000000002F
:10617000000000000000000000000000000000001F
:10618000000000000000000000000000000000000F
:1061900000000000000000000000000000000000FF
:1061A00000000000000000000000000000000000EF
:1061B00000000000000000000000000000000000DF
:1061C00000000000000000000000000000000000CF
:1061D00000000000000000000000000000000000BF
:1061E00000000000000000000000000000000000AF
:1061F000000000000000000000000000000000009F
:1062000010B5054C237833B9044B13B10448AFF3F0
:1062100000800123237010BDF02E0020000000003C
:1062200014C6030008B5034B1BB103490348AFF381
:10623000008008BD00000000F42E002014C60300FA
:10624000154B002B08BF134B9D46A3F5803A002148
:106250008B460F461348144A121A14F087FB0F4B53
:10626000002B00D098470E4B002B00D09847002001
:10627000002104000D000D48002802D00C48AFF3A7
:10628000008014F025FB2000290000F051F914F0E3
:106290000BFB00BF0000080000FD03200000000011
:1062A00000000000F02E00204C54002000000000F0
:1062B0000000000041DF7047F0B54FF0A0434FF4FD
:1062C00000520024C3F80825C3F80C458268EBB0DF
:1062D000117D92F90D300691D17C0591917C04914C
:1062E000517C0391117C0291D17B01910178009145
:1062F00009AE054652682849304614F0F7FB274B93
:106300001B685B0425D5264B1B68032B21DD6978B0
:10631000244B8029186828BF8021234629AC8B4252
:1063200022D100222F21204804F8132014F00EFC63
:1063300040B32F211C4814F009FC411C1B4B1C4A84
:10634000D3F804350092CDE90164572204200EF001
:10635000F3FA4FF0A0434FF40052C3F80C2500228B
:10636000C3F808256BB0F0BD6A68D25C170902F06B
:106370000F02C75D04F81370875C04EB430201331E
:106380005770CCE75C21084814F0E0FB08B15C21B1
:10639000D0E70549D2E700BFBAB30300642E00205E
:1063A000602E0020682E002099B3030000100140E9
:1063B00001B4030007B503781C2B2ED1184B1B68C2
:1063C0005B0416D5174B1B68032B12DD2F211648D3
:1063D00014F0BCFBC0B12F21134814F0B7FB411CD3
:1063E000124B134AD3F80435009204208C220EF08D
:1063F000A3FA0322C8214FF4F03000F057FB03B09A
:106400005DF804EB00F068BA5C21074814F09EFBCD
:1064100008B15C21E0E70449E2E703B05DF804FB62
:10642000642E0020602E002099B30300001001406C
:10643000E2B2030010B5044600214FF4F03004EB43
:10644000840400F029FB620032214FF4C030BDE823
:10645000104000F02BBB00F05BBB00001FB52E4CC2
:106460002268520417D52D4B1B68032B13DD2F21F7
:106470002B4814F06BFB00283CD02F21284814F047
:1064800065FB411C274B284AD3F8043500920420B1
:10649000A9220EF051FA03A803F08AFD23685B04D9
:1064A00019D51E4B1B68032B15DD2F211C4814F03A
:1064B0004DFB40B32F211A4814F048FB411C194BE7
:1064C000BDF80C20D3F804350192184A009204203C
:1064D000AD220EF031FA00F01BFB00214FF4F0303A
:1064E00000F0DAFA0422C8214FF4F03000F0DEFAAE
:1064F00004B010BD5C210A4814F028FB08B15C21EF
:10650000BCE70749BEE75C21054814F01FFB08B152
:106510005C21D0E70249D2E7642E0020602E0020E3
:1065200099B303000010014068B3030082B3030075
:1065300000B58DB012F0C6FC18B1704ACB2112F034
:106540009EFE6F4E00F0F4FA04216E4A4FF4804034
:106550000EF0D6F93368590418D56B4B1B68032B22
:1065600014DD2F21654814F0F1FA002800F0AA800C
:106570002F21624814F0EAFA411C644B644AD3F8B4
:10658000043500920420CF220EF0D6F900F0C0FBB3
:106590000021242203A814F0E9F901238DF80C301E
:1065A00007238DF80F3006238DF8143059495A4BC4
:1065B000079303A800F05AF918B1504ABC2112F011
:1065C0005EFE56480CF0ECF94023554A5548002130
:1065D00011F008FA33685A0417D54B4B1B68032B8C
:1065E00013DD2F21454814F0B1FA002873D02F2174
:1065F000424814F0ABFA411C444B4B4AD3F80435E3
:1066000000920420D5220EF097F9424B1B787BB9FB
:10661000464D0FCD03AC0FC495E8030084E803009A
:1066200003A800F0D3F918B1344AE62112F027FE8E
:10663000092010F0CFFF3B4811F0D4F8122139485F
:1066400011F0EAF8044650B139491222113014F021
:1066500082F9FF2323712146324811F018F909F01D
:10666000C3FA00F0C1FA00F075F818B1234AF0211E
:1066700012F005FE33685B0416D5234B1B68032B11
:1066800012DD2F211D4814F061FA68B32F211B4839
:1066900014F05CFA411C1D4B264AD3F804350092D5
:1066A0000420F2220EF048F900214FF4F03000F0FF
:1066B000F3F90222C8214FF4F03000F0F7F9FFF7A8
:1066C000F9FDFCE75C210D4814F040FA08B15C21AB
:1066D0004FE70A4951E75C21084814F037FA08B13E
:1066E0005C2185E7054987E75C21044814F02EFA10
:1066F00008B15C21CBE70149CDE700BF99B30300A6
:10670000642E0020D5480300602E002000100140B8
:10671000FBB20300E82F0020B5630200B96202005B
:106720000C2F00204C2F002026B30300B8B203002A
:10673000D0B2030040B3030010B504460EF07EFE55
:1067400038B123780E2B04D10020BDE810400CF0A6
:106750007DB910BD0CF0C4B870B5837DC27D86B024
:1067600043EA0223ADF814300446012305A80E467F
:10677000ADF8163003F0E0FB0546002847D104AA27
:106780002146208A03F0CEFD054600283FD10DF1B9
:1067900012033246BDF81010E08A03F0C7FF054629
:1067A000002834D1217ED4F8120001F001010BF051
:1067B000E5FC10B1784604F055FDBDF8120006F076
:1067C0008BFF054618BB184B1B681B031DD5174BC9
:1067D0001B68062B19DD2F21154814F0B7F9C8B135
:1067E0002F21134814F0B2F9411C227E114B02F004
:1067F0000102D3F804350292D4F8122001920E4A15
:1068000000920720C3220EF097F801F027F92846DE
:1068100006B070BD5C21064814F098F908B15C21FF
:10682000DFE70349E1E700BF642E0020602E00206F
:1068300031B403000010014050B4030008B510F05B
:106840003FF901F026FD03F0FFFABDE808400BF028
:1068500055BA07B501A803F0ABFBBDF80400003042
:1068600018BF012003B05DF804FB000073B50E46AD
:10687000054660B30BF0C0FF044628BB03F03EFBA7
:1068800002F072FA286906F0F7FE0446E0B92B7FA1
:106890000193AB69009301466B690E484FF6FF7296
:1068A00007F070F9044678B92B6A03B1984710F0E5
:1068B0001FF803F037FA01F043FA08B101F0CEF8FF
:1068C000FFF7C7FF06B13070204602B070BD0E243E
:1068D000FAE700BFEC2F002008B50EF0AFFD20B1A5
:1068E0000020BDE808400CF0B1B80248BDE80840FF
:1068F0000CF04EB8A02D002010B50749074807F04E
:1069000037FD024638B90649064809690123BDE842
:10691000104007F046BD10BD603000207C330020E1
:10692000483000204832002010B50378023B082B85
:106930002CD8DFE803F01B05102B2B2C2B2B380059
:106940001E4B5B6813B3007A00B31D4A012111701E
:10695000BDE810401847194B9B68BBB1184A117825
:10696000A1B100211170BDE810401847154B1A78ED
:10697000124B42B9DB6813B111490A709847BDE860
:106980001040FFF7B9BF1B68002BECD110BD0B4BBB
:106990000D485969102207F049FD0028F6D0BDE8DE
:1069A000104012F05FBCD0E90210FFF7D5FE08B12D
:1069B00012F058FC034B01221A70E7E74830002020
:1069C00044300020453000204832002070B5164A7F
:1069D000164E5168044686B0106803AB03C3118994
:1069E000927A19809A700FCC35460FC594E803004F
:1069F00085E803007369A3B10D4B00930D4A0E495E
:106A00000E4803AB07F086FC48B90D4808F092FC2D
:106A100001460A4807F098FC08B9FFF76DFF06B079
:106A200070BD0720FBE700BF70B4030048300020B2
:106A300029690200603000207C33002048320020A9
:106A40008030002070B5104C206808B912F00AFCA4
:106A50004FF0A0450D4ED5F8043532685340C5F8C7
:106A600004352368013B236063B9094812F0DAFA60
:106A70003268D5F8043523EA0203064A1268134344
:106A8000C5F8043570BD00BFBC330020C033002002
:106A9000C4330020EC3300204FF0A04311B1C3F801
:106AA0000C057047C3F8080570470000F8B52AB315
:106AB000132923D9124B134D5200013A4FF0A04431
:106AC0001A602860D4F8043518400F4B4FF4FA765A
:106AD000186000274FF40040E0FB01674FF47A7222
:106AE00000233046394613F05FFD00220146074877
:106AF00012F054FA10B92B68C4F80C35F8BD00BF79
:106B0000BC330020C0330020EC330020C43300200D
:106B100008B5054812F086FA044B1A684FF0A043F6
:106B2000C3F8082508BD00BFC4330020C0330020CF
:106B300008B54FF0A04303224FF40051C3F83427A7
:106B4000C3F808154FF48041C3F83827C3F8081577
:106B50004FF40041C3F83C27C3F80815C3F8402799
:106B60004FF48032C3F808250121054A054812F088
:106B700003FA18B1BDE8084012F074BB08BD00BFAD
:106B8000456A02007CB40300124B70B50024124E1B
:106B9000124DC3F87C414FF0A043A15DD3F81025FE
:106BA00001238B40934311D00D49D5F804250B6880
:106BB000981A48BFD01A43F23333984206D9D5F811
:106BC00004350B60074B20461B6898470134042CA2
:106BD000E1D170BD0060004080B4030000100140AE
:106BE000E8330020E433002070B50446CEB000281E
:106BF00064D03C4D2A6852042FD53B4B1B68032BB5
:106C00002BDD3A4B0DAE19680023E25C100902F04F
:106C10000F02085C06F81300885C06EB43020133A0
:106C2000102B5070F1D100232F21314886F82030ED
:106C300013F08CFF002843D02F212D4813F086FF3E
:106C4000411C2C4B2C4AD3F8043501922B4A00925C
:106C50000296412204200DF06FFE2B685B042DD5B7
:106C6000214B1B68032B29DD2F21214813F06EFFD8
:106C700000282ED02F211E4813F068FF411C1D4B09
:106C8000E27BD3F804350B92A27B0A92627B0992D5
:106C9000227B0892E27A0792A27A0692627A0592A1
:106CA000227A0492E2880392A288029222680192D8
:106CB000134A0092042046220DF03EFE4EB070BDF5
:106CC0005C210B4813F042FF08B15C21B5E708498D
:106CD000B7E75C21064813F039FF08B15C21CAE729
:106CE0000349CCE7642E0020602E0020682E00208F
:106CF00084B4030000100140ACB4030001B40300ED
:106D0000BEB4030060DF704769DF70470BF042BE1E
:106D100010B588B000F04AF908B112F0A3FA2B4B75
:106D20000393039B04930C22002105A813F01EFE7D
:106D30000023049A8DF8143005A90120FFF7E4FF21
:106D400008B112F08FFA0C22002105A813F00EFEF4
:106D5000F823049A059305A9A120FFF7D5FF08B1F0
:106D600012F080FA04A8FFF7CDFF039B049A9A4221
:106D700004461CD0164B1B685B0418D5154B1B68CA
:106D8000012B14DD2F21144813F0E0FEA8B12F21B0
:106D9000114813F0DBFE411C104B049AD3F8043564
:106DA00001920F4A00920220A2220DF0C5FD14B1FB
:106DB000204612F057FA08B010BD5C21064813F0C7
:106DC000C5FE08B15C21E3E70349E5E7A02D0020FB
:106DD000642E0020602E0020FEB40300001001404D
:106DE0002EB5030070B5EFF3108672B60C4A9468A6
:106DF00001239CB993600B4B0B4DD3F880102940B5
:106E00001160C3F88050D3F8841051604FF0FF3206
:106E1000C3F88420047006B962B670BD0370FAE747
:106E2000A053002000E100E0FC06FFBD10B5084BB8
:106E30009A685AB150B9EFF3108172B6054A1C68CE
:106E400014605C685460986001B962B610BD00BF00
:106E5000A053002000E100E001600B6843604A6835
:106E6000934204BF002343607047436843B1026804
:106E700091680B4443605268934204BF002343600F
:106E800070474BDF704700001FB50D4C01A8FFF79E
:106E9000F8FF70B9214602A8FFF7DEFF039B002B25
:106EA000F4D00198D3E90021904702A8FFF7DDFF55
:106EB000F4E7052801D012F0D5F904B010BD00BFE9
:106EC00068B5030061DF704730B5114B1B7891B096
:106ED000E3B1104D34240DF1020103A8ADF80240D6
:106EE000FFF7F0FF70B9294601A8FFF7B5FF029B35
:106EF000002BF0D003A8D3E90021904701A8FFF7A9
:106F0000B4FFF4E7052801D012F0ACF911B030BDA0
:106F1000F033002074B5030010DF704713B504464A
:106F200009496846FFF798FF019808B902B010BDFB
:106F3000D0E900312046984718B16846FFF795FF21
:106F4000F2E71120F2E700BF84B5030013B5044651
:106F500007496846FFF780FF019B0BB902B010BDDF
:106F60002046D3E9002190476846FFF77EFFF3E70C
:106F70009CB503000B4991F816335A09EC231341D1
:106F8000DB0706D5084B9A683AB94FF480030B60CB
:106F9000704742F2020012F065B91A6842F48002AA
:106FA0001A60704700E100E0A0530020F7B5184FC9
:106FB0003C785CBB174E012520463570FFF7AEFFCD
:106FC000112820D02046FFF7C1FF134B186801900D
:106FD00002A800F8054DFFF705FF104901A8FFF7CB
:106FE0009BFF0446B0FA80F0400938709DF803001A
:106FF000FFF71CFF3CB90A4B34701C70FFF7BAFF57
:107000002846FFF7A3FF204603B0F0BD0824FAE7A7
:10701000F2330020F133002080B5030065B0020098
:10702000F333002007B508496846FFF715FF019BB9
:1070300013B903B05DF804FBD3E90020904768461C
:10704000FFF713FFF3E700BF90B50300FFF7EABFB8
:1070500038B5837803F003020446032A22D8DFE818
:1070600002F00214191D9B08154A164812681344B1
:107070000268A3600021EAB195685D1B002D16DA55
:10708000D1B91146E160046038BD9B0803EB83036E
:107090005B00E9E79B0864225343E5E79B0841F264
:1070A0007072F9E7784604F0DDF80023DCE711465A
:1070B000D268E0E70029E5D0CC60E260E4E700BFF9
:1070C0000C3400201434002008B5032809D8DFE868
:1070D00000F00D020406064808BD0648FCE7064815
:1070E000FAE7784604F0BEF80020F5E70348F3E736
:1070F00040420F00809698000046C323A0860100FE
:107100002DE9F041574D2B78A3B1574B574E5C6892
:107110000BF09EFE241A3078FFF7D6FF3278544BDE
:10712000001B002A40D14CF2503290423CD91A68E0
:1071300001321A60DFF84881D8F80020002A00F0F8
:1071400087804A4E9378307803F0030383423446B5
:1071500064DD474B97681B68FB1A464F5F43FFF798
:10716000B3FFD8F80030B7FBF0F09F78C7F3010702
:10717000FBB2022B1FD031D8012B47D10A22B0FB22
:10718000F2F302FB1300002840D10BF061FE00F582
:10719000742101F5107137702B78002B50D03248D4
:1071A000BDE8F0410BF02BBE1A683249B0FBF1F09C
:1071B00010441860BEE7337863B96422B0FBF2F381
:1071C00002FB130010BB0BF043FE2B4902230144CA
:1071D0002370E1E7012B19D10A22EFE7337863B975
:1071E00041F27072B0FBF2F302FB130070B90BF0C6
:1071F0002FFE224903230144EAE7012B02D14FF479
:107200001672EFE7022B01D13C22EBE70BF020FED8
:1072100006462078FFF758FF3118BDE70BF018FE3F
:10722000D8F800300446987800F00300FFF74CFFD0
:10723000D8F800309B78C3F3010321183370ABE713
:107240000948012341602B70BDE8F0410BF09EBD61
:107250002B7823B10448BDE8F0410BF0B9BDBDE87F
:10726000F08100BF10340020F433002011340020DE
:107270000C340020A0860100809698000046C323AD
:10728000143400202DE9F341244B1B78032B2AD81A
:10729000DFE803F0021B1F23214A13680133136048
:1072A000204B214E1E4D00221A70B04634683CB16E
:1072B000A3682A6893421AD02A689B1A002B16DB0F
:1072C000FFF71EFF02B0BDE8F081154A13680A33CC
:1072D000E5E7134A13686433E1E7114A136803F5DD
:1072E000BB531033DBE7784603F0BCFFD8E72788B1
:1072F000E368C8F8003002A9002341F8043D38468D
:1073000001F09CFC10B1784603F0ACFF384663688E
:10731000019998472046FFF79BFEC7E711340020EC
:107320000C340020103400201434002010B5084C18
:1073300018220021204613F019FB064B064AA360D1
:1073400000231360054A1360054A137010BD00BF87
:10735000F4330020857202000C3400201434002025
:1073600010340020F8B50F461646044610B978468A
:1073700003F078FF124D0CF015FA2B6800220BB1C8
:10738000A34216D1A17867F3010166F38701A170CA
:107390009BB1DB6882B92B602EB12046FFF758FE07
:1073A0002B689C4201D1FFF7ABFEBDE8F8400CF022
:1073B00039BA1A46DB68E2E7D360002EF5D0ECE775
:1073C000143400200A4B93F8390093F85D2080F0C4
:1073D0000100404280B24AB14FF6FF72904204D0A1
:1073E000586D1B6BC01AC00F70470120704700BF5B
:1073F0001834002038B5154C242303FB0043054600
:1074000093F8393013B9784603F02CFFB4F86030A4
:1074100013B9784603F026FF242202FB054300211E
:1074200083F83910B4F86030013B9BB2A4F86030A7
:107430001BB94FF6FF73A4F8623002FB0544A06A43
:1074400010F021F80023A36238BD00BF18340020DB
:107450002DE9F84F2C4DB5F86030064613B9784643
:1074600003F000FF294C06F57A7B00274FF0010955
:1074700048F2111A637C1FFA87F8C3B1A368A3EB23
:107480000B03002B13DAA3882268A4F110014046F5
:1074900000F0E6FE102827D809FA00F313EA0A0FD5
:1074A00025D11B4A13421ED04046FFF7A3FF2434C8
:1074B000BFB1FFF787FFB5F86030A5F862000BB3E6
:1074C000012802D9784603F0CDFEB5F862302422B7
:1074D00002FB03531B6B9A1B48BFF21AEA60BDE81C
:1074E000F88F0127C6E710B1784603F0BBFE237C76
:1074F000013BDBB22374002BD6D0D4E90232134413
:10750000A360D4E7EB60EAE71834002040340020A1
:10751000A002010010B5064C64220021204613F0A1
:1075200025FA044BA3604FF6FF73A4F8623010BD38
:1075300018340020517402002DE9F0470128064656
:10754000884617469A46BDF8209002D9784603F03F
:1075500089FEB8F1000F02D1784603F083FE17B917
:10756000784603F07FFE98F800305B0702D178463A
:1075700003F078FEBAF1000F02D1784603F072FEF4
:10758000B9F1000F02D1784603F06CFE274C24239A
:1075900003FB064393F8393013B13046FFF72AFF57
:1075A0000BF056FC844697E80F00242505FB0645A2
:1075B00005F1180E8EE80F00C5F828A0A5F82C904C
:1075C00098F80030C3F3020385F8383098F80000CB
:1075D000C3084CF2503003FB0000012385F839301A
:1075E000B4F860306863604401332863A4F8603005
:1075F000FFF7E8FEB4F86230834201D19E4213D116
:107600004FF6FF739842A4F8620002D1784603F067
:1076100029FEB4F862300548242202FB0344216BA2
:10762000BDE8F0470BF0EBBBBDE8F0871834002055
:107630004A09012301F01F0103FA01F150F8223039
:10764000194214BF0120002070474FF6FF72B2EBC1
:10765000104F82B083B215D113F47F4007D003F4EA
:107660004043B3F5004F14BF0020012006E023F093
:107670007F022AB97F3B18BF0123184602B070472A
:107680000346FAE723F03F03C02BECE701289FBF36
:10769000054B382202FB003090F8340094BF00F014
:1076A00001000020704700BFB834002000470000F0
:1076B0004388C3F30B03012B02D9002008707047E5
:1076C000064A12F8331041F0010102F8331002EBC0
:1076D000C3034268D2435A60012070472835002016
:1076E0004388C3F30B0313B1002008707047024BAB
:1076F00082881A80012070477E34002007B5134627
:107700004FF47042ADF804200122ADF806001A7063
:1077100003480A4601A90DF04FFC03B05DF804FBD5
:107720009034002070B51C460B89B3F5BE7F05462A
:10773000164606D3092323602068B0FA80F040097A
:1077400070BDFFF7A3FF28B10C48382303FB0500E9
:1077500083890BB10523EEE73EB982884FF6FF73AC
:107760009A4206D0C2889A4203D00868FFF76DFF9C
:1077700008B90723DFE70023DDE700BFB8340020A6
:10778000784603F06FBD000008B5094B0948002298
:107790001A70094B01221A700DF0FCFB20B107484A
:1077A000BDE808400DF032BE054B187008BD00BFA3
:1077B000B534002090340020B4340020BC2D0020CB
:1077C0007C34002010B50E4C70220021204613F0AE
:1077D000CDF8062200210B4813F0C8F81022002132
:1077E000094813F0C3F84FF0FF31084A61600123E4
:1077F000E260A384E1636264A4F85C3010BD00BF62
:10780000B83400207E34002028350020FFFF02001D
:107810002DE9F04FD5B0044607A80D4604929946CD
:10782000BDF8788102F0C4FB704BBDF81E10049ABD
:10783000382000FB04308789B94205D84FF0100A80
:10784000504655B0BDE8F08FBDF81C10049108AE4D
:10785000002A00F0968002F10C0103C9B2F81EB0B4
:10786000B2F824A0127F86E80300002A00F0998075
:10787000382202FB0434647CFF2C01D15C4B1C7861
:10788000B9F1000F02D1784603F0ECFCB8F1000F1B
:1078900002D1784603F0E6FC0AAB18462422002108
:1078A000059313F063F8504610AA594603F064F9A3
:1078B000059B82460028C3D1049A9C7296E8030077
:1078C0001744AA7ADA72EA7A1A7383E80300EA683C
:1078D0001F8151461846C3F81090A3F814801A620D
:1078E0000BF054F882460028AAD1424C2268920438
:1078F0001AD5414B1B68042B16DD2F213F4813F08E
:1079000025F900284FD02F213C4813F01FF9411CC6
:107910003B4B2A88D3F8043501923A4A009205205D
:107920004FF4CE720DF008F823689B0488D5324BD3
:107930001B68042B84DD2989334B8029186828BFF4
:107940008021002313AC8B4236D100222F212B48FB
:1079500004F8132013F0FAF800283BD02F21274811
:1079600013F0F4F8411C264B284AD3F80435019251
:10797000274A0092029440F29D1205200CF0DCFF91
:107980005EE7B0F804B0C0880593314602F08EFB84
:1079900048BB7288002A3FF451AF4FF6FF7A059B2F
:1079A00066E714466CE75C21144813F0CFF808B181
:1079B0005C21A9E71149ABE76A68D25C160902F0BD
:1079C0000F02865D04F81360865C04EB430201330A
:1079D0005670B8E75C21094813F0B8F808B15C218B
:1079E000BDE70649BFE74FF0050A29E7B834002094
:1079F000DC2D0020642E0020602E00205AB60300EB
:107A00000010014076B60300682E00208AB60300FD
:107A100001B4030030B5012A8DB004460D4604D1EF
:107A2000784603F01FFC0DB030BD022AF8D0032ABF
:107A3000F9D12C22002101A812F098FF11238DF812
:107A4000043002238DF80830E368059301A8236908
:107A50000395069309F06AFBE5E700002DE9F04184
:107A60004E4B1B78002B00F096800BF09BFE4C4B8E
:107A70001B78BBB94B4C23786BB9062201214A48CD
:107A80000DF047FB70B102220125C5800281828082
:107A90000DF06EFB25700024444DDFF80C81264666
:107AA000A1B21EB142480DF0B1FC6CE015F83430C3
:107AB00003F00303032B4FEAC40711D1042241F45E
:107AC000405140460DF025FB002860D0EB195B6863
:107AD000DB4343600DF04CFB7B5D23F002037B55E1
:107AE000002C56D0002EDDD1324C63799B070FD588
:107AF00002224FF480512C480DF00BFB0028D1D00E
:107B0000228882800DF034FB637923F002036371D5
:107B1000294C94F8343003F00303032B16D11422BC
:107B20004FF4005120480DF0F4FA05460028B9D072
:107B300014222146043012F00EFF28460DF018FBE7
:107B400094F8343023F0020384F8343094F86C3025
:107B500003F00303032B16D1142242F20101124851
:107B60000DF0D7FA054600289CD0142213490430A2
:107B700012F0F1FE28460DF0FBFA94F86C3023F079
:107B8000020384F86C30BDE8F0410BF04BBE1126C7
:107B9000A6E7012484E7BDE8F08100BF7C34002023
:107BA000B4340020B5340020903400202835002063
:107BB000CC2D00207E340020B8340020F03400208A
:107BC0004A0901F01F034FF0FF31994050F822306D
:107BD000194009D04B420B4004495943C90E044B8C
:107BE000585C00EB421070471820704731B57C0795
:107BF0003AB603002DE9F04F85B08146924698468B
:107C00000E9F0D4611B9784603F02CFB03AB52468C
:107C100029464846FFF786FD18B9039805B0BDE828
:107C2000F08F69882B884FF6FF72914230D1B3F5FF
:107C3000807F34BF4FF0010B4FF0020B2E895E4462
:107C4000B6B230460FF01DFC044680B36A882B881C
:107C50004FF6FF708242D9B21DD06270120A2170B5
:107C6000A2702A89696804EB0B0012F074FE00967A
:107C70002346524629464846FFF7CAFD039018B9E5
:107C8000B8F1000F00D077B920460FF0FCFBC4E735
:107C90004FF0030BD2E713F47F4F1DBF1B0A237075
:107CA00061702170DDE7C8F800403E80B6E704202F
:107CB000B4E7000038B54388C3F30B03012B044637
:107CC00010D8028A72B91B48382202FB0302D589F8
:107CD000628A012D09D8954204D1174D15F832500A
:107CE000ED0704D40020087038BD012A06D8124DD3
:107CF00015F8321041F0040105F83210382514222D
:107D0000211D05FB030012F026FEA188238A4FF6F1
:107D1000FF729142094A4FF0060101FB03234FF025
:107D200001000BBF9A78DA78013201320CBF9A70E9
:107D3000DA70D9E7B8340020283500207E340020DE
:107D40002DE9F04F87B006AB062243F80C2D012138
:107D500004AA54480DF0A6F9044628B1524B01205C
:107D6000187007B0BDE8F08FBDF81230012B09D0B4
:107D70004E4B1B689B0473D402F066F8FFF704FDBA
:107D8000002052E0BDF81420022AF1D1BDF81020E5
:107D9000022AEDD1464A474913704FF440500DF185
:107DA0000B02FFF7ABFC9DF80B30002BE0D0424BF1
:107DB00042495A791C8022F002025A715C800DF10E
:107DC0000B024FF48050FFF799FC9DF80B30002B0D
:107DD000CED00DF10B023A494FF40050FFF78EFC64
:107DE0009DF80B30EBB1E0B1364FDFF8ECA0B946AF
:107DF0004FF6FF78A346BB89434510D0F88840452D
:107E000005D002F0E9F810B1784603F02BFAFE89AC
:107E1000022E10D1382303FB049383F812B03837B5
:107E20003CB19DF80B000028A2D01F4B01221A7014
:107E300097E70124DFE70AEBC60604360021304647
:107E4000FFF7BEFE18280546E4D0A8B202F012F9EA
:107E500010B1784603F006FA691C1729EFD9D9E763
:107E6000194B1B68002B87DD2F21184812F06EFE7E
:107E700078B12F21154812F069FE411C144B154AA8
:107E8000D3F804350092012040F2E2320CF054FDA8
:107E900072E75C210D4812F059FE08B15C21E9E758
:107EA0000A49EBE7903400207C340020642E002047
:107EB000B5340020B17602007E340020E176020065
:107EC000B57C0200B8340020602E00205AB60300B2
:107ED00000100140A8B50300283500202DE9F04F1F
:107EE00000F114048FB00546204603F095F8814652
:107EF000002876D04FF6FF73ADF832302B7D012B82
:107F000072D10DA802F054F8EB8ABDF834209B1A08
:107F10009BB209934E46554C4FF0000A002E7CD080
:107F2000A788099BFA1A5742574194F82C30E98BDD
:107F300003F0010320460A93FFF77AFB29880B9090
:107F4000A28C68884FF00008904576D34FF0000867
:107F5000C346474B1B689B0425D5464B1B68062B25
:107F600021DD2F21444812F0F1FD002875D02F218A
:107F7000414812F0EBFD411C0B9A404BD3F80435FD
:107F8000CDF818B0CDE904720A9A039234F8062CA1
:107F9000029234F8082C0192394A0092072040F2EC
:107FA00059420CF0C9FC0A9BBBB1B7B10B9BA3B102
:107FB000BBF1000F11D02B7D012B1FFA8AF704D1E2
:107FC000A26A2946384601F03BF8236AA26A03EB0D
:107FD000C80329465B68384698473834BAF1000F21
:107FE00018D00FB0BDE8F08FEB8A04339BB2032B9F
:107FF0000AD90DF13201204602F0B8F840B17846B6
:1080000003F030F9002686E700230646099382E74D
:10801000064680E74FF0010A80E7E08801280AD889
:10802000184BBDF8321003EBC0000430FFF700FB23
:1080300000F0010779E73046FAE7236A03EBC80C42
:1080400033F838308B4203D1BCF80230834202D07F
:1080500008F1010878E7CB467BE75C21064812F07F
:1080600075FD08B15C2183E7034985E7C034002032
:10807000642E0020602E00205AB60300001001403C
:10808000CAB50300283500202DE9F04303681D78A8
:1080900005F0C002402AD1B004460FD003D86AB11F
:1080A0000026354610E0802A00F09D80C02AF7D1D6
:1080B0009A785E78ADB246EA022605E0ADB27F2D31
:1080C00000F08E804FF6FF765A4B1A6812F4005F6C
:1080D000984619D0584B1B68042B15DD2F215748A3
:1080E00012F034FD002800F082802F21534812F056
:1080F0002DFD411C524B534AD3F804350092019593
:10810000F62205200CF018FCE06902F09DF881468B
:10811000A06902F085F84FF6FF739E42ADF8145047
:10812000ADF8166027686BD1FF2D8CBF02230123A9
:108130004FF6FF721F4496420697A38862D1FF2D27
:108140008CBF022201229B1A227A8DF8202062899C
:10815000ADF82220E2680992227C8DF82820628AFC
:10816000ADF82A2062690B9294F820208DF8302017
:10817000626A0D92D8F80020ADF832909BB292045A
:10818000ADF81C30ADF8380027D52B4A1268042A08
:1081900023DD2D4A802B106828BF802300220FACDE
:1081A0009A4231D100232F21244804F8123012F0D2
:1081B000CDFC002835D02F21204812F0C7FC411CEF
:1081C0001F4B224AD3F804350192214A00920294AF
:1081D00040F20D1205200CF0AFFB05A8FFF77EFE64
:1081E00051B0BDE8F0835B7843EA05256AE75C217E
:1081F000124812F0ABFC08B15C2177E70F4979E730
:10820000032395E703229EE7B95C0D0901F00F01F6
:10821000455D04F81250455C04EB420101324D709B
:10822000BEE75C21054812F091FC08B15C21C3E770
:108230000249C5E7642E0020602E00205AB60300D4
:10824000001001401FB60300682E002032B6030064
:1082500001B40300037813B90430FFF715BF70476A
:10826000F0B5064685B014461D4681B17AB173B1AA
:1082700003AB0022FFF756FA10B9039805B0F0BD22
:108280000095234600223046FFF7C2FAF6E70E209B
:10829000F4E708B5FFF796FA00F014FFBDE80840D0
:1082A000FFF772BA2DE9F0410446002800F0BC80C7
:1082B000002900F0B980C3681BB18368002B00F06F
:1082C000B3804FF6FF730B80E3681BB9A368002BE4
:1082D00040F0AC80A388002B40F0AA80574B1B785D
:1082E00013B10F20BDE8F081554DAB78E878C3425B
:1082F00070D1D4E902870026B74240F08E800A8808
:108300004FF6FF739A424F4B40D193F8342012F04E
:10831000010205D093F86C20D20700F18D80012274
:1083200038200A8000FB02324FF6FF76D6800A889A
:1083300000FB023296800A88A78800FB02329781F0
:108340000A88678800FB023257800A8827884243E0
:108350009F520A8800FB023046742088A288B042EF
:108360004FF0060000FB02520BBF9078D07801302E
:1083700001300CBF9070D0700A88382000FB0232A8
:1083800092F8340040F0020082F834000888256931
:10839000382202FB003005630888A56802FB003024
:1083A00085620888E56802FB003085850888646975
:1083B00002FB00308461088802FB0034A082098837
:1083C00002FB0133002093F8342042F0010283F8CD
:1083D000342087E71B4B20889A8966882AB95F88F2
:1083E000B74202D11F8887420DD0B3F84420002A3B
:1083F0007FF47FAF5A8FB2427FF47BAF1A8F8242F5
:108400007FF477AF0122382000FB02330A8093F813
:108410003430D8077FF56DAF63E758F83600FFF7C3
:1084200014F938B1013667E70E205BE7092059E7F8
:10843000052057E7072055E7042053E77C34002048
:108440007E340020B83400207FB505460E4619B3AF
:108450000DF10A030022009303ABADF80A20FFF7E9
:10846000C9FB044688B90D48039B38226A4381182A
:10847000C97C49070CD002F11301BDF80A20009213
:10848000014432462846FFF757F8204604B070BD35
:1084900018460EF0F8FFF8E70E24F6E7B83400208F
:1084A00013B514460A4639B134B10023009321466E
:1084B000FFF7A0FB02B010BD0E20FBE710B504468D
:1084C000FFF7E4F888B1172911D80A48382303FBCD
:1084D0000400C3888B4206D090F83430C18043F04A
:1084E000020380F83430002000E0052010BD072092
:1084F000FCE700BFB834002010B5044651B1FFF7C7
:10850000C5F848B1054B382202FB04340020E3884B
:108510000B8010BD0E20FCE70520FAE7B8340020E0
:10852000012870B51DD8104A382404FB002494F8A3
:108530003430DD0715D5E47C01F0070504F00706AB
:10854000AE4204D1C1F3C405B5EBD40F07D0382433
:1085500004FB002043F00203C17480F83430002093
:1085600000E0052070BD00BFB834002069B10128CB
:108570000DD8084B382202FB003090F83430DB076E
:1085800005D5C37C0B70002070470E207047052076
:10859000704700BFB834002038B50446154699B17D
:1085A00092B1FFF773F888B10A48382303FB04003F
:1085B00083696BB1837CC3F301030B70837CC3F3CA
:1085C00085032B70002038BD0E20FCE70520FAE75C
:1085D0000620F8E7B83400202DE9F3410DF1070239
:1085E0000DF106010546FFF7D7FF10B1784602F0FE
:1085F00039FE284E9DF807709DF80610382303FBBE
:1086000005633C46B3F82480032923D8DFE801F052
:1086100005021A1E07EB87046400B4FBF8F3092B6C
:108620001CD8002F33D0012B38BF0123DFB200212B
:10863000382000FB05603A461430FEF793FE02B086
:10864000BDE8F081642417FB04F4E6E741F270749E
:108650007C43E2E7784602F005FEDEE7632B05D8AF
:108660000A220121B3FBF2F3DFB2E1E741F26F72BC
:10867000934295BF642241F27072B3FBF2F3B3FBF5
:10868000F2F399BFDFB20221DFB20321D0E739460E
:10869000CEE700BFB8340020012810B50FD80B4A30
:1086A000382404FB002393F83420D20707D59A69B5
:1086B0003AB141B19984FFF78FFF002010BD05202A
:1086C000FCE70620FAE70720F8E700BFB8340020EF
:1086D000012838B52AD8184C382303FB004393F8F7
:1086E000345015F0010F254620D09C6904B33F2A71
:1086F00020D803291ED89B7CB2EB930F03D103F043
:1087000003038B4210D0382404FB0054A37C62F393
:10871000870361F30103A374FFF75EFF94F834301D
:1087200043F0020384F83430002000E0052038BD17
:108730000620FCE70720FAE7B834002010B5134BF9
:1087400019780446E1B9FEF7A1FFD8B110483822E4
:1087500002FB0402D289022A10D10E490B7813F0D1
:10876000010203D00B7ADA070ED4012243F003038F
:1087700001F83230382303FB0404E281002010BDED
:108780000F20FCE70520FAE70420F8E77C340020FE
:10879000B834002028350020F8B504460F46FEF70F
:1087A00075FFE0B1124B382202FB0434E689022E39
:1087B00017D0172917D80F4CF50004356019FEF7AC
:1087C00037FF90B9012303FA07F163590B43635153
:1087D00014F8363043F0020304F83630F8BD0520B3
:1087E000FCE70620FAE70720F8E70020F6E700BFDD
:1087F000B834002028350020F8B504460F46FEF7AF
:1088000045FFF0B1124B382202FB0434E689022EF8
:1088100019D0172919D80F4CF50004356019FEF747
:1088200007FF68B1012303FA07F1635923EA010343
:10883000635114F8363043F0020304F83630002058
:10884000F8BD0520FCE70620FAE70720F8E700BF9F
:10885000B8340020283500202DE9F8430646154697
:108860000F4641B33AB3FEF711FF30B3164B38222F
:1088700002FB0636F389022B21D00024DFF84C904E
:10888000B5F800802C80F08901280ED809EBC000D3
:1088900021460430FEF7CCFE38B12B88984510D91C
:1088A00027F813402B8801332B800134182CEAD190
:1088B0000020BDE8F8830E20FBE70520F9E706203D
:1088C000F7E70920F5E700BFB8340020283500207D
:1088D000F8B506460F46FEF7D9FEC0B1082918D8EC
:1088E00038250E4C754305F10806A019FEF7A0FEC9
:1088F00088B9012303FA07F1A3590B43A3512C4470
:1089000094F8343043F0020384F83430F8BD052085
:10891000FCE70720FAE70020F8E700BFB8340020A2
:10892000F8B506460F46FEF7B1FED0B108291AD8B1
:1089300038250E4C754305F10806A019FEF778FEA0
:1089400070B1012303FA07F1A35923EA0103A351EC
:108950002C44002094F8343043F0020384F834307F
:10896000F8BD0520FCE70720FAE700BFB834002077
:108970002DE9F041064615460F46F9B1F2B1FEF772
:1089800085FEE8B1104BB5F800803822002402FBC8
:1089900006362C80083621463046FEF749FE38B1AF
:1089A0002B8898450ED927F813402B8801332B804C
:1089B0000134082CEFD10020BDE8F0810E20FBE748
:1089C0000520F9E70920F7E7B834002010B5044680
:1089D000FEF75CFE88B1082911D80A48382303FB4A
:1089E000040083888B4206D090F83430818043F0B5
:1089F000020380F83430002000E0052010BD07207D
:108A0000FCE700BFB834002010B5044651B1FEF7B2
:108A10003DFE48B1054B382202FB04340020A388F8
:108A20000B8010BD0E20FCE70520FAE7B8340020CB
:108A3000030605D4012803D0024B187000207047AC
:108A400007207047DC2D0020014B1878704700BFCD
:108A5000DC2D002010B50446FEF718FE90B10A4A3E
:108A6000382303FB0423187C88421EBF93F834008C
:108A700040F0020083F83400382303FB0424002074
:108A8000217410BD0520FCE7B834002010B5044661
:108A900051B1FEF7FBFD48B1054B382202FB04340F
:108AA0000020237C0B7010BD0E20FCE70520FAE7A8
:108AB000B834002010B50446FEF7E8FD98B181F007
:108AC00080037E2B11D90A48382303FB0400437C22
:108AD0008B4206D090F83430417443F0020380F8A2
:108AE0003430002000E0052010BD0720FCE700BF67
:108AF000B834002010B5044651B1FEF7C7FD48B1A7
:108B0000054B382202FB04340020637C0B7010BD3F
:108B10000E20FCE70520FAE7B834002021B128B97F
:108B2000034B1B880B8070470E2070470520704751
:108B30007E34002021B128B9034B9B780B7070471D
:108B40000E207047052070477E34002021B128B9DF
:108B5000034BDB780B7070470E2070470520704781
:108B60007E34002010B5044661B1FEF78FFD58B188
:108B7000064B382060431A1852884A801B5A0B80D3
:108B8000002010BD0E20FCE70520FAE7B8340020D5
:108B900073B5019112B310B1052002B070BD4FF64C
:108BA000FF730F4913808B89BDF80440BDF8065050
:108BB00008462BB94E88AE4202D10988A1420AD09C
:108BC000B0F84430002BE7D1438FAB42E4D1038FA0
:108BD000A342E1D1012313800020DEE70E20DCE771
:108BE000B8340020F0B509B302B308BB124E1588A3
:108BF000108002236FF037071088A8421AD207FBB3
:108C0000036494F8A4C01CF0010F09D0B4F87C40B0
:108C100034B9C3F1020421F81040108801301080EB
:108C2000012B01D10020F0BD0123E5E70E20FAE77A
:108C30000520F8E70920F6E7B834002010B504460F
:108C400051B1FEF723FD48B1054B382202FB043435
:108C50000020236B0B6010BD0E20FCE70520FAE717
:108C6000B834002070B50646FEF710FD08B338256D
:108C7000114C7543002205F1140011462044FEF703
:108C800071FB30466619103500F062FA2C44F0880A
:108C900001F0C2F900204FF0FF3373606070A070E4
:108CA000E07096F83430B07543F0020386F8343043
:108CB00070BD0520FCE700BFB8340020082837B598
:108CC00005461CD80DF106010020FFF79DFE28B9CE
:108CD000BDF80630AB4201D1FFF7C4FF0DF106012C
:108CE0000120FFF791FE044658B9BDF80630AB42AB
:108CF00002D10120FFF7B6FF204603B030BD0724A4
:108D0000FAE70024F8E708B501F04AF8A0F580502A
:108D100008BD000010B586B00D4B03930D4B0493B6
:108D20000D4B059304230293FFF7EDFF0B4C0090CE
:108D3000012369460A48019323700CF057FA20B1C9
:108D400008480CF063FB06B010BD2070FBE700BFC5
:108D5000157A0200817702009D8D0200B434002054
:108D600090340020AC2D002008B5FEF72BFD0848FC
:108D7000084B036009F00CFE00F096F9FEF7D6FAF6
:108D8000FEF7C8FBFFF7C6FF034B00221A7008BDB1
:108D900084340020558202007C340020134B1A7862
:108DA000D00744BF42F002021A701A7AD10744BFBA
:108DB00042F002021A720E4B1A881AB15A7942F026
:108DC00002025A710B4B93F83420D00744BF42F093
:108DD000020283F8342093F86C20D10744BF42F09C
:108DE000020283F86C20FFF795BF00BF28350020F2
:108DF0007E340020B83400202DE9F04F5A4DB5F8EC
:108E0000703085B0804613B9784602F02BFA574C83
:108E1000DFF86CA14FF6FF7308F57A79A5F8723088
:108E2000002604F1040B94F82830CBB1A369A3EB1E
:108E30000903002B19DA002384F82830B5F87030C4
:108E4000013BA5F8703003A92088FFF7F7FE10B1A9
:108E5000784602F007FAE3690399208801229847CF
:108E60002C34002E50D10126DDE7236AA3EB090242
:108E7000002A66DAA5F872602C2101FB06B1208871
:108E8000FFF7E2FA0746E8B1DAF800309B0417D59D
:108E9000374B1B68042B13DD2F21364811F056FE8B
:108EA000E8B12F21334811F051FE411C324B334AB7
:108EB000D3F8043500920197802205200BF03CFD89
:108EC000082F15D1D4E908231A445B00226263629B
:108ED000A269236AD31A002BC2DA2262C0E75C219E
:108EE000244811F033FE08B15C21DBE72149DDE7BE
:108EF000042F01D00F2F20D12C2303FB0656B36B78
:108F000003F51C434033B363B5F870304BB3B5F889
:108F10007230012B02D9784602F0A4F9B5F872300C
:108F20002C2202FB03539B6BB3EB080248BFA8EB58
:108F30000302EA6005B0BDE8F08F784602F092F9CE
:108F4000C6E7B5F872204FF6FF718A4206D02C2191
:108F500001FB0252926B9B1A002B81DAA5F872601A
:108F60007EE7EB60E6E700BF383500205035002093
:108F7000602E002092B6030000100140B7B6030037
:108F8000642E002038B52C4C2C2303FB00430546EF
:108F900093F8403013B9784602F064F9B4F87030B1
:108FA00013B9784602F05EF92C2202FB0542002339
:108FB00082F84030B4F87030013B9BB2A4F87030B6
:108FC000A3B3B4F87230AB4235D1926B1B4B134450
:108FD00094F84020EAB1A26BD11A0029B8BF134619
:108FE0004FF6FF72B8BF002294F86C10A1B1616E09
:108FF000CB1A002B10DA0123A4F87230B4F87230C7
:109000000D482C2202FB0344A16BBDE8384009F057
:10901000F6BE4FF6FF72E7E74FF6FF739A42A4F8E9
:109020007220EBD1784602F01DF9E7E70248BDE86F
:10903000384009F0CDBE38BD383500200087930395
:109040000128F8B505460E46174602D9784602F0C3
:1090500009F90AF0A7FB134B93F8402012B11A8BC1
:10906000AA421DD093F86C20B2B1B3F84420AA42B2
:1090700012D101202C2404FB00343388A28D9A42A3
:109080000AD1E28D73889A4206D1FFF77BFF636BAA
:109090000022394628469847BDE8F8400AF0C2BB8E
:1090A0000020E7E73835002010B5044C7422002179
:1090B000204611F05BFC024BA36010BD3835002048
:1090C000F98D020073B51F4C0AF06CFBB4F87030D8
:1090D0002BB100232046A4F8703009F079FE94F8F3
:1090E00040307BB1258B1848666B00212C2211F093
:1090F0003DFC01A92846FFF7A1FDF0B90222019924
:109100002846B04794F86C309BB1B4F844500F48EF
:10911000246E00212C2211F029FC01A92846FFF71A
:109120008DFD10B1784602F09DF802220199284683
:10913000A0470AF077FB02B070BD784602F092F8C3
:10914000DCE700BF38350020503500207C3500209A
:10915000012873B505462DD8174C0AF023FB94F867
:10916000403013B1238BAB4220D094F86C30FBB16C
:10917000B4F84430AB421BD101263046FFF702FF62
:1091800001A92846FFF75AFD10B1784602F06AF8A7
:109190002C2303FB06440222636B0199284698475F
:1091A00000240AF03FFB204602B070BD0026E4E731
:1091B0000524F6E70524F6E7383500204A0901239F
:1091C00001F01F0103FA01F150F82230194214BFD7
:1091D0000120002070474A09012301F01F0103FA12
:1091E00001F150F822300B4340F8223070474A0911
:1091F000012301F01F0103FA01F150F8223023EAA4
:10920000010340F82230704701F11F02520970B586
:10921000551EA1EB45140121A140002301399A42BA
:1092200001D1012070BD9D4250F823400CBF0E4675
:109230004FF0FF36264201D10133F0E70020F1E77D
:10924000A0F1100189B2072902D80248FFF7B6BF82
:1092500000207047BC3500202DE9F0474FF6FF7322
:10926000DFF84080DFF840900B8007460D46002471
:109270001E464FF0AC0A21464046FFF79FFF40B123
:109280000AFB04F333F80930BB4206D12C80BDE859
:10929000F0872B88B34208BF2C800134042CEAD11C
:1092A0000020F4E7C4370020CC3700202DE9F04738
:1092B0004FF6FF73DFF84080DFF840900B800746E1
:1092C0000D4600241E464FF02A0A21464046FFF76D
:1092D00075FF40B10AFB04F333F80930BB4206D1F5
:1092E0002C80BDE8F0872B88B34208BF2C80013466
:1092F000082CEAD10020F4E7043600200C360020C8
:10930000024B33F820300B80704700BFC43500207B
:109310002DE9F041A3F1080516240E4E6C430746D3
:10932000A01D884630441146102211F014FB331959
:1093300000225A7101222946A3F8028006481A71B8
:109340003753FFF748FF29460448BDE8F041FFF7CF
:1093500042BF00BF643700205C3700206037002028
:1093600010B40C4600F108030A1D208849885DF8F6
:10937000044B9BB2FFF7CCBF70B516244443074E95
:109380000D46A11D10223144281D11F0E4FA325B74
:109390002A8033195B886B8070BD00BF6437002062
:1093A000044A0B46142101FB002104311022184607
:1093B00011F0D1BA7C3A00200422014811F0CBBA56
:1093C000B237002008460422014911F0C4BA00BF98
:1093D000B23700202DE9F0414488012C05463ED0EB
:1093E00004F47043B3F5005F43D009D8002B39D0A3
:1093F000B3F5805F3BD0784601F034FF00240BE0EA
:10940000B3F5804F07D0B3F5A04F2ED0B3F5405F32
:10941000F1D1032400E00424174F6E881C2202FBC4
:109420000472052C9289A6EB02062A8802F57F5267
:1094300002F13F024FEA820205F1040895B202D917
:10944000784601F00FFF1C2303FB047441463046AD
:10945000A3692A46984731466068FFF7BCFE0120A1
:10946000BDE8F081023CE4B2D6E70524D4E701244C
:10947000D2E70224D0E700BF2CB7030010B50446A2
:1094800010B9784601F0EEFE2346BDE810401847BB
:1094900010B5044610B9784601F0E4FE0A4B0022EC
:1094A00093F8421090B269B1A3420AD003F12101AE
:1094B0008C4206D00132042A03F1AC03F0D14FF6FE
:1094C000FF7010BDA342F4E7EE3700202DE9F8430A
:1094D0002A255D43164C91468046A81D10220F4652
:1094E000204449461E4611F036FA05F119000021C4
:1094F0001022204411F03AFA691D214448460BF02D
:1095000007F910B1784601F0ADFE2A237343E21843
:1095100000211171917557803146064824F8038067
:10952000FFF759FE31460448BDE8F843FFF753BE44
:109530000C3600200436002008360020F8B50D4611
:1095400006462A2474430021104E1746284624223A
:1095500011F00CFAA11D10223144281D11F0FBF965
:10956000325B2A8033195A886A809B7D4BB104F1A3
:109570001901314405F114001022BDE8F84011F042
:10958000EAB93B88043B3B80F8BD00BF0C360020A5
:109590002DE9F0418046AC240D46144E04FB08F43E
:1095A000002117462846242211F0E0F906EB0408B2
:1095B000335B2B8098F86430AB70A11C10223144CF
:1095C000E81C11F0C8F998F864304BB104F11201AD
:1095D000314405F113001022BDE8F04111F0BBB990
:1095E0003B88043B3B80BDE8F08100BFCC370020C6
:1095F00001F11F0252099200002111F0B7B90000D9
:109600002DE9F041204CAC255543164605F1680381
:10961000621923440F469367804610B91B4B012201
:109620001A7005F12201214438460BF07AF810B186
:10963000784601F017FE05F17C01214438460BF015
:1096400081F810B1784601F00DFEA81C39461022B1
:10965000204411F080F905F112001022002120446D
:1096600011F084F9AC237343E21824F8038000233B
:109670003146074882F86430FFF7ADFD31460548B2
:10968000BDE8F041FFF7A7BDCC370020B037002080
:10969000C4370020C8370020F8B5A1F11005142404
:1096A0006C430D4F0646201D31461022384411F000
:1096B00052F9391930460BF06DF810B1784601F0C7
:1096C000D1FD29460548FFF786FD29460448BDE837
:1096D000F840FFF780BD00BF7C3A0020BC35002079
:1096E000C03500200B4600F1100189B21846FFF783
:1096F000D3BF000008B5064B064800221A700BF0D5
:1097000049FC20B10448BDE808400BF07FBE08BD0D
:109710007A3700207C370020E02D00202DE9F84327
:10972000044688460AF03EF8052C02D9784601F036
:1097300099FD154BDFF85C901F78C7B11C2505FB20
:1097400004951248A9892A69414489B20BF0E1FCC9
:10975000064660B10246011D6B6940469847304697
:109760000BF006FD0AF05EF83846BDE8F8831C23CE
:1097700003FB04944146A068FFF72DFD04480BF05D
:1097800045FE0027EEE700BF7A3700207C37002037
:10979000A03700202CB70300F8B505460E460AF0A6
:1097A00001F8052D02D9784601F05CFD0F4B104FF2
:1097B0001C7874B91C2303FB05753146A868FFF7B4
:1097C0000AFD0C480BF022FE00240AF02BF820467C
:1097D000F8BD1C2303FB057307489989314489B2FE
:1097E0000BF0DCFC0028E5D1EFE700BF7A37002062
:1097F0002CB70300A03700207C3700202DE9F84368
:10980000184D0026AF68D5F80080384641465FFA0B
:1098100086F9FFF7F9FCF8B1052E1FD1BDE8F883F2
:1098200021463846FFF7CAFC70B121466868FFF749
:10983000C5FC214660B14846FFF770FF0028EDD017
:1098400021463846FFF7D3FC0134A045E8D1E3E7D1
:109850004846FFF7A1FFF1E70446F6E701361C355D
:10986000D0E700BF2CB703002DE9F74F80469246A2
:109870000E46002953D008F0D3FE0228814627D097
:1098800020F00207FBB2012B22D14FF6FF74354BBB
:10989000354A0025A3465C450ED110462946019362
:1098A0000092FFF78BFCDDE9002328B9ACB201354B
:1098B000102DF0D1002305E033F825104145F6D1F5
:1098C000ACB20123BAF1000F04D1B9F1030F28D0D3
:1098D000102021E0FFB2012FFAD1ABB94FF6FF7291
:1098E000944223D01F4A204822F8248002EB8402AD
:1098F00021465380FFF76FFC21461C48FFF76BFCA5
:1099000021463846FFF70AFF164B348003EB8404E8
:10991000A3780133A370002003B0BDE8F08F0E20C0
:10992000FAE7BBB94FF6FF72944201D10420F3E786
:109930000C4A0D4822F8248002EB84022146538011
:10994000FFF749FC21460948FFF745FC2146012065
:10995000FFF7E4FE034B348003EB8404E378013328
:10996000E370D8E7C4350020AC350020B0350020C6
:109970002DE9F0474FF6FF73DFF84C80DFF84CA07D
:109980000B8007460D4600244FF01409214640463F
:10999000FFF714FC064650B92A884FF6FF739A4227
:1099A00000D12C800134082CF0D1002608E01022D0
:1099B000394609FB04A010F0BFFF0028F2D12C802B
:1099C0003046BDE8F08700BFBC350020803A00205B
:1099D0002DE9F3414FF6FF770E461446ADF80670B9
:1099E000804640B339B30DF10601FFF7C1FFBDF862
:1099F000063003F11005ADB250B9BB421DD0294667
:109A00004046FFF749FEBDF806100220FFF786FE2C
:109A1000BDF806300A4A3580142101FB032334B90E
:109A2000DA780132DA70002002B0BDE8F0819A786D
:109A300001329A70F7E70E20F6E70420F4E700BF42
:109A40007C3A002008B528B9784601F00BFC4FF6A7
:109A5000FF700BE0064B9842F9D303F50172904278
:109A6000F5D8C01AAC23B0FBF3F080B208BD00BF3C
:109A70004038002008B528B9784601F0F3FB4FF6CE
:109A8000FF7008BD0A4B984209D303F593729042C8
:109A900005D8C01A2A23B0FBF3F080B2F1E7054ADB
:109AA0004FF6FF73904214BF18460820E9E700BF45
:109AB0001036002068370020F8B50C46154683B2F2
:109AC0000A1D064649882088FFF700FD242D1DD178
:109AD000124F2A2575437B190122143405F1190010
:109AE0009A7521461022384410F035FF05F118010F
:109AF000394420460AF00CFE10B1784601F0B2FB62
:109B00002A2303FB06763379F375F8BD142DFCD0B8
:109B10007846BDE8F84001F0A5BB00BF0C36002038
:109B20002DE9F0410D46174E07469046033182B2AB
:109B3000AC242888FFF764FDAB7804FB076282F849
:109B40006430D3B1B8F1240F02D0784601F08AFB1B
:109B50007C43133504F1120029461022304410F0E2
:109B6000FAFE04F14301314428460AF0DAFD38B127
:109B70007846BDE8F04101F075BBB8F1140FF7D19C
:109B8000BDE8F081CC37002010B501298CB0044627
:109B900004D1784601F066FB0CB010BD0229F8D064
:109BA0000329F9D12C22002101A810F0DFFE112396
:109BB0008DF8043002238DF80830054B0394DA68E1
:109BC0001B69059201A8069307F0B0FAE4E700BF0D
:109BD0007C37002011460020FFF7D6BF084611460B
:109BE000FFF7D2BF41090B4A00F01F004FF0FF33CF
:109BF000834052F82100034009D05A421A40064BD4
:109C00005343DB0E054AD05C00EB41107047042043
:109C1000704700BFC437002031B57C07D4B70300BC
:109C20004FF6FF730B80084B1B6813F0010307D03E
:109C3000064B1B88834205D108230B800120704707
:109C400008220A80002070475C370020643700201B
:109C50000F2810B5044604D801460648FFF7AEFAAF
:109C600028B92046FFF7ECFA00F0010010BD0120F2
:109C7000FAE700BFAC3500200F28F8B5044617D826
:109C800001461748FFF79AFA90B1164E06EB840387
:109C9000987858B9DD7815BB21461148FFF7A7FA27
:109CA00026F8245021460120FFF776FD002016E01B
:109CB0002046FFF7C5FA88B1103C0B4F14256543C9
:109CC0007B1998780028F1D1DE7846B921460748FB
:109CD000FFF78DFA7E5321460220E5E70520F8BD07
:109CE000AC350020C43500207C3A0020BC35002073
:109CF00010B5094B0A8884B2214623F8242003EBCF
:109D00008403002205485A80FFF765FA214604487B
:109D1000BDE81040FFF75FBAC4350020AC35002025
:109D2000B03500201FB51A4B1B781BB9002005B0B9
:109D30005DF804FB04AB0A2243F8102D012101AAAF
:109D400014480BF0AFF903460028EFD1BDF80A2004
:109D5000102A0FD1BDF80C20082A0BD1BDF806201F
:109D6000082A07D1BDF80820012A03D1BDF8042034
:109D7000042A02D0FFF7BEFCD8E70146064A054890
:109D80000BF01AF9054B186800F00100CFE700BF8F
:109D90007A3700207C370020D5930200B4350020AC
:109DA00008B508F031F8A0F5805008BD70B586B050
:109DB0001E4B03931E4B04931E4B05931E4E002314
:109DC0000293FFF7EDFF3278009001230193A2B9CF
:109DD0001A4C09F0E7FC694620460BF007FA28B157
:109DE00009F020FD16480BF011FB06E02578012D47
:109DF00005D009F017FD0123337006B070BD204671
:109E00000A2229460BF085F9044648B11023438104
:109E10000422082383818280C38005810BF0A8F986
:109E200009F000FD002CDDD0E5E700BFDD9B02005E
:109E3000D59B0200459E02007A3700207C37002027
:109E4000F02D0020FFF7B2BF70B5214C04F1A80639
:109E5000256860682946FFF7CBFB1C3454F8140CC6
:109E60002946FFF7C5FBB442F2D100231948194631
:109E7000C2180433402BD1709170F9D100231649D8
:109E80001C46CA181433A02BD4709470F9D1012148
:109E90001248FFF7ADFB01211148FFF7A9FB012193
:109EA0001048FFF7A5FB01210F48FFF7A1FB012197
:109EB0000E48FFF79DFB01210D48FFF799FB0D4B65
:109EC0001C805C800C4B1C70BDE87040FFF712BC1E
:109ED0002CB70300C43500207C3A0020B4350020A4
:109EE000AC350020BC350020C437002004360020EB
:109EF0005C370020B2370020B0370020084808B592
:109F0000084B036008F044FD074B084A9A60084A72
:109F1000DA60084B00221A70BDE80840FFF746BF20
:109F2000B837002085A60200A03700207D940200EB
:109F3000FD9702007A37002070B5054610B97846C3
:109F400001F090F9174E346814F0010427D12888E5
:109F50006B880344984201DB0B2070BD08F060FB66
:109F60000128F9D128886B881844013880B208F09C
:109F700057FB0128F0D1042229460B4810F0EBFCD6
:109F80003368214643F0010320463360FFF7C6FBE8
:109F9000064A136843F0010313602046DDE70F20F3
:109FA000DBE700BFB4350020B2370020B835002011
:109FB00010B5044610B9784601F054F92046042241
:109FC0000249BDE8104010F0C6BC00BFB237002007
:109FD0000122FFF749BC000010B50446FFF738FE28
:109FE00078B10F2C89BF084B084B103C14228CBF52
:109FF00002FB043403EB84040020A3780133A37034
:10A0000010BD0520FCE700BF7C3A0020C4350020CD
:10A010000122FFF7DDBC00000F2810B504460FD861
:10A0200001460E48FFF7CAF850B10D4B03EB84030D
:10A030009A78013A9A702046BDE81040FFF71CBE9E
:10A040002046FFF7FDF830B1064AA4F110031421B1
:10A0500001FB0323ECE7052010BD00BFAC35002059
:10A06000C43500207C3A00200022FFF7FDBB00220F
:10A07000FFF7AEBC10B50446FFF7EAFD78B10F2C30
:10A0800089BF084B084B103C14228CBF02FB0434E0
:10A0900003EB84040020E3780133E37010BD052056
:10A0A000FCE700BF7C3A0020C435002038B50446E8
:10A0B0000D4619B30F2810D801461248FFF77EF855
:10A0C00058B1114B33F824206A8033F8240008F08B
:10A0D000A7FA28700020686038BD2046FFF7B0F866
:10A0E00070B11423103C094A5C430020135B6B8061
:10A0F0000434144402236C602B70EDE70E20EBE770
:10A100000520E9E7AC350020C43500207C3A00206A
:10A1100013B50446FFF79CFD08B369462046FFF7D8
:10A12000C5FFC0B99DF80030032B0BD10D4B03EBDD
:10A130008403DA789AB1013ADA702046FFF79CFD81
:10A1400002B010BD022B08D1074AA4F1100314215C
:10A1500001FB0323EDE70020F2E70F20F0E70520E5
:10A16000EEE700BFC43500207C3A00202DE9F7431C
:10A170000D46044600283CD000293AD0408808F01B
:10A180004FFA022824D0032801D0012833D14FF6FA
:10A19000FF73DFF86880DFF8689067882B80002401
:10A1A0001E4621464046FFF709F840B139F82430F1
:10A1B000BB4208D12C80002003B0BDE8F0832B887F
:10A1C000B34208BF2C800134102CEAD10520F3E7FC
:10A1D00060684FF6FF73ADF8063050B10DF106011F
:10A1E000FFF7C6FB0028F1D0BDF8063010332B80F6
:10A1F000E1E70E20E0E71020DEE700BFAC350020ED
:10A20000C435002007B50DF10601FFF725F820B190
:10A21000BDF8060003B05DF804FB4FF6FF70F9E7E8
:10A2200008B1FFF735B94FF6FF70704707B50DF16C
:10A230000601FFF73BF820B1BDF8060003B05DF85A
:10A2400004FB4FF6FF70F9E708B1FFF713BC4FF6B8
:10A25000FF70704738B504460D4669B107280DD820
:10A2600001460748FEF7AAFF40B12A206043054B8C
:10A270001B5A2B80002038BD0E20FCE70520FAE792
:10A28000043600200C360020082870B504460E461F
:10A290003CD8002938D0082821D001461C48FEF7B8
:10A2A0008DFF002832D01B4D2A2303FB04535B880B
:10A2B000032B02D9784600F0D5FF2A2303FB045371
:10A2C00015485988FEF77AFF10B9784600F0CAFFA2
:10A2D0002A2303FB045463883380002070BD0F4B96
:10A2E0001B68DB0712D50E4C6388032B02D9784616
:10A2F00000F0B8FF61880848FEF760FF0028EAD147
:10A30000784600F0AFFFE6E70E20E7E70520E5E737
:10A31000043600200C360020C43700205C370020B3
:10A3200064370020F0B50746C7B015460E46002931
:10A330006ED0002A6CD0B0F5805F6BD21146FEF76C
:10A340008BFF2A88044670B13548AC2303FB02001A
:10A3500031461022023010F0EFFA00280CBF032023
:10A360000F2047B0F0BD4FF6FF739A4254D03146EC
:10A370003846FFF745F929880320FFF7CFF9284B26
:10A380002988AC2202FB013138468C3108F00EFBE3
:10A39000244B186810F48020E3D0234B1B68062B55
:10A3A0003CDD224B1A68204605AC335C190903F0EA
:10A3B0000F03515C04F81010D15C04EB4003013032
:10A3C00010285970F1D100232F21194884F820302A
:10A3D00010F0BCFB98B12F21154810F0B7FB411CC1
:10A3E000144B154AD3F804350192144A0092072001
:10A3F000029440F66E120AF09FFA0020B1E75C2149
:10A400000B4810F0A3FB08B15C21E5E70849E7E73A
:10A410000E20A6E70720A4E70420A2E72046A0E735
:10A42000CC370020642E0020602E0020682E0020F3
:10A43000F3B60300001001401DB7030001B4030090
:10A44000032838B504460D460DD801460748FEF7E7
:10A45000B5FE40B1064BAC2202FB0434002094F858
:10A4600064302B7038BD0520FCE700BFC4370020E6
:10A47000CC3700202DE9F0410546884600294ED012
:10A4800003284ED801462848FEF798FE002848D0F9
:10A49000264BAC246C431A191E4692F8642062B114
:10A4A000012A07D104F1120010224146184410F08D
:10A4B00043FA00B10820BDE8F08104F112071F44FF
:10A4C00041461022384610F046FA04F14301314467
:10A4D00040460AF026F910B1784600F0C3FE04F1B8
:10A4E0009401314438460AF02DF910B1784600F055
:10A4F000B9FEAC236B43F118012281F8642004F10A
:10A50000A401F05A314407F007FE29460848FEF737
:10A5100062FE29460320FFF701F90020CBE70E2059
:10A52000C9E70520C7E700BFC4370020CC370020AB
:10A53000C8370020032810B504461FD8014611482B
:10A54000FEF73CFED0B11048AC236343C11891F82C
:10A550006420012A14D1022281F8642003F1A401AD
:10A560000144C05A07F0D8FD21460848FEF733FEE3
:10A5700021460320FFF7D2F8002010BD0520FCE79C
:10A580000820FAE7C4370020CC370020C837002065
:10A5900003282DE9F843074662D801463248FEF702
:10A5A0000DFE00285CD0314EAC257D4306EB05083E
:10A5B00098F86430002B55D005F11201A81C3144E5
:10A5C0001022304410F0C7F905F1430105F12200D3
:10A5D00031442122304410F0BEF905F1940105F117
:10A5E0007C0031441822304410F0B5F9002405F104
:10A5F0008C0188F864403144705B1D4EDFF8808028
:10A60000224607F089FDA6F1130921464046FEF7D0
:10A61000D5FDB8B12A20174D604305446B88BB4275
:10A6200010D1AB7D73B131181222484410F093F968
:10A63000002321461048AB75FEF7CDFD21460420CE
:10A64000FFF76CF80134082CDFD139460B48FEF7D0
:10A65000C2FD39460320FFF761F80020BDE8F8830A
:10A660000520FBE70820F9E7C4370020CC3700209D
:10A67000233600200C36002008360020C837002082
:10A680000436002070B50378042B1ED1D0E90146B2
:10A69000457E2046FFF7D6F94FF6FF72904214D060
:10A6A0002034A64211D1094AAC2101FB002393F8C2
:10A6B00064302DB1012B08D1BDE87040FFF73ABFDF
:10A6C0001BB1BDE87040FFF763BF70BDCC37002001
:10A6D0002DE9F0470D46064600B3F9B10024DFF836
:10A6E0004480DFF844900F680C604FF0AC0A2146BC
:10A6F0004046FEF763FD58B12B689F4210D00AFB1D
:10A7000004F232F8092026F813202B6801332B605D
:10A710000134042CEBD10020BDE8F0870E20FBE7CC
:10A720000920F9E7C4370020CC3700202DE9F0419B
:10A730008046C6B00E461F461546002A6BD0002B39
:10A7400069D007F06DFF012867D1032E67D8314625
:10A750003748FEF733FD002861D00DF11201404665
:10A76000FFF75EFA044600285BD1BDF812304FF6C1
:10A77000FF72934257D02A4631464046FEF7C8FD45
:10A78000BDF8121005200839FEF7C8FFBDF81230D9
:10A790003B80284B186810F4802030D0264B1B6873
:10A7A000062B42DD254B1A68204605AC2B5C1909A7
:10A7B00003F00F03515C04F81010D15C04EB40036C
:10A7C000013010285970F1D100232F211C4884F842
:10A7D000203010F0BBF9A8B12F21194810F0B6F9BC
:10A7E000411C184B184AD3F804350192174A0092BD
:10A7F0000720029440F675220AF09EF8002046B029
:10A80000BDE8F0815C210E4810F0A0F908B15C2190
:10A81000E3E70B49E5E70E20F1E71020EFE705201D
:10A82000EDE70F20EBE70420E9E72046E7E700BF6C
:10A83000C4370020642E0020602E0020682E0020E7
:10A84000F3B6030000100140E6B6030001B40300B4
:10A850002DE9F0410746C6B088461E461546002A37
:10A860006FD0002B6DD003296DD83B48FEF7A6FCB6
:10A87000002868D0B7F5805F67D231463846FEF7CA
:10A8800015FD3388044678B134482A2202FB0300C0
:10A8900029461022063010F04FF800280CBF032084
:10A8A0000F2046B0BDE8F0814FF6FF7293424ED0C4
:10A8B0002A4641463846FEF709FE31880420FEF755
:10A8C0002DFF274B186810F48020EAD0254B1B6819
:10A8D000062B3EDD244B1A68204605AC2B5C19097B
:10A8E00003F00F03515C04F81010D15C04EB40033B
:10A8F000013010285970F1D100232F211B4884F812
:10A90000203010F023F998B12F21184810F01EF9CB
:10A91000411C174B174AD3F804350192164A00928E
:10A920000720029440F6C5220AF006F80020B8E796
:10A930005C210E4810F00AF908B15C21E5E70B49EB
:10A94000E7E70E20ADE70520ABE70720A9E70420E5
:10A95000A7E72046A5E700BFC43700200C3600203B
:10A96000642E0020602E0020682E0020F3B6030025
:10A9700000100140D9B6030001B40300F8B5054644
:10A980000E4600293FD007283FD801462048FEF751
:10A9900015FC002839D01F481F492A246C4303198D
:10A9A000AC275A8807FB0212074692F86420012A56
:10A9B00009D104F119010844997D31B110223146C1
:10A9C0000FF0BAFF00B10820F8BD9A753146102289
:10A9D0000FF0C1FF04F118013944304609F098FE28
:10A9E00010B1784600F03EFC2A2303FB057329468C
:10A9F0001A79DA750948FEF7EEFB29460420FEF7BE
:10AA00008DFE0020E0E70E20DEE70520DCE700BF3A
:10AA1000043600200C360020CC37002008360020F9
:10AA2000072810B504460ED801460848FEF7C6FBB5
:10AA300048B121460548FEF7DAFB21460420FEF71F
:10AA4000ABFE002010BD0520FCE700BF043600204F
:10AA500003282DE9F041044640D801462148FEF77D
:10AA6000ADFB00283AD00020FFF7BCF800250428F1
:10AA70002CD1012D34D01C4E1C4F00254FF02A083C
:10AA800029463046FEF79AFB58B108FB05735B88F0
:10AA9000A34206D1A8B2FFF7C3FF10B1784600F079
:10AAA000E1FB0135082DEBD1AC236343104AD35AA7
:10AAB0000BB9104A137021460A48FEF798FB21464D
:10AAC0000320FEF769FE0020BDE8F0810130032875
:10AAD00005F10105CDD8FFF785F8C8E70520F3E7B4
:10AAE0000F20F1E7C4370020043600200C36002088
:10AAF000CC370020B03700202DE9F84F0646154628
:10AB00000F4669B362B303282CD801461748FEF7F5
:10AB100055FB38B30024DFF858A0DFF85880D5F88B
:10AB200000902C604FF02A0B21465046FEF746FB62
:10AB300080B10BFB04F208EB02035B88B34209D13E
:10AB40002B68994510D032F8082027F813202B687D
:10AB500001332B600134082CE6D10020BDE8F88FCA
:10AB60000E20FBE70520F9E70920F7E7C4370020AE
:10AB7000043600200C36002070B506460C461546FB
:10AB8000002A45D0082945D812BF2448244800216E
:10AB9000FEF714FB00283DD04FF6FF739E4207D10D
:10ABA000082C17BF1F4A204B2A2303FB04235E886F
:10ABB000032E31D831461D48FEF700FB60B3082C48
:10ABC0001B4923D0AC2303FB0613164A93F86430C9
:10ABD000022B08D12A236343D018807D18B1173384
:10ABE00013446B6004E02A2303FB042404346C60E8
:10ABF000AC2303FB06F00B1893F86430022B0CBF58
:10AC00004330223008442860002070BD094BE8E73B
:10AC10000E20FAE70520F8E70820F6E704360020C2
:10AC20005C3700200C36002064370020C437002039
:10AC3000CC3700206837002038B50D46FFF7E2FA20
:10AC4000044675B103280ED801460848FEF7B6FA47
:10AC500048B1074BAC2202FB043422342C600020A4
:10AC600038BD0E20FCE70520FAE700BFC4370020FE
:10AC7000CC3700202DE9F843074690460E4611B91F
:10AC8000784600F0EFFAB8F1000F02D1784600F0F4
:10AC9000E9FA306807F07F0730BB002400233360F7
:10ACA000C8F800301B4BDFF87090AC2505FB04356D
:10ACB000A3B2032B16D821464846FEF77FFA00B30D
:10ACC00095F8643095F8220005F12201ABB1874276
:10ACD00005F1430395F8432016D1BA420FD13160F4
:10ACE000C8F80030BDE8F883FEF7D2FB4FF6FF73DB
:10ACF0009842D2D0441CA4B2D0E7874201D131603F
:10AD000005E0AC350134D3E79742FAD13360002334
:10AD1000E6E700BFCC370020C43700202DE9F0471C
:10AD200004468846164612B9784600F09BFA14B9D4
:10AD3000784600F097FA2046FFF772FA4FF6FF7355
:10AD40009842074603D100233360BDE8F08730689E
:10AD500000B3FEF78FFE441C1148DFF848A02A25F7
:10AD600005FB040505358146072CECD821465046E5
:10AD7000FEF724FA80B135F8033CBB420CD12B78A6
:10AD800088EA03039B0607D12A2000FB04940434BD
:10AD90003460DAE70446DFE701342A35E4E700BF30
:10ADA0000C3600200436002038B504460D4611B993
:10ADB000784600F057FA34B1044B33F8042BA24222
:10ADC0000CBF1C4600242C6038BD00BF6437002037
:10ADD0002DE9F04707469146884611B9784600F0BC
:10ADE00041FAB9F1000F02D1784600F03BFAD8F8E9
:10ADF000000000284CD0FEF725FE441C254EDFF84D
:10AE00009CA0AC2505FB04658C353BE021465046F3
:10AE1000FEF7D4F9A0B315F8283C4BB94FB108227E
:10AE2000294638460FF088FDB0FA80F0400901E06D
:10AE3000CFB9012020B3184B1B78FBB1AC2363437F
:10AE4000F35AB3FA83F35B09AC20444332197434E8
:10AE5000264482F87430C8F8006092F8643089F8AB
:10AE60000030BDE8F0870822294638460FF064FD1F
:10AE70000028DED0082205F11801D2E70123E3E71C
:10AE80000134AC35032CC1D90023C8F80030E8E701
:10AE90000446B3E7CC370020B0370020C437002089
:10AEA0002DE9F74306460C4607F0BAFB02285FD0AF
:10AEB000032818D0012801D0002011E0484B1B685E
:10AEC00013F00103F8D0474B1A889642F4D35B88FD
:10AED00013449E424FF00003EEDA668020706360F8
:10AEE00003B0BDE8F08300236360A6F57F43FC3B1D
:10AEF00066802070032B16D801A252F823F000BF01
:10AF0000B9AE0200B9AE020011AF02006DAF02008F
:10AF100001A901200CF063FA10B1784600F0A2F903
:10AF20009DF80400DCE74FF6FF752F4FDFF8C09067
:10AF30000024A84645450FD121464846FEF73EF974
:10AF400050B9A5B20134102CF4D10BF0DFF84088D1
:10AF5000831B58425841C3E737F82420B2424FEAD6
:10AF60008403EFD13B44DB78002BEBD00120B7E723
:10AF70006068E8B94FF6FF73ADF80430BDF80450CF
:10AF8000DFF87080194F072D4FF6FF7394BF01351E
:10AF90000025ADF804304FF01409082D8CD0294657
:10AFA0004046FEF70BF948B9ADF804500135F4E717
:10AFB00001A9FEF7DDFC0028DCD0DFE709FB05F383
:10AFC000DA5BB242F2D1FA18D278002A3FF474AFB9
:10AFD000043302221F4466802270676080E700BF4E
:10AFE000B4350020B2370020C43500207C3A002060
:10AFF000AC350020BC35002038B50C46054600B104
:10B0000011B9784600F02EF9024B1A882A805B8825
:10B01000238038BDB237002007B50378022B0AD051
:10B02000032B01D0012B17D169464088FFF738FF69
:10B0300003B05DF804FB69464068FEF799FC002800
:10B04000F6D0BDF80030054A142101FB0323D8785F
:10B05000003018BF0120EBE70020E9E77C3A002030
:10B060000620704730B5754B14461B6841F201024B
:10B07000904287B00D4603F480437ED01ED801284D
:10B0800045D0002B5DD06E4B1B68002B59DD2F2166
:10B090006C480FF05BFD002800F0C4802F21694848
:10B0A0000FF054FD411C684B684AD3F804350092F8
:10B0B00001957B22012009F03FFC42E044F20102AD
:10B0C000904200F0858044F202029042D9D1002BD8
:10B0D00037D05B4B1B68002B33DD2F2159480FF015
:10B0E00035FD00286BD02F2156480FF02FFD411C55
:10B0F000554B2288D3F8043503926268CDE901529A
:10B10000534A009201206C2209F016FC19E0C3B1E9
:10B110004B4B1B68002B14DD2F214A480FF016FD06
:10B1200010B32F2147480FF011FD411C464B494AEF
:10B13000D3F804350092CDE901546022012009F0D2
:10B14000FBFB4FF0A0434FF4F032C3F81825C3F8CF
:10B150000C25EFF3108372B64DF6AD6C3E4A1378B2
:10B16000002B68D107B030BD5C2136480FF0EEFCF3
:10B1700008B15C21D6E73349D8E7002BE1D0304B4A
:10B180001B68002BDDDD2F212E480FF0DFFC68B19E
:10B190002F212C480FF0DAFC411C2B4B2F4AD3F8FF
:10B1A00004350092CDE901546322C7E75C212548AC
:10B1B0000FF0CCFC08B15C21EBE72249EDE75C2104
:10B1C00020480FF0C3FC08B15C218DE71D498FE7D3
:10B1D000002BB6D01A4B1B68002BB2DD2F2119486B
:10B1E0000FF0B4FCA8B12F2116480FF0AFFC411CA2
:10B1F000154B2268D3F8043504926268CDE90252F7
:10B20000A2680192164A00920120772209F094FB6D
:10B2100097E75C210B480FF099FC08B15C21E3E74C
:10B220000849E5E75C2107480FF090FC08B15C2174
:10B2300035E7044937E730BF91E700BF642E0020AF
:10B24000602E0020F4B703000010014098B80300FE
:10B2500058B803001CB80300002E002036B80300C5
:10B2600077B8030007B50023ADF800300146054B61
:10B2700001936A4644F20200FFF7F4FE03B05DF862
:10B2800004FB00BF89B603002DE9F04F0C4689B0DE
:10B29000814600B111B97846FFF7E4FF2388152BEA
:10B2A00002D87846FFF7DEFF4FF6FF724FF4201307
:10B2B000CDE905230025012305A90A224846ADF85A
:10B2C0001C30ADF806500FF046FB0A2323800DF129
:10B2D0000E012846FDF72EFC10B17846FFF7C2FF9D
:10B2E0000DF10F010020FDF731FC10B17846FFF79A
:10B2F000B9FF9DF80E309DF80F20D3423DD003A931
:10B300000020FDF70BFC10B17846FFF7ABFF08AA51
:10B3100002230DF1080822F81A3D41460020FDF7EE
:10B3200061FC10B17846FFF79DFF2088042203A935
:10B3300048440FF010FB26889DF80E300436B6B254
:10B34000268053B10027BDF806A03D464FF6FF7B8F
:10B35000574515D323881D4425809DF80F3063B1D0
:10B360002388BDF806700026994435464FF6FF7ACB
:10B37000BE421DD323881D44258009B0BDE8F08F4F
:10B3800004A938F81700FDF7EDFB10B17846FFF778
:10B3900069FFBDF810305B4508D1A81902220DF1F4
:10B3A000120148440FF0D7FA0235ADB20137CFE7AA
:10B3B00004A938F81600FDF7D5FB10B17846FFF761
:10B3C00051FFBDF8103053450FD0022204A909EBFC
:10B3D00005000FF0C0FAA81C02220DF1120119FAA3
:10B3E00080F00FF0B8FA0435ADB20136C0E70000C6
:10B3F000024B1B6803B11847704700BF1C3B00207D
:10B4000013B5044601A8FEF7D3FDBDF80400001BE8
:10B4100018BF4FF0FF3080B202B010BD37B5044600
:10B420000AF078FE0546002301A80093FEF7C0FD50
:10B430006946288AFFF700FC30B9009B6360BDF8BD
:10B440000430238003B030BD0520FBE71FB5019316
:10B45000BDF81830ADF808300023ADF800208DF8A5
:10B460000A304FF6FF720223ADF802208DF80B3040
:10B470006A46079B0393FDF713F805B05DF804FBDC
:10B480007FB505460E46002003A98DF808000BF095
:10B49000A6FF10B17846FFF7E5FE9DF80D309DF848
:10B4A0000820013B0A2104AC63F30202BDF80E3010
:10B4B000B3FBF1F3013B63F3C70204F8082D07F077
:10B4C00077FA01230190009348F225022346314682
:10B4D0002846FFF7BBFF04B070BD7FB50B89012B79
:10B4E00006460D4631D14C688DF804302378C3F3FD
:10B4F000020301338DF805302378DA080A2302FBB2
:10B500000333142BB8BF142301A90020ADF8063073
:10B510000BF054FF10B17846FFF7A4FE30462946E1
:10B52000FFF7AEFF0023CDE9023311238DF8083079
:10B530002378C3F302038DF80C30237802A8C3F3F9
:10B54000C4038DF80D30FFF753FF04B070BD0B89B5
:10B550000BB9FFF795BF704737B504460D4607F0A6
:10B5600027FA084B1860084B01221A70002301903B
:10B57000009348F24A0229462046FFF767FF03B0CE
:10B5800030BD00BF243B0020203B002030B50B899C
:10B59000032B85B005460C4618D14B689A78012AD2
:10B5A00014D800228DF80C201B88ADF80D30022332
:10B5B0008DF80F3007F0FCF904230190009348F256
:10B5C000480203AB21462846FFF740FF05B030BDD7
:10B5D00030B585B004460D468DF80C20ADF80D3021
:10B5E00007F0E6F903230190009348F2440203AB0D
:10B5F00029462046FFF72AFF05B030BD30B585B09B
:10B6000004460D46002303A90120ADF808300BF0D5
:10B61000E6FE10B17846FFF725FE9DF80C308DF858
:10B6200008309DF80D309DF80920013B63F30202BC
:10B63000BDF80E308DF80920142B15D1D2B212F0BE
:10B64000070111D161F3C7028DF8092007F0B0F9A5
:10B6500002230190009348F2280202AB29462046BB
:10B66000FFF7F4FE05B030BD0A22B3FBF2F39DF8FC
:10B670000920013B63F3C702E6E77FB50B89022B84
:10B6800005460E463ED14C682378012B3AD803F08C
:10B6900001038DF804306378C3F3020301338DF89E
:10B6A0000530637883BB1423ADF80630BDF806304F
:10B6B000142B38BF142301A90120ADF806300BF07C
:10B6C0007DFE10B17846FFF7CDFD28463146FFF7E5
:10B6D00095FF0023CDE9023312238DF8083023783B
:10B6E0005A1E534253418DF80C306378C3F3020362
:10B6F0008DF80D30637802A8C3F3C4038DF80E30C3
:10B70000FFF776FE04B070BDDB08013303EB830363
:10B710005B00C9E70B890BB9FFF770BF704770B5C5
:10B7200086B00D46ADF80F309DF82C30ADF80D20E9
:10B7300000218B4204460A988DF80C1014BF07268E
:10B740000926CDF8110007F033F903ABCDE900600D
:10B7500048F21F0229462046FFF778FE06B070BD6A
:10B7600030B587B00446039306AB8DF8142033F848
:10B770000C2DADF815209B788DF817300D4607F08D
:10B7800017F904230190009348F2030205AB294600
:10B790002046FFF75BFE07B030BD2DE9F0430B8973
:10B7A000022B87B081460C4638D14B681F88C7F3FF
:10B7B0000B00FEF727FDA38C8342804631D13B4628
:10B7C0000C2221464846FFF703FF27E036F8150014
:10B7D000FEF72CFD26F815000135019BAB42F5D88C
:10B7E0002EE036F81500FDF769FA10B17846FFF73C
:10B7F00039FD0135019BAB42F3D83B464846002258
:10B800002146FFF7E5FE00230293736030461923BB
:10B810008DF80830ADF80C80FFF7EAFD07B0BDE801
:10B82000F0834FF6FF73984202AEE6D006AA0823D3
:10B8300042F8143D3146FFF75FF905460028CCD0A9
:10B840004046FFF705F905460028D3D00F28B6D0AB
:10B850003B460422B5E70000F0B50B89122B85B0FA
:10B8600007460D4625D14E680A88344648F2400303
:10B8700034F8020B9A42C0F30B001CD121460DF1A3
:10B880000602FEF74FFD182304460F2C8DF80830F2
:10B89000BDF80630ADF80C3096BF0C4B10221A5D87
:10B8A000338829463846FFF793FE14B902A8FFF7FC
:10B8B0009FFD05B0F0BDFEF7A5FC2146ADF80600E2
:10B8C000FEF7D8FD1A230446DFE700BFB1B8030036
:10B8D0002DE9F0431F460B8847F6E57843449BB2B9
:10B8E000102B87B005460C46164656D84FF0010976
:10B8F00009FA03F313F0EF011BD113F4803060D188
:10B900005B044AD50146052203A80FF02FF86368AF
:10B910008DF80C701A88ADF80D205B88ADF80F30EB
:10B9200007F046F805230093019003AB48F22A0282
:10B930002FE00922002103A80FF018F823888DF8C2
:10B940000C7043449BB2072B0AD809FA03F313F097
:10B950000B0F09D113F004022DD113F0E00F1FD10A
:10B960007846FFF77FFC09E063681A88ADF80D2080
:10B970005A88ADF80F205B68CDF81130002E14BF47
:10B980000726092607F014F8CDE9006003AB48F25A
:10B990001F0221462846FFF759FD07B0BDE8F08396
:10B9A000636833F8121BADF80D108DF80F208DF879
:10B9B00010201B68E0E7636833F8022BADF80D2018
:10B9C000F7E7072203A80EF0D1FF63688DF80C702B
:10B9D0001A88ADF80D209A88ADF811205B88ADF873
:10B9E0000F3006F0E5FF07230093019003AB48F208
:10B9F0002C02CEE773B502AA022322F8063D01A964
:10BA00000646FCF729FF062825D010B17846FFF737
:10BA100029FC0025BDF80220ABB29A4202D80020D2
:10BA200002B070BDACB2640002AB2344304633F8C0
:10BA3000041CFCF7E1FE10B17846FFF713FC02ABE3
:10BA40001C4434F8040CFEF763FB10B17846FFF792
:10BA500009FC0135DEE70820E2E72DE9F0438DB06F
:10BA60001C46154606460F46092200210DF1250009
:10BA70000EF07CFF00230DF10B0120468DF82030E5
:10BA8000ADF82150FDF702F810B17846FFF7EAFB58
:10BA90009DF826309DF80B2062F304136FF34713D3
:10BAA00005A920468DF82630FDF75CF810B17846E0
:10BAB000FFF7D8FBBDF81450BDF816304FF6FF72F3
:10BAC00095420DF10E0120460EBFADF82A30ADF8BB
:10BAD0002C30ADF82A50FCF70FFD10B17846FFF777
:10BAE000C1FBBDF80E004FF6FF73984218D100233A
:10BAF0008DF823308DF824304FF6FF739D4214BF2C
:10BB00000E250C2506F054FF08ABCDE9005048F295
:10BB1000190239463046FFF799FC0DB0BDE8F083B5
:10BB200006A9FEF7C3FA10B17846FFF79BFBBDF8F4
:10BB30001A30ADF8233004A92046FCF765FF05282C
:10BB40008046D4D0002848D10DF11201BDF8100074
:10BB5000FEF780FB0528814604D18DF823808DF8FF
:10BB60002480C9E70028C7D19DF812308DF8253010
:10BB70009DF8133003F00F029DF8263023F00F03D9
:10BB800013430DF1270120468DF82630FCF7B2FF54
:10BB90000122494603A80EF0E9FE0DF10D0203A9AA
:10BBA0002046FCF7F9FC9DF80C209DF80D3002A909
:10BBB00043EA821320468DF82830FCF7D7FC9DF825
:10BBC00008209DF82930C2F3020161F30203D20874
:10BBD00062F3C7038DF829308EE77846FFF742FB02
:10BBE0008AE7F0B50B89032B87B007460C4619D1BD
:10BBF0004D6804238DF80C302B88ADF80D300023F0
:10BC00008DF80F302888C0F30B00FEF7FBFA0DF11A
:10BC10000B010646FEF714FCD0B9AB78022B03D01B
:10BC2000032B32D007B0F0BD9DF80B305A1E012A0D
:10BC3000F8D8012B06D13046FEF77CFC10B17846CF
:10BC4000FFF710FB00238DF80C3002238DF80F3026
:10BC500006F0AEFE04230190009348F2170203ABF6
:10BC600021463846FFF7F2FB9DF80C30002BD9D166
:10BC7000CDE9043308238DF8103004A89DF80F3067
:10BC80008DF81430FFF7B4FBCCE79DF80B30032B95
:10BC9000C8D033B13046FEF77BFC10B17846FFF7D1
:10BCA000E1FA00238DF80C30D0E770B50D89012D35
:10BCB00086B006460C461ED14B6818788DF80F00EA
:10BCC000FCF7B6FEB8B90523CDE904008DF81030B5
:10BCD00004A89DF80F308DF81430FFF789FB06F0AB
:10BCE00067FE0DF10F03CDE9005048F20E02214628
:10BCF0003046FFF7ABFB06B070BD7FB50E4605467C
:10BD00000AF0ECFB04AC04F8040D06F051FE01232C
:10BD10000190009348F20B02234631462846FFF774
:10BD200095FB04B070BD0B890BB9FFF7E6BF7047F8
:10BD300070B50B89092B8CB006460D465CD14C685A
:10BD40002388ADF81C30A3782BB1102B56D8013BBB
:10BD5000012202FA03F30893E37843B1112B9DBF4C
:10BD600003F1FF33012202FA03F34FF0FF3309938B
:10BD700023798DF82830B4F8053003F00F03ADF8BF
:10BD80002A30B4F80730ADF82C30B4F80700FEF7CD
:10BD900039FA4FF6FF73984237D104238DF81030EB
:10BDA0002388ADF81130E3788DF81430A3788DF83E
:10BDB000133023798DF81530B4F8053003F00F03F4
:10BDC000ADF81630B4F80730ADF8183006F0F0FDD5
:10BDD0000A2301900093062204AB29463046FFF760
:10BDE00035FB9DF810303BB914238DF8083002A8BC
:10BDF00007AB0393FFF7FCFA0CB070BDFF2B4FF6B7
:10BE0000FF7318BF4FF0FF33A5E707A80AF086F9C4
:10BE100000280CBF00230F23C0E7000037B50378CC
:10BE2000012B03D00E2B1DD003B030BD154B426843
:10BE30001B689A42F8D1144C2378012BF4D1FAF7FD
:10BE4000FDFC09F0FBFA10B902232370ECE7002592
:10BE50001C236846CDE900558DF80030FFF7C8FA7D
:10BE60002570E1E7084D2B78022BDDD100241C233F
:10BE70006846CDE900448DF80030FFF7B9FA2C7020
:10BE8000D2E700BF243B0020203B002030B50B89C7
:10BE9000022B85B005460C4614D14A6800218DF866
:10BEA0000C101288ADF80D208DF80F3006F080FDD3
:10BEB00004230190009348F2480203AB2146284630
:10BEC000FFF7C4FA05B030BD7FB504AC022304F817
:10BED000043D05460E4606F06BFD012301900093DC
:10BEE00048F21402234631462846FFF7AFFA04B061
:10BEF00070BD0A89012A05D14B681B78012B01D836
:10BF0000FFF7E2BF70470B890BB9FFF7DDBF704742
:10BF10007FB504AC022304F8043D05460E4606F046
:10BF200047FD01230190009348F211022346314658
:10BF30002846FFF78BFA04B070BD0A89012A05D1A3
:10BF40004B681B78012B01D8FFF7E2BF70470B89C4
:10BF50000BB9FFF7DDBF704770B50B8988B0064697
:10BF60000D46FBB908A9042341F8143D06A8FEF7C5
:10BF7000AFFB039B9AB25B0803EB430302F001049F
:10BF800004A906A803EB440401F0AEFB06F010FD83
:10BF9000A4B2CDE9004004AB48F243022946304642
:10BFA000FFF754FA08B070BDF0B50B89022B8DB0C5
:10BFB00006460D4632D14F680CAC0823388844F849
:10BFC000243DC0F30B00FEF71DF9224608A9FEF739
:10BFD00093FD3B88ADF8113018B1052820D010230F
:10BFE0001FE0039C8DF81000A2B2640804EB440427
:10BFF00002F0010304EB430403340DF1130108A81C
:10C00000A4B201F071FB06F0D3FC04ABCDE9004013
:10C0100048F2020229463046FFF718FA0DB0F0BD8B
:10C0200004238DF810300324EDE7F0B516460A8896
:10C030001F4648F218039A4287B005460C4605D0C1
:10C0400048F21A039A4201D0032A2CD10E22002171
:10C0500002A80EF08BFC23888DF8087048F21802B5
:10C06000934209D048F21A0293421ED0032B20D1EA
:10C07000636833F8092B02E0636833F8022BADF8EC
:10C0800009201B68CDF81230002E14BF0C260E2696
:10C0900006F08EFC02ABCDE9006048F219022146A1
:10C0A0002846FFF7D3F907B0F0BD636833F8172BC4
:10C0B000E5E77846FFF7D6F8E6E77FB50B89022B70
:10C0C00006460C461FD14D682888C0F30B00FEF7CA
:10C0D00099F80DF10B01FEF7B3F9002303932B88B8
:10C0E000ADF80D3088B99DF80B308DF80F3006F0A3
:10C0F0005FFC04230190009348F2170203AB214632
:10C100003046FFF7A3F904B070BD04238DF80C305E
:10C11000EDE77FB50B8906460D4683B9FCF794FC25
:10C1200004AC04F8010D06F043FC012301900093D8
:10C1300048F20E02234629463046FFF787F904B03D
:10C1400070BD37B50B89012B05460C4618D14B68DD
:10C150001A78012A14D80022CDE9002204228DF891
:10C1600000201878431E584258418DF804000AF008
:10C17000A5F928462146FFF7C0FD6846FFF738F9C4
:10C1800003B030BD70B50B89012B8AB006460D4651
:10C1900018D10AA900238DF81030162321F81A3D72
:10C1A0000DF11100FFF770F8BDF80E4006F000FC2D
:10C1B0000134A4B2CDE9004004AB02222946304646
:10C1C000FFF744F90AB070BD2DE9F0470B89132B36
:10C1D00088B080460C4670D14E68B5787078377854
:10C1E0003388ADF814304FEA051A4AEA101A00F005
:10C1F0000F0047EA00208DF81650FEF703F80023E1
:10C200008DF81830F21C07AB014681465046FEF708
:10C210001FFB384B1B685B0406461CD5364B1B685E
:10C22000032B18DD2F2135480EF090FCF8B12F219B
:10C2300032480EF08BFC411C314BBDF81C20D3F86A
:10C24000043501922F4A0092CDF808A040F27522E1
:10C25000042008F071FB0F2E48D8DFE806F03E47B7
:10C2600047114049473347474747474747315C21D4
:10C2700022480EF06BFC08B15C21D9E71F49DBE7CF
:10C280000DF11201BDF81C00FDF7FEFF10B178465C
:10C29000FEF7E8FFBDF812204A4514BF0422002231
:10C2A0008DF814708DF81650059B21464046FFF717
:10C2B00057FA16B906A8FFF79BF808B0BDE8F08753
:10C2C0000622EDE78DF814708DF81650059B0322B9
:10C2D00021464046FFF744FAEFE70022E0E78DF8F9
:10C2E00014708DF81650059B0522F1E71022D7E750
:10C2F0000422D5E7642E0020602E0020C1B8030080
:10C3000000100140F1B8030073B50D461646FCF766
:10C31000A3FA0528044607D006281AD0B8B93388EE
:10C320009C4204D3002000E0022002B070BD6946A8
:10C330002888FDF7BBFE50B99DF80030023B012B69
:10C3400005D8BDF8023025F8023B0134E7E710209C
:10C35000EBE70820E9E72DE9F0410B89042B9EB0BB
:10C3600006460D4612D14C684FF6FF786788208844
:10C37000ADF80E70ADF80C80FFF742F8404508D1DB
:10C380000123012229463046FFF7A2FA1EB0BDE87C
:10C39000F08102AA0399FCF7FBFB08B10223F0E746
:10C3A0001EAA182322F86E3D04A9BDF80800FFF765
:10C3B000ABFF03460028E4D1BDF80A208DF8400009
:10C3C0002388ADF8413004A952000DF14500ADF8C5
:10C3D00043700EF0C0FABDF80A4006F0E9FA6400B6
:10C3E0000534A4B2CDE9004010AB48F22A02294638
:10C3F0003046FFF72BF8C9E708B590B1B0F5004F0C
:10C4000006D8002301334008DBB2FBD1184608BD33
:10C410004FF6FF73984206D07846FEF723FF1023AD
:10C42000F4E70346F2E7FF23F0E708B570B1B0F593
:10C43000803F06D8002301334008DBB2FBD1184609
:10C4400008BD7846FEF70EFF1123F8E70346F6E72E
:10C4500070B50C4686B0054609F05CFE218906469B
:10C4600019BB8DF80C100388ADF80D304368012B13
:10C470001DD8DBB2B0688DF80F30FFF7D6FF337BE5
:10C480008DF81130F389ADF81230338AADF81430DD
:10C490008DF8100006F08CFA0A2301900093062212
:10C4A00003AB21462846FEF7D1FF06B070BDB3F5B9
:10C4B000004F07D8013B5B08CAB201F10101FAD174
:10C4C000931CD6E74FF6FF72934204D07846FEF7EE
:10C4D000C9FE1023CEE7FF23CCE7F0B50E8987B065
:10C4E00007460D462EBB09F011FE8DF80C6003883F
:10C4F00004460BB14288F2B900238DF80D308DF857
:10C500000E308DF80F308DF810308DF811308DF819
:10C5100012308DF813308DF8143006F049FA0923E3
:10C520000190009348F23C0203AB29463846FEF7DF
:10C530008DFF07B0F0BDADF80D304388ADF80F307A
:10C540004068FFF759FF8DF81200A068FFF76DFFF4
:10C55000A3898DF813308DF81100E389DBE72DE90D
:10C56000F04F0B89132B85B080460D463ED14C68A9
:10C57000607823882778ADF804304FEA101B002339
:10C5800000F00F00A6788DF80660CDE9023347EA87
:10C59000002001238DF80830FDF734FE4FF6FF7AB6
:10C5A0005045814633D04BEA0610FDF73FFE50451B
:10C5B000ADF80C002DD00DF10201FDF765FE10B1B4
:10C5C0007846FEF74FFEBDF802304B4511D01124DE
:10C5D0008DF804708DF80660019B2246294640467E
:10C5E000FFF7BEF814B902A8FEF702FF05B0BDE8D8
:10C5F000F08FE11CBDF80C00FEF7C0F9052808D04B
:10C60000082808D000280CBF00241024E0E70424E8
:10C61000DEE70324DCE70B24DAE72DE9F0430A899F
:10C62000032A85B080460D4653D14B689E78198801
:10C630001F785B78ADF80410300140EA13108DF8D4
:10C64000066003F00F048DF80820FDF7EFFD4FF6AC
:10C65000FF794845ADF80C0024D047EA0420FDF7E7
:10C66000D1FD4845044637D00DF10201BDF80C005C
:10C67000FDF70AFE10B17846FEF7F4FDBDF8023072
:10C68000A34211D1BDF80C00FCF718FB10B178469D
:10C69000FEF7E8FDBDF80C00FEF7C2F910B17846D0
:10C6A000FEF7E0FD002400E011248DF804708DF801
:10C6B0000660019B224629464046FFF751F844B9DF
:10C6C000BDF80C204FF6FF739A4202D002A8FEF785
:10C6D0008FFE05B0BDE8F0830424E6E7F0B50B89D2
:10C6E000052B8DB007460D464AD14C68102200211B
:10C6F00008A80EF03BF92388ADF820306388ADF828
:10C700002230237943B1112B9DBF03F1FF33012266
:10C7100002FA03F34FF0FF3308A80A9309F08EFCE6
:10C72000064668BB09F0F2FC8DF814600388ADF88A
:10C730001530044643888068ADF81730FFF775FE62
:10C740008DF819006068FFF757FEA3898DF81B303C
:10C75000E3898DF81C308DF81A0006F029F90923B9
:10C7600001900093384605AB48F23C022946FEF79B
:10C770006DFE152303A88DF80C300494FEF738FEE7
:10C780000DB0F0BD2DE9F347B1F8088028F00203A1
:10C79000042B06460C4621D14D686B882888B8F1D9
:10C7A000040F9FB21BBF6A792B79ADF8063043EABC
:10C7B00002230BBF4FF001094FF000094FF6FF773E
:10C7C000ADF80630FEF71CFE4FF6FF7A504508D153
:10C7D00001234A4621463046FFF727FC02B0BDE858
:10C7E000F087ADF804700DF102020199FCF7D0F961
:10C7F00020B9B8F1040F03D0574501D10223E8E76F
:10C80000BDF802302A8821463046FFF726F9E5E7D1
:10C810002DE9F047B1F8089029F00203042B86B007
:10C8200007460D4621D14C6863882088B9F1040F72
:10C830009EB21BBF62792379ADF80E3043EA022322
:10C840000BBF4FF001084FF000084FF6FF76ADF830
:10C850000E30FEF7D5FD4FF6FF7A504508D1012383
:10C86000424629463846FFF733F806B0BDE8F08760
:10C87000ADF80C600DF10A020399FCF789F920B9B3
:10C88000B9F1040F03D0564501D10223E8E7BDF802
:10C890000A00FFF7AFF8064608B10346E0E7FBF7EA
:10C8A000DDF834F8022BCDF8048020680090334680
:10C8B00038462946FEF733FF0C23CDE9046604A869
:10C8C0008DF81030BDF80A30ADF81430FEF790FD49
:10C8D000CBE72DE9F047B1F8089029F00203142BBB
:10C8E00088B006460D462ED14C68638A2088B9F17F
:10C8F000140F1FFA83F81BBF627D237DADF80E3045
:10C9000043EA02230BBF012700274FF6FF78ADF85B
:10C910000E30FEF775FD4FF6FF7A504501D1012329
:10C920000CE0ADF80C8002AA0399FCF731F920B9AC
:10C93000B9F1140F0AD0D04508D102233A4629464E
:10C940003046FEF7C5FF08B0BDE8F08702238DF83A
:10C950001030A01C00230DF11201ADF8123005902B
:10C9600007F018FF10B17846FEF77CFC0DF10A01C4
:10C9700004A8FDF7FBFB0528D1D008B11023DDE7A3
:10C98000BDF80A10BDF80800FBF736FF08B10C230C
:10C99000D4E7BDF80A00FDF7BBFB10B17846FEF7FF
:10C9A00061FCFBF75BF834F8122B01972068BDF8A7
:10C9B0001230009029463046FEF7B1FE0F238DF865
:10C9C0001830BDF80830ADF81C3006A8BDF80A30A4
:10C9D000ADF81E30FEF70CFDB5E72DE9F047B1F8D4
:10C9E000089029F00203142B88B006460D4620D18A
:10C9F0004C68638A2088B9F1140F1FFA83F81BBFB3
:10CA0000627D237DADF80E3043EA02230BBF012780
:10CA100000274FF6FF78ADF80E30FEF7F1FC4FF629
:10CA2000FF7A504508D101233A4629463046FEF7A1
:10CA30004FFF08B0BDE8F087ADF80C8002AA03995B
:10CA4000FCF7A6F820B9B9F1140F03D0D04501D1F5
:10CA50000223E9E70DF10A01A01CFDF708FB20B154
:10CA600004280CBF05231023DEE7BDF80A10BDF82B
:10CA70000800FBF791FE8046BDF80A00B8F1000FF0
:10CA80000BD0FDF745FB10B17846FEF7EBFBB8F194
:10CA9000060F0CBF08231023C6E704A9FDF706FB09
:10CAA00010B17846FEF7DEFBFAF7D8FF34F8122B08
:10CAB00001972068BDF81230009029463046FEF7F5
:10CAC0002EFE0E238DF81830BDF80830ADF81C305E
:10CAD00006A8BDF80A30ADF81E30FEF789FCA8E7BD
:10CAE0002DE9F04FB1F80880B8F1080F89B006467B
:10CAF0000D4602D0B8F1060F21D16C68A3882088BA
:10CB0000B8F1060F1FFA83F91BBFE279A379ADF8DC
:10CB10000E3043EA02230BBF012700274FF6FF79AF
:10CB2000ADF80E30FEF76CFC4FF6FF7A50458346A9
:10CB300008D101233A4629463046FEF7C9FE09B01E
:10CB4000BDE8F08F608805F06BFD0328F1D1ADF8EA
:10CB50000C9002AA03995846FCF71AF820B9B8F1CC
:10CB6000060F03D0D14501D10223E3E703238DF85B
:10CB700010306388ADF812300DF10A01002304A8CB
:10CB80000593FDF7F3FA78BBBDF80A10BDF808006D
:10CB9000FBF732FE062801D10823CBE708B11023AA
:10CBA000C8E7BDF80A00FDF7B3FA10B17846FEF702
:10CBB00059FBFAF753FF638834F8042B0197206878
:10CBC000009029463046FEF7AAFD0B238DF8183059
:10CBD000BDF80830ADF81C3006A8BDF80A30ADF835
:10CBE0001E30FEF705FCAAE70528D8D1E3E72DE9BA
:10CBF000F04FB1F80880B8F1080F87B006460D462F
:10CC000002D0B8F1060F21D16C68A3882088B8F152
:10CC1000060F1FFA83FA1BBFE279A379ADF80E3035
:10CC200043EA02230BBF012700274FF6FF7AADF836
:10CC30000E30FEF7E5FB4FF6FF794845834608D1F5
:10CC400001233A4629463046FEF742FE07B0BDE8CA
:10CC5000F08F608805F0E4FC0328F1D163884B4530
:10CC6000EED0ADF80CA002AA03995846FBF790FF4E
:10CC700020B9B8F1060F03D0CA4501D10223E0E77D
:10CC80000DF10A016088FDF7EFF940B1042804D0E6
:10CC900010280CBF01231023D3E70523D1E7BDF8EB
:10CCA0000A10BDF80800FBF777FD804668B1BDF8B3
:10CCB0000A00FDF72DFA10B17846FEF7D3FAB8F165
:10CCC000060F0CBF08231023BBE7FAF7C7FE6388E3
:10CCD00034F8042B01972068009029463046FEF76F
:10CCE0001EFD0A238DF81030BDF80830ADF8143061
:10CCF00004A8BDF80A30ADF81630FEF779FBA5E7B9
:10CD00002DE9F047B1F8089029F00203142B88B000
:10CD100006460D4620D14C68638A2088B9F1140F6D
:10CD20001FFA83F81BBF627D237DADF80E3043EA06
:10CD300002230BBF012700274FF6FF78ADF80E3016
:10CD4000FEF75EFB4FF6FF7A504508D101233A46C5
:10CD500029463046FEF7BCFD08B0BDE8F087ADF8C7
:10CD60000C8002AA0399FBF713FF20B9B9F1140F45
:10CD700003D0D04501D10223E9E7BDF80800FEF752
:10CD800039FE03460028E2D10DF10A01A01CFDF78F
:10CD90006EF958B104280CBF052310233A462946E2
:10CDA0003046FEF795FDFAF759FED5E7BDF80A10B3
:10CDB000BDF80800FBF7F0FC8046BDF80A00B8F1AA
:10CDC000000F0CD0FDF7A4F910B17846FEF74AFA2F
:10CDD000B8F1060F01D10823E0E71023DEE704A92C
:10CDE000FDF764F910B17846FEF73CFA34F8122BDF
:10CDF00001972068BDF81230009029463046FEF7B2
:10CE00008EFC10238DF81830BDF80830ADF81C30BA
:10CE100006A8BDF80A30ADF81E30FEF7E9FAC2E701
:10CE20002DE9F04F0F8927F00203042B8FB08246C3
:10CE30000D4640F0AD804E6874883088042F16BFD0
:10CE4000A0464FF6FF78B488FEF7DAFA2A8848F24F
:10CE50004B039A424FF6FF7340F0AB80984200F0CC
:10CE6000828048F24C09ADF81080ADF8124003AA58
:10CE70000499FBF78DFE28B9042F1FD04FF6FF73DE
:10CE800098451BD129883388ADF8253048F24B02EC
:10CE900091424FF002020CBFADF82740ADF8294097
:10CEA0008DF824200EBF0524ADF82780072405F057
:10CEB0007FFD0190009409AB4A4665E00EAA082365
:10CEC00022F82A3D05A9BDF80C00FBF751FD10B171
:10CED0007846FEF7C7F94FF0000BBDF80E701FFA49
:10CEE0008BF39F4221D829883388ADF8253048F24A
:10CEF0004B0291424FF000028DF8242027D13A4690
:10CF00000DF1290105A8ADF8274000F0EDFB05243F
:10CF100005F04EFD7B0803EB430307F0010703EB2D
:10CF200047073C440190E4B2C4E71FFA8BF1490083
:10CF30000EAB0B4405AA114433F8240CFDF78AF913
:10CF400010B17846FEF78EF90BF1010BC5E73A46B2
:10CF50000DF12B0105A8ADF82940ADF82780072475
:10CF600000F0C2FBD4E73388ADF825300122ADF8DC
:10CF700027408DF8242048F24C06052405F018FDC2
:10CF8000CDE9004009AB324629465046FEF75EFA2D
:10CF90000FB0BDE8F08F3388ADF825300122ADF831
:10CFA00029408DF82420ADF8278048F24E0607244A
:10CFB000E4E79842EFD048F24E0954E72DE9F04FEC
:10CFC000B1F80880B8F1080F87B006460D4602D0C8
:10CFD000B8F1060F21D16C68A3882088B8F1060F3C
:10CFE0001FFA83F91BBFE279A379ADF80E3043EA4B
:10CFF00002230BBF012700274FF6FF79ADF80E3053
:10D00000FEF7FEF94FF6FF7A5045834608D101231B
:10D010003A4629463046FEF75BFC07B0BDE8F08F84
:10D02000608805F0FDFA0328F1D1ADF80C9002AA52
:10D0300003995846FBF7ACFD20B9B8F1060F03D0B1
:10D04000D14501D10223E3E7BDF80800FEF7D2FC89
:10D0500003460028DCD10DF10A016088FDF704F8D1
:10D0600040B1042804D010280CBF01231023CFE7BF
:10D070000523CDE7BDF80A10BDF80800FBF78CFBCF
:10D08000804668B1BDF80A00FDF742F810B1784655
:10D09000FEF7E8F8B8F1060F0CBF08231023B7E736
:10D0A000FAF7DCFC638834F8042B019720680090C1
:10D0B00029463046FEF733FB0D238DF81030BDF8BE
:10D0C0000830ADF8143004A8BDF80A30ADF81630B9
:10D0D000FEF78EF9A1E72DE9F0470B89062B9EB0EC
:10D0E00007460E461DD14D682888FEF789F9B6F827
:10D0F0000890B9F1040F0CBF0124002414D1AB78BF
:10D10000EA7843EA0223ADF80E304FF6FF784FF687
:10D11000FF7A504511D10123224631463846FEF7A9
:10D12000D7FB1EB0BDE8F0872B796A79B5F802808D
:10D1300043EA0223ADF80E30E9E7ADF80C8002AA0D
:10D140000399FBF725FD20B9B9F1040F03D0D045B1
:10D1500001D10223E0E71EAA182322F86E3D04A99C
:10D16000BDF80800FFF7D0F803460028D4D18DF8A9
:10D1700040002B88BDF80A40ADF84130AB88ADF8CF
:10D1800045306400A4B26B88ADF84330224604A950
:10D190000DF147000DF0DFFB05F00AFC0734A4B2E7
:10D1A0000190009410AB48F22C0231463846FEF74D
:10D1B0004DF9B6E72DE9F04F0C89082C8FB0804669
:10D1C0000D4601D0062C27D16E68B788062C4FF08B
:10D1D00000031CBFB946F7888DF82C303388ADF8B2
:10D1E0002D307388ADF82F3008BF4FF6FF79736884
:10D1F000CDF83130062C12D18FB90D238DF82C309B
:10D2000005F0D6FB0723019000930BAB48F23E02DA
:10D2100029464046FEF71AF90FB0BDE8F08F308876
:10D22000FEF7EEF84FF6FF73984282460BD10123CA
:10D23000062C14BF092407248DF82C3005F0B8FB08
:10D24000CDE90040E1E7ADF82090ADF8227007AAE3
:10D250000899FBF79DFC4D4B1B689B0483461DD52D
:10D260004B4B1B68032B19DD2F214A480DF06EFC38
:10D27000F8B12F2147480DF069FC411CBDF81C2076
:10D28000454BD3F80435CDE90392444A0092CDE9E9
:10D2900001A740F68912042007F04EFBBBF1000FF6
:10D2A00005D1062C0ED04FF6FF7399450AD1022303
:10D2B000BEE75C2137480DF049FC08B15C21D9E795
:10D2C0003449DBE77088C0F30B00FCF7AFFF2A8816
:10D2D00048F23D039A420646BDF81C0010D11623C1
:10D2E00031468DF82430ADF82800ADF82A60FBF700
:10D2F000EFFA052843D0072845D018B310233FE0A4
:10D30000172331468DF82430ADF82800ADF82A6097
:10D31000FBF706FB0028ECD10DF11E01BDF81C0047
:10D32000FBF772FB10B17846FDF79CFFBDF81E308D
:10D33000B34207D1BDF81C00FBF794FC10B178464E
:10D34000FDF790FF00238DF82C30FAF787FB062CB1
:10D3500014BF0924072405F02BFB0BABCDE90040DB
:10D3600048F23E0229464046FEF770F89DF82C3000
:10D37000002B7FF451AF09A8FEF73AF84CE70223DF
:10D380008DF82C30E3E70323FAE700BF642E00207A
:10D39000602E0020C1B803000010014023B9030033
:10D3A0002DE9F04F0A880B89032A89B007460D46FC
:10D3B00027D10D2B01D00B2B56D16A680B2BB2F85D
:10D3C000093014BF117BADF80E301FFA83FA18BF75
:10D3D000D37A14461CBF43EA0123ADF80E3034F86B
:10D3E000049BB2F802800ABF012600264FF6FF7A9E
:10D3F0004846FEF705F84FF6FF7B584524D1012338
:10D400002DE048F21A018A4203D123F00202192AC0
:10D410002AD16C68192BB4F8173014BFA27EADF86E
:10D420000E301FFA83FA18BF637E34F8129B15BFC3
:10D4300043EA0223012600264FF6FF7A18BFADF813
:10D440000E304FF00008D3E7ADF80CA002AA039904
:10D45000FBF79EFB10B956B9DA4508D102233246D4
:10D4600029463846FEF7E1FD09B0BDE8F08F637844
:10D47000207803F00F0340EA0320FCF7D7FE4FF6B5
:10D48000FF739842824601D10323E8E74046ADF896
:10D490000A3005F0C5F82B88032B32D10228AED014
:10D4A00000F0FD00012840F0E1800DF10A01BDF817
:10D4B0000800FBF721F858B10DF10A014046FCF7CE
:10D4C00087FD00283CD004280CBF05231023C6E7A5
:10D4D00004A9BDF80A00FCF7E9FD0028ECD19DF88D
:10D4E0001030022B03D0BDF81230434528D0BDF8D0
:10D4F0000A00FCF791FD0028DED07846FDF7B2FE69
:10D50000DAE76B68BDF808000DF10A0103F1020BC0
:10D51000FAF7F2FF28B10DF10A015846FCF778FD41
:10D52000CFE704A9BDF80A00FCF7C0FD0028F2D13E
:10D530009DF81030022B25D09DF81030022B28D1F9
:10D54000B8F1000F2FD0227994F80380BDF80800BD
:10D55000C2F302014FF0000B61F3020BD20862F339
:10D56000C70B00224FEA981311460193FBF7B0F85E
:10D5700008F03F08019B28B306281ED07846FDF727
:10D5800071FE71E71022594605980DF0D5F9002873
:10D59000D2D0BDF80A00FCF73FFD0028BBD078468A
:10D5A000FDF760FEB7E72A8848F21A039A42CAD00C
:10D5B000BDF80800FBF756FB3DE0B8F1000F0ED0B8
:10D5C00007234CE7B8F1000F09D042461946BDF8D1
:10D5D0000800FBF77DF810B17846FDF743FE594689
:10D5E000BDF80800FAF79CFF10B17846FDF73AFE47
:10D5F000BDF80A10BDF80800FAF760FF10B17846D0
:10D60000FDF730FE5146BDF80800FBF7DFF910B119
:10D610007846FDF727FE6178BDF80800C1F30011D8
:10D62000FBF718FA10B17846FDF71CFEA178BDF89B
:10D630000800FBF73FFA10B17846FDF713FEFAF742
:10D640000DFABDF8083038464A462946FEF705FA75
:10D650000023CDE9063302238DF8183006A8BDF863
:10D660000830ADF81C30FDF7C3FEFDE6B8F1000F41
:10D670007FF469AF9CE7000030B587B01622002127
:10D6800005460DF102000DF071F90E4B02934FF6B5
:10D69000FF742E230C480393ADF8004005F078F991
:10D6A0000A4808F047FD0A4B1B88A34202D078467F
:10D6B000FDF7D8FD074B06491D606846FAF7F2FDF5
:10D6C00007B030BD68B90300042E00201DB402006D
:10D6D000022E00201C3B0020024B01461888FBF75D
:10D6E000F7B800BF022E002030B50024A24200D8B7
:10D6F00030BD30F814300B70651CC3F30323AA420D
:10D700004B7007D900EB44056D8843EA05132D09DA
:10D710004B708D7002340331E8E7000082B0064B95
:10D720000190C0F30F40A0F50C7080B253F8203088
:10D730009B780B7002B07047483B0020C0F30F404D
:10D74000A0F50C7080B2044B53F8203082B0002258
:10D750009A7002B0704700BF483B002070B5144D6E
:10D760002C68002634B92B6803BB1248BDE8704012
:10D7700005F02EBB94F8503013B1013B84F85030C3
:10D7800094F8503043B92B689C4208D1636D2B60EC
:10D79000E36C0021204698472646646DE2E716B9FF
:10D7A0007846FDF75FFD636D7365F1E770BD00BFFF
:10D7B000443B0020283B002030B587B090F8503023
:10D7C0008DF804300C4B029301AB03930123ADF8A9
:10D7D000103000238DF81230022304460D468DF8D8
:10D7E000133005F0E5F802AA059029462088FAF7DB
:10D7F00057FE07B030BD00BF0780FFFF0B8913B98C
:10D800001046FFF7D9BF704730B587B083788DF8E1
:10D8100004300C4B029301AB03930123ADF810309D
:10D8200000238DF81230022304460D468DF8133084
:10D8300005F0BEF802AA059029462088FAF730FEC6
:10D8400007B030BD3780FFFF0B8913B91046FFF7D3
:10D85000DBBF704738B504460D4605F0A3FF94F8CA
:10D86000503084F850505BBB55B3E36C0121204627
:10D87000984705F097FFE36C13B97846FDF7F2FC83
:10D8800094F8503013B97846FDF7ECFC0E4B19684C
:10D8900061651C6091B90D4C182220460DF066F8A8
:10D8A00005F0D6FA00F5742000F51070084B6060A2
:10D8B000E3602046074BA36005F068FA05F0B2FF6D
:10D8C000BDE8384005F0AEBF443B0020283B0020B7
:10D8D00040420F005DD7020038B50B89012B0C4682
:10D8E000154611D1D36C23B14B6810461978FFF758
:10D8F000B1FF228848F205039A4205D12146284605
:10D90000BDE83840FFF758BF38BD000037B50B8978
:10D91000012B0C46154618D149680B780E2B0BD9F4
:10D92000228848F235039A420FD12146284603B097
:10D93000BDE83040FFF768BF054B1B68934204D138
:10D94000044809F039F80028EAD003B030BD00BF20
:10D95000483B0020030030024B0901F01F024FF04A
:10D96000FF31914050F82320114049B14A420A400A
:10D9700008495143C90E084A505C00EB43107047F8
:10D980000133072B02D850F82310EEE74FF48070D4
:10D99000704700BF31B57C0734BB03002DE9F0436D
:10D9A000C7B0042905AE437A33700CBF00F12C09CF
:10D9B00000F10C094389A6F801300546884648461F
:10D9C00000211746FFF7C8FF0024B0F5807F2346EB
:10D9D0001BD14FF6FF73ADF8063000238DF80E30E3
:10D9E00003340223ADF804800296ADF80C408DF8A4
:10D9F0000F3004F0DDFF049028888FB101AA39466A
:10DA0000FAF74EFD47B0BDE8F0833344411C0134C2
:10DA1000FF29E4B2D870DCD84846FFF79DFFD4E771
:10DA200001A9FAF711FDEDE7084600220421FFF7EE
:10DA3000B5BFF8B50B89032B0D46144610D11388DA
:10DA4000834202D07846FDF70DFC6E686389B6F814
:10DA500001108B4204D1207A0023DAB2904200D820
:10DA6000F8BD626812F833C002EBC3073278624532
:10DA700003F10103F1D17B68204698473378637244
:10DA80002A8848F232039A42EAD12A4620460521E2
:10DA9000BDE8F840FFF782BF38B50B89022B0D4671
:10DAA000144611D11388834202D07846FDF7DAFB81
:10DAB0006B681A8863899A4206D12A462046052156
:10DAC000BDE83840FFF76ABF38BD38B50B89022B77
:10DAD0000D4614461CD11388834202D07846FDF7C8
:10DAE000C1FB6B681A8863899A4211D120220021F8
:10DAF00004F10C000CF03AFF2A8848F22F039A42F6
:10DB000006D12A4620460521BDE83840FFF746BF2A
:10DB100038BD38B500F12C0500212846FFF71CFF61
:10DB20000024B0F5807F01D1E0B238BD411CFF294F
:10DB300004F10104F8D82846FFF70EFFF1E70000D2
:10DB400037B50190C0F30F40A0F50C700C4B0D7869
:10DB500080B253F82040A378AB420DD0A570204688
:10DB6000FFF7D7FF40B10121A940208889B203B057
:10DB7000BDE83040FAF790BD002003B030BD00BFD3
:10DB8000483B002070B586B0C3640A9B4360002503
:10DB90009DF82C300372044642810E46457280F88F
:10DBA000505085704565202229460C300CF0DEFE71
:10DBB0002946202204F12C000CF0D8FE0B4B0093D8
:10DBC0000B4B02930B23CDE903342146094BADF8EF
:10DBD000046068460593FAF765FB28B9064B43F8DD
:10DBE00026402088FAF7AAFD06B070BDFFFF0200AC
:10DBF000DCBA030029DA0200483B002000B589B0F6
:10DC00000A238DF8003000F17803029300F58C733D
:10DC100001900393C3686846984709B05DF804FB18
:10DC200070B505692C68A86088B006465CB9022307
:10DC300085F80B3101238DF800300195EB686846BB
:10DC4000984708B070BDB44203D0A36820469B68D3
:10DC500098472468EAE730B5046994F80B31122B31
:10DC600089B00D4603D111B92046FFF7C7FF002345
:10DC700084F80B3102238DF8003001948DF80850A0
:10DC8000E3686846984709B030BD30B590F80C316C
:10DC900089B00446032B3BD8DFE803F0312B170291
:10DCA00006238DF8003090F806318DF8093090F891
:10DCB00007318DF8083001900B2384F80B3168464A
:10DCC000E3689847002009B030BD00F1C50529463A
:10DCD00000F050FE05238DF8003094F806318DF8E1
:10DCE000093094F807318DF80830019403950F231B
:10DCF000E3E707238DF8003001900C23DDE71022C5
:10DD00000021C5300CF032FE0F2384F80B31D9E727
:10DD10000320D8E730B5044689B080680D4600F08E
:10DD20007FFC20B1A068836802211B69984794F8A2
:10DD30000B31152B0DD00C238DF80030152384F8F2
:10DD40000B3101948DF8085084F80A51E368684655
:10DD5000984709B030BD10B588B0044600F0BAFE4F
:10DD600080B10B238DF800306369039304F118032D
:10DD700002930A2384F80B310194E36868469847BC
:10DD800008B010BD04F15801204600F0D9FD48B993
:10DD90002046FFF77AFF0028F2D005212046FFF742
:10DDA000B9FFEDE70221F9E713B5046994F80B31E7
:10DDB000023B132B47D8DFE803F00A46460D4646E0
:10DDC0000F4646154617461746191B46462005239B
:10DDD00084F80B3102B010BD204602B0BDE81040FF
:10DDE000FFF7B9BF0F23F3E71123F1E71223EFE7A2
:10DDF0002046FFF703FF1423EAE7274B1B681A07A7
:10DE0000E8D5264B1B68032BE4DD2F2124480CF0BA
:10DE10009DFE78B12F2122480CF098FE411C214B29
:10DE2000214AD3F80435009204204FF4157206F00D
:10DE300083FDCFE75C211A480CF088FE08B15C2115
:10DE4000E9E71749EBE7144B1B681B07C2D5134BD7
:10DE50001B68002BBEDD2F2111480CF077FE90B11E
:10DE60002F210F480CF072FE411C0E4B94F80B2131
:10DE7000D3F8043501920D4A0092012040F2572256
:10DE800006F05AFDA6E75C2105480CF05FFE08B1DC
:10DE90005C21E6E70249E8E7642E0020602E0020BE
:10DEA00064BB03000010014088BB0300B8BB030043
:10DEB00070B50D4698B004690E782846114600F0FA
:10DEC00043FB08B1092E04D901212046FFF722FFA8
:10DED000D4E0324694F80B1194F8090100F008FEE2
:10DEE00050BB984B1B681B071BD5974B1B68042B1B
:10DEF00017DD2F2195480CF029FEA0B12F21934862
:10DF00000CF024FE411C94F80B21914BD3F80435FE
:10DF1000CDE901628F4A009205204FF4C47206F0E9
:10DF20000BFD0321D1E75C2188480CF00FFE08B1FE
:10DF30005C21E4E78549E6E72B78072B00F27C813A
:10DF4000DFE813F008007A014D00A0007A01B80064
:10DF5000E3000A01012204F1F506A91830460CF08D
:10DF6000FAFC03238DF83C306B7810948DF8443024
:10DF7000E3680FA8984701238DF8183094F80D3105
:10DF80008DF81930B4F80E21130A43EA0223ADF8D4
:10DF90001A3094F810318DF81C3094F811318DF846
:10DFA0001D3094F812318DF81E30B4F81321130A85
:10DFB00043EA0223ADF81F3094F815318DF8213073
:10DFC000B4F81621130A43EA0223ADF82230324690
:10DFD00006A9A06800F0C6FA00284FD087E06B7849
:10DFE0008BB9AB78012B0ED8EA78032A0BD8012B1A
:10DFF00003D194F81031012B05D1012A2B7904D8D3
:10E000000BB96B794BB102215FE7022A38D1042B9F
:10E01000F9D86B79013B072BF5D8691C052204F26E
:10E0200001100CF098FCAB78003318BF012384F882
:10E030000831EB7884F80C31EB78012B14BF6B7945
:10E04000102384F806312B7984F8073104238DF8E6
:10E050003C301094E3680FA8984794F808310825DD
:10E0600084F80B5153B1202200210FA80CF07EFC44
:10E070008DF83C501094E3680FA8984718B070BD15
:10E08000032BC5E70135284600F04EFC0028BAD026
:10E090004022294604F118000CF05DFC94F8083188
:10E0A00023B92169A06800F06CFA95E72046FFF7D4
:10E0B00052FEE3E794F80B310F2B1AD11022691CA2
:10E0C00004F1E5000CF047FC04F1D501204604F111
:10E0D000A5030FAA00F072FB0FA9A06800F06FFA69
:10E0E0000028CBD0042802D07846FDF7BBF80521E4
:10E0F000EBE60C2BC2D11022691C04F1E5000CF0F8
:10E100002AFC0D2384F80B31B8E71022691C04F1B6
:10E11000B5000CF020FC204600F078FC08B9042182
:10E12000D3E604F1A501A06800F05CFA0028DED176
:10E1300004F1780304F1980204F18801204600F00C
:10E140009DFB9BE7642E0020602E002064BB030033
:10E1500000100140E7BB030004F188030F9304F1B2
:10E16000980310936B1C119318A91923ADF848302C
:10E170000DEB03060023082201F8493D1A350FA8CC
:10E180001393ADF85030159616958DF85C2005F078
:10E19000C8FC9DF81730002B3FD01022314604F503
:10E1A0008C700CF0D8FB0B9B94F830111BBAC4F8A0
:10E1B0002A31BDF83030180A40EA032080B2A4F8B2
:10E1C0002E01BDF82920130A43EA02239BB2A4F8CA
:10E1D00028319DF82B20C2F3400262F3000184F83D
:10E1E00030119DF82B20C9B2C2F3000262F3410145
:10E1F000B3F5805F84F83011BFF405AF04F010FA76
:10E2000001287FF400AFB4F82E0194F80D5104F00A
:10E2100007FA012803D0082157E6062155E6B4F88D
:10E220002E010138284480B204F0FAF90128F2D115
:10E23000A06800F0EAF9CFE67846FDF713F81DE78D
:10E2400030B40C4611461A4690F80B31012B08D811
:10E25000054BE360A3685D68044B2046AC4630BCC8
:10E260006047082030BC704754BB0300008793030D
:10E270001FB590F80B31A3F10B02022A044619D8FE
:10E280000B2B04D1806800F08FF904B010BD0D2B6A
:10E290000BD100F1A50300F1D5016A4600F08EFA1A
:10E2A0006946A06800F08BF9EFE70F2380F80B3187
:10E2B0000020EAE70820E8E700790B79C31A584202
:10E2C0005841704710B5431E00F11002073013F893
:10E2D000011F12F8014D1C7083421170F7D110BD5F
:10E2E0004A0901F01F034FF0FF31994050F82230E6
:10E2F000194009D04B420B4004495943C90E044B05
:10E30000585C00EB421070470320704731B57C0722
:10E310000ABC030038B5049D88B181B17AB173B1EC
:10E320006DB190F80B4164B9C0E9035142611946DF
:10E330000B2200F20D100CF00EFB204638BD0E2013
:10E34000FCE70820FAE7000038B50D46044650B156
:10E3500049B1064A06F092FA20B92C612A7963681D
:10E360001343636038BD0E20FCE700BFB9E2020032
:10E3700000F074BA38B5054678B190F80B31012B2E
:10E380000DD104681CB985F80B41204638BDA3683F
:10E3900020469B6898472468F4E70E20F6E708209B
:10E3A000F4E72DE9F7430F46904601930446A0B1E8
:10E3B00090F80B21012A12D81BB1416833EA010100
:10E3C0000FD007252EE02A799A421FD02D6818E039
:10E3D000711C02290BD9002524E00E2522E0082516
:10E3E00020E04FF0010980F80B9180F8099101A815
:10E3F000FFF776FF03280646EDD009FA06F32568F5
:10E40000DBB2002DDFD17846FCF72CFF29464346CE
:10E410003A462046FFF714FF05460028D8D020468C
:10E42000FFF7A8FF284603B0BDE8F083F8B50E4615
:10E430001546044600286FD000296DD0102A6DD8EB
:10E4400090F80631934269D190F80C31012B0DD12F
:10E45000C5300CF080FA94F809312A46314620463E
:10E46000002B55D1BDE8F840FCF7FABD90F8092122
:10E47000DAB9022B21D190F80731032B1DD8294698
:10E48000304600F005FBC0B104F1C5070422314657
:10E4900038460CF060FA0C22002104F1C9000CF09F
:10E4A00065FA3846FFF70EFFD5E7012A05D1032BA1
:10E4B00003D190F80731022BE0E794F80931EBB96A
:10E4C00094F80C31022B01D00820F8BD94F80731E4
:10E4D000042BF9D12946304600F0C6FA0028F3D0C3
:10E4E00004F1C5072A46314638460CF034FA05F1E6
:10E4F000C500C5F1100200212044D0E7012BE3D173
:10E5000094F80C31032BDFD194F80731032BE0E7AB
:10E51000BDE8F840FFF7ACBE0E20D6E70920D4E7EF
:10E5200070B5044616460D4611B97846FCF79AFEBA
:10E5300014B97846FCF796FEA36832462946204671
:10E540001B68BDE87040184748B10378092B05D80F
:10E55000034AD05C431A5842584170470020704724
:10E560002ABC030038B505460C46501C01310B226D
:10E570000CF0F1F9214628460C22BDE83840FFF79F
:10E58000CFBF30B593B012AC032304F8443D054629
:10E5900040220DF105000CF0DEF94122214628460B
:10E5A000FFF7BEFF13B030BD07B502A9042301F881
:10E5B000043D0122FFF7B4FF03B05DF804FB30B562
:10E5C00087B006AC052304F8143D054610220DEB78
:10E5D00003000CF0C0F9112221462846FFF7A0FFE6
:10E5E00007B030BD30B587B006AC062304F8143D43
:10E5F000054610220DF105000CF0ADF9112221465F
:10E600002846FFF78DFF07B030BD07B502A90823E4
:10E6100001F8043D0122FFF783FF03B05DF804FB1E
:10E6200007B509238DF80510022201A98DF80430E1
:10E63000FFF776FF03B05DF804FB70B506468AB0BD
:10E6400014460D4609B308460CF078FA6A4681B2C2
:10E65000284605F0C6FA042269460DF122000CF0A6
:10E660007AF9162564BAADF8204001F0BDFA1022FF
:10E6700001460DEB02000CF06EF92B4604AA0021B6
:10E68000304607F017F90AB070BD1225EAE700001E
:10E69000F0B50F4689B01446064610B97846FCF727
:10E6A000E1FD14B97846FCF7DDFD07F0FB03122B02
:10E6B00025D1184D2A6812B32022002168460CF09B
:10E6C00055F91022314601A807940CF044F923783B
:10E6D0005A1E534253410021162F8DF814308DF8E5
:10E6E00000100ED10123042206F112010DF11600D3
:10E6F0008DF815300CF02FF92B686846984709B053
:10E70000F0BD04220DF116008DF815100CF02EF955
:10E71000F2E700BF4C3B00200A78034B82B0002098
:10E720001A7002B0704700BF513B0020024B1B78AB
:10E730000B7082B002B07047513B0020024B82B098
:10E7400000221A7002B07047513B002073B5054695
:10E750000A4E68460C4604F089FC002324219C42A2
:10E7600001D802B070BD1DF80300B0FBF1F201FB4F
:10E770001202D2B2B25CEA540133F0E738BC0300B3
:10E7800037B50D46042104460DEB010004F06EFC84
:10E79000094B019953F82520B1FBF2F302FB131347
:10E7A00004221BBA0DEB020104F10C0001930CF0E2
:10E7B000D2F803B030BD00BF60BC03002DE9F041CA
:10E7C0000446ACB00F46904600F1F501112207A8AF
:10E7D0001E460CF0C0F894F8093104F118054022E7
:10E7E00093BB21690DF12D000CF0B5F840222946AC
:10E7F0000DF16D000CF0AFF83A4607A8912105F035
:10E80000F0F903AD04233A46009304F15800124B8B
:10E810000195202105F0FBF93046102104F026FC7B
:10E820003146102207A80CF096F804F1C501102219
:10E830000BA80CF090F84346202207A9284605F0C3
:10E840006CF92CB0BDE8F08129460DF12D000CF0DB
:10E8500082F840222169CBE79ABC030038B5044610
:10E860000D460BF0A7FD2946024620460BF0A6FDFB
:10E87000012814BF0320002038BD00002DE9F0431B
:10E88000044697B08946904600F1D50110220AA8A7
:10E890001F460CF060F894F8093104F1B50604F154
:10E8A000A505102293BB29460EA80CF054F810229F
:10E8B000314612A80CF04FF85834042502AA0AA8D1
:10E8C000302105F08EF902AA2046CDF8049000957B
:10E8D000124B202105F09BF906ABCDE9005302AAAB
:10E8E0000F4B2046202105F092F90DF11B010D225E
:10E8F00040460CF030F8CDE900570A4B02AA20211F
:10E90000204605F084F917B0BDE8F08331460EA823
:10E910000CF021F810222946CBE700BF9FBC030072
:10E92000A4BC0300A9BC030010B504460BF042FDD3
:10E93000014620460BF01EFE003018BF012010BD1E
:10E9400070B500F11804054620460E46FFF7ECFFAF
:10E9500010B97846FCF786FC6D690BF02BFD32464A
:10E960000346294620460BF067FD00280CBF032014
:10E97000002070BD37B590F80631013B072B0446E7
:10E980000D4602D97846FCF76DFC1022002128467E
:10E990000BF0ECFF94F80C31022B03D0032B16D0B4
:10E9A00003B030BD94F80731042BF9D8DFE803F049
:10E9B0001E1E1E03090094F806112846FFF7E0FE0C
:10E9C000EEE794F806112846FFF7C0FEE8E794F852
:10E9D0000731032BE4D801A252F823F0EDE902003D
:10E9E000EDE90200B7E90200C3E9020001210DF1DF
:10E9F000070094F8064104F039FB9DF80720B2FBAC
:10EA0000F4F304FB13230133EB73C9E730B593B080
:10EA100002AD04230446009300F1D502114B019589
:10EA20002021583005F0F3F804F1B50110220AA8AE
:10EA30000BF091FF04F1C50110220EA80BF08BFF23
:10EA400006AB0AA92846202205F067F8102204F137
:10EA5000E50106A80BF070FFB0FA80F0400913B092
:10EA600030BD00BF9ABC030010B50246131ADBB2DA
:10EA7000994201D8012010BD12F8013BA3F13004E6
:10EA8000092CF3D9413B192BF0D90020F3E7000002
:10EA9000082937B505460C4602D97846FCF7E2FB53
:10EAA000042229460DEB02000BF055FF044B53F8EE
:10EAB0002400019B984294BF0020012003B030BD88
:10EAC00060BC0300024B0146186807F0B5BF00BFE9
:10EAD00034BC030007B50DF10700FFF7F3FF10B1D9
:10EAE0007846FCF7BFFB9DF8070003B05DF804FB18
:10EAF0000A4B5B5C60B923F0800342F040018B421B
:10EB000004D0092A14BF002001207047012070475B
:10EB100023F0400342F080008342F3E784BC03000B
:10EB2000D1F8B83108461B69012100F5D8701847A3
:10EB3000F8B5114D2B68064613B97846FCF792FBE1
:10EB4000EFF3108772B62C68B4420BD1D6F8C431FB
:10EB50002B6007B962B6F8BD13B97846FCF782FBA3
:10EB6000D4F8C441D4F8C431B342F5D1D6F8C43195
:10EB7000C4F8C431EDE700BF543B002070B590F8F5
:10EB8000A130023B022B04460D4602D97846FCF721
:10EB900069FB2046FFF7CCFF94F8A030012B02D090
:10EBA0007846FCF75FFB204608F0F1FE002384F86E
:10EBB000A03084F8E03084F8A13004F1C00004F003
:10EBC00007F9D4F8BC31294604F5D870DB68BDE8F4
:10EBD0007040184710B5044610B97846FCF742FB60
:10EBE000A4F5D87494F8A130012B09D12046FFF781
:10EBF0009FFF204608F0CBFE002084F8A10010BD46
:10EC00000820FCE72DE9F0418846911C0646154690
:10EC10001F4608F001FE044600B36B1C4374292311
:10EC200083742A46414613300BF095FE2771EFF3AB
:10EC3000108772B6D6F8A85101356B1CC6F8A851DA
:10EC400002D17846FCF70EFB07B962B63046256064
:10EC5000214608F01CFE0020BDE8F0810420FBE7FF
:10EC60002DE9F04190F8E030022B88B0044602D044
:10EC70007846FCF7F7FA94F8E330002B42D194F889
:10EC8000A130032B02D07846FCF7ECFA94F8E03080
:10EC9000022B02D07846FCF7E5FAD4F89C2094F8D1
:10ECA000E13012BA009294F8A3208DF804209DF868
:10ECB000052002F0FC02142B03F102014FF01700B3
:10ECC000B1FBF0F161F387021D468DF8052028BFE6
:10ECD000142594F8E2208DF808201B022A4604F13E
:10ECE000E4010DF10900ADF806300BF034FE01230C
:10ECF00005F1090269462046FFF784FF80B9012328
:10ED000084F8E33094F8E3501726022794F8E18062
:10ED100008F10203B3FBF6F30133DBB2AB4202D8D6
:10ED200008B0BDE8F0816B1E03EB4301C3EBC101EA
:10ED3000D4F89C30143189B21BBAA8EB01080093B7
:10ED400094F8A3308DF804301FFA88F89DF8053048
:10ED5000B8F1170F28BF4FF0170867F30103E4312C
:10ED600065F38703424621440DF106008DF8053016
:10ED70000BF0F1FD012308F1060269462046FFF77A
:10ED800041FF0028CCD194F8E330013384F8E3301C
:10ED90000135BBE700B5D0F89C3089B01BBA0093B1
:10EDA0004FF43063ADF804308DF8061004230722C9
:10EDB0006946FFF727FF09B05DF804FB38B50D463B
:10EDC000044610B97846FCF74DFA022D02D9784670
:10EDD000FCF748FAA4F5D87494F8A13013F0FB0FAF
:10EDE0000FD0023B012B02D97846FCF73BFA2946AB
:10EDF0002046FFF7CFFF28B9042384F8A13084F818
:10EE0000A45038BD29462046BDE83840FFF7B6BEBD
:10EE100000B5D0F89C3089B01BBA00938DF804106F
:10EE20000123062269468DF80530FFF7EBFE09B095
:10EE30005DF804FB00B5D0F89C3089B01BBA009394
:10EE40004FF4E063ADF80430062201236946FFF772
:10EE5000D9FE09B05DF804FB10B5044603F0F8FFD5
:10EE6000D4F8DC10014404F1C000BDE8104003F008
:10EE7000C6BF0000D0F8A8318B4206D1012380F82C
:10EE8000AC31024B186804F01BBD7047102E0020F7
:10EE900037B591F8A130032B05460C464ED191F8B9
:10EEA000E030022B4AD1D1F8D8301B1A002B14DAEB
:10EEB00001212046FFF76EFF48B9042384F8A130F2
:10EEC000012384F8A430C4F8B40003B030BD1D4B56
:10EED000C4F8B430C4F8D850F7E71B4B1B681B07C5
:10EEE0001AD51A4B1B68042B16DD2F2118480BF07E
:10EEF0002DFED0B12F2116480BF028FE411C154BDA
:10EF000094F8E420D3F804350192134A00920520C6
:10EF100040F2BB3205F010FD0023204684F8E330B8
:10EF200003B0BDE83040FFF79BBE5C2108480BF002
:10EF30000DFE08B15C21DEE70549E0E70023C4F8D7
:10EF4000B430C2E740420F00642E0020602E002043
:10EF50005EC003000010014081C0030013B50446E9
:10EF6000EFF3108272B6174B1968C0F8C41118601D
:10EF700002B962B6144B1B681B0718D5134B1B68EC
:10EF8000032B14DD2F2112480BF0E0FD88B12F2157
:10EF90000F480BF0DBFD411C0E4B0F4AD3F8043534
:10EFA000009201944FF4C872042005F0C5FC02B031
:10EFB00010BD5C2106480BF0C9FD08B15C21E7E7F4
:10EFC0000349E9E7543B0020642E0020602E002016
:10EFD0005EC0030000100140AEBC0300F0B50E4659
:10EFE00089B01746054610B97846FCF73BF9A5F5F8
:10EFF000D87494F8A010012903D194F8A130002B03
:10F0000054D100230129C4F8DC70C4F8CC3084F852
:10F01000E03084F8A33084F8A23084F8A130C4F83A
:10F02000A83113D0012384F8A030214BC4F8B030AC
:10F03000204BC4F8C830C4F8B840C4F8D04080238E
:10F04000A5F188021C49204608F0CCFCA5F58A757C
:10F050002846042104F00AF8002384F8A330802312
:10F0600084F8A2302B681BBA009310224FF440732F
:10F0700031460DF10600ADF804300BF06CFC0423B2
:10F08000162269462046FFF7BDFD054658B92046C1
:10F09000FFF7E2FE204608F0A5FB2046FFF75EFFE3
:10F0A000022384F8A130284609B0F0BD0825FAE70C
:10F0B00091EE020021EB020075EE020038B5124B12
:10F0C0001C6800250CB9012038BD94F8AC3193B10F
:10F0D00094F8A12084F8AC51042A94F8E0300DD1C2
:10F0E000022B03D104F1A80003F072FE94F8A410DF
:10F0F0002046FFF743FDD4F8C441E3E7022BFAD1E1
:10F100002046FFF7ADFDF6E7543B00202DE9F04126
:10F110000E4617469846054610B97846FCF7A2F801
:10F12000A5F5D87494F8A020012A03D194F8A13051
:10F13000002B50D10023012AC4F8DC80C4F8CC3065
:10F1400084F8E03084F8A33084F8A23084F8A13049
:10F15000C4F8A83113D0012384F8A0301F4BC4F8A1
:10F16000B0301F4BC4F8C830C4F8B840C4F8D04021
:10F170008023A5F188021B49204608F033FC0023B8
:10F18000802284F8A320C4F89C3084F8A2303A4648
:10F1900031462046FFF751FA054610B97846FCF78C
:10F1A00061F8FF232B714FF0FF332B604FF4FA61AE
:10F1B000204608F0C2FB2946204608F068FB20469E
:10F1C00008F010FB2046FFF7C9FE012384F8A130A8
:10F1D0000020BDE8F0810820FBE700BF91EE0200AF
:10F1E00021EB020075EE020030B5074D0246FF2309
:10F1F000141AA14202DCD843C0B230BD12F8014B50
:10F200006340EB5CF4E700BFDABC03002DE9F84390
:10F21000A0F5D874804694F8A130032B0F4616460B
:10F2200040D1412A40D810F8D05C002D3ED1204674
:10F23000FFF712FE03F00CFE1723B11CB1FBF3F134
:10F240000131CBB2216F594301F5F411184B01F58F
:10F25000906148F8FC1C81460144C4F8B030A8F520
:10F26000847003F0CCFD134B4B4448F8D83C022388
:10F2700084F8E0303146C4F8B84084F8E35084F8AC
:10F28000E1603846FFF7B0FF324684F8E2003946C5
:10F29000A8F1CC000BF05FFB2046FFF7E1FC28460D
:10F2A000BDE8F8830820FBE70920F9E71120F7E71C
:10F2B00091EE020080C3C9012DE9F0410B78012BCA
:10F2C00092B005460C4602D07846FBF7CBFF261DD0
:10F2D00061783046FFF788FFA378834226D195F8FE
:10F2E000A21028460027FFF793FDE77095F8A220AB
:10F2F000531C03F07F0322F07F02134385F8A230F2
:10F3000094F801803146424601A80BF024FB2846C0
:10F310002770FFF7A1FDD5F8BC3142461B6801A953
:10F3200005F5D870984712B0BDE8F081002323702E
:10F33000F9E7000038B5044610B97846FBF792FFAC
:10F34000084D2B68013303D1074804F09BFA28606D
:10F35000012384F8B431054BC4F8B83104F5D870F2
:10F3600038BD00BF102E0020BDF00200DCBD030040
:10F370002DE9FF4188461446054610B97846FBF74B
:10F3800071FF14B97846FBF76DFF2B681BBAEFF3DA
:10F39000108172B6A44E34686CB901B962B668794E
:10F3A00000F00303032B00F29C80DFE813F00B0056
:10F3B0005801D7016202D4F89C209342EDD0D4F8D2
:10F3C000C441E9E7002C00F08C8094F8A130032BB5
:10F3D00040F0878094F8E020002A40F08E802A795F
:10F3E00094F8A2309A4230D1EB881B0A84F8E130BD
:10F3F00017220233B3FBF2F30133DBB2072B07D939
:10F40000022104F5D87004B0BDE8F041FFF7D6BC86
:10F410002B7A84F8E230A8F10908012384F8E0305F
:10F4200084F8E330424605F1090104F1E4000BF0F1
:10F4300092FA94F8E130984553D104F1E001204666
:10F4400004B0BDE8F041FFF737BF784B1B6803F00D
:10F45000080328D2BBB1764B1B68042B13DD2F2188
:10F4600074480BF073FBA8B12F2172480BF06EFBB0
:10F47000411C714B714AD3F80435009240F2C92205
:10F48000052005F059FA2979204604B0BDE8F0417D
:10F49000FFF7BEBC5C2167480BF058FB08B15C214C
:10F4A000E3E76449E5E7E3B1614B1B68012B18DD35
:10F4B0002F2160480BF04AFBB0B12F215D480BF0C3
:10F4C00045FB411C5C4B94F8A220D3F80435029212
:10F4D0002A7901925A4A009240F2CE22022005F087
:10F4E0002BFA04B0BDE8F0815C2152480BF02EFBF2
:10F4F00008B15C21E2E74F49E4E74C4B1B68022A64
:10F5000003F0080373D1297994F8A220914220D204
:10F51000002BB8D0464B1B68042BB4DD2F21454887
:10F520000BF014FB60B12F2142480BF00FFB411C84
:10F53000414B424AD3F80435009240F2D5229FE76E
:10F540005C213C480BF002FB08B15C21ECE7394937
:10F55000EEE725D9002BC4D0354B1B68012BC0DD4D
:10F560002F2134480BF0F2FA88B12F2131480BF0EB
:10F57000EDFA411C304B94F8A220D3F804350292E6
:10F580002A7901922E4A009240F2DA22A6E75C2103
:10F5900028480BF0DBFA08B15C21E7E72549E9E7E9
:10F5A000002B9ED0224B1B68042B9ADD2F21214873
:10F5B0000BF0CCFA90B12F211E480BF0C7FA411C7A
:10F5C0001D4B94F8A220D3F8043502922A790192B7
:10F5D0001C4A0092052040F2DE2280E75C2115489B
:10F5E0000BF0B4FA08B15C21E6E71249E8E7002B1A
:10F5F0003FF477AF0E4B1B68012B7FF772AF2F21C3
:10F600000C480BF0A3FA08B32F210A480BF09EFA1E
:10F61000411C094B0C4AD3F80435009240F2E32216
:10F62000022005F089F95CE7543B0020642E00209D
:10F63000602E00205EC0030000100140F0BD0300FA
:10F6400040BE03008ABE0300C3BE03005C21B54870
:10F650000BF07CFA08B15C21D7E7B249D9E7002C5E
:10F660003FF43FAF94F8A130032B7FF43AAFAE4B99
:10F6700094F8E0201B68022A03F008034BD1297993
:10F6800094F8A320914246D1D3B1A84B1B68032B19
:10F6900016DD2F21A3480BF059FA98B32F21A1486A
:10F6A0000BF054FA411CA24B94F8E420D3F8043533
:10F6B0000192A04A0092042040F21E3205F03CF96B
:10F6C000002504F1A800C4F8B45003F081FB2046E3
:10F6D00008F05DF994F8A32084F8E050531C03F07F
:10F6E0007F0322F07F02134384F8A3302046FFF704
:10F6F000B3FBD4F8BC315B6804F5D87004B0BDE846
:10F70000F04118475C2187480BF020FA08B15C21D2
:10F71000C5E78449C7E7002B3FF4E3AE834B1B6882
:10F72000012B7FF7DEAE2F217E480BF00FFA60B180
:10F730002F217C480BF00AFA411C7D4B7E4AD3F8FE
:10F74000043500924FF44C726AE75C2175480BF067
:10F75000FDF908B15C21ECE77249EEE7002C3FF4BB
:10F76000C0AE94F8A130032B7FF4BBAE94F8E060F8
:10F77000297994F8A230012E4CD1994225D194F8E0
:10F78000E33080080341DA073FF5ABAE17270138B5
:10F7900007FB0040A8F10602A91DF8300BF0DBF8CA
:10F7A0006B7994F8E3209B0806FA03F3134394F86B
:10F7B000E1200232B2FBF7F70137DBB2FFB284F887
:10F7C000E330BE400133B34236E6574B1B681B079C
:10F7D0007FF587AE554B1B68012B7FF782AE2F213B
:10F7E00050480BF0B3F960B12F214E480BF0AEF941
:10F7F000411C4F4B514AD3F8043500924FF44272EA
:10F800000EE75C2147480BF0A1F908B15C21ECE759
:10F810004449EEE79942FFF437AE7FF662AE424BC1
:10F820001B681F077FF55DAE404B1B68012B7FF700
:10F8300058AE2F213B480BF089F988B12F21394868
:10F840000BF084F9411C3A4B94F8A220D3F804350C
:10F8500002922A7901923A4A00924FF445723DE6AB
:10F860005C2130480BF072F908B15C21E7E72D49C3
:10F87000E9E78008012875D023D3022800F0D3805F
:10F88000294B1B681B077FF52CAE284B1B68012BEF
:10F890007FF727AE2F2123480BF058F9002800F0FE
:10F8A00027812F211F480BF051F9411C6A79204B09
:10F8B0009208D3F804350192224A009240F2923223
:10F8C000A4E0B8F1160F7FF40CAE00F08DF9102211
:10F8D0000146A81D0BF030F800287FF402AE002C82
:10F8E00040F01181EFF3108372B6346824B9002B15
:10F8F0007FF4F7AD62B6F4E594F8A120012A00F098
:10F900000081D4F8C441F1E75C2106480BF01EF9F0
:10F9100008B15C211AE103491CE10023C4F89C30C2
:10F92000DFE500BF5EC00300642E0020602E0020D3
:10F9300000100140F5BE030010BF030030BF0300FC
:10F9400061BF030037C00300032B7FF4CAAD94F8F6
:10F95000E030002B7FF4C5AD204604B0BDE8F04197
:10F96000FFF768BA002C3FF4BCADB8F1060F7FF486
:10F97000B8AD94F8A130814D022B2AD1204608F071
:10F9800006F81421204607F0D8FF2B681D0740F128
:10F99000EB807B4B1B68032B40F3E6802F217948DB
:10F9A0000BF0D4F860B12F2176480BF0CFF8411C52
:10F9B000754B764AD3F80435009240F26E32D0E0AF
:10F9C0005C2170480BF0C2F808B15C21ECE76D498E
:10F9D000EEE72B6818077FF584AD694B1B68012B98
:10F9E0007FF77FAD2F2167480BF0B0F890B12F2142
:10F9F00064480BF0ABF8411C634B94F8A120D3F89A
:10FA000004350192624A009240F27632022004F0FC
:10FA100093FF66E55C215B480BF098F808B15C2128
:10FA2000E6E75849E8E7002C3FF45BADB8F1070F73
:10FA30007FF457AD94F8A130504E023B012B30D8E3
:10FA400094F8E030022B03D104F1A80003F0C0F9D0
:10FA5000A9792046FFF792F8336819077FF541AD81
:10FA6000474B1B68032B7FF73CAD2F2145480BF01C
:10FA70006DF868B12F2143480BF068F8411C424BE8
:10FA8000444AD3F80435009204204FF46272C8E56A
:10FA90005C213C480BF05AF808B15C21EBE739498E
:10FAA000EDE733681A077FF51CAD354B1B68012B5A
:10FAB0007FF717AD2F2133480BF048F878B12F218D
:10FAC00030480BF043F8411C2F4B94F8A120D3F899
:10FAD00004350192304A009240F28D3296E75C2163
:10FAE00028480BF033F808B15C21E9E72549EBE73A
:10FAF0005C2124480BF02AF808B15C21D2E62149A8
:10FB0000D4E603B962B694F8A130012B7FF41CAFA0
:10FB10002B681BBA2046C4F89C30142107F00DFF57
:10FB20002046FFF787F900287FF4F7AE134B1B68D8
:10FB30001E0719D5124B1B68032B15DD2F21114809
:10FB40000BF004F800283FF4DFAE2F210D480AF037
:10FB5000FDFF411C0C4B0D4AD3F80435009240F2D6
:10FB60005132042004F0E8FE032384F8A13020463B
:10FB7000FFF772F9D4F8BC319B68BDE5642E002014
:10FB8000602E00205EC0030000100140A7BF0300EC
:10FB9000BDBF0300EEBF030004C0030001461022F6
:10FBA00001480AF0D8BE00BF583B002010B50B4CEE
:10FBB0000B49082220460AF0CEFE0822A018094967
:10FBC0000AF0C9FEE379042262F30713E371237A92
:10FBD000022262F38713237210BD00BF583B00203E
:10FBE00060000010A400001000487047583B00203F
:10FBF000064B002203F580715A805A6003F8082BE7
:10FC00008B42F9D1024B1A60704700BF683B00205D
:10FC1000683C0020F0B50C4B0C4C1B6806462022BB
:10FC20007BB1013B14F8330050B104EBC3056F887E
:10FC3000B74202D16D688D4202D0013AF0D1104630
:10FC4000F0BD1F23EEE700BF683C0020683B0020AA
:10FC500030B5084A084C136804EBC30569600121FC
:10FC600004F833100B44202B08BF00236880136076
:10FC700030BD00BF683C0020683B0020C0F30C038F
:10FC80008B42084438BFA0F50050C01A70470000EE
:10FC9000F0B50D4B0D4A1E6800218E4212D015683A
:10FCA00000230AE052F8044C04EBC30714F8334075
:10FCB000844201D17868F0BD01339D42F2D1013117
:10FCC0000832EAE70020F6E76C3C0020743C002094
:10FCD00000B58DB040B99A1C06D0012201A88DF85C
:10FCE0000420029301F022FA034B186803F0E8FDA8
:10FCF0000DB05DF804FB00BF783C002010B5037820
:10FD0000044613B97846FBF7ADFAE188A069FFF71E
:10FD1000B5FFE1690A060B0A101843F1000110BD96
:10FD200010B50378044613B97846FBF79BFA607A5E
:10FD3000431C01209840013810BD0000F8B503783D
:10FD400005460E4613B97846FBF78CFA104AA88A86
:10FD50000023144619018F5A874214D100235352AD
:10FD60000C4A1368591C03F007031B011160AA8A8F
:10FD7000E25206B16E781C442846A670FFF7BEFF1B
:10FD8000C4E90201F8BD0133082BE3D1E8E700BF65
:10FD9000803C0020003D00202DE9F0410E468EB051
:10FDA00015461C46074610B97846FBF75BFA16B9AC
:10FDB0007846FBF757FA636AA27802330593E37833
:10FDC000A2F10800002B14BF012102210DF104084B
:10FDD00042424241434604F10C0003F0A4FEA378E2
:10FDE0008DF83430237BADF82050022B16FA85F5C0
:10FDF000CDE906870B960C950FD1236913B9784688
:10FE0000FBF730FA23690993102305A8ADF82830D1
:10FE100003F085FE0EB0BDE8F0810023F5E7000099
:10FE2000B2F5C07F2DE9F04781468846174602D9D2
:10FE30007846FBF717FA244B002570229A4602FBFE
:10FE4000053494F8486046B9384607F01AFBE06676
:10FE500038B900242046BDE8F0870135042DEED1E5
:10FE6000F7E73022494620460AF075FDB8F1010F48
:10FE7000E664A4F84A701DD1144B84F852601B7DCF
:10FE800084F8513084F8536084F85060D9F82830F1
:10FE900063656FF00103A3620D4BA4F85860A36380
:10FEA0002464012002F01AF9702303FB05A585F8EC
:10FEB0004880CFE76FF00103A362064BA36584F887
:10FEC00068602466044BEAE71C3D0020043D0020E6
:10FED000210403002D0B03001904030010B5044690
:10FEE000C06E07F0D0FA04F1300002F071FF94F810
:10FEF0004830022B03D104F1500002F069FF204684
:10FF0000702200210AF032FD002084F84800BDE88C
:10FF1000104002F0E3B810B590F84830012B8CB0D7
:10FF2000044602D07846FBF79DF901238DF8043092
:10FF300001A8636D029301F0F9F82046FFF7CEFFA8
:10FF40000CB010BD10B50446808A02F069FB012890
:10FF50001CD1237BD3B194F91620002A18DBE27D53
:10FF60005AB1022B12D094F90330002B10DBA37886
:10FF7000002B0CBF0020072010BDE2780AB9012B2E
:10FF800006D1237833B9A378042BF2E71020F3E7E6
:10FF90000720F1E70020EFE71FB500220B468DF8A0
:10FFA0000F2028B30230086018460DF10F0103F04E
:10FFB000B8FD9DF80F30DBB1144B1B685B0717D5FC
:10FFC000134B1B68032B13DD2F2112480AF0BEFDD3
:10FFD00098B12F210F480AF0B9FD411C0E4B0F4A72
:10FFE000D3F804350092042040F2374204F0A4FC18
:10FFF0009DF80F0005B05DF804FB5C2105480AF090
:020000023000CC
:10000000A5FD08B15C21E5E70249E7E7642E002081
:10001000602E0020D9C0030000100140F6C003008C
:1000200070B50446D0E906128CB0808A05F0C8FB92
:100030000546A0B12C22002101A8A68AE4690AF095
:1000400095FC0F238DF804304FF0000364F3000398
:1000500001A8ADF808608DF80A3001F067F828466D
:100060000CB070BD2DE9F04F99461378D2F8188086
:10007000F3B007468A46144623B1D1884046FFF7BD
:10008000FDFD9061E378A278002BA2F1080003AD9A
:1000900014BF0121022104F10C0642422B464241C9
:1000A000304603F040FDA278C4F81880CDE9085727
:1000B0001FFA8AF5AB1A9BB21F44ADF82830E378DB
:1000C0000E974FF0000812AF0D978DF83C20ADF859
:1000D0003080002B65D04FF0100B04F1240A237BF5
:1000E000C4F82480022B02BF2369ADF830B00B9313
:1000F000206A21795246FAF711FE606A30BB237BF1
:10010000022B05D13146E089FAF7CAFE0028E6D174
:10011000374B1B685B0741D5364B1B68052B3DDD14
:100120002F2135480AF012FD002858D02F213248DF
:100130000AF00CFD411C314B314AD3F804350092D2
:10014000062040F20E7204F0F7FB27E007A9FFF744
:1001500023FF0028CCD02046FFF762FFF0B9A27839
:100160000B908DF81C0096E80300A38AADF82A30A6
:10017000AD1A0CAB01228DF8282083E80300A37D83
:100180008DF84030236A0E9307A8636A0897ADF88C
:1001900024500F93CDF8449000F0C8FF73B0BDE831
:1001A000F08F227B012AB3D1A046E089B4F814A0D5
:1001B00048F8243F4146FAF7F7FD07A9606AFFF7C0
:1001C000EBFE0028C7D1606241465046FAF7ECFDCD
:1001D00007A9606AFFF7E0FE002899D0BBE75C2121
:1001E00005480AF0B3FC08B15C21A0E70249A2E788
:1001F000642E0020602E0020D9C0030000100140B2
:100200009CC10300C37D0A7830B5002B3DD0C37874
:1002100022F07F0203F07F031A430A700B78027802
:1002200003F07F0343EAC2130B70037863B3837850
:10023000083B5A425A414B7803F07F0343EAC2130A
:100240004B708A78C58802F00302C5F3861442EA2F
:10025000850223F07F032343D2B28A704B70CB78A0
:10026000057A03F01F03C5F3C10422F0030243EA39
:1002700045132243DBB2CB708A70427A23F01F030E
:1002800002F01F021343CB7030BDC47822F040034C
:1002900043EA8413DBB20B70027923F03F0302F0D0
:1002A0003F0213430B70B9E72DE9F0418378904684
:1002B0001344C27D002A14BF0B220F22934286B042
:1002C00004460F462FD8024612F80C1B0092002954
:1002D00014BF042501252B440293836A0193C36A4A
:1002E0000393684600238DF8103003F0B8FD0646EE
:1002F00070B9059920460D44FFF784FFE37D5BB19B
:100300004246394628460AF026FB684603F0C8FDF7
:10031000304606B0BDE8F0812346424629463846BD
:10032000FFF73AFDF1E70926F2E7000038B590F84B
:100330004830012B044602D07846FAF793FF02F0CA
:1003400087FD237B074A012B05BFD2E90315A37D57
:10035000D16805FB0311014404F13000BDE83840C9
:1003600002F04DBD043D002070B50D4690B004462E
:1003700010B97846FAF776FF94F84830022B03D18B
:1003800000212046FFF7DAFC2C22002105A8666D2B
:100390000AF0ECFA102305A88DF8143006968DF8B3
:1003A0001C5000F0C3FE2046FFF798FD154B1B685C
:1003B0005B071BD5144B1B68032B17DD2F2113483C
:1003C0000AF0C4FBA0B12F2110480AF0BFFB411C6A
:1003D0000F4BD3F80435029594F8482001920D4A4A
:1003E0000092042040F22E2204F0A6FA10B070BD54
:1003F0005C2106480AF0AAFB08B15C21E4E7034946
:10040000E6E700BF642E0020602E0020D9C0030064
:1004100000100140A8C0030008460021FFF7A4BF58
:1004200010B591F84830012B0C4602D07846FAF707
:1004300019FF94F851305BB1013B84F8513000232F
:1004400084F85030084BBDE81040186803F038BA03
:10045000217B0129204603D1BDE81040FFF784BF6E
:10046000BDE81040FFF757BD783C00202DE9F04F64
:10047000044689B00F4609B100230B6004F10C0358
:1004800094F8505001934FF001084FF0000B627A3E
:10049000AA4203D2002009B0BDE8F08FE16C08FA4F
:1004A00005F30B4259D1E37D2572002B0CBF0C26BE
:1004B0000826954206FB05FA237808BFB4F84A607F
:1004C0008DF818B008BFA6EB0A06002B14BF4FF03A
:1004D00004094FF0010906EB09030493019B029301
:1004E000A36A039302A8E36A059303F0B8FC00280B
:1004F000D1D1079B994445B994F853302BB9A369DE
:1005000084F85380C3F30C03E380E37D8BB994F844
:10051000523073B915B17846FAF7A4FEB4F84A1010
:10052000A2788A1AE16E23460846FFF735FC84F864
:10053000528007992046FFF765FEE16E324651442E
:1005400048460AF008FA02A803F0AAFC17B13B6873
:1005500001333B606B1C84F850300135EDB296E7F7
:100560002DE9F04307468FB0104688461546994658
:10057000FFF756FD0446002860D1EE78002E40F0CB
:10058000AE80B8F1060F59D138787A78DFF8A8C173
:10059000830103F4FE5343EA9203D7F802204FF09D
:1005A000700812BA674608FB04C696F8481001297D
:1005B00025D1B6F814E0E9898E4520D1F188994219
:1005C0001DD1B6F858E0A98ABEF1000F01D08E45C2
:1005D00015D110F0800F4FF070033BD003FB047374
:1005E000A3F85810702303FB0474E56C1543E5640D
:1005F000002A61D103213046FFF7B6FE1EE0013428
:10060000042CD0D1464B1B685B0717D5454B1B68A4
:10061000012B13DD2F2144480AF098FA88B12F21CD
:1006200041480AF093FA411C404B414AD3F8043543
:100630000092022040F2846204F07EF90FB0BDE81F
:10064000F0835C2138480AF081FA08B15C21E7E7C1
:100650003549E9E703FB0473DB898B42C2D0304B99
:100660001B685A07EAD52F4B1B68012BE6DD2F21AB
:100670002D480AF06BFAB0B12F212B480AF066FA28
:10068000411C2A4BAA8AD3F804350292702202FB3D
:1006900004740220E2890192264A009240F28C62A0
:1006A00004F04AF9CAE75C211F480AF04FFA08B182
:1006B0005C21E2E71C49E4E73046FFF731FB854265
:1006C00003D13046FFF727FCB8E7002184F850102B
:1006D0003046FFF7CBFE3046FFF728FEAEE7304648
:1006E000FFF7D6FA03460028A8D005F10C012A6AC4
:1006F0000B9203C9AA8AADF8222009AA82E8030056
:10070000AA7D8DF830202A788DF82020EA6A8DF8AD
:100710001460CDE906780D92494605A898478DE703
:10072000642E0020602E0020D9C00300001001407C
:1007300009C1030037C103001C3D0020F0B5C37D93
:1007400015468278002B2A4414BF4FF480734FF46F
:10075000C0739342C7B00E4679D3404C0023E118D2
:1007600091F84870012F08D1B1F814C0878ABC45B0
:1007700003D1CF89C1898F426BD07033B3F5E07F4D
:10078000EDD10121FFF74CFB0446002863D02A4637
:100790003146C06E0AF0DFF8002304A92046049316
:1007A000FFF764FE30F0040506464BD1049B13B1FD
:1007B0002046FFF7BBFD2A4B1B685B0728D5294B5A
:1007C0001B68032B24DDB4F84A10274B80291868D6
:1007D00028BF8021002305AE8B421CD100222F218F
:1007E000224806F813200AF0B1F910B32F211F4850
:1007F0000AF0ACF9411C1E4B1E4AD3F80435019295
:100800001D4A0092029640F27152042004F094F8BE
:10081000284647B0F0BDE26ED25C170902F00F0225
:10082000C75D06F81370875C06EB4302013357700F
:10083000D2E75C210D480AF089F908B15C21D6E7BE
:100840000A49D8E72046FFF749FB3546E0E7092586
:10085000DEE70825DCE70425DAE700BF1C3D0020C1
:10086000642E0020602E0020682E0020D9C00300D6
:1008700000100140CBC0030001B4030010B54FF4D9
:10088000E072002113480AF071F8002405F008F81E
:10089000114B12481C60214680220AF067F8104B69
:1008A0001049114A11489C75C3E9001210494CF2D5
:1008B0005032C3E902211A6140F604029A8202F022
:1008C000E1FF0C4B18600C4B0C481C60BDE810405D
:1008D00005F0E8B81C3D0020003D0020803C0020D1
:1008E000043D002080969800F0490200611003004A
:1008F00020A10700783C00206C3C0020D1FC0200C5
:1009000004F056BF30B504468DB000286CD00369A2
:10091000002B69D0C369002B66D08569002D63D098
:100920005A788DF804201A780993838A82F001029C
:100930000B2B8DF80320027B43D90121022A8DF86D
:10094000001001D1294A927D002A44D10422134487
:100950008DF802200B330C2293FBF2F3013B8DF850
:10096000093000238DF8083094E8030000238DF847
:10097000173003AB83E803002389ADF81430A37A62
:100980008DF81630236A0A932046DF2308950B93CF
:10099000FAF742FB28B12378012B0CBF2023FF2359
:1009A0000B9368462569A48AFFF7CCFA38B99DF8FD
:1009B00000302246294668469BB1FFF7BFFE0DB0C6
:1009C00030BDC17A0029B8D1012A0CBF0122002212
:1009D0008DF8002001D10822B9E704238DF80230F8
:1009E000C2E7FFF761FCEAE70E20E8E7043D0020DC
:1009F000F0B503468DB00F46002843D04568002D62
:100A000040D08669002E3DD0846802788DF803209E
:100A10000B2C4FF00002099294BF027B012202F0DE
:100A2000010100208DF800108DF8020032B1E11DA7
:100A3000C90801398DF809108DF8080003F110017B
:100A400003C901228DF8172003AA82E80300DA897E
:100A5000ADF814201A7F1B6A089668468DF8162098
:100A6000CDE90A73FFF76EFA38B99DF800302246D7
:100A7000294668461BB1FFF761FE0DB0F0BDFFF7D8
:100A800013FCFAE70E20F8E770B5067B012E8CB058
:100A900004460D4646D10B220021684609F066FF48
:100AA0009DF80120E3888DF8055002F0030242EA28
:100AB00083028DF801202A0E8DF802202A0C8DF871
:100AC00003202A0A8DF8042062788DF81C60911E9C
:100AD0004A424A41C3F3861343EAC2138DF80030F9
:100AE00006230593A38AADF81E30002308938DF8E2
:100AF0000C308DF81830E389ADF81A30E36A0B93A7
:100B0000A37D226ACDF810D0099243B96FF001019C
:100B100003A88DF82830FFF76BFF0CB070BD024BB7
:100B20005B7DF3E70020F8E7043D002010B591F865
:100B30004830022B0C4602D07846FAF793FB02238A
:100B400084F8683094F84830022B06D1E16C2046D6
:100B5000FFF79AFF08B984F8680010BD2DE9F04F3F
:100B60000C469FB090461F460546002800F0A7811E
:100B7000002A00F0A48121B9092630461FB0BDE843
:100B8000F08F1822414609A809F0E5FE2B780020D5
:100B900059B2CA0F81428DF81820ACBF012204223D
:100BA00094428DF81900E7D39DF82F60EEB103F061
:100BB0007F0381428DF81B308DF81A002EDA6A7897
:100BC000AB78920102F4FE5242EA9302ADF81E2085
:100BD000DB00EA7803F0180343EA521302F01F0225
:100BE0008DF820308DF8212018E0C3F38010002903
:100BF00003F03F038DF81B008DF81C3008DA95F9DF
:100C00000130002BACBF042308238DF81A30D6E73F
:100C100004231A4494428DF81A30ADD300230F9365
:100C20003B78032B02D97846FAF71CFB3A78A54BA0
:100C300006A853F822301193FFF784F906460028DE
:100C40009BD1D8E90312B8F8080004F0F5FD00289C
:100C500093D13146082204A809F088FE04A9B8F807
:100C60000200FAF71DF938B19DF8193043F001037D
:100C70008DF81930059B0A939DF81930002B3FF42D
:100C80007CAF9DF81820002A00F007818E4A4FF0B3
:100C9000000A934602EB0A0393F84810022940D059
:100CA0000AF1700ABAF5E07FF4D19DF8183013B953
:100CB0007846FAF7D7FA06A8FFF720F8BDF82CE037
:100CC000824A4FF0000C4FEA0C1838F80230734596
:100CD0003DD19044D8E9029A514508BF484536D1E4
:100CE00006AD0FCD12AC0FC40FCD0FC495E80F00A9
:100CF00084E80F0098F802308DF84930002B3FF45B
:100D00003CAF12A8FFF70CF8014612A8FFF7BCFE93
:100D100098F80230DC077FF530AF06A8FFF780F9BE
:100D20002BE7988ABDF82C108842B9D106A8CDE9E6
:100D30000232FEF7E3FF029B804618468946FEF723
:100D4000DDFF894508BF8045039AA9D215E70CF15C
:100D5000010CBCF1080FB6D10023702202FB03BACC
:100D60009AF84810022915D1BAF81410714511D11A
:100D700006A8FEF7C3FF804650468946FEF7BEFF31
:100D8000494508BF404580F0AD8005215046FFF73A
:100D9000EBFA02E00133042BE0D19DF82F209DF8FF
:100DA0002130002A0CBF4FF00C084FF0080803FB5D
:100DB00008880CBF4FF4C0734FF48073984529D94D
:100DC000434B1B6858077FF5D8AE424B1B68002B7E
:100DD0007FF7D3AE2F21404809F0B8FE88B12F210C
:100DE0003D4809F0B3FE411C3C4B3D4AD3F8043565
:100DF0000092CDF8048040F29232012003F09CFD75
:100E0000BBE65C21344809F0A1FE08B15C21E7E7AC
:100E10003149E9E7BDF81E100C98FEF72FFF0D9A37
:100E20000146BDF82C0004F007FD00287FF4A5AEB4
:100E30004246022106A8FEF7F3FF8246002851D160
:100E4000014606A8FFF720FE2C22514612A809F001
:100E50008DFD10238DF8483012A802238DF85030F4
:100E600000F064F989E65C211B4809F06FFE08B1C7
:100E70005C2146E0184948E0002B0CBF0C230823F6
:100E80009C4200F0A28004215046FFF76DFA74E600
:100E90003B465246FFF7E6F8CDE0DA077FF56DAE48
:100EA0009DF82F30681C611E23B13B4606AAFFF750
:100EB00057FB62E63B4606AAFFF7D4F85DE60E262E
:100EC0005BE600BF98C003001C3D0020803C002072
:100ED000642E0020602E0020D9C0030000100140C5
:100EE00078C10300584B1B685B071BD5574B1B6829
:100EF000032B17DD2F21564809F028FE0028B2D019
:100F00002F21534809F022FE411C524B9DF820200E
:100F1000D3F804350192504A009204204FF47172C4
:100F200003F00AFD9AF84830022B02D07846FAF70F
:100F300099F9DFF82881D8F8009001F089FF09EBD2
:100F400000010AF1300001F05AFF9AF80C30012B31
:100F50001AD19AF86830BBB99AF84830022B02D0FF
:100F60007846FAF77FF9D8E9013298F8151002FBB4
:100F7000013801F06DFF00EB08010AF1500001F0AB
:100F80003EFF01238AF868309DF82010DAF84C30D3
:100F900001228A4013427FF4F0AD1343CAF84C306B
:100FA0009DF82F309AF80920002B0CBF4FF00C0849
:100FB0004FF008088A42A4F1040408FB01F87FF40A
:100FC0005BAF08EB0403AAF84A30DAF818200C9B50
:100FD0009A420BD20DF1240EBEE80F000AF10C0C60
:100FE000ACE80F009EE803008CE80300DAF86C0020
:100FF0002246291D404409F0AEFC5046DAF84C4028
:10100000FEF78EFE84427FF4B8ADDAF84C105046FD
:10101000FFF73AFD9AF80130D9070CD59AF8173046
:10102000DAF86C00BAF84A10002B3FF431AF3B46B7
:101030005246FFF795FA50460121FEF77FFE5046D3
:10104000FEF74CFF99E500BF642E0020602E0020C3
:10105000D9C00300001001408CC10300043D0020F2
:101060002DE9F341194E00243746A046351995F86D
:101070004830012B0CD102A9284641F8048DFFF716
:10108000F5F9042801D0019B13B12846FFF74EF96A
:101090007034B4F5E07FE9D100257C1994F848302C
:1010A000022B0AD194F86830022B06D1E16C20465D
:1010B000FFF7EAFC08B984F868007035B5F5E07F01
:1010C000EBD1012002B0BDE8F08100BF1C3D002043
:1010D0002DE9F04188460746E8B1124E3468C4B99C
:1010E0002546454507D1104BC3E900750123336000
:1010F0002046BDE8F08107EBC5035B685BB117F8DC
:101100003500030609D450B1FEF7C2FD38B90135E8
:10111000E7E70424ECE70E24EAE70B24E8E70F24D2
:10112000E6E700BF6C3C0020703C0020F8B50746A5
:1011300010B97846FAF796F80F4E346894B10F4D0F
:1011400001232B7023791BB954F8043C3846984787
:101150002468002CF6D12B78022B03D13168064C81
:1011600009B92970F8BD0B790E6813B1204603F058
:1011700068FB3146F4E700BFE03E0020DC3E002083
:1011800010B5044610B97846FAF76CF800232372BC
:10119000211D0248BDE8104003F032BBE03E0020B4
:1011A0000B888268D25A073222F003021344028865
:1011B0009BB2043A934288BF00230B80704713B55B
:1011C0008368CB1A02A921F8023DFFF7E9FFBDF8B9
:1011D00006308068184402B010BD70B5064615464A
:1011E0000C4611BB7846FAF73DF8FEB17846FAF79F
:1011F00039F86B1E2344B3F1005F34D94FF08052AD
:10120000D2F80C2102F50022B3EB822F2ED2042D4E
:1012100002D87846FAF726F835800023043D73801B
:10122000B380B4602580A37070BD10B97846FAF71A
:1012300019F8B4F1005F12D94FF08053D3F80C3194
:1012400003F50023B4EB832FD3D34FF08053D3F8AF
:101250000C3103F50053B4EB832FC7D2C9E7B4F5C3
:10126000000FF2D8C2E7B3F5000F08D94FF0805253
:10127000D2F80C2102F50052B3EB822FC7D3784687
:10128000F9F7F0FFC3E738B5044610B97846F9F727
:10129000E9FF6288A36813449B78012B02D178464A
:1012A000F9F7E0FFEFF3108572B6A268A188114448
:1012B0008B78032B0AD12046FFF781FFA368C31A5E
:1012C00063800023837005B962B638BD0023937034
:1012D0006380A380F7E7F8B50E461546044610B9BB
:1012E0007846F9F7BFFF16B97846F9F7BBFF628871
:1012F000A36813449B78012B02D17846F9F7B2FF1B
:10130000002D37D02388043B9BB29D4232D8EFF3A7
:10131000108772B66188A388EA1D22F00302994201
:1013200092B204D25B1A9A4210DD042016E018D95A
:101330002088401A904209D29A42F6D8032881BFE9
:10134000A3685B1804229A70002363806288A168F6
:101350008B188D5201229A700020336007B962B653
:10136000F8BDA26813449B78002BDED19370638094
:10137000A380EBE70920F3E7F8B50D4616460446CF
:1013800010B97846F9F76EFF15B97846F9F76AFF94
:10139000AB78012B02D07846F9F764FF2B88B34273
:1013A00002D27846F9F75EFF16B97846F9F75AFF88
:1013B000EFF3108772B60223AB70E1182E8020463F
:1013C000FFF7EEFE6288A38893421FBFA3689B18B5
:1013D00000229A7007B962B6F8BD70B50D46044692
:1013E00010B97846F9F73EFF15B97846F9F73AFF94
:1013F000EFF3108672B6A288A36813449A78042A81
:1014000006D1211D2046FFF7CBFEA288A368134416
:101410009A78022A03D0032A08D0052003E0032289
:101420009A702B60002006B962B670BD7846F9F755
:1014300019FFF7E738B5044610B97846F9F712FFF7
:10144000EFF3108572B6A088A16801448B78042B55
:1014500003D12046FFF7B3FE01468878831E584229
:10146000584105B962B638BD38B5044610B978465A
:10147000F9F7F8FEEFF3108572B6A088A168014471
:101480008878C31E012B05D9831E5842584105B9DF
:1014900062B638BD2046FFF792FE0146F0E7F8B588
:1014A0000D46044610B97846F9F7DCFE15B97846C2
:1014B000F9F7D8FEEFF3108672B6AB78012B19D08E
:1014C000032B22D1A288A36813449D4202D0784600
:1014D000F9F7C8FE0027AF70211D2046FFF760FE18
:1014E000A288A36813449B78042B00D1A78006B977
:1014F00062B6F8BD6288A36813449D4202D0784664
:10150000F9F7B0FE0023AB70F1E77846F9F7AAFED1
:10151000EDE710B5EFF3108472B68288816811444C
:101520008B78042B02D1FFF74AFE01468878B0FA87
:1015300080F0400904B962B610BD037942799B1A64
:1015400003F57F2303F6FF7300EB033070470000C1
:1015500010B5054884681C22002109F007FA2046CE
:10156000BDE8104003F07ABFE43E002070B5194C8E
:10157000E36813B97846F9F775FE237E13B1784610
:10158000F9F770FE6368092B02D97846F9F76AFE0D
:10159000114D0026636855F823309847022811D072
:1015A00003280DD0012810D163680133092B636033
:1015B00002D97846F9F756FE237E002BEAD004E0E4
:1015C0006660F9E7237E0BB1207070BDBDE8704006
:1015D000FFF7BEBFE43E0020C8C1030010B503887A
:1015E000044613B97846F9F73DFE2088074B04EB13
:1015F000800030EA030203D06288B2F5FE4F04D1C6
:101600001C4004F580542078204410BD00F0FFFFFA
:1016100070B504460E4647F6FE65FFF7DFFFB042A1
:1016200007D2844205D24388013B9BB2AB42F4D837
:1016300070BD0020FCE700000B78032B094B04BFB2
:1016400000221A761A78012A03D11B7E43B9FFF7CC
:101650008DBF022A04D10B78032B01D1FFF778BF8D
:10166000704700BFE43E002010B50C4CE3681878CA
:10167000002203F58051184404F0D8F950B9E1680C
:101680000846FFF75AFF814206D001F58051E1601C
:10169000032010BD0120FCE70220FAE7E43E002011
:1016A0001FB50A4B02221B688DF800200193084ADF
:1016B0004FF4805369460120029300F0F3FEB0FA24
:1016C00080F0400905B05DF804FB00BF043F002036
:1016D000003F00201FB50123CDE902210190054AFA
:1016E0008DF800306946184600F0DCFE05B05DF864
:1016F00004FB00BF003F00202DE9F047254BD868D0
:1017000002794179013A91421E4603D1012058766F
:10171000BDE8F08700F580531F491C781C440B6816
:1017200013F8045F1D44FFF708FF6388013B9BB279
:1017300047F6FE62934200F58057884604D920465A
:101740003946FFF765FF0446DFF850A04FF0010966
:101750002CB9B4FA84F4640974760120D8E7D8F877
:1017600000106288284601F5805104F05FF90546B3
:101770000028EED004225146204686F81890FFF744
:10178000A9FF28B920463946FFF742FF0446DFE7A4
:101790000020BDE7E43E0020043F00208CC303008E
:1017A00038B5104CE36818784FF6FF7203F5805196
:1017B000184404F03BF988B1E36819780B44984267
:1017C0000CD0657E0849094B0422002D08BF19463C
:1017D000FFF780FF20B90120207638BD0120FCE70B
:1017E0000020FAE7E43E002094C3030090C3030006
:1017F00070B50C4D0C4EE96830680C780430224608
:10180000FFF768FF58B9336804F0FC0404341C4443
:10181000EB686C611A7813442B61012070BD0020C5
:10182000FCE700BFE43E0020043F002008B5054B64
:10183000054918680422FFF74DFFB0FA80F040090F
:1018400008BD00BF043F0020F03E002010B5074B4C
:10185000074C1968E06840F6FC720431FFF73AFF64
:1018600010B90120207610BD0020FCE7043F0020C5
:10187000E43E002010B50C4CE1680846FFF75DFE21
:1018800081420AD1094B0A4918680422FFF722FF56
:1018900040B901232376022010BD01F58051E1609B
:1018A0000320F9E70020F7E7E43E0020043F002092
:1018B000083F00202DE9F74F324C236913B97846D1
:1018C000F9F7D0FC636913B97846F9F7CBFCDFF878
:1018D000B89047F6FE6A6369D4E9030603EA09088B
:1018E000A8EB0308FFF729FE7388013B9BB2534521
:1018F00008F5805800F5805B06D930465946FFF759
:1019000087FE0646002835D0354600275D4519D2AA
:101910002A8807EB8202904509D986EA050313EA73
:10192000090F04D16B88013B9BB2534502D957B9CB
:10193000012318E028460192FFF750FE019A054660
:101940001746E3E7E7B13A4631466069FFF7C2FE62
:1019500090B963691F44676115B97846F9F782FC4D
:101960002561002335B1698847F6FF72914201D0A5
:10197000002BB0D0012000E0002003B0BDE8F08FC4
:101980000123EFE7E43E002000F0FFFF1FB50A4B04
:101990000222DB688DF800200193084A4FF480533F
:1019A00069460120029300F07DFDB0FA80F0400905
:1019B00005B05DF804FB00BFE43E0020003F0020BE
:1019C00010B54FF010235A69013225D05A691AB365
:1019D0005B69A3F58053A3F58053174A1968136018
:1019E0004B1E033325D8C1F30B0313BB134A144812
:1019F000D16001211170134913765376936051F829
:101A0000234084420ED1536001200F4900F03AFD7B
:101A1000FFF7ACFD012010BD4FF0805251691369F2
:101A20004B43D8E701330A2BE9D17846F9F71AFC82
:101A3000EAE70020EFE700BF043F0020E43E00207B
:101A40008D190300C8C103003916030010B5044600
:101A500010B97846F9F706FC094B187860B1E068D0
:101A6000D9684379A0EB0333994206D3FFF765FDAC
:101A700081428CBF0020012010BD0020FCE700BF88
:101A8000E43E0020024B1878003018BF0120704758
:101A9000E43E002038B50E4C2378054613B1784655
:101AA000F9F7E0FB2B78032B02D07846F9F7DAFB45
:101AB000EB68E360012000230649A560636023769C
:101AC0002070637600F0DEFCBDE83840FFF74EBDC5
:101AD000E43E002039160300014B1868704700BF30
:101AE000043F002010B5044610B97846F9F7BAFB58
:101AF00063681BB123680BB1A36813B97846F9F783
:101B0000B1FBA3685A1E1A4202D07846F9F7AAFB25
:101B10000023C4E9033310BD70B50E460446F0B18E
:101B20008368F3B1EFF3108572B6D0E903319942BF
:101B300003D105B962B605250FE04EB18368013BBC
:101B40000B40D0E90012304602FB031108F003FFFE
:101B500023690133236135B962B6284670BD0E256D
:101B6000FBE70925F9E70025F7E70000024AD2F86C
:101B70000034002BFBD0704700E00140C0F30B03A2
:101B800010B5E3B9E9B1104C0223C4F80435FFF7EE
:101B9000EDFF01F6FF7121F47F6121F00F01014497
:101BA000884205D10020C4F80405FFF7DFFF10BD0F
:101BB000C4F80805FFF7DAFF00F58050F0E71020C1
:101BC000F5E70920F3E700BF00E0014070B540EA07
:101BD000010414F003041BD1E2B195071AD10E4E93
:101BE0000123C6F804359508FFF7C0FFAC4205D1C4
:101BF0000020C6F80405FFF7B9FF70BD51F8243086
:101C00005A1C03D040F82430FFF7B0FF0134EDE751
:101C10001020F2E70920F0E700E001404388012BA3
:101C200005D0022B01D10430086001207047043038
:101C30004860FAE708B508220221094803F069FA6A
:101C400020B90848BDE8084003F0E0BB064A9168A7
:101C50004160127B0272BDE8084003F089BA00BF00
:101C6000143F0020242E0020603F002010B50446C1
:101C700010B97846F9F7F6FA2346BDE81040184740
:101C800000B50A4B1A7B9B688DB0012A08BF03F18F
:101C9000FF3303900CA80493022300F82C3D8DF829
:101CA0000820FFF743FA0DB05DF804FB603F002009
:101CB00038B50E4D2B78C3B90D4B5C6804F5005454
:101CC000B4F1807F11D8042201210A4803F021FADF
:101CD00020B90948BDE8384003F098BB01234460AF
:101CE0002B70BDE8384003F043BA38BD743F002084
:101CF000603F0020143F0020142E002010B5012169
:101D00000C4803F04BFA80B902210A4803F046FA66
:101D1000044650B901461422074808F027FE074B35
:101D20001C70BDE81040FFF7C3BF054803F06EFB11
:101D3000F7E700BF143F0020603F0020383F00203D
:101D4000442E002030B50D468DB07AB94B88012B5A
:101D50000AD1124C227812B97846F9F783FA104B5F
:101D60006A685A60002323700DB030BD032A02D088
:101D70007846F9F777FA2C22002101A808F0F6FD41
:101D800011238DF80430074B0395DA681B6905921F
:101D900001A80693FFF7CAF9E6E700BF743F0020E9
:101DA000603F0020143F002013B501F0FBFC002130
:101DB0006B46124A1248134CCDE9001103F0FCF8AF
:101DC000009B0BB1019A6AB900232360A3602373BF
:101DD000FFF730FF23686360FFF76AFF01F022FD21
:101DE00002B010BD1968A16019792173934203D91B
:101DF0001B790BB92360EDE71368FBE71D1C03009B
:101E0000143F0020603F002008B503F04DFBA0F513
:101E1000805008BD7FB500211822684608F0A6FD55
:101E200000230293FFF7F0FF01230090019369461E
:101E3000054B0648039303F0D9F910B1044803F0A9
:101E4000E5FA07B05DF804FB451D0300143F0020D0
:101E5000342E002008B5142200210A4808F086FD1F
:101E600000F0F6FF084B094A09499A6000225860C1
:101E7000C3E903125A61074B1A70BDE80840FFF727
:101E8000C9BF00BF603F00203C3F0020851F03000A
:101E900000879303753F002010B5074C23784BB99A
:101EA0000648074B036000F073FD064800F06EFF24
:101EB0000123237010BD00BF103F0020543F0020BD
:101EC000E91F03003C3F002010B501F06BFC104AF5
:101ED000117B1346C9B9917BB9B9118A41F282626B
:101EE000914202D80B4A12787AB101221A739A6889
:101EF000002401321C829A60FFF79CFE2046FFF707
:101F0000BFFE01F08FFC204610BD0824F9E700BF9A
:101F1000603F0020753F002010B501F043FC174AD8
:101F2000547B1346BCB1917B21BB118A41F2826282
:101F3000914202D8124A1278F2B11A7B00205873EB
:101F40002AB1012A0BD07846F9F78CF903E0FFF7A4
:101F5000BBFF0028F7D101F065FC204610BDC3E9A6
:101F6000000018731882FFF78BFEFFF763FEFFF780
:101F70009FFEF0E70024EEE71446ECE7603F002008
:101F8000753F002010B5164C237B2BB1012B12D0CE
:101F90007846F9F767F918E0228A41F282639A429B
:101FA00002D8104B1B7883B1FFF7B6FF638A0BB1E1
:101FB000013B638210BD228A41F282618A4208D8C5
:101FC000084B1B780BB1FFF7A7FF238A013323824D
:101FD000ECE742F2B0118A42F5D96373E4E700BF3F
:101FE000603F0020753F002010B50378042B0ED110
:101FF00043681B785BB11D4B4269197B047E71BB42
:10200000598A01BB012C996802D08A4203D810BDBD
:102010004C1CA24219D92A318A42F8D8997B00294E
:10202000F5D184689A60124A1A61C3E900115973A4
:102030001973FFF7FFFDFFF73BFE04F11000BDE849
:102040001040FFF71DBE012CE1D1996801318A4291
:10205000DDD101225A73BDE81040FFF75DBF0129B1
:10206000D5D1012CD3D09968F1E700BF603F0020A3
:102070000000062D38B5164CD4E900239A420546D7
:102080001FD2207B134B1449012808BF0B469A42EC
:1020900007D263682268403B9A4208D3FFF708FEE4
:1020A00005E001236373FFF737FF0028F1D0EFF35A
:1020B000108072B623685A1C22602B6028B962B661
:1020C00038BDFFF7F5FD0F20FAE70020F8E700BF65
:1020D000603F0020FFFF7F0000E0FF0010B50C4ACA
:1020E0001368144628B101200A4903448873136019
:1020F00010BD13B97846F9F7B5F82368013B2360A2
:10210000002BF5D1034A9373BDE81040FFF704BFDD
:102110000C3F0020603F002000B58DB00323ADF8D8
:1021200008000CA88DF8102000F82C3D0391FEF754
:10213000FDFF0DB05DF804FB014B9868704700BFD0
:10214000603F0020034B98681B7B012B08BF00F108
:10215000FF307047603F0020044B9B685840C20727
:1021600048BF03F1FF331846704700BF603F0020AF
:10217000014B187B704700BF603F002038B50A4B09
:102180001C787CB9094D01221A702973A860FFF7E9
:1021900051FD2046FFF774FDC5E90044FFF788FDB7
:1021A000204638BD0820FCE7383F0020603F002073
:1021B0002DE9F8431D4CDFF87890002602212046D7
:1021C00002F02CFA5FFA86F805460027ADB967B130
:1021D0002946204602F089FA082806D154F8043C22
:1021E0001BB12A464946404698470136032E04F162
:1021F000BC04E3D10120BDE8F88354F8043C34F872
:102200000C2C13B129464046984734F80C3C022167
:102210000133204624F80C3C02F01CFA022120462F
:1022200002F0FCF901370546D0E700BF8C3F0020E3
:10223000F0C1030038B5012104460C3002F0EEF97C
:10224000054620B3164BC4F89C300023C4F8A030D8
:1022500003786268012B07D0022B1AD07846F9F771
:1022600001F84FF4FA7306E081688B1A9908292364
:102270004B4303F5FA730B4A934294BFC4F8A8305A
:10228000C4F8A8200123C4F8AC4084F8B83028462C
:1022900038BD83689B1A1A0B034B5343E9E700BF11
:1022A000CD22030060850100084C010010B50446F2
:1022B000FFF7C0FF48B104F19C0005F05BFD20B1C1
:1022C0007846BDE81040F8F7CDBF10BD2DE9F74FB7
:1022D0004A4B1B7880460D463BB105F081FD00233B
:1022E00085F8B83003B0BDE8F08F01F10C09D1F8E2
:1022F000A8704846012102F091F9064610B97846C7
:10230000F8F7B0FFDFF8FCA0A7F5FA7700244FF04C
:10231000290B3378012BA7EB040406D0022B3BD00A
:102320007846F8F79FFF00231FE06B68B268B4FBA4
:10233000FBF4D21AA400944228BF144624B9019396
:102340007846F8F78FFF019BF168706823F003036C
:10235000224619441844FFF739FC10B17846F8F7C3
:1023600081FF6B681C446C60B3686A689A422AD12A
:1023700005F036FD4846012102F06CF900236B6040
:1023800085F8B8301E4B186801F09AFA284603B059
:10239000BDE8F04FFFF78ABF6B68B268B4FBFAF490
:1023A000D21A2403944228BF144624B901937846D4
:1023B000F8F758FF019B706823F003032146184487
:1023C000FFF7DCFBC9E701F0E1F83378B0EB080474
:1023D00048BFA8EB0004012B0DD0022B06D15346B9
:1023E0002344BB4295D905F0FBFCCFE77846F8F7CC
:1023F00039FF0023F4E72923F2E700BF7C3F0020E8
:10240000783F0020084C010070B51B481B4C01F0C0
:1024100039FA1B4B186004F11C0341F2030608252E
:10242000636104F10C0004F118032361A681A57314
:1024300002F037F904F1D803C4F8D03004F1C80031
:1024400004F1D403C4F8CC30A4F8C86084F8CA50AE
:1024500002F027F904F5CA73C4F88C3104F5C87387
:10246000A4F8846184F88651C4F8883104F5C270F8
:10247000BDE8704002F015B9B1210300803F002093
:10248000783F0020022838B504460D4602D9784628
:10249000F8F7E8FE024BBC2202FB0434A56038BD0D
:1024A000803F002002282DE9F84F07460C4692464F
:1024B00002D97846F8F7D6FE14B97846F8F7D2FE76
:1024C0002378012B12D16368990702D07846F8F778
:1024D000C9FEE3689A0702D07846F8F7C3FEA368FE
:1024E0009B0711D07846F8F7BDFE0DE0022B0DD109
:1024F0006368C3F30B0313B17846F8F7B3FEA36820
:10250000C3F30B03002BEDD1A36813B97846F8F79A
:10251000A9FEEFF3108872B6BC257D43224E05F16B
:102520000C09B1440021484602F078F8834690B384
:102530000021484602F08EF810222146584608F045
:102540000AFABAF1000F03D073195B88AAF80030B9
:10255000BC2303FB07677B8897F8B84001337B8077
:1025600004BB124B1F78BFB97019FFF763FEB8F1B7
:10257000000F0ED162B6444640B105F19C003044D4
:1025800005F0F8FB10B17846F8F76CFE2046BDE880
:10259000F88F3C46F0E70424B8F1000FF6D1A046CE
:1025A0000020E7E70024F7E7803F00207C3F002081
:1025B00070B5EFF3108672B6144C236818BB13B9CC
:1025C0007846F8F74FFE2368013B236093B9104D1E
:1025D00095F8B83013B92846FFF768FE95F87431BE
:1025E00013B90C48FFF762FE95F8303213B90A4868
:1025F000FFF75CFE2368094A003318BF01231370FC
:1026000006B962B670BD01332360F3E7B441002020
:10261000803F00203C400020F84000207C3F00200C
:1026200010B1800B014B185C704700BF00C2030063
:1026300012DF704713B5137863B1022B0CBF072369
:10264000002310F8011C292962D005D8162973D05F
:1026500002B010BD537DF4E72A2927D02B29F7D1EA
:10266000022BF5D110F8021C0139C9B203F046F96A
:1026700004460028ECD0374B1B685B06E8D5364B88
:102680001B68012BE4DD2F21344808F05FFA002895
:1026900049D02F21314808F059FA411C304B314ABA
:1026A000D3F8043500920194A62224E0022B01D035
:1026B000072BCDD110F8021C013901F061FC044652
:1026C0000028C5D0234B1B685A06C1D5224B1B6876
:1026D000012BBDDD2F21214808F038FA78B12F21D8
:1026E0001E4808F033FA411C1D4B1F4AD3F804352D
:1026F000009201949322022002F01EF9A8E75C21C7
:10270000164808F023FA08B15C21E9E71349EBE722
:10271000022B9DD110F8021C0139C9B202B0BDE8EC
:102720001040FCF725BE5C210C4808F00FFA08B1F8
:102730005C21AFE70949B1E701884FF6E4639942AC
:1027400086D110F8021C0230033902B0BDE81040F7
:10275000F8F786BC642E0020602E002029C20300FA
:10276000001001406EC2030045C2030070B58AB07C
:1027700005F0F0FF0446002834D000238DF8103017
:1027800006460FCE05AD0FC533682B60627D052A66
:102790000CD9207D00F00F03072B07D004AB063ABD
:1027A00004F11D0100F00F0004F09EFE114B1A68A9
:1027B000AAB104AB0393237DC3F303038DF8043064
:1027C000637D062B89BF063B00238DF8053004F19D
:1027D0001D0398BF8DF80530029301A8904720464D
:1027E00005F0A2FF05F0D0FF80F00100C0B20AB0F2
:1027F00070BD00BFBC410020F7B5354F3A780546A3
:10280000002A5BD100285BD0067A0F2E01D0062E5D
:1028100058D104F035FEE86800284CD0FDF7BEF929
:102820000DF10700FFF704FF0446002840D19DF892
:102830000730012B48D1FDF7DBF900F091FA304663
:1028400000F062FFE87800F017F900F0A3FD05F052
:102850004BFA204806F030F804F0BEFFFFF7D4FD35
:1028600003F0F6FF00F03EFC04F0CAFD04F0EAFBC2
:10287000284601F0DBFAFEF701F803F0B3FBF8F7A6
:10288000EFFB08B1062821D1134804F0FFFD2A20F0
:1028900004F0A0FE2B2004F09DFE292004F09AFEF7
:1028A000162004F097FE0D4B00221A6001233B70A6
:1028B000204603B0F0BDFDF779F9B1E70824F7E74A
:1028C0000E24F5E70724F3E70224F1E70446EFE7D7
:1028D000B84100206D270300542E0020BC41002089
:1028E00037B5244D2A78012A05D002D3033A012AAC
:1028F00038D9082428E005F0F9FE01F0A9FAFDF71F
:10290000FFFFF8F7ADFB044650B3062828D01A4B5A
:102910001B685B0418D5194B1B68012B14DD2F2194
:10292000174808F013F990B12F21154808F00EF957
:10293000411C144B144AD3F804350092019440F220
:10294000A712022001F0F8FF204603B030BD5C2141
:102950000B4808F0FBF808B15C21E6E70849E8E716
:1029600000F0FEFE05F0F8F904460028ECD1022341
:102970002B70E9E7B8410020642E0020602E002073
:1029800029C203000010014004C20300FDF7BABFD2
:10299000FEF7F6BB08B500F0CDFC002008BD000036
:1029A000014B1860704700BFBC4100207047000019
:1029B000044B1A680132B2F1704F08BF01221A604D
:1029C00018687047C041002010B5044610B9784619
:1029D000F8F748FC0023C4E9003310BD38B50D46B4
:1029E000044610B97846F8F73DFC15B97846F8F773
:1029F00039FC00236B60EFF3108372B6226822B9B2
:102A00002560656003B962B638BD62685560F8E755
:102A100010B5044610B97846F8F724FCEFF310829D
:102A200072B6206808B143682360236803B9636005
:102A300002B962B610BD10B5044610B97846F8F771
:102A400011FC206810BD35DF7047000008B54FF05D
:102A5000FF30FFF7F8FFBFF34F8F0549054BCA68FA
:102A600002F4E0621343CB60BFF34F8F00BFFDE77A
:102A700000ED00E00400FA0507289ABF024B33F886
:102A80001000FA20704700BF9AC20300024B58683A
:102A9000103840B2704700BF00ED00E0084A202324
:102AA00090FBF3F352F82330424202F01F0200F091
:102AB0001F0058BF504223FA00F000F00100704799
:102AC00000E100E046DF704730B501F1100310323D
:102AD000103013F8014D12F8015D8B4284EA0504B1
:102AE00000F8014DF5D130BD2DE9F047144690B006
:102AF00002F10F05102288462D1101460DEB020050
:102B0000994604F00F0407F026FF002D51D0002C49
:102B10004FD10126B2461022002108A807F026FF57
:102B200004A8FFF7CFFF01220DF13F0110AB13F90D
:102B3000100D1F4693F800C04FEA4C0C5FFA8CFC56
:102B400083F800C013F801EF4CEADE1C994203F849
:102B500001CCEFD19DF83F305B00DBB20028B8BF5D
:102B600083F087038DF83F30531C9A454FF00202E3
:102B7000DCD2013D08EB0511FEB10CAA6846FFF757
:102B8000A3FF102200210CA807F0F0FE0024AC42A5
:102B900025DB3A46694608A8FFF796FF04A8FFF729
:102BA00091FF10223946484607F0D5FE10B0BDE827
:102BB000F08700264FF0020AADE72246684607F08C
:102BC000CAFE10AB2344802203F8402C0134102CA1
:102BD00002D10CAA6946D1E70DF80460F6E708EBCC
:102BE0000412394608A8FFF76FFF04A8FFF76AFF31
:102BF0000134CCE738B5124B1A6804462AB11A687A
:102C000045685268AA1A002A0DDA1A6862611C60C7
:102C10009A88013292B29A8012B97846F8F722FB6C
:102C20000123237038BD19684A691AB15068401BE6
:102C3000002802DB62614C61EAE71146F4E700BF5D
:102C4000C841002010B5124B1A68824204461A4649
:102C50000BD142691A609A8892B2511E89B299804A
:102C60008AB97846F8F7FEFA0DE01B685BB159693E
:102C7000A1420BD16169596193889BB2591E89B2F7
:102C80009180002BEDD00023237010BD0B46EDE7A3
:102C9000C8410020014B186800F012BEC44100205A
:102CA000044B1A6822B11B680349586800F05AB9EE
:102CB00000F0AEB9C8410020952C03002DE9F04189
:102CC00000F0C6F8254E054637464FF00008336839
:102CD00023B133685B685B1B642B06D400F0B8F843
:102CE000FFF7DEFF0120BDE8F08134682378012B77
:102CF00002D07846F8F7B6FA63693B60BB88C4F83F
:102D000014809BB25A1E92B2BA8013B97846F8F773
:102D1000A9FAA36813B97846F8F7A4FA022328465B
:102D200023702169A368984700F092F82378022B5A
:102D30000546CCD1E2680AB92270C8E763686FF033
:102D40006301891A1344091AD018C14204D463607C
:102D50002046FFF74FFFBAE70346F5E7C8410020DA
:102D600008B508220021064807F000FE054800F0DB
:102D700089FD054B1860BDE8084000F05CB800BF55
:102D8000C8410020BD2C0300C441002010B50446FA
:102D900000F06EFE10B97846F8F764FA14B9784678
:102DA000F8F760FAA36813B97846F8F75BFA237866
:102DB000012B02D17846F8F755FA002363612046CB
:102DC000FFF718FF00F044F8BDE81040FFF768BFB8
:102DD00010B5044600F04CFE10B97846F8F742FAF8
:102DE00014B97846F8F73EFA2046FFF72BFF002388
:102DF000636100F02DF8BDE81040FFF751BF38B512
:102E000004460D4600F034FE10B97846F8F72AFA69
:102E100014B97846F8F726FA2046FFF713FF002387
:102E2000636120466560FFF7E5FE00F011F8BDE83C
:102E30003840FFF735BF08B506F004F938B906F099
:102E400041F820B17846BDE80840F8F70BBA08BD54
:102E500010B5EFF3108072B60C4A0D4B1968D2F81A
:102E60000435D2F80441012C04BFD2F804350131F5
:102E700000B962B6074843EA01614FF4804200237B
:102E8000E0FB0123D00B40EA434010BD001001409D
:102E9000D041002040420F0010B50A4B0A4C4FF4BD
:102EA0000032C3F84823C3F80823226812B97846D1
:102EB000F8F7D8F92468FFF7CBFF2346BDE81040A8
:102EC000184700BF00100140DC41002010B5EFF3AF
:102ED000108072B61E4B1F490022C3F804210A68F5
:102EE00001320A6000B962B61B4A116809B3116861
:102EF000013911601268E2B9184AD3F80405116863
:102F0000884217D2EFF3108072B6D3F80415146814
:102F10000131A1422ABFD3F8042512680232C3F856
:102F2000442500B962B64FF40032C3F84423C3F815
:102F3000042310BD0A4C226812B97846F8F792F9BA
:102F40002468FFF785FF2346BDE81040184700BFFF
:102F500000100140D0410020D4410020D841002081
:102F6000DC41002037B50023044601930D4611B91A
:102F70007846F8F777F9204B1D60FFF769FF031BD0
:102F8000002BB8BF241A1D481D4AA8BF00244FF4C7
:102F9000004500210023E5FB040107F005FBEFF3EA
:102FA0001083019372B6174A174CD2F804350228E1
:102FB000C3F1FF1101F57F4138BF0220814213495F
:102FC00010D30344C2F844354FF40033C2F84433FD
:102FD000C2F80433002323600B60019B03B962B67F
:102FE00003B030BD03F17F43013303441A0E0132B5
:102FF000226023F07F43EFE7DC41002020A107009F
:1030000040420F0000100140D4410020D841002070
:10301000074B4FF40032C3F84823C3F80823054A8E
:1030200000231360044A1360044A1360704700BF12
:1030300000100140D4410020D8410020DC41002094
:1030400030DF704731DF704710B5D0E90023846866
:10305000C168A2EB731283EAF43303600C44134497
:10306000114444608160C360184610BD37B50C46FA
:10307000054610B97846F8F7F5F800239C4201D8C8
:1030800003B030BD0DF10700FFF7DAFF9DF8071020
:103090000029F7D0E21A914288BF8DF80720E8187E
:1030A0009DF80710FFF7CEFF9DF807201344E5E7D2
:1030B00037B5044602A8002340F8043D0421FFF779
:1030C000D5FF074B2360019BE360C4E9013314255E
:1030D0002046FFF7B9FF013DFAD103B030BD00BF74
:1030E000ED5EEAF1704748DF704749DF70474ADF1D
:1030F00070470000064A032313741168054B53619F
:1031000040F6D862914288BF43F2B0629A6070473D
:103110000C4200202C420020054B1B68A0F17802D5
:1031200028335843034BB0FBF3F0101A704700BF2D
:103130002842002040420F0038B50E4A0E4C0123B1
:1031400063711368002501331360257400F078FA69
:1031500004F0BCFE2068FFF7DFFF084A014628465E
:1031600000F0E2F920B17846BDE83840F8F77AB8C7
:1031700038BD00BF404200200C420020F530030063
:1031800010B41F4B5A6928B11968DC681144013426
:10319000DC601960996801240131E24001291C7446
:1031A00099605A611C680ED002291AD05B69154AD1
:1031B0001C44944203D840F6D76293421CD85DF871
:1031C000044BFFF7B9BFB2F5FA7F03D130B9002243
:1031D0005A61EBE740F6D8618A42E7D840F6D862F8
:1031E000F6E7DA68022A02D1064A121BF0E7012A42
:1031F000DCD10028EBD0D9E75DF8044B704700BF65
:103200000C4200208096980070B5424C424D01233C
:1032100023712B781BB1414B1E78002E5BD000230D
:103220002374042853D8DFE800F0034D4A484400D3
:103230003B4DA179AA68C4E90233236822600029C2
:1032400034D0012121743749002B08BF0B46991A4D
:10325000B1F57A7F26D39A4224D8616143F2B060F7
:1032600043F69822C5E9020201236B71A371237C06
:10327000023B012B0DD8637943B104F043FE206873
:10328000FFF74AFF00F00EFA00236371234B002280
:103290001A70237C2448022B04BF012323760023C9
:1032A000237170BD4FF47A736361D7E7FFF744FF72
:1032B000D4E70120FFF764FFD9E70020FAE704F024
:1032C000B3FDD4E700F082F904F0E6FDCFE77846DD
:1032D000F7F7C8FFCBE700F059F92B782060022BF5
:1032E0000FD0032B06D0012B10D10223237400230F
:1032F0002B70BCE70A4B0D490D4A5E71C3E90212FF
:10330000A67103232374064B6361F0E77846F7F751
:10331000A9FFECE70C4200203D4200203C42002087
:103320002C420020809698001C420020A0860100BC
:10333000FF1FA107043808B5042825D8DFE800F0EE
:1033400016220A030F00114B1B7E012B1CD1FFF725
:10335000CCFEC8B17846BDE80840F7F783BF0B4BF9
:1033600000221A76BDE8084004F004BE0848012394
:10337000437143F6982240F6D863C0E90232FFF762
:10338000B6FEE6E70248FAE708BD00BF0C4200209F
:103390002C4200200D4A4FF480710023918043F2AB
:1033A000B06C43F698211370C2E902C1084A10605C
:1033B000084A1370084A1370084A1360084A1371C8
:1033C0005371136013760123937170472C420020D0
:1033D000284200203C4200203D4200204042002084
:1033E0000C42002010B50E4C227E012A0CD004D3D2
:1033F000022A0CBF1120002010BD0A48FFF773FEFF
:1034000010B17846F7F72EFF0748FFF770FE10B1AE
:103410007846F7F727FF022323760020ECE700BF6A
:103420000C420020093203002C420020074B1B7C79
:10343000023B012B07D9064B1878013802288CBFB4
:103440000020012070470120704700BF0C4200207F
:103450003D420020014B1868704700BF0C4200201D
:1034600010B5074B587948B11868FFF755FE044668
:1034700000F08CF80346201A48BF181B10BD00BF8F
:103480000C420020014B1879704700BF0C4200200D
:10349000EFF3108372B6054A527922B1044A4FF411
:1034A0008071C2F8001103B962B670470C42002067
:1034B00000E100E0044B1B7E022B04D1034B0122F0
:1034C0001A70FFF7E5BF70470C4200203D42002014
:1034D000064B1B7E022B07D10128054B0CBF032294
:1034E00002221A70FFF7D4BF704700BF0C420020C1
:1034F0003D420020064B19781A4631B128B90549DA
:10350000097811B11870FFF7C3BF1070704700BF82
:103510003C4200203D420020024B1B6803B962B6CA
:10352000704700BF54420020022810B522D8EFF3A4
:103530001084114B1C6072B6104B43F82020104BC6
:10354000002243F820200F4B1B787BB1830003F14E
:10355000804303F500431030C3F84021012202FAF2
:1035600000F0094AC2F80403C3F84015FFF7D4FF7E
:10357000002010BD0720FCE75442002044420020F8
:1035800060420020504200200080004008B5EFF368
:1035900010820A4B1A6072B6094B1B7853B1094B63
:1035A0000022C3F84C210122DA64D3F84C05FFF75E
:1035B000B3FF08BD044B1868F9E700BF5442002070
:1035C0005042002000800040584200202DE9F84F72
:1035D000DFF85880DFF858900024A70007F18045F5
:1035E00005F50045D5F84031D3B1D8F8043304F1DE
:1035F000100201269640334212D057F809B0BBF1B1
:10360000000F02D17846F7F72DFE4FF0000A49F877
:1036100007A0C8F80863FFF7B9FFD847C5F840A16D
:103620000134032CD9D1BDE8F88F00BF00800040E1
:1036300044420020014B1B68184470475C42002044
:1036400008B5134B0022C3F84025C3F84021D3F836
:103650004011C3F84425C3F84421D3F84411C3F8FA
:103660004825C3F84821D3F848310A4B1B681BB9D9
:10367000094B4FF480721A60084B01221A70FFF751
:10368000E7FB0146FFF782FF054B081A186008BDEB
:10369000008000405442002000E100E05042002041
:1036A0005C4200200B4A0C49002313605360936076
:1036B0000A4A0B6010600A4A4B6013708B60094B1A
:1036C0004FF0FF32C3F80823074B4FF48072C3F862
:1036D0008021704760420020444200205842002070
:1036E000504200200080004000E100E0044B1B78C5
:1036F0000F2B1EBF034B4FF48022C3F800217047ED
:10370000B443002000E100E010B5104C104B2070D5
:10371000104803601023C0E90133FEF7E3F90E48B7
:10372000FFF752F923780F2B0AD0072B09D8EC2288
:103730001A41D20705D55B01084ADBB282F8123381
:1037400010BD7846BDE81040F7F78CBDB4430020AB
:10375000804200206C420020B843002000E100E0DD
:103760000D4B1B780F2B0DD00C4991F812335A09D1
:10377000EC231341DB0706D5094B9A6832B94FF4A5
:1037800080230B6070477846F7F76CBD1A6842F4E7
:1037900080221A60704700BFB443002000E100E0BF
:1037A000A0530020F8B5EFF3108772B617480268EF
:1037B000511C016002BB164B1B780F2B21D0EFF37D
:1037C000108C72B6134A144C95680123E5B99360C6
:1037D000124B134ED3F8801031401160C3F8806053
:1037E000D3F8841051604FF0FF32C3F88420257065
:1037F000BCF1000F00D162B6036813B97846F7F741
:1038000031FD07B962B6F8BD2370F1E780430020AF
:10381000B4430020A0530020B543002000E100E0A5
:10382000FC06FFBD38B5EFF3108572B6104C236867
:1038300013B97846F7F716FD2368013B2360A3B957
:103840000C4B1B780F2B10D00B4B9A686AB10B4AAC
:10385000127852B9EFF3108072B609491C680C60F7
:103860005C684C609A6000B962B605B962B638BD52
:1038700080430020B4430020A0530020B543002023
:1038800000E100E038B5054610B97846F7F7EAFCE4
:10389000094C2368092B02D97846F7F7E3FCEFF3CC
:1038A000108372B62068421C2260044A42F82050FD
:1038B00003B962B638BD00BF8443002088430020AE
:1038C00010B50E4B1B688342044602D87846F7F7C2
:1038D000C9FCEFF3108072B6094A6109012304F0B4
:1038E0001F0403FA04F452F82130234342F8213034
:1038F000FFF7FCFE00B962B610BD00BF8443002094
:10390000B043002070B50D461646044610B97846FF
:10391000F7F7A8FC15B97846F7F7A4FCEFF3108386
:1039200072B60022C4E902562274246003B962B65A
:1039300070BD000070B5044610B97846F7F792FCE8
:10394000A36813B97846F7F78DFCEFF3108672B6CB
:10395000237C03F0FF055BB901230648237421464D
:10396000FFF73CF8FFF7C2FE284606B962B670BD05
:103970001120FAE7B843002010B5044610B9784684
:10398000F7F770FC207C10BD2DE9FF47314E3378EE
:1039900013B17846F7F766FC0125DFF8C8802E4F93
:1039A000DFF8C49035700024D8F80030A34212D854
:1039B0002A48DFF8A880FFF72BF8002750BB284CD7
:1039C00069462046FEF7A8F890B3002328463370D6
:1039D00004B0BDE8F087610904F01F0201239340A1
:1039E00057F82120134213D0EFF3108072B657F826
:1039F000212022EA030347F8213000B962B659F8C2
:103A000024309847824618B92046FFF759FF55469B
:103A10000134C9E70468237C13B97846F7F722FC20
:103A2000D4E90230984727744046FEF7F1FFC5E716
:103A30009DF8003043B1012BC2D1019B002BBFD0B8
:103A4000DDE902019847BBE7019B002BB8D0029843
:103A50009847B5E7C0430020B0430020B84300209A
:103A60006C4200208443002088430020FFF78CBF75
:103A700007B5FFF70BF88DF803009DF803301749E1
:103A8000F02B0DD10B780F2B25D01220FFF706F865
:103A900080F00100C0B200F0010003B05DF804FB4B
:103AA0009DF803305BB2002BADBF03F1604303F020
:103AB0000F030B4A03F56143B4BFD35C93F80033A3
:103AC0005B090193019A0B78934204D0019A9342C7
:103AD000DBD30020DFE70120DDE700BFB443002097
:103AE00014ED00E046DF704730B58DB00D4614464A
:103AF00001461022684606F02EFF102229460DEBE3
:103B0000020006F028FF6846FFF7ECFF102208A924
:103B1000204606F020FF0DB030BDFEF7E5BF01F0F6
:103B200085BD01F0ADBD30B4032956D8DFE801F002
:103B30000227275000241C70817A5A7861F306020C
:103B40005A70C17AD2B261F3C7125A70C1680D04BB
:103B5000C1F3074205F47F0501F47F412A430A437C
:103B6000C2F307219A70120C1A71D9700189DC71A5
:103B70000A0A42EA0122A3F805201C7222E0197009
:103B8000597801F0800162F3C7115970C1680C04C3
:103B9000C1F3074204F47F0401F47F4122430A4346
:103BA0009A70C2F30721120C1A71D97001890A0A9E
:103BB00042EA0122A3F8052041880A0A42EA0122CA
:103BC000A3F80720026912BAC3F8092030BC704775
:103BD000032200241A705C70B8E7784630BCF7F70F
:103BE00041BB7FB50E461546044600B112B9784672
:103BF000F7F738FB10220021684606F0B7FE2B4687
:103C0000324621466846FEF76FFF04B070BD2DE9CD
:103C1000FF410B9D884616461C46074610B10AB167
:103C200003B115B97846F7F71DFB6B464246394696
:103C30003046FEF759FF2B469DF82820214668465E
:103C4000FEF752FF04B0BDE8F0810000F0B50D466C
:103C50008FB014461F46064608B101B113B9784625
:103C6000F7F700FB1CB97846F7F7FCFA01E0102CD7
:103C7000F9D8254B1868009005AA68460421FFF77B
:103C8000B0FF01AB314605A81022FEF72DFF2246FA
:103C9000294605A806F05FFE0EAB2344012203F877
:103CA000242C05ABA218194601A892B2FEF71CFFFE
:103CB0009DF823303E4603F07F0306F8013B224681
:103CC000294609A806F047FE04F110050EAB1D4475
:103CD0001134A4B2022305F8243C2246334605A938
:103CE00001A8FEF701FF3146102205A806F033FEB9
:103CF000032305F8243C224607F1110305A901A876
:103D0000FEF7F2FE0FB0F0BDAAC2030070B50D467B
:103D100088B0064600B111B97846F7F7A3FA114CFE
:103D200004212068019004AA0DEB0100FFF759FF60
:103D300004AB314618461022FEF7D6FE234602A9F0
:103D400053F8040F02901B798DF80C3004AB184621
:103D50000522FEF7C9FE082206A9284606F0FBFD4B
:103D600008B070BDAEC2030070B50D4686B0064601
:103D700000B111B97846F7F775FA0F4C54F8040BF7
:103D8000009002AA68460421FFF72BFF02AB3146E0
:103D900018461022FEF7A8FE2068019002AB04220C
:103DA00018460DEB0201FEF79FFE9DF8173003F059
:103DB0003F032B7006B070BDB7C2030030B5026878
:103DC000037CD17A87B000298DF8043083680CBF5A
:103DD0000421082109330B44CDE9023243680493DE
:103DE0000446C3680593694601A801F061FED0B19D
:103DF000237C012B0ED02568FEF7A4F928612068EA
:103E00000C30FEF737F9054620B101F0CDFE28460B
:103E100007B030BD2168009800F08DFB009B09338E
:103E200063610025F3E70425F1E7000008B5074BBF
:103E300040B91860FEF70EF8FDF7B6FFBDE8084080
:103E400002F0EABA42681A60F4E700BFC4430020F7
:103E500008B5FEF721F8BDE8084002F01BBB10B51D
:103E6000044610B97846F7F7FDF9236813B9784688
:103E7000F7F7F8F923685B6913B97846F7F7F2F9B1
:103E8000237C012B02D97846F7F7ECF9E36813B9E4
:103E90007846F7F7E7F92046BDE81040FFF78EBFF8
:103EA00070B50446C6B010B97846F7F7DBF9636918
:103EB00013B97846F7F7D6F9236813B97846F7F7B8
:103EC000D1F923685B6913B97846F7F7CBF96069D4
:103ED00000F08EFB234B1B689B0706462FD5224B19
:103EE0001B68042B2BDD214B05AD19680023F25C08
:103EF000100902F00F02085C05F81300885C05EB5E
:103F0000430201331D2B5070F1D100232F2118489B
:103F100085F83A3006F01AFED8B12F21144806F081
:103F200015FE411C134B144AD3F804350192134A71
:103F3000009202954FF49472052000F0FDFC0023DE
:103F40003246A168206800F0B7FA01F007FE46B0DB
:103F500070BD5C21064806F0F9FD08B15C21DDE783
:103F60000349DFE7642E0020602E0020682E002029
:103F70000AC303000010014025C3030001B403007D
:103F80002DE9F0470F46D4B091460546002800F0D1
:103F9000368100F02FFB0DF12C089A4E421B29466A
:103FA000404606F0D8FC336899072AD5964B1B6823
:103FB000042B26DD954B802F3846196828BF8020BA
:103FC000002313AC834240F0B18000222F2190489F
:103FD00004F8132006F0BAFD002800F0B8802F2165
:103FE0008B4806F0B3FD411C8A4B8B4AD3F804354D
:103FF00001928A4A0092029440F24D12052000F08C
:104000009BFC002305AC00932A46434639462046D4
:1040100000F008FA8246002840F0C3802378002B85
:1040200000F0BF80E268B2F1807F80F0BA80E27A6F
:1040300012B1022B00F0B58094F90A30002BC0F2C7
:10404000B080336813F0020F13AD28D06E4B1B689D
:10405000042B24DD6D4B802F3846196828BF802043
:10406000002383427CD100222F21694805F81320C8
:1040700006F06CFD002800F085802F21644806F0D2
:1040800065FD411C634B664AD3F804350192634ACF
:10409000009202954FF4AB72052000F04DFC63696D
:1040A00013B97846F7F7DEF83946204600F098FA5B
:1040B000C7B24B46224639460DF13500FCF74EFD9E
:1040C000E16882462089FBF7C3FD29462089F6F77F
:1040D000E7FE002865D1012003F0C2F9002860D076
:1040E000A37A012B5DD92378012B54D04D4BA27AB2
:1040F0001B68002B59D1A37A2C60013BA3724FF0AF
:10410000FF336B60DF23EB6028460123AF602B7425
:10411000FFF754FE00284ED13A460DF1350168698B
:1041200006F019FC2846FFF7BBFE3AE0EA5C4FEACE
:10413000121C02F00F0211F80CC004F813C011F8A1
:1041400002C004EB4302013382F801C03AE75C216C
:104150002F4806F0FBFC08B15C2141E72C4943E7FE
:1041600018F803204FEA121C02F00F0211F80CC0DD
:1041700005F813C011F802C005EB4302013382F8C1
:1041800001C06EE75C21224806F0E0FC08B15C212A
:1041900074E71F4976E729466088F6F781FE002814
:1041A000A4D0504654B0BDE8F08761882089984774
:1041B0000028A0D1F5E733689B07F2D5124B1B68A6
:1041C000012BEEDD2F21124806F0C0FC70B12F212B
:1041D0000F4806F0BBFC411C0E4B134AD3F80435C4
:1041E00000920220A72200F0A7FBDAE75C21084832
:1041F00006F0ACFC08B15C21EAE70549ECE74FF0BA
:104200000E0ACEE7642E0020602E0020682E0020CB
:104210000AC3030000100140BFC2030001B4030041
:10422000CEC20300C4430020DDC2030008B510B1B4
:10423000012801D1032008BD7846F7F713F80020C4
:10424000F9E770B5064688B00D46144600210522F0
:1042500004A806F08BFB336907221BBAA9180DF1DD
:104260001900CDF8153006F076FB70696A461130FA
:1042700004A9FFF739FCAB1D0DF10600E21D13F890
:10428000011910F8014DAB4281EA040102F8011D49
:10429000F5D108B070BD00002DE9F041D4B01E4644
:1042A00000238DF81730ADF83C300E93D31D0C93DE
:1042B000F31D10935A9B43610F460DF118081146E8
:1042C00032460446CDF82C80FFF7BBFF7378DB093C
:1042D000E372737803F07F03A372F378B2781B0262
:1042E00043EA024332791343E3607379B07940EAD9
:1042F00003202081FEF794F9012869D1E27A002A8F
:10430000A7F1090314BF08220422934260D3E16895
:104310002089FBF77FFC0546002859D1E37A9DF8F8
:104320006C01002B14BF08230423073F8DF848308D
:10433000FF1A0C9BBFB2ADF834701F441197FFF702
:1043400075FF434601462A462046FFF7ECFB6369AA
:104350000DF1170101330AA80A93FFF7E2FB9DF85C
:104360001730002B34D0F379307A40EA0320608094
:10437000FEF756F9244B20701B689B0728D5234B6A
:104380001B68032B24DDBDF83420214B109E1968D7
:10439000802A28BF8022284613AC90421DD10023DA
:1043A00004F810302F211B4806F0D0FB10B32F214A
:1043B000184806F0CBFB411C174B184AD3F80435BC
:1043C0000192174A00920294DF22042000F0B4FA0E
:1043D0009DF8170054B0BDE8F081335C1D0903F06F
:1043E0000F034D5D04F81050CD5C04EB4003013029
:1043F0005D70D2E75C21074806F0A8FB08B15C219C
:10440000D6E70449D8E700BF642E0020602E0020C4
:10441000682E00202CC30300001001404AC3030093
:1044200001B403002DE9FF47894615461F469DF854
:1044300030A0064618B112B10BB19A4202D17846AB
:10444000F6F710FFA9F10903142B31D82878C00919
:10445000FDF782FE00233061736195F80080CDE99D
:10446000023308F07F0803AA02A94046F6F702FCCF
:10447000029BB3B1CDE9003A2A463B464946304655
:10448000FFF70AFF044608B100200EE0039B43B18A
:10449000CDE9003A2A463B4649463046FFF7FCFE46
:1044A00040B9029B002BDED1052004B0BDE8F087A7
:1044B0000920FAE72046F8E7F0B50C468FB016461B
:1044C0001F46054610B97846F6F7CCFE16B9784671
:1044D000F6F7C8FE012F02D97846F6F7C3FE384634
:1044E000FFF7A4FE01AF3B46014600222846FFF736
:1044F0001AFBEB7A002B14BF082304238DF8343009
:104500006B69A11C0133CDE9053789B2F31D002287
:10451000ADF8201005A8194407930B93ADF8282097
:1045200009920C91FFF7FBFA324631462846FFF715
:1045300088FE0FB0F0BD38B50D46044610B9784678
:10454000F6F790FE15B97846F6F78CFE2889FEF747
:1045500067F8012802D07846F6F784FE95F90A300C
:10456000002B02DA7846F6F77DFEEB68B3F1807F28
:1045700002D37846F6F776FE6B6913B97846F6F7FC
:1045800071FE2B6903F00102237803F07F0343EAF5
:10459000C21323706A69127823F07F0302F07F024E
:1045A000134323706378EA7A03F07F0343EAC2136C
:1045B000DBB26370AA7A23F07F0302F07F02134319
:1045C0006370EB6823711A0CA2701A0AE2702B89CF
:1045D000A3711A0A62716B8823721A0AE27138BDDC
:1045E000C37A002B14BF082004200939081A704729
:1045F0000938704701307047436849B902788078BC
:104600001A441B78C31A12F8010C1844C0B2704740
:104610005A185B5C12F8010CC01AF7E738B50D4662
:10462000044610B97846F6F71DFE2378AB4202D84F
:104630007846F6F717FE29462046FFF7DDFF40B122
:1046400063686278585DA378013B1840A36802FB59
:10465000003038BD38B50C46054610B97846F6F737
:1046600001FE2B78A34202D87846F6F7FBFD2146DF
:104670002846FFF7C1FF18B16A68135D013313556F
:1046800038BD10B5044610B97846F6F7EBFD0023A7
:10469000194622789A4200D810BD6268D15401337D
:1046A000F7E710B54378044613B97846F6F7DAFD14
:1046B0002378012B02D87846F6F7D4FDA36813B906
:1046C0007846F6F7CFFD636813B97846F6F7CAFD6A
:1046D000A37813B15A1E1A4202D07846F6F7C2FDEB
:1046E0002046BDE81040FFF7CCBF38B50D46044664
:1046F00010B97846F6F7B6FD2378AB4202D8784673
:10470000F6F7B0FD29462046BDE83840FFF774BFF4
:1047100008B520B119B1FFF727FB002008BD0E2016
:10472000FCE713B50B4650B149B102A9002401F8CA
:10473000014D0122FFF78AFA204602B010BD0E207B
:10474000FBE7000030B50C468BB00546E0B1D9B1AF
:104750001031FFF7DBFA0D4B03930D4B18680490F3
:104760009B88ADF8143006AA042103A8FFF739FA94
:10477000062300932846019404AB06AA1021FFF7F4
:1047800046FA00200BB030BD0E20FBE76E6B626B6B
:104790005DC3030030B50C4687B00546F0B1E9B102
:1047A00004210F4B01930DEB010002AAFFF719FA48
:1047B00002AB184610222946FFF7AFF99DF81630D4
:1047C0009DF817201B026FEA424203F47C536FEA04
:1047D000524213432380002007B030BD0E20FBE778
:1047E0007674616438B50D46044600B111B9784657
:1047F000F6F738FDAC421EBF23682B60256038BD3C
:1048000038B50C46054600B111B97846F6F72AFDD1
:104810002B68A34202D17846F6F724FD286840B9F8
:104820002C60206038BDA54202D17846F6F71AFD0B
:1048300028460568002DF6D12146BDE83840FFF72F
:10484000D1BF38B505460C4601B110B97846F6F728
:1048500009FD2B6883B1A34205D123682B6000209A
:10486000206038BD13461A6822B1A242FAD12268EC
:104870001A60F4E7002CFAD00520F2E7F8B50E46EE
:104880001746044608B101B112B97846F6F7EAFCBA
:104890002368B34202D17846F6F7E4FC25685DB997
:1048A000266028463560F8BD2C68A64202D17846BD
:1048B000F6F7D8FC3CB1254631462846B8470028D3
:1048C000F2D00F20EFE728463146FFF78BFF204656
:1048D000E9E7000037B506AC184654F8045B0092CF
:1048E0000B4602460549002004F048FF22462946AF
:1048F000002004F025FE03B030BD00BF64C30300F8
:10490000034B1860034B1960034B1A60704700BFDC
:10491000642E0020602E00206C2E002010B4054C68
:1049200024681CB1A4465DF8044B60475DF8044B55
:10493000704700BF6C2E002030B585B008AC54F82D
:10494000045B0394CDE90054FFF7E8FF05B030BDE8
:10495000037942799B1A00EB03307047431E9BB2E8
:1049600047F6FE62934208D849B14B8858400B88FD
:1049700018420CBF01200020704700207047012022
:104980007047830770B504460E46054602D0784648
:10499000F6F768FC26F003063444A54201D1012055
:1049A00070BD55F8043B0133F7D00020F8E7000054
:1049B000064B984210B5044603D303F58273984220
:1049C00002D97846F6F74EFC201F10BDD4430020D4
:1049D0001FB50124CDE9022101901A4669462046FF
:1049E0008DF80040FDF75EFD04B010BDF8B50C4D2C
:1049F00001460C48FCF753FD6E687EB1002728463F
:104A0000FEF706F8044610B97846F6F72BFC236843
:104A10002760D3E902209047A642F0D1F8BD00BF3D
:104A2000DC440020C843002038B503884A6803F1FD
:104A30008043013B9C001368033323F00303A3422C
:104A40000D4605D009238B606B681C60002038BDC3
:104A500000238B601268011D286805F07CFFF3E7D6
:104A600013B502A9002482B241F8044D0448FCF7B2
:104A700032FC18B90198043002B010BD2046FBE7A3
:104A8000C843002008B5FFF793FFBDE80840014682
:104A900002880148FCF770BCC8430020014B18682D
:104AA000FEF70EBFE444002010B50388044613B996
:104AB0007846F6F7D7FB2088074B04EB800030EAF6
:104AC000030203D06288B2F5FE4F04D11C4004F506
:104AD00080542078204410BD00F0FFFF70B50468BA
:104AE000237805461C4400214FF6FF762868FFF71F
:104AF0002FFF844202D26388B34201D1084670BDC1
:104B00002046FFF7D1FF21460446EFE72DE9F04F9D
:104B1000934FDFF8708287B03E4698F800203B78CC
:104B2000022A14D1032BFDD8DFE813F0040039006A
:104B30001100670106A9002341F8103D8948FCF7E0
:104B40004CFC014638B1884B1B6803B198470120E3
:104B500007B0BDE8F08F029C844B94F80890221DAA
:104B60001A60012399453370D7D86568E868FFF764
:104B7000EFFE6B69C01AAB68C01AB9F1000F01D122
:104B8000218A89008142C8DB6B68002BC5D00323D2
:104B90002B70606888F80030FCF77CFFBDE7734B32
:104BA0001C682379042B00F2D380DFE813F00500A2
:104BB0008A00AD00ED0017012368DD682846FFF785
:104BC000C7FE2B78E2890146E81800F02FFF256820
:104BD000AB68824673B9D5F80C904846FFF7B8FE2B
:104BE00099F80030014647F6FF7209EB030000F028
:104BF0001DFFA8602268A189D2F80890DFF880B173
:104C000029F47F6525F00F0505F58055A5EB09030F
:104C100089008B4233D909EB01052146002331F885
:104C20000C2F48469200FFF7D3FE10B17846F6F7F6
:104C300019FB4F4B4F4904222846FFF7C9FE10B11C
:104C40007846F6F70FFBBAF1000F10D02268BAF8D9
:104C50000010536803EB810353604749444B04221F
:104C60005046FFF7B5FE10B17846F6F7FBFA002381
:104C7000C4F808908BF80030022333704DE7D068F9
:104C80000193FFF765FE8542019B04D101238BF858
:104C900000300323F1E78B4202D12B781D44BCE79F
:104CA0000023042235494846FFF792FE10B17846AA
:104CB000F6F7D8FA95F80090A944A58909EB85057F
:104CC000ABE72368DD682846FFF742FE2B78E289D0
:104CD0000146E81800F0AAFE294D10B902232B70F6
:104CE000D7E72268A0600188536803EB8103536013
:104CF00021491F4B0422FFF76BFE60B37846F6F79D
:104D0000B1FA00232B70B7E72268637BD56805EB07
:104D1000033508212846FFF734FE90B905F1FF3A24
:104D200004F1070904F10F0B1AF8013F19F8012FDC
:104D30009A4204D0FF2B02D07846F6F793FACB457F
:104D4000F2D108220A4BA1182846FFF741FE10B104
:104D50007846F6F787FA0A4B00221A708CE700BFF4
:104D6000D8440020C8430020E8440020F04400203C
:104D7000EE44002094C303008CC3030090C30300DF
:104D8000F4440020EC44002020680C30FFF7A6FE1D
:104D9000054610B97846F6F765FA6B884BB1554B66
:104DA000554904222846FFF713FE10B17846F6F75E
:104DB00059FA2846D4F80090FFF776FEC9F80800A3
:104DC0002168C868FFF7C4FD8B688342C3D22846B8
:104DD000FFF76AFE474B49490422B6E72368D3E947
:104DE000032302211B038DF80810CDE9032302A938
:104DF000404A0120FDF756FBA9E7414C236813B94F
:104E00007846F6F72FFA3F4B246893F80090B9F1F3
:104E1000000F21D12379D4F808A0012B13D00AD395
:104E2000022B1CD023792568042B35D8DFE803F04A
:104E30001F3B433451002146504631F80C2F92005D
:104E400005F07AFD01E0BAF80200B0FA80F04009FE
:104E50000028E7D14FF0030904F10C0AE2E72368C8
:104E6000607BDB680822A11803EB0030E8E7B9F1AA
:104E7000000F0BD1A068FFF717FEA860428847F625
:104E8000FF739A4202D07846F6F7ECF9AB691BB192
:104E90004A465146284698472046FFF789FDFFF7C6
:104EA000A5FD0023E9E6EB69002BF5D04A46E18930
:104EB00028469847F0E72B78012B02D07846F6F782
:104EC000D1F9237B627B013B9A42E5D102232B700F
:104ED000E2E7B9F1000F02D07846F6F7C3F92B7874
:104EE000012B1CBF00232B702B6A002BD4D028462B
:104EF0009847D1E7EE4400208CC3030094C303001D
:104F0000F0440020F4440020064B1B88934207D154
:104F1000054B1A78022A03D103221A70FFF7F6BD57
:104F2000704700BFEE440020D844002008B54FF47D
:104F300082720F490F48FCF750F90F490120FDF725
:104F4000A1FA0E48FEF79EFC0D4B0E4A1860002396
:104F500013700D4A0D481380FDF736FDFCF730FD48
:104F60000B4B10B103221A7008BD0222FBE700BFF1
:104F7000D4430020C8430020094F03000D4B030019
:104F8000E4440020D8440020EE440020DC4400200B
:104F9000EC44002010B504460820FFF761FD04230F
:104FA00040B1237003710460FFF76CFDFFF776FDDD
:104FB000002010BD1846FCE72DE9F04F87B0814670
:104FC00003910192049310B97846F6F74BF901204A
:104FD000FDF7EEFAFCF780FD0024031D0546274689
:104FE0004FF00108029347F6FE6BD9F81010A1426A
:104FF00002D9B8F1010F06D00020FDF7D9FA3846E2
:1050000007B0BDE8F08FD9F80C30286803EB043204
:10501000904202F5805604F1010426D1A14205F523
:10502000805A20D0327816447188013989B25945A6
:1050300035D900F5005230460592FFF735FD059A47
:10504000824210D986420ED24188013989B259452F
:10505000F2D82E79029B42885146981900F0E6FC5E
:10506000002818BF8246029A5646137802EB030ABC
:10507000B245BADAB8F1010FB7D10399BAF8020014
:10508000FFF76CFC30B1019B01371BB1049950460E
:10509000984780465046FFF707FD8246E8E73046CE
:1050A000D7E700007FB5E8B1E2B1DBB14C1EA4B296
:1050B00047F6FE66B44217D80478023C012C15D896
:1050C000CDE901230523ADF8021003934FF6FF74D9
:1050D00001AB074AADF800406946FFF76DFF039842
:1050E00004B070BD0E20FBE70720F9E70820F7E7C2
:1050F000294A030070B50D46044610B97846F6F704
:10510000B1F80023294620461A46BDE87040FFF753
:1051100053BF70B50E461446054610B97846F6F7EB
:10512000A1F8731E9BB247F6FE62934206D947F67A
:10513000FF739E4202D07846F6F794F8802C02D98D
:105140007846F6F78FF82B780BB9002070BD04F184
:105150001000FFF785FC0028F7D00334A4080023D3
:1051600001340371C681848140F80C5BEEE70000D6
:10517000094B984210B5044603D303F58273984255
:1051800002D97846F6F76EF8A4F10C00FFF77AFC26
:10519000BDE81040FFF782BCD443002038B50C4670
:1051A000054610B97846F6F75DF8631E9BB247F6E0
:1051B000FE62934206D947F6FF739C4202D07846BE
:1051C000F6F750F81020FFF74BFC60B10122027196
:1051D0004FF6FF72C48182810560FFF753FCFFF731
:1051E0005DFC002038BD0420FCE700002DE9F843F9
:1051F000002303700B68C3F30B0304460D4613B181
:105200007846F6F72FF86B68FE2B02D97846F6F74A
:1052100029F804F10C07182229463846002605F023
:105220009AFBC4E9016623699E4257D32046FCF7E6
:105230000DFC064600287CD1E5682846FFF788FB70
:105240002B7880461D4447F6FF796B88C3F30E0226
:105250004A4572D166602046FCF7F8FB10B17846EB
:10526000F6F700F83846FFF739FCA060002873D144
:10527000E3681A7813444FF6FF725988914200D1BF
:10528000A360022323702046FCF7E0FB10B17846B0
:10529000F5F7E8FFE5682B781D44A3689D424AD2E4
:1052A0002846FFF701FCA3689842064668D16A8841
:1052B000531E9BB247F6FE618B423CD8E3681878D8
:1052C0002946184400F0B2FB002834D0A84232D05E
:1052D00041882046BDE8F843FFF760BF3503E36827
:1052E0005A195B5D083BDBB2F62B15D85379FF2BBF
:1052F00012D01279FF2A0FD09E4202D07846F5F7DD
:10530000B1FFE3682B441A7923699A4202D07846A8
:10531000F5F7A8FF013686E701233B4F23700025F0
:1053200023699D4231D3FFF7B9FBE3680833A360DB
:1053300001E003232370002018E013B92B8806EB4B
:1053400083062846FFF7B0FB804505463FF67DAF54
:105350007846F5F787FF78E7428847F6FF739A4269
:105360008FD00820FFF77CFB10B90420BDE8F8833C
:10537000032202710460FFF785FBFFF78FFB80E7D4
:105380003046FFF791FB35468DE7E0682E03304449
:1053900040F6FC710430FFF7F4FA90B11020FFF7EB
:1053A0005FFB0028E1D00222027187604573226909
:1053B00002734FF6FF72C2810460FFF763FB013591
:1053C000AEE7E3689A199B5D083BDBB2F62B05D884
:1053D0005379FF2B02D01379FF2B02D17846F5F7D2
:1053E00041FFE36833445B799D4202D07846F5F78C
:1053F00039FFE3681E44236932799A42DFD0784648
:10540000F5F730FFDBE700BF0804101010B50446C5
:1054100010B97846F5F726FFA36813B97846F5F773
:1054200021FF236833B9246021460348BDE81040BA
:10543000FDF7D4BA10BD00BFDC44002008B5064813
:10544000FCF767F820B1FCF71DFB80F00100C0B24B
:1054500000F0010008BD00BFC843002038B5044675
:1054600098B1C5682846FFF773FA2B78014647F6CE
:10547000FF72E81800F0DAFAA06010B97846F5F784
:10548000F1FE0223237000236360054B05490222CD
:1054900001201A70FCF7F6FFBDE83840FFF7FEBAAE
:1054A000EC440020094F0300FCF716BB38B5054655
:1054B000044C20B1236813B17846F5F7D3FE25607C
:1054C00038BD00BFE844002030B503B930BD013B12
:1054D0009BB2CC5CD55C6C40C454F6E746DF7047A9
:1054E0002DE9F843858907468846012401F1200902
:1054F0000DB9BDE8F88363BAA8F81E304046FFF73F
:10550000EDFF102D04F1FF3CB968B8692E464FEA53
:105510000C1C28BF102633464A4661446044AD1B2C
:105520000134FFF7D1FFADB2A4B2E1E72DE9F047B6
:1055300007460E461446994600F1100500F1200872
:105540000CB9BDE8F087C9F1100A544505EB090014
:1055500018DA2246314605F0FEF904EB0900C0F1E5
:1055600010020021284405F001FA002410232A46E5
:1055700041462846FFF7A8FF3846FFF7AFFF4FF038
:105580000009DDE7103C3146524619FA84F405F073
:10559000E2F9A4B25644E9E770B5838A002B90F88B
:1055A00020300D46A3F102034FF0020193FBF1F30B
:1055B0004FEAC30303F03803164643F0010314BF58
:1055C00040220022134304462B7441680D2205F14A
:1055D000110005F0C0F9A289130A43EA0223EB8304
:1055E0002846FFF77BFFA38A83B1B3F57F4F02D331
:1055F0007846F5F737FEA28A130A43EA02232B8284
:10560000A28A216902232846FFF790FFA28922B1CE
:105610000023A1682846FFF789FF94F8202005F1B0
:1056200020013046BDE8704005F095B930B504461C
:105630008DB001681022684605F08DF9E26969466F
:105640002046FFF7A9FFE569616801230D220DF1EE
:1056500011008DF8103005F07EF900236846ADF892
:105660001E30FFF73BFF94F8203008AA2946284651
:10567000FFF72AFF69462046FFF732FF0DB030BD25
:1056800070B590F82030102B90B004460D4602D92A
:105690007846F5F7E7FD102221680DEB020005F0D2
:1056A0005AF9A3897BB1012361688DF820300D225E
:1056B0000DF1210005F04FF9002304A92046ADF8B3
:1056C0002E30FFF70DFFA369A668A3606A4604A900
:1056D0002046FFF761FF616801230D220DF12100D3
:1056E0008DF8203005F037F9002304A8ADF82E30EE
:1056F000FFF7F4FE94F820300CAA69466846FFF7DD
:10570000E3FEA66094F82020E169684605F014F9EC
:10571000B0FA80F04009287010B070BD70B50B4C25
:10572000038825889D42064606D001339BB29D42E0
:1057300002D07846F5F796FD30882368854238BF59
:1057400003F1FF331B0C1B04184470BDF844002008
:105750002DE9F8430378022B0DD1FCF7EDFC114E37
:10576000DFF848800546002400F1FF3933689C4289
:1057700003D30D4B1D60BDE8F88308EBC407B81DCB
:10578000FFF7CCFF85420BD0484509D03368013B79
:10579000336008EBC30393E8030087E80300E5E701
:1057A0000134E3E7FC440020F844002000450020D9
:1057B00008B5FCF7C1FC014B186008BDF844002097
:1057C0002DE9F8431A4D1B4E2B688846914600245C
:1057D000A3420CD1282B29D0164A02EBC30142F870
:1057E000338001338880A1F806902B6015E0E70034
:1057F000F2199188814217D1901DFFF78FFF8145E3
:105800000ED156F83400804594BF0020012028B105
:10581000374446F83480A7F806900020BDE8F883A6
:105820008CBF01200020F2E70134D1E70420F5E726
:10583000FC44002000450020F8B5114B114E0C46E9
:10584000196817460025A94201D1002011E006EB96
:10585000C5039A88824211D1981DFFF75FFF8742E6
:1058600008D156F83500844294BF0020012080F012
:105870000100F8BD8CBF01200020F8E70135E2E708
:10588000FC44002000450020034B044800214FF455
:10589000A072196005F06AB8FC44002000450020A1
:1058A00008B50348FDF774F8BDE80840FFF7ECBF02
:1058B000702E00202DE9F041884616461F4604460A
:1058C000B0B1C2B1013B1B2B15D8FF2913D0BD1CB1
:1058D000EDB2691C01F0A0FF044648B12B234574CA
:1058E000837480F813803A463146143005F033F85B
:1058F0002046BDE8F0810024FAE70000F0B50E462E
:10590000C7B01746054610B97846F5F7ABFC002E30
:105910007AD02C78711EC9B2002C57D0012C5CD0E3
:105920003A4C2268D20519D5394B1B68012B15DD7D
:105930002F21384805F00AF9002853D02F21354887
:1059400005F004F9411C344B2A78D3F80435019250
:10595000324A009202206D22FEF7EEFF2368DB053B
:1059600032D52B4B1B68032B2EDD2D4B802E196857
:1059700028BF8026002305AC15F8012F100902F07E
:105980000F02085C04F81300885C04EB4302013347
:105990009E425070F0D100232F211E4804F816308B
:1059A00005F0D4F838B32F211A4805F0CFF8411C80
:1059B000194B1C4AD3F8043501921B4A00920294F9
:1059C0006E220420FEF7B8FF0B2004E03A46681C64
:1059D000F8F75EFE002047B0F0BD3A46681C00F0C4
:1059E0008FFDF7E75C210B4805F0B0F808B15C21AA
:1059F000A5E70849A7E75C21064805F0A7F808B124
:105A00005C21D1E70349D3E70920E4E7642E0020B5
:105A1000602E002098C3030000100140B2C30300B1
:105A2000682E0020D8C3030001B4030088422DE98A
:105A3000F84307460E46904602D97846F5F712FC21
:105A40003C46DFF85C901AE0238804EB83039E4217
:105A500021D9238813B97846F5F704FC238804EB91
:105A6000830333EA090203D06288B2F5FE4F01D105
:105A70002B782B449E420ED99F421C460BD2638842
:105A8000434509D004EA090505F58055B542E0D340
:105A9000B3F5FE4FD8D100242046BDE8F88300BFFF
:105AA00000F0FFFF014B1860704700BF4446002024
:105AB0002DE9F0410F46054610B97846F5F7D2FBBF
:105AC00017B97846F5F7CEFB2B78012B02D978462B
:105AD000F5F7C8FB1E4C236A13B17846F5F7C2FBF5
:105AE0006B681D2B02D97846F5F7BCFB2B78012B90
:105AF00009D1EB685A1C06D003F50073012B02D9BB
:105B00007846F5F7AFFB134B1E684FF0010846B916
:105B1000236A1BB16B6823700F4B3B60206ABDE8A2
:105B2000F08116F8032C2B691A42A6F108000CD05C
:105B300056F8083C29461B68984730B916F8043CCB
:105B4000226A08FA03F3134323623668DFE700BFD3
:105B5000AC53002048460020AD530020F8B50F4D4F
:105B60002B6A13B97846F5F77DFB0D4B0D4F1C687A
:105B700001260CB92C62F8BD14F8043C2A6A06FA16
:105B800003F31342A4F1080005D054F8083C2A7826
:105B90005B68394698472468EBE700BFAC530020A8
:105BA00048460020AD53002070B50D4D2B6A13B947
:105BB0007846F5F757FB0B4B1C6801260CB92C6295
:105BC00070BD14F8043C2A6A06FA03F31342A4F1E8
:105BD000080003D054F8083C9B6898472468EDE718
:105BE000AC530020484600202DE9F0410E461746F0
:105BF0009846054610B97846F5F734FB064B1C6805
:105C00003CB143463A4629793046A446BDE8F041C6
:105C10006047BDE8F08100BF44460020F8B50E465D
:105C20001746044610B97846F5F71CFB16B97846B6
:105C3000F5F718FB1FB97846F5F714FB01E0FF2FC5
:105C4000F9D0336813B97846F5F70CFB736813B9CC
:105C50007846F5F707FBB36813B97846F5F702FB0A
:105C6000094D2B781F2B02D97846F5F7FBFA2B78D4
:105C700026605A1C237167712A7004F108010348D9
:105C8000BDE8F840FEF7BCBD404600204846002075
:105C900007B540F20713B3EB104F019002D07846DE
:105CA000F5F7E0FA03481422002103B05DF804EB95
:105CB00004F05CBE5846002013B540F20713B3EB66
:105CC000104F01900C4602D07846F5F7CBFA044904
:105CD0001422204602B0BDE8104004F03CBE00BFD4
:105CE00058460020F7B540F20713B3EB104F019070
:105CF0000F4602D07846F5F7B5FA3888FCF790FCE5
:105D000002284AD07B68B3F5004F03D94FF6FF72E3
:105D1000934242D1BB68B3F5803F3ED897F90C302F
:105D2000002B3ADB3E460FCE1D4C25460FC533688F
:105D30002B603A88234612B9C4E901222273194A1A
:105D400014785A68E4B14FF6FF70111A4A424A417A
:105D5000E2B19A68D2B1144BB4B1B2F5E16F144616
:105D600028BF4FF4E164121B1A60FDF771F80F4968
:105D700001FB04010E48FDF742F8002003B0F0BD1E
:105D8000003218BF0122E3E71C60EEE70024084858
:105D9000C3E90144FDF71CF8EFE70720EEE700BF79
:105DA00058460020A04600208446002040420F00B4
:105DB0008846002030B50C4DAC688DB08CB90B48CE
:105DC000FDF706F82C22214601A8AC6004F0CEFDB8
:105DD000062301A88DF804300295FBF7A7F90DB052
:105DE00030BD013CAC60FAE770460020A4460020BC
:105DF00010B503780A2B8CB039D11E4AC489138898
:105E0000A34234D1418A5388994230D18368032B0D
:105E10002DD193685BB35368B3F5004F3CBF01339A
:105E200053604168007F05238DF804300B7803F040
:105E30007F038DF808300B78C0F1010003F07F0379
:105E40000344DBB28DF809308978ADF80C4001F0DD
:105E50000F01ADF80A1091899BB29942D18988BF90
:105E6000938101A8994238BFD381FBF75FF90CB049
:105E700010BD00BF7046002070B5294C23888EB03D
:105E8000002B4BD0274D2A6812B97846F5F7EAF96E
:105E90002B6868469847054600283FD102AE03228A
:105EA0000146304604F062FD9DF80830227B8DF8F3
:105EB000095023F07F0302F07F0213438DF808306E
:105EC000194B1B788DF80A30019B13B97846F5F70A
:105ED000C9F90A238DF8143000238DF8203020886A
:105EE000BDF80030ADF82230ADF82600FCF798FB85
:105EF000019B0B9303230793237B8DF824008DF8DC
:105F000030306FF00201FF2305A80D930696FAF7D3
:105F10006FFD064B003018BF012018700EB070BD29
:105F200058460020BC46002080460020A1460020A4
:105F30000378012B04D1034B1B780BB1FFF79CBFF7
:105F4000704700BFA146002038B5114D114C2B8879
:105F5000DBB16B68CBB1226852B94FF6FF72934246
:105F60001CBF03F1FF336B60FFF786FFAB68236054
:105F70002368094AB3F5E16F194628BF4FF4E16180
:105F80004A435B1A2261236001E00023236138BD8C
:105F9000584600208446002040420F0017B401916B
:105FA000C1F30741012914D198B90C48147803783A
:105FB000D94301F0010294420BD183F00103037035
:105FC000074BDB89DB0704D503B05DF8044BFFF713
:105FD00053BF03B05DF8044B704700BF80460020FC
:105FE0005846002008B501210B48FBF771F810B1A5
:105FF0007846F5F737F9094B094ADA60094B0A4A3E
:106000009A600A480A4ADA600A4B0360FBF7B8F85C
:10601000094B01221A7008BDF4C303008446002016
:10602000495F0300A4460020B55D03004C460020F4
:1060300040420F00315F0300A0460020F0B5054646
:1060400091B010B97846F5F70DF90DF102016846E7
:10605000F4F7D2FFAB68B3F5803F02D9072011B047
:10606000F0BD2888FCF7DCFA01282FD16888FCF7FE
:10607000D7FA48B16888FCF7D3FA032804D06A88B5
:10608000BDF800309A42E9D11E4C94E80F0001AEF1
:1060900086E80F00AB68FBB900231B482360A360B0
:1060A000FCF796FE2C22002105A804F05FFC0623D5
:1060B0008DF81430BDF80630002B08BF002605A867
:1060C000CDE90664FBF732F80020C8E72888FCF722
:1060D000A7FA0028CAD0C1E729880029DCD06A883D
:1060E000002AD9D0084DA36021806280EF68FCF7B8
:1060F000AFFE39182846FCF782FE7F23E3600023B9
:106100006360CFE770460020A44600200048704737
:10611000704600200048704758460020034B00227C
:106120001A70034B0146186800F046BCA0460020D8
:10613000EEC30300034B186010B97846F5F792B828
:10614000704700BFBC46002007B5094B01900122F3
:1061500008481A7001F046FBFCF77AFE064BD96836
:106160000144184603B05DF804EBFCF748BE00BFDD
:10617000A0470020C0460020A447002013B501908E
:10618000000CB0F5837F0C4602D07846F5F76AF82C
:10619000024B1B78237002B010BD00BFA047002047
:1061A00037B50190000CB0F5837F0C4602D07846DD
:1061B000F5F758F825780E4C22787AB955B10D4884
:1061C00001F010FBFCF744FE0B4BD9680144184664
:1061D000FCF715FE0020257003B030BD002DF9D16D
:1061E000044801F014FB0448FCF7F2FDF2E700BF9D
:1061F000A0470020C0460020A44700207FB5089C8F
:1062000006461D462078531E5A425A4161F300004B
:1062100062F34100024620466FF3870206F1100147
:1062200000F8012B2DBA082204F095FB6B4621469D
:106230003046C4F809500D22FDF76FFC082269466C
:1062400004F10D0004F087FB04B070BDF0B595B00B
:1062500005460DF137025749564C574F0020F4F7C9
:10626000B7FD26462268002A00F091805168088810
:10627000142300FB03335B089BB2B3F5167F28BFE2
:106280004FF416730A2B38BF0A238B805268937819
:106290000133DBB2022B937006D123685A680023C6
:1062A0009370226852681380336859688B68EA1AC1
:1062B00048BF5A1B8B887B43934273D8FBF73CFF44
:1062C0000446FBF755FF9DF837103368A1F1020C27
:1062D000022902460EAF0CBF03F1200003F10800B3
:1062E000DCF1000141EB0C0123460097FFF786FF2C
:1062F000012115233A463148FFF7DCFA0146002810
:1063000045D0012303712D4801F0C1FA2C4B1B68C5
:106310009B0739D52B4B1B68042B35DD2F212A48D1
:1063200004F014FC002834D02F21274804F00EFC80
:10633000411C9DF83820254B02F00100C2F34002B9
:10634000D3F8043509929DF8402008929DF83F202B
:1063500007929DF83E2006929DF83D2005929DF8FB
:106360003C2004929DF83B2003929DF83A20029233
:106370009DF839200192164A0A900092052040F2B9
:1063800001120B94FEF7D8FA33685B689D6015B074
:10639000F0BD5C210C4804F0D9FB08B15C21C4E7D6
:1063A0000949C6E70DF1370221460020F4F710FD38
:1063B00058E700BFBC47002040420F00C046002005
:1063C000642E0020602E002000C403000010014055
:1063D0001EC4030008B5FCF73BFDBDE80840FFF70D
:1063E00035BFFFF733BF10B586B002AB0D220C46A8
:1063F000FDF793FB08220DEB0201684604F0ABFAAF
:10640000082204F10D01684604F096FAB0FA80F013
:10641000400906B010BD000013B5154A154C002305
:1064200013600421144AE2600DEB0100134AA260DC
:106430002361FCF71BFEFCF70BFD0199E268B1FB41
:10644000F2F302FB1313184460600D4C0D4A0E4921
:106450003423204601F0C6FA20464FF47A7101F049
:106460006CFA0A4A0A480421FDF7BBFB02B010BDD2
:10647000BC470020A447002080969800E3630300F7
:10648000C04600205C470020D563030090470020F1
:1064900061C4030010B5064C23783BB9054801F0F0
:1064A000A1F90548FCF772FC0123237010BD00BF61
:1064B000A0470020C0460020A44700201FB504A923
:1064C00001F8090D044800F077FA10B17846F4F7A6
:1064D000C9FE05B05DF804FB0300060107B50748D7
:1064E0000DF1030100F0A8FA10B17846F4F7BAFEF6
:1064F0009DF8030003B05DF804FB00BF0300060134
:106500002DE9F04717469AB0044610B97846F4F7DB
:10651000A9FE00230E93504BD4F809601B689B071B
:1065200036BA30D54D4B1B68042B2CDD2F214C483F
:1065300004F00CFB002836D02F21494804F006FB5C
:10654000411C484BD3F804350B96227802F0010029
:10655000C2F340020A900992227A0892E2790792E5
:10656000A27906926279059222790492E2780392E6
:10657000A2780292627801923B4A009205204FF481
:10658000D572FEF7D9F9651C0DF137020EA9284620
:10659000F4F71EFC4FF6FF784FF004090E9B5BB931
:1065A0001AB0BDE8F0875C212D4804F0CFFA08B19D
:1065B0005C21C2E72A49C4E75B6813B97846F4F75F
:1065C00051FE0E98082200F1080A2946183004F0FE
:1065D000B3F950BB21465046FFF705FF28B30E9B89
:1065E00008330E9A51680A8842451CBF01320A805E
:1065F00021468DF83C9011F80D2B1496C2F3400003
:10660000C2F300028DF855200E9A8DF854000FA8A1
:10661000CDE91023CDE91271FAF788FD0DF13702AB
:106620000EA92846F4F7D4FBB8E79DF83730002BC5
:10663000F4D00E98082200F1200A2946303004F0E8
:106640007BF90028EAD121465046FFF7CCFE00280E
:10665000E4D00E9B2033C4E7642E0020602E00207F
:1066600000C403000010014066C403002DE9F3419B
:106670000F4C104E019205460F469846A64202D195
:1066800002B0BDE8F08122682B6811881888884222
:106690000CD151885B888B4208D8EA881A448A4218
:1066A00004DD424601996368384698470834E5E7B7
:1066B000F4C60300FCC6030038B503685C88C388D1
:1066C0000C1B9C42054602D37846F4F7CBFDA86923
:1066D000204438BD37B585B20190020C094C0A48F8
:1066E000844202D1002003B030BD03681988A9425A
:1066F00006D15988914203D8C3880B449342F2DCF7
:106700001C30EDE7F4C6030030C6030070B58EB050
:106710000E4601901546FFF7DDFF044688B18388D9
:10672000AB4222D8C368019831469847F8B9BDF802
:1067300006102046FFF7C0FF0223037001200EB0B1
:1067400070BD02242C22002103A804F00FF9019847
:10675000CDF81200142303A88DF80C308DF81040EA
:10676000CDE90665FAF7E2FCE8E70024EAE7012450
:10677000E8E700002DE9F041304C314E314FDFF8B1
:10678000CC8092B0A4F11C039E4202D112B0BDE8AD
:10679000F08154F81C3C1A882B4BBB4205D178463B
:1067A000F4F760FD00239B78FFDE1988914201D049
:1067B0000833F2E79B78012B07D0022B01D01C3461
:1067C000E0E798F80030002BF9D000252BE054F8D2
:1067D000043C5A5D02F00503012B23D154F81C3C04
:1067E00018685B8801902B4492079BB220D5ADF8C6
:1067F000063054F80C2C019802A9904734F8182C54
:10680000019802A900F02CFA0028BFD154F8042CFA
:10681000535D23F00103535554F8042C535D43F0AA
:1068200004035355013534F8163CAB42CFD8C6E7C4
:10683000ADF80630019800F03AFAE5E74CC60300DF
:10684000F4C6030004C70300FCC60300C0470020D1
:106850002DE9F341204C214EA4F11C07A4F11C08A2
:1068600046450FD11E4A1F4B1F4900919B1AF61B2C
:10687000DB081E481C21B6FBF1F100F063F902B001
:10688000BDE8F08154F81C3C34F8162C5B881344A6
:10689000B3F5803F02D37846F4F7E4FC134DB542DC
:1068A00001D11C34DAE74545FBD054F81C2C2B6889
:1068B0001088198888420DD150885988EA880A447E
:1068C000904207DA34F8163C0344994202DA7846DB
:1068D000F4F7C8FC1C35E2E74CC60300F4C603001D
:1068E000FCC6030004C703003169030030C603007F
:1068F000014800F0F7B900BF0D67030010B50A4B5F
:106900000A4898420ED0D988002205E09C69A45C10
:1069100014F0050F04D101329142F7D81C33F0E78F
:10692000012010BD0020FCE730C60300F4C60300C0
:1069300030B504468DB0D0F80200FFF7CBFE054617
:1069400010B97846F4F78EFC2846A188FFF7B4FE0C
:1069500003785B07054602D47846F4F783FC2B786E
:1069600023F004032B702378022B0DD12C2200215D
:1069700001A803F0FBFFD4F802000290132301A842
:106980008DF80430FAF7D2FBFFF7B8FF014618B1D3
:10699000FFF7F0FE0DB030BD064B2C22187001A899
:1069A00003F0E4FF122301A88DF80430FAF7BEFBD0
:1069B000F0E700BFC0470020F0B585B00E4601905B
:1069C00089B3FFF787FE054678B30198EB6803901B
:1069D0003146BDF806709847044608BB394628463C
:1069E000FFF76AFE0378124A43F0030303702B6833
:1069F00010481F882346D118884203D17846F4F7FF
:106A000031FC05E00833D11831F8081CB942F2D145
:106A1000FFF7B0FE3346039A00212846FFF726FE13
:106A2000204605B0F0BD0E24FAE70524F8E700BFC4
:106A3000FCC6030004C7030037B50D460190A9B199
:106A4000FFF748FE044698B1037A33B101982369F1
:106A500029469847002003B030BDBDF80610FFF767
:106A60002BFE03789B07F1D40820F4E70E20F2E711
:106A70000520F0E713B50190FFF72CFE0446D0B1D6
:106A8000BDF80610FFF718FE03789A0715D523F016
:106A9000020343F00103037063690BB10198984747
:106AA000FFF768FE20460023019A0121FFF7DEFD73
:106AB000002002B010BD0520FBE70820F9E7000028
:106AC0000F4B73B501220F4C0F4E1A70A4F11C032B
:106AD0009E4213D102B070BD54F81C3C18685B880C
:106AE00001902B44ADF806300198FFF7C3FF013544
:106AF00034F8163CAB42EFD81C34E7E70025F7E743
:106B0000C04700204CC60300F4C6030070470000D5
:106B100030B50A4B1C680A4B196800239C4201D10E
:106B2000002207E031F83350854201EBC30203D164
:106B300053681880104630BD0133EFE7C44700208A
:106B4000CC4700202DE9F84FDDF82880894617460C
:106B50009A46044610B97846F4F784FBB9F1000F61
:106B600002D17846F4F77EFB17B97846F4F77AFB42
:106B7000BAF1000F02D17846F4F774FB344E354871
:106B800037600023344D354F2B60984518BF404681
:106B9000C7F800A000F01EF91C2303FB09494C456F
:106BA0000AD100220023D7F800E030681C46734564
:106BB0003DD14CBBBDE8F88F23681888FFF7A8FFCC
:106BC000804608B1436813B97846F4F74BFBD8F810
:106BD0000430A088B3F802B000F082F9B4F806A03F
:106BE00000FB0ABABAF5803F02DB7846F4F73AFBBD
:106BF000D8F80430A3F802A0D8F80420E1889388DC
:106C00000B4493801C34CAE7A37833B1606800F06A
:106C1000F5F810B17846F4F725FB204600F065F949
:106C20002B68228818440132286092B2BAE730F803
:106C300033C0944500EBC30108D324B1B4F80080FD
:106C4000E04598BF214601330C46B0E72146FAE7FC
:106C5000CC4700200D6B0300C8470020C44700202C
:106C600073B5164601900D4611B97846F4F7FAFA55
:106C700016B97846F4F7F6FABDF80400FFF748FFB6
:106C8000044610B97846F4F7EDFA63685B8813B9E7
:106C90007846F4F7E7FA6368BDF80620DA806068A2
:106CA0003246294602B0BDE8704000F0D3B813B5B3
:106CB000019080B2FFF72CFF044610B97846F4F734
:106CC000D1FA63685B8813B97846F4F7CBFA636846
:106CD000BDF80620DA80606802B0BDE8104000F020
:106CE000CFB80000F8B5054610B97846F4F7BAFAFF
:106CF000084E094F00243368A34200D8F8BD3B6812
:106D000003EBC4039A781AB12946586800F0D0F80A
:106D10000134F0E7C4470020CC47002007B54B689A
:106D20004288DA804B681B88ADF80430438830F81D
:106D3000042BADF8063002F18042013A0B68920054
:106D4000014601989847024B185C03B05DF804FBBC
:106D5000A9C4030007B5002A0CBF002302238DF845
:106D6000003030F8083CADF802304B88ADF8043004
:106D7000034B68461B68984703B05DF804FB00BFEF
:106D8000D447002007B5002A0CBF012302238DF849
:106D9000003030F8083CADF80230044BADF8041078
:106DA0001B686846984703B05DF804FBD447002091
:106DB000704700B58DB02C22002101A803F0D6FD4C
:106DC0000E2301A88DF80430FAF7B0F90DB05DF884
:106DD00004FB000008B5064B00221A70054B186032
:106DE000FEF7A4F80448BDE80840FEF75FBB00BF0B
:106DF000D0470020D4470020B36D030070B5114E7A
:106E0000448840F6F87304F6F774B4FBF3F433786F
:106E100086B0234405463370F1F775FF3378A0EB55
:106E200003306B880293084B0393084B0493CDE91E
:106E30000004074B0593694605F10800FEF7D6F9F3
:106E400006B070BDD0470020556D0300856D03006E
:106E5000B16D030070B508300D4630F8021C1646BF
:106E6000FEF757F9044648B132462946043003F08C
:106E700072FD2046FEF77CF9002070BD0420FCE77F
:106E800037B54FF6FF7300F108050446ADF804303E
:106E900001A9C388ADF806302846FEF72BF928B1C2
:106EA000E1882846FEF77AF903B030BD0520FBE7FC
:106EB00037B50D46044610B97846F4F7D3F915B93D
:106EC0007846F4F7CFF96B46044A002104F1080034
:106ED000CDE90054FEF770F803B030BD1D6D03001E
:106EE000C31D4FF6FC70184070478378022B0CD1FD
:106EF00043689A88588864235343033003F5FA7330
:106F00002922800802FB00307047002070470000F3
:106F1000094B834210B502D07846F4F7A3F9074C29
:106F2000236813B97846F4F79DF9206800F0ABFAAE
:106F30000023236010BD00BFD8470020F047002089
:106F4000114B834270B50E46154602D07846F4F7D1
:106F500089F90E4C23681B69AB4202D27846F4F7DC
:106F600081F920682A463146143003F0F4FC216888
:106F70000748FBF733FD00232360064BBDE8704054
:106F80001868FCF79DBC00BFD8470020F0470020E0
:106F9000E4470020EC470020F0B587B0182200211C
:106FA000684603F0E3FC032312488DF80030FBF73A
:106FB0002FFD114D0F4E044614B9012007B0F0BD4E
:106FC000E368277A0193FBF743FFE36802463946FB
:106FD0002846FEF709FE21696A4604F11400FCF711
:106FE000CFFF3046FBF714FD0746204600F04BFA72
:106FF0003C46E1E7E4470020D84700200F4B83429E
:1070000070B50D4602D07846F4F72CF92B699B0633
:1070100010D50B4E34686CB96868143000F031FA42
:10702000306048B12B780372EB68C3606B68036112
:10703000204670BD0120FCE70220FAE7D847002077
:10704000F047002008B50748FCF71CFC064B074931
:10705000186020220648FEF7E1FD0648BDE808401A
:10706000FBF7B2BC996F0300EC470020ACC40300EF
:10707000D8470020E447002037B5C0F30745012D6D
:1070800001900C4602D97846F4F7ECF8084AA020A3
:107090006843131819792170125862705B6F4FF4AE
:1070A0007A7203F5FA73B3FBF2F3638003B030BD79
:1070B0000048002037B5C0F30744023CE4B2012C7D
:1070C00001900D4602D97846F4F7CCF80448A02385
:1070D00003FB040494F82C302B7003B030BD00BFC8
:1070E0000048002073B5C0F30745012D019002D977
:1070F0007846F4F7B7F80E4CA0226A43161D2244D6
:107100002644127912B9304600F06CFB012D1CBFE9
:10711000A0235D434FF0140118BF012330460CBF7C
:10712000C4F8A050635102B0BDE8704000F005BC47
:1071300000480020F7B5C0F30746012E01900D4628
:1071400002D97846F4F78EF86B78013B072B22D8EA
:107150006B88143BB3F5917F1DD8104F2978A0247C
:1071600074433A19043412793C4471B112B920467F
:1071700000F038FBA02070436B783B5020466988B4
:1071800000F0DBFB002003B0F0BD002AF2D0204667
:1071900000F03DFBEEE70720F5E700BF00480020C8
:1071A00013B5C0F30744023CE4B2012C019002D9AC
:1071B0007846F4F757F80548A02303FB04000021A4
:1071C000043002B0BDE8104000F0D7BB00480020FA
:1071D00037B5C0F30744023CE4B2012C01900D46E0
:1071E00002D97846F4F73EF805482978A02303FB36
:1071F0000400043000F0C1FB002003B030BD00BF2C
:10720000004800201FB5C0F30744043CE4B2012C41
:10721000019002D97846F4F725F802A800F0C6FBE1
:107220000448A02303FB040002A9043000F067FB1C
:1072300004B010BD0048002073B5C0F30744043CFF
:10724000E4B2012C01900E4602D97846F4F70AF810
:10725000307810F0FC050AD10648A02303FB040097
:107260000430314600F04BFB284602B070BD0720C9
:10727000FBE700BF0048002037B5C0F30744043CDB
:10728000E4B2012C01900D4602D97846F3F7EAFFEB
:107290000549A02000FB041107226C31284603B0E9
:1072A000BDE8304003F057BB004800200C4B834240
:1072B00010B502D07846F3F7D5FF0A4C636813B9CE
:1072C0007846F3F7CFFF084B20786168A02202FBD5
:1072D0000030043000F004FB0023636010BD00BFE9
:1072E000F44700204049002000480020124B834210
:1072F00070B50E46154602D07846F3F7B3FF0F4C33
:10730000636813B97846F3F7ADFF60682A23837486
:107310006B1C43742A463146133003F01CFB084BA8
:1073200020786168A02202FB0030043000F0AFFA40
:107330000023636070BD00BFF44700204049002077
:1073400000480020F8B5124B83420D4602D0784623
:10735000F3F788FF0F4C636813B17846F3F782FFA9
:1073600028780D4F6968A02606FB007002310430B2
:1073700000F052FA606048B1EB6803602B785E431E
:10738000BB5903712B7823700020F8BD0220FCE765
:10739000F44700204049002000480020044BC01A58
:1073A000044B401158430B46C1B20348FEF71CBCC6
:1073B00004480020CDCCCCCCF4470020012882B07A
:1073C0000AD8032300F58070ADF80430ADF806004C
:1073D000019802B0FFF7F0BA072002B07047012809
:1073E00082B00AD8032300F58070ADF80430ADF800
:1073F0000600019802B0FFF71FBB072002B07047DC
:1074000070B5114C114A12492546012645F8046B06
:107410004FF48073284600F0E5FA284600F0E2F9C0
:10742000A43444F8046C0B4A00212046802300F069
:10743000D9FA204600F0D6F9324607490748BDE898
:107440007040FEF7EBBB00BF004800204E49002013
:107450009D7303004E4A0020C4C40300F44700207B
:10746000012810B5044602D97846F3F7FBFE034B1A
:10747000A02202FB0434207910BD00BF0048002088
:10748000704703F049BA03F04FBA000070B50646E2
:1074900018B343680BB34378073BDBB2F72B1ED915
:1074A000104B00781C68A8B90546E8B2013500F019
:1074B00091F8B5F5807FF8D106F108010948FDF78C
:1074C0009FF92CB9204600F095F8012000F072F8E1
:1074D000002003E000F07EF8EEE70E2070BD0720EC
:1074E000FCE700BFD04A00202DE9F047DFF85C80C0
:1074F00006461F460C468D18AC4201D3BDE8F08706
:10750000D8F8002004F1020942B1617812F8083C71
:10751000994207D033B11268002AF7D1227801329C
:107520001444E9E7082AF9D012F8071CD2F800A0A1
:10753000B14201D0FF2906D1217852F8043C01392B
:107540003A46484698475246DEE700BFD04A0020F8
:10755000F0B5174A447D137C063CE4B200214FF09D
:10756000010C8C4203DCB3FA83F0400917E04618A3
:10757000B57F767F6F0902EB870705F01F057F69EE
:107580000CFA05F53D4210D0611AB14204DC536B90
:10759000013353630120F0BD181C18BF01200028DF
:1075A000F9D0936B01339363F5E701363144D8E7A3
:1075B000D44A002030B10548054B436000230370D6
:1075C00000F0C2BD014800F0DDBD00BFD44A00207C
:1075D000517503004109064A012300F01F0003FA18
:1075E00000F052F82130034342F82130704700BFC9
:1075F000E84A0020012810B5044602D97846F3F77E
:1076000031FE014B1C7410BDD44A002010B5044655
:1076100010B97846F3F726FEE36F13B97846F3F70F
:1076200021FEE36FD4E925122046BDE8104018473B
:1076300010B5037813F0FC0F044602D07846F3F738
:1076400011FE237803F0FE03022B02BFA37963F03F
:107650003F03A37110BD10B550F8202C1379013BE6
:10766000DBB2FD2B04460BD9836D4BB11368C0E927
:107670001C315C30FCF75EF910B17846F3F7F2FD8F
:1076800054F8201C0B7943B944F8203C04F138002D
:107690000439BDE81040F9F702BF10BD38B5054602
:1076A00007480C46FBF7D0FCB0FBF4F101FB1404D7
:1076B000FBF7CEFB01192846BDE83840FBF79FBB1E
:1076C000104B0020F7B500230B650B780C46002B00
:1076D0004AD091F84030002B33D1CB6F002B2AD108
:1076E00004F15C0500266368002B3FD01B79FF2B5B
:1076F00004D12846F9F7B8FE002837D163681B7912
:10770000002B33D094F87830002B5FD165682B794B
:1077100013B97846F3F7A6FD2B79FF2B1CBF03F1B5
:10772000FF332B7104F1080000F0D8FC48B1784613
:10773000F3F798FD05E001F18000FCF71DF9002842
:10774000CED094F84430256F022B02D07846F3F760
:1077500089FD2048FBF778FC42F21073B0FBF3F28E
:1077600002FB13002844206503B0F0BD616821B11D
:1077700004392846F9F793FE666001A92846F9F70F
:107780002CFE0028F0D1019B1A1D0C33626063624D
:10779000A9E73846FBF758FC94F87730B0FBF3F2D2
:1077A00002FB1300C3B2AB4209D02544204495F834
:1077B000743090F8742085F8742080F874300136A5
:1077C00094F87730F5B2AB42E3D89FE70026014F3B
:1077D000F6E700BF104B00200148FBF769BC00BF73
:1077E000104B002010B5037804467BB901230370C9
:1077F000436833B1216F04F14400BDE81040FFF746
:107800004DBF5C30F9F716FE0028F3D110BD002300
:1078100000F8443BFBF7DCBA2DE9F3410D46064680
:1078200010B97846F3F71EFD1F2D02D97846F3F7FD
:1078300019FD05F1110292B201A906F15C00F9F7F8
:107840004AFD8046E0B9019C237B022262F30303D8
:1078500006352373657396F86830227B5B0863F303
:107860008612227306F16901062204F10F0003F06B
:1078700072F8271DC4F80480384602B0BDE8F081D4
:10788000042802D07846F3F7EDFC0027F4E738B57A
:1078900005460C4601B110B97846F3F7E3FC2379AD
:1078A00013B97846F3F7DEFC237A03F0CF036FF3C6
:1078B000C713237221460023A37231F8042D05F16A
:1078C0005C00F9F759FD2B784BB195F8443033B98A
:1078D000296F05F14400BDE83840FFF7DFBE38BD31
:1078E00038B504460D4601B110B97846F3F7BAFC35
:1078F000291F04F15C00BDE83840F9F7D0BD70B530
:107900000D46044600B111B97846F3F7ABFC2B786D
:1079100013F0FC0F02D07846F3F7A4FCEFF31086C7
:1079200072B6683407222946204603F014F8204630
:10793000FFF77EFE06B962B670BD38B50D46044647
:1079400010B97846F3F78EFC132D03D87846F3F779
:1079500089FC02E0B5F5205FF8D84FF47A7194F80D
:107960004430694321673BB123782BB104F14400D3
:10797000BDE83840FFF792BE38BD38B50D46044625
:1079800010B97846F3F76EFC84F8285038BD10B56E
:1079900004465C30F9F777FCEFF3108272B6636847
:1079A0000BB10021197102B962B610BD10B54FF0CC
:1079B00080530446D3F8A0200378094912F001024D
:1079C00014BF62F347036FF34703037006220130CD
:1079D00002F0C1FF2046BDE81040FFF729BE00BFFE
:1079E000A4000010F8B50D4616461F46044600B127
:1079F00012B97846F3F736FC0A2F02D87846F3F727
:107A000031FCBAB2314604F15C00F9F7E6FB04F14F
:107A10006800FFF7CBFF144BE56744F62062C4E92A
:107A20001C23124A226325226285032284F82C201B
:107A300084F83C200E4A6263002304F174010D4A6D
:107A400084F8783084F82830A1636362E264646566
:107A500023703DB1224604F180000749BDE8F8409B
:107A6000FBF750BFF8BD00BF25262703D6BE898E81
:107A700057760300C57603000D760300034A1368AA
:107A800013B1002111601847704700BF344B00202C
:107A900008B50848FAF7CFFF48B9074B186818B17E
:107AA000064B187880F0010000F0010008BD0120AD
:107AB000FAE700BF244B0020384B0020204B002069
:107AC0001C4B10B501214FF0FF321B4C59604FF495
:107AD0008060D960C3F808230022C3F80022C4F8EC
:107AE00080010424C3F84021C3F84015C3F81045B1
:107AF000C3F80425114CC3F80825114AC2F86045A3
:107B0000A4F50354383CC2F86445C2F80405196072
:107B1000D3F840110029FBD00021C3F840114FF4E5
:107B20008061C2F80815074AD2F84805D3F84035F5
:107B3000C01A10BD00A0004000E100E040A10040DC
:107B400000F0014000800040F8B5FBF76FFC002812
:107B50006BD13648FAF76FFF054680B10468FBF732
:107B60007FFC0646FBF776FC002C40D0E3686433CC
:107B7000984206D20120BDE8F840FBF7A9BC0446B4
:107B8000EDE79E4233D92A4E33781BB100F0ECFC6E
:107B9000002333702548FAF73BFF854202D0784630
:107BA000F3F760FB002501206561FBF7A3FC214B87
:107BB000214F1C60214B224E4FF0FF32C3F80823A7
:107BC000204B0222C3F88021FFF77AFFE3681E4AA8
:107BD000216935700344136001233B702368984783
:107BE00033783D700BB3BDE8F84000F02FB8B6F520
:107BF000FA7F1AD900F090FD98B10D4B1A78A2B90E
