Archive member included to satisfy reference by file (symbol)

external/rtt/librtt_nrf52840_xxAA.a(SEGGER_RTT.c.obj)
                              examples/light_switch/client/CMakeFiles/light_switch_client_nrf52840_xxAA_s140_6.1.1.dir/__/__/__/mesh/core/src/log.c.obj (SEGGER_RTT_Write)
external/rtt/librtt_nrf52840_xxAA.a(SEGGER_RTT_printf.c.obj)
                              examples/light_switch/client/CMakeFiles/light_switch_client_nrf52840_xxAA_s140_6.1.1.dir/__/__/__/mesh/core/src/log.c.obj (SEGGER_RTT_vprintf)
external/micro-ecc/libuECC_nrf52840_xxAA.a(uECC.c.obj)
                              examples/light_switch/client/CMakeFiles/light_switch_client_nrf52840_xxAA_s140_6.1.1.dir/__/__/__/mesh/prov/src/prov_utils.c.obj (uECC_secp256r1)
c:/mesh/arm_gcc/bin/../lib/gcc/arm-none-eabi/7.3.1/thumb/v7e-m/fpv4-sp/hard\libgcc.a(_aeabi_ldivmod.o)
                              examples/light_switch/client/CMakeFiles/light_switch_client_nrf52840_xxAA_s140_6.1.1.dir/__/__/common/src/rtt_input.c.obj (__aeabi_ldivmod)
c:/mesh/arm_gcc/bin/../lib/gcc/arm-none-eabi/7.3.1/thumb/v7e-m/fpv4-sp/hard\libgcc.a(_aeabi_uldivmod.o)
                              examples/light_switch/client/CMakeFiles/light_switch_client_nrf52840_xxAA_s140_6.1.1.dir/__/__/common/src/rtt_input.c.obj (__aeabi_uldivmod)
c:/mesh/arm_gcc/bin/../lib/gcc/arm-none-eabi/7.3.1/thumb/v7e-m/fpv4-sp/hard\libgcc.a(_udivmoddi4.o)
                              c:/mesh/arm_gcc/bin/../lib/gcc/arm-none-eabi/7.3.1/thumb/v7e-m/fpv4-sp/hard\libgcc.a(_aeabi_ldivmod.o) (__udivmoddi4)
c:/mesh/arm_gcc/bin/../lib/gcc/arm-none-eabi/7.3.1/thumb/v7e-m/fpv4-sp/hard\libgcc.a(_dvmd_tls.o)
                              c:/mesh/arm_gcc/bin/../lib/gcc/arm-none-eabi/7.3.1/thumb/v7e-m/fpv4-sp/hard\libgcc.a(_aeabi_ldivmod.o) (__aeabi_ldiv0)
c:/mesh/arm_gcc/bin/../lib/gcc/arm-none-eabi/7.3.1/../../../../arm-none-eabi/lib/thumb/v7e-m/fpv4-sp/hard\libg_nano.a(lib_a-calloc.o)
                              examples/light_switch/client/CMakeFiles/light_switch_client_nrf52840_xxAA_s140_6.1.1.dir/__/__/__/mesh/core/src/mesh_mem_stdlib.c.obj (calloc)
c:/mesh/arm_gcc/bin/../lib/gcc/arm-none-eabi/7.3.1/../../../../arm-none-eabi/lib/thumb/v7e-m/fpv4-sp/hard\libg_nano.a(lib_a-exit.o)
                              c:/mesh/arm_gcc/bin/../lib/gcc/arm-none-eabi/7.3.1/../../../../arm-none-eabi/lib/thumb/v7e-m/fpv4-sp/hard/crt0.o (exit)
c:/mesh/arm_gcc/bin/../lib/gcc/arm-none-eabi/7.3.1/../../../../arm-none-eabi/lib/thumb/v7e-m/fpv4-sp/hard\libg_nano.a(lib_a-impure.o)
                              c:/mesh/arm_gcc/bin/../lib/gcc/arm-none-eabi/7.3.1/../../../../arm-none-eabi/lib/thumb/v7e-m/fpv4-sp/hard\libg_nano.a(lib_a-exit.o) (_global_impure_ptr)
c:/mesh/arm_gcc/bin/../lib/gcc/arm-none-eabi/7.3.1/../../../../arm-none-eabi/lib/thumb/v7e-m/fpv4-sp/hard\libg_nano.a(lib_a-init.o)
                              c:/mesh/arm_gcc/bin/../lib/gcc/arm-none-eabi/7.3.1/../../../../arm-none-eabi/lib/thumb/v7e-m/fpv4-sp/hard/crt0.o (__libc_init_array)
c:/mesh/arm_gcc/bin/../lib/gcc/arm-none-eabi/7.3.1/../../../../arm-none-eabi/lib/thumb/v7e-m/fpv4-sp/hard\libg_nano.a(lib_a-malloc.o)
                              examples/light_switch/client/CMakeFiles/light_switch_client_nrf52840_xxAA_s140_6.1.1.dir/__/__/__/mesh/core/src/mesh_mem_stdlib.c.obj (malloc)
c:/mesh/arm_gcc/bin/../lib/gcc/arm-none-eabi/7.3.1/../../../../arm-none-eabi/lib/thumb/v7e-m/fpv4-sp/hard\libg_nano.a(lib_a-memcmp.o)
                              examples/light_switch/client/CMakeFiles/light_switch_client_nrf52840_xxAA_s140_6.1.1.dir/C_/mesh/deps/nRF5_SDK_15.3.0_59ac345/components/ble/common/ble_advdata.c.obj (memcmp)
c:/mesh/arm_gcc/bin/../lib/gcc/arm-none-eabi/7.3.1/../../../../arm-none-eabi/lib/thumb/v7e-m/fpv4-sp/hard\libg_nano.a(lib_a-memcpy-stub.o)
                              examples/light_switch/client/CMakeFiles/light_switch_client_nrf52840_xxAA_s140_6.1.1.dir/C_/mesh/deps/nRF5_SDK_15.3.0_59ac345/components/ble/common/ble_advdata.c.obj (memcpy)
c:/mesh/arm_gcc/bin/../lib/gcc/arm-none-eabi/7.3.1/../../../../arm-none-eabi/lib/thumb/v7e-m/fpv4-sp/hard\libg_nano.a(lib_a-memset.o)
                              c:/mesh/arm_gcc/bin/../lib/gcc/arm-none-eabi/7.3.1/../../../../arm-none-eabi/lib/thumb/v7e-m/fpv4-sp/hard/crt0.o (memset)
c:/mesh/arm_gcc/bin/../lib/gcc/arm-none-eabi/7.3.1/../../../../arm-none-eabi/lib/thumb/v7e-m/fpv4-sp/hard\libg_nano.a(lib_a-nano-callocr.o)
                              c:/mesh/arm_gcc/bin/../lib/gcc/arm-none-eabi/7.3.1/../../../../arm-none-eabi/lib/thumb/v7e-m/fpv4-sp/hard\libg_nano.a(lib_a-calloc.o) (_calloc_r)
c:/mesh/arm_gcc/bin/../lib/gcc/arm-none-eabi/7.3.1/../../../../arm-none-eabi/lib/thumb/v7e-m/fpv4-sp/hard\libg_nano.a(lib_a-nano-freer.o)
                              c:/mesh/arm_gcc/bin/../lib/gcc/arm-none-eabi/7.3.1/../../../../arm-none-eabi/lib/thumb/v7e-m/fpv4-sp/hard\libg_nano.a(lib_a-malloc.o) (_free_r)
c:/mesh/arm_gcc/bin/../lib/gcc/arm-none-eabi/7.3.1/../../../../arm-none-eabi/lib/thumb/v7e-m/fpv4-sp/hard\libg_nano.a(lib_a-nano-mallocr.o)
                              c:/mesh/arm_gcc/bin/../lib/gcc/arm-none-eabi/7.3.1/../../../../arm-none-eabi/lib/thumb/v7e-m/fpv4-sp/hard\libg_nano.a(lib_a-malloc.o) (_malloc_r)
c:/mesh/arm_gcc/bin/../lib/gcc/arm-none-eabi/7.3.1/../../../../arm-none-eabi/lib/thumb/v7e-m/fpv4-sp/hard\libg_nano.a(lib_a-sbrkr.o)
                              c:/mesh/arm_gcc/bin/../lib/gcc/arm-none-eabi/7.3.1/../../../../arm-none-eabi/lib/thumb/v7e-m/fpv4-sp/hard\libg_nano.a(lib_a-nano-mallocr.o) (_sbrk_r)
c:/mesh/arm_gcc/bin/../lib/gcc/arm-none-eabi/7.3.1/../../../../arm-none-eabi/lib/thumb/v7e-m/fpv4-sp/hard\libg_nano.a(lib_a-strcpy.o)
                              external/rtt/librtt_nrf52840_xxAA.a(SEGGER_RTT.c.obj) (strcpy)
c:/mesh/arm_gcc/bin/../lib/gcc/arm-none-eabi/7.3.1/../../../../arm-none-eabi/lib/thumb/v7e-m/fpv4-sp/hard\libg_nano.a(lib_a-strlen.o)
                              examples/light_switch/client/CMakeFiles/light_switch_client_nrf52840_xxAA_s140_6.1.1.dir/__/__/common/src/ble_softdevice_support.c.obj (strlen)
c:/mesh/arm_gcc/bin/../lib/gcc/arm-none-eabi/7.3.1/../../../../arm-none-eabi/lib/thumb/v7e-m/fpv4-sp/hard\libg_nano.a(lib_a-strrchr.o)
                              examples/light_switch/client/CMakeFiles/light_switch_client_nrf52840_xxAA_s140_6.1.1.dir/src/main.c.obj (strrchr)
c:/mesh/arm_gcc/bin/../lib/gcc/arm-none-eabi/7.3.1/../../../../arm-none-eabi/lib/thumb/v7e-m/fpv4-sp/hard\libg_nano.a(lib_a-mlock.o)
                              c:/mesh/arm_gcc/bin/../lib/gcc/arm-none-eabi/7.3.1/../../../../arm-none-eabi/lib/thumb/v7e-m/fpv4-sp/hard\libg_nano.a(lib_a-nano-freer.o) (__malloc_lock)
c:/mesh/arm_gcc/bin/../lib/gcc/arm-none-eabi/7.3.1/../../../../arm-none-eabi/lib/thumb/v7e-m/fpv4-sp/hard\libg_nano.a(lib_a-reent.o)
                              c:/mesh/arm_gcc/bin/../lib/gcc/arm-none-eabi/7.3.1/../../../../arm-none-eabi/lib/thumb/v7e-m/fpv4-sp/hard\libg_nano.a(lib_a-sbrkr.o) (errno)
c:/mesh/arm_gcc/bin/../lib/gcc/arm-none-eabi/7.3.1/../../../../arm-none-eabi/lib/thumb/v7e-m/fpv4-sp/hard\libg_nano.a(lib_a-strchr.o)
                              c:/mesh/arm_gcc/bin/../lib/gcc/arm-none-eabi/7.3.1/../../../../arm-none-eabi/lib/thumb/v7e-m/fpv4-sp/hard\libg_nano.a(lib_a-strrchr.o) (strchr)
c:/mesh/arm_gcc/bin/../lib/gcc/arm-none-eabi/7.3.1/../../../../arm-none-eabi/lib/thumb/v7e-m/fpv4-sp/hard\libnosys.a(sbrk.o)
                              c:/mesh/arm_gcc/bin/../lib/gcc/arm-none-eabi/7.3.1/../../../../arm-none-eabi/lib/thumb/v7e-m/fpv4-sp/hard\libg_nano.a(lib_a-sbrkr.o) (_sbrk)
c:/mesh/arm_gcc/bin/../lib/gcc/arm-none-eabi/7.3.1/../../../../arm-none-eabi/lib/thumb/v7e-m/fpv4-sp/hard\libnosys.a(_exit.o)
                              c:/mesh/arm_gcc/bin/../lib/gcc/arm-none-eabi/7.3.1/../../../../arm-none-eabi/lib/thumb/v7e-m/fpv4-sp/hard\libg_nano.a(lib_a-exit.o) (_exit)

Allocating common symbols
Common symbol       size              file

nrf_nvic_state      0xc               examples/light_switch/client/CMakeFiles/light_switch_client_nrf52840_xxAA_s140_6.1.1.dir/C_/mesh/deps/nRF5_SDK_15.3.0_59ac345/components/libraries/util/app_util_platform.c.obj
m_packet            0x24              examples/light_switch/client/CMakeFiles/light_switch_client_nrf52840_xxAA_s140_6.1.1.dir/__/__/__/mesh/core/src/core_tx.c.obj
errno               0x4               c:/mesh/arm_gcc/bin/../lib/gcc/arm-none-eabi/7.3.1/../../../../arm-none-eabi/lib/thumb/v7e-m/fpv4-sp/hard\libg_nano.a(lib_a-reent.o)
_SEGGER_RTT         0x78              external/rtt/librtt_nrf52840_xxAA.a(SEGGER_RTT.c.obj)

Discarded input sections

 .text          0x00000000        0x0 c:/mesh/arm_gcc/bin/../lib/gcc/arm-none-eabi/7.3.1/thumb/v7e-m/fpv4-sp/hard/crti.o
 .data          0x00000000        0x0 c:/mesh/arm_gcc/bin/../lib/gcc/arm-none-eabi/7.3.1/thumb/v7e-m/fpv4-sp/hard/crti.o
 .bss           0x00000000        0x0 c:/mesh/arm_gcc/bin/../lib/gcc/arm-none-eabi/7.3.1/thumb/v7e-m/fpv4-sp/hard/crti.o
 .data          0x00000000        0x4 c:/mesh/arm_gcc/bin/../lib/gcc/arm-none-eabi/7.3.1/thumb/v7e-m/fpv4-sp/hard/crtbegin.o
 .data          0x00000000        0x0 c:/mesh/arm_gcc/bin/../lib/gcc/arm-none-eabi/7.3.1/../../../../arm-none-eabi/lib/thumb/v7e-m/fpv4-sp/hard/crt0.o
 .bss           0x00000000        0x0 c:/mesh/arm_gcc/bin/../lib/gcc/arm-none-eabi/7.3.1/../../../../arm-none-eabi/lib/thumb/v7e-m/fpv4-sp/hard/crt0.o
 .ARM.extab     0x00000000        0x0 c:/mesh/arm_gcc/bin/../lib/gcc/arm-none-eabi/7.3.1/../../../../arm-none-eabi/lib/thumb/v7e-m/fpv4-sp/hard/crt0.o
 .text          0x00000000        0x0 examples/light_switch/client/CMakeFiles/light_switch_client_nrf52840_xxAA_s140_6.1.1.dir/src/main.c.obj
 .data          0x00000000        0x0 examples/light_switch/client/CMakeFiles/light_switch_client_nrf52840_xxAA_s140_6.1.1.dir/src/main.c.obj
 .bss           0x00000000        0x0 examples/light_switch/client/CMakeFiles/light_switch_client_nrf52840_xxAA_s140_6.1.1.dir/src/main.c.obj
 .text          0x00000000        0x0 examples/light_switch/client/CMakeFiles/light_switch_client_nrf52840_xxAA_s140_6.1.1.dir/__/__/__/mesh/stack/src/mesh_stack.c.obj
 .data          0x00000000        0x0 examples/light_switch/client/CMakeFiles/light_switch_client_nrf52840_xxAA_s140_6.1.1.dir/__/__/__/mesh/stack/src/mesh_stack.c.obj
 .bss           0x00000000        0x0 examples/light_switch/client/CMakeFiles/light_switch_client_nrf52840_xxAA_s140_6.1.1.dir/__/__/__/mesh/stack/src/mesh_stack.c.obj
 .text.mesh_stack_persistence_flash_usage
                0x00000000       0x36 examples/light_switch/client/CMakeFiles/light_switch_client_nrf52840_xxAA_s140_6.1.1.dir/__/__/__/mesh/stack/src/mesh_stack.c.obj
 .text.mesh_stack_health_server_get
                0x00000000        0x8 examples/light_switch/client/CMakeFiles/light_switch_client_nrf52840_xxAA_s140_6.1.1.dir/__/__/__/mesh/stack/src/mesh_stack.c.obj
 .text          0x00000000        0x0 examples/light_switch/client/CMakeFiles/light_switch_client_nrf52840_xxAA_s140_6.1.1.dir/__/__/common/src/mesh_provisionee.c.obj
Memory Configuration

Name             Origin             Length             Attributes
FLASH            0x00026000         0x000d1000         xr
RAM              0x20002da0         0x0003cf60         xrw
*default*        0x00000000         0xffffffff

Linker script and memory map


.text           0x00026000    0x19518
 *(.isr_vector)
 .isr_vector    0x00026000      0x200 examples/light_switch/client/CMakeFiles/light_switch_client_nrf52840_xxAA_s140_6.1.1.dir/C_/mesh/deps/nRF5_SDK_15.3.0_59ac345/modules/nrfx/mdk/gcc_startup_nrf52840.S.obj
                0x00026000                __isr_vector
 *(.text*)
 .text          0x00026200       0x40 c:/mesh/arm_gcc/bin/../lib/gcc/arm-none-eabi/7.3.1/thumb/v7e-m/fpv4-sp/hard/crtbegin.o
 .text          0x00026240       0x74 c:/mesh/arm_gcc/bin/../lib/gcc/arm-none-eabi/7.3.1/../../../../arm-none-eabi/lib/thumb/v7e-m/fpv4-sp/hard/crt0.o
                0x00026240                _start
                0x00026240                _mainCRTStartup
 .text.sd_app_evt_wait
                0x000262b4        0x4 examples/light_switch/client/CMakeFiles/light_switch_client_nrf52840_xxAA_s140_6.1.1.dir/src/main.c.obj
 .text.app_generic_onoff_client_status_cb
                0x000262b8       0xd0 examples/light_switch/client/CMakeFiles/light_switch_client_nrf52840_xxAA_s140_6.1.1.dir/src/main.c.obj
 .text.app_gen_onoff_client_transaction_status_cb
                0x00026388      0x11c examples/light_switch/client/CMakeFiles/light_switch_client_nrf52840_xxAA_s140_6.1.1.dir/src/main.c.obj
 .text.button_event_handler
                0x000264a4      0x1fc examples/light_switch/client/CMakeFiles/light_switch_client_nrf52840_xxAA_s140_6.1.1.dir/src/main.c.obj
 .text.rtt_input_handler
                0x000266a0        0xc examples/light_switch/client/CMakeFiles/light_switch_client_nrf52840_xxAA_s140_6.1.1.dir/src/main.c.obj
 .text.models_init_cb
                0x000266ac       0xc0 examples/light_switch/client/CMakeFiles/light_switch_client_nrf52840_xxAA_s140_6.1.1.dir/src/main.c.obj
 .text.config_server_evt_cb
                0x0002676c       0x80 examples/light_switch/client/CMakeFiles/light_switch_client_nrf52840_xxAA_s140_6.1.1.dir/src/main.c.obj
 .text.device_identification_start_cb
                0x000267ec       0x22 examples/light_switch/client/CMakeFiles/light_switch_client_nrf52840_xxAA_s140_6.1.1.dir/src/main.c.obj
 .text.provisioning_aborted_cb
                0x0002680e        0x4 examples/light_switch/client/CMakeFiles/light_switch_client_nrf52840_xxAA_s140_6.1.1.dir/src/main.c.obj
 *fill*         0x00026812        0x2 
 .text.provisioning_complete_cb
                0x00026814       0xdc examples/light_switch/client/CMakeFiles/light_switch_client_nrf52840_xxAA_s140_6.1.1.dir/src/main.c.obj
 .text.app_gen_onoff_client_publish_interval_cb
                0x000268f0       0x64 examples/light_switch/client/CMakeFiles/light_switch_client_nrf52840_xxAA_s140_6.1.1.dir/src/main.c.obj
 .text.startup.main
                0x00026954      0x15c examples/light_switch/client/CMakeFiles/light_switch_client_nrf52840_xxAA_s140_6.1.1.dir/src/main.c.obj
                0x00026954                main
 .text.mesh_evt_handler
                0x00026ab0       0x1c examples/light_switch/client/CMakeFiles/light_switch_client_nrf52840_xxAA_s140_6.1.1.dir/__/__/__/mesh/stack/src/mesh_stack.c.obj
 .text.mesh_stack_provisioning_data_store
                0x00026acc       0xe4 examples/light_switch/client/CMakeFiles/light_switch_client_nrf52840_xxAA_s140_6.1.1.dir/__/__/__/mesh/stack/src/mesh_stack.c.obj
                0x00026acc                mesh_stack_provisioning_data_store
 .text.mesh_stack_config_clear
                0x00026bb0       0x16 examples/light_switch/client/CMakeFiles/light_switch_client_nrf52840_xxAA_s140_6.1.1.dir/__/__/__/mesh/stack/src/mesh_stack.c.obj
                0x00026bb0                mesh_stack_config_clear
 .text.mesh_stack_is_device_provisioned
                0x00026bc6       0x18 examples/light_switch/client/CMakeFiles/light_switch_client_nrf52840_xxAA_s140_6.1.1.dir/__/__/__/mesh/stack/src/mesh_stack.c.obj
                0x00026bc6                mesh_stack_is_device_provisioned
 *fill*         0x00026bde        0x2 
 .text.mesh_stack_init
                0x00026be0       0x70 examples/light_switch/client/CMakeFiles/light_switch_client_nrf52840_xxAA_s140_6.1.1.dir/__/__/__/mesh/stack/src/mesh_stack.c.obj
                0x00026be0                mesh_stack_init
 .text.mesh_stack_start
                0x00026c50       0x1a examples/light_switch/client/CMakeFiles/light_switch_client_nrf52840_xxAA_s140_6.1.1.dir/__/__/__/mesh/stack/src/mesh_stack.c.obj
                0x00026c50                mesh_stack_start
 *fill*         0x00026c6a        0x2 
 .text.mesh_stack_device_reset
                0x00026c6c       0x20 examples/light_switch/client/CMakeFiles/light_switch_client_nrf52840_xxAA_s140_6.1.1.dir/__/__/__/mesh/stack/src/mesh_stack.c.obj
                0x00026c6c                mesh_stack_device_reset
 .text.sd_state_evt_handler
                0x00026c8c       0xa8 examples/light_switch/client/CMakeFiles/light_switch_client_nrf52840_xxAA_s140_6.1.1.dir/__/__/common/src/mesh_provisionee.c.obj
 .text.mesh_evt_handler
                0x00026d34       0x2c examples/light_switch/client/CMakeFiles/light_switch_client_nrf52840_xxAA_s140_6.1.1.dir/__/__/common/src/mesh_provisionee.c.obj
 .text.provisionee_start
                0x00026d60       0x30 examples/light_switch/client/CMakeFiles/light_switch_client_nrf52840_xxAA_s140_6.1.1.dir/__/__/common/src/mesh_provisionee.c.obj
 .text.prov_evt_handler
                0x00026d90       0xbc examples/light_switch/client/CMakeFiles/light_switch_client_nrf52840_xxAA_s140_6.1.1.dir/__/__/common/src/mesh_provisionee.c.obj
 .text.mesh_provisionee_prov_start
                0x00026e4c       0x94 examples/light_switch/client/CMakeFiles/light_switch_client_nrf52840_xxAA_s140_6.1.1.dir/__/__/common/src/mesh_provisionee.c.obj
                0x00026e4c                mesh_provisionee_prov_start
 .text.timeout_handler
                0x00026ee0       0x1c examples/light_switch/client/CMakeFiles/light_switch_client_nrf52840_xxAA_s140_6.1.1.dir/__/__/common/src/rtt_input.c.obj
                0x00026ee0                timeout_handler
 .text.rtt_input_enable
                0x00026efc       0x6c examples/light_switch/client/CMakeFiles/light_switch_client_nrf52840_xxAA_s140_6.1.1.dir/__/__/common/src/rtt_input.c.obj
                0x00026efc                rtt_input_enable
 .text.led_timeout_handler
                0x00026f68       0x54 examples/light_switch/client/CMakeFiles/light_switch_client_nrf52840_xxAA_s140_6.1.1.dir/__/__/common/src/simple_hal.c.obj
 .text.hal_led_pin_set
                0x00026fbc       0x18 examples/light_switch/client/CMakeFiles/light_switch_client_nrf52840_xxAA_s140_6.1.1.dir/__/__/common/src/simple_hal.c.obj
                0x00026fbc                hal_led_pin_set
 .text.hal_led_mask_set
                0x00026fd4       0x12 examples/light_switch/client/CMakeFiles/light_switch_client_nrf52840_xxAA_s140_6.1.1.dir/__/__/common/src/simple_hal.c.obj
                0x00026fd4                hal_led_mask_set
 *fill*         0x00026fe6        0x2 
 .text.hal_led_blink_ms
                0x00026fe8       0x64 examples/light_switch/client/CMakeFiles/light_switch_client_nrf52840_xxAA_s140_6.1.1.dir/__/__/common/src/simple_hal.c.obj
                0x00026fe8                hal_led_blink_ms
 .text.hal_led_blink_stop
                0x0002704c       0x20 examples/light_switch/client/CMakeFiles/light_switch_client_nrf52840_xxAA_s140_6.1.1.dir/__/__/common/src/simple_hal.c.obj
                0x0002704c                hal_led_blink_stop
 .text.hal_leds_init
                0x0002706c       0x58 examples/light_switch/client/CMakeFiles/light_switch_client_nrf52840_xxAA_s140_6.1.1.dir/__/__/common/src/simple_hal.c.obj
                0x0002706c                hal_leds_init
 .text.hal_buttons_init
                0x000270c4       0x50 examples/light_switch/client/CMakeFiles/light_switch_client_nrf52840_xxAA_s140_6.1.1.dir/__/__/common/src/simple_hal.c.obj
                0x000270c4                hal_buttons_init
 .text.GPIOTE_IRQHandler
                0x00027114       0x60 examples/light_switch/client/CMakeFiles/light_switch_client_nrf52840_xxAA_s140_6.1.1.dir/__/__/common/src/simple_hal.c.obj
                0x00027114                GPIOTE_IRQHandler
 .text.mesh_app_uuid_print
                0x00027174      0x11c examples/light_switch/client/CMakeFiles/light_switch_client_nrf52840_xxAA_s140_6.1.1.dir/__/__/common/src/mesh_app_utils.c.obj
                0x00027174                mesh_app_uuid_print
 .text.sd_ble_gap_adv_set_configure
                0x00027290        0x4 examples/light_switch/client/CMakeFiles/light_switch_client_nrf52840_xxAA_s140_6.1.1.dir/__/__/common/src/mesh_adv.c.obj
 .text.sd_ble_gap_adv_start
                0x00027294        0x4 examples/light_switch/client/CMakeFiles/light_switch_client_nrf52840_xxAA_s140_6.1.1.dir/__/__/common/src/mesh_adv.c.obj
 .text.sd_ble_gap_adv_stop
                0x00027298        0x4 examples/light_switch/client/CMakeFiles/light_switch_client_nrf52840_xxAA_s140_6.1.1.dir/__/__/common/src/mesh_adv.c.obj
 .text.mesh_adv_data_set
                0x0002729c       0xdc examples/light_switch/client/CMakeFiles/light_switch_client_nrf52840_xxAA_s140_6.1.1.dir/__/__/common/src/mesh_adv.c.obj
                0x0002729c                mesh_adv_data_set
 .text.mesh_adv_params_set
                0x00027378       0x28 examples/light_switch/client/CMakeFiles/light_switch_client_nrf52840_xxAA_s140_6.1.1.dir/__/__/common/src/mesh_adv.c.obj
                0x00027378                mesh_adv_params_set
 .text.mesh_adv_start
                0x000273a0       0x20 examples/light_switch/client/CMakeFiles/light_switch_client_nrf52840_xxAA_s140_6.1.1.dir/__/__/common/src/mesh_adv.c.obj
                0x000273a0                mesh_adv_start
 .text.mesh_adv_stop
                0x000273c0       0x1c examples/light_switch/client/CMakeFiles/light_switch_client_nrf52840_xxAA_s140_6.1.1.dir/__/__/common/src/mesh_adv.c.obj
                0x000273c0                mesh_adv_stop
 .text.sd_ble_gap_disconnect
                0x000273dc        0x4 examples/light_switch/client/CMakeFiles/light_switch_client_nrf52840_xxAA_s140_6.1.1.dir/__/__/common/src/ble_softdevice_support.c.obj
 .text.sd_ble_gap_ppcp_set
                0x000273e0        0x4 examples/light_switch/client/CMakeFiles/light_switch_client_nrf52840_xxAA_s140_6.1.1.dir/__/__/common/src/ble_softdevice_support.c.obj
 .text.sd_ble_gap_device_name_set
                0x000273e4        0x4 examples/light_switch/client/CMakeFiles/light_switch_client_nrf52840_xxAA_s140_6.1.1.dir/__/__/common/src/ble_softdevice_support.c.obj
 .text.conn_params_error_handler
                0x000273e8        0x4 examples/light_switch/client/CMakeFiles/light_switch_client_nrf52840_xxAA_s140_6.1.1.dir/__/__/common/src/ble_softdevice_support.c.obj
 .text.on_sd_evt
                0x000273ec        0x4 examples/light_switch/client/CMakeFiles/light_switch_client_nrf52840_xxAA_s140_6.1.1.dir/__/__/common/src/ble_softdevice_support.c.obj
 .text.on_conn_params_evt
                0x000273f0       0x80 examples/light_switch/client/CMakeFiles/light_switch_client_nrf52840_xxAA_s140_6.1.1.dir/__/__/common/src/ble_softdevice_support.c.obj
 .text.ble_stack_init
                0x00027470       0x32 examples/light_switch/client/CMakeFiles/light_switch_client_nrf52840_xxAA_s140_6.1.1.dir/__/__/common/src/ble_softdevice_support.c.obj
                0x00027470                ble_stack_init
 *fill*         0x000274a2        0x2 
 .text.gap_params_init
                0x000274a4       0x50 examples/light_switch/client/CMakeFiles/light_switch_client_nrf52840_xxAA_s140_6.1.1.dir/__/__/common/src/ble_softdevice_support.c.obj
                0x000274a4                gap_params_init
 .text.conn_params_init
                0x000274f4       0x68 examples/light_switch/client/CMakeFiles/light_switch_client_nrf52840_xxAA_s140_6.1.1.dir/__/__/common/src/ble_softdevice_support.c.obj
                0x000274f4                conn_params_init
 .text.app_util_critical_region_enter
                0x0002755c       0x48 examples/light_switch/client/CMakeFiles/light_switch_client_nrf52840_xxAA_s140_6.1.1.dir/C_/mesh/deps/nRF5_SDK_15.3.0_59ac345/components/libraries/util/app_util_platform.c.obj
                0x0002755c                app_util_critical_region_enter
 .text.app_util_critical_region_exit
                0x000275a4       0x2c examples/light_switch/client/CMakeFiles/light_switch_client_nrf52840_xxAA_s140_6.1.1.dir/C_/mesh/deps/nRF5_SDK_15.3.0_59ac345/components/libraries/util/app_util_platform.c.obj
                0x000275a4                app_util_critical_region_exit
 .text.sd_ble_gap_addr_get
                0x000275d0        0x4 examples/light_switch/client/CMakeFiles/light_switch_client_nrf52840_xxAA_s140_6.1.1.dir/C_/mesh/deps/nRF5_SDK_15.3.0_59ac345/components/ble/common/ble_advdata.c.obj
 .text.sd_ble_gap_appearance_get
                0x000275d4        0x4 examples/light_switch/client/CMakeFiles/light_switch_client_nrf52840_xxAA_s140_6.1.1.dir/C_/mesh/deps/nRF5_SDK_15.3.0_59ac345/components/ble/common/ble_advdata.c.obj
 .text.sd_ble_gap_device_name_get
                0x000275d8        0x4 examples/light_switch/client/CMakeFiles/light_switch_client_nrf52840_xxAA_s140_6.1.1.dir/C_/mesh/deps/nRF5_SDK_15.3.0_59ac345/components/ble/common/ble_advdata.c.obj
 .text.sd_ble_uuid_encode
                0x000275dc        0x4 examples/light_switch/client/CMakeFiles/light_switch_client_nrf52840_xxAA_s140_6.1.1.dir/C_/mesh/deps/nRF5_SDK_15.3.0_59ac345/components/ble/common/ble_advdata.c.obj
 .text.uuid_list_sized_encode
                0x000275e0       0xa4 examples/light_switch/client/CMakeFiles/light_switch_client_nrf52840_xxAA_s140_6.1.1.dir/C_/mesh/deps/nRF5_SDK_15.3.0_59ac345/components/ble/common/ble_advdata.c.obj
 .text.uuid_list_encode
                0x00027684       0x34 examples/light_switch/client/CMakeFiles/light_switch_client_nrf52840_xxAA_s140_6.1.1.dir/C_/mesh/deps/nRF5_SDK_15.3.0_59ac345/components/ble/common/ble_advdata.c.obj
 .text.ble_advdata_encode
                0x000276b8      0x392 examples/light_switch/client/CMakeFiles/light_switch_client_nrf52840_xxAA_s140_6.1.1.dir/C_/mesh/deps/nRF5_SDK_15.3.0_59ac345/components/ble/common/ble_advdata.c.obj
                0x000276b8                ble_advdata_encode
 .text.nrf_section_iter_init
                0x00027a4a       0x12 examples/light_switch/client/CMakeFiles/light_switch_client_nrf52840_xxAA_s140_6.1.1.dir/C_/mesh/deps/nRF5_SDK_15.3.0_59ac345/components/libraries/experimental_section_vars/nrf_section_iter.c.obj
                0x00027a4a                nrf_section_iter_init
 .text.nrf_section_iter_next
                0x00027a5c       0x18 examples/light_switch/client/CMakeFiles/light_switch_client_nrf52840_xxAA_s140_6.1.1.dir/C_/mesh/deps/nRF5_SDK_15.3.0_59ac345/components/libraries/experimental_section_vars/nrf_section_iter.c.obj
                0x00027a5c                nrf_section_iter_next
 .text.sd_evt_get
                0x00027a74        0x4 examples/light_switch/client/CMakeFiles/light_switch_client_nrf52840_xxAA_s140_6.1.1.dir/C_/mesh/deps/nRF5_SDK_15.3.0_59ac345/components/softdevice/common/nrf_sdh_soc.c.obj
 .text.nrf_sdh_soc_evts_poll
                0x00027a78       0x3c examples/light_switch/client/CMakeFiles/light_switch_client_nrf52840_xxAA_s140_6.1.1.dir/C_/mesh/deps/nRF5_SDK_15.3.0_59ac345/components/softdevice/common/nrf_sdh_soc.c.obj
 .text.sd_ble_enable
                0x00027ab4        0x4 examples/light_switch/client/CMakeFiles/light_switch_client_nrf52840_xxAA_s140_6.1.1.dir/C_/mesh/deps/nRF5_SDK_15.3.0_59ac345/components/softdevice/common/nrf_sdh_ble.c.obj
 .text.sd_ble_cfg_set
                0x00027ab8        0x4 examples/light_switch/client/CMakeFiles/light_switch_client_nrf52840_xxAA_s140_6.1.1.dir/C_/mesh/deps/nRF5_SDK_15.3.0_59ac345/components/softdevice/common/nrf_sdh_ble.c.obj
 .text.sd_ble_evt_get
                0x00027abc        0x4 examples/light_switch/client/CMakeFiles/light_switch_client_nrf52840_xxAA_s140_6.1.1.dir/C_/mesh/deps/nRF5_SDK_15.3.0_59ac345/components/softdevice/common/nrf_sdh_ble.c.obj
 .text.nrf_sdh_ble_evts_poll
                0x00027ac0       0x50 examples/light_switch/client/CMakeFiles/light_switch_client_nrf52840_xxAA_s140_6.1.1.dir/C_/mesh/deps/nRF5_SDK_15.3.0_59ac345/components/softdevice/common/nrf_sdh_ble.c.obj
 .text.nrf_sdh_ble_default_cfg_set
                0x00027b10       0xd4 examples/light_switch/client/CMakeFiles/light_switch_client_nrf52840_xxAA_s140_6.1.1.dir/C_/mesh/deps/nRF5_SDK_15.3.0_59ac345/components/softdevice/common/nrf_sdh_ble.c.obj
                0x00027b10                nrf_sdh_ble_default_cfg_set
 .text.nrf_sdh_ble_enable
                0x00027be4       0x14 examples/light_switch/client/CMakeFiles/light_switch_client_nrf52840_xxAA_s140_6.1.1.dir/C_/mesh/deps/nRF5_SDK_15.3.0_59ac345/components/softdevice/common/nrf_sdh_ble.c.obj
                0x00027be4                nrf_sdh_ble_enable
 .text.sd_softdevice_enable
                0x00027bf8        0x4 examples/light_switch/client/CMakeFiles/light_switch_client_nrf52840_xxAA_s140_6.1.1.dir/C_/mesh/deps/nRF5_SDK_15.3.0_59ac345/components/softdevice/common/nrf_sdh.c.obj
 .text.sd_softdevice_disable
                0x00027bfc        0x4 examples/light_switch/client/CMakeFiles/light_switch_client_nrf52840_xxAA_s140_6.1.1.dir/C_/mesh/deps/nRF5_SDK_15.3.0_59ac345/components/softdevice/common/nrf_sdh.c.obj
 .text.sdh_request_observer_notify
                0x00027c00       0x30 examples/light_switch/client/CMakeFiles/light_switch_client_nrf52840_xxAA_s140_6.1.1.dir/C_/mesh/deps/nRF5_SDK_15.3.0_59ac345/components/softdevice/common/nrf_sdh.c.obj
 .text.sdh_state_observer_notify
                0x00027c30       0x28 examples/light_switch/client/CMakeFiles/light_switch_client_nrf52840_xxAA_s140_6.1.1.dir/C_/mesh/deps/nRF5_SDK_15.3.0_59ac345/components/softdevice/common/nrf_sdh.c.obj
 .text.softdevice_evt_irq_disable
                0x00027c58       0x24 examples/light_switch/client/CMakeFiles/light_switch_client_nrf52840_xxAA_s140_6.1.1.dir/C_/mesh/deps/nRF5_SDK_15.3.0_59ac345/components/softdevice/common/nrf_sdh.c.obj
 .text.softdevices_evt_irq_enable
                0x00027c7c       0x38 examples/light_switch/client/CMakeFiles/light_switch_client_nrf52840_xxAA_s140_6.1.1.dir/C_/mesh/deps/nRF5_SDK_15.3.0_59ac345/components/softdevice/common/nrf_sdh.c.obj
 .text.nrf_sdh_enable_request
                0x00027cb4       0x78 examples/light_switch/client/CMakeFiles/light_switch_client_nrf52840_xxAA_s140_6.1.1.dir/C_/mesh/deps/nRF5_SDK_15.3.0_59ac345/components/softdevice/common/nrf_sdh.c.obj
                0x00027cb4                nrf_sdh_enable_request
 .text.nrf_sdh_disable_request
                0x00027d2c       0x60 examples/light_switch/client/CMakeFiles/light_switch_client_nrf52840_xxAA_s140_6.1.1.dir/C_/mesh/deps/nRF5_SDK_15.3.0_59ac345/components/softdevice/common/nrf_sdh.c.obj
                0x00027d2c                nrf_sdh_disable_request
 .text.nrf_sdh_evts_poll
                0x00027d8c       0x28 examples/light_switch/client/CMakeFiles/light_switch_client_nrf52840_xxAA_s140_6.1.1.dir/C_/mesh/deps/nRF5_SDK_15.3.0_59ac345/components/softdevice/common/nrf_sdh.c.obj
                0x00027d8c                nrf_sdh_evts_poll
 .text.SWI2_EGU2_IRQHandler
                0x00027db4        0x4 examples/light_switch/client/CMakeFiles/light_switch_client_nrf52840_xxAA_s140_6.1.1.dir/C_/mesh/deps/nRF5_SDK_15.3.0_59ac345/components/softdevice/common/nrf_sdh.c.obj
                0x00027db4                SWI2_EGU2_IRQHandler
 .text.sd_ble_gap_conn_param_update
                0x00027db8        0x4 examples/light_switch/client/CMakeFiles/light_switch_client_nrf52840_xxAA_s140_6.1.1.dir/C_/mesh/deps/nRF5_SDK_15.3.0_59ac345/components/ble/common/ble_conn_params.c.obj
 .text.sd_ble_gap_disconnect
                0x00027dbc        0x4 examples/light_switch/client/CMakeFiles/light_switch_client_nrf52840_xxAA_s140_6.1.1.dir/C_/mesh/deps/nRF5_SDK_15.3.0_59ac345/components/ble/common/ble_conn_params.c.obj
 .text.sd_ble_gap_ppcp_set
                0x00027dc0        0x4 examples/light_switch/client/CMakeFiles/light_switch_client_nrf52840_xxAA_s140_6.1.1.dir/C_/mesh/deps/nRF5_SDK_15.3.0_59ac345/components/ble/common/ble_conn_params.c.obj
 .text.sd_ble_gap_ppcp_get
                0x00027dc4        0x4 examples/light_switch/client/CMakeFiles/light_switch_client_nrf52840_xxAA_s140_6.1.1.dir/C_/mesh/deps/nRF5_SDK_15.3.0_59ac345/components/ble/common/ble_conn_params.c.obj
 .text.instance_get
                0x00027dc8       0x14 examples/light_switch/client/CMakeFiles/light_switch_client_nrf52840_xxAA_s140_6.1.1.dir/C_/mesh/deps/nRF5_SDK_15.3.0_59ac345/components/ble/common/ble_conn_params.c.obj
 .text.send_error_evt
                0x00027ddc       0x10 examples/light_switch/client/CMakeFiles/light_switch_client_nrf52840_xxAA_s140_6.1.1.dir/C_/mesh/deps/nRF5_SDK_15.3.0_59ac345/components/ble/common/ble_conn_params.c.obj
 .text.update_timeout_handler
                0x00027dec       0x6c examples/light_switch/client/CMakeFiles/light_switch_client_nrf52840_xxAA_s140_6.1.1.dir/C_/mesh/deps/nRF5_SDK_15.3.0_59ac345/components/ble/common/ble_conn_params.c.obj
 .text.conn_params_negotiation
                0x00027e58       0x48 examples/light_switch/client/CMakeFiles/light_switch_client_nrf52840_xxAA_s140_6.1.1.dir/C_/mesh/deps/nRF5_SDK_15.3.0_59ac345/components/ble/common/ble_conn_params.c.obj
 .text.is_conn_params_ok.constprop.3
                0x00027ea0       0x3a examples/light_switch/client/CMakeFiles/light_switch_client_nrf52840_xxAA_s140_6.1.1.dir/C_/mesh/deps/nRF5_SDK_15.3.0_59ac345/components/ble/common/ble_conn_params.c.obj
 *fill*         0x00027eda        0x2 
 .text.ble_evt_handler
                0x00027edc       0xe0 examples/light_switch/client/CMakeFiles/light_switch_client_nrf52840_xxAA_s140_6.1.1.dir/C_/mesh/deps/nRF5_SDK_15.3.0_59ac345/components/ble/common/ble_conn_params.c.obj
 .text.ble_conn_params_init
                0x00027fbc       0x74 examples/light_switch/client/CMakeFiles/light_switch_client_nrf52840_xxAA_s140_6.1.1.dir/C_/mesh/deps/nRF5_SDK_15.3.0_59ac345/components/ble/common/ble_conn_params.c.obj
                0x00027fbc                ble_conn_params_init
 .text.ble_srv_is_notification_enabled
                0x00028030        0x8 examples/light_switch/client/CMakeFiles/light_switch_client_nrf52840_xxAA_s140_6.1.1.dir/C_/mesh/deps/nRF5_SDK_15.3.0_59ac345/components/ble/common/ble_srv_common.c.obj
                0x00028030                ble_srv_is_notification_enabled
 .text._weak_handler
                0x00028038        0x4 examples/light_switch/client/CMakeFiles/light_switch_client_nrf52840_xxAA_s140_6.1.1.dir/__/__/nrf_mesh_weak.c.obj
                0x00028038                nrf_mesh_dfu_init
                0x00028038                nrf_mesh_dfu_jump_to_bootloader
                0x00028038                nrf_mesh_dfu_rx
                0x00028038                prov_provisioner_provision
                0x00028038                nrf_mesh_dfu_bank_info_get
                0x00028038                prov_provisioner_oob_pubkey
                0x00028038                nrf_mesh_dfu_request
                0x00028038                nrf_mesh_dfu_bank_flash
                0x00028038                nrf_mesh_dfu_enable
                0x00028038                _weak_handler
                0x00028038                nrf_mesh_dfu_relay
                0x00028038                nrf_mesh_dfu_abort
                0x00028038                mesh_flash_op_execute
                0x00028038                prov_provisionee_init
                0x00028038                nrf_mesh_dfu_state_get
                0x00028038                prov_provisioner_shared_secret
                0x00028038                prov_provisioner_auth_data
                0x00028038                prov_provisioner_oob_use
 .text.app_error_fault_handler
                0x0002803c      0x200 examples/light_switch/client/CMakeFiles/light_switch_client_nrf52840_xxAA_s140_6.1.1.dir/__/__/common/src/app_error_weak.c.obj
                0x0002803c                app_error_fault_handler
 .text.mesh_assertion_handler
                0x0002823c       0x24 examples/light_switch/client/CMakeFiles/light_switch_client_nrf52840_xxAA_s140_6.1.1.dir/__/__/common/src/assertion_handler_weak.c.obj
                0x0002823c                mesh_assertion_handler
 .text.nrf_mesh_configure_device_uuid_set
                0x00028260       0x10 examples/light_switch/client/CMakeFiles/light_switch_client_nrf52840_xxAA_s140_6.1.1.dir/__/__/__/mesh/core/src/nrf_mesh_configure.c.obj
                0x00028260                nrf_mesh_configure_device_uuid_set
 .text.nrf_mesh_configure_device_uuid_reset
                0x00028270       0x3c examples/light_switch/client/CMakeFiles/light_switch_client_nrf52840_xxAA_s140_6.1.1.dir/__/__/__/mesh/core/src/nrf_mesh_configure.c.obj
                0x00028270                nrf_mesh_configure_device_uuid_reset
 .text.nrf_mesh_configure_device_uuid_get
                0x000282ac        0x8 examples/light_switch/client/CMakeFiles/light_switch_client_nrf52840_xxAA_s140_6.1.1.dir/__/__/__/mesh/core/src/nrf_mesh_configure.c.obj
                0x000282ac                nrf_mesh_configure_device_uuid_get
 .text.msg_cache_init
                0x000282b4       0x24 examples/light_switch/client/CMakeFiles/light_switch_client_nrf52840_xxAA_s140_6.1.1.dir/__/__/__/mesh/core/src/msg_cache.c.obj
                0x000282b4                msg_cache_init
 .text.msg_cache_entry_exists
                0x000282d8       0x3c examples/light_switch/client/CMakeFiles/light_switch_client_nrf52840_xxAA_s140_6.1.1.dir/__/__/__/mesh/core/src/msg_cache.c.obj
                0x000282d8                msg_cache_entry_exists
 .text.msg_cache_entry_add
                0x00028314       0x2c examples/light_switch/client/CMakeFiles/light_switch_client_nrf52840_xxAA_s140_6.1.1.dir/__/__/__/mesh/core/src/msg_cache.c.obj
                0x00028314                msg_cache_entry_add
 .text.seqauth_sequence_number_get
                0x00028340       0x12 examples/light_switch/client/CMakeFiles/light_switch_client_nrf52840_xxAA_s140_6.1.1.dir/__/__/__/mesh/core/src/transport.c.obj
 *fill*         0x00028352        0x2 
 .text.control_packet_callback_get
                0x00028354       0x40 examples/light_switch/client/CMakeFiles/light_switch_client_nrf52840_xxAA_s140_6.1.1.dir/__/__/__/mesh/core/src/transport.c.obj
 .text.tx_complete
                0x00028394       0x2c examples/light_switch/client/CMakeFiles/light_switch_client_nrf52840_xxAA_s140_6.1.1.dir/__/__/__/mesh/core/src/transport.c.obj
 .text.seqauth_get
                0x000283c0       0x24 examples/light_switch/client/CMakeFiles/light_switch_client_nrf52840_xxAA_s140_6.1.1.dir/__/__/__/mesh/core/src/transport.c.obj
 .text.block_ack_full
                0x000283e4       0x1a examples/light_switch/client/CMakeFiles/light_switch_client_nrf52840_xxAA_s140_6.1.1.dir/__/__/__/mesh/core/src/transport.c.obj
 *fill*         0x000283fe        0x2 
 .text.sar_rx_session_mark_as_handled
                0x00028400       0x5c examples/light_switch/client/CMakeFiles/light_switch_client_nrf52840_xxAA_s140_6.1.1.dir/__/__/__/mesh/core/src/transport.c.obj
 .text.upper_trs_packet_encrypt
                0x0002845c       0x86 examples/light_switch/client/CMakeFiles/light_switch_client_nrf52840_xxAA_s140_6.1.1.dir/__/__/__/mesh/core/src/transport.c.obj
 *fill*         0x000284e2        0x2 
 .text.sar_ctx_alloc
                0x000284e4       0xbc examples/light_switch/client/CMakeFiles/light_switch_client_nrf52840_xxAA_s140_6.1.1.dir/__/__/__/mesh/core/src/transport.c.obj
 .text.sar_ctx_free
                0x000285a0       0x3a examples/light_switch/client/CMakeFiles/light_switch_client_nrf52840_xxAA_s140_6.1.1.dir/__/__/__/mesh/core/src/transport.c.obj
 .text.sar_ctx_tx_complete
                0x000285da       0x2e examples/light_switch/client/CMakeFiles/light_switch_client_nrf52840_xxAA_s140_6.1.1.dir/__/__/__/mesh/core/src/transport.c.obj
 .text.transport_metadata_validate
                0x00028608       0x54 examples/light_switch/client/CMakeFiles/light_switch_client_nrf52840_xxAA_s140_6.1.1.dir/__/__/__/mesh/core/src/transport.c.obj
 .text.test_transport_decrypt
                0x0002865c       0x88 examples/light_switch/client/CMakeFiles/light_switch_client_nrf52840_xxAA_s140_6.1.1.dir/__/__/__/mesh/core/src/transport.c.obj
 .text.replay_list_add
                0x000286e4       0x44 examples/light_switch/client/CMakeFiles/light_switch_client_nrf52840_xxAA_s140_6.1.1.dir/__/__/__/mesh/core/src/transport.c.obj
 .text.upper_transport_access_packet_in
                0x00028728      0x1a0 examples/light_switch/client/CMakeFiles/light_switch_client_nrf52840_xxAA_s140_6.1.1.dir/__/__/__/mesh/core/src/transport.c.obj
 .text.trs_packet_header_build
                0x000288c8       0xa4 examples/light_switch/client/CMakeFiles/light_switch_client_nrf52840_xxAA_s140_6.1.1.dir/__/__/__/mesh/core/src/transport.c.obj
 .text.unsegmented_packet_tx
                0x0002896c       0x82 examples/light_switch/client/CMakeFiles/light_switch_client_nrf52840_xxAA_s140_6.1.1.dir/__/__/__/mesh/core/src/transport.c.obj
 *fill*         0x000289ee        0x2 
 .text.tx_retry_timer_reset
                0x000289f0       0x3c examples/light_switch/client/CMakeFiles/light_switch_client_nrf52840_xxAA_s140_6.1.1.dir/__/__/__/mesh/core/src/transport.c.obj
 .text.sar_ctx_cancel
                0x00028a2c       0xb0 examples/light_switch/client/CMakeFiles/light_switch_client_nrf52840_xxAA_s140_6.1.1.dir/__/__/__/mesh/core/src/transport.c.obj
 .text.abort_timeout
                0x00028adc        0x8 examples/light_switch/client/CMakeFiles/light_switch_client_nrf52840_xxAA_s140_6.1.1.dir/__/__/__/mesh/core/src/transport.c.obj
 .text.retry_timeout
                0x00028ae4       0x4c examples/light_switch/client/CMakeFiles/light_switch_client_nrf52840_xxAA_s140_6.1.1.dir/__/__/__/mesh/core/src/transport.c.obj
 .text.trs_sar_packet_out
                0x00028b30       0xf4 examples/light_switch/client/CMakeFiles/light_switch_client_nrf52840_xxAA_s140_6.1.1.dir/__/__/__/mesh/core/src/transport.c.obj
 .text.transport_control_packet_in
                0x00028c24      0x1dc examples/light_switch/client/CMakeFiles/light_switch_client_nrf52840_xxAA_s140_6.1.1.dir/__/__/__/mesh/core/src/transport.c.obj
 .text.segmented_packet_tx
                0x00028e00      0x140 examples/light_switch/client/CMakeFiles/light_switch_client_nrf52840_xxAA_s140_6.1.1.dir/__/__/__/mesh/core/src/transport.c.obj
 .text.transport_init
                0x00028f40       0x84 examples/light_switch/client/CMakeFiles/light_switch_client_nrf52840_xxAA_s140_6.1.1.dir/__/__/__/mesh/core/src/transport.c.obj
                0x00028f40                transport_init
 .text.transport_enable
                0x00028fc4        0x4 examples/light_switch/client/CMakeFiles/light_switch_client_nrf52840_xxAA_s140_6.1.1.dir/__/__/__/mesh/core/src/transport.c.obj
                0x00028fc4                transport_enable
 .text.transport_tx
                0x00028fc8       0xec examples/light_switch/client/CMakeFiles/light_switch_client_nrf52840_xxAA_s140_6.1.1.dir/__/__/__/mesh/core/src/transport.c.obj
                0x00028fc8                transport_tx
 .text.transport_control_tx
                0x000290b4       0x98 examples/light_switch/client/CMakeFiles/light_switch_client_nrf52840_xxAA_s140_6.1.1.dir/__/__/__/mesh/core/src/transport.c.obj
                0x000290b4                transport_control_tx
 .text.sar_ack_send
                0x0002914c       0xa4 examples/light_switch/client/CMakeFiles/light_switch_client_nrf52840_xxAA_s140_6.1.1.dir/__/__/__/mesh/core/src/transport.c.obj
 .text.ack_timeout
                0x000291f0       0x30 examples/light_switch/client/CMakeFiles/light_switch_client_nrf52840_xxAA_s140_6.1.1.dir/__/__/__/mesh/core/src/transport.c.obj
 .text.transport_packet_in
                0x00029220      0x504 examples/light_switch/client/CMakeFiles/light_switch_client_nrf52840_xxAA_s140_6.1.1.dir/__/__/__/mesh/core/src/transport.c.obj
                0x00029220                transport_packet_in
 .text.transport_sar_process
                0x00029724       0x70 examples/light_switch/client/CMakeFiles/light_switch_client_nrf52840_xxAA_s140_6.1.1.dir/__/__/__/mesh/core/src/transport.c.obj
 .text.transport_control_packet_consumer_add
                0x00029794       0x5c examples/light_switch/client/CMakeFiles/light_switch_client_nrf52840_xxAA_s140_6.1.1.dir/__/__/__/mesh/core/src/transport.c.obj
                0x00029794                transport_control_packet_consumer_add
 .text.event_handle
                0x000297f0       0x54 examples/light_switch/client/CMakeFiles/light_switch_client_nrf52840_xxAA_s140_6.1.1.dir/__/__/__/mesh/core/src/event.c.obj
                0x000297f0                event_handle
 .text.event_handler_add
                0x00029844       0x20 examples/light_switch/client/CMakeFiles/light_switch_client_nrf52840_xxAA_s140_6.1.1.dir/__/__/__/mesh/core/src/event.c.obj
                0x00029844                event_handler_add
 .text.event_handler_remove
                0x00029864       0x34 examples/light_switch/client/CMakeFiles/light_switch_client_nrf52840_xxAA_s140_6.1.1.dir/__/__/__/mesh/core/src/event.c.obj
                0x00029864                event_handler_remove
 .text.m_index_increment
                0x00029898       0x1e examples/light_switch/client/CMakeFiles/light_switch_client_nrf52840_xxAA_s140_6.1.1.dir/__/__/__/mesh/core/src/packet_buffer.c.obj
 .text.m_get_next_packet
                0x000298b6       0x1c examples/light_switch/client/CMakeFiles/light_switch_client_nrf52840_xxAA_s140_6.1.1.dir/__/__/__/mesh/core/src/packet_buffer.c.obj
 .text.packet_buffer_init
                0x000298d2       0xac examples/light_switch/client/CMakeFiles/light_switch_client_nrf52840_xxAA_s140_6.1.1.dir/__/__/__/mesh/core/src/packet_buffer.c.obj
                0x000298d2                packet_buffer_init
 .text.packet_buffer_flush
                0x0002997e       0x50 examples/light_switch/client/CMakeFiles/light_switch_client_nrf52840_xxAA_s140_6.1.1.dir/__/__/__/mesh/core/src/packet_buffer.c.obj
                0x0002997e                packet_buffer_flush
 .text.packet_buffer_reserve
                0x000299ce       0xa2 examples/light_switch/client/CMakeFiles/light_switch_client_nrf52840_xxAA_s140_6.1.1.dir/__/__/__/mesh/core/src/packet_buffer.c.obj
                0x000299ce                packet_buffer_reserve
 .text.packet_buffer_commit
                0x00029a70       0x62 examples/light_switch/client/CMakeFiles/light_switch_client_nrf52840_xxAA_s140_6.1.1.dir/__/__/__/mesh/core/src/packet_buffer.c.obj
                0x00029a70                packet_buffer_commit
 .text.packet_buffer_pop
                0x00029ad2       0x5a examples/light_switch/client/CMakeFiles/light_switch_client_nrf52840_xxAA_s140_6.1.1.dir/__/__/__/mesh/core/src/packet_buffer.c.obj
                0x00029ad2                packet_buffer_pop
 .text.packet_buffer_can_pop
                0x00029b2c       0x34 examples/light_switch/client/CMakeFiles/light_switch_client_nrf52840_xxAA_s140_6.1.1.dir/__/__/__/mesh/core/src/packet_buffer.c.obj
                0x00029b2c                packet_buffer_can_pop
 .text.packet_buffer_packets_ready_to_pop
                0x00029b60       0x36 examples/light_switch/client/CMakeFiles/light_switch_client_nrf52840_xxAA_s140_6.1.1.dir/__/__/__/mesh/core/src/packet_buffer.c.obj
                0x00029b60                packet_buffer_packets_ready_to_pop
 .text.packet_buffer_free
                0x00029b96       0x74 examples/light_switch/client/CMakeFiles/light_switch_client_nrf52840_xxAA_s140_6.1.1.dir/__/__/__/mesh/core/src/packet_buffer.c.obj
                0x00029b96                packet_buffer_free
 .text.packet_buffer_is_empty
                0x00029c0a       0x28 examples/light_switch/client/CMakeFiles/light_switch_client_nrf52840_xxAA_s140_6.1.1.dir/__/__/__/mesh/core/src/packet_buffer.c.obj
                0x00029c0a                packet_buffer_is_empty
 .text.get_last_page
                0x00029c32       0x14 examples/light_switch/client/CMakeFiles/light_switch_client_nrf52840_xxAA_s140_6.1.1.dir/__/__/__/mesh/core/src/flash_manager_defrag.c.obj
 *fill*         0x00029c46        0x2 
 .text.defrag_on_end
                0x00029c48       0x1c examples/light_switch/client/CMakeFiles/light_switch_client_nrf52840_xxAA_s140_6.1.1.dir/__/__/__/mesh/core/src/flash_manager_defrag.c.obj
 .text.execute_procedure_step
                0x00029c64       0x70 examples/light_switch/client/CMakeFiles/light_switch_client_nrf52840_xxAA_s140_6.1.1.dir/__/__/__/mesh/core/src/flash_manager_defrag.c.obj
 .text.get_next_entry
                0x00029cd4       0x34 examples/light_switch/client/CMakeFiles/light_switch_client_nrf52840_xxAA_s140_6.1.1.dir/__/__/__/mesh/core/src/flash_manager_defrag.c.obj
 .text.get_next_data_entry
                0x00029d08       0x26 examples/light_switch/client/CMakeFiles/light_switch_client_nrf52840_xxAA_s140_6.1.1.dir/__/__/__/mesh/core/src/flash_manager_defrag.c.obj
 *fill*         0x00029d2e        0x2 
 .text.on_flash_op_end
                0x00029d30       0x30 examples/light_switch/client/CMakeFiles/light_switch_client_nrf52840_xxAA_s140_6.1.1.dir/__/__/__/mesh/core/src/flash_manager_defrag.c.obj
 .text.check_for_invalid_entries
                0x00029d60       0x38 examples/light_switch/client/CMakeFiles/light_switch_client_nrf52840_xxAA_s140_6.1.1.dir/__/__/__/mesh/core/src/flash_manager_defrag.c.obj
 .text.erase_recovery_area
                0x00029d98       0x34 examples/light_switch/client/CMakeFiles/light_switch_client_nrf52840_xxAA_s140_6.1.1.dir/__/__/__/mesh/core/src/flash_manager_defrag.c.obj
 .text.flash.constprop.6
                0x00029dcc       0x24 examples/light_switch/client/CMakeFiles/light_switch_client_nrf52840_xxAA_s140_6.1.1.dir/__/__/__/mesh/core/src/flash_manager_defrag.c.obj
 .text.invalidate_duplicate_entries
                0x00029df0       0xa8 examples/light_switch/client/CMakeFiles/light_switch_client_nrf52840_xxAA_s140_6.1.1.dir/__/__/__/mesh/core/src/flash_manager_defrag.c.obj
 .text.seal_storage_page
                0x00029e98       0x50 examples/light_switch/client/CMakeFiles/light_switch_client_nrf52840_xxAA_s140_6.1.1.dir/__/__/__/mesh/core/src/flash_manager_defrag.c.obj
 .text.copy_metadata
                0x00029ee8       0x3c examples/light_switch/client/CMakeFiles/light_switch_client_nrf52840_xxAA_s140_6.1.1.dir/__/__/__/mesh/core/src/flash_manager_defrag.c.obj
 .text.write_defrag_start_pointer
                0x00029f24       0x20 examples/light_switch/client/CMakeFiles/light_switch_client_nrf52840_xxAA_s140_6.1.1.dir/__/__/__/mesh/core/src/flash_manager_defrag.c.obj
 .text.write_back
                0x00029f44       0x28 examples/light_switch/client/CMakeFiles/light_switch_client_nrf52840_xxAA_s140_6.1.1.dir/__/__/__/mesh/core/src/flash_manager_defrag.c.obj
 .text.post_process
                0x00029f6c       0x40 examples/light_switch/client/CMakeFiles/light_switch_client_nrf52840_xxAA_s140_6.1.1.dir/__/__/__/mesh/core/src/flash_manager_defrag.c.obj
 .text.backup_entries
                0x00029fac       0xd8 examples/light_switch/client/CMakeFiles/light_switch_client_nrf52840_xxAA_s140_6.1.1.dir/__/__/__/mesh/core/src/flash_manager_defrag.c.obj
 .text.erase_source
                0x0002a084       0x34 examples/light_switch/client/CMakeFiles/light_switch_client_nrf52840_xxAA_s140_6.1.1.dir/__/__/__/mesh/core/src/flash_manager_defrag.c.obj
 .text.flash_manager_defrag_init
                0x0002a0b8       0x8c examples/light_switch/client/CMakeFiles/light_switch_client_nrf52840_xxAA_s140_6.1.1.dir/__/__/__/mesh/core/src/flash_manager_defrag.c.obj
                0x0002a0b8                flash_manager_defrag_init
 .text.flash_manager_defragging
                0x0002a144       0x38 examples/light_switch/client/CMakeFiles/light_switch_client_nrf52840_xxAA_s140_6.1.1.dir/__/__/__/mesh/core/src/flash_manager_defrag.c.obj
                0x0002a144                flash_manager_defragging
 .text.flash_manager_defrag_is_running
                0x0002a17c       0x10 examples/light_switch/client/CMakeFiles/light_switch_client_nrf52840_xxAA_s140_6.1.1.dir/__/__/__/mesh/core/src/flash_manager_defrag.c.obj
                0x0002a17c                flash_manager_defrag_is_running
 .text.flash_manager_defrag
                0x0002a18c       0x44 examples/light_switch/client/CMakeFiles/light_switch_client_nrf52840_xxAA_s140_6.1.1.dir/__/__/__/mesh/core/src/flash_manager_defrag.c.obj
                0x0002a18c                flash_manager_defrag
 .text.flash_manager_defrag_recovery_page_get
                0x0002a1d0        0xc examples/light_switch/client/CMakeFiles/light_switch_client_nrf52840_xxAA_s140_6.1.1.dir/__/__/__/mesh/core/src/flash_manager_defrag.c.obj
                0x0002a1d0                flash_manager_defrag_recovery_page_get
 .text.fifo_init
                0x0002a1dc       0x34 examples/light_switch/client/CMakeFiles/light_switch_client_nrf52840_xxAA_s140_6.1.1.dir/__/__/__/mesh/core/src/fifo.c.obj
                0x0002a1dc                fifo_init
 .text.fifo_pop
                0x0002a210       0x52 examples/light_switch/client/CMakeFiles/light_switch_client_nrf52840_xxAA_s140_6.1.1.dir/__/__/__/mesh/core/src/fifo.c.obj
                0x0002a210                fifo_pop
 *fill*         0x0002a262        0x2 
 .text.wait_for_ready
                0x0002a264       0x10 examples/light_switch/client/CMakeFiles/light_switch_client_nrf52840_xxAA_s140_6.1.1.dir/__/__/__/mesh/core/src/nrf_flash.c.obj
 .text.nrf_flash_erase
                0x0002a274       0x50 examples/light_switch/client/CMakeFiles/light_switch_client_nrf52840_xxAA_s140_6.1.1.dir/__/__/__/mesh/core/src/nrf_flash.c.obj
                0x0002a274                nrf_flash_erase
 .text.nrf_flash_write
                0x0002a2c4       0x50 examples/light_switch/client/CMakeFiles/light_switch_client_nrf52840_xxAA_s140_6.1.1.dir/__/__/__/mesh/core/src/nrf_flash.c.obj
                0x0002a2c4                nrf_flash_write
 .text.entry_recover_cb
                0x0002a314       0x18 examples/light_switch/client/CMakeFiles/light_switch_client_nrf52840_xxAA_s140_6.1.1.dir/__/__/__/mesh/core/src/net_state.c.obj
 .text.flash_store_iv_index
                0x0002a32c       0x38 examples/light_switch/client/CMakeFiles/light_switch_client_nrf52840_xxAA_s140_6.1.1.dir/__/__/__/mesh/core/src/net_state.c.obj
 .text.flash_mem_available
                0x0002a364       0x14 examples/light_switch/client/CMakeFiles/light_switch_client_nrf52840_xxAA_s140_6.1.1.dir/__/__/__/mesh/core/src/net_state.c.obj
 .text.iv_index_notify
                0x0002a378       0x30 examples/light_switch/client/CMakeFiles/light_switch_client_nrf52840_xxAA_s140_6.1.1.dir/__/__/__/mesh/core/src/net_state.c.obj
 .text.seqnum_block_allocate
                0x0002a3a8       0x4c examples/light_switch/client/CMakeFiles/light_switch_client_nrf52840_xxAA_s140_6.1.1.dir/__/__/__/mesh/core/src/net_state.c.obj
 .text.net_state_reset
                0x0002a3f4       0x48 examples/light_switch/client/CMakeFiles/light_switch_client_nrf52840_xxAA_s140_6.1.1.dir/__/__/__/mesh/core/src/net_state.c.obj
                0x0002a3f4                net_state_reset
 .text.flash_write_complete
                0x0002a43c       0x64 examples/light_switch/client/CMakeFiles/light_switch_client_nrf52840_xxAA_s140_6.1.1.dir/__/__/__/mesh/core/src/net_state.c.obj
 .text.net_state_recover_from_flash
                0x0002a4a0       0x60 examples/light_switch/client/CMakeFiles/light_switch_client_nrf52840_xxAA_s140_6.1.1.dir/__/__/__/mesh/core/src/net_state.c.obj
                0x0002a4a0                net_state_recover_from_flash
 .text.net_state_flash_area_get
                0x0002a500        0xc examples/light_switch/client/CMakeFiles/light_switch_client_nrf52840_xxAA_s140_6.1.1.dir/__/__/__/mesh/core/src/net_state.c.obj
                0x0002a500                net_state_flash_area_get
 .text.init_flash_storage
                0x0002a50c       0x40 examples/light_switch/client/CMakeFiles/light_switch_client_nrf52840_xxAA_s140_6.1.1.dir/__/__/__/mesh/core/src/net_state.c.obj
 .text.net_state_init
                0x0002a54c       0x44 examples/light_switch/client/CMakeFiles/light_switch_client_nrf52840_xxAA_s140_6.1.1.dir/__/__/__/mesh/core/src/net_state.c.obj
                0x0002a54c                net_state_init
 .text.net_state_enable
                0x0002a590       0x30 examples/light_switch/client/CMakeFiles/light_switch_client_nrf52840_xxAA_s140_6.1.1.dir/__/__/__/mesh/core/src/net_state.c.obj
                0x0002a590                net_state_enable
 .text.net_state_iv_update_start
                0x0002a5c0       0x50 examples/light_switch/client/CMakeFiles/light_switch_client_nrf52840_xxAA_s140_6.1.1.dir/__/__/__/mesh/core/src/net_state.c.obj
                0x0002a5c0                net_state_iv_update_start
 .text.iv_update_trigger_if_pending
                0x0002a610       0x6c examples/light_switch/client/CMakeFiles/light_switch_client_nrf52840_xxAA_s140_6.1.1.dir/__/__/__/mesh/core/src/net_state.c.obj
 .text.iv_update_timer_handler
                0x0002a67c       0x64 examples/light_switch/client/CMakeFiles/light_switch_client_nrf52840_xxAA_s140_6.1.1.dir/__/__/__/mesh/core/src/net_state.c.obj
 .text.mesh_evt_handler
                0x0002a6e0       0x8c examples/light_switch/client/CMakeFiles/light_switch_client_nrf52840_xxAA_s140_6.1.1.dir/__/__/__/mesh/core/src/net_state.c.obj
 .text.net_state_seqnum_alloc
                0x0002a76c       0x68 examples/light_switch/client/CMakeFiles/light_switch_client_nrf52840_xxAA_s140_6.1.1.dir/__/__/__/mesh/core/src/net_state.c.obj
                0x0002a76c                net_state_seqnum_alloc
 .text.net_state_iv_index_lock
                0x0002a7d4       0x3c examples/light_switch/client/CMakeFiles/light_switch_client_nrf52840_xxAA_s140_6.1.1.dir/__/__/__/mesh/core/src/net_state.c.obj
                0x0002a7d4                net_state_iv_index_lock
 .text.net_state_key_refresh_phase_changed
                0x0002a810       0x20 examples/light_switch/client/CMakeFiles/light_switch_client_nrf52840_xxAA_s140_6.1.1.dir/__/__/__/mesh/core/src/net_state.c.obj
                0x0002a810                net_state_key_refresh_phase_changed
 .text.net_state_beacon_iv_index_get
                0x0002a830        0xc examples/light_switch/client/CMakeFiles/light_switch_client_nrf52840_xxAA_s140_6.1.1.dir/__/__/__/mesh/core/src/net_state.c.obj
                0x0002a830                net_state_beacon_iv_index_get
 .text.net_state_tx_iv_index_get
                0x0002a83c       0x14 examples/light_switch/client/CMakeFiles/light_switch_client_nrf52840_xxAA_s140_6.1.1.dir/__/__/__/mesh/core/src/net_state.c.obj
                0x0002a83c                net_state_tx_iv_index_get
 .text.net_state_rx_iv_index_get
                0x0002a850       0x18 examples/light_switch/client/CMakeFiles/light_switch_client_nrf52840_xxAA_s140_6.1.1.dir/__/__/__/mesh/core/src/net_state.c.obj
                0x0002a850                net_state_rx_iv_index_get
 .text.net_state_iv_update_get
                0x0002a868        0xc examples/light_switch/client/CMakeFiles/light_switch_client_nrf52840_xxAA_s140_6.1.1.dir/__/__/__/mesh/core/src/net_state.c.obj
                0x0002a868                net_state_iv_update_get
 .text.net_state_iv_index_set
                0x0002a874       0x34 examples/light_switch/client/CMakeFiles/light_switch_client_nrf52840_xxAA_s140_6.1.1.dir/__/__/__/mesh/core/src/net_state.c.obj
                0x0002a874                net_state_iv_index_set
 .text.send_end_events
                0x0002a8a8       0x84 examples/light_switch/client/CMakeFiles/light_switch_client_nrf52840_xxAA_s140_6.1.1.dir/__/__/__/mesh/core/src/mesh_flash.c.obj
 .text.flash_op_action_prepare
                0x0002a92c       0x78 examples/light_switch/client/CMakeFiles/light_switch_client_nrf52840_xxAA_s140_6.1.1.dir/__/__/__/mesh/core/src/mesh_flash.c.obj
 .text.flash_op_schedule
                0x0002a9a4       0x20 examples/light_switch/client/CMakeFiles/light_switch_client_nrf52840_xxAA_s140_6.1.1.dir/__/__/__/mesh/core/src/mesh_flash.c.obj
 .text.flash_op_start
                0x0002a9c4      0x13c examples/light_switch/client/CMakeFiles/light_switch_client_nrf52840_xxAA_s140_6.1.1.dir/__/__/__/mesh/core/src/mesh_flash.c.obj
 .text.mesh_flash_init
                0x0002ab00       0x7c examples/light_switch/client/CMakeFiles/light_switch_client_nrf52840_xxAA_s140_6.1.1.dir/__/__/__/mesh/core/src/mesh_flash.c.obj
                0x0002ab00                mesh_flash_init
 .text.mesh_flash_user_callback_set
                0x0002ab7c       0x20 examples/light_switch/client/CMakeFiles/light_switch_client_nrf52840_xxAA_s140_6.1.1.dir/__/__/__/mesh/core/src/mesh_flash.c.obj
                0x0002ab7c                mesh_flash_user_callback_set
 .text.mesh_flash_op_push
                0x0002ab9c      0x10c examples/light_switch/client/CMakeFiles/light_switch_client_nrf52840_xxAA_s140_6.1.1.dir/__/__/__/mesh/core/src/mesh_flash.c.obj
                0x0002ab9c                mesh_flash_op_push
 .text.mesh_flash_set_suspended
                0x0002aca8       0x70 examples/light_switch/client/CMakeFiles/light_switch_client_nrf52840_xxAA_s140_6.1.1.dir/__/__/__/mesh/core/src/mesh_flash.c.obj
                0x0002aca8                mesh_flash_set_suspended
 .text.nrf_mesh_address_type_get
                0x0002ad18       0x10 examples/light_switch/client/CMakeFiles/light_switch_client_nrf52840_xxAA_s140_6.1.1.dir/__/__/__/mesh/core/src/nrf_mesh_utils.c.obj
                0x0002ad18                nrf_mesh_address_type_get
 .text.sd_softdevice_is_enabled
                0x0002ad28        0x4 examples/light_switch/client/CMakeFiles/light_switch_client_nrf52840_xxAA_s140_6.1.1.dir/__/__/__/mesh/core/src/nrf_mesh.c.obj
 .text.nrf_mesh_listen
                0x0002ad2c      0x138 examples/light_switch/client/CMakeFiles/light_switch_client_nrf52840_xxAA_s140_6.1.1.dir/__/__/__/mesh/core/src/nrf_mesh.c.obj
 .text.scanner_packet_process_cb
                0x0002ae64       0x8c examples/light_switch/client/CMakeFiles/light_switch_client_nrf52840_xxAA_s140_6.1.1.dir/__/__/__/mesh/core/src/nrf_mesh.c.obj
 .text.bearer_stopped_cb
                0x0002aef0       0x30 examples/light_switch/client/CMakeFiles/light_switch_client_nrf52840_xxAA_s140_6.1.1.dir/__/__/__/mesh/core/src/nrf_mesh.c.obj
 .text.nrf_mesh_init
                0x0002af20       0xe8 examples/light_switch/client/CMakeFiles/light_switch_client_nrf52840_xxAA_s140_6.1.1.dir/__/__/__/mesh/core/src/nrf_mesh.c.obj
                0x0002af20                nrf_mesh_init
 .text.nrf_mesh_enable
                0x0002b008       0xac examples/light_switch/client/CMakeFiles/light_switch_client_nrf52840_xxAA_s140_6.1.1.dir/__/__/__/mesh/core/src/nrf_mesh.c.obj
                0x0002b008                nrf_mesh_enable
 .text.nrf_mesh_disable
                0x0002b0b4       0x2c examples/light_switch/client/CMakeFiles/light_switch_client_nrf52840_xxAA_s140_6.1.1.dir/__/__/__/mesh/core/src/nrf_mesh.c.obj
                0x0002b0b4                nrf_mesh_disable
 .text.nrf_mesh_packet_send
                0x0002b0e0        0x4 examples/light_switch/client/CMakeFiles/light_switch_client_nrf52840_xxAA_s140_6.1.1.dir/__/__/__/mesh/core/src/nrf_mesh.c.obj
                0x0002b0e0                nrf_mesh_packet_send
 .text.nrf_mesh_evt_handler_add
                0x0002b0e4        0x4 examples/light_switch/client/CMakeFiles/light_switch_client_nrf52840_xxAA_s140_6.1.1.dir/__/__/__/mesh/core/src/nrf_mesh.c.obj
                0x0002b0e4                nrf_mesh_evt_handler_add
 .text.nrf_mesh_evt_handler_remove
                0x0002b0e8        0x4 examples/light_switch/client/CMakeFiles/light_switch_client_nrf52840_xxAA_s140_6.1.1.dir/__/__/__/mesh/core/src/nrf_mesh.c.obj
                0x0002b0e8                nrf_mesh_evt_handler_remove
 .text.nrf_mesh_on_sd_evt
                0x0002b0ec        0xa examples/light_switch/client/CMakeFiles/light_switch_client_nrf52840_xxAA_s140_6.1.1.dir/__/__/__/mesh/core/src/nrf_mesh.c.obj
                0x0002b0ec                nrf_mesh_on_sd_evt
 .text.nrf_mesh_subnet_added
                0x0002b0f6        0x4 examples/light_switch/client/CMakeFiles/light_switch_client_nrf52840_xxAA_s140_6.1.1.dir/__/__/__/mesh/core/src/nrf_mesh.c.obj
                0x0002b0f6                nrf_mesh_subnet_added
 *fill*         0x0002b0fa        0x2 
 .text.nrf_mesh_unique_token_get
                0x0002b0fc       0x18 examples/light_switch/client/CMakeFiles/light_switch_client_nrf52840_xxAA_s140_6.1.1.dir/__/__/__/mesh/core/src/nrf_mesh.c.obj
                0x0002b0fc                nrf_mesh_unique_token_get
 .text.queue_init
                0x0002b114       0x14 examples/light_switch/client/CMakeFiles/light_switch_client_nrf52840_xxAA_s140_6.1.1.dir/__/__/__/mesh/core/src/queue.c.obj
                0x0002b114                queue_init
 .text.queue_push
                0x0002b128       0x34 examples/light_switch/client/CMakeFiles/light_switch_client_nrf52840_xxAA_s140_6.1.1.dir/__/__/__/mesh/core/src/queue.c.obj
                0x0002b128                queue_push
 .text.queue_pop
                0x0002b15c       0x26 examples/light_switch/client/CMakeFiles/light_switch_client_nrf52840_xxAA_s140_6.1.1.dir/__/__/__/mesh/core/src/queue.c.obj
                0x0002b15c                queue_pop
 .text.queue_peek
                0x0002b182       0x10 examples/light_switch/client/CMakeFiles/light_switch_client_nrf52840_xxAA_s140_6.1.1.dir/__/__/__/mesh/core/src/queue.c.obj
                0x0002b182                queue_peek
 .text.sd_power_reset_reason_clr
                0x0002b192        0x4 examples/light_switch/client/CMakeFiles/light_switch_client_nrf52840_xxAA_s140_6.1.1.dir/__/__/__/mesh/core/src/hal.c.obj
 *fill*         0x0002b196        0x2 
 .text.hal_device_reset
                0x0002b198       0x2c examples/light_switch/client/CMakeFiles/light_switch_client_nrf52840_xxAA_s140_6.1.1.dir/__/__/__/mesh/core/src/hal.c.obj
                0x0002b198                hal_device_reset
 .text.hal_lfclk_ppm_get
                0x0002b1c4       0x14 examples/light_switch/client/CMakeFiles/light_switch_client_nrf52840_xxAA_s140_6.1.1.dir/__/__/__/mesh/core/src/hal.c.obj
                0x0002b1c4                hal_lfclk_ppm_get
 .text.hal_irq_active_get
                0x0002b1d8       0x10 examples/light_switch/client/CMakeFiles/light_switch_client_nrf52840_xxAA_s140_6.1.1.dir/__/__/__/mesh/core/src/hal.c.obj
                0x0002b1d8                hal_irq_active_get
 .text.hal_irq_is_enabled
                0x0002b1e8       0x28 examples/light_switch/client/CMakeFiles/light_switch_client_nrf52840_xxAA_s140_6.1.1.dir/__/__/__/mesh/core/src/hal.c.obj
                0x0002b1e8                hal_irq_is_enabled
 .text.sd_ecb_block_encrypt
                0x0002b210        0x4 examples/light_switch/client/CMakeFiles/light_switch_client_nrf52840_xxAA_s140_6.1.1.dir/__/__/__/mesh/core/src/aes_cmac.c.obj
 .text.utils_xor.constprop.1
                0x0002b214       0x20 examples/light_switch/client/CMakeFiles/light_switch_client_nrf52840_xxAA_s140_6.1.1.dir/__/__/__/mesh/core/src/aes_cmac.c.obj
 .text.aes_cmac
                0x0002b234      0x10c examples/light_switch/client/CMakeFiles/light_switch_client_nrf52840_xxAA_s140_6.1.1.dir/__/__/__/mesh/core/src/aes_cmac.c.obj
                0x0002b234                aes_cmac
 .text.add_evt  0x0002b340       0x50 examples/light_switch/client/CMakeFiles/light_switch_client_nrf52840_xxAA_s140_6.1.1.dir/__/__/__/mesh/core/src/timer_scheduler.c.obj
 .text.remove_evt
                0x0002b390       0x50 examples/light_switch/client/CMakeFiles/light_switch_client_nrf52840_xxAA_s140_6.1.1.dir/__/__/__/mesh/core/src/timer_scheduler.c.obj
 .text.timer_cb
                0x0002b3e0        0xc examples/light_switch/client/CMakeFiles/light_switch_client_nrf52840_xxAA_s140_6.1.1.dir/__/__/__/mesh/core/src/timer_scheduler.c.obj
 .text.setup_timeout.isra.0
                0x0002b3ec       0x1c examples/light_switch/client/CMakeFiles/light_switch_client_nrf52840_xxAA_s140_6.1.1.dir/__/__/__/mesh/core/src/timer_scheduler.c.obj
 .text.flag_event_cb
                0x0002b408       0xa4 examples/light_switch/client/CMakeFiles/light_switch_client_nrf52840_xxAA_s140_6.1.1.dir/__/__/__/mesh/core/src/timer_scheduler.c.obj
 .text.timer_sch_init
                0x0002b4ac       0x2c examples/light_switch/client/CMakeFiles/light_switch_client_nrf52840_xxAA_s140_6.1.1.dir/__/__/__/mesh/core/src/timer_scheduler.c.obj
                0x0002b4ac                timer_sch_init
 .text.timer_sch_schedule
                0x0002b4d8       0x44 examples/light_switch/client/CMakeFiles/light_switch_client_nrf52840_xxAA_s140_6.1.1.dir/__/__/__/mesh/core/src/timer_scheduler.c.obj
                0x0002b4d8                timer_sch_schedule
 .text.timer_sch_abort
                0x0002b51c       0x2e examples/light_switch/client/CMakeFiles/light_switch_client_nrf52840_xxAA_s140_6.1.1.dir/__/__/__/mesh/core/src/timer_scheduler.c.obj
                0x0002b51c                timer_sch_abort
 .text.timer_sch_reschedule
                0x0002b54a       0x38 examples/light_switch/client/CMakeFiles/light_switch_client_nrf52840_xxAA_s140_6.1.1.dir/__/__/__/mesh/core/src/timer_scheduler.c.obj
                0x0002b54a                timer_sch_reschedule
 .text.timer_init
                0x0002b582       0x1a examples/light_switch/client/CMakeFiles/light_switch_client_nrf52840_xxAA_s140_6.1.1.dir/__/__/__/mesh/core/src/timer.c.obj
                0x0002b582                timer_init
 .text.timer_now
                0x0002b59c       0x48 examples/light_switch/client/CMakeFiles/light_switch_client_nrf52840_xxAA_s140_6.1.1.dir/__/__/__/mesh/core/src/timer.c.obj
                0x0002b59c                timer_now
 .text.nrf_mesh_timer_tail_handle
                0x0002b5e4       0x34 examples/light_switch/client/CMakeFiles/light_switch_client_nrf52840_xxAA_s140_6.1.1.dir/__/__/__/mesh/core/src/timer.c.obj
                0x0002b5e4                nrf_mesh_timer_tail_handle
 .text.nrf_mesh_timer_ovfw_handle
                0x0002b618       0x98 examples/light_switch/client/CMakeFiles/light_switch_client_nrf52840_xxAA_s140_6.1.1.dir/__/__/__/mesh/core/src/timer.c.obj
                0x0002b618                nrf_mesh_timer_ovfw_handle
 .text.timer_start
                0x0002b6b0       0xac examples/light_switch/client/CMakeFiles/light_switch_client_nrf52840_xxAA_s140_6.1.1.dir/__/__/__/mesh/core/src/timer.c.obj
                0x0002b6b0                timer_start
 .text.timer_stop
                0x0002b75c       0x30 examples/light_switch/client/CMakeFiles/light_switch_client_nrf52840_xxAA_s140_6.1.1.dir/__/__/__/mesh/core/src/timer.c.obj
                0x0002b75c                timer_stop
 .text.sd_rand_application_bytes_available_get
                0x0002b78c        0x4 examples/light_switch/client/CMakeFiles/light_switch_client_nrf52840_xxAA_s140_6.1.1.dir/__/__/__/mesh/core/src/rand.c.obj
 .text.sd_rand_application_vector_get
                0x0002b790        0x4 examples/light_switch/client/CMakeFiles/light_switch_client_nrf52840_xxAA_s140_6.1.1.dir/__/__/__/mesh/core/src/rand.c.obj
 .text.rand_prng_get
                0x0002b794       0x24 examples/light_switch/client/CMakeFiles/light_switch_client_nrf52840_xxAA_s140_6.1.1.dir/__/__/__/mesh/core/src/rand.c.obj
                0x0002b794                rand_prng_get
 .text.rand_hw_rng_get
                0x0002b7b8       0x44 examples/light_switch/client/CMakeFiles/light_switch_client_nrf52840_xxAA_s140_6.1.1.dir/__/__/__/mesh/core/src/rand.c.obj
                0x0002b7b8                rand_hw_rng_get
 .text.rand_prng_seed
                0x0002b7fc       0x34 examples/light_switch/client/CMakeFiles/light_switch_client_nrf52840_xxAA_s140_6.1.1.dir/__/__/__/mesh/core/src/rand.c.obj
                0x0002b7fc                rand_prng_seed
 .text.mesh_opt_init
                0x0002b830        0x2 examples/light_switch/client/CMakeFiles/light_switch_client_nrf52840_xxAA_s140_6.1.1.dir/__/__/__/mesh/core/src/mesh_opt.c.obj
                0x0002b830                mesh_opt_init
 .text.sd_radio_session_open
                0x0002b832        0x4 examples/light_switch/client/CMakeFiles/light_switch_client_nrf52840_xxAA_s140_6.1.1.dir/__/__/__/mesh/core/src/timeslot.c.obj
 .text.sd_radio_session_close
                0x0002b836        0x4 examples/light_switch/client/CMakeFiles/light_switch_client_nrf52840_xxAA_s140_6.1.1.dir/__/__/__/mesh/core/src/timeslot.c.obj
 .text.sd_radio_request
                0x0002b83a        0x4 examples/light_switch/client/CMakeFiles/light_switch_client_nrf52840_xxAA_s140_6.1.1.dir/__/__/__/mesh/core/src/timeslot.c.obj
 *fill*         0x0002b83e        0x2 
 .text.end_timer_handler
                0x0002b840       0x24 examples/light_switch/client/CMakeFiles/light_switch_client_nrf52840_xxAA_s140_6.1.1.dir/__/__/__/mesh/core/src/timeslot.c.obj
 .text.get_end_time.isra.3
                0x0002b864       0x20 examples/light_switch/client/CMakeFiles/light_switch_client_nrf52840_xxAA_s140_6.1.1.dir/__/__/__/mesh/core/src/timeslot.c.obj
 .text.on_ts_begin.constprop.9
                0x0002b884       0x48 examples/light_switch/client/CMakeFiles/light_switch_client_nrf52840_xxAA_s140_6.1.1.dir/__/__/__/mesh/core/src/timeslot.c.obj
 .text.handle_extend_end.constprop.5
                0x0002b8cc       0x88 examples/light_switch/client/CMakeFiles/light_switch_client_nrf52840_xxAA_s140_6.1.1.dir/__/__/__/mesh/core/src/timeslot.c.obj
 .text.radio_signal_callback
                0x0002b954      0x12c examples/light_switch/client/CMakeFiles/light_switch_client_nrf52840_xxAA_s140_6.1.1.dir/__/__/__/mesh/core/src/timeslot.c.obj
 .text.timeslot_sd_event_handler
                0x0002ba80       0x60 examples/light_switch/client/CMakeFiles/light_switch_client_nrf52840_xxAA_s140_6.1.1.dir/__/__/__/mesh/core/src/timeslot.c.obj
                0x0002ba80                timeslot_sd_event_handler
 .text.timeslot_init
                0x0002bae0       0x50 examples/light_switch/client/CMakeFiles/light_switch_client_nrf52840_xxAA_s140_6.1.1.dir/__/__/__/mesh/core/src/timeslot.c.obj
                0x0002bae0                timeslot_init
 .text.timeslot_start
                0x0002bb30       0x48 examples/light_switch/client/CMakeFiles/light_switch_client_nrf52840_xxAA_s140_6.1.1.dir/__/__/__/mesh/core/src/timeslot.c.obj
                0x0002bb30                timeslot_start
 .text.timeslot_end_is_pending
                0x0002bb78       0x28 examples/light_switch/client/CMakeFiles/light_switch_client_nrf52840_xxAA_s140_6.1.1.dir/__/__/__/mesh/core/src/timeslot.c.obj
                0x0002bb78                timeslot_end_is_pending
 .text.timeslot_length_get
                0x0002bba0        0xc examples/light_switch/client/CMakeFiles/light_switch_client_nrf52840_xxAA_s140_6.1.1.dir/__/__/__/mesh/core/src/timeslot.c.obj
                0x0002bba0                timeslot_length_get
 .text.timeslot_remaining_time_get
                0x0002bbac       0x24 examples/light_switch/client/CMakeFiles/light_switch_client_nrf52840_xxAA_s140_6.1.1.dir/__/__/__/mesh/core/src/timeslot.c.obj
                0x0002bbac                timeslot_remaining_time_get
 .text.timeslot_is_in_ts
                0x0002bbd0        0xc examples/light_switch/client/CMakeFiles/light_switch_client_nrf52840_xxAA_s140_6.1.1.dir/__/__/__/mesh/core/src/timeslot.c.obj
                0x0002bbd0                timeslot_is_in_ts
 .text.timeslot_is_in_cb
                0x0002bbdc        0xc examples/light_switch/client/CMakeFiles/light_switch_client_nrf52840_xxAA_s140_6.1.1.dir/__/__/__/mesh/core/src/timeslot.c.obj
                0x0002bbdc                timeslot_is_in_cb
 .text.timeslot_session_is_active
                0x0002bbe8       0x10 examples/light_switch/client/CMakeFiles/light_switch_client_nrf52840_xxAA_s140_6.1.1.dir/__/__/__/mesh/core/src/timeslot.c.obj
                0x0002bbe8                timeslot_session_is_active
 .text.timeslot_trigger
                0x0002bbf8       0x24 examples/light_switch/client/CMakeFiles/light_switch_client_nrf52840_xxAA_s140_6.1.1.dir/__/__/__/mesh/core/src/timeslot.c.obj
                0x0002bbf8                timeslot_trigger
 .text.timeslot_stop
                0x0002bc1c       0x1c examples/light_switch/client/CMakeFiles/light_switch_client_nrf52840_xxAA_s140_6.1.1.dir/__/__/__/mesh/core/src/timeslot.c.obj
                0x0002bc1c                timeslot_stop
 .text.timeslot_restart
                0x0002bc38       0x24 examples/light_switch/client/CMakeFiles/light_switch_client_nrf52840_xxAA_s140_6.1.1.dir/__/__/__/mesh/core/src/timeslot.c.obj
                0x0002bc38                timeslot_restart
 .text.timeslot_state_lock
                0x0002bc5c       0x24 examples/light_switch/client/CMakeFiles/light_switch_client_nrf52840_xxAA_s140_6.1.1.dir/__/__/__/mesh/core/src/timeslot.c.obj
                0x0002bc5c                timeslot_state_lock
 .text.timer_mut_unlock
                0x0002bc80       0x10 examples/light_switch/client/CMakeFiles/light_switch_client_nrf52840_xxAA_s140_6.1.1.dir/__/__/__/mesh/core/src/timeslot_timer.c.obj
 .text.ts_timer_order_cb
                0x0002bc90       0x64 examples/light_switch/client/CMakeFiles/light_switch_client_nrf52840_xxAA_s140_6.1.1.dir/__/__/__/mesh/core/src/timeslot_timer.c.obj
                0x0002bc90                ts_timer_order_cb
 .text.ts_timer_now
                0x0002bcf4       0x40 examples/light_switch/client/CMakeFiles/light_switch_client_nrf52840_xxAA_s140_6.1.1.dir/__/__/__/mesh/core/src/timeslot_timer.c.obj
                0x0002bcf4                ts_timer_now
 .text.ts_timer_event_handler
                0x0002bd34       0x68 examples/light_switch/client/CMakeFiles/light_switch_client_nrf52840_xxAA_s140_6.1.1.dir/__/__/__/mesh/core/src/timeslot_timer.c.obj
                0x0002bd34                ts_timer_event_handler
 .text.ts_timer_to_device_time
                0x0002bd9c        0xc examples/light_switch/client/CMakeFiles/light_switch_client_nrf52840_xxAA_s140_6.1.1.dir/__/__/__/mesh/core/src/timeslot_timer.c.obj
                0x0002bd9c                ts_timer_to_device_time
 .text.ts_timer_on_ts_begin
                0x0002bda8       0x64 examples/light_switch/client/CMakeFiles/light_switch_client_nrf52840_xxAA_s140_6.1.1.dir/__/__/__/mesh/core/src/timeslot_timer.c.obj
                0x0002bda8                ts_timer_on_ts_begin
 .text.ts_timer_on_ts_end
                0x0002be0c       0x48 examples/light_switch/client/CMakeFiles/light_switch_client_nrf52840_xxAA_s140_6.1.1.dir/__/__/__/mesh/core/src/timeslot_timer.c.obj
                0x0002be0c                ts_timer_on_ts_end
 .text.trigger_event_handler
                0x0002be54       0x1c examples/light_switch/client/CMakeFiles/light_switch_client_nrf52840_xxAA_s140_6.1.1.dir/__/__/__/mesh/core/src/bearer_event.c.obj
 .text.bearer_event_init
                0x0002be70       0x58 examples/light_switch/client/CMakeFiles/light_switch_client_nrf52840_xxAA_s140_6.1.1.dir/__/__/__/mesh/core/src/bearer_event.c.obj
                0x0002be70                bearer_event_init
 .text.bearer_event_start
                0x0002bec8       0x44 examples/light_switch/client/CMakeFiles/light_switch_client_nrf52840_xxAA_s140_6.1.1.dir/__/__/__/mesh/core/src/bearer_event.c.obj
                0x0002bec8                bearer_event_start
 .text.bearer_event_critical_section_begin
                0x0002bf0c       0x80 examples/light_switch/client/CMakeFiles/light_switch_client_nrf52840_xxAA_s140_6.1.1.dir/__/__/__/mesh/core/src/bearer_event.c.obj
                0x0002bf0c                bearer_event_critical_section_begin
 .text.bearer_event_critical_section_end
                0x0002bf8c       0x60 examples/light_switch/client/CMakeFiles/light_switch_client_nrf52840_xxAA_s140_6.1.1.dir/__/__/__/mesh/core/src/bearer_event.c.obj
                0x0002bf8c                bearer_event_critical_section_end
 .text.bearer_event_flag_add
                0x0002bfec       0x3c examples/light_switch/client/CMakeFiles/light_switch_client_nrf52840_xxAA_s140_6.1.1.dir/__/__/__/mesh/core/src/bearer_event.c.obj
                0x0002bfec                bearer_event_flag_add
 .text.bearer_event_flag_set
                0x0002c028       0x44 examples/light_switch/client/CMakeFiles/light_switch_client_nrf52840_xxAA_s140_6.1.1.dir/__/__/__/mesh/core/src/bearer_event.c.obj
                0x0002c028                bearer_event_flag_set
 .text.bearer_event_sequential_add
                0x0002c06c       0x2e examples/light_switch/client/CMakeFiles/light_switch_client_nrf52840_xxAA_s140_6.1.1.dir/__/__/__/mesh/core/src/bearer_event.c.obj
                0x0002c06c                bearer_event_sequential_add
 *fill*         0x0002c09a        0x2 
 .text.bearer_event_sequential_post
                0x0002c09c       0x44 examples/light_switch/client/CMakeFiles/light_switch_client_nrf52840_xxAA_s140_6.1.1.dir/__/__/__/mesh/core/src/bearer_event.c.obj
                0x0002c09c                bearer_event_sequential_post
 .text.bearer_event_sequential_pending
                0x0002c0e0       0x10 examples/light_switch/client/CMakeFiles/light_switch_client_nrf52840_xxAA_s140_6.1.1.dir/__/__/__/mesh/core/src/bearer_event.c.obj
                0x0002c0e0                bearer_event_sequential_pending
 .text.bearer_event_handler
                0x0002c0f0       0xe4 examples/light_switch/client/CMakeFiles/light_switch_client_nrf52840_xxAA_s140_6.1.1.dir/__/__/__/mesh/core/src/bearer_event.c.obj
                0x0002c0f0                bearer_event_handler
 .text.QDEC_IRQHandler
                0x0002c1d4        0x4 examples/light_switch/client/CMakeFiles/light_switch_client_nrf52840_xxAA_s140_6.1.1.dir/__/__/__/mesh/core/src/bearer_event.c.obj
                0x0002c1d4                QDEC_IRQHandler
 .text.bearer_event_in_correct_irq_priority
                0x0002c1d8       0x74 examples/light_switch/client/CMakeFiles/light_switch_client_nrf52840_xxAA_s140_6.1.1.dir/__/__/__/mesh/core/src/bearer_event.c.obj
                0x0002c1d8                bearer_event_in_correct_irq_priority
 .text.sd_ecb_block_encrypt
                0x0002c24c        0x4 examples/light_switch/client/CMakeFiles/light_switch_client_nrf52840_xxAA_s140_6.1.1.dir/__/__/__/mesh/core/src/enc.c.obj
 .text.enc_aes_encrypt
                0x0002c250       0x32 examples/light_switch/client/CMakeFiles/light_switch_client_nrf52840_xxAA_s140_6.1.1.dir/__/__/__/mesh/core/src/enc.c.obj
                0x0002c250                enc_aes_encrypt
 .text.enc_aes_cmac
                0x0002c282        0x4 examples/light_switch/client/CMakeFiles/light_switch_client_nrf52840_xxAA_s140_6.1.1.dir/__/__/__/mesh/core/src/enc.c.obj
                0x0002c282                enc_aes_cmac
 .text.enc_aes_ccm_encrypt
                0x0002c286        0x4 examples/light_switch/client/CMakeFiles/light_switch_client_nrf52840_xxAA_s140_6.1.1.dir/__/__/__/mesh/core/src/enc.c.obj
                0x0002c286                enc_aes_ccm_encrypt
 .text.enc_aes_ccm_decrypt
                0x0002c28a        0x4 examples/light_switch/client/CMakeFiles/light_switch_client_nrf52840_xxAA_s140_6.1.1.dir/__/__/__/mesh/core/src/enc.c.obj
                0x0002c28a                enc_aes_ccm_decrypt
 .text.enc_nonce_generate
                0x0002c28e       0xbc examples/light_switch/client/CMakeFiles/light_switch_client_nrf52840_xxAA_s140_6.1.1.dir/__/__/__/mesh/core/src/enc.c.obj
                0x0002c28e                enc_nonce_generate
 .text.enc_s1   0x0002c34a       0x2c examples/light_switch/client/CMakeFiles/light_switch_client_nrf52840_xxAA_s140_6.1.1.dir/__/__/__/mesh/core/src/enc.c.obj
                0x0002c34a                enc_s1
 .text.enc_k1   0x0002c376       0x3c examples/light_switch/client/CMakeFiles/light_switch_client_nrf52840_xxAA_s140_6.1.1.dir/__/__/__/mesh/core/src/enc.c.obj
                0x0002c376                enc_k1
 *fill*         0x0002c3b2        0x2 
 .text.enc_k2   0x0002c3b4       0xc0 examples/light_switch/client/CMakeFiles/light_switch_client_nrf52840_xxAA_s140_6.1.1.dir/__/__/__/mesh/core/src/enc.c.obj
                0x0002c3b4                enc_k2
 .text.enc_k3   0x0002c474       0x5c examples/light_switch/client/CMakeFiles/light_switch_client_nrf52840_xxAA_s140_6.1.1.dir/__/__/__/mesh/core/src/enc.c.obj
                0x0002c474                enc_k3
 .text.enc_k4   0x0002c4d0       0x54 examples/light_switch/client/CMakeFiles/light_switch_client_nrf52840_xxAA_s140_6.1.1.dir/__/__/__/mesh/core/src/enc.c.obj
                0x0002c4d0                enc_k4
 .text.allocate_packet
                0x0002c524       0x6e examples/light_switch/client/CMakeFiles/light_switch_client_nrf52840_xxAA_s140_6.1.1.dir/__/__/__/mesh/core/src/network.c.obj
 *fill*         0x0002c592        0x2 
 .text.network_init
                0x0002c594       0x24 examples/light_switch/client/CMakeFiles/light_switch_client_nrf52840_xxAA_s140_6.1.1.dir/__/__/__/mesh/core/src/network.c.obj
                0x0002c594                network_init
 .text.network_enable
                0x0002c5b8        0xe examples/light_switch/client/CMakeFiles/light_switch_client_nrf52840_xxAA_s140_6.1.1.dir/__/__/__/mesh/core/src/network.c.obj
                0x0002c5b8                network_enable
 .text.network_packet_alloc
                0x0002c5c6       0x42 examples/light_switch/client/CMakeFiles/light_switch_client_nrf52840_xxAA_s140_6.1.1.dir/__/__/__/mesh/core/src/network.c.obj
                0x0002c5c6                network_packet_alloc
 .text.network_packet_send
                0x0002c608       0xe0 examples/light_switch/client/CMakeFiles/light_switch_client_nrf52840_xxAA_s140_6.1.1.dir/__/__/__/mesh/core/src/network.c.obj
                0x0002c608                network_packet_send
 .text.network_packet_in
                0x0002c6e8      0x2dc examples/light_switch/client/CMakeFiles/light_switch_client_nrf52840_xxAA_s140_6.1.1.dir/__/__/__/mesh/core/src/network.c.obj
                0x0002c6e8                network_packet_in
 .text.nonce_type_get
                0x0002c9c4       0x16 examples/light_switch/client/CMakeFiles/light_switch_client_nrf52840_xxAA_s140_6.1.1.dir/__/__/__/mesh/core/src/net_packet.c.obj
 .text.header_transfuscate
                0x0002c9da       0x54 examples/light_switch/client/CMakeFiles/light_switch_client_nrf52840_xxAA_s140_6.1.1.dir/__/__/__/mesh/core/src/net_packet.c.obj
 *fill*         0x0002ca2e        0x2 
 .text.try_decrypt
                0x0002ca30      0x18c examples/light_switch/client/CMakeFiles/light_switch_client_nrf52840_xxAA_s140_6.1.1.dir/__/__/__/mesh/core/src/net_packet.c.obj
 .text.net_packet_decrypt
                0x0002cbbc       0x94 examples/light_switch/client/CMakeFiles/light_switch_client_nrf52840_xxAA_s140_6.1.1.dir/__/__/__/mesh/core/src/net_packet.c.obj
                0x0002cbbc                net_packet_decrypt
 .text.net_packet_encrypt
                0x0002cc50       0x7e examples/light_switch/client/CMakeFiles/light_switch_client_nrf52840_xxAA_s140_6.1.1.dir/__/__/__/mesh/core/src/net_packet.c.obj
                0x0002cc50                net_packet_encrypt
 .text.net_packet_header_set
                0x0002ccce       0xaa examples/light_switch/client/CMakeFiles/light_switch_client_nrf52840_xxAA_s140_6.1.1.dir/__/__/__/mesh/core/src/net_packet.c.obj
                0x0002ccce                net_packet_header_set
 .text.net_packet_payload_len_get
                0x0002cd78       0x10 examples/light_switch/client/CMakeFiles/light_switch_client_nrf52840_xxAA_s140_6.1.1.dir/__/__/__/mesh/core/src/net_packet.c.obj
                0x0002cd78                net_packet_payload_len_get
 .text.net_packet_from_payload
                0x0002cd88        0x4 examples/light_switch/client/CMakeFiles/light_switch_client_nrf52840_xxAA_s140_6.1.1.dir/__/__/__/mesh/core/src/net_packet.c.obj
                0x0002cd88                net_packet_from_payload
 .text.net_packet_payload_get
                0x0002cd8c        0x4 examples/light_switch/client/CMakeFiles/light_switch_client_nrf52840_xxAA_s140_6.1.1.dir/__/__/__/mesh/core/src/net_packet.c.obj
                0x0002cd8c                net_packet_payload_get
 .text.net_packet_obfuscation_start_get
                0x0002cd90        0x4 examples/light_switch/client/CMakeFiles/light_switch_client_nrf52840_xxAA_s140_6.1.1.dir/__/__/__/mesh/core/src/net_packet.c.obj
                0x0002cd90                net_packet_obfuscation_start_get
 .text.stage_get_available
                0x0002cd94       0x24 examples/light_switch/client/CMakeFiles/light_switch_client_nrf52840_xxAA_s140_6.1.1.dir/__/__/__/mesh/core/src/msqueue.c.obj
 .text.msq_get  0x0002cdb8       0x38 examples/light_switch/client/CMakeFiles/light_switch_client_nrf52840_xxAA_s140_6.1.1.dir/__/__/__/mesh/core/src/msqueue.c.obj
                0x0002cdb8                msq_get
 .text.msq_move
                0x0002cdf0       0x2e examples/light_switch/client/CMakeFiles/light_switch_client_nrf52840_xxAA_s140_6.1.1.dir/__/__/__/mesh/core/src/msqueue.c.obj
                0x0002cdf0                msq_move
 .text.msq_reset
                0x0002ce1e       0x20 examples/light_switch/client/CMakeFiles/light_switch_client_nrf52840_xxAA_s140_6.1.1.dir/__/__/__/mesh/core/src/msqueue.c.obj
                0x0002ce1e                msq_reset
 .text.msq_init
                0x0002ce3e       0x48 examples/light_switch/client/CMakeFiles/light_switch_client_nrf52840_xxAA_s140_6.1.1.dir/__/__/__/mesh/core/src/msqueue.c.obj
                0x0002ce3e                msq_init
 .text.msq_available
                0x0002ce86       0x26 examples/light_switch/client/CMakeFiles/light_switch_client_nrf52840_xxAA_s140_6.1.1.dir/__/__/__/mesh/core/src/msqueue.c.obj
                0x0002ce86                msq_available
 .text.nrf_mesh_keygen_aid
                0x0002ceac       0x12 examples/light_switch/client/CMakeFiles/light_switch_client_nrf52840_xxAA_s140_6.1.1.dir/__/__/__/mesh/core/src/nrf_mesh_keygen.c.obj
                0x0002ceac                nrf_mesh_keygen_aid
 .text.nrf_mesh_keygen_network_secmat
                0x0002cebe       0x20 examples/light_switch/client/CMakeFiles/light_switch_client_nrf52840_xxAA_s140_6.1.1.dir/__/__/__/mesh/core/src/nrf_mesh_keygen.c.obj
                0x0002cebe                nrf_mesh_keygen_network_secmat
 *fill*         0x0002cede        0x2 
 .text.nrf_mesh_keygen_beacon_secmat
                0x0002cee0       0x50 examples/light_switch/client/CMakeFiles/light_switch_client_nrf52840_xxAA_s140_6.1.1.dir/__/__/__/mesh/core/src/nrf_mesh_keygen.c.obj
                0x0002cee0                nrf_mesh_keygen_beacon_secmat
 .text.nrf_mesh_keygen_identitykey
                0x0002cf30       0x4c examples/light_switch/client/CMakeFiles/light_switch_client_nrf52840_xxAA_s140_6.1.1.dir/__/__/__/mesh/core/src/nrf_mesh_keygen.c.obj
                0x0002cf30                nrf_mesh_keygen_identitykey
 .text.nrf_mesh_keygen_virtual_address
                0x0002cf7c       0x50 examples/light_switch/client/CMakeFiles/light_switch_client_nrf52840_xxAA_s140_6.1.1.dir/__/__/__/mesh/core/src/nrf_mesh_keygen.c.obj
                0x0002cf7c                nrf_mesh_keygen_virtual_address
 .text.erase_at
                0x0002cfcc       0x14 examples/light_switch/client/CMakeFiles/light_switch_client_nrf52840_xxAA_s140_6.1.1.dir/__/__/__/mesh/core/src/cache.c.obj
 .text.cache_init
                0x0002cfe0       0x1e examples/light_switch/client/CMakeFiles/light_switch_client_nrf52840_xxAA_s140_6.1.1.dir/__/__/__/mesh/core/src/cache.c.obj
                0x0002cfe0                cache_init
 .text.cache_has_elem
                0x0002cffe       0x40 examples/light_switch/client/CMakeFiles/light_switch_client_nrf52840_xxAA_s140_6.1.1.dir/__/__/__/mesh/core/src/cache.c.obj
                0x0002cffe                cache_has_elem
 .text.cache_put
                0x0002d03e       0x30 examples/light_switch/client/CMakeFiles/light_switch_client_nrf52840_xxAA_s140_6.1.1.dir/__/__/__/mesh/core/src/cache.c.obj
                0x0002d03e                cache_put
 .text.list_insert
                0x0002d06e       0x1c examples/light_switch/client/CMakeFiles/light_switch_client_nrf52840_xxAA_s140_6.1.1.dir/__/__/__/mesh/core/src/list.c.obj
 .text.list_add
                0x0002d08a       0x42 examples/light_switch/client/CMakeFiles/light_switch_client_nrf52840_xxAA_s140_6.1.1.dir/__/__/__/mesh/core/src/list.c.obj
                0x0002d08a                list_add
 .text.list_remove
                0x0002d0cc       0x3a examples/light_switch/client/CMakeFiles/light_switch_client_nrf52840_xxAA_s140_6.1.1.dir/__/__/__/mesh/core/src/list.c.obj
                0x0002d0cc                list_remove
 .text.list_compare_add
                0x0002d106       0x56 examples/light_switch/client/CMakeFiles/light_switch_client_nrf52840_xxAA_s140_6.1.1.dir/__/__/__/mesh/core/src/list.c.obj
                0x0002d106                list_compare_add
 .text.log_callback_rtt
                0x0002d15c       0x2c examples/light_switch/client/CMakeFiles/light_switch_client_nrf52840_xxAA_s140_6.1.1.dir/__/__/__/mesh/core/src/log.c.obj
                0x0002d15c                log_callback_rtt
 .text.log_init
                0x0002d188       0x1c examples/light_switch/client/CMakeFiles/light_switch_client_nrf52840_xxAA_s140_6.1.1.dir/__/__/__/mesh/core/src/log.c.obj
                0x0002d188                log_init
 .text.log_vprintf
                0x0002d1a4       0x1c examples/light_switch/client/CMakeFiles/light_switch_client_nrf52840_xxAA_s140_6.1.1.dir/__/__/__/mesh/core/src/log.c.obj
                0x0002d1a4                log_vprintf
 .text.log_printf
                0x0002d1c0       0x18 examples/light_switch/client/CMakeFiles/light_switch_client_nrf52840_xxAA_s140_6.1.1.dir/__/__/__/mesh/core/src/log.c.obj
                0x0002d1c0                log_printf
 .text.get_area_end
                0x0002d1d8        0xc examples/light_switch/client/CMakeFiles/light_switch_client_nrf52840_xxAA_s140_6.1.1.dir/__/__/__/mesh/core/src/flash_manager.c.obj
 .text.handle_matches_filter
                0x0002d1e4       0x26 examples/light_switch/client/CMakeFiles/light_switch_client_nrf52840_xxAA_s140_6.1.1.dir/__/__/__/mesh/core/src/flash_manager.c.obj
 .text.flash_area_is_blank
                0x0002d20a       0x2c examples/light_switch/client/CMakeFiles/light_switch_client_nrf52840_xxAA_s140_6.1.1.dir/__/__/__/mesh/core/src/flash_manager.c.obj
 *fill*         0x0002d236        0x2 
 .text.get_packet_buffer
                0x0002d238       0x20 examples/light_switch/client/CMakeFiles/light_switch_client_nrf52840_xxAA_s140_6.1.1.dir/__/__/__/mesh/core/src/flash_manager.c.obj
 .text.flash    0x0002d258       0x1c examples/light_switch/client/CMakeFiles/light_switch_client_nrf52840_xxAA_s140_6.1.1.dir/__/__/__/mesh/core/src/flash_manager.c.obj
 .text.free_packet_buffer
                0x0002d274       0x3c examples/light_switch/client/CMakeFiles/light_switch_client_nrf52840_xxAA_s140_6.1.1.dir/__/__/__/mesh/core/src/flash_manager.c.obj
 .text.iterate_callback_entry_copy
                0x0002d2b0       0x38 examples/light_switch/client/CMakeFiles/light_switch_client_nrf52840_xxAA_s140_6.1.1.dir/__/__/__/mesh/core/src/flash_manager.c.obj
 .text.reserve_action_buffer
                0x0002d2e8       0x24 examples/light_switch/client/CMakeFiles/light_switch_client_nrf52840_xxAA_s140_6.1.1.dir/__/__/__/mesh/core/src/flash_manager.c.obj
 .text.commit_action_buffer
                0x0002d30c       0x18 examples/light_switch/client/CMakeFiles/light_switch_client_nrf52840_xxAA_s140_6.1.1.dir/__/__/__/mesh/core/src/flash_manager.c.obj
 .text.schedule_processing
                0x0002d324        0xc examples/light_switch/client/CMakeFiles/light_switch_client_nrf52840_xxAA_s140_6.1.1.dir/__/__/__/mesh/core/src/flash_manager.c.obj
 .text.get_next_entry
                0x0002d330       0x34 examples/light_switch/client/CMakeFiles/light_switch_client_nrf52840_xxAA_s140_6.1.1.dir/__/__/__/mesh/core/src/flash_manager.c.obj
 .text.get_last_entry.isra.1
                0x0002d364       0x30 examples/light_switch/client/CMakeFiles/light_switch_client_nrf52840_xxAA_s140_6.1.1.dir/__/__/__/mesh/core/src/flash_manager.c.obj
 .text.process_action_queue
                0x0002d394      0x3fc examples/light_switch/client/CMakeFiles/light_switch_client_nrf52840_xxAA_s140_6.1.1.dir/__/__/__/mesh/core/src/flash_manager.c.obj
 .text.flash_op_ended_callback
                0x0002d790       0x24 examples/light_switch/client/CMakeFiles/light_switch_client_nrf52840_xxAA_s140_6.1.1.dir/__/__/__/mesh/core/src/flash_manager.c.obj
 .text.flash_manager_init
                0x0002d7b4       0x68 examples/light_switch/client/CMakeFiles/light_switch_client_nrf52840_xxAA_s140_6.1.1.dir/__/__/__/mesh/core/src/flash_manager.c.obj
                0x0002d7b4                flash_manager_init
 .text.flash_manager_remove
                0x0002d81c       0x24 examples/light_switch/client/CMakeFiles/light_switch_client_nrf52840_xxAA_s140_6.1.1.dir/__/__/__/mesh/core/src/flash_manager.c.obj
                0x0002d81c                flash_manager_remove
 .text.flash_manager_entries_read
                0x0002d840       0xea examples/light_switch/client/CMakeFiles/light_switch_client_nrf52840_xxAA_s140_6.1.1.dir/__/__/__/mesh/core/src/flash_manager.c.obj
                0x0002d840                flash_manager_entries_read
 *fill*         0x0002d92a        0x2 
 .text.flash_manager_entry_read
                0x0002d92c       0x50 examples/light_switch/client/CMakeFiles/light_switch_client_nrf52840_xxAA_s140_6.1.1.dir/__/__/__/mesh/core/src/flash_manager.c.obj
                0x0002d92c                flash_manager_entry_read
 .text.flash_manager_entry_count_get
                0x0002d97c       0x1e examples/light_switch/client/CMakeFiles/light_switch_client_nrf52840_xxAA_s140_6.1.1.dir/__/__/__/mesh/core/src/flash_manager.c.obj
                0x0002d97c                flash_manager_entry_count_get
 .text.flash_manager_entry_alloc
                0x0002d99a       0x5c examples/light_switch/client/CMakeFiles/light_switch_client_nrf52840_xxAA_s140_6.1.1.dir/__/__/__/mesh/core/src/flash_manager.c.obj
                0x0002d99a                flash_manager_entry_alloc
 *fill*         0x0002d9f6        0x2 
 .text.flash_manager_entry_commit
                0x0002d9f8       0x2c examples/light_switch/client/CMakeFiles/light_switch_client_nrf52840_xxAA_s140_6.1.1.dir/__/__/__/mesh/core/src/flash_manager.c.obj
                0x0002d9f8                flash_manager_entry_commit
 .text.flash_manager_entry_invalidate
                0x0002da24       0x4e examples/light_switch/client/CMakeFiles/light_switch_client_nrf52840_xxAA_s140_6.1.1.dir/__/__/__/mesh/core/src/flash_manager.c.obj
                0x0002da24                flash_manager_entry_invalidate
 *fill*         0x0002da72        0x2 
 .text.flash_manager_add
                0x0002da74      0x220 examples/light_switch/client/CMakeFiles/light_switch_client_nrf52840_xxAA_s140_6.1.1.dir/__/__/__/mesh/core/src/flash_manager.c.obj
                0x0002da74                flash_manager_add
 .text.flash_manager_mem_listener_register
                0x0002dc94       0x30 examples/light_switch/client/CMakeFiles/light_switch_client_nrf52840_xxAA_s140_6.1.1.dir/__/__/__/mesh/core/src/flash_manager.c.obj
                0x0002dc94                flash_manager_mem_listener_register
 .text.flash_manager_is_stable
                0x0002dcc4       0x20 examples/light_switch/client/CMakeFiles/light_switch_client_nrf52840_xxAA_s140_6.1.1.dir/__/__/__/mesh/core/src/flash_manager.c.obj
                0x0002dcc4                flash_manager_is_stable
 .text.flash_manager_on_defrag_end
                0x0002dce4       0x4c examples/light_switch/client/CMakeFiles/light_switch_client_nrf52840_xxAA_s140_6.1.1.dir/__/__/__/mesh/core/src/flash_manager.c.obj
                0x0002dce4                flash_manager_on_defrag_end
 .text.flash_manager_recovery_page_get
                0x0002dd30        0x4 examples/light_switch/client/CMakeFiles/light_switch_client_nrf52840_xxAA_s140_6.1.1.dir/__/__/__/mesh/core/src/flash_manager.c.obj
                0x0002dd30                flash_manager_recovery_page_get
 .text.flash_manager_action_queue_empty_cb_set
                0x0002dd34       0x1c examples/light_switch/client/CMakeFiles/light_switch_client_nrf52840_xxAA_s140_6.1.1.dir/__/__/__/mesh/core/src/flash_manager.c.obj
                0x0002dd34                flash_manager_action_queue_empty_cb_set
 .text.utils_xor
                0x0002dd50       0x14 examples/light_switch/client/CMakeFiles/light_switch_client_nrf52840_xxAA_s140_6.1.1.dir/__/__/__/mesh/core/src/ccm_soft.c.obj
 .text.sd_ecb_block_encrypt
                0x0002dd64        0x4 examples/light_switch/client/CMakeFiles/light_switch_client_nrf52840_xxAA_s140_6.1.1.dir/__/__/__/mesh/core/src/ccm_soft.c.obj
 .text.ccm_soft_crypt
                0x0002dd68       0x4c examples/light_switch/client/CMakeFiles/light_switch_client_nrf52840_xxAA_s140_6.1.1.dir/__/__/__/mesh/core/src/ccm_soft.c.obj
 .text.ccm_soft_authenticate_blocks
                0x0002ddb4       0x6c examples/light_switch/client/CMakeFiles/light_switch_client_nrf52840_xxAA_s140_6.1.1.dir/__/__/__/mesh/core/src/ccm_soft.c.obj
 .text.ccm_soft_authenticate
                0x0002de20       0x94 examples/light_switch/client/CMakeFiles/light_switch_client_nrf52840_xxAA_s140_6.1.1.dir/__/__/__/mesh/core/src/ccm_soft.c.obj
 .text.ccm_soft_encrypt
                0x0002deb4       0x54 examples/light_switch/client/CMakeFiles/light_switch_client_nrf52840_xxAA_s140_6.1.1.dir/__/__/__/mesh/core/src/ccm_soft.c.obj
                0x0002deb4                ccm_soft_encrypt
 .text.ccm_soft_decrypt
                0x0002df08       0x9c examples/light_switch/client/CMakeFiles/light_switch_client_nrf52840_xxAA_s140_6.1.1.dir/__/__/__/mesh/core/src/ccm_soft.c.obj
                0x0002df08                ccm_soft_decrypt
 .text.iv_index_get.isra.0
                0x0002dfa4       0x34 examples/light_switch/client/CMakeFiles/light_switch_client_nrf52840_xxAA_s140_6.1.1.dir/__/__/__/mesh/core/src/replay_cache.c.obj
 .text.evt_handler
                0x0002dfd8       0x60 examples/light_switch/client/CMakeFiles/light_switch_client_nrf52840_xxAA_s140_6.1.1.dir/__/__/__/mesh/core/src/replay_cache.c.obj
 .text.replay_cache_enable
                0x0002e038       0x10 examples/light_switch/client/CMakeFiles/light_switch_client_nrf52840_xxAA_s140_6.1.1.dir/__/__/__/mesh/core/src/replay_cache.c.obj
                0x0002e038                replay_cache_enable
 .text.replay_cache_add
                0x0002e048       0x78 examples/light_switch/client/CMakeFiles/light_switch_client_nrf52840_xxAA_s140_6.1.1.dir/__/__/__/mesh/core/src/replay_cache.c.obj
                0x0002e048                replay_cache_add
 .text.replay_cache_has_elem
                0x0002e0c0       0x50 examples/light_switch/client/CMakeFiles/light_switch_client_nrf52840_xxAA_s140_6.1.1.dir/__/__/__/mesh/core/src/replay_cache.c.obj
                0x0002e0c0                replay_cache_has_elem
 .text.replay_cache_clear
                0x0002e110       0x18 examples/light_switch/client/CMakeFiles/light_switch_client_nrf52840_xxAA_s140_6.1.1.dir/__/__/__/mesh/core/src/replay_cache.c.obj
                0x0002e110                replay_cache_clear
 .text.replay_cache_init
                0x0002e128       0x14 examples/light_switch/client/CMakeFiles/light_switch_client_nrf52840_xxAA_s140_6.1.1.dir/__/__/__/mesh/core/src/replay_cache.c.obj
                0x0002e128                replay_cache_init
 .text.beacon_create
                0x0002e13c       0x46 examples/light_switch/client/CMakeFiles/light_switch_client_nrf52840_xxAA_s140_6.1.1.dir/__/__/__/mesh/core/src/beacon.c.obj
                0x0002e13c                beacon_create
 *fill*         0x0002e182        0x2 
 .text.beacon_packet_in
                0x0002e184      0x130 examples/light_switch/client/CMakeFiles/light_switch_client_nrf52840_xxAA_s140_6.1.1.dir/__/__/__/mesh/core/src/beacon.c.obj
                0x0002e184                beacon_packet_in
 .text.entry_get
                0x0002e2b4       0x78 examples/light_switch/client/CMakeFiles/light_switch_client_nrf52840_xxAA_s140_6.1.1.dir/__/__/__/mesh/core/src/flash_manager_internal.c.obj
                0x0002e2b4                entry_get
 .text.core_tx_complete_cb_set
                0x0002e32c        0xc examples/light_switch/client/CMakeFiles/light_switch_client_nrf52840_xxAA_s140_6.1.1.dir/__/__/__/mesh/core/src/core_tx.c.obj
                0x0002e32c                core_tx_complete_cb_set
 .text.core_tx_packet_alloc
                0x0002e338       0xac examples/light_switch/client/CMakeFiles/light_switch_client_nrf52840_xxAA_s140_6.1.1.dir/__/__/__/mesh/core/src/core_tx.c.obj
                0x0002e338                core_tx_packet_alloc
 .text.core_tx_packet_send
                0x0002e3e4       0x4c examples/light_switch/client/CMakeFiles/light_switch_client_nrf52840_xxAA_s140_6.1.1.dir/__/__/__/mesh/core/src/core_tx.c.obj
                0x0002e3e4                core_tx_packet_send
 .text.core_tx_packet_discard
                0x0002e430       0x40 examples/light_switch/client/CMakeFiles/light_switch_client_nrf52840_xxAA_s140_6.1.1.dir/__/__/__/mesh/core/src/core_tx.c.obj
                0x0002e430                core_tx_packet_discard
 .text.core_tx_complete
                0x0002e470       0x34 examples/light_switch/client/CMakeFiles/light_switch_client_nrf52840_xxAA_s140_6.1.1.dir/__/__/__/mesh/core/src/core_tx.c.obj
                0x0002e470                core_tx_complete
 .text.core_tx_bearer_add
                0x0002e4a4       0x74 examples/light_switch/client/CMakeFiles/light_switch_client_nrf52840_xxAA_s140_6.1.1.dir/__/__/__/mesh/core/src/core_tx.c.obj
                0x0002e4a4                core_tx_bearer_add
 .text.hb_pub_deleter
                0x0002e518       0x28 examples/light_switch/client/CMakeFiles/light_switch_client_nrf52840_xxAA_s140_6.1.1.dir/__/__/__/mesh/core/src/heartbeat.c.obj
 .text.hb_pub_getter
                0x0002e540       0x2c examples/light_switch/client/CMakeFiles/light_switch_client_nrf52840_xxAA_s140_6.1.1.dir/__/__/__/mesh/core/src/heartbeat.c.obj
 .text.hb_pub_setter
                0x0002e56c       0xd0 examples/light_switch/client/CMakeFiles/light_switch_client_nrf52840_xxAA_s140_6.1.1.dir/__/__/__/mesh/core/src/heartbeat.c.obj
 .text.heartbeat_subscription_timer_cb
                0x0002e63c       0x3c examples/light_switch/client/CMakeFiles/light_switch_client_nrf52840_xxAA_s140_6.1.1.dir/__/__/__/mesh/core/src/heartbeat.c.obj
 .text.heartbeat_opcode_handle
                0x0002e678       0x88 examples/light_switch/client/CMakeFiles/light_switch_client_nrf52840_xxAA_s140_6.1.1.dir/__/__/__/mesh/core/src/heartbeat.c.obj
 .text.heartbeat_publish
                0x0002e700       0xb8 examples/light_switch/client/CMakeFiles/light_switch_client_nrf52840_xxAA_s140_6.1.1.dir/__/__/__/mesh/core/src/heartbeat.c.obj
 .text.on_feature_update
                0x0002e7b8       0x34 examples/light_switch/client/CMakeFiles/light_switch_client_nrf52840_xxAA_s140_6.1.1.dir/__/__/__/mesh/core/src/heartbeat.c.obj
 .text.heartbeat_relay_listener_cb
                0x0002e7ec       0x1c examples/light_switch/client/CMakeFiles/light_switch_client_nrf52840_xxAA_s140_6.1.1.dir/__/__/__/mesh/core/src/heartbeat.c.obj
 .text.heartbeat_proxy_listener_cb
                0x0002e808       0x14 examples/light_switch/client/CMakeFiles/light_switch_client_nrf52840_xxAA_s140_6.1.1.dir/__/__/__/mesh/core/src/heartbeat.c.obj
 .text.heartbeat_core_evt_cb
                0x0002e81c       0x18 examples/light_switch/client/CMakeFiles/light_switch_client_nrf52840_xxAA_s140_6.1.1.dir/__/__/__/mesh/core/src/heartbeat.c.obj
 .text.heartbeat_publication_timer_cb
                0x0002e834       0x54 examples/light_switch/client/CMakeFiles/light_switch_client_nrf52840_xxAA_s140_6.1.1.dir/__/__/__/mesh/core/src/heartbeat.c.obj
 .text.heartbeat_init
                0x0002e888       0x58 examples/light_switch/client/CMakeFiles/light_switch_client_nrf52840_xxAA_s140_6.1.1.dir/__/__/__/mesh/core/src/heartbeat.c.obj
                0x0002e888                heartbeat_init
 .text.heartbeat_subscription_set
                0x0002e8e0       0xd0 examples/light_switch/client/CMakeFiles/light_switch_client_nrf52840_xxAA_s140_6.1.1.dir/__/__/__/mesh/core/src/heartbeat.c.obj
                0x0002e8e0                heartbeat_subscription_set
 .text.heartbeat_subscription_get
                0x0002e9b0        0x8 examples/light_switch/client/CMakeFiles/light_switch_client_nrf52840_xxAA_s140_6.1.1.dir/__/__/__/mesh/core/src/heartbeat.c.obj
                0x0002e9b0                heartbeat_subscription_get
 .text.heartbeat_publication_get
                0x0002e9b8        0x8 examples/light_switch/client/CMakeFiles/light_switch_client_nrf52840_xxAA_s140_6.1.1.dir/__/__/__/mesh/core/src/heartbeat.c.obj
                0x0002e9b8                heartbeat_publication_get
 .text.heartbeat_publication_set
                0x0002e9c0       0x18 examples/light_switch/client/CMakeFiles/light_switch_client_nrf52840_xxAA_s140_6.1.1.dir/__/__/__/mesh/core/src/heartbeat.c.obj
                0x0002e9c0                heartbeat_publication_set
 .text.heartbeat_public_info_getter_register
                0x0002e9d8       0x14 examples/light_switch/client/CMakeFiles/light_switch_client_nrf52840_xxAA_s140_6.1.1.dir/__/__/__/mesh/core/src/heartbeat.c.obj
                0x0002e9d8                heartbeat_public_info_getter_register
 .text.beacon_deleter
                0x0002e9ec       0x34 examples/light_switch/client/CMakeFiles/light_switch_client_nrf52840_xxAA_s140_6.1.1.dir/__/__/__/mesh/core/src/net_beacon.c.obj
 .text.beacon_getter
                0x0002ea20       0x24 examples/light_switch/client/CMakeFiles/light_switch_client_nrf52840_xxAA_s140_6.1.1.dir/__/__/__/mesh/core/src/net_beacon.c.obj
 .text.beacon_setter
                0x0002ea44       0x5c examples/light_switch/client/CMakeFiles/light_switch_client_nrf52840_xxAA_s140_6.1.1.dir/__/__/__/mesh/core/src/net_beacon.c.obj
 .text.make_network_beacon_packet
                0x0002eaa0       0x50 examples/light_switch/client/CMakeFiles/light_switch_client_nrf52840_xxAA_s140_6.1.1.dir/__/__/__/mesh/core/src/net_beacon.c.obj
 .text.beacon_tx
                0x0002eaf0      0x188 examples/light_switch/client/CMakeFiles/light_switch_client_nrf52840_xxAA_s140_6.1.1.dir/__/__/__/mesh/core/src/net_beacon.c.obj
 .text.tx_complete_cb
                0x0002ec78        0xe examples/light_switch/client/CMakeFiles/light_switch_client_nrf52840_xxAA_s140_6.1.1.dir/__/__/__/mesh/core/src/net_beacon.c.obj
 .text.beacon_tx_timeout
                0x0002ec86        0x4 examples/light_switch/client/CMakeFiles/light_switch_client_nrf52840_xxAA_s140_6.1.1.dir/__/__/__/mesh/core/src/net_beacon.c.obj
 .text.is_valid_beacon_pkt.part.1
                0x0002ec8a       0x30 examples/light_switch/client/CMakeFiles/light_switch_client_nrf52840_xxAA_s140_6.1.1.dir/__/__/__/mesh/core/src/net_beacon.c.obj
 *fill*         0x0002ecba        0x2 
 .text.net_beacon_init
                0x0002ecbc       0x7c examples/light_switch/client/CMakeFiles/light_switch_client_nrf52840_xxAA_s140_6.1.1.dir/__/__/__/mesh/core/src/net_beacon.c.obj
                0x0002ecbc                net_beacon_init
 .text.net_beacon_enable
                0x0002ed38       0x28 examples/light_switch/client/CMakeFiles/light_switch_client_nrf52840_xxAA_s140_6.1.1.dir/__/__/__/mesh/core/src/net_beacon.c.obj
                0x0002ed38                net_beacon_enable
 .text.net_beacon_state_set
                0x0002ed60       0x20 examples/light_switch/client/CMakeFiles/light_switch_client_nrf52840_xxAA_s140_6.1.1.dir/__/__/__/mesh/core/src/net_beacon.c.obj
                0x0002ed60                net_beacon_state_set
 .text.net_beacon_state_get
                0x0002ed80       0x24 examples/light_switch/client/CMakeFiles/light_switch_client_nrf52840_xxAA_s140_6.1.1.dir/__/__/__/mesh/core/src/net_beacon.c.obj
                0x0002ed80                net_beacon_state_get
 .text.net_beacon_build
                0x0002eda4       0x24 examples/light_switch/client/CMakeFiles/light_switch_client_nrf52840_xxAA_s140_6.1.1.dir/__/__/__/mesh/core/src/net_beacon.c.obj
                0x0002eda4                net_beacon_build
 .text.net_beacon_packet_in
                0x0002edc8      0x16c examples/light_switch/client/CMakeFiles/light_switch_client_nrf52840_xxAA_s140_6.1.1.dir/__/__/__/mesh/core/src/net_beacon.c.obj
                0x0002edc8                net_beacon_packet_in
 .text.listeners_notify
                0x0002ef34       0x4c examples/light_switch/client/CMakeFiles/light_switch_client_nrf52840_xxAA_s140_6.1.1.dir/__/__/__/mesh/core/src/mesh_config.c.obj
 .text.entry_flags_get.isra.0
                0x0002ef80       0x1c examples/light_switch/client/CMakeFiles/light_switch_client_nrf52840_xxAA_s140_6.1.1.dir/__/__/__/mesh/core/src/mesh_config.c.obj
 .text.entry_params_find
                0x0002ef9c       0x38 examples/light_switch/client/CMakeFiles/light_switch_client_nrf52840_xxAA_s140_6.1.1.dir/__/__/__/mesh/core/src/mesh_config.c.obj
 .text.restore_callback
                0x0002efd4       0x66 examples/light_switch/client/CMakeFiles/light_switch_client_nrf52840_xxAA_s140_6.1.1.dir/__/__/__/mesh/core/src/mesh_config.c.obj
 *fill*         0x0002f03a        0x2 
 .text.dirty_entries_process
                0x0002f03c       0xdc examples/light_switch/client/CMakeFiles/light_switch_client_nrf52840_xxAA_s140_6.1.1.dir/__/__/__/mesh/core/src/mesh_config.c.obj
 .text.mesh_config_init
                0x0002f118       0xa0 examples/light_switch/client/CMakeFiles/light_switch_client_nrf52840_xxAA_s140_6.1.1.dir/__/__/__/mesh/core/src/mesh_config.c.obj
                0x0002f118                mesh_config_init
 .text.mesh_config_load
                0x0002f1b8        0xc examples/light_switch/client/CMakeFiles/light_switch_client_nrf52840_xxAA_s140_6.1.1.dir/__/__/__/mesh/core/src/mesh_config.c.obj
                0x0002f1b8                mesh_config_load
 .text.mesh_config_is_busy
                0x0002f1c4       0x34 examples/light_switch/client/CMakeFiles/light_switch_client_nrf52840_xxAA_s140_6.1.1.dir/__/__/__/mesh/core/src/mesh_config.c.obj
                0x0002f1c4                mesh_config_is_busy
 .text.backend_evt_handler
                0x0002f1f8       0x88 examples/light_switch/client/CMakeFiles/light_switch_client_nrf52840_xxAA_s140_6.1.1.dir/__/__/__/mesh/core/src/mesh_config.c.obj
 .text.mesh_config_entry_set
                0x0002f280       0x80 examples/light_switch/client/CMakeFiles/light_switch_client_nrf52840_xxAA_s140_6.1.1.dir/__/__/__/mesh/core/src/mesh_config.c.obj
                0x0002f280                mesh_config_entry_set
 .text.mesh_config_entry_get
                0x0002f300       0x3c examples/light_switch/client/CMakeFiles/light_switch_client_nrf52840_xxAA_s140_6.1.1.dir/__/__/__/mesh/core/src/mesh_config.c.obj
                0x0002f300                mesh_config_entry_get
 .text.mesh_config_entry_delete
                0x0002f33c       0x4a examples/light_switch/client/CMakeFiles/light_switch_client_nrf52840_xxAA_s140_6.1.1.dir/__/__/__/mesh/core/src/mesh_config.c.obj
                0x0002f33c                mesh_config_entry_delete
 *fill*         0x0002f386        0x2 
 .text.mesh_config_clear
                0x0002f388       0x4c examples/light_switch/client/CMakeFiles/light_switch_client_nrf52840_xxAA_s140_6.1.1.dir/__/__/__/mesh/core/src/mesh_config.c.obj
                0x0002f388                mesh_config_clear
 .text.fsm_event_post_try
                0x0002f3d4       0xaa examples/light_switch/client/CMakeFiles/light_switch_client_nrf52840_xxAA_s140_6.1.1.dir/__/__/__/mesh/core/src/fsm.c.obj
 .text.fsm_init
                0x0002f47e       0x66 examples/light_switch/client/CMakeFiles/light_switch_client_nrf52840_xxAA_s140_6.1.1.dir/__/__/__/mesh/core/src/fsm.c.obj
                0x0002f47e                fsm_init
 .text.fsm_event_post
                0x0002f4e4       0x40 examples/light_switch/client/CMakeFiles/light_switch_client_nrf52840_xxAA_s140_6.1.1.dir/__/__/__/mesh/core/src/fsm.c.obj
                0x0002f4e4                fsm_event_post
 .text.fsm_is_processing
                0x0002f524        0xa examples/light_switch/client/CMakeFiles/light_switch_client_nrf52840_xxAA_s140_6.1.1.dir/__/__/__/mesh/core/src/fsm.c.obj
                0x0002f524                fsm_is_processing
 .text.dummy_event
                0x0002f52e        0x2 examples/light_switch/client/CMakeFiles/light_switch_client_nrf52840_xxAA_s140_6.1.1.dir/__/__/__/mesh/core/src/mesh_config_backend.c.obj
 .text.file_get
                0x0002f530       0x34 examples/light_switch/client/CMakeFiles/light_switch_client_nrf52840_xxAA_s140_6.1.1.dir/__/__/__/mesh/core/src/mesh_config_backend.c.obj
 .text.mesh_config_backend_init
                0x0002f564      0x11c examples/light_switch/client/CMakeFiles/light_switch_client_nrf52840_xxAA_s140_6.1.1.dir/__/__/__/mesh/core/src/mesh_config_backend.c.obj
                0x0002f564                mesh_config_backend_init
 .text.mesh_config_backend_store
                0x0002f680       0x4e examples/light_switch/client/CMakeFiles/light_switch_client_nrf52840_xxAA_s140_6.1.1.dir/__/__/__/mesh/core/src/mesh_config_backend.c.obj
                0x0002f680                mesh_config_backend_store
 .text.mesh_config_backend_erase
                0x0002f6ce       0x34 examples/light_switch/client/CMakeFiles/light_switch_client_nrf52840_xxAA_s140_6.1.1.dir/__/__/__/mesh/core/src/mesh_config_backend.c.obj
                0x0002f6ce                mesh_config_backend_erase
 *fill*         0x0002f702        0x2 
 .text.mesh_config_backend_read_all
                0x0002f704       0x38 examples/light_switch/client/CMakeFiles/light_switch_client_nrf52840_xxAA_s140_6.1.1.dir/__/__/__/mesh/core/src/mesh_config_backend.c.obj
                0x0002f704                mesh_config_backend_read_all
 .text.entry_read_cb
                0x0002f73c       0x38 examples/light_switch/client/CMakeFiles/light_switch_client_nrf52840_xxAA_s140_6.1.1.dir/__/__/__/mesh/core/src/mesh_config_flashman_glue.c.obj
 .text.write_complete_cb
                0x0002f774       0x30 examples/light_switch/client/CMakeFiles/light_switch_client_nrf52840_xxAA_s140_6.1.1.dir/__/__/__/mesh/core/src/mesh_config_flashman_glue.c.obj
 .text.invalidate_complete_cb
                0x0002f7a4       0x2c examples/light_switch/client/CMakeFiles/light_switch_client_nrf52840_xxAA_s140_6.1.1.dir/__/__/__/mesh/core/src/mesh_config_flashman_glue.c.obj
 .text.remove_complete_cb
                0x0002f7d0        0x2 examples/light_switch/client/CMakeFiles/light_switch_client_nrf52840_xxAA_s140_6.1.1.dir/__/__/__/mesh/core/src/mesh_config_flashman_glue.c.obj
 .text.flash_stable_cb
                0x0002f7d2       0x20 examples/light_switch/client/CMakeFiles/light_switch_client_nrf52840_xxAA_s140_6.1.1.dir/__/__/__/mesh/core/src/mesh_config_flashman_glue.c.obj
 *fill*         0x0002f7f2        0x2 
 .text.mesh_config_backend_glue_init
                0x0002f7f4       0x28 examples/light_switch/client/CMakeFiles/light_switch_client_nrf52840_xxAA_s140_6.1.1.dir/__/__/__/mesh/core/src/mesh_config_flashman_glue.c.obj
                0x0002f7f4                mesh_config_backend_glue_init
 .text.mesh_config_backend_file_create
                0x0002f81c       0x58 examples/light_switch/client/CMakeFiles/light_switch_client_nrf52840_xxAA_s140_6.1.1.dir/__/__/__/mesh/core/src/mesh_config_flashman_glue.c.obj
                0x0002f81c                mesh_config_backend_file_create
 .text.mesh_config_backend_record_write
                0x0002f874       0x2c examples/light_switch/client/CMakeFiles/light_switch_client_nrf52840_xxAA_s140_6.1.1.dir/__/__/__/mesh/core/src/mesh_config_flashman_glue.c.obj
                0x0002f874                mesh_config_backend_record_write
 .text.mesh_config_backend_record_erase
                0x0002f8a0       0x30 examples/light_switch/client/CMakeFiles/light_switch_client_nrf52840_xxAA_s140_6.1.1.dir/__/__/__/mesh/core/src/mesh_config_flashman_glue.c.obj
                0x0002f8a0                mesh_config_backend_record_erase
 .text.mesh_config_backend_records_read
                0x0002f8d0       0x30 examples/light_switch/client/CMakeFiles/light_switch_client_nrf52840_xxAA_s140_6.1.1.dir/__/__/__/mesh/core/src/mesh_config_flashman_glue.c.obj
                0x0002f8d0                mesh_config_backend_records_read
 .text.mesh_config_record_size_calculate
                0x0002f900        0xa examples/light_switch/client/CMakeFiles/light_switch_client_nrf52840_xxAA_s140_6.1.1.dir/__/__/__/mesh/core/src/mesh_config_flashman_glue.c.obj
                0x0002f900                mesh_config_record_size_calculate
 .text.mesh_config_backend_file_power_down_time_get
                0x0002f90a       0x24 examples/light_switch/client/CMakeFiles/light_switch_client_nrf52840_xxAA_s140_6.1.1.dir/__/__/__/mesh/core/src/mesh_config_flashman_glue.c.obj
                0x0002f90a                mesh_config_backend_file_power_down_time_get
 *fill*         0x0002f92e        0x2 
 .text.packet_discard
                0x0002f930       0x30 examples/light_switch/client/CMakeFiles/light_switch_client_nrf52840_xxAA_s140_6.1.1.dir/__/__/__/mesh/core/src/core_tx_local.c.obj
 .text.packet_send
                0x0002f960       0x58 examples/light_switch/client/CMakeFiles/light_switch_client_nrf52840_xxAA_s140_6.1.1.dir/__/__/__/mesh/core/src/core_tx_local.c.obj
 .text.loopback_process
                0x0002f9b8       0x64 examples/light_switch/client/CMakeFiles/light_switch_client_nrf52840_xxAA_s140_6.1.1.dir/__/__/__/mesh/core/src/core_tx_local.c.obj
 .text.packet_alloc
                0x0002fa1c       0x48 examples/light_switch/client/CMakeFiles/light_switch_client_nrf52840_xxAA_s140_6.1.1.dir/__/__/__/mesh/core/src/core_tx_local.c.obj
 .text.core_tx_local_init
                0x0002fa64       0x34 examples/light_switch/client/CMakeFiles/light_switch_client_nrf52840_xxAA_s140_6.1.1.dir/__/__/__/mesh/core/src/core_tx_local.c.obj
                0x0002fa64                core_tx_local_init
 .text.core_tx_adv_get
                0x0002fa98       0x3c examples/light_switch/client/CMakeFiles/light_switch_client_nrf52840_xxAA_s140_6.1.1.dir/__/__/__/mesh/core/src/core_tx_adv.c.obj
 .text.core_tx_tx_power_get
                0x0002fad4       0x30 examples/light_switch/client/CMakeFiles/light_switch_client_nrf52840_xxAA_s140_6.1.1.dir/__/__/__/mesh/core/src/core_tx_adv.c.obj
 .text.core_tx_adv_delete
                0x0002fb04       0x50 examples/light_switch/client/CMakeFiles/light_switch_client_nrf52840_xxAA_s140_6.1.1.dir/__/__/__/mesh/core/src/core_tx_adv.c.obj
 .text.core_tx_adv_set
                0x0002fb54       0x6c examples/light_switch/client/CMakeFiles/light_switch_client_nrf52840_xxAA_s140_6.1.1.dir/__/__/__/mesh/core/src/core_tx_adv.c.obj
 .text.core_tx_tx_power_delete
                0x0002fbc0       0x30 examples/light_switch/client/CMakeFiles/light_switch_client_nrf52840_xxAA_s140_6.1.1.dir/__/__/__/mesh/core/src/core_tx_adv.c.obj
 .text.core_tx_tx_power_set
                0x0002fbf0       0x34 examples/light_switch/client/CMakeFiles/light_switch_client_nrf52840_xxAA_s140_6.1.1.dir/__/__/__/mesh/core/src/core_tx_adv.c.obj
 .text.core_tx_adv_addr_delete
                0x0002fc24       0x34 examples/light_switch/client/CMakeFiles/light_switch_client_nrf52840_xxAA_s140_6.1.1.dir/__/__/__/mesh/core/src/core_tx_adv.c.obj
 .text.core_tx_adv_addr_set
                0x0002fc58       0x40 examples/light_switch/client/CMakeFiles/light_switch_client_nrf52840_xxAA_s140_6.1.1.dir/__/__/__/mesh/core/src/core_tx_adv.c.obj
 .text.core_tx_adv_addr_get
                0x0002fc98       0x34 examples/light_switch/client/CMakeFiles/light_switch_client_nrf52840_xxAA_s140_6.1.1.dir/__/__/__/mesh/core/src/core_tx_adv.c.obj
 .text.packet_discard
                0x0002fccc       0x40 examples/light_switch/client/CMakeFiles/light_switch_client_nrf52840_xxAA_s140_6.1.1.dir/__/__/__/mesh/core/src/core_tx_adv.c.obj
 .text.packet_send
                0x0002fd0c       0x58 examples/light_switch/client/CMakeFiles/light_switch_client_nrf52840_xxAA_s140_6.1.1.dir/__/__/__/mesh/core/src/core_tx_adv.c.obj
 .text.packet_alloc
                0x0002fd64       0x58 examples/light_switch/client/CMakeFiles/light_switch_client_nrf52840_xxAA_s140_6.1.1.dir/__/__/__/mesh/core/src/core_tx_adv.c.obj
 .text.adv_tx_complete_callback
                0x0002fdbc       0x20 examples/light_switch/client/CMakeFiles/light_switch_client_nrf52840_xxAA_s140_6.1.1.dir/__/__/__/mesh/core/src/core_tx_adv.c.obj
 .text.mesh_opt_core_adv_set
                0x0002fddc       0x22 examples/light_switch/client/CMakeFiles/light_switch_client_nrf52840_xxAA_s140_6.1.1.dir/__/__/__/mesh/core/src/core_tx_adv.c.obj
                0x0002fddc                mesh_opt_core_adv_set
 .text.mesh_opt_core_adv_get
                0x0002fdfe       0x22 examples/light_switch/client/CMakeFiles/light_switch_client_nrf52840_xxAA_s140_6.1.1.dir/__/__/__/mesh/core/src/core_tx_adv.c.obj
                0x0002fdfe                mesh_opt_core_adv_get
 .text.core_tx_adv_init
                0x0002fe20       0x60 examples/light_switch/client/CMakeFiles/light_switch_client_nrf52840_xxAA_s140_6.1.1.dir/__/__/__/mesh/core/src/core_tx_adv.c.obj
                0x0002fe20                core_tx_adv_init
 .text.core_tx_adv_is_enabled
                0x0002fe80       0x20 examples/light_switch/client/CMakeFiles/light_switch_client_nrf52840_xxAA_s140_6.1.1.dir/__/__/__/mesh/core/src/core_tx_adv.c.obj
                0x0002fe80                core_tx_adv_is_enabled
 .text.mesh_mem_init
                0x0002fea0        0x2 examples/light_switch/client/CMakeFiles/light_switch_client_nrf52840_xxAA_s140_6.1.1.dir/__/__/__/mesh/core/src/mesh_mem_stdlib.c.obj
                0x0002fea0                mesh_mem_init
 .text.mesh_mem_alloc
                0x0002fea2        0x4 examples/light_switch/client/CMakeFiles/light_switch_client_nrf52840_xxAA_s140_6.1.1.dir/__/__/__/mesh/core/src/mesh_mem_stdlib.c.obj
                0x0002fea2                mesh_mem_alloc
 .text.mesh_mem_free
                0x0002fea6        0x4 examples/light_switch/client/CMakeFiles/light_switch_client_nrf52840_xxAA_s140_6.1.1.dir/__/__/__/mesh/core/src/mesh_mem_stdlib.c.obj
                0x0002fea6                mesh_mem_free
 *fill*         0x0002feaa        0x2 
 .text.ad_listener_subscribe
                0x0002feac       0x5c examples/light_switch/client/CMakeFiles/light_switch_client_nrf52840_xxAA_s140_6.1.1.dir/__/__/__/mesh/bearer/src/ad_listener.c.obj
                0x0002feac                ad_listener_subscribe
 .text.ad_listener_process
                0x0002ff08       0x68 examples/light_switch/client/CMakeFiles/light_switch_client_nrf52840_xxAA_s140_6.1.1.dir/__/__/__/mesh/bearer/src/ad_listener.c.obj
                0x0002ff08                ad_listener_process
 .text.adtype_filter_handle
                0x0002ff70       0x64 examples/light_switch/client/CMakeFiles/light_switch_client_nrf52840_xxAA_s140_6.1.1.dir/__/__/__/mesh/bearer/src/ad_type_filter.c.obj
 .text.bearer_adtype_filtering_set
                0x0002ffd4       0x20 examples/light_switch/client/CMakeFiles/light_switch_client_nrf52840_xxAA_s140_6.1.1.dir/__/__/__/mesh/bearer/src/ad_type_filter.c.obj
                0x0002ffd4                bearer_adtype_filtering_set
 .text.bearer_adtype_add
                0x0002fff4       0x20 examples/light_switch/client/CMakeFiles/light_switch_client_nrf52840_xxAA_s140_6.1.1.dir/__/__/__/mesh/bearer/src/ad_type_filter.c.obj
                0x0002fff4                bearer_adtype_add
 .text.bearer_adtype_mode_set
                0x00030014       0x18 examples/light_switch/client/CMakeFiles/light_switch_client_nrf52840_xxAA_s140_6.1.1.dir/__/__/__/mesh/bearer/src/ad_type_filter.c.obj
                0x00030014                bearer_adtype_mode_set
 .text.tx_complete_event_callback
                0x0003002c       0x24 examples/light_switch/client/CMakeFiles/light_switch_client_nrf52840_xxAA_s140_6.1.1.dir/__/__/__/mesh/bearer/src/advertiser.c.obj
 .text.set_gap_addr_type
                0x00030050       0x26 examples/light_switch/client/CMakeFiles/light_switch_client_nrf52840_xxAA_s140_6.1.1.dir/__/__/__/mesh/bearer/src/advertiser.c.obj
 .text.broadcast_complete_cb
                0x00030076       0x46 examples/light_switch/client/CMakeFiles/light_switch_client_nrf52840_xxAA_s140_6.1.1.dir/__/__/__/mesh/bearer/src/advertiser.c.obj
 .text.schedule_first_time
                0x000300bc       0x28 examples/light_switch/client/CMakeFiles/light_switch_client_nrf52840_xxAA_s140_6.1.1.dir/__/__/__/mesh/bearer/src/advertiser.c.obj
 .text.timeout_event
                0x000300e4      0x114 examples/light_switch/client/CMakeFiles/light_switch_client_nrf52840_xxAA_s140_6.1.1.dir/__/__/__/mesh/bearer/src/advertiser.c.obj
 .text.advertiser_init
                0x000301f8        0xc examples/light_switch/client/CMakeFiles/light_switch_client_nrf52840_xxAA_s140_6.1.1.dir/__/__/__/mesh/bearer/src/advertiser.c.obj
                0x000301f8                advertiser_init
 .text.advertiser_enable
                0x00030204       0x2a examples/light_switch/client/CMakeFiles/light_switch_client_nrf52840_xxAA_s140_6.1.1.dir/__/__/__/mesh/bearer/src/advertiser.c.obj
                0x00030204                advertiser_enable
 .text.advertiser_disable
                0x0003022e        0xa examples/light_switch/client/CMakeFiles/light_switch_client_nrf52840_xxAA_s140_6.1.1.dir/__/__/__/mesh/bearer/src/advertiser.c.obj
                0x0003022e                advertiser_disable
 .text.advertiser_packet_alloc
                0x00030238       0x76 examples/light_switch/client/CMakeFiles/light_switch_client_nrf52840_xxAA_s140_6.1.1.dir/__/__/__/mesh/bearer/src/advertiser.c.obj
                0x00030238                advertiser_packet_alloc
 .text.advertiser_packet_send
                0x000302ae       0x52 examples/light_switch/client/CMakeFiles/light_switch_client_nrf52840_xxAA_s140_6.1.1.dir/__/__/__/mesh/bearer/src/advertiser.c.obj
                0x000302ae                advertiser_packet_send
 .text.advertiser_packet_discard
                0x00030300       0x1e examples/light_switch/client/CMakeFiles/light_switch_client_nrf52840_xxAA_s140_6.1.1.dir/__/__/__/mesh/bearer/src/advertiser.c.obj
                0x00030300                advertiser_packet_discard
 .text.advertiser_address_set
                0x0003031e       0x3c examples/light_switch/client/CMakeFiles/light_switch_client_nrf52840_xxAA_s140_6.1.1.dir/__/__/__/mesh/bearer/src/advertiser.c.obj
                0x0003031e                advertiser_address_set
 .text.advertiser_interval_set
                0x0003035a       0x40 examples/light_switch/client/CMakeFiles/light_switch_client_nrf52840_xxAA_s140_6.1.1.dir/__/__/__/mesh/bearer/src/advertiser.c.obj
                0x0003035a                advertiser_interval_set
 .text.advertiser_tx_power_set
                0x0003039a       0x14 examples/light_switch/client/CMakeFiles/light_switch_client_nrf52840_xxAA_s140_6.1.1.dir/__/__/__/mesh/bearer/src/advertiser.c.obj
                0x0003039a                advertiser_tx_power_set
 .text.advertiser_flush
                0x000303ae       0x1e examples/light_switch/client/CMakeFiles/light_switch_client_nrf52840_xxAA_s140_6.1.1.dir/__/__/__/mesh/bearer/src/advertiser.c.obj
                0x000303ae                advertiser_flush
 .text.advertiser_address_default_get
                0x000303cc       0x38 examples/light_switch/client/CMakeFiles/light_switch_client_nrf52840_xxAA_s140_6.1.1.dir/__/__/__/mesh/bearer/src/advertiser.c.obj
                0x000303cc                advertiser_address_default_get
 .text.advertiser_instance_init
                0x00030404       0x98 examples/light_switch/client/CMakeFiles/light_switch_client_nrf52840_xxAA_s140_6.1.1.dir/__/__/__/mesh/bearer/src/advertiser.c.obj
                0x00030404                advertiser_instance_init
 .text.notify_stop
                0x0003049c       0x14 examples/light_switch/client/CMakeFiles/light_switch_client_nrf52840_xxAA_s140_6.1.1.dir/__/__/__/mesh/bearer/src/bearer_handler.c.obj
 .text.action_in_progress
                0x000304b0       0x30 examples/light_switch/client/CMakeFiles/light_switch_client_nrf52840_xxAA_s140_6.1.1.dir/__/__/__/mesh/bearer/src/bearer_handler.c.obj
 .text.action_timer_start
                0x000304e0       0x88 examples/light_switch/client/CMakeFiles/light_switch_client_nrf52840_xxAA_s140_6.1.1.dir/__/__/__/mesh/bearer/src/bearer_handler.c.obj
 .text.action_switch
                0x00030568      0x104 examples/light_switch/client/CMakeFiles/light_switch_client_nrf52840_xxAA_s140_6.1.1.dir/__/__/__/mesh/bearer/src/bearer_handler.c.obj
 .text.end_handle
                0x0003066c       0x44 examples/light_switch/client/CMakeFiles/light_switch_client_nrf52840_xxAA_s140_6.1.1.dir/__/__/__/mesh/bearer/src/bearer_handler.c.obj
 .text.TIMER2_IRQHandler
                0x000306b0       0x58 examples/light_switch/client/CMakeFiles/light_switch_client_nrf52840_xxAA_s140_6.1.1.dir/__/__/__/mesh/bearer/src/bearer_handler.c.obj
                0x000306b0                TIMER2_IRQHandler
 .text.bearer_handler_init
                0x00030708       0x44 examples/light_switch/client/CMakeFiles/light_switch_client_nrf52840_xxAA_s140_6.1.1.dir/__/__/__/mesh/bearer/src/bearer_handler.c.obj
                0x00030708                bearer_handler_init
 .text.bearer_handler_stop
                0x0003074c       0x48 examples/light_switch/client/CMakeFiles/light_switch_client_nrf52840_xxAA_s140_6.1.1.dir/__/__/__/mesh/bearer/src/bearer_handler.c.obj
                0x0003074c                bearer_handler_stop
 .text.bearer_handler_wake_up
                0x00030794       0x2c examples/light_switch/client/CMakeFiles/light_switch_client_nrf52840_xxAA_s140_6.1.1.dir/__/__/__/mesh/bearer/src/bearer_handler.c.obj
                0x00030794                bearer_handler_wake_up
 .text.bearer_handler_start
                0x000307c0       0x1c examples/light_switch/client/CMakeFiles/light_switch_client_nrf52840_xxAA_s140_6.1.1.dir/__/__/__/mesh/bearer/src/bearer_handler.c.obj
                0x000307c0                bearer_handler_start
 .text.bearer_handler_action_enqueue
                0x000307dc       0x6c examples/light_switch/client/CMakeFiles/light_switch_client_nrf52840_xxAA_s140_6.1.1.dir/__/__/__/mesh/bearer/src/bearer_handler.c.obj
                0x000307dc                bearer_handler_action_enqueue
 .text.bearer_handler_action_end
                0x00030848       0x48 examples/light_switch/client/CMakeFiles/light_switch_client_nrf52840_xxAA_s140_6.1.1.dir/__/__/__/mesh/bearer/src/bearer_handler.c.obj
                0x00030848                bearer_handler_action_end
 .text.bearer_handler_radio_irq_handler
                0x00030890       0x70 examples/light_switch/client/CMakeFiles/light_switch_client_nrf52840_xxAA_s140_6.1.1.dir/__/__/__/mesh/bearer/src/bearer_handler.c.obj
                0x00030890                bearer_handler_radio_irq_handler
 .text.bearer_handler_timer_irq_handler
                0x00030900       0x34 examples/light_switch/client/CMakeFiles/light_switch_client_nrf52840_xxAA_s140_6.1.1.dir/__/__/__/mesh/bearer/src/bearer_handler.c.obj
                0x00030900                bearer_handler_timer_irq_handler
 .text.bearer_handler_on_ts_begin
                0x00030934       0x38 examples/light_switch/client/CMakeFiles/light_switch_client_nrf52840_xxAA_s140_6.1.1.dir/__/__/__/mesh/bearer/src/bearer_handler.c.obj
                0x00030934                bearer_handler_on_ts_begin
 .text.bearer_handler_on_ts_end
                0x0003096c       0x70 examples/light_switch/client/CMakeFiles/light_switch_client_nrf52840_xxAA_s140_6.1.1.dir/__/__/__/mesh/bearer/src/bearer_handler.c.obj
                0x0003096c                bearer_handler_on_ts_end
 .text.bearer_handler_on_ts_session_closed
                0x000309dc       0x10 examples/light_switch/client/CMakeFiles/light_switch_client_nrf52840_xxAA_s140_6.1.1.dir/__/__/__/mesh/bearer/src/bearer_handler.c.obj
                0x000309dc                bearer_handler_on_ts_session_closed
 .text.radio_irq_handler
                0x000309ec       0xa4 examples/light_switch/client/CMakeFiles/light_switch_client_nrf52840_xxAA_s140_6.1.1.dir/__/__/__/mesh/bearer/src/broadcast.c.obj
 .text.broadcast_start
                0x00030a90       0xb4 examples/light_switch/client/CMakeFiles/light_switch_client_nrf52840_xxAA_s140_6.1.1.dir/__/__/__/mesh/bearer/src/broadcast.c.obj
 .text.broadcast_send
                0x00030b44       0x6c examples/light_switch/client/CMakeFiles/light_switch_client_nrf52840_xxAA_s140_6.1.1.dir/__/__/__/mesh/bearer/src/broadcast.c.obj
                0x00030b44                broadcast_send
 .text.fen_filter_start
                0x00030bb0       0x3c examples/light_switch/client/CMakeFiles/light_switch_client_nrf52840_xxAA_s140_6.1.1.dir/__/__/__/mesh/bearer/src/filter_engine.c.obj
                0x00030bb0                fen_filter_start
 .text.fen_filter_stop
                0x00030bec       0x30 examples/light_switch/client/CMakeFiles/light_switch_client_nrf52840_xxAA_s140_6.1.1.dir/__/__/__/mesh/bearer/src/filter_engine.c.obj
                0x00030bec                fen_filter_stop
 .text.fen_filters_apply
                0x00030c1c       0x44 examples/light_switch/client/CMakeFiles/light_switch_client_nrf52840_xxAA_s140_6.1.1.dir/__/__/__/mesh/bearer/src/filter_engine.c.obj
                0x00030c1c                fen_filters_apply
 .text.radio_config_reset
                0x00030c60       0x40 examples/light_switch/client/CMakeFiles/light_switch_client_nrf52840_xxAA_s140_6.1.1.dir/__/__/__/mesh/bearer/src/radio_config.c.obj
                0x00030c60                radio_config_reset
 .text.radio_config_channel_set
                0x00030ca0       0x28 examples/light_switch/client/CMakeFiles/light_switch_client_nrf52840_xxAA_s140_6.1.1.dir/__/__/__/mesh/bearer/src/radio_config.c.obj
                0x00030ca0                radio_config_channel_set
 .text.radio_config_config
                0x00030cc8       0x8c examples/light_switch/client/CMakeFiles/light_switch_client_nrf52840_xxAA_s140_6.1.1.dir/__/__/__/mesh/bearer/src/radio_config.c.obj
                0x00030cc8                radio_config_config
 .text.radio_config_access_addr_set
                0x00030d54       0x50 examples/light_switch/client/CMakeFiles/light_switch_client_nrf52840_xxAA_s140_6.1.1.dir/__/__/__/mesh/bearer/src/radio_config.c.obj
                0x00030d54                radio_config_access_addr_set
 .text.radio_trigger
                0x00030da4       0x24 examples/light_switch/client/CMakeFiles/light_switch_client_nrf52840_xxAA_s140_6.1.1.dir/__/__/__/mesh/bearer/src/scanner.c.obj
 .text.scan_window_end
                0x00030dc8       0x10 examples/light_switch/client/CMakeFiles/light_switch_client_nrf52840_xxAA_s140_6.1.1.dir/__/__/__/mesh/bearer/src/scanner.c.obj
 .text.scan_window_start
                0x00030dd8       0x24 examples/light_switch/client/CMakeFiles/light_switch_client_nrf52840_xxAA_s140_6.1.1.dir/__/__/__/mesh/bearer/src/scanner.c.obj
 .text.radio_configure
                0x00030dfc       0x78 examples/light_switch/client/CMakeFiles/light_switch_client_nrf52840_xxAA_s140_6.1.1.dir/__/__/__/mesh/bearer/src/scanner.c.obj
 .text.radio_set_packet
                0x00030e74       0x4c examples/light_switch/client/CMakeFiles/light_switch_client_nrf52840_xxAA_s140_6.1.1.dir/__/__/__/mesh/bearer/src/scanner.c.obj
 .text.radio_start
                0x00030ec0       0x78 examples/light_switch/client/CMakeFiles/light_switch_client_nrf52840_xxAA_s140_6.1.1.dir/__/__/__/mesh/bearer/src/scanner.c.obj
 .text.radio_stop
                0x00030f38       0x38 examples/light_switch/client/CMakeFiles/light_switch_client_nrf52840_xxAA_s140_6.1.1.dir/__/__/__/mesh/bearer/src/scanner.c.obj
 .text.schedule_timers
                0x00030f70       0x38 examples/light_switch/client/CMakeFiles/light_switch_client_nrf52840_xxAA_s140_6.1.1.dir/__/__/__/mesh/bearer/src/scanner.c.obj
 .text.scanner_radio_start
                0x00030fa8       0x28 examples/light_switch/client/CMakeFiles/light_switch_client_nrf52840_xxAA_s140_6.1.1.dir/__/__/__/mesh/bearer/src/scanner.c.obj
                0x00030fa8                scanner_radio_start
 .text.scanner_radio_stop
                0x00030fd0       0x10 examples/light_switch/client/CMakeFiles/light_switch_client_nrf52840_xxAA_s140_6.1.1.dir/__/__/__/mesh/bearer/src/scanner.c.obj
                0x00030fd0                scanner_radio_stop
 .text.scanner_radio_irq_handler
                0x00030fe0      0x144 examples/light_switch/client/CMakeFiles/light_switch_client_nrf52840_xxAA_s140_6.1.1.dir/__/__/__/mesh/bearer/src/scanner.c.obj
                0x00030fe0                scanner_radio_irq_handler
 .text.scanner_timer_irq_handler
                0x00031124       0x30 examples/light_switch/client/CMakeFiles/light_switch_client_nrf52840_xxAA_s140_6.1.1.dir/__/__/__/mesh/bearer/src/scanner.c.obj
                0x00031124                scanner_timer_irq_handler
 .text.scanner_enable
                0x00031154       0x2c examples/light_switch/client/CMakeFiles/light_switch_client_nrf52840_xxAA_s140_6.1.1.dir/__/__/__/mesh/bearer/src/scanner.c.obj
                0x00031154                scanner_enable
 .text.scanner_is_enabled
                0x00031180       0x10 examples/light_switch/client/CMakeFiles/light_switch_client_nrf52840_xxAA_s140_6.1.1.dir/__/__/__/mesh/bearer/src/scanner.c.obj
                0x00031180                scanner_is_enabled
 .text.scanner_packet_release
                0x00031190       0x2c examples/light_switch/client/CMakeFiles/light_switch_client_nrf52840_xxAA_s140_6.1.1.dir/__/__/__/mesh/bearer/src/scanner.c.obj
                0x00031190                scanner_packet_release
 .text.scanner_rx
                0x000311bc       0x34 examples/light_switch/client/CMakeFiles/light_switch_client_nrf52840_xxAA_s140_6.1.1.dir/__/__/__/mesh/bearer/src/scanner.c.obj
                0x000311bc                scanner_rx
 .text.scanner_rx_pending
                0x000311f0        0xc examples/light_switch/client/CMakeFiles/light_switch_client_nrf52840_xxAA_s140_6.1.1.dir/__/__/__/mesh/bearer/src/scanner.c.obj
                0x000311f0                scanner_rx_pending
 .text.scanner_config_scan_time_set
                0x000311fc       0x4c examples/light_switch/client/CMakeFiles/light_switch_client_nrf52840_xxAA_s140_6.1.1.dir/__/__/__/mesh/bearer/src/scanner.c.obj
                0x000311fc                scanner_config_scan_time_set
 .text.scanner_config_channels_set
                0x00031248       0x50 examples/light_switch/client/CMakeFiles/light_switch_client_nrf52840_xxAA_s140_6.1.1.dir/__/__/__/mesh/bearer/src/scanner.c.obj
                0x00031248                scanner_config_channels_set
 .text.scanner_config_access_addresses_set
                0x00031298       0x38 examples/light_switch/client/CMakeFiles/light_switch_client_nrf52840_xxAA_s140_6.1.1.dir/__/__/__/mesh/bearer/src/scanner.c.obj
                0x00031298                scanner_config_access_addresses_set
 .text.scanner_config_reset
                0x000312d0       0x50 examples/light_switch/client/CMakeFiles/light_switch_client_nrf52840_xxAA_s140_6.1.1.dir/__/__/__/mesh/bearer/src/scanner.c.obj
                0x000312d0                scanner_config_reset
 .text.scanner_init
                0x00031320       0x54 examples/light_switch/client/CMakeFiles/light_switch_client_nrf52840_xxAA_s140_6.1.1.dir/__/__/__/mesh/bearer/src/scanner.c.obj
                0x00031320                scanner_init
 .text.pin_clear
                0x00031374       0x24 examples/light_switch/client/CMakeFiles/light_switch_client_nrf52840_xxAA_s140_6.1.1.dir/__/__/__/mesh/bearer/src/mesh_pa_lna.c.obj
 .text.ppi_setup.isra.0
                0x00031398       0x3c examples/light_switch/client/CMakeFiles/light_switch_client_nrf52840_xxAA_s140_6.1.1.dir/__/__/__/mesh/bearer/src/mesh_pa_lna.c.obj
 .text.mesh_pa_setup_start
                0x000313d4       0x5c examples/light_switch/client/CMakeFiles/light_switch_client_nrf52840_xxAA_s140_6.1.1.dir/__/__/__/mesh/bearer/src/mesh_pa_lna.c.obj
                0x000313d4                mesh_pa_setup_start
 .text.mesh_lna_setup_start
                0x00031430       0x5c examples/light_switch/client/CMakeFiles/light_switch_client_nrf52840_xxAA_s140_6.1.1.dir/__/__/__/mesh/bearer/src/mesh_pa_lna.c.obj
                0x00031430                mesh_lna_setup_start
 .text.mesh_pa_lna_disable_start
                0x0003148c       0x1c examples/light_switch/client/CMakeFiles/light_switch_client_nrf52840_xxAA_s140_6.1.1.dir/__/__/__/mesh/bearer/src/mesh_pa_lna.c.obj
                0x0003148c                mesh_pa_lna_disable_start
 .text.mesh_pa_lna_setup_stop
                0x000314a8       0x4c examples/light_switch/client/CMakeFiles/light_switch_client_nrf52840_xxAA_s140_6.1.1.dir/__/__/__/mesh/bearer/src/mesh_pa_lna.c.obj
                0x000314a8                mesh_pa_lna_setup_stop
 .text.mesh_pa_lna_cleanup
                0x000314f4       0x48 examples/light_switch/client/CMakeFiles/light_switch_client_nrf52840_xxAA_s140_6.1.1.dir/__/__/__/mesh/bearer/src/mesh_pa_lna.c.obj
                0x000314f4                mesh_pa_lna_cleanup
 .text.sd_ble_gap_disconnect
                0x0003153c        0x4 examples/light_switch/client/CMakeFiles/light_switch_client_nrf52840_xxAA_s140_6.1.1.dir/__/__/__/mesh/gatt/src/mesh_gatt.c.obj
 .text.sd_ble_gap_sec_params_reply
                0x00031540        0x4 examples/light_switch/client/CMakeFiles/light_switch_client_nrf52840_xxAA_s140_6.1.1.dir/__/__/__/mesh/gatt/src/mesh_gatt.c.obj
 .text.sd_ble_gap_phy_update
                0x00031544        0x4 examples/light_switch/client/CMakeFiles/light_switch_client_nrf52840_xxAA_s140_6.1.1.dir/__/__/__/mesh/gatt/src/mesh_gatt.c.obj
 .text.sd_ble_gap_data_length_update
                0x00031548        0x4 examples/light_switch/client/CMakeFiles/light_switch_client_nrf52840_xxAA_s140_6.1.1.dir/__/__/__/mesh/gatt/src/mesh_gatt.c.obj
 .text.sd_ble_gatts_service_add
                0x0003154c        0x4 examples/light_switch/client/CMakeFiles/light_switch_client_nrf52840_xxAA_s140_6.1.1.dir/__/__/__/mesh/gatt/src/mesh_gatt.c.obj
 .text.sd_ble_gatts_characteristic_add
                0x00031550        0x4 examples/light_switch/client/CMakeFiles/light_switch_client_nrf52840_xxAA_s140_6.1.1.dir/__/__/__/mesh/gatt/src/mesh_gatt.c.obj
 .text.sd_ble_gatts_hvx
                0x00031554        0x4 examples/light_switch/client/CMakeFiles/light_switch_client_nrf52840_xxAA_s140_6.1.1.dir/__/__/__/mesh/gatt/src/mesh_gatt.c.obj
 .text.sd_ble_gatts_sys_attr_set
                0x00031558        0x4 examples/light_switch/client/CMakeFiles/light_switch_client_nrf52840_xxAA_s140_6.1.1.dir/__/__/__/mesh/gatt/src/mesh_gatt.c.obj
 .text.sd_ble_gatts_exchange_mtu_reply
                0x0003155c        0x4 examples/light_switch/client/CMakeFiles/light_switch_client_nrf52840_xxAA_s140_6.1.1.dir/__/__/__/mesh/gatt/src/mesh_gatt.c.obj
 .text.timeout_cb
                0x00031560       0x1c examples/light_switch/client/CMakeFiles/light_switch_client_nrf52840_xxAA_s140_6.1.1.dir/__/__/__/mesh/gatt/src/mesh_gatt.c.obj
 .text.mesh_gatt_init
                0x0003157c      0x14c examples/light_switch/client/CMakeFiles/light_switch_client_nrf52840_xxAA_s140_6.1.1.dir/__/__/__/mesh/gatt/src/mesh_gatt.c.obj
                0x0003157c                mesh_gatt_init
 .text.mesh_gatt_packet_alloc
                0x000316c8       0x7c examples/light_switch/client/CMakeFiles/light_switch_client_nrf52840_xxAA_s140_6.1.1.dir/__/__/__/mesh/gatt/src/mesh_gatt.c.obj
                0x000316c8                mesh_gatt_packet_alloc
 .text.mesh_gatt_packet_discard
                0x00031744       0x4c examples/light_switch/client/CMakeFiles/light_switch_client_nrf52840_xxAA_s140_6.1.1.dir/__/__/__/mesh/gatt/src/mesh_gatt.c.obj
                0x00031744                mesh_gatt_packet_discard
 .text.mesh_gatt_packet_is_pending
                0x00031790       0x20 examples/light_switch/client/CMakeFiles/light_switch_client_nrf52840_xxAA_s140_6.1.1.dir/__/__/__/mesh/gatt/src/mesh_gatt.c.obj
                0x00031790                mesh_gatt_packet_is_pending
 .text.mesh_gatt_disconnect
                0x000317b0       0x30 examples/light_switch/client/CMakeFiles/light_switch_client_nrf52840_xxAA_s140_6.1.1.dir/__/__/__/mesh/gatt/src/mesh_gatt.c.obj
                0x000317b0                mesh_gatt_disconnect
 .text.mesh_gatt_pdu_send
                0x000317e0      0x170 examples/light_switch/client/CMakeFiles/light_switch_client_nrf52840_xxAA_s140_6.1.1.dir/__/__/__/mesh/gatt/src/mesh_gatt.c.obj
 .text.mesh_gatt_packet_send
                0x00031950       0x88 examples/light_switch/client/CMakeFiles/light_switch_client_nrf52840_xxAA_s140_6.1.1.dir/__/__/__/mesh/gatt/src/mesh_gatt.c.obj
                0x00031950                mesh_gatt_packet_send
 .text.mesh_gatt_on_ble_evt
                0x000319d8      0x3b0 examples/light_switch/client/CMakeFiles/light_switch_client_nrf52840_xxAA_s140_6.1.1.dir/__/__/__/mesh/gatt/src/mesh_gatt.c.obj
                0x000319d8                mesh_gatt_on_ble_evt
 .text.active_connection_count
                0x00031d88        0xc examples/light_switch/client/CMakeFiles/light_switch_client_nrf52840_xxAA_s140_6.1.1.dir/__/__/__/mesh/gatt/src/proxy.c.obj
 .text.proxy_get
                0x00031d94       0x10 examples/light_switch/client/CMakeFiles/light_switch_client_nrf52840_xxAA_s140_6.1.1.dir/__/__/__/mesh/gatt/src/proxy.c.obj
 .text.proxy_delete
                0x00031da4       0x10 examples/light_switch/client/CMakeFiles/light_switch_client_nrf52840_xxAA_s140_6.1.1.dir/__/__/__/mesh/gatt/src/proxy.c.obj
 .text.packet_discard
                0x00031db4       0x30 examples/light_switch/client/CMakeFiles/light_switch_client_nrf52840_xxAA_s140_6.1.1.dir/__/__/__/mesh/gatt/src/proxy.c.obj
 .text.core_tx_packet_discard_cb
                0x00031de4       0x18 examples/light_switch/client/CMakeFiles/light_switch_client_nrf52840_xxAA_s140_6.1.1.dir/__/__/__/mesh/gatt/src/proxy.c.obj
 .text.packet_send
                0x00031dfc       0x3c examples/light_switch/client/CMakeFiles/light_switch_client_nrf52840_xxAA_s140_6.1.1.dir/__/__/__/mesh/gatt/src/proxy.c.obj
 .text.core_tx_packet_send_cb
                0x00031e38       0x38 examples/light_switch/client/CMakeFiles/light_switch_client_nrf52840_xxAA_s140_6.1.1.dir/__/__/__/mesh/gatt/src/proxy.c.obj
 .text.packet_alloc
                0x00031e70       0x44 examples/light_switch/client/CMakeFiles/light_switch_client_nrf52840_xxAA_s140_6.1.1.dir/__/__/__/mesh/gatt/src/proxy.c.obj
 .text.core_tx_packet_alloc_cb
                0x00031eb4       0x40 examples/light_switch/client/CMakeFiles/light_switch_client_nrf52840_xxAA_s140_6.1.1.dir/__/__/__/mesh/gatt/src/proxy.c.obj
 .text.adv_data_set
                0x00031ef4       0xa4 examples/light_switch/client/CMakeFiles/light_switch_client_nrf52840_xxAA_s140_6.1.1.dir/__/__/__/mesh/gatt/src/proxy.c.obj
 .text.on_adv_end
                0x00031f98       0x14 examples/light_switch/client/CMakeFiles/light_switch_client_nrf52840_xxAA_s140_6.1.1.dir/__/__/__/mesh/gatt/src/proxy.c.obj
 .text.has_pending_packets
                0x00031fac       0x14 examples/light_switch/client/CMakeFiles/light_switch_client_nrf52840_xxAA_s140_6.1.1.dir/__/__/__/mesh/gatt/src/proxy.c.obj
 .text.adv_net_iterate
                0x00031fc0       0x34 examples/light_switch/client/CMakeFiles/light_switch_client_nrf52840_xxAA_s140_6.1.1.dir/__/__/__/mesh/gatt/src/proxy.c.obj
 .text.adv_timer_handler
                0x00031ff4        0xe examples/light_switch/client/CMakeFiles/light_switch_client_nrf52840_xxAA_s140_6.1.1.dir/__/__/__/mesh/gatt/src/proxy.c.obj
 *fill*         0x00032002        0x2 
 .text.adv_start
                0x00032004       0x5c examples/light_switch/client/CMakeFiles/light_switch_client_nrf52840_xxAA_s140_6.1.1.dir/__/__/__/mesh/gatt/src/proxy.c.obj
 .text.proxy_set
                0x00032060       0x3c examples/light_switch/client/CMakeFiles/light_switch_client_nrf52840_xxAA_s140_6.1.1.dir/__/__/__/mesh/gatt/src/proxy.c.obj
 .text.beacon_packet_send_to_all
                0x0003209c       0x54 examples/light_switch/client/CMakeFiles/light_switch_client_nrf52840_xxAA_s140_6.1.1.dir/__/__/__/mesh/gatt/src/proxy.c.obj
 .text.mesh_evt_handle
                0x000320f0       0x3c examples/light_switch/client/CMakeFiles/light_switch_client_nrf52840_xxAA_s140_6.1.1.dir/__/__/__/mesh/gatt/src/proxy.c.obj
 .text.proxy_init
                0x0003212c       0x84 examples/light_switch/client/CMakeFiles/light_switch_client_nrf52840_xxAA_s140_6.1.1.dir/__/__/__/mesh/gatt/src/proxy.c.obj
                0x0003212c                proxy_init
 .text.proxy_start
                0x000321b0       0x38 examples/light_switch/client/CMakeFiles/light_switch_client_nrf52840_xxAA_s140_6.1.1.dir/__/__/__/mesh/gatt/src/proxy.c.obj
                0x000321b0                proxy_start
 .text.proxy_subnet_added
                0x000321e8       0x58 examples/light_switch/client/CMakeFiles/light_switch_client_nrf52840_xxAA_s140_6.1.1.dir/__/__/__/mesh/gatt/src/proxy.c.obj
                0x000321e8                proxy_subnet_added
 .text.proxy_net_packet_processed
                0x00032240       0x40 examples/light_switch/client/CMakeFiles/light_switch_client_nrf52840_xxAA_s140_6.1.1.dir/__/__/__/mesh/gatt/src/proxy.c.obj
                0x00032240                proxy_net_packet_processed
 .text.proxy_node_id_is_enabled
                0x00032280       0x2c examples/light_switch/client/CMakeFiles/light_switch_client_nrf52840_xxAA_s140_6.1.1.dir/__/__/__/mesh/gatt/src/proxy.c.obj
                0x00032280                proxy_node_id_is_enabled
 .text.proxy_is_enabled
                0x000322ac        0xc examples/light_switch/client/CMakeFiles/light_switch_client_nrf52840_xxAA_s140_6.1.1.dir/__/__/__/mesh/gatt/src/proxy.c.obj
                0x000322ac                proxy_is_enabled
 .text.proxy_is_connected
                0x000322b8       0x18 examples/light_switch/client/CMakeFiles/light_switch_client_nrf52840_xxAA_s140_6.1.1.dir/__/__/__/mesh/gatt/src/proxy.c.obj
                0x000322b8                proxy_is_connected
 .text.proxy_disconnect
                0x000322d0       0x1c examples/light_switch/client/CMakeFiles/light_switch_client_nrf52840_xxAA_s140_6.1.1.dir/__/__/__/mesh/gatt/src/proxy.c.obj
                0x000322d0                proxy_disconnect
 .text.gatt_evt_handler
                0x000322ec      0x698 examples/light_switch/client/CMakeFiles/light_switch_client_nrf52840_xxAA_s140_6.1.1.dir/__/__/__/mesh/gatt/src/proxy.c.obj
 .text.proxy_stop
                0x00032984       0x68 examples/light_switch/client/CMakeFiles/light_switch_client_nrf52840_xxAA_s140_6.1.1.dir/__/__/__/mesh/gatt/src/proxy.c.obj
                0x00032984                proxy_stop
 .text.proxy_node_id_enable
                0x000329ec       0x2c examples/light_switch/client/CMakeFiles/light_switch_client_nrf52840_xxAA_s140_6.1.1.dir/__/__/__/mesh/gatt/src/proxy.c.obj
                0x000329ec                proxy_node_id_enable
 .text.proxy_node_id_disable
                0x00032a18       0x30 examples/light_switch/client/CMakeFiles/light_switch_client_nrf52840_xxAA_s140_6.1.1.dir/__/__/__/mesh/gatt/src/proxy.c.obj
                0x00032a18                proxy_node_id_disable
 .text.mesh_opt_gatt_proxy_set
                0x00032a48       0x1c examples/light_switch/client/CMakeFiles/light_switch_client_nrf52840_xxAA_s140_6.1.1.dir/__/__/__/mesh/gatt/src/proxy.c.obj
                0x00032a48                mesh_opt_gatt_proxy_set
 .text.proxy_filter_clear
                0x00032a64       0x18 examples/light_switch/client/CMakeFiles/light_switch_client_nrf52840_xxAA_s140_6.1.1.dir/__/__/__/mesh/gatt/src/proxy_filter.c.obj
                0x00032a64                proxy_filter_clear
 .text.proxy_filter_type_set
                0x00032a7c       0x24 examples/light_switch/client/CMakeFiles/light_switch_client_nrf52840_xxAA_s140_6.1.1.dir/__/__/__/mesh/gatt/src/proxy_filter.c.obj
                0x00032a7c                proxy_filter_type_set
 .text.proxy_filter_add
                0x00032aa0       0x54 examples/light_switch/client/CMakeFiles/light_switch_client_nrf52840_xxAA_s140_6.1.1.dir/__/__/__/mesh/gatt/src/proxy_filter.c.obj
                0x00032aa0                proxy_filter_add
 .text.proxy_filter_remove
                0x00032af4       0x50 examples/light_switch/client/CMakeFiles/light_switch_client_nrf52840_xxAA_s140_6.1.1.dir/__/__/__/mesh/gatt/src/proxy_filter.c.obj
                0x00032af4                proxy_filter_remove
 .text.proxy_filter_accept
                0x00032b44       0x36 examples/light_switch/client/CMakeFiles/light_switch_client_nrf52840_xxAA_s140_6.1.1.dir/__/__/__/mesh/gatt/src/proxy_filter.c.obj
                0x00032b44                proxy_filter_accept
 .text.status_handle
                0x00032b7a       0x4a examples/light_switch/client/CMakeFiles/light_switch_client_nrf52840_xxAA_s140_6.1.1.dir/__/__/__/models/model_spec/generic_onoff/src/generic_onoff_client.c.obj
 .text.generic_onoff_client_init
                0x00032bc4       0x58 examples/light_switch/client/CMakeFiles/light_switch_client_nrf52840_xxAA_s140_6.1.1.dir/__/__/__/models/model_spec/generic_onoff/src/generic_onoff_client.c.obj
                0x00032bc4                generic_onoff_client_init
 .text.generic_onoff_client_set
                0x00032c1c       0xa0 examples/light_switch/client/CMakeFiles/light_switch_client_nrf52840_xxAA_s140_6.1.1.dir/__/__/__/models/model_spec/generic_onoff/src/generic_onoff_client.c.obj
                0x00032c1c                generic_onoff_client_set
 .text.generic_onoff_client_set_unack
                0x00032cbc       0x94 examples/light_switch/client/CMakeFiles/light_switch_client_nrf52840_xxAA_s140_6.1.1.dir/__/__/__/models/model_spec/generic_onoff/src/generic_onoff_client.c.obj
                0x00032cbc                generic_onoff_client_set_unack
 .text.model_transition_time_decode
                0x00032d50       0x40 examples/light_switch/client/CMakeFiles/light_switch_client_nrf52840_xxAA_s140_6.1.1.dir/__/__/__/models/model_spec/common/src/model_common.c.obj
                0x00032d50                model_transition_time_decode
 .text.model_transition_time_encode
                0x00032d90       0x60 examples/light_switch/client/CMakeFiles/light_switch_client_nrf52840_xxAA_s140_6.1.1.dir/__/__/__/models/model_spec/common/src/model_common.c.obj
                0x00032d90                model_transition_time_encode
 .text.model_delay_encode
                0x00032df0       0x10 examples/light_switch/client/CMakeFiles/light_switch_client_nrf52840_xxAA_s140_6.1.1.dir/__/__/__/models/model_spec/common/src/model_common.c.obj
                0x00032df0                model_delay_encode
 .text.config_composition_data_get
                0x00032e00      0x17a examples/light_switch/client/CMakeFiles/light_switch_client_nrf52840_xxAA_s140_6.1.1.dir/__/__/__/models/foundation/config/src/composition_data.c.obj
                0x00032e00                config_composition_data_get
 *fill*         0x00032f7a        0x2 
 .text.app_evt_send
                0x00032f7c       0x10 examples/light_switch/client/CMakeFiles/light_switch_client_nrf52840_xxAA_s140_6.1.1.dir/__/__/__/models/foundation/config/src/config_server.c.obj
 .text.get_element_index
                0x00032f8c       0x2a examples/light_switch/client/CMakeFiles/light_switch_client_nrf52840_xxAA_s140_6.1.1.dir/__/__/__/models/foundation/config/src/config_server.c.obj
 .text.config_server_heartbeat_publication_params_get
                0x00032fb6       0x30 examples/light_switch/client/CMakeFiles/light_switch_client_nrf52840_xxAA_s140_6.1.1.dir/__/__/__/models/foundation/config/src/config_server.c.obj
 .text.send_reply
                0x00032fe6       0x34 examples/light_switch/client/CMakeFiles/light_switch_client_nrf52840_xxAA_s140_6.1.1.dir/__/__/__/models/foundation/config/src/config_server.c.obj
 .text.send_network_transmit_status
                0x0003301a       0x5a examples/light_switch/client/CMakeFiles/light_switch_client_nrf52840_xxAA_s140_6.1.1.dir/__/__/__/models/foundation/config/src/config_server.c.obj
 .text.handle_config_network_transmit_set
                0x00033074       0x74 examples/light_switch/client/CMakeFiles/light_switch_client_nrf52840_xxAA_s140_6.1.1.dir/__/__/__/models/foundation/config/src/config_server.c.obj
 .text.handle_config_network_transmit_get
                0x000330e8        0xa examples/light_switch/client/CMakeFiles/light_switch_client_nrf52840_xxAA_s140_6.1.1.dir/__/__/__/models/foundation/config/src/config_server.c.obj
 *fill*         0x000330f2        0x2 
 .text.handle_node_reset
                0x000330f4       0x34 examples/light_switch/client/CMakeFiles/light_switch_client_nrf52840_xxAA_s140_6.1.1.dir/__/__/__/models/foundation/config/src/config_server.c.obj
 .text.send_netkey_status
                0x00033128       0x2c examples/light_switch/client/CMakeFiles/light_switch_client_nrf52840_xxAA_s140_6.1.1.dir/__/__/__/models/foundation/config/src/config_server.c.obj
 .text.send_relay_status
                0x00033154       0x7e examples/light_switch/client/CMakeFiles/light_switch_client_nrf52840_xxAA_s140_6.1.1.dir/__/__/__/models/foundation/config/src/config_server.c.obj
 .text.handle_config_relay_set
                0x000331d2       0x9a examples/light_switch/client/CMakeFiles/light_switch_client_nrf52840_xxAA_s140_6.1.1.dir/__/__/__/models/foundation/config/src/config_server.c.obj
 .text.handle_config_relay_get
                0x0003326c        0xa examples/light_switch/client/CMakeFiles/light_switch_client_nrf52840_xxAA_s140_6.1.1.dir/__/__/__/models/foundation/config/src/config_server.c.obj
 .text.send_subscription_status
                0x00033276       0x42 examples/light_switch/client/CMakeFiles/light_switch_client_nrf52840_xxAA_s140_6.1.1.dir/__/__/__/models/foundation/config/src/config_server.c.obj
 .text.send_appkey_status
                0x000332b8       0x3a examples/light_switch/client/CMakeFiles/light_switch_client_nrf52840_xxAA_s140_6.1.1.dir/__/__/__/models/foundation/config/src/config_server.c.obj
 .text.handle_node_identity_set
                0x000332f2       0xa0 examples/light_switch/client/CMakeFiles/light_switch_client_nrf52840_xxAA_s140_6.1.1.dir/__/__/__/models/foundation/config/src/config_server.c.obj
 .text.handle_netkey_delete
                0x00033392       0xbc examples/light_switch/client/CMakeFiles/light_switch_client_nrf52840_xxAA_s140_6.1.1.dir/__/__/__/models/foundation/config/src/config_server.c.obj
 *fill*         0x0003344e        0x2 
 .text.handle_netkey_add_update
                0x00033450       0x78 examples/light_switch/client/CMakeFiles/light_switch_client_nrf52840_xxAA_s140_6.1.1.dir/__/__/__/models/foundation/config/src/config_server.c.obj
 .text.status_error_sub_send
                0x000334c8      0x124 examples/light_switch/client/CMakeFiles/light_switch_client_nrf52840_xxAA_s140_6.1.1.dir/__/__/__/models/foundation/config/src/config_server.c.obj
 .text.delete_all_subscriptions
                0x000335ec       0x66 examples/light_switch/client/CMakeFiles/light_switch_client_nrf52840_xxAA_s140_6.1.1.dir/__/__/__/models/foundation/config/src/config_server.c.obj
 .text.send_publication_status
                0x00033652      0x188 examples/light_switch/client/CMakeFiles/light_switch_client_nrf52840_xxAA_s140_6.1.1.dir/__/__/__/models/foundation/config/src/config_server.c.obj
 .text.handle_config_key_refresh_phase_set
                0x000337da       0xc8 examples/light_switch/client/CMakeFiles/light_switch_client_nrf52840_xxAA_s140_6.1.1.dir/__/__/__/models/foundation/config/src/config_server.c.obj
 .text.handle_config_default_ttl_set
                0x000338a2       0x50 examples/light_switch/client/CMakeFiles/light_switch_client_nrf52840_xxAA_s140_6.1.1.dir/__/__/__/models/foundation/config/src/config_server.c.obj
 .text.send_net_beacon_state
                0x000338f2       0x2c examples/light_switch/client/CMakeFiles/light_switch_client_nrf52840_xxAA_s140_6.1.1.dir/__/__/__/models/foundation/config/src/config_server.c.obj
 .text.handle_config_beacon_get
                0x0003391e        0xa examples/light_switch/client/CMakeFiles/light_switch_client_nrf52840_xxAA_s140_6.1.1.dir/__/__/__/models/foundation/config/src/config_server.c.obj
 .text.handle_heartbeat_publication_set
                0x00033928       0xea examples/light_switch/client/CMakeFiles/light_switch_client_nrf52840_xxAA_s140_6.1.1.dir/__/__/__/models/foundation/config/src/config_server.c.obj
 *fill*         0x00033a12        0x2 
 .text.apply_reset
                0x00033a14       0x30 examples/light_switch/client/CMakeFiles/light_switch_client_nrf52840_xxAA_s140_6.1.1.dir/__/__/__/models/foundation/config/src/config_server.c.obj
 .text.mesh_event_cb
                0x00033a44       0x68 examples/light_switch/client/CMakeFiles/light_switch_client_nrf52840_xxAA_s140_6.1.1.dir/__/__/__/models/foundation/config/src/config_server.c.obj
 .text.handle_config_friend_set.part.6
                0x00033aac       0x2a examples/light_switch/client/CMakeFiles/light_switch_client_nrf52840_xxAA_s140_6.1.1.dir/__/__/__/models/foundation/config/src/config_server.c.obj
 .text.handle_config_friend_set
                0x00033ad6       0x14 examples/light_switch/client/CMakeFiles/light_switch_client_nrf52840_xxAA_s140_6.1.1.dir/__/__/__/models/foundation/config/src/config_server.c.obj
 .text.handle_config_friend_get
                0x00033aea        0xa examples/light_switch/client/CMakeFiles/light_switch_client_nrf52840_xxAA_s140_6.1.1.dir/__/__/__/models/foundation/config/src/config_server.c.obj
 .text.handle_config_key_refresh_phase_get
                0x00033af4       0x58 examples/light_switch/client/CMakeFiles/light_switch_client_nrf52840_xxAA_s140_6.1.1.dir/__/__/__/models/foundation/config/src/config_server.c.obj
 .text.handle_config_gatt_proxy_get
                0x00033b4c       0x30 examples/light_switch/client/CMakeFiles/light_switch_client_nrf52840_xxAA_s140_6.1.1.dir/__/__/__/models/foundation/config/src/config_server.c.obj
 .text.handle_node_identity_get
                0x00033b7c       0x64 examples/light_switch/client/CMakeFiles/light_switch_client_nrf52840_xxAA_s140_6.1.1.dir/__/__/__/models/foundation/config/src/config_server.c.obj
 .text.handle_netkey_get
                0x00033be0       0x50 examples/light_switch/client/CMakeFiles/light_switch_client_nrf52840_xxAA_s140_6.1.1.dir/__/__/__/models/foundation/config/src/config_server.c.obj
 .text.handle_appkey_get
                0x00033c30       0x82 examples/light_switch/client/CMakeFiles/light_switch_client_nrf52840_xxAA_s140_6.1.1.dir/__/__/__/models/foundation/config/src/config_server.c.obj
 .text.status_error_pub_send
                0x00033cb2       0x90 examples/light_switch/client/CMakeFiles/light_switch_client_nrf52840_xxAA_s140_6.1.1.dir/__/__/__/models/foundation/config/src/config_server.c.obj
 .text.handle_config_gatt_proxy_set
                0x00033d42       0x52 examples/light_switch/client/CMakeFiles/light_switch_client_nrf52840_xxAA_s140_6.1.1.dir/__/__/__/models/foundation/config/src/config_server.c.obj
 .text.handle_config_default_ttl_get
                0x00033d94       0x30 examples/light_switch/client/CMakeFiles/light_switch_client_nrf52840_xxAA_s140_6.1.1.dir/__/__/__/models/foundation/config/src/config_server.c.obj
 .text.handle_config_beacon_set
                0x00033dc4       0x42 examples/light_switch/client/CMakeFiles/light_switch_client_nrf52840_xxAA_s140_6.1.1.dir/__/__/__/models/foundation/config/src/config_server.c.obj
 .text.handle_composition_data_get
                0x00033e06       0x44 examples/light_switch/client/CMakeFiles/light_switch_client_nrf52840_xxAA_s140_6.1.1.dir/__/__/__/models/foundation/config/src/config_server.c.obj
 *fill*         0x00033e4a        0x2 
 .text.handle_appkey_add
                0x00033e4c      0x140 examples/light_switch/client/CMakeFiles/light_switch_client_nrf52840_xxAA_s140_6.1.1.dir/__/__/__/models/foundation/config/src/config_server.c.obj
 .text.get_subscription_list.constprop.25
                0x00033f8c       0x4e examples/light_switch/client/CMakeFiles/light_switch_client_nrf52840_xxAA_s140_6.1.1.dir/__/__/__/models/foundation/config/src/config_server.c.obj
 .text.handle_config_sig_model_subscription_get
                0x00033fda       0xa2 examples/light_switch/client/CMakeFiles/light_switch_client_nrf52840_xxAA_s140_6.1.1.dir/__/__/__/models/foundation/config/src/config_server.c.obj
 .text.heartbeat_subscription_count_encode
                0x0003407c       0x32 examples/light_switch/client/CMakeFiles/light_switch_client_nrf52840_xxAA_s140_6.1.1.dir/__/__/__/models/foundation/config/src/config_server.c.obj
 .text.heartbeat_pubsub_period_encode
                0x000340ae       0x26 examples/light_switch/client/CMakeFiles/light_switch_client_nrf52840_xxAA_s140_6.1.1.dir/__/__/__/models/foundation/config/src/config_server.c.obj
 .text.handle_heartbeat_publication_get
                0x000340d4       0x8a examples/light_switch/client/CMakeFiles/light_switch_client_nrf52840_xxAA_s140_6.1.1.dir/__/__/__/models/foundation/config/src/config_server.c.obj
 .text.handle_heartbeat_subscription_get
                0x0003415e       0x84 examples/light_switch/client/CMakeFiles/light_switch_client_nrf52840_xxAA_s140_6.1.1.dir/__/__/__/models/foundation/config/src/config_server.c.obj
 .text.handle_appkey_update
                0x000341e2       0xbc examples/light_switch/client/CMakeFiles/light_switch_client_nrf52840_xxAA_s140_6.1.1.dir/__/__/__/models/foundation/config/src/config_server.c.obj
 .text.handle_appkey_delete
                0x0003429e       0xc2 examples/light_switch/client/CMakeFiles/light_switch_client_nrf52840_xxAA_s140_6.1.1.dir/__/__/__/models/foundation/config/src/config_server.c.obj
 .text.handle_heartbeat_subscription_set
                0x00034360       0xa8 examples/light_switch/client/CMakeFiles/light_switch_client_nrf52840_xxAA_s140_6.1.1.dir/__/__/__/models/foundation/config/src/config_server.c.obj
 .text.handle_config_model_publication_get
                0x00034408       0x8c examples/light_switch/client/CMakeFiles/light_switch_client_nrf52840_xxAA_s140_6.1.1.dir/__/__/__/models/foundation/config/src/config_server.c.obj
 .text.handle_config_model_subscription_delete_all
                0x00034494       0xc2 examples/light_switch/client/CMakeFiles/light_switch_client_nrf52840_xxAA_s140_6.1.1.dir/__/__/__/models/foundation/config/src/config_server.c.obj
 .text.handle_config_model_subscription_virtual_address_delete
                0x00034556      0x108 examples/light_switch/client/CMakeFiles/light_switch_client_nrf52840_xxAA_s140_6.1.1.dir/__/__/__/models/foundation/config/src/config_server.c.obj
 .text.handle_config_model_subscription_virtual_address_add
                0x0003465e      0x106 examples/light_switch/client/CMakeFiles/light_switch_client_nrf52840_xxAA_s140_6.1.1.dir/__/__/__/models/foundation/config/src/config_server.c.obj
 .text.handle_config_model_subscription_delete
                0x00034764      0x10e examples/light_switch/client/CMakeFiles/light_switch_client_nrf52840_xxAA_s140_6.1.1.dir/__/__/__/models/foundation/config/src/config_server.c.obj
 .text.handle_config_model_subscription_add
                0x00034872      0x112 examples/light_switch/client/CMakeFiles/light_switch_client_nrf52840_xxAA_s140_6.1.1.dir/__/__/__/models/foundation/config/src/config_server.c.obj
 .text.handle_config_model_subscription_virtual_address_overwrite
                0x00034984      0x120 examples/light_switch/client/CMakeFiles/light_switch_client_nrf52840_xxAA_s140_6.1.1.dir/__/__/__/models/foundation/config/src/config_server.c.obj
 .text.handle_model_app_get
                0x00034aa4      0x19c examples/light_switch/client/CMakeFiles/light_switch_client_nrf52840_xxAA_s140_6.1.1.dir/__/__/__/models/foundation/config/src/config_server.c.obj
 .text.handle_config_model_subscription_overwrite
                0x00034c40      0x11a examples/light_switch/client/CMakeFiles/light_switch_client_nrf52840_xxAA_s140_6.1.1.dir/__/__/__/models/foundation/config/src/config_server.c.obj
 .text.handle_config_vendor_model_subscription_get
                0x00034d5a       0xde examples/light_switch/client/CMakeFiles/light_switch_client_nrf52840_xxAA_s140_6.1.1.dir/__/__/__/models/foundation/config/src/config_server.c.obj
 .text.handle_model_app_bind_unbind
                0x00034e38      0x1ec examples/light_switch/client/CMakeFiles/light_switch_client_nrf52840_xxAA_s140_6.1.1.dir/__/__/__/models/foundation/config/src/config_server.c.obj
 .text.handle_config_model_publication_set
                0x00035024      0x2d6 examples/light_switch/client/CMakeFiles/light_switch_client_nrf52840_xxAA_s140_6.1.1.dir/__/__/__/models/foundation/config/src/config_server.c.obj
 *fill*         0x000352fa        0x2 
 .text.config_server_init
                0x000352fc       0x60 examples/light_switch/client/CMakeFiles/light_switch_client_nrf52840_xxAA_s140_6.1.1.dir/__/__/__/models/foundation/config/src/config_server.c.obj
                0x000352fc                config_server_init
 .text.config_server_bind
                0x0003535c       0x10 examples/light_switch/client/CMakeFiles/light_switch_client_nrf52840_xxAA_s140_6.1.1.dir/__/__/__/models/foundation/config/src/config_server.c.obj
                0x0003535c                config_server_bind
 .text.packed_index_list_create
                0x0003536c       0x32 examples/light_switch/client/CMakeFiles/light_switch_client_nrf52840_xxAA_s140_6.1.1.dir/__/__/__/models/foundation/config/src/packed_index_list.c.obj
                0x0003536c                packed_index_list_create
 *fill*         0x0003539e        0x2 
 .text.health_server_fpd_get
                0x000353a0       0x20 examples/light_switch/client/CMakeFiles/light_switch_client_nrf52840_xxAA_s140_6.1.1.dir/__/__/__/models/foundation/health/src/health_server.c.obj
 .text.health_server_fpd_delete
                0x000353c0       0x20 examples/light_switch/client/CMakeFiles/light_switch_client_nrf52840_xxAA_s140_6.1.1.dir/__/__/__/models/foundation/health/src/health_server.c.obj
 .text.attention_timer_handler
                0x000353e0       0x5c examples/light_switch/client/CMakeFiles/light_switch_client_nrf52840_xxAA_s140_6.1.1.dir/__/__/__/models/foundation/health/src/health_server.c.obj
 .text.send_attention_status
                0x0003543c       0x44 examples/light_switch/client/CMakeFiles/light_switch_client_nrf52840_xxAA_s140_6.1.1.dir/__/__/__/models/foundation/health/src/health_server.c.obj
 .text.handle_attention_get
                0x00035480        0xc examples/light_switch/client/CMakeFiles/light_switch_client_nrf52840_xxAA_s140_6.1.1.dir/__/__/__/models/foundation/health/src/health_server.c.obj
 .text.send_period_status
                0x0003548c       0x40 examples/light_switch/client/CMakeFiles/light_switch_client_nrf52840_xxAA_s140_6.1.1.dir/__/__/__/models/foundation/health/src/health_server.c.obj
 .text.handle_period_get
                0x000354cc        0xc examples/light_switch/client/CMakeFiles/light_switch_client_nrf52840_xxAA_s140_6.1.1.dir/__/__/__/models/foundation/health/src/health_server.c.obj
 .text.attention_timer_set.part.1
                0x000354d8       0x84 examples/light_switch/client/CMakeFiles/light_switch_client_nrf52840_xxAA_s140_6.1.1.dir/__/__/__/models/foundation/health/src/health_server.c.obj
 .text.handle_attention_set
                0x0003555c       0x32 examples/light_switch/client/CMakeFiles/light_switch_client_nrf52840_xxAA_s140_6.1.1.dir/__/__/__/models/foundation/health/src/health_server.c.obj
 *fill*         0x0003558e        0x2 
 .text.handle_period_set
                0x00035590       0x68 examples/light_switch/client/CMakeFiles/light_switch_client_nrf52840_xxAA_s140_6.1.1.dir/__/__/__/models/foundation/health/src/health_server.c.obj
 .text.bitfield_next_get.part.0.constprop.10
                0x000355f8       0x44 examples/light_switch/client/CMakeFiles/light_switch_client_nrf52840_xxAA_s140_6.1.1.dir/__/__/__/models/foundation/health/src/health_server.c.obj
 .text.send_fault_status
                0x0003563c       0x8c examples/light_switch/client/CMakeFiles/light_switch_client_nrf52840_xxAA_s140_6.1.1.dir/__/__/__/models/foundation/health/src/health_server.c.obj
 .text.health_publish_timeout_handler
                0x000356c8        0xa examples/light_switch/client/CMakeFiles/light_switch_client_nrf52840_xxAA_s140_6.1.1.dir/__/__/__/models/foundation/health/src/health_server.c.obj
 .text.handle_fault_test
                0x000356d2       0x66 examples/light_switch/client/CMakeFiles/light_switch_client_nrf52840_xxAA_s140_6.1.1.dir/__/__/__/models/foundation/health/src/health_server.c.obj
 .text.handle_fault_get
                0x00035738       0x32 examples/light_switch/client/CMakeFiles/light_switch_client_nrf52840_xxAA_s140_6.1.1.dir/__/__/__/models/foundation/health/src/health_server.c.obj
 .text.handle_fault_clear
                0x0003576a       0x48 examples/light_switch/client/CMakeFiles/light_switch_client_nrf52840_xxAA_s140_6.1.1.dir/__/__/__/models/foundation/health/src/health_server.c.obj
 .text.health_server_fault_count_get
                0x000357b2       0x2c examples/light_switch/client/CMakeFiles/light_switch_client_nrf52840_xxAA_s140_6.1.1.dir/__/__/__/models/foundation/health/src/health_server.c.obj
                0x000357b2                health_server_fault_count_get
 *fill*         0x000357de        0x2 
 .text.health_server_fpd_set
                0x000357e0       0x44 examples/light_switch/client/CMakeFiles/light_switch_client_nrf52840_xxAA_s140_6.1.1.dir/__/__/__/models/foundation/health/src/health_server.c.obj
 .text.health_server_init
                0x00035824       0x78 examples/light_switch/client/CMakeFiles/light_switch_client_nrf52840_xxAA_s140_6.1.1.dir/__/__/__/models/foundation/health/src/health_server.c.obj
                0x00035824                health_server_init
 .text.add_to_publication_list
                0x0003589c       0x78 examples/light_switch/client/CMakeFiles/light_switch_client_nrf52840_xxAA_s140_6.1.1.dir/__/__/__/mesh/access/src/access_publish.c.obj
 .text.step_resolution_to_us
                0x00035914       0x38 examples/light_switch/client/CMakeFiles/light_switch_client_nrf52840_xxAA_s140_6.1.1.dir/__/__/__/mesh/access/src/access_publish.c.obj
 .text.schedule_publication_timer
                0x0003594c      0x184 examples/light_switch/client/CMakeFiles/light_switch_client_nrf52840_xxAA_s140_6.1.1.dir/__/__/__/mesh/access/src/access_publish.c.obj
 .text.publish_timer_tick
                0x00035ad0       0xa8 examples/light_switch/client/CMakeFiles/light_switch_client_nrf52840_xxAA_s140_6.1.1.dir/__/__/__/mesh/access/src/access_publish.c.obj
 .text.access_publish_init
                0x00035b78       0x38 examples/light_switch/client/CMakeFiles/light_switch_client_nrf52840_xxAA_s140_6.1.1.dir/__/__/__/mesh/access/src/access_publish.c.obj
                0x00035b78                access_publish_init
 .text.access_publish_period_set
                0x00035bb0       0x60 examples/light_switch/client/CMakeFiles/light_switch_client_nrf52840_xxAA_s140_6.1.1.dir/__/__/__/mesh/access/src/access_publish.c.obj
                0x00035bb0                access_publish_period_set
 .text.get_next_timeout_index
                0x00035c10       0x40 examples/light_switch/client/CMakeFiles/light_switch_client_nrf52840_xxAA_s140_6.1.1.dir/__/__/__/mesh/access/src/access_publish_retransmission.c.obj
 .text.message_remove
                0x00035c50       0x5c examples/light_switch/client/CMakeFiles/light_switch_client_nrf52840_xxAA_s140_6.1.1.dir/__/__/__/mesh/access/src/access_publish_retransmission.c.obj
 .text.retransmissions_timer_cb
                0x00035cac       0xc8 examples/light_switch/client/CMakeFiles/light_switch_client_nrf52840_xxAA_s140_6.1.1.dir/__/__/__/mesh/access/src/access_publish_retransmission.c.obj
 .text.access_publish_retransmission_init
                0x00035d74       0x24 examples/light_switch/client/CMakeFiles/light_switch_client_nrf52840_xxAA_s140_6.1.1.dir/__/__/__/mesh/access/src/access_publish_retransmission.c.obj
                0x00035d74                access_publish_retransmission_init
 .text.access_publish_retransmission_message_add
                0x00035d98       0xf8 examples/light_switch/client/CMakeFiles/light_switch_client_nrf52840_xxAA_s140_6.1.1.dir/__/__/__/mesh/access/src/access_publish_retransmission.c.obj
                0x00035d98                access_publish_retransmission_message_add
 .text.bitfield_get
                0x00035e90       0x1a examples/light_switch/client/CMakeFiles/light_switch_client_nrf52840_xxAA_s140_6.1.1.dir/__/__/__/mesh/access/src/access.c.obj
 .text.is_valid_opcode
                0x00035eaa       0x42 examples/light_switch/client/CMakeFiles/light_switch_client_nrf52840_xxAA_s140_6.1.1.dir/__/__/__/mesh/access/src/access.c.obj
 .text.model_handle_valid_and_allocated
                0x00035eec       0x20 examples/light_switch/client/CMakeFiles/light_switch_client_nrf52840_xxAA_s140_6.1.1.dir/__/__/__/mesh/access/src/access.c.obj
 .text.flash_manager_mem_available
                0x00035f0c        0x2 examples/light_switch/client/CMakeFiles/light_switch_client_nrf52840_xxAA_s140_6.1.1.dir/__/__/__/mesh/access/src/access.c.obj
 *fill*         0x00035f0e        0x2 
 .text.restore_acquired_subscription
                0x00035f10       0x30 examples/light_switch/client/CMakeFiles/light_switch_client_nrf52840_xxAA_s140_6.1.1.dir/__/__/__/mesh/access/src/access.c.obj
 .text.restore_acquired_element
                0x00035f40       0x24 examples/light_switch/client/CMakeFiles/light_switch_client_nrf52840_xxAA_s140_6.1.1.dir/__/__/__/mesh/access/src/access.c.obj
 .text.restore_flash_data
                0x00035f64       0x28 examples/light_switch/client/CMakeFiles/light_switch_client_nrf52840_xxAA_s140_6.1.1.dir/__/__/__/mesh/access/src/access.c.obj
 .text.check_tx_params
                0x00035f8c       0x5c examples/light_switch/client/CMakeFiles/light_switch_client_nrf52840_xxAA_s140_6.1.1.dir/__/__/__/mesh/access/src/access.c.obj
 .text.flash_invalidate_complete
                0x00035fe8        0x6 examples/light_switch/client/CMakeFiles/light_switch_client_nrf52840_xxAA_s140_6.1.1.dir/__/__/__/mesh/access/src/access.c.obj
 *fill*         0x00035fee        0x2 
 .text.access_flash_config_clear
                0x00035ff0       0x3c examples/light_switch/client/CMakeFiles/light_switch_client_nrf52840_xxAA_s140_6.1.1.dir/__/__/__/mesh/access/src/access.c.obj
 .text.access_state_clear
                0x0003602c       0x50 examples/light_switch/client/CMakeFiles/light_switch_client_nrf52840_xxAA_s140_6.1.1.dir/__/__/__/mesh/access/src/access.c.obj
 .text.packet_tx
                0x0003607c      0x204 examples/light_switch/client/CMakeFiles/light_switch_client_nrf52840_xxAA_s140_6.1.1.dir/__/__/__/mesh/access/src/access.c.obj
 .text.access_flash_config_store
                0x00036280      0x164 examples/light_switch/client/CMakeFiles/light_switch_client_nrf52840_xxAA_s140_6.1.1.dir/__/__/__/mesh/access/src/access.c.obj
                0x00036280                access_flash_config_store
 .text.flash_write_complete
                0x000363e4       0x46 examples/light_switch/client/CMakeFiles/light_switch_client_nrf52840_xxAA_s140_6.1.1.dir/__/__/__/mesh/access/src/access.c.obj
 *fill*         0x0003642a        0x2 
 .text.bitfield_next_get.part.0.constprop.8
                0x0003642c       0x34 examples/light_switch/client/CMakeFiles/light_switch_client_nrf52840_xxAA_s140_6.1.1.dir/__/__/__/mesh/access/src/access.c.obj
 .text.packet_alloc_and_tx
                0x00036460       0xbe examples/light_switch/client/CMakeFiles/light_switch_client_nrf52840_xxAA_s140_6.1.1.dir/__/__/__/mesh/access/src/access.c.obj
 *fill*         0x0003651e        0x2 
 .text.restore_acquired_model
                0x00036520       0x90 examples/light_switch/client/CMakeFiles/light_switch_client_nrf52840_xxAA_s140_6.1.1.dir/__/__/__/mesh/access/src/access.c.obj
 .text.access_flash_config_load
                0x000365b0      0x1b4 examples/light_switch/client/CMakeFiles/light_switch_client_nrf52840_xxAA_s140_6.1.1.dir/__/__/__/mesh/access/src/access.c.obj
                0x000365b0                access_flash_config_load
 .text.access_incoming_handle
                0x00036764      0x1ac examples/light_switch/client/CMakeFiles/light_switch_client_nrf52840_xxAA_s140_6.1.1.dir/__/__/__/mesh/access/src/access.c.obj
                0x00036764                access_incoming_handle
 .text.mesh_msg_handle
                0x00036910      0x1cc examples/light_switch/client/CMakeFiles/light_switch_client_nrf52840_xxAA_s140_6.1.1.dir/__/__/__/mesh/access/src/access.c.obj
 .text.mesh_evt_cb
                0x00036adc        0xc examples/light_switch/client/CMakeFiles/light_switch_client_nrf52840_xxAA_s140_6.1.1.dir/__/__/__/mesh/access/src/access.c.obj
 .text.access_packet_tx
                0x00036ae8       0x32 examples/light_switch/client/CMakeFiles/light_switch_client_nrf52840_xxAA_s140_6.1.1.dir/__/__/__/mesh/access/src/access.c.obj
                0x00036ae8                access_packet_tx
 .text.access_clear
                0x00036b1a       0x12 examples/light_switch/client/CMakeFiles/light_switch_client_nrf52840_xxAA_s140_6.1.1.dir/__/__/__/mesh/access/src/access.c.obj
                0x00036b1a                access_clear
 .text.access_model_add
                0x00036b2c      0x1b0 examples/light_switch/client/CMakeFiles/light_switch_client_nrf52840_xxAA_s140_6.1.1.dir/__/__/__/mesh/access/src/access.c.obj
                0x00036b2c                access_model_add
 .text.access_model_publish
                0x00036cdc       0x58 examples/light_switch/client/CMakeFiles/light_switch_client_nrf52840_xxAA_s140_6.1.1.dir/__/__/__/mesh/access/src/access.c.obj
                0x00036cdc                access_model_publish
 .text.access_model_reply
                0x00036d34       0x1c examples/light_switch/client/CMakeFiles/light_switch_client_nrf52840_xxAA_s140_6.1.1.dir/__/__/__/mesh/access/src/access.c.obj
                0x00036d34                access_model_reply
 .text.access_model_publish_address_set
                0x00036d50       0x3c examples/light_switch/client/CMakeFiles/light_switch_client_nrf52840_xxAA_s140_6.1.1.dir/__/__/__/mesh/access/src/access.c.obj
                0x00036d50                access_model_publish_address_set
 .text.access_model_publish_address_get
                0x00036d8c       0x28 examples/light_switch/client/CMakeFiles/light_switch_client_nrf52840_xxAA_s140_6.1.1.dir/__/__/__/mesh/access/src/access.c.obj
                0x00036d8c                access_model_publish_address_get
 .text.access_model_publish_retransmit_set
                0x00036db4       0x4c examples/light_switch/client/CMakeFiles/light_switch_client_nrf52840_xxAA_s140_6.1.1.dir/__/__/__/mesh/access/src/access.c.obj
                0x00036db4                access_model_publish_retransmit_set
 .text.access_model_publish_retransmit_get
                0x00036e00       0x2c examples/light_switch/client/CMakeFiles/light_switch_client_nrf52840_xxAA_s140_6.1.1.dir/__/__/__/mesh/access/src/access.c.obj
                0x00036e00                access_model_publish_retransmit_get
 .text.access_model_publish_period_get
                0x00036e2c       0x40 examples/light_switch/client/CMakeFiles/light_switch_client_nrf52840_xxAA_s140_6.1.1.dir/__/__/__/mesh/access/src/access.c.obj
                0x00036e2c                access_model_publish_period_get
 .text.access_publish_timing_update
                0x00036e6c       0xc0 examples/light_switch/client/CMakeFiles/light_switch_client_nrf52840_xxAA_s140_6.1.1.dir/__/__/__/mesh/access/src/access.c.obj
 .text.access_model_publish_period_divisor_set
                0x00036f2c       0x38 examples/light_switch/client/CMakeFiles/light_switch_client_nrf52840_xxAA_s140_6.1.1.dir/__/__/__/mesh/access/src/access.c.obj
                0x00036f2c                access_model_publish_period_divisor_set
 .text.access_model_publish_period_set
                0x00036f64       0x6c examples/light_switch/client/CMakeFiles/light_switch_client_nrf52840_xxAA_s140_6.1.1.dir/__/__/__/mesh/access/src/access.c.obj
                0x00036f64                access_model_publish_period_set
 .text.access_model_subscription_list_alloc
                0x00036fd0       0x60 examples/light_switch/client/CMakeFiles/light_switch_client_nrf52840_xxAA_s140_6.1.1.dir/__/__/__/mesh/access/src/access.c.obj
                0x00036fd0                access_model_subscription_list_alloc
 .text.access_model_subscription_add
                0x00037030       0x60 examples/light_switch/client/CMakeFiles/light_switch_client_nrf52840_xxAA_s140_6.1.1.dir/__/__/__/mesh/access/src/access.c.obj
                0x00037030                access_model_subscription_add
 .text.access_model_subscription_remove
                0x00037090       0x60 examples/light_switch/client/CMakeFiles/light_switch_client_nrf52840_xxAA_s140_6.1.1.dir/__/__/__/mesh/access/src/access.c.obj
                0x00037090                access_model_subscription_remove
 .text.access_model_subscriptions_get
                0x000370f0       0x74 examples/light_switch/client/CMakeFiles/light_switch_client_nrf52840_xxAA_s140_6.1.1.dir/__/__/__/mesh/access/src/access.c.obj
                0x000370f0                access_model_subscriptions_get
 .text.access_model_application_bind
                0x00037164       0x50 examples/light_switch/client/CMakeFiles/light_switch_client_nrf52840_xxAA_s140_6.1.1.dir/__/__/__/mesh/access/src/access.c.obj
                0x00037164                access_model_application_bind
 .text.access_model_application_unbind
                0x000371b4       0x50 examples/light_switch/client/CMakeFiles/light_switch_client_nrf52840_xxAA_s140_6.1.1.dir/__/__/__/mesh/access/src/access.c.obj
                0x000371b4                access_model_application_unbind
 .text.access_model_applications_get
                0x00037204       0x5c examples/light_switch/client/CMakeFiles/light_switch_client_nrf52840_xxAA_s140_6.1.1.dir/__/__/__/mesh/access/src/access.c.obj
                0x00037204                access_model_applications_get
 .text.access_model_publish_application_set
                0x00037260       0x3c examples/light_switch/client/CMakeFiles/light_switch_client_nrf52840_xxAA_s140_6.1.1.dir/__/__/__/mesh/access/src/access.c.obj
                0x00037260                access_model_publish_application_set
 .text.access_model_publish_application_get
                0x0003729c       0x28 examples/light_switch/client/CMakeFiles/light_switch_client_nrf52840_xxAA_s140_6.1.1.dir/__/__/__/mesh/access/src/access.c.obj
                0x0003729c                access_model_publish_application_get
 .text.access_default_ttl_set
                0x000372c4       0x18 examples/light_switch/client/CMakeFiles/light_switch_client_nrf52840_xxAA_s140_6.1.1.dir/__/__/__/mesh/access/src/access.c.obj
                0x000372c4                access_default_ttl_set
 .text.access_default_ttl_get
                0x000372dc        0xc examples/light_switch/client/CMakeFiles/light_switch_client_nrf52840_xxAA_s140_6.1.1.dir/__/__/__/mesh/access/src/access.c.obj
                0x000372dc                access_default_ttl_get
 .text.access_model_publish_friendship_credential_flag_set
                0x000372e8       0x38 examples/light_switch/client/CMakeFiles/light_switch_client_nrf52840_xxAA_s140_6.1.1.dir/__/__/__/mesh/access/src/access.c.obj
                0x000372e8                access_model_publish_friendship_credential_flag_set
 .text.access_model_publish_friendship_credential_flag_get
                0x00037320       0x28 examples/light_switch/client/CMakeFiles/light_switch_client_nrf52840_xxAA_s140_6.1.1.dir/__/__/__/mesh/access/src/access.c.obj
                0x00037320                access_model_publish_friendship_credential_flag_get
 .text.access_model_publish_ttl_set
                0x00037348       0x40 examples/light_switch/client/CMakeFiles/light_switch_client_nrf52840_xxAA_s140_6.1.1.dir/__/__/__/mesh/access/src/access.c.obj
                0x00037348                access_model_publish_ttl_set
 .text.access_model_publish_ttl_get
                0x00037388       0x28 examples/light_switch/client/CMakeFiles/light_switch_client_nrf52840_xxAA_s140_6.1.1.dir/__/__/__/mesh/access/src/access.c.obj
                0x00037388                access_model_publish_ttl_get
 .text.access_element_location_get
                0x000373b0       0x20 examples/light_switch/client/CMakeFiles/light_switch_client_nrf52840_xxAA_s140_6.1.1.dir/__/__/__/mesh/access/src/access.c.obj
                0x000373b0                access_element_location_get
 .text.access_element_sig_model_count_get
                0x000373d0       0x24 examples/light_switch/client/CMakeFiles/light_switch_client_nrf52840_xxAA_s140_6.1.1.dir/__/__/__/mesh/access/src/access.c.obj
                0x000373d0                access_element_sig_model_count_get
 .text.access_element_vendor_model_count_get
                0x000373f4       0x24 examples/light_switch/client/CMakeFiles/light_switch_client_nrf52840_xxAA_s140_6.1.1.dir/__/__/__/mesh/access/src/access.c.obj
                0x000373f4                access_element_vendor_model_count_get
 .text.access_model_id_get
                0x00037418       0x2c examples/light_switch/client/CMakeFiles/light_switch_client_nrf52840_xxAA_s140_6.1.1.dir/__/__/__/mesh/access/src/access.c.obj
                0x00037418                access_model_id_get
 .text.access_handle_get
                0x00037444       0x60 examples/light_switch/client/CMakeFiles/light_switch_client_nrf52840_xxAA_s140_6.1.1.dir/__/__/__/mesh/access/src/access.c.obj
                0x00037444                access_handle_get
 .text.access_element_models_get
                0x000374a4       0x5c examples/light_switch/client/CMakeFiles/light_switch_client_nrf52840_xxAA_s140_6.1.1.dir/__/__/__/mesh/access/src/access.c.obj
                0x000374a4                access_element_models_get
 .text.access_model_p_args_get
                0x00037500       0x28 examples/light_switch/client/CMakeFiles/light_switch_client_nrf52840_xxAA_s140_6.1.1.dir/__/__/__/mesh/access/src/access.c.obj
                0x00037500                access_model_p_args_get
 .text.access_model_publication_stop
                0x00037528       0x58 examples/light_switch/client/CMakeFiles/light_switch_client_nrf52840_xxAA_s140_6.1.1.dir/__/__/__/mesh/access/src/access.c.obj
                0x00037528                access_model_publication_stop
 .text.access_model_publication_by_appkey_stop
                0x00037580       0x36 examples/light_switch/client/CMakeFiles/light_switch_client_nrf52840_xxAA_s140_6.1.1.dir/__/__/__/mesh/access/src/access.c.obj
                0x00037580                access_model_publication_by_appkey_stop
 .text.access_flash_area_get
                0x000375b6        0xc examples/light_switch/client/CMakeFiles/light_switch_client_nrf52840_xxAA_s140_6.1.1.dir/__/__/__/mesh/access/src/access.c.obj
                0x000375b6                access_flash_area_get
 *fill*         0x000375c2        0x2 
 .text.add_flash_manager
                0x000375c4       0x54 examples/light_switch/client/CMakeFiles/light_switch_client_nrf52840_xxAA_s140_6.1.1.dir/__/__/__/mesh/access/src/access.c.obj
 .text.access_init
                0x00037618       0x34 examples/light_switch/client/CMakeFiles/light_switch_client_nrf52840_xxAA_s140_6.1.1.dir/__/__/__/mesh/access/src/access.c.obj
                0x00037618                access_init
 .text.flash_remove_complete
                0x0003764c       0x64 examples/light_switch/client/CMakeFiles/light_switch_client_nrf52840_xxAA_s140_6.1.1.dir/__/__/__/mesh/access/src/access.c.obj
 .text.reliable_timer_cb
                0x000376b0      0x18c examples/light_switch/client/CMakeFiles/light_switch_client_nrf52840_xxAA_s140_6.1.1.dir/__/__/__/mesh/access/src/access_reliable.c.obj
 .text.remove_and_reschedule
                0x0003783c       0xac examples/light_switch/client/CMakeFiles/light_switch_client_nrf52840_xxAA_s140_6.1.1.dir/__/__/__/mesh/access/src/access_reliable.c.obj
 .text.access_reliable_message_rx_cb
                0x000378e8       0x60 examples/light_switch/client/CMakeFiles/light_switch_client_nrf52840_xxAA_s140_6.1.1.dir/__/__/__/mesh/access/src/access_reliable.c.obj
                0x000378e8                access_reliable_message_rx_cb
 .text.access_reliable_model_is_free
                0x00037948       0x28 examples/light_switch/client/CMakeFiles/light_switch_client_nrf52840_xxAA_s140_6.1.1.dir/__/__/__/mesh/access/src/access_reliable.c.obj
                0x00037948                access_reliable_model_is_free
 .text.access_reliable_init
                0x00037970       0x20 examples/light_switch/client/CMakeFiles/light_switch_client_nrf52840_xxAA_s140_6.1.1.dir/__/__/__/mesh/access/src/access_reliable.c.obj
                0x00037970                access_reliable_init
 .text.access_reliable_cancel_all
                0x00037990       0x5c examples/light_switch/client/CMakeFiles/light_switch_client_nrf52840_xxAA_s140_6.1.1.dir/__/__/__/mesh/access/src/access_reliable.c.obj
                0x00037990                access_reliable_cancel_all
 .text.access_model_reliable_cancel
                0x000379ec       0x68 examples/light_switch/client/CMakeFiles/light_switch_client_nrf52840_xxAA_s140_6.1.1.dir/__/__/__/mesh/access/src/access_reliable.c.obj
                0x000379ec                access_model_reliable_cancel
 .text.access_model_reliable_publish
                0x00037a54      0x1a0 examples/light_switch/client/CMakeFiles/light_switch_client_nrf52840_xxAA_s140_6.1.1.dir/__/__/__/mesh/access/src/access_reliable.c.obj
                0x00037a54                access_model_reliable_publish
 .text.bitfield_get
