Archive member included to satisfy reference by file (symbol)

external/rtt/librtt_nrf52832_xxAA.a(SEGGER_RTT.c.obj)
                              examples/light_switch/client/CMakeFiles/light_switch_client_nrf52832_xxAA_s132_6.1.1.dir/__/__/__/mesh/core/src/log.c.obj (SEGGER_RTT_Write)
external/rtt/librtt_nrf52832_xxAA.a(SEGGER_RTT_printf.c.obj)
                              examples/light_switch/client/CMakeFiles/light_switch_client_nrf52832_xxAA_s132_6.1.1.dir/__/__/__/mesh/core/src/log.c.obj (SEGGER_RTT_vprintf)
external/micro-ecc/libuECC_nrf52832_xxAA.a(uECC.c.obj)
                              examples/light_switch/client/CMakeFiles/light_switch_client_nrf52832_xxAA_s132_6.1.1.dir/__/__/__/mesh/prov/src/prov_utils.c.obj (uECC_secp256r1)
c:/mesh/arm_gcc/bin/../lib/gcc/arm-none-eabi/7.3.1/thumb/v7e-m/fpv4-sp/hard\libgcc.a(_aeabi_ldivmod.o)
                              examples/light_switch/client/CMakeFiles/light_switch_client_nrf52832_xxAA_s132_6.1.1.dir/__/__/common/src/rtt_input.c.obj (__aeabi_ldivmod)
c:/mesh/arm_gcc/bin/../lib/gcc/arm-none-eabi/7.3.1/thumb/v7e-m/fpv4-sp/hard\libgcc.a(_aeabi_uldivmod.o)
                              examples/light_switch/client/CMakeFiles/light_switch_client_nrf52832_xxAA_s132_6.1.1.dir/__/__/common/src/rtt_input.c.obj (__aeabi_uldivmod)
c:/mesh/arm_gcc/bin/../lib/gcc/arm-none-eabi/7.3.1/thumb/v7e-m/fpv4-sp/hard\libgcc.a(_udivmoddi4.o)
                              c:/mesh/arm_gcc/bin/../lib/gcc/arm-none-eabi/7.3.1/thumb/v7e-m/fpv4-sp/hard\libgcc.a(_aeabi_ldivmod.o) (__udivmoddi4)
c:/mesh/arm_gcc/bin/../lib/gcc/arm-none-eabi/7.3.1/thumb/v7e-m/fpv4-sp/hard\libgcc.a(_dvmd_tls.o)
                              c:/mesh/arm_gcc/bin/../lib/gcc/arm-none-eabi/7.3.1/thumb/v7e-m/fpv4-sp/hard\libgcc.a(_aeabi_ldivmod.o) (__aeabi_ldiv0)
c:/mesh/arm_gcc/bin/../lib/gcc/arm-none-eabi/7.3.1/../../../../arm-none-eabi/lib/thumb/v7e-m/fpv4-sp/hard\libg_nano.a(lib_a-calloc.o)
                              examples/light_switch/client/CMakeFiles/light_switch_client_nrf52832_xxAA_s132_6.1.1.dir/__/__/__/mesh/core/src/mesh_mem_stdlib.c.obj (calloc)
c:/mesh/arm_gcc/bin/../lib/gcc/arm-none-eabi/7.3.1/../../../../arm-none-eabi/lib/thumb/v7e-m/fpv4-sp/hard\libg_nano.a(lib_a-exit.o)
                              c:/mesh/arm_gcc/bin/../lib/gcc/arm-none-eabi/7.3.1/../../../../arm-none-eabi/lib/thumb/v7e-m/fpv4-sp/hard/crt0.o (exit)
c:/mesh/arm_gcc/bin/../lib/gcc/arm-none-eabi/7.3.1/../../../../arm-none-eabi/lib/thumb/v7e-m/fpv4-sp/hard\libg_nano.a(lib_a-impure.o)
                              c:/mesh/arm_gcc/bin/../lib/gcc/arm-none-eabi/7.3.1/../../../../arm-none-eabi/lib/thumb/v7e-m/fpv4-sp/hard\libg_nano.a(lib_a-exit.o) (_global_impure_ptr)
c:/mesh/arm_gcc/bin/../lib/gcc/arm-none-eabi/7.3.1/../../../../arm-none-eabi/lib/thumb/v7e-m/fpv4-sp/hard\libg_nano.a(lib_a-init.o)
                              c:/mesh/arm_gcc/bin/../lib/gcc/arm-none-eabi/7.3.1/../../../../arm-none-eabi/lib/thumb/v7e-m/fpv4-sp/hard/crt0.o (__libc_init_array)
c:/mesh/arm_gcc/bin/../lib/gcc/arm-none-eabi/7.3.1/../../../../arm-none-eabi/lib/thumb/v7e-m/fpv4-sp/hard\libg_nano.a(lib_a-malloc.o)
                              examples/light_switch/client/CMakeFiles/light_switch_client_nrf52832_xxAA_s132_6.1.1.dir/__/__/__/mesh/core/src/mesh_mem_stdlib.c.obj (malloc)
c:/mesh/arm_gcc/bin/../lib/gcc/arm-none-eabi/7.3.1/../../../../arm-none-eabi/lib/thumb/v7e-m/fpv4-sp/hard\libg_nano.a(lib_a-memcmp.o)
                              examples/light_switch/client/CMakeFiles/light_switch_client_nrf52832_xxAA_s132_6.1.1.dir/C_/mesh/deps/nRF5_SDK_15.3.0_59ac345/components/ble/common/ble_advdata.c.obj (memcmp)
c:/mesh/arm_gcc/bin/../lib/gcc/arm-none-eabi/7.3.1/../../../../arm-none-eabi/lib/thumb/v7e-m/fpv4-sp/hard\libg_nano.a(lib_a-memcpy-stub.o)
                              examples/light_switch/client/CMakeFiles/light_switch_client_nrf52832_xxAA_s132_6.1.1.dir/C_/mesh/deps/nRF5_SDK_15.3.0_59ac345/components/ble/common/ble_advdata.c.obj (memcpy)
c:/mesh/arm_gcc/bin/../lib/gcc/arm-none-eabi/7.3.1/../../../../arm-none-eabi/lib/thumb/v7e-m/fpv4-sp/hard\libg_nano.a(lib_a-memset.o)
                              c:/mesh/arm_gcc/bin/../lib/gcc/arm-none-eabi/7.3.1/../../../../arm-none-eabi/lib/thumb/v7e-m/fpv4-sp/hard/crt0.o (memset)
c:/mesh/arm_gcc/bin/../lib/gcc/arm-none-eabi/7.3.1/../../../../arm-none-eabi/lib/thumb/v7e-m/fpv4-sp/hard\libg_nano.a(lib_a-nano-callocr.o)
                              c:/mesh/arm_gcc/bin/../lib/gcc/arm-none-eabi/7.3.1/../../../../arm-none-eabi/lib/thumb/v7e-m/fpv4-sp/hard\libg_nano.a(lib_a-calloc.o) (_calloc_r)
c:/mesh/arm_gcc/bin/../lib/gcc/arm-none-eabi/7.3.1/../../../../arm-none-eabi/lib/thumb/v7e-m/fpv4-sp/hard\libg_nano.a(lib_a-nano-freer.o)
                              c:/mesh/arm_gcc/bin/../lib/gcc/arm-none-eabi/7.3.1/../../../../arm-none-eabi/lib/thumb/v7e-m/fpv4-sp/hard\libg_nano.a(lib_a-malloc.o) (_free_r)
c:/mesh/arm_gcc/bin/../lib/gcc/arm-none-eabi/7.3.1/../../../../arm-none-eabi/lib/thumb/v7e-m/fpv4-sp/hard\libg_nano.a(lib_a-nano-mallocr.o)
                              c:/mesh/arm_gcc/bin/../lib/gcc/arm-none-eabi/7.3.1/../../../../arm-none-eabi/lib/thumb/v7e-m/fpv4-sp/hard\libg_nano.a(lib_a-malloc.o) (_malloc_r)
c:/mesh/arm_gcc/bin/../lib/gcc/arm-none-eabi/7.3.1/../../../../arm-none-eabi/lib/thumb/v7e-m/fpv4-sp/hard\libg_nano.a(lib_a-sbrkr.o)
                              c:/mesh/arm_gcc/bin/../lib/gcc/arm-none-eabi/7.3.1/../../../../arm-none-eabi/lib/thumb/v7e-m/fpv4-sp/hard\libg_nano.a(lib_a-nano-mallocr.o) (_sbrk_r)
c:/mesh/arm_gcc/bin/../lib/gcc/arm-none-eabi/7.3.1/../../../../arm-none-eabi/lib/thumb/v7e-m/fpv4-sp/hard\libg_nano.a(lib_a-strcpy.o)
                              external/rtt/librtt_nrf52832_xxAA.a(SEGGER_RTT.c.obj) (strcpy)
c:/mesh/arm_gcc/bin/../lib/gcc/arm-none-eabi/7.3.1/../../../../arm-none-eabi/lib/thumb/v7e-m/fpv4-sp/hard\libg_nano.a(lib_a-strlen.o)
                              examples/light_switch/client/CMakeFiles/light_switch_client_nrf52832_xxAA_s132_6.1.1.dir/__/__/common/src/ble_softdevice_support.c.obj (strlen)
c:/mesh/arm_gcc/bin/../lib/gcc/arm-none-eabi/7.3.1/../../../../arm-none-eabi/lib/thumb/v7e-m/fpv4-sp/hard\libg_nano.a(lib_a-strrchr.o)
                              examples/light_switch/client/CMakeFiles/light_switch_client_nrf52832_xxAA_s132_6.1.1.dir/src/main.c.obj (strrchr)
c:/mesh/arm_gcc/bin/../lib/gcc/arm-none-eabi/7.3.1/../../../../arm-none-eabi/lib/thumb/v7e-m/fpv4-sp/hard\libg_nano.a(lib_a-mlock.o)
                              c:/mesh/arm_gcc/bin/../lib/gcc/arm-none-eabi/7.3.1/../../../../arm-none-eabi/lib/thumb/v7e-m/fpv4-sp/hard\libg_nano.a(lib_a-nano-freer.o) (__malloc_lock)
c:/mesh/arm_gcc/bin/../lib/gcc/arm-none-eabi/7.3.1/../../../../arm-none-eabi/lib/thumb/v7e-m/fpv4-sp/hard\libg_nano.a(lib_a-reent.o)
                              c:/mesh/arm_gcc/bin/../lib/gcc/arm-none-eabi/7.3.1/../../../../arm-none-eabi/lib/thumb/v7e-m/fpv4-sp/hard\libg_nano.a(lib_a-sbrkr.o) (errno)
c:/mesh/arm_gcc/bin/../lib/gcc/arm-none-eabi/7.3.1/../../../../arm-none-eabi/lib/thumb/v7e-m/fpv4-sp/hard\libg_nano.a(lib_a-strchr.o)
                              c:/mesh/arm_gcc/bin/../lib/gcc/arm-none-eabi/7.3.1/../../../../arm-none-eabi/lib/thumb/v7e-m/fpv4-sp/hard\libg_nano.a(lib_a-strrchr.o) (strchr)
c:/mesh/arm_gcc/bin/../lib/gcc/arm-none-eabi/7.3.1/../../../../arm-none-eabi/lib/thumb/v7e-m/fpv4-sp/hard\libnosys.a(sbrk.o)
                              c:/mesh/arm_gcc/bin/../lib/gcc/arm-none-eabi/7.3.1/../../../../arm-none-eabi/lib/thumb/v7e-m/fpv4-sp/hard\libg_nano.a(lib_a-sbrkr.o) (_sbrk)
c:/mesh/arm_gcc/bin/../lib/gcc/arm-none-eabi/7.3.1/../../../../arm-none-eabi/lib/thumb/v7e-m/fpv4-sp/hard\libnosys.a(_exit.o)
                              c:/mesh/arm_gcc/bin/../lib/gcc/arm-none-eabi/7.3.1/../../../../arm-none-eabi/lib/thumb/v7e-m/fpv4-sp/hard\libg_nano.a(lib_a-exit.o) (_exit)

Allocating common symbols
Common symbol       size              file

nrf_nvic_state      0xc               examples/light_switch/client/CMakeFiles/light_switch_client_nrf52832_xxAA_s132_6.1.1.dir/C_/mesh/deps/nRF5_SDK_15.3.0_59ac345/components/libraries/util/app_util_platform.c.obj
m_packet            0x24              examples/light_switch/client/CMakeFiles/light_switch_client_nrf52832_xxAA_s132_6.1.1.dir/__/__/__/mesh/core/src/core_tx.c.obj
errno               0x4               c:/mesh/arm_gcc/bin/../lib/gcc/arm-none-eabi/7.3.1/../../../../arm-none-eabi/lib/thumb/v7e-m/fpv4-sp/hard\libg_nano.a(lib_a-reent.o)
_SEGGER_RTT         0x78              external/rtt/librtt_nrf52832_xxAA.a(SEGGER_RTT.c.obj)

Discarded input sections

 .text          0x00000000        0x0 c:/mesh/arm_gcc/bin/../lib/gcc/arm-none-eabi/7.3.1/thumb/v7e-m/fpv4-sp/hard/crti.o
 .data          0x00000000        0x0 c:/mesh/arm_gcc/bin/../lib/gcc/arm-none-eabi/7.3.1/thumb/v7e-m/fpv4-sp/hard/crti.o
 .bss           0x00000000        0x0 c:/mesh/arm_gcc/bin/../lib/gcc/arm-none-eabi/7.3.1/thumb/v7e-m/fpv4-sp/hard/crti.o
 .data          0x00000000        0x4 c:/mesh/arm_gcc/bin/../lib/gcc/arm-none-eabi/7.3.1/thumb/v7e-m/fpv4-sp/hard/crtbegin.o
 .data          0x00000000        0x0 c:/mesh/arm_gcc/bin/../lib/gcc/arm-none-eabi/7.3.1/../../../../arm-none-eabi/lib/thumb/v7e-m/fpv4-sp/hard/crt0.o
 .bss           0x00000000        0x0 c:/mesh/arm_gcc/bin/../lib/gcc/arm-none-eabi/7.3.1/../../../../arm-none-eabi/lib/thumb/v7e-m/fpv4-sp/hard/crt0.o
 .ARM.extab     0x00000000        0x0 c:/mesh/arm_gcc/bin/../lib/gcc/arm-none-eabi/7.3.1/../../../../arm-none-eabi/lib/thumb/v7e-m/fpv4-sp/hard/crt0.o
 .text          0x00000000        0x0 examples/light_switch/client/CMakeFiles/light_switch_client_nrf52832_xxAA_s132_6.1.1.dir/src/main.c.obj
 .data          0x00000000        0x0 examples/light_switch/client/CMakeFiles/light_switch_client_nrf52832_xxAA_s132_6.1.1.dir/src/main.c.obj
 .bss           0x00000000        0x0 examples/light_switch/client/CMakeFiles/light_switch_client_nrf52832_xxAA_s132_6.1.1.dir/src/main.c.obj
 .text          0x00000000        0x0 examples/light_switch/client/CMakeFiles/light_switch_client_nrf52832_xxAA_s132_6.1.1.dir/__/__/__/mesh/stack/src/mesh_stack.c.obj
 .data          0x00000000        0x0 examples/light_switch/client/CMakeFiles/light_switch_client_nrf52832_xxAA_s132_6.1.1.dir/__/__/__/mesh/stack/src/mesh_stack.c.obj
 .bss           0x00000000        0x0 examples/light_switch/client/CMakeFiles/light_switch_client_nrf52832_xxAA_s132_6.1.1.dir/__/__/__/mesh/stack/src/mesh_stack.c.obj
 .text.mesh_stack_persistence_flash_usage
                0x00000000       0x36 examples/light_switch/client/CMakeFiles/light_switch_client_nrf52832_xxAA_s132_6.1.1.dir/__/__/__/mesh/stack/src/mesh_stack.c.obj
 .text.mesh_stack_health_server_get
                0x00000000        0x8 examples/light_switch/client/CMakeFiles/light_switch_client_nrf52832_xxAA_s132_6.1.1.dir/__/__/__/mesh/stack/src/mesh_stack.c.obj
 .text          0x00000000        0x0 examples/light_switch/client/CMakeFiles/light_switch_client_nrf52832_xxAA_s132_6.1.1.dir/__/__/common/src/mesh_provisionee.c.obj
Memory Configuration

Name             Origin             Length             Attributes
FLASH            0x00026000         0x00051000         xr
RAM              0x20002da0         0x0000cf60         xrw
*default*        0x00000000         0xffffffff

Linker script and memory map


.text           0x00026000    0x19638
 *(.isr_vector)
 .isr_vector    0x00026000      0x200 examples/light_switch/client/CMakeFiles/light_switch_client_nrf52832_xxAA_s132_6.1.1.dir/C_/mesh/deps/nRF5_SDK_15.3.0_59ac345/modules/nrfx/mdk/gcc_startup_nrf52.S.obj
                0x00026000                __isr_vector
 *(.text*)
 .text          0x00026200       0x40 c:/mesh/arm_gcc/bin/../lib/gcc/arm-none-eabi/7.3.1/thumb/v7e-m/fpv4-sp/hard/crtbegin.o
 .text          0x00026240       0x74 c:/mesh/arm_gcc/bin/../lib/gcc/arm-none-eabi/7.3.1/../../../../arm-none-eabi/lib/thumb/v7e-m/fpv4-sp/hard/crt0.o
                0x00026240                _start
                0x00026240                _mainCRTStartup
 .text.sd_app_evt_wait
                0x000262b4        0x4 examples/light_switch/client/CMakeFiles/light_switch_client_nrf52832_xxAA_s132_6.1.1.dir/src/main.c.obj
 .text.app_generic_onoff_client_status_cb
                0x000262b8       0xd0 examples/light_switch/client/CMakeFiles/light_switch_client_nrf52832_xxAA_s132_6.1.1.dir/src/main.c.obj
 .text.app_gen_onoff_client_transaction_status_cb
                0x00026388      0x11c examples/light_switch/client/CMakeFiles/light_switch_client_nrf52832_xxAA_s132_6.1.1.dir/src/main.c.obj
 .text.button_event_handler
                0x000264a4      0x1fc examples/light_switch/client/CMakeFiles/light_switch_client_nrf52832_xxAA_s132_6.1.1.dir/src/main.c.obj
 .text.rtt_input_handler
                0x000266a0        0xc examples/light_switch/client/CMakeFiles/light_switch_client_nrf52832_xxAA_s132_6.1.1.dir/src/main.c.obj
 .text.models_init_cb
                0x000266ac       0xc0 examples/light_switch/client/CMakeFiles/light_switch_client_nrf52832_xxAA_s132_6.1.1.dir/src/main.c.obj
 .text.config_server_evt_cb
                0x0002676c       0x80 examples/light_switch/client/CMakeFiles/light_switch_client_nrf52832_xxAA_s132_6.1.1.dir/src/main.c.obj
 .text.device_identification_start_cb
                0x000267ec       0x22 examples/light_switch/client/CMakeFiles/light_switch_client_nrf52832_xxAA_s132_6.1.1.dir/src/main.c.obj
 .text.provisioning_aborted_cb
                0x0002680e        0x4 examples/light_switch/client/CMakeFiles/light_switch_client_nrf52832_xxAA_s132_6.1.1.dir/src/main.c.obj
 *fill*         0x00026812        0x2 
 .text.provisioning_complete_cb
                0x00026814       0xdc examples/light_switch/client/CMakeFiles/light_switch_client_nrf52832_xxAA_s132_6.1.1.dir/src/main.c.obj
 .text.app_gen_onoff_client_publish_interval_cb
                0x000268f0       0x64 examples/light_switch/client/CMakeFiles/light_switch_client_nrf52832_xxAA_s132_6.1.1.dir/src/main.c.obj
 .text.startup.main
                0x00026954      0x15c examples/light_switch/client/CMakeFiles/light_switch_client_nrf52832_xxAA_s132_6.1.1.dir/src/main.c.obj
                0x00026954                main
 .text.mesh_evt_handler
                0x00026ab0       0x1c examples/light_switch/client/CMakeFiles/light_switch_client_nrf52832_xxAA_s132_6.1.1.dir/__/__/__/mesh/stack/src/mesh_stack.c.obj
 .text.mesh_stack_provisioning_data_store
                0x00026acc       0xe4 examples/light_switch/client/CMakeFiles/light_switch_client_nrf52832_xxAA_s132_6.1.1.dir/__/__/__/mesh/stack/src/mesh_stack.c.obj
                0x00026acc                mesh_stack_provisioning_data_store
 .text.mesh_stack_config_clear
                0x00026bb0       0x16 examples/light_switch/client/CMakeFiles/light_switch_client_nrf52832_xxAA_s132_6.1.1.dir/__/__/__/mesh/stack/src/mesh_stack.c.obj
                0x00026bb0                mesh_stack_config_clear
 .text.mesh_stack_is_device_provisioned
                0x00026bc6       0x18 examples/light_switch/client/CMakeFiles/light_switch_client_nrf52832_xxAA_s132_6.1.1.dir/__/__/__/mesh/stack/src/mesh_stack.c.obj
                0x00026bc6                mesh_stack_is_device_provisioned
 *fill*         0x00026bde        0x2 
 .text.mesh_stack_init
                0x00026be0       0x70 examples/light_switch/client/CMakeFiles/light_switch_client_nrf52832_xxAA_s132_6.1.1.dir/__/__/__/mesh/stack/src/mesh_stack.c.obj
                0x00026be0                mesh_stack_init
 .text.mesh_stack_start
                0x00026c50       0x1a examples/light_switch/client/CMakeFiles/light_switch_client_nrf52832_xxAA_s132_6.1.1.dir/__/__/__/mesh/stack/src/mesh_stack.c.obj
                0x00026c50                mesh_stack_start
 *fill*         0x00026c6a        0x2 
 .text.mesh_stack_device_reset
                0x00026c6c       0x20 examples/light_switch/client/CMakeFiles/light_switch_client_nrf52832_xxAA_s132_6.1.1.dir/__/__/__/mesh/stack/src/mesh_stack.c.obj
                0x00026c6c                mesh_stack_device_reset
 .text.sd_state_evt_handler
                0x00026c8c       0xa8 examples/light_switch/client/CMakeFiles/light_switch_client_nrf52832_xxAA_s132_6.1.1.dir/__/__/common/src/mesh_provisionee.c.obj
 .text.mesh_evt_handler
                0x00026d34       0x2c examples/light_switch/client/CMakeFiles/light_switch_client_nrf52832_xxAA_s132_6.1.1.dir/__/__/common/src/mesh_provisionee.c.obj
 .text.provisionee_start
                0x00026d60       0x30 examples/light_switch/client/CMakeFiles/light_switch_client_nrf52832_xxAA_s132_6.1.1.dir/__/__/common/src/mesh_provisionee.c.obj
 .text.prov_evt_handler
                0x00026d90       0xbc examples/light_switch/client/CMakeFiles/light_switch_client_nrf52832_xxAA_s132_6.1.1.dir/__/__/common/src/mesh_provisionee.c.obj
 .text.mesh_provisionee_prov_start
                0x00026e4c       0x94 examples/light_switch/client/CMakeFiles/light_switch_client_nrf52832_xxAA_s132_6.1.1.dir/__/__/common/src/mesh_provisionee.c.obj
                0x00026e4c                mesh_provisionee_prov_start
 .text.timeout_handler
                0x00026ee0       0x1c examples/light_switch/client/CMakeFiles/light_switch_client_nrf52832_xxAA_s132_6.1.1.dir/__/__/common/src/rtt_input.c.obj
                0x00026ee0                timeout_handler
 .text.rtt_input_enable
                0x00026efc       0x6c examples/light_switch/client/CMakeFiles/light_switch_client_nrf52832_xxAA_s132_6.1.1.dir/__/__/common/src/rtt_input.c.obj
                0x00026efc                rtt_input_enable
 .text.led_timeout_handler
                0x00026f68       0x54 examples/light_switch/client/CMakeFiles/light_switch_client_nrf52832_xxAA_s132_6.1.1.dir/__/__/common/src/simple_hal.c.obj
 .text.hal_led_pin_set
                0x00026fbc       0x18 examples/light_switch/client/CMakeFiles/light_switch_client_nrf52832_xxAA_s132_6.1.1.dir/__/__/common/src/simple_hal.c.obj
                0x00026fbc                hal_led_pin_set
 .text.hal_led_mask_set
                0x00026fd4       0x12 examples/light_switch/client/CMakeFiles/light_switch_client_nrf52832_xxAA_s132_6.1.1.dir/__/__/common/src/simple_hal.c.obj
                0x00026fd4                hal_led_mask_set
 *fill*         0x00026fe6        0x2 
 .text.hal_led_blink_ms
                0x00026fe8       0x64 examples/light_switch/client/CMakeFiles/light_switch_client_nrf52832_xxAA_s132_6.1.1.dir/__/__/common/src/simple_hal.c.obj
                0x00026fe8                hal_led_blink_ms
 .text.hal_led_blink_stop
                0x0002704c       0x20 examples/light_switch/client/CMakeFiles/light_switch_client_nrf52832_xxAA_s132_6.1.1.dir/__/__/common/src/simple_hal.c.obj
                0x0002704c                hal_led_blink_stop
 .text.hal_leds_init
                0x0002706c       0x58 examples/light_switch/client/CMakeFiles/light_switch_client_nrf52832_xxAA_s132_6.1.1.dir/__/__/common/src/simple_hal.c.obj
                0x0002706c                hal_leds_init
 .text.hal_buttons_init
                0x000270c4       0x50 examples/light_switch/client/CMakeFiles/light_switch_client_nrf52832_xxAA_s132_6.1.1.dir/__/__/common/src/simple_hal.c.obj
                0x000270c4                hal_buttons_init
 .text.GPIOTE_IRQHandler
                0x00027114       0x60 examples/light_switch/client/CMakeFiles/light_switch_client_nrf52832_xxAA_s132_6.1.1.dir/__/__/common/src/simple_hal.c.obj
                0x00027114                GPIOTE_IRQHandler
 .text.mesh_app_uuid_print
                0x00027174      0x11c examples/light_switch/client/CMakeFiles/light_switch_client_nrf52832_xxAA_s132_6.1.1.dir/__/__/common/src/mesh_app_utils.c.obj
                0x00027174                mesh_app_uuid_print
 .text.sd_ble_gap_adv_set_configure
                0x00027290        0x4 examples/light_switch/client/CMakeFiles/light_switch_client_nrf52832_xxAA_s132_6.1.1.dir/__/__/common/src/mesh_adv.c.obj
 .text.sd_ble_gap_adv_start
                0x00027294        0x4 examples/light_switch/client/CMakeFiles/light_switch_client_nrf52832_xxAA_s132_6.1.1.dir/__/__/common/src/mesh_adv.c.obj
 .text.sd_ble_gap_adv_stop
                0x00027298        0x4 examples/light_switch/client/CMakeFiles/light_switch_client_nrf52832_xxAA_s132_6.1.1.dir/__/__/common/src/mesh_adv.c.obj
 .text.mesh_adv_data_set
                0x0002729c       0xdc examples/light_switch/client/CMakeFiles/light_switch_client_nrf52832_xxAA_s132_6.1.1.dir/__/__/common/src/mesh_adv.c.obj
                0x0002729c                mesh_adv_data_set
 .text.mesh_adv_params_set
                0x00027378       0x28 examples/light_switch/client/CMakeFiles/light_switch_client_nrf52832_xxAA_s132_6.1.1.dir/__/__/common/src/mesh_adv.c.obj
                0x00027378                mesh_adv_params_set
 .text.mesh_adv_start
                0x000273a0       0x20 examples/light_switch/client/CMakeFiles/light_switch_client_nrf52832_xxAA_s132_6.1.1.dir/__/__/common/src/mesh_adv.c.obj
                0x000273a0                mesh_adv_start
 .text.mesh_adv_stop
                0x000273c0       0x1c examples/light_switch/client/CMakeFiles/light_switch_client_nrf52832_xxAA_s132_6.1.1.dir/__/__/common/src/mesh_adv.c.obj
                0x000273c0                mesh_adv_stop
 .text.sd_ble_gap_disconnect
                0x000273dc        0x4 examples/light_switch/client/CMakeFiles/light_switch_client_nrf52832_xxAA_s132_6.1.1.dir/__/__/common/src/ble_softdevice_support.c.obj
 .text.sd_ble_gap_ppcp_set
                0x000273e0        0x4 examples/light_switch/client/CMakeFiles/light_switch_client_nrf52832_xxAA_s132_6.1.1.dir/__/__/common/src/ble_softdevice_support.c.obj
 .text.sd_ble_gap_device_name_set
                0x000273e4        0x4 examples/light_switch/client/CMakeFiles/light_switch_client_nrf52832_xxAA_s132_6.1.1.dir/__/__/common/src/ble_softdevice_support.c.obj
 .text.conn_params_error_handler
                0x000273e8        0x4 examples/light_switch/client/CMakeFiles/light_switch_client_nrf52832_xxAA_s132_6.1.1.dir/__/__/common/src/ble_softdevice_support.c.obj
 .text.on_sd_evt
                0x000273ec        0x4 examples/light_switch/client/CMakeFiles/light_switch_client_nrf52832_xxAA_s132_6.1.1.dir/__/__/common/src/ble_softdevice_support.c.obj
 .text.on_conn_params_evt
                0x000273f0       0x80 examples/light_switch/client/CMakeFiles/light_switch_client_nrf52832_xxAA_s132_6.1.1.dir/__/__/common/src/ble_softdevice_support.c.obj
 .text.ble_stack_init
                0x00027470       0x32 examples/light_switch/client/CMakeFiles/light_switch_client_nrf52832_xxAA_s132_6.1.1.dir/__/__/common/src/ble_softdevice_support.c.obj
                0x00027470                ble_stack_init
 *fill*         0x000274a2        0x2 
 .text.gap_params_init
                0x000274a4       0x50 examples/light_switch/client/CMakeFiles/light_switch_client_nrf52832_xxAA_s132_6.1.1.dir/__/__/common/src/ble_softdevice_support.c.obj
                0x000274a4                gap_params_init
 .text.conn_params_init
                0x000274f4       0x68 examples/light_switch/client/CMakeFiles/light_switch_client_nrf52832_xxAA_s132_6.1.1.dir/__/__/common/src/ble_softdevice_support.c.obj
                0x000274f4                conn_params_init
 .text.app_util_critical_region_enter
                0x0002755c       0x48 examples/light_switch/client/CMakeFiles/light_switch_client_nrf52832_xxAA_s132_6.1.1.dir/C_/mesh/deps/nRF5_SDK_15.3.0_59ac345/components/libraries/util/app_util_platform.c.obj
                0x0002755c                app_util_critical_region_enter
 .text.app_util_critical_region_exit
                0x000275a4       0x2c examples/light_switch/client/CMakeFiles/light_switch_client_nrf52832_xxAA_s132_6.1.1.dir/C_/mesh/deps/nRF5_SDK_15.3.0_59ac345/components/libraries/util/app_util_platform.c.obj
                0x000275a4                app_util_critical_region_exit
 .text.sd_ble_gap_addr_get
                0x000275d0        0x4 examples/light_switch/client/CMakeFiles/light_switch_client_nrf52832_xxAA_s132_6.1.1.dir/C_/mesh/deps/nRF5_SDK_15.3.0_59ac345/components/ble/common/ble_advdata.c.obj
 .text.sd_ble_gap_appearance_get
                0x000275d4        0x4 examples/light_switch/client/CMakeFiles/light_switch_client_nrf52832_xxAA_s132_6.1.1.dir/C_/mesh/deps/nRF5_SDK_15.3.0_59ac345/components/ble/common/ble_advdata.c.obj
 .text.sd_ble_gap_device_name_get
                0x000275d8        0x4 examples/light_switch/client/CMakeFiles/light_switch_client_nrf52832_xxAA_s132_6.1.1.dir/C_/mesh/deps/nRF5_SDK_15.3.0_59ac345/components/ble/common/ble_advdata.c.obj
 .text.sd_ble_uuid_encode
                0x000275dc        0x4 examples/light_switch/client/CMakeFiles/light_switch_client_nrf52832_xxAA_s132_6.1.1.dir/C_/mesh/deps/nRF5_SDK_15.3.0_59ac345/components/ble/common/ble_advdata.c.obj
 .text.uuid_list_sized_encode
                0x000275e0       0xa4 examples/light_switch/client/CMakeFiles/light_switch_client_nrf52832_xxAA_s132_6.1.1.dir/C_/mesh/deps/nRF5_SDK_15.3.0_59ac345/components/ble/common/ble_advdata.c.obj
 .text.uuid_list_encode
                0x00027684       0x34 examples/light_switch/client/CMakeFiles/light_switch_client_nrf52832_xxAA_s132_6.1.1.dir/C_/mesh/deps/nRF5_SDK_15.3.0_59ac345/components/ble/common/ble_advdata.c.obj
 .text.ble_advdata_encode
                0x000276b8      0x392 examples/light_switch/client/CMakeFiles/light_switch_client_nrf52832_xxAA_s132_6.1.1.dir/C_/mesh/deps/nRF5_SDK_15.3.0_59ac345/components/ble/common/ble_advdata.c.obj
                0x000276b8                ble_advdata_encode
 .text.nrf_section_iter_init
                0x00027a4a       0x12 examples/light_switch/client/CMakeFiles/light_switch_client_nrf52832_xxAA_s132_6.1.1.dir/C_/mesh/deps/nRF5_SDK_15.3.0_59ac345/components/libraries/experimental_section_vars/nrf_section_iter.c.obj
                0x00027a4a                nrf_section_iter_init
 .text.nrf_section_iter_next
                0x00027a5c       0x18 examples/light_switch/client/CMakeFiles/light_switch_client_nrf52832_xxAA_s132_6.1.1.dir/C_/mesh/deps/nRF5_SDK_15.3.0_59ac345/components/libraries/experimental_section_vars/nrf_section_iter.c.obj
                0x00027a5c                nrf_section_iter_next
 .text.sd_evt_get
                0x00027a74        0x4 examples/light_switch/client/CMakeFiles/light_switch_client_nrf52832_xxAA_s132_6.1.1.dir/C_/mesh/deps/nRF5_SDK_15.3.0_59ac345/components/softdevice/common/nrf_sdh_soc.c.obj
 .text.nrf_sdh_soc_evts_poll
                0x00027a78       0x3c examples/light_switch/client/CMakeFiles/light_switch_client_nrf52832_xxAA_s132_6.1.1.dir/C_/mesh/deps/nRF5_SDK_15.3.0_59ac345/components/softdevice/common/nrf_sdh_soc.c.obj
 .text.sd_ble_enable
                0x00027ab4        0x4 examples/light_switch/client/CMakeFiles/light_switch_client_nrf52832_xxAA_s132_6.1.1.dir/C_/mesh/deps/nRF5_SDK_15.3.0_59ac345/components/softdevice/common/nrf_sdh_ble.c.obj
 .text.sd_ble_cfg_set
                0x00027ab8        0x4 examples/light_switch/client/CMakeFiles/light_switch_client_nrf52832_xxAA_s132_6.1.1.dir/C_/mesh/deps/nRF5_SDK_15.3.0_59ac345/components/softdevice/common/nrf_sdh_ble.c.obj
 .text.sd_ble_evt_get
                0x00027abc        0x4 examples/light_switch/client/CMakeFiles/light_switch_client_nrf52832_xxAA_s132_6.1.1.dir/C_/mesh/deps/nRF5_SDK_15.3.0_59ac345/components/softdevice/common/nrf_sdh_ble.c.obj
 .text.nrf_sdh_ble_evts_poll
                0x00027ac0       0x50 examples/light_switch/client/CMakeFiles/light_switch_client_nrf52832_xxAA_s132_6.1.1.dir/C_/mesh/deps/nRF5_SDK_15.3.0_59ac345/components/softdevice/common/nrf_sdh_ble.c.obj
 .text.nrf_sdh_ble_default_cfg_set
                0x00027b10       0xd4 examples/light_switch/client/CMakeFiles/light_switch_client_nrf52832_xxAA_s132_6.1.1.dir/C_/mesh/deps/nRF5_SDK_15.3.0_59ac345/components/softdevice/common/nrf_sdh_ble.c.obj
                0x00027b10                nrf_sdh_ble_default_cfg_set
 .text.nrf_sdh_ble_enable
                0x00027be4       0x14 examples/light_switch/client/CMakeFiles/light_switch_client_nrf52832_xxAA_s132_6.1.1.dir/C_/mesh/deps/nRF5_SDK_15.3.0_59ac345/components/softdevice/common/nrf_sdh_ble.c.obj
                0x00027be4                nrf_sdh_ble_enable
 .text.sd_softdevice_enable
                0x00027bf8        0x4 examples/light_switch/client/CMakeFiles/light_switch_client_nrf52832_xxAA_s132_6.1.1.dir/C_/mesh/deps/nRF5_SDK_15.3.0_59ac345/components/softdevice/common/nrf_sdh.c.obj
 .text.sd_softdevice_disable
                0x00027bfc        0x4 examples/light_switch/client/CMakeFiles/light_switch_client_nrf52832_xxAA_s132_6.1.1.dir/C_/mesh/deps/nRF5_SDK_15.3.0_59ac345/components/softdevice/common/nrf_sdh.c.obj
 .text.sdh_request_observer_notify
                0x00027c00       0x30 examples/light_switch/client/CMakeFiles/light_switch_client_nrf52832_xxAA_s132_6.1.1.dir/C_/mesh/deps/nRF5_SDK_15.3.0_59ac345/components/softdevice/common/nrf_sdh.c.obj
 .text.sdh_state_observer_notify
                0x00027c30       0x28 examples/light_switch/client/CMakeFiles/light_switch_client_nrf52832_xxAA_s132_6.1.1.dir/C_/mesh/deps/nRF5_SDK_15.3.0_59ac345/components/softdevice/common/nrf_sdh.c.obj
 .text.softdevice_evt_irq_disable
                0x00027c58       0x24 examples/light_switch/client/CMakeFiles/light_switch_client_nrf52832_xxAA_s132_6.1.1.dir/C_/mesh/deps/nRF5_SDK_15.3.0_59ac345/components/softdevice/common/nrf_sdh.c.obj
 .text.softdevices_evt_irq_enable
                0x00027c7c       0x38 examples/light_switch/client/CMakeFiles/light_switch_client_nrf52832_xxAA_s132_6.1.1.dir/C_/mesh/deps/nRF5_SDK_15.3.0_59ac345/components/softdevice/common/nrf_sdh.c.obj
 .text.nrf_sdh_enable_request
                0x00027cb4       0x78 examples/light_switch/client/CMakeFiles/light_switch_client_nrf52832_xxAA_s132_6.1.1.dir/C_/mesh/deps/nRF5_SDK_15.3.0_59ac345/components/softdevice/common/nrf_sdh.c.obj
                0x00027cb4                nrf_sdh_enable_request
 .text.nrf_sdh_disable_request
                0x00027d2c       0x60 examples/light_switch/client/CMakeFiles/light_switch_client_nrf52832_xxAA_s132_6.1.1.dir/C_/mesh/deps/nRF5_SDK_15.3.0_59ac345/components/softdevice/common/nrf_sdh.c.obj
                0x00027d2c                nrf_sdh_disable_request
 .text.nrf_sdh_evts_poll
                0x00027d8c       0x28 examples/light_switch/client/CMakeFiles/light_switch_client_nrf52832_xxAA_s132_6.1.1.dir/C_/mesh/deps/nRF5_SDK_15.3.0_59ac345/components/softdevice/common/nrf_sdh.c.obj
                0x00027d8c                nrf_sdh_evts_poll
 .text.SWI2_EGU2_IRQHandler
                0x00027db4        0x4 examples/light_switch/client/CMakeFiles/light_switch_client_nrf52832_xxAA_s132_6.1.1.dir/C_/mesh/deps/nRF5_SDK_15.3.0_59ac345/components/softdevice/common/nrf_sdh.c.obj
                0x00027db4                SWI2_EGU2_IRQHandler
 .text.sd_ble_gap_conn_param_update
                0x00027db8        0x4 examples/light_switch/client/CMakeFiles/light_switch_client_nrf52832_xxAA_s132_6.1.1.dir/C_/mesh/deps/nRF5_SDK_15.3.0_59ac345/components/ble/common/ble_conn_params.c.obj
 .text.sd_ble_gap_disconnect
                0x00027dbc        0x4 examples/light_switch/client/CMakeFiles/light_switch_client_nrf52832_xxAA_s132_6.1.1.dir/C_/mesh/deps/nRF5_SDK_15.3.0_59ac345/components/ble/common/ble_conn_params.c.obj
 .text.sd_ble_gap_ppcp_set
                0x00027dc0        0x4 examples/light_switch/client/CMakeFiles/light_switch_client_nrf52832_xxAA_s132_6.1.1.dir/C_/mesh/deps/nRF5_SDK_15.3.0_59ac345/components/ble/common/ble_conn_params.c.obj
 .text.sd_ble_gap_ppcp_get
                0x00027dc4        0x4 examples/light_switch/client/CMakeFiles/light_switch_client_nrf52832_xxAA_s132_6.1.1.dir/C_/mesh/deps/nRF5_SDK_15.3.0_59ac345/components/ble/common/ble_conn_params.c.obj
 .text.instance_get
                0x00027dc8       0x14 examples/light_switch/client/CMakeFiles/light_switch_client_nrf52832_xxAA_s132_6.1.1.dir/C_/mesh/deps/nRF5_SDK_15.3.0_59ac345/components/ble/common/ble_conn_params.c.obj
 .text.send_error_evt
                0x00027ddc       0x10 examples/light_switch/client/CMakeFiles/light_switch_client_nrf52832_xxAA_s132_6.1.1.dir/C_/mesh/deps/nRF5_SDK_15.3.0_59ac345/components/ble/common/ble_conn_params.c.obj
 .text.update_timeout_handler
                0x00027dec       0x6c examples/light_switch/client/CMakeFiles/light_switch_client_nrf52832_xxAA_s132_6.1.1.dir/C_/mesh/deps/nRF5_SDK_15.3.0_59ac345/components/ble/common/ble_conn_params.c.obj
 .text.conn_params_negotiation
                0x00027e58       0x48 examples/light_switch/client/CMakeFiles/light_switch_client_nrf52832_xxAA_s132_6.1.1.dir/C_/mesh/deps/nRF5_SDK_15.3.0_59ac345/components/ble/common/ble_conn_params.c.obj
 .text.is_conn_params_ok.constprop.3
                0x00027ea0       0x3a examples/light_switch/client/CMakeFiles/light_switch_client_nrf52832_xxAA_s132_6.1.1.dir/C_/mesh/deps/nRF5_SDK_15.3.0_59ac345/components/ble/common/ble_conn_params.c.obj
 *fill*         0x00027eda        0x2 
 .text.ble_evt_handler
                0x00027edc       0xe0 examples/light_switch/client/CMakeFiles/light_switch_client_nrf52832_xxAA_s132_6.1.1.dir/C_/mesh/deps/nRF5_SDK_15.3.0_59ac345/components/ble/common/ble_conn_params.c.obj
 .text.ble_conn_params_init
                0x00027fbc       0x74 examples/light_switch/client/CMakeFiles/light_switch_client_nrf52832_xxAA_s132_6.1.1.dir/C_/mesh/deps/nRF5_SDK_15.3.0_59ac345/components/ble/common/ble_conn_params.c.obj
                0x00027fbc                ble_conn_params_init
 .text.ble_srv_is_notification_enabled
                0x00028030        0x8 examples/light_switch/client/CMakeFiles/light_switch_client_nrf52832_xxAA_s132_6.1.1.dir/C_/mesh/deps/nRF5_SDK_15.3.0_59ac345/components/ble/common/ble_srv_common.c.obj
                0x00028030                ble_srv_is_notification_enabled
 .text._weak_handler
                0x00028038        0x4 examples/light_switch/client/CMakeFiles/light_switch_client_nrf52832_xxAA_s132_6.1.1.dir/__/__/nrf_mesh_weak.c.obj
                0x00028038                nrf_mesh_dfu_init
                0x00028038                nrf_mesh_dfu_jump_to_bootloader
                0x00028038                nrf_mesh_dfu_rx
                0x00028038                prov_provisioner_provision
                0x00028038                nrf_mesh_dfu_bank_info_get
                0x00028038                prov_provisioner_oob_pubkey
                0x00028038                nrf_mesh_dfu_request
                0x00028038                nrf_mesh_dfu_bank_flash
                0x00028038                nrf_mesh_dfu_enable
                0x00028038                _weak_handler
                0x00028038                nrf_mesh_dfu_relay
                0x00028038                nrf_mesh_dfu_abort
                0x00028038                mesh_flash_op_execute
                0x00028038                prov_provisionee_init
                0x00028038                nrf_mesh_dfu_state_get
                0x00028038                prov_provisioner_shared_secret
                0x00028038                prov_provisioner_auth_data
                0x00028038                prov_provisioner_oob_use
 .text.app_error_fault_handler
                0x0002803c      0x200 examples/light_switch/client/CMakeFiles/light_switch_client_nrf52832_xxAA_s132_6.1.1.dir/__/__/common/src/app_error_weak.c.obj
                0x0002803c                app_error_fault_handler
 .text.mesh_assertion_handler
                0x0002823c       0x24 examples/light_switch/client/CMakeFiles/light_switch_client_nrf52832_xxAA_s132_6.1.1.dir/__/__/common/src/assertion_handler_weak.c.obj
                0x0002823c                mesh_assertion_handler
 .text.nrf_mesh_configure_device_uuid_set
                0x00028260       0x10 examples/light_switch/client/CMakeFiles/light_switch_client_nrf52832_xxAA_s132_6.1.1.dir/__/__/__/mesh/core/src/nrf_mesh_configure.c.obj
                0x00028260                nrf_mesh_configure_device_uuid_set
 .text.nrf_mesh_configure_device_uuid_reset
                0x00028270       0x3c examples/light_switch/client/CMakeFiles/light_switch_client_nrf52832_xxAA_s132_6.1.1.dir/__/__/__/mesh/core/src/nrf_mesh_configure.c.obj
                0x00028270                nrf_mesh_configure_device_uuid_reset
 .text.nrf_mesh_configure_device_uuid_get
                0x000282ac        0x8 examples/light_switch/client/CMakeFiles/light_switch_client_nrf52832_xxAA_s132_6.1.1.dir/__/__/__/mesh/core/src/nrf_mesh_configure.c.obj
                0x000282ac                nrf_mesh_configure_device_uuid_get
 .text.msg_cache_init
                0x000282b4       0x24 examples/light_switch/client/CMakeFiles/light_switch_client_nrf52832_xxAA_s132_6.1.1.dir/__/__/__/mesh/core/src/msg_cache.c.obj
                0x000282b4                msg_cache_init
 .text.msg_cache_entry_exists
                0x000282d8       0x3c examples/light_switch/client/CMakeFiles/light_switch_client_nrf52832_xxAA_s132_6.1.1.dir/__/__/__/mesh/core/src/msg_cache.c.obj
                0x000282d8                msg_cache_entry_exists
 .text.msg_cache_entry_add
                0x00028314       0x2c examples/light_switch/client/CMakeFiles/light_switch_client_nrf52832_xxAA_s132_6.1.1.dir/__/__/__/mesh/core/src/msg_cache.c.obj
                0x00028314                msg_cache_entry_add
 .text.seqauth_sequence_number_get
                0x00028340       0x12 examples/light_switch/client/CMakeFiles/light_switch_client_nrf52832_xxAA_s132_6.1.1.dir/__/__/__/mesh/core/src/transport.c.obj
 *fill*         0x00028352        0x2 
 .text.control_packet_callback_get
                0x00028354       0x40 examples/light_switch/client/CMakeFiles/light_switch_client_nrf52832_xxAA_s132_6.1.1.dir/__/__/__/mesh/core/src/transport.c.obj
 .text.tx_complete
                0x00028394       0x2c examples/light_switch/client/CMakeFiles/light_switch_client_nrf52832_xxAA_s132_6.1.1.dir/__/__/__/mesh/core/src/transport.c.obj
 .text.seqauth_get
                0x000283c0       0x24 examples/light_switch/client/CMakeFiles/light_switch_client_nrf52832_xxAA_s132_6.1.1.dir/__/__/__/mesh/core/src/transport.c.obj
 .text.block_ack_full
                0x000283e4       0x1a examples/light_switch/client/CMakeFiles/light_switch_client_nrf52832_xxAA_s132_6.1.1.dir/__/__/__/mesh/core/src/transport.c.obj
 *fill*         0x000283fe        0x2 
 .text.sar_rx_session_mark_as_handled
                0x00028400       0x5c examples/light_switch/client/CMakeFiles/light_switch_client_nrf52832_xxAA_s132_6.1.1.dir/__/__/__/mesh/core/src/transport.c.obj
 .text.upper_trs_packet_encrypt
                0x0002845c       0x86 examples/light_switch/client/CMakeFiles/light_switch_client_nrf52832_xxAA_s132_6.1.1.dir/__/__/__/mesh/core/src/transport.c.obj
 *fill*         0x000284e2        0x2 
 .text.sar_ctx_alloc
                0x000284e4       0xbc examples/light_switch/client/CMakeFiles/light_switch_client_nrf52832_xxAA_s132_6.1.1.dir/__/__/__/mesh/core/src/transport.c.obj
 .text.sar_ctx_free
                0x000285a0       0x3a examples/light_switch/client/CMakeFiles/light_switch_client_nrf52832_xxAA_s132_6.1.1.dir/__/__/__/mesh/core/src/transport.c.obj
 .text.sar_ctx_tx_complete
                0x000285da       0x2e examples/light_switch/client/CMakeFiles/light_switch_client_nrf52832_xxAA_s132_6.1.1.dir/__/__/__/mesh/core/src/transport.c.obj
 .text.transport_metadata_validate
                0x00028608       0x54 examples/light_switch/client/CMakeFiles/light_switch_client_nrf52832_xxAA_s132_6.1.1.dir/__/__/__/mesh/core/src/transport.c.obj
 .text.test_transport_decrypt
                0x0002865c       0x88 examples/light_switch/client/CMakeFiles/light_switch_client_nrf52832_xxAA_s132_6.1.1.dir/__/__/__/mesh/core/src/transport.c.obj
 .text.replay_list_add
                0x000286e4       0x44 examples/light_switch/client/CMakeFiles/light_switch_client_nrf52832_xxAA_s132_6.1.1.dir/__/__/__/mesh/core/src/transport.c.obj
 .text.upper_transport_access_packet_in
                0x00028728      0x1a0 examples/light_switch/client/CMakeFiles/light_switch_client_nrf52832_xxAA_s132_6.1.1.dir/__/__/__/mesh/core/src/transport.c.obj
 .text.trs_packet_header_build
                0x000288c8       0xa4 examples/light_switch/client/CMakeFiles/light_switch_client_nrf52832_xxAA_s132_6.1.1.dir/__/__/__/mesh/core/src/transport.c.obj
 .text.unsegmented_packet_tx
                0x0002896c       0x82 examples/light_switch/client/CMakeFiles/light_switch_client_nrf52832_xxAA_s132_6.1.1.dir/__/__/__/mesh/core/src/transport.c.obj
 *fill*         0x000289ee        0x2 
 .text.tx_retry_timer_reset
                0x000289f0       0x3c examples/light_switch/client/CMakeFiles/light_switch_client_nrf52832_xxAA_s132_6.1.1.dir/__/__/__/mesh/core/src/transport.c.obj
 .text.sar_ctx_cancel
                0x00028a2c       0xb0 examples/light_switch/client/CMakeFiles/light_switch_client_nrf52832_xxAA_s132_6.1.1.dir/__/__/__/mesh/core/src/transport.c.obj
 .text.abort_timeout
                0x00028adc        0x8 examples/light_switch/client/CMakeFiles/light_switch_client_nrf52832_xxAA_s132_6.1.1.dir/__/__/__/mesh/core/src/transport.c.obj
 .text.retry_timeout
                0x00028ae4       0x4c examples/light_switch/client/CMakeFiles/light_switch_client_nrf52832_xxAA_s132_6.1.1.dir/__/__/__/mesh/core/src/transport.c.obj
 .text.trs_sar_packet_out
                0x00028b30       0xf4 examples/light_switch/client/CMakeFiles/light_switch_client_nrf52832_xxAA_s132_6.1.1.dir/__/__/__/mesh/core/src/transport.c.obj
 .text.transport_control_packet_in
                0x00028c24      0x1dc examples/light_switch/client/CMakeFiles/light_switch_client_nrf52832_xxAA_s132_6.1.1.dir/__/__/__/mesh/core/src/transport.c.obj
 .text.segmented_packet_tx
                0x00028e00      0x140 examples/light_switch/client/CMakeFiles/light_switch_client_nrf52832_xxAA_s132_6.1.1.dir/__/__/__/mesh/core/src/transport.c.obj
 .text.transport_init
                0x00028f40       0x84 examples/light_switch/client/CMakeFiles/light_switch_client_nrf52832_xxAA_s132_6.1.1.dir/__/__/__/mesh/core/src/transport.c.obj
                0x00028f40                transport_init
 .text.transport_enable
                0x00028fc4        0x4 examples/light_switch/client/CMakeFiles/light_switch_client_nrf52832_xxAA_s132_6.1.1.dir/__/__/__/mesh/core/src/transport.c.obj
                0x00028fc4                transport_enable
 .text.transport_tx
                0x00028fc8       0xec examples/light_switch/client/CMakeFiles/light_switch_client_nrf52832_xxAA_s132_6.1.1.dir/__/__/__/mesh/core/src/transport.c.obj
                0x00028fc8                transport_tx
 .text.transport_control_tx
                0x000290b4       0x98 examples/light_switch/client/CMakeFiles/light_switch_client_nrf52832_xxAA_s132_6.1.1.dir/__/__/__/mesh/core/src/transport.c.obj
                0x000290b4                transport_control_tx
 .text.sar_ack_send
                0x0002914c       0xa4 examples/light_switch/client/CMakeFiles/light_switch_client_nrf52832_xxAA_s132_6.1.1.dir/__/__/__/mesh/core/src/transport.c.obj
 .text.ack_timeout
                0x000291f0       0x30 examples/light_switch/client/CMakeFiles/light_switch_client_nrf52832_xxAA_s132_6.1.1.dir/__/__/__/mesh/core/src/transport.c.obj
 .text.transport_packet_in
                0x00029220      0x504 examples/light_switch/client/CMakeFiles/light_switch_client_nrf52832_xxAA_s132_6.1.1.dir/__/__/__/mesh/core/src/transport.c.obj
                0x00029220                transport_packet_in
 .text.transport_sar_process
                0x00029724       0x70 examples/light_switch/client/CMakeFiles/light_switch_client_nrf52832_xxAA_s132_6.1.1.dir/__/__/__/mesh/core/src/transport.c.obj
 .text.transport_control_packet_consumer_add
                0x00029794       0x5c examples/light_switch/client/CMakeFiles/light_switch_client_nrf52832_xxAA_s132_6.1.1.dir/__/__/__/mesh/core/src/transport.c.obj
                0x00029794                transport_control_packet_consumer_add
 .text.event_handle
                0x000297f0       0x54 examples/light_switch/client/CMakeFiles/light_switch_client_nrf52832_xxAA_s132_6.1.1.dir/__/__/__/mesh/core/src/event.c.obj
                0x000297f0                event_handle
 .text.event_handler_add
                0x00029844       0x20 examples/light_switch/client/CMakeFiles/light_switch_client_nrf52832_xxAA_s132_6.1.1.dir/__/__/__/mesh/core/src/event.c.obj
                0x00029844                event_handler_add
 .text.event_handler_remove
                0x00029864       0x34 examples/light_switch/client/CMakeFiles/light_switch_client_nrf52832_xxAA_s132_6.1.1.dir/__/__/__/mesh/core/src/event.c.obj
                0x00029864                event_handler_remove
 .text.m_index_increment
                0x00029898       0x1e examples/light_switch/client/CMakeFiles/light_switch_client_nrf52832_xxAA_s132_6.1.1.dir/__/__/__/mesh/core/src/packet_buffer.c.obj
 .text.m_get_next_packet
                0x000298b6       0x1c examples/light_switch/client/CMakeFiles/light_switch_client_nrf52832_xxAA_s132_6.1.1.dir/__/__/__/mesh/core/src/packet_buffer.c.obj
 .text.packet_buffer_init
                0x000298d2       0xac examples/light_switch/client/CMakeFiles/light_switch_client_nrf52832_xxAA_s132_6.1.1.dir/__/__/__/mesh/core/src/packet_buffer.c.obj
                0x000298d2                packet_buffer_init
 .text.packet_buffer_flush
                0x0002997e       0x50 examples/light_switch/client/CMakeFiles/light_switch_client_nrf52832_xxAA_s132_6.1.1.dir/__/__/__/mesh/core/src/packet_buffer.c.obj
                0x0002997e                packet_buffer_flush
 .text.packet_buffer_reserve
                0x000299ce       0xa2 examples/light_switch/client/CMakeFiles/light_switch_client_nrf52832_xxAA_s132_6.1.1.dir/__/__/__/mesh/core/src/packet_buffer.c.obj
                0x000299ce                packet_buffer_reserve
 .text.packet_buffer_commit
                0x00029a70       0x62 examples/light_switch/client/CMakeFiles/light_switch_client_nrf52832_xxAA_s132_6.1.1.dir/__/__/__/mesh/core/src/packet_buffer.c.obj
                0x00029a70                packet_buffer_commit
 .text.packet_buffer_pop
                0x00029ad2       0x5a examples/light_switch/client/CMakeFiles/light_switch_client_nrf52832_xxAA_s132_6.1.1.dir/__/__/__/mesh/core/src/packet_buffer.c.obj
                0x00029ad2                packet_buffer_pop
 .text.packet_buffer_can_pop
                0x00029b2c       0x34 examples/light_switch/client/CMakeFiles/light_switch_client_nrf52832_xxAA_s132_6.1.1.dir/__/__/__/mesh/core/src/packet_buffer.c.obj
                0x00029b2c                packet_buffer_can_pop
 .text.packet_buffer_packets_ready_to_pop
                0x00029b60       0x36 examples/light_switch/client/CMakeFiles/light_switch_client_nrf52832_xxAA_s132_6.1.1.dir/__/__/__/mesh/core/src/packet_buffer.c.obj
                0x00029b60                packet_buffer_packets_ready_to_pop
 .text.packet_buffer_free
                0x00029b96       0x74 examples/light_switch/client/CMakeFiles/light_switch_client_nrf52832_xxAA_s132_6.1.1.dir/__/__/__/mesh/core/src/packet_buffer.c.obj
                0x00029b96                packet_buffer_free
 .text.packet_buffer_is_empty
                0x00029c0a       0x28 examples/light_switch/client/CMakeFiles/light_switch_client_nrf52832_xxAA_s132_6.1.1.dir/__/__/__/mesh/core/src/packet_buffer.c.obj
                0x00029c0a                packet_buffer_is_empty
 .text.get_last_page
                0x00029c32       0x14 examples/light_switch/client/CMakeFiles/light_switch_client_nrf52832_xxAA_s132_6.1.1.dir/__/__/__/mesh/core/src/flash_manager_defrag.c.obj
 *fill*         0x00029c46        0x2 
 .text.defrag_on_end
                0x00029c48       0x1c examples/light_switch/client/CMakeFiles/light_switch_client_nrf52832_xxAA_s132_6.1.1.dir/__/__/__/mesh/core/src/flash_manager_defrag.c.obj
 .text.execute_procedure_step
                0x00029c64       0x70 examples/light_switch/client/CMakeFiles/light_switch_client_nrf52832_xxAA_s132_6.1.1.dir/__/__/__/mesh/core/src/flash_manager_defrag.c.obj
 .text.get_next_entry
                0x00029cd4       0x34 examples/light_switch/client/CMakeFiles/light_switch_client_nrf52832_xxAA_s132_6.1.1.dir/__/__/__/mesh/core/src/flash_manager_defrag.c.obj
 .text.get_next_data_entry
                0x00029d08       0x26 examples/light_switch/client/CMakeFiles/light_switch_client_nrf52832_xxAA_s132_6.1.1.dir/__/__/__/mesh/core/src/flash_manager_defrag.c.obj
 *fill*         0x00029d2e        0x2 
 .text.on_flash_op_end
                0x00029d30       0x30 examples/light_switch/client/CMakeFiles/light_switch_client_nrf52832_xxAA_s132_6.1.1.dir/__/__/__/mesh/core/src/flash_manager_defrag.c.obj
 .text.check_for_invalid_entries
                0x00029d60       0x38 examples/light_switch/client/CMakeFiles/light_switch_client_nrf52832_xxAA_s132_6.1.1.dir/__/__/__/mesh/core/src/flash_manager_defrag.c.obj
 .text.erase_recovery_area
                0x00029d98       0x34 examples/light_switch/client/CMakeFiles/light_switch_client_nrf52832_xxAA_s132_6.1.1.dir/__/__/__/mesh/core/src/flash_manager_defrag.c.obj
 .text.flash.constprop.6
                0x00029dcc       0x24 examples/light_switch/client/CMakeFiles/light_switch_client_nrf52832_xxAA_s132_6.1.1.dir/__/__/__/mesh/core/src/flash_manager_defrag.c.obj
 .text.invalidate_duplicate_entries
                0x00029df0       0xa8 examples/light_switch/client/CMakeFiles/light_switch_client_nrf52832_xxAA_s132_6.1.1.dir/__/__/__/mesh/core/src/flash_manager_defrag.c.obj
 .text.seal_storage_page
                0x00029e98       0x50 examples/light_switch/client/CMakeFiles/light_switch_client_nrf52832_xxAA_s132_6.1.1.dir/__/__/__/mesh/core/src/flash_manager_defrag.c.obj
 .text.copy_metadata
                0x00029ee8       0x3c examples/light_switch/client/CMakeFiles/light_switch_client_nrf52832_xxAA_s132_6.1.1.dir/__/__/__/mesh/core/src/flash_manager_defrag.c.obj
 .text.write_defrag_start_pointer
                0x00029f24       0x20 examples/light_switch/client/CMakeFiles/light_switch_client_nrf52832_xxAA_s132_6.1.1.dir/__/__/__/mesh/core/src/flash_manager_defrag.c.obj
 .text.write_back
                0x00029f44       0x28 examples/light_switch/client/CMakeFiles/light_switch_client_nrf52832_xxAA_s132_6.1.1.dir/__/__/__/mesh/core/src/flash_manager_defrag.c.obj
 .text.post_process
                0x00029f6c       0x40 examples/light_switch/client/CMakeFiles/light_switch_client_nrf52832_xxAA_s132_6.1.1.dir/__/__/__/mesh/core/src/flash_manager_defrag.c.obj
 .text.backup_entries
                0x00029fac       0xd8 examples/light_switch/client/CMakeFiles/light_switch_client_nrf52832_xxAA_s132_6.1.1.dir/__/__/__/mesh/core/src/flash_manager_defrag.c.obj
 .text.erase_source
                0x0002a084       0x34 examples/light_switch/client/CMakeFiles/light_switch_client_nrf52832_xxAA_s132_6.1.1.dir/__/__/__/mesh/core/src/flash_manager_defrag.c.obj
 .text.flash_manager_defrag_init
                0x0002a0b8       0x8c examples/light_switch/client/CMakeFiles/light_switch_client_nrf52832_xxAA_s132_6.1.1.dir/__/__/__/mesh/core/src/flash_manager_defrag.c.obj
                0x0002a0b8                flash_manager_defrag_init
 .text.flash_manager_defragging
                0x0002a144       0x38 examples/light_switch/client/CMakeFiles/light_switch_client_nrf52832_xxAA_s132_6.1.1.dir/__/__/__/mesh/core/src/flash_manager_defrag.c.obj
                0x0002a144                flash_manager_defragging
 .text.flash_manager_defrag_is_running
                0x0002a17c       0x10 examples/light_switch/client/CMakeFiles/light_switch_client_nrf52832_xxAA_s132_6.1.1.dir/__/__/__/mesh/core/src/flash_manager_defrag.c.obj
                0x0002a17c                flash_manager_defrag_is_running
 .text.flash_manager_defrag
                0x0002a18c       0x44 examples/light_switch/client/CMakeFiles/light_switch_client_nrf52832_xxAA_s132_6.1.1.dir/__/__/__/mesh/core/src/flash_manager_defrag.c.obj
                0x0002a18c                flash_manager_defrag
 .text.flash_manager_defrag_recovery_page_get
                0x0002a1d0        0xc examples/light_switch/client/CMakeFiles/light_switch_client_nrf52832_xxAA_s132_6.1.1.dir/__/__/__/mesh/core/src/flash_manager_defrag.c.obj
                0x0002a1d0                flash_manager_defrag_recovery_page_get
 .text.fifo_init
                0x0002a1dc       0x34 examples/light_switch/client/CMakeFiles/light_switch_client_nrf52832_xxAA_s132_6.1.1.dir/__/__/__/mesh/core/src/fifo.c.obj
                0x0002a1dc                fifo_init
 .text.fifo_pop
                0x0002a210       0x52 examples/light_switch/client/CMakeFiles/light_switch_client_nrf52832_xxAA_s132_6.1.1.dir/__/__/__/mesh/core/src/fifo.c.obj
                0x0002a210                fifo_pop
 *fill*         0x0002a262        0x2 
 .text.wait_for_ready
                0x0002a264       0x10 examples/light_switch/client/CMakeFiles/light_switch_client_nrf52832_xxAA_s132_6.1.1.dir/__/__/__/mesh/core/src/nrf_flash.c.obj
 .text.nrf_flash_erase
                0x0002a274       0x50 examples/light_switch/client/CMakeFiles/light_switch_client_nrf52832_xxAA_s132_6.1.1.dir/__/__/__/mesh/core/src/nrf_flash.c.obj
                0x0002a274                nrf_flash_erase
 .text.nrf_flash_write
                0x0002a2c4       0x50 examples/light_switch/client/CMakeFiles/light_switch_client_nrf52832_xxAA_s132_6.1.1.dir/__/__/__/mesh/core/src/nrf_flash.c.obj
                0x0002a2c4                nrf_flash_write
 .text.entry_recover_cb
                0x0002a314       0x18 examples/light_switch/client/CMakeFiles/light_switch_client_nrf52832_xxAA_s132_6.1.1.dir/__/__/__/mesh/core/src/net_state.c.obj
 .text.flash_store_iv_index
                0x0002a32c       0x38 examples/light_switch/client/CMakeFiles/light_switch_client_nrf52832_xxAA_s132_6.1.1.dir/__/__/__/mesh/core/src/net_state.c.obj
 .text.flash_mem_available
                0x0002a364       0x14 examples/light_switch/client/CMakeFiles/light_switch_client_nrf52832_xxAA_s132_6.1.1.dir/__/__/__/mesh/core/src/net_state.c.obj
 .text.iv_index_notify
                0x0002a378       0x30 examples/light_switch/client/CMakeFiles/light_switch_client_nrf52832_xxAA_s132_6.1.1.dir/__/__/__/mesh/core/src/net_state.c.obj
 .text.seqnum_block_allocate
                0x0002a3a8       0x4c examples/light_switch/client/CMakeFiles/light_switch_client_nrf52832_xxAA_s132_6.1.1.dir/__/__/__/mesh/core/src/net_state.c.obj
 .text.net_state_reset
                0x0002a3f4       0x48 examples/light_switch/client/CMakeFiles/light_switch_client_nrf52832_xxAA_s132_6.1.1.dir/__/__/__/mesh/core/src/net_state.c.obj
                0x0002a3f4                net_state_reset
 .text.flash_write_complete
                0x0002a43c       0x64 examples/light_switch/client/CMakeFiles/light_switch_client_nrf52832_xxAA_s132_6.1.1.dir/__/__/__/mesh/core/src/net_state.c.obj
 .text.net_state_recover_from_flash
                0x0002a4a0       0x60 examples/light_switch/client/CMakeFiles/light_switch_client_nrf52832_xxAA_s132_6.1.1.dir/__/__/__/mesh/core/src/net_state.c.obj
                0x0002a4a0                net_state_recover_from_flash
 .text.net_state_flash_area_get
                0x0002a500        0xc examples/light_switch/client/CMakeFiles/light_switch_client_nrf52832_xxAA_s132_6.1.1.dir/__/__/__/mesh/core/src/net_state.c.obj
                0x0002a500                net_state_flash_area_get
 .text.init_flash_storage
                0x0002a50c       0x40 examples/light_switch/client/CMakeFiles/light_switch_client_nrf52832_xxAA_s132_6.1.1.dir/__/__/__/mesh/core/src/net_state.c.obj
 .text.net_state_init
                0x0002a54c       0x44 examples/light_switch/client/CMakeFiles/light_switch_client_nrf52832_xxAA_s132_6.1.1.dir/__/__/__/mesh/core/src/net_state.c.obj
                0x0002a54c                net_state_init
 .text.net_state_enable
                0x0002a590       0x30 examples/light_switch/client/CMakeFiles/light_switch_client_nrf52832_xxAA_s132_6.1.1.dir/__/__/__/mesh/core/src/net_state.c.obj
                0x0002a590                net_state_enable
 .text.net_state_iv_update_start
                0x0002a5c0       0x50 examples/light_switch/client/CMakeFiles/light_switch_client_nrf52832_xxAA_s132_6.1.1.dir/__/__/__/mesh/core/src/net_state.c.obj
                0x0002a5c0                net_state_iv_update_start
 .text.iv_update_trigger_if_pending
                0x0002a610       0x6c examples/light_switch/client/CMakeFiles/light_switch_client_nrf52832_xxAA_s132_6.1.1.dir/__/__/__/mesh/core/src/net_state.c.obj
 .text.iv_update_timer_handler
                0x0002a67c       0x64 examples/light_switch/client/CMakeFiles/light_switch_client_nrf52832_xxAA_s132_6.1.1.dir/__/__/__/mesh/core/src/net_state.c.obj
 .text.mesh_evt_handler
                0x0002a6e0       0x8c examples/light_switch/client/CMakeFiles/light_switch_client_nrf52832_xxAA_s132_6.1.1.dir/__/__/__/mesh/core/src/net_state.c.obj
 .text.net_state_seqnum_alloc
                0x0002a76c       0x68 examples/light_switch/client/CMakeFiles/light_switch_client_nrf52832_xxAA_s132_6.1.1.dir/__/__/__/mesh/core/src/net_state.c.obj
                0x0002a76c                net_state_seqnum_alloc
 .text.net_state_iv_index_lock
                0x0002a7d4       0x3c examples/light_switch/client/CMakeFiles/light_switch_client_nrf52832_xxAA_s132_6.1.1.dir/__/__/__/mesh/core/src/net_state.c.obj
                0x0002a7d4                net_state_iv_index_lock
 .text.net_state_key_refresh_phase_changed
                0x0002a810       0x20 examples/light_switch/client/CMakeFiles/light_switch_client_nrf52832_xxAA_s132_6.1.1.dir/__/__/__/mesh/core/src/net_state.c.obj
                0x0002a810                net_state_key_refresh_phase_changed
 .text.net_state_beacon_iv_index_get
                0x0002a830        0xc examples/light_switch/client/CMakeFiles/light_switch_client_nrf52832_xxAA_s132_6.1.1.dir/__/__/__/mesh/core/src/net_state.c.obj
                0x0002a830                net_state_beacon_iv_index_get
 .text.net_state_tx_iv_index_get
                0x0002a83c       0x14 examples/light_switch/client/CMakeFiles/light_switch_client_nrf52832_xxAA_s132_6.1.1.dir/__/__/__/mesh/core/src/net_state.c.obj
                0x0002a83c                net_state_tx_iv_index_get
 .text.net_state_rx_iv_index_get
                0x0002a850       0x18 examples/light_switch/client/CMakeFiles/light_switch_client_nrf52832_xxAA_s132_6.1.1.dir/__/__/__/mesh/core/src/net_state.c.obj
                0x0002a850                net_state_rx_iv_index_get
 .text.net_state_iv_update_get
                0x0002a868        0xc examples/light_switch/client/CMakeFiles/light_switch_client_nrf52832_xxAA_s132_6.1.1.dir/__/__/__/mesh/core/src/net_state.c.obj
                0x0002a868                net_state_iv_update_get
 .text.net_state_iv_index_set
                0x0002a874       0x34 examples/light_switch/client/CMakeFiles/light_switch_client_nrf52832_xxAA_s132_6.1.1.dir/__/__/__/mesh/core/src/net_state.c.obj
                0x0002a874                net_state_iv_index_set
 .text.send_end_events
                0x0002a8a8       0x84 examples/light_switch/client/CMakeFiles/light_switch_client_nrf52832_xxAA_s132_6.1.1.dir/__/__/__/mesh/core/src/mesh_flash.c.obj
 .text.flash_op_action_prepare
                0x0002a92c       0x78 examples/light_switch/client/CMakeFiles/light_switch_client_nrf52832_xxAA_s132_6.1.1.dir/__/__/__/mesh/core/src/mesh_flash.c.obj
 .text.flash_op_schedule
                0x0002a9a4       0x20 examples/light_switch/client/CMakeFiles/light_switch_client_nrf52832_xxAA_s132_6.1.1.dir/__/__/__/mesh/core/src/mesh_flash.c.obj
 .text.flash_op_start
                0x0002a9c4      0x13c examples/light_switch/client/CMakeFiles/light_switch_client_nrf52832_xxAA_s132_6.1.1.dir/__/__/__/mesh/core/src/mesh_flash.c.obj
 .text.mesh_flash_init
                0x0002ab00       0x7c examples/light_switch/client/CMakeFiles/light_switch_client_nrf52832_xxAA_s132_6.1.1.dir/__/__/__/mesh/core/src/mesh_flash.c.obj
                0x0002ab00                mesh_flash_init
 .text.mesh_flash_user_callback_set
                0x0002ab7c       0x20 examples/light_switch/client/CMakeFiles/light_switch_client_nrf52832_xxAA_s132_6.1.1.dir/__/__/__/mesh/core/src/mesh_flash.c.obj
                0x0002ab7c                mesh_flash_user_callback_set
 .text.mesh_flash_op_push
                0x0002ab9c      0x10c examples/light_switch/client/CMakeFiles/light_switch_client_nrf52832_xxAA_s132_6.1.1.dir/__/__/__/mesh/core/src/mesh_flash.c.obj
                0x0002ab9c                mesh_flash_op_push
 .text.mesh_flash_set_suspended
                0x0002aca8       0x70 examples/light_switch/client/CMakeFiles/light_switch_client_nrf52832_xxAA_s132_6.1.1.dir/__/__/__/mesh/core/src/mesh_flash.c.obj
                0x0002aca8                mesh_flash_set_suspended
 .text.nrf_mesh_address_type_get
                0x0002ad18       0x10 examples/light_switch/client/CMakeFiles/light_switch_client_nrf52832_xxAA_s132_6.1.1.dir/__/__/__/mesh/core/src/nrf_mesh_utils.c.obj
                0x0002ad18                nrf_mesh_address_type_get
 .text.sd_softdevice_is_enabled
                0x0002ad28        0x4 examples/light_switch/client/CMakeFiles/light_switch_client_nrf52832_xxAA_s132_6.1.1.dir/__/__/__/mesh/core/src/nrf_mesh.c.obj
 .text.nrf_mesh_listen
                0x0002ad2c      0x138 examples/light_switch/client/CMakeFiles/light_switch_client_nrf52832_xxAA_s132_6.1.1.dir/__/__/__/mesh/core/src/nrf_mesh.c.obj
 .text.scanner_packet_process_cb
                0x0002ae64       0x8c examples/light_switch/client/CMakeFiles/light_switch_client_nrf52832_xxAA_s132_6.1.1.dir/__/__/__/mesh/core/src/nrf_mesh.c.obj
 .text.bearer_stopped_cb
                0x0002aef0       0x30 examples/light_switch/client/CMakeFiles/light_switch_client_nrf52832_xxAA_s132_6.1.1.dir/__/__/__/mesh/core/src/nrf_mesh.c.obj
 .text.nrf_mesh_init
                0x0002af20       0xe8 examples/light_switch/client/CMakeFiles/light_switch_client_nrf52832_xxAA_s132_6.1.1.dir/__/__/__/mesh/core/src/nrf_mesh.c.obj
                0x0002af20                nrf_mesh_init
 .text.nrf_mesh_enable
                0x0002b008       0xac examples/light_switch/client/CMakeFiles/light_switch_client_nrf52832_xxAA_s132_6.1.1.dir/__/__/__/mesh/core/src/nrf_mesh.c.obj
                0x0002b008                nrf_mesh_enable
 .text.nrf_mesh_disable
                0x0002b0b4       0x2c examples/light_switch/client/CMakeFiles/light_switch_client_nrf52832_xxAA_s132_6.1.1.dir/__/__/__/mesh/core/src/nrf_mesh.c.obj
                0x0002b0b4                nrf_mesh_disable
 .text.nrf_mesh_packet_send
                0x0002b0e0        0x4 examples/light_switch/client/CMakeFiles/light_switch_client_nrf52832_xxAA_s132_6.1.1.dir/__/__/__/mesh/core/src/nrf_mesh.c.obj
                0x0002b0e0                nrf_mesh_packet_send
 .text.nrf_mesh_evt_handler_add
                0x0002b0e4        0x4 examples/light_switch/client/CMakeFiles/light_switch_client_nrf52832_xxAA_s132_6.1.1.dir/__/__/__/mesh/core/src/nrf_mesh.c.obj
                0x0002b0e4                nrf_mesh_evt_handler_add
 .text.nrf_mesh_evt_handler_remove
                0x0002b0e8        0x4 examples/light_switch/client/CMakeFiles/light_switch_client_nrf52832_xxAA_s132_6.1.1.dir/__/__/__/mesh/core/src/nrf_mesh.c.obj
                0x0002b0e8                nrf_mesh_evt_handler_remove
 .text.nrf_mesh_on_sd_evt
                0x0002b0ec        0xa examples/light_switch/client/CMakeFiles/light_switch_client_nrf52832_xxAA_s132_6.1.1.dir/__/__/__/mesh/core/src/nrf_mesh.c.obj
                0x0002b0ec                nrf_mesh_on_sd_evt
 .text.nrf_mesh_subnet_added
                0x0002b0f6        0x4 examples/light_switch/client/CMakeFiles/light_switch_client_nrf52832_xxAA_s132_6.1.1.dir/__/__/__/mesh/core/src/nrf_mesh.c.obj
                0x0002b0f6                nrf_mesh_subnet_added
 *fill*         0x0002b0fa        0x2 
 .text.nrf_mesh_unique_token_get
                0x0002b0fc       0x18 examples/light_switch/client/CMakeFiles/light_switch_client_nrf52832_xxAA_s132_6.1.1.dir/__/__/__/mesh/core/src/nrf_mesh.c.obj
                0x0002b0fc                nrf_mesh_unique_token_get
 .text.queue_init
                0x0002b114       0x14 examples/light_switch/client/CMakeFiles/light_switch_client_nrf52832_xxAA_s132_6.1.1.dir/__/__/__/mesh/core/src/queue.c.obj
                0x0002b114                queue_init
 .text.queue_push
                0x0002b128       0x34 examples/light_switch/client/CMakeFiles/light_switch_client_nrf52832_xxAA_s132_6.1.1.dir/__/__/__/mesh/core/src/queue.c.obj
                0x0002b128                queue_push
 .text.queue_pop
                0x0002b15c       0x26 examples/light_switch/client/CMakeFiles/light_switch_client_nrf52832_xxAA_s132_6.1.1.dir/__/__/__/mesh/core/src/queue.c.obj
                0x0002b15c                queue_pop
 .text.queue_peek
                0x0002b182       0x10 examples/light_switch/client/CMakeFiles/light_switch_client_nrf52832_xxAA_s132_6.1.1.dir/__/__/__/mesh/core/src/queue.c.obj
                0x0002b182                queue_peek
 .text.sd_power_reset_reason_clr
                0x0002b192        0x4 examples/light_switch/client/CMakeFiles/light_switch_client_nrf52832_xxAA_s132_6.1.1.dir/__/__/__/mesh/core/src/hal.c.obj
 .text.sd_power_gpregret_set
                0x0002b196        0x4 examples/light_switch/client/CMakeFiles/light_switch_client_nrf52832_xxAA_s132_6.1.1.dir/__/__/__/mesh/core/src/hal.c.obj
 .text.sd_power_gpregret_clr
                0x0002b19a        0x4 examples/light_switch/client/CMakeFiles/light_switch_client_nrf52832_xxAA_s132_6.1.1.dir/__/__/__/mesh/core/src/hal.c.obj
 *fill*         0x0002b19e        0x2 
 .text.hal_device_reset
                0x0002b1a0       0x40 examples/light_switch/client/CMakeFiles/light_switch_client_nrf52832_xxAA_s132_6.1.1.dir/__/__/__/mesh/core/src/hal.c.obj
                0x0002b1a0                hal_device_reset
 .text.hal_lfclk_ppm_get
                0x0002b1e0       0x14 examples/light_switch/client/CMakeFiles/light_switch_client_nrf52832_xxAA_s132_6.1.1.dir/__/__/__/mesh/core/src/hal.c.obj
                0x0002b1e0                hal_lfclk_ppm_get
 .text.hal_irq_active_get
                0x0002b1f4       0x10 examples/light_switch/client/CMakeFiles/light_switch_client_nrf52832_xxAA_s132_6.1.1.dir/__/__/__/mesh/core/src/hal.c.obj
                0x0002b1f4                hal_irq_active_get
 .text.hal_irq_is_enabled
                0x0002b204       0x28 examples/light_switch/client/CMakeFiles/light_switch_client_nrf52832_xxAA_s132_6.1.1.dir/__/__/__/mesh/core/src/hal.c.obj
                0x0002b204                hal_irq_is_enabled
 .text.sd_ecb_block_encrypt
                0x0002b22c        0x4 examples/light_switch/client/CMakeFiles/light_switch_client_nrf52832_xxAA_s132_6.1.1.dir/__/__/__/mesh/core/src/aes_cmac.c.obj
 .text.utils_xor.constprop.1
                0x0002b230       0x20 examples/light_switch/client/CMakeFiles/light_switch_client_nrf52832_xxAA_s132_6.1.1.dir/__/__/__/mesh/core/src/aes_cmac.c.obj
 .text.aes_cmac
                0x0002b250      0x10c examples/light_switch/client/CMakeFiles/light_switch_client_nrf52832_xxAA_s132_6.1.1.dir/__/__/__/mesh/core/src/aes_cmac.c.obj
                0x0002b250                aes_cmac
 .text.add_evt  0x0002b35c       0x50 examples/light_switch/client/CMakeFiles/light_switch_client_nrf52832_xxAA_s132_6.1.1.dir/__/__/__/mesh/core/src/timer_scheduler.c.obj
 .text.remove_evt
                0x0002b3ac       0x50 examples/light_switch/client/CMakeFiles/light_switch_client_nrf52832_xxAA_s132_6.1.1.dir/__/__/__/mesh/core/src/timer_scheduler.c.obj
 .text.timer_cb
                0x0002b3fc        0xc examples/light_switch/client/CMakeFiles/light_switch_client_nrf52832_xxAA_s132_6.1.1.dir/__/__/__/mesh/core/src/timer_scheduler.c.obj
 .text.setup_timeout.isra.0
                0x0002b408       0x1c examples/light_switch/client/CMakeFiles/light_switch_client_nrf52832_xxAA_s132_6.1.1.dir/__/__/__/mesh/core/src/timer_scheduler.c.obj
 .text.flag_event_cb
                0x0002b424       0xa4 examples/light_switch/client/CMakeFiles/light_switch_client_nrf52832_xxAA_s132_6.1.1.dir/__/__/__/mesh/core/src/timer_scheduler.c.obj
 .text.timer_sch_init
                0x0002b4c8       0x2c examples/light_switch/client/CMakeFiles/light_switch_client_nrf52832_xxAA_s132_6.1.1.dir/__/__/__/mesh/core/src/timer_scheduler.c.obj
                0x0002b4c8                timer_sch_init
 .text.timer_sch_schedule
                0x0002b4f4       0x44 examples/light_switch/client/CMakeFiles/light_switch_client_nrf52832_xxAA_s132_6.1.1.dir/__/__/__/mesh/core/src/timer_scheduler.c.obj
                0x0002b4f4                timer_sch_schedule
 .text.timer_sch_abort
                0x0002b538       0x2e examples/light_switch/client/CMakeFiles/light_switch_client_nrf52832_xxAA_s132_6.1.1.dir/__/__/__/mesh/core/src/timer_scheduler.c.obj
                0x0002b538                timer_sch_abort
 .text.timer_sch_reschedule
                0x0002b566       0x38 examples/light_switch/client/CMakeFiles/light_switch_client_nrf52832_xxAA_s132_6.1.1.dir/__/__/__/mesh/core/src/timer_scheduler.c.obj
                0x0002b566                timer_sch_reschedule
 .text.timer_init
                0x0002b59e       0x1a examples/light_switch/client/CMakeFiles/light_switch_client_nrf52832_xxAA_s132_6.1.1.dir/__/__/__/mesh/core/src/timer.c.obj
                0x0002b59e                timer_init
 .text.timer_now
                0x0002b5b8       0x48 examples/light_switch/client/CMakeFiles/light_switch_client_nrf52832_xxAA_s132_6.1.1.dir/__/__/__/mesh/core/src/timer.c.obj
                0x0002b5b8                timer_now
 .text.nrf_mesh_timer_tail_handle
                0x0002b600       0x34 examples/light_switch/client/CMakeFiles/light_switch_client_nrf52832_xxAA_s132_6.1.1.dir/__/__/__/mesh/core/src/timer.c.obj
                0x0002b600                nrf_mesh_timer_tail_handle
 .text.nrf_mesh_timer_ovfw_handle
                0x0002b634       0x98 examples/light_switch/client/CMakeFiles/light_switch_client_nrf52832_xxAA_s132_6.1.1.dir/__/__/__/mesh/core/src/timer.c.obj
                0x0002b634                nrf_mesh_timer_ovfw_handle
 .text.timer_start
                0x0002b6cc       0xac examples/light_switch/client/CMakeFiles/light_switch_client_nrf52832_xxAA_s132_6.1.1.dir/__/__/__/mesh/core/src/timer.c.obj
                0x0002b6cc                timer_start
 .text.timer_stop
                0x0002b778       0x30 examples/light_switch/client/CMakeFiles/light_switch_client_nrf52832_xxAA_s132_6.1.1.dir/__/__/__/mesh/core/src/timer.c.obj
                0x0002b778                timer_stop
 .text.sd_rand_application_bytes_available_get
                0x0002b7a8        0x4 examples/light_switch/client/CMakeFiles/light_switch_client_nrf52832_xxAA_s132_6.1.1.dir/__/__/__/mesh/core/src/rand.c.obj
 .text.sd_rand_application_vector_get
                0x0002b7ac        0x4 examples/light_switch/client/CMakeFiles/light_switch_client_nrf52832_xxAA_s132_6.1.1.dir/__/__/__/mesh/core/src/rand.c.obj
 .text.rand_prng_get
                0x0002b7b0       0x24 examples/light_switch/client/CMakeFiles/light_switch_client_nrf52832_xxAA_s132_6.1.1.dir/__/__/__/mesh/core/src/rand.c.obj
                0x0002b7b0                rand_prng_get
 .text.rand_hw_rng_get
                0x0002b7d4       0x44 examples/light_switch/client/CMakeFiles/light_switch_client_nrf52832_xxAA_s132_6.1.1.dir/__/__/__/mesh/core/src/rand.c.obj
                0x0002b7d4                rand_hw_rng_get
 .text.rand_prng_seed
                0x0002b818       0x34 examples/light_switch/client/CMakeFiles/light_switch_client_nrf52832_xxAA_s132_6.1.1.dir/__/__/__/mesh/core/src/rand.c.obj
                0x0002b818                rand_prng_seed
 .text.mesh_opt_init
                0x0002b84c        0x2 examples/light_switch/client/CMakeFiles/light_switch_client_nrf52832_xxAA_s132_6.1.1.dir/__/__/__/mesh/core/src/mesh_opt.c.obj
                0x0002b84c                mesh_opt_init
 .text.sd_radio_session_open
                0x0002b84e        0x4 examples/light_switch/client/CMakeFiles/light_switch_client_nrf52832_xxAA_s132_6.1.1.dir/__/__/__/mesh/core/src/timeslot.c.obj
 .text.sd_radio_session_close
                0x0002b852        0x4 examples/light_switch/client/CMakeFiles/light_switch_client_nrf52832_xxAA_s132_6.1.1.dir/__/__/__/mesh/core/src/timeslot.c.obj
 .text.sd_radio_request
                0x0002b856        0x4 examples/light_switch/client/CMakeFiles/light_switch_client_nrf52832_xxAA_s132_6.1.1.dir/__/__/__/mesh/core/src/timeslot.c.obj
 *fill*         0x0002b85a        0x2 
 .text.end_timer_handler
                0x0002b85c       0x24 examples/light_switch/client/CMakeFiles/light_switch_client_nrf52832_xxAA_s132_6.1.1.dir/__/__/__/mesh/core/src/timeslot.c.obj
 .text.get_end_time.isra.3
                0x0002b880       0x20 examples/light_switch/client/CMakeFiles/light_switch_client_nrf52832_xxAA_s132_6.1.1.dir/__/__/__/mesh/core/src/timeslot.c.obj
 .text.on_ts_begin.constprop.9
                0x0002b8a0       0x48 examples/light_switch/client/CMakeFiles/light_switch_client_nrf52832_xxAA_s132_6.1.1.dir/__/__/__/mesh/core/src/timeslot.c.obj
 .text.handle_extend_end.constprop.5
                0x0002b8e8       0x88 examples/light_switch/client/CMakeFiles/light_switch_client_nrf52832_xxAA_s132_6.1.1.dir/__/__/__/mesh/core/src/timeslot.c.obj
 .text.radio_signal_callback
                0x0002b970      0x12c examples/light_switch/client/CMakeFiles/light_switch_client_nrf52832_xxAA_s132_6.1.1.dir/__/__/__/mesh/core/src/timeslot.c.obj
 .text.timeslot_sd_event_handler
                0x0002ba9c       0x60 examples/light_switch/client/CMakeFiles/light_switch_client_nrf52832_xxAA_s132_6.1.1.dir/__/__/__/mesh/core/src/timeslot.c.obj
                0x0002ba9c                timeslot_sd_event_handler
 .text.timeslot_init
                0x0002bafc       0x50 examples/light_switch/client/CMakeFiles/light_switch_client_nrf52832_xxAA_s132_6.1.1.dir/__/__/__/mesh/core/src/timeslot.c.obj
                0x0002bafc                timeslot_init
 .text.timeslot_start
                0x0002bb4c       0x48 examples/light_switch/client/CMakeFiles/light_switch_client_nrf52832_xxAA_s132_6.1.1.dir/__/__/__/mesh/core/src/timeslot.c.obj
                0x0002bb4c                timeslot_start
 .text.timeslot_end_is_pending
                0x0002bb94       0x28 examples/light_switch/client/CMakeFiles/light_switch_client_nrf52832_xxAA_s132_6.1.1.dir/__/__/__/mesh/core/src/timeslot.c.obj
                0x0002bb94                timeslot_end_is_pending
 .text.timeslot_length_get
                0x0002bbbc        0xc examples/light_switch/client/CMakeFiles/light_switch_client_nrf52832_xxAA_s132_6.1.1.dir/__/__/__/mesh/core/src/timeslot.c.obj
                0x0002bbbc                timeslot_length_get
 .text.timeslot_remaining_time_get
                0x0002bbc8       0x24 examples/light_switch/client/CMakeFiles/light_switch_client_nrf52832_xxAA_s132_6.1.1.dir/__/__/__/mesh/core/src/timeslot.c.obj
                0x0002bbc8                timeslot_remaining_time_get
 .text.timeslot_is_in_ts
                0x0002bbec        0xc examples/light_switch/client/CMakeFiles/light_switch_client_nrf52832_xxAA_s132_6.1.1.dir/__/__/__/mesh/core/src/timeslot.c.obj
                0x0002bbec                timeslot_is_in_ts
 .text.timeslot_is_in_cb
                0x0002bbf8        0xc examples/light_switch/client/CMakeFiles/light_switch_client_nrf52832_xxAA_s132_6.1.1.dir/__/__/__/mesh/core/src/timeslot.c.obj
                0x0002bbf8                timeslot_is_in_cb
 .text.timeslot_session_is_active
                0x0002bc04       0x10 examples/light_switch/client/CMakeFiles/light_switch_client_nrf52832_xxAA_s132_6.1.1.dir/__/__/__/mesh/core/src/timeslot.c.obj
                0x0002bc04                timeslot_session_is_active
 .text.timeslot_trigger
                0x0002bc14       0x24 examples/light_switch/client/CMakeFiles/light_switch_client_nrf52832_xxAA_s132_6.1.1.dir/__/__/__/mesh/core/src/timeslot.c.obj
                0x0002bc14                timeslot_trigger
 .text.timeslot_stop
                0x0002bc38       0x1c examples/light_switch/client/CMakeFiles/light_switch_client_nrf52832_xxAA_s132_6.1.1.dir/__/__/__/mesh/core/src/timeslot.c.obj
                0x0002bc38                timeslot_stop
 .text.timeslot_restart
                0x0002bc54       0x24 examples/light_switch/client/CMakeFiles/light_switch_client_nrf52832_xxAA_s132_6.1.1.dir/__/__/__/mesh/core/src/timeslot.c.obj
                0x0002bc54                timeslot_restart
 .text.timeslot_state_lock
                0x0002bc78       0x24 examples/light_switch/client/CMakeFiles/light_switch_client_nrf52832_xxAA_s132_6.1.1.dir/__/__/__/mesh/core/src/timeslot.c.obj
                0x0002bc78                timeslot_state_lock
 .text.timer_mut_unlock
                0x0002bc9c       0x10 examples/light_switch/client/CMakeFiles/light_switch_client_nrf52832_xxAA_s132_6.1.1.dir/__/__/__/mesh/core/src/timeslot_timer.c.obj
 .text.ts_timer_order_cb
                0x0002bcac       0x64 examples/light_switch/client/CMakeFiles/light_switch_client_nrf52832_xxAA_s132_6.1.1.dir/__/__/__/mesh/core/src/timeslot_timer.c.obj
                0x0002bcac                ts_timer_order_cb
 .text.ts_timer_now
                0x0002bd10       0x40 examples/light_switch/client/CMakeFiles/light_switch_client_nrf52832_xxAA_s132_6.1.1.dir/__/__/__/mesh/core/src/timeslot_timer.c.obj
                0x0002bd10                ts_timer_now
 .text.ts_timer_event_handler
                0x0002bd50       0x68 examples/light_switch/client/CMakeFiles/light_switch_client_nrf52832_xxAA_s132_6.1.1.dir/__/__/__/mesh/core/src/timeslot_timer.c.obj
                0x0002bd50                ts_timer_event_handler
 .text.ts_timer_to_device_time
                0x0002bdb8        0xc examples/light_switch/client/CMakeFiles/light_switch_client_nrf52832_xxAA_s132_6.1.1.dir/__/__/__/mesh/core/src/timeslot_timer.c.obj
                0x0002bdb8                ts_timer_to_device_time
 .text.ts_timer_on_ts_begin
                0x0002bdc4       0x64 examples/light_switch/client/CMakeFiles/light_switch_client_nrf52832_xxAA_s132_6.1.1.dir/__/__/__/mesh/core/src/timeslot_timer.c.obj
                0x0002bdc4                ts_timer_on_ts_begin
 .text.ts_timer_on_ts_end
                0x0002be28       0x48 examples/light_switch/client/CMakeFiles/light_switch_client_nrf52832_xxAA_s132_6.1.1.dir/__/__/__/mesh/core/src/timeslot_timer.c.obj
                0x0002be28                ts_timer_on_ts_end
 .text.trigger_event_handler
                0x0002be70       0x1c examples/light_switch/client/CMakeFiles/light_switch_client_nrf52832_xxAA_s132_6.1.1.dir/__/__/__/mesh/core/src/bearer_event.c.obj
 .text.bearer_event_init
                0x0002be8c       0x58 examples/light_switch/client/CMakeFiles/light_switch_client_nrf52832_xxAA_s132_6.1.1.dir/__/__/__/mesh/core/src/bearer_event.c.obj
                0x0002be8c                bearer_event_init
 .text.bearer_event_start
                0x0002bee4       0x44 examples/light_switch/client/CMakeFiles/light_switch_client_nrf52832_xxAA_s132_6.1.1.dir/__/__/__/mesh/core/src/bearer_event.c.obj
                0x0002bee4                bearer_event_start
 .text.bearer_event_critical_section_begin
                0x0002bf28       0x80 examples/light_switch/client/CMakeFiles/light_switch_client_nrf52832_xxAA_s132_6.1.1.dir/__/__/__/mesh/core/src/bearer_event.c.obj
                0x0002bf28                bearer_event_critical_section_begin
 .text.bearer_event_critical_section_end
                0x0002bfa8       0x60 examples/light_switch/client/CMakeFiles/light_switch_client_nrf52832_xxAA_s132_6.1.1.dir/__/__/__/mesh/core/src/bearer_event.c.obj
                0x0002bfa8                bearer_event_critical_section_end
 .text.bearer_event_flag_add
                0x0002c008       0x3c examples/light_switch/client/CMakeFiles/light_switch_client_nrf52832_xxAA_s132_6.1.1.dir/__/__/__/mesh/core/src/bearer_event.c.obj
                0x0002c008                bearer_event_flag_add
 .text.bearer_event_flag_set
                0x0002c044       0x44 examples/light_switch/client/CMakeFiles/light_switch_client_nrf52832_xxAA_s132_6.1.1.dir/__/__/__/mesh/core/src/bearer_event.c.obj
                0x0002c044                bearer_event_flag_set
 .text.bearer_event_sequential_add
                0x0002c088       0x2e examples/light_switch/client/CMakeFiles/light_switch_client_nrf52832_xxAA_s132_6.1.1.dir/__/__/__/mesh/core/src/bearer_event.c.obj
                0x0002c088                bearer_event_sequential_add
 *fill*         0x0002c0b6        0x2 
 .text.bearer_event_sequential_post
                0x0002c0b8       0x44 examples/light_switch/client/CMakeFiles/light_switch_client_nrf52832_xxAA_s132_6.1.1.dir/__/__/__/mesh/core/src/bearer_event.c.obj
                0x0002c0b8                bearer_event_sequential_post
 .text.bearer_event_sequential_pending
                0x0002c0fc       0x10 examples/light_switch/client/CMakeFiles/light_switch_client_nrf52832_xxAA_s132_6.1.1.dir/__/__/__/mesh/core/src/bearer_event.c.obj
                0x0002c0fc                bearer_event_sequential_pending
 .text.bearer_event_handler
                0x0002c10c       0xe4 examples/light_switch/client/CMakeFiles/light_switch_client_nrf52832_xxAA_s132_6.1.1.dir/__/__/__/mesh/core/src/bearer_event.c.obj
                0x0002c10c                bearer_event_handler
 .text.QDEC_IRQHandler
                0x0002c1f0        0x4 examples/light_switch/client/CMakeFiles/light_switch_client_nrf52832_xxAA_s132_6.1.1.dir/__/__/__/mesh/core/src/bearer_event.c.obj
                0x0002c1f0                QDEC_IRQHandler
 .text.bearer_event_in_correct_irq_priority
                0x0002c1f4       0x74 examples/light_switch/client/CMakeFiles/light_switch_client_nrf52832_xxAA_s132_6.1.1.dir/__/__/__/mesh/core/src/bearer_event.c.obj
                0x0002c1f4                bearer_event_in_correct_irq_priority
 .text.sd_ecb_block_encrypt
                0x0002c268        0x4 examples/light_switch/client/CMakeFiles/light_switch_client_nrf52832_xxAA_s132_6.1.1.dir/__/__/__/mesh/core/src/enc.c.obj
 .text.enc_aes_encrypt
                0x0002c26c       0x32 examples/light_switch/client/CMakeFiles/light_switch_client_nrf52832_xxAA_s132_6.1.1.dir/__/__/__/mesh/core/src/enc.c.obj
                0x0002c26c                enc_aes_encrypt
 .text.enc_aes_cmac
                0x0002c29e        0x4 examples/light_switch/client/CMakeFiles/light_switch_client_nrf52832_xxAA_s132_6.1.1.dir/__/__/__/mesh/core/src/enc.c.obj
                0x0002c29e                enc_aes_cmac
 .text.enc_aes_ccm_encrypt
                0x0002c2a2        0x4 examples/light_switch/client/CMakeFiles/light_switch_client_nrf52832_xxAA_s132_6.1.1.dir/__/__/__/mesh/core/src/enc.c.obj
                0x0002c2a2                enc_aes_ccm_encrypt
 .text.enc_aes_ccm_decrypt
                0x0002c2a6        0x4 examples/light_switch/client/CMakeFiles/light_switch_client_nrf52832_xxAA_s132_6.1.1.dir/__/__/__/mesh/core/src/enc.c.obj
                0x0002c2a6                enc_aes_ccm_decrypt
 .text.enc_nonce_generate
                0x0002c2aa       0xbc examples/light_switch/client/CMakeFiles/light_switch_client_nrf52832_xxAA_s132_6.1.1.dir/__/__/__/mesh/core/src/enc.c.obj
                0x0002c2aa                enc_nonce_generate
 .text.enc_s1   0x0002c366       0x2c examples/light_switch/client/CMakeFiles/light_switch_client_nrf52832_xxAA_s132_6.1.1.dir/__/__/__/mesh/core/src/enc.c.obj
                0x0002c366                enc_s1
 .text.enc_k1   0x0002c392       0x3c examples/light_switch/client/CMakeFiles/light_switch_client_nrf52832_xxAA_s132_6.1.1.dir/__/__/__/mesh/core/src/enc.c.obj
                0x0002c392                enc_k1
 *fill*         0x0002c3ce        0x2 
 .text.enc_k2   0x0002c3d0       0xc0 examples/light_switch/client/CMakeFiles/light_switch_client_nrf52832_xxAA_s132_6.1.1.dir/__/__/__/mesh/core/src/enc.c.obj
                0x0002c3d0                enc_k2
 .text.enc_k3   0x0002c490       0x5c examples/light_switch/client/CMakeFiles/light_switch_client_nrf52832_xxAA_s132_6.1.1.dir/__/__/__/mesh/core/src/enc.c.obj
                0x0002c490                enc_k3
 .text.enc_k4   0x0002c4ec       0x54 examples/light_switch/client/CMakeFiles/light_switch_client_nrf52832_xxAA_s132_6.1.1.dir/__/__/__/mesh/core/src/enc.c.obj
                0x0002c4ec                enc_k4
 .text.allocate_packet
                0x0002c540       0x6e examples/light_switch/client/CMakeFiles/light_switch_client_nrf52832_xxAA_s132_6.1.1.dir/__/__/__/mesh/core/src/network.c.obj
 *fill*         0x0002c5ae        0x2 
 .text.network_init
                0x0002c5b0       0x24 examples/light_switch/client/CMakeFiles/light_switch_client_nrf52832_xxAA_s132_6.1.1.dir/__/__/__/mesh/core/src/network.c.obj
                0x0002c5b0                network_init
 .text.network_enable
                0x0002c5d4        0xe examples/light_switch/client/CMakeFiles/light_switch_client_nrf52832_xxAA_s132_6.1.1.dir/__/__/__/mesh/core/src/network.c.obj
                0x0002c5d4                network_enable
 .text.network_packet_alloc
                0x0002c5e2       0x42 examples/light_switch/client/CMakeFiles/light_switch_client_nrf52832_xxAA_s132_6.1.1.dir/__/__/__/mesh/core/src/network.c.obj
                0x0002c5e2                network_packet_alloc
 .text.network_packet_send
                0x0002c624       0xe0 examples/light_switch/client/CMakeFiles/light_switch_client_nrf52832_xxAA_s132_6.1.1.dir/__/__/__/mesh/core/src/network.c.obj
                0x0002c624                network_packet_send
 .text.network_packet_in
                0x0002c704      0x2dc examples/light_switch/client/CMakeFiles/light_switch_client_nrf52832_xxAA_s132_6.1.1.dir/__/__/__/mesh/core/src/network.c.obj
                0x0002c704                network_packet_in
 .text.nonce_type_get
                0x0002c9e0       0x16 examples/light_switch/client/CMakeFiles/light_switch_client_nrf52832_xxAA_s132_6.1.1.dir/__/__/__/mesh/core/src/net_packet.c.obj
 .text.header_transfuscate
                0x0002c9f6       0x54 examples/light_switch/client/CMakeFiles/light_switch_client_nrf52832_xxAA_s132_6.1.1.dir/__/__/__/mesh/core/src/net_packet.c.obj
 *fill*         0x0002ca4a        0x2 
 .text.try_decrypt
                0x0002ca4c      0x18c examples/light_switch/client/CMakeFiles/light_switch_client_nrf52832_xxAA_s132_6.1.1.dir/__/__/__/mesh/core/src/net_packet.c.obj
 .text.net_packet_decrypt
                0x0002cbd8       0x94 examples/light_switch/client/CMakeFiles/light_switch_client_nrf52832_xxAA_s132_6.1.1.dir/__/__/__/mesh/core/src/net_packet.c.obj
                0x0002cbd8                net_packet_decrypt
 .text.net_packet_encrypt
                0x0002cc6c       0x7e examples/light_switch/client/CMakeFiles/light_switch_client_nrf52832_xxAA_s132_6.1.1.dir/__/__/__/mesh/core/src/net_packet.c.obj
                0x0002cc6c                net_packet_encrypt
 .text.net_packet_header_set
                0x0002ccea       0xaa examples/light_switch/client/CMakeFiles/light_switch_client_nrf52832_xxAA_s132_6.1.1.dir/__/__/__/mesh/core/src/net_packet.c.obj
                0x0002ccea                net_packet_header_set
 .text.net_packet_payload_len_get
                0x0002cd94       0x10 examples/light_switch/client/CMakeFiles/light_switch_client_nrf52832_xxAA_s132_6.1.1.dir/__/__/__/mesh/core/src/net_packet.c.obj
                0x0002cd94                net_packet_payload_len_get
 .text.net_packet_from_payload
                0x0002cda4        0x4 examples/light_switch/client/CMakeFiles/light_switch_client_nrf52832_xxAA_s132_6.1.1.dir/__/__/__/mesh/core/src/net_packet.c.obj
                0x0002cda4                net_packet_from_payload
 .text.net_packet_payload_get
                0x0002cda8        0x4 examples/light_switch/client/CMakeFiles/light_switch_client_nrf52832_xxAA_s132_6.1.1.dir/__/__/__/mesh/core/src/net_packet.c.obj
                0x0002cda8                net_packet_payload_get
 .text.net_packet_obfuscation_start_get
                0x0002cdac        0x4 examples/light_switch/client/CMakeFiles/light_switch_client_nrf52832_xxAA_s132_6.1.1.dir/__/__/__/mesh/core/src/net_packet.c.obj
                0x0002cdac                net_packet_obfuscation_start_get
 .text.stage_get_available
                0x0002cdb0       0x24 examples/light_switch/client/CMakeFiles/light_switch_client_nrf52832_xxAA_s132_6.1.1.dir/__/__/__/mesh/core/src/msqueue.c.obj
 .text.msq_get  0x0002cdd4       0x38 examples/light_switch/client/CMakeFiles/light_switch_client_nrf52832_xxAA_s132_6.1.1.dir/__/__/__/mesh/core/src/msqueue.c.obj
                0x0002cdd4                msq_get
 .text.msq_move
                0x0002ce0c       0x2e examples/light_switch/client/CMakeFiles/light_switch_client_nrf52832_xxAA_s132_6.1.1.dir/__/__/__/mesh/core/src/msqueue.c.obj
                0x0002ce0c                msq_move
 .text.msq_reset
                0x0002ce3a       0x20 examples/light_switch/client/CMakeFiles/light_switch_client_nrf52832_xxAA_s132_6.1.1.dir/__/__/__/mesh/core/src/msqueue.c.obj
                0x0002ce3a                msq_reset
 .text.msq_init
                0x0002ce5a       0x48 examples/light_switch/client/CMakeFiles/light_switch_client_nrf52832_xxAA_s132_6.1.1.dir/__/__/__/mesh/core/src/msqueue.c.obj
                0x0002ce5a                msq_init
 .text.msq_available
                0x0002cea2       0x26 examples/light_switch/client/CMakeFiles/light_switch_client_nrf52832_xxAA_s132_6.1.1.dir/__/__/__/mesh/core/src/msqueue.c.obj
                0x0002cea2                msq_available
 .text.nrf_mesh_keygen_aid
                0x0002cec8       0x12 examples/light_switch/client/CMakeFiles/light_switch_client_nrf52832_xxAA_s132_6.1.1.dir/__/__/__/mesh/core/src/nrf_mesh_keygen.c.obj
                0x0002cec8                nrf_mesh_keygen_aid
 .text.nrf_mesh_keygen_network_secmat
                0x0002ceda       0x20 examples/light_switch/client/CMakeFiles/light_switch_client_nrf52832_xxAA_s132_6.1.1.dir/__/__/__/mesh/core/src/nrf_mesh_keygen.c.obj
                0x0002ceda                nrf_mesh_keygen_network_secmat
 *fill*         0x0002cefa        0x2 
 .text.nrf_mesh_keygen_beacon_secmat
                0x0002cefc       0x50 examples/light_switch/client/CMakeFiles/light_switch_client_nrf52832_xxAA_s132_6.1.1.dir/__/__/__/mesh/core/src/nrf_mesh_keygen.c.obj
                0x0002cefc                nrf_mesh_keygen_beacon_secmat
 .text.nrf_mesh_keygen_identitykey
                0x0002cf4c       0x4c examples/light_switch/client/CMakeFiles/light_switch_client_nrf52832_xxAA_s132_6.1.1.dir/__/__/__/mesh/core/src/nrf_mesh_keygen.c.obj
                0x0002cf4c                nrf_mesh_keygen_identitykey
 .text.nrf_mesh_keygen_virtual_address
                0x0002cf98       0x50 examples/light_switch/client/CMakeFiles/light_switch_client_nrf52832_xxAA_s132_6.1.1.dir/__/__/__/mesh/core/src/nrf_mesh_keygen.c.obj
                0x0002cf98                nrf_mesh_keygen_virtual_address
 .text.erase_at
                0x0002cfe8       0x14 examples/light_switch/client/CMakeFiles/light_switch_client_nrf52832_xxAA_s132_6.1.1.dir/__/__/__/mesh/core/src/cache.c.obj
 .text.cache_init
                0x0002cffc       0x1e examples/light_switch/client/CMakeFiles/light_switch_client_nrf52832_xxAA_s132_6.1.1.dir/__/__/__/mesh/core/src/cache.c.obj
                0x0002cffc                cache_init
 .text.cache_has_elem
                0x0002d01a       0x40 examples/light_switch/client/CMakeFiles/light_switch_client_nrf52832_xxAA_s132_6.1.1.dir/__/__/__/mesh/core/src/cache.c.obj
                0x0002d01a                cache_has_elem
 .text.cache_put
                0x0002d05a       0x30 examples/light_switch/client/CMakeFiles/light_switch_client_nrf52832_xxAA_s132_6.1.1.dir/__/__/__/mesh/core/src/cache.c.obj
                0x0002d05a                cache_put
 .text.list_insert
                0x0002d08a       0x1c examples/light_switch/client/CMakeFiles/light_switch_client_nrf52832_xxAA_s132_6.1.1.dir/__/__/__/mesh/core/src/list.c.obj
 .text.list_add
                0x0002d0a6       0x42 examples/light_switch/client/CMakeFiles/light_switch_client_nrf52832_xxAA_s132_6.1.1.dir/__/__/__/mesh/core/src/list.c.obj
                0x0002d0a6                list_add
 .text.list_remove
                0x0002d0e8       0x3a examples/light_switch/client/CMakeFiles/light_switch_client_nrf52832_xxAA_s132_6.1.1.dir/__/__/__/mesh/core/src/list.c.obj
                0x0002d0e8                list_remove
 .text.list_compare_add
                0x0002d122       0x56 examples/light_switch/client/CMakeFiles/light_switch_client_nrf52832_xxAA_s132_6.1.1.dir/__/__/__/mesh/core/src/list.c.obj
                0x0002d122                list_compare_add
 .text.log_callback_rtt
                0x0002d178       0x2c examples/light_switch/client/CMakeFiles/light_switch_client_nrf52832_xxAA_s132_6.1.1.dir/__/__/__/mesh/core/src/log.c.obj
                0x0002d178                log_callback_rtt
 .text.log_init
                0x0002d1a4       0x1c examples/light_switch/client/CMakeFiles/light_switch_client_nrf52832_xxAA_s132_6.1.1.dir/__/__/__/mesh/core/src/log.c.obj
                0x0002d1a4                log_init
 .text.log_vprintf
                0x0002d1c0       0x1c examples/light_switch/client/CMakeFiles/light_switch_client_nrf52832_xxAA_s132_6.1.1.dir/__/__/__/mesh/core/src/log.c.obj
                0x0002d1c0                log_vprintf
 .text.log_printf
                0x0002d1dc       0x18 examples/light_switch/client/CMakeFiles/light_switch_client_nrf52832_xxAA_s132_6.1.1.dir/__/__/__/mesh/core/src/log.c.obj
                0x0002d1dc                log_printf
 .text.get_area_end
                0x0002d1f4        0xc examples/light_switch/client/CMakeFiles/light_switch_client_nrf52832_xxAA_s132_6.1.1.dir/__/__/__/mesh/core/src/flash_manager.c.obj
 .text.handle_matches_filter
                0x0002d200       0x26 examples/light_switch/client/CMakeFiles/light_switch_client_nrf52832_xxAA_s132_6.1.1.dir/__/__/__/mesh/core/src/flash_manager.c.obj
 .text.flash_area_is_blank
                0x0002d226       0x2c examples/light_switch/client/CMakeFiles/light_switch_client_nrf52832_xxAA_s132_6.1.1.dir/__/__/__/mesh/core/src/flash_manager.c.obj
 *fill*         0x0002d252        0x2 
 .text.get_packet_buffer
                0x0002d254       0x20 examples/light_switch/client/CMakeFiles/light_switch_client_nrf52832_xxAA_s132_6.1.1.dir/__/__/__/mesh/core/src/flash_manager.c.obj
 .text.flash    0x0002d274       0x1c examples/light_switch/client/CMakeFiles/light_switch_client_nrf52832_xxAA_s132_6.1.1.dir/__/__/__/mesh/core/src/flash_manager.c.obj
 .text.free_packet_buffer
                0x0002d290       0x3c examples/light_switch/client/CMakeFiles/light_switch_client_nrf52832_xxAA_s132_6.1.1.dir/__/__/__/mesh/core/src/flash_manager.c.obj
 .text.iterate_callback_entry_copy
                0x0002d2cc       0x38 examples/light_switch/client/CMakeFiles/light_switch_client_nrf52832_xxAA_s132_6.1.1.dir/__/__/__/mesh/core/src/flash_manager.c.obj
 .text.reserve_action_buffer
                0x0002d304       0x24 examples/light_switch/client/CMakeFiles/light_switch_client_nrf52832_xxAA_s132_6.1.1.dir/__/__/__/mesh/core/src/flash_manager.c.obj
 .text.commit_action_buffer
                0x0002d328       0x18 examples/light_switch/client/CMakeFiles/light_switch_client_nrf52832_xxAA_s132_6.1.1.dir/__/__/__/mesh/core/src/flash_manager.c.obj
 .text.schedule_processing
                0x0002d340        0xc examples/light_switch/client/CMakeFiles/light_switch_client_nrf52832_xxAA_s132_6.1.1.dir/__/__/__/mesh/core/src/flash_manager.c.obj
 .text.get_next_entry
                0x0002d34c       0x34 examples/light_switch/client/CMakeFiles/light_switch_client_nrf52832_xxAA_s132_6.1.1.dir/__/__/__/mesh/core/src/flash_manager.c.obj
 .text.get_last_entry.isra.1
                0x0002d380       0x30 examples/light_switch/client/CMakeFiles/light_switch_client_nrf52832_xxAA_s132_6.1.1.dir/__/__/__/mesh/core/src/flash_manager.c.obj
 .text.process_action_queue
                0x0002d3b0      0x3fc examples/light_switch/client/CMakeFiles/light_switch_client_nrf52832_xxAA_s132_6.1.1.dir/__/__/__/mesh/core/src/flash_manager.c.obj
 .text.flash_op_ended_callback
                0x0002d7ac       0x24 examples/light_switch/client/CMakeFiles/light_switch_client_nrf52832_xxAA_s132_6.1.1.dir/__/__/__/mesh/core/src/flash_manager.c.obj
 .text.flash_manager_init
                0x0002d7d0       0x68 examples/light_switch/client/CMakeFiles/light_switch_client_nrf52832_xxAA_s132_6.1.1.dir/__/__/__/mesh/core/src/flash_manager.c.obj
                0x0002d7d0                flash_manager_init
 .text.flash_manager_remove
                0x0002d838       0x24 examples/light_switch/client/CMakeFiles/light_switch_client_nrf52832_xxAA_s132_6.1.1.dir/__/__/__/mesh/core/src/flash_manager.c.obj
                0x0002d838                flash_manager_remove
 .text.flash_manager_entries_read
                0x0002d85c       0xea examples/light_switch/client/CMakeFiles/light_switch_client_nrf52832_xxAA_s132_6.1.1.dir/__/__/__/mesh/core/src/flash_manager.c.obj
                0x0002d85c                flash_manager_entries_read
 *fill*         0x0002d946        0x2 
 .text.flash_manager_entry_read
                0x0002d948       0x50 examples/light_switch/client/CMakeFiles/light_switch_client_nrf52832_xxAA_s132_6.1.1.dir/__/__/__/mesh/core/src/flash_manager.c.obj
                0x0002d948                flash_manager_entry_read
 .text.flash_manager_entry_count_get
                0x0002d998       0x1e examples/light_switch/client/CMakeFiles/light_switch_client_nrf52832_xxAA_s132_6.1.1.dir/__/__/__/mesh/core/src/flash_manager.c.obj
                0x0002d998                flash_manager_entry_count_get
 .text.flash_manager_entry_alloc
                0x0002d9b6       0x5c examples/light_switch/client/CMakeFiles/light_switch_client_nrf52832_xxAA_s132_6.1.1.dir/__/__/__/mesh/core/src/flash_manager.c.obj
                0x0002d9b6                flash_manager_entry_alloc
 *fill*         0x0002da12        0x2 
 .text.flash_manager_entry_commit
                0x0002da14       0x2c examples/light_switch/client/CMakeFiles/light_switch_client_nrf52832_xxAA_s132_6.1.1.dir/__/__/__/mesh/core/src/flash_manager.c.obj
                0x0002da14                flash_manager_entry_commit
 .text.flash_manager_entry_invalidate
                0x0002da40       0x4e examples/light_switch/client/CMakeFiles/light_switch_client_nrf52832_xxAA_s132_6.1.1.dir/__/__/__/mesh/core/src/flash_manager.c.obj
                0x0002da40                flash_manager_entry_invalidate
 *fill*         0x0002da8e        0x2 
 .text.flash_manager_add
                0x0002da90      0x220 examples/light_switch/client/CMakeFiles/light_switch_client_nrf52832_xxAA_s132_6.1.1.dir/__/__/__/mesh/core/src/flash_manager.c.obj
                0x0002da90                flash_manager_add
 .text.flash_manager_mem_listener_register
                0x0002dcb0       0x30 examples/light_switch/client/CMakeFiles/light_switch_client_nrf52832_xxAA_s132_6.1.1.dir/__/__/__/mesh/core/src/flash_manager.c.obj
                0x0002dcb0                flash_manager_mem_listener_register
 .text.flash_manager_is_stable
                0x0002dce0       0x20 examples/light_switch/client/CMakeFiles/light_switch_client_nrf52832_xxAA_s132_6.1.1.dir/__/__/__/mesh/core/src/flash_manager.c.obj
                0x0002dce0                flash_manager_is_stable
 .text.flash_manager_on_defrag_end
                0x0002dd00       0x4c examples/light_switch/client/CMakeFiles/light_switch_client_nrf52832_xxAA_s132_6.1.1.dir/__/__/__/mesh/core/src/flash_manager.c.obj
                0x0002dd00                flash_manager_on_defrag_end
 .text.flash_manager_recovery_page_get
                0x0002dd4c        0x4 examples/light_switch/client/CMakeFiles/light_switch_client_nrf52832_xxAA_s132_6.1.1.dir/__/__/__/mesh/core/src/flash_manager.c.obj
                0x0002dd4c                flash_manager_recovery_page_get
 .text.flash_manager_action_queue_empty_cb_set
                0x0002dd50       0x1c examples/light_switch/client/CMakeFiles/light_switch_client_nrf52832_xxAA_s132_6.1.1.dir/__/__/__/mesh/core/src/flash_manager.c.obj
                0x0002dd50                flash_manager_action_queue_empty_cb_set
 .text.utils_xor
                0x0002dd6c       0x14 examples/light_switch/client/CMakeFiles/light_switch_client_nrf52832_xxAA_s132_6.1.1.dir/__/__/__/mesh/core/src/ccm_soft.c.obj
 .text.sd_ecb_block_encrypt
                0x0002dd80        0x4 examples/light_switch/client/CMakeFiles/light_switch_client_nrf52832_xxAA_s132_6.1.1.dir/__/__/__/mesh/core/src/ccm_soft.c.obj
 .text.ccm_soft_crypt
                0x0002dd84       0x4c examples/light_switch/client/CMakeFiles/light_switch_client_nrf52832_xxAA_s132_6.1.1.dir/__/__/__/mesh/core/src/ccm_soft.c.obj
 .text.ccm_soft_authenticate_blocks
                0x0002ddd0       0x6c examples/light_switch/client/CMakeFiles/light_switch_client_nrf52832_xxAA_s132_6.1.1.dir/__/__/__/mesh/core/src/ccm_soft.c.obj
 .text.ccm_soft_authenticate
                0x0002de3c       0x94 examples/light_switch/client/CMakeFiles/light_switch_client_nrf52832_xxAA_s132_6.1.1.dir/__/__/__/mesh/core/src/ccm_soft.c.obj
 .text.ccm_soft_encrypt
                0x0002ded0       0x54 examples/light_switch/client/CMakeFiles/light_switch_client_nrf52832_xxAA_s132_6.1.1.dir/__/__/__/mesh/core/src/ccm_soft.c.obj
                0x0002ded0                ccm_soft_encrypt
 .text.ccm_soft_decrypt
                0x0002df24       0x9c examples/light_switch/client/CMakeFiles/light_switch_client_nrf52832_xxAA_s132_6.1.1.dir/__/__/__/mesh/core/src/ccm_soft.c.obj
                0x0002df24                ccm_soft_decrypt
 .text.iv_index_get.isra.0
                0x0002dfc0       0x34 examples/light_switch/client/CMakeFiles/light_switch_client_nrf52832_xxAA_s132_6.1.1.dir/__/__/__/mesh/core/src/replay_cache.c.obj
 .text.evt_handler
                0x0002dff4       0x60 examples/light_switch/client/CMakeFiles/light_switch_client_nrf52832_xxAA_s132_6.1.1.dir/__/__/__/mesh/core/src/replay_cache.c.obj
 .text.replay_cache_enable
                0x0002e054       0x10 examples/light_switch/client/CMakeFiles/light_switch_client_nrf52832_xxAA_s132_6.1.1.dir/__/__/__/mesh/core/src/replay_cache.c.obj
                0x0002e054                replay_cache_enable
 .text.replay_cache_add
                0x0002e064       0x78 examples/light_switch/client/CMakeFiles/light_switch_client_nrf52832_xxAA_s132_6.1.1.dir/__/__/__/mesh/core/src/replay_cache.c.obj
                0x0002e064                replay_cache_add
 .text.replay_cache_has_elem
                0x0002e0dc       0x50 examples/light_switch/client/CMakeFiles/light_switch_client_nrf52832_xxAA_s132_6.1.1.dir/__/__/__/mesh/core/src/replay_cache.c.obj
                0x0002e0dc                replay_cache_has_elem
 .text.replay_cache_clear
                0x0002e12c       0x18 examples/light_switch/client/CMakeFiles/light_switch_client_nrf52832_xxAA_s132_6.1.1.dir/__/__/__/mesh/core/src/replay_cache.c.obj
                0x0002e12c                replay_cache_clear
 .text.replay_cache_init
                0x0002e144       0x14 examples/light_switch/client/CMakeFiles/light_switch_client_nrf52832_xxAA_s132_6.1.1.dir/__/__/__/mesh/core/src/replay_cache.c.obj
                0x0002e144                replay_cache_init
 .text.beacon_create
                0x0002e158       0x46 examples/light_switch/client/CMakeFiles/light_switch_client_nrf52832_xxAA_s132_6.1.1.dir/__/__/__/mesh/core/src/beacon.c.obj
                0x0002e158                beacon_create
 *fill*         0x0002e19e        0x2 
 .text.beacon_packet_in
                0x0002e1a0      0x130 examples/light_switch/client/CMakeFiles/light_switch_client_nrf52832_xxAA_s132_6.1.1.dir/__/__/__/mesh/core/src/beacon.c.obj
                0x0002e1a0                beacon_packet_in
 .text.entry_get
                0x0002e2d0       0x78 examples/light_switch/client/CMakeFiles/light_switch_client_nrf52832_xxAA_s132_6.1.1.dir/__/__/__/mesh/core/src/flash_manager_internal.c.obj
                0x0002e2d0                entry_get
 .text.core_tx_complete_cb_set
                0x0002e348        0xc examples/light_switch/client/CMakeFiles/light_switch_client_nrf52832_xxAA_s132_6.1.1.dir/__/__/__/mesh/core/src/core_tx.c.obj
                0x0002e348                core_tx_complete_cb_set
 .text.core_tx_packet_alloc
                0x0002e354       0xac examples/light_switch/client/CMakeFiles/light_switch_client_nrf52832_xxAA_s132_6.1.1.dir/__/__/__/mesh/core/src/core_tx.c.obj
                0x0002e354                core_tx_packet_alloc
 .text.core_tx_packet_send
                0x0002e400       0x4c examples/light_switch/client/CMakeFiles/light_switch_client_nrf52832_xxAA_s132_6.1.1.dir/__/__/__/mesh/core/src/core_tx.c.obj
                0x0002e400                core_tx_packet_send
 .text.core_tx_packet_discard
                0x0002e44c       0x40 examples/light_switch/client/CMakeFiles/light_switch_client_nrf52832_xxAA_s132_6.1.1.dir/__/__/__/mesh/core/src/core_tx.c.obj
                0x0002e44c                core_tx_packet_discard
 .text.core_tx_complete
                0x0002e48c       0x34 examples/light_switch/client/CMakeFiles/light_switch_client_nrf52832_xxAA_s132_6.1.1.dir/__/__/__/mesh/core/src/core_tx.c.obj
                0x0002e48c                core_tx_complete
 .text.core_tx_bearer_add
                0x0002e4c0       0x74 examples/light_switch/client/CMakeFiles/light_switch_client_nrf52832_xxAA_s132_6.1.1.dir/__/__/__/mesh/core/src/core_tx.c.obj
                0x0002e4c0                core_tx_bearer_add
 .text.hb_pub_deleter
                0x0002e534       0x28 examples/light_switch/client/CMakeFiles/light_switch_client_nrf52832_xxAA_s132_6.1.1.dir/__/__/__/mesh/core/src/heartbeat.c.obj
 .text.hb_pub_getter
                0x0002e55c       0x2c examples/light_switch/client/CMakeFiles/light_switch_client_nrf52832_xxAA_s132_6.1.1.dir/__/__/__/mesh/core/src/heartbeat.c.obj
 .text.hb_pub_setter
                0x0002e588       0xd0 examples/light_switch/client/CMakeFiles/light_switch_client_nrf52832_xxAA_s132_6.1.1.dir/__/__/__/mesh/core/src/heartbeat.c.obj
 .text.heartbeat_subscription_timer_cb
                0x0002e658       0x3c examples/light_switch/client/CMakeFiles/light_switch_client_nrf52832_xxAA_s132_6.1.1.dir/__/__/__/mesh/core/src/heartbeat.c.obj
 .text.heartbeat_opcode_handle
                0x0002e694       0x88 examples/light_switch/client/CMakeFiles/light_switch_client_nrf52832_xxAA_s132_6.1.1.dir/__/__/__/mesh/core/src/heartbeat.c.obj
 .text.heartbeat_publish
                0x0002e71c       0xb8 examples/light_switch/client/CMakeFiles/light_switch_client_nrf52832_xxAA_s132_6.1.1.dir/__/__/__/mesh/core/src/heartbeat.c.obj
 .text.on_feature_update
                0x0002e7d4       0x34 examples/light_switch/client/CMakeFiles/light_switch_client_nrf52832_xxAA_s132_6.1.1.dir/__/__/__/mesh/core/src/heartbeat.c.obj
 .text.heartbeat_relay_listener_cb
                0x0002e808       0x1c examples/light_switch/client/CMakeFiles/light_switch_client_nrf52832_xxAA_s132_6.1.1.dir/__/__/__/mesh/core/src/heartbeat.c.obj
 .text.heartbeat_proxy_listener_cb
                0x0002e824       0x14 examples/light_switch/client/CMakeFiles/light_switch_client_nrf52832_xxAA_s132_6.1.1.dir/__/__/__/mesh/core/src/heartbeat.c.obj
 .text.heartbeat_core_evt_cb
                0x0002e838       0x18 examples/light_switch/client/CMakeFiles/light_switch_client_nrf52832_xxAA_s132_6.1.1.dir/__/__/__/mesh/core/src/heartbeat.c.obj
 .text.heartbeat_publication_timer_cb
                0x0002e850       0x54 examples/light_switch/client/CMakeFiles/light_switch_client_nrf52832_xxAA_s132_6.1.1.dir/__/__/__/mesh/core/src/heartbeat.c.obj
 .text.heartbeat_init
                0x0002e8a4       0x58 examples/light_switch/client/CMakeFiles/light_switch_client_nrf52832_xxAA_s132_6.1.1.dir/__/__/__/mesh/core/src/heartbeat.c.obj
                0x0002e8a4                heartbeat_init
 .text.heartbeat_subscription_set
                0x0002e8fc       0xd0 examples/light_switch/client/CMakeFiles/light_switch_client_nrf52832_xxAA_s132_6.1.1.dir/__/__/__/mesh/core/src/heartbeat.c.obj
                0x0002e8fc                heartbeat_subscription_set
 .text.heartbeat_subscription_get
                0x0002e9cc        0x8 examples/light_switch/client/CMakeFiles/light_switch_client_nrf52832_xxAA_s132_6.1.1.dir/__/__/__/mesh/core/src/heartbeat.c.obj
                0x0002e9cc                heartbeat_subscription_get
 .text.heartbeat_publication_get
                0x0002e9d4        0x8 examples/light_switch/client/CMakeFiles/light_switch_client_nrf52832_xxAA_s132_6.1.1.dir/__/__/__/mesh/core/src/heartbeat.c.obj
                0x0002e9d4                heartbeat_publication_get
 .text.heartbeat_publication_set
                0x0002e9dc       0x18 examples/light_switch/client/CMakeFiles/light_switch_client_nrf52832_xxAA_s132_6.1.1.dir/__/__/__/mesh/core/src/heartbeat.c.obj
                0x0002e9dc                heartbeat_publication_set
 .text.heartbeat_public_info_getter_register
                0x0002e9f4       0x14 examples/light_switch/client/CMakeFiles/light_switch_client_nrf52832_xxAA_s132_6.1.1.dir/__/__/__/mesh/core/src/heartbeat.c.obj
                0x0002e9f4                heartbeat_public_info_getter_register
 .text.beacon_deleter
                0x0002ea08       0x34 examples/light_switch/client/CMakeFiles/light_switch_client_nrf52832_xxAA_s132_6.1.1.dir/__/__/__/mesh/core/src/net_beacon.c.obj
 .text.beacon_getter
                0x0002ea3c       0x24 examples/light_switch/client/CMakeFiles/light_switch_client_nrf52832_xxAA_s132_6.1.1.dir/__/__/__/mesh/core/src/net_beacon.c.obj
 .text.beacon_setter
                0x0002ea60       0x5c examples/light_switch/client/CMakeFiles/light_switch_client_nrf52832_xxAA_s132_6.1.1.dir/__/__/__/mesh/core/src/net_beacon.c.obj
 .text.make_network_beacon_packet
                0x0002eabc       0x50 examples/light_switch/client/CMakeFiles/light_switch_client_nrf52832_xxAA_s132_6.1.1.dir/__/__/__/mesh/core/src/net_beacon.c.obj
 .text.beacon_tx
                0x0002eb0c      0x188 examples/light_switch/client/CMakeFiles/light_switch_client_nrf52832_xxAA_s132_6.1.1.dir/__/__/__/mesh/core/src/net_beacon.c.obj
 .text.tx_complete_cb
                0x0002ec94        0xe examples/light_switch/client/CMakeFiles/light_switch_client_nrf52832_xxAA_s132_6.1.1.dir/__/__/__/mesh/core/src/net_beacon.c.obj
 .text.beacon_tx_timeout
                0x0002eca2        0x4 examples/light_switch/client/CMakeFiles/light_switch_client_nrf52832_xxAA_s132_6.1.1.dir/__/__/__/mesh/core/src/net_beacon.c.obj
 .text.is_valid_beacon_pkt.part.1
                0x0002eca6       0x30 examples/light_switch/client/CMakeFiles/light_switch_client_nrf52832_xxAA_s132_6.1.1.dir/__/__/__/mesh/core/src/net_beacon.c.obj
 *fill*         0x0002ecd6        0x2 
 .text.net_beacon_init
                0x0002ecd8       0x7c examples/light_switch/client/CMakeFiles/light_switch_client_nrf52832_xxAA_s132_6.1.1.dir/__/__/__/mesh/core/src/net_beacon.c.obj
                0x0002ecd8                net_beacon_init
 .text.net_beacon_enable
                0x0002ed54       0x28 examples/light_switch/client/CMakeFiles/light_switch_client_nrf52832_xxAA_s132_6.1.1.dir/__/__/__/mesh/core/src/net_beacon.c.obj
                0x0002ed54                net_beacon_enable
 .text.net_beacon_state_set
                0x0002ed7c       0x20 examples/light_switch/client/CMakeFiles/light_switch_client_nrf52832_xxAA_s132_6.1.1.dir/__/__/__/mesh/core/src/net_beacon.c.obj
                0x0002ed7c                net_beacon_state_set
 .text.net_beacon_state_get
                0x0002ed9c       0x24 examples/light_switch/client/CMakeFiles/light_switch_client_nrf52832_xxAA_s132_6.1.1.dir/__/__/__/mesh/core/src/net_beacon.c.obj
                0x0002ed9c                net_beacon_state_get
 .text.net_beacon_build
                0x0002edc0       0x24 examples/light_switch/client/CMakeFiles/light_switch_client_nrf52832_xxAA_s132_6.1.1.dir/__/__/__/mesh/core/src/net_beacon.c.obj
                0x0002edc0                net_beacon_build
 .text.net_beacon_packet_in
                0x0002ede4      0x16c examples/light_switch/client/CMakeFiles/light_switch_client_nrf52832_xxAA_s132_6.1.1.dir/__/__/__/mesh/core/src/net_beacon.c.obj
                0x0002ede4                net_beacon_packet_in
 .text.listeners_notify
                0x0002ef50       0x4c examples/light_switch/client/CMakeFiles/light_switch_client_nrf52832_xxAA_s132_6.1.1.dir/__/__/__/mesh/core/src/mesh_config.c.obj
 .text.entry_flags_get.isra.0
                0x0002ef9c       0x1c examples/light_switch/client/CMakeFiles/light_switch_client_nrf52832_xxAA_s132_6.1.1.dir/__/__/__/mesh/core/src/mesh_config.c.obj
 .text.entry_params_find
                0x0002efb8       0x38 examples/light_switch/client/CMakeFiles/light_switch_client_nrf52832_xxAA_s132_6.1.1.dir/__/__/__/mesh/core/src/mesh_config.c.obj
 .text.restore_callback
                0x0002eff0       0x66 examples/light_switch/client/CMakeFiles/light_switch_client_nrf52832_xxAA_s132_6.1.1.dir/__/__/__/mesh/core/src/mesh_config.c.obj
 *fill*         0x0002f056        0x2 
 .text.dirty_entries_process
                0x0002f058       0xdc examples/light_switch/client/CMakeFiles/light_switch_client_nrf52832_xxAA_s132_6.1.1.dir/__/__/__/mesh/core/src/mesh_config.c.obj
 .text.mesh_config_init
                0x0002f134       0xa0 examples/light_switch/client/CMakeFiles/light_switch_client_nrf52832_xxAA_s132_6.1.1.dir/__/__/__/mesh/core/src/mesh_config.c.obj
                0x0002f134                mesh_config_init
 .text.mesh_config_load
                0x0002f1d4        0xc examples/light_switch/client/CMakeFiles/light_switch_client_nrf52832_xxAA_s132_6.1.1.dir/__/__/__/mesh/core/src/mesh_config.c.obj
                0x0002f1d4                mesh_config_load
 .text.mesh_config_is_busy
                0x0002f1e0       0x34 examples/light_switch/client/CMakeFiles/light_switch_client_nrf52832_xxAA_s132_6.1.1.dir/__/__/__/mesh/core/src/mesh_config.c.obj
                0x0002f1e0                mesh_config_is_busy
 .text.backend_evt_handler
                0x0002f214       0x88 examples/light_switch/client/CMakeFiles/light_switch_client_nrf52832_xxAA_s132_6.1.1.dir/__/__/__/mesh/core/src/mesh_config.c.obj
 .text.mesh_config_entry_set
                0x0002f29c       0x80 examples/light_switch/client/CMakeFiles/light_switch_client_nrf52832_xxAA_s132_6.1.1.dir/__/__/__/mesh/core/src/mesh_config.c.obj
                0x0002f29c                mesh_config_entry_set
 .text.mesh_config_entry_get
                0x0002f31c       0x3c examples/light_switch/client/CMakeFiles/light_switch_client_nrf52832_xxAA_s132_6.1.1.dir/__/__/__/mesh/core/src/mesh_config.c.obj
                0x0002f31c                mesh_config_entry_get
 .text.mesh_config_entry_delete
                0x0002f358       0x4a examples/light_switch/client/CMakeFiles/light_switch_client_nrf52832_xxAA_s132_6.1.1.dir/__/__/__/mesh/core/src/mesh_config.c.obj
                0x0002f358                mesh_config_entry_delete
 *fill*         0x0002f3a2        0x2 
 .text.mesh_config_clear
                0x0002f3a4       0x4c examples/light_switch/client/CMakeFiles/light_switch_client_nrf52832_xxAA_s132_6.1.1.dir/__/__/__/mesh/core/src/mesh_config.c.obj
                0x0002f3a4                mesh_config_clear
 .text.fsm_event_post_try
                0x0002f3f0       0xaa examples/light_switch/client/CMakeFiles/light_switch_client_nrf52832_xxAA_s132_6.1.1.dir/__/__/__/mesh/core/src/fsm.c.obj
 .text.fsm_init
                0x0002f49a       0x66 examples/light_switch/client/CMakeFiles/light_switch_client_nrf52832_xxAA_s132_6.1.1.dir/__/__/__/mesh/core/src/fsm.c.obj
                0x0002f49a                fsm_init
 .text.fsm_event_post
                0x0002f500       0x40 examples/light_switch/client/CMakeFiles/light_switch_client_nrf52832_xxAA_s132_6.1.1.dir/__/__/__/mesh/core/src/fsm.c.obj
                0x0002f500                fsm_event_post
 .text.fsm_is_processing
                0x0002f540        0xa examples/light_switch/client/CMakeFiles/light_switch_client_nrf52832_xxAA_s132_6.1.1.dir/__/__/__/mesh/core/src/fsm.c.obj
                0x0002f540                fsm_is_processing
 .text.dummy_event
                0x0002f54a        0x2 examples/light_switch/client/CMakeFiles/light_switch_client_nrf52832_xxAA_s132_6.1.1.dir/__/__/__/mesh/core/src/mesh_config_backend.c.obj
 .text.file_get
                0x0002f54c       0x34 examples/light_switch/client/CMakeFiles/light_switch_client_nrf52832_xxAA_s132_6.1.1.dir/__/__/__/mesh/core/src/mesh_config_backend.c.obj
 .text.mesh_config_backend_init
                0x0002f580      0x11c examples/light_switch/client/CMakeFiles/light_switch_client_nrf52832_xxAA_s132_6.1.1.dir/__/__/__/mesh/core/src/mesh_config_backend.c.obj
                0x0002f580                mesh_config_backend_init
 .text.mesh_config_backend_store
                0x0002f69c       0x4e examples/light_switch/client/CMakeFiles/light_switch_client_nrf52832_xxAA_s132_6.1.1.dir/__/__/__/mesh/core/src/mesh_config_backend.c.obj
                0x0002f69c                mesh_config_backend_store
 .text.mesh_config_backend_erase
                0x0002f6ea       0x34 examples/light_switch/client/CMakeFiles/light_switch_client_nrf52832_xxAA_s132_6.1.1.dir/__/__/__/mesh/core/src/mesh_config_backend.c.obj
                0x0002f6ea                mesh_config_backend_erase
 *fill*         0x0002f71e        0x2 
 .text.mesh_config_backend_read_all
                0x0002f720       0x38 examples/light_switch/client/CMakeFiles/light_switch_client_nrf52832_xxAA_s132_6.1.1.dir/__/__/__/mesh/core/src/mesh_config_backend.c.obj
                0x0002f720                mesh_config_backend_read_all
 .text.entry_read_cb
                0x0002f758       0x38 examples/light_switch/client/CMakeFiles/light_switch_client_nrf52832_xxAA_s132_6.1.1.dir/__/__/__/mesh/core/src/mesh_config_flashman_glue.c.obj
 .text.write_complete_cb
                0x0002f790       0x30 examples/light_switch/client/CMakeFiles/light_switch_client_nrf52832_xxAA_s132_6.1.1.dir/__/__/__/mesh/core/src/mesh_config_flashman_glue.c.obj
 .text.invalidate_complete_cb
                0x0002f7c0       0x2c examples/light_switch/client/CMakeFiles/light_switch_client_nrf52832_xxAA_s132_6.1.1.dir/__/__/__/mesh/core/src/mesh_config_flashman_glue.c.obj
 .text.remove_complete_cb
                0x0002f7ec        0x2 examples/light_switch/client/CMakeFiles/light_switch_client_nrf52832_xxAA_s132_6.1.1.dir/__/__/__/mesh/core/src/mesh_config_flashman_glue.c.obj
 .text.flash_stable_cb
                0x0002f7ee       0x20 examples/light_switch/client/CMakeFiles/light_switch_client_nrf52832_xxAA_s132_6.1.1.dir/__/__/__/mesh/core/src/mesh_config_flashman_glue.c.obj
 *fill*         0x0002f80e        0x2 
 .text.mesh_config_backend_glue_init
                0x0002f810       0x28 examples/light_switch/client/CMakeFiles/light_switch_client_nrf52832_xxAA_s132_6.1.1.dir/__/__/__/mesh/core/src/mesh_config_flashman_glue.c.obj
                0x0002f810                mesh_config_backend_glue_init
 .text.mesh_config_backend_file_create
                0x0002f838       0x58 examples/light_switch/client/CMakeFiles/light_switch_client_nrf52832_xxAA_s132_6.1.1.dir/__/__/__/mesh/core/src/mesh_config_flashman_glue.c.obj
                0x0002f838                mesh_config_backend_file_create
 .text.mesh_config_backend_record_write
                0x0002f890       0x2c examples/light_switch/client/CMakeFiles/light_switch_client_nrf52832_xxAA_s132_6.1.1.dir/__/__/__/mesh/core/src/mesh_config_flashman_glue.c.obj
                0x0002f890                mesh_config_backend_record_write
 .text.mesh_config_backend_record_erase
                0x0002f8bc       0x30 examples/light_switch/client/CMakeFiles/light_switch_client_nrf52832_xxAA_s132_6.1.1.dir/__/__/__/mesh/core/src/mesh_config_flashman_glue.c.obj
                0x0002f8bc                mesh_config_backend_record_erase
 .text.mesh_config_backend_records_read
                0x0002f8ec       0x30 examples/light_switch/client/CMakeFiles/light_switch_client_nrf52832_xxAA_s132_6.1.1.dir/__/__/__/mesh/core/src/mesh_config_flashman_glue.c.obj
                0x0002f8ec                mesh_config_backend_records_read
 .text.mesh_config_record_size_calculate
                0x0002f91c        0xa examples/light_switch/client/CMakeFiles/light_switch_client_nrf52832_xxAA_s132_6.1.1.dir/__/__/__/mesh/core/src/mesh_config_flashman_glue.c.obj
                0x0002f91c                mesh_config_record_size_calculate
 .text.mesh_config_backend_file_power_down_time_get
                0x0002f926       0x26 examples/light_switch/client/CMakeFiles/light_switch_client_nrf52832_xxAA_s132_6.1.1.dir/__/__/__/mesh/core/src/mesh_config_flashman_glue.c.obj
                0x0002f926                mesh_config_backend_file_power_down_time_get
 .text.packet_discard
                0x0002f94c       0x30 examples/light_switch/client/CMakeFiles/light_switch_client_nrf52832_xxAA_s132_6.1.1.dir/__/__/__/mesh/core/src/core_tx_local.c.obj
 .text.packet_send
                0x0002f97c       0x58 examples/light_switch/client/CMakeFiles/light_switch_client_nrf52832_xxAA_s132_6.1.1.dir/__/__/__/mesh/core/src/core_tx_local.c.obj
 .text.loopback_process
                0x0002f9d4       0x64 examples/light_switch/client/CMakeFiles/light_switch_client_nrf52832_xxAA_s132_6.1.1.dir/__/__/__/mesh/core/src/core_tx_local.c.obj
 .text.packet_alloc
                0x0002fa38       0x48 examples/light_switch/client/CMakeFiles/light_switch_client_nrf52832_xxAA_s132_6.1.1.dir/__/__/__/mesh/core/src/core_tx_local.c.obj
 .text.core_tx_local_init
                0x0002fa80       0x34 examples/light_switch/client/CMakeFiles/light_switch_client_nrf52832_xxAA_s132_6.1.1.dir/__/__/__/mesh/core/src/core_tx_local.c.obj
                0x0002fa80                core_tx_local_init
 .text.core_tx_adv_get
                0x0002fab4       0x3c examples/light_switch/client/CMakeFiles/light_switch_client_nrf52832_xxAA_s132_6.1.1.dir/__/__/__/mesh/core/src/core_tx_adv.c.obj
 .text.core_tx_tx_power_get
                0x0002faf0       0x30 examples/light_switch/client/CMakeFiles/light_switch_client_nrf52832_xxAA_s132_6.1.1.dir/__/__/__/mesh/core/src/core_tx_adv.c.obj
 .text.core_tx_adv_delete
                0x0002fb20       0x50 examples/light_switch/client/CMakeFiles/light_switch_client_nrf52832_xxAA_s132_6.1.1.dir/__/__/__/mesh/core/src/core_tx_adv.c.obj
 .text.core_tx_adv_set
                0x0002fb70       0x6c examples/light_switch/client/CMakeFiles/light_switch_client_nrf52832_xxAA_s132_6.1.1.dir/__/__/__/mesh/core/src/core_tx_adv.c.obj
 .text.core_tx_tx_power_delete
                0x0002fbdc       0x30 examples/light_switch/client/CMakeFiles/light_switch_client_nrf52832_xxAA_s132_6.1.1.dir/__/__/__/mesh/core/src/core_tx_adv.c.obj
 .text.core_tx_tx_power_set
                0x0002fc0c       0x34 examples/light_switch/client/CMakeFiles/light_switch_client_nrf52832_xxAA_s132_6.1.1.dir/__/__/__/mesh/core/src/core_tx_adv.c.obj
 .text.core_tx_adv_addr_delete
                0x0002fc40       0x34 examples/light_switch/client/CMakeFiles/light_switch_client_nrf52832_xxAA_s132_6.1.1.dir/__/__/__/mesh/core/src/core_tx_adv.c.obj
 .text.core_tx_adv_addr_set
                0x0002fc74       0x40 examples/light_switch/client/CMakeFiles/light_switch_client_nrf52832_xxAA_s132_6.1.1.dir/__/__/__/mesh/core/src/core_tx_adv.c.obj
 .text.core_tx_adv_addr_get
                0x0002fcb4       0x34 examples/light_switch/client/CMakeFiles/light_switch_client_nrf52832_xxAA_s132_6.1.1.dir/__/__/__/mesh/core/src/core_tx_adv.c.obj
 .text.packet_discard
                0x0002fce8       0x40 examples/light_switch/client/CMakeFiles/light_switch_client_nrf52832_xxAA_s132_6.1.1.dir/__/__/__/mesh/core/src/core_tx_adv.c.obj
 .text.packet_send
                0x0002fd28       0x58 examples/light_switch/client/CMakeFiles/light_switch_client_nrf52832_xxAA_s132_6.1.1.dir/__/__/__/mesh/core/src/core_tx_adv.c.obj
 .text.packet_alloc
                0x0002fd80       0x58 examples/light_switch/client/CMakeFiles/light_switch_client_nrf52832_xxAA_s132_6.1.1.dir/__/__/__/mesh/core/src/core_tx_adv.c.obj
 .text.adv_tx_complete_callback
                0x0002fdd8       0x20 examples/light_switch/client/CMakeFiles/light_switch_client_nrf52832_xxAA_s132_6.1.1.dir/__/__/__/mesh/core/src/core_tx_adv.c.obj
 .text.mesh_opt_core_adv_set
                0x0002fdf8       0x22 examples/light_switch/client/CMakeFiles/light_switch_client_nrf52832_xxAA_s132_6.1.1.dir/__/__/__/mesh/core/src/core_tx_adv.c.obj
                0x0002fdf8                mesh_opt_core_adv_set
 .text.mesh_opt_core_adv_get
                0x0002fe1a       0x22 examples/light_switch/client/CMakeFiles/light_switch_client_nrf52832_xxAA_s132_6.1.1.dir/__/__/__/mesh/core/src/core_tx_adv.c.obj
                0x0002fe1a                mesh_opt_core_adv_get
 .text.core_tx_adv_init
                0x0002fe3c       0x60 examples/light_switch/client/CMakeFiles/light_switch_client_nrf52832_xxAA_s132_6.1.1.dir/__/__/__/mesh/core/src/core_tx_adv.c.obj
                0x0002fe3c                core_tx_adv_init
 .text.core_tx_adv_is_enabled
                0x0002fe9c       0x20 examples/light_switch/client/CMakeFiles/light_switch_client_nrf52832_xxAA_s132_6.1.1.dir/__/__/__/mesh/core/src/core_tx_adv.c.obj
                0x0002fe9c                core_tx_adv_is_enabled
 .text.mesh_mem_init
                0x0002febc        0x2 examples/light_switch/client/CMakeFiles/light_switch_client_nrf52832_xxAA_s132_6.1.1.dir/__/__/__/mesh/core/src/mesh_mem_stdlib.c.obj
                0x0002febc                mesh_mem_init
 .text.mesh_mem_alloc
                0x0002febe        0x4 examples/light_switch/client/CMakeFiles/light_switch_client_nrf52832_xxAA_s132_6.1.1.dir/__/__/__/mesh/core/src/mesh_mem_stdlib.c.obj
                0x0002febe                mesh_mem_alloc
 .text.mesh_mem_free
                0x0002fec2        0x4 examples/light_switch/client/CMakeFiles/light_switch_client_nrf52832_xxAA_s132_6.1.1.dir/__/__/__/mesh/core/src/mesh_mem_stdlib.c.obj
                0x0002fec2                mesh_mem_free
 *fill*         0x0002fec6        0x2 
 .text.ad_listener_subscribe
                0x0002fec8       0x5c examples/light_switch/client/CMakeFiles/light_switch_client_nrf52832_xxAA_s132_6.1.1.dir/__/__/__/mesh/bearer/src/ad_listener.c.obj
                0x0002fec8                ad_listener_subscribe
 .text.ad_listener_process
                0x0002ff24       0x68 examples/light_switch/client/CMakeFiles/light_switch_client_nrf52832_xxAA_s132_6.1.1.dir/__/__/__/mesh/bearer/src/ad_listener.c.obj
                0x0002ff24                ad_listener_process
 .text.adtype_filter_handle
                0x0002ff8c       0x64 examples/light_switch/client/CMakeFiles/light_switch_client_nrf52832_xxAA_s132_6.1.1.dir/__/__/__/mesh/bearer/src/ad_type_filter.c.obj
 .text.bearer_adtype_filtering_set
                0x0002fff0       0x20 examples/light_switch/client/CMakeFiles/light_switch_client_nrf52832_xxAA_s132_6.1.1.dir/__/__/__/mesh/bearer/src/ad_type_filter.c.obj
                0x0002fff0                bearer_adtype_filtering_set
 .text.bearer_adtype_add
                0x00030010       0x20 examples/light_switch/client/CMakeFiles/light_switch_client_nrf52832_xxAA_s132_6.1.1.dir/__/__/__/mesh/bearer/src/ad_type_filter.c.obj
                0x00030010                bearer_adtype_add
 .text.bearer_adtype_mode_set
                0x00030030       0x18 examples/light_switch/client/CMakeFiles/light_switch_client_nrf52832_xxAA_s132_6.1.1.dir/__/__/__/mesh/bearer/src/ad_type_filter.c.obj
                0x00030030                bearer_adtype_mode_set
 .text.tx_complete_event_callback
                0x00030048       0x24 examples/light_switch/client/CMakeFiles/light_switch_client_nrf52832_xxAA_s132_6.1.1.dir/__/__/__/mesh/bearer/src/advertiser.c.obj
 .text.set_gap_addr_type
                0x0003006c       0x26 examples/light_switch/client/CMakeFiles/light_switch_client_nrf52832_xxAA_s132_6.1.1.dir/__/__/__/mesh/bearer/src/advertiser.c.obj
 .text.broadcast_complete_cb
                0x00030092       0x46 examples/light_switch/client/CMakeFiles/light_switch_client_nrf52832_xxAA_s132_6.1.1.dir/__/__/__/mesh/bearer/src/advertiser.c.obj
 .text.schedule_first_time
                0x000300d8       0x28 examples/light_switch/client/CMakeFiles/light_switch_client_nrf52832_xxAA_s132_6.1.1.dir/__/__/__/mesh/bearer/src/advertiser.c.obj
 .text.timeout_event
                0x00030100      0x114 examples/light_switch/client/CMakeFiles/light_switch_client_nrf52832_xxAA_s132_6.1.1.dir/__/__/__/mesh/bearer/src/advertiser.c.obj
 .text.advertiser_init
                0x00030214        0xc examples/light_switch/client/CMakeFiles/light_switch_client_nrf52832_xxAA_s132_6.1.1.dir/__/__/__/mesh/bearer/src/advertiser.c.obj
                0x00030214                advertiser_init
 .text.advertiser_enable
                0x00030220       0x2a examples/light_switch/client/CMakeFiles/light_switch_client_nrf52832_xxAA_s132_6.1.1.dir/__/__/__/mesh/bearer/src/advertiser.c.obj
                0x00030220                advertiser_enable
 .text.advertiser_disable
                0x0003024a        0xa examples/light_switch/client/CMakeFiles/light_switch_client_nrf52832_xxAA_s132_6.1.1.dir/__/__/__/mesh/bearer/src/advertiser.c.obj
                0x0003024a                advertiser_disable
 .text.advertiser_packet_alloc
                0x00030254       0x76 examples/light_switch/client/CMakeFiles/light_switch_client_nrf52832_xxAA_s132_6.1.1.dir/__/__/__/mesh/bearer/src/advertiser.c.obj
                0x00030254                advertiser_packet_alloc
 .text.advertiser_packet_send
                0x000302ca       0x52 examples/light_switch/client/CMakeFiles/light_switch_client_nrf52832_xxAA_s132_6.1.1.dir/__/__/__/mesh/bearer/src/advertiser.c.obj
                0x000302ca                advertiser_packet_send
 .text.advertiser_packet_discard
                0x0003031c       0x1e examples/light_switch/client/CMakeFiles/light_switch_client_nrf52832_xxAA_s132_6.1.1.dir/__/__/__/mesh/bearer/src/advertiser.c.obj
                0x0003031c                advertiser_packet_discard
 .text.advertiser_address_set
                0x0003033a       0x3c examples/light_switch/client/CMakeFiles/light_switch_client_nrf52832_xxAA_s132_6.1.1.dir/__/__/__/mesh/bearer/src/advertiser.c.obj
                0x0003033a                advertiser_address_set
 .text.advertiser_interval_set
                0x00030376       0x40 examples/light_switch/client/CMakeFiles/light_switch_client_nrf52832_xxAA_s132_6.1.1.dir/__/__/__/mesh/bearer/src/advertiser.c.obj
                0x00030376                advertiser_interval_set
 .text.advertiser_tx_power_set
                0x000303b6       0x14 examples/light_switch/client/CMakeFiles/light_switch_client_nrf52832_xxAA_s132_6.1.1.dir/__/__/__/mesh/bearer/src/advertiser.c.obj
                0x000303b6                advertiser_tx_power_set
 .text.advertiser_flush
                0x000303ca       0x1e examples/light_switch/client/CMakeFiles/light_switch_client_nrf52832_xxAA_s132_6.1.1.dir/__/__/__/mesh/bearer/src/advertiser.c.obj
                0x000303ca                advertiser_flush
 .text.advertiser_address_default_get
                0x000303e8       0x38 examples/light_switch/client/CMakeFiles/light_switch_client_nrf52832_xxAA_s132_6.1.1.dir/__/__/__/mesh/bearer/src/advertiser.c.obj
                0x000303e8                advertiser_address_default_get
 .text.advertiser_instance_init
                0x00030420       0x98 examples/light_switch/client/CMakeFiles/light_switch_client_nrf52832_xxAA_s132_6.1.1.dir/__/__/__/mesh/bearer/src/advertiser.c.obj
                0x00030420                advertiser_instance_init
 .text.notify_stop
                0x000304b8       0x14 examples/light_switch/client/CMakeFiles/light_switch_client_nrf52832_xxAA_s132_6.1.1.dir/__/__/__/mesh/bearer/src/bearer_handler.c.obj
 .text.action_in_progress
                0x000304cc       0x30 examples/light_switch/client/CMakeFiles/light_switch_client_nrf52832_xxAA_s132_6.1.1.dir/__/__/__/mesh/bearer/src/bearer_handler.c.obj
 .text.action_timer_start
                0x000304fc       0x88 examples/light_switch/client/CMakeFiles/light_switch_client_nrf52832_xxAA_s132_6.1.1.dir/__/__/__/mesh/bearer/src/bearer_handler.c.obj
 .text.action_switch
                0x00030584      0x104 examples/light_switch/client/CMakeFiles/light_switch_client_nrf52832_xxAA_s132_6.1.1.dir/__/__/__/mesh/bearer/src/bearer_handler.c.obj
 .text.end_handle
                0x00030688       0x44 examples/light_switch/client/CMakeFiles/light_switch_client_nrf52832_xxAA_s132_6.1.1.dir/__/__/__/mesh/bearer/src/bearer_handler.c.obj
 .text.TIMER2_IRQHandler
                0x000306cc       0x58 examples/light_switch/client/CMakeFiles/light_switch_client_nrf52832_xxAA_s132_6.1.1.dir/__/__/__/mesh/bearer/src/bearer_handler.c.obj
                0x000306cc                TIMER2_IRQHandler
 .text.bearer_handler_init
                0x00030724       0x44 examples/light_switch/client/CMakeFiles/light_switch_client_nrf52832_xxAA_s132_6.1.1.dir/__/__/__/mesh/bearer/src/bearer_handler.c.obj
                0x00030724                bearer_handler_init
 .text.bearer_handler_stop
                0x00030768       0x48 examples/light_switch/client/CMakeFiles/light_switch_client_nrf52832_xxAA_s132_6.1.1.dir/__/__/__/mesh/bearer/src/bearer_handler.c.obj
                0x00030768                bearer_handler_stop
 .text.bearer_handler_wake_up
                0x000307b0       0x2c examples/light_switch/client/CMakeFiles/light_switch_client_nrf52832_xxAA_s132_6.1.1.dir/__/__/__/mesh/bearer/src/bearer_handler.c.obj
                0x000307b0                bearer_handler_wake_up
 .text.bearer_handler_start
                0x000307dc       0x1c examples/light_switch/client/CMakeFiles/light_switch_client_nrf52832_xxAA_s132_6.1.1.dir/__/__/__/mesh/bearer/src/bearer_handler.c.obj
                0x000307dc                bearer_handler_start
 .text.bearer_handler_action_enqueue
                0x000307f8       0x6c examples/light_switch/client/CMakeFiles/light_switch_client_nrf52832_xxAA_s132_6.1.1.dir/__/__/__/mesh/bearer/src/bearer_handler.c.obj
                0x000307f8                bearer_handler_action_enqueue
 .text.bearer_handler_action_end
                0x00030864       0x48 examples/light_switch/client/CMakeFiles/light_switch_client_nrf52832_xxAA_s132_6.1.1.dir/__/__/__/mesh/bearer/src/bearer_handler.c.obj
                0x00030864                bearer_handler_action_end
 .text.bearer_handler_radio_irq_handler
                0x000308ac       0x70 examples/light_switch/client/CMakeFiles/light_switch_client_nrf52832_xxAA_s132_6.1.1.dir/__/__/__/mesh/bearer/src/bearer_handler.c.obj
                0x000308ac                bearer_handler_radio_irq_handler
 .text.bearer_handler_timer_irq_handler
                0x0003091c       0x34 examples/light_switch/client/CMakeFiles/light_switch_client_nrf52832_xxAA_s132_6.1.1.dir/__/__/__/mesh/bearer/src/bearer_handler.c.obj
                0x0003091c                bearer_handler_timer_irq_handler
 .text.bearer_handler_on_ts_begin
                0x00030950       0x38 examples/light_switch/client/CMakeFiles/light_switch_client_nrf52832_xxAA_s132_6.1.1.dir/__/__/__/mesh/bearer/src/bearer_handler.c.obj
                0x00030950                bearer_handler_on_ts_begin
 .text.bearer_handler_on_ts_end
                0x00030988       0x70 examples/light_switch/client/CMakeFiles/light_switch_client_nrf52832_xxAA_s132_6.1.1.dir/__/__/__/mesh/bearer/src/bearer_handler.c.obj
                0x00030988                bearer_handler_on_ts_end
 .text.bearer_handler_on_ts_session_closed
                0x000309f8       0x10 examples/light_switch/client/CMakeFiles/light_switch_client_nrf52832_xxAA_s132_6.1.1.dir/__/__/__/mesh/bearer/src/bearer_handler.c.obj
                0x000309f8                bearer_handler_on_ts_session_closed
 .text.radio_irq_handler
                0x00030a08       0xa4 examples/light_switch/client/CMakeFiles/light_switch_client_nrf52832_xxAA_s132_6.1.1.dir/__/__/__/mesh/bearer/src/broadcast.c.obj
 .text.broadcast_start
                0x00030aac       0xb4 examples/light_switch/client/CMakeFiles/light_switch_client_nrf52832_xxAA_s132_6.1.1.dir/__/__/__/mesh/bearer/src/broadcast.c.obj
 .text.broadcast_send
                0x00030b60       0x6c examples/light_switch/client/CMakeFiles/light_switch_client_nrf52832_xxAA_s132_6.1.1.dir/__/__/__/mesh/bearer/src/broadcast.c.obj
                0x00030b60                broadcast_send
 .text.fen_filter_start
                0x00030bcc       0x3c examples/light_switch/client/CMakeFiles/light_switch_client_nrf52832_xxAA_s132_6.1.1.dir/__/__/__/mesh/bearer/src/filter_engine.c.obj
                0x00030bcc                fen_filter_start
 .text.fen_filter_stop
                0x00030c08       0x30 examples/light_switch/client/CMakeFiles/light_switch_client_nrf52832_xxAA_s132_6.1.1.dir/__/__/__/mesh/bearer/src/filter_engine.c.obj
                0x00030c08                fen_filter_stop
 .text.fen_filters_apply
                0x00030c38       0x44 examples/light_switch/client/CMakeFiles/light_switch_client_nrf52832_xxAA_s132_6.1.1.dir/__/__/__/mesh/bearer/src/filter_engine.c.obj
                0x00030c38                fen_filters_apply
 .text.radio_config_reset
                0x00030c7c       0x40 examples/light_switch/client/CMakeFiles/light_switch_client_nrf52832_xxAA_s132_6.1.1.dir/__/__/__/mesh/bearer/src/radio_config.c.obj
                0x00030c7c                radio_config_reset
 .text.radio_config_channel_set
                0x00030cbc       0x28 examples/light_switch/client/CMakeFiles/light_switch_client_nrf52832_xxAA_s132_6.1.1.dir/__/__/__/mesh/bearer/src/radio_config.c.obj
                0x00030cbc                radio_config_channel_set
 .text.radio_config_config
                0x00030ce4       0x8c examples/light_switch/client/CMakeFiles/light_switch_client_nrf52832_xxAA_s132_6.1.1.dir/__/__/__/mesh/bearer/src/radio_config.c.obj
                0x00030ce4                radio_config_config
 .text.radio_config_access_addr_set
                0x00030d70       0x50 examples/light_switch/client/CMakeFiles/light_switch_client_nrf52832_xxAA_s132_6.1.1.dir/__/__/__/mesh/bearer/src/radio_config.c.obj
                0x00030d70                radio_config_access_addr_set
 .text.radio_trigger
                0x00030dc0       0x24 examples/light_switch/client/CMakeFiles/light_switch_client_nrf52832_xxAA_s132_6.1.1.dir/__/__/__/mesh/bearer/src/scanner.c.obj
 .text.scan_window_end
                0x00030de4       0x10 examples/light_switch/client/CMakeFiles/light_switch_client_nrf52832_xxAA_s132_6.1.1.dir/__/__/__/mesh/bearer/src/scanner.c.obj
 .text.scan_window_start
                0x00030df4       0x24 examples/light_switch/client/CMakeFiles/light_switch_client_nrf52832_xxAA_s132_6.1.1.dir/__/__/__/mesh/bearer/src/scanner.c.obj
 .text.radio_configure
                0x00030e18       0x78 examples/light_switch/client/CMakeFiles/light_switch_client_nrf52832_xxAA_s132_6.1.1.dir/__/__/__/mesh/bearer/src/scanner.c.obj
 .text.radio_set_packet
                0x00030e90       0x4c examples/light_switch/client/CMakeFiles/light_switch_client_nrf52832_xxAA_s132_6.1.1.dir/__/__/__/mesh/bearer/src/scanner.c.obj
 .text.radio_start
                0x00030edc       0x78 examples/light_switch/client/CMakeFiles/light_switch_client_nrf52832_xxAA_s132_6.1.1.dir/__/__/__/mesh/bearer/src/scanner.c.obj
 .text.radio_stop
                0x00030f54       0x38 examples/light_switch/client/CMakeFiles/light_switch_client_nrf52832_xxAA_s132_6.1.1.dir/__/__/__/mesh/bearer/src/scanner.c.obj
 .text.schedule_timers
                0x00030f8c       0x38 examples/light_switch/client/CMakeFiles/light_switch_client_nrf52832_xxAA_s132_6.1.1.dir/__/__/__/mesh/bearer/src/scanner.c.obj
 .text.scanner_radio_start
                0x00030fc4       0x28 examples/light_switch/client/CMakeFiles/light_switch_client_nrf52832_xxAA_s132_6.1.1.dir/__/__/__/mesh/bearer/src/scanner.c.obj
                0x00030fc4                scanner_radio_start
 .text.scanner_radio_stop
                0x00030fec       0x10 examples/light_switch/client/CMakeFiles/light_switch_client_nrf52832_xxAA_s132_6.1.1.dir/__/__/__/mesh/bearer/src/scanner.c.obj
                0x00030fec                scanner_radio_stop
 .text.scanner_radio_irq_handler
                0x00030ffc      0x144 examples/light_switch/client/CMakeFiles/light_switch_client_nrf52832_xxAA_s132_6.1.1.dir/__/__/__/mesh/bearer/src/scanner.c.obj
                0x00030ffc                scanner_radio_irq_handler
 .text.scanner_timer_irq_handler
                0x00031140       0x30 examples/light_switch/client/CMakeFiles/light_switch_client_nrf52832_xxAA_s132_6.1.1.dir/__/__/__/mesh/bearer/src/scanner.c.obj
                0x00031140                scanner_timer_irq_handler
 .text.scanner_enable
                0x00031170       0x2c examples/light_switch/client/CMakeFiles/light_switch_client_nrf52832_xxAA_s132_6.1.1.dir/__/__/__/mesh/bearer/src/scanner.c.obj
                0x00031170                scanner_enable
 .text.scanner_is_enabled
                0x0003119c       0x10 examples/light_switch/client/CMakeFiles/light_switch_client_nrf52832_xxAA_s132_6.1.1.dir/__/__/__/mesh/bearer/src/scanner.c.obj
                0x0003119c                scanner_is_enabled
 .text.scanner_packet_release
                0x000311ac       0x2c examples/light_switch/client/CMakeFiles/light_switch_client_nrf52832_xxAA_s132_6.1.1.dir/__/__/__/mesh/bearer/src/scanner.c.obj
                0x000311ac                scanner_packet_release
 .text.scanner_rx
                0x000311d8       0x34 examples/light_switch/client/CMakeFiles/light_switch_client_nrf52832_xxAA_s132_6.1.1.dir/__/__/__/mesh/bearer/src/scanner.c.obj
                0x000311d8                scanner_rx
 .text.scanner_rx_pending
                0x0003120c        0xc examples/light_switch/client/CMakeFiles/light_switch_client_nrf52832_xxAA_s132_6.1.1.dir/__/__/__/mesh/bearer/src/scanner.c.obj
                0x0003120c                scanner_rx_pending
 .text.scanner_config_scan_time_set
                0x00031218       0x4c examples/light_switch/client/CMakeFiles/light_switch_client_nrf52832_xxAA_s132_6.1.1.dir/__/__/__/mesh/bearer/src/scanner.c.obj
                0x00031218                scanner_config_scan_time_set
 .text.scanner_config_channels_set
                0x00031264       0x50 examples/light_switch/client/CMakeFiles/light_switch_client_nrf52832_xxAA_s132_6.1.1.dir/__/__/__/mesh/bearer/src/scanner.c.obj
                0x00031264                scanner_config_channels_set
 .text.scanner_config_access_addresses_set
                0x000312b4       0x38 examples/light_switch/client/CMakeFiles/light_switch_client_nrf52832_xxAA_s132_6.1.1.dir/__/__/__/mesh/bearer/src/scanner.c.obj
                0x000312b4                scanner_config_access_addresses_set
 .text.scanner_config_reset
                0x000312ec       0x50 examples/light_switch/client/CMakeFiles/light_switch_client_nrf52832_xxAA_s132_6.1.1.dir/__/__/__/mesh/bearer/src/scanner.c.obj
                0x000312ec                scanner_config_reset
 .text.scanner_init
                0x0003133c       0x54 examples/light_switch/client/CMakeFiles/light_switch_client_nrf52832_xxAA_s132_6.1.1.dir/__/__/__/mesh/bearer/src/scanner.c.obj
                0x0003133c                scanner_init
 .text.pin_clear
                0x00031390       0x24 examples/light_switch/client/CMakeFiles/light_switch_client_nrf52832_xxAA_s132_6.1.1.dir/__/__/__/mesh/bearer/src/mesh_pa_lna.c.obj
 .text.ppi_setup.isra.0
                0x000313b4       0x3c examples/light_switch/client/CMakeFiles/light_switch_client_nrf52832_xxAA_s132_6.1.1.dir/__/__/__/mesh/bearer/src/mesh_pa_lna.c.obj
 .text.mesh_pa_setup_start
                0x000313f0       0x5c examples/light_switch/client/CMakeFiles/light_switch_client_nrf52832_xxAA_s132_6.1.1.dir/__/__/__/mesh/bearer/src/mesh_pa_lna.c.obj
                0x000313f0                mesh_pa_setup_start
 .text.mesh_lna_setup_start
                0x0003144c       0x5c examples/light_switch/client/CMakeFiles/light_switch_client_nrf52832_xxAA_s132_6.1.1.dir/__/__/__/mesh/bearer/src/mesh_pa_lna.c.obj
                0x0003144c                mesh_lna_setup_start
 .text.mesh_pa_lna_disable_start
                0x000314a8       0x1c examples/light_switch/client/CMakeFiles/light_switch_client_nrf52832_xxAA_s132_6.1.1.dir/__/__/__/mesh/bearer/src/mesh_pa_lna.c.obj
                0x000314a8                mesh_pa_lna_disable_start
 .text.mesh_pa_lna_setup_stop
                0x000314c4       0x4c examples/light_switch/client/CMakeFiles/light_switch_client_nrf52832_xxAA_s132_6.1.1.dir/__/__/__/mesh/bearer/src/mesh_pa_lna.c.obj
                0x000314c4                mesh_pa_lna_setup_stop
 .text.mesh_pa_lna_cleanup
                0x00031510       0x48 examples/light_switch/client/CMakeFiles/light_switch_client_nrf52832_xxAA_s132_6.1.1.dir/__/__/__/mesh/bearer/src/mesh_pa_lna.c.obj
                0x00031510                mesh_pa_lna_cleanup
 .text.sd_ble_gap_disconnect
                0x00031558        0x4 examples/light_switch/client/CMakeFiles/light_switch_client_nrf52832_xxAA_s132_6.1.1.dir/__/__/__/mesh/gatt/src/mesh_gatt.c.obj
 .text.sd_ble_gap_sec_params_reply
                0x0003155c        0x4 examples/light_switch/client/CMakeFiles/light_switch_client_nrf52832_xxAA_s132_6.1.1.dir/__/__/__/mesh/gatt/src/mesh_gatt.c.obj
 .text.sd_ble_gap_phy_update
                0x00031560        0x4 examples/light_switch/client/CMakeFiles/light_switch_client_nrf52832_xxAA_s132_6.1.1.dir/__/__/__/mesh/gatt/src/mesh_gatt.c.obj
 .text.sd_ble_gap_data_length_update
                0x00031564        0x4 examples/light_switch/client/CMakeFiles/light_switch_client_nrf52832_xxAA_s132_6.1.1.dir/__/__/__/mesh/gatt/src/mesh_gatt.c.obj
 .text.sd_ble_gatts_service_add
                0x00031568        0x4 examples/light_switch/client/CMakeFiles/light_switch_client_nrf52832_xxAA_s132_6.1.1.dir/__/__/__/mesh/gatt/src/mesh_gatt.c.obj
 .text.sd_ble_gatts_characteristic_add
                0x0003156c        0x4 examples/light_switch/client/CMakeFiles/light_switch_client_nrf52832_xxAA_s132_6.1.1.dir/__/__/__/mesh/gatt/src/mesh_gatt.c.obj
 .text.sd_ble_gatts_hvx
                0x00031570        0x4 examples/light_switch/client/CMakeFiles/light_switch_client_nrf52832_xxAA_s132_6.1.1.dir/__/__/__/mesh/gatt/src/mesh_gatt.c.obj
 .text.sd_ble_gatts_sys_attr_set
                0x00031574        0x4 examples/light_switch/client/CMakeFiles/light_switch_client_nrf52832_xxAA_s132_6.1.1.dir/__/__/__/mesh/gatt/src/mesh_gatt.c.obj
 .text.sd_ble_gatts_exchange_mtu_reply
                0x00031578        0x4 examples/light_switch/client/CMakeFiles/light_switch_client_nrf52832_xxAA_s132_6.1.1.dir/__/__/__/mesh/gatt/src/mesh_gatt.c.obj
 .text.timeout_cb
                0x0003157c       0x1c examples/light_switch/client/CMakeFiles/light_switch_client_nrf52832_xxAA_s132_6.1.1.dir/__/__/__/mesh/gatt/src/mesh_gatt.c.obj
 .text.mesh_gatt_init
                0x00031598      0x14c examples/light_switch/client/CMakeFiles/light_switch_client_nrf52832_xxAA_s132_6.1.1.dir/__/__/__/mesh/gatt/src/mesh_gatt.c.obj
                0x00031598                mesh_gatt_init
 .text.mesh_gatt_packet_alloc
                0x000316e4       0x7c examples/light_switch/client/CMakeFiles/light_switch_client_nrf52832_xxAA_s132_6.1.1.dir/__/__/__/mesh/gatt/src/mesh_gatt.c.obj
                0x000316e4                mesh_gatt_packet_alloc
 .text.mesh_gatt_packet_discard
                0x00031760       0x4c examples/light_switch/client/CMakeFiles/light_switch_client_nrf52832_xxAA_s132_6.1.1.dir/__/__/__/mesh/gatt/src/mesh_gatt.c.obj
                0x00031760                mesh_gatt_packet_discard
 .text.mesh_gatt_packet_is_pending
                0x000317ac       0x20 examples/light_switch/client/CMakeFiles/light_switch_client_nrf52832_xxAA_s132_6.1.1.dir/__/__/__/mesh/gatt/src/mesh_gatt.c.obj
                0x000317ac                mesh_gatt_packet_is_pending
 .text.mesh_gatt_disconnect
                0x000317cc       0x30 examples/light_switch/client/CMakeFiles/light_switch_client_nrf52832_xxAA_s132_6.1.1.dir/__/__/__/mesh/gatt/src/mesh_gatt.c.obj
                0x000317cc                mesh_gatt_disconnect
 .text.mesh_gatt_pdu_send
                0x000317fc      0x170 examples/light_switch/client/CMakeFiles/light_switch_client_nrf52832_xxAA_s132_6.1.1.dir/__/__/__/mesh/gatt/src/mesh_gatt.c.obj
 .text.mesh_gatt_packet_send
                0x0003196c       0x88 examples/light_switch/client/CMakeFiles/light_switch_client_nrf52832_xxAA_s132_6.1.1.dir/__/__/__/mesh/gatt/src/mesh_gatt.c.obj
                0x0003196c                mesh_gatt_packet_send
 .text.mesh_gatt_on_ble_evt
                0x000319f4      0x3b0 examples/light_switch/client/CMakeFiles/light_switch_client_nrf52832_xxAA_s132_6.1.1.dir/__/__/__/mesh/gatt/src/mesh_gatt.c.obj
                0x000319f4                mesh_gatt_on_ble_evt
 .text.active_connection_count
                0x00031da4        0xc examples/light_switch/client/CMakeFiles/light_switch_client_nrf52832_xxAA_s132_6.1.1.dir/__/__/__/mesh/gatt/src/proxy.c.obj
 .text.proxy_get
                0x00031db0       0x10 examples/light_switch/client/CMakeFiles/light_switch_client_nrf52832_xxAA_s132_6.1.1.dir/__/__/__/mesh/gatt/src/proxy.c.obj
 .text.proxy_delete
                0x00031dc0       0x10 examples/light_switch/client/CMakeFiles/light_switch_client_nrf52832_xxAA_s132_6.1.1.dir/__/__/__/mesh/gatt/src/proxy.c.obj
 .text.packet_discard
                0x00031dd0       0x30 examples/light_switch/client/CMakeFiles/light_switch_client_nrf52832_xxAA_s132_6.1.1.dir/__/__/__/mesh/gatt/src/proxy.c.obj
 .text.core_tx_packet_discard_cb
                0x00031e00       0x18 examples/light_switch/client/CMakeFiles/light_switch_client_nrf52832_xxAA_s132_6.1.1.dir/__/__/__/mesh/gatt/src/proxy.c.obj
 .text.packet_send
                0x00031e18       0x3c examples/light_switch/client/CMakeFiles/light_switch_client_nrf52832_xxAA_s132_6.1.1.dir/__/__/__/mesh/gatt/src/proxy.c.obj
 .text.core_tx_packet_send_cb
                0x00031e54       0x38 examples/light_switch/client/CMakeFiles/light_switch_client_nrf52832_xxAA_s132_6.1.1.dir/__/__/__/mesh/gatt/src/proxy.c.obj
 .text.packet_alloc
                0x00031e8c       0x44 examples/light_switch/client/CMakeFiles/light_switch_client_nrf52832_xxAA_s132_6.1.1.dir/__/__/__/mesh/gatt/src/proxy.c.obj
 .text.core_tx_packet_alloc_cb
                0x00031ed0       0x40 examples/light_switch/client/CMakeFiles/light_switch_client_nrf52832_xxAA_s132_6.1.1.dir/__/__/__/mesh/gatt/src/proxy.c.obj
 .text.adv_data_set
                0x00031f10       0xa4 examples/light_switch/client/CMakeFiles/light_switch_client_nrf52832_xxAA_s132_6.1.1.dir/__/__/__/mesh/gatt/src/proxy.c.obj
 .text.on_adv_end
                0x00031fb4       0x14 examples/light_switch/client/CMakeFiles/light_switch_client_nrf52832_xxAA_s132_6.1.1.dir/__/__/__/mesh/gatt/src/proxy.c.obj
 .text.has_pending_packets
                0x00031fc8       0x14 examples/light_switch/client/CMakeFiles/light_switch_client_nrf52832_xxAA_s132_6.1.1.dir/__/__/__/mesh/gatt/src/proxy.c.obj
 .text.adv_net_iterate
                0x00031fdc       0x34 examples/light_switch/client/CMakeFiles/light_switch_client_nrf52832_xxAA_s132_6.1.1.dir/__/__/__/mesh/gatt/src/proxy.c.obj
 .text.adv_timer_handler
                0x00032010        0xe examples/light_switch/client/CMakeFiles/light_switch_client_nrf52832_xxAA_s132_6.1.1.dir/__/__/__/mesh/gatt/src/proxy.c.obj
 *fill*         0x0003201e        0x2 
 .text.adv_start
                0x00032020       0x5c examples/light_switch/client/CMakeFiles/light_switch_client_nrf52832_xxAA_s132_6.1.1.dir/__/__/__/mesh/gatt/src/proxy.c.obj
 .text.proxy_set
                0x0003207c       0x3c examples/light_switch/client/CMakeFiles/light_switch_client_nrf52832_xxAA_s132_6.1.1.dir/__/__/__/mesh/gatt/src/proxy.c.obj
 .text.beacon_packet_send_to_all
                0x000320b8       0x54 examples/light_switch/client/CMakeFiles/light_switch_client_nrf52832_xxAA_s132_6.1.1.dir/__/__/__/mesh/gatt/src/proxy.c.obj
 .text.mesh_evt_handle
                0x0003210c       0x3c examples/light_switch/client/CMakeFiles/light_switch_client_nrf52832_xxAA_s132_6.1.1.dir/__/__/__/mesh/gatt/src/proxy.c.obj
 .text.proxy_init
                0x00032148       0x84 examples/light_switch/client/CMakeFiles/light_switch_client_nrf52832_xxAA_s132_6.1.1.dir/__/__/__/mesh/gatt/src/proxy.c.obj
                0x00032148                proxy_init
 .text.proxy_start
                0x000321cc       0x38 examples/light_switch/client/CMakeFiles/light_switch_client_nrf52832_xxAA_s132_6.1.1.dir/__/__/__/mesh/gatt/src/proxy.c.obj
                0x000321cc                proxy_start
 .text.proxy_subnet_added
                0x00032204       0x58 examples/light_switch/client/CMakeFiles/light_switch_client_nrf52832_xxAA_s132_6.1.1.dir/__/__/__/mesh/gatt/src/proxy.c.obj
                0x00032204                proxy_subnet_added
 .text.proxy_net_packet_processed
                0x0003225c       0x40 examples/light_switch/client/CMakeFiles/light_switch_client_nrf52832_xxAA_s132_6.1.1.dir/__/__/__/mesh/gatt/src/proxy.c.obj
                0x0003225c                proxy_net_packet_processed
 .text.proxy_node_id_is_enabled
                0x0003229c       0x2c examples/light_switch/client/CMakeFiles/light_switch_client_nrf52832_xxAA_s132_6.1.1.dir/__/__/__/mesh/gatt/src/proxy.c.obj
                0x0003229c                proxy_node_id_is_enabled
 .text.proxy_is_enabled
                0x000322c8        0xc examples/light_switch/client/CMakeFiles/light_switch_client_nrf52832_xxAA_s132_6.1.1.dir/__/__/__/mesh/gatt/src/proxy.c.obj
                0x000322c8                proxy_is_enabled
 .text.proxy_is_connected
                0x000322d4       0x18 examples/light_switch/client/CMakeFiles/light_switch_client_nrf52832_xxAA_s132_6.1.1.dir/__/__/__/mesh/gatt/src/proxy.c.obj
                0x000322d4                proxy_is_connected
 .text.proxy_disconnect
                0x000322ec       0x1c examples/light_switch/client/CMakeFiles/light_switch_client_nrf52832_xxAA_s132_6.1.1.dir/__/__/__/mesh/gatt/src/proxy.c.obj
                0x000322ec                proxy_disconnect
 .text.gatt_evt_handler
                0x00032308      0x698 examples/light_switch/client/CMakeFiles/light_switch_client_nrf52832_xxAA_s132_6.1.1.dir/__/__/__/mesh/gatt/src/proxy.c.obj
 .text.proxy_stop
                0x000329a0       0x68 examples/light_switch/client/CMakeFiles/light_switch_client_nrf52832_xxAA_s132_6.1.1.dir/__/__/__/mesh/gatt/src/proxy.c.obj
                0x000329a0                proxy_stop
 .text.proxy_node_id_enable
                0x00032a08       0x2c examples/light_switch/client/CMakeFiles/light_switch_client_nrf52832_xxAA_s132_6.1.1.dir/__/__/__/mesh/gatt/src/proxy.c.obj
                0x00032a08                proxy_node_id_enable
 .text.proxy_node_id_disable
                0x00032a34       0x30 examples/light_switch/client/CMakeFiles/light_switch_client_nrf52832_xxAA_s132_6.1.1.dir/__/__/__/mesh/gatt/src/proxy.c.obj
                0x00032a34                proxy_node_id_disable
 .text.mesh_opt_gatt_proxy_set
                0x00032a64       0x1c examples/light_switch/client/CMakeFiles/light_switch_client_nrf52832_xxAA_s132_6.1.1.dir/__/__/__/mesh/gatt/src/proxy.c.obj
                0x00032a64                mesh_opt_gatt_proxy_set
 .text.proxy_filter_clear
                0x00032a80       0x18 examples/light_switch/client/CMakeFiles/light_switch_client_nrf52832_xxAA_s132_6.1.1.dir/__/__/__/mesh/gatt/src/proxy_filter.c.obj
                0x00032a80                proxy_filter_clear
 .text.proxy_filter_type_set
                0x00032a98       0x24 examples/light_switch/client/CMakeFiles/light_switch_client_nrf52832_xxAA_s132_6.1.1.dir/__/__/__/mesh/gatt/src/proxy_filter.c.obj
                0x00032a98                proxy_filter_type_set
 .text.proxy_filter_add
                0x00032abc       0x54 examples/light_switch/client/CMakeFiles/light_switch_client_nrf52832_xxAA_s132_6.1.1.dir/__/__/__/mesh/gatt/src/proxy_filter.c.obj
                0x00032abc                proxy_filter_add
 .text.proxy_filter_remove
                0x00032b10       0x50 examples/light_switch/client/CMakeFiles/light_switch_client_nrf52832_xxAA_s132_6.1.1.dir/__/__/__/mesh/gatt/src/proxy_filter.c.obj
                0x00032b10                proxy_filter_remove
 .text.proxy_filter_accept
                0x00032b60       0x36 examples/light_switch/client/CMakeFiles/light_switch_client_nrf52832_xxAA_s132_6.1.1.dir/__/__/__/mesh/gatt/src/proxy_filter.c.obj
                0x00032b60                proxy_filter_accept
 .text.status_handle
                0x00032b96       0x4a examples/light_switch/client/CMakeFiles/light_switch_client_nrf52832_xxAA_s132_6.1.1.dir/__/__/__/models/model_spec/generic_onoff/src/generic_onoff_client.c.obj
 .text.generic_onoff_client_init
                0x00032be0       0x58 examples/light_switch/client/CMakeFiles/light_switch_client_nrf52832_xxAA_s132_6.1.1.dir/__/__/__/models/model_spec/generic_onoff/src/generic_onoff_client.c.obj
                0x00032be0                generic_onoff_client_init
 .text.generic_onoff_client_set
                0x00032c38       0xa0 examples/light_switch/client/CMakeFiles/light_switch_client_nrf52832_xxAA_s132_6.1.1.dir/__/__/__/models/model_spec/generic_onoff/src/generic_onoff_client.c.obj
                0x00032c38                generic_onoff_client_set
 .text.generic_onoff_client_set_unack
                0x00032cd8       0x94 examples/light_switch/client/CMakeFiles/light_switch_client_nrf52832_xxAA_s132_6.1.1.dir/__/__/__/models/model_spec/generic_onoff/src/generic_onoff_client.c.obj
                0x00032cd8                generic_onoff_client_set_unack
 .text.model_transition_time_decode
                0x00032d6c       0x40 examples/light_switch/client/CMakeFiles/light_switch_client_nrf52832_xxAA_s132_6.1.1.dir/__/__/__/models/model_spec/common/src/model_common.c.obj
                0x00032d6c                model_transition_time_decode
 .text.model_transition_time_encode
                0x00032dac       0x60 examples/light_switch/client/CMakeFiles/light_switch_client_nrf52832_xxAA_s132_6.1.1.dir/__/__/__/models/model_spec/common/src/model_common.c.obj
                0x00032dac                model_transition_time_encode
 .text.model_delay_encode
                0x00032e0c       0x10 examples/light_switch/client/CMakeFiles/light_switch_client_nrf52832_xxAA_s132_6.1.1.dir/__/__/__/models/model_spec/common/src/model_common.c.obj
                0x00032e0c                model_delay_encode
 .text.config_composition_data_get
                0x00032e1c      0x17a examples/light_switch/client/CMakeFiles/light_switch_client_nrf52832_xxAA_s132_6.1.1.dir/__/__/__/models/foundation/config/src/composition_data.c.obj
                0x00032e1c                config_composition_data_get
 *fill*         0x00032f96        0x2 
 .text.app_evt_send
                0x00032f98       0x10 examples/light_switch/client/CMakeFiles/light_switch_client_nrf52832_xxAA_s132_6.1.1.dir/__/__/__/models/foundation/config/src/config_server.c.obj
 .text.get_element_index
                0x00032fa8       0x2a examples/light_switch/client/CMakeFiles/light_switch_client_nrf52832_xxAA_s132_6.1.1.dir/__/__/__/models/foundation/config/src/config_server.c.obj
 .text.config_server_heartbeat_publication_params_get
                0x00032fd2       0x30 examples/light_switch/client/CMakeFiles/light_switch_client_nrf52832_xxAA_s132_6.1.1.dir/__/__/__/models/foundation/config/src/config_server.c.obj
 .text.send_reply
                0x00033002       0x34 examples/light_switch/client/CMakeFiles/light_switch_client_nrf52832_xxAA_s132_6.1.1.dir/__/__/__/models/foundation/config/src/config_server.c.obj
 .text.send_network_transmit_status
                0x00033036       0x5a examples/light_switch/client/CMakeFiles/light_switch_client_nrf52832_xxAA_s132_6.1.1.dir/__/__/__/models/foundation/config/src/config_server.c.obj
 .text.handle_config_network_transmit_set
                0x00033090       0x74 examples/light_switch/client/CMakeFiles/light_switch_client_nrf52832_xxAA_s132_6.1.1.dir/__/__/__/models/foundation/config/src/config_server.c.obj
 .text.handle_config_network_transmit_get
                0x00033104        0xa examples/light_switch/client/CMakeFiles/light_switch_client_nrf52832_xxAA_s132_6.1.1.dir/__/__/__/models/foundation/config/src/config_server.c.obj
 *fill*         0x0003310e        0x2 
 .text.handle_node_reset
                0x00033110       0x34 examples/light_switch/client/CMakeFiles/light_switch_client_nrf52832_xxAA_s132_6.1.1.dir/__/__/__/models/foundation/config/src/config_server.c.obj
 .text.send_netkey_status
                0x00033144       0x2c examples/light_switch/client/CMakeFiles/light_switch_client_nrf52832_xxAA_s132_6.1.1.dir/__/__/__/models/foundation/config/src/config_server.c.obj
 .text.send_relay_status
                0x00033170       0x7e examples/light_switch/client/CMakeFiles/light_switch_client_nrf52832_xxAA_s132_6.1.1.dir/__/__/__/models/foundation/config/src/config_server.c.obj
 .text.handle_config_relay_set
                0x000331ee       0x9a examples/light_switch/client/CMakeFiles/light_switch_client_nrf52832_xxAA_s132_6.1.1.dir/__/__/__/models/foundation/config/src/config_server.c.obj
 .text.handle_config_relay_get
                0x00033288        0xa examples/light_switch/client/CMakeFiles/light_switch_client_nrf52832_xxAA_s132_6.1.1.dir/__/__/__/models/foundation/config/src/config_server.c.obj
 .text.send_subscription_status
                0x00033292       0x42 examples/light_switch/client/CMakeFiles/light_switch_client_nrf52832_xxAA_s132_6.1.1.dir/__/__/__/models/foundation/config/src/config_server.c.obj
 .text.send_appkey_status
                0x000332d4       0x3a examples/light_switch/client/CMakeFiles/light_switch_client_nrf52832_xxAA_s132_6.1.1.dir/__/__/__/models/foundation/config/src/config_server.c.obj
 .text.handle_node_identity_set
                0x0003330e       0xa0 examples/light_switch/client/CMakeFiles/light_switch_client_nrf52832_xxAA_s132_6.1.1.dir/__/__/__/models/foundation/config/src/config_server.c.obj
 .text.handle_netkey_delete
                0x000333ae       0xbc examples/light_switch/client/CMakeFiles/light_switch_client_nrf52832_xxAA_s132_6.1.1.dir/__/__/__/models/foundation/config/src/config_server.c.obj
 *fill*         0x0003346a        0x2 
 .text.handle_netkey_add_update
                0x0003346c       0x78 examples/light_switch/client/CMakeFiles/light_switch_client_nrf52832_xxAA_s132_6.1.1.dir/__/__/__/models/foundation/config/src/config_server.c.obj
 .text.status_error_sub_send
                0x000334e4      0x124 examples/light_switch/client/CMakeFiles/light_switch_client_nrf52832_xxAA_s132_6.1.1.dir/__/__/__/models/foundation/config/src/config_server.c.obj
 .text.delete_all_subscriptions
                0x00033608       0x66 examples/light_switch/client/CMakeFiles/light_switch_client_nrf52832_xxAA_s132_6.1.1.dir/__/__/__/models/foundation/config/src/config_server.c.obj
 .text.send_publication_status
                0x0003366e      0x188 examples/light_switch/client/CMakeFiles/light_switch_client_nrf52832_xxAA_s132_6.1.1.dir/__/__/__/models/foundation/config/src/config_server.c.obj
 .text.handle_config_key_refresh_phase_set
                0x000337f6       0xc8 examples/light_switch/client/CMakeFiles/light_switch_client_nrf52832_xxAA_s132_6.1.1.dir/__/__/__/models/foundation/config/src/config_server.c.obj
 .text.handle_config_default_ttl_set
                0x000338be       0x50 examples/light_switch/client/CMakeFiles/light_switch_client_nrf52832_xxAA_s132_6.1.1.dir/__/__/__/models/foundation/config/src/config_server.c.obj
 .text.send_net_beacon_state
                0x0003390e       0x2c examples/light_switch/client/CMakeFiles/light_switch_client_nrf52832_xxAA_s132_6.1.1.dir/__/__/__/models/foundation/config/src/config_server.c.obj
 .text.handle_config_beacon_get
                0x0003393a        0xa examples/light_switch/client/CMakeFiles/light_switch_client_nrf52832_xxAA_s132_6.1.1.dir/__/__/__/models/foundation/config/src/config_server.c.obj
 .text.handle_heartbeat_publication_set
                0x00033944       0xea examples/light_switch/client/CMakeFiles/light_switch_client_nrf52832_xxAA_s132_6.1.1.dir/__/__/__/models/foundation/config/src/config_server.c.obj
 *fill*         0x00033a2e        0x2 
 .text.apply_reset
                0x00033a30       0x30 examples/light_switch/client/CMakeFiles/light_switch_client_nrf52832_xxAA_s132_6.1.1.dir/__/__/__/models/foundation/config/src/config_server.c.obj
 .text.mesh_event_cb
                0x00033a60       0x68 examples/light_switch/client/CMakeFiles/light_switch_client_nrf52832_xxAA_s132_6.1.1.dir/__/__/__/models/foundation/config/src/config_server.c.obj
 .text.handle_config_friend_set.part.6
                0x00033ac8       0x2a examples/light_switch/client/CMakeFiles/light_switch_client_nrf52832_xxAA_s132_6.1.1.dir/__/__/__/models/foundation/config/src/config_server.c.obj
 .text.handle_config_friend_set
                0x00033af2       0x14 examples/light_switch/client/CMakeFiles/light_switch_client_nrf52832_xxAA_s132_6.1.1.dir/__/__/__/models/foundation/config/src/config_server.c.obj
 .text.handle_config_friend_get
                0x00033b06        0xa examples/light_switch/client/CMakeFiles/light_switch_client_nrf52832_xxAA_s132_6.1.1.dir/__/__/__/models/foundation/config/src/config_server.c.obj
 .text.handle_config_key_refresh_phase_get
                0x00033b10       0x58 examples/light_switch/client/CMakeFiles/light_switch_client_nrf52832_xxAA_s132_6.1.1.dir/__/__/__/models/foundation/config/src/config_server.c.obj
 .text.handle_config_gatt_proxy_get
                0x00033b68       0x30 examples/light_switch/client/CMakeFiles/light_switch_client_nrf52832_xxAA_s132_6.1.1.dir/__/__/__/models/foundation/config/src/config_server.c.obj
 .text.handle_node_identity_get
                0x00033b98       0x64 examples/light_switch/client/CMakeFiles/light_switch_client_nrf52832_xxAA_s132_6.1.1.dir/__/__/__/models/foundation/config/src/config_server.c.obj
 .text.handle_netkey_get
                0x00033bfc       0x50 examples/light_switch/client/CMakeFiles/light_switch_client_nrf52832_xxAA_s132_6.1.1.dir/__/__/__/models/foundation/config/src/config_server.c.obj
 .text.handle_appkey_get
                0x00033c4c       0x82 examples/light_switch/client/CMakeFiles/light_switch_client_nrf52832_xxAA_s132_6.1.1.dir/__/__/__/models/foundation/config/src/config_server.c.obj
 .text.status_error_pub_send
                0x00033cce       0x90 examples/light_switch/client/CMakeFiles/light_switch_client_nrf52832_xxAA_s132_6.1.1.dir/__/__/__/models/foundation/config/src/config_server.c.obj
 .text.handle_config_gatt_proxy_set
                0x00033d5e       0x52 examples/light_switch/client/CMakeFiles/light_switch_client_nrf52832_xxAA_s132_6.1.1.dir/__/__/__/models/foundation/config/src/config_server.c.obj
 .text.handle_config_default_ttl_get
                0x00033db0       0x30 examples/light_switch/client/CMakeFiles/light_switch_client_nrf52832_xxAA_s132_6.1.1.dir/__/__/__/models/foundation/config/src/config_server.c.obj
 .text.handle_config_beacon_set
                0x00033de0       0x42 examples/light_switch/client/CMakeFiles/light_switch_client_nrf52832_xxAA_s132_6.1.1.dir/__/__/__/models/foundation/config/src/config_server.c.obj
 .text.handle_composition_data_get
                0x00033e22       0x44 examples/light_switch/client/CMakeFiles/light_switch_client_nrf52832_xxAA_s132_6.1.1.dir/__/__/__/models/foundation/config/src/config_server.c.obj
 *fill*         0x00033e66        0x2 
 .text.handle_appkey_add
                0x00033e68      0x140 examples/light_switch/client/CMakeFiles/light_switch_client_nrf52832_xxAA_s132_6.1.1.dir/__/__/__/models/foundation/config/src/config_server.c.obj
 .text.get_subscription_list.constprop.25
                0x00033fa8       0x4e examples/light_switch/client/CMakeFiles/light_switch_client_nrf52832_xxAA_s132_6.1.1.dir/__/__/__/models/foundation/config/src/config_server.c.obj
 .text.handle_config_sig_model_subscription_get
                0x00033ff6       0xa2 examples/light_switch/client/CMakeFiles/light_switch_client_nrf52832_xxAA_s132_6.1.1.dir/__/__/__/models/foundation/config/src/config_server.c.obj
 .text.heartbeat_subscription_count_encode
                0x00034098       0x32 examples/light_switch/client/CMakeFiles/light_switch_client_nrf52832_xxAA_s132_6.1.1.dir/__/__/__/models/foundation/config/src/config_server.c.obj
 .text.heartbeat_pubsub_period_encode
                0x000340ca       0x26 examples/light_switch/client/CMakeFiles/light_switch_client_nrf52832_xxAA_s132_6.1.1.dir/__/__/__/models/foundation/config/src/config_server.c.obj
 .text.handle_heartbeat_publication_get
                0x000340f0       0x8a examples/light_switch/client/CMakeFiles/light_switch_client_nrf52832_xxAA_s132_6.1.1.dir/__/__/__/models/foundation/config/src/config_server.c.obj
 .text.handle_heartbeat_subscription_get
                0x0003417a       0x84 examples/light_switch/client/CMakeFiles/light_switch_client_nrf52832_xxAA_s132_6.1.1.dir/__/__/__/models/foundation/config/src/config_server.c.obj
 .text.handle_appkey_update
                0x000341fe       0xbc examples/light_switch/client/CMakeFiles/light_switch_client_nrf52832_xxAA_s132_6.1.1.dir/__/__/__/models/foundation/config/src/config_server.c.obj
 .text.handle_appkey_delete
                0x000342ba       0xc2 examples/light_switch/client/CMakeFiles/light_switch_client_nrf52832_xxAA_s132_6.1.1.dir/__/__/__/models/foundation/config/src/config_server.c.obj
 .text.handle_heartbeat_subscription_set
                0x0003437c       0xa8 examples/light_switch/client/CMakeFiles/light_switch_client_nrf52832_xxAA_s132_6.1.1.dir/__/__/__/models/foundation/config/src/config_server.c.obj
 .text.handle_config_model_publication_get
                0x00034424       0x8c examples/light_switch/client/CMakeFiles/light_switch_client_nrf52832_xxAA_s132_6.1.1.dir/__/__/__/models/foundation/config/src/config_server.c.obj
 .text.handle_config_model_subscription_delete_all
                0x000344b0       0xc2 examples/light_switch/client/CMakeFiles/light_switch_client_nrf52832_xxAA_s132_6.1.1.dir/__/__/__/models/foundation/config/src/config_server.c.obj
 .text.handle_config_model_subscription_virtual_address_delete
                0x00034572      0x108 examples/light_switch/client/CMakeFiles/light_switch_client_nrf52832_xxAA_s132_6.1.1.dir/__/__/__/models/foundation/config/src/config_server.c.obj
 .text.handle_config_model_subscription_virtual_address_add
                0x0003467a      0x106 examples/light_switch/client/CMakeFiles/light_switch_client_nrf52832_xxAA_s132_6.1.1.dir/__/__/__/models/foundation/config/src/config_server.c.obj
 .text.handle_config_model_subscription_delete
                0x00034780      0x10e examples/light_switch/client/CMakeFiles/light_switch_client_nrf52832_xxAA_s132_6.1.1.dir/__/__/__/models/foundation/config/src/config_server.c.obj
 .text.handle_config_model_subscription_add
                0x0003488e      0x112 examples/light_switch/client/CMakeFiles/light_switch_client_nrf52832_xxAA_s132_6.1.1.dir/__/__/__/models/foundation/config/src/config_server.c.obj
 .text.handle_config_model_subscription_virtual_address_overwrite
                0x000349a0      0x120 examples/light_switch/client/CMakeFiles/light_switch_client_nrf52832_xxAA_s132_6.1.1.dir/__/__/__/models/foundation/config/src/config_server.c.obj
 .text.handle_model_app_get
                0x00034ac0      0x19c examples/light_switch/client/CMakeFiles/light_switch_client_nrf52832_xxAA_s132_6.1.1.dir/__/__/__/models/foundation/config/src/config_server.c.obj
 .text.handle_config_model_subscription_overwrite
                0x00034c5c      0x11a examples/light_switch/client/CMakeFiles/light_switch_client_nrf52832_xxAA_s132_6.1.1.dir/__/__/__/models/foundation/config/src/config_server.c.obj
 .text.handle_config_vendor_model_subscription_get
                0x00034d76       0xde examples/light_switch/client/CMakeFiles/light_switch_client_nrf52832_xxAA_s132_6.1.1.dir/__/__/__/models/foundation/config/src/config_server.c.obj
 .text.handle_model_app_bind_unbind
                0x00034e54      0x1ec examples/light_switch/client/CMakeFiles/light_switch_client_nrf52832_xxAA_s132_6.1.1.dir/__/__/__/models/foundation/config/src/config_server.c.obj
 .text.handle_config_model_publication_set
                0x00035040      0x2d6 examples/light_switch/client/CMakeFiles/light_switch_client_nrf52832_xxAA_s132_6.1.1.dir/__/__/__/models/foundation/config/src/config_server.c.obj
 *fill*         0x00035316        0x2 
 .text.config_server_init
                0x00035318       0x60 examples/light_switch/client/CMakeFiles/light_switch_client_nrf52832_xxAA_s132_6.1.1.dir/__/__/__/models/foundation/config/src/config_server.c.obj
                0x00035318                config_server_init
 .text.config_server_bind
                0x00035378       0x10 examples/light_switch/client/CMakeFiles/light_switch_client_nrf52832_xxAA_s132_6.1.1.dir/__/__/__/models/foundation/config/src/config_server.c.obj
                0x00035378                config_server_bind
 .text.packed_index_list_create
                0x00035388       0x32 examples/light_switch/client/CMakeFiles/light_switch_client_nrf52832_xxAA_s132_6.1.1.dir/__/__/__/models/foundation/config/src/packed_index_list.c.obj
                0x00035388                packed_index_list_create
 *fill*         0x000353ba        0x2 
 .text.health_server_fpd_get
                0x000353bc       0x20 examples/light_switch/client/CMakeFiles/light_switch_client_nrf52832_xxAA_s132_6.1.1.dir/__/__/__/models/foundation/health/src/health_server.c.obj
 .text.health_server_fpd_delete
                0x000353dc       0x20 examples/light_switch/client/CMakeFiles/light_switch_client_nrf52832_xxAA_s132_6.1.1.dir/__/__/__/models/foundation/health/src/health_server.c.obj
 .text.attention_timer_handler
                0x000353fc       0x5c examples/light_switch/client/CMakeFiles/light_switch_client_nrf52832_xxAA_s132_6.1.1.dir/__/__/__/models/foundation/health/src/health_server.c.obj
 .text.send_attention_status
                0x00035458       0x44 examples/light_switch/client/CMakeFiles/light_switch_client_nrf52832_xxAA_s132_6.1.1.dir/__/__/__/models/foundation/health/src/health_server.c.obj
 .text.handle_attention_get
                0x0003549c        0xc examples/light_switch/client/CMakeFiles/light_switch_client_nrf52832_xxAA_s132_6.1.1.dir/__/__/__/models/foundation/health/src/health_server.c.obj
 .text.send_period_status
                0x000354a8       0x40 examples/light_switch/client/CMakeFiles/light_switch_client_nrf52832_xxAA_s132_6.1.1.dir/__/__/__/models/foundation/health/src/health_server.c.obj
 .text.handle_period_get
                0x000354e8        0xc examples/light_switch/client/CMakeFiles/light_switch_client_nrf52832_xxAA_s132_6.1.1.dir/__/__/__/models/foundation/health/src/health_server.c.obj
 .text.attention_timer_set.part.1
                0x000354f4       0x84 examples/light_switch/client/CMakeFiles/light_switch_client_nrf52832_xxAA_s132_6.1.1.dir/__/__/__/models/foundation/health/src/health_server.c.obj
 .text.handle_attention_set
                0x00035578       0x32 examples/light_switch/client/CMakeFiles/light_switch_client_nrf52832_xxAA_s132_6.1.1.dir/__/__/__/models/foundation/health/src/health_server.c.obj
 *fill*         0x000355aa        0x2 
 .text.handle_period_set
                0x000355ac       0x68 examples/light_switch/client/CMakeFiles/light_switch_client_nrf52832_xxAA_s132_6.1.1.dir/__/__/__/models/foundation/health/src/health_server.c.obj
 .text.bitfield_next_get.part.0.constprop.10
                0x00035614       0x44 examples/light_switch/client/CMakeFiles/light_switch_client_nrf52832_xxAA_s132_6.1.1.dir/__/__/__/models/foundation/health/src/health_server.c.obj
 .text.send_fault_status
                0x00035658       0x8c examples/light_switch/client/CMakeFiles/light_switch_client_nrf52832_xxAA_s132_6.1.1.dir/__/__/__/models/foundation/health/src/health_server.c.obj
 .text.health_publish_timeout_handler
                0x000356e4        0xa examples/light_switch/client/CMakeFiles/light_switch_client_nrf52832_xxAA_s132_6.1.1.dir/__/__/__/models/foundation/health/src/health_server.c.obj
 .text.handle_fault_test
                0x000356ee       0x66 examples/light_switch/client/CMakeFiles/light_switch_client_nrf52832_xxAA_s132_6.1.1.dir/__/__/__/models/foundation/health/src/health_server.c.obj
 .text.handle_fault_get
                0x00035754       0x32 examples/light_switch/client/CMakeFiles/light_switch_client_nrf52832_xxAA_s132_6.1.1.dir/__/__/__/models/foundation/health/src/health_server.c.obj
 .text.handle_fault_clear
                0x00035786       0x48 examples/light_switch/client/CMakeFiles/light_switch_client_nrf52832_xxAA_s132_6.1.1.dir/__/__/__/models/foundation/health/src/health_server.c.obj
 .text.health_server_fault_count_get
                0x000357ce       0x2c examples/light_switch/client/CMakeFiles/light_switch_client_nrf52832_xxAA_s132_6.1.1.dir/__/__/__/models/foundation/health/src/health_server.c.obj
                0x000357ce                health_server_fault_count_get
 *fill*         0x000357fa        0x2 
 .text.health_server_fpd_set
                0x000357fc       0x44 examples/light_switch/client/CMakeFiles/light_switch_client_nrf52832_xxAA_s132_6.1.1.dir/__/__/__/models/foundation/health/src/health_server.c.obj
 .text.health_server_init
                0x00035840       0x78 examples/light_switch/client/CMakeFiles/light_switch_client_nrf52832_xxAA_s132_6.1.1.dir/__/__/__/models/foundation/health/src/health_server.c.obj
                0x00035840                health_server_init
 .text.add_to_publication_list
                0x000358b8       0x78 examples/light_switch/client/CMakeFiles/light_switch_client_nrf52832_xxAA_s132_6.1.1.dir/__/__/__/mesh/access/src/access_publish.c.obj
 .text.step_resolution_to_us
                0x00035930       0x38 examples/light_switch/client/CMakeFiles/light_switch_client_nrf52832_xxAA_s132_6.1.1.dir/__/__/__/mesh/access/src/access_publish.c.obj
 .text.schedule_publication_timer
                0x00035968      0x184 examples/light_switch/client/CMakeFiles/light_switch_client_nrf52832_xxAA_s132_6.1.1.dir/__/__/__/mesh/access/src/access_publish.c.obj
 .text.publish_timer_tick
                0x00035aec       0xa8 examples/light_switch/client/CMakeFiles/light_switch_client_nrf52832_xxAA_s132_6.1.1.dir/__/__/__/mesh/access/src/access_publish.c.obj
 .text.access_publish_init
                0x00035b94       0x38 examples/light_switch/client/CMakeFiles/light_switch_client_nrf52832_xxAA_s132_6.1.1.dir/__/__/__/mesh/access/src/access_publish.c.obj
                0x00035b94                access_publish_init
 .text.access_publish_period_set
                0x00035bcc       0x60 examples/light_switch/client/CMakeFiles/light_switch_client_nrf52832_xxAA_s132_6.1.1.dir/__/__/__/mesh/access/src/access_publish.c.obj
                0x00035bcc                access_publish_period_set
 .text.get_next_timeout_index
                0x00035c2c       0x40 examples/light_switch/client/CMakeFiles/light_switch_client_nrf52832_xxAA_s132_6.1.1.dir/__/__/__/mesh/access/src/access_publish_retransmission.c.obj
 .text.message_remove
                0x00035c6c       0x5c examples/light_switch/client/CMakeFiles/light_switch_client_nrf52832_xxAA_s132_6.1.1.dir/__/__/__/mesh/access/src/access_publish_retransmission.c.obj
 .text.retransmissions_timer_cb
                0x00035cc8       0xc8 examples/light_switch/client/CMakeFiles/light_switch_client_nrf52832_xxAA_s132_6.1.1.dir/__/__/__/mesh/access/src/access_publish_retransmission.c.obj
 .text.access_publish_retransmission_init
                0x00035d90       0x24 examples/light_switch/client/CMakeFiles/light_switch_client_nrf52832_xxAA_s132_6.1.1.dir/__/__/__/mesh/access/src/access_publish_retransmission.c.obj
                0x00035d90                access_publish_retransmission_init
 .text.access_publish_retransmission_message_add
                0x00035db4       0xf8 examples/light_switch/client/CMakeFiles/light_switch_client_nrf52832_xxAA_s132_6.1.1.dir/__/__/__/mesh/access/src/access_publish_retransmission.c.obj
                0x00035db4                access_publish_retransmission_message_add
 .text.bitfield_get
                0x00035eac       0x1a examples/light_switch/client/CMakeFiles/light_switch_client_nrf52832_xxAA_s132_6.1.1.dir/__/__/__/mesh/access/src/access.c.obj
 .text.is_valid_opcode
                0x00035ec6       0x42 examples/light_switch/client/CMakeFiles/light_switch_client_nrf52832_xxAA_s132_6.1.1.dir/__/__/__/mesh/access/src/access.c.obj
 .text.model_handle_valid_and_allocated
                0x00035f08       0x20 examples/light_switch/client/CMakeFiles/light_switch_client_nrf52832_xxAA_s132_6.1.1.dir/__/__/__/mesh/access/src/access.c.obj
 .text.flash_manager_mem_available
                0x00035f28        0x2 examples/light_switch/client/CMakeFiles/light_switch_client_nrf52832_xxAA_s132_6.1.1.dir/__/__/__/mesh/access/src/access.c.obj
 *fill*         0x00035f2a        0x2 
 .text.restore_acquired_subscription
                0x00035f2c       0x30 examples/light_switch/client/CMakeFiles/light_switch_client_nrf52832_xxAA_s132_6.1.1.dir/__/__/__/mesh/access/src/access.c.obj
 .text.restore_acquired_element
                0x00035f5c       0x24 examples/light_switch/client/CMakeFiles/light_switch_client_nrf52832_xxAA_s132_6.1.1.dir/__/__/__/mesh/access/src/access.c.obj
 .text.restore_flash_data
                0x00035f80       0x28 examples/light_switch/client/CMakeFiles/light_switch_client_nrf52832_xxAA_s132_6.1.1.dir/__/__/__/mesh/access/src/access.c.obj
 .text.check_tx_params
                0x00035fa8       0x5c examples/light_switch/client/CMakeFiles/light_switch_client_nrf52832_xxAA_s132_6.1.1.dir/__/__/__/mesh/access/src/access.c.obj
 .text.flash_invalidate_complete
                0x00036004        0x6 examples/light_switch/client/CMakeFiles/light_switch_client_nrf52832_xxAA_s132_6.1.1.dir/__/__/__/mesh/access/src/access.c.obj
 *fill*         0x0003600a        0x2 
 .text.access_flash_config_clear
                0x0003600c       0x3c examples/light_switch/client/CMakeFiles/light_switch_client_nrf52832_xxAA_s132_6.1.1.dir/__/__/__/mesh/access/src/access.c.obj
 .text.access_state_clear
                0x00036048       0x50 examples/light_switch/client/CMakeFiles/light_switch_client_nrf52832_xxAA_s132_6.1.1.dir/__/__/__/mesh/access/src/access.c.obj
 .text.packet_tx
                0x00036098      0x204 examples/light_switch/client/CMakeFiles/light_switch_client_nrf52832_xxAA_s132_6.1.1.dir/__/__/__/mesh/access/src/access.c.obj
 .text.access_flash_config_store
                0x0003629c      0x164 examples/light_switch/client/CMakeFiles/light_switch_client_nrf52832_xxAA_s132_6.1.1.dir/__/__/__/mesh/access/src/access.c.obj
                0x0003629c                access_flash_config_store
 .text.flash_write_complete
                0x00036400       0x46 examples/light_switch/client/CMakeFiles/light_switch_client_nrf52832_xxAA_s132_6.1.1.dir/__/__/__/mesh/access/src/access.c.obj
 *fill*         0x00036446        0x2 
 .text.bitfield_next_get.part.0.constprop.8
                0x00036448       0x34 examples/light_switch/client/CMakeFiles/light_switch_client_nrf52832_xxAA_s132_6.1.1.dir/__/__/__/mesh/access/src/access.c.obj
 .text.packet_alloc_and_tx
                0x0003647c       0xbe examples/light_switch/client/CMakeFiles/light_switch_client_nrf52832_xxAA_s132_6.1.1.dir/__/__/__/mesh/access/src/access.c.obj
 *fill*         0x0003653a        0x2 
 .text.restore_acquired_model
                0x0003653c       0x90 examples/light_switch/client/CMakeFiles/light_switch_client_nrf52832_xxAA_s132_6.1.1.dir/__/__/__/mesh/access/src/access.c.obj
 .text.access_flash_config_load
                0x000365cc      0x1b4 examples/light_switch/client/CMakeFiles/light_switch_client_nrf52832_xxAA_s132_6.1.1.dir/__/__/__/mesh/access/src/access.c.obj
                0x000365cc                access_flash_config_load
 .text.access_incoming_handle
                0x00036780      0x1ac examples/light_switch/client/CMakeFiles/light_switch_client_nrf52832_xxAA_s132_6.1.1.dir/__/__/__/mesh/access/src/access.c.obj
                0x00036780                access_incoming_handle
 .text.mesh_msg_handle
                0x0003692c      0x1cc examples/light_switch/client/CMakeFiles/light_switch_client_nrf52832_xxAA_s132_6.1.1.dir/__/__/__/mesh/access/src/access.c.obj
 .text.mesh_evt_cb
                0x00036af8        0xc examples/light_switch/client/CMakeFiles/light_switch_client_nrf52832_xxAA_s132_6.1.1.dir/__/__/__/mesh/access/src/access.c.obj
 .text.access_packet_tx
                0x00036b04       0x32 examples/light_switch/client/CMakeFiles/light_switch_client_nrf52832_xxAA_s132_6.1.1.dir/__/__/__/mesh/access/src/access.c.obj
                0x00036b04                access_packet_tx
 .text.access_clear
                0x00036b36       0x12 examples/light_switch/client/CMakeFiles/light_switch_client_nrf52832_xxAA_s132_6.1.1.dir/__/__/__/mesh/access/src/access.c.obj
                0x00036b36                access_clear
 .text.access_model_add
                0x00036b48      0x1b0 examples/light_switch/client/CMakeFiles/light_switch_client_nrf52832_xxAA_s132_6.1.1.dir/__/__/__/mesh/access/src/access.c.obj
                0x00036b48                access_model_add
 .text.access_model_publish
                0x00036cf8       0x58 examples/light_switch/client/CMakeFiles/light_switch_client_nrf52832_xxAA_s132_6.1.1.dir/__/__/__/mesh/access/src/access.c.obj
                0x00036cf8                access_model_publish
 .text.access_model_reply
                0x00036d50       0x1c examples/light_switch/client/CMakeFiles/light_switch_client_nrf52832_xxAA_s132_6.1.1.dir/__/__/__/mesh/access/src/access.c.obj
                0x00036d50                access_model_reply
 .text.access_model_publish_address_set
                0x00036d6c       0x3c examples/light_switch/client/CMakeFiles/light_switch_client_nrf52832_xxAA_s132_6.1.1.dir/__/__/__/mesh/access/src/access.c.obj
                0x00036d6c                access_model_publish_address_set
 .text.access_model_publish_address_get
                0x00036da8       0x28 examples/light_switch/client/CMakeFiles/light_switch_client_nrf52832_xxAA_s132_6.1.1.dir/__/__/__/mesh/access/src/access.c.obj
                0x00036da8                access_model_publish_address_get
 .text.access_model_publish_retransmit_set
                0x00036dd0       0x4c examples/light_switch/client/CMakeFiles/light_switch_client_nrf52832_xxAA_s132_6.1.1.dir/__/__/__/mesh/access/src/access.c.obj
                0x00036dd0                access_model_publish_retransmit_set
 .text.access_model_publish_retransmit_get
                0x00036e1c       0x2c examples/light_switch/client/CMakeFiles/light_switch_client_nrf52832_xxAA_s132_6.1.1.dir/__/__/__/mesh/access/src/access.c.obj
                0x00036e1c                access_model_publish_retransmit_get
 .text.access_model_publish_period_get
                0x00036e48       0x40 examples/light_switch/client/CMakeFiles/light_switch_client_nrf52832_xxAA_s132_6.1.1.dir/__/__/__/mesh/access/src/access.c.obj
                0x00036e48                access_model_publish_period_get
 .text.access_publish_timing_update
                0x00036e88       0xc0 examples/light_switch/client/CMakeFiles/light_switch_client_nrf52832_xxAA_s132_6.1.1.dir/__/__/__/mesh/access/src/access.c.obj
 .text.access_model_publish_period_divisor_set
                0x00036f48       0x38 examples/light_switch/client/CMakeFiles/light_switch_client_nrf52832_xxAA_s132_6.1.1.dir/__/__/__/mesh/access/src/access.c.obj
                0x00036f48                access_model_publish_period_divisor_set
 .text.access_model_publish_period_set
                0x00036f80       0x6c examples/light_switch/client/CMakeFiles/light_switch_client_nrf52832_xxAA_s132_6.1.1.dir/__/__/__/mesh/access/src/access.c.obj
                0x00036f80                access_model_publish_period_set
 .text.access_model_subscription_list_alloc
                0x00036fec       0x60 examples/light_switch/client/CMakeFiles/light_switch_client_nrf52832_xxAA_s132_6.1.1.dir/__/__/__/mesh/access/src/access.c.obj
                0x00036fec                access_model_subscription_list_alloc
 .text.access_model_subscription_add
                0x0003704c       0x60 examples/light_switch/client/CMakeFiles/light_switch_client_nrf52832_xxAA_s132_6.1.1.dir/__/__/__/mesh/access/src/access.c.obj
                0x0003704c                access_model_subscription_add
 .text.access_model_subscription_remove
                0x000370ac       0x60 examples/light_switch/client/CMakeFiles/light_switch_client_nrf52832_xxAA_s132_6.1.1.dir/__/__/__/mesh/access/src/access.c.obj
                0x000370ac                access_model_subscription_remove
 .text.access_model_subscriptions_get
                0x0003710c       0x74 examples/light_switch/client/CMakeFiles/light_switch_client_nrf52832_xxAA_s132_6.1.1.dir/__/__/__/mesh/access/src/access.c.obj
                0x0003710c                access_model_subscriptions_get
 .text.access_model_application_bind
                0x00037180       0x50 examples/light_switch/client/CMakeFiles/light_switch_client_nrf52832_xxAA_s132_6.1.1.dir/__/__/__/mesh/access/src/access.c.obj
                0x00037180                access_model_application_bind
 .text.access_model_application_unbind
                0x000371d0       0x50 examples/light_switch/client/CMakeFiles/light_switch_client_nrf52832_xxAA_s132_6.1.1.dir/__/__/__/mesh/access/src/access.c.obj
                0x000371d0                access_model_application_unbind
 .text.access_model_applications_get
                0x00037220       0x5c examples/light_switch/client/CMakeFiles/light_switch_client_nrf52832_xxAA_s132_6.1.1.dir/__/__/__/mesh/access/src/access.c.obj
                0x00037220                access_model_applications_get
 .text.access_model_publish_application_set
                0x0003727c       0x3c examples/light_switch/client/CMakeFiles/light_switch_client_nrf52832_xxAA_s132_6.1.1.dir/__/__/__/mesh/access/src/access.c.obj
                0x0003727c                access_model_publish_application_set
 .text.access_model_publish_application_get
                0x000372b8       0x28 examples/light_switch/client/CMakeFiles/light_switch_client_nrf52832_xxAA_s132_6.1.1.dir/__/__/__/mesh/access/src/access.c.obj
                0x000372b8                access_model_publish_application_get
 .text.access_default_ttl_set
                0x000372e0       0x18 examples/light_switch/client/CMakeFiles/light_switch_client_nrf52832_xxAA_s132_6.1.1.dir/__/__/__/mesh/access/src/access.c.obj
                0x000372e0                access_default_ttl_set
 .text.access_default_ttl_get
                0x000372f8        0xc examples/light_switch/client/CMakeFiles/light_switch_client_nrf52832_xxAA_s132_6.1.1.dir/__/__/__/mesh/access/src/access.c.obj
                0x000372f8                access_default_ttl_get
 .text.access_model_publish_friendship_credential_flag_set
                0x00037304       0x38 examples/light_switch/client/CMakeFiles/light_switch_client_nrf52832_xxAA_s132_6.1.1.dir/__/__/__/mesh/access/src/access.c.obj
                0x00037304                access_model_publish_friendship_credential_flag_set
 .text.access_model_publish_friendship_credential_flag_get
                0x0003733c       0x28 examples/light_switch/client/CMakeFiles/light_switch_client_nrf52832_xxAA_s132_6.1.1.dir/__/__/__/mesh/access/src/access.c.obj
                0x0003733c                access_model_publish_friendship_credential_flag_get
 .text.access_model_publish_ttl_set
                0x00037364       0x40 examples/light_switch/client/CMakeFiles/light_switch_client_nrf52832_xxAA_s132_6.1.1.dir/__/__/__/mesh/access/src/access.c.obj
                0x00037364                access_model_publish_ttl_set
 .text.access_model_publish_ttl_get
                0x000373a4       0x28 examples/light_switch/client/CMakeFiles/light_switch_client_nrf52832_xxAA_s132_6.1.1.dir/__/__/__/mesh/access/src/access.c.obj
                0x000373a4                access_model_publish_ttl_get
 .text.access_element_location_get
                0x000373cc       0x20 examples/light_switch/client/CMakeFiles/light_switch_client_nrf52832_xxAA_s132_6.1.1.dir/__/__/__/mesh/access/src/access.c.obj
                0x000373cc                access_element_location_get
 .text.access_element_sig_model_count_get
                0x000373ec       0x24 examples/light_switch/client/CMakeFiles/light_switch_client_nrf52832_xxAA_s132_6.1.1.dir/__/__/__/mesh/access/src/access.c.obj
                0x000373ec                access_element_sig_model_count_get
 .text.access_element_vendor_model_count_get
                0x00037410       0x24 examples/light_switch/client/CMakeFiles/light_switch_client_nrf52832_xxAA_s132_6.1.1.dir/__/__/__/mesh/access/src/access.c.obj
                0x00037410                access_element_vendor_model_count_get
 .text.access_model_id_get
                0x00037434       0x2c examples/light_switch/client/CMakeFiles/light_switch_client_nrf52832_xxAA_s132_6.1.1.dir/__/__/__/mesh/access/src/access.c.obj
                0x00037434                access_model_id_get
 .text.access_handle_get
                0x00037460       0x60 examples/light_switch/client/CMakeFiles/light_switch_client_nrf52832_xxAA_s132_6.1.1.dir/__/__/__/mesh/access/src/access.c.obj
                0x00037460                access_handle_get
 .text.access_element_models_get
                0x000374c0       0x5c examples/light_switch/client/CMakeFiles/light_switch_client_nrf52832_xxAA_s132_6.1.1.dir/__/__/__/mesh/access/src/access.c.obj
                0x000374c0                access_element_models_get
 .text.access_model_p_args_get
                0x0003751c       0x28 examples/light_switch/client/CMakeFiles/light_switch_client_nrf52832_xxAA_s132_6.1.1.dir/__/__/__/mesh/access/src/access.c.obj
                0x0003751c                access_model_p_args_get
 .text.access_model_publication_stop
                0x00037544       0x58 examples/light_switch/client/CMakeFiles/light_switch_client_nrf52832_xxAA_s132_6.1.1.dir/__/__/__/mesh/access/src/access.c.obj
                0x00037544                access_model_publication_stop
 .text.access_model_publication_by_appkey_stop
                0x0003759c       0x36 examples/light_switch/client/CMakeFiles/light_switch_client_nrf52832_xxAA_s132_6.1.1.dir/__/__/__/mesh/access/src/access.c.obj
                0x0003759c                access_model_publication_by_appkey_stop
 .text.access_flash_area_get
                0x000375d2        0xc examples/light_switch/client/CMakeFiles/light_switch_client_nrf52832_xxAA_s132_6.1.1.dir/__/__/__/mesh/access/src/access.c.obj
                0x000375d2                access_flash_area_get
 *fill*         0x000375de        0x2 
 .text.add_flash_manager
                0x000375e0       0x54 examples/light_switch/client/CMakeFiles/light_switch_client_nrf52832_xxAA_s132_6.1.1.dir/__/__/__/mesh/access/src/access.c.obj
 .text.access_init
                0x00037634       0x34 examples/light_switch/client/CMakeFiles/light_switch_client_nrf52832_xxAA_s132_6.1.1.dir/__/__/__/mesh/access/src/access.c.obj
                0x00037634                access_init
 .text.flash_remove_complete
                0x00037668       0x64 examples/light_switch/client/CMakeFiles/light_switch_client_nrf52832_xxAA_s132_6.1.1.dir/__/__/__/mesh/access/src/access.c.obj
 .text.reliable_timer_cb
                0x000376cc      0x18c examples/light_switch/client/CMakeFiles/light_switch_client_nrf52832_xxAA_s132_6.1.1.dir/__/__/__/mesh/access/src/access_reliable.c.obj
 .text.remove_and_reschedule
                0x00037858       0xac examples/light_switch/client/CMakeFiles/light_switch_client_nrf52832_xxAA_s132_6.1.1.dir/__/__/__/mesh/access/src/access_reliable.c.obj
 .text.access_reliable_message_rx_cb
                0x00037904       0x60 examples/light_switch/client/CMakeFiles/light_switch_client_nrf52832_xxAA_s132_6.1.1.dir/__/__/__/mesh/access/src/access_reliable.c.obj
                0x00037904                access_reliable_message_rx_cb
 .text.access_reliable_model_is_free
                0x00037964       0x28 examples/light_switch/client/CMakeFiles/light_switch_client_nrf52832_xxAA_s132_6.1.1.dir/__/__/__/mesh/access/src/access_reliable.c.obj
                0x00037964                access_reliable_model_is_free
 .text.access_reliable_init
                0x0003798c       0x20 examples/light_switch/client/CMakeFiles/light_switch_client_nrf52832_xxAA_s132_6.1.1.dir/__/__/__/mesh/access/src/access_reliable.c.obj
                0x0003798c                access_reliable_init
 .text.access_reliable_cancel_all
                0x000379ac       0x5c examples/light_switch/client/CMakeFiles/light_switch_client_nrf52832_xxAA_s132_6.1.1.dir/__/__/__/mesh/access/src/access_reliable.c.obj
                0x000379ac                access_reliable_cancel_all
 .text.access_model_reliable_cancel
                0x00037a08       0x68 examples/light_switch/client/CMakeFiles/light_switch_client_nrf52832_xxAA_s132_6.1.1.dir/__/__/__/mesh/access/src/access_reliable.c.obj
                0x00037a08                access_model_reliable_cancel
 .text.access_model_reliable_publish
