Archive member included to satisfy reference by file (symbol)

external/rtt/librtt_nrf52832_xxAA.a(SEGGER_RTT.c.obj)
                              examples/pb_remote/client/CMakeFiles/pb_remote_client_nrf52832_xxAA_s132_6.1.1.dir/__/__/__/mesh/core/src/log.c.obj (SEGGER_RTT_Write)
external/rtt/librtt_nrf52832_xxAA.a(SEGGER_RTT_printf.c.obj)
                              examples/pb_remote/client/CMakeFiles/pb_remote_client_nrf52832_xxAA_s132_6.1.1.dir/__/__/__/mesh/core/src/log.c.obj (SEGGER_RTT_vprintf)
external/micro-ecc/libuECC_nrf52832_xxAA.a(uECC.c.obj)
                              examples/pb_remote/client/CMakeFiles/pb_remote_client_nrf52832_xxAA_s132_6.1.1.dir/__/__/__/mesh/prov/src/prov_utils.c.obj (uECC_secp256r1)
c:/mesh/arm_gcc/bin/../lib/gcc/arm-none-eabi/7.3.1/thumb/v7e-m/fpv4-sp/hard\libgcc.a(_aeabi_ldivmod.o)
                              examples/pb_remote/client/CMakeFiles/pb_remote_client_nrf52832_xxAA_s132_6.1.1.dir/__/__/common/src/rtt_input.c.obj (__aeabi_ldivmod)
c:/mesh/arm_gcc/bin/../lib/gcc/arm-none-eabi/7.3.1/thumb/v7e-m/fpv4-sp/hard\libgcc.a(_aeabi_uldivmod.o)
                              examples/pb_remote/client/CMakeFiles/pb_remote_client_nrf52832_xxAA_s132_6.1.1.dir/__/__/common/src/rtt_input.c.obj (__aeabi_uldivmod)
c:/mesh/arm_gcc/bin/../lib/gcc/arm-none-eabi/7.3.1/thumb/v7e-m/fpv4-sp/hard\libgcc.a(_udivmoddi4.o)
                              c:/mesh/arm_gcc/bin/../lib/gcc/arm-none-eabi/7.3.1/thumb/v7e-m/fpv4-sp/hard\libgcc.a(_aeabi_ldivmod.o) (__udivmoddi4)
c:/mesh/arm_gcc/bin/../lib/gcc/arm-none-eabi/7.3.1/thumb/v7e-m/fpv4-sp/hard\libgcc.a(_dvmd_tls.o)
                              c:/mesh/arm_gcc/bin/../lib/gcc/arm-none-eabi/7.3.1/thumb/v7e-m/fpv4-sp/hard\libgcc.a(_aeabi_ldivmod.o) (__aeabi_ldiv0)
c:/mesh/arm_gcc/bin/../lib/gcc/arm-none-eabi/7.3.1/../../../../arm-none-eabi/lib/thumb/v7e-m/fpv4-sp/hard\libg_nano.a(lib_a-calloc.o)
                              examples/pb_remote/client/CMakeFiles/pb_remote_client_nrf52832_xxAA_s132_6.1.1.dir/__/__/__/mesh/core/src/mesh_mem_stdlib.c.obj (calloc)
c:/mesh/arm_gcc/bin/../lib/gcc/arm-none-eabi/7.3.1/../../../../arm-none-eabi/lib/thumb/v7e-m/fpv4-sp/hard\libg_nano.a(lib_a-exit.o)
                              c:/mesh/arm_gcc/bin/../lib/gcc/arm-none-eabi/7.3.1/../../../../arm-none-eabi/lib/thumb/v7e-m/fpv4-sp/hard/crt0.o (exit)
c:/mesh/arm_gcc/bin/../lib/gcc/arm-none-eabi/7.3.1/../../../../arm-none-eabi/lib/thumb/v7e-m/fpv4-sp/hard\libg_nano.a(lib_a-impure.o)
                              c:/mesh/arm_gcc/bin/../lib/gcc/arm-none-eabi/7.3.1/../../../../arm-none-eabi/lib/thumb/v7e-m/fpv4-sp/hard\libg_nano.a(lib_a-exit.o) (_global_impure_ptr)
c:/mesh/arm_gcc/bin/../lib/gcc/arm-none-eabi/7.3.1/../../../../arm-none-eabi/lib/thumb/v7e-m/fpv4-sp/hard\libg_nano.a(lib_a-init.o)
                              c:/mesh/arm_gcc/bin/../lib/gcc/arm-none-eabi/7.3.1/../../../../arm-none-eabi/lib/thumb/v7e-m/fpv4-sp/hard/crt0.o (__libc_init_array)
c:/mesh/arm_gcc/bin/../lib/gcc/arm-none-eabi/7.3.1/../../../../arm-none-eabi/lib/thumb/v7e-m/fpv4-sp/hard\libg_nano.a(lib_a-malloc.o)
                              examples/pb_remote/client/CMakeFiles/pb_remote_client_nrf52832_xxAA_s132_6.1.1.dir/__/__/__/mesh/core/src/mesh_mem_stdlib.c.obj (malloc)
c:/mesh/arm_gcc/bin/../lib/gcc/arm-none-eabi/7.3.1/../../../../arm-none-eabi/lib/thumb/v7e-m/fpv4-sp/hard\libg_nano.a(lib_a-memcmp.o)
                              examples/pb_remote/client/CMakeFiles/pb_remote_client_nrf52832_xxAA_s132_6.1.1.dir/C_/mesh/deps/nRF5_SDK_15.3.0_59ac345/components/ble/common/ble_advdata.c.obj (memcmp)
c:/mesh/arm_gcc/bin/../lib/gcc/arm-none-eabi/7.3.1/../../../../arm-none-eabi/lib/thumb/v7e-m/fpv4-sp/hard\libg_nano.a(lib_a-memcpy-stub.o)
                              examples/pb_remote/client/CMakeFiles/pb_remote_client_nrf52832_xxAA_s132_6.1.1.dir/src/main.c.obj (memcpy)
c:/mesh/arm_gcc/bin/../lib/gcc/arm-none-eabi/7.3.1/../../../../arm-none-eabi/lib/thumb/v7e-m/fpv4-sp/hard\libg_nano.a(lib_a-memset.o)
                              c:/mesh/arm_gcc/bin/../lib/gcc/arm-none-eabi/7.3.1/../../../../arm-none-eabi/lib/thumb/v7e-m/fpv4-sp/hard/crt0.o (memset)
c:/mesh/arm_gcc/bin/../lib/gcc/arm-none-eabi/7.3.1/../../../../arm-none-eabi/lib/thumb/v7e-m/fpv4-sp/hard\libg_nano.a(lib_a-nano-callocr.o)
                              c:/mesh/arm_gcc/bin/../lib/gcc/arm-none-eabi/7.3.1/../../../../arm-none-eabi/lib/thumb/v7e-m/fpv4-sp/hard\libg_nano.a(lib_a-calloc.o) (_calloc_r)
c:/mesh/arm_gcc/bin/../lib/gcc/arm-none-eabi/7.3.1/../../../../arm-none-eabi/lib/thumb/v7e-m/fpv4-sp/hard\libg_nano.a(lib_a-nano-freer.o)
                              c:/mesh/arm_gcc/bin/../lib/gcc/arm-none-eabi/7.3.1/../../../../arm-none-eabi/lib/thumb/v7e-m/fpv4-sp/hard\libg_nano.a(lib_a-malloc.o) (_free_r)
c:/mesh/arm_gcc/bin/../lib/gcc/arm-none-eabi/7.3.1/../../../../arm-none-eabi/lib/thumb/v7e-m/fpv4-sp/hard\libg_nano.a(lib_a-nano-mallocr.o)
                              c:/mesh/arm_gcc/bin/../lib/gcc/arm-none-eabi/7.3.1/../../../../arm-none-eabi/lib/thumb/v7e-m/fpv4-sp/hard\libg_nano.a(lib_a-malloc.o) (_malloc_r)
c:/mesh/arm_gcc/bin/../lib/gcc/arm-none-eabi/7.3.1/../../../../arm-none-eabi/lib/thumb/v7e-m/fpv4-sp/hard\libg_nano.a(lib_a-sbrkr.o)
                              c:/mesh/arm_gcc/bin/../lib/gcc/arm-none-eabi/7.3.1/../../../../arm-none-eabi/lib/thumb/v7e-m/fpv4-sp/hard\libg_nano.a(lib_a-nano-mallocr.o) (_sbrk_r)
c:/mesh/arm_gcc/bin/../lib/gcc/arm-none-eabi/7.3.1/../../../../arm-none-eabi/lib/thumb/v7e-m/fpv4-sp/hard\libg_nano.a(lib_a-strcpy.o)
                              external/rtt/librtt_nrf52832_xxAA.a(SEGGER_RTT.c.obj) (strcpy)
c:/mesh/arm_gcc/bin/../lib/gcc/arm-none-eabi/7.3.1/../../../../arm-none-eabi/lib/thumb/v7e-m/fpv4-sp/hard\libg_nano.a(lib_a-strlen.o)
                              examples/pb_remote/client/CMakeFiles/pb_remote_client_nrf52832_xxAA_s132_6.1.1.dir/C_/mesh/deps/nRF5_SDK_15.3.0_59ac345/components/ble/common/ble_advdata.c.obj (strlen)
c:/mesh/arm_gcc/bin/../lib/gcc/arm-none-eabi/7.3.1/../../../../arm-none-eabi/lib/thumb/v7e-m/fpv4-sp/hard\libg_nano.a(lib_a-strrchr.o)
                              examples/pb_remote/client/CMakeFiles/pb_remote_client_nrf52832_xxAA_s132_6.1.1.dir/src/main.c.obj (strrchr)
c:/mesh/arm_gcc/bin/../lib/gcc/arm-none-eabi/7.3.1/../../../../arm-none-eabi/lib/thumb/v7e-m/fpv4-sp/hard\libg_nano.a(lib_a-mlock.o)
                              c:/mesh/arm_gcc/bin/../lib/gcc/arm-none-eabi/7.3.1/../../../../arm-none-eabi/lib/thumb/v7e-m/fpv4-sp/hard\libg_nano.a(lib_a-nano-freer.o) (__malloc_lock)
c:/mesh/arm_gcc/bin/../lib/gcc/arm-none-eabi/7.3.1/../../../../arm-none-eabi/lib/thumb/v7e-m/fpv4-sp/hard\libg_nano.a(lib_a-reent.o)
                              c:/mesh/arm_gcc/bin/../lib/gcc/arm-none-eabi/7.3.1/../../../../arm-none-eabi/lib/thumb/v7e-m/fpv4-sp/hard\libg_nano.a(lib_a-sbrkr.o) (errno)
c:/mesh/arm_gcc/bin/../lib/gcc/arm-none-eabi/7.3.1/../../../../arm-none-eabi/lib/thumb/v7e-m/fpv4-sp/hard\libg_nano.a(lib_a-strchr.o)
                              c:/mesh/arm_gcc/bin/../lib/gcc/arm-none-eabi/7.3.1/../../../../arm-none-eabi/lib/thumb/v7e-m/fpv4-sp/hard\libg_nano.a(lib_a-strrchr.o) (strchr)
c:/mesh/arm_gcc/bin/../lib/gcc/arm-none-eabi/7.3.1/../../../../arm-none-eabi/lib/thumb/v7e-m/fpv4-sp/hard\libnosys.a(sbrk.o)
                              c:/mesh/arm_gcc/bin/../lib/gcc/arm-none-eabi/7.3.1/../../../../arm-none-eabi/lib/thumb/v7e-m/fpv4-sp/hard\libg_nano.a(lib_a-sbrkr.o) (_sbrk)
c:/mesh/arm_gcc/bin/../lib/gcc/arm-none-eabi/7.3.1/../../../../arm-none-eabi/lib/thumb/v7e-m/fpv4-sp/hard\libnosys.a(_exit.o)
                              c:/mesh/arm_gcc/bin/../lib/gcc/arm-none-eabi/7.3.1/../../../../arm-none-eabi/lib/thumb/v7e-m/fpv4-sp/hard\libg_nano.a(lib_a-exit.o) (_exit)

Allocating common symbols
Common symbol       size              file

nrf_nvic_state      0xc               examples/pb_remote/client/CMakeFiles/pb_remote_client_nrf52832_xxAA_s132_6.1.1.dir/C_/mesh/deps/nRF5_SDK_15.3.0_59ac345/components/libraries/util/app_util_platform.c.obj
m_packet            0x24              examples/pb_remote/client/CMakeFiles/pb_remote_client_nrf52832_xxAA_s132_6.1.1.dir/__/__/__/mesh/core/src/core_tx.c.obj
errno               0x4               c:/mesh/arm_gcc/bin/../lib/gcc/arm-none-eabi/7.3.1/../../../../arm-none-eabi/lib/thumb/v7e-m/fpv4-sp/hard\libg_nano.a(lib_a-reent.o)
_SEGGER_RTT         0x78              external/rtt/librtt_nrf52832_xxAA.a(SEGGER_RTT.c.obj)

Discarded input sections

 .text          0x00000000        0x0 c:/mesh/arm_gcc/bin/../lib/gcc/arm-none-eabi/7.3.1/thumb/v7e-m/fpv4-sp/hard/crti.o
 .data          0x00000000        0x0 c:/mesh/arm_gcc/bin/../lib/gcc/arm-none-eabi/7.3.1/thumb/v7e-m/fpv4-sp/hard/crti.o
 .bss           0x00000000        0x0 c:/mesh/arm_gcc/bin/../lib/gcc/arm-none-eabi/7.3.1/thumb/v7e-m/fpv4-sp/hard/crti.o
 .data          0x00000000        0x4 c:/mesh/arm_gcc/bin/../lib/gcc/arm-none-eabi/7.3.1/thumb/v7e-m/fpv4-sp/hard/crtbegin.o
 .data          0x00000000        0x0 c:/mesh/arm_gcc/bin/../lib/gcc/arm-none-eabi/7.3.1/../../../../arm-none-eabi/lib/thumb/v7e-m/fpv4-sp/hard/crt0.o
 .bss           0x00000000        0x0 c:/mesh/arm_gcc/bin/../lib/gcc/arm-none-eabi/7.3.1/../../../../arm-none-eabi/lib/thumb/v7e-m/fpv4-sp/hard/crt0.o
 .ARM.extab     0x00000000        0x0 c:/mesh/arm_gcc/bin/../lib/gcc/arm-none-eabi/7.3.1/../../../../arm-none-eabi/lib/thumb/v7e-m/fpv4-sp/hard/crt0.o
 .text          0x00000000        0x0 examples/pb_remote/client/CMakeFiles/pb_remote_client_nrf52832_xxAA_s132_6.1.1.dir/src/main.c.obj
 .data          0x00000000        0x0 examples/pb_remote/client/CMakeFiles/pb_remote_client_nrf52832_xxAA_s132_6.1.1.dir/src/main.c.obj
 .bss           0x00000000        0x0 examples/pb_remote/client/CMakeFiles/pb_remote_client_nrf52832_xxAA_s132_6.1.1.dir/src/main.c.obj
 .text          0x00000000        0x0 examples/pb_remote/client/CMakeFiles/pb_remote_client_nrf52832_xxAA_s132_6.1.1.dir/__/__/__/mesh/stack/src/mesh_stack.c.obj
 .data          0x00000000        0x0 examples/pb_remote/client/CMakeFiles/pb_remote_client_nrf52832_xxAA_s132_6.1.1.dir/__/__/__/mesh/stack/src/mesh_stack.c.obj
 .bss           0x00000000        0x0 examples/pb_remote/client/CMakeFiles/pb_remote_client_nrf52832_xxAA_s132_6.1.1.dir/__/__/__/mesh/stack/src/mesh_stack.c.obj
 .text.mesh_evt_handler
                0x00000000       0x1c examples/pb_remote/client/CMakeFiles/pb_remote_client_nrf52832_xxAA_s132_6.1.1.dir/__/__/__/mesh/stack/src/mesh_stack.c.obj
 .text.mesh_stack_provisioning_data_store
                0x00000000       0xe4 examples/pb_remote/client/CMakeFiles/pb_remote_client_nrf52832_xxAA_s132_6.1.1.dir/__/__/__/mesh/stack/src/mesh_stack.c.obj
 .text.mesh_stack_device_reset
Memory Configuration

Name             Origin             Length             Attributes
FLASH            0x00026000         0x00051000         xr
RAM              0x20002da0         0x0000cf60         xrw
*default*        0x00000000         0xffffffff

Linker script and memory map


.text           0x00026000    0x17c7c
 *(.isr_vector)
 .isr_vector    0x00026000      0x200 examples/pb_remote/client/CMakeFiles/pb_remote_client_nrf52832_xxAA_s132_6.1.1.dir/C_/mesh/deps/nRF5_SDK_15.3.0_59ac345/modules/nrfx/mdk/gcc_startup_nrf52.S.obj
                0x00026000                __isr_vector
 *(.text*)
 .text          0x00026200       0x40 c:/mesh/arm_gcc/bin/../lib/gcc/arm-none-eabi/7.3.1/thumb/v7e-m/fpv4-sp/hard/crtbegin.o
 .text          0x00026240       0x74 c:/mesh/arm_gcc/bin/../lib/gcc/arm-none-eabi/7.3.1/../../../../arm-none-eabi/lib/thumb/v7e-m/fpv4-sp/hard/crt0.o
                0x00026240                _start
                0x00026240                _mainCRTStartup
 .text.sd_app_evt_wait
                0x000262b4        0x4 examples/pb_remote/client/CMakeFiles/pb_remote_client_nrf52832_xxAA_s132_6.1.1.dir/src/main.c.obj
 .text.models_init_cb
                0x000262b8       0x70 examples/pb_remote/client/CMakeFiles/pb_remote_client_nrf52832_xxAA_s132_6.1.1.dir/src/main.c.obj
 .text.remote_client_event_cb
                0x00026328      0x1f4 examples/pb_remote/client/CMakeFiles/pb_remote_client_nrf52832_xxAA_s132_6.1.1.dir/src/main.c.obj
 .text.start_provisioning
                0x0002651c       0x94 examples/pb_remote/client/CMakeFiles/pb_remote_client_nrf52832_xxAA_s132_6.1.1.dir/src/main.c.obj
 .text.user_input_handler
                0x000265b0      0x3b4 examples/pb_remote/client/CMakeFiles/pb_remote_client_nrf52832_xxAA_s132_6.1.1.dir/src/main.c.obj
 .text.prov_evt_handler
                0x00026964      0x3e4 examples/pb_remote/client/CMakeFiles/pb_remote_client_nrf52832_xxAA_s132_6.1.1.dir/src/main.c.obj
 .text.startup.main
                0x00026d48      0x350 examples/pb_remote/client/CMakeFiles/pb_remote_client_nrf52832_xxAA_s132_6.1.1.dir/src/main.c.obj
                0x00026d48                main
 .text.mesh_stack_start
                0x00027098        0x4 examples/pb_remote/client/CMakeFiles/pb_remote_client_nrf52832_xxAA_s132_6.1.1.dir/__/__/__/mesh/stack/src/mesh_stack.c.obj
                0x00027098                mesh_stack_start
 .text.mesh_stack_config_clear
                0x0002709c       0x16 examples/pb_remote/client/CMakeFiles/pb_remote_client_nrf52832_xxAA_s132_6.1.1.dir/__/__/__/mesh/stack/src/mesh_stack.c.obj
                0x0002709c                mesh_stack_config_clear
 .text.mesh_stack_is_device_provisioned
                0x000270b2       0x18 examples/pb_remote/client/CMakeFiles/pb_remote_client_nrf52832_xxAA_s132_6.1.1.dir/__/__/__/mesh/stack/src/mesh_stack.c.obj
                0x000270b2                mesh_stack_is_device_provisioned
 *fill*         0x000270ca        0x2 
 .text.mesh_stack_init
                0x000270cc       0x6c examples/pb_remote/client/CMakeFiles/pb_remote_client_nrf52832_xxAA_s132_6.1.1.dir/__/__/__/mesh/stack/src/mesh_stack.c.obj
                0x000270cc                mesh_stack_init
 .text.timeout_handler
                0x00027138       0x1c examples/pb_remote/client/CMakeFiles/pb_remote_client_nrf52832_xxAA_s132_6.1.1.dir/__/__/common/src/rtt_input.c.obj
                0x00027138                timeout_handler
 .text.rtt_input_enable
                0x00027154       0x6c examples/pb_remote/client/CMakeFiles/pb_remote_client_nrf52832_xxAA_s132_6.1.1.dir/__/__/common/src/rtt_input.c.obj
                0x00027154                rtt_input_enable
 .text.led_timeout_handler
                0x000271c0       0x54 examples/pb_remote/client/CMakeFiles/pb_remote_client_nrf52832_xxAA_s132_6.1.1.dir/__/__/common/src/simple_hal.c.obj
 .text.hal_led_mask_set
                0x00027214       0x12 examples/pb_remote/client/CMakeFiles/pb_remote_client_nrf52832_xxAA_s132_6.1.1.dir/__/__/common/src/simple_hal.c.obj
                0x00027214                hal_led_mask_set
 *fill*         0x00027226        0x2 
 .text.hal_led_blink_ms
                0x00027228       0x64 examples/pb_remote/client/CMakeFiles/pb_remote_client_nrf52832_xxAA_s132_6.1.1.dir/__/__/common/src/simple_hal.c.obj
                0x00027228                hal_led_blink_ms
 .text.hal_leds_init
                0x0002728c       0x58 examples/pb_remote/client/CMakeFiles/pb_remote_client_nrf52832_xxAA_s132_6.1.1.dir/__/__/common/src/simple_hal.c.obj
                0x0002728c                hal_leds_init
 .text.GPIOTE_IRQHandler
                0x000272e4       0x60 examples/pb_remote/client/CMakeFiles/pb_remote_client_nrf52832_xxAA_s132_6.1.1.dir/__/__/common/src/simple_hal.c.obj
                0x000272e4                GPIOTE_IRQHandler
 .text.mesh_app_uuid_print
                0x00027344      0x11c examples/pb_remote/client/CMakeFiles/pb_remote_client_nrf52832_xxAA_s132_6.1.1.dir/__/__/common/src/mesh_app_utils.c.obj
                0x00027344                mesh_app_uuid_print
 .text.sd_ble_enable
                0x00027460        0x4 examples/pb_remote/client/CMakeFiles/pb_remote_client_nrf52832_xxAA_s132_6.1.1.dir/__/__/common/src/ble_softdevice_support.c.obj
 .text.sd_ble_cfg_set
                0x00027464        0x4 examples/pb_remote/client/CMakeFiles/pb_remote_client_nrf52832_xxAA_s132_6.1.1.dir/__/__/common/src/ble_softdevice_support.c.obj
 .text.on_sd_evt
                0x00027468        0x4 examples/pb_remote/client/CMakeFiles/pb_remote_client_nrf52832_xxAA_s132_6.1.1.dir/__/__/common/src/ble_softdevice_support.c.obj
 .text.ble_stack_init
                0x0002746c       0xd4 examples/pb_remote/client/CMakeFiles/pb_remote_client_nrf52832_xxAA_s132_6.1.1.dir/__/__/common/src/ble_softdevice_support.c.obj
                0x0002746c                ble_stack_init
 .text.app_util_critical_region_enter
                0x00027540       0x48 examples/pb_remote/client/CMakeFiles/pb_remote_client_nrf52832_xxAA_s132_6.1.1.dir/C_/mesh/deps/nRF5_SDK_15.3.0_59ac345/components/libraries/util/app_util_platform.c.obj
                0x00027540                app_util_critical_region_enter
 .text.app_util_critical_region_exit
                0x00027588       0x2c examples/pb_remote/client/CMakeFiles/pb_remote_client_nrf52832_xxAA_s132_6.1.1.dir/C_/mesh/deps/nRF5_SDK_15.3.0_59ac345/components/libraries/util/app_util_platform.c.obj
                0x00027588                app_util_critical_region_exit
 .text.nrf_section_iter_init
                0x000275b4       0x12 examples/pb_remote/client/CMakeFiles/pb_remote_client_nrf52832_xxAA_s132_6.1.1.dir/C_/mesh/deps/nRF5_SDK_15.3.0_59ac345/components/libraries/experimental_section_vars/nrf_section_iter.c.obj
                0x000275b4                nrf_section_iter_init
 .text.nrf_section_iter_next
                0x000275c6       0x18 examples/pb_remote/client/CMakeFiles/pb_remote_client_nrf52832_xxAA_s132_6.1.1.dir/C_/mesh/deps/nRF5_SDK_15.3.0_59ac345/components/libraries/experimental_section_vars/nrf_section_iter.c.obj
                0x000275c6                nrf_section_iter_next
 .text.sd_evt_get
                0x000275de        0x4 examples/pb_remote/client/CMakeFiles/pb_remote_client_nrf52832_xxAA_s132_6.1.1.dir/C_/mesh/deps/nRF5_SDK_15.3.0_59ac345/components/softdevice/common/nrf_sdh_soc.c.obj
 *fill*         0x000275e2        0x2 
 .text.nrf_sdh_soc_evts_poll
                0x000275e4       0x3c examples/pb_remote/client/CMakeFiles/pb_remote_client_nrf52832_xxAA_s132_6.1.1.dir/C_/mesh/deps/nRF5_SDK_15.3.0_59ac345/components/softdevice/common/nrf_sdh_soc.c.obj
 .text.sd_ble_evt_get
                0x00027620        0x4 examples/pb_remote/client/CMakeFiles/pb_remote_client_nrf52832_xxAA_s132_6.1.1.dir/C_/mesh/deps/nRF5_SDK_15.3.0_59ac345/components/softdevice/common/nrf_sdh_ble.c.obj
 .text.nrf_sdh_ble_evts_poll
                0x00027624       0x50 examples/pb_remote/client/CMakeFiles/pb_remote_client_nrf52832_xxAA_s132_6.1.1.dir/C_/mesh/deps/nRF5_SDK_15.3.0_59ac345/components/softdevice/common/nrf_sdh_ble.c.obj
 .text.sd_softdevice_enable
                0x00027674        0x4 examples/pb_remote/client/CMakeFiles/pb_remote_client_nrf52832_xxAA_s132_6.1.1.dir/C_/mesh/deps/nRF5_SDK_15.3.0_59ac345/components/softdevice/common/nrf_sdh.c.obj
 .text.sdh_request_observer_notify
                0x00027678       0x30 examples/pb_remote/client/CMakeFiles/pb_remote_client_nrf52832_xxAA_s132_6.1.1.dir/C_/mesh/deps/nRF5_SDK_15.3.0_59ac345/components/softdevice/common/nrf_sdh.c.obj
 .text.sdh_state_observer_notify
                0x000276a8       0x28 examples/pb_remote/client/CMakeFiles/pb_remote_client_nrf52832_xxAA_s132_6.1.1.dir/C_/mesh/deps/nRF5_SDK_15.3.0_59ac345/components/softdevice/common/nrf_sdh.c.obj
 .text.softdevices_evt_irq_enable
                0x000276d0       0x38 examples/pb_remote/client/CMakeFiles/pb_remote_client_nrf52832_xxAA_s132_6.1.1.dir/C_/mesh/deps/nRF5_SDK_15.3.0_59ac345/components/softdevice/common/nrf_sdh.c.obj
 .text.nrf_sdh_enable_request
                0x00027708       0x78 examples/pb_remote/client/CMakeFiles/pb_remote_client_nrf52832_xxAA_s132_6.1.1.dir/C_/mesh/deps/nRF5_SDK_15.3.0_59ac345/components/softdevice/common/nrf_sdh.c.obj
                0x00027708                nrf_sdh_enable_request
 .text.nrf_sdh_evts_poll
                0x00027780       0x28 examples/pb_remote/client/CMakeFiles/pb_remote_client_nrf52832_xxAA_s132_6.1.1.dir/C_/mesh/deps/nRF5_SDK_15.3.0_59ac345/components/softdevice/common/nrf_sdh.c.obj
                0x00027780                nrf_sdh_evts_poll
 .text.SWI2_EGU2_IRQHandler
                0x000277a8        0x4 examples/pb_remote/client/CMakeFiles/pb_remote_client_nrf52832_xxAA_s132_6.1.1.dir/C_/mesh/deps/nRF5_SDK_15.3.0_59ac345/components/softdevice/common/nrf_sdh.c.obj
                0x000277a8                SWI2_EGU2_IRQHandler
 .text.pb_remote_client_event_unprov_number_cb
                0x000277ac       0x6c examples/pb_remote/client/CMakeFiles/pb_remote_client_nrf52832_xxAA_s132_6.1.1.dir/__/__/__/models/experimental/pb_remote/src/pb_remote_client.c.obj
 .text.status_event_push.isra.0
                0x00027818       0x1a examples/pb_remote/client/CMakeFiles/pb_remote_client_nrf52832_xxAA_s132_6.1.1.dir/__/__/__/models/experimental/pb_remote/src/pb_remote_client.c.obj
 *fill*         0x00027832        0x2 
 .text.pb_remote_client_event_transfer_status_cb
                0x00027834       0x9c examples/pb_remote/client/CMakeFiles/pb_remote_client_nrf52832_xxAA_s132_6.1.1.dir/__/__/__/models/experimental/pb_remote/src/pb_remote_client.c.obj
 .text.pb_remote_client_event_link_status_cb
                0x000278d0      0x208 examples/pb_remote/client/CMakeFiles/pb_remote_client_nrf52832_xxAA_s132_6.1.1.dir/__/__/__/models/experimental/pb_remote/src/pb_remote_client.c.obj
 .text.pb_remote_client_event_scan_status_cb
                0x00027ad8      0x138 examples/pb_remote/client/CMakeFiles/pb_remote_client_nrf52832_xxAA_s132_6.1.1.dir/__/__/__/models/experimental/pb_remote/src/pb_remote_client.c.obj
 .text.pb_remote_client_event_tx_failed_cb
                0x00027c10       0x38 examples/pb_remote/client/CMakeFiles/pb_remote_client_nrf52832_xxAA_s132_6.1.1.dir/__/__/__/models/experimental/pb_remote/src/pb_remote_client.c.obj
 .text.send_reliable_msg
                0x00027c48       0x44 examples/pb_remote/client/CMakeFiles/pb_remote_client_nrf52832_xxAA_s132_6.1.1.dir/__/__/__/models/experimental/pb_remote/src/pb_remote_client.c.obj
 .text.pb_remote_client_event_scan_cancel_cb
                0x00027c8c       0x84 examples/pb_remote/client/CMakeFiles/pb_remote_client_nrf52832_xxAA_s132_6.1.1.dir/__/__/__/models/experimental/pb_remote/src/pb_remote_client.c.obj
 .text.pb_remote_client_event_scan_start_cb
                0x00027d10       0x84 examples/pb_remote/client/CMakeFiles/pb_remote_client_nrf52832_xxAA_s132_6.1.1.dir/__/__/__/models/experimental/pb_remote/src/pb_remote_client.c.obj
 .text.pb_remote_client_event_local_packet_cb
                0x00027d94       0xa0 examples/pb_remote/client/CMakeFiles/pb_remote_client_nrf52832_xxAA_s132_6.1.1.dir/__/__/__/models/experimental/pb_remote/src/pb_remote_client.c.obj
 .text.pb_remote_client_event_prov_start_cb
                0x00027e34       0x38 examples/pb_remote/client/CMakeFiles/pb_remote_client_nrf52832_xxAA_s132_6.1.1.dir/__/__/__/models/experimental/pb_remote/src/pb_remote_client.c.obj
 .text.pb_remote_client_event_link_close_cb
                0x00027e6c       0x90 examples/pb_remote/client/CMakeFiles/pb_remote_client_nrf52832_xxAA_s132_6.1.1.dir/__/__/__/models/experimental/pb_remote/src/pb_remote_client.c.obj
 .text.pb_remote_client_process
                0x00027efc      0x10c examples/pb_remote/client/CMakeFiles/pb_remote_client_nrf52832_xxAA_s132_6.1.1.dir/__/__/__/models/experimental/pb_remote/src/pb_remote_client.c.obj
 .text.client_reliable_status_cb
                0x00028008      0x150 examples/pb_remote/client/CMakeFiles/pb_remote_client_nrf52832_xxAA_s132_6.1.1.dir/__/__/__/models/experimental/pb_remote/src/pb_remote_client.c.obj
 .text.pb_if_link_close_cb
                0x00028158       0x3c examples/pb_remote/client/CMakeFiles/pb_remote_client_nrf52832_xxAA_s132_6.1.1.dir/__/__/__/models/experimental/pb_remote/src/pb_remote_client.c.obj
 .text.pb_if_link_open_cb
                0x00028194       0x4c examples/pb_remote/client/CMakeFiles/pb_remote_client_nrf52832_xxAA_s132_6.1.1.dir/__/__/__/models/experimental/pb_remote/src/pb_remote_client.c.obj
 .text.pb_if_tx_cb
                0x000281e0       0x40 examples/pb_remote/client/CMakeFiles/pb_remote_client_nrf52832_xxAA_s132_6.1.1.dir/__/__/__/models/experimental/pb_remote/src/pb_remote_client.c.obj
 .text.send_reply.isra.6
                0x00028220       0x18 examples/pb_remote/client/CMakeFiles/pb_remote_client_nrf52832_xxAA_s132_6.1.1.dir/__/__/__/models/experimental/pb_remote/src/pb_remote_client.c.obj
 .text.pb_remote_client_event_transfer_status_report_cb
                0x00028238      0x138 examples/pb_remote/client/CMakeFiles/pb_remote_client_nrf52832_xxAA_s132_6.1.1.dir/__/__/__/models/experimental/pb_remote/src/pb_remote_client.c.obj
 .text.pb_remote_client_event_packet_transfer_cb
                0x00028370       0xe0 examples/pb_remote/client/CMakeFiles/pb_remote_client_nrf52832_xxAA_s132_6.1.1.dir/__/__/__/models/experimental/pb_remote/src/pb_remote_client.c.obj
 .text.pb_remote_client_event_link_status_report_cb
                0x00028450      0x174 examples/pb_remote/client/CMakeFiles/pb_remote_client_nrf52832_xxAA_s132_6.1.1.dir/__/__/__/models/experimental/pb_remote/src/pb_remote_client.c.obj
 .text.pb_remote_client_event_unprov_uuid_cb
                0x000285c4       0xdc examples/pb_remote/client/CMakeFiles/pb_remote_client_nrf52832_xxAA_s132_6.1.1.dir/__/__/__/models/experimental/pb_remote/src/pb_remote_client.c.obj
 .text.remote_client_access_rx_cb
                0x000286a0      0x160 examples/pb_remote/client/CMakeFiles/pb_remote_client_nrf52832_xxAA_s132_6.1.1.dir/__/__/__/models/experimental/pb_remote/src/pb_remote_client.c.obj
 .text.pb_remote_client_init
                0x00028800       0x80 examples/pb_remote/client/CMakeFiles/pb_remote_client_nrf52832_xxAA_s132_6.1.1.dir/__/__/__/models/experimental/pb_remote/src/pb_remote_client.c.obj
                0x00028800                pb_remote_client_init
 .text.pb_remote_client_remote_scan_start
                0x00028880       0x44 examples/pb_remote/client/CMakeFiles/pb_remote_client_nrf52832_xxAA_s132_6.1.1.dir/__/__/__/models/experimental/pb_remote/src/pb_remote_client.c.obj
                0x00028880                pb_remote_client_remote_scan_start
 .text.pb_remote_client_remote_scan_cancel
                0x000288c4       0x44 examples/pb_remote/client/CMakeFiles/pb_remote_client_nrf52832_xxAA_s132_6.1.1.dir/__/__/__/models/experimental/pb_remote/src/pb_remote_client.c.obj
                0x000288c4                pb_remote_client_remote_scan_cancel
 .text.pb_remote_client_bearer_interface_get
                0x00028908       0x1c examples/pb_remote/client/CMakeFiles/pb_remote_client_nrf52832_xxAA_s132_6.1.1.dir/__/__/__/models/experimental/pb_remote/src/pb_remote_client.c.obj
                0x00028908                pb_remote_client_bearer_interface_get
 .text.prov_provisioner_cb_link_closed
                0x00028924       0x2a examples/pb_remote/client/CMakeFiles/pb_remote_client_nrf52832_xxAA_s132_6.1.1.dir/__/__/__/mesh/prov/src/prov_provisioner.c.obj
 .text.prov_provisioner_cb_link_established
                0x0002894e       0x40 examples/pb_remote/client/CMakeFiles/pb_remote_client_nrf52832_xxAA_s132_6.1.1.dir/__/__/__/mesh/prov/src/prov_provisioner.c.obj
 .text.send_confirmation
                0x0002898e       0x26 examples/pb_remote/client/CMakeFiles/pb_remote_client_nrf52832_xxAA_s132_6.1.1.dir/__/__/__/mesh/prov/src/prov_provisioner.c.obj
 .text.request_authentication
                0x000289b4       0x8a examples/pb_remote/client/CMakeFiles/pb_remote_client_nrf52832_xxAA_s132_6.1.1.dir/__/__/__/mesh/prov/src/prov_provisioner.c.obj
 .text.start_authentication
                0x00028a3e       0x46 examples/pb_remote/client/CMakeFiles/pb_remote_client_nrf52832_xxAA_s132_6.1.1.dir/__/__/__/mesh/prov/src/prov_provisioner.c.obj
 .text.prov_provisioner_cb_ack_received
                0x00028a84       0x56 examples/pb_remote/client/CMakeFiles/pb_remote_client_nrf52832_xxAA_s132_6.1.1.dir/__/__/__/mesh/prov/src/prov_provisioner.c.obj
 *fill*         0x00028ada        0x2 
 .text.prov_provisioner_pkt_in
                0x00028adc      0x288 examples/pb_remote/client/CMakeFiles/pb_remote_client_nrf52832_xxAA_s132_6.1.1.dir/__/__/__/mesh/prov/src/prov_provisioner.c.obj
 .text.prov_provisioner_provision
                0x00028d64       0x48 examples/pb_remote/client/CMakeFiles/pb_remote_client_nrf52832_xxAA_s132_6.1.1.dir/__/__/__/mesh/prov/src/prov_provisioner.c.obj
                0x00028d64                prov_provisioner_provision
 .text.prov_provisioner_oob_use
                0x00028dac       0x78 examples/pb_remote/client/CMakeFiles/pb_remote_client_nrf52832_xxAA_s132_6.1.1.dir/__/__/__/mesh/prov/src/prov_provisioner.c.obj
                0x00028dac                prov_provisioner_oob_use
 .text.prov_provisioner_auth_data
                0x00028e24       0x12 examples/pb_remote/client/CMakeFiles/pb_remote_client_nrf52832_xxAA_s132_6.1.1.dir/__/__/__/mesh/prov/src/prov_provisioner.c.obj
                0x00028e24                prov_provisioner_auth_data
 .text.bearer_compare_callback
                0x00028e36        0xc examples/pb_remote/client/CMakeFiles/pb_remote_client_nrf52832_xxAA_s132_6.1.1.dir/__/__/__/mesh/prov/src/nrf_mesh_prov.c.obj
 .text.utils_reverse_array.constprop.2
                0x00028e42       0x1c examples/pb_remote/client/CMakeFiles/pb_remote_client_nrf52832_xxAA_s132_6.1.1.dir/__/__/__/mesh/prov/src/nrf_mesh_prov.c.obj
 .text.nrf_mesh_prov_init
                0x00028e5e       0x32 examples/pb_remote/client/CMakeFiles/pb_remote_client_nrf52832_xxAA_s132_6.1.1.dir/__/__/__/mesh/prov/src/nrf_mesh_prov.c.obj
                0x00028e5e                nrf_mesh_prov_init
 .text.nrf_mesh_prov_bearer_add
                0x00028e90       0x28 examples/pb_remote/client/CMakeFiles/pb_remote_client_nrf52832_xxAA_s132_6.1.1.dir/__/__/__/mesh/prov/src/nrf_mesh_prov.c.obj
                0x00028e90                nrf_mesh_prov_bearer_add
 .text.nrf_mesh_prov_generate_keys
                0x00028eb8        0x4 examples/pb_remote/client/CMakeFiles/pb_remote_client_nrf52832_xxAA_s132_6.1.1.dir/__/__/__/mesh/prov/src/nrf_mesh_prov.c.obj
                0x00028eb8                nrf_mesh_prov_generate_keys
 .text.nrf_mesh_prov_provision
                0x00028ebc       0x58 examples/pb_remote/client/CMakeFiles/pb_remote_client_nrf52832_xxAA_s132_6.1.1.dir/__/__/__/mesh/prov/src/nrf_mesh_prov.c.obj
                0x00028ebc                nrf_mesh_prov_provision
 .text.nrf_mesh_prov_oob_use
                0x00028f14       0x18 examples/pb_remote/client/CMakeFiles/pb_remote_client_nrf52832_xxAA_s132_6.1.1.dir/__/__/__/mesh/prov/src/nrf_mesh_prov.c.obj
                0x00028f14                nrf_mesh_prov_oob_use
 .text.nrf_mesh_prov_auth_data_provide
                0x00028f2c       0xf4 examples/pb_remote/client/CMakeFiles/pb_remote_client_nrf52832_xxAA_s132_6.1.1.dir/__/__/__/mesh/prov/src/nrf_mesh_prov.c.obj
                0x00028f2c                nrf_mesh_prov_auth_data_provide
 .text.nrf_mesh_prov_scan_start
                0x00029020       0x10 examples/pb_remote/client/CMakeFiles/pb_remote_client_nrf52832_xxAA_s132_6.1.1.dir/__/__/__/mesh/prov/src/nrf_mesh_prov.c.obj
                0x00029020                nrf_mesh_prov_scan_start
 .text.send_data
                0x00029030       0x28 examples/pb_remote/client/CMakeFiles/pb_remote_client_nrf52832_xxAA_s132_6.1.1.dir/__/__/__/mesh/prov/src/provisioning.c.obj
 .text.prov_packet_length_valid
                0x00029058       0x1c examples/pb_remote/client/CMakeFiles/pb_remote_client_nrf52832_xxAA_s132_6.1.1.dir/__/__/__/mesh/prov/src/provisioning.c.obj
                0x00029058                prov_packet_length_valid
 .text.prov_tx_invite
                0x00029074       0x28 examples/pb_remote/client/CMakeFiles/pb_remote_client_nrf52832_xxAA_s132_6.1.1.dir/__/__/__/mesh/prov/src/provisioning.c.obj
                0x00029074                prov_tx_invite
 .text.prov_tx_start
                0x0002909c       0x20 examples/pb_remote/client/CMakeFiles/pb_remote_client_nrf52832_xxAA_s132_6.1.1.dir/__/__/__/mesh/prov/src/provisioning.c.obj
                0x0002909c                prov_tx_start
 .text.prov_tx_public_key
                0x000290bc       0x26 examples/pb_remote/client/CMakeFiles/pb_remote_client_nrf52832_xxAA_s132_6.1.1.dir/__/__/__/mesh/prov/src/provisioning.c.obj
                0x000290bc                prov_tx_public_key
 .text.prov_tx_confirmation
                0x000290e2       0x26 examples/pb_remote/client/CMakeFiles/pb_remote_client_nrf52832_xxAA_s132_6.1.1.dir/__/__/__/mesh/prov/src/provisioning.c.obj
                0x000290e2                prov_tx_confirmation
 .text.prov_tx_random
                0x00029108       0x26 examples/pb_remote/client/CMakeFiles/pb_remote_client_nrf52832_xxAA_s132_6.1.1.dir/__/__/__/mesh/prov/src/provisioning.c.obj
                0x00029108                prov_tx_random
 .text.prov_tx_data
                0x0002912e        0x6 examples/pb_remote/client/CMakeFiles/pb_remote_client_nrf52832_xxAA_s132_6.1.1.dir/__/__/__/mesh/prov/src/provisioning.c.obj
                0x0002912e                prov_tx_data
 .text.prov_beacon_unprov_build
                0x00029134       0x54 examples/pb_remote/client/CMakeFiles/pb_remote_client_nrf52832_xxAA_s132_6.1.1.dir/__/__/__/mesh/prov/src/prov_beacon.c.obj
                0x00029134                prov_beacon_unprov_build
 .text.prov_beacon_unprov_packet_in
                0x00029188       0x88 examples/pb_remote/client/CMakeFiles/pb_remote_client_nrf52832_xxAA_s132_6.1.1.dir/__/__/__/mesh/prov/src/prov_beacon.c.obj
                0x00029188                prov_beacon_unprov_packet_in
 .text.prov_beacon_scan_start
                0x00029210       0x18 examples/pb_remote/client/CMakeFiles/pb_remote_client_nrf52832_xxAA_s132_6.1.1.dir/__/__/__/mesh/prov/src/prov_beacon.c.obj
                0x00029210                prov_beacon_scan_start
 .text.ecdh_setter
                0x00029228       0x14 examples/pb_remote/client/CMakeFiles/pb_remote_client_nrf52832_xxAA_s132_6.1.1.dir/__/__/__/mesh/prov/src/prov_utils.c.obj
 .text.ecdh_getter
                0x0002923c       0x10 examples/pb_remote/client/CMakeFiles/pb_remote_client_nrf52832_xxAA_s132_6.1.1.dir/__/__/__/mesh/prov/src/prov_utils.c.obj
 .text.ecdh_deleter
                0x0002924c       0x10 examples/pb_remote/client/CMakeFiles/pb_remote_client_nrf52832_xxAA_s132_6.1.1.dir/__/__/__/mesh/prov/src/prov_utils.c.obj
 .text.oob_gen_alphanumeric
                0x0002925c       0x34 examples/pb_remote/client/CMakeFiles/pb_remote_client_nrf52832_xxAA_s132_6.1.1.dir/__/__/__/mesh/prov/src/prov_utils.c.obj
 .text.oob_gen_numeric
                0x00029290       0x3c examples/pb_remote/client/CMakeFiles/pb_remote_client_nrf52832_xxAA_s132_6.1.1.dir/__/__/__/mesh/prov/src/prov_utils.c.obj
 .text.prov_utils_authentication_values_derive
                0x000292cc       0xa0 examples/pb_remote/client/CMakeFiles/pb_remote_client_nrf52832_xxAA_s132_6.1.1.dir/__/__/__/mesh/prov/src/prov_utils.c.obj
                0x000292cc                prov_utils_authentication_values_derive
 .text.prov_utils_keys_generate
                0x0002936c       0x1e examples/pb_remote/client/CMakeFiles/pb_remote_client_nrf52832_xxAA_s132_6.1.1.dir/__/__/__/mesh/prov/src/prov_utils.c.obj
                0x0002936c                prov_utils_keys_generate
 *fill*         0x0002938a        0x2 
 .text.prov_utils_derive_keys
                0x0002938c       0xac examples/pb_remote/client/CMakeFiles/pb_remote_client_nrf52832_xxAA_s132_6.1.1.dir/__/__/__/mesh/prov/src/prov_utils.c.obj
                0x0002938c                prov_utils_derive_keys
 .text.prov_utils_is_valid_public_key
                0x00029438       0x18 examples/pb_remote/client/CMakeFiles/pb_remote_client_nrf52832_xxAA_s132_6.1.1.dir/__/__/__/mesh/prov/src/prov_utils.c.obj
                0x00029438                prov_utils_is_valid_public_key
 .text.prov_utils_calculate_shared_secret
                0x00029450       0x34 examples/pb_remote/client/CMakeFiles/pb_remote_client_nrf52832_xxAA_s132_6.1.1.dir/__/__/__/mesh/prov/src/prov_utils.c.obj
                0x00029450                prov_utils_calculate_shared_secret
 .text.prov_utils_generate_oob_data
                0x00029484       0x98 examples/pb_remote/client/CMakeFiles/pb_remote_client_nrf52832_xxAA_s132_6.1.1.dir/__/__/__/mesh/prov/src/prov_utils.c.obj
                0x00029484                prov_utils_generate_oob_data
 .text.prov_utils_confirmation_check
                0x0002951c       0x5c examples/pb_remote/client/CMakeFiles/pb_remote_client_nrf52832_xxAA_s132_6.1.1.dir/__/__/__/mesh/prov/src/prov_utils.c.obj
                0x0002951c                prov_utils_confirmation_check
 .text.prov_utils_auth_data_is_alphanumeric
                0x00029578       0x26 examples/pb_remote/client/CMakeFiles/pb_remote_client_nrf52832_xxAA_s132_6.1.1.dir/__/__/__/mesh/prov/src/prov_utils.c.obj
                0x00029578                prov_utils_auth_data_is_alphanumeric
 *fill*         0x0002959e        0x2 
 .text.prov_utils_auth_data_is_valid_number
                0x000295a0       0x34 examples/pb_remote/client/CMakeFiles/pb_remote_client_nrf52832_xxAA_s132_6.1.1.dir/__/__/__/mesh/prov/src/prov_utils.c.obj
                0x000295a0                prov_utils_auth_data_is_valid_number
 .text.mesh_opt_prov_ecdh_offloading_get
                0x000295d4       0x10 examples/pb_remote/client/CMakeFiles/pb_remote_client_nrf52832_xxAA_s132_6.1.1.dir/__/__/__/mesh/prov/src/prov_utils.c.obj
                0x000295d4                mesh_opt_prov_ecdh_offloading_get
 .text.prov_utils_use_ecdh_offloading
                0x000295e4       0x1c examples/pb_remote/client/CMakeFiles/pb_remote_client_nrf52832_xxAA_s132_6.1.1.dir/__/__/__/mesh/prov/src/prov_utils.c.obj
                0x000295e4                prov_utils_use_ecdh_offloading
 .text.prov_utils_is_valid_pdu
                0x00029600       0x30 examples/pb_remote/client/CMakeFiles/pb_remote_client_nrf52832_xxAA_s132_6.1.1.dir/__/__/__/mesh/prov/src/prov_utils.c.obj
                0x00029600                prov_utils_is_valid_pdu
 .text.link_timeout_cb
                0x00029630       0x10 examples/pb_remote/client/CMakeFiles/pb_remote_client_nrf52832_xxAA_s132_6.1.1.dir/__/__/__/mesh/prov/src/prov_bearer_adv.c.obj
 .text.remove_active_bearer
                0x00029640       0x4c examples/pb_remote/client/CMakeFiles/pb_remote_client_nrf52832_xxAA_s132_6.1.1.dir/__/__/__/mesh/prov/src/prov_bearer_adv.c.obj
 .text.close_link
                0x0002968c       0x58 examples/pb_remote/client/CMakeFiles/pb_remote_client_nrf52832_xxAA_s132_6.1.1.dir/__/__/__/mesh/prov/src/prov_bearer_adv.c.obj
 .text.prov_bearer_adv_listen_stop
                0x000296e4       0x30 examples/pb_remote/client/CMakeFiles/pb_remote_client_nrf52832_xxAA_s132_6.1.1.dir/__/__/__/mesh/prov/src/prov_bearer_adv.c.obj
 .text.send_packet
                0x00029714       0x5c examples/pb_remote/client/CMakeFiles/pb_remote_client_nrf52832_xxAA_s132_6.1.1.dir/__/__/__/mesh/prov/src/prov_bearer_adv.c.obj
 .text.prov_buffer_tx
                0x00029770      0x134 examples/pb_remote/client/CMakeFiles/pb_remote_client_nrf52832_xxAA_s132_6.1.1.dir/__/__/__/mesh/prov/src/prov_bearer_adv.c.obj
 .text.send_link_close
                0x000298a4       0x28 examples/pb_remote/client/CMakeFiles/pb_remote_client_nrf52832_xxAA_s132_6.1.1.dir/__/__/__/mesh/prov/src/prov_bearer_adv.c.obj
 .text.prov_bearer_adv_link_close
                0x000298cc       0x54 examples/pb_remote/client/CMakeFiles/pb_remote_client_nrf52832_xxAA_s132_6.1.1.dir/__/__/__/mesh/prov/src/prov_bearer_adv.c.obj
 .text.send_transaction_ack
                0x00029920       0x24 examples/pb_remote/client/CMakeFiles/pb_remote_client_nrf52832_xxAA_s132_6.1.1.dir/__/__/__/mesh/prov/src/prov_bearer_adv.c.obj
 .text.send_link_ack
                0x00029944       0x24 examples/pb_remote/client/CMakeFiles/pb_remote_client_nrf52832_xxAA_s132_6.1.1.dir/__/__/__/mesh/prov/src/prov_bearer_adv.c.obj
 .text.reset_timeout_timer
                0x00029968       0x1a examples/pb_remote/client/CMakeFiles/pb_remote_client_nrf52832_xxAA_s132_6.1.1.dir/__/__/__/mesh/prov/src/prov_bearer_adv.c.obj
 *fill*         0x00029982        0x2 
 .text.tx_complete_cb
                0x00029984       0x1c examples/pb_remote/client/CMakeFiles/pb_remote_client_nrf52832_xxAA_s132_6.1.1.dir/__/__/__/mesh/prov/src/prov_bearer_adv.c.obj
 .text.tx_retry_cb
                0x000299a0       0xcc examples/pb_remote/client/CMakeFiles/pb_remote_client_nrf52832_xxAA_s132_6.1.1.dir/__/__/__/mesh/prov/src/prov_bearer_adv.c.obj
 .text.add_active_bearer
                0x00029a6c       0x80 examples/pb_remote/client/CMakeFiles/pb_remote_client_nrf52832_xxAA_s132_6.1.1.dir/__/__/__/mesh/prov/src/prov_bearer_adv.c.obj
 .text.prov_bearer_adv_link_open
                0x00029aec       0xe0 examples/pb_remote/client/CMakeFiles/pb_remote_client_nrf52832_xxAA_s132_6.1.1.dir/__/__/__/mesh/prov/src/prov_bearer_adv.c.obj
 .text.async_process
                0x00029bcc       0x50 examples/pb_remote/client/CMakeFiles/pb_remote_client_nrf52832_xxAA_s132_6.1.1.dir/__/__/__/mesh/prov/src/prov_bearer_adv.c.obj
 .text.prov_bearer_adv_listen
                0x00029c1c       0xdc examples/pb_remote/client/CMakeFiles/pb_remote_client_nrf52832_xxAA_s132_6.1.1.dir/__/__/__/mesh/prov/src/prov_bearer_adv.c.obj
 .text.calculate_3GPP_CRC
                0x00029cf8       0x24 examples/pb_remote/client/CMakeFiles/pb_remote_client_nrf52832_xxAA_s132_6.1.1.dir/__/__/__/mesh/prov/src/prov_bearer_adv.c.obj
                0x00029cf8                calculate_3GPP_CRC
 .text.prov_bearer_adv_tx
                0x00029d1c       0xac examples/pb_remote/client/CMakeFiles/pb_remote_client_nrf52832_xxAA_s132_6.1.1.dir/__/__/__/mesh/prov/src/prov_bearer_adv.c.obj
 .text.prov_buffer_rx
                0x00029dc8       0x7a examples/pb_remote/client/CMakeFiles/pb_remote_client_nrf52832_xxAA_s132_6.1.1.dir/__/__/__/mesh/prov/src/prov_bearer_adv.c.obj
 *fill*         0x00029e42        0x2 
 .text.nrf_mesh_prov_bearer_adv_interface_get
                0x00029e44       0x3c examples/pb_remote/client/CMakeFiles/pb_remote_client_nrf52832_xxAA_s132_6.1.1.dir/__/__/__/mesh/prov/src/prov_bearer_adv.c.obj
                0x00029e44                nrf_mesh_prov_bearer_adv_interface_get
 .text.prov_bearer_adv_packet_in
                0x00029e80      0x82c examples/pb_remote/client/CMakeFiles/pb_remote_client_nrf52832_xxAA_s132_6.1.1.dir/__/__/__/mesh/prov/src/prov_bearer_adv.c.obj
                0x00029e80                prov_bearer_adv_packet_in
 .text.config_composition_data_get
                0x0002a6ac      0x168 examples/pb_remote/client/CMakeFiles/pb_remote_client_nrf52832_xxAA_s132_6.1.1.dir/__/__/__/models/foundation/config/src/composition_data.c.obj
                0x0002a6ac                config_composition_data_get
 .text.app_evt_send
                0x0002a814       0x10 examples/pb_remote/client/CMakeFiles/pb_remote_client_nrf52832_xxAA_s132_6.1.1.dir/__/__/__/models/foundation/config/src/config_server.c.obj
 .text.get_element_index
                0x0002a824       0x1c examples/pb_remote/client/CMakeFiles/pb_remote_client_nrf52832_xxAA_s132_6.1.1.dir/__/__/__/models/foundation/config/src/config_server.c.obj
 .text.config_server_heartbeat_publication_params_get
                0x0002a840       0x30 examples/pb_remote/client/CMakeFiles/pb_remote_client_nrf52832_xxAA_s132_6.1.1.dir/__/__/__/models/foundation/config/src/config_server.c.obj
 .text.send_reply
                0x0002a870       0x34 examples/pb_remote/client/CMakeFiles/pb_remote_client_nrf52832_xxAA_s132_6.1.1.dir/__/__/__/models/foundation/config/src/config_server.c.obj
 .text.send_network_transmit_status
                0x0002a8a4       0x5a examples/pb_remote/client/CMakeFiles/pb_remote_client_nrf52832_xxAA_s132_6.1.1.dir/__/__/__/models/foundation/config/src/config_server.c.obj
 .text.handle_config_network_transmit_set
                0x0002a8fe       0x74 examples/pb_remote/client/CMakeFiles/pb_remote_client_nrf52832_xxAA_s132_6.1.1.dir/__/__/__/models/foundation/config/src/config_server.c.obj
 .text.handle_config_network_transmit_get
                0x0002a972        0xa examples/pb_remote/client/CMakeFiles/pb_remote_client_nrf52832_xxAA_s132_6.1.1.dir/__/__/__/models/foundation/config/src/config_server.c.obj
 .text.handle_node_reset
                0x0002a97c       0x34 examples/pb_remote/client/CMakeFiles/pb_remote_client_nrf52832_xxAA_s132_6.1.1.dir/__/__/__/models/foundation/config/src/config_server.c.obj
 .text.handle_node_identity_set
                0x0002a9b0       0x44 examples/pb_remote/client/CMakeFiles/pb_remote_client_nrf52832_xxAA_s132_6.1.1.dir/__/__/__/models/foundation/config/src/config_server.c.obj
 .text.send_netkey_status
                0x0002a9f4       0x2c examples/pb_remote/client/CMakeFiles/pb_remote_client_nrf52832_xxAA_s132_6.1.1.dir/__/__/__/models/foundation/config/src/config_server.c.obj
 .text.send_relay_status
                0x0002aa20       0x7e examples/pb_remote/client/CMakeFiles/pb_remote_client_nrf52832_xxAA_s132_6.1.1.dir/__/__/__/models/foundation/config/src/config_server.c.obj
 .text.handle_config_relay_set
                0x0002aa9e       0x9a examples/pb_remote/client/CMakeFiles/pb_remote_client_nrf52832_xxAA_s132_6.1.1.dir/__/__/__/models/foundation/config/src/config_server.c.obj
 .text.handle_config_relay_get
                0x0002ab38        0xa examples/pb_remote/client/CMakeFiles/pb_remote_client_nrf52832_xxAA_s132_6.1.1.dir/__/__/__/models/foundation/config/src/config_server.c.obj
 .text.send_subscription_status
                0x0002ab42       0x42 examples/pb_remote/client/CMakeFiles/pb_remote_client_nrf52832_xxAA_s132_6.1.1.dir/__/__/__/models/foundation/config/src/config_server.c.obj
 .text.send_appkey_status
                0x0002ab84       0x3a examples/pb_remote/client/CMakeFiles/pb_remote_client_nrf52832_xxAA_s132_6.1.1.dir/__/__/__/models/foundation/config/src/config_server.c.obj
 .text.handle_netkey_delete
                0x0002abbe       0xbc examples/pb_remote/client/CMakeFiles/pb_remote_client_nrf52832_xxAA_s132_6.1.1.dir/__/__/__/models/foundation/config/src/config_server.c.obj
 *fill*         0x0002ac7a        0x2 
 .text.handle_netkey_add_update
                0x0002ac7c       0x78 examples/pb_remote/client/CMakeFiles/pb_remote_client_nrf52832_xxAA_s132_6.1.1.dir/__/__/__/models/foundation/config/src/config_server.c.obj
 .text.status_error_sub_send
                0x0002acf4      0x124 examples/pb_remote/client/CMakeFiles/pb_remote_client_nrf52832_xxAA_s132_6.1.1.dir/__/__/__/models/foundation/config/src/config_server.c.obj
 .text.delete_all_subscriptions
                0x0002ae18       0x66 examples/pb_remote/client/CMakeFiles/pb_remote_client_nrf52832_xxAA_s132_6.1.1.dir/__/__/__/models/foundation/config/src/config_server.c.obj
 .text.send_publication_status
                0x0002ae7e      0x188 examples/pb_remote/client/CMakeFiles/pb_remote_client_nrf52832_xxAA_s132_6.1.1.dir/__/__/__/models/foundation/config/src/config_server.c.obj
 .text.handle_config_key_refresh_phase_set
                0x0002b006       0xc8 examples/pb_remote/client/CMakeFiles/pb_remote_client_nrf52832_xxAA_s132_6.1.1.dir/__/__/__/models/foundation/config/src/config_server.c.obj
 .text.handle_config_default_ttl_set
                0x0002b0ce       0x50 examples/pb_remote/client/CMakeFiles/pb_remote_client_nrf52832_xxAA_s132_6.1.1.dir/__/__/__/models/foundation/config/src/config_server.c.obj
 .text.send_net_beacon_state
                0x0002b11e       0x2c examples/pb_remote/client/CMakeFiles/pb_remote_client_nrf52832_xxAA_s132_6.1.1.dir/__/__/__/models/foundation/config/src/config_server.c.obj
 .text.handle_config_beacon_get
                0x0002b14a        0xa examples/pb_remote/client/CMakeFiles/pb_remote_client_nrf52832_xxAA_s132_6.1.1.dir/__/__/__/models/foundation/config/src/config_server.c.obj
 .text.handle_heartbeat_publication_set
                0x0002b154       0xea examples/pb_remote/client/CMakeFiles/pb_remote_client_nrf52832_xxAA_s132_6.1.1.dir/__/__/__/models/foundation/config/src/config_server.c.obj
 *fill*         0x0002b23e        0x2 
 .text.mesh_event_cb
                0x0002b240       0x70 examples/pb_remote/client/CMakeFiles/pb_remote_client_nrf52832_xxAA_s132_6.1.1.dir/__/__/__/models/foundation/config/src/config_server.c.obj
 .text.handle_node_identity_get
                0x0002b2b0       0x3c examples/pb_remote/client/CMakeFiles/pb_remote_client_nrf52832_xxAA_s132_6.1.1.dir/__/__/__/models/foundation/config/src/config_server.c.obj
 .text.handle_config_gatt_proxy_set.part.6
                0x0002b2ec       0x2a examples/pb_remote/client/CMakeFiles/pb_remote_client_nrf52832_xxAA_s132_6.1.1.dir/__/__/__/models/foundation/config/src/config_server.c.obj
 .text.handle_config_gatt_proxy_set
                0x0002b316       0x14 examples/pb_remote/client/CMakeFiles/pb_remote_client_nrf52832_xxAA_s132_6.1.1.dir/__/__/__/models/foundation/config/src/config_server.c.obj
 .text.handle_config_gatt_proxy_get
                0x0002b32a        0xa examples/pb_remote/client/CMakeFiles/pb_remote_client_nrf52832_xxAA_s132_6.1.1.dir/__/__/__/models/foundation/config/src/config_server.c.obj
 .text.handle_config_friend_set.part.8
                0x0002b334       0x2a examples/pb_remote/client/CMakeFiles/pb_remote_client_nrf52832_xxAA_s132_6.1.1.dir/__/__/__/models/foundation/config/src/config_server.c.obj
 .text.handle_config_friend_set
                0x0002b35e       0x14 examples/pb_remote/client/CMakeFiles/pb_remote_client_nrf52832_xxAA_s132_6.1.1.dir/__/__/__/models/foundation/config/src/config_server.c.obj
 .text.handle_config_friend_get
                0x0002b372        0xa examples/pb_remote/client/CMakeFiles/pb_remote_client_nrf52832_xxAA_s132_6.1.1.dir/__/__/__/models/foundation/config/src/config_server.c.obj
 .text.handle_netkey_get
                0x0002b37c       0x50 examples/pb_remote/client/CMakeFiles/pb_remote_client_nrf52832_xxAA_s132_6.1.1.dir/__/__/__/models/foundation/config/src/config_server.c.obj
 .text.handle_appkey_get
                0x0002b3cc       0x82 examples/pb_remote/client/CMakeFiles/pb_remote_client_nrf52832_xxAA_s132_6.1.1.dir/__/__/__/models/foundation/config/src/config_server.c.obj
 .text.status_error_pub_send
                0x0002b44e       0x90 examples/pb_remote/client/CMakeFiles/pb_remote_client_nrf52832_xxAA_s132_6.1.1.dir/__/__/__/models/foundation/config/src/config_server.c.obj
 .text.handle_config_key_refresh_phase_get
                0x0002b4de       0x58 examples/pb_remote/client/CMakeFiles/pb_remote_client_nrf52832_xxAA_s132_6.1.1.dir/__/__/__/models/foundation/config/src/config_server.c.obj
 .text.handle_config_default_ttl_get
                0x0002b536       0x30 examples/pb_remote/client/CMakeFiles/pb_remote_client_nrf52832_xxAA_s132_6.1.1.dir/__/__/__/models/foundation/config/src/config_server.c.obj
 .text.handle_config_beacon_set
                0x0002b566       0x42 examples/pb_remote/client/CMakeFiles/pb_remote_client_nrf52832_xxAA_s132_6.1.1.dir/__/__/__/models/foundation/config/src/config_server.c.obj
 .text.handle_composition_data_get
                0x0002b5a8       0x44 examples/pb_remote/client/CMakeFiles/pb_remote_client_nrf52832_xxAA_s132_6.1.1.dir/__/__/__/models/foundation/config/src/config_server.c.obj
 .text.handle_appkey_add
                0x0002b5ec      0x140 examples/pb_remote/client/CMakeFiles/pb_remote_client_nrf52832_xxAA_s132_6.1.1.dir/__/__/__/models/foundation/config/src/config_server.c.obj
 .text.get_subscription_list.constprop.24
                0x0002b72c       0x4e examples/pb_remote/client/CMakeFiles/pb_remote_client_nrf52832_xxAA_s132_6.1.1.dir/__/__/__/models/foundation/config/src/config_server.c.obj
 .text.handle_config_sig_model_subscription_get
                0x0002b77a       0xa2 examples/pb_remote/client/CMakeFiles/pb_remote_client_nrf52832_xxAA_s132_6.1.1.dir/__/__/__/models/foundation/config/src/config_server.c.obj
 .text.heartbeat_subscription_count_encode
                0x0002b81c       0x32 examples/pb_remote/client/CMakeFiles/pb_remote_client_nrf52832_xxAA_s132_6.1.1.dir/__/__/__/models/foundation/config/src/config_server.c.obj
 .text.heartbeat_pubsub_period_encode
                0x0002b84e       0x26 examples/pb_remote/client/CMakeFiles/pb_remote_client_nrf52832_xxAA_s132_6.1.1.dir/__/__/__/models/foundation/config/src/config_server.c.obj
 .text.handle_heartbeat_publication_get
                0x0002b874       0x8a examples/pb_remote/client/CMakeFiles/pb_remote_client_nrf52832_xxAA_s132_6.1.1.dir/__/__/__/models/foundation/config/src/config_server.c.obj
 .text.handle_heartbeat_subscription_get
                0x0002b8fe       0x84 examples/pb_remote/client/CMakeFiles/pb_remote_client_nrf52832_xxAA_s132_6.1.1.dir/__/__/__/models/foundation/config/src/config_server.c.obj
 .text.handle_appkey_update
                0x0002b982       0xbc examples/pb_remote/client/CMakeFiles/pb_remote_client_nrf52832_xxAA_s132_6.1.1.dir/__/__/__/models/foundation/config/src/config_server.c.obj
 .text.handle_appkey_delete
                0x0002ba3e       0xc2 examples/pb_remote/client/CMakeFiles/pb_remote_client_nrf52832_xxAA_s132_6.1.1.dir/__/__/__/models/foundation/config/src/config_server.c.obj
 .text.handle_heartbeat_subscription_set
                0x0002bb00       0xa8 examples/pb_remote/client/CMakeFiles/pb_remote_client_nrf52832_xxAA_s132_6.1.1.dir/__/__/__/models/foundation/config/src/config_server.c.obj
 .text.handle_config_model_publication_get
                0x0002bba8       0x8c examples/pb_remote/client/CMakeFiles/pb_remote_client_nrf52832_xxAA_s132_6.1.1.dir/__/__/__/models/foundation/config/src/config_server.c.obj
 .text.handle_config_model_subscription_delete_all
                0x0002bc34       0xc2 examples/pb_remote/client/CMakeFiles/pb_remote_client_nrf52832_xxAA_s132_6.1.1.dir/__/__/__/models/foundation/config/src/config_server.c.obj
 .text.handle_config_model_subscription_virtual_address_delete
                0x0002bcf6      0x108 examples/pb_remote/client/CMakeFiles/pb_remote_client_nrf52832_xxAA_s132_6.1.1.dir/__/__/__/models/foundation/config/src/config_server.c.obj
 .text.handle_config_model_subscription_virtual_address_add
                0x0002bdfe      0x106 examples/pb_remote/client/CMakeFiles/pb_remote_client_nrf52832_xxAA_s132_6.1.1.dir/__/__/__/models/foundation/config/src/config_server.c.obj
 .text.handle_config_model_subscription_delete
                0x0002bf04      0x10e examples/pb_remote/client/CMakeFiles/pb_remote_client_nrf52832_xxAA_s132_6.1.1.dir/__/__/__/models/foundation/config/src/config_server.c.obj
 .text.handle_config_model_subscription_add
                0x0002c012      0x112 examples/pb_remote/client/CMakeFiles/pb_remote_client_nrf52832_xxAA_s132_6.1.1.dir/__/__/__/models/foundation/config/src/config_server.c.obj
 .text.handle_config_model_subscription_virtual_address_overwrite
                0x0002c124      0x120 examples/pb_remote/client/CMakeFiles/pb_remote_client_nrf52832_xxAA_s132_6.1.1.dir/__/__/__/models/foundation/config/src/config_server.c.obj
 .text.handle_model_app_get
                0x0002c244      0x19c examples/pb_remote/client/CMakeFiles/pb_remote_client_nrf52832_xxAA_s132_6.1.1.dir/__/__/__/models/foundation/config/src/config_server.c.obj
 .text.handle_config_model_subscription_overwrite
                0x0002c3e0      0x11a examples/pb_remote/client/CMakeFiles/pb_remote_client_nrf52832_xxAA_s132_6.1.1.dir/__/__/__/models/foundation/config/src/config_server.c.obj
 .text.handle_config_vendor_model_subscription_get
                0x0002c4fa       0xde examples/pb_remote/client/CMakeFiles/pb_remote_client_nrf52832_xxAA_s132_6.1.1.dir/__/__/__/models/foundation/config/src/config_server.c.obj
 .text.handle_model_app_bind_unbind
                0x0002c5d8      0x1ec examples/pb_remote/client/CMakeFiles/pb_remote_client_nrf52832_xxAA_s132_6.1.1.dir/__/__/__/models/foundation/config/src/config_server.c.obj
 .text.handle_config_model_publication_set
                0x0002c7c4      0x2d6 examples/pb_remote/client/CMakeFiles/pb_remote_client_nrf52832_xxAA_s132_6.1.1.dir/__/__/__/models/foundation/config/src/config_server.c.obj
 *fill*         0x0002ca9a        0x2 
 .text.config_server_init
                0x0002ca9c       0x60 examples/pb_remote/client/CMakeFiles/pb_remote_client_nrf52832_xxAA_s132_6.1.1.dir/__/__/__/models/foundation/config/src/config_server.c.obj
                0x0002ca9c                config_server_init
 .text.packed_index_list_create
                0x0002cafc       0x32 examples/pb_remote/client/CMakeFiles/pb_remote_client_nrf52832_xxAA_s132_6.1.1.dir/__/__/__/models/foundation/config/src/packed_index_list.c.obj
                0x0002cafc                packed_index_list_create
 *fill*         0x0002cb2e        0x2 
 .text.health_server_fpd_get
                0x0002cb30       0x20 examples/pb_remote/client/CMakeFiles/pb_remote_client_nrf52832_xxAA_s132_6.1.1.dir/__/__/__/models/foundation/health/src/health_server.c.obj
 .text.health_server_fpd_delete
                0x0002cb50       0x20 examples/pb_remote/client/CMakeFiles/pb_remote_client_nrf52832_xxAA_s132_6.1.1.dir/__/__/__/models/foundation/health/src/health_server.c.obj
 .text.attention_timer_handler
                0x0002cb70       0x5c examples/pb_remote/client/CMakeFiles/pb_remote_client_nrf52832_xxAA_s132_6.1.1.dir/__/__/__/models/foundation/health/src/health_server.c.obj
 .text.send_attention_status
                0x0002cbcc       0x44 examples/pb_remote/client/CMakeFiles/pb_remote_client_nrf52832_xxAA_s132_6.1.1.dir/__/__/__/models/foundation/health/src/health_server.c.obj
 .text.handle_attention_get
                0x0002cc10        0xc examples/pb_remote/client/CMakeFiles/pb_remote_client_nrf52832_xxAA_s132_6.1.1.dir/__/__/__/models/foundation/health/src/health_server.c.obj
 .text.send_period_status
                0x0002cc1c       0x40 examples/pb_remote/client/CMakeFiles/pb_remote_client_nrf52832_xxAA_s132_6.1.1.dir/__/__/__/models/foundation/health/src/health_server.c.obj
 .text.handle_period_get
                0x0002cc5c        0xc examples/pb_remote/client/CMakeFiles/pb_remote_client_nrf52832_xxAA_s132_6.1.1.dir/__/__/__/models/foundation/health/src/health_server.c.obj
 .text.attention_timer_set.part.1
                0x0002cc68       0x84 examples/pb_remote/client/CMakeFiles/pb_remote_client_nrf52832_xxAA_s132_6.1.1.dir/__/__/__/models/foundation/health/src/health_server.c.obj
 .text.handle_attention_set
                0x0002ccec       0x32 examples/pb_remote/client/CMakeFiles/pb_remote_client_nrf52832_xxAA_s132_6.1.1.dir/__/__/__/models/foundation/health/src/health_server.c.obj
 *fill*         0x0002cd1e        0x2 
 .text.handle_period_set
                0x0002cd20       0x4c examples/pb_remote/client/CMakeFiles/pb_remote_client_nrf52832_xxAA_s132_6.1.1.dir/__/__/__/models/foundation/health/src/health_server.c.obj
 .text.bitfield_next_get.part.0.constprop.10
                0x0002cd6c       0x44 examples/pb_remote/client/CMakeFiles/pb_remote_client_nrf52832_xxAA_s132_6.1.1.dir/__/__/__/models/foundation/health/src/health_server.c.obj
 .text.send_fault_status
                0x0002cdb0       0x8c examples/pb_remote/client/CMakeFiles/pb_remote_client_nrf52832_xxAA_s132_6.1.1.dir/__/__/__/models/foundation/health/src/health_server.c.obj
 .text.health_publish_timeout_handler
                0x0002ce3c        0xa examples/pb_remote/client/CMakeFiles/pb_remote_client_nrf52832_xxAA_s132_6.1.1.dir/__/__/__/models/foundation/health/src/health_server.c.obj
 .text.handle_fault_test
                0x0002ce46       0x66 examples/pb_remote/client/CMakeFiles/pb_remote_client_nrf52832_xxAA_s132_6.1.1.dir/__/__/__/models/foundation/health/src/health_server.c.obj
 .text.handle_fault_get
                0x0002ceac       0x32 examples/pb_remote/client/CMakeFiles/pb_remote_client_nrf52832_xxAA_s132_6.1.1.dir/__/__/__/models/foundation/health/src/health_server.c.obj
 .text.handle_fault_clear
                0x0002cede       0x48 examples/pb_remote/client/CMakeFiles/pb_remote_client_nrf52832_xxAA_s132_6.1.1.dir/__/__/__/models/foundation/health/src/health_server.c.obj
 .text.health_server_fault_count_get
                0x0002cf26       0x2c examples/pb_remote/client/CMakeFiles/pb_remote_client_nrf52832_xxAA_s132_6.1.1.dir/__/__/__/models/foundation/health/src/health_server.c.obj
                0x0002cf26                health_server_fault_count_get
 *fill*         0x0002cf52        0x2 
 .text.health_server_fpd_set
                0x0002cf54       0x44 examples/pb_remote/client/CMakeFiles/pb_remote_client_nrf52832_xxAA_s132_6.1.1.dir/__/__/__/models/foundation/health/src/health_server.c.obj
 .text.health_server_init
                0x0002cf98       0x78 examples/pb_remote/client/CMakeFiles/pb_remote_client_nrf52832_xxAA_s132_6.1.1.dir/__/__/__/models/foundation/health/src/health_server.c.obj
                0x0002cf98                health_server_init
 .text.add_to_publication_list
                0x0002d010       0x78 examples/pb_remote/client/CMakeFiles/pb_remote_client_nrf52832_xxAA_s132_6.1.1.dir/__/__/__/mesh/access/src/access_publish.c.obj
 .text.step_resolution_to_us
                0x0002d088       0x38 examples/pb_remote/client/CMakeFiles/pb_remote_client_nrf52832_xxAA_s132_6.1.1.dir/__/__/__/mesh/access/src/access_publish.c.obj
 .text.schedule_publication_timer
                0x0002d0c0      0x184 examples/pb_remote/client/CMakeFiles/pb_remote_client_nrf52832_xxAA_s132_6.1.1.dir/__/__/__/mesh/access/src/access_publish.c.obj
 .text.publish_timer_tick
                0x0002d244       0xa8 examples/pb_remote/client/CMakeFiles/pb_remote_client_nrf52832_xxAA_s132_6.1.1.dir/__/__/__/mesh/access/src/access_publish.c.obj
 .text.access_publish_init
                0x0002d2ec       0x38 examples/pb_remote/client/CMakeFiles/pb_remote_client_nrf52832_xxAA_s132_6.1.1.dir/__/__/__/mesh/access/src/access_publish.c.obj
                0x0002d2ec                access_publish_init
 .text.access_publish_period_set
                0x0002d324       0x60 examples/pb_remote/client/CMakeFiles/pb_remote_client_nrf52832_xxAA_s132_6.1.1.dir/__/__/__/mesh/access/src/access_publish.c.obj
                0x0002d324                access_publish_period_set
 .text.get_next_timeout_index
                0x0002d384       0x40 examples/pb_remote/client/CMakeFiles/pb_remote_client_nrf52832_xxAA_s132_6.1.1.dir/__/__/__/mesh/access/src/access_publish_retransmission.c.obj
 .text.message_remove
                0x0002d3c4       0x5c examples/pb_remote/client/CMakeFiles/pb_remote_client_nrf52832_xxAA_s132_6.1.1.dir/__/__/__/mesh/access/src/access_publish_retransmission.c.obj
 .text.retransmissions_timer_cb
                0x0002d420       0xc8 examples/pb_remote/client/CMakeFiles/pb_remote_client_nrf52832_xxAA_s132_6.1.1.dir/__/__/__/mesh/access/src/access_publish_retransmission.c.obj
 .text.access_publish_retransmission_init
                0x0002d4e8       0x24 examples/pb_remote/client/CMakeFiles/pb_remote_client_nrf52832_xxAA_s132_6.1.1.dir/__/__/__/mesh/access/src/access_publish_retransmission.c.obj
                0x0002d4e8                access_publish_retransmission_init
 .text.access_publish_retransmission_message_add
                0x0002d50c       0xf8 examples/pb_remote/client/CMakeFiles/pb_remote_client_nrf52832_xxAA_s132_6.1.1.dir/__/__/__/mesh/access/src/access_publish_retransmission.c.obj
                0x0002d50c                access_publish_retransmission_message_add
 .text.bitfield_get
                0x0002d604       0x1a examples/pb_remote/client/CMakeFiles/pb_remote_client_nrf52832_xxAA_s132_6.1.1.dir/__/__/__/mesh/access/src/access.c.obj
 .text.is_valid_opcode
                0x0002d61e       0x42 examples/pb_remote/client/CMakeFiles/pb_remote_client_nrf52832_xxAA_s132_6.1.1.dir/__/__/__/mesh/access/src/access.c.obj
 .text.model_handle_valid_and_allocated
                0x0002d660       0x20 examples/pb_remote/client/CMakeFiles/pb_remote_client_nrf52832_xxAA_s132_6.1.1.dir/__/__/__/mesh/access/src/access.c.obj
 .text.flash_manager_mem_available
                0x0002d680        0x2 examples/pb_remote/client/CMakeFiles/pb_remote_client_nrf52832_xxAA_s132_6.1.1.dir/__/__/__/mesh/access/src/access.c.obj
 *fill*         0x0002d682        0x2 
 .text.restore_acquired_subscription
                0x0002d684       0x30 examples/pb_remote/client/CMakeFiles/pb_remote_client_nrf52832_xxAA_s132_6.1.1.dir/__/__/__/mesh/access/src/access.c.obj
 .text.restore_acquired_element
                0x0002d6b4       0x1c examples/pb_remote/client/CMakeFiles/pb_remote_client_nrf52832_xxAA_s132_6.1.1.dir/__/__/__/mesh/access/src/access.c.obj
 .text.restore_flash_data
                0x0002d6d0       0x28 examples/pb_remote/client/CMakeFiles/pb_remote_client_nrf52832_xxAA_s132_6.1.1.dir/__/__/__/mesh/access/src/access.c.obj
 .text.check_tx_params
                0x0002d6f8       0x5c examples/pb_remote/client/CMakeFiles/pb_remote_client_nrf52832_xxAA_s132_6.1.1.dir/__/__/__/mesh/access/src/access.c.obj
 .text.flash_invalidate_complete
                0x0002d754        0x6 examples/pb_remote/client/CMakeFiles/pb_remote_client_nrf52832_xxAA_s132_6.1.1.dir/__/__/__/mesh/access/src/access.c.obj
 *fill*         0x0002d75a        0x2 
 .text.access_flash_config_clear
                0x0002d75c       0x3c examples/pb_remote/client/CMakeFiles/pb_remote_client_nrf52832_xxAA_s132_6.1.1.dir/__/__/__/mesh/access/src/access.c.obj
 .text.access_state_clear
                0x0002d798       0x4c examples/pb_remote/client/CMakeFiles/pb_remote_client_nrf52832_xxAA_s132_6.1.1.dir/__/__/__/mesh/access/src/access.c.obj
 .text.packet_tx
                0x0002d7e4      0x204 examples/pb_remote/client/CMakeFiles/pb_remote_client_nrf52832_xxAA_s132_6.1.1.dir/__/__/__/mesh/access/src/access.c.obj
 .text.flash_write_complete
                0x0002d9e8       0x46 examples/pb_remote/client/CMakeFiles/pb_remote_client_nrf52832_xxAA_s132_6.1.1.dir/__/__/__/mesh/access/src/access.c.obj
 *fill*         0x0002da2e        0x2 
 .text.access_flash_config_store
                0x0002da30      0x144 examples/pb_remote/client/CMakeFiles/pb_remote_client_nrf52832_xxAA_s132_6.1.1.dir/__/__/__/mesh/access/src/access.c.obj
                0x0002da30                access_flash_config_store
 .text.bitfield_next_get.part.0.constprop.10
                0x0002db74       0x34 examples/pb_remote/client/CMakeFiles/pb_remote_client_nrf52832_xxAA_s132_6.1.1.dir/__/__/__/mesh/access/src/access.c.obj
 .text.packet_alloc_and_tx
                0x0002dba8       0xbe examples/pb_remote/client/CMakeFiles/pb_remote_client_nrf52832_xxAA_s132_6.1.1.dir/__/__/__/mesh/access/src/access.c.obj
 *fill*         0x0002dc66        0x2 
 .text.restore_acquired_model
                0x0002dc68       0x8c examples/pb_remote/client/CMakeFiles/pb_remote_client_nrf52832_xxAA_s132_6.1.1.dir/__/__/__/mesh/access/src/access.c.obj
 .text.access_flash_config_load
                0x0002dcf4      0x1a0 examples/pb_remote/client/CMakeFiles/pb_remote_client_nrf52832_xxAA_s132_6.1.1.dir/__/__/__/mesh/access/src/access.c.obj
                0x0002dcf4                access_flash_config_load
 .text.access_incoming_handle
                0x0002de94      0x1ac examples/pb_remote/client/CMakeFiles/pb_remote_client_nrf52832_xxAA_s132_6.1.1.dir/__/__/__/mesh/access/src/access.c.obj
                0x0002de94                access_incoming_handle
 .text.mesh_msg_handle
                0x0002e040      0x1cc examples/pb_remote/client/CMakeFiles/pb_remote_client_nrf52832_xxAA_s132_6.1.1.dir/__/__/__/mesh/access/src/access.c.obj
 .text.mesh_evt_cb
                0x0002e20c        0xc examples/pb_remote/client/CMakeFiles/pb_remote_client_nrf52832_xxAA_s132_6.1.1.dir/__/__/__/mesh/access/src/access.c.obj
 .text.access_packet_tx
                0x0002e218       0x32 examples/pb_remote/client/CMakeFiles/pb_remote_client_nrf52832_xxAA_s132_6.1.1.dir/__/__/__/mesh/access/src/access.c.obj
                0x0002e218                access_packet_tx
 .text.access_clear
                0x0002e24a       0x12 examples/pb_remote/client/CMakeFiles/pb_remote_client_nrf52832_xxAA_s132_6.1.1.dir/__/__/__/mesh/access/src/access.c.obj
                0x0002e24a                access_clear
 .text.access_model_add
                0x0002e25c      0x1ac examples/pb_remote/client/CMakeFiles/pb_remote_client_nrf52832_xxAA_s132_6.1.1.dir/__/__/__/mesh/access/src/access.c.obj
                0x0002e25c                access_model_add
 .text.access_model_publish
                0x0002e408       0x58 examples/pb_remote/client/CMakeFiles/pb_remote_client_nrf52832_xxAA_s132_6.1.1.dir/__/__/__/mesh/access/src/access.c.obj
                0x0002e408                access_model_publish
 .text.access_model_reply
                0x0002e460       0x1c examples/pb_remote/client/CMakeFiles/pb_remote_client_nrf52832_xxAA_s132_6.1.1.dir/__/__/__/mesh/access/src/access.c.obj
                0x0002e460                access_model_reply
 .text.access_model_publish_address_set
                0x0002e47c       0x3c examples/pb_remote/client/CMakeFiles/pb_remote_client_nrf52832_xxAA_s132_6.1.1.dir/__/__/__/mesh/access/src/access.c.obj
                0x0002e47c                access_model_publish_address_set
 .text.access_model_publish_address_get
                0x0002e4b8       0x28 examples/pb_remote/client/CMakeFiles/pb_remote_client_nrf52832_xxAA_s132_6.1.1.dir/__/__/__/mesh/access/src/access.c.obj
                0x0002e4b8                access_model_publish_address_get
 .text.access_model_publish_retransmit_set
                0x0002e4e0       0x4c examples/pb_remote/client/CMakeFiles/pb_remote_client_nrf52832_xxAA_s132_6.1.1.dir/__/__/__/mesh/access/src/access.c.obj
                0x0002e4e0                access_model_publish_retransmit_set
 .text.access_model_publish_retransmit_get
                0x0002e52c       0x2c examples/pb_remote/client/CMakeFiles/pb_remote_client_nrf52832_xxAA_s132_6.1.1.dir/__/__/__/mesh/access/src/access.c.obj
                0x0002e52c                access_model_publish_retransmit_get
 .text.access_model_publish_period_get
                0x0002e558       0x40 examples/pb_remote/client/CMakeFiles/pb_remote_client_nrf52832_xxAA_s132_6.1.1.dir/__/__/__/mesh/access/src/access.c.obj
                0x0002e558                access_model_publish_period_get
 .text.access_publish_timing_update
                0x0002e598       0xc0 examples/pb_remote/client/CMakeFiles/pb_remote_client_nrf52832_xxAA_s132_6.1.1.dir/__/__/__/mesh/access/src/access.c.obj
 .text.access_model_publish_period_divisor_set
                0x0002e658       0x38 examples/pb_remote/client/CMakeFiles/pb_remote_client_nrf52832_xxAA_s132_6.1.1.dir/__/__/__/mesh/access/src/access.c.obj
                0x0002e658                access_model_publish_period_divisor_set
 .text.access_model_publish_period_set
                0x0002e690       0x6c examples/pb_remote/client/CMakeFiles/pb_remote_client_nrf52832_xxAA_s132_6.1.1.dir/__/__/__/mesh/access/src/access.c.obj
                0x0002e690                access_model_publish_period_set
 .text.access_model_subscription_list_alloc
                0x0002e6fc       0x68 examples/pb_remote/client/CMakeFiles/pb_remote_client_nrf52832_xxAA_s132_6.1.1.dir/__/__/__/mesh/access/src/access.c.obj
                0x0002e6fc                access_model_subscription_list_alloc
 .text.access_model_subscription_add
                0x0002e764       0x60 examples/pb_remote/client/CMakeFiles/pb_remote_client_nrf52832_xxAA_s132_6.1.1.dir/__/__/__/mesh/access/src/access.c.obj
                0x0002e764                access_model_subscription_add
 .text.access_model_subscription_remove
                0x0002e7c4       0x60 examples/pb_remote/client/CMakeFiles/pb_remote_client_nrf52832_xxAA_s132_6.1.1.dir/__/__/__/mesh/access/src/access.c.obj
                0x0002e7c4                access_model_subscription_remove
 .text.access_model_subscriptions_get
                0x0002e824       0x78 examples/pb_remote/client/CMakeFiles/pb_remote_client_nrf52832_xxAA_s132_6.1.1.dir/__/__/__/mesh/access/src/access.c.obj
                0x0002e824                access_model_subscriptions_get
 .text.access_model_application_bind
                0x0002e89c       0x50 examples/pb_remote/client/CMakeFiles/pb_remote_client_nrf52832_xxAA_s132_6.1.1.dir/__/__/__/mesh/access/src/access.c.obj
                0x0002e89c                access_model_application_bind
 .text.access_model_application_unbind
                0x0002e8ec       0x50 examples/pb_remote/client/CMakeFiles/pb_remote_client_nrf52832_xxAA_s132_6.1.1.dir/__/__/__/mesh/access/src/access.c.obj
                0x0002e8ec                access_model_application_unbind
 .text.access_model_applications_get
                0x0002e93c       0x44 examples/pb_remote/client/CMakeFiles/pb_remote_client_nrf52832_xxAA_s132_6.1.1.dir/__/__/__/mesh/access/src/access.c.obj
                0x0002e93c                access_model_applications_get
 .text.access_model_publish_application_set
                0x0002e980       0x3c examples/pb_remote/client/CMakeFiles/pb_remote_client_nrf52832_xxAA_s132_6.1.1.dir/__/__/__/mesh/access/src/access.c.obj
                0x0002e980                access_model_publish_application_set
 .text.access_model_publish_application_get
                0x0002e9bc       0x28 examples/pb_remote/client/CMakeFiles/pb_remote_client_nrf52832_xxAA_s132_6.1.1.dir/__/__/__/mesh/access/src/access.c.obj
                0x0002e9bc                access_model_publish_application_get
 .text.access_default_ttl_set
                0x0002e9e4       0x18 examples/pb_remote/client/CMakeFiles/pb_remote_client_nrf52832_xxAA_s132_6.1.1.dir/__/__/__/mesh/access/src/access.c.obj
                0x0002e9e4                access_default_ttl_set
 .text.access_default_ttl_get
                0x0002e9fc        0xc examples/pb_remote/client/CMakeFiles/pb_remote_client_nrf52832_xxAA_s132_6.1.1.dir/__/__/__/mesh/access/src/access.c.obj
                0x0002e9fc                access_default_ttl_get
 .text.access_model_publish_friendship_credential_flag_set
                0x0002ea08       0x38 examples/pb_remote/client/CMakeFiles/pb_remote_client_nrf52832_xxAA_s132_6.1.1.dir/__/__/__/mesh/access/src/access.c.obj
                0x0002ea08                access_model_publish_friendship_credential_flag_set
 .text.access_model_publish_friendship_credential_flag_get
                0x0002ea40       0x28 examples/pb_remote/client/CMakeFiles/pb_remote_client_nrf52832_xxAA_s132_6.1.1.dir/__/__/__/mesh/access/src/access.c.obj
                0x0002ea40                access_model_publish_friendship_credential_flag_get
 .text.access_model_publish_ttl_set
                0x0002ea68       0x40 examples/pb_remote/client/CMakeFiles/pb_remote_client_nrf52832_xxAA_s132_6.1.1.dir/__/__/__/mesh/access/src/access.c.obj
                0x0002ea68                access_model_publish_ttl_set
 .text.access_model_publish_ttl_get
                0x0002eaa8       0x28 examples/pb_remote/client/CMakeFiles/pb_remote_client_nrf52832_xxAA_s132_6.1.1.dir/__/__/__/mesh/access/src/access.c.obj
                0x0002eaa8                access_model_publish_ttl_get
 .text.access_element_location_get
                0x0002ead0       0x18 examples/pb_remote/client/CMakeFiles/pb_remote_client_nrf52832_xxAA_s132_6.1.1.dir/__/__/__/mesh/access/src/access.c.obj
                0x0002ead0                access_element_location_get
 .text.access_element_sig_model_count_get
                0x0002eae8       0x18 examples/pb_remote/client/CMakeFiles/pb_remote_client_nrf52832_xxAA_s132_6.1.1.dir/__/__/__/mesh/access/src/access.c.obj
                0x0002eae8                access_element_sig_model_count_get
 .text.access_element_vendor_model_count_get
                0x0002eb00       0x18 examples/pb_remote/client/CMakeFiles/pb_remote_client_nrf52832_xxAA_s132_6.1.1.dir/__/__/__/mesh/access/src/access.c.obj
                0x0002eb00                access_element_vendor_model_count_get
 .text.access_model_id_get
                0x0002eb18       0x2c examples/pb_remote/client/CMakeFiles/pb_remote_client_nrf52832_xxAA_s132_6.1.1.dir/__/__/__/mesh/access/src/access.c.obj
                0x0002eb18                access_model_id_get
 .text.access_handle_get
                0x0002eb44       0x54 examples/pb_remote/client/CMakeFiles/pb_remote_client_nrf52832_xxAA_s132_6.1.1.dir/__/__/__/mesh/access/src/access.c.obj
                0x0002eb44                access_handle_get
 .text.access_element_models_get
                0x0002eb98       0x54 examples/pb_remote/client/CMakeFiles/pb_remote_client_nrf52832_xxAA_s132_6.1.1.dir/__/__/__/mesh/access/src/access.c.obj
                0x0002eb98                access_element_models_get
 .text.access_model_p_args_get
                0x0002ebec       0x28 examples/pb_remote/client/CMakeFiles/pb_remote_client_nrf52832_xxAA_s132_6.1.1.dir/__/__/__/mesh/access/src/access.c.obj
                0x0002ebec                access_model_p_args_get
 .text.access_model_publication_stop
                0x0002ec14       0x58 examples/pb_remote/client/CMakeFiles/pb_remote_client_nrf52832_xxAA_s132_6.1.1.dir/__/__/__/mesh/access/src/access.c.obj
                0x0002ec14                access_model_publication_stop
 .text.access_model_publication_by_appkey_stop
                0x0002ec6c       0x36 examples/pb_remote/client/CMakeFiles/pb_remote_client_nrf52832_xxAA_s132_6.1.1.dir/__/__/__/mesh/access/src/access.c.obj
                0x0002ec6c                access_model_publication_by_appkey_stop
 .text.access_flash_area_get
                0x0002eca2        0xc examples/pb_remote/client/CMakeFiles/pb_remote_client_nrf52832_xxAA_s132_6.1.1.dir/__/__/__/mesh/access/src/access.c.obj
                0x0002eca2                access_flash_area_get
 *fill*         0x0002ecae        0x2 
 .text.add_flash_manager
                0x0002ecb0       0x54 examples/pb_remote/client/CMakeFiles/pb_remote_client_nrf52832_xxAA_s132_6.1.1.dir/__/__/__/mesh/access/src/access.c.obj
 .text.access_init
                0x0002ed04       0x34 examples/pb_remote/client/CMakeFiles/pb_remote_client_nrf52832_xxAA_s132_6.1.1.dir/__/__/__/mesh/access/src/access.c.obj
                0x0002ed04                access_init
 .text.flash_remove_complete
                0x0002ed38       0x58 examples/pb_remote/client/CMakeFiles/pb_remote_client_nrf52832_xxAA_s132_6.1.1.dir/__/__/__/mesh/access/src/access.c.obj
 .text.reliable_timer_cb
                0x0002ed90      0x18c examples/pb_remote/client/CMakeFiles/pb_remote_client_nrf52832_xxAA_s132_6.1.1.dir/__/__/__/mesh/access/src/access_reliable.c.obj
 .text.remove_and_reschedule
                0x0002ef1c       0xac examples/pb_remote/client/CMakeFiles/pb_remote_client_nrf52832_xxAA_s132_6.1.1.dir/__/__/__/mesh/access/src/access_reliable.c.obj
 .text.access_reliable_message_rx_cb
                0x0002efc8       0x60 examples/pb_remote/client/CMakeFiles/pb_remote_client_nrf52832_xxAA_s132_6.1.1.dir/__/__/__/mesh/access/src/access_reliable.c.obj
                0x0002efc8                access_reliable_message_rx_cb
 .text.access_reliable_init
                0x0002f028       0x1c examples/pb_remote/client/CMakeFiles/pb_remote_client_nrf52832_xxAA_s132_6.1.1.dir/__/__/__/mesh/access/src/access_reliable.c.obj
                0x0002f028                access_reliable_init
 .text.access_reliable_cancel_all
                0x0002f044       0x5c examples/pb_remote/client/CMakeFiles/pb_remote_client_nrf52832_xxAA_s132_6.1.1.dir/__/__/__/mesh/access/src/access_reliable.c.obj
                0x0002f044                access_reliable_cancel_all
 .text.access_model_reliable_cancel
                0x0002f0a0       0x68 examples/pb_remote/client/CMakeFiles/pb_remote_client_nrf52832_xxAA_s132_6.1.1.dir/__/__/__/mesh/access/src/access_reliable.c.obj
                0x0002f0a0                access_model_reliable_cancel
 .text.access_model_reliable_publish
                0x0002f108      0x1a0 examples/pb_remote/client/CMakeFiles/pb_remote_client_nrf52832_xxAA_s132_6.1.1.dir/__/__/__/mesh/access/src/access_reliable.c.obj
                0x0002f108                access_model_reliable_publish
 .text.bitfield_get
                0x0002f2a8       0x1a examples/pb_remote/client/CMakeFiles/pb_remote_client_nrf52832_xxAA_s132_6.1.1.dir/__/__/__/mesh/access/src/device_state_manager.c.obj
 .text.bitfield_set
                0x0002f2c2       0x18 examples/pb_remote/client/CMakeFiles/pb_remote_client_nrf52832_xxAA_s132_6.1.1.dir/__/__/__/mesh/access/src/device_state_manager.c.obj
 .text.bitfield_clear
                0x0002f2da       0x1a examples/pb_remote/client/CMakeFiles/pb_remote_client_nrf52832_xxAA_s132_6.1.1.dir/__/__/__/mesh/access/src/device_state_manager.c.obj
 .text.bitfield_is_all_clear
                0x0002f2f4       0x38 examples/pb_remote/client/CMakeFiles/pb_remote_client_nrf52832_xxAA_s132_6.1.1.dir/__/__/__/mesh/access/src/device_state_manager.c.obj
 .text.dev_key_handle_get
                0x0002f32c       0x58 examples/pb_remote/client/CMakeFiles/pb_remote_client_nrf52832_xxAA_s132_6.1.1.dir/__/__/__/mesh/access/src/device_state_manager.c.obj
 .text.addr_nonvirtual_to_flash_entry
                0x0002f384       0x10 examples/pb_remote/client/CMakeFiles/pb_remote_client_nrf52832_xxAA_s132_6.1.1.dir/__/__/__/mesh/access/src/device_state_manager.c.obj
 .text.devkey_set
                0x0002f394       0x4c examples/pb_remote/client/CMakeFiles/pb_remote_client_nrf52832_xxAA_s132_6.1.1.dir/__/__/__/mesh/access/src/device_state_manager.c.obj
 .text.devkey_to_dsm_entry
                0x0002f3e0       0x16 examples/pb_remote/client/CMakeFiles/pb_remote_client_nrf52832_xxAA_s132_6.1.1.dir/__/__/__/mesh/access/src/device_state_manager.c.obj
 *fill*         0x0002f3f6        0x2 
 .text.devkey_to_flash_entry
                0x0002f3f8       0x28 examples/pb_remote/client/CMakeFiles/pb_remote_client_nrf52832_xxAA_s132_6.1.1.dir/__/__/__/mesh/access/src/device_state_manager.c.obj
 .text.addr_virtual_to_flash_entry
                0x0002f420       0x18 examples/pb_remote/client/CMakeFiles/pb_remote_client_nrf52832_xxAA_s132_6.1.1.dir/__/__/__/mesh/access/src/device_state_manager.c.obj
 .text.addr_unicast_to_dsm_entry
                0x0002f438        0xc examples/pb_remote/client/CMakeFiles/pb_remote_client_nrf52832_xxAA_s132_6.1.1.dir/__/__/__/mesh/access/src/device_state_manager.c.obj
 .text.addr_unicast_to_flash_entry
                0x0002f444       0x10 examples/pb_remote/client/CMakeFiles/pb_remote_client_nrf52832_xxAA_s132_6.1.1.dir/__/__/__/mesh/access/src/device_state_manager.c.obj
 .text.flash_read_callback
                0x0002f454       0xa8 examples/pb_remote/client/CMakeFiles/pb_remote_client_nrf52832_xxAA_s132_6.1.1.dir/__/__/__/mesh/access/src/device_state_manager.c.obj
 .text.flash_mem_listener_callback
                0x0002f4fc       0x14 examples/pb_remote/client/CMakeFiles/pb_remote_client_nrf52832_xxAA_s132_6.1.1.dir/__/__/__/mesh/access/src/device_state_manager.c.obj
 .text.get_subnet_handle
                0x0002f510       0x34 examples/pb_remote/client/CMakeFiles/pb_remote_client_nrf52832_xxAA_s132_6.1.1.dir/__/__/__/mesh/access/src/device_state_manager.c.obj
 .text.appkey_set
                0x0002f544       0x70 examples/pb_remote/client/CMakeFiles/pb_remote_client_nrf52832_xxAA_s132_6.1.1.dir/__/__/__/mesh/access/src/device_state_manager.c.obj
 .text.appkey_to_flash_entry
                0x0002f5b4       0x54 examples/pb_remote/client/CMakeFiles/pb_remote_client_nrf52832_xxAA_s132_6.1.1.dir/__/__/__/mesh/access/src/device_state_manager.c.obj
 .text.subnet_to_flash_entry
                0x0002f608       0x60 examples/pb_remote/client/CMakeFiles/pb_remote_client_nrf52832_xxAA_s132_6.1.1.dir/__/__/__/mesh/access/src/device_state_manager.c.obj
 .text.bitfield_clear_all
                0x0002f668        0xe examples/pb_remote/client/CMakeFiles/pb_remote_client_nrf52832_xxAA_s132_6.1.1.dir/__/__/__/mesh/access/src/device_state_manager.c.obj
 *fill*         0x0002f676        0x2 
 .text.subnet_set
                0x0002f678       0x98 examples/pb_remote/client/CMakeFiles/pb_remote_client_nrf52832_xxAA_s132_6.1.1.dir/__/__/__/mesh/access/src/device_state_manager.c.obj
 .text.virtual_address_set
                0x0002f710       0x48 examples/pb_remote/client/CMakeFiles/pb_remote_client_nrf52832_xxAA_s132_6.1.1.dir/__/__/__/mesh/access/src/device_state_manager.c.obj
 .text.addr_virtual_to_dsm_entry
                0x0002f758        0xc examples/pb_remote/client/CMakeFiles/pb_remote_client_nrf52832_xxAA_s132_6.1.1.dir/__/__/__/mesh/access/src/device_state_manager.c.obj
 .text.reset_flash_area
                0x0002f764       0x28 examples/pb_remote/client/CMakeFiles/pb_remote_client_nrf52832_xxAA_s132_6.1.1.dir/__/__/__/mesh/access/src/device_state_manager.c.obj
 .text.flash_save
                0x0002f78c       0x7c examples/pb_remote/client/CMakeFiles/pb_remote_client_nrf52832_xxAA_s132_6.1.1.dir/__/__/__/mesh/access/src/device_state_manager.c.obj
 .text.flash_invalidate
                0x0002f808       0x64 examples/pb_remote/client/CMakeFiles/pb_remote_client_nrf52832_xxAA_s132_6.1.1.dir/__/__/__/mesh/access/src/device_state_manager.c.obj
 .text.flash_update_all
                0x0002f86c       0x6c examples/pb_remote/client/CMakeFiles/pb_remote_client_nrf52832_xxAA_s132_6.1.1.dir/__/__/__/mesh/access/src/device_state_manager.c.obj
 .text.get_subnet_handle_by_beacon_info
                0x0002f8d8       0x24 examples/pb_remote/client/CMakeFiles/pb_remote_client_nrf52832_xxAA_s132_6.1.1.dir/__/__/__/mesh/access/src/device_state_manager.c.obj
 .text.get_app_handle
                0x0002f8fc       0x40 examples/pb_remote/client/CMakeFiles/pb_remote_client_nrf52832_xxAA_s132_6.1.1.dir/__/__/__/mesh/access/src/device_state_manager.c.obj
 .text.appkey_to_dsm_entry
                0x0002f93c       0x68 examples/pb_remote/client/CMakeFiles/pb_remote_client_nrf52832_xxAA_s132_6.1.1.dir/__/__/__/mesh/access/src/device_state_manager.c.obj
 .text.subnet_to_dsm_entry
                0x0002f9a4       0x68 examples/pb_remote/client/CMakeFiles/pb_remote_client_nrf52832_xxAA_s132_6.1.1.dir/__/__/__/mesh/access/src/device_state_manager.c.obj
 .text.flash_operation_complete
                0x0002fa0c       0x4c examples/pb_remote/client/CMakeFiles/pb_remote_client_nrf52832_xxAA_s132_6.1.1.dir/__/__/__/mesh/access/src/device_state_manager.c.obj
 .text.flash_invalidate_complete
                0x0002fa58        0x8 examples/pb_remote/client/CMakeFiles/pb_remote_client_nrf52832_xxAA_s132_6.1.1.dir/__/__/__/mesh/access/src/device_state_manager.c.obj
 .text.flash_write_complete
                0x0002fa60        0x8 examples/pb_remote/client/CMakeFiles/pb_remote_client_nrf52832_xxAA_s132_6.1.1.dir/__/__/__/mesh/access/src/device_state_manager.c.obj
 .text.bitfield_next_get.part.0.constprop.23
                0x0002fa68       0x38 examples/pb_remote/client/CMakeFiles/pb_remote_client_nrf52832_xxAA_s132_6.1.1.dir/__/__/__/mesh/access/src/device_state_manager.c.obj
 .text.add_address
                0x0002faa0      0x108 examples/pb_remote/client/CMakeFiles/pb_remote_client_nrf52832_xxAA_s132_6.1.1.dir/__/__/__/mesh/access/src/device_state_manager.c.obj
 .text.virtual_address_uuid_index_get
                0x0002fba8       0x38 examples/pb_remote/client/CMakeFiles/pb_remote_client_nrf52832_xxAA_s132_6.1.1.dir/__/__/__/mesh/access/src/device_state_manager.c.obj
 .text.add_address_virtual
                0x0002fbe0       0x70 examples/pb_remote/client/CMakeFiles/pb_remote_client_nrf52832_xxAA_s132_6.1.1.dir/__/__/__/mesh/access/src/device_state_manager.c.obj
 .text.net_key_handle_get
                0x0002fc50       0x30 examples/pb_remote/client/CMakeFiles/pb_remote_client_nrf52832_xxAA_s132_6.1.1.dir/__/__/__/mesh/access/src/device_state_manager.c.obj
 .text.app_key_handle_get
                0x0002fc80       0x30 examples/pb_remote/client/CMakeFiles/pb_remote_client_nrf52832_xxAA_s132_6.1.1.dir/__/__/__/mesh/access/src/device_state_manager.c.obj
 .text.address_handle_virtual_valid
                0x0002fcb0       0x14 examples/pb_remote/client/CMakeFiles/pb_remote_client_nrf52832_xxAA_s132_6.1.1.dir/__/__/__/mesh/access/src/device_state_manager.c.obj
 .text.address_handle_valid
                0x0002fcc4       0x2c examples/pb_remote/client/CMakeFiles/pb_remote_client_nrf52832_xxAA_s132_6.1.1.dir/__/__/__/mesh/access/src/device_state_manager.c.obj
 .text.address_delete_if_unused
                0x0002fcf0       0x78 examples/pb_remote/client/CMakeFiles/pb_remote_client_nrf52832_xxAA_s132_6.1.1.dir/__/__/__/mesh/access/src/device_state_manager.c.obj
 .text.addr_nonvirtual_to_dsm_entry
                0x0002fd68       0x34 examples/pb_remote/client/CMakeFiles/pb_remote_client_nrf52832_xxAA_s132_6.1.1.dir/__/__/__/mesh/access/src/device_state_manager.c.obj
 .text.dsm_flash_config_load
                0x0002fd9c       0x7c examples/pb_remote/client/CMakeFiles/pb_remote_client_nrf52832_xxAA_s132_6.1.1.dir/__/__/__/mesh/access/src/device_state_manager.c.obj
                0x0002fd9c                dsm_flash_config_load
 .text.dsm_flash_area_get
                0x0002fe18        0xc examples/pb_remote/client/CMakeFiles/pb_remote_client_nrf52832_xxAA_s132_6.1.1.dir/__/__/__/mesh/access/src/device_state_manager.c.obj
                0x0002fe18                dsm_flash_area_get
 .text.build_flash_area
                0x0002fe24       0x94 examples/pb_remote/client/CMakeFiles/pb_remote_client_nrf52832_xxAA_s132_6.1.1.dir/__/__/__/mesh/access/src/device_state_manager.c.obj
 .text.flash_remove_complete
                0x0002feb8        0x4 examples/pb_remote/client/CMakeFiles/pb_remote_client_nrf52832_xxAA_s132_6.1.1.dir/__/__/__/mesh/access/src/device_state_manager.c.obj
 .text.dsm_clear
                0x0002febc       0xa0 examples/pb_remote/client/CMakeFiles/pb_remote_client_nrf52832_xxAA_s132_6.1.1.dir/__/__/__/mesh/access/src/device_state_manager.c.obj
                0x0002febc                dsm_clear
 .text.dsm_init
                0x0002ff5c       0x3c examples/pb_remote/client/CMakeFiles/pb_remote_client_nrf52832_xxAA_s132_6.1.1.dir/__/__/__/mesh/access/src/device_state_manager.c.obj
                0x0002ff5c                dsm_init
 .text.dsm_local_unicast_addresses_set
                0x0002ff98       0x78 examples/pb_remote/client/CMakeFiles/pb_remote_client_nrf52832_xxAA_s132_6.1.1.dir/__/__/__/mesh/access/src/device_state_manager.c.obj
                0x0002ff98                dsm_local_unicast_addresses_set
 .text.dsm_local_unicast_addresses_get
                0x00030010       0x20 examples/pb_remote/client/CMakeFiles/pb_remote_client_nrf52832_xxAA_s132_6.1.1.dir/__/__/__/mesh/access/src/device_state_manager.c.obj
                0x00030010                dsm_local_unicast_addresses_get
 .text.dsm_address_publish_add
                0x00030030        0x6 examples/pb_remote/client/CMakeFiles/pb_remote_client_nrf52832_xxAA_s132_6.1.1.dir/__/__/__/mesh/access/src/device_state_manager.c.obj
                0x00030030                dsm_address_publish_add
 *fill*         0x00030036        0x2 
 .text.dsm_address_publish_add_handle
                0x00030038       0x38 examples/pb_remote/client/CMakeFiles/pb_remote_client_nrf52832_xxAA_s132_6.1.1.dir/__/__/__/mesh/access/src/device_state_manager.c.obj
                0x00030038                dsm_address_publish_add_handle
 .text.dsm_address_publish_virtual_add
                0x00030070        0x6 examples/pb_remote/client/CMakeFiles/pb_remote_client_nrf52832_xxAA_s132_6.1.1.dir/__/__/__/mesh/access/src/device_state_manager.c.obj
                0x00030070                dsm_address_publish_virtual_add
 *fill*         0x00030076        0x2 
 .text.dsm_address_publish_remove
                0x00030078       0x4c examples/pb_remote/client/CMakeFiles/pb_remote_client_nrf52832_xxAA_s132_6.1.1.dir/__/__/__/mesh/access/src/device_state_manager.c.obj
                0x00030078                dsm_address_publish_remove
 .text.dsm_address_subscription_add
                0x000300c4        0x6 examples/pb_remote/client/CMakeFiles/pb_remote_client_nrf52832_xxAA_s132_6.1.1.dir/__/__/__/mesh/access/src/device_state_manager.c.obj
                0x000300c4                dsm_address_subscription_add
 .text.dsm_address_subscription_virtual_add
                0x000300ca        0x6 examples/pb_remote/client/CMakeFiles/pb_remote_client_nrf52832_xxAA_s132_6.1.1.dir/__/__/__/mesh/access/src/device_state_manager.c.obj
                0x000300ca                dsm_address_subscription_virtual_add
 .text.dsm_address_subscription_add_handle
                0x000300d0       0x38 examples/pb_remote/client/CMakeFiles/pb_remote_client_nrf52832_xxAA_s132_6.1.1.dir/__/__/__/mesh/access/src/device_state_manager.c.obj
                0x000300d0                dsm_address_subscription_add_handle
 .text.dsm_address_get
                0x00030108       0x64 examples/pb_remote/client/CMakeFiles/pb_remote_client_nrf52832_xxAA_s132_6.1.1.dir/__/__/__/mesh/access/src/device_state_manager.c.obj
                0x00030108                dsm_address_get
 .text.dsm_address_subscription_remove
                0x0003016c       0x58 examples/pb_remote/client/CMakeFiles/pb_remote_client_nrf52832_xxAA_s132_6.1.1.dir/__/__/__/mesh/access/src/device_state_manager.c.obj
                0x0003016c                dsm_address_subscription_remove
 .text.dsm_address_get_all
                0x000301c4       0x5c examples/pb_remote/client/CMakeFiles/pb_remote_client_nrf52832_xxAA_s132_6.1.1.dir/__/__/__/mesh/access/src/device_state_manager.c.obj
                0x000301c4                dsm_address_get_all
 .text.dsm_address_handle_get
                0x00030220       0x98 examples/pb_remote/client/CMakeFiles/pb_remote_client_nrf52832_xxAA_s132_6.1.1.dir/__/__/__/mesh/access/src/device_state_manager.c.obj
                0x00030220                dsm_address_handle_get
 .text.dsm_net_key_index_to_subnet_handle
                0x000302b8       0x1c examples/pb_remote/client/CMakeFiles/pb_remote_client_nrf52832_xxAA_s132_6.1.1.dir/__/__/__/mesh/access/src/device_state_manager.c.obj
                0x000302b8                dsm_net_key_index_to_subnet_handle
 .text.dsm_subnet_handle_get
                0x000302d4        0xc examples/pb_remote/client/CMakeFiles/pb_remote_client_nrf52832_xxAA_s132_6.1.1.dir/__/__/__/mesh/access/src/device_state_manager.c.obj
                0x000302d4                dsm_subnet_handle_get
 .text.dsm_appkey_index_to_appkey_handle
                0x000302e0       0x1c examples/pb_remote/client/CMakeFiles/pb_remote_client_nrf52832_xxAA_s132_6.1.1.dir/__/__/__/mesh/access/src/device_state_manager.c.obj
                0x000302e0                dsm_appkey_index_to_appkey_handle
 .text.dsm_appkey_handle_get
                0x000302fc        0xc examples/pb_remote/client/CMakeFiles/pb_remote_client_nrf52832_xxAA_s132_6.1.1.dir/__/__/__/mesh/access/src/device_state_manager.c.obj
                0x000302fc                dsm_appkey_handle_get
 .text.dsm_appkey_handle_to_appkey_index
                0x00030308       0x24 examples/pb_remote/client/CMakeFiles/pb_remote_client_nrf52832_xxAA_s132_6.1.1.dir/__/__/__/mesh/access/src/device_state_manager.c.obj
                0x00030308                dsm_appkey_handle_to_appkey_index
 .text.dsm_appkey_handle_to_subnet_handle
                0x0003032c       0x94 examples/pb_remote/client/CMakeFiles/pb_remote_client_nrf52832_xxAA_s132_6.1.1.dir/__/__/__/mesh/access/src/device_state_manager.c.obj
                0x0003032c                dsm_appkey_handle_to_subnet_handle
 .text.dsm_subnet_add
                0x000303c0      0x11c examples/pb_remote/client/CMakeFiles/pb_remote_client_nrf52832_xxAA_s132_6.1.1.dir/__/__/__/mesh/access/src/device_state_manager.c.obj
                0x000303c0                dsm_subnet_add
 .text.dsm_subnet_kr_phase_get
                0x000304dc       0x20 examples/pb_remote/client/CMakeFiles/pb_remote_client_nrf52832_xxAA_s132_6.1.1.dir/__/__/__/mesh/access/src/device_state_manager.c.obj
                0x000304dc                dsm_subnet_kr_phase_get
 .text.dsm_subnet_update
                0x000304fc       0x9c examples/pb_remote/client/CMakeFiles/pb_remote_client_nrf52832_xxAA_s132_6.1.1.dir/__/__/__/mesh/access/src/device_state_manager.c.obj
                0x000304fc                dsm_subnet_update
 .text.dsm_subnet_update_swap_keys
                0x00030598       0x50 examples/pb_remote/client/CMakeFiles/pb_remote_client_nrf52832_xxAA_s132_6.1.1.dir/__/__/__/mesh/access/src/device_state_manager.c.obj
                0x00030598                dsm_subnet_update_swap_keys
 .text.dsm_subnet_update_commit
                0x000305e8       0xd0 examples/pb_remote/client/CMakeFiles/pb_remote_client_nrf52832_xxAA_s132_6.1.1.dir/__/__/__/mesh/access/src/device_state_manager.c.obj
                0x000305e8                dsm_subnet_update_commit
 .text.mesh_evt_handler
                0x000306b8       0x4c examples/pb_remote/client/CMakeFiles/pb_remote_client_nrf52832_xxAA_s132_6.1.1.dir/__/__/__/mesh/access/src/device_state_manager.c.obj
 .text.dsm_subnet_get_all
                0x00030704       0x3c examples/pb_remote/client/CMakeFiles/pb_remote_client_nrf52832_xxAA_s132_6.1.1.dir/__/__/__/mesh/access/src/device_state_manager.c.obj
                0x00030704                dsm_subnet_get_all
 .text.dsm_devkey_add
                0x00030740      0x11c examples/pb_remote/client/CMakeFiles/pb_remote_client_nrf52832_xxAA_s132_6.1.1.dir/__/__/__/mesh/access/src/device_state_manager.c.obj
                0x00030740                dsm_devkey_add
 .text.dsm_appkey_add
                0x0003085c      0x120 examples/pb_remote/client/CMakeFiles/pb_remote_client_nrf52832_xxAA_s132_6.1.1.dir/__/__/__/mesh/access/src/device_state_manager.c.obj
                0x0003085c                dsm_appkey_add
 .text.dsm_appkey_update
                0x0003097c       0x8c examples/pb_remote/client/CMakeFiles/pb_remote_client_nrf52832_xxAA_s132_6.1.1.dir/__/__/__/mesh/access/src/device_state_manager.c.obj
                0x0003097c                dsm_appkey_update
 .text.dsm_appkey_delete
                0x00030a08       0x28 examples/pb_remote/client/CMakeFiles/pb_remote_client_nrf52832_xxAA_s132_6.1.1.dir/__/__/__/mesh/access/src/device_state_manager.c.obj
                0x00030a08                dsm_appkey_delete
 .text.dsm_subnet_delete
                0x00030a30       0x78 examples/pb_remote/client/CMakeFiles/pb_remote_client_nrf52832_xxAA_s132_6.1.1.dir/__/__/__/mesh/access/src/device_state_manager.c.obj
                0x00030a30                dsm_subnet_delete
 .text.dsm_appkey_get_all
                0x00030aa8       0x50 examples/pb_remote/client/CMakeFiles/pb_remote_client_nrf52832_xxAA_s132_6.1.1.dir/__/__/__/mesh/access/src/device_state_manager.c.obj
                0x00030aa8                dsm_appkey_get_all
 .text.dsm_tx_secmat_get
                0x00030af8       0xb4 examples/pb_remote/client/CMakeFiles/pb_remote_client_nrf52832_xxAA_s132_6.1.1.dir/__/__/__/mesh/access/src/device_state_manager.c.obj
                0x00030af8                dsm_tx_secmat_get
 .text.dsm_net_secmat_from_keyindex_get
                0x00030bac       0x2c examples/pb_remote/client/CMakeFiles/pb_remote_client_nrf52832_xxAA_s132_6.1.1.dir/__/__/__/mesh/access/src/device_state_manager.c.obj
                0x00030bac                dsm_net_secmat_from_keyindex_get
 .text.nrf_mesh_net_secmat_next_get
                0x00030bd8       0x90 examples/pb_remote/client/CMakeFiles/pb_remote_client_nrf52832_xxAA_s132_6.1.1.dir/__/__/__/mesh/access/src/device_state_manager.c.obj
                0x00030bd8                nrf_mesh_net_secmat_next_get
 .text.nrf_mesh_app_secmat_next_get
                0x00030c68       0x68 examples/pb_remote/client/CMakeFiles/pb_remote_client_nrf52832_xxAA_s132_6.1.1.dir/__/__/__/mesh/access/src/device_state_manager.c.obj
                0x00030c68                nrf_mesh_app_secmat_next_get
 .text.nrf_mesh_devkey_secmat_get
                0x00030cd0       0x38 examples/pb_remote/client/CMakeFiles/pb_remote_client_nrf52832_xxAA_s132_6.1.1.dir/__/__/__/mesh/access/src/device_state_manager.c.obj
                0x00030cd0                nrf_mesh_devkey_secmat_get
 .text.nrf_mesh_beacon_info_next_get
                0x00030d08       0xa0 examples/pb_remote/client/CMakeFiles/pb_remote_client_nrf52832_xxAA_s132_6.1.1.dir/__/__/__/mesh/access/src/device_state_manager.c.obj
                0x00030d08                nrf_mesh_beacon_info_next_get
 .text.nrf_mesh_rx_address_get
                0x00030da8      0x12c examples/pb_remote/client/CMakeFiles/pb_remote_client_nrf52832_xxAA_s132_6.1.1.dir/__/__/__/mesh/access/src/device_state_manager.c.obj
                0x00030da8                nrf_mesh_rx_address_get
 .text.nrf_mesh_unicast_address_get
                0x00030ed4       0x20 examples/pb_remote/client/CMakeFiles/pb_remote_client_nrf52832_xxAA_s132_6.1.1.dir/__/__/__/mesh/access/src/device_state_manager.c.obj
                0x00030ed4                nrf_mesh_unicast_address_get
 .text.nrf_mesh_is_address_rx
                0x00030ef4       0x48 examples/pb_remote/client/CMakeFiles/pb_remote_client_nrf52832_xxAA_s132_6.1.1.dir/__/__/__/mesh/access/src/device_state_manager.c.obj
                0x00030ef4                nrf_mesh_is_address_rx
 .text.user_op_alloc
                0x00030f3c       0x2c examples/pb_remote/client/CMakeFiles/pb_remote_client_nrf52832_xxAA_s132_6.1.1.dir/__/__/__/external/app_timer/app_timer_mesh.c.obj
 .text.timer_stop_op_schedule
                0x00030f68       0x50 examples/pb_remote/client/CMakeFiles/pb_remote_client_nrf52832_xxAA_s132_6.1.1.dir/__/__/__/external/app_timer/app_timer_mesh.c.obj
 .text.nrfx_coredep_delay_us.constprop.3
                0x00030fb8       0x10 examples/pb_remote/client/CMakeFiles/pb_remote_client_nrf52832_xxAA_s132_6.1.1.dir/__/__/__/external/app_timer/app_timer_mesh.c.obj
 .text.RTC1_IRQHandler
                0x00030fc8       0xd0 examples/pb_remote/client/CMakeFiles/pb_remote_client_nrf52832_xxAA_s132_6.1.1.dir/__/__/__/external/app_timer/app_timer_mesh.c.obj
                0x00030fc8                RTC1_IRQHandler
 .text.SWI0_EGU0_IRQHandler
                0x00031098      0x294 examples/pb_remote/client/CMakeFiles/pb_remote_client_nrf52832_xxAA_s132_6.1.1.dir/__/__/__/external/app_timer/app_timer_mesh.c.obj
                0x00031098                SWI0_EGU0_IRQHandler
 .text.app_timer_init
                0x0003132c       0xb4 examples/pb_remote/client/CMakeFiles/pb_remote_client_nrf52832_xxAA_s132_6.1.1.dir/__/__/__/external/app_timer/app_timer_mesh.c.obj
                0x0003132c                app_timer_init
 .text.app_timer_create
                0x000313e0       0x24 examples/pb_remote/client/CMakeFiles/pb_remote_client_nrf52832_xxAA_s132_6.1.1.dir/__/__/__/external/app_timer/app_timer_mesh.c.obj
                0x000313e0                app_timer_create
 .text.app_timer_start
                0x00031404       0x88 examples/pb_remote/client/CMakeFiles/pb_remote_client_nrf52832_xxAA_s132_6.1.1.dir/__/__/__/external/app_timer/app_timer_mesh.c.obj
                0x00031404                app_timer_start
 .text.app_timer_stop
                0x0003148c       0x20 examples/pb_remote/client/CMakeFiles/pb_remote_client_nrf52832_xxAA_s132_6.1.1.dir/__/__/__/external/app_timer/app_timer_mesh.c.obj
                0x0003148c                app_timer_stop
 .text.is_app_timer_init
                0x000314ac        0xc examples/pb_remote/client/CMakeFiles/pb_remote_client_nrf52832_xxAA_s132_6.1.1.dir/__/__/__/external/app_timer/app_timer_mesh.c.obj
                0x000314ac                is_app_timer_init
 .text._weak_handler
                0x000314b8        0x4 examples/pb_remote/client/CMakeFiles/pb_remote_client_nrf52832_xxAA_s132_6.1.1.dir/__/__/nrf_mesh_weak.c.obj
                0x000314b8                nrf_mesh_dfu_init
                0x000314b8                nrf_mesh_dfu_jump_to_bootloader
                0x000314b8                nrf_mesh_dfu_rx
                0x000314b8                nrf_mesh_dfu_bank_info_get
                0x000314b8                nrf_mesh_dfu_request
                0x000314b8                nrf_mesh_dfu_bank_flash
                0x000314b8                nrf_mesh_dfu_enable
                0x000314b8                _weak_handler
                0x000314b8                prov_provisionee_auth_data
                0x000314b8                nrf_mesh_dfu_relay
                0x000314b8                prov_provisionee_shared_secret
                0x000314b8                nrf_mesh_dfu_abort
                0x000314b8                mesh_flash_op_execute
                0x000314b8                prov_provisionee_init
                0x000314b8                nrf_mesh_dfu_state_get
                0x000314b8                prov_provisionee_listen
 .text.app_error_fault_handler
                0x000314bc      0x200 examples/pb_remote/client/CMakeFiles/pb_remote_client_nrf52832_xxAA_s132_6.1.1.dir/__/__/common/src/app_error_weak.c.obj
                0x000314bc                app_error_fault_handler
 .text.mesh_assertion_handler
                0x000316bc       0x24 examples/pb_remote/client/CMakeFiles/pb_remote_client_nrf52832_xxAA_s132_6.1.1.dir/__/__/common/src/assertion_handler_weak.c.obj
                0x000316bc                mesh_assertion_handler
 .text.nrf_mesh_configure_device_uuid_set
                0x000316e0       0x10 examples/pb_remote/client/CMakeFiles/pb_remote_client_nrf52832_xxAA_s132_6.1.1.dir/__/__/__/mesh/core/src/nrf_mesh_configure.c.obj
                0x000316e0                nrf_mesh_configure_device_uuid_set
 .text.nrf_mesh_configure_device_uuid_reset
                0x000316f0       0x3c examples/pb_remote/client/CMakeFiles/pb_remote_client_nrf52832_xxAA_s132_6.1.1.dir/__/__/__/mesh/core/src/nrf_mesh_configure.c.obj
                0x000316f0                nrf_mesh_configure_device_uuid_reset
 .text.nrf_mesh_configure_device_uuid_get
                0x0003172c        0x8 examples/pb_remote/client/CMakeFiles/pb_remote_client_nrf52832_xxAA_s132_6.1.1.dir/__/__/__/mesh/core/src/nrf_mesh_configure.c.obj
                0x0003172c                nrf_mesh_configure_device_uuid_get
 .text.msg_cache_init
                0x00031734       0x24 examples/pb_remote/client/CMakeFiles/pb_remote_client_nrf52832_xxAA_s132_6.1.1.dir/__/__/__/mesh/core/src/msg_cache.c.obj
                0x00031734                msg_cache_init
 .text.msg_cache_entry_exists
                0x00031758       0x3c examples/pb_remote/client/CMakeFiles/pb_remote_client_nrf52832_xxAA_s132_6.1.1.dir/__/__/__/mesh/core/src/msg_cache.c.obj
                0x00031758                msg_cache_entry_exists
 .text.msg_cache_entry_add
                0x00031794       0x2c examples/pb_remote/client/CMakeFiles/pb_remote_client_nrf52832_xxAA_s132_6.1.1.dir/__/__/__/mesh/core/src/msg_cache.c.obj
                0x00031794                msg_cache_entry_add
 .text.seqauth_sequence_number_get
                0x000317c0       0x12 examples/pb_remote/client/CMakeFiles/pb_remote_client_nrf52832_xxAA_s132_6.1.1.dir/__/__/__/mesh/core/src/transport.c.obj
 *fill*         0x000317d2        0x2 
 .text.control_packet_callback_get
                0x000317d4       0x40 examples/pb_remote/client/CMakeFiles/pb_remote_client_nrf52832_xxAA_s132_6.1.1.dir/__/__/__/mesh/core/src/transport.c.obj
 .text.tx_complete
                0x00031814       0x2c examples/pb_remote/client/CMakeFiles/pb_remote_client_nrf52832_xxAA_s132_6.1.1.dir/__/__/__/mesh/core/src/transport.c.obj
 .text.seqauth_get
                0x00031840       0x24 examples/pb_remote/client/CMakeFiles/pb_remote_client_nrf52832_xxAA_s132_6.1.1.dir/__/__/__/mesh/core/src/transport.c.obj
 .text.block_ack_full
                0x00031864       0x1a examples/pb_remote/client/CMakeFiles/pb_remote_client_nrf52832_xxAA_s132_6.1.1.dir/__/__/__/mesh/core/src/transport.c.obj
 *fill*         0x0003187e        0x2 
 .text.sar_rx_session_mark_as_handled
                0x00031880       0x5c examples/pb_remote/client/CMakeFiles/pb_remote_client_nrf52832_xxAA_s132_6.1.1.dir/__/__/__/mesh/core/src/transport.c.obj
 .text.upper_trs_packet_encrypt
                0x000318dc       0x86 examples/pb_remote/client/CMakeFiles/pb_remote_client_nrf52832_xxAA_s132_6.1.1.dir/__/__/__/mesh/core/src/transport.c.obj
 *fill*         0x00031962        0x2 
 .text.sar_ctx_alloc
                0x00031964       0xbc examples/pb_remote/client/CMakeFiles/pb_remote_client_nrf52832_xxAA_s132_6.1.1.dir/__/__/__/mesh/core/src/transport.c.obj
 .text.sar_ctx_free
                0x00031a20       0x3a examples/pb_remote/client/CMakeFiles/pb_remote_client_nrf52832_xxAA_s132_6.1.1.dir/__/__/__/mesh/core/src/transport.c.obj
 .text.sar_ctx_tx_complete
                0x00031a5a       0x2e examples/pb_remote/client/CMakeFiles/pb_remote_client_nrf52832_xxAA_s132_6.1.1.dir/__/__/__/mesh/core/src/transport.c.obj
 .text.transport_metadata_validate
                0x00031a88       0x54 examples/pb_remote/client/CMakeFiles/pb_remote_client_nrf52832_xxAA_s132_6.1.1.dir/__/__/__/mesh/core/src/transport.c.obj
 .text.test_transport_decrypt
                0x00031adc       0x88 examples/pb_remote/client/CMakeFiles/pb_remote_client_nrf52832_xxAA_s132_6.1.1.dir/__/__/__/mesh/core/src/transport.c.obj
 .text.replay_list_add
                0x00031b64       0x44 examples/pb_remote/client/CMakeFiles/pb_remote_client_nrf52832_xxAA_s132_6.1.1.dir/__/__/__/mesh/core/src/transport.c.obj
 .text.upper_transport_access_packet_in
                0x00031ba8      0x1a0 examples/pb_remote/client/CMakeFiles/pb_remote_client_nrf52832_xxAA_s132_6.1.1.dir/__/__/__/mesh/core/src/transport.c.obj
 .text.trs_packet_header_build
                0x00031d48       0xa4 examples/pb_remote/client/CMakeFiles/pb_remote_client_nrf52832_xxAA_s132_6.1.1.dir/__/__/__/mesh/core/src/transport.c.obj
 .text.unsegmented_packet_tx
                0x00031dec       0x82 examples/pb_remote/client/CMakeFiles/pb_remote_client_nrf52832_xxAA_s132_6.1.1.dir/__/__/__/mesh/core/src/transport.c.obj
 *fill*         0x00031e6e        0x2 
 .text.tx_retry_timer_reset
                0x00031e70       0x3c examples/pb_remote/client/CMakeFiles/pb_remote_client_nrf52832_xxAA_s132_6.1.1.dir/__/__/__/mesh/core/src/transport.c.obj
 .text.sar_ctx_cancel
                0x00031eac       0xb0 examples/pb_remote/client/CMakeFiles/pb_remote_client_nrf52832_xxAA_s132_6.1.1.dir/__/__/__/mesh/core/src/transport.c.obj
 .text.abort_timeout
                0x00031f5c        0x8 examples/pb_remote/client/CMakeFiles/pb_remote_client_nrf52832_xxAA_s132_6.1.1.dir/__/__/__/mesh/core/src/transport.c.obj
 .text.retry_timeout
                0x00031f64       0x4c examples/pb_remote/client/CMakeFiles/pb_remote_client_nrf52832_xxAA_s132_6.1.1.dir/__/__/__/mesh/core/src/transport.c.obj
 .text.trs_sar_packet_out
                0x00031fb0       0xf4 examples/pb_remote/client/CMakeFiles/pb_remote_client_nrf52832_xxAA_s132_6.1.1.dir/__/__/__/mesh/core/src/transport.c.obj
 .text.transport_control_packet_in
                0x000320a4      0x1dc examples/pb_remote/client/CMakeFiles/pb_remote_client_nrf52832_xxAA_s132_6.1.1.dir/__/__/__/mesh/core/src/transport.c.obj
 .text.segmented_packet_tx
                0x00032280      0x140 examples/pb_remote/client/CMakeFiles/pb_remote_client_nrf52832_xxAA_s132_6.1.1.dir/__/__/__/mesh/core/src/transport.c.obj
 .text.transport_init
                0x000323c0       0x84 examples/pb_remote/client/CMakeFiles/pb_remote_client_nrf52832_xxAA_s132_6.1.1.dir/__/__/__/mesh/core/src/transport.c.obj
                0x000323c0                transport_init
 .text.transport_enable
                0x00032444        0x4 examples/pb_remote/client/CMakeFiles/pb_remote_client_nrf52832_xxAA_s132_6.1.1.dir/__/__/__/mesh/core/src/transport.c.obj
                0x00032444                transport_enable
 .text.transport_tx
                0x00032448       0xec examples/pb_remote/client/CMakeFiles/pb_remote_client_nrf52832_xxAA_s132_6.1.1.dir/__/__/__/mesh/core/src/transport.c.obj
                0x00032448                transport_tx
 .text.transport_control_tx
                0x00032534       0x98 examples/pb_remote/client/CMakeFiles/pb_remote_client_nrf52832_xxAA_s132_6.1.1.dir/__/__/__/mesh/core/src/transport.c.obj
                0x00032534                transport_control_tx
 .text.sar_ack_send
                0x000325cc       0xa4 examples/pb_remote/client/CMakeFiles/pb_remote_client_nrf52832_xxAA_s132_6.1.1.dir/__/__/__/mesh/core/src/transport.c.obj
 .text.ack_timeout
                0x00032670       0x30 examples/pb_remote/client/CMakeFiles/pb_remote_client_nrf52832_xxAA_s132_6.1.1.dir/__/__/__/mesh/core/src/transport.c.obj
 .text.transport_packet_in
                0x000326a0      0x504 examples/pb_remote/client/CMakeFiles/pb_remote_client_nrf52832_xxAA_s132_6.1.1.dir/__/__/__/mesh/core/src/transport.c.obj
                0x000326a0                transport_packet_in
 .text.transport_sar_process
                0x00032ba4       0x70 examples/pb_remote/client/CMakeFiles/pb_remote_client_nrf52832_xxAA_s132_6.1.1.dir/__/__/__/mesh/core/src/transport.c.obj
 .text.transport_control_packet_consumer_add
                0x00032c14       0x5c examples/pb_remote/client/CMakeFiles/pb_remote_client_nrf52832_xxAA_s132_6.1.1.dir/__/__/__/mesh/core/src/transport.c.obj
                0x00032c14                transport_control_packet_consumer_add
 .text.event_handle
                0x00032c70       0x54 examples/pb_remote/client/CMakeFiles/pb_remote_client_nrf52832_xxAA_s132_6.1.1.dir/__/__/__/mesh/core/src/event.c.obj
                0x00032c70                event_handle
 .text.event_handler_add
                0x00032cc4       0x20 examples/pb_remote/client/CMakeFiles/pb_remote_client_nrf52832_xxAA_s132_6.1.1.dir/__/__/__/mesh/core/src/event.c.obj
                0x00032cc4                event_handler_add
 .text.m_index_increment
                0x00032ce4       0x1e examples/pb_remote/client/CMakeFiles/pb_remote_client_nrf52832_xxAA_s132_6.1.1.dir/__/__/__/mesh/core/src/packet_buffer.c.obj
 .text.m_get_next_packet
                0x00032d02       0x1c examples/pb_remote/client/CMakeFiles/pb_remote_client_nrf52832_xxAA_s132_6.1.1.dir/__/__/__/mesh/core/src/packet_buffer.c.obj
 .text.packet_buffer_init
                0x00032d1e       0xac examples/pb_remote/client/CMakeFiles/pb_remote_client_nrf52832_xxAA_s132_6.1.1.dir/__/__/__/mesh/core/src/packet_buffer.c.obj
                0x00032d1e                packet_buffer_init
 .text.packet_buffer_flush
                0x00032dca       0x50 examples/pb_remote/client/CMakeFiles/pb_remote_client_nrf52832_xxAA_s132_6.1.1.dir/__/__/__/mesh/core/src/packet_buffer.c.obj
                0x00032dca                packet_buffer_flush
 .text.packet_buffer_reserve
                0x00032e1a       0xa2 examples/pb_remote/client/CMakeFiles/pb_remote_client_nrf52832_xxAA_s132_6.1.1.dir/__/__/__/mesh/core/src/packet_buffer.c.obj
                0x00032e1a                packet_buffer_reserve
 .text.packet_buffer_commit
                0x00032ebc       0x62 examples/pb_remote/client/CMakeFiles/pb_remote_client_nrf52832_xxAA_s132_6.1.1.dir/__/__/__/mesh/core/src/packet_buffer.c.obj
                0x00032ebc                packet_buffer_commit
 .text.packet_buffer_pop
                0x00032f1e       0x5a examples/pb_remote/client/CMakeFiles/pb_remote_client_nrf52832_xxAA_s132_6.1.1.dir/__/__/__/mesh/core/src/packet_buffer.c.obj
                0x00032f1e                packet_buffer_pop
 .text.packet_buffer_can_pop
                0x00032f78       0x34 examples/pb_remote/client/CMakeFiles/pb_remote_client_nrf52832_xxAA_s132_6.1.1.dir/__/__/__/mesh/core/src/packet_buffer.c.obj
                0x00032f78                packet_buffer_can_pop
 .text.packet_buffer_packets_ready_to_pop
                0x00032fac       0x36 examples/pb_remote/client/CMakeFiles/pb_remote_client_nrf52832_xxAA_s132_6.1.1.dir/__/__/__/mesh/core/src/packet_buffer.c.obj
                0x00032fac                packet_buffer_packets_ready_to_pop
 .text.packet_buffer_free
                0x00032fe2       0x74 examples/pb_remote/client/CMakeFiles/pb_remote_client_nrf52832_xxAA_s132_6.1.1.dir/__/__/__/mesh/core/src/packet_buffer.c.obj
                0x00032fe2                packet_buffer_free
 .text.packet_buffer_is_empty
                0x00033056       0x28 examples/pb_remote/client/CMakeFiles/pb_remote_client_nrf52832_xxAA_s132_6.1.1.dir/__/__/__/mesh/core/src/packet_buffer.c.obj
                0x00033056                packet_buffer_is_empty
 .text.get_last_page
                0x0003307e       0x14 examples/pb_remote/client/CMakeFiles/pb_remote_client_nrf52832_xxAA_s132_6.1.1.dir/__/__/__/mesh/core/src/flash_manager_defrag.c.obj
 *fill*         0x00033092        0x2 
 .text.defrag_on_end
                0x00033094       0x1c examples/pb_remote/client/CMakeFiles/pb_remote_client_nrf52832_xxAA_s132_6.1.1.dir/__/__/__/mesh/core/src/flash_manager_defrag.c.obj
 .text.execute_procedure_step
                0x000330b0       0x70 examples/pb_remote/client/CMakeFiles/pb_remote_client_nrf52832_xxAA_s132_6.1.1.dir/__/__/__/mesh/core/src/flash_manager_defrag.c.obj
 .text.get_next_entry
                0x00033120       0x34 examples/pb_remote/client/CMakeFiles/pb_remote_client_nrf52832_xxAA_s132_6.1.1.dir/__/__/__/mesh/core/src/flash_manager_defrag.c.obj
 .text.get_next_data_entry
                0x00033154       0x26 examples/pb_remote/client/CMakeFiles/pb_remote_client_nrf52832_xxAA_s132_6.1.1.dir/__/__/__/mesh/core/src/flash_manager_defrag.c.obj
 *fill*         0x0003317a        0x2 
 .text.on_flash_op_end
                0x0003317c       0x30 examples/pb_remote/client/CMakeFiles/pb_remote_client_nrf52832_xxAA_s132_6.1.1.dir/__/__/__/mesh/core/src/flash_manager_defrag.c.obj
 .text.check_for_invalid_entries
                0x000331ac       0x38 examples/pb_remote/client/CMakeFiles/pb_remote_client_nrf52832_xxAA_s132_6.1.1.dir/__/__/__/mesh/core/src/flash_manager_defrag.c.obj
 .text.erase_recovery_area
                0x000331e4       0x34 examples/pb_remote/client/CMakeFiles/pb_remote_client_nrf52832_xxAA_s132_6.1.1.dir/__/__/__/mesh/core/src/flash_manager_defrag.c.obj
 .text.flash.constprop.6
                0x00033218       0x24 examples/pb_remote/client/CMakeFiles/pb_remote_client_nrf52832_xxAA_s132_6.1.1.dir/__/__/__/mesh/core/src/flash_manager_defrag.c.obj
 .text.invalidate_duplicate_entries
                0x0003323c       0xa8 examples/pb_remote/client/CMakeFiles/pb_remote_client_nrf52832_xxAA_s132_6.1.1.dir/__/__/__/mesh/core/src/flash_manager_defrag.c.obj
 .text.seal_storage_page
                0x000332e4       0x50 examples/pb_remote/client/CMakeFiles/pb_remote_client_nrf52832_xxAA_s132_6.1.1.dir/__/__/__/mesh/core/src/flash_manager_defrag.c.obj
 .text.copy_metadata
                0x00033334       0x3c examples/pb_remote/client/CMakeFiles/pb_remote_client_nrf52832_xxAA_s132_6.1.1.dir/__/__/__/mesh/core/src/flash_manager_defrag.c.obj
 .text.write_defrag_start_pointer
                0x00033370       0x20 examples/pb_remote/client/CMakeFiles/pb_remote_client_nrf52832_xxAA_s132_6.1.1.dir/__/__/__/mesh/core/src/flash_manager_defrag.c.obj
 .text.write_back
                0x00033390       0x28 examples/pb_remote/client/CMakeFiles/pb_remote_client_nrf52832_xxAA_s132_6.1.1.dir/__/__/__/mesh/core/src/flash_manager_defrag.c.obj
 .text.post_process
                0x000333b8       0x40 examples/pb_remote/client/CMakeFiles/pb_remote_client_nrf52832_xxAA_s132_6.1.1.dir/__/__/__/mesh/core/src/flash_manager_defrag.c.obj
 .text.backup_entries
                0x000333f8       0xd8 examples/pb_remote/client/CMakeFiles/pb_remote_client_nrf52832_xxAA_s132_6.1.1.dir/__/__/__/mesh/core/src/flash_manager_defrag.c.obj
 .text.erase_source
                0x000334d0       0x34 examples/pb_remote/client/CMakeFiles/pb_remote_client_nrf52832_xxAA_s132_6.1.1.dir/__/__/__/mesh/core/src/flash_manager_defrag.c.obj
 .text.flash_manager_defrag_init
                0x00033504       0x8c examples/pb_remote/client/CMakeFiles/pb_remote_client_nrf52832_xxAA_s132_6.1.1.dir/__/__/__/mesh/core/src/flash_manager_defrag.c.obj
                0x00033504                flash_manager_defrag_init
 .text.flash_manager_defragging
                0x00033590       0x38 examples/pb_remote/client/CMakeFiles/pb_remote_client_nrf52832_xxAA_s132_6.1.1.dir/__/__/__/mesh/core/src/flash_manager_defrag.c.obj
                0x00033590                flash_manager_defragging
 .text.flash_manager_defrag_is_running
                0x000335c8       0x10 examples/pb_remote/client/CMakeFiles/pb_remote_client_nrf52832_xxAA_s132_6.1.1.dir/__/__/__/mesh/core/src/flash_manager_defrag.c.obj
                0x000335c8                flash_manager_defrag_is_running
 .text.flash_manager_defrag
                0x000335d8       0x44 examples/pb_remote/client/CMakeFiles/pb_remote_client_nrf52832_xxAA_s132_6.1.1.dir/__/__/__/mesh/core/src/flash_manager_defrag.c.obj
                0x000335d8                flash_manager_defrag
 .text.flash_manager_defrag_recovery_page_get
                0x0003361c        0xc examples/pb_remote/client/CMakeFiles/pb_remote_client_nrf52832_xxAA_s132_6.1.1.dir/__/__/__/mesh/core/src/flash_manager_defrag.c.obj
                0x0003361c                flash_manager_defrag_recovery_page_get
 .text.fifo_init
                0x00033628       0x34 examples/pb_remote/client/CMakeFiles/pb_remote_client_nrf52832_xxAA_s132_6.1.1.dir/__/__/__/mesh/core/src/fifo.c.obj
                0x00033628                fifo_init
 .text.fifo_push
                0x0003365c       0x50 examples/pb_remote/client/CMakeFiles/pb_remote_client_nrf52832_xxAA_s132_6.1.1.dir/__/__/__/mesh/core/src/fifo.c.obj
                0x0003365c                fifo_push
 .text.fifo_pop
                0x000336ac       0x52 examples/pb_remote/client/CMakeFiles/pb_remote_client_nrf52832_xxAA_s132_6.1.1.dir/__/__/__/mesh/core/src/fifo.c.obj
                0x000336ac                fifo_pop
 *fill*         0x000336fe        0x2 
 .text.wait_for_ready
                0x00033700       0x10 examples/pb_remote/client/CMakeFiles/pb_remote_client_nrf52832_xxAA_s132_6.1.1.dir/__/__/__/mesh/core/src/nrf_flash.c.obj
 .text.nrf_flash_erase
                0x00033710       0x50 examples/pb_remote/client/CMakeFiles/pb_remote_client_nrf52832_xxAA_s132_6.1.1.dir/__/__/__/mesh/core/src/nrf_flash.c.obj
                0x00033710                nrf_flash_erase
 .text.nrf_flash_write
                0x00033760       0x50 examples/pb_remote/client/CMakeFiles/pb_remote_client_nrf52832_xxAA_s132_6.1.1.dir/__/__/__/mesh/core/src/nrf_flash.c.obj
                0x00033760                nrf_flash_write
 .text.entry_recover_cb
                0x000337b0       0x18 examples/pb_remote/client/CMakeFiles/pb_remote_client_nrf52832_xxAA_s132_6.1.1.dir/__/__/__/mesh/core/src/net_state.c.obj
 .text.flash_store_iv_index
                0x000337c8       0x38 examples/pb_remote/client/CMakeFiles/pb_remote_client_nrf52832_xxAA_s132_6.1.1.dir/__/__/__/mesh/core/src/net_state.c.obj
 .text.flash_mem_available
                0x00033800       0x14 examples/pb_remote/client/CMakeFiles/pb_remote_client_nrf52832_xxAA_s132_6.1.1.dir/__/__/__/mesh/core/src/net_state.c.obj
 .text.iv_index_notify
                0x00033814       0x30 examples/pb_remote/client/CMakeFiles/pb_remote_client_nrf52832_xxAA_s132_6.1.1.dir/__/__/__/mesh/core/src/net_state.c.obj
 .text.seqnum_block_allocate
                0x00033844       0x4c examples/pb_remote/client/CMakeFiles/pb_remote_client_nrf52832_xxAA_s132_6.1.1.dir/__/__/__/mesh/core/src/net_state.c.obj
 .text.net_state_reset
                0x00033890       0x48 examples/pb_remote/client/CMakeFiles/pb_remote_client_nrf52832_xxAA_s132_6.1.1.dir/__/__/__/mesh/core/src/net_state.c.obj
                0x00033890                net_state_reset
 .text.flash_write_complete
                0x000338d8       0x64 examples/pb_remote/client/CMakeFiles/pb_remote_client_nrf52832_xxAA_s132_6.1.1.dir/__/__/__/mesh/core/src/net_state.c.obj
 .text.net_state_recover_from_flash
                0x0003393c       0x60 examples/pb_remote/client/CMakeFiles/pb_remote_client_nrf52832_xxAA_s132_6.1.1.dir/__/__/__/mesh/core/src/net_state.c.obj
                0x0003393c                net_state_recover_from_flash
 .text.net_state_flash_area_get
                0x0003399c        0xc examples/pb_remote/client/CMakeFiles/pb_remote_client_nrf52832_xxAA_s132_6.1.1.dir/__/__/__/mesh/core/src/net_state.c.obj
                0x0003399c                net_state_flash_area_get
 .text.init_flash_storage
                0x000339a8       0x40 examples/pb_remote/client/CMakeFiles/pb_remote_client_nrf52832_xxAA_s132_6.1.1.dir/__/__/__/mesh/core/src/net_state.c.obj
 .text.net_state_init
                0x000339e8       0x44 examples/pb_remote/client/CMakeFiles/pb_remote_client_nrf52832_xxAA_s132_6.1.1.dir/__/__/__/mesh/core/src/net_state.c.obj
                0x000339e8                net_state_init
 .text.net_state_enable
                0x00033a2c       0x30 examples/pb_remote/client/CMakeFiles/pb_remote_client_nrf52832_xxAA_s132_6.1.1.dir/__/__/__/mesh/core/src/net_state.c.obj
                0x00033a2c                net_state_enable
 .text.net_state_iv_update_start
                0x00033a5c       0x50 examples/pb_remote/client/CMakeFiles/pb_remote_client_nrf52832_xxAA_s132_6.1.1.dir/__/__/__/mesh/core/src/net_state.c.obj
                0x00033a5c                net_state_iv_update_start
 .text.iv_update_trigger_if_pending
                0x00033aac       0x6c examples/pb_remote/client/CMakeFiles/pb_remote_client_nrf52832_xxAA_s132_6.1.1.dir/__/__/__/mesh/core/src/net_state.c.obj
 .text.iv_update_timer_handler
                0x00033b18       0x64 examples/pb_remote/client/CMakeFiles/pb_remote_client_nrf52832_xxAA_s132_6.1.1.dir/__/__/__/mesh/core/src/net_state.c.obj
 .text.mesh_evt_handler
                0x00033b7c       0x8c examples/pb_remote/client/CMakeFiles/pb_remote_client_nrf52832_xxAA_s132_6.1.1.dir/__/__/__/mesh/core/src/net_state.c.obj
 .text.net_state_seqnum_alloc
                0x00033c08       0x68 examples/pb_remote/client/CMakeFiles/pb_remote_client_nrf52832_xxAA_s132_6.1.1.dir/__/__/__/mesh/core/src/net_state.c.obj
                0x00033c08                net_state_seqnum_alloc
 .text.net_state_iv_index_lock
                0x00033c70       0x3c examples/pb_remote/client/CMakeFiles/pb_remote_client_nrf52832_xxAA_s132_6.1.1.dir/__/__/__/mesh/core/src/net_state.c.obj
                0x00033c70                net_state_iv_index_lock
 .text.net_state_key_refresh_phase_changed
                0x00033cac       0x20 examples/pb_remote/client/CMakeFiles/pb_remote_client_nrf52832_xxAA_s132_6.1.1.dir/__/__/__/mesh/core/src/net_state.c.obj
                0x00033cac                net_state_key_refresh_phase_changed
 .text.net_state_beacon_iv_index_get
                0x00033ccc        0xc examples/pb_remote/client/CMakeFiles/pb_remote_client_nrf52832_xxAA_s132_6.1.1.dir/__/__/__/mesh/core/src/net_state.c.obj
                0x00033ccc                net_state_beacon_iv_index_get
 .text.net_state_tx_iv_index_get
                0x00033cd8       0x14 examples/pb_remote/client/CMakeFiles/pb_remote_client_nrf52832_xxAA_s132_6.1.1.dir/__/__/__/mesh/core/src/net_state.c.obj
                0x00033cd8                net_state_tx_iv_index_get
 .text.net_state_rx_iv_index_get
                0x00033cec       0x18 examples/pb_remote/client/CMakeFiles/pb_remote_client_nrf52832_xxAA_s132_6.1.1.dir/__/__/__/mesh/core/src/net_state.c.obj
                0x00033cec                net_state_rx_iv_index_get
 .text.net_state_iv_update_get
                0x00033d04        0xc examples/pb_remote/client/CMakeFiles/pb_remote_client_nrf52832_xxAA_s132_6.1.1.dir/__/__/__/mesh/core/src/net_state.c.obj
                0x00033d04                net_state_iv_update_get
 .text.send_end_events
                0x00033d10       0x84 examples/pb_remote/client/CMakeFiles/pb_remote_client_nrf52832_xxAA_s132_6.1.1.dir/__/__/__/mesh/core/src/mesh_flash.c.obj
 .text.flash_op_action_prepare
                0x00033d94       0x78 examples/pb_remote/client/CMakeFiles/pb_remote_client_nrf52832_xxAA_s132_6.1.1.dir/__/__/__/mesh/core/src/mesh_flash.c.obj
 .text.flash_op_schedule
                0x00033e0c       0x20 examples/pb_remote/client/CMakeFiles/pb_remote_client_nrf52832_xxAA_s132_6.1.1.dir/__/__/__/mesh/core/src/mesh_flash.c.obj
 .text.flash_op_start
                0x00033e2c      0x13c examples/pb_remote/client/CMakeFiles/pb_remote_client_nrf52832_xxAA_s132_6.1.1.dir/__/__/__/mesh/core/src/mesh_flash.c.obj
 .text.mesh_flash_init
                0x00033f68       0x7c examples/pb_remote/client/CMakeFiles/pb_remote_client_nrf52832_xxAA_s132_6.1.1.dir/__/__/__/mesh/core/src/mesh_flash.c.obj
                0x00033f68                mesh_flash_init
 .text.mesh_flash_user_callback_set
                0x00033fe4       0x20 examples/pb_remote/client/CMakeFiles/pb_remote_client_nrf52832_xxAA_s132_6.1.1.dir/__/__/__/mesh/core/src/mesh_flash.c.obj
                0x00033fe4                mesh_flash_user_callback_set
 .text.mesh_flash_op_push
                0x00034004      0x10c examples/pb_remote/client/CMakeFiles/pb_remote_client_nrf52832_xxAA_s132_6.1.1.dir/__/__/__/mesh/core/src/mesh_flash.c.obj
                0x00034004                mesh_flash_op_push
 .text.mesh_flash_set_suspended
                0x00034110       0x70 examples/pb_remote/client/CMakeFiles/pb_remote_client_nrf52832_xxAA_s132_6.1.1.dir/__/__/__/mesh/core/src/mesh_flash.c.obj
                0x00034110                mesh_flash_set_suspended
 .text.nrf_mesh_address_type_get
                0x00034180       0x10 examples/pb_remote/client/CMakeFiles/pb_remote_client_nrf52832_xxAA_s132_6.1.1.dir/__/__/__/mesh/core/src/nrf_mesh_utils.c.obj
                0x00034180                nrf_mesh_address_type_get
 .text.sd_softdevice_is_enabled
                0x00034190        0x4 examples/pb_remote/client/CMakeFiles/pb_remote_client_nrf52832_xxAA_s132_6.1.1.dir/__/__/__/mesh/core/src/nrf_mesh.c.obj
 .text.nrf_mesh_listen
                0x00034194      0x138 examples/pb_remote/client/CMakeFiles/pb_remote_client_nrf52832_xxAA_s132_6.1.1.dir/__/__/__/mesh/core/src/nrf_mesh.c.obj
 .text.scanner_packet_process_cb
                0x000342cc       0x8c examples/pb_remote/client/CMakeFiles/pb_remote_client_nrf52832_xxAA_s132_6.1.1.dir/__/__/__/mesh/core/src/nrf_mesh.c.obj
 .text.nrf_mesh_init
                0x00034358       0xe8 examples/pb_remote/client/CMakeFiles/pb_remote_client_nrf52832_xxAA_s132_6.1.1.dir/__/__/__/mesh/core/src/nrf_mesh.c.obj
                0x00034358                nrf_mesh_init
 .text.nrf_mesh_enable
                0x00034440       0xac examples/pb_remote/client/CMakeFiles/pb_remote_client_nrf52832_xxAA_s132_6.1.1.dir/__/__/__/mesh/core/src/nrf_mesh.c.obj
                0x00034440                nrf_mesh_enable
 .text.nrf_mesh_packet_send
                0x000344ec        0x4 examples/pb_remote/client/CMakeFiles/pb_remote_client_nrf52832_xxAA_s132_6.1.1.dir/__/__/__/mesh/core/src/nrf_mesh.c.obj
                0x000344ec                nrf_mesh_packet_send
 .text.nrf_mesh_evt_handler_add
                0x000344f0        0x4 examples/pb_remote/client/CMakeFiles/pb_remote_client_nrf52832_xxAA_s132_6.1.1.dir/__/__/__/mesh/core/src/nrf_mesh.c.obj
                0x000344f0                nrf_mesh_evt_handler_add
 .text.nrf_mesh_on_sd_evt
                0x000344f4        0xa examples/pb_remote/client/CMakeFiles/pb_remote_client_nrf52832_xxAA_s132_6.1.1.dir/__/__/__/mesh/core/src/nrf_mesh.c.obj
                0x000344f4                nrf_mesh_on_sd_evt
 .text.nrf_mesh_subnet_added
                0x000344fe        0x2 examples/pb_remote/client/CMakeFiles/pb_remote_client_nrf52832_xxAA_s132_6.1.1.dir/__/__/__/mesh/core/src/nrf_mesh.c.obj
                0x000344fe                nrf_mesh_subnet_added
 .text.nrf_mesh_unique_token_get
                0x00034500       0x18 examples/pb_remote/client/CMakeFiles/pb_remote_client_nrf52832_xxAA_s132_6.1.1.dir/__/__/__/mesh/core/src/nrf_mesh.c.obj
                0x00034500                nrf_mesh_unique_token_get
 .text.queue_init
                0x00034518       0x14 examples/pb_remote/client/CMakeFiles/pb_remote_client_nrf52832_xxAA_s132_6.1.1.dir/__/__/__/mesh/core/src/queue.c.obj
                0x00034518                queue_init
 .text.queue_push
                0x0003452c       0x34 examples/pb_remote/client/CMakeFiles/pb_remote_client_nrf52832_xxAA_s132_6.1.1.dir/__/__/__/mesh/core/src/queue.c.obj
                0x0003452c                queue_push
 .text.queue_pop
                0x00034560       0x26 examples/pb_remote/client/CMakeFiles/pb_remote_client_nrf52832_xxAA_s132_6.1.1.dir/__/__/__/mesh/core/src/queue.c.obj
                0x00034560                queue_pop
 .text.queue_peek
                0x00034586       0x10 examples/pb_remote/client/CMakeFiles/pb_remote_client_nrf52832_xxAA_s132_6.1.1.dir/__/__/__/mesh/core/src/queue.c.obj
                0x00034586                queue_peek
 *fill*         0x00034596        0x2 
 .text.hal_lfclk_ppm_get
                0x00034598       0x14 examples/pb_remote/client/CMakeFiles/pb_remote_client_nrf52832_xxAA_s132_6.1.1.dir/__/__/__/mesh/core/src/hal.c.obj
                0x00034598                hal_lfclk_ppm_get
 .text.hal_irq_active_get
                0x000345ac       0x10 examples/pb_remote/client/CMakeFiles/pb_remote_client_nrf52832_xxAA_s132_6.1.1.dir/__/__/__/mesh/core/src/hal.c.obj
                0x000345ac                hal_irq_active_get
 .text.hal_irq_is_enabled
                0x000345bc       0x28 examples/pb_remote/client/CMakeFiles/pb_remote_client_nrf52832_xxAA_s132_6.1.1.dir/__/__/__/mesh/core/src/hal.c.obj
                0x000345bc                hal_irq_is_enabled
 .text.sd_ecb_block_encrypt
                0x000345e4        0x4 examples/pb_remote/client/CMakeFiles/pb_remote_client_nrf52832_xxAA_s132_6.1.1.dir/__/__/__/mesh/core/src/aes_cmac.c.obj
 .text.utils_xor.constprop.1
                0x000345e8       0x20 examples/pb_remote/client/CMakeFiles/pb_remote_client_nrf52832_xxAA_s132_6.1.1.dir/__/__/__/mesh/core/src/aes_cmac.c.obj
 .text.aes_cmac
                0x00034608      0x10c examples/pb_remote/client/CMakeFiles/pb_remote_client_nrf52832_xxAA_s132_6.1.1.dir/__/__/__/mesh/core/src/aes_cmac.c.obj
                0x00034608                aes_cmac
 .text.add_evt  0x00034714       0x50 examples/pb_remote/client/CMakeFiles/pb_remote_client_nrf52832_xxAA_s132_6.1.1.dir/__/__/__/mesh/core/src/timer_scheduler.c.obj
 .text.remove_evt
                0x00034764       0x50 examples/pb_remote/client/CMakeFiles/pb_remote_client_nrf52832_xxAA_s132_6.1.1.dir/__/__/__/mesh/core/src/timer_scheduler.c.obj
 .text.timer_cb
                0x000347b4        0xc examples/pb_remote/client/CMakeFiles/pb_remote_client_nrf52832_xxAA_s132_6.1.1.dir/__/__/__/mesh/core/src/timer_scheduler.c.obj
 .text.setup_timeout.isra.0
                0x000347c0       0x1c examples/pb_remote/client/CMakeFiles/pb_remote_client_nrf52832_xxAA_s132_6.1.1.dir/__/__/__/mesh/core/src/timer_scheduler.c.obj
 .text.flag_event_cb
                0x000347dc       0xa4 examples/pb_remote/client/CMakeFiles/pb_remote_client_nrf52832_xxAA_s132_6.1.1.dir/__/__/__/mesh/core/src/timer_scheduler.c.obj
 .text.timer_sch_init
                0x00034880       0x2c examples/pb_remote/client/CMakeFiles/pb_remote_client_nrf52832_xxAA_s132_6.1.1.dir/__/__/__/mesh/core/src/timer_scheduler.c.obj
                0x00034880                timer_sch_init
 .text.timer_sch_schedule
                0x000348ac       0x44 examples/pb_remote/client/CMakeFiles/pb_remote_client_nrf52832_xxAA_s132_6.1.1.dir/__/__/__/mesh/core/src/timer_scheduler.c.obj
                0x000348ac                timer_sch_schedule
 .text.timer_sch_abort
                0x000348f0       0x2e examples/pb_remote/client/CMakeFiles/pb_remote_client_nrf52832_xxAA_s132_6.1.1.dir/__/__/__/mesh/core/src/timer_scheduler.c.obj
                0x000348f0                timer_sch_abort
 .text.timer_sch_reschedule
                0x0003491e       0x38 examples/pb_remote/client/CMakeFiles/pb_remote_client_nrf52832_xxAA_s132_6.1.1.dir/__/__/__/mesh/core/src/timer_scheduler.c.obj
                0x0003491e                timer_sch_reschedule
 .text.timer_init
                0x00034956       0x1a examples/pb_remote/client/CMakeFiles/pb_remote_client_nrf52832_xxAA_s132_6.1.1.dir/__/__/__/mesh/core/src/timer.c.obj
                0x00034956                timer_init
 .text.timer_now
                0x00034970       0x48 examples/pb_remote/client/CMakeFiles/pb_remote_client_nrf52832_xxAA_s132_6.1.1.dir/__/__/__/mesh/core/src/timer.c.obj
                0x00034970                timer_now
 .text.nrf_mesh_timer_tail_handle
                0x000349b8       0x34 examples/pb_remote/client/CMakeFiles/pb_remote_client_nrf52832_xxAA_s132_6.1.1.dir/__/__/__/mesh/core/src/timer.c.obj
                0x000349b8                nrf_mesh_timer_tail_handle
 .text.nrf_mesh_timer_ovfw_handle
                0x000349ec       0x98 examples/pb_remote/client/CMakeFiles/pb_remote_client_nrf52832_xxAA_s132_6.1.1.dir/__/__/__/mesh/core/src/timer.c.obj
                0x000349ec                nrf_mesh_timer_ovfw_handle
 .text.timer_start
                0x00034a84       0xac examples/pb_remote/client/CMakeFiles/pb_remote_client_nrf52832_xxAA_s132_6.1.1.dir/__/__/__/mesh/core/src/timer.c.obj
                0x00034a84                timer_start
 .text.timer_stop
                0x00034b30       0x30 examples/pb_remote/client/CMakeFiles/pb_remote_client_nrf52832_xxAA_s132_6.1.1.dir/__/__/__/mesh/core/src/timer.c.obj
                0x00034b30                timer_stop
 .text.sd_rand_application_bytes_available_get
                0x00034b60        0x4 examples/pb_remote/client/CMakeFiles/pb_remote_client_nrf52832_xxAA_s132_6.1.1.dir/__/__/__/mesh/core/src/rand.c.obj
 .text.sd_rand_application_vector_get
                0x00034b64        0x4 examples/pb_remote/client/CMakeFiles/pb_remote_client_nrf52832_xxAA_s132_6.1.1.dir/__/__/__/mesh/core/src/rand.c.obj
 .text.rand_prng_get
                0x00034b68       0x24 examples/pb_remote/client/CMakeFiles/pb_remote_client_nrf52832_xxAA_s132_6.1.1.dir/__/__/__/mesh/core/src/rand.c.obj
                0x00034b68                rand_prng_get
 .text.rand_hw_rng_get
                0x00034b8c       0x44 examples/pb_remote/client/CMakeFiles/pb_remote_client_nrf52832_xxAA_s132_6.1.1.dir/__/__/__/mesh/core/src/rand.c.obj
                0x00034b8c                rand_hw_rng_get
 .text.rand_prng_seed
                0x00034bd0       0x34 examples/pb_remote/client/CMakeFiles/pb_remote_client_nrf52832_xxAA_s132_6.1.1.dir/__/__/__/mesh/core/src/rand.c.obj
                0x00034bd0                rand_prng_seed
 .text.mesh_opt_init
                0x00034c04        0x2 examples/pb_remote/client/CMakeFiles/pb_remote_client_nrf52832_xxAA_s132_6.1.1.dir/__/__/__/mesh/core/src/mesh_opt.c.obj
                0x00034c04                mesh_opt_init
 .text.sd_radio_session_open
                0x00034c06        0x4 examples/pb_remote/client/CMakeFiles/pb_remote_client_nrf52832_xxAA_s132_6.1.1.dir/__/__/__/mesh/core/src/timeslot.c.obj
 .text.sd_radio_session_close
                0x00034c0a        0x4 examples/pb_remote/client/CMakeFiles/pb_remote_client_nrf52832_xxAA_s132_6.1.1.dir/__/__/__/mesh/core/src/timeslot.c.obj
 .text.sd_radio_request
                0x00034c0e        0x4 examples/pb_remote/client/CMakeFiles/pb_remote_client_nrf52832_xxAA_s132_6.1.1.dir/__/__/__/mesh/core/src/timeslot.c.obj
 *fill*         0x00034c12        0x2 
 .text.end_timer_handler
                0x00034c14       0x24 examples/pb_remote/client/CMakeFiles/pb_remote_client_nrf52832_xxAA_s132_6.1.1.dir/__/__/__/mesh/core/src/timeslot.c.obj
 .text.get_end_time.isra.3
                0x00034c38       0x20 examples/pb_remote/client/CMakeFiles/pb_remote_client_nrf52832_xxAA_s132_6.1.1.dir/__/__/__/mesh/core/src/timeslot.c.obj
 .text.on_ts_begin.constprop.9
                0x00034c58       0x48 examples/pb_remote/client/CMakeFiles/pb_remote_client_nrf52832_xxAA_s132_6.1.1.dir/__/__/__/mesh/core/src/timeslot.c.obj
 .text.handle_extend_end.constprop.5
                0x00034ca0       0x88 examples/pb_remote/client/CMakeFiles/pb_remote_client_nrf52832_xxAA_s132_6.1.1.dir/__/__/__/mesh/core/src/timeslot.c.obj
 .text.radio_signal_callback
                0x00034d28      0x12c examples/pb_remote/client/CMakeFiles/pb_remote_client_nrf52832_xxAA_s132_6.1.1.dir/__/__/__/mesh/core/src/timeslot.c.obj
 .text.timeslot_sd_event_handler
                0x00034e54       0x60 examples/pb_remote/client/CMakeFiles/pb_remote_client_nrf52832_xxAA_s132_6.1.1.dir/__/__/__/mesh/core/src/timeslot.c.obj
                0x00034e54                timeslot_sd_event_handler
 .text.timeslot_init
                0x00034eb4       0x50 examples/pb_remote/client/CMakeFiles/pb_remote_client_nrf52832_xxAA_s132_6.1.1.dir/__/__/__/mesh/core/src/timeslot.c.obj
                0x00034eb4                timeslot_init
 .text.timeslot_start
                0x00034f04       0x48 examples/pb_remote/client/CMakeFiles/pb_remote_client_nrf52832_xxAA_s132_6.1.1.dir/__/__/__/mesh/core/src/timeslot.c.obj
                0x00034f04                timeslot_start
 .text.timeslot_end_is_pending
                0x00034f4c       0x28 examples/pb_remote/client/CMakeFiles/pb_remote_client_nrf52832_xxAA_s132_6.1.1.dir/__/__/__/mesh/core/src/timeslot.c.obj
                0x00034f4c                timeslot_end_is_pending
 .text.timeslot_length_get
                0x00034f74        0xc examples/pb_remote/client/CMakeFiles/pb_remote_client_nrf52832_xxAA_s132_6.1.1.dir/__/__/__/mesh/core/src/timeslot.c.obj
                0x00034f74                timeslot_length_get
 .text.timeslot_remaining_time_get
                0x00034f80       0x24 examples/pb_remote/client/CMakeFiles/pb_remote_client_nrf52832_xxAA_s132_6.1.1.dir/__/__/__/mesh/core/src/timeslot.c.obj
                0x00034f80                timeslot_remaining_time_get
 .text.timeslot_is_in_cb
                0x00034fa4        0xc examples/pb_remote/client/CMakeFiles/pb_remote_client_nrf52832_xxAA_s132_6.1.1.dir/__/__/__/mesh/core/src/timeslot.c.obj
                0x00034fa4                timeslot_is_in_cb
 .text.timeslot_trigger
                0x00034fb0       0x24 examples/pb_remote/client/CMakeFiles/pb_remote_client_nrf52832_xxAA_s132_6.1.1.dir/__/__/__/mesh/core/src/timeslot.c.obj
                0x00034fb0                timeslot_trigger
 .text.timeslot_stop
                0x00034fd4       0x1c examples/pb_remote/client/CMakeFiles/pb_remote_client_nrf52832_xxAA_s132_6.1.1.dir/__/__/__/mesh/core/src/timeslot.c.obj
                0x00034fd4                timeslot_stop
 .text.timeslot_restart
                0x00034ff0       0x24 examples/pb_remote/client/CMakeFiles/pb_remote_client_nrf52832_xxAA_s132_6.1.1.dir/__/__/__/mesh/core/src/timeslot.c.obj
                0x00034ff0                timeslot_restart
 .text.timeslot_state_lock
                0x00035014       0x24 examples/pb_remote/client/CMakeFiles/pb_remote_client_nrf52832_xxAA_s132_6.1.1.dir/__/__/__/mesh/core/src/timeslot.c.obj
                0x00035014                timeslot_state_lock
 .text.timer_mut_unlock
                0x00035038       0x10 examples/pb_remote/client/CMakeFiles/pb_remote_client_nrf52832_xxAA_s132_6.1.1.dir/__/__/__/mesh/core/src/timeslot_timer.c.obj
 .text.ts_timer_order_cb
                0x00035048       0x64 examples/pb_remote/client/CMakeFiles/pb_remote_client_nrf52832_xxAA_s132_6.1.1.dir/__/__/__/mesh/core/src/timeslot_timer.c.obj
                0x00035048                ts_timer_order_cb
 .text.ts_timer_now
                0x000350ac       0x40 examples/pb_remote/client/CMakeFiles/pb_remote_client_nrf52832_xxAA_s132_6.1.1.dir/__/__/__/mesh/core/src/timeslot_timer.c.obj
                0x000350ac                ts_timer_now
 .text.ts_timer_event_handler
                0x000350ec       0x68 examples/pb_remote/client/CMakeFiles/pb_remote_client_nrf52832_xxAA_s132_6.1.1.dir/__/__/__/mesh/core/src/timeslot_timer.c.obj
                0x000350ec                ts_timer_event_handler
 .text.ts_timer_to_device_time
                0x00035154        0xc examples/pb_remote/client/CMakeFiles/pb_remote_client_nrf52832_xxAA_s132_6.1.1.dir/__/__/__/mesh/core/src/timeslot_timer.c.obj
                0x00035154                ts_timer_to_device_time
 .text.ts_timer_on_ts_begin
                0x00035160       0x64 examples/pb_remote/client/CMakeFiles/pb_remote_client_nrf52832_xxAA_s132_6.1.1.dir/__/__/__/mesh/core/src/timeslot_timer.c.obj
                0x00035160                ts_timer_on_ts_begin
 .text.ts_timer_on_ts_end
                0x000351c4       0x48 examples/pb_remote/client/CMakeFiles/pb_remote_client_nrf52832_xxAA_s132_6.1.1.dir/__/__/__/mesh/core/src/timeslot_timer.c.obj
                0x000351c4                ts_timer_on_ts_end
 .text.trigger_event_handler
                0x0003520c       0x1c examples/pb_remote/client/CMakeFiles/pb_remote_client_nrf52832_xxAA_s132_6.1.1.dir/__/__/__/mesh/core/src/bearer_event.c.obj
 .text.bearer_event_init
                0x00035228       0x58 examples/pb_remote/client/CMakeFiles/pb_remote_client_nrf52832_xxAA_s132_6.1.1.dir/__/__/__/mesh/core/src/bearer_event.c.obj
                0x00035228                bearer_event_init
 .text.bearer_event_start
                0x00035280       0x44 examples/pb_remote/client/CMakeFiles/pb_remote_client_nrf52832_xxAA_s132_6.1.1.dir/__/__/__/mesh/core/src/bearer_event.c.obj
                0x00035280                bearer_event_start
 .text.bearer_event_critical_section_begin
                0x000352c4       0x80 examples/pb_remote/client/CMakeFiles/pb_remote_client_nrf52832_xxAA_s132_6.1.1.dir/__/__/__/mesh/core/src/bearer_event.c.obj
                0x000352c4                bearer_event_critical_section_begin
 .text.bearer_event_critical_section_end
                0x00035344       0x60 examples/pb_remote/client/CMakeFiles/pb_remote_client_nrf52832_xxAA_s132_6.1.1.dir/__/__/__/mesh/core/src/bearer_event.c.obj
                0x00035344                bearer_event_critical_section_end
 .text.bearer_event_flag_add
                0x000353a4       0x3c examples/pb_remote/client/CMakeFiles/pb_remote_client_nrf52832_xxAA_s132_6.1.1.dir/__/__/__/mesh/core/src/bearer_event.c.obj
                0x000353a4                bearer_event_flag_add
 .text.bearer_event_flag_set
                0x000353e0       0x44 examples/pb_remote/client/CMakeFiles/pb_remote_client_nrf52832_xxAA_s132_6.1.1.dir/__/__/__/mesh/core/src/bearer_event.c.obj
                0x000353e0                bearer_event_flag_set
 .text.bearer_event_sequential_add
                0x00035424       0x2e examples/pb_remote/client/CMakeFiles/pb_remote_client_nrf52832_xxAA_s132_6.1.1.dir/__/__/__/mesh/core/src/bearer_event.c.obj
                0x00035424                bearer_event_sequential_add
 *fill*         0x00035452        0x2 
 .text.bearer_event_sequential_post
                0x00035454       0x44 examples/pb_remote/client/CMakeFiles/pb_remote_client_nrf52832_xxAA_s132_6.1.1.dir/__/__/__/mesh/core/src/bearer_event.c.obj
                0x00035454                bearer_event_sequential_post
 .text.bearer_event_sequential_pending
                0x00035498       0x10 examples/pb_remote/client/CMakeFiles/pb_remote_client_nrf52832_xxAA_s132_6.1.1.dir/__/__/__/mesh/core/src/bearer_event.c.obj
                0x00035498                bearer_event_sequential_pending
 .text.bearer_event_handler
                0x000354a8       0xe4 examples/pb_remote/client/CMakeFiles/pb_remote_client_nrf52832_xxAA_s132_6.1.1.dir/__/__/__/mesh/core/src/bearer_event.c.obj
                0x000354a8                bearer_event_handler
 .text.QDEC_IRQHandler
                0x0003558c        0x4 examples/pb_remote/client/CMakeFiles/pb_remote_client_nrf52832_xxAA_s132_6.1.1.dir/__/__/__/mesh/core/src/bearer_event.c.obj
                0x0003558c                QDEC_IRQHandler
 .text.bearer_event_in_correct_irq_priority
                0x00035590       0x74 examples/pb_remote/client/CMakeFiles/pb_remote_client_nrf52832_xxAA_s132_6.1.1.dir/__/__/__/mesh/core/src/bearer_event.c.obj
                0x00035590                bearer_event_in_correct_irq_priority
 .text.sd_ecb_block_encrypt
                0x00035604        0x4 examples/pb_remote/client/CMakeFiles/pb_remote_client_nrf52832_xxAA_s132_6.1.1.dir/__/__/__/mesh/core/src/enc.c.obj
 .text.enc_aes_encrypt
                0x00035608       0x32 examples/pb_remote/client/CMakeFiles/pb_remote_client_nrf52832_xxAA_s132_6.1.1.dir/__/__/__/mesh/core/src/enc.c.obj
                0x00035608                enc_aes_encrypt
 .text.enc_aes_cmac
                0x0003563a        0x4 examples/pb_remote/client/CMakeFiles/pb_remote_client_nrf52832_xxAA_s132_6.1.1.dir/__/__/__/mesh/core/src/enc.c.obj
                0x0003563a                enc_aes_cmac
 .text.enc_aes_ccm_encrypt
                0x0003563e        0x4 examples/pb_remote/client/CMakeFiles/pb_remote_client_nrf52832_xxAA_s132_6.1.1.dir/__/__/__/mesh/core/src/enc.c.obj
                0x0003563e                enc_aes_ccm_encrypt
 .text.enc_aes_ccm_decrypt
                0x00035642        0x4 examples/pb_remote/client/CMakeFiles/pb_remote_client_nrf52832_xxAA_s132_6.1.1.dir/__/__/__/mesh/core/src/enc.c.obj
                0x00035642                enc_aes_ccm_decrypt
 .text.enc_nonce_generate
                0x00035646       0xbc examples/pb_remote/client/CMakeFiles/pb_remote_client_nrf52832_xxAA_s132_6.1.1.dir/__/__/__/mesh/core/src/enc.c.obj
                0x00035646                enc_nonce_generate
 .text.enc_s1   0x00035702       0x2c examples/pb_remote/client/CMakeFiles/pb_remote_client_nrf52832_xxAA_s132_6.1.1.dir/__/__/__/mesh/core/src/enc.c.obj
                0x00035702                enc_s1
 .text.enc_k1   0x0003572e       0x3c examples/pb_remote/client/CMakeFiles/pb_remote_client_nrf52832_xxAA_s132_6.1.1.dir/__/__/__/mesh/core/src/enc.c.obj
                0x0003572e                enc_k1
 *fill*         0x0003576a        0x2 
 .text.enc_k2   0x0003576c       0xc0 examples/pb_remote/client/CMakeFiles/pb_remote_client_nrf52832_xxAA_s132_6.1.1.dir/__/__/__/mesh/core/src/enc.c.obj
                0x0003576c                enc_k2
 .text.enc_k3   0x0003582c       0x5c examples/pb_remote/client/CMakeFiles/pb_remote_client_nrf52832_xxAA_s132_6.1.1.dir/__/__/__/mesh/core/src/enc.c.obj
                0x0003582c                enc_k3
 .text.enc_k4   0x00035888       0x54 examples/pb_remote/client/CMakeFiles/pb_remote_client_nrf52832_xxAA_s132_6.1.1.dir/__/__/__/mesh/core/src/enc.c.obj
                0x00035888                enc_k4
 .text.allocate_packet
                0x000358dc       0x6e examples/pb_remote/client/CMakeFiles/pb_remote_client_nrf52832_xxAA_s132_6.1.1.dir/__/__/__/mesh/core/src/network.c.obj
 *fill*         0x0003594a        0x2 
 .text.network_init
                0x0003594c       0x24 examples/pb_remote/client/CMakeFiles/pb_remote_client_nrf52832_xxAA_s132_6.1.1.dir/__/__/__/mesh/core/src/network.c.obj
                0x0003594c                network_init
 .text.network_enable
                0x00035970        0xe examples/pb_remote/client/CMakeFiles/pb_remote_client_nrf52832_xxAA_s132_6.1.1.dir/__/__/__/mesh/core/src/network.c.obj
                0x00035970                network_enable
 .text.network_packet_alloc
                0x0003597e       0x42 examples/pb_remote/client/CMakeFiles/pb_remote_client_nrf52832_xxAA_s132_6.1.1.dir/__/__/__/mesh/core/src/network.c.obj
                0x0003597e                network_packet_alloc
 .text.network_packet_send
                0x000359c0       0xe0 examples/pb_remote/client/CMakeFiles/pb_remote_client_nrf52832_xxAA_s132_6.1.1.dir/__/__/__/mesh/core/src/network.c.obj
                0x000359c0                network_packet_send
 .text.network_packet_in
                0x00035aa0      0x2ac examples/pb_remote/client/CMakeFiles/pb_remote_client_nrf52832_xxAA_s132_6.1.1.dir/__/__/__/mesh/core/src/network.c.obj
                0x00035aa0                network_packet_in
 .text.nonce_type_get
                0x00035d4c       0x16 examples/pb_remote/client/CMakeFiles/pb_remote_client_nrf52832_xxAA_s132_6.1.1.dir/__/__/__/mesh/core/src/net_packet.c.obj
 .text.header_transfuscate
                0x00035d62       0x54 examples/pb_remote/client/CMakeFiles/pb_remote_client_nrf52832_xxAA_s132_6.1.1.dir/__/__/__/mesh/core/src/net_packet.c.obj
 *fill*         0x00035db6        0x2 
 .text.try_decrypt
                0x00035db8      0x18c examples/pb_remote/client/CMakeFiles/pb_remote_client_nrf52832_xxAA_s132_6.1.1.dir/__/__/__/mesh/core/src/net_packet.c.obj
 .text.net_packet_decrypt
                0x00035f44       0x94 examples/pb_remote/client/CMakeFiles/pb_remote_client_nrf52832_xxAA_s132_6.1.1.dir/__/__/__/mesh/core/src/net_packet.c.obj
                0x00035f44                net_packet_decrypt
 .text.net_packet_encrypt
                0x00035fd8       0x7e examples/pb_remote/client/CMakeFiles/pb_remote_client_nrf52832_xxAA_s132_6.1.1.dir/__/__/__/mesh/core/src/net_packet.c.obj
                0x00035fd8                net_packet_encrypt
 .text.net_packet_header_set
                0x00036056       0xaa examples/pb_remote/client/CMakeFiles/pb_remote_client_nrf52832_xxAA_s132_6.1.1.dir/__/__/__/mesh/core/src/net_packet.c.obj
                0x00036056                net_packet_header_set
 .text.net_packet_payload_len_get
                0x00036100       0x10 examples/pb_remote/client/CMakeFiles/pb_remote_client_nrf52832_xxAA_s132_6.1.1.dir/__/__/__/mesh/core/src/net_packet.c.obj
                0x00036100                net_packet_payload_len_get
 .text.net_packet_from_payload
                0x00036110        0x4 examples/pb_remote/client/CMakeFiles/pb_remote_client_nrf52832_xxAA_s132_6.1.1.dir/__/__/__/mesh/core/src/net_packet.c.obj
                0x00036110                net_packet_from_payload
 .text.net_packet_obfuscation_start_get
                0x00036114        0x4 examples/pb_remote/client/CMakeFiles/pb_remote_client_nrf52832_xxAA_s132_6.1.1.dir/__/__/__/mesh/core/src/net_packet.c.obj
                0x00036114                net_packet_obfuscation_start_get
 .text.stage_get_available
                0x00036118       0x24 examples/pb_remote/client/CMakeFiles/pb_remote_client_nrf52832_xxAA_s132_6.1.1.dir/__/__/__/mesh/core/src/msqueue.c.obj
 .text.msq_get  0x0003613c       0x38 examples/pb_remote/client/CMakeFiles/pb_remote_client_nrf52832_xxAA_s132_6.1.1.dir/__/__/__/mesh/core/src/msqueue.c.obj
                0x0003613c                msq_get
 .text.msq_move
                0x00036174       0x2e examples/pb_remote/client/CMakeFiles/pb_remote_client_nrf52832_xxAA_s132_6.1.1.dir/__/__/__/mesh/core/src/msqueue.c.obj
                0x00036174                msq_move
 .text.msq_reset
                0x000361a2       0x20 examples/pb_remote/client/CMakeFiles/pb_remote_client_nrf52832_xxAA_s132_6.1.1.dir/__/__/__/mesh/core/src/msqueue.c.obj
                0x000361a2                msq_reset
 .text.msq_init
                0x000361c2       0x48 examples/pb_remote/client/CMakeFiles/pb_remote_client_nrf52832_xxAA_s132_6.1.1.dir/__/__/__/mesh/core/src/msqueue.c.obj
                0x000361c2                msq_init
 .text.msq_available
                0x0003620a       0x26 examples/pb_remote/client/CMakeFiles/pb_remote_client_nrf52832_xxAA_s132_6.1.1.dir/__/__/__/mesh/core/src/msqueue.c.obj
                0x0003620a                msq_available
 .text.nrf_mesh_keygen_aid
                0x00036230       0x12 examples/pb_remote/client/CMakeFiles/pb_remote_client_nrf52832_xxAA_s132_6.1.1.dir/__/__/__/mesh/core/src/nrf_mesh_keygen.c.obj
                0x00036230                nrf_mesh_keygen_aid
 .text.nrf_mesh_keygen_network_secmat
                0x00036242       0x20 examples/pb_remote/client/CMakeFiles/pb_remote_client_nrf52832_xxAA_s132_6.1.1.dir/__/__/__/mesh/core/src/nrf_mesh_keygen.c.obj
                0x00036242                nrf_mesh_keygen_network_secmat
 *fill*         0x00036262        0x2 
 .text.nrf_mesh_keygen_beacon_secmat
                0x00036264       0x50 examples/pb_remote/client/CMakeFiles/pb_remote_client_nrf52832_xxAA_s132_6.1.1.dir/__/__/__/mesh/core/src/nrf_mesh_keygen.c.obj
                0x00036264                nrf_mesh_keygen_beacon_secmat
 .text.nrf_mesh_keygen_virtual_address
                0x000362b4       0x50 examples/pb_remote/client/CMakeFiles/pb_remote_client_nrf52832_xxAA_s132_6.1.1.dir/__/__/__/mesh/core/src/nrf_mesh_keygen.c.obj
                0x000362b4                nrf_mesh_keygen_virtual_address
 .text.list_insert
                0x00036304       0x1c examples/pb_remote/client/CMakeFiles/pb_remote_client_nrf52832_xxAA_s132_6.1.1.dir/__/__/__/mesh/core/src/list.c.obj
 .text.list_add
                0x00036320       0x42 examples/pb_remote/client/CMakeFiles/pb_remote_client_nrf52832_xxAA_s132_6.1.1.dir/__/__/__/mesh/core/src/list.c.obj
                0x00036320                list_add
 .text.list_remove
                0x00036362       0x3a examples/pb_remote/client/CMakeFiles/pb_remote_client_nrf52832_xxAA_s132_6.1.1.dir/__/__/__/mesh/core/src/list.c.obj
                0x00036362                list_remove
 .text.list_compare_add
                0x0003639c       0x56 examples/pb_remote/client/CMakeFiles/pb_remote_client_nrf52832_xxAA_s132_6.1.1.dir/__/__/__/mesh/core/src/list.c.obj
                0x0003639c                list_compare_add
 *fill*         0x000363f2        0x2 
 .text.log_callback_rtt
                0x000363f4       0x2c examples/pb_remote/client/CMakeFiles/pb_remote_client_nrf52832_xxAA_s132_6.1.1.dir/__/__/__/mesh/core/src/log.c.obj
                0x000363f4                log_callback_rtt
 .text.log_init
                0x00036420       0x1c examples/pb_remote/client/CMakeFiles/pb_remote_client_nrf52832_xxAA_s132_6.1.1.dir/__/__/__/mesh/core/src/log.c.obj
                0x00036420                log_init
 .text.log_vprintf
                0x0003643c       0x1c examples/pb_remote/client/CMakeFiles/pb_remote_client_nrf52832_xxAA_s132_6.1.1.dir/__/__/__/mesh/core/src/log.c.obj
                0x0003643c                log_vprintf
 .text.log_printf
                0x00036458       0x18 examples/pb_remote/client/CMakeFiles/pb_remote_client_nrf52832_xxAA_s132_6.1.1.dir/__/__/__/mesh/core/src/log.c.obj
                0x00036458                log_printf
 .text.get_area_end
                0x00036470        0xc examples/pb_remote/client/CMakeFiles/pb_remote_client_nrf52832_xxAA_s132_6.1.1.dir/__/__/__/mesh/core/src/flash_manager.c.obj
 .text.handle_matches_filter
                0x0003647c       0x26 examples/pb_remote/client/CMakeFiles/pb_remote_client_nrf52832_xxAA_s132_6.1.1.dir/__/__/__/mesh/core/src/flash_manager.c.obj
 .text.flash_area_is_blank
                0x000364a2       0x2c examples/pb_remote/client/CMakeFiles/pb_remote_client_nrf52832_xxAA_s132_6.1.1.dir/__/__/__/mesh/core/src/flash_manager.c.obj
 *fill*         0x000364ce        0x2 
 .text.get_packet_buffer
                0x000364d0       0x20 examples/pb_remote/client/CMakeFiles/pb_remote_client_nrf52832_xxAA_s132_6.1.1.dir/__/__/__/mesh/core/src/flash_manager.c.obj
 .text.flash    0x000364f0       0x1c examples/pb_remote/client/CMakeFiles/pb_remote_client_nrf52832_xxAA_s132_6.1.1.dir/__/__/__/mesh/core/src/flash_manager.c.obj
 .text.free_packet_buffer
                0x0003650c       0x3c examples/pb_remote/client/CMakeFiles/pb_remote_client_nrf52832_xxAA_s132_6.1.1.dir/__/__/__/mesh/core/src/flash_manager.c.obj
 .text.iterate_callback_entry_copy
                0x00036548       0x38 examples/pb_remote/client/CMakeFiles/pb_remote_client_nrf52832_xxAA_s132_6.1.1.dir/__/__/__/mesh/core/src/flash_manager.c.obj
 .text.reserve_action_buffer
                0x00036580       0x24 examples/pb_remote/client/CMakeFiles/pb_remote_client_nrf52832_xxAA_s132_6.1.1.dir/__/__/__/mesh/core/src/flash_manager.c.obj
 .text.commit_action_buffer
                0x000365a4       0x18 examples/pb_remote/client/CMakeFiles/pb_remote_client_nrf52832_xxAA_s132_6.1.1.dir/__/__/__/mesh/core/src/flash_manager.c.obj
 .text.schedule_processing
                0x000365bc        0xc examples/pb_remote/client/CMakeFiles/pb_remote_client_nrf52832_xxAA_s132_6.1.1.dir/__/__/__/mesh/core/src/flash_manager.c.obj
 .text.get_next_entry
                0x000365c8       0x34 examples/pb_remote/client/CMakeFiles/pb_remote_client_nrf52832_xxAA_s132_6.1.1.dir/__/__/__/mesh/core/src/flash_manager.c.obj
 .text.get_last_entry.isra.1
                0x000365fc       0x30 examples/pb_remote/client/CMakeFiles/pb_remote_client_nrf52832_xxAA_s132_6.1.1.dir/__/__/__/mesh/core/src/flash_manager.c.obj
 .text.process_action_queue
                0x0003662c      0x3fc examples/pb_remote/client/CMakeFiles/pb_remote_client_nrf52832_xxAA_s132_6.1.1.dir/__/__/__/mesh/core/src/flash_manager.c.obj
 .text.flash_op_ended_callback
                0x00036a28       0x24 examples/pb_remote/client/CMakeFiles/pb_remote_client_nrf52832_xxAA_s132_6.1.1.dir/__/__/__/mesh/core/src/flash_manager.c.obj
 .text.flash_manager_init
                0x00036a4c       0x68 examples/pb_remote/client/CMakeFiles/pb_remote_client_nrf52832_xxAA_s132_6.1.1.dir/__/__/__/mesh/core/src/flash_manager.c.obj
                0x00036a4c                flash_manager_init
 .text.flash_manager_remove
                0x00036ab4       0x24 examples/pb_remote/client/CMakeFiles/pb_remote_client_nrf52832_xxAA_s132_6.1.1.dir/__/__/__/mesh/core/src/flash_manager.c.obj
                0x00036ab4                flash_manager_remove
 .text.flash_manager_entries_read
                0x00036ad8       0xea examples/pb_remote/client/CMakeFiles/pb_remote_client_nrf52832_xxAA_s132_6.1.1.dir/__/__/__/mesh/core/src/flash_manager.c.obj
                0x00036ad8                flash_manager_entries_read
 *fill*         0x00036bc2        0x2 
 .text.flash_manager_entry_read
                0x00036bc4       0x50 examples/pb_remote/client/CMakeFiles/pb_remote_client_nrf52832_xxAA_s132_6.1.1.dir/__/__/__/mesh/core/src/flash_manager.c.obj
                0x00036bc4                flash_manager_entry_read
 .text.flash_manager_entry_count_get
                0x00036c14       0x1e examples/pb_remote/client/CMakeFiles/pb_remote_client_nrf52832_xxAA_s132_6.1.1.dir/__/__/__/mesh/core/src/flash_manager.c.obj
                0x00036c14                flash_manager_entry_count_get
 .text.flash_manager_entry_alloc
                0x00036c32       0x5c examples/pb_remote/client/CMakeFiles/pb_remote_client_nrf52832_xxAA_s132_6.1.1.dir/__/__/__/mesh/core/src/flash_manager.c.obj
                0x00036c32                flash_manager_entry_alloc
 *fill*         0x00036c8e        0x2 
 .text.flash_manager_entry_commit
                0x00036c90       0x2c examples/pb_remote/client/CMakeFiles/pb_remote_client_nrf52832_xxAA_s132_6.1.1.dir/__/__/__/mesh/core/src/flash_manager.c.obj
                0x00036c90                flash_manager_entry_commit
 .text.flash_manager_entry_invalidate
                0x00036cbc       0x4e examples/pb_remote/client/CMakeFiles/pb_remote_client_nrf52832_xxAA_s132_6.1.1.dir/__/__/__/mesh/core/src/flash_manager.c.obj
                0x00036cbc                flash_manager_entry_invalidate
 *fill*         0x00036d0a        0x2 
 .text.flash_manager_add
                0x00036d0c      0x220 examples/pb_remote/client/CMakeFiles/pb_remote_client_nrf52832_xxAA_s132_6.1.1.dir/__/__/__/mesh/core/src/flash_manager.c.obj
                0x00036d0c                flash_manager_add
 .text.flash_manager_mem_listener_register
                0x00036f2c       0x30 examples/pb_remote/client/CMakeFiles/pb_remote_client_nrf52832_xxAA_s132_6.1.1.dir/__/__/__/mesh/core/src/flash_manager.c.obj
                0x00036f2c                flash_manager_mem_listener_register
 .text.flash_manager_is_stable
                0x00036f5c       0x20 examples/pb_remote/client/CMakeFiles/pb_remote_client_nrf52832_xxAA_s132_6.1.1.dir/__/__/__/mesh/core/src/flash_manager.c.obj
                0x00036f5c                flash_manager_is_stable
 .text.flash_manager_on_defrag_end
                0x00036f7c       0x4c examples/pb_remote/client/CMakeFiles/pb_remote_client_nrf52832_xxAA_s132_6.1.1.dir/__/__/__/mesh/core/src/flash_manager.c.obj
                0x00036f7c                flash_manager_on_defrag_end
 .text.flash_manager_recovery_page_get
                0x00036fc8        0x4 examples/pb_remote/client/CMakeFiles/pb_remote_client_nrf52832_xxAA_s132_6.1.1.dir/__/__/__/mesh/core/src/flash_manager.c.obj
                0x00036fc8                flash_manager_recovery_page_get
 .text.flash_manager_action_queue_empty_cb_set
                0x00036fcc       0x1c examples/pb_remote/client/CMakeFiles/pb_remote_client_nrf52832_xxAA_s132_6.1.1.dir/__/__/__/mesh/core/src/flash_manager.c.obj
                0x00036fcc                flash_manager_action_queue_empty_cb_set
 .text.utils_xor
                0x00036fe8       0x14 examples/pb_remote/client/CMakeFiles/pb_remote_client_nrf52832_xxAA_s132_6.1.1.dir/__/__/__/mesh/core/src/ccm_soft.c.obj
 .text.sd_ecb_block_encrypt
                0x00036ffc        0x4 examples/pb_remote/client/CMakeFiles/pb_remote_client_nrf52832_xxAA_s132_6.1.1.dir/__/__/__/mesh/core/src/ccm_soft.c.obj
 .text.ccm_soft_crypt
                0x00037000       0x4c examples/pb_remote/client/CMakeFiles/pb_remote_client_nrf52832_xxAA_s132_6.1.1.dir/__/__/__/mesh/core/src/ccm_soft.c.obj
 .text.ccm_soft_authenticate_blocks
                0x0003704c       0x6c examples/pb_remote/client/CMakeFiles/pb_remote_client_nrf52832_xxAA_s132_6.1.1.dir/__/__/__/mesh/core/src/ccm_soft.c.obj
 .text.ccm_soft_authenticate
                0x000370b8       0x94 examples/pb_remote/client/CMakeFiles/pb_remote_client_nrf52832_xxAA_s132_6.1.1.dir/__/__/__/mesh/core/src/ccm_soft.c.obj
 .text.ccm_soft_encrypt
                0x0003714c       0x54 examples/pb_remote/client/CMakeFiles/pb_remote_client_nrf52832_xxAA_s132_6.1.1.dir/__/__/__/mesh/core/src/ccm_soft.c.obj
                0x0003714c                ccm_soft_encrypt
 .text.ccm_soft_decrypt
                0x000371a0       0x9c examples/pb_remote/client/CMakeFiles/pb_remote_client_nrf52832_xxAA_s132_6.1.1.dir/__/__/__/mesh/core/src/ccm_soft.c.obj
                0x000371a0                ccm_soft_decrypt
 .text.iv_index_get.isra.0
                0x0003723c       0x34 examples/pb_remote/client/CMakeFiles/pb_remote_client_nrf52832_xxAA_s132_6.1.1.dir/__/__/__/mesh/core/src/replay_cache.c.obj
 .text.evt_handler
                0x00037270       0x60 examples/pb_remote/client/CMakeFiles/pb_remote_client_nrf52832_xxAA_s132_6.1.1.dir/__/__/__/mesh/core/src/replay_cache.c.obj
 .text.replay_cache_enable
                0x000372d0       0x10 examples/pb_remote/client/CMakeFiles/pb_remote_client_nrf52832_xxAA_s132_6.1.1.dir/__/__/__/mesh/core/src/replay_cache.c.obj
                0x000372d0                replay_cache_enable
 .text.replay_cache_add
                0x000372e0       0x78 examples/pb_remote/client/CMakeFiles/pb_remote_client_nrf52832_xxAA_s132_6.1.1.dir/__/__/__/mesh/core/src/replay_cache.c.obj
                0x000372e0                replay_cache_add
 .text.replay_cache_has_elem
                0x00037358       0x50 examples/pb_remote/client/CMakeFiles/pb_remote_client_nrf52832_xxAA_s132_6.1.1.dir/__/__/__/mesh/core/src/replay_cache.c.obj
                0x00037358                replay_cache_has_elem
 .text.replay_cache_clear
                0x000373a8       0x18 examples/pb_remote/client/CMakeFiles/pb_remote_client_nrf52832_xxAA_s132_6.1.1.dir/__/__/__/mesh/core/src/replay_cache.c.obj
                0x000373a8                replay_cache_clear
 .text.replay_cache_init
                0x000373c0       0x14 examples/pb_remote/client/CMakeFiles/pb_remote_client_nrf52832_xxAA_s132_6.1.1.dir/__/__/__/mesh/core/src/replay_cache.c.obj
                0x000373c0                replay_cache_init
 .text.beacon_create
                0x000373d4       0x46 examples/pb_remote/client/CMakeFiles/pb_remote_client_nrf52832_xxAA_s132_6.1.1.dir/__/__/__/mesh/core/src/beacon.c.obj
                0x000373d4                beacon_create
 *fill*         0x0003741a        0x2 
 .text.beacon_packet_in
                0x0003741c      0x130 examples/pb_remote/client/CMakeFiles/pb_remote_client_nrf52832_xxAA_s132_6.1.1.dir/__/__/__/mesh/core/src/beacon.c.obj
                0x0003741c                beacon_packet_in
 .text.entry_get
                0x0003754c       0x78 examples/pb_remote/client/CMakeFiles/pb_remote_client_nrf52832_xxAA_s132_6.1.1.dir/__/__/__/mesh/core/src/flash_manager_internal.c.obj
                0x0003754c                entry_get
 .text.core_tx_complete_cb_set
                0x000375c4        0xc examples/pb_remote/client/CMakeFiles/pb_remote_client_nrf52832_xxAA_s132_6.1.1.dir/__/__/__/mesh/core/src/core_tx.c.obj
                0x000375c4                core_tx_complete_cb_set
 .text.core_tx_packet_alloc
                0x000375d0       0xac examples/pb_remote/client/CMakeFiles/pb_remote_client_nrf52832_xxAA_s132_6.1.1.dir/__/__/__/mesh/core/src/core_tx.c.obj
                0x000375d0                core_tx_packet_alloc
 .text.core_tx_packet_send
                0x0003767c       0x4c examples/pb_remote/client/CMakeFiles/pb_remote_client_nrf52832_xxAA_s132_6.1.1.dir/__/__/__/mesh/core/src/core_tx.c.obj
                0x0003767c                core_tx_packet_send
 .text.core_tx_packet_discard
                0x000376c8       0x40 examples/pb_remote/client/CMakeFiles/pb_remote_client_nrf52832_xxAA_s132_6.1.1.dir/__/__/__/mesh/core/src/core_tx.c.obj
                0x000376c8                core_tx_packet_discard
 .text.core_tx_complete
                0x00037708       0x34 examples/pb_remote/client/CMakeFiles/pb_remote_client_nrf52832_xxAA_s132_6.1.1.dir/__/__/__/mesh/core/src/core_tx.c.obj
                0x00037708                core_tx_complete
 .text.core_tx_bearer_add
                0x0003773c       0x74 examples/pb_remote/client/CMakeFiles/pb_remote_client_nrf52832_xxAA_s132_6.1.1.dir/__/__/__/mesh/core/src/core_tx.c.obj
                0x0003773c                core_tx_bearer_add
 .text.hb_pub_deleter
                0x000377b0       0x28 examples/pb_remote/client/CMakeFiles/pb_remote_client_nrf52832_xxAA_s132_6.1.1.dir/__/__/__/mesh/core/src/heartbeat.c.obj
 .text.hb_pub_getter
                0x000377d8       0x2c examples/pb_remote/client/CMakeFiles/pb_remote_client_nrf52832_xxAA_s132_6.1.1.dir/__/__/__/mesh/core/src/heartbeat.c.obj
 .text.hb_pub_setter
                0x00037804       0xd0 examples/pb_remote/client/CMakeFiles/pb_remote_client_nrf52832_xxAA_s132_6.1.1.dir/__/__/__/mesh/core/src/heartbeat.c.obj
 .text.heartbeat_subscription_timer_cb
                0x000378d4       0x3c examples/pb_remote/client/CMakeFiles/pb_remote_client_nrf52832_xxAA_s132_6.1.1.dir/__/__/__/mesh/core/src/heartbeat.c.obj
 .text.heartbeat_opcode_handle
                0x00037910       0x88 examples/pb_remote/client/CMakeFiles/pb_remote_client_nrf52832_xxAA_s132_6.1.1.dir/__/__/__/mesh/core/src/heartbeat.c.obj
 .text.heartbeat_publish
                0x00037998       0xb8 examples/pb_remote/client/CMakeFiles/pb_remote_client_nrf52832_xxAA_s132_6.1.1.dir/__/__/__/mesh/core/src/heartbeat.c.obj
 .text.heartbeat_core_evt_cb
                0x00037a50       0x18 examples/pb_remote/client/CMakeFiles/pb_remote_client_nrf52832_xxAA_s132_6.1.1.dir/__/__/__/mesh/core/src/heartbeat.c.obj
 .text.heartbeat_publication_timer_cb
                0x00037a68       0x54 examples/pb_remote/client/CMakeFiles/pb_remote_client_nrf52832_xxAA_s132_6.1.1.dir/__/__/__/mesh/core/src/heartbeat.c.obj
 .text.heartbeat_relay_listener_cb
                0x00037abc       0x48 examples/pb_remote/client/CMakeFiles/pb_remote_client_nrf52832_xxAA_s132_6.1.1.dir/__/__/__/mesh/core/src/heartbeat.c.obj
 .text.heartbeat_init
                0x00037b04       0x58 examples/pb_remote/client/CMakeFiles/pb_remote_client_nrf52832_xxAA_s132_6.1.1.dir/__/__/__/mesh/core/src/heartbeat.c.obj
                0x00037b04                heartbeat_init
 .text.heartbeat_subscription_set
                0x00037b5c       0xd0 examples/pb_remote/client/CMakeFiles/pb_remote_client_nrf52832_xxAA_s132_6.1.1.dir/__/__/__/mesh/core/src/heartbeat.c.obj
                0x00037b5c                heartbeat_subscription_set
 .text.heartbeat_subscription_get
                0x00037c2c        0x8 examples/pb_remote/client/CMakeFiles/pb_remote_client_nrf52832_xxAA_s132_6.1.1.dir/__/__/__/mesh/core/src/heartbeat.c.obj
                0x00037c2c                heartbeat_subscription_get
 .text.heartbeat_publication_get
                0x00037c34        0x8 examples/pb_remote/client/CMakeFiles/pb_remote_client_nrf52832_xxAA_s132_6.1.1.dir/__/__/__/mesh/core/src/heartbeat.c.obj
                0x00037c34                heartbeat_publication_get
 .text.heartbeat_publication_set
                0x00037c3c       0x18 examples/pb_remote/client/CMakeFiles/pb_remote_client_nrf52832_xxAA_s132_6.1.1.dir/__/__/__/mesh/core/src/heartbeat.c.obj
                0x00037c3c                heartbeat_publication_set
 .text.heartbeat_public_info_getter_register
                0x00037c54       0x14 examples/pb_remote/client/CMakeFiles/pb_remote_client_nrf52832_xxAA_s132_6.1.1.dir/__/__/__/mesh/core/src/heartbeat.c.obj
                0x00037c54                heartbeat_public_info_getter_register
 .text.beacon_deleter
                0x00037c68       0x34 examples/pb_remote/client/CMakeFiles/pb_remote_client_nrf52832_xxAA_s132_6.1.1.dir/__/__/__/mesh/core/src/net_beacon.c.obj
 .text.beacon_getter
                0x00037c9c       0x24 examples/pb_remote/client/CMakeFiles/pb_remote_client_nrf52832_xxAA_s132_6.1.1.dir/__/__/__/mesh/core/src/net_beacon.c.obj
 .text.beacon_setter
                0x00037cc0       0x5c examples/pb_remote/client/CMakeFiles/pb_remote_client_nrf52832_xxAA_s132_6.1.1.dir/__/__/__/mesh/core/src/net_beacon.c.obj
 .text.make_network_beacon_packet
                0x00037d1c       0x50 examples/pb_remote/client/CMakeFiles/pb_remote_client_nrf52832_xxAA_s132_6.1.1.dir/__/__/__/mesh/core/src/net_beacon.c.obj
 .text.beacon_tx
                0x00037d6c      0x188 examples/pb_remote/client/CMakeFiles/pb_remote_client_nrf52832_xxAA_s132_6.1.1.dir/__/__/__/mesh/core/src/net_beacon.c.obj
 .text.tx_complete_cb
                0x00037ef4        0xe examples/pb_remote/client/CMakeFiles/pb_remote_client_nrf52832_xxAA_s132_6.1.1.dir/__/__/__/mesh/core/src/net_beacon.c.obj
 .text.beacon_tx_timeout
                0x00037f02        0x4 examples/pb_remote/client/CMakeFiles/pb_remote_client_nrf52832_xxAA_s132_6.1.1.dir/__/__/__/mesh/core/src/net_beacon.c.obj
 .text.is_valid_beacon_pkt.part.1
                0x00037f06       0x30 examples/pb_remote/client/CMakeFiles/pb_remote_client_nrf52832_xxAA_s132_6.1.1.dir/__/__/__/mesh/core/src/net_beacon.c.obj
 *fill*         0x00037f36        0x2 
 .text.net_beacon_init
                0x00037f38       0x7c examples/pb_remote/client/CMakeFiles/pb_remote_client_nrf52832_xxAA_s132_6.1.1.dir/__/__/__/mesh/core/src/net_beacon.c.obj
                0x00037f38                net_beacon_init
 .text.net_beacon_enable
                0x00037fb4       0x28 examples/pb_remote/client/CMakeFiles/pb_remote_client_nrf52832_xxAA_s132_6.1.1.dir/__/__/__/mesh/core/src/net_beacon.c.obj
                0x00037fb4                net_beacon_enable
 .text.net_beacon_state_set
                0x00037fdc       0x20 examples/pb_remote/client/CMakeFiles/pb_remote_client_nrf52832_xxAA_s132_6.1.1.dir/__/__/__/mesh/core/src/net_beacon.c.obj
                0x00037fdc                net_beacon_state_set
 .text.net_beacon_state_get
                0x00037ffc       0x24 examples/pb_remote/client/CMakeFiles/pb_remote_client_nrf52832_xxAA_s132_6.1.1.dir/__/__/__/mesh/core/src/net_beacon.c.obj
                0x00037ffc                net_beacon_state_get
 .text.net_beacon_packet_in
                0x00038020      0x16c examples/pb_remote/client/CMakeFiles/pb_remote_client_nrf52832_xxAA_s132_6.1.1.dir/__/__/__/mesh/core/src/net_beacon.c.obj
                0x00038020                net_beacon_packet_in
 .text.listeners_notify
                0x0003818c       0x4c examples/pb_remote/client/CMakeFiles/pb_remote_client_nrf52832_xxAA_s132_6.1.1.dir/__/__/__/mesh/core/src/mesh_config.c.obj
 .text.entry_flags_get.isra.0
                0x000381d8       0x1c examples/pb_remote/client/CMakeFiles/pb_remote_client_nrf52832_xxAA_s132_6.1.1.dir/__/__/__/mesh/core/src/mesh_config.c.obj
 .text.entry_params_find
                0x000381f4       0x38 examples/pb_remote/client/CMakeFiles/pb_remote_client_nrf52832_xxAA_s132_6.1.1.dir/__/__/__/mesh/core/src/mesh_config.c.obj
 .text.restore_callback
                0x0003822c       0x66 examples/pb_remote/client/CMakeFiles/pb_remote_client_nrf52832_xxAA_s132_6.1.1.dir/__/__/__/mesh/core/src/mesh_config.c.obj
 *fill*         0x00038292        0x2 
 .text.dirty_entries_process
                0x00038294       0xdc examples/pb_remote/client/CMakeFiles/pb_remote_client_nrf52832_xxAA_s132_6.1.1.dir/__/__/__/mesh/core/src/mesh_config.c.obj
 .text.mesh_config_init
                0x00038370       0xa0 examples/pb_remote/client/CMakeFiles/pb_remote_client_nrf52832_xxAA_s132_6.1.1.dir/__/__/__/mesh/core/src/mesh_config.c.obj
                0x00038370                mesh_config_init
 .text.mesh_config_load
                0x00038410        0xc examples/pb_remote/client/CMakeFiles/pb_remote_client_nrf52832_xxAA_s132_6.1.1.dir/__/__/__/mesh/core/src/mesh_config.c.obj
                0x00038410                mesh_config_load
 .text.mesh_config_is_busy
                0x0003841c       0x34 examples/pb_remote/client/CMakeFiles/pb_remote_client_nrf52832_xxAA_s132_6.1.1.dir/__/__/__/mesh/core/src/mesh_config.c.obj
                0x0003841c                mesh_config_is_busy
 .text.backend_evt_handler
                0x00038450       0x88 examples/pb_remote/client/CMakeFiles/pb_remote_client_nrf52832_xxAA_s132_6.1.1.dir/__/__/__/mesh/core/src/mesh_config.c.obj
 .text.mesh_config_entry_set
                0x000384d8       0x80 examples/pb_remote/client/CMakeFiles/pb_remote_client_nrf52832_xxAA_s132_6.1.1.dir/__/__/__/mesh/core/src/mesh_config.c.obj
                0x000384d8                mesh_config_entry_set
 .text.mesh_config_entry_get
                0x00038558       0x3c examples/pb_remote/client/CMakeFiles/pb_remote_client_nrf52832_xxAA_s132_6.1.1.dir/__/__/__/mesh/core/src/mesh_config.c.obj
                0x00038558                mesh_config_entry_get
 .text.mesh_config_entry_delete
                0x00038594       0x4a examples/pb_remote/client/CMakeFiles/pb_remote_client_nrf52832_xxAA_s132_6.1.1.dir/__/__/__/mesh/core/src/mesh_config.c.obj
                0x00038594                mesh_config_entry_delete
 *fill*         0x000385de        0x2 
 .text.mesh_config_clear
                0x000385e0       0x4c examples/pb_remote/client/CMakeFiles/pb_remote_client_nrf52832_xxAA_s132_6.1.1.dir/__/__/__/mesh/core/src/mesh_config.c.obj
                0x000385e0                mesh_config_clear
 .text.dummy_event
                0x0003862c        0x2 examples/pb_remote/client/CMakeFiles/pb_remote_client_nrf52832_xxAA_s132_6.1.1.dir/__/__/__/mesh/core/src/mesh_config_backend.c.obj
 *fill*         0x0003862e        0x2 
 .text.file_get
                0x00038630       0x34 examples/pb_remote/client/CMakeFiles/pb_remote_client_nrf52832_xxAA_s132_6.1.1.dir/__/__/__/mesh/core/src/mesh_config_backend.c.obj
 .text.mesh_config_backend_init
                0x00038664      0x11c examples/pb_remote/client/CMakeFiles/pb_remote_client_nrf52832_xxAA_s132_6.1.1.dir/__/__/__/mesh/core/src/mesh_config_backend.c.obj
                0x00038664                mesh_config_backend_init
 .text.mesh_config_backend_store
                0x00038780       0x4e examples/pb_remote/client/CMakeFiles/pb_remote_client_nrf52832_xxAA_s132_6.1.1.dir/__/__/__/mesh/core/src/mesh_config_backend.c.obj
                0x00038780                mesh_config_backend_store
 .text.mesh_config_backend_erase
                0x000387ce       0x34 examples/pb_remote/client/CMakeFiles/pb_remote_client_nrf52832_xxAA_s132_6.1.1.dir/__/__/__/mesh/core/src/mesh_config_backend.c.obj
                0x000387ce                mesh_config_backend_erase
 *fill*         0x00038802        0x2 
 .text.mesh_config_backend_read_all
                0x00038804       0x38 examples/pb_remote/client/CMakeFiles/pb_remote_client_nrf52832_xxAA_s132_6.1.1.dir/__/__/__/mesh/core/src/mesh_config_backend.c.obj
                0x00038804                mesh_config_backend_read_all
 .text.entry_read_cb
                0x0003883c       0x38 examples/pb_remote/client/CMakeFiles/pb_remote_client_nrf52832_xxAA_s132_6.1.1.dir/__/__/__/mesh/core/src/mesh_config_flashman_glue.c.obj
 .text.write_complete_cb
                0x00038874       0x30 examples/pb_remote/client/CMakeFiles/pb_remote_client_nrf52832_xxAA_s132_6.1.1.dir/__/__/__/mesh/core/src/mesh_config_flashman_glue.c.obj
 .text.invalidate_complete_cb
                0x000388a4       0x2c examples/pb_remote/client/CMakeFiles/pb_remote_client_nrf52832_xxAA_s132_6.1.1.dir/__/__/__/mesh/core/src/mesh_config_flashman_glue.c.obj
 .text.remove_complete_cb
                0x000388d0        0x2 examples/pb_remote/client/CMakeFiles/pb_remote_client_nrf52832_xxAA_s132_6.1.1.dir/__/__/__/mesh/core/src/mesh_config_flashman_glue.c.obj
 .text.flash_stable_cb
                0x000388d2       0x20 examples/pb_remote/client/CMakeFiles/pb_remote_client_nrf52832_xxAA_s132_6.1.1.dir/__/__/__/mesh/core/src/mesh_config_flashman_glue.c.obj
 *fill*         0x000388f2        0x2 
 .text.mesh_config_backend_glue_init
                0x000388f4       0x28 examples/pb_remote/client/CMakeFiles/pb_remote_client_nrf52832_xxAA_s132_6.1.1.dir/__/__/__/mesh/core/src/mesh_config_flashman_glue.c.obj
                0x000388f4                mesh_config_backend_glue_init
 .text.mesh_config_backend_file_create
                0x0003891c       0x58 examples/pb_remote/client/CMakeFiles/pb_remote_client_nrf52832_xxAA_s132_6.1.1.dir/__/__/__/mesh/core/src/mesh_config_flashman_glue.c.obj
                0x0003891c                mesh_config_backend_file_create
 .text.mesh_config_backend_record_write
                0x00038974       0x2c examples/pb_remote/client/CMakeFiles/pb_remote_client_nrf52832_xxAA_s132_6.1.1.dir/__/__/__/mesh/core/src/mesh_config_flashman_glue.c.obj
                0x00038974                mesh_config_backend_record_write
 .text.mesh_config_backend_record_erase
                0x000389a0       0x30 examples/pb_remote/client/CMakeFiles/pb_remote_client_nrf52832_xxAA_s132_6.1.1.dir/__/__/__/mesh/core/src/mesh_config_flashman_glue.c.obj
                0x000389a0                mesh_config_backend_record_erase
 .text.mesh_config_backend_records_read
                0x000389d0       0x30 examples/pb_remote/client/CMakeFiles/pb_remote_client_nrf52832_xxAA_s132_6.1.1.dir/__/__/__/mesh/core/src/mesh_config_flashman_glue.c.obj
                0x000389d0                mesh_config_backend_records_read
 .text.mesh_config_record_size_calculate
                0x00038a00        0xa examples/pb_remote/client/CMakeFiles/pb_remote_client_nrf52832_xxAA_s132_6.1.1.dir/__/__/__/mesh/core/src/mesh_config_flashman_glue.c.obj
                0x00038a00                mesh_config_record_size_calculate
 .text.mesh_config_backend_file_power_down_time_get
                0x00038a0a       0x26 examples/pb_remote/client/CMakeFiles/pb_remote_client_nrf52832_xxAA_s132_6.1.1.dir/__/__/__/mesh/core/src/mesh_config_flashman_glue.c.obj
                0x00038a0a                mesh_config_backend_file_power_down_time_get
 .text.packet_discard
                0x00038a30       0x30 examples/pb_remote/client/CMakeFiles/pb_remote_client_nrf52832_xxAA_s132_6.1.1.dir/__/__/__/mesh/core/src/core_tx_local.c.obj
 .text.packet_send
                0x00038a60       0x58 examples/pb_remote/client/CMakeFiles/pb_remote_client_nrf52832_xxAA_s132_6.1.1.dir/__/__/__/mesh/core/src/core_tx_local.c.obj
 .text.loopback_process
                0x00038ab8       0x64 examples/pb_remote/client/CMakeFiles/pb_remote_client_nrf52832_xxAA_s132_6.1.1.dir/__/__/__/mesh/core/src/core_tx_local.c.obj
 .text.packet_alloc
                0x00038b1c       0x48 examples/pb_remote/client/CMakeFiles/pb_remote_client_nrf52832_xxAA_s132_6.1.1.dir/__/__/__/mesh/core/src/core_tx_local.c.obj
 .text.core_tx_local_init
                0x00038b64       0x34 examples/pb_remote/client/CMakeFiles/pb_remote_client_nrf52832_xxAA_s132_6.1.1.dir/__/__/__/mesh/core/src/core_tx_local.c.obj
                0x00038b64                core_tx_local_init
 .text.core_tx_adv_get
                0x00038b98       0x3c examples/pb_remote/client/CMakeFiles/pb_remote_client_nrf52832_xxAA_s132_6.1.1.dir/__/__/__/mesh/core/src/core_tx_adv.c.obj
 .text.core_tx_tx_power_get
                0x00038bd4       0x30 examples/pb_remote/client/CMakeFiles/pb_remote_client_nrf52832_xxAA_s132_6.1.1.dir/__/__/__/mesh/core/src/core_tx_adv.c.obj
 .text.core_tx_adv_delete
                0x00038c04       0x50 examples/pb_remote/client/CMakeFiles/pb_remote_client_nrf52832_xxAA_s132_6.1.1.dir/__/__/__/mesh/core/src/core_tx_adv.c.obj
 .text.core_tx_adv_set
                0x00038c54       0x6c examples/pb_remote/client/CMakeFiles/pb_remote_client_nrf52832_xxAA_s132_6.1.1.dir/__/__/__/mesh/core/src/core_tx_adv.c.obj
 .text.core_tx_tx_power_delete
                0x00038cc0       0x30 examples/pb_remote/client/CMakeFiles/pb_remote_client_nrf52832_xxAA_s132_6.1.1.dir/__/__/__/mesh/core/src/core_tx_adv.c.obj
 .text.core_tx_tx_power_set
                0x00038cf0       0x34 examples/pb_remote/client/CMakeFiles/pb_remote_client_nrf52832_xxAA_s132_6.1.1.dir/__/__/__/mesh/core/src/core_tx_adv.c.obj
 .text.core_tx_adv_addr_delete
                0x00038d24       0x34 examples/pb_remote/client/CMakeFiles/pb_remote_client_nrf52832_xxAA_s132_6.1.1.dir/__/__/__/mesh/core/src/core_tx_adv.c.obj
 .text.core_tx_adv_addr_set
                0x00038d58       0x40 examples/pb_remote/client/CMakeFiles/pb_remote_client_nrf52832_xxAA_s132_6.1.1.dir/__/__/__/mesh/core/src/core_tx_adv.c.obj
 .text.core_tx_adv_addr_get
                0x00038d98       0x34 examples/pb_remote/client/CMakeFiles/pb_remote_client_nrf52832_xxAA_s132_6.1.1.dir/__/__/__/mesh/core/src/core_tx_adv.c.obj
 .text.packet_discard
                0x00038dcc       0x40 examples/pb_remote/client/CMakeFiles/pb_remote_client_nrf52832_xxAA_s132_6.1.1.dir/__/__/__/mesh/core/src/core_tx_adv.c.obj
 .text.packet_send
                0x00038e0c       0x58 examples/pb_remote/client/CMakeFiles/pb_remote_client_nrf52832_xxAA_s132_6.1.1.dir/__/__/__/mesh/core/src/core_tx_adv.c.obj
 .text.packet_alloc
                0x00038e64       0x58 examples/pb_remote/client/CMakeFiles/pb_remote_client_nrf52832_xxAA_s132_6.1.1.dir/__/__/__/mesh/core/src/core_tx_adv.c.obj
 .text.adv_tx_complete_callback
                0x00038ebc       0x20 examples/pb_remote/client/CMakeFiles/pb_remote_client_nrf52832_xxAA_s132_6.1.1.dir/__/__/__/mesh/core/src/core_tx_adv.c.obj
 .text.mesh_opt_core_adv_set
                0x00038edc       0x22 examples/pb_remote/client/CMakeFiles/pb_remote_client_nrf52832_xxAA_s132_6.1.1.dir/__/__/__/mesh/core/src/core_tx_adv.c.obj
                0x00038edc                mesh_opt_core_adv_set
 .text.mesh_opt_core_adv_get
                0x00038efe       0x22 examples/pb_remote/client/CMakeFiles/pb_remote_client_nrf52832_xxAA_s132_6.1.1.dir/__/__/__/mesh/core/src/core_tx_adv.c.obj
                0x00038efe                mesh_opt_core_adv_get
 .text.core_tx_adv_init
                0x00038f20       0x60 examples/pb_remote/client/CMakeFiles/pb_remote_client_nrf52832_xxAA_s132_6.1.1.dir/__/__/__/mesh/core/src/core_tx_adv.c.obj
                0x00038f20                core_tx_adv_init
 .text.core_tx_adv_is_enabled
                0x00038f80       0x20 examples/pb_remote/client/CMakeFiles/pb_remote_client_nrf52832_xxAA_s132_6.1.1.dir/__/__/__/mesh/core/src/core_tx_adv.c.obj
                0x00038f80                core_tx_adv_is_enabled
 .text.mesh_mem_init
                0x00038fa0        0x2 examples/pb_remote/client/CMakeFiles/pb_remote_client_nrf52832_xxAA_s132_6.1.1.dir/__/__/__/mesh/core/src/mesh_mem_stdlib.c.obj
                0x00038fa0                mesh_mem_init
 .text.mesh_mem_alloc
                0x00038fa2        0x4 examples/pb_remote/client/CMakeFiles/pb_remote_client_nrf52832_xxAA_s132_6.1.1.dir/__/__/__/mesh/core/src/mesh_mem_stdlib.c.obj
                0x00038fa2                mesh_mem_alloc
 .text.mesh_mem_free
                0x00038fa6        0x4 examples/pb_remote/client/CMakeFiles/pb_remote_client_nrf52832_xxAA_s132_6.1.1.dir/__/__/__/mesh/core/src/mesh_mem_stdlib.c.obj
                0x00038fa6                mesh_mem_free
 *fill*         0x00038faa        0x2 
 .text.ad_listener_subscribe
                0x00038fac       0x5c examples/pb_remote/client/CMakeFiles/pb_remote_client_nrf52832_xxAA_s132_6.1.1.dir/__/__/__/mesh/bearer/src/ad_listener.c.obj
                0x00038fac                ad_listener_subscribe
 .text.ad_listener_process
                0x00039008       0x68 examples/pb_remote/client/CMakeFiles/pb_remote_client_nrf52832_xxAA_s132_6.1.1.dir/__/__/__/mesh/bearer/src/ad_listener.c.obj
                0x00039008                ad_listener_process
 .text.adtype_filter_handle
                0x00039070       0x64 examples/pb_remote/client/CMakeFiles/pb_remote_client_nrf52832_xxAA_s132_6.1.1.dir/__/__/__/mesh/bearer/src/ad_type_filter.c.obj
 .text.bearer_adtype_filtering_set
                0x000390d4       0x20 examples/pb_remote/client/CMakeFiles/pb_remote_client_nrf52832_xxAA_s132_6.1.1.dir/__/__/__/mesh/bearer/src/ad_type_filter.c.obj
                0x000390d4                bearer_adtype_filtering_set
 .text.bearer_adtype_add
                0x000390f4       0x20 examples/pb_remote/client/CMakeFiles/pb_remote_client_nrf52832_xxAA_s132_6.1.1.dir/__/__/__/mesh/bearer/src/ad_type_filter.c.obj
                0x000390f4                bearer_adtype_add
 .text.bearer_adtype_mode_set
                0x00039114       0x18 examples/pb_remote/client/CMakeFiles/pb_remote_client_nrf52832_xxAA_s132_6.1.1.dir/__/__/__/mesh/bearer/src/ad_type_filter.c.obj
                0x00039114                bearer_adtype_mode_set
 .text.tx_complete_event_callback
                0x0003912c       0x24 examples/pb_remote/client/CMakeFiles/pb_remote_client_nrf52832_xxAA_s132_6.1.1.dir/__/__/__/mesh/bearer/src/advertiser.c.obj
 .text.set_gap_addr_type
                0x00039150       0x26 examples/pb_remote/client/CMakeFiles/pb_remote_client_nrf52832_xxAA_s132_6.1.1.dir/__/__/__/mesh/bearer/src/advertiser.c.obj
 .text.broadcast_complete_cb
                0x00039176       0x46 examples/pb_remote/client/CMakeFiles/pb_remote_client_nrf52832_xxAA_s132_6.1.1.dir/__/__/__/mesh/bearer/src/advertiser.c.obj
 .text.schedule_first_time
                0x000391bc       0x28 examples/pb_remote/client/CMakeFiles/pb_remote_client_nrf52832_xxAA_s132_6.1.1.dir/__/__/__/mesh/bearer/src/advertiser.c.obj
 .text.timeout_event
                0x000391e4      0x114 examples/pb_remote/client/CMakeFiles/pb_remote_client_nrf52832_xxAA_s132_6.1.1.dir/__/__/__/mesh/bearer/src/advertiser.c.obj
 .text.advertiser_init
                0x000392f8        0xc examples/pb_remote/client/CMakeFiles/pb_remote_client_nrf52832_xxAA_s132_6.1.1.dir/__/__/__/mesh/bearer/src/advertiser.c.obj
                0x000392f8                advertiser_init
 .text.advertiser_enable
                0x00039304       0x2a examples/pb_remote/client/CMakeFiles/pb_remote_client_nrf52832_xxAA_s132_6.1.1.dir/__/__/__/mesh/bearer/src/advertiser.c.obj
                0x00039304                advertiser_enable
 .text.advertiser_disable
                0x0003932e        0xa examples/pb_remote/client/CMakeFiles/pb_remote_client_nrf52832_xxAA_s132_6.1.1.dir/__/__/__/mesh/bearer/src/advertiser.c.obj
                0x0003932e                advertiser_disable
 .text.advertiser_packet_alloc
                0x00039338       0x76 examples/pb_remote/client/CMakeFiles/pb_remote_client_nrf52832_xxAA_s132_6.1.1.dir/__/__/__/mesh/bearer/src/advertiser.c.obj
                0x00039338                advertiser_packet_alloc
 .text.advertiser_packet_send
                0x000393ae       0x52 examples/pb_remote/client/CMakeFiles/pb_remote_client_nrf52832_xxAA_s132_6.1.1.dir/__/__/__/mesh/bearer/src/advertiser.c.obj
                0x000393ae                advertiser_packet_send
 .text.advertiser_packet_discard
                0x00039400       0x1e examples/pb_remote/client/CMakeFiles/pb_remote_client_nrf52832_xxAA_s132_6.1.1.dir/__/__/__/mesh/bearer/src/advertiser.c.obj
                0x00039400                advertiser_packet_discard
 .text.advertiser_address_set
                0x0003941e       0x3c examples/pb_remote/client/CMakeFiles/pb_remote_client_nrf52832_xxAA_s132_6.1.1.dir/__/__/__/mesh/bearer/src/advertiser.c.obj
                0x0003941e                advertiser_address_set
 .text.advertiser_interval_set
                0x0003945a       0x40 examples/pb_remote/client/CMakeFiles/pb_remote_client_nrf52832_xxAA_s132_6.1.1.dir/__/__/__/mesh/bearer/src/advertiser.c.obj
                0x0003945a                advertiser_interval_set
 .text.advertiser_tx_power_set
                0x0003949a       0x14 examples/pb_remote/client/CMakeFiles/pb_remote_client_nrf52832_xxAA_s132_6.1.1.dir/__/__/__/mesh/bearer/src/advertiser.c.obj
                0x0003949a                advertiser_tx_power_set
 .text.advertiser_flush
                0x000394ae       0x1e examples/pb_remote/client/CMakeFiles/pb_remote_client_nrf52832_xxAA_s132_6.1.1.dir/__/__/__/mesh/bearer/src/advertiser.c.obj
                0x000394ae                advertiser_flush
 .text.advertiser_address_default_get
                0x000394cc       0x38 examples/pb_remote/client/CMakeFiles/pb_remote_client_nrf52832_xxAA_s132_6.1.1.dir/__/__/__/mesh/bearer/src/advertiser.c.obj
                0x000394cc                advertiser_address_default_get
 .text.advertiser_instance_init
                0x00039504       0x98 examples/pb_remote/client/CMakeFiles/pb_remote_client_nrf52832_xxAA_s132_6.1.1.dir/__/__/__/mesh/bearer/src/advertiser.c.obj
                0x00039504                advertiser_instance_init
 .text.notify_stop
                0x0003959c       0x14 examples/pb_remote/client/CMakeFiles/pb_remote_client_nrf52832_xxAA_s132_6.1.1.dir/__/__/__/mesh/bearer/src/bearer_handler.c.obj
 .text.action_in_progress
                0x000395b0       0x30 examples/pb_remote/client/CMakeFiles/pb_remote_client_nrf52832_xxAA_s132_6.1.1.dir/__/__/__/mesh/bearer/src/bearer_handler.c.obj
 .text.action_timer_start
                0x000395e0       0x88 examples/pb_remote/client/CMakeFiles/pb_remote_client_nrf52832_xxAA_s132_6.1.1.dir/__/__/__/mesh/bearer/src/bearer_handler.c.obj
 .text.action_switch
                0x00039668      0x104 examples/pb_remote/client/CMakeFiles/pb_remote_client_nrf52832_xxAA_s132_6.1.1.dir/__/__/__/mesh/bearer/src/bearer_handler.c.obj
 .text.end_handle
                0x0003976c       0x44 examples/pb_remote/client/CMakeFiles/pb_remote_client_nrf52832_xxAA_s132_6.1.1.dir/__/__/__/mesh/bearer/src/bearer_handler.c.obj
 .text.TIMER2_IRQHandler
                0x000397b0       0x58 examples/pb_remote/client/CMakeFiles/pb_remote_client_nrf52832_xxAA_s132_6.1.1.dir/__/__/__/mesh/bearer/src/bearer_handler.c.obj
                0x000397b0                TIMER2_IRQHandler
 .text.bearer_handler_init
                0x00039808       0x44 examples/pb_remote/client/CMakeFiles/pb_remote_client_nrf52832_xxAA_s132_6.1.1.dir/__/__/__/mesh/bearer/src/bearer_handler.c.obj
                0x00039808                bearer_handler_init
 .text.bearer_handler_wake_up
                0x0003984c       0x2c examples/pb_remote/client/CMakeFiles/pb_remote_client_nrf52832_xxAA_s132_6.1.1.dir/__/__/__/mesh/bearer/src/bearer_handler.c.obj
                0x0003984c                bearer_handler_wake_up
 .text.bearer_handler_start
                0x00039878       0x1c examples/pb_remote/client/CMakeFiles/pb_remote_client_nrf52832_xxAA_s132_6.1.1.dir/__/__/__/mesh/bearer/src/bearer_handler.c.obj
                0x00039878                bearer_handler_start
 .text.bearer_handler_action_enqueue
                0x00039894       0x6c examples/pb_remote/client/CMakeFiles/pb_remote_client_nrf52832_xxAA_s132_6.1.1.dir/__/__/__/mesh/bearer/src/bearer_handler.c.obj
                0x00039894                bearer_handler_action_enqueue
 .text.bearer_handler_action_end
                0x00039900       0x48 examples/pb_remote/client/CMakeFiles/pb_remote_client_nrf52832_xxAA_s132_6.1.1.dir/__/__/__/mesh/bearer/src/bearer_handler.c.obj
                0x00039900                bearer_handler_action_end
 .text.bearer_handler_radio_irq_handler
                0x00039948       0x70 examples/pb_remote/client/CMakeFiles/pb_remote_client_nrf52832_xxAA_s132_6.1.1.dir/__/__/__/mesh/bearer/src/bearer_handler.c.obj
                0x00039948                bearer_handler_radio_irq_handler
 .text.bearer_handler_timer_irq_handler
                0x000399b8       0x34 examples/pb_remote/client/CMakeFiles/pb_remote_client_nrf52832_xxAA_s132_6.1.1.dir/__/__/__/mesh/bearer/src/bearer_handler.c.obj
                0x000399b8                bearer_handler_timer_irq_handler
 .text.bearer_handler_on_ts_begin
                0x000399ec       0x38 examples/pb_remote/client/CMakeFiles/pb_remote_client_nrf52832_xxAA_s132_6.1.1.dir/__/__/__/mesh/bearer/src/bearer_handler.c.obj
                0x000399ec                bearer_handler_on_ts_begin
 .text.bearer_handler_on_ts_end
                0x00039a24       0x70 examples/pb_remote/client/CMakeFiles/pb_remote_client_nrf52832_xxAA_s132_6.1.1.dir/__/__/__/mesh/bearer/src/bearer_handler.c.obj
                0x00039a24                bearer_handler_on_ts_end
 .text.bearer_handler_on_ts_session_closed
