:020000022000DC
:1060000000FD0020C5A80300EDA80300EFA80300D1
:10601000F1A80300F3A80300F5A8030000000000A6
:10602000000000000000000000000000F7A80300CE
:10603000F9A8030000000000FBA80300FDA803006E
:10604000FFA80300FFA80300FFA80300FFA80300A8
:10605000FFA80300FFA80300E5720200FFA80300E9
:10606000FFA80300FFA80300B1970300FFA80300E7
:10607000FFA80300FFA80300FFA80300FFA8030078
:10608000FFA80300C90F03008D550300FFA80300FC
:1060900099100300FFA80300A9770200FFA80300DE
:1060A000FFA80300FFA80300FFA80300FFA8030048
:1060B000FFA80300FFA8030000000000000000008C
:1060C000FFA80300FFA80300FFA80300FFA8030028
:1060D000FFA80300FFA80300FFA8030000000000C2
:1060E00000000000000000000000000000000000B0
:1060F00000000000000000000000000000000000A0
:10610000000000000000000000000000000000008F
:10611000000000000000000000000000000000007F
:10612000000000000000000000000000000000006F
:10613000000000000000000000000000000000005F
:10614000000000000000000000000000000000004F
:10615000000000000000000000000000000000003F
:10616000000000000000000000000000000000002F
:10617000000000000000000000000000000000001F
:10618000000000000000000000000000000000000F
:1061900000000000000000000000000000000000FF
:1061A00000000000000000000000000000000000EF
:1061B00000000000000000000000000000000000DF
:1061C00000000000000000000000000000000000CF
:1061D00000000000000000000000000000000000BF
:1061E00000000000000000000000000000000000AF
:1061F000000000000000000000000000000000009F
:1062000010B5054C237833B9044B13B10448AFF3F0
:1062100000800123237010BDF02E0020000000003C
:1062200078DC030008B5034B1BB103490348AFF307
:10623000008008BD00000000F42E002078DC030080
:10624000154B002B08BF134B9D46A3F5803A002148
:106250008B460F461348144A121A15F037FF0F4B9E
:10626000002B00D098470E4B002B00D09847002001
:10627000002104000D000D48002802D00C48AFF3A7
:10628000008015F0D5FE2000290000F05DFD15F01E
:10629000BBFE00BF0000080000FD00200000000061
:1062A00000000000F02E0020F85100200000000047
:1062B0000000000041DF704738B5174A1748002139
:1062C00002F09EFA20B1164A40F24F1114F025FB5D
:1062D000144D124C2988208808F0E0FA20B1104AA9
:1062E0004FF4A87114F019FB2988208808F048FBA6
:1062F00020B10B4A40F2511114F00FFB0621208807
:1063000008F0B2FB30B1064A4FF4A971BDE838403D
:1063100014F003BB38BD00BF29630200883200209F
:10632000CAC403000C2F0020F0B5704D02782B6812
:106330000A2AC7B0044603F480431AD00B2A44D07B
:10634000042A40F0AC8063B3694B1B68032B28DD43
:106350002F21684815F08AFF70B32F21654815F08A
:1063600085FF411C644B654AD3F804350092E42252
:1063700014E0B3B15E4B1B68032B12DD2F215D4887
:1063800015F074FF78B12F215A4815F06FFF411CAA
:10639000594B5B4AD3F804350092E022042010F0F8
:1063A0005BF847B0F0BD5C21524815F05FFF08B1C3
:1063B0005C21E9E74F49EBE75C214E4815F056FFB9
:1063C00008B15C21CAE74B49CCE7002B30D0484BE1
:1063D0001B68032B2CDD4B4B4768196805AE002367
:1063E000FA5C100902F00F02085C06F81300885CE2
:1063F00006EB43020133102B5070F1D100232F2103
:106400003C4886F8203015F031FF002835D02F2188
:10641000384815F02BFF411C374B3B4AD3F8043565
:1064200001923A4A00920296E822042010F014F8F1
:106430002B685B0418D52E4B1B68032B14DD2F2112
:106440002C4815F013FF08B32F212A4815F00EFF32
:10645000411C294B227AD3F8043501922C4A009230
:106460000420E9220FF0F8FF207A2A4B61681022FD
:1064700003EB001015F01FFE93E75C211D4815F09B
:10648000F5FE08B15C21C3E71A49C5E75C2119484C
:1064900015F0ECFE08B15C21D7E71649D9E7002BCF
:1064A0003FF47FAF124B1B68032B7FF77AAF2F218E
:1064B000104815F0DBFE80B12F210E4815F0D6FEF6
:1064C000411C0D4B2278D3F804350192124A0092F8
:1064D0000420EE220FF0C0FF63E75C21054815F0B1
:1064E000C5FE08B15C21E8E70249EAE7602E00201A
:1064F0005C2E0020CAC40300001001403DC603000A
:106500001BC60300642E002059C6030069C60300A1
:1065100071C60300C832002080C6030030B51E4B90
:106520008BB00022039303F1F87303F6F523049371
:1065300003F17143A3F56E43059303F19F5303F5F4
:10654000B71303F60F430693144B07921B88ADF85D
:1065500022309DF82430ADF8202003F0FE030446DD
:106560000D4662F341030E490E488DF8243002F0C7
:10657000A3FC18B10C4A8C2114F0CFF9009503ABA1
:1065800005222146094802F099FC18B1064A8D21DE
:1065900014F0C3F90BB030BD50425F52A02D002063
:1065A0002A2F002048320020CAC4030014310020E2
:1065B0002DE9F043A24C2378012B87B0254600F04B
:1065C0005D8106D3022B00F0B08178460BF076F89F
:1065D00008E0312833D008DC0A2803D00D2801D088
:1065E00001300DD107B0BDE8F083332800F09B8067
:1065F000C0F28B80342800F0C680352800F0F0808F
:10660000904B1B685904EDD58F4B1B68032BE9DDBC
:106610002F218E4815F02AFE002800F008812F2136
:106620008A4815F023FE411C894B8A4AD3F8043569
:10663000009204204FF495720FF00EFFD2E7864BC4
:1066400001221A70CEE704A937F814004FEA440972
:1066500009F05AFD20B17D4A40F2051114F05DF9B0
:106660009DF81030012B02D078460BF027F83368E4
:106670005B041DD5744B1B68032B19DD2F21734858
:1066800015F0F4FD002837D02F21704815F0EEFDED
:10669000411C37F80920D8F804350292BDF81220C1
:1066A00001926E4A0092042040F209120FF0D4FECB
:1066B00001346B4B634E1B68A342C4D833685F043C
:1066C00017D5614B1B68032B13DD2F215F4815F095
:1066D000CDFDF8B12F215D4815F0C8FD411C5C4B84
:1066E000604AD3F804350092042040F20B120FF0F8
:1066F000B3FE01232B7075E75C21544815F0B6FDFD
:1067000008B15C21C1E75149C3E70024564FDFF8C7
:106710004081CEE75C214D4815F0A8FD08B15C2111
:10672000D9E74A49DBE7514802F0AAF804460028B5
:106730003FF458AF434B1B685E047FF553AF424BA9
:106740001B68002B7FF74EAF2F21404815F08EFDC0
:1067500080B12F213D4815F089FD411C3C4B444A36
:10676000D3F804350092019440F2131201200FF087
:1067700073FE37E75C21354815F078FD08B15C21E0
:10678000E8E73249EAE7394802F09CF80446002875
:106790003FF428AF2B4B1B685D047FF523AF2A4BDA
:1067A0001B68002B7FF71EAF2F21284815F05EFDD8
:1067B00068B12F21254815F059FD411C244B2D4A65
:1067C000D3F804350092019440F21B12CEE75C210D
:1067D0001E4815F04BFD08B15C21EBE71B49EDE7C6
:1067E000184B1B68580417D5174B1B68032B13DD78
:1067F0002F21164815F03AFD80B12F21134815F0CE
:1068000035FD411C124B1C4AD3F80435009204207C
:106810004FF490720FF020FE02236BE75C210B48CF
:1068200015F024FD08B15C21E8E70849EAE75C219E
:10683000064815F01BFD08B15C21F1E60349F3E6BB
:10684000F8320020602E00205C2E0020CAC4030015
:10685000001001400BC30300162F00208EC603005A
:10686000242F0020A8C603000E2F0020883200200D
:10687000CFC60300FAC6030026C703003038092834
:106880003FF6B0AE2F4B81B2188807F0F7FD2E4BC4
:1068900004461B6828B35A0418D52C4B1B68002BE0
:1068A00014DD2F212A4815F0E1FC88B12F2128485A
:1068B00015F0DCFC411C274B274AD3F80435009225
:1068C00001944FF49B7201200FF0C6FD002311E7E5
:1068D0005C211F4815F0CAFC08B15C21E7E71C49A0
:1068E000E9E75B04F2D5194B1B68032BEEDD2F2182
:1068F000174815F0BBFC78B12F21154815F0B6FCF0
:10690000411C144B154AD3F80435009204204FF46F
:106910009D720FF0A1FDD9E75C210D4815F0A6FC92
:1069200008B15C21E9E70A49EBE7303802283FF675
:1069300059AE0B4B042103EB0010FFF7EFFD0023D2
:1069400023704FE688320020602E00205C2E00204D
:10695000CAC403000010014048C7030071C7030008
:10696000C83200202DE9F0410378C6B004460A2B56
:1069700015D8DFE813F00B0017003C0014001400DA
:10698000140014009F01140021015E00A34D29781A
:10699000012904D10430FFF7C1FD00232B7046B05C
:1069A000BDE8F0819E4B1B685B04F8D59D4B1B68CE
:1069B000032BF4DD2F219C4815F058FC70B12F21DA
:1069C000994815F053FC411C984B994AD3F804356B
:1069D00000929D2204200FF03FFDE0E75C219248E9
:1069E00015F044FC08B15C21EAE78F49ECE78C4BD9
:1069F0001B685F04D3D58B4B1B68032BCFDD2F2186
:106A0000894815F033FC58B12F21874815F02EFC2A
:106A1000411C864B874AD3F804350092A122D9E75E
:106A20005C21814815F022FC08B15C21EDE77E492C
:106A3000EFE77B4F3B685E041ED57A4B1B68032B48
:106A40001ADD2F21784815F011FC002800F09980FC
:106A50002F21754815F00AFC411C774A734B1288A8
:106A6000D3F804350292E268D28A0192734A009206
:106A70000420A6220FF0F0FC3B685D0430D5694B82
:106A80001B68032B2CDD6E4BA668196805AD00232F
:106A9000F25C100902F00F02085C05F81300885C34
:106AA00005EB43020133102B5070F1D100232F214D
:106AB0005D4885F8203015F0D9FB00286AD02F21D9
:106AC000594815F0D3FB411C584B5E4AD3F80435A6
:106AD00001925D4A00920295A72204200FF0BCFCAF
:106AE0005A4DDFF880812968594E08EB4101308802
:106AF00009F09EFA18B14C4AAA2113F00EFF2B6838
:106B0000544AE0684C49C08A0988013302EB4303C8
:106B1000A26809F015FE18B1434AAE2113F0FDFE3C
:106B20003B6858041ED53F4B1B68032B1ADD2F21F1
:106B30003D4815F09BFB002835D02F213A4815F031
:106B400095FB411C2A68394B38F81220D3F80435DC
:106B50000292E268D28A01923F4A00920420B32254
:106B60000FF07AFC2B683D4A01332B601288338882
:106B7000C82113444FF4F0100422338000F054FB7A
:106B80000DE75C21284815F071FB08B15C2160E736
:106B9000254962E75C21244815F068FB08B15C21B7
:106BA0008EE7214990E75C211F4815F05FFB08B193
:106BB0005C21C3E71C49C5E710230022012140687E
:106BC00002F0A8F9164B054600284DD01B68590461
:106BD0007FF5E5AE134B1B68002B7FF7E0AE2F214E
:106BE000114815F043FB78B12F210F4815F03EFBFB
:106BF000411C0E4B1A4AD3F8043500920195C3226A
:106C000001200FF029FCCAE65C21074815F02EFB95
:106C100008B15C21E9E70449EBE700BF162F00202B
:106C2000602E00205C2E0020CAC40300001001402A
:106C3000F2C4030017C50300222F002037C503004C
:106C4000642E00206BC5030069C60300242F0020BA
:106C5000A02D0020182F002073C50300282F00202E
:106C6000A5C503000E2F00202F4A1B68217A118032
:106C70005A047FF594AE2D4B1B68032B7FF78FAE24
:106C80002F212B4815F0F2FA58B12F21284815F082
:106C9000EDFA411C274B284AD3F804350092C8224C
:106CA00098E65C21224815F0E1FA08B15C21EDE795
:106CB0001F49EFE7214B05AD03F11006186859682D
:106CC0002A4603C20833B3421546F7D1102205A95C
:106CD000606802F02BF918B1154AD12113F01DFE9E
:106CE000174B1B685B047FF55AAE104B1B68032BD8
:106CF0007FF755AE2F210E4815F0B8FA58B12F2165
:106D00000B4815F0B3FA411C0A4B0E4AD3F8043570
:106D10000092D2225EE65C21054815F0A7FA08B180
:106D20005C21EDE70249EFE7282F00205C2E0020D0
:106D3000CAC4030000100140D9C50300ECC203001F
:106D4000602E0020F6C5030000B5AB4CAB4A4FF4F3
:106D5000C04093B004210FF063FB2368580419D599
:106D6000A74B1B68032B15DD2F21A64815F07EFAD3
:106D7000002800F038812F21A24815F077FA411C35
:106D8000A14BA24AD3F804350092042040F26D12C0
:106D90000FF062FB0AF0CAFA20B19A4A40F26F1172
:106DA00013F0BBFD00F072FA00F060FB002120221E
:106DB00009A815F08BF901238DF8243007238DF8ED
:106DC000273006238DF82C300DF10F01904B1193D5
:106DD00009A800F07BF920B18A4A4FF4AF7113F093
:106DE0009CFD9DF80F1039BB102205A815F06EF917
:106DF000884B1868049004A809F0CEF820B1814AA5
:106E00004FF4B27113F089FD834A8449002009F0E0
:106E1000D7FA20B17B4A40F2651113F07EFD7E491E
:106E20007F4B098805AA002009F018FD20B1754A9A
:106E30004FF4B37113F071FD64217A4800F08AF9C0
:106E4000794A1068516809AB03C31189927A198095
:106E50009A70764B0093764A7649774809AB01F0F1
:106E6000FEFF18B1674A7B2113F057FD734802F00B
:106E7000E9FF0146704802F00BF818B1614A7C2125
:106E800013F04BFD6E4801F03FFD01466A4801F0EA
:106E9000FFFF18B15B4A7D2113F03FFD634802F00C
:106EA000BFF818B1574A7E2113F037FD654D0AF03F
:106EB0003DFC00F047FA0423294663482B6009F0A3
:106EC00081F920B14F4A40F27F1113F026FD2B6863
:106ED000C3B1013B5C4A09A932F8130009F014F967
:106EE00020B1484A4FF4C27113F017FD9DF82430C9
:106EF000012B02D078460AF0E1FBBDF82630534A58
:106F000010331380236859041CD53D4B1B68032B99
:106F100018DD2F213B4815F0A9F9002800F09E80CC
:106F20002F21384815F0A2F9411C484A364B1288E7
:106F3000D3F804350192464A009204204FF4C672F9
:106F40000FF08AFA23685A041BD52D4B1B68032BBC
:106F500017DD2F212B4815F089F9002800F08780D4
:106F60002F21284815F082F9411C274B2A68D3F8B5
:106F700004350192374A0092042040F28D120FF03E
:106F80006BFA00F089F820B11E4A40F28F1113F01D
:106F9000C4FC23685B0418D5194B1B68032B14DD54
:106FA0002F21184815F062F9002869D02F211548C3
:106FB00015F05CF9411C144B274AD3F804350092B4
:106FC000042040F291120FF047FA00214FF4F01024
:106FD00000F020F90222C8214FF4F01000F024F94B
:106FE000FFF768F9FCE75C21064815F03FF908B1A6
:106FF0005C21C1E60349C3E6602E0020F56303006F
:107000005C2E0020CAC403000010014036C40300F7
:10701000B9620200FCC20300222F002026C4030034
:107020000C2F0020B165020000C303006569020057
:107030002A2F002048320020143100204C2F00203D
:1070400088320020242F00200E2F0020A02D0020A9
:107050007AC40300A5C403000BC303005C210D48E0
:1070600015F004F908B15C215BE70A495DE75C2192
:10707000084815F0FBF808B15C2172E7054974E790
:107080005C21044815F0F2F808B15C218FE7014952
:1070900091E700BFCAC403000DF0D2B908B511F0E2
:1070A0009FFA07F0D2F808F009FFBDE808400CF09D
:1070B000EFBB07B501A808F0ABFFBDF80400003036
:1070C00018BF012003B05DF804FB000073B50E4645
:1070D000054660B30DF040F9044628BB08F03EFFBA
:1070E00007F010FE286905F0D9FC0446E0B92B7FB3
:1070F0000193AB69009301466B690E484FF6FF722E
:1071000005F04AFF044678B92B6A03B1984711F09D
:107110007FF908F043FE06F0EDFD08B106F088FCAB
:10712000FFF7C7FF06B13070204602B070BD0E24D5
:10713000FAE700BFFC32002010B5054C226832B1DE
:1071400013F01CFD002802DB23689847F8E710BD08
:1071500054330020154B164A10B50C461860012117
:1071600014480AF03DF918B1134A4A2113F0D5FB2F
:10717000610C0023E00341F26F728B4208BF824230
:1071800010D24FF47A72002314F0BEFD01460022A3
:107190000A480AF037F938B1074A4B21BDE81040D8
:1071A00013F0BBBB0521F2E710BD00BF5433002034
:1071B0003971020080C7030084C7030058330020E0
:1071C00070B5104C206808B913F09AFB4FF0A04539
:1071D0000D4ED5F8043532685340C5F804352368A0
:1071E000013B236063B909480AF050F93268D5F8C9
:1071F000043523EA0203064A12681343C5F804352E
:1072000070BD00BF783300207C3300208033002025
:10721000A83300204FF0A04311B1C3F80C0570470C
:10722000C3F8080570470000F8B52AB3132923D91D
:10723000124B134D5200013A4FF0A0441A602860DF
:10724000D4F8043518400F4B4FF4FA761860002735
:107250004FF40040E0FB01674FF47A7200233046A0
:10726000394614F051FD0022014607480AF0CAF8D9
:1072700010B92B68C4F80C35F8BD00BF7833002076
:107280007C330020A83300208033002008B54FF065
:10729000A04303224FF40031C3F84427C3F8081574
:1072A0004FF48021C3F84827C3F808154FF4002194
:1072B000C3F84C27C3F80815C3F850274FF48012C1
:1072C000C3F808250121054A05480AF089F818B1D4
:1072D000BDE8084013F014BB08BD00BFC171020037
:1072E000A8C70300124B70B50024124E124DC3F80C
:1072F0007C414FF0A043A15DD3F8102501238B40C2
:10730000934311D00D49D5F804250B68981A48BF4E
:10731000D01A43F23333984206D9D5F804350B60BE
:10732000074B20461B6898470134042CE1D170BDFF
:1073300000600040ACC7030000100140A4330020EF
:10734000A033002070B50446CEB0002864D03C4D78
:107350002A6852042FD53B4B1B68032B2BDD3A4B7D
:107360000DAE19680023E25C100902F00F02085C00
:1073700006F81300885C06EB43020133102B5070B3
:10738000F1D100232F21314886F8203014F06EFF10
:10739000002843D02F212D4814F068FF411C2C4BAE
:1073A0002C4AD3F8043501922B4A009202964122CE
:1073B00004200FF051F82B685B042DD5214B1B687E
:1073C000032B29DD2F21214814F050FF00282ED057
:1073D0002F211E4814F04AFF411C1D4BE27BD3F8BD
:1073E00004350B92A27B0A92627B0992227B08925F
:1073F000E27A0792A27A0692627A0592227A04923F
:10740000E2880392A288029222680192134A0092B3
:10741000042046220FF020F84EB070BD5C210B48CE
:1074200014F024FF08B15C21B5E70849B7E75C21F7
:10743000064814F01BFF08B15C21CAE70349CCE7FA
:10744000602E00205C2E0020642E0020B0C70300B8
:1074500000100140D8C7030069C60300EAC7030053
:1074600060DF704769DF70470DF044B810B588B031
:1074700000F04AF908B113F043FA2B4B0393039B36
:1074800004930C22002105A814F020FE0023049A86
:107490008DF8143005A90120FFF7E4FF08B113F0BF
:1074A0002FFA0C22002105A814F010FEF823049AEC
:1074B000059305A9A120FFF7D5FF08B113F020FA25
:1074C00004A8FFF7CDFF039B049A9A4204461CD000
:1074D000164B1B685B0418D5154B1B68012B14DD7C
:1074E0002F21144814F0C2FEA8B12F21114814F026
:1074F000BDFE411C104B049AD3F8043501920F4A8B
:1075000000920220A2220EF0A7FF14B1204613F031
:10751000F7F908B010BD5C21064814F0A7FE08B1C9
:107520005C21E3E70349E5E7A02D0020602E002061
:107530005C2E00202AC80300001001405AC8030036
:1075400070B5EFF3108672B60C4A946801239CB9AB
:1075500093600B4B0B4DD3F8801029401160C3F89A
:107560008050D3F8841051604FF0FF32C3F884206C
:10757000047006B962B670BD0370FAE74C51002082
:1075800000E100E0FC06FFBD10B5084B9A685AB157
:1075900050B9EFF3108172B6054A1C6814605C683C
:1075A0005460986001B962B610BD00BF4C51002014
:1075B00000E100E001600B6843604A68934204BF49
:1075C000002343607047436843B1026891680B44ED
:1075D00043605268934204BF0023436070474BDF0F
:1075E000704700001FB50D4C01A8FFF7F8FF70B9F8
:1075F000214602A8FFF7DEFF039B002BF4D0019881
:10760000D3E90021904702A8FFF7DDFFF4E7052842
:1076100001D013F075F904B010BD00BF94C8030089
:1076200061DF704730B5114B1B7891B0E3B1104D5D
:1076300034240DF1020103A8ADF80240FFF7F0FF7A
:1076400070B9294601A8FFF7B5FF029B002BF0D0C7
:1076500003A8D3E90021904701A8FFF7B4FFF4E79E
:10766000052801D013F04CF911B030BDAC33002027
:10767000A0C8030010DF704713B5044609496846E7
:10768000FFF798FF019808B902B010BDD0E90031AA
:107690002046984718B16846FFF795FFF2E711209A
:1076A000F2E700BFB0C8030013B5044607496846B7
:1076B000FFF780FF019B0BB902B010BD2046D3E954
:1076C000002190476846FFF77EFFF3E7C8C8030034
:1076D0000B4991F816335A09EC231341DB0706D501
:1076E000084B9A683AB94FF480030B60704742F236
:1076F000020013F005B91A6842F480021A6070475C
:1077000000E100E04C510020F7B5184F3C785CBB1D
:10771000174E012520463570FFF7AEFF112820D007
:107720002046FFF7C1FF134B1868019002A800F82C
:10773000054DFFF705FF104901A8FFF79BFF044621
:10774000B0FA80F0400938709DF80300FFF71CFF85
:107750003CB90A4B34701C70FFF7BAFF2846FFF79C
:10776000A3FF204603B0F0BD0824FAE7AE330020A3
:10777000AD330020ACC80300BD140300AF330020BC
:1077800007B508496846FFF715FF019B13B903B019
:107790005DF804FBD3E9002090476846FFF713FF2C
:1077A000F3E700BFBCC80300FFF7EABF13B5154BF2
:1077B0001B689B04044619D5134B1B68012B15DD70
:1077C0002F21124814F052FD98B12F210F4814F0C8
:1077D0004DFD411C0E4B227ED3F8043501920D4A1B
:1077E0000092022040F261120EF036FE207E02B0BE
:1077F00010BD5C21054814F039FD08B15C21E5E7B6
:107800000249E7E7602E00205C2E00200BCC03002D
:107810000010014043CC03001FB50023024601A81D
:10782000CDE9013303938DF80410904705B05DF85E
:1078300004FB00007FB5067E4B68042E04465D689D
:107840000ED12B78002B36D003690221DB6804307F
:107850009847E06B3146FFF7DFFF012004B070BDB1
:10786000164B1B689B041BD5154B1B68032B17DDA0
:107870002F21144814F0FAFCA0B12F21114814F064
:10788000F5FC411C104B227ED3F8043502922A7875
:1078900001920E4A0092042040F283220EF0DCFD99
:1078A000207EDBE75C21074814F0E0FC08B15C2196
:1078B000E4E70449E6E70220D0E700BF602E00209D
:1078C0005C2E00200BCC030000100140A5CB030070
:1078D00037B50446007E4B6802285D6829D003282E
:1078E0007BD0754B01281B6840F0C0802A7803F4D8
:1078F000005302B3012A43D0D3B1704B1B68042B51
:1079000016DD2F216E4814F0B1FC00285CD02F2129
:107910006B4814F0ABFC411C6A4B2A78D3F8043551
:107920000192694A009205204FF4DE720EF094FD38
:10793000207E03B030BD002BFBD0604B1B68042BB6
:10794000F7DD2F215E4814F091FC80B12F215C48B7
:1079500014F08CFC411C5B4B5C4AD3F8043500925C
:1079600005204FF4DA720EF077FD0120E1E75C218B
:10797000534814F07BFC08B15C21E8E75049EAE782
:10798000BBB14E4B1B68042B13DD2F214C4814F068
:107990006DFC80B12F214A4814F068FC411C494B12
:1079A0004B4AD3F80435009205204FF4DC720EF0F8
:1079B00053FD0220BDE75C21414814F057FC08B19B
:1079C0005C21E8E73E49EAE75C213D4814F04EFCC3
:1079D00008B15C219CE73A499EE72B78052B1DD81E
:1079E00001A252F823F000BF6B790200017A020075
:1079F0000B7A0200157A0200197A0200B3790200AC
:107A00000621E06BFFF708FFD3E70821E06BFFF7E3
:107A100003FFAAE70521F9E70921F7E7264B1B68D1
:107A20009A04A2D5254B1B68032B9EDD2F212448E9
:107A300014F01CFC88B12F21214814F017FC411CC4
:107A4000204B2A78D3F804350192224A0092042070
:107A50004FF4F0720EF000FD87E75C21184814F037
:107A600005FC08B15C21E7E71549E9E79B047FF5D0
:107A70005FAF124B1B68032B7FF75AAF2F211048C3
:107A800014F0F4FB78B12F210D4814F0EFFB411CEA
:107A90000C4B2A78D3F8043501920B4A009204204B
:107AA00040F2E51242E75C21054814F0DFFB08B123
:107AB0005C21E9E70249EBE7602E00205C2E002004
:107AC0000BCC0300001001403BCA03000ECA0300A8
:107AD00027CA030050CA030037B50446007E0528B4
:107AE00029D14B685D682B78032B5AD8DFE803F067
:107AF000022E55573F4B1B68990417D53E4B1B6808
:107B0000042B13DD2F213D4814F0B0FBA8B12F2129
:107B10003A4814F0ABFB411C394B3A4AD3F80435D0
:107B20000092052040F28D120EF096FC0021E06BD1
:107B3000FFF772FE012003B030BD5C212F4814F026
:107B400095FB08B15C21E3E72C49E5E7294B1B686D
:107B50009A0417D5284B1B68042B13DD2F212748C7
:107B600014F084FB80B12F21244814F07FFB411CCA
:107B7000234B254AD3F80435009205204FF4C972EF
:107B80000EF06AFC0121D2E75C211C4814F06EFB68
:107B900008B15C21E8E71949EAE70221C7E70321B8
:107BA000C5E7144B1B689B04C4D5134B1B68012B02
:107BB000C0DD2F21114814F059FB88B12F210F4847
:107BC00014F054FB411C0E4B2A78D3F80435019273
:107BD0000E4A009202204FF4D1720EF03DFCA9E74C
:107BE0005C21064814F042FB08B15C21E7E7034939
:107BF000E9E700BF602E00205C2E00200BCC0300C4
:107C00000010014043CB030065CB030089CB030088
:107C100010B5037E032B044603D3042B05D9052B93
:107C20000CD0784609F04AFD0CE0036902210430CB
:107C3000DB6898470421E06BFFF7EEFD0A21E06B5B
:107C4000FFF7EAFD012010BD70B50385012316463C
:107C50004FF6FF750C4A80F82A30022301844584D0
:107C6000426280F82B3004460CF04AFC2686E06223
:107C7000658604F11C0007F047FA20B17846BDE89C
:107C8000704009F01BBD70BDB133002013B5037EF9
:107C9000012B044609D1002348F2670248F264012F
:107CA000FFF7D2FF052002B010BD144B1B689B04E8
:107CB00019D5134B1B68012B15DD2F21114814F02A
:107CC000D5FA90B12F210F4814F0D0FA411C0E4B79
:107CD000227ED3F8043501920C4A009202204FF420
:107CE000BF720EF0B9FB207EDDE75C21054814F081
:107CF000BDFA08B15C21E6E70249E8E7602E002002
:107D00005C2E00200BCC03000010014008CB0300C8
:107D100013B5037E012B044609D1002348F2670204
:107D200048F26501FFF790FF052002B010BD144B2B
:107D30001B689B0419D5134B1B68012B15DD2F21E4
:107D4000114814F093FA90B12F210F4814F08EFAD5
:107D5000411C0E4B227ED3F8043501920C4A00924E
:107D6000022040F26F120EF077FB207EDDE75C21EF
:107D7000054814F07BFA08B15C21E6E70249E8E720
:107D8000602E00205C2E00200BCC03000010014070
:107D900026CB030037B5037E022B04460D4614D1D3
:107DA0008B88412B02D9784609F088FCAA881B48A9
:107DB000A91D14F080F92046AB8848F26002122118
:107DC000FFF742FF042003B030BD154B1B689B0436
:107DD00019D5144B1B68012B15DD2F21124814F007
:107DE00045FA90B12F21104814F040FA411C0F4B76
:107DF000227ED3F8043501920D4A0092022040F20F
:107E0000D5220EF029FB207EDDE75C21064814F028
:107E10002DFA08B15C21E6E70349E8E7B133002019
:107E2000602E00205C2E00200BCC030000100140CF
:107E3000BFCA030010B5037E012B04460ED11022E9
:107E40000431094814F037F92046102348F2630240
:107E500048F26201FFF7F8FE032010BD784609F0F2
:107E60002DFC207EF9E700BFB133002013B5037E5F
:107E7000022B04460CD11B4B0A791A7048F261019F
:107E8000012348F26302FFF7DFFE032002B010BDBA
:107E9000154B1B689B0419D5144B1B68012B15DD72
:107EA0002F21134814F0E2F990B12F21104814F05B
:107EB000DDF9411C0F4B227ED3F8043501920E4AA6
:107EC0000092022040F23F220EF0C6FA0120DDE7C8
:107ED0005C21074814F0CAF908B15C21E6E70449BF
:107EE000E8E700BFB1330020602E00205C2E0020A8
:107EF0000BCC030000100140E4C903002DE9F04160
:107F0000384C237896B0804653B90123364E374F0C
:107F1000237004A936480BF0C9FB20B1002323705D
:107F200016B0BDE8F08133689A041AD5314B1B684E
:107F3000042B16DD2F21304814F098F900283ED08C
:107F40002F212D4814F092F9411C9DF81020D7F8EC
:107F500004350192294A0092052040F2E9220EF0F0
:107F60007BFA9DF81020264B04A953F82230404696
:107F7000984798F8183083420546CAD033689B0466
:107F80001AD51C4B1B68042B16DD2F211A4814F040
:107F90006DF9E8B12F21184814F068F9411C98F8E0
:107FA0001820D7F804350192164A0092029540F243
:107FB000F32205200EF050FA88F81850A9E75C214A
:107FC0000D4814F053F908B15C21BAE70A49BCE73F
:107FD0005C21094814F04AF908B15C21DBE7064945
:107FE000DDE700BFB0330020602E0020001001400C
:107FF000F43300205C2E00200BCC030092CC030055
:10800000ACC903009ECC030030B5154695B00C46B4
:1080100011B9784609F052FB012D2DD005D3022D60
:1080200065D0784609F04AFB56E0434B1B6899043B
:1080300052D5424B1B68042B4EDD2F21404814F0D3
:1080400015F980B12F213E4814F010F9411C3D4B29
:10805000228CD3F8043501923B4A00920520EA2293
:108060000EF0FAF938E05C21354814F0FFF808B159
:108070005C21E8E73249EAE72F4B1B689A0418D5E0
:108080002E4B1B68012B14DD2F212D4814F0EEF828
:1080900020B32F212A4814F0E9F8411C294B228CE7
:1080A000D3F804350192294A00920220EF220EF003
:1080B000D3F90021482202A814F008F80D2302A9E0
:1080C00023488DF808300BF0C9FA10B1784609F052
:1080D000F5FA2046FFF712FF15B030BD5C211848B5
:1080E00014F0C4F808B15C21D4E71549D6E7124B67
:1080F0001B689B04F0D5114B1B68012BECDD2F2175
:108100000F4814F0B3F870B12F210D4814F0AEF8F9
:10811000411C0C4B228CD3F8043501920D4A00927D
:108120000220F7229CE75C21054814F09FF808B173
:108130005C21EAE70249ECE7602E00205C2E00207B
:108140000BCC030000100140FEC8030018C9030057
:10815000F43300203DC9030030B50D4693B004460A
:1081600010B9784609F0AAFA48220021684613F0AF
:10817000ADFF0723694606488DF800308DF804509E
:108180000BF06CFA201FFFF7B9FE13B030BD00BF33
:10819000F433002070B50E4692B0054600B111B917
:1081A000784609F08BFA2B7D012B14D112AC0B23EE
:1081B00004F8483D1022314601A813F07CFF214607
:1081C00006480BF04BFA044610B9281FFFF796FE3D
:1081D000204612B070BD0824FAE700BFF433002037
:1081E00010B592B0B0B1A9B10C208DF800000DF11E
:1081F0000600ADF8042013F05EFF694606480BF058
:108200002DFA044618B9054B1868FFF777FE20468B
:1082100012B010BD0E24FAE7F43300209834002089
:1082200008B506F01DF930F0040304D07846BDE827
:10823000084009F043BA08BDF0B5037E022B89B0AF
:1082400005460E4625D0042B414B1B685BD19A0492
:1082500018D5404B1B68042B14DD2F213E4814F029
:1082600005F8002839D02F213B4813F0FFFF411CAF
:108270003A4B3B4AD3F804350092052040F28D2258
:108280000EF0EAF8288806F00BFF10B1784609F0E6
:1082900015FA73685B681B7843BB324A049203AAE1
:1082A000059202240122ADF818208DF81A308DF8BD
:1082B0001B400CF025F92F460323079004AA716890
:1082C00037F8040B8DF80C30FFF7AAFF2B693846FE
:1082D0005B689847204609B0F0BD5C211E4813F04A
:1082E000C5FF08B15C21BFE71B49C1E71E4B3279CE
:1082F0001A702846012348F2630248F26101FFF731
:10830000A3FC0320E7E79B0417D5124B1B68032B44
:1083100013DD2F21104813F0A9FF80B12F210E4843
:1083200013F0A4FF411C0D4B104AD3F80435009202
:1083300004204FF42B720EF08FF8287ECBE75C21DF
:10834000054813F093FF08B15C21E8E70249EAE72A
:10835000602E00205C2E00200BCC0300001001409A
:10836000CACB03006080FFFFB1330020D8CB0300ED
:108370002DE9F04188B0304B049303AB04460593DC
:108380000123ADF81830002702230E468DF81A702D
:108390008DF81B300CF0B4F8257E0790022D0AD022
:1083A000042D1ED18DF80C702088716804AAFFF787
:1083B00037FF207E12E08DF80C702746716837F881
:1083C000040BD1F8048004AAFFF72AFF726823691E
:1083D00012891B68384641469847284608B0BDE8D0
:1083E000F081164B1B689B0419D5154B1B68032B9A
:1083F00015DD2F21134813F039FFA0B12F211148AB
:1084000013F034FF411C104B227ED3F80435019247
:108410000E4A0092042040F267220EF01DF801235C
:108420008DF80C30C0E75C21064813F01FFF08B13F
:108430005C21E4E70349E6E76080FFFF602E00204F
:108440005C2E00200BCC030000100140DBCA0300AF
:10845000F0B54B685E68037E013B8BB004460F4667
:10846000032B75D8DFE803F009090202008806F043
:1084700017FE10B1784609F021F94B4B069305AB76
:10848000002207930223ADF820308DF822208DF8CA
:1084900023300CF035F8254640F20513099006AA62
:1084A000796835F8040BADF81430FFF7B9FE33786E
:1084B000042B1AD8DFE803F012030707070007218F
:1084C000E06BFFF7A9F923697178DB6828469847C4
:1084D0000421E06BFFF7A0F9012004E0236928469E
:1084E0009B68984702200BB0F0BD23690221DB682E
:1084F000284698470421E06BFFF78EF92B4B1B6849
:108500009A04E9D52A4B1B68012BE5DD2F21294868
:1085100013F0ACFE98B12F21264813F0A7FE411CA2
:10852000254B227ED3F80435029232780192234AF9
:108530000092022040F225220DF08EFFCCE75C2154
:108540001C4813F093FE08B15C21E5E71949E7E701
:10855000164B1B689B041BD5154B1B68012B17DDA5
:108560002F21144813F082FEA0B12F21114813F0DF
:108570007DFE411C104B227ED3F8043502923278E6
:1085800001920F4A0092022040F22B220DF064FF6C
:10859000207EA8E75C21074813F068FE08B15C2143
:1085A000E4E70449E6E700BF6380FFFF602E002098
:1085B0005C2E00200BCC03000010014070CA0300A9
:1085C00093CA0300F0B58BB02F4B069302AB044661
:1085D0000793002702230E46ADF820308DF8233094
:1085E0008DF822700BF08CFF237E71680990012BAF
:1085F0004D6815D12B7C20888DF8093006AA8DF89E
:108600000870FFF70DFE0B238DF80C302B7C8DF8D6
:1086100014300495E36B03A89847207E0BB0F0BD9F
:108620001A4B1B689B0419D5194B1B68032B15DDCE
:108630002F21184813F01AFEE0B12F21154813F02E
:1086400015FE411C144B227ED3F804350192134AC7
:108650000092042040F253120DF0FEFE01238DF82B
:10866000083006AA2B7C716820888DF80930FFF746
:10867000D7FDD2E75C21074813F0F8FD08B15C2173
:10868000DCE70449DEE700BF6D80FFFF602E0020BD
:108690005C2E00200BCC0300001001406ECC0300C8
:1086A0002DE9F0410C469EB0154612B9784609F006
:1086B00005F8514B01AA03F1280C174618685968B0
:1086C000164603C6083363453246F7D11B8833800C
:1086D0002188122909D108238DF830302389013BE4
:1086E000402B14D91EB0BDE8F0810022062000FB0B
:1086F00002F3FE5A8E4237D11EAA1344228933F860
:10870000721C9142EED113F8703C8DF830301EAEE1
:108710004FF6FF7826F8788D2888314605F0CCFE94
:1087200060B9BDF80000404508D0394607F0ECFCC0
:1087300020B9BDF80620E3899A4224D04FF6FF7392
:10874000ADF80630238848F263029342CAD00FD8AE
:10875000112B05D3122B48F2600221D99342C1D0CC
:10876000784608F0ABFFBDE70132072ABFD1B9E771
:1087700048F26A018B422BD048F26C018B4233D015
:1087800048F26702EAE70CA91C480D940AF066FF5C
:1087900010B1784608F092FF2846FFF7AFFBA1E73B
:1087A00004238DF800300123ADF80C3000238DF840
:1087B0000E300223ADF8042002968DF80F300BF036
:1087C0009FFE3A46049021462888FFF729FD89E755
:1087D00005238DF8003048F26703ADF804300296A7
:1087E0000123ADF80C30EAE70623ADF80030ADF810
:1087F000042002960223F4E7D4C80300F4330020D7
:1088000030B50D4687B0044640B33AB3144BC2634B
:108810001860144802238360134B036048234360AD
:108820000AF002FF114B0093114B02930723CDE98D
:108830000334214600236846ADF80450059305F043
:108840000DFD48B92388A3830A4BA3630A4B6363D6
:1088500001232376094B187007B030BD0E20FBE7CB
:1088600098340020F433002008340020FFFF0480F7
:1088700074C903000980020000879303B03300200D
:1088800030B5054693B0B0B1037E012B15D1482217
:108890000021684613F01AFC0223694608488DF847
:1088A00000300AF0DBFE044610B92846FFF726FB2D
:1088B000204613B030BD0E24FAE70824F8E700BFC5
:1088C000F433002030B5054693B0B0B1037E012BE0
:1088D00015D148220021684613F0F8FB03236946AE
:1088E00008488DF800300AF0B9FE044610B9284651
:1088F000FFF704FB204613B030BD0E24FAE708242E
:10890000F8E700BFF433002010B5044610B97846EC
:1089100008F0D4FE04232372014BE360201D10BD38
:1089200060C9030000B5036993F80B2189B05AB1FF
:10893000002283F80B21022201938DF800208DF88C
:108940000810DB686846984709B05DF804FB10B56D
:10895000046994F80B31012B88B010D18DF80030E8
:1089600068460194E368984704F1F50294F83111E0
:10897000A06800F07FFB20B9032384F80B3108B016
:1089800010BDA068836802211B699847F7E71FB5EF
:10899000044600F1D50100F1A5036A4600F096FCFB
:1089A0006946A06800F09DFB10B90F2384F80B31D5
:1089B00004B010BD30B590F80C3189B00446032BDB
:1089C0003BD8DFE803F0312B1D0200F1C505294635
:1089D00000F058FD05238DF8003094F806318DF82D
:1089E000093094F807318DF808300194039510236D
:1089F00084F80B316846E3689847002009B030BD21
:108A000006238DF8003090F806318DF8093090F883
:108A100007318DF8083001900B23E9E707238DF823
:108A2000003001900C23E3E710220021C53013F041
:108A30004DFB2046FFF7ABFFE0E70320DEE710B574
:108A400088B0044600F0CEFD88B10A2384F80B31CB
:108A50000B238DF800306369039304F1180302932C
:108A600068460194E3689847002008B010BD04F1FF
:108A70005801204600F0ECFC0028F6D12046FFF714
:108A800099FFF2E710B5046994F80B31062B88B012
:108A90001DD194F808315BB108238DF8003009230B
:108AA00084F80B310194E3686846984708B010BD1C
:108AB0002169A06800F002FB18B9082384F80B3183
:108AC000F4E7A068836802211B699847EEE7072B4B
:108AD000ECD12046FFF7B3FFE8E70000F0B50D4604
:108AE000A7B004690E782846114600F0B5FA08B11F
:108AF000092E04D9A068836802211B691AE1324655
:108B000094F80B1194F8090100F07AFD48BB904BE2
:108B10001B681B07EED58F4B1B68042BEADD2F214A
:108B20008D4813F0A3FB98B12F218B4813F09EFBC7
:108B3000411C94F80B21894BD3F80435CDE901622F
:108B4000874A0092052040F235120DF085FCD1E7EE
:108B50005C21814813F08AFB08B15C21E5E77E497E
:108B6000E7E72B78013B082BC4D801A252F823F089
:108B7000958B0200F58A0200FD8B0200258C020015
:108B80002D8C0200518C0200F58A0200138D020028
:108B9000398D02000B22691C04F1F60013F08BFAE8
:108BA000042384F80B3109238DF874306B788DF829
:108BB0007C301E946A88130A43EA0223ADF87D30A4
:108BC0002B798DF87F306B798DF88030AB798DF80B
:108BD0008130B5F80720130A43EA0223ADF882304A
:108BE0006B7A8DF884306A89130A43EA0223ADF860
:108BF0008530E3681DA8984727B0F0BD01352846A9
:108C000000F01AFC00283FF475AF4022294604F119
:108C1000180013F050FA2046FFF711FF00287FF4E8
:108C200069AFE9E72046FFF7B2FEF7E7691C1022BB
:108C300004F1E50013F03FFA04F1A501A06800F08B
:108C400063FA00287FF456AF112384F80B31D3E781
:108C50001022691C04F1B50013F02DFA204600F033
:108C60005DFC00283FF446AF05AD09AE04F1780382
:108C70002A46314620460DAF00F088FB072310221C
:108C800004F58C7138468DF8503013F014FAD4F88E
:108C90002A31B4F82E211BBACDF84730130A43EA23
:108CA0000223B4F82821ADF84B30130A43EA02231B
:108CB00094F83021ADF844309DF846301F97C2F348
:108CC000400161F30003C2F3000262F341036FF35A
:108CD00087038DF846301923ADF880300DF151032C
:108CE00023930DF16A03249300232193ADF8883078
:108CF0001DA80823CDE91D658DF894300CF09FFC6C
:108D000014A9A06800F013FA00287FF4F3AE13232F
:108D10009BE70A238DF8743004F178031F9304F560
:108D20008C731E942093E3681DA89847A0688368FD
:108D30001B69002198475FE70C238DF874306B782E
:108D40001E948DF87C30E3681DA89847D2E600BFDA
:108D5000602E00205C2E0020C8CC030000100140D3
:108D6000ECCC030070B5044690F80B010E46B8B980
:108D7000A5680C49E960194684F8090184F8312195
:108D800004F58C70192213F096F9AB68064ADB687B
:108D900031462846984710B9012384F80B3170BD3D
:108DA0000820FCE7B8CC03000087930337B50446DE
:108DB00090F80B01042833D1102B01D813B939B125
:108DC00009202BE00029FBD0102B01D00129F7D07E
:108DD00094F8100184F80721012900F0010008BF70
:108DE000002284F80C1184F8063184F8080108BFC9
:108DF000002302258DF802008DF803108DF8042061
:108E0000694604F1F502A068ADF800508DF8053010
:108E100000F044F910B9062384F80B3103B030BDDB
:108E20000820FBE790F80B310B3B012B01D8FFF733
:108E3000AEBD0820704700790B79C31A58425841DB
:108E4000704710B5431E00F11002073013F8011FE0
:108E500012F8014D1C7083421170F7D110BD38B566
:108E6000049D88B181B17AB173B16DB190F80B41B5
:108E700064B9C0E90351426119460B2200F20D109A
:108E800013F019F9204638BD0E20FCE70820FAE758
:108E900038B50D46044650B149B1064A0DF07EFA88
:108EA00020B92C612A7963681343636038BD0E20B2
:108EB000FCE700BF378E020000F058BA2DE9F04100
:108EC0000E4617461D469DF818800446F0B1E9B1DC
:108ED000E3B11B8AB3F5805F02D30B20BDE8F081BC
:108EE000E88A0BF04DF90128F7D1206848B9A06055
:108EF00070B12B463A4631462046BDE8F041FFF7B7
:108F000031BF03794345F2D00068EFE70E20E5E773
:108F10000620E3E710B490F809411CB95DF8044B52
:108F2000FFF744BF08205DF8044B7047F8B50E46C4
:108F30001546044600286FD000296DD0102A6DD840
:108F400090F80631934269D190F80C31012B0DD184
:108F5000C53013F0B0F894F809312A46314620465E
:108F6000002B55D1BDE8F840FFF75CBF90F8092110
:108F7000DAB9022B21D190F80731032B1DD82946ED
:108F8000304600F00DFBC0B104F1C50704223146A4
:108F9000384613F090F80C22002104F1C90013F0B8
:108FA00095F83846FFF74DFFD5E7012A05D1032B89
:108FB00003D190F80731022BE0E794F80931EBB9BF
:108FC00094F80C31022B01D00820F8BD94F8073139
:108FD000042BF9D12946304600F0CEFA0028F3D010
:108FE00004F1C5072A463146384613F064F805F106
:108FF000C500C5F1100200212044D0E7012BE3D1C8
:1090000094F80C31032BDFD194F80731032BE0E700
:10901000BDE8F84008F050BA0E20D6E70920D4E7A2
:1090200008B518B100F0F4F8002008BD0E20FCE7E8
:1090300070B5044616460D4611B9784608F03EFB59
:1090400014B9784608F03AFBA36832462946204610
:109050001B68BDE87040184748B10378092B05D854
:10906000034AD05C431A5842584170470020704769
:109070000FCD030013B5002304468DF805101046EC
:109080000DF1050101228DF8043013F014F80222CD
:1090900001A92046FFF7CCFF02B010BD38B5054648
:1090A0000C4602F10C000131052213F004F82146B0
:1090B00028460622BDE83840FFF7BABF30B593B066
:1090C00012AC032304F8443D054640220DF105008F
:1090D00012F0F1FF412221462846FFF7A9FF13B005
:1090E00030BD30B587B006AC052304F8143D054605
:1090F00010220DEB030012F0DEFF1122214628465C
:10910000FFF796FF07B030BD30B587B006AC062339
:1091100004F8143D054610220DF1050012F0CBFFB6
:10912000112221462846FFF783FF07B030BD2222D7
:10913000FFF77EBF70B506468AB014460D4609B3E8
:10914000084613F08BF86A4681B228460CF0D9FA2B
:10915000042269460DF1220012F0ADFF162564BA13
:10916000ADF8204008F0E2FA102201460DEB0200B3
:1091700012F0A1FF2B4604AA002130460EF02AF976
:109180000AB070BD1225EAE7F0B50F4689B0144663
:10919000064610B9784608F091FA14B9784608F0F6
:1091A0008DFA07F0FB03122B25D1184D2A6812B354
:1091B00020220021684612F089FF1022314601A8C2
:1091C000079412F078FF23785A1E5342534100212E
:1091D000162F8DF814308DF800100ED101230422C3
:1091E00006F112010DF116008DF8153012F063FF33
:1091F0002B686846984709B0F0BD04220DF11600AF
:109200008DF8151012F062FFF2E700BF9C340020C9
:1092100010B5044610B9784608F050FA014B1C60AE
:1092200010BD00BF9C3400200A78034B82B00020A0
:109230001A7002B0704700BFA1340020024B1B78A7
:109240000B7082B002B07047A1340020024B82B094
:1092500000221A7002B07047A134002073B5054691
:109260000A4E68460C460BF091FC002324219C42D8
:1092700001D802B070BD1DF80300B0FBF1F201FB94
:109280001202D2B2B25CEA540133F0E71ECD030001
:1092900037B50D46042104460DEB01000BF076FCBA
:1092A000094B019953F82520B1FBF2F302FB13138C
:1092B00004221BBA0DEB020104F10C00019312F021
:1092C000FAFE03B030BD00BF44CD03002DE9F041EC
:1092D0000446ACB00F46904600F1F501112207A8F4
:1092E0001E4612F0E8FE94F8093104F118054022F8
:1092F00093BB21690DF12D0012F0DDFE40222946BD
:109300000DF16D0012F0D7FE3A4607A891210CF03E
:10931000F8F903AD04233A46009304F15800124BC8
:10932000019520210CF003FA304610210BF02EFCA1
:109330003146102207A812F0BEFE04F1C50110222A
:109340000BA812F0B8FE4346202207A928460CF0CD
:1093500074F92CB0BDE8F08129460DF12D0012F012
:10936000AAFE40222169CBE77ECD030038B5044632
:109370000D4612F0CFFB29460246204612F0CEFBE6
:10938000012814BF0320002038BD00002DE9F04360
:10939000044697B08946904600F1D50110220AA8EC
:1093A0001F4612F088FE94F8093104F1B50604F165
:1093B000A505102293BB29460EA812F07CFE1022B0
:1093C000314612A812F077FE5834042502AA0AA8E2
:1093D00030210CF096F902AA2046CDF804900095B1
:1093E000124B20210CF0A3F906ABCDE9005302AAE1
:1093F0000F4B204620210CF09AF90DF11B010D2294
:10940000404612F058FECDE900570A4B02AA20212F
:1094100020460CF08CF917B0BDE8F08331460EA859
:1094200012F049FE10222946CBE700BF83CD03008E
:1094300088CD03008DCD030010B5044612F06AFB01
:109440000146204612F046FC003018BF012010BD36
:1094500070B500F11804054620460E46FFF7ECFFF4
:1094600010B9784608F02AF96D6912F053FB3246BC
:1094700003462946204612F08FFB00280CBF03202C
:10948000002070BD37B590F80631013B072B04462C
:109490000D4602D9784608F011F91022002128461D
:1094A00012F014FE94F80C31022B03D0032B16D0CB
:1094B00003B030BD94F80731042BF9D8DFE803F08E
:1094C0001E1E1E03090094F806112846FFF7E0FE51
:1094D000EEE794F806112846FFF7C0FEE8E794F897
:1094E0000731032BE4D801A252F823F0FD940200C7
:1094F000FD940200C7940200D394020001210DF1F3
:10950000070094F806410BF041FB9DF80720B2FBE1
:10951000F4F304FB13230133EB73C9E730B593B0C5
:1095200002AD04230446009300F1D502114B0195CE
:10953000202158300CF0FBF804F1B50110220AA8E4
:1095400012F0B9FD04F1C50110220EA812F0B3FD0E
:1095500006AB0AA9284620220CF06FF8102204F16D
:10956000E50106A812F098FDB0FA80F0400913B0AA
:1095700030BD00BF7ECD030010B50246131ADBB22A
:10958000994201D8012010BD12F8013BA3F130042B
:10959000092CF3D9413B192BF0D90020F3E7000047
:1095A000082937B505460C4602D9784608F086F8F2
:1095B000042229460DEB020012F07DFD044B53F806
:1095C0002400019B984294BF0020012003B030BDCD
:1095D00044CD0300024B014618680EF0BDBF00BF2A
:1095E0001ACD030007B50DF10700FFF7F3FF10B127
:1095F000784608F063F89DF8070003B05DF804FBB7
:109600000A4B5B5C60B923F0800342F040018B425F
:1096100004D0092A14BF00200120704701207047A0
:1096200023F0400342F080008342F3E768CD03005B
:10963000D1F8B83108461B69012100F5D8701847E8
:10964000F8B5114D2B68064613B9784608F036F880
:10965000EFF3108772B62C68B4420BD1D6F8C43140
:109660002B6007B962B6F8BD13B9784608F026F842
:10967000D4F8C441D4F8C431B342F5D1D6F8C431DA
:10968000C4F8C431EDE700BFA434002070B590F8F1
:10969000A130023B022B04460D4602D9784608F061
:1096A0000DF82046FFF7CCFF94F8A030012B02D034
:1096B000784608F003F820460FF0F9FE002384F8FE
:1096C000A03084F8E03084F8A13004F1C0000BF041
:1096D0000FF9D4F8BC31294604F5D870DB68BDE831
:1096E0007040184710B5044610B9784607F0E6FFF9
:1096F000A4F5D87494F8A130012B09D12046FFF7C6
:109700009FFF20460FF0D3FE002084F8A10010BD7B
:109710000820FCE72DE9F0418846911C06461546D5
:109720001F460FF009FE044600B36B1C4374292347
:1097300083742A464146133012F0BDFC2771EFF3C3
:10974000108772B6D6F8A85101356B1CC6F8A8511F
:1097500002D1784607F0B2FF07B962B630462560FD
:1097600021460FF024FE0020BDE8F0810420FBE735
:109770002DE9F04190F8E030022B88B0044602D089
:10978000784607F09BFF94F8E330002B42D194F821
:10979000A130032B02D0784607F090FF94F8E03018
:1097A000022B02D0784607F089FFD4F89C2094F869
:1097B000E13012BA009294F8A3208DF804209DF8AD
:1097C000052002F0FC02142B03F102014FF01700F8
:1097D000B1FBF0F161F387021D468DF8052028BF2B
:1097E000142594F8E2208DF808201B022A4604F183
:1097F000E4010DF10900ADF8063012F05CFC012324
:1098000005F1090269462046FFF784FF80B901236C
:1098100084F8E33094F8E3501726022794F8E180A7
:1098200008F10203B3FBF6F30133DBB2AB4202D81B
:1098300008B0BDE8F0816B1E03EB4301C3EBC1012F
:10984000D4F89C30143189B21BBAA8EB01080093FC
:1098500094F8A3308DF804301FFA88F89DF805308D
:10986000B8F1170F28BF4FF0170867F30103E43171
:1098700065F38703424621440DF106008DF805305B
:1098800012F019FC012308F1060269462046FFF791
:1098900041FF0028CCD194F8E330013384F8E33061
:1098A0000135BBE700B5D0F89C3089B01BBA0093F6
:1098B0004FF43063ADF804308DF80610042307220E
:1098C0006946FFF727FF09B05DF804FB38B50D4680
:1098D000044610B9784607F0F1FE022D02D9784609
:1098E00007F0ECFEA4F5D87494F8A13013F0FB0F48
:1098F0000FD0023B012B02D9784607F0DFFE294644
:109900002046FFF7CFFF28B9042384F8A13084F85C
:10991000A45038BD29462046BDE83840FFF7B6BE02
:1099200000B5D0F89C3089B01BBA00938DF80410B4
:109930000123062269468DF80530FFF7EBFE09B0DA
:109940005DF804FB00B5D0F89C3089B01BBA0093D9
:109950004FF4E063ADF80430062201236946FFF7B7
:10996000D9FE09B05DF804FB10B504460BF000F811
:10997000D4F8DC10014404F1C000BDE810400AF046
:10998000CEBF0000D0F8A8318B4206D1012380F869
:10999000AC31024B18680BF023BD7047A42D00209A
:1099A00037B591F8A130032B05460C464ED191F8FE
:1099B000E030022B4AD1D1F8D8301B1A002B14DA30
:1099C00001212046FFF76EFF48B9042384F8A13037
:1099D000012384F8A430C4F8B40003B030BD1D4B9B
:1099E000C4F8B430C4F8D850F7E71B4B1B681B070A
:1099F0001AD51A4B1B68042B16DD2F21184812F0BC
:109A000035FCD0B12F21164812F030FC411C154B0B
:109A100094F8E420D3F804350192134A009205200B
:109A200040F2BB320CF018FD0023204684F8E330EE
:109A300003B0BDE83040FFF79BBE5C21084812F040
:109A400015FC08B15C21DEE70549E0E70023C4F816
:109A5000B430C2E740420F00602E00205C2E002090
:109A600042D103000010014065D1030013B5044644
:109A7000EFF3108272B6174B1968C0F8C411186062
:109A800002B962B6144B1B681B0718D5134B1B6831
:109A9000032B14DD2F21124812F0E8FB88B12F218F
:109AA0000F4812F0E3FB411C0E4B0F4AD3F804356C
:109AB000009201944FF4C87204200CF0CDFC02B067
:109AC00010BD5C21064812F0D1FB08B15C21E7E72C
:109AD0000349E9E7A4340020602E00205C2E00201A
:109AE00042D103000010014092CD0300F0B50E46B4
:109AF00089B01746054610B9784607F0DFFDA5F591
:109B0000D87494F8A010012903D194F8A130002B47
:109B100054D100230129C4F8DC70C4F8CC3084F897
:109B2000E03084F8A33084F8A23084F8A130C4F87F
:109B3000A83113D0012384F8A030214BC4F8B030F1
:109B4000204BC4F8C830C4F8B840C4F8D0408023D3
:109B5000A5F188021C4920460FF0D4FCA5F58A75B2
:109B6000284604210BF012F8002384F8A330802348
:109B700084F8A2302B681BBA009310224FF4407374
:109B800031460DF10600ADF8043012F094FA0423CA
:109B9000162269462046FFF7BDFD054658B9204606
:109BA000FFF7E2FE20460FF0ADFB2046FFF75EFF19
:109BB000022384F8A130284609B0F0BD0825FAE751
:109BC000A1990200319602008599020038B5124B26
:109BD0001C6800250CB9012038BD94F8AC3193B154
:109BE00094F8A12084F8AC51042A94F8E0300DD107
:109BF000022B03D104F1A8000AF07AFE94F8A41015
:109C00002046FFF743FDD4F8C441E3E7022BFAD125
:109C10002046FFF7ADFDF6E7A43400202DE9F04122
:109C20000E4617469846054610B9784607F046FD99
:109C3000A5F5D87494F8A020012A03D194F8A13096
:109C4000002B50D10023012AC4F8DC80C4F8CC30AA
:109C500084F8E03084F8A33084F8A23084F8A1308E
:109C6000C4F8A83113D0012384F8A0301F4BC4F8E6
:109C7000B0301F4BC4F8C830C4F8B840C4F8D04066
:109C80008023A5F188021B4920460FF03BFC0023EE
:109C9000802284F8A320C4F89C3084F8A2303A468D
:109CA00031462046FFF746FA054610B9784607F0D8
:109CB00005FDFF232B714FF0FF332B604FF4FA614A
:109CC00020460FF0CAFB294620460FF070FB2046C5
:109CD0000FF018FB2046FFF7C9FE012384F8A130DE
:109CE0000020BDE8F0810820FBE700BFA199020039
:109CF000319602008599020030B5074D0246FF23D8
:109D0000141AA14202DCD843C0B230BD12F8014B94
:109D10006340EB5CF4E700BFBECD03002DE9F843E0
:109D2000A0F5D874804694F8A130032B0F46164650
:109D300040D1412A40D810F8D05C002D3ED12046B9
:109D4000FFF712FE0AF014FE1723B11CB1FBF3F16A
:109D50000131CBB2216F594301F5F411184B01F5D4
:109D6000906148F8FC1C81460144C4F8B030A8F565
:109D700084700AF0D4FD134B4B4448F8D83C0223BE
:109D800084F8E0303146C4F8B84084F8E35084F8F1
:109D9000E1603846FFF7B0FF324684F8E20039460A
:109DA000A8F1CC0012F087F92046FFF7E1FC284625
:109DB000BDE8F8830820FBE70920F9E71120F7E761
:109DC000A199020080C3C9012DE9F0410B78012B54
:109DD00092B005460C4602D0784607F06FFC261D6F
:109DE00061783046FFF788FFA378834226D195F843
:109DF000A21028460027FFF793FDE77095F8A220F0
:109E0000531C03F07F0322F07F02134385F8A23036
:109E100094F801803146424601A812F04CF92846D8
:109E20002770FFF7A1FDD5F8BC3142461B6801A998
:109E300005F5D870984712B0BDE8F0810023237073
:109E4000F9E7000038B5044610B9784607F036FC4B
:109E5000084D2B68013303D107480BF0A3FA2860A3
:109E6000012384F8B431054BC4F8B83104F5D87037
:109E700038BD00BFA42D0020CD9B0200C0CE030042
:109E80002DE9FF4188461446054610B9784607F08B
:109E900015FC14B9784607F011FC2B681BBAEFF3D8
:109EA000108172B6A44E34686CB901B962B6687993
:109EB00000F00303032B00F29C80DFE813F00B009B
:109EC0005801D7016202D4F89C209342EDD0D4F817
:109ED000C441E9E7002C00F08C8094F8A130032BFA
:109EE00040F0878094F8E020002A40F08E802A79A4
:109EF00094F8A2309A4230D1EB881B0A84F8E13002
:109F000017220233B3FBF2F30133DBB2072B07D97D
:109F1000022104F5D87004B0BDE8F041FFF7D6BCCB
:109F20002B7A84F8E230A8F10908012384F8E030A4
:109F300084F8E330424605F1090104F1E40012F02F
:109F4000BAF894F8E130984553D104F1E001204685
:109F500004B0BDE8F041FFF737BF784B1B6803F052
:109F6000080328D2BBB1764B1B68042B13DD2F21CD
:109F7000744812F07BF9A8B12F21724812F076F9DB
:109F8000411C714B714AD3F80435009240F2C9224A
:109F900005200CF061FA2979204604B0BDE8F041B3
:109FA000FFF7BEBC5C21674812F060F908B15C2184
:109FB000E3E76449E5E7E3B1614B1B68012B18DD7A
:109FC0002F21604812F052F9B0B12F215D4812F0F4
:109FD0004DF9411C5C4B94F8A220D3F80435029251
:109FE0002A7901925A4A009240F2CE2202200CF0C5
:109FF00033FA04B0BDE8F0815C21524812F036F922
:10A0000008B15C21E2E74F49E4E74C4B1B68022AA8
:10A0100003F0080373D1297994F8A220914220D249
:10A02000002BB8D0464B1B68042BB4DD2F214548CC
:10A0300012F01CF960B12F21424812F017F9411CAF
:10A04000414B424AD3F80435009240F2D5229FE7B3
:10A050005C213C4812F00AF908B15C21ECE739496F
:10A06000EEE725D9002BC4D0354B1B68012BC0DD92
:10A070002F21344812F0FAF888B12F21314812F01C
:10A08000F5F8411C304B94F8A220D3F80435029225
:10A090002A7901922E4A009240F2DA22A6E75C2148
:10A0A000284812F0E3F808B15C21E7E72549E9E721
:10A0B000002B9ED0224B1B68042B9ADD2F212148B8
:10A0C00012F0D4F890B12F211E4812F0CFF8411CA5
:10A0D0001D4B94F8A220D3F8043502922A790192FC
:10A0E0001C4A0092052040F2DE2280E75C211548E0
:10A0F00012F0BCF808B15C21E6E71249E8E7002B52
:10A100003FF477AF0E4B1B68012B7FF772AF2F2107
:10A110000C4812F0ABF808B32F210A4812F0A6F849
:10A12000411C094B0C4AD3F80435009240F2E3225B
:10A1300002200CF091F95CE7A4340020602E00208E
:10A140005C2E002042D1030000100140D4CE030059
:10A1500024CF03006ECF0300A7CF03005C21B548D6
:10A1600012F084F808B15C21D7E7B249D9E7002C96
:10A170003FF43FAF94F8A130032B7FF43AAFAE4BDE
:10A1800094F8E0201B68022A03F008034BD12979D8
:10A1900094F8A320914246D1D3B1A84B1B68032B5E
:10A1A00016DD2F21A34812F061F898B32F21A148A2
:10A1B00012F05CF8411CA24B94F8E420D3F804356B
:10A1C0000192A04A0092042040F21E320CF044F9A1
:10A1D000002504F1A800C4F8B4500AF089FB204619
:10A1E0000FF065F994F8A32084F8E050531C03F0B5
:10A1F0007F0322F07F02134384F8A3302046FFF749
:10A20000B3FBD4F8BC315B6804F5D87004B0BDE88A
:10A21000F04118475C21874812F028F808B15C210A
:10A22000C5E78449C7E7002B3FF4E3AE834B1B68C7
:10A23000012B7FF7DEAE2F217E4812F017F860B1B8
:10A240002F217C4812F012F8411C7D4B7E4AD3F836
:10A25000043500924FF44C726AE75C21754812F0A5
:10A2600005F808B15C21ECE77249EEE7002C3FF4F9
:10A27000C0AE94F8A130032B7FF4BBAE94F8E0603D
:10A28000297994F8A230012E4CD1994225D194F825
:10A29000E33080080341DA073FF5ABAE17270138FA
:10A2A00007FB0040A8F10602A91DF83011F003FFDA
:10A2B0006B7994F8E3209B0806FA03F3134394F8B0
:10A2C000E1200232B2FBF7F70137DBB2FFB284F8CC
:10A2D000E330BE400133B34236E6574B1B681B07E1
:10A2E0007FF587AE554B1B68012B7FF782AE2F2180
:10A2F000504811F0BBFF60B12F214E4811F0B6FF5E
:10A30000411C4F4B514AD3F8043500924FF442722E
:10A310000EE75C21474811F0A9FF08B15C21ECE78A
:10A320004449EEE79942FFF437AE7FF662AE424B06
:10A330001B681F077FF55DAE404B1B68012B7FF745
:10A3400058AE2F213B4811F091FF88B12F21394899
:10A3500011F08CFF411C3A4B94F8A220D3F804353D
:10A3600002922A7901923A4A00924FF445723DE6F0
:10A370005C21304811F07AFF08B15C21E7E72D49F4
:10A38000E9E78008012875D023D3022800F0D380A4
:10A39000294B1B681B077FF52CAE284B1B68012B34
:10A3A0007FF727AE2F21234811F060FF002800F02F
:10A3B00027812F211F4811F059FF411C6A79204B3A
:10A3C0009208D3F804350192224A009240F2923268
:10A3D000A4E0B8F1160F7FF40CAE07F0A7F9102235
:10A3E0000146A81D11F058FE00287FF402AE002C93
:10A3F00040F01181EFF3108372B6346824B9002B5A
:10A400007FF4F7AD62B6F4E594F8A120012A00F0DC
:10A410000081D4F8C441F1E75C21064811F026FF21
:10A4200008B15C211AE103491CE10023C4F89C3007
:10A43000DFE500BF42D10300602E00205C2E00202B
:10A4400000100140D9CF0300F4CF030014D0030063
:10A4500045D003001BD10300032B7FF4CAAD94F851
:10A46000E030002B7FF4C5AD204604B0BDE8F041DC
:10A47000FFF768BA002C3FF4BCADB8F1060F7FF4CB
:10A48000B8AD94F8A130814D022B2AD120460FF0AF
:10A490000EF8142120460EF0E0FF2B681D0740F156
:10A4A000EB807B4B1B68032B40F3E6802F21794820
:10A4B00011F0DCFE60B12F21764811F0D7FE411C6F
:10A4C000754B764AD3F80435009240F26E32D0E0F4
:10A4D0005C21704811F0CAFE08B15C21ECE76D49BF
:10A4E000EEE72B6818077FF584AD694B1B68012BDD
:10A4F0007FF77FAD2F21674811F0B8FE90B12F2173
:10A50000644811F0B3FE411C634B94F8A120D3F8CA
:10A5100004350192624A009240F2763202200BF03A
:10A520009BFF66E55C215B4811F0A0FE08B15C2151
:10A53000E6E75849E8E7002C3FF45BADB8F1070FB8
:10A540007FF457AD94F8A130504E023B012B30D828
:10A5500094F8E030022B03D104F1A8000AF0C8F906
:10A56000A9792046FFF792F8336819077FF541ADC6
:10A57000474B1B68032B7FF73CAD2F21454811F05B
:10A5800075FE68B12F21434811F070FE411C424B0B
:10A59000444AD3F80435009204204FF46272C8E5AF
:10A5A0005C213C4811F062FE08B15C21EBE73949BF
:10A5B000EDE733681A077FF51CAD354B1B68012B9F
:10A5C0007FF717AD2F21334811F050FE78B12F21BE
:10A5D000304811F04BFE411C2F4B94F8A120D3F8CA
:10A5E00004350192304A009240F28D3296E75C21A8
:10A5F000284811F03BFE08B15C21E9E72549EBE76B
:10A600005C21244811F032FE08B15C21D2E62149D8
:10A61000D4E603B962B694F8A130012B7FF41CAFE5
:10A620002B681BBA2046C4F89C3014210EF015FF8D
:10A630002046FFF787F900287FF4F7AE134B1B681D
:10A640001E0719D5124B1B68032B15DD2F2111484E
:10A6500011F00CFE00283FF4DFAE2F210D4811F061
:10A6600005FE411C0C4B0D4AD3F80435009240F214
:10A67000513204200BF0F0FE032384F8A130204671
:10A68000FFF772F9D4F8BC319B68BDE5602E00205D
:10A690005C2E002042D10300001001408BD003004B
:10A6A000A1D00300D2D00300E8D003002DE9F04F81
:10A6B0000C4689B0814600B111B9784606F0FEFF1C
:10A6C0002388192B02D8784606F0F8FF4FF6FF7260
:10A6D0004FF42013CDE905230025012305A90A2203
:10A6E0004846ADF81C30ADF8025011F0E4FC0A23E6
:10A6F00023800DF10601284604F0F6F910B17846E2
:10A7000006F0DCFF0DF10701002004F0F9F910B1AB
:10A71000784606F0D3FF9DF806309DF80720D34217
:10A720003ED001A9002004F0D3F910B1784606F01C
:10A73000C5FF08AA03230DF10C0822F81E3D41466F
:10A74000002004F029FA10B1784606F0B7FF2088FF
:10A7500004220DEB0201484411F0ADFC26889DF85F
:10A7600006300436B6B2268053B10027BDF802A0E9
:10A770003D464FF6FF7B574515D323881D44258062
:10A780009DF8073063B12388BDF802700026994414
:10A7900035464FF6FF7ABE421DD323881D442580DF
:10A7A00009B0BDE8F08F02A938F8170004F0B4F939
:10A7B00010B1784606F082FFBDF808305B4508D13D
:10A7C000A81902220DF10A01484411F074FC023567
:10A7D000ADB20137CFE702A938F8160004F09CF9B2
:10A7E00010B1784606F06AFFBDF8083053450FD027
:10A7F000022202A909EB050011F05DFCA81C02224F
:10A800000DF10A0119FA80F011F055FC0435ADB2D2
:10A810000136C0E7024B1B6803B11847704700BF01
:10A82000A834002013B5044601A805F0F1FBBDF8DB
:10A830000400001B18BF4FF0FF3080B202B010BD03
:10A8400037B504460DF0F6F90546002301A800933C
:10A8500005F0DEFB6946288A06F0A8F930B9009BAE
:10A860006360BDF80430238003B030BD0520FBE7F2
:10A870001FB50193BDF81830ADF808300023ADF8CE
:10A8800000208DF80A304FF6FF720223ADF8022047
:10A890008DF80B306A46079B039303F0E1FD05B08A
:10A8A0005DF804FB7FB505460E46002003A98DF830
:10A8B00008000EF024FB10B1784606F0FFFE9DF86C
:10A8C0000D309DF80820013B0A2104AC63F302021D
:10A8D000BDF80E30B3FBF1F3013B63F3C70204F89C
:10A8E000082D09F00DFE01230190009348F2250286
:10A8F000234631462846FFF7BBFF04B070BD7FB545
:10A900000B89012B06460D4631D14C688DF8043079
:10A910002378C3F3020301338DF805302378DA0876
:10A920000A2302FB0333142BB8BF142301A9002010
:10A93000ADF806300EF0D2FA10B1784606F0BEFE41
:10A9400030462946FFF7AEFF0023CDE9023311233D
:10A950008DF808302378C3F302038DF80C30237888
:10A9600002A8C3F3C4038DF80D30FFF753FF04B002
:10A9700070BD0B890BB9FFF795BF704737B504461B
:10A980000D4609F0BDFD084B1860084B01221A70F6
:10A9900000230190009348F24A0229462046FFF71F
:10A9A00067FF03B030BD00BFB0340020AC340020DE
:10A9B00030B50B89032B85B005460C4618D14B6882
:10A9C0009A78012A14D800228DF80C201B88ADF843
:10A9D0000D3002238DF80F3009F092FD0423019011
:10A9E000009348F2480203AB21462846FFF740FF98
:10A9F00005B030BD30B585B004460D468DF80C204D
:10AA0000ADF80D3009F07CFD03230190009348F26E
:10AA1000440203AB29462046FFF72AFF05B030BDAC
:10AA200030B585B004460D46002303A90120ADF8DA
:10AA300008300EF064FA10B1784606F03FFE9DF83B
:10AA40000C308DF808309DF80D309DF80920013B41
:10AA500063F30202BDF80E308DF80920142B15D1D6
:10AA6000D2B212F0070111D161F3C7028DF80920AB
:10AA700009F046FD02230190009348F2280202AB40
:10AA800029462046FFF7F4FE05B030BD0A22B3FB8D
:10AA9000F2F39DF80920013B63F3C702E6E77FB5B7
:10AAA0000B89022B05460E463ED14C682378012BBC
:10AAB0003AD803F001038DF804306378C3F302033E
:10AAC00001338DF80530637883BB1423ADF806306D
:10AAD000BDF80630142B38BF142301A90120ADF8AE
:10AAE00006300EF0FBF910B1784606F0E7FD284677
:10AAF0003146FFF795FF0023CDE9023312238DF88D
:10AB0000083023785A1E534253418DF80C30637835
:10AB1000C3F302038DF80D30637802A8C3F3C403B6
:10AB20008DF80E30FFF776FE04B070BDDB08013300
:10AB300003EB83035B00C9E70B890BB9FFF770BF19
:10AB4000704770B586B00D46ADF80F309DF82C30CB
:10AB5000ADF80D2000218B4204460A988DF80C10A8
:10AB600014BF07260926CDF8110009F0C9FC03AB74
:10AB7000CDE9006048F21F0229462046FFF778FE23
:10AB800006B070BD30B587B00446039306AB8DF8B0
:10AB9000142033F80C2DADF815209B788DF8173064
:10ABA0000D4609F0ADFC04230190009348F2030226
:10ABB00005AB29462046FFF75BFE07B030BD2DE907
:10ABC000F0430B89022B85B081460C4638D14B6887
:10ABD0001E88C6F30B0005F06FFBA38C834207466B
:10ABE00031D133460C2221464846FFF703FF27E0C8
:10ABF00038F8150005F074FB28F815000135029BA4
:10AC0000AB42F5D82EE038F8150004F02FF810B15B
:10AC1000784606F053FD0135029BAB42F3D833462C
:10AC2000484600222146FFF7E5FE0023CDE9023326
:10AC300002A819238DF80830ADF80C70FFF7EAFD73
:10AC400005B0BDE8F0834FF6FF739842E7D00DF1F1
:10AC50000408012302AA4146029305F025FF054698
:10AC60000028CCD0384605F0E3FE05460028D3D0B6
:10AC70000F28B6D033460422B5E70000F0B50B89A3
:10AC8000122B85B007460D4625D14E680A883446FA
:10AC900048F2400334F8020B9A42C0F30B001CD177
:10ACA00021460DF1060205F08BFB182304460F2CFC
:10ACB0008DF80830BDF80630ADF80C3096BF0C4B5F
:10ACC00010221A5D338829463846FFF793FE14B9DF
:10ACD00002A8FFF79FFD05B0F0BD05F0EDFA214693
:10ACE000ADF8060005F00AFC1A230446DFE700BFB2
:10ACF00079D103002DE9F0431F460B8847F6E5782C
:10AD000043449BB2102B87B005460C46164656D8D6
:10AD10004FF0010909FA03F313F0EF011BD113F40B
:10AD2000803060D15B044AD50146052203A811F0AA
:10AD3000CDF963688DF80C701A88ADF80D205B882A
:10AD4000ADF80F3009F0DCFB05230093019003AB55
:10AD500048F22A022FE00922002103A811F0B6F9D7
:10AD600023888DF80C7043449BB2072B0AD809FA4C
:10AD700003F313F00B0F09D113F004022DD113F0DC
:10AD8000E00F1FD1784606F099FC09E063681A8845
:10AD9000ADF80D205A88ADF80F205B68CDF8113062
:10ADA000002E14BF0726092609F0AAFBCDE9006092
:10ADB00003AB48F21F0221462846FFF759FD07B0B2
:10ADC000BDE8F083636833F8121BADF80D108DF801
:10ADD0000F208DF810201B68E0E7636833F8022B22
:10ADE000ADF80D20F7E7072203A811F06FF96368AB
:10ADF0008DF80C701A88ADF80D209A88ADF81120E6
:10AE00005B88ADF80F3009F07BFB072300930190BE
:10AE100003AB48F22C02CEE77FB504AA032322F845
:10AE20000A3D02A9064603F0FDFC062825D010B114
:10AE3000784606F043FC0025BDF80620ABB29A42E6
:10AE400002D8002004B070BDACB2640004AB23444F
:10AE5000304633F8081C03F0B5FC10B1784606F014
:10AE60002DFC04AB1C4434F8080C05F07FF910B13C
:10AE7000784606F023FC0135DEE70820E2E72DE9FD
:10AE8000F0438DB01C46154606460F4609220021A8
:10AE90000DF1250011F01AF900230DF10B012046E8
:10AEA0008DF82030ADF8215003F0CAFD10B178467E
:10AEB00006F004FC9DF826309DF80B2062F3041385
:10AEC0006FF3471305A920468DF8263003F024FEC2
:10AED00010B1784606F0F2FBBDF81450BDF81630FC
:10AEE0004FF6FF7295420DF10E0120460EBFADF8F0
:10AEF0002A30ADF82C30ADF82A5003F0DDFA10B14D
:10AF0000784606F0DBFBBDF80E004FF6FF73984263
:10AF100018D100238DF823308DF824304FF6FF73BD
:10AF20009D4214BF0E250C2509F0EAFA08ABCDE9C5
:10AF3000005048F2190239463046FFF799FC0DB02F
:10AF4000BDE8F08306A905F0DFF810B1784606F0F9
:10AF5000B5FBBDF81A30ADF8233004A9204603F044
:10AF60002DFD05288046D4D0002848D10DF11201CE
:10AF7000BDF8100005F0C8F90528814604D18DF808
:10AF800023808DF82480C9E70028C7D19DF81230AE
:10AF90008DF825309DF8133003F00F029DF8263010
:10AFA00023F00F0313430DF1270120468DF82630BF
:10AFB00003F07AFD0122494603A811F087F80DF14C
:10AFC0000D0203A9204603F0C7FA9DF80C209DF856
:10AFD0000D3002A943EA821320468DF8283003F091
:10AFE000A5FA9DF808209DF82930C2F3020161F30B
:10AFF0000203D20862F3C7038DF829308EE7784642
:10B0000006F05CFB8AE7F0B50B89032B87B0074697
:10B010000C4619D14D6804238DF80C302B88ADF8FF
:10B020000D3000238DF80F302888C0F30B0005F099
:10B0300043F90DF10B01064605F050FAD0B9AB7893
:10B04000022B03D0032B32D007B0F0BD9DF80B309C
:10B050005A1E012AF8D8012B06D1304605F09CFA79
:10B0600010B1784606F02AFB00238DF80C3002233D
:10B070008DF80F3009F044FA04230190009348F250
:10B08000170203AB21463846FFF7F2FB9DF80C3060
:10B09000002BD9D1CDE9043308238DF8103004A852
:10B0A0009DF80F308DF81430FFF7B4FBCCE79DF816
:10B0B0000B30032BC8D033B1304605F095FA10B1F0
:10B0C000784606F0FBFA00238DF80C30D0E770B517
:10B0D0000D89012D86B006460C461ED14B681878A6
:10B0E0008DF80F0003F07EFCB8B90523CDE904000C
:10B0F0008DF8103004A89DF80F308DF81430FFF74C
:10B1000089FB09F0FDF90DF10F03CDE9005048F27C
:10B110000E0221463046FFF7ABFB06B070BD7FB58F
:10B120000E4605460CF06AFF04AC04F8040D09F065
:10B13000E7F901230190009348F20B0223463146C0
:10B140002846FFF795FB04B070BD0B890BB9FFF7DC
:10B15000E6BF704770B50B89092B8CB006460D46CB
:10B160005CD14C682388ADF81C30A3782BB1102B30
:10B1700056D8013B012202FA03F30893E37843B166
:10B18000112B9DBF03F1FF33012202FA03F34FF0AD
:10B19000FF33099323798DF82830B4F8053003F094
:10B1A0000F03ADF82A30B4F80730ADF82C30B4F8FE
:10B1B000070005F081F84FF6FF73984237D104235A
:10B1C0008DF810302388ADF81130E3788DF8143005
:10B1D000A3788DF8133023798DF81530B4F8053045
:10B1E00003F00F03ADF81630B4F80730ADF818309F
:10B1F00009F086F90A2301900093062204AB294640
:10B200003046FFF735FB9DF810303BB914238DF81D
:10B21000083002A807AB0393FFF7FCFA0CB070BD2F
:10B22000FF2B4FF6FF7318BF4FF0FF33A5E707A8BA
:10B230000CF004FD00280CBF00230F23C0E7000022
:10B2400037B50378012B03D00E2B1DD003B030BDD2
:10B25000154B42681B689A42F8D1144C2378012B95
:10B26000F4D1FBF71BFF0BF079FE10B9022323701A
:10B27000ECE700251C236846CDE900558DF8003029
:10B28000FFF7C8FA2570E1E7084D2B78022BDDD1D6
:10B2900000241C236846CDE900448DF80030FFF7F8
:10B2A000B9FA2C70D2E700BFB0340020AC340020D3
:10B2B00030B50B89022B85B005460C4614D14A687F
:10B2C00000218DF80C101288ADF80D208DF80F308C
:10B2D00009F016F904230190009348F2480203ABE9
:10B2E00021462846FFF7C4FA05B030BD7FB504AC4F
:10B2F000022304F8043D05460E4609F001F9012336
:10B300000190009348F21402234631462846FFF785
:10B31000AFFA04B070BD0A89012A05D14B681B78C9
:10B32000012B01D8FFF7E2BF70470B890BB9FFF77C
:10B33000DDBF70477FB504AC022304F8043D054629
:10B340000E4609F0DDF801230190009348F2110246
:10B35000234631462846FFF78BFA04B070BD0A89B0
:10B36000012A05D14B681B78012B01D8FFF7E2BFFA
:10B3700070470B890BB9FFF7DDBF704770B50B89BC
:10B3800086B006460D46FBB906A9012341F8043DE7
:10B3900003A805F0B7F9059B9AB25B0803EB4303DA
:10B3A00002F0010404A903A803EB440401F0A6FB86
:10B3B00009F0A6F8A4B2CDE9004004AB48F243027C
:10B3C00029463046FFF754FA06B070BDF0B50B8938
:10B3D000022B87B006460D4632D14F6806AC0123DA
:10B3E000388844F80C3DC0F30B0004F065FF22469A
:10B3F00002A905F059FB3B88ADF8113018B10528BA
:10B4000020D010231FE0039C8DF81000A2B2640826
:10B4100004EB440402F0010304EB430403340DF194
:10B42000130102A8A4B201F069FB09F069F804ABAA
:10B43000CDE9004048F2020229463046FFF718FAEB
:10B4400007B0F0BD04238DF810300324EDE7F0B50C
:10B4500016460A881F4648F218039A4287B00546E6
:10B460000C4605D048F21A039A4201D0032A2CD187
:10B470000E22002102A810F029FE23888DF8087002
:10B4800048F21802934209D048F21A0293421ED0A1
:10B49000032B20D1636833F8092B02E0636833F88B
:10B4A000022BADF809201B68CDF81230002E14BF16
:10B4B0000C260E2609F024F802ABCDE9006048F214
:10B4C000190221462846FFF7D3F907B0F0BD63689B
:10B4D00033F8172BE5E7784606F0F0F8E6E77FB596
:10B4E0000B89022B06460C461FD14D682888C0F3F5
:10B4F0000B0004F0E1FE0DF10B0104F0EFFF00235F
:10B5000003932B88ADF80D3088B99DF80B308DF87A
:10B510000F3008F0F5FF04230190009348F2170262
:10B5200003AB21463046FFF7A3F904B070BD0423F6
:10B530008DF80C30EDE77FB50B8906460D4683B9D3
:10B5400003F05CFA04AC04F8010D08F0D9FF012304
:10B550000190009348F20E02234629463046FFF739
:10B5600087F904B070BD37B50B89012B05460C4631
:10B5700018D14B681A78012A14D80022CDE900228C
:10B5800004228DF800201878431E584258418DF847
:10B5900004000CF023FD28462146FFF7C0FD684655
:10B5A000FFF738F903B030BD70B50B89012B8AB0B5
:10B5B00006460D4618D10AA900238DF80C301A232F
:10B5C00021F81E3D0DF10D00FFF770F8BDF80A409F
:10B5D00008F096FF0134A4B2CDE9004003AB02228B
:10B5E00029463046FFF744F90AB070BD2DE9F0470F
:10B5F0000B89132B88B080460C4670D14E68B57805
:10B60000707837783388ADF814304FEA051A4AEA73
:10B61000101A00F00F0047EA00208DF8165004F0D1
:10B620004BFE00238DF81830F21C07AB0146814613
:10B63000504605F013F9384B1B685B0406461CD5D1
:10B64000364B1B68032B18DD2F21354810F00EFEFA
:10B65000F8B12F21324810F009FE411C314BBDF8E2
:10B660001C20D3F8043501922F4A0092CDF808A08F
:10B6700040F2752204200AF0EFFE0F2E48D8DFE8D2
:10B6800006F03E474711404947334747474747473A
:10B6900047315C21224810F0E9FD08B15C21D9E76F
:10B6A0001F49DBE70DF11201BDF81C0004F03EFE5E
:10B6B00010B1784606F002F8BDF812204A4514BFD2
:10B6C000042200228DF814708DF81650059B214637
:10B6D0004046FFF757FA16B906A8FFF79BF808B0DF
:10B6E000BDE8F0870622EDE78DF814708DF816504E
:10B6F000059B032221464046FFF744FAEFE700226C
:10B70000E0E78DF814708DF81650059B0522F1E7DF
:10B710001022D7E70422D5E7602E00205C2E0020FF
:10B7200089D1030000100140B9D1030073B50D4663
:10B73000164603F077F80528044607D006281AD0E5
:10B74000B8B933889C4204D3002000E0022002B044
:10B7500070BD6946288804F0D7FC50B99DF80030C8
:10B76000023B012B05D8BDF8023025F8023B01341D
:10B77000E7E71020EBE70820E9E72DE9F0410B8926
:10B78000042B8CB006460D4612D14C684FF6FF785C
:10B7900067882088ADF81270ADF81080FFF742F886
:10B7A000404508D10123012229463046FFF7A2FA7D
:10B7B0000CB0BDE8F08103AA049903F0C3F908B105
:10B7C0000223F0E70CAA052322F8223D05A9BDF8C3
:10B7D0000C00FFF7ABFF03460028E4D1BDF80E20B4
:10B7E0008DF820002388ADF8213005A952000DF115
:10B7F0002500ADF8237010F05EFCBDF80E4008F097
:10B800007FFE64000534A4B2CDE9004008AB48F2E5
:10B810002A0229463046FFF72BF8C9E708B590B150
:10B82000B0F5004F06D8002301334008DBB2FBD14E
:10B83000184608BD4FF6FF73984206D0784605F0CB
:10B840003DFF1023F4E70346F2E7FF23F0E708B5D6
:10B8500070B1B0F5803F06D8002301334008DBB259
:10B86000FBD1184608BD784605F028FF1123F8E7FC
:10B870000346F6E770B50C4686B005460CF0DAF9DB
:10B880002189064619BB8DF80C100388ADF80D30E0
:10B890004368012B1DD8DBB2B0688DF80F30FFF77D
:10B8A000D6FF337B8DF81130F389ADF81230338A2F
:10B8B000ADF814308DF8100008F022FE0A23019034
:10B8C0000093062203AB21462846FEF7D1FF06B0BF
:10B8D00070BDB3F5004F07D8013B5B08CAB201F158
:10B8E0000101FAD1931CD6E74FF6FF72934204D0C0
:10B8F000784605F0E3FE1023CEE7FF23CCE7F0B552
:10B900000E8987B007460D462EBB0CF08FF98DF8D7
:10B910000C60038804460BB14288F2B900238DF80D
:10B920000D308DF80E308DF80F308DF810308DF809
:10B9300011308DF812308DF813308DF8143008F076
:10B94000DFFD09230190009348F23C0203AB294636
:10B950003846FEF78DFF07B0F0BDADF80D304388D7
:10B96000ADF80F304068FFF759FF8DF81200A0685E
:10B97000FFF76DFFA3898DF813308DF81100E3896F
:10B98000DBE72DE9F04F0B89132B85B080460D4680
:10B990003ED14C68607823882778ADF804304FEAB0
:10B9A000101B002300F00F00A6788DF80660CDE98B
:10B9B000023347EA002001238DF8083004F07CFCB4
:10B9C0004FF6FF7A5045814633D04BEA061004F01B
:10B9D00087FC5045ADF80C002DD00DF1020104F0AC
:10B9E000A5FC10B1784605F069FEBDF802304B4564
:10B9F00011D011248DF804708DF80660019B224649
:10BA000029464046FFF7BEF814B902A8FEF702FF28
:10BA100005B0BDE8F08FE11CBDF80C0004F0AEFFEE
:10BA2000052808D0082808D000280CBF00241024BE
:10BA3000E0E70424DEE70324DCE70B24DAE72DE962
:10BA4000F0430A89032A85B080460D4653D14B68DE
:10BA50009E7819881F785B78ADF80410300140EAB1
:10BA600013108DF8066003F00F048DF8082004F021
:10BA700037FC4FF6FF794845ADF80C0024D047EA73
:10BA8000042004F019FC4845044637D00DF10201AA
:10BA9000BDF80C0004F04AFC10B1784605F00EFE2B
:10BAA000BDF80230A34211D1BDF80C0003F0DEF85E
:10BAB00010B1784605F002FEBDF80C0004F0A4FFBA
:10BAC00010B1784605F0FAFD002400E011248DF84D
:10BAD00004708DF80660019B224629464046FFF718
:10BAE00051F844B9BDF80C204FF6FF739A4202D0CA
:10BAF00002A8FEF78FFE05B0BDE8F0830424E6E758
:10BB0000F0B50B89052B8DB007460D464AD14C6820
:10BB10001022002108A810F0D9FA2388ADF82030AF
:10BB20006388ADF82230237943B1112B9DBF03F117
:10BB3000FF33012202FA03F34FF0FF3308A80A9300
:10BB40000CF00CF8064668BB0CF070F88DF8146029
:10BB50000388ADF81530044643888068ADF8173087
:10BB6000FFF775FE8DF819006068FFF757FEA3898F
:10BB70008DF81B30E3898DF81C308DF81A0008F021
:10BB8000BFFC092301900093384605AB48F23C0204
:10BB90002946FEF76DFE152303A88DF80C3004949A
:10BBA000FEF738FE0DB0F0BD2DE9F347B1F808807F
:10BBB00028F00203042B06460C4621D14D686B8801
:10BBC0002888B8F1040F9FB21BBF6A792B79ADF8B2
:10BBD000063043EA02230BBF4FF001094FF0000982
:10BBE0004FF6FF77ADF80630FEF71CFE4FF6FF7AF2
:10BBF000504508D101234A4621463046FFF727FC2D
:10BC000002B0BDE8F087ADF804700DF102020199B1
:10BC100002F098FF20B9B8F1040F03D0574501D1C5
:10BC20000223E8E7BDF802302A8821463046FFF7B4
:10BC300026F9E5E72DE9F047B1F8089029F002036D
:10BC4000042B86B007460D4621D14C6863882088B6
:10BC5000B9F1040F9EB21BBF62792379ADF80E30A3
:10BC600043EA02230BBF4FF001084FF000084FF6E4
:10BC7000FF76ADF80E30FEF7D5FD4FF6FF7A504552
:10BC800008D10123424629463846FFF733F806B06B
:10BC9000BDE8F087ADF80C600DF10A02039902F0DF
:10BCA00051FF20B9B9F1040F03D0564501D1022349
:10BCB000E8E7BDF80A00FFF7AFF8064608B103460B
:10BCC000E0E701F0B5FE34F8022BCDF804802068DF
:10BCD0000090334638462946FEF733FF0C23CDE962
:10BCE000046604A88DF81030BDF80A30ADF81430A1
:10BCF000FEF790FDCBE72DE9F047B1F8089029F069
:10BD00000203142B88B006460D462ED14C68638A78
:10BD10002088B9F1140F1FFA83F81BBF627D237DC1
:10BD2000ADF80E3043EA02230BBF012700274FF680
:10BD3000FF78ADF80E30FEF775FD4FF6FF7A5045EF
:10BD400001D101230CE0ADF80C8002AA039902F0A6
:10BD5000F9FE20B9B9F1140F0AD0D04508D1022359
:10BD60003A4629463046FEF7C5FF08B0BDE8F087E1
:10BD700002238DF81030A01C00230DF11201ADF844
:10BD8000123005900AF096FA10B1784605F096FC4C
:10BD90000DF10A0104A804F043FA0528D1D008B136
:10BDA0001023DDE7BDF80A10BDF8080002F00AFD17
:10BDB00008B10C23D4E7BDF80A0004F0D7F910B19C
:10BDC000784605F07BFC01F033FE34F8122B019726
:10BDD0002068BDF81230009029463046FEF7B1FECB
:10BDE0000F238DF81830BDF80830ADF81C3006A8C8
:10BDF000BDF80A30ADF81E30FEF70CFDB5E72DE9B1
:10BE0000F047B1F8089029F00203142B88B00646D9
:10BE10000D4620D14C68638A2088B9F1140F1FFAAF
:10BE200083F81BBF627D237DADF80E3043EA022309
:10BE30000BBF012700274FF6FF78ADF80E30FEF755
:10BE4000F1FC4FF6FF7A504508D101233A462946C6
:10BE50003046FEF74FFF08B0BDE8F087ADF80C8024
:10BE600002AA039902F06EFE20B9B9F1140F03D0B3
:10BE7000D04501D10223E9E70DF10A01A01C04F02D
:10BE800024F920B104280CBF05231023DEE7BDF8F8
:10BE90000A10BDF8080002F065FC8046BDF80A00F3
:10BEA000B8F1000F0BD004F061F910B1784605F03D
:10BEB00005FCB8F1060F0CBF08231023C6E704A940
:10BEC00004F022F910B1784605F0F8FB01F0B0FD5E
:10BED00034F8122B01972068BDF8123000902946E3
:10BEE0003046FEF72EFE0E238DF81830BDF80830D0
:10BEF000ADF81C3006A8BDF80A30ADF81E30FEF7CC
:10BF000089FCA8E72DE9F04FB1F80880B8F1080FD7
:10BF100089B006460D4602D0B8F1060F21D16C68F3
:10BF2000A3882088B8F1060F1FFA83F91BBFE279B6
:10BF3000A379ADF80E3043EA02230BBF0127002797
:10BF40004FF6FF79ADF80E30FEF76CFC4FF6FF7A36
:10BF50005045834608D101233A4629463046FEF72C
:10BF6000C9FE09B0BDE8F08F608808F009F9032820
:10BF7000F1D1ADF80C9002AA0399584602F0E2FD07
:10BF800020B9B8F1060F03D0D14501D10223E3E770
:10BF900003238DF810306388ADF812300DF10A01DB
:10BFA000002304A8059304F03BF978BBBDF80A1000
:10BFB000BDF8080002F006FC062801D10823CBE7F3
:10BFC00008B11023C8E7BDF80A0004F0CFF810B19B
:10BFD000784605F073FB01F02BFD638834F8042BE1
:10BFE00001972068009029463046FEF7AAFD0B23F2
:10BFF0008DF81830BDF80830ADF81C3006A8BDF833
:10C000000A30ADF81E30FEF705FCAAE70528D8D1A6
:10C01000E3E72DE9F04FB1F80880B8F1080F87B0D9
:10C0200006460D4602D0B8F1060F21D16C68A388F0
:10C030002088B8F1060F1FFA83FA1BBFE279A379B3
:10C04000ADF80E3043EA02230BBF012700274FF65D
:10C05000FF7AADF80E30FEF7E5FB4FF6FF79484565
:10C06000834608D101233A4629463046FEF742FE70
:10C0700007B0BDE8F08F608808F082F80328F1D19E
:10C0800063884B45EED0ADF80CA002AA0399584640
:10C0900002F058FD20B9B8F1060F03D0CA4501D10E
:10C0A0000223E0E70DF10A01608804F00BF840B1CB
:10C0B000042804D010280CBF01231023D3E7052344
:10C0C000D1E7BDF80A10BDF8080002F04BFB80462E
:10C0D00068B1BDF80A0004F049F810B1784605F0DF
:10C0E000EDFAB8F1060F0CBF08231023BBE701F0EF
:10C0F0009FFC638834F8042B019720680090294640
:10C100003046FEF71EFD0A238DF81030BDF80830CA
:10C11000ADF8143004A8BDF80A30ADF81630FEF7BB
:10C1200079FBA5E72DE9F047B1F8089029F0020363
:10C13000142B88B006460D4620D14C68638A2088AF
:10C14000B9F1140F1FFA83F81BBF627D237DADF890
:10C150000E3043EA02230BBF012700274FF6FF787A
:10C16000ADF80E30FEF75EFB4FF6FF7A504508D172
:10C1700001233A4629463046FEF7BCFD08B0BDE82B
:10C18000F087ADF80C8002AA039902F0DBFC20B91D
:10C19000B9F1140F03D0D04501D10223E9E7BDF86E
:10C1A0000800FEF739FE03460028E2D10DF10A012E
:10C1B000A01C03F08AFF58B104280CBF05231023EC
:10C1C0003A4629463046FEF795FD01F031FCD5E7A9
:10C1D000BDF80A10BDF8080002F0C4FA8046BDF8A8
:10C1E0000A00B8F1000F0CD003F0C0FF10B1784680
:10C1F00005F064FAB8F1060F01D10823E0E7102337
:10C20000DEE704A903F080FF10B1784605F056FA86
:10C2100034F8122B01972068BDF81230009029469F
:10C220003046FEF78EFC10238DF81830BDF808302C
:10C23000ADF81C3006A8BDF80A30ADF81E30FEF788
:10C24000E9FAC2E72DE9F04F0F8927F00203042B2A
:10C2500089B082460D4640F0AD804E6874883088C3
:10C26000042F16BFA0464FF6FF78B488FEF7DAFA1F
:10C270002A8848F24B039A424FF6FF7340F0AB8096
:10C28000984200F0828048F24C09ADF81080ADF879
:10C29000124003AA049902F055FC28B9042F1FD0BC
:10C2A0004FF6FF7398451BD129883388ADF81530B8
:10C2B00048F24B0291424FF002020CBFADF817401A
:10C2C000ADF819408DF814200EBF0524ADF8178085
:10C2D000072408F015F90190009405AB4A4665E083
:10C2E00008AA012322F8123D02A9BDF80C0002F0B1
:10C2F00025FB10B1784605F0E1F94FF0000BBDF8D1
:10C300000E701FFA8BF39F4221D829883388ADF82D
:10C31000153048F24B0291424FF000028DF8142084
:10C3200027D13A460DF1190102A8ADF8174000F0E7
:10C33000E5FB052408F0E4F87B0803EB430307F072
:10C34000010703EB47073C440190E4B2C4E71FFA3E
:10C350008BF1490008AB0B4402AA114433F8180CC6
:10C3600003F0D2FF10B1784605F0A8F90BF1010BEC
:10C37000C5E73A460DF11B0102A8ADF81940ADF82A
:10C380001780072400F0BAFBD4E73388ADF81530E6
:10C390000122ADF817408DF8142048F24C06052410
:10C3A00008F0AEF8CDE9004005AB324629465046CC
:10C3B000FEF75EFA09B0BDE8F08F3388ADF81530AE
:10C3C0000122ADF819408DF81420ADF8178048F21D
:10C3D0004E060724E4E79842EFD048F24E0954E7AE
:10C3E0002DE9F04FB1F80880B8F1080F87B0064684
:10C3F0000D4602D0B8F1060F21D16C68A3882088C1
:10C40000B8F1060F1FFA83F91BBFE279A379ADF8E3
:10C410000E3043EA02230BBF012700274FF6FF79B6
:10C42000ADF80E30FEF7FEF94FF6FF7A5045834621
:10C4300008D101233A4629463046FEF75BFC07B097
:10C44000BDE8F08F608807F09BFE0328F1D1ADF8BE
:10C450000C9002AA0399584602F074FB20B9B8F177
:10C46000060F03D0D14501D10223E3E7BDF8080050
:10C47000FEF7D2FC03460028DCD10DF10A016088EA
:10C4800003F020FE40B1042804D010280CBF012383
:10C490001023CFE70523CDE7BDF80A10BDF808004B
:10C4A00002F060F9804668B1BDF80A0003F05EFE54
:10C4B00010B1784605F002F9B8F1060F0CBF082359
:10C4C0001023B7E701F0B4FA638834F8042B01971E
:10C4D0002068009029463046FEF733FB0D238DF887
:10C4E0001030BDF80830ADF8143004A8BDF80A309B
:10C4F000ADF81630FEF78EF9A1E72DE9F0470B896C
:10C50000062B8CB007460E461DD14D682888FEF7D5
:10C5100089F9B6F80890B9F1040F0CBF0124002482
:10C5200014D1AB78EA7843EA0223ADF80E304FF627
:10C53000FF784FF6FF7A504511D10123224631464C
:10C540003846FEF7D7FB0CB0BDE8F0872B796A7947
:10C55000B5F8028043EA0223ADF80E30E9E7ADF802
:10C560000C8002AA039902F0EDFA20B9B9F1040F88
:10C5700003D0D04501D10223E0E70CAA052322F81D
:10C58000263D04A9BDF80800FFF7D0F803460028AF
:10C59000D4D18DF81C002B88BDF80A40ADF81D30B1
:10C5A000AB88ADF821306400A4B26B88ADF81F30C1
:10C5B000224604A90DF123000FF07DFD07F0A0FF36
:10C5C0000734A4B20190009407AB48F22C02314624
:10C5D0003846FEF74DF9B6E72DE9F04F0C89082CE7
:10C5E0008FB080460D4601D0062C27D16E68B788E3
:10C5F000062C4FF000031CBFB946F7888DF82C308D
:10C600003388ADF82D307388ADF82F3008BF4FF662
:10C61000FF797368CDF83130062C12D18FB90D2314
:10C620008DF82C3007F06CFF0723019000930BABC3
:10C6300048F23E0229464046FEF71AF90FB0BDE81F
:10C64000F08F3088FEF7EEF84FF6FF73984282467F
:10C650000BD10123062C14BF092407248DF82C309C
:10C6600007F04EFFCDE90040E1E7ADF82090ADF8CE
:10C67000227007AA089902F065FA4D4B1B689B04CB
:10C6800083461DD54B4B1B68032B19DD2F214A48D0
:10C690000FF0ECFDF8B12F2147480FF0E7FD411CEA
:10C6A000BDF81C20454BD3F80435CDE90392444A2C
:10C6B0000092CDE901A740F68912042009F0CCFED2
:10C6C000BBF1000F05D1062C0ED04FF6FF73994534
:10C6D0000AD10223BEE75C2137480FF0C7FD08B13D
:10C6E0005C21D9E73449DBE77088C0F30B0003F025
:10C6F000F7FD2A8848F23D039A420646BDF81C0021
:10C7000010D1162331468DF82430ADF82800ADF84D
:10C710002A6002F0C3F8052843D0072845D018B393
:10C7200010233FE0172331468DF82430ADF8280060
:10C73000ADF82A6002F0DAF80028ECD10DF11E0104
:10C74000BDF81C0002F03AF910B1784604F0B6FFCB
:10C75000BDF81E30B34207D1BDF81C0002F05AFAF2
:10C7600010B1784604F0AAFF00238DF82C3001F0B8
:10C770005FF9062C14BF0924072407F0C1FE0BAB98
:10C78000CDE9004048F23E0229464046FEF770F8E7
:10C790009DF82C30002B7FF451AF09A8FEF73AF832
:10C7A0004CE702238DF82C30E3E70323FAE700BFC0
:10C7B000602E00205C2E002089D103000010014073
:10C7C000EBD103002DE9F04F0A880B89032A89B0C9
:10C7D00007460D4627D10D2B01D00B2B56D16A6889
:10C7E0000B2BB2F8093014BF117BADF80E301FFAD5
:10C7F00083FA18BFD37A14461CBF43EA0123ADF86D
:10C800000E3034F8049BB2F802800ABF01260026DD
:10C810004FF6FF7A4846FEF705F84FF6FF7B58457E
:10C8200024D101232DE048F21A018A4203D123F0DA
:10C830000202192A2AD16C68192BB4F8173014BFD8
:10C84000A27EADF80E301FFA83FA18BF637E34F86B
:10C85000129B15BF43EA0223012600264FF6FF7AFA
:10C8600018BFADF80E304FF00008D3E7ADF80CA0BC
:10C8700002AA039902F066F910B956B9DA4508D14F
:10C880000223324629463846FEF7E1FD09B0BDE8ED
:10C89000F08F6378207803F00F0340EA032003F061
:10C8A0001FFD4FF6FF739842824601D10323E8E74C
:10C8B0004046ADF80A3007F063FC2B88032B32D1D9
:10C8C0000228AED000F0FD00012840F0E1800DF11B
:10C8D0000A01BDF8080001F0EFFD58B10DF10A01A1
:10C8E000404603F0A5FB00283CD004280CBF0523DC
:10C8F0001023C6E704A9BDF80A0003F005FC0028D0
:10C90000ECD19DF81030022B03D0BDF81230434516
:10C9100028D0BDF80A0003F0AFFB0028DED078462F
:10C9200004F0CCFEDAE76B68BDF808000DF10A01EF
:10C9300003F1020B01F0C0FD28B10DF10A015846C8
:10C9400003F096FBCFE704A9BDF80A0003F0DCFB77
:10C950000028F2D19DF81030022B25D09DF8103020
:10C96000022B28D1B8F1000F2FD0227994F8038040
:10C97000BDF80800C2F302014FF0000B61F3020B97
:10C98000D20862F3C70B00224FEA981311460193B5
:10C9900001F07EFE08F03F08019B28B306281ED058
:10C9A000784604F08BFE71E71022594605980FF087
:10C9B00073FB0028D2D0BDF80A0003F05DFB00280D
:10C9C000BBD0784604F07AFEB7E72A8848F21A030B
:10C9D0009A42CAD0BDF8080002F01CF93DE0B8F157
:10C9E000000F0ED007234CE7B8F1000F09D04246E4
:10C9F0001946BDF8080001F04BFE10B1784604F06E
:10CA00005DFE5946BDF8080001F06AFD10B1784698
:10CA100004F054FEBDF80A10BDF8080001F02EFD28
:10CA200010B1784604F04AFE5146BDF8080001F006
:10CA3000A7FF10B1784604F041FE6178BDF8080008
:10CA4000C1F3001101F0E0FF10B1784604F036FEAA
:10CA5000A178BDF8080002F007F810B1784604F09C
:10CA60002DFE00F0E5FFBDF8083038464A4629465D
:10CA7000FEF705FA0023CDE9063302238DF81830BE
:10CA800006A8BDF80830ADF81C30FDF7C3FEFDE682
:10CA9000B8F1000F7FF469AF9CE7000030B587B0B4
:10CAA0001622002105460DF102000FF00FFB0E4B80
:10CAB00002934FF6FF742E230C480393ADF8004009
:10CAC00007F016FD0A480BF0C5F80A4B1B88A34275
:10CAD00002D0784604F0F2FD074B06491D60684617
:10CAE00001F0BCFB07B030BD30D20300AC2D0020FC
:10CAF00041A80200A82D0020A834002030B5002451
:10CB0000A24200D830BD30F814300B70651CC3F35E
:10CB10000323AA424B7007D900EB44056D8843EA12
:10CB200005132D094B708D7002340331E8E70000C6
:10CB300082B0064B0190C0F30F40A0F50C7080B29C
:10CB400053F820309B780B7002B07047D43400202B
:10CB5000C0F30F40A0F50C7080B2044B53F82030A6
:10CB600082B000229A7002B0704700BFD434002017
:10CB700070B5144D2C68002634B92B6803BB1248DD
:10CB8000BDE8704007F0B4BE94F8503013B1013BDB
:10CB900084F8503094F8503043B92B689C4208D147
:10CBA000636D2B60E36C0021204698472646646D38
:10CBB000E2E716B9784604F081FD636D7365F1E72D
:10CBC00070BD00BFD0340020B434002030B587B031
:10CBD00090F850308DF804300C4B029301AB039366
:10CBE0000123ADF8103000238DF8123002230446E3
:10CBF0000D468DF8133007F083FC02AA05902946F4
:10CC0000208801F02DFC07B030BD00BF0780FFFF7A
:10CC10000B8913B91046FFF7D9BF704730B587B0FD
:10CC200083788DF804300C4B029301AB03930123FE
:10CC3000ADF8103000238DF81230022304460D4663
:10CC40008DF8133007F05CFC02AA05902946208875
:10CC500001F006FC07B030BD3780FFFF0B8913B928
:10CC60001046FFF7DBBF704738B504460D4608F0A5
:10CC700029FB94F8503084F850505BBB55B3E36CFB
:10CC800001212046984708F01DFBE36C13B9784654
:10CC900004F014FD94F8503013B9784604F00EFDFA
:10CCA0000E4B196861651C6091B90D4C1822204625
:10CCB0000FF00CFA07F05CFE00F5742000F5107020
:10CCC000084B6060E3602046074BA36007F0EEFD71
:10CCD00008F038FBBDE8384008F034BBD034002001
:10CCE000B434002040420F0071CB020038B50B89EC
:10CCF000012B0C46154611D1D36C23B14B6810465D
:10CD00001978FFF7B1FF228848F205039A4205D14E
:10CD100021462846BDE83840FFF758BF38BD00001F
:10CD200037B50B89012B0C46154618D149680B788D
:10CD30000E2B0BD9228848F235039A420FD1214697
:10CD4000284603B0BDE83040FFF768BF054B1B68BD
:10CD5000934204D104480BF0BFFB0028EAD003B093
:10CD600030BD00BFD4340020030030024B0901F075
:10CD70001F024FF0FF31914050F82320114049B17C
:10CD80004A420A4008495143C90E084A505C00EB28
:10CD9000431070470133072B02D850F82310EEE7F9
:10CDA0004FF48070704700BF31B57C07FCD303009F
:10CDB0002DE9F043C7B0042905AE437A33700CBFA8
:10CDC00000F12C0900F10C094389A6F80130054651
:10CDD0008846484600211746FFF7C8FF0024B0F5F3
:10CDE000807F23461BD14FF6FF73ADF8063000233A
:10CDF0008DF80E3003340223ADF804800296ADF8AE
:10CE00000C408DF80F3007F07BFB049028888FB121
:10CE100001AA394601F024FB47B0BDE8F083334452
:10CE2000411C0134FF29E4B2D870DCD84846FFF732
:10CE30009DFFD4E701A901F0E7FAEDE708460022DB
:10CE40000421FFF7B5BFF8B50B89032B0D46144637
:10CE500010D11388834202D0784604F02FFC6E680C
:10CE60006389B6F801108B4204D1207A0023DAB22C
:10CE7000904200D8F8BD626812F833C002EBC307D5
:10CE80003278624503F10103F1D17B68204698476F
:10CE9000337863722A8848F232039A42EAD12A46EA
:10CEA00020460521BDE8F840FFF782BF38B50B8961
:10CEB000022B0D46144611D11388834202D07846C6
:10CEC00004F0FCFB6B681A8863899A4206D12A46F3
:10CED00020460521BDE83840FFF76ABF38BD38B5A8
:10CEE0000B89022B0D4614461CD11388834202D0B5
:10CEF000784604F0E3FB6B681A8863899A4211D183
:10CF00002022002104F10C000FF0E0F82A8848F2FA
:10CF10002F039A4206D12A4620460521BDE8384013
:10CF2000FFF746BF38BD38B500F12C050021284673
:10CF3000FFF71CFF0024B0F5807F01D1E0B238BDBF
:10CF4000411CFF2904F10104F8D82846FFF70EFF21
:10CF5000F1E7000037B50190C0F30F40A0F50C7069
:10CF60000C4B0D7880B253F82040A378AB420DD023
:10CF7000A5702046FFF7D7FF40B10121A9402088C6
:10CF800089B203B0BDE8304001F066BB002003B0B9
:10CF900030BD00BFD434002070B586B0C3640A9B96
:10CFA000436000259DF82C300372044642810E46F2
:10CFB000457280F8505085704565202229460C3016
:10CFC0000FF084F82946202204F12C000FF07EF89F
:10CFD0000B4B00930B4B02930B23CDE903342146FB
:10CFE000094BADF804606846059301F037F928B99C
:10CFF000064B43F82640208801F080FB06B070BD48
:10D00000FFFF0200A4D303003DCE0200D434002071
:10D0100038B5837803F003020446032A22D8DFE8F8
:10D0200002F00214191D9B08154A16481268134491
:10D030000268A3600021EAB195685D1B002D16DA35
:10D04000D1B91146E160046038BD9B0803EB83034E
:10D050005B00E9E79B0864225343E5E79B0841F244
:10D060007072F9E7784604F029FB0023DCE71146EB
:10D07000D268E0E70029E5D0CC60E260E4E700BFD9
:10D08000F0340020F834002008B5032809D8DFE880
:10D0900000F00D020406064808BD0648FCE70648F5
:10D0A000FAE7784604F00AFB0020F5E70348F3E7C7
:10D0B00040420F00809698000046C323A0860100DE
:10D0C0002DE9F041574D2B78A3B1574B574E5C6873
:10D0D00007F04EFC241A3078FFF7D6FF3278544B15
:10D0E000001B002A40D14CF2503290423CD91A68C1
:10D0F00001321A60DFF84881D8F80020002A00F0D9
:10D1000087804A4E9378307803F003038342344695
:10D1100064DD474B97681B68FB1A464F5F43FFF778
:10D12000B3FFD8F80030B7FBF0F09F78C7F30107E2
:10D13000FBB2022B1FD031D8012B47D10A22B0FB02
:10D14000F2F302FB1300002840D107F011FC00F5B8
:10D15000742101F5107137702B78002B50D03248B4
:10D16000BDE8F04107F0DBBB1A683249B0FBF1F0D3
:10D1700010441860BEE7337863B96422B0FBF2F361
:10D1800002FB130010BB07F0F3FB2B490223014401
:10D190002370E1E7012B19D10A22EFE7337863B955
:10D1A00041F27072B0FBF2F302FB130070B907F0AA
:10D1B000DFFB224903230144EAE7012B02D14FF4AC
:10D1C0001672EFE7022B01D13C22EBE707F0D0FB10
:10D1D00006462078FFF758FF3118BDE707F0C8FB77
:10D1E000D8F800300446987800F00300FFF74CFFB1
:10D1F000D8F800309B78C3F3010321183370ABE7F4
:10D200000948012341602B70BDE8F04107F04EBB97
:10D210002B7823B10448BDE8F04107F069BBBDE8B5
:10D22000F08100BFF4340020D8340020F534002011
:10D23000F0340020A0860100809698000046C323A9
:10D24000F83400202DE9F341244B1B78032B2AD816
:10D25000DFE803F0021B1F23214A13680133136028
:10D26000204B214E1E4D00221A70B04634683CB14E
:10D27000A3682A6893421AD02A689B1A002B16DBEF
:10D28000FFF71EFF02B0BDE8F081154A13680A33AC
:10D29000E5E7134A13686433E1E7114A136803F5BD
:10D2A000BB531033DBE7784604F008FAD8E7278849
:10D2B000E368C8F8003002A9002341F8043D38466D
:10D2C00001F094FC10B1784604F0F8F93846636830
:10D2D000019998472046FFF79BFEC7E7F5340020E9
:10D2E000F0340020F4340020F834002010B5084C4D
:10D2F0001822002120460EF0E9FE064B064AA360E4
:10D3000000231360054A1360054A137010BD00BF67
:10D31000D834002045D20200F0340020F834002038
:10D32000F4340020F8B50F461646044610B9784686
:10D3300004F0C4F9124D07F0C5FF2B6800220BB1B1
:10D34000A34216D1A17867F3010166F38701A170AA
:10D350009BB1DB6882B92B602EB12046FFF758FEE7
:10D360002B689C4201D1FFF7ABFEBDE8F84007F007
:10D37000E9BF1A46DB68E2E7D360002EF5D0ECE7A0
:10D38000F83400204FF6FF700D49F0B50023242437
:10D39000064604FB03129DB292F8397057B1B042B1
:10D3A0000CD004FB0017126B3F6BD21B30EA22003B
:10D3B00028BF28460133032BEBD1F0BD2846F9E7FF
:10D3C000FC34002038B5154C242303FB00430546EC
:10D3D00093F8393013B9784604F070F9B4F8843012
:10D3E00013B9784604F06AF9242202FB05430021B0
:10D3F00083F83910B4F88430013B9BB2A4F8843030
:10D400001BB94FF6FF73A4F8863002FB0544A06AEF
:10D410000BF0C9FD0023A36238BD00BFFC3400201F
:10D420002DE9F84F2D4DB5F88430064613B97846EE
:10D4300004F044F92A4C06F57A7B00274FF00109E5
:10D4400048F2111A637C1FFA87F8C3B1A368A3EBF3
:10D450000B03002B13DAA3882268A4F110014046C5
:10D4600000F0DAFE102828D809FA00F313EA0A0FB0
:10D4700026D11C4A13421FD04046FFF7A3FF0137B5
:10D48000032F04F12404DDD1FFF77CFFB5F88430CD
:10D49000A5F88600FBB1022802D9784604F00EF9FF
:10D4A000B5F88630242202FB03531B6B9A1B48BF3E
:10D4B000F21AEA60BDE8F88F10B1784604F0FEF881
:10D4C000237C013BDBB22374002BD5D0D4E902329C
:10D4D0001344A360D3E7EB60ECE700BFFC3400200B
:10D4E00024350020A002010010B5064C882200213E
:10D4F00020460EF0EBFD044BA3604FF6FF73A4F83B
:10D50000863010BDFC34002021D402002DE9F04704
:10D5100002280646884617469A46BDF8209002D94A
:10D52000784604F0CBF8B8F1000F02D1784604F049
:10D53000C5F817B9784604F0C1F898F800305B07D1
:10D5400002D1784604F0BAF8BAF1000F02D1784659
:10D5500004F0B4F8B9F1000F02D1784604F0AEF847
:10D56000274C242303FB064393F8393013B130468C
:10D57000FFF728FF07F0FCF9844697E80F00242501
:10D5800005FB064505F1180E8EE80F00C5F828A02A
:10D59000A5F82C9098F80030C3F3020385F83830D2
:10D5A00098F80000C3084CF2503003FB0000012340
:10D5B00085F83930B4F884306863604401332863F7
:10D5C000A4F88430FFF7DEFEB4F88630834201D140
:10D5D0009E4213D14FF6FF739842A4F8860002D101
:10D5E000784604F06BF8B4F886300548242202FB34
:10D5F0000344216BBDE8F04707F091B9BDE8F0871F
:10D60000FC3400204A09012301F01F0103FA01F153
:10D6100050F82230194214BF0120002070474FF605
:10D62000FF72B2EB104F82B083B215D113F47F407A
:10D6300007D003F44043B3F5004F14BF002001208E
:10D6400006E023F07F022AB97F3B18BF012318466A
:10D6500002B070470346FAE723F03F03C02BECE724
:10D6600002289FBF054B382202FB003090F834009F
:10D6700094BF00F001000020704700BFC0350020BB
:10D68000004700004388C3F30B03022B02D900209C
:10D6900008707047064A12F8331041F0010102F891
:10D6A000331002EBC3034268D2435A600120704733
:10D6B000683600204388C3F30B0313B100200870C1
:10D6C0007047024B82881A800120704786350020FF
:10D6D00007B513464FF47042ADF804200122ADF8AF
:10D6E00006001A7003480A4601A909F0F5F903B0CB
:10D6F0005DF804FB9835002070B51C460B89B3F526
:10D70000BE7F0546164606D3092323602068B0FA7B
:10D7100080F0400970BDFFF7A3FF28B10C48382303
:10D7200003FB050083890BB10523EEE73EB9828830
:10D730004FF6FF739A4206D0C2889A4203D0086817
:10D74000FFF76DFF08B90723DFE70023DDE700BF20
:10D75000C0350020784603F0B1BF000008B5094B82
:10D76000094800221A70094B01221A7009F0A2F927
:10D7700020B10748BDE8084009F0D8BB054B187038
:10D7800008BD00BFBD35002098350020BC35002005
:10D79000C82D00208435002010B5A82200210E4895
:10D7A0000EF094FC062200210C480EF08FFC18228B
:10D7B00000210B480EF08AFC074B4FF6FF7203F175
:10D7C000A80103240120DA809A80DC819A81988460
:10D7D00038338B42F7D110BDC0350020863500208C
:10D7E000683600202DE9F04FD5B0044607A80D4655
:10D7F00004929946BDF8788102F00AFC704BBDF89E
:10D800001E10049A382000FB04308789B94205D8DD
:10D810004FF0100A504655B0BDE8F08FBDF81C100F
:10D82000049108AE002A00F0968002F10C0103C9B1
:10D83000B2F81EB0B2F824A0127F86E80300002AD6
:10D8400000F09980382202FB0434647CFF2C01D163
:10D850005C4B1C78B9F1000F02D1784603F02EFF23
:10D86000B8F1000F02D1784603F028FF0AAB184642
:10D870002422002105930EF029FC504610AA594697
:10D8800003F03AF9059B82460028C3D1049A9C72A2
:10D8900096E803001744AA7ADA72EA7A1A7383E8E0
:10D8A0000300EA681F8151461846C3F81090A3F898
:10D8B00014801A6206F01AFE82460028AAD1424C51
:10D8C000226892041AD5414B1B68042B16DD2F21C8
:10D8D0003F480EF0CBFC00284FD02F213C480EF0E3
:10D8E000C5FC411C3B4B2A88D3F8043501923A4AC7
:10D8F000009205204FF4CE7208F0AEFD23689B0421
:10D9000088D5324B1B68042B84DD2989334B802951
:10D91000186828BF8021002313AC8B4236D1002227
:10D920002F212B4804F813200EF0A0FC00283BD038
:10D930002F2127480EF09AFC411C264B284AD3F889
:10D9400004350192274A0092029440F29D1205206C
:10D9500008F082FD5EE7B0F804B0C0880593314658
:10D9600002F0D2FB48BB7288002A3FF451AF4FF659
:10D97000FF7A059B66E714466CE75C2114480EF0BD
:10D9800075FC08B15C21A9E71149ABE76A68D25C74
:10D99000160902F00F02865D04F81360865C04EB42
:10D9A000430201335670B8E75C2109480EF05EFC73
:10D9B00008B15C21BDE70649BFE74FF0050A29E73A
:10D9C000C0350020E82D0020602E00205C2E0020B5
:10D9D000CED4030000100140EAD40300642E0020DE
:10D9E000FED4030069C6030030B5012A8DB0044699
:10D9F0000D4604D1784603F061FE0DB030BD022A19
:10DA0000F8D0032AF9D12C22002101A80EF05EFBE8
:10DA100011238DF8043002238DF80830E368059354
:10DA200001A823690395069305F022F9E5E70000B4
:10DA30002DE9F047474B1B78002B00F0888007F05A
:10DA400041FC454B1B78BBB9444C23786BB906228B
:10DA50000121434809F0EDF870B103220125C5808A
:10DA60000281828009F014F9257000243D4EDFF810
:10DA7000F0802546A1B21DB13B4809F057FA5EE09F
:10DA800016F8343003F00303032B4FEAC40711D117
:10DA9000042241F44051404609F0CBF8002852D00E
:10DAA000F3195B68DB43436009F0F2F8BB5D23F0D8
:10DAB0000203BB550134032CDCD1002DDCD12B4CEF
:10DAC00063799B070FD502224FF48051244809F057
:10DAD000B0F80028D0D02288828009F0D9F8637984
:10DAE00023F002036371DFF88880DFF8749000246C
:10DAF0003827A1B2002DBFD107FB048696F8343039
:10DB000003F00303032B15D1142241F400514846BE
:10DB100009F08FF88246C0B11422314604300EF06D
:10DB2000CAFA504609F0B4F896F8343023F00203EC
:10DB300086F834300134032CDBD1002D9CD1BDE8B4
:10DB4000F04707F0FFBB1125B4E71125F2E7BDE868
:10DB5000F08700BF84350020BC350020BD35002093
:10DB60009835002068360020D82D0020863500200A
:10DB7000C03500204A0901F01F034FF0FF319940E2
:10DB800050F82230194009D04B420B400449594308
:10DB9000C90E044B585C00EB4210704705207047DB
:10DBA00031B57C07AED403002DE9F04F85B0814636
:10DBB000924698460E9F0D4611B9784603F07EFDB9
:10DBC00003AB524629464846FFF796FD18B903981D
:10DBD00005B0BDE8F08F69882B884FF6FF7291423F
:10DBE00030D1B3F5807F34BF4FF0010B4FF0020B03
:10DBF0002E895E44B6B230460BF0D3F9044680B3AA
:10DC00006A882B884FF6FF708242D9B21DD06270AD
:10DC1000120A2170A2702A89696804EB0B000EF0C9
:10DC20004AFA00962346524629464846FFF7DAFD4F
:10DC3000039018B9B8F1000F00D077B920460BF067
:10DC4000B2F9C4E74FF0030BD2E713F47F4F1DBFC7
:10DC50001B0A237061702170DDE7C8F800403E8028
:10DC6000B6E70420B4E7000038B54388C3F30B03DC
:10DC7000022B044610D8028A72B91B48382202FBD4
:10DC80000302D589628A022D09D8954204D1174D25
:10DC900015F83250ED0704D40020087038BD022A70
:10DCA00006D8124D15F8321041F0040105F8321073
:10DCB00038251422211D05FB03000EF0FCF9A18874
:10DCC000238A4FF6FF729142094A4FF0060101FB89
:10DCD00003234FF001000BBF9A78DA78013201324A
:10DCE0000CBF9A70DA70D9E7C03500206836002082
:10DCF000863500202DE9F04F87B006AB062243F8A9
:10DD00000C2D012104AA554808F05CFF044628B1F7
:10DD1000534B0120187007B0BDE8F08FBDF81230EA
:10DD2000012B09D04F4B1B689B0474D402F0C6F83A
:10DD3000FFF714FD002055E0BDF81420032AF1D1AF
:10DD4000BDF81020032AEDD1474A484913704FF41B
:10DD500040500DF10B02FFF7BBFC9DF80B30002B80
:10DD6000E0D0434B43495A791C8022F002025A7199
:10DD70005C800DF10B024FF48050FFF7A9FC9DF879
:10DD80000B30002BCED00DF10B023B494FF400506D
:10DD9000FFF79EFC9DF80B3003B3F8B1374FDFF867
:10DDA000F0A0B9464FF6FF78A346BB89434510D093
:10DDB000F888404505D002F03FF910B1784603F0ED
:10DDC0007DFCFE89032E11D1382303FB049383F8D5
:10DDD00012B00134032C07F13807E6D19DF80B008F
:10DDE00000289FD01E4B01221A7094E70AEBC6064A
:10DDF000043600213046FFF7BDFE05280546E3D076
:10DE0000A8B202F065F910B1784603F057FC691C1E
:10DE10000429EFD9D8E71A4B1B68002B86DD2F2188
:10DE200018480EF023FA78B12F2116480EF01EFA8A
:10DE3000411C154B154AD3F804350092012040F2DD
:10DE4000E23208F009FB71E75C210E480EF00EFA91
:10DE500008B15C21E9E70B49EBE700BF98350020EA
:10DE600084350020602E0020BD35002085D60200BC
:10DE700086350020B5D6020069DC0200C0350020DE
:10DE80005C2E0020CED40300001001401CD40300FF
:10DE9000683600202DE9F04F00F114048FB00546DC
:10DEA000204603F027F88246002879D04FF6FF730A
:10DEB000ADF832302B7D012B75D10DA802F0A8F8FA
:10DEC000EB8ABDF834209B1A9BB209935646554CF9
:10DED0004FF00009002E7CD0A788099BFA1A574200
:10DEE000574194F82C30E98B03F0010320460A9344
:10DEF000FFF788FB29880B90A28C68884FF00008F8
:10DF0000904576D34FF00008C346474B1B689B04EF
:10DF100025D5464B1B68062B21DD2F2144480EF0EA
:10DF2000A5F9002875D02F2141480EF09FF9411C1A
:10DF30000B9A404BD3F80435CDF818B0CDE90472F4
:10DF40000A9A039234F8062C029234F8082C0192B3
:10DF5000394A0092072040F2594208F07DFA0A9BA4
:10DF6000BBB1B7B10B9BA3B1BBF1000F11D02B7D9F
:10DF7000012B1FFA89F704D1A26A2946384601F01D
:10DF800023F8236AA26A03EBC80329465B68384674
:10DF9000984709F10109B9F1030F04F1380499D147
:10DFA0000FB0BDE8F08FEB8A04339BB2032B0AD984
:10DFB0000DF13201204602F033F940B1784603F00A
:10DFC0007DFB002683E70023064609937FE706468C
:10DFD0007DE7E08802280AD8184BBDF8321003EB21
:10DFE000C0000430FFF70EFB00F0010779E7304670
:10DFF000FAE7236A03EBC80C33F838308B4203D1BD
:10E00000BCF80230834202D008F1010878E7D34619
:10E010007BE75C2106480EF029F908B15C2183E713
:10E02000034985E7C8350020602E00205C2E0020C3
:10E03000CED40300001001403ED403006836002017
:10E040002DE9F04303681D7805F0C002402AD1B0E5
:10E0500004460FD003D86AB10026354610E0802A66
:10E0600000F09D80C02AF7D19A785E78ADB246EA7A
:10E07000022605E0ADB27F2D00F08E804FF6FF76D0
:10E080005A4B1A6812F4005F984619D0584B1B6817
:10E09000042B15DD2F2157480EF0E8F8002800F07A
:10E0A00082802F2153480EF0E1F8411C524B534A15
:10E0B000D3F8043500920195F622052008F0CCF93A
:10E0C000E06902F01BF98146A06902F003F94FF6FE
:10E0D000FF739E42ADF81450ADF8166027686BD1FF
:10E0E000FF2D8CBF022301234FF6FF721F4496427F
:10E0F0000697A38862D1FF2D8CBF022201229B1AB2
:10E10000227A8DF820206289ADF82220E2680992F7
:10E11000227C8DF82820628AADF82A2062690B9251
:10E1200094F820208DF83020626A0D92D8F80020F3
:10E13000ADF832909BB29204ADF81C30ADF83800C7
:10E1400027D52B4A1268042A23DD2D4A802B10681C
:10E1500028BF802300220FAC9A4231D100232F2107
:10E16000244804F812300EF081F8002835D02F2111
:10E1700020480EF07BF8411C1F4B224AD3F804358F
:10E180000192214A0092029440F20D12052008F0FB
:10E1900063F905A8FFF77EFE51B0BDE8F0835B7818
:10E1A00043EA05256AE75C2112480EF05FF808B1E2
:10E1B0005C2177E70F4979E7032395E703229EE780
:10E1C000B95C0D0901F00F01455D04F81250455C82
:10E1D00004EB420101324D70BEE75C2105480EF0B0
:10E1E00045F808B15C21C3E70249C5E7602E00206D
:10E1F0005C2E0020CED403000010014093D4030015
:10E20000642E0020A6D4030069C60300037813B966
:10E210000430FFF715BF7047F0B5064685B01446C9
:10E220001D4681B17AB173B103AB0022FFF764FAE6
:10E2300010B9039805B0F0BD009523460022304682
:10E24000FFF7D0FAF6E70E20F4E708B5FFF7A4FAD7
:10E2500000F0F8FEBDE80840FFF780BA2DE9F8436A
:10E260000446002800F0C080002900F0BD80C3688B
:10E270001BB18368002B00F0B7804FF6FF730B8053
:10E28000E3681BB9A368002B40F0B080A388002B83
:10E2900040F0AE80594B1B7813B10F20BDE8F883D6
:10E2A000574AD5789078E84215461CD0B4F800C09B
:10E2B000678854484FF0380E0EFB03F682191FFA98
:10E2C00083F8B2F80C90B9F1000F7FD1B2F8029048
:10E2D000B9457BD1365A664578D1A1F8008092F8CD
:10E2E0003430DE07D9D4D4E902870026B74272D190
:10E2F0000A884FF6FF739A42424B43D193F8342079
:10E3000012F0010208D093F86C20D0076AD593F878
:10E31000A420D20770D4022238200A8000FB0232E7
:10E320004FF6FF76D6800A8800FB023296800A8874
:10E33000A78800FB023297810A88678800FB0232B7
:10E3400057800A88278842439F520A8800FB023080
:10E3500046742088A288B0424FF0060000FB0252AB
:10E360000BBF9078D078013001300CBF9070D07026
:10E370000A88382000FB023292F8340040F0020094
:10E3800082F8340008882569382202FB00300563D2
:10E390000888A56802FB003085620888E56802FBF2
:10E3A000003085850888646902FB00308461088834
:10E3B00002FB0034A082098802FB0133002093F89D
:10E3C000342042F0010283F8342067E70133032B45
:10E3D0007FF472AF87E758F83600FFF720F948B1AD
:10E3E000013683E7012297E70E2057E7092055E71A
:10E3F000052053E7072051E704204FE7843500202C
:10E4000086350020C03500207FB505460E4619B37D
:10E410000DF10A030022009303ABADF80A20FFF7C9
:10E42000C3FB044688B90D48039B38226A43811810
:10E43000C97C49070CD002F11301BDF80A200092F3
:10E44000014432462846FFF761F8204604B070BD0B
:10E4500018460AF0A8FDF8E70E24F6E7C0350020BC
:10E4600013B514460A4639B134B10023009321464E
:10E47000FFF79AFB02B010BD0E20FBE710B5044673
:10E48000FFF7EEF888B1042911D80A48382303FBB6
:10E490000400C3888B4206D090F83430C18043F02A
:10E4A000020380F83430002000E0052010BD072072
:10E4B000FCE700BFC035002010B5044651B1FFF79E
:10E4C000CFF848B1054B382202FB04340020E38822
:10E4D0000B8010BD0E20FCE70520FAE7C0350020B8
:10E4E000022870B51DD8104A382404FB002494F883
:10E4F0003430DD0715D5E47C01F0070504F007068C
:10E50000AE4204D1C1F3C405B5EBD40F07D0382413
:10E5100004FB002043F00203C17480F83430002073
:10E5200000E0052070BD00BFC035002069B10228A1
:10E530000DD8084B382202FB003090F83430DB074E
:10E5400005D5C37C0B70002070470E207047052056
:10E55000704700BFC035002038B50446154699B154
:10E5600092B1FFF77DF888B10A48382303FB040015
:10E5700083696BB1837CC3F301030B70837CC3F3AA
:10E5800085032B70002038BD0E20FCE70520FAE73C
:10E590000620F8E7C03500202DE9F3410DF1070210
:10E5A0000DF106010546FFF7D7FF10B1784603F0DD
:10E5B00085F8284E9DF807709DF80610382303FB58
:10E5C00005633C46B3F82480032923D8DFE801F033
:10E5D00005021A1E07EB87046400B4FBF8F3092B4D
:10E5E0001CD8002F33D0012B38BF0123DFB200210C
:10E5F000382000FB05603A461430FEF793FE02B067
:10E60000BDE8F081642417FB04F4E6E741F270747E
:10E610007C43E2E7784603F051F8DEE7632B05D848
:10E620000A220121B3FBF2F3DFB2E1E741F26F729C
:10E63000934295BF642241F27072B3FBF2F3B3FBD5
:10E64000F2F399BFDFB20221DFB20321D0E73946EE
:10E65000CEE700BFC0350020022810B50FD80B4A06
:10E66000382404FB002393F83420D20707D59A6995
:10E670003AB141B19984FFF78FFF002010BD05200A
:10E68000FCE70620FAE70720F8E700BFC0350020C6
:10E69000022838B52AD8184C382303FB004393F8D6
:10E6A000345015F0010F254620D09C6904B33F2A51
:10E6B00020D803291ED89B7CB2EB930F03D103F023
:10E6C00003038B4210D0382404FB0054A37C62F374
:10E6D000870361F30103A374FFF75EFF94F83430FE
:10E6E00043F0020384F83430002000E0052038BDF8
:10E6F0000620FCE70720FAE7C035002010B5164BCE
:10E700001978044609BBFEF7ABFF00B31348382263
:10E7100002FB0402D289032A13D111490B7813F0AA
:10E72000010206D00B7ADA070DD50B7CDA0710D47C
:10E73000022243F0030301F83230382303FB0404C0
:10E74000E281002010BD0122F3E70F20FAE7052047
:10E75000F8E70420F6E700BF84350020C03500202C
:10E7600068360020F8B504460F46FEF779FFE0B1A1
:10E77000124B382202FB0434E689032E17D00429F9
:10E7800017D80F4CF50004356019FEF73BFF90B920
:10E79000012303FA07F163590B43635114F8363030
:10E7A00043F0020304F83630F8BD0520FCE70620EC
:10E7B000FAE70720F8E70020F6E700BFC0350020A1
:10E7C00068360020F8B504460F46FEF749FFF0B161
:10E7D000124B382202FB0434E689032E19D0042997
:10E7E00019D80F4CF50004356019FEF70BFF68B11E
:10E7F000012303FA07F1635923EA0103635114F873
:10E80000363043F0020304F836300020F8BD05200E
:10E81000FCE70620FAE70720F8E700BFC035002034
:10E82000683600202DE9F843064615460F4641B3E9
:10E830003AB3FEF715FF30B3164B382202FB06360B
:10E84000F389032B21D00024DFF84C90B5F8008029
:10E850002C80F08902280ED809EBC0002146043034
:10E86000FEF7D0FE38B12B88984510D927F8134011
:10E870002B8801332B800134052CEAD10020BDE820
:10E88000F8830E20FBE70520F9E70620F7E70920CB
:10E89000F5E700BFC035002068360020F8B5064611
:10E8A0000F46FEF7DDFEC0B1052918D838250E4CFD
:10E8B000754305F10806A019FEF7A4FE88B90123E7
:10E8C00003FA07F1A3590B43A3512C4494F83430B5
:10E8D00043F0020384F83430F8BD0520FCE707203C
:10E8E000FAE70020F8E700BFC0350020F8B506467B
:10E8F0000F46FEF7B5FED0B105291AD838250E4CC3
:10E90000754305F10806A019FEF77CFE70B10123DE
:10E9100003FA07F1A35923EA0103A3512C44002071
:10E9200094F8343043F0020384F83430F8BD052005
:10E93000FCE70720FAE700BFC035002070B50546A8
:10E940001446A9B1A2B1FEF78BFE98B10B4B2688F5
:10E950003820002200FB05352280A86810F0010055
:10E9600005D04EB10A80238801332380104670BD44
:10E970000E20FCE70520FAE70920F8E7C035002063
:10E9800010B50446FEF76CFE88B1052911D80A4877
:10E99000382303FB040083888B4206D090F8343080
:10E9A000818043F0020380F83430002000E005202D
:10E9B00010BD0720FCE700BFC035002010B504469D
:10E9C00051B1FEF74DFE48B1054B382202FB04342D
:10E9D0000020A3880B8010BD0E20FCE70520FAE77D
:10E9E000C0350020030605D4012803D0024B18705F
:10E9F0000020704707207047E82D0020014B187851
:10EA0000704700BFE82D002010B50446FEF728FE31
:10EA100090B10A4A382303FB0423187C88421EBFA6
:10EA200093F8340040F0020083F83400382303FBED
:10EA300004240020217410BD0520FCE7C03500200F
:10EA400010B5044651B1FEF70BFE48B1054B382214
:10EA500002FB04340020237C0B7010BD0E20FCE769
:10EA60000520FAE7C035002010B50446FEF7F8FD92
:10EA700098B181F080037E2B11D90A48382303FB1B
:10EA80000400437C8B4206D090F83430417443F04C
:10EA9000020380F83430002000E0052010BD07207C
:10EAA000FCE700BFC035002010B5044651B1FEF7A9
:10EAB000D7FD48B1054B382202FB04340020637CAB
:10EAC0000B7010BD0E20FCE70520FAE7C0350020D2
:10EAD00021B128B9034B1B880B8070470E2070476B
:10EAE000052070478635002021B128B9034B9B785B
:10EAF0000B7070470E207047052070478635002048
:10EB000021B128B9034BDB780B7070470E2070479A
:10EB1000052070478635002010B5044661B1FEF728
:10EB20009FFD58B1064B382060431A1852884A801E
:10EB30001B5A0B80002010BD0E20FCE70520FAE7D1
:10EB4000C0350020F7B5019112B310B1052003B014
:10EB5000F0BD4FF6FF73BDF80660BDF804700D49B7
:10EB600013804FF0380C0CFB00F40D191FFA80FED7
:10EB7000AB894BB96D88B54206D1645ABC4203D10A
:10EB8000A2F800E01846E2E701300328EBD1DDE708
:10EB90000E20DCE7C0350020F0B5F1B1EAB1F0B9E4
:10EBA000114E158810806FF0370703201388AB4291
:10EBB00017D207FB006494F8DCC01CF0010F09D0E9
:10EBC000B4F8B44034B9C0F1030421F813401388F9
:10EBD000013313800138E9D1F0BD0E20FCE7052098
:10EBE000FAE70920F8E700BFC035002010B5044659
:10EBF00051B1FEF735FD48B1054B382202FB043414
:10EC00000020236B0B6010BD0E20FCE70520FAE707
:10EC1000C035002070B50646FEF722FD08B3382542
:10EC2000114C7543002205F1140011462044FEF7F3
:10EC300079FB30466619103500F032FA2C44F08822
:10EC400001F01AFA00204FF0FF3373606070A0707B
:10EC5000E07096F83430B07543F0020386F8343033
:10EC600070BD0520FCE700BFC0350020052873B546
:10EC7000054614D80024A6B20DF106013046FFF770
:10EC80009DFE30B9BDF80630AB4202D13046FFF7E9
:10EC9000C1FF0134032CEED1002002B070BD07206B
:10ECA000FBE708B501F0B8F8A0F5805008BD0000FA
:10ECB00010B586B00D4B03930D4B04930D4B05938C
:10ECC00004230293FFF7EDFF0B4C009001236946EC
:10ECD0000A480193237008F019F820B1084808F099
:10ECE00025F906B010BD2070FBE700BFE9D902008E
:10ECF00055D7020039ED0200BC35002098350020C0
:10ED0000B82D002008B5FEF747FD0848084B036002
:10ED100005F0EEFB00F088F9FEF7E8FAFEF7E4FBF9
:10ED2000FFF7C6FF034B00221A7008BD8C35002088
:10ED30000DE20200843500201249002311F833202F
:10ED4000D00744BF42F0020201F833200133032B05
:10ED5000F4D10D4B1A881AB15A7942F002025A7155
:10ED60000A480023C118383391F8342012F0010FFB
:10ED70001CBF42F0020281F83420A82BF2D1FFF729
:10ED800097BF00BF6836002086350020C0350020C0
:10ED90002DE9F04F5A4DB5F89C3085B0804613B937
:10EDA000784602F08BFC574CDFF86CA14FF6FF73EE
:10EDB00008F57A79A5F89E30002604F1040B94F842
:10EDC0002830CBB1A369A3EB0903002B1ADA002387
:10EDD00084F82830B5F89C30013BA5F89C3003A995
:10EDE0002088FFF703FF10B1784602F067FCE36963
:10EDF00003992088012298470136032E04F12C0440
:10EE0000DDD14EE0236AA3EB0902002A66DAA5F8F9
:10EE10009E602C2101FB06B12088FFF7F5FA07461A
:10EE2000E8B1DAF800309B0417D5374B1B68042B88
:10EE300013DD2F2135480DF019FAE8B12F213348A1
:10EE40000DF014FA411C324B324AD3F804350092CB
:10EE500001978022052007F0FFFA082F15D1D4E989
:10EE600008231A445B0022626362A269236AD31AF0
:10EE7000002BC1DA2262BFE75C2124480DF0F6F9CD
:10EE800008B15C21DBE72149DDE7042F01D00F2F1A
:10EE900020D12C2303FB0656B36B03F51C434033F0
:10EEA000B363B5F89C304BB3B5F89E30022B02D952
:10EEB000784602F003FCB5F89E302C2202FB035387
:10EEC0009B6BB3EB080248BFA8EB0302EA6005B0F6
:10EED000BDE8F08F784602F0F1FBC6E7B5F89E205A
:10EEE0004FF6FF718A4206D02C2101FB0252926B31
:10EEF0009B1A002B80DAA5F89E607DE7EB60E6E7C1
:10EF000080360020983600205C2E002006D50300B5
:10EF1000001001402BD50300602E0020F8B5284CCE
:10EF20002C2303FB0043054693F8403013B9784681
:10EF300002F0C4FBB4F89C3013B9784602F0BEFB73
:10EF4000B4F89C202C2000FB0541013A002392B22A
:10EF500081F84030A4F89C205AB3B4F89E20AA420D
:10EF60002CD1896B174A0A444FF6FF7100FB034509
:10EF70009EB295F840702FB1AD6BAF1A002FBCBF99
:10EF800031462A460133032BF0D14FF6FF739942E5
:10EF9000A4F89E1002D1784602F090FBB4F89E309F
:10EFA00007482C2202FB0344A16BBDE8F84005F0A2
:10EFB000B6BC0348BDE8F84005F09ABCF8BD00BFF8
:10EFC00080360020008793030228F8B505460E46D8
:10EFD000174602D9784602F071FB06F073F9114B1F
:10EFE00000202C2202FB003494F8401099B1218BB0
:10EFF000A94210D1A28D33889A420FD1E28D738835
:10F000009A420BD180B2FFF789FF636B0022394629
:10F010002846984702E001300328E3D1BDE8F840D4
:10F0200006F090B98036002010B5044CA0220021D3
:10F0300020460DF04BF8024BA36010BD8036002037
:10F0400091ED0200F7B5154C06F03CF9B4F89C3090
:10F050002BB100232046A4F89C3005F049FC18256C
:10F06000601990F828308BB1665BC76900212C22AB
:10F070000DF02CF801A93046FFF7B8FD10B1784625
:10F0800002F01CFB022201993046B8472C359C2D1A
:10F09000E6D106F057F903B0F0BD00BF803600207E
:10F0A000022873B505462BD806F00CF9154B002441
:10F0B0002C211E4601FB043292F84000B8B1128B9D
:10F0C000AA4214D1A0B2FFF729FF01A92846FFF7F1
:10F0D0008DFD10B1784602F0F1FA2C2303FB046495
:10F0E0000222636B019928469847002403E001340B
:10F0F000032CDFD1052406F025F9204602B070BDAF
:10F100000524FAE7803600202DE9F743054600285C
:10F1100000F0BE80C369002B00F0BA800388022B88
:10F1200000F2B88083695E4AA3F5F413A3F59063F7
:10F13000934200F2B1805B4C06F0C4F8B4F89C3006
:10F14000032B4FF6FF764FF0040710D800232C2036
:10F15000B44600FB034292F84010002940F08F8033
:10F16000664501D19EB20F460133032BF1D106F063
:10F17000E9F8002F7FD1291D2888FFF745F930F0E5
:10F18000040302D0082840F089802C2303FB0643A7
:10F1900093F8403013B1784602F090FA05F0E8FB9E
:10F1A00080462C2000FB06402946202218300CF017
:10F1B00082FF0DF107012888FFF776FC10B1784631
:10F1C00002F07CFA9DF80730FF2B03D1FFF716FC05
:10F1D0008DF80700E988AB884FF6FF72914255D150
:10F1E000FF2B8CBF02230123AA899DF8070013443B
:10F1F00044F620629BB250430B2B00F5433000F5E0
:10F20000A07088BF0B334FF02C0982BF0C2193FBF9
:10F21000F1F302FB0300AB6909FB064598422A6B38
:10F2200028BF1846E863424440442A63A86306F0B6
:10F2300049F8B4F89C3043B1B4F89E30AA6B09FB8E
:10F2400003439B6B9B1A002B08DB2C2303FB064319
:10F250001448996B05F063FBA4F89E602C2303FB14
:10F260000646012386F84030B4F89C300133A4F8F8
:10F270009C3006F067F8384603B0BDE8F083118B88
:10F280002A8891427FF470AF082770E70323ABE729
:10F290000E27F0E70527EEE70727ECE70746EAE742
:10F2A00080027503803600204A09012301F01F0106
:10F2B00003FA01F150F82230194214BF0120002056
:10F2C00070474A09012301F01F0103FA01F150F8C8
:10F2D00022300B4340F8223070474A09012301F0E5
:10F2E0001F0103FA01F150F8223023EA010340F82C
:10F2F0002230704701F11F02520970B5551EA1EB73
:10F3000045140121A140002301399A4201D1012075
:10F3100070BD9D4250F823400CBF0E464FF0FF36A3
:10F32000264201D10133F0E70020F1E72DE9F04753
:10F330004FF6FF73DFF84480DFF844900B800746F8
:10F340000D4600241E464FF0160A21464046FFF7A0
:10F35000ABFF631C40B10AFB04F434F80920BA4245
:10F3600006D12B80BDE8F0872A88B24208BF2B80E7
:10F37000052B1C46E9D10020F4E700BF7C370020B4
:10F3800084370020024B33F820300B80704700BFD9
:10F39000383700202DE9F0415D1E16240D4E6C43D8
:10F3A0000746A01D88463044114610220CF083FE0B
:10F3B000331900225A7101222946A3F80280064817
:10F3C0001A713753FFF77DFF29460448BDE8F04125
:10F3D000FFF777BF843700207C370020803700207C
:10F3E00010B40C46431C0A1D208849885DF8044B64
:10F3F0009BB2FFF7CFBF000070B516244443074E01
:10F400000D46A11D10223144281D0CF054FE325B24
:10F410002A8033195B886B8070BD00BF8437002061
:10F42000044A0B46142101FB002104311022184626
:10F430000CF041BEF0380020042201480CF03BBE25
:10F440002A3800200846042201490CF034BE00BFCF
:10F450002A3800202DE9F0414488012C05463ED091
:10F4600004F47043B3F5005F43D009D8002B39D0C2
:10F47000B3F5805F3BD0784602F020F900240BE022
:10F48000B3F5804F07D0B3F5A04F2ED0B3F5405F52
:10F49000F1D1032400E00424174F6E881C2202FBE4
:10F4A0000472052C9289A6EB02062A8802F57F5287
:10F4B00002F13F024FEA820205F1040895B202D937
:10F4C000784602F0FBF81C2303FB047441463046E7
:10F4D000A3692A46984731466068FFF7F2FE01208B
:10F4E000BDE8F081023CE4B2D6E70524D4E701246C
:10F4F000D2E70224D0E700BFA0D5030010B5044630
:10F5000010B9784602F0DAF82346BDE810401847F3
:10F5100010B5044610B9784602F0D0F8084B93F8BD
:10F52000642003F122001AB1844207D003F14300A2
:10F53000241A18BF4FF0FF34A0B210BD0020FCE722
:10F54000443800202DE9F8432A255D43164C9146A6
:10F550008046A81D10220F46204449461E460CF046
:10F56000AAFD05F119000021102220440CF0AEFD87
:10F57000691D2144484606F05BFE10B1784602F052
:10F580009DF82A237343E218002111719175578069
:10F590003146064824F80380FFF793FE31460448BD
:10F5A000BDE8F843FFF78DBE5037002048370020F4
:10F5B0004C370020F8B50D4606462A247443002136
:10F5C000104E1746284624220CF080FDA11D102263
:10F5D0003144281D0CF06FFD325B2A8033195A88A4
:10F5E0006A809B7D4BB104F11901314405F114008F
:10F5F0001022BDE8F8400CF05EBD3B88043B3B8028
:10F60000F8BD00BF503700202DE9F0418046AC2402
:10F610000D46144E04FB08F4002117462846242208
:10F620000CF054FD06EB0408335B2B8098F8643033
:10F63000AB70A11C10223144E81C0CF03CFD98F882
:10F6400064304BB104F11201314405F11300102272
:10F65000BDE8F0410CF02FBD3B88043B3B80BDE88A
:10F66000F08100BF4438002001F11F0252099200CE
:10F6700000210CF02BBD00002DE9F041204CAC2501
:10F680005543164605F16803621923440F469367F4
:10F69000804610B91B4B01221A7005F1220121444A
:10F6A000384606F0CEFD10B1784602F007F805F1B5
:10F6B0007C012144384606F0D5FD10B1784601F0B2
:10F6C000FDFFA81C3946102220440CF0F4FC05F183
:10F6D00012001022002120440CF0F8FCAC237343EC
:10F6E000E21824F8038000233146074882F864308A
:10F6F000FFF7E7FD31460548BDE8F041FFF7E1BD02
:10F7000044380020283800203C38002040380020B1
:10F71000F8B50D1F14246C430C4F0646201D3146CE
:10F72000102238440CF0C7FC3919304606F0C2FDEF
:10F7300010B1784601F0C2FF29460548FFF7C1FD28
:10F7400029460448BDE8F840FFF7BBBDF03800206B
:10F7500030370020343700200B46011D89B218468F
:10F76000FFF7D6BF08B5064B064800221A7007F00F
:10F77000A1F920B10448BDE8084007F0D7BB08BD97
:10F78000F2370020F4370020EC2D00202DE9F8435B
:10F790000446884605F096FD052C02D9784601F00E
:10F7A0008DFF154BDFF85C901F78C7B11C2505FB5A
:10F7B00004951248A9892A69414489B207F039FAA7
:10F7C000064660B10246011D6B69404698473046C7
:10F7D00007F05EFA05F0B6FD3846BDE8F8831C2355
:10F7E00003FB04944146A068FFF76BFD044807F053
:10F7F0009DFB0027EEE700BFF2370020F437002022
:10F8000018380020A0D50300F8B505460E4605F0CF
:10F8100059FD052D02D9784601F050FF0F4B104FCE
:10F820001C7874B91C2303FB05753146A868FFF7E3
:10F8300048FD0C4807F07AFB002405F083FD2046C4
:10F84000F8BD1C2303FB057307489989314489B22D
:10F8500007F034FA0028E5D1EFE700BFF2370020C7
:10F86000A0D5030018380020F43700202DE9F84314
:10F87000184D0026AF68D5F80080384641465FFA3B
:10F8800086F9FFF737FDF8B1052E1FD1BDE8F883E3
:10F8900021463846FFF708FD70B121466868FFF73A
:10F8A00003FD214660B14846FFF770FF0028EDD008
:10F8B00021463846FFF711FD0134A045E8D1E3E7C2
:10F8C0004846FFF7A1FFF1E70446F6E701361C358D
:10F8D000D0E700BFA0D5030008B528B9784601F0ED
:10F8E000EDFE4FF6FF7008BD034BC01A18BF4FF076
:10F8F000FF3080B2F7E700BFB838002008B528B95C
:10F90000784601F0DBFE4FF6FF700FE0094B98429E
:10F910000DD0094B9842F6D303F158029042F2D829
:10F92000C01A1623B0FBF3F0013080B208BD0020EE
:10F93000FCE700BF5437002088370020F8B50C469C
:10F94000154683B20A1D064649882088FFF7FAFD4E
:10F95000242D1DD1124F2A2575437B190122143401
:10F9600005F119009A752146102238440CF0A3FBCA
:10F9700005F118013944204606F05AFC10B17846CA
:10F9800001F09CFE2A2303FB06763379F375F8BD5C
:10F99000142DFCD07846BDE8F84001F08FBE00BFC2
:10F9A000503700202DE9F0410D46174E074690468E
:10F9B000033182B2AC242888FFF75EFEAB7804FBEB
:10F9C000076282F86430D3B1B8F1240F02D07846D0
:10F9D00001F074FE7C43133504F112002946102215
:10F9E00030440CF068FB04F143013144284606F032
:10F9F00028FC38B17846BDE8F04101F05FBEB8F1AF
:10FA0000140FF7D1BDE8F0814438002010B501296A
:10FA10008CB0044604D1784601F050FE0CB010BD05
:10FA20000229F8D00329F9D12C22002101A80CF0D9
:10FA30004DFB11238DF8043002238DF80830054B5F
:10FA40000394DA681B69059201A8069303F010F984
:10FA5000E4E700BFF437002011460020FFF7D6BFCF
:10FA600008461146FFF7D2BF41090A4A00F01F03BA
:10FA7000012000FA03F352F821205B42134008D022
:10FA80005A421A40044B5343DB0E044AD05C00EB4D
:10FA9000411070473C38002031B57C0748D6030040
:10FAA0002DE9F74F804692460E46002953D004F0C8
:10FAB00067FB0228814627D020F00207FBB2012B0A
:10FAC00022D14FF6FF74354B354A0025A3465C45DD
:10FAD0000ED11046294601930092FFF7E5FBDDE9C0
:10FAE000002328B9ACB20135042DF0D1002305E084
:10FAF00033F825104145F6D1ACB20123BAF1000F1D
:10FB000004D1B9F1030F28D0102021E0FFB2012F5A
:10FB1000FAD1ABB94FF6FF72944223D01F4A204866
:10FB200022F8248002EB840221465380FFF7C9FBB0
:10FB300021461C48FFF7C5FB21463846FFF726FE45
:10FB4000164B348003EB8404A3780133A3700020A8
:10FB500003B0BDE8F08F0E20FAE7BBB94FF6FF7295
:10FB6000944201D10420F3E70C4A0D4822F8248086
:10FB700002EB840221465380FFF7A3FB214609488C
:10FB8000FFF79FFB21460120FFF700FE034B348067
:10FB900003EB8404E3780133E370D8E738370020BF
:10FBA000203700202437002010B54FF6FF730B805C
:10FBB000094B1B6813F001030C4602D10B80002097
:10FBC00008E00146102205480CF066FA0028F6D13C
:10FBD0002080012010BD00BF30370020F438002005
:10FBE0002DE9F3414FF6FF770E461446ADF8067047
:10FBF000804638B331B30DF10601FFF7D5FFBDF8EC
:10FC000006301D1DADB250B9BB421DD0294640463D
:10FC1000FFF77EFDBDF806100220FFF7B7FDBDF827
:10FC200006300A4A3580142101FB032334B9DA78FF
:10FC30000132DA70002002B0BDE8F0819A7801321A
:10FC40009A70F7E70E20F6E70420F4E7F03800207A
:10FC50004FF6FF730B80084B1B6813F0010308D0AD
:10FC6000064B1B8883424FF0000004D1088001201E
:10FC700070470B80184670473C38002044380020FD
:10FC80004FF6FF730B80084B1B6813F0010308D07D
:10FC9000064B1B8883424FF0000004D108800120EE
:10FCA00070470B80184670474837002050370020B7
:10FCB000042803BF024B186800F0010000207047C1
:10FCC00030370020032808B5014605D80648FFF75D
:10FCD000EBFA00F0010008BD042805BF034B1868CB
:10FCE000002000F00100F4E720370020303700202A
:10FCF0000328F8B5044617D801461748FFF7D4FA89
:10FD000090B1164E06EB8403987858B9DD7815BB90
:10FD100021461148FFF7E1FA26F824502146012038
:10FD2000FFF772FD002016E02046FFF7C1FF88B103
:10FD3000043C0B4F142565437B1998780028F1D1BA
:10FD4000DE7846B921460748FFF7C7FA7E532146B9
:10FD50000220E5E70520F8BD2037002038370020D5
:10FD6000F03800203037002010B5094B0A8884B2E3
:10FD7000214623F8242003EB8403002205485A80FF
:10FD8000FFF79FFA21460448BDE81040FFF799BAF3
:10FD90003837002020370020243700201FB51A4BA9
:10FDA0001B781BB9002005B05DF804FB04AB0A22E8
:10FDB00043F8102D012101AA144806F003FF034661
:10FDC0000028EFD1BDF80A20042A0FD1BDF80C207D
:10FDD000012A0BD1BDF80620012A07D1BDF8082061
:10FDE000052A03D1BDF80420012A02D0FFF7BAFC8E
:10FDF000D8E70146064A054806F06EFE054B18682E
:10FE000000F00100CFE700BFF2370020F4370020F8
:10FE100055F402002837002008B503F0BFFDA0F517
:10FE2000805008BD70B586B01D4B03931D4B0493E5
:10FE30001D4B05931D4E00230293FFF7EDFF327813
:10FE4000009001230193A2B9194C05F03BFA6946D1
:10FE5000204606F05BFF28B105F074FA154807F05C
:10FE600065F806E02578012D05D005F06BFA012331
:10FE7000337006B070BD20460A22294606F0D9FE2E
:10FE8000044640B104234381052385818580C580D4
:10FE9000038106F0FDFE05F055FA002CDED0E6E702
:10FEA00061FA020059FA0200B9FE0200F23700209E
:10FEB000F4370020FC2D0020FFF7B4BF70B51C4CB8
:10FEC00004F1A806256860682946FFF7CDFB1C34BD
:10FED00054F8140C2946FFF7C7FBA642F2D1154B84
:10FEE000154800245C80DC805C81DC81134B01219F
:10FEF0005C80FFF7B9FB01211148FFF7B5FB012139
:10FF00001048FFF7B1FB01210F48FFF7ADFB0121BE
:10FF10000E48FFF7A9FB01210D48FFF7A5FB0D4B8C
:10FF20001C805C800C4B1C70BDE87040FFF71ABC55
:10FF3000A0D503003837002028370020F0380020F3
:10FF400020370020303700203C3800204837002080
:10FF50007C3700202A38002028380020084808B5BF
:10FF6000084B036004F0C4FA074B084A9A60084A39
:10FF7000DA60084B00221A70BDE80840FFF752BF54
:10FF800030380020B906030018380020FDF40200C4
:10FF90006DF80200F237002070B5054610B97846BA
:10FFA00001F08CFB174E346814F0010427D1288827
:10FFB0006B880344984201DB0B2070BD04F0E0F82D
:10FFC0000128F9D128886B881844013880B204F0E0
:10FFD000D7F80128F0D1042229460B480CF06BF821
:10FFE0003368214643F0010320463360FFF7CEFB20
:10FFF000064A136843F0010313602046DDE70F2033
:020000023000CC
:10000000DBE700BF283700202A3800202C370020EB
:1000100010B5044610B9784601F050FB2046042282
:100020000249BDE810400CF046B800BF2A38002055
:100030000122FFF735BD000010B50446FFF742FE70
:1000400078B1032C89BF084B084B043C14228CBFA9
:1000500002FB043403EB84040020A3780133A37073
:1000600010BD0520FCE700BFF03800203837002025
:100070000122FFF7B5BD0000032810B504460FD8D4
:1000800001460D48FFF710F950B10C4B03EB840308
:100090009A78013A9A702046BDE81040FFF728BED2
:1000A0002046FFF705FE28B1054A231F142101FB56
:1000B0000323EDE7052010BD20370020383700204E
:1000C000F03800200022FFF7EBBC0022FFF788BDCC
:1000D00010B50446FFF7F6FD78B1032C89BF084B35
:1000E000084B043C14228CBF02FB043403EB840451
:1000F0000020E3780133E37010BD0520FCE700BF6A
:10010000F03800203837002038B504460D4619B3C2
:10011000032810D801461248FFF7C6F858B1114B12
:1001200033F824206A8033F8240004F029F828707A
:100130000020686038BD2046FFF7BAFD70B1142377
:10014000043C094A5C430020135B6B800434144474
:1001500002236C602B70EDE70E20EBE70520E9E74A
:100160002037002038370020F038002013B504462F
:10017000FFF7A8FD00B369462046FFF7C5FFB8B9F1
:100180009DF80030032B0BD10C4B03EB8403DA7882
:1001900092B1013ADA702046FFF7AAFD02B010BD15
:1001A000022B07D1064A231F142101FB0323EEE78C
:1001B0000020F3E70F20F1E70520EFE738370020B4
:1001C000F03800202DE9F0410E46074610B309B380
:1001D0000025DFF848802C4629464046FFF764F8A2
:1001E00040B13368A34202D10920BDE8F08127F86D
:1001F000145001340135042DEED1074B1B68DB0789
:1002000005D53368A342EFD027F814500134346089
:100210000020EAE70E20E8E73037002020370020F2
:100220002DE9F7430D46044600283CD000293AD07A
:10023000408803F0A5FF022824D0032801D001281C
:1002400033D14FF6FF73DFF86880DFF86890678876
:100250002B8000241E4621464046FFF725F840B17A
:1002600039F82430BB4208D12C80002003B0BDE80F
:10027000F0832B88B34208BF2C800134042CEAD1D0
:100280000520F3E760684FF6FF73ADF8063050B114
:100290000DF10601FFF788FC0028F1D0BDF806300B
:1002A00004332B80E1E70E20E0E71020DEE700BFFB
:1002B000203700203837002007B50DF10601FFF781
:1002C000C7FC20B1BDF8060003B05DF804FB4FF693
:1002D000FF70F9E708B1FFF71BB94FF6FF707047E1
:1002E00007B50DF10601FFF7CBFC20B1BDF8060004
:1002F00003B05DF804FB4FF6FF70F9E708B1FFF7B4
:10030000FDBA4FF6FF70704741B148B9054B1B6805
:10031000DB0705D5044B1B880B8070470E20704708
:10032000052070474837002050370020052870B559
:100330000E4638D8002934D0A8B91C4B1B68DB07FF
:1003400031D51B4C638813B1784601F0B7F9618849
:100350001848FEF7A9FF10B9784601F0AFF9638895
:100360003380002070BD441E21461348FEF79CFFD9
:10037000C8B1124D162303FB04535B8813B17846B2
:1003800001F09CF9162303FB04530A485988FEF731
:100390008BFF10B9784601F091F9162000FB045448
:1003A000DDE70E20DEE70520DCE700BF4837002050
:1003B000503700203C3800207C3700208437002054
:1003C000F0B50746C7B015460E4600296ED0002A84
:1003D0006CD0B0F5805F6BD21146FFF739FC044654
:1003E000128870B13548AC2303FB0200314610225D
:1003F00002300BF051FE00280CBF03200F2047B045
:10040000F0BD4FF6FF739A4254D031463846FFF79D
:1004100033F929880320FFF7B9F9284B2988AC2242
:1004200002FB013138468C3104F069F8244B18681E
:1004300010F48020E3D0234B1B68062B3CDD224BBD
:100440001A68204605AC335C190903F00F03515CB0
:1004500004F81010D15C04EB4003013010285970EF
:10046000F1D100232F21194884F820300BF0FEFE33
:1004700098B12F2115480BF0F9FE411C144B154A79
:10048000D3F804350192144A00920720029440F6F2
:100490006E1205F0E1FF0020B1E75C210B480BF084
:1004A000E5FE08B15C21E5E70849E7E70E20A6E78D
:1004B0000720A4E70420A2E72046A0E74438002054
:1004C000602E00205C2E0020642E002067D50300E3
:1004D0000010014091D5030069C6030040B9054BE7
:1004E0001B68DB0704D5044B93F864300B7070472E
:1004F000052070473C3800204438002038B50D46B0
:1005000000293BD000283BD11E4B1B68DB0737D5A9
:100510001D4890F86430044643B1012B04D11022E9
:1005200012300BF0B9FD00B1082038BD1022123096
:100530000BF0C1FD04F14301284605F082FE10B125
:10054000784601F0BBF81149A1F1820005F08AFE5E
:1005500010B1784601F0B2F8012284F864200C4909
:10056000208803F0A3FB0B4A136843F001031360D8
:1005700000210320FFF70AF90020D6E70E20D4E778
:100580000520D2E73C38002044380020D83800202D
:10059000E83800204038002010B50446D0B90F4B91
:1005A0001B68DB0716D50E4991F86430012B13D177
:1005B000022281F8642031F8A40B03F077FB094A8A
:1005C000136843F00103136021460320FFF7DEF8B0
:1005D000204610BD0520FCE70820FAE73C38002043
:1005E0004438002040380020F8B50446002850D197
:1005F0002A4B1B68DB074CD5294D95F86430002B3E
:1006000049D005F112011022A81C0BF054FD05F190
:100610004301212205F122000BF04DFD05F194016B
:10062000182205F17C000BF046FD294685F8644050
:10063000224631F88C0B1B4D1B4E03F037FB05F1A6
:10064000170733686988AA7D03F0010354B1174A7C
:10065000136843F00103136000210320FFF796F8AD
:100660000020F8BD002BF2D00029F0D1002AEED0F6
:10067000122239460E480BF01EFD0E4AAC75136867
:1006800043F00103214613600420FFF77FF80124A3
:10069000D7E70520E5E70820E3E700BF3C38002066
:1006A00044380020503700204837002040380020D0
:1006B000543700204C37002070B50378042B1ED12E
:1006C000D0E90146457E2046FFF706F94FF6FF7256
:1006D000904214D02034A64211D1094AAC2101FB2A
:1006E000002393F864302DB1012B08D1BDE8704090
:1006F000FFF752BF1BB1BDE87040FFF775BF70BD7B
:100700004438002010B588B181B100220A4B0C6832
:100710000A601B6813F001030AD05CB1074B1B8809
:1007200003800B6801330B60104610BD0E20FCE700
:100730001846FAE70920F8E73C3800204438002042
:10074000F0B50746C7B00C461E461546002A68D0CD
:10075000002B66D003F014FD012864D1002C64D175
:10076000364B1B68DB0760D50DF112013846FEF7EA
:10077000DDFD044600285AD1BDF812304FF6FF7255
:10078000934256D001462A463846FEF703FEBDF88E
:10079000121005200139FEF7F9FFBDF81230338041
:1007A000274B186810F4802030D0264B1B68062B8E
:1007B00041DD254B1A68204605AC2B5C190903F076
:1007C0000F03515C04F81010D15C04EB40030130BE
:1007D00010285970F1D100232F211C4884F82030B3
:1007E0000BF044FDA0B12F2118480BF03FFD411C38
:1007F000174B184AD3F804350192174A0092072084
:10080000029440F6752205F027FE002047B0F0BDA7
:100810005C210E480BF02AFD08B15C21E4E70B498E
:10082000E6E70E20F2E71020F0E70520EEE70F20C4
:10083000ECE70420EAE72046E8E700BF3C38002068
:10084000602E00205C2E0020642E002067D503005F
:10085000001001405AD5030069C60300F0B50746F1
:10086000C7B01E461546002A6CD0002B6AD000295E
:100870006AD1394B1B68DB0766D5B0F5805F65D25E
:100880003146FFF7FDF93388044670B133482A2218
:1008900002FB03002946102206300BF0FDFB002866
:1008A0000CBF03200F2047B0F0BD4FF6FF729342FC
:1008B0004ED001462A463846FEF744FE31880420D1
:1008C000FEF764FF264B186810F48020EBD0254B10
:1008D0001B68062B3EDD244B1A68204605AC2B5CBA
:1008E000190903F00F03515C04F81010D15C04EBFC
:1008F0004003013010285970F1D100232F211B48EB
:1009000084F820300BF0B2FC98B12F2117480BF07F
:10091000ADFC411C164B174AD3F804350192164A18
:1009200000920720029440F6C52205F095FD0020B4
:10093000B9E75C210D480BF099FC08B15C21E5E7B3
:100940000A49E7E70E20AEE70520ACE70720AAE753
:100950000420A8E72046A6E73C38002050370020B6
:10096000602E00205C2E0020642E002067D503003E
:10097000001001404DD5030069C6030038B50D468F
:10098000002934D0002834D11B4B1B68DB0730D53D
:100990001A481B4A4388AC2404FB0323044693F8FB
:1009A0006430012B06D1827D32B1102219300BF058
:1009B00073FB00B1082038BD8375102219300BF08D
:1009C0007AFB04F11801284605F032FC10B1784694
:1009D00000F074FE0B4A2379E375136843F00103BA
:1009E000136000210420FEF7D1FE0020E3E70E2073
:1009F000E1E70520DFE700BF48370020503700203F
:100A0000443800204C37002010B5044660B9074A2E
:100A10001368D90708D523F00103014613600420A9
:100A2000FEF7F2FE204610BD0520FCE74837002007
:100A300038B5044680B9174D2B68D9070CD5FFF798
:100A400013F80128234603D0421C03F10103FBD015
:100A5000012B03D10F201CE005201AE00E4B1B6870
:100A6000DB0708D50D4B588828B9FFF7CDFF10B12B
:100A7000784600F023FE0A4B1B880BB9094A137015
:100A80002B68002123F0010303202B60FEF7BCFE3E
:100A9000002038BD3C380020483700205037002067
:100AA000443800202838002030B5B9B1B2B1B8B907
:100AB0000E4B1B68DB0713D50D4B156810601B68C8
:100AC00013F001030ED00B4B5C8834B965B11B8861
:100AD0000B80136801331360204630BD0E20FCE705
:100AE0000520FAE71846F8E70920F6E73C38002029
:100AF000483700205037002070B506460C46154692
:100B0000002A3CD005293CD839B320480139FEF7EA
:100B1000CBFB002835D04FF6FF739E4202D1F4B9CB
:100B20001B4B5E887EBB1B4B1B68DB072BD51A4A11
:100B3000ECB992F86430022B17D1154B997DA1B115
:100B400017336B60154B92F86410A3F12102022950
:100B500018BF13462B60002070BD1148D7E7114A1B
:100B6000631E162101FB0323DBE70F4BE9E70D4B67
:100B7000013C162101FB043404346C60E2E70E20D2
:100B8000EAE70520E8E70820E6E700BF7C37002019
:100B9000503700203C38002044380020873800209F
:100BA00048370020843700205437002008B50A4613
:100BB000FFF782FB3AB140B9054B1B68DB0704D550
:100BC000044B136008BD0E20FCE70520FAE700BFC8
:100BD0003C38002066380020F8B5054616460F461A
:100BE00011B9784600F06AFD16B9784600F066FD46
:100BF0003868E8B9002400233B60336064BB2146B9
:100C00001648FEF751FB38B3154B93F8641093F870
:100C1000222005F07F00A1B1824293F8431016D143
:100C20008A4210D103F122023A604333336013E069
:100C3000FEF76EFC4FF6FF739842DBD0013084B2B2
:100C4000D9E7824208D1074B3B600023EEE7884298
:100C500002D143333B603460F8BD00BF3C38002014
:100C60004438002066380020F8B506460C46154684
:100C700012B9784600F022FD16B9784600F01EFD44
:100C80003046FFF727FB4FF6FF739842064602D126
:100C900000232B60F8BD286810B1FEF72FFE01304D
:100CA000094B1A68094B5F7959887C4002F00102B0
:100CB00004F03F040028EBD1002AE9D08E42E7D1AE
:100CC000002CE5D10433E4E74837002050370020FA
:100CD00070B504460D4611B9784600F0EFFC4CB1F2
:100CE00008490023162000FB03F2565AA64203D1FE
:100CF000141D0C442C6070BD0133052BF3D100246E
:100D0000F8E700BF84370020F8B5074616460D46C1
:100D100011B9784600F0D2FC16B9784600F0CEFC46
:100D2000286820B1FEF7D8FD00232B6024E01A4B81
:100D30001B68DB07F8D5194C94F8643053B957B1E8
:100D4000082204F18C0138460BF0A6F9B0FA80F0C5
:100D5000400901E08FB901200028E5D0104B1B7835
:100D6000BBB12388B3FA83F35B0984F874300D4B6D
:100D70002B6094F864303370F8BD082204F18C01C4
:100D800038460BF089F90028E5D0082204F1A401C7
:100D9000D9E70123E9E700BF3C38002044380020B0
:100DA00028380020B83800202DE9F74305460C46C6
:100DB00003F0E6F902285FD0032818D0012801D0FB
:100DC000002011E03D4B1B6813F00103F8D03C4BB1
:100DD0001A889542F4D35B8813449D424FF0000378
:100DE000EEDA65802070636003B0BDE8F083002315
:100DF0006360A5F57F43FC3B65802070032B16D80C
:100E000001A252F823F000BFC10D0300C10D030081
:100E1000190E0300750E030001A9012008F06FF8F8
:100E200010B1784600F04AFC9DF80400DCE74FF66C
:100E3000FF76244FDFF898900024B04646450FD146
:100E400021464846FEF730FA50B9A6B20134042CC8
:100E5000F4D106F0EBFE4088421B50425041C3E7FC
:100E600037F82420AA424FEA8403EFD13B44DB78D1
:100E7000002BEBD00120B7E76068C0B94FF6FF73D5
:100E8000ADF80430BDF80430002B99D00E4B1B6830
:100E9000DB0795D50D4B1A88AA4291D1DA78002A42
:100EA0008ED002220433658022706360E2E701A9DC
:100EB000FEF77AFE0028E1D0E4E700BF28370020E3
:100EC0002A3800203837002030370020F038002042
:100ED0002037002038B50C46054600B111B97846D8
:100EE00000F0ECFB024B1A882A805B88238038BD17
:100EF0002A38002007B50378022B0AD0032B01D033
:100F0000012B17D169464088FFF74EFF03B05DF80B
:100F100004FB69464068FEF747FE0028F6D0BDF89E
:100F20000030054A142101FB0323D878003018BF94
:100F30000120EBE70020E9E7F0380020094A537868
:100F400091780133DBB2994208BF002311789942AE
:100F50001FBF03705078182303FB002014BF043018
:100F6000002070470839002073B5054602A8002408
:100F700000F8014D0E46F6F7E3FA0DF10600FFF713
:100F8000DDFF90B106700A4B9DF8062045605A704F
:100F90009DF80700F6F7F8FA24B9064B4FF48012D3
:100FA000C3F80021204602B070BD0424F0E700BF62
:100FB0000839002000E100E0024B4FF43C6043F0B0
:100FC0000103184770D603002DE9F0412A4CD4F8EC
:100FD0004031012B294B02D01A78002A31D000254C
:100FE000C4F840511D70264B1B6853B3254AD4F8F2
:100FF00004651268B61A26F07F46A8461A68B242FF
:101000000AD8B61A15441A7CDF6922B183F8108019
:10101000D3E90520904767BB1B4B1C4A197813780E
:101020008B4205D10133DBB2022B08BF00231370C2
:101030001278174B43F82250164B4FF48012C3F826
:101040000021D4F84431012B04D10023C4F84431E9
:1010500003F0B2FCD4F80431012B01D103F0C6FC3B
:101060000023C4F84831C4F84C31C4F80031BDE85D
:10107000F0813B46C2E700BF001001400439002068
:10108000283A0020243A0020203A0020213A00206B
:10109000183A002000E100E02DE9F74F984A9949FD
:1010A00013780978DFF87C82974F994264D0013336
:1010B000DBB2022B08BF002313701278934BD8F8D1
:1010C000006053F82240331923F07F430022C8F810
:1010D00000303B6811461546944613B942B13B6057
:1010E00006E01868A04235D902B13B60001B1860C9
:1010F0004FF0010A3B6800930025D8F80030009AB1
:10110000DFF824C20193A9462E46002965D0104677
:10111000CA690B46D3F804B0019C7D49D3F808E0B6
:10112000ABEB040424F07F448C4200F2BC80744496
:101130001C604FF00101C3E901661974DE6138B12A
:101140001C6801688C4200F2D3800C1B0460D861DB
:101150000125A5E0241A0544D868C3F800C0D3F8D7
:101160001CE030B1721922F07F42C3E90120D9613D
:10117000194601227346B0E700218A46BAE7431CAC
:101180009CF80210DBB299428CF800304FF0180343
:1011900003FB00C008BF8CF8006001798368022956
:1011A00067D0032979D0012917D1197CA9B9C4685E
:1011B0005C6004699C604469DC60806998611046E9
:1011C0000A46A7E7A342E06900F09580214604465D
:1011D000002CF7D114461E7422469CF800009CF89F
:1011E00001308342CBD105B13A603B68B9F1000FC1
:1011F00005D1009A9A4202D1BAF1000F36D0ABB3B2
:101200004449D8F80020D1F80405434C1E682578DD
:10121000831A23F07F4303333DB94FF48035C1F87F
:101220004453C1F80453012525709E422CBF9219E6
:10123000D21822F07F43C1F84035D1F80425121AA4
:1012400022F07F421B1A033223F07F439A420DD9CA
:10125000D1F80435C1F84035FFF7AEFE2F4B01221F
:101260001A702F4B4FF40032C3F8002103B0BDE8D1
:10127000F08F14461146ABE7D4690125D3F800E09E
:10128000C86110B1016871440160944218BF4FF009
:101290000109A0E71674D2690125002AFAD1134684
:1012A00011461A4631E70199A1EB0B0121F07F416C
:1012B00071453ABFAEEB010119601E6039E7A4EB3E
:1012C0000E04D1F81CE08B46BEF1000F0AD0714627
:1012D000D1F800E0A645F2D3AEEB040EC1F800E071
:1012E0008E4659461C60C3F81CE0CB610346D7E725
:1012F00083460146ECE78B42BED01446BEE700BFF2
:10130000203A0020213A0020283A0020183A0020F4
:10131000FEFF7F0000100140143A00200439002035
:1013200000E100E0243A0020083900202DE9F843CC
:10133000214C224E224BDFF8A49001274FF40038B5
:10134000C6F88080C4F84833C4F8083367600025C5
:10135000FFF732FEA760C9F80050FFF72DFE194BCA
:101360001D70194B0B221D809A70184B1D60184B75
:101370001D70184B4FF480121D70C023C6F88021D9
:1013800086F814333260C4F8085586F81133D4F85F
:101390000435C9F800300223C4F84433C4F80433D8
:1013A000C6F88081C6F800802760FFF705FE0A4B6B
:1013B0001F702846BDE8F8830010014000E100E0FE
:1013C00002000300143A002008390020283A0020C7
:1013D000203A0020213A002005390020243A00203C
:1013E000074B9B784BB132B128B10368187C20B908
:1013F00059745A617047072070470820704700BF32
:10140000083900202DE9F7431D4FBB7805460E46ED
:1014100090469BB390B304292ED9436973B3437CA0
:1014200002A80024012B00F8014D0CBF8946A146FB
:10143000F6F786F80DF10600FFF780FDD0B1012325
:101440000370104B4560D3F80435C0E90498C0E937
:1014500002369DF806307B709DF80700F6F794F889
:1014600024B9094B4FF48012C3F80021204603B081
:10147000BDE8F0830424EFE70724F7E70824F5E745
:10148000083900200010014000E100E0064A92788F
:101490003AB130B1426922B1002202740221FFF751
:1014A00063BD0820704700BF08390020014B187841
:1014B000704700BF053900200620704730B5754BD6
:1014C00014461B6841F20102904287B00D4603F4B6
:1014D00080437ED01ED8012845D0002B5DD06E4BB6
:1014E0001B68002B59DD2F216C480AF0BFFE002835
:1014F00000F0C4802F2169480AF0B8FE411C684BF7
:10150000684AD3F80435009201957B22012004F04B
:10151000A3FF42E044F20102904200F0858044F2D1
:1015200002029042D9D1002B37D05B4B1B68002BB5
:1015300033DD2F2159480AF099FE00286BD02F2166
:1015400056480AF093FE411C554B2288D3F80435C7
:1015500003926268CDE90152534A009201206C2245
:1015600004F07AFF19E0C3B14B4B1B68002B14DD6C
:101570002F214A480AF07AFE10B32F2147480AF07B
:1015800075FE411C464B494AD3F804350092CDE91B
:1015900001546022012004F05FFF4FF0A0434FF49C
:1015A000F012C3F81825C3F80C25EFF3108372B6B8
:1015B0004DF6AD6C3E4A1378002B68D107B030BDB4
:1015C0005C2136480AF052FE08B15C21D6E7334967
:1015D000D8E7002BE1D0304B1B68002BDDDD2F213D
:1015E0002E480AF043FE68B12F212C480AF03EFE37
:1015F000411C2B4B2F4AD3F804350092CDE90154FE
:101600006322C7E75C2125480AF030FE08B15C215F
:10161000EBE72249EDE75C2120480AF027FE08B1FC
:101620005C218DE71D498FE7002BB6D01A4B1B6854
:10163000002BB2DD2F2119480AF018FEA8B12F2186
:1016400016480AF013FE411C154B2268D3F80435E6
:1016500004926268CDE90252A2680192164A009291
:101660000120772204F0F8FE97E75C210B480AF08E
:10167000FDFD08B15C21E3E70849E5E75C21074887
:101680000AF0F4FD08B15C2135E7044937E730BFC3
:1016900091E700BF602E00205C2E002076D603006C
:1016A000001001401AD70300DAD603009ED60300CB
:1016B0000C2E0020B8D60300F9D6030007B500238E
:1016C000ADF800300146054B01936A4644F2020032
:1016D000FFF7F4FE03B05DF804FB00BF47C703004B
:1016E0000146102201480AF0E6BC00BF2C3A002057
:1016F00010B50B4C0B49082220460AF0DCFC0822EE
:10170000A01809490AF0D7FCE379042262F3071311
:10171000E371237A022262F38713237210BD00BFA4
:101720002C3A002060000010A40000100048704710
:101730002C3A0020064B002203F580715A805A6033
:1017400003F8082B8B42F9D1024B1A60704700BF97
:101750003C3A00203C3B0020F0B50C4B0C4C1B6885
:10176000064620227BB1013B14F8330050B104EB54
:10177000C3056F88B74202D16D688D4202D0013A2D
:10178000F0D11046F0BD1F23EEE700BF3C3B002028
:101790003C3A002030B5084A084C136804EBC305F6
:1017A0006960012104F833100B44202B08BF00238B
:1017B0006880136030BD00BF3C3B00203C3A0020F5
:1017C000C0F30C038B42084438BFA0F50050C01A88
:1017D00070470000F0B50D4B0D4A1E6800218E4287
:1017E00012D0156800230AE052F8044C04EBC3073A
:1017F00014F83340844201D17868F0BD01339D4232
:10180000F2D101310832EAE70020F6E7403B002040
:10181000483B002000B58DB040B99A1C06D001228B
:1018200001A88DF80420029301F022FA034B1868F6
:1018300003F0D6FD0DB05DF804FB00BF4C3B00206B
:1018400010B50378044613B97846FFF737FFE188EF
:10185000A069FFF7B5FFE1690A060B0A101843F10A
:10186000000110BD10B50378044613B97846FFF7A0
:1018700025FF607A431C01209840013810BD00000C
:10188000F8B5037805460E4613B97846FFF716FFFC
:10189000104AA88A0023144619018F5A874214D18E
:1018A000002353520C4A1368591C03F007031B0111
:1018B0001160AA8AE25206B16E781C442846A670CE
:1018C000FFF7BEFFC4E90201F8BD0133082BE3D1E5
:1018D000E8E700BF503B0020D03B00202DE9F0415D
:1018E0000E468EB015461C46074610B97846FFF7DF
:1018F000E5FE16B97846FFF7E1FE636AA278023387
:101900000593E378A2F10800002B14BF0121022106
:101910000DF1040842424241434604F10C0003F039
:1019200092FEA3788DF83430237BADF82050022B43
:1019300016FA85F5CDE906870B960C950FD123692C
:1019400013B97846FFF7BAFE23690993102305A857
:10195000ADF8283003F073FE0EB0BDE8F08100232F
:10196000F5E70000B2F5C07F2DE9F04781468846D3
:10197000174602D97846FFF7A1FE244B00257022B6
:101980009A4602FB053494F8486046B9384607F099
:1019900008FBE06638B900242046BDE8F087013531
:1019A000042DEED1F7E73022494620460AF083FBAA
:1019B000B8F1010FE664A4F84A701DD1144B84F805
:1019C00052601B7D84F8513084F8536084F8506075
:1019D000D9F8283063656FF00103A3620D4BA4F8BA
:1019E0005860A3632464012002F042F9702303FBD2
:1019F00005A585F84880CFE76FF00103A362064B89
:101A0000A36584F868602466044BEAE7EC3B002099
:101A1000D43B0020651F0300712603005D1F0300F7
:101A200010B50446C06E07F0BEFA04F1300002F0B3
:101A30005FFF94F84830022B03D104F1500002F00C
:101A400057FF2046702200210AF040FB002084F856
:101A50004800BDE8104002F00BB910B590F84830CE
:101A6000012B8CB0044602D07846FFF727FE0123F5
:101A70008DF8043001A8636D029301F0F9F8204657
:101A8000FFF7CEFF0CB010BD10B50446808A02F0FF
:101A900077FB01281CD1237BD3B194F91620002AAF
:101AA00018DBE27D5AB1022B12D094F90330002BDF
:101AB00010DBA378002B0CBF0020072010BDE278BC
:101AC0000AB9012B06D1237833B9A378042BF2E7A6
:101AD0001020F3E70720F1E70020EFE71FB5002211
:101AE0000B468DF80F2028B30230086018460DF120
:101AF0000F0103F0A6FD9DF80F30DBB1144B1B68FE
:101B00005B0717D5134B1B68032B13DD2F211248DE
:101B10000AF0ACFB98B12F210F480AF0A7FB411C3B
:101B20000E4B0F4AD3F804350092042040F237429E
:101B300004F092FC9DF80F0005B05DF804FB5C21F9
:101B400005480AF093FB08B15C21E5E70249E7E7A5
:101B5000602E00205C2E002075D70300001001408D
:101B600092D7030070B50446D0E906128CB0808A83
:101B700005F0B6FB0546A0B12C22002101A8A68ADB
:101B8000E4690AF0A3FA0F238DF804304FF0000344
:101B900064F3000301A8ADF808608DF80A3001F085
:101BA00067F828460CB070BD2DE9F04F99461378C0
:101BB000D2F81880F3B007468A46144623B1D1887C
:101BC0004046FFF7FDFD9061E378A278002BA2F17B
:101BD000080003AD14BF0121022104F10C064242AA
:101BE0002B464241304603F02EFDA278C4F81880FF
:101BF000CDE908571FFA8AF5AB1A9BB21F44ADF81E
:101C00002830E3780E974FF0000812AF0D978DF84B
:101C10003C20ADF83080002B65D04FF0100B04F164
:101C2000240A237BC4F82480022B02BF2369ADF869
:101C300030B00B93206A21795246FFF715F8606A9D
:101C400030BB237B022B05D13146E089FFF7ACF88E
:101C50000028E6D1374B1B685B0741D5364B1B6824
:101C6000052B3DDD2F2135480AF000FB002858D018
:101C70002F2132480AF0FAFA411C314B314AD3F88D
:101C800004350092062040F20E7204F0E5FB27E0D6
:101C900007A9FFF723FF0028CCD02046FFF762FFFB
:101CA000F0B9A2780B908DF81C0096E80300A38A87
:101CB000ADF82A30AD1A0CAB01228DF8282083E84C
:101CC0000300A37D8DF84030236A0E9307A8636A52
:101CD0000897ADF824500F93CDF8449000F0C8FF5A
:101CE00073B0BDE8F08F227B012AB3D1A046E08912
:101CF000B4F814A048F8243F4146FEF7E9FF07A9CD
:101D0000606AFFF7EBFE0028C7D16062414650468B
:101D1000FEF7DEFF07A9606AFFF7E0FE002899D012
:101D2000BBE75C2105480AF0A1FA08B15C21A0E7F5
:101D30000249A2E7602E00205C2E002075D7030028
:101D40000010014038D80300C37D0A7830B5002B5D
:101D50003DD0C37822F07F0203F07F031A430A705C
:101D60000B78027803F07F0343EAC2130B70037809
:101D700063B38378083B5A425A414B7803F07F03A0
:101D800043EAC2134B708A78C58802F00302C5F398
:101D9000861442EA850223F07F032343D2B28A707D
:101DA0004B70CB78057A03F01F03C5F3C10422F012
:101DB000030243EA45132243DBB2CB708A70427AB6
:101DC00023F01F0302F01F021343CB7030BDC47811
:101DD00022F0400343EA8413DBB20B70027923F054
:101DE0003F0302F03F0213430B70B9E72DE9F041C6
:101DF000837890461344C27D002A14BF0B220F2221
:101E0000934286B004460F462FD8024612F80C1BA8
:101E10000092002914BF042501252B440293836AF4
:101E20000193C36A0393684600238DF8103003F0D2
:101E3000A6FD064670B9059920460D44FFF784FFBC
:101E4000E37D5BB14246394628460AF034F96846DC
:101E500003F0B6FD304606B0BDE8F08123464246A9
:101E600029463846FFF73AFDF1E70926F2E7000078
:101E700038B590F84830012B044602D07846FFF779
:101E80001DFC02F075FD237B074A012B05BFD2E93B
:101E90000315A37DD16805FB0311014404F1300053
:101EA000BDE8384002F03BBDD43B002070B50D4684
:101EB00090B0044610B97846FFF700FC94F848301B
:101EC000022B03D100212046FFF7DAFC2C2200214F
:101ED00005A8666D0AF0FAF8102305A88DF81430ED
:101EE00006968DF81C5000F0C3FE2046FFF798FDC3
:101EF000154B1B685B071BD5144B1B68032B17DDA9
:101F00002F2113480AF0B2F9A0B12F2110480AF08E
:101F1000ADF9411C0F4BD3F80435029594F84820D5
:101F200001920D4A0092042040F22E2204F094FA0D
:101F300010B070BD5C2106480AF098F908B15C2128
:101F4000E4E70349E6E700BF602E00205C2E002096
:101F500075D703000010014044D703000846002154
:101F6000FFF7A4BF10B591F84830012B0C4602D002
:101F70007846FFF7A3FB94F851305BB1013B84F83E
:101F80005130002384F85030084BBDE810401868E9
:101F900003F026BA217B0129204603D1BDE8104079
:101FA000FFF784BFBDE81040FFF757BD4C3B002052
:101FB0002DE9F04F044689B00F4609B100230B60AC
:101FC00004F10C0394F8505001934FF001084FF0C6
:101FD000000B627AAA4203D2002009B0BDE8F08F5C
:101FE000E16C08FA05F30B4259D1E37D2572002B11
:101FF0000CBF0C260826954206FB05FA237808BF7D
:10200000B4F84A608DF818B008BFA6EB0A06002B9A
:1020100014BF4FF004094FF0010906EB09030493C4
:10202000019B0293A36A039302A8E36A059303F05A
:10203000A6FC0028D1D1079B994445B994F85330A8
:102040002BB9A36984F85380C3F30C03E380E37DC9
:102050008BB994F8523073B915B17846FFF72EFB5F
:10206000B4F84A10A2788A1AE16E23460846FFF7B0
:1020700035FC84F8528007992046FFF765FEE16E33
:102080003246514448460AF016F802A803F098FC7C
:1020900017B13B6801333B606B1C84F8503001354D
:1020A000EDB296E72DE9F04307468FB0104688461B
:1020B00015469946FFF756FD0446002860D1EE7894
:1020C000002E40F0AE80B8F1060F59D138787A78FA
:1020D000DFF8A8C1830103F4FE5343EA9203D7F863
:1020E00002204FF0700812BA674608FB04C696F843
:1020F0004810012925D1B6F814E0E9898E4520D190
:10210000F18899421DD1B6F858E0A98ABEF1000FB6
:1021100001D08E4515D110F0800F4FF070033BD0E9
:1021200003FB0473A3F85810702303FB0474E56CDD
:102130001543E564002A61D103213046FFF7B6FE5E
:102140001EE00134042CD0D1464B1B685B0717D529
:10215000454B1B68012B13DD2F2144480AF086F8FC
:1021600088B12F2141480AF081F8411C404B414A77
:10217000D3F804350092022040F2846204F06CF936
:102180000FB0BDE8F0835C2138480AF06FF808B161
:102190005C21E7E73549E9E703FB0473DB898B4200
:1021A000C2D0304B1B685A07EAD52F4B1B68012B56
:1021B000E6DD2F212D480AF059F8B0B12F212B4828
:1021C0000AF054F8411C2A4BAA8AD3F8043502922B
:1021D000702202FB04740220E2890192264A0092D6
:1021E00040F28C6204F038F9CAE75C211F480AF01B
:1021F0003DF808B15C21E2E71C49E4E73046FFF70F
:1022000031FB854203D13046FFF727FCB8E70021B8
:1022100084F850103046FFF7CBFE3046FFF728FE1B
:10222000AEE73046FFF7D6FA03460028A8D005F1FE
:102230000C012A6A0B9203C9AA8AADF8222009AAC6
:1022400082E80300AA7D8DF830202A788DF82020BE
:10225000EA6A8DF81460CDE906780D92494605A822
:1022600098478DE7602E00205C2E002075D7030074
:1022700000100140A5D70300D3D70300EC3B00209A
:10228000F0B5C37D15468278002B2A4414BF4FF465
:1022900080734FF4C0739342C7B00E4679D3404C5D
:1022A0000023E11891F84870012F08D1B1F814C04B
:1022B000878ABC4503D1CF89C1898F426BD07033E7
:1022C000B3F5E07FEDD10121FFF74CFB0446002878
:1022D00063D02A463146C06E09F0EDFE002304A902
:1022E00020460493FFF764FE30F0040506464BD108
:1022F000049B13B12046FFF7BBFD2A4B1B685B070D
:1023000028D5294B1B68032B24DDB4F84A10274B32
:102310008029186828BF8021002305AE8B421CD17C
:1023200000222F21224806F8132009F09FFF10B346
:102330002F211F4809F09AFF411C1E4B1E4AD3F85B
:10234000043501921D4A0092029640F27152042017
:1023500004F082F8284647B0F0BDE26ED25C17095F
:1023600002F00F02C75D06F81370875C06EB4302AC
:1023700001335770D2E75C210D4809F077FF08B1AF
:102380005C21D6E70A49D8E72046FFF749FB3546E6
:10239000E0E70925DEE70825DCE70425DAE700BFEA
:1023A000EC3B0020602E00205C2E0020642E0020DC
:1023B00075D703000010014067D7030069C603000A
:1023C00010B54FF4E0720021134809F07FFE00249D
:1023D00004F0F6FF114B12481C602146802209F0E0
:1023E00075FE104B1049114A11489C75C3E9001243
:1023F00010494CF25032C3E902211A6140F604023E
:102400009A8202F0CFFF0C4B18600C4B0C481C60FA
:10241000BDE8104005F0D6B8EC3B0020D03B0020D2
:10242000503B0020D43B002080969800F0490200E9
:10243000A52B030020A107004C3B0020403B0020BF
:102440001518030004F044BF30B504468DB00028D1
:102450006CD00369002B69D0C369002B66D08569F5
:10246000002D63D05A788DF804201A780993838A56
:1024700082F001020B2B8DF80320027B43D901214E
:10248000022A8DF8001001D1294A927D002A44D1F8
:10249000042213448DF802200B330C2293FBF2F339
:1024A000013B8DF8093000238DF8083094E80300D3
:1024B00000238DF8173003AB83E803002389ADF8C0
:1024C0001430A37A8DF81630236A0A932046DF234E
:1024D00008950B93FEF70EFD28B12378012B0CBF56
:1024E0002023FF230B9368462569A48AFFF7CCFAC3
:1024F00038B99DF800302246294668469BB1FFF75F
:10250000BFFE0DB030BDC17A0029B8D1012A0CBF81
:10251000012200228DF8002001D10822B9E704230E
:102520008DF80230C2E7FFF761FCEAE70E20E8E72A
:10253000D43B0020F0B503468DB00F46002843D0B1
:102540004568002D40D08669002E3DD08468027811
:102550008DF803200B2C4FF00002099294BF027BF0
:10256000012202F0010100208DF800108DF8020018
:1025700032B1E11DC90801398DF809108DF8080044
:1025800003F1100103C901228DF8172003AA82E884
:102590000300DA89ADF814201A7F1B6A0896684692
:1025A0008DF81620CDE90A73FFF76EFA38B99DF859
:1025B00000302246294668461BB1FFF761FE0DB088
:1025C000F0BDFFF713FCFAE70E20F8E770B5067BC5
:1025D000012E8CB004460D4646D10B2200216846E0
:1025E00009F074FD9DF80120E3888DF8055002F094
:1025F000030242EA83028DF801202A0E8DF80220A0
:102600002A0C8DF803202A0A8DF8042062788DF8B0
:102610001C60911E4A424A41C3F3861343EAC21327
:102620008DF8003006230593A38AADF81E300023F1
:1026300008938DF80C308DF81830E389ADF81A3016
:10264000E36A0B93A37D226ACDF810D0099243B9B7
:102650006FF0010103A88DF82830FFF76BFF0CB075
:1026600070BD024B5B7DF3E70020F8E7D43B002010
:1026700010B591F84830022B0C4602D07846FFF78F
:102680001DF8022384F8683094F84830022B06D1F4
:10269000E16C2046FFF79AFF08B984F8680010BD86
:1026A0002DE9F04F0C469FB090461F460546002886
:1026B00000F0A781002A00F0A48121B90926304644
:1026C0001FB0BDE8F08F1822414609A809F0F3FCBD
:1026D0002B78002059B2CA0F81428DF81820ACBF68
:1026E0000122042294428DF81900E7D39DF82F604F
:1026F000EEB103F07F0381428DF81B308DF81A0094
:102700002EDA6A78AB78920102F4FE5242EA930222
:10271000ADF81E20DB00EA7803F0180343EA5213F9
:1027200002F01F028DF820308DF8212018E0C3F34D
:102730008010002903F03F038DF81B008DF81C303A
:1027400008DA95F90130002BACBF042308238DF87B
:102750001A30D6E704231A4494428DF81A30ADD3C8
:1027600000230F933B78032B02D97846FEF7A6FF90
:102770003A78A54B06A853F822301193FFF784F955
:10278000064600289BD1D8E90312B8F8080004F0E7
:10279000E3FD002893D13146082204A809F096FCF5
:1027A00004A9B8F80200FEF7FFFA38B19DF8193015
:1027B00043F001038DF81930059B0A939DF81930F9
:1027C000002B3FF47CAF9DF81820002A00F0078111
:1027D0008E4A4FF0000A934602EB0A0393F8481022
:1027E000022940D00AF1700ABAF5E07FF4D19DF8D1
:1027F000183013B97846FEF761FF06A8FFF720F8F6
:10280000BDF82CE0824A4FF0000C4FEA0C1838F863
:10281000023073453DD19044D8E9029A514508BF32
:10282000484536D106AD0FCD12AC0FC40FCD0FC445
:1028300095E80F0084E80F0098F802308DF84930D1
:10284000002B3FF43CAF12A8FFF70CF8014612A88A
:10285000FFF7BCFE98F80230DC077FF530AF06A822
:10286000FFF780F92BE7988ABDF82C108842B9D180
:1028700006A8CDE90232FEF7E3FF029B8046184628
:102880008946FEF7DDFF894508BF8045039AA9D236
:1028900015E70CF1010CBCF1080FB6D10023702232
:1028A00002FB03BA9AF84810022915D1BAF814109D
:1028B000714511D106A8FEF7C3FF804650468946F0
:1028C000FEF7BEFF494508BF404580F0AD800521B9
:1028D0005046FFF7EBFA02E00133042BE0D19DF8FC
:1028E0002F209DF82130002A0CBF4FF00C084FF02C
:1028F000080803FB08880CBF4FF4C0734FF48073C3
:10290000984529D9434B1B6858077FF5D8AE424BF1
:102910001B68002B7FF7D3AE2F21404809F0A6FC9F
:1029200088B12F213D4809F0A1FC411C3C4B3D4A98
:10293000D3F804350092CDF8048040F292320120A1
:1029400003F08AFDBBE65C21344809F08FFC08B136
:102950005C21E7E73149E9E7BDF81E100C98FEF766
:102960002FFF0D9A0146BDF82C0004F0F5FC00285D
:102970007FF4A5AE4246022106A8FEF7F3FF824689
:10298000002851D1014606A8FFF720FE2C2251460F
:1029900012A809F09BFB10238DF8483012A80223DF
:1029A0008DF8503000F064F989E65C211B4809F08D
:1029B0005DFC08B15C2146E0184948E0002B0CBFE3
:1029C0000C2308239C4200F0A28004215046FFF70C
:1029D0006DFA74E63B465246FFF7E6F8CDE0DA07BB
:1029E0007FF56DAE9DF82F30681C611E23B13B460C
:1029F00006AAFFF757FB62E63B4606AAFFF7D4F8A4
:102A00005DE60E265BE600BF34D70300EC3B0020FA
:102A1000503B0020602E00205C2E002075D7030064
:102A20000010014014D80300584B1B685B071BD5EE
:102A3000574B1B68032B17DD2F21564809F016FC56
:102A40000028B2D02F21534809F010FC411C524BF2
:102A50009DF82020D3F804350192504A00920420BA
:102A60004FF4717203F0F8FC9AF84830022B02D050
:102A70007846FEF723FEDFF82881D8F8009001F0B1
:102A800077FF09EB00010AF1300001F048FF9AF8E6
:102A90000C30012B1AD19AF86830BBB99AF848303B
:102AA000022B02D07846FEF709FED8E9013298F8E9
:102AB000151002FB013801F05BFF00EB08010AF181
:102AC000500001F02CFF01238AF868309DF8201097
:102AD000DAF84C3001228A4013427FF4F0AD134300
:102AE000CAF84C309DF82F309AF80920002B0CBF03
:102AF0004FF00C084FF008088A42A4F1040408FBC8
:102B000001F87FF45BAF08EB0403AAF84A30DAF867
:102B100018200C9B9A420BD20DF1240EBEE80F0038
:102B20000AF10C0CACE80F009EE803008CE80300EF
:102B3000DAF86C002246291D404409F0BCFA5046E0
:102B4000DAF84C40FEF78EFE84427FF4B8ADDAF836
:102B50004C105046FFF73AFD9AF80130D9070CD5D2
:102B60009AF81730DAF86C00BAF84A10002B3FF4E4
:102B700031AF3B465246FFF795FA50460121FEF72A
:102B80007FFE5046FEF74CFF99E500BF602E002007
:102B90005C2E002075D703000010014028D80300E8
:102BA000D43B00202DE9F341194E00243746A046BE
:102BB000351995F84830012B0CD102A9284641F867
:102BC000048DFFF7F5F9042801D0019B13B12846C5
:102BD000FFF74EF97034B4F5E07FE9D100257C1998
:102BE00094F84830022B0AD194F86830022B06D1B1
:102BF000E16C2046FFF7EAFC08B984F868007035FC
:102C0000B5F5E07FEBD1012002B0BDE8F08100BF57
:102C1000EC3B00202DE9F04188460746E8B1124E12
:102C20003468C4B92546454507D1104BC3E9007542
:102C3000012333602046BDE8F08107EBC5035B68E4
:102C40005BB117F83500030609D450B1FEF7C2FD99
:102C500038B90135E7E70424ECE70E24EAE70B2452
:102C6000E8E70F24E6E700BF403B0020443B00209C
:102C7000F8B5074610B97846FEF720FD0F4E3468C8
:102C800094B10F4D01232B7023791BB954F8043CE8
:102C9000384698472468002CF6D12B78022B03D1B4
:102CA0003168064C09B92970F8BD0B790E6813B16B
:102CB000204603F056FB3146F4E700BFB03D00204C
:102CC000AC3D002010B5044610B97846FEF7F6FC7E
:102CD00000232372211D0248BDE8104003F020BBF1
:102CE000B03D00200B888268D25A073222F00302DE
:102CF000134402889BB2043A934288BF00230B809E
:102D0000704713B58368CB1A02A921F8023DFFF77B
:102D1000E9FFBDF806308068184402B010BD70B5F8
:102D2000064615460C4611BB7846FEF7C7FCFEB1B9
:102D30007846FEF7C3FC6B1E2344B3F1005F34D921
:102D40004FF08052D2F80C2102F50022B3EB822F13
:102D50002ED2042D02D87846FEF7B0FC3580002331
:102D6000043D7380B380B4602580A37070BD10B93A
:102D70007846FEF7A3FCB4F1005F12D94FF0805300
:102D8000D3F80C3103F50023B4EB832FD3D34FF0EA
:102D90008053D3F80C3103F50053B4EB832FC7D223
:102DA000C9E7B4F5000FF2D8C2E7B3F5000F08D9B0
:102DB0004FF08052D2F80C2102F50052B3EB822F73
:102DC000C7D37846FEF77AFCC3E738B5044610B996
:102DD0007846FEF773FC6288A36813449B78012B46
:102DE00002D17846FEF76AFCEFF3108572B6A2684E
:102DF000A18811448B78032B0AD12046FFF781FF6D
:102E0000A368C31A63800023837005B962B638BD16
:102E1000002393706380A380F7E7F8B50E4615464C
:102E2000044610B97846FEF749FC16B97846FEF715
:102E300045FC6288A36813449B78012B02D1784635
:102E4000FEF73CFC002D37D02388043B9BB29D420B
:102E500032D8EFF3108772B66188A388EA1D22F09A
:102E60000302994292B204D25B1A9A4210DD042006
:102E700016E018D92088401A904209D29A42F6D812
:102E8000032881BFA3685B1804229A700023638023
:102E90006288A1688B188D5201229A7000203360DD
:102EA00007B962B6F8BDA26813449B78002BDED147
:102EB00093706380A380EBE70920F3E7F8B50D4634
:102EC0001646044610B97846FEF7F8FB15B9784661
:102ED000FEF7F4FBAB78012B02D07846FEF7EEFB51
:102EE0002B88B34202D27846FEF7E8FB16B9784643
:102EF000FEF7E4FBEFF3108772B60223AB70E11824
:102F00002E802046FFF7EEFE6288A38893421FBF03
:102F1000A3689B1800229A7007B962B6F8BD70B515
:102F20000D46044610B97846FEF7C8FB15B9784639
:102F3000FEF7C4FBEFF3108672B6A288A3681344B1
:102F40009A78042A06D1211D2046FFF7CBFEA288DD
:102F5000A36813449A78022A03D0032A08D00520D4
:102F600003E003229A702B60002006B962B670BDA0
:102F70007846FEF7A3FBF7E738B5044610B9784664
:102F8000FEF79CFBEFF3108572B6A088A1680144A0
:102F90008B78042B03D12046FFF7B3FE01468878D7
:102FA000831E5842584105B962B638BD38B504464B
:102FB00010B97846FEF782FBEFF3108572B6A08851
:102FC000A16801448878C31E012B05D9831E58428D
:102FD000584105B962B638BD2046FFF792FE01465A
:102FE000F0E7F8B50D46044610B97846FEF766FBE3
:102FF00015B97846FEF762FBEFF3108672B6AB7830
:10300000012B19D0032B22D1A288A36813449D421F
:1030100002D07846FEF752FB0027AF70211D2046F4
:10302000FFF760FEA288A36813449B78042B00D1AD
:10303000A78006B962B6F8BD6288A36813449D42B2
:1030400002D07846FEF73AFB0023AB70F1E77846F2
:10305000FEF734FBEDE710B5EFF3108472B682880B
:10306000816811448B78042B02D1FFF74AFE014698
:103070008878B0FA80F0400904B962B610BD0379CF
:1030800042799B1A03F57F2303F6FF7300EB0330AD
:103090007047000010B5054884681C22002109F023
:1030A00015F82046BDE8104003F068BFB43D00208D
:1030B00070B5194CE36813B97846FEF7FFFA237E22
:1030C00013B17846FEF7FAFA6368092B02D97846FD
:1030D000FEF7F4FA114D0026636855F8233098473F
:1030E000022811D003280DD0012810D163680133C4
:1030F000092B636002D97846FEF7E0FA237E002BA5
:10310000EAD004E06660F9E7237E0BB1207070BD61
:10311000BDE87040FFF7BEBFB43D002064D8030097
:1031200010B50388044613B97846FEF7C7FA20881D
:10313000074B04EB800030EA030203D06288B2F54B
:10314000FE4F04D11C4004F580542078204410BD6B
:1031500000F0FFFF70B504460E4647F6FE65FFF728
:10316000DFFFB04207D2844205D24388013B9BB2C5
:10317000AB42F4D870BD0020FCE700000B78032BB5
:10318000094B04BF00221A761A78012A03D11B7E4C
:1031900043B9FFF78DBF022A04D10B78032B01D16D
:1031A000FFF778BF704700BFB43D002010B50C4C4E
:1031B000E3681878002203F58051184404F0C6F93A
:1031C00050B9E1680846FFF75AFF814206D001F581
:1031D0008051E160032010BD0120FCE70220FAE7E6
:1031E000B43D00201FB50A4B02221B688DF8002059
:1031F0000193084A4FF4805369460120029300F07E
:1032000001FFB0FA80F0400905B05DF804FB00BF93
:10321000D43D0020D03D00201FB50123CDE902217F
:103220000190054A8DF800306946184600F0EAFE24
:1032300005B05DF804FB00BFD03D00202DE9F0474C
:10324000254BD86802794179013A91421E4603D153
:1032500001205876BDE8F08700F580531F491C789F
:103260001C440B6813F8045F1D44FFF708FF6388D4
:10327000013B9BB247F6FE62934200F580578846B9
:1032800004D920463946FFF765FF0446DFF850A011
:103290004FF001092CB9B4FA84F464097476012062
:1032A000D8E7D8F800106288284601F5805104F06C
:1032B0004DF905460028EED004225146204686F8F6
:1032C0001890FFF7A9FF28B920463946FFF742FFBB
:1032D0000446DFE70020BDE7B43D0020D43D0020D8
:1032E00028DA030038B5104CE36818784FF6FF72FF
:1032F00003F58051184404F029F988B1E36819787E
:103300000B4498420CD0657E0849094B0422002DDD
:1033100008BF1946FFF780FF20B90120207638BD8D
:103320000120FCE70020FAE7B43D002030DA03007A
:103330002CDA030070B50C4D0C4EE96830680C783F
:1033400004302246FFF768FF58B9336804F0FC04E4
:1033500004341C44EB686C611A7813442B6101201F
:1033600070BD0020FCE700BFB43D0020D43D00202C
:1033700008B5054B054918680422FFF74DFFB0FA60
:1033800080F0400908BD00BFD43D0020C03D0020B2
:1033900010B5074B074C1968E06840F6FC72043121
:1033A000FFF73AFF10B90120207610BD0020FCE79E
:1033B000D43D0020B43D002010B50C4CE168084617
:1033C000FFF75DFE81420AD1094B0A4918680422C1
:1033D000FFF722FF40B901232376022010BD01F53B
:1033E0008051E1600320F9E70020F7E7B43D0020B9
:1033F000D43D0020D83D00202DE9F74F324C236901
:1034000013B97846FEF75AF9636913B97846FEF79F
:1034100055F9DFF8B89047F6FE6A6369D4E9030608
:1034200003EA0908A8EB0308FFF729FE7388013BAC
:103430009BB2534508F5805800F5805B06D93046AD
:103440005946FFF787FE0646002835D03546002747
:103450005D4519D22A8807EB8202904509D986EA90
:10346000050313EA090F04D16B88013B9BB2534556
:1034700002D957B9012318E028460192FFF750FE00
:10348000019A05461746E3E7E7B13A4631466069D7
:10349000FFF7C2FE90B963691F44676115B97846AA
:1034A000FEF70CF92561002335B1698847F6FF72F4
:1034B000914201D0002BB0D0012000E0002003B0E9
:1034C000BDE8F08F0123EFE7B43D002000F0FFFFDF
:1034D0001FB50A4B0222DB688DF800200193084AD1
:1034E0004FF4805369460120029300F08BFDB0FA3F
:1034F00080F0400905B05DF804FB00BFB43D00203A
:10350000D03D002010B54FF010235A69013225D06C
:103510005A691AB35B69A3F58053A3F58053174A20
:10352000196813604B1E033325D8C1F30B0313BB7B
:10353000134A1448D1600121117013491376537650
:10354000936051F8234084420ED1536001200F490B
:1035500000F048FDFFF7ACFD012010BD4FF0805298
:10356000516913694B43D8E701330A2BE9D17846F7
:10357000FEF7A4F8EAE70020EFE700BFD43D002003
:10358000B43D0020D134030064D803007D31030032
:1035900010B5044610B97846FEF790F8094B187834
:1035A00060B1E068D9684379A0EB0333994206D350
:1035B000FFF765FD81428CBF0020012010BD002077
:1035C000FCE700BFB43D0020024B1878003018BF64
:1035D00001207047B43D002038B50E4C23780546D5
:1035E00013B17846FEF76AF82B78032B02D07846A1
:1035F000FEF764F8EB68E360012000230649A5604C
:10360000636023762070637600F0ECFCBDE8384000
:10361000FFF74EBDB43D00207D310300014B18681B
:10362000704700BFD43D002010B5044610B978465D
:10363000FEF744F863681BB123680BB1A36813B9A4
:103640007846FEF73BF8A3685A1E1A4202D0784625
:10365000FEF734F80023C4E9033310BD38B505463E
:10366000F0B1E9B18368EBB1EFF3108472B6D0E941
:1036700002302A691A44824203D104B962B6042492
:103680000CE0013B0340D5E9000202FB030008F017
:1036900012FDEB680133EB6034B962B6204638BDE9
:1036A0000E24FBE70924F9E70024F7E770B50E467E
:1036B0000446F0B18368F3B1EFF3108572B6D0E938
:1036C0000331994203D105B962B605250FE04EB129
:1036D0008368013B0B40D0E90012304602FB031126
:1036E00008F0E9FC23690133236135B962B6284645
:1036F00070BD0E25FBE70925F9E70025F7E7000077
:10370000024AD2F80034002BFBD0704700E00140A1
:10371000C0F30B0310B5E3B9E9B1104C0223C4F8B0
:103720000435FFF7EDFF01F6FF7121F47F6121F011
:103730000F010144884205D10020C4F80405FFF7B9
:10374000DFFF10BDC4F80805FFF7DAFF00F5805071
:10375000F0E71020F5E70920F3E700BF00E00140A3
:1037600070B540EA010414F003041BD1E2B19507DF
:103770001AD10E4E0123C6F804359508FFF7C0FF95
:10378000AC4205D10020C6F80405FFF7B9FF70BDB3
:1037900051F824305A1C03D040F82430FFF7B0FF12
:1037A0000134EDE71020F2E70920F0E700E00140E6
:1037B0004388012B05D0022B01D104300860012081
:1037C000704704304860FAE708B50822022109482A
:1037D00003F02FFA20B90848BDE8084003F0A6BB63
:1037E000064A91684160127B0272BDE8084003F00E
:1037F0004FBA00BFE43D0020202E0020303E0020C4
:1038000010B5044610B97846FDF758FF2346BDE8C9
:103810001040184700B50A4B1A7B9B688DB0012AEF
:1038200008BF03F1FF3303900CA80493022300F8B0
:103830002C3D8DF80820FFF71BFA0DB05DF804FB56
:10384000303E002038B50E4D2B78C3B90D4B5C6867
:1038500004F50054B4F1807F11D8042201210A48F4
:1038600003F0E7F920B90948BDE8384003F05EBB32
:10387000012344602B70BDE8384003F009BA38BD1D
:10388000443E0020303E0020E43D0020102E002069
:1038900010B501210C4803F011FA80B902210A4841
:1038A00003F00CFA044650B901461422074808F008
:1038B0000DFC074B1C70BDE81040FFF7C3BF054867
:1038C00003F034FBF7E700BFE43D0020303E00206A
:1038D000083E0020402E002030B50D468DB07AB94C
:1038E0004B88012B0AD1124C227812B97846FDF789
:1038F000E5FE104B6A685A60002323700DB030BD9E
:10390000032A02D07846FDF7D9FE2C22002101A817
:1039100008F0DCFB11238DF80430074B0395DA68BF
:103920001B69059201A80693FFF7A2F9E6E700BF1D
:10393000443E0020303E0020E43D002013B501F05D
:10394000C1FC00216B46124A1248134CCDE900110C
:1039500003F0C2F8009B0BB1019A6AB900232360FF
:10396000A3602373FFF730FF23686360FFF76AFFEC
:1039700001F0E8FC02B010BD1968A160197921734B
:10398000934203D91B790BB92360EDE71368FBE77A
:10399000B1370300E43D0020303E002008B503F0BD
:1039A00013FBA0F5805008BD7FB5002118226846A2
:1039B00008F08CFB00230293FFF7F0FF0123009037
:1039C00001936946054B0648039303F09FF910B134
:1039D000044803F0ABFA07B05DF804FBD9380300E4
:1039E000E43D0020302E002008B5142200210A48B2
:1039F00008F06CFB00F0BCFF084B094A09499A60CB
:103A000000225860C3E903125A61074B1A70BDE8DF
:103A10000840FFF7C9BF00BF303E00200C3E002029
:103A2000193B030000879303453E002010B5074C67
:103A300023784BB90648074B036000F059FD064850
:103A400000F034FF0123237010BD00BFE03D0020D3
:103A5000243E00207D3B03000C3E002010B501F009
:103A600031FC104A117B1346C9B9917BB9B9118A4F
:103A700041F28262914202D80B4A12787AB1012255
:103A80001A739A68002401321C829A60FFF79CFE28
:103A90002046FFF7BFFE01F055FC204610BD08246C
:103AA000F9E700BF303E0020453E002010B501F090
:103AB00009FC174A547B1346BCB1917B21BB118A88
:103AC00041F28262914202D8124A1278F2B11A7B14
:103AD000002058732AB1012A0BD07846FDF7EEFD7D
:103AE00003E0FFF7BBFF0028F7D101F02BFC2046D5
:103AF00010BDC3E9000018731882FFF78BFEFFF7B3
:103B000063FEFFF79FFEF0E70024EEE71446ECE7C4
:103B1000303E0020453E002010B5164C237B2BB1D3
:103B2000012B12D07846FDF7C9FD18E0228A41F238
:103B300082639A4202D8104B1B7883B1FFF7B6FF1D
:103B4000638A0BB1013B638210BD228A41F282611C
:103B50008A4208D8084B1B780BB1FFF7A7FF238ACE
:103B600001332382ECE742F2B0118A42F5D9637344
:103B7000E4E700BF303E0020453E002010B503784A
:103B8000042B0ED143681B785BB11D4B4269197B36
:103B9000047E71BB598A01BB012C996802D08A420C
:103BA00003D810BD4C1CA24219D92A318A42F8D838
:103BB000997B0029F5D184689A60124A1A61C3E999
:103BC000001159731973FFF7FFFDFFF73BFE04F176
:103BD0001000BDE81040FFF71DBE012CE1D199682F
:103BE00001318A42DDD101225A73BDE81040FFF74E
:103BF0005DBF0129D5D1012CD3D09968F1E700BF71
:103C0000303E00200000062D38B5164CD4E90023C4
:103C10009A4205461FD2207B134B1449012808BF46
:103C20000B469A4207D263682268403B9A4208D307
:103C3000FFF708FE05E001236373FFF737FF002855
:103C4000F1D0EFF3108072B623685A1C22602B600B
:103C500028B962B638BDFFF7F5FD0F20FAE700205E
:103C6000F8E700BF303E0020FFFF7F0000E0FF00CC
:103C700010B50C4A1368144628B101200A490344C0
:103C80008873136010BD13B97846FDF717FD2368DC
:103C9000013B2360002BF5D1034A9373BDE810402C
:103CA000FFF704BFDC3D0020303E002000B58DB0A2
:103CB0000323ADF808000CA88DF8102000F82C3D67
:103CC0000391FEF7D5FF0DB05DF804FB014B98683A
:103CD000704700BF303E0020034B98681B7B012BD0
:103CE00008BF00F1FF307047303E0020044B9B6856
:103CF0005840C20748BF03F1FF331846704700BF62
:103D0000303E0020014B187B704700BF303E002042
:103D10002DE9F8431D4CDFF878900026022120465B
:103D200002F00CFA5FFA86F805460027ADB967B1D4
:103D30002946204602F069FA082806D154F8043CC6
:103D40001BB12A464946404698470136032E04F1E6
:103D5000BC04E3D10120BDE8F88354F8043C34F8F6
:103D60000C2C13B129464046984734F80C3C0221EC
:103D70000133204624F80C3C02F0FCF902212046D5
:103D800002F0DCF901370546D0E700BF5C3E0020B9
:103D90008CD8030038B5012104460C3002F0CEF96E
:103DA000054628B3164BC4F89C300023C4F8A03055
:103DB00003786268012B07D0022B1BD07846FDF7F1
:103DC0007DFC4FF4FA7307E081688B1A99084FF471
:103DD000A9734B4303F5FA730A4A934294BFC4F89C
:103DE000A830C4F8A8200123C4F8AC4084F8B83047
:103DF000284638BD83689B1A1A0B034B5343E9E7E7
:103E00002D3E030060850100645E010010B504468C
:103E1000FFF7C0FF48B104F19C0005F03BFD20B165
:103E20007846BDE81040FDF749BC10BD2DE9F74FBD
:103E30004A4B1B7880460D463BB105F061FD0023DF
:103E400085F8B83003B0BDE8F08F01F10C09D1F866
:103E5000A8704846012102F071F9064610B978466B
:103E6000FDF72CFCDFF8FCA0A7F5FA7700244FF44F
:103E7000A97B3378012BA7EB040406D0022B3BD09F
:103E80007846FDF71BFC00231FE06B68B268B4FBAB
:103E9000FBF4D21AA400944228BF144624B901931B
:103EA0007846FDF70BFC019BF168706823F0030373
:103EB000224619441844FFF753FC10B17846FDF729
:103EC000FDFB6B681C446C60B3686A689A422AD137
:103ED00005F016FD4846012102F04CF900236B6005
:103EE00085F8B8301E4B186801F07AFA284603B0FE
:103EF000BDE8F04FFFF78ABF6B68B268B4FBFAF415
:103F0000D21A2403944228BF144624B90193784658
:103F1000FDF7D4FB019B706823F00303214618448E
:103F2000FFF7F6FBC9E701F0C1F83378B0EB0804FE
:103F300048BFA8EB0004012B0DD0022B06D153463D
:103F40002344BB4295D905F0DBFCCFE77846FDF76B
:103F5000B5FB0023F4E74FF4A973F1E74C3E0020D2
:103F6000483E0020645E010070B51B481B4C01F008
:103F700019FA1B4B186004F11C0341F203060825D3
:103F8000636104F10C0004F118032361A681A57399
:103F900002F017F904F1D803C4F8D03004F1C800D6
:103FA00004F1D403C4F8CC30A4F8C86084F8CA5033
:103FB00002F007F904F5CA73C4F88C3104F5C8732C
:103FC000A4F8846184F88651C4F8883104F5C2707D
:103FD000BDE8704002F0F5B8113D0300503E0020EE
:103FE000483E0020022838B504460D4602D97846DE
:103FF000FDF764FB024BBC2202FB0434A56038BD14
:10400000503E002002282DE9F84F07460C46924604
:1040100002D97846FDF752FB14B97846FDF74EFBFE
:104020002378012B12D16368990702D07846FDF7F7
:1040300045FBE3689A0702D07846FDF73FFBA3688B
:104040009B0711D07846FDF739FB0DE0022B0DD10F
:104050006368C3F30B0313B17846FDF72FFBA36826
:10406000C3F30B03002BEDD1A36813B97846FDF71A
:1040700025FBEFF3108872B6BC257D43224E05F177
:104080000C09B1440021484602F058F8834690B329
:104090000021484602F06EF810222146584608F0EA
:1040A0000AF8BAF1000F03D073195B88AAF8003040
:1040B000BC2303FB07677B8897F8B84001337B80FC
:1040C00004BB124B1F78BFB97019FFF763FEB8F13C
:1040D000000F0ED162B6444640B105F19C00304459
:1040E00005F0D8FB10B17846FDF7E8FA2046BDE8A8
:1040F000F88F3C46F0E70424B8F1000FF6D1A04653
:104100000020E7E70024F7E7503E00204C3E002067
:1041100070B5EFF3108672B6144C236818BB13B950
:104120007846FDF7CBFA2368013B236093B9104D25
:1041300095F8B83013B92846FFF768FE95F8743142
:1041400013B90C48FFF762FE95F8303213B90A48EC
:10415000FFF75CFE2368094A003318BF0123137080
:1041600006B962B670BD01332360F3E784400020D6
:10417000503E00200C3F0020C83F00204C3E002055
:1041800010B1800B014B185C704700BF9CD8030036
:1041900012DF704713B5137863B1022B0CBF0723EE
:1041A000002310F8011C292962D005D8162973D0E4
:1041B00002B010BD537DF4E72A2927D02B29F7D16F
:1041C000022BF5D110F8021C0139C9B203F026F90F
:1041D00004460028ECD0374B1B685B06E8D5364B0D
:1041E0001B68012BE4DD2F21344808F03FF800283C
:1041F00049D02F21314808F039F8411C304B314A61
:10420000D3F8043500920194A62224E0022B01D0B9
:10421000072BCDD110F8021C013901F041FC0446F6
:104220000028C5D0234B1B685A06C1D5224B1B68FA
:10423000012BBDDD2F21214808F018F878B12F217E
:104240001E4808F013F8411C1D4B1F4AD3F80435D3
:10425000009201949322022002F0FEF8A8E75C216C
:10426000164808F003F808B15C21E9E71349EBE7C9
:10427000022B9DD110F8021C0139C9B202B0BDE871
:104280001040F5F7FDBD5C210C4807F0EFFF08B1C9
:104290005C21AFE70949B1E701884FF6E463994231
:1042A00086D110F8021C0230033902B0BDE810407C
:1042B000FDF702B9602E00205C2E0020C5D8030057
:1042C000001001400AD90300E1D8030070B58AB09C
:1042D00005F0D0FF0446002834D000238DF81030BC
:1042E00006460FCE05AD0FC533682B60627D052AEB
:1042F0000CD9207D00F00F03072B07D004AB063A42
:1043000004F11D0100F00F0004F07EFE114B1A684D
:10431000AAB104AB0393237DC3F303038DF80430E8
:10432000637D062B89BF063B00238DF8053004F121
:104330001D0398BF8DF80530029301A890472046D1
:1043400005F082FF05F0B0FF80F00100C0B20AB0B6
:1043500070BD00BF8C400020F7B5354F3A78054658
:10436000002A5BD100285BD0067A0F2E01D0062EE2
:1043700058D104F015FEE86800284CD0FDF7B0F9DC
:104380000DF10700FFF704FF0446002840D19DF817
:104390000730012B48D1FDF7CDF900F071FA304616
:1043A00000F042FFE87800F0F7F800F083FD05F038
:1043B0002BFA204806F010F804F09EFFFFF7D4FD1A
:1043C00003F0D6FF00F01EFC04F0AAFD04F0CAFBC7
:1043D000284601F0BBFAFDF7F3FF03F093FBFDF76E
:1043E0006BF808B1062821D1134804F0DFFD2A201C
:1043F00004F080FE2B2004F07DFE292004F07AFEDC
:10440000162004F077FE0D4B00221A6001233B704A
:10441000204603B0F0BDFDF76BF9B1E70824F7E7DC
:104420000E24F5E70724F3E70224F1E70446EFE75B
:1044300088400020CD420300502E00208C400020F8
:1044400037B5244D2A78012A05D002D3033A012A30
:1044500038D9082428E005F0D9FE01F089FAFDF7E3
:10446000F1FFFDF729F8044650B3062828D01A4B6F
:104470001B685B0418D5194B1B68012B14DD2F2119
:10448000174807F0F3FE90B12F21154807F0EEFE14
:10449000411C144B144AD3F804350092019440F2A5
:1044A000A712022001F0D8FF204603B030BD5C21E6
:1044B0000B4807F0DBFE08B15C21E6E70849E8E7B6
:1044C00000F0DEFE05F0D8F904460028ECD1022306
:1044D0002B70E9E788400020602E00205C2E002031
:1044E000C5D8030000100140A0D80300FDF7ACBF01
:1044F000FEF7E8BB08B500F0ADFC002008BD704732
:10450000044B1A680132B2F1704F08BF01221A60E1
:10451000186870479040002010B5044610B97846DE
:10452000FDF7CCF80023C4E9003310BD38B50D46C3
:10453000044610B97846FDF7C1F815B97846FDF77D
:10454000BDF800236B60EFF3108372B6226822B9C6
:104550002560656003B962B638BD62685560F8E7EA
:1045600010B5044610B97846FDF7A8F8EFF31082AD
:1045700072B6206808B143682360236803B963609A
:1045800002B962B610BD10B5044610B97846FDF701
:1045900095F8206810BD000007289ABF024B33F839
:1045A0001000FA20704700BF36D90300024B58684C
:1045B000103840B2704700BF00ED00E0084A2023E9
:1045C00090FBF3F352F82330424202F01F0200F056
:1045D0001F0058BF504223FA00F000F0010070475E
:1045E00000E100E046DF704730B501F11003103202
:1045F000103013F8014D12F8015D8B4284EA050476
:1046000000F8014DF5D130BD2DE9F047144690B0CA
:1046100002F10F05102288462D1101460DEB020014
:10462000994604F00F0407F046FD002D51D0002CF0
:104630004FD10126B2461022002108A807F046FDFE
:1046400004A8FFF7CFFF01220DF13F0110AB13F9D2
:10465000100D1F4693F800C04FEA4C0C5FFA8CFC1B
:1046600083F800C013F801EF4CEADE1C994203F80E
:1046700001CCEFD19DF83F305B00DBB20028B8BF22
:1046800083F087038DF83F30531C9A454FF00202A8
:10469000DCD2013D08EB0511FEB10CAA6846FFF71C
:1046A000A3FF102200210CA807F010FD0024AC424B
:1046B00025DB3A46694608A8FFF796FF04A8FFF7EE
:1046C00091FF10223946484607F0F5FC10B0BDE8CE
:1046D000F08700264FF0020AADE72246684607F051
:1046E000EAFC10AB2344802203F8402C0134102C48
:1046F00002D10CAA6946D1E70DF80460F6E708EB91
:104700000412394608A8FFF76FFF04A8FFF76AFFF5
:104710000134CCE738B5124B1A6804462AB11A683E
:1047200045685268AA1A002A0DDA1A6862611C608C
:104730009A88013292B29A8012B97846FCF7BEFF8D
:104740000123237038BD19684A691AB15068401BAB
:10475000002802DB62614C61EAE71146F4E700BF22
:104760009840002010B5124B1A68824204461A463F
:104770000BD142691A609A8892B2511E89B299800F
:104780008AB97846FCF79AFF0DE01B685BB159695E
:10479000A1420BD16169596193889BB2591E89B2BC
:1047A0009180002BEDD00023237010BD0B46EDE768
:1047B00098400020014B186800F012BE9440002081
:1047C000044B1A6822B11B680349586800F05AB9B3
:1047D00000F0AEB998400020B54703002DE9F04144
:1047E00000F0C6F8254E054637464FF000083368FE
:1047F00023B133685B685B1B642B06D400F0B8F808
:10480000FFF7DEFF0120BDE8F08134682378012B3B
:1048100002D07846FCF752FF63693B60BB88C4F85E
:1048200014809BB25A1E92B2BA8013B97846FCF734
:1048300045FFA36813B97846FCF740FF02232846DA
:1048400023702169A368984700F092F82378022B1F
:104850000546CCD1E2680AB92270C8E763686FF0F8
:104860006301891A1344091AD018C14204D4636041
:104870002046FFF74FFFBAE70346F5E798400020D0
:1048800008B508220021064807F020FC054800F082
:1048900089FD054B1860BDE8084000F05CB800BF1A
:1048A00098400020DD4703009440002010B50446E6
:1048B00000F06EFE10B97846FCF700FF14B9784698
:1048C000FCF7FCFEA36813B97846FCF7F7FE2378E3
:1048D000012B02D17846FCF7F1FE002363612046EC
:1048E000FFF718FF00F044F8BDE81040FFF768BF7D
:1048F00010B5044600F04CFE10B97846FCF7DEFE19
:1049000014B97846FCF7DAFE2046FFF72BFF0023A8
:10491000636100F02DF8BDE81040FFF751BF38B5D6
:1049200004460D4600F034FE10B97846FCF7C6FE8A
:1049300014B97846FCF7C2FE2046FFF713FF0023A8
:10494000636120466560FFF7E5FE00F011F8BDE801
:104950003840FFF735BF08B5FCF7A8FD38B9FCF7BC
:10496000E5FC20B17846BDE80840FCF7A7BE08BDCD
:1049700010B5EFF3108072B60C4A0D4B1968D2F8DF
:104980000435D2F80441012C04BFD2F804350131BA
:1049900000B962B6074843EA01614FF48042002340
:1049A000E0FB0123D00B40EA434010BD0010014062
:1049B000A040002040420F0010B50A4B0A4C4FF4B3
:1049C0000032C3F84823C3F80823226812B9784696
:1049D000FCF774FE2468FFF7CBFF2346BDE81040C8
:1049E000184700BF00100140AC40002010B5EFF3A5
:1049F000108072B61E4B1F490022C3F804210A68BA
:104A000001320A6000B962B61B4A116809B3116825
:104A1000013911601268E2B9184AD3F80405116827
:104A2000884217D2EFF3108072B6D3F804151468D9
:104A30000131A1422ABFD3F8042512680232C3F81B
:104A4000442500B962B64FF40032C3F84423C3F8DA
:104A5000042310BD0A4C226812B97846FCF72EFEDA
:104A60002468FFF785FF2346BDE81040184700BFC4
:104A700000100140A0400020A4400020A8400020D9
:104A8000AC40002037B50023044601930D4611B910
:104A90007846FCF713FE204B1D60FFF769FF031BF0
:104AA000002BB8BF241A1D481D4AA8BF00244FF48C
:104AB000004500210023E5FB040107F025F9EFF391
:104AC0001083019372B6174A174CD2F804350228A6
:104AD000C3F1FF1101F57F4138BF02208142134924
:104AE00010D30344C2F844354FF40033C2F84433C2
:104AF000C2F80433002323600B60019B03B962B644
:104B000003B030BD03F17F43013303441A0E013279
:104B1000226023F07F43EFE7AC40002020A1070094
:104B200040420F0000100140A4400020A840002097
:104B3000074B4FF40032C3F84823C3F80823054A53
:104B400000231360044A1360044A1360704700BFD7
:104B500000100140A4400020A8400020AC400020EC
:104B600030DF704731DF704710B5D0E9002384682B
:104B7000C168A2EB731283EAF43303600C4413445C
:104B8000114444608160C360184610BD37B50C46BF
:104B9000054610B97846FCF791FD00239C4201D8E8
:104BA00003B030BD0DF10700FFF7DAFF9DF80710E5
:104BB0000029F7D0E21A914288BF8DF80720E81843
:104BC0009DF80710FFF7CEFF9DF807201344E5E797
:104BD00037B5044602A8002340F8043D0421FFF73E
:104BE000D5FF074B2360019BE360C4E90133142523
:104BF0002046FFF7B9FF013DFAD103B030BD00BF39
:104C0000ED5EEAF1704748DF704749DF70474ADFE1
:104C100070470000064A032313741168054B536163
:104C200040F6D862914288BF43F2B0629A60704702
:104C3000DC400020FC400020054B1B68A0F17802FE
:104C400028335843034BB0FBF3F0101A704700BFF2
:104C5000F840002040420F0038B50E4A0E4C0123A8
:104C600063711368002501331360257400F078FA2E
:104C700004F0BCFE2068FFF7DFFF084A0146284623
:104C800000F0E2F920B17846BDE83840FCF716BDE7
:104C900038BD00BF10410020DC400020154C03004F
:104CA00010B41F4B5A6928B11968DC6811440134EB
:104CB000DC601960996801240131E24001291C740B
:104CC00099605A611C680ED002291AD05B69154A96
:104CD0001C44944203D840F6D76293421CD85DF836
:104CE000044BFFF7B9BFB2F5FA7F03D130B9002208
:104CF0005A61EBE740F6D8618A42E7D840F6D862BD
:104D0000F6E7DA68022A02D1064A121BF0E7012A06
:104D1000DCD10028EBD0D9E75DF8044B704700BF29
:104D2000DC4000208096980070B5424C424D012333
:104D300023712B781BB1414B1E78002E5BD00023D2
:104D40002374042853D8DFE800F0034D4A48440098
:104D50003B4DA179AA68C4E9023323682260002987
:104D600034D0012121743749002B08BF0B46991A12
:104D7000B1F57A7F26D39A4224D8616143F2B060BC
:104D800043F69822C5E9020201236B71A371237CCB
:104D9000023B012B0DD8637943B104F043FE206838
:104DA000FFF74AFF00F00EFA00236371234B002245
:104DB0001A70237C2448022B04BF0123237600238E
:104DC000237170BD4FF47A736361D7E7FFF744FF37
:104DD000D4E70120FFF764FFD9E70020FAE704F0E9
:104DE000B3FDD4E700F082F904F0E6FDCFE77846A2
:104DF000FCF764FCCBE700F059F92B782060022B1C
:104E00000FD0032B06D0012B10D1022323740023D3
:104E10002B70BCE70A4B0D490D4A5E71C3E90212C3
:104E2000A67103232374064B6361F0E77846FCF711
:104E300045FCECE7DC4000200D4100200C41002047
:104E4000FC40002080969800EC400020A0860100E5
:104E5000FF1FA107043808B5042825D8DFE800F0B3
:104E600016220A030F00114B1B7E012B1CD1FFF7EA
:104E7000CCFEC8B17846BDE80840FCF71FBC0B4B20
:104E800000221A76BDE8084004F004BE0848012359
:104E9000437143F6982240F6D863C0E90232FFF727
:104EA000B6FEE6E70248FAE708BD00BFDC40002096
:104EB000FC4000200D4A4FF480710023918043F2A2
:104EC000B06C43F698211370C2E902C1084A106021
:104ED000084A1370084A1370084A1360084A13718D
:104EE000537113601376012393717047FC400020C7
:104EF000F84000200C4100200D410020104100200E
:104F0000DC40002010B50E4C227E012A0CD004D3C8
:104F1000022A0CBF1120002010BD0A48FFF773FEC3
:104F200010B17846FCF7CAFB0748FFF770FE10B1D6
:104F30007846FCF7C3FB022323760020ECE700BF92
:104F4000DC400020294D0300FC400020074B1B7C67
:104F5000023B012B07D9064B1878013802288CBF79
:104F60000020012070470120704700BFDC40002076
:104F70000D410020014B1868704700BFDC40002045
:104F800010B5074B587948B11868FFF755FE04462D
:104F900000F08CF80346201A48BF181B10BD00BF54
:104FA000DC400020014B1879704700BFDC40002036
:104FB000EFF3108372B6054A527922B1044A4FF4D6
:104FC0008071C2F8001103B962B67047DC4000205E
:104FD00000E100E0044B1B7E022B04D1034B0122B5
:104FE0001A70FFF7E5BF7047DC4000200D4100203C
:104FF000064B1B7E022B07D10128054B0CBF032259
:1050000002221A70FFF7D4BF704700BFDC400020B7
:105010000D410020064B19781A4631B128B90549CF
:10502000097811B11870FFF7C3BF1070704700BF47
:105030000C4100200D410020024B1B6803B962B6F1
:10504000704700BF24410020022810B522D8EFF39A
:105050001084114B1C6072B6104B43F82020104B8B
:10506000002243F820200F4B1B787BB1830003F113
:10507000804303F500431030C3F84021012202FAB7
:1050800000F0094AC2F80403C3F84015FFF7D4FF43
:10509000002010BD0720FCE724410020144100201F
:1050A00030410020204100200080004008B5EFF38F
:1050B00010820A4B1A6072B6094B1B7853B1094B28
:1050C0000022C3F84C210122DA64D3F84C05FFF723
:1050D000B3FF08BD044B1868F9E700BF2441002066
:1050E0002041002000800040284100202DE9F84F99
:1050F000DFF85880DFF858900024A70007F18045BA
:1051000005F50045D5F84031D3B1D8F8043304F1A2
:10511000100201269640334212D057F809B0BBF175
:10512000000F02D17846FCF7C9FA4FF0000A49F89F
:1051300007A0C8F80863FFF7B9FFD847C5F840A132
:105140000134032CD9D1BDE8F88F00BF00800040A6
:1051500014410020014B1B68184470472C4100206B
:1051600008B5134B0022C3F84025C3F84021D3F8FB
:105170004011C3F84425C3F84421D3F84411C3F8BF
:105180004825C3F84821D3F848310A4B1B681BB99E
:10519000094B4FF480721A60084B01221A70FFF716
:1051A000E7FB0146FFF782FF054B081A186008BDB0
:1051B000008000402441002000E100E02041002068
:1051C0002C4100200B4A0C4900231360536093606C
:1051D0000A4A0B6010600A4A4B6013708B60094BDF
:1051E0004FF0FF32C3F80823074B4FF48072C3F827
:1051F00080217047304100201441002028410020C8
:10520000204100200080004000E100E0044B1B78BA
:105210000F2B1EBF034B4FF48022C3F800217047B1
:105220008442002000E100E010B5104C104B2070CB
:10523000104803601023C0E90133FEF7F5F90E486A
:10524000FFF76AF923780F2B0AD0072B09D8EC2235
:105250001A41D20705D55B01084ADBB282F8123346
:1052600010BD7846BDE81040FCF728BA8442002003
:10527000504100203C4100208842002000E100E035
:105280000D4B1B780F2B0DD00C4991F812335A0996
:10529000EC231341DB0706D5094B9A6832B94FF46A
:1052A00080230B6070477846FCF708BA1A6842F40E
:1052B00080221A60704700BF8442002000E100E0B5
:1052C0004C510020F8B5EFF3108772B6174802680A
:1052D000511C016002BB164B1B780F2B21D0EFF342
:1052E000108C72B6134A144C95680123E5B993608B
:1052F000124B134ED3F8801031401160C3F8806018
:10530000D3F8841051604FF0FF32C3F88420257029
:10531000BCF1000F00D162B6036813B97846FCF700
:10532000CDF907B962B6F8BD2370F1E7504200200D
:10533000844200204C5100208542002000E100E022
:10534000FC06FFBD38B5EFF3108572B6104C23682C
:1053500013B97846FCF7B2F92368013B2360A3B97F
:105360000C4B1B780F2B10D00B4B9A686AB10B4A71
:10537000127852B9EFF3108072B609491C680C60BC
:105380005C684C609A6000B962B605B962B638BD17
:1053900050420020844200204C51002085420020D1
:1053A00000E100E038B5054610B97846FCF786F90B
:1053B000094C2368092B02D97846FCF77FF9EFF3F3
:1053C000108372B62068421C2260044A42F82050C2
:1053D00003B962B638BD00BF5442002058420020D5
:1053E00010B50E4B1B688342044602D87846FCF782
:1053F00065F9EFF3108072B6094A6109012304F0E0
:105400001F0403FA04F452F82130234342F82130F8
:10541000FFF7FCFE00B962B610BD00BF5442002089
:105420008042002070B50D461646044610B97846F5
:10543000FCF744F915B97846FCF740F9EFF310830F
:1054400072B60022C4E902562274246003B962B61F
:1054500070BD000070B5044610B97846FCF72EF90F
:10546000A36813B97846FCF729F9EFF3108672B6F2
:10547000237C03F0FF055BB9012306482374214612
:10548000FFF754F8FFF7C2FE284606B962B670BDB2
:105490001120FAE78842002010B5044610B978467A
:1054A000FCF70CF9207C10BD2DE9FF47314E337815
:1054B00013B17846FCF702F90125DFF8C8802E4FBA
:1054C000DFF8C49035700024D8F80030A34212D819
:1054D0002A48DFF8A880FFF743F8002750BB284C84
:1054E00069462046FEF7E2F890B300232846337061
:1054F00004B0BDE8F087610904F01F020123934066
:1055000057F82120134213D0EFF3108072B657F8EA
:10551000212022EA030347F8213000B962B659F886
:1055200024309847824618B92046FFF759FF554660
:105530000134C9E70468237C13B97846FCF7BEF848
:10554000D4E90230984727744046FFF709F8C5E7C9
:105550009DF8003043B1012BC2D1019B002BBFD07D
:10556000DDE902019847BBE7019B002BB8D0029808
:105570009847B5E7904200208042002088420020F2
:105580003C4100205442002058420020FFF78CBFCD
:1055900007B5FFF70BF88DF803009DF803301749A6
:1055A000F02B0DD10B780F2B25D01220FFF706F82A
:1055B00080F00100C0B200F0010003B05DF804FB10
:1055C0009DF803305BB2002BADBF03F1604303F0E5
:1055D0000F030B4A03F56143B4BFD35C93F8003368
:1055E0005B090193019A0B78934204D0019A93428C
:1055F000DBD30020DFE70120DDE700BF844200208D
:1056000014ED00E046DF704730B58DB00D4614460E
:1056100001461022684606F04EFD102229460DEB89
:10562000020006F048FD6846FFF7ECFF102208A9CB
:10563000204606F040FD0DB030BDFEF7E5BF01F09D
:1056400085BD01F0ADBD30B4032956D8DFE801F0C7
:105650000227275000241C70817A5A7861F30602D1
:105660005A70C17AD2B261F3C7125A70C1680D0480
:10567000C1F3074205F47F0501F47F412A430A4341
:10568000C2F307219A70120C1A71D9700189DC716A
:105690000A0A42EA0122A3F805201C7222E01970CE
:1056A000597801F0800162F3C7115970C1680C0488
:1056B000C1F3074204F47F0401F47F4122430A430B
:1056C0009A70C2F30721120C1A71D97001890A0A63
:1056D00042EA0122A3F8052041880A0A42EA01228F
:1056E000A3F80720026912BAC3F8092030BC70473A
:1056F000032200241A705C70B8E7784630BCFBF7D0
:10570000DDBF7FB50E461546044600B112B9784696
:10571000FBF7D4FF10220021684606F0D7FC2B4689
:10572000324621466846FEF76FFF04B070BD2DE992
:10573000FF410B9D884616461C46074610B10AB12C
:1057400003B115B97846FBF7B9FF6B4642463946B7
:105750003046FEF759FF2B469DF828202146684623
:10576000FEF752FF04B0BDE8F0810000F0B50D4631
:105770008FB014461F46064608B101B113B97846EA
:10578000FBF79CFF1CB97846FBF798FF01E0102C53
:10579000F9D8254B1868009005AA68460421FFF740
:1057A000B0FF01AB314605A81022FEF72DFF2246BF
:1057B000294605A806F07FFC0EAB2344012203F81E
:1057C000242C05ABA218194601A892B2FEF71CFFC3
:1057D0009DF823303E4603F07F0306F8013B224646
:1057E000294609A806F067FC04F110050EAB1D441C
:1057F0001134A4B2022305F8243C2246334605A9FD
:1058000001A8FEF701FF3146102205A806F053FC5F
:10581000032305F8243C224607F1110305A901A83A
:10582000FEF7F2FE0FB0F0BD46D9030070B50D468D
:1058300088B0064600B111B97846FBF73FFF114C1E
:1058400004212068019004AA0DEB0100FFF759FF25
:1058500004AB314618461022FEF7D6FE234602A9B5
:1058600053F8040F02901B798DF80C3004AB1846E6
:105870000522FEF7C9FE082206A9284606F01BFCF1
:1058800008B070BD4AD9030070B50D4686B0064613
:1058900000B111B97846FBF711FF0F4C54F8040B17
:1058A000009002AA68460421FFF72BFF02AB3146A5
:1058B00018461022FEF7A8FE2068019002AB0422D1
:1058C00018460DEB0201FEF79FFE9DF8173003F01E
:1058D0003F032B7006B070BD53D9030030B502688A
:1058E000037CD17A87B000298DF8043083680CBF1F
:1058F0000421082109330B44CDE9023243680493A3
:105900000446C3680593694601A801F061FED0B161
:10591000237C012B0ED02568FEF7DEF92861206874
:105920000C30FEF771F9054620B101F0CDFE284696
:1059300007B030BD2168009800F08DFB009B093353
:1059400063610025F3E70425F1E7000008B5074B84
:1059500040B91860FEF748F8FDF7F0FFBDE80840D1
:1059600002F0EABA42681A60F4E700BF94420020ED
:1059700008B5FEF75BF8BDE8084002F01BBB10B5A8
:10598000044610B97846FBF799FE236813B97846A8
:10599000FBF794FE23685B6913B97846FBF78EFE2C
:1059A000237C012B02D97846FBF788FEE36813B904
:1059B0007846FBF783FE2046BDE81040FFF78EBF18
:1059C00070B50446C6B010B97846FBF777FE636938
:1059D00013B97846FBF772FE236813B97846FBF7D4
:1059E0006DFE23685B6913B97846FBF767FE606953
:1059F00000F08EFB234B1B689B0706462FD5224BDE
:105A00001B68042B2BDD214B05AD19680023F25CCC
:105A1000100902F00F02085C05F81300885C05EB22
:105A2000430201331D2B5070F1D100232F21184860
:105A300085F83A3006F01AFCD8B12F21144806F048
:105A400015FC411C134B144AD3F804350192134A38
:105A5000009202954FF49472052000F0FDFC0023A3
:105A60003246A168206800F0B7FA01F007FE46B0A0
:105A700070BD5C21064806F0F9FB08B15C21DDE74A
:105A80000349DFE7602E00205C2E0020642E0020FA
:105A9000A6D9030000100140C1D9030069C6030064
:105AA0002DE9F0470F46D4B091460546002800F096
:105AB000368100F02FFB0DF12C089A4E421B29462F
:105AC000404606F0F8FA336899072AD5964B1B68CA
:105AD000042B26DD954B802F3846196828BF80207F
:105AE000002313AC834240F0B18000222F21904864
:105AF00004F8132006F0BAFB002800F0B8802F212C
:105B00008B4806F0B3FB411C8A4B8B4AD3F8043513
:105B100001928A4A0092029440F24D12052000F050
:105B20009BFC002305AC00932A4643463946204699
:105B300000F008FA8246002840F0C3802378002B4A
:105B400000F0BF80E268B2F1807F80F0BA80E27A34
:105B500012B1022B00F0B58094F90A30002BC0F28C
:105B6000B080336813F0020F13AD28D06E4B1B6862
:105B7000042B24DD6D4B802F3846196828BF802008
:105B8000002383427CD100222F21694805F813208D
:105B900006F06CFB002800F085802F21644806F099
:105BA00065FB411C634B664AD3F804350192634A96
:105BB000009202954FF4AB72052000F04DFC636932
:105BC00013B97846FBF77AFD3946204600F098FA7B
:105BD000C7B24B46224639460DF13500FCF760FD51
:105BE000E16882462089FBF7D5FD29462089FBF72D
:105BF000DBF8002865D1012003F0C2F9002860D04D
:105C0000A37A012B5DD92378012B54D04D4BA27A76
:105C10001B68002B59D1A37A2C60013BA3724FF073
:105C2000FF336B60DF23EB6028460123AF602B74EA
:105C3000FFF754FE00284ED13A460DF13501686950
:105C400006F039FA2846FFF7BBFE3AE0EA5C4FEA75
:105C5000121C02F00F0211F80CC004F813C011F866
:105C600002C004EB4302013382F801C03AE75C2131
:105C70002F4806F0FBFA08B15C2141E72C4943E7C5
:105C800018F803204FEA121C02F00F0211F80CC0A2
:105C900005F813C011F802C005EB4302013382F886
:105CA00001C06EE75C21224806F0E0FA08B15C21F1
:105CB00074E71F4976E729466088FBF775F80028E6
:105CC000A4D0504654B0BDE8F08761882089984739
:105CD0000028A0D1F5E733689B07F2D5124B1B686B
:105CE000012BEEDD2F21124806F0C0FA70B12F21F2
:105CF0000F4806F0BBFA411C0E4B134AD3F804358B
:105D000000920220A72200F0A7FBDAE75C210848F6
:105D100006F0ACFA08B15C21EAE70549ECE74FF080
:105D20000E0ACEE7602E00205C2E0020642E00209C
:105D3000A6D90300001001405BD9030069C6030027
:105D40006AD903009442002079D9030008B510B144
:105D5000012801D1032008BD7846FBF7AFFC0020E5
:105D6000F9E770B5064688B00D46144600210522B5
:105D700004A806F0ABF9336907221BBAA9180DF184
:105D80001900CDF8153006F096F970696A461130A1
:105D900004A9FFF739FCAB1D0DF10600E21D13F855
:105DA000011910F8014DAB4281EA040102F8011D0E
:105DB000F5D108B070BD00002DE9F041D4B01E4609
:105DC00000238DF81730ADF83C300E93D31D0C93A3
:105DD000F31D10935A9B43610F460DF118081146AD
:105DE00032460446CDF82C80FFF7BBFF7378DB0901
:105DF000E372737803F07F03A372F378B2781B0227
:105E000043EA024332791343E3607379B07940EA9D
:105E100003202081FEF7B4F9012869D1E27A002A33
:105E2000A7F1090314BF08220422934260D3E1685A
:105E30002089FBF791FC0546002859D1E37A9DF8AB
:105E40006C01002B14BF08230423073F8DF8483052
:105E5000FF1A0C9BBFB2ADF834701F441197FFF7C7
:105E600075FF434601462A462046FFF7ECFB63696F
:105E70000DF1170101330AA80A93FFF7E2FB9DF821
:105E80001730002B34D0F379307A40EA0320608059
:105E9000FEF776F9244B20701B689B0728D5234B0F
:105EA0001B68032B24DDBDF83420214B109E19689C
:105EB000802A28BF8022284613AC90421DD100239F
:105EC00004F810302F211B4806F0D0F910B32F2111
:105ED000184806F0CBF9411C174B184AD3F8043583
:105EE0000192174A00920294DF22042000F0B4FAD3
:105EF0009DF8170054B0BDE8F081335C1D0903F034
:105F00000F034D5D04F81050CD5C04EB40030130ED
:105F10005D70D2E75C21074806F0A8F908B15C2162
:105F2000D6E70449D8E700BF602E00205C2E002091
:105F3000642E0020C8D9030000100140E6D90300F8
:105F400069C603002DE9FF47894615461F469DF89F
:105F500030A0064618B112B10BB19A4202D1784670
:105F6000FBF7ACFBA9F10903142B31D82878C00941
:105F7000FDF7BCFE00233061736195F80080CDE928
:105F8000023308F07F0803AA02A94046FAF724FE6C
:105F9000029BB3B1CDE9003A2A463B46494630461A
:105FA000FFF70AFF044608B100200EE0039B43B14F
:105FB000CDE9003A2A463B4649463046FFF7FCFE0B
:105FC00040B9029B002BDED1052004B0BDE8F0876C
:105FD0000920FAE72046F8E7F0B50C468FB01646E0
:105FE0001F46054610B97846FBF768FB16B9784698
:105FF000FBF764FB012F02D97846FBF75FFB3846BD
:10600000FFF7A4FE01AF3B46014600222846FFF7FA
:106010001AFBEB7A002B14BF082304238DF83430CD
:106020006B69A11C0133CDE9053789B2F31D00224C
:10603000ADF8201005A8194407930B93ADF828205C
:1060400009920C91FFF7FBFA324631462846FFF7DA
:1060500088FE0FB0F0BD38B50D46044610B978463D
:10606000FBF72CFB15B97846FBF728FB2889FEF7D0
:1060700087F8012802D07846FBF720FB95F90A3013
:10608000002B02DA7846FBF719FBEB68B3F1807F4F
:1060900002D37846FBF712FB6B6913B97846FBF71E
:1060A0000DFB2B6903F00102237803F07F0343EA21
:1060B000C21323706A69127823F07F0302F07F0213
:1060C000134323706378EA7A03F07F0343EAC21331
:1060D000DBB26370AA7A23F07F0302F07F021343DE
:1060E0006370EB6823711A0CA2701A0AE2702B8994
:1060F000A3711A0A62716B8823721A0AE27138BDA1
:10610000C37A002B14BF082004200939081A7047ED
:106110000938704701307047436849B90278807880
:106120001A441B78C31A12F8010C1844C0B2704705
:106130005A185B5C12F8010CC01AF7E738B50D4627
:10614000044610B97846FBF7B9FA2378AB4202D877
:106150007846FBF7B3FA29462046FFF7DDFF40B14A
:1061600063686278585DA378013B1840A36802FB1E
:10617000003038BD38B50C46054610B97846FBF7F7
:106180009DFA2B78A34202D87846FBF797FA21466E
:106190002846FFF7C1FF18B16A68135D0133135534
:1061A00038BD10B5044610B97846FBF787FA0023CE
:1061B000194622789A4200D810BD6268D154013342
:1061C000F7E710B54378044613B97846FBF776FA3B
:1061D0002378012B02D87846FBF770FAA36813B92D
:1061E0007846FBF76BFA636813B97846FBF766FAF3
:1061F000A37813B15A1E1A4202D07846FBF75EFA12
:106200002046BDE81040FFF7CCBF38B50D46044628
:1062100010B97846FBF752FA2378AB4202D8784699
:10622000FBF74CFA29462046BDE83840FFF774BF1B
:1062300008B520B119B1FFF727FB002008BD0E20DB
:10624000FCE713B50B4650B149B102A9002401F88F
:10625000014D0122FFF78AFA204602B010BD0E2040
:10626000FBE7000030B50C468BB00546E0B1D9B174
:106270001031FFF7DBFA0D4B03930D4B18680490B8
:106280009B88ADF8143006AA042103A8FFF739FA59
:10629000062300932846019404AB06AA1021FFF7B9
:1062A00046FA00200BB030BD0E20FBE76E6B626B30
:1062B000F9D9030030B50C4687B00546F0B1E9B115
:1062C00004210F4B01930DEB010002AAFFF719FA0D
:1062D00002AB184610222946FFF7AFF99DF8163099
:1062E0009DF817201B026FEA424203F47C536FEAC9
:1062F000524213432380002007B030BD0E20FBE73D
:106300007674616438B50D46044600B111B978461B
:10631000FBF7D4F9AC421EBF23682B60256038BD63
:1063200038B50C46054600B111B97846FBF7C6F9F9
:106330002B68A34202D17846FBF7C0F9286840B920
:106340002C60206038BDA54202D17846FBF7B6F933
:1063500028460568002DF6D12146BDE83840FFF7F4
:10636000D1BF38B505460C4601B110B97846FBF7E8
:10637000A5F92B6883B1A34205D123682B600020C7
:10638000206038BD13461A6822B1A242FAD12268B1
:106390001A60F4E7002CFAD00520F2E7F8B50E46B3
:1063A0001746044608B101B112B97846FBF786F9E1
:1063B0002368B34202D17846FBF780F925685DB9BE
:1063C000266028463560F8BD2C68A64202D1784682
:1063D000FBF774F93CB1254631462846B8470028FA
:1063E000F2D00F20EFE728463146FFF78BFF20461B
:1063F000E9E7000037B506AC184654F8045B009294
:106400000B4602460549002004F068FD2246294655
:10641000002004F045FC03B030BD00BF00DA0300EB
:10642000034B1860034B1960034B1A60704700BFA1
:10643000602E00205C2E0020682E002010B4054C39
:1064400024681CB1A4465DF8044B60475DF8044B1A
:10645000704700BF682E002030B585B008AC54F8F6
:10646000045B0394CDE90054FFF7E8FF05B030BDAD
:10647000037942799B1A00EB03307047431E9BB2AD
:1064800047F6FE62934208D849B14B8858400B88C2
:1064900018420CBF012000207047002070470120E7
:1064A0007047830770B504460E46054602D078460D
:1064B000FBF704F926F003063444A54201D101207C
:1064C00070BD55F8043B0133F7D00020F8E7000019
:1064D000064B984210B5044603D303F582739842E5
:1064E00002D97846FBF7EAF8201F10BDA44200202D
:1064F0001FB50124CDE9022101901A4669462046C4
:106500008DF80040FDF77EFD04B010BDF8B50C4DD0
:1065100001460C48FCF765FD6E687EB100272846F1
:10652000FEF71EF8044610B97846FBF7C7F8236853
:106530002760D3E902209047A642F0D1F8BD00BF02
:10654000AC4300209842002038B503884A6803F124
:106550008043013B9C001368033323F00303A342F1
:106560000D4605D009238B606B681C60002038BD88
:1065700000238B601268011D286805F09CFDF3E77D
:1065800013B502A9002482B241F8044D0448FCF777
:1065900044FC18B90198043002B010BD2046FBE756
:1065A0009842002008B5FFF793FFBDE80840014678
:1065B00002880148FCF782BC98420020014B186811
:1065C000FEF70EBFB443002010B50388044613B98C
:1065D0007846FBF773F82088074B04EB800030EA1D
:1065E000030203D06288B2F5FE4F04D11C4004F5CB
:1065F00080542078204410BD00F0FFFF70B504687F
:10660000237805461C4400214FF6FF762868FFF7E3
:106610002FFF844202D26388B34201D1084670BD85
:106620002046FFF7D1FF21460446EFE72DE9F04F62
:10663000934FDFF8708287B03E4698F800203B7891
:10664000022A14D1032BFDD8DFE813F0040039002F
:106650001100670106A9002341F8103D8948FCF7A5
:106660005EFC014638B1884B1B6803B19847012096
:1066700007B0BDE8F08F029C844B94F80890221D6F
:106680001A60012399453370D7D86568E868FFF729
:10669000EFFE6B69C01AAB68C01AB9F1000F01D1E7
:1066A000218A89008142C8DB6B68002BC5D0032397
:1066B0002B70606888F80030FCF78EFFBDE7734BE5
:1066C0001C682379042B00F2D380DFE813F0050067
:1066D0008A00AD00ED0017012368DD682846FFF74A
:1066E000C7FE2B78E2890146E81800F02FFF2568E5
:1066F000AB68824673B9D5F80C904846FFF7B8FEF0
:1067000099F80030014647F6FF7209EB030000F0EC
:106710001DFFA8602268A189D2F80890DFF880B137
:1067200029F47F6525F00F0505F58055A5EB0903D4
:1067300089008B4233D909EB01052146002331F84A
:106740000C2F48469200FFF7D3FE10B17846FAF7B7
:10675000B5FF4F4B4F4904222846FFF7C9FE10B141
:106760007846FAF7ABFFBAF1000F10D02268BAF8FA
:106770000010536803EB810353604749444B0422E4
:106780005046FFF7B5FE10B17846FAF797FF0023A1
:10679000C4F808908BF80030022333704DE7D068BE
:1067A0000193FFF765FE8542019B04D101238BF81D
:1067B00000300323F1E78B4202D12B781D44BCE764
:1067C0000023042235494846FFF792FE10B178466F
:1067D000FAF774FF95F80090A944A58909EB85059F
:1067E000ABE72368DD682846FFF742FE2B78E28995
:1067F0000146E81800F0AAFE294D10B902232B70BB
:10680000D7E72268A0600188536803EB81035360D7
:1068100021491F4B0422FFF76BFE60B37846FAF75D
:106820004DFF00232B70B7E72268637BD56805EB2B
:10683000033508212846FFF734FE90B905F1FF3AE9
:1068400004F1070904F10F0B1AF8013F19F8012FA1
:106850009A4204D0FF2B02D07846FAF72FFFCB459F
:10686000F2D108220A4BA1182846FFF741FE10B1C9
:106870007846FAF723FF0A4B00221A708CE700BF14
:10688000A843002098420020B8430020C0430020C5
:10689000BE43002030DA030028DA03002CDA0300BC
:1068A000C4430020BC43002020680C30FFF7A6FE44
:1068B000054610B97846FAF701FF6B884BB1554B86
:1068C000554904222846FFF713FE10B17846FAF71F
:1068D000F5FE2846D4F80090FFF776FEC9F80800C8
:1068E0002168C868FFF7C4FD8B688342C3D228467D
:1068F000FFF76AFE474B49490422B6E72368D3E90C
:10690000032302211B038DF80810CDE9032302A9FC
:10691000404A0120FDF776FBA9E7414C236813B9F3
:106920007846FAF7CBFE3F4B246893F80090B9F114
:10693000000F21D12379D4F808A0012B13D00AD35A
:10694000022B1CD023792568042B35D8DFE803F00F
:106950001F3B433451002146504631F80C2F920022
:1069600005F09AFB01E0BAF80200B0FA80F04009A5
:106970000028E7D14FF0030904F10C0AE2E723688D
:10698000607BDB680822A11803EB0030E8E7B9F16F
:10699000000F0BD1A068FFF717FEA860428847F6EA
:1069A000FF739A4202D07846FAF788FEAB691BB1B2
:1069B0004A465146284698472046FFF789FDFFF78B
:1069C000A5FD0023E9E6EB69002BF5D04A46E189F5
:1069D00028469847F0E72B78012B02D07846FAF743
:1069E0006DFE237B627B013B9A42E5D102232B7033
:1069F000E2E7B9F1000F02D07846FAF75FFE2B7894
:106A0000012B1CBF00232B702B6A002BD4D02846EF
:106A10009847D1E7BE43002028DA030030DA0300AC
:106A2000C0430020C4430020064B1B88934207D17B
:106A3000054B1A78022A03D103221A70FFF7F6BD1C
:106A4000704700BFBE430020A843002008B54FF4A4
:106A500082720F490F48FCF762F90F490120FDF7D8
:106A6000C1FA0E48FEF79EFC0D4B0E4A186000233B
:106A700013700D4A0D481380FDF74EFDFCF742FDE3
:106A80000B4B10B103221A7008BD0222FBE700BFB6
:106A9000A442002098420020296A03002D660300CA
:106AA000B4430020A8430020BE430020AC43002094
:106AB000BC43002010B504460820FFF761FD042305
:106AC00040B1237003710460FFF76CFDFFF776FDA2
:106AD000002010BD1846FCE72DE9F04F87B0814635
:106AE00003910192049310B97846FAF7E7FD01206B
:106AF000FDF70EFBFCF792FD0024031D054627461B
:106B00004FF00108029347F6FE6BD9F81010A1422E
:106B100002D9B8F1010F06D00020FDF7F9FA384686
:106B200007B0BDE8F08FD9F80C30286803EB0432C9
:106B3000904202F5805604F1010426D1A14205F5E8
:106B4000805A20D0327816447188013989B259456B
:106B500035D900F5005230460592FFF735FD059A0C
:106B6000824210D986420ED24188013989B25945F4
:106B7000F2D82E79029B42885146981900F0E6FC23
:106B8000002818BF8246029A5646137802EB030A81
:106B9000B245BADAB8F1010FB7D10399BAF80200D9
:106BA000FFF76CFC30B1019B01371BB104995046D3
:106BB000984780465046FFF707FD8246E8E7304693
:106BC000D7E700007FB5E8B1E2B1DBB14C1EA4B25B
:106BD00047F6FE66B44217D80478023C012C15D85B
:106BE000CDE901230523ADF8021003934FF6FF749E
:106BF00001AB074AADF800406946FFF76DFF039807
:106C000004B070BD0E20FBE70720F9E70820F7E786
:106C10004965030070B50D46044610B97846FAF789
:106C20004DFD0023294620461A46BDE87040FFF777
:106C300053BF70B50E461446054610B97846FAF7AC
:106C40003DFD731E9BB247F6FE62934206D947F69E
:106C5000FF739E4202D07846FAF730FD802C02D9AD
:106C60007846FAF72BFD2B780BB9002070BD04F1A4
:106C70001000FFF785FC0028F7D00334A408002398
:106C800001340371C681848140F80C5BEEE700009B
:106C9000094B984210B5044603D303F5827398421A
:106CA00002D97846FAF70AFDA4F10C00FFF77AFC46
:106CB000BDE81040FFF782BCA442002038B50C4666
:106CC000054610B97846FAF7F9FC631E9BB247F601
:106CD000FE62934206D947F6FF739C4202D0784683
:106CE000FAF7ECFC1020FFF74BFC60B101220271B7
:106CF0004FF6FF72C48182810560FFF753FCFFF7F6
:106D00005DFC002038BD0420FCE700002DE9F843BD
:106D1000002303700B68C3F30B0304460D4613B145
:106D20007846FAF7CBFC6B68FE2B02D97846FAF767
:106D3000C5FC04F10C07182229463846002605F048
:106D4000BAF9C4E9016623699E4257D32046FCF78D
:106D50001FFC064600287CD1E5682846FFF788FB23
:106D60002B7880461D4447F6FF796B88C3F30E02EB
:106D70004A4572D166602046FCF70AFC10B178469D
:106D8000FAF79CFC3846FFF739FCA060002873D165
:106D9000E3681A7813444FF6FF725988914200D184
:106DA000A360022323702046FCF7F2FB10B1784663
:106DB000FAF784FCE5682B781D44A3689D424AD20B
:106DC0002846FFF701FCA3689842064668D16A8806
:106DD000531E9BB247F6FE618B423CD8E36818789D
:106DE0002946184400F0B2FB002834D0A84232D023
:106DF00041882046BDE8F843FFF760BF3503E368EC
:106E00005A195B5D083BDBB2F62B15D85379FF2B83
:106E100012D01279FF2A0FD09E4202D07846FAF79C
:106E20004DFCE3682B441A7923699A4202D07846D4
:106E3000FAF744FC013686E701233B4F2370002517
:106E400023699D4231D3FFF7B9FBE3680833A360A0
:106E500001E003232370002018E013B92B8806EB10
:106E600083062846FFF7B0FB804505463FF67DAF19
:106E70007846FAF723FC78E7428847F6FF739A4290
:106E80008FD00820FFF77CFB10B90420BDE8F88301
:106E9000032202710460FFF785FBFFF78FFB80E799
:106EA0003046FFF791FB35468DE7E0682E0330440E
:106EB00040F6FC710430FFF7F4FA90B11020FFF7B0
:106EC0005FFB0028E1D002220271876045732269CE
:106ED00002734FF6FF72C2810460FFF763FB013556
:106EE000AEE7E3689A199B5D083BDBB2F62B05D849
:106EF0005379FF2B02D01379FF2B02D17846FAF792
:106F0000DDFBE36833445B799D4202D07846FAF7B3
:106F1000D5FBE3681E44236932799A42DFD0784674
:106F2000FAF7CCFBDBE700BF0804101010B50446ED
:106F300010B97846FAF7C2FBA36813B97846FAF796
:106F4000BDFB236833B9246021460348BDE81040E7
:106F5000FDF7ECBA10BD00BFAC43002008B50648F1
:106F6000FCF779F820B1FCF72FFB80F00100C0B2EC
:106F700000F0010008BD00BF9842002038B504466B
:106F800098B1C5682846FFF773FA2B78014647F693
:106F9000FF72E81800F0DAFAA06010B97846FAF744
:106FA0008DFB0223237000236360054B05490222F9
:106FB00001201A70FDF716F8BDE83840FFF7FEBA59
:106FC000BC430020296A0300FCF728BB38B50546FE
:106FD000044C20B1236813B17846FAF76FFB2560A3
:106FE00038BD00BFB843002030B503B930BD013B08
:106FF0009BB2CC5CD55C6C40C454F6E746DF70476E
:107000002DE9F843858907468846012401F12009C6
:107010000DB9BDE8F88363BAA8F81E304046FFF703
:10702000EDFF102D04F1FF3CB968B8692E464FEA18
:107030000C1C28BF102633464A4661446044AD1BF1
:107040000134FFF7D1FFADB2A4B2E1E72DE9F0477B
:1070500007460E461446994600F1100500F1200837
:107060000CB9BDE8F087C9F1100A544505EB0900D9
:1070700018DA2246314605F01EF804EB0900C0F18B
:1070800010020021284405F021F8002410232A468C
:1070900041462846FFF7A8FF3846FFF7AFFF4FF0FD
:1070A0000009DDE7103C3146524619FA84F405F038
:1070B00002F8A4B25644E9E770B5838A002B90F831
:1070C00020300D46A3F102034FF0020193FBF1F3D0
:1070D0004FEAC30303F03803164643F0010314BF1D
:1070E00040220022134304462B7441680D2205F10F
:1070F000110004F0E0FFA289130A43EA0223EB83A4
:107100002846FFF77BFFA38A83B1B3F57F4F02D3F5
:107110007846FAF7D3FAA28A130A43EA02232B82AB
:10712000A28A216902232846FFF790FFA28922B193
:107130000023A1682846FFF789FF94F8202005F175
:1071400020013046BDE8704004F0B5BF30B50446BC
:107150008DB001681022684604F0ADFFE26969460F
:107160002046FFF7A9FFE569616801230D220DF1B3
:1071700011008DF8103004F09EFF00236846ADF832
:107180001E30FFF73BFF94F8203008AA2946284616
:10719000FFF72AFF69462046FFF732FF0DB030BDEA
:1071A00070B590F82030102B90B004460D4602D9EF
:1071B0007846FAF783FA102221680DEB020004F0FA
:1071C0007AFFA3897BB1012361688DF820300D22FD
:1071D0000DF1210004F06FFF002304A92046ADF853
:1071E0002E30FFF70DFFA369A668A3606A4604A9C5
:1071F0002046FFF761FF616801230D220DF1210098
:107200008DF8203004F057FF002304A8ADF82E308D
:10721000FFF7F4FE94F820300CAA69466846FFF7A1
:10722000E3FEA66094F82020E169684604F034FF8C
:10723000B0FA80F04009287010B070BD70B50B4CEA
:10724000038825889D42064606D001339BB29D42A5
:1072500002D07846FAF732FA30882368854238BF80
:1072600003F1FF331B0C1B04184470BDC8430020FE
:107270002DE9F8430378022B0DD1FCF727FD114EC1
:10728000DFF848800546002400F1FF3933689C424E
:1072900003D30D4B1D60BDE8F88308EBC407B81D90
:1072A000FFF7CCFF85420BD0484509D03368013B3E
:1072B000336008EBC30393E8030087E80300E5E7C6
:1072C0000134E3E7CC430020C8430020D043002032
:1072D00008B5FCF7FBFC014B186008BDC843002053
:1072E0002DE9F8431A4D1B4E2B6888469146002421
:1072F000A3420CD1282B29D0164A02EBC30142F835
:10730000338001338880A1F806902B6015E0E700F8
:10731000F2199188814217D1901DFFF78FFF8145A7
:107320000ED156F83400804594BF0020012028B1CA
:10733000374446F83480A7F806900020BDE8F8836B
:107340008CBF01200020F2E70134D1E70420F5E7EB
:10735000CC430020D0430020F8B5114B114E0C4611
:10736000196817460025A94201D1002011E006EB5B
:10737000C5039A88824211D1981DFFF75FFF8742AB
:1073800008D156F83500844294BF0020012080F0D7
:107390000100F8BD8CBF01200020F8E70135E2E7CD
:1073A000CC430020D0430020034B044800214FF47D
:1073B000A072196004F08ABECC430020D0430020A4
:1073C00008B50348FDF794F8BDE80840FFF7ECBFA7
:1073D0006C2E00202DE9F041884616461F460446D3
:1073E000B0B1C2B1013B1B2B15D8FF2913D0BD1C76
:1073F000EDB2691C01F0A0FF044648B12B2345748F
:10740000837480F813803A463146143004F053FEFA
:107410002046BDE8F0810024FAE70000F0B50E46F2
:10742000C7B01746054610B97846FAF747F9002E57
:107430007AD02C78711EC9B2002C57D0012C5CD0A8
:107440003A4C2268D20519D5394B1B68012B15DD42
:107450002F21384804F00AFF002853D02F21354847
:1074600004F004FF411C344B2A78D3F80435019210
:10747000324A009202206D22FEF7EEFF2368DB0500
:1074800032D52B4B1B68032B2EDD2D4B802E19681C
:1074900028BF8026002305AC15F8012F100902F043
:1074A0000F02085C04F81300885C04EB430201330C
:1074B0009E425070F0D100232F211E4804F8163050
:1074C00004F0D4FE38B32F211A4804F0CFFE411C3B
:1074D000194B1C4AD3F8043501921B4A00920294BE
:1074E0006E220420FEF7B8FF0B2004E03A46681C29
:1074F000F1F74AFE002047B0F0BD3A46681C00F0A4
:107500008FFDF7E75C210B4804F0B0FE08B15C2169
:10751000A5E70849A7E75C21064804F0A7FE08B1E3
:107520005C21D1E70349D3E70920E4E7602E00207E
:107530005C2E002034DA0300001001404EDA030014
:10754000642E002074DA030069C6030088422DE926
:10755000F84307460E46904602D97846FAF7AEF849
:107560003C46DFF85C901AE0238804EB83039E42DC
:1075700021D9238813B97846FAF7A0F8238804EBB9
:10758000830333EA090203D06288B2F5FE4F01D1CA
:107590002B782B449E420ED99F421C460BD2638807
:1075A000434509D004EA090505F58055B542E0D305
:1075B000B3F5FE4FD8D100242046BDE8F88300BFC4
:1075C00000F0FFFF014B1860704700BF144500201A
:1075D0002DE9F0410F46054610B97846FAF76EF8E6
:1075E00017B97846FAF76AF82B78012B02D9784652
:1075F000FAF764F81E4C236A13B17846FAF75EF87E
:107600006B681D2B02D97846FAF758F82B78012BB6
:1076100009D1EB685A1C06D003F50073012B02D97F
:107620007846FAF74BF8134B1E684FF0010846B93D
:10763000236A1BB16B6823700F4B3B60206ABDE867
:10764000F08116F8032C2B691A42A6F108000CD021
:1076500056F8083C29461B68984730B916F8043C90
:10766000226A08FA03F3134323623668DFE700BF98
:10767000585100201845002059510020F8B50F4DF1
:107680002B6A13B97846FAF719F80D4B0D4F1C68A1
:1076900001260CB92C62F8BD14F8043C2A6A06FADB
:1076A00003F31342A4F1080005D054F8083C2A78EB
:1076B0005B68394698472468EBE700BF58510020C3
:1076C000184500205951002070B50D4D2B6A13B993
:1076D0007846F9F7F3FF0B4B1C6801260CB92C62B6
:1076E00070BD14F8043C2A6A06FA03F31342A4F1AD
:1076F000080003D054F8083C9B6898472468EDE7DD
:1077000058510020184500202DE9F0410E4617463B
:107710009846054610B97846F9F7D0FF064B1C6825
:107720003CB143463A4629793046A446BDE8F0418B
:107730006047BDE8F08100BF14450020F8B50E4653
:107740001746044610B97846F9F7B8FF16B97846D7
:10775000F9F7B4FF1FB97846F9F7B0FF01E0FF2F42
:10776000F9D0336813B97846F9F7A8FF736813B9ED
:107770007846F9F7A3FFB36813B97846F9F79EFF87
:10778000094D2B781F2B02D97846F9F797FF2B78F4
:1077900026605A1C237167712A7004F1080103489E
:1077A000BDE8F840FEF7BCBD10450020184500209C
:1077B00007B540F20713B3EB104F019002D07846A3
:1077C000F9F77CFF03481422002103B05DF804EBB5
:1077D00004F07CBC2845002013B540F20713B3EB3E
:1077E000104F01900C4602D07846F9F767FF044924
:1077F0001422204602B0BDE8104004F05CBC00BF7B
:1078000028450020F7B540F20713B3EB104F019065
:107810000F4602D07846F9F751FF3888FCF7B0FCE4
:1078200002284AD07B68B3F5004F03D94FF6FF72A8
:10783000934242D1BB68B3F5803F3ED897F90C30F4
:10784000002B3ADB3E460FCE1D4C25460FC5336854
:107850002B603A88234612B9C4E901222273194ADF
:1078600014785A68E4B14FF6FF70111A4A424A413F
:10787000E2B19A68D2B1144BB4B1B2F5E16F1446DB
:1078800028BF4FF4E164121B1A60FDF771F80F492D
:1078900001FB04010E48FDF742F8002003B0F0BDE3
:1078A000003218BF0122E3E71C60EEE7002408481D
:1078B000C3E90144FDF71CF8EFE70720EEE700BF3E
:1078C00028450020704500205445002040420F000C
:1078D0005845002030B50C4DAC688DB08CB90B48C4
:1078E000FDF706F82C22214601A8AC6004F0EEFB5F
:1078F000062301A88DF804300295FBF7B9F90DB005
:1079000030BD013CAC60FAE74045002074450020E2
:1079100010B503780A2B8CB039D11E4AC48913885C
:10792000A34234D1418A5388994230D18368032BD2
:107930002DD193685BB35368B3F5004F3CBF01335F
:1079400053604168007F05238DF804300B7803F005
:107950007F038DF808300B78C0F1010003F07F033E
:107960000344DBB28DF809308978ADF80C4001F0A2
:107970000F01ADF80A1091899BB29942D18988BF55
:10798000938101A8994238BFD381FBF771F90CB0FC
:1079900010BD00BF4045002070B5294C23888EB033
:1079A000002B4BD0274D2A6812B97846F9F786FE8E
:1079B0002B6868469847054600283FD102AE03224F
:1079C0000146304604F082FB9DF80830227B8DF89A
:1079D000095023F07F0302F07F0213438DF8083033
:1079E000194B1B788DF80A30019B13B97846F9F7CB
:1079F00065FE0A238DF8143000238DF8203020888E
:107A0000BDF80030ADF82230ADF82600FCF7B8FB29
:107A1000019B0B9303230793237B8DF824008DF8A0
:107A200030306FF00201FF2305A80D930696FAF798
:107A300081FD064B003018BF012018700EB070BDDC
:107A4000284500208C45002050450020714500202D
:107A50000378012B04D1034B1B780BB1FFF79CBFBC
:107A6000704700BF7145002038B5114D114C2B886F
:107A7000DBB16B68CBB1226852B94FF6FF7293420B
:107A80001CBF03F1FF336B60FFF786FFAB68236019
:107A90002368094AB3F5E16F194628BF4FF4E16145
:107AA0004A435B1A2261236001E00023236138BD51
:107AB000284500205445002040420F0017B4019192
:107AC000C1F30741012914D198B90C4814780378FF
:107AD000D94301F0010294420BD183F001030370FA
:107AE000074BDB89DB0704D503B05DF8044BFFF7D8
:107AF00053BF03B05DF8044B704700BF50450020F2
:107B00002845002008B501210B48FBF783F810B188
:107B10007846F9F7D3FD094B094ADA60094B0A4A5E
:107B20009A600A480A4ADA600A4B0360FBF7CAF80F
:107B3000094B01221A7008BD90DA03005445002059
:107B4000697A030074450020D57803001C450020A5
:107B500040420F00517A030070450020F0B5054601
:107B600091B010B97846F9F7A9FD0DF10201684608
:107B7000F9F7B0F9AB68B3F5803F02D9072011B02F
:107B8000F0BD2888FCF7FCFA01282FD16888FCF7A3
:107B9000F7FA48B16888FCF7F3FA032804D06A883A
:107BA000BDF800309A42E9D11E4C94E80F0001AEB6
:107BB00086E80F00AB68FBB900231B482360A36075
:107BC000FCF796FE2C22002105A804F07FFA06237C
:107BD0008DF81430BDF80630002B08BF002605A82C
:107BE000CDE90664FBF744F80020C8E72888FCF7D5
:107BF000C7FA0028CAD0C1E729880029DCD06A88E2
