:020000022000DC
:1060000000FD002015A603003DA603003FA60300E7
:1060100041A6030043A6030045A6030000000000BC
:1060200000000000000000000000000047A6030080
:1060300049A60300000000004BA603004DA6030084
:106040004FA603004FA603004FA603004FA6030070
:106050004FA603004FA60300816A02004FA603006B
:106060004FA603004FA6030081F202004FA60300D3
:106070004FA603004FA603004FA603004FA6030040
:106080004FA60300E17403005DB002004FA60300B9
:10609000B17503004FA60300456F02004FA6030031
:1060A0004FA603004FA603004FA603004FA6030010
:1060B0004FA603004FA603000000000000000000F0
:1060C0004FA603004FA603004FA603004FA60300F0
:1060D0004FA603004FA603004FA6030000000000D8
:1060E00000000000000000000000000000000000B0
:1060F00000000000000000000000000000000000A0
:10610000000000000000000000000000000000008F
:10611000000000000000000000000000000000007F
:10612000000000000000000000000000000000006F
:10613000000000000000000000000000000000005F
:10614000000000000000000000000000000000004F
:10615000000000000000000000000000000000003F
:10616000000000000000000000000000000000002F
:10617000000000000000000000000000000000001F
:10618000000000000000000000000000000000000F
:1061900000000000000000000000000000000000FF
:1061A00000000000000000000000000000000000EF
:1061B00000000000000000000000000000000000DF
:1061C00000000000000000000000000000000000CF
:1061D00000000000000000000000000000000000BF
:1061E00000000000000000000000000000000000AF
:1061F000000000000000000000000000000000009F
:1062000010B5054C237833B9044B13B10448AFF3F0
:1062100000800123237010BDE82E00200000000044
:10622000C4D5030008B5034B1BB103490348AFF3C2
:10623000008008BD00000000EC2E0020C4D5030043
:10624000154B002B08BF134B9D46A3F5803A002148
:106250008B460F461348144A121A15F07DFD0F4B5A
:10626000002B00D098470E4B002B00D09847002001
:10627000002104000D000D48002802D00C48AFF3A7
:10628000008015F01BFD2000290000F047F915F0F3
:1062900001FD00BF0000080000FD0020000000001C
:1062A00000000000E82E0020D45300200000000071
:1062B0000000000041DF704707B5194B1B685B0405
:1062C00016D5184B1B68032B12DD2F21164815F02D
:1062D00013FEC8B12F21144815F00EFE411C134BBC
:1062E000134AD3F80435009204205C2205F01CFE0A
:1062F000002110480DF020F978B10B4A5D2103B060
:106300005DF804EB14F0B1B95C21074815F0F4FD19
:1063100008B15C21DFE70449E1E703B05DF804FB65
:10632000F42D0020F02D0020D4BF03000010014008
:10633000FCBF0300D430002010B5044600214FF408
:10634000F01004EB840400F023FB620032214FF4D0
:10635000C010BDE8104000F025BB00F055BB0000A8
:1063600030B5644C226852048BB018D5624B1B6860
:10637000032B14DD2F21614815F0BEFD002800F02D
:10638000A7802F215D4815F0B7FD411C5C4B5D4A8D
:10639000D3F80435009204206F2205F0C5FD04A84F
:1063A00010F020F923685B041BD5534B1B68032BAB
:1063B00017DD2F21514815F09FFD002800F0918036
:1063C0002F214E4815F098FD411C4D4BBDF8102073
:1063D000D3F8043501924C4A00920420732205F050
:1063E000A3FD00F011FB00214FF4F01000F0D0FAF3
:1063F000C8214FF4F010042200F0D4FA0AA90123B6
:1064000041F8143D0DF10E0010F01EFC18B13B4A8E
:106410007B2114F02AF9BDF80E0010F009FA1022C1
:106420000446002106A815F097FC384B06AA214621
:10643000002010F0B5FC18B1304A7F2114F015F996
:106440003349012010F0DEF818B12C4A802114F0F5
:106450000CF92E4D2F4C298820880EF023FD18B101
:10646000264A812114F001F9294B208819880EF061
:1064700009FB18B1214A822114F0F7F829882088F5
:106480000EF082FD18B11D4A832114F0EEF80621AA
:1064900020880EF0EDFD18B1184A842114F0E5F8BB
:1064A0001C480DF099F818B1144A852114F0DDF854
:1064B00019480BF0BFF9014616480DF0A1F818B1C4
:1064C0000E4A862114F0D1F80DF0B6FD0BB030BDA8
:1064D0005C210A4815F010FD08B15C2152E707491C
:1064E00054E75C21054815F007FD08B15C2168E719
:1064F00002496AE7F42D0020F02D0020D4BF0300EC
:10650000001001401CC0030036C00300042F00200F
:10651000D0300020D4300020082F002000B5484A99
:106520008DB004214FF4C04005F0E2FC454B1B68E0
:106530005B0417D5444B1B68032B13DD2F21434805
:1065400015F0DAFC00285DD02F21404815F0D4FC6E
:10655000411C3F4B3F4AD3F8043500920420982257
:1065600005F0E2FC11F06EF918B1384A9A2114F0E6
:106570007CF800F059FA00F047FB0021202203A824
:1065800015F0EAFB01238DF80C3007238DF80F304E
:1065900006238DF814303049304B0B9303A800F0DC
:1065A000F1F818B1294A922114F05FF82A4B1B78B0
:1065B0008BBB2B4D0FCD03AC0FC495E8030084E8D3
:1065C000030003A800F07EF918B1204AB02114F0AE
:1065D0004CF800F0F3FD00F083FA00F047F818B132
:1065E0001A4ABA2114F041F800214FF4F01000F0DB
:1065F000CFF90222C8214FF4F01000F0D3F9FFF7D1
:1066000059FEFCE75C21114815F076FC08B15C21CD
:106610009BE70E499DE713480CF0DEFF18B10B4ACB
:10662000B42114F022F810480BF004F901460D488B
:106630000CF0E6FF0028CCD0044AB521C7E700BF24
:10664000C5BE0200F42D0020F02D0020D4BF0300B1
:106650000010014090BF0300062F0020B962020025
:1066600078BF0300D4300020082F002003F050BC76
:1066700070B5837DC27D86B043EA0223ADF8143045
:106680000446012305A80E46ADF816300FF06EFF44
:106690000546002847D104AA2146208A10F032F985
:1066A000054600283FD10DF112033246BDF8101007
:1066B000E08A10F0E7FA0546002834D1217ED4F8AC
:1066C000120001F0010103F071F810B1784600F0FA
:1066D0003DFDBDF8120013F0A3FB054618BB184B97
:1066E0001B681B031DD5174B1B68062B19DD2F21BB
:1066F000154815F001FCC8B12F21134815F0FCFB1B
:10670000411C227E114B02F00102D3F804350292A3
:10671000D4F8122001920E4A00920720C32205F0FD
:1067200003FC0DF089FC284606B070BD5C210648CC
:1067300015F0E2FB08B15C21DFE70349E1E700BFA8
:10674000F42D0020F02D00207FC003000010014038
:106750009EC0030008B507F0ABFC0EF07AF80FF00E
:1067600097FEBDE8084002F0E1BD07B501A80FF0B3
:1067700039FFBDF80400003018BF012003B05DF8F8
:1067800004FB000073B50E46054660B303F04CFBF6
:10679000044628BB0FF0CCFE0EF0B8FD286913F0BC
:1067A0000FFB0446E0B92B7F0193AB6900930146D0
:1067B0006B690E484FF6FF7213F088FD044678B9F6
:1067C0002B6A03B1984707F08BFB0FF0D1FD0DF05A
:1067D00095FD08B10DF030FCFFF7C7FF06B1307032
:1067E000204602B070BD0E24FAE700BF0031002041
:1067F00010B5074907480AF01FF8024638B906499C
:10680000064809690123BDE810400AF02EB810BD02
:1068100074310020903400205C3100205C33002073
:1068200010B50378023B082B2CD8DFE803F01B05DA
:10683000102B2B2C2B2B38001E4B5B6813B3007ACC
:1068400000B31D4A01211170BDE810401847194BD3
:106850009B68BBB1184A1178A1B100211170BDE845
:1068600010401847154B1A78124B42B9DB6813B128
:1068700011490A709847BDE81040FFF7B9BF1B687F
:10688000002BECD110BD0B4B0D48596910220AF0BA
:1068900031F80028F6D0BDE8104013F0D9BED0E999
:1068A0000210FFF7E5FE08B113F0D2FE034B012200
:1068B0001A70E7E75C310020583100205931002080
:1068C0005C33002070B5164A164E5168044686B0F7
:1068D000106803AB03C31189927A19809A700FCCA8
:1068E00035460FC594E8030085E803007369A3B13A
:1068F0000D4B00930D4A0E490E4803AB09F06EFF95
:1069000048B90D480AF096FF01460A4809F080FF91
:1069100008B9FFF76DFF06B070BD0720FBE700BFA9
:10692000BEC003005C3100202168020074310020E9
:10693000903400205C3300209431002070B5104C5E
:10694000206808B913F084FE4FF0A0450D4ED5F82D
:10695000043532685340C5F804352368013B236091
:1069600063B9094811F01EF83268D5F8043523EAF6
:106970000203064A12681343C5F8043570BD00BF10
:10698000D0340020D4340020D8340020003500203A
:106990004FF0A04311B1C3F80C057047C3F80805C8
:1069A00070470000F8B52AB3132923D9124B134DB1
:1069B0005200013A4FF0A0441A602860D4F8043520
:1069C00018400F4B4FF4FA76186000274FF4004040
:1069D000E0FB01674FF47A7200233046394614F029
:1069E000D9FF00220146074810F098FF10B92B6824
:1069F000C4F80C35F8BD00BFD0340020D4340020DA
:106A000000350020D834002008B5054810F0CAFF32
:106A1000044B1A684FF0A043C3F8082508BD00BF17
:106A2000D8340020D434002008B54FF0A04303220E
:106A30004FF40031C3F84427C3F808154FF4802100
:106A4000C3F84827C3F808154FF40021C3F84C27B2
:106A5000C3F80815C3F850274FF48012C3F808256F
:106A60000121054A054810F047FF18B1BDE808406C
:106A700013F0EEBD08BD00BF3D690200CCC00300AD
:106A8000124B70B50024124E124DC3F87C414FF0EA
:106A9000A043A15DD3F8102501238B40934311D06F
:106AA0000D49D5F804250B68981A48BFD01A43F24F
:106AB0003333984206D9D5F804350B60074B20468E
:106AC0001B6898470134042CE1D170BD0060004080
:106AD000D0C0030000100140FC340020F834002036
:106AE00070B50446CEB0002864D03C4D2A685204EC
:106AF0002FD53B4B1B68032B2BDD3A4B0DAE196892
:106B00000023E25C100902F00F02085C06F8130093
:106B1000885C06EB43020133102B5070F1D1002347
:106B20002F21314886F8203015F0E6F9002843D0AF
:106B30002F212D4815F0E0F9411C2C4B2C4AD3F89D
:106B4000043501922B4A009202964122042005F05E
:106B5000EBF92B685B042DD5214B1B68032B29DD3A
:106B60002F21214815F0C8F900282ED02F211E48CA
:106B700015F0C2F9411C1D4BE27BD3F804350B9292
:106B8000A27B0A92627B0992227B0892E27A0792A8
:106B9000A27A0692627A0592227A0492E28803929D
:106BA000A288029222680192134A0092042046228F
:106BB00005F0BAF94EB070BD5C210B4815F09CF998
:106BC00008B15C21B5E70849B7E75C21064815F034
:106BD00093F908B15C21CAE70349CCE7F42D002002
:106BE000F02D0020F82D0020D4C00300001001403B
:106BF000FCC003000EC1030016C1030060DF704734
:106C000069DF704703F0DEB910B588B000F04AF9CB
:106C100008B113F01DFD2B4B0393039B04930C222F
:106C2000002105A815F098F80023049A8DF8143077
:106C300005A90120FFF7E4FF08B113F009FD0C22BC
:106C4000002105A815F088F8F823049A059305A9F2
:106C5000A120FFF7D5FF08B113F0FAFC04A8FFF755
:106C6000CDFF039B049A9A4204461CD0164B1B6826
:106C70005B0418D5154B1B68012B14DD2F2114481C
:106C800015F03AF9A8B12F21114815F035F9411C3A
:106C9000104B049AD3F8043501920F4A0092022057
:106CA000A22205F041F914B1204613F0D1FC08B03E
:106CB00010BD5C21064815F01FF908B15C21E3E71F
:106CC0000349E5E7A02D0020F42D0020F02D002041
:106CD00056C103000010014086C1030070B5EFF3F8
:106CE000108672B60C4A946801239CB993600B4BD2
:106CF0000B4DD3F8801029401160C3F88050D3F8B1
:106D0000841051604FF0FF32C3F88420047006B93C
:106D100062B670BD0370FAE72853002000E100E07E
:106D2000FC06FFBD10B5084B9A685AB150B9EFF395
:106D3000108172B6054A1C6814605C6854609860E3
:106D400001B962B610BD00BF2853002000E100E089
:106D500001600B6843604A68934204BF00234360AC
:106D60007047436843B1026891680B4443605268BE
:106D7000934204BF0023436070474BDF704700001D
:106D80001FB50D4C01A8FFF7F8FF70B9214602A806
:106D9000FFF7DEFF039B002BF4D00198D3E900211D
:106DA000904702A8FFF7DDFFF4E7052801D013F0B4
:106DB0004FFC04B010BD00BFC0C1030061DF7047CD
:106DC00030B5114B1B7891B0E3B1104D34240DF167
:106DD000020103A8ADF80240FFF7F0FF70B92946A1
:106DE00001A8FFF7B5FF029B002BF0D003A8D3E961
:106DF0000021904701A8FFF7B4FFF4E7052801D070
:106E000013F026FC11B030BD04350020CCC10300C6
:106E100010DF704713B5044609496846FFF798FF2D
:106E2000019808B902B010BDD0E90031204698475A
:106E300018B16846FFF795FFF2E71120F2E700BFAF
:106E4000DCC1030013B5044607496846FFF780FF1D
:106E5000019B0BB902B010BD2046D3E90021904739
:106E60006846FFF77EFFF3E7F4C103000B4991F892
:106E700016335A09EC231341DB0706D5084B9A68F1
:106E80003AB94FF480030B60704742F2020013F0EE
:106E9000DFBB1A6842F480021A60704700E100E02C
:106EA00028530020F7B5184F3C785CBB174E0125DE
:106EB00020463570FFF7AEFF112820D02046FFF79F
:106EC000C1FF134B1868019002A800F8054DFFF7A9
:106ED00005FF104901A8FFF79BFF0446B0FA80F0B8
:106EE000400938709DF80300FFF71CFF3CB90A4BBE
:106EF00034701C70FFF7BAFF2846FFF7A3FF204647
:106F000003B0F0BD0824FAE706350020053500205F
:106F1000D8C103004D6F02000735002007B50849AE
:106F20006846FFF715FF019B13B903B05DF804FB3A
:106F3000D3E9002090476846FFF713FFF3E700BF4F
:106F4000E8C10300FFF7EABF0620704730B5754B74
:106F500014461B6841F20102904287B00D4603F4CB
:106F600080437ED01ED8012845D0002B5DD06E4BCB
:106F70001B68002B59DD2F216C4814F0BDFF002841
:106F800000F0C4802F21694814F0B6FF411C684B03
:106F9000684AD3F80435009201957B22012004F061
:106FA000C3FF42E044F20102904200F0858044F2C7
:106FB00002029042D9D1002B37D05B4B1B68002BCB
:106FC00033DD2F21594814F097FF00286BD02F2173
:106FD000564814F091FF411C554B2288D3F80435D4
:106FE00003926268CDE90152534A009201206C225B
:106FF00004F09AFF19E0C3B14B4B1B68002B14DD62
:107000002F214A4814F078FF10B32F21474814F07D
:1070100073FF411C464B494AD3F804350092CDE931
:1070200001546022012004F07FFF4FF0A0434FF491
:10703000F012C3F81825C3F80C25EFF3108372B6CD
:107040004DF6AD6C3E4A1378002B68D107B030BDC9
:107050005C21364814F050FF08B15C21D6E7334973
:10706000D8E7002BE1D0304B1B68002BDDDD2F2152
:107070002E4814F041FF68B12F212C4814F03CFF3A
:10708000411C2B4B2F4AD3F804350092CDE9015413
:107090006322C7E75C21254814F02EFF08B15C216C
:1070A000EBE72249EDE75C21204814F025FF08B109
:1070B0005C218DE71D498FE7002BB6D01A4B1B686A
:1070C000002BB2DD2F21194814F016FFA8B12F2193
:1070D000164814F011FF411C154B2268D3F80435F3
:1070E00004926268CDE90252A2680192164A0092A7
:1070F0000120772204F018FF97E75C210B4814F079
:10710000FBFE08B15C21E3E70849E5E75C2107489D
:1071100014F0F2FE08B15C2135E7044937E730BFCF
:1071200091E700BFF42D0020F02D002000C20300E5
:1071300000100140A4C2030064C2030028C203007F
:10714000A02D002042C2030083C2030007B5002324
:10715000ADF800300146054B01936A4644F2020047
:10716000FFF7F4FE03B05DF804FB00BFC8D00300D6
:1071700001461022014814F0E4BD00BF083500208C
:1071800010B50B4C0B490822204614F0DAFD0822FA
:10719000A018094914F0D5FDE379042262F307131E
:1071A000E371237A022262F38713237210BD00BFBA
:1071B0000835002060000010A4000010004870474F
:1071C00008350020064B002203F580715A805A6072
:1071D00003F8082B8B42F9D1024B1A60704700BFAD
:1071E0001835002018360020F0B50C4B0C4C1B68ED
:1071F000064620227BB1013B14F8330050B104EB6A
:10720000C3056F88B74202D16D688D4202D0013A42
:10721000F0D11046F0BD1F23EEE700BF1836002066
:107220001835002030B5084A084C136804EBC30534
:107230006960012104F833100B44202B08BF0023A0
:107240006880136030BD00BF18360020183500205C
:10725000C0F30C038B42084438BFA0F50050C01A9D
:1072600070470000F0B50D4B0D4A1E6800218E429C
:1072700012D0156800230AE052F8044C04EBC3074F
:1072800014F83340844201D17868F0BD01339D4247
:10729000F2D101310832EAE70020F6E71C3600207F
:1072A0002436002000B58DB040B99A1C06D00122CA
:1072B00001A88DF80420029301F022FA034B18680C
:1072C00003F0F6FD0DB05DF804FB00BF283600208A
:1072D00010B50378044613B97846FFF737FFE18805
:1072E000A069FFF7B5FFE1690A060B0A101843F120
:1072F000000110BD10B50378044613B97846FFF7B6
:1073000025FF607A431C01209840013810BD000021
:10731000F8B5037805460E4613B97846FFF716FF11
:10732000104AA88A0023144619018F5A874214D1A3
:10733000002353520C4A1368591C03F007031B0126
:107340001160AA8AE25206B16E781C442846A670E3
:10735000FFF7BEFFC4E90201F8BD0133082BE3D1FA
:10736000E8E700BF30360020B03600202DE9F041BC
:107370000E468EB015461C46074610B97846FFF7F4
:10738000E5FE16B97846FFF7E1FE636AA27802339C
:107390000593E378A2F10800002B14BF012102211C
:1073A0000DF1040842424241434604F10C0003F04F
:1073B000B2FEA3788DF83430237BADF82050022B39
:1073C00016FA85F5CDE906870B960C950FD1236942
:1073D00013B97846FFF7BAFE23690993102305A86D
:1073E000ADF8283003F093FE0EB0BDE8F081002325
:1073F000F5E70000B2F5C07F2DE9F04781468846E9
:10740000174602D97846FFF7A1FE244B00257022CB
:107410009A4602FB053494F8486046B9384607F0AE
:1074200028FBE06638B900242046BDE8F087013526
:10743000042DEED1F7E730224946204614F081FCB6
:10744000B8F1010FE664A4F84A701DD1144B84F81A
:1074500052601B7D84F8513084F8536084F850608A
:10746000D9F8283063656FF00103A3620D4BA4F8CF
:107470005860A3632464012002F048F9702303FBE1
:1074800005A585F84880CFE76FF00103A362064B9E
:10749000A36584F868602466044BEAE7CC360020D4
:1074A000B4360020F579020001810200ED79020076
:1074B00010B50446C06E07F0DEFA04F1300002F0A9
:1074C0007FFF94F84830022B03D104F1500002F002
:1074D00077FF20467022002114F03EFC002084F843
:1074E0004800BDE8104002F011B910B590F84830DE
:1074F000012B8CB0044602D07846FFF727FE01230B
:107500008DF8043001A8636D029301F0F9F820466C
:10751000FFF7CEFF0CB010BD10B50446808A02F014
:1075200097FB01281CD1237BD3B194F91620002AA4
:1075300018DBE27D5AB1022B12D094F90330002BF4
:1075400010DBA378002B0CBF0020072010BDE278D1
:107550000AB9012B06D1237833B9A378042BF2E7BB
:107560001020F3E70720F1E70020EFE71FB5002226
:107570000B468DF80F2028B30230086018460DF135
:107580000F0103F0C6FD9DF80F30DBB1144B1B68F3
:107590005B0717D5134B1B68032B13DD2F211248F4
:1075A00014F0AAFC98B12F210F4814F0A5FC411C3F
:1075B0000E4B0F4AD3F804350092042040F23742B4
:1075C00004F0B2FC9DF80F0005B05DF804FB5C21EF
:1075D000054814F091FC08B15C21E5E70249E7E7B2
:1075E000F42D0020F02D002001C303000010014005
:1075F0001EC3030070B50446D0E906128CB0808A21
:1076000005F0D6FB0546A0B12C22002101A8A68AD0
:10761000E46914F0A1FB0F238DF804304FF0000350
:1076200064F3000301A8ADF808608DF80A3001F09A
:1076300067F828460CB070BD2DE9F04F99461378D5
:10764000D2F81880F3B007468A46144623B1D18891
:107650004046FFF7FDFD9061E378A278002BA2F190
:10766000080003AD14BF0121022104F10C064242BF
:107670002B464241304603F04EFDA278C4F81880F4
:10768000CDE908571FFA8AF5AB1A9BB21F44ADF833
:107690002830E3780E974FF0000812AF0D978DF861
:1076A0003C20ADF83080002B65D04FF0100B04F17A
:1076B000240A237BC4F82480022B02BF2369ADF87F
:1076C00030B00B93206A217952460FF061FD606A59
:1076D00030BB237B022B05D13146E0890FF0F0FD52
:1076E0000028E6D1374B1B685B0741D5364B1B683A
:1076F000052B3DDD2F21354814F0FEFB002858D026
:107700002F21324814F0F8FB411C314B314AD3F899
:1077100004350092062040F20E7204F005FC27E0CA
:1077200007A9FFF723FF0028CCD02046FFF762FF10
:10773000F0B9A2780B908DF81C0096E80300A38A9C
:10774000ADF82A30AD1A0CAB01228DF8282083E861
:107750000300A37D8DF84030236A0E9307A8636A67
:107760000897ADF824500F93CDF8449000F0C8FF6F
:1077700073B0BDE8F08F227B012AB3D1A046E08927
:10778000B4F814A048F8243F41460FF035FD07A98E
:10779000606AFFF7EBFE0028C7D1606241465046A1
:1077A0000FF02AFD07A9606AFFF7E0FE002899D0D4
:1077B000BBE75C21054814F09FFB08B15C21A0E702
:1077C0000249A2E7F42D0020F02D002001C30300A0
:1077D00000100140C4C30300C37D0A7830B5002BFC
:1077E0003DD0C37822F07F0203F07F031A430A7072
:1077F0000B78027803F07F0343EAC2130B7003781F
:1078000063B38378083B5A425A414B7803F07F03B5
:1078100043EAC2134B708A78C58802F00302C5F3AD
:10782000861442EA850223F07F032343D2B28A7092
:107830004B70CB78057A03F01F03C5F3C10422F027
:10784000030243EA45132243DBB2CB708A70427ACB
:1078500023F01F0302F01F021343CB7030BDC47826
:1078600022F0400343EA8413DBB20B70027923F069
:107870003F0302F03F0213430B70B9E72DE9F041DB
:10788000837890461344C27D002A14BF0B220F2236
:10789000934286B004460F462FD8024612F80C1BBE
:1078A0000092002914BF042501252B440293836A0A
:1078B0000193C36A0393684600238DF8103003F0E8
:1078C000C6FD064670B9059920460D44FFF784FFB2
:1078D000E37D5BB142463946284614F032FA6846E9
:1078E00003F0D6FD304606B0BDE8F081234642469F
:1078F00029463846FFF73AFDF1E70926F2E700008E
:1079000038B590F84830012B044602D07846FFF78E
:107910001DFC02F095FD237B074A012B05BFD2E930
:107920000315A37DD16805FB0311014404F1300068
:10793000BDE8384002F05BBDB436002070B50D469E
:1079400090B0044610B97846FFF700FC94F8483030
:10795000022B03D100212046FFF7DAFC2C22002164
:1079600005A8666D14F0F8F9102305A88DF81430F9
:1079700006968DF81C5000F0C3FE2046FFF798FDD8
:10798000154B1B685B071BD5144B1B68032B17DDBE
:107990002F21134814F0B0FAA0B12F21104814F091
:1079A000ABFA411C0F4BD3F80435029594F84820EC
:1079B00001920D4A0092042040F22E2204F0B4FA03
:1079C00010B070BD5C21064814F096FA08B15C2135
:1079D000E4E70349E6E700BFF42D0020F02D002086
:1079E00001C3030000100140D0C20300084600217B
:1079F000FFF7A4BF10B591F84830012B0C4602D018
:107A00007846FFF7A3FB94F851305BB1013B84F853
:107A10005130002384F85030084BBDE810401868FE
:107A200003F046BA217B0129204603D1BDE810406E
:107A3000FFF784BFBDE81040FFF757BD2836002090
:107A40002DE9F04F044689B00F4609B100230B60C1
:107A500004F10C0394F8505001934FF001084FF0DB
:107A6000000B627AAA4203D2002009B0BDE8F08F71
:107A7000E16C08FA05F30B4259D1E37D2572002B26
:107A80000CBF0C260826954206FB05FA237808BF92
:107A9000B4F84A608DF818B008BFA6EB0A06002BB0
:107AA00014BF4FF004094FF0010906EB09030493DA
:107AB000019B0293A36A039302A8E36A059303F070
:107AC000C6FC0028D1D1079B994445B994F853309E
:107AD0002BB9A36984F85380C3F30C03E380E37DDF
:107AE0008BB994F8523073B915B17846FFF72EFB75
:107AF000B4F84A10A2788A1AE16E23460846FFF7C6
:107B000035FC84F8528007992046FFF765FEE16E48
:107B100032465144484614F014F902A803F0B8FC68
:107B200017B13B6801333B606B1C84F85030013562
:107B3000EDB296E72DE9F04307468FB01046884630
:107B400015469946FFF756FD0446002860D1EE78A9
:107B5000002E40F0AE80B8F1060F59D138787A780F
:107B6000DFF8A8C1830103F4FE5343EA9203D7F878
:107B700002204FF0700812BA674608FB04C696F858
:107B80004810012925D1B6F814E0E9898E4520D1A5
:107B9000F18899421DD1B6F858E0A98ABEF1000FCC
:107BA00001D08E4515D110F0800F4FF070033BD0FF
:107BB00003FB0473A3F85810702303FB0474E56CF3
:107BC0001543E564002A61D103213046FFF7B6FE74
:107BD0001EE00134042CD0D1464B1B685B0717D53F
:107BE000454B1B68012B13DD2F21444814F084F909
:107BF00088B12F21414814F07FF9411C404B414A84
:107C0000D3F804350092022040F2846204F08CF92B
:107C10000FB0BDE8F0835C21384814F06DF908B16D
:107C20005C21E7E73549E9E703FB0473DB898B4215
:107C3000C2D0304B1B685A07EAD52F4B1B68012B6B
:107C4000E6DD2F212D4814F057F9B0B12F212B4834
:107C500014F052F9411C2A4BAA8AD3F80435029237
:107C6000702202FB04740220E2890192264A0092EB
:107C700040F28C6204F058F9CAE75C211F4814F006
:107C80003BF908B15C21E2E71C49E4E73046FFF725
:107C900031FB854203D13046FFF727FCB8E70021CE
:107CA00084F850103046FFF7CBFE3046FFF728FE31
:107CB000AEE73046FFF7D6FA03460028A8D005F114
:107CC0000C012A6A0B9203C9AA8AADF8222009AADC
:107CD00082E80300AA7D8DF830202A788DF82020D4
:107CE000EA6A8DF81460CDE906780D92494605A838
:107CF00098478DE7F42D0020F02D002001C30300EC
:107D00000010014031C303005FC30300CC360020E4
:107D1000F0B5C37D15468278002B2A4414BF4FF47A
:107D200080734FF4C0739342C7B00E4679D3404C72
:107D30000023E11891F84870012F08D1B1F814C060
:107D4000878ABC4503D1CF89C1898F426BD07033FC
:107D5000B3F5E07FEDD10121FFF74CFB044600288D
:107D600063D02A463146C06E13F0EBFF002304A90E
:107D700020460493FFF764FE30F0040506464BD11D
:107D8000049B13B12046FFF7BBFD2A4B1B685B0722
:107D900028D5294B1B68032B24DDB4F84A10274B48
:107DA0008029186828BF8021002305AE8B421CD192
:107DB00000222F21224806F8132014F09DF810B35A
:107DC0002F211F4814F098F8411C1E4B1E4AD3F86F
:107DD000043501921D4A0092029640F2715204202D
:107DE00004F0A2F8284647B0F0BDE26ED25C170955
:107DF00002F00F02C75D06F81370875C06EB4302C2
:107E000001335770D2E75C210D4814F075F808B1C2
:107E10005C21D6E70A49D8E72046FFF749FB3546FB
:107E2000E0E70925DEE70825DCE70425DAE700BFFF
:107E3000CC360020F42D0020F02D0020F82D00205D
:107E400001C3030000100140F3C203000EC1030090
:107E500010B54FF4E0720021134813F07DFF0024A9
:107E600005F016F8114B12481C602146802213F0D1
:107E700073FF104B1049114A11489C75C3E9001259
:107E800010494CF25032C3E902211A6140F6040253
:107E90009A8202F0EFFF0C4B18600C4B0C481C60F0
:107EA000BDE8104005F0F6B8CC360020B036002012
:107EB00030360020B436002080969800F049020049
:107EC0003586020020A10700283600201C3600203D
:107ED000A572020004F064BF30B504468DB00028DE
:107EE0006CD00369002B69D0C369002B66D085690B
:107EF000002D63D05A788DF804201A780993838A6C
:107F000082F001020B2B8DF80320027B43D9012163
:107F1000022A8DF8001001D1294A927D002A44D10D
:107F2000042213448DF802200B330C2293FBF2F34E
:107F3000013B8DF8093000238DF8083094E80300E8
:107F400000238DF8173003AB83E803002389ADF8D5
:107F50001430A37A8DF81630236A0A932046DF2363
:107F600008950B930FF052FA28B12378012B0CBF20
:107F70002023FF230B9368462569A48AFFF7CCFAD8
:107F800038B99DF800302246294668469BB1FFF774
:107F9000BFFE0DB030BDC17A0029B8D1012A0CBF97
:107FA000012200228DF8002001D10822B9E7042324
:107FB0008DF80230C2E7FFF761FCEAE70E20E8E740
:107FC000B4360020F0B503468DB00F46002843D0EC
:107FD0004568002D40D08669002E3DD08468027827
:107FE0008DF803200B2C4FF00002099294BF027B06
:107FF000012202F0010100208DF800108DF802002E
:1080000032B1E11DC90801398DF809108DF8080059
:1080100003F1100103C901228DF8172003AA82E899
:108020000300DA89ADF814201A7F1B6A08966846A7
:108030008DF81620CDE90A73FFF76EFA38B99DF86E
:1080400000302246294668461BB1FFF761FE0DB09D
:10805000F0BDFFF713FCFAE70E20F8E770B5067BDA
:10806000012E8CB004460D4646D10B2200216846F5
:1080700013F072FE9DF80120E3888DF8055002F0A0
:10808000030242EA83028DF801202A0E8DF80220B5
:108090002A0C8DF803202A0A8DF8042062788DF8C6
:1080A0001C60911E4A424A41C3F3861343EAC2133D
:1080B0008DF8003006230593A38AADF81E30002307
:1080C00008938DF80C308DF81830E389ADF81A302C
:1080D000E36A0B93A37D226ACDF810D0099243B9CD
:1080E0006FF0010103A88DF82830FFF76BFF0CB08B
:1080F00070BD024B5B7DF3E70020F8E7B43600204B
:1081000010B591F84830022B0C4602D07846FFF7A4
:108110001DF8022384F8683094F84830022B06D109
:10812000E16C2046FFF79AFF08B984F8680010BD9B
:108130002DE9F04F0C469FB090461F46054600289B
:1081400000F0A781002A00F0A48121B90926304659
:108150001FB0BDE8F08F1822414609A813F0F1FDC9
:108160002B78002059B2CA0F81428DF81820ACBF7D
:108170000122042294428DF81900E7D39DF82F6064
:10818000EEB103F07F0381428DF81B308DF81A00A9
:108190002EDA6A78AB78920102F4FE5242EA930238
:1081A000ADF81E20DB00EA7803F0180343EA52130F
:1081B00002F01F028DF820308DF8212018E0C3F363
:1081C0008010002903F03F038DF81B008DF81C3050
:1081D00008DA95F90130002BACBF042308238DF891
:1081E0001A30D6E704231A4494428DF81A30ADD3DE
:1081F00000230F933B78032B02D97846FEF7A6FFA6
:108200003A78A54B06A853F822301193FFF784F96A
:10821000064600289BD1D8E90312B8F8080004F0FC
:1082200003FE002893D13146082204A813F094FDE0
:1082300004A9B8F802000FF043F838B19DF81930DE
:1082400043F001038DF81930059B0A939DF819300E
:10825000002B3FF47CAF9DF81820002A00F0078126
:108260008E4A4FF0000A934602EB0A0393F8481037
:10827000022940D00AF1700ABAF5E07FF4D19DF8E6
:10828000183013B97846FEF761FF06A8FFF720F80B
:10829000BDF82CE0824A4FF0000C4FEA0C1838F879
:1082A000023073453DD19044D8E9029A514508BF48
:1082B000484536D106AD0FCD12AC0FC40FCD0FC45B
:1082C00095E80F0084E80F0098F802308DF84930E7
:1082D000002B3FF43CAF12A8FFF70CF8014612A8A0
:1082E000FFF7BCFE98F80230DC077FF530AF06A838
:1082F000FFF780F92BE7988ABDF82C108842B9D196
:1083000006A8CDE90232FEF7E3FF029B804618463D
:108310008946FEF7DDFF894508BF8045039AA9D24B
:1083200015E70CF1010CBCF1080FB6D10023702247
:1083300002FB03BA9AF84810022915D1BAF81410B2
:10834000714511D106A8FEF7C3FF80465046894605
:10835000FEF7BEFF494508BF404580F0AD800521CE
:108360005046FFF7EBFA02E00133042BE0D19DF811
:108370002F209DF82130002A0CBF4FF00C084FF041
:10838000080803FB08880CBF4FF4C0734FF48073D8
:10839000984529D9434B1B6858077FF5D8AE424B07
:1083A0001B68002B7FF7D3AE2F21404813F0A4FDAC
:1083B00088B12F213D4813F09FFD411C3C4B3D4AA5
:1083C000D3F804350092CDF8048040F292320120B7
:1083D00003F0AAFDBBE65C21344813F08DFD08B123
:1083E0005C21E7E73149E9E7BDF81E100C98FEF77C
:1083F0002FFF0D9A0146BDF82C0004F015FD002852
:108400007FF4A5AE4246022106A8FEF7F3FF82469E
:10841000002851D1014606A8FFF720FE2C22514624
:1084200012A813F099FC10238DF8483012A80223EB
:108430008DF8503000F064F989E65C211B4813F098
:108440005BFD08B15C2146E0184948E0002B0CBFF9
:108450000C2308239C4200F0A28004215046FFF721
:108460006DFA74E63B465246FFF7E6F8CDE0DA07D0
:108470007FF56DAE9DF82F30681C611E23B13B4621
:1084800006AAFFF757FB62E63B4606AAFFF7D4F8B9
:108490005DE60E265BE600BFC0C20300CC360020BE
:1084A00030360020F42D0020F02D002001C3030001
:1084B00000100140A0C30300584B1B685B071BD58D
:1084C000574B1B68032B17DD2F21564813F014FD63
:1084D0000028B2D02F21534813F00EFD411C524BFF
:1084E0009DF82020D3F804350192504A00920420D0
:1084F0004FF4717203F018FD9AF84830022B02D045
:108500007846FEF723FEDFF82881D8F8009001F0C6
:1085100097FF09EB00010AF1300001F068FF9AF8BB
:108520000C30012B1AD19AF86830BBB99AF8483050
:10853000022B02D07846FEF709FED8E9013298F8FE
:10854000151002FB013801F07BFF00EB08010AF176
:10855000500001F04CFF01238AF868309DF820108C
:10856000DAF84C3001228A4013427FF4F0AD134315
:10857000CAF84C309DF82F309AF80920002B0CBF18
:108580004FF00C084FF008088A42A4F1040408FBDD
:1085900001F87FF45BAF08EB0403AAF84A30DAF87D
:1085A00018200C9B9A420BD20DF1240EBEE80F004E
:1085B0000AF10C0CACE80F009EE803008CE8030005
:1085C000DAF86C002246291D404413F0BAFB5046ED
:1085D000DAF84C40FEF78EFE84427FF4B8ADDAF84C
:1085E0004C105046FFF73AFD9AF80130D9070CD5E8
:1085F0009AF81730DAF86C00BAF84A10002B3FF4FA
:1086000031AF3B465246FFF795FA50460121FEF73F
:108610007FFE5046FEF74CFF99E500BFF42D002089
:10862000F02D002001C3030000100140B4C303007B
:10863000B43600202DE9F341194E00243746A046F8
:10864000351995F84830012B0CD102A9284641F87C
:10865000048DFFF7F5F9042801D0019B13B12846DA
:10866000FFF74EF97034B4F5E07FE9D100257C19AD
:1086700094F84830022B0AD194F86830022B06D1C6
:10868000E16C2046FFF7EAFC08B984F86800703511
:10869000B5F5E07FEBD1012002B0BDE8F08100BF6D
:1086A000CC3600202DE9F04188460746E8B1124E4D
:1086B0003468C4B92546454507D1104BC3E9007558
:1086C000012333602046BDE8F08107EBC5035B68FA
:1086D0005BB117F83500030609D450B1FEF7C2FDAF
:1086E00038B90135E7E70424ECE70E24EAE70B2468
:1086F000E8E70F24E6E700BF1C3600202036002004
:10870000F8B5074610B97846FEF720FD0F4E3468DD
:1087100094B10F4D01232B7023791BB954F8043CFD
:10872000384698472468002CF6D12B78022B03D1C9
:108730003168064C09B92970F8BD0B790E6813B180
:10874000204603F076FB3146F4E700BF9038002066
:108750008C38002010B5044610B97846FEF7F6FCB8
:1087600000232372211D0248BDE8104003F040BBE6
:10877000903800200B888268D25A073222F0030218
:10878000134402889BB2043A934288BF00230B80B3
:10879000704713B58368CB1A02A921F8023DFFF791
:1087A000E9FFBDF806308068184402B010BD70B50E
:1087B000064615460C4611BB7846FEF7C7FCFEB1CF
:1087C0007846FEF7C3FC6B1E2344B3F1005F34D937
:1087D0004FF08052D2F80C2102F50022B3EB822F29
:1087E0002ED2042D02D87846FEF7B0FC3580002347
:1087F000043D7380B380B4602580A37070BD10B950
:108800007846FEF7A3FCB4F1005F12D94FF0805315
:10881000D3F80C3103F50023B4EB832FD3D34FF0FF
:108820008053D3F80C3103F50053B4EB832FC7D238
:10883000C9E7B4F5000FF2D8C2E7B3F5000F08D9C5
:108840004FF08052D2F80C2102F50052B3EB822F88
:10885000C7D37846FEF77AFCC3E738B5044610B9AB
:108860007846FEF773FC6288A36813449B78012B5B
:1088700002D17846FEF76AFCEFF3108572B6A26863
:10888000A18811448B78032B0AD12046FFF781FF82
:10889000A368C31A63800023837005B962B638BD2C
:1088A000002393706380A380F7E7F8B50E46154662
:1088B000044610B97846FEF749FC16B97846FEF72B
:1088C00045FC6288A36813449B78012B02D178464B
:1088D000FEF73CFC002D37D02388043B9BB29D4221
:1088E00032D8EFF3108772B66188A388EA1D22F0B0
:1088F0000302994292B204D25B1A9A4210DD04201C
:1089000016E018D92088401A904209D29A42F6D827
:10891000032881BFA3685B1804229A700023638038
:108920006288A1688B188D5201229A7000203360F2
:1089300007B962B6F8BDA26813449B78002BDED15C
:1089400093706380A380EBE70920F3E7F8B50D4649
:108950001646044610B97846FEF7F8FB15B9784676
:10896000FEF7F4FBAB78012B02D07846FEF7EEFB66
:108970002B88B34202D27846FEF7E8FB16B9784658
:10898000FEF7E4FBEFF3108772B60223AB70E11839
:108990002E802046FFF7EEFE6288A38893421FBF19
:1089A000A3689B1800229A7007B962B6F8BD70B52B
:1089B0000D46044610B97846FEF7C8FB15B978464F
:1089C000FEF7C4FBEFF3108672B6A288A3681344C7
:1089D0009A78042A06D1211D2046FFF7CBFEA288F3
:1089E000A36813449A78022A03D0032A08D00520EA
:1089F00003E003229A702B60002006B962B670BDB6
:108A00007846FEF7A3FBF7E738B5044610B9784679
:108A1000FEF79CFBEFF3108572B6A088A1680144B5
:108A20008B78042B03D12046FFF7B3FE01468878EC
:108A3000831E5842584105B962B638BD38B5044660
:108A400010B97846FEF782FBEFF3108572B6A08866
:108A5000A16801448878C31E012B05D9831E5842A2
:108A6000584105B962B638BD2046FFF792FE01466F
:108A7000F0E7F8B50D46044610B97846FEF766FBF8
:108A800015B97846FEF762FBEFF3108672B6AB7845
:108A9000012B19D0032B22D1A288A36813449D4235
:108AA00002D07846FEF752FB0027AF70211D20460A
:108AB000FFF760FEA288A36813449B78042B00D1C3
:108AC000A78006B962B6F8BD6288A36813449D42C8
:108AD00002D07846FEF73AFB0023AB70F1E7784608
:108AE000FEF734FBEDE710B5EFF3108472B6828821
:108AF000816811448B78042B02D1FFF74AFE0146AE
:108B00008878B0FA80F0400904B962B610BD0379E4
:108B100042799B1A03F57F2303F6FF7300EB0330C2
:108B20007047000010B5054884681C22002113F02E
:108B300013F92046BDE8104003F088BF94380020A8
:108B400070B5194CE36813B97846FEF7FFFA237E37
:108B500013B17846FEF7FAFA6368092B02D9784612
:108B6000FEF7F4FA114D0026636855F82330984754
:108B7000022811D003280DD0012810D163680133D9
:108B8000092B636002D97846FEF7E0FA237E002BBA
:108B9000EAD004E06660F9E7237E0BB1207070BD77
:108BA000BDE87040FFF7BEBF94380020F0C303005B
:108BB00010B50388044613B97846FEF7C7FA208833
:108BC000074B04EB800030EA030203D06288B2F561
:108BD000FE4F04D11C4004F580542078204410BD81
:108BE00000F0FFFF70B504460E4647F6FE65FFF73E
:108BF000DFFFB04207D2844205D24388013B9BB2DB
:108C0000AB42F4D870BD0020FCE700000B78032BCA
:108C1000094B04BF00221A761A78012A03D11B7E61
:108C200043B9FFF78DBF022A04D10B78032B01D182
:108C3000FFF778BF704700BF9438002010B50C4C88
:108C4000E3681878002203F58051184404F0E6F92F
:108C500050B9E1680846FFF75AFF814206D001F596
:108C60008051E160032010BD0120FCE70220FAE7FB
:108C7000943800201FB50A4B02221B688DF8002093
:108C80000193084A4FF4805369460120029300F093
:108C900021FFB0FA80F0400905B05DF804FB00BF89
:108CA000B4380020B03800201FB50123CDE90221DF
:108CB0000190054A8DF800306946184600F00AFF19
:108CC00005B05DF804FB00BFB03800202DE9F04787
:108CD000254BD86802794179013A91421E4603D169
:108CE00001205876BDE8F08700F580531F491C78B5
:108CF0001C440B6813F8045F1D44FFF708FF6388EA
:108D0000013B9BB247F6FE62934200F580578846CE
:108D100004D920463946FFF765FF0446DFF850A026
:108D20004FF001092CB9B4FA84F464097476012077
:108D3000D8E7D8F800106288284601F5805104F081
:108D40006DF905460028EED004225146204686F8EB
:108D50001890FFF7A9FF28B920463946FFF742FFD0
:108D60000446DFE70020BDE794380020B438002037
:108D7000B4C5030038B5104CE36818784FF6FF729D
:108D800003F58051184404F049F988B1E368197873
:108D90000B4498420CD0657E0849094B0422002DF3
:108DA00008BF1946FFF780FF20B90120207638BDA3
:108DB0000120FCE70020FAE794380020BCC503003E
:108DC000B8C5030070B50C4D0C4EE96830680C78DE
:108DD00004302246FFF768FF58B9336804F0FC04FA
:108DE00004341C44EB686C611A7813442B61012035
:108DF00070BD0020FCE700BF94380020B43800208C
:108E000008B5054B054918680422FFF74DFFB0FA75
:108E100080F0400908BD00BFB4380020A038002011
:108E200010B5074B074C1968E06840F6FC72043136
:108E3000FFF73AFF10B90120207610BD0020FCE7B3
:108E4000B43800209438002010B50C4CE168084676
:108E5000FFF75DFE81420AD1094B0A4918680422D6
:108E6000FFF722FF40B901232376022010BD01F550
:108E70008051E1600320F9E70020F7E794380020F3
:108E8000B4380020B83800202DE9F74F324C236960
:108E900013B97846FEF75AF9636913B97846FEF7B5
:108EA00055F9DFF8B89047F6FE6A6369D4E903061E
:108EB00003EA0908A8EB0308FFF729FE7388013BC2
:108EC0009BB2534508F5805800F5805B06D93046C3
:108ED0005946FFF787FE0646002835D0354600275D
:108EE0005D4519D22A8807EB8202904509D986EAA6
:108EF000050313EA090F04D16B88013B9BB253456C
:108F000002D957B9012318E028460192FFF750FE15
:108F1000019A05461746E3E7E7B13A4631466069EC
:108F2000FFF7C2FE90B963691F44676115B97846BF
:108F3000FEF70CF92561002335B1698847F6FF7209
:108F4000914201D0002BB0D0012000E0002003B0FE
:108F5000BDE8F08F0123EFE79438002000F0FFFF19
:108F60001FB50A4B0222DB688DF800200193084AE6
:108F70004FF4805369460120029300F0ABFDB0FA34
:108F800080F0400905B05DF804FB00BF9438002074
:108F9000B038002010B54FF010235A69013225D0A7
:108FA0005A691AB35B69A3F58053A3F58053174A36
:108FB000196813604B1E033325D8C1F30B0313BB91
:108FC000134A1448D1600121117013491376537666
:108FD000936051F8234084420ED1536001200F4921
:108FE00000F068FDFFF7ACFD012010BD4FF080528E
:108FF000516913694B43D8E701330A2BE9D178460D
:10900000FEF7A4F8EAE70020EFE700BFB43800203D
:1090100094380020618F0200F0C303000D8C020021
:1090200010B5044610B97846FEF790F8094B187849
:1090300060B1E068D9684379A0EB0333994206D365
:10904000FFF765FD81428CBF0020012010BD00208C
:10905000FCE700BF94380020024B1878003018BF9E
:10906000012070479438002038B50E4C237805460F
:1090700013B17846FEF76AF82B78032B02D07846B6
:10908000FEF764F8EB68E360012000230649A56061
:10909000636023762070637600F00CFDBDE83840F5
:1090A000FFF74EBD943800200D8C0200014B18686C
:1090B000704700BFB438002010B5044610B9784698
:1090C000FEF744F863681BB123680BB1A36813B9BA
:1090D0007846FEF73BF8A3685A1E1A4202D078463B
:1090E000FEF734F80023C4E9033310BD38B5054654
:1090F000F0B1E9B18368EBB1EFF3108472B6D0E957
:1091000002302A691A44824203D104B962B60424A7
:109110000CE0013B0340D5E9000202FB030012F022
:1091200010FEEB680133EB6034B962B6204638BDFF
:109130000E24FBE70924F9E70024F7E770B50E4693
:109140000446F0B18368F3B1EFF3108572B6D0E94D
:109150000331994203D105B962B605250FE04EB13E
:109160008368013B0B40D0E90012304602FB03113B
:1091700012F0E7FD23690133236135B962B6284651
:1091800070BD0E25FBE70925F9E70025F7E7C36861
:1091900003617047D0E90320101A7047024AD2F8E1
:1091A0000034002BFBD0704700E00140C0F30B03FC
:1091B00010B5E3B9E9B1104C0223C4F80435FFF748
:1091C000EDFF01F6FF7121F47F6121F00F010144F1
:1091D000884205D10020C4F80405FFF7DFFF10BD69
:1091E000C4F80805FFF7DAFF00F58050F0E710201B
:1091F000F5E70920F3E700BF00E0014070B540EA61
:10920000010414F003041BD1E2B195071AD10E4EEC
:109210000123C6F804359508FFF7C0FFAC4205D11D
:109220000020C6F80405FFF7B9FF70BD51F82430DF
:109230005A1C03D040F82430FFF7B0FF0134EDE7AB
:109240001020F2E70920F0E700E001404388012BFD
:1092500005D0022B01D10430086001207047043092
:109260004860FAE708B508220221094803F049FAE4
:1092700020B90848BDE8084003F0C0BB064A916821
:109280004160127B0272BDE8084003F069BA00BF7A
:10929000C4380020B42D00201039002010B5044639
:1092A00010B97846FDF752FF2346BDE81040184735
:1092B00000B50A4B1A7B9B688DB0012A08BF03F1E9
:1092C000FF3303900CA80493022300F82C3D8DF883
:1092D0000820FFF715FA0DB05DF804FB10390020E7
:1092E00038B50E4D2B78C3B90D4B5C6804F50054AE
:1092F000B4F1807F11D8042201210A4803F001FA59
:1093000020B90948BDE8384003F078BB0123446028
:109310002B70BDE8384003F023BA38BD2439002053
:1093200010390020C4380020A42D002010B50121E0
:109330000C4803F02BFA80B902210A4803F026FA00
:10934000044650B901461422074812F005FD074BA8
:109350001C70BDE81040FFF7C3BF054803F04EFB8B
:10936000F7E700BFC438002010390020E83800209B
:10937000D42D002030B50D468DB07AB94B88012B25
:109380000AD1124C227812B97846FDF7DFFE104B55
:109390006A685A60002323700DB030BD032A02D0E2
:1093A0007846FDF7D3FE2C22002101A812F0D4FC50
:1093B00011238DF80430074B0395DA681B69059279
:1093C00001A80693FFF79CF9E6E700BF24390020C7
:1093D00010390020C438002013B501F0DBFC002157
:1093E0006B46124A1248134CCDE9001103F0DCF829
:1093F000009B0BB1019A6AB900232360A360237319
:10940000FFF730FF23686360FFF76AFF01F002FD9A
:1094100002B010BD1968A16019792173934203D974
:109420001B790BB92360EDE71368FBE74D9202004F
:10943000C43800201039002008B503F02DFBA0F53A
:10944000805008BD7FB500211822684612F084FCC8
:1094500000230293FFF7F0FF012300900193694678
:10946000054B0648039303F0B9F910B1044803F023
:10947000C5FA07B05DF804FB75930200C4380020FC
:10948000C42D002008B5142200210A4812F064FC03
:1094900000F0D6FF084B094A09499A60002258603B
:1094A000C3E903125A61074B1A70BDE80840FFF781
:1094B000C9BF00BF10390020EC380020B59502006C
:1094C000008793032539002010B5074C23784BB94A
:1094D0000648074B036000F073FD064800F04EFF9E
:1094E0000123237010BD00BFC038002004390020C4
:1094F00019960200EC38002010B501F04BFC104A20
:10950000117B1346C9B9917BB9B9118A41F28262C4
:10951000914202D80B4A12787AB101221A739A68E2
:10952000002401321C829A60FFF79CFE2046FFF760
:10953000BFFE01F06FFC204610BD0824F9E700BF14
:10954000103900202539002010B501F023FC174AFE
:10955000547B1346BCB1917B21BB118A41F28262DC
:10956000914202D8124A1278F2B11A7B0020587345
:109570002AB1012A0BD07846FDF7E8FD03E0FFF79A
:10958000BBFF0028F7D101F045FC204610BDC3E920
:10959000000018731882FFF78BFEFFF763FEFFF7DA
:1095A0009FFEF0E70024EEE71446ECE710390020B8
:1095B0002539002010B5164C237B2BB1012B12D07E
:1095C0007846FDF7C3FD18E0228A41F282639A4291
:1095D00002D8104B1B7883B1FFF7B6FF638A0BB13B
:1095E000013B638210BD228A41F282618A4208D81F
:1095F000084B1B780BB1FFF7A7FF238A01332382A7
:10960000ECE742F2B0118A42F5D96373E4E700BF98
:10961000103900202539002010B50378042B0ED115
:1096200043681B785BB11D4B4269197B047E71BB9B
:10963000598A01BB012C996802D08A4203D810BD17
:109640004C1CA24219D92A318A42F8D8997B0029A8
:10965000F5D184689A60124A1A61C3E900115973FE
:109660001973FFF7FFFDFFF73BFE04F11000BDE8A3
:109670001040FFF71DBE012CE1D1996801318A42EB
:10968000DDD101225A73BDE81040FFF75DBF01290B
:10969000D5D1012CD3D09968F1E700BF1039002053
:1096A0000000062D38B5164CD4E900239A42054631
:1096B0001FD2207B134B1449012808BF0B469A4246
:1096C00007D263682268403B9A4208D3FFF708FE3E
:1096D00005E001236373FFF737FF0028F1D0EFF3B4
:1096E000108072B623685A1C22602B6028B962B6BB
:1096F00038BDFFF7F5FD0F20FAE70020F8E700BFBF
:1097000010390020FFFF7F0000E0FF0010B50C4A79
:109710001368144628B101200A4903448873136072
:1097200010BD13B97846FDF711FD2368013B236096
:10973000002BF5D1034A9373BDE81040FFF704BF37
:10974000BC3800201039002000B58DB00323ADF8DF
:1097500008000CA88DF8102000F82C3D0391FEF7AE
:10976000CFFF0DB05DF804FB014B9868704700BF58
:1097700010390020034B98681B7B012B08BF00F1B8
:10978000FF30704710390020044B9B685840C207D7
:1097900048BF03F1FF331846704700BF103900205F
:1097A000014B187B704700BF1039002038B50A4BB9
:1097B0001C787CB9094D01221A702973A860FFF743
:1097C00051FD2046FFF774FDC5E90044FFF788FD11
:1097D000204638BD0820FCE7E8380020103900207A
:1097E0002DE9F8431D4CDFF8789000260221204631
:1097F00002F00CFA5FFA86F805460027ADB967B1AA
:109800002946204602F069FA082806D154F8043C9B
:109810001BB12A464946404698470136032E04F1BB
:10982000BC04E3D10120BDE8F88354F8043C34F8CB
:109830000C2C13B129464046984734F80C3C0221C1
:109840000133204624F80C3C02F0FCF902212046AA
:1098500002F0DCF901370546D0E700BF3C390020B3
:1098600018C4030038B5012104460C3002F0CEF9CB
:10987000054628B3164BC4F89C300023C4F8A0302A
:1098800003786268012B07D0022B1BD07846FDF7C6
:109890005DFC4FF4FA7307E081688B1A99084FF466
:1098A000A9734B4303F5FA730A4A934294BFC4F871
:1098B000A830C4F8A8200123C4F8AC4084F8B8301C
:1098C000284638BD83689B1A1A0B034B5343E9E7BC
:1098D000FD98020060850100645E010010B5044639
:1098E000FFF7C0FF48B104F19C0005F03BFD20B13B
:1098F0007846BDE81040FDF729BC10BD2DE9F74FB3
:109900004A4B1B7880460D463BB105F061FD0023B4
:1099100085F8B83003B0BDE8F08F01F10C09D1F83B
:10992000A8704846012102F071F9064610B9784640
:10993000FDF70CFCDFF8FCA0A7F5FA7700244FF444
:10994000A97B3378012BA7EB040406D0022B3BD074
:109950007846FDF7FBFB00231FE06B68B268B4FBA1
:10996000FBF4D21AA400944228BF144624B90193F0
:109970007846FDF7EBFB019BF168706823F0030369
:10998000224619441844FFF739FC10B17846FDF718
:10999000DDFB6B681C446C60B3686A689A422AD12C
:1099A00005F016FD4846012102F04CF900236B60DA
:1099B00085F8B8301E4B186801F07AFA284603B0D3
:1099C000BDE8F04FFFF78ABF6B68B268B4FBFAF4EA
:1099D000D21A2403944228BF144624B9019378462E
:1099E000FDF7B4FB019B706823F003032146184484
:1099F000FFF7DCFBC9E701F0C1F83378B0EB0804EE
:109A000048BFA8EB0004012B0DD0022B06D1534612
:109A10002344BB4295D905F0DBFCCFE77846FDF740
:109A200095FB0023F4E74FF4A973F1E72C390020EC
:109A300028390020645E010070B51B481B4C01F002
:109A400019FA1B4B186004F11C0341F203060825A8
:109A5000636104F10C0004F118032361A681A5736E
:109A600002F017F904F1D803C4F8D03004F1C800AB
:109A700004F1D403C4F8CC30A4F8C86084F8CA5008
:109A800002F007F904F5CA73C4F88C3104F5C87301
:109A9000A4F8846184F88651C4F8883104F5C27052
:109AA000BDE8704002F0F5B8E197020030390020BF
:109AB00028390020022838B504460D4602D97846D8
:109AC000FDF744FB024BBC2202FB0434A56038BD09
:109AD0003039002002282DE9F84F07460C469246FF
:109AE00002D97846FDF732FB14B97846FDF72EFB14
:109AF0002378012B12D16368990702D07846FDF7CD
:109B000025FBE3689A0702D07846FDF71FFBA368A0
:109B10009B0711D07846FDF719FB0DE0022B0DD104
:109B20006368C3F30B0313B17846FDF70FFBA3681B
:109B3000C3F30B03002BEDD1A36813B97846FDF7EF
:109B400005FBEFF3108872B6BC257D43224E05F16C
:109B50000C09B1440021484602F058F8834690B3FE
:109B60000021484602F06EF810222146584612F0B5
:109B7000E8F8BAF1000F03D073195B88AAF8003037
:109B8000BC2303FB07677B8897F8B84001337B80D1
:109B900004BB124B1F78BFB97019FFF763FEB8F111
:109BA000000F0ED162B6444640B105F19C0030442E
:109BB00005F0D8FB10B17846FDF7C8FA2046BDE89D
:109BC000F88F3C46F0E70424B8F1000FF6D1A04628
:109BD0000020E7E70024F7E7303900202C39002087
:109BE00070B5EFF3108672B6144C236818BB13B926
:109BF0007846FDF7ABFA2368013B236093B9104D1B
:109C000095F8B83013B92846FFF768FE95F8743117
:109C100013B90C48FFF762FE95F8303213B90A48C1
:109C2000FFF75CFE2368094A003318BF0123137055
:109C300006B962B670BD01332360F3E7643B0020D0
:109C400030390020EC390020A83A00202C390020BF
:109C500010B1800B014B185C704700BF28C4030093
:109C600012DF704713B5137863B1022B0CBF0723C3
:109C7000002310F8011C292962D005D8162973D0B9
:109C800002B010BD537DF4E72A2927D02B29F7D144
:109C9000022BF5D110F8021C0139C9B203F026F9E4
:109CA00004460028ECD0374B1B685B06E8D5364BE2
:109CB0001B68012BE4DD2F21344812F01DF9002828
:109CC00049D02F21314812F017F9411C304B314A4D
:109CD000D3F8043500920194A62224E0022B01D08F
:109CE000072BCDD110F8021C013901F041FC0446CC
:109CF0000028C5D0234B1B685A06C1D5224B1B68D0
:109D0000012BBDDD2F21214812F0F6F878B12F216B
:109D10001E4812F0F1F8411C1D4B1F4AD3F80435C0
:109D2000009201949322022002F0FEF8A8E75C2141
:109D3000164812F0E1F808B15C21E9E71349EBE7B6
:109D4000022B9DD110F8021C0139C9B202B0BDE846
:109D5000104007F08DBD5C210C4812F0CDF808B121
:109D60005C21AFE70949B1E701884FF6E463994206
:109D700086D110F8021C0230033902B0BDE8104051
:109D8000FDF7E2B8F42D0020F02D002051C40300AF
:109D90000010014096C403006DC4030070B58AB082
:109DA00005F0D0FF0446002834D000238DF8103091
:109DB00006460FCE05AD0FC533682B60627D052AC0
:109DC0000CD9207D00F00F03072B07D004AB063A17
:109DD00004F11D0100F00F0004F07EFE114B1A6823
:109DE000AAB104AB0393237DC3F303038DF80430BE
:109DF000637D062B89BF063B00238DF8053004F1F7
:109E00001D0398BF8DF80530029301A890472046A6
:109E100005F082FF05F0B0FF80F00100C0B20AB08B
:109E200070BD00BF6C3B0020F7B5354F3A78054652
:109E3000002A5BD100285BD0067A0F2E01D0062EB7
:109E400058D104F015FEE86800284CD0FDF790F9D1
:109E50000DF10700FFF704FF0446002840D19DF8EC
:109E60000730012B48D1FDF7ADF900F071FA30460B
:109E700000F042FFE87800F0F7F800F083FD05F00D
:109E80002BFA204806F010F804F09EFFFFF7D4FDEF
:109E900003F0D6FF00F01EFC04F0AAFD04F0CAFB9C
:109EA000284601F0BBFAFDF7D3FF03F093FBFDF763
:109EB0004BF808B1062821D1134804F0DFFD2A2011
:109EC00004F080FE2B2004F07DFE292004F07AFEB1
:109ED000162004F077FE0D4B00221A6001233B7020
:109EE000204603B0F0BDFDF74BF9B1E70824F7E7D2
:109EF0000E24F5E70724F3E70224F1E70446EFE731
:109F0000683B00209D9D0200E42D00206C3B00205A
:109F100037B5244D2A78012A05D002D3033A012A05
:109F200038D9082428E005F0D9FE01F089FAFDF7B8
:109F3000D1FFFDF709F8044650B3062828D01A4B84
:109F40001B685B0418D5194B1B68012B14DD2F21EE
:109F5000174811F0D1FF90B12F21154811F0CCFF17
:109F6000411C144B144AD3F804350092019440F27A
:109F7000A712022001F0D8FF204603B030BD5C21BB
:109F80000B4811F0B9FF08B15C21E6E70849E8E7A2
:109F900000F0DEFE05F0D8F904460028ECD10223DB
:109FA0002B70E9E7683B0020F42D0020F02D002005
:109FB00051C40300001001402CC40300FDF78CBF06
:109FC000FEF7C8BB08B500F0ADFC002008BD704727
:109FD000044B1A680132B2F1704F08BF01221A60B7
:109FE00018687047703B002010B5044610B97846D9
:109FF000FDF7ACF80023C4E9003310BD38B50D46B9
:10A00000044610B97846FDF7A1F815B97846FDF772
:10A010009DF800236B60EFF3108372B6226822B9BB
:10A020002560656003B962B638BD62685560F8E7BF
:10A0300010B5044610B97846FDF788F8EFF31082A2
:10A0400072B6206808B143682360236803B963606F
:10A0500002B962B610BD10B5044610B97846FDF7D6
:10A0600075F8206810BD000007289ABF024B33F82E
:10A070001000FA20704700BFC2C40300024B5868AA
:10A08000103840B2704700BF00ED00E0084A2023BE
:10A0900090FBF3F352F82330424202F01F0200F02B
:10A0A0001F0058BF504223FA00F000F00100704733
:10A0B00000E100E046DF704730B501F110031032D7
:10A0C000103013F8014D12F8015D8B4284EA05044B
:10A0D00000F8014DF5D130BD2DE9F047144690B0A0
:10A0E00002F10F05102288462D1101460DEB0200EA
:10A0F000994604F00F0411F024FE002D51D0002CDD
:10A100004FD10126B2461022002108A811F024FEEA
:10A1100004A8FFF7CFFF01220DF13F0110AB13F9A7
:10A12000100D1F4693F800C04FEA4C0C5FFA8CFCF0
:10A1300083F800C013F801EF4CEADE1C994203F8E3
:10A1400001CCEFD19DF83F305B00DBB20028B8BFF7
:10A1500083F087038DF83F30531C9A454FF002027D
:10A16000DCD2013D08EB0511FEB10CAA6846FFF7F1
:10A17000A3FF102200210CA811F0EEFD0024AC4238
:10A1800025DB3A46694608A8FFF796FF04A8FFF7C3
:10A1900091FF10223946484611F0D3FD10B0BDE8BA
:10A1A000F08700264FF0020AADE72246684611F01C
:10A1B000C8FD10AB2344802203F8402C0134102C3E
:10A1C00002D10CAA6946D1E70DF80460F6E708EB66
:10A1D0000412394608A8FFF76FFF04A8FFF76AFFCB
:10A1E0000134CCE738B5124B1A6804462AB11A6814
:10A1F00045685268AA1A002A0DDA1A6862611C6062
:10A200009A88013292B29A8012B97846FCF79EFF82
:10A210000123237038BD19684A691AB15068401B80
:10A22000002802DB62614C61EAE71146F4E700BFF7
:10A23000783B002010B5124B1A68824204461A4639
:10A240000BD142691A609A8892B2511E89B29980E4
:10A250008AB97846FCF77AFF0DE01B685BB1596953
:10A26000A1420BD16169596193889BB2591E89B291
:10A270009180002BEDD00023237010BD0B46EDE73D
:10A28000783B0020014B186800F012BE743B0020A0
:10A29000044B1A6822B11B680349586800F05AB988
:10A2A00000F0AEB9783B002085A202002DE9F04114
:10A2B00000F0C6F8254E054637464FF000083368D3
:10A2C00023B133685B685B1B642B06D400F0B8F8DD
:10A2D000FFF7DEFF0120BDE8F08134682378012B11
:10A2E00002D07846FCF732FF63693B60BB88C4F854
:10A2F00014809BB25A1E92B2BA8013B97846FCF70A
:10A3000025FFA36813B97846FCF720FF02232846EF
:10A3100023702169A368984700F092F82378022BF4
:10A320000546CCD1E2680AB92270C8E763686FF0CD
:10A330006301891A1344091AD018C14204D4636016
:10A340002046FFF74FFFBAE70346F5E7783B0020CA
:10A3500008B508220021064811F0FEFC054800F06F
:10A3600089FD054B1860BDE8084000F05CB800BFEF
:10A37000783B0020ADA20200743B002010B50446DB
:10A3800000F06EFE10B97846FCF7E0FE14B978468E
:10A39000FCF7DCFEA36813B97846FCF7D7FE2378F8
:10A3A000012B02D17846FCF7D1FE002363612046E1
:10A3B000FFF718FF00F044F8BDE81040FFF768BF52
:10A3C00010B5044600F04CFE10B97846FCF7BEFE0E
:10A3D00014B97846FCF7BAFE2046FFF72BFF00239E
:10A3E000636100F02DF8BDE81040FFF751BF38B5AC
:10A3F00004460D4600F034FE10B97846FCF7A6FE80
:10A4000014B97846FCF7A2FE2046FFF713FF00239D
:10A41000636120466560FFF7E5FE00F011F8BDE8D6
:10A420003840FFF735BF08B50DF0CCFA38B90DF05C
:10A4300009FA20B17846BDE80840FCF787BE08BDA0
:10A4400010B5EFF3108072B60C4A0D4B1968D2F8B4
:10A450000435D2F80441012C04BFD2F8043501318F
:10A4600000B962B6074843EA01614FF48042002315
:10A47000E0FB0123D00B40EA434010BD0010014037
:10A48000803B002040420F0010B50A4B0A4C4FF4AD
:10A490000032C3F84823C3F80823226812B978466B
:10A4A000FCF754FE2468FFF7CBFF2346BDE81040BD
:10A4B000184700BF001001408C3B002010B5EFF39F
:10A4C000108072B61E4B1F490022C3F804210A688F
:10A4D00001320A6000B962B61B4A116809B31168FB
:10A4E000013911601268E2B9184AD3F804051168FD
:10A4F000884217D2EFF3108072B6D3F804151468AF
:10A500000131A1422ABFD3F8042512680232C3F8F0
:10A51000442500B962B64FF40032C3F84423C3F8AF
:10A52000042310BD0A4C226812B97846FCF70EFECF
:10A530002468FFF785FF2346BDE81040184700BF99
:10A5400000100140803B0020843B0020883B00201D
:10A550008C3B002037B50023044601930D4611B90A
:10A560007846FCF7F3FD204B1D60FFF769FF031BE6
:10A57000002BB8BF241A1D481D4AA8BF00244FF461
:10A58000004500210023E5FB040111F003FAEFF37D
:10A590001083019372B6174A174CD2F8043502287B
:10A5A000C3F1FF1101F57F4138BF022081421349F9
:10A5B00010D30344C2F844354FF40033C2F8443397
:10A5C000C2F80433002323600B60019B03B962B619
:10A5D00003B030BD03F17F43013303441A0E01324F
:10A5E000226023F07F43EFE78C3B002020A107008F
:10A5F00040420F0000100140843B0020883B0020B7
:10A60000074B4FF40032C3F84823C3F80823054A28
:10A6100000231360044A1360044A1360704700BFAC
:10A6200000100140843B0020883B00208C3B002030
:10A6300030DF704731DF704710B5D0E90023846800
:10A64000C168A2EB731283EAF43303600C44134431
:10A65000114444608160C360184610BD37B50C4694
:10A66000054610B97846FCF771FD00239C4201D8DD
:10A6700003B030BD0DF10700FFF7DAFF9DF80710BA
:10A680000029F7D0E21A914288BF8DF80720E81818
:10A690009DF80710FFF7CEFF9DF807201344E5E76C
:10A6A00037B5044602A8002340F8043D0421FFF713
:10A6B000D5FF074B2360019BE360C4E901331425F8
:10A6C0002046FFF7B9FF013DFAD103B030BD00BF0E
:10A6D000ED5EEAF1704748DF704749DF70474ADFB7
:10A6E00070470000064A032313741168054B536139
:10A6F00040F6D862914288BF43F2B0629A607047D8
:10A70000BC3B0020DC3B0020054B1B68A0F178021D
:10A7100028335843034BB0FBF3F0101A704700BFC7
:10A72000D83B002040420F0038B50E4A0E4C0123A2
:10A7300063711368002501331360257400F078FA03
:10A7400004F0BCFE2068FFF7DFFF084A01462846F8
:10A7500000F0E2F920B17846BDE83840FCF7F6BCDD
:10A7600038BD00BFF03B0020BC3B0020E5A6020046
:10A7700010B41F4B5A6928B11968DC6811440134C0
:10A78000DC601960996801240131E24001291C74E0
:10A7900099605A611C680ED002291AD05B69154A6B
:10A7A0001C44944203D840F6D76293421CD85DF80B
:10A7B000044BFFF7B9BFB2F5FA7F03D130B90022DD
:10A7C0005A61EBE740F6D8618A42E7D840F6D86292
:10A7D000F6E7DA68022A02D1064A121BF0E7012ADC
:10A7E000DCD10028EBD0D9E75DF8044B704700BFFF
:10A7F000BC3B00208096980070B5424C424D01232E
:10A8000023712B781BB1414B1E78002E5BD00023A7
:10A810002374042853D8DFE800F0034D4A4844006D
:10A820003B4DA179AA68C4E902332368226000295C
:10A8300034D0012121743749002B08BF0B46991AE7
:10A84000B1F57A7F26D39A4224D8616143F2B06091
:10A8500043F69822C5E9020201236B71A371237CA0
:10A86000023B012B0DD8637943B104F043FE20680D
:10A87000FFF74AFF00F00EFA00236371234B00221A
:10A880001A70237C2448022B04BF01232376002363
:10A89000237170BD4FF47A736361D7E7FFF744FF0C
:10A8A000D4E70120FFF764FFD9E70020FAE704F0BE
:10A8B000B3FDD4E700F082F904F0E6FDCFE7784677
:10A8C000FCF744FCCBE700F059F92B782060022B11
:10A8D0000FD0032B06D0012B10D1022323740023A9
:10A8E0002B70BCE70A4B0D490D4A5E71C3E9021299
:10A8F000A67103232374064B6361F0E77846FCF7E7
:10A9000025FCECE7BC3B0020ED3B0020EC3B0020AD
:10A91000DC3B002080969800CC3B0020A086010004
:10A92000FF1FA107043808B5042825D8DFE800F088
:10A9300016220A030F00114B1B7E012B1CD1FFF7BF
:10A94000CCFEC8B17846BDE80840FCF7FFBB0B4B16
:10A9500000221A76BDE8084004F004BE084801232E
:10A96000437143F6982240F6D863C0E90232FFF7FC
:10A97000B6FEE6E70248FAE708BD00BFBC3B002090
:10A98000DC3B00200D4A4FF480710023918043F29C
:10A99000B06C43F698211370C2E902C1084A1060F6
:10A9A000084A1370084A1370084A1360084A137162
:10A9B000537113601376012393717047DC3B0020C1
:10A9C000D83B0020EC3B0020ED3B0020F03B00207A
:10A9D000BC3B002010B50E4C227E012A0CD004D3C3
:10A9E000022A0CBF1120002010BD0A48FFF773FE99
:10A9F00010B17846FCF7AAFB0748FFF770FE10B1CC
:10AA00007846FCF7A3FB022323760020ECE700BF87
:10AA1000BC3B0020F9A70200DC3B0020074B1B7C5D
:10AA2000023B012B07D9064B1878013802288CBF4E
:10AA30000020012070470120704700BFBC3B002070
:10AA4000ED3B0020014B1868704700BFBC3B002065
:10AA500010B5074B587948B11868FFF755FE044602
:10AA600000F08CF80346201A48BF181B10BD00BF29
:10AA7000BC3B0020014B1879704700BFBC3B002055
:10AA8000EFF3108372B6054A527922B1044A4FF4AB
:10AA90008071C2F8001103B962B67047BC3B002058
:10AAA00000E100E0044B1B7E022B04D1034B01228A
:10AAB0001A70FFF7E5BF7047BC3B0020ED3B00205C
:10AAC000064B1B7E022B07D10128054B0CBF03222E
:10AAD00002221A70FFF7D4BF704700BFBC3B0020B2
:10AAE000ED3B0020064B19781A4631B128B90549CB
:10AAF000097811B11870FFF7C3BF1070704700BF1D
:10AB0000EC3B0020ED3B0020024B1B6803B962B612
:10AB1000704700BF043C0020022810B522D8EFF394
:10AB20001084114B1C6072B6104B43F82020104B60
:10AB3000002243F820200F4B1B787BB1830003F1E8
:10AB4000804303F500431030C3F84021012202FA8C
:10AB500000F0094AC2F80403C3F84015FFF7D4FF18
:10AB6000002010BD0720FCE7043C0020F43B00203F
:10AB7000103C0020003C00200080004008B5EFF3AE
:10AB800010820A4B1A6072B6094B1B7853B1094BFD
:10AB90000022C3F84C210122DA64D3F84C05FFF7F8
:10ABA000B3FF08BD044B1868F9E700BF043C002060
:10ABB000003C002000800040083C00202DE9F84FB8
:10ABC000DFF85880DFF858900024A70007F180458F
:10ABD00005F50045D5F84031D3B1D8F8043304F178
:10ABE000100201269640334212D057F809B0BBF14B
:10ABF000000F02D17846FCF7A9FA4FF0000A49F895
:10AC000007A0C8F80863FFF7B9FFD847C5F840A107
:10AC10000134032CD9D1BDE8F88F00BF008000407B
:10AC2000F43B0020014B1B68184470470C3C00208B
:10AC300008B5134B0022C3F84025C3F84021D3F8D0
:10AC40004011C3F84425C3F84421D3F84411C3F894
:10AC50004825C3F84821D3F848310A4B1B681BB973
:10AC6000094B4FF480721A60084B01221A70FFF7EB
:10AC7000E7FB0146FFF782FF054B081A186008BD85
:10AC800000800040043C002000E100E0003C002087
:10AC90000C3C00200B4A0C49002313605360936066
:10ACA0000A4A0B6010600A4A4B6013708B60094BB4
:10ACB0004FF0FF32C3F80823074B4FF48072C3F8FC
:10ACC00080217047103C0020F43B0020083C00200D
:10ACD000003C00200080004000E100E0044B1B78B5
:10ACE0000F2B1EBF034B4FF48022C3F80021704787
:10ACF000643D002000E100E010B5104C104B2070C6
:10AD0000104803601023C0E90133FEF7D5F90E485F
:10AD1000FFF76AF923780F2B0AD0072B09D8EC220A
:10AD20001A41D20705D55B01084ADBB282F812331B
:10AD300010BD7846BDE81040FCF708BA643D00201D
:10AD4000303C00201C3C0020683D002000E100E079
:10AD50000D4B1B780F2B0DD00C4991F812335A096B
:10AD6000EC231341DB0706D5094B9A6832B94FF43F
:10AD700080230B6070477846FCF7E8B91A6842F404
:10AD800080221A60704700BF643D002000E100E0AF
:10AD900028530020F8B5EFF3108772B61748026801
:10ADA000511C016002BB164B1B780F2B21D0EFF317
:10ADB000108C72B6134A144C95680123E5B9936060
:10ADC000124B134ED3F8801031401160C3F88060ED
:10ADD000D3F8841051604FF0FF32C3F884202570FF
:10ADE000BCF1000F00D162B6036813B97846FCF7D6
:10ADF000ADF907B962B6F8BD2370F1E7303D002028
:10AE0000643D002028530020653D002000E100E063
:10AE1000FC06FFBD38B5EFF3108572B6104C236801
:10AE200013B97846FCF792F92368013B2360A3B974
:10AE30000C4B1B780F2B10D00B4B9A686AB10B4A46
:10AE4000127852B9EFF3108072B609491C680C6091
:10AE50005C684C609A6000B962B605B962B638BDEC
:10AE6000303D0020643D002028530020653D002037
:10AE700000E100E038B5054610B97846FCF766F900
:10AE8000094C2368092B02D97846FCF75FF9EFF3E8
:10AE9000108372B62068421C2260044A42F8205097
:10AEA00003B962B638BD00BF343D0020383D0020F4
:10AEB00010B50E4B1B688342044602D87846FCF757
:10AEC00045F9EFF3108072B6094A6109012304F0D5
:10AED0001F0403FA04F452F82130234342F82130CE
:10AEE000FFF7FCFE00B962B610BD00BF343D002084
:10AEF000603D002070B50D461646044610B97846F0
:10AF0000FCF724F915B97846FCF720F9EFF3108324
:10AF100072B60022C4E902562274246003B962B6F4
:10AF200070BD000070B5044610B97846FCF70EF904
:10AF3000A36813B97846FCF709F9EFF3108672B6E7
:10AF4000237C03F0FF055BB90123064823742146E7
:10AF5000FFF754F8FFF7C2FE284606B962B670BD87
:10AF60001120FAE7683D002010B5044610B9784674
:10AF7000FCF7ECF8207C10BD2DE9FF47314E33780B
:10AF800013B17846FCF7E2F80125DFF8C8802E4FB0
:10AF9000DFF8C49035700024D8F80030A34212D8EE
:10AFA0002A48DFF8A880FFF743F8002750BB284C59
:10AFB00069462046FEF7C2F890B300232846337056
:10AFC00004B0BDE8F087610904F01F02012393403B
:10AFD00057F82120134213D0EFF3108072B657F8C0
:10AFE000212022EA030347F8213000B962B659F85C
:10AFF00024309847824618B92046FFF759FF554636
:10B000000134C9E70468237C13B97846FCF79EF83D
:10B01000D4E90230984727744046FFF709F8C5E79E
:10B020009DF8003043B1012BC2D1019B002BBFD052
:10B03000DDE902019847BBE7019B002BB8D00298DD
:10B040009847B5E7703D0020603D0020683D002036
:10B050001C3C0020343D0020383D0020FFF78CBF11
:10B0600007B5FFF70BF88DF803009DF8033017497B
:10B07000F02B0DD10B780F2B25D01220FFF706F8FF
:10B0800080F00100C0B200F0010003B05DF804FBE5
:10B090009DF803305BB2002BADBF03F1604303F0BA
:10B0A0000F030B4A03F56143B4BFD35C93F800333D
:10B0B0005B090193019A0B78934204D0019A934261
:10B0C000DBD30020DFE70120DDE700BF643D002087
:10B0D00014ED00E046DF704730B58DB00D461446E4
:10B0E00001461022684610F02CFE102229460DEB76
:10B0F000020010F026FE6846FFF7ECFF102208A9B8
:10B10000204610F01EFE0DB030BDFEF7E5BF01F089
:10B1100085BD01F0ADBD30B4032956D8DFE801F09C
:10B120000227275000241C70817A5A7861F30602A6
:10B130005A70C17AD2B261F3C7125A70C1680D0455
:10B14000C1F3074205F47F0501F47F412A430A4316
:10B15000C2F307219A70120C1A71D9700189DC713F
:10B160000A0A42EA0122A3F805201C7222E01970A3
:10B17000597801F0800162F3C7115970C1680C045D
:10B18000C1F3074204F47F0401F47F4122430A43E0
:10B190009A70C2F30721120C1A71D97001890A0A38
:10B1A00042EA0122A3F8052041880A0A42EA012264
:10B1B000A3F80720026912BAC3F8092030BC70470F
:10B1C000032200241A705C70B8E7784630BCFBF7A5
:10B1D000BDBF7FB50E461546044600B112B978468C
:10B1E000FBF7B4FF10220021684610F0B5FD2B4696
:10B1F000324621466846FEF76FFF04B070BD2DE968
:10B20000FF410B9D884616461C46074610B10AB101
:10B2100003B115B97846FBF799FF6B4642463946AC
:10B220003046FEF759FF2B469DF8282021466846F8
:10B23000FEF752FF04B0BDE8F0810000F0B50D4606
:10B240008FB014461F46064608B101B113B97846BF
:10B25000FBF77CFF1CB97846FBF778FF01E0102C68
:10B26000F9D8254B1868009005AA68460421FFF715
:10B27000B0FF01AB314605A81022FEF72DFF224694
:10B28000294605A810F05DFD0EAB2344012203F80A
:10B29000242C05ABA218194601A892B2FEF71CFF98
:10B2A0009DF823303E4603F07F0306F8013B22461B
:10B2B000294609A810F045FD04F110050EAB1D4408
:10B2C0001134A4B2022305F8243C2246334605A9D2
:10B2D00001A8FEF701FF3146102205A810F031FD4C
:10B2E000032305F8243C224607F1110305A901A810
:10B2F000FEF7F2FE0FB0F0BDD2C4030070B50D46EC
:10B3000088B0064600B111B97846FBF71FFF114C13
:10B3100004212068019004AA0DEB0100FFF759FFFA
:10B3200004AB314618461022FEF7D6FE234602A98A
:10B3300053F8040F02901B798DF80C3004AB1846BB
:10B340000522FEF7C9FE082206A9284610F0F9FCDE
:10B3500008B070BDD6C4030070B50D4686B0064671
:10B3600000B111B97846FBF7F1FE0F4C54F8040B0D
:10B37000009002AA68460421FFF72BFF02AB31467A
:10B3800018461022FEF7A8FE2068019002AB0422A6
:10B3900018460DEB0201FEF79FFE9DF8173003F0F3
:10B3A0003F032B7006B070BDDFC4030030B50268E8
:10B3B000037CD17A87B000298DF8043083680CBFF4
:10B3C0000421082109330B44CDE902324368049378
:10B3D0000446C3680593694601A801F061FED0B137
:10B3E000237C012B0ED02568FEF7C4F92861206864
:10B3F0000C30FEF757F9054620B101F0CDFE284686
:10B4000007B030BD2168009800F08DFB009B093328
:10B4100063610025F3E70425F1E7000008B5074B59
:10B4200040B91860FEF72EF8FDF7D6FFBDE80840DA
:10B4300002F0EABA42681A60F4E700BF743D0020E7
:10B4400008B5FEF741F8BDE8084002F01BBB10B597
:10B45000044610B97846FBF779FE236813B978469D
:10B46000FBF774FE23685B6913B97846FBF76EFE41
:10B47000237C012B02D97846FBF768FEE36813B9F9
:10B480007846FBF763FE2046BDE81040FFF78EBF0D
:10B4900070B50446C6B010B97846FBF757FE63692D
:10B4A00013B97846FBF752FE236813B97846FBF7C9
:10B4B0004DFE23685B6913B97846FBF747FE606968
:10B4C00000F08EFB234B1B689B0706462FD5224BB3
:10B4D0001B68042B2BDD214B05AD19680023F25CA2
:10B4E000100902F00F02085C05F81300885C05EBF8
:10B4F000430201331D2B5070F1D100232F21184836
:10B5000085F83A3010F0F8FCD8B12F21144810F02B
:10B51000F3FC411C134B144AD3F804350192134A2F
:10B52000009202954FF49472052000F0FDFC002378
:10B530003246A168206800F0B7FA01F007FE46B075
:10B5400070BD5C21064810F0D7FC08B15C21DDE736
:10B550000349DFE7F42D0020F02D0020F82D002016
:10B5600032C50300001001404DC503000EC10300A9
:10B570002DE9F0470F46D4B091460546002800F06B
:10B58000368100F02FFB0DF12C089A4E421B294604
:10B59000404610F0D6FB336899072AD5964B1B68B6
:10B5A000042B26DD954B802F3846196828BF802054
:10B5B000002313AC834240F0B18000222F21904839
:10B5C00004F8132010F098FC002800F0B8802F2118
:10B5D0008B4810F091FC411C8A4B8B4AD3F8043500
:10B5E00001928A4A0092029440F24D12052000F026
:10B5F0009BFC002305AC00932A464346394620466F
:10B6000000F008FA8246002840F0C3802378002B1F
:10B6100000F0BF80E268B2F1807F80F0BA80E27A09
:10B6200012B1022B00F0B58094F90A30002BC0F261
:10B63000B080336813F0020F13AD28D06E4B1B6837
:10B64000042B24DD6D4B802F3846196828BF8020DD
:10B65000002383427CD100222F21694805F8132062
:10B6600010F04AFC002800F085802F21644810F07B
:10B6700043FC411C634B664AD3F804350192634A8C
:10B68000009202954FF4AB72052000F04DFC636907
:10B6900013B97846FBF75AFD3946204600F098FA70
:10B6A000C7B24B46224639460DF13500FCF740FD46
:10B6B000E16882462089FBF7B5FD294620890BF019
:10B6C000FFFD002865D1012003F0C2F9002860D0F9
:10B6D000A37A012B5DD92378012B54D04D4BA27A4C
:10B6E0001B68002B59D1A37A2C60013BA3724FF049
:10B6F000FF336B60DF23EB6028460123AF602B74C0
:10B70000FFF754FE00284ED13A460DF13501686925
:10B7100010F017FB2846FFF7BBFE3AE0EA5C4FEA61
:10B72000121C02F00F0211F80CC004F813C011F83B
:10B7300002C004EB4302013382F801C03AE75C2106
:10B740002F4810F0D9FB08B15C2141E72C4943E7B1
:10B7500018F803204FEA121C02F00F0211F80CC077
:10B7600005F813C011F802C005EB4302013382F85B
:10B7700001C06EE75C21224810F0BEFB08B15C21DD
:10B7800074E71F4976E7294660880BF099FD002889
:10B79000A4D0504654B0BDE8F0876188208998470E
:10B7A0000028A0D1F5E733689B07F2D5124B1B6840
:10B7B000012BEEDD2F21124810F09EFB70B12F21DE
:10B7C0000F4810F099FB411C0E4B134AD3F8043577
:10B7D00000920220A72200F0A7FBDAE75C210848CC
:10B7E00010F08AFB08B15C21EAE70549ECE74FF06D
:10B7F0000E0ACEE7F42D0020F02D0020F82D0020B9
:10B8000032C5030000100140E7C403000EC103006D
:10B81000F6C40300743D002005C5030008B510B14F
:10B82000012801D1032008BD7846FBF78FFC0020DA
:10B83000F9E770B5064688B00D461446002105228A
:10B8400004A810F089FA336907221BBAA9180DF170
:10B850001900CDF8153010F074FA70696A4611308D
:10B8600004A9FFF739FCAB1D0DF10600E21D13F82A
:10B87000011910F8014DAB4281EA040102F8011DE3
:10B88000F5D108B070BD00002DE9F041D4B01E46DE
:10B8900000238DF81730ADF83C300E93D31D0C9378
:10B8A000F31D10935A9B43610F460DF11808114682
:10B8B00032460446CDF82C80FFF7BBFF7378DB09D6
:10B8C000E372737803F07F03A372F378B2781B02FC
:10B8D00043EA024332791343E3607379B07940EA73
:10B8E00003202081FEF7B4F9012869D1E27A002A09
:10B8F000A7F1090314BF08220422934260D3E16830
:10B900002089FBF771FC0546002859D1E37A9DF8A0
:10B910006C01002B14BF08230423073F8DF8483027
:10B92000FF1A0C9BBFB2ADF834701F441197FFF79C
:10B9300075FF434601462A462046FFF7ECFB636944
:10B940000DF1170101330AA80A93FFF7E2FB9DF8F6
:10B950001730002B34D0F379307A40EA032060802E
:10B96000FEF776F9244B20701B689B0728D5234BE4
:10B970001B68032B24DDBDF83420214B109E196871
:10B98000802A28BF8022284613AC90421DD1002374
:10B9900004F810302F211B4810F0AEFA10B32F21FD
:10B9A000184810F0A9FA411C174B184AD3F804356F
:10B9B0000192174A00920294DF22042000F0B4FAA8
:10B9C0009DF8170054B0BDE8F081335C1D0903F009
:10B9D0000F034D5D04F81050CD5C04EB40030130C3
:10B9E0005D70D2E75C21074810F086FA08B15C214F
:10B9F000D6E70449D8E700BFF42D0020F02D002041
:10BA0000F82D002054C503000010014072C503004A
:10BA10000EC103002DE9FF47894615461F469DF8D4
:10BA200030A0064618B112B10BB19A4202D1784645
:10BA3000FBF78CFBA9F10903142B31D82878C00936
:10BA4000FDF7A2FE00233061736195F80080CDE917
:10BA5000023308F07F0803AA02A940460BF050FB0E
:10BA6000029BB3B1CDE9003A2A463B4649463046EF
:10BA7000FFF70AFF044608B100200EE0039B43B124
:10BA8000CDE9003A2A463B4649463046FFF7FCFEE0
:10BA900040B9029B002BDED1052004B0BDE8F08741
:10BAA0000920FAE72046F8E7F0B50C468FB01646B5
:10BAB0001F46054610B97846FBF748FB16B978468D
:10BAC000FBF744FB012F02D97846FBF73FFB3846D2
:10BAD000FFF7A4FE01AF3B46014600222846FFF7D0
:10BAE0001AFBEB7A002B14BF082304238DF83430A3
:10BAF0006B69A11C0133CDE9053789B2F31D002222
:10BB0000ADF8201005A8194407930B93ADF8282031
:10BB100009920C91FFF7FBFA324631462846FFF7AF
:10BB200088FE0FB0F0BD38B50D46044610B9784612
:10BB3000FBF70CFB15B97846FBF708FB2889FEF7E5
:10BB400087F8012802D07846FBF700FB95F90A3008
:10BB5000002B02DA7846FBF7F9FAEB68B3F1807F45
:10BB600002D37846FBF7F2FA6B6913B97846FBF714
:10BB7000EDFA2B6903F00102237803F07F0343EA17
:10BB8000C21323706A69127823F07F0302F07F02E8
:10BB9000134323706378EA7A03F07F0343EAC21306
:10BBA000DBB26370AA7A23F07F0302F07F021343B3
:10BBB0006370EB6823711A0CA2701A0AE2702B8969
:10BBC000A3711A0A62716B8823721A0AE27138BD76
:10BBD000C37A002B14BF082004200939081A7047C3
:10BBE0000938704701307047436849B90278807856
:10BBF0001A441B78C31A12F8010C1844C0B27047DB
:10BC00005A185B5C12F8010CC01AF7E738B50D46FC
:10BC1000044610B97846FBF799FA2378AB4202D86C
:10BC20007846FBF793FA29462046FFF7DDFF40B13F
:10BC300063686278585DA378013B1840A36802FBF3
:10BC4000003038BD38B50C46054610B97846FBF7CC
:10BC50007DFA2B78A34202D87846FBF777FA214683
:10BC60002846FFF7C1FF18B16A68135D0133135509
:10BC700038BD10B5044610B97846FBF767FA0023C3
:10BC8000194622789A4200D810BD6268D154013317
:10BC9000F7E710B54378044613B97846FBF756FA30
:10BCA0002378012B02D87846FBF750FAA36813B922
:10BCB0007846FBF74BFA636813B97846FBF746FA08
:10BCC000A37813B15A1E1A4202D07846FBF73EFA07
:10BCD0002046BDE81040FFF7CCBF38B50D460446FE
:10BCE00010B97846FBF732FA2378AB4202D878468F
:10BCF000FBF72CFA29462046BDE83840FFF774BF11
:10BD000008B520B119B1FFF727FB002008BD0E20B0
:10BD1000FCE713B50B4650B149B102A9002401F864
:10BD2000014D0122FFF78AFA204602B010BD0E2015
:10BD3000FBE7000030B50C468BB00546E0B1D9B149
:10BD40001031FFF7DBFA0D4B03930D4B186804908D
:10BD50009B88ADF8143006AA042103A8FFF739FA2E
:10BD6000062300932846019404AB06AA1021FFF78E
:10BD700046FA00200BB030BD0E20FBE76E6B626B05
:10BD800085C5030030B50C4687B00546F0B1E9B172
:10BD900004210F4B01930DEB010002AAFFF719FAE2
:10BDA00002AB184610222946FFF7AFF99DF816306E
:10BDB0009DF817201B026FEA424203F47C536FEA9E
:10BDC000524213432380002007B030BD0E20FBE712
:10BDD0007674616438B50D46044600B111B97846F1
:10BDE000FBF7B4F9AC421EBF23682B60256038BD59
:10BDF00038B50C46054600B111B97846FBF7A6F9EF
:10BE00002B68A34202D17846FBF7A0F9286840B915
:10BE10002C60206038BDA54202D17846FBF796F928
:10BE200028460568002DF6D12146BDE83840FFF7C9
:10BE3000D1BF38B505460C4601B110B97846FBF7BD
:10BE400085F92B6883B1A34205D123682B600020BC
:10BE5000206038BD13461A6822B1A242FAD1226886
:10BE60001A60F4E7002CFAD00520F2E7F8B50E4688
:10BE70001746044608B101B112B97846FBF766F9D6
:10BE80002368B34202D17846FBF760F925685DB9B3
:10BE9000266028463560F8BD2C68A64202D1784657
:10BEA000FBF754F93CB1254631462846B8470028EF
:10BEB000F2D00F20EFE728463146FFF78BFF2046F0
:10BEC000E9E7000037B506AC184654F8045B009269
:10BED0000B460246054900200EF046FE2246294642
:10BEE00000200EF023FD03B030BD00BF8CC5030061
:10BEF000034B1860034B1960034B1A60704700BF77
:10BF0000F42D0020F02D0020FC2D002010B4054C55
:10BF100024681CB1A4465DF8044B60475DF8044BEF
:10BF2000704700BFFC2D002030B585B008AC54F838
:10BF3000045B0394CDE90054FFF7E8FF05B030BD82
:10BF4000037942799B1A00EB03307047431E9BB282
:10BF500047F6FE62934208D849B14B8858400B8897
:10BF600018420CBF012000207047002070470120BC
:10BF70007047830770B504460E46054602D07846E2
:10BF8000FBF7E4F826F003063444A54201D1012072
:10BF900070BD55F8043B0133F7D00020F8E70000EE
:10BFA000064B984210B5044603D303F582739842BA
:10BFB00002D97846FBF7CAF8201F10BD843D002047
:10BFC0001FB50124CDE9022101901A466946204699
:10BFD0008DF80040FDF77EFD04B010BDF8B50C4DA6
:10BFE00001460C48FCF745FD6E687EB100272846E7
:10BFF000FEF71EF8044610B97846FBF7A7F8236849
:10C000002760D3E902209047A642F0D1F8BD00BFD7
:10C010008C3E0020783D002038B503884A6803F143
:10C020008043013B9C001368033323F00303A342C6
:10C030000D4605D009238B606B681C60002038BD5D
:10C0400000238B601268011D28680FF07AFEF3E769
:10C0500013B502A9002482B241F8044D0448FCF74C
:10C0600024FC18B90198043002B010BD2046FBE74B
:10C07000783D002008B5FFF793FFBDE80840014672
:10C0800002880148FCF762BC783D0020014B18682B
:10C09000FEF70EBF943E002010B50388044613B986
:10C0A0007846FBF753F82088074B04EB800030EA12
:10C0B000030203D06288B2F5FE4F04D11C4004F5A0
:10C0C00080542078204410BD00F0FFFF70B5046854
:10C0D000237805461C4400214FF6FF762868FFF7B9
:10C0E0002FFF844202D26388B34201D1084670BD5B
:10C0F0002046FFF7D1FF21460446EFE72DE9F04F38
:10C10000934FDFF8708287B03E4698F800203B7866
:10C11000022A14D1032BFDD8DFE813F00400390004
:10C120001100670106A9002341F8103D8948FCF77A
:10C130003EFC014638B1884B1B6803B1984701208B
:10C1400007B0BDE8F08F029C844B94F80890221D44
:10C150001A60012399453370D7D86568E868FFF7FE
:10C16000EFFE6B69C01AAB68C01AB9F1000F01D1BC
:10C17000218A89008142C8DB6B68002BC5D003236C
:10C180002B70606888F80030FCF76EFFBDE7734BDA
:10C190001C682379042B00F2D380DFE813F005003C
:10C1A0008A00AD00ED0017012368DD682846FFF71F
:10C1B000C7FE2B78E2890146E81800F02FFF2568BA
:10C1C000AB68824673B9D5F80C904846FFF7B8FEC5
:10C1D00099F80030014647F6FF7209EB030000F0C2
:10C1E0001DFFA8602268A189D2F80890DFF880B10D
:10C1F00029F47F6525F00F0505F58055A5EB0903AA
:10C2000089008B4233D909EB01052146002331F81F
:10C210000C2F48469200FFF7D3FE10B17846FAF78C
:10C2200095FF4F4B4F4904222846FFF7C9FE10B136
:10C230007846FAF78BFFBAF1000F10D02268BAF8EF
:10C240000010536803EB810353604749444B0422B9
:10C250005046FFF7B5FE10B17846FAF777FF002396
:10C26000C4F808908BF80030022333704DE7D06893
:10C270000193FFF765FE8542019B04D101238BF8F2
:10C2800000300323F1E78B4202D12B781D44BCE739
:10C290000023042235494846FFF792FE10B1784644
:10C2A000FAF754FF95F80090A944A58909EB850594
:10C2B000ABE72368DD682846FFF742FE2B78E2896A
:10C2C0000146E81800F0AAFE294D10B902232B7090
:10C2D000D7E72268A0600188536803EB81035360AD
:10C2E00021491F4B0422FFF76BFE60B37846FAF733
:10C2F0002DFF00232B70B7E72268637BD56805EB21
:10C30000033508212846FFF734FE90B905F1FF3ABE
:10C3100004F1070904F10F0B1AF8013F19F8012F76
:10C320009A4204D0FF2B02D07846FAF70FFFCB4594
:10C33000F2D108220A4BA1182846FFF741FE10B19E
:10C340007846FAF703FF0A4B00221A708CE700BF09
:10C35000883E0020783D0020983E0020A03E00202E
:10C360009E3E0020BCC50300B4C50300B8C5030051
:10C37000A43E00209C3E002020680C30FFF7A6FE63
:10C38000054610B97846FAF7E1FE6B884BB1554B7C
:10C39000554904222846FFF713FE10B17846FAF7F4
:10C3A000D5FE2846D4F80090FFF776FEC9F80800BD
:10C3B0002168C868FFF7C4FD8B688342C3D2284652
:10C3C000FFF76AFE474B49490422B6E72368D3E9E1
:10C3D000032302211B038DF80810CDE9032302A9D2
:10C3E000404A0120FDF776FBA9E7414C236813B9C9
:10C3F0007846FAF7ABFE3F4B246893F80090B9F10A
:10C40000000F21D12379D4F808A0012B13D00AD32F
:10C41000022B1CD023792568042B35D8DFE803F0E4
:10C420001F3B433451002146504631F80C2F9200F7
:10C430000FF078FC01E0BAF80200B0FA80F0400991
:10C440000028E7D14FF0030904F10C0AE2E7236862
:10C45000607BDB680822A11803EB0030E8E7B9F144
:10C46000000F0BD1A068FFF717FEA860428847F6BF
:10C47000FF739A4202D07846FAF768FEAB691BB1A7
:10C480004A465146284698472046FFF789FDFFF760
:10C49000A5FD0023E9E6EB69002BF5D04A46E189CA
:10C4A00028469847F0E72B78012B02D07846FAF718
:10C4B0004DFE237B627B013B9A42E5D102232B7028
:10C4C000E2E7B9F1000F02D07846FAF73FFE2B7889
:10C4D000012B1CBF00232B702B6A002BD4D02846C5
:10C4E0009847D1E79E3E0020B4C50300BCC50300B9
:10C4F000A03E0020A43E0020064B1B88934207D19B
:10C50000054B1A78022A03D103221A70FFF7F6BDF1
:10C51000704700BF9E3E0020883E002008B54FF4C3
:10C5200082720F490F48FCF742F90F490120FDF7CD
:10C53000C1FA0E48FEF79EFC0D4B0E4A1860002310
:10C5400013700D4A0D481380FDF74EFDFCF722FDD8
:10C550000B4B10B103221A7008BD0222FBE700BF8B
:10C56000843D0020783D0020F9C40200FDC0020097
:10C57000943E0020883E00209E3E00208C3E0020FD
:10C580009C3E002010B504460820FFF761FD0423FF
:10C5900040B1237003710460FFF76CFDFFF776FD77
:10C5A000002010BD1846FCE72DE9F04F87B081460A
:10C5B00003910192049310B97846FAF7C7FD012060
:10C5C000FDF70EFBFCF772FD0024031D0546274610
:10C5D0004FF00108029347F6FE6BD9F81010A14204
:10C5E00002D9B8F1010F06D00020FDF7F9FA38465C
:10C5F00007B0BDE8F08FD9F80C30286803EB04329F
:10C60000904202F5805604F1010426D1A14205F5BD
:10C61000805A20D0327816447188013989B2594540
:10C6200035D900F5005230460592FFF735FD059AE1
:10C63000824210D986420ED24188013989B25945C9
:10C64000F2D82E79029B42885146981900F0E6FCF8
:10C65000002818BF8246029A5646137802EB030A56
:10C66000B245BADAB8F1010FB7D10399BAF80200AE
:10C67000FFF76CFC30B1019B01371BB104995046A8
:10C68000984780465046FFF707FD8246E8E7304668
:10C69000D7E700007FB5E8B1E2B1DBB14C1EA4B230
:10C6A00047F6FE66B44217D80478023C012C15D830
:10C6B000CDE901230523ADF8021003934FF6FF7473
:10C6C00001AB074AADF800406946FFF76DFF0398DC
:10C6D00004B070BD0E20FBE70720F9E70820F7E75C
:10C6E00019C0020070B50D46044610B97846FAF735
:10C6F0002DFD0023294620461A46BDE87040FFF76D
:10C7000053BF70B50E461446054610B97846FAF781
:10C710001DFD731E9BB247F6FE62934206D947F693
:10C72000FF739E4202D07846FAF710FD802C02D9A2
:10C730007846FAF70BFD2B780BB9002070BD04F199
:10C740001000FFF785FC0028F7D00334A40800236D
:10C7500001340371C681848140F80C5BEEE7000070
:10C76000094B984210B5044603D303F582739842EF
:10C7700002D97846FAF7EAFCA4F10C00FFF77AFC3C
:10C78000BDE81040FFF782BC843D002038B50C4660
:10C79000054610B97846FAF7D9FC631E9BB247F6F6
:10C7A000FE62934206D947F6FF739C4202D0784658
:10C7B000FAF7CCFC1020FFF74BFC60B101220271AC
:10C7C0004FF6FF72C48182810560FFF753FCFFF7CB
:10C7D0005DFC002038BD0420FCE700002DE9F84393
:10C7E000002303700B68C3F30B0304460D4613B11B
:10C7F0007846FAF7ABFC6B68FE2B02D97846FAF75D
:10C80000A5FC04F10C0718222946384600260FF033
:10C8100098FAC4E9016623699E4257D32046FCF783
:10C82000FFFB064600287CD1E5682846FFF788FB19
:10C830002B7880461D4447F6FF796B88C3F30E02C0
:10C840004A4572D166602046FCF7EAFB10B1784693
:10C85000FAF77CFC3846FFF739FCA060002873D15A
:10C86000E3681A7813444FF6FF725988914200D159
:10C87000A360022323702046FCF7D2FB10B1784658
:10C88000FAF764FCE5682B781D44A3689D424AD200
:10C890002846FFF701FCA3689842064668D16A88DB
:10C8A000531E9BB247F6FE618B423CD8E368187872
:10C8B0002946184400F0B2FB002834D0A84232D0F8
:10C8C00041882046BDE8F843FFF760BF3503E368C1
:10C8D0005A195B5D083BDBB2F62B15D85379FF2B59
:10C8E00012D01279FF2A0FD09E4202D07846FAF772
:10C8F0002DFCE3682B441A7923699A4202D07846CA
:10C90000FAF724FC013686E701233B4F237000250C
:10C9100023699D4231D3FFF7B9FBE3680833A36075
:10C9200001E003232370002018E013B92B8806EBE5
:10C9300083062846FFF7B0FB804505463FF67DAFEE
:10C940007846FAF703FC78E7428847F6FF739A4285
:10C950008FD00820FFF77CFB10B90420BDE8F883D6
:10C96000032202710460FFF785FBFFF78FFB80E76E
:10C970003046FFF791FB35468DE7E0682E033044E3
:10C9800040F6FC710430FFF7F4FA90B11020FFF785
:10C990005FFB0028E1D002220271876045732269A3
:10C9A00002734FF6FF72C2810460FFF763FB01352B
:10C9B000AEE7E3689A199B5D083BDBB2F62B05D81E
:10C9C0005379FF2B02D01379FF2B02D17846FAF767
:10C9D000BDFBE36833445B799D4202D07846FAF7A9
:10C9E000B5FBE3681E44236932799A42DFD078466A
:10C9F000FAF7ACFBDBE700BF0804101010B50446E3
:10CA000010B97846FAF7A2FBA36813B97846FAF78B
:10CA10009DFB236833B9246021460348BDE81040DC
:10CA2000FDF7ECBA10BD00BF8C3E002008B50648EB
:10CA3000FCF759F820B1FCF70FFB80F00100C0B201
:10CA400000F0010008BD00BF783D002038B5044665
:10CA500098B1C5682846FFF773FA2B78014647F668
:10CA6000FF72E81800F0DAFAA06010B97846FAF719
:10CA70006DFB0223237000236360054B05490222EE
:10CA800001201A70FDF716F8BDE83840FFF7FEBA2E
:10CA90009C3E0020F9C40200FCF708BB38B50546EF
:10CAA000044C20B1236813B17846FAF74FFB256098
:10CAB00038BD00BF983E002030B503B930BD013B02
:10CAC0009BB2CC5CD55C6C40C454F6E746DF704743
:10CAD0002DE9F843858907468846012401F120099C
:10CAE0000DB9BDE8F88363BAA8F81E304046FFF7D9
:10CAF000EDFF102D04F1FF3CB968B8692E464FEAEE
:10CB00000C1C28BF102633464A4661446044AD1BC6
:10CB10000134FFF7D1FFADB2A4B2E1E72DE9F04750
:10CB200007460E461446994600F1100500F120080C
:10CB30000CB9BDE8F087C9F1100A544505EB0900AE
:10CB400018DA224631460FF0FCF804EB0900C0F178
:10CB50001002002128440FF0FFF8002410232A4679
:10CB600041462846FFF7A8FF3846FFF7AFFF4FF0D2
:10CB70000009DDE7103C3146524619FA84F40FF003
:10CB8000E0F8A4B25644E9E770B5838A002B90F828
:10CB900020300D46A3F102034FF0020193FBF1F3A5
:10CBA0004FEAC30303F03803164643F0010314BFF2
:10CBB00040220022134304462B7441680D2205F1E4
:10CBC00011000FF0BEF8A289130A43EA0223EB8397
:10CBD0002846FFF77BFFA38A83B1B3F57F4F02D3CB
:10CBE0007846FAF7B3FAA28A130A43EA02232B82A1
:10CBF000A28A216902232846FFF790FFA28922B169
:10CC00000023A1682846FFF789FF94F8202005F14A
:10CC100020013046BDE870400FF093B830B50446AF
:10CC20008DB00168102268460FF08BF8E269694602
:10CC30002046FFF7A9FFE569616801230D220DF188
:10CC400011008DF810300FF07CF800236846ADF825
:10CC50001E30FFF73BFF94F8203008AA29462846EB
:10CC6000FFF72AFF69462046FFF732FF0DB030BDBF
:10CC700070B590F82030102B90B004460D4602D9C4
:10CC80007846FAF763FA102221680DEB02000FF0E4
:10CC900058F8A3897BB1012361688DF820300D22FB
:10CCA0000DF121000FF04DF8002304A92046ADF846
:10CCB0002E30FFF70DFFA369A668A3606A4604A99A
:10CCC0002046FFF761FF616801230D220DF121006D
:10CCD0008DF820300FF035F8002304A8ADF82E3081
:10CCE000FFF7F4FE94F820300CAA69466846FFF777
:10CCF000E3FEA66094F82020E16968460FF012F880
:10CD0000B0FA80F04009287010B070BD70B50B4CBF
:10CD1000038825889D42064606D001339BB29D427A
:10CD200002D07846FAF712FA30882368854238BF75
:10CD300003F1FF331B0C1B04184470BDA83E0020F8
:10CD40002DE9F8430378022B0DD1FCF70DFD114EB0
:10CD5000DFF848800546002400F1FF3933689C4223
:10CD600003D30D4B1D60BDE8F88308EBC407B81D65
:10CD7000FFF7CCFF85420BD0484509D03368013B13
:10CD8000336008EBC30393E8030087E80300E5E79B
:10CD90000134E3E7AC3E0020A83E0020B03E002076
:10CDA00008B5FCF7E1FC014B186008BDA83E002067
:10CDB0002DE9F8431A4D1B4E2B68884691460024F6
:10CDC000A3420CD1282B29D0164A02EBC30142F80A
:10CDD000338001338880A1F806902B6015E0E700CE
:10CDE000F2199188814217D1901DFFF78FFF81457D
:10CDF0000ED156F83400804594BF0020012028B1A0
:10CE0000374446F83480A7F806900020BDE8F88340
:10CE10008CBF01200020F2E70134D1E70420F5E7C0
:10CE2000AC3E0020B03E0020F8B5114B114E0C4630
:10CE3000196817460025A94201D1002011E006EB30
:10CE4000C5039A88824211D1981DFFF75FFF874280
:10CE500008D156F83500844294BF0020012080F0AC
:10CE60000100F8BD8CBF01200020F8E70135E2E7A2
:10CE7000AC3E0020B03E0020034B044800214FF49C
:10CE8000A07219600EF068BFAC3E0020B03E0020DA
:10CE900008B50348FDF794F8BDE80840FFF7ECBF7C
:10CEA000002E00202DE9F041884616461F46044614
:10CEB000B0B1C2B1013B1B2B15D8FF2913D0BD1C4B
:10CEC000EDB2691C01F0A0FF044648B12B23457464
:10CED000837480F813803A46314614300EF031FFE7
:10CEE0002046BDE8F0810024FAE70000F0B50E46C8
:10CEF000C7B01746054610B97846FAF727F9002E4D
:10CF00007AD02C78711EC9B2002C57D0012C5CD07D
:10CF10003A4C2268D20519D5394B1B68012B15DD17
:10CF20002F2138480EF0E8FF002853D02F21354834
:10CF30000EF0E2FF411C344B2A78D3F804350192FD
:10CF4000324A009202206D22FEF7EEFF2368DB05D5
:10CF500032D52B4B1B68032B2EDD2D4B802E1968F1
:10CF600028BF8026002305AC15F8012F100902F018
:10CF70000F02085C04F81300885C04EB43020133E1
:10CF80009E425070F0D100232F211E4804F8163025
:10CF90000EF0B2FF38B32F211A480EF0ADFF411C3E
:10CFA000194B1C4AD3F8043501921B4A0092029493
:10CFB0006E220420FEF7B8FF0B2004E03A46681CFE
:10CFC00003F0D4FD002047B0F0BD3A46681C00F0E5
:10CFD0008FFDF7E75C210B480EF08EFF08B15C2156
:10CFE000A5E70849A7E75C2106480EF085FF08B1D0
:10CFF0005C21D1E70349D3E70920E4E7F42D0020C1
:10D00000F02D0020C0C5030000100140DAC5030068
:10D01000F82D002000C603000EC1030088422DE950
:10D02000F84307460E46904602D97846FAF78EF83E
:10D030003C46DFF85C901AE0238804EB83039E42B1
:10D0400021D9238813B97846FAF780F8238804EBAE
:10D05000830333EA090203D06288B2F5FE4F01D19F
:10D060002B782B449E420ED99F421C460BD26388DC
:10D07000434509D004EA090505F58055B542E0D3DA
:10D08000B3F5FE4FD8D100242046BDE8F88300BF99
:10D0900000F0FFFF014B1860704700BFF43F002015
:10D0A0002DE9F0410F46054610B97846FAF74EF8DB
:10D0B00017B97846FAF74AF82B78012B02D9784647
:10D0C000FAF744F81E4C236A13B17846FAF73EF893
:10D0D0006B681D2B02D97846FAF738F82B78012BAC
:10D0E00009D1EB685A1C06D003F50073012B02D955
:10D0F0007846FAF72BF8134B1E684FF0010846B933
:10D10000236A1BB16B6823700F4B3B60206ABDE83C
:10D11000F08116F8032C2B691A42A6F108000CD0F6
:10D1200056F8083C29461B68984730B916F8043C65
:10D13000226A08FA03F3134323623668DFE700BF6D
:10D1400034530020F83F002035530020F8B50F4D30
:10D150002B6A13B97846F9F7F9FF0D4B0D4F1C6890
:10D1600001260CB92C62F8BD14F8043C2A6A06FAB0
:10D1700003F31342A4F1080005D054F8083C2A78C0
:10D180005B68394698472468EBE700BF34530020BA
:10D19000F83F00203553002070B50D4D2B6A13B9B0
:10D1A0007846F9F7D3FF0B4B1C6801260CB92C62AB
:10D1B00070BD14F8043C2A6A06FA03F31342A4F182
:10D1C000080003D054F8083C9B6898472468EDE7B2
:10D1D00034530020F83F00202DE9F0410E46174659
:10D1E0009846054610B97846F9F7B0FF064B1C681B
:10D1F0003CB143463A4629793046A446BDE8F04161
:10D200006047BDE8F08100BFF43F0020F8B50E464E
:10D210001746044610B97846F9F798FF16B97846CC
:10D22000F9F794FF1FB97846F9F790FF01E0FF2F57
:10D23000F9D0336813B97846F9F788FF736813B9E2
:10D240007846F9F783FFB36813B97846F9F77EFF9C
:10D25000094D2B781F2B02D97846F9F777FF2B78E9
:10D2600026605A1C237167712A7004F10801034873
:10D27000BDE8F840FEF7BCBDF03F0020F83F0020BD
:10D2800007B540F20713B3EB104F019002D0784678
:10D29000F9F75CFF03481422002103B05DF804EBAA
:10D2A0000EF05ABD0840002013B540F20713B3EB4F
:10D2B000104F01900C4602D07846F9F747FF044919
:10D2C0001422204602B0BDE810400EF03ABD00BF67
:10D2D00008400020F7B540F20713B3EB104F019060
:10D2E0000F4602D07846F9F731FF3888FCF7B0FCDA
:10D2F00002284AD07B68B3F5004F03D94FF6FF727E
:10D30000934242D1BB68B3F5803F3ED897F90C30C9
:10D31000002B3ADB3E460FCE1D4C25460FC5336829
:10D320002B603A88234612B9C4E901222273194AB4
:10D3300014785A68E4B14FF6FF70111A4A424A4114
:10D34000E2B19A68D2B1144BB4B1B2F5E16F1446B0
:10D3500028BF4FF4E164121B1A60FDF771F80F4902
:10D3600001FB04010E48FDF742F8002003B0F0BDB8
:10D37000003218BF0122E3E71C60EEE700240848F2
:10D38000C3E90144FDF71CF8EFE70720EEE700BF13
:10D3900008400020504000203440002040420F0050
:10D3A0003840002030B50C4DAC688DB08CB90B48BE
:10D3B000FDF706F82C22214601A8AC600EF0CCFC4B
:10D3C000062301A88DF804300295FBF799F90DB0FA
:10D3D00030BD013CAC60FAE7204000205440002002
:10D3E00010B503780A2B8CB039D11E4AC489138832
:10D3F000A34234D1418A5388994230D18368032BA8
:10D400002DD193685BB35368B3F5004F3CBF013334
:10D4100053604168007F05238DF804300B7803F0DA
:10D420007F038DF808300B78C0F1010003F07F0313
:10D430000344DBB28DF809308978ADF80C4001F077
:10D440000F01ADF80A1091899BB29942D18988BF2A
:10D45000938101A8994238BFD381FBF751F90CB0F1
:10D4600010BD00BF2040002070B5294C23888EB02D
:10D47000002B4BD0274D2A6812B97846F9F766FE83
:10D480002B6868469847054600283FD102AE032224
:10D49000014630460EF060FC9DF80830227B8DF886
:10D4A000095023F07F0302F07F0213438DF8083008
:10D4B000194B1B788DF80A30019B13B97846F9F7A0
:10D4C00045FE0A238DF8143000238DF82030208883
:10D4D000BDF80030ADF82230ADF82600FCF7B8FBFF
:10D4E000019B0B9303230793237B8DF824008DF876
:10D4F00030306FF00201FF2305A80D930696FAF76E
:10D5000061FD064B003018BF012018700EB070BDD1
:10D51000084000206C400020304000205140002096
:10D520000378012B04D1034B1B780BB1FFF79CBF91
:10D53000704700BF5140002038B5114D114C2B8869
:10D54000DBB16B68CBB1226852B94FF6FF729342E0
:10D550001CBF03F1FF336B60FFF786FFAB682360EE
:10D560002368094AB3F5E16F194628BF4FF4E1611A
:10D570004A435B1A2261236001E00023236138BD26
:10D58000084000203440002040420F0017B40191B1
:10D59000C1F30741012914D198B90C4814780378D4
:10D5A000D94301F0010294420BD183F001030370CF
:10D5B000074BDB89DB0704D503B05DF8044BFFF7AD
:10D5C00053BF03B05DF8044B704700BF30400020EC
:10D5D0000840002008B501210B48FBF763F810B1A3
:10D5E0007846F9F7B3FD094B094ADA60094B0A4A54
:10D5F0009A600A480A4ADA600A4B0360FBF7AAF805
:10D60000094B01221A7008BD1CC6030034400020DB
:10D6100039D5020054400020A5D30200FC3F002071
:10D6200040420F0021D5020050400020F0B50546D1
:10D6300091B010B97846F9F789FD0DF102016846FD
:10D6400009F0D4FEAB68B3F5803F02D9072011B0D2
:10D65000F0BD2888FCF7FCFA01282FD16888FCF778
:10D66000F7FA48B16888FCF7F3FA032804D06A880F
:10D67000BDF800309A42E9D11E4C94E80F0001AE8B
:10D6800086E80F00AB68FBB900231B482360A3604A
:10D69000FCF796FE2C22002105A80EF05DFB062368
:10D6A0008DF81430BDF80630002B08BF002605A801
:10D6B000CDE90664FBF724F80020C8E72888FCF7CA
:10D6C000C7FA0028CAD0C1E729880029DCD06A88B7
:10D6D000002AD9D0084DA36021806280EF68FCF752
:10D6E000AFFE39182846FCF782FE7F23E360002353
:10D6F0006360CFE72040002054400020004870477E
:10D70000204000200048704708400020034B0022C2
:10D710001A70034B0146186800F046BC50400020C8
:10D7200016C60300034B186010B97846F9F70EBD12
:10D73000704700BF6C40002007B5094B01900122E3
:10D7400008481A7001F046FBFCF77AFE064BD968D0
:10D750000144184603B05DF804EBFCF748BE00BF77
:10D7600050410020704000205441002013B501902A
:10D77000000CB0F5837F0C4602D07846F9F7E6FC42
:10D78000024B1B78237002B010BD00BF5041002037
:10D7900037B50190000CB0F5837F0C4602D0784677
:10D7A000F9F7D4FC25780E4C22787AB955B10D489A
:10D7B00001F010FBFCF744FE0B4BD96801441846FE
:10D7C000FCF715FE0020257003B030BD002DF9D107
:10D7D000044801F014FB0448FCF7F2FDF2E700BF37
:10D7E0005041002070400020544100207FB5089C2B
:10D7F00006461D462078531E5A425A4161F30000E6
:10D8000062F34100024620466FF3870206F11001E1
:10D8100000F8012B2DBA08220EF093FA6B46214630
:10D820003046C4F809500D22FDF76FFC0822694606
:10D8300004F10D000EF085FA04B070BDF0B595B09E
:10D8400005460DF137025749564C574F002009F055
:10D85000E7FC26462268002A00F09180516808887B
:10D86000142300FB03335B089BB2B3F5167F28BF7C
:10D870004FF416730A2B38BF0A238B8052689378B3
:10D880000133DBB2022B937006D123685A68002360
:10D890009370226852681380336859688B68EA1A5B
:10D8A00048BF5A1B8B887B43934273D8FBF75CFFBE
:10D8B0000446FBF775FF9DF837103368A1F1020CA1
:10D8C000022902460EAF0CBF03F1200003F108004D
:10D8D000DCF1000141EB0C0123460097FFF786FFC6
:10D8E000012115233A463148FFF7DCFA01460028AA
:10D8F00045D0012303712D4801F0C1FA2C4B1B6860
:10D900009B0739D52B4B1B68042B35DD2F212A486B
:10D910000EF0F2FA002834D02F2127480EF0ECFA4E
:10D92000411C9DF83820254B02F00100C2F3400253
:10D93000D3F8043509929DF8402008929DF83F20C5
:10D9400007929DF83E2006929DF83D2005929DF895
:10D950003C2004929DF83B2003929DF83A200292CD
:10D960009DF839200192164A0A900092052040F253
:10D9700001120B94FEF7D8FA33685B689D6015B00E
:10D98000F0BD5C210C480EF0B7FA08B15C21C4E789
:10D990000949C6E70DF137022146002009F040FC95
:10D9A00058E700BF6C41002040420F00704000204B
:10D9B000F42D0020F02D002028C6030000100140A7
:10D9C00046C6030008B5FCF73BFDBDE80840FFF77D
:10D9D00035BFFFF733BF10B586B002AB0D220C4642
:10D9E000FDF793FB08220DEB020168460EF0A9F942
:10D9F000082204F10D0168460EF094F9B0FA80F0A7
:10DA0000400906B010BD000013B5154A154C00239F
:10DA100013600421144AE2600DEB0100134AA26076
:10DA20002361FCF71BFEFCF70BFD0199E268B1FBDB
:10DA3000F2F302FB1313184460600D4C0D4A0E49BB
:10DA40003423204601F0C6FA20464FF47A7101F0E3
:10DA50006CFA0A4A0A480421FDF7BBFB02B010BD6C
:10DA60006C4100205441002080969800D3D90200D8
:10DA7000704000200C410020C5D902004041002028
:10DA800089C6030010B5064C23783BB9054801F060
:10DA9000A1F90548FCF772FC0123237010BD00BFFB
:10DAA0005041002070400020544100201FB504A9BF
:10DAB00001F8090D044800F077FA10B17846F9F73B
:10DAC00045FB05B05DF804FB0300060107B50748F8
:10DAD0000DF1030100F0A8FA10B17846F9F736FB12
:10DAE0009DF8030003B05DF804FB00BF03000601CE
:10DAF0002DE9F04717469AB0044610B97846F9F771
:10DB000025FB00230E93504BD4F809601B689B073C
:10DB100036BA30D54D4B1B68042B2CDD2F214C48D9
:10DB20000EF0EAF9002836D02F2149480EF0E4F92A
:10DB3000411C484BD3F804350B96227802F00100C3
:10DB4000C2F340020A900992227A0892E27907927F
:10DB5000A27906926279059222790492E278039280
:10DB6000A2780292627801923B4A009205204FF41B
:10DB7000D572FEF7D9F9651C0DF137020EA92846BA
:10DB800009F04EFB4FF6FF784FF004090E9B5BB98E
:10DB90001AB0BDE8F0875C212D480EF0ADF908B150
:10DBA0005C21C2E72A49C4E75B6813B97846F9F7F4
:10DBB000CDFA0E98082200F1080A294618300EF016
:10DBC000B1F850BB21465046FFF705FF28B30E9B26
:10DBD00008330E9A51680A8842451CBF01320A80F8
:10DBE00021468DF83C9011F80D2B1496C2F340009D
:10DBF000C2F300028DF855200E9A8DF854000FA83C
:10DC0000CDE91023CDE91271FAF77AFD0DF1370253
:10DC10000EA9284609F004FBB8E79DF83730002B21
:10DC2000F4D00E98082200F1200A294630300EF078
:10DC300079F80028EAD121465046FFF7CCFE0028AB
:10DC4000E4D00E9B2033C4E7F42D0020F02D0020FB
:10DC500028C60300001001408EC603002DE9F341E1
:10DC60000F4C104E019205460F469846A64202D12F
:10DC700002B0BDE8F08122682B68118818888842BC
:10DC80000CD151885B888B4208D8EA881A448A42B2
:10DC900004DD424601996368384698470834E5E751
:10DCA000A4D60300ACD6030038B503685C88C388EB
:10DCB0000C1B9C42054602D37846F9F747FAA8693F
:10DCC000204438BD37B585B20190020C094C0A4892
:10DCD000844202D1002003B030BD03681988A942F4
:10DCE00006D15988914203D8C3880B449342F2DC91
:10DCF0001C30EDE7A4D60300E0D5030070B58EB06C
:10DD00000E4601901546FFF7DDFF044688B1838873
:10DD1000AB4222D8C368019831469847F8B9BDF89C
:10DD200006102046FFF7C0FF0223037001200EB04B
:10DD300070BD02242C22002103A80EF00DF80198DA
:10DD4000CDF81200142303A88DF80C308DF8104084
:10DD5000CDE90665FAF7D4FCE8E70024EAE70124F8
:10DD6000E8E700002DE9F041304C314E314FDFF84B
:10DD7000CC8092B0A4F11C039E4202D112B0BDE847
:10DD8000F08154F81C3C1A882B4BBB4205D17846D5
:10DD9000F9F7DCF900239B78FFDE1988914201D066
:10DDA0000833F2E79B78012B07D0022B01D01C34FB
:10DDB000E0E798F80030002BF9D000252BE054F86C
:10DDC000043C5A5D02F00503012B23D154F81C3C9E
:10DDD00018685B8801902B4492079BB220D5ADF860
:10DDE000063054F80C2C019802A9904734F8182CEE
:10DDF000019802A900F02CFA0028BFD154F8042C95
:10DE0000535D23F00103535554F8042C535D43F044
:10DE100004035355013534F8163CAB42CFD8C6E75E
:10DE2000ADF80630019800F03AFAE5E7FCD50300BA
:10DE3000A4D60300B4D60300ACD603007041002082
:10DE40002DE9F341204C214EA4F11C07A4F11C083C
:10DE500046450FD11E4A1F4B1F4900919B1AF61BC6
:10DE6000DB081E481C21B6FBF1F100F063F902B09B
:10DE7000BDE8F08154F81C3C34F8162C5B88134440
:10DE8000B3F5803F02D37846F9F760F9134DB542F8
:10DE900001D11C34DAE74545FBD054F81C2C2B6823
:10DEA0001088198888420DD150885988EA880A4418
:10DEB000904207DA34F8163C0344994202DA784675
:10DEC000F9F744F91C35E2E7FCD50300A4D60300BA
:10DED000ACD60300B4D6030021DF0200E0D5030076
:10DEE000014800F0F7B900BFFDDC020010B50A4B95
:10DEF0000A4898420ED0D988002205E09C69A45CAB
:10DF000014F0050F04D101329142F7D81C33F0E729
:10DF1000012010BD0020FCE7E0D50300A4D60300DB
:10DF200030B504468DB0D0F80200FFF7CBFE0546B1
:10DF300010B97846F9F70AF92846A188FFF7B4FE28
:10DF400003785B07054602D47846F9F7FFF82B788B
:10DF500023F004032B702378022B0DD12C220021F7
:10DF600001A80DF0F9FED4F802000290132301A8D5
:10DF70008DF80430FAF7C4FBFFF7B8FF014618B17B
:10DF8000FFF7F0FE0DB030BD064B2C22187001A833
:10DF90000DF0E2FE122301A88DF80430FAF7B0FB71
:10DFA000F0E700BF70410020F0B585B00E4601904B
:10DFB00089B3FFF787FE054678B30198EB680390B5
:10DFC0003146BDF806709847044608BB39462846D6
:10DFD000FFF76AFE0378124A43F0030303702B68CD
:10DFE00010481F882346D118884203D17846F9F794
:10DFF000ADF805E00833D11831F8081CB942F2D168
:10E00000FFF7B0FE3346039A00212846FFF726FEAD
:10E01000204605B0F0BD0E24FAE70524F8E700BF5E
:10E02000ACD60300B4D6030037B50D460190A9B1B4
:10E03000FFF748FE044698B1037A33B1019823698B
:10E0400029469847002003B030BDBDF80610FFF701
:10E050002BFE03789B07F1D40820F4E70E20F2E7AB
:10E060000520F0E713B50190FFF72CFE0446D0B170
:10E07000BDF80610FFF718FE03789A0715D523F0B0
:10E08000020343F00103037063690BB101989847E1
:10E09000FFF768FE20460023019A0121FFF7DEFD0D
:10E0A000002002B010BD0520FBE70820F9E70000C2
:10E0B0000F4B73B501220F4C0F4E1A70A4F11C03C5
:10E0C0009E4213D102B070BD54F81C3C18685B88A6
:10E0D00001902B44ADF806300198FFF7C3FF0135DE
:10E0E00034F8163CAB42EFD81C34E7E70025F7E7DD
:10E0F00070410020FCD50300A4D603007047000047
:10E1000030B50A4B1C680A4B196800239C4201D1A8
:10E11000002207E031F83350854201EBC30203D1FE
:10E1200053681880104630BD0133EFE7744100207A
:10E130007C4100202DE9F84FDDF8288089461746FC
:10E140009A46044610B97846F9F700F8B9F1000F7D
:10E1500002D17846F8F7FAFF17B97846F8F7F6FFD4
:10E16000BAF1000F02D17846F8F7F0FF344E354887
:10E1700037600023344D354F2B60984518BF40461B
:10E18000C7F800A000F01EF91C2303FB09494C4509
:10E190000AD100220023D7F800E030681C467345FE
:10E1A0003DD14CBBBDE8F88F23681888FFF7A8FF66
:10E1B000804608B1436813B97846F8F7C7FFD8F826
:10E1C0000430A088B3F802B000F082F9B4F806A0D9
:10E1D00000FB0ABABAF5803F02DB7846F8F7B6FFD3
:10E1E000D8F80430A3F802A0D8F80420E188938876
:10E1F0000B4493801C34CAE7A37833B1606800F005
:10E20000F5F810B17846F8F7A1FF204600F065F95F
:10E210002B68228818440132286092B2BAE730F89D
:10E2200033C0944500EBC30108D324B1B4F8008097
:10E23000E04598BF214601330C46B0E72146FAE796
:10E240007C410020FDE00200784100207441002064
:10E2500073B5164601900D4611B97846F8F776FF6A
:10E2600016B97846F8F772FFBDF80400FFF748FFCB
:10E27000044610B97846F8F769FF63685B8813B9FC
:10E280007846F8F763FF6368BDF80620DA806068B7
:10E290003246294602B0BDE8704000F0D3B813B54D
:10E2A000019080B2FFF72CFF044610B97846F8F7CA
:10E2B0004DFF63685B8813B97846F8F747FF6368DA
:10E2C000BDF80620DA80606802B0BDE8104000F0BA
:10E2D000CFB80000F8B5054610B97846F8F736FF14
:10E2E000084E094F00243368A34200D8F8BD3B68AC
:10E2F00003EBC4039A781AB12946586800F0D0F8A5
:10E300000134F0E7744100207C41002007B54B68E0
:10E310004288DA804B681B88ADF80430438830F8B7
:10E32000042BADF8063002F18042013A0B689200EE
:10E33000014601989847024B185C03B05DF804FB56
:10E34000D1C6030007B5002A0CBF002302238DF8B5
:10E35000003030F8083CADF802304B88ADF804309E
:10E36000034B68461B68984703B05DF804FB00BF89
:10E370008441002007B5002A0CBF012302238DF839
:10E38000003030F8083CADF80230044BADF8041012
:10E390001B686846984703B05DF804FB8441002081
:10E3A000704700B58DB02C22002101A80DF0D4FCDF
:10E3B0000E2301A88DF80430FAF7A2F90DB05DF82C
:10E3C00004FB000008B5064B00221A70054B1860CC
:10E3D000FEF7A4F80448BDE80840FEF75FBB00BFA5
:10E3E0008041002084410020A3E3020070B5114E5B
:10E3F000448840F6F87304F6F774B4FBF3F433780A
:10E4000086B023440546337006F04FFF3378A0EB07
:10E4100003306B880293084B0393084B0493CDE9B8
:10E420000004074B0593694605F10800FEF7D6F98D
:10E4300006B070BD8041002045E3020075E3020094
:10E44000A1E3020070B508300D4630F8021C1646F4
:10E45000FEF757F9044648B13246294604300DF01C
:10E4600070FC2046FEF77CF9002070BD0420FCE71C
:10E4700037B54FF6FF7300F108050446ADF80430D8
:10E4800001A9C388ADF806302846FEF72BF928B15C
:10E49000E1882846FEF77AF903B030BD0520FBE796
:10E4A00037B50D46044610B97846F8F74FFE15B952
:10E4B0007846F8F74BFE6B46044A002104F1080049
:10E4C000CDE90054FEF770F803B030BD0DE3020053
:10E4D000C31D4FF6FC70184070478378022B0DD196
:10E4E00043689A88588864235343033003F5FA73CA
:10E4F0004FF4A972800802FB00307047002070477B
:10E50000094B834210B502D07846F8F71FFE074C3E
:10E51000236813B97846F8F719FE206800F0ABFAC3
:10E520000023236010BD00BF88410020A0410020CF
:10E53000114B834270B50E46154602D07846F8F767
:10E5400005FE0E4C23681B69AB4202D27846F8F7F1
:10E55000FDFD20682A46314614300DF0F2FB21689B
:10E560000748FBF74BFD00232360064BBDE87040D6
:10E570001868FCF79DBC00BF88410020A041002026
:10E58000944100209C410020F0B587B01822002162
:10E5900068460DF0E1FB032312488DF80030FBF7CD
:10E5A00047FD114D0F4E044614B9012007B0F0BDD0
:10E5B000E368277A0193FBF743FFE3680246394695
:10E5C0002846FEF709FE21696A4604F11400FCF7AB
:10E5D000CFFF3046FBF72CFD0746204600F04BFAF4
:10E5E0003C46E1E794410020884100200F4B8342E4
:10E5F00070B50D4602D07846F8F7A8FD2B699B064A
:10E6000010D50B4E34686CB96868143000F031FADC
:10E61000306048B12B780372EB68C3606B680361AC
:10E62000204670BD0120FCE70220FAE78841002067
:10E63000A041002008B50748FCF71CFC064B074921
:10E64000186020220648FEF7E1FD0648BDE80840B4
:10E65000FBF7CABC89E502009C410020D4C6030038
:10E66000884100209441002037B5C0F30745012DB3
:10E6700001900C4602D97846F8F768FD084AA020B8
:10E680006843131819792170125862705B6F4FF448
:10E690007A7203F5FA73B3FBF2F3638003B030BD13
:10E6A000B041002037B5C0F30744023CE4B2012C6E
:10E6B00001900D4602D97846F8F748FD0448A0239A
:10E6C00003FB040494F82C302B7003B030BD00BF62
:10E6D000B041002073B5C0F30745012D019002D968
:10E6E0007846F8F733FD0E4CA0226A43161D2244EB
:10E6F0002644127912B9304600F06CFB012D1CBF84
:10E70000A0235D434FF0140118BF012330460CBF16
:10E71000C4F8A050635102B0BDE8704000F005BCE1
:10E72000B0410020F7B5C0F30746012E01900D4619
:10E7300002D97846F8F70AFD6B78013B072B22D8FF
:10E740006B88143BB3F5917F1DD8104F2978A02416
:10E7500074433A19043412793C4471B112B9204619
:10E7600000F038FBA02070436B783B50204669884E
:10E7700000F0DBFB002003B0F0BD002AF2D0204601
:10E7800000F03DFBEEE70720F5E700BFB0410020B9
:10E7900013B5C0F30744023CE4B2012C019002D946
:10E7A0007846F8F7D3FC0548A02303FB04000021BA
:10E7B000043002B0BDE8104000F0D7BBB0410020EB
:10E7C00037B5C0F30744023CE4B2012C01900D467A
:10E7D00002D97846F8F7BAFC05482978A02303FB4C
:10E7E0000400043000F0C1FB002003B030BD00BFC6
:10E7F000B04100201FB5C0F30744043CE4B2012C33
:10E80000019002D97846F8F7A1FC02A800F0C6FBF7
:10E810000448A02303FB040002A9043000F067FBB6
:10E8200004B010BDB041002073B5C0F30744043CF0
:10E83000E4B2012C01900E4602D97846F8F786FC26
:10E84000307810F0FC050AD10648A02303FB040031
:10E850000430314600F04BFB284602B070BD072063
:10E86000FBE700BFB041002037B5C0F30744043CCC
:10E87000E4B2012C01900D4602D97846F8F766FC07
:10E880000549A02000FB041107226C31284603B083
:10E89000BDE830400DF055BAB04100200C4B83422A
:10E8A00010B502D07846F8F751FC0A4C636813B9EA
:10E8B0007846F8F74BFC084B20786168A02202FBF1
:10E8C0000030043000F004FB0023636010BD00BF83
:10E8D000A4410020F0420020B0410020124B8342AE
:10E8E00070B50E46154602D07846F8F72FFC0F4C4F
:10E8F000636813B97846F8F729FC60682A238374A3
:10E900006B1C43742A46314613300DF01AFA084B3B
:10E9100020786168A02202FB0030043000F0AFFADA
:10E920000023636070BD00BFA4410020F0420020BE
:10E93000B0410020F8B5124B83420D4602D0784614
:10E94000F8F704FC0F4C636813B17846F8F7FEFB48
:10E9500028780D4F6968A02606FB0070023104304C
:10E9600000F052FA606048B1EB6803602B785E43B8
:10E97000BB5903712B7823700020F8BD0220FCE7FF
:10E98000A4410020F0420020B0410020044BC01AF6
:10E99000044B401158430B46C1B20348FEF71CBC60
:10E9A000B4410020CDCCCCCCA4410020012882B0C1
:10E9B0000AD8032300F58070ADF80430ADF80600E6
:10E9C000019802B0FFF7F0BA072002B070470128A3
:10E9D00082B00AD8032300F58070ADF80430ADF89A
:10E9E0000600019802B0FFF71FBB072002B0704776
:10E9F00070B5114C114A12492546012645F8046BA1
:10EA00004FF48073284600F0E5FA284600F0E2F95A
:10EA1000A43444F8046C0B4A00212046802300F003
:10EA2000D9FA204600F0D6F9324607490748BDE832
:10EA30007040FEF7EBBB00BFB0410020FE4200205B
:10EA40008DE90200FE430020ECC60300A441002033
:10EA5000012810B5044602D97846F8F777FB034B36
:10EA6000A02202FB0434207910BD00BFB041002079
:10EA700070470DF047B90DF04DB9000070B506466E
:10EA800018B343680BB34378073BDBB2F72B1ED9AF
:10EA9000104B00781C68A8B90546E8B2013500F0B3
:10EAA00091F8B5F5807FF8D106F108010948FDF726
:10EAB0009FF92CB9204600F095F8012000F072F87B
:10EAC000002003E000F07EF8EEE70E2070BD072086
:10EAD000FCE700BF804400202DE9F047DFF85C80B0
:10EAE00006461F460C468D18AC4201D3BDE8F087A0
:10EAF000D8F8002004F1020942B1617812F8083C0C
:10EB0000994207D033B11268002AF7D12278013236
:10EB10001444E9E7082AF9D012F8071CD2F800A03B
:10EB2000B14201D0FF2906D1217852F8043C0139C5
:10EB30003A46484698475246DEE700BF80440020E8
:10EB4000F0B5174A447D137C063CE4B200214FF037
:10EB5000010C8C4203DCB3FA83F0400917E046183D
:10EB6000B57F767F6F0902EB870705F01F057F6988
:10EB70000CFA05F53D4210D0611AB14204DC536B2A
:10EB8000013353630120F0BD181C18BF0120002879
:10EB9000F9D0936B01339363F5E701363144D8E73D
:10EBA0008444002030B10548054B436000230370C6
:10EBB00000F0C2BD014800F0DDBD00BF844400206C
:10EBC00041EB02004109064A012300F01F0003FA4D
:10EBD00000F052F82130034342F82130704700BF63
:10EBE00098440020012810B5044602D97846F8F769
:10EBF000ADFA014B1C7410BD8444002010B50446CE
:10EC000010B97846F8F7A2FAE36F13B97846F8F727
:10EC10009DFAE36FD4E925122046BDE8104018475D
:10EC200010B5037813F0FC0F044602D07846F8F7CD
:10EC30008DFA237803F0FE03022B02BFA37963F061
:10EC40003F03A37110BD10B550F8202C1379013B80
:10EC5000DBB2FD2B04460BD9836D4BB11368C0E9C1
:10EC60001C315C30FCF75EF910B17846F8F76EFAAB
:10EC700054F8201C0B7943B944F8203C04F13800C7
:10EC80000439BDE81040F9F7F4BE10BD38B50546AB
:10EC900007480C46FBF7D0FCB0FBF4F101FB140471
:10ECA000FBF7CEFB01192846BDE83840FBF79FBBB8
:10ECB000C0440020F7B500230B650B780C46002BF1
:10ECC0004AD091F84030002B33D1CB6F002B2AD1A2
:10ECD00004F15C0500266368002B3FD01B79FF2BF5
:10ECE00004D12846F9F7AAFE002837D163681B79BA
:10ECF000002B33D094F87830002B5FD165682B79E6
:10ED000013B97846F8F722FA2B79FF2B1CBF03F1D1
:10ED1000FF332B7104F1080000F0D8FC48B17846AD
:10ED2000F8F714FA05E001F18000FCF71DF900285E
:10ED3000CED094F84430256F022B02D07846F8F7F5
:10ED400005FA2048FBF778FC42F21073B0FBF3F2AF
:10ED500002FB13002844206503B0F0BD616821B1B7
:10ED600004392846F9F785FE666001A92846F9F7B7
:10ED70001EFE0028F0D1019B1A1D0C3362606362F5
:10ED8000A9E73846FBF758FC94F87730B0FBF3F26C
:10ED900002FB1300C3B2AB4209D02544204495F8CE
:10EDA000743090F8742085F8742080F8743001363F
:10EDB00094F87730F5B2AB42E3D89FE70026014FD5
:10EDC000F6E700BFC04400200148FBF769BC00BF64
:10EDD000C044002010B5037804467BB901230370BA
:10EDE000436833B1216F04F14400BDE81040FFF7E0
:10EDF0004DBF5C30F9F708FE0028F3D110BD0023A9
:10EE000000F8443BFBF7DCBA2DE9F3410D4606461A
:10EE100010B97846F8F79AF91F2D02D97846F8F715
:10EE200095F905F1110292B201A906F15C00F9F71A
:10EE30003CFD8046E0B9019C237B022262F3030380
:10EE400006352373657396F86830227B5B0863F39D
:10EE50008612227306F16901062204F10F000CF0FC
:10EE600070FF271DC4F80480384602B0BDE8F08169
:10EE7000042802D07846F8F769F90027F4E738B596
:10EE800005460C4601B110B97846F8F75FF92379C9
:10EE900013B97846F8F75AF9237A03F0CF036FF3E2
:10EEA000C713237221460023A37231F8042D05F104
:10EEB0005C00F9F74BFD2B784BB195F8443033B932
:10EEC000296F05F14400BDE83840FFF7DFBE38BDCB
:10EED00038B504460D4601B110B97846F8F736F951
:10EEE000291F04F15C00BDE83840F9F7C2BD70B5D8
:10EEF0000D46044600B111B97846F8F727F92B788A
:10EF000013F0FC0F02D07846F8F720F9EFF31086E3
:10EF100072B668340722294620460CF012FF2046BC
:10EF2000FFF77EFE06B962B670BD38B50D460446E1
:10EF300010B97846F8F70AF9132D03D87846F8F790
:10EF400005F902E0B5F5205FF8D84FF47A7194F82E
:10EF50004430694321673BB123782BB104F144006D
:10EF6000BDE83840FFF792BE38BD38B50D460446BF
:10EF700010B97846F8F7EAF884F8285038BD10B58B
:10EF800004465C30F9F769FCEFF3108272B66368EF
:10EF90000BB10021197102B962B610BD10B54FF066
:10EFA00080530446D3F8A0200378094912F00102E7
:10EFB00014BF62F347036FF3470303700622013067
:10EFC0000CF0BFFE2046BDE81040FFF729BE00BF91
:10EFD000A4000010F8B50D4616461F46044600B1C1
:10EFE00012B97846F8F7B2F80A2F02D87846F8F73F
:10EFF000ADF8BAB2314604F15C00F9F7D8FB04F180
:10F000006800FFF7CBFF144BE56744F62062C4E9C4
:10F010001C23124A226325226285032284F82C20B5
:10F0200084F83C200E4A6263002304F174010D4A07
:10F0300084F8783084F82830A1636362E264646500
:10F0400023703DB1224604F180000749BDE8F84035
:10F05000FBF750BFF8BD00BF25262703D6BE898E1B
:10F0600047EC0200B5EC0200FDEB0200034A136816
:10F0700013B1002111601847704700BFE44400201D
:10F0800008B50848FAF7E7FF48B9074B186818B100
:10F09000064B187880F0010000F0010008BD012047
:10F0A000FAE700BFD4440020E8440020D044002008
:10F0B0001C4B10B501214FF0FF321B4C59604FF42F
:10F0C0008060D960C3F808230022C3F80022C4F886
:10F0D00080010424C3F84021C3F84015C3F810454B
:10F0E000C3F80425114CC3F80825114AC2F860453D
:10F0F000A4F50354383CC2F86445C2F8040519600D
:10F10000D3F840110029FBD00021C3F840114FF47F
:10F110008061C2F80815074AD2F84805D3F840358F
:10F12000C01A10BD00A0004000E100E040A1004076
:10F1300000F0014000800040F8B5FBF76FFC0028AC
:10F140006BD13648FAF787FF054680B10468FBF7B4
:10F150007FFC0646FBF776FC002C40D0E368643366
:10F16000984206D20120BDE8F840FBF7A9BC04464E
:10F17000EDE79E4233D92A4E33781BB100F0ECFC08
:10F18000002333702548FAF753FF854202D07846B2
:10F19000F7F7DCFF002501206561FBF7A3FC214B9D
:10F1A000214F1C60214B224E4FF0FF32C3F8082341
:10F1B000204B0222C3F88021FFF77AFFE3681E4A42
:10F1C000216935700344136001233B70236898471D
:10F1D00033783D700BB3BDE8F84000F02FB8B6F5BA
:10F1E000FA7F1AD900F090FD98B10D4B1A78A2B9A8
:10F1F0000E4A4FF0FF31C2F808130E4A0221C2F83E
:10F20000801101221A70FFF753FFBDE8F84000F0AB
:10F210008FBCBDE8F840FBF745BCF8BDD4440020E6
:10F22000E1440020E8440020E044002000100040B9
:10F23000D044002000E100E0DC44002008B5FBF7EA
:10F240009DFC0C4B1B68C01A002802DB7846F7F7C0
:10F250007DFF0020FBF746FC074B00221A60074B9E
:10F260001B781BB1BDE80840FBF71CBCBDE808409B
:10F27000FFF762BFDC440020E8440020E2440020A5
:10F2800038B5114C2268A2B1936813B97846F7F7E4
:10F290005DFF0E4D01232B7023689A681869904713
:10F2A00000232B700A4B1B786BB1BDE83840FFF789
:10F2B000C5BF084B1B7813B97846F7F747FFBDE881
:10F2C000384000F0F3BC38BDE8440020E0440020A2
:10F2D000D0440020E144002008B50948FAF784FE34
:10F2E000084A00231360084A1370084A012111706C
:10F2F000074A1370074A1370074A82F80A3308BD99
:10F30000D4440020E8440020E1440020E2440020EE
:10F31000E0440020D044002000E100E008B5094BA3
:10F320001B786BB900F0F0FC30B1FBF753FB38B140
:10F33000BDE80840FBF7A4BBFFF7A2FE0028F4D10C
:10F3400008BD00BFE244002010B5054B1A782AB171
:10F3500000241C70FFF7E2FF204610BD0820FCE7E8
:10F36000E244002010B5044610B97846F7F7EEFEE7
:10F37000236813B97846F7F7E9FEE36813B97846CE
:10F38000F7F7E4FEE2680E4B9A4202D97846F7F7A7
:10F39000DDFE6369A34211D00A48646104F11401DF
:10F3A000FAF72CFE084B1B7803F0FF0023B9074B3C
:10F3B0001C6824B9FFF7B2FF002000E0082010BD50
:10F3C00060850100D4440020E2440020E84400208D
:10F3D00010B50E4B1B6813B97846F7F7B7FEFBF76D
:10F3E00049FB10B97846F7F7B1FE094C227812B103
:10F3F0007846F7F7ABFE074B1B7813B10123237058
:10F4000010BDBDE81040FFF719BF00BFE844002061
:10F41000D0440020E044002038B5FBF72BFB10B9A6
:10F420007846F7F793FE144C2268A2B1536813B9DB
:10F430007846F7F78BFE114D01232B7023685A682D
:10F440001869904700232B700D4B1B7893B1BDE8D2
:10F450003840FFF7F3BE0B4B1B7813B97846F7F72C
:10F4600075FE00F081FB00F04FFC18B9BDE8384094
:10F47000FBF718BB38BD00BFE8440020E044002083
:10F48000D0440020E144002008B5FBF7F3FA10B99E
:10F490007846F7F75BFE074B1B6853B9064B1B78A2
:10F4A0001BB1BDE80840FBF7FDBABDE80840FFF717
:10F4B00043BE08BDE8440020E244002008B5FBF745
:10F4C000D9FA10B97846F7F741FE084B1B6813B11B
:10F4D0007846F7F73BFE064B4FF480621A60022233
:10F4E0001A60BDE80840FFF727BE00BFE8440020CF
:10F4F00000E100E038B5FBF7BDFA10B97846F7F740
:10F5000025FE134B1B6813B17846F7F71FFE114C0D
:10F5100023781BB100F020FB002323700E4B0F4D0E
:10F5200001214FF0FF3400225960D960C3F808432D
:10F53000C3F800220A4A4FF48060C2F88001C5F87F
:10F5400008430224C2F880411961C2F8800038BD26
:10F55000E8440020E144002000A0004000100040EA
:10F5600000E100E0024B1B780BB1FFF77FBD704755
:10F57000E244002070B5244CD4F81031054613B98C
:10F580007846F7F7E3FD214E0023C4F810313378B5
:10F590000133337000F03EFD95F8342033789A4201
:10F5A0001DD21B4BD3F840651A4B19680E44FBF76C
:10F5B000E5FAEB6A0446314605F11C009847FBF773
:10F5C000DDFA001B502802D47846F7F7BFFD00F0A3
:10F5D00055FDFFF7FDFE002385F8383070BD0DD9CD
:10F5E0002A6BD05C00F020F9074BD3F81031002BC8
:10F5F000F4D07846BDE87040F7F7A8BD0323C4F8FF
:10F60000003200F015FDEFE700100040F04400204C
:10F6100000A00040EC440020F8B5264A264B274FB6
:10F62000C3F8602502F50F423C32C3F864254FF45D
:10F6300080620D46C3F80425044600F0D5F805F1B4
:10F64000200000F005F90021A86A00F047F92B6BB3
:10F65000187800F0E9F8012620463E70FBF7E2FA40
:10F66000174B184C1860EB69C4F804350023C4F834
:10F6700010311023C4F80433134B5E642660D3F8B2
:10F6800044053146304400F069FC95F83430B3420B
:10F6900009D90723C4F800323B782A6BD05CBDE857
:10F6A000F84000F0C1B80323C4F80032BDE8F840C8
:10F6B00000F0BEBC0411004000F00140F044002006
:10F6C000EC4400200010004000A0004010B5C36AC8
:10F6D000044613B97846F7F739FD94F838301BBB68
:10F6E000124B2360124B6360E36994F8241058783E
:10F6F00094F83420042900F10A0308BF00F10B0339
:10F700000C48415C4B432E3353439833C4E90334D4
:10F71000012384F838302046FFF724FE18B17846DC
:10F72000F7F714FD002010BD1120FCE719F60200C8
:10F7300075F50200F8C6030010B5044610B9784606
:10F74000F7F704FD636813B97846F7F7FFFC2378F1
:10F75000012B02D97846F7F7F9FC2078044B04F125
:10F760000C0103EBC000BDE81040FCF741BB00BF3B
:10F77000F444002010B5044610B97846F7F7E6FCCB
:10F780002378012B02D97846F7F7E0FC2078044B68
:10F7900004F10C0103EBC000BDE81040FCF749BBCD
:10F7A000F4440020F8B506460F4611B97846F7F73D
:10F7B000CDFC012E02D97846F7F7C8FC094C54F865
:10F7C000365035B904EBC600436801334360284620
:10F7D000F8BD55E90231384698470028F8D12D6820
:10F7E000EFE700BFF44400200D4B0022C3F8FC2FCC
:10F7F0000122C3F8FC2F40F25B62C3F8382540F2C7
:10F800000312C3F83425074AC3F83C259622C3F8EF
:10F810004425D3F8502642F00102C3F85026704721
:10F820000010004055555500272810B5044602D950
:10F830007846F7F78BFC044B1A5D044BC3F8082598
:10F84000C3F8544510BD00BFFEC6030000100040C1
:10F8500010B5044610B97846F7F778FC2379052BE4
:10F8600002D97846F7F772FC638813B97846F7F740
:10F870006DFC63880233B3F5817F02D97846F7F7D0
:10F8800065FC154B2278C3F80C252279C3F81025A6
:10F89000A27842F0007242F44032C3F81825628820
:10F8A000252A8CBF08220622C2F1080142F4807288
:10F8B00042EA0142C3F81425D3F8142542F4801219
:10F8C000C3F814252279042A02BFD3F8142542F084
:10F8D0008072C3F8142510BD0010004070B5124DA1
:10F8E000D5F81835C3F30243032B04460E4602D065
:10F8F0007846F7F72BFC36B1012E0BD07846BDE8E1
:10F900007040F7F723BC230E2402C5F82435C5F850
:10F910001C4570BD230C044A03F47F432402C2F843
:10F920002435C2F82045F4E700100040EFF31083BF
:10F9300072B6054A52781AB1044A0221C2F800117F
:10F9400003B962B6704700BF0445002000E100E043
:10F95000024B00221A71FFF7E9BF00BF04450020E7
:10F96000074B5A7993F82F100132D2B291425A7153
:10F970009CBF00225A7102221A71FFF7D7BF00BF45
:10F9800004450020F8B5194D194EFFF72DFF00244E
:10F990001848FFF75DFF0127C5F8304556F8040FFA
:10F9A00048B12146FFF79AFFD5F8302507FA04F34E
:10F9B0001343C5F830350134082CEFD10B4B11221D
:10F9C000C3F80443C3F800220022C3F8042103F55E
:10F9D000F033094AC3F8602502F5DE424432C3F829
:10F9E00064254FF48062C3F80425F8BD0010004080
:10F9F00030450020204500200411004010B50F4C78
:10FA0000A36813B17846F7F7A1FB0D493C2201F139
:10FA10007C00F8F74AFF031E09BFA268A2690949E2
:10FA2000183213BF0132C1F804250120002018BF8D
:10FA3000A261003318BF0123A37010BD044500204C
:10FA40000C4500200010004038B5194BD3F8503554
:10FA500013B17846F7F77AFB164D6B792B4493F880
:10FA60002C00FFF7E1FEEB781BB1FFF78BFF0023C3
:10FA7000EB70FFF7C3FFB8B10F4C0D4B0121616470
:10FA80005960D4F84405084400F096FA00F0D0FA22
:10FA90000023C4F84431094B4FF48062C3F880213D
:10FAA0004FF40033C4F8043301232B7138BD00BF79
:10FAB000001000400445002000A0004000E100E0EC
:10FAC00070B50B4C0B4D012200262261C4F80C616D
:10FAD000A96821B105F18400F8F7CBFFAE60D4F836
:10FAE0005035002BFBD1BDE8704000F0C7BA00BF15
:10FAF000001000400445002010B5FAF7A1FC0446B0
:10FB00000948D0E909138B4208D16830FAF758FC4C
:10FB100021460648BDE81040FAF769BC2144683028
:10FB2000FAF765FCF4E700BF0445002054450020C7
:10FB300010B5084C012363700023E370FFF722FF28
:10FB40002378022B05D123791BB1BDE81040FFF7C4
:10FB50007BBF10BD04450020024B00225A70FFF706
:10FB6000AFBF00BF04450020F8B54C4B4C4CD3F858
:10FB70000C21002A50D00022C3F80C21D3F80C210C
:10FB8000D3F80024A56822B92369013323612946EB
:10FB900055E0697EE28B914248D8D3F8482552421D
:10FBA0006A73D3F8082404EB82022E1D126BAA603C
:10FBB000D3F8543503F03F032B733A4BD3F8487511
:10FBC0003846FBF72FF80622686005F11B0105F1A6
:10FBD0000F000CF0B6F82B7EAA7BC3F3801161F303
:10FBE0004702AA73C3F303036B75E3680133E36051
:10FBF000D4F89032F3B931460020FFF7D3FDE8B9CD
:10FC00006A7E2948A1681732F8F7A0FED4F8800070
:10FC1000FBF74EF90023A3602378012B13D0022BAE
:10FC200015D07846BDE8F840F7F790BA636901331C
:10FC30006361ACE7394630469847DCE7A1681A486B
:10FC4000F8F717FFE6E7BDE8F840FFF739BF134BB9
:10FC5000D3F85035032BE4D8DFE803F002190A1972
:10FC600023799BB1022BDCD8BDE8F840FFF7ECBE4E
:10FC70002479012C05D0E6D3022CD2D1FFF720FF46
:10FC8000F2E7FFF7BBFE08B1044B9C60F8BD237997
:10FC9000012BFBD0D7D3022BEFE700BF00100040B1
:10FCA00004450020008000408845002010B50A4C23
:10FCB000D4F8443113B97846F7F748FA4FF40033D3
:10FCC000C4F808330023C4F84431D4F84431BDE803
:10FCD000104000F09FB900BF00A0004010B5094CD3
:10FCE000237813B97846F7F731FA2378012B07D137
:10FCF000FFF702FF02232370BDE81040FFF70EBBA1
:10FD000010BD00BF04450020024B1878831E5842E6
:10FD1000584170470445002038B5054610B978466B
:10FD2000F7F714FA064C291F04F18400F8F7A1FE36
:10FD3000A3781BB1BDE83840FFF7F8BD38BD00BF60
:10FD40000445002013B50B4C01A92046F8F72FFEFF
:10FD500008B100200BE0019901200431FFF722FDDA
:10FD6000019B18B1181DFFF7D7FFEDE7181D02B072
:10FD700010BD00BF884500200148F8F745BE00BF10
:10FD800088450020884238B504460D4602D27846A0
:10FD9000F7F7DCF90C4B9C4202D97846F7F7D6F915
:10FDA00040F6B7339D4202D87846F7F7CFF9074BB4
:10FDB000C3E909545C67DC651B78022B03D1BDE8FD
:10FDC0003840FFF799BE38BD00007102044500209D
:10FDD0004B1E022B70B506460C4602D97846F7F743
:10FDE000B5F93246931BDBB29C420AD912F8013BAB
:10FDF000252BF7D0262BF5D0272BF3D07846F7F715
:10FE0000A5F9064D2246314605F12C000BF099FF6D
:10FE100000236B7185F82F4070BD00BF04450020A2
:10FE20004B1E072B70B506460D4602D97846F7F7EC
:10FE30008DF9084C2022002104F130000BF08CFFDA
:10FE4000AA00314604F130000BF07BFF0123E37080
:10FE500070BD00BF0445002007B50F4B68461A88E7
:10FE60009B78ADF8002003218DF80230FFF7B0FF3A
:10FE700002A80A4B40F8043D0121FFF7D1FF084BCF
:10FE80000849032283F8202008460122DA70FFF790
:10FE900079FF03B05DF804FB26C70300D6BE898E48
:10FEA0000445002080841E0038B5114C05464FF4EF
:10FEB0002572002120460BF04FFF4FF4007204F131
:10FEC000900104F18400F8F772FCFFF7C5FF0023EE
:10FED00023772523E383074B2367074BA365284636
:10FEE000012323702371FAF7C5FFC4F8800038BDE1
:10FEF0000445002051F9020061F902000278D3079D
:10FF00000DD59108012312F0020F03FA01F34FF00F
:10FF1000A04202D0C2F80C357047C2F808357047CD
:10FF2000002303600B4B99781B79CA0002F18042D1
:10FF30009B0002F5F83203F1804303F5C043C2F899
:10FF40001005C2F814350123034A8B40C2F804356A
:10FF5000704700BF9847002000F0014038B5114BB2
:10FF60005A7905460C46E2B11A78D10719D5997825
:10FF70000D4B0E4812F0020F18BF4FF003139208FA
:10FF800043EA022301F5A272094900EB840041F81B
:10FF90002230FFF7C5FF04F5A874064B163543F869
:10FFA000245038BD984700200300130040A10040B2
:10FFB0000060004000A0004038B5114B5A7905465A
:10FFC0000C46E2B15A78D10719D599780D4B0E48F5
:10FFD00012F0020F18BF4FF00313920843EA0223F6
:10FFE00001F5A272094900EB840041F82230FFF7C5
:10FFF00097FF04F5A874064B163543F8245038BD16
:020000023000CC
:10000000984700200300130040A10040006000401A
:1000100000A00040044B5A792AB19A7801239340FA
:10002000024AC2F8083570479847002000F00140A6
:100030000F494B79D3B10F4B0022C3F81021C87878
:10004000C20002F1804202F5F83203F58873C2F86B
:1000500010350B799B0003F1804303F5C043C2F8D0
:1000600014350123044A8340C2F80435704700BFA9
:10007000984700200010004000F0014010B50F4CE0
:100080006379CBB1E178A378012202FA03F38A40C5
:1000900013430B4AC2F808352379A2F5C83203F599
:1000A000A2730021204642F82310FFF727FF601CAF
:1000B000BDE81040FFF722BF10BD00BF98470020E9
:1000C00000F0014000B589B00A238DF8003000F13E
:1000D0007803029300F58C7301900393C36868461C
:1000E000984709B05DF804FB70B505692C68A860F5
:1000F00088B006465CB9022385F80B3101238DF8E0
:1001000000300195EB686846984708B070BDB4426E
:1001100003D0A36820469B6898472468EAE730B577
:10012000046994F80B31122B89B00D4603D111B933
:100130002046FFF7C7FF002384F80B3102238DF818
:10014000003001948DF80850E3686846984709B07C
:1001500030BD30B590F80C3189B00446032B3BD844
:10016000DFE803F0312B170206238DF8003090F8FA
:1001700006318DF8093090F807318DF8083001907C
:100180000B2384F80B316846E3689847002009B0D8
:1001900030BD00F1C505294600F06CFE05238DF841
:1001A000003094F806318DF8093094F807318DF855
:1001B0000830019403950F23E3E707238DF80030FF
:1001C00001900C23DDE710220021C5300BF0C4FDA7
:1001D0000F2384F80B31D9E70320D8E730B5044664
:1001E00089B080680D4600F089FC20B1A068836862
:1001F00002211B69984794F80B31152B0DD00C2365
:100200008DF80030152384F80B3101948DF80850D7
:1002100084F80A51E3686846984709B030BD10B5C4
:1002200088B0044600F0D6FE80B10B238DF8003074
:100230006369039304F1180302930A2384F80B31D2
:100240000194E3686846984708B010BD04F158016E
:10025000204600F0F5FD48B92046FFF77AFF002858
:10026000F2D005212046FFF7B9FFEDE70221F9E7BB
:1002700013B5046994F80B31023B132B47D8DFE820
:1002800003F00A46460D46460F46461546174617E2
:1002900046191B464620052384F80B3102B010BDD9
:1002A000204602B0BDE81040FFF7B9BF0F23F3E7C7
:1002B0001123F1E71223EFE72046FFF703FF142392
:1002C000EAE7274B1B681A07E8D5264B1B68032B68
:1002D000E4DD2F2124480BF00FFE78B12F212248B6
:1002E0000BF00AFE411C214B214AD3F80435009241
:1002F00004204FF41572FBF717FECFE75C211A4874
:100300000BF0FAFD08B15C21E9E71749EBE7144B64
:100310001B681B07C2D5134B1B68002BBEDD2F21AA
:1003200011480BF0E9FD90B12F210F480BF0E4FDCF
:10033000411C0E4B94F80B21D3F8043501920D4A61
:100340000092012040F25722FBF7EEFDA6E75C2168
:1003500005480BF0D1FD08B15C21E6E70249E8E76A
:10036000F42D0020F02D00203CC7030000100140B8
:1003700060C7030090C7030070B50D4698B00469CC
:100380000E782846114600F04DFB08B1092E04D91D
:1003900001212046FFF722FFD4E0324694F80B11EA
:1003A00094F8090100F024FE50BB984B1B681B0712
:1003B0001BD5974B1B68042B17DD2F2195480BF09D
:1003C0009BFDA0B12F2193480BF096FD411C94F8A2
:1003D0000B21914BD3F80435CDE901628F4A00928D
:1003E00005204FF4C472FBF79FFD0321D1E75C2188
:1003F00088480BF081FD08B15C21E4E78549E6E718
:100400002B78072B00F27C81DFE813F008007A01DB
:100410004D00A0007A01B800E3000A01012204F1B6
:10042000F506A91830460BF08CFC03238DF83C3000
:100430006B7810948DF84430E3680FA89847012337
:100440008DF8183094F80D318DF81930B4F80E216C
:10045000130A43EA0223ADF81A3094F810318DF8EC
:100460001C3094F811318DF81D3094F812318DF84C
:100470001E30B4F81321130A43EA0223ADF81F30EB
:1004800094F815318DF82130B4F81621130A43EA97
:100490000223ADF82230324606A9A06800F0D0FA57
:1004A00000284FD087E06B788BB9AB78012B0ED842
:1004B000EA78032A0BD8012B03D194F81031012BD1
:1004C00005D1012A2B7904D80BB96B794BB10221E4
:1004D0005FE7022A38D1042BF9D86B79013B072B4F
:1004E000F5D8691C052204F201100BF02AFCAB7848
:1004F000003318BF012384F80831EB7884F80C31FD
:10050000EB78012B14BF6B79102384F806312B791B
:1005100084F8073104238DF83C301094E3680FA869
:10052000984794F80831082584F80B5153B12022DC
:1005300000210FA80BF010FC8DF83C501094E368DC
:100540000FA8984718B070BD032BC5E701352846A2
:1005500000F06AFC0028BAD04022294604F11800B5
:100560000BF0EFFB94F8083123B92169A06800F083
:1005700076FA95E72046FFF752FEE3E794F80B3151
:100580000F2B1AD11022691C04F1E5000BF0D9FBE6
:1005900004F1D501204604F1A5030FAA00F08EFB5B
:1005A0000FA9A06800F079FA0028CBD0042802D067
:1005B0007846F6F7CBFD0521EBE60C2BC2D11022D5
:1005C000691C04F1E5000BF0BCFB0D2384F80B3132
:1005D000B8E71022691C04F1B5000BF0B2FB20460D
:1005E00000F094FC08B90421D3E604F1A501A06849
:1005F00000F066FA0028DED104F1780304F19802D5
:1006000004F18801204600F0B9FB9BE7F42D00209F
:10061000F02D00203CC7030000100140BFC70300BD
:1006200004F188030F9304F1980310936B1C11934A
:1006300018A91923ADF848300DEB03060023082252
:1006400001F8493D1A350FA81393ADF850301596AF
:1006500016958DF85C20FAF75CFD9DF81730002B9D
:100660003FD01022314604F58C700BF06AFB0B9BD7
:1006700094F830111BBAC4F82A31BDF83030180A8A
:1006800040EA032080B2A4F82E01BDF82920130A05
:1006900043EA02239BB2A4F828319DF82B20C2F331
:1006A000400262F3000184F830119DF82B20C9B29A
:1006B000C2F3000262F34101B3F5805F84F83011A8
:1006C000BFF405AFF9F7C4FA01287FF400AFB4F81E
:1006D0002E0194F80D51F9F7BBFA012803D0082137
:1006E00057E6062155E6B4F82E010138284480B2B9
:1006F000F9F7AEFA0128F2D1A06800F0F4F9CFE6DC
:100700007846F6F723FD1DE730B40C4611461A462D
:1007100090F80B31012B08D8054BE360A3685D68A6
:10072000044B2046AC4630BC6047082030BC7047C4
:100730002CC70300008793031FB590F80B31A3F17A
:100740000B02022A044619D80B2B04D1806800F052
:1007500099F904B010BD0D2B0BD100F1A50300F1E8
:10076000D5016A4600F0AAFA6946A06800F095F93A
:10077000EFE70F2380F80B310020EAE70820E8E7D5
:1007800000790B79C31A58425841704710B5431E7F
:1007900000F11002073013F8011F12F8014D1C7010
:1007A00083421170F7D110BD4A0901F01F034FF0C9
:1007B000FF31994050F82230194009D04B420B408C
:1007C00004495943C90E044B585C00EB4210704772
:1007D0000320704731B57C07E2C7030038B5049D9C
:1007E00088B181B17AB173B16DB190F80B4164B940
:1007F000C0E90351426119460B2200F20D100BF0C3
:10080000A0FA204638BD0E20FCE70820FAE70000D9
:1008100038B50D46044650B149B1064AFBF726FBF0
:1008200020B92C612A7963681343636038BD0E20B8
:10083000FCE700BF8107030000F090BA38B5054619
:1008400078B190F80B31012B0DD104681CB985F8F3
:100850000B41204638BDA36820469B689847246812
:10086000F4E70E20F6E70820F4E72DE9F7430F46FA
:10087000904601930446A0B190F80B21012A12D8AA
:100880001BB1416833EA01010FD007252EE02A7918
:100890009A421FD02D6818E0711C02290BD900253F
:1008A00024E00E2522E0082520E04FF0010980F821
:1008B0000B9180F8099101A8FFF776FF03280646FF
:1008C000EDD009FA06F32568DBB2002DDFD17846BA
:1008D000F6F73CFC294643463A462046FFF714FF0C
:1008E00005460028D8D02046FFF7A8FF284603B0C9
:1008F000BDE8F083F8B50E461546044600286FD0D3
:1009000000296DD0102A6DD890F80631934269D134
:1009100090F80C31012B0DD1C5300BF012FA94F880
:1009200009312A4631462046002B55D1BDE8F84012
:10093000F6F70ABB90F80921DAB9022B21D190F819
:100940000731032B1DD82946304600F021FBC0B1EA
:1009500004F1C5070422314638460BF0F2F90C22A7
:10096000002104F1C9000BF0F7F93846FFF70EFF3C
:10097000D5E7012A05D1032B03D190F80731022BCB
:10098000E0E794F80931EBB994F80C31022B01D06F
:100990000820F8BD94F80731042BF9D129463046D8
:1009A00000F0E2FA0028F3D004F1C5072A463146E8
:1009B00038460BF0C6F905F1C500C5F1100200215B
:1009C0002044D0E7012BE3D194F80C31032BDFD185
:1009D00094F80731032BE0E7BDE8F840FFF7ACBE21
:1009E0000E20D6E70920D4E708B518B100F002F9C7
:1009F000002008BD0E20FCE700F008B970B50446E1
:100A000016460D4611B97846F6F7A0FB14B978469C
:100A1000F6F79CFBA3683246294620461B68BDE8D2
:100A20007040184748B10378092B05D8034AD05CB9
:100A3000431A5842584170470020704702C80300CB
:100A400038B505460C46501C01310B220BF079F9E4
:100A5000214628460C22BDE83840FFF7CFBF30B50D
:100A600093B012AC032304F8443D054640220DF137
:100A700005000BF066F9412221462846FFF7BEFF2C
:100A800013B030BD07B502A9042301F8043D0122CB
:100A9000FFF7B4FF03B05DF804FB30B587B006ACD8
:100AA000052304F8143D054610220DEB03000BF05E
:100AB00048F9112221462846FFF7A0FF07B030BDB4
:100AC00030B587B006AC062304F8143D0546102265
:100AD0000DF105000BF035F9112221462846FFF7EC
:100AE0008DFF07B030BD07B502A9082301F8043D0A
:100AF0000122FFF783FF03B05DF804FB07B509236C
:100B00008DF80510022201A98DF80430FFF776FF59
:100B100003B05DF804FB70B506468AB014460D4676
:100B200009B308460BF0E0F96A4681B22846FAF7A5
:100B300050FB042269460DF122000BF002F9162544
:100B400064BAADF82040F6F739FB102201460DEBF0
:100B500002000BF0F6F82B4604AA00213046FCF701
:100B6000A1F90AB070BD1225EAE70000F0B50F4602
:100B700089B01446064610B97846F6F7E7FA14B974
:100B80007846F6F7E3FA07F0FB03122B25D1184D50
:100B90002A6812B32022002168460BF0DDF81022EB
:100BA000314601A807940BF0CCF823785A1E534223
:100BB00053410021162F8DF814308DF800100ED1FE
:100BC0000123042206F112010DF116008DF81530F3
:100BD0000BF0B7F82B686846984709B0F0BD0422BF
:100BE0000DF116008DF815100BF0B6F8F2E700BF06
:100BF000A047002010B5044610B97846F6F7A6FACB
:100C0000014B1C6010BD00BFA0470020014B00221B
:100C10001A607047A04700200A78034B82B000207A
:100C20001A7002B0704700BFA5470020024B1B7826
:100C30000B7082B002B07047A5470020024B82B013
:100C400000221A7002B07047A547002073B5054610
:100C50000A4E68460C46F9F701FD002324219C4208
:100C600001D802B070BD1DF80300B0FBF1F201FB2A
:100C70001202D2B2B25CEA540133F0E710C80300AA
:100C800037B50D46042104460DEB0100F9F7E6FCEB
:100C9000094B019953F82520B1FBF2F302FB131322
:100CA00004221BBA0DEB020104F10C0001930BF0BE
:100CB00048F803B030BD00BF38C803002DE9F0414B
:100CC0000446ACB00F46904600F1F501112207A88A
:100CD0001E460BF036F894F8093104F1180540224D
:100CE00093BB21690DF12D000BF02BF84022294612
:100CF0000DF16D000BF025F83A4607A89121FAF79F
:100D000068FA03AD04233A46009304F15800124BED
:100D100001952021FAF773FA30461021F9F79EFC6D
:100D20003146102207A80BF00CF804F1C50110227F
:100D30000BA80BF006F84346202207A92846FAF72D
:100D4000E4F92CB0BDE8F08129460DF12D000AF040
:100D5000F8FF40222169CBE772C8030038B504468A
:100D60000D460AF01DFD2946024620460AF01CFDEC
:100D7000012814BF0320002038BD00002DE9F043F6
:100D8000044697B08946904600F1D50110220AA882
:100D90001F460AF0D6FF94F8093104F1B50604F1B4
:100DA000A505102293BB29460EA80AF0CAFF1022FF
:100DB000314612A80AF0C5FF5834042502AA0AA831
:100DC0003021FAF706FA02AA2046CDF804900095E1
:100DD000124B2021FAF713FA06ABCDE9005302AA11
:100DE0000F4B20462021FAF70AFA0DF11B010D22C4
:100DF00040460AF0A6FFCDE900570A4B02AA20217F
:100E00002046FAF7FCF917B0BDE8F08331460EA88A
:100E10000AF097FF10222946CBE700BF77C80300EE
:100E20007CC8030081C8030010B504460AF0B8FC72
:100E3000014620460AF094FD003018BF012010BD85
:100E400070B500F11804054620460E46FFF7ECFF8A
:100E500010B97846F6F77AF96D690AF0A1FC3246C6
:100E60000346294620460AF0DDFC00280CBF03207B
:100E7000002070BD37B590F80631013B072B0446C2
:100E80000D4602D97846F6F761F91022002128466E
:100E90000AF062FF94F80C31022B03D0032B16D01A
:100EA00003B030BD94F80731042BF9D8DFE803F024
:100EB0001E1E1E03090094F806112846FFF7E0FEE7
:100EC000EEE794F806112846FFF7C0FEE8E794F82D
:100ED0000731032BE4D801A252F823F0ED0E0300F2
:100EE000ED0E0300B70E0300C30E030001210DF148
:100EF000070094F80641F9F7B1FB9DF80720B2FB13
:100F0000F4F304FB13230133EB73C9E730B593B05B
:100F100002AD04230446009300F1D502114B019564
:100F200020215830FAF76BF904F1B50110220AA814
:100F30000AF007FF04F1C50110220EA80AF001FF14
:100F400006AB0AA928462022FAF7DFF8102204F19E
:100F5000E50106A80AF0E6FEB0FA80F0400913B0F9
:100F600030BD00BF72C8030010B50246131ADBB2D1
:100F7000994201D8012010BD12F8013BA3F13004C1
:100F8000092CF3D9413B192BF0D90020F3E70000DD
:100F9000082937B505460C4602D97846F6F7D6F843
:100FA000042229460DEB02000AF0CBFE044B53F855
:100FB0002400019B984294BF0020012003B030BD63
:100FC00038C80300024B01461868FDF72DB800BF72
:100FD0000CC8030007B50DF10700FFF7F3FF10B1D0
:100FE0007846F6F7B3F89DF8070003B05DF804FB08
:100FF0000A4B5B5C60B923F0800342F040018B42F6
:1010000004D0092A14BF0020012070470120704736
:1010100023F0400342F080008342F3E75CC8030002
:10102000D1F8B83108461B69012100F5D87018477E
:10103000F8B5114D2B68064613B97846F6F786F8D1
:10104000EFF3108772B62C68B4420BD1D6F8C431D6
:101050002B6007B962B6F8BD13B97846F6F776F893
:10106000D4F8C441D4F8C431B342F5D1D6F8C43170
:10107000C4F8C431EDE700BFA847002070B590F870
:10108000A130023B022B04460D4602D97846F6F702
:101090005DF82046FFF7CCFF94F8A030012B02D07A
:1010A0007846F6F753F82046FDF769FF002384F8E9
:1010B000A03084F8E03084F8A13004F1C000F9F7E2
:1010C0007FF9D4F8BC31294604F5D870DB68BDE857
:1010D0007040184710B5044610B97846F6F736F850
:1010E000A4F5D87494F8A130012B09D12046FFF75C
:1010F0009FFF2046FDF743FF002084F8A10010BDAC
:101100000820FCE72DE9F0418846911C064615466B
:101110001F46FDF779FE044600B36B1C4374292378
:1011200083742A46414613300AF00BFE2771EFF311
:10113000108772B6D6F8A85101356B1CC6F8A851B5
:1011400002D17846F6F702F807B962B63046256054
:101150002146FDF794FE0020BDE8F0810420FBE766
:101160002DE9F04190F8E030022B88B0044602D01F
:101170007846F5F7EBFF94F8E330002B42D194F872
:10118000A130032B02D07846F5F7E0FF94F8E03069
:10119000022B02D07846F5F7D9FFD4F89C2094F8BA
:1011A000E13012BA009294F8A3208DF804209DF843
:1011B000052002F0FC02142B03F102014FF017008E
:1011C000B1FBF0F161F387021D468DF8052028BFC1
:1011D000142594F8E2208DF808201B022A4604F119
:1011E000E4010DF10900ADF806300AF0AAFD012373
:1011F00005F1090269462046FFF784FF80B9012303
:1012000084F8E33094F8E3501726022794F8E1803D
:1012100008F10203B3FBF6F30133DBB2AB4202D8B1
:1012200008B0BDE8F0816B1E03EB4301C3EBC101C5
:10123000D4F89C30143189B21BBAA8EB0108009392
:1012400094F8A3308DF804301FFA88F89DF8053023
:10125000B8F1170F28BF4FF0170867F30103E43107
:1012600065F38703424621440DF106008DF80530F1
:101270000AF067FD012308F1060269462046FFF7E0
:1012800041FF0028CCD194F8E330013384F8E330F7
:101290000135BBE700B5D0F89C3089B01BBA00938C
:1012A0004FF43063ADF804308DF8061004230722A4
:1012B0006946FFF727FF09B05DF804FB38B50D4616
:1012C000044610B97846F5F741FF022D02D9784659
:1012D000F5F73CFFA4F5D87494F8A13013F0FB0F98
:1012E0000FD0023B012B02D97846F5F72FFF294694
:1012F0002046FFF7CFFF28B9042384F8A13084F8F3
:10130000A45038BD29462046BDE83840FFF7B6BE98
:1013100000B5D0F89C3089B01BBA00938DF804104A
:101320000123062269468DF80530FFF7EBFE09B070
:101330005DF804FB00B5D0F89C3089B01BBA00936F
:101340004FF4E063ADF80430062201236946FFF74D
:10135000D9FE09B05DF804FB10B50446F9F770F842
:10136000D4F8DC10014404F1C000BDE81040F9F7E6
:101370003EB80000D0F8A8318B4206D1012380F896
:10138000AC31024B1868F9F793BD70470C2E002062
:1013900037B591F8A130032B05460C464ED191F894
:1013A000E030022B4AD1D1F8D8301B1A002B14DAC6
:1013B00001212046FFF76EFF48B9042384F8A130CD
:1013C000012384F8A430C4F8B40003B030BD1D4B31
:1013D000C4F8B430C4F8D850F7E71B4B1B681B07A0
:1013E0001AD51A4B1B68042B16DD2F2118480AF05A
:1013F00083FDD0B12F2116480AF07EFD411C154B0C
:1014000094F8E420D3F804350192134A00920520A1
:1014100040F2BB32FAF788FD0023204684F8E3301F
:1014200003B0BDE83040FFF79BBE5C2108480AF0DE
:1014300063FD08B15C21DEE70549E0E70023C4F85D
:10144000B430C2E740420F00F42D0020F02D002000
:1014500036CC03000010014059CC030013B50446FC
:10146000EFF3108272B6174B1968C0F8C4111860F8
:1014700002B962B6144B1B681B0718D5134B1B68C7
:10148000032B14DD2F2112480AF036FD88B12F21DD
:101490000F480AF031FD411C0E4B0F4AD3F80435BA
:1014A000009201944FF4C8720420FAF73DFD02B097
:1014B00010BD5C2106480AF01FFD08B15C21E7E77A
:1014C0000349E9E7A8470020F42D0020F02D002073
:1014D00036CC03000010014086C80300F0B50E466C
:1014E00089B01746054610B97846F5F72FFEA5F5E1
:1014F000D87494F8A010012903D194F8A130002BDE
:1015000054D100230129C4F8DC70C4F8CC3084F82D
:10151000E03084F8A33084F8A23084F8A130C4F815
:10152000A83113D0012384F8A030214BC4F8B03087
:10153000204BC4F8C830C4F8B840C4F8D040802369
:10154000A5F188021C492046FDF744FDA5F58A75E2
:1015500028460421F9F782F8002384F8A330802379
:1015600084F8A2302B681BBA009310224FF440730A
:1015700031460DF10600ADF804300AF0E2FB042319
:10158000162269462046FFF7BDFD054658B920469C
:10159000FFF7E2FE2046FDF71DFC2046FFF75EFF49
:1015A000022384F8A130284609B0F0BD0825FAE7E7
:1015B00091130300211003007513030038B5124B7B
:1015C0001C6800250CB9012038BD94F8AC3193B1EA
:1015D00094F8A12084F8AC51042A94F8E0300DD19D
:1015E000022B03D104F1A800F8F7EAFE94F8A41046
:1015F0002046FFF743FDD4F8C441E3E7022BFAD1BC
:101600002046FFF7ADFDF6E7A84700202DE9F041A1
:101610000E4617469846054610B97846F5F796FDEA
:10162000A5F5D87494F8A020012A03D194F8A1302C
:10163000002B50D10023012AC4F8DC80C4F8CC3040
:1016400084F8E03084F8A33084F8A23084F8A13024
:10165000C4F8A83113D0012384F8A0301F4BC4F87C
:10166000B0301F4BC4F8C830C4F8B840C4F8D040FC
:101670008023A5F188021B492046FDF7ABFC00231F
:10168000802284F8A320C4F89C3084F8A2303A4623
:1016900031462046FFF73FFA054610B97846F5F780
:1016A00055FDFF232B714FF0FF332B604FF4FA6190
:1016B0002046FDF73AFC29462046FDF7E0FB204690
:1016C000FDF788FB2046FFF7C9FE012384F8A1300F
:1016D0000020BDE8F0810820FBE700BF9113030064
:1016E000211003007513030030B5074D0246FF2398
:1016F000141AA14202DCD843C0B230BD12F8014B2B
:101700006340EB5CF4E700BFB2C803002DE9F84387
:10171000A0F5D874804694F8A130032B0F461646E6
:1017200040D1412A40D810F8D05C002D3ED120464F
:10173000FFF712FEF8F784FE1723B11CB1FBF3F19B
:101740000131CBB2216F594301F5F411184B01F56A
:10175000906148F8FC1C81460144C4F8B030A8F5FB
:101760008470F8F744FE134B4B4448F8D83C0223EE
:1017700084F8E0303146C4F8B84084F8E35084F887
:10178000E1603846FFF7B0FF324684F8E2003946A0
:10179000A8F1CC000AF0D5FA2046FFF7E1FC284674
:1017A000BDE8F8830820FBE70920F9E71120F7E7F7
:1017B0009113030080C3C9012DE9F0410B78012B7F
:1017C00092B005460C4602D07846F5F7BFFC261DC0
:1017D00061783046FFF788FFA378834226D195F8D9
:1017E000A21028460027FFF793FDE77095F8A22086
:1017F000531C03F07F0322F07F02134385F8A230CD
:1018000094F801803146424601A80AF09AFA284627
:101810002770FFF7A1FDD5F8BC3142461B6801A92E
:1018200005F5D870984712B0BDE8F0810023237009
:10183000F9E7000038B5044610B97846F5F786FC9C
:10184000084D2B68013303D10748F9F713FB2860D3
:10185000012384F8B431054BC4F8B83104F5D870CD
:1018600038BD00BF0C2E0020BD150300B4C9030015
:101870002DE9FF4188461446054610B97846F5F72C
:1018800065FC14B97846F5F761FC2B681BBAEFF3D9
:10189000108172B6A44E34686CB901B962B6687929
:1018A00000F00303032B00F29C80DFE813F00B0031
:1018B0005801D7016202D4F89C209342EDD0D4F8AD
:1018C000C441E9E7002C00F08C8094F8A130032B90
:1018D00040F0878094F8E020002A40F08E802A793A
:1018E00094F8A2309A4230D1EB881B0A84F8E13098
:1018F00017220233B3FBF2F30133DBB2072B07D914
:10190000022104F5D87004B0BDE8F041FFF7D6BC61
:101910002B7A84F8E230A8F10908012384F8E0303A
:1019200084F8E330424605F1090104F1E4000AF0CD
:1019300008FA94F8E130984553D104F1E0012046CB
:1019400004B0BDE8F041FFF737BF784B1B6803F0E8
:10195000080328D2BBB1764B1B68042B13DD2F2163
:1019600074480AF0C9FAA8B12F2172480AF0C4FAE3
:10197000411C714B714AD3F80435009240F2C922E0
:101980000520FAF7D1FA2979204604B0BDE8F041E4
:10199000FFF7BEBC5C2167480AF0AEFA08B15C21D3
:1019A000E3E76449E5E7E3B1614B1B68012B18DD10
:1019B0002F2160480AF0A0FAB0B12F215D480AF04B
:1019C0009BFA411C5C4B94F8A220D3F80435029298
:1019D0002A7901925A4A009240F2CE220220FAF766
:1019E000A3FA04B0BDE8F0815C2152480AF084FA01
:1019F00008B15C21E2E74F49E4E74C4B1B68022A3F
:101A000003F0080373D1297994F8A220914220D2DF
:101A1000002BB8D0464B1B68042BB4DD2F21454862
:101A20000AF06AFA60B12F2142480AF065FA411CB7
:101A3000414B424AD3F80435009240F2D5229FE749
:101A40005C213C480AF058FA08B15C21ECE73949BE
:101A5000EEE725D9002BC4D0354B1B68012BC0DD28
:101A60002F2134480AF048FA88B12F2131480AF072
:101A700043FA411C304B94F8A220D3F8043502926B
:101A80002A7901922E4A009240F2DA22A6E75C21DE
:101A900028480AF031FA08B15C21E7E72549E9E76F
:101AA000002B9ED0224B1B68042B9ADD2F2121484E
:101AB0000AF022FA90B12F211E480AF01DFA411CAB
:101AC0001D4B94F8A220D3F8043502922A79019292
:101AD0001C4A0092052040F2DE2280E75C21154876
:101AE0000AF00AFA08B15C21E6E71249E8E7002BA0
:101AF0003FF477AF0E4B1B68012B7FF772AF2F219E
:101B00000C480AF0F9F908B32F210A480AF0F4F951
:101B1000411C094B0C4AD3F80435009240F2E322F1
:101B20000220FAF701FA5CE7A8470020F42D002014
:101B3000F02D002036CC030000100140C8C903007E
:101B400018CA030062CA03009BCA03005C21B5489F
:101B50000AF0D2F908B15C21D7E7B249D9E7002CE5
:101B60003FF43FAF94F8A130032B7FF43AAFAE4B74
:101B700094F8E0201B68022A03F008034BD129796E
:101B800094F8A320914246D1D3B1A84B1B68032BF4
:101B900016DD2F21A3480AF0AFF998B32F21A148F1
:101BA0000AF0AAF9411CA24B94F8E420D3F80435BA
:101BB0000192A04A0092042040F21E32FAF7B4F9D2
:101BC000002504F1A800C4F8B450F8F7F9FB20464A
:101BD000FDF7D5F994F8A32084F8E050531C03F0E6
:101BE0007F0322F07F02134384F8A3302046FFF7DF
:101BF000B3FBD4F8BC315B6804F5D87004B0BDE821
:101C0000F04118475C2187480AF076F908B15C2159
:101C1000C5E78449C7E7002B3FF4E3AE834B1B685D
:101C2000012B7FF7DEAE2F217E480AF065F960B107
:101C30002F217C480AF060F9411C7D4B7E4AD3F885
:101C4000043500924FF44C726AE75C2175480AF043
:101C500053F908B15C21ECE77249EEE7002C3FF440
:101C6000C0AE94F8A130032B7FF4BBAE94F8E060D3
:101C7000297994F8A230012E4CD1994225D194F8BB
:101C8000E33080080341DA073FF5ABAE1727013890
:101C900007FB0040A8F10602A91DF8300AF051F830
:101CA0006B7994F8E3209B0806FA03F3134394F846
:101CB000E1200232B2FBF7F70137DBB2FFB284F862
:101CC000E330BE400133B34236E6574B1B681B0777
:101CD0007FF587AE554B1B68012B7FF782AE2F2116
:101CE00050480AF009F960B12F214E480AF004F972
:101CF000411C4F4B514AD3F8043500924FF44272C5
:101D00000EE75C2147480AF0F7F808B15C21ECE7E0
:101D10004449EEE79942FFF437AE7FF662AE424B9C
:101D20001B681F077FF55DAE404B1B68012B7FF7DB
:101D300058AE2F213B480AF0DFF888B12F213948EF
:101D40000AF0DAF8411C3A4B94F8A220D3F8043593
:101D500002922A7901923A4A00924FF445723DE686
:101D60005C2130480AF0C8F808B15C21E7E72D494A
:101D7000E9E78008012875D023D3022800F0D3803A
:101D8000294B1B681B077FF52CAE284B1B68012BCA
:101D90007FF727AE2F2123480AF0AEF8002800F085
:101DA00027812F211F480AF0A7F8411C6A79204B90
:101DB0009208D3F804350192224A009240F29232FE
:101DC000A4E0B8F1160F7FF40CAEF5F7F7F9102286
:101DD0000146A81D09F0A6FF00287FF402AE002CE2
:101DE00040F01181EFF3108372B6346824B9002BF0
:101DF0007FF4F7AD62B6F4E594F8A120012A00F073
:101E00000081D4F8C441F1E75C2106480AF074F877
:101E100008B15C211AE103491CE10023C4F89C309D
:101E2000DFE500BF36CC0300F42D0020F02D0020AC
:101E300000100140CDCA0300E8CA030008CB03002C
:101E400039CB03000FCC0300032B7FF4CAAD94F809
:101E5000E030002B7FF4C5AD204604B0BDE8F04172
:101E6000FFF768BA002C3FF4BCADB8F1060F7FF461
:101E7000B8AD94F8A130814D022B2AD12046FDF750
:101E80007EF814212046FDF750F82B681D0740F11D
:101E9000EB807B4B1B68032B40F3E6802F217948B6
:101EA0000AF02AF860B12F2176480AF025F8411C83
:101EB000754B764AD3F80435009240F26E32D0E08A
:101EC0005C2170480AF018F808B15C21ECE76D4914
:101ED000EEE72B6818077FF584AD694B1B68012B73
:101EE0007FF77FAD2F2167480AF006F890B12F21C8
:101EF00064480AF001F8411C634B94F8A120D3F820
:101F000004350192624A009240F276320220FAF7DA
:101F10000BF866E55C215B4809F0EEFF08B15C2137
:101F2000E6E75849E8E7002C3FF45BADB8F1070F4E
:101F30007FF457AD94F8A130504E023B012B30D8BE
:101F400094F8E030022B03D104F1A800F8F738FA36
:101F5000A9792046FFF792F8336819077FF541AD5C
:101F6000474B1B68032B7FF73CAD2F21454809F0F9
:101F7000C3FF68B12F21434809F0BEFF411C424B0B
:101F8000444AD3F80435009204204FF46272C8E545
:101F90005C213C4809F0B0FF08B15C21EBE739490E
:101FA000EDE733681A077FF51CAD354B1B68012B35
:101FB0007FF717AD2F21334809F09EFF78B12F210D
:101FC000304809F099FF411C2F4B94F8A120D3F819
:101FD00004350192304A009240F28D3296E75C213E
:101FE000284809F089FF08B15C21E9E72549EBE7BA
:101FF0005C21244809F080FF08B15C21D2E6214928
:10200000D4E603B962B694F8A130012B7FF41CAF7B
:102010002B681BBA2046C4F89C301421FCF785FFBE
:102020002046FFF787F900287FF4F7AE134B1B68B3
:102030001E0719D5124B1B68032B15DD2F211148E4
:1020400009F05AFF00283FF4DFAE2F210D4809F0B8
:1020500053FF411C0C4B0D4AD3F80435009240F25B
:1020600051320420F9F760FF032384F8A1302046A1
:10207000FFF772F9D4F8BC319B68BDE5F42D002060
:10208000F02D002036CC0300001001407FCB030070
:1020900095CB0300C6CB0300DCCB030030B54B6807
:1020A0005D688378092B85B0044637D12B78032BE4
:1020B0000BD8DFE803F05D02025D4068836802210F
:1020C0001B699847022005B030BD2A4B1B689A0453
:1020D00019D5294B1B68042B15DD2F21274809F042
:1020E0000BFF90B12F21254809F006FF411C244B1E
:1020F0002A78D3F804350192224A009205204FF441
:102100007372F9F711FFA078DDE75C211B4809F035
:10211000F3FE08B15C21E6E71849E8E7154B1B68B8
:102120009B04F0D5144B1B68032BECDD2F211348C7
:1021300009F0E2FE98B12F21104809F0DDFE411CA4
:102140000F4BA278D3F8043502922A7801920E4AF6
:10215000009204204FF47472F9F7E6FED3E75C2195
:10216000064809F0C9FE08B15C21E5E70349E7E745
:102170000720A8E7F42D0020F02D0020DACE030080
:102180000010014012CF03002BCF030037B54B687E
:1021900082785D68654B1B680A2A044603F4005385
:1021A0004AD00B2A40F09B802A78052A23D1BBB164
:1021B0005F4B1B68042B13DD2F215E4809F09CFE4A
:1021C00080B12F215B4809F097FE411C5A4B5B4AB6
:1021D000D3F80435009240F2E7220520F9F7A4FE77
:1021E000022071E05C21534809F086FE08B15C21B1
:1021F000E8E75049EAE7002BF2D04D4B1B68042B6F
:10220000EEDD2F214B4809F077FE60B12F214948C0
:1022100009F072FE411C484B494AD3F8043500923C
:102220004FF43B72D9E75C21424809F065FE08B1E2
:102230005C21ECE73F49EEE72A78052A23D1BBB1C0
:102240003B4B1B68042B13DD2F213A4809F054FE49
:1022500080B12F21374809F04FFE411C364B394AD7
:10226000D3F804350092052040F2F322F9F75CFE22
:10227000072029E05C212F4809F03EFE08B15C21CF
:10228000E8E72C49EAE7CBB1294B1B68042B15DDA5
:102290002F21284809F030FEC0B12F21254809F030
:1022A0002BFE411C244B2A78D3F804350192264A90
:1022B000009205204FF43E72F9F736FE606883689D
:1022C00002211B699847062003B030BD5C211948E4
:1022D00009F012FE08B15C21E0E71649E2E7CBB154
:1022E000134B1B68012B15DD2F21124809F004FE4A
:1022F00090B12F210F4809F0FFFD411C0E4BA27831
:10230000D3F804350192114A0092022040F2FE22D5
:10231000F9F70AFEA078D7E75C21064809F0ECFD42
:1023200008B15C21E6E70349E8E700BFF42D00208F
:10233000F02D0020DACE030000100140B4CD0300E0
:10234000CCCD0300E8CD0300FFCD03001DCE03007C
:1023500030B583780C2B85B004460D4602D1C07889
:1023600005B030BD154B1B689B041BD5144B1B6877
:10237000032B17DD2F21134809F0BEFDA0B12F213B
:10238000104809F0B9FD411C0F4BA278D3F8043571
:1023900002922A7801920D4A0092042040F2ED1236
:1023A000F9F7C2FDA078DBE75C21064809F0A4FD3F
:1023B00008B15C21E4E70349E6E700BFF42D002003
:1023C000F02D0020DACE030000100140AECE030055
:1023D0001FB583788B42044621D0C370154B8170A2
:1023E0001B689B041BD5144B1B68042B17DD2F2186
:1023F000124809F081FDA0B12F21104809F07CFDA1
:10240000411C0F4BA278D3F804350292E278019276
:102410000C4A0092052040F20112F9F785FD04B044
:1024200010BD5C21054809F067FD08B15C21E4E7B7
:102430000249E6E7F42D0020F02D0020DACE03005B
:10244000001001409ECC03002DE9F043744D2B7821
:1024500095B00446002B40F09880012371482B7002
:10246000F6F798FE704FDFF8C481DFF8CC9106468E
:1024700002A93846F6F762FE9DF80830002800F001
:102480008780092B3FD0002E3DD06648F6F782FEAC
:10249000864238D102A96348F6F750FE10B178465B
:1024A000F4F754FE9DF80830092B20D05F4B1B68D1
:1024B0009A041CD55E4B1B68042B18DD2F215D4848
:1024C00009F01AFD002800F099802F21594809F0E1
:1024D00013FD411C584B9DF80820D3F80435019298
:1024E000564A0092052040F2F132F9F71DFD9DF8A1
:1024F0000820534B02A953F8223020469847014642
:102500002046FFF765FF94F82830002B3BD09DF85C
:102510000830092B37D00E2B35D0A378022B32D1BF
:1025200000238DF80830414B1B689B041BD5404BA2
:102530001B68042B17DD2F213E4809F0DDFC002825
:1025400065D02F213B4809F0D7FC411C3A4B9DF840
:102550000820D3F804350192384A0092052040F251
:10256000FE32F9F7E1FC33220021364809F0F4FB92
:102570003548FEF739FA10B17846F4F7E7FD032144
:102580002046FFF725FF00232B7015B0BDE8F08330
:10259000092B1DD0D8F80030990419D5244B1B689D
:1025A000042B15DD2F21234809F0A6FCE8B12F21CB
:1025B000204809F0A1FC411C9DF80820D9F80435F9
:1025C00001921E4A0092052040F2E532F9F7ACFC78
:1025D0009DF808201A4B02A953F82230204698474C
:1025E00001462046FFF7F4FE42E75C21114809F05E
:1025F00083FC08B15C21DBE70E49DDE75C210D4877
:1026000009F07AFC08B15C2160E70A4962E75C21C5
:10261000084809F071FC08B15C2193E7054995E78A
:10262000AC470020F047002094480020F42D002003
:10263000F02D0020DACE03000010014069CF030026
:102640002CCD0300384900209128030030B51546F1
:1026500095B00C4611B97846F4F778FD012D2ED0CF
:1026600005D3022D67D07846F4F770FD58E0454B4E
:102670001B68990454D5444B1B68042B50DD2F2153
:10268000424809F039FC88B12F21404809F034FC58
:10269000411C3F4BA289D3F8043501923D4A009278
:1026A000052040F23112F9F73FFC39E05C21374850
:1026B00009F022FC08B15C21E7E73449E9E7314B36
:1026C0001B689A0419D5304B1B68012B15DD2F218F
:1026D0002E4809F011FC28B32F212C4809F00CFCDE
:1026E000411C2B4BA289D3F8043501922A4A00924F
:1026F00002204FF49B72F9F717FC0021482202A830
:1027000009F02AFB0E2302A924488DF80830F6F7B9
:10271000EDFC10B17846F4F719FD2046FFF794FE62
:1027200015B030BD5C21194809F0E6FB08B15C2109
:10273000D3E71649D5E7134B1B689B04F0D5124B22
:102740001B68012BECDD2F21104809F0D5FB78B177
:102750002F210E4809F0D0FB411C0D4BA289D3F864
:10276000043501920E4A009202204FF49F729AE7BC
:102770005C21064809F0C0FB08B15C21E9E7034988
:10278000EBE700BFF42D0020F02D0020DACE03008F
:102790000010014088CF0300A2CF0300944800201E
:1027A000C7CF030030B593B00D460469002148221D
:1027B000684609F0D1FA0723694608488DF80030C9
:1027C0008DF80450F6F792FC10B17846F4F7BEFC91
:1027D0002046FFF739FE13B030BD00BF94480020FB
:1027E00010B592B0046900214822684609F0B4FA95
:1027F0000523694606488DF80030F6F777FC10B1DE
:102800007846F4F7A3FC2046FFF71EFE12B010BD79
:102810009448002010B592B004690021482268460F
:1028200009F09AFA0B23694606488DF80030F6F74E
:102830005DFC10B17846F4F789FC2046FFF704FEF2
:1028400012B010BD9448002070B50569AB78072B15
:1028500092B0164601D0092B15D112AC0C2304F806
:10286000483D32460DF1060009F06BFA2146074853
:10287000ADF80460F6F73AFC10B17846F4F766FC60
:102880002846FFF7E1FD12B070BD00BF944800205C
:1028900010B5037892B0A3B912AC092304F8483DEF
:1028A000011D1C2201A809F04CFA21460648F6F742
:1028B0001DFC10B17846F4F749FC044B1868FFF78B
:1028C000C3FD12B010BD00BF944800206C49002029
:1028D00008B58378093B032B09D840688368022137
:1028E0001B6998470448F6F752FC022008BD784659
:1028F000F4F72CFCF9E700BFF047002070B58382A5
:10290000012316464FF6FF750B4A8375022381811A
:10291000C5810261C3750446F7F75AFBA683A0611F
:10292000E58304F1080002F0F3FE20B17846BDE82B
:102930007040F4F70BBC70BDAD47002073B53C4D43
:102940002A68920406460C461AD53A4B1B68042B9B
:1029500016DD2F21384809F0CFFA00283DD02F216D
:10296000354809F0C9FA411C344BA279D3F8043533
:102970000192334A009205204FF46672F9F7D4FAB7
:10298000B378072B3BD0092B4DD12B689B0419D56D
:10299000284B1B68042B15DD2F21274809F0ACFAC2
:1029A00020B32F21244809F0A7FA411C234B227899
:1029B000D3F804350192234A009205204FF4677240
:1029C000F9F7B2FA21462048F6F790FB10B17846A5
:1029D000F4F7BCFBB07802B070BD5C21164809F07A
:1029E0008BFA08B15C21BBE71349BDE75C211248B3
:1029F00009F082FA08B15C21D4E70F49D6E7A38831
:102A0000412B02D97846F4F7A1FBA2880F48A11DFB
:102A100009F097F93046A38848F260021221FFF7C7
:102A20006DFF0920D7E77846F4F790FB0220D2E744
:102A3000F42D0020F02D0020DACE0300001001401C
:102A400057CE03006ECE0300F0470020AD470020B4
:102A500013B58378082B04460BD11A4B00221A7049
:102A60001121012348F26002FFF748FF092002B05C
:102A700010BD154B1B689B0419D5144B1B68012B0B
:102A800015DD2F21124809F037FA90B12F21104897
:102A900009F032FA411C0F4BA278D3F804350192A9
:102AA0000D4A0092022040F29132F9F73DFAA078E7
:102AB000DDE75C21064809F01FFA08B15C21E6E772
:102AC0000349E8E7AD470020F42D0020F02D002059
:102AD000DACE03000010014041CE030013B5837825
:102AE000052B04460ED11C4B00221A70FF225A708F
:102AF00048F26C01022348F26302FFF7FFFE0A204E
:102B000002B010BD154B1B689B0419D5144B1B68F4
:102B1000042B15DD2F21134809F0EEF990B12F2178
:102B2000104809F0E9F9411C0F4BA278D3F804359D
:102B300001920E4A0092052040F27E22F9F7F4F944
:102B4000A078DDE75C21074809F0D6F908B15C21DF
:102B5000E6E70449E8E700BFAD470020F42D002078
:102B6000F02D0020DACE03000010014085CD0300D7
:102B700037B58378053B04460D46052B56D8DFE86C
:102B800003F00A4B4B4B1A03008802F08DFD10B185
:102B90007846F4F7DBFA264B01221A702A795A702C
:102BA0002046022348F2630248F26C01FFF7A6FEBA
:102BB0000B2003B030BD1F4B1B689B0419D51E4B67
:102BC0001B68042B15DD2F211C4809F095F9D0B1A5
:102BD0002F211A4809F090F9411C194B2A78D3F893
:102BE00004350192174A0092052040F2C122F9F7FC
:102BF0009BF929461448F6F779FA10B17846F4F7AC
:102C0000A5FA0920D5E75C210C4809F075F908B14F
:102C10005C21DEE70949E0E7054B01221A700A79D9
:102C200012B902211970BAE70321FBE70220C0E7BD
:102C3000AD470020F42D0020F02D0020DACE030057
:102C4000001001406ECE0300F04700202DE9F04354
:102C500006468078032889B00C4605D0042800F089
:102C6000838009B0BDE8F083DFF850810025474636
:102C700008F1010915F8083043B11022211D09EBB4
:102C8000050009F04FF808B9B078EAE71135332D9F
:102C9000F0D13D7845B37B7C2BB397F82230002BE5
:102CA0003ED03E4B1B689B043CD401233C4A8DF82C
:102CB0000C300492ADF8183003AA002302248DF8DA
:102CC0001A3005928DF81B40F7F782F904A9079096
:102CD000308801F09DFE30F0040302D07846F4F70E
:102CE00035FA2046BDE7012505EB051001233B54CD
:102CF0001844043438442B4F1022214609F021F89F
:102D000010222146384609F01CF83046112348F2BB
:102D10006D0248F26A013D74FFF7F0FD0C20A0E758
:102D20000225E1E7204B1B68042BBEDD2F211F4845
:102D300009F0E2F878B12F211C4809F0DDF8411CB8
:102D40001B4B1C4AD3F804350092052040F22F3269
:102D5000F9F7EAF8A9E75C21144809F0CDF808B1C1
:102D60005C21E9E71149EBE70434102221461248BF
:102D700008F0D8FF0746002886D10A4D10222146C8
:102D8000284608F0DEFF3046112348F26D0248F273
:102D90006A012F74FFF7B2FD0D2062E7F42D0020C9
:102DA0006780FFFFAD470020F02D0020DACE030042
:102DB0000010014050CF030039490020384900205D
:102DC00008B501F051FE30F0040304D07846BDE8A8
:102DD0000840F4F7BBB908BD70B588B03B4B04930D
:102DE00003AB05930123ADF8183000238DF81A309A
:102DF000022304468DF81B300D46F7F7E9F80790DB
:102E0000A078431F052B38D8DFE803F01C37032DCB
:102E1000371C6B6894F829205B681B789A4222D093
:102E2000606884F829306B688268596816681A8966
:102E3000B04748B98DF80C0004AA20886968FFF7EC
:102E4000BFFF082008B070BD6068836802211B695D
:102E500098470223208869688DF80C3004AAFFF790
:102E6000AFFF0620EEE70023208869688DF80C305C
:102E700004AAFFF7A5FFA078E4E7154B1B689B04A5
:102E800019D5144B1B68032B15DD2F21124809F0AF
:102E900033F890B12F21104809F02EF8411C0F4B48
:102EA000A278D3F8043501920D4A0092042040F232
:102EB0007B32F9F739F80123D6E75C21064809F09F
:102EC0001BF808B15C21E6E70349E8E76080FFFFF3
:102ED000F42D0020F02D0020DACE03000010014078
:102EE00081CE0300F0B5324B4D681B68C7B013F4B8
:102EF000005F07460E4605F1040505AC33D02D4BA7
:102F00001B68042B2FDD2C4B28461968002310F872
:102F1000012B4FEA121C02F00F0211F80CC004F84A
:102F200003C011F802C0E2180233202B82F801C05E
:102F3000EDD100232F21214884F8203008F0DCFF58
:102F400068B32F211D4808F0D7FF411C1C4B1D4AB8
:102F5000D3F8043501921C4A009202944FF4CE72C9
:102F60000520F8F7E1FF29461022184808F0E9FE8D
:102F7000174904AA0023C4E900128DF81030012279
:102F8000A37202232281E372F7F722F82246E0605F
:102F900071683888FFF714FF042047B0F0BD5C214A
:102FA000064808F0A9FF08B15C21CBE70349CDE74B
:102FB000F42D0020F02D0020F82D0020DACE0300A3
:102FC00000100140CCCE03000EC10300394900209F
:102FD0006780FFFF30B583780222023B934287B0BF
:102FE00004460D4603D8FFF77DFF07B030BD0C4BFC
:102FF000029301AB03930123ADF8103000238DF849
:1030000004208DF812308DF81320F6F7E1FF02AAA4
:10301000059069682088FFF7D3FEA078E5E700BF38
:103020006780FFFF2DE9F0418378DFF89080023B55
:10303000022586B0AB4204460E4601AF23D80021DC
:1030400033221C4808F088FE002301228DF804304A
:10305000ADF810208DF81230CDE902878DF81350AD
:10306000F6F7B6FF02AA059071682088FFF7A8FE60
:103070001148FDF7B9FC10B17846F4F767F8032062
:1030800006B0BDE8F0810123ADF8103000238DF8C3
:1030900012308DF80450CDE902878DF81350F6F701
:1030A00097FF02AA059071682088FFF789FEA07833
:1030B000E6E700BF38490020912803006780FFFF42
:1030C0002DE9F0410646A0B00C46154612B97846E7
:1030D000F4F73CF82B88B34202D07846F4F736F880
:1030E000554B02AA03F1300C17461868596816466A
:1030F00003C6083363453246F7D12188122909D126
:103100000A238DF838302389013B402B14D920B095
:10311000BDE8F0810022062000FB02F3FE5A8E4239
:1031200036D120AA1344228933F8761C9142EED17D
:1031300013F8743C8DF8383020AE4FF6FF7826F83F
:103140007C8D2888314601F0BBFC60B9BDF80400D5
:10315000404508D0394603F0C1FA20B9BDF80A202D
:10316000E3899A423ED04FF6FF73ADF80A302388C8
:1031700048F263029342CAD00ED848F260018B42F3
:10318000C5D04CD8122B3AD07846F3F7DFFFBEE714
:103190000132082AC0D1BAE748F2660293421CD82D
:1031A00048F26502934248F267033ED3ADF8083017
:1031B00001230222ADF8103000238DF8042003967D
:1031C0008DF812308DF81320F6F702FF3A4605907D
:1031D00021462888FFF7F4FD99E748F26D029342F3
:1031E00095D0D1E70EA915480F94F5F77FFF10B1E0
:1031F0007846F3F7ABFF2846FFF726F987E7042365
:103200008DF80430ADF808100123ADF8103000231C
:103210008DF81230022303968DF81330D4E706237D
:103220008DF80430ADF80820EEE703228DF8042075
:10323000ADF80830E8E700BF6ECC030094480020EA
:1032400070B54B685B6888B01E78324B04930446B7
:1032500003AB059300220223ADF818308DF81B3024
:103260000D468DF81A20F6F7B3FEA3780790063BBB
:10327000042B1ED8DFE803F0120A0A03030020889B
:1032800002F012FA10B17846F3F760FF60688368C5
:10329000022E31461B6928BF02219847052320884A
:1032A00069688DF80C3004AAFFF78AFD062008B083
:1032B00070BD194B1B689B0419D5184B1B68012B5B
:1032C00015DD2F21164808F017FED0B12F21144824
:1032D00008F012FE411C134BA278D3F8043501927A
:1032E000114A0092022040F2A622F8F71DFE0323A5
:1032F000208869688DF80C3004AAFFF761FDA0787A
:10330000D5E75C21064808F0F7FD08B15C21DEE74F
:103310000349E0E76380FFFFF42D0020F02D00203B
:10332000DACE03000010014068CD030070B5837849
:1033300015469A1E022A88B004460E4605D90B3B54
:10334000022B02D97846F3F701FF60682B4A8368A5
:103350002946DB6898470546E0B9294B049303AB3F
:1033600005930223ADF818308DF81B308DF81A0044
:10337000F6F72EFEFF2384F82930079004AA208850
:103380003168ADF80C50FFF71BFDFDF735FB05204C
:1033900008B070BD1B4B1B689B0418D51A4B1B68EB
:1033A000012B14DD2F21194808F0A6FDE0B12F21D3
:1033B000164808F0A1FD411C154B164AD3F80435F8
:1033C0000092019540F213220220F8F7ADFD124A57
:1033D000022313705370204648F2630248F26C01D6
:1033E000FFF78CFA0B20D3E75C21084808F084FD36
:1033F00008B15C21DCE70549DEE700BF00879303E5
:103400006380FFFFF42D0020F02D0020DACE0300B2
:1034100000100140BCCC0300AD470020F0B54B6864
:1034200087B05E68234B029301AB0393002702230E
:103430000446ADF810308DF813300D468DF812703B
:10344000F6F7C6FD0590A078831E0B2B19D8DFE890
:1034500003F013131A252E2E2E182E0C0C061022F4
:103460003146154808F05EFCA0B9208802F01CF92E
:1034700010B17846F3F76AFE3246291D2046FFF761
:1034800055FF07B0F0BD102231460B4808F04AFC4A
:103490000028F1D00423ADF8043001E0ADF8047049
:1034A0002088696802AAFFF78BFCA078E9E701236E
:1034B000F1E700BF6380FFFF3949002070B58278D3
:1034C0000123033A86B09A420E460546194901AADD
:1034D00018D88DF80430ADF8103002240023CDE95F
:1034E00002128DF812308DF81340F6F771FD02AA22
:1034F000059071682888FFF763FCFDF77DFA204688
:1035000006B070BDADF81030002303208DF81230E6
:103510000223CDE902128DF813308DF80400F6F77E
:1035200057FD02AA059071682888FFF749FCA87822
:10353000E6E700BF6780FFFF2DE9F041884686B0CF
:103540000446002830D08578002D2FD11848194B1B
:10355000036048260227C0E90167F5F7ADFD16486C
:10356000164B8760C0E90036F5F7A6FD144BADF8A1
:1035700004801D70134B0093134B029321460923C3
:103580006846CDE90334059501F06CF948B9238804
:1035900023810E4B63620E4B23620123A3700D4BFC
:1035A000186006B0BDE8F0810E20FAE70820F8E7C1
:1035B00094480020A8480020F0470020044800203C
:1035C000AC470020FFFF0400E4CC03004D260300BD
:1035D000008793036C49002058B18378012B0AD1EE
:1035E000064A13683BB902218170C1701060184609
:1035F00070470E2070470820704700BF6C490020BC
:1036000031B1044B4160CB604368186100207047C2
:103610000E20704778CF030038B5837803F003029B
:103620000446032A22D8DFE802F00214191D9B0881
:10363000154A1648126813440268A3600021EAB1D3
:1036400095685D1B002D16DAD1B91146E160046062
:1036500038BD9B0803EB83035B00E9E79B0864220A
:103660005343E5E79B0841F27072F9E77846F3F7B8
:103670006DFD0023DCE71146D268E0E70029E5D0C4
:10368000CC60E260E4E700BF884900209049002058
:1036900008B5032809D8DFE800F00D020406064843
:1036A00008BD0648FCE70648FAE77846F3F74EFD02
:1036B0000020F5E70348F3E740420F0080969800AA
:1036C0000046C323A08601002DE9F041574D2B7819
:1036D000A3B1574B574E5C68F6F7B2FE241A307808
:1036E000FFF7D6FF3278544B001B002A40D14CF232
:1036F000503290423CD91A6801321A60DFF8488192
:10370000D8F80020002A00F087804A4E937830785D
:1037100003F003038342344664DD474B97681B681C
:10372000FB1A464F5F43FFF7B3FFD8F80030B7FBF3
:10373000F0F09F78C7F30107FBB2022B1FD031D8FE
:10374000012B47D10A22B0FBF2F302FB1300002841
:1037500040D1F6F775FE00F5742101F51071377050
:103760002B78002B50D03248BDE8F041F6F73FBE31
:103770001A683249B0FBF1F010441860BEE73378A4
:1037800063B96422B0FBF2F302FB130010BBF6F73F
:1037900057FE2B49022301442370E1E7012B19D185
:1037A0000A22EFE7337863B941F27072B0FBF2F3AB
:1037B00002FB130070B9F6F743FE224903230144CC
:1037C000EAE7012B02D14FF41672EFE7022B01D189
:1037D0003C22EBE7F6F734FE06462078FFF758FF69
:1037E0003118BDE7F6F72CFED8F80030044698787B
:1037F00000F00300FFF74CFFD8F800309B78C3F3CC
:10380000010321183370ABE70948012341602B7095
:10381000BDE8F041F6F7B2BD2B7823B10448BDE80E
:10382000F041F6F7CDBDBDE8F08100BF8C49002026
:10383000704900208D49002088490020A0860100A1
:10384000809698000046C323904900202DE9F3415B
:10385000244B1B78032B2AD8DFE803F0021B1F231D
:10386000214A136801331360204B214E1E4D002264
:103870001A70B04634683CB1A3682A6893421AD0E3
:103880002A689B1A002B16DBFFF71EFF02B0BDE86B
:10389000F081154A13680A33E5E7134A1368643365
:1038A000E1E7114A136803F5BB531033DBE77846B1
:1038B000F3F74CFCD8E72788E368C8F8003002A982
:1038C000002341F8043D384601F094FC10B17846DD
:1038D000F3F73CFC38466368019998472046FFF7A8
:1038E0009BFEC7E78D490020884900208C490020B5
:1038F0009049002010B5084C18220021204608F0FD
:103900002BFA064B064AA36000231360054A136096
:10391000054A137010BD00BF704900204D380300E8
:1039200088490020904900208C490020F8B50F46B6
:103930001646044610B97846F3F708FC124DF7F71F
:1039400029FA2B6800220BB1A34216D1A17867F3A4
:10395000010166F38701A1709BB1DB6882B92B601E
:103960002EB12046FFF758FE2B689C4201D1FFF78D
:10397000ABFEBDE8F840F7F74DBA1A46DB68E2E760
:10398000D360002EF5D0ECE7904900204FF6FF7091
:103990000D49F0B500232424064604FB03129DB212
:1039A00092F8397057B1B0420CD004FB0017126B7B
:1039B0003F6BD21B30EA220028BF28460133032B7D
:1039C000EBD1F0BD2846F9E79449002038B5154CF5
:1039D000242303FB0043054693F8393013B9784696
:1039E000F3F7B4FBB4F8843013B97846F3F7AEFBC1
:1039F000242202FB0543002183F83910B4F88430F7
:103A0000013B9BB2A4F884301BB94FF6FF73A4F8B6
:103A1000863002FB0544A06AFBF72DF80023A36261
:103A200038BD00BF944900202DE9F84F2D4DB5F861
:103A30008430064613B97846F3F788FB2A4C06F51E
:103A40007A7B00274FF0010948F2111A637C1FFAB4
:103A500087F8C3B1A368A3EB0B03002B13DAA38889
:103A60002268A4F11001404600F0DAFE102828D8A0
:103A700009FA00F313EA0A0F26D11C4A13421FD099
:103A80004046FFF7A3FF0137032F04F12404DDD1E3
:103A9000FFF77CFFB5F88430A5F88600FBB102285B
:103AA00002D97846F3F752FBB5F88630242202FBA0
:103AB00003531B6B9A1B48BFF21AEA60BDE8F88FEC
:103AC00010B17846F3F742FB237C013BDBB2237451
:103AD000002BD5D0D4E902321344A360D3E7EB60C6
:103AE000ECE700BF94490020BC490020A00201007F
:103AF00010B5064C88220021204608F02DF9044B11
:103B0000A3604FF6FF73A4F8863010BD94490020DF
:103B1000293A03002DE9F047022806468846174651
:103B20009A46BDF8209002D97846F3F70FFBB8F11A
:103B3000000F02D17846F3F709FB17B97846F3F77F
:103B400005FB98F800305B0702D17846F3F7FEFAE0
:103B5000BAF1000F02D17846F3F7F8FAB9F1000F85
:103B600002D17846F3F7F2FA274C242303FB0643ED
:103B700093F8393013B13046FFF728FFF6F760FCB1
:103B8000844697E80F00242505FB064505F1180E2D
:103B90008EE80F00C5F828A0A5F82C9098F8003002
:103BA000C3F3020385F8383098F80000C3084CF2DC
:103BB000503003FB0000012385F83930B4F884301D
:103BC0006863604401332863A4F88430FFF7DEFEA5
:103BD000B4F88630834201D19E4213D14FF6FF7371
:103BE0009842A4F8860002D17846F3F7AFFAB4F809
:103BF00086300548242202FB0344216BBDE8F047D0
:103C0000F6F7F5BBBDE8F087944900204A09012387
:103C100001F01F0103FA01F150F82230194214BFDC
:103C20000120002070474FF6FF72B2EB104F82B0B8
:103C300083B215D113F47F4007D003F44043B3F5AA
:103C4000004F14BF0020012006E023F07F022AB9B4
:103C50007F3B18BF0123184602B070470346FAE7BE
:103C600023F03F03C02BECE702289FBF054B38220F
:103C700002FB003090F8340094BF00F001000020F7
:103C8000704700BF584A0020004700004388C3F334
:103C90000B03022B02D9002008707047064A12F865
:103CA000331041F0010102F8331002EBC303426804
:103CB000D2435A6001207047004B00204388C3F371
:103CC0000B0313B1002008707047024B82881A80E2
:103CD000012070471E4A002007B513464FF470427A
:103CE000ADF804200122ADF806001A7003480A4618
:103CF00001A9F8F759FC03B05DF804FB304A002035
:103D000070B51C460B89B3F5BE7F0546164606D333
:103D1000092323602068B0FA80F0400970BDFFF7E6
:103D2000A3FF28B10C48382303FB050083890BB19E
:103D30000523EEE73EB982884FF6FF739A4206D01C
:103D4000C2889A4203D00868FFF76DFF08B90723BD
:103D5000DFE70023DDE700BF584A00207846F3F78D
:103D6000F5B9000008B5094B094800221A70094B43
:103D700001221A70F8F706FC20B10748BDE8084098
:103D8000F8F73CBE054B187008BD00BF554A00202F
:103D9000304A0020544A0020202E00201C4A0020D7
:103DA00010B5A82200210E4807F0D6FF06220021F8
:103DB0000C4807F0D1FF182200210B4807F0CCFF78
:103DC000074B4FF6FF7203F1A80103240120DA80AC
:103DD0009A80DC819A81988438338B42F7D110BD68
:103DE000584A00201E4A0020004B00202DE9F04FC9
:103DF000D5B0044607A80D4604929946BDF87881CF
:103E000002F0F0FB704BBDF81E10049A382000FB46
:103E100004308789B94205D84FF0100A504655B092
:103E2000BDE8F08FBDF81C10049108AE002A00F028
:103E3000968002F10C0103C9B2F81EB0B2F824A0BA
:103E4000127F86E80300002A00F09980382202FBE6
:103E50000434647CFF2C01D15C4B1C78B9F1000F59
:103E600002D17846F3F772F9B8F1000F02D1784623
:103E7000F3F76CF90AAB184624220021059307F0EA
:103E80006BFF504610AA594603F0D8F8059B8246AE
:103E90000028C3D1049A9C7296E803001744AA7ABA
:103EA000DA72EA7A1A7383E80300EA681F815146DE
:103EB0001846C3F81090A3F814801A62F6F77EF83B
:103EC00082460028AAD1424C226892041AD5414B5E
:103ED0001B68042B16DD2F213F4808F00DF8002841
:103EE0004FD02F213C4808F007F8411C3B4B2A8853
:103EF000D3F8043501923A4A009205204FF4CE726D
:103F0000F8F712F823689B0488D5324B1B68042B02
:103F100084DD2989334B8029186828BF802100233C
:103F200013AC8B4236D100222F212B4804F81320EA
:103F300007F0E2FF00283BD02F21274807F0DCFFE5
:103F4000411C264B284AD3F804350192274A009297
:103F5000029440F29D120520F7F7E6FF5EE7B0F805
:103F600004B0C0880593314602F0B8FB48BB7288A4
:103F7000002A3FF451AF4FF6FF7A059B66E71446DF
:103F80006CE75C21144807F0B7FF08B15C21A9E792
:103F90001149ABE76A68D25C160902F00F02865D30
:103FA00004F81360865C04EB430201335670B8E7F3
:103FB0005C21094807F0A0FF08B15C21BDE7064974
:103FC000BFE74FF0050A29E7584A0020402E00209D
:103FD000F42D0020F02D002099D0030000100140A6
:103FE000B5D00300F82D0020C9D003000EC1030096
:103FF00030B5012A8DB004460D4604D17846F3F75A
:10400000A5F80DB030BD022AF8D0032AF9D12C2230
:10401000002101A807F0A0FE11238DF8043002232F
:104020008DF80830E368059301A82369039506938A
:10403000F4F766FBE5E700002DE9F047474B1B78F6
:10404000002B00F08880F6F7A5FE454B1B78BBB926
:10405000444C23786BB9062201214348F8F751FB01
:1040600070B103220125C58002818280F8F778FBB8
:10407000257000243D4EDFF8F0802546A1B21DB129
:104080003B48F8F7BBFC5EE016F8343003F003035E
:10409000032B4FEAC40711D1042241F4405140469A
:1040A000F8F72FFB002852D0F3195B68DB4343601D
:1040B000F8F756FBBB5D23F00203BB550134032C1C
:1040C000DCD1002DDCD12B4C63799B070FD502226C
:1040D0004FF480512448F8F714FB0028D0D02288F0
:1040E0008280F8F73DFB637923F002036371DFF808
:1040F0008880DFF8749000243827A1B2002DBFD14A
:1041000007FB048696F8343003F00303032B15D124
:10411000142241F400514846F8F7F3FA8246C0B140
:1041200014223146043007F00CFE5046F8F718FB15
:1041300096F8343023F0020386F834300134032C2F
:10414000DBD1002D9CD1BDE8F047F6F763BE112509
:10415000B4E71125F2E7BDE8F08700BF1C4A002054
:10416000544A0020554A0020304A0020004B0020CD
:10417000302E00201E4A0020584A00204A0901F033
:104180001F034FF0FF31994050F82230194009D0F9
:104190004B420B4004495943C90E044B585C00EB99
:1041A000421070470520704731B57C0779D0030075
:1041B0002DE9F04F85B08146924698460E9F0D46F8
:1041C00011B97846F2F7C2FF03AB5246294648467A
:1041D000FFF796FD18B9039805B0BDE8F08F698820
:1041E0002B884FF6FF72914230D1B3F5807F34BFF8
:1041F0004FF0010B4FF0020B2E895E44B6B23046F1
:10420000FAF737FC044680B36A882B884FF6FF70B4
:104210008242D9B21DD06270120A2170A2702A891E
:10422000696804EB0B0007F08CFD009623465246AC
:1042300029464846FFF7DAFD039018B9B8F1000F98
:1042400000D077B92046FAF716FCC4E74FF0030B0D
:10425000D2E713F47F4F1DBF1B0A237061702170DA
:10426000DDE7C8F800403E80B6E70420B4E7000070
:1042700038B54388C3F30B03022B044610D8028AD7
:1042800072B91B48382202FB0302D589628A022DCB
:1042900009D8954204D1174D15F83250ED0704D4D2
:1042A0000020087038BD022A06D8124D15F83210C9
:1042B00041F0040105F8321038251422211D05FBB8
:1042C000030007F03EFDA188238A4FF6FF7291425A
:1042D000094A4FF0060101FB03234FF001000BBF19
:1042E0009A78DA78013201320CBF9A70DA70D9E725
:1042F000584A0020004B00201E4A00202DE9F04FB4
:1043000087B006AB062243F80C2D012104AA5548BC
:10431000F8F7C0F9044628B1534B0120187007B0D4
:10432000BDE8F08FBDF81230012B09D04F4B1B6850
:104330009B0474D402F0ACF8FFF714FD002055E0A4
:10434000BDF81420032AF1D1BDF81020032AEDD1C5
:10435000474A484913704FF440500DF10B02FFF7E4
:10436000BBFC9DF80B30002BE0D0434B43495A79FE
:104370001C8022F002025A715C800DF10B024FF496
:104380008050FFF7A9FC9DF80B30002BCED00DF12B
:104390000B023B494FF40050FFF79EFC9DF80B3099
:1043A00003B3F8B1374FDFF8F0A0B9464FF6FF7806
:1043B000A346BB89434510D0F888404505D002F09C
:1043C00025F910B17846F2F7C1FEFE89032E11D10E
:1043D000382303FB049383F812B00134032C07F154
:1043E0003807E6D19DF80B0000289FD01E4B012214
:1043F0001A7094E70AEBC606043600213046FFF730
:10440000BDFE05280546E3D0A8B202F04BF910B175
:104410007846F2F79BFE691C0429EFD9D8E71A4BBE
:104420001B68002B86DD2F21184807F065FD78B149
:104430002F21164807F060FD411C154B154AD3F893
:1044400004350092012040F2E232F7F76DFD71E78A
:104450005C210E4807F050FD08B15C21E9E70B49EB
:10446000EBE700BF304A00201C4A0020F42D00205A
:10447000554A00208D3C03001E4A0020BD3C03002D
:1044800071420300584A0020F02D002099D003000B
:1044900000100140E7CF0300004B00202DE9F04F52
:1044A00000F114048FB00546204602F0AFFF8246AB
:1044B000002879D04FF6FF73ADF832302B7D012BF9
:1044C00075D10DA802F08EF8EB8ABDF834209B1A46
:1044D0009BB209935646554C4FF00009002E7CD0F4
:1044E000A788099BFA1A5742574194F82C30E98B58
:1044F00003F0010320460A93FFF788FB29880B90FD
:10450000A28C68884FF00008904576D34FF00008E1
:10451000C346474B1B689B0425D5464B1B68062B9F
:1045200021DD2F21444807F0E7FC002875D02F211A
:10453000414807F0E1FC411C0B9A404BD3F804358D
:10454000CDF818B0CDE904720A9A039234F8062C1B
:10455000029234F8082C0192394A0092072040F266
:104560005942F7F7E1FC0A9BBBB1B7B10B9BA3B172
:10457000BBF1000F11D02B7D012B1FFA89F704D15D
:10458000A26A2946384601F023F8236AA26A03EB9F
:10459000C80329465B683846984709F10109B9F113
:1045A000030F04F1380499D10FB0BDE8F08FEB8A06
:1045B00004339BB2032B0AD90DF13201204602F0DD
:1045C000EBF840B17846F2F7C1FD002683E70023FF
:1045D000064609937FE706467DE7E08802280AD869
:1045E000184BBDF8321003EBC0000430FFF70EFB90
:1045F00000F0010779E73046FAE7236A03EBC80CBD
:1046000033F838308B4203D1BCF80230834202D0F9
:1046100008F1010878E7D3467BE75C21064807F0FC
:104620006BFC08B15C2183E7034985E7604A002001
:10463000F42D0020F02D002099D00300001001403F
:1046400009D00300004B00202DE9F04303681D78DA
:1046500005F0C002402AD1B004460FD003D86AB199
:104660000026354610E0802A00F09D80C02AF7D150
:104670009A785E78ADB246EA022605E0ADB27F2DAB
:1046800000F08E804FF6FF765A4B1A6812F4005FE6
:10469000984619D0584B1B68042B15DD2F2157481D
:1046A00007F02AFC002800F082802F21534807F0F1
:1046B00023FC411C524B534AD3F804350092019518
:1046C000F6220520F7F730FCE06902F0D3F88146C6
:1046D000A06902F0BBF84FF6FF739E42ADF814508C
:1046E000ADF8166027686BD1FF2D8CBF0223012324
:1046F0004FF6FF721F4496420697A38862D1FF2DA2
:104700008CBF022201229B1A227A8DF82020628916
:10471000ADF82220E2680992227C8DF82820628A76
:10472000ADF82A2062690B9294F820208DF8302091
:10473000626A0D92D8F80020ADF832909BB29204D4
:10474000ADF81C30ADF8380027D52B4A1268042A82
:1047500023DD2D4A802B106828BF802300220FAC58
:104760009A4231D100232F21244804F8123007F057
:10477000C3FB002835D02F21204807F0BDFB411C8A
:104780001F4B224AD3F804350192214A0092029429
:1047900040F20D120520F7F7C7FB05A8FFF77EFED4
:1047A00051B0BDE8F0835B7843EA05256AE75C21F8
:1047B000124807F0A1FB08B15C2177E70F4979E7C0
:1047C000032395E703229EE7B95C0D0901F00F0171
:1047D000455D04F81250455C04EB420101324D7016
:1047E000BEE75C21054807F087FB08B15C21C3E701
:1047F0000249C5E7F42D0020F02D002099D00300D8
:10480000001001405ED00300F82D002071D003009D
:104810000EC10300037813B90430FFF715BF7047CA
:10482000F0B5064685B014461D4681B17AB173B124
:1048300003AB0022FFF764FA10B9039805B0F0BD8E
:104840000095234600223046FFF7D0FAF6E70E2007
:10485000F4E708B5FFF7A4FA00F0F8FEBDE8084059
:10486000FFF780BA2DE9F8430446002800F0C08025
:10487000002900F0BD80C3681BB18368002B00F0E5
:10488000B7804FF6FF730B80E3681BB9A368002B5A
:1048900040F0B080A388002B40F0AE80594B1B78CD
:1048A00013B10F20BDE8F883574AD5789078E842D5
:1048B00015461CD0B4F800C0678854484FF0380E35
:1048C0000EFB03F682191FFA83F8B2F80C90B9F1C7
:1048D000000F7FD1B2F80290B9457BD1365A6645B8
:1048E00078D1A1F8008092F83430DE07D9D4D4E929
:1048F00002870026B74272D10A884FF6FF739A42A8
:10490000424B43D193F8342012F0010208D093F8BF
:104910006C20D0076AD593F8A420D20770D4022265
:1049200038200A8000FB02324FF6FF76D6800A88D4
:1049300000FB023296800A88A78800FB023297812A
:104940000A88678800FB023257800A88278842431A
:104950009F520A8800FB023046742088A288B04229
:104960004FF0060000FB02520BBF9078D078013068
:1049700001300CBF9070D0700A88382000FB0232E2
:1049800092F8340040F0020082F83400088825696B
:10499000382202FB003005630888A56802FB00305E
:1049A00085620888E56802FB0030858508886469AF
:1049B00002FB00308461088802FB0034A082098871
:1049C00002FB0133002093F8342042F0010283F807
:1049D000342067E70133032B7FF472AF87E758F881
:1049E0003600FFF720F948B1013683E7012297E747
:1049F0000E2057E7092055E7052053E7072051E728
:104A000004204FE71C4A00201E4A0020584A00207C
:104A10007FB505460E4619B30DF10A030022009337
:104A200003ABADF80A20FFF7C3FB044688B90D4875
:104A3000039B38226A438118C97C49070CD002F1D4
:104A40001301BDF80A200092014432462846FFF7C0
:104A500061F8204604B070BD1846FAF70CF8F8E784
:104A60000E24F6E7584A002013B514460A4639B119
:104A700034B1002300932146FFF79AFB02B010BD2A
:104A80000E20FBE710B50446FFF7EEF888B10429C5
:104A900011D80A48382303FB0400C3888B4206D090
:104AA00090F83430C18043F0020380F834300020A5
:104AB00000E0052010BD0720FCE700BF584A002099
:104AC00010B5044651B1FFF7CFF848B1054B382275
:104AD00002FB04340020E3880B8010BD0E20FCE7AD
:104AE0000520FAE7584A0020022870B51DD8104A60
:104AF000382404FB002494F83430DD0715D5E47C19
:104B000001F0070504F00706AE4204D1C1F3C40565
:104B1000B5EBD40F07D0382404FB002043F0020388
:104B2000C17480F83430002000E0052070BD00BF63
:104B3000584A002069B102280DD8084B382202FBE0
:104B4000003090F83430DB0705D5C37C0B700020B3
:104B500070470E2070470520704700BF584A00205C
:104B600038B50446154699B192B1FFF77DF888B182
:104B70000A48382303FB040083696BB1837CC3F3C9
:104B800001030B70837CC3F385032B70002038BDB9
:104B90000E20FCE70520FAE70620F8E7584A002037
:104BA0002DE9F3410DF107020DF106010546FFF76E
:104BB000D7FF10B17846F2F7C9FA284E9DF8077072
:104BC0009DF80610382303FB05633C46B3F82480A8
:104BD000032923D8DFE801F005021A1E07EB87043A
:104BE0006400B4FBF8F3092B1CD8002F33D0012B41
:104BF00038BF0123DFB20021382000FB05603A46B0
:104C00001430FEF793FE02B0BDE8F081642417FB78
:104C100004F4E6E741F270747C43E2E77846F2F789
:104C200095FADEE7632B05D80A220121B3FBF2F3E4
:104C3000DFB2E1E741F26F72934295BF642241F225
:104C40007072B3FBF2F3B3FBF2F399BFDFB2022150
:104C5000DFB20321D0E73946CEE700BF584A002033
:104C6000022810B50FD80B4A382404FB002393F810
:104C70003420D20707D59A693AB141B19984FFF738
:104C80008FFF002010BD0520FCE70620FAE7072073
:104C9000F8E700BF584A0020022838B52AD8184C37
:104CA000382303FB004393F8345015F0010F2546D9
:104CB00020D09C6904B33F2A20D803291ED89B7CAE
:104CC000B2EB930F03D103F003038B4210D03824CF
:104CD00004FB0054A37C62F3870361F30103A37414
:104CE000FFF75EFF94F8343043F0020384F8343069
:104CF000002000E0052038BD0620FCE70720FAE789
:104D0000584A002010B5164B1978044609BBFEF727
:104D1000ABFF00B31348382202FB0402D289032AF6
:104D200013D111490B7813F0010206D00B7ADA0780
:104D30000DD50B7CDA0710D4022243F0030301F8EF
:104D40003230382303FB0404E281002010BD01222D
:104D5000F3E70F20FAE70520F8E70420F6E700BFA5
:104D60001C4A0020584A0020004B0020F8B5044699
:104D70000F46FEF779FFE0B1124B382202FB0434F4
:104D8000E689032E17D0042917D80F4CF5000435F7
:104D90006019FEF73BFF90B9012303FA07F163594D
:104DA0000B43635114F8363043F0020304F83630F5
:104DB000F8BD0520FCE70620FAE70720F8E7002009
:104DC000F6E700BF584A0020004B0020F8B5044623
:104DD0000F46FEF749FFF0B1124B382202FB0434B4
:104DE000E689032E19D0042919D80F4CF500043593
:104DF0006019FEF70BFF68B1012303FA07F163594D
:104E000023EA0103635114F8363043F0020304F837
:104E100036300020F8BD0520FCE70620FAE7072021
:104E2000F8E700BF584A0020004B00202DE9F84366
:104E3000064615460F4641B33AB3FEF715FF30B3A9
:104E4000164B382202FB0636F389032B21D00024AF
:104E5000DFF84C90B5F800802C80F08902280ED83D
:104E600009EBC00021460430FEF7D0FE38B12B8894
:104E7000984510D927F813402B8801332B80013433
:104E8000052CEAD10020BDE8F8830E20FBE70520C1
:104E9000F9E70620F7E70920F5E700BF584A0020A8
:104EA000004B0020F8B506460F46FEF7DDFEC0B108
:104EB000012918D838250E4C754305F10806A019AC
:104EC000FEF7A4FE88B9012303FA07F1A3590B43A7
:104ED000A3512C4494F8343043F0020384F8343066
:104EE000F8BD0520FCE70720FAE70020F8E700BF3F
:104EF000584A0020F8B506460F46FEF7B5FED0B179
:104F000001291AD838250E4C754305F10806A01959
:104F1000FEF77CFE70B1012303FA07F1A35923EADF
:104F20000103A3512C44002094F8343043F00203D1
:104F300084F83430F8BD0520FCE70720FAE700BF0D
:104F4000584A002070B505461446A9B1A2B1FEF733
:104F50008BFE98B10B4B26883820002200FB0535CC
:104F60002280A86810F0010005D04EB10A80238885
:104F700001332380104670BD0E20FCE70520FAE7C0
:104F80000920F8E7584A002010B50446FEF76CFEE9
:104F900088B1012911D80A48382303FB040083880B
:104FA0008B4206D090F83430818043F0020380F8C1
:104FB0003430002000E0052010BD0720FCE700BFD2
:104FC000584A002010B5044651B1FEF74DFE48B1D5
:104FD000054B382202FB04340020A3880B8010BD4F
:104FE0000E20FCE70520FAE7584A0020030605D406
:104FF000012803D0024B187000207047072070472B
:10500000402E0020014B1878704700BF402E002032
:1050100010B50446FEF728FE90B10A4A382303FB78
:105020000423187C88421EBF93F8340040F002002D
:1050300083F83400382303FB04240020217410BDBE
:105040000520FCE7584A002010B5044651B1FEF790
:105050000BFE48B1054B382202FB04340020237CB0
:105060000B7010BD0E20FCE70520FAE7584A00201F
:1050700010B50446FEF7F8FD98B181F080037E2B51
:1050800011D90A48382303FB0400437C8B4206D025
:1050900090F83430417443F0020380F8343000203B
:1050A00000E0052010BD0720FCE700BF584A0020A3
:1050B00010B5044651B1FEF7D7FD48B1054B382273
:1050C00002FB04340020637C0B7010BD0E20FCE753
:1050D0000520FAE7584A002021B128B9034B1B8864
:1050E0000B8070470E207047052070471E4A002035
:1050F00021B128B9034B9B780B7070470E20704785
:10510000052070471E4A002021B128B9034BDB78E7
:105110000B7070470E207047052070471E4A002014
:1051200010B5044661B1FEF79FFD58B1064B38201B
:1051300060431A1852884A801B5A0B80002010BD09
:105140000E20FCE70520FAE7584A0020F7B5019148
:1051500012B310B1052003B0F0BD4FF6FF73BDF8D8
:105160000660BDF804700D4913804FF0380C0CFB3D
:1051700000F40D191FFA80FEAB894BB96D88B5425A
:1051800006D1645ABC4203D1A2F800E01846E2E717
:1051900001300328EBD1DDE70E20DCE7584A002080
:1051A000F0B5F1B1EAB1F0B9114E158810806FF089
:1051B000370703201388AB4217D207FB006494F82B
:1051C000DCC01CF0010F09D0B4F8B44034B9C0F110
:1051D000030421F813401388013313800138E9D107
:1051E000F0BD0E20FCE70520FAE70920F8E700BF34
:1051F000584A002010B5044651B1FEF735FD48B1BC
:10520000054B382202FB04340020236B0B6010BDD9
:105210000E20FCE70520FAE7584A002070B5064644
:10522000FEF722FD08B33825114C7543002205F125
:10523000140011462044FEF779FB304666191035FC
:1052400000F032FA2C44F08801F000FA00204FF010
:10525000FF3373606070A070E07096F83430B07502
:1052600043F0020386F8343070BD0520FCE700BF30
:10527000584A0020012873B5054614D80024A6B268
:105280000DF106013046FFF79DFE30B9BDF806303E
:10529000AB4202D13046FFF7C1FF0134032CEED1FF
:1052A000002002B070BD0720FBE708B501F09EF8B2
:1052B000A0F5805008BD000010B586B00D4B0393DB
:1052C0000D4B04930D4B059304230293FFF7EDFF61
:1052D0000B4C0090012369460A4801932370F7F7AD
:1052E0007DFA20B10848F7F789FB06B010BD2070A1
:1052F000FBE700BFF13F03005D3D030041530300A6
:10530000544A0020304A0020102E002008B5FEF735
:1053100047FD0848084B0360F4F752FE00F088F997
:10532000FEF7E8FAFEF7E4FBFFF7C6FF034B0022A7
:105330001A7008BD244A0020154803001C4A0020AA
:105340001249002311F83320D00744BF42F0020273
:1053500001F833200133032BF4D10D4B1A881AB115
:105360005A7942F002025A710A480023C1183833B0
:1053700091F8342012F0010F1CBF42F0020281F8B4
:105380003420A82BF2D1FFF797BF00BF004B0020BD
:105390001E4A0020584A00202DE9F04F5A4DB5F81A
:1053A0009C3085B0804613B97846F1F7CFFE574C54
:1053B000DFF86CA14FF6FF7308F57A79A5F89E30F7
:1053C000002604F1040B94F82830CBB1A369A3EBB9
:1053D0000903002B1ADA002384F82830B5F89C3032
:1053E000013BA5F89C3003A92088FFF703FF10B10B
:1053F0007846F1F7ABFEE3690399208801229847CC
:105400000136032E04F12C04DDD14EE0236AA3EB18
:105410000902002A66DAA5F89E602C2101FB06B17C
:105420002088FFF7F5FA0746E8B1DAF800309B0468
:1054300017D5374B1B68042B13DD2F21354806F099
:105440005BFDE8B12F21334806F056FD411C324B7D
:10545000324AD3F804350092019780220520F6F7EE
:1054600063FD082F15D1D4E908231A445B0022629A
:105470006362A269236AD31A002BC1DA2262BFE7F2
:105480005C21244806F038FD08B15C21DBE72149A6
:10549000DDE7042F01D00F2F20D12C2303FB06566C
:1054A000B36B03F51C434033B363B5F89C304BB387
:1054B000B5F89E30022B02D97846F1F747FEB5F8D1
:1054C0009E302C2202FB03539B6BB3EB080248BFB8
:1054D000A8EB0302EA6005B0BDE8F08F7846F1F76B
:1054E00035FEC6E7B5F89E204FF6FF718A4206D01A
:1054F0002C2101FB0252926B9B1A002B80DAA5F83B
:105500009E607DE7EB60E6E7184B0020304B002003
:10551000F02D0020D1D0030000100140F6D0030090
:10552000F42D0020F8B5284C2C2303FB004305463E
:1055300093F8403013B97846F1F708FEB4F89C3080
:1055400013B97846F1F702FEB4F89C202C2000FB3A
:105550000541013A002392B281F84030A4F89C2022
:105560005AB3B4F89E20AA422CD1896B174A0A4438
:105570004FF6FF7100FB03459EB295F840702FB1C6
:10558000AD6BAF1A002FBCBF31462A460133032B47
:10559000F0D14FF6FF739942A4F89E1002D17846DD
:1055A000F1F7D4FDB4F89E3007482C2202FB0344E7
:1055B000A16BBDE8F840F4F71ABF0348BDE8F84016
:1055C000F4F7FEBEF8BD00BF184B00200087930320
:1055D0000228F8B505460E46174602D97846F1F777
:1055E000B5FDF5F7D7FB114B00202C2202FB003450
:1055F00094F8401099B1218BA94210D1A28D338823
:105600009A420FD1E28D73889A420BD180B2FFF794
:1056100089FF636B002239462846984702E0013033
:105620000328E3D1BDE8F840F5F7F4BB184B0020A0
:1056300010B5044CA0220021204606F08DFB024B41
:10564000A36010BD184B002099530300F7B5154C0B
:10565000F5F7A0FBB4F89C302BB100232046A4F84A
:105660009C30F4F7ADFE1825601990F828308BB106
:10567000665BC76900212C2206F06EFB01A930464B
:10568000FFF7B8FD10B17846F1F760FD02220199ED
:105690003046B8472C359C2DE6D1F5F7BBFB03B05F
:1056A000F0BD00BF184B0020022873B505462BD86B
:1056B000F5F770FB154B00242C211E4601FB04322C
:1056C00092F84000B8B1128BAA4214D1A0B2FFF7F1
:1056D00029FF01A92846FFF78DFD10B17846F1F7A3
:1056E00035FD2C2303FB04640222636B01992846D9
:1056F0009847002403E00134032CDFD10524F5F79B
:1057000089FB204602B070BD0524FAE7184B002043
:105710002DE9F7430546002800F0BE80C369002B41
:1057200000F0BA800388022B00F2B88083695E4AD9
:10573000A3F5F413A3F59063934200F2B1805B4CA0
:10574000F5F728FBB4F89C30032B4FF6FF764FF0AB
:10575000040710D800232C20B44600FB034292F823
:105760004010002940F08F80664501D19EB20F465F
:105770000133032BF1D1F5F74DFB002F7FD1291D0C
:105780002888FFF745F930F0040302D0082840F0DC
:1057900089802C2303FB064393F8403013B17846ED
:1057A000F1F7D4FCF4F74CFE80462C2000FB0640B9
:1057B00029462022183006F0C4FA0DF10701288886
:1057C000FFF776FC10B17846F1F7C0FC9DF8073082
:1057D000FF2B03D1FFF716FC8DF80700E988AB8893
:1057E0004FF6FF72914255D1FF2B8CBF022301234C
:1057F000AA899DF80700134444F620629BB25043E7
:105800000B2B00F5433000F5A07088BF0B334FF031
:105810002C0982BF0C2193FBF1F302FB0300AB695F
:1058200009FB064598422A6B28BF1846E8634244A4
:1058300040442A63A863F5F7ADFAB4F89C3043B14D
:10584000B4F89E30AA6B09FB03439B6B9B1A002B99
:1058500008DB2C2303FB06431448996BF4F7C7FDC0
:10586000A4F89E602C2303FB0646012386F84030F3
:10587000B4F89C300133A4F89C30F5F7CBFA3846E5
:1058800003B0BDE8F083118B2A8891427FF470AF9A
:10589000082770E70323ABE70E27F0E70527EEE7BD
:1058A0000727ECE70746EAE780027503184B00205C
:1058B0004A09012301F01F0103FA01F150F82230D7
:1058C000194214BF0120002070474A09012301F04A
:1058D0001F0103FA01F150F822300B4340F8223047
:1058E00070474A09012301F01F0103FA01F150F842
:1058F000223023EA010340F82230704701F11F02F1
:10590000520970B5551EA1EB45140121A140002399
:1059100001399A4201D1012070BD9D4250F82340C7
:105920000CBF0E464FF0FF36264201D10133F0E79F
:105930000020F1E7024B33F820300B80704700BFA6
:10594000D04B00202DE9F0415D1E16240D4E6C4316
:105950000746A01D884630441146102206F0F1F992
:10596000331900225A7101222946A3F80280064801
:105970001A713753FFF7A9FF29460448BDE8F041E3
:10598000FFF7A3BF1C4C0020144C0020184C002033
:1059900010B40C46431C0A1D208849885DF8044B4E
:1059A0009BB2FFF7CFBF000070B516244443074EEB
:1059B0000D46A11D10223144281D06F0C2F9325BAC
:1059C0002A8033195B886B8070BD00BF1C4C00209F
:1059D000044A0B46142101FB002104311022184611
:1059E00006F0AFB9304D00200422014806F0A9B9F5
:1059F0006A4C002008460422014906F0A2B900BF03
:105A00006A4C00202DE9F0414488012C05463ED027
:105A100004F47043B3F5005F43D009D8002B39D0AC
:105A2000B3F5805F3BD07846F1F790FB00240BE0A4
:105A3000B3F5804F07D0B3F5A04F2ED0B3F5405F3C
:105A4000F1D1032400E00424174F6E881C2202FBCE
:105A50000472052C9289A6EB02062A8802F57F5271
:105A600002F13F024FEA820205F1040895B202D921
:105A70007846F1F76BFB1C2303FB04744146304668
:105A8000A3692A46984731466068FFF71EFF012048
:105A9000BDE8F081023CE4B2D6E70524D4E7012456
:105AA000D2E70224D0E700BF6CD1030010B5044652
:105AB00010B97846F1F74AFB2346BDE81040184775
:105AC00010B5044610B97846F1F740FB084B93F83F
:105AD000642003F122001AB1844207D003F143008D
:105AE000241A18BF4FF0FF34A0B210BD0020FCE70D
:105AF000844C00202DE9F8432A255D43164C91463D
:105B00008046A81D10220F46204449461E4606F036
:105B100018F905F1190000211022204406F01CF9A3
:105B2000691D21444846F6F7EBF810B17846F1F7C5
:105B30000DFB2A237343E2180021117191755780E0
:105B40003146064824F80380FFF7BFFE314604487B
:105B5000BDE8F843FFF7B9BEE84B0020E04B00205A
:105B6000E44B0020F8B50D4606462A247443002174
:105B7000104E17462846242206F0EEF8A11D1022EA
:105B80003144281D06F0DDF8325B2A8033195A882B
:105B90006A809B7D4BB104F11901314405F1140079
:105BA0001022BDE8F84006F0CCB83B88043B3B80AF
:105BB000F8BD00BFE84B00202DE9F0418046AC2441
:105BC0000D46144E04FB08F40021174628462422F3
:105BD00006F0C2F806EB0408335B2B8098F86430BB
:105BE000AB70A11C10223144E81C06F0AAF898F80A
:105BF00064304BB104F11201314405F1130010225D
:105C0000BDE8F04106F09DB83B88043B3B80BDE811
:105C1000F08100BF844C002001F11F025209920064
:105C2000002106F099B800002DE9F041204CAC2588
:105C30005543164605F16803621923440F469367DE
:105C4000804610B91B4B01221A7005F12201214434
:105C50003846F6F75EF810B17846F1F777FA05F1B5
:105C60007C0121443846F6F765F810B17846F1F723
:105C70006DFAA81C39461022204406F062F805F19E
:105C8000120010220021204406F066F8AC23734372
:105C9000E21824F8038000233146074882F8643074
:105CA000FFF713FE31460548BDE8F041FFF70DBE92
:105CB000844C0020684C00207C4C0020804C00204C
:105CC000F8B50D1F14246C430C4F0646201D3146B9
:105CD0001022384406F035F839193046F6F752F8F4
:105CE00010B17846F1F732FA29460548FFF7EDFD85
:105CF00029460448BDE8F840FFF7E7BD304D0020D5
:105D0000C84B0020CC4B00200B46011D89B2184621
:105D1000FFF7D6BF08B5064B064800221A70F6F703
:105D200031FC20B10448BDE80840F6F767BE08BD65
:105D3000324C0020344C0020442E00202DE9F84342
:105D400004468846F5F726F8052C02D97846F1F77F
:105D5000FDF9154BDFF85C901F78C7B11C2505FBDA
:105D600004951248A9892A69414489B2F6F7C9FC09
:105D7000064660B10246011D6B69404698473046B1
:105D8000F6F7EEFCF5F746F83846BDE8F8831C2335
:105D900003FB04944146A068FFF797FD0448F6F71B
:105DA0002DFE0027EEE700BF324C0020344C0020CF
:105DB000584C00206CD10300F8B505460E46F4F7A8
:105DC000E9FF052D02D97846F1F7C0F90F4B104FC6
:105DD0001C7874B91C2303FB05753146A868FFF7CE
:105DE00074FD0C48F6F70AFE0024F5F713F8204678
:105DF000F8BD1C2303FB057307489989314489B218
:105E0000F6F7C4FC0028E5D1EFE700BF324C0020D4
:105E10006CD10300584C0020344C00202DE9F8438D
:105E2000184D0026AF68D5F80080384641465FFA25
:105E300086F9FFF763FDF8B1052E1FD1BDE8F883A1
:105E400021463846FFF734FD70B121466868FFF7F8
:105E50002FFD214660B14846FFF770FF0028EDD0C6
:105E600021463846FFF73DFD0134A045E8D1E3E780
:105E70004846FFF7A1FFF1E70446F6E701361C3577
:105E8000D0E700BF6CD1030008B528B97846F1F718
:105E90005DF94FF6FF7008BD034BC01A18BF4FF0F5
:105EA000FF3080B2F7E700BFF84C002008B528B9F2
:105EB0007846F1F74BF94FF6FF7008BD064B984254
:105EC00007D0064A4FF6FF73904214BF18460120D0
:105ED000F3E70020F1E700BFEC4B0020204C00204E
:105EE000F8B50C46154683B20A1D06464988208837
:105EF000FFF700FE242D1DD1124F2A2575437B1973
:105F00000122143405F119009A75214610223844F3
:105F100005F017FF05F1180139442046F5F7F0FEAA
:105F200010B17846F1F712F92A2303FB067633798C
:105F3000F375F8BD142DFCD07846BDE8F840F1F7B4
:105F400005B900BFE84B00202DE9F0410D46174E82
:105F500007469046033182B2AC242888FFF764FEDE
:105F6000AB7804FB076282F86430D3B1B8F1240F38
:105F700002D07846F1F7EAF87C43133504F11200B9
:105F800029461022304405F0DCFE04F1430131447F
:105F90002846F5F7BEFE38B17846BDE8F041F1F786
:105FA000D5B8B8F1140FF7D1BDE8F081844C0020CA
:105FB00010B501298CB0044604D17846F1F7C6F833
:105FC0000CB010BD0229F8D00329F9D12C220021F0
:105FD00001A805F0C1FE11238DF8043002238DF8CD
:105FE0000830054B0394DA681B69059201A80693F3
:105FF000F2F786FBE4E700BF344C00201146002096
:10600000FFF7D6BF08461146FFF7D2BF41090A4A3B
:1060100000F01F03012000FA03F352F821205B4235
:10602000134008D05A421A40044B5343DB0E044A33
:10603000D05C00EB411070477C4C002031B57C07F0
:1060400014D203002DE9F74F804692460E460029F0
:1060500053D0F3F7FDFD0228814627D020F0020738
:10606000FBB2012B22D14FF6FF74354B354A002588
:10607000A3465C450ED11046294601930092FFF7D6
:1060800017FCDDE9002328B9ACB20135042DF0D1AD
:10609000002305E033F825104145F6D1ACB20123C9
:1060A000BAF1000F04D1B9F1030F28D0102021E07C
:1060B000FFB2012FFAD1ABB94FF6FF72944223D051
:1060C0001F4A204822F8248002EB84022146538094
:1060D000FFF7FBFB21461C48FFF7F7FB214638463C
:1060E000FFF72CFE164B348003EB8404A3780133B6
:1060F000A370002003B0BDE8F08F0E20FAE7BBB913
:106100004FF6FF72944201D10420F3E70C4A0D4888
:1061100022F8248002EB840221465380FFF7D5FB4E
:1061200021460948FFF7D1FB21460120FFF706FE73
:10613000034B348003EB8404E3780133E370D8E746
:10614000D04B0020B84B0020BC4B002010B54FF6C0
:10615000FF730B80094B1B6813F001030C4602D13F
:106160000B80002008E001461022054805F0DAFD0A
:106170000028F6D12080012010BD00BFC84B0020B0
:10618000344D00202DE9F3414FF6FF770E461446BB
:10619000ADF80670804638B331B30DF10601FFF754
:1061A000D5FFBDF806301D1DADB250B9BB421DD0A4
:1061B00029464046FFF784FDBDF806100220FFF790
:1061C000BDFDBDF806300A4A3580142101FB0323CA
:1061D00034B9DA780132DA70002002B0BDE8F0811B
:1061E0009A7801329A70F7E70E20F6E70420F4E778
:1061F000304D00204FF6FF730B80084B1B6813F0E7
:10620000010308D0064B1B8883424FF0000004D1E5
:106210000880012070470B80184670477C4C002096
:10622000844C00204FF6FF730B80084B1B6813F063
:10623000010306D0064B1B88834204D1012008804D
:10624000704701220A800020704700BF144C0020D4
:106250001C4C00204FF6FF730B80084B1B6813F09B
:10626000010308D0064B1B8883424FF0000004D185
:106270000880012070470B8018467047E04B0020D3
:10628000E84B0020042803BF024B186800F001000F
:1062900000207047C84B0020032808B5014605D8E8
:1062A0000648FFF705FB00F0010008BD042805BF04
:1062B000034B1868002000F00100F4E7B84B002001
:1062C000C84B00200328F8B5044617D801461748E4
:1062D000FFF7EEFA90B1164E06EB8403987858B9A2
:1062E000DD7815BB21461148FFF7FBFA26F824504C
:1062F00021460120FFF760FD002016E02046FFF751
:10630000C1FF88B1043C0B4F142565437B19987875
:106310000028F1D1DE7846B921460748FFF7E1FAB7
:106320007E5321460220E5E70520F8BDB84B00204A
:10633000D04B0020304D0020C84B002010B5094B39
:106340000A8884B2214623F8242003EB8403002228
:1063500005485A80FFF7B9FA21460448BDE81040C5
:10636000FFF7B3BAD04B0020B84B0020BC4B002045
:106370001FB51A4B1B781BB9002005B05DF804FB54
:1063800004AB0A2243F8102D012101AA1448F6F7A4
:1063900081F903460028EFD1BDF80A20042A0FD165
:1063A000BDF80C20012A0BD1BDF80620012A07D127
:1063B000BDF80820012A03D1BDF80420012A02D02B
:1063C000FFF7A8FCD8E70146064A0548F6F7ECF8BF
:1063D000054B186800F00100CFE700BF324C0020E9
:1063E000344C0020055A0300C04B002008B5F3F7D9
:1063F00023F8A0F5805008BD70B586B01D4B0393FF
:106400001D4B04931D4B05931D4E00230293FFF774
:10641000EDFF3278009001230193A2B9194CF4F7F3
:10642000B9FC69462046F6F7D9F928B1F4F7F2FC31
:106430001548F6F7E3FA06E02578012D05D0F4F7C4
:10644000E9FC0123337006B070BD20460A222946BC
:10645000F6F757F9044638B10423438185818580D6
:10646000C5800581F6F77CF9F4F7D4FC002CDFD069
:10647000E7E700BF05600300FD5F03008D640300D4
:10648000324C0020344C0020542E0020FFF7B4BFC3
:1064900070B51C4C04F1A806256860682946FFF712
:1064A000BBFB1C3454F8140C2946FFF7B5FBA6427D
:1064B000F2D1154B154800245C80DC805C81DC81C6
:1064C000134B01215C80FFF7A7FB01211148FFF767
:1064D000A3FB01211048FFF79FFB01210F48FFF7A5
:1064E0009BFB01210E48FFF797FB01210D48FFF7A9
:1064F00093FB0D4B1C805C800C4B1C70BDE8704006
:10650000FFF708BC6CD10300D04B0020C04B00202B
:10651000304D0020B84B0020C84B00207C4C0020A0
:10652000E04B0020144C00206A4C0020684C0020F6
:10653000084808B5084B0360F3F742FD074B084ACB
:106540009A60084ADA60084B00221A70BDE80840D9
:10655000FFF752BF704C0020FD6B0300584C002029
:10656000AD5A03001D5E0300324C002070B5054695
:1065700010B97846F0F7EAFD174E346814F00104BC
:1065800027D128886B880344984201DB0B2070BD1B
:10659000F3F75EFB0128F9D128886B88184401388D
:1065A00080B2F3F755FB0128F0D1042229460B48AD
:1065B00005F0C7FB3368214643F0010320463360F2
:1065C000FFF7BCFB064A136843F001031360204643
:1065D000DDE70F20DBE700BFC04B00206A4C002046
:1065E000C44B002010B5044610B97846F0F7AEFD54
:1065F000204604220249BDE8104005F0A2BB00BFBE
:106600006A4C00200122FFF71DBD000010B50446B2
:10661000FFF742FE78B1032C89BF084B084B043CBE
:1066200014228CBF02FB043403EB84040020A37803
:106630000133A37010BD0520FCE700BF304D0020E2
:10664000D04B00200122FFF79DBD0000032810B5AC
:1066500004460FD801460D48FFF72AF950B10C4BFC
:1066600003EB84039A78013A9A702046BDE8104003
:10667000FFF728BE2046FFF705FE28B1054A231F75
:10668000142101FB0323EDE7052010BDB84B0020CA
:10669000D04B0020304D00200022FFF7D3BC002259
:1066A000FFF770BD10B50446FFF7F6FD78B1032C77
:1066B00089BF084B084B043C14228CBF02FB0434F6
:1066C00003EB84040020E3780133E37010BD052060
:1066D000FCE700BF304D0020D04B002038B5044609
:1066E0000D4619B3032810D801461248FFF7E0F809
:1066F00058B1114B33F824206A8033F82400F3F7A3
:10670000A7FA28700020686038BD2046FFF7BAFD60
:1067100070B11423043C094A5C430020135B6B8076
:106720000434144402236C602B70EDE70E20EBE779
:106730000520E9E7B84B0020D04B0020304D002069
:1067400013B50446FFF7A8FD00B369462046FFF7DE
:10675000C5FFB8B99DF80030032B0BD10C4B03EBF0
:106760008403DA7892B1013ADA702046FFF7AAFD85
:1067700002B010BD022B07D1064A231F142101FBD2
:106780000323EEE70020F3E70F20F1E70520EFE712
:10679000D04B0020304D00202DE9F7430D46044634
:1067A00000283CD000293AD04088F3F751FA02285B
:1067B00024D0032801D0012833D14FF6FF73DFF82E
:1067C0006880DFF8689067882B8000241E46214689
:1067D0004046FFF76DF840B139F82430BB4208D18C
:1067E0002C80002003B0BDE8F0832B88B34208BFA3
:1067F0002C800134042CEAD10520F3E760684FF6C1
:10680000FF73ADF8063050B10DF10601FFF79EFCA5
:106810000028F1D0BDF8063004332B80E1E70E20CC
:10682000E0E71020DEE700BFB84B0020D04B00208F
:1068300007B50DF10601FFF7DDFC20B1BDF806003C
:1068400003B05DF804FB4FF6FF70F9E708B1FFF7FE
:1068500037B94FF6FF70704707B50DF10601FFF726
:10686000F9FC20B1BDF8060003B05DF804FB4FF65B
:10687000FF70F9E708B1FFF719BB4FF6FF707047DB
:1068800041B148B9054B1B68DB0705D5044B1B8894
:106890000B8070470E20704705207047E04B0020AA
:1068A000E84B0020012838B50D461FD8E1B1A8B942
:1068B0000F4B1B68DA0719D50E4C638813B1784665
:1068C000F0F744FC61880C48FEF7F2FF10B97846F7
:1068D000F0F73CFC63882B80002038BD074B1B6819
:1068E000DB0703D5064CE8E70E20F6E70520F4E7C2
:1068F000E04B0020E84B00207C4C0020144C002092
:106900001C4C0020F0B50746C7B015460E460029BE
:106910006ED0002A6CD0B0F5805F6BD21146FFF7C5
:1069200069FC0446128870B13548AC2303FB0200B1
:1069300031461022023005F0F5F900280CBF032083
:106940000F2047B0F0BD4FF6FF739A4254D0314646
:106950003846FFF769F929880320FFF7EFF9284B3C
:106960002988AC2202FB013138468C31F3F72FFB2A
:10697000244B186810F48020E3D0234B1B68062BAF
:106980003CDD224B1A68204605AC335C190903F044
:106990000F03515C04F81010D15C04EB400301308C
:1069A00010285970F1D100232F21194884F8203084
:1069B00005F0A2FA98B12F21154805F09DFA411C67
:1069C000144B154AD3F804350192144A009207205B
:1069D000029440F66E12F5F7A7FA0020B1E75C21A9
:1069E0000B4805F089FA08B15C21E5E70849E7E7BB
:1069F0000E20A6E70720A4E70420A2E72046A0E790
:106A0000844C0020F42D0020F02D0020F82D0020D3
:106A100032D10300001001405CD103000EC103001D
:106A200040B9054B1B68DB0704D5044B93F8643071
:106A30000B707047052070477C4C0020844C002070
:106A400038B50D4600293BD000283BD11E4B1B68B2
:106A5000DB0737D51D4890F86430044643B1012B5D
:106A600004D11022123005F05DF900B1082038BDC4
:106A70001022123005F065F904F143012846F5F7BC
:106A800048F910B17846F0F761FB1149A1F1820095
:106A9000F5F750F910B17846F0F758FB012284F869
:106AA00064200C492088F2F74FFE0B4A136843F02C
:106AB0000103136000210320FFF740F90020D6E70F
:106AC0000E20D4E70520D2E77C4C0020844C002027
:106AD000184D0020284D0020804C002010B50446A1
:106AE000D0B90F4B1B68DB0716D50E4991F86430FF
:106AF000012B13D1022281F8642031F8A40BF2F7A4
:106B000023FE094A136843F0010313602146032062
:106B1000FFF714F9204610BD0520FCE70820FAE72E
:106B20007C4C0020844C0020804C0020F8B50446AA
:106B3000002850D12A4B1B68DB074CD5294D95F80E
:106B40006430002B49D005F112011022A81C05F079
:106B5000F8F805F14301212205F1220005F0F1F8D2
:106B600005F19401182205F17C0005F0EAF82946A8
:106B700085F86440224631F88C0B1B4D1B4EF2F712
:106B8000E3FD05F1170733686988AA7D03F0010367
:106B900054B1174A136843F0010313600021032026
:106BA000FFF7CCF80020F8BD002BF2D00029F0D17F
:106BB000002AEED0122239460E4805F0C2F80E4ADD
:106BC000AC75136843F00103214613600420FFF7FE
:106BD000B5F80124D7E70520E5E70820E3E700BF83
:106BE0007C4C0020844C0020E84B0020E04B00202F
:106BF000804C0020EC4B0020E44B002070B5037863
:106C0000042B1ED1D0E90146457E2046FFF73CF912
:106C10004FF6FF72904214D02034A64211D1094A97
:106C2000AC2101FB002393F864302DB1012B08D176
:106C3000BDE87040FFF752BF1BB1BDE87040FFF7E1
:106C400075BF70BD844C002010B588B181B10022A1
:106C50000A4B0C680A601B6813F001030AD05CB190
:106C6000074B1B8803800B6801330B60104610BD77
:106C70000E20FCE71846FAE70920F8E77C4C0020D4
:106C8000844C0020F0B50746C7B00C461E4615469A
:106C9000002A68D0002B66D0F2F7DAFF012864D111
:106CA000002C64D1364B1B68DB0760D50DF1120157
:106CB0003846FFF7B7FA044600285AD1BDF812301B
:106CC0004FF6FF72934256D001462A463846FEF7E9
:106CD00039FEBDF8121005200139FFF72FF8BDF875
:106CE00012303380274B186810F4802030D0264BA8
:106CF0001B68062B41DD254B1A68204605AC2B5C32
:106D0000190903F00F03515C04F81010D15C04EB77
:106D10004003013010285970F1D100232F211C4865
:106D200084F8203005F0E8F8A0B12F21184805F0CC
:106D3000E3F8411C174B184AD3F804350192174A5F
:106D400000920720029440F67522F5F7EDF8002036
:106D500047B0F0BD5C210E4805F0CEF808B15C21CB
:106D6000E4E70B49E6E70E20F2E71020F0E7052004
:106D7000EEE70F20ECE70420EAE72046E8E700BF53
:106D80007C4C0020F42D0020F02D0020F82D002058
:106D900032D103000010014025D103000EC10300D1
:106DA000F0B50746C7B01E461546002A6CD0002B2A
:106DB0006AD000296AD1394B1B68DB0766D5B0F56C
:106DC000805F65D23146FFF745FA3388044670B1DB
:106DD00033482A2202FB030029461022063004F021
:106DE000A1FF00280CBF03200F2047B0F0BD4FF6D5
:106DF000FF7293424ED001462A463846FEF77AFE8D
:106E000031880420FEF79AFF264B186810F4802082
:106E1000EBD0254B1B68062B3EDD244B1A68204621
:106E200005AC2B5C190903F00F03515C04F810103A
:106E3000D15C04EB4003013010285970F1D10023DC
:106E40002F211B4884F8203005F056F898B12F21E7
:106E5000174805F051F8411C164B174AD3F8043572
:106E60000192164A00920720029440F6C522F5F7D7
:106E70005BF80020B9E75C210D4805F03DF808B14A
:106E80005C21E5E70A49E7E70E20AEE70520ACE71D
:106E90000720AAE70420A8E72046A6E77C4C0020AC
:106EA000E84B0020F42D0020F02D0020F82D0020CC
:106EB00032D103000010014018D103000EC10300BD
:106EC00038B50D46002934D0002834D11B4B1B683F
:106ED000DB0730D51A481B4A4388AC2404FB032344
:106EE000044693F86430012B06D1827D32B1102222
:106EF000193004F017FF00B1082038BD8375102247
:106F0000193004F01EFF04F118012846F4F7F8FECA
:106F100010B17846F0F71AF90B4A2379E375136834
:106F200043F00103136000210420FEF707FF002057
:106F3000E3E70E20E1E70520DFE700BFE04B00209C
:106F4000E84B0020844C0020E44B002010B50446A0
:106F500060B9074A1368D90708D523F00103014631
:106F600013600420FEF728FF204610BD0520FCE733
:106F7000E04B002038B5044680B9174D2B68D9077F
:106F80000CD5FFF743F80128234603D0421C03F138
:106F90000103FBD0012B03D10F201CE005201AE0D8
:106FA0000E4B1B68DB0708D50D4B588828B9FFF737
:106FB000CDFF10B17846F0F7C9F80A4B1B880BB922
:106FC000094A13702B68002123F0010303202B6072
:106FD000FEF7F2FE002038BD7C4C0020E04B002084
:106FE000E84B0020844C0020684C002030B5B9B13B
:106FF000B2B1B8B90E4B1B68DB0713D50D4B156842
:1070000010601B6813F001030ED00B4B5C8834B981
:1070100065B11B880B80136801331360204630BDB7
:107020000E20FCE70520FAE71846F8E70920F6E706
:107030007C4C0020E04B0020E84B0020002A30D0A0
:10704000012930D829BB1A4B1B68DB072BD54FF61B
:10705000FF73984202D1F1B9164B588828BB164BE2
:107060001B68DB0721D51548C9B990F86430022B9D
:1070700013D1104B997D81B117335360104B90F8A9
:107080006400A3F12101022818BF0B461360002001
:1070900070470C4BD8E70C4BDFE70C4BEDE70C4B84
:1070A000EBE70E207047052070470820704700BFAF
:1070B000E04B0020E84B00207C4C0020844C00205A
:1070C000C74C0020144C00201C4C0020EC4B00202E
:1070D000204C002008B50A46FFF7AAFB3AB140B998
:1070E000054B1B68DB0704D5044B136008BD0E205D
:1070F000FCE70520FAE700BF7C4C0020A64C0020EE
:10710000F8B5054616460F4611B97846F0F71EF851
:1071100016B97846F0F71AF83868E8B90024002361
:107120003B60336064BB21461648FEF7C1FB38B3B1
:10713000154B93F8641093F8222005F07F00A1B15D
:10714000824293F8431016D18A4210D103F12202F1
:107150003A604333336013E0FEF7B2FC4FF6FF733F
:107160009842DBD0013084B2D9E7824208D1074B84
:107170003B600023EEE7884202D143333B6034603A
:10718000F8BD00BF7C4C0020844C0020A64C0020A1
:10719000F8B506460C46154612B97846EFF7D6FF05
:1071A00016B97846EFF7D2FF3046FFF74FFB4FF6A0
:1071B000FF739842064602D100232B60F8BD286871
:1071C00010B1FEF773FE0130094B1A68094B5F7965
:1071D00059887C4002F0010204F03F040028EBD102
:1071E000002AE9D08E42E7D1002CE5D10433E4E750
:1071F000E04B0020E84B002038B504460D4611B99D
:107200007846EFF7A3FF34B1044B33F8042BA242C6
:107210000CBF1C4600242C6038BD00BF1C4C002055
:10722000F8B5074616460D4611B97846EFF78EFFBA
:1072300016B97846EFF78AFF286820B1FEF724FEDA
:1072400000232B6024E01A4B1B68DB07F8D5194C90
:1072500094F8643053B957B1082204F18C013846D0
:1072600004F060FDB0FA80F0400901E08FB9012020
:107270000028E5D0104B1B78BBB12388B3FA83F309
:107280005B0984F874300D4B2B6094F864303370D4
:10729000F8BD082204F18C01384604F043FD0028B3
:1072A000E5D0082204F1A401D9E70123E9E700BFF2
:1072B0007C4C0020844C0020684C0020F84C0020BE
:1072C0002DE9F74305460C46F2F7C2FC02285FD0D1
:1072D000032818D0012801D0002011E03D4B1B6885
:1072E00013F00103F8D03C4B1A889542F4D35B8825
:1072F00013449D424FF00003EEDA65802070636016
:1073000003B0BDE8F08300236360A5F57F43FC3B39
:1073100065802070032B16D801A252F823F000BF1D
:10732000D9720300D9720300317303008D73030017
:1073300001A90120F7F74BFB10B17846EFF706FFE4
:107340009DF80400DCE74FF6FF76244FDFF89890B5
:107350000024B04646450FD121464846FEF7A8FA1C
:1073600050B9A6B20134042CF4D1F6F7C7F940881D
:10737000421B50425041C3E737F82420AA424FEA4B
:107380008403EFD13B44DB78002BEBD00120B7E73F
:107390006068C0B94FF6FF73ADF80430BDF8043033
:1073A000002B99D00E4B1B68DB0795D50D4B1A8827
:1073B000AA4291D1DA78002A8ED002220433658065
:1073C00022706360E2E701A9FEF7C0FE0028E1D069
:1073D000E4E700BFC04B00206A4C0020D04B0020E7
:1073E000C84B0020304D0020B84B002038B50C466B
:1073F000054600B111B97846EFF7A8FE024B1A888E
:107400002A805B88238038BD6A4C002007B503784A
:10741000022B0AD0032B01D0012B17D169464088DB
:10742000FFF74EFF03B05DF804FB69464068FEF7C6
:107430008DFE0028F6D0BDF80030054A142101FB6E
:107440000323D878003018BF0120EBE70020E9E7DC
:10745000304D0020094A537891780133DBB29942CC
:1074600008BF0023117899421FBF0370507818237A
:1074700003FB002014BF043000207047484D00205B
:1074800073B5054602A8002400F8014D0E46EFF73B
:1074900025FC0DF10600FFF7DDFF90B106700A4BE9
:1074A0009DF8062045605A709DF80700EFF73AFCFA
:1074B00024B9064B4FF48012C3F80021204602B0D5
:1074C00070BD0424F0E700BF484D002000E100E05B
:1074D000024B4FF43C6043F00103184740D20300D5
:1074E0002DE9F0412A4CD4F84031012B294B02D030
:1074F0001A78002A31D00025C4F840511D70264B5F
:107500001B6853B3254AD4F804651268B61A26F0EE
:107510007F46A8461A68B2420AD8B61A15441A7CA1
:10752000DF6922B183F81080D3E90520904767BB5B
:107530001B4B1C4A197813788B4205D10133DBB2FF
:10754000022B08BF002313701278174B43F8225008
:10755000164B4FF48012C3F80021D4F84431012BAC
:1075600004D10023C4F84431F2F78EFFD4F804317B
:10757000012B01D1F2F7A2FF0023C4F84831C4F86F
:107580004C31C4F80031BDE8F0813B46C2E700BF92
:1075900000100140444D0020684E0020644E002041
:1075A000604E0020614E0020584E002000E100E0B7
:1075B0002DE9F74F984A994913780978DFF87C82CA
:1075C000974F994264D00133DBB2022B08BF0023EE
:1075D00013701278934BD8F8006053F82240331997
:1075E00023F07F430022C8F800303B68114615465F
:1075F000944613B942B13B6006E01868A04235D901
:1076000002B13B60001B18604FF0010A3B68009319
:107610000025D8F80030009ADFF824C20193A9466B
:107620002E46002965D01046CA690B46D3F804B02F
:10763000019C7D49D3F808E0ABEB040424F07F44BF
:107640008C4200F2BC8074441C604FF00101C3E91D
:1076500001661974DE6138B11C6801688C4200F261
:10766000D3800C1B0460D8610125A5E0241A0544D1
:10767000D868C3F800C0D3F81CE030B1721922F00A
:107680007F42C3E90120D961194601227346B0E760
:1076900000218A46BAE7431C9CF80210DBB29942EB
:1076A0008CF800304FF0180303FB00C008BF8CF8C3
:1076B000006001798368022967D0032979D0012904
:1076C00017D1197CA9B9C4685C6004699C604469DD
:1076D000DC608069986110460A46A7E7A342E0692A
:1076E00000F0958021460446002CF7D114461E7404
:1076F00022469CF800009CF801308342CBD105B1B2
:107700003A603B68B9F1000F05D1009A9A4202D164
:10771000BAF1000F36D0ABB34449D8F80020D1F805
:107720000405434C1E682578831A23F07F430333F6
:107730003DB94FF48035C1F84453C1F804530125D5
:1077400025709E422CBF9219D21822F07F43C1F8B7
:107750004035D1F80425121A22F07F421B1A033259
:1077600023F07F439A420DD9D1F80435C1F8403552
:10777000FFF7AEFE2F4B01221A702F4B4FF4003251
:10778000C3F8002103B0BDE8F08F14461146ABE703
:10779000D4690125D3F800E0C86110B101687144D3
:1077A0000160944218BF4FF00109A0E71674D26936
:1077B0000125002AFAD1134611461A4631E70199EC
:1077C000A1EB0B0121F07F4171453ABFAEEB010106
:1077D00019601E6039E7A4EB0E04D1F81CE08B465B
:1077E000BEF1000F0AD07146D1F800E0A645F2D3F1
:1077F000AEEB040EC1F800E08E4659461C60C3F89B
:107800001CE0CB610346D7E783460146ECE78B4299
:10781000BED01446BEE700BF604E0020614E00207F
:10782000684E0020584E0020FEFF7F0000100140EF
:10783000544E0020444D002000E100E0644E002042
:10784000484D00202DE9F843214C224E224BDFF811
:10785000A49001274FF40038C6F88080C4F848335C
:10786000C4F8083367600025FFF732FEA760C9F847
:107870000050FFF72DFE194B1D70194B0B221D8078
:107880009A70184B1D60184B1D70184B4FF48012E6
:107890001D70C023C6F8802186F814333260C4F806
:1078A000085586F81133D4F80435C9F8003002239E
:1078B000C4F84433C4F80433C6F88081C6F80080A5
:1078C0002760FFF705FE0A4B1F702846BDE8F883C6
:1078D0000010014000E100E002000300544E0020CF
:1078E000484D0020684E0020604E0020614E002070
:1078F000454D0020644E0020074B9B784BB132B1C0
:1079000028B10368187C20B959745A617047072060
:1079100070470820704700BF484D00202DE9F7430D
:107920001D4FBB7805460E4690469BB390B3042985
:107930002ED9436973B3437C02A80024012B00F8BD
:10794000014D0CBF8946A146EFF7C8F90DF10600BD
:10795000FFF780FDD0B101230370104B4560D3F8D1
:107960000435C0E90498C0E902369DF806307B7002
:107970009DF80700EFF7D6F924B9094B4FF48012B0
:10798000C3F80021204603B0BDE8F0830424EFE7EC
:107990000724F7E70824F5E7484D002000100140D0
:1079A00000E100E0064A92783AB130B1426922B172
:1079B000002202740221FFF763BD0820704700BF58
:1079C000484D0020014B1878704700BF454D0020FE
:1079D0002DE9F04F0C4689B0814600B111B97846C7
:1079E000EFF7B4FB2388192B02D87846EFF7AEFBEC
:1079F0004FF6FF724FF42013CDE905230025012334
:107A000005A90A224846ADF81C30ADF8025004F032
:107A100098F90A2323800DF106012846FDF768FB3B
:107A200010B17846EFF792FB0DF107010020FDF74A
:107A30006BFB10B17846EFF789FB9DF806309DF897
:107A40000720D3423ED001A90020FDF745FB10B12D
:107A50007846EFF77BFB08AA03230DF10C0822F808
:107A60001E3D41460020FDF79BFB10B17846EFF725
:107A70006DFB208804220DEB0201484404F061F9FB
:107A800026889DF806300436B6B2268053B100270A
:107A9000BDF802A03D464FF6FF7B574515D323881E
:107AA0001D4425809DF8073063B12388BDF802701E
:107AB0000026994435464FF6FF7ABE421DD32388EF
:107AC0001D44258009B0BDE8F08F02A938F81700E1
:107AD000FDF726FB10B17846EFF738FBBDF808300C
:107AE0005B4508D1A81902220DF10A01484404F0AF
:107AF00028F90235ADB20137CFE702A938F81600F0
:107B0000FDF70EFB10B17846EFF720FBBDF808300B
:107B100053450FD0022202A909EB050004F011F928
:107B2000A81C02220DF10A0119FA80F004F009F9EB
:107B30000435ADB20136C0E7024B1B6803B11847EC
:107B4000704700BF6C4E002013B5044601A8FEF735
:107B500049FDBDF80400001B18BF4FF0FF3080B294
:107B600002B010BD37B50446F5F7CCFD054600233D
:107B700001A80093FEF736FD6946288AFFF7AAFAA6
:107B800030B9009B6360BDF80430238003B030BD82
:107B90000520FBE71FB50193BDF81830ADF808309C
:107BA0000023ADF800208DF80A304FF6FF72022353
:107BB000ADF802208DF80B306A46079B0393FCF763
:107BC00053FF05B05DF804FB7FB505460E46002067
:107BD00003A98DF80800F6F7FAFE10B17846EFF722
:107BE000B5FA9DF80D309DF80820013B0A2104AC40
:107BF00063F30202BDF80E30B3FBF1F3013B63F314
