Archive member included to satisfy reference by file (symbol)

external/rtt/librtt_nrf52832_xxAA.a(SEGGER_RTT.c.obj)
                              examples/pb_remote/server/CMakeFiles/pb_remote_server_nrf52832_xxAA_s132_6.1.1.dir/__/__/__/mesh/core/src/log.c.obj (SEGGER_RTT_Write)
external/rtt/librtt_nrf52832_xxAA.a(SEGGER_RTT_printf.c.obj)
                              examples/pb_remote/server/CMakeFiles/pb_remote_server_nrf52832_xxAA_s132_6.1.1.dir/__/__/__/mesh/core/src/log.c.obj (SEGGER_RTT_vprintf)
external/micro-ecc/libuECC_nrf52832_xxAA.a(uECC.c.obj)
                              examples/pb_remote/server/CMakeFiles/pb_remote_server_nrf52832_xxAA_s132_6.1.1.dir/__/__/__/mesh/prov/src/prov_utils.c.obj (uECC_secp256r1)
c:/mesh/arm_gcc/bin/../lib/gcc/arm-none-eabi/7.3.1/thumb/v7e-m/fpv4-sp/hard\libgcc.a(_aeabi_ldivmod.o)
                              examples/pb_remote/server/CMakeFiles/pb_remote_server_nrf52832_xxAA_s132_6.1.1.dir/__/__/common/src/simple_hal.c.obj (__aeabi_ldivmod)
c:/mesh/arm_gcc/bin/../lib/gcc/arm-none-eabi/7.3.1/thumb/v7e-m/fpv4-sp/hard\libgcc.a(_aeabi_uldivmod.o)
                              examples/pb_remote/server/CMakeFiles/pb_remote_server_nrf52832_xxAA_s132_6.1.1.dir/__/__/common/src/simple_hal.c.obj (__aeabi_uldivmod)
c:/mesh/arm_gcc/bin/../lib/gcc/arm-none-eabi/7.3.1/thumb/v7e-m/fpv4-sp/hard\libgcc.a(_udivmoddi4.o)
                              c:/mesh/arm_gcc/bin/../lib/gcc/arm-none-eabi/7.3.1/thumb/v7e-m/fpv4-sp/hard\libgcc.a(_aeabi_ldivmod.o) (__udivmoddi4)
c:/mesh/arm_gcc/bin/../lib/gcc/arm-none-eabi/7.3.1/thumb/v7e-m/fpv4-sp/hard\libgcc.a(_dvmd_tls.o)
                              c:/mesh/arm_gcc/bin/../lib/gcc/arm-none-eabi/7.3.1/thumb/v7e-m/fpv4-sp/hard\libgcc.a(_aeabi_ldivmod.o) (__aeabi_ldiv0)
c:/mesh/arm_gcc/bin/../lib/gcc/arm-none-eabi/7.3.1/../../../../arm-none-eabi/lib/thumb/v7e-m/fpv4-sp/hard\libg_nano.a(lib_a-calloc.o)
                              examples/pb_remote/server/CMakeFiles/pb_remote_server_nrf52832_xxAA_s132_6.1.1.dir/__/__/__/mesh/core/src/mesh_mem_stdlib.c.obj (calloc)
c:/mesh/arm_gcc/bin/../lib/gcc/arm-none-eabi/7.3.1/../../../../arm-none-eabi/lib/thumb/v7e-m/fpv4-sp/hard\libg_nano.a(lib_a-exit.o)
                              c:/mesh/arm_gcc/bin/../lib/gcc/arm-none-eabi/7.3.1/../../../../arm-none-eabi/lib/thumb/v7e-m/fpv4-sp/hard/crt0.o (exit)
c:/mesh/arm_gcc/bin/../lib/gcc/arm-none-eabi/7.3.1/../../../../arm-none-eabi/lib/thumb/v7e-m/fpv4-sp/hard\libg_nano.a(lib_a-impure.o)
                              c:/mesh/arm_gcc/bin/../lib/gcc/arm-none-eabi/7.3.1/../../../../arm-none-eabi/lib/thumb/v7e-m/fpv4-sp/hard\libg_nano.a(lib_a-exit.o) (_global_impure_ptr)
c:/mesh/arm_gcc/bin/../lib/gcc/arm-none-eabi/7.3.1/../../../../arm-none-eabi/lib/thumb/v7e-m/fpv4-sp/hard\libg_nano.a(lib_a-init.o)
                              c:/mesh/arm_gcc/bin/../lib/gcc/arm-none-eabi/7.3.1/../../../../arm-none-eabi/lib/thumb/v7e-m/fpv4-sp/hard/crt0.o (__libc_init_array)
c:/mesh/arm_gcc/bin/../lib/gcc/arm-none-eabi/7.3.1/../../../../arm-none-eabi/lib/thumb/v7e-m/fpv4-sp/hard\libg_nano.a(lib_a-malloc.o)
                              examples/pb_remote/server/CMakeFiles/pb_remote_server_nrf52832_xxAA_s132_6.1.1.dir/__/__/__/mesh/core/src/mesh_mem_stdlib.c.obj (malloc)
c:/mesh/arm_gcc/bin/../lib/gcc/arm-none-eabi/7.3.1/../../../../arm-none-eabi/lib/thumb/v7e-m/fpv4-sp/hard\libg_nano.a(lib_a-memcmp.o)
                              examples/pb_remote/server/CMakeFiles/pb_remote_server_nrf52832_xxAA_s132_6.1.1.dir/C_/mesh/deps/nRF5_SDK_15.3.0_59ac345/components/ble/common/ble_advdata.c.obj (memcmp)
c:/mesh/arm_gcc/bin/../lib/gcc/arm-none-eabi/7.3.1/../../../../arm-none-eabi/lib/thumb/v7e-m/fpv4-sp/hard\libg_nano.a(lib_a-memcpy-stub.o)
                              examples/pb_remote/server/CMakeFiles/pb_remote_server_nrf52832_xxAA_s132_6.1.1.dir/C_/mesh/deps/nRF5_SDK_15.3.0_59ac345/components/ble/common/ble_advdata.c.obj (memcpy)
c:/mesh/arm_gcc/bin/../lib/gcc/arm-none-eabi/7.3.1/../../../../arm-none-eabi/lib/thumb/v7e-m/fpv4-sp/hard\libg_nano.a(lib_a-memset.o)
                              c:/mesh/arm_gcc/bin/../lib/gcc/arm-none-eabi/7.3.1/../../../../arm-none-eabi/lib/thumb/v7e-m/fpv4-sp/hard/crt0.o (memset)
c:/mesh/arm_gcc/bin/../lib/gcc/arm-none-eabi/7.3.1/../../../../arm-none-eabi/lib/thumb/v7e-m/fpv4-sp/hard\libg_nano.a(lib_a-nano-callocr.o)
                              c:/mesh/arm_gcc/bin/../lib/gcc/arm-none-eabi/7.3.1/../../../../arm-none-eabi/lib/thumb/v7e-m/fpv4-sp/hard\libg_nano.a(lib_a-calloc.o) (_calloc_r)
c:/mesh/arm_gcc/bin/../lib/gcc/arm-none-eabi/7.3.1/../../../../arm-none-eabi/lib/thumb/v7e-m/fpv4-sp/hard\libg_nano.a(lib_a-nano-freer.o)
                              c:/mesh/arm_gcc/bin/../lib/gcc/arm-none-eabi/7.3.1/../../../../arm-none-eabi/lib/thumb/v7e-m/fpv4-sp/hard\libg_nano.a(lib_a-malloc.o) (_free_r)
c:/mesh/arm_gcc/bin/../lib/gcc/arm-none-eabi/7.3.1/../../../../arm-none-eabi/lib/thumb/v7e-m/fpv4-sp/hard\libg_nano.a(lib_a-nano-mallocr.o)
                              c:/mesh/arm_gcc/bin/../lib/gcc/arm-none-eabi/7.3.1/../../../../arm-none-eabi/lib/thumb/v7e-m/fpv4-sp/hard\libg_nano.a(lib_a-malloc.o) (_malloc_r)
c:/mesh/arm_gcc/bin/../lib/gcc/arm-none-eabi/7.3.1/../../../../arm-none-eabi/lib/thumb/v7e-m/fpv4-sp/hard\libg_nano.a(lib_a-sbrkr.o)
                              c:/mesh/arm_gcc/bin/../lib/gcc/arm-none-eabi/7.3.1/../../../../arm-none-eabi/lib/thumb/v7e-m/fpv4-sp/hard\libg_nano.a(lib_a-nano-mallocr.o) (_sbrk_r)
c:/mesh/arm_gcc/bin/../lib/gcc/arm-none-eabi/7.3.1/../../../../arm-none-eabi/lib/thumb/v7e-m/fpv4-sp/hard\libg_nano.a(lib_a-strcpy.o)
                              external/rtt/librtt_nrf52832_xxAA.a(SEGGER_RTT.c.obj) (strcpy)
c:/mesh/arm_gcc/bin/../lib/gcc/arm-none-eabi/7.3.1/../../../../arm-none-eabi/lib/thumb/v7e-m/fpv4-sp/hard\libg_nano.a(lib_a-strlen.o)
                              examples/pb_remote/server/CMakeFiles/pb_remote_server_nrf52832_xxAA_s132_6.1.1.dir/C_/mesh/deps/nRF5_SDK_15.3.0_59ac345/components/ble/common/ble_advdata.c.obj (strlen)
c:/mesh/arm_gcc/bin/../lib/gcc/arm-none-eabi/7.3.1/../../../../arm-none-eabi/lib/thumb/v7e-m/fpv4-sp/hard\libg_nano.a(lib_a-strrchr.o)
                              examples/pb_remote/server/CMakeFiles/pb_remote_server_nrf52832_xxAA_s132_6.1.1.dir/src/main.c.obj (strrchr)
c:/mesh/arm_gcc/bin/../lib/gcc/arm-none-eabi/7.3.1/../../../../arm-none-eabi/lib/thumb/v7e-m/fpv4-sp/hard\libg_nano.a(lib_a-mlock.o)
                              c:/mesh/arm_gcc/bin/../lib/gcc/arm-none-eabi/7.3.1/../../../../arm-none-eabi/lib/thumb/v7e-m/fpv4-sp/hard\libg_nano.a(lib_a-nano-freer.o) (__malloc_lock)
c:/mesh/arm_gcc/bin/../lib/gcc/arm-none-eabi/7.3.1/../../../../arm-none-eabi/lib/thumb/v7e-m/fpv4-sp/hard\libg_nano.a(lib_a-reent.o)
                              c:/mesh/arm_gcc/bin/../lib/gcc/arm-none-eabi/7.3.1/../../../../arm-none-eabi/lib/thumb/v7e-m/fpv4-sp/hard\libg_nano.a(lib_a-sbrkr.o) (errno)
c:/mesh/arm_gcc/bin/../lib/gcc/arm-none-eabi/7.3.1/../../../../arm-none-eabi/lib/thumb/v7e-m/fpv4-sp/hard\libg_nano.a(lib_a-strchr.o)
                              c:/mesh/arm_gcc/bin/../lib/gcc/arm-none-eabi/7.3.1/../../../../arm-none-eabi/lib/thumb/v7e-m/fpv4-sp/hard\libg_nano.a(lib_a-strrchr.o) (strchr)
c:/mesh/arm_gcc/bin/../lib/gcc/arm-none-eabi/7.3.1/../../../../arm-none-eabi/lib/thumb/v7e-m/fpv4-sp/hard\libnosys.a(sbrk.o)
                              c:/mesh/arm_gcc/bin/../lib/gcc/arm-none-eabi/7.3.1/../../../../arm-none-eabi/lib/thumb/v7e-m/fpv4-sp/hard\libg_nano.a(lib_a-sbrkr.o) (_sbrk)
c:/mesh/arm_gcc/bin/../lib/gcc/arm-none-eabi/7.3.1/../../../../arm-none-eabi/lib/thumb/v7e-m/fpv4-sp/hard\libnosys.a(_exit.o)
                              c:/mesh/arm_gcc/bin/../lib/gcc/arm-none-eabi/7.3.1/../../../../arm-none-eabi/lib/thumb/v7e-m/fpv4-sp/hard\libg_nano.a(lib_a-exit.o) (_exit)

Allocating common symbols
Common symbol       size              file

nrf_nvic_state      0xc               examples/pb_remote/server/CMakeFiles/pb_remote_server_nrf52832_xxAA_s132_6.1.1.dir/C_/mesh/deps/nRF5_SDK_15.3.0_59ac345/components/libraries/util/app_util_platform.c.obj
m_packet            0x24              examples/pb_remote/server/CMakeFiles/pb_remote_server_nrf52832_xxAA_s132_6.1.1.dir/__/__/__/mesh/core/src/core_tx.c.obj
errno               0x4               c:/mesh/arm_gcc/bin/../lib/gcc/arm-none-eabi/7.3.1/../../../../arm-none-eabi/lib/thumb/v7e-m/fpv4-sp/hard\libg_nano.a(lib_a-reent.o)
_SEGGER_RTT         0x78              external/rtt/librtt_nrf52832_xxAA.a(SEGGER_RTT.c.obj)

Discarded input sections

 .text          0x00000000        0x0 c:/mesh/arm_gcc/bin/../lib/gcc/arm-none-eabi/7.3.1/thumb/v7e-m/fpv4-sp/hard/crti.o
 .data          0x00000000        0x0 c:/mesh/arm_gcc/bin/../lib/gcc/arm-none-eabi/7.3.1/thumb/v7e-m/fpv4-sp/hard/crti.o
 .bss           0x00000000        0x0 c:/mesh/arm_gcc/bin/../lib/gcc/arm-none-eabi/7.3.1/thumb/v7e-m/fpv4-sp/hard/crti.o
 .data          0x00000000        0x4 c:/mesh/arm_gcc/bin/../lib/gcc/arm-none-eabi/7.3.1/thumb/v7e-m/fpv4-sp/hard/crtbegin.o
 .data          0x00000000        0x0 c:/mesh/arm_gcc/bin/../lib/gcc/arm-none-eabi/7.3.1/../../../../arm-none-eabi/lib/thumb/v7e-m/fpv4-sp/hard/crt0.o
 .bss           0x00000000        0x0 c:/mesh/arm_gcc/bin/../lib/gcc/arm-none-eabi/7.3.1/../../../../arm-none-eabi/lib/thumb/v7e-m/fpv4-sp/hard/crt0.o
 .ARM.extab     0x00000000        0x0 c:/mesh/arm_gcc/bin/../lib/gcc/arm-none-eabi/7.3.1/../../../../arm-none-eabi/lib/thumb/v7e-m/fpv4-sp/hard/crt0.o
 .text          0x00000000        0x0 examples/pb_remote/server/CMakeFiles/pb_remote_server_nrf52832_xxAA_s132_6.1.1.dir/src/main.c.obj
 .data          0x00000000        0x0 examples/pb_remote/server/CMakeFiles/pb_remote_server_nrf52832_xxAA_s132_6.1.1.dir/src/main.c.obj
 .bss           0x00000000        0x0 examples/pb_remote/server/CMakeFiles/pb_remote_server_nrf52832_xxAA_s132_6.1.1.dir/src/main.c.obj
 .text          0x00000000        0x0 examples/pb_remote/server/CMakeFiles/pb_remote_server_nrf52832_xxAA_s132_6.1.1.dir/__/__/__/mesh/stack/src/mesh_stack.c.obj
 .data          0x00000000        0x0 examples/pb_remote/server/CMakeFiles/pb_remote_server_nrf52832_xxAA_s132_6.1.1.dir/__/__/__/mesh/stack/src/mesh_stack.c.obj
 .bss           0x00000000        0x0 examples/pb_remote/server/CMakeFiles/pb_remote_server_nrf52832_xxAA_s132_6.1.1.dir/__/__/__/mesh/stack/src/mesh_stack.c.obj
 .text.mesh_evt_handler
                0x00000000       0x1c examples/pb_remote/server/CMakeFiles/pb_remote_server_nrf52832_xxAA_s132_6.1.1.dir/__/__/__/mesh/stack/src/mesh_stack.c.obj
 .text.mesh_stack_device_reset
                0x00000000       0x20 examples/pb_remote/server/CMakeFiles/pb_remote_server_nrf52832_xxAA_s132_6.1.1.dir/__/__/__/mesh/stack/src/mesh_stack.c.obj
 .text.mesh_stack_persistence_flash_usage
Memory Configuration

Name             Origin             Length             Attributes
FLASH            0x00026000         0x00051000         xr
RAM              0x20002da0         0x0000cf60         xrw
*default*        0x00000000         0xffffffff

Linker script and memory map


.text           0x00026000    0x175c8
 *(.isr_vector)
 .isr_vector    0x00026000      0x200 examples/pb_remote/server/CMakeFiles/pb_remote_server_nrf52832_xxAA_s132_6.1.1.dir/C_/mesh/deps/nRF5_SDK_15.3.0_59ac345/modules/nrfx/mdk/gcc_startup_nrf52.S.obj
                0x00026000                __isr_vector
 *(.text*)
 .text          0x00026200       0x40 c:/mesh/arm_gcc/bin/../lib/gcc/arm-none-eabi/7.3.1/thumb/v7e-m/fpv4-sp/hard/crtbegin.o
 .text          0x00026240       0x74 c:/mesh/arm_gcc/bin/../lib/gcc/arm-none-eabi/7.3.1/../../../../arm-none-eabi/lib/thumb/v7e-m/fpv4-sp/hard/crt0.o
                0x00026240                _start
                0x00026240                _mainCRTStartup
 .text.sd_app_evt_wait
                0x000262b4        0x4 examples/pb_remote/server/CMakeFiles/pb_remote_server_nrf52832_xxAA_s132_6.1.1.dir/src/main.c.obj
 .text.models_init_cb
                0x000262b8       0x80 examples/pb_remote/server/CMakeFiles/pb_remote_server_nrf52832_xxAA_s132_6.1.1.dir/src/main.c.obj
 .text.device_identification_start_cb
                0x00026338       0x22 examples/pb_remote/server/CMakeFiles/pb_remote_server_nrf52832_xxAA_s132_6.1.1.dir/src/main.c.obj
 .text.provisioning_aborted_cb
                0x0002635a        0x4 examples/pb_remote/server/CMakeFiles/pb_remote_server_nrf52832_xxAA_s132_6.1.1.dir/src/main.c.obj
 *fill*         0x0002635e        0x2 
 .text.provisioning_complete_cb
                0x00026360      0x1bc examples/pb_remote/server/CMakeFiles/pb_remote_server_nrf52832_xxAA_s132_6.1.1.dir/src/main.c.obj
 .text.startup.main
                0x0002651c      0x150 examples/pb_remote/server/CMakeFiles/pb_remote_server_nrf52832_xxAA_s132_6.1.1.dir/src/main.c.obj
                0x0002651c                main
 .text.mesh_stack_start
                0x0002666c        0x4 examples/pb_remote/server/CMakeFiles/pb_remote_server_nrf52832_xxAA_s132_6.1.1.dir/__/__/__/mesh/stack/src/mesh_stack.c.obj
                0x0002666c                mesh_stack_start
 .text.mesh_stack_provisioning_data_store
                0x00026670       0xe4 examples/pb_remote/server/CMakeFiles/pb_remote_server_nrf52832_xxAA_s132_6.1.1.dir/__/__/__/mesh/stack/src/mesh_stack.c.obj
                0x00026670                mesh_stack_provisioning_data_store
 .text.mesh_stack_config_clear
                0x00026754       0x16 examples/pb_remote/server/CMakeFiles/pb_remote_server_nrf52832_xxAA_s132_6.1.1.dir/__/__/__/mesh/stack/src/mesh_stack.c.obj
                0x00026754                mesh_stack_config_clear
 .text.mesh_stack_is_device_provisioned
                0x0002676a       0x18 examples/pb_remote/server/CMakeFiles/pb_remote_server_nrf52832_xxAA_s132_6.1.1.dir/__/__/__/mesh/stack/src/mesh_stack.c.obj
                0x0002676a                mesh_stack_is_device_provisioned
 *fill*         0x00026782        0x2 
 .text.mesh_stack_init
                0x00026784       0x6c examples/pb_remote/server/CMakeFiles/pb_remote_server_nrf52832_xxAA_s132_6.1.1.dir/__/__/__/mesh/stack/src/mesh_stack.c.obj
                0x00026784                mesh_stack_init
 .text.provisionee_start
                0x000267f0       0x30 examples/pb_remote/server/CMakeFiles/pb_remote_server_nrf52832_xxAA_s132_6.1.1.dir/__/__/common/src/mesh_provisionee.c.obj
 .text.prov_evt_handler
                0x00026820       0xa4 examples/pb_remote/server/CMakeFiles/pb_remote_server_nrf52832_xxAA_s132_6.1.1.dir/__/__/common/src/mesh_provisionee.c.obj
 .text.mesh_provisionee_prov_start
                0x000268c4       0x78 examples/pb_remote/server/CMakeFiles/pb_remote_server_nrf52832_xxAA_s132_6.1.1.dir/__/__/common/src/mesh_provisionee.c.obj
                0x000268c4                mesh_provisionee_prov_start
 .text.led_timeout_handler
                0x0002693c       0x54 examples/pb_remote/server/CMakeFiles/pb_remote_server_nrf52832_xxAA_s132_6.1.1.dir/__/__/common/src/simple_hal.c.obj
 .text.hal_led_mask_set
                0x00026990       0x12 examples/pb_remote/server/CMakeFiles/pb_remote_server_nrf52832_xxAA_s132_6.1.1.dir/__/__/common/src/simple_hal.c.obj
                0x00026990                hal_led_mask_set
 *fill*         0x000269a2        0x2 
 .text.hal_led_blink_ms
                0x000269a4       0x64 examples/pb_remote/server/CMakeFiles/pb_remote_server_nrf52832_xxAA_s132_6.1.1.dir/__/__/common/src/simple_hal.c.obj
                0x000269a4                hal_led_blink_ms
 .text.hal_led_blink_stop
                0x00026a08       0x20 examples/pb_remote/server/CMakeFiles/pb_remote_server_nrf52832_xxAA_s132_6.1.1.dir/__/__/common/src/simple_hal.c.obj
                0x00026a08                hal_led_blink_stop
 .text.hal_leds_init
                0x00026a28       0x58 examples/pb_remote/server/CMakeFiles/pb_remote_server_nrf52832_xxAA_s132_6.1.1.dir/__/__/common/src/simple_hal.c.obj
                0x00026a28                hal_leds_init
 .text.GPIOTE_IRQHandler
                0x00026a80       0x60 examples/pb_remote/server/CMakeFiles/pb_remote_server_nrf52832_xxAA_s132_6.1.1.dir/__/__/common/src/simple_hal.c.obj
                0x00026a80                GPIOTE_IRQHandler
 .text.mesh_app_uuid_print
                0x00026ae0      0x11c examples/pb_remote/server/CMakeFiles/pb_remote_server_nrf52832_xxAA_s132_6.1.1.dir/__/__/common/src/mesh_app_utils.c.obj
                0x00026ae0                mesh_app_uuid_print
 .text.sd_ble_enable
                0x00026bfc        0x4 examples/pb_remote/server/CMakeFiles/pb_remote_server_nrf52832_xxAA_s132_6.1.1.dir/__/__/common/src/ble_softdevice_support.c.obj
 .text.sd_ble_cfg_set
                0x00026c00        0x4 examples/pb_remote/server/CMakeFiles/pb_remote_server_nrf52832_xxAA_s132_6.1.1.dir/__/__/common/src/ble_softdevice_support.c.obj
 .text.on_sd_evt
                0x00026c04        0x4 examples/pb_remote/server/CMakeFiles/pb_remote_server_nrf52832_xxAA_s132_6.1.1.dir/__/__/common/src/ble_softdevice_support.c.obj
 .text.ble_stack_init
                0x00026c08       0xd4 examples/pb_remote/server/CMakeFiles/pb_remote_server_nrf52832_xxAA_s132_6.1.1.dir/__/__/common/src/ble_softdevice_support.c.obj
                0x00026c08                ble_stack_init
 .text.app_util_critical_region_enter
                0x00026cdc       0x48 examples/pb_remote/server/CMakeFiles/pb_remote_server_nrf52832_xxAA_s132_6.1.1.dir/C_/mesh/deps/nRF5_SDK_15.3.0_59ac345/components/libraries/util/app_util_platform.c.obj
                0x00026cdc                app_util_critical_region_enter
 .text.app_util_critical_region_exit
                0x00026d24       0x2c examples/pb_remote/server/CMakeFiles/pb_remote_server_nrf52832_xxAA_s132_6.1.1.dir/C_/mesh/deps/nRF5_SDK_15.3.0_59ac345/components/libraries/util/app_util_platform.c.obj
                0x00026d24                app_util_critical_region_exit
 .text.nrf_section_iter_init
                0x00026d50       0x12 examples/pb_remote/server/CMakeFiles/pb_remote_server_nrf52832_xxAA_s132_6.1.1.dir/C_/mesh/deps/nRF5_SDK_15.3.0_59ac345/components/libraries/experimental_section_vars/nrf_section_iter.c.obj
                0x00026d50                nrf_section_iter_init
 .text.nrf_section_iter_next
                0x00026d62       0x18 examples/pb_remote/server/CMakeFiles/pb_remote_server_nrf52832_xxAA_s132_6.1.1.dir/C_/mesh/deps/nRF5_SDK_15.3.0_59ac345/components/libraries/experimental_section_vars/nrf_section_iter.c.obj
                0x00026d62                nrf_section_iter_next
 .text.sd_evt_get
                0x00026d7a        0x4 examples/pb_remote/server/CMakeFiles/pb_remote_server_nrf52832_xxAA_s132_6.1.1.dir/C_/mesh/deps/nRF5_SDK_15.3.0_59ac345/components/softdevice/common/nrf_sdh_soc.c.obj
 *fill*         0x00026d7e        0x2 
 .text.nrf_sdh_soc_evts_poll
                0x00026d80       0x3c examples/pb_remote/server/CMakeFiles/pb_remote_server_nrf52832_xxAA_s132_6.1.1.dir/C_/mesh/deps/nRF5_SDK_15.3.0_59ac345/components/softdevice/common/nrf_sdh_soc.c.obj
 .text.sd_ble_evt_get
                0x00026dbc        0x4 examples/pb_remote/server/CMakeFiles/pb_remote_server_nrf52832_xxAA_s132_6.1.1.dir/C_/mesh/deps/nRF5_SDK_15.3.0_59ac345/components/softdevice/common/nrf_sdh_ble.c.obj
 .text.nrf_sdh_ble_evts_poll
                0x00026dc0       0x50 examples/pb_remote/server/CMakeFiles/pb_remote_server_nrf52832_xxAA_s132_6.1.1.dir/C_/mesh/deps/nRF5_SDK_15.3.0_59ac345/components/softdevice/common/nrf_sdh_ble.c.obj
 .text.sd_softdevice_enable
                0x00026e10        0x4 examples/pb_remote/server/CMakeFiles/pb_remote_server_nrf52832_xxAA_s132_6.1.1.dir/C_/mesh/deps/nRF5_SDK_15.3.0_59ac345/components/softdevice/common/nrf_sdh.c.obj
 .text.sdh_request_observer_notify
                0x00026e14       0x30 examples/pb_remote/server/CMakeFiles/pb_remote_server_nrf52832_xxAA_s132_6.1.1.dir/C_/mesh/deps/nRF5_SDK_15.3.0_59ac345/components/softdevice/common/nrf_sdh.c.obj
 .text.sdh_state_observer_notify
                0x00026e44       0x28 examples/pb_remote/server/CMakeFiles/pb_remote_server_nrf52832_xxAA_s132_6.1.1.dir/C_/mesh/deps/nRF5_SDK_15.3.0_59ac345/components/softdevice/common/nrf_sdh.c.obj
 .text.softdevices_evt_irq_enable
                0x00026e6c       0x38 examples/pb_remote/server/CMakeFiles/pb_remote_server_nrf52832_xxAA_s132_6.1.1.dir/C_/mesh/deps/nRF5_SDK_15.3.0_59ac345/components/softdevice/common/nrf_sdh.c.obj
 .text.nrf_sdh_enable_request
                0x00026ea4       0x78 examples/pb_remote/server/CMakeFiles/pb_remote_server_nrf52832_xxAA_s132_6.1.1.dir/C_/mesh/deps/nRF5_SDK_15.3.0_59ac345/components/softdevice/common/nrf_sdh.c.obj
                0x00026ea4                nrf_sdh_enable_request
 .text.nrf_sdh_evts_poll
                0x00026f1c       0x28 examples/pb_remote/server/CMakeFiles/pb_remote_server_nrf52832_xxAA_s132_6.1.1.dir/C_/mesh/deps/nRF5_SDK_15.3.0_59ac345/components/softdevice/common/nrf_sdh.c.obj
                0x00026f1c                nrf_sdh_evts_poll
 .text.SWI2_EGU2_IRQHandler
                0x00026f44        0x4 examples/pb_remote/server/CMakeFiles/pb_remote_server_nrf52832_xxAA_s132_6.1.1.dir/C_/mesh/deps/nRF5_SDK_15.3.0_59ac345/components/softdevice/common/nrf_sdh.c.obj
                0x00026f44                SWI2_EGU2_IRQHandler
 .text._weak_handler
                0x00026f48        0x4 examples/pb_remote/server/CMakeFiles/pb_remote_server_nrf52832_xxAA_s132_6.1.1.dir/__/__/nrf_mesh_weak.c.obj
                0x00026f48                nrf_mesh_dfu_init
                0x00026f48                nrf_mesh_dfu_jump_to_bootloader
                0x00026f48                nrf_mesh_dfu_rx
                0x00026f48                prov_provisioner_provision
                0x00026f48                nrf_mesh_dfu_bank_info_get
                0x00026f48                prov_provisioner_oob_pubkey
                0x00026f48                nrf_mesh_dfu_request
                0x00026f48                nrf_mesh_dfu_bank_flash
                0x00026f48                nrf_mesh_dfu_enable
                0x00026f48                _weak_handler
                0x00026f48                nrf_mesh_dfu_relay
                0x00026f48                nrf_mesh_dfu_abort
                0x00026f48                mesh_flash_op_execute
                0x00026f48                prov_provisionee_init
                0x00026f48                nrf_mesh_dfu_state_get
                0x00026f48                prov_provisioner_shared_secret
                0x00026f48                prov_provisioner_auth_data
                0x00026f48                prov_provisioner_oob_use
 .text.app_error_fault_handler
                0x00026f4c      0x200 examples/pb_remote/server/CMakeFiles/pb_remote_server_nrf52832_xxAA_s132_6.1.1.dir/__/__/common/src/app_error_weak.c.obj
                0x00026f4c                app_error_fault_handler
 .text.mesh_assertion_handler
                0x0002714c       0x24 examples/pb_remote/server/CMakeFiles/pb_remote_server_nrf52832_xxAA_s132_6.1.1.dir/__/__/common/src/assertion_handler_weak.c.obj
                0x0002714c                mesh_assertion_handler
 .text.nrf_mesh_configure_device_uuid_set
                0x00027170       0x10 examples/pb_remote/server/CMakeFiles/pb_remote_server_nrf52832_xxAA_s132_6.1.1.dir/__/__/__/mesh/core/src/nrf_mesh_configure.c.obj
                0x00027170                nrf_mesh_configure_device_uuid_set
 .text.nrf_mesh_configure_device_uuid_reset
                0x00027180       0x3c examples/pb_remote/server/CMakeFiles/pb_remote_server_nrf52832_xxAA_s132_6.1.1.dir/__/__/__/mesh/core/src/nrf_mesh_configure.c.obj
                0x00027180                nrf_mesh_configure_device_uuid_reset
 .text.nrf_mesh_configure_device_uuid_get
                0x000271bc        0x8 examples/pb_remote/server/CMakeFiles/pb_remote_server_nrf52832_xxAA_s132_6.1.1.dir/__/__/__/mesh/core/src/nrf_mesh_configure.c.obj
                0x000271bc                nrf_mesh_configure_device_uuid_get
 .text.msg_cache_init
                0x000271c4       0x24 examples/pb_remote/server/CMakeFiles/pb_remote_server_nrf52832_xxAA_s132_6.1.1.dir/__/__/__/mesh/core/src/msg_cache.c.obj
                0x000271c4                msg_cache_init
 .text.msg_cache_entry_exists
                0x000271e8       0x3c examples/pb_remote/server/CMakeFiles/pb_remote_server_nrf52832_xxAA_s132_6.1.1.dir/__/__/__/mesh/core/src/msg_cache.c.obj
                0x000271e8                msg_cache_entry_exists
 .text.msg_cache_entry_add
                0x00027224       0x2c examples/pb_remote/server/CMakeFiles/pb_remote_server_nrf52832_xxAA_s132_6.1.1.dir/__/__/__/mesh/core/src/msg_cache.c.obj
                0x00027224                msg_cache_entry_add
 .text.seqauth_sequence_number_get
                0x00027250       0x12 examples/pb_remote/server/CMakeFiles/pb_remote_server_nrf52832_xxAA_s132_6.1.1.dir/__/__/__/mesh/core/src/transport.c.obj
 *fill*         0x00027262        0x2 
 .text.control_packet_callback_get
                0x00027264       0x40 examples/pb_remote/server/CMakeFiles/pb_remote_server_nrf52832_xxAA_s132_6.1.1.dir/__/__/__/mesh/core/src/transport.c.obj
 .text.tx_complete
                0x000272a4       0x2c examples/pb_remote/server/CMakeFiles/pb_remote_server_nrf52832_xxAA_s132_6.1.1.dir/__/__/__/mesh/core/src/transport.c.obj
 .text.seqauth_get
                0x000272d0       0x24 examples/pb_remote/server/CMakeFiles/pb_remote_server_nrf52832_xxAA_s132_6.1.1.dir/__/__/__/mesh/core/src/transport.c.obj
 .text.block_ack_full
                0x000272f4       0x1a examples/pb_remote/server/CMakeFiles/pb_remote_server_nrf52832_xxAA_s132_6.1.1.dir/__/__/__/mesh/core/src/transport.c.obj
 *fill*         0x0002730e        0x2 
 .text.sar_rx_session_mark_as_handled
                0x00027310       0x5c examples/pb_remote/server/CMakeFiles/pb_remote_server_nrf52832_xxAA_s132_6.1.1.dir/__/__/__/mesh/core/src/transport.c.obj
 .text.upper_trs_packet_encrypt
                0x0002736c       0x86 examples/pb_remote/server/CMakeFiles/pb_remote_server_nrf52832_xxAA_s132_6.1.1.dir/__/__/__/mesh/core/src/transport.c.obj
 *fill*         0x000273f2        0x2 
 .text.sar_ctx_alloc
                0x000273f4       0xbc examples/pb_remote/server/CMakeFiles/pb_remote_server_nrf52832_xxAA_s132_6.1.1.dir/__/__/__/mesh/core/src/transport.c.obj
 .text.sar_ctx_free
                0x000274b0       0x3a examples/pb_remote/server/CMakeFiles/pb_remote_server_nrf52832_xxAA_s132_6.1.1.dir/__/__/__/mesh/core/src/transport.c.obj
 .text.sar_ctx_tx_complete
                0x000274ea       0x2e examples/pb_remote/server/CMakeFiles/pb_remote_server_nrf52832_xxAA_s132_6.1.1.dir/__/__/__/mesh/core/src/transport.c.obj
 .text.transport_metadata_validate
                0x00027518       0x54 examples/pb_remote/server/CMakeFiles/pb_remote_server_nrf52832_xxAA_s132_6.1.1.dir/__/__/__/mesh/core/src/transport.c.obj
 .text.test_transport_decrypt
                0x0002756c       0x88 examples/pb_remote/server/CMakeFiles/pb_remote_server_nrf52832_xxAA_s132_6.1.1.dir/__/__/__/mesh/core/src/transport.c.obj
 .text.replay_list_add
                0x000275f4       0x44 examples/pb_remote/server/CMakeFiles/pb_remote_server_nrf52832_xxAA_s132_6.1.1.dir/__/__/__/mesh/core/src/transport.c.obj
 .text.upper_transport_access_packet_in
                0x00027638      0x1a0 examples/pb_remote/server/CMakeFiles/pb_remote_server_nrf52832_xxAA_s132_6.1.1.dir/__/__/__/mesh/core/src/transport.c.obj
 .text.trs_packet_header_build
                0x000277d8       0xa4 examples/pb_remote/server/CMakeFiles/pb_remote_server_nrf52832_xxAA_s132_6.1.1.dir/__/__/__/mesh/core/src/transport.c.obj
 .text.unsegmented_packet_tx
                0x0002787c       0x82 examples/pb_remote/server/CMakeFiles/pb_remote_server_nrf52832_xxAA_s132_6.1.1.dir/__/__/__/mesh/core/src/transport.c.obj
 *fill*         0x000278fe        0x2 
 .text.tx_retry_timer_reset
                0x00027900       0x3c examples/pb_remote/server/CMakeFiles/pb_remote_server_nrf52832_xxAA_s132_6.1.1.dir/__/__/__/mesh/core/src/transport.c.obj
 .text.sar_ctx_cancel
                0x0002793c       0xb0 examples/pb_remote/server/CMakeFiles/pb_remote_server_nrf52832_xxAA_s132_6.1.1.dir/__/__/__/mesh/core/src/transport.c.obj
 .text.abort_timeout
                0x000279ec        0x8 examples/pb_remote/server/CMakeFiles/pb_remote_server_nrf52832_xxAA_s132_6.1.1.dir/__/__/__/mesh/core/src/transport.c.obj
 .text.retry_timeout
                0x000279f4       0x4c examples/pb_remote/server/CMakeFiles/pb_remote_server_nrf52832_xxAA_s132_6.1.1.dir/__/__/__/mesh/core/src/transport.c.obj
 .text.trs_sar_packet_out
                0x00027a40       0xf4 examples/pb_remote/server/CMakeFiles/pb_remote_server_nrf52832_xxAA_s132_6.1.1.dir/__/__/__/mesh/core/src/transport.c.obj
 .text.transport_control_packet_in
                0x00027b34      0x1dc examples/pb_remote/server/CMakeFiles/pb_remote_server_nrf52832_xxAA_s132_6.1.1.dir/__/__/__/mesh/core/src/transport.c.obj
 .text.segmented_packet_tx
                0x00027d10      0x140 examples/pb_remote/server/CMakeFiles/pb_remote_server_nrf52832_xxAA_s132_6.1.1.dir/__/__/__/mesh/core/src/transport.c.obj
 .text.transport_init
                0x00027e50       0x84 examples/pb_remote/server/CMakeFiles/pb_remote_server_nrf52832_xxAA_s132_6.1.1.dir/__/__/__/mesh/core/src/transport.c.obj
                0x00027e50                transport_init
 .text.transport_enable
                0x00027ed4        0x4 examples/pb_remote/server/CMakeFiles/pb_remote_server_nrf52832_xxAA_s132_6.1.1.dir/__/__/__/mesh/core/src/transport.c.obj
                0x00027ed4                transport_enable
 .text.transport_tx
                0x00027ed8       0xec examples/pb_remote/server/CMakeFiles/pb_remote_server_nrf52832_xxAA_s132_6.1.1.dir/__/__/__/mesh/core/src/transport.c.obj
                0x00027ed8                transport_tx
 .text.transport_control_tx
                0x00027fc4       0x98 examples/pb_remote/server/CMakeFiles/pb_remote_server_nrf52832_xxAA_s132_6.1.1.dir/__/__/__/mesh/core/src/transport.c.obj
                0x00027fc4                transport_control_tx
 .text.sar_ack_send
                0x0002805c       0xa4 examples/pb_remote/server/CMakeFiles/pb_remote_server_nrf52832_xxAA_s132_6.1.1.dir/__/__/__/mesh/core/src/transport.c.obj
 .text.ack_timeout
                0x00028100       0x30 examples/pb_remote/server/CMakeFiles/pb_remote_server_nrf52832_xxAA_s132_6.1.1.dir/__/__/__/mesh/core/src/transport.c.obj
 .text.transport_packet_in
                0x00028130      0x504 examples/pb_remote/server/CMakeFiles/pb_remote_server_nrf52832_xxAA_s132_6.1.1.dir/__/__/__/mesh/core/src/transport.c.obj
                0x00028130                transport_packet_in
 .text.transport_sar_process
                0x00028634       0x70 examples/pb_remote/server/CMakeFiles/pb_remote_server_nrf52832_xxAA_s132_6.1.1.dir/__/__/__/mesh/core/src/transport.c.obj
 .text.transport_control_packet_consumer_add
                0x000286a4       0x5c examples/pb_remote/server/CMakeFiles/pb_remote_server_nrf52832_xxAA_s132_6.1.1.dir/__/__/__/mesh/core/src/transport.c.obj
                0x000286a4                transport_control_packet_consumer_add
 .text.event_handle
                0x00028700       0x54 examples/pb_remote/server/CMakeFiles/pb_remote_server_nrf52832_xxAA_s132_6.1.1.dir/__/__/__/mesh/core/src/event.c.obj
                0x00028700                event_handle
 .text.event_handler_add
                0x00028754       0x20 examples/pb_remote/server/CMakeFiles/pb_remote_server_nrf52832_xxAA_s132_6.1.1.dir/__/__/__/mesh/core/src/event.c.obj
                0x00028754                event_handler_add
 .text.m_index_increment
                0x00028774       0x1e examples/pb_remote/server/CMakeFiles/pb_remote_server_nrf52832_xxAA_s132_6.1.1.dir/__/__/__/mesh/core/src/packet_buffer.c.obj
 .text.m_get_next_packet
                0x00028792       0x1c examples/pb_remote/server/CMakeFiles/pb_remote_server_nrf52832_xxAA_s132_6.1.1.dir/__/__/__/mesh/core/src/packet_buffer.c.obj
 .text.packet_buffer_init
                0x000287ae       0xac examples/pb_remote/server/CMakeFiles/pb_remote_server_nrf52832_xxAA_s132_6.1.1.dir/__/__/__/mesh/core/src/packet_buffer.c.obj
                0x000287ae                packet_buffer_init
 .text.packet_buffer_flush
                0x0002885a       0x50 examples/pb_remote/server/CMakeFiles/pb_remote_server_nrf52832_xxAA_s132_6.1.1.dir/__/__/__/mesh/core/src/packet_buffer.c.obj
                0x0002885a                packet_buffer_flush
 .text.packet_buffer_reserve
                0x000288aa       0xa2 examples/pb_remote/server/CMakeFiles/pb_remote_server_nrf52832_xxAA_s132_6.1.1.dir/__/__/__/mesh/core/src/packet_buffer.c.obj
                0x000288aa                packet_buffer_reserve
 .text.packet_buffer_commit
                0x0002894c       0x62 examples/pb_remote/server/CMakeFiles/pb_remote_server_nrf52832_xxAA_s132_6.1.1.dir/__/__/__/mesh/core/src/packet_buffer.c.obj
                0x0002894c                packet_buffer_commit
 .text.packet_buffer_pop
                0x000289ae       0x5a examples/pb_remote/server/CMakeFiles/pb_remote_server_nrf52832_xxAA_s132_6.1.1.dir/__/__/__/mesh/core/src/packet_buffer.c.obj
                0x000289ae                packet_buffer_pop
 .text.packet_buffer_can_pop
                0x00028a08       0x34 examples/pb_remote/server/CMakeFiles/pb_remote_server_nrf52832_xxAA_s132_6.1.1.dir/__/__/__/mesh/core/src/packet_buffer.c.obj
                0x00028a08                packet_buffer_can_pop
 .text.packet_buffer_packets_ready_to_pop
                0x00028a3c       0x36 examples/pb_remote/server/CMakeFiles/pb_remote_server_nrf52832_xxAA_s132_6.1.1.dir/__/__/__/mesh/core/src/packet_buffer.c.obj
                0x00028a3c                packet_buffer_packets_ready_to_pop
 .text.packet_buffer_free
                0x00028a72       0x74 examples/pb_remote/server/CMakeFiles/pb_remote_server_nrf52832_xxAA_s132_6.1.1.dir/__/__/__/mesh/core/src/packet_buffer.c.obj
                0x00028a72                packet_buffer_free
 .text.packet_buffer_is_empty
                0x00028ae6       0x28 examples/pb_remote/server/CMakeFiles/pb_remote_server_nrf52832_xxAA_s132_6.1.1.dir/__/__/__/mesh/core/src/packet_buffer.c.obj
                0x00028ae6                packet_buffer_is_empty
 .text.get_last_page
                0x00028b0e       0x14 examples/pb_remote/server/CMakeFiles/pb_remote_server_nrf52832_xxAA_s132_6.1.1.dir/__/__/__/mesh/core/src/flash_manager_defrag.c.obj
 *fill*         0x00028b22        0x2 
 .text.defrag_on_end
                0x00028b24       0x1c examples/pb_remote/server/CMakeFiles/pb_remote_server_nrf52832_xxAA_s132_6.1.1.dir/__/__/__/mesh/core/src/flash_manager_defrag.c.obj
 .text.execute_procedure_step
                0x00028b40       0x70 examples/pb_remote/server/CMakeFiles/pb_remote_server_nrf52832_xxAA_s132_6.1.1.dir/__/__/__/mesh/core/src/flash_manager_defrag.c.obj
 .text.get_next_entry
                0x00028bb0       0x34 examples/pb_remote/server/CMakeFiles/pb_remote_server_nrf52832_xxAA_s132_6.1.1.dir/__/__/__/mesh/core/src/flash_manager_defrag.c.obj
 .text.get_next_data_entry
                0x00028be4       0x26 examples/pb_remote/server/CMakeFiles/pb_remote_server_nrf52832_xxAA_s132_6.1.1.dir/__/__/__/mesh/core/src/flash_manager_defrag.c.obj
 *fill*         0x00028c0a        0x2 
 .text.on_flash_op_end
                0x00028c0c       0x30 examples/pb_remote/server/CMakeFiles/pb_remote_server_nrf52832_xxAA_s132_6.1.1.dir/__/__/__/mesh/core/src/flash_manager_defrag.c.obj
 .text.check_for_invalid_entries
                0x00028c3c       0x38 examples/pb_remote/server/CMakeFiles/pb_remote_server_nrf52832_xxAA_s132_6.1.1.dir/__/__/__/mesh/core/src/flash_manager_defrag.c.obj
 .text.erase_recovery_area
                0x00028c74       0x34 examples/pb_remote/server/CMakeFiles/pb_remote_server_nrf52832_xxAA_s132_6.1.1.dir/__/__/__/mesh/core/src/flash_manager_defrag.c.obj
 .text.flash.constprop.6
                0x00028ca8       0x24 examples/pb_remote/server/CMakeFiles/pb_remote_server_nrf52832_xxAA_s132_6.1.1.dir/__/__/__/mesh/core/src/flash_manager_defrag.c.obj
 .text.invalidate_duplicate_entries
                0x00028ccc       0xa8 examples/pb_remote/server/CMakeFiles/pb_remote_server_nrf52832_xxAA_s132_6.1.1.dir/__/__/__/mesh/core/src/flash_manager_defrag.c.obj
 .text.seal_storage_page
                0x00028d74       0x50 examples/pb_remote/server/CMakeFiles/pb_remote_server_nrf52832_xxAA_s132_6.1.1.dir/__/__/__/mesh/core/src/flash_manager_defrag.c.obj
 .text.copy_metadata
                0x00028dc4       0x3c examples/pb_remote/server/CMakeFiles/pb_remote_server_nrf52832_xxAA_s132_6.1.1.dir/__/__/__/mesh/core/src/flash_manager_defrag.c.obj
 .text.write_defrag_start_pointer
                0x00028e00       0x20 examples/pb_remote/server/CMakeFiles/pb_remote_server_nrf52832_xxAA_s132_6.1.1.dir/__/__/__/mesh/core/src/flash_manager_defrag.c.obj
 .text.write_back
                0x00028e20       0x28 examples/pb_remote/server/CMakeFiles/pb_remote_server_nrf52832_xxAA_s132_6.1.1.dir/__/__/__/mesh/core/src/flash_manager_defrag.c.obj
 .text.post_process
                0x00028e48       0x40 examples/pb_remote/server/CMakeFiles/pb_remote_server_nrf52832_xxAA_s132_6.1.1.dir/__/__/__/mesh/core/src/flash_manager_defrag.c.obj
 .text.backup_entries
                0x00028e88       0xd8 examples/pb_remote/server/CMakeFiles/pb_remote_server_nrf52832_xxAA_s132_6.1.1.dir/__/__/__/mesh/core/src/flash_manager_defrag.c.obj
 .text.erase_source
                0x00028f60       0x34 examples/pb_remote/server/CMakeFiles/pb_remote_server_nrf52832_xxAA_s132_6.1.1.dir/__/__/__/mesh/core/src/flash_manager_defrag.c.obj
 .text.flash_manager_defrag_init
                0x00028f94       0x8c examples/pb_remote/server/CMakeFiles/pb_remote_server_nrf52832_xxAA_s132_6.1.1.dir/__/__/__/mesh/core/src/flash_manager_defrag.c.obj
                0x00028f94                flash_manager_defrag_init
 .text.flash_manager_defragging
                0x00029020       0x38 examples/pb_remote/server/CMakeFiles/pb_remote_server_nrf52832_xxAA_s132_6.1.1.dir/__/__/__/mesh/core/src/flash_manager_defrag.c.obj
                0x00029020                flash_manager_defragging
 .text.flash_manager_defrag_is_running
                0x00029058       0x10 examples/pb_remote/server/CMakeFiles/pb_remote_server_nrf52832_xxAA_s132_6.1.1.dir/__/__/__/mesh/core/src/flash_manager_defrag.c.obj
                0x00029058                flash_manager_defrag_is_running
 .text.flash_manager_defrag
                0x00029068       0x44 examples/pb_remote/server/CMakeFiles/pb_remote_server_nrf52832_xxAA_s132_6.1.1.dir/__/__/__/mesh/core/src/flash_manager_defrag.c.obj
                0x00029068                flash_manager_defrag
 .text.flash_manager_defrag_recovery_page_get
                0x000290ac        0xc examples/pb_remote/server/CMakeFiles/pb_remote_server_nrf52832_xxAA_s132_6.1.1.dir/__/__/__/mesh/core/src/flash_manager_defrag.c.obj
                0x000290ac                flash_manager_defrag_recovery_page_get
 .text.fifo_init
                0x000290b8       0x34 examples/pb_remote/server/CMakeFiles/pb_remote_server_nrf52832_xxAA_s132_6.1.1.dir/__/__/__/mesh/core/src/fifo.c.obj
                0x000290b8                fifo_init
 .text.fifo_push
                0x000290ec       0x50 examples/pb_remote/server/CMakeFiles/pb_remote_server_nrf52832_xxAA_s132_6.1.1.dir/__/__/__/mesh/core/src/fifo.c.obj
                0x000290ec                fifo_push
 .text.fifo_pop
                0x0002913c       0x52 examples/pb_remote/server/CMakeFiles/pb_remote_server_nrf52832_xxAA_s132_6.1.1.dir/__/__/__/mesh/core/src/fifo.c.obj
                0x0002913c                fifo_pop
 .text.fifo_flush
                0x0002918e        0x6 examples/pb_remote/server/CMakeFiles/pb_remote_server_nrf52832_xxAA_s132_6.1.1.dir/__/__/__/mesh/core/src/fifo.c.obj
                0x0002918e                fifo_flush
 .text.fifo_get_len
                0x00029194        0x8 examples/pb_remote/server/CMakeFiles/pb_remote_server_nrf52832_xxAA_s132_6.1.1.dir/__/__/__/mesh/core/src/fifo.c.obj
                0x00029194                fifo_get_len
 .text.wait_for_ready
                0x0002919c       0x10 examples/pb_remote/server/CMakeFiles/pb_remote_server_nrf52832_xxAA_s132_6.1.1.dir/__/__/__/mesh/core/src/nrf_flash.c.obj
 .text.nrf_flash_erase
                0x000291ac       0x50 examples/pb_remote/server/CMakeFiles/pb_remote_server_nrf52832_xxAA_s132_6.1.1.dir/__/__/__/mesh/core/src/nrf_flash.c.obj
                0x000291ac                nrf_flash_erase
 .text.nrf_flash_write
                0x000291fc       0x50 examples/pb_remote/server/CMakeFiles/pb_remote_server_nrf52832_xxAA_s132_6.1.1.dir/__/__/__/mesh/core/src/nrf_flash.c.obj
                0x000291fc                nrf_flash_write
 .text.entry_recover_cb
                0x0002924c       0x18 examples/pb_remote/server/CMakeFiles/pb_remote_server_nrf52832_xxAA_s132_6.1.1.dir/__/__/__/mesh/core/src/net_state.c.obj
 .text.flash_store_iv_index
                0x00029264       0x38 examples/pb_remote/server/CMakeFiles/pb_remote_server_nrf52832_xxAA_s132_6.1.1.dir/__/__/__/mesh/core/src/net_state.c.obj
 .text.flash_mem_available
                0x0002929c       0x14 examples/pb_remote/server/CMakeFiles/pb_remote_server_nrf52832_xxAA_s132_6.1.1.dir/__/__/__/mesh/core/src/net_state.c.obj
 .text.iv_index_notify
                0x000292b0       0x30 examples/pb_remote/server/CMakeFiles/pb_remote_server_nrf52832_xxAA_s132_6.1.1.dir/__/__/__/mesh/core/src/net_state.c.obj
 .text.seqnum_block_allocate
                0x000292e0       0x4c examples/pb_remote/server/CMakeFiles/pb_remote_server_nrf52832_xxAA_s132_6.1.1.dir/__/__/__/mesh/core/src/net_state.c.obj
 .text.net_state_reset
                0x0002932c       0x48 examples/pb_remote/server/CMakeFiles/pb_remote_server_nrf52832_xxAA_s132_6.1.1.dir/__/__/__/mesh/core/src/net_state.c.obj
                0x0002932c                net_state_reset
 .text.flash_write_complete
                0x00029374       0x64 examples/pb_remote/server/CMakeFiles/pb_remote_server_nrf52832_xxAA_s132_6.1.1.dir/__/__/__/mesh/core/src/net_state.c.obj
 .text.net_state_recover_from_flash
                0x000293d8       0x60 examples/pb_remote/server/CMakeFiles/pb_remote_server_nrf52832_xxAA_s132_6.1.1.dir/__/__/__/mesh/core/src/net_state.c.obj
                0x000293d8                net_state_recover_from_flash
 .text.net_state_flash_area_get
                0x00029438        0xc examples/pb_remote/server/CMakeFiles/pb_remote_server_nrf52832_xxAA_s132_6.1.1.dir/__/__/__/mesh/core/src/net_state.c.obj
                0x00029438                net_state_flash_area_get
 .text.init_flash_storage
                0x00029444       0x40 examples/pb_remote/server/CMakeFiles/pb_remote_server_nrf52832_xxAA_s132_6.1.1.dir/__/__/__/mesh/core/src/net_state.c.obj
 .text.net_state_init
                0x00029484       0x44 examples/pb_remote/server/CMakeFiles/pb_remote_server_nrf52832_xxAA_s132_6.1.1.dir/__/__/__/mesh/core/src/net_state.c.obj
                0x00029484                net_state_init
 .text.net_state_enable
                0x000294c8       0x30 examples/pb_remote/server/CMakeFiles/pb_remote_server_nrf52832_xxAA_s132_6.1.1.dir/__/__/__/mesh/core/src/net_state.c.obj
                0x000294c8                net_state_enable
 .text.net_state_iv_update_start
                0x000294f8       0x50 examples/pb_remote/server/CMakeFiles/pb_remote_server_nrf52832_xxAA_s132_6.1.1.dir/__/__/__/mesh/core/src/net_state.c.obj
                0x000294f8                net_state_iv_update_start
 .text.iv_update_trigger_if_pending
                0x00029548       0x6c examples/pb_remote/server/CMakeFiles/pb_remote_server_nrf52832_xxAA_s132_6.1.1.dir/__/__/__/mesh/core/src/net_state.c.obj
 .text.iv_update_timer_handler
                0x000295b4       0x64 examples/pb_remote/server/CMakeFiles/pb_remote_server_nrf52832_xxAA_s132_6.1.1.dir/__/__/__/mesh/core/src/net_state.c.obj
 .text.mesh_evt_handler
                0x00029618       0x8c examples/pb_remote/server/CMakeFiles/pb_remote_server_nrf52832_xxAA_s132_6.1.1.dir/__/__/__/mesh/core/src/net_state.c.obj
 .text.net_state_seqnum_alloc
                0x000296a4       0x68 examples/pb_remote/server/CMakeFiles/pb_remote_server_nrf52832_xxAA_s132_6.1.1.dir/__/__/__/mesh/core/src/net_state.c.obj
                0x000296a4                net_state_seqnum_alloc
 .text.net_state_iv_index_lock
                0x0002970c       0x3c examples/pb_remote/server/CMakeFiles/pb_remote_server_nrf52832_xxAA_s132_6.1.1.dir/__/__/__/mesh/core/src/net_state.c.obj
                0x0002970c                net_state_iv_index_lock
 .text.net_state_key_refresh_phase_changed
                0x00029748       0x20 examples/pb_remote/server/CMakeFiles/pb_remote_server_nrf52832_xxAA_s132_6.1.1.dir/__/__/__/mesh/core/src/net_state.c.obj
                0x00029748                net_state_key_refresh_phase_changed
 .text.net_state_beacon_iv_index_get
                0x00029768        0xc examples/pb_remote/server/CMakeFiles/pb_remote_server_nrf52832_xxAA_s132_6.1.1.dir/__/__/__/mesh/core/src/net_state.c.obj
                0x00029768                net_state_beacon_iv_index_get
 .text.net_state_tx_iv_index_get
                0x00029774       0x14 examples/pb_remote/server/CMakeFiles/pb_remote_server_nrf52832_xxAA_s132_6.1.1.dir/__/__/__/mesh/core/src/net_state.c.obj
                0x00029774                net_state_tx_iv_index_get
 .text.net_state_rx_iv_index_get
                0x00029788       0x18 examples/pb_remote/server/CMakeFiles/pb_remote_server_nrf52832_xxAA_s132_6.1.1.dir/__/__/__/mesh/core/src/net_state.c.obj
                0x00029788                net_state_rx_iv_index_get
 .text.net_state_iv_update_get
                0x000297a0        0xc examples/pb_remote/server/CMakeFiles/pb_remote_server_nrf52832_xxAA_s132_6.1.1.dir/__/__/__/mesh/core/src/net_state.c.obj
                0x000297a0                net_state_iv_update_get
 .text.net_state_iv_index_set
                0x000297ac       0x34 examples/pb_remote/server/CMakeFiles/pb_remote_server_nrf52832_xxAA_s132_6.1.1.dir/__/__/__/mesh/core/src/net_state.c.obj
                0x000297ac                net_state_iv_index_set
 .text.send_end_events
                0x000297e0       0x84 examples/pb_remote/server/CMakeFiles/pb_remote_server_nrf52832_xxAA_s132_6.1.1.dir/__/__/__/mesh/core/src/mesh_flash.c.obj
 .text.flash_op_action_prepare
                0x00029864       0x78 examples/pb_remote/server/CMakeFiles/pb_remote_server_nrf52832_xxAA_s132_6.1.1.dir/__/__/__/mesh/core/src/mesh_flash.c.obj
 .text.flash_op_schedule
                0x000298dc       0x20 examples/pb_remote/server/CMakeFiles/pb_remote_server_nrf52832_xxAA_s132_6.1.1.dir/__/__/__/mesh/core/src/mesh_flash.c.obj
 .text.flash_op_start
                0x000298fc      0x13c examples/pb_remote/server/CMakeFiles/pb_remote_server_nrf52832_xxAA_s132_6.1.1.dir/__/__/__/mesh/core/src/mesh_flash.c.obj
 .text.mesh_flash_init
                0x00029a38       0x7c examples/pb_remote/server/CMakeFiles/pb_remote_server_nrf52832_xxAA_s132_6.1.1.dir/__/__/__/mesh/core/src/mesh_flash.c.obj
                0x00029a38                mesh_flash_init
 .text.mesh_flash_user_callback_set
                0x00029ab4       0x20 examples/pb_remote/server/CMakeFiles/pb_remote_server_nrf52832_xxAA_s132_6.1.1.dir/__/__/__/mesh/core/src/mesh_flash.c.obj
                0x00029ab4                mesh_flash_user_callback_set
 .text.mesh_flash_op_push
                0x00029ad4      0x10c examples/pb_remote/server/CMakeFiles/pb_remote_server_nrf52832_xxAA_s132_6.1.1.dir/__/__/__/mesh/core/src/mesh_flash.c.obj
                0x00029ad4                mesh_flash_op_push
 .text.mesh_flash_set_suspended
                0x00029be0       0x70 examples/pb_remote/server/CMakeFiles/pb_remote_server_nrf52832_xxAA_s132_6.1.1.dir/__/__/__/mesh/core/src/mesh_flash.c.obj
                0x00029be0                mesh_flash_set_suspended
 .text.nrf_mesh_address_type_get
                0x00029c50       0x10 examples/pb_remote/server/CMakeFiles/pb_remote_server_nrf52832_xxAA_s132_6.1.1.dir/__/__/__/mesh/core/src/nrf_mesh_utils.c.obj
                0x00029c50                nrf_mesh_address_type_get
 .text.sd_softdevice_is_enabled
                0x00029c60        0x4 examples/pb_remote/server/CMakeFiles/pb_remote_server_nrf52832_xxAA_s132_6.1.1.dir/__/__/__/mesh/core/src/nrf_mesh.c.obj
 .text.nrf_mesh_listen
                0x00029c64      0x138 examples/pb_remote/server/CMakeFiles/pb_remote_server_nrf52832_xxAA_s132_6.1.1.dir/__/__/__/mesh/core/src/nrf_mesh.c.obj
 .text.scanner_packet_process_cb
                0x00029d9c       0x8c examples/pb_remote/server/CMakeFiles/pb_remote_server_nrf52832_xxAA_s132_6.1.1.dir/__/__/__/mesh/core/src/nrf_mesh.c.obj
 .text.nrf_mesh_init
                0x00029e28       0xe8 examples/pb_remote/server/CMakeFiles/pb_remote_server_nrf52832_xxAA_s132_6.1.1.dir/__/__/__/mesh/core/src/nrf_mesh.c.obj
                0x00029e28                nrf_mesh_init
 .text.nrf_mesh_enable
                0x00029f10       0xac examples/pb_remote/server/CMakeFiles/pb_remote_server_nrf52832_xxAA_s132_6.1.1.dir/__/__/__/mesh/core/src/nrf_mesh.c.obj
                0x00029f10                nrf_mesh_enable
 .text.nrf_mesh_packet_send
                0x00029fbc        0x4 examples/pb_remote/server/CMakeFiles/pb_remote_server_nrf52832_xxAA_s132_6.1.1.dir/__/__/__/mesh/core/src/nrf_mesh.c.obj
                0x00029fbc                nrf_mesh_packet_send
 .text.nrf_mesh_evt_handler_add
                0x00029fc0        0x4 examples/pb_remote/server/CMakeFiles/pb_remote_server_nrf52832_xxAA_s132_6.1.1.dir/__/__/__/mesh/core/src/nrf_mesh.c.obj
                0x00029fc0                nrf_mesh_evt_handler_add
 .text.nrf_mesh_on_sd_evt
                0x00029fc4        0xa examples/pb_remote/server/CMakeFiles/pb_remote_server_nrf52832_xxAA_s132_6.1.1.dir/__/__/__/mesh/core/src/nrf_mesh.c.obj
                0x00029fc4                nrf_mesh_on_sd_evt
 .text.nrf_mesh_subnet_added
                0x00029fce        0x2 examples/pb_remote/server/CMakeFiles/pb_remote_server_nrf52832_xxAA_s132_6.1.1.dir/__/__/__/mesh/core/src/nrf_mesh.c.obj
                0x00029fce                nrf_mesh_subnet_added
 .text.nrf_mesh_unique_token_get
                0x00029fd0       0x18 examples/pb_remote/server/CMakeFiles/pb_remote_server_nrf52832_xxAA_s132_6.1.1.dir/__/__/__/mesh/core/src/nrf_mesh.c.obj
                0x00029fd0                nrf_mesh_unique_token_get
 .text.queue_init
                0x00029fe8       0x14 examples/pb_remote/server/CMakeFiles/pb_remote_server_nrf52832_xxAA_s132_6.1.1.dir/__/__/__/mesh/core/src/queue.c.obj
                0x00029fe8                queue_init
 .text.queue_push
                0x00029ffc       0x34 examples/pb_remote/server/CMakeFiles/pb_remote_server_nrf52832_xxAA_s132_6.1.1.dir/__/__/__/mesh/core/src/queue.c.obj
                0x00029ffc                queue_push
 .text.queue_pop
                0x0002a030       0x26 examples/pb_remote/server/CMakeFiles/pb_remote_server_nrf52832_xxAA_s132_6.1.1.dir/__/__/__/mesh/core/src/queue.c.obj
                0x0002a030                queue_pop
 .text.queue_peek
                0x0002a056       0x10 examples/pb_remote/server/CMakeFiles/pb_remote_server_nrf52832_xxAA_s132_6.1.1.dir/__/__/__/mesh/core/src/queue.c.obj
                0x0002a056                queue_peek
 *fill*         0x0002a066        0x2 
 .text.hal_lfclk_ppm_get
                0x0002a068       0x14 examples/pb_remote/server/CMakeFiles/pb_remote_server_nrf52832_xxAA_s132_6.1.1.dir/__/__/__/mesh/core/src/hal.c.obj
                0x0002a068                hal_lfclk_ppm_get
 .text.hal_irq_active_get
                0x0002a07c       0x10 examples/pb_remote/server/CMakeFiles/pb_remote_server_nrf52832_xxAA_s132_6.1.1.dir/__/__/__/mesh/core/src/hal.c.obj
                0x0002a07c                hal_irq_active_get
 .text.hal_irq_is_enabled
                0x0002a08c       0x28 examples/pb_remote/server/CMakeFiles/pb_remote_server_nrf52832_xxAA_s132_6.1.1.dir/__/__/__/mesh/core/src/hal.c.obj
                0x0002a08c                hal_irq_is_enabled
 .text.sd_ecb_block_encrypt
                0x0002a0b4        0x4 examples/pb_remote/server/CMakeFiles/pb_remote_server_nrf52832_xxAA_s132_6.1.1.dir/__/__/__/mesh/core/src/aes_cmac.c.obj
 .text.utils_xor.constprop.1
                0x0002a0b8       0x20 examples/pb_remote/server/CMakeFiles/pb_remote_server_nrf52832_xxAA_s132_6.1.1.dir/__/__/__/mesh/core/src/aes_cmac.c.obj
 .text.aes_cmac
                0x0002a0d8      0x10c examples/pb_remote/server/CMakeFiles/pb_remote_server_nrf52832_xxAA_s132_6.1.1.dir/__/__/__/mesh/core/src/aes_cmac.c.obj
                0x0002a0d8                aes_cmac
 .text.add_evt  0x0002a1e4       0x50 examples/pb_remote/server/CMakeFiles/pb_remote_server_nrf52832_xxAA_s132_6.1.1.dir/__/__/__/mesh/core/src/timer_scheduler.c.obj
 .text.remove_evt
                0x0002a234       0x50 examples/pb_remote/server/CMakeFiles/pb_remote_server_nrf52832_xxAA_s132_6.1.1.dir/__/__/__/mesh/core/src/timer_scheduler.c.obj
 .text.timer_cb
                0x0002a284        0xc examples/pb_remote/server/CMakeFiles/pb_remote_server_nrf52832_xxAA_s132_6.1.1.dir/__/__/__/mesh/core/src/timer_scheduler.c.obj
 .text.setup_timeout.isra.0
                0x0002a290       0x1c examples/pb_remote/server/CMakeFiles/pb_remote_server_nrf52832_xxAA_s132_6.1.1.dir/__/__/__/mesh/core/src/timer_scheduler.c.obj
 .text.flag_event_cb
                0x0002a2ac       0xa4 examples/pb_remote/server/CMakeFiles/pb_remote_server_nrf52832_xxAA_s132_6.1.1.dir/__/__/__/mesh/core/src/timer_scheduler.c.obj
 .text.timer_sch_init
                0x0002a350       0x2c examples/pb_remote/server/CMakeFiles/pb_remote_server_nrf52832_xxAA_s132_6.1.1.dir/__/__/__/mesh/core/src/timer_scheduler.c.obj
                0x0002a350                timer_sch_init
 .text.timer_sch_schedule
                0x0002a37c       0x44 examples/pb_remote/server/CMakeFiles/pb_remote_server_nrf52832_xxAA_s132_6.1.1.dir/__/__/__/mesh/core/src/timer_scheduler.c.obj
                0x0002a37c                timer_sch_schedule
 .text.timer_sch_abort
                0x0002a3c0       0x2e examples/pb_remote/server/CMakeFiles/pb_remote_server_nrf52832_xxAA_s132_6.1.1.dir/__/__/__/mesh/core/src/timer_scheduler.c.obj
                0x0002a3c0                timer_sch_abort
 .text.timer_sch_reschedule
                0x0002a3ee       0x38 examples/pb_remote/server/CMakeFiles/pb_remote_server_nrf52832_xxAA_s132_6.1.1.dir/__/__/__/mesh/core/src/timer_scheduler.c.obj
                0x0002a3ee                timer_sch_reschedule
 .text.timer_init
                0x0002a426       0x1a examples/pb_remote/server/CMakeFiles/pb_remote_server_nrf52832_xxAA_s132_6.1.1.dir/__/__/__/mesh/core/src/timer.c.obj
                0x0002a426                timer_init
 .text.timer_now
                0x0002a440       0x48 examples/pb_remote/server/CMakeFiles/pb_remote_server_nrf52832_xxAA_s132_6.1.1.dir/__/__/__/mesh/core/src/timer.c.obj
                0x0002a440                timer_now
 .text.nrf_mesh_timer_tail_handle
                0x0002a488       0x34 examples/pb_remote/server/CMakeFiles/pb_remote_server_nrf52832_xxAA_s132_6.1.1.dir/__/__/__/mesh/core/src/timer.c.obj
                0x0002a488                nrf_mesh_timer_tail_handle
 .text.nrf_mesh_timer_ovfw_handle
                0x0002a4bc       0x98 examples/pb_remote/server/CMakeFiles/pb_remote_server_nrf52832_xxAA_s132_6.1.1.dir/__/__/__/mesh/core/src/timer.c.obj
                0x0002a4bc                nrf_mesh_timer_ovfw_handle
 .text.timer_start
                0x0002a554       0xac examples/pb_remote/server/CMakeFiles/pb_remote_server_nrf52832_xxAA_s132_6.1.1.dir/__/__/__/mesh/core/src/timer.c.obj
                0x0002a554                timer_start
 .text.timer_stop
                0x0002a600       0x30 examples/pb_remote/server/CMakeFiles/pb_remote_server_nrf52832_xxAA_s132_6.1.1.dir/__/__/__/mesh/core/src/timer.c.obj
                0x0002a600                timer_stop
 .text.sd_rand_application_bytes_available_get
                0x0002a630        0x4 examples/pb_remote/server/CMakeFiles/pb_remote_server_nrf52832_xxAA_s132_6.1.1.dir/__/__/__/mesh/core/src/rand.c.obj
 .text.sd_rand_application_vector_get
                0x0002a634        0x4 examples/pb_remote/server/CMakeFiles/pb_remote_server_nrf52832_xxAA_s132_6.1.1.dir/__/__/__/mesh/core/src/rand.c.obj
 .text.rand_prng_get
                0x0002a638       0x24 examples/pb_remote/server/CMakeFiles/pb_remote_server_nrf52832_xxAA_s132_6.1.1.dir/__/__/__/mesh/core/src/rand.c.obj
                0x0002a638                rand_prng_get
 .text.rand_hw_rng_get
                0x0002a65c       0x44 examples/pb_remote/server/CMakeFiles/pb_remote_server_nrf52832_xxAA_s132_6.1.1.dir/__/__/__/mesh/core/src/rand.c.obj
                0x0002a65c                rand_hw_rng_get
 .text.rand_prng_seed
                0x0002a6a0       0x34 examples/pb_remote/server/CMakeFiles/pb_remote_server_nrf52832_xxAA_s132_6.1.1.dir/__/__/__/mesh/core/src/rand.c.obj
                0x0002a6a0                rand_prng_seed
 .text.mesh_opt_init
                0x0002a6d4        0x2 examples/pb_remote/server/CMakeFiles/pb_remote_server_nrf52832_xxAA_s132_6.1.1.dir/__/__/__/mesh/core/src/mesh_opt.c.obj
                0x0002a6d4                mesh_opt_init
 .text.sd_radio_session_open
                0x0002a6d6        0x4 examples/pb_remote/server/CMakeFiles/pb_remote_server_nrf52832_xxAA_s132_6.1.1.dir/__/__/__/mesh/core/src/timeslot.c.obj
 .text.sd_radio_session_close
                0x0002a6da        0x4 examples/pb_remote/server/CMakeFiles/pb_remote_server_nrf52832_xxAA_s132_6.1.1.dir/__/__/__/mesh/core/src/timeslot.c.obj
 .text.sd_radio_request
                0x0002a6de        0x4 examples/pb_remote/server/CMakeFiles/pb_remote_server_nrf52832_xxAA_s132_6.1.1.dir/__/__/__/mesh/core/src/timeslot.c.obj
 *fill*         0x0002a6e2        0x2 
 .text.end_timer_handler
                0x0002a6e4       0x24 examples/pb_remote/server/CMakeFiles/pb_remote_server_nrf52832_xxAA_s132_6.1.1.dir/__/__/__/mesh/core/src/timeslot.c.obj
 .text.get_end_time.isra.3
                0x0002a708       0x20 examples/pb_remote/server/CMakeFiles/pb_remote_server_nrf52832_xxAA_s132_6.1.1.dir/__/__/__/mesh/core/src/timeslot.c.obj
 .text.on_ts_begin.constprop.9
                0x0002a728       0x48 examples/pb_remote/server/CMakeFiles/pb_remote_server_nrf52832_xxAA_s132_6.1.1.dir/__/__/__/mesh/core/src/timeslot.c.obj
 .text.handle_extend_end.constprop.5
                0x0002a770       0x88 examples/pb_remote/server/CMakeFiles/pb_remote_server_nrf52832_xxAA_s132_6.1.1.dir/__/__/__/mesh/core/src/timeslot.c.obj
 .text.radio_signal_callback
                0x0002a7f8      0x12c examples/pb_remote/server/CMakeFiles/pb_remote_server_nrf52832_xxAA_s132_6.1.1.dir/__/__/__/mesh/core/src/timeslot.c.obj
 .text.timeslot_sd_event_handler
                0x0002a924       0x60 examples/pb_remote/server/CMakeFiles/pb_remote_server_nrf52832_xxAA_s132_6.1.1.dir/__/__/__/mesh/core/src/timeslot.c.obj
                0x0002a924                timeslot_sd_event_handler
 .text.timeslot_init
                0x0002a984       0x50 examples/pb_remote/server/CMakeFiles/pb_remote_server_nrf52832_xxAA_s132_6.1.1.dir/__/__/__/mesh/core/src/timeslot.c.obj
                0x0002a984                timeslot_init
 .text.timeslot_start
                0x0002a9d4       0x48 examples/pb_remote/server/CMakeFiles/pb_remote_server_nrf52832_xxAA_s132_6.1.1.dir/__/__/__/mesh/core/src/timeslot.c.obj
                0x0002a9d4                timeslot_start
 .text.timeslot_end_is_pending
                0x0002aa1c       0x28 examples/pb_remote/server/CMakeFiles/pb_remote_server_nrf52832_xxAA_s132_6.1.1.dir/__/__/__/mesh/core/src/timeslot.c.obj
                0x0002aa1c                timeslot_end_is_pending
 .text.timeslot_length_get
                0x0002aa44        0xc examples/pb_remote/server/CMakeFiles/pb_remote_server_nrf52832_xxAA_s132_6.1.1.dir/__/__/__/mesh/core/src/timeslot.c.obj
                0x0002aa44                timeslot_length_get
 .text.timeslot_remaining_time_get
                0x0002aa50       0x24 examples/pb_remote/server/CMakeFiles/pb_remote_server_nrf52832_xxAA_s132_6.1.1.dir/__/__/__/mesh/core/src/timeslot.c.obj
                0x0002aa50                timeslot_remaining_time_get
 .text.timeslot_is_in_cb
                0x0002aa74        0xc examples/pb_remote/server/CMakeFiles/pb_remote_server_nrf52832_xxAA_s132_6.1.1.dir/__/__/__/mesh/core/src/timeslot.c.obj
                0x0002aa74                timeslot_is_in_cb
 .text.timeslot_trigger
                0x0002aa80       0x24 examples/pb_remote/server/CMakeFiles/pb_remote_server_nrf52832_xxAA_s132_6.1.1.dir/__/__/__/mesh/core/src/timeslot.c.obj
                0x0002aa80                timeslot_trigger
 .text.timeslot_stop
                0x0002aaa4       0x1c examples/pb_remote/server/CMakeFiles/pb_remote_server_nrf52832_xxAA_s132_6.1.1.dir/__/__/__/mesh/core/src/timeslot.c.obj
                0x0002aaa4                timeslot_stop
 .text.timeslot_restart
                0x0002aac0       0x24 examples/pb_remote/server/CMakeFiles/pb_remote_server_nrf52832_xxAA_s132_6.1.1.dir/__/__/__/mesh/core/src/timeslot.c.obj
                0x0002aac0                timeslot_restart
 .text.timeslot_state_lock
                0x0002aae4       0x24 examples/pb_remote/server/CMakeFiles/pb_remote_server_nrf52832_xxAA_s132_6.1.1.dir/__/__/__/mesh/core/src/timeslot.c.obj
                0x0002aae4                timeslot_state_lock
 .text.timer_mut_unlock
                0x0002ab08       0x10 examples/pb_remote/server/CMakeFiles/pb_remote_server_nrf52832_xxAA_s132_6.1.1.dir/__/__/__/mesh/core/src/timeslot_timer.c.obj
 .text.ts_timer_order_cb
                0x0002ab18       0x64 examples/pb_remote/server/CMakeFiles/pb_remote_server_nrf52832_xxAA_s132_6.1.1.dir/__/__/__/mesh/core/src/timeslot_timer.c.obj
                0x0002ab18                ts_timer_order_cb
 .text.ts_timer_now
                0x0002ab7c       0x40 examples/pb_remote/server/CMakeFiles/pb_remote_server_nrf52832_xxAA_s132_6.1.1.dir/__/__/__/mesh/core/src/timeslot_timer.c.obj
                0x0002ab7c                ts_timer_now
 .text.ts_timer_event_handler
                0x0002abbc       0x68 examples/pb_remote/server/CMakeFiles/pb_remote_server_nrf52832_xxAA_s132_6.1.1.dir/__/__/__/mesh/core/src/timeslot_timer.c.obj
                0x0002abbc                ts_timer_event_handler
 .text.ts_timer_to_device_time
                0x0002ac24        0xc examples/pb_remote/server/CMakeFiles/pb_remote_server_nrf52832_xxAA_s132_6.1.1.dir/__/__/__/mesh/core/src/timeslot_timer.c.obj
                0x0002ac24                ts_timer_to_device_time
 .text.ts_timer_on_ts_begin
                0x0002ac30       0x64 examples/pb_remote/server/CMakeFiles/pb_remote_server_nrf52832_xxAA_s132_6.1.1.dir/__/__/__/mesh/core/src/timeslot_timer.c.obj
                0x0002ac30                ts_timer_on_ts_begin
 .text.ts_timer_on_ts_end
                0x0002ac94       0x48 examples/pb_remote/server/CMakeFiles/pb_remote_server_nrf52832_xxAA_s132_6.1.1.dir/__/__/__/mesh/core/src/timeslot_timer.c.obj
                0x0002ac94                ts_timer_on_ts_end
 .text.trigger_event_handler
                0x0002acdc       0x1c examples/pb_remote/server/CMakeFiles/pb_remote_server_nrf52832_xxAA_s132_6.1.1.dir/__/__/__/mesh/core/src/bearer_event.c.obj
 .text.bearer_event_init
                0x0002acf8       0x58 examples/pb_remote/server/CMakeFiles/pb_remote_server_nrf52832_xxAA_s132_6.1.1.dir/__/__/__/mesh/core/src/bearer_event.c.obj
                0x0002acf8                bearer_event_init
 .text.bearer_event_start
                0x0002ad50       0x44 examples/pb_remote/server/CMakeFiles/pb_remote_server_nrf52832_xxAA_s132_6.1.1.dir/__/__/__/mesh/core/src/bearer_event.c.obj
                0x0002ad50                bearer_event_start
 .text.bearer_event_critical_section_begin
                0x0002ad94       0x80 examples/pb_remote/server/CMakeFiles/pb_remote_server_nrf52832_xxAA_s132_6.1.1.dir/__/__/__/mesh/core/src/bearer_event.c.obj
                0x0002ad94                bearer_event_critical_section_begin
 .text.bearer_event_critical_section_end
                0x0002ae14       0x60 examples/pb_remote/server/CMakeFiles/pb_remote_server_nrf52832_xxAA_s132_6.1.1.dir/__/__/__/mesh/core/src/bearer_event.c.obj
                0x0002ae14                bearer_event_critical_section_end
 .text.bearer_event_flag_add
                0x0002ae74       0x3c examples/pb_remote/server/CMakeFiles/pb_remote_server_nrf52832_xxAA_s132_6.1.1.dir/__/__/__/mesh/core/src/bearer_event.c.obj
                0x0002ae74                bearer_event_flag_add
 .text.bearer_event_flag_set
                0x0002aeb0       0x44 examples/pb_remote/server/CMakeFiles/pb_remote_server_nrf52832_xxAA_s132_6.1.1.dir/__/__/__/mesh/core/src/bearer_event.c.obj
                0x0002aeb0                bearer_event_flag_set
 .text.bearer_event_sequential_add
                0x0002aef4       0x2e examples/pb_remote/server/CMakeFiles/pb_remote_server_nrf52832_xxAA_s132_6.1.1.dir/__/__/__/mesh/core/src/bearer_event.c.obj
                0x0002aef4                bearer_event_sequential_add
 *fill*         0x0002af22        0x2 
 .text.bearer_event_sequential_post
                0x0002af24       0x44 examples/pb_remote/server/CMakeFiles/pb_remote_server_nrf52832_xxAA_s132_6.1.1.dir/__/__/__/mesh/core/src/bearer_event.c.obj
                0x0002af24                bearer_event_sequential_post
 .text.bearer_event_sequential_pending
                0x0002af68       0x10 examples/pb_remote/server/CMakeFiles/pb_remote_server_nrf52832_xxAA_s132_6.1.1.dir/__/__/__/mesh/core/src/bearer_event.c.obj
                0x0002af68                bearer_event_sequential_pending
 .text.bearer_event_handler
                0x0002af78       0xe4 examples/pb_remote/server/CMakeFiles/pb_remote_server_nrf52832_xxAA_s132_6.1.1.dir/__/__/__/mesh/core/src/bearer_event.c.obj
                0x0002af78                bearer_event_handler
 .text.QDEC_IRQHandler
                0x0002b05c        0x4 examples/pb_remote/server/CMakeFiles/pb_remote_server_nrf52832_xxAA_s132_6.1.1.dir/__/__/__/mesh/core/src/bearer_event.c.obj
                0x0002b05c                QDEC_IRQHandler
 .text.bearer_event_in_correct_irq_priority
                0x0002b060       0x74 examples/pb_remote/server/CMakeFiles/pb_remote_server_nrf52832_xxAA_s132_6.1.1.dir/__/__/__/mesh/core/src/bearer_event.c.obj
                0x0002b060                bearer_event_in_correct_irq_priority
 .text.sd_ecb_block_encrypt
                0x0002b0d4        0x4 examples/pb_remote/server/CMakeFiles/pb_remote_server_nrf52832_xxAA_s132_6.1.1.dir/__/__/__/mesh/core/src/enc.c.obj
 .text.enc_aes_encrypt
                0x0002b0d8       0x32 examples/pb_remote/server/CMakeFiles/pb_remote_server_nrf52832_xxAA_s132_6.1.1.dir/__/__/__/mesh/core/src/enc.c.obj
                0x0002b0d8                enc_aes_encrypt
 .text.enc_aes_cmac
                0x0002b10a        0x4 examples/pb_remote/server/CMakeFiles/pb_remote_server_nrf52832_xxAA_s132_6.1.1.dir/__/__/__/mesh/core/src/enc.c.obj
                0x0002b10a                enc_aes_cmac
 .text.enc_aes_ccm_encrypt
                0x0002b10e        0x4 examples/pb_remote/server/CMakeFiles/pb_remote_server_nrf52832_xxAA_s132_6.1.1.dir/__/__/__/mesh/core/src/enc.c.obj
                0x0002b10e                enc_aes_ccm_encrypt
 .text.enc_aes_ccm_decrypt
                0x0002b112        0x4 examples/pb_remote/server/CMakeFiles/pb_remote_server_nrf52832_xxAA_s132_6.1.1.dir/__/__/__/mesh/core/src/enc.c.obj
                0x0002b112                enc_aes_ccm_decrypt
 .text.enc_nonce_generate
                0x0002b116       0xbc examples/pb_remote/server/CMakeFiles/pb_remote_server_nrf52832_xxAA_s132_6.1.1.dir/__/__/__/mesh/core/src/enc.c.obj
                0x0002b116                enc_nonce_generate
 .text.enc_s1   0x0002b1d2       0x2c examples/pb_remote/server/CMakeFiles/pb_remote_server_nrf52832_xxAA_s132_6.1.1.dir/__/__/__/mesh/core/src/enc.c.obj
                0x0002b1d2                enc_s1
 .text.enc_k1   0x0002b1fe       0x3c examples/pb_remote/server/CMakeFiles/pb_remote_server_nrf52832_xxAA_s132_6.1.1.dir/__/__/__/mesh/core/src/enc.c.obj
                0x0002b1fe                enc_k1
 *fill*         0x0002b23a        0x2 
 .text.enc_k2   0x0002b23c       0xc0 examples/pb_remote/server/CMakeFiles/pb_remote_server_nrf52832_xxAA_s132_6.1.1.dir/__/__/__/mesh/core/src/enc.c.obj
                0x0002b23c                enc_k2
 .text.enc_k3   0x0002b2fc       0x5c examples/pb_remote/server/CMakeFiles/pb_remote_server_nrf52832_xxAA_s132_6.1.1.dir/__/__/__/mesh/core/src/enc.c.obj
                0x0002b2fc                enc_k3
 .text.enc_k4   0x0002b358       0x54 examples/pb_remote/server/CMakeFiles/pb_remote_server_nrf52832_xxAA_s132_6.1.1.dir/__/__/__/mesh/core/src/enc.c.obj
                0x0002b358                enc_k4
 .text.allocate_packet
                0x0002b3ac       0x6e examples/pb_remote/server/CMakeFiles/pb_remote_server_nrf52832_xxAA_s132_6.1.1.dir/__/__/__/mesh/core/src/network.c.obj
 *fill*         0x0002b41a        0x2 
 .text.network_init
                0x0002b41c       0x24 examples/pb_remote/server/CMakeFiles/pb_remote_server_nrf52832_xxAA_s132_6.1.1.dir/__/__/__/mesh/core/src/network.c.obj
                0x0002b41c                network_init
 .text.network_enable
                0x0002b440        0xe examples/pb_remote/server/CMakeFiles/pb_remote_server_nrf52832_xxAA_s132_6.1.1.dir/__/__/__/mesh/core/src/network.c.obj
                0x0002b440                network_enable
 .text.network_packet_alloc
                0x0002b44e       0x42 examples/pb_remote/server/CMakeFiles/pb_remote_server_nrf52832_xxAA_s132_6.1.1.dir/__/__/__/mesh/core/src/network.c.obj
                0x0002b44e                network_packet_alloc
 .text.network_packet_send
                0x0002b490       0xe0 examples/pb_remote/server/CMakeFiles/pb_remote_server_nrf52832_xxAA_s132_6.1.1.dir/__/__/__/mesh/core/src/network.c.obj
                0x0002b490                network_packet_send
 .text.network_packet_in
                0x0002b570      0x2ac examples/pb_remote/server/CMakeFiles/pb_remote_server_nrf52832_xxAA_s132_6.1.1.dir/__/__/__/mesh/core/src/network.c.obj
                0x0002b570                network_packet_in
 .text.nonce_type_get
                0x0002b81c       0x16 examples/pb_remote/server/CMakeFiles/pb_remote_server_nrf52832_xxAA_s132_6.1.1.dir/__/__/__/mesh/core/src/net_packet.c.obj
 .text.header_transfuscate
                0x0002b832       0x54 examples/pb_remote/server/CMakeFiles/pb_remote_server_nrf52832_xxAA_s132_6.1.1.dir/__/__/__/mesh/core/src/net_packet.c.obj
 *fill*         0x0002b886        0x2 
 .text.try_decrypt
                0x0002b888      0x18c examples/pb_remote/server/CMakeFiles/pb_remote_server_nrf52832_xxAA_s132_6.1.1.dir/__/__/__/mesh/core/src/net_packet.c.obj
 .text.net_packet_decrypt
                0x0002ba14       0x94 examples/pb_remote/server/CMakeFiles/pb_remote_server_nrf52832_xxAA_s132_6.1.1.dir/__/__/__/mesh/core/src/net_packet.c.obj
                0x0002ba14                net_packet_decrypt
 .text.net_packet_encrypt
                0x0002baa8       0x7e examples/pb_remote/server/CMakeFiles/pb_remote_server_nrf52832_xxAA_s132_6.1.1.dir/__/__/__/mesh/core/src/net_packet.c.obj
                0x0002baa8                net_packet_encrypt
 .text.net_packet_header_set
                0x0002bb26       0xaa examples/pb_remote/server/CMakeFiles/pb_remote_server_nrf52832_xxAA_s132_6.1.1.dir/__/__/__/mesh/core/src/net_packet.c.obj
                0x0002bb26                net_packet_header_set
 .text.net_packet_payload_len_get
                0x0002bbd0       0x10 examples/pb_remote/server/CMakeFiles/pb_remote_server_nrf52832_xxAA_s132_6.1.1.dir/__/__/__/mesh/core/src/net_packet.c.obj
                0x0002bbd0                net_packet_payload_len_get
 .text.net_packet_from_payload
                0x0002bbe0        0x4 examples/pb_remote/server/CMakeFiles/pb_remote_server_nrf52832_xxAA_s132_6.1.1.dir/__/__/__/mesh/core/src/net_packet.c.obj
                0x0002bbe0                net_packet_from_payload
 .text.net_packet_obfuscation_start_get
                0x0002bbe4        0x4 examples/pb_remote/server/CMakeFiles/pb_remote_server_nrf52832_xxAA_s132_6.1.1.dir/__/__/__/mesh/core/src/net_packet.c.obj
                0x0002bbe4                net_packet_obfuscation_start_get
 .text.stage_get_available
                0x0002bbe8       0x24 examples/pb_remote/server/CMakeFiles/pb_remote_server_nrf52832_xxAA_s132_6.1.1.dir/__/__/__/mesh/core/src/msqueue.c.obj
 .text.msq_get  0x0002bc0c       0x38 examples/pb_remote/server/CMakeFiles/pb_remote_server_nrf52832_xxAA_s132_6.1.1.dir/__/__/__/mesh/core/src/msqueue.c.obj
                0x0002bc0c                msq_get
 .text.msq_move
                0x0002bc44       0x2e examples/pb_remote/server/CMakeFiles/pb_remote_server_nrf52832_xxAA_s132_6.1.1.dir/__/__/__/mesh/core/src/msqueue.c.obj
                0x0002bc44                msq_move
 .text.msq_reset
                0x0002bc72       0x20 examples/pb_remote/server/CMakeFiles/pb_remote_server_nrf52832_xxAA_s132_6.1.1.dir/__/__/__/mesh/core/src/msqueue.c.obj
                0x0002bc72                msq_reset
 .text.msq_init
                0x0002bc92       0x48 examples/pb_remote/server/CMakeFiles/pb_remote_server_nrf52832_xxAA_s132_6.1.1.dir/__/__/__/mesh/core/src/msqueue.c.obj
                0x0002bc92                msq_init
 .text.msq_available
                0x0002bcda       0x26 examples/pb_remote/server/CMakeFiles/pb_remote_server_nrf52832_xxAA_s132_6.1.1.dir/__/__/__/mesh/core/src/msqueue.c.obj
                0x0002bcda                msq_available
 .text.nrf_mesh_keygen_aid
                0x0002bd00       0x12 examples/pb_remote/server/CMakeFiles/pb_remote_server_nrf52832_xxAA_s132_6.1.1.dir/__/__/__/mesh/core/src/nrf_mesh_keygen.c.obj
                0x0002bd00                nrf_mesh_keygen_aid
 .text.nrf_mesh_keygen_network_secmat
                0x0002bd12       0x20 examples/pb_remote/server/CMakeFiles/pb_remote_server_nrf52832_xxAA_s132_6.1.1.dir/__/__/__/mesh/core/src/nrf_mesh_keygen.c.obj
                0x0002bd12                nrf_mesh_keygen_network_secmat
 *fill*         0x0002bd32        0x2 
 .text.nrf_mesh_keygen_beacon_secmat
                0x0002bd34       0x50 examples/pb_remote/server/CMakeFiles/pb_remote_server_nrf52832_xxAA_s132_6.1.1.dir/__/__/__/mesh/core/src/nrf_mesh_keygen.c.obj
                0x0002bd34                nrf_mesh_keygen_beacon_secmat
 .text.nrf_mesh_keygen_virtual_address
                0x0002bd84       0x50 examples/pb_remote/server/CMakeFiles/pb_remote_server_nrf52832_xxAA_s132_6.1.1.dir/__/__/__/mesh/core/src/nrf_mesh_keygen.c.obj
                0x0002bd84                nrf_mesh_keygen_virtual_address
 .text.list_insert
                0x0002bdd4       0x1c examples/pb_remote/server/CMakeFiles/pb_remote_server_nrf52832_xxAA_s132_6.1.1.dir/__/__/__/mesh/core/src/list.c.obj
 .text.list_add
                0x0002bdf0       0x42 examples/pb_remote/server/CMakeFiles/pb_remote_server_nrf52832_xxAA_s132_6.1.1.dir/__/__/__/mesh/core/src/list.c.obj
                0x0002bdf0                list_add
 .text.list_remove
                0x0002be32       0x3a examples/pb_remote/server/CMakeFiles/pb_remote_server_nrf52832_xxAA_s132_6.1.1.dir/__/__/__/mesh/core/src/list.c.obj
                0x0002be32                list_remove
 .text.list_compare_add
                0x0002be6c       0x56 examples/pb_remote/server/CMakeFiles/pb_remote_server_nrf52832_xxAA_s132_6.1.1.dir/__/__/__/mesh/core/src/list.c.obj
                0x0002be6c                list_compare_add
 *fill*         0x0002bec2        0x2 
 .text.log_callback_rtt
                0x0002bec4       0x2c examples/pb_remote/server/CMakeFiles/pb_remote_server_nrf52832_xxAA_s132_6.1.1.dir/__/__/__/mesh/core/src/log.c.obj
                0x0002bec4                log_callback_rtt
 .text.log_init
                0x0002bef0       0x1c examples/pb_remote/server/CMakeFiles/pb_remote_server_nrf52832_xxAA_s132_6.1.1.dir/__/__/__/mesh/core/src/log.c.obj
                0x0002bef0                log_init
 .text.log_vprintf
                0x0002bf0c       0x1c examples/pb_remote/server/CMakeFiles/pb_remote_server_nrf52832_xxAA_s132_6.1.1.dir/__/__/__/mesh/core/src/log.c.obj
                0x0002bf0c                log_vprintf
 .text.log_printf
                0x0002bf28       0x18 examples/pb_remote/server/CMakeFiles/pb_remote_server_nrf52832_xxAA_s132_6.1.1.dir/__/__/__/mesh/core/src/log.c.obj
                0x0002bf28                log_printf
 .text.get_area_end
                0x0002bf40        0xc examples/pb_remote/server/CMakeFiles/pb_remote_server_nrf52832_xxAA_s132_6.1.1.dir/__/__/__/mesh/core/src/flash_manager.c.obj
 .text.handle_matches_filter
                0x0002bf4c       0x26 examples/pb_remote/server/CMakeFiles/pb_remote_server_nrf52832_xxAA_s132_6.1.1.dir/__/__/__/mesh/core/src/flash_manager.c.obj
 .text.flash_area_is_blank
                0x0002bf72       0x2c examples/pb_remote/server/CMakeFiles/pb_remote_server_nrf52832_xxAA_s132_6.1.1.dir/__/__/__/mesh/core/src/flash_manager.c.obj
 *fill*         0x0002bf9e        0x2 
 .text.get_packet_buffer
                0x0002bfa0       0x20 examples/pb_remote/server/CMakeFiles/pb_remote_server_nrf52832_xxAA_s132_6.1.1.dir/__/__/__/mesh/core/src/flash_manager.c.obj
 .text.flash    0x0002bfc0       0x1c examples/pb_remote/server/CMakeFiles/pb_remote_server_nrf52832_xxAA_s132_6.1.1.dir/__/__/__/mesh/core/src/flash_manager.c.obj
 .text.free_packet_buffer
                0x0002bfdc       0x3c examples/pb_remote/server/CMakeFiles/pb_remote_server_nrf52832_xxAA_s132_6.1.1.dir/__/__/__/mesh/core/src/flash_manager.c.obj
 .text.iterate_callback_entry_copy
                0x0002c018       0x38 examples/pb_remote/server/CMakeFiles/pb_remote_server_nrf52832_xxAA_s132_6.1.1.dir/__/__/__/mesh/core/src/flash_manager.c.obj
 .text.reserve_action_buffer
                0x0002c050       0x24 examples/pb_remote/server/CMakeFiles/pb_remote_server_nrf52832_xxAA_s132_6.1.1.dir/__/__/__/mesh/core/src/flash_manager.c.obj
 .text.commit_action_buffer
                0x0002c074       0x18 examples/pb_remote/server/CMakeFiles/pb_remote_server_nrf52832_xxAA_s132_6.1.1.dir/__/__/__/mesh/core/src/flash_manager.c.obj
 .text.schedule_processing
                0x0002c08c        0xc examples/pb_remote/server/CMakeFiles/pb_remote_server_nrf52832_xxAA_s132_6.1.1.dir/__/__/__/mesh/core/src/flash_manager.c.obj
 .text.get_next_entry
                0x0002c098       0x34 examples/pb_remote/server/CMakeFiles/pb_remote_server_nrf52832_xxAA_s132_6.1.1.dir/__/__/__/mesh/core/src/flash_manager.c.obj
 .text.get_last_entry.isra.1
                0x0002c0cc       0x30 examples/pb_remote/server/CMakeFiles/pb_remote_server_nrf52832_xxAA_s132_6.1.1.dir/__/__/__/mesh/core/src/flash_manager.c.obj
 .text.process_action_queue
                0x0002c0fc      0x3fc examples/pb_remote/server/CMakeFiles/pb_remote_server_nrf52832_xxAA_s132_6.1.1.dir/__/__/__/mesh/core/src/flash_manager.c.obj
 .text.flash_op_ended_callback
                0x0002c4f8       0x24 examples/pb_remote/server/CMakeFiles/pb_remote_server_nrf52832_xxAA_s132_6.1.1.dir/__/__/__/mesh/core/src/flash_manager.c.obj
 .text.flash_manager_init
                0x0002c51c       0x68 examples/pb_remote/server/CMakeFiles/pb_remote_server_nrf52832_xxAA_s132_6.1.1.dir/__/__/__/mesh/core/src/flash_manager.c.obj
                0x0002c51c                flash_manager_init
 .text.flash_manager_remove
                0x0002c584       0x24 examples/pb_remote/server/CMakeFiles/pb_remote_server_nrf52832_xxAA_s132_6.1.1.dir/__/__/__/mesh/core/src/flash_manager.c.obj
                0x0002c584                flash_manager_remove
 .text.flash_manager_entries_read
                0x0002c5a8       0xea examples/pb_remote/server/CMakeFiles/pb_remote_server_nrf52832_xxAA_s132_6.1.1.dir/__/__/__/mesh/core/src/flash_manager.c.obj
                0x0002c5a8                flash_manager_entries_read
 *fill*         0x0002c692        0x2 
 .text.flash_manager_entry_read
                0x0002c694       0x50 examples/pb_remote/server/CMakeFiles/pb_remote_server_nrf52832_xxAA_s132_6.1.1.dir/__/__/__/mesh/core/src/flash_manager.c.obj
                0x0002c694                flash_manager_entry_read
 .text.flash_manager_entry_count_get
                0x0002c6e4       0x1e examples/pb_remote/server/CMakeFiles/pb_remote_server_nrf52832_xxAA_s132_6.1.1.dir/__/__/__/mesh/core/src/flash_manager.c.obj
                0x0002c6e4                flash_manager_entry_count_get
 .text.flash_manager_entry_alloc
                0x0002c702       0x5c examples/pb_remote/server/CMakeFiles/pb_remote_server_nrf52832_xxAA_s132_6.1.1.dir/__/__/__/mesh/core/src/flash_manager.c.obj
                0x0002c702                flash_manager_entry_alloc
 *fill*         0x0002c75e        0x2 
 .text.flash_manager_entry_commit
                0x0002c760       0x2c examples/pb_remote/server/CMakeFiles/pb_remote_server_nrf52832_xxAA_s132_6.1.1.dir/__/__/__/mesh/core/src/flash_manager.c.obj
                0x0002c760                flash_manager_entry_commit
 .text.flash_manager_entry_invalidate
                0x0002c78c       0x4e examples/pb_remote/server/CMakeFiles/pb_remote_server_nrf52832_xxAA_s132_6.1.1.dir/__/__/__/mesh/core/src/flash_manager.c.obj
                0x0002c78c                flash_manager_entry_invalidate
 *fill*         0x0002c7da        0x2 
 .text.flash_manager_add
                0x0002c7dc      0x220 examples/pb_remote/server/CMakeFiles/pb_remote_server_nrf52832_xxAA_s132_6.1.1.dir/__/__/__/mesh/core/src/flash_manager.c.obj
                0x0002c7dc                flash_manager_add
 .text.flash_manager_mem_listener_register
                0x0002c9fc       0x30 examples/pb_remote/server/CMakeFiles/pb_remote_server_nrf52832_xxAA_s132_6.1.1.dir/__/__/__/mesh/core/src/flash_manager.c.obj
                0x0002c9fc                flash_manager_mem_listener_register
 .text.flash_manager_is_stable
                0x0002ca2c       0x20 examples/pb_remote/server/CMakeFiles/pb_remote_server_nrf52832_xxAA_s132_6.1.1.dir/__/__/__/mesh/core/src/flash_manager.c.obj
                0x0002ca2c                flash_manager_is_stable
 .text.flash_manager_on_defrag_end
                0x0002ca4c       0x4c examples/pb_remote/server/CMakeFiles/pb_remote_server_nrf52832_xxAA_s132_6.1.1.dir/__/__/__/mesh/core/src/flash_manager.c.obj
                0x0002ca4c                flash_manager_on_defrag_end
 .text.flash_manager_recovery_page_get
                0x0002ca98        0x4 examples/pb_remote/server/CMakeFiles/pb_remote_server_nrf52832_xxAA_s132_6.1.1.dir/__/__/__/mesh/core/src/flash_manager.c.obj
                0x0002ca98                flash_manager_recovery_page_get
 .text.flash_manager_action_queue_empty_cb_set
                0x0002ca9c       0x1c examples/pb_remote/server/CMakeFiles/pb_remote_server_nrf52832_xxAA_s132_6.1.1.dir/__/__/__/mesh/core/src/flash_manager.c.obj
                0x0002ca9c                flash_manager_action_queue_empty_cb_set
 .text.utils_xor
                0x0002cab8       0x14 examples/pb_remote/server/CMakeFiles/pb_remote_server_nrf52832_xxAA_s132_6.1.1.dir/__/__/__/mesh/core/src/ccm_soft.c.obj
 .text.sd_ecb_block_encrypt
                0x0002cacc        0x4 examples/pb_remote/server/CMakeFiles/pb_remote_server_nrf52832_xxAA_s132_6.1.1.dir/__/__/__/mesh/core/src/ccm_soft.c.obj
 .text.ccm_soft_crypt
                0x0002cad0       0x4c examples/pb_remote/server/CMakeFiles/pb_remote_server_nrf52832_xxAA_s132_6.1.1.dir/__/__/__/mesh/core/src/ccm_soft.c.obj
 .text.ccm_soft_authenticate_blocks
                0x0002cb1c       0x6c examples/pb_remote/server/CMakeFiles/pb_remote_server_nrf52832_xxAA_s132_6.1.1.dir/__/__/__/mesh/core/src/ccm_soft.c.obj
 .text.ccm_soft_authenticate
                0x0002cb88       0x94 examples/pb_remote/server/CMakeFiles/pb_remote_server_nrf52832_xxAA_s132_6.1.1.dir/__/__/__/mesh/core/src/ccm_soft.c.obj
 .text.ccm_soft_encrypt
                0x0002cc1c       0x54 examples/pb_remote/server/CMakeFiles/pb_remote_server_nrf52832_xxAA_s132_6.1.1.dir/__/__/__/mesh/core/src/ccm_soft.c.obj
                0x0002cc1c                ccm_soft_encrypt
 .text.ccm_soft_decrypt
                0x0002cc70       0x9c examples/pb_remote/server/CMakeFiles/pb_remote_server_nrf52832_xxAA_s132_6.1.1.dir/__/__/__/mesh/core/src/ccm_soft.c.obj
                0x0002cc70                ccm_soft_decrypt
 .text.iv_index_get.isra.0
                0x0002cd0c       0x34 examples/pb_remote/server/CMakeFiles/pb_remote_server_nrf52832_xxAA_s132_6.1.1.dir/__/__/__/mesh/core/src/replay_cache.c.obj
 .text.evt_handler
                0x0002cd40       0x60 examples/pb_remote/server/CMakeFiles/pb_remote_server_nrf52832_xxAA_s132_6.1.1.dir/__/__/__/mesh/core/src/replay_cache.c.obj
 .text.replay_cache_enable
                0x0002cda0       0x10 examples/pb_remote/server/CMakeFiles/pb_remote_server_nrf52832_xxAA_s132_6.1.1.dir/__/__/__/mesh/core/src/replay_cache.c.obj
                0x0002cda0                replay_cache_enable
 .text.replay_cache_add
                0x0002cdb0       0x78 examples/pb_remote/server/CMakeFiles/pb_remote_server_nrf52832_xxAA_s132_6.1.1.dir/__/__/__/mesh/core/src/replay_cache.c.obj
                0x0002cdb0                replay_cache_add
 .text.replay_cache_has_elem
                0x0002ce28       0x50 examples/pb_remote/server/CMakeFiles/pb_remote_server_nrf52832_xxAA_s132_6.1.1.dir/__/__/__/mesh/core/src/replay_cache.c.obj
                0x0002ce28                replay_cache_has_elem
 .text.replay_cache_clear
                0x0002ce78       0x18 examples/pb_remote/server/CMakeFiles/pb_remote_server_nrf52832_xxAA_s132_6.1.1.dir/__/__/__/mesh/core/src/replay_cache.c.obj
                0x0002ce78                replay_cache_clear
 .text.replay_cache_init
                0x0002ce90       0x14 examples/pb_remote/server/CMakeFiles/pb_remote_server_nrf52832_xxAA_s132_6.1.1.dir/__/__/__/mesh/core/src/replay_cache.c.obj
                0x0002ce90                replay_cache_init
 .text.beacon_create
                0x0002cea4       0x46 examples/pb_remote/server/CMakeFiles/pb_remote_server_nrf52832_xxAA_s132_6.1.1.dir/__/__/__/mesh/core/src/beacon.c.obj
                0x0002cea4                beacon_create
 *fill*         0x0002ceea        0x2 
 .text.beacon_packet_in
                0x0002ceec      0x130 examples/pb_remote/server/CMakeFiles/pb_remote_server_nrf52832_xxAA_s132_6.1.1.dir/__/__/__/mesh/core/src/beacon.c.obj
                0x0002ceec                beacon_packet_in
 .text.entry_get
                0x0002d01c       0x78 examples/pb_remote/server/CMakeFiles/pb_remote_server_nrf52832_xxAA_s132_6.1.1.dir/__/__/__/mesh/core/src/flash_manager_internal.c.obj
                0x0002d01c                entry_get
 .text.core_tx_complete_cb_set
                0x0002d094        0xc examples/pb_remote/server/CMakeFiles/pb_remote_server_nrf52832_xxAA_s132_6.1.1.dir/__/__/__/mesh/core/src/core_tx.c.obj
                0x0002d094                core_tx_complete_cb_set
 .text.core_tx_packet_alloc
                0x0002d0a0       0xac examples/pb_remote/server/CMakeFiles/pb_remote_server_nrf52832_xxAA_s132_6.1.1.dir/__/__/__/mesh/core/src/core_tx.c.obj
                0x0002d0a0                core_tx_packet_alloc
 .text.core_tx_packet_send
                0x0002d14c       0x4c examples/pb_remote/server/CMakeFiles/pb_remote_server_nrf52832_xxAA_s132_6.1.1.dir/__/__/__/mesh/core/src/core_tx.c.obj
                0x0002d14c                core_tx_packet_send
 .text.core_tx_packet_discard
                0x0002d198       0x40 examples/pb_remote/server/CMakeFiles/pb_remote_server_nrf52832_xxAA_s132_6.1.1.dir/__/__/__/mesh/core/src/core_tx.c.obj
                0x0002d198                core_tx_packet_discard
 .text.core_tx_complete
                0x0002d1d8       0x34 examples/pb_remote/server/CMakeFiles/pb_remote_server_nrf52832_xxAA_s132_6.1.1.dir/__/__/__/mesh/core/src/core_tx.c.obj
                0x0002d1d8                core_tx_complete
 .text.core_tx_bearer_add
                0x0002d20c       0x74 examples/pb_remote/server/CMakeFiles/pb_remote_server_nrf52832_xxAA_s132_6.1.1.dir/__/__/__/mesh/core/src/core_tx.c.obj
                0x0002d20c                core_tx_bearer_add
 .text.hb_pub_deleter
                0x0002d280       0x28 examples/pb_remote/server/CMakeFiles/pb_remote_server_nrf52832_xxAA_s132_6.1.1.dir/__/__/__/mesh/core/src/heartbeat.c.obj
 .text.hb_pub_getter
                0x0002d2a8       0x2c examples/pb_remote/server/CMakeFiles/pb_remote_server_nrf52832_xxAA_s132_6.1.1.dir/__/__/__/mesh/core/src/heartbeat.c.obj
 .text.hb_pub_setter
                0x0002d2d4       0xd0 examples/pb_remote/server/CMakeFiles/pb_remote_server_nrf52832_xxAA_s132_6.1.1.dir/__/__/__/mesh/core/src/heartbeat.c.obj
 .text.heartbeat_subscription_timer_cb
                0x0002d3a4       0x3c examples/pb_remote/server/CMakeFiles/pb_remote_server_nrf52832_xxAA_s132_6.1.1.dir/__/__/__/mesh/core/src/heartbeat.c.obj
 .text.heartbeat_opcode_handle
                0x0002d3e0       0x88 examples/pb_remote/server/CMakeFiles/pb_remote_server_nrf52832_xxAA_s132_6.1.1.dir/__/__/__/mesh/core/src/heartbeat.c.obj
 .text.heartbeat_publish
                0x0002d468       0xb8 examples/pb_remote/server/CMakeFiles/pb_remote_server_nrf52832_xxAA_s132_6.1.1.dir/__/__/__/mesh/core/src/heartbeat.c.obj
 .text.heartbeat_core_evt_cb
                0x0002d520       0x18 examples/pb_remote/server/CMakeFiles/pb_remote_server_nrf52832_xxAA_s132_6.1.1.dir/__/__/__/mesh/core/src/heartbeat.c.obj
 .text.heartbeat_publication_timer_cb
                0x0002d538       0x54 examples/pb_remote/server/CMakeFiles/pb_remote_server_nrf52832_xxAA_s132_6.1.1.dir/__/__/__/mesh/core/src/heartbeat.c.obj
 .text.heartbeat_relay_listener_cb
                0x0002d58c       0x48 examples/pb_remote/server/CMakeFiles/pb_remote_server_nrf52832_xxAA_s132_6.1.1.dir/__/__/__/mesh/core/src/heartbeat.c.obj
 .text.heartbeat_init
                0x0002d5d4       0x58 examples/pb_remote/server/CMakeFiles/pb_remote_server_nrf52832_xxAA_s132_6.1.1.dir/__/__/__/mesh/core/src/heartbeat.c.obj
                0x0002d5d4                heartbeat_init
 .text.heartbeat_subscription_set
                0x0002d62c       0xd0 examples/pb_remote/server/CMakeFiles/pb_remote_server_nrf52832_xxAA_s132_6.1.1.dir/__/__/__/mesh/core/src/heartbeat.c.obj
                0x0002d62c                heartbeat_subscription_set
 .text.heartbeat_subscription_get
                0x0002d6fc        0x8 examples/pb_remote/server/CMakeFiles/pb_remote_server_nrf52832_xxAA_s132_6.1.1.dir/__/__/__/mesh/core/src/heartbeat.c.obj
                0x0002d6fc                heartbeat_subscription_get
 .text.heartbeat_publication_get
                0x0002d704        0x8 examples/pb_remote/server/CMakeFiles/pb_remote_server_nrf52832_xxAA_s132_6.1.1.dir/__/__/__/mesh/core/src/heartbeat.c.obj
                0x0002d704                heartbeat_publication_get
 .text.heartbeat_publication_set
                0x0002d70c       0x18 examples/pb_remote/server/CMakeFiles/pb_remote_server_nrf52832_xxAA_s132_6.1.1.dir/__/__/__/mesh/core/src/heartbeat.c.obj
                0x0002d70c                heartbeat_publication_set
 .text.heartbeat_public_info_getter_register
                0x0002d724       0x14 examples/pb_remote/server/CMakeFiles/pb_remote_server_nrf52832_xxAA_s132_6.1.1.dir/__/__/__/mesh/core/src/heartbeat.c.obj
                0x0002d724                heartbeat_public_info_getter_register
 .text.beacon_deleter
                0x0002d738       0x34 examples/pb_remote/server/CMakeFiles/pb_remote_server_nrf52832_xxAA_s132_6.1.1.dir/__/__/__/mesh/core/src/net_beacon.c.obj
 .text.beacon_getter
                0x0002d76c       0x24 examples/pb_remote/server/CMakeFiles/pb_remote_server_nrf52832_xxAA_s132_6.1.1.dir/__/__/__/mesh/core/src/net_beacon.c.obj
 .text.beacon_setter
                0x0002d790       0x5c examples/pb_remote/server/CMakeFiles/pb_remote_server_nrf52832_xxAA_s132_6.1.1.dir/__/__/__/mesh/core/src/net_beacon.c.obj
 .text.make_network_beacon_packet
                0x0002d7ec       0x50 examples/pb_remote/server/CMakeFiles/pb_remote_server_nrf52832_xxAA_s132_6.1.1.dir/__/__/__/mesh/core/src/net_beacon.c.obj
 .text.beacon_tx
                0x0002d83c      0x188 examples/pb_remote/server/CMakeFiles/pb_remote_server_nrf52832_xxAA_s132_6.1.1.dir/__/__/__/mesh/core/src/net_beacon.c.obj
 .text.tx_complete_cb
                0x0002d9c4        0xe examples/pb_remote/server/CMakeFiles/pb_remote_server_nrf52832_xxAA_s132_6.1.1.dir/__/__/__/mesh/core/src/net_beacon.c.obj
 .text.beacon_tx_timeout
                0x0002d9d2        0x4 examples/pb_remote/server/CMakeFiles/pb_remote_server_nrf52832_xxAA_s132_6.1.1.dir/__/__/__/mesh/core/src/net_beacon.c.obj
 .text.is_valid_beacon_pkt.part.1
                0x0002d9d6       0x30 examples/pb_remote/server/CMakeFiles/pb_remote_server_nrf52832_xxAA_s132_6.1.1.dir/__/__/__/mesh/core/src/net_beacon.c.obj
 *fill*         0x0002da06        0x2 
 .text.net_beacon_init
                0x0002da08       0x7c examples/pb_remote/server/CMakeFiles/pb_remote_server_nrf52832_xxAA_s132_6.1.1.dir/__/__/__/mesh/core/src/net_beacon.c.obj
                0x0002da08                net_beacon_init
 .text.net_beacon_enable
                0x0002da84       0x28 examples/pb_remote/server/CMakeFiles/pb_remote_server_nrf52832_xxAA_s132_6.1.1.dir/__/__/__/mesh/core/src/net_beacon.c.obj
                0x0002da84                net_beacon_enable
 .text.net_beacon_state_set
                0x0002daac       0x20 examples/pb_remote/server/CMakeFiles/pb_remote_server_nrf52832_xxAA_s132_6.1.1.dir/__/__/__/mesh/core/src/net_beacon.c.obj
                0x0002daac                net_beacon_state_set
 .text.net_beacon_state_get
                0x0002dacc       0x24 examples/pb_remote/server/CMakeFiles/pb_remote_server_nrf52832_xxAA_s132_6.1.1.dir/__/__/__/mesh/core/src/net_beacon.c.obj
                0x0002dacc                net_beacon_state_get
 .text.net_beacon_packet_in
                0x0002daf0      0x16c examples/pb_remote/server/CMakeFiles/pb_remote_server_nrf52832_xxAA_s132_6.1.1.dir/__/__/__/mesh/core/src/net_beacon.c.obj
                0x0002daf0                net_beacon_packet_in
 .text.listeners_notify
                0x0002dc5c       0x4c examples/pb_remote/server/CMakeFiles/pb_remote_server_nrf52832_xxAA_s132_6.1.1.dir/__/__/__/mesh/core/src/mesh_config.c.obj
 .text.entry_flags_get.isra.0
                0x0002dca8       0x1c examples/pb_remote/server/CMakeFiles/pb_remote_server_nrf52832_xxAA_s132_6.1.1.dir/__/__/__/mesh/core/src/mesh_config.c.obj
 .text.entry_params_find
                0x0002dcc4       0x38 examples/pb_remote/server/CMakeFiles/pb_remote_server_nrf52832_xxAA_s132_6.1.1.dir/__/__/__/mesh/core/src/mesh_config.c.obj
 .text.restore_callback
                0x0002dcfc       0x66 examples/pb_remote/server/CMakeFiles/pb_remote_server_nrf52832_xxAA_s132_6.1.1.dir/__/__/__/mesh/core/src/mesh_config.c.obj
 *fill*         0x0002dd62        0x2 
 .text.dirty_entries_process
                0x0002dd64       0xdc examples/pb_remote/server/CMakeFiles/pb_remote_server_nrf52832_xxAA_s132_6.1.1.dir/__/__/__/mesh/core/src/mesh_config.c.obj
 .text.mesh_config_init
                0x0002de40       0xa0 examples/pb_remote/server/CMakeFiles/pb_remote_server_nrf52832_xxAA_s132_6.1.1.dir/__/__/__/mesh/core/src/mesh_config.c.obj
                0x0002de40                mesh_config_init
 .text.mesh_config_load
                0x0002dee0        0xc examples/pb_remote/server/CMakeFiles/pb_remote_server_nrf52832_xxAA_s132_6.1.1.dir/__/__/__/mesh/core/src/mesh_config.c.obj
                0x0002dee0                mesh_config_load
 .text.mesh_config_is_busy
                0x0002deec       0x34 examples/pb_remote/server/CMakeFiles/pb_remote_server_nrf52832_xxAA_s132_6.1.1.dir/__/__/__/mesh/core/src/mesh_config.c.obj
                0x0002deec                mesh_config_is_busy
 .text.backend_evt_handler
                0x0002df20       0x88 examples/pb_remote/server/CMakeFiles/pb_remote_server_nrf52832_xxAA_s132_6.1.1.dir/__/__/__/mesh/core/src/mesh_config.c.obj
 .text.mesh_config_entry_set
                0x0002dfa8       0x80 examples/pb_remote/server/CMakeFiles/pb_remote_server_nrf52832_xxAA_s132_6.1.1.dir/__/__/__/mesh/core/src/mesh_config.c.obj
                0x0002dfa8                mesh_config_entry_set
 .text.mesh_config_entry_get
                0x0002e028       0x3c examples/pb_remote/server/CMakeFiles/pb_remote_server_nrf52832_xxAA_s132_6.1.1.dir/__/__/__/mesh/core/src/mesh_config.c.obj
                0x0002e028                mesh_config_entry_get
 .text.mesh_config_entry_delete
                0x0002e064       0x4a examples/pb_remote/server/CMakeFiles/pb_remote_server_nrf52832_xxAA_s132_6.1.1.dir/__/__/__/mesh/core/src/mesh_config.c.obj
                0x0002e064                mesh_config_entry_delete
 *fill*         0x0002e0ae        0x2 
 .text.mesh_config_clear
                0x0002e0b0       0x4c examples/pb_remote/server/CMakeFiles/pb_remote_server_nrf52832_xxAA_s132_6.1.1.dir/__/__/__/mesh/core/src/mesh_config.c.obj
                0x0002e0b0                mesh_config_clear
 .text.dummy_event
                0x0002e0fc        0x2 examples/pb_remote/server/CMakeFiles/pb_remote_server_nrf52832_xxAA_s132_6.1.1.dir/__/__/__/mesh/core/src/mesh_config_backend.c.obj
 *fill*         0x0002e0fe        0x2 
 .text.file_get
                0x0002e100       0x34 examples/pb_remote/server/CMakeFiles/pb_remote_server_nrf52832_xxAA_s132_6.1.1.dir/__/__/__/mesh/core/src/mesh_config_backend.c.obj
 .text.mesh_config_backend_init
                0x0002e134      0x11c examples/pb_remote/server/CMakeFiles/pb_remote_server_nrf52832_xxAA_s132_6.1.1.dir/__/__/__/mesh/core/src/mesh_config_backend.c.obj
                0x0002e134                mesh_config_backend_init
 .text.mesh_config_backend_store
                0x0002e250       0x4e examples/pb_remote/server/CMakeFiles/pb_remote_server_nrf52832_xxAA_s132_6.1.1.dir/__/__/__/mesh/core/src/mesh_config_backend.c.obj
                0x0002e250                mesh_config_backend_store
 .text.mesh_config_backend_erase
                0x0002e29e       0x34 examples/pb_remote/server/CMakeFiles/pb_remote_server_nrf52832_xxAA_s132_6.1.1.dir/__/__/__/mesh/core/src/mesh_config_backend.c.obj
                0x0002e29e                mesh_config_backend_erase
 *fill*         0x0002e2d2        0x2 
 .text.mesh_config_backend_read_all
                0x0002e2d4       0x38 examples/pb_remote/server/CMakeFiles/pb_remote_server_nrf52832_xxAA_s132_6.1.1.dir/__/__/__/mesh/core/src/mesh_config_backend.c.obj
                0x0002e2d4                mesh_config_backend_read_all
 .text.entry_read_cb
                0x0002e30c       0x38 examples/pb_remote/server/CMakeFiles/pb_remote_server_nrf52832_xxAA_s132_6.1.1.dir/__/__/__/mesh/core/src/mesh_config_flashman_glue.c.obj
 .text.write_complete_cb
                0x0002e344       0x30 examples/pb_remote/server/CMakeFiles/pb_remote_server_nrf52832_xxAA_s132_6.1.1.dir/__/__/__/mesh/core/src/mesh_config_flashman_glue.c.obj
 .text.invalidate_complete_cb
                0x0002e374       0x2c examples/pb_remote/server/CMakeFiles/pb_remote_server_nrf52832_xxAA_s132_6.1.1.dir/__/__/__/mesh/core/src/mesh_config_flashman_glue.c.obj
 .text.remove_complete_cb
                0x0002e3a0        0x2 examples/pb_remote/server/CMakeFiles/pb_remote_server_nrf52832_xxAA_s132_6.1.1.dir/__/__/__/mesh/core/src/mesh_config_flashman_glue.c.obj
 .text.flash_stable_cb
                0x0002e3a2       0x20 examples/pb_remote/server/CMakeFiles/pb_remote_server_nrf52832_xxAA_s132_6.1.1.dir/__/__/__/mesh/core/src/mesh_config_flashman_glue.c.obj
 *fill*         0x0002e3c2        0x2 
 .text.mesh_config_backend_glue_init
                0x0002e3c4       0x28 examples/pb_remote/server/CMakeFiles/pb_remote_server_nrf52832_xxAA_s132_6.1.1.dir/__/__/__/mesh/core/src/mesh_config_flashman_glue.c.obj
                0x0002e3c4                mesh_config_backend_glue_init
 .text.mesh_config_backend_file_create
                0x0002e3ec       0x58 examples/pb_remote/server/CMakeFiles/pb_remote_server_nrf52832_xxAA_s132_6.1.1.dir/__/__/__/mesh/core/src/mesh_config_flashman_glue.c.obj
                0x0002e3ec                mesh_config_backend_file_create
 .text.mesh_config_backend_record_write
                0x0002e444       0x2c examples/pb_remote/server/CMakeFiles/pb_remote_server_nrf52832_xxAA_s132_6.1.1.dir/__/__/__/mesh/core/src/mesh_config_flashman_glue.c.obj
                0x0002e444                mesh_config_backend_record_write
 .text.mesh_config_backend_record_erase
                0x0002e470       0x30 examples/pb_remote/server/CMakeFiles/pb_remote_server_nrf52832_xxAA_s132_6.1.1.dir/__/__/__/mesh/core/src/mesh_config_flashman_glue.c.obj
                0x0002e470                mesh_config_backend_record_erase
 .text.mesh_config_backend_records_read
                0x0002e4a0       0x30 examples/pb_remote/server/CMakeFiles/pb_remote_server_nrf52832_xxAA_s132_6.1.1.dir/__/__/__/mesh/core/src/mesh_config_flashman_glue.c.obj
                0x0002e4a0                mesh_config_backend_records_read
 .text.mesh_config_record_size_calculate
                0x0002e4d0        0xa examples/pb_remote/server/CMakeFiles/pb_remote_server_nrf52832_xxAA_s132_6.1.1.dir/__/__/__/mesh/core/src/mesh_config_flashman_glue.c.obj
                0x0002e4d0                mesh_config_record_size_calculate
 .text.mesh_config_backend_file_power_down_time_get
                0x0002e4da       0x26 examples/pb_remote/server/CMakeFiles/pb_remote_server_nrf52832_xxAA_s132_6.1.1.dir/__/__/__/mesh/core/src/mesh_config_flashman_glue.c.obj
                0x0002e4da                mesh_config_backend_file_power_down_time_get
 .text.packet_discard
                0x0002e500       0x30 examples/pb_remote/server/CMakeFiles/pb_remote_server_nrf52832_xxAA_s132_6.1.1.dir/__/__/__/mesh/core/src/core_tx_local.c.obj
 .text.packet_send
                0x0002e530       0x58 examples/pb_remote/server/CMakeFiles/pb_remote_server_nrf52832_xxAA_s132_6.1.1.dir/__/__/__/mesh/core/src/core_tx_local.c.obj
 .text.loopback_process
                0x0002e588       0x64 examples/pb_remote/server/CMakeFiles/pb_remote_server_nrf52832_xxAA_s132_6.1.1.dir/__/__/__/mesh/core/src/core_tx_local.c.obj
 .text.packet_alloc
                0x0002e5ec       0x48 examples/pb_remote/server/CMakeFiles/pb_remote_server_nrf52832_xxAA_s132_6.1.1.dir/__/__/__/mesh/core/src/core_tx_local.c.obj
 .text.core_tx_local_init
                0x0002e634       0x34 examples/pb_remote/server/CMakeFiles/pb_remote_server_nrf52832_xxAA_s132_6.1.1.dir/__/__/__/mesh/core/src/core_tx_local.c.obj
                0x0002e634                core_tx_local_init
 .text.core_tx_adv_get
                0x0002e668       0x3c examples/pb_remote/server/CMakeFiles/pb_remote_server_nrf52832_xxAA_s132_6.1.1.dir/__/__/__/mesh/core/src/core_tx_adv.c.obj
 .text.core_tx_tx_power_get
                0x0002e6a4       0x30 examples/pb_remote/server/CMakeFiles/pb_remote_server_nrf52832_xxAA_s132_6.1.1.dir/__/__/__/mesh/core/src/core_tx_adv.c.obj
 .text.core_tx_adv_delete
                0x0002e6d4       0x50 examples/pb_remote/server/CMakeFiles/pb_remote_server_nrf52832_xxAA_s132_6.1.1.dir/__/__/__/mesh/core/src/core_tx_adv.c.obj
 .text.core_tx_adv_set
                0x0002e724       0x6c examples/pb_remote/server/CMakeFiles/pb_remote_server_nrf52832_xxAA_s132_6.1.1.dir/__/__/__/mesh/core/src/core_tx_adv.c.obj
 .text.core_tx_tx_power_delete
                0x0002e790       0x30 examples/pb_remote/server/CMakeFiles/pb_remote_server_nrf52832_xxAA_s132_6.1.1.dir/__/__/__/mesh/core/src/core_tx_adv.c.obj
 .text.core_tx_tx_power_set
                0x0002e7c0       0x34 examples/pb_remote/server/CMakeFiles/pb_remote_server_nrf52832_xxAA_s132_6.1.1.dir/__/__/__/mesh/core/src/core_tx_adv.c.obj
 .text.core_tx_adv_addr_delete
                0x0002e7f4       0x34 examples/pb_remote/server/CMakeFiles/pb_remote_server_nrf52832_xxAA_s132_6.1.1.dir/__/__/__/mesh/core/src/core_tx_adv.c.obj
 .text.core_tx_adv_addr_set
                0x0002e828       0x40 examples/pb_remote/server/CMakeFiles/pb_remote_server_nrf52832_xxAA_s132_6.1.1.dir/__/__/__/mesh/core/src/core_tx_adv.c.obj
 .text.core_tx_adv_addr_get
                0x0002e868       0x34 examples/pb_remote/server/CMakeFiles/pb_remote_server_nrf52832_xxAA_s132_6.1.1.dir/__/__/__/mesh/core/src/core_tx_adv.c.obj
 .text.packet_discard
                0x0002e89c       0x40 examples/pb_remote/server/CMakeFiles/pb_remote_server_nrf52832_xxAA_s132_6.1.1.dir/__/__/__/mesh/core/src/core_tx_adv.c.obj
 .text.packet_send
                0x0002e8dc       0x58 examples/pb_remote/server/CMakeFiles/pb_remote_server_nrf52832_xxAA_s132_6.1.1.dir/__/__/__/mesh/core/src/core_tx_adv.c.obj
 .text.packet_alloc
                0x0002e934       0x58 examples/pb_remote/server/CMakeFiles/pb_remote_server_nrf52832_xxAA_s132_6.1.1.dir/__/__/__/mesh/core/src/core_tx_adv.c.obj
 .text.adv_tx_complete_callback
                0x0002e98c       0x20 examples/pb_remote/server/CMakeFiles/pb_remote_server_nrf52832_xxAA_s132_6.1.1.dir/__/__/__/mesh/core/src/core_tx_adv.c.obj
 .text.mesh_opt_core_adv_set
                0x0002e9ac       0x22 examples/pb_remote/server/CMakeFiles/pb_remote_server_nrf52832_xxAA_s132_6.1.1.dir/__/__/__/mesh/core/src/core_tx_adv.c.obj
                0x0002e9ac                mesh_opt_core_adv_set
 .text.mesh_opt_core_adv_get
                0x0002e9ce       0x22 examples/pb_remote/server/CMakeFiles/pb_remote_server_nrf52832_xxAA_s132_6.1.1.dir/__/__/__/mesh/core/src/core_tx_adv.c.obj
                0x0002e9ce                mesh_opt_core_adv_get
 .text.core_tx_adv_init
                0x0002e9f0       0x60 examples/pb_remote/server/CMakeFiles/pb_remote_server_nrf52832_xxAA_s132_6.1.1.dir/__/__/__/mesh/core/src/core_tx_adv.c.obj
                0x0002e9f0                core_tx_adv_init
 .text.core_tx_adv_is_enabled
                0x0002ea50       0x20 examples/pb_remote/server/CMakeFiles/pb_remote_server_nrf52832_xxAA_s132_6.1.1.dir/__/__/__/mesh/core/src/core_tx_adv.c.obj
                0x0002ea50                core_tx_adv_is_enabled
 .text.mesh_mem_init
                0x0002ea70        0x2 examples/pb_remote/server/CMakeFiles/pb_remote_server_nrf52832_xxAA_s132_6.1.1.dir/__/__/__/mesh/core/src/mesh_mem_stdlib.c.obj
                0x0002ea70                mesh_mem_init
 .text.mesh_mem_alloc
                0x0002ea72        0x4 examples/pb_remote/server/CMakeFiles/pb_remote_server_nrf52832_xxAA_s132_6.1.1.dir/__/__/__/mesh/core/src/mesh_mem_stdlib.c.obj
                0x0002ea72                mesh_mem_alloc
 .text.mesh_mem_free
                0x0002ea76        0x4 examples/pb_remote/server/CMakeFiles/pb_remote_server_nrf52832_xxAA_s132_6.1.1.dir/__/__/__/mesh/core/src/mesh_mem_stdlib.c.obj
                0x0002ea76                mesh_mem_free
 *fill*         0x0002ea7a        0x2 
 .text.ad_listener_subscribe
                0x0002ea7c       0x5c examples/pb_remote/server/CMakeFiles/pb_remote_server_nrf52832_xxAA_s132_6.1.1.dir/__/__/__/mesh/bearer/src/ad_listener.c.obj
                0x0002ea7c                ad_listener_subscribe
 .text.ad_listener_process
                0x0002ead8       0x68 examples/pb_remote/server/CMakeFiles/pb_remote_server_nrf52832_xxAA_s132_6.1.1.dir/__/__/__/mesh/bearer/src/ad_listener.c.obj
                0x0002ead8                ad_listener_process
 .text.adtype_filter_handle
                0x0002eb40       0x64 examples/pb_remote/server/CMakeFiles/pb_remote_server_nrf52832_xxAA_s132_6.1.1.dir/__/__/__/mesh/bearer/src/ad_type_filter.c.obj
 .text.bearer_adtype_filtering_set
                0x0002eba4       0x20 examples/pb_remote/server/CMakeFiles/pb_remote_server_nrf52832_xxAA_s132_6.1.1.dir/__/__/__/mesh/bearer/src/ad_type_filter.c.obj
                0x0002eba4                bearer_adtype_filtering_set
 .text.bearer_adtype_add
                0x0002ebc4       0x20 examples/pb_remote/server/CMakeFiles/pb_remote_server_nrf52832_xxAA_s132_6.1.1.dir/__/__/__/mesh/bearer/src/ad_type_filter.c.obj
                0x0002ebc4                bearer_adtype_add
 .text.bearer_adtype_mode_set
                0x0002ebe4       0x18 examples/pb_remote/server/CMakeFiles/pb_remote_server_nrf52832_xxAA_s132_6.1.1.dir/__/__/__/mesh/bearer/src/ad_type_filter.c.obj
                0x0002ebe4                bearer_adtype_mode_set
 .text.tx_complete_event_callback
                0x0002ebfc       0x24 examples/pb_remote/server/CMakeFiles/pb_remote_server_nrf52832_xxAA_s132_6.1.1.dir/__/__/__/mesh/bearer/src/advertiser.c.obj
 .text.set_gap_addr_type
                0x0002ec20       0x26 examples/pb_remote/server/CMakeFiles/pb_remote_server_nrf52832_xxAA_s132_6.1.1.dir/__/__/__/mesh/bearer/src/advertiser.c.obj
 .text.broadcast_complete_cb
                0x0002ec46       0x46 examples/pb_remote/server/CMakeFiles/pb_remote_server_nrf52832_xxAA_s132_6.1.1.dir/__/__/__/mesh/bearer/src/advertiser.c.obj
 .text.schedule_first_time
                0x0002ec8c       0x28 examples/pb_remote/server/CMakeFiles/pb_remote_server_nrf52832_xxAA_s132_6.1.1.dir/__/__/__/mesh/bearer/src/advertiser.c.obj
 .text.timeout_event
                0x0002ecb4      0x114 examples/pb_remote/server/CMakeFiles/pb_remote_server_nrf52832_xxAA_s132_6.1.1.dir/__/__/__/mesh/bearer/src/advertiser.c.obj
 .text.advertiser_init
                0x0002edc8        0xc examples/pb_remote/server/CMakeFiles/pb_remote_server_nrf52832_xxAA_s132_6.1.1.dir/__/__/__/mesh/bearer/src/advertiser.c.obj
                0x0002edc8                advertiser_init
 .text.advertiser_enable
                0x0002edd4       0x2a examples/pb_remote/server/CMakeFiles/pb_remote_server_nrf52832_xxAA_s132_6.1.1.dir/__/__/__/mesh/bearer/src/advertiser.c.obj
                0x0002edd4                advertiser_enable
 .text.advertiser_disable
                0x0002edfe        0xa examples/pb_remote/server/CMakeFiles/pb_remote_server_nrf52832_xxAA_s132_6.1.1.dir/__/__/__/mesh/bearer/src/advertiser.c.obj
                0x0002edfe                advertiser_disable
 .text.advertiser_packet_alloc
                0x0002ee08       0x76 examples/pb_remote/server/CMakeFiles/pb_remote_server_nrf52832_xxAA_s132_6.1.1.dir/__/__/__/mesh/bearer/src/advertiser.c.obj
                0x0002ee08                advertiser_packet_alloc
 .text.advertiser_packet_send
                0x0002ee7e       0x52 examples/pb_remote/server/CMakeFiles/pb_remote_server_nrf52832_xxAA_s132_6.1.1.dir/__/__/__/mesh/bearer/src/advertiser.c.obj
                0x0002ee7e                advertiser_packet_send
 .text.advertiser_packet_discard
                0x0002eed0       0x1e examples/pb_remote/server/CMakeFiles/pb_remote_server_nrf52832_xxAA_s132_6.1.1.dir/__/__/__/mesh/bearer/src/advertiser.c.obj
                0x0002eed0                advertiser_packet_discard
 .text.advertiser_address_set
                0x0002eeee       0x3c examples/pb_remote/server/CMakeFiles/pb_remote_server_nrf52832_xxAA_s132_6.1.1.dir/__/__/__/mesh/bearer/src/advertiser.c.obj
                0x0002eeee                advertiser_address_set
 .text.advertiser_interval_set
                0x0002ef2a       0x40 examples/pb_remote/server/CMakeFiles/pb_remote_server_nrf52832_xxAA_s132_6.1.1.dir/__/__/__/mesh/bearer/src/advertiser.c.obj
                0x0002ef2a                advertiser_interval_set
 .text.advertiser_tx_power_set
                0x0002ef6a       0x14 examples/pb_remote/server/CMakeFiles/pb_remote_server_nrf52832_xxAA_s132_6.1.1.dir/__/__/__/mesh/bearer/src/advertiser.c.obj
                0x0002ef6a                advertiser_tx_power_set
 .text.advertiser_flush
                0x0002ef7e       0x1e examples/pb_remote/server/CMakeFiles/pb_remote_server_nrf52832_xxAA_s132_6.1.1.dir/__/__/__/mesh/bearer/src/advertiser.c.obj
                0x0002ef7e                advertiser_flush
 .text.advertiser_address_default_get
                0x0002ef9c       0x38 examples/pb_remote/server/CMakeFiles/pb_remote_server_nrf52832_xxAA_s132_6.1.1.dir/__/__/__/mesh/bearer/src/advertiser.c.obj
                0x0002ef9c                advertiser_address_default_get
 .text.advertiser_instance_init
                0x0002efd4       0x98 examples/pb_remote/server/CMakeFiles/pb_remote_server_nrf52832_xxAA_s132_6.1.1.dir/__/__/__/mesh/bearer/src/advertiser.c.obj
                0x0002efd4                advertiser_instance_init
 .text.notify_stop
                0x0002f06c       0x14 examples/pb_remote/server/CMakeFiles/pb_remote_server_nrf52832_xxAA_s132_6.1.1.dir/__/__/__/mesh/bearer/src/bearer_handler.c.obj
 .text.action_in_progress
                0x0002f080       0x30 examples/pb_remote/server/CMakeFiles/pb_remote_server_nrf52832_xxAA_s132_6.1.1.dir/__/__/__/mesh/bearer/src/bearer_handler.c.obj
 .text.action_timer_start
                0x0002f0b0       0x88 examples/pb_remote/server/CMakeFiles/pb_remote_server_nrf52832_xxAA_s132_6.1.1.dir/__/__/__/mesh/bearer/src/bearer_handler.c.obj
 .text.action_switch
                0x0002f138      0x104 examples/pb_remote/server/CMakeFiles/pb_remote_server_nrf52832_xxAA_s132_6.1.1.dir/__/__/__/mesh/bearer/src/bearer_handler.c.obj
 .text.end_handle
                0x0002f23c       0x44 examples/pb_remote/server/CMakeFiles/pb_remote_server_nrf52832_xxAA_s132_6.1.1.dir/__/__/__/mesh/bearer/src/bearer_handler.c.obj
 .text.TIMER2_IRQHandler
                0x0002f280       0x58 examples/pb_remote/server/CMakeFiles/pb_remote_server_nrf52832_xxAA_s132_6.1.1.dir/__/__/__/mesh/bearer/src/bearer_handler.c.obj
                0x0002f280                TIMER2_IRQHandler
 .text.bearer_handler_init
                0x0002f2d8       0x44 examples/pb_remote/server/CMakeFiles/pb_remote_server_nrf52832_xxAA_s132_6.1.1.dir/__/__/__/mesh/bearer/src/bearer_handler.c.obj
                0x0002f2d8                bearer_handler_init
 .text.bearer_handler_wake_up
                0x0002f31c       0x2c examples/pb_remote/server/CMakeFiles/pb_remote_server_nrf52832_xxAA_s132_6.1.1.dir/__/__/__/mesh/bearer/src/bearer_handler.c.obj
                0x0002f31c                bearer_handler_wake_up
 .text.bearer_handler_start
                0x0002f348       0x1c examples/pb_remote/server/CMakeFiles/pb_remote_server_nrf52832_xxAA_s132_6.1.1.dir/__/__/__/mesh/bearer/src/bearer_handler.c.obj
                0x0002f348                bearer_handler_start
 .text.bearer_handler_action_enqueue
                0x0002f364       0x6c examples/pb_remote/server/CMakeFiles/pb_remote_server_nrf52832_xxAA_s132_6.1.1.dir/__/__/__/mesh/bearer/src/bearer_handler.c.obj
                0x0002f364                bearer_handler_action_enqueue
 .text.bearer_handler_action_end
                0x0002f3d0       0x48 examples/pb_remote/server/CMakeFiles/pb_remote_server_nrf52832_xxAA_s132_6.1.1.dir/__/__/__/mesh/bearer/src/bearer_handler.c.obj
                0x0002f3d0                bearer_handler_action_end
 .text.bearer_handler_radio_irq_handler
                0x0002f418       0x70 examples/pb_remote/server/CMakeFiles/pb_remote_server_nrf52832_xxAA_s132_6.1.1.dir/__/__/__/mesh/bearer/src/bearer_handler.c.obj
                0x0002f418                bearer_handler_radio_irq_handler
 .text.bearer_handler_timer_irq_handler
                0x0002f488       0x34 examples/pb_remote/server/CMakeFiles/pb_remote_server_nrf52832_xxAA_s132_6.1.1.dir/__/__/__/mesh/bearer/src/bearer_handler.c.obj
                0x0002f488                bearer_handler_timer_irq_handler
 .text.bearer_handler_on_ts_begin
                0x0002f4bc       0x38 examples/pb_remote/server/CMakeFiles/pb_remote_server_nrf52832_xxAA_s132_6.1.1.dir/__/__/__/mesh/bearer/src/bearer_handler.c.obj
                0x0002f4bc                bearer_handler_on_ts_begin
 .text.bearer_handler_on_ts_end
                0x0002f4f4       0x70 examples/pb_remote/server/CMakeFiles/pb_remote_server_nrf52832_xxAA_s132_6.1.1.dir/__/__/__/mesh/bearer/src/bearer_handler.c.obj
                0x0002f4f4                bearer_handler_on_ts_end
 .text.bearer_handler_on_ts_session_closed
                0x0002f564       0x10 examples/pb_remote/server/CMakeFiles/pb_remote_server_nrf52832_xxAA_s132_6.1.1.dir/__/__/__/mesh/bearer/src/bearer_handler.c.obj
                0x0002f564                bearer_handler_on_ts_session_closed
 .text.radio_irq_handler
                0x0002f574       0xa4 examples/pb_remote/server/CMakeFiles/pb_remote_server_nrf52832_xxAA_s132_6.1.1.dir/__/__/__/mesh/bearer/src/broadcast.c.obj
 .text.broadcast_start
                0x0002f618       0xb4 examples/pb_remote/server/CMakeFiles/pb_remote_server_nrf52832_xxAA_s132_6.1.1.dir/__/__/__/mesh/bearer/src/broadcast.c.obj
 .text.broadcast_send
                0x0002f6cc       0x6c examples/pb_remote/server/CMakeFiles/pb_remote_server_nrf52832_xxAA_s132_6.1.1.dir/__/__/__/mesh/bearer/src/broadcast.c.obj
                0x0002f6cc                broadcast_send
 .text.fen_filter_start
                0x0002f738       0x3c examples/pb_remote/server/CMakeFiles/pb_remote_server_nrf52832_xxAA_s132_6.1.1.dir/__/__/__/mesh/bearer/src/filter_engine.c.obj
                0x0002f738                fen_filter_start
 .text.fen_filter_stop
                0x0002f774       0x30 examples/pb_remote/server/CMakeFiles/pb_remote_server_nrf52832_xxAA_s132_6.1.1.dir/__/__/__/mesh/bearer/src/filter_engine.c.obj
                0x0002f774                fen_filter_stop
 .text.fen_filters_apply
                0x0002f7a4       0x44 examples/pb_remote/server/CMakeFiles/pb_remote_server_nrf52832_xxAA_s132_6.1.1.dir/__/__/__/mesh/bearer/src/filter_engine.c.obj
                0x0002f7a4                fen_filters_apply
 .text.radio_config_reset
                0x0002f7e8       0x40 examples/pb_remote/server/CMakeFiles/pb_remote_server_nrf52832_xxAA_s132_6.1.1.dir/__/__/__/mesh/bearer/src/radio_config.c.obj
                0x0002f7e8                radio_config_reset
 .text.radio_config_channel_set
                0x0002f828       0x28 examples/pb_remote/server/CMakeFiles/pb_remote_server_nrf52832_xxAA_s132_6.1.1.dir/__/__/__/mesh/bearer/src/radio_config.c.obj
                0x0002f828                radio_config_channel_set
 .text.radio_config_config
                0x0002f850       0x8c examples/pb_remote/server/CMakeFiles/pb_remote_server_nrf52832_xxAA_s132_6.1.1.dir/__/__/__/mesh/bearer/src/radio_config.c.obj
                0x0002f850                radio_config_config
 .text.radio_config_access_addr_set
                0x0002f8dc       0x50 examples/pb_remote/server/CMakeFiles/pb_remote_server_nrf52832_xxAA_s132_6.1.1.dir/__/__/__/mesh/bearer/src/radio_config.c.obj
                0x0002f8dc                radio_config_access_addr_set
 .text.radio_trigger
                0x0002f92c       0x24 examples/pb_remote/server/CMakeFiles/pb_remote_server_nrf52832_xxAA_s132_6.1.1.dir/__/__/__/mesh/bearer/src/scanner.c.obj
 .text.scan_window_end
                0x0002f950       0x10 examples/pb_remote/server/CMakeFiles/pb_remote_server_nrf52832_xxAA_s132_6.1.1.dir/__/__/__/mesh/bearer/src/scanner.c.obj
 .text.scan_window_start
                0x0002f960       0x24 examples/pb_remote/server/CMakeFiles/pb_remote_server_nrf52832_xxAA_s132_6.1.1.dir/__/__/__/mesh/bearer/src/scanner.c.obj
 .text.radio_configure
                0x0002f984       0x78 examples/pb_remote/server/CMakeFiles/pb_remote_server_nrf52832_xxAA_s132_6.1.1.dir/__/__/__/mesh/bearer/src/scanner.c.obj
 .text.radio_set_packet
                0x0002f9fc       0x4c examples/pb_remote/server/CMakeFiles/pb_remote_server_nrf52832_xxAA_s132_6.1.1.dir/__/__/__/mesh/bearer/src/scanner.c.obj
 .text.radio_start
                0x0002fa48       0x78 examples/pb_remote/server/CMakeFiles/pb_remote_server_nrf52832_xxAA_s132_6.1.1.dir/__/__/__/mesh/bearer/src/scanner.c.obj
 .text.radio_stop
                0x0002fac0       0x38 examples/pb_remote/server/CMakeFiles/pb_remote_server_nrf52832_xxAA_s132_6.1.1.dir/__/__/__/mesh/bearer/src/scanner.c.obj
 .text.schedule_timers
                0x0002faf8       0x38 examples/pb_remote/server/CMakeFiles/pb_remote_server_nrf52832_xxAA_s132_6.1.1.dir/__/__/__/mesh/bearer/src/scanner.c.obj
 .text.scanner_radio_start
                0x0002fb30       0x28 examples/pb_remote/server/CMakeFiles/pb_remote_server_nrf52832_xxAA_s132_6.1.1.dir/__/__/__/mesh/bearer/src/scanner.c.obj
                0x0002fb30                scanner_radio_start
 .text.scanner_radio_stop
                0x0002fb58       0x10 examples/pb_remote/server/CMakeFiles/pb_remote_server_nrf52832_xxAA_s132_6.1.1.dir/__/__/__/mesh/bearer/src/scanner.c.obj
                0x0002fb58                scanner_radio_stop
 .text.scanner_radio_irq_handler
                0x0002fb68      0x144 examples/pb_remote/server/CMakeFiles/pb_remote_server_nrf52832_xxAA_s132_6.1.1.dir/__/__/__/mesh/bearer/src/scanner.c.obj
                0x0002fb68                scanner_radio_irq_handler
 .text.scanner_timer_irq_handler
                0x0002fcac       0x30 examples/pb_remote/server/CMakeFiles/pb_remote_server_nrf52832_xxAA_s132_6.1.1.dir/__/__/__/mesh/bearer/src/scanner.c.obj
                0x0002fcac                scanner_timer_irq_handler
 .text.scanner_enable
                0x0002fcdc       0x2c examples/pb_remote/server/CMakeFiles/pb_remote_server_nrf52832_xxAA_s132_6.1.1.dir/__/__/__/mesh/bearer/src/scanner.c.obj
                0x0002fcdc                scanner_enable
 .text.scanner_is_enabled
                0x0002fd08       0x10 examples/pb_remote/server/CMakeFiles/pb_remote_server_nrf52832_xxAA_s132_6.1.1.dir/__/__/__/mesh/bearer/src/scanner.c.obj
                0x0002fd08                scanner_is_enabled
 .text.scanner_packet_release
                0x0002fd18       0x2c examples/pb_remote/server/CMakeFiles/pb_remote_server_nrf52832_xxAA_s132_6.1.1.dir/__/__/__/mesh/bearer/src/scanner.c.obj
                0x0002fd18                scanner_packet_release
 .text.scanner_rx
                0x0002fd44       0x34 examples/pb_remote/server/CMakeFiles/pb_remote_server_nrf52832_xxAA_s132_6.1.1.dir/__/__/__/mesh/bearer/src/scanner.c.obj
                0x0002fd44                scanner_rx
 .text.scanner_rx_pending
                0x0002fd78        0xc examples/pb_remote/server/CMakeFiles/pb_remote_server_nrf52832_xxAA_s132_6.1.1.dir/__/__/__/mesh/bearer/src/scanner.c.obj
                0x0002fd78                scanner_rx_pending
 .text.scanner_config_scan_time_set
                0x0002fd84       0x4c examples/pb_remote/server/CMakeFiles/pb_remote_server_nrf52832_xxAA_s132_6.1.1.dir/__/__/__/mesh/bearer/src/scanner.c.obj
                0x0002fd84                scanner_config_scan_time_set
 .text.scanner_config_channels_set
                0x0002fdd0       0x50 examples/pb_remote/server/CMakeFiles/pb_remote_server_nrf52832_xxAA_s132_6.1.1.dir/__/__/__/mesh/bearer/src/scanner.c.obj
                0x0002fdd0                scanner_config_channels_set
 .text.scanner_config_access_addresses_set
                0x0002fe20       0x38 examples/pb_remote/server/CMakeFiles/pb_remote_server_nrf52832_xxAA_s132_6.1.1.dir/__/__/__/mesh/bearer/src/scanner.c.obj
                0x0002fe20                scanner_config_access_addresses_set
 .text.scanner_config_reset
                0x0002fe58       0x50 examples/pb_remote/server/CMakeFiles/pb_remote_server_nrf52832_xxAA_s132_6.1.1.dir/__/__/__/mesh/bearer/src/scanner.c.obj
                0x0002fe58                scanner_config_reset
 .text.scanner_init
                0x0002fea8       0x54 examples/pb_remote/server/CMakeFiles/pb_remote_server_nrf52832_xxAA_s132_6.1.1.dir/__/__/__/mesh/bearer/src/scanner.c.obj
                0x0002fea8                scanner_init
 .text.pin_clear
                0x0002fefc       0x24 examples/pb_remote/server/CMakeFiles/pb_remote_server_nrf52832_xxAA_s132_6.1.1.dir/__/__/__/mesh/bearer/src/mesh_pa_lna.c.obj
 .text.ppi_setup.isra.0
                0x0002ff20       0x3c examples/pb_remote/server/CMakeFiles/pb_remote_server_nrf52832_xxAA_s132_6.1.1.dir/__/__/__/mesh/bearer/src/mesh_pa_lna.c.obj
 .text.mesh_pa_setup_start
                0x0002ff5c       0x5c examples/pb_remote/server/CMakeFiles/pb_remote_server_nrf52832_xxAA_s132_6.1.1.dir/__/__/__/mesh/bearer/src/mesh_pa_lna.c.obj
                0x0002ff5c                mesh_pa_setup_start
 .text.mesh_lna_setup_start
                0x0002ffb8       0x5c examples/pb_remote/server/CMakeFiles/pb_remote_server_nrf52832_xxAA_s132_6.1.1.dir/__/__/__/mesh/bearer/src/mesh_pa_lna.c.obj
                0x0002ffb8                mesh_lna_setup_start
 .text.mesh_pa_lna_disable_start
                0x00030014       0x1c examples/pb_remote/server/CMakeFiles/pb_remote_server_nrf52832_xxAA_s132_6.1.1.dir/__/__/__/mesh/bearer/src/mesh_pa_lna.c.obj
                0x00030014                mesh_pa_lna_disable_start
 .text.mesh_pa_lna_setup_stop
                0x00030030       0x4c examples/pb_remote/server/CMakeFiles/pb_remote_server_nrf52832_xxAA_s132_6.1.1.dir/__/__/__/mesh/bearer/src/mesh_pa_lna.c.obj
                0x00030030                mesh_pa_lna_setup_stop
 .text.mesh_pa_lna_cleanup
                0x0003007c       0x48 examples/pb_remote/server/CMakeFiles/pb_remote_server_nrf52832_xxAA_s132_6.1.1.dir/__/__/__/mesh/bearer/src/mesh_pa_lna.c.obj
                0x0003007c                mesh_pa_lna_cleanup
 .text.complete_provisioning
                0x000300c4       0x24 examples/pb_remote/server/CMakeFiles/pb_remote_server_nrf52832_xxAA_s132_6.1.1.dir/__/__/__/mesh/prov/src/prov_provisionee.c.obj
 .text.prov_provisionee_cb_link_established
                0x000300e8       0x36 examples/pb_remote/server/CMakeFiles/pb_remote_server_nrf52832_xxAA_s132_6.1.1.dir/__/__/__/mesh/prov/src/prov_provisionee.c.obj
 .text.prov_provisionee_cb_link_closed
                0x0003011e       0x34 examples/pb_remote/server/CMakeFiles/pb_remote_server_nrf52832_xxAA_s132_6.1.1.dir/__/__/__/mesh/prov/src/prov_provisionee.c.obj
 .text.request_authentication
                0x00030152       0x8a examples/pb_remote/server/CMakeFiles/pb_remote_server_nrf52832_xxAA_s132_6.1.1.dir/__/__/__/mesh/prov/src/prov_provisionee.c.obj
 .text.send_failed
                0x000301dc       0x42 examples/pb_remote/server/CMakeFiles/pb_remote_server_nrf52832_xxAA_s132_6.1.1.dir/__/__/__/mesh/prov/src/prov_provisionee.c.obj
 .text.start_authentication
                0x0003021e       0x52 examples/pb_remote/server/CMakeFiles/pb_remote_server_nrf52832_xxAA_s132_6.1.1.dir/__/__/__/mesh/prov/src/prov_provisionee.c.obj
 .text.prov_provisionee_cb_ack_received
                0x00030270      0x108 examples/pb_remote/server/CMakeFiles/pb_remote_server_nrf52832_xxAA_s132_6.1.1.dir/__/__/__/mesh/prov/src/prov_provisionee.c.obj
 .text.prov_provisionee_pkt_in
                0x00030378      0x390 examples/pb_remote/server/CMakeFiles/pb_remote_server_nrf52832_xxAA_s132_6.1.1.dir/__/__/__/mesh/prov/src/prov_provisionee.c.obj
 .text.prov_provisionee_listen
                0x00030708       0x30 examples/pb_remote/server/CMakeFiles/pb_remote_server_nrf52832_xxAA_s132_6.1.1.dir/__/__/__/mesh/prov/src/prov_provisionee.c.obj
                0x00030708                prov_provisionee_listen
 .text.prov_provisionee_auth_data
                0x00030738       0x48 examples/pb_remote/server/CMakeFiles/pb_remote_server_nrf52832_xxAA_s132_6.1.1.dir/__/__/__/mesh/prov/src/prov_provisionee.c.obj
                0x00030738                prov_provisionee_auth_data
 .text.bearer_compare_callback
                0x00030780        0xc examples/pb_remote/server/CMakeFiles/pb_remote_server_nrf52832_xxAA_s132_6.1.1.dir/__/__/__/mesh/prov/src/nrf_mesh_prov.c.obj
 .text.utils_reverse_array.constprop.2
                0x0003078c       0x1c examples/pb_remote/server/CMakeFiles/pb_remote_server_nrf52832_xxAA_s132_6.1.1.dir/__/__/__/mesh/prov/src/nrf_mesh_prov.c.obj
 .text.bitfield_next_get.part.0.constprop.5
                0x000307a8       0x34 examples/pb_remote/server/CMakeFiles/pb_remote_server_nrf52832_xxAA_s132_6.1.1.dir/__/__/__/mesh/prov/src/nrf_mesh_prov.c.obj
 .text.nrf_mesh_prov_init
                0x000307dc       0x32 examples/pb_remote/server/CMakeFiles/pb_remote_server_nrf52832_xxAA_s132_6.1.1.dir/__/__/__/mesh/prov/src/nrf_mesh_prov.c.obj
                0x000307dc                nrf_mesh_prov_init
 *fill*         0x0003080e        0x2 
 .text.nrf_mesh_prov_bearer_add
                0x00030810       0x28 examples/pb_remote/server/CMakeFiles/pb_remote_server_nrf52832_xxAA_s132_6.1.1.dir/__/__/__/mesh/prov/src/nrf_mesh_prov.c.obj
                0x00030810                nrf_mesh_prov_bearer_add
 .text.nrf_mesh_prov_generate_keys
                0x00030838        0x4 examples/pb_remote/server/CMakeFiles/pb_remote_server_nrf52832_xxAA_s132_6.1.1.dir/__/__/__/mesh/prov/src/nrf_mesh_prov.c.obj
                0x00030838                nrf_mesh_prov_generate_keys
 .text.nrf_mesh_prov_listen_stop
                0x0003083c       0x2e examples/pb_remote/server/CMakeFiles/pb_remote_server_nrf52832_xxAA_s132_6.1.1.dir/__/__/__/mesh/prov/src/nrf_mesh_prov.c.obj
                0x0003083c                nrf_mesh_prov_listen_stop
 .text.nrf_mesh_prov_listen
                0x0003086a       0x8a examples/pb_remote/server/CMakeFiles/pb_remote_server_nrf52832_xxAA_s132_6.1.1.dir/__/__/__/mesh/prov/src/nrf_mesh_prov.c.obj
                0x0003086a                nrf_mesh_prov_listen
 .text.nrf_mesh_prov_auth_data_provide
                0x000308f4       0xf4 examples/pb_remote/server/CMakeFiles/pb_remote_server_nrf52832_xxAA_s132_6.1.1.dir/__/__/__/mesh/prov/src/nrf_mesh_prov.c.obj
                0x000308f4                nrf_mesh_prov_auth_data_provide
 .text.nrf_mesh_prov_scan_start
                0x000309e8       0x10 examples/pb_remote/server/CMakeFiles/pb_remote_server_nrf52832_xxAA_s132_6.1.1.dir/__/__/__/mesh/prov/src/nrf_mesh_prov.c.obj
                0x000309e8                nrf_mesh_prov_scan_start
 .text.nrf_mesh_prov_scan_stop
                0x000309f8        0x4 examples/pb_remote/server/CMakeFiles/pb_remote_server_nrf52832_xxAA_s132_6.1.1.dir/__/__/__/mesh/prov/src/nrf_mesh_prov.c.obj
                0x000309f8                nrf_mesh_prov_scan_stop
 .text.send_data
                0x000309fc       0x28 examples/pb_remote/server/CMakeFiles/pb_remote_server_nrf52832_xxAA_s132_6.1.1.dir/__/__/__/mesh/prov/src/provisioning.c.obj
 .text.prov_packet_length_valid
                0x00030a24       0x1c examples/pb_remote/server/CMakeFiles/pb_remote_server_nrf52832_xxAA_s132_6.1.1.dir/__/__/__/mesh/prov/src/provisioning.c.obj
                0x00030a24                prov_packet_length_valid
 .text.prov_tx_capabilities
                0x00030a40       0x1e examples/pb_remote/server/CMakeFiles/pb_remote_server_nrf52832_xxAA_s132_6.1.1.dir/__/__/__/mesh/prov/src/provisioning.c.obj
                0x00030a40                prov_tx_capabilities
 .text.prov_tx_public_key
                0x00030a5e       0x26 examples/pb_remote/server/CMakeFiles/pb_remote_server_nrf52832_xxAA_s132_6.1.1.dir/__/__/__/mesh/prov/src/provisioning.c.obj
                0x00030a5e                prov_tx_public_key
 .text.prov_tx_input_complete
                0x00030a84       0x16 examples/pb_remote/server/CMakeFiles/pb_remote_server_nrf52832_xxAA_s132_6.1.1.dir/__/__/__/mesh/prov/src/provisioning.c.obj
                0x00030a84                prov_tx_input_complete
 .text.prov_tx_confirmation
                0x00030a9a       0x26 examples/pb_remote/server/CMakeFiles/pb_remote_server_nrf52832_xxAA_s132_6.1.1.dir/__/__/__/mesh/prov/src/provisioning.c.obj
                0x00030a9a                prov_tx_confirmation
 .text.prov_tx_random
                0x00030ac0       0x26 examples/pb_remote/server/CMakeFiles/pb_remote_server_nrf52832_xxAA_s132_6.1.1.dir/__/__/__/mesh/prov/src/provisioning.c.obj
                0x00030ac0                prov_tx_random
 .text.prov_tx_complete
                0x00030ae6       0x16 examples/pb_remote/server/CMakeFiles/pb_remote_server_nrf52832_xxAA_s132_6.1.1.dir/__/__/__/mesh/prov/src/provisioning.c.obj
                0x00030ae6                prov_tx_complete
 .text.prov_tx_failed
                0x00030afc       0x1a examples/pb_remote/server/CMakeFiles/pb_remote_server_nrf52832_xxAA_s132_6.1.1.dir/__/__/__/mesh/prov/src/provisioning.c.obj
                0x00030afc                prov_tx_failed
 .text.prov_beacon_unprov_build
                0x00030b16       0x54 examples/pb_remote/server/CMakeFiles/pb_remote_server_nrf52832_xxAA_s132_6.1.1.dir/__/__/__/mesh/prov/src/prov_beacon.c.obj
                0x00030b16                prov_beacon_unprov_build
 *fill*         0x00030b6a        0x2 
 .text.prov_beacon_unprov_packet_in
                0x00030b6c       0x88 examples/pb_remote/server/CMakeFiles/pb_remote_server_nrf52832_xxAA_s132_6.1.1.dir/__/__/__/mesh/prov/src/prov_beacon.c.obj
                0x00030b6c                prov_beacon_unprov_packet_in
 .text.prov_beacon_scan_start
                0x00030bf4       0x18 examples/pb_remote/server/CMakeFiles/pb_remote_server_nrf52832_xxAA_s132_6.1.1.dir/__/__/__/mesh/prov/src/prov_beacon.c.obj
                0x00030bf4                prov_beacon_scan_start
 .text.prov_beacon_scan_stop
                0x00030c0c        0xc examples/pb_remote/server/CMakeFiles/pb_remote_server_nrf52832_xxAA_s132_6.1.1.dir/__/__/__/mesh/prov/src/prov_beacon.c.obj
                0x00030c0c                prov_beacon_scan_stop
 .text.ecdh_setter
                0x00030c18       0x14 examples/pb_remote/server/CMakeFiles/pb_remote_server_nrf52832_xxAA_s132_6.1.1.dir/__/__/__/mesh/prov/src/prov_utils.c.obj
 .text.ecdh_getter
                0x00030c2c       0x10 examples/pb_remote/server/CMakeFiles/pb_remote_server_nrf52832_xxAA_s132_6.1.1.dir/__/__/__/mesh/prov/src/prov_utils.c.obj
 .text.ecdh_deleter
                0x00030c3c       0x10 examples/pb_remote/server/CMakeFiles/pb_remote_server_nrf52832_xxAA_s132_6.1.1.dir/__/__/__/mesh/prov/src/prov_utils.c.obj
 .text.oob_gen_alphanumeric
                0x00030c4c       0x34 examples/pb_remote/server/CMakeFiles/pb_remote_server_nrf52832_xxAA_s132_6.1.1.dir/__/__/__/mesh/prov/src/prov_utils.c.obj
 .text.oob_gen_numeric
                0x00030c80       0x3c examples/pb_remote/server/CMakeFiles/pb_remote_server_nrf52832_xxAA_s132_6.1.1.dir/__/__/__/mesh/prov/src/prov_utils.c.obj
 .text.prov_utils_authentication_values_derive
                0x00030cbc       0xa0 examples/pb_remote/server/CMakeFiles/pb_remote_server_nrf52832_xxAA_s132_6.1.1.dir/__/__/__/mesh/prov/src/prov_utils.c.obj
                0x00030cbc                prov_utils_authentication_values_derive
 .text.prov_utils_keys_generate
                0x00030d5c       0x1e examples/pb_remote/server/CMakeFiles/pb_remote_server_nrf52832_xxAA_s132_6.1.1.dir/__/__/__/mesh/prov/src/prov_utils.c.obj
                0x00030d5c                prov_utils_keys_generate
 *fill*         0x00030d7a        0x2 
 .text.prov_utils_derive_keys
                0x00030d7c       0xac examples/pb_remote/server/CMakeFiles/pb_remote_server_nrf52832_xxAA_s132_6.1.1.dir/__/__/__/mesh/prov/src/prov_utils.c.obj
                0x00030d7c                prov_utils_derive_keys
 .text.prov_utils_is_valid_public_key
                0x00030e28       0x18 examples/pb_remote/server/CMakeFiles/pb_remote_server_nrf52832_xxAA_s132_6.1.1.dir/__/__/__/mesh/prov/src/prov_utils.c.obj
                0x00030e28                prov_utils_is_valid_public_key
 .text.prov_utils_calculate_shared_secret
                0x00030e40       0x34 examples/pb_remote/server/CMakeFiles/pb_remote_server_nrf52832_xxAA_s132_6.1.1.dir/__/__/__/mesh/prov/src/prov_utils.c.obj
                0x00030e40                prov_utils_calculate_shared_secret
 .text.prov_utils_generate_oob_data
                0x00030e74       0x98 examples/pb_remote/server/CMakeFiles/pb_remote_server_nrf52832_xxAA_s132_6.1.1.dir/__/__/__/mesh/prov/src/prov_utils.c.obj
                0x00030e74                prov_utils_generate_oob_data
 .text.prov_utils_confirmation_check
                0x00030f0c       0x5c examples/pb_remote/server/CMakeFiles/pb_remote_server_nrf52832_xxAA_s132_6.1.1.dir/__/__/__/mesh/prov/src/prov_utils.c.obj
                0x00030f0c                prov_utils_confirmation_check
 .text.prov_utils_auth_data_is_alphanumeric
                0x00030f68       0x26 examples/pb_remote/server/CMakeFiles/pb_remote_server_nrf52832_xxAA_s132_6.1.1.dir/__/__/__/mesh/prov/src/prov_utils.c.obj
                0x00030f68                prov_utils_auth_data_is_alphanumeric
 *fill*         0x00030f8e        0x2 
 .text.prov_utils_auth_data_is_valid_number
                0x00030f90       0x34 examples/pb_remote/server/CMakeFiles/pb_remote_server_nrf52832_xxAA_s132_6.1.1.dir/__/__/__/mesh/prov/src/prov_utils.c.obj
                0x00030f90                prov_utils_auth_data_is_valid_number
 .text.mesh_opt_prov_ecdh_offloading_get
                0x00030fc4       0x10 examples/pb_remote/server/CMakeFiles/pb_remote_server_nrf52832_xxAA_s132_6.1.1.dir/__/__/__/mesh/prov/src/prov_utils.c.obj
                0x00030fc4                mesh_opt_prov_ecdh_offloading_get
 .text.prov_utils_use_ecdh_offloading
                0x00030fd4       0x1c examples/pb_remote/server/CMakeFiles/pb_remote_server_nrf52832_xxAA_s132_6.1.1.dir/__/__/__/mesh/prov/src/prov_utils.c.obj
                0x00030fd4                prov_utils_use_ecdh_offloading
 .text.prov_utils_is_valid_pdu
                0x00030ff0       0x30 examples/pb_remote/server/CMakeFiles/pb_remote_server_nrf52832_xxAA_s132_6.1.1.dir/__/__/__/mesh/prov/src/prov_utils.c.obj
                0x00030ff0                prov_utils_is_valid_pdu
 .text.link_timeout_cb
                0x00031020       0x10 examples/pb_remote/server/CMakeFiles/pb_remote_server_nrf52832_xxAA_s132_6.1.1.dir/__/__/__/mesh/prov/src/prov_bearer_adv.c.obj
 .text.remove_active_bearer
                0x00031030       0x4c examples/pb_remote/server/CMakeFiles/pb_remote_server_nrf52832_xxAA_s132_6.1.1.dir/__/__/__/mesh/prov/src/prov_bearer_adv.c.obj
 .text.close_link
                0x0003107c       0x58 examples/pb_remote/server/CMakeFiles/pb_remote_server_nrf52832_xxAA_s132_6.1.1.dir/__/__/__/mesh/prov/src/prov_bearer_adv.c.obj
 .text.prov_bearer_adv_listen_stop
                0x000310d4       0x30 examples/pb_remote/server/CMakeFiles/pb_remote_server_nrf52832_xxAA_s132_6.1.1.dir/__/__/__/mesh/prov/src/prov_bearer_adv.c.obj
 .text.send_packet
                0x00031104       0x5c examples/pb_remote/server/CMakeFiles/pb_remote_server_nrf52832_xxAA_s132_6.1.1.dir/__/__/__/mesh/prov/src/prov_bearer_adv.c.obj
 .text.prov_buffer_tx
                0x00031160      0x134 examples/pb_remote/server/CMakeFiles/pb_remote_server_nrf52832_xxAA_s132_6.1.1.dir/__/__/__/mesh/prov/src/prov_bearer_adv.c.obj
 .text.send_link_close
                0x00031294       0x28 examples/pb_remote/server/CMakeFiles/pb_remote_server_nrf52832_xxAA_s132_6.1.1.dir/__/__/__/mesh/prov/src/prov_bearer_adv.c.obj
 .text.prov_bearer_adv_link_close
                0x000312bc       0x54 examples/pb_remote/server/CMakeFiles/pb_remote_server_nrf52832_xxAA_s132_6.1.1.dir/__/__/__/mesh/prov/src/prov_bearer_adv.c.obj
 .text.send_transaction_ack
                0x00031310       0x24 examples/pb_remote/server/CMakeFiles/pb_remote_server_nrf52832_xxAA_s132_6.1.1.dir/__/__/__/mesh/prov/src/prov_bearer_adv.c.obj
 .text.send_link_ack
                0x00031334       0x24 examples/pb_remote/server/CMakeFiles/pb_remote_server_nrf52832_xxAA_s132_6.1.1.dir/__/__/__/mesh/prov/src/prov_bearer_adv.c.obj
 .text.reset_timeout_timer
                0x00031358       0x1a examples/pb_remote/server/CMakeFiles/pb_remote_server_nrf52832_xxAA_s132_6.1.1.dir/__/__/__/mesh/prov/src/prov_bearer_adv.c.obj
 *fill*         0x00031372        0x2 
 .text.tx_complete_cb
                0x00031374       0x1c examples/pb_remote/server/CMakeFiles/pb_remote_server_nrf52832_xxAA_s132_6.1.1.dir/__/__/__/mesh/prov/src/prov_bearer_adv.c.obj
 .text.tx_retry_cb
                0x00031390       0xcc examples/pb_remote/server/CMakeFiles/pb_remote_server_nrf52832_xxAA_s132_6.1.1.dir/__/__/__/mesh/prov/src/prov_bearer_adv.c.obj
 .text.add_active_bearer
                0x0003145c       0x80 examples/pb_remote/server/CMakeFiles/pb_remote_server_nrf52832_xxAA_s132_6.1.1.dir/__/__/__/mesh/prov/src/prov_bearer_adv.c.obj
 .text.prov_bearer_adv_link_open
                0x000314dc       0xe0 examples/pb_remote/server/CMakeFiles/pb_remote_server_nrf52832_xxAA_s132_6.1.1.dir/__/__/__/mesh/prov/src/prov_bearer_adv.c.obj
 .text.async_process
                0x000315bc       0x50 examples/pb_remote/server/CMakeFiles/pb_remote_server_nrf52832_xxAA_s132_6.1.1.dir/__/__/__/mesh/prov/src/prov_bearer_adv.c.obj
 .text.prov_bearer_adv_listen
                0x0003160c       0xdc examples/pb_remote/server/CMakeFiles/pb_remote_server_nrf52832_xxAA_s132_6.1.1.dir/__/__/__/mesh/prov/src/prov_bearer_adv.c.obj
 .text.calculate_3GPP_CRC
                0x000316e8       0x24 examples/pb_remote/server/CMakeFiles/pb_remote_server_nrf52832_xxAA_s132_6.1.1.dir/__/__/__/mesh/prov/src/prov_bearer_adv.c.obj
                0x000316e8                calculate_3GPP_CRC
 .text.prov_bearer_adv_tx
                0x0003170c       0xac examples/pb_remote/server/CMakeFiles/pb_remote_server_nrf52832_xxAA_s132_6.1.1.dir/__/__/__/mesh/prov/src/prov_bearer_adv.c.obj
 .text.prov_buffer_rx
                0x000317b8       0x7a examples/pb_remote/server/CMakeFiles/pb_remote_server_nrf52832_xxAA_s132_6.1.1.dir/__/__/__/mesh/prov/src/prov_bearer_adv.c.obj
 *fill*         0x00031832        0x2 
 .text.nrf_mesh_prov_bearer_adv_interface_get
                0x00031834       0x3c examples/pb_remote/server/CMakeFiles/pb_remote_server_nrf52832_xxAA_s132_6.1.1.dir/__/__/__/mesh/prov/src/prov_bearer_adv.c.obj
                0x00031834                nrf_mesh_prov_bearer_adv_interface_get
 .text.prov_bearer_adv_packet_in
                0x00031870      0x82c examples/pb_remote/server/CMakeFiles/pb_remote_server_nrf52832_xxAA_s132_6.1.1.dir/__/__/__/mesh/prov/src/prov_bearer_adv.c.obj
                0x00031870                prov_bearer_adv_packet_in
 .text.pb_remote_server_event_transfer_status_cb
                0x0003209c       0xf0 examples/pb_remote/server/CMakeFiles/pb_remote_server_nrf52832_xxAA_s132_6.1.1.dir/__/__/__/models/experimental/pb_remote/src/pb_remote_server.c.obj
 .text.pb_remote_server_event_link_status_cb
                0x0003218c      0x1c4 examples/pb_remote/server/CMakeFiles/pb_remote_server_nrf52832_xxAA_s132_6.1.1.dir/__/__/__/models/experimental/pb_remote/src/pb_remote_server.c.obj
 .text.pb_remote_server_event_scan_report_status_cb
                0x00032350       0x80 examples/pb_remote/server/CMakeFiles/pb_remote_server_nrf52832_xxAA_s132_6.1.1.dir/__/__/__/models/experimental/pb_remote/src/pb_remote_server.c.obj
 .text.do_state_change
                0x000323d0       0x78 examples/pb_remote/server/CMakeFiles/pb_remote_server_nrf52832_xxAA_s132_6.1.1.dir/__/__/__/models/experimental/pb_remote/src/pb_remote_server.c.obj
 .text.pb_remote_server_process
                0x00032448      0x204 examples/pb_remote/server/CMakeFiles/pb_remote_server_nrf52832_xxAA_s132_6.1.1.dir/__/__/__/models/experimental/pb_remote/src/pb_remote_server.c.obj
 .text.server_reliable_status_cb
                0x0003264c      0x158 examples/pb_remote/server/CMakeFiles/pb_remote_server_nrf52832_xxAA_s132_6.1.1.dir/__/__/__/models/experimental/pb_remote/src/pb_remote_server.c.obj
 .text.pb_adv_link_closed_cb
                0x000327a4       0x3c examples/pb_remote/server/CMakeFiles/pb_remote_server_nrf52832_xxAA_s132_6.1.1.dir/__/__/__/models/experimental/pb_remote/src/pb_remote_server.c.obj
 .text.pb_adv_link_opened_cb
                0x000327e0       0x34 examples/pb_remote/server/CMakeFiles/pb_remote_server_nrf52832_xxAA_s132_6.1.1.dir/__/__/__/models/experimental/pb_remote/src/pb_remote_server.c.obj
 .text.pb_adv_ack_cb
                0x00032814       0x34 examples/pb_remote/server/CMakeFiles/pb_remote_server_nrf52832_xxAA_s132_6.1.1.dir/__/__/__/models/experimental/pb_remote/src/pb_remote_server.c.obj
 .text.pb_adv_rx_cb
                0x00032848       0x48 examples/pb_remote/server/CMakeFiles/pb_remote_server_nrf52832_xxAA_s132_6.1.1.dir/__/__/__/models/experimental/pb_remote/src/pb_remote_server.c.obj
 .text.prov_evt_handler
                0x00032890       0x40 examples/pb_remote/server/CMakeFiles/pb_remote_server_nrf52832_xxAA_s132_6.1.1.dir/__/__/__/models/experimental/pb_remote/src/pb_remote_server.c.obj
 .text.pb_remote_server_event_tx_failed_cb
                0x000328d0       0x2c examples/pb_remote/server/CMakeFiles/pb_remote_server_nrf52832_xxAA_s132_6.1.1.dir/__/__/__/models/experimental/pb_remote/src/pb_remote_server.c.obj
 .text.send_reliable_msg
                0x000328fc       0x40 examples/pb_remote/server/CMakeFiles/pb_remote_server_nrf52832_xxAA_s132_6.1.1.dir/__/__/__/models/experimental/pb_remote/src/pb_remote_server.c.obj
 .text.pb_remote_server_event_local_packet_cb
                0x0003293c      0x114 examples/pb_remote/server/CMakeFiles/pb_remote_server_nrf52832_xxAA_s132_6.1.1.dir/__/__/__/models/experimental/pb_remote/src/pb_remote_server.c.obj
 .text.pb_remote_server_event_local_ack_cb
                0x00032a50       0x8c examples/pb_remote/server/CMakeFiles/pb_remote_server_nrf52832_xxAA_s132_6.1.1.dir/__/__/__/models/experimental/pb_remote/src/pb_remote_server.c.obj
 .text.pb_remote_server_event_link_established_cb
                0x00032adc       0x94 examples/pb_remote/server/CMakeFiles/pb_remote_server_nrf52832_xxAA_s132_6.1.1.dir/__/__/__/models/experimental/pb_remote/src/pb_remote_server.c.obj
 .text.pb_remote_server_event_link_closed_cb
                0x00032b70       0xdc examples/pb_remote/server/CMakeFiles/pb_remote_server_nrf52832_xxAA_s132_6.1.1.dir/__/__/__/models/experimental/pb_remote/src/pb_remote_server.c.obj
 .text.pb_remote_server_event_unprov_uuid_cb
                0x00032c4c      0x174 examples/pb_remote/server/CMakeFiles/pb_remote_server_nrf52832_xxAA_s132_6.1.1.dir/__/__/__/models/experimental/pb_remote/src/pb_remote_server.c.obj
 .text.send_reply.isra.6
                0x00032dc0       0x18 examples/pb_remote/server/CMakeFiles/pb_remote_server_nrf52832_xxAA_s132_6.1.1.dir/__/__/__/models/experimental/pb_remote/src/pb_remote_server.c.obj
 .text.pb_remote_server_event_packet_transfer_cb
                0x00032dd8      0x10c examples/pb_remote/server/CMakeFiles/pb_remote_server_nrf52832_xxAA_s132_6.1.1.dir/__/__/__/models/experimental/pb_remote/src/pb_remote_server.c.obj
 .text.pb_remote_server_event_scan_start_filter_cb.part.9
                0x00032ee4       0xf0 examples/pb_remote/server/CMakeFiles/pb_remote_server_nrf52832_xxAA_s132_6.1.1.dir/__/__/__/models/experimental/pb_remote/src/pb_remote_server.c.obj
 .text.pb_remote_server_event_scan_start_filter_cb
                0x00032fd4       0x50 examples/pb_remote/server/CMakeFiles/pb_remote_server_nrf52832_xxAA_s132_6.1.1.dir/__/__/__/models/experimental/pb_remote/src/pb_remote_server.c.obj
 .text.pb_remote_server_event_scan_start_cb
                0x00033024       0x9c examples/pb_remote/server/CMakeFiles/pb_remote_server_nrf52832_xxAA_s132_6.1.1.dir/__/__/__/models/experimental/pb_remote/src/pb_remote_server.c.obj
 .text.remote_server_access_rx_cb
                0x000330c0      0x180 examples/pb_remote/server/CMakeFiles/pb_remote_server_nrf52832_xxAA_s132_6.1.1.dir/__/__/__/models/experimental/pb_remote/src/pb_remote_server.c.obj
 .text.pb_remote_server_event_link_close_cb
                0x00033240       0xec examples/pb_remote/server/CMakeFiles/pb_remote_server_nrf52832_xxAA_s132_6.1.1.dir/__/__/__/models/experimental/pb_remote/src/pb_remote_server.c.obj
 .text.local_link_open.isra.13
                0x0003332c       0xf0 examples/pb_remote/server/CMakeFiles/pb_remote_server_nrf52832_xxAA_s132_6.1.1.dir/__/__/__/models/experimental/pb_remote/src/pb_remote_server.c.obj
 .text.pb_remote_server_event_link_open_cb
                0x0003341c       0xa0 examples/pb_remote/server/CMakeFiles/pb_remote_server_nrf52832_xxAA_s132_6.1.1.dir/__/__/__/models/experimental/pb_remote/src/pb_remote_server.c.obj
 .text.pb_remote_server_event_scan_cancel_cb
                0x000334bc       0x7c examples/pb_remote/server/CMakeFiles/pb_remote_server_nrf52832_xxAA_s132_6.1.1.dir/__/__/__/models/experimental/pb_remote/src/pb_remote_server.c.obj
 .text.pb_remote_server_init
                0x00033538       0xa0 examples/pb_remote/server/CMakeFiles/pb_remote_server_nrf52832_xxAA_s132_6.1.1.dir/__/__/__/models/experimental/pb_remote/src/pb_remote_server.c.obj
                0x00033538                pb_remote_server_init
 .text.pb_remote_server_enable
                0x000335d8       0x28 examples/pb_remote/server/CMakeFiles/pb_remote_server_nrf52832_xxAA_s132_6.1.1.dir/__/__/__/models/experimental/pb_remote/src/pb_remote_server.c.obj
                0x000335d8                pb_remote_server_enable
 .text.pb_remote_server_prov_bearer_set
                0x00033600       0x18 examples/pb_remote/server/CMakeFiles/pb_remote_server_nrf52832_xxAA_s132_6.1.1.dir/__/__/__/models/experimental/pb_remote/src/pb_remote_server.c.obj
                0x00033600                pb_remote_server_prov_bearer_set
 .text.add_to_publication_list
                0x00033618       0x78 examples/pb_remote/server/CMakeFiles/pb_remote_server_nrf52832_xxAA_s132_6.1.1.dir/__/__/__/mesh/access/src/access_publish.c.obj
 .text.step_resolution_to_us
                0x00033690       0x38 examples/pb_remote/server/CMakeFiles/pb_remote_server_nrf52832_xxAA_s132_6.1.1.dir/__/__/__/mesh/access/src/access_publish.c.obj
 .text.schedule_publication_timer
                0x000336c8      0x184 examples/pb_remote/server/CMakeFiles/pb_remote_server_nrf52832_xxAA_s132_6.1.1.dir/__/__/__/mesh/access/src/access_publish.c.obj
 .text.publish_timer_tick
                0x0003384c       0xa8 examples/pb_remote/server/CMakeFiles/pb_remote_server_nrf52832_xxAA_s132_6.1.1.dir/__/__/__/mesh/access/src/access_publish.c.obj
 .text.access_publish_init
                0x000338f4       0x38 examples/pb_remote/server/CMakeFiles/pb_remote_server_nrf52832_xxAA_s132_6.1.1.dir/__/__/__/mesh/access/src/access_publish.c.obj
                0x000338f4                access_publish_init
 .text.access_publish_period_set
                0x0003392c       0x60 examples/pb_remote/server/CMakeFiles/pb_remote_server_nrf52832_xxAA_s132_6.1.1.dir/__/__/__/mesh/access/src/access_publish.c.obj
                0x0003392c                access_publish_period_set
 .text.get_next_timeout_index
                0x0003398c       0x40 examples/pb_remote/server/CMakeFiles/pb_remote_server_nrf52832_xxAA_s132_6.1.1.dir/__/__/__/mesh/access/src/access_publish_retransmission.c.obj
 .text.message_remove
                0x000339cc       0x5c examples/pb_remote/server/CMakeFiles/pb_remote_server_nrf52832_xxAA_s132_6.1.1.dir/__/__/__/mesh/access/src/access_publish_retransmission.c.obj
 .text.retransmissions_timer_cb
                0x00033a28       0xc8 examples/pb_remote/server/CMakeFiles/pb_remote_server_nrf52832_xxAA_s132_6.1.1.dir/__/__/__/mesh/access/src/access_publish_retransmission.c.obj
 .text.access_publish_retransmission_init
                0x00033af0       0x24 examples/pb_remote/server/CMakeFiles/pb_remote_server_nrf52832_xxAA_s132_6.1.1.dir/__/__/__/mesh/access/src/access_publish_retransmission.c.obj
                0x00033af0                access_publish_retransmission_init
 .text.access_publish_retransmission_message_add
                0x00033b14       0xf8 examples/pb_remote/server/CMakeFiles/pb_remote_server_nrf52832_xxAA_s132_6.1.1.dir/__/__/__/mesh/access/src/access_publish_retransmission.c.obj
                0x00033b14                access_publish_retransmission_message_add
 .text.bitfield_get
                0x00033c0c       0x1a examples/pb_remote/server/CMakeFiles/pb_remote_server_nrf52832_xxAA_s132_6.1.1.dir/__/__/__/mesh/access/src/access.c.obj
 .text.is_valid_opcode
                0x00033c26       0x42 examples/pb_remote/server/CMakeFiles/pb_remote_server_nrf52832_xxAA_s132_6.1.1.dir/__/__/__/mesh/access/src/access.c.obj
 .text.model_handle_valid_and_allocated
                0x00033c68       0x20 examples/pb_remote/server/CMakeFiles/pb_remote_server_nrf52832_xxAA_s132_6.1.1.dir/__/__/__/mesh/access/src/access.c.obj
 .text.flash_manager_mem_available
                0x00033c88        0x2 examples/pb_remote/server/CMakeFiles/pb_remote_server_nrf52832_xxAA_s132_6.1.1.dir/__/__/__/mesh/access/src/access.c.obj
 *fill*         0x00033c8a        0x2 
 .text.restore_acquired_subscription
                0x00033c8c       0x30 examples/pb_remote/server/CMakeFiles/pb_remote_server_nrf52832_xxAA_s132_6.1.1.dir/__/__/__/mesh/access/src/access.c.obj
 .text.restore_acquired_element
                0x00033cbc       0x1c examples/pb_remote/server/CMakeFiles/pb_remote_server_nrf52832_xxAA_s132_6.1.1.dir/__/__/__/mesh/access/src/access.c.obj
 .text.restore_flash_data
                0x00033cd8       0x28 examples/pb_remote/server/CMakeFiles/pb_remote_server_nrf52832_xxAA_s132_6.1.1.dir/__/__/__/mesh/access/src/access.c.obj
 .text.check_tx_params
                0x00033d00       0x5c examples/pb_remote/server/CMakeFiles/pb_remote_server_nrf52832_xxAA_s132_6.1.1.dir/__/__/__/mesh/access/src/access.c.obj
 .text.flash_invalidate_complete
                0x00033d5c        0x6 examples/pb_remote/server/CMakeFiles/pb_remote_server_nrf52832_xxAA_s132_6.1.1.dir/__/__/__/mesh/access/src/access.c.obj
 *fill*         0x00033d62        0x2 
 .text.access_flash_config_clear
                0x00033d64       0x3c examples/pb_remote/server/CMakeFiles/pb_remote_server_nrf52832_xxAA_s132_6.1.1.dir/__/__/__/mesh/access/src/access.c.obj
 .text.access_state_clear
                0x00033da0       0x4c examples/pb_remote/server/CMakeFiles/pb_remote_server_nrf52832_xxAA_s132_6.1.1.dir/__/__/__/mesh/access/src/access.c.obj
 .text.packet_tx
                0x00033dec      0x204 examples/pb_remote/server/CMakeFiles/pb_remote_server_nrf52832_xxAA_s132_6.1.1.dir/__/__/__/mesh/access/src/access.c.obj
 .text.flash_write_complete
                0x00033ff0       0x46 examples/pb_remote/server/CMakeFiles/pb_remote_server_nrf52832_xxAA_s132_6.1.1.dir/__/__/__/mesh/access/src/access.c.obj
 *fill*         0x00034036        0x2 
 .text.access_flash_config_store
                0x00034038      0x144 examples/pb_remote/server/CMakeFiles/pb_remote_server_nrf52832_xxAA_s132_6.1.1.dir/__/__/__/mesh/access/src/access.c.obj
                0x00034038                access_flash_config_store
 .text.bitfield_next_get.part.0.constprop.10
                0x0003417c       0x34 examples/pb_remote/server/CMakeFiles/pb_remote_server_nrf52832_xxAA_s132_6.1.1.dir/__/__/__/mesh/access/src/access.c.obj
 .text.packet_alloc_and_tx
                0x000341b0       0xbe examples/pb_remote/server/CMakeFiles/pb_remote_server_nrf52832_xxAA_s132_6.1.1.dir/__/__/__/mesh/access/src/access.c.obj
 *fill*         0x0003426e        0x2 
 .text.restore_acquired_model
                0x00034270       0x8c examples/pb_remote/server/CMakeFiles/pb_remote_server_nrf52832_xxAA_s132_6.1.1.dir/__/__/__/mesh/access/src/access.c.obj
 .text.access_flash_config_load
                0x000342fc      0x1a0 examples/pb_remote/server/CMakeFiles/pb_remote_server_nrf52832_xxAA_s132_6.1.1.dir/__/__/__/mesh/access/src/access.c.obj
                0x000342fc                access_flash_config_load
 .text.access_incoming_handle
                0x0003449c      0x1ac examples/pb_remote/server/CMakeFiles/pb_remote_server_nrf52832_xxAA_s132_6.1.1.dir/__/__/__/mesh/access/src/access.c.obj
                0x0003449c                access_incoming_handle
 .text.mesh_msg_handle
                0x00034648      0x1cc examples/pb_remote/server/CMakeFiles/pb_remote_server_nrf52832_xxAA_s132_6.1.1.dir/__/__/__/mesh/access/src/access.c.obj
 .text.mesh_evt_cb
                0x00034814        0xc examples/pb_remote/server/CMakeFiles/pb_remote_server_nrf52832_xxAA_s132_6.1.1.dir/__/__/__/mesh/access/src/access.c.obj
 .text.access_packet_tx
                0x00034820       0x32 examples/pb_remote/server/CMakeFiles/pb_remote_server_nrf52832_xxAA_s132_6.1.1.dir/__/__/__/mesh/access/src/access.c.obj
                0x00034820                access_packet_tx
 .text.access_clear
                0x00034852       0x12 examples/pb_remote/server/CMakeFiles/pb_remote_server_nrf52832_xxAA_s132_6.1.1.dir/__/__/__/mesh/access/src/access.c.obj
                0x00034852                access_clear
 .text.access_model_add
                0x00034864      0x1ac examples/pb_remote/server/CMakeFiles/pb_remote_server_nrf52832_xxAA_s132_6.1.1.dir/__/__/__/mesh/access/src/access.c.obj
                0x00034864                access_model_add
 .text.access_model_publish
                0x00034a10       0x58 examples/pb_remote/server/CMakeFiles/pb_remote_server_nrf52832_xxAA_s132_6.1.1.dir/__/__/__/mesh/access/src/access.c.obj
                0x00034a10                access_model_publish
 .text.access_model_reply
                0x00034a68       0x1c examples/pb_remote/server/CMakeFiles/pb_remote_server_nrf52832_xxAA_s132_6.1.1.dir/__/__/__/mesh/access/src/access.c.obj
                0x00034a68                access_model_reply
 .text.access_model_publish_address_set
                0x00034a84       0x3c examples/pb_remote/server/CMakeFiles/pb_remote_server_nrf52832_xxAA_s132_6.1.1.dir/__/__/__/mesh/access/src/access.c.obj
                0x00034a84                access_model_publish_address_set
 .text.access_model_publish_address_get
                0x00034ac0       0x28 examples/pb_remote/server/CMakeFiles/pb_remote_server_nrf52832_xxAA_s132_6.1.1.dir/__/__/__/mesh/access/src/access.c.obj
                0x00034ac0                access_model_publish_address_get
 .text.access_model_publish_retransmit_set
                0x00034ae8       0x4c examples/pb_remote/server/CMakeFiles/pb_remote_server_nrf52832_xxAA_s132_6.1.1.dir/__/__/__/mesh/access/src/access.c.obj
                0x00034ae8                access_model_publish_retransmit_set
 .text.access_model_publish_retransmit_get
                0x00034b34       0x2c examples/pb_remote/server/CMakeFiles/pb_remote_server_nrf52832_xxAA_s132_6.1.1.dir/__/__/__/mesh/access/src/access.c.obj
                0x00034b34                access_model_publish_retransmit_get
 .text.access_model_publish_period_get
                0x00034b60       0x40 examples/pb_remote/server/CMakeFiles/pb_remote_server_nrf52832_xxAA_s132_6.1.1.dir/__/__/__/mesh/access/src/access.c.obj
                0x00034b60                access_model_publish_period_get
 .text.access_publish_timing_update
                0x00034ba0       0xc0 examples/pb_remote/server/CMakeFiles/pb_remote_server_nrf52832_xxAA_s132_6.1.1.dir/__/__/__/mesh/access/src/access.c.obj
 .text.access_model_publish_period_divisor_set
                0x00034c60       0x38 examples/pb_remote/server/CMakeFiles/pb_remote_server_nrf52832_xxAA_s132_6.1.1.dir/__/__/__/mesh/access/src/access.c.obj
                0x00034c60                access_model_publish_period_divisor_set
 .text.access_model_publish_period_set
                0x00034c98       0x6c examples/pb_remote/server/CMakeFiles/pb_remote_server_nrf52832_xxAA_s132_6.1.1.dir/__/__/__/mesh/access/src/access.c.obj
                0x00034c98                access_model_publish_period_set
 .text.access_model_subscription_list_alloc
                0x00034d04       0x68 examples/pb_remote/server/CMakeFiles/pb_remote_server_nrf52832_xxAA_s132_6.1.1.dir/__/__/__/mesh/access/src/access.c.obj
                0x00034d04                access_model_subscription_list_alloc
 .text.access_model_subscription_add
                0x00034d6c       0x60 examples/pb_remote/server/CMakeFiles/pb_remote_server_nrf52832_xxAA_s132_6.1.1.dir/__/__/__/mesh/access/src/access.c.obj
                0x00034d6c                access_model_subscription_add
 .text.access_model_subscription_remove
                0x00034dcc       0x60 examples/pb_remote/server/CMakeFiles/pb_remote_server_nrf52832_xxAA_s132_6.1.1.dir/__/__/__/mesh/access/src/access.c.obj
                0x00034dcc                access_model_subscription_remove
 .text.access_model_subscriptions_get
                0x00034e2c       0x78 examples/pb_remote/server/CMakeFiles/pb_remote_server_nrf52832_xxAA_s132_6.1.1.dir/__/__/__/mesh/access/src/access.c.obj
                0x00034e2c                access_model_subscriptions_get
 .text.access_model_application_bind
                0x00034ea4       0x50 examples/pb_remote/server/CMakeFiles/pb_remote_server_nrf52832_xxAA_s132_6.1.1.dir/__/__/__/mesh/access/src/access.c.obj
                0x00034ea4                access_model_application_bind
 .text.access_model_application_unbind
                0x00034ef4       0x50 examples/pb_remote/server/CMakeFiles/pb_remote_server_nrf52832_xxAA_s132_6.1.1.dir/__/__/__/mesh/access/src/access.c.obj
                0x00034ef4                access_model_application_unbind
 .text.access_model_applications_get
                0x00034f44       0x44 examples/pb_remote/server/CMakeFiles/pb_remote_server_nrf52832_xxAA_s132_6.1.1.dir/__/__/__/mesh/access/src/access.c.obj
                0x00034f44                access_model_applications_get
 .text.access_model_publish_application_set
                0x00034f88       0x3c examples/pb_remote/server/CMakeFiles/pb_remote_server_nrf52832_xxAA_s132_6.1.1.dir/__/__/__/mesh/access/src/access.c.obj
                0x00034f88                access_model_publish_application_set
 .text.access_model_publish_application_get
                0x00034fc4       0x28 examples/pb_remote/server/CMakeFiles/pb_remote_server_nrf52832_xxAA_s132_6.1.1.dir/__/__/__/mesh/access/src/access.c.obj
                0x00034fc4                access_model_publish_application_get
 .text.access_default_ttl_set
                0x00034fec       0x18 examples/pb_remote/server/CMakeFiles/pb_remote_server_nrf52832_xxAA_s132_6.1.1.dir/__/__/__/mesh/access/src/access.c.obj
                0x00034fec                access_default_ttl_set
 .text.access_default_ttl_get
                0x00035004        0xc examples/pb_remote/server/CMakeFiles/pb_remote_server_nrf52832_xxAA_s132_6.1.1.dir/__/__/__/mesh/access/src/access.c.obj
                0x00035004                access_default_ttl_get
 .text.access_model_publish_friendship_credential_flag_set
                0x00035010       0x38 examples/pb_remote/server/CMakeFiles/pb_remote_server_nrf52832_xxAA_s132_6.1.1.dir/__/__/__/mesh/access/src/access.c.obj
                0x00035010                access_model_publish_friendship_credential_flag_set
 .text.access_model_publish_friendship_credential_flag_get
                0x00035048       0x28 examples/pb_remote/server/CMakeFiles/pb_remote_server_nrf52832_xxAA_s132_6.1.1.dir/__/__/__/mesh/access/src/access.c.obj
                0x00035048                access_model_publish_friendship_credential_flag_get
 .text.access_model_publish_ttl_set
                0x00035070       0x40 examples/pb_remote/server/CMakeFiles/pb_remote_server_nrf52832_xxAA_s132_6.1.1.dir/__/__/__/mesh/access/src/access.c.obj
                0x00035070                access_model_publish_ttl_set
 .text.access_model_publish_ttl_get
                0x000350b0       0x28 examples/pb_remote/server/CMakeFiles/pb_remote_server_nrf52832_xxAA_s132_6.1.1.dir/__/__/__/mesh/access/src/access.c.obj
                0x000350b0                access_model_publish_ttl_get
 .text.access_element_location_get
                0x000350d8       0x18 examples/pb_remote/server/CMakeFiles/pb_remote_server_nrf52832_xxAA_s132_6.1.1.dir/__/__/__/mesh/access/src/access.c.obj
                0x000350d8                access_element_location_get
 .text.access_element_sig_model_count_get
                0x000350f0       0x18 examples/pb_remote/server/CMakeFiles/pb_remote_server_nrf52832_xxAA_s132_6.1.1.dir/__/__/__/mesh/access/src/access.c.obj
                0x000350f0                access_element_sig_model_count_get
 .text.access_element_vendor_model_count_get
                0x00035108       0x18 examples/pb_remote/server/CMakeFiles/pb_remote_server_nrf52832_xxAA_s132_6.1.1.dir/__/__/__/mesh/access/src/access.c.obj
                0x00035108                access_element_vendor_model_count_get
 .text.access_model_id_get
                0x00035120       0x2c examples/pb_remote/server/CMakeFiles/pb_remote_server_nrf52832_xxAA_s132_6.1.1.dir/__/__/__/mesh/access/src/access.c.obj
                0x00035120                access_model_id_get
 .text.access_handle_get
                0x0003514c       0x54 examples/pb_remote/server/CMakeFiles/pb_remote_server_nrf52832_xxAA_s132_6.1.1.dir/__/__/__/mesh/access/src/access.c.obj
                0x0003514c                access_handle_get
 .text.access_element_models_get
                0x000351a0       0x54 examples/pb_remote/server/CMakeFiles/pb_remote_server_nrf52832_xxAA_s132_6.1.1.dir/__/__/__/mesh/access/src/access.c.obj
                0x000351a0                access_element_models_get
 .text.access_model_p_args_get
                0x000351f4       0x28 examples/pb_remote/server/CMakeFiles/pb_remote_server_nrf52832_xxAA_s132_6.1.1.dir/__/__/__/mesh/access/src/access.c.obj
                0x000351f4                access_model_p_args_get
 .text.access_model_publication_stop
                0x0003521c       0x58 examples/pb_remote/server/CMakeFiles/pb_remote_server_nrf52832_xxAA_s132_6.1.1.dir/__/__/__/mesh/access/src/access.c.obj
                0x0003521c                access_model_publication_stop
 .text.access_model_publication_by_appkey_stop
                0x00035274       0x36 examples/pb_remote/server/CMakeFiles/pb_remote_server_nrf52832_xxAA_s132_6.1.1.dir/__/__/__/mesh/access/src/access.c.obj
                0x00035274                access_model_publication_by_appkey_stop
 .text.access_flash_area_get
                0x000352aa        0xc examples/pb_remote/server/CMakeFiles/pb_remote_server_nrf52832_xxAA_s132_6.1.1.dir/__/__/__/mesh/access/src/access.c.obj
                0x000352aa                access_flash_area_get
 *fill*         0x000352b6        0x2 
 .text.add_flash_manager
                0x000352b8       0x54 examples/pb_remote/server/CMakeFiles/pb_remote_server_nrf52832_xxAA_s132_6.1.1.dir/__/__/__/mesh/access/src/access.c.obj
 .text.access_init
                0x0003530c       0x34 examples/pb_remote/server/CMakeFiles/pb_remote_server_nrf52832_xxAA_s132_6.1.1.dir/__/__/__/mesh/access/src/access.c.obj
                0x0003530c                access_init
 .text.flash_remove_complete
                0x00035340       0x58 examples/pb_remote/server/CMakeFiles/pb_remote_server_nrf52832_xxAA_s132_6.1.1.dir/__/__/__/mesh/access/src/access.c.obj
 .text.reliable_timer_cb
                0x00035398      0x18c examples/pb_remote/server/CMakeFiles/pb_remote_server_nrf52832_xxAA_s132_6.1.1.dir/__/__/__/mesh/access/src/access_reliable.c.obj
 .text.remove_and_reschedule
                0x00035524       0xac examples/pb_remote/server/CMakeFiles/pb_remote_server_nrf52832_xxAA_s132_6.1.1.dir/__/__/__/mesh/access/src/access_reliable.c.obj
 .text.access_reliable_message_rx_cb
                0x000355d0       0x60 examples/pb_remote/server/CMakeFiles/pb_remote_server_nrf52832_xxAA_s132_6.1.1.dir/__/__/__/mesh/access/src/access_reliable.c.obj
                0x000355d0                access_reliable_message_rx_cb
 .text.access_reliable_init
                0x00035630       0x1c examples/pb_remote/server/CMakeFiles/pb_remote_server_nrf52832_xxAA_s132_6.1.1.dir/__/__/__/mesh/access/src/access_reliable.c.obj
                0x00035630                access_reliable_init
 .text.access_reliable_cancel_all
                0x0003564c       0x5c examples/pb_remote/server/CMakeFiles/pb_remote_server_nrf52832_xxAA_s132_6.1.1.dir/__/__/__/mesh/access/src/access_reliable.c.obj
                0x0003564c                access_reliable_cancel_all
 .text.access_model_reliable_cancel
                0x000356a8       0x68 examples/pb_remote/server/CMakeFiles/pb_remote_server_nrf52832_xxAA_s132_6.1.1.dir/__/__/__/mesh/access/src/access_reliable.c.obj
                0x000356a8                access_model_reliable_cancel
 .text.access_model_reliable_publish
                0x00035710      0x1a0 examples/pb_remote/server/CMakeFiles/pb_remote_server_nrf52832_xxAA_s132_6.1.1.dir/__/__/__/mesh/access/src/access_reliable.c.obj
                0x00035710                access_model_reliable_publish
 .text.bitfield_get
                0x000358b0       0x1a examples/pb_remote/server/CMakeFiles/pb_remote_server_nrf52832_xxAA_s132_6.1.1.dir/__/__/__/mesh/access/src/device_state_manager.c.obj
 .text.bitfield_set
                0x000358ca       0x18 examples/pb_remote/server/CMakeFiles/pb_remote_server_nrf52832_xxAA_s132_6.1.1.dir/__/__/__/mesh/access/src/device_state_manager.c.obj
 .text.bitfield_clear
                0x000358e2       0x1a examples/pb_remote/server/CMakeFiles/pb_remote_server_nrf52832_xxAA_s132_6.1.1.dir/__/__/__/mesh/access/src/device_state_manager.c.obj
 .text.bitfield_is_all_clear
                0x000358fc       0x38 examples/pb_remote/server/CMakeFiles/pb_remote_server_nrf52832_xxAA_s132_6.1.1.dir/__/__/__/mesh/access/src/device_state_manager.c.obj
 .text.addr_nonvirtual_to_flash_entry
                0x00035934       0x10 examples/pb_remote/server/CMakeFiles/pb_remote_server_nrf52832_xxAA_s132_6.1.1.dir/__/__/__/mesh/access/src/device_state_manager.c.obj
 .text.devkey_set
                0x00035944       0x4c examples/pb_remote/server/CMakeFiles/pb_remote_server_nrf52832_xxAA_s132_6.1.1.dir/__/__/__/mesh/access/src/device_state_manager.c.obj
 .text.devkey_to_dsm_entry
                0x00035990       0x16 examples/pb_remote/server/CMakeFiles/pb_remote_server_nrf52832_xxAA_s132_6.1.1.dir/__/__/__/mesh/access/src/device_state_manager.c.obj
 *fill*         0x000359a6        0x2 
 .text.devkey_to_flash_entry
                0x000359a8       0x28 examples/pb_remote/server/CMakeFiles/pb_remote_server_nrf52832_xxAA_s132_6.1.1.dir/__/__/__/mesh/access/src/device_state_manager.c.obj
 .text.addr_virtual_to_flash_entry
                0x000359d0       0x18 examples/pb_remote/server/CMakeFiles/pb_remote_server_nrf52832_xxAA_s132_6.1.1.dir/__/__/__/mesh/access/src/device_state_manager.c.obj
 .text.addr_unicast_to_dsm_entry
                0x000359e8        0xc examples/pb_remote/server/CMakeFiles/pb_remote_server_nrf52832_xxAA_s132_6.1.1.dir/__/__/__/mesh/access/src/device_state_manager.c.obj
 .text.addr_unicast_to_flash_entry
                0x000359f4       0x10 examples/pb_remote/server/CMakeFiles/pb_remote_server_nrf52832_xxAA_s132_6.1.1.dir/__/__/__/mesh/access/src/device_state_manager.c.obj
 .text.flash_read_callback
                0x00035a04       0xa8 examples/pb_remote/server/CMakeFiles/pb_remote_server_nrf52832_xxAA_s132_6.1.1.dir/__/__/__/mesh/access/src/device_state_manager.c.obj
 .text.flash_mem_listener_callback
                0x00035aac       0x14 examples/pb_remote/server/CMakeFiles/pb_remote_server_nrf52832_xxAA_s132_6.1.1.dir/__/__/__/mesh/access/src/device_state_manager.c.obj
 .text.get_subnet_handle
                0x00035ac0       0x34 examples/pb_remote/server/CMakeFiles/pb_remote_server_nrf52832_xxAA_s132_6.1.1.dir/__/__/__/mesh/access/src/device_state_manager.c.obj
 .text.appkey_set
                0x00035af4       0x70 examples/pb_remote/server/CMakeFiles/pb_remote_server_nrf52832_xxAA_s132_6.1.1.dir/__/__/__/mesh/access/src/device_state_manager.c.obj
 .text.appkey_to_flash_entry
                0x00035b64       0x54 examples/pb_remote/server/CMakeFiles/pb_remote_server_nrf52832_xxAA_s132_6.1.1.dir/__/__/__/mesh/access/src/device_state_manager.c.obj
 .text.subnet_to_flash_entry
                0x00035bb8       0x60 examples/pb_remote/server/CMakeFiles/pb_remote_server_nrf52832_xxAA_s132_6.1.1.dir/__/__/__/mesh/access/src/device_state_manager.c.obj
 .text.bitfield_clear_all
                0x00035c18        0xe examples/pb_remote/server/CMakeFiles/pb_remote_server_nrf52832_xxAA_s132_6.1.1.dir/__/__/__/mesh/access/src/device_state_manager.c.obj
 *fill*         0x00035c26        0x2 
 .text.subnet_set
                0x00035c28       0x98 examples/pb_remote/server/CMakeFiles/pb_remote_server_nrf52832_xxAA_s132_6.1.1.dir/__/__/__/mesh/access/src/device_state_manager.c.obj
 .text.virtual_address_set
                0x00035cc0       0x48 examples/pb_remote/server/CMakeFiles/pb_remote_server_nrf52832_xxAA_s132_6.1.1.dir/__/__/__/mesh/access/src/device_state_manager.c.obj
 .text.addr_virtual_to_dsm_entry
                0x00035d08        0xc examples/pb_remote/server/CMakeFiles/pb_remote_server_nrf52832_xxAA_s132_6.1.1.dir/__/__/__/mesh/access/src/device_state_manager.c.obj
 .text.reset_flash_area
                0x00035d14       0x28 examples/pb_remote/server/CMakeFiles/pb_remote_server_nrf52832_xxAA_s132_6.1.1.dir/__/__/__/mesh/access/src/device_state_manager.c.obj
 .text.flash_save
                0x00035d3c       0x7c examples/pb_remote/server/CMakeFiles/pb_remote_server_nrf52832_xxAA_s132_6.1.1.dir/__/__/__/mesh/access/src/device_state_manager.c.obj
 .text.flash_invalidate
                0x00035db8       0x64 examples/pb_remote/server/CMakeFiles/pb_remote_server_nrf52832_xxAA_s132_6.1.1.dir/__/__/__/mesh/access/src/device_state_manager.c.obj
 .text.flash_update_all
                0x00035e1c       0x6c examples/pb_remote/server/CMakeFiles/pb_remote_server_nrf52832_xxAA_s132_6.1.1.dir/__/__/__/mesh/access/src/device_state_manager.c.obj
 .text.get_subnet_handle_by_beacon_info
                0x00035e88       0x24 examples/pb_remote/server/CMakeFiles/pb_remote_server_nrf52832_xxAA_s132_6.1.1.dir/__/__/__/mesh/access/src/device_state_manager.c.obj
 .text.get_app_handle
                0x00035eac       0x34 examples/pb_remote/server/CMakeFiles/pb_remote_server_nrf52832_xxAA_s132_6.1.1.dir/__/__/__/mesh/access/src/device_state_manager.c.obj
 .text.appkey_to_dsm_entry
                0x00035ee0       0x68 examples/pb_remote/server/CMakeFiles/pb_remote_server_nrf52832_xxAA_s132_6.1.1.dir/__/__/__/mesh/access/src/device_state_manager.c.obj
 .text.subnet_to_dsm_entry
                0x00035f48       0x68 examples/pb_remote/server/CMakeFiles/pb_remote_server_nrf52832_xxAA_s132_6.1.1.dir/__/__/__/mesh/access/src/device_state_manager.c.obj
 .text.flash_operation_complete
                0x00035fb0       0x4c examples/pb_remote/server/CMakeFiles/pb_remote_server_nrf52832_xxAA_s132_6.1.1.dir/__/__/__/mesh/access/src/device_state_manager.c.obj
 .text.flash_invalidate_complete
                0x00035ffc        0x8 examples/pb_remote/server/CMakeFiles/pb_remote_server_nrf52832_xxAA_s132_6.1.1.dir/__/__/__/mesh/access/src/device_state_manager.c.obj
 .text.flash_write_complete
                0x00036004        0x8 examples/pb_remote/server/CMakeFiles/pb_remote_server_nrf52832_xxAA_s132_6.1.1.dir/__/__/__/mesh/access/src/device_state_manager.c.obj
 .text.bitfield_next_get.part.0.constprop.23
                0x0003600c       0x38 examples/pb_remote/server/CMakeFiles/pb_remote_server_nrf52832_xxAA_s132_6.1.1.dir/__/__/__/mesh/access/src/device_state_manager.c.obj
 .text.add_address
                0x00036044      0x108 examples/pb_remote/server/CMakeFiles/pb_remote_server_nrf52832_xxAA_s132_6.1.1.dir/__/__/__/mesh/access/src/device_state_manager.c.obj
 .text.virtual_address_uuid_index_get
                0x0003614c       0x38 examples/pb_remote/server/CMakeFiles/pb_remote_server_nrf52832_xxAA_s132_6.1.1.dir/__/__/__/mesh/access/src/device_state_manager.c.obj
 .text.add_address_virtual
                0x00036184       0x70 examples/pb_remote/server/CMakeFiles/pb_remote_server_nrf52832_xxAA_s132_6.1.1.dir/__/__/__/mesh/access/src/device_state_manager.c.obj
 .text.net_key_handle_get
                0x000361f4       0x30 examples/pb_remote/server/CMakeFiles/pb_remote_server_nrf52832_xxAA_s132_6.1.1.dir/__/__/__/mesh/access/src/device_state_manager.c.obj
 .text.dev_key_handle_get
                0x00036224       0x30 examples/pb_remote/server/CMakeFiles/pb_remote_server_nrf52832_xxAA_s132_6.1.1.dir/__/__/__/mesh/access/src/device_state_manager.c.obj
 .text.app_key_handle_get
                0x00036254       0x30 examples/pb_remote/server/CMakeFiles/pb_remote_server_nrf52832_xxAA_s132_6.1.1.dir/__/__/__/mesh/access/src/device_state_manager.c.obj
 .text.address_handle_virtual_valid
                0x00036284       0x14 examples/pb_remote/server/CMakeFiles/pb_remote_server_nrf52832_xxAA_s132_6.1.1.dir/__/__/__/mesh/access/src/device_state_manager.c.obj
 .text.address_handle_valid
                0x00036298       0x2c examples/pb_remote/server/CMakeFiles/pb_remote_server_nrf52832_xxAA_s132_6.1.1.dir/__/__/__/mesh/access/src/device_state_manager.c.obj
 .text.address_delete_if_unused
                0x000362c4       0x78 examples/pb_remote/server/CMakeFiles/pb_remote_server_nrf52832_xxAA_s132_6.1.1.dir/__/__/__/mesh/access/src/device_state_manager.c.obj
 .text.addr_nonvirtual_to_dsm_entry
                0x0003633c       0x34 examples/pb_remote/server/CMakeFiles/pb_remote_server_nrf52832_xxAA_s132_6.1.1.dir/__/__/__/mesh/access/src/device_state_manager.c.obj
 .text.dsm_flash_config_load
                0x00036370       0x7c examples/pb_remote/server/CMakeFiles/pb_remote_server_nrf52832_xxAA_s132_6.1.1.dir/__/__/__/mesh/access/src/device_state_manager.c.obj
                0x00036370                dsm_flash_config_load
 .text.dsm_flash_area_get
                0x000363ec        0xc examples/pb_remote/server/CMakeFiles/pb_remote_server_nrf52832_xxAA_s132_6.1.1.dir/__/__/__/mesh/access/src/device_state_manager.c.obj
                0x000363ec                dsm_flash_area_get
 .text.build_flash_area
                0x000363f8       0x94 examples/pb_remote/server/CMakeFiles/pb_remote_server_nrf52832_xxAA_s132_6.1.1.dir/__/__/__/mesh/access/src/device_state_manager.c.obj
 .text.flash_remove_complete
                0x0003648c        0x4 examples/pb_remote/server/CMakeFiles/pb_remote_server_nrf52832_xxAA_s132_6.1.1.dir/__/__/__/mesh/access/src/device_state_manager.c.obj
 .text.dsm_clear
                0x00036490       0xa0 examples/pb_remote/server/CMakeFiles/pb_remote_server_nrf52832_xxAA_s132_6.1.1.dir/__/__/__/mesh/access/src/device_state_manager.c.obj
                0x00036490                dsm_clear
 .text.dsm_init
                0x00036530       0x3c examples/pb_remote/server/CMakeFiles/pb_remote_server_nrf52832_xxAA_s132_6.1.1.dir/__/__/__/mesh/access/src/device_state_manager.c.obj
                0x00036530                dsm_init
 .text.dsm_local_unicast_addresses_set
                0x0003656c       0x78 examples/pb_remote/server/CMakeFiles/pb_remote_server_nrf52832_xxAA_s132_6.1.1.dir/__/__/__/mesh/access/src/device_state_manager.c.obj
                0x0003656c                dsm_local_unicast_addresses_set
 .text.dsm_local_unicast_addresses_get
                0x000365e4       0x20 examples/pb_remote/server/CMakeFiles/pb_remote_server_nrf52832_xxAA_s132_6.1.1.dir/__/__/__/mesh/access/src/device_state_manager.c.obj
                0x000365e4                dsm_local_unicast_addresses_get
 .text.dsm_address_publish_add
                0x00036604        0x6 examples/pb_remote/server/CMakeFiles/pb_remote_server_nrf52832_xxAA_s132_6.1.1.dir/__/__/__/mesh/access/src/device_state_manager.c.obj
                0x00036604                dsm_address_publish_add
 *fill*         0x0003660a        0x2 
 .text.dsm_address_publish_add_handle
                0x0003660c       0x38 examples/pb_remote/server/CMakeFiles/pb_remote_server_nrf52832_xxAA_s132_6.1.1.dir/__/__/__/mesh/access/src/device_state_manager.c.obj
                0x0003660c                dsm_address_publish_add_handle
 .text.dsm_address_publish_virtual_add
                0x00036644        0x6 examples/pb_remote/server/CMakeFiles/pb_remote_server_nrf52832_xxAA_s132_6.1.1.dir/__/__/__/mesh/access/src/device_state_manager.c.obj
                0x00036644                dsm_address_publish_virtual_add
 *fill*         0x0003664a        0x2 
 .text.dsm_address_publish_remove
                0x0003664c       0x4c examples/pb_remote/server/CMakeFiles/pb_remote_server_nrf52832_xxAA_s132_6.1.1.dir/__/__/__/mesh/access/src/device_state_manager.c.obj
                0x0003664c                dsm_address_publish_remove
 .text.dsm_address_subscription_add
                0x00036698        0x6 examples/pb_remote/server/CMakeFiles/pb_remote_server_nrf52832_xxAA_s132_6.1.1.dir/__/__/__/mesh/access/src/device_state_manager.c.obj
                0x00036698                dsm_address_subscription_add
 .text.dsm_address_subscription_virtual_add
                0x0003669e        0x6 examples/pb_remote/server/CMakeFiles/pb_remote_server_nrf52832_xxAA_s132_6.1.1.dir/__/__/__/mesh/access/src/device_state_manager.c.obj
                0x0003669e                dsm_address_subscription_virtual_add
 .text.dsm_address_subscription_add_handle
                0x000366a4       0x38 examples/pb_remote/server/CMakeFiles/pb_remote_server_nrf52832_xxAA_s132_6.1.1.dir/__/__/__/mesh/access/src/device_state_manager.c.obj
                0x000366a4                dsm_address_subscription_add_handle
 .text.dsm_address_get
                0x000366dc       0x64 examples/pb_remote/server/CMakeFiles/pb_remote_server_nrf52832_xxAA_s132_6.1.1.dir/__/__/__/mesh/access/src/device_state_manager.c.obj
                0x000366dc                dsm_address_get
 .text.dsm_address_subscription_remove
                0x00036740       0x58 examples/pb_remote/server/CMakeFiles/pb_remote_server_nrf52832_xxAA_s132_6.1.1.dir/__/__/__/mesh/access/src/device_state_manager.c.obj
                0x00036740                dsm_address_subscription_remove
 .text.dsm_address_handle_get
                0x00036798       0x98 examples/pb_remote/server/CMakeFiles/pb_remote_server_nrf52832_xxAA_s132_6.1.1.dir/__/__/__/mesh/access/src/device_state_manager.c.obj
                0x00036798                dsm_address_handle_get
 .text.dsm_net_key_index_to_subnet_handle
                0x00036830       0x1c examples/pb_remote/server/CMakeFiles/pb_remote_server_nrf52832_xxAA_s132_6.1.1.dir/__/__/__/mesh/access/src/device_state_manager.c.obj
                0x00036830                dsm_net_key_index_to_subnet_handle
 .text.dsm_subnet_handle_get
                0x0003684c        0xc examples/pb_remote/server/CMakeFiles/pb_remote_server_nrf52832_xxAA_s132_6.1.1.dir/__/__/__/mesh/access/src/device_state_manager.c.obj
                0x0003684c                dsm_subnet_handle_get
 .text.dsm_appkey_index_to_appkey_handle
                0x00036858       0x1c examples/pb_remote/server/CMakeFiles/pb_remote_server_nrf52832_xxAA_s132_6.1.1.dir/__/__/__/mesh/access/src/device_state_manager.c.obj
                0x00036858                dsm_appkey_index_to_appkey_handle
 .text.dsm_appkey_handle_get
                0x00036874        0xc examples/pb_remote/server/CMakeFiles/pb_remote_server_nrf52832_xxAA_s132_6.1.1.dir/__/__/__/mesh/access/src/device_state_manager.c.obj
                0x00036874                dsm_appkey_handle_get
 .text.dsm_appkey_handle_to_appkey_index
                0x00036880       0x24 examples/pb_remote/server/CMakeFiles/pb_remote_server_nrf52832_xxAA_s132_6.1.1.dir/__/__/__/mesh/access/src/device_state_manager.c.obj
                0x00036880                dsm_appkey_handle_to_appkey_index
 .text.dsm_appkey_handle_to_subnet_handle
                0x000368a4       0x60 examples/pb_remote/server/CMakeFiles/pb_remote_server_nrf52832_xxAA_s132_6.1.1.dir/__/__/__/mesh/access/src/device_state_manager.c.obj
                0x000368a4                dsm_appkey_handle_to_subnet_handle
 .text.dsm_subnet_add
                0x00036904      0x11c examples/pb_remote/server/CMakeFiles/pb_remote_server_nrf52832_xxAA_s132_6.1.1.dir/__/__/__/mesh/access/src/device_state_manager.c.obj
                0x00036904                dsm_subnet_add
 .text.dsm_subnet_kr_phase_get
                0x00036a20       0x20 examples/pb_remote/server/CMakeFiles/pb_remote_server_nrf52832_xxAA_s132_6.1.1.dir/__/__/__/mesh/access/src/device_state_manager.c.obj
                0x00036a20                dsm_subnet_kr_phase_get
 .text.dsm_subnet_update
                0x00036a40       0x9c examples/pb_remote/server/CMakeFiles/pb_remote_server_nrf52832_xxAA_s132_6.1.1.dir/__/__/__/mesh/access/src/device_state_manager.c.obj
                0x00036a40                dsm_subnet_update
 .text.dsm_subnet_update_swap_keys
                0x00036adc       0x50 examples/pb_remote/server/CMakeFiles/pb_remote_server_nrf52832_xxAA_s132_6.1.1.dir/__/__/__/mesh/access/src/device_state_manager.c.obj
                0x00036adc                dsm_subnet_update_swap_keys
 .text.dsm_subnet_update_commit
                0x00036b2c       0xd0 examples/pb_remote/server/CMakeFiles/pb_remote_server_nrf52832_xxAA_s132_6.1.1.dir/__/__/__/mesh/access/src/device_state_manager.c.obj
                0x00036b2c                dsm_subnet_update_commit
 .text.mesh_evt_handler
                0x00036bfc       0x4c examples/pb_remote/server/CMakeFiles/pb_remote_server_nrf52832_xxAA_s132_6.1.1.dir/__/__/__/mesh/access/src/device_state_manager.c.obj
 .text.dsm_subnet_get_all
                0x00036c48       0x3c examples/pb_remote/server/CMakeFiles/pb_remote_server_nrf52832_xxAA_s132_6.1.1.dir/__/__/__/mesh/access/src/device_state_manager.c.obj
                0x00036c48                dsm_subnet_get_all
 .text.dsm_devkey_add
                0x00036c84      0x11c examples/pb_remote/server/CMakeFiles/pb_remote_server_nrf52832_xxAA_s132_6.1.1.dir/__/__/__/mesh/access/src/device_state_manager.c.obj
                0x00036c84                dsm_devkey_add
 .text.dsm_appkey_add
                0x00036da0      0x120 examples/pb_remote/server/CMakeFiles/pb_remote_server_nrf52832_xxAA_s132_6.1.1.dir/__/__/__/mesh/access/src/device_state_manager.c.obj
                0x00036da0                dsm_appkey_add
 .text.dsm_appkey_update
                0x00036ec0       0x8c examples/pb_remote/server/CMakeFiles/pb_remote_server_nrf52832_xxAA_s132_6.1.1.dir/__/__/__/mesh/access/src/device_state_manager.c.obj
                0x00036ec0                dsm_appkey_update
 .text.dsm_appkey_delete
                0x00036f4c       0x28 examples/pb_remote/server/CMakeFiles/pb_remote_server_nrf52832_xxAA_s132_6.1.1.dir/__/__/__/mesh/access/src/device_state_manager.c.obj
                0x00036f4c                dsm_appkey_delete
 .text.dsm_subnet_delete
                0x00036f74       0x78 examples/pb_remote/server/CMakeFiles/pb_remote_server_nrf52832_xxAA_s132_6.1.1.dir/__/__/__/mesh/access/src/device_state_manager.c.obj
                0x00036f74                dsm_subnet_delete
 .text.dsm_appkey_get_all
                0x00036fec       0x50 examples/pb_remote/server/CMakeFiles/pb_remote_server_nrf52832_xxAA_s132_6.1.1.dir/__/__/__/mesh/access/src/device_state_manager.c.obj
                0x00036fec                dsm_appkey_get_all
 .text.dsm_tx_secmat_get
                0x0003703c       0x98 examples/pb_remote/server/CMakeFiles/pb_remote_server_nrf52832_xxAA_s132_6.1.1.dir/__/__/__/mesh/access/src/device_state_manager.c.obj
                0x0003703c                dsm_tx_secmat_get
 .text.dsm_net_secmat_from_keyindex_get
                0x000370d4       0x2c examples/pb_remote/server/CMakeFiles/pb_remote_server_nrf52832_xxAA_s132_6.1.1.dir/__/__/__/mesh/access/src/device_state_manager.c.obj
                0x000370d4                dsm_net_secmat_from_keyindex_get
 .text.nrf_mesh_net_secmat_next_get
                0x00037100       0x90 examples/pb_remote/server/CMakeFiles/pb_remote_server_nrf52832_xxAA_s132_6.1.1.dir/__/__/__/mesh/access/src/device_state_manager.c.obj
                0x00037100                nrf_mesh_net_secmat_next_get
 .text.nrf_mesh_app_secmat_next_get
                0x00037190       0x68 examples/pb_remote/server/CMakeFiles/pb_remote_server_nrf52832_xxAA_s132_6.1.1.dir/__/__/__/mesh/access/src/device_state_manager.c.obj
                0x00037190                nrf_mesh_app_secmat_next_get
 .text.nrf_mesh_devkey_secmat_get
                0x000371f8       0x28 examples/pb_remote/server/CMakeFiles/pb_remote_server_nrf52832_xxAA_s132_6.1.1.dir/__/__/__/mesh/access/src/device_state_manager.c.obj
                0x000371f8                nrf_mesh_devkey_secmat_get
 .text.nrf_mesh_beacon_info_next_get
                0x00037220       0xa0 examples/pb_remote/server/CMakeFiles/pb_remote_server_nrf52832_xxAA_s132_6.1.1.dir/__/__/__/mesh/access/src/device_state_manager.c.obj
                0x00037220                nrf_mesh_beacon_info_next_get
 .text.nrf_mesh_rx_address_get
                0x000372c0      0x12c examples/pb_remote/server/CMakeFiles/pb_remote_server_nrf52832_xxAA_s132_6.1.1.dir/__/__/__/mesh/access/src/device_state_manager.c.obj
                0x000372c0                nrf_mesh_rx_address_get
 .text.nrf_mesh_unicast_address_get
                0x000373ec       0x20 examples/pb_remote/server/CMakeFiles/pb_remote_server_nrf52832_xxAA_s132_6.1.1.dir/__/__/__/mesh/access/src/device_state_manager.c.obj
                0x000373ec                nrf_mesh_unicast_address_get
 .text.nrf_mesh_is_address_rx
                0x0003740c       0x48 examples/pb_remote/server/CMakeFiles/pb_remote_server_nrf52832_xxAA_s132_6.1.1.dir/__/__/__/mesh/access/src/device_state_manager.c.obj
                0x0003740c                nrf_mesh_is_address_rx
 .text.user_op_alloc
                0x00037454       0x2c examples/pb_remote/server/CMakeFiles/pb_remote_server_nrf52832_xxAA_s132_6.1.1.dir/__/__/__/external/app_timer/app_timer_mesh.c.obj
 .text.timer_stop_op_schedule
                0x00037480       0x50 examples/pb_remote/server/CMakeFiles/pb_remote_server_nrf52832_xxAA_s132_6.1.1.dir/__/__/__/external/app_timer/app_timer_mesh.c.obj
 .text.nrfx_coredep_delay_us.constprop.3
                0x000374d0       0x10 examples/pb_remote/server/CMakeFiles/pb_remote_server_nrf52832_xxAA_s132_6.1.1.dir/__/__/__/external/app_timer/app_timer_mesh.c.obj
 .text.RTC1_IRQHandler
                0x000374e0       0xd0 examples/pb_remote/server/CMakeFiles/pb_remote_server_nrf52832_xxAA_s132_6.1.1.dir/__/__/__/external/app_timer/app_timer_mesh.c.obj
                0x000374e0                RTC1_IRQHandler
 .text.SWI0_EGU0_IRQHandler
                0x000375b0      0x294 examples/pb_remote/server/CMakeFiles/pb_remote_server_nrf52832_xxAA_s132_6.1.1.dir/__/__/__/external/app_timer/app_timer_mesh.c.obj
                0x000375b0                SWI0_EGU0_IRQHandler
 .text.app_timer_init
                0x00037844       0xb4 examples/pb_remote/server/CMakeFiles/pb_remote_server_nrf52832_xxAA_s132_6.1.1.dir/__/__/__/external/app_timer/app_timer_mesh.c.obj
                0x00037844                app_timer_init
 .text.app_timer_create
                0x000378f8       0x24 examples/pb_remote/server/CMakeFiles/pb_remote_server_nrf52832_xxAA_s132_6.1.1.dir/__/__/__/external/app_timer/app_timer_mesh.c.obj
                0x000378f8                app_timer_create
 .text.app_timer_start
                0x0003791c       0x88 examples/pb_remote/server/CMakeFiles/pb_remote_server_nrf52832_xxAA_s132_6.1.1.dir/__/__/__/external/app_timer/app_timer_mesh.c.obj
                0x0003791c                app_timer_start
 .text.app_timer_stop
                0x000379a4       0x20 examples/pb_remote/server/CMakeFiles/pb_remote_server_nrf52832_xxAA_s132_6.1.1.dir/__/__/__/external/app_timer/app_timer_mesh.c.obj
                0x000379a4                app_timer_stop
 .text.is_app_timer_init
                0x000379c4        0xc examples/pb_remote/server/CMakeFiles/pb_remote_server_nrf52832_xxAA_s132_6.1.1.dir/__/__/__/external/app_timer/app_timer_mesh.c.obj
                0x000379c4                is_app_timer_init
 .text.config_composition_data_get
                0x000379d0      0x168 examples/pb_remote/server/CMakeFiles/pb_remote_server_nrf52832_xxAA_s132_6.1.1.dir/__/__/__/models/foundation/config/src/composition_data.c.obj
                0x000379d0                config_composition_data_get
 .text.app_evt_send
                0x00037b38       0x10 examples/pb_remote/server/CMakeFiles/pb_remote_server_nrf52832_xxAA_s132_6.1.1.dir/__/__/__/models/foundation/config/src/config_server.c.obj
 .text.get_element_index
                0x00037b48       0x1c examples/pb_remote/server/CMakeFiles/pb_remote_server_nrf52832_xxAA_s132_6.1.1.dir/__/__/__/models/foundation/config/src/config_server.c.obj
 .text.config_server_heartbeat_publication_params_get
                0x00037b64       0x30 examples/pb_remote/server/CMakeFiles/pb_remote_server_nrf52832_xxAA_s132_6.1.1.dir/__/__/__/models/foundation/config/src/config_server.c.obj
 .text.send_reply
                0x00037b94       0x34 examples/pb_remote/server/CMakeFiles/pb_remote_server_nrf52832_xxAA_s132_6.1.1.dir/__/__/__/models/foundation/config/src/config_server.c.obj
 .text.send_network_transmit_status
                0x00037bc8       0x5a examples/pb_remote/server/CMakeFiles/pb_remote_server_nrf52832_xxAA_s132_6.1.1.dir/__/__/__/models/foundation/config/src/config_server.c.obj
 .text.handle_config_network_transmit_set
                0x00037c22       0x74 examples/pb_remote/server/CMakeFiles/pb_remote_server_nrf52832_xxAA_s132_6.1.1.dir/__/__/__/models/foundation/config/src/config_server.c.obj
 .text.handle_config_network_transmit_get
                0x00037c96        0xa examples/pb_remote/server/CMakeFiles/pb_remote_server_nrf52832_xxAA_s132_6.1.1.dir/__/__/__/models/foundation/config/src/config_server.c.obj
 .text.handle_node_reset
                0x00037ca0       0x34 examples/pb_remote/server/CMakeFiles/pb_remote_server_nrf52832_xxAA_s132_6.1.1.dir/__/__/__/models/foundation/config/src/config_server.c.obj
 .text.handle_node_identity_set
                0x00037cd4       0x44 examples/pb_remote/server/CMakeFiles/pb_remote_server_nrf52832_xxAA_s132_6.1.1.dir/__/__/__/models/foundation/config/src/config_server.c.obj
 .text.send_netkey_status
                0x00037d18       0x2c examples/pb_remote/server/CMakeFiles/pb_remote_server_nrf52832_xxAA_s132_6.1.1.dir/__/__/__/models/foundation/config/src/config_server.c.obj
 .text.send_relay_status
                0x00037d44       0x7e examples/pb_remote/server/CMakeFiles/pb_remote_server_nrf52832_xxAA_s132_6.1.1.dir/__/__/__/models/foundation/config/src/config_server.c.obj
 .text.handle_config_relay_set
                0x00037dc2       0x9a examples/pb_remote/server/CMakeFiles/pb_remote_server_nrf52832_xxAA_s132_6.1.1.dir/__/__/__/models/foundation/config/src/config_server.c.obj
 .text.handle_config_relay_get
                0x00037e5c        0xa examples/pb_remote/server/CMakeFiles/pb_remote_server_nrf52832_xxAA_s132_6.1.1.dir/__/__/__/models/foundation/config/src/config_server.c.obj
 .text.send_subscription_status
                0x00037e66       0x42 examples/pb_remote/server/CMakeFiles/pb_remote_server_nrf52832_xxAA_s132_6.1.1.dir/__/__/__/models/foundation/config/src/config_server.c.obj
 .text.send_appkey_status
                0x00037ea8       0x3a examples/pb_remote/server/CMakeFiles/pb_remote_server_nrf52832_xxAA_s132_6.1.1.dir/__/__/__/models/foundation/config/src/config_server.c.obj
 .text.handle_netkey_delete
                0x00037ee2       0xbc examples/pb_remote/server/CMakeFiles/pb_remote_server_nrf52832_xxAA_s132_6.1.1.dir/__/__/__/models/foundation/config/src/config_server.c.obj
 *fill*         0x00037f9e        0x2 
 .text.handle_netkey_add_update
                0x00037fa0       0x78 examples/pb_remote/server/CMakeFiles/pb_remote_server_nrf52832_xxAA_s132_6.1.1.dir/__/__/__/models/foundation/config/src/config_server.c.obj
 .text.status_error_sub_send
                0x00038018      0x124 examples/pb_remote/server/CMakeFiles/pb_remote_server_nrf52832_xxAA_s132_6.1.1.dir/__/__/__/models/foundation/config/src/config_server.c.obj
 .text.delete_all_subscriptions
                0x0003813c       0x66 examples/pb_remote/server/CMakeFiles/pb_remote_server_nrf52832_xxAA_s132_6.1.1.dir/__/__/__/models/foundation/config/src/config_server.c.obj
 .text.send_publication_status
                0x000381a2      0x188 examples/pb_remote/server/CMakeFiles/pb_remote_server_nrf52832_xxAA_s132_6.1.1.dir/__/__/__/models/foundation/config/src/config_server.c.obj
 .text.handle_config_key_refresh_phase_set
                0x0003832a       0xc8 examples/pb_remote/server/CMakeFiles/pb_remote_server_nrf52832_xxAA_s132_6.1.1.dir/__/__/__/models/foundation/config/src/config_server.c.obj
 .text.handle_config_default_ttl_set
                0x000383f2       0x50 examples/pb_remote/server/CMakeFiles/pb_remote_server_nrf52832_xxAA_s132_6.1.1.dir/__/__/__/models/foundation/config/src/config_server.c.obj
 .text.send_net_beacon_state
                0x00038442       0x2c examples/pb_remote/server/CMakeFiles/pb_remote_server_nrf52832_xxAA_s132_6.1.1.dir/__/__/__/models/foundation/config/src/config_server.c.obj
 .text.handle_config_beacon_get
                0x0003846e        0xa examples/pb_remote/server/CMakeFiles/pb_remote_server_nrf52832_xxAA_s132_6.1.1.dir/__/__/__/models/foundation/config/src/config_server.c.obj
 .text.handle_heartbeat_publication_set
                0x00038478       0xea examples/pb_remote/server/CMakeFiles/pb_remote_server_nrf52832_xxAA_s132_6.1.1.dir/__/__/__/models/foundation/config/src/config_server.c.obj
 *fill*         0x00038562        0x2 
 .text.mesh_event_cb
                0x00038564       0x70 examples/pb_remote/server/CMakeFiles/pb_remote_server_nrf52832_xxAA_s132_6.1.1.dir/__/__/__/models/foundation/config/src/config_server.c.obj
 .text.handle_node_identity_get
                0x000385d4       0x3c examples/pb_remote/server/CMakeFiles/pb_remote_server_nrf52832_xxAA_s132_6.1.1.dir/__/__/__/models/foundation/config/src/config_server.c.obj
 .text.handle_config_gatt_proxy_set.part.6
                0x00038610       0x2a examples/pb_remote/server/CMakeFiles/pb_remote_server_nrf52832_xxAA_s132_6.1.1.dir/__/__/__/models/foundation/config/src/config_server.c.obj
 .text.handle_config_gatt_proxy_set
