:0200000270008C
:1080000000FD002005CB07002DCB070041AC070089
:1080100031CB070033CB070035CB07000000000051
:1080200000000000000000000000000037CB070047
:1080300039CB0700000000003BCB07003DCB070019
:108040003FCB070041B4070009C507003FCB07003D
:108050003FCB07003FCB07003FCB07003FCB0700DC
:108060003FCB07003FCB07003FCB07001191070034
:108070003FCB07003FCB07003FCB07003FCB0700BC
:108080003FCB07003FCB07003FCB07003FCB0700AC
:10809000E9B40700B5C30700178307001D83070075
:1080A0003FCB07003FCB07003FCB07003FCB07008C
:1080B0003FCB07003FCB070000000000000000009E
:1080C0003FCB07003FCB07003FCB07003FCB07006C
:1080D0003FCB07003FCB07003FCB0700000000006D
:1080E0000000000000000000000000000000000090
:1080F0000000000000000000000000000000000080
:10810000000000000000000000000000000000006F
:10811000000000000000000000000000000000005F
:10812000000000000000000000000000000000004F
:10813000000000000000000000000000000000003F
:10814000000000000000000000000000000000002F
:10815000000000000000000000000000000000001F
:10816000000000000000000000000000000000000F
:1081700000000000000000000000000000000000FF
:1081800000000000000000000000000000000000EF
:1081900000000000000000000000000000000000DF
:1081A00000000000000000000000000000000000CF
:1081B00000000000000000000000000000000000BF
:1081C00000000000000000000000000000000000AF
:1081D000000000000000000000000000000000009F
:1081E000000000000000000000000000000000008F
:1081F000000000000000000000000000000000007F
:1082000010B5054C237833B9044B13B10448AFF3D0
:1082100000800123237010BD7C00002000000000BE
:10822000BCD0070008B5034B1BB103490348AFF3AB
:10823000008008BD0000000080000020BCD00700C6
:10824000154B002B08BF134B9D46A3F5803A002128
:108250008B460F461348144A121A04F043FE0F4B84
:10826000002B00D098470E4B002B00D098470020E1
:10827000002104000D000D48002802D00C48AFF387
:10828000008004F0F1FD2000290002F0DDFC04F084
:10829000D7FD00BF0000080000FD00200000000026
:1082A000000000007C000020D00900200000000039
:1082B0000000000013DF704718DF7047084A0023F2
:1082C000C2F84431D2F80435184420F07F404FF40E
:1082D0000033C2F84405C2F80433024B19707047EA
:1082E00000B00040310100207FB502F087FD78B179
:1082F00082884FF6EF739A420AD902238DF8003034
:10830000031D019303786846033B029300F0CAFA09
:1083100007B05DF804FB04F0D9B90000F0B5324EA7
:108320008BB0002561276946304602F025FC0446E3
:10833000A8B12DB10AA8622300F8183D00F0B2FAE6
:10834000294802F074FC40B1284B1B782BB1122055
:1083500000F07AFD006800F017FF0BB0F0BD9DF84B
:108360000020019B012A05F101052BD1990701D0BD
:1083700002F063FC039B9A0702D0002002F05DFC30
:10838000029B9B0702D0002002F057FC0198B0F13D
:10839000005F0AD20023DDE9021202F083FD08E04B
:1083A000135D025D134003550134DDE90223A3424E
:1083B000F6D860238DF81030029B059304A800F0D6
:1083C00071FAB0E7B3F1005F029A07D3FF211846B4
:1083D00004F088FD8DF81070019BEEE711461846F9
:1083E00002F030FDF6E700BF9800002030010020C9
:1083F00010B5214C88B000F0AFFE002118222046B5
:1084000004F070FD1D4B2360102208232046C4E9B0
:10841000012302F07BFB1A4B602283F817234FF4F1
:1084200000021A6000F0E2FA01228DF80C20154AD1
:108430000492002340F6010202A88DF80830ADF83E
:1084400014208DF8163000F02DFA08B102F0F5FB7B
:1084500004F010F90C490D4802F0F6FF0DF1070089
:1084600001F012F89DF8073023B14FF0804300224D
:10847000C3F81C2508B010BD98000020B0000020F3
:1084800000E100E0F5850700D6BE898EE98207008D
:1084900070B58AB004F0FAF80AA8012300F8183D74
:1084A00000F000FA03F016F801F0B8FE30B1032135
:1084B0004FF4A020FFF702FF0AB070BD042000F0C7
:1084C000C3FC0546122000F0BFFC0646102000F059
:1084D000BBFC0446022000F0FDFF0028ECD04FF06A
:1084E000FF3300932B785A0706D533681B68013396
:1084F00004BF6FF0040300932B78DB0709D52368D2
:108500001B68013305D163681BB1009B23F0010395
:108510000093009B013303D06946042000F099FCCE
:1085200001F056FE05460028C6D000F0D3FF05280E
:10853000C2D1022000F088FC044608B902F07DFB9D
:10854000012D05D0042D0DD00B2002F076FB02E0AA
:108550002388ADF804304FF0FF3201A9284601F01E
:1085600081FCA9E7201D07C801AB03C31A80F2E70D
:1085700000F098B97FB50446122000F065FC0A2C83
:1085800005460AD8012606FA04F340F24340184093
:1085900005D1DB0501D502F050FB72B6FEE705B34D
:1085A00001F03CFEE8B1114802F041FBD8B102F005
:1085B0009BFA02F061FD002304A8CDE90133039387
:1085C000022340F8103DFFF777FE08B102F035FBBB
:1085D0002868FFF76FFE08B102F02FFB286800F053
:1085E000D3FD04B070BD024B1E70FAE79800002066
:1085F0003001002030B50378252B89B0044600F007
:10860000078113D8212B00F0988006D8022B00F0A8
:10861000CB80202B40D0062077E0232B00F0F48085
:1086200040F2CF8001214FF4702032E0602B3AD02D
:1086300022D8502B00F0FA80512BECD143689907D7
:1086400040F0F08083689A0740F0EC80C3689B0795
:1086500040F0EA8008AD012305F8203D211D0C22E1
:1086600001A804F034FC2946754802F05EFA00289F
:1086700000F0DF80042048E0622B48D04BD3702B01
:10868000C9D181686F4AC8030023490C04F058FA25
:108690000221FFF713FE04E00079FFF76BFF01F002
:1086A0006DFB002031E008A8002340F8203D02F0D7
:1086B0001DFB0028DED0009802F08CFB009B1A788E
:1086C000022161F303021A70A368009A0A335370FF
:1086D000009816238372E423C372FE230373A368F6
:1086E00003334372D4E901120D3004F0F0FB237B15
:1086F000627BA17B009802F01DFF0446009802F007
:1087000035FB002C14BF0020032009B030BD0079D8
:1087100002F048FFC5E77823D0E901120DF102000D
:108720008DF8013004F0D3FBA368684601338DF85F
:10873000003003F0C5FE0028E4E7434B4FF400325D
:10874000C3F80823414B00221A700379022B07D18A
:1087500008A8232300F8203DFFF70AFF0123237117
:108760002379012B9DD1A51D6179284602F0B3F82C
:10877000002896D0022000F067FB08B902F05DFAED
:108780003348202303704FF0FF3303616379037193
:108790002B68C0F805306B68C0F809302B89A0F849
:1087A0000D3000F07FF8B0E70579022D7FF479AF46
:1087B00001F034FD00287FF474AF284600F08AFEF3
:1087C0006FE70379022B7FF46CAF1F4B4FF400323D
:1087D000C3F808231D4B00251D7021238DF80030A0
:1087E000034653F8072FCDF805205A681B89ADF8CA
:1087F0000D3083798DF804304369CDF8092068463F
:108800000493FFF7B5FE4CE701214FF4202040E729
:108810004379042B02D0012B7FF443AF0020FFF7F4
:10882000A9FE3EE7102070E709206EE708AD02239D
:1088300012E7084B4FF40002C3F8002165E700BFC0
:108840009800002040420F0000B00040310100209D
:108850003401002000E100E010B5114C2278022A1A
:1088600086B007D0032A11D0012A14D123238DF812
:10887000003005E003238DF8003000238DF804302C
:10888000002368462370FFF773FE02E00020FFF725
:1088900071FE06B010BD082002F0CFF9F0E700BF6E
:1088A0003101002030B50378222B8BB0044615D05F
:1088B00016D8032B59D009D8012B52D034D90189AD
:1088C0004068012201F00EFB054647E0202B5DD0F9
:1088D00062D8042B4CD0062002F0AFF906253DE00B
:1088E000312B66D00CD8242B5FD05BD3302BF2D148
:1088F000808800F0A9FAA060002834D105252DE079
:10890000602B60D005D8322BE5D1808800F0B6FA14
:1089100029E0612B5FD0622BDDD100F0D9FB00F0A4
:10892000FDFD01F0A7FD1EE02E4B82681A60837BDF
:108930002D4A83F001031370037B002B4ED0437B41
:10894000012B4BD94FF4FC214FF4FE2000F018FA14
:108950000546002844D1607B01F0EEF928460BB0B3
:1089600030BD01F00BFA0025F8E701F017FDFAE73A
:108970000AAD0023011D102202A805F8243D04F0D1
:10898000A6FA184B28461B6898479DE70269411DC7
:10899000007901F067FA97E70269411D007901F05B
:1089A0007BFA91E701F064FDDDE7007900F092FDCC
:1089B0008AE7D0E90212808800F086FAB0F5FE2F2F
:1089C000D1D21025CAE7406801F01EFF616801207E
:1089D00000F0F2FAC7E741680220F9E70725BDE792
:1089E0000325BBE708FD00200CFD00204FF080535D
:1089F000064AD3F80C3103F500239B02002043F80C
:108A0000042C034B01221A70704700BFA588070091
:108A10000CFD0020024B1B6803B11847082070476B
:108A200008FD002000B58BB020238DF8080001A8B8
:108A30008DF80430FFF7EEFF0BB05DF804FB70B566
:108A40008AB006460D4614460021242201A804F0EF
:108A500049FA512301A88DF80430CDE90265049448
:108A6000FFF7D8FF0AB070BD30B58BB005460C4695
:108A70002422002101A804F035FA502301A88DF822
:108A80000430CDE90254FFF7C5FF0BB030BD00B58F
:108A90008BB062238DF8080001A88DF80430FFF731
:108AA000B9FF0BB05DF804FB024B187880F00100B1
:108AB000704700BF0CFD002030B50278FF2A19D0A6
:108AC000024440F6010300F5805047F6FF745588D4
:108AD0008D4201D1101D30BD158802EB85029042F8
:108AE00008D35588A54201D1A14203D1013BEED163
:108AF0001846F0E70020EEE748B1B0F5002F05D0AA
:108B0000034B1B685B78A0EB830070470020704725
:108B100034FD002008B547F6FF71FFF7CDFF18B10F
:108B2000BDE80840FFF7E8BF08BD0000830710B5A7
:108B3000044602D0102002F080F8204604220249A8
:108B4000BDE81040FFF77BBF10CF070010B5064C03
:108B500002230422D4E901012370FFF770FF08B15A
:108B60000123237610BD00BF10FD0020F8B51B4F78
:108B70004FF6FF763C46D7E9023203F580539A421E
:108B800004D30123237604232370F8BD5388B34212
:108B9000F7D0E3B1158847F6FF729342236914BFFB
:108BA000AD0004255A19636803F580539A4202D92F
:108BB000032002F042F82A46D4E90310FFF73FFFF2
:108BC0000028E2D1E368636123691D442561E368FD
:108BD0001A8803EB8203E360CDE700BF10FD00209D
:108BE00010B50A4C22787AB901232370084B1B7800
:108BF000C4E9010123B94FF48051FFF735FF10B1EB
:108C000001232376002010BD0820FCE710FD002082
:108C10002DFD0020038800EB83000B4B03F1800245
:108C2000904208BF1846094B1860094B1B689842D0
:108C300008D0A3EB0003C3F38F0388BF2033038066
:108C400000234380704700BF38FD0020B8FD00209E
:108C5000BCFD002038B50B4B1B78012B04460D469C
:108C600002D0002001F0E9FF29462046FFF724FF4B
:108C7000FFF742FF18B1BDE83840FFF757BF0520A6
:108C800038BD00BF2CFD00202DE9F84F9DF828705D
:108C90000333BE00914623F00305321D80468B4608
:108CA0002A44EFF3108A72B6DFF8D0E0DEF8004015
:108CB00020888000824204D8B4F802C0BCF1000FC2
:108CC00005D0BAF1000F00D162B6042032E0294B82
:108CD00019688C4228492FD1CEF8001019609208EB
:108CE0000A80A1F802C00846FFF794FFBAF1000F0E
:108CF0003ED162B60C4647B167190822FF213846BB
:108D000004F0F0F847F6FF73FB80EF1DBB082A461E
:108D100049462380A4F802B0201D04F0D8F827F0BB
:108D20000302324421464046FFF789FE08B101F0B4
:108D300084FF0020BDE8F88F01F180031B1B9A42DD
:108D40000AD9C01A8242BCD847F6FF709B086080DF
:108D50002380CEF80010C2E792082280A4F802C057
:108D60002046FFF757FFBAF1000FC4D162B6C2E741
:108D7000014CC0E7BCFD002038FD0020B8FD0020FC
:108D80002DE9F041274F40EA01050023C5F30B050B
:108D90003B70002D41D1DFF8A880234C234E20608A
:108DA000802231604046294604F09CF8204B206820
:108DB000C3F800801F4BC3F800802023A8F80030C0
:108DC000FFF7A8FEDFF87C802946C8F800001C22C7
:108DD000194804F087F8194B1D70D8F80030354653
:108DE000B3B93068FFF796FE0646C0B14FF4805124
:108DF0002068FFF739FE08B101F01FFF29682068DD
:108E0000C1F104023244FFF71AFE08B101F015FF68
:108E100001233B700020BDE8F0811020FBE70B2010
:108E2000F9E700BF2CFD002034FD002030FD0020BC
:108E3000B8FD0020BCFD002010FD00202DFD00200D
:108E400038FD0020C0FD002001464FF4FE20FFF752
:108E500033BE37B50D460446FFF7F6FFFFF74CFE6D
:108E600050B1038800229B000092043B2A46214611
:108E7000FFF70AFF03B030BD0520FBE701464FF4C2
:108E8000FE20FFF7E7BE000010B50B4C2378012B46
:108E900002D0002001F0D1FE04232370074B196893
:108EA000074B0A1D1A60074B1868FFF799FE08B9AF
:108EB0000323237010BD00BF2CFD002034FD0020D3
:108EC000C0FD002030FD00202DE9F3472E4B1B781C
:108ED000012B81468A46164602D0002001F0ADFEE5
:108EE000542E02D9002001F0A8FE284D2B689B07C4
:108EF00002D0002001F0A1FE2B68B3F5FE2F02D8AE
:108F0000002001F09AFE4846FFF79EFFFFF7F4FDB0
:108F10002C68804634B90E2001F08FFE002002B08C
:108F2000BDE8F0871A4F3B6804F10802324403F5AC
:108F300080539A4201D30820EEE7164A01231370AA
:108F400049460093524633462046FFF79DFE08B13E
:108F50000420E1E72B68073626F003061E442E6046
:108F6000B8F1000F04D04046FFF7E0FD0028EFD134
:108F70002A683B68583203F580539A4201D3FFF7C1
:108F800083FF201DCBE700BF2CFD0020C0FD00208B
:108F900034FD00202DFD0020054B1B78012B05BF63
:108FA000044B1878002080F0010000F001007047A9
:108FB0002CFD00202DFD002001282DE9F041064662
:108FC0000D4632D13A4FB9422FD307F1800399426F
:108FD00098462AD2374C2368994202D0102001F0DB
:108FE0002CFEEFF3108272B6236819884FF6FF73D8
:108FF0009942314B18BF288819680B8814BF1B1879
:1090000001330B802B8805EB8303434508BF3B46A8
:109010006FF0004019682360814204D10433434556
:1090200008BF3B46236002B962B6244C2378013B5B
:10903000032B0AD8DFE803F0021A2629022E04D1F6
:1090400063689D4201D1FFF781FD237863B91C4C11
:109050002378032B21D11B4B19681B4B1868FFF792
:10906000BFFD08B905232370BDE8F081012EECD1C6
:10907000A3689D42E9D10323237063680435043358
:10908000E5602361FFF772FDDFE7012EDDD1636943
:109090009D4204BF00232370D7E7052BE4D10A4B80
:1090A0001868FFF737FD094B18600123DBE700BFA5
:1090B00038FD0020BCFD0020B8FD002010FD002080
:1090C0002CFD002030FD002034FD0020C0FD0020DC
:1090D0000C4B002119700C4B1B6859800B4B1A78F4
:1090E00072B1187E60B1012A197602D0022A05D029
:1090F00070474FF480515868FFF7B6BCFFF726BDA4
:10910000704700BF2DFD0020B8FD002010FD00209D
:1091100010B5104CD4F8403143B1D4F80433DA031D
:1091200004D50023C4F8403102F05CFAD4F844318D
:1091300073B1D4F804339B030AD50023C4F8443137
:109140004FF40033C4F80833BDE81040FFF784BB88
:1091500010BD00BF00B00040094B0022C3F8082535
:109160004FF44032C3F8442301229A601A60054B41
:10917000202283F80B234FF400621A60704700BF6F
:1091800000B0004000E100E0F0B50346186880F34D
:1091900008885868FF2464B2EFF30585002D01D1DB
:1091A000A64600472546064621273FBAF0B40024CC
:1091B000002500260027F0B4F92040B2004700BF88
:1091C000F0BD00BF18DF70472DE9F041A94D2C68B4
:1091D000C0B0002C6FD0EFF3108772B65422214636
:1091E00001A803F074FEE37CF83B072B61D8DFE8AD
:1091F00013F03701600060006000BC0060001500E3
:1092000008009D4B01221A70FE238DF817309B4BEE
:10921000187801A92030FFF71CFE4AE0974D964EC2
:10922000012333702B7840A9DB4341F8A83D04208B
:10923000FFF70FFE95F80080B8F1020F1ED0B8F1CD
:10924000040F3BD0B8F1010F40F08B80102026684E
:10925000FFF7FAFD62680168304603F029FE002836
:109260007AD001F041FC62B6CDF8AC8023682C9333
:1092700063689B082E934FF4805313E011202668F7
:10928000FFF7E2FD62680168304603F011FE002836
:1092900062D001F029FC62B600232B9323682C9343
:1092A00063689B082BA82D93FFF78CFF08B101F092
:1092B000C4FC07B962B640B0BDE8F081FFF7F4FB2B
:1092C000B8B101F011FC4FF080434FF00F12C3F81A
:1092D00000240022C3F81C25BFF34F8F6849694B57
:1092E000CA6802F4E0621343CB60BFF34F8F00BF44
:1092F000FDE71220FFF7A8FD804608B901F09DFCAC
:10930000D8F80030C3F30B0313B1002001F095FC33
:1093100050238DF8AC30D8F800302C93636803F6F6
:10932000FF7323F47F6323F00F032BA82D93FFF724
:1093300071FB10B101233370BBE751238DF8AC30C2
:1093400023682D9363682E93D8F800302C932BA8B4
:10935000FFF760FB0028EDD1FC238DF8173028784B
:1093600057E70B2001F069FCF6E70220FFF76CFDE0
:1093700006460420FFF768FD804616B9304601F026
:109380005CFC0E22314616A803F0A1FD0422B8F1C0
:10939000000F20D1FF212BA803F0A4FD374E337816
:1093A000022B1DD0042B2AD0012B3AD12389ADF8F2
:1093B00058309DF8AC3043F001038DF8AC304FF0DD
:1093C0001A080E2216A90220FFF77EFD78BB2A4B51
:1093D00001221A706DE741462BA803F078FDDDE706
:1093E000237A8DF85A30637A8DF85B309DF8AC3073
:1093F00043F002038DF8AC304FF01B08E1E7A3689F
:109400001793A389ADF86030D4F80E30CDF86230F0
:109410009DF8AC3043F004038DF8AC304FF01C08DD
:10942000CFE70B2001F009FC4FF00008C9E7A37C4F
:109430003BB1402204F114014046FFF745FD0028EE
:10944000C5D004222BA91046FFF73EFD0028BED050
:109450003078F82301A920308DF81730FFF7F9FC98
:10946000064B18782030FFF709FD0028AFD128609F
:109470001FE700BFACFE0020A9FE0020A8FE0020D0
:1094800000ED00E00400FA0570B50546032401264E
:1094900006F1200080B2FFF7D7FC60B1C37CFF2B40
:1094A00009D00A4B1E700A4B1860FFF78DFE0DB1F4
:1094B00001232B7070BD013C4FEA4606E8D1044BF6
:1094C0001C60002DF6D02C70F4E700BFA8FE002031
:1094D000ACFE0020431E012B70B5054601D90428BF
:1094E00012D10C4E34688CB905F12000FFF7ACFCAA
:1094F00070B103681B6801330AD0074B30601D70E0
:10950000FFF762FE204670BD0720FCE70820FAE75F
:109510000520F8E7ACFE0020A8FE0020054B1B68E4
:1095200033B1054B1A781AB100221A70FFF74CBEFE
:10953000704700BFACFE0020A9FE0020024B186857
:10954000003018BF01207047ACFE00208268531C19
:10955000C36808BF00229B0002F00F02013B1344C6
:10956000028A1B0901330AB103EB12134FF6FF7095
:10957000984228BF1846704710B50420FFF764FCD6
:10958000154C20610220FFF75FFC20601220FFF7DE
:109590005BFCE0601120FFF757FCA0601020FFF794
:1095A00053FC60600120FFF74FFC0C4B22696061A7
:1095B0009A420BD922689A4208D9E2689A4205D9A0
:1095C00062689A4202D9A2689A4204D80820BDE88B
:1095D0001040FFF727BA10BDC4FD0020FFEF0700C1
:1095E00030B591B001AC054618220021204603F0A9
:1095F00079FC6B1E022B26D84FF6FD73ADF80430B4
:10960000344B9DF80720197961F3020293F8711029
:1096100061F3C302196802912F490978C81F4142BA
:10962000414161F304128DF8072053F8660F596821
:109630001B8903AA03C201211380032D48D8DFE848
:1096400005F004313A430221F7E74FF6FE73ADF817
:109650000430224B1B680DF1060203F10C0053F895
:10966000045B42F8045B8342F9D11B881380102508
:1096700060238DF81C30FF238DF8293007A80023C4
:109680008DF828108DF82A30CDE90845FFF7C2F98A
:10969000612307A88DF81C30CDE90845FFF7BAF91A
:1096A00011B030BD9DF80630042262F303038DF83B
:1096B00006301225DCE79DF80630012262F3030331
:1096C0008DF806300A25D3E79DF806300222F5E72B
:1096D0000025CDE700FE002000FD0020C4FD002095
:1096E00008B50020FFF77CFF044B054801221A70E3
:1096F00000217422BDE8084003F0F4BB00FD002007
:1097000000FE002000B58BB021238DF80430827854
:10971000094BC2F303021B788DF8092000F1080100
:109720000DF10A008DF8083001F07AF801A8FFF772
:1097300071F90BB05DF804FB00FD002030B5104C52
:10974000104D23782D789D428BB000D90BB90123A1
:10975000237060238DF804300023CDE902018DF8D9
:10976000103001A823788DF811208DF81230FFF702
:1097700051F910B92378013323700BB030BD00BF0D
:1097800001FD002074FE002038B502884FF6FC73FE
:109790009A4204460ED14388002B14BF03220622AE
:1097A0002046FFF7CBFF054610B9204601F068F9C7
:1097B000284638BD0322F3E738B505461148002492
:1097C0004FF6FF73047184618460A0F86230A0F8E2
:1097D000644080F87040C461046045712A46663078
:1097E000013D01F01DF8EDB2074B032D4FF00202D1
:1097F0001A7096BF054B2046585DBDE83840FFF70C
:10980000EFBE00BF00FE002000FD002014CF0700C7
:109810002DE9F04FBA4C426823689A42A9B0054638
:10982000884640F07E8201F013F90746002840F098
:109830007A82B44A1378033B9146052B00F27B8170
:10984000DFE813F006007B017901790130025C0248
:109850006E88002E40F068816379022B4DD0042B76
:1098600004D0012B4CD1A84B5E6801E0A64BDE680A
:10987000AB682361A968481C284608BF3168FFF718
:1098800065FE80B2A4F86200A4F86400A160EB68F1
:109890009E489B00A3612B8AE361AB7C0021C3F34C
:1098A000C003102284F87030616184F8601003F006
:1098B00019FB01F0F9F8E3685A1C27D16379022BF0
:1098C00022D1914BDA68D2E900321A444FF01023CA
:1098D00059698A4288BF5A69A1698D4B23EA0103FD
:1098E0001344E360D4E90202904220D0A3691946F0
:1098F00001F0E8F8D8B10D2010E0834B9E68B7E77F
:10990000062001F09AF9B3E7A368EAE74FF01022C6
:10991000A16952690B449342E4D90C20FFF782F805
:10992000FFF7DEFE284601F0ABF80026B5E1A2689D
:1099300033689A42C0F0F080A1690A4471680B4410
:109940009A4200F2E9800422FF2113A889F800203E
:1099500003F0C8FA6379022B00F08780042B7FD0D4
:10996000012B40F087809DF84C306FF300038DF899
:109970004C30D4E902329A423CD02120FFF764FAFD
:109980000A902220FFF760FA0B902420FFF75CFA80
:109990004FF0FF370C9000260DF1280A4FF0010B15
:1099A0005AF82690B9F1000F14D0A369E268D9E9FA
:1099B000000101F087F840B10BFA06F0203080B2C8
:1099C000FFF75CFA08B101F038F9D9F800309F428E
:1099D00028BF1F460136032EE2D14B48E368A26937
:1099E000D0F80CC0D0E9011602EB0309994501D962
:1099F0009F4243D8D4E902239A42464E09D1424FAE
:109A00003B69002B6AD1042213A91046FFF75CFAC8
:109A1000386194F87030A269D4E9020100F07EFD4B
:109A2000002866D162238DF8080001A88DF8043063
:109A3000FEF7F0FF23238DF8283001238DF82C301A
:109A400063798DF82D303368CDF82E307368CDF8FA
:109A500032303389ADF836300AA8FEF7DBFF4CE030
:109A60009DF84C306FF3820381E79DF84C306FF323
:109A700041037CE7072001F0E0F87AE7186801303D
:109A800003F1040E28D00868984209D24A681044AD
:109A9000984282BF9DF84C006FF300008DF84C0097
:109AA0003068984209D272681044984282BF9DF88B
:109AB0004C006FF341008DF84C00DCF80000984238
:109AC0000AD2DCF804201044984282BF9DF84C3042
:109AD0006FF382038DF84C30734687E713A9042097
:109AE000FFF7B7F9002894D031466079FFF764FE9C
:109AF0008FE708496079FFF75FFE012712E700BF93
:109B000000FE002000FD0020C4FD0020EEFD00202E
:109B100000F0FFFF66FE0020686800F05DFF8349EB
:109B20006079FFF749FEFDE6206800F055FF7F49A8
:109B30006079FFF741FE0826B0E06B88002B00F04B
:109B40009980B4F864209A42C0F09480784A1188D1
:109B50009942924609D10023138013A862228DF8FE
:109B60004C208DF85030FEF755FFE369B4F86420BF
:109B700068881B09D11A88420CD8A16800F0A1FEA0
:109B8000A8F1080292B205F1080100F001FDD8B178
:109B9000002670E05E1EB61A0644B342F8D994F867
:109BA00060303341DB07F3D404EB0610A8F1080260
:109BB00005F10801203003F08AF90120B04094F843
:109BC0006060064384F86060B4F864306A88ADF879
:109BD0005230242113A88DF84C10ADF85020FEF718
:109BE00019FFB4F86230013BA4F86230BAF80030D3
:109BF000002B3DD128AA6E88606942F89C3D6946D9
:109C0000009300F0B3FD98B3A06820F00F03009814
:109C1000C01A60EB0001030943EA01730133721EAD
:109C2000934203D3B4F86420B24221D1ADF82A3074
:109C300023680B9360238DF84C300AAB14930823F0
:109C4000159302238DF85830FF234FF6FB728DF8E1
:109C5000593013A80023ADF828208DF85A30FEF7AC
:109C6000D9FE28B9009B6361BDF82A30AAF80030FC
:109C700001278DE70B26B4F862305BB970228DF8AE
:109C80004C202C4A13A8CDE91432FEF7C3FE05235D
:109C900089F80030002E3FF445AE57BB304629B05E
:109CA000BDE8F08F6B8823B92846FFF74FFCA4F876
:109CB00064000823002089F80030FEF7E8FE232323
:109CC0008DF84C3002238DF85030184B1A68CDF8BF
:109CD00052205A681B89ADF85A3013A86379CDF821
:109CE00056208DF85130FEF795FE064600283FF4C9
:109CF00004AF41462846FFF747FDCFE76B8823B9FD
:109D00002846FFF723FCA4F864006A88B4F864309E
:109D1000ADF8502024218DF84C10ADF8523013A826
:109D20009BE60B26BAE70026B8E700BF66FE0020D8
:109D3000ECFD002080C3C90138B500240A4B05465C
:109D40002146742209481C7003F0CCF821461022E9
:109D5000074803F0C7F8074B1C70074B1D70BDE8A0
:109D60003840FFF709BC00BF00FD002000FE0020C6
:109D7000EEFD0020FEFD002074FE00202DE9F043E2
:109D8000742291B00021314803F0ACF81022002178
:109D90002F4803F0A7F82F4B00241C702E4B1C807B
:109DA000FFF7EAFB2223ADF808302123ADF80A3093
:109DB0002423ADF80C3001238DF8053004238DF8F1
:109DC0000630264B1B6802229918CDE90413043390
:109DD0008DF8042006930DF1080817460DF10409CB
:109DE00038F81400FFF730F80546E8B114F80960B8
:109DF0008DF81C7000F1080132460DF122008DF83B
:109E0000206000F00DFD04AB0BA853F8241032467F
:109E100000F006FD2B680E936B680F93AB7C8DF8FA
:109E2000213007A8FEF7F6FD0134032CD8D100F04D
:109E30003BFEFFF783FB20B9FFF752FC11B0BDE8F2
:109E4000F083074B00221A70F8E700BF00FE0020E5
:109E5000EEFD0020FEFD0020ECFD0020C4FD0020F2
:109E600000FD002008B50A4B1B78012B0CD14FF0E8
:109E700010235B699A4201D3531C07D1054BDA606A
:109E8000FFF79AFC002008BD0820FCE71020FAE745
:109E900000FD002000FE002038B505460E4803787E
:109EA000013B012B15D80D4C07230370204665712B
:109EB00040F8662B2A4600F0B3FC6379013BDBB225
:109EC000032B96BF064A0020D05CFFF789FB0020D9
:109ED00038BD0820FCE700BF00FD002000FE002088
:109EE00014CF0700F0B50388A3F57F43FA3B8BB08E
:109EF00004460D46042B2BD8DFE813F03C01E100AB
:109F000057014F000500AC4D2F78012F40F05281D2
:109F10000379407943EA002000F039FD98B121230C
:109F20008DF8043002238DF8093023798DF80A303A
:109F300063798DF80B302B788DF8083001A8FEF787
:109F400069FD0BB0F0BDA61D304600F008FD08B954
:109F50000B20F6E762882B7891B24FF6FE708142B3
:109F60000CD0964800680088884207D021218DF8DF
:109F700004108DF80970ADF80A20DDE721228DF874
:109F8000042004228DF809200A2231460DEB02003C
:109F90008DF8083002F09BFFD0E7874F3B78013BFC
:109FA000062B00F20781DFE813F05E0007000700D0
:109FB0000501050105016900814E717906F166020E
:109FC00000F028FD354606F16601002842D0E3780E
:109FD000327903F00703934206DC01D00020B0E79A
:109FE000626833689A42F9D9A378C3F303036B71AB
:109FF000D8B2234653F8082FC5F866205A684A603D
:10A000001B890B8122884FF6FD739A4207D1E378B2
:10A010005A0704D0A37803F00F03834202D007202D
:10A0200000F00BFE63682B60E378C3F302032B712F
:10A03000E378C3F3C00385F8713003233B706B7979
:10A04000013BDBB2032B96BF5E4A0020D05CFFF7DA
:10A05000C7FAC3E7A278737902F00F029A4206D0DA
:10A06000E3785B07BAD02046FFF74CFB69E704F1C1
:10A07000080000F0FAFB0028F2D0AFE7504D8278DC
:10A080006B7902F00F029A42A8D100F1080105F1A4
:10A09000660000F0D4FB0028A0D0E3782A7903F012
:10A0A00007039A4204D399D163682A689A4295D2E9
:10A0B00063682B60E378C3F302032B71BFE7404A68
:10A0C0004168136899427FF443AF3B4B1D78082DDC
:10A0D00008D100F0BDFC002880D129462046FFF7BA
:10A0E00053FB2EE7384D418800232E4635F8237068
:10A0F0008F424FEA830036D105446B88591C072BE9
:10A1000069807FF66BAF63889068012B1EBF03F1F7
:10A11000FF3320F00F0000EB0310102203A900F022
:10A12000F9FA28B34FF6FA73E278ADF80430A37861
:10A1300043EA0223ADF80630032263680293182134
:10A1400001A8FFF7FBFA58B955B9204A1378591CF2
:10A15000117003F00303628826F8232006EB8305C1
:10A1600000236B80EDE60133042BBFD10025CAE745
:10A170000520F5E7104B1B78082B16D100F068FC82
:10A1800000287FF42BAF0E48B0F86420B0F86210BE
:10A19000ADF80A20531C5B1A01A824218DF8041085
:10A1A000ADF80830FEF736FC97E729462046FFF762
:10A1B0002FFBC6E60820C4E600FD0020C4FD0020F9
:10A1C00000FE002014CF0700EEFD0020FEFD002061
:10A1D00070B50220FEF738FE06460420FEF734FE76
:10A1E00005461020FEF730FE04461220FEF72CFE36
:10A1F00032882B782AB1DA070CD52268126801322E
:10A2000008D05B0708D503681B6801330CBF042026
:10A21000002070BD0120FCE70420FAE710B5022001
:10A22000FEF712FE04461220FEF70EFE74B150B186
:10A2300003685A1C0AD01B68013307D0D4F80A00FF
:10A2400008B100F0BBFB00F0010010BD0020FAE7F0
:10A2500030B54D4D4D4C2968ABB00E22684602F02A
:10A2600036FED4E902329A4241D05422FF210DEB4E
:10A27000020002F037FE627904F1660117A800F0CF
:10A28000CFFAA3691693E3681593FF238DF867301F
:10A2900000238DF86630E3699BB1402204F1200170
:10A2A0001AA802F014FE01238DF866305422637957
:10A2B000022B16D0042B06D0012B15D115A9212075
:10A2C00003E01422F3E715A92420FEF7FDFD304B2F
:10A2D00006221A70FEF7D8FD38B100F0AEFC00205F
:10A2E00003E015A92220F0E70B202BB030BD2B692D
:10A2F00013B90E2000F0A1FC0422296915A802F070
:10A30000E6FD6279022A2FD0042A0ED0012A38D124
:10A3100002222049684602F0DAFD9DF8543043F0ED
:10A3200001038DF854301A200BE00A22194901A8C4
:10A3300002F0CDFD9DF8543043F004038DF8543005
:10A340001C20E3691BB140221349FEF7BDFD0E221C
:10A3500069460220FEF7B8FD0422286015A91046C0
:10A36000FEF7B2FD2861B2E70A490DF1020002F0E2
:10A37000AEFD9DF8543043F002038DF854301B209D
:10A38000DFE70020DDE700BFC4FD002000FE002065
:10A3900000FD002066FE002020FE002030B5304B7E
:10A3A0001B78013BA7B0072B11D8DFE803F00408A6
:10A3B000080A121057570120FEF734FB07E005206A
:10A3C000FAE7284B03F166015879FFF7F5F927B052
:10A3D00030BD254D6A69002A39D0224CE369002B33
:10A3E0003AD00AA801F0EEFE0122611D0AA801F090
:10A3F00019FF042204F110010AA801F013FF04223E
:10A4000004F118010AA801F00DFF26A9002301F8A4
:10A41000913D01220AA801F005FF63794BB1022B9F
:10A4200018D9042B05D10A2204F166010AA801F00B
:10A43000F9FE0AA800F0D8F9002202A90AA801F042
:10A4400015FF0A4A686902A901F090FC20B1FFF7E4
:10A45000FFFEBCE70222E7E70420ADE70020ABE700
:10A4600000FD002000FE0020C4FD002020FE002092
:10A47000FFF736B900B5114B1B78062B8BB01AD1FC
:10A48000FEF78AFDB8B10E4925234A798DF80430CC
:10A49000663101230DF10A008DF808308DF809208E
:10A4A00000F0BEF901A8FEF7B5FA00F0ABF9FFF72E
:10A4B00063F8FFF763FC0BB05DF804FB00FD0020C0
:10A4C00000FE002010B50D4A138D834212D31B1AD3
:10A4D000402B11D8D2E90404C3F12001A3F12002DA
:10A4E000D84004FA01F1084324FA02F2104300F0C4
:10A4F000010010BD0120FCE70020FAE778FE0020F3
:10A5000010B5054C30220021204602F0EBFC4FF63E
:10A51000FF73238510BD00BF78FE00202DE9F843AE
:10A520000646894649EA0604C4F30B0490461F46D2
:10A53000FFF7E6FF1CBB134D134BB9F1000F14BF1F
:10A540004846304608F6FF71686019401840FEF72B
:10A550008BFA06EB08002E6020F00F0026F00F06A5
:10A560000023801B00220009C5E90423074B288132
:10A57000AF72C5F80C80AB622046BDE8F8831020AE
:10A58000FBE700BF78FE002000F0FFFF0000FFFFA8
:10A590002DE9F04F5E4DB5F828A085B007464FF67F
:10A5A000FF7082450391164600F0B0803B0740F0F3
:10A5B000A7802A68BA4200F2A380EB68F11913441D
:10A5C000994200F29D80102E00F29C8016F0030943
:10A5D00040F098806B8D834240F0968022F00F020D
:10A5E000BA1A14090134A4B22046FFF76BFF002801
:10A5F00000F08C80D5E90423A245CDE900234FF07B
:10A60000010E6CD2A4EB0A0C1FFA8CFCACF1200BEF
:10A61000CCF1200A0EFA0BF32EFA0AFA0EFA0CF21B
:10A6200043EA0A03CCF1400E12F1FF3A43F1FF3B3B
:10A63000AEF12008CEF120090BFA0EF1DDE900237E
:10A640000AFA08F82AFA09F941EA080141EA090177
:10A650000AFA0EF002400B401343ACF12009CCF192
:10A66000200E09D04FF6FF7303202B85FEF7DAF991
:10A67000052005B0BDE8F08F01992C8501FA0CF397
:10A68000009901FA09F10B43009921FA0EF10B43ED
:10A69000009901FA0CF242EA0A0043EA0B0120F0A9
:10A6A00001020B46C5E90423194D03996C85324616
:10A6B00005F1180002F00BFC2946686851F8183BB8
:10A6C000C01A32463844FEF7BAF90028D1D04FF606
:10A6D000FF7307202B85FEF7A5F90320C9E7AAEB36
:10A6E000040ADDE900011FFA8AFA0EFA0AFE6FEA8F
:10A6F0000E0E00EA0E0001EAEE71C5E90401D3E78F
:10A700001020B6E70920B4E71120B2E70820B0E72F
:10A7100078FE0020F8B5144F16463A8D4FF6FF73B9
:10A720009A420D461DD03B6823F00F03C01A04095E
:10A730000134A4B2A24214D32046FFF7C3FE80B96D
:10A740006DB166B17968012C1EBF04F1FF3421F0B0
:10A750000F0101EB04113246284602F0B8FB01203C
:10A7600000E00020F8BD00BF78FE00202DE9F04F8A
:10A770001C4BB3F828C04FF6FF74A4452FD0D3F874
:10A7800000E0D3E904B52EF00F0A3F24C4F12008FD
:10A7900005FA08F8A4F120032BFA04F646EA0806A5
:10A7A00025FA03F31E4306F001084FF0000958EAAA
:10A7B000090311D0ACEB04039BB2012B1ABF03F1C8
:10A7C000FF330AEB03137346984205D80B6010233E
:10A7D00013600120BDE8F08F14F1FF34D6D20020C1
:10A7E000F8E700BF78FE0020054B198D4FF6FF7289
:10A7F000914203D0DA68596801F014BD082070470F
:10A8000078FE0020FFF77CBE044B03F11802824261
:10A8100004BF4FF6FF725A85704700BF78FE0020D4
:10A82000022A30B408D0042A05D0012A01D10B88AD
:10A83000038030BC70470A2230BC02F048BB022AB9
:10A8400038B50AD0042A07D0012A0CD100880B8819
:10A85000C31A5842584138BD0A2202F029FBB0FA07
:10A8600080F04009F7E70020F5E7022A10D0042A1B
:10A8700004D0012A0FD100880B8805E082888B88DC
:10A880009A4208D100680B68C31A58425841704771
:10A8900000780B78F8E700207047022A0CD0042AD1
:10A8A00004D0012A0BD100880B8803E0D0F8060001
:10A8B000D1F80630C01A704700780B78FAE700200C
:10A8C000704701281EBF00F1FF3021F00F0101EB9E
:10A8D00000110846704770B5054602200E46FEF787
:10A8E000B3FA04460420FEF7AFFA022E23D0042E5A
:10A8F0000CD0012E31D12A8823889A422DD1C8B19B
:10A90000007880F0010000F0010013E0AA8823899C
:10A910009A4222D12A6863689A421ED1D5F806204D
:10A92000D4F80A309A4216D820B1007880F004009A
:10A93000C0F3800070BD2A78A3789A420DD16A785E
:10A94000E3789A4207D80028F4D0007880F002001B
:10A95000C0F34000EEE70120ECE70020EAE710B585
:10A9600004460220FEF770FAA28803899A420CD1AD
:10A97000226843689A4208D1D0F80A00D4F8063019
:10A98000834294BF0020012010BD0020FCE707B5E2
:10A99000ADF804000220FEF757FA9DF804208378F2
:10A9A0009A4209D1C0789DF80530834294BF0020B7
:10A9B000012003B05DF804FB0020FAE708B504208D
:10A9C000FEF742FA30B1007800F00700C31F58428A
:10A9D000584108BD0120FCE7044A1378591C117046
:10A9E00003F00703024A42F82300704714FF0020D7
:10A9F000F4FE0020064A002352F82310814204D0BE
:10AA00000133082BF8D1002070470120704700BFA8
:10AA1000F4FE002070B5837803F00F038B420446E8
:10AA20000D46164600D089B96068FFF7E3FF68B9A4
:10AA300008342A4631462046FFF717FF28B12A4638
:10AA40002046FFF72AFFC043C00F70BD0020FCE77F
:10AA500030B50A490488002331F82350A5424FEA53
:10AA6000830204D10A4455884288954204D00133B8
:10AA7000102BF1D1002030BD0120FCE7B0FE0020FA
:10AA800030B50749074A0B68058803F00F04013306
:10AA900022F8245002EB8402408850800B6030BDC5
:10AAA000F0FE0020B0FE002008B54022002103483F
:10AAB00002F018FA024B00221A6008BDB0FE002016
:10AAC000F0FE0020904204D31344834207D8904202
:10AAD00007D80844904234BF00200120704701206D
:10AAE000704700207047000010B5074A1068002327
:10AAF000012404FA03F1014203F1010318BFC2F873
:10AB00008010202BF5D110BD00E100E081682023EA
:10AB1000013B21FA03F2D207FAD5012202FA03F32C
:10AB200083600023C0E90333704770B50446F9B170
:10AB3000EFF3108572B6D0E9020622690244B242F0
:10AB400003D105B962B604250DE0236862680138B7
:10AB5000304002FB003063693BB19847E368013342
:10AB6000E3603DB962B6284670BD02F0B0F9F5E782
:10AB70000E25F8E70025F6E770B504460846EFF322
:10AB8000108572B6D4E903369E4203D105B962B688
:10AB90000E250FE049B1D4E90123591E2368314045
:10ABA00002FB013163693BB198472369013323619B
:10ABB0002DB962B6284670BD02F089F9F5E7002587
:10ABC000F8E7F8B503461546084611B90E242046A5
:10ABD000F8BDEFF3108472B6D3E90367F61BB242F7
:10ABE00003D3002CF2D162B6F0E7D3E901213D4452
:10ABF000013929401D685B6902FB01511BB198476F
:10AC000024B962B6E3E702F062F9F9E70024DEE76F
:10AC10000022FFF7D6BFD0E90320101A704703695E
:10AC20008268C06813441B1A584258417047D0E9E3
:10AC30000302131A58425841704772B600BEFEE72D
:10AC400072B600BEFEE7000008B54FF08043D3F8AF
:10AC5000082442B901221A60D3F80021002AFBD04F
:10AC60000022C3F800214FF08043D3F8142442B9E6
:10AC700001229A60D3F80421002AFBD00022C3F8F5
:10AC800004214FF0804301221A61D3F80C21002ADD
:10AC9000FBD00022C3F80C210E4B402283F8162370
:10ACA0004FF480021A6062B6FDF7A2FBFEF746FC85
:10ACB00070B94FF080431C46D3F81C250AB9FDF744
:10ACC00059FC0023C4F81C35FDF7E2FB20BFFDE76B
:10ACD00020BFEBE700E100E00023034A1946995446
:10ACE0000133202BFBD170474C0600200C4A30B5B5
:10ACF00000230446EFF3108172B6985C48B9012036
:10AD0000D054084A282505FB0323236001B962B605
:10AD100030BD01B962B60133202BEBD10020F7E73B
:10AD20004C0600204C01002070B50E4C041B28205E
:10AD3000B4FBF0F41F2C12D8EFF3108672B60A4D54
:10AD40002B5D013BDBB2FD2B02D90420FFF775FF21
:10AD50002B5D01332B5506B962B6012000E00020BF
:10AD600070BD00BF4C0100204C0600200F4BC01AE4
:10AD70002823B0FBF3F01F2810B501D9002010BD27
:10AD8000EFF3108472B60A4B1A5C32B90820FFF751
:10AD900054FF002CF2D162B6F0E7013A1A5404B91C
:10ADA00062B6185C003018BF0120E8E74C010020B3
:10ADB0004C060020054BC01A2823B0FBF3F01F28D7
:10ADC0009ABF034B185C0020704700BF4C01002065
:10ADD0004C06002010B5062204460749033002F055
:10ADE00076F84FF080530020D3F8A020237862F348
:10ADF0008613237010BD00BFA400001070B5F8B119
:10AE00004278D31F1E2B00F1090419D8961F033274
:10AE100023464FF6E46510445A78162A04D15A881E
:10AE2000AA4201D1184670BD1A78191B1144B142CB
:10AE300006D8834204D20132C2EB42121344EBE73C
:10AE40000023EFE7F0B54FF0805202261369146932
:10AE50009BB2013B1944A4B2114BB1FBF4F10024A5
:10AE6000C9B22746E5B2A94200D8F0BDC3F80465CF
:10AE7000D3F80054002DFBD0C3F80805D3F80054D4
:10AE8000002DFBD0C3F80475D3F80054002DFBD07F
:10AE90001569C5F38D0500EB85000134E2E700BFBD
:10AEA00000E0014023F003032DE9F04118440024A1
:10AEB000164F174B0A442646A6464FF0010891420A
:10AEC00001D1BDE8F08111F801CB07F806C0751C6F
:10AED000EDB264EA0C04042DE4B215D18CB1C3F8D0
:10AEE0000485D3F80044002CFBD03C680460D3F800
:10AEF0000044002CFBD0C3F804E5D3F80044002C38
:10AF0000FBD00024043025462E46D8E76C060020EE
:10AF100000E00140384B2DE9F04700240F469046F1
:10AF200001210322C3F8FC4FC3F8FC1FC3F80C45F2
:10AF3000C3F810250222C3F808252522C3F854259A
:10AF40008E22C3F8242506462C4A2D48C3F81C251A
:10AF50000068D3F82425050E42EA0522C3F824250B
:10AF60000002284AC3F82005C3F82C45C3F8301561
:10AF7000C3F81425244AC3F8182540F25B62C3F8CD
:10AF8000382540F20312C3F83425204AC3F83C2583
:10AF90001F4D9422C3F844252A78032A08D11D485E
:10AFA0001D4A446108238360C0E90023FFF7AEFD1A
:10AFB000114BDFF874901748022400222C70C3F85C
:10AFC0000C21164D164BC5F880412C601F60154BA7
:10AFD000C9F80060C3F80080FFF729FE20B1D9F856
:10AFE0000030BDE8F047184700F02CFA08B1C5F86A
:10AFF0000041BDE8F08700BF0010004000D6BE89C8
:10B0000004000020060102002500030255555500EA
:10B0100008000020740600208C06002000E100E0FB
:10B02000CC060020D00600207006002038B501466E
:10B03000C0B1437913B90379012B15D80C48FFF738
:10B0400074FD044690B9EFF3108572B600F0FAF97A
:10B0500018B1084B0222C3F800210DB962B62C4684
:10B06000204638BD0E24FBE71024F9E70424F7E757
:10B070007406002000E100E0074B00224FF0FF3192
:10B08000C3F80022C3F8081301211961C3F804258D
:10B09000024B02221A707047001000400800002086
:10B0A0002DE9F041614CD4F80C3186B02246002BDA
:10B0B00073D0D4F80064D4F80C74D4F81C31002B8D
:10B0C00065D00023C4F81C31D4F84845E4B200230D
:10B0D000C2F80C3103A95648FFF74EFD08B1FFF73F
:10B0E000ACFD9DF811300398013B012B51D8514B19
:10B0F000311C1D683A46234618BF0121A8474E4B14
:10B1000002221A704C4C2378023B012B3CD801A937
:10B110004748FFF77DFD002840F08380434D13230F
:10B12000C5F800329DF80A300A2B5DD89A1C5200EF
:10B13000C5F8082503F07F023C4B4049C3F854256D
:10B14000019AC3F804250822C3F804230022C3F897
:10B150000C210968D3F82425080E42EA0022C3F81E
:10B1600024250A02C3F820259DF809001A46002864
:10B1700048D19DF80820C3F82C259DF80B20C3F872
:10B180000C2501221A60227006B0BDE8F08164240B
:10B190009DE72B4B1B689847B1E72548244F254E68
:10B1A000FFF739FDA0460546012DABD903A9384666
:10B1B000FFF72EFD01460028A4D19DF81130022B87
:10B1C000A0D13846FFF7D8FCFFF756FFD8F8501546
:10B1D0000029FBD1C8F80C1164234FF0FF3203980B
:10B1E0003468A047013DDFE7242B01D8DA1C9EE735
:10B1F000144A07CA06AE06E9070006EB830252F8B6
:10B20000A02C95E7104B994218BF03214FF0010382
:10B210000CBFC2F83035C2F83015536000232370DC
:10B22000B2E70A4B1B689847AEE700BF001000402A
:10B2300074060020CC060020080000200400002036
:10B24000D006002018CF0700D6BE898E70060020D9
:10B2500010B5D0E900238468C168A2EB731283EAB9
:10B26000F43303600C441344114444608160C360B0
:10B27000184610BD0A4B012210B51A60002219B9F8
:10B2800001225A60084610BDD3F80041002CFBD0C3
:10B29000013989B2D3F808454454C3F80021EEE7D8
:10B2A00000D0004073B5044602A8002340F8043DD6
:10B2B0000421FFF7DFFF064658B9074B2360019BC7
:10B2C000E360C4E9013314252046FFF7C1FF013DC7
:10B2D000FAD1304602B070BDED5EEAF1F0B5164B22
:10B2E000164ED3F80425501E20F07F40014600235F
:10B2F0009C595CB1F41867688C1ABD1A25F07F451B
:10B3000024F07F44A54238BF27F07F411033802BC3
:10B31000EED1094B81424FF480301FBFC3F80403C4
:10B320000020C3F84001C3F8401516BF044BC3F812
:10B3300008031A60F0BD00BF00B00040880700207D
:10B340008407002007B5019061B101A90748FFF704
:10B35000ECFB38B9064B4FF48012C3F8002103B060
:10B360005DF804FB0198FFF701FDF8E7EC0600200B
:10B3700000E100E007B5022368468DF80530FFF7CD
:10B38000B5FC78B100238DF80430684625238DF88C
:10B390000630FFF74BFE10B16846FFF7E7FC03B03D
:10B3A0005DF804FB014B1870F9E700BFE4060020CC
:10B3B000024B1B780BB1FFF7DDBF7047E40600209E
:10B3C0002DE9F041837B8768457B0646CBB940F683
:10B3D000CD4202FA05F30135AA401848A3F6CD4440
:10B3E000D51AFFF735FF3C44C5F35603B0FBF3F223
:10B3F00002FB13002344034423F07F437360BDE842
:10B40000F081022B41F69A140C4814BF4FF001084A
:10B410004FF00A086C43FFF71BFF40F6CD4202FBDA
:10B4200008F208FB04F414443C44B0FBF2F303FBC1
:10B430001200044424F07F447460E0E7D406002046
:10B44000FFF72EBE01207047174B10B500241C706B
:10B45000164B1860164B17481C802146802201F0BD
:10B4600041FD1548154B036004222023C0E9012348
:10B470004461FFF74BFBFFF72FFC1148FFF712FF6A
:10B4800008B1FFF7DAFB0F4B0F491048402283F851
:10B4900014234FF480121A60002283F80123BDE8C0
:10B4A00010400B4AFFF736BDE4060020E8060020F6
:10B4B000CC09002088070020EC06002004070020AB
:10B4C000D406002000E100E045B30700B1B3070057
:10B4D000EDB60700034B1A781AB901221A70FFF76C
:10B4E00049BF7047E406002073B50F4D0F4E01A908
:10B4F0002846FFF741FB044630B10D4B1B780BB9D2
:10B50000FFF7E8FF02B070BD0198FFF753FC012878
:10B5100002D02046FFF791FB0198336898470198C5
:10B52000FFF724FCE3E700BFEC060020E80600205C
:10B53000E40600202DE9F047044617461E460BB9E5
:10B540000C2A28D83CB3072925D8EFF3108872B607
:10B55000124B0D0103EB011958599A4608B1FFF738
:10B5600005FC2046FFF7E0FB0AEB050200235373BE
:10B570004AF805400A4B1773D3F804359360967365
:10B580004846FFF71DFFFFF7A9FEB8F1000F00D1F5
:10B5900062B6012000E00020BDE8F08788070020A7
:10B5A00000B0004038B50D4B4FF400620728044648
:10B5B000C3F880200CD80301094DE858FFF7D6FBEB
:10B5C0001022002105EB041001F08CFCFFF786FE31
:10B5D000024B4FF400621A6038BD00BF00E100E08A
:10B5E00088070020F7B52C4B2C4CD3F804552C4F72
:10B5F000023504F18006216861B36368EB1A23F019
:10B600007F423B68EB1A23F07F439A4222D8002303
:10B610008DF805308DF804308DF80730E37B00910C
:10B62000022B1ED90023E373637B5A1CD2B2FF2B7B
:10B63000627307D1A36803F5CC1303F5D05323F04D
:10B640007F43A360237B9A4201D3FF2B1BD120466B
:10B65000FFF7B6FE1034B442CDD1FFF73FFE03B082
:10B66000F0BD25238DF806309DF80630272BD9D85C
:10B670006846FFF7DBFC10B92068FFF755FB9DF823
:10B6800006300133EEE72068FFF770FB102200213F
:10B69000204601F027FCDDE700B0004088070020CD
:10B6A00084070020A0F57F43F03B0120054A984025
:10B6B00000B2B2F9003011B118431080704723EA8C
:10B6C0000000FAE7CC0900204FF6EF73984281BFE3
:10B6D000054BA0F57F401B88F03886BF43FA00F089
:10B6E00000F0010000207047CC09002010B588B0A0
:10B6F0000446FFF783FB88B182884FF6EF7390B260
:10B7000098420BD9FFF7E0FF40B108A84BF2036362
:10B7100020F8203DADF8022000F0D2FE2046FFF7D1
:10B7200025FB08B010BD031F00221C3043F8042F76
:10B730008342FBD17047031F1C3053F8042F1AB902
:10B740008342FAD101207047002070474A1101233B
:10B7500050F8220001F01F0103FA01F10840704780
:10B760000B1F04381C3153F8042F40F8042F8B4270
:10B77000F9D1704710B500F12003203153F8044D82
:10B7800051F8042D944204D805D38342F6D1002009
:10B7900010BD0120FCE74FF0FF30F9E700F1200376
:10B7A0000022834200D1704753F8041D42EA51023F
:10B7B0001A60CA07F5E7002370B50646184651F827
:10B7C000235052F823402C440444A54202D08CBF9D
:10B7D0000120002046F823400133082BEFD170BD33
:10B7E000002370B50646184651F8235052F82340FE
:10B7F0002C1B241AA54202D034BF0120002046F899
:10B8000023400133082BEFD170BD01F11C03043834
:10B81000043953F8042912BA8B4240F8042FF8D1A6
:10B82000704770B50646A0B008461446FFF783FF80
:10B8300020B13046FFF777FF20B070BD6846FFF7B4
:10B840008FFF214608A8FFF78BFF10A8FFF76BFFBB
:10B85000012318A81093FFF766FF08A96846FFF7B1
:10B8600089FF20B910A93046FFF77AFFE4E7009B73
:10B87000DA0716D46846FFF791FF109810F001051B
:10B8800005D010A922460846FFF795FF054610A8E7
:10B89000FFF784FF002DE0D0179B43F00043179380
:10B8A000DBE7089BDB0716D408A8FFF777FF18989B
:10B8B00010F0010505D018A922460846FFF77BFFC6
:10B8C000054618A8FFF76AFF002DC6D01F9B43F05E
:10B8D00000431F93C1E7002818DD08AA694668469F
:10B8E000FFF77EFF6846FFF759FF18A910A8FFF77A
:10B8F00041FF002804DA10A922460846FFF75BFF43
:10B9000010A918AA0846FFF76BFFB6E708A96A4610
:10B910000846FFF765FF08A8FFF740FF10A918A821
:10B92000FFF728FF002804DA18A922460846FFF787
:10B9300042FF18A910AA0846FFF752FFB7E7000018
:10B9400010B50446FFF74CFF30B121462046034AAC
:10B95000BDE81040FFF72FBF10BD00BF84CF070028
:10B9600010B50446FFF727FF28B907492046FFF71F
:10B9700001FF002806DB21462046034ABDE81040AF
:10B98000FFF72EBF10BD00BF84CF0700072250F87D
:10B99000223013B912F1FF32F9D2531C0AD050F8F9
:10B9A0002210002219B9581E02EB401070474908B6
:10B9B0000132F7E7184670472DE9F74FCDE900123D
:10B9C00000252C462B46009AA2F1040C019A02EBAA
:10B9D0000508009A9E4602EB0509234600245CF800
:10B9E000046F58F80479A7FB06AB0026324642EAFA
:10B9F0000E0211461A4633461AEB01065BEB0207AC
:10BA000028BF0123E1451C44B6463B46E7D14651D9
:10BA10000435202DD7D100F11C090125019A9E463D
:10BA200002F120082346AC460024009A58F8047D11
:10BA300052F82C60A6FB07AB0026324642EA0E0203
:10BA400011461A4633461AEB01065BEB02070CF16E
:10BA5000010C28BF0123BCF1080F1C44B6463B462D
:10BA6000E3D10135082D49F8046FD7D1C76303B07E
:10BA7000BDE8F08F70B598B0054608A8FFF79CFFA9
:10BA800008A92846FFF76CFE139B0393149B0493AD
:10BA9000159B0593169B06930026179B07936A46F2
:10BAA00069466846CDE901660096FFF784FE6A465E
:10BAB000044629462846FFF77EFE149B0393159BF8
:10BAC0000493169B0593179B04446A46694668468F
:10BAD000CDE90636FFF76FFE294604446A4628463C
:10BAE000FFF769FE109B0093119B0193129B029339
:10BAF000169B06930444179B03966A462846CDE995
:10BB000004660793FFF757FE119B0093129B169A4A
:10BB10000193139B02930492159B179A0393CDE90B
:10BB200005230444109B07936A462846FFF743FE0B
:10BB3000139B0093149B0193159B0293109B0693F8
:10BB40000444129B03966A462846CDE9046607938F
:10BB5000FFF746FE149B0093159B0193169B0293DF
:10BB6000179B0393119B0693241A139B07936A4612
:10BB70002846CDE90466FFF733FE159B0093169B1C
:10BB80000193179B0293109B0393119B0493129BA9
:10BB9000241ACDE905366A46149B07932846FFF719
:10BBA0001FFE169B0093179BCDE90136119B039353
:10BBB000129B0493139B241ACDE905366A46159B04
:10BBC00007932846FFF70CFE241A0C4E0DD42CB90F
:10BBD00029463046FFF7CEFD01280DD032462946D2
:10BBE0002846FFF7FDFD241AF1E73246294628468C
:10BBF000FFF7E1FD2418F8D418B070BD84CF07001A
:10BC000070B588B006460D46684611461446FFF7E3
:10BC100031FF6A4631463046FFF72CFF224669461F
:10BC20006846FFF727FF6A4629462846FFF722FFA6
:10BC300008B070BDF0B5144689B006460F460246FE
:10BC4000214668461D46FFF77BFE6A466946684600
:10BC5000FFF710FF6A4631463046FFF70BFF6A4692
:10BC600021462046FFF706FF3A4629462846FFF7B9
:10BC700067FE2A4629466846FFF7FCFE32466946BB
:10BC80006846FFF75DFE224669466846FFF758FEA4
:10BC9000324621462046FFF753FE224639463846B3
:10BCA000FFF7E8FE6A4631462046FFF749FE224686
:10BCB00029462846FFF7DEFE3A4629462846FFF782
:10BCC0003FFE69462046FFF74BFD09B0F0BD00007E
:10BCD000F0B5B3B022AB054602A80093019012AEB6
:10BCE000FFF76AFE20491AA8FFF73AFD3046FFF732
:10BCF0001AFD40F20117012432AAC4F1010302EB3C
:10BD00008303002153F8C8CC02EB840353F8C8EC3A
:10BD10000B465EF8230056F82320821A521A9042EE
:10BD200002D034BF012100214CF823200133102B15
:10BD3000EFD10B1B5C4230465C41FFF72FFDDDE984
:10BD400019321AA843EAC2731993FFF727FD013F7E
:10BD5000D2D132AB03EB8404284654F8C81CFFF759
:10BD6000FFFC33B0F0BD00BF64CF07002DE9F04306
:10BD7000ADF5057D44AF64AE80460024894601469A
:10BD800030461546FC615394FFF73FFD08F1200152
:10BD90006CA8FFF73AFD29463846FFF736FD05F156
:10BDA00020014CA8FFF731FD3846FFF7C4FC0146DF
:10BDB000002840F0AE804CA8FFF7BDFC04460028E8
:10BDC00040F05E813946AF48FFF7D4FC012840F0CF
:10BDD000A0804CA9AB48FFF7CDFC0128804640F07D
:10BDE0009880A84A4CA914A8FFF71BFD494604A84F
:10BDF0000B94FFF70AFD04A9084614AAFFF768FF91
:10BE000074AD14AA39460CA8FFF762FFDFF87C92E4
:10BE100031462846FFF7A4FC6CA97CA8FFF7A0FCDC
:10BE200049462CA8FFF79CFC09F1200134A8FFF734
:10BE300097FC29462CAA14A8FFF782FD7CAB2A4662
:10BE400034A92CA8FFF7F6FE14A908468E4AFFF77E
:10BE5000E8FC14AA7CA92846FFF7D2FE04A8CDE985
:10BE60000265CDE90049FFF791FD05460CA8FFF7F3
:10BE70008DFD8542B8BF054605F1FF39494604A846
:10BE8000FFF764FC4946061C0CA818BF0126FFF703
:10BE90005DFC002814BF022300231E431CA85DF88C
:10BEA000269024AE4946FFF75BFC09F1200130469D
:10BEB000FFF756FCDFF8D09114A8FFF734FC023DE1
:10BEC000CDF85080002D29DA14A908466E4A1CAD21
:10BED000FFF7A7FC14AA24A92846FFF791FE2946DC
:10BEE0006848FFF747FC012804D0664A29462846DF
:10BEF000FFF776FC072355F8232057F8231013F19A
:10BF0000FF3382EA010244EA0204F4D2B4FA84F470
:10BF1000640920460DF5057DBDE8F08314A8FFF700
:10BF20000AFC002870D13246314654A8FFF7A2FD22
:10BF300054AA1CA95CA8FFF79DFD54AA11461046FF
:10BF4000FFF798FD14AA31463046FFF793FD14AA77
:10BF500011461046FFF78EFD1CA9084614AAFFF7EC
:10BF6000FFFC14AA11461046FFF7FAFC14AA10466B
:10BF70001CA9FFF7E5FC1CA9084614AAFFF77AFDE7
:10BF80001CAA114614A8FFF7EBFC1CA914AA08462A
:10BF9000FFF7E6FC1C9BDB076ED51CA94A4608464A
:10BFA000FFF709FC80461CA8FFF7F8FB239840EA3E
:10BFB000C87023901CAA114614A8FFF75BFD14A9B2
:10BFC00008465CAAFFF7BCFC14A908465CAAFFF768
:10BFD000B7FC5CA9084614AAFFF7B2FC1CA90846E6
:10BFE0005CAAFFF747FD54AA10461CA9FFF7A8FC5E
:10BFF00014A91CA8FFF7B4FB314614A8FFF7B0FB47
:10C0000054A93046FFF7ACFB294604A8FFF79EFB76
:10C01000294610F100080CA818BF4FF00108FFF7DF
:10C0200095FB002814BF0223002348EA03085DF8AB
:10C030002880B8F1000F1DD041462CA8FFF790FBD7
:10C0400008F1200134A8FFF78BFB14AA34A92CA80F
:10C05000FFF7D6FD2CAA1CA93CA8FFF771FC1CAA6F
:10C0600034A92CA83346FFF7E5FD14A93CAA0846DD
:10C07000FFF700FD013D25E71CA8FFF78FFB99E7BF
:10C080000C4646E764CF070084CF070024CF0700A3
:10C090002DE9F04F0022C9B04B780C781B0443EA1D
:10C0A0000463CC7823438C7843EA042308AC04313E
:10C0B000A3500432402AEFD1234638AD996B1E4677
:10C0C0004FEAF14282EA714282EA9122716A36684D
:10C0D00053F8044F31440A444FEAB44181EAF41161
:10C0E00081EAD4010A449D42DA63E7D1036D0093EB
:10C0F000436D0193836D0293C36D0393036E0493A9
:10C10000436E0593836E0693DDE905ECC36E009CD8
:10C11000DFF8AC900793DDE90381DDE901659B461B
:10C1200000274FEAF12383EAB11383EA716A59F8D1
:10C1300027301A4608AB53F827301A4413465344A5
:10C140002CEA010201EA0E0A82EA0A021A444FEAC4
:10C15000743A86EA05035A448AEAB40A06EA050BE9
:10C16000234083EA0B038AEAB45A01379A44402FEA
:10C1700002EB0803E3465244A8461AD1009F174435
:10C18000019A076522444265029A32448265039A05
:10C190002A44C265049A1A44059B02660B4443660E
:10C1A000069B73448366079B6344C36649B0BDE83E
:10C1B000F08FF44635468E46264619461446B0E7BB
:10C1C000A4CF070030B5E0B10F4A10490024002584
:10C1D000C0E91245C0E914120D4C0E4A0E4DC0E9DB
:10C1E00016420E4AC0E918520D4A826602F1745294
:10C1F000A2F523020023A2F692420364C266184607
:10C2000030BD0E20FCE700BF85AE67BB67E6096A5C
:10C2100072F36E3C3AF54FA57F520E518C68059B28
:10C22000ABD9831FF8B50446F0B10AB90020F8BDB8
:10C23000D1B10D468E180027B542F7D0236C15F802
:10C24000012BE2540133402B2364F5D121462046D3
:10C25000FFF71EFFD4E9120110F5007241F100034F
:10C26000C4E912232764E7E70E20E0E72DE97848C8
:10C270000D4616460446002800F08480002900F090
:10C280008180026C8021372A02F1010381544FF032
:10C2900000024DD8382B46D1D4E91223206C082156
:10C2A000E1FB002322FA01F1934684F83F2084F851
:10C2B0003E10110C120E84F83C201A0A9C4684F899
:10C2C0003B3084F83A201A0C1B0E84F83D10C4E968
:10C2D00012BC214684F8392084F838302046FFF714
:10C2E000D7FE691E7EB30023E26EDA4001F8012F0B
:10C2F000A26EDA400A71626EDA400A72226EDA4089
:10C300000A73E26DDA400A74A26DDA400A75626D52
:10C31000DA400A76226DDA400833202B0A77E3D11F
:10C320000020BDE87888E2540133B3E7E2540133DA
:10C330003F2BFBD921462046FFF7AAFE38220021D9
:10C3400000F0D0FDA8E71823226DDA4001F8012F94
:10C35000626DDA400A71A26DDA400A72E26DDA406B
:10C360000A73226EDA400A74626EDA400A75A26EAF
:10C37000DA400A76E26EDA40083B13F1080F0A77DA
:10C38000E2D1CDE70E20CCE7074B1B7853B9074B22
:10C390001A78022A06D002221A70054B4FF40012B6
:10C3A000C3F80021704700BFBD080020BC08002072
:10C3B00000E100E010B50A4C0A482146FEF7DCFB1C
:10C3C00060B9094B62781A60084B0121C3F81C015F
:10C3D0009960074902340C60C3F81C2510BD00BFEA
:10C3E000BE080020E80800209C0900200020004032
:10C3F000A00900202748284B70B5002404252726D3
:10C400000360856046604461FEF780FB2348244B4F
:10C410008560C0E900364461FEF778FB214B224974
:10C420001C704FF0A0434FF48072C3F81C2580228B
:10C43000C3F81C250C22C3F82027C3F81C27402270
:10C44000C3F80825C3F818252022C3F81825174B70
:10C450000622C3F80C250822C3F814250722C3F8C6
:10C4600010250522C3F808250122C3F86C25C3F85E
:10C4700024158421C3F80055C3F80413C3F80841F8
:10C48000C3F81C411A600A4BE02283F802231D60A6
:10C4900070BD00BFE8080020000900200808002047
:10C4A00020080020BD08002000E0D7010020004047
:10C4B00000E100E00148FEF7AEBB00BF0808002025
:10C4C00030B505468BB00E48FEF7A9FBA8B90AACFB
:10C4D0002A7804F8280D013229460DF1010000F0F8
:10C4E000F6FC21460648FEF720FB064B1B780BB9ED
:10C4F000FFF74AFF01200BB030BD0020FBE700BF73
:10C50000E8080020BC08002070B5334C88B0661CD9
:10C51000324BD3F808219AB9D3F81C1171B13049C4
:10C52000C3F81C210A68501E0860002A44D02D4917
:10C530000A68501C12780860C3F81C2508B070BD4A
:10C540000022294DC3F80821D3F808212A68D3F81E
:10C5500018151170531C62782B60272A01D92E60A0
:10C56000D6E79B1B262B04D8012BD1D9013293424D
:10C57000CED321461D48FEF7D8FAB8B148F203439E
:10C58000ADF80030A3788DF80230684686238DF828
:10C590000330FFF795FF1548FEF741FB0028DED07A
:10C5A000134A012313700D4A5360D8E7114B4FF41F
:10C5B0008002C3F80021EEE70121D9600C4B0E4840
:10C5C0001978012918BF1A70FEF731FB0028B5D180
:10C5D000FFF7DAFEB2E700BFA40900200020004008
:10C5E0009C090020A00900200C0000200808002061
:10C5F000BC08002000E100E0E808002070B5EFF37F
:10C60000108572B6064C074E0122227033781BB992
:10C61000237005B962B670BDFFF776FFF6E700BF7D
:10C62000BD080020BC08002010B58AB00446694649
:10C630000D48FEF7A1FA90B99DF801202AB1013208
:10C640000DF10101204600F042FC084B187801284A
:10C6500007D100221A70064B18600AB010BD0020E6
:10C66000FBE70120F9E700BF08080020BC08002014
:10C6700000200040044B602283F815234FF4001281
:10C680001A60FFF7B7BE00BF00E100E000B589B057
:10C6900048F20413ADF8003001238DF802304FF05A
:10C6A0008043D3F80034C3F3C0038DF80330FFF7A1
:10C6B00001FF8DF804006846FFF702FF00280CBF59
:10C6C0000420002009B05DF804FB000030B5564C92
:10C6D00097B0842506A8FFF7A7FF08B917B030BDAB
:10C6E0009DF81930762B3CD01BD8022B25D00E2B71
:10C6F0001BD1FFF783FF4FF080434FF0FF32C3F8A9
:10C7000000240122C3F81C25BFF34F8F4749484B33
:10C71000CA6802F4E0621343CB60BFF34F8F00BFDF
:10C72000FDE7772B3ED0782B61D08DF83A3048F278
:10C730000343ADF8383082232FE09DF818208DF8A0
:10C7400038208223012A8DF8393006D9013A0DF1BB
:10C750001A010DF13A0000F0BAFB0EA8FFF7B0FE87
:10C76000B8E78DF83A3048F20343ADF838309DF819
:10C770001830052B02D08DF83B50EEE79DF81C30A9
:10C78000012B0DD19DF81D10BDF81A00003118BF06
:10C790000121FEF787FF0023E35C8DF83B30DCE7E7
:10C7A0000723F9E78DF83A3048F20743ADF83830FF
:10C7B0009DF81830042BDED19DF81C00A8B101288B
:10C7C0000FD1BDF81A00FEF77FFF0023BDF81A2035
:10C7D000ADF83C209DF81C208DF83E208DF83F00E0
:10C7E000DAE703238DF8383000200723EEE78DF8D1
:10C7F0003A3048F20543ADF8383002238DF8003066
:10C800000DF11A0301939DF818306846013B02931D
:10C81000FBF7AEFEBDF81A30ADF83C30112894BFDE
:10C82000235C8023B9E700BFA4D0070000ED00E03F
:10C830000400FA050C4B1B78062B10D10B4B1B6820
:10C840001A070CD10A4B186800F0F003302B08D0FF
:10C8500000F0E000A0F1400358425841704700202A
:10C8600070470120704700BFE00F00F0E40F00F0B8
:10C87000E80F00F0094B1B78062B0CD1084B1B6806
:10C880001A0708D1074B186800F0F000A0F1300338
:10C890005842584170470020704700BFE00F00F039
:10C8A000E40F00F0E80F00F008B5FFF7C3FF28B170
:10C8B0007D4B7E4A1B68C3F304231360FFF7DAFF46
:10C8C00010B17B4B7B4A1A60FFF7B4FF28B17A4B5B
:10C8D0007A4A1B68C3F342331360FFF7CBFF20B1E2
:10C8E000774AD36823F08073D360FFF7A3FF40B18A
:10C8F0004FF080430022C3F80C21C3F81021C3F885
:10C900003825FFF7B7FF10B16E4B03221A60FFF70F
:10C91000B1FF40B16C4B05221A6001229A670022D8
:10C920009A603F225A60694B1B78062B50D1684BA6
:10C930001B6819074CD1674B1B6803F0F003502BA1
:10C9400046D14FF08052644BD2F80414C3F820153E
:10C95000D2F80814C3F82415D2F80C14C3F828151B
:10C96000D2F81014C3F82C15D2F81414C3F83015EB
:10C97000D2F81814C3F83415D2F81C14C3F84015B3
:10C98000D2F82014C3F84415D2F82414C3F848157B
:10C99000D2F82814C3F84C15D2F82C14C3F850154B
:10C9A000D2F83014C3F85415D2F83414C3F8601513
:10C9B000D2F83814C3F86415D2F83C14C3F86815DB
:10C9C000D2F84014C3F86C15D2F84424C3F870258B
:10C9D000FFF730FF28B1414B414A1B6803F04F037A
:10C9E0001360FFF727FF48B14FF08043D3F80024CE
:10C9F000D20744BF6FF00102C3F80024394B1B6813
:10CA0000062B08D1384B1B68062B01BF374A136829
:10CA100043F480631360364AD2F8883043F47003DD
:10CA2000C2F88830BFF34F8FBFF36F8F4FF01023E2
:10CA3000D3F80022002A03DBD3F80432002B2FDACC
:10CA40002C4B0122C3F80425D3F80024002AFBD084
:10CA50004FF010221521C2F80012D3F80024002A4A
:10CA6000FBD04FF010231522C3F80422214B1A46A5
:10CA7000D3F800140029FBD00021C3F80415D2F824
:10CA80000034002BFBD0BFF34F8F19491A4BCA68F3
:10CA900002F4E0621343CB60BFF34F8F00BFFDE7AA
:10CAA000164B174A1A6008BD240300104035014098
:10CAB00074C007400DF0ADBA440200103C050040C0
:10CAC000F0ED00E0A005004010560040E00F00F03F
:10CAD000E40F00F0E80F00F000C000405802001022
:10CAE000E40E004030010010340100103C170040FB
:10CAF00000ED00E000E001400400FA051000002015
:10CB00000090D0030649074A074B9B1A03DD043BFC
:10CB1000C858D050FBDCFFF7C7FEFBF791FB0000C5
:10CB2000C8D00700040000207C000020FEE7FEE7DC
:10CB3000FEE7FEE7FEE7FEE7FEE7FEE7FEE7FEE7CD
:10CB400053B94AB9002908BF00281CBF4FF0FF3174
:10CB50004FF0FF3000F072B9ADF1080C6DE904CE72
:10CB600000F006F8DDF804E0DDE9022304B07047C8
:10CB70002DE9F047089E04468846002B4BD18A4297
:10CB8000154667D9B2FA82F24AB1C2F1200701FA1A
:10CB900002F320FA07F7954047EA030894404FEA6A
:10CBA000154E230CB8FBFEF71FFA85FC0EFB178809
:10CBB00043EA084307FB0CF1994209D9EB1807F146
:10CBC000FF3080F01B81994240F21881023F2B44D4
:10CBD0005B1AA4B2B3FBFEF00EFB103344EA03442D
:10CBE00000FB0CFCA44509D92C1900F1FF3380F09F
:10CBF0000781A44540F2048102382C4440EA0740F2
:10CC0000A4EB0C0400271EB1D4400023C6E9004366
:10CC10003946BDE8F0878B4209D9002E00F0EB8041
:10CC20000027C6E9000138463946BDE8F087B3FA67
:10CC300083F7002F47D18B4202D3824200F2FA8061
:10CC4000841A61EB030301209846002EE0D0C6E968
:10CC50000048DDE702B9FFDEB2FA82F2002A40F0B6
:10CC60008F80491B4FEA154E1FFA85F80127B1FB4B
:10CC7000FEFC230C0EFB1C1143EA014308FB0CF1E4
:10CC8000994207D9EB180CF1FF3002D2994200F219
:10CC9000CD808446591AA3B2B1FBFEF00EFB1014EE
:10CCA00043EA044408FB00F8A04507D92C1900F119
:10CCB000FF3302D2A04500F2B6801846A4EB080468
:10CCC00040EA0C409FE7C7F1200CBB4022FA0CFE63
:10CCD0004EEA030E01FA07F420FA0CF521FA0CF3E0
:10CCE0004FEA1E482543B3FBF8F92C0C08FB193317
:10CCF0001FFA8EFA44EA034309FB0AF49C4202FA43
:10CD000007F200FA07F10BD91EEB030309F1FF301C
:10CD100080F087809C4240F28480A9F1020973442C
:10CD20001B1BADB2B3FBF8F008FB103345EA03441C
:10CD300000FB0AFAA24508D91EEB040400F1FF33F8
:10CD40006BD2A24569D90238744440EA0940A0FB7D
:10CD50000289A4EB0A044C45C2464B4654D351D039
:10CD6000002E69D0B1EB0A0564EB030404FA0CFC55
:10CD7000FD40FC404CEA0505C6E90054002747E7A2
:10CD8000C2F1200320FA03F7954001FA02F021FADC
:10CD900003F34FEA154E3843010CB3FBFEF71FFABD
:10CDA00085F80EFB173341EA034107FB08F38B427A
:10CDB00004FA02F407D9691807F1FF3C2FD28B421D
:10CDC0002DD9023F2944CB1A81B2B3FBFEF00EFBF2
:10CDD000103341EA034100FB08F38B4207D969187D
:10CDE00000F1FF3C17D28B4215D902382944C91AE9
:10CDF00040EA07473BE73746304609E70746E7E69C
:10CE00001846FBE64145ABD2B8EB020A69EB0E02CD
:10CE100001381346A4E76046E9E7184695E76746F8
:10CE2000D1E781467CE702382C4447E7ACF1020C9D
:10CE30002B442FE7384608E73746E9E6704700BF3E
:10CE400008B5074B044613B10021AFF30080054B32
:10CE50001868836A03B19847204600F04BF800BF7A
:10CE600000000000B8D0070070B50D4E0D4CA41B9B
:10CE7000A4100025A54209D10B4E0C4C00F03CF843
:10CE8000A41BA4100025A54205D170BD56F825307D
:10CE900098470135EEE756F8253098470135F2E717
:10CEA000740000207400002074000020780000202E
:10CEB00030B50024A24201D1002007E0035D013417
:10CEC0000D1915F8015CAB42F4D0581B30BD10B5FC
:10CED000431E0A44914200D110BD11F8014B03F8E2
:10CEE000014FF7E702440346934200D1704703F82D
:10CEF000011BF9E7FEE700BFF8B500BFF8BC08BCAE
:10CF00009E467047F8B500BFF8BC08BC9E46704707
:10CF1000FFFF000002030001020000001A000000F1
:10CF20005000000096C298D84539A1F4A033EB2DEB
:10CF3000817D0377F240A463E5E6BCF847422CE12B
:10CF4000F2D1176BF551BF376840B6CBCE5E316B6F
:10CF50005733CE2B169E0F7C4AEBE78E9B7F1AFE33
:10CF6000E242E34F512563FCC2CAB9F3849E17A77E
:10CF7000ADFAE6BCFFFFFFFFFFFFFFFF0000000070
:10CF8000FFFFFFFFFFFFFFFFFFFFFFFFFFFFFFFFB1
:10CF90000000000000000000000000000100000090
:10CFA000FFFFFFFF982F8A4291443771CFFBC0B536
:10CFB000A5DBB5E95BC25639F111F159A4823F9264
:10CFC000D55E1CAB98AA07D8015B8312BE853124BD
:10CFD000C37D0C55745DBE72FEB1DE80A706DC9B7E
:10CFE00074F19BC1C1699BE48647BEEFC69DC10F2A
:10CFF000CCA10C246F2CE92DAA84744ADCA9B05C66
:10D00000DA88F97652513E986DC631A8C82703B028
:10D01000C77F59BFF30BE0C64791A7D55163CA0636
:10D0200067292914850AB72738211B2EFC6D2C4D42
:10D03000130D385354730A65BB0A6A762EC9C28130
:10D04000852C7292A1E8BFA24B661AA8708B4BC2C6
:10D05000A3516CC719E892D1240699D685350EF4F0
:10D0600070A06A1016C1A419086C371E4C774827A7
:10D07000B5BCB034B30C1C394AAAD84E4FCA9C5B1D
:10D08000F36F2E68EE828F746F63A5781478C8846E
:10D090000802C78CFAFFBE90EB6C50A4F7A3F9BE50
:10D0A000F27871C60083838086908285838485852B
:10D0B0008480858685860000140000200000000022
:08D0C00080B1FF7F01000000B8
:10D0C800D6BE898E03000000A50900200090D00379
:10D0D8000000000000000000000000000000000048
:10D0E8000000000000000000000000000000000038
:10D0F8000000000000000000000000000000000028
:10D108000000000000000000000000000000000017
:10D118000000000000000000000000000000000007
:10D1280000000000000000000000000000000000F7
:08D138002582070001820700B7
:020000020000FC
:020000041000EA
:041014000080070051
:04101800007007005D
:040000037000CB05B9
:00000001FF
