Archive member included to satisfy reference by file (symbol)

c:/mesh/arm_gcc/bin/../lib/gcc/arm-none-eabi/7.3.1/thumb/v7e-m/fpv4-sp/hard\libgcc.a(_aeabi_ldivmod.o)
                              mesh/bootloader/CMakeFiles/mesh_bootloader_gccarmemb_nrf52840_xxAA.dir/src/bootloader.c.obj (__aeabi_ldivmod)
c:/mesh/arm_gcc/bin/../lib/gcc/arm-none-eabi/7.3.1/thumb/v7e-m/fpv4-sp/hard\libgcc.a(_aeabi_uldivmod.o)
                              mesh/bootloader/CMakeFiles/mesh_bootloader_gccarmemb_nrf52840_xxAA.dir/src/bootloader.c.obj (__aeabi_uldivmod)
c:/mesh/arm_gcc/bin/../lib/gcc/arm-none-eabi/7.3.1/thumb/v7e-m/fpv4-sp/hard\libgcc.a(_udivmoddi4.o)
                              c:/mesh/arm_gcc/bin/../lib/gcc/arm-none-eabi/7.3.1/thumb/v7e-m/fpv4-sp/hard\libgcc.a(_aeabi_ldivmod.o) (__udivmoddi4)
c:/mesh/arm_gcc/bin/../lib/gcc/arm-none-eabi/7.3.1/thumb/v7e-m/fpv4-sp/hard\libgcc.a(_dvmd_tls.o)
                              c:/mesh/arm_gcc/bin/../lib/gcc/arm-none-eabi/7.3.1/thumb/v7e-m/fpv4-sp/hard\libgcc.a(_aeabi_ldivmod.o) (__aeabi_ldiv0)
c:/mesh/arm_gcc/bin/../lib/gcc/arm-none-eabi/7.3.1/../../../../arm-none-eabi/lib/thumb/v7e-m/fpv4-sp/hard\libg_nano.a(lib_a-exit.o)
                              c:/mesh/arm_gcc/bin/../lib/gcc/arm-none-eabi/7.3.1/../../../../arm-none-eabi/lib/thumb/v7e-m/fpv4-sp/hard/crt0.o (exit)
c:/mesh/arm_gcc/bin/../lib/gcc/arm-none-eabi/7.3.1/../../../../arm-none-eabi/lib/thumb/v7e-m/fpv4-sp/hard\libg_nano.a(lib_a-impure.o)
                              c:/mesh/arm_gcc/bin/../lib/gcc/arm-none-eabi/7.3.1/../../../../arm-none-eabi/lib/thumb/v7e-m/fpv4-sp/hard\libg_nano.a(lib_a-exit.o) (_global_impure_ptr)
c:/mesh/arm_gcc/bin/../lib/gcc/arm-none-eabi/7.3.1/../../../../arm-none-eabi/lib/thumb/v7e-m/fpv4-sp/hard\libg_nano.a(lib_a-init.o)
                              c:/mesh/arm_gcc/bin/../lib/gcc/arm-none-eabi/7.3.1/../../../../arm-none-eabi/lib/thumb/v7e-m/fpv4-sp/hard/crt0.o (__libc_init_array)
c:/mesh/arm_gcc/bin/../lib/gcc/arm-none-eabi/7.3.1/../../../../arm-none-eabi/lib/thumb/v7e-m/fpv4-sp/hard\libg_nano.a(lib_a-memcmp.o)
                              mesh/bootloader/CMakeFiles/mesh_bootloader_gccarmemb_nrf52840_xxAA.dir/src/dfu_bank.c.obj (memcmp)
c:/mesh/arm_gcc/bin/../lib/gcc/arm-none-eabi/7.3.1/../../../../arm-none-eabi/lib/thumb/v7e-m/fpv4-sp/hard\libg_nano.a(lib_a-memcpy-stub.o)
                              mesh/bootloader/CMakeFiles/mesh_bootloader_gccarmemb_nrf52840_xxAA.dir/src/bootloader.c.obj (memcpy)
c:/mesh/arm_gcc/bin/../lib/gcc/arm-none-eabi/7.3.1/../../../../arm-none-eabi/lib/thumb/v7e-m/fpv4-sp/hard\libg_nano.a(lib_a-memset.o)
                              c:/mesh/arm_gcc/bin/../lib/gcc/arm-none-eabi/7.3.1/../../../../arm-none-eabi/lib/thumb/v7e-m/fpv4-sp/hard/crt0.o (memset)
c:/mesh/arm_gcc/bin/../lib/gcc/arm-none-eabi/7.3.1/../../../../arm-none-eabi/lib/thumb/v7e-m/fpv4-sp/hard\libnosys.a(_exit.o)
                              c:/mesh/arm_gcc/bin/../lib/gcc/arm-none-eabi/7.3.1/../../../../arm-none-eabi/lib/thumb/v7e-m/fpv4-sp/hard\libg_nano.a(lib_a-exit.o) (_exit)

Allocating common symbols
Common symbol       size              file

m_tx_evt_bitfield   0x2               mesh/bootloader/CMakeFiles/mesh_bootloader_gccarmemb_nrf52840_xxAA.dir/src/transport.c.obj

Discarded input sections

 .text          0x00000000        0x0 c:/mesh/arm_gcc/bin/../lib/gcc/arm-none-eabi/7.3.1/thumb/v7e-m/fpv4-sp/hard/crti.o
 .data          0x00000000        0x0 c:/mesh/arm_gcc/bin/../lib/gcc/arm-none-eabi/7.3.1/thumb/v7e-m/fpv4-sp/hard/crti.o
 .bss           0x00000000        0x0 c:/mesh/arm_gcc/bin/../lib/gcc/arm-none-eabi/7.3.1/thumb/v7e-m/fpv4-sp/hard/crti.o
 .data          0x00000000        0x4 c:/mesh/arm_gcc/bin/../lib/gcc/arm-none-eabi/7.3.1/thumb/v7e-m/fpv4-sp/hard/crtbegin.o
 .data          0x00000000        0x0 c:/mesh/arm_gcc/bin/../lib/gcc/arm-none-eabi/7.3.1/../../../../arm-none-eabi/lib/thumb/v7e-m/fpv4-sp/hard/crt0.o
 .bss           0x00000000        0x0 c:/mesh/arm_gcc/bin/../lib/gcc/arm-none-eabi/7.3.1/../../../../arm-none-eabi/lib/thumb/v7e-m/fpv4-sp/hard/crt0.o
 .ARM.extab     0x00000000        0x0 c:/mesh/arm_gcc/bin/../lib/gcc/arm-none-eabi/7.3.1/../../../../arm-none-eabi/lib/thumb/v7e-m/fpv4-sp/hard/crt0.o
 .text          0x00000000        0x0 mesh/bootloader/CMakeFiles/mesh_bootloader_gccarmemb_nrf52840_xxAA.dir/src/bootloader.c.obj
 .data          0x00000000        0x0 mesh/bootloader/CMakeFiles/mesh_bootloader_gccarmemb_nrf52840_xxAA.dir/src/bootloader.c.obj
 .bss           0x00000000        0x0 mesh/bootloader/CMakeFiles/mesh_bootloader_gccarmemb_nrf52840_xxAA.dir/src/bootloader.c.obj
 .text          0x00000000        0x0 mesh/bootloader/CMakeFiles/mesh_bootloader_gccarmemb_nrf52840_xxAA.dir/src/bootloader_app_bridge.c.obj
 .data          0x00000000        0x0 mesh/bootloader/CMakeFiles/mesh_bootloader_gccarmemb_nrf52840_xxAA.dir/src/bootloader_app_bridge.c.obj
 .bss           0x00000000        0x0 mesh/bootloader/CMakeFiles/mesh_bootloader_gccarmemb_nrf52840_xxAA.dir/src/bootloader_app_bridge.c.obj
 .text.timer_set
                0x00000000       0x1c mesh/bootloader/CMakeFiles/mesh_bootloader_gccarmemb_nrf52840_xxAA.dir/src/bootloader_app_bridge.c.obj
 .text.timer_abort
                0x00000000       0x1a mesh/bootloader/CMakeFiles/mesh_bootloader_gccarmemb_nrf52840_xxAA.dir/src/bootloader_app_bridge.c.obj
 .text.bootloader_error_post
Memory Configuration

Name             Origin             Length             Attributes
FLASH            0x000f8000         0x00006000         xr
RAM              0x20000004         0x0003fcfc         rw
CORE_BL_RAM      0x2003fd00         0x00000300         rw
UICR_BOOTADDR    0x10001014         0x00000004         r
UICR_MBRPARAMADDR 0x10001018         0x00000004         r
*default*        0x00000000         0xffffffff

Linker script and memory map

LOAD c:/mesh/arm_gcc/bin/../lib/gcc/arm-none-eabi/7.3.1/thumb/v7e-m/fpv4-sp/hard/crti.o
LOAD c:/mesh/arm_gcc/bin/../lib/gcc/arm-none-eabi/7.3.1/thumb/v7e-m/fpv4-sp/hard/crtbegin.o
LOAD c:/mesh/arm_gcc/bin/../lib/gcc/arm-none-eabi/7.3.1/../../../../arm-none-eabi/lib/thumb/v7e-m/fpv4-sp/hard/crt0.o
LOAD mesh/bootloader/CMakeFiles/mesh_bootloader_gccarmemb_nrf52840_xxAA.dir/src/bootloader.c.obj
LOAD mesh/bootloader/CMakeFiles/mesh_bootloader_gccarmemb_nrf52840_xxAA.dir/src/bootloader_app_bridge.c.obj
LOAD mesh/bootloader/CMakeFiles/mesh_bootloader_gccarmemb_nrf52840_xxAA.dir/src/bootloader_info.c.obj
LOAD mesh/bootloader/CMakeFiles/mesh_bootloader_gccarmemb_nrf52840_xxAA.dir/src/bootloader_rtc.c.obj
LOAD mesh/bootloader/CMakeFiles/mesh_bootloader_gccarmemb_nrf52840_xxAA.dir/src/bootloader_util.c.obj
LOAD mesh/bootloader/CMakeFiles/mesh_bootloader_gccarmemb_nrf52840_xxAA.dir/src/dfu_bank.c.obj
LOAD mesh/bootloader/CMakeFiles/mesh_bootloader_gccarmemb_nrf52840_xxAA.dir/src/dfu_mesh.c.obj
LOAD mesh/bootloader/CMakeFiles/mesh_bootloader_gccarmemb_nrf52840_xxAA.dir/src/dfu_transfer_mesh.c.obj
LOAD mesh/bootloader/CMakeFiles/mesh_bootloader_gccarmemb_nrf52840_xxAA.dir/src/dfu_util.c.obj
LOAD mesh/bootloader/CMakeFiles/mesh_bootloader_gccarmemb_nrf52840_xxAA.dir/src/fifo.c.obj
LOAD mesh/bootloader/CMakeFiles/mesh_bootloader_gccarmemb_nrf52840_xxAA.dir/src/main.c.obj
LOAD mesh/bootloader/CMakeFiles/mesh_bootloader_gccarmemb_nrf52840_xxAA.dir/src/mesh_packet.c.obj
LOAD mesh/bootloader/CMakeFiles/mesh_bootloader_gccarmemb_nrf52840_xxAA.dir/src/nrf_flash.c.obj
LOAD mesh/bootloader/CMakeFiles/mesh_bootloader_gccarmemb_nrf52840_xxAA.dir/src/radio_control.c.obj
LOAD mesh/bootloader/CMakeFiles/mesh_bootloader_gccarmemb_nrf52840_xxAA.dir/src/rand.c.obj
LOAD mesh/bootloader/CMakeFiles/mesh_bootloader_gccarmemb_nrf52840_xxAA.dir/src/transport.c.obj
LOAD mesh/bootloader/CMakeFiles/mesh_bootloader_gccarmemb_nrf52840_xxAA.dir/src/uECC.c.obj
LOAD mesh/bootloader/CMakeFiles/mesh_bootloader_gccarmemb_nrf52840_xxAA.dir/C_/mesh/deps/nRF5_SDK_15.3.0_59ac345/components/libraries/sha256/sha256.c.obj
LOAD mesh/bootloader/CMakeFiles/mesh_bootloader_gccarmemb_nrf52840_xxAA.dir/C_/mesh/deps/nRF5_SDK_15.3.0_59ac345/modules/nrfx/mdk/system_nrf52840.c.obj
LOAD mesh/bootloader/CMakeFiles/mesh_bootloader_gccarmemb_nrf52840_xxAA.dir/C_/mesh/deps/nRF5_SDK_15.3.0_59ac345/modules/nrfx/mdk/gcc_startup_nrf52840.S.obj
START GROUP
LOAD c:/mesh/arm_gcc/bin/../lib/gcc/arm-none-eabi/7.3.1/thumb/v7e-m/fpv4-sp/hard\libgcc.a
LOAD c:/mesh/arm_gcc/bin/../lib/gcc/arm-none-eabi/7.3.1/../../../../arm-none-eabi/lib/thumb/v7e-m/fpv4-sp/hard\libg_nano.a
LOAD c:/mesh/arm_gcc/bin/../lib/gcc/arm-none-eabi/7.3.1/../../../../arm-none-eabi/lib/thumb/v7e-m/fpv4-sp/hard\libc_nano.a
END GROUP
START GROUP
LOAD c:/mesh/arm_gcc/bin/../lib/gcc/arm-none-eabi/7.3.1/thumb/v7e-m/fpv4-sp/hard\libgcc.a
LOAD c:/mesh/arm_gcc/bin/../lib/gcc/arm-none-eabi/7.3.1/../../../../arm-none-eabi/lib/thumb/v7e-m/fpv4-sp/hard\libc_nano.a
END GROUP
LOAD c:/mesh/arm_gcc/bin/../lib/gcc/arm-none-eabi/7.3.1/thumb/v7e-m/fpv4-sp/hard/crtend.o
LOAD c:/mesh/arm_gcc/bin/../lib/gcc/arm-none-eabi/7.3.1/thumb/v7e-m/fpv4-sp/hard/crtn.o
START GROUP
LOAD c:/mesh/arm_gcc/bin/../lib/gcc/arm-none-eabi/7.3.1/thumb/v7e-m/fpv4-sp/hard\libgcc.a
LOAD c:/mesh/arm_gcc/bin/../lib/gcc/arm-none-eabi/7.3.1/../../../../arm-none-eabi/lib/thumb/v7e-m/fpv4-sp/hard\libc.a
LOAD c:/mesh/arm_gcc/bin/../lib/gcc/arm-none-eabi/7.3.1/../../../../arm-none-eabi/lib/thumb/v7e-m/fpv4-sp/hard\libnosys.a
END GROUP

.core_data      0x2003fd00        0x4
                0x2003fd00                __core_ram_start__ = .
                0x2003fd00                . = ALIGN (0x4)
 *sha256.c.obj(.data*)
 *bootloader_app_bridge.c.obj(.data*)
 *bootloader_info.c.obj(.data*)
 *uECC.c.obj(.data*)
 *dfu_mesh.c.obj(.data*)
 .data.m_state  0x2003fd00        0x1 mesh/bootloader/CMakeFiles/mesh_bootloader_gccarmemb_nrf52840_xxAA.dir/src/dfu_mesh.c.obj
 .data.tx_slot.11737
                0x2003fd01        0x1 mesh/bootloader/CMakeFiles/mesh_bootloader_gccarmemb_nrf52840_xxAA.dir/src/dfu_mesh.c.obj
 *dfu_transfer_mesh.c.obj(.data*)
 *dfu_bank.c.obj(.data*)
 *dfu_util.c.obj(.data*)
                0x2003fd04                . = ALIGN (0x4)
 *fill*         0x2003fd02        0x2 
                0x2003fd04                __core_ram_end__ = .

.core_bss       0x2003fd08      0x210
                0x2003fd08                __core_ram_start__ = .
                0x2003fd08                . = ALIGN (0x4)
 *sha256.c.obj(.bss*)
 *bootloader_app_bridge.c.obj(.bss*)
 .bss.m_evt_handler
                0x2003fd08        0x4 mesh/bootloader/CMakeFiles/mesh_bootloader_gccarmemb_nrf52840_xxAA.dir/src/bootloader_app_bridge.c.obj
 .bss.m_in_bl   0x2003fd0c        0x1 mesh/bootloader/CMakeFiles/mesh_bootloader_gccarmemb_nrf52840_xxAA.dir/src/bootloader_app_bridge.c.obj
 *bootloader_info.c.obj(.bss*)
 *fill*         0x2003fd0d        0x3 
 .bss.m_info_copy
                0x2003fd10       0x1c mesh/bootloader/CMakeFiles/mesh_bootloader_gccarmemb_nrf52840_xxAA.dir/src/bootloader_info.c.obj
 .bss.m_state   0x2003fd2c        0x1 mesh/bootloader/CMakeFiles/mesh_bootloader_gccarmemb_nrf52840_xxAA.dir/src/bootloader_info.c.obj
 .bss.m_write_in_progress
                0x2003fd2d        0x1 mesh/bootloader/CMakeFiles/mesh_bootloader_gccarmemb_nrf52840_xxAA.dir/src/bootloader_info.c.obj
 *fill*         0x2003fd2e        0x2 
 .bss.mp_bl_info_bank_page
                0x2003fd30        0x4 mesh/bootloader/CMakeFiles/mesh_bootloader_gccarmemb_nrf52840_xxAA.dir/src/bootloader_info.c.obj
 .bss.mp_bl_info_page
                0x2003fd34        0x4 mesh/bootloader/CMakeFiles/mesh_bootloader_gccarmemb_nrf52840_xxAA.dir/src/bootloader_info.c.obj
 .bss.mp_info_entry_buffer
                0x2003fd38       0x80 mesh/bootloader/CMakeFiles/mesh_bootloader_gccarmemb_nrf52840_xxAA.dir/src/bootloader_info.c.obj
 .bss.mp_info_entry_head
                0x2003fdb8        0x4 mesh/bootloader/CMakeFiles/mesh_bootloader_gccarmemb_nrf52840_xxAA.dir/src/bootloader_info.c.obj
 .bss.mp_info_entry_tail
                0x2003fdbc        0x4 mesh/bootloader/CMakeFiles/mesh_bootloader_gccarmemb_nrf52840_xxAA.dir/src/bootloader_info.c.obj
 .bss.mp_write_pos
                0x2003fdc0        0x4 mesh/bootloader/CMakeFiles/mesh_bootloader_gccarmemb_nrf52840_xxAA.dir/src/bootloader_info.c.obj
 *uECC.c.obj(.bss*)
 *dfu_mesh.c.obj(.bss*)
 .bss.m_bl_info_pointers
                0x2003fdc4       0x28 mesh/bootloader/CMakeFiles/mesh_bootloader_gccarmemb_nrf52840_xxAA.dir/src/dfu_mesh.c.obj
 .bss.m_data_req_segment
                0x2003fdec        0x2 mesh/bootloader/CMakeFiles/mesh_bootloader_gccarmemb_nrf52840_xxAA.dir/src/dfu_mesh.c.obj
 .bss.m_req_cache
                0x2003fdee       0x10 mesh/bootloader/CMakeFiles/mesh_bootloader_gccarmemb_nrf52840_xxAA.dir/src/dfu_mesh.c.obj
 .bss.m_req_index
                0x2003fdfe        0x1 mesh/bootloader/CMakeFiles/mesh_bootloader_gccarmemb_nrf52840_xxAA.dir/src/dfu_mesh.c.obj
 *fill*         0x2003fdff        0x1 
 .bss.m_transaction
                0x2003fe00       0x74 mesh/bootloader/CMakeFiles/mesh_bootloader_gccarmemb_nrf52840_xxAA.dir/src/dfu_mesh.c.obj
 .bss.m_tx_slots
                0x2003fe74        0x1 mesh/bootloader/CMakeFiles/mesh_bootloader_gccarmemb_nrf52840_xxAA.dir/src/dfu_mesh.c.obj
 *dfu_transfer_mesh.c.obj(.bss*)
 *fill*         0x2003fe75        0x3 
 .bss.m_transfer
                0x2003fe78       0x30 mesh/bootloader/CMakeFiles/mesh_bootloader_gccarmemb_nrf52840_xxAA.dir/src/dfu_transfer_mesh.c.obj
 *dfu_bank.c.obj(.bss*)
 .bss.m_dfu_type
                0x2003fea8        0x1 mesh/bootloader/CMakeFiles/mesh_bootloader_gccarmemb_nrf52840_xxAA.dir/src/dfu_bank.c.obj
 .bss.m_waiting_for_idle
                0x2003fea9        0x1 mesh/bootloader/CMakeFiles/mesh_bootloader_gccarmemb_nrf52840_xxAA.dir/src/dfu_bank.c.obj
 *fill*         0x2003feaa        0x2 
 .bss.mp_bank_entry
                0x2003feac        0x4 mesh/bootloader/CMakeFiles/mesh_bootloader_gccarmemb_nrf52840_xxAA.dir/src/dfu_bank.c.obj
 *dfu_util.c.obj(.bss*)
 .bss.m_packet_cache
                0x2003feb0       0x40 mesh/bootloader/CMakeFiles/mesh_bootloader_gccarmemb_nrf52840_xxAA.dir/src/dfu_util.c.obj
 .bss.m_packet_cache_index
                0x2003fef0        0x4 mesh/bootloader/CMakeFiles/mesh_bootloader_gccarmemb_nrf52840_xxAA.dir/src/dfu_util.c.obj
 .bss.m_tid_cache
                0x2003fef4       0x20 mesh/bootloader/CMakeFiles/mesh_bootloader_gccarmemb_nrf52840_xxAA.dir/src/dfu_util.c.obj
 .bss.m_tid_index
                0x2003ff14        0x1 mesh/bootloader/CMakeFiles/mesh_bootloader_gccarmemb_nrf52840_xxAA.dir/src/dfu_util.c.obj
                0x2003ff18                . = ALIGN (0x4)
 *fill*         0x2003ff15        0x3 
                0x2003ff18                __core_ram_end__ = .

.uicrBootStartAddress
                0x10001014        0x4
 *(.uicrBootStartAddress)
 .uicrBootStartAddress
                0x10001014        0x4 mesh/bootloader/CMakeFiles/mesh_bootloader_gccarmemb_nrf52840_xxAA.dir/src/main.c.obj
                0x10001014                m_uicr_bootloader_start_address

.uicrBootMBRParamAddress
                0x10001018        0x4
 *(.uicrBootMBRParamAddress)
 .uicrBootMBRParamAddress
                0x10001018        0x4 mesh/bootloader/CMakeFiles/mesh_bootloader_gccarmemb_nrf52840_xxAA.dir/src/main.c.obj
                0x10001018                m_uicr_bootloader_mbrparam_address

.text           0x000f8000     0x4a30
 *(.isr_vector)
 .isr_vector    0x000f8000      0x200 mesh/bootloader/CMakeFiles/mesh_bootloader_gccarmemb_nrf52840_xxAA.dir/C_/mesh/deps/nRF5_SDK_15.3.0_59ac345/modules/nrfx/mdk/gcc_startup_nrf52840.S.obj
                0x000f8000                __isr_vector
 *(.text*)
 .text          0x000f8200       0x40 c:/mesh/arm_gcc/bin/../lib/gcc/arm-none-eabi/7.3.1/thumb/v7e-m/fpv4-sp/hard/crtbegin.o
 .text          0x000f8240       0x74 c:/mesh/arm_gcc/bin/../lib/gcc/arm-none-eabi/7.3.1/../../../../arm-none-eabi/lib/thumb/v7e-m/fpv4-sp/hard/crt0.o
                0x000f8240                _start
                0x000f8240                _mainCRTStartup
 .text.unlikely.sd_softdevice_vector_table_base_set
                0x000f82b4        0x4 mesh/bootloader/CMakeFiles/mesh_bootloader_gccarmemb_nrf52840_xxAA.dir/src/bootloader.c.obj
 .text.unlikely.sd_mbr_command
                0x000f82b8        0x4 mesh/bootloader/CMakeFiles/mesh_bootloader_gccarmemb_nrf52840_xxAA.dir/src/bootloader.c.obj
 .text.set_timeout
                0x000f82bc       0x2c mesh/bootloader/CMakeFiles/mesh_bootloader_gccarmemb_nrf52840_xxAA.dir/src/bootloader.c.obj
 .text.rx_cb    0x000f82e8       0x2e mesh/bootloader/CMakeFiles/mesh_bootloader_gccarmemb_nrf52840_xxAA.dir/src/bootloader.c.obj
 *fill*         0x000f8316        0x2 
 .text.SWI3_EGU3_IRQHandler
                0x000f8318       0xd4 mesh/bootloader/CMakeFiles/mesh_bootloader_gccarmemb_nrf52840_xxAA.dir/src/bootloader.c.obj
                0x000f8318                SWI3_EGU3_IRQHandler
 .text.bootloader_init
                0x000f83ec       0x9c mesh/bootloader/CMakeFiles/mesh_bootloader_gccarmemb_nrf52840_xxAA.dir/src/bootloader.c.obj
                0x000f83ec                bootloader_init
 .text.bootloader_enable
                0x000f8488       0xdc mesh/bootloader/CMakeFiles/mesh_bootloader_gccarmemb_nrf52840_xxAA.dir/src/bootloader.c.obj
                0x000f8488                bootloader_enable
 .text.bootloader_cmd_send
                0x000f8564        0x4 mesh/bootloader/CMakeFiles/mesh_bootloader_gccarmemb_nrf52840_xxAA.dir/src/bootloader.c.obj
                0x000f8564                bootloader_cmd_send
 .text.bootloader_abort
                0x000f8568       0x80 mesh/bootloader/CMakeFiles/mesh_bootloader_gccarmemb_nrf52840_xxAA.dir/src/bootloader.c.obj
                0x000f8568                bootloader_abort
 .text.bl_evt_handler
                0x000f85e8      0x238 mesh/bootloader/CMakeFiles/mesh_bootloader_gccarmemb_nrf52840_xxAA.dir/src/bootloader.c.obj
 .text.bootloader_timeout
                0x000f8820       0x4c mesh/bootloader/CMakeFiles/mesh_bootloader_gccarmemb_nrf52840_xxAA.dir/src/bootloader.c.obj
                0x000f8820                bootloader_timeout
 .text.bl_cmd_handler
                0x000f886c      0x148 mesh/bootloader/CMakeFiles/mesh_bootloader_gccarmemb_nrf52840_xxAA.dir/src/bootloader_app_bridge.c.obj
                0x000f886c                bl_cmd_handler
 .text.bootloader_app_bridge_init
                0x000f89b4       0x28 mesh/bootloader/CMakeFiles/mesh_bootloader_gccarmemb_nrf52840_xxAA.dir/src/bootloader_app_bridge.c.obj
                0x000f89b4                bootloader_app_bridge_init
 .text.bootloader_evt_send
                0x000f89dc       0x10 mesh/bootloader/CMakeFiles/mesh_bootloader_gccarmemb_nrf52840_xxAA.dir/src/bootloader_app_bridge.c.obj
                0x000f89dc                bootloader_evt_send
 .text.send_end_evt
                0x000f89ec       0x1a mesh/bootloader/CMakeFiles/mesh_bootloader_gccarmemb_nrf52840_xxAA.dir/src/bootloader_app_bridge.c.obj
                0x000f89ec                send_end_evt
 .text.flash_write
                0x000f8a06       0x2a mesh/bootloader/CMakeFiles/mesh_bootloader_gccarmemb_nrf52840_xxAA.dir/src/bootloader_app_bridge.c.obj
                0x000f8a06                flash_write
 .text.flash_erase
                0x000f8a30       0x26 mesh/bootloader/CMakeFiles/mesh_bootloader_gccarmemb_nrf52840_xxAA.dir/src/bootloader_app_bridge.c.obj
                0x000f8a30                flash_erase
 .text.tx_abort
                0x000f8a56       0x1a mesh/bootloader/CMakeFiles/mesh_bootloader_gccarmemb_nrf52840_xxAA.dir/src/bootloader_app_bridge.c.obj
                0x000f8a56                tx_abort
 .text.bootloader_is_in_application
                0x000f8a70       0x10 mesh/bootloader/CMakeFiles/mesh_bootloader_gccarmemb_nrf52840_xxAA.dir/src/bootloader_app_bridge.c.obj
                0x000f8a70                bootloader_is_in_application
 .text.info_entry_get
                0x000f8a80       0x40 mesh/bootloader/CMakeFiles/mesh_bootloader_gccarmemb_nrf52840_xxAA.dir/src/bootloader_info.c.obj
 .text.bootloader_info_header_get
                0x000f8ac0       0x1c mesh/bootloader/CMakeFiles/mesh_bootloader_gccarmemb_nrf52840_xxAA.dir/src/bootloader_info.c.obj
 .text.bootloader_info_first_unused_get
                0x000f8adc       0x16 mesh/bootloader/CMakeFiles/mesh_bootloader_gccarmemb_nrf52840_xxAA.dir/src/bootloader_info.c.obj
 *fill*         0x000f8af2        0x2 
 .text.entry_header_invalidate
                0x000f8af4       0x20 mesh/bootloader/CMakeFiles/mesh_bootloader_gccarmemb_nrf52840_xxAA.dir/src/bootloader_info.c.obj
 .text.copy_page_write_meta
                0x000f8b14       0x20 mesh/bootloader/CMakeFiles/mesh_bootloader_gccarmemb_nrf52840_xxAA.dir/src/bootloader_info.c.obj
 .text.copy_page_write_next_data
                0x000f8b34       0x74 mesh/bootloader/CMakeFiles/mesh_bootloader_gccarmemb_nrf52840_xxAA.dir/src/bootloader_info.c.obj
 .text.copy_page
                0x000f8ba8       0x34 mesh/bootloader/CMakeFiles/mesh_bootloader_gccarmemb_nrf52840_xxAA.dir/src/bootloader_info.c.obj
 .text.place_head_after_entry.constprop.1
                0x000f8bdc       0x40 mesh/bootloader/CMakeFiles/mesh_bootloader_gccarmemb_nrf52840_xxAA.dir/src/bootloader_info.c.obj
 .text.entry_invalidate
                0x000f8c1c       0x34 mesh/bootloader/CMakeFiles/mesh_bootloader_gccarmemb_nrf52840_xxAA.dir/src/bootloader_info.c.obj
                0x000f8c1c                entry_invalidate
 .text.entry_write
                0x000f8c50       0xf8 mesh/bootloader/CMakeFiles/mesh_bootloader_gccarmemb_nrf52840_xxAA.dir/src/bootloader_info.c.obj
                0x000f8c50                entry_write
 .text.bootloader_info_init
                0x000f8d48       0xc8 mesh/bootloader/CMakeFiles/mesh_bootloader_gccarmemb_nrf52840_xxAA.dir/src/bootloader_info.c.obj
                0x000f8d48                bootloader_info_init
 .text.bootloader_info_entry_get
                0x000f8e10        0xa mesh/bootloader/CMakeFiles/mesh_bootloader_gccarmemb_nrf52840_xxAA.dir/src/bootloader_info.c.obj
                0x000f8e10                bootloader_info_entry_get
 .text.bootloader_info_entry_overwrite
                0x000f8e1a       0x2a mesh/bootloader/CMakeFiles/mesh_bootloader_gccarmemb_nrf52840_xxAA.dir/src/bootloader_info.c.obj
                0x000f8e1a                bootloader_info_entry_overwrite
 .text.bootloader_info_entry_invalidate
                0x000f8e44        0xa mesh/bootloader/CMakeFiles/mesh_bootloader_gccarmemb_nrf52840_xxAA.dir/src/bootloader_info.c.obj
                0x000f8e44                bootloader_info_entry_invalidate
 *fill*         0x000f8e4e        0x2 
 .text.bootloader_info_reset
                0x000f8e50       0x40 mesh/bootloader/CMakeFiles/mesh_bootloader_gccarmemb_nrf52840_xxAA.dir/src/bootloader_info.c.obj
                0x000f8e50                bootloader_info_reset
 .text.bootloader_info_entry_put
                0x000f8e90       0xd0 mesh/bootloader/CMakeFiles/mesh_bootloader_gccarmemb_nrf52840_xxAA.dir/src/bootloader_info.c.obj
                0x000f8e90                bootloader_info_entry_put
 .text.bootloader_info_stable
                0x000f8f60       0x20 mesh/bootloader/CMakeFiles/mesh_bootloader_gccarmemb_nrf52840_xxAA.dir/src/bootloader_info.c.obj
                0x000f8f60                bootloader_info_stable
 .text.bootloader_info_on_flash_op_end
                0x000f8f80      0x118 mesh/bootloader/CMakeFiles/mesh_bootloader_gccarmemb_nrf52840_xxAA.dir/src/bootloader_info.c.obj
                0x000f8f80                bootloader_info_on_flash_op_end
 .text.bootloader_info_on_flash_idle
                0x000f9098       0x40 mesh/bootloader/CMakeFiles/mesh_bootloader_gccarmemb_nrf52840_xxAA.dir/src/bootloader_info.c.obj
                0x000f9098                bootloader_info_on_flash_idle
 .text.RTC0_IRQHandler
                0x000f90d8       0x48 mesh/bootloader/CMakeFiles/mesh_bootloader_gccarmemb_nrf52840_xxAA.dir/src/bootloader_rtc.c.obj
                0x000f90d8                RTC0_IRQHandler
 .text.rtc_init
                0x000f9120       0x30 mesh/bootloader/CMakeFiles/mesh_bootloader_gccarmemb_nrf52840_xxAA.dir/src/bootloader_rtc.c.obj
                0x000f9120                rtc_init
 .text.bootloader_util_app_start
                0x000f9150       0x3c mesh/bootloader/CMakeFiles/mesh_bootloader_gccarmemb_nrf52840_xxAA.dir/src/bootloader_util.c.obj
                0x000f9150                bootloader_util_app_start
 .text.sd_mbr_command
                0x000f918c        0x4 mesh/bootloader/CMakeFiles/mesh_bootloader_gccarmemb_nrf52840_xxAA.dir/src/dfu_bank.c.obj
 .text.flash_bank_entry
                0x000f9190      0x2c0 mesh/bootloader/CMakeFiles/mesh_bootloader_gccarmemb_nrf52840_xxAA.dir/src/dfu_bank.c.obj
 .text.dfu_bank_scan
                0x000f9450       0x4c mesh/bootloader/CMakeFiles/mesh_bootloader_gccarmemb_nrf52840_xxAA.dir/src/dfu_bank.c.obj
                0x000f9450                dfu_bank_scan
 .text.dfu_bank_flash
                0x000f949c       0x48 mesh/bootloader/CMakeFiles/mesh_bootloader_gccarmemb_nrf52840_xxAA.dir/src/dfu_bank.c.obj
                0x000f949c                dfu_bank_flash
 .text.dfu_bank_on_flash_idle
                0x000f94e4       0x20 mesh/bootloader/CMakeFiles/mesh_bootloader_gccarmemb_nrf52840_xxAA.dir/src/dfu_bank.c.obj
                0x000f94e4                dfu_bank_on_flash_idle
 .text.dfu_bank_transfer_in_progress
                0x000f9504       0x10 mesh/bootloader/CMakeFiles/mesh_bootloader_gccarmemb_nrf52840_xxAA.dir/src/dfu_bank.c.obj
                0x000f9504                dfu_bank_transfer_in_progress
 .text.segment_count_from_start_packet
                0x000f9514       0x2c mesh/bootloader/CMakeFiles/mesh_bootloader_gccarmemb_nrf52840_xxAA.dir/src/dfu_mesh.c.obj
 .text.get_info_pointers
                0x000f9540       0x68 mesh/bootloader/CMakeFiles/mesh_bootloader_gccarmemb_nrf52840_xxAA.dir/src/dfu_mesh.c.obj
 .text.beacon_set
                0x000f95a8       0xf0 mesh/bootloader/CMakeFiles/mesh_bootloader_gccarmemb_nrf52840_xxAA.dir/src/dfu_mesh.c.obj
 .text.start_find_fwid
                0x000f9698       0x24 mesh/bootloader/CMakeFiles/mesh_bootloader_gccarmemb_nrf52840_xxAA.dir/src/dfu_mesh.c.obj
 .text.notify_state_packet
                0x000f96bc       0x38 mesh/bootloader/CMakeFiles/mesh_bootloader_gccarmemb_nrf52840_xxAA.dir/src/dfu_mesh.c.obj
 .text.packet_tx_dynamic.constprop.3
                0x000f96f4       0x4c mesh/bootloader/CMakeFiles/mesh_bootloader_gccarmemb_nrf52840_xxAA.dir/src/dfu_mesh.c.obj
 .text.relay_packet
                0x000f9740       0x30 mesh/bootloader/CMakeFiles/mesh_bootloader_gccarmemb_nrf52840_xxAA.dir/src/dfu_mesh.c.obj
 .text.start_req
                0x000f9770       0x58 mesh/bootloader/CMakeFiles/mesh_bootloader_gccarmemb_nrf52840_xxAA.dir/src/dfu_mesh.c.obj
 .text.handle_data_packet
                0x000f97c8      0x528 mesh/bootloader/CMakeFiles/mesh_bootloader_gccarmemb_nrf52840_xxAA.dir/src/dfu_mesh.c.obj
 .text.dfu_mesh_init
                0x000f9cf0       0x44 mesh/bootloader/CMakeFiles/mesh_bootloader_gccarmemb_nrf52840_xxAA.dir/src/dfu_mesh.c.obj
                0x000f9cf0                dfu_mesh_init
 .text.dfu_mesh_start
                0x000f9d34       0xe8 mesh/bootloader/CMakeFiles/mesh_bootloader_gccarmemb_nrf52840_xxAA.dir/src/dfu_mesh.c.obj
                0x000f9d34                dfu_mesh_start
 .text.dfu_mesh_req
                0x000f9e1c       0x34 mesh/bootloader/CMakeFiles/mesh_bootloader_gccarmemb_nrf52840_xxAA.dir/src/dfu_mesh.c.obj
                0x000f9e1c                dfu_mesh_req
 .text.dfu_mesh_relay
                0x000f9e50       0x4c mesh/bootloader/CMakeFiles/mesh_bootloader_gccarmemb_nrf52840_xxAA.dir/src/dfu_mesh.c.obj
                0x000f9e50                dfu_mesh_relay
 .text.dfu_mesh_rx
                0x000f9e9c      0x2ec mesh/bootloader/CMakeFiles/mesh_bootloader_gccarmemb_nrf52840_xxAA.dir/src/dfu_mesh.c.obj
                0x000f9e9c                dfu_mesh_rx
 .text.dfu_mesh_missing_type_get
                0x000fa188       0x4c mesh/bootloader/CMakeFiles/mesh_bootloader_gccarmemb_nrf52840_xxAA.dir/src/dfu_mesh.c.obj
                0x000fa188                dfu_mesh_missing_type_get
 .text.dfu_mesh_app_is_valid
                0x000fa1d4       0x34 mesh/bootloader/CMakeFiles/mesh_bootloader_gccarmemb_nrf52840_xxAA.dir/src/dfu_mesh.c.obj
                0x000fa1d4                dfu_mesh_app_is_valid
 .text.dfu_mesh_finalize
                0x000fa208      0x14c mesh/bootloader/CMakeFiles/mesh_bootloader_gccarmemb_nrf52840_xxAA.dir/src/dfu_mesh.c.obj
                0x000fa208                dfu_mesh_finalize
 .text.dfu_mesh_timeout
                0x000fa354       0xd4 mesh/bootloader/CMakeFiles/mesh_bootloader_gccarmemb_nrf52840_xxAA.dir/src/dfu_mesh.c.obj
                0x000fa354                dfu_mesh_timeout
 .text.dfu_mesh_restart
                0x000fa428        0x4 mesh/bootloader/CMakeFiles/mesh_bootloader_gccarmemb_nrf52840_xxAA.dir/src/dfu_mesh.c.obj
                0x000fa428                dfu_mesh_restart
 .text.dfu_mesh_on_flash_idle
                0x000fa42c       0x50 mesh/bootloader/CMakeFiles/mesh_bootloader_gccarmemb_nrf52840_xxAA.dir/src/dfu_mesh.c.obj
                0x000fa42c                dfu_mesh_on_flash_idle
 .text.segment_is_missing
                0x000fa47c       0x3c mesh/bootloader/CMakeFiles/mesh_bootloader_gccarmemb_nrf52840_xxAA.dir/src/dfu_transfer_mesh.c.obj
 .text.dfu_transfer_init
                0x000fa4b8       0x1c mesh/bootloader/CMakeFiles/mesh_bootloader_gccarmemb_nrf52840_xxAA.dir/src/dfu_transfer_mesh.c.obj
                0x000fa4b8                dfu_transfer_init
 .text.dfu_transfer_start
                0x000fa4d4       0x74 mesh/bootloader/CMakeFiles/mesh_bootloader_gccarmemb_nrf52840_xxAA.dir/src/dfu_transfer_mesh.c.obj
                0x000fa4d4                dfu_transfer_start
 .text.dfu_transfer_data
                0x000fa548      0x184 mesh/bootloader/CMakeFiles/mesh_bootloader_gccarmemb_nrf52840_xxAA.dir/src/dfu_transfer_mesh.c.obj
                0x000fa548                dfu_transfer_data
 .text.dfu_transfer_has_entry
                0x000fa6cc       0x58 mesh/bootloader/CMakeFiles/mesh_bootloader_gccarmemb_nrf52840_xxAA.dir/src/dfu_transfer_mesh.c.obj
                0x000fa6cc                dfu_transfer_has_entry
 .text.dfu_transfer_get_oldest_missing_entry
                0x000fa724       0x7c mesh/bootloader/CMakeFiles/mesh_bootloader_gccarmemb_nrf52840_xxAA.dir/src/dfu_transfer_mesh.c.obj
                0x000fa724                dfu_transfer_get_oldest_missing_entry
 .text.dfu_transfer_sha256
                0x000fa7a0       0x1c mesh/bootloader/CMakeFiles/mesh_bootloader_gccarmemb_nrf52840_xxAA.dir/src/dfu_transfer_mesh.c.obj
                0x000fa7a0                dfu_transfer_sha256
 .text.dfu_transfer_end
                0x000fa7bc        0x4 mesh/bootloader/CMakeFiles/mesh_bootloader_gccarmemb_nrf52840_xxAA.dir/src/dfu_transfer_mesh.c.obj
                0x000fa7bc                dfu_transfer_end
 .text.dfu_transfer_flash_write_complete
                0x000fa7c0       0x18 mesh/bootloader/CMakeFiles/mesh_bootloader_gccarmemb_nrf52840_xxAA.dir/src/dfu_transfer_mesh.c.obj
                0x000fa7c0                dfu_transfer_flash_write_complete
 .text.fwid_union_cpy
                0x000fa7d8       0x1e mesh/bootloader/CMakeFiles/mesh_bootloader_gccarmemb_nrf52840_xxAA.dir/src/dfu_util.c.obj
                0x000fa7d8                fwid_union_cpy
 .text.fwid_union_cmp
                0x000fa7f6       0x2c mesh/bootloader/CMakeFiles/mesh_bootloader_gccarmemb_nrf52840_xxAA.dir/src/dfu_util.c.obj
                0x000fa7f6                fwid_union_cmp
 .text.fwid_union_id_cmp
                0x000fa822       0x30 mesh/bootloader/CMakeFiles/mesh_bootloader_gccarmemb_nrf52840_xxAA.dir/src/dfu_util.c.obj
                0x000fa822                fwid_union_id_cmp
 .text.fwid_union_version_cmp
                0x000fa852       0x28 mesh/bootloader/CMakeFiles/mesh_bootloader_gccarmemb_nrf52840_xxAA.dir/src/dfu_util.c.obj
                0x000fa852                fwid_union_version_cmp
 .text.addr_from_seg
                0x000fa87a       0x14 mesh/bootloader/CMakeFiles/mesh_bootloader_gccarmemb_nrf52840_xxAA.dir/src/dfu_util.c.obj
                0x000fa87a                addr_from_seg
 .text.is_upgrade
                0x000fa88e       0x88 mesh/bootloader/CMakeFiles/mesh_bootloader_gccarmemb_nrf52840_xxAA.dir/src/dfu_util.c.obj
                0x000fa88e                is_upgrade
 .text.app_is_newer
                0x000fa916       0x30 mesh/bootloader/CMakeFiles/mesh_bootloader_gccarmemb_nrf52840_xxAA.dir/src/dfu_util.c.obj
                0x000fa916                app_is_newer
 .text.bootloader_is_newer
                0x000fa946       0x2e mesh/bootloader/CMakeFiles/mesh_bootloader_gccarmemb_nrf52840_xxAA.dir/src/dfu_util.c.obj
                0x000fa946                bootloader_is_newer
 .text.fw_is_verified
                0x000fa974       0x1c mesh/bootloader/CMakeFiles/mesh_bootloader_gccarmemb_nrf52840_xxAA.dir/src/dfu_util.c.obj
                0x000fa974                fw_is_verified
 .text.tid_cache_entry_put
                0x000fa990       0x1c mesh/bootloader/CMakeFiles/mesh_bootloader_gccarmemb_nrf52840_xxAA.dir/src/dfu_util.c.obj
                0x000fa990                tid_cache_entry_put
 .text.tid_cache_has_entry
                0x000fa9ac       0x20 mesh/bootloader/CMakeFiles/mesh_bootloader_gccarmemb_nrf52840_xxAA.dir/src/dfu_util.c.obj
                0x000fa9ac                tid_cache_has_entry
 .text.ready_packet_matches_our_req
                0x000fa9cc       0x3c mesh/bootloader/CMakeFiles/mesh_bootloader_gccarmemb_nrf52840_xxAA.dir/src/dfu_util.c.obj
                0x000fa9cc                ready_packet_matches_our_req
 .text.packet_in_cache
                0x000faa08       0x30 mesh/bootloader/CMakeFiles/mesh_bootloader_gccarmemb_nrf52840_xxAA.dir/src/dfu_util.c.obj
                0x000faa08                packet_in_cache
 .text.packet_cache_put
                0x000faa38       0x28 mesh/bootloader/CMakeFiles/mesh_bootloader_gccarmemb_nrf52840_xxAA.dir/src/dfu_util.c.obj
                0x000faa38                packet_cache_put
 .text.packet_cache_flush
                0x000faa60       0x1c mesh/bootloader/CMakeFiles/mesh_bootloader_gccarmemb_nrf52840_xxAA.dir/src/dfu_util.c.obj
                0x000faa60                packet_cache_flush
 .text.section_overlap
                0x000faa7c       0x22 mesh/bootloader/CMakeFiles/mesh_bootloader_gccarmemb_nrf52840_xxAA.dir/src/dfu_util.c.obj
                0x000faa7c                section_overlap
 *fill*         0x000faa9e        0x2 
 .text.interrupts_disable
                0x000faaa0       0x24 mesh/bootloader/CMakeFiles/mesh_bootloader_gccarmemb_nrf52840_xxAA.dir/src/dfu_util.c.obj
                0x000faaa0                interrupts_disable
 .text.fifo_init
                0x000faac4       0x1e mesh/bootloader/CMakeFiles/mesh_bootloader_gccarmemb_nrf52840_xxAA.dir/src/fifo.c.obj
                0x000faac4                fifo_init
 .text.fifo_push
                0x000faae2       0x4e mesh/bootloader/CMakeFiles/mesh_bootloader_gccarmemb_nrf52840_xxAA.dir/src/fifo.c.obj
                0x000faae2                fifo_push
 .text.fifo_pop
                0x000fab30       0x4a mesh/bootloader/CMakeFiles/mesh_bootloader_gccarmemb_nrf52840_xxAA.dir/src/fifo.c.obj
                0x000fab30                fifo_pop
 .text.fifo_peek_at
                0x000fab7a       0x4e mesh/bootloader/CMakeFiles/mesh_bootloader_gccarmemb_nrf52840_xxAA.dir/src/fifo.c.obj
                0x000fab7a                fifo_peek_at
 .text.fifo_peek
                0x000fabc8        0x6 mesh/bootloader/CMakeFiles/mesh_bootloader_gccarmemb_nrf52840_xxAA.dir/src/fifo.c.obj
                0x000fabc8                fifo_peek
 .text.fifo_get_len
                0x000fabce        0x8 mesh/bootloader/CMakeFiles/mesh_bootloader_gccarmemb_nrf52840_xxAA.dir/src/fifo.c.obj
                0x000fabce                fifo_get_len
 .text.fifo_is_empty
                0x000fabd6        0xc mesh/bootloader/CMakeFiles/mesh_bootloader_gccarmemb_nrf52840_xxAA.dir/src/fifo.c.obj
                0x000fabd6                fifo_is_empty
 .text.app_error_handler_bare
                0x000fabe2        0x6 mesh/bootloader/CMakeFiles/mesh_bootloader_gccarmemb_nrf52840_xxAA.dir/src/main.c.obj
                0x000fabe2                app_error_handler_bare
 .text.HardFault_Handler
                0x000fabe8        0x6 mesh/bootloader/CMakeFiles/mesh_bootloader_gccarmemb_nrf52840_xxAA.dir/src/main.c.obj
                0x000fabe8                HardFault_Handler
 *fill*         0x000fabee        0x2 
 .text.startup.main
                0x000fabf0       0x90 mesh/bootloader/CMakeFiles/mesh_bootloader_gccarmemb_nrf52840_xxAA.dir/src/main.c.obj
                0x000fabf0                main
 .text.mesh_packet_init
                0x000fac80       0x14 mesh/bootloader/CMakeFiles/mesh_bootloader_gccarmemb_nrf52840_xxAA.dir/src/mesh_packet.c.obj
                0x000fac80                mesh_packet_init
 .text.mesh_packet_acquire
                0x000fac94       0x3c mesh/bootloader/CMakeFiles/mesh_bootloader_gccarmemb_nrf52840_xxAA.dir/src/mesh_packet.c.obj
                0x000fac94                mesh_packet_acquire
 .text.mesh_packet_ref_count_inc
                0x000facd0       0x44 mesh/bootloader/CMakeFiles/mesh_bootloader_gccarmemb_nrf52840_xxAA.dir/src/mesh_packet.c.obj
                0x000facd0                mesh_packet_ref_count_inc
 .text.mesh_packet_ref_count_dec
                0x000fad14       0x48 mesh/bootloader/CMakeFiles/mesh_bootloader_gccarmemb_nrf52840_xxAA.dir/src/mesh_packet.c.obj
                0x000fad14                mesh_packet_ref_count_dec
 .text.mesh_packet_ref_count_get
                0x000fad5c       0x20 mesh/bootloader/CMakeFiles/mesh_bootloader_gccarmemb_nrf52840_xxAA.dir/src/mesh_packet.c.obj
                0x000fad5c                mesh_packet_ref_count_get
 .text.mesh_packet_set_local_addr
                0x000fad7c       0x28 mesh/bootloader/CMakeFiles/mesh_bootloader_gccarmemb_nrf52840_xxAA.dir/src/mesh_packet.c.obj
                0x000fad7c                mesh_packet_set_local_addr
 .text.mesh_packet_adv_data_get
                0x000fada4       0x48 mesh/bootloader/CMakeFiles/mesh_bootloader_gccarmemb_nrf52840_xxAA.dir/src/mesh_packet.c.obj
                0x000fada4                mesh_packet_adv_data_get
 .text.nrf_flash_erase
                0x000fadec       0x60 mesh/bootloader/CMakeFiles/mesh_bootloader_gccarmemb_nrf52840_xxAA.dir/src/nrf_flash.c.obj
                0x000fadec                nrf_flash_erase
 .text.nrf_flash_store
                0x000fae4c       0x70 mesh/bootloader/CMakeFiles/mesh_bootloader_gccarmemb_nrf52840_xxAA.dir/src/nrf_flash.c.obj
                0x000fae4c                nrf_flash_store
 .text.radio_init
                0x000faebc      0x118 mesh/bootloader/CMakeFiles/mesh_bootloader_gccarmemb_nrf52840_xxAA.dir/src/radio_control.c.obj
                0x000faebc                radio_init
 .text.radio_order
                0x000fafd4       0x4c mesh/bootloader/CMakeFiles/mesh_bootloader_gccarmemb_nrf52840_xxAA.dir/src/radio_control.c.obj
                0x000fafd4                radio_order
 .text.radio_disable
                0x000fb020       0x28 mesh/bootloader/CMakeFiles/mesh_bootloader_gccarmemb_nrf52840_xxAA.dir/src/radio_control.c.obj
                0x000fb020                radio_disable
 .text.radio_event_handler
                0x000fb048      0x1b0 mesh/bootloader/CMakeFiles/mesh_bootloader_gccarmemb_nrf52840_xxAA.dir/src/radio_control.c.obj
                0x000fb048                radio_event_handler
 .text.rand_prng_get
                0x000fb1f8       0x24 mesh/bootloader/CMakeFiles/mesh_bootloader_gccarmemb_nrf52840_xxAA.dir/src/rand.c.obj
                0x000fb1f8                rand_prng_get
 .text.rand_hw_rng_get
                0x000fb21c       0x30 mesh/bootloader/CMakeFiles/mesh_bootloader_gccarmemb_nrf52840_xxAA.dir/src/rand.c.obj
                0x000fb21c                rand_hw_rng_get
 .text.rand_prng_seed
                0x000fb24c       0x38 mesh/bootloader/CMakeFiles/mesh_bootloader_gccarmemb_nrf52840_xxAA.dir/src/rand.c.obj
                0x000fb24c                rand_prng_seed
 .text.order_next_rtc
                0x000fb284       0x68 mesh/bootloader/CMakeFiles/mesh_bootloader_gccarmemb_nrf52840_xxAA.dir/src/transport.c.obj
 .text.radio_tx_cb
                0x000fb2ec        0x4 mesh/bootloader/CMakeFiles/mesh_bootloader_gccarmemb_nrf52840_xxAA.dir/src/transport.c.obj
 .text.radio_rx_cb
                0x000fb2f0       0x30 mesh/bootloader/CMakeFiles/mesh_bootloader_gccarmemb_nrf52840_xxAA.dir/src/transport.c.obj
 .text.order_scan
                0x000fb320       0x3c mesh/bootloader/CMakeFiles/mesh_bootloader_gccarmemb_nrf52840_xxAA.dir/src/transport.c.obj
 .text.radio_idle_cb
                0x000fb35c       0x10 mesh/bootloader/CMakeFiles/mesh_bootloader_gccarmemb_nrf52840_xxAA.dir/src/transport.c.obj
 .text.set_next_tx
                0x000fb36c       0x80 mesh/bootloader/CMakeFiles/mesh_bootloader_gccarmemb_nrf52840_xxAA.dir/src/transport.c.obj
 .text.RADIO_IRQHandler
                0x000fb3ec        0x4 mesh/bootloader/CMakeFiles/mesh_bootloader_gccarmemb_nrf52840_xxAA.dir/src/transport.c.obj
                0x000fb3ec                RADIO_IRQHandler
 .text.timeslot_is_in_ts
                0x000fb3f0        0x4 mesh/bootloader/CMakeFiles/mesh_bootloader_gccarmemb_nrf52840_xxAA.dir/src/transport.c.obj
                0x000fb3f0                timeslot_is_in_ts
 .text.transport_init
                0x000fb3f4       0x8c mesh/bootloader/CMakeFiles/mesh_bootloader_gccarmemb_nrf52840_xxAA.dir/src/transport.c.obj
                0x000fb3f4                transport_init
 .text.transport_start
                0x000fb480       0x14 mesh/bootloader/CMakeFiles/mesh_bootloader_gccarmemb_nrf52840_xxAA.dir/src/transport.c.obj
                0x000fb480                transport_start
 .text.SWI0_EGU0_IRQHandler
                0x000fb494       0x4c mesh/bootloader/CMakeFiles/mesh_bootloader_gccarmemb_nrf52840_xxAA.dir/src/transport.c.obj
                0x000fb494                SWI0_EGU0_IRQHandler
 .text.transport_tx
                0x000fb4e0       0x70 mesh/bootloader/CMakeFiles/mesh_bootloader_gccarmemb_nrf52840_xxAA.dir/src/transport.c.obj
                0x000fb4e0                transport_tx
 .text.transport_tx_abort
                0x000fb550       0x40 mesh/bootloader/CMakeFiles/mesh_bootloader_gccarmemb_nrf52840_xxAA.dir/src/transport.c.obj
                0x000fb550                transport_tx_abort
 .text.transport_rtc_irq_handler
                0x000fb590       0xc0 mesh/bootloader/CMakeFiles/mesh_bootloader_gccarmemb_nrf52840_xxAA.dir/src/transport.c.obj
                0x000fb590                transport_rtc_irq_handler
 .text.vli_clear
                0x000fb650       0x10 mesh/bootloader/CMakeFiles/mesh_bootloader_gccarmemb_nrf52840_xxAA.dir/src/uECC.c.obj
 .text.vli_isZero
                0x000fb660       0x16 mesh/bootloader/CMakeFiles/mesh_bootloader_gccarmemb_nrf52840_xxAA.dir/src/uECC.c.obj
 .text.vli_testBit
                0x000fb676       0x14 mesh/bootloader/CMakeFiles/mesh_bootloader_gccarmemb_nrf52840_xxAA.dir/src/uECC.c.obj
 .text.vli_set  0x000fb68a       0x14 mesh/bootloader/CMakeFiles/mesh_bootloader_gccarmemb_nrf52840_xxAA.dir/src/uECC.c.obj
 .text.vli_cmp  0x000fb69e       0x28 mesh/bootloader/CMakeFiles/mesh_bootloader_gccarmemb_nrf52840_xxAA.dir/src/uECC.c.obj
 .text.vli_rshift1
                0x000fb6c6       0x1a mesh/bootloader/CMakeFiles/mesh_bootloader_gccarmemb_nrf52840_xxAA.dir/src/uECC.c.obj
 .text.vli_add  0x000fb6e0       0x2a mesh/bootloader/CMakeFiles/mesh_bootloader_gccarmemb_nrf52840_xxAA.dir/src/uECC.c.obj
 .text.vli_sub  0x000fb70a       0x2a mesh/bootloader/CMakeFiles/mesh_bootloader_gccarmemb_nrf52840_xxAA.dir/src/uECC.c.obj
 .text.vli_bytesToNative
                0x000fb734       0x18 mesh/bootloader/CMakeFiles/mesh_bootloader_gccarmemb_nrf52840_xxAA.dir/src/uECC.c.obj
 .text.vli_modInv
                0x000fb74c      0x11c mesh/bootloader/CMakeFiles/mesh_bootloader_gccarmemb_nrf52840_xxAA.dir/src/uECC.c.obj
 .text.vli_modSub.constprop.1
                0x000fb868       0x20 mesh/bootloader/CMakeFiles/mesh_bootloader_gccarmemb_nrf52840_xxAA.dir/src/uECC.c.obj
 .text.vli_modAdd.constprop.2
                0x000fb888       0x2c mesh/bootloader/CMakeFiles/mesh_bootloader_gccarmemb_nrf52840_xxAA.dir/src/uECC.c.obj
 .text.vli_numBits.constprop.3
                0x000fb8b4       0x2c mesh/bootloader/CMakeFiles/mesh_bootloader_gccarmemb_nrf52840_xxAA.dir/src/uECC.c.obj
 .text.vli_mult
                0x000fb8e0       0xbc mesh/bootloader/CMakeFiles/mesh_bootloader_gccarmemb_nrf52840_xxAA.dir/src/uECC.c.obj
 .text.vli_modMult_fast
                0x000fb99c      0x18c mesh/bootloader/CMakeFiles/mesh_bootloader_gccarmemb_nrf52840_xxAA.dir/src/uECC.c.obj
 .text.apply_z  0x000fbb28       0x34 mesh/bootloader/CMakeFiles/mesh_bootloader_gccarmemb_nrf52840_xxAA.dir/src/uECC.c.obj
 .text.XYcZ_add
                0x000fbb5c       0x9a mesh/bootloader/CMakeFiles/mesh_bootloader_gccarmemb_nrf52840_xxAA.dir/src/uECC.c.obj
 *fill*         0x000fbbf6        0x2 
 .text.vli_modMult_n
                0x000fbbf8       0x9c mesh/bootloader/CMakeFiles/mesh_bootloader_gccarmemb_nrf52840_xxAA.dir/src/uECC.c.obj
 .text.uECC_verify
                0x000fbc94      0x324 mesh/bootloader/CMakeFiles/mesh_bootloader_gccarmemb_nrf52840_xxAA.dir/src/uECC.c.obj
                0x000fbc94                uECC_verify
 .text.sha256_transform
                0x000fbfb8      0x134 mesh/bootloader/CMakeFiles/mesh_bootloader_gccarmemb_nrf52840_xxAA.dir/C_/mesh/deps/nRF5_SDK_15.3.0_59ac345/components/libraries/sha256/sha256.c.obj
                0x000fbfb8                sha256_transform
 .text.sha256_init
                0x000fc0ec       0x60 mesh/bootloader/CMakeFiles/mesh_bootloader_gccarmemb_nrf52840_xxAA.dir/C_/mesh/deps/nRF5_SDK_15.3.0_59ac345/components/libraries/sha256/sha256.c.obj
                0x000fc0ec                sha256_init
 .text.sha256_update
                0x000fc14c       0x48 mesh/bootloader/CMakeFiles/mesh_bootloader_gccarmemb_nrf52840_xxAA.dir/C_/mesh/deps/nRF5_SDK_15.3.0_59ac345/components/libraries/sha256/sha256.c.obj
                0x000fc14c                sha256_update
 .text.sha256_final
                0x000fc194      0x11c mesh/bootloader/CMakeFiles/mesh_bootloader_gccarmemb_nrf52840_xxAA.dir/C_/mesh/deps/nRF5_SDK_15.3.0_59ac345/components/libraries/sha256/sha256.c.obj
                0x000fc194                sha256_final
 .text.errata_98
                0x000fc2b0       0x20 mesh/bootloader/CMakeFiles/mesh_bootloader_gccarmemb_nrf52840_xxAA.dir/C_/mesh/deps/nRF5_SDK_15.3.0_59ac345/modules/nrfx/mdk/system_nrf52840.c.obj
 .text.SystemInit
                0x000fc2d0      0x1b8 mesh/bootloader/CMakeFiles/mesh_bootloader_gccarmemb_nrf52840_xxAA.dir/C_/mesh/deps/nRF5_SDK_15.3.0_59ac345/modules/nrfx/mdk/system_nrf52840.c.obj
                0x000fc2d0                SystemInit
 .text          0x000fc488       0x3c mesh/bootloader/CMakeFiles/mesh_bootloader_gccarmemb_nrf52840_xxAA.dir/C_/mesh/deps/nRF5_SDK_15.3.0_59ac345/modules/nrfx/mdk/gcc_startup_nrf52840.S.obj
                0x000fc488                Reset_Handler
                0x000fc4b0                NMI_Handler
                0x000fc4b4                MemoryManagement_Handler
                0x000fc4b6                BusFault_Handler
                0x000fc4b8                UsageFault_Handler
                0x000fc4ba                SVC_Handler
                0x000fc4bc                DebugMon_Handler
                0x000fc4be                PendSV_Handler
                0x000fc4c0                SysTick_Handler
                0x000fc4c2                PDM_IRQHandler
                0x000fc4c2                TEMP_IRQHandler
                0x000fc4c2                QDEC_IRQHandler
                0x000fc4c2                TIMER3_IRQHandler
                0x000fc4c2                PWM3_IRQHandler
                0x000fc4c2                FPU_IRQHandler
                0x000fc4c2                USBD_IRQHandler
                0x000fc4c2                SPIM0_SPIS0_TWIM0_TWIS0_SPI0_TWI0_IRQHandler
                0x000fc4c2                POWER_CLOCK_IRQHandler
                0x000fc4c2                UARTE0_UART0_IRQHandler
                0x000fc4c2                TIMER4_IRQHandler
                0x000fc4c2                CRYPTOCELL_IRQHandler
                0x000fc4c2                I2S_IRQHandler
                0x000fc4c2                SWI4_EGU4_IRQHandler
                0x000fc4c2                SWI2_EGU2_IRQHandler
                0x000fc4c2                PWM1_IRQHandler
                0x000fc4c2                UARTE1_IRQHandler
                0x000fc4c2                TIMER1_IRQHandler
                0x000fc4c2                SPIM3_IRQHandler
                0x000fc4c2                PWM2_IRQHandler
                0x000fc4c2                ECB_IRQHandler
                0x000fc4c2                SPIM1_SPIS1_TWIM1_TWIS1_SPI1_TWI1_IRQHandler
                0x000fc4c2                Default_Handler
                0x000fc4c2                SAADC_IRQHandler
                0x000fc4c2                CCM_AAR_IRQHandler
                0x000fc4c2                WDT_IRQHandler
                0x000fc4c2                GPIOTE_IRQHandler
                0x000fc4c2                SWI5_EGU5_IRQHandler
                0x000fc4c2                RNG_IRQHandler
                0x000fc4c2                RTC2_IRQHandler
                0x000fc4c2                PWM0_IRQHandler
                0x000fc4c2                RTC1_IRQHandler
                0x000fc4c2                SWI1_EGU1_IRQHandler
                0x000fc4c2                SPIM2_SPIS2_SPI2_IRQHandler
                0x000fc4c2                NFCT_IRQHandler
                0x000fc4c2                TIMER2_IRQHandler
                0x000fc4c2                MWU_IRQHandler
                0x000fc4c2                TIMER0_IRQHandler
                0x000fc4c2                QSPI_IRQHandler
                0x000fc4c2                COMP_LPCOMP_IRQHandler
 .text          0x000fc4c4       0x30 c:/mesh/arm_gcc/bin/../lib/gcc/arm-none-eabi/7.3.1/thumb/v7e-m/fpv4-sp/hard\libgcc.a(_aeabi_uldivmod.o)
                0x000fc4c4                __aeabi_uldivmod
 .text          0x000fc4f4      0x2cc c:/mesh/arm_gcc/bin/../lib/gcc/arm-none-eabi/7.3.1/thumb/v7e-m/fpv4-sp/hard\libgcc.a(_udivmoddi4.o)
                0x000fc4f4                __udivmoddi4
 .text          0x000fc7c0        0x4 c:/mesh/arm_gcc/bin/../lib/gcc/arm-none-eabi/7.3.1/thumb/v7e-m/fpv4-sp/hard\libgcc.a(_dvmd_tls.o)
                0x000fc7c0                __aeabi_idiv0
                0x000fc7c0                __aeabi_ldiv0
 .text.exit     0x000fc7c4       0x28 c:/mesh/arm_gcc/bin/../lib/gcc/arm-none-eabi/7.3.1/../../../../arm-none-eabi/lib/thumb/v7e-m/fpv4-sp/hard\libg_nano.a(lib_a-exit.o)
                0x000fc7c4                exit
 .text.__libc_init_array
                0x000fc7ec       0x48 c:/mesh/arm_gcc/bin/../lib/gcc/arm-none-eabi/7.3.1/../../../../arm-none-eabi/lib/thumb/v7e-m/fpv4-sp/hard\libg_nano.a(lib_a-init.o)
                0x000fc7ec                __libc_init_array
 .text.memcmp   0x000fc834       0x1e c:/mesh/arm_gcc/bin/../lib/gcc/arm-none-eabi/7.3.1/../../../../arm-none-eabi/lib/thumb/v7e-m/fpv4-sp/hard\libg_nano.a(lib_a-memcmp.o)
                0x000fc834                memcmp
 .text.memcpy   0x000fc852       0x16 c:/mesh/arm_gcc/bin/../lib/gcc/arm-none-eabi/7.3.1/../../../../arm-none-eabi/lib/thumb/v7e-m/fpv4-sp/hard\libg_nano.a(lib_a-memcpy-stub.o)
                0x000fc852                memcpy
 .text.memset   0x000fc868       0x10 c:/mesh/arm_gcc/bin/../lib/gcc/arm-none-eabi/7.3.1/../../../../arm-none-eabi/lib/thumb/v7e-m/fpv4-sp/hard\libg_nano.a(lib_a-memset.o)
                0x000fc868                memset
 .text._exit    0x000fc878        0x4 c:/mesh/arm_gcc/bin/../lib/gcc/arm-none-eabi/7.3.1/../../../../arm-none-eabi/lib/thumb/v7e-m/fpv4-sp/hard\libnosys.a(_exit.o)
                0x000fc878                _exit
 *(.init)
 .init          0x000fc87c        0x4 c:/mesh/arm_gcc/bin/../lib/gcc/arm-none-eabi/7.3.1/thumb/v7e-m/fpv4-sp/hard/crti.o
                0x000fc87c                _init
 .init          0x000fc880        0x8 c:/mesh/arm_gcc/bin/../lib/gcc/arm-none-eabi/7.3.1/thumb/v7e-m/fpv4-sp/hard/crtn.o
 *(.fini)
 .fini          0x000fc888        0x4 c:/mesh/arm_gcc/bin/../lib/gcc/arm-none-eabi/7.3.1/thumb/v7e-m/fpv4-sp/hard/crti.o
                0x000fc888                _fini
 .fini          0x000fc88c        0x8 c:/mesh/arm_gcc/bin/../lib/gcc/arm-none-eabi/7.3.1/thumb/v7e-m/fpv4-sp/hard/crtn.o
 *crtbegin.o(.ctors)
 *crtbegin?.o(.ctors)
 *(EXCLUDE_FILE(*crtend.o *crtend?.o) .ctors)
 *(SORT_BY_NAME(.ctors.*))
 *(.ctors)
 *crtbegin.o(.dtors)
 *crtbegin?.o(.dtors)
 *(EXCLUDE_FILE(*crtend.o *crtend?.o) .dtors)
 *(SORT_BY_NAME(.dtors.*))
 *(.dtors)
 *(.rodata*)
 .rodata.m_invalid_header
                0x000fc894        0x4 mesh/bootloader/CMakeFiles/mesh_bootloader_gccarmemb_nrf52840_xxAA.dir/src/bootloader_info.c.obj
 .rodata.CSWTCH.44
                0x000fc898        0x4 mesh/bootloader/CMakeFiles/mesh_bootloader_gccarmemb_nrf52840_xxAA.dir/src/dfu_mesh.c.obj
 .rodata        0x000fc89c        0xc mesh/bootloader/CMakeFiles/mesh_bootloader_gccarmemb_nrf52840_xxAA.dir/src/radio_control.c.obj
 .rodata.curve_G
                0x000fc8a8       0x40 mesh/bootloader/CMakeFiles/mesh_bootloader_gccarmemb_nrf52840_xxAA.dir/src/uECC.c.obj
 .rodata.curve_n
                0x000fc8e8       0x20 mesh/bootloader/CMakeFiles/mesh_bootloader_gccarmemb_nrf52840_xxAA.dir/src/uECC.c.obj
 .rodata.curve_p
                0x000fc908       0x20 mesh/bootloader/CMakeFiles/mesh_bootloader_gccarmemb_nrf52840_xxAA.dir/src/uECC.c.obj
 .rodata.k      0x000fc928      0x100 mesh/bootloader/CMakeFiles/mesh_bootloader_gccarmemb_nrf52840_xxAA.dir/C_/mesh/deps/nRF5_SDK_15.3.0_59ac345/components/libraries/sha256/sha256.c.obj
 .rodata._global_impure_ptr
                0x000fca28        0x4 c:/mesh/arm_gcc/bin/../lib/gcc/arm-none-eabi/7.3.1/../../../../arm-none-eabi/lib/thumb/v7e-m/fpv4-sp/hard\libg_nano.a(lib_a-impure.o)
                0x000fca28                _global_impure_ptr
 *(.eh_frame*)
 .eh_frame      0x000fca2c        0x0 c:/mesh/arm_gcc/bin/../lib/gcc/arm-none-eabi/7.3.1/thumb/v7e-m/fpv4-sp/hard/crtbegin.o
 .eh_frame      0x000fca2c        0x4 c:/mesh/arm_gcc/bin/../lib/gcc/arm-none-eabi/7.3.1/thumb/v7e-m/fpv4-sp/hard/crtend.o

.glue_7         0x000fca30        0x0
 .glue_7        0x000fca30        0x0 linker stubs

.glue_7t        0x000fca30        0x0
 .glue_7t       0x000fca30        0x0 linker stubs

.vfp11_veneer   0x000fca30        0x0
 .vfp11_veneer  0x000fca30        0x0 linker stubs

.v4_bx          0x000fca30        0x0
 .v4_bx         0x000fca30        0x0 linker stubs

.iplt           0x000fca30        0x0
 .iplt          0x000fca30        0x0 c:/mesh/arm_gcc/bin/../lib/gcc/arm-none-eabi/7.3.1/thumb/v7e-m/fpv4-sp/hard/crtbegin.o

.ARM.extab
 *(.ARM.extab* .gnu.linkonce.armextab.*)
                0x000fca30                __exidx_start = .

.ARM.exidx      0x000fca30        0x8
 *(.ARM.exidx* .gnu.linkonce.armexidx.*)
 .ARM.exidx     0x000fca30        0x8 c:/mesh/arm_gcc/bin/../lib/gcc/arm-none-eabi/7.3.1/../../../../arm-none-eabi/lib/thumb/v7e-m/fpv4-sp/hard/crt0.o
 .ARM.exidx     0x000fca38        0x0 c:/mesh/arm_gcc/bin/../lib/gcc/arm-none-eabi/7.3.1/thumb/v7e-m/fpv4-sp/hard\libgcc.a(_udivmoddi4.o)
                                  0x8 (size before relaxing)
                0x000fca38                __exidx_end = .
                0x000fca38                __etext = .

.rel.dyn        0x000fca38        0x0
 .rel.iplt      0x000fca38        0x0 c:/mesh/arm_gcc/bin/../lib/gcc/arm-none-eabi/7.3.1/thumb/v7e-m/fpv4-sp/hard/crtbegin.o

.data           0x20000004       0x74 load address 0x000fca38
                0x20000004                __data_start__ = .
 *(vtable)
 *(.data*)
 .data.m_alt_aa
                0x20000004        0x4 mesh/bootloader/CMakeFiles/mesh_bootloader_gccarmemb_nrf52840_xxAA.dir/src/radio_control.c.obj
 .data.m_radio_state
                0x20000008        0x1 mesh/bootloader/CMakeFiles/mesh_bootloader_gccarmemb_nrf52840_xxAA.dir/src/radio_control.c.obj
 *fill*         0x20000009        0x3 
 .data.SystemCoreClock
                0x2000000c        0x4 mesh/bootloader/CMakeFiles/mesh_bootloader_gccarmemb_nrf52840_xxAA.dir/C_/mesh/deps/nRF5_SDK_15.3.0_59ac345/modules/nrfx/mdk/system_nrf52840.c.obj
                0x2000000c                SystemCoreClock
 .data.impure_data
                0x20000010       0x60 c:/mesh/arm_gcc/bin/../lib/gcc/arm-none-eabi/7.3.1/../../../../arm-none-eabi/lib/thumb/v7e-m/fpv4-sp/hard\libg_nano.a(lib_a-impure.o)
                0x20000070                . = ALIGN (0x4)
                0x20000070                PROVIDE (__preinit_array_start = .)
 *(.preinit_array)
                0x20000070                PROVIDE (__preinit_array_end = .)
                0x20000070                . = ALIGN (0x4)
                0x20000070                PROVIDE (__init_array_start = .)
 *(SORT_BY_NAME(.init_array.*))
 *(.init_array)
 .init_array    0x20000070        0x4 c:/mesh/arm_gcc/bin/../lib/gcc/arm-none-eabi/7.3.1/thumb/v7e-m/fpv4-sp/hard/crtbegin.o
                0x20000074                PROVIDE (__init_array_end = .)
                0x20000074                . = ALIGN (0x4)
                [!provide]                PROVIDE (__fini_array_start = .)
 *(SORT_BY_NAME(.fini_array.*))
 *(.fini_array)
 .fini_array    0x20000074        0x4 c:/mesh/arm_gcc/bin/../lib/gcc/arm-none-eabi/7.3.1/thumb/v7e-m/fpv4-sp/hard/crtbegin.o
                [!provide]                PROVIDE (__fini_array_end = .)
 *(.jcr*)
                0x20000078                . = ALIGN (0x4)
                0x20000078                __data_end__ = .

.igot.plt       0x20000078        0x0 load address 0x000fcaac
 .igot.plt      0x20000078        0x0 c:/mesh/arm_gcc/bin/../lib/gcc/arm-none-eabi/7.3.1/thumb/v7e-m/fpv4-sp/hard/crtbegin.o

.bss            0x20000078      0x790 load address 0x000fcaac
                0x20000078                . = ALIGN (0x4)
                0x20000078                __bss_start__ = .
 *(.bss*)
 .bss           0x20000078       0x1c c:/mesh/arm_gcc/bin/../lib/gcc/arm-none-eabi/7.3.1/thumb/v7e-m/fpv4-sp/hard/crtbegin.o
 .bss.m_flash_fifo
                0x20000094       0x18 mesh/bootloader/CMakeFiles/mesh_bootloader_gccarmemb_nrf52840_xxAA.dir/src/bootloader.c.obj
 .bss.m_flash_fifo_buf
                0x200000ac       0x80 mesh/bootloader/CMakeFiles/mesh_bootloader_gccarmemb_nrf52840_xxAA.dir/src/bootloader.c.obj
 .bss.m_go_to_app
                0x2000012c        0x1 mesh/bootloader/CMakeFiles/mesh_bootloader_gccarmemb_nrf52840_xxAA.dir/src/bootloader.c.obj
 .bss.m_timeout_action
                0x2000012d        0x1 mesh/bootloader/CMakeFiles/mesh_bootloader_gccarmemb_nrf52840_xxAA.dir/src/bootloader.c.obj
 *fill*         0x2000012e        0x2 
 .bss.rsp_cmd.11989
                0x20000130       0x18 mesh/bootloader/CMakeFiles/mesh_bootloader_gccarmemb_nrf52840_xxAA.dir/src/bootloader.c.obj
 .bss.g_packet_pool
                0x20000148      0x500 mesh/bootloader/CMakeFiles/mesh_bootloader_gccarmemb_nrf52840_xxAA.dir/src/mesh_packet.c.obj
 .bss.g_packet_refs
                0x20000648       0x20 mesh/bootloader/CMakeFiles/mesh_bootloader_gccarmemb_nrf52840_xxAA.dir/src/mesh_packet.c.obj
 .bss.buffer.7258
                0x20000668        0x4 mesh/bootloader/CMakeFiles/mesh_bootloader_gccarmemb_nrf52840_xxAA.dir/src/nrf_flash.c.obj
 .bss.m_idle_cb
                0x2000066c        0x4 mesh/bootloader/CMakeFiles/mesh_bootloader_gccarmemb_nrf52840_xxAA.dir/src/radio_control.c.obj
 .bss.m_radio_fifo
                0x20000670       0x18 mesh/bootloader/CMakeFiles/mesh_bootloader_gccarmemb_nrf52840_xxAA.dir/src/radio_control.c.obj
 .bss.m_radio_fifo_queue
                0x20000688       0x40 mesh/bootloader/CMakeFiles/mesh_bootloader_gccarmemb_nrf52840_xxAA.dir/src/radio_control.c.obj
 .bss.m_rx_cb   0x200006c8        0x4 mesh/bootloader/CMakeFiles/mesh_bootloader_gccarmemb_nrf52840_xxAA.dir/src/radio_control.c.obj
 .bss.m_tx_cb   0x200006cc        0x4 mesh/bootloader/CMakeFiles/mesh_bootloader_gccarmemb_nrf52840_xxAA.dir/src/radio_control.c.obj
 .bss.m_prng    0x200006d0       0x10 mesh/bootloader/CMakeFiles/mesh_bootloader_gccarmemb_nrf52840_xxAA.dir/src/transport.c.obj
 .bss.m_running
                0x200006e0        0x1 mesh/bootloader/CMakeFiles/mesh_bootloader_gccarmemb_nrf52840_xxAA.dir/src/transport.c.obj
 *fill*         0x200006e1        0x3 
 .bss.m_rx_cb   0x200006e4        0x4 mesh/bootloader/CMakeFiles/mesh_bootloader_gccarmemb_nrf52840_xxAA.dir/src/transport.c.obj
 .bss.m_rx_fifo
                0x200006e8       0x18 mesh/bootloader/CMakeFiles/mesh_bootloader_gccarmemb_nrf52840_xxAA.dir/src/transport.c.obj
 .bss.m_rx_fifo_buf
                0x20000700       0x80 mesh/bootloader/CMakeFiles/mesh_bootloader_gccarmemb_nrf52840_xxAA.dir/src/transport.c.obj
 .bss.m_ticks_at_order_time
                0x20000780        0x4 mesh/bootloader/CMakeFiles/mesh_bootloader_gccarmemb_nrf52840_xxAA.dir/src/transport.c.obj
 .bss.m_tx      0x20000784       0x80 mesh/bootloader/CMakeFiles/mesh_bootloader_gccarmemb_nrf52840_xxAA.dir/src/transport.c.obj
 *(COMMON)
 COMMON         0x20000804        0x2 mesh/bootloader/CMakeFiles/mesh_bootloader_gccarmemb_nrf52840_xxAA.dir/src/transport.c.obj
                0x20000804                m_tx_evt_bitfield
                0x20000808                . = ALIGN (0x4)
 *fill*         0x20000806        0x2 
                0x20000808                __bss_end__ = .

.heap           0x20000808     0x2000
                0x20000808                __HeapBase = .
                0x20000808                __end__ = .
                [!provide]                PROVIDE (end = .)
 *(.heap*)
 .heap          0x20000808     0x2000 mesh/bootloader/CMakeFiles/mesh_bootloader_gccarmemb_nrf52840_xxAA.dir/C_/mesh/deps/nRF5_SDK_15.3.0_59ac345/modules/nrfx/mdk/gcc_startup_nrf52840.S.obj
                0x20002808                __HeapLimit = .

.stack_dummy    0x20000808     0x2000
 *(.stack*)
 .stack         0x20000808     0x2000 mesh/bootloader/CMakeFiles/mesh_bootloader_gccarmemb_nrf52840_xxAA.dir/C_/mesh/deps/nRF5_SDK_15.3.0_59ac345/modules/nrfx/mdk/gcc_startup_nrf52840.S.obj
                0x2003fd00                __StackTop = (ORIGIN (RAM) + LENGTH (RAM))
                0x2003dd00                __StackLimit = (__StackTop - SIZEOF (.stack_dummy))
                0x2003fd00                PROVIDE (__stack = __StackTop)
                0x00000001                ASSERT ((__StackLimit >= __HeapLimit), region RAM overflowed with stack)
                0x00000074                DataInitFlashUsed = (__bss_start__ - __data_start__)
                0x00004a38                CodeFlashUsed = (__etext - ORIGIN (FLASH))
                0x00004aac                TotalFlashUsed = (CodeFlashUsed + DataInitFlashUsed)
                0x00000001                ASSERT ((TotalFlashUsed <= LENGTH (FLASH)), region FLASH overflowed with .data and user data)
OUTPUT(mesh\bootloader\mesh_bootloader_gccarmemb_nrf52840_xxAA.elf elf32-littlearm)

.ARM.attributes
                0x00000000       0x30
 .ARM.attributes
                0x00000000       0x22 c:/mesh/arm_gcc/bin/../lib/gcc/arm-none-eabi/7.3.1/thumb/v7e-m/fpv4-sp/hard/crti.o
 .ARM.attributes
                0x00000022       0x34 c:/mesh/arm_gcc/bin/../lib/gcc/arm-none-eabi/7.3.1/thumb/v7e-m/fpv4-sp/hard/crtbegin.o
 .ARM.attributes
                0x00000056       0x20 c:/mesh/arm_gcc/bin/../lib/gcc/arm-none-eabi/7.3.1/../../../../arm-none-eabi/lib/thumb/v7e-m/fpv4-sp/hard/crt0.o
 .ARM.attributes
                0x00000076       0x39 mesh/bootloader/CMakeFiles/mesh_bootloader_gccarmemb_nrf52840_xxAA.dir/src/bootloader.c.obj
 .ARM.attributes
                0x000000af       0x39 mesh/bootloader/CMakeFiles/mesh_bootloader_gccarmemb_nrf52840_xxAA.dir/src/bootloader_app_bridge.c.obj
 .ARM.attributes
                0x000000e8       0x39 mesh/bootloader/CMakeFiles/mesh_bootloader_gccarmemb_nrf52840_xxAA.dir/src/bootloader_info.c.obj
 .ARM.attributes
                0x00000121       0x39 mesh/bootloader/CMakeFiles/mesh_bootloader_gccarmemb_nrf52840_xxAA.dir/src/bootloader_rtc.c.obj
 .ARM.attributes
                0x0000015a       0x39 mesh/bootloader/CMakeFiles/mesh_bootloader_gccarmemb_nrf52840_xxAA.dir/src/bootloader_util.c.obj
 .ARM.attributes
                0x00000193       0x39 mesh/bootloader/CMakeFiles/mesh_bootloader_gccarmemb_nrf52840_xxAA.dir/src/dfu_bank.c.obj
 .ARM.attributes
                0x000001cc       0x39 mesh/bootloader/CMakeFiles/mesh_bootloader_gccarmemb_nrf52840_xxAA.dir/src/dfu_mesh.c.obj
 .ARM.attributes
                0x00000205       0x39 mesh/bootloader/CMakeFiles/mesh_bootloader_gccarmemb_nrf52840_xxAA.dir/src/dfu_transfer_mesh.c.obj
 .ARM.attributes
                0x0000023e       0x39 mesh/bootloader/CMakeFiles/mesh_bootloader_gccarmemb_nrf52840_xxAA.dir/src/dfu_util.c.obj
 .ARM.attributes
                0x00000277       0x39 mesh/bootloader/CMakeFiles/mesh_bootloader_gccarmemb_nrf52840_xxAA.dir/src/fifo.c.obj
 .ARM.attributes
                0x000002b0       0x39 mesh/bootloader/CMakeFiles/mesh_bootloader_gccarmemb_nrf52840_xxAA.dir/src/main.c.obj
 .ARM.attributes
                0x000002e9       0x39 mesh/bootloader/CMakeFiles/mesh_bootloader_gccarmemb_nrf52840_xxAA.dir/src/mesh_packet.c.obj
 .ARM.attributes
                0x00000322       0x39 mesh/bootloader/CMakeFiles/mesh_bootloader_gccarmemb_nrf52840_xxAA.dir/src/nrf_flash.c.obj
 .ARM.attributes
                0x0000035b       0x39 mesh/bootloader/CMakeFiles/mesh_bootloader_gccarmemb_nrf52840_xxAA.dir/src/radio_control.c.obj
 .ARM.attributes
                0x00000394       0x39 mesh/bootloader/CMakeFiles/mesh_bootloader_gccarmemb_nrf52840_xxAA.dir/src/rand.c.obj
 .ARM.attributes
                0x000003cd       0x39 mesh/bootloader/CMakeFiles/mesh_bootloader_gccarmemb_nrf52840_xxAA.dir/src/transport.c.obj
 .ARM.attributes
                0x00000406       0x39 mesh/bootloader/CMakeFiles/mesh_bootloader_gccarmemb_nrf52840_xxAA.dir/src/uECC.c.obj
 .ARM.attributes
                0x0000043f       0x39 mesh/bootloader/CMakeFiles/mesh_bootloader_gccarmemb_nrf52840_xxAA.dir/C_/mesh/deps/nRF5_SDK_15.3.0_59ac345/components/libraries/sha256/sha256.c.obj
 .ARM.attributes
                0x00000478       0x39 mesh/bootloader/CMakeFiles/mesh_bootloader_gccarmemb_nrf52840_xxAA.dir/C_/mesh/deps/nRF5_SDK_15.3.0_59ac345/modules/nrfx/mdk/system_nrf52840.c.obj
 .ARM.attributes
                0x000004b1       0x20 mesh/bootloader/CMakeFiles/mesh_bootloader_gccarmemb_nrf52840_xxAA.dir/C_/mesh/deps/nRF5_SDK_15.3.0_59ac345/modules/nrfx/mdk/gcc_startup_nrf52840.S.obj
 .ARM.attributes
                0x000004d1       0x22 c:/mesh/arm_gcc/bin/../lib/gcc/arm-none-eabi/7.3.1/thumb/v7e-m/fpv4-sp/hard\libgcc.a(_aeabi_uldivmod.o)
 .ARM.attributes
                0x000004f3       0x34 c:/mesh/arm_gcc/bin/../lib/gcc/arm-none-eabi/7.3.1/thumb/v7e-m/fpv4-sp/hard\libgcc.a(_udivmoddi4.o)
 .ARM.attributes
                0x00000527       0x22 c:/mesh/arm_gcc/bin/../lib/gcc/arm-none-eabi/7.3.1/thumb/v7e-m/fpv4-sp/hard\libgcc.a(_dvmd_tls.o)
 .ARM.attributes
                0x00000549       0x34 c:/mesh/arm_gcc/bin/../lib/gcc/arm-none-eabi/7.3.1/../../../../arm-none-eabi/lib/thumb/v7e-m/fpv4-sp/hard\libg_nano.a(lib_a-exit.o)
 .ARM.attributes
                0x0000057d       0x34 c:/mesh/arm_gcc/bin/../lib/gcc/arm-none-eabi/7.3.1/../../../../arm-none-eabi/lib/thumb/v7e-m/fpv4-sp/hard\libg_nano.a(lib_a-impure.o)
 .ARM.attributes
                0x000005b1       0x34 c:/mesh/arm_gcc/bin/../lib/gcc/arm-none-eabi/7.3.1/../../../../arm-none-eabi/lib/thumb/v7e-m/fpv4-sp/hard\libg_nano.a(lib_a-init.o)
 .ARM.attributes
                0x000005e5       0x34 c:/mesh/arm_gcc/bin/../lib/gcc/arm-none-eabi/7.3.1/../../../../arm-none-eabi/lib/thumb/v7e-m/fpv4-sp/hard\libg_nano.a(lib_a-memcmp.o)
 .ARM.attributes
                0x00000619       0x34 c:/mesh/arm_gcc/bin/../lib/gcc/arm-none-eabi/7.3.1/../../../../arm-none-eabi/lib/thumb/v7e-m/fpv4-sp/hard\libg_nano.a(lib_a-memcpy-stub.o)
 .ARM.attributes
                0x0000064d       0x34 c:/mesh/arm_gcc/bin/../lib/gcc/arm-none-eabi/7.3.1/../../../../arm-none-eabi/lib/thumb/v7e-m/fpv4-sp/hard\libg_nano.a(lib_a-memset.o)
 .ARM.attributes
                0x00000681       0x34 c:/mesh/arm_gcc/bin/../lib/gcc/arm-none-eabi/7.3.1/thumb/v7e-m/fpv4-sp/hard/crtend.o
 .ARM.attributes
                0x000006b5       0x22 c:/mesh/arm_gcc/bin/../lib/gcc/arm-none-eabi/7.3.1/thumb/v7e-m/fpv4-sp/hard/crtn.o
 .ARM.attributes
                0x000006d7       0x34 c:/mesh/arm_gcc/bin/../lib/gcc/arm-none-eabi/7.3.1/../../../../arm-none-eabi/lib/thumb/v7e-m/fpv4-sp/hard\libnosys.a(_exit.o)

.comment        0x00000000       0x7f
 .comment       0x00000000       0x7f mesh/bootloader/CMakeFiles/mesh_bootloader_gccarmemb_nrf52840_xxAA.dir/src/bootloader.c.obj
                                 0x80 (size before relaxing)
 .comment       0x0000007f       0x80 mesh/bootloader/CMakeFiles/mesh_bootloader_gccarmemb_nrf52840_xxAA.dir/src/bootloader_app_bridge.c.obj
 .comment       0x0000007f       0x80 mesh/bootloader/CMakeFiles/mesh_bootloader_gccarmemb_nrf52840_xxAA.dir/src/bootloader_info.c.obj
 .comment       0x0000007f       0x80 mesh/bootloader/CMakeFiles/mesh_bootloader_gccarmemb_nrf52840_xxAA.dir/src/bootloader_rtc.c.obj
 .comment       0x0000007f       0x80 mesh/bootloader/CMakeFiles/mesh_bootloader_gccarmemb_nrf52840_xxAA.dir/src/bootloader_util.c.obj
 .comment       0x0000007f       0x80 mesh/bootloader/CMakeFiles/mesh_bootloader_gccarmemb_nrf52840_xxAA.dir/src/dfu_bank.c.obj
 .comment       0x0000007f       0x80 mesh/bootloader/CMakeFiles/mesh_bootloader_gccarmemb_nrf52840_xxAA.dir/src/dfu_mesh.c.obj
 .comment       0x0000007f       0x80 mesh/bootloader/CMakeFiles/mesh_bootloader_gccarmemb_nrf52840_xxAA.dir/src/dfu_transfer_mesh.c.obj
 .comment       0x0000007f       0x80 mesh/bootloader/CMakeFiles/mesh_bootloader_gccarmemb_nrf52840_xxAA.dir/src/dfu_util.c.obj
 .comment       0x0000007f       0x80 mesh/bootloader/CMakeFiles/mesh_bootloader_gccarmemb_nrf52840_xxAA.dir/src/fifo.c.obj
 .comment       0x0000007f       0x80 mesh/bootloader/CMakeFiles/mesh_bootloader_gccarmemb_nrf52840_xxAA.dir/src/main.c.obj
 .comment       0x0000007f       0x80 mesh/bootloader/CMakeFiles/mesh_bootloader_gccarmemb_nrf52840_xxAA.dir/src/mesh_packet.c.obj
 .comment       0x0000007f       0x80 mesh/bootloader/CMakeFiles/mesh_bootloader_gccarmemb_nrf52840_xxAA.dir/src/nrf_flash.c.obj
 .comment       0x0000007f       0x80 mesh/bootloader/CMakeFiles/mesh_bootloader_gccarmemb_nrf52840_xxAA.dir/src/radio_control.c.obj
 .comment       0x0000007f       0x80 mesh/bootloader/CMakeFiles/mesh_bootloader_gccarmemb_nrf52840_xxAA.dir/src/rand.c.obj
 .comment       0x0000007f       0x80 mesh/bootloader/CMakeFiles/mesh_bootloader_gccarmemb_nrf52840_xxAA.dir/src/transport.c.obj
 .comment       0x0000007f       0x80 mesh/bootloader/CMakeFiles/mesh_bootloader_gccarmemb_nrf52840_xxAA.dir/src/uECC.c.obj
 .comment       0x0000007f       0x80 mesh/bootloader/CMakeFiles/mesh_bootloader_gccarmemb_nrf52840_xxAA.dir/C_/mesh/deps/nRF5_SDK_15.3.0_59ac345/components/libraries/sha256/sha256.c.obj
 .comment       0x0000007f       0x80 mesh/bootloader/CMakeFiles/mesh_bootloader_gccarmemb_nrf52840_xxAA.dir/C_/mesh/deps/nRF5_SDK_15.3.0_59ac345/modules/nrfx/mdk/system_nrf52840.c.obj

.debug_info     0x00000000    0x1b883
 .debug_info    0x00000000     0x3549 mesh/bootloader/CMakeFiles/mesh_bootloader_gccarmemb_nrf52840_xxAA.dir/src/bootloader.c.obj
 .debug_info    0x00003549     0x2439 mesh/bootloader/CMakeFiles/mesh_bootloader_gccarmemb_nrf52840_xxAA.dir/src/bootloader_app_bridge.c.obj
 .debug_info    0x00005982     0x1c25 mesh/bootloader/CMakeFiles/mesh_bootloader_gccarmemb_nrf52840_xxAA.dir/src/bootloader_info.c.obj
 .debug_info    0x000075a7      0x7a1 mesh/bootloader/CMakeFiles/mesh_bootloader_gccarmemb_nrf52840_xxAA.dir/src/bootloader_rtc.c.obj
 .debug_info    0x00007d48      0x8f6 mesh/bootloader/CMakeFiles/mesh_bootloader_gccarmemb_nrf52840_xxAA.dir/src/bootloader_util.c.obj
 .debug_info    0x0000863e     0x2307 mesh/bootloader/CMakeFiles/mesh_bootloader_gccarmemb_nrf52840_xxAA.dir/src/dfu_bank.c.obj
 .debug_info    0x0000a945     0x3635 mesh/bootloader/CMakeFiles/mesh_bootloader_gccarmemb_nrf52840_xxAA.dir/src/dfu_mesh.c.obj
 .debug_info    0x0000df7a      0xeca mesh/bootloader/CMakeFiles/mesh_bootloader_gccarmemb_nrf52840_xxAA.dir/src/dfu_transfer_mesh.c.obj
 .debug_info    0x0000ee44     0x1714 mesh/bootloader/CMakeFiles/mesh_bootloader_gccarmemb_nrf52840_xxAA.dir/src/dfu_util.c.obj
 .debug_info    0x00010558      0xc70 mesh/bootloader/CMakeFiles/mesh_bootloader_gccarmemb_nrf52840_xxAA.dir/src/fifo.c.obj
 .debug_info    0x000111c8     0x161c mesh/bootloader/CMakeFiles/mesh_bootloader_gccarmemb_nrf52840_xxAA.dir/src/main.c.obj
 .debug_info    0x000127e4     0x13df mesh/bootloader/CMakeFiles/mesh_bootloader_gccarmemb_nrf52840_xxAA.dir/src/mesh_packet.c.obj
 .debug_info    0x00013bc3      0x77b mesh/bootloader/CMakeFiles/mesh_bootloader_gccarmemb_nrf52840_xxAA.dir/src/nrf_flash.c.obj
 .debug_info    0x0001433e     0x181b mesh/bootloader/CMakeFiles/mesh_bootloader_gccarmemb_nrf52840_xxAA.dir/src/radio_control.c.obj
 .debug_info    0x00015b59      0x344 mesh/bootloader/CMakeFiles/mesh_bootloader_gccarmemb_nrf52840_xxAA.dir/src/rand.c.obj
 .debug_info    0x00015e9d     0x1ba2 mesh/bootloader/CMakeFiles/mesh_bootloader_gccarmemb_nrf52840_xxAA.dir/src/transport.c.obj
 .debug_info    0x00017a3f     0x1ea7 mesh/bootloader/CMakeFiles/mesh_bootloader_gccarmemb_nrf52840_xxAA.dir/src/uECC.c.obj
 .debug_info    0x000198e6      0xc18 mesh/bootloader/CMakeFiles/mesh_bootloader_gccarmemb_nrf52840_xxAA.dir/C_/mesh/deps/nRF5_SDK_15.3.0_59ac345/components/libraries/sha256/sha256.c.obj
 .debug_info    0x0001a4fe     0x1385 mesh/bootloader/CMakeFiles/mesh_bootloader_gccarmemb_nrf52840_xxAA.dir/C_/mesh/deps/nRF5_SDK_15.3.0_59ac345/modules/nrfx/mdk/system_nrf52840.c.obj

.debug_abbrev   0x00000000     0x3df9
 .debug_abbrev  0x00000000      0x448 mesh/bootloader/CMakeFiles/mesh_bootloader_gccarmemb_nrf52840_xxAA.dir/src/bootloader.c.obj
 .debug_abbrev  0x00000448      0x386 mesh/bootloader/CMakeFiles/mesh_bootloader_gccarmemb_nrf52840_xxAA.dir/src/bootloader_app_bridge.c.obj
 .debug_abbrev  0x000007ce      0x50f mesh/bootloader/CMakeFiles/mesh_bootloader_gccarmemb_nrf52840_xxAA.dir/src/bootloader_info.c.obj
 .debug_abbrev  0x00000cdd      0x193 mesh/bootloader/CMakeFiles/mesh_bootloader_gccarmemb_nrf52840_xxAA.dir/src/bootloader_rtc.c.obj
 .debug_abbrev  0x00000e70      0x1db mesh/bootloader/CMakeFiles/mesh_bootloader_gccarmemb_nrf52840_xxAA.dir/src/bootloader_util.c.obj
 .debug_abbrev  0x0000104b      0x43e mesh/bootloader/CMakeFiles/mesh_bootloader_gccarmemb_nrf52840_xxAA.dir/src/dfu_bank.c.obj
 .debug_abbrev  0x00001489      0x4e4 mesh/bootloader/CMakeFiles/mesh_bootloader_gccarmemb_nrf52840_xxAA.dir/src/dfu_mesh.c.obj
 .debug_abbrev  0x0000196d      0x379 mesh/bootloader/CMakeFiles/mesh_bootloader_gccarmemb_nrf52840_xxAA.dir/src/dfu_transfer_mesh.c.obj
 .debug_abbrev  0x00001ce6      0x40b mesh/bootloader/CMakeFiles/mesh_bootloader_gccarmemb_nrf52840_xxAA.dir/src/dfu_util.c.obj
 .debug_abbrev  0x000020f1      0x2d4 mesh/bootloader/CMakeFiles/mesh_bootloader_gccarmemb_nrf52840_xxAA.dir/src/fifo.c.obj
 .debug_abbrev  0x000023c5      0x31d mesh/bootloader/CMakeFiles/mesh_bootloader_gccarmemb_nrf52840_xxAA.dir/src/main.c.obj
 .debug_abbrev  0x000026e2      0x380 mesh/bootloader/CMakeFiles/mesh_bootloader_gccarmemb_nrf52840_xxAA.dir/src/mesh_packet.c.obj
 .debug_abbrev  0x00002a62      0x1d2 mesh/bootloader/CMakeFiles/mesh_bootloader_gccarmemb_nrf52840_xxAA.dir/src/nrf_flash.c.obj
 .debug_abbrev  0x00002c34      0x44d mesh/bootloader/CMakeFiles/mesh_bootloader_gccarmemb_nrf52840_xxAA.dir/src/radio_control.c.obj
 .debug_abbrev  0x00003081      0x188 mesh/bootloader/CMakeFiles/mesh_bootloader_gccarmemb_nrf52840_xxAA.dir/src/rand.c.obj
 .debug_abbrev  0x00003209      0x4d3 mesh/bootloader/CMakeFiles/mesh_bootloader_gccarmemb_nrf52840_xxAA.dir/src/transport.c.obj
 .debug_abbrev  0x000036dc      0x2b5 mesh/bootloader/CMakeFiles/mesh_bootloader_gccarmemb_nrf52840_xxAA.dir/src/uECC.c.obj
 .debug_abbrev  0x00003991      0x24c mesh/bootloader/CMakeFiles/mesh_bootloader_gccarmemb_nrf52840_xxAA.dir/C_/mesh/deps/nRF5_SDK_15.3.0_59ac345/components/libraries/sha256/sha256.c.obj
 .debug_abbrev  0x00003bdd      0x21c mesh/bootloader/CMakeFiles/mesh_bootloader_gccarmemb_nrf52840_xxAA.dir/C_/mesh/deps/nRF5_SDK_15.3.0_59ac345/modules/nrfx/mdk/system_nrf52840.c.obj

.debug_loc      0x00000000     0x5c92
 .debug_loc     0x00000000      0x529 mesh/bootloader/CMakeFiles/mesh_bootloader_gccarmemb_nrf52840_xxAA.dir/src/bootloader.c.obj
 .debug_loc     0x00000529      0x36d mesh/bootloader/CMakeFiles/mesh_bootloader_gccarmemb_nrf52840_xxAA.dir/src/bootloader_app_bridge.c.obj
 .debug_loc     0x00000896      0xafb mesh/bootloader/CMakeFiles/mesh_bootloader_gccarmemb_nrf52840_xxAA.dir/src/bootloader_info.c.obj
 .debug_loc     0x00001391       0x3c mesh/bootloader/CMakeFiles/mesh_bootloader_gccarmemb_nrf52840_xxAA.dir/src/bootloader_rtc.c.obj
 .debug_loc     0x000013cd       0x31 mesh/bootloader/CMakeFiles/mesh_bootloader_gccarmemb_nrf52840_xxAA.dir/src/bootloader_util.c.obj
 .debug_loc     0x000013fe      0x307 mesh/bootloader/CMakeFiles/mesh_bootloader_gccarmemb_nrf52840_xxAA.dir/src/dfu_bank.c.obj
 .debug_loc     0x00001705      0xf22 mesh/bootloader/CMakeFiles/mesh_bootloader_gccarmemb_nrf52840_xxAA.dir/src/dfu_mesh.c.obj
 .debug_loc     0x00002627      0x473 mesh/bootloader/CMakeFiles/mesh_bootloader_gccarmemb_nrf52840_xxAA.dir/src/dfu_transfer_mesh.c.obj
 .debug_loc     0x00002a9a      0x602 mesh/bootloader/CMakeFiles/mesh_bootloader_gccarmemb_nrf52840_xxAA.dir/src/dfu_util.c.obj
 .debug_loc     0x0000309c      0x377 mesh/bootloader/CMakeFiles/mesh_bootloader_gccarmemb_nrf52840_xxAA.dir/src/fifo.c.obj
 .debug_loc     0x00003413       0x3c mesh/bootloader/CMakeFiles/mesh_bootloader_gccarmemb_nrf52840_xxAA.dir/src/main.c.obj
 .debug_loc     0x0000344f      0x5bc mesh/bootloader/CMakeFiles/mesh_bootloader_gccarmemb_nrf52840_xxAA.dir/src/mesh_packet.c.obj
 .debug_loc     0x00003a0b      0x178 mesh/bootloader/CMakeFiles/mesh_bootloader_gccarmemb_nrf52840_xxAA.dir/src/nrf_flash.c.obj
 .debug_loc     0x00003b83      0x259 mesh/bootloader/CMakeFiles/mesh_bootloader_gccarmemb_nrf52840_xxAA.dir/src/radio_control.c.obj
 .debug_loc     0x00003ddc      0x101 mesh/bootloader/CMakeFiles/mesh_bootloader_gccarmemb_nrf52840_xxAA.dir/src/rand.c.obj
 .debug_loc     0x00003edd      0x583 mesh/bootloader/CMakeFiles/mesh_bootloader_gccarmemb_nrf52840_xxAA.dir/src/transport.c.obj
 .debug_loc     0x00004460     0x12e2 mesh/bootloader/CMakeFiles/mesh_bootloader_gccarmemb_nrf52840_xxAA.dir/src/uECC.c.obj
 .debug_loc     0x00005742      0x550 mesh/bootloader/CMakeFiles/mesh_bootloader_gccarmemb_nrf52840_xxAA.dir/C_/mesh/deps/nRF5_SDK_15.3.0_59ac345/components/libraries/sha256/sha256.c.obj

.debug_aranges  0x00000000      0x760
 .debug_aranges
                0x00000000       0x70 mesh/bootloader/CMakeFiles/mesh_bootloader_gccarmemb_nrf52840_xxAA.dir/src/bootloader.c.obj
 .debug_aranges
                0x00000070       0x70 mesh/bootloader/CMakeFiles/mesh_bootloader_gccarmemb_nrf52840_xxAA.dir/src/bootloader_app_bridge.c.obj
 .debug_aranges
                0x000000e0       0xc0 mesh/bootloader/CMakeFiles/mesh_bootloader_gccarmemb_nrf52840_xxAA.dir/src/bootloader_info.c.obj
 .debug_aranges
                0x000001a0       0x28 mesh/bootloader/CMakeFiles/mesh_bootloader_gccarmemb_nrf52840_xxAA.dir/src/bootloader_rtc.c.obj
 .debug_aranges
                0x000001c8       0x20 mesh/bootloader/CMakeFiles/mesh_bootloader_gccarmemb_nrf52840_xxAA.dir/src/bootloader_util.c.obj
 .debug_aranges
                0x000001e8       0x50 mesh/bootloader/CMakeFiles/mesh_bootloader_gccarmemb_nrf52840_xxAA.dir/src/dfu_bank.c.obj
 .debug_aranges
                0x00000238       0xb8 mesh/bootloader/CMakeFiles/mesh_bootloader_gccarmemb_nrf52840_xxAA.dir/src/dfu_mesh.c.obj
 .debug_aranges
                0x000002f0       0x60 mesh/bootloader/CMakeFiles/mesh_bootloader_gccarmemb_nrf52840_xxAA.dir/src/dfu_transfer_mesh.c.obj
 .debug_aranges
                0x00000350       0xa0 mesh/bootloader/CMakeFiles/mesh_bootloader_gccarmemb_nrf52840_xxAA.dir/src/dfu_util.c.obj
 .debug_aranges
                0x000003f0       0x60 mesh/bootloader/CMakeFiles/mesh_bootloader_gccarmemb_nrf52840_xxAA.dir/src/fifo.c.obj
 .debug_aranges
                0x00000450       0x38 mesh/bootloader/CMakeFiles/mesh_bootloader_gccarmemb_nrf52840_xxAA.dir/src/main.c.obj
 .debug_aranges
                0x00000488       0x80 mesh/bootloader/CMakeFiles/mesh_bootloader_gccarmemb_nrf52840_xxAA.dir/src/mesh_packet.c.obj
 .debug_aranges
                0x00000508       0x28 mesh/bootloader/CMakeFiles/mesh_bootloader_gccarmemb_nrf52840_xxAA.dir/src/nrf_flash.c.obj
 .debug_aranges
                0x00000530       0x40 mesh/bootloader/CMakeFiles/mesh_bootloader_gccarmemb_nrf52840_xxAA.dir/src/radio_control.c.obj
 .debug_aranges
                0x00000570       0x30 mesh/bootloader/CMakeFiles/mesh_bootloader_gccarmemb_nrf52840_xxAA.dir/src/rand.c.obj
 .debug_aranges
                0x000005a0       0xa8 mesh/bootloader/CMakeFiles/mesh_bootloader_gccarmemb_nrf52840_xxAA.dir/src/transport.c.obj
 .debug_aranges
                0x00000648       0xb0 mesh/bootloader/CMakeFiles/mesh_bootloader_gccarmemb_nrf52840_xxAA.dir/src/uECC.c.obj
 .debug_aranges
                0x000006f8       0x38 mesh/bootloader/CMakeFiles/mesh_bootloader_gccarmemb_nrf52840_xxAA.dir/C_/mesh/deps/nRF5_SDK_15.3.0_59ac345/components/libraries/sha256/sha256.c.obj
 .debug_aranges
                0x00000730       0x30 mesh/bootloader/CMakeFiles/mesh_bootloader_gccarmemb_nrf52840_xxAA.dir/C_/mesh/deps/nRF5_SDK_15.3.0_59ac345/modules/nrfx/mdk/system_nrf52840.c.obj

.debug_ranges   0x00000000      0xe18
 .debug_ranges  0x00000000       0xc0 mesh/bootloader/CMakeFiles/mesh_bootloader_gccarmemb_nrf52840_xxAA.dir/src/bootloader.c.obj
 .debug_ranges  0x000000c0       0x60 mesh/bootloader/CMakeFiles/mesh_bootloader_gccarmemb_nrf52840_xxAA.dir/src/bootloader_app_bridge.c.obj
 .debug_ranges  0x00000120      0x1a8 mesh/bootloader/CMakeFiles/mesh_bootloader_gccarmemb_nrf52840_xxAA.dir/src/bootloader_info.c.obj
 .debug_ranges  0x000002c8       0x18 mesh/bootloader/CMakeFiles/mesh_bootloader_gccarmemb_nrf52840_xxAA.dir/src/bootloader_rtc.c.obj
 .debug_ranges  0x000002e0       0x10 mesh/bootloader/CMakeFiles/mesh_bootloader_gccarmemb_nrf52840_xxAA.dir/src/bootloader_util.c.obj
 .debug_ranges  0x000002f0       0xc0 mesh/bootloader/CMakeFiles/mesh_bootloader_gccarmemb_nrf52840_xxAA.dir/src/dfu_bank.c.obj
 .debug_ranges  0x000003b0      0x348 mesh/bootloader/CMakeFiles/mesh_bootloader_gccarmemb_nrf52840_xxAA.dir/src/dfu_mesh.c.obj
 .debug_ranges  0x000006f8       0xa0 mesh/bootloader/CMakeFiles/mesh_bootloader_gccarmemb_nrf52840_xxAA.dir/src/dfu_transfer_mesh.c.obj
 .debug_ranges  0x00000798       0xc0 mesh/bootloader/CMakeFiles/mesh_bootloader_gccarmemb_nrf52840_xxAA.dir/src/dfu_util.c.obj
 .debug_ranges  0x00000858       0x68 mesh/bootloader/CMakeFiles/mesh_bootloader_gccarmemb_nrf52840_xxAA.dir/src/fifo.c.obj
 .debug_ranges  0x000008c0       0x28 mesh/bootloader/CMakeFiles/mesh_bootloader_gccarmemb_nrf52840_xxAA.dir/src/main.c.obj
 .debug_ranges  0x000008e8       0xd0 mesh/bootloader/CMakeFiles/mesh_bootloader_gccarmemb_nrf52840_xxAA.dir/src/mesh_packet.c.obj
 .debug_ranges  0x000009b8       0x68 mesh/bootloader/CMakeFiles/mesh_bootloader_gccarmemb_nrf52840_xxAA.dir/src/nrf_flash.c.obj
 .debug_ranges  0x00000a20       0xe8 mesh/bootloader/CMakeFiles/mesh_bootloader_gccarmemb_nrf52840_xxAA.dir/src/radio_control.c.obj
 .debug_ranges  0x00000b08       0x20 mesh/bootloader/CMakeFiles/mesh_bootloader_gccarmemb_nrf52840_xxAA.dir/src/rand.c.obj
 .debug_ranges  0x00000b28      0x148 mesh/bootloader/CMakeFiles/mesh_bootloader_gccarmemb_nrf52840_xxAA.dir/src/transport.c.obj
 .debug_ranges  0x00000c70      0x160 mesh/bootloader/CMakeFiles/mesh_bootloader_gccarmemb_nrf52840_xxAA.dir/src/uECC.c.obj
 .debug_ranges  0x00000dd0       0x28 mesh/bootloader/CMakeFiles/mesh_bootloader_gccarmemb_nrf52840_xxAA.dir/C_/mesh/deps/nRF5_SDK_15.3.0_59ac345/components/libraries/sha256/sha256.c.obj
 .debug_ranges  0x00000df8       0x20 mesh/bootloader/CMakeFiles/mesh_bootloader_gccarmemb_nrf52840_xxAA.dir/C_/mesh/deps/nRF5_SDK_15.3.0_59ac345/modules/nrfx/mdk/system_nrf52840.c.obj

.debug_line     0x00000000     0x4de3
 .debug_line    0x00000000      0x6ee mesh/bootloader/CMakeFiles/mesh_bootloader_gccarmemb_nrf52840_xxAA.dir/src/bootloader.c.obj
 .debug_line    0x000006ee      0x469 mesh/bootloader/CMakeFiles/mesh_bootloader_gccarmemb_nrf52840_xxAA.dir/src/bootloader_app_bridge.c.obj
 .debug_line    0x00000b57      0x614 mesh/bootloader/CMakeFiles/mesh_bootloader_gccarmemb_nrf52840_xxAA.dir/src/bootloader_info.c.obj
 .debug_line    0x0000116b      0x1f9 mesh/bootloader/CMakeFiles/mesh_bootloader_gccarmemb_nrf52840_xxAA.dir/src/bootloader_rtc.c.obj
 .debug_line    0x00001364      0x13d mesh/bootloader/CMakeFiles/mesh_bootloader_gccarmemb_nrf52840_xxAA.dir/src/bootloader_util.c.obj
 .debug_line    0x000014a1      0x52f mesh/bootloader/CMakeFiles/mesh_bootloader_gccarmemb_nrf52840_xxAA.dir/src/dfu_bank.c.obj
 .debug_line    0x000019d0      0x8c3 mesh/bootloader/CMakeFiles/mesh_bootloader_gccarmemb_nrf52840_xxAA.dir/src/dfu_mesh.c.obj
 .debug_line    0x00002293      0x3f2 mesh/bootloader/CMakeFiles/mesh_bootloader_gccarmemb_nrf52840_xxAA.dir/src/dfu_transfer_mesh.c.obj
 .debug_line    0x00002685      0x466 mesh/bootloader/CMakeFiles/mesh_bootloader_gccarmemb_nrf52840_xxAA.dir/src/dfu_util.c.obj
 .debug_line    0x00002aeb      0x338 mesh/bootloader/CMakeFiles/mesh_bootloader_gccarmemb_nrf52840_xxAA.dir/src/fifo.c.obj
 .debug_line    0x00002e23      0x302 mesh/bootloader/CMakeFiles/mesh_bootloader_gccarmemb_nrf52840_xxAA.dir/src/main.c.obj
 .debug_line    0x00003125      0x46b mesh/bootloader/CMakeFiles/mesh_bootloader_gccarmemb_nrf52840_xxAA.dir/src/mesh_packet.c.obj
 .debug_line    0x00003590      0x1f9 mesh/bootloader/CMakeFiles/mesh_bootloader_gccarmemb_nrf52840_xxAA.dir/src/nrf_flash.c.obj
 .debug_line    0x00003789      0x3c7 mesh/bootloader/CMakeFiles/mesh_bootloader_gccarmemb_nrf52840_xxAA.dir/src/radio_control.c.obj
 .debug_line    0x00003b50      0x1f0 mesh/bootloader/CMakeFiles/mesh_bootloader_gccarmemb_nrf52840_xxAA.dir/src/rand.c.obj
 .debug_line    0x00003d40      0x58a mesh/bootloader/CMakeFiles/mesh_bootloader_gccarmemb_nrf52840_xxAA.dir/src/transport.c.obj
 .debug_line    0x000042ca      0x4d4 mesh/bootloader/CMakeFiles/mesh_bootloader_gccarmemb_nrf52840_xxAA.dir/src/uECC.c.obj
 .debug_line    0x0000479e      0x431 mesh/bootloader/CMakeFiles/mesh_bootloader_gccarmemb_nrf52840_xxAA.dir/C_/mesh/deps/nRF5_SDK_15.3.0_59ac345/components/libraries/sha256/sha256.c.obj
 .debug_line    0x00004bcf      0x214 mesh/bootloader/CMakeFiles/mesh_bootloader_gccarmemb_nrf52840_xxAA.dir/C_/mesh/deps/nRF5_SDK_15.3.0_59ac345/modules/nrfx/mdk/system_nrf52840.c.obj

.debug_str      0x00000000     0x487c
 .debug_str     0x00000000     0x231c mesh/bootloader/CMakeFiles/mesh_bootloader_gccarmemb_nrf52840_xxAA.dir/src/bootloader.c.obj
                               0x256f (size before relaxing)
 .debug_str     0x0000231c      0x33e mesh/bootloader/CMakeFiles/mesh_bootloader_gccarmemb_nrf52840_xxAA.dir/src/bootloader_app_bridge.c.obj
                               0x19d9 (size before relaxing)
 .debug_str     0x0000265a      0x51d mesh/bootloader/CMakeFiles/mesh_bootloader_gccarmemb_nrf52840_xxAA.dir/src/bootloader_info.c.obj
                               0x108b (size before relaxing)
 .debug_str     0x00002b77       0x52 mesh/bootloader/CMakeFiles/mesh_bootloader_gccarmemb_nrf52840_xxAA.dir/src/bootloader_rtc.c.obj
                                0x6e8 (size before relaxing)
 .debug_str     0x00002bc9       0x3f mesh/bootloader/CMakeFiles/mesh_bootloader_gccarmemb_nrf52840_xxAA.dir/src/bootloader_util.c.obj
                                0x5f7 (size before relaxing)
 .debug_str     0x00002c08      0x182 mesh/bootloader/CMakeFiles/mesh_bootloader_gccarmemb_nrf52840_xxAA.dir/src/dfu_bank.c.obj
                               0x17fa (size before relaxing)
 .debug_str     0x00002d8a      0x7d2 mesh/bootloader/CMakeFiles/mesh_bootloader_gccarmemb_nrf52840_xxAA.dir/src/dfu_mesh.c.obj
                               0x1b6f (size before relaxing)
 .debug_str     0x0000355c      0x114 mesh/bootloader/CMakeFiles/mesh_bootloader_gccarmemb_nrf52840_xxAA.dir/src/dfu_transfer_mesh.c.obj
                                0xa27 (size before relaxing)
 .debug_str     0x00003670      0x140 mesh/bootloader/CMakeFiles/mesh_bootloader_gccarmemb_nrf52840_xxAA.dir/src/dfu_util.c.obj
                               0x113f (size before relaxing)
 .debug_str     0x000037b0       0x68 mesh/bootloader/CMakeFiles/mesh_bootloader_gccarmemb_nrf52840_xxAA.dir/src/fifo.c.obj
                                0x6e6 (size before relaxing)
 .debug_str     0x00003818      0x1f5 mesh/bootloader/CMakeFiles/mesh_bootloader_gccarmemb_nrf52840_xxAA.dir/src/main.c.obj
                                0xf65 (size before relaxing)
 .debug_str     0x00003a0d      0x170 mesh/bootloader/CMakeFiles/mesh_bootloader_gccarmemb_nrf52840_xxAA.dir/src/mesh_packet.c.obj
                                0xb12 (size before relaxing)
 .debug_str     0x00003b7d       0xc9 mesh/bootloader/CMakeFiles/mesh_bootloader_gccarmemb_nrf52840_xxAA.dir/src/nrf_flash.c.obj
                                0x48b (size before relaxing)
 .debug_str     0x00003c46      0x576 mesh/bootloader/CMakeFiles/mesh_bootloader_gccarmemb_nrf52840_xxAA.dir/src/radio_control.c.obj
                               0x1054 (size before relaxing)
 .debug_str     0x000041bc       0x7d mesh/bootloader/CMakeFiles/mesh_bootloader_gccarmemb_nrf52840_xxAA.dir/src/rand.c.obj
                                0x2f8 (size before relaxing)
 .debug_str     0x00004239      0x1b7 mesh/bootloader/CMakeFiles/mesh_bootloader_gccarmemb_nrf52840_xxAA.dir/src/transport.c.obj
                               0x101f (size before relaxing)
 .debug_str     0x000043f0      0x2a3 mesh/bootloader/CMakeFiles/mesh_bootloader_gccarmemb_nrf52840_xxAA.dir/src/uECC.c.obj
                                0x4bc (size before relaxing)
 .debug_str     0x00004693       0x77 mesh/bootloader/CMakeFiles/mesh_bootloader_gccarmemb_nrf52840_xxAA.dir/C_/mesh/deps/nRF5_SDK_15.3.0_59ac345/components/libraries/sha256/sha256.c.obj
                                0x6ea (size before relaxing)
 .debug_str     0x0000470a      0x172 mesh/bootloader/CMakeFiles/mesh_bootloader_gccarmemb_nrf52840_xxAA.dir/C_/mesh/deps/nRF5_SDK_15.3.0_59ac345/modules/nrfx/mdk/system_nrf52840.c.obj
                                0x915 (size before relaxing)

.debug_frame    0x00000000     0x14dc
 .debug_frame   0x00000000      0x13c mesh/bootloader/CMakeFiles/mesh_bootloader_gccarmemb_nrf52840_xxAA.dir/src/bootloader.c.obj
 .debug_frame   0x0000013c      0x130 mesh/bootloader/CMakeFiles/mesh_bootloader_gccarmemb_nrf52840_xxAA.dir/src/bootloader_app_bridge.c.obj
 .debug_frame   0x0000026c      0x22c mesh/bootloader/CMakeFiles/mesh_bootloader_gccarmemb_nrf52840_xxAA.dir/src/bootloader_info.c.obj
 .debug_frame   0x00000498       0x40 mesh/bootloader/CMakeFiles/mesh_bootloader_gccarmemb_nrf52840_xxAA.dir/src/bootloader_rtc.c.obj
 .debug_frame   0x000004d8       0x30 mesh/bootloader/CMakeFiles/mesh_bootloader_gccarmemb_nrf52840_xxAA.dir/src/bootloader_util.c.obj
 .debug_frame   0x00000508       0xbc mesh/bootloader/CMakeFiles/mesh_bootloader_gccarmemb_nrf52840_xxAA.dir/src/dfu_bank.c.obj
 .debug_frame   0x000005c4      0x284 mesh/bootloader/CMakeFiles/mesh_bootloader_gccarmemb_nrf52840_xxAA.dir/src/dfu_mesh.c.obj
 .debug_frame   0x00000848      0x10c mesh/bootloader/CMakeFiles/mesh_bootloader_gccarmemb_nrf52840_xxAA.dir/src/dfu_transfer_mesh.c.obj
 .debug_frame   0x00000954      0x19c mesh/bootloader/CMakeFiles/mesh_bootloader_gccarmemb_nrf52840_xxAA.dir/src/dfu_util.c.obj
 .debug_frame   0x00000af0       0xc8 mesh/bootloader/CMakeFiles/mesh_bootloader_gccarmemb_nrf52840_xxAA.dir/src/fifo.c.obj
 .debug_frame   0x00000bb8       0x58 mesh/bootloader/CMakeFiles/mesh_bootloader_gccarmemb_nrf52840_xxAA.dir/src/main.c.obj
 .debug_frame   0x00000c10      0x154 mesh/bootloader/CMakeFiles/mesh_bootloader_gccarmemb_nrf52840_xxAA.dir/src/mesh_packet.c.obj
 .debug_frame   0x00000d64       0x50 mesh/bootloader/CMakeFiles/mesh_bootloader_gccarmemb_nrf52840_xxAA.dir/src/nrf_flash.c.obj
 .debug_frame   0x00000db4       0xac mesh/bootloader/CMakeFiles/mesh_bootloader_gccarmemb_nrf52840_xxAA.dir/src/radio_control.c.obj
 .debug_frame   0x00000e60       0x60 mesh/bootloader/CMakeFiles/mesh_bootloader_gccarmemb_nrf52840_xxAA.dir/src/rand.c.obj
 .debug_frame   0x00000ec0      0x1cc mesh/bootloader/CMakeFiles/mesh_bootloader_gccarmemb_nrf52840_xxAA.dir/src/transport.c.obj
 .debug_frame   0x0000108c      0x224 mesh/bootloader/CMakeFiles/mesh_bootloader_gccarmemb_nrf52840_xxAA.dir/src/uECC.c.obj
 .debug_frame   0x000012b0       0x9c mesh/bootloader/CMakeFiles/mesh_bootloader_gccarmemb_nrf52840_xxAA.dir/C_/mesh/deps/nRF5_SDK_15.3.0_59ac345/components/libraries/sha256/sha256.c.obj
 .debug_frame   0x0000134c       0x48 mesh/bootloader/CMakeFiles/mesh_bootloader_gccarmemb_nrf52840_xxAA.dir/C_/mesh/deps/nRF5_SDK_15.3.0_59ac345/modules/nrfx/mdk/system_nrf52840.c.obj
 .debug_frame   0x00001394       0x2c c:/mesh/arm_gcc/bin/../lib/gcc/arm-none-eabi/7.3.1/thumb/v7e-m/fpv4-sp/hard\libgcc.a(_aeabi_uldivmod.o)
 .debug_frame   0x000013c0       0x34 c:/mesh/arm_gcc/bin/../lib/gcc/arm-none-eabi/7.3.1/thumb/v7e-m/fpv4-sp/hard\libgcc.a(_udivmoddi4.o)
 .debug_frame   0x000013f4       0x28 c:/mesh/arm_gcc/bin/../lib/gcc/arm-none-eabi/7.3.1/../../../../arm-none-eabi/lib/thumb/v7e-m/fpv4-sp/hard\libg_nano.a(lib_a-exit.o)
 .debug_frame   0x0000141c       0x2c c:/mesh/arm_gcc/bin/../lib/gcc/arm-none-eabi/7.3.1/../../../../arm-none-eabi/lib/thumb/v7e-m/fpv4-sp/hard\libg_nano.a(lib_a-init.o)
 .debug_frame   0x00001448       0x2c c:/mesh/arm_gcc/bin/../lib/gcc/arm-none-eabi/7.3.1/../../../../arm-none-eabi/lib/thumb/v7e-m/fpv4-sp/hard\libg_nano.a(lib_a-memcmp.o)
 .debug_frame   0x00001474       0x28 c:/mesh/arm_gcc/bin/../lib/gcc/arm-none-eabi/7.3.1/../../../../arm-none-eabi/lib/thumb/v7e-m/fpv4-sp/hard\libg_nano.a(lib_a-memcpy-stub.o)
 .debug_frame   0x0000149c       0x20 c:/mesh/arm_gcc/bin/../lib/gcc/arm-none-eabi/7.3.1/../../../../arm-none-eabi/lib/thumb/v7e-m/fpv4-sp/hard\libg_nano.a(lib_a-memset.o)
 .debug_frame   0x000014bc       0x20 c:/mesh/arm_gcc/bin/../lib/gcc/arm-none-eabi/7.3.1/../../../../arm-none-eabi/lib/thumb/v7e-m/fpv4-sp/hard\libnosys.a(_exit.o)
