:02000004000FEB
:10800000E02B0020D9C40F00E1C40F0075AA0F00B7
:10801000E5C40F00E7C40F00E9C40F000000000032
:10802000000000000000000000000000EBC40F0092
:10803000EDC40F0000000000EFC40F00F1C40F00FA
:10804000F3C40F00A3B30F00F3C40F00F3C40F0079
:10805000F3C40F00F3C40F00F3C40F00F3C40F0008
:10806000F3C40F00F3C40F00F3C40F00AD900F0072
:10807000F3C40F00F3C40F00F3C40F00F3C40F00E8
:10808000F3C40F00F3C40F00F3C40F00F3C40F00D8
:1080900063B30F00F3C40F00F3C40F00D5820F00C9
:1080A000F3C40F00F3C40F00F3C40F00F3C40F00B8
:1080B000F3C40F00F3C40F00000000000000000034
:1080C000F3C40F00F3C40F00F3C40F00F3C40F0098
:1080D000F3C40F00F3C40F00F3C40F00F3C40F0088
:1080E000F3C40F00F3C40F00F3C40F00000000003E
:1080F00000000000F3C40F0000000000F3C40F00F4
:10810000000000000000000000000000000000006F
:10811000000000000000000000000000000000005F
:10812000000000000000000000000000000000004F
:10813000000000000000000000000000000000003F
:10814000000000000000000000000000000000002F
:10815000000000000000000000000000000000001F
:10816000000000000000000000000000000000000F
:1081700000000000000000000000000000000000FF
:1081800000000000000000000000000000000000EF
:1081900000000000000000000000000000000000DF
:1081A00000000000000000000000000000000000CF
:1081B00000000000000000000000000000000000BF
:1081C00000000000000000000000000000000000AF
:1081D000000000000000000000000000000000009F
:1081E000000000000000000000000000000000008F
:1081F000000000000000000000000000000000007F
:1082000000F002F800F03CF80AA090E8000C82446C
:108210008344AAF10107DA4501D100F031F8AFF249
:10822000090EBAE80F0013F0010F18BFFB1A43F054
:108230000103184764480000A4480000103A24BF16
:1082400078C878C1FAD8520724BF30C830C144BFBB
:1082500004680C60704700000023002400250026FD
:10826000103A28BF78C1FBD8520728BF30C148BF99
:108270000B6070471FB504F00AFB1FBD10B510BDA1
:1082800004F0CBFA1146FFF7F5FF02F0F6FB04F01D
:10829000E9FA03B4FFF7F2FF03BC04F0F1FA0000BF
:1082A000056885F308884068FF2464B2EFF305850C
:1082B000002D01D1A64600472546064621273FBA94
:1082C000F0B40024002500260027F0B4F92040B2C5
:1082D0000047000030B58BB000244FF0005551E04E
:1082E0009DF80000641C0128019806D00299A8425C
:1082F0003ED3FF2204F03DFA3CE0800702D000208C
:1083000010B104E00120FBE7002002F0ADFB039870
:10831000800702D0002010B104E00120FBE700201C
:1083200002F0A2FB0298800702D0002010B104E006
:108330000120FBE7002002F097FB0198A8420DD333
:108340000146002006E0029B0A781B5C1A4001F8F7
:10835000012B401C039A8242F5D804E0DDE90212A9
:10836000002302F03DFD60208DF81000029805E02A
:1083700002F00AFD61208DF810000198059004A814
:1083800000F08EFA6946FE4802F012FB0028A7D0E2
:108390002CB162208DF8100004A800F081FAF84892
:1083A00002F059FBF7490978084205D0122000F085
:1083B00032FD006800F0B6FE0BB030BD00B587B0EE
:1083C00002F05DFC00280FD081884FF6EF729142D9
:1083D0000AD902218DF80010011D01910078C01EFC
:1083E0000290684600F05CFA07B000BD7FB5044615
:1083F000122000F010FD0546062C08D003DC34B135
:10840000012C2BD103E0082C25D00A2C26D1002DDD
:108410001CD001F054FE002818D0D94802F01BFBF4
:10842000A8B102F070FA02F017FDD7480FC88DE826
:108430000F00684618DF08B102F016FB286813DF4A
:1084400008B102F011FB286800F06CFE7FBDCD4939
:10845000012008707FBD002002F006FB72B6FEE727
:1084600000F01EBA30B504460078012587B02528F3
:108470006FD00EDC22286DD006DC02286BD02028BD
:1084800019D0212814D15CE023287DD024280FD1D5
:10849000C4E0002161284BD006DC502875D051285B
:1084A00074D0602804D10CE062283DD070283FD001
:1084B000062007B030BD2079FFF798FF01F095FC4A
:1084C000D8E06846009102F023FB00287ED0009897
:1084D00002F095FB0098017821F00F01891C00F84B
:1084E000011B217A0A3100F8091B162100F8011B33
:1084F000E42100F8011BFE2100F80319217AC91CB0
:1085000000F8041BD4E9011204F0BCF8237B627B61
:10851000A17B009802F079FF0446009802F042FB2C
:10852000002C04D10320C4E7207902F0C1FFA1E0B0
:10853000A068964A410CC003002303F0EDFF02211E
:1085400069E000F09EF92079022805D001280AD0C0
:1085500090E067E03FE031E023208DF800006846BE
:1085600000F09EF925716179A01D02F00DF970B33C
:10857000022000F050FC00B1012010B9002002F0F0
:1085800073FA20217E4802E042E075E053E018389B
:1085900001704FF0FF31016161790171D4F806106B
:1085A000C0F80510D4F80A10C0F80910E189A0F845
:1085B0000D1007B0BDE8304000F072B920790228F4
:1085C00058D101F07CFD10B9022001E04DE01EE021
:1085D00000F010FF4EE0207902284BD100F051F955
:1085E00021208DF80000D4F80700CDF80500D4F85C
:1085F0000B00CDF80900B4F80F00ADF80D00A0791C
:108600008DF8040060690490684600F049F931E093
:1086100001214FF4202000F021F92BE001214FF43B
:108620007020F8E76079042801D0012822D10020C9
:10863000FFF7DCFE1EE02079800702D1207A800758
:1086400001D0102035E7207B800701D0092030E7DA
:108650008DF80050241D01AB94E8070083E8070063
:108660006946474802F07CF908B1042021E7172049
:1086700000F0E9F800201CE702208DF80000E9E78F
:1086800070B588B000F033FD18213D4804F09BF828
:108690003B493B481831082601601021C0E901160A
:1086A00002F050F93A49602081F8000401254FF0AA
:1086B000E021E8050024C1F8000100F091F93548F7
:1086C0008DF80C5002908DF80D608DF800408DF8FB
:1086D00004508DF80E40684600F0E2F808B102F050
:1086E000C3F92D492D4802F060FE06A800F064FE93
:1086F0009DF81800002801D02948046008B070BD1A
:10870000F0B58BB001208DF8100004A800F0C8F877
:1087100002F01FFE01F0D3FC30B103214FF4A02082
:1087200000F09CF80BB0F0BD042000F074FB05468F
:10873000122000F070FB0746102000F06CFB04468E
:10874000022000F057FE0028ECD04FF0FF360096D4
:108750002878400705D538680068401C01D1401FC3
:1087600000902878C00709D020680068401C05D117
:10877000606818B1009820F001000090009811E0A6
:10878000480000200400002098C80F0040420F005D
:1087900017E000E065840F00D6BE898EBD830F0010
:1087A0001C050040401C03D06946042000F0B9FBC2
:1087B00001F05FFC0500B5D000F01CFE0528B1D12A
:1087C000022000F028FB041E00D0012010B9002078
:1087D00002F04AF9012D0AD0042D0CD00B2002F032
:1087E00043F9324601A9284601F01DFB9AE720888B
:1087F000ADF80400F5E7241D01AB94E8070083E819
:108800000700EEE730B5234D002487B068780128D3
:1088100011D0022809D0032811D0082002F024F931
:108820006C70684600F03CF843E603208DF80000C9
:108830008DF80440F4E723208DF80000F0E70020D5
:10884000FFF7D4FD35E600F01F02012191404009F9
:10885000800000F1E020C0F8001270470E4A0023AB
:10886000C2F844310D4B1B6818440C4B20F07F407C
:10887000403318604FF40030C2F8040305484170DB
:10888000704705494FF40030C1F808030149002042
:10889000487070470400002000B0004004B500405C
:1088A00030B50446007889B04FF47F25232869D07D
:1088B00012DC864904284DD007DC18B301283CD0CF
:1088C00002283DD0032817D141E020284ED021288E
:1088D00052D0222810D112E032286AD006DC242897
:1088E00053D0302855D0312806D159E0602864D0C3
:1088F000612868D062286BD0062002F0B5F8062007
:1089000009B030BDA0684860A07B40B1002008706D
:10891000207B10B1607B022803D20720F0E7012002
:10892000F5E74FF47E21284600F033FA08B1032022
:10893000E6E7607B01F044FA50E001F056FA4DE0C2
:108940002089012281B2606801F09EFAD8E701F027
:108950006AFB43E00020241D8DF800001DCC01AD12
:1089600085E81D00496868468847C9E72079611D88
:10897000226901F058FAC3E72079611D226901F0EC
:1089800068FABDE701F0BAFB28E0207900F032FD7B
:10899000B6E7A08800F03FFAA060F8B90520AFE77D
:1089A000D4E90212A08800F051FAA84216D2102091
:1089B000A6E7A08800F0CBFA10E0606801F04AFE5C
:1089C0000120616801E00220616800F0D4FA05E04E
:1089D00000F0FDFA00F03AFD01F092FB00208FE775
:1089E0004FF08050D0F80C01394901EB8020AFF2F4
:1089F0004F1101603549012008700020704733494C
:108A0000496801B108470820704700B589B02021A6
:108A10008DF804008DF800106846FFF7F0FF09B0EC
:108A200000BD70B58AB016460D4604462422294979
:108A3000684603F06CFE01A9684681E87000FFF704
:108A4000DEFF0AB070BD30B50D46224989B004463C
:108A500024222431684603F05AFE6846CDE90145D8
:108A6000FFF7CDFF4CE700B589B0702102900020E0
:108A700001908DF800106846FFF7C1FFCFE700B501
:108A800089B071208DF80000002001906846FFF742
:108A9000B6FFC4E700B589B062218DF804008DF8F7
:108AA00000106846FFF7ABFFB9E78AB001238DF8E5
:108AB000003001AB83E807006846FFF7A0FF72B6FD
:108AC000FEE70248007880F00100704700FD0320B7
:108AD000FCFFFF1FA8C80F0070B504460078FF28F0
:108AE00015D02044002347F6FF754FF4006604F5C7
:108AF00080540EE0028800EB8200A04207D8428832
:108B0000AA4201D18A4202D15B1CB34201D90020A2
:108B100070BD42888A42EDD1001D70BD2DE9F04143
:108B2000F84D04462869844202D0102001F09CFFD1
:108B3000EFF3108000F0010272B628694FF6FF7360
:108B400000889842E868018801D1491C01E0268824
:108B5000314401802088EC4904EB8000A1F18004BD
:108B60002861884200D12C6128694688A6F5FE4715
:108B7000FF3F07D106889E4204D1001D286188422C
:108B800000D12C61002A00D162B6BDE8F0810188D5
:108B9000DD4A00EB8100DB499042C86002D1A2F1BE
:108BA0008000C8600969884209D00A1AC2F38F029E
:108BB0000280814201D22032028000214180704730
:108BC0002DE9F0410146EFF3108000F0010572B687
:108BD000CC4BDC68B4F800C0B1EB8C0F01D86088D6
:108BE00018B105B962B60020CFE7C74E1869002753
:108BF000803EC1F38F02844204D1DE601E610FE02B
:108C000062B614E0301B8030814212D9C0EB8C0C6C
:108C10008C45E6D347F6FF71618080082080DE60D6
:108C2000328077803046FFF7B2FF002DE8D0304623
:108C3000ABE722802046FFF7AAFF05B962B62046BF
:108C4000A3E710B5B04C022004222070D4E9010142
:108C5000FFF7E7FE002801D00120207610BD70B597
:108C6000A94D26E04888A0F57F42FF3A27D0D8B129
:108C700009888C0012F5004100D1042428690119EB
:108C8000686800F58050814202D9032001F0ECFEB3
:108C9000D5E903102246FFF7C4FE002813D1E86887
:108CA0006861286920442861E868018800EB810038
:108CB000E860D5E9020100F580508142D2D301205D
:108CC00028760420287070BD70B58F4C22780AB1C8
:108CD000082070BDC4E901010121217089490125E5
:108CE000497819B92903FFF7AEFE00B125760020B7
:108CF00070BD70B5054683480C460078012802D047
:108D0000002212B104E00122FBE7002001F0ACFEDA
:108D100021462846FFF7E0FE00F080F918B1BDE8D3
:108D2000704000F06DB9052070BD2DE9F047DB1CE7
:108D3000089E824623F0030505EB8600914688468F
:108D4000001DFFF73DFF040021D046B16019074622
:108D5000FF22082103F00DFD47F6FF70F880EF1D9C
:108D6000B8082080A4F802802A464946201D03F056
:108D7000CEFC27F0030000EB860221465046FFF7A9
:108D800050FE08B101F070FE0020BDE8F08704201D
:108D9000FBE770B55B4C002540EA01022570120527
:108DA00001D0102070BD0646C4E90101564880215B
:108DB000803803F008FD544820218038E0602061AD
:108DC0000180304600F037F9064660611C214E48AC
:108DD00003F0F9FC6570AEB9A06800F02CF905004D
:108DE00014D04FF480516068FFF72DFE08B101F0F8
:108DF0003BFEA16860686A1A121DFFF712FE08B1F7
:108E000001F032FE01202070002070BD0B2070BDEB
:108E10003C484068704701464FF47F205CE610B53F
:108E2000384C2078012800D0002010B9002001F033
:108E30001BFE042020706168081D6061A068FFF7B8
:108E400043FF002801D10321217010BD2DE9F84313
:108E50002C4E8146154630788846012800D00020E7
:108E600010B9002001F000FE542D01D8012000E0CF
:108E7000002010B9002001F0F7FD307D800702D0FE
:108E8000002010B104E00120FBE7002001F0ECFD20
:108E90007069B0F57F2F01D9012000E0002010B9E2
:108EA000002001F0E1FD4846FFF7B5FF00F0B6F8FD
:108EB0007469074644B171686019083001F5805142
:108EC000884203D3082017E00E2015E001207070BF
:108ED00000902B46424649462046FFF726FF50B9F0
:108EE000ED1D716925F003000844706177B13846C3
:108EF00000F086F850B1042001F0B6FD0020BDE876
:108F0000F883000008FD0320B8FD03207069716834
:108F1000583001F58051884201D3FFF780FF201DB2
:108F2000EDE738B50C460546FFF775FF00F076F81B
:108F300058B101886FF0030202EB81030021009118
:108F400022462946FFF7F1FE38BD052038BD01460F
:108F50004FF47F20CDE652480078012800D0002051
:108F600070474F480178012901D1407808B10020AD
:108F700070470120704770B505460C46012808D19E
:108F80004848844205D38030844202D20846FFF725
:108F9000C5FD2146284600F059F842488030007847
:108FA00000280BD13E4C2078032808D0052805D195
:108FB000606800F040F860610120207070BDD4E965
:108FC0000101FFF781FE0028F8D10520F5E73448BC
:108FD000002234494270C0688031428008780028FD
:108FE0000DD00B7E002B0AD00A76012802D0022871
:108FF00005D126E648684FF48051FFF724BD70473D
:1090000010B50446810702D0102001F02DFD204646
:10901000BDE8104004222449FFF703BD48B1B0F574
:10902000801F06D01E4949684978494200EB8100FB
:1090300070470020704710B547F6FF71FFF74CFDF1
:10904000002802D0BDE81040E8E710BD30B4154C50
:109050008034234622785B68012A0ED0022A12D07F
:10906000032A1BD0042A06D1012804D16069884252
:1090700001D10020207030BC70470228FBD18B4208
:10908000F9D130BCDDE50128F5D1A0688842F2D1E4
:109090000321001D21701B1DC4E9030330BCDEE564
:1090A00008FD032038FD0320F0C80F0070B51A4CEE
:1090B000D4F84001002538B1D4F80403C00303D527
:1090C000C4F8405102F00DFAD4F8440100280DD044
:1090D000D4F80403800309D5C4F844514FF4003098
:1090E000C4F80803BDE87040FFF78CBB70BD0B49A6
:1090F0000020086008484FF44031C0F844130121B3
:10910000816001600649202081F800044FF0E021D1
:109110008001C1F80001704700B0004008B5004070
:109120000BE000E0FFF7BCB82DE9F041D04E04465B
:109130008AB030788846C043099009A90420FFF717
:10914000F0FE30780127012828D0002502280FD012
:10915000042840D00B2001F087FCFC2188F8131074
:10916000307841462030FFF7DCFE0AB0BDE8F081E0
:109170001120FFF750FE0168D4E9000203F056FA0F
:109180000028EAD001F0BFFB62B60095206801908C
:10919000606880080290684618DF17E01020FFF72B
:1091A0003AFE0168D4E9000203F040FA0028D4D066
:1091B00001F0A9FB62B60097206801906068800802
:1091C00003904FF480500290684618DF0028CCD0FE
:1091D00001F04AFCC9E7FFF774FCA0B101F093FB72
:1091E000A4494FF00F100860A3480560BFF34F8FEC
:1091F000A2480168A24A01F4E06111430160BFF393
:109200004F8F00BFFDE71220FFF705FE051E00D0BF
:10921000012010B9002001F027FC2888000502D0A9
:10922000002010B104E00120FBE7002001F01CFC4D
:1092300050208DF8000028680190606800F6FF70EB
:109240006FF30B0002906846FFF7D9FB68B9512015
:109250008DF80000206802906068039028680190F3
:109260006846FFF7CCFB00288BD077707DE72DE9AF
:10927000F0437F4EBFB07468002C6DD0EFF31080C8
:1092800000F0010872B654222146684603F03FFA06
:10929000E07C0125F82855D0FC2813D0FE280BD0FF
:1092A000FF2855D17570FE208DF81300307869467F
:1092B0002030FFF736FE4BE0757069462046FFF719
:1092C00033FF45E00220FFF7A6FD81460420FFF7AB
:1092D000A2FD07465FEA090000D0012010B9002076
:1092E00001F0C2FB0E2249462AA803F010FAB7B3D8
:1092F000386815903078012838D002283ED00428EC
:1093000048D000270B2001F0AFFB0E222AA9022033
:10931000FFF79CFDD8B1A07C30B1402204F11401CC
:109320003846FFF793FD90B1042215A91046FFF7C8
:109330008DFD60B1F8208DF813003078694620303B
:10934000FFF7EFFD30782030FFF701FE80B3757036
:10935000B8F1000F00D162B63FB0BDE8F083FFE77F
:10936000FF22042115A803F004FAC3E72089ADF811
:10937000A80015981A2740F0010009E0207A8DF81E
:10938000AA00607A8DF8AB0015981B2740F0020008
:109390001590BAE7A0682B90A089ADF8B000D4F87A
:1093A0000E00CDF8B20015981C2740F00400EFE73E
:1093B000FFE700207060CBE770B52D4E0546012415
:1093C00004F1200080B2FFF726FD50B1C17CFF29D7
:1093D00007D034707060FFF74AFF002D09D00120DC
:1093E00006E06400042CEBD900207060002D00D052
:1093F000287070BD70B50446012805D0042C03D038
:10940000022C01D0072070BD194D686808B10820F2
:1094100070BD04F12000FFF7FEFC48B10168096847
:10942000491C05D02C706860FFF721FF002070BD3B
:10943000052070BD10B52030FFF7EDFC10B1C07CE9
:10944000FF2801D0002010BD012010BD0848416850
:10945000002905D04178002902D00021417006E79B
:10946000704703484068002800D001207047000082
:1094700020FD0320000400401C0500400CED00E02E
:109480000400FA0510B50420FFF7C5FCFE4C20616E
:109490000220FFF7C0FC20601220FFF7BCFCE06058
:1094A0001120FFF7B8FCA0601020FFF7B4FC60604B
:1094B0000120FFF7B0FC606120694FF47F218842F2
:1094C0000BD32068884208D3E068884205D36068DF
:1094D000884202D3A068884204D2BDE81040082028
:1094E000FFF793BA10BD01468068421C00D10020EE
:1094F000CA6800F00F0000EB82000122401E098ABA
:1095000002EB101009B100EB1110B0F5803F01D350
:109510004FF6FF70704770B5DC4D8AB06C78EE780E
:10952000B44200D20CB901246C7060248DF8004064
:10953000CDE901018DF80C208DF80D3068788DF89B
:109540000E006846FFF75BFA002802D16978491CD3
:1095500069700AB070BD30B5CB4CA5B06069E8B396
:10956000A4F17405E86900283BD0684602F0E1FDEB
:109570000122691D684602F0F5FD0422A4F1640190
:10958000684602F0EFFD0422A4F15C01684602F097
:10959000E9FD00208DF89000012224A9684602F020
:1095A000E1FD6879A4F10E0101281CD002281AD02F
:1095B000042803D10A22684602F0D4FD684601F06F
:1095C0003CF800221CA9684602F0F6FDAE4A1CA930
:1095D000543A606902F082FB002800E000E000D00D
:1095E000012025B030BD0222E5E7F0B58FB0074677
:1095F0001821684603F0E7F8FF2602250024781EAC
:10960000022823D84FF6FD70ADF800009E489DF863
:1096100003107438027990F8713062F3020163F339
:10962000C3018DF8031003680193984B1B78072B37
:1096300016D021F010018DF8031050F8661F02912A
:10964000416803910089ADF81000012538006F468C
:1096500009D0012813D0022818D003281ED12EE0EB
:1096600041F01001E7E74FF6FE70ADF800008648C4
:1096700010240E220168B81C03F004F80EE09DF8D7
:109680000200122420F00F00001D05E09DF80200EA
:109690000A2420F00F00401C8DF8020060208DF895
:1096A0001800CDE907748DF824508DF8256000204E
:1096B0008DF8260006A8FFF7A2F90FB0F0BD9DF8BF
:1096C00002000A2420F00F00801CE5E770B5044674
:1096D00000880323A0F57F42FC3A02D1608800B9DC
:1096E000062300222046FFF716FF050002D1204680
:1096F00001F0E0F8284670BD70B5634B0024743B60
:1097000005461C719C614FF6FF709C60A3F86200D7
:10971000A3F8644083F87040DC611C605D712A46E8
:1097200003F1660000F0A8FF58490220087028469F
:1097300000F00BFDBDE8704057E72DE9F0435349B9
:10974000A7B0042008700146FF22684603F011F814
:109750004D4E743E707901283DD0022844D0042833
:109760003DD0072001F080F9D6E90201DFF8188129
:109770004FF0010981426AD02120FFF74CFB159080
:109780002220FFF748FB16902420FFF744FB4FF000
:10979000FF35002415AF179057F82400A0B103C877
:1097A000B369F26801F0A1F840B109FA04F0203081
:1097B00080B2FFF7CCFB08B101F056F957F824004E
:1097C0000068A84200D20546641C032CE4D3B169AA
:1097D000F068431837E0009820F0010002E000989C
:1097E00020F004000090BFE7009820F00200F9E7A5
:1097F0000168491C26D0D8F8041044460A68824201
:1098000007D249681144814203D9009921F001012E
:109810000091A1680A68824207D2496811448142D6
:1098200003D9009921F002010091D8F80C100A68C0
:10983000824207D249681144814203D9009921F03C
:1098400004010091001D834201D9A842D0D30E4CDF
:10985000D6E902010E3C88420CD1D8F810004546EA
:10986000E0B169460420FFF75CFB18B1707921462E
:10987000FFF742FF96F87030D6E90201B26900F0B6
:10988000B5FD90B1707903E048FE032028FD032068
:109890002146FFF731FF27B0BDE8F0830422694677
:1098A0001046FFF7D3FA2861E4E762208DF87800CC
:1098B00000208DF87C001EA8FFF7A1F823208DF86A
:1098C00054008DF8589070798DF85900D6F86600DC
:1098D000CDF85A00D6F86A00CDF85E00B6F86E00F2
:1098E000ADF8620015A8FFF78AF8D4E700B589B093
:1098F00021218DF80010817801F00F018DF80510FD
:10990000FD4909788DF80410817801F00F0200F10B
:1099100008010DF1060000F0AFFE6846FFF76FF892
:1099200009B000BD2DE9F047F44E054600247079DA
:10993000894606F1740801280FD0022810D00428A7
:1099400008D0062001F090F8A8683061AF68781C54
:1099500009D009E0D8F80C40F6E7D8F80440F3E75E
:10996000D8F80840F0E727682846FFF7BCFDA6F8BE
:109970006200A6F86400B760E86810218000B0615A
:10998000288AF061A87CC0F3C00086F8700000202F
:10999000706186F86000D9489C3002F0F2FE00F059
:1099A0009AFFF0684FF01021421C06D0B269496955
:1099B0001044884216D90C201EE07079022801D08C
:1099C000B0680EE0D8F80C00D0E9002010444A69D5
:1099D000824200D24869B1696FF30B01401AA0F5C9
:1099E0008050F060D6E9020290420BD0B1690B467C
:1099F00000F07BFF30B10D20FFF707F8BDE8F0471E
:109A000000F0FBBBB168206881420CD3B2691144FD
:109A100062681044814206D8FFF78FFE012189F861
:109A20000010BDE8F087686800F023FF7079BDE89A
:109A3000F047B24966315FE62DE9F04FAE4F0D4673
:109A400004464088B98889B09346884209D10020ED
:109A5000B88062218DF804008DF800106846FEF78A
:109A6000CEFFA64E04F10803A5F10808B6F864007D
:109A7000F1699946A0EB111260884FF0010A824209
:109A80000AD3B16800F076FE1FFA88F2494600F06A
:109A9000E3FC05002AD119E0801A401EB0EB111F2B
:109AA00005D296F860100AFA00F5294201D008257F
:109AB0001CE006EB001042461946203002F0E2FDA1
:109AC00096F86000284386F860000025B6F8641018
:109AD0006088623600F047FB3088401E30808BF88B
:109AE00000A0B88810B9608800F0BDFB09B0284616
:109AF000BDE8F08F2DE9F043804E89460546406869
:109B000031688BB0884202D00B200BB0C4E62846E7
:109B100000F0BAFE08B10020F7E7774F4FF00008D9
:109B20008DF824803878032809D0042818D04FF005
:109B30000108072831D0082857D008246EE068882B
:109B400048B1306800F095FE6C4970796631FFF7D6
:109B5000D3FD08245BE009A92846FFF7E3FE52E0A5
:109B6000688850B1B6F86410884206D809AA4946F8
:109B70002846FFF761FF002400E00B24B6F86200DE
:109B800088BB70208DF800005D48CDE901806846F3
:109B9000FEF735FF0520387025E0688820B9284693
:109BA000FFF7A1FCA6F86400082038700020FEF73B
:109BB00071FF23208DF8000002208DF8040056F874
:109BC000660FCDF806007068CDF80A003089ADF850
:109BD0000E0016F8610C8DF805006846FEF70FFFC1
:109BE00004468DF824807CB111E0688820B92846AD
:109BF000FFF779FCA6F86400B6F86410688800F0F6
:109C0000B2FA8DF824800024284600F053FE9DF817
:109C1000240018B149462846FFF758FD204674E74E
:109C20002DE9F04104463448007801283DD0334DF9
:109C300004F1080705F166066979022806D00328B1
:109C400004D0072835D00820BDE8F08132462046F0
:109C500000F06FFDD8B1E078297900F00700884264
:109C600004D847D160682968884243D9A07800F0B9
:109C70000F006871A068C5F86600E068C5F86A0062
:109C8000208AA5F86E00204600F0C4FA32E0A078E1
:109C90006A7900F00F00824204D13146384600F064
:109CA0000FFD38BBE078400724D02046BDE8F041E6
:109CB0001CE6A07800F00F0081421BD10A4639460D
:109CC000304600F0E9FCA8B1E178287901F00701FD
:109CD000884204D30ED12868616888420AD260683D
:109CE0002860E07800F007002871687900F02DFA0C
:109CF000FFF77BFC0020A7E728FD0320D4FD03200D
:109D000080C3C901F0B505464168F94887B00068CD
:109D1000814253D1F74F3878082810D00024F44EF0
:109D2000698820469C3636F820208A4214D106EBFA
:109D300080046088411C6180082804D30FE0284615
:109D400000F0A2FD10B1002007B0F0BD07B028461A
:109D5000BDE8F0400821B9E4401C0428E3D3E448FE
:109D600069888068012904D020F00F0000EB011001
:109D70001038102202A900F0FBFB78B14FF6FA7000
:109D8000ADF800006888ADF8020068680190032310
:109D9000002218216846FFF7BEFB00E0052050EACC
:109DA000040108D1B97801F00302491C06EB8204D2
:109DB000B9706988218000216180C5E70B20C3E765
:109DC00070B5CC4C0021054621707421C84802F0C2
:109DD000FAFCC74810219C3002F0D3FC0020A07090
:109DE000E570BDE87040FFF74DBB10B57421C04869
:109DF00002F0E9FCBE4810219C3002F0C2FCBD4CD0
:109E00000020A070A080FFF73DFB00F0B9F900F042
:109E100062FDFFF726FB10B10020207010BDBDE8E9
:109E2000104000F0EAB9B34B10B51B78012B01D0FC
:109E3000082010BD4FF010235B69934203D8531CD8
:109E400001D0102010BDAA4BDA60FFF755FC0020AE
:109E500010BD70B5A74C15462378012B03D0022BFB
:109E600001D0082070BD07222270A14C024660710B
:109E700004F16600256000F0FFFB607900F065F9F1
:109E8000FFF7B3FB002070BD70B50288A2F57F42DA
:109E9000FA3A052A2DD2DFE802F0100D0A07030076
:109EA000BDE8704000F024BABDE87040B8E6BDE8F7
:109EB00070401FE6BDE8704024E704468D480D461B
:109EC000007808282046F2D100F0DEFC08B100201E
:109ED00070BD8748B0F86410B0F86200081A401CE2
:109EE00080B200F040F929462046BDE87040FFF7F7
:109EF000EDBB0B2070BDF0B57D4DABB074350E22BF
:109F000015A8296802F0BEFB794C002704F1200651
:109F1000D4E90201814235D0FF225421684602F083
:109F200028FC627904F1660102A800F0A5FBA06993
:109F30000190E0680090FF208DF8130000208DF85C
:109F40001200E069142240B14022314605A802F017
:109F5000DEFB01208DF812005422607901280ED01A
:109F6000022807D0042802D00B202BB0F0BD694690
:109F7000242001E069462220FEF768FF40E06946A0
:109F80002120F9E7286910B90E2000F06DFD28693D
:109F9000006800906079012812D002283AD0042885
:109FA00017D1D4F866001690D4F86A001790B4F868
:109FB0006E00ADF8600000981C2740F0040007E038
:109FC000B4F86600ADF8540000981A2740F001007C
:109FD0000090E06920B1402231463846FEF736FF56
:109FE0000020401C0E28FCD30E2215A90220FEF7EB
:109FF0002DFF0422286069461046FEF727FF2861DE
:10A000003C4906200870FEF70AFF08B100F02CFD5D
:10A010000020AAE7B4F86600ADF8560000981B27A8
:10A0200040F00200D4E7334810B5007809281FD269
:10A03000DFE800F01E05070709111E1C1C000120A7
:10A0400010E005200EE02A4829494079BDE810407B
:10A050006631FFF751BBFFF77EFA10B1BDE8104043
:10A0600049E70420BDE81040FEF7CFBC0020F9E727
:10A0700010BD70B50220FEF7CEFE06460420FEF7A6
:10A08000CAFE04461020FEF7C6FE05461220FEF763
:10A09000C2FE318831B12178C9070CD0296809681E
:10A0A000491C08D02178490707D500680068401C82
:10A0B00003D0002070BD012070BD042070BD10B51C
:10A0C0000220FEF7A8FE04461220FEF7A4FE9CB173
:10A0D00090B10068411C0FD00068401C0CD0D4F82F
:10A0E0000A0048B100F0B5FB30B1012010BD0000FE
:10A0F000D4FD032028FD03200020F7E700F07DB801
:10A1000000B5A44889B0007806281CD1FEF729FFC5
:10A11000002818D025208DF8000001208DF80400BB
:10A120009D4800F1660142798DF805200DF1060089
:10A1300000F0A2FA6846FEF762FC00F08AFAFFF728
:10A14000A1F9FFF752FE09B000BD012809D002288D
:10A1500005D0042801D0002070470120704703205B
:10A1600070470220704700B589B02422ADF8040082
:10A170008DF80020ADF806106846FEF740FCE2E7D7
:10A18000F0B586488FB00CAFD0E90010CDE90C10C7
:10A1900083A000680E90804874300068811CCDE96F
:10A1A0000910001D00240B9037F81400FEF733FE51
:10A1B00005001DD002208DF800000EAE05F108014B
:10A1C000325D8DF804200DF1060000F055FA09A863
:10A1D000325D50F8241004A800F04EFA2868079069
:10A1E00068680890A87C8DF805006846FEF707FCB3
:10A1F000641C032CD8D30FB0F0BD10B50020FFF7BE
:10A20000F4F9644901200870BDE8104074216248E7
:10A2100002F0D9BA70B5044600885F4DA0F57F41C1
:10A22000FD3908D1E078400705D0A078697900F0C1
:10A230000F00884202D0072000F016FC60682860FA
:10A24000E078544900F007002871E078C0F3C000BE
:10A2500085F87100032008706879FFF776FFBDE884
:10A260007040FFF7C2B970B592B000264A4C05465F
:10A270000F96109610AA0FA9606900F0ABF900289C
:10A2800034D0A06820F00F010F98401A66EB060149
:10A290000A0742EA1011491CA5F10100814203D3CB
:10A2A000B4F86400A84221D14FF6FB70ADF8240049
:10A2B000ADF8261020680A9060208DF8000009A8EB
:10A2C00001900820029002208DF80C00FF208DF8EC
:10A2D0000D008DF80E606846FEF791FB002805D151
:10A2E0000F982C496061BDF82600888012B070BDBF
:10A2F00070B5284D04468AB02878012802D008207D
:10A300000AB070BDA088ADF80000009800F08FFA88
:10A31000212658B102208DF800608DF805002079C3
:10A320008DF8060060798DF8070016E0A01D00F09A
:10A3300067FA60B36088A0F57F41FE3914D01649F2
:10A3400074310968098888420ED001208DF80060B8
:10A350008DF805006088ADF8060028788DF80400B7
:10A360006846FEF74CFBCBE704208DF800608DF8C3
:10A37000050028788DF8040054F8060FCDF8060083
:10A380006068CDF80A002089ADF80E00E8E70B20E0
:10A39000B6E7000028FD0320D4FD0320F4C80F0019
:10A3A0000201040010B5B34C218D814210D30A1A6A
:10A3B000D1170020D2F1400388410BD301200021A6
:10A3C00002F021F9D4E9042310401940084301D0D8
:10A3D000012010BD002010BD10B53021A54802F0AD
:10A3E000F2F9A4494FF6FF70088510BD2DE9F0473A
:10A3F0009946164688460446FFF7EEFF301920F0CE
:10A400000F0024F00F01401AC0F30F1744EA0800B0
:10A41000000502D01020BDE8F087964DB8F1000F7E
:10A4200018D0C5F8048006F6FF70010B68680903B0
:10A430006FF30B00FEF707FB2C602F8185F80A9065
:10A440000021EE60C5E904114FF6FF70688529858B
:10A450000846E0E76C60E6E72DE9F74F854E0546D4
:10A460004FF6FF71308D934688424BD0280708D1B4
:10A470003068A84205D8F268831805EB0B029342B6
:10A4800002D21020BDE8FE8FBBF1100F02D85FEAA8
:10A490008B7201D00920F5E7728D8A4201D011201C
:10A4A000F0E720F00F000021281A61EB01010009FC
:10A4B00040EA0170401C84B22046FFF773FF08B3E6
:10A4C0006C48008DA0422FD2201A82B2694F90466C
:10A4D0000120002102F097F8B0F1010941F1FF31AC
:10A4E000D7E904674020D8EB00028A46484602F0CC
:10A4F0008AF830403940084306D0032000F0B3F812
:10A500000520BFE70820BDE742463046394602F045
:10A510007AF840EA090020F00102564841EA0A01AF
:10A52000C0E9042104850BE05249001B0122D1E956
:10A5300004368240D043034006EAE076C1E904369F
:10A540004C4E5A4606F1180074850446019902F0F3
:10A5500099F8D6E90010691A08445A462146FEF7D0
:10A5600060FA00288ED0072000F07DF8032089E7EC
:10A570002DE9F0413F4F03460D46388D1646A0F5B4
:10A580007F41FF3911D03968002221F00F01591A9B
:10A5900062EB0202090941EA0271491C8CB2A04235
:10A5A00003D32046FFF7FEFE10B10020BDE8F08186
:10A5B00065B15EB1012C0BD0786820F00F0000EB84
:10A5C000041110393246284602F05CF80120EDE70C
:10A5D0007968F7E72DE9F74F824626488B46018DCB
:10A5E000A1F57F428946FF3A25D0D0E90467056886
:10A5F0003F2425F00F0822460120002102F003F835
:10A6000006EA000207EA0100024312D0A9EB0400A7
:10A6100080B201280BD008EB00101038504508D349
:10A62000CBF8000002981021016001202AE728469B
:10A63000F4E7641EDFD5002024E70E490A8DA2F559
:10A640007F43FF3B03D0CA68496801F08BBD0820F7
:10A650007047C1E607491831884203D118394FF6CF
:10A66000FF7048857047034A4FF6FF711185FEF76A
:10A67000CCB9000080FE0320012A0AD0022A08D0AB
:10A68000042A05D10A6802604A684260098901818A
:10A69000704709880180704710B5012A08D0022A46
:10A6A00002D0042A0AD10A2201F0C0FF20B105E03D
:10A6B00000880988884201D1012010BD002010BD0A
:10A6C000012A0DD0022A0ED0042A0FD182888B884D
:10A6D0009A420BD100680968884207D1012070476F
:10A6E00000880988F8E700780978F5E700207047C6
:10A6F000012A0AD0022A0BD0042A01D00020704778
:10A70000D0F80600D1F8061004E00088098801E0BE
:10A7100000780978401A7047884A002152F82130A1
:10A72000834201D101207047491C0829F6D300203B
:10A73000704770B5044680780D4600F00F0016464D
:10A74000A84200D0A5B96068FFF7E6FF80B904F120
:10A7500008002A4631460446FFF7B2FF40B12A46B8
:10A7600031462046FFF7C4FF002801DB012070BD01
:10A77000002070BD012805D0000121F00F01103824
:10A78000084470470846704770B505460E460220DB
:10A79000FEF741FB04460420FEF73DFB012E23D0CB
:10A7A000022E13D0042E27D1A9882289914223D1C9
:10A7B0002968626891421FD1D5F80610D4F80A20A2
:10A7C00091421BD8C0B1007840070AE02978A278EE
:10A7D000914211D16978E27891420FD860B1007846
:10A7E000800700280ADA07E029882288914203D1ED
:10A7F00010B10078C00701D0002070BD012070BDED
:10A8000010B504460220FEF706FBA188028991429A
:10A810000BD121684268914207D1D4F80610D0F8D4
:10A820000A00814201D9012010BD002010BD10B5E1
:10A8300004460220FEF7EFFA8278E1B2914206D197
:10A84000C078C4F30721814201D9012010BD002046
:10A8500010BD10B50420FEF7DEFA30B10068C10764
:10A8600005D0410703D5800701D5012010BD002088
:10A8700010BD334A10B51178304C01F00703491C64
:10A8800044F82300117010BD30B52C4A0021038814
:10A89000203232F821409C4207D102EB81044588E6
:10A8A0006488AC4201D1012030BD491C1029F0D38D
:10A8B000002030BD30B5224C204B05886168203324
:10A8C00001F00F02491C23F8225003EB820240885A
:10A8D0005080616030BD194810B54021203001F032
:10A8E00050FF17490020486010BD904202D3134426
:10A8F000834204D8824204D30844904201D3012009
:10A9000070470020704730B54FF0E020D0F800319C
:10A910000020012404FA00F21A420AD041B201F0E8
:10A920001F0504FA05F24909890001F1E021C1F887
:10A930008021401C2028EDD330BD0000B0FE032054
:10A9400030FD032083682021491E23FA01F2D2073B
:10A95000FAD001228A400021C0E90221016170473A
:10A9600070B5044661B1EFF3108000F0010572B6D6
:10A97000A26820698318E068834206D115B102E01D
:10A980000E2070BD62B6042070BD521E1040D4E986
:10A99000003202FB003063690BB1984701E001F01F
:10A9A00071FEE068401CE06005B962B6002070BD31
:10A9B00070B50E460446EFF3108000F0010572B644
:10A9C000D4E90310884203D105B962B60E2070BDE8
:10A9D0006EB1A1686369491E0840D4E9001202FB08
:10A9E000001130460BB1984701E001F04BFE2069A1
:10A9F000401C206105B962B6002070BDD0E903108B
:10AA0000081A704770B50D000BD0EFF3108101F0FC
:10AA1000010472B6D0E903315B1A934203D804B93A
:10AA200062B60E2070BD11448268521E1140D0E9FA
:10AA3000003202FB0131436928460BB1984701E01F
:10AA400001F020FE04B962B6002070BD0022D9E7F3
:10AA5000C168016170470169C068814201D101206C
:10AA6000704700207047000072B600BEFEE772B665
:10AA700000BEFEE772B600BEFEE71E480168012276
:10AA8000C006002431B90260D0F800110029FBD0C3
:10AA9000C0F8004117490C31096831B98260D0F81B
:10AAA00004110029FBD0C0F804410261D0F80C1158
:10AAB0000029FBD0C0F80C410F49402081F8000468
:10AAC0004FF0E0210004C1F8000162B6FDF7D8FDA7
:10AAD00000E020BFFEF7C5FC0028FAD1074D28682A
:10AAE00010B90020FDF782FC2C60FDF709FE20BFA5
:10AAF000FDE700000804004016E000E01C050040EF
:10AB000000209E4A01461154401C2028FBD3704768
:10AB100010B59A4B0021EFF3108202F0010272B6D9
:10AB20005C5C0CB162B10CE001245C54944B01EB11
:10AB3000810103EBC101016002B962B6012010BDC1
:10AB400062B6491C2029E6D3002010BD8C4928227A
:10AB5000401AB0FBF2F0202804D200EB800001EB99
:10AB6000C00070470020704770B58549401A282101
:10AB7000B0FBF1F4202C01D3002070BDEFF3108066
:10AB800000F0010572B67D4E305D08B1FF2802D19C
:10AB90000420FFF769FF305D401C305505B962B6EF
:10ABA000012070BD764910B5401A2821B0FBF1F0A4
:10ABB000202816D2EFF3108101F0010472B66F4A1B
:10ABC000115C21B1491EC9B2115434B106E008200C
:10ABD000FFF74AFF2CB962B603E062B609B1012063
:10ABE00010BD002010BD6649401A2821B0FBF1F0CD
:10ABF000202801D3002070476049085C70476149F4
:10AC00000A68C0F803208988A0F807104FF0805127
:10AC1000D1F8A010027861F386120270002070470C
:10AC20002DE9F0411746069E8C46050006D005F139
:10AC30000904172E04D90920BDE8F0810E20FBE796
:10AC40002846FFF7DCFF06F10E006870287820F038
:10AC50000F00801C2870F01D2070162060704FF6C9
:10AC6000E4606080A4F804C0E78036B12BB13246BE
:10AC7000194604F1080001F005FD0020DCE7F0B5FD
:10AC8000010011D04A7801F10900062A0CD9252AC1
:10AC90000AD810E00378461A093E9F19961FB7425A
:10ACA00002D81619864201D80020F0BDC3EB431329
:10ACB00018441F3002E0CC1C4FF6E4654378162B95
:10ACC000E8D14388AB42E5D1F0BD70B50446FFF74B
:10ACD000D6FF40B104F1090398420DD00178491C18
:10ACE000CAB2002105E00B2070BD455C6618491C06
:10ACF00075729142F9D318460078C01D607000202B
:10AD000070BD00B5FFF7BBFF08B1808800BD4FF6EE
:10AD1000FF7000BD00F10901821C40784FF6E4632A
:10AD200002440CE04878162802D14888984201D0A5
:10AD3000012070470878C0EB401001441F318A425F
:10AD4000F0D80020704710B50446FFF7E3FF10B1BC
:10AD50002046FFF7BAFF2046BDE810404FE70849FC
:10AD60002822401AB0FBF2F0202804D200EB800029
:10AD700001EBC0007047002070470000E005002094
:10AD8000E0000020A4000010F0B54FF080563269BA
:10AD900011FA82F13269491E92B2B1FBF2F1CDB2E1
:10ADA00000212A4C2A4B022704F1040C8E4614E0A1
:10ADB00027601A68002AFCD0CCF800001A68002A24
:10ADC000FCD0C4F800E01A68002AFCD03269491CA3
:10ADD000C2F38D0200EB8200C9B2A942E8D3F0BDF4
:10ADE0002DE9F043002423F00303034425462046C5
:10ADF000184EDFF85890DFF858C023E011F8017BB7
:10AE00003755641C65EA0708E4B208F0FF05042C16
:10AE100017D100249DB101254F46C9F80050DCF838
:10AE20000050002DFBD035681D60DCF80050002D6F
:10AE3000FBD000253D60DCF80050002DFBD0002544
:10AE40001B1D401C9042D9D3BDE8F08304E50140AE
:10AE500000E4014008000020BD480021C0F80012B5
:10AE60004A1EC0F8082301220261BA480160BA49AB
:10AE7000022008707047FEB5B54B1321C3F80012CD
:10AE8000B44C8179241D0A2901D8042202E0242926
:10AE900003D8062202EB410208E0B04A64CA8DE8FA
:10AEA00064006A4602EB810252F8942C2260A94A9F
:10AEB00001F07F0150321160A64A0168116008213B
:10AEC000C3F804130025C3F80C51A24C20342668A3
:10AED000A14A51680F0E46EA072626609D4E0C02D5
:10AEE0001C363460467901243EB19A489C4E2C3081
:10AEF000B1420DD0032101600BE0964D0179283558
:10AF000029609449C079083108601C601470FEBD46
:10AF100004605C601570FEBD2DE9F04780469148E5
:10AF2000002491460F4604604FF0010CC0F800C0A9
:10AF3000884808300460874903200C310860854840
:10AF40000226001D06608349252050310860814893
:10AF50008E21203001607F4A8349183211600268D7
:10AF60007D4D69680B0E42EA0322026008027949AE
:10AF70001C310860774828300460001DC0F800C00C
:10AF800074497A4810310860091D79480860714990
:10AF900040F25B6034310860091F40F20310086022
:10AFA0006C497448383108606A499420403108601F
:10AFB0002878032809D17048082100F1180244615B
:10AFC0008160C0E90021FFF7BDFC61482E70C0F828
:10AFD0000C414FF0E020C0F88062C0F80061C5F875
:10AFE0001090C5E902876448FFF735FD18B1A868DD
:10AFF000BDE8F047004700F0D6F9002804D0BDE8CE
:10B00000F047012000F099B8BDE8F0875249486048
:10B01000704710B510B1417911B106E00E2010BD96
:10B020000179012901D9102010BD01465248FFF7CE
:10B0300097FC08B1042010BDEFF3108000F001046C
:10B0400072B600F0B0F910B1012000F076F804B942
:10B0500062B6002010BD2DE9FC473D4ED6F80C012C
:10B060003D4D002770B34548006800B1012081467E
:10B0700042480C30D0F80080D6F81C01642428B176
:10B08000C6F81C71334844300068C4B2C6F80C716D
:10B0900069463948FFF78CFC08B1FFF7E5FC9DF8DD
:10B0A0000500012807D0022805D0296900988847A3
:10B0B0000220287034E02346EC6842464946009856
:10B0C000A047F5E72C48FFF799FCDFF88890044685
:10B0D00009F14C09B8464FF0FF3A1AE06946264894
:10B0E000FFF7B4FCB8B99DF80500022813D1002180
:10B0F0002148FFF75DFCFFF7AFFE484601680029D5
:10B10000FCD1C6F80C81EF68642352460098B8471A
:10B11000641E012CE2D82878022801D0032806D129
:10B1200069461548FFF792FC18B1A8688047BDE84A
:10B13000FC876846FFF79FFEF9E700F01F02012138
:10B1400091404009800000F1E020C0F800127047F3
:10B1500000100040041500400C000020FCC80F0047
:10B16000D6BE898EFC1F004000D6BE8906010200B3
:10B17000250003025555550000060020001400402C
:10B1800010B5D0E900138268A1EB731183EAF233A2
:10B190000360C4682244426062181944C0E9022175
:10B1A000084610BD70B5174A012414600025164EDC
:10B1B00009E0D2F80031002BFBD03368491E89B278
:10B1C0004354C2F800510029F3D15460002070BDEF
:10B1D00038B505460020009004216846FFF7E2FFDD
:10B1E00000280DD10948286000986860A8600024F4
:10B1F000E8602846FFF7C4FF641C142CF9D3002034
:10B2000038BD000000D0004008D50040ED5EEAF1F6
:10B2100070B50446807BE0B1022835D00125FB489B
:10B22000FFF7AEFF014640F6CD4015FB00F0B1FB45
:10B23000F0F200FB1211627B084441F69A1315FBF1
:10B2400003F3A16802FB0311084420F07F40606013
:10B2500070BD607B40F6CD4101FA00F5401C814095
:10B26000A1F6CD41A5F6CD45481B20F07F46E74825
:10B27000FFF786FF7108B0FBF1F201FB1200A16835
:10B2800000EB56002944DFE70A25C8E71CB5022079
:10B290008DF805006846FFF73BFC002168B18DF88A
:10B2A000041025208DF806006846FFF7B2FE00283E
:10B2B00002D06846FFF776FC1CBDD54801701CBD66
:10B2C000FFF770BC1FB529B1D04869469838FFF721
:10B2D00047FB18B10098FFF765FC1FBD4FF0E02158
:10B2E0004FF48010C1F800021FBDC9480078002843
:10B2F00000D0CBE77047F0B5C6480268C64C501E78
:10B3000020F07F410D46002004EB00131E6856B16B
:10B310005B688F1A9E1A26F07F4627F07F47BE4251
:10B3200001D223F07F41401C0828EDD3BB484FF4E5
:10B3300080338D420AD0C0F804330023C0F8403176
:10B34000B4483C300160B2488260F0BDC0F80833B8
:10B35000F0BDAF480178002902D10121017095E7C5
:10B36000704738B5AA4C0FE00098FFF73CFC012865
:10B3700000D0002010B90020FFF776FB616800982C
:10B3800088470098FFF70EFCA34869468030FFF716
:10B390000FFB0028E8D02078002801D1FFF7D9FF63
:10B3A00038BDFFF758BE0120704710B598490024FA
:10B3B0000C7048604C808021974801F004FA934952
:10B3C0008039A1F11800016004214160202144610D
:10B3D0008160FFF7B7FAFFF793FB8C48FFF7F8FEA1
:10B3E00008B1FFF741FB0221142000F004F91420FA
:10B3F00000F0EBF80021012000F0FDF8BDE810405E
:10B40000874A88498848FFF787BD2DE9F0411D002C
:10B410001646074601D10C2E02D80FB1082902D3D7
:10B420000020BDE8F081EFF3108000F0010872B653
:10B43000794800EB0114206808B1FFF7B3FB3846E8
:10B44000FFF792FB27602673002060737148006845
:10B45000A060A5732046FFF7DBFEFFF74CFFB8F1B5
:10B46000000F00D162B60120DBE710B508280CD22E
:10B47000694901EB00100021417366490968816048
:10B48000FFF7C6FEBDE8104035E710BD10B5044615
:10B490000B2000F0A5F8082C05D25F4800EB041043
:10B4A000C17B491CC173BDE810400B2000F08DB872
:10B4B00010B504460B2000F093F8082C0CD2564827
:10B4C00000EB04142068FFF76DFB00202060606033
:10B4D000A060E060FFF70FFFBDE810400B2000F018
:10B4E00074B82DE9FC414B4806680025DFF8288137
:10B4F0002F46B61C08EB05142068E8B3444A61687F
:10B500009268711AB21A21F07F4122F07F42914273
:10B5100036D88DF805708DF8047000908DF807709E
:10B52000E07B032811D225208DF806006846FFF73E
:10B5300070FD10B92068FFF717FB9DF80600401C4E
:10B54000C0B28DF806002728F0D9E773607B411C54
:10B55000C9B26173FF2805D1344AA068104420F0B5
:10B560007F40A060207B814210D3FF280ED020684E
:10B57000FFF718FB276000E002E06760A760E76064
:10B580006D1C082DB6D3BDE8FC41B4E62046FFF79C
:10B590003FFEF5E71E4B012210308240588811B162
:10B5A00002435A8070479043588070474FF6F071BD
:10B5B000884208D30121103081401548408801425B
:10B5C00001D0012070470020704700F01F020121C8
:10B5D00091404009800000F1E020C0F80011704760
:10B5E00000F01F02012191404009800000F1E0209D
:10B5F000C0F8801170474907090E002818DA00F0DA
:10B600000F0000F1E02080F8141D70477007002043
:10B610002000002004B500405806002000B0004083
:10B62000C1B20F00C5B20F00EBB20F00009A1900B3
:10B6300000F1E02080F80014E7E700000246491E10
:10B6400003D452F82130002BF9D0491C05D002EB6D
:10B650008100002250F8040C03E0002070474008ED
:10B66000521C0028FBD1480120381044704770B5A7
:10B6700006460020034651F8235052F823402C443C
:10B680000444A54205D002D94FF0010001E04FF07B
:10B69000000046F8234003F10103082BEBD370BDF3
:10B6A00070B506460020034651F8235052F8234057
:10B6B0002C1B241AA54205D002D24FF0010001E054
:10B6C0004FF0000046F8234003F10103082BEBD3B1
:10B6D00070BDF0B51C681568A0FB017CE0FB01544F
:10B6E000059EE91B74EB0C01306801D2012100E0DA
:10B6F0000021084430601C601560F0BD2DE9FF4753
:10B700008046002015460E460190029007460DF136
:10B710000C098246039000240BE0381BCDF8009002
:10B7200055F8201056F8240002AB01AAFFF7D1FF0C
:10B73000641CBC42F1D9019948F827100298019085
:10B74000039802907F1C5046CDF80CA0082FE2D33E
:10B7500008278246FC1F0BE0381BCDF8009055F8F7
:10B76000201056F8240002AB01AAFFF7B2FF641CB8
:10B77000082CF1D3019948F82710029801900398FA
:10B78000CDE9020A7F1C0F2FE4D30199C8F83C10C1
:10B79000BDE8FF87F0B589B00C46064600F0C8FB4F
:10B7A0000025029501950095E06A0390206B0490B6
:10B7B000606B0590A06B0690E06B6A46114607909F
:10B7C0000846FFF754FF074631466A460846FFF72A
:10B7D0004EFF0744206B0390606B0490A06B0590B4
:10B7E000E06BCDE906056A4611460846FFF73FFFC4
:10B7F000074431466A460846FFF739FF0744206A86
:10B800000090606A0190A06ACDE902050595049553
:10B81000A06B0690E06B314607906A460846FFF73A
:10B8200026FF0744606A0090A06A0190E06A0290D7
:10B83000606B0390A06B0490E06B0590606B0690CA
:10B84000206A314607906A460846FFF710FF074412
:10B85000E06A0090206B0190606BCDE902050595D0
:10B860000495206A0690A06A314607906A46084609
:10B87000FFF716FF3F1A206B0090606B0190A06BE2
:10B880000290E06B0595CDE90305606A0690E06AD9
:10B89000314607906A460846FFF702FF3F1A606B81
:10B8A0000090A06B0190E06B0290206A0390606AA8
:10B8B0000490A06ACDE90505206B314607906A46E1
:10B8C0000846FFF7EDFE3F1AA06B0090E06BCDE954
:10B8D0000105606A0390A06A0490E06ACDE905055D
:10B8E000606B314607906A460846FFF7D9FE3C1A5E
:10B8F0000ED53146F84A0846FFF7B9FE0419F8D4C8
:10B9000009B0F0BD3146F44A0846FFF7C9FE241AD3
:10B91000002CF7D13146F04800F013FB0128F1D19B
:10B92000EEE770B50646A0B015460C46084600F096
:10B93000EBFA20B1304600F0DFFA20B070BD2146AE
:10B9400010A800F0F5FA294618A800F0F1FA6846A8
:10B9500000F0D2FA0120009008A800F0CDFA64E0CF
:10B9600010990024C9072ED01899C9072FD0002894
:10B9700038DD10A918AA0846FFF792FE10A800F0BB
:10B98000F3FA08A9684600F0DCFA002804DA6946F0
:10B990002A460846FFF76BFE694608AA0846FFF7E5
:10B9A0007FFE0098C00705D069462A460846FFF783
:10B9B0005EFE0446684600F0D7FAB4B3079840F03C
:10B9C0000040079031E010A800F0CEFAE9E718A88F
:10B9D00000F0CAFA1EE008A92A460846FFF747FE0B
:10B9E00004461AE018A910AA0846FFF759FE18A83D
:10B9F00000F0BAFA694608A800F0A3FA002804DAB1
:10BA000008A92A460846FFF732FE08A96A460846F2
:10BA1000FFF746FE0898C007DDD108A800F0A4FA99
:10BA20001CB10F9840F000400F9018A910A800F02A
:10BA300088FA002894D16946304600F079FA7CE70C
:10BA4000F0B5044691B00E461546104600F05CFA7B
:10BA500000287DD132461146684600F0B6FA6A46A3
:10BA6000214608A800F0B1FA6A461146084600F0DF
:10BA7000ACFA31462A46084600F0A7FA2A46114693
:10BA8000084600F0A2FA2146934B2A46084600F0E9
:10BA900079FA2A461146904B084600F073FA2A4676
:10BAA0008D4B2146104600F081FA21462A46084671
:10BAB00000F08BFA2246884B1146284600F062FAC5
:10BAC0002146854B2A46084600F05CFA00212046B4
:10BAD00000F025FA68B121467F4A0846FFF7C7FD06
:10BAE0000746204600F040FAE06940EAC770E0618E
:10BAF00002E0204600F038FA22461146284600F0BF
:10BB000064FA2946744B08AA084600F04FFA294601
:10BB1000714B08AA084600F049FA08A96E4B2A465C
:10BB2000084600F043FA214608AA084600F04DFAFC
:10BB30006A46694B2146104600F038FA29462046ED
:10BB400000F0F6F93146284600F0F2F9694600E0C7
:10BB500002E0304600F0ECF911B0F0BD70B588B0ED
:10BB60000E46044615461146684600F02EFA214658
:10BB70006A46084600F029FA69462A46084600F057
:10BB800024FA31466A46084600F01FFA08B070BD34
:10BB9000F0B5174689B01E460C46054602464E4B88
:10BBA0003946684600F002FA6A461146084600F037
:10BBB0000CFA29466A46084600F007FA39466A46F2
:10BBC000084600F002FA3146434B2246084600F090
:10BBD000EDF932461146684600F0F7F969463E4BEA
:10BBE0002A46084600F0E2F969463B4B3A460846C9
:10BBF00000F0DCF93946384B2A46084600F0D6F901
:10BC000021463A46084600F0E0F9334B6A46294699
:10BC1000384600F0CBF931463A46084600F0D5F9EF
:10BC200031462D4B2246084600F0C0F96946384699
:10BC300000F07EF964E62DE9F047B2B0814620A815
:10BC4000309010A83190FFF759FD234908A86031C2
:10BC5000824600F06DF9684600F04EF90124002597
:10BC60000DF1C008C4F1010158F8247058F821C042
:10BC700000216E46084657F8203056F820209A1AC0
:10BC8000521A934205D002D24FF0010101E04FF069
:10BC900000014CF8202000F101001028EBD38C4269
:10BCA00001D1012400E00024304600F05DF9DDE917
:10BCB000070140EAC1700790504600F055F96D1C2D
:10BCC000B5F5807FCEDD58F82410484600F030F9F5
:10BCD00032B0BDE8F087000008C90F00F0B5F5B03C
:10BCE0000F460024064601461546479420A857945F
:10BCF00000F077F906F1200128A8064600F071F956
:10BD0000294640A800F06DF905F1200150A800F087
:10BD100068F940A800F0F8F800287CD150A800F09D
:10BD2000F3F80028F9D140A9B74800F00AF9012832
:10BD3000F3D150A9B44800F004F90128EDD1B24A7A
:10BD400050A96846FFF7EDFD394638A83F9400F04A
:10BD500048F938A96A460846FFF76DFF6A4640A9C8
:10BD600058A8FFF768FF20A908A800F0E1F810A87C
:10BD70003146044600F0DCF8A34930A8403900F011
:10BD8000D7F8A14948A8203900F0D2F89E4B30AA34
:10BD9000603B08A9684600F009F9234608AA48A9AB
:10BDA00030A8FFF7F5FE984A6946603A0846FFF763
:10BDB000B8FD6A46214608A8FFF7D0FE9248203019
:10BDC000D0E90010CDE9701020A8729008A87390F7
:10BDD000082138A8FFF732FC0446082158A8FFF7CD
:10BDE0002DFC844200DD20460446411E38A800F0A8
:10BDF00096F808B1012500E00025611E58A800F062
:10BE00008EF800B1012045EA400070AE56F820508F
:10BE100018A8294600E06AE000F08AF805F1200140
:10BE200060A800F085F8684600F066F801200090F0
:10BE3000A41E39D46A4660A918A8FFF701FE21465E
:10BE400038A800F06CF808B1012500E00025214673
:10BE500058A800F064F800B1012045EA400056F807
:10BE60002050FDB1294630A800F062F805F120010C
:10BE700048A800F05DF86A4648A930A8FFF76EFEB2
:10BE8000614B30AA603B18A968A800F08FF860AB3E
:10BE900018AA48A930A8FFF77BFE694668AA084699
:10BEA00000F093F8641EC5D5574A6946603A0846C3
:10BEB000FFF737FD6A4660A918A8FFF74FFE18A9DB
:10BEC000514800F03EF8012804D018A94E4A08460F
:10BED000FFF7E6FB002118AC40AB072054F8202008
:10BEE00053F820506A401143401EF7D511B100208D
:10BEF00075B0F0BD0120FBE700210A4640F8212083
:10BF0000491C0829FAD37047002150F821200AB1B2
:10BF100000207047491C0829F7D3012070474A11B7
:10BF200050F8220001F01F020121914008407047A3
:10BF3000002251F8223040F82230521C082AF8D34F
:10BF4000704710B5072250F8223051F82240A34222
:10BF500002D94FF0010010BD02D24FF0FF3010BDEA
:10BF6000521EF0D5002010BD03460022203004E010
:10BF7000016842EA51020260CA070146001F994265
:10BF8000F6D8704770B51C460546FFF770FB28B918
:10BF900021462846FFF7D5FF002806DB2946224622
:10BFA000BDE870400846FFF77BBB70BD70B51C460E
:10BFB0000546FFF775FB002806D029462246BDE856
:10BFC00070400846FFF753BB70BD10B590B00446F3
:10BFD0006846FFF793FB69462046FFF7DBFB10B08E
:10BFE00010BD10B50022C2F1070301EB83031C68EA
:10BFF000DB7824BA24F0FF041C4340F82240521C92
:10C00000082AF0D310BD000068C90F002DE9F04FD9
:10C01000C8B0002213466F46CC181B1D2568E47873
:10C020002DBA25F0FF05254347F82250521C102A4F
:10C03000F2D31BE007EB820151F8083C4FEA73444E
:10C0400084EAF34484EA932451F83C3C4FEAF31524
:10C0500085EAB34585EAD303234451F81C4C51F8D3
:10C06000401C2144194447F82210521C402AE1D3B5
:10C07000026D4792446D4694856D4595C16D44911E
:10C080008B46016E4391436E4293866E994641966C
:10C09000C36E40939A4600234FEAB11787EAF1270F
:10C0A00087EA716C01EA090726EA010887EA0807AE
:10C0B000BC44854F57F8238008EB0A07BC445DF861
:10C0C0002370B2460CEB070E4FEAB20787EA7237CD
:10C0D00087EAB25C84EA05074E4604EA0508894609
:10C0E00017400BEB0E01AB4687EA0807254667446D
:10C0F00014465B1C0EEB0702402BCDD3479B1A4422
:10C100000265469A22444265459A2A448265449AC9
:10C110005A44C265439A11440166429949444166B2
:10C1200041993144816640995144C16648B0BDE8A7
:10C13000F08FA8B100210164C0E9121163490165C3
:10C1400063494165634981656349C1656349016626
:10C1500063494166634981666349C166002070474F
:10C160000E2070472DE9F04116460F46040004D01A
:10C1700006B117B10025A8461AE00E20BDE8F081EF
:10C18000216C785D6054206C401C206440280ED1E6
:10C1900021460846FFF73AFFD4E912014FF4007236
:10C1A000801841F10001C4F84080C4E912016D1CFF
:10C1B000B542E5D30020E1E770B516460D46040010
:10C1C00007D035B1206C802200213828225403D3B7
:10C1D00007E00E2070BD2154401C3828FBD30BE033
:10C1E0002154401C4028FBD321460846FFF70EFF90
:10C1F0003821204600F0E7FA216CD4E912304A0FCA
:10C20000C900383459185041C4E90410227CE27145
:10C210000A0A42EA0062A2710A0C42EA0042627112
:10C22000020242EA116020716069E070010AA170A7
:10C23000010C6170000E04F8380921460846FFF72A
:10C24000E5FE4FF00002EEB1E16ED000C140A9540E
:10C25000A36EC340A9180B71636EC3400B72236EAB
:10C26000C3400B73E36DC3400B74A36DC3400B75E8
:10C27000636DC3400B76236DC340521C0B77042AB9
:10C28000E2D31FE018265042216D06EBC000C140EA
:10C29000A954636DC340A9180B71A36DC3400B7201
:10C2A000E36DC3400B73236EC3400B74636EC340D6
:10C2B0000B75A36EC3400B76E36EC340521C0B7725
:10C2C000042AE0D3002070BD98C90F0067E6096A10
:10C2D00085AE67BB72F36E3C3AF54FA57F520E51A7
:10C2E0008C68059BABD9831F19CDE05B6C496B480B
:10C2F0000860704730B54FF0805300229900D3F8A2
:10C300003001C1F80C21C1F8102166490A60664964
:10C310000C6866490C606449091D0968634C241D5A
:10C320002160614908310968241D21605E490C3192
:10C330000968241D21605C4910310968241D2160B1
:10C34000594914310C68594914310C605649183157
:10C350000968564C2034216053491C310C685349FC
:10C3600024310C60504920310968504C2834216038
:10C370004D4924310968241D21604B492831096841
:10C38000241D216048492C310968241D216046493B
:10C3900030310968454C40342160434934310968E3
:10C3A000241D2160404938310968241D21603E491F
:10C3B0003C310968241D21603B4940310968241D36
:10C3C0002160082802D1D3F8341111B1082804D013
:10C3D00006E038483649016005E0D3F8341111B160
:10C3E000082804D006E03449FB20086005E0D3F8B3
:10C3F000341111B1082808D00EE0304893F85832B3
:10C40000016863F30301016002E0D3F8341119B944
:10C410002B484FF4007101602A480168C90702D017
:10C420006FF0010101602848016841F4700101606A
:10C43000BFF34F8FBFF36F8F4FF01024D4F800027B
:10C44000002803DBD4F80402002823DA1F4B012064
:10C4500018601F4801680029FCD01225C4F800525A
:10C4600001680029FCD0C4F8045201680029FCD0FE
:10C470001A6001680029FCD0BFF34F8F12487C3846
:10C480000168144A01F4E06111430160BFF34F8F6A
:10C4900000BFFDE702490148086030BD0090D003AD
:10C4A0002C000020380500400404001020C5004086
:10C4B000488103008C56004018F50040E40E00400F
:10C4C000409602400004004088ED00E004E5014091
:10C4D00000E401400400FA05094880470948004784
:10C4E000FEE7FEE7FEE7FEE7FEE7FEE7FEE7FEE724
:10C4F000FEE7FEE704480549054A064B7047000081
:10C50000F5C20F0001820F00E0070020E02B0020A1
:10C51000E00B0020E00B002053EA020C00F06980E1
:10C520002DE9F04B4FF00006002B1FBFB3FA83F547
:10C5300003FA05F424FA05F65E4012BF1643B2FA78
:10C5400082F502FA05F4C5F120051EBF22FA05FCAA
:10C5500044EA0C04203556EA044C4FEA144418BF50
:10C56000641C4FF000084FF00009904271EB030C7F
:10C5700039D3002919BFB1FA81F701FA07F6B0FAE9
:10C5800080F700FA07F6C7F120071EBF20FA07FC64
:10C5900046EA0C062037B6FBF4FCA7EB0507103F74
:10C5A00007F01F0BCBF120060CFA0BFB2CFA06F65A
:10C5B00044BFB3460026202FA4BF5E464FF0000BB9
:10C5C0005BEA060C08BF4FF0010B19EB0B09ABFB44
:10C5D000027C48EB0608C01B06FB02CC0BFB03CC1D
:10C5E00071EB0C01C1E70B46024641464846BDE8E7
:10C5F000F08B13B54FF000004FF00001AFF3008057
:10C60000BDE81C407047B2F120030AD5C2F12003F7
:10C6100001FA02F120FA03F300FA02F041EA030101
:10C62000704700FA03F14FF00000704740EA010341
:10C6300010B59B070FD1042A0DD310C808C9121FCB
:10C640009C42F8D020BA19BA884201D9012010BD05
:10C650004FF0FF3010BD1AB1D30703D0521C07E0D2
:10C66000002010BD10F8013B11F8014B1B1B07D136
:10C6700010F8013B11F8014B1B1B01D1921EF1D1A7
:10C68000184610BD032A40F2308010F0030C00F071
:10C69000158011F8013BBCF1020F624498BF11F8FC
:10C6A00001CB00F8013B38BF11F8013BA2F10402B5
:10C6B00098BF00F801CB38BF00F8013B11F003032D
:10C6C00000F02580083AC0F0088051F8043B083A91
:10C6D00051F804CBA0E80810F5E7121D5CBF51F833
:10C6E000043B40F8043BAFF30080D20724BF11F8AD
:10C6F000013B11F801CB48BF11F8012B24BF00F812
:10C70000013B00F801CB48BF00F8012B704710B582
:10C71000203AC0F00B80B1E81850203AA0E8185039
:10C72000B1E81850A0E81850BFF4F5AF5FEA027CFA
:10C7300024BFB1E81850A0E8185044BF18C918C069
:10C74000BDE810405FEA827C24BF51F8043B40F80A
:10C75000043B08BF7047D20728BF31F8023B48BFEF
:10C7600011F8012B28BF20F8023B48BF00F8012B2D
:10C77000704702F0FF0343EA032242EA024200F05C
:10C7800002B84FF000020429C0F0128010F0030C30
:10C7900000F01B80CCF1040CBCF1020F18BF00F8B4
:10C7A000012BA8BF20F8022BA1EB0C0100F00DB863
:10C7B0005FEAC17C24BF00F8012B00F8012B48BFC1
:10C7C00000F8012B70474FF0000200B51346944665
:10C7D0009646203922BFA0E80C50A0E80C50B1F1D9
:10C7E0002001BFF4F7AF090728BFA0E80C5048BFED
:10C7F0000CC05DF804EB890028BF40F8042B08BF8B
:10C80000704748BF20F8022B11F0804F18BF00F886
:10C81000012B7047704770477047754600F02CF841
:10C82000AE4605006946534620F00700854618B01D
:10C8300020B5FFF75FFEBDE820404FF000064FF047
:10C8400000074FF000084FF0000B21F00701AC4645
:10C85000ACE8C009ACE8C009ACE8C009ACE8C00964
:10C860008D46704710B50446AFF300802046BDE802
:10C870001040FBF70EBD0000004870478007002005
:10C8800001491820ABBEFEE72600020070474FF0BA
:10C890004070E1EE100A7047020000000000000046
:10C8A0000000000000000000510000000000000037
:10C8B0000000000000000000000000000000000078
:10C8C0000000000000000000000000005000000018
:10C8D0000000000000000000000000000000000058
:10C8E0000000000000000000000000000000000048
:10C8F000FFFF0000220021002400000002000000D1
:10C900001A00000050000000FFFFFFFFFFFFFFFFC5
:10C91000FFFFFFFF0000000000000000000000001B
:10C9200001000000FFFFFFFF96C298D84539A1F42F
:10C93000A033EB2D817D0377F240A463E5E6BCF8DC
:10C9400047422CE1F2D1176BF551BF376840B6CBA7
:10C95000CE5E316B5733CE2B169E0F7C4AEBE78EA3
:10C960009B7F1AFEE242E34F512563FCC2CAB9F332
:10C97000849E17A7ADFAE6BCFFFFFFFFFFFFFFFF96
:10C9800000000000FFFFFFFF0000000028C90F00AB
:10C990000000000000000000982F8A429144377187
:10C9A000CFFBC0B5A5DBB5E95BC25639F111F15932
:10C9B000A4823F92D55E1CAB98AA07D8015B831274
:10C9C000BE853124C37D0C55745DBE72FEB1DE8020
:10C9D000A706DC9B74F19BC1C1699BE48647BEEF4F
:10C9E000C69DC10FCCA10C246F2CE92DAA84744ADA
:10C9F000DCA9B05CDA88F97652513E986DC631A850
:10CA0000C82703B0C77F59BFF30BE0C64791A7D52E
:10CA10005163CA0667292914850AB72738211B2EB6
:10CA2000FC6D2C4D130D385354730A65BB0A6A769E
:10CA30002EC9C281852C7292A1E8BFA24B661AA8AA
:10CA4000708B4BC2A3516CC719E892D1240699D6BA
:10CA500085350EF470A06A1016C1A419086C371E33
:10CA60004C774827B5BCB034B30C1C394AAAD84E11
:10CA70004FCA9C5BF36F2E68EE828F746F63A5784C
:10CA80001478C8840802C78CFAFFBE90EB6C50A4DF
:10CA9000F7A3F9BEF27871C6D8CA0F0004000020CF
:10CAA0002C0000003C820F0004CB0F0000FD03208F
:10CAB000380000003C820F0004CB0F003000002043
:10CAC000B02B000058820F003CCB0F0038FD032034
:10CAD000D801000058820F00000000000000000094
:10CAE00003000000D6BE898E000000000000000098
:10CAF0000000000000000000000000000000000036
:10CB00000090D003000000000000000000000000C2
:10CB10000000000000000000000000000000000015
:10CB20000000000000000000000000000101000003
:0CCB3000000000000000000000000000F9
:020000041000EA
:0410140000800F0049
:020000041000EA
:0410180000700F0055
:04000005000F820165
:00000001FF
