:0200000270008C
:1080000000FD002081C50700A9C50700E9AB0700F6
:10801000ADC50700AFC50700B1C5070000000000EF
:10802000000000000000000000000000B3C50700D1
:10803000B5C5070000000000B7C50700B9C50700B7
:10804000BBC50700EDB30700BBC50700BBC50700F4
:10805000BBC50700BBC50700BBC50700BBC5070004
:10806000BBC50700BBC50700BBC50700D99007000B
:10807000BBC50700BBC50700BBC50700BBC50700E4
:10808000BBC50700BBC50700BBC50700BBC50700D4
:1080900095B40700BBC50700BBC5070019830700DF
:1080A000BBC50700BBC50700BBC50700BBC50700B4
:1080B000BBC50700BBC507000000000000000000B2
:1080C000BBC50700BBC50700BBC50700BBC5070094
:1080D000BBC50700BBC50700BBC50700000000000B
:1080E0000000000000000000000000000000000090
:1080F0000000000000000000000000000000000080
:10810000000000000000000000000000000000006F
:10811000000000000000000000000000000000005F
:10812000000000000000000000000000000000004F
:10813000000000000000000000000000000000003F
:10814000000000000000000000000000000000002F
:10815000000000000000000000000000000000001F
:10816000000000000000000000000000000000000F
:1081700000000000000000000000000000000000FF
:1081800000000000000000000000000000000000EF
:1081900000000000000000000000000000000000DF
:1081A00000000000000000000000000000000000CF
:1081B00000000000000000000000000000000000BF
:1081C00000000000000000000000000000000000AF
:1081D000000000000000000000000000000000009F
:1081E000000000000000000000000000000000008F
:1081F000000000000000000000000000000000007F
:1082000010B5054C237833B9044B13B10448AFF3D0
:1082100000800123237010BD7800002000000000C2
:1082200024CB070008B5034B1BB103490348AFF348
:10823000008008BD000000007C00002024CB070067
:10824000154B002B08BF134B9D46A3F5803A002128
:108250008B460F461348144A121A04F081FB0F4B49
:10826000002B00D098470E4B002B00D098470020E1
:10827000002104000D000D48002802D00C48AFF387
:10828000008004F02FFB2000290002F0B1FC04F074
:1082900015FB00BF0000080000FD002000000000EA
:1082A0000000000078000020080800200000000006
:1082B0000000000013DF704718DF7047084A0023F2
:1082C000C2F84431D2F80435184420F07F404FF40E
:1082D0000033C2F84405C2F80433024B19707047EA
:1082E00000B000402D0100207FB502F05BFD78B1A9
:1082F00082884FF6EF739A420AD902238DF8003034
:10830000031D019303786846033B029300F0AEFA25
:1083100007B05DF804FB0000F0B5324E8BB00025CD
:1083200061276946304602F003FC0446A8B12DB12E
:108330000AA8622300F8183D00F098FA294802F0D4
:108340004AFC40B1284B1B782BB1122000F060FD95
:10835000006800F0FDFE0BB0F0BD9DF80020019B11
:10836000012A05F101052BD1990701D002F039FC52
:10837000039B9A0702D0002002F033FC029B9B076C
:1083800002D0002002F02DFC0198B0F1005F0AD26B
:108390000023DDE9021202F059FD08E0135D025DE1
:1083A000134003550134DDE90223A342F6D86023CC
:1083B0008DF81030029B059304A800F057FAB0E73F
:1083C000B3F1005F029A07D3FF21184604F0C8FA00
:1083D0008DF81070019BEEE71146184602F006FD7D
:1083E000F6E700BF940000202C01002010B5204CBF
:1083F00088B000F095FE00211822204604F0B0FA63
:108400001C4B2360102208232046C4E9012302F0FC
:1084100059FB194B602283F817234FF400021A60AE
:1084200000F0C8FA01228DF80C20144A04920023AF
:1084300040F6010202A88DF80830ADF814208DF83E
:10844000163000F013FA08B102F0CBFB0C490D48CE
:1084500002F0D0FF0DF1070000F0FAFF9DF80730A1
:1084600023B14FF080430022C3F81C2508B010BD93
:1084700094000020AC00002000E100E0E985070046
:10848000D6BE898EE982070070B58AB00AA801239A
:1084900000F8183D00F0EAF902F0F2FF01F09AFE50
:1084A00030B103214FF4A020FFF708FF0AB070BDE0
:1084B000042000F0ADFC0546122000F0A9FC0646A1
:1084C000102000F0A5FC0446022000F0E7FF002881
:1084D000ECD04FF0FF3300932B785A0706D5336862
:1084E0001B68013304BF6FF0040300932B78DB0794
:1084F00009D523681B68013305D163681BB1009B54
:1085000023F001030093009B013303D0694604204C
:1085100000F083FC01F038FE05460028C6D000F0CC
:10852000BDFF0528C2D1022000F072FC044608B944
:1085300002F057FB012D05D0042D0DD00B2002F0C9
:1085400050FB02E02388ADF804304FF0FF3201A960
:10855000284601F063FCA9E7201D07C801AB03C34F
:108560001A80F2E700F082B97FB50446122000F0CD
:108570004FFC0A2C05460AD8012606FA04F340F2FD
:108580004340184005D1DB0501D502F02AFB72B645
:10859000FEE705B301F01EFEE8B1114802F01BFB37
:1085A000D8B102F07DFA02F03BFD002304A8CDE92A
:1085B00001330393022340F8103DFFF77DFE08B11D
:1085C00002F00FFB2868FFF775FE08B102F009FB07
:1085D000286800F0BDFD04B070BD024B1E70FAE7C4
:1085E000940000202C01002030B50378252B87B0A3
:1085F000054600F0F28013D8212B00F0868006D8C3
:10860000022B00F0B980202B40D0062077E0232BEE
:1086100000F0DF8040F2BB8001214FF4702032E097
:10862000602B3AD022D8502B00F0E580512BECD1B2
:108630004368990740F0DB8083689A0740F0D78051
:10864000C3689B0740F0D58006AC012304F8183DB1
:10865000291D0C2201A804F078F921466A4802F08D
:1086600040FA002800F0CA80042048E0622B48D07D
:1086700001D3702BC9D1A968644AC8030023490CEF
:1086800003F09CFF0221FFF719FE04E00079FFF7D9
:108690006BFF01F04FFB002031E006A8002340F8FB
:1086A000183D02F0F7FA0028DED0009802F066FBD1
:1086B000009B1A78022161F303021A70AB68009ADA
:1086C0000A335370009816238372E423C372FE2387
:1086D0000373AB6803334372D5E901120D3004F024
:1086E00034F92B7B6A7BA97B009802F0F9FE0446E3
:1086F000009802F00FFB002C14BF0020032007B0ED
:1087000030BD007902F024FFC5E7414B4FF4003241
:10871000C3F808233F4B00221A700379022B07D1BC
:1087200006A8232300F8183DFFF71CFF01232B7137
:108730002B79012BAFD1AC1D6979204602F0A7F847
:108740000028A8D0022000F063FB08B902F049FA23
:108750003148202303704FF0FF3303616B790371BD
:108760002368C0F805306368C0F809302389A0F891
:108770000D3000F07BF8C2E70579022D8BD101F0B6
:1087800029FD002887D1284600F088FE83E7037979
:10879000022B80D11E4B4FF40032C3F808231D4B2F
:1087A00000241C7021238DF80030034653F8072F56
:1087B000CDF805205A681B89ADF80D3083798DF806
:1087C00004304369CDF8092068460493FFF7CAFED8
:1087D00061E701214FF4202055E74379042B02D0B3
:1087E000012B7FF458AF0020FFF7BEFE53E71020A7
:1087F00085E7092083E706AC022327E7074B4FF400
:108800000002C3F800217AE79400002040420F00E4
:1088100000B000402D0100203001002000E100E008
:1088200010B5114C2278022A86B007D0032A11D045
:10883000012A14D123238DF8003005E003238DF89D
:10884000003000238DF80430002368462370FFF7C2
:1088500089FE02E00020FFF787FE06B010BD082069
:1088600002F0BFF9F0E700BF2D01002030B503781A
:10887000222B8BB0044615D016D8032B59D009D81B
:10888000012B52D034D901894068012201F006FB46
:10889000054647E0202B5DD062D8042B4CD0062043
:1088A00002F09FF906253DE0312B66D00CD8242B31
:1088B0005FD05BD3302BF2D1808800F0A9FAA060A2
:1088C000002834D105252DE0602B60D005D8322B4F
:1088D000E5D1808800F0B6FA29E0612B5FD0622BE9
:1088E000DDD100F0D9FB00F0FDFD01F09FFD1EE0A1
:1088F0002E4B82681A60837B2D4A83F0010313702C
:10890000037B002B4ED0437B012B4BD94FF4FC2132
:108910004FF4FE2000F018FA0546002844D1607B91
:1089200001F0E6F928460BB030BD01F003FA00254E
:10893000F8E701F00FFDFAE70AAD0023011D102250
:1089400002A805F8243D04F000F8184B28461B68DF
:1089500098479DE70269411D007901F05FFA97E7AA
:108960000269411D007901F073FA91E701F05CFDA5
:10897000DDE7007900F092FD8AE7D0E902128088F5
:1089800000F086FAB0F5FE2FD1D21025CAE7406874
:1089900001F016FF6168012000F0F2FAC7E74168B4
:1089A0000220F9E70725BDE70325BBE708FD002006
:1089B0000CFD00204FF08053064AD3F80C3103F52C
:1089C00000239B02002043F8042C034B01221A7061
:1089D000704700BF6D8807000CFD0020024B1B682C
:1089E00003B118470820704708FD002000B58BB080
:1089F00020238DF8080001A88DF80430FFF7EEFF62
:108A00000BB05DF804FB70B58AB006460D461446FF
:108A10000021242201A803F0A3FF512301A88DF80F
:108A20000430CDE902650494FFF7D8FF0AB070BDA9
:108A300030B58BB005460C462422002101A803F076
:108A40008FFF502301A88DF80430CDE90254FFF7C1
:108A5000C5FF0BB030BD00B58BB062238DF80800A8
:108A600001A88DF80430FFF7B9FF0BB05DF804FBE7
:108A7000024B187880F00100704700BF0CFD002009
:108A800030B50278FF2A19D0024440F6010300F500
:108A9000805047F6FF7455888D4201D1101D30BDBE
:108AA000158802EB8502904208D35588A54201D172
:108AB000A14203D1013BEED11846F0E70020EEE7DA
:108AC00048B1B0F5002F05D0034B1B685B78A0EBD5
:108AD000830070470020704734FD002008B547F63A
:108AE000FF71FFF7CDFF18B1BDE80840FFF7E8BF01
:108AF00008BD0000830710B5044602D0102002F024
:108B000070F8204604220249BDE81040FFF77BBF01
:108B10008CC9070010B5064C02230422D4E90101D8
:108B20002370FFF770FF08B10123237610BD00BF4B
:108B300010FD0020F8B51B4F4FF6FF763C46D7E9F5
:108B4000023203F580539A4204D30123237604238F
:108B50002370F8BD5388B342F7D0E3B1158847F6C8
:108B6000FF729342236914BFAD0004255A1963684C
:108B700003F580539A4202D9032002F032F82A46C4
:108B8000D4E90310FFF73FFF0028E2D1E3686361F7
:108B900023691D442561E3681A8803EB8203E360BF
:108BA000CDE700BF10FD002010B50A4C22787AB93D
:108BB00001232370084B1B78C4E9010123B94FF44A
:108BC0008051FFF735FF10B101232376002010BD3F
:108BD0000820FCE710FD00202DFD0020038800EB9D
:108BE00083000B4B03F18002904208BF1846094BEB
:108BF0001860094B1B68984208D0A3EB0003C3F32D
:108C00008F0388BF2033038000234380704700BF59
:108C100038FD0020B8FD0020BCFD002038B50B4B0E
:108C20001B78012B04460D4602D0002001F0D9FF2D
:108C300029462046FFF724FFFFF742FF18B1BDE8A1
:108C40003840FFF757BF052038BD00BF2CFD00207E
:108C50002DE9F84F9DF828700333BE00914623F0AC
:108C60000305321D80468B462A44EFF3108A72B604
:108C7000DFF8D0E0DEF8004020888000824204D88F
:108C8000B4F802C0BCF1000F05D0BAF1000F00D15A
:108C900062B6042032E0294B19688C4228492FD152
:108CA000CEF80010196092080A80A1F802C00846A8
:108CB000FFF794FFBAF1000F3ED162B60C4647B100
:108CC00067190822FF21384603F04AFE47F6FF7372
:108CD000FB80EF1DBB082A4649462380A4F802B05A
:108CE000201D03F032FE27F00302324421464046A5
:108CF000FFF789FE08B101F074FF0020BDE8F88F8E
:108D000001F180031B1B9A420AD9C01A8242BCD8C7
:108D100047F6FF709B0860802380CEF80010C2E702
:108D200092082280A4F802C02046FFF757FFBAF14C
:108D3000000FC4D162B6C2E7014CC0E7BCFD002001
:108D400038FD0020B8FD00202DE9F041274F40EA12
:108D500001050023C5F30B053B70002D41D1DFF861
:108D6000A880234C234E2060802231604046294653
:108D700003F0F6FD204B2068C3F800801F4BC3F8BA
:108D800000802023A8F80030FFF7A8FEDFF87C80E1
:108D90002946C8F800001C22194803F0E1FD194BD0
:108DA0001D70D8F800303546B3B93068FFF796FE2D
:108DB0000646C0B14FF480512068FFF739FE08B174
:108DC00001F00FFF29682068C1F104023244FFF767
:108DD0001AFE08B101F005FF01233B700020BDE839
:108DE000F0811020FBE70B20F9E700BF2CFD0020ED
:108DF00034FD002030FD0020B8FD0020BCFD002027
:108E000010FD00202DFD002038FD0020C0FD0020B9
:108E100001464FF4FE20FFF733BE37B50D4604463A
:108E2000FFF7F6FFFFF74CFE50B1038800229B00CE
:108E30000092043B2A462146FFF70AFF03B030BDEB
:108E40000520FBE701464FF4FE20FFF7E7BE0000D8
:108E500010B50B4C2378012B02D0002001F0C1FE8D
:108E600004232370074B1968074B0A1D1A60074B30
:108E70001868FFF799FE08B90323237010BD00BFDF
:108E80002CFD002034FD0020C0FD002030FD00201E
:108E90002DE9F3472E4B1B78012B81468A46164657
:108EA00002D0002001F09DFE542E02D9002001F0D6
:108EB00098FE284D2B689B0702D0002001F091FE00
:108EC0002B68B3F5FE2F02D8002001F08AFE484639
:108ED000FFF79EFFFFF7F4FD2C68804634B90E20A3
:108EE00001F07FFE002002B0BDE8F0871A4F3B681A
:108EF00004F10802324403F580539A4201D308205A
:108F0000EEE7164A01231370494600935246334652
:108F10002046FFF79DFE08B10420E1E72B680736E5
:108F200026F003061E442E60B8F1000F04D0404620
:108F3000FFF7E0FD0028EFD12A683B68583203F5BF
:108F400080539A4201D3FFF783FF201DCBE700BF78
:108F50002CFD0020C0FD002034FD00202DFD002050
:108F6000054B1B78012B05BF044B1878002080F0BF
:108F7000010000F0010070472CFD00202DFD0020B5
:108F800001282DE9F04106460D4632D13A4FB9424B
:108F90002FD307F18003994298462AD2374C236891
:108FA000994202D0102001F01CFEEFF3108272B63D
:108FB000236819884FF6FF739942314B18BF2888F0
:108FC00019680B8814BF1B1801330B802B8805EB25
:108FD0008303434508BF3B466FF000401968236098
:108FE000814204D10433434508BF3B46236002B9A4
:108FF00062B6244C2378013B032B0AD8DFE803F048
:10900000021A2629022E04D163689D4201D1FFF77E
:1090100081FD237863B91C4C2378032B21D11B4B92
:1090200019681B4B1868FFF7BFFD08B905232370AB
:10903000BDE8F081012EECD1A3689D42E9D1032364
:109040002370636804350433E5602361FFF772FD24
:10905000DFE7012EDDD163699D4204BF0023237049
:10906000D7E7052BE4D10A4B1868FFF737FD094B0A
:1090700018600123DBE700BF38FD0020BCFD0020A5
:10908000B8FD002010FD00202CFD002030FD002048
:1090900034FD0020C0FD00200C4B002119700C4B4A
:1090A0001B6859800B4B1A7872B1187E60B1012A87
:1090B000197602D0022A05D070474FF480515868C3
:1090C000FFF7B6BCFFF726BD704700BF2DFD00209F
:1090D000B8FD002010FD002010B5104CD4F8403130
:1090E00043B1D4F80433DA0304D50023C4F8403183
:1090F00002F04EFAD4F8443173B1D4F804339B0330
:109100000AD50023C4F844314FF40033C4F80833BF
:10911000BDE81040FFF784BB10BD00BF00B00040A9
:10912000094B0022C3F808254FF44032C3F844230A
:1091300001229A601A60054B202283F80B234FF41A
:1091400000621A60704700BF00B0004000E100E01C
:10915000F0B50346186880F308885868FF2464B2A5
:10916000EFF30585002D01D1A646004725460646AA
:1091700021273FBAF0B40024002500260027F0B4D0
:10918000F92040B2004700BFF0BD00BF18DF7047B4
:109190002DE9F041A94D2C68C0B0002C6FD0EFF341
:1091A000108772B65422214601A803F0CEFBE37C5F
:1091B000F83B072B61D8DFE813F03701600060004F
:1091C0006000BC006000150008009D4B01221A7071
:1091D000FE238DF817309B4B187801A92030FFF73C
:1091E0001CFE4AE0974D964E012333702B7840A920
:1091F000DB4341F8A83D0420FFF70FFE95F80080FF
:10920000B8F1020F1ED0B8F1040F3BD0B8F1010F36
:1092100040F08B8010202668FFF7FAFD6268016835
:10922000304603F083FB00287AD001F039FC62B6A7
:10923000CDF8AC8023682C9363689B082E934FF481
:10924000805313E011202668FFF7E2FD6268016891
:10925000304603F06BFB002862D001F021FC62B6BF
:1092600000232B9323682C9363689B082BA82D93D2
:10927000FFF78CFF08B101F0B4FC07B962B640B04B
:10928000BDE8F081FFF7F4FBB8B101F009FC4FF045
:1092900080434FF00F12C3F800240022C3F81C25AE
:1092A000BFF34F8F6849694BCA6802F4E062134309
:1092B000CB60BFF34F8F00BFFDE71220FFF7A8FD83
:1092C000804608B901F08DFCD8F80030C3F30B03D9
:1092D00013B1002001F085FC50238DF8AC30D8F894
:1092E00000302C93636803F6FF7323F47F6323F04D
:1092F0000F032BA82D93FFF771FB10B101233370DF
:10930000BBE751238DF8AC3023682D9363682E930F
:10931000D8F800302C932BA8FFF760FB0028EDD184
:10932000FC238DF81730287857E70B2001F059FC03
:10933000F6E70220FFF76CFD06460420FFF768FD04
:10934000804616B9304601F04CFC0E22314616A874
:1093500003F0FBFA0422B8F1000F20D1FF212BA863
:1093600003F0FEFA374E3378022B1DD0042B2AD09F
:10937000012B3AD12389ADF858309DF8AC3043F039
:1093800001038DF8AC304FF01A080E2216A9022006
:10939000FFF77EFD78BB2A4B01221A706DE741462C
:1093A0002BA803F0D2FADDE7237A8DF85A30637ADE
:1093B0008DF85B309DF8AC3043F002038DF8AC3093
:1093C0004FF01B08E1E7A3681793A389ADF860305D
:1093D000D4F80E30CDF862309DF8AC3043F0040381
:1093E0008DF8AC304FF01C08CFE70B2001F0F9FBF3
:1093F0004FF00008C9E7A37C3BB1402204F11401FF
:109400004046FFF745FD0028C5D004222BA9104691
:10941000FFF73EFD0028BED03078F82301A92030A8
:109420008DF81730FFF7F9FC064B18782030FFF75E
:1094300009FD0028AFD128601FE700BFACFE002067
:10944000A9FE0020A8FE002000ED00E00400FA05BF
:1094500070B505460324012606F1200080B2FFF70F
:10946000D7FC60B1C37CFF2B09D00A4B1E700A4B9E
:109470001860FFF78DFE0DB101232B7070BD013C0C
:109480004FEA4606E8D1044B1C60002DF6D02C7044
:10949000F4E700BFA8FE0020ACFE0020431E012B15
:1094A00070B5054601D9042812D10C4E34688CB928
:1094B00005F12000FFF7ACFC70B103681B680133B5
:1094C0000AD0074B30601D70FFF762FE204670BD6A
:1094D0000720FCE70820FAE70520F8E7ACFE0020AB
:1094E000A8FE0020054B1B6833B1054B1A781AB152
:1094F00000221A70FFF74CBE704700BFACFE002080
:10950000A9FE0020024B1868003018BF01207047E8
:10951000ACFE00208268531CC36808BF00229B0079
:1095200002F00F02013B1344028A1B0901330AB106
:1095300003EB12134FF6FF70984228BF184670478E
:1095400010B50420FFF764FC154C20610220FFF7E2
:109550005FFC20601220FFF75BFCE0601120FFF74A
:1095600057FCA0601020FFF753FC60600120FFF75C
:109570004FFC0C4B226960619A420BD922689A42D7
:1095800008D9E2689A4205D962689A4202D9A2686B
:109590009A4204D80820BDE81040FFF727BA10BD52
:1095A000C4FD0020FFEF070030B591B001AC0546C7
:1095B00018220021204603F0D3F96B1E022B26D877
:1095C0004FF6FD73ADF80430304B9DF80720197944
:1095D00061F3020293F8711061F3C30219680291FA
:1095E0002B490978C81F4142414161F304128DF8AB
:1095F000072053F8660F59681B8903AA03C201218B
:109600001380032D40D8DFE805F00429323B022106
:10961000F7E74FF6FE73ADF804301E4B1B680DF1F3
:10962000060203F10C0053F8045B42F8045B83422A
:10963000F9D11B8813801023CDE90843FF23602252
:109640008DF8293007A800238DF81C208DF82810EC
:109650008DF82A30FFF7C2F911B030BD9DF8063001
:10966000042262F303038DF806301223E4E79DF829
:109670000630012262F303038DF806300A23DBE78C
:109680009DF806300222F5E70023D5E700FE002012
:1096900000FD0020C4FD002008B50020FFF784FF76
:1096A000044B054801221A7000217422BDE80840CD
:1096B00003F056B900FD002000FE002000B58BB07D
:1096C00021238DF804308278094BC2F303021B7802
:1096D0008DF8092000F108010DF10A008DF808301D
:1096E00001F07AF801A8FFF779F90BB05DF804FBF7
:1096F00000FD002030B5104C104D23782D789D4290
:109700008BB000D90BB90123237060238DF804308E
:109710000023CDE902018DF8103001A823788DF8DF
:1097200011208DF81230FFF759F910B92378013361
:1097300023700BB030BD00BF01FD002074FE00207F
:1097400038B502884FF6FC739A4204460ED143881E
:10975000002B14BF032206222046FFF7CBFF05464D
:1097600010B9204601F068F9284638BD0322F3E716
:1097700038B50546114800244FF6FF730471846123
:109780008460A0F86230A0F8644080F87040C46142
:10979000046045712A466630013D01F01DF8EDB2C6
:1097A000074B032D4FF002021A7096BF054B20465F
:1097B000585DBDE83840FFF7F7BE00BF00FE00204F
:1097C00000FD002090C907002DE9F04FBA4C426817
:1097D00023689A42A9B00546884640F07E8201F08F
:1097E00013F90746002840F07A82B44A1378033B05
:1097F0009146052B00F27B81DFE813F006007B0128
:109800007901790130025C026E88002E40F0688197
:109810006379022B4DD0042B04D0012B4CD1A84BE3
:109820005E6801E0A64BDE68AB682361A968481C4E
:10983000284608BF3168FFF76DFE80B2A4F86200C9
:10984000A4F86400A160EB689E489B00A3612B8A8A
:10985000E361AB7C0021C3F3C003102284F87030B5
:10986000616184F8601003F07BF801F0F9F8E368B7
:109870005A1C27D16379022B22D1914BDA68D2E9A5
:1098800000321A444FF0102359698A4288BF5A693E
:10989000A1698D4B23EA01031344E360D4E902027A
:1098A000904220D0A369194601F0E8F8D8B10D2004
:1098B00010E0834B9E68B7E7062001F092F9B3E70A
:1098C000A368EAE74FF01022A16952690B44934262
:1098D000E4D90C20FFF78AF8FFF7DEFE284601F0F6
:1098E000ABF80026B5E1A26833689A42C0F0F08078
:1098F000A1690A4471680B449A4200F2E98004228B
:10990000FF2113A889F8002003F02AF86379022BBD
:1099100000F08780042B7FD0012B40F087809DF8DA
:109920004C306FF300038DF84C30D4E902329A4288
:109930003CD02120FFF76CFA0A902220FFF768FA4A
:109940000B902420FFF764FA4FF0FF370C900026AD
:109950000DF1280A4FF0010B5AF82690B9F1000FCB
:1099600014D0A369E268D9E9000101F087F840B199
:109970000BFA06F0203080B2FFF764FA08B101F06C
:1099800030F9D9F800309F4228BF1F460136032E18
:10999000E2D14B48E368A269D0F80CC0D0E90116C7
:1099A00002EB0309994501D99F4243D8D4E9022328
:1099B0009A42464E09D1424F3B69002B6AD104229C
:1099C00013A91046FFF764FA386194F87030A26961
:1099D000D4E9020100F07EFD002866D162238DF8F3
:1099E000080001A88DF80430FEF7F8FF23238DF856
:1099F000283001238DF82C3063798DF82D303368B1
:109A0000CDF82E307368CDF832303389ADF836306A
:109A10000AA8FEF7E3FF4CE09DF84C306FF3820399
:109A200081E79DF84C306FF341037CE7072001F09C
:109A3000D8F87AE71868013003F1040E28D00868D6
:109A4000984209D24A681044984282BF9DF84C005F
:109A50006FF300008DF84C003068984209D27268AC
:109A60001044984282BF9DF84C006FF341008DF87E
:109A70004C00DCF8000098420AD2DCF804201044C4
:109A8000984282BF9DF84C306FF382038DF84C30C2
:109A9000734687E713A90420FFF7BFF9002894D085
:109AA00031466079FFF764FE8FE708496079FFF778
:109AB0005FFE012712E700BF00FE002000FD00202E
:109AC000C4FD0020EEFD002000F0FFFF66FE002038
:109AD000686800F05DFF83496079FFF749FEFDE6A5
:109AE000206800F055FF7F496079FFF741FE0826A6
:109AF000B0E06B88002B00F09980B4F864209A42A3
:109B0000C0F09480784A11889942924609D1002386
:109B1000138013A862228DF84C208DF85030FEF788
:109B20005DFFE369B4F8642068881B09D11A884294
:109B30000CD8A16800F0A1FEA8F1080292B205F1CC
:109B4000080100F001FDD8B1002670E05E1EB61AD3
:109B50000644B342F8D994F860303341DB07F3D4BC
:109B600004EB0610A8F1080205F10801203002F00C
:109B7000ECFE0120B04094F86060064384F8606019
:109B8000B4F864306A88ADF85230242113A88DF8F7
:109B90004C10ADF85020FEF721FFB4F86230013BC5
:109BA000A4F86230BAF80030002B3DD128AA6E88A4
:109BB000606942F89C3D6946009300F0B3FD98B39C
:109BC000A06820F00F030098C01A60EB00010309A1
:109BD00043EA01730133721E934203D3B4F8642045
:109BE000B24221D1ADF82A3023680B9360238DF85F
:109BF0004C300AAB14930823159302238DF8583088
:109C0000FF234FF6FB728DF8593013A80023ADF8EF
:109C100028208DF85A30FEF7E1FE28B9009B6361D9
:109C2000BDF82A30AAF8003001278DE70B26B4F8DA
:109C300062305BB970228DF84C202C4A13A8CDE914
:109C40001432FEF7CBFE052389F80030002E3FF4D6
:109C500045AE57BB304629B0BDE8F08F6B8823B9BD
:109C60002846FFF757FCA4F864000823002089F871
:109C70000030FEF7F0FE23238DF84C3002238DF8E0
:109C80005030184B1A68CDF852205A681B89ADF82D
:109C90005A3013A86379CDF856208DF85130FEF76D
:109CA0009DFE064600283FF404AF41462846FFF7D4
:109CB00047FDCFE76B8823B92846FFF72BFCA4F8B4
:109CC00064006A88B4F86430ADF8502024218DF81F
:109CD0004C10ADF8523013A89BE60B26BAE70026CD
:109CE000B8E700BF66FE0020ECFD002080C3C9017C
:109CF00038B500240A4B05462146742209481C70D9
:109D000002F02EFE21461022074802F029FE074BE2
:109D10001C70074B1D70BDE83840FFF711BC00BF39
:109D200000FD002000FE0020EEFD0020FEFD0020D2
:109D300074FE00202DE9F043742291B000213148D7
:109D400002F00EFE102200212F4802F009FE2F4BD8
:109D500000241C702E4B1C80FFF7F2FB2223ADF871
:109D600008302123ADF80A302423ADF80C3001234C
:109D70008DF8053004238DF80630264B1B6802222F
:109D80009918CDE9041304338DF8042006930DF1DE
:109D9000080817460DF1040938F81400FFF738F8E1
:109DA0000546E8B114F809608DF81C7000F108014F
:109DB00032460DF122008DF8206000F00DFD04AB5D
:109DC0000BA853F82410324600F006FD2B680E93C2
:109DD0006B680F93AB7C8DF8213007A8FEF7FEFD72
:109DE0000134032CD8D100F03BFEFFF78BFB20B9E8
:109DF000FFF752FC11B0BDE8F083074B00221A7048
:109E0000F8E700BF00FE0020EEFD0020FEFD002070
:109E1000ECFD0020C4FD002000FD002008B50A4B29
:109E20001B78012B0CD14FF010235B699A4201D3B0
:109E3000531C07D1054BDA60FFF79AFC002008BDE0
:109E40000820FCE71020FAE700FD002000FE0020BB
:109E500038B505460E480378013B012B15D80D4C4B
:109E6000072303702046657140F8662B2A4600F0F0
:109E7000B3FC6379013BDBB2032B96BF064A00209B
:109E8000D05CFFF791FB002038BD0820FCE700BF45
:109E900000FD002000FE002090C90700F0B50388F7
:109EA000A3F57F43FA3B8BB004460D46042B2BD819
:109EB000DFE813F03C01E10057014F000500AC4D15
:109EC0002F78012F40F052810379407943EA002036
:109ED00000F039FD98B121238DF8043002238DF86C
:109EE000093023798DF80A3063798DF80B302B789F
:109EF0008DF8083001A8FEF771FD0BB0F0BDA61D6E
:109F0000304600F008FD08B90B20F6E762882B7890
:109F100091B24FF6FE7081420CD0964800680088DE
:109F2000884207D021218DF804108DF80970ADF812
:109F30000A20DDE721228DF8042004228DF8092073
:109F40000A2231460DEB02008DF8083002F0FDFCCC
:109F5000D0E7874F3B78013B062B00F20781DFE813
:109F600013F05E0007000700050105010501690007
:109F7000814E717906F1660200F028FD354606F142
:109F80006601002842D0E378327903F00703934258
:109F900006DC01D00020B0E7626833689A42F9D944
:109FA000A378C3F303036B71D8B2234653F8082F89
:109FB000C5F866205A684A601B890B8122884FF6D3
:109FC000FD739A4207D1E3785A0704D0A37803F0CF
:109FD0000F03834202D0072000F003FE63682B606A
:109FE000E378C3F302032B71E378C3F3C00385F86E
:109FF000713003233B706B79013BDBB2032B96BFBF
:10A000005E4A0020D05CFFF7CFFAC3E7A2787379ED
:10A0100002F00F029A4206D0E3785B07BAD02046DE
:10A02000FFF74CFB69E704F1080000F0FAFB002899
:10A03000F2D0AFE7504D82786B7902F00F029A426E
:10A04000A8D100F1080105F1660000F0D4FB00285A
:10A05000A0D0E3782A7903F007039A4204D399D178
:10A0600063682A689A4295D263682B60E378C3F3E9
:10A0700002032B71BFE7404A4168136899427FF49D
:10A0800043AF3B4B1D78082D08D100F0BDFC0028E4
:10A0900080D129462046FFF753FB2EE7384D4188F3
:10A0A00000232E4635F823708F424FEA830036D1C5
:10A0B00005446B88591C072B69807FF66BAF63885A
:10A0C0009068012B1EBF03F1FF3320F00F0000EB5F
:10A0D0000310102203A900F0F9FA28B34FF6FA731F
:10A0E000E278ADF80430A37843EA0223ADF80630F5
:10A0F000032263680293182101A8FFF7FBFA58B9FD
:10A1000055B9204A1378591C117003F00303628873
:10A1100026F8232006EB830500236B80EDE6013350
:10A12000042BBFD10025CAE70520F5E7104B1B78AB
:10A13000082B16D100F068FC00287FF42BAF0E48E6
:10A14000B0F86420B0F86210ADF80A20531C5B1A16
:10A1500001A824218DF80410ADF80830FEF73EFC6C
:10A1600097E729462046FFF72FFBC6E60820C4E6FE
:10A1700000FD0020C4FD002000FE002090C9070063
:10A18000EEFD0020FEFD002070B50220FEF740FE2F
:10A1900006460420FEF73CFE05461020FEF738FE7A
:10A1A00004461220FEF734FE32882B782AB1DA07F3
:10A1B0000CD522681268013208D05B0708D5036805
:10A1C0001B6801330CBF0420002070BD0120FCE798
:10A1D0000420FAE710B50220FEF71AFE044612200A
:10A1E000FEF716FE74B150B103685A1C0AD01B6802
:10A1F000013307D0D4F80A0008B100F0BBFB00F02F
:10A20000010010BD0020FAE730B54D4D4D4C2968D6
:10A21000ABB00E22684602F098FBD4E902329A42B3
:10A2200041D05422FF210DEB020002F099FB62792C
:10A2300004F1660117A800F0CFFAA3691693E3684A
:10A240001593FF238DF8673000238DF86630E3699E
:10A250009BB1402204F120011AA802F076FB0123F1
:10A260008DF8663054226379022B16D0042B06D069
:10A27000012B15D115A9212003E01422F3E715A91C
:10A280002420FEF705FE304B06221A70FEF7E0FD93
:10A2900038B100F0A6FC002003E015A92220F0E769
:10A2A0000B202BB030BD2B6913B90E2000F099FCA8
:10A2B0000422296915A802F048FB6279022A2FD0EE
:10A2C000042A0ED0012A38D102222049684602F021
:10A2D0003CFB9DF8543043F001038DF854301A20B4
:10A2E0000BE00A22194901A802F02FFB9DF8543017
:10A2F00043F004038DF854301C20E3691BB1402265
:10A300001349FEF7C5FD0E2269460220FEF7C0FD87
:10A310000422286015A91046FEF7BAFD2861B2E7AD
:10A320000A490DF1020002F010FB9DF8543043F091
:10A3300002038DF854301B20DFE70020DDE700BF6B
:10A34000C4FD002000FE002000FD002066FE00206D
:10A3500020FE002030B5304B1B78013BA7B0072B07
:10A3600011D8DFE803F00408080A1210575701203B
:10A37000FEF73CFB07E00520FAE7284B03F16601F6
:10A380005879FFF7F5F927B030BD254D6A69002AE5
:10A3900039D0224CE369002B3AD00AA801F0A6FE7E
:10A3A0000122611D0AA801F0D1FE042204F110016E
:10A3B0000AA801F0CBFE042204F118010AA801F05A
:10A3C000C5FE26A9002301F8913D01220AA801F04B
:10A3D000BDFE63794BB1022B18D9042B05D10A229B
:10A3E00004F166010AA801F0B1FE0AA800F0D8F94C
:10A3F000002202A90AA801F0CDFE0A4A686902A952
:10A4000001F048FC20B1FFF7FFFEBCE70222E7E7BE
:10A410000420ADE70020ABE700FD002000FE002097
:10A42000C4FD002020FE0020FFF736B900B5114B17
:10A430001B78062B8BB01AD1FEF792FDB8B10E49EE
:10A4400025234A798DF80430663101230DF10A0085
:10A450008DF808308DF8092000F0BEF901A8FEF74C
:10A46000BDFA00F0ABF9FFF76BF8FFF763FC0BB038
:10A470005DF804FB00FD002000FE002010B50D4A31
:10A48000138D834212D31B1A402B11D8D2E9040436
:10A49000C3F12001A3F12002D84004FA01F10843DE
:10A4A00024FA02F2104300F0010010BD0120FCE785
:10A4B0000020FAE778FE002010B5054C302200217C
:10A4C000204602F04DFA4FF6FF73238510BD00BF02
:10A4D00078FE00202DE9F8430646894649EA06043D
:10A4E000C4F30B0490461F46FFF7E6FF1CBB134D59
:10A4F000134BB9F1000F14BF4846304608F6FF7100
:10A50000686019401840FEF793FA06EB08002E60C9
:10A5100020F00F0026F00F060023801B0022000908
:10A52000C5E90423074B2881AF72C5F80C80AB62E4
:10A530002046BDE8F8831020FBE700BF78FE00202E
:10A5400000F0FFFF0000FFFF2DE9F04F5E4DB5F872
:10A5500028A085B007464FF6FF7082450391164646
:10A5600000F0B0803B0740F0A7802A68BA4200F2B2
:10A57000A380EB68F1191344994200F29D80102EDC
:10A5800000F29C8016F0030940F098806B8D8342A6
:10A5900040F0968022F00F02BA1A14090134A4B2D6
:10A5A0002046FFF76BFF002800F08C80D5E90423DC
:10A5B000A245CDE900234FF0010E6CD2A4EB0A0CAA
:10A5C0001FFA8CFCACF1200BCCF1200A0EFA0BF335
:10A5D0002EFA0AFA0EFA0CF243EA0A03CCF1400E04
:10A5E00012F1FF3A43F1FF3BAEF12008CEF1200912
:10A5F0000BFA0EF1DDE900230AFA08F82AFA09F944
:10A6000041EA080141EA09010AFA0EF002400B4052
:10A610001343ACF12009CCF1200E09D04FF6FF73A3
:10A6200003202B85FEF7E2F9052005B0BDE8F08F89
:10A6300001992C8501FA0CF3009901FA09F10B43F9
:10A64000009921FA0EF10B43009901FA0CF242EA4B
:10A650000A0043EA0B0120F001020B46C5E904237E
:10A66000194D03996C85324605F1180002F06DF919
:10A670002946686851F8183BC01A32463844FEF73C
:10A68000C2F90028D1D04FF6FF7307202B85FEF7C3
:10A69000ADF90320C9E7AAEB040ADDE900011FFABE
:10A6A0008AFA0EFA0AFE6FEA0E0E00EA0E0001EABE
:10A6B000EE71C5E90401D3E71020B6E70920B4E73D
:10A6C0001120B2E70820B0E778FE0020F8B5144F5B
:10A6D00016463A8D4FF6FF739A420D461DD03B68E1
:10A6E00023F00F03C01A04090134A4B2A24214D308
:10A6F0002046FFF7C3FE80B96DB166B17968012CC1
:10A700001EBF04F1FF3421F00F0101EB04113246AA
:10A71000284602F01AF9012000E00020F8BD00BF31
:10A7200078FE00202DE9F04F1C4BB3F828C04FF6FF
:10A73000FF74A4452FD0D3F800E0D3E904B52EF080
:10A740000F0A3F24C4F1200805FA08F8A4F12003F9
:10A750002BFA04F646EA080625FA03F31E4306F030
:10A7600001084FF0000958EA090311D0ACEB0403CB
:10A770009BB2012B1ABF03F1FF330AEB031373469D
:10A78000984205D80B60102313600120BDE8F08FBC
:10A7900014F1FF34D6D20020F8E700BF78FE002085
:10A7A000054B198D4FF6FF72914203D0DA68596854
:10A7B00001F0CCBC0820704778FE0020FFF77CBE7B
:10A7C000044B03F11802824204BF4FF6FF725A8510
:10A7D000704700BF78FE0020022A30B408D0042A57
:10A7E00005D0012A01D10B88038030BC70470A22B2
:10A7F00030BC02F0AAB8022A38B50AD0042A07D021
:10A80000012A0CD100880B88C31A5842584138BD20
:10A810000A2202F08BF8B0FA80F04009F7E7002036
:10A82000F5E7022A10D0042A04D0012A0FD10088AB
:10A830000B8805E082888B889A4208D100680B68F3
:10A84000C31A58425841704700780B78F8E7002047
:10A850007047022A0CD0042A04D0012A0BD10088A8
:10A860000B8803E0D0F80600D1F80630C01A704714
:10A8700000780B78FAE70020704701281EBF00F12E
:10A88000FF3021F00F0101EB00110846704770B551
:10A89000054602200E46FEF7BBFA04460420FEF7EA
:10A8A000B7FA022E23D0042E0CD0012E31D12A88E3
:10A8B00023889A422DD1C8B1007880F0010000F0C1
:10A8C000010013E0AA8823899A4222D12A6863688A
:10A8D0009A421ED1D5F80620D4F80A309A4216D8EA
:10A8E00020B1007880F00400C0F3800070BD2A78A9
:10A8F000A3789A420DD16A78E3789A4207D8002863
:10A90000F4D0007880F00200C0F34000EEE70120B0
:10A91000ECE70020EAE710B504460220FEF778FADB
:10A92000A28803899A420CD1226843689A4208D1CE
:10A93000D0F80A00D4F80630834294BF00200120EA
:10A9400010BD0020FCE707B5ADF804000220FEF7BB
:10A950005FFA9DF8042083789A4209D1C0789DF867
:10A960000530834294BF0020012003B05DF804FB52
:10A970000020FAE708B50420FEF74AFA30B1007863
:10A9800000F00700C31F5842584108BD0120FCE7F2
:10A99000044A1378591C117003F00703024A42F865
:10A9A0002300704714FF0020F4FE0020064A002315
:10A9B00052F82310814204D00133082BF8D1002033
:10A9C00070470120704700BFF4FE002070B5837807
:10A9D00003F00F038B4204460D46164600D089B99A
:10A9E0006068FFF7E3FF68B908342A46314620461D
:10A9F000FFF717FF28B12A462046FFF72AFFC0437A
:10AA0000C00F70BD0020FCE730B50A490488002360
:10AA100031F82350A5424FEA830204D10A445588F5
:10AA20004288954204D00133102BF1D1002030BD73
:10AA30000120FCE7B0FE002030B50749074A0B684B
:10AA4000058803F00F04013322F8245002EB84023E
:10AA5000408850800B6030BDF0FE0020B0FE00202A
:10AA600008B540220021034801F07AFF024B002282
:10AA70001A6008BDB0FE0020F0FE0020904204D312
:10AA80001344834207D8904207D80844904234BF09
:10AA9000002001207047012070470020704700000F
:10AAA00010B5074A10680023012404FA03F101429B
:10AAB00003F1010318BFC2F88010202BF5D110BD9F
:10AAC00000E100E081682023013B21FA03F2D20774
:10AAD000FAD5012202FA03F383600023C0E90333AD
:10AAE000704770B50446F9B1EFF3108572B6D0E93E
:10AAF000020622690244B24203D105B962B60425B6
:10AB00000DE0236862680138304002FB0030636961
:10AB10003BB19847E3680133E3603DB962B628462C
:10AB200070BD01F012FFF5E70E25F8E70025F6E706
:10AB300070B504460846EFF3108572B6D4E90336C3
:10AB40009E4203D105B962B60E250FE049B1D4E9A2
:10AB50000123591E2368314002FB013163693BB177
:10AB600098472369013323612DB962B6284670BD29
:10AB700001F0EBFEF5E70025F8E7F8B503461546CA
:10AB8000084611B90E242046F8BDEFF3108472B6C2
:10AB9000D3E90367F61BB24203D3002CF2D162B6AD
:10ABA000F0E7D3E901213D44013929401D685B6983
:10ABB00002FB01511BB1984724B962B6E3E701F0EB
:10ABC000C4FEF9E70024DEE70022FFF7D6BFD0E994
:10ABD0000320101A7047D0E90302131A5842584153
:10ABE000704772B600BEFEE772B600BEFEE7000018
:10ABF00008B54FF08043D3F8082442B901221A6007
:10AC0000D3F80021002AFBD00022C3F800214FF026
:10AC10008043D3F8142442B901229A60D3F8042166
:10AC2000002AFBD00022C3F804214FF08043012208
:10AC30001A61D3F80C21002AFBD00022C3F80C21A2
:10AC40000E4B402283F816234FF480021A6062B63E
:10AC5000FDF7CCFBFEF756FC70B94FF080431C4665
:10AC6000D3F81C250AB9FDF77FFC0023C4F81C3576
:10AC7000FDF70AFC20BFFDE720BFEBE700E100E0A5
:10AC80000023034A194699540133202BFBD1704706
:10AC9000480600200C4A30B500230446EFF310812B
:10ACA00072B6985C48B90120D054084A282505FBA3
:10ACB0000323236001B962B630BD01B962B6013326
:10ACC000202BEBD10020F7E74806002048010020A8
:10ACD00070B50E4C041B2820B4FBF0F41F2C12D8C6
:10ACE000EFF3108672B60A4D2B5D013BDBB2FD2BF4
:10ACF00002D90420FFF775FF2B5D01332B5506B9F0
:10AD000062B6012000E0002070BD00BF48010020B5
:10AD1000480600200F4BC01A2823B0FBF3F01F2871
:10AD200010B501D9002010BDEFF3108472B60A4BA4
:10AD30001A5C32B90820FFF754FF002CF2D162B63A
:10AD4000F0E7013A1A5404B962B6185C003018BF33
:10AD50000120E8E74801002048060020054BC01A02
:10AD60002823B0FBF3F01F289ABF034B185C002088
:10AD7000704700BF480100204806002010B5062299
:10AD800004460749033001F0E0FD4FF080530020F6
:10AD9000D3F8A020237862F38613237010BD00BF80
:10ADA000A400001070B5F8B14278D31F1E2B00F13B
:10ADB000090419D8961F033223464FF6E465104460
:10ADC0005A78162A04D15A88AA4201D1184670BD71
:10ADD0001A78191B1144B14206D8834204D20132B9
:10ADE000C2EB42121344EBE70023EFE7F0B54FF05C
:10ADF00080520226136914699BB2013B1944A4B224
:10AE0000114BB1FBF4F10024C9B22746E5B2A942C7
:10AE100000D8F0BDC3F80465D3F80054002DFBD072
:10AE2000C3F80805D3F80054002DFBD0C3F804750F
:10AE3000D3F80054002DFBD01569C5F38D0500EB48
:10AE400085000134E2E700BF00E0014023F0030386
:10AE50002DE9F04118440024164F174B0A442646AA
:10AE6000A6464FF00108914201D1BDE8F08111F8EA
:10AE700001CB07F806C0751CEDB264EA0C04042D82
:10AE8000E4B215D18CB1C3F80485D3F80044002C8A
:10AE9000FBD03C680460D3F80044002CFBD0C3F81E
:10AEA00004E5D3F80044002CFBD0002404302546F0
:10AEB0002E46D8E76806002000E00140384B2DE917
:10AEC000F04700240F46904601210322C3F8FC4FAF
:10AED000C3F8FC1FC3F80C45C3F810250222C3F8C1
:10AEE00008252522C3F854258E22C3F824250646BA
:10AEF0002C4A2D48C3F81C250068D3F82425050EDC
:10AF000042EA0522C3F824250002284AC3F8200596
:10AF1000C3F82C45C3F83015C3F81425244AC3F8E8
:10AF2000182540F25B62C3F8382540F20312C3F8DB
:10AF30003425204AC3F83C251F4D9422C3F84425EC
:10AF40002A78032A08D11D481D4A446108238360DA
:10AF5000C0E90023FFF7B6FD114BDFF874901748E6
:10AF6000022400222C70C3F80C21164D164BC5F894
:10AF700080412C601F60154BC9F80060C3F8008049
:10AF8000FFF729FE20B1D9F80030BDE8F047184797
:10AF900000F02EFA08B1C5F80041BDE8F08700BF07
:10AFA0000010004000D6BE89040000200601020007
:10AFB00025000302555555000800002070060020AA
:10AFC0008806002000E100E0C8060020CC06002032
:10AFD0006C06002038B50146C0B1437913B9037936
:10AFE000012B15D80C48FFF77CFD044690B9EFF310
:10AFF000108572B600F0FCF918B1084B0222C3F8B4
:10B0000000210DB962B62C46204638BD0E24FBE760
:10B010001024F9E70424F7E77006002000E100E0BF
:10B02000074B00224FF0FF31C3F80022C3F808138A
:10B0300001211961C3F80425024B02221A707047DE
:10B0400000100040080000202DE9F041614CD4F8C8
:10B050000C3186B02246002B73D0D4F80064D4F8AB
:10B060000C74D4F81C31002B65D00023C4F81C31BB
:10B07000D4F84845E4B20023C2F80C3103A956487D
:10B08000FFF756FD08B1FFF7ACFD9DF811300398AE
:10B09000013B012B51D8514B311C1D683A462346C8
:10B0A00018BF0121A8474E4B02221A704C4C23783E
:10B0B000023B012B3CD801A94748FFF785FD00283A
:10B0C00040F08380434D1323C5F800329DF80A30C9
:10B0D0000A2B5DD89A1C5200C5F8082503F07F02A0
:10B0E0003C4B4049C3F85425019AC3F80425082273
:10B0F000C3F804230022C3F80C210968D3F82425DF
:10B10000080E42EA0022C3F824250A02C3F82025CB
:10B110009DF809001A46002848D19DF80820C3F878
:10B120002C259DF80B20C3F80C2501221A602270F3
:10B1300006B0BDE8F08164249DE72B4B1B6898475F
:10B14000B1E72548244F254EFFF741FDA0460546AF
:10B15000012DABD903A93846FFF736FD014600287B
:10B16000A4D19DF81130022BA0D13846FFF7E0FCA6
:10B17000FFF756FFD8F850150029FBD1C8F80C117D
:10B1800064234FF0FF3203983468A047013DDFE7A6
:10B19000242B01D8DA1C9EE7144A07CA06AE06E93A
:10B1A000070006EB830252F8A02C95E7104B99425A
:10B1B00018BF03214FF001030CBFC2F83035C2F8AD
:10B1C0003015536000232370B2E70A4B1B68984781
:10B1D000AEE700BF0010004070060020C806002047
:10B1E0000800002004000020CC06002094C90700BD
:10B1F000D6BE898E6C06002010B5D0E90023846885
:10B20000C168A2EB731283EAF43303600C44134465
:10B21000114444608160C360184610BD0A4B01228E
:10B2200010B51A60002219B901225A60084610BDF3
:10B23000D3F80041002CFBD0013989B2D3F808457E
:10B240004454C3F80021EEE700D0004073B5044633
:10B2500002A8002340F8043D0421FFF7DFFF064663
:10B2600058B9074B2360019BE360C4E901331425FF
:10B270002046FFF7C1FF013DFAD1304602B070BD54
:10B28000ED5EEAF1F0B5164B164ED3F80425501ECC
:10B2900020F07F40014600239C595CB1F418676898
:10B2A0008C1ABD1A25F07F4524F07F44A54238BF93
:10B2B00027F07F411033802BEED1094B81424FF4B0
:10B2C00080301FBFC3F804030020C3F84001C3F857
:10B2D000401516BF044BC3F808031A60F0BD00BF49
:10B2E00000B000408407002080070020FFF712BD57
:10B2F00007B5019061B101A90748FFF7F2FB38B922
:10B30000064B4FF48012C3F8002103B05DF804FB34
:10B310000198FFF7FFFCF8E7E806002000E100E0F5
:10B3200007B5022368468DF80530FFF7B3FC78B106
:10B3300000238DF80430684625238DF80630FFF78A
:10B3400049FE10B16846FFF7E5FC03B05DF804FB69
:10B35000014B1870F9E700BFE0060020024B1B7894
:10B360000BB1FFF7DDBF7047E00600202DE9F0418B
:10B37000837B8768457B0646CBB940F6CD4202FA0F
:10B3800005F30135AA401848A3F6CD44D51AFFF7B6
:10B3900033FF3C44C5F35603B0FBF3F202FB13004A
:10B3A0002344034423F07F437360BDE8F081022B04
:10B3B00041F69A140C4814BF4FF001084FF00A08E8
:10B3C0006C43FFF719FF40F6CD4202FB08F208FB81
:10B3D00004F414443C44B0FBF2F303FB12000444B5
:10B3E00024F07F447460E0E7D0060020FFF72CBE15
:10B3F00001207047174B10B500241C70164B1860C5
:10B40000164B17481C802146802201F0A9FA1548E6
:10B41000154B036004222023C0E901234461FFF798
:10B4200051FBFFF72DFC1148FFF710FF08B1FFF7A4
:10B43000D8FB0F4B0F491048402283F814234FF4D8
:10B4400080121A60002283F80123BDE810400B4AE5
:10B45000FFF734BDE0060020E406002004080020C9
:10B4600084070020E806002000070020D006002006
:10B4700000E100E0F1B207005DB30700EDB20700A4
:10B48000034B1A781AB901221A70FFF749BF7047A7
:10B49000E006002073B50F4D0F4E01A92846FFF7B7
:10B4A00047FB044630B10D4B1B780BB9FFF7E8FFA3
:10B4B00002B070BD0198FFF751FC012802D0204670
:10B4C000FFF78FFB0198336898470198FFF722FC3C
:10B4D000E3E700BFE8060020E4060020E0060020C5
:10B4E0002DE9F047044617461E460BB90C2A28D80A
:10B4F0003CB3072925D8EFF3108872B6124B0D0123
:10B5000003EB011958599A4608B1FFF703FC20468E
:10B51000FFF7DEFB0AEB0502002353734AF80540F0
:10B520000A4B1773D3F80435936096734846FFF7B8
:10B530001DFFFFF7A7FEB8F1000F00D162B6012092
:10B5400000E00020BDE8F0878407002000B0004044
:10B5500038B50D4B4FF4006207280446C3F880202D
:10B560000CD80301094DE858FFF7D4FB1022002145
:10B5700005EB041001F0F4F9FFF784FE024B4FF4E1
:10B5800000621A6038BD00BF00E100E084070020BF
:10B59000F7B52C4B2C4CD3F804552C4F023504F145
:10B5A0008006216861B36368EB1A23F07F423B6831
:10B5B000EB1A23F07F439A4222D800238DF80530FE
:10B5C0008DF804308DF80730E37B0091022B1ED9F3
:10B5D0000023E373637B5A1CD2B2FF2B627307D143
:10B5E000A36803F5CC1303F5D05323F07F43A36086
:10B5F000237B9A4201D3FF2B1BD12046FFF7B6FED7
:10B600001034B442CDD1FFF73DFE03B0F0BD252389
:10B610008DF806309DF80630272BD9D86846FFF7FD
:10B62000D9FC10B92068FFF753FB9DF806300133B1
:10B63000EEE72068FFF76EFB10220021204601F0A4
:10B640008FF9DDE700B0004084070020800700206C
:10B65000031F00221C3043F8042F8342FBD17047A4
:10B66000031F1C3053F8042F1AB98342FAD101206A
:10B670007047002070474A11012350F8220001F062
:10B680001F0103FA01F1084070470B1F04381C31F9
:10B6900053F8042F40F8042F8B42F9D1704710B5AE
:10B6A00000F12003203153F8044D51F8042D944249
:10B6B00004D805D38342F6D1002010BD0120FCE759
:10B6C0004FF0FF30F9E700F120030022834200D160
:10B6D000704753F8041D42EA51021A60CA07F5E7A1
:10B6E000002370B50646184651F8235052F82340FF
:10B6F0002C440444A54202D08CBF0120002046F80F
:10B7000023400133082BEFD170BD002370B50646EE
:10B71000184651F8235052F823402C1B241AA542F6
:10B7200002D034BF0120002046F823400133082B0B
:10B73000EFD170BD01F11C030438043953F804291A
:10B7400012BA8B4240F8042FF8D1704770B5064604
:10B75000A0B008461446FFF783FF20B13046FFF73C
:10B7600077FF20B070BD6846FFF78FFF214608A81D
:10B77000FFF78BFF10A8FFF76BFF012318A81093AA
:10B78000FFF766FF08A96846FFF789FF20B910A9EF
:10B790003046FFF77AFFE4E7009BDA0716D46846E5
:10B7A000FFF791FF109810F0010505D010A922466F
:10B7B0000846FFF795FF054610A8FFF784FF002D08
:10B7C000E0D0179B43F000431793DBE7089BDB07B0
:10B7D00016D408A8FFF777FF189810F0010505D0D8
:10B7E00018A922460846FFF77BFF054618A8FFF771
:10B7F0006AFF002DC6D01F9B43F000431F93C1E793
:10B80000002818DD08AA69466846FFF77EFF6846EB
:10B81000FFF759FF18A910A8FFF741FF002804DA25
:10B8200010A922460846FFF75BFF10A918AA084690
:10B83000FFF76BFFB6E708A96A460846FFF765FF02
:10B8400008A8FFF740FF10A918A8FFF728FF002855
:10B8500004DA18A922460846FFF742FF18A910AAE1
:10B860000846FFF752FFB7E710B50446FFF74DFF54
:10B8700030B121462046034ABDE81040FFF730BFF3
:10B8800010BD00BF00CA070010B50446FFF728FF2F
:10B8900028B907492046FFF702FF002806DB2146AA
:10B8A0002046034ABDE81040FFF72FBF10BD00BF80
:10B8B00000CA0700072250F8223013B912F1FF32F4
:10B8C000F9D2531C0AD050F82210002219B9581E80
:10B8D00002EB4010704749080132F7E718467047FD
:10B8E0002DE9F74FCDE9001200252C462B46009A92
:10B8F000A2F1040C019A02EB0508009A9E4602EBA5
:10B900000509234600245CF8046F58F80479A7FB66
:10B9100006AB0026324642EA0E0211461A4633466C
:10B920001AEB01065BEB020728BF0123E1451C442B
:10B93000B6463B46E7D146510435202DD7D100F11C
:10B940001C090125019A9E4602F120082346AC46B7
:10B950000024009A58F8047D52F82C60A6FB07AB2F
:10B960000026324642EA0E0211461A4633461AEBC8
:10B9700001065BEB02070CF1010C28BF0123BCF1AF
:10B98000080F1C44B6463B46E3D10135082D49F863
:10B99000046FD7D1C76303B0BDE8F08F70B598B01E
:10B9A000054608A8FFF79CFF08A92846FFF76DFE8B
:10B9B000139B0393149B0493159B0593169B06936B
:10B9C0000026179B07936A4669466846CDE90166DB
:10B9D0000096FFF785FE6A46044629462846FFF78B
:10B9E0007FFE149B0393159B0493169B0593179B53
:10B9F00004446A4669466846CDE90636FFF770FE9C
:10BA0000294604446A462846FFF76AFE109B0093C5
:10BA1000119B0193129B0293169B06930444179B60
:10BA200003966A462846CDE904660793FFF758FE59
:10BA3000119B0093129B169A0193139B02930492FD
:10BA4000159B179A0393CDE905230444109B079394
:10BA50006A462846FFF744FE139B0093149B01930C
:10BA6000159B0293109B06930444129B03966A460F
:10BA70002846CDE904660793FFF747FE149B009321
:10BA8000159B0193169B0293179B0393119B06939F
:10BA9000241A139B07936A462846CDE90466FFF7EC
:10BAA00034FE159B0093169B0193179B0293109BEA
:10BAB0000393119B0493129B241ACDE905366A4621
:10BAC000149B07932846FFF720FE169B0093179BB5
:10BAD000CDE90136119B0393129B0493139B241A07
:10BAE000CDE905366A46159B07932846FFF70DFEFC
:10BAF000241A0C4E0DD42CB929463046FFF7CFFD41
:10BB000001280DD0324629462846FFF7FEFD241AAB
:10BB1000F1E7324629462846FFF7E2FD2418F8D41B
:10BB200018B070BD00CA070070B588B006460D4653
:10BB3000684611461446FFF731FF6A4631463046E3
:10BB4000FFF72CFF224669466846FFF727FF6A4643
:10BB500029462846FFF722FF08B070BDF0B514460D
:10BB600089B006460F460246214668461D46FFF745
:10BB70007BFE6A4669466846FFF710FF6A46314613
:10BB80003046FFF70BFF6A4621462046FFF706FFC7
:10BB90003A4629462846FFF767FE2A462946684660
:10BBA000FFF7FCFE324669466846FFF75DFE224617
:10BBB00069466846FFF758FE324621462046FFF7A1
:10BBC00053FE224639463846FFF7E8FE6A463146BC
:10BBD0002046FFF749FE224629462846FFF7DEFEAB
:10BBE0003A4629462846FFF73FFE69462046FFF7BA
:10BBF0004CFD09B0F0BD0000F0B5B3B022AB054676
:10BC000002A80093019012AEFFF76AFE20491AA81D
:10BC1000FFF73BFD3046FFF71BFD40F20117012403
:10BC200032AAC4F1010302EB8303002153F8C8CC0C
:10BC300002EB840353F8C8EC0B465EF8230056F879
:10BC40002320821A521A904202D034BF01210021CF
:10BC50004CF823200133102BEFD10B1B5C423046F4
:10BC60005C41FFF730FDDDE919321AA843EAC273DF
:10BC70001993FFF728FD013FD2D132AB03EB8404C7
:10BC8000284654F8C81CFFF700FD33B0F0BD00BFD4
:10BC9000E0C907002DE9F043ADF5057D44AF64AE82
:10BCA000804600248946014630461546FC6153947F
:10BCB000FFF740FD08F120016CA8FFF73BFD294686
:10BCC0003846FFF737FD05F120014CA8FFF732FD9C
:10BCD0003846FFF7C5FC0146002840F0AE804CA86E
:10BCE000FFF7BEFC0446002840F05E813946AF48AD
:10BCF000FFF7D5FC012840F0A0804CA9AB48FFF726
:10BD0000CEFC0128804640F09880A84A4CA914A88F
:10BD1000FFF71CFD494604A80B94FFF70BFD04A98F
:10BD2000084614AAFFF768FF74AD14AA39460CA898
:10BD3000FFF762FFDFF87C9231462846FFF7A5FC4B
:10BD40006CA97CA8FFF7A1FC49462CA8FFF79DFC35
:10BD500009F1200134A8FFF798FC29462CAA14A861
:10BD6000FFF782FD7CAB2A4634A92CA8FFF7F6FE2C
:10BD700014A908468E4AFFF7E9FC14AA7CA92846B4
:10BD8000FFF7D2FE04A8CDE90265CDE90049FFF72F
:10BD900091FD05460CA8FFF78DFD8542B8BF05460D
:10BDA00005F1FF39494604A8FFF765FC4946061C22
:10BDB0000CA818BF0126FFF75EFC002814BF022361
:10BDC00000231E431CA85DF8269024AE4946FFF7C9
:10BDD0005CFC09F120013046FFF757FCDFF8D091F9
:10BDE00014A8FFF735FC023DCDF85080002D29DA6C
:10BDF00014A908466E4A1CADFFF7A8FC14AA24A992
:10BE00002846FFF791FE29466848FFF748FC0128BD
:10BE100004D0664A29462846FFF777FC072355F8E1
:10BE2000232057F8231013F1FF3382EA010244EA7A
:10BE30000204F4D2B4FA84F4640920460DF5057DB9
:10BE4000BDE8F08314A8FFF70BFC002870D1324640
:10BE5000314654A8FFF7A2FD54AA1CA95CA8FFF71D
:10BE60009DFD54AA11461046FFF798FD14AA3146CD
:10BE70003046FFF793FD14AA11461046FFF78EFDDA
:10BE80001CA9084614AAFFF7FFFC14AA1146104685
:10BE9000FFF7FAFC14AA10461CA9FFF7E5FC1CA941
:10BEA000084614AAFFF77AFD1CAA114614A8FFF74A
:10BEB000EBFC1CA914AA0846FFF7E6FC1C9BDB0759
:10BEC0006ED51CA94A460846FFF70AFC80461CA806
:10BED000FFF7F9FB239840EAC87023901CAA11468B
:10BEE00014A8FFF75BFD14A908465CAAFFF7BCFC89
:10BEF00014A908465CAAFFF7B7FC5CA9084614AA77
:10BF0000FFF7B2FC1CA908465CAAFFF747FD54AA3C
:10BF100010461CA9FFF7A8FC14A91CA8FFF7B5FB45
:10BF2000314614A8FFF7B1FB54A93046FFF7ADFB2B
:10BF3000294604A8FFF79FFB294610F100080CA82A
:10BF400018BF4FF00108FFF796FB002814BF02232B
:10BF5000002348EA03085DF82880B8F1000F1DD0DF
:10BF600041462CA8FFF791FB08F1200134A8FFF708
:10BF70008CFB14AA34A92CA8FFF7D6FD2CAA1CA967
:10BF80003CA8FFF771FC1CAA34A92CA83346FFF784
:10BF9000E5FD14A93CAA0846FFF700FD013D25E791
:10BFA0001CA8FFF790FB99E70C4646E7E0C907009D
:10BFB00000CA0700A0C907002DE9F04F0022C9B050
:10BFC0004B780C781B0443EA0463CC7823438C78C9
:10BFD00043EA042308AC0431A3500432402AEFD1D1
:10BFE000234638AD996B1E464FEAF14282EA714210
:10BFF00082EA9122716A366853F8044F31440A4448
:10C000004FEAB44181EAF41181EAD4010A449D4225
:10C01000DA63E7D1036D0093436D0193836D02935F
:10C02000C36D0393036E0493436E0593836E06936F
:10C03000DDE905ECC36E009CDFF8AC900793DDE909
:10C040000381DDE901659B4600274FEAF12383EA7E
:10C05000B11383EA716A59F827301A4608AB53F8CE
:10C0600027301A44134653442CEA010201EA0E0A0F
:10C0700082EA0A021A444FEA743A86EA05035A44ED
:10C080008AEAB40A06EA050B234083EA0B038AEA2C
:10C09000B45A01379A44402F02EB0803E346524456
:10C0A000A8461AD1009F1744019A076522444265A9
:10C0B000029A32448265039A2A44C265049A1A4459
:10C0C000059B02660B444366069B73448366079B8D
:10C0D0006344C36649B0BDE8F08FF44635468E46EA
:10C0E000264619461446B0E720CA070030B5E0B12D
:10C0F0000F4A104900240025C0E91245C0E9141276
:10C100000D4C0E4A0E4DC0E916420E4AC0E91852B7
:10C110000D4A826602F17452A2F523020023A2F6B0
:10C1200092420364C266184630BD0E20FCE700BF91
:10C1300085AE67BB67E6096A72F36E3C3AF54FA5B8
:10C140007F520E518C68059BABD9831FF8B504460E
:10C15000F0B10AB90020F8BDD1B10D468E18002704
:10C16000B542F7D0236C15F8012BE2540133402B74
:10C170002364F5D121462046FFF71EFFD4E91201C2
:10C1800010F5007241F10003C4E912232764E7E7C8
:10C190000E20E0E72DE978480D46164604460028B3
:10C1A00000F08480002900F08180026C8021372A11
:10C1B00002F1010381544FF000024DD8382B46D1D3
:10C1C000D4E91223206C0821E1FB002322FA01F1BB
:10C1D000934684F83F2084F83E10110C120E84F828
:10C1E0003C201A0A9C4684F83B3084F83A201A0C0A
:10C1F0001B0E84F83D10C4E912BC214684F8392096
:10C2000084F838302046FFF7D7FE691E7EB300233E
:10C21000E26EDA4001F8012FA26EDA400A71626E16
:10C22000DA400A72226EDA400A73E26DDA400A746A
:10C23000A26DDA400A75626DDA400A76226DDA4044
:10C240000833202B0A77E3D10020BDE87888E25438
:10C250000133B3E7E25401333F2BFBD9214620469B
:10C26000FFF7AAFE3822002100F07AFBA8E7182386
:10C27000226DDA4001F8012F626DDA400A71A26D79
:10C28000DA400A72E26DDA400A73226EDA400A740A
:10C29000626EDA400A75A26EDA400A76E26EDA4021
:10C2A000083B13F1080F0A77E2D1CDE70E20CCE767
:10C2B0000C4B1B78062B10D10B4B1B681A070CD1AB
:10C2C0000A4B186800F0F003302B08D000F0E000B3
:10C2D000A0F14003584258417047002070470120A8
:10C2E000704700BFE00F00F0E40F00F0E80F00F02F
:10C2F000094B1B78062B0CD1084B1B681A0708D179
:10C30000074B186800F0F000A0F130035842584184
:10C3100070470020704700BFE00F00F0E40F00F00E
:10C32000E80F00F008B5FFF7C3FF28B17D4B7E4A48
:10C330001B68C3F304231360FFF7DAFF10B17B4BD4
:10C340007B4A1A60FFF7B4FF28B17A4B7A4A1B6820
:10C35000C3F342331360FFF7CBFF20B1774AD368B2
:10C3600023F08073D360FFF7A3FF40B14FF0804309
:10C370000022C3F80C21C3F81021C3F83825FFF7B9
:10C38000B7FF10B16E4B03221A60FFF7B1FF40B147
:10C390006C4B05221A6001229A6700229A603F22A4
:10C3A0005A60694B1B78062B50D1684B1B681907E4
:10C3B0004CD1674B1B6803F0F003502B46D14FF074
:10C3C0008052644BD2F80414C3F82015D2F8081434
:10C3D000C3F82415D2F80C14C3F82815D2F8101499
:10C3E000C3F82C15D2F81414C3F83015D2F8181469
:10C3F000C3F83415D2F81C14C3F84015D2F8201431
:10C40000C3F84415D2F82414C3F84815D2F82814F8
:10C41000C3F84C15D2F82C14C3F85015D2F83014C8
:10C42000C3F85415D2F83414C3F86015D2F8381490
:10C43000C3F86415D2F83C14C3F86815D2F8401458
:10C44000C3F86C15D2F84424C3F87025FFF730FF09
:10C4500028B1414B414A1B6803F04F031360FFF7BB
:10C4600027FF48B14FF08043D3F80024D20744BFE0
:10C470006FF00102C3F80024394B1B68062B08D16A
:10C48000384B1B68062B01BF374A136843F480639F
:10C490001360364AD2F8883043F47003C2F888300B
:10C4A000BFF34F8FBFF36F8F4FF01023D3F80022ED
:10C4B000002A03DBD3F80432002B2FDA2C4B0122A5
:10C4C000C3F80425D3F80024002AFBD04FF0102233
:10C4D0001521C2F80012D3F80024002AFBD04FF037
:10C4E00010231522C3F80422214B1A46D3F8001456
:10C4F0000029FBD00021C3F80415D2F80034002B2A
:10C50000FBD0BFF34F8F19491A4BCA6802F4E0629F
:10C510001343CB60BFF34F8F00BFFDE7164B174AA5
:10C520001A6008BD240300104035014074C0074064
:10C530000DF0ADBA440200103C050040F0ED00E003
:10C54000A005004010560040E00F00F0E40F00F09E
:10C55000E80F00F000C0004058020010E40E004058
:10C5600030010010340100103C17004000ED00E0E5
:10C5700000E001400400FA050C0000200090D00308
:10C580000649074A074B9B1A03DD043BC858D050A5
:10C59000FBDCFFF7C7FEFBF753FE000030CB0700C4
:10C5A0000400002078000020FEE7FEE7FEE7FEE73B
:10C5B000FEE7FEE7FEE7FEE7FEE7FEE753B94AB90E
:10C5C000002908BF00281CBF4FF0FF314FF0FF309B
:10C5D00000F072B9ADF1080C6DE904CE00F006F878
:10C5E000DDF804E0DDE9022304B070472DE9F047EF
:10C5F000089E04468846002B4BD18A42154667D9CF
:10C60000B2FA82F24AB1C2F1200701FA02F320FA2B
:10C6100007F7954047EA030894404FEA154E230C6C
:10C62000B8FBFEF71FFA85FC0EFB178843EA0843A8
:10C6300007FB0CF1994209D9EB1807F1FF3080F0A4
:10C640001B81994240F21881023F2B445B1AA4B22D
:10C65000B3FBFEF00EFB103344EA034400FB0CFC7A
:10C66000A44509D92C1900F1FF3380F00781A445B6
:10C6700040F2048102382C4440EA0740A4EB0C0449
:10C6800000271EB1D4400023C6E900433946BDE867
:10C69000F0878B4209D9002E00F0EB800027C6E915
:10C6A000000138463946BDE8F087B3FA83F7002F1A
:10C6B00047D18B4202D3824200F2FA80841A61EBA6
:10C6C000030301209846002EE0D0C6E90048DDE7CC
:10C6D00002B9FFDEB2FA82F2002A40F08F80491BD5
:10C6E0004FEA154E1FFA85F80127B1FBFEFC230C1B
:10C6F0000EFB1C1143EA014308FB0CF1994207D9D8
:10C70000EB180CF1FF3002D2994200F2CD80844642
:10C71000591AA3B2B1FBFEF00EFB101443EA044415
:10C7200008FB00F8A04507D92C1900F1FF3302D20D
:10C73000A04500F2B6801846A4EB080440EA0C407D
:10C740009FE7C7F1200CBB4022FA0CFE4EEA030E15
:10C7500001FA07F420FA0CF521FA0CF34FEA1E480F
:10C760002543B3FBF8F92C0C08FB19331FFA8EFA9A
:10C7700044EA034309FB0AF49C4202FA07F200FA76
:10C7800007F10BD91EEB030309F1FF3080F087801E
:10C790009C4240F28480A9F1020973441B1BADB294
:10C7A000B3FBF8F008FB103345EA034400FB0AFA38
:10C7B000A24508D91EEB040400F1FF336BD2A24559
:10C7C00069D90238744440EA0940A0FB0289A4EB0D
:10C7D0000A044C45C2464B4654D351D0002E69D072
:10C7E000B1EB0A0564EB030404FA0CFCFD40FC40C9
:10C7F0004CEA0505C6E90054002747E7C2F12003CB
:10C8000020FA03F7954001FA02F021FA03F34FEA08
:10C81000154E3843010CB3FBFEF71FFA85F80EFBEB
:10C82000173341EA034107FB08F38B4204FA02F491
:10C8300007D9691807F1FF3C2FD28B422DD9023F4F
:10C840002944CB1A81B2B3FBFEF00EFB103341EA50
:10C85000034100FB08F38B4207D9691800F1FF3C44
:10C8600017D28B4215D902382944C91A40EA074722
:10C870003BE73746304609E70746E7E61846FBE65A
:10C880004145ABD2B8EB020A69EB0E020138134600
:10C89000A4E76046E9E7184695E76746D1E7814691
:10C8A0007CE702382C4447E7ACF1020C2B442FE71D
:10C8B000384608E73746E9E6704700BF08B5074B3A
:10C8C000044613B10021AFF30080054B1868836A5A
:10C8D00003B19847204600F04BF800BF000000006D
:10C8E00020CB070070B50D4E0D4CA41BA4100025E5
:10C8F000A54209D10B4E0C4C00F03CF8A41BA4102F
:10C900000025A54205D170BD56F825309847013560
:10C91000EEE756F8253098470135F2E77000002021
:10C9200070000020700000207400002030B500244A
:10C93000A24201D1002007E0035D01340D1915F872
:10C94000015CAB42F4D0581B30BD10B5431E0A4405
:10C95000914200D110BD11F8014B03F8014FF7E7E8
:10C9600002440346934200D1704703F8011BF9E7E4
:10C97000FEE700BFF8B500BFF8BC08BC9E46704794
:10C98000F8B500BFF8BC08BC9E467047FFFF00002A
:10C9900002030001020000001A0000005000000025
:10C9A00096C298D84539A1F4A033EB2D817D037749
:10C9B000F240A463E5E6BCF847422CE1F2D1176BE4
:10C9C000F551BF376840B6CBCE5E316B5733CE2BB7
:10C9D000169E0F7C4AEBE78E9B7F1AFEE242E34FE6
:10C9E000512563FCC2CAB9F3849E17A7ADFAE6BC11
:10C9F000FFFFFFFFFFFFFFFF00000000FFFFFFFF43
:10CA0000FFFFFFFFFFFFFFFFFFFFFFFF0000000032
:10CA1000000000000000000001000000FFFFFFFF19
:10CA2000982F8A4291443771CFFBC0B5A5DBB5E999
:10CA30005BC25639F111F159A4823F92D55E1CAB0D
:10CA400098AA07D8015B8312BE853124C37D0C559B
:10CA5000745DBE72FEB1DE80A706DC9B74F19BC1E3
:10CA6000C1699BE48647BEEFC69DC10FCCA10C24D3
:10CA70006F2CE92DAA84744ADCA9B05CDA88F976B7
:10CA800052513E986DC631A8C82703B0C77F59BF21
:10CA9000F30BE0C64791A7D55163CA06672929144D
:10CAA000850AB72738211B2EFC6D2C4D130D3853EA
:10CAB00054730A65BB0A6A762EC9C281852C7292AC
:10CAC000A1E8BFA24B661AA8708B4BC2A3516CC7DA
:10CAD00019E892D1240699D685350EF470A06A1013
:10CAE00016C1A419086C371E4C774827B5BCB03462
:10CAF000B30C1C394AAAD84E4FCA9C5BF36F2E6800
:10CB0000EE828F746F63A5781478C8840802C78C8E
:10CB1000FAFFBE90EB6C50A4F7A3F9BEF27871C691
:08CB20001000002000000000DD
:08CB280018B7FF7F01000000B7
:10CB3000D6BE898E030000000090D00300000000E4
:10CB400000000000000000000000000000000000E5
:10CB500000000000000000000000000000000000D5
:10CB600000000000000000000000000000000000C5
:10CB700000000000000000000000000000000000B5
:10CB800000000000000000000000000000000000A5
:10CB900000000000000000000000000025820700E7
:04CBA0000182070007
:020000020000FC
:020000041000EA
:041014000080070051
:04101800007007005D
:040000037000C58143
:00000001FF
