Archive member included to satisfy reference by file (symbol)

external/rtt/librtt_nrf52840_xxAA.a(SEGGER_RTT.c.obj)
                              examples/experimental_dimming/dimming_client/CMakeFiles/light_switch_dimming_client_nrf52840_xxAA_s140_6.1.1.dir/__/__/__/mesh/core/src/log.c.obj (SEGGER_RTT_Write)
external/rtt/librtt_nrf52840_xxAA.a(SEGGER_RTT_printf.c.obj)
                              examples/experimental_dimming/dimming_client/CMakeFiles/light_switch_dimming_client_nrf52840_xxAA_s140_6.1.1.dir/__/__/__/mesh/core/src/log.c.obj (SEGGER_RTT_vprintf)
external/micro-ecc/libuECC_nrf52840_xxAA.a(uECC.c.obj)
                              examples/experimental_dimming/dimming_client/CMakeFiles/light_switch_dimming_client_nrf52840_xxAA_s140_6.1.1.dir/__/__/__/mesh/prov/src/prov_utils.c.obj (uECC_secp256r1)
c:/mesh/arm_gcc/bin/../lib/gcc/arm-none-eabi/7.3.1/thumb/v7e-m/fpv4-sp/hard\libgcc.a(_aeabi_ldivmod.o)
                              examples/experimental_dimming/dimming_client/CMakeFiles/light_switch_dimming_client_nrf52840_xxAA_s140_6.1.1.dir/__/__/common/src/rtt_input.c.obj (__aeabi_ldivmod)
c:/mesh/arm_gcc/bin/../lib/gcc/arm-none-eabi/7.3.1/thumb/v7e-m/fpv4-sp/hard\libgcc.a(_aeabi_uldivmod.o)
                              examples/experimental_dimming/dimming_client/CMakeFiles/light_switch_dimming_client_nrf52840_xxAA_s140_6.1.1.dir/__/__/common/src/rtt_input.c.obj (__aeabi_uldivmod)
c:/mesh/arm_gcc/bin/../lib/gcc/arm-none-eabi/7.3.1/thumb/v7e-m/fpv4-sp/hard\libgcc.a(_udivmoddi4.o)
                              c:/mesh/arm_gcc/bin/../lib/gcc/arm-none-eabi/7.3.1/thumb/v7e-m/fpv4-sp/hard\libgcc.a(_aeabi_ldivmod.o) (__udivmoddi4)
c:/mesh/arm_gcc/bin/../lib/gcc/arm-none-eabi/7.3.1/thumb/v7e-m/fpv4-sp/hard\libgcc.a(_dvmd_tls.o)
                              c:/mesh/arm_gcc/bin/../lib/gcc/arm-none-eabi/7.3.1/thumb/v7e-m/fpv4-sp/hard\libgcc.a(_aeabi_ldivmod.o) (__aeabi_ldiv0)
c:/mesh/arm_gcc/bin/../lib/gcc/arm-none-eabi/7.3.1/../../../../arm-none-eabi/lib/thumb/v7e-m/fpv4-sp/hard\libg_nano.a(lib_a-calloc.o)
                              examples/experimental_dimming/dimming_client/CMakeFiles/light_switch_dimming_client_nrf52840_xxAA_s140_6.1.1.dir/__/__/__/mesh/core/src/mesh_mem_stdlib.c.obj (calloc)
c:/mesh/arm_gcc/bin/../lib/gcc/arm-none-eabi/7.3.1/../../../../arm-none-eabi/lib/thumb/v7e-m/fpv4-sp/hard\libg_nano.a(lib_a-exit.o)
                              c:/mesh/arm_gcc/bin/../lib/gcc/arm-none-eabi/7.3.1/../../../../arm-none-eabi/lib/thumb/v7e-m/fpv4-sp/hard/crt0.o (exit)
c:/mesh/arm_gcc/bin/../lib/gcc/arm-none-eabi/7.3.1/../../../../arm-none-eabi/lib/thumb/v7e-m/fpv4-sp/hard\libg_nano.a(lib_a-impure.o)
                              c:/mesh/arm_gcc/bin/../lib/gcc/arm-none-eabi/7.3.1/../../../../arm-none-eabi/lib/thumb/v7e-m/fpv4-sp/hard\libg_nano.a(lib_a-exit.o) (_global_impure_ptr)
c:/mesh/arm_gcc/bin/../lib/gcc/arm-none-eabi/7.3.1/../../../../arm-none-eabi/lib/thumb/v7e-m/fpv4-sp/hard\libg_nano.a(lib_a-init.o)
                              c:/mesh/arm_gcc/bin/../lib/gcc/arm-none-eabi/7.3.1/../../../../arm-none-eabi/lib/thumb/v7e-m/fpv4-sp/hard/crt0.o (__libc_init_array)
c:/mesh/arm_gcc/bin/../lib/gcc/arm-none-eabi/7.3.1/../../../../arm-none-eabi/lib/thumb/v7e-m/fpv4-sp/hard\libg_nano.a(lib_a-malloc.o)
                              examples/experimental_dimming/dimming_client/CMakeFiles/light_switch_dimming_client_nrf52840_xxAA_s140_6.1.1.dir/__/__/__/mesh/core/src/mesh_mem_stdlib.c.obj (malloc)
c:/mesh/arm_gcc/bin/../lib/gcc/arm-none-eabi/7.3.1/../../../../arm-none-eabi/lib/thumb/v7e-m/fpv4-sp/hard\libg_nano.a(lib_a-memcmp.o)
                              examples/experimental_dimming/dimming_client/CMakeFiles/light_switch_dimming_client_nrf52840_xxAA_s140_6.1.1.dir/C_/mesh/deps/nRF5_SDK_15.3.0_59ac345/components/ble/common/ble_advdata.c.obj (memcmp)
c:/mesh/arm_gcc/bin/../lib/gcc/arm-none-eabi/7.3.1/../../../../arm-none-eabi/lib/thumb/v7e-m/fpv4-sp/hard\libg_nano.a(lib_a-memcpy-stub.o)
                              examples/experimental_dimming/dimming_client/CMakeFiles/light_switch_dimming_client_nrf52840_xxAA_s140_6.1.1.dir/C_/mesh/deps/nRF5_SDK_15.3.0_59ac345/components/ble/common/ble_advdata.c.obj (memcpy)
c:/mesh/arm_gcc/bin/../lib/gcc/arm-none-eabi/7.3.1/../../../../arm-none-eabi/lib/thumb/v7e-m/fpv4-sp/hard\libg_nano.a(lib_a-memset.o)
                              c:/mesh/arm_gcc/bin/../lib/gcc/arm-none-eabi/7.3.1/../../../../arm-none-eabi/lib/thumb/v7e-m/fpv4-sp/hard/crt0.o (memset)
c:/mesh/arm_gcc/bin/../lib/gcc/arm-none-eabi/7.3.1/../../../../arm-none-eabi/lib/thumb/v7e-m/fpv4-sp/hard\libg_nano.a(lib_a-nano-callocr.o)
                              c:/mesh/arm_gcc/bin/../lib/gcc/arm-none-eabi/7.3.1/../../../../arm-none-eabi/lib/thumb/v7e-m/fpv4-sp/hard\libg_nano.a(lib_a-calloc.o) (_calloc_r)
c:/mesh/arm_gcc/bin/../lib/gcc/arm-none-eabi/7.3.1/../../../../arm-none-eabi/lib/thumb/v7e-m/fpv4-sp/hard\libg_nano.a(lib_a-nano-freer.o)
                              c:/mesh/arm_gcc/bin/../lib/gcc/arm-none-eabi/7.3.1/../../../../arm-none-eabi/lib/thumb/v7e-m/fpv4-sp/hard\libg_nano.a(lib_a-malloc.o) (_free_r)
c:/mesh/arm_gcc/bin/../lib/gcc/arm-none-eabi/7.3.1/../../../../arm-none-eabi/lib/thumb/v7e-m/fpv4-sp/hard\libg_nano.a(lib_a-nano-mallocr.o)
                              c:/mesh/arm_gcc/bin/../lib/gcc/arm-none-eabi/7.3.1/../../../../arm-none-eabi/lib/thumb/v7e-m/fpv4-sp/hard\libg_nano.a(lib_a-malloc.o) (_malloc_r)
c:/mesh/arm_gcc/bin/../lib/gcc/arm-none-eabi/7.3.1/../../../../arm-none-eabi/lib/thumb/v7e-m/fpv4-sp/hard\libg_nano.a(lib_a-sbrkr.o)
                              c:/mesh/arm_gcc/bin/../lib/gcc/arm-none-eabi/7.3.1/../../../../arm-none-eabi/lib/thumb/v7e-m/fpv4-sp/hard\libg_nano.a(lib_a-nano-mallocr.o) (_sbrk_r)
c:/mesh/arm_gcc/bin/../lib/gcc/arm-none-eabi/7.3.1/../../../../arm-none-eabi/lib/thumb/v7e-m/fpv4-sp/hard\libg_nano.a(lib_a-strcpy.o)
                              external/rtt/librtt_nrf52840_xxAA.a(SEGGER_RTT.c.obj) (strcpy)
c:/mesh/arm_gcc/bin/../lib/gcc/arm-none-eabi/7.3.1/../../../../arm-none-eabi/lib/thumb/v7e-m/fpv4-sp/hard\libg_nano.a(lib_a-strlen.o)
                              examples/experimental_dimming/dimming_client/CMakeFiles/light_switch_dimming_client_nrf52840_xxAA_s140_6.1.1.dir/__/__/common/src/ble_softdevice_support.c.obj (strlen)
c:/mesh/arm_gcc/bin/../lib/gcc/arm-none-eabi/7.3.1/../../../../arm-none-eabi/lib/thumb/v7e-m/fpv4-sp/hard\libg_nano.a(lib_a-strrchr.o)
                              examples/experimental_dimming/dimming_client/CMakeFiles/light_switch_dimming_client_nrf52840_xxAA_s140_6.1.1.dir/src/main.c.obj (strrchr)
c:/mesh/arm_gcc/bin/../lib/gcc/arm-none-eabi/7.3.1/../../../../arm-none-eabi/lib/thumb/v7e-m/fpv4-sp/hard\libg_nano.a(lib_a-mlock.o)
                              c:/mesh/arm_gcc/bin/../lib/gcc/arm-none-eabi/7.3.1/../../../../arm-none-eabi/lib/thumb/v7e-m/fpv4-sp/hard\libg_nano.a(lib_a-nano-freer.o) (__malloc_lock)
c:/mesh/arm_gcc/bin/../lib/gcc/arm-none-eabi/7.3.1/../../../../arm-none-eabi/lib/thumb/v7e-m/fpv4-sp/hard\libg_nano.a(lib_a-reent.o)
                              c:/mesh/arm_gcc/bin/../lib/gcc/arm-none-eabi/7.3.1/../../../../arm-none-eabi/lib/thumb/v7e-m/fpv4-sp/hard\libg_nano.a(lib_a-sbrkr.o) (errno)
c:/mesh/arm_gcc/bin/../lib/gcc/arm-none-eabi/7.3.1/../../../../arm-none-eabi/lib/thumb/v7e-m/fpv4-sp/hard\libg_nano.a(lib_a-strchr.o)
                              c:/mesh/arm_gcc/bin/../lib/gcc/arm-none-eabi/7.3.1/../../../../arm-none-eabi/lib/thumb/v7e-m/fpv4-sp/hard\libg_nano.a(lib_a-strrchr.o) (strchr)
c:/mesh/arm_gcc/bin/../lib/gcc/arm-none-eabi/7.3.1/../../../../arm-none-eabi/lib/thumb/v7e-m/fpv4-sp/hard\libnosys.a(sbrk.o)
                              c:/mesh/arm_gcc/bin/../lib/gcc/arm-none-eabi/7.3.1/../../../../arm-none-eabi/lib/thumb/v7e-m/fpv4-sp/hard\libg_nano.a(lib_a-sbrkr.o) (_sbrk)
c:/mesh/arm_gcc/bin/../lib/gcc/arm-none-eabi/7.3.1/../../../../arm-none-eabi/lib/thumb/v7e-m/fpv4-sp/hard\libnosys.a(_exit.o)
                              c:/mesh/arm_gcc/bin/../lib/gcc/arm-none-eabi/7.3.1/../../../../arm-none-eabi/lib/thumb/v7e-m/fpv4-sp/hard\libg_nano.a(lib_a-exit.o) (_exit)

Allocating common symbols
Common symbol       size              file

nrf_nvic_state      0xc               examples/experimental_dimming/dimming_client/CMakeFiles/light_switch_dimming_client_nrf52840_xxAA_s140_6.1.1.dir/C_/mesh/deps/nRF5_SDK_15.3.0_59ac345/components/libraries/util/app_util_platform.c.obj
m_packet            0x24              examples/experimental_dimming/dimming_client/CMakeFiles/light_switch_dimming_client_nrf52840_xxAA_s140_6.1.1.dir/__/__/__/mesh/core/src/core_tx.c.obj
errno               0x4               c:/mesh/arm_gcc/bin/../lib/gcc/arm-none-eabi/7.3.1/../../../../arm-none-eabi/lib/thumb/v7e-m/fpv4-sp/hard\libg_nano.a(lib_a-reent.o)
_SEGGER_RTT         0x78              external/rtt/librtt_nrf52840_xxAA.a(SEGGER_RTT.c.obj)

Discarded input sections

 .text          0x00000000        0x0 c:/mesh/arm_gcc/bin/../lib/gcc/arm-none-eabi/7.3.1/thumb/v7e-m/fpv4-sp/hard/crti.o
 .data          0x00000000        0x0 c:/mesh/arm_gcc/bin/../lib/gcc/arm-none-eabi/7.3.1/thumb/v7e-m/fpv4-sp/hard/crti.o
 .bss           0x00000000        0x0 c:/mesh/arm_gcc/bin/../lib/gcc/arm-none-eabi/7.3.1/thumb/v7e-m/fpv4-sp/hard/crti.o
 .data          0x00000000        0x4 c:/mesh/arm_gcc/bin/../lib/gcc/arm-none-eabi/7.3.1/thumb/v7e-m/fpv4-sp/hard/crtbegin.o
 .data          0x00000000        0x0 c:/mesh/arm_gcc/bin/../lib/gcc/arm-none-eabi/7.3.1/../../../../arm-none-eabi/lib/thumb/v7e-m/fpv4-sp/hard/crt0.o
 .bss           0x00000000        0x0 c:/mesh/arm_gcc/bin/../lib/gcc/arm-none-eabi/7.3.1/../../../../arm-none-eabi/lib/thumb/v7e-m/fpv4-sp/hard/crt0.o
 .ARM.extab     0x00000000        0x0 c:/mesh/arm_gcc/bin/../lib/gcc/arm-none-eabi/7.3.1/../../../../arm-none-eabi/lib/thumb/v7e-m/fpv4-sp/hard/crt0.o
 .text          0x00000000        0x0 examples/experimental_dimming/dimming_client/CMakeFiles/light_switch_dimming_client_nrf52840_xxAA_s140_6.1.1.dir/src/main.c.obj
 .data          0x00000000        0x0 examples/experimental_dimming/dimming_client/CMakeFiles/light_switch_dimming_client_nrf52840_xxAA_s140_6.1.1.dir/src/main.c.obj
 .bss           0x00000000        0x0 examples/experimental_dimming/dimming_client/CMakeFiles/light_switch_dimming_client_nrf52840_xxAA_s140_6.1.1.dir/src/main.c.obj
 .text          0x00000000        0x0 examples/experimental_dimming/dimming_client/CMakeFiles/light_switch_dimming_client_nrf52840_xxAA_s140_6.1.1.dir/__/__/__/mesh/stack/src/mesh_stack.c.obj
 .data          0x00000000        0x0 examples/experimental_dimming/dimming_client/CMakeFiles/light_switch_dimming_client_nrf52840_xxAA_s140_6.1.1.dir/__/__/__/mesh/stack/src/mesh_stack.c.obj
 .bss           0x00000000        0x0 examples/experimental_dimming/dimming_client/CMakeFiles/light_switch_dimming_client_nrf52840_xxAA_s140_6.1.1.dir/__/__/__/mesh/stack/src/mesh_stack.c.obj
 .text.mesh_stack_persistence_flash_usage
                0x00000000       0x36 examples/experimental_dimming/dimming_client/CMakeFiles/light_switch_dimming_client_nrf52840_xxAA_s140_6.1.1.dir/__/__/__/mesh/stack/src/mesh_stack.c.obj
 .text.mesh_stack_health_server_get
                0x00000000        0x8 examples/experimental_dimming/dimming_client/CMakeFiles/light_switch_dimming_client_nrf52840_xxAA_s140_6.1.1.dir/__/__/__/mesh/stack/src/mesh_stack.c.obj
 .text          0x00000000        0x0 examples/experimental_dimming/dimming_client/CMakeFiles/light_switch_dimming_client_nrf52840_xxAA_s140_6.1.1.dir/__/__/common/src/mesh_provisionee.c.obj
Memory Configuration

Name             Origin             Length             Attributes
FLASH            0x00026000         0x000d1000         xr
RAM              0x20002da0         0x0003cf60         xrw
*default*        0x00000000         0xffffffff

Linker script and memory map


.text           0x00026000    0x198d8
 *(.isr_vector)
 .isr_vector    0x00026000      0x200 examples/experimental_dimming/dimming_client/CMakeFiles/light_switch_dimming_client_nrf52840_xxAA_s140_6.1.1.dir/C_/mesh/deps/nRF5_SDK_15.3.0_59ac345/modules/nrfx/mdk/gcc_startup_nrf52840.S.obj
                0x00026000                __isr_vector
 *(.text*)
 .text          0x00026200       0x40 c:/mesh/arm_gcc/bin/../lib/gcc/arm-none-eabi/7.3.1/thumb/v7e-m/fpv4-sp/hard/crtbegin.o
 .text          0x00026240       0x74 c:/mesh/arm_gcc/bin/../lib/gcc/arm-none-eabi/7.3.1/../../../../arm-none-eabi/lib/thumb/v7e-m/fpv4-sp/hard/crt0.o
                0x00026240                _start
                0x00026240                _mainCRTStartup
 .text.sd_app_evt_wait
                0x000262b4        0x4 examples/experimental_dimming/dimming_client/CMakeFiles/light_switch_dimming_client_nrf52840_xxAA_s140_6.1.1.dir/src/main.c.obj
 .text.app_generic_level_client_status_cb
                0x000262b8       0xd8 examples/experimental_dimming/dimming_client/CMakeFiles/light_switch_dimming_client_nrf52840_xxAA_s140_6.1.1.dir/src/main.c.obj
 .text.app_gen_level_client_transaction_status_cb
                0x00026390      0x11c examples/experimental_dimming/dimming_client/CMakeFiles/light_switch_dimming_client_nrf52840_xxAA_s140_6.1.1.dir/src/main.c.obj
 .text.button_event_handler
                0x000264ac      0x400 examples/experimental_dimming/dimming_client/CMakeFiles/light_switch_dimming_client_nrf52840_xxAA_s140_6.1.1.dir/src/main.c.obj
 .text.rtt_input_handler
                0x000268ac        0xc examples/experimental_dimming/dimming_client/CMakeFiles/light_switch_dimming_client_nrf52840_xxAA_s140_6.1.1.dir/src/main.c.obj
 .text.models_init_cb
                0x000268b8       0xc0 examples/experimental_dimming/dimming_client/CMakeFiles/light_switch_dimming_client_nrf52840_xxAA_s140_6.1.1.dir/src/main.c.obj
 .text.config_server_evt_cb
                0x00026978       0x80 examples/experimental_dimming/dimming_client/CMakeFiles/light_switch_dimming_client_nrf52840_xxAA_s140_6.1.1.dir/src/main.c.obj
 .text.device_identification_start_cb
                0x000269f8       0x22 examples/experimental_dimming/dimming_client/CMakeFiles/light_switch_dimming_client_nrf52840_xxAA_s140_6.1.1.dir/src/main.c.obj
 .text.provisioning_aborted_cb
                0x00026a1a        0x4 examples/experimental_dimming/dimming_client/CMakeFiles/light_switch_dimming_client_nrf52840_xxAA_s140_6.1.1.dir/src/main.c.obj
 *fill*         0x00026a1e        0x2 
 .text.provisioning_complete_cb
                0x00026a20       0xdc examples/experimental_dimming/dimming_client/CMakeFiles/light_switch_dimming_client_nrf52840_xxAA_s140_6.1.1.dir/src/main.c.obj
 .text.app_gen_level_client_publish_interval_cb
                0x00026afc       0x64 examples/experimental_dimming/dimming_client/CMakeFiles/light_switch_dimming_client_nrf52840_xxAA_s140_6.1.1.dir/src/main.c.obj
 .text.startup.main
                0x00026b60      0x15c examples/experimental_dimming/dimming_client/CMakeFiles/light_switch_dimming_client_nrf52840_xxAA_s140_6.1.1.dir/src/main.c.obj
                0x00026b60                main
 .text.mesh_evt_handler
                0x00026cbc       0x1c examples/experimental_dimming/dimming_client/CMakeFiles/light_switch_dimming_client_nrf52840_xxAA_s140_6.1.1.dir/__/__/__/mesh/stack/src/mesh_stack.c.obj
 .text.mesh_stack_provisioning_data_store
                0x00026cd8       0xe4 examples/experimental_dimming/dimming_client/CMakeFiles/light_switch_dimming_client_nrf52840_xxAA_s140_6.1.1.dir/__/__/__/mesh/stack/src/mesh_stack.c.obj
                0x00026cd8                mesh_stack_provisioning_data_store
 .text.mesh_stack_config_clear
                0x00026dbc       0x16 examples/experimental_dimming/dimming_client/CMakeFiles/light_switch_dimming_client_nrf52840_xxAA_s140_6.1.1.dir/__/__/__/mesh/stack/src/mesh_stack.c.obj
                0x00026dbc                mesh_stack_config_clear
 .text.mesh_stack_is_device_provisioned
                0x00026dd2       0x18 examples/experimental_dimming/dimming_client/CMakeFiles/light_switch_dimming_client_nrf52840_xxAA_s140_6.1.1.dir/__/__/__/mesh/stack/src/mesh_stack.c.obj
                0x00026dd2                mesh_stack_is_device_provisioned
 *fill*         0x00026dea        0x2 
 .text.mesh_stack_init
                0x00026dec       0x70 examples/experimental_dimming/dimming_client/CMakeFiles/light_switch_dimming_client_nrf52840_xxAA_s140_6.1.1.dir/__/__/__/mesh/stack/src/mesh_stack.c.obj
                0x00026dec                mesh_stack_init
 .text.mesh_stack_start
                0x00026e5c       0x1a examples/experimental_dimming/dimming_client/CMakeFiles/light_switch_dimming_client_nrf52840_xxAA_s140_6.1.1.dir/__/__/__/mesh/stack/src/mesh_stack.c.obj
                0x00026e5c                mesh_stack_start
 *fill*         0x00026e76        0x2 
 .text.mesh_stack_device_reset
                0x00026e78       0x20 examples/experimental_dimming/dimming_client/CMakeFiles/light_switch_dimming_client_nrf52840_xxAA_s140_6.1.1.dir/__/__/__/mesh/stack/src/mesh_stack.c.obj
                0x00026e78                mesh_stack_device_reset
 .text.sd_state_evt_handler
                0x00026e98       0xa8 examples/experimental_dimming/dimming_client/CMakeFiles/light_switch_dimming_client_nrf52840_xxAA_s140_6.1.1.dir/__/__/common/src/mesh_provisionee.c.obj
 .text.mesh_evt_handler
                0x00026f40       0x2c examples/experimental_dimming/dimming_client/CMakeFiles/light_switch_dimming_client_nrf52840_xxAA_s140_6.1.1.dir/__/__/common/src/mesh_provisionee.c.obj
 .text.provisionee_start
                0x00026f6c       0x30 examples/experimental_dimming/dimming_client/CMakeFiles/light_switch_dimming_client_nrf52840_xxAA_s140_6.1.1.dir/__/__/common/src/mesh_provisionee.c.obj
 .text.prov_evt_handler
                0x00026f9c       0xbc examples/experimental_dimming/dimming_client/CMakeFiles/light_switch_dimming_client_nrf52840_xxAA_s140_6.1.1.dir/__/__/common/src/mesh_provisionee.c.obj
 .text.mesh_provisionee_prov_start
                0x00027058       0x94 examples/experimental_dimming/dimming_client/CMakeFiles/light_switch_dimming_client_nrf52840_xxAA_s140_6.1.1.dir/__/__/common/src/mesh_provisionee.c.obj
                0x00027058                mesh_provisionee_prov_start
 .text.timeout_handler
                0x000270ec       0x1c examples/experimental_dimming/dimming_client/CMakeFiles/light_switch_dimming_client_nrf52840_xxAA_s140_6.1.1.dir/__/__/common/src/rtt_input.c.obj
                0x000270ec                timeout_handler
 .text.rtt_input_enable
                0x00027108       0x6c examples/experimental_dimming/dimming_client/CMakeFiles/light_switch_dimming_client_nrf52840_xxAA_s140_6.1.1.dir/__/__/common/src/rtt_input.c.obj
                0x00027108                rtt_input_enable
 .text.led_timeout_handler
                0x00027174       0x54 examples/experimental_dimming/dimming_client/CMakeFiles/light_switch_dimming_client_nrf52840_xxAA_s140_6.1.1.dir/__/__/common/src/simple_hal.c.obj
 .text.hal_led_mask_set
                0x000271c8       0x12 examples/experimental_dimming/dimming_client/CMakeFiles/light_switch_dimming_client_nrf52840_xxAA_s140_6.1.1.dir/__/__/common/src/simple_hal.c.obj
                0x000271c8                hal_led_mask_set
 *fill*         0x000271da        0x2 
 .text.hal_led_blink_ms
                0x000271dc       0x64 examples/experimental_dimming/dimming_client/CMakeFiles/light_switch_dimming_client_nrf52840_xxAA_s140_6.1.1.dir/__/__/common/src/simple_hal.c.obj
                0x000271dc                hal_led_blink_ms
 .text.hal_led_blink_stop
                0x00027240       0x20 examples/experimental_dimming/dimming_client/CMakeFiles/light_switch_dimming_client_nrf52840_xxAA_s140_6.1.1.dir/__/__/common/src/simple_hal.c.obj
                0x00027240                hal_led_blink_stop
 .text.hal_leds_init
                0x00027260       0x58 examples/experimental_dimming/dimming_client/CMakeFiles/light_switch_dimming_client_nrf52840_xxAA_s140_6.1.1.dir/__/__/common/src/simple_hal.c.obj
                0x00027260                hal_leds_init
 .text.hal_buttons_init
                0x000272b8       0x50 examples/experimental_dimming/dimming_client/CMakeFiles/light_switch_dimming_client_nrf52840_xxAA_s140_6.1.1.dir/__/__/common/src/simple_hal.c.obj
                0x000272b8                hal_buttons_init
 .text.GPIOTE_IRQHandler
                0x00027308       0x60 examples/experimental_dimming/dimming_client/CMakeFiles/light_switch_dimming_client_nrf52840_xxAA_s140_6.1.1.dir/__/__/common/src/simple_hal.c.obj
                0x00027308                GPIOTE_IRQHandler
 .text.mesh_app_uuid_print
                0x00027368      0x11c examples/experimental_dimming/dimming_client/CMakeFiles/light_switch_dimming_client_nrf52840_xxAA_s140_6.1.1.dir/__/__/common/src/mesh_app_utils.c.obj
                0x00027368                mesh_app_uuid_print
 .text.sd_ble_gap_adv_set_configure
                0x00027484        0x4 examples/experimental_dimming/dimming_client/CMakeFiles/light_switch_dimming_client_nrf52840_xxAA_s140_6.1.1.dir/__/__/common/src/mesh_adv.c.obj
 .text.sd_ble_gap_adv_start
                0x00027488        0x4 examples/experimental_dimming/dimming_client/CMakeFiles/light_switch_dimming_client_nrf52840_xxAA_s140_6.1.1.dir/__/__/common/src/mesh_adv.c.obj
 .text.sd_ble_gap_adv_stop
                0x0002748c        0x4 examples/experimental_dimming/dimming_client/CMakeFiles/light_switch_dimming_client_nrf52840_xxAA_s140_6.1.1.dir/__/__/common/src/mesh_adv.c.obj
 .text.mesh_adv_data_set
                0x00027490       0xdc examples/experimental_dimming/dimming_client/CMakeFiles/light_switch_dimming_client_nrf52840_xxAA_s140_6.1.1.dir/__/__/common/src/mesh_adv.c.obj
                0x00027490                mesh_adv_data_set
 .text.mesh_adv_params_set
                0x0002756c       0x28 examples/experimental_dimming/dimming_client/CMakeFiles/light_switch_dimming_client_nrf52840_xxAA_s140_6.1.1.dir/__/__/common/src/mesh_adv.c.obj
                0x0002756c                mesh_adv_params_set
 .text.mesh_adv_start
                0x00027594       0x20 examples/experimental_dimming/dimming_client/CMakeFiles/light_switch_dimming_client_nrf52840_xxAA_s140_6.1.1.dir/__/__/common/src/mesh_adv.c.obj
                0x00027594                mesh_adv_start
 .text.mesh_adv_stop
                0x000275b4       0x1c examples/experimental_dimming/dimming_client/CMakeFiles/light_switch_dimming_client_nrf52840_xxAA_s140_6.1.1.dir/__/__/common/src/mesh_adv.c.obj
                0x000275b4                mesh_adv_stop
 .text.sd_ble_gap_disconnect
                0x000275d0        0x4 examples/experimental_dimming/dimming_client/CMakeFiles/light_switch_dimming_client_nrf52840_xxAA_s140_6.1.1.dir/__/__/common/src/ble_softdevice_support.c.obj
 .text.sd_ble_gap_ppcp_set
                0x000275d4        0x4 examples/experimental_dimming/dimming_client/CMakeFiles/light_switch_dimming_client_nrf52840_xxAA_s140_6.1.1.dir/__/__/common/src/ble_softdevice_support.c.obj
 .text.sd_ble_gap_device_name_set
                0x000275d8        0x4 examples/experimental_dimming/dimming_client/CMakeFiles/light_switch_dimming_client_nrf52840_xxAA_s140_6.1.1.dir/__/__/common/src/ble_softdevice_support.c.obj
 .text.conn_params_error_handler
                0x000275dc        0x4 examples/experimental_dimming/dimming_client/CMakeFiles/light_switch_dimming_client_nrf52840_xxAA_s140_6.1.1.dir/__/__/common/src/ble_softdevice_support.c.obj
 .text.on_sd_evt
                0x000275e0        0x4 examples/experimental_dimming/dimming_client/CMakeFiles/light_switch_dimming_client_nrf52840_xxAA_s140_6.1.1.dir/__/__/common/src/ble_softdevice_support.c.obj
 .text.on_conn_params_evt
                0x000275e4       0x80 examples/experimental_dimming/dimming_client/CMakeFiles/light_switch_dimming_client_nrf52840_xxAA_s140_6.1.1.dir/__/__/common/src/ble_softdevice_support.c.obj
 .text.ble_stack_init
                0x00027664       0x32 examples/experimental_dimming/dimming_client/CMakeFiles/light_switch_dimming_client_nrf52840_xxAA_s140_6.1.1.dir/__/__/common/src/ble_softdevice_support.c.obj
                0x00027664                ble_stack_init
 *fill*         0x00027696        0x2 
 .text.gap_params_init
                0x00027698       0x50 examples/experimental_dimming/dimming_client/CMakeFiles/light_switch_dimming_client_nrf52840_xxAA_s140_6.1.1.dir/__/__/common/src/ble_softdevice_support.c.obj
                0x00027698                gap_params_init
 .text.conn_params_init
                0x000276e8       0x68 examples/experimental_dimming/dimming_client/CMakeFiles/light_switch_dimming_client_nrf52840_xxAA_s140_6.1.1.dir/__/__/common/src/ble_softdevice_support.c.obj
                0x000276e8                conn_params_init
 .text.app_util_critical_region_enter
                0x00027750       0x48 examples/experimental_dimming/dimming_client/CMakeFiles/light_switch_dimming_client_nrf52840_xxAA_s140_6.1.1.dir/C_/mesh/deps/nRF5_SDK_15.3.0_59ac345/components/libraries/util/app_util_platform.c.obj
                0x00027750                app_util_critical_region_enter
 .text.app_util_critical_region_exit
                0x00027798       0x2c examples/experimental_dimming/dimming_client/CMakeFiles/light_switch_dimming_client_nrf52840_xxAA_s140_6.1.1.dir/C_/mesh/deps/nRF5_SDK_15.3.0_59ac345/components/libraries/util/app_util_platform.c.obj
                0x00027798                app_util_critical_region_exit
 .text.sd_ble_gap_addr_get
                0x000277c4        0x4 examples/experimental_dimming/dimming_client/CMakeFiles/light_switch_dimming_client_nrf52840_xxAA_s140_6.1.1.dir/C_/mesh/deps/nRF5_SDK_15.3.0_59ac345/components/ble/common/ble_advdata.c.obj
 .text.sd_ble_gap_appearance_get
                0x000277c8        0x4 examples/experimental_dimming/dimming_client/CMakeFiles/light_switch_dimming_client_nrf52840_xxAA_s140_6.1.1.dir/C_/mesh/deps/nRF5_SDK_15.3.0_59ac345/components/ble/common/ble_advdata.c.obj
 .text.sd_ble_gap_device_name_get
                0x000277cc        0x4 examples/experimental_dimming/dimming_client/CMakeFiles/light_switch_dimming_client_nrf52840_xxAA_s140_6.1.1.dir/C_/mesh/deps/nRF5_SDK_15.3.0_59ac345/components/ble/common/ble_advdata.c.obj
 .text.sd_ble_uuid_encode
                0x000277d0        0x4 examples/experimental_dimming/dimming_client/CMakeFiles/light_switch_dimming_client_nrf52840_xxAA_s140_6.1.1.dir/C_/mesh/deps/nRF5_SDK_15.3.0_59ac345/components/ble/common/ble_advdata.c.obj
 .text.uuid_list_sized_encode
                0x000277d4       0xa4 examples/experimental_dimming/dimming_client/CMakeFiles/light_switch_dimming_client_nrf52840_xxAA_s140_6.1.1.dir/C_/mesh/deps/nRF5_SDK_15.3.0_59ac345/components/ble/common/ble_advdata.c.obj
 .text.uuid_list_encode
                0x00027878       0x34 examples/experimental_dimming/dimming_client/CMakeFiles/light_switch_dimming_client_nrf52840_xxAA_s140_6.1.1.dir/C_/mesh/deps/nRF5_SDK_15.3.0_59ac345/components/ble/common/ble_advdata.c.obj
 .text.ble_advdata_encode
                0x000278ac      0x392 examples/experimental_dimming/dimming_client/CMakeFiles/light_switch_dimming_client_nrf52840_xxAA_s140_6.1.1.dir/C_/mesh/deps/nRF5_SDK_15.3.0_59ac345/components/ble/common/ble_advdata.c.obj
                0x000278ac                ble_advdata_encode
 .text.nrf_section_iter_init
                0x00027c3e       0x12 examples/experimental_dimming/dimming_client/CMakeFiles/light_switch_dimming_client_nrf52840_xxAA_s140_6.1.1.dir/da3a6a21821fc8f19b737641d22f3037/libraries/experimental_section_vars/nrf_section_iter.c.obj
                0x00027c3e                nrf_section_iter_init
 .text.nrf_section_iter_next
                0x00027c50       0x18 examples/experimental_dimming/dimming_client/CMakeFiles/light_switch_dimming_client_nrf52840_xxAA_s140_6.1.1.dir/da3a6a21821fc8f19b737641d22f3037/libraries/experimental_section_vars/nrf_section_iter.c.obj
                0x00027c50                nrf_section_iter_next
 .text.sd_evt_get
                0x00027c68        0x4 examples/experimental_dimming/dimming_client/CMakeFiles/light_switch_dimming_client_nrf52840_xxAA_s140_6.1.1.dir/C_/mesh/deps/nRF5_SDK_15.3.0_59ac345/components/softdevice/common/nrf_sdh_soc.c.obj
 .text.nrf_sdh_soc_evts_poll
                0x00027c6c       0x3c examples/experimental_dimming/dimming_client/CMakeFiles/light_switch_dimming_client_nrf52840_xxAA_s140_6.1.1.dir/C_/mesh/deps/nRF5_SDK_15.3.0_59ac345/components/softdevice/common/nrf_sdh_soc.c.obj
 .text.sd_ble_enable
                0x00027ca8        0x4 examples/experimental_dimming/dimming_client/CMakeFiles/light_switch_dimming_client_nrf52840_xxAA_s140_6.1.1.dir/C_/mesh/deps/nRF5_SDK_15.3.0_59ac345/components/softdevice/common/nrf_sdh_ble.c.obj
 .text.sd_ble_cfg_set
                0x00027cac        0x4 examples/experimental_dimming/dimming_client/CMakeFiles/light_switch_dimming_client_nrf52840_xxAA_s140_6.1.1.dir/C_/mesh/deps/nRF5_SDK_15.3.0_59ac345/components/softdevice/common/nrf_sdh_ble.c.obj
 .text.sd_ble_evt_get
                0x00027cb0        0x4 examples/experimental_dimming/dimming_client/CMakeFiles/light_switch_dimming_client_nrf52840_xxAA_s140_6.1.1.dir/C_/mesh/deps/nRF5_SDK_15.3.0_59ac345/components/softdevice/common/nrf_sdh_ble.c.obj
 .text.nrf_sdh_ble_evts_poll
                0x00027cb4       0x50 examples/experimental_dimming/dimming_client/CMakeFiles/light_switch_dimming_client_nrf52840_xxAA_s140_6.1.1.dir/C_/mesh/deps/nRF5_SDK_15.3.0_59ac345/components/softdevice/common/nrf_sdh_ble.c.obj
 .text.nrf_sdh_ble_default_cfg_set
                0x00027d04       0xd4 examples/experimental_dimming/dimming_client/CMakeFiles/light_switch_dimming_client_nrf52840_xxAA_s140_6.1.1.dir/C_/mesh/deps/nRF5_SDK_15.3.0_59ac345/components/softdevice/common/nrf_sdh_ble.c.obj
                0x00027d04                nrf_sdh_ble_default_cfg_set
 .text.nrf_sdh_ble_enable
                0x00027dd8       0x14 examples/experimental_dimming/dimming_client/CMakeFiles/light_switch_dimming_client_nrf52840_xxAA_s140_6.1.1.dir/C_/mesh/deps/nRF5_SDK_15.3.0_59ac345/components/softdevice/common/nrf_sdh_ble.c.obj
                0x00027dd8                nrf_sdh_ble_enable
 .text.sd_softdevice_enable
                0x00027dec        0x4 examples/experimental_dimming/dimming_client/CMakeFiles/light_switch_dimming_client_nrf52840_xxAA_s140_6.1.1.dir/C_/mesh/deps/nRF5_SDK_15.3.0_59ac345/components/softdevice/common/nrf_sdh.c.obj
 .text.sd_softdevice_disable
                0x00027df0        0x4 examples/experimental_dimming/dimming_client/CMakeFiles/light_switch_dimming_client_nrf52840_xxAA_s140_6.1.1.dir/C_/mesh/deps/nRF5_SDK_15.3.0_59ac345/components/softdevice/common/nrf_sdh.c.obj
 .text.sdh_request_observer_notify
                0x00027df4       0x30 examples/experimental_dimming/dimming_client/CMakeFiles/light_switch_dimming_client_nrf52840_xxAA_s140_6.1.1.dir/C_/mesh/deps/nRF5_SDK_15.3.0_59ac345/components/softdevice/common/nrf_sdh.c.obj
 .text.sdh_state_observer_notify
                0x00027e24       0x28 examples/experimental_dimming/dimming_client/CMakeFiles/light_switch_dimming_client_nrf52840_xxAA_s140_6.1.1.dir/C_/mesh/deps/nRF5_SDK_15.3.0_59ac345/components/softdevice/common/nrf_sdh.c.obj
 .text.softdevice_evt_irq_disable
                0x00027e4c       0x24 examples/experimental_dimming/dimming_client/CMakeFiles/light_switch_dimming_client_nrf52840_xxAA_s140_6.1.1.dir/C_/mesh/deps/nRF5_SDK_15.3.0_59ac345/components/softdevice/common/nrf_sdh.c.obj
 .text.softdevices_evt_irq_enable
                0x00027e70       0x38 examples/experimental_dimming/dimming_client/CMakeFiles/light_switch_dimming_client_nrf52840_xxAA_s140_6.1.1.dir/C_/mesh/deps/nRF5_SDK_15.3.0_59ac345/components/softdevice/common/nrf_sdh.c.obj
 .text.nrf_sdh_enable_request
                0x00027ea8       0x78 examples/experimental_dimming/dimming_client/CMakeFiles/light_switch_dimming_client_nrf52840_xxAA_s140_6.1.1.dir/C_/mesh/deps/nRF5_SDK_15.3.0_59ac345/components/softdevice/common/nrf_sdh.c.obj
                0x00027ea8                nrf_sdh_enable_request
 .text.nrf_sdh_disable_request
                0x00027f20       0x60 examples/experimental_dimming/dimming_client/CMakeFiles/light_switch_dimming_client_nrf52840_xxAA_s140_6.1.1.dir/C_/mesh/deps/nRF5_SDK_15.3.0_59ac345/components/softdevice/common/nrf_sdh.c.obj
                0x00027f20                nrf_sdh_disable_request
 .text.nrf_sdh_evts_poll
                0x00027f80       0x28 examples/experimental_dimming/dimming_client/CMakeFiles/light_switch_dimming_client_nrf52840_xxAA_s140_6.1.1.dir/C_/mesh/deps/nRF5_SDK_15.3.0_59ac345/components/softdevice/common/nrf_sdh.c.obj
                0x00027f80                nrf_sdh_evts_poll
 .text.SWI2_EGU2_IRQHandler
                0x00027fa8        0x4 examples/experimental_dimming/dimming_client/CMakeFiles/light_switch_dimming_client_nrf52840_xxAA_s140_6.1.1.dir/C_/mesh/deps/nRF5_SDK_15.3.0_59ac345/components/softdevice/common/nrf_sdh.c.obj
                0x00027fa8                SWI2_EGU2_IRQHandler
 .text.sd_ble_gap_conn_param_update
                0x00027fac        0x4 examples/experimental_dimming/dimming_client/CMakeFiles/light_switch_dimming_client_nrf52840_xxAA_s140_6.1.1.dir/C_/mesh/deps/nRF5_SDK_15.3.0_59ac345/components/ble/common/ble_conn_params.c.obj
 .text.sd_ble_gap_disconnect
                0x00027fb0        0x4 examples/experimental_dimming/dimming_client/CMakeFiles/light_switch_dimming_client_nrf52840_xxAA_s140_6.1.1.dir/C_/mesh/deps/nRF5_SDK_15.3.0_59ac345/components/ble/common/ble_conn_params.c.obj
 .text.sd_ble_gap_ppcp_set
                0x00027fb4        0x4 examples/experimental_dimming/dimming_client/CMakeFiles/light_switch_dimming_client_nrf52840_xxAA_s140_6.1.1.dir/C_/mesh/deps/nRF5_SDK_15.3.0_59ac345/components/ble/common/ble_conn_params.c.obj
 .text.sd_ble_gap_ppcp_get
                0x00027fb8        0x4 examples/experimental_dimming/dimming_client/CMakeFiles/light_switch_dimming_client_nrf52840_xxAA_s140_6.1.1.dir/C_/mesh/deps/nRF5_SDK_15.3.0_59ac345/components/ble/common/ble_conn_params.c.obj
 .text.instance_get
                0x00027fbc       0x14 examples/experimental_dimming/dimming_client/CMakeFiles/light_switch_dimming_client_nrf52840_xxAA_s140_6.1.1.dir/C_/mesh/deps/nRF5_SDK_15.3.0_59ac345/components/ble/common/ble_conn_params.c.obj
 .text.send_error_evt
                0x00027fd0       0x10 examples/experimental_dimming/dimming_client/CMakeFiles/light_switch_dimming_client_nrf52840_xxAA_s140_6.1.1.dir/C_/mesh/deps/nRF5_SDK_15.3.0_59ac345/components/ble/common/ble_conn_params.c.obj
 .text.update_timeout_handler
                0x00027fe0       0x6c examples/experimental_dimming/dimming_client/CMakeFiles/light_switch_dimming_client_nrf52840_xxAA_s140_6.1.1.dir/C_/mesh/deps/nRF5_SDK_15.3.0_59ac345/components/ble/common/ble_conn_params.c.obj
 .text.conn_params_negotiation
                0x0002804c       0x48 examples/experimental_dimming/dimming_client/CMakeFiles/light_switch_dimming_client_nrf52840_xxAA_s140_6.1.1.dir/C_/mesh/deps/nRF5_SDK_15.3.0_59ac345/components/ble/common/ble_conn_params.c.obj
 .text.is_conn_params_ok.constprop.3
                0x00028094       0x3a examples/experimental_dimming/dimming_client/CMakeFiles/light_switch_dimming_client_nrf52840_xxAA_s140_6.1.1.dir/C_/mesh/deps/nRF5_SDK_15.3.0_59ac345/components/ble/common/ble_conn_params.c.obj
 *fill*         0x000280ce        0x2 
 .text.ble_evt_handler
                0x000280d0       0xe0 examples/experimental_dimming/dimming_client/CMakeFiles/light_switch_dimming_client_nrf52840_xxAA_s140_6.1.1.dir/C_/mesh/deps/nRF5_SDK_15.3.0_59ac345/components/ble/common/ble_conn_params.c.obj
 .text.ble_conn_params_init
                0x000281b0       0x74 examples/experimental_dimming/dimming_client/CMakeFiles/light_switch_dimming_client_nrf52840_xxAA_s140_6.1.1.dir/C_/mesh/deps/nRF5_SDK_15.3.0_59ac345/components/ble/common/ble_conn_params.c.obj
                0x000281b0                ble_conn_params_init
 .text.ble_srv_is_notification_enabled
                0x00028224        0x8 examples/experimental_dimming/dimming_client/CMakeFiles/light_switch_dimming_client_nrf52840_xxAA_s140_6.1.1.dir/C_/mesh/deps/nRF5_SDK_15.3.0_59ac345/components/ble/common/ble_srv_common.c.obj
                0x00028224                ble_srv_is_notification_enabled
 .text._weak_handler
                0x0002822c        0x4 examples/experimental_dimming/dimming_client/CMakeFiles/light_switch_dimming_client_nrf52840_xxAA_s140_6.1.1.dir/__/__/nrf_mesh_weak.c.obj
                0x0002822c                nrf_mesh_dfu_init
                0x0002822c                nrf_mesh_dfu_jump_to_bootloader
                0x0002822c                nrf_mesh_dfu_rx
                0x0002822c                prov_provisioner_provision
                0x0002822c                nrf_mesh_dfu_bank_info_get
                0x0002822c                prov_provisioner_oob_pubkey
                0x0002822c                nrf_mesh_dfu_request
                0x0002822c                nrf_mesh_dfu_bank_flash
                0x0002822c                nrf_mesh_dfu_enable
                0x0002822c                _weak_handler
                0x0002822c                nrf_mesh_dfu_relay
                0x0002822c                nrf_mesh_dfu_abort
                0x0002822c                mesh_flash_op_execute
                0x0002822c                prov_provisionee_init
                0x0002822c                nrf_mesh_dfu_state_get
                0x0002822c                prov_provisioner_shared_secret
                0x0002822c                prov_provisioner_auth_data
                0x0002822c                prov_provisioner_oob_use
 .text.app_error_fault_handler
                0x00028230      0x200 examples/experimental_dimming/dimming_client/CMakeFiles/light_switch_dimming_client_nrf52840_xxAA_s140_6.1.1.dir/__/__/common/src/app_error_weak.c.obj
                0x00028230                app_error_fault_handler
 .text.mesh_assertion_handler
                0x00028430       0x24 examples/experimental_dimming/dimming_client/CMakeFiles/light_switch_dimming_client_nrf52840_xxAA_s140_6.1.1.dir/__/__/common/src/assertion_handler_weak.c.obj
                0x00028430                mesh_assertion_handler
 .text.nrf_mesh_configure_device_uuid_set
                0x00028454       0x10 examples/experimental_dimming/dimming_client/CMakeFiles/light_switch_dimming_client_nrf52840_xxAA_s140_6.1.1.dir/__/__/__/mesh/core/src/nrf_mesh_configure.c.obj
                0x00028454                nrf_mesh_configure_device_uuid_set
 .text.nrf_mesh_configure_device_uuid_reset
                0x00028464       0x3c examples/experimental_dimming/dimming_client/CMakeFiles/light_switch_dimming_client_nrf52840_xxAA_s140_6.1.1.dir/__/__/__/mesh/core/src/nrf_mesh_configure.c.obj
                0x00028464                nrf_mesh_configure_device_uuid_reset
 .text.nrf_mesh_configure_device_uuid_get
                0x000284a0        0x8 examples/experimental_dimming/dimming_client/CMakeFiles/light_switch_dimming_client_nrf52840_xxAA_s140_6.1.1.dir/__/__/__/mesh/core/src/nrf_mesh_configure.c.obj
                0x000284a0                nrf_mesh_configure_device_uuid_get
 .text.msg_cache_init
                0x000284a8       0x24 examples/experimental_dimming/dimming_client/CMakeFiles/light_switch_dimming_client_nrf52840_xxAA_s140_6.1.1.dir/__/__/__/mesh/core/src/msg_cache.c.obj
                0x000284a8                msg_cache_init
 .text.msg_cache_entry_exists
                0x000284cc       0x3c examples/experimental_dimming/dimming_client/CMakeFiles/light_switch_dimming_client_nrf52840_xxAA_s140_6.1.1.dir/__/__/__/mesh/core/src/msg_cache.c.obj
                0x000284cc                msg_cache_entry_exists
 .text.msg_cache_entry_add
                0x00028508       0x2c examples/experimental_dimming/dimming_client/CMakeFiles/light_switch_dimming_client_nrf52840_xxAA_s140_6.1.1.dir/__/__/__/mesh/core/src/msg_cache.c.obj
                0x00028508                msg_cache_entry_add
 .text.seqauth_sequence_number_get
                0x00028534       0x12 examples/experimental_dimming/dimming_client/CMakeFiles/light_switch_dimming_client_nrf52840_xxAA_s140_6.1.1.dir/__/__/__/mesh/core/src/transport.c.obj
 *fill*         0x00028546        0x2 
 .text.control_packet_callback_get
                0x00028548       0x40 examples/experimental_dimming/dimming_client/CMakeFiles/light_switch_dimming_client_nrf52840_xxAA_s140_6.1.1.dir/__/__/__/mesh/core/src/transport.c.obj
 .text.tx_complete
                0x00028588       0x2c examples/experimental_dimming/dimming_client/CMakeFiles/light_switch_dimming_client_nrf52840_xxAA_s140_6.1.1.dir/__/__/__/mesh/core/src/transport.c.obj
 .text.seqauth_get
                0x000285b4       0x24 examples/experimental_dimming/dimming_client/CMakeFiles/light_switch_dimming_client_nrf52840_xxAA_s140_6.1.1.dir/__/__/__/mesh/core/src/transport.c.obj
 .text.block_ack_full
                0x000285d8       0x1a examples/experimental_dimming/dimming_client/CMakeFiles/light_switch_dimming_client_nrf52840_xxAA_s140_6.1.1.dir/__/__/__/mesh/core/src/transport.c.obj
 *fill*         0x000285f2        0x2 
 .text.sar_rx_session_mark_as_handled
                0x000285f4       0x5c examples/experimental_dimming/dimming_client/CMakeFiles/light_switch_dimming_client_nrf52840_xxAA_s140_6.1.1.dir/__/__/__/mesh/core/src/transport.c.obj
 .text.upper_trs_packet_encrypt
                0x00028650       0x86 examples/experimental_dimming/dimming_client/CMakeFiles/light_switch_dimming_client_nrf52840_xxAA_s140_6.1.1.dir/__/__/__/mesh/core/src/transport.c.obj
 *fill*         0x000286d6        0x2 
 .text.sar_ctx_alloc
                0x000286d8       0xbc examples/experimental_dimming/dimming_client/CMakeFiles/light_switch_dimming_client_nrf52840_xxAA_s140_6.1.1.dir/__/__/__/mesh/core/src/transport.c.obj
 .text.sar_ctx_free
                0x00028794       0x3a examples/experimental_dimming/dimming_client/CMakeFiles/light_switch_dimming_client_nrf52840_xxAA_s140_6.1.1.dir/__/__/__/mesh/core/src/transport.c.obj
 .text.sar_ctx_tx_complete
                0x000287ce       0x2e examples/experimental_dimming/dimming_client/CMakeFiles/light_switch_dimming_client_nrf52840_xxAA_s140_6.1.1.dir/__/__/__/mesh/core/src/transport.c.obj
 .text.transport_metadata_validate
                0x000287fc       0x54 examples/experimental_dimming/dimming_client/CMakeFiles/light_switch_dimming_client_nrf52840_xxAA_s140_6.1.1.dir/__/__/__/mesh/core/src/transport.c.obj
 .text.test_transport_decrypt
                0x00028850       0x88 examples/experimental_dimming/dimming_client/CMakeFiles/light_switch_dimming_client_nrf52840_xxAA_s140_6.1.1.dir/__/__/__/mesh/core/src/transport.c.obj
 .text.replay_list_add
                0x000288d8       0x44 examples/experimental_dimming/dimming_client/CMakeFiles/light_switch_dimming_client_nrf52840_xxAA_s140_6.1.1.dir/__/__/__/mesh/core/src/transport.c.obj
 .text.upper_transport_access_packet_in
                0x0002891c      0x1a0 examples/experimental_dimming/dimming_client/CMakeFiles/light_switch_dimming_client_nrf52840_xxAA_s140_6.1.1.dir/__/__/__/mesh/core/src/transport.c.obj
 .text.trs_packet_header_build
                0x00028abc       0xa4 examples/experimental_dimming/dimming_client/CMakeFiles/light_switch_dimming_client_nrf52840_xxAA_s140_6.1.1.dir/__/__/__/mesh/core/src/transport.c.obj
 .text.unsegmented_packet_tx
                0x00028b60       0x82 examples/experimental_dimming/dimming_client/CMakeFiles/light_switch_dimming_client_nrf52840_xxAA_s140_6.1.1.dir/__/__/__/mesh/core/src/transport.c.obj
 *fill*         0x00028be2        0x2 
 .text.tx_retry_timer_reset
                0x00028be4       0x3c examples/experimental_dimming/dimming_client/CMakeFiles/light_switch_dimming_client_nrf52840_xxAA_s140_6.1.1.dir/__/__/__/mesh/core/src/transport.c.obj
 .text.sar_ctx_cancel
                0x00028c20       0xb0 examples/experimental_dimming/dimming_client/CMakeFiles/light_switch_dimming_client_nrf52840_xxAA_s140_6.1.1.dir/__/__/__/mesh/core/src/transport.c.obj
 .text.abort_timeout
                0x00028cd0        0x8 examples/experimental_dimming/dimming_client/CMakeFiles/light_switch_dimming_client_nrf52840_xxAA_s140_6.1.1.dir/__/__/__/mesh/core/src/transport.c.obj
 .text.retry_timeout
                0x00028cd8       0x4c examples/experimental_dimming/dimming_client/CMakeFiles/light_switch_dimming_client_nrf52840_xxAA_s140_6.1.1.dir/__/__/__/mesh/core/src/transport.c.obj
 .text.trs_sar_packet_out
                0x00028d24       0xf4 examples/experimental_dimming/dimming_client/CMakeFiles/light_switch_dimming_client_nrf52840_xxAA_s140_6.1.1.dir/__/__/__/mesh/core/src/transport.c.obj
 .text.transport_control_packet_in
                0x00028e18      0x1dc examples/experimental_dimming/dimming_client/CMakeFiles/light_switch_dimming_client_nrf52840_xxAA_s140_6.1.1.dir/__/__/__/mesh/core/src/transport.c.obj
 .text.segmented_packet_tx
                0x00028ff4      0x140 examples/experimental_dimming/dimming_client/CMakeFiles/light_switch_dimming_client_nrf52840_xxAA_s140_6.1.1.dir/__/__/__/mesh/core/src/transport.c.obj
 .text.transport_init
                0x00029134       0x84 examples/experimental_dimming/dimming_client/CMakeFiles/light_switch_dimming_client_nrf52840_xxAA_s140_6.1.1.dir/__/__/__/mesh/core/src/transport.c.obj
                0x00029134                transport_init
 .text.transport_enable
                0x000291b8        0x4 examples/experimental_dimming/dimming_client/CMakeFiles/light_switch_dimming_client_nrf52840_xxAA_s140_6.1.1.dir/__/__/__/mesh/core/src/transport.c.obj
                0x000291b8                transport_enable
 .text.transport_tx
                0x000291bc       0xec examples/experimental_dimming/dimming_client/CMakeFiles/light_switch_dimming_client_nrf52840_xxAA_s140_6.1.1.dir/__/__/__/mesh/core/src/transport.c.obj
                0x000291bc                transport_tx
 .text.transport_control_tx
                0x000292a8       0x98 examples/experimental_dimming/dimming_client/CMakeFiles/light_switch_dimming_client_nrf52840_xxAA_s140_6.1.1.dir/__/__/__/mesh/core/src/transport.c.obj
                0x000292a8                transport_control_tx
 .text.sar_ack_send
                0x00029340       0xa4 examples/experimental_dimming/dimming_client/CMakeFiles/light_switch_dimming_client_nrf52840_xxAA_s140_6.1.1.dir/__/__/__/mesh/core/src/transport.c.obj
 .text.ack_timeout
                0x000293e4       0x30 examples/experimental_dimming/dimming_client/CMakeFiles/light_switch_dimming_client_nrf52840_xxAA_s140_6.1.1.dir/__/__/__/mesh/core/src/transport.c.obj
 .text.transport_packet_in
                0x00029414      0x504 examples/experimental_dimming/dimming_client/CMakeFiles/light_switch_dimming_client_nrf52840_xxAA_s140_6.1.1.dir/__/__/__/mesh/core/src/transport.c.obj
                0x00029414                transport_packet_in
 .text.transport_sar_process
                0x00029918       0x70 examples/experimental_dimming/dimming_client/CMakeFiles/light_switch_dimming_client_nrf52840_xxAA_s140_6.1.1.dir/__/__/__/mesh/core/src/transport.c.obj
 .text.transport_control_packet_consumer_add
                0x00029988       0x5c examples/experimental_dimming/dimming_client/CMakeFiles/light_switch_dimming_client_nrf52840_xxAA_s140_6.1.1.dir/__/__/__/mesh/core/src/transport.c.obj
                0x00029988                transport_control_packet_consumer_add
 .text.event_handle
                0x000299e4       0x54 examples/experimental_dimming/dimming_client/CMakeFiles/light_switch_dimming_client_nrf52840_xxAA_s140_6.1.1.dir/__/__/__/mesh/core/src/event.c.obj
                0x000299e4                event_handle
 .text.event_handler_add
                0x00029a38       0x20 examples/experimental_dimming/dimming_client/CMakeFiles/light_switch_dimming_client_nrf52840_xxAA_s140_6.1.1.dir/__/__/__/mesh/core/src/event.c.obj
                0x00029a38                event_handler_add
 .text.event_handler_remove
                0x00029a58       0x34 examples/experimental_dimming/dimming_client/CMakeFiles/light_switch_dimming_client_nrf52840_xxAA_s140_6.1.1.dir/__/__/__/mesh/core/src/event.c.obj
                0x00029a58                event_handler_remove
 .text.m_index_increment
                0x00029a8c       0x1e examples/experimental_dimming/dimming_client/CMakeFiles/light_switch_dimming_client_nrf52840_xxAA_s140_6.1.1.dir/__/__/__/mesh/core/src/packet_buffer.c.obj
 .text.m_get_next_packet
                0x00029aaa       0x1c examples/experimental_dimming/dimming_client/CMakeFiles/light_switch_dimming_client_nrf52840_xxAA_s140_6.1.1.dir/__/__/__/mesh/core/src/packet_buffer.c.obj
 .text.packet_buffer_init
                0x00029ac6       0xac examples/experimental_dimming/dimming_client/CMakeFiles/light_switch_dimming_client_nrf52840_xxAA_s140_6.1.1.dir/__/__/__/mesh/core/src/packet_buffer.c.obj
                0x00029ac6                packet_buffer_init
 .text.packet_buffer_flush
                0x00029b72       0x50 examples/experimental_dimming/dimming_client/CMakeFiles/light_switch_dimming_client_nrf52840_xxAA_s140_6.1.1.dir/__/__/__/mesh/core/src/packet_buffer.c.obj
                0x00029b72                packet_buffer_flush
 .text.packet_buffer_reserve
                0x00029bc2       0xa2 examples/experimental_dimming/dimming_client/CMakeFiles/light_switch_dimming_client_nrf52840_xxAA_s140_6.1.1.dir/__/__/__/mesh/core/src/packet_buffer.c.obj
                0x00029bc2                packet_buffer_reserve
 .text.packet_buffer_commit
                0x00029c64       0x62 examples/experimental_dimming/dimming_client/CMakeFiles/light_switch_dimming_client_nrf52840_xxAA_s140_6.1.1.dir/__/__/__/mesh/core/src/packet_buffer.c.obj
                0x00029c64                packet_buffer_commit
 .text.packet_buffer_pop
                0x00029cc6       0x5a examples/experimental_dimming/dimming_client/CMakeFiles/light_switch_dimming_client_nrf52840_xxAA_s140_6.1.1.dir/__/__/__/mesh/core/src/packet_buffer.c.obj
                0x00029cc6                packet_buffer_pop
 .text.packet_buffer_can_pop
                0x00029d20       0x34 examples/experimental_dimming/dimming_client/CMakeFiles/light_switch_dimming_client_nrf52840_xxAA_s140_6.1.1.dir/__/__/__/mesh/core/src/packet_buffer.c.obj
                0x00029d20                packet_buffer_can_pop
 .text.packet_buffer_packets_ready_to_pop
                0x00029d54       0x36 examples/experimental_dimming/dimming_client/CMakeFiles/light_switch_dimming_client_nrf52840_xxAA_s140_6.1.1.dir/__/__/__/mesh/core/src/packet_buffer.c.obj
                0x00029d54                packet_buffer_packets_ready_to_pop
 .text.packet_buffer_free
                0x00029d8a       0x74 examples/experimental_dimming/dimming_client/CMakeFiles/light_switch_dimming_client_nrf52840_xxAA_s140_6.1.1.dir/__/__/__/mesh/core/src/packet_buffer.c.obj
                0x00029d8a                packet_buffer_free
 .text.packet_buffer_is_empty
                0x00029dfe       0x28 examples/experimental_dimming/dimming_client/CMakeFiles/light_switch_dimming_client_nrf52840_xxAA_s140_6.1.1.dir/__/__/__/mesh/core/src/packet_buffer.c.obj
                0x00029dfe                packet_buffer_is_empty
 .text.get_last_page
                0x00029e26       0x14 examples/experimental_dimming/dimming_client/CMakeFiles/light_switch_dimming_client_nrf52840_xxAA_s140_6.1.1.dir/__/__/__/mesh/core/src/flash_manager_defrag.c.obj
 *fill*         0x00029e3a        0x2 
 .text.defrag_on_end
                0x00029e3c       0x1c examples/experimental_dimming/dimming_client/CMakeFiles/light_switch_dimming_client_nrf52840_xxAA_s140_6.1.1.dir/__/__/__/mesh/core/src/flash_manager_defrag.c.obj
 .text.execute_procedure_step
                0x00029e58       0x70 examples/experimental_dimming/dimming_client/CMakeFiles/light_switch_dimming_client_nrf52840_xxAA_s140_6.1.1.dir/__/__/__/mesh/core/src/flash_manager_defrag.c.obj
 .text.get_next_entry
                0x00029ec8       0x34 examples/experimental_dimming/dimming_client/CMakeFiles/light_switch_dimming_client_nrf52840_xxAA_s140_6.1.1.dir/__/__/__/mesh/core/src/flash_manager_defrag.c.obj
 .text.get_next_data_entry
                0x00029efc       0x26 examples/experimental_dimming/dimming_client/CMakeFiles/light_switch_dimming_client_nrf52840_xxAA_s140_6.1.1.dir/__/__/__/mesh/core/src/flash_manager_defrag.c.obj
 *fill*         0x00029f22        0x2 
 .text.on_flash_op_end
                0x00029f24       0x30 examples/experimental_dimming/dimming_client/CMakeFiles/light_switch_dimming_client_nrf52840_xxAA_s140_6.1.1.dir/__/__/__/mesh/core/src/flash_manager_defrag.c.obj
 .text.check_for_invalid_entries
                0x00029f54       0x38 examples/experimental_dimming/dimming_client/CMakeFiles/light_switch_dimming_client_nrf52840_xxAA_s140_6.1.1.dir/__/__/__/mesh/core/src/flash_manager_defrag.c.obj
 .text.erase_recovery_area
                0x00029f8c       0x34 examples/experimental_dimming/dimming_client/CMakeFiles/light_switch_dimming_client_nrf52840_xxAA_s140_6.1.1.dir/__/__/__/mesh/core/src/flash_manager_defrag.c.obj
 .text.flash.constprop.6
                0x00029fc0       0x24 examples/experimental_dimming/dimming_client/CMakeFiles/light_switch_dimming_client_nrf52840_xxAA_s140_6.1.1.dir/__/__/__/mesh/core/src/flash_manager_defrag.c.obj
 .text.invalidate_duplicate_entries
                0x00029fe4       0xa8 examples/experimental_dimming/dimming_client/CMakeFiles/light_switch_dimming_client_nrf52840_xxAA_s140_6.1.1.dir/__/__/__/mesh/core/src/flash_manager_defrag.c.obj
 .text.seal_storage_page
                0x0002a08c       0x50 examples/experimental_dimming/dimming_client/CMakeFiles/light_switch_dimming_client_nrf52840_xxAA_s140_6.1.1.dir/__/__/__/mesh/core/src/flash_manager_defrag.c.obj
 .text.copy_metadata
                0x0002a0dc       0x3c examples/experimental_dimming/dimming_client/CMakeFiles/light_switch_dimming_client_nrf52840_xxAA_s140_6.1.1.dir/__/__/__/mesh/core/src/flash_manager_defrag.c.obj
 .text.write_defrag_start_pointer
                0x0002a118       0x20 examples/experimental_dimming/dimming_client/CMakeFiles/light_switch_dimming_client_nrf52840_xxAA_s140_6.1.1.dir/__/__/__/mesh/core/src/flash_manager_defrag.c.obj
 .text.write_back
                0x0002a138       0x28 examples/experimental_dimming/dimming_client/CMakeFiles/light_switch_dimming_client_nrf52840_xxAA_s140_6.1.1.dir/__/__/__/mesh/core/src/flash_manager_defrag.c.obj
 .text.post_process
                0x0002a160       0x40 examples/experimental_dimming/dimming_client/CMakeFiles/light_switch_dimming_client_nrf52840_xxAA_s140_6.1.1.dir/__/__/__/mesh/core/src/flash_manager_defrag.c.obj
 .text.backup_entries
                0x0002a1a0       0xd8 examples/experimental_dimming/dimming_client/CMakeFiles/light_switch_dimming_client_nrf52840_xxAA_s140_6.1.1.dir/__/__/__/mesh/core/src/flash_manager_defrag.c.obj
 .text.erase_source
                0x0002a278       0x34 examples/experimental_dimming/dimming_client/CMakeFiles/light_switch_dimming_client_nrf52840_xxAA_s140_6.1.1.dir/__/__/__/mesh/core/src/flash_manager_defrag.c.obj
 .text.flash_manager_defrag_init
                0x0002a2ac       0x8c examples/experimental_dimming/dimming_client/CMakeFiles/light_switch_dimming_client_nrf52840_xxAA_s140_6.1.1.dir/__/__/__/mesh/core/src/flash_manager_defrag.c.obj
                0x0002a2ac                flash_manager_defrag_init
 .text.flash_manager_defragging
                0x0002a338       0x38 examples/experimental_dimming/dimming_client/CMakeFiles/light_switch_dimming_client_nrf52840_xxAA_s140_6.1.1.dir/__/__/__/mesh/core/src/flash_manager_defrag.c.obj
                0x0002a338                flash_manager_defragging
 .text.flash_manager_defrag_is_running
                0x0002a370       0x10 examples/experimental_dimming/dimming_client/CMakeFiles/light_switch_dimming_client_nrf52840_xxAA_s140_6.1.1.dir/__/__/__/mesh/core/src/flash_manager_defrag.c.obj
                0x0002a370                flash_manager_defrag_is_running
 .text.flash_manager_defrag
                0x0002a380       0x44 examples/experimental_dimming/dimming_client/CMakeFiles/light_switch_dimming_client_nrf52840_xxAA_s140_6.1.1.dir/__/__/__/mesh/core/src/flash_manager_defrag.c.obj
                0x0002a380                flash_manager_defrag
 .text.flash_manager_defrag_recovery_page_get
                0x0002a3c4        0xc examples/experimental_dimming/dimming_client/CMakeFiles/light_switch_dimming_client_nrf52840_xxAA_s140_6.1.1.dir/__/__/__/mesh/core/src/flash_manager_defrag.c.obj
                0x0002a3c4                flash_manager_defrag_recovery_page_get
 .text.fifo_init
                0x0002a3d0       0x34 examples/experimental_dimming/dimming_client/CMakeFiles/light_switch_dimming_client_nrf52840_xxAA_s140_6.1.1.dir/__/__/__/mesh/core/src/fifo.c.obj
                0x0002a3d0                fifo_init
 .text.fifo_pop
                0x0002a404       0x52 examples/experimental_dimming/dimming_client/CMakeFiles/light_switch_dimming_client_nrf52840_xxAA_s140_6.1.1.dir/__/__/__/mesh/core/src/fifo.c.obj
                0x0002a404                fifo_pop
 *fill*         0x0002a456        0x2 
 .text.wait_for_ready
                0x0002a458       0x10 examples/experimental_dimming/dimming_client/CMakeFiles/light_switch_dimming_client_nrf52840_xxAA_s140_6.1.1.dir/__/__/__/mesh/core/src/nrf_flash.c.obj
 .text.nrf_flash_erase
                0x0002a468       0x50 examples/experimental_dimming/dimming_client/CMakeFiles/light_switch_dimming_client_nrf52840_xxAA_s140_6.1.1.dir/__/__/__/mesh/core/src/nrf_flash.c.obj
                0x0002a468                nrf_flash_erase
 .text.nrf_flash_write
                0x0002a4b8       0x50 examples/experimental_dimming/dimming_client/CMakeFiles/light_switch_dimming_client_nrf52840_xxAA_s140_6.1.1.dir/__/__/__/mesh/core/src/nrf_flash.c.obj
                0x0002a4b8                nrf_flash_write
 .text.entry_recover_cb
                0x0002a508       0x18 examples/experimental_dimming/dimming_client/CMakeFiles/light_switch_dimming_client_nrf52840_xxAA_s140_6.1.1.dir/__/__/__/mesh/core/src/net_state.c.obj
 .text.flash_store_iv_index
                0x0002a520       0x38 examples/experimental_dimming/dimming_client/CMakeFiles/light_switch_dimming_client_nrf52840_xxAA_s140_6.1.1.dir/__/__/__/mesh/core/src/net_state.c.obj
 .text.flash_mem_available
                0x0002a558       0x14 examples/experimental_dimming/dimming_client/CMakeFiles/light_switch_dimming_client_nrf52840_xxAA_s140_6.1.1.dir/__/__/__/mesh/core/src/net_state.c.obj
 .text.iv_index_notify
                0x0002a56c       0x30 examples/experimental_dimming/dimming_client/CMakeFiles/light_switch_dimming_client_nrf52840_xxAA_s140_6.1.1.dir/__/__/__/mesh/core/src/net_state.c.obj
 .text.seqnum_block_allocate
                0x0002a59c       0x4c examples/experimental_dimming/dimming_client/CMakeFiles/light_switch_dimming_client_nrf52840_xxAA_s140_6.1.1.dir/__/__/__/mesh/core/src/net_state.c.obj
 .text.net_state_reset
                0x0002a5e8       0x48 examples/experimental_dimming/dimming_client/CMakeFiles/light_switch_dimming_client_nrf52840_xxAA_s140_6.1.1.dir/__/__/__/mesh/core/src/net_state.c.obj
                0x0002a5e8                net_state_reset
 .text.flash_write_complete
                0x0002a630       0x64 examples/experimental_dimming/dimming_client/CMakeFiles/light_switch_dimming_client_nrf52840_xxAA_s140_6.1.1.dir/__/__/__/mesh/core/src/net_state.c.obj
 .text.net_state_recover_from_flash
                0x0002a694       0x60 examples/experimental_dimming/dimming_client/CMakeFiles/light_switch_dimming_client_nrf52840_xxAA_s140_6.1.1.dir/__/__/__/mesh/core/src/net_state.c.obj
                0x0002a694                net_state_recover_from_flash
 .text.net_state_flash_area_get
                0x0002a6f4        0xc examples/experimental_dimming/dimming_client/CMakeFiles/light_switch_dimming_client_nrf52840_xxAA_s140_6.1.1.dir/__/__/__/mesh/core/src/net_state.c.obj
                0x0002a6f4                net_state_flash_area_get
 .text.init_flash_storage
                0x0002a700       0x40 examples/experimental_dimming/dimming_client/CMakeFiles/light_switch_dimming_client_nrf52840_xxAA_s140_6.1.1.dir/__/__/__/mesh/core/src/net_state.c.obj
 .text.net_state_init
                0x0002a740       0x44 examples/experimental_dimming/dimming_client/CMakeFiles/light_switch_dimming_client_nrf52840_xxAA_s140_6.1.1.dir/__/__/__/mesh/core/src/net_state.c.obj
                0x0002a740                net_state_init
 .text.net_state_enable
                0x0002a784       0x30 examples/experimental_dimming/dimming_client/CMakeFiles/light_switch_dimming_client_nrf52840_xxAA_s140_6.1.1.dir/__/__/__/mesh/core/src/net_state.c.obj
                0x0002a784                net_state_enable
 .text.net_state_iv_update_start
                0x0002a7b4       0x50 examples/experimental_dimming/dimming_client/CMakeFiles/light_switch_dimming_client_nrf52840_xxAA_s140_6.1.1.dir/__/__/__/mesh/core/src/net_state.c.obj
                0x0002a7b4                net_state_iv_update_start
 .text.iv_update_trigger_if_pending
                0x0002a804       0x6c examples/experimental_dimming/dimming_client/CMakeFiles/light_switch_dimming_client_nrf52840_xxAA_s140_6.1.1.dir/__/__/__/mesh/core/src/net_state.c.obj
 .text.iv_update_timer_handler
                0x0002a870       0x64 examples/experimental_dimming/dimming_client/CMakeFiles/light_switch_dimming_client_nrf52840_xxAA_s140_6.1.1.dir/__/__/__/mesh/core/src/net_state.c.obj
 .text.mesh_evt_handler
                0x0002a8d4       0x8c examples/experimental_dimming/dimming_client/CMakeFiles/light_switch_dimming_client_nrf52840_xxAA_s140_6.1.1.dir/__/__/__/mesh/core/src/net_state.c.obj
 .text.net_state_seqnum_alloc
                0x0002a960       0x68 examples/experimental_dimming/dimming_client/CMakeFiles/light_switch_dimming_client_nrf52840_xxAA_s140_6.1.1.dir/__/__/__/mesh/core/src/net_state.c.obj
                0x0002a960                net_state_seqnum_alloc
 .text.net_state_iv_index_lock
                0x0002a9c8       0x3c examples/experimental_dimming/dimming_client/CMakeFiles/light_switch_dimming_client_nrf52840_xxAA_s140_6.1.1.dir/__/__/__/mesh/core/src/net_state.c.obj
                0x0002a9c8                net_state_iv_index_lock
 .text.net_state_key_refresh_phase_changed
                0x0002aa04       0x20 examples/experimental_dimming/dimming_client/CMakeFiles/light_switch_dimming_client_nrf52840_xxAA_s140_6.1.1.dir/__/__/__/mesh/core/src/net_state.c.obj
                0x0002aa04                net_state_key_refresh_phase_changed
 .text.net_state_beacon_iv_index_get
                0x0002aa24        0xc examples/experimental_dimming/dimming_client/CMakeFiles/light_switch_dimming_client_nrf52840_xxAA_s140_6.1.1.dir/__/__/__/mesh/core/src/net_state.c.obj
                0x0002aa24                net_state_beacon_iv_index_get
 .text.net_state_tx_iv_index_get
                0x0002aa30       0x14 examples/experimental_dimming/dimming_client/CMakeFiles/light_switch_dimming_client_nrf52840_xxAA_s140_6.1.1.dir/__/__/__/mesh/core/src/net_state.c.obj
                0x0002aa30                net_state_tx_iv_index_get
 .text.net_state_rx_iv_index_get
                0x0002aa44       0x18 examples/experimental_dimming/dimming_client/CMakeFiles/light_switch_dimming_client_nrf52840_xxAA_s140_6.1.1.dir/__/__/__/mesh/core/src/net_state.c.obj
                0x0002aa44                net_state_rx_iv_index_get
 .text.net_state_iv_update_get
                0x0002aa5c        0xc examples/experimental_dimming/dimming_client/CMakeFiles/light_switch_dimming_client_nrf52840_xxAA_s140_6.1.1.dir/__/__/__/mesh/core/src/net_state.c.obj
                0x0002aa5c                net_state_iv_update_get
 .text.net_state_iv_index_set
                0x0002aa68       0x34 examples/experimental_dimming/dimming_client/CMakeFiles/light_switch_dimming_client_nrf52840_xxAA_s140_6.1.1.dir/__/__/__/mesh/core/src/net_state.c.obj
                0x0002aa68                net_state_iv_index_set
 .text.send_end_events
                0x0002aa9c       0x84 examples/experimental_dimming/dimming_client/CMakeFiles/light_switch_dimming_client_nrf52840_xxAA_s140_6.1.1.dir/__/__/__/mesh/core/src/mesh_flash.c.obj
 .text.flash_op_action_prepare
                0x0002ab20       0x78 examples/experimental_dimming/dimming_client/CMakeFiles/light_switch_dimming_client_nrf52840_xxAA_s140_6.1.1.dir/__/__/__/mesh/core/src/mesh_flash.c.obj
 .text.flash_op_schedule
                0x0002ab98       0x20 examples/experimental_dimming/dimming_client/CMakeFiles/light_switch_dimming_client_nrf52840_xxAA_s140_6.1.1.dir/__/__/__/mesh/core/src/mesh_flash.c.obj
 .text.flash_op_start
                0x0002abb8      0x13c examples/experimental_dimming/dimming_client/CMakeFiles/light_switch_dimming_client_nrf52840_xxAA_s140_6.1.1.dir/__/__/__/mesh/core/src/mesh_flash.c.obj
 .text.mesh_flash_init
                0x0002acf4       0x7c examples/experimental_dimming/dimming_client/CMakeFiles/light_switch_dimming_client_nrf52840_xxAA_s140_6.1.1.dir/__/__/__/mesh/core/src/mesh_flash.c.obj
                0x0002acf4                mesh_flash_init
 .text.mesh_flash_user_callback_set
                0x0002ad70       0x20 examples/experimental_dimming/dimming_client/CMakeFiles/light_switch_dimming_client_nrf52840_xxAA_s140_6.1.1.dir/__/__/__/mesh/core/src/mesh_flash.c.obj
                0x0002ad70                mesh_flash_user_callback_set
 .text.mesh_flash_op_push
                0x0002ad90      0x10c examples/experimental_dimming/dimming_client/CMakeFiles/light_switch_dimming_client_nrf52840_xxAA_s140_6.1.1.dir/__/__/__/mesh/core/src/mesh_flash.c.obj
                0x0002ad90                mesh_flash_op_push
 .text.mesh_flash_set_suspended
                0x0002ae9c       0x70 examples/experimental_dimming/dimming_client/CMakeFiles/light_switch_dimming_client_nrf52840_xxAA_s140_6.1.1.dir/__/__/__/mesh/core/src/mesh_flash.c.obj
                0x0002ae9c                mesh_flash_set_suspended
 .text.nrf_mesh_address_type_get
                0x0002af0c       0x10 examples/experimental_dimming/dimming_client/CMakeFiles/light_switch_dimming_client_nrf52840_xxAA_s140_6.1.1.dir/__/__/__/mesh/core/src/nrf_mesh_utils.c.obj
                0x0002af0c                nrf_mesh_address_type_get
 .text.sd_softdevice_is_enabled
                0x0002af1c        0x4 examples/experimental_dimming/dimming_client/CMakeFiles/light_switch_dimming_client_nrf52840_xxAA_s140_6.1.1.dir/__/__/__/mesh/core/src/nrf_mesh.c.obj
 .text.nrf_mesh_listen
                0x0002af20      0x138 examples/experimental_dimming/dimming_client/CMakeFiles/light_switch_dimming_client_nrf52840_xxAA_s140_6.1.1.dir/__/__/__/mesh/core/src/nrf_mesh.c.obj
 .text.scanner_packet_process_cb
                0x0002b058       0x8c examples/experimental_dimming/dimming_client/CMakeFiles/light_switch_dimming_client_nrf52840_xxAA_s140_6.1.1.dir/__/__/__/mesh/core/src/nrf_mesh.c.obj
 .text.bearer_stopped_cb
                0x0002b0e4       0x30 examples/experimental_dimming/dimming_client/CMakeFiles/light_switch_dimming_client_nrf52840_xxAA_s140_6.1.1.dir/__/__/__/mesh/core/src/nrf_mesh.c.obj
 .text.nrf_mesh_init
                0x0002b114       0xe8 examples/experimental_dimming/dimming_client/CMakeFiles/light_switch_dimming_client_nrf52840_xxAA_s140_6.1.1.dir/__/__/__/mesh/core/src/nrf_mesh.c.obj
                0x0002b114                nrf_mesh_init
 .text.nrf_mesh_enable
                0x0002b1fc       0xac examples/experimental_dimming/dimming_client/CMakeFiles/light_switch_dimming_client_nrf52840_xxAA_s140_6.1.1.dir/__/__/__/mesh/core/src/nrf_mesh.c.obj
                0x0002b1fc                nrf_mesh_enable
 .text.nrf_mesh_disable
                0x0002b2a8       0x2c examples/experimental_dimming/dimming_client/CMakeFiles/light_switch_dimming_client_nrf52840_xxAA_s140_6.1.1.dir/__/__/__/mesh/core/src/nrf_mesh.c.obj
                0x0002b2a8                nrf_mesh_disable
 .text.nrf_mesh_packet_send
                0x0002b2d4        0x4 examples/experimental_dimming/dimming_client/CMakeFiles/light_switch_dimming_client_nrf52840_xxAA_s140_6.1.1.dir/__/__/__/mesh/core/src/nrf_mesh.c.obj
                0x0002b2d4                nrf_mesh_packet_send
 .text.nrf_mesh_evt_handler_add
                0x0002b2d8        0x4 examples/experimental_dimming/dimming_client/CMakeFiles/light_switch_dimming_client_nrf52840_xxAA_s140_6.1.1.dir/__/__/__/mesh/core/src/nrf_mesh.c.obj
                0x0002b2d8                nrf_mesh_evt_handler_add
 .text.nrf_mesh_evt_handler_remove
                0x0002b2dc        0x4 examples/experimental_dimming/dimming_client/CMakeFiles/light_switch_dimming_client_nrf52840_xxAA_s140_6.1.1.dir/__/__/__/mesh/core/src/nrf_mesh.c.obj
                0x0002b2dc                nrf_mesh_evt_handler_remove
 .text.nrf_mesh_on_sd_evt
                0x0002b2e0        0xa examples/experimental_dimming/dimming_client/CMakeFiles/light_switch_dimming_client_nrf52840_xxAA_s140_6.1.1.dir/__/__/__/mesh/core/src/nrf_mesh.c.obj
                0x0002b2e0                nrf_mesh_on_sd_evt
 .text.nrf_mesh_subnet_added
                0x0002b2ea        0x4 examples/experimental_dimming/dimming_client/CMakeFiles/light_switch_dimming_client_nrf52840_xxAA_s140_6.1.1.dir/__/__/__/mesh/core/src/nrf_mesh.c.obj
                0x0002b2ea                nrf_mesh_subnet_added
 *fill*         0x0002b2ee        0x2 
 .text.nrf_mesh_unique_token_get
                0x0002b2f0       0x18 examples/experimental_dimming/dimming_client/CMakeFiles/light_switch_dimming_client_nrf52840_xxAA_s140_6.1.1.dir/__/__/__/mesh/core/src/nrf_mesh.c.obj
                0x0002b2f0                nrf_mesh_unique_token_get
 .text.queue_init
                0x0002b308       0x14 examples/experimental_dimming/dimming_client/CMakeFiles/light_switch_dimming_client_nrf52840_xxAA_s140_6.1.1.dir/__/__/__/mesh/core/src/queue.c.obj
                0x0002b308                queue_init
 .text.queue_push
                0x0002b31c       0x34 examples/experimental_dimming/dimming_client/CMakeFiles/light_switch_dimming_client_nrf52840_xxAA_s140_6.1.1.dir/__/__/__/mesh/core/src/queue.c.obj
                0x0002b31c                queue_push
 .text.queue_pop
                0x0002b350       0x26 examples/experimental_dimming/dimming_client/CMakeFiles/light_switch_dimming_client_nrf52840_xxAA_s140_6.1.1.dir/__/__/__/mesh/core/src/queue.c.obj
                0x0002b350                queue_pop
 .text.queue_peek
                0x0002b376       0x10 examples/experimental_dimming/dimming_client/CMakeFiles/light_switch_dimming_client_nrf52840_xxAA_s140_6.1.1.dir/__/__/__/mesh/core/src/queue.c.obj
                0x0002b376                queue_peek
 .text.sd_power_reset_reason_clr
                0x0002b386        0x4 examples/experimental_dimming/dimming_client/CMakeFiles/light_switch_dimming_client_nrf52840_xxAA_s140_6.1.1.dir/__/__/__/mesh/core/src/hal.c.obj
 *fill*         0x0002b38a        0x2 
 .text.hal_device_reset
                0x0002b38c       0x2c examples/experimental_dimming/dimming_client/CMakeFiles/light_switch_dimming_client_nrf52840_xxAA_s140_6.1.1.dir/__/__/__/mesh/core/src/hal.c.obj
                0x0002b38c                hal_device_reset
 .text.hal_lfclk_ppm_get
                0x0002b3b8       0x14 examples/experimental_dimming/dimming_client/CMakeFiles/light_switch_dimming_client_nrf52840_xxAA_s140_6.1.1.dir/__/__/__/mesh/core/src/hal.c.obj
                0x0002b3b8                hal_lfclk_ppm_get
 .text.hal_irq_active_get
                0x0002b3cc       0x10 examples/experimental_dimming/dimming_client/CMakeFiles/light_switch_dimming_client_nrf52840_xxAA_s140_6.1.1.dir/__/__/__/mesh/core/src/hal.c.obj
                0x0002b3cc                hal_irq_active_get
 .text.hal_irq_is_enabled
                0x0002b3dc       0x28 examples/experimental_dimming/dimming_client/CMakeFiles/light_switch_dimming_client_nrf52840_xxAA_s140_6.1.1.dir/__/__/__/mesh/core/src/hal.c.obj
                0x0002b3dc                hal_irq_is_enabled
 .text.sd_ecb_block_encrypt
                0x0002b404        0x4 examples/experimental_dimming/dimming_client/CMakeFiles/light_switch_dimming_client_nrf52840_xxAA_s140_6.1.1.dir/__/__/__/mesh/core/src/aes_cmac.c.obj
 .text.utils_xor.constprop.1
                0x0002b408       0x20 examples/experimental_dimming/dimming_client/CMakeFiles/light_switch_dimming_client_nrf52840_xxAA_s140_6.1.1.dir/__/__/__/mesh/core/src/aes_cmac.c.obj
 .text.aes_cmac
                0x0002b428      0x10c examples/experimental_dimming/dimming_client/CMakeFiles/light_switch_dimming_client_nrf52840_xxAA_s140_6.1.1.dir/__/__/__/mesh/core/src/aes_cmac.c.obj
                0x0002b428                aes_cmac
 .text.add_evt  0x0002b534       0x50 examples/experimental_dimming/dimming_client/CMakeFiles/light_switch_dimming_client_nrf52840_xxAA_s140_6.1.1.dir/__/__/__/mesh/core/src/timer_scheduler.c.obj
 .text.remove_evt
                0x0002b584       0x50 examples/experimental_dimming/dimming_client/CMakeFiles/light_switch_dimming_client_nrf52840_xxAA_s140_6.1.1.dir/__/__/__/mesh/core/src/timer_scheduler.c.obj
 .text.timer_cb
                0x0002b5d4        0xc examples/experimental_dimming/dimming_client/CMakeFiles/light_switch_dimming_client_nrf52840_xxAA_s140_6.1.1.dir/__/__/__/mesh/core/src/timer_scheduler.c.obj
 .text.setup_timeout.isra.0
                0x0002b5e0       0x1c examples/experimental_dimming/dimming_client/CMakeFiles/light_switch_dimming_client_nrf52840_xxAA_s140_6.1.1.dir/__/__/__/mesh/core/src/timer_scheduler.c.obj
 .text.flag_event_cb
                0x0002b5fc       0xa4 examples/experimental_dimming/dimming_client/CMakeFiles/light_switch_dimming_client_nrf52840_xxAA_s140_6.1.1.dir/__/__/__/mesh/core/src/timer_scheduler.c.obj
 .text.timer_sch_init
                0x0002b6a0       0x2c examples/experimental_dimming/dimming_client/CMakeFiles/light_switch_dimming_client_nrf52840_xxAA_s140_6.1.1.dir/__/__/__/mesh/core/src/timer_scheduler.c.obj
                0x0002b6a0                timer_sch_init
 .text.timer_sch_schedule
                0x0002b6cc       0x44 examples/experimental_dimming/dimming_client/CMakeFiles/light_switch_dimming_client_nrf52840_xxAA_s140_6.1.1.dir/__/__/__/mesh/core/src/timer_scheduler.c.obj
                0x0002b6cc                timer_sch_schedule
 .text.timer_sch_abort
                0x0002b710       0x2e examples/experimental_dimming/dimming_client/CMakeFiles/light_switch_dimming_client_nrf52840_xxAA_s140_6.1.1.dir/__/__/__/mesh/core/src/timer_scheduler.c.obj
                0x0002b710                timer_sch_abort
 .text.timer_sch_reschedule
                0x0002b73e       0x38 examples/experimental_dimming/dimming_client/CMakeFiles/light_switch_dimming_client_nrf52840_xxAA_s140_6.1.1.dir/__/__/__/mesh/core/src/timer_scheduler.c.obj
                0x0002b73e                timer_sch_reschedule
 .text.timer_init
                0x0002b776       0x1a examples/experimental_dimming/dimming_client/CMakeFiles/light_switch_dimming_client_nrf52840_xxAA_s140_6.1.1.dir/__/__/__/mesh/core/src/timer.c.obj
                0x0002b776                timer_init
 .text.timer_now
                0x0002b790       0x48 examples/experimental_dimming/dimming_client/CMakeFiles/light_switch_dimming_client_nrf52840_xxAA_s140_6.1.1.dir/__/__/__/mesh/core/src/timer.c.obj
                0x0002b790                timer_now
 .text.nrf_mesh_timer_tail_handle
                0x0002b7d8       0x34 examples/experimental_dimming/dimming_client/CMakeFiles/light_switch_dimming_client_nrf52840_xxAA_s140_6.1.1.dir/__/__/__/mesh/core/src/timer.c.obj
                0x0002b7d8                nrf_mesh_timer_tail_handle
 .text.nrf_mesh_timer_ovfw_handle
                0x0002b80c       0x98 examples/experimental_dimming/dimming_client/CMakeFiles/light_switch_dimming_client_nrf52840_xxAA_s140_6.1.1.dir/__/__/__/mesh/core/src/timer.c.obj
                0x0002b80c                nrf_mesh_timer_ovfw_handle
 .text.timer_start
                0x0002b8a4       0xac examples/experimental_dimming/dimming_client/CMakeFiles/light_switch_dimming_client_nrf52840_xxAA_s140_6.1.1.dir/__/__/__/mesh/core/src/timer.c.obj
                0x0002b8a4                timer_start
 .text.timer_stop
                0x0002b950       0x30 examples/experimental_dimming/dimming_client/CMakeFiles/light_switch_dimming_client_nrf52840_xxAA_s140_6.1.1.dir/__/__/__/mesh/core/src/timer.c.obj
                0x0002b950                timer_stop
 .text.sd_rand_application_bytes_available_get
                0x0002b980        0x4 examples/experimental_dimming/dimming_client/CMakeFiles/light_switch_dimming_client_nrf52840_xxAA_s140_6.1.1.dir/__/__/__/mesh/core/src/rand.c.obj
 .text.sd_rand_application_vector_get
                0x0002b984        0x4 examples/experimental_dimming/dimming_client/CMakeFiles/light_switch_dimming_client_nrf52840_xxAA_s140_6.1.1.dir/__/__/__/mesh/core/src/rand.c.obj
 .text.rand_prng_get
                0x0002b988       0x24 examples/experimental_dimming/dimming_client/CMakeFiles/light_switch_dimming_client_nrf52840_xxAA_s140_6.1.1.dir/__/__/__/mesh/core/src/rand.c.obj
                0x0002b988                rand_prng_get
 .text.rand_hw_rng_get
                0x0002b9ac       0x44 examples/experimental_dimming/dimming_client/CMakeFiles/light_switch_dimming_client_nrf52840_xxAA_s140_6.1.1.dir/__/__/__/mesh/core/src/rand.c.obj
                0x0002b9ac                rand_hw_rng_get
 .text.rand_prng_seed
                0x0002b9f0       0x34 examples/experimental_dimming/dimming_client/CMakeFiles/light_switch_dimming_client_nrf52840_xxAA_s140_6.1.1.dir/__/__/__/mesh/core/src/rand.c.obj
                0x0002b9f0                rand_prng_seed
 .text.mesh_opt_init
                0x0002ba24        0x2 examples/experimental_dimming/dimming_client/CMakeFiles/light_switch_dimming_client_nrf52840_xxAA_s140_6.1.1.dir/__/__/__/mesh/core/src/mesh_opt.c.obj
                0x0002ba24                mesh_opt_init
 .text.sd_radio_session_open
                0x0002ba26        0x4 examples/experimental_dimming/dimming_client/CMakeFiles/light_switch_dimming_client_nrf52840_xxAA_s140_6.1.1.dir/__/__/__/mesh/core/src/timeslot.c.obj
 .text.sd_radio_session_close
                0x0002ba2a        0x4 examples/experimental_dimming/dimming_client/CMakeFiles/light_switch_dimming_client_nrf52840_xxAA_s140_6.1.1.dir/__/__/__/mesh/core/src/timeslot.c.obj
 .text.sd_radio_request
                0x0002ba2e        0x4 examples/experimental_dimming/dimming_client/CMakeFiles/light_switch_dimming_client_nrf52840_xxAA_s140_6.1.1.dir/__/__/__/mesh/core/src/timeslot.c.obj
 *fill*         0x0002ba32        0x2 
 .text.end_timer_handler
                0x0002ba34       0x24 examples/experimental_dimming/dimming_client/CMakeFiles/light_switch_dimming_client_nrf52840_xxAA_s140_6.1.1.dir/__/__/__/mesh/core/src/timeslot.c.obj
 .text.get_end_time.isra.3
                0x0002ba58       0x20 examples/experimental_dimming/dimming_client/CMakeFiles/light_switch_dimming_client_nrf52840_xxAA_s140_6.1.1.dir/__/__/__/mesh/core/src/timeslot.c.obj
 .text.on_ts_begin.constprop.9
                0x0002ba78       0x48 examples/experimental_dimming/dimming_client/CMakeFiles/light_switch_dimming_client_nrf52840_xxAA_s140_6.1.1.dir/__/__/__/mesh/core/src/timeslot.c.obj
 .text.handle_extend_end.constprop.5
                0x0002bac0       0x88 examples/experimental_dimming/dimming_client/CMakeFiles/light_switch_dimming_client_nrf52840_xxAA_s140_6.1.1.dir/__/__/__/mesh/core/src/timeslot.c.obj
 .text.radio_signal_callback
                0x0002bb48      0x12c examples/experimental_dimming/dimming_client/CMakeFiles/light_switch_dimming_client_nrf52840_xxAA_s140_6.1.1.dir/__/__/__/mesh/core/src/timeslot.c.obj
 .text.timeslot_sd_event_handler
                0x0002bc74       0x60 examples/experimental_dimming/dimming_client/CMakeFiles/light_switch_dimming_client_nrf52840_xxAA_s140_6.1.1.dir/__/__/__/mesh/core/src/timeslot.c.obj
                0x0002bc74                timeslot_sd_event_handler
 .text.timeslot_init
                0x0002bcd4       0x50 examples/experimental_dimming/dimming_client/CMakeFiles/light_switch_dimming_client_nrf52840_xxAA_s140_6.1.1.dir/__/__/__/mesh/core/src/timeslot.c.obj
                0x0002bcd4                timeslot_init
 .text.timeslot_start
                0x0002bd24       0x48 examples/experimental_dimming/dimming_client/CMakeFiles/light_switch_dimming_client_nrf52840_xxAA_s140_6.1.1.dir/__/__/__/mesh/core/src/timeslot.c.obj
                0x0002bd24                timeslot_start
 .text.timeslot_end_is_pending
                0x0002bd6c       0x28 examples/experimental_dimming/dimming_client/CMakeFiles/light_switch_dimming_client_nrf52840_xxAA_s140_6.1.1.dir/__/__/__/mesh/core/src/timeslot.c.obj
                0x0002bd6c                timeslot_end_is_pending
 .text.timeslot_length_get
                0x0002bd94        0xc examples/experimental_dimming/dimming_client/CMakeFiles/light_switch_dimming_client_nrf52840_xxAA_s140_6.1.1.dir/__/__/__/mesh/core/src/timeslot.c.obj
                0x0002bd94                timeslot_length_get
 .text.timeslot_remaining_time_get
                0x0002bda0       0x24 examples/experimental_dimming/dimming_client/CMakeFiles/light_switch_dimming_client_nrf52840_xxAA_s140_6.1.1.dir/__/__/__/mesh/core/src/timeslot.c.obj
                0x0002bda0                timeslot_remaining_time_get
 .text.timeslot_is_in_ts
                0x0002bdc4        0xc examples/experimental_dimming/dimming_client/CMakeFiles/light_switch_dimming_client_nrf52840_xxAA_s140_6.1.1.dir/__/__/__/mesh/core/src/timeslot.c.obj
                0x0002bdc4                timeslot_is_in_ts
 .text.timeslot_is_in_cb
                0x0002bdd0        0xc examples/experimental_dimming/dimming_client/CMakeFiles/light_switch_dimming_client_nrf52840_xxAA_s140_6.1.1.dir/__/__/__/mesh/core/src/timeslot.c.obj
                0x0002bdd0                timeslot_is_in_cb
 .text.timeslot_session_is_active
                0x0002bddc       0x10 examples/experimental_dimming/dimming_client/CMakeFiles/light_switch_dimming_client_nrf52840_xxAA_s140_6.1.1.dir/__/__/__/mesh/core/src/timeslot.c.obj
                0x0002bddc                timeslot_session_is_active
 .text.timeslot_trigger
                0x0002bdec       0x24 examples/experimental_dimming/dimming_client/CMakeFiles/light_switch_dimming_client_nrf52840_xxAA_s140_6.1.1.dir/__/__/__/mesh/core/src/timeslot.c.obj
                0x0002bdec                timeslot_trigger
 .text.timeslot_stop
                0x0002be10       0x1c examples/experimental_dimming/dimming_client/CMakeFiles/light_switch_dimming_client_nrf52840_xxAA_s140_6.1.1.dir/__/__/__/mesh/core/src/timeslot.c.obj
                0x0002be10                timeslot_stop
 .text.timeslot_restart
                0x0002be2c       0x24 examples/experimental_dimming/dimming_client/CMakeFiles/light_switch_dimming_client_nrf52840_xxAA_s140_6.1.1.dir/__/__/__/mesh/core/src/timeslot.c.obj
                0x0002be2c                timeslot_restart
 .text.timeslot_state_lock
                0x0002be50       0x24 examples/experimental_dimming/dimming_client/CMakeFiles/light_switch_dimming_client_nrf52840_xxAA_s140_6.1.1.dir/__/__/__/mesh/core/src/timeslot.c.obj
                0x0002be50                timeslot_state_lock
 .text.timer_mut_unlock
                0x0002be74       0x10 examples/experimental_dimming/dimming_client/CMakeFiles/light_switch_dimming_client_nrf52840_xxAA_s140_6.1.1.dir/__/__/__/mesh/core/src/timeslot_timer.c.obj
 .text.ts_timer_order_cb
                0x0002be84       0x64 examples/experimental_dimming/dimming_client/CMakeFiles/light_switch_dimming_client_nrf52840_xxAA_s140_6.1.1.dir/__/__/__/mesh/core/src/timeslot_timer.c.obj
                0x0002be84                ts_timer_order_cb
 .text.ts_timer_now
                0x0002bee8       0x40 examples/experimental_dimming/dimming_client/CMakeFiles/light_switch_dimming_client_nrf52840_xxAA_s140_6.1.1.dir/__/__/__/mesh/core/src/timeslot_timer.c.obj
                0x0002bee8                ts_timer_now
 .text.ts_timer_event_handler
                0x0002bf28       0x68 examples/experimental_dimming/dimming_client/CMakeFiles/light_switch_dimming_client_nrf52840_xxAA_s140_6.1.1.dir/__/__/__/mesh/core/src/timeslot_timer.c.obj
                0x0002bf28                ts_timer_event_handler
 .text.ts_timer_to_device_time
                0x0002bf90        0xc examples/experimental_dimming/dimming_client/CMakeFiles/light_switch_dimming_client_nrf52840_xxAA_s140_6.1.1.dir/__/__/__/mesh/core/src/timeslot_timer.c.obj
                0x0002bf90                ts_timer_to_device_time
 .text.ts_timer_on_ts_begin
                0x0002bf9c       0x64 examples/experimental_dimming/dimming_client/CMakeFiles/light_switch_dimming_client_nrf52840_xxAA_s140_6.1.1.dir/__/__/__/mesh/core/src/timeslot_timer.c.obj
                0x0002bf9c                ts_timer_on_ts_begin
 .text.ts_timer_on_ts_end
                0x0002c000       0x48 examples/experimental_dimming/dimming_client/CMakeFiles/light_switch_dimming_client_nrf52840_xxAA_s140_6.1.1.dir/__/__/__/mesh/core/src/timeslot_timer.c.obj
                0x0002c000                ts_timer_on_ts_end
 .text.trigger_event_handler
                0x0002c048       0x1c examples/experimental_dimming/dimming_client/CMakeFiles/light_switch_dimming_client_nrf52840_xxAA_s140_6.1.1.dir/__/__/__/mesh/core/src/bearer_event.c.obj
 .text.bearer_event_init
                0x0002c064       0x58 examples/experimental_dimming/dimming_client/CMakeFiles/light_switch_dimming_client_nrf52840_xxAA_s140_6.1.1.dir/__/__/__/mesh/core/src/bearer_event.c.obj
                0x0002c064                bearer_event_init
 .text.bearer_event_start
                0x0002c0bc       0x44 examples/experimental_dimming/dimming_client/CMakeFiles/light_switch_dimming_client_nrf52840_xxAA_s140_6.1.1.dir/__/__/__/mesh/core/src/bearer_event.c.obj
                0x0002c0bc                bearer_event_start
 .text.bearer_event_critical_section_begin
                0x0002c100       0x80 examples/experimental_dimming/dimming_client/CMakeFiles/light_switch_dimming_client_nrf52840_xxAA_s140_6.1.1.dir/__/__/__/mesh/core/src/bearer_event.c.obj
                0x0002c100                bearer_event_critical_section_begin
 .text.bearer_event_critical_section_end
                0x0002c180       0x60 examples/experimental_dimming/dimming_client/CMakeFiles/light_switch_dimming_client_nrf52840_xxAA_s140_6.1.1.dir/__/__/__/mesh/core/src/bearer_event.c.obj
                0x0002c180                bearer_event_critical_section_end
 .text.bearer_event_flag_add
                0x0002c1e0       0x3c examples/experimental_dimming/dimming_client/CMakeFiles/light_switch_dimming_client_nrf52840_xxAA_s140_6.1.1.dir/__/__/__/mesh/core/src/bearer_event.c.obj
                0x0002c1e0                bearer_event_flag_add
 .text.bearer_event_flag_set
                0x0002c21c       0x44 examples/experimental_dimming/dimming_client/CMakeFiles/light_switch_dimming_client_nrf52840_xxAA_s140_6.1.1.dir/__/__/__/mesh/core/src/bearer_event.c.obj
                0x0002c21c                bearer_event_flag_set
 .text.bearer_event_sequential_add
                0x0002c260       0x2e examples/experimental_dimming/dimming_client/CMakeFiles/light_switch_dimming_client_nrf52840_xxAA_s140_6.1.1.dir/__/__/__/mesh/core/src/bearer_event.c.obj
                0x0002c260                bearer_event_sequential_add
 *fill*         0x0002c28e        0x2 
 .text.bearer_event_sequential_post
                0x0002c290       0x44 examples/experimental_dimming/dimming_client/CMakeFiles/light_switch_dimming_client_nrf52840_xxAA_s140_6.1.1.dir/__/__/__/mesh/core/src/bearer_event.c.obj
                0x0002c290                bearer_event_sequential_post
 .text.bearer_event_sequential_pending
                0x0002c2d4       0x10 examples/experimental_dimming/dimming_client/CMakeFiles/light_switch_dimming_client_nrf52840_xxAA_s140_6.1.1.dir/__/__/__/mesh/core/src/bearer_event.c.obj
                0x0002c2d4                bearer_event_sequential_pending
 .text.bearer_event_handler
                0x0002c2e4       0xe4 examples/experimental_dimming/dimming_client/CMakeFiles/light_switch_dimming_client_nrf52840_xxAA_s140_6.1.1.dir/__/__/__/mesh/core/src/bearer_event.c.obj
                0x0002c2e4                bearer_event_handler
 .text.QDEC_IRQHandler
                0x0002c3c8        0x4 examples/experimental_dimming/dimming_client/CMakeFiles/light_switch_dimming_client_nrf52840_xxAA_s140_6.1.1.dir/__/__/__/mesh/core/src/bearer_event.c.obj
                0x0002c3c8                QDEC_IRQHandler
 .text.bearer_event_in_correct_irq_priority
                0x0002c3cc       0x74 examples/experimental_dimming/dimming_client/CMakeFiles/light_switch_dimming_client_nrf52840_xxAA_s140_6.1.1.dir/__/__/__/mesh/core/src/bearer_event.c.obj
                0x0002c3cc                bearer_event_in_correct_irq_priority
 .text.sd_ecb_block_encrypt
                0x0002c440        0x4 examples/experimental_dimming/dimming_client/CMakeFiles/light_switch_dimming_client_nrf52840_xxAA_s140_6.1.1.dir/__/__/__/mesh/core/src/enc.c.obj
 .text.enc_aes_encrypt
                0x0002c444       0x32 examples/experimental_dimming/dimming_client/CMakeFiles/light_switch_dimming_client_nrf52840_xxAA_s140_6.1.1.dir/__/__/__/mesh/core/src/enc.c.obj
                0x0002c444                enc_aes_encrypt
 .text.enc_aes_cmac
                0x0002c476        0x4 examples/experimental_dimming/dimming_client/CMakeFiles/light_switch_dimming_client_nrf52840_xxAA_s140_6.1.1.dir/__/__/__/mesh/core/src/enc.c.obj
                0x0002c476                enc_aes_cmac
 .text.enc_aes_ccm_encrypt
                0x0002c47a        0x4 examples/experimental_dimming/dimming_client/CMakeFiles/light_switch_dimming_client_nrf52840_xxAA_s140_6.1.1.dir/__/__/__/mesh/core/src/enc.c.obj
                0x0002c47a                enc_aes_ccm_encrypt
 .text.enc_aes_ccm_decrypt
                0x0002c47e        0x4 examples/experimental_dimming/dimming_client/CMakeFiles/light_switch_dimming_client_nrf52840_xxAA_s140_6.1.1.dir/__/__/__/mesh/core/src/enc.c.obj
                0x0002c47e                enc_aes_ccm_decrypt
 .text.enc_nonce_generate
                0x0002c482       0xbc examples/experimental_dimming/dimming_client/CMakeFiles/light_switch_dimming_client_nrf52840_xxAA_s140_6.1.1.dir/__/__/__/mesh/core/src/enc.c.obj
                0x0002c482                enc_nonce_generate
 .text.enc_s1   0x0002c53e       0x2c examples/experimental_dimming/dimming_client/CMakeFiles/light_switch_dimming_client_nrf52840_xxAA_s140_6.1.1.dir/__/__/__/mesh/core/src/enc.c.obj
                0x0002c53e                enc_s1
 .text.enc_k1   0x0002c56a       0x3c examples/experimental_dimming/dimming_client/CMakeFiles/light_switch_dimming_client_nrf52840_xxAA_s140_6.1.1.dir/__/__/__/mesh/core/src/enc.c.obj
                0x0002c56a                enc_k1
 *fill*         0x0002c5a6        0x2 
 .text.enc_k2   0x0002c5a8       0xc0 examples/experimental_dimming/dimming_client/CMakeFiles/light_switch_dimming_client_nrf52840_xxAA_s140_6.1.1.dir/__/__/__/mesh/core/src/enc.c.obj
                0x0002c5a8                enc_k2
 .text.enc_k3   0x0002c668       0x5c examples/experimental_dimming/dimming_client/CMakeFiles/light_switch_dimming_client_nrf52840_xxAA_s140_6.1.1.dir/__/__/__/mesh/core/src/enc.c.obj
                0x0002c668                enc_k3
 .text.enc_k4   0x0002c6c4       0x54 examples/experimental_dimming/dimming_client/CMakeFiles/light_switch_dimming_client_nrf52840_xxAA_s140_6.1.1.dir/__/__/__/mesh/core/src/enc.c.obj
                0x0002c6c4                enc_k4
 .text.allocate_packet
                0x0002c718       0x6e examples/experimental_dimming/dimming_client/CMakeFiles/light_switch_dimming_client_nrf52840_xxAA_s140_6.1.1.dir/__/__/__/mesh/core/src/network.c.obj
 *fill*         0x0002c786        0x2 
 .text.network_init
                0x0002c788       0x24 examples/experimental_dimming/dimming_client/CMakeFiles/light_switch_dimming_client_nrf52840_xxAA_s140_6.1.1.dir/__/__/__/mesh/core/src/network.c.obj
                0x0002c788                network_init
 .text.network_enable
                0x0002c7ac        0xe examples/experimental_dimming/dimming_client/CMakeFiles/light_switch_dimming_client_nrf52840_xxAA_s140_6.1.1.dir/__/__/__/mesh/core/src/network.c.obj
                0x0002c7ac                network_enable
 .text.network_packet_alloc
                0x0002c7ba       0x42 examples/experimental_dimming/dimming_client/CMakeFiles/light_switch_dimming_client_nrf52840_xxAA_s140_6.1.1.dir/__/__/__/mesh/core/src/network.c.obj
                0x0002c7ba                network_packet_alloc
 .text.network_packet_send
                0x0002c7fc       0xe0 examples/experimental_dimming/dimming_client/CMakeFiles/light_switch_dimming_client_nrf52840_xxAA_s140_6.1.1.dir/__/__/__/mesh/core/src/network.c.obj
                0x0002c7fc                network_packet_send
 .text.network_packet_in
                0x0002c8dc      0x2dc examples/experimental_dimming/dimming_client/CMakeFiles/light_switch_dimming_client_nrf52840_xxAA_s140_6.1.1.dir/__/__/__/mesh/core/src/network.c.obj
                0x0002c8dc                network_packet_in
 .text.nonce_type_get
                0x0002cbb8       0x16 examples/experimental_dimming/dimming_client/CMakeFiles/light_switch_dimming_client_nrf52840_xxAA_s140_6.1.1.dir/__/__/__/mesh/core/src/net_packet.c.obj
 .text.header_transfuscate
                0x0002cbce       0x54 examples/experimental_dimming/dimming_client/CMakeFiles/light_switch_dimming_client_nrf52840_xxAA_s140_6.1.1.dir/__/__/__/mesh/core/src/net_packet.c.obj
 *fill*         0x0002cc22        0x2 
 .text.try_decrypt
                0x0002cc24      0x18c examples/experimental_dimming/dimming_client/CMakeFiles/light_switch_dimming_client_nrf52840_xxAA_s140_6.1.1.dir/__/__/__/mesh/core/src/net_packet.c.obj
 .text.net_packet_decrypt
                0x0002cdb0       0x94 examples/experimental_dimming/dimming_client/CMakeFiles/light_switch_dimming_client_nrf52840_xxAA_s140_6.1.1.dir/__/__/__/mesh/core/src/net_packet.c.obj
                0x0002cdb0                net_packet_decrypt
 .text.net_packet_encrypt
                0x0002ce44       0x7e examples/experimental_dimming/dimming_client/CMakeFiles/light_switch_dimming_client_nrf52840_xxAA_s140_6.1.1.dir/__/__/__/mesh/core/src/net_packet.c.obj
                0x0002ce44                net_packet_encrypt
 .text.net_packet_header_set
                0x0002cec2       0xaa examples/experimental_dimming/dimming_client/CMakeFiles/light_switch_dimming_client_nrf52840_xxAA_s140_6.1.1.dir/__/__/__/mesh/core/src/net_packet.c.obj
                0x0002cec2                net_packet_header_set
 .text.net_packet_payload_len_get
                0x0002cf6c       0x10 examples/experimental_dimming/dimming_client/CMakeFiles/light_switch_dimming_client_nrf52840_xxAA_s140_6.1.1.dir/__/__/__/mesh/core/src/net_packet.c.obj
                0x0002cf6c                net_packet_payload_len_get
 .text.net_packet_from_payload
                0x0002cf7c        0x4 examples/experimental_dimming/dimming_client/CMakeFiles/light_switch_dimming_client_nrf52840_xxAA_s140_6.1.1.dir/__/__/__/mesh/core/src/net_packet.c.obj
                0x0002cf7c                net_packet_from_payload
 .text.net_packet_payload_get
                0x0002cf80        0x4 examples/experimental_dimming/dimming_client/CMakeFiles/light_switch_dimming_client_nrf52840_xxAA_s140_6.1.1.dir/__/__/__/mesh/core/src/net_packet.c.obj
                0x0002cf80                net_packet_payload_get
 .text.net_packet_obfuscation_start_get
                0x0002cf84        0x4 examples/experimental_dimming/dimming_client/CMakeFiles/light_switch_dimming_client_nrf52840_xxAA_s140_6.1.1.dir/__/__/__/mesh/core/src/net_packet.c.obj
                0x0002cf84                net_packet_obfuscation_start_get
 .text.stage_get_available
                0x0002cf88       0x24 examples/experimental_dimming/dimming_client/CMakeFiles/light_switch_dimming_client_nrf52840_xxAA_s140_6.1.1.dir/__/__/__/mesh/core/src/msqueue.c.obj
 .text.msq_get  0x0002cfac       0x38 examples/experimental_dimming/dimming_client/CMakeFiles/light_switch_dimming_client_nrf52840_xxAA_s140_6.1.1.dir/__/__/__/mesh/core/src/msqueue.c.obj
                0x0002cfac                msq_get
 .text.msq_move
                0x0002cfe4       0x2e examples/experimental_dimming/dimming_client/CMakeFiles/light_switch_dimming_client_nrf52840_xxAA_s140_6.1.1.dir/__/__/__/mesh/core/src/msqueue.c.obj
                0x0002cfe4                msq_move
 .text.msq_reset
                0x0002d012       0x20 examples/experimental_dimming/dimming_client/CMakeFiles/light_switch_dimming_client_nrf52840_xxAA_s140_6.1.1.dir/__/__/__/mesh/core/src/msqueue.c.obj
                0x0002d012                msq_reset
 .text.msq_init
                0x0002d032       0x48 examples/experimental_dimming/dimming_client/CMakeFiles/light_switch_dimming_client_nrf52840_xxAA_s140_6.1.1.dir/__/__/__/mesh/core/src/msqueue.c.obj
                0x0002d032                msq_init
 .text.msq_available
                0x0002d07a       0x26 examples/experimental_dimming/dimming_client/CMakeFiles/light_switch_dimming_client_nrf52840_xxAA_s140_6.1.1.dir/__/__/__/mesh/core/src/msqueue.c.obj
                0x0002d07a                msq_available
 .text.nrf_mesh_keygen_aid
                0x0002d0a0       0x12 examples/experimental_dimming/dimming_client/CMakeFiles/light_switch_dimming_client_nrf52840_xxAA_s140_6.1.1.dir/__/__/__/mesh/core/src/nrf_mesh_keygen.c.obj
                0x0002d0a0                nrf_mesh_keygen_aid
 .text.nrf_mesh_keygen_network_secmat
                0x0002d0b2       0x20 examples/experimental_dimming/dimming_client/CMakeFiles/light_switch_dimming_client_nrf52840_xxAA_s140_6.1.1.dir/__/__/__/mesh/core/src/nrf_mesh_keygen.c.obj
                0x0002d0b2                nrf_mesh_keygen_network_secmat
 *fill*         0x0002d0d2        0x2 
 .text.nrf_mesh_keygen_beacon_secmat
                0x0002d0d4       0x50 examples/experimental_dimming/dimming_client/CMakeFiles/light_switch_dimming_client_nrf52840_xxAA_s140_6.1.1.dir/__/__/__/mesh/core/src/nrf_mesh_keygen.c.obj
                0x0002d0d4                nrf_mesh_keygen_beacon_secmat
 .text.nrf_mesh_keygen_identitykey
                0x0002d124       0x4c examples/experimental_dimming/dimming_client/CMakeFiles/light_switch_dimming_client_nrf52840_xxAA_s140_6.1.1.dir/__/__/__/mesh/core/src/nrf_mesh_keygen.c.obj
                0x0002d124                nrf_mesh_keygen_identitykey
 .text.nrf_mesh_keygen_virtual_address
                0x0002d170       0x50 examples/experimental_dimming/dimming_client/CMakeFiles/light_switch_dimming_client_nrf52840_xxAA_s140_6.1.1.dir/__/__/__/mesh/core/src/nrf_mesh_keygen.c.obj
                0x0002d170                nrf_mesh_keygen_virtual_address
 .text.erase_at
                0x0002d1c0       0x14 examples/experimental_dimming/dimming_client/CMakeFiles/light_switch_dimming_client_nrf52840_xxAA_s140_6.1.1.dir/__/__/__/mesh/core/src/cache.c.obj
 .text.cache_init
                0x0002d1d4       0x1e examples/experimental_dimming/dimming_client/CMakeFiles/light_switch_dimming_client_nrf52840_xxAA_s140_6.1.1.dir/__/__/__/mesh/core/src/cache.c.obj
                0x0002d1d4                cache_init
 .text.cache_has_elem
                0x0002d1f2       0x40 examples/experimental_dimming/dimming_client/CMakeFiles/light_switch_dimming_client_nrf52840_xxAA_s140_6.1.1.dir/__/__/__/mesh/core/src/cache.c.obj
                0x0002d1f2                cache_has_elem
 .text.cache_put
                0x0002d232       0x30 examples/experimental_dimming/dimming_client/CMakeFiles/light_switch_dimming_client_nrf52840_xxAA_s140_6.1.1.dir/__/__/__/mesh/core/src/cache.c.obj
                0x0002d232                cache_put
 .text.list_insert
                0x0002d262       0x1c examples/experimental_dimming/dimming_client/CMakeFiles/light_switch_dimming_client_nrf52840_xxAA_s140_6.1.1.dir/__/__/__/mesh/core/src/list.c.obj
 .text.list_add
                0x0002d27e       0x42 examples/experimental_dimming/dimming_client/CMakeFiles/light_switch_dimming_client_nrf52840_xxAA_s140_6.1.1.dir/__/__/__/mesh/core/src/list.c.obj
                0x0002d27e                list_add
 .text.list_remove
                0x0002d2c0       0x3a examples/experimental_dimming/dimming_client/CMakeFiles/light_switch_dimming_client_nrf52840_xxAA_s140_6.1.1.dir/__/__/__/mesh/core/src/list.c.obj
                0x0002d2c0                list_remove
 .text.list_compare_add
                0x0002d2fa       0x56 examples/experimental_dimming/dimming_client/CMakeFiles/light_switch_dimming_client_nrf52840_xxAA_s140_6.1.1.dir/__/__/__/mesh/core/src/list.c.obj
                0x0002d2fa                list_compare_add
 .text.log_callback_rtt
                0x0002d350       0x2c examples/experimental_dimming/dimming_client/CMakeFiles/light_switch_dimming_client_nrf52840_xxAA_s140_6.1.1.dir/__/__/__/mesh/core/src/log.c.obj
                0x0002d350                log_callback_rtt
 .text.log_init
                0x0002d37c       0x1c examples/experimental_dimming/dimming_client/CMakeFiles/light_switch_dimming_client_nrf52840_xxAA_s140_6.1.1.dir/__/__/__/mesh/core/src/log.c.obj
                0x0002d37c                log_init
 .text.log_vprintf
                0x0002d398       0x1c examples/experimental_dimming/dimming_client/CMakeFiles/light_switch_dimming_client_nrf52840_xxAA_s140_6.1.1.dir/__/__/__/mesh/core/src/log.c.obj
                0x0002d398                log_vprintf
 .text.log_printf
                0x0002d3b4       0x18 examples/experimental_dimming/dimming_client/CMakeFiles/light_switch_dimming_client_nrf52840_xxAA_s140_6.1.1.dir/__/__/__/mesh/core/src/log.c.obj
                0x0002d3b4                log_printf
 .text.get_area_end
                0x0002d3cc        0xc examples/experimental_dimming/dimming_client/CMakeFiles/light_switch_dimming_client_nrf52840_xxAA_s140_6.1.1.dir/__/__/__/mesh/core/src/flash_manager.c.obj
 .text.handle_matches_filter
                0x0002d3d8       0x26 examples/experimental_dimming/dimming_client/CMakeFiles/light_switch_dimming_client_nrf52840_xxAA_s140_6.1.1.dir/__/__/__/mesh/core/src/flash_manager.c.obj
 .text.flash_area_is_blank
                0x0002d3fe       0x2c examples/experimental_dimming/dimming_client/CMakeFiles/light_switch_dimming_client_nrf52840_xxAA_s140_6.1.1.dir/__/__/__/mesh/core/src/flash_manager.c.obj
 *fill*         0x0002d42a        0x2 
 .text.get_packet_buffer
                0x0002d42c       0x20 examples/experimental_dimming/dimming_client/CMakeFiles/light_switch_dimming_client_nrf52840_xxAA_s140_6.1.1.dir/__/__/__/mesh/core/src/flash_manager.c.obj
 .text.flash    0x0002d44c       0x1c examples/experimental_dimming/dimming_client/CMakeFiles/light_switch_dimming_client_nrf52840_xxAA_s140_6.1.1.dir/__/__/__/mesh/core/src/flash_manager.c.obj
 .text.free_packet_buffer
                0x0002d468       0x3c examples/experimental_dimming/dimming_client/CMakeFiles/light_switch_dimming_client_nrf52840_xxAA_s140_6.1.1.dir/__/__/__/mesh/core/src/flash_manager.c.obj
 .text.iterate_callback_entry_copy
                0x0002d4a4       0x38 examples/experimental_dimming/dimming_client/CMakeFiles/light_switch_dimming_client_nrf52840_xxAA_s140_6.1.1.dir/__/__/__/mesh/core/src/flash_manager.c.obj
 .text.reserve_action_buffer
                0x0002d4dc       0x24 examples/experimental_dimming/dimming_client/CMakeFiles/light_switch_dimming_client_nrf52840_xxAA_s140_6.1.1.dir/__/__/__/mesh/core/src/flash_manager.c.obj
 .text.commit_action_buffer
                0x0002d500       0x18 examples/experimental_dimming/dimming_client/CMakeFiles/light_switch_dimming_client_nrf52840_xxAA_s140_6.1.1.dir/__/__/__/mesh/core/src/flash_manager.c.obj
 .text.schedule_processing
                0x0002d518        0xc examples/experimental_dimming/dimming_client/CMakeFiles/light_switch_dimming_client_nrf52840_xxAA_s140_6.1.1.dir/__/__/__/mesh/core/src/flash_manager.c.obj
 .text.get_next_entry
                0x0002d524       0x34 examples/experimental_dimming/dimming_client/CMakeFiles/light_switch_dimming_client_nrf52840_xxAA_s140_6.1.1.dir/__/__/__/mesh/core/src/flash_manager.c.obj
 .text.get_last_entry.isra.1
                0x0002d558       0x30 examples/experimental_dimming/dimming_client/CMakeFiles/light_switch_dimming_client_nrf52840_xxAA_s140_6.1.1.dir/__/__/__/mesh/core/src/flash_manager.c.obj
 .text.process_action_queue
                0x0002d588      0x3fc examples/experimental_dimming/dimming_client/CMakeFiles/light_switch_dimming_client_nrf52840_xxAA_s140_6.1.1.dir/__/__/__/mesh/core/src/flash_manager.c.obj
 .text.flash_op_ended_callback
                0x0002d984       0x24 examples/experimental_dimming/dimming_client/CMakeFiles/light_switch_dimming_client_nrf52840_xxAA_s140_6.1.1.dir/__/__/__/mesh/core/src/flash_manager.c.obj
 .text.flash_manager_init
                0x0002d9a8       0x68 examples/experimental_dimming/dimming_client/CMakeFiles/light_switch_dimming_client_nrf52840_xxAA_s140_6.1.1.dir/__/__/__/mesh/core/src/flash_manager.c.obj
                0x0002d9a8                flash_manager_init
 .text.flash_manager_remove
                0x0002da10       0x24 examples/experimental_dimming/dimming_client/CMakeFiles/light_switch_dimming_client_nrf52840_xxAA_s140_6.1.1.dir/__/__/__/mesh/core/src/flash_manager.c.obj
                0x0002da10                flash_manager_remove
 .text.flash_manager_entries_read
                0x0002da34       0xea examples/experimental_dimming/dimming_client/CMakeFiles/light_switch_dimming_client_nrf52840_xxAA_s140_6.1.1.dir/__/__/__/mesh/core/src/flash_manager.c.obj
                0x0002da34                flash_manager_entries_read
 *fill*         0x0002db1e        0x2 
 .text.flash_manager_entry_read
                0x0002db20       0x50 examples/experimental_dimming/dimming_client/CMakeFiles/light_switch_dimming_client_nrf52840_xxAA_s140_6.1.1.dir/__/__/__/mesh/core/src/flash_manager.c.obj
                0x0002db20                flash_manager_entry_read
 .text.flash_manager_entry_count_get
                0x0002db70       0x1e examples/experimental_dimming/dimming_client/CMakeFiles/light_switch_dimming_client_nrf52840_xxAA_s140_6.1.1.dir/__/__/__/mesh/core/src/flash_manager.c.obj
                0x0002db70                flash_manager_entry_count_get
 .text.flash_manager_entry_alloc
                0x0002db8e       0x5c examples/experimental_dimming/dimming_client/CMakeFiles/light_switch_dimming_client_nrf52840_xxAA_s140_6.1.1.dir/__/__/__/mesh/core/src/flash_manager.c.obj
                0x0002db8e                flash_manager_entry_alloc
 *fill*         0x0002dbea        0x2 
 .text.flash_manager_entry_commit
                0x0002dbec       0x2c examples/experimental_dimming/dimming_client/CMakeFiles/light_switch_dimming_client_nrf52840_xxAA_s140_6.1.1.dir/__/__/__/mesh/core/src/flash_manager.c.obj
                0x0002dbec                flash_manager_entry_commit
 .text.flash_manager_entry_invalidate
                0x0002dc18       0x4e examples/experimental_dimming/dimming_client/CMakeFiles/light_switch_dimming_client_nrf52840_xxAA_s140_6.1.1.dir/__/__/__/mesh/core/src/flash_manager.c.obj
                0x0002dc18                flash_manager_entry_invalidate
 *fill*         0x0002dc66        0x2 
 .text.flash_manager_add
                0x0002dc68      0x220 examples/experimental_dimming/dimming_client/CMakeFiles/light_switch_dimming_client_nrf52840_xxAA_s140_6.1.1.dir/__/__/__/mesh/core/src/flash_manager.c.obj
                0x0002dc68                flash_manager_add
 .text.flash_manager_mem_listener_register
                0x0002de88       0x30 examples/experimental_dimming/dimming_client/CMakeFiles/light_switch_dimming_client_nrf52840_xxAA_s140_6.1.1.dir/__/__/__/mesh/core/src/flash_manager.c.obj
                0x0002de88                flash_manager_mem_listener_register
 .text.flash_manager_is_stable
                0x0002deb8       0x20 examples/experimental_dimming/dimming_client/CMakeFiles/light_switch_dimming_client_nrf52840_xxAA_s140_6.1.1.dir/__/__/__/mesh/core/src/flash_manager.c.obj
                0x0002deb8                flash_manager_is_stable
 .text.flash_manager_on_defrag_end
                0x0002ded8       0x4c examples/experimental_dimming/dimming_client/CMakeFiles/light_switch_dimming_client_nrf52840_xxAA_s140_6.1.1.dir/__/__/__/mesh/core/src/flash_manager.c.obj
                0x0002ded8                flash_manager_on_defrag_end
 .text.flash_manager_recovery_page_get
                0x0002df24        0x4 examples/experimental_dimming/dimming_client/CMakeFiles/light_switch_dimming_client_nrf52840_xxAA_s140_6.1.1.dir/__/__/__/mesh/core/src/flash_manager.c.obj
                0x0002df24                flash_manager_recovery_page_get
 .text.flash_manager_action_queue_empty_cb_set
                0x0002df28       0x1c examples/experimental_dimming/dimming_client/CMakeFiles/light_switch_dimming_client_nrf52840_xxAA_s140_6.1.1.dir/__/__/__/mesh/core/src/flash_manager.c.obj
                0x0002df28                flash_manager_action_queue_empty_cb_set
 .text.utils_xor
                0x0002df44       0x14 examples/experimental_dimming/dimming_client/CMakeFiles/light_switch_dimming_client_nrf52840_xxAA_s140_6.1.1.dir/__/__/__/mesh/core/src/ccm_soft.c.obj
 .text.sd_ecb_block_encrypt
                0x0002df58        0x4 examples/experimental_dimming/dimming_client/CMakeFiles/light_switch_dimming_client_nrf52840_xxAA_s140_6.1.1.dir/__/__/__/mesh/core/src/ccm_soft.c.obj
 .text.ccm_soft_crypt
                0x0002df5c       0x4c examples/experimental_dimming/dimming_client/CMakeFiles/light_switch_dimming_client_nrf52840_xxAA_s140_6.1.1.dir/__/__/__/mesh/core/src/ccm_soft.c.obj
 .text.ccm_soft_authenticate_blocks
                0x0002dfa8       0x6c examples/experimental_dimming/dimming_client/CMakeFiles/light_switch_dimming_client_nrf52840_xxAA_s140_6.1.1.dir/__/__/__/mesh/core/src/ccm_soft.c.obj
 .text.ccm_soft_authenticate
                0x0002e014       0x94 examples/experimental_dimming/dimming_client/CMakeFiles/light_switch_dimming_client_nrf52840_xxAA_s140_6.1.1.dir/__/__/__/mesh/core/src/ccm_soft.c.obj
 .text.ccm_soft_encrypt
                0x0002e0a8       0x54 examples/experimental_dimming/dimming_client/CMakeFiles/light_switch_dimming_client_nrf52840_xxAA_s140_6.1.1.dir/__/__/__/mesh/core/src/ccm_soft.c.obj
                0x0002e0a8                ccm_soft_encrypt
 .text.ccm_soft_decrypt
                0x0002e0fc       0x9c examples/experimental_dimming/dimming_client/CMakeFiles/light_switch_dimming_client_nrf52840_xxAA_s140_6.1.1.dir/__/__/__/mesh/core/src/ccm_soft.c.obj
                0x0002e0fc                ccm_soft_decrypt
 .text.iv_index_get.isra.0
                0x0002e198       0x34 examples/experimental_dimming/dimming_client/CMakeFiles/light_switch_dimming_client_nrf52840_xxAA_s140_6.1.1.dir/__/__/__/mesh/core/src/replay_cache.c.obj
 .text.evt_handler
                0x0002e1cc       0x60 examples/experimental_dimming/dimming_client/CMakeFiles/light_switch_dimming_client_nrf52840_xxAA_s140_6.1.1.dir/__/__/__/mesh/core/src/replay_cache.c.obj
 .text.replay_cache_enable
                0x0002e22c       0x10 examples/experimental_dimming/dimming_client/CMakeFiles/light_switch_dimming_client_nrf52840_xxAA_s140_6.1.1.dir/__/__/__/mesh/core/src/replay_cache.c.obj
                0x0002e22c                replay_cache_enable
 .text.replay_cache_add
                0x0002e23c       0x78 examples/experimental_dimming/dimming_client/CMakeFiles/light_switch_dimming_client_nrf52840_xxAA_s140_6.1.1.dir/__/__/__/mesh/core/src/replay_cache.c.obj
                0x0002e23c                replay_cache_add
 .text.replay_cache_has_elem
                0x0002e2b4       0x50 examples/experimental_dimming/dimming_client/CMakeFiles/light_switch_dimming_client_nrf52840_xxAA_s140_6.1.1.dir/__/__/__/mesh/core/src/replay_cache.c.obj
                0x0002e2b4                replay_cache_has_elem
 .text.replay_cache_clear
                0x0002e304       0x18 examples/experimental_dimming/dimming_client/CMakeFiles/light_switch_dimming_client_nrf52840_xxAA_s140_6.1.1.dir/__/__/__/mesh/core/src/replay_cache.c.obj
                0x0002e304                replay_cache_clear
 .text.replay_cache_init
                0x0002e31c       0x14 examples/experimental_dimming/dimming_client/CMakeFiles/light_switch_dimming_client_nrf52840_xxAA_s140_6.1.1.dir/__/__/__/mesh/core/src/replay_cache.c.obj
                0x0002e31c                replay_cache_init
 .text.beacon_create
                0x0002e330       0x46 examples/experimental_dimming/dimming_client/CMakeFiles/light_switch_dimming_client_nrf52840_xxAA_s140_6.1.1.dir/__/__/__/mesh/core/src/beacon.c.obj
                0x0002e330                beacon_create
 *fill*         0x0002e376        0x2 
 .text.beacon_packet_in
                0x0002e378      0x130 examples/experimental_dimming/dimming_client/CMakeFiles/light_switch_dimming_client_nrf52840_xxAA_s140_6.1.1.dir/__/__/__/mesh/core/src/beacon.c.obj
                0x0002e378                beacon_packet_in
 .text.entry_get
                0x0002e4a8       0x78 examples/experimental_dimming/dimming_client/CMakeFiles/light_switch_dimming_client_nrf52840_xxAA_s140_6.1.1.dir/__/__/__/mesh/core/src/flash_manager_internal.c.obj
                0x0002e4a8                entry_get
 .text.core_tx_complete_cb_set
                0x0002e520        0xc examples/experimental_dimming/dimming_client/CMakeFiles/light_switch_dimming_client_nrf52840_xxAA_s140_6.1.1.dir/__/__/__/mesh/core/src/core_tx.c.obj
                0x0002e520                core_tx_complete_cb_set
 .text.core_tx_packet_alloc
                0x0002e52c       0xac examples/experimental_dimming/dimming_client/CMakeFiles/light_switch_dimming_client_nrf52840_xxAA_s140_6.1.1.dir/__/__/__/mesh/core/src/core_tx.c.obj
                0x0002e52c                core_tx_packet_alloc
 .text.core_tx_packet_send
                0x0002e5d8       0x4c examples/experimental_dimming/dimming_client/CMakeFiles/light_switch_dimming_client_nrf52840_xxAA_s140_6.1.1.dir/__/__/__/mesh/core/src/core_tx.c.obj
                0x0002e5d8                core_tx_packet_send
 .text.core_tx_packet_discard
                0x0002e624       0x40 examples/experimental_dimming/dimming_client/CMakeFiles/light_switch_dimming_client_nrf52840_xxAA_s140_6.1.1.dir/__/__/__/mesh/core/src/core_tx.c.obj
                0x0002e624                core_tx_packet_discard
 .text.core_tx_complete
                0x0002e664       0x34 examples/experimental_dimming/dimming_client/CMakeFiles/light_switch_dimming_client_nrf52840_xxAA_s140_6.1.1.dir/__/__/__/mesh/core/src/core_tx.c.obj
                0x0002e664                core_tx_complete
 .text.core_tx_bearer_add
                0x0002e698       0x74 examples/experimental_dimming/dimming_client/CMakeFiles/light_switch_dimming_client_nrf52840_xxAA_s140_6.1.1.dir/__/__/__/mesh/core/src/core_tx.c.obj
                0x0002e698                core_tx_bearer_add
 .text.hb_pub_deleter
                0x0002e70c       0x28 examples/experimental_dimming/dimming_client/CMakeFiles/light_switch_dimming_client_nrf52840_xxAA_s140_6.1.1.dir/__/__/__/mesh/core/src/heartbeat.c.obj
 .text.hb_pub_getter
                0x0002e734       0x2c examples/experimental_dimming/dimming_client/CMakeFiles/light_switch_dimming_client_nrf52840_xxAA_s140_6.1.1.dir/__/__/__/mesh/core/src/heartbeat.c.obj
 .text.hb_pub_setter
                0x0002e760       0xd0 examples/experimental_dimming/dimming_client/CMakeFiles/light_switch_dimming_client_nrf52840_xxAA_s140_6.1.1.dir/__/__/__/mesh/core/src/heartbeat.c.obj
 .text.heartbeat_subscription_timer_cb
                0x0002e830       0x3c examples/experimental_dimming/dimming_client/CMakeFiles/light_switch_dimming_client_nrf52840_xxAA_s140_6.1.1.dir/__/__/__/mesh/core/src/heartbeat.c.obj
 .text.heartbeat_opcode_handle
                0x0002e86c       0x88 examples/experimental_dimming/dimming_client/CMakeFiles/light_switch_dimming_client_nrf52840_xxAA_s140_6.1.1.dir/__/__/__/mesh/core/src/heartbeat.c.obj
 .text.heartbeat_publish
                0x0002e8f4       0xb8 examples/experimental_dimming/dimming_client/CMakeFiles/light_switch_dimming_client_nrf52840_xxAA_s140_6.1.1.dir/__/__/__/mesh/core/src/heartbeat.c.obj
 .text.on_feature_update
                0x0002e9ac       0x34 examples/experimental_dimming/dimming_client/CMakeFiles/light_switch_dimming_client_nrf52840_xxAA_s140_6.1.1.dir/__/__/__/mesh/core/src/heartbeat.c.obj
 .text.heartbeat_relay_listener_cb
                0x0002e9e0       0x1c examples/experimental_dimming/dimming_client/CMakeFiles/light_switch_dimming_client_nrf52840_xxAA_s140_6.1.1.dir/__/__/__/mesh/core/src/heartbeat.c.obj
 .text.heartbeat_proxy_listener_cb
                0x0002e9fc       0x14 examples/experimental_dimming/dimming_client/CMakeFiles/light_switch_dimming_client_nrf52840_xxAA_s140_6.1.1.dir/__/__/__/mesh/core/src/heartbeat.c.obj
 .text.heartbeat_core_evt_cb
                0x0002ea10       0x18 examples/experimental_dimming/dimming_client/CMakeFiles/light_switch_dimming_client_nrf52840_xxAA_s140_6.1.1.dir/__/__/__/mesh/core/src/heartbeat.c.obj
 .text.heartbeat_publication_timer_cb
                0x0002ea28       0x54 examples/experimental_dimming/dimming_client/CMakeFiles/light_switch_dimming_client_nrf52840_xxAA_s140_6.1.1.dir/__/__/__/mesh/core/src/heartbeat.c.obj
 .text.heartbeat_init
                0x0002ea7c       0x58 examples/experimental_dimming/dimming_client/CMakeFiles/light_switch_dimming_client_nrf52840_xxAA_s140_6.1.1.dir/__/__/__/mesh/core/src/heartbeat.c.obj
                0x0002ea7c                heartbeat_init
 .text.heartbeat_subscription_set
                0x0002ead4       0xd0 examples/experimental_dimming/dimming_client/CMakeFiles/light_switch_dimming_client_nrf52840_xxAA_s140_6.1.1.dir/__/__/__/mesh/core/src/heartbeat.c.obj
                0x0002ead4                heartbeat_subscription_set
 .text.heartbeat_subscription_get
                0x0002eba4        0x8 examples/experimental_dimming/dimming_client/CMakeFiles/light_switch_dimming_client_nrf52840_xxAA_s140_6.1.1.dir/__/__/__/mesh/core/src/heartbeat.c.obj
                0x0002eba4                heartbeat_subscription_get
 .text.heartbeat_publication_get
                0x0002ebac        0x8 examples/experimental_dimming/dimming_client/CMakeFiles/light_switch_dimming_client_nrf52840_xxAA_s140_6.1.1.dir/__/__/__/mesh/core/src/heartbeat.c.obj
                0x0002ebac                heartbeat_publication_get
 .text.heartbeat_publication_set
                0x0002ebb4       0x18 examples/experimental_dimming/dimming_client/CMakeFiles/light_switch_dimming_client_nrf52840_xxAA_s140_6.1.1.dir/__/__/__/mesh/core/src/heartbeat.c.obj
                0x0002ebb4                heartbeat_publication_set
 .text.heartbeat_public_info_getter_register
                0x0002ebcc       0x14 examples/experimental_dimming/dimming_client/CMakeFiles/light_switch_dimming_client_nrf52840_xxAA_s140_6.1.1.dir/__/__/__/mesh/core/src/heartbeat.c.obj
                0x0002ebcc                heartbeat_public_info_getter_register
 .text.beacon_deleter
                0x0002ebe0       0x34 examples/experimental_dimming/dimming_client/CMakeFiles/light_switch_dimming_client_nrf52840_xxAA_s140_6.1.1.dir/__/__/__/mesh/core/src/net_beacon.c.obj
 .text.beacon_getter
                0x0002ec14       0x24 examples/experimental_dimming/dimming_client/CMakeFiles/light_switch_dimming_client_nrf52840_xxAA_s140_6.1.1.dir/__/__/__/mesh/core/src/net_beacon.c.obj
 .text.beacon_setter
                0x0002ec38       0x5c examples/experimental_dimming/dimming_client/CMakeFiles/light_switch_dimming_client_nrf52840_xxAA_s140_6.1.1.dir/__/__/__/mesh/core/src/net_beacon.c.obj
 .text.make_network_beacon_packet
                0x0002ec94       0x50 examples/experimental_dimming/dimming_client/CMakeFiles/light_switch_dimming_client_nrf52840_xxAA_s140_6.1.1.dir/__/__/__/mesh/core/src/net_beacon.c.obj
 .text.beacon_tx
                0x0002ece4      0x188 examples/experimental_dimming/dimming_client/CMakeFiles/light_switch_dimming_client_nrf52840_xxAA_s140_6.1.1.dir/__/__/__/mesh/core/src/net_beacon.c.obj
 .text.tx_complete_cb
                0x0002ee6c        0xe examples/experimental_dimming/dimming_client/CMakeFiles/light_switch_dimming_client_nrf52840_xxAA_s140_6.1.1.dir/__/__/__/mesh/core/src/net_beacon.c.obj
 .text.beacon_tx_timeout
                0x0002ee7a        0x4 examples/experimental_dimming/dimming_client/CMakeFiles/light_switch_dimming_client_nrf52840_xxAA_s140_6.1.1.dir/__/__/__/mesh/core/src/net_beacon.c.obj
 .text.is_valid_beacon_pkt.part.1
                0x0002ee7e       0x30 examples/experimental_dimming/dimming_client/CMakeFiles/light_switch_dimming_client_nrf52840_xxAA_s140_6.1.1.dir/__/__/__/mesh/core/src/net_beacon.c.obj
 *fill*         0x0002eeae        0x2 
 .text.net_beacon_init
                0x0002eeb0       0x7c examples/experimental_dimming/dimming_client/CMakeFiles/light_switch_dimming_client_nrf52840_xxAA_s140_6.1.1.dir/__/__/__/mesh/core/src/net_beacon.c.obj
                0x0002eeb0                net_beacon_init
 .text.net_beacon_enable
                0x0002ef2c       0x28 examples/experimental_dimming/dimming_client/CMakeFiles/light_switch_dimming_client_nrf52840_xxAA_s140_6.1.1.dir/__/__/__/mesh/core/src/net_beacon.c.obj
                0x0002ef2c                net_beacon_enable
 .text.net_beacon_state_set
                0x0002ef54       0x20 examples/experimental_dimming/dimming_client/CMakeFiles/light_switch_dimming_client_nrf52840_xxAA_s140_6.1.1.dir/__/__/__/mesh/core/src/net_beacon.c.obj
                0x0002ef54                net_beacon_state_set
 .text.net_beacon_state_get
                0x0002ef74       0x24 examples/experimental_dimming/dimming_client/CMakeFiles/light_switch_dimming_client_nrf52840_xxAA_s140_6.1.1.dir/__/__/__/mesh/core/src/net_beacon.c.obj
                0x0002ef74                net_beacon_state_get
 .text.net_beacon_build
                0x0002ef98       0x24 examples/experimental_dimming/dimming_client/CMakeFiles/light_switch_dimming_client_nrf52840_xxAA_s140_6.1.1.dir/__/__/__/mesh/core/src/net_beacon.c.obj
                0x0002ef98                net_beacon_build
 .text.net_beacon_packet_in
                0x0002efbc      0x16c examples/experimental_dimming/dimming_client/CMakeFiles/light_switch_dimming_client_nrf52840_xxAA_s140_6.1.1.dir/__/__/__/mesh/core/src/net_beacon.c.obj
                0x0002efbc                net_beacon_packet_in
 .text.listeners_notify
                0x0002f128       0x4c examples/experimental_dimming/dimming_client/CMakeFiles/light_switch_dimming_client_nrf52840_xxAA_s140_6.1.1.dir/__/__/__/mesh/core/src/mesh_config.c.obj
 .text.entry_flags_get.isra.0
                0x0002f174       0x1c examples/experimental_dimming/dimming_client/CMakeFiles/light_switch_dimming_client_nrf52840_xxAA_s140_6.1.1.dir/__/__/__/mesh/core/src/mesh_config.c.obj
 .text.entry_params_find
                0x0002f190       0x38 examples/experimental_dimming/dimming_client/CMakeFiles/light_switch_dimming_client_nrf52840_xxAA_s140_6.1.1.dir/__/__/__/mesh/core/src/mesh_config.c.obj
 .text.restore_callback
                0x0002f1c8       0x66 examples/experimental_dimming/dimming_client/CMakeFiles/light_switch_dimming_client_nrf52840_xxAA_s140_6.1.1.dir/__/__/__/mesh/core/src/mesh_config.c.obj
 *fill*         0x0002f22e        0x2 
 .text.dirty_entries_process
                0x0002f230       0xdc examples/experimental_dimming/dimming_client/CMakeFiles/light_switch_dimming_client_nrf52840_xxAA_s140_6.1.1.dir/__/__/__/mesh/core/src/mesh_config.c.obj
 .text.mesh_config_init
                0x0002f30c       0xa0 examples/experimental_dimming/dimming_client/CMakeFiles/light_switch_dimming_client_nrf52840_xxAA_s140_6.1.1.dir/__/__/__/mesh/core/src/mesh_config.c.obj
                0x0002f30c                mesh_config_init
 .text.mesh_config_load
                0x0002f3ac        0xc examples/experimental_dimming/dimming_client/CMakeFiles/light_switch_dimming_client_nrf52840_xxAA_s140_6.1.1.dir/__/__/__/mesh/core/src/mesh_config.c.obj
                0x0002f3ac                mesh_config_load
 .text.mesh_config_is_busy
                0x0002f3b8       0x34 examples/experimental_dimming/dimming_client/CMakeFiles/light_switch_dimming_client_nrf52840_xxAA_s140_6.1.1.dir/__/__/__/mesh/core/src/mesh_config.c.obj
                0x0002f3b8                mesh_config_is_busy
 .text.backend_evt_handler
                0x0002f3ec       0x88 examples/experimental_dimming/dimming_client/CMakeFiles/light_switch_dimming_client_nrf52840_xxAA_s140_6.1.1.dir/__/__/__/mesh/core/src/mesh_config.c.obj
 .text.mesh_config_entry_set
                0x0002f474       0x80 examples/experimental_dimming/dimming_client/CMakeFiles/light_switch_dimming_client_nrf52840_xxAA_s140_6.1.1.dir/__/__/__/mesh/core/src/mesh_config.c.obj
                0x0002f474                mesh_config_entry_set
 .text.mesh_config_entry_get
                0x0002f4f4       0x3c examples/experimental_dimming/dimming_client/CMakeFiles/light_switch_dimming_client_nrf52840_xxAA_s140_6.1.1.dir/__/__/__/mesh/core/src/mesh_config.c.obj
                0x0002f4f4                mesh_config_entry_get
 .text.mesh_config_entry_delete
                0x0002f530       0x4a examples/experimental_dimming/dimming_client/CMakeFiles/light_switch_dimming_client_nrf52840_xxAA_s140_6.1.1.dir/__/__/__/mesh/core/src/mesh_config.c.obj
                0x0002f530                mesh_config_entry_delete
 *fill*         0x0002f57a        0x2 
 .text.mesh_config_clear
                0x0002f57c       0x4c examples/experimental_dimming/dimming_client/CMakeFiles/light_switch_dimming_client_nrf52840_xxAA_s140_6.1.1.dir/__/__/__/mesh/core/src/mesh_config.c.obj
                0x0002f57c                mesh_config_clear
 .text.fsm_event_post_try
                0x0002f5c8       0xaa examples/experimental_dimming/dimming_client/CMakeFiles/light_switch_dimming_client_nrf52840_xxAA_s140_6.1.1.dir/__/__/__/mesh/core/src/fsm.c.obj
 .text.fsm_init
                0x0002f672       0x66 examples/experimental_dimming/dimming_client/CMakeFiles/light_switch_dimming_client_nrf52840_xxAA_s140_6.1.1.dir/__/__/__/mesh/core/src/fsm.c.obj
                0x0002f672                fsm_init
 .text.fsm_event_post
                0x0002f6d8       0x40 examples/experimental_dimming/dimming_client/CMakeFiles/light_switch_dimming_client_nrf52840_xxAA_s140_6.1.1.dir/__/__/__/mesh/core/src/fsm.c.obj
                0x0002f6d8                fsm_event_post
 .text.fsm_is_processing
                0x0002f718        0xa examples/experimental_dimming/dimming_client/CMakeFiles/light_switch_dimming_client_nrf52840_xxAA_s140_6.1.1.dir/__/__/__/mesh/core/src/fsm.c.obj
                0x0002f718                fsm_is_processing
 .text.dummy_event
                0x0002f722        0x2 examples/experimental_dimming/dimming_client/CMakeFiles/light_switch_dimming_client_nrf52840_xxAA_s140_6.1.1.dir/__/__/__/mesh/core/src/mesh_config_backend.c.obj
 .text.file_get
                0x0002f724       0x34 examples/experimental_dimming/dimming_client/CMakeFiles/light_switch_dimming_client_nrf52840_xxAA_s140_6.1.1.dir/__/__/__/mesh/core/src/mesh_config_backend.c.obj
 .text.mesh_config_backend_init
                0x0002f758      0x11c examples/experimental_dimming/dimming_client/CMakeFiles/light_switch_dimming_client_nrf52840_xxAA_s140_6.1.1.dir/__/__/__/mesh/core/src/mesh_config_backend.c.obj
                0x0002f758                mesh_config_backend_init
 .text.mesh_config_backend_store
                0x0002f874       0x4e examples/experimental_dimming/dimming_client/CMakeFiles/light_switch_dimming_client_nrf52840_xxAA_s140_6.1.1.dir/__/__/__/mesh/core/src/mesh_config_backend.c.obj
                0x0002f874                mesh_config_backend_store
 .text.mesh_config_backend_erase
                0x0002f8c2       0x34 examples/experimental_dimming/dimming_client/CMakeFiles/light_switch_dimming_client_nrf52840_xxAA_s140_6.1.1.dir/__/__/__/mesh/core/src/mesh_config_backend.c.obj
                0x0002f8c2                mesh_config_backend_erase
 *fill*         0x0002f8f6        0x2 
 .text.mesh_config_backend_read_all
                0x0002f8f8       0x38 examples/experimental_dimming/dimming_client/CMakeFiles/light_switch_dimming_client_nrf52840_xxAA_s140_6.1.1.dir/__/__/__/mesh/core/src/mesh_config_backend.c.obj
                0x0002f8f8                mesh_config_backend_read_all
 .text.entry_read_cb
                0x0002f930       0x38 examples/experimental_dimming/dimming_client/CMakeFiles/light_switch_dimming_client_nrf52840_xxAA_s140_6.1.1.dir/__/__/__/mesh/core/src/mesh_config_flashman_glue.c.obj
 .text.write_complete_cb
                0x0002f968       0x30 examples/experimental_dimming/dimming_client/CMakeFiles/light_switch_dimming_client_nrf52840_xxAA_s140_6.1.1.dir/__/__/__/mesh/core/src/mesh_config_flashman_glue.c.obj
 .text.invalidate_complete_cb
                0x0002f998       0x2c examples/experimental_dimming/dimming_client/CMakeFiles/light_switch_dimming_client_nrf52840_xxAA_s140_6.1.1.dir/__/__/__/mesh/core/src/mesh_config_flashman_glue.c.obj
 .text.remove_complete_cb
                0x0002f9c4        0x2 examples/experimental_dimming/dimming_client/CMakeFiles/light_switch_dimming_client_nrf52840_xxAA_s140_6.1.1.dir/__/__/__/mesh/core/src/mesh_config_flashman_glue.c.obj
 .text.flash_stable_cb
                0x0002f9c6       0x20 examples/experimental_dimming/dimming_client/CMakeFiles/light_switch_dimming_client_nrf52840_xxAA_s140_6.1.1.dir/__/__/__/mesh/core/src/mesh_config_flashman_glue.c.obj
 *fill*         0x0002f9e6        0x2 
 .text.mesh_config_backend_glue_init
                0x0002f9e8       0x28 examples/experimental_dimming/dimming_client/CMakeFiles/light_switch_dimming_client_nrf52840_xxAA_s140_6.1.1.dir/__/__/__/mesh/core/src/mesh_config_flashman_glue.c.obj
                0x0002f9e8                mesh_config_backend_glue_init
 .text.mesh_config_backend_file_create
                0x0002fa10       0x58 examples/experimental_dimming/dimming_client/CMakeFiles/light_switch_dimming_client_nrf52840_xxAA_s140_6.1.1.dir/__/__/__/mesh/core/src/mesh_config_flashman_glue.c.obj
                0x0002fa10                mesh_config_backend_file_create
 .text.mesh_config_backend_record_write
                0x0002fa68       0x2c examples/experimental_dimming/dimming_client/CMakeFiles/light_switch_dimming_client_nrf52840_xxAA_s140_6.1.1.dir/__/__/__/mesh/core/src/mesh_config_flashman_glue.c.obj
                0x0002fa68                mesh_config_backend_record_write
 .text.mesh_config_backend_record_erase
                0x0002fa94       0x30 examples/experimental_dimming/dimming_client/CMakeFiles/light_switch_dimming_client_nrf52840_xxAA_s140_6.1.1.dir/__/__/__/mesh/core/src/mesh_config_flashman_glue.c.obj
                0x0002fa94                mesh_config_backend_record_erase
 .text.mesh_config_backend_records_read
                0x0002fac4       0x30 examples/experimental_dimming/dimming_client/CMakeFiles/light_switch_dimming_client_nrf52840_xxAA_s140_6.1.1.dir/__/__/__/mesh/core/src/mesh_config_flashman_glue.c.obj
                0x0002fac4                mesh_config_backend_records_read
 .text.mesh_config_record_size_calculate
                0x0002faf4        0xa examples/experimental_dimming/dimming_client/CMakeFiles/light_switch_dimming_client_nrf52840_xxAA_s140_6.1.1.dir/__/__/__/mesh/core/src/mesh_config_flashman_glue.c.obj
                0x0002faf4                mesh_config_record_size_calculate
 .text.mesh_config_backend_file_power_down_time_get
                0x0002fafe       0x24 examples/experimental_dimming/dimming_client/CMakeFiles/light_switch_dimming_client_nrf52840_xxAA_s140_6.1.1.dir/__/__/__/mesh/core/src/mesh_config_flashman_glue.c.obj
                0x0002fafe                mesh_config_backend_file_power_down_time_get
 *fill*         0x0002fb22        0x2 
 .text.packet_discard
                0x0002fb24       0x30 examples/experimental_dimming/dimming_client/CMakeFiles/light_switch_dimming_client_nrf52840_xxAA_s140_6.1.1.dir/__/__/__/mesh/core/src/core_tx_local.c.obj
 .text.packet_send
                0x0002fb54       0x58 examples/experimental_dimming/dimming_client/CMakeFiles/light_switch_dimming_client_nrf52840_xxAA_s140_6.1.1.dir/__/__/__/mesh/core/src/core_tx_local.c.obj
 .text.loopback_process
                0x0002fbac       0x64 examples/experimental_dimming/dimming_client/CMakeFiles/light_switch_dimming_client_nrf52840_xxAA_s140_6.1.1.dir/__/__/__/mesh/core/src/core_tx_local.c.obj
 .text.packet_alloc
                0x0002fc10       0x48 examples/experimental_dimming/dimming_client/CMakeFiles/light_switch_dimming_client_nrf52840_xxAA_s140_6.1.1.dir/__/__/__/mesh/core/src/core_tx_local.c.obj
 .text.core_tx_local_init
                0x0002fc58       0x34 examples/experimental_dimming/dimming_client/CMakeFiles/light_switch_dimming_client_nrf52840_xxAA_s140_6.1.1.dir/__/__/__/mesh/core/src/core_tx_local.c.obj
                0x0002fc58                core_tx_local_init
 .text.core_tx_adv_get
                0x0002fc8c       0x3c examples/experimental_dimming/dimming_client/CMakeFiles/light_switch_dimming_client_nrf52840_xxAA_s140_6.1.1.dir/__/__/__/mesh/core/src/core_tx_adv.c.obj
 .text.core_tx_tx_power_get
                0x0002fcc8       0x30 examples/experimental_dimming/dimming_client/CMakeFiles/light_switch_dimming_client_nrf52840_xxAA_s140_6.1.1.dir/__/__/__/mesh/core/src/core_tx_adv.c.obj
 .text.core_tx_adv_delete
                0x0002fcf8       0x50 examples/experimental_dimming/dimming_client/CMakeFiles/light_switch_dimming_client_nrf52840_xxAA_s140_6.1.1.dir/__/__/__/mesh/core/src/core_tx_adv.c.obj
 .text.core_tx_adv_set
                0x0002fd48       0x6c examples/experimental_dimming/dimming_client/CMakeFiles/light_switch_dimming_client_nrf52840_xxAA_s140_6.1.1.dir/__/__/__/mesh/core/src/core_tx_adv.c.obj
 .text.core_tx_tx_power_delete
                0x0002fdb4       0x30 examples/experimental_dimming/dimming_client/CMakeFiles/light_switch_dimming_client_nrf52840_xxAA_s140_6.1.1.dir/__/__/__/mesh/core/src/core_tx_adv.c.obj
 .text.core_tx_tx_power_set
                0x0002fde4       0x34 examples/experimental_dimming/dimming_client/CMakeFiles/light_switch_dimming_client_nrf52840_xxAA_s140_6.1.1.dir/__/__/__/mesh/core/src/core_tx_adv.c.obj
 .text.core_tx_adv_addr_delete
                0x0002fe18       0x34 examples/experimental_dimming/dimming_client/CMakeFiles/light_switch_dimming_client_nrf52840_xxAA_s140_6.1.1.dir/__/__/__/mesh/core/src/core_tx_adv.c.obj
 .text.core_tx_adv_addr_set
                0x0002fe4c       0x40 examples/experimental_dimming/dimming_client/CMakeFiles/light_switch_dimming_client_nrf52840_xxAA_s140_6.1.1.dir/__/__/__/mesh/core/src/core_tx_adv.c.obj
 .text.core_tx_adv_addr_get
                0x0002fe8c       0x34 examples/experimental_dimming/dimming_client/CMakeFiles/light_switch_dimming_client_nrf52840_xxAA_s140_6.1.1.dir/__/__/__/mesh/core/src/core_tx_adv.c.obj
 .text.packet_discard
                0x0002fec0       0x40 examples/experimental_dimming/dimming_client/CMakeFiles/light_switch_dimming_client_nrf52840_xxAA_s140_6.1.1.dir/__/__/__/mesh/core/src/core_tx_adv.c.obj
 .text.packet_send
                0x0002ff00       0x58 examples/experimental_dimming/dimming_client/CMakeFiles/light_switch_dimming_client_nrf52840_xxAA_s140_6.1.1.dir/__/__/__/mesh/core/src/core_tx_adv.c.obj
 .text.packet_alloc
                0x0002ff58       0x58 examples/experimental_dimming/dimming_client/CMakeFiles/light_switch_dimming_client_nrf52840_xxAA_s140_6.1.1.dir/__/__/__/mesh/core/src/core_tx_adv.c.obj
 .text.adv_tx_complete_callback
                0x0002ffb0       0x20 examples/experimental_dimming/dimming_client/CMakeFiles/light_switch_dimming_client_nrf52840_xxAA_s140_6.1.1.dir/__/__/__/mesh/core/src/core_tx_adv.c.obj
 .text.mesh_opt_core_adv_set
                0x0002ffd0       0x22 examples/experimental_dimming/dimming_client/CMakeFiles/light_switch_dimming_client_nrf52840_xxAA_s140_6.1.1.dir/__/__/__/mesh/core/src/core_tx_adv.c.obj
                0x0002ffd0                mesh_opt_core_adv_set
 .text.mesh_opt_core_adv_get
                0x0002fff2       0x22 examples/experimental_dimming/dimming_client/CMakeFiles/light_switch_dimming_client_nrf52840_xxAA_s140_6.1.1.dir/__/__/__/mesh/core/src/core_tx_adv.c.obj
                0x0002fff2                mesh_opt_core_adv_get
 .text.core_tx_adv_init
                0x00030014       0x60 examples/experimental_dimming/dimming_client/CMakeFiles/light_switch_dimming_client_nrf52840_xxAA_s140_6.1.1.dir/__/__/__/mesh/core/src/core_tx_adv.c.obj
                0x00030014                core_tx_adv_init
 .text.core_tx_adv_is_enabled
                0x00030074       0x20 examples/experimental_dimming/dimming_client/CMakeFiles/light_switch_dimming_client_nrf52840_xxAA_s140_6.1.1.dir/__/__/__/mesh/core/src/core_tx_adv.c.obj
                0x00030074                core_tx_adv_is_enabled
 .text.mesh_mem_init
                0x00030094        0x2 examples/experimental_dimming/dimming_client/CMakeFiles/light_switch_dimming_client_nrf52840_xxAA_s140_6.1.1.dir/__/__/__/mesh/core/src/mesh_mem_stdlib.c.obj
                0x00030094                mesh_mem_init
 .text.mesh_mem_alloc
                0x00030096        0x4 examples/experimental_dimming/dimming_client/CMakeFiles/light_switch_dimming_client_nrf52840_xxAA_s140_6.1.1.dir/__/__/__/mesh/core/src/mesh_mem_stdlib.c.obj
                0x00030096                mesh_mem_alloc
 .text.mesh_mem_free
                0x0003009a        0x4 examples/experimental_dimming/dimming_client/CMakeFiles/light_switch_dimming_client_nrf52840_xxAA_s140_6.1.1.dir/__/__/__/mesh/core/src/mesh_mem_stdlib.c.obj
                0x0003009a                mesh_mem_free
 *fill*         0x0003009e        0x2 
 .text.ad_listener_subscribe
                0x000300a0       0x5c examples/experimental_dimming/dimming_client/CMakeFiles/light_switch_dimming_client_nrf52840_xxAA_s140_6.1.1.dir/__/__/__/mesh/bearer/src/ad_listener.c.obj
                0x000300a0                ad_listener_subscribe
 .text.ad_listener_process
                0x000300fc       0x68 examples/experimental_dimming/dimming_client/CMakeFiles/light_switch_dimming_client_nrf52840_xxAA_s140_6.1.1.dir/__/__/__/mesh/bearer/src/ad_listener.c.obj
                0x000300fc                ad_listener_process
 .text.adtype_filter_handle
                0x00030164       0x64 examples/experimental_dimming/dimming_client/CMakeFiles/light_switch_dimming_client_nrf52840_xxAA_s140_6.1.1.dir/__/__/__/mesh/bearer/src/ad_type_filter.c.obj
 .text.bearer_adtype_filtering_set
                0x000301c8       0x20 examples/experimental_dimming/dimming_client/CMakeFiles/light_switch_dimming_client_nrf52840_xxAA_s140_6.1.1.dir/__/__/__/mesh/bearer/src/ad_type_filter.c.obj
                0x000301c8                bearer_adtype_filtering_set
 .text.bearer_adtype_add
                0x000301e8       0x20 examples/experimental_dimming/dimming_client/CMakeFiles/light_switch_dimming_client_nrf52840_xxAA_s140_6.1.1.dir/__/__/__/mesh/bearer/src/ad_type_filter.c.obj
                0x000301e8                bearer_adtype_add
 .text.bearer_adtype_mode_set
                0x00030208       0x18 examples/experimental_dimming/dimming_client/CMakeFiles/light_switch_dimming_client_nrf52840_xxAA_s140_6.1.1.dir/__/__/__/mesh/bearer/src/ad_type_filter.c.obj
                0x00030208                bearer_adtype_mode_set
 .text.tx_complete_event_callback
                0x00030220       0x24 examples/experimental_dimming/dimming_client/CMakeFiles/light_switch_dimming_client_nrf52840_xxAA_s140_6.1.1.dir/__/__/__/mesh/bearer/src/advertiser.c.obj
 .text.set_gap_addr_type
                0x00030244       0x26 examples/experimental_dimming/dimming_client/CMakeFiles/light_switch_dimming_client_nrf52840_xxAA_s140_6.1.1.dir/__/__/__/mesh/bearer/src/advertiser.c.obj
 .text.broadcast_complete_cb
                0x0003026a       0x46 examples/experimental_dimming/dimming_client/CMakeFiles/light_switch_dimming_client_nrf52840_xxAA_s140_6.1.1.dir/__/__/__/mesh/bearer/src/advertiser.c.obj
 .text.schedule_first_time
                0x000302b0       0x28 examples/experimental_dimming/dimming_client/CMakeFiles/light_switch_dimming_client_nrf52840_xxAA_s140_6.1.1.dir/__/__/__/mesh/bearer/src/advertiser.c.obj
 .text.timeout_event
                0x000302d8      0x114 examples/experimental_dimming/dimming_client/CMakeFiles/light_switch_dimming_client_nrf52840_xxAA_s140_6.1.1.dir/__/__/__/mesh/bearer/src/advertiser.c.obj
 .text.advertiser_init
                0x000303ec        0xc examples/experimental_dimming/dimming_client/CMakeFiles/light_switch_dimming_client_nrf52840_xxAA_s140_6.1.1.dir/__/__/__/mesh/bearer/src/advertiser.c.obj
                0x000303ec                advertiser_init
 .text.advertiser_enable
                0x000303f8       0x2a examples/experimental_dimming/dimming_client/CMakeFiles/light_switch_dimming_client_nrf52840_xxAA_s140_6.1.1.dir/__/__/__/mesh/bearer/src/advertiser.c.obj
                0x000303f8                advertiser_enable
 .text.advertiser_disable
                0x00030422        0xa examples/experimental_dimming/dimming_client/CMakeFiles/light_switch_dimming_client_nrf52840_xxAA_s140_6.1.1.dir/__/__/__/mesh/bearer/src/advertiser.c.obj
                0x00030422                advertiser_disable
 .text.advertiser_packet_alloc
                0x0003042c       0x76 examples/experimental_dimming/dimming_client/CMakeFiles/light_switch_dimming_client_nrf52840_xxAA_s140_6.1.1.dir/__/__/__/mesh/bearer/src/advertiser.c.obj
                0x0003042c                advertiser_packet_alloc
 .text.advertiser_packet_send
                0x000304a2       0x52 examples/experimental_dimming/dimming_client/CMakeFiles/light_switch_dimming_client_nrf52840_xxAA_s140_6.1.1.dir/__/__/__/mesh/bearer/src/advertiser.c.obj
                0x000304a2                advertiser_packet_send
 .text.advertiser_packet_discard
                0x000304f4       0x1e examples/experimental_dimming/dimming_client/CMakeFiles/light_switch_dimming_client_nrf52840_xxAA_s140_6.1.1.dir/__/__/__/mesh/bearer/src/advertiser.c.obj
                0x000304f4                advertiser_packet_discard
 .text.advertiser_address_set
                0x00030512       0x3c examples/experimental_dimming/dimming_client/CMakeFiles/light_switch_dimming_client_nrf52840_xxAA_s140_6.1.1.dir/__/__/__/mesh/bearer/src/advertiser.c.obj
                0x00030512                advertiser_address_set
 .text.advertiser_interval_set
                0x0003054e       0x40 examples/experimental_dimming/dimming_client/CMakeFiles/light_switch_dimming_client_nrf52840_xxAA_s140_6.1.1.dir/__/__/__/mesh/bearer/src/advertiser.c.obj
                0x0003054e                advertiser_interval_set
 .text.advertiser_tx_power_set
                0x0003058e       0x14 examples/experimental_dimming/dimming_client/CMakeFiles/light_switch_dimming_client_nrf52840_xxAA_s140_6.1.1.dir/__/__/__/mesh/bearer/src/advertiser.c.obj
                0x0003058e                advertiser_tx_power_set
 .text.advertiser_flush
                0x000305a2       0x1e examples/experimental_dimming/dimming_client/CMakeFiles/light_switch_dimming_client_nrf52840_xxAA_s140_6.1.1.dir/__/__/__/mesh/bearer/src/advertiser.c.obj
                0x000305a2                advertiser_flush
 .text.advertiser_address_default_get
                0x000305c0       0x38 examples/experimental_dimming/dimming_client/CMakeFiles/light_switch_dimming_client_nrf52840_xxAA_s140_6.1.1.dir/__/__/__/mesh/bearer/src/advertiser.c.obj
                0x000305c0                advertiser_address_default_get
 .text.advertiser_instance_init
                0x000305f8       0x98 examples/experimental_dimming/dimming_client/CMakeFiles/light_switch_dimming_client_nrf52840_xxAA_s140_6.1.1.dir/__/__/__/mesh/bearer/src/advertiser.c.obj
                0x000305f8                advertiser_instance_init
 .text.notify_stop
                0x00030690       0x14 examples/experimental_dimming/dimming_client/CMakeFiles/light_switch_dimming_client_nrf52840_xxAA_s140_6.1.1.dir/__/__/__/mesh/bearer/src/bearer_handler.c.obj
 .text.action_in_progress
                0x000306a4       0x30 examples/experimental_dimming/dimming_client/CMakeFiles/light_switch_dimming_client_nrf52840_xxAA_s140_6.1.1.dir/__/__/__/mesh/bearer/src/bearer_handler.c.obj
 .text.action_timer_start
                0x000306d4       0x88 examples/experimental_dimming/dimming_client/CMakeFiles/light_switch_dimming_client_nrf52840_xxAA_s140_6.1.1.dir/__/__/__/mesh/bearer/src/bearer_handler.c.obj
 .text.action_switch
                0x0003075c      0x104 examples/experimental_dimming/dimming_client/CMakeFiles/light_switch_dimming_client_nrf52840_xxAA_s140_6.1.1.dir/__/__/__/mesh/bearer/src/bearer_handler.c.obj
 .text.end_handle
                0x00030860       0x44 examples/experimental_dimming/dimming_client/CMakeFiles/light_switch_dimming_client_nrf52840_xxAA_s140_6.1.1.dir/__/__/__/mesh/bearer/src/bearer_handler.c.obj
 .text.TIMER2_IRQHandler
                0x000308a4       0x58 examples/experimental_dimming/dimming_client/CMakeFiles/light_switch_dimming_client_nrf52840_xxAA_s140_6.1.1.dir/__/__/__/mesh/bearer/src/bearer_handler.c.obj
                0x000308a4                TIMER2_IRQHandler
 .text.bearer_handler_init
                0x000308fc       0x44 examples/experimental_dimming/dimming_client/CMakeFiles/light_switch_dimming_client_nrf52840_xxAA_s140_6.1.1.dir/__/__/__/mesh/bearer/src/bearer_handler.c.obj
                0x000308fc                bearer_handler_init
 .text.bearer_handler_stop
                0x00030940       0x48 examples/experimental_dimming/dimming_client/CMakeFiles/light_switch_dimming_client_nrf52840_xxAA_s140_6.1.1.dir/__/__/__/mesh/bearer/src/bearer_handler.c.obj
                0x00030940                bearer_handler_stop
 .text.bearer_handler_wake_up
                0x00030988       0x2c examples/experimental_dimming/dimming_client/CMakeFiles/light_switch_dimming_client_nrf52840_xxAA_s140_6.1.1.dir/__/__/__/mesh/bearer/src/bearer_handler.c.obj
                0x00030988                bearer_handler_wake_up
 .text.bearer_handler_start
                0x000309b4       0x1c examples/experimental_dimming/dimming_client/CMakeFiles/light_switch_dimming_client_nrf52840_xxAA_s140_6.1.1.dir/__/__/__/mesh/bearer/src/bearer_handler.c.obj
                0x000309b4                bearer_handler_start
 .text.bearer_handler_action_enqueue
                0x000309d0       0x6c examples/experimental_dimming/dimming_client/CMakeFiles/light_switch_dimming_client_nrf52840_xxAA_s140_6.1.1.dir/__/__/__/mesh/bearer/src/bearer_handler.c.obj
                0x000309d0                bearer_handler_action_enqueue
 .text.bearer_handler_action_end
                0x00030a3c       0x48 examples/experimental_dimming/dimming_client/CMakeFiles/light_switch_dimming_client_nrf52840_xxAA_s140_6.1.1.dir/__/__/__/mesh/bearer/src/bearer_handler.c.obj
                0x00030a3c                bearer_handler_action_end
 .text.bearer_handler_radio_irq_handler
                0x00030a84       0x70 examples/experimental_dimming/dimming_client/CMakeFiles/light_switch_dimming_client_nrf52840_xxAA_s140_6.1.1.dir/__/__/__/mesh/bearer/src/bearer_handler.c.obj
                0x00030a84                bearer_handler_radio_irq_handler
 .text.bearer_handler_timer_irq_handler
                0x00030af4       0x34 examples/experimental_dimming/dimming_client/CMakeFiles/light_switch_dimming_client_nrf52840_xxAA_s140_6.1.1.dir/__/__/__/mesh/bearer/src/bearer_handler.c.obj
                0x00030af4                bearer_handler_timer_irq_handler
 .text.bearer_handler_on_ts_begin
                0x00030b28       0x38 examples/experimental_dimming/dimming_client/CMakeFiles/light_switch_dimming_client_nrf52840_xxAA_s140_6.1.1.dir/__/__/__/mesh/bearer/src/bearer_handler.c.obj
                0x00030b28                bearer_handler_on_ts_begin
 .text.bearer_handler_on_ts_end
                0x00030b60       0x70 examples/experimental_dimming/dimming_client/CMakeFiles/light_switch_dimming_client_nrf52840_xxAA_s140_6.1.1.dir/__/__/__/mesh/bearer/src/bearer_handler.c.obj
                0x00030b60                bearer_handler_on_ts_end
 .text.bearer_handler_on_ts_session_closed
                0x00030bd0       0x10 examples/experimental_dimming/dimming_client/CMakeFiles/light_switch_dimming_client_nrf52840_xxAA_s140_6.1.1.dir/__/__/__/mesh/bearer/src/bearer_handler.c.obj
                0x00030bd0                bearer_handler_on_ts_session_closed
 .text.radio_irq_handler
                0x00030be0       0xa4 examples/experimental_dimming/dimming_client/CMakeFiles/light_switch_dimming_client_nrf52840_xxAA_s140_6.1.1.dir/__/__/__/mesh/bearer/src/broadcast.c.obj
 .text.broadcast_start
                0x00030c84       0xb4 examples/experimental_dimming/dimming_client/CMakeFiles/light_switch_dimming_client_nrf52840_xxAA_s140_6.1.1.dir/__/__/__/mesh/bearer/src/broadcast.c.obj
 .text.broadcast_send
                0x00030d38       0x6c examples/experimental_dimming/dimming_client/CMakeFiles/light_switch_dimming_client_nrf52840_xxAA_s140_6.1.1.dir/__/__/__/mesh/bearer/src/broadcast.c.obj
                0x00030d38                broadcast_send
 .text.fen_filter_start
                0x00030da4       0x3c examples/experimental_dimming/dimming_client/CMakeFiles/light_switch_dimming_client_nrf52840_xxAA_s140_6.1.1.dir/__/__/__/mesh/bearer/src/filter_engine.c.obj
                0x00030da4                fen_filter_start
 .text.fen_filter_stop
                0x00030de0       0x30 examples/experimental_dimming/dimming_client/CMakeFiles/light_switch_dimming_client_nrf52840_xxAA_s140_6.1.1.dir/__/__/__/mesh/bearer/src/filter_engine.c.obj
                0x00030de0                fen_filter_stop
 .text.fen_filters_apply
                0x00030e10       0x44 examples/experimental_dimming/dimming_client/CMakeFiles/light_switch_dimming_client_nrf52840_xxAA_s140_6.1.1.dir/__/__/__/mesh/bearer/src/filter_engine.c.obj
                0x00030e10                fen_filters_apply
 .text.radio_config_reset
                0x00030e54       0x40 examples/experimental_dimming/dimming_client/CMakeFiles/light_switch_dimming_client_nrf52840_xxAA_s140_6.1.1.dir/__/__/__/mesh/bearer/src/radio_config.c.obj
                0x00030e54                radio_config_reset
 .text.radio_config_channel_set
                0x00030e94       0x28 examples/experimental_dimming/dimming_client/CMakeFiles/light_switch_dimming_client_nrf52840_xxAA_s140_6.1.1.dir/__/__/__/mesh/bearer/src/radio_config.c.obj
                0x00030e94                radio_config_channel_set
 .text.radio_config_config
                0x00030ebc       0x8c examples/experimental_dimming/dimming_client/CMakeFiles/light_switch_dimming_client_nrf52840_xxAA_s140_6.1.1.dir/__/__/__/mesh/bearer/src/radio_config.c.obj
                0x00030ebc                radio_config_config
 .text.radio_config_access_addr_set
                0x00030f48       0x50 examples/experimental_dimming/dimming_client/CMakeFiles/light_switch_dimming_client_nrf52840_xxAA_s140_6.1.1.dir/__/__/__/mesh/bearer/src/radio_config.c.obj
                0x00030f48                radio_config_access_addr_set
 .text.radio_trigger
                0x00030f98       0x24 examples/experimental_dimming/dimming_client/CMakeFiles/light_switch_dimming_client_nrf52840_xxAA_s140_6.1.1.dir/__/__/__/mesh/bearer/src/scanner.c.obj
 .text.scan_window_end
                0x00030fbc       0x10 examples/experimental_dimming/dimming_client/CMakeFiles/light_switch_dimming_client_nrf52840_xxAA_s140_6.1.1.dir/__/__/__/mesh/bearer/src/scanner.c.obj
 .text.scan_window_start
                0x00030fcc       0x24 examples/experimental_dimming/dimming_client/CMakeFiles/light_switch_dimming_client_nrf52840_xxAA_s140_6.1.1.dir/__/__/__/mesh/bearer/src/scanner.c.obj
 .text.radio_configure
                0x00030ff0       0x78 examples/experimental_dimming/dimming_client/CMakeFiles/light_switch_dimming_client_nrf52840_xxAA_s140_6.1.1.dir/__/__/__/mesh/bearer/src/scanner.c.obj
 .text.radio_set_packet
                0x00031068       0x4c examples/experimental_dimming/dimming_client/CMakeFiles/light_switch_dimming_client_nrf52840_xxAA_s140_6.1.1.dir/__/__/__/mesh/bearer/src/scanner.c.obj
 .text.radio_start
                0x000310b4       0x78 examples/experimental_dimming/dimming_client/CMakeFiles/light_switch_dimming_client_nrf52840_xxAA_s140_6.1.1.dir/__/__/__/mesh/bearer/src/scanner.c.obj
 .text.radio_stop
                0x0003112c       0x38 examples/experimental_dimming/dimming_client/CMakeFiles/light_switch_dimming_client_nrf52840_xxAA_s140_6.1.1.dir/__/__/__/mesh/bearer/src/scanner.c.obj
 .text.schedule_timers
                0x00031164       0x38 examples/experimental_dimming/dimming_client/CMakeFiles/light_switch_dimming_client_nrf52840_xxAA_s140_6.1.1.dir/__/__/__/mesh/bearer/src/scanner.c.obj
 .text.scanner_radio_start
                0x0003119c       0x28 examples/experimental_dimming/dimming_client/CMakeFiles/light_switch_dimming_client_nrf52840_xxAA_s140_6.1.1.dir/__/__/__/mesh/bearer/src/scanner.c.obj
                0x0003119c                scanner_radio_start
 .text.scanner_radio_stop
                0x000311c4       0x10 examples/experimental_dimming/dimming_client/CMakeFiles/light_switch_dimming_client_nrf52840_xxAA_s140_6.1.1.dir/__/__/__/mesh/bearer/src/scanner.c.obj
                0x000311c4                scanner_radio_stop
 .text.scanner_radio_irq_handler
                0x000311d4      0x144 examples/experimental_dimming/dimming_client/CMakeFiles/light_switch_dimming_client_nrf52840_xxAA_s140_6.1.1.dir/__/__/__/mesh/bearer/src/scanner.c.obj
                0x000311d4                scanner_radio_irq_handler
 .text.scanner_timer_irq_handler
                0x00031318       0x30 examples/experimental_dimming/dimming_client/CMakeFiles/light_switch_dimming_client_nrf52840_xxAA_s140_6.1.1.dir/__/__/__/mesh/bearer/src/scanner.c.obj
                0x00031318                scanner_timer_irq_handler
 .text.scanner_enable
                0x00031348       0x2c examples/experimental_dimming/dimming_client/CMakeFiles/light_switch_dimming_client_nrf52840_xxAA_s140_6.1.1.dir/__/__/__/mesh/bearer/src/scanner.c.obj
                0x00031348                scanner_enable
 .text.scanner_is_enabled
                0x00031374       0x10 examples/experimental_dimming/dimming_client/CMakeFiles/light_switch_dimming_client_nrf52840_xxAA_s140_6.1.1.dir/__/__/__/mesh/bearer/src/scanner.c.obj
                0x00031374                scanner_is_enabled
 .text.scanner_packet_release
                0x00031384       0x2c examples/experimental_dimming/dimming_client/CMakeFiles/light_switch_dimming_client_nrf52840_xxAA_s140_6.1.1.dir/__/__/__/mesh/bearer/src/scanner.c.obj
                0x00031384                scanner_packet_release
 .text.scanner_rx
                0x000313b0       0x34 examples/experimental_dimming/dimming_client/CMakeFiles/light_switch_dimming_client_nrf52840_xxAA_s140_6.1.1.dir/__/__/__/mesh/bearer/src/scanner.c.obj
                0x000313b0                scanner_rx
 .text.scanner_rx_pending
                0x000313e4        0xc examples/experimental_dimming/dimming_client/CMakeFiles/light_switch_dimming_client_nrf52840_xxAA_s140_6.1.1.dir/__/__/__/mesh/bearer/src/scanner.c.obj
                0x000313e4                scanner_rx_pending
 .text.scanner_config_scan_time_set
                0x000313f0       0x4c examples/experimental_dimming/dimming_client/CMakeFiles/light_switch_dimming_client_nrf52840_xxAA_s140_6.1.1.dir/__/__/__/mesh/bearer/src/scanner.c.obj
                0x000313f0                scanner_config_scan_time_set
 .text.scanner_config_channels_set
                0x0003143c       0x50 examples/experimental_dimming/dimming_client/CMakeFiles/light_switch_dimming_client_nrf52840_xxAA_s140_6.1.1.dir/__/__/__/mesh/bearer/src/scanner.c.obj
                0x0003143c                scanner_config_channels_set
 .text.scanner_config_access_addresses_set
                0x0003148c       0x38 examples/experimental_dimming/dimming_client/CMakeFiles/light_switch_dimming_client_nrf52840_xxAA_s140_6.1.1.dir/__/__/__/mesh/bearer/src/scanner.c.obj
                0x0003148c                scanner_config_access_addresses_set
 .text.scanner_config_reset
                0x000314c4       0x50 examples/experimental_dimming/dimming_client/CMakeFiles/light_switch_dimming_client_nrf52840_xxAA_s140_6.1.1.dir/__/__/__/mesh/bearer/src/scanner.c.obj
                0x000314c4                scanner_config_reset
 .text.scanner_init
                0x00031514       0x54 examples/experimental_dimming/dimming_client/CMakeFiles/light_switch_dimming_client_nrf52840_xxAA_s140_6.1.1.dir/__/__/__/mesh/bearer/src/scanner.c.obj
                0x00031514                scanner_init
 .text.pin_clear
                0x00031568       0x24 examples/experimental_dimming/dimming_client/CMakeFiles/light_switch_dimming_client_nrf52840_xxAA_s140_6.1.1.dir/__/__/__/mesh/bearer/src/mesh_pa_lna.c.obj
 .text.ppi_setup.isra.0
                0x0003158c       0x3c examples/experimental_dimming/dimming_client/CMakeFiles/light_switch_dimming_client_nrf52840_xxAA_s140_6.1.1.dir/__/__/__/mesh/bearer/src/mesh_pa_lna.c.obj
 .text.mesh_pa_setup_start
                0x000315c8       0x5c examples/experimental_dimming/dimming_client/CMakeFiles/light_switch_dimming_client_nrf52840_xxAA_s140_6.1.1.dir/__/__/__/mesh/bearer/src/mesh_pa_lna.c.obj
                0x000315c8                mesh_pa_setup_start
 .text.mesh_lna_setup_start
                0x00031624       0x5c examples/experimental_dimming/dimming_client/CMakeFiles/light_switch_dimming_client_nrf52840_xxAA_s140_6.1.1.dir/__/__/__/mesh/bearer/src/mesh_pa_lna.c.obj
                0x00031624                mesh_lna_setup_start
 .text.mesh_pa_lna_disable_start
                0x00031680       0x1c examples/experimental_dimming/dimming_client/CMakeFiles/light_switch_dimming_client_nrf52840_xxAA_s140_6.1.1.dir/__/__/__/mesh/bearer/src/mesh_pa_lna.c.obj
                0x00031680                mesh_pa_lna_disable_start
 .text.mesh_pa_lna_setup_stop
                0x0003169c       0x4c examples/experimental_dimming/dimming_client/CMakeFiles/light_switch_dimming_client_nrf52840_xxAA_s140_6.1.1.dir/__/__/__/mesh/bearer/src/mesh_pa_lna.c.obj
                0x0003169c                mesh_pa_lna_setup_stop
 .text.mesh_pa_lna_cleanup
                0x000316e8       0x48 examples/experimental_dimming/dimming_client/CMakeFiles/light_switch_dimming_client_nrf52840_xxAA_s140_6.1.1.dir/__/__/__/mesh/bearer/src/mesh_pa_lna.c.obj
                0x000316e8                mesh_pa_lna_cleanup
 .text.sd_ble_gap_disconnect
                0x00031730        0x4 examples/experimental_dimming/dimming_client/CMakeFiles/light_switch_dimming_client_nrf52840_xxAA_s140_6.1.1.dir/__/__/__/mesh/gatt/src/mesh_gatt.c.obj
 .text.sd_ble_gap_sec_params_reply
                0x00031734        0x4 examples/experimental_dimming/dimming_client/CMakeFiles/light_switch_dimming_client_nrf52840_xxAA_s140_6.1.1.dir/__/__/__/mesh/gatt/src/mesh_gatt.c.obj
 .text.sd_ble_gap_phy_update
                0x00031738        0x4 examples/experimental_dimming/dimming_client/CMakeFiles/light_switch_dimming_client_nrf52840_xxAA_s140_6.1.1.dir/__/__/__/mesh/gatt/src/mesh_gatt.c.obj
 .text.sd_ble_gap_data_length_update
                0x0003173c        0x4 examples/experimental_dimming/dimming_client/CMakeFiles/light_switch_dimming_client_nrf52840_xxAA_s140_6.1.1.dir/__/__/__/mesh/gatt/src/mesh_gatt.c.obj
 .text.sd_ble_gatts_service_add
                0x00031740        0x4 examples/experimental_dimming/dimming_client/CMakeFiles/light_switch_dimming_client_nrf52840_xxAA_s140_6.1.1.dir/__/__/__/mesh/gatt/src/mesh_gatt.c.obj
 .text.sd_ble_gatts_characteristic_add
                0x00031744        0x4 examples/experimental_dimming/dimming_client/CMakeFiles/light_switch_dimming_client_nrf52840_xxAA_s140_6.1.1.dir/__/__/__/mesh/gatt/src/mesh_gatt.c.obj
 .text.sd_ble_gatts_hvx
                0x00031748        0x4 examples/experimental_dimming/dimming_client/CMakeFiles/light_switch_dimming_client_nrf52840_xxAA_s140_6.1.1.dir/__/__/__/mesh/gatt/src/mesh_gatt.c.obj
 .text.sd_ble_gatts_sys_attr_set
                0x0003174c        0x4 examples/experimental_dimming/dimming_client/CMakeFiles/light_switch_dimming_client_nrf52840_xxAA_s140_6.1.1.dir/__/__/__/mesh/gatt/src/mesh_gatt.c.obj
 .text.sd_ble_gatts_exchange_mtu_reply
                0x00031750        0x4 examples/experimental_dimming/dimming_client/CMakeFiles/light_switch_dimming_client_nrf52840_xxAA_s140_6.1.1.dir/__/__/__/mesh/gatt/src/mesh_gatt.c.obj
 .text.timeout_cb
                0x00031754       0x1c examples/experimental_dimming/dimming_client/CMakeFiles/light_switch_dimming_client_nrf52840_xxAA_s140_6.1.1.dir/__/__/__/mesh/gatt/src/mesh_gatt.c.obj
 .text.mesh_gatt_init
                0x00031770      0x14c examples/experimental_dimming/dimming_client/CMakeFiles/light_switch_dimming_client_nrf52840_xxAA_s140_6.1.1.dir/__/__/__/mesh/gatt/src/mesh_gatt.c.obj
                0x00031770                mesh_gatt_init
 .text.mesh_gatt_packet_alloc
                0x000318bc       0x7c examples/experimental_dimming/dimming_client/CMakeFiles/light_switch_dimming_client_nrf52840_xxAA_s140_6.1.1.dir/__/__/__/mesh/gatt/src/mesh_gatt.c.obj
                0x000318bc                mesh_gatt_packet_alloc
 .text.mesh_gatt_packet_discard
                0x00031938       0x4c examples/experimental_dimming/dimming_client/CMakeFiles/light_switch_dimming_client_nrf52840_xxAA_s140_6.1.1.dir/__/__/__/mesh/gatt/src/mesh_gatt.c.obj
                0x00031938                mesh_gatt_packet_discard
 .text.mesh_gatt_packet_is_pending
                0x00031984       0x20 examples/experimental_dimming/dimming_client/CMakeFiles/light_switch_dimming_client_nrf52840_xxAA_s140_6.1.1.dir/__/__/__/mesh/gatt/src/mesh_gatt.c.obj
                0x00031984                mesh_gatt_packet_is_pending
 .text.mesh_gatt_disconnect
                0x000319a4       0x30 examples/experimental_dimming/dimming_client/CMakeFiles/light_switch_dimming_client_nrf52840_xxAA_s140_6.1.1.dir/__/__/__/mesh/gatt/src/mesh_gatt.c.obj
                0x000319a4                mesh_gatt_disconnect
 .text.mesh_gatt_pdu_send
                0x000319d4      0x170 examples/experimental_dimming/dimming_client/CMakeFiles/light_switch_dimming_client_nrf52840_xxAA_s140_6.1.1.dir/__/__/__/mesh/gatt/src/mesh_gatt.c.obj
 .text.mesh_gatt_packet_send
                0x00031b44       0x88 examples/experimental_dimming/dimming_client/CMakeFiles/light_switch_dimming_client_nrf52840_xxAA_s140_6.1.1.dir/__/__/__/mesh/gatt/src/mesh_gatt.c.obj
                0x00031b44                mesh_gatt_packet_send
 .text.mesh_gatt_on_ble_evt
                0x00031bcc      0x3b0 examples/experimental_dimming/dimming_client/CMakeFiles/light_switch_dimming_client_nrf52840_xxAA_s140_6.1.1.dir/__/__/__/mesh/gatt/src/mesh_gatt.c.obj
                0x00031bcc                mesh_gatt_on_ble_evt
 .text.active_connection_count
                0x00031f7c        0xc examples/experimental_dimming/dimming_client/CMakeFiles/light_switch_dimming_client_nrf52840_xxAA_s140_6.1.1.dir/__/__/__/mesh/gatt/src/proxy.c.obj
 .text.proxy_get
                0x00031f88       0x10 examples/experimental_dimming/dimming_client/CMakeFiles/light_switch_dimming_client_nrf52840_xxAA_s140_6.1.1.dir/__/__/__/mesh/gatt/src/proxy.c.obj
 .text.proxy_delete
                0x00031f98       0x10 examples/experimental_dimming/dimming_client/CMakeFiles/light_switch_dimming_client_nrf52840_xxAA_s140_6.1.1.dir/__/__/__/mesh/gatt/src/proxy.c.obj
 .text.packet_discard
                0x00031fa8       0x30 examples/experimental_dimming/dimming_client/CMakeFiles/light_switch_dimming_client_nrf52840_xxAA_s140_6.1.1.dir/__/__/__/mesh/gatt/src/proxy.c.obj
 .text.core_tx_packet_discard_cb
                0x00031fd8       0x18 examples/experimental_dimming/dimming_client/CMakeFiles/light_switch_dimming_client_nrf52840_xxAA_s140_6.1.1.dir/__/__/__/mesh/gatt/src/proxy.c.obj
 .text.packet_send
                0x00031ff0       0x3c examples/experimental_dimming/dimming_client/CMakeFiles/light_switch_dimming_client_nrf52840_xxAA_s140_6.1.1.dir/__/__/__/mesh/gatt/src/proxy.c.obj
 .text.core_tx_packet_send_cb
                0x0003202c       0x38 examples/experimental_dimming/dimming_client/CMakeFiles/light_switch_dimming_client_nrf52840_xxAA_s140_6.1.1.dir/__/__/__/mesh/gatt/src/proxy.c.obj
 .text.packet_alloc
                0x00032064       0x44 examples/experimental_dimming/dimming_client/CMakeFiles/light_switch_dimming_client_nrf52840_xxAA_s140_6.1.1.dir/__/__/__/mesh/gatt/src/proxy.c.obj
 .text.core_tx_packet_alloc_cb
                0x000320a8       0x40 examples/experimental_dimming/dimming_client/CMakeFiles/light_switch_dimming_client_nrf52840_xxAA_s140_6.1.1.dir/__/__/__/mesh/gatt/src/proxy.c.obj
 .text.adv_data_set
                0x000320e8       0xa4 examples/experimental_dimming/dimming_client/CMakeFiles/light_switch_dimming_client_nrf52840_xxAA_s140_6.1.1.dir/__/__/__/mesh/gatt/src/proxy.c.obj
 .text.on_adv_end
                0x0003218c       0x14 examples/experimental_dimming/dimming_client/CMakeFiles/light_switch_dimming_client_nrf52840_xxAA_s140_6.1.1.dir/__/__/__/mesh/gatt/src/proxy.c.obj
 .text.has_pending_packets
                0x000321a0       0x14 examples/experimental_dimming/dimming_client/CMakeFiles/light_switch_dimming_client_nrf52840_xxAA_s140_6.1.1.dir/__/__/__/mesh/gatt/src/proxy.c.obj
 .text.adv_net_iterate
                0x000321b4       0x34 examples/experimental_dimming/dimming_client/CMakeFiles/light_switch_dimming_client_nrf52840_xxAA_s140_6.1.1.dir/__/__/__/mesh/gatt/src/proxy.c.obj
 .text.adv_timer_handler
                0x000321e8        0xe examples/experimental_dimming/dimming_client/CMakeFiles/light_switch_dimming_client_nrf52840_xxAA_s140_6.1.1.dir/__/__/__/mesh/gatt/src/proxy.c.obj
 *fill*         0x000321f6        0x2 
 .text.adv_start
                0x000321f8       0x5c examples/experimental_dimming/dimming_client/CMakeFiles/light_switch_dimming_client_nrf52840_xxAA_s140_6.1.1.dir/__/__/__/mesh/gatt/src/proxy.c.obj
 .text.proxy_set
                0x00032254       0x3c examples/experimental_dimming/dimming_client/CMakeFiles/light_switch_dimming_client_nrf52840_xxAA_s140_6.1.1.dir/__/__/__/mesh/gatt/src/proxy.c.obj
 .text.beacon_packet_send_to_all
                0x00032290       0x54 examples/experimental_dimming/dimming_client/CMakeFiles/light_switch_dimming_client_nrf52840_xxAA_s140_6.1.1.dir/__/__/__/mesh/gatt/src/proxy.c.obj
 .text.mesh_evt_handle
                0x000322e4       0x3c examples/experimental_dimming/dimming_client/CMakeFiles/light_switch_dimming_client_nrf52840_xxAA_s140_6.1.1.dir/__/__/__/mesh/gatt/src/proxy.c.obj
 .text.proxy_init
                0x00032320       0x84 examples/experimental_dimming/dimming_client/CMakeFiles/light_switch_dimming_client_nrf52840_xxAA_s140_6.1.1.dir/__/__/__/mesh/gatt/src/proxy.c.obj
                0x00032320                proxy_init
 .text.proxy_start
                0x000323a4       0x38 examples/experimental_dimming/dimming_client/CMakeFiles/light_switch_dimming_client_nrf52840_xxAA_s140_6.1.1.dir/__/__/__/mesh/gatt/src/proxy.c.obj
                0x000323a4                proxy_start
 .text.proxy_subnet_added
                0x000323dc       0x58 examples/experimental_dimming/dimming_client/CMakeFiles/light_switch_dimming_client_nrf52840_xxAA_s140_6.1.1.dir/__/__/__/mesh/gatt/src/proxy.c.obj
                0x000323dc                proxy_subnet_added
 .text.proxy_net_packet_processed
                0x00032434       0x40 examples/experimental_dimming/dimming_client/CMakeFiles/light_switch_dimming_client_nrf52840_xxAA_s140_6.1.1.dir/__/__/__/mesh/gatt/src/proxy.c.obj
                0x00032434                proxy_net_packet_processed
 .text.proxy_node_id_is_enabled
                0x00032474       0x2c examples/experimental_dimming/dimming_client/CMakeFiles/light_switch_dimming_client_nrf52840_xxAA_s140_6.1.1.dir/__/__/__/mesh/gatt/src/proxy.c.obj
                0x00032474                proxy_node_id_is_enabled
 .text.proxy_is_enabled
                0x000324a0        0xc examples/experimental_dimming/dimming_client/CMakeFiles/light_switch_dimming_client_nrf52840_xxAA_s140_6.1.1.dir/__/__/__/mesh/gatt/src/proxy.c.obj
                0x000324a0                proxy_is_enabled
 .text.proxy_is_connected
                0x000324ac       0x18 examples/experimental_dimming/dimming_client/CMakeFiles/light_switch_dimming_client_nrf52840_xxAA_s140_6.1.1.dir/__/__/__/mesh/gatt/src/proxy.c.obj
                0x000324ac                proxy_is_connected
 .text.proxy_disconnect
                0x000324c4       0x1c examples/experimental_dimming/dimming_client/CMakeFiles/light_switch_dimming_client_nrf52840_xxAA_s140_6.1.1.dir/__/__/__/mesh/gatt/src/proxy.c.obj
                0x000324c4                proxy_disconnect
 .text.gatt_evt_handler
                0x000324e0      0x698 examples/experimental_dimming/dimming_client/CMakeFiles/light_switch_dimming_client_nrf52840_xxAA_s140_6.1.1.dir/__/__/__/mesh/gatt/src/proxy.c.obj
 .text.proxy_stop
                0x00032b78       0x68 examples/experimental_dimming/dimming_client/CMakeFiles/light_switch_dimming_client_nrf52840_xxAA_s140_6.1.1.dir/__/__/__/mesh/gatt/src/proxy.c.obj
                0x00032b78                proxy_stop
 .text.proxy_node_id_enable
                0x00032be0       0x2c examples/experimental_dimming/dimming_client/CMakeFiles/light_switch_dimming_client_nrf52840_xxAA_s140_6.1.1.dir/__/__/__/mesh/gatt/src/proxy.c.obj
                0x00032be0                proxy_node_id_enable
 .text.proxy_node_id_disable
                0x00032c0c       0x30 examples/experimental_dimming/dimming_client/CMakeFiles/light_switch_dimming_client_nrf52840_xxAA_s140_6.1.1.dir/__/__/__/mesh/gatt/src/proxy.c.obj
                0x00032c0c                proxy_node_id_disable
 .text.mesh_opt_gatt_proxy_set
                0x00032c3c       0x1c examples/experimental_dimming/dimming_client/CMakeFiles/light_switch_dimming_client_nrf52840_xxAA_s140_6.1.1.dir/__/__/__/mesh/gatt/src/proxy.c.obj
                0x00032c3c                mesh_opt_gatt_proxy_set
 .text.proxy_filter_clear
                0x00032c58       0x18 examples/experimental_dimming/dimming_client/CMakeFiles/light_switch_dimming_client_nrf52840_xxAA_s140_6.1.1.dir/__/__/__/mesh/gatt/src/proxy_filter.c.obj
                0x00032c58                proxy_filter_clear
 .text.proxy_filter_type_set
                0x00032c70       0x24 examples/experimental_dimming/dimming_client/CMakeFiles/light_switch_dimming_client_nrf52840_xxAA_s140_6.1.1.dir/__/__/__/mesh/gatt/src/proxy_filter.c.obj
                0x00032c70                proxy_filter_type_set
 .text.proxy_filter_add
                0x00032c94       0x54 examples/experimental_dimming/dimming_client/CMakeFiles/light_switch_dimming_client_nrf52840_xxAA_s140_6.1.1.dir/__/__/__/mesh/gatt/src/proxy_filter.c.obj
                0x00032c94                proxy_filter_add
 .text.proxy_filter_remove
                0x00032ce8       0x50 examples/experimental_dimming/dimming_client/CMakeFiles/light_switch_dimming_client_nrf52840_xxAA_s140_6.1.1.dir/__/__/__/mesh/gatt/src/proxy_filter.c.obj
                0x00032ce8                proxy_filter_remove
 .text.proxy_filter_accept
                0x00032d38       0x36 examples/experimental_dimming/dimming_client/CMakeFiles/light_switch_dimming_client_nrf52840_xxAA_s140_6.1.1.dir/__/__/__/mesh/gatt/src/proxy_filter.c.obj
                0x00032d38                proxy_filter_accept
 *fill*         0x00032d6e        0x2 
 .text.is_p_transition_invalid
                0x00032d70       0x24 examples/experimental_dimming/dimming_client/CMakeFiles/light_switch_dimming_client_nrf52840_xxAA_s140_6.1.1.dir/__/__/__/models/model_spec/generic_level/src/generic_level_client.c.obj
 .text.status_handle
                0x00032d94       0x50 examples/experimental_dimming/dimming_client/CMakeFiles/light_switch_dimming_client_nrf52840_xxAA_s140_6.1.1.dir/__/__/__/models/model_spec/generic_level/src/generic_level_client.c.obj
 .text.generic_level_client_init
                0x00032de4       0x58 examples/experimental_dimming/dimming_client/CMakeFiles/light_switch_dimming_client_nrf52840_xxAA_s140_6.1.1.dir/__/__/__/models/model_spec/generic_level/src/generic_level_client.c.obj
                0x00032de4                generic_level_client_init
 .text.generic_level_client_set
                0x00032e3c       0x94 examples/experimental_dimming/dimming_client/CMakeFiles/light_switch_dimming_client_nrf52840_xxAA_s140_6.1.1.dir/__/__/__/models/model_spec/generic_level/src/generic_level_client.c.obj
                0x00032e3c                generic_level_client_set
 .text.generic_level_client_delta_set_unack
                0x00032ed0       0x84 examples/experimental_dimming/dimming_client/CMakeFiles/light_switch_dimming_client_nrf52840_xxAA_s140_6.1.1.dir/__/__/__/models/model_spec/generic_level/src/generic_level_client.c.obj
                0x00032ed0                generic_level_client_delta_set_unack
 .text.generic_level_client_move_set
                0x00032f54       0x94 examples/experimental_dimming/dimming_client/CMakeFiles/light_switch_dimming_client_nrf52840_xxAA_s140_6.1.1.dir/__/__/__/models/model_spec/generic_level/src/generic_level_client.c.obj
                0x00032f54                generic_level_client_move_set
 .text.model_transition_time_decode
                0x00032fe8       0x40 examples/experimental_dimming/dimming_client/CMakeFiles/light_switch_dimming_client_nrf52840_xxAA_s140_6.1.1.dir/__/__/__/models/model_spec/common/src/model_common.c.obj
                0x00032fe8                model_transition_time_decode
 .text.model_transition_time_encode
                0x00033028       0x60 examples/experimental_dimming/dimming_client/CMakeFiles/light_switch_dimming_client_nrf52840_xxAA_s140_6.1.1.dir/__/__/__/models/model_spec/common/src/model_common.c.obj
                0x00033028                model_transition_time_encode
 .text.model_delay_encode
                0x00033088       0x10 examples/experimental_dimming/dimming_client/CMakeFiles/light_switch_dimming_client_nrf52840_xxAA_s140_6.1.1.dir/__/__/__/models/model_spec/common/src/model_common.c.obj
                0x00033088                model_delay_encode
 .text.config_composition_data_get
                0x00033098      0x17a examples/experimental_dimming/dimming_client/CMakeFiles/light_switch_dimming_client_nrf52840_xxAA_s140_6.1.1.dir/__/__/__/models/foundation/config/src/composition_data.c.obj
                0x00033098                config_composition_data_get
 *fill*         0x00033212        0x2 
 .text.app_evt_send
                0x00033214       0x10 examples/experimental_dimming/dimming_client/CMakeFiles/light_switch_dimming_client_nrf52840_xxAA_s140_6.1.1.dir/__/__/__/models/foundation/config/src/config_server.c.obj
 .text.get_element_index
                0x00033224       0x2a examples/experimental_dimming/dimming_client/CMakeFiles/light_switch_dimming_client_nrf52840_xxAA_s140_6.1.1.dir/__/__/__/models/foundation/config/src/config_server.c.obj
 .text.config_server_heartbeat_publication_params_get
                0x0003324e       0x30 examples/experimental_dimming/dimming_client/CMakeFiles/light_switch_dimming_client_nrf52840_xxAA_s140_6.1.1.dir/__/__/__/models/foundation/config/src/config_server.c.obj
 .text.send_reply
                0x0003327e       0x34 examples/experimental_dimming/dimming_client/CMakeFiles/light_switch_dimming_client_nrf52840_xxAA_s140_6.1.1.dir/__/__/__/models/foundation/config/src/config_server.c.obj
 .text.send_network_transmit_status
                0x000332b2       0x5a examples/experimental_dimming/dimming_client/CMakeFiles/light_switch_dimming_client_nrf52840_xxAA_s140_6.1.1.dir/__/__/__/models/foundation/config/src/config_server.c.obj
 .text.handle_config_network_transmit_set
                0x0003330c       0x74 examples/experimental_dimming/dimming_client/CMakeFiles/light_switch_dimming_client_nrf52840_xxAA_s140_6.1.1.dir/__/__/__/models/foundation/config/src/config_server.c.obj
 .text.handle_config_network_transmit_get
                0x00033380        0xa examples/experimental_dimming/dimming_client/CMakeFiles/light_switch_dimming_client_nrf52840_xxAA_s140_6.1.1.dir/__/__/__/models/foundation/config/src/config_server.c.obj
 *fill*         0x0003338a        0x2 
 .text.handle_node_reset
                0x0003338c       0x34 examples/experimental_dimming/dimming_client/CMakeFiles/light_switch_dimming_client_nrf52840_xxAA_s140_6.1.1.dir/__/__/__/models/foundation/config/src/config_server.c.obj
 .text.send_netkey_status
                0x000333c0       0x2c examples/experimental_dimming/dimming_client/CMakeFiles/light_switch_dimming_client_nrf52840_xxAA_s140_6.1.1.dir/__/__/__/models/foundation/config/src/config_server.c.obj
 .text.send_relay_status
                0x000333ec       0x7e examples/experimental_dimming/dimming_client/CMakeFiles/light_switch_dimming_client_nrf52840_xxAA_s140_6.1.1.dir/__/__/__/models/foundation/config/src/config_server.c.obj
 .text.handle_config_relay_set
                0x0003346a       0x9a examples/experimental_dimming/dimming_client/CMakeFiles/light_switch_dimming_client_nrf52840_xxAA_s140_6.1.1.dir/__/__/__/models/foundation/config/src/config_server.c.obj
 .text.handle_config_relay_get
                0x00033504        0xa examples/experimental_dimming/dimming_client/CMakeFiles/light_switch_dimming_client_nrf52840_xxAA_s140_6.1.1.dir/__/__/__/models/foundation/config/src/config_server.c.obj
 .text.send_subscription_status
                0x0003350e       0x42 examples/experimental_dimming/dimming_client/CMakeFiles/light_switch_dimming_client_nrf52840_xxAA_s140_6.1.1.dir/__/__/__/models/foundation/config/src/config_server.c.obj
 .text.send_appkey_status
                0x00033550       0x3a examples/experimental_dimming/dimming_client/CMakeFiles/light_switch_dimming_client_nrf52840_xxAA_s140_6.1.1.dir/__/__/__/models/foundation/config/src/config_server.c.obj
 .text.handle_node_identity_set
                0x0003358a       0xa0 examples/experimental_dimming/dimming_client/CMakeFiles/light_switch_dimming_client_nrf52840_xxAA_s140_6.1.1.dir/__/__/__/models/foundation/config/src/config_server.c.obj
 .text.handle_netkey_delete
                0x0003362a       0xbc examples/experimental_dimming/dimming_client/CMakeFiles/light_switch_dimming_client_nrf52840_xxAA_s140_6.1.1.dir/__/__/__/models/foundation/config/src/config_server.c.obj
 *fill*         0x000336e6        0x2 
 .text.handle_netkey_add_update
                0x000336e8       0x78 examples/experimental_dimming/dimming_client/CMakeFiles/light_switch_dimming_client_nrf52840_xxAA_s140_6.1.1.dir/__/__/__/models/foundation/config/src/config_server.c.obj
 .text.status_error_sub_send
                0x00033760      0x124 examples/experimental_dimming/dimming_client/CMakeFiles/light_switch_dimming_client_nrf52840_xxAA_s140_6.1.1.dir/__/__/__/models/foundation/config/src/config_server.c.obj
 .text.delete_all_subscriptions
                0x00033884       0x66 examples/experimental_dimming/dimming_client/CMakeFiles/light_switch_dimming_client_nrf52840_xxAA_s140_6.1.1.dir/__/__/__/models/foundation/config/src/config_server.c.obj
 .text.send_publication_status
                0x000338ea      0x188 examples/experimental_dimming/dimming_client/CMakeFiles/light_switch_dimming_client_nrf52840_xxAA_s140_6.1.1.dir/__/__/__/models/foundation/config/src/config_server.c.obj
 .text.handle_config_key_refresh_phase_set
                0x00033a72       0xc8 examples/experimental_dimming/dimming_client/CMakeFiles/light_switch_dimming_client_nrf52840_xxAA_s140_6.1.1.dir/__/__/__/models/foundation/config/src/config_server.c.obj
 .text.handle_config_default_ttl_set
                0x00033b3a       0x50 examples/experimental_dimming/dimming_client/CMakeFiles/light_switch_dimming_client_nrf52840_xxAA_s140_6.1.1.dir/__/__/__/models/foundation/config/src/config_server.c.obj
 .text.send_net_beacon_state
                0x00033b8a       0x2c examples/experimental_dimming/dimming_client/CMakeFiles/light_switch_dimming_client_nrf52840_xxAA_s140_6.1.1.dir/__/__/__/models/foundation/config/src/config_server.c.obj
 .text.handle_config_beacon_get
                0x00033bb6        0xa examples/experimental_dimming/dimming_client/CMakeFiles/light_switch_dimming_client_nrf52840_xxAA_s140_6.1.1.dir/__/__/__/models/foundation/config/src/config_server.c.obj
 .text.handle_heartbeat_publication_set
                0x00033bc0       0xea examples/experimental_dimming/dimming_client/CMakeFiles/light_switch_dimming_client_nrf52840_xxAA_s140_6.1.1.dir/__/__/__/models/foundation/config/src/config_server.c.obj
 *fill*         0x00033caa        0x2 
 .text.apply_reset
                0x00033cac       0x30 examples/experimental_dimming/dimming_client/CMakeFiles/light_switch_dimming_client_nrf52840_xxAA_s140_6.1.1.dir/__/__/__/models/foundation/config/src/config_server.c.obj
 .text.mesh_event_cb
                0x00033cdc       0x68 examples/experimental_dimming/dimming_client/CMakeFiles/light_switch_dimming_client_nrf52840_xxAA_s140_6.1.1.dir/__/__/__/models/foundation/config/src/config_server.c.obj
 .text.handle_config_friend_set.part.6
                0x00033d44       0x2a examples/experimental_dimming/dimming_client/CMakeFiles/light_switch_dimming_client_nrf52840_xxAA_s140_6.1.1.dir/__/__/__/models/foundation/config/src/config_server.c.obj
 .text.handle_config_friend_set
                0x00033d6e       0x14 examples/experimental_dimming/dimming_client/CMakeFiles/light_switch_dimming_client_nrf52840_xxAA_s140_6.1.1.dir/__/__/__/models/foundation/config/src/config_server.c.obj
 .text.handle_config_friend_get
                0x00033d82        0xa examples/experimental_dimming/dimming_client/CMakeFiles/light_switch_dimming_client_nrf52840_xxAA_s140_6.1.1.dir/__/__/__/models/foundation/config/src/config_server.c.obj
 .text.handle_config_key_refresh_phase_get
                0x00033d8c       0x58 examples/experimental_dimming/dimming_client/CMakeFiles/light_switch_dimming_client_nrf52840_xxAA_s140_6.1.1.dir/__/__/__/models/foundation/config/src/config_server.c.obj
 .text.handle_config_gatt_proxy_get
                0x00033de4       0x30 examples/experimental_dimming/dimming_client/CMakeFiles/light_switch_dimming_client_nrf52840_xxAA_s140_6.1.1.dir/__/__/__/models/foundation/config/src/config_server.c.obj
 .text.handle_node_identity_get
                0x00033e14       0x64 examples/experimental_dimming/dimming_client/CMakeFiles/light_switch_dimming_client_nrf52840_xxAA_s140_6.1.1.dir/__/__/__/models/foundation/config/src/config_server.c.obj
 .text.handle_netkey_get
                0x00033e78       0x50 examples/experimental_dimming/dimming_client/CMakeFiles/light_switch_dimming_client_nrf52840_xxAA_s140_6.1.1.dir/__/__/__/models/foundation/config/src/config_server.c.obj
 .text.handle_appkey_get
                0x00033ec8       0x82 examples/experimental_dimming/dimming_client/CMakeFiles/light_switch_dimming_client_nrf52840_xxAA_s140_6.1.1.dir/__/__/__/models/foundation/config/src/config_server.c.obj
 .text.status_error_pub_send
                0x00033f4a       0x90 examples/experimental_dimming/dimming_client/CMakeFiles/light_switch_dimming_client_nrf52840_xxAA_s140_6.1.1.dir/__/__/__/models/foundation/config/src/config_server.c.obj
 .text.handle_config_gatt_proxy_set
                0x00033fda       0x52 examples/experimental_dimming/dimming_client/CMakeFiles/light_switch_dimming_client_nrf52840_xxAA_s140_6.1.1.dir/__/__/__/models/foundation/config/src/config_server.c.obj
 .text.handle_config_default_ttl_get
                0x0003402c       0x30 examples/experimental_dimming/dimming_client/CMakeFiles/light_switch_dimming_client_nrf52840_xxAA_s140_6.1.1.dir/__/__/__/models/foundation/config/src/config_server.c.obj
 .text.handle_config_beacon_set
                0x0003405c       0x42 examples/experimental_dimming/dimming_client/CMakeFiles/light_switch_dimming_client_nrf52840_xxAA_s140_6.1.1.dir/__/__/__/models/foundation/config/src/config_server.c.obj
 .text.handle_composition_data_get
                0x0003409e       0x44 examples/experimental_dimming/dimming_client/CMakeFiles/light_switch_dimming_client_nrf52840_xxAA_s140_6.1.1.dir/__/__/__/models/foundation/config/src/config_server.c.obj
 *fill*         0x000340e2        0x2 
 .text.handle_appkey_add
                0x000340e4      0x140 examples/experimental_dimming/dimming_client/CMakeFiles/light_switch_dimming_client_nrf52840_xxAA_s140_6.1.1.dir/__/__/__/models/foundation/config/src/config_server.c.obj
 .text.get_subscription_list.constprop.25
                0x00034224       0x4e examples/experimental_dimming/dimming_client/CMakeFiles/light_switch_dimming_client_nrf52840_xxAA_s140_6.1.1.dir/__/__/__/models/foundation/config/src/config_server.c.obj
 .text.handle_config_sig_model_subscription_get
                0x00034272       0xa2 examples/experimental_dimming/dimming_client/CMakeFiles/light_switch_dimming_client_nrf52840_xxAA_s140_6.1.1.dir/__/__/__/models/foundation/config/src/config_server.c.obj
 .text.heartbeat_subscription_count_encode
                0x00034314       0x32 examples/experimental_dimming/dimming_client/CMakeFiles/light_switch_dimming_client_nrf52840_xxAA_s140_6.1.1.dir/__/__/__/models/foundation/config/src/config_server.c.obj
 .text.heartbeat_pubsub_period_encode
                0x00034346       0x26 examples/experimental_dimming/dimming_client/CMakeFiles/light_switch_dimming_client_nrf52840_xxAA_s140_6.1.1.dir/__/__/__/models/foundation/config/src/config_server.c.obj
 .text.handle_heartbeat_publication_get
                0x0003436c       0x8a examples/experimental_dimming/dimming_client/CMakeFiles/light_switch_dimming_client_nrf52840_xxAA_s140_6.1.1.dir/__/__/__/models/foundation/config/src/config_server.c.obj
 .text.handle_heartbeat_subscription_get
                0x000343f6       0x84 examples/experimental_dimming/dimming_client/CMakeFiles/light_switch_dimming_client_nrf52840_xxAA_s140_6.1.1.dir/__/__/__/models/foundation/config/src/config_server.c.obj
 .text.handle_appkey_update
                0x0003447a       0xbc examples/experimental_dimming/dimming_client/CMakeFiles/light_switch_dimming_client_nrf52840_xxAA_s140_6.1.1.dir/__/__/__/models/foundation/config/src/config_server.c.obj
 .text.handle_appkey_delete
                0x00034536       0xc2 examples/experimental_dimming/dimming_client/CMakeFiles/light_switch_dimming_client_nrf52840_xxAA_s140_6.1.1.dir/__/__/__/models/foundation/config/src/config_server.c.obj
 .text.handle_heartbeat_subscription_set
                0x000345f8       0xa8 examples/experimental_dimming/dimming_client/CMakeFiles/light_switch_dimming_client_nrf52840_xxAA_s140_6.1.1.dir/__/__/__/models/foundation/config/src/config_server.c.obj
 .text.handle_config_model_publication_get
                0x000346a0       0x8c examples/experimental_dimming/dimming_client/CMakeFiles/light_switch_dimming_client_nrf52840_xxAA_s140_6.1.1.dir/__/__/__/models/foundation/config/src/config_server.c.obj
 .text.handle_config_model_subscription_delete_all
                0x0003472c       0xc2 examples/experimental_dimming/dimming_client/CMakeFiles/light_switch_dimming_client_nrf52840_xxAA_s140_6.1.1.dir/__/__/__/models/foundation/config/src/config_server.c.obj
 .text.handle_config_model_subscription_virtual_address_delete
                0x000347ee      0x108 examples/experimental_dimming/dimming_client/CMakeFiles/light_switch_dimming_client_nrf52840_xxAA_s140_6.1.1.dir/__/__/__/models/foundation/config/src/config_server.c.obj
 .text.handle_config_model_subscription_virtual_address_add
                0x000348f6      0x106 examples/experimental_dimming/dimming_client/CMakeFiles/light_switch_dimming_client_nrf52840_xxAA_s140_6.1.1.dir/__/__/__/models/foundation/config/src/config_server.c.obj
 .text.handle_config_model_subscription_delete
                0x000349fc      0x10e examples/experimental_dimming/dimming_client/CMakeFiles/light_switch_dimming_client_nrf52840_xxAA_s140_6.1.1.dir/__/__/__/models/foundation/config/src/config_server.c.obj
 .text.handle_config_model_subscription_add
                0x00034b0a      0x112 examples/experimental_dimming/dimming_client/CMakeFiles/light_switch_dimming_client_nrf52840_xxAA_s140_6.1.1.dir/__/__/__/models/foundation/config/src/config_server.c.obj
 .text.handle_config_model_subscription_virtual_address_overwrite
                0x00034c1c      0x120 examples/experimental_dimming/dimming_client/CMakeFiles/light_switch_dimming_client_nrf52840_xxAA_s140_6.1.1.dir/__/__/__/models/foundation/config/src/config_server.c.obj
 .text.handle_model_app_get
                0x00034d3c      0x19c examples/experimental_dimming/dimming_client/CMakeFiles/light_switch_dimming_client_nrf52840_xxAA_s140_6.1.1.dir/__/__/__/models/foundation/config/src/config_server.c.obj
 .text.handle_config_model_subscription_overwrite
                0x00034ed8      0x11a examples/experimental_dimming/dimming_client/CMakeFiles/light_switch_dimming_client_nrf52840_xxAA_s140_6.1.1.dir/__/__/__/models/foundation/config/src/config_server.c.obj
 .text.handle_config_vendor_model_subscription_get
                0x00034ff2       0xde examples/experimental_dimming/dimming_client/CMakeFiles/light_switch_dimming_client_nrf52840_xxAA_s140_6.1.1.dir/__/__/__/models/foundation/config/src/config_server.c.obj
 .text.handle_model_app_bind_unbind
                0x000350d0      0x1ec examples/experimental_dimming/dimming_client/CMakeFiles/light_switch_dimming_client_nrf52840_xxAA_s140_6.1.1.dir/__/__/__/models/foundation/config/src/config_server.c.obj
 .text.handle_config_model_publication_set
                0x000352bc      0x2d6 examples/experimental_dimming/dimming_client/CMakeFiles/light_switch_dimming_client_nrf52840_xxAA_s140_6.1.1.dir/__/__/__/models/foundation/config/src/config_server.c.obj
 *fill*         0x00035592        0x2 
 .text.config_server_init
                0x00035594       0x60 examples/experimental_dimming/dimming_client/CMakeFiles/light_switch_dimming_client_nrf52840_xxAA_s140_6.1.1.dir/__/__/__/models/foundation/config/src/config_server.c.obj
                0x00035594                config_server_init
 .text.config_server_bind
                0x000355f4       0x10 examples/experimental_dimming/dimming_client/CMakeFiles/light_switch_dimming_client_nrf52840_xxAA_s140_6.1.1.dir/__/__/__/models/foundation/config/src/config_server.c.obj
                0x000355f4                config_server_bind
 .text.packed_index_list_create
                0x00035604       0x32 examples/experimental_dimming/dimming_client/CMakeFiles/light_switch_dimming_client_nrf52840_xxAA_s140_6.1.1.dir/__/__/__/models/foundation/config/src/packed_index_list.c.obj
                0x00035604                packed_index_list_create
 *fill*         0x00035636        0x2 
 .text.health_server_fpd_get
                0x00035638       0x20 examples/experimental_dimming/dimming_client/CMakeFiles/light_switch_dimming_client_nrf52840_xxAA_s140_6.1.1.dir/__/__/__/models/foundation/health/src/health_server.c.obj
 .text.health_server_fpd_delete
                0x00035658       0x20 examples/experimental_dimming/dimming_client/CMakeFiles/light_switch_dimming_client_nrf52840_xxAA_s140_6.1.1.dir/__/__/__/models/foundation/health/src/health_server.c.obj
 .text.attention_timer_handler
                0x00035678       0x5c examples/experimental_dimming/dimming_client/CMakeFiles/light_switch_dimming_client_nrf52840_xxAA_s140_6.1.1.dir/__/__/__/models/foundation/health/src/health_server.c.obj
 .text.send_attention_status
                0x000356d4       0x44 examples/experimental_dimming/dimming_client/CMakeFiles/light_switch_dimming_client_nrf52840_xxAA_s140_6.1.1.dir/__/__/__/models/foundation/health/src/health_server.c.obj
 .text.handle_attention_get
                0x00035718        0xc examples/experimental_dimming/dimming_client/CMakeFiles/light_switch_dimming_client_nrf52840_xxAA_s140_6.1.1.dir/__/__/__/models/foundation/health/src/health_server.c.obj
 .text.send_period_status
                0x00035724       0x40 examples/experimental_dimming/dimming_client/CMakeFiles/light_switch_dimming_client_nrf52840_xxAA_s140_6.1.1.dir/__/__/__/models/foundation/health/src/health_server.c.obj
 .text.handle_period_get
                0x00035764        0xc examples/experimental_dimming/dimming_client/CMakeFiles/light_switch_dimming_client_nrf52840_xxAA_s140_6.1.1.dir/__/__/__/models/foundation/health/src/health_server.c.obj
 .text.attention_timer_set.part.1
                0x00035770       0x84 examples/experimental_dimming/dimming_client/CMakeFiles/light_switch_dimming_client_nrf52840_xxAA_s140_6.1.1.dir/__/__/__/models/foundation/health/src/health_server.c.obj
 .text.handle_attention_set
                0x000357f4       0x32 examples/experimental_dimming/dimming_client/CMakeFiles/light_switch_dimming_client_nrf52840_xxAA_s140_6.1.1.dir/__/__/__/models/foundation/health/src/health_server.c.obj
 *fill*         0x00035826        0x2 
 .text.handle_period_set
                0x00035828       0x68 examples/experimental_dimming/dimming_client/CMakeFiles/light_switch_dimming_client_nrf52840_xxAA_s140_6.1.1.dir/__/__/__/models/foundation/health/src/health_server.c.obj
 .text.bitfield_next_get.part.0.constprop.10
                0x00035890       0x44 examples/experimental_dimming/dimming_client/CMakeFiles/light_switch_dimming_client_nrf52840_xxAA_s140_6.1.1.dir/__/__/__/models/foundation/health/src/health_server.c.obj
 .text.send_fault_status
                0x000358d4       0x8c examples/experimental_dimming/dimming_client/CMakeFiles/light_switch_dimming_client_nrf52840_xxAA_s140_6.1.1.dir/__/__/__/models/foundation/health/src/health_server.c.obj
 .text.health_publish_timeout_handler
                0x00035960        0xa examples/experimental_dimming/dimming_client/CMakeFiles/light_switch_dimming_client_nrf52840_xxAA_s140_6.1.1.dir/__/__/__/models/foundation/health/src/health_server.c.obj
 .text.handle_fault_test
                0x0003596a       0x66 examples/experimental_dimming/dimming_client/CMakeFiles/light_switch_dimming_client_nrf52840_xxAA_s140_6.1.1.dir/__/__/__/models/foundation/health/src/health_server.c.obj
 .text.handle_fault_get
                0x000359d0       0x32 examples/experimental_dimming/dimming_client/CMakeFiles/light_switch_dimming_client_nrf52840_xxAA_s140_6.1.1.dir/__/__/__/models/foundation/health/src/health_server.c.obj
 .text.handle_fault_clear
                0x00035a02       0x48 examples/experimental_dimming/dimming_client/CMakeFiles/light_switch_dimming_client_nrf52840_xxAA_s140_6.1.1.dir/__/__/__/models/foundation/health/src/health_server.c.obj
 .text.health_server_fault_count_get
                0x00035a4a       0x2c examples/experimental_dimming/dimming_client/CMakeFiles/light_switch_dimming_client_nrf52840_xxAA_s140_6.1.1.dir/__/__/__/models/foundation/health/src/health_server.c.obj
                0x00035a4a                health_server_fault_count_get
 *fill*         0x00035a76        0x2 
 .text.health_server_fpd_set
                0x00035a78       0x44 examples/experimental_dimming/dimming_client/CMakeFiles/light_switch_dimming_client_nrf52840_xxAA_s140_6.1.1.dir/__/__/__/models/foundation/health/src/health_server.c.obj
 .text.health_server_init
                0x00035abc       0x78 examples/experimental_dimming/dimming_client/CMakeFiles/light_switch_dimming_client_nrf52840_xxAA_s140_6.1.1.dir/__/__/__/models/foundation/health/src/health_server.c.obj
                0x00035abc                health_server_init
 .text.add_to_publication_list
                0x00035b34       0x78 examples/experimental_dimming/dimming_client/CMakeFiles/light_switch_dimming_client_nrf52840_xxAA_s140_6.1.1.dir/__/__/__/mesh/access/src/access_publish.c.obj
 .text.step_resolution_to_us
                0x00035bac       0x38 examples/experimental_dimming/dimming_client/CMakeFiles/light_switch_dimming_client_nrf52840_xxAA_s140_6.1.1.dir/__/__/__/mesh/access/src/access_publish.c.obj
 .text.schedule_publication_timer
                0x00035be4      0x184 examples/experimental_dimming/dimming_client/CMakeFiles/light_switch_dimming_client_nrf52840_xxAA_s140_6.1.1.dir/__/__/__/mesh/access/src/access_publish.c.obj
 .text.publish_timer_tick
                0x00035d68       0xa8 examples/experimental_dimming/dimming_client/CMakeFiles/light_switch_dimming_client_nrf52840_xxAA_s140_6.1.1.dir/__/__/__/mesh/access/src/access_publish.c.obj
 .text.access_publish_init
                0x00035e10       0x38 examples/experimental_dimming/dimming_client/CMakeFiles/light_switch_dimming_client_nrf52840_xxAA_s140_6.1.1.dir/__/__/__/mesh/access/src/access_publish.c.obj
                0x00035e10                access_publish_init
 .text.access_publish_period_set
                0x00035e48       0x60 examples/experimental_dimming/dimming_client/CMakeFiles/light_switch_dimming_client_nrf52840_xxAA_s140_6.1.1.dir/__/__/__/mesh/access/src/access_publish.c.obj
                0x00035e48                access_publish_period_set
 .text.get_next_timeout_index
                0x00035ea8       0x40 examples/experimental_dimming/dimming_client/CMakeFiles/light_switch_dimming_client_nrf52840_xxAA_s140_6.1.1.dir/__/__/__/mesh/access/src/access_publish_retransmission.c.obj
 .text.message_remove
                0x00035ee8       0x5c examples/experimental_dimming/dimming_client/CMakeFiles/light_switch_dimming_client_nrf52840_xxAA_s140_6.1.1.dir/__/__/__/mesh/access/src/access_publish_retransmission.c.obj
 .text.retransmissions_timer_cb
                0x00035f44       0xc8 examples/experimental_dimming/dimming_client/CMakeFiles/light_switch_dimming_client_nrf52840_xxAA_s140_6.1.1.dir/__/__/__/mesh/access/src/access_publish_retransmission.c.obj
 .text.access_publish_retransmission_init
