:020000022000DC
:1060000000FD03201DC7030045C7030047C7030069
:1060100049C703004BC703004DC703000000000041
:106020000000000000000000000000004FC7030057
:1060300051C703000000000053C7030055C7030009
:1060400057C7030057C7030057C7030057C70300CC
:1060500057C7030057C703000973020057C703005F
:1060600057C7030057C70300A508030057C703001D
:1060700057C7030057C7030057C7030057C703009C
:1060800057C703009D9D0300C9C3020057C7030003
:106090006D9E030057C70300A97F020057C7030086
:1060A00057C7030057C7030057C7030057C703006C
:1060B00057C7030057C7030000000000000000009E
:1060C00057C7030057C7030057C7030057C703004C
:1060D00057C7030057C7030057C7030057C703003C
:1060E00057C7030057C7030057C70300000000004D
:1060F0000000000057C703000000000057C703005E
:10610000000000000000000000000000000000008F
:10611000000000000000000000000000000000007F
:10612000000000000000000000000000000000006F
:10613000000000000000000000000000000000005F
:10614000000000000000000000000000000000004F
:10615000000000000000000000000000000000003F
:10616000000000000000000000000000000000002F
:10617000000000000000000000000000000000001F
:10618000000000000000000000000000000000000F
:1061900000000000000000000000000000000000FF
:1061A00000000000000000000000000000000000EF
:1061B00000000000000000000000000000000000DF
:1061C00000000000000000000000000000000000CF
:1061D00000000000000000000000000000000000BF
:1061E00000000000000000000000000000000000AF
:1061F000000000000000000000000000000000009F
:1062000010B5054C237833B9044B13B10448AFF3F0
:1062100000800123237010BD202F0020000000000B
:10622000D4F8030008B5034B1BB103490348AFF38F
:10623000008008BD00000000242F0020D4F80300D7
:10624000154B002B08BF134B9D46A3F5803A002148
:106250008B460F461348144A121A17F063FE0F4B71
:10626000002B00D098470E4B002B00D09847002001
:10627000002104000D000D48002802D00C48AFF3A7
:10628000008017F001FE2000290000F069FC17F0E3
:10629000E7FD00BF0000080000FD03200000000033
:1062A00000000000202F0020E45800200000000023
:1062B0000000000041DF704730B52F4B14461B68CB
:1062C000526887B00D4603F4804362B303B32B4B8F
:1062D0001B68032B1CDD2F21294817F0F3FEC8B1E2
:1062E0002F21274817F0EEFE411C264B6268D3F899
:1062F00004350492B4F902200392B4F9002002920A
:106300006A880192204A00920420B32207F052F8D2
:1063100007B030BD5C211A4817F0D4FE08B15C21EB
:10632000DFE71749E1E7002BF2D0144B1B68032B82
:10633000EEDD2F21124817F0C5FE98B12F2110482D
:1063400017F0C0FE411C0F4BB4F90020D3F8043500
:1063500002926A8801920D4A00920420B82207F046
:1063600029F8D5E75C21064817F0ACFE08B15C219E
:10637000E5E70349E7E700BF282E0020242E002090
:10638000DDE103000010014018E203006AE20300AF
:10639000012A07B531D009D3022A56D03C4AA6219A
:1063A000032003B05DF804EB16F0E3B9394B1B682A
:1063B000590416D5384B1B68032B12DD2F213448A6
:1063C00017F080FE80B12F21314817F07BFE411C71
:1063D000324B334AD3F8043500929922042006F058
:1063E000E9FF03B05DF804FB5C21294817F06AFE61
:1063F00008B15C21E8E72649EAE7062232214FF49A
:10640000F03000F0EBFE234B1B685A04E9D5224B19
:106410001B68032BE5DD2F211D4817F053FE58B1F3
:106420002F211B4817F04EFE411C1C4B1D4AD3F870
:10643000043500929E22D1E75C21154817F042FEF8
:1064400008B15C21EDE71249EFE7124B1B685B04D2
:10645000C7D5114B1B68032BC3DD2F210C4817F048
:1064600031FE58B12F210A4817F02CFE411C0B4B6E
:106470000D4AD3F804350092A222AFE75C2104480C
:1064800017F020FE08B15C21EDE70149EFE700BFFE
:10649000DDE10300282E0020242E00200010014002
:1064A0007BE103009BE10300BBE1030070B5A04C5E
:1064B00023685B0488B0054617D59E4B1B68032BE9
:1064C00013DD2F219C4817F0FDFDA8B12F219A481C
:1064D00017F0F8FD411C994B994AD3F80435009206
:1064E0000195CE22042006F065FF052D1ED8DFE8B9
:1064F00005F00C4617513E575C218F4817F0E2FD1E
:1065000008B15C21E3E78C49E5E78E4AB2F9003037
:106510008D498B422DDBA3F51C53103B1BB229E0A8
:106520008A4A1368A3F51C53103B136005F030F939
:10653000874A1368106003F5371303F5D863834265
:106540003FBF82490B7901330B714FF0640C4FF45C
:10655000FA63CDE9063C062D00F26681DFE815F00E
:106560002500250076007600B000B0001101794AC0
:10657000CCE7794B1380937801339370D6E7714A57
:10658000B2F9003045F6EE018B420BDC03F51C53EB
:106590001033C3E76D4A136803F51C531033C4E787
:1065A0006C4AEDE747F6FF73E4E723685E0422D503
:1065B000604B1B68032B1EDD2F215F4817F082FD07
:1065C00000283AD02F215C4817F07CFD411C5B4B22
:1065D000079AD3F804350492069A0392594A9078A0
:1065E0000290B2F9002001925C4A0092042040F22D
:1065F0000F1206F0DFFE5A4E5A4D327838235343BD
:10660000E85A11F039FB30784E49C0EBC00006AAB9
:1066100005EBC0000CF012FC072800F0108100F21E
:106620003381002800F00081042800F0D980424A1C
:1066300040F2471116F09DF8F6E05C213E4817F055
:1066400041FD08B15C21BEE73B49C0E723685D041A
:1066500020D5384B1B68032B1CDD2F21364817F043
:1066600031FD20B32F21344817F02CFD411C334B52
:10667000079AD3F804350492069A0392334A1079A4
:10668000029012680192384A009204204FF48C72F2
:1066900006F090FE324B334D18782C49C0EBC00009
:1066A000002306AA05EBC0000CF012FCB4E75C2145
:1066B000214817F007FD08B15C21D4E71E49D6E751
:1066C0002368580422D51B4B1B68032B1EDD2F218A
:1066D000194817F0F7FC00284AD02F21164817F068
:1066E000F1FC411C154B079AD3F804350492069A25
:1066F0000392184A90780290B2F9002001921B4A46
:10670000009204204FF4917206F054FE144E154D81
:10671000327838235343E85A11F0AEFA30780D49F5
:10672000C0EBC00006AA05EBC0000CF013FC73E739
:10673000282E0020242E0020DDE10300001001405F
:1067400093E20300BE2F002011A7FFFF402F00207F
:10675000C42F0020BA2F00200080FFFFA6E2030014
:106760003C2F0020482F002003E3030067E30300D1
:106770005C21474817F0A6FC08B15C21AEE744490C
:10678000B0E7444D2B780133DBB2022B28BF002346
:106790002B702368590447D53F4B1B68032B43DDFF
:1067A0002F213B4817F08EFC88B12F21384817F075
:1067B00089FC411C394B2A78D3F804350192384AB8
:1067C000009240F22B12042006F0F4FD2CE05C2134
:1067D0002F4817F077FC08B15C21E7E72C49E9E77F
:1067E00023685A041AD52C4B1B68032B16DD2F2166
:1067F000274817F067FCC8B12F21254817F062FC25
:10680000411C244A254B1278D3F804350192254ABD
:106810000092042040F2371206F0CCFD062232210D
:106820004FF4F03000F0DAFC08B070BD5C2118487D
:1068300017F048FC08B15C21DFE71549E1E7236860
:106840005B04F1D5144B1B68032BEDDD2F211048A1
:1068500017F038FC78B12F210D4817F033FC411C9C
:106860000C4A0E4B1278D3F8043501920E4A00926E
:1068700040F24312A7E75C21054817F023FC08B15A
:106880005C21E9E70249EBE70828A9D01128CCE60A
:10689000DDE103003C2F0020242E002000100140E9
:1068A000C7E30300E9E3030000E4030030380628EF
:1068B00001D8FFF7FBBD704737B5274B1B685B045A
:1068C00018D5264B1B68032B14DD2F21244817F005
:1068D000F9FB002835D02F21214817F0F3FB411C8C
:1068E000204B214AD3F804350092042040F257127D
:1068F00006F060FD1D4C1E4D6563002301212046FE
:10690000E36284F8303084F831300CF06BFA20B157
:10691000134A4FF4B07115F02CFF002302211548E3
:10692000E566636684F8683084F869300CF05AFADA
:1069300080B10B4A4FF4B07103B0BDE8304015F0A0
:1069400018BF5C21064817F0BDFB08B15C21C3E706
:106950000349C5E703B030BD282E0020242E0020B7
:10696000DDE10300001001407BE40300482F00201C
:106970002CE40300802F002007B503781C2B2ED1B8
:10698000184B1B685B0416D5174B1B68032B12DDD5
:106990002F21164817F096FBC0B12F21134817F08E
:1069A00091FB411C124B134AD3F80435009204208A
:1069B000BE2206F0FFFC0322C8214FF4F03000F0A5
:1069C0000DFC03B05DF804EB00F056BA5C210748FB
:1069D00017F078FB08B15C21E0E70449E2E703B077
:1069E0005DF804FB282E0020242E0020DDE10300AA
:1069F0000010014038E4030010B5044600214FF4B4
:106A0000F03004EB840400F0DFFB620032214FF42D
:106A1000C030BDE8104000F0E1BB00F011BC000048
:106A20001FB5304C2268520417D52F4B1B68032B1F
:106A300013DD2F212D4817F045FB002840D02F21D2
:106A40002A4817F03FFB411C294B2A4AD3F804354A
:106A500000920420762206F0ADFC00F01DFE00F04E
:106A600043FE03A812F0EEF823685B0419D51E4B11
:106A70001B68032B15DD2F211C4817F023FB40B3A7
:106A80002F211A4817F01EFB411C194BBDF80C2092
:106A9000D3F804350192184A00920420812206F0AE
:106AA00089FC00F0CDFB00214FF4F03000F08CFBAE
:106AB0000422C8214FF4F03000F090FB04B010BD68
:106AC0005C210A4817F0FEFA08B15C21B8E70749D3
:106AD000BAE75C21054817F0F5FA08B15C21D0E768
:106AE0000249D2E7282E0020242E0020DDE10300F9
:106AF000001001409BE40300B5E4030007B5134B0D
:106B00001B685B0416D5124B1B68012B12DD2F216D
:106B1000104817F0D7FA80B12F210E4817F0D2FA9B
:106B2000411C0D4B0D4AD3F80435009202208B22F4
:106B300006F040FC03B05DF804FB5C21054817F04B
:106B4000C1FA08B15C21E8E70249EAE7282E0020F3
:106B5000242E0020DDE10300001001405CE1030071
:106B600000B54A4A8DB0042146F2010006F006FC49
:106B7000474B1B685B0418D5464B1B68032B14DD81
:106B80002F21454817F09EFA002875D02F21424842
:106B900017F098FA411C414B414AD3F80435009252
:106BA00004204FF4BA7206F005FC13F0A9FA20B1E4
:106BB000394A4FF4BB7115F0DCFD00F051FB394848
:106BC00000F07AFB20B1344A4FF4BD7115F0D1FDCD
:106BD00000F048FD00F060FD00F086FD002120225D
:106BE00003A817F09FF901238DF80C3007238DF8C7
:106BF0000F3006238DF814302B4B07932B492C4B69
:106C00000B9303A800F0F2F820B1234A4FF4B771B8
:106C100015F0AFFD6421274800F076FA234B1B786E
:106C200083B9254D0FCD03AC0FC495E8030084E86C
:106C3000030003A800F010FA20B1174A40F29711A0
:106C400015F097FD01F02CFC00F08EFB00F006F92A
:106C500020B1114A4FF4CE7115F08BFD00214FF495
:106C6000F03000F0B1FA0222C8214FF4F03000F009
:106C7000B5FAFFF71FFBFCE75C21074817F022FA83
:106C800008B15C2183E7044985E700BF51D30200C6
:106C9000282E0020242E0020DDE1030000100140FA
:106CA00051E40300AD64020079690200B82F0020AE
:106CB000B9680200AD68020044E1030010B5044663
:106CC00007F0FAF838B123780E2B04D10020BDE884
:106CD000104004F05BBB10BD70B5837DC27D86B0F3
:106CE00043EA0223ADF814300446032305A80E46F8
:106CF000ADF8163011F06AFF0546002847D104AA06
:106D00002146208A12F054F9054600283FD10DF1A2
:106D100012033246BDF81010E08A12F057FB054608
:106D2000002834D1217ED4F8120001F0010103F0D3
:106D30009BFE10B1784601F07BFBBDF812000EF00F
:106D400059FC054618BB184B1B681B031DD5174B78
:106D50001B68062B19DD2F21154817F0B3F9C8B1B0
:106D60002F21134817F0AEF9411C227E114B02F07F
:106D70000102D3F804350292D4F8122001920E4A8F
:106D800000920720C32206F015FB0FF0C3FB284634
:106D900006B070BD5C21064817F094F908B15C217B
:106DA000DFE70349E1E700BF282E0020242E002062
:106DB000FCE40300001001401BE5030008B508F0E7
:106DC000DDFB0FF0F4FF11F091FEBDE8084003F089
:106DD0000BBC07B501A811F035FFBDF80400003069
:106DE00018BF012003B05DF804FB000073B50E4628
:106DF000054678B304F08EF9044640BB11F0C8FE96
:106E000010F054FD28690EF0C5FB0446F8B92B7F3D
:106E10000193AB69009301466B690F4859220EF04C
:106E20004DFE044698B92B6A03B1984708F0BEFAA4
:106E300011F0CAFD0FF006FD08B10FF06BFBFFF774
:106E4000C8FF054608B10BF06BFA06B13570204655
:106E500002B070BD0E24FAE7C82F002008B5FFF776
:106E6000B8FF20B10BF01CFB08B10BF09BFABDE89A
:106E7000084004F0C3B9000008B507F01DF820B1C0
:106E80000020BDE8084004F081BA0248BDE808408F
:106E900004F022BAA02D002030B5274D297885B006
:106EA00019B1012803D003283FD005B030BD04AC90
:106EB000002344F8083D214600F024FF08B115F0F6
:106EC0004BFC204600F088FF08B115F045FC04A9F2
:106ED000012341F8043D0DF1060012F049FA08B112
:106EE00015F03AFCBDF8060011F0D2FF0DF10501D6
:106EF00012F0ECF808B115F02FFC0BF011FA9DF828
:106F0000051000200BF06CFE10B1784601F090FAED
:106F100004F074F908B115F01FFC00232B70074B27
:106F20001B68002BC1D09847BFE700F0BDFF0028C9
:106F3000BBD015F011FCB8E722300020243000202F
:106F400008B503781C2B0CD1064B1B784BB100F015
:106F5000E7FF08B115F000FC0348BDE8084004F065
:106F6000BDB908BD22300020AC2D002010B5074966
:106F7000074813F045FD024638B906490648096935
:106F80000323BDE8104013F054BD10BD3C30002079
:106F9000A8330020243000207432002010B503787C
:106FA000023B082B4AD8DFE803F01E051249493896
:106FB00049493F00224B5B68002B3FD0007A0028F4
:106FC0003CD0204A01211170BDE8104018471C4BED
:106FD0009B68002B32D01B4A117879B300211170C5
:106FE000BDE810401847184B1A784AB9144BDB68B3
:106FF00013B114490A709847BDE81040FFF7B6BFB7
:10700000124B134801221A7004F066F904F04CF98F
:10701000A0B1BDE8104015F09FBB094B0D48596960
:10702000102213F04BFDF3E7D0E90210FFF754FEF6
:1070300008B115F091FB044B01221A7010BD00BF7E
:107040002430002020300020213000202230002079
:10705000AC2D00207432002070B51C4A1C4E5168C3
:10706000044686B0106803AB03C31189927A198075
:107070009A700FCC35460FC594E8030085E80300ED
:10708000736903B3134B0093134A1449144803ABB9
:1070900013F088FCA8B9134814F094FC014610487A
:1070A00013F09AFC68B9104815F010FA48B90E4868
:1070B00015F03EFA01460A4813F08EFC08B9FFF7B6
:1070C00055FF06B070BD0720FBE700BF3BE503009E
:1070D000243000209D6F02003C300020A8330020A7
:1070E000743200205C3000202432002010B5054CA2
:1070F000226832B115F06EFC002802DB2368984745
:10710000F8E710BDE8330020154B164A10B50C46C1
:1071100018600121144813F04DF818B1134A4A21A0
:1071200015F027FB610C0023E00341F26F728B42E4
:1071300008BF824210D24FF47A72002316F010FD7D
:10714000014600220A4813F047F838B1074A4B219C
:10715000BDE8104015F00DBB0521F2E710BD00BFE2
:10716000E8330020ED70020048E503004CE5030021
:10717000EC33002070B5104C206808B915F0ECFA1B
:107180004FF0A0450D4ED5F8043532685340C5F890
:1071900004352368013B236063B9094813F060F8A4
:1071A0003268D5F8043523EA0203064A126813430D
:1071B000C5F8043570BD00BF0C3400201034002029
:1071C000143400203C3400204FF0A04311B1C3F828
:1071D0000C057047C3F8080570470000F8B52AB3DE
:1071E000132923D9124B134D5200013A4FF0A044FA
:1071F0001A602860D4F8043518400F4B4FF4FA7623
:10720000186000274FF40040E0FB01674FF47A72EA
:1072100000233046394616F0A3FC002201460748F9
:1072200012F0DAFF10B92B68C4F80C35F8BD00BFB6
:107230000C340020103400203C3400201434002092
:1072400008B5054813F00CF8044B1A684FF0A0433A
:10725000C3F8082508BD00BF1434002010340020F6
:1072600008B54FF0A04303224FF40051C3F8342770
:10727000C3F808154FF48041C3F83827C3F8081540
:107280004FF40041C3F83C27C3F80815C3F8402762
:107290004FF48032C3F808250121054A054812F051
:1072A00089FF18B1BDE8084015F056BA08BD00BF07
:1072B0007571020070E50300D8B10F4B0F4A1860DA
:1072C0004FF0A0430020C3F82C27C3F83027C3F8A1
:1072D0006027C3F864270A4B4FF00042C3F8042329
:1072E000C3F87C01074BC02283F8062340221A60B2
:1072F00070470E20704700BF343400200C0003009C
:107300000060004000E100E0124B70B50024124E16
:10731000124DC3F87C414FF0A043A15DD3F8102576
:1073200001238B40934311D00D49D5F804250B68F8
:10733000981A48BFD01A43F23333984206D9D5F889
:1073400004350B60074B20461B6898470134042C1A
:10735000E1D170BD0060004074E503000010014001
:10736000383400203434002070B50446CEB00028F4
:1073700064D03C4D2A6852042FD53B4B1B68032B2D
:107380002BDD3A4B0DAE19680023E25C100902F0C8
:107390000F02085C06F81300885C06EB4302013319
:1073A000102B5070F1D100232F21314886F8203066
:1073B00016F088FE002843D02F212D4816F082FEBB
:1073C000411C2C4B2C4AD3F8043501922B4A0092D5
:1073D00002964122042005F0EDFF2B685B042DD5B9
:1073E000214B1B68032B29DD2F21214816F06AFE53
:1073F00000282ED02F211E4816F064FE411C1D4B84
:10740000E27BD3F804350B92A27B0A92627B09924D
:10741000227B0892E27A0792A27A0692627A059219
:10742000227A0492E2880392A28802922268019250
:10743000134A00920420462205F0BCFF4EB070BDF6
:107440005C210B4816F03EFE08B15C21B5E7084907
:10745000B7E75C21064816F035FE08B15C21CAE7A3
:107460000349CCE7282E0020242E00202C2E0020BB
:1074700078E5030000100140A0E50300B2E5030039
:10748000BAE5030072DF704773DF704774DF70473F
:10749000F0B52F4CA3B005460E461746002110222A
:1074A000204616F03FFD2B482B4A03782B49C3EBAF
:1074B000431C62440133614403F00103A2601F22B4
:1074C00003702160A280A28100213C2204A816F052
:1074D00029FD062301AA8DF813300E9201233C22C8
:1074E000002113A88DF80230ADF820308DF83C3023
:1074F000ADF80050CDF824D0ADF80450ADF80870C8
:10750000039616F00FFD0223221D21688DF84C30E2
:1075100004A800F0CBF908B115F01EF9104AA168D3
:1075200013A800F0C3F908B115F016F90D4A08497F
:107530000D48FFF7A7FF082804D1002204490A4894
:10754000FFF7A0FF08B115F007F923B0F0BD00BFA9
:10755000803400204034002090340020413400204A
:107560008C340020BC2D0020B82D0020B0F5202F39
:107570000AD20A23B0FBF3F310B1002B08BF01239A
:10758000034A9381916070474FF6FF73F8E700BF9D
:10759000BC2D002008B5064B01211878FFF774FFB9
:1075A00008B115F0D9F80020BDE8084004F03EBC51
:1075B000B82D002008B5054B1878FFF767FF18B104
:1075C000BDE8084015F0C8B808BD00BFB82D0020C0
:1075D00076DF70477ADF70477CDF704715F0BCB804
:1075E00003F07EBE07B503784BB93B214088FFF717
:1075F000EFFF08B303B05DF804EB15F0ADB8012B55
:107600001AD1134B1B685B0416D5124B1B68032B56
:1076100012DD2F21104816F055FD80B12F210E48A4
:1076200016F050FD411C0D4B0D4AD3F80435009265
:107630000420682205F0BEFE03B05DF804FB5C2167
:10764000054816F03FFD08B15C21E8E70249EAE78A
:10765000282E0020242E00200CE6030000100140FC
:107660003CE6030013B500F01FFC08B115F074F8F8
:1076700002AC002344F8043D0120214600F042FB07
:1076800008B115F069F8204600F0A6FB08B115F026
:1076900063F802B010BD00001FB504AC1123104800
:1076A00004F80C3D16F006FD0D4982B22046FFF7A6
:1076B00093FF08B115F050F808220DEB02000021ED
:1076C00016F030FC074A4FF0C87302A8CDE9022338
:1076D000FFF780FF08B115F03FF804B010BD00BF00
:1076E000FAE503007800C80010B58AB001AC0822A2
:1076F0000021204616F016FC124A4FF0C873CDE95F
:10770000012300211C2203A816F00CFC4FF4803347
:1077100040F6CD41CDE9041303238DF81830002342
:10772000ADF81A308DF81C30074B089303A8074BAF
:107730000394099300F03CFD08B115F00DF80AB070
:1077400010BD00BF7800C800E5750200DD750200BD
:1077500070B5EFF3108672B60C4A946801239CB999
:1077600093600B4B0B4DD3F8801029401160C3F888
:107770008050D3F8841051604FF0FF32C3F884205A
:10778000047006B962B670BD0370FAE7385800207D
:1077900000E100E0FC06FFBD10B5084B9A685AB145
:1077A00050B9EFF3108172B6054A1C6814605C682A
:1077B0005460986001B962B610BD00BF385800200F
:1077C00000E100E06DDF704779DF70477DDF7047D3
:1077D00064DF70472DE9F74F0C9CBDF834B0278863
:1077E000002580468A4691462E46B8F80020B242CF
:1077F0000BDC35B12288013AD21B92B2FF2A39D86C
:10780000DA55002003B0BDE8F08FD8F8042052F814
:107810002600019000220DF1030101A8FFF7D8FF17
:107820000028EFD19DF803204A4521D12288002D60
:1078300014BF0020022002EB09010144594519DC64
:107840003DB9013292B2228003F802A022880132AF
:10785000228022880DF103011A4401A8FFF7B8FF26
:107860000028CFD121889DF803200A4422800125D9
:107870000136BAE70C20C5E72DE9F341089CBDF8B5
:1078800024501746CDE9004502220646FFF7A2FF25
:1078900048B9102239463046CDE9084502B0BDE866
:1078A000F041FFF797BF02B0BDE8F0812DE9F04F3E
:1078B00000231688138090F82D3085B007460D46BA
:1078C000144653B3082E01D80C2026E102A8FFF776
:1078D00079FF002840F0218113880822CA542388A8
:1078E00001339BB21B222380CA542088013080B20E
:1078F000208006220DF10901284416F008FB238898
:107900009DF8082006339BB212F0FE0218BF012238
:107910002380EA54238801332380BB78FBB123887A
:107920000433B342D0D802A8FFF74EFF002840F03E
:10793000F48023880322EA54238801339BB219225E
:107940002380EA542388BDF8082001339BB2E9184C
:107950002380EA54120A4A70238802332380FA787B
:107960009AB12388D91CB142AED80221E9542388A8
:1079700001339BB201212380E95423880B449BB23D
:107980002380EA5423880B4423807A68AAB1238891
:10799000D91CB14298D8022192F90020E9542388D9
:1079A00001339BB20A212380E954238801339BB21F
:1079B0002380EA542388013323803B89002B40F045
:1079C000A0803B8A5BB1CDE900462B46072203210C
:1079D00007F11000FFF750FF002840F09E803B8B1E
:1079E0005BB1CDE900462B461522142107F11800A2
:1079F000FFF742FF002840F090803A6A002A40F0EA
:107A00008F80D7F82480B8F1000F30D0B8F8043058
:107A10002188981C8A1C0244B2423FF655AFFE28CA
:107A20003FF652AF03336B54238801339BB2FF22DE
:107A30002380EA54238801339BB22380B8F80020C6
:107A4000EA54E918120A4A702088023080B2208075
:107A5000B8F804205AB1D8F8081000296AD0284490
:107A600016F055FA2388B8F804201344238097F8B9
:107A70002C30002B40F09980387800284DD03B887E
:107A8000012B57D021888A1CB2423FF61DAF012836
:107A900005D17B7802330B449E42FFF415AF023EC2
:107AA000761A04A9B6B221F8086DA818FFF78EFE61
:107AB00098BB3978BDF80820022900F0BB807B789C
:107AC000934202D3B24240F2B380012940F0B48025
:107AD0009BB29E42C0F0B080ADF808300821BDF8DE
:107AE0000830FE2B3FF6F0AE22880133AB542288DB
:107AF000013292B22280A9542288134423800020AC
:107B00000BE0CDE900462B460622022107F10800D2
:107B1000FFF7B2FE00283FF454AF05B0BDE8F08F88
:107B2000B4F800C00CF10603B3423FF6CDAE1188A5
:107B3000052901D80720F0E76FF4486E01EB0E032A
:107B40009BB24FF27D3E7345F4D95388052BF1D992
:107B50006FF44860181880B27045EBD94FF6FF708B
:107B6000814203D0834201D09942E3D8052305F82E
:107B70000C30238801339BB212212380E9542388DF
:107B800001339BB223801188E954E818090A417037
:107B9000238802339BB223805288EA54E918120AE0
:107BA0004A702388023323802BE7BB6A002BC1D0A5
:107BB0004FF000094FF00C0A4FF0160B97F82C30DD
:107BC0005FFA89F293427FF657AFB96A0AFB02F275
:107BD00001EB0208B8F80430981CFE283FF674AE9A
:107BE000208803332B54238801339BB2238005F86C
:107BF00003B0238801339BB223808A5AEA54E918E0
:107C0000120A4A702088023080B22080B8F804201E
:107C10005AB1D8F8081000298CD0284416F077F90A
:107C20002388B8F804201344238009F10109C5E72B
:107C3000092154E7B242FBD9ADF808604EE7016074
:107C40000B6843604A68934204BF00234360704757
:107C5000436843B1026891680B44436052689342A1
:107C600004BF0023436070474BDF70471FB50D4CC6
:107C700001A8FFF7F9FF70B9214602A8FFF7DFFF5F
:107C8000039B002BF4D00198D3E90021904702A870
:107C9000FFF7DEFFF4E7052801D014F05DFD04B026
:107CA00010BD00BF68E6030060DF704769DF704702
:107CB00061DF704730B5114B1B78A9B0E3B1104DAF
:107CC00094240DF1020103A8ADF80240FFF7F0FF84
:107CD00070B9294601A8FFF7B2FF029B002BF0D034
:107CE00003A8D3E90021904701A8FFF7B1FFF4E70B
:107CF000052801D014F030FD29B030BDCE3400206D
:107D000074E60300F0B5074685B00D4600295ED045
:107D1000304B0B600C22002101A816F003F901265C
:107D200006232A68ADF8083001A920208DF80470D8
:107D30008DF80660FFF7BAFF0C22002101A816F0AB
:107D4000F1F800242A688DF8056001A940208DF81B
:107D500006408DF80740FFF7A9FF0C22214601A835
:107D600016F0E0F845232A68ADF8063001A9232073
:107D70008DF80470FFF79AFF0C22214601A816F037
:107D8000D1F82A688DF8044001A93046FFF78EFF2C
:107D90000C22214601A816F0C5F84FF4B0632A68FA
:107DA000019301A9A120FFF781FF0C22214601A820
:107DB00016F0B8F89DF804302A68334301A9A020D2
:107DC0008DF80430FFF772FF204605B0F0BD0E209D
:107DD000FBE700BFA02D002008B5FFF765FF10B935
:107DE000014B01221A7008BDCE34002010DF70470D
:107DF00011DF704713B5044609496846FFF71FFFB6
:107E0000019808B902B010BDD0E90031204698476A
:107E100018B16846FFF71CFFF2E71120F2E700BF38
:107E200084E6030013B5044607496846FFF707FFD9
:107E3000019B0BB902B010BD2046D3E90021904749
:107E40006846FFF705FFF3E79CE60300064B9A68D8
:107E500022B11A6822F480021A607047034B4FF473
:107E60008002C3F8802070473858002000E100E00D
:107E70000B4991F816335A09EC231341DB0706D559
:107E8000084B9A683AB94FF480030B60704742F28E
:107E9000020014F061BC1A6842F480021A60704754
:107EA00000E100E038580020F7B5184F3C785CBB83
:107EB000174E012520463570FFF79CFF112820D072
:107EC0002046FFF7AFFF134B1868019002A800F897
:107ED000054DFFF73DFC104901A8FFF787FF044659
:107EE000B0FA80F0400938709DF80300FFF754FCA9
:107EF0003CB90A4B34701C70FFF7BAFF2846FFF7F5
:107F000091FF204603B0F0BD0824FAE7D0340020EA
:107F1000CF34002080E6030031820200D1340020FB
:107F2000F7B5154F3B7813B3144E01203070FFF7AF
:107F300061FF11284FF000051BD00220FFF772FFF0
:107F400002A800F8015DFFF703FCFFF751FF0446AC
:107F50009DF807003D70FFF71FFC2CB93470FFF748
:107F600075FF0320FFF75EFF204603B0F0BD082435
:107F7000FAE72C46F8E700BFD0340020CF340020C9
:107F800007B508496846FFF75AFE019B13B903B0CD
:107F90005DF804FBD3E9002090476846FFF758FEE0
:107FA000F3E700BF90E60300FFF7EABF75DF704715
:107FB00076DF70477ADF70477BDF7047034B1A88A4
:107FC00082420CBF18460020704700BFF0340020EA
:107FD000024B9B6903B11847704700BFD43400209F
:107FE00037B585B22846FFF7E9FF034670B1164C56
:107FF000017A227B91420BD200F10A012846FFF759
:10800000D5FFE8B1112801D0FFF7E2FF03B030BD82
:10801000237C0022027243B13B212846FFF7C8FFB0
:1080200030F0080301D0FFF7D3FF6369002BEDD0D8
:1080300000228DF80420ADF8065001A89847E5E726
:108040001A7A01321A72E1E7D434002013B50B46D4
:10805000497A0F4C024669B9D4E901101C7A002C08
:1080600018BF0146586812F0B7F808B1FFF7B0FF23
:1080700002B010BD002119726369002BF8D00121F4
:10808000ADF806008DF8041001A89847F0E700BF8E
:10809000D434002030B583880588B3F5FA7F24BF37
:1080A0006FF4F9729C184A8838BF002495420CD8A6
:1080B0004088904209D38A88A24206D303F2F31083
:1080C000904234BF0020012030BD0020FCE70000BA
:1080D00070B50388112B014648D002D8102B1ED052
:1080E00070BD122B52D0502BFAD12F4BC288DB8996
:1080F0009A42F5D1038A022BF2D186883046FFF7E7
:108100005DFF05460028EBD001F1120000F08AF86F
:1081100030BB686812F0A4F80028E1D009E0C37B06
:10812000012BDDD14FF6FF70FFF748FF054620B960
:108130000420BDE87040FFF74BBF8E881B4A0680C5
:10814000002303721368C5F80A300A30536843608D
:108150001031FFF79FFF144B6872DB89002BBFD1F2
:1081600029463046BDE87040FFF770BF8088FFF7B2
:1081700025FF04460028B3D0406812F071F808B11A
:10818000FFF726FF4FF6FF732380A9E78688304666
:10819000FFF714FF05460028A2D008310A30FFF788
:1081A00079FF6872DCE700BFD4340020043500207A
:1081B000F8B5064650B305460FCD154F3C460FC4E3
:1081C00095E8070084E807003068124B3B60B8B1BF
:1081D000FFF7F0FEC8B931680A681A604A685A6049
:1081E0000D480E4A4FF6FF7303800D4B40F8043FD5
:1081F000002111F0DFFF002814BF0320002004E05D
:108200001846FFF7D9FE0028EAD0F8BD0E20FCE79B
:10821000D434002004350020F0340020E17F020037
:108220000C350020007800F00100704706207047F0
:1082300030B5754B14461B6841F20102904287B07D
:108240000D4603F480437ED01ED8012845D0002B74
:108250005DD06E4B1B68002B59DD2F216C4815F04B
:1082600031FF002800F0C4802F21694815F02AFF53
:10827000411C684B684AD3F80435009201957B2273
:10828000012005F097F842E044F20102904200F02C
:10829000858044F202029042D9D1002B37D05B4B4B
:1082A0001B68002B33DD2F21594815F00BFF0028E8
:1082B0006BD02F21564815F005FF411C554B2288E5
:1082C000D3F8043503926268CDE90152534A009213
:1082D00001206C2205F06EF819E0C3B14B4B1B680E
:1082E000002B14DD2F214A4815F0ECFE10B32F218E
:1082F000474815F0E7FE411C464B494AD3F8043580
:108300000092CDE901546022012005F053F84FF0AE
:10831000A0434FF4F032C3F81825C3F80C25EFF34F
:10832000108372B64DF6AD6C3E4A1378002B68D1BF
:1083300007B030BD5C21364815F0C4FE08B15C21A1
:10834000D6E73349D8E7002BE1D0304B1B68002B30
:10835000DDDD2F212E4815F0B5FE68B12F212C4808
:1083600015F0B0FE411C2B4B2F4AD3F80435009278
:10837000CDE901546322C7E75C21254815F0A2FE30
:1083800008B15C21EBE72249EDE75C21204815F0BC
:1083900099FE08B15C218DE71D498FE7002BB6D00F
:1083A0001A4B1B68002BB2DD2F21194815F08AFEED
:1083B000A8B12F21164815F085FE411C154B2268E7
:1083C000D3F8043504926268CDE90252A2680192A2
:1083D000164A00920120772204F0ECFF97E75C2117
:1083E0000B4815F06FFE08B15C21E3E70849E5E7AB
:1083F0005C21074815F066FE08B15C2135E70449A9
:1084000037E730BF91E700BF282E0020242E002040
:10841000A8E60300001001404CE703000CE703004E
:10842000D0E60300D42D0020EAE603002BE703008A
:1084300007B50023ADF800300146054B01936A46AD
:1084400044F20200FFF7F4FE03B05DF804FB00BF46
:10845000B5F0030001461022014815F058BD00BFD9
:108460002C35002010B50B4C0B490822204615F086
:108470004EFD0822A018094915F049FDE3790422B0
:1084800062F30713E371237A022262F387132372E4
:1084900010BD00BF2C35002060000010A4000010AB
:1084A000004870472C350020064B002203F58071F0
:1084B0005A805A6003F8082B8B42F9D1024B1A609C
:1084C000704700BF3C3500203C360020F0B50C4B17
:1084D0000C4C1B68064620227BB1013B14F833008C
:1084E00050B104EBC3056F88B74202D16D688D426D
:1084F00002D0013AF0D11046F0BD1F23EEE700BFD5
:108500003C3600203C35002030B5084A084C136842
:1085100004EBC3056960012104F833100B44202BE0
:1085200008BF00236880136030BD00BF3C360020C8
:108530003C350020C0F30C038B42084438BFA0F543
:108540000050C01A70470000F0B50D4B0D4A1E6870
:1085500000218E4212D0156800230AE052F8044C24
:1085600004EBC30714F83340844201D17868F0BDAE
:1085700001339D42F2D101310832EAE70020F6E7EB
:10858000403600204836002000B58DB040B99A1C16
:1085900006D0012201A88DF80420029301F022FAEE
:1085A000034B186803F03AFE0DB05DF804FB00BF02
:1085B0004C36002010B50378044613B97846FFF70F
:1085C00037FFE188A069FFF7B5FFE1690A060B0AEA
:1085D000101843F1000110BD10B50378044613B91B
:1085E0007846FFF725FF607A431C01209840013848
:1085F00010BD0000F8B5037805460E4613B978465D
:10860000FFF716FF104AA88A0023144619018F5A53
:10861000874214D1002353520C4A1368591C03F0AB
:1086200007031B011160AA8AE25206B16E781C444E
:108630002846A670FFF7BEFFC4E90201F8BD01336A
:10864000082BE3D1E8E700BF50360020D0360020E9
:108650002DE9F0410E468EB015461C46074610B96E
:108660007846FFF7E5FE16B97846FFF7E1FE636A44
:10867000A27802330593E378A2F10800002B14BF1F
:10868000012102210DF1040842424241434604F116
:108690000C0003F0F6FEA3788DF83430237BADF8A0
:1086A0002050022B16FA85F5CDE906870B960C951E
:1086B0000FD1236913B97846FFF7BAFE23690993EE
:1086C000102305A8ADF8283003F0D7FE0EB0BDE8A2
:1086D000F0810023F5E70000B2F5C07F2DE9F047F7
:1086E00081468846174602D97846FFF7A1FE244BFB
:1086F000002570229A4602FB053494F8486046B97A
:10870000384607F0C8FCE06638B900242046BDE8CA
:10871000F0870135042DEED1F7E730224946204697
:1087200015F0F5FBB8F1010FE664A4F84A701DD10D
:10873000144B84F852601B7D84F8513084F85360E8
:1087400084F85060D9F8283063656FF00103A362A4
:108750000D4BA4F85860A3632464012002F034F99F
:10876000702303FB05A585F84880CFE76FF0010370
:10877000A362064BA36584F868602466044BEAE7AD
:10878000EC360020D4360020D98C0200E59302009C
:10879000D18C020010B50446C06E07F07EFC04F1D7
:1087A000300002F0B5FF94F84830022B03D104F1F9
:1087B000500002F0ADFF20467022002115F0B2FB00
:1087C000002084F84800BDE8104002F0FDB810B564
:1087D00090F84830012B8CB0044602D07846FFF761
:1087E00027FE01238DF8043001A8636D029301F088
:1087F000F9F82046FFF7CEFF0CB010BD10B50446C7
:10880000808A02F083FB01281CD1237BD3B194F929
:108810001620002A18DBE27D5AB1022B12D094F9FF
:108820000330002B10DBA378002B0CBF00200720A7
:1088300010BDE2780AB9012B06D1237833B9A378A9
:10884000042BF2E71020F3E70720F1E70020EFE721
:108850001FB500220B468DF80F2028B302300860A8
:1088600018460DF10F0103F00AFE9DF80F30DBB141
:10887000144B1B685B0717D5134B1B68032B13DDC9
:108880002F21124815F01EFC98B12F210F4815F02A
:1088900019FC411C0E4B0F4AD3F8043500920420FA
:1088A00040F2374204F086FD9DF80F0005B05DF8F8
:1088B00004FB5C21054815F005FC08B15C21E5E7E7
:1088C0000249E7E7282E0020242E0020A9E7030014
:1088D00000100140C6E7030070B50446D0E9061257
:1088E0008CB0808A05F0AAFC0546A0B12C2200219C
:1088F00001A8A68AE46915F015FB0F238DF8043052
:108900004FF0000364F3000301A8ADF808608DF890
:108910000A3001F067F828460CB070BD2DE9F04F21
:1089200099461378D2F81880F3B007468A46144661
:1089300023B1D1884046FFF7FDFD9061E378A2782E
:10894000002BA2F1080003AD14BF0121022104F1A4
:108950000C0642422B464241304603F092FDA2787B
:10896000C4F81880CDE908571FFA8AF5AB1A9BB2F4
:108970001F44ADF82830E3780E974FF0000812AF8F
:108980000D978DF83C20ADF83080002B65D04FF06E
:10899000100B04F1240A237BC4F82480022B02BFAD
:1089A0002369ADF830B00B93206A2179524611F05B
:1089B00021F8606A30BB237B022B05D13146E08968
:1089C00011F0DAF80028E6D1374B1B685B0741D578
:1089D000364B1B68052B3DDD2F21354815F072FB0A
:1089E000002858D02F21324815F06CFB411C314B28
:1089F000314AD3F804350092062040F20E7204F09A
:108A0000D9FC27E007A9FFF723FF0028CCD0204698
:108A1000FFF762FFF0B9A2780B908DF81C0096E882
:108A20000300A38AADF82A30AD1A0CAB01228DF8F1
:108A3000282083E80300A37D8DF84030236A0E933D
:108A400007A8636A0897ADF824500F93CDF84490B7
:108A500000F0C8FF73B0BDE8F08F227B012AB3D1CC
:108A6000A046E089B4F814A048F8243F414611F02C
:108A700007F807A9606AFFF7EBFE0028C7D160621C
:108A80004146504610F0FCFF07A9606AFFF7E0FE80
:108A9000002899D0BBE75C21054815F013FB08B10D
:108AA0005C21A0E70249A2E7282E0020242E002006
:108AB000A9E70300001001406CE80300C37D0A78B9
:108AC00030B5002B3DD0C37822F07F0203F07F0346
:108AD0001A430A700B78027803F07F0343EAC2134B
:108AE0000B70037863B38378083B5A425A414B7842
:108AF00003F07F0343EAC2134B708A78C58802F003
:108B00000302C5F3861442EA850223F07F03234360
:108B1000D2B28A704B70CB78057A03F01F03C5F38D
:108B2000C10422F0030243EA45132243DBB2CB70B7
:108B30008A70427A23F01F0302F01F021343CB70A6
:108B400030BDC47822F0400343EA8413DBB20B70DB
:108B5000027923F03F0302F03F0213430B70B9E7A1
:108B60002DE9F041837890461344C27D002A14BF5A
:108B70000B220F22934286B004460F462FD802469E
:108B800012F80C1B0092002914BF042501252B4468
:108B90000293836A0193C36A0393684600238DF8A6
:108BA000103003F00AFE064670B9059920460D44C0
:108BB000FFF784FFE37D5BB142463946284615F056
:108BC000A6F9684603F01AFE304606B0BDE8F0810B
:108BD0002346424629463846FFF73AFDF1E7092683
:108BE000F2E7000038B590F84830012B044602D077
:108BF0007846FFF71DFC02F0CBFD237B074A012BD3
:108C000005BFD2E90315A37DD16805FB031101441B
:108C100004F13000BDE8384002F091BDD4360020A8
:108C200070B50D4690B0044610B97846FFF700FCC9
:108C300094F84830022B03D100212046FFF7DAFCDC
:108C40002C22002105A8666D15F06CF9102305A8EB
:108C50008DF8143006968DF81C5000F0C3FE2046A7
:108C6000FFF798FD154B1B685B071BD5144B1B6862
:108C7000032B17DD2F21134815F024FAA0B12F2163
:108C8000104815F01FFA411C0F4BD3F8043502951C
:108C900094F8482001920D4A0092042040F22E22BE
:108CA00004F088FB10B070BD5C21064815F00AFA8C
:108CB00008B15C21E4E70349E6E700BF282E002065
:108CC000242E0020A9E703000010014078E70300EC
:108CD00008460021FFF7A4BF10B591F84830012BDA
:108CE0000C4602D07846FFF7A3FB94F851305BB1F5
:108CF000013B84F85130002384F85030084BBDE824
:108D00001040186803F08ABA217B0129204603D15C
:108D1000BDE81040FFF784BFBDE81040FFF757BD26
:108D20004C3600202DE9F04F044689B00F4609B1BA
:108D300000230B6004F10C0394F8505001934FF0A2
:108D400001084FF0000B627AAA4203D2002009B05A
:108D5000BDE8F08FE16C08FA05F30B4259D1E37DD1
:108D60002572002B0CBF0C260826954206FB05FA3F
:108D7000237808BFB4F84A608DF818B008BFA6EB96
:108D80000A06002B14BF4FF004094FF0010906EB4F
:108D900009030493019B0293A36A039302A8E36A65
:108DA000059303F00AFD0028D1D1079B994445B9EA
:108DB00094F853302BB9A36984F85380C3F30C03A0
:108DC000E380E37D8BB994F8523073B915B17846DE
:108DD000FFF72EFBB4F84A10A2788A1AE16E2346F8
:108DE0000846FFF735FC84F8528007992046FFF7C4
:108DF00065FEE16E32465144484615F088F802A8F7
:108E000003F0FCFC17B13B6801333B606B1C84F83A
:108E100050300135EDB296E72DE9F04307468FB0AB
:108E20001046884615469946FFF756FD0446002829
:108E300060D1EE78002E40F0AE80B8F1060F59D127
:108E400038787A78DFF8A8C1830103F4FE5343EA47
:108E50009203D7F802204FF0700812BA674608FB59
:108E600004C696F84810012925D1B6F814E0E9891E
:108E70008E4520D1F18899421DD1B6F858E0A98AD3
:108E8000BEF1000F01D08E4515D110F0800F4FF0CC
:108E900070033BD003FB0473A3F85810702303FB4B
:108EA0000474E56C1543E564002A61D10321304662
:108EB000FFF7B6FE1EE00134042CD0D1464B1B68F0
:108EC0005B0717D5454B1B68012B13DD2F21444849
:108ED00015F0F8F888B12F21414815F0F3F8411C3E
:108EE000404B414AD3F804350092022040F284629C
:108EF00004F060FA0FB0BDE8F0835C21384815F04B
:108F0000E1F808B15C21E7E73549E9E703FB0473C1
:108F1000DB898B42C2D0304B1B685A07EAD52F4BF6
:108F20001B68012BE6DD2F212D4815F0CBF8B0B1E1
:108F30002F212B4815F0C6F8411C2A4BAA8AD3F8DA
:108F400004350292702202FB04740220E28901922D
:108F5000264A009240F28C6204F02CFACAE75C21A7
:108F60001F4815F0AFF808B15C21E2E71C49E4E7BF
:108F70003046FFF731FB854203D13046FFF727FC2F
:108F8000B8E7002184F850103046FFF7CBFE30469A
:108F9000FFF728FEAEE73046FFF7D6FA0346002873
:108FA000A8D005F10C012A6A0B9203C9AA8AADF870
:108FB000222009AA82E80300AA7D8DF830202A78B1
:108FC0008DF82020EA6A8DF81460CDE906780D92BC
:108FD000494605A898478DE7282E0020242E00201A
:108FE000A9E7030000100140D9E7030007E80300E8
:108FF000EC360020F0B5C37D15468278002B2A445C
:1090000014BF4FF480734FF4C0739342C7B00E4641
:1090100079D3404C0023E11891F84870012F08D112
:10902000B1F814C0878ABC4503D1CF89C1898F426A
:109030006BD07033B3F5E07FEDD10121FFF74CFB2E
:109040000446002863D02A463146C06E14F05FFF04
:10905000002304A920460493FFF764FE30F00405C2
:1090600006464BD1049B13B12046FFF7BBFD2A4BAC
:109070001B685B0728D5294B1B68032B24DDB4F83C
:109080004A10274B8029186828BF8021002305AE8D
:109090008B421CD100222F21224806F8132015F004
:1090A00011F810B32F211F4815F00CF8411C1E4B6E
:1090B0001E4AD3F8043501921D4A0092029640F2EE
:1090C0007152042004F076F9284647B0F0BDE26EF4
:1090D000D25C170902F00F02C75D06F81370875CB7
:1090E00006EB430201335770D2E75C210D4814F0C0
:1090F000E9FF08B15C21D6E70A49D8E72046FFF727
:1091000049FB3546E0E70925DEE70825DCE70425CD
:10911000DAE700BFEC360020282E0020242E0020A5
:109120002C2E0020A9E70300001001409BE703005C
:10913000B2E5030010B54FF4E0720021134814F0BB
:10914000F1FE002405F0EAF8114B12481C6021469C
:10915000802214F0E7FE104B1049114A11489C750B
:10916000C3E9001210494CF25032C3E902211A61DE
:1091700040F604029A8203F033F80C4B18600C4B53
:109180000C481C60BDE8104005F0CAB9EC36002060
:10919000D036002050360020D4360020809698002B
:1091A000F04902001999020020A107004C36002066
:1091B000403600208985020005F038B830B50446F5
:1091C0008DB000286CD00369002B69D0C369002BD7
:1091D00066D08569002D63D05A788DF804201A78FE
:1091E0000993838A82F001020B2B8DF80320027B06
:1091F00043D90121022A8DF8001001D1294A927D1C
:10920000002A44D1042213448DF802200B330C228F
:1092100093FBF2F3013B8DF8093000238DF8083001
:1092200094E8030000238DF8173003AB83E80300B4
:109230002389ADF81430A37A8DF81630236A0A9387
:109240002046DF2308950B9310F03EFD28B12378CC
:10925000012B0CBF2023FF230B9368462569A48AAA
:10926000FFF7CCFA38B99DF8003022462946684607
:109270009BB1FFF7BFFE0DB030BDC17A0029B8D158
:10928000012A0CBF012200228DF8002001D1082202
:10929000B9E704238DF80230C2E7FFF761FCEAE783
:1092A0000E20E8E7D4360020F0B503468DB00F4617
:1092B000002843D04568002D40D08669002E3DD05F
:1092C000846802788DF803200B2C4FF0000209927D
:1092D00094BF027B012202F0010100208DF80010F2
:1092E0008DF8020032B1E11DC90801398DF809106D
:1092F0008DF8080003F1100103C901228DF8172031
:1093000003AA82E80300DA89ADF814201A7F1B6AE9
:10931000089668468DF81620CDE90A73FFF76EFAB5
:1093200038B99DF800302246294668461BB1FFF740
:1093300061FE0DB0F0BDFFF713FCFAE70E20F8E771
:1093400070B5067B012E8CB004460D4646D10B222B
:109350000021684614F0E6FD9DF80120E3888DF8B1
:10936000055002F0030242EA83028DF801202A0E22
:109370008DF802202A0C8DF803202A0A8DF804208B
:1093800062788DF81C60911E4A424A41C3F38613ED
:1093900043EAC2138DF8003006230593A38AADF883
:1093A0001E30002308938DF80C308DF81830E389B7
:1093B000ADF81A30E36A0B93A37D226ACDF810D082
:1093C000099243B96FF0010103A88DF82830FFF727
:1093D0006BFF0CB070BD024B5B7DF3E70020F8E73C
:1093E000D436002010B591F84830022B0C4602D03C
:1093F0007846FFF71DF8022384F8683094F8483067
:10940000022B06D1E16C2046FFF79AFF08B984F8D9
:10941000680010BD2DE9F04F0C469FB090461F46E6
:109420000546002800F0A781002A00F0A48121B998
:10943000092630461FB0BDE8F08F1822414609A822
:1094400014F065FD2B78002059B2CA0F81428DF8C7
:109450001820ACBF0122042294428DF81900E7D3F2
:109460009DF82F60EEB103F07F0381428DF81B3031
:109470008DF81A002EDA6A78AB78920102F4FE5267
:1094800042EA9302ADF81E20DB00EA7803F01803ED
:1094900043EA521302F01F028DF820308DF821208C
:1094A00018E0C3F38010002903F03F038DF81B0080
:1094B0008DF81C3008DA95F90130002BACBF04237D
:1094C00008238DF81A30D6E704231A4494428DF805
:1094D0001A30ADD300230F933B78032B02D9784683
:1094E000FEF7A6FF3A78A54B06A853F82230119351
:1094F000FFF784F9064600289BD1D8E90312B8F893
:10950000080004F0D7FE002893D13146082204A8B1
:1095100014F008FD04A9B8F8020010F02DFB38B1D2
:109520009DF8193043F001038DF81930059B0A931B
:109530009DF81930002B3FF47CAF9DF81820002ACD
:1095400000F007818E4A4FF0000A934602EB0A03AF
:1095500093F84810022940D00AF1700ABAF5E07F6A
:10956000F4D19DF8183013B97846FEF761FF06A8CC
:10957000FFF720F8BDF82CE0824A4FF0000C4FEACC
:109580000C1838F8023073453DD19044D8E9029A5E
:10959000514508BF484536D106AD0FCD12AC0FC4BA
:1095A0000FCD0FC495E80F0084E80F0098F8023043
:1095B0008DF84930002B3FF43CAF12A8FFF70CF8B0
:1095C000014612A8FFF7BCFE98F80230DC077FF5D1
:1095D00030AF06A8FFF780F92BE7988ABDF82C106A
:1095E0008842B9D106A8CDE90232FEF7E3FF029B1B
:1095F000804618468946FEF7DDFF894508BF80454D
:10960000039AA9D215E70CF1010CBCF1080FB6D1F1
:109610000023702202FB03BA9AF84810022915D1E0
:10962000BAF81410714511D106A8FEF7C3FF8046A1
:1096300050468946FEF7BEFF494508BF404580F0C9
:10964000AD8005215046FFF7EBFA02E00133042B11
:10965000E0D19DF82F209DF82130002A0CBF4FF05B
:109660000C084FF0080803FB08880CBF4FF4C073C8
:109670004FF48073984529D9434B1B6858077FF5F1
:10968000D8AE424B1B68002B7FF7D3AE2F2140484A
:1096900014F018FD88B12F213D4814F013FD411C32
:1096A0003C4B3D4AD3F804350092CDF8048040F29B
:1096B0009232012003F07EFEBBE65C21344814F0B8
:1096C00001FD08B15C21E7E73149E9E7BDF81E106B
:1096D0000C98FEF72FFF0D9A0146BDF82C0004F000
:1096E000E9FD00287FF4A5AE4246022106A8FEF758
:1096F000F3FF8246002851D1014606A8FFF720FE5D
:109700002C22514612A814F00DFC10238DF848307D
:1097100012A802238DF8503000F064F989E65C212C
:109720001B4814F0CFFC08B15C2146E0184948E022
:10973000002B0CBF0C2308239C4200F0A2800421C4
:109740005046FFF76DFA74E63B465246FFF7E6F8DF
:10975000CDE0DA077FF56DAE9DF82F30681C611EF5
:1097600023B13B4606AAFFF757FB62E63B4606AA33
:10977000FFF7D4F85DE60E265BE600BF68E703005E
:10978000EC36002050360020282E0020242E002009
:10979000A9E703000010014048E80300584B1B688C
:1097A0005B071BD5574B1B68032B17DD2F21564832
:1097B00014F088FC0028B2D02F21534814F082FC0A
:1097C000411C524B9DF82020D3F804350192504A99
:1097D000009204204FF4717203F0ECFD9AF84830C7
:1097E000022B02D07846FEF723FEDFF82881D8F856
:1097F000009001F0CDFF09EB00010AF1300001F00B
:109800009EFF9AF80C30012B1AD19AF86830BBB938
:109810009AF84830022B02D07846FEF709FED8E9C4
:10982000013298F8151002FB013801F0B1FF00EB8E
:1098300008010AF1500001F082FF01238AF8683024
:109840009DF82010DAF84C3001228A4013427FF450
:10985000F0AD1343CAF84C309DF82F309AF8092028
:10986000002B0CBF4FF00C084FF008088A42A4F1FF
:10987000040408FB01F87FF45BAF08EB0403AAF8CB
:109880004A30DAF818200C9B9A420BD20DF1240EC4
:10989000BEE80F000AF10C0CACE80F009EE80300D4
:1098A0008CE80300DAF86C002246291D404414F0CD
:1098B0002EFB5046DAF84C40FEF78EFE84427FF4D1
:1098C000B8ADDAF84C105046FFF73AFD9AF801307F
:1098D000D9070CD59AF81730DAF86C00BAF84A10A4
:1098E000002B3FF431AF3B465246FFF795FA504606
:1098F0000121FEF77FFE5046FEF74CFF99E500BFC1
:10990000282E0020242E0020A9E70300001001408B
:109910005CE80300D43600202DE9F341194E002401
:109920003746A046351995F84830012B0CD102A9CD
:10993000284641F8048DFFF7F5F9042801D0019B72
:1099400013B12846FFF74EF97034B4F5E07FE9D142
:1099500000257C1994F84830022B0AD194F868301D
:10996000022B06D1E16C2046FFF7EAFC08B984F827
:1099700068007035B5F5E07FEBD1012002B0BDE89D
:10998000F08100BFEC3600202DE9F0418846074603
:10999000E8B1124E3468C4B92546454507D1104B8D
:1099A000C3E90075012333602046BDE8F08107EB71
:1099B000C5035B685BB117F83500030609D450B1E5
:1099C000FEF7C2FD38B90135E7E70424ECE70E24C1
:1099D000EAE70B24E8E70F24E6E700BF4036002063
:1099E00044360020F8B5074610B97846FEF720FD4A
:1099F0000F4E346894B10F4D01232B7023791BB99E
:109A000054F8043C384698472468002CF6D12B784B
:109A1000022B03D13168064C09B92970F8BD0B79C6
:109A20000E6813B1204603F04BFC3146F4E700BF4B
:109A3000B0380020AC38002010B5044610B9784684
:109A4000FEF7F6FC00232372211D0248BDE81040FA
:109A500003F015BCB038002010B5044610B97846A4
:109A6000FEF7E6FC074A1378013B012B04D80223DA
:109A700013700123237210BD211D0348BDE810405F
:109A800003F01EBCAC380020B03800200B88826880
:109A9000D25A073222F00302134402889BB2043ADE
:109AA000934288BF00230B80704713B58368CB1A9D
:109AB00002A921F8023DFFF7E9FFBDF806308068F2
:109AC000184402B010BD70B5064615460C4611BBD1
:109AD0007846FEF7ADFCFEB17846FEF7A9FC6B1E9A
:109AE0002344B3F1005F34D94FF08052D2F80C21F7
:109AF00002F50022B3EB822F2ED2042D02D8784635
:109B0000FEF796FC35800023043D7380B380B4607B
:109B10002580A37070BD10B97846FEF789FCB4F1BA
:109B2000005F12D94FF08053D3F80C3103F50023B6
:109B3000B4EB832FD3D34FF08053D3F80C3103F51C
:109B40000053B4EB832FC7D2C9E7B4F5000FF2D8A6
:109B5000C2E7B3F5000F08D94FF08052D2F80C21BC
:109B600002F50052B3EB822FC7D37846FEF760FCB4
:109B7000C3E738B5044610B97846FEF759FC628849
:109B8000A36813449B78012B02D17846FEF750FC62
:109B9000EFF3108572B6A268A18811448B78032B6D
:109BA0000AD12046FFF781FFA368C31A6380002310
:109BB000837005B962B638BD002393706380A380BB
:109BC000F7E7F8B50E461546044610B97846FEF795
:109BD0002FFC16B97846FEF72BFC6288A368134465
:109BE0009B78012B02D17846FEF722FC002D37D05E
:109BF0002388043B9BB29D4232D8EFF3108772B6A4
:109C00006188A388EA1D22F00302994292B204D22D
:109C10005B1A9A4210DD042016E018D92088401AF9
:109C2000904209D29A42F6D8032881BFA3685B18F4
:109C300004229A70002363806288A1688B188D5279
:109C400001229A700020336007B962B6F8BDA2689D
:109C500013449B78002BDED193706380A380EBE7E5
:109C60000920F3E7F8B50D461646044610B97846C4
:109C7000FEF7DEFB15B97846FEF7DAFBAB78012B71
:109C800002D07846FEF7D4FB2B88B34202D2784646
:109C9000FEF7CEFB16B97846FEF7CAFBEFF3108746
:109CA00072B60223AB70E1182E802046FFF7EEFE5D
:109CB0006288A38893421FBFA3689B1800229A70F2
:109CC00007B962B6F8BD70B50D46044610B97846BE
:109CD000FEF7AEFB15B97846FEF7AAFBEFF3108648
:109CE00072B6A288A36813449A78042A06D1211D6B
:109CF0002046FFF7CBFEA288A36813449A78022A75
:109D000003D0032A08D0052003E003229A702B60B9
:109D1000002006B962B670BD7846FEF789FBF7E70A
:109D200038B5044610B97846FEF782FBEFF310858C
:109D300072B6A088A16801448B78042B03D1204619
:109D4000FFF7B3FE01468878831E5842584105B993
:109D500062B638BD38B5044610B97846FEF768FBE0
:109D6000EFF3108572B6A088A16801448878C31EFD
:109D7000012B05D9831E5842584105B962B638BD3A
:109D80002046FFF792FE0146F0E7F8B50D4604467F
:109D900010B97846FEF74CFB15B97846FEF748FB3C
:109DA000EFF3108672B6AB78012B19D0032B22D1BA
:109DB000A288A36813449D4202D07846FEF738FB80
:109DC0000027AF70211D2046FFF760FEA288A36820
:109DD00013449B78042B00D1A78006B962B6F8BD66
:109DE0006288A36813449D4202D07846FEF720FBA8
:109DF0000023AB70F1E77846FEF71AFBEDE710B5EC
:109E0000EFF3108472B68288816811448B78042B3A
:109E100002D1FFF74AFE01468878B0FA80F0400987
:109E200004B962B610BD037942799B1A03F57F230A
:109E300003F6FF7300EB03307047000010B50548D0
:109E400084681C22002114F06DF82046BDE8104003
:109E500004F042B8B438002070B5194CE36813B967
:109E60007846FEF7E5FA237E13B17846FEF7E0FA6E
:109E70006368092B02D97846FEF7DAFA114D0026FD
:109E8000636855F823309847022811D003280DD075
:109E9000012810D163680133092B636002D9784629
:109EA000FEF7C6FA237E002BEAD004E06660F9E7ED
:109EB000237E0BB1207070BDBDE87040FFF7BEBFC0
:109EC000B438002098E8030010B50388044613B99D
:109ED0007846FEF7ADFA2088074B04EB800030EAA5
:109EE000030203D06288B2F5FE4F04D11C4004F592
:109EF00080542078204410BD00F0FFFF70B5044668
:109F00000E4647F6FE65FFF7DFFFB04207D28442F8
:109F100005D24388013B9BB2AB42F4D870BD002010
:109F2000FCE700000B78032B094B04BF00221A76D4
:109F30001A78012A03D11B7E43B9FFF78DBF022A8D
:109F400004D10B78032B01D1FFF778BF704700BF16
:109F5000B438002010B50C4CE3681878002203F5E3
:109F60008051184404F0A0FA50B9E1680846FFF7A0
:109F70005AFF814206D001F58051E160032010BDF7
:109F80000120FCE70220FAE7B43800201FB50A4B95
:109F900002221B688DF800200193084A4FF4805379
:109FA00069460120029300F0F3FEB0FA80F0400908
:109FB00005B05DF804FB00BFD4380020D038002085
:109FC0001FB50123CDE902210190054A8DF800302B
:109FD0006946184600F0DCFE05B05DF804FB00BFE2
:109FE000D03800202DE9F047254BD8680279417917
:109FF000013A91421E4603D101205876BDE8F08710
:10A0000000F580531F491C781C440B6813F8045F4B
:10A010001D44FFF708FF6388013B9BB247F6FE62D1
:10A02000934200F58057884604D920463946FFF709
:10A0300065FF0446DFF850A04FF001092CB9B4FACF
:10A0400084F4640974760120D8E7D8F80010628897
:10A05000284601F5805104F027FA05460028EED085
:10A0600004225146204686F81890FFF7A9FF28B928
:10A0700020463946FFF742FF0446DFE70020BDE7F0
:10A08000B4380020D43800205CEA030038B5104C06
:10A09000E36818784FF6FF7203F58051184404F016
:10A0A00003FA88B1E36819780B4498420CD0657EB6
:10A0B0000849094B0422002D08BF1946FFF780FF0D
:10A0C00020B90120207638BD0120FCE70020FAE706
:10A0D000B438002064EA030060EA030070B50C4D58
:10A0E0000C4EE96830680C7804302246FFF768FFB0
:10A0F00058B9336804F0FC0404341C44EB686C6108
:10A100001A7813442B61012070BD0020FCE700BFCA
:10A11000B4380020D438002008B5054B054918682C
:10A120000422FFF74DFFB0FA80F0400908BD00BFE0
:10A13000D4380020C038002010B5074B074C1968F0
:10A14000E06840F6FC720431FFF73AFF10B90120D5
:10A15000207610BD0020FCE7D4380020B438002061
:10A1600010B50C4CE1680846FFF75DFE81420AD14C
:10A17000094B0A4918680422FFF722FF40B901235E
:10A180002376022010BD01F58051E1600320F9E73C
:10A190000020F7E7B4380020D4380020D838002059
:10A1A0002DE9F74F324C236913B97846FEF740F991
:10A1B000636913B97846FEF73BF9DFF8B89047F6C4
:10A1C000FE6A6369D4E9030603EA0908A8EB0308F9
:10A1D000FFF729FE7388013B9BB2534508F5805871
:10A1E00000F5805B06D930465946FFF787FE0646E4
:10A1F000002835D0354600275D4519D22A8807EB5F
:10A200008202904509D986EA050313EA090F04D1B1
:10A210006B88013B9BB2534502D957B9012318E023
:10A2200028460192FFF750FE019A05461746E3E7DC
:10A23000E7B13A4631466069FFF7C2FE90B96369FB
:10A240001F44676115B97846FEF7F2F825610023CF
:10A2500035B1698847F6FF72914201D0002BB0D02A
:10A26000012000E0002003B0BDE8F08F0123EFE7FC
:10A27000B438002000F0FFFF1FB50A4B0222DB6854
:10A280008DF800200193084A4FF48053694601205D
:10A29000029300F07DFDB0FA80F0400905B05DF852
:10A2A00004FB00BFB4380020D038002010B54FF0B8
:10A2B00010235A69013225D05A691AB35B69A3F594
:10A2C0008053A3F58053174A196813604B1E03335C
:10A2D00025D8C1F30B0313BB134A1448D1600121E5
:10A2E0001170134913765376936051F823408442DA
:10A2F0000ED1536001200F4900F03AFDFFF7ACFD8D
:10A30000012010BD4FF08052516913694B43D8E7CB
:10A3100001330A2BE9D17846FEF78AF8EAE70020F4
:10A32000EFE700BFD4380020B438002079A2020043
:10A3300098E80300259F020010B5044610B978463E
:10A34000FEF776F8094B187860B1E068D968437970
:10A35000A0EB0333994206D3FFF765FD81428CBF22
:10A360000020012010BD0020FCE700BFB438002011
:10A37000024B1878003018BF01207047B438002015
:10A3800038B50E4C2378054613B17846FEF750F8E1
:10A390002B78032B02D07846FEF74AF8EB68E3608F
:10A3A000012000230649A560636023762070637650
:10A3B00000F0DEFCBDE83840FFF74EBDB4380020A9
:10A3C000259F0200014B1868704700BFD438002059
:10A3D00010B5044610B97846FEF72AF863681BB139
:10A3E00023680BB1A36813B97846FEF721F8A36878
:10A3F0005A1E1A4202D07846FEF71AF80023C4E922
:10A40000033310BD70B50E460446F0B18368F3B156
:10A41000EFF3108572B6D0E90331994203D105B943
:10A4200062B605250FE04EB18368013B0B40D0E9D1
:10A430000012304602FB031113F069FD236901335A
:10A44000236135B962B6284670BD0E25FBE70925A4
:10A45000F9E70025F7E70000024AD2F80034002BA4
:10A46000FBD0704700E00140C0F30B0310B5E3B927
:10A47000E9B1104C0223C4F80435FFF7EDFF01F6F3
:10A48000FF7121F47F6121F00F010144884205D161
:10A490000020C4F80405FFF7DFFF10BDC4F808056D
:10A4A000FFF7DAFF00F58050F0E71020F5E709200C
:10A4B000F3E700BF00E0014070B540EA010414F08A
:10A4C00003041BD1E2B195071AD10E4E0123C6F841
:10A4D00004359508FFF7C0FFAC4205D10020C6F84F
:10A4E0000405FFF7B9FF70BD51F824305A1C03D0A2
:10A4F00040F82430FFF7B0FF0134EDE71020F2E719
:10A500000920F0E700E001404388012B05D0022B31
:10A5100001D1043008600120704704304860FAE738
:10A5200008B508220221094803F031FB20B9084888
:10A53000BDE8084003F0A8BC064A91684160127B60
:10A540000272BDE8084003F051BB00BFE4380020B0
:10A55000E82D00203039002010B5044610B97846A7
:10A56000FDF766FF2346BDE81040184700B50A4BCB
:10A570001A7B9B688DB0012A08BF03F1FF3303905B
:10A580000CA80493022300F82C3D8DF80820FFF757
:10A5900029FA0DB05DF804FB3039002038B50E4DB6
:10A5A0002B78C3B90D4B5C6804F50054B4F1807F7F
:10A5B00011D8042201210A4803F0E9FA20B9094818
:10A5C000BDE8384003F060BC012344602B70BDE857
:10A5D000384003F00BBB38BD44390020303900202F
:10A5E000E4380020D82D002010B501210C4803F0DC
:10A5F00013FB80B902210A4803F00EFB044650B950
:10A6000001461422074813F08DFC074B1C70BDE86F
:10A610001040FFF7C3BF054803F036FCF7E700BF63
:10A62000E43800203039002008390020082E0020AE
:10A6300030B50D468DB07AB94B88012B0AD1124C3A
:10A64000227812B97846FDF7F3FE104B6A685A601B
:10A65000002323700DB030BD032A02D07846FDF7E9
:10A66000E7FE2C22002101A813F05CFC11238DF8D9
:10A670000430074B0395DA681B69059201A806931D
:10A68000FFF7B0F9E6E700BF443900203039002079
:10A69000E438002013B501F033FD00216B46124A67
:10A6A0001248134CCDE9001103F0C4F9009B0BB123
:10A6B000019A6AB900232360A3602373FFF730FF78
:10A6C00023686360FFF76AFF01F05AFD02B010BD16
:10A6D0001968A16019792173934203D91B790BB9C9
:10A6E0002360EDE71368FBE709A50200E4380020CA
:10A6F0003039002008B503F015FCA0F5805008BDE6
:10A700007FB500211822684613F00CFC0023029349
:10A71000FFF7F0FF0123009001936946054B0648BF
:10A72000039303F0A1FA10B1044803F0ADFB07B0A6
:10A730005DF804FB31A60200E4380020F82D00206B
:10A7400008B5142200210A4813F0ECFB01F020F8B0
:10A75000084B094A09499A6000225860C3E903126C
:10A760005A61074B1A70BDE80840FFF7C9BF00BF28
:10A77000303900200C39002071A8020000879303B3
:10A780004539002010B5074C23784BB90648074BD4
:10A79000036000F0A1FD064800F098FF012323703C
:10A7A00010BD00BFE038002024390020D5A80200E9
:10A7B0000C39002010B501F0A3FC104A117B1346A0
:10A7C000C9B9917BB9B9118A41F28262914202D82A
:10A7D0000B4A12787AB101221A739A680024013266
:10A7E0001C829A60FFF79CFE2046FFF7BFFE01F037
:10A7F000C7FC204610BD0824F9E700BF303900200F
:10A800004539002010B501F07BFC174A547B1346F4
:10A81000BCB1917B21BB118A41F28262914202D884
:10A82000124A1278F2B11A7B002058732AB1012A19
:10A830000BD07846FDF7FCFD03E0FFF7BBFF0028D7
:10A84000F7D101F09DFC204610BDC3E9000018734C
:10A850001882FFF78BFEFFF763FEFFF79FFEF0E71E
:10A860000024EEE71446ECE730390020453900209B
:10A8700010B5164C237B2BB1012B12D07846FDF777
:10A88000D7FD18E0228A41F282639A4202D8104B27
:10A890001B7883B1FFF7B6FF638A0BB1013B63827C
:10A8A00010BD228A41F282618A4208D8084B1B7887
:10A8B0000BB1FFF7A7FF238A01332382ECE742F2B3
:10A8C000B0118A42F5D96373E4E700BF3039002044
:10A8D0004539002010B50378042B0ED143681B784E
:10A8E0005BB11D4B4269197B047E71BB598A01BB68
:10A8F000012C996802D08A4203D810BD4C1CA24298
:10A9000019D92A318A42F8D8997B0029F5D184686F
:10A910009A60124A1A61C3E9001159731973FFF75B
:10A92000FFFDFFF73BFE04F11000BDE81040FFF70C
:10A930001DBE012CE1D1996801318A42DDD101228D
:10A940005A73BDE81040FFF75DBF0129D5D1012C36
:10A95000D3D09968F1E700BF303900200000062D00
:10A9600038B5164CD4E900239A4205461FD2207B05
:10A97000134B1449012808BF0B469A4207D263685B
:10A980002268403B9A4208D3FFF708FE05E0012306
:10A990006373FFF737FF0028F1D0EFF3108072B632
:10A9A00023685A1C22602B6028B962B638BDFFF7B5
:10A9B000F5FD0F20FAE70020F8E700BF303900204E
:10A9C000FFFF7F0000E0FF0010B50C4A136814463B
:10A9D00028B101200A4903448873136010BD13B9DC
:10A9E0007846FDF725FD2368013B2360002BF5D158
:10A9F000034A9373BDE81040FFF704BFDC38002022
:10AA00003039002000B58DB00323ADF808000CA844
:10AA10008DF8102000F82C3D0391FEF7E3FF0DB0F8
:10AA20005DF804FB014B9868704700BF3039002087
:10AA3000034B98681B7B012B08BF00F1FF30704768
:10AA400030390020044B9B685840C20748BF03F1CF
:10AA5000FF331846704700BF30390020014B187B88
:10AA6000704700BF3039002038B50A4B1C787CB9DC
:10AA7000094D01221A702973A860FFF751FD204685
:10AA8000FFF774FDC5E90044FFF788FD204638BD97
:10AA90000820FCE708390020303900202DE9F84370
:10AAA0001D4CDFF8789000260221204602F07EFA45
:10AAB0005FFA86F805460027ADB967B129462046FA
:10AAC00002F0DBFA082806D154F8043C1BB12A46F0
:10AAD0004946404698470136032E04F1BC04E3D1B1
:10AAE0000120BDE8F88354F8043C34F80C2C13B171
:10AAF00029464046984734F80C3C02210133204651
:10AB000024F80C3C02F06EFA0221204602F04EFAC4
:10AB100001370546D0E700BF5C390020C0E80300DC
:10AB200038B5012104460C3002F040FA054620B346
:10AB3000164BC4F89C300023C4F8A0300378626838
:10AB4000012B07D0022B1AD07846FDF771FC4FF489
:10AB5000FA7306E081688B1A990829234B4303F5A1
:10AB6000FA730B4A934294BFC4F8A830C4F8A820E3
:10AB70000123C4F8AC4084F8B830284638BD836857
:10AB80009B1A1A0B034B5343E9E700BFB9AB020012
:10AB900060850100084C010010B50446FFF7C0FFB6
:10ABA00048B104F19C0005F013FF20B17846BDE8E0
:10ABB0001040FDF73DBC10BD2DE9F74F4A4B1B7807
:10ABC00080460D463BB105F039FF002385F8B830CB
:10ABD00003B0BDE8F08F01F10C09D1F8A870484628
:10ABE000012102F0E3F9064610B97846FDF720FC92
:10ABF000DFF8FCA0A7F5FA7700244FF0290B337893
:10AC0000012BA7EB040406D0022B3BD07846FDF7BE
:10AC10000FFC00231FE06B68B268B4FBFBF4D21A90
:10AC2000A400944228BF144624B901937846FDF746
:10AC3000FFFB019BF168706823F00303224619446F
:10AC40001844FFF739FC10B17846FDF7F1FB6B684B
:10AC50001C446C60B3686A689A422AD105F0EEFE23
:10AC60004846012102F0BEF900236B6085F8B83038
:10AC70001E4B186801F0D2FA284603B0BDE8F04F29
:10AC8000FFF78ABF6B68B268B4FBFAF4D21A2403E8
:10AC9000944228BF144624B901937846FDF7C8FBB7
:10ACA000019B706823F0030321461844FFF7DCFB87
:10ACB000C9E701F019F93378B0EB080448BFA8EBF5
:10ACC0000004012B0DD0022B06D153462344BB4276
:10ACD00095D905F0B3FECFE77846FDF7A9FB002331
:10ACE000F4E72923F2E700BF4C390020483900205F
:10ACF000084C010070B51B481B4C01F071FA1B4B4E
:10AD0000186004F11C0341F203060825636104F195
:10AD10000C0004F118032361A681A57302F089F9E0
:10AD200004F1D803C4F8D03004F1C80004F1D4030E
:10AD3000C4F8CC30A4F8C86084F8CA5002F079F99D
:10AD400004F5CA73C4F88C3104F5C873A4F884619F
:10AD500084F88651C4F8883104F5C270BDE87040AB
:10AD600002F067B99DAA020050390020483900203E
:10AD7000022838B504460D4602D97846FDF758FB3F
:10AD8000024BBC2202FB0434A56038BD50390020C0
:10AD900002282DE9F84F07460C46924602D978461C
:10ADA000FDF746FB14B97846FDF742FB2378012BEB
:10ADB00012D16368990702D07846FDF739FBE36842
:10ADC0009A0702D07846FDF733FBA3689B0711D0A2
:10ADD0007846FDF72DFB0DE0022B0DD16368C3F320
:10ADE0000B0313B17846FDF723FBA368C3F30B03F2
:10ADF000002BEDD1A36813B97846FDF719FBEFF3EB
:10AE0000108872B6BC257D43224E05F10C09B14471
:10AE10000021484602F0CAF8834690B30021484614
:10AE200002F0E0F810222146584613F070F8BAF10B
:10AE3000000F03D073195B88AAF80030BC2303FB12
:10AE400007677B8897F8B84001337B8004BB124BBF
:10AE50001F78BFB97019FFF763FEB8F1000F0ED16C
:10AE600062B6444640B105F19C00304405F0B0FDA7
:10AE700010B17846FDF7DCFA2046BDE8F88F3C4675
:10AE8000F0E70424B8F1000FF6D1A0460020E7E770
:10AE90000024F7E7503900204C39002070B5EFF35B
:10AEA000108672B6144C236818BB13B97846FDF7A8
:10AEB000BFFA2368013B236093B9104D95F8B83071
:10AEC00013B92846FFF768FE95F8743113B90C489A
:10AED000FFF762FE95F8303213B90A48FFF75CFEBF
:10AEE0002368094A003318BF0123137006B962B6FC
:10AEF00070BD01332360F3E7843B0020503900200C
:10AF00000C3A0020C83A00204C39002010B1800BC8
:10AF1000014B185C704700BFD0E8030012DF704798
:10AF200013B5137863B1022B0CBF0723002310F86D
:10AF3000011C292962D005D8162973D002B010BD92
:10AF4000537DF4E72A2927D02B29F7D1022BF5D1FD
:10AF500010F8021C0139C9B203F00EFA04460028A9
:10AF6000ECD0374B1B685B06E8D5364B1B68012BD2
:10AF7000E4DD2F21344813F0A5F8002849D02F2113
:10AF8000314813F09FF8411C304B314AD3F8043557
:10AF900000920194A62224E0022B01D0072BCDD1F0
:10AFA00010F8021C013901F099FC04460028C5D0B4
:10AFB000234B1B685A06C1D5224B1B68012BBDDDF4
:10AFC0002F21214813F07EF878B12F211E4813F06D
:10AFD00079F8411C1D4B1F4AD3F8043500920194A7
:10AFE0009322022002F0E6F9A8E75C21164813F04C
:10AFF00069F808B15C21E9E71349EBE7022B9DD121
:10B0000010F8021C0139C9B202B0BDE8104010F0BE
:10B01000F7BC5C210C4813F055F808B15C21AFE790
:10B020000949B1E701884FF6E463994286D110F8E7
:10B03000021C0230033902B0BDE81040FDF7F6B83B
:10B04000282E0020242E0020F9E8030000100140E3
:10B050003EE9030015E9030070B58AB006F0A8F9CF
:10B060000446002834D000238DF8103006460FCE59
:10B0700005AD0FC533682B60627D052A0CD9207D94
:10B0800000F00F03072B07D004AB063A04F11D01B3
:10B0900000F00F0005F032F8114B1A68AAB104ABAA
:10B0A0000393237DC3F303038DF80430637D062BE4
:10B0B00089BF063B00238DF8053004F11D0398BFBE
:10B0C0008DF80530029301A89047204606F05AF902
:10B0D00006F088F980F00100C0B20AB070BD00BF70
:10B0E0008C3B002000B50A4B1A78032A8DB00CD196
:10B0F00004221A7000212C2201A812F013FF1C2335
:10B1000001A88DF80430FEF76DFC0DB05DF804FB6E
:10B11000883B0020F7B5354F3A780546002A5BD1C9
:10B1200000285BD0067A0F2E01D0062E58D104F0ED
:10B13000B1FFE86800284CD0FDF78CF90DF107004D
:10B14000FFF7ECFE0446002840D19DF80730012BA4
:10B1500048D1FDF7A9F900F0A3FA304600F082FFCC
:10B16000E87800F029F900F0B5FD05F0C7FB2048AC
:10B1700006F0D0F905F03AF9FFF7BCFD04F0C6F887
:10B1800000F050FC04F046FF04F066FD284601F094
:10B19000FBFAFDF7CFFF03F071FCFDF747F808B1AC
:10B1A000062821D1134804F07BFF2A2005F01CF863
:10B1B0002B2005F019F8292005F016F8162005F0C7
:10B1C00013F80D4B00221A6001233B70204603B098
:10B1D000F0BDFDF747F9B1E70824F7E70E24F5E7DE
:10B1E0000724F3E70224F1E70446EFE7883B002059
:10B1F00059B00200182E00208C3B002037B5244D9A
:10B200002A78012A05D002D3033A012A38D9082422
:10B2100028E006F099F801F0C9FAFDF7CDFFFDF737
:10B2200005F8044650B3062828D01A4B1B685B0467
:10B2300018D5194B1B68012B14DD2F21174812F06C
:10B2400041FF90B12F21154812F03CFF411C144BD7
:10B25000144AD3F804350092019440F2A712022058
:10B2600002F0A8F8204603B030BD5C210B4812F074
:10B2700029FF08B15C21E6E70849E8E700F01EFF76
:10B2800005F098FB04460028ECD102232B70E9E777
:10B29000883B0020282E0020242E0020F9E80300FF
:10B2A00000100140D4E8030008B5084B1A78022AC0
:10B2B0000AD1032206481A7005F042FB18B17846FD
:10B2C000FDF7B6F8002008BD0820FCE7883B002009
:10B2D000E5B00200FDF772BFFEF7AEBBFEF7BCBBE8
:10B2E00008B500F0C7FC002008BD07F077B80000E3
:10B2F000044B1A680132B2F1704F08BF01221A6084
:10B3000018687047903B002010B5044610B9784685
:10B31000FDF78EF80023C4E9003310BD38B50D46A3
:10B32000044610B97846FDF783F815B97846FDF75D
:10B330007FF800236B60EFF3108372B6226822B9A6
:10B340002560656003B962B638BD62685560F8E78C
:10B3500010B5044610B97846FDF76AF8EFF310828D
:10B3600072B6206808B143682360236803B963603C
:10B3700002B962B610BD10B5044610B97846FDF7A3
:10B3800057F8206810BD35DF7047000008B54FF052
:10B39000FF30FFF7F8FFBFF34F8F0549054BCA6831
:10B3A00002F4E0621343CB60BFF34F8F00BFFDE7B1
:10B3B00000ED00E00400FA0507289ABF024B33F8BD
:10B3C0001000FA20704700BF6AE90300024B58687A
:10B3D000103840B2704700BF00ED00E0084A20235B
:10B3E00090FBF3F352F82330424202F01F0200F0C8
:10B3F0001F0058BF504223FA00F000F001007047D0
:10B4000000E100E046DF704730B501F11003103273
:10B41000103013F8014D12F8015D8B4284EA0504E7
:10B4200000F8014DF5D130BD2DE9F047144690B03C
:10B4300002F10F05102288462D1101460DEB020086
:10B44000994604F00F0412F062FD002D51D0002C3B
:10B450004FD10126B2461022002108A812F062FD49
:10B4600004A8FFF7CFFF01220DF13F0110AB13F944
:10B47000100D1F4693F800C04FEA4C0C5FFA8CFC8D
:10B4800083F800C013F801EF4CEADE1C994203F880
:10B4900001CCEFD19DF83F305B00DBB20028B8BF94
:10B4A00083F087038DF83F30531C9A454FF002021A
:10B4B000DCD2013D08EB0511FEB10CAA6846FFF78E
:10B4C000A3FF102200210CA812F02CFD0024AC4296
:10B4D00025DB3A46694608A8FFF796FF04A8FFF760
:10B4E00091FF10223946484612F011FD10B0BDE818
:10B4F000F08700264FF0020AADE72246684612F0B8
:10B5000006FD10AB2344802203F8402C0134102C9C
:10B5100002D10CAA6946D1E70DF80460F6E708EB02
:10B520000412394608A8FFF76FFF04A8FFF76AFF67
:10B530000134CCE738B5124B1A6804462AB11A68B0
:10B5400045685268AA1A002A0DDA1A6862611C60FE
:10B550009A88013292B29A8012B97846FCF768FF55
:10B560000123237038BD19684A691AB15068401B1D
:10B57000002802DB62614C61EAE71146F4E700BF94
:10B58000983B002010B5124B1A68824204461A46B6
:10B590000BD142691A609A8892B2511E89B2998081
:10B5A0008AB97846FCF744FF0DE01B685BB1596926
:10B5B000A1420BD16169596193889BB2591E89B22E
:10B5C0009180002BEDD00023237010BD0B46EDE7DA
:10B5D000983B0020014B186800F020BE943B0020EF
:10B5E000044B1A6822B11B680349586800F05AB925
:10B5F00000F0AEB9983B0020D5B502002DE9F0412E
:10B6000000F0C6F8254E054637464FF0000833686F
:10B6100023B133685B685B1B642B06D400F0B8F879
:10B62000FFF7DEFF0120BDE8F08134682378012BAD
:10B6300002D07846FCF7FCFE63693B60BB88C4F827
:10B6400014809BB25A1E92B2BA8013B97846FCF7A6
:10B65000EFFEA36813B97846FCF7EAFE02232846FA
:10B6600023702169A368984700F092F82378022B91
:10B670000546CCD1E2680AB92270C8E763686FF06A
:10B680006301891A1344091AD018C14204D46360B3
:10B690002046FFF74FFFBAE70346F5E7983B002047
:10B6A00008B508220021064812F03CFC054800F0CD
:10B6B00097FD054B1860BDE8084000F05CB800BF7E
:10B6C000983B0020FDB50200943B002010B50446D5
:10B6D00000F07CFE10B97846FCF7AAFE14B9784653
:10B6E000FCF7A6FEA36813B97846FCF7A1FE237801
:10B6F000012B02D17846FCF79BFE002363612046B4
:10B70000FFF718FF00F044F8BDE81040FFF768BFEE
:10B7100010B5044600F05AFE10B97846FCF788FED2
:10B7200014B97846FCF784FE2046FFF72BFF002370
:10B73000636100F02DF8BDE81040FFF751BF38B548
:10B7400004460D4600F042FE10B97846FCF770FE44
:10B7500014B97846FCF76CFE2046FFF713FF002370
:10B76000636120466560FFF7E5FE00F011F8BDE873
:10B770003840FFF735BF08B50EF082FD38B90EF03E
:10B78000BFFC20B17846BDE80840FCF751BE08BDBB
:10B7900010B5EFF3108072B60C4A0D4B1968D2F851
:10B7A0000435D2F80441012C04BFD2F8043501312C
:10B7B00000B962B6074843EA01614FF480420023B2
:10B7C000E0FB0123D00B40EA434010BD00100140D4
:10B7D000A03B002040420F0010B50A4B0A4C4FF42A
:10B7E0000032C3F84823C3F80823226812B9784608
:10B7F000FCF71EFE2468FFF7CBFF2346BDE8104090
:10B80000184700BF00100140AC3B002010B5EFF31B
:10B81000108072B61E4B1F490022C3F804210A682B
:10B8200001320A6000B962B61B4A116809B3116897
:10B83000013911601268E2B9184AD3F80405116899
:10B84000884217D2EFF3108072B6D3F8041514684B
:10B850000131A1422ABFD3F8042512680232C3F88D
:10B86000442500B962B64FF40032C3F84423C3F84C
:10B87000042310BD0A4C226812B97846FCF7D8FDA3
:10B880002468FFF785FF2346BDE81040184700BF36
:10B8900000100140A03B0020A43B0020A83B00205A
:10B8A000AC3B002037B50023044601930D4611B987
:10B8B0007846FCF7BDFD204B1D60FFF769FF031BB9
:10B8C000002BB8BF241A1D481D4AA8BF00244FF4FE
:10B8D000004500210023E5FB040112F041F9EFF3DC
:10B8E0001083019372B6174A174CD2F80435022818
:10B8F000C3F1FF1101F57F4138BF02208142134996
:10B9000010D30344C2F844354FF40033C2F8443333
:10B91000C2F80433002323600B60019B03B962B6B5
:10B9200003B030BD03F17F43013303441A0E0132EB
:10B93000226023F07F43EFE7AC3B002020A107000B
:10B9400040420F0000100140A43B0020A83B002013
:10B95000074B4FF40032C3F84823C3F80823054AC5
:10B9600000231360044A1360044A1360704700BF49
:10B9700000100140A43B0020A83B0020AC3B00206D
:10B9800030DF704731DF704710B5D0E9002384689D
:10B99000C168A2EB731283EAF43303600C441344CE
:10B9A000114444608160C360184610BD37B50C4631
:10B9B000054610B97846FCF73BFD00239C4201D8B0
:10B9C00003B030BD0DF10700FFF7DAFF9DF8071057
:10B9D0000029F7D0E21A914288BF8DF80720E818B5
:10B9E0009DF80710FFF7CEFF9DF807201344E5E709
:10B9F00037B5044602A8002340F8043D0421FFF7B0
:10BA0000D5FF074B2360019BE360C4E90133142594
:10BA10002046FFF7B9FF013DFAD103B030BD00BFAA
:10BA2000ED5EEAF1704748DF704749DF70474ADF53
:10BA300070470000064A032313741168054B5361D5
:10BA400040F6D862914288BF43F2B0629A60704774
:10BA5000DC3B0020FC3B0020054B1B68A0F178027A
:10BA600028335843034BB0FBF3F0101A704700BF64
:10BA7000F83B002040420F0038B50E4A0E4C01231F
:10BA800063711368002501331360257400F086FA92
:10BA900005F04AF82068FFF7DFFF084A014628460C
:10BAA00000F0F0F920B17846BDE83840FCF7C0BCA2
:10BAB00038BD00BF103C0020DC3B002035BA02003E
:10BAC00010B41F4B5A6928B11968DC68114401345D
:10BAD000DC601960996801240131E24001291C747D
:10BAE00099605A611C680ED002291AD05B69154A08
:10BAF0001C44944203D840F6D76293421CD85DF8A8
:10BB0000044BFFF7B9BFB2F5FA7F03D130B9002279
:10BB10005A61EBE740F6D8618A42E7D840F6D8622E
:10BB2000F6E7DA68022A02D1064A121BF0E7012A78
:10BB3000DCD10028EBD0D9E75DF8044B704700BF9B
:10BB4000DC3B00208096980070B5424C424D0123AA
:10BB500023712B781BB1414B1E78002E5BD0002344
:10BB60002374042853D8DFE800F0034D4A4844000A
:10BB70003B4DA179AA68C4E90233236822600029F9
:10BB800034D0012121743749002B08BF0B46991A84
:10BB9000B1F57A7F26D39A4224D8616143F2B0602E
:10BBA00043F69822C5E9020201236B71A371237C3D
:10BBB000023B012B0DD8637943B104F0D1FF20681B
:10BBC000FFF74AFF00F01CFA00236371234B0022A9
:10BBD0001A70237C2448022B04BF01232376002300
:10BBE000237170BD4FF47A736361D7E7FFF744FFA9
:10BBF000D4E70120FFF764FFD9E70020FAE704F05B
:10BC000041FFD4E700F090F904F074FFCFE77846E5
:10BC1000FCF70EFCCBE700F067F92B782060022BD5
:10BC20000FD0032B06D0012B10D102232374002345
:10BC30002B70BCE70A4B0D490D4A5E71C3E9021235
:10BC4000A67103232374064B6361F0E77846FCF783
:10BC5000EFFBECE7DC3B00200D3C00200C3C00201F
:10BC6000FC3B002080969800EC3B0020A086010061
:10BC7000FF1FA107043808B5042825D8DFE800F025
:10BC800016220A030F00114B1B7E012B1CD1FFF75C
:10BC9000CCFEC8B17846BDE80840FCF7C9BB0B4BE9
:10BCA00000221A76BDE8084004F092BF084801233C
:10BCB000437143F6982240F6D863C0E90232FFF799
:10BCC000B6FEE6E70248FAE708BD00BFDC3B00200D
:10BCD000FC3B00200D4A4FF480710023918043F219
:10BCE000B06C43F698211370C2E902C1084A106093
:10BCF000084A1370084A1370084A1360084A1371FF
:10BD0000537113601376012393717047FC3B00203D
:10BD1000F83B00200C3C00200D3C0020103C002093
:10BD2000DC3B002010B50E4C227E012A0CD004D33F
:10BD3000022A0CBF1120002010BD0A48FFF773FE35
:10BD400010B17846FCF774FB0748FFF770FE10B19E
:10BD50007846FCF76DFB022323760020ECE700BF5A
:10BD6000DC3B002049BB0200FC3B0020074B1B7C56
:10BD7000023B012B07D9064B1878013802288CBFEB
:10BD80000020012070470120704700BFDC3B0020ED
:10BD90000D3C0020014B1868704700BFDC3B0020C1
:10BDA00010B5074B587948B11868FFF755FE04469F
:10BDB00000F09AF80346201A48BF181B10BD00BFB8
:10BDC000DC3B0020014B5879704700BFDC3B002072
:10BDD000014B1879704700BFDC3B0020024B187EF6
:10BDE000003018BF01207047DC3B0020EFF31083C8
:10BDF00072B6054A527922B1044A4FF48071C2F8F2
:10BE0000001103B962B67047DC3B002000E100E09E
:10BE1000044B1B7E022B04D1034B01221A70FFF747
:10BE2000E5BF7047DC3B00200D3C0020064B1B7E2D
:10BE3000022B07D10128054B0CBF032202221A70E6
:10BE4000FFF7D4BF704700BFDC3B00200D3C002053
:10BE5000064B19781A4631B128B90549097811B14C
:10BE60001870FFF7C3BF1070704700BF0C3C002074
:10BE70000D3C0020024B1B6803B962B6704700BF3F
:10BE8000243C0020022810B522D8EFF31084114B77
:10BE90001C6072B6104B43F82020104B002243F870
:10BEA00020200F4B1B787BB1830003F1804303F507
:10BEB00000431030C3F84021012202FA00F0094A81
:10BEC000C2F80403C3F84015FFF7D4FF002010BDEB
:10BED0000720FCE7243C0020143C0020303C0020DC
:10BEE000203C00200080004008B5EFF310820A4B90
:10BEF0001A6072B6094B1B7853B1094B0022C3F884
:10BF00004C210122DA64D3F84C05FFF7B3FF08BDDA
:10BF1000044B1868F9E700BF243C0020203C0020B7
:10BF200000800040283C00202DE9F84FDFF85880C1
:10BF3000DFF858900024A70007F1804505F500457B
:10BF4000D5F84031D3B1D8F8043304F110020126FA
:10BF50009640334212D057F809B0BBF1000F02D11E
:10BF60007846FCF765FA4FF0000A49F807A0C8F8D0
:10BF70000863FFF7B9FFD847C5F840A10134032C87
:10BF8000D9D1BDE8F88F00BF00800040143C0020EC
:10BF9000014B1B68184470472C3C002008B5134B1C
:10BFA0000022C3F84025C3F84021D3F84011C3F85C
:10BFB0004425C3F84421D3F84411C3F84825C3F8F5
:10BFC0004821D3F848310A4B1B681BB9094B4FF481
:10BFD00080721A60084B01221A70FFF7D9FB0146E4
:10BFE000FFF782FF054B081A186008BD008000406B
:10BFF000243C002000E100E0203C00202C3C0020FC
:10C000000B4A0C4900231360536093600A4A0B608B
:10C0100010600A4A4B6013708B60094B4FF0FF327F
:10C02000C3F80823074B4FF48072C3F88021704790
:10C03000303C0020143C0020283C0020203C002004
:10C040000080004000E100E0044B1B780F2B1EBF76
:10C05000034B4FF48022C3F800217047843D002039
:10C0600000E100E010B5104C104B20701048036048
:10C070001023C0E90133FEF7ABF90E48FFF744F98E
:10C0800023780F2B0AD0072B09D8EC221A41D207AC
:10C0900005D55B01084ADBB282F8123310BD784641
:10C0A000BDE81040FCF7C4B9843D0020503C00209E
:10C0B0003C3C0020883D002000E100E00D4B1B7857
:10C0C0000F2B0DD00C4991F812335A09EC23134170
:10C0D000DB0706D5094B9A6832B94FF480230B6011
:10C0E00070477846FCF7A4B91A6842F480221A60B7
:10C0F000704700BF843D002000E100E03858002078
:10C10000F8B5EFF3108772B617480268511C01604A
:10C1100002BB164B1B780F2B21D0EFF3108C72B69D
:10C12000134A144C95680123E5B99360124B134EE2
:10C13000D3F8801031401160C3F88060D3F88410C8
:10C1400051604FF0FF32C3F884202570BCF1000F1E
:10C1500000D162B6036813B97846FCF769F907B9EC
:10C1600062B6F8BD2370F1E7503D0020843D002009
:10C1700038580020853D002000E100E0FC06FFBDAE
:10C1800038B5EFF3108572B6104C236813B97846B2
:10C19000FCF74EF92368013B2360A3B90C4B1B78D5
:10C1A0000F2B10D00B4B9A686AB10B4A127852B918
:10C1B000EFF3108072B609491C680C605C684C6033
:10C1C0009A6000B962B605B962B638BD503D00202C
:10C1D000843D002038580020853D002000E100E02B
:10C1E00038B5054610B97846FCF722F9094C2368A2
:10C1F000092B02D97846FCF71BF9EFF3108372B6CE
:10C200002068421C2260044A42F8205003B962B6FA
:10C2100038BD00BF543D0020583D002010B50E4BE6
:10C220001B688342044602D87846FCF701F9EFF315
:10C23000108072B6094A6109012304F01F0403FA51
:10C2400004F452F82130234342F82130FFF7FCFE7A
:10C2500000B962B610BD00BF543D0020803D0020F3
:10C2600070B50D461646044610B97846FCF7E0F85E
:10C2700015B97846FCF7DCF8EFF3108372B60022AC
:10C28000C4E902562274246003B962B670BD00008E
:10C2900070B5044610B97846FCF7CAF8A36813B91C
:10C2A0007846FCF7C5F8EFF3108672B6237C03F0EE
:10C2B000FF055BB90123064823742146FFF72EF8DA
:10C2C000FFF7C2FE284606B962B670BD1120FAE734
:10C2D000883D002010B5044610B97846FCF7A8F850
:10C2E000207C10BD2DE9FF47314E337813B17846DD
:10C2F000FCF79EF80125DFF8C8802E4FDFF8C490C8
:10C3000035700024D8F80030A34212D82A48DFF84C
:10C31000A880FFF71DF8002750BB284C694620462F
:10C32000FEF770F890B300232846337004B0BDE8E0
:10C33000F087610904F01F020123934057F8212080
:10C34000134213D0EFF3108072B657F8212022EA7F
:10C35000030347F8213000B962B659F824309847F2
:10C36000824618B92046FFF759FF55460134C9E700
:10C370000468237C13B97846FCF75AF8D4E90230F4
:10C38000984727744046FEF7E3FFC5E79DF8003065
:10C3900043B1012BC2D1019B002BBFD0DDE90201CB
:10C3A0009847BBE7019B002BB8D002989847B5E7A8
:10C3B000903D0020803D0020883D00203C3C002036
:10C3C000543D0020583D0020FFF78CBF07B5FEF715
:10C3D000FDFF8DF803009DF803301749F02B0DD1B8
:10C3E0000B780F2B25D01220FEF7F8FF80F001000C
:10C3F000C0B200F0010003B05DF804FB9DF803300B
:10C400005BB2002BADBF03F1604303F00F030B4A97
:10C4100003F56143B4BFD35C93F800335B09019328
:10C42000019A0B78934204D0019A9342DBD3002007
:10C43000DFE70120DDE700BF843D002014ED00E0D0
:10C4400046DF704730B58DB00D46144601461022C8
:10C45000684611F05CFD102229460DEB020011F038
:10C4600056FD6846FFF7ECFF102208A9204611F0A0
:10C470004EFD0DB030BDFEF7D7BF01F015BE01F087
:10C480003DBE30B4032956D8DFE801F0022727501B
:10C4900000241C70817A5A7861F306025A70C17ABE
:10C4A000D2B261F3C7125A70C1680D04C1F30742DA
:10C4B00005F47F0501F47F412A430A43C2F30721B3
:10C4C0009A70120C1A71D9700189DC710A0A42EA59
:10C4D0000122A3F805201C7222E01970597801F09E
:10C4E000800162F3C7115970C1680C04C1F307429F
:10C4F00004F47F0401F47F4122430A439A70C2F39B
:10C500000721120C1A71D97001890A0A42EA012224
:10C51000A3F8052041880A0A42EA0122A3F807206D
:10C52000026912BAC3F8092030BC70470322002404
:10C530001A705C70B8E7784630BCFBF779BF7FB5FE
:10C540000E461546044600B112B97846FBF770FF57
:10C5500010220021684611F0E5FC2B4632462146A8
:10C560006846FEF761FF04B070BD2DE9FF410B9DE9
:10C57000884616461C46074610B10AB103B115B9E4
:10C580007846FBF755FF6B46424639463046FEF784
:10C590004BFF2B469DF8282021466846FEF744FFB6
:10C5A00004B0BDE8F0810000F0B50D468FB0144630
:10C5B0001F46064608B101B113B97846FBF738FFAC
:10C5C0001CB97846FBF734FF01E0102CF9D8254B55
:10C5D0001868009005AA68460421FFF7B0FF01AB78
:10C5E000314605A81022FEF71FFF2246294605A85E
:10C5F00011F08DFC0EAB2344012203F8242C05AB73
:10C60000A218194601A892B2FEF70EFF9DF823303A
:10C610003E4603F07F0306F8013B2246294609A85F
:10C6200011F075FC04F110050EAB1D441134A4B2D9
:10C63000022305F8243C2246334605A901A8FEF74B
:10C64000F3FE3146102205A811F061FC032305F822
:10C65000243C224607F1110305A901A8FEF7E4FED8
:10C660000FB0F0BD7AE9030070B50D4688B00646FC
:10C6700000B111B97846FBF7DBFE114C04212068AC
:10C68000019004AA0DEB0100FFF759FF04AB3146FE
:10C6900018461022FEF7C8FE234602A953F8040FDD
:10C6A00002901B798DF80C3004AB18460522FEF77A
:10C6B000BBFE082206A9284611F029FC08B070BD6F
:10C6C0007EE9030070B50D4686B0064600B111B98B
:10C6D0007846FBF7ADFE0F4C54F8040B009002AA0D
:10C6E00068460421FFF72BFF02AB314618461022A3
:10C6F000FEF79AFE2068019002AB042218460DEB6B
:10C700000201FEF791FE9DF8173003F03F032B70F6
:10C7100006B070BD87E9030030B50268037CD17AAA
:10C7200087B000298DF8043083680CBF04210821EC
:10C7300009330B44CDE90232436804930446C368CD
:10C740000593694601A801F0F1FED0B1237C012BCD
:10C750000ED02568FEF76CF9286120680C30FEF7D2
:10C76000FFF8054620B101F05DFF284607B030BD57
:10C770002168009800F0A5FB009B09336361002548
:10C78000F3E70425F1E7000008B5074B40B918604E
:10C79000FDF7D6FFFDF77EFFBDE8084002F088BB3D
:10C7A00042681A60F4E700BF943D002008B5FDF729
:10C7B000E9FFBDE8084002F0B9BB10B5044610B966
:10C7C0007846FBF735FE236813B97846FBF730FE51
:10C7D00023685B6913B97846FBF72AFE237C012B9B
:10C7E00002D97846FBF724FEE36813B97846FBF7D5
:10C7F0001FFE2046BDE81040FFF78EBF70B504460F
:10C80000C6B010B97846FBF713FE636913B97846D2
:10C81000FBF70EFE236813B97846FBF709FE236881
:10C820005B6913B97846FBF703FE606900F0A6FB6D
:10C83000234B1B689B0706462FD5224B1B68042BF6
:10C840002BDD214B05AD19680023F25C100902F0C5
:10C850000F02085C05F81300885C05EB4302013306
:10C860001D2B5070F1D100232F21184885F83A3044
:10C8700011F028FCD8B12F21144811F023FC411CE1
:10C88000134B144AD3F804350192134A00920295CF
:10C890004FF49472052000F08DFD00233246A1680C
:10C8A000206800F0CFFA01F097FE46B070BD5C2121
:10C8B000064811F007FC08B15C21DDE70349DFE71A
:10C8C000282E0020242E00202C2E0020DAE9030040
:10C8D00000100140F5E90300B2E503002DE9F0473F
:10C8E0008846D4B017460546002800F04E8100F077
:10C8F00049FB0DF12C09A64E421B2946484611F072
:10C9000006FB336899072AD5A24B1B68042B26DD4A
:10C910004046A14B8028196828BF8020002313AC13
:10C92000834240F0C98000222F219C4804F8132044
:10C9300011F0C8FB002800F0D0802F21974811F09B
:10C94000C1FB411C964B974AD3F804350192964A95
:10C950000092029440F24D12052000F02BFD0023BE
:10C9600005AC00932A464B464146204600F020FA8B
:10C970008246002840F0DB802378002B00F0D7802F
:10C98000E268B2F1807F80F0D280E27A12B1022BAD
:10C9900000F0CD8094F90A30002BC0F2C8803368D3
:10C9A00013F0020F13AD29D07A4B1B68042B25DD41
:10C9B0004046794B8028196828BF80200023834295
:10C9C00040F0948000222F21744805F8132011F0C4
:10C9D00079FB002800F09C802F21704811F072FB39
:10C9E000411C6F4B714AD3F8043501926E4A009294
:10C9F00002954FF4AB72052000F0DCFC636913B9BB
:10CA00007846FBF715FD3946204605F013FD4146F3
:10CA1000204600F0ABFA5FFA80F83B4622464146DA
:10CA20000DF13500FCF7F6FCE16882462089FBF742
:10CA30006BFD294620890DF09FF8002877D1012051
:10CA400003F018FB002872D0A37A012B6FD923784A
:10CA5000012B66D03B78012B03D105F021FD002886
:10CA600065D0534BA27A1B68002B64D1A37A2C604B
:10CA7000013BA3724FF0FF336B60DF23EB600123B8
:10CA80002B743B78C5F80880012B06D005F008FD13
:10CA900018B9EB6883F00203EB602846FFF73CFE11
:10CAA00000284ED142460DF13501686911F02FFA88
:10CAB0002846FFF7A3FE3AE0EA5C4FEA121C02F0B8
:10CAC0000F0211F80CC004F813C011F802C004EBF7
:10CAD0004302013382F801C022E75C212F4811F0A4
:10CAE000F1FA08B15C2129E72C492BE719F803205A
:10CAF0004FEA121C02F00F0211F80CC005F813C027
:10CB000011F802C005EB4302013382F801C056E779
:10CB10005C21224811F0D6FA08B15C215DE71F497B
:10CB20005FE7294660880DF027F8002892D050462C
:10CB300054B0BDE8F087618820899847002895D1D6
:10CB4000F5E733689B07F2D5124B1B68012BEEDD2E
:10CB50002F21124811F0B6FA70B12F210F4811F0B1
:10CB6000B1FA411C0E4B134AD3F80435009202204F
:10CB7000A72200F01FFCDAE75C21084811F0A2FAB6
:10CB800008B15C21EAE70549ECE74FF00E0ACEE771
:10CB9000282E0020242E00202C2E0020DAE903006D
:10CBA000001001408FE90300B2E503009EE9030095
:10CBB000943D0020ADE9030008B510B1012801D172
:10CBC000032008BD7846FBF733FC0020F9E770B579
:10CBD000064688B00D4614460021052204A811F02F
:10CBE000A1F9336907221BBAA9180DF11900CDF874
:10CBF000153011F08CF970696A46113004A9FFF7FD
:10CC000021FCAB1D0DF10600E21D13F8011910F80F
:10CC1000014DAB4281EA040102F8011DF5D108B0D3
:10CC200070BD00002DE9F041D4B01E4600238DF800
:10CC30001730ADF83C300E93D31D0C93F31D1093B9
:10CC40005A9B43610F460DF11808114632460446BF
:10CC5000CDF82C80FFF7BBFF7378DB09E3727378A4
:10CC600003F07F03A372F378B2781B0243EA024316
:10CC700032791343E3607379B07940EA032020816D
:10CC8000FEF744F9012869D1E27A002AA7F10903E5
:10CC900014BF08220422934260D3E1682089FBF785
:10CCA00015FC0546002859D1E37A9DF86C01002B4C
:10CCB00014BF08230423073F8DF84830FF1A0C9B4C
:10CCC000BFB2ADF834701F441197FFF775FF4346AC
:10CCD00001462A462046FFF7D4FB63690DF1170190
:10CCE00001330AA80A93FFF7CAFB9DF81730002BFF
:10CCF00034D0F379307A40EA03206080FEF706F9F9
:10CD0000244B20701B689B0728D5234B1B68032BE3
:10CD100024DDBDF83420214B109E1968802A28BFDD
:10CD20008022284613AC90421DD1002304F8103015
:10CD30002F211B4811F0C6F910B32F21184811F00C
:10CD4000C1F9411C174B184AD3F804350192174A10
:10CD500000920294DF22042000F02CFB9DF81700C3
:10CD600054B0BDE8F081335C1D0903F00F034D5D45
:10CD700004F81050CD5C04EB400301305D70D2E745
:10CD80005C21074811F09EF908B15C21D6E70449FF
:10CD9000D8E700BF282E0020242E00202C2E0020B3
:10CDA000FCE90300001001401AEA0300B2E50300A9
:10CDB0002DE9FF47894615461F469DF830A00646D7
:10CDC00018B112B10BB19A4202D17846FBF730FB91
:10CDD000A9F10903142B31D82878C009FDF732FED8
:10CDE00000233061736195F80080CDE9023308F0CB
:10CDF0007F0803AA02A940460CF0A8FD029BB3B12C
:10CE0000CDE9003A2A463B4649463046FFF70AFF3D
:10CE1000044608B100200EE0039B43B1CDE9003A7F
:10CE20002A463B4649463046FFF7FCFE40B9029B86
:10CE3000002BDED1052004B0BDE8F0870920FAE719
:10CE40002046F8E7F0B50C468FB016461F4605465B
:10CE500010B97846FBF7ECFA16B97846FBF7E8FA12
:10CE6000012F02D97846FBF7E3FA3846FFF7A4FE14
:10CE700001AF3B46014600222846FFF702FBEB7A52
:10CE8000002B14BF082304238DF834306B69A11CD8
:10CE90000133CDE9053789B2F31D0022ADF820102A
:10CEA00005A8194407930B93ADF8282009920C911B
:10CEB000FFF7E3FA324631462846FFF788FE0FB007
:10CEC000F0BD38B50D46044610B97846FBF7B0FA08
:10CED00015B97846FBF7ACFA2889FEF717F8012850
:10CEE00002D07846FBF7A4FA95F90A30002B02DA53
:10CEF0007846FBF79DFAEB68B3F1807F02D3784662
:10CF0000FBF796FA6B6913B97846FBF791FA2B6930
:10CF100003F00102237803F07F0343EAC213237076
:10CF20006A69127823F07F0302F07F0213432370B3
:10CF30006378EA7A03F07F0343EAC213DBB26370DB
:10CF4000AA7A23F07F0302F07F0213436370EB6839
:10CF500023711A0CA2701A0AE2702B89A3711A0AA3
:10CF600062716B8823721A0AE27138BDC37A002B92
:10CF700014BF082004200939081A7047093870477F
:10CF80000930704701307047436849B902788078AA
:10CF90001A441B78C31A12F8010C1844C0B2704727
:10CFA0005A185B5C12F8010CC01AF7E738B50D4649
:10CFB000044610B97846FBF73BFA2378AB4202D817
:10CFC0007846FBF735FA29462046FFF7DDFF40B1EA
:10CFD00063686278585DA378013B1840A36802FB40
:10CFE000003038BD38B50C46054610B97846FBF719
:10CFF0001FFA2B78A34202D87846FBF719FA21468C
:10D000002846FFF7C1FF18B16A68135D0133135555
:10D0100038BD10B5044610B97846FBF709FA00236D
:10D02000194622789A4200D810BD6268D154013363
:10D03000F7E710B54378044613B97846FBF7F8F9DB
:10D040002378012B02D87846FBF7F2F9A36813B9CD
:10D050007846FBF7EDF9636813B97846FBF7E8F912
:10D06000A37813B15A1E1A4202D07846FBF7E0F9B2
:10D070002046BDE81040FFF7CCBF38B50D4604464A
:10D0800010B97846FBF7D4F92378AB4202D878463A
:10D09000FBF7CEF929462046BDE83840FFF774BFBC
:10D0A00008B520B119B1FFF70DFB002008BD0E2017
:10D0B000FCE713B50B4650B149B102A9002401F8B1
:10D0C000014D0122FFF770FA204602B010BD0E207C
:10D0D000FBE7000030B50C468BB00546E0B1D9B196
:10D0E0001031FFF7C1FA0D4B03930D4B18680490F4
:10D0F0009B88ADF8143006AA042103A8FFF71FFA95
:10D10000062300932846019404AB06AA1021FFF7DA
:10D110002CFA00200BB030BD0E20FBE76E6B626B6B
:10D120002DEA030030B50D468BB00446C8B1C1B13D
:10D130000D4B03930D4B186804909B88ADF8143089
:10D1400006AA042103A8FFF7FAF906230093204654
:10D15000019504AB06AA1021FFF707FA00200BB0D7
:10D1600030BD0E20FBE700BF6E6B696B2DEA03003C
:10D1700030B50C4687B00546F0B1E9B104210F4B3C
:10D1800001930DEB010002AAFFF7D9F902AB184693
:10D1900010222946FFF76FF99DF816309DF81720E9
:10D1A0001B026FEA424203F47C536FEA524213437C
:10D1B0002380002007B030BD0E20FBE77674616449
:10D1C0008369D0E9000201FB020003B11847194648
:10D1D00010F0A8BE38B505460024AB68A34202D8BB
:10D1E000013BEB6038BD21462846FFF7E9FF0134DB
:10D1F000F3E7F8B5C56804460F460026A368B342B6
:10D2000001D8002012E0D4E90012636902FB051185
:10D21000384633B1984740B9A36845B1013D01365E
:10D22000ECE710F065FE0028F6D10120F8BD5D1E88
:10D23000F5E710B4C3688268046901339342C360A0
:10D2400004BF0023C3604268C368006803FB020098
:10D250001CB123465DF8044B18475DF8044B10F0F1
:10D2600056BE38B50D46044600B111B97846FBF7F5
:10D27000DFF8AC421EBF23682B60256038BD38B58F
:10D280000C46054600B111B97846FBF7D1F82B687A
:10D29000A34202D17846FBF7CBF8286840B92C604E
:10D2A000206038BDA54202D17846FBF7C1F8284678
:10D2B0000568002DF6D12146BDE83840FFF7D1BF03
:10D2C00038B505460C4601B110B97846FBF7B0F801
:10D2D0002B6883B1A34205D123682B600020206016
:10D2E00038BD13461A6822B1A242FAD122681A60E8
:10D2F000F4E7002CFAD00520F2E7F8B50E46174601
:10D30000044608B101B112B97846FBF791F82368D9
:10D31000B34202D17846FBF78BF825685DB92660E9
:10D3200028463560F8BD2C68A64202D17846FBF746
:10D330007FF83CB1254631462846B8470028F2D050
:10D340000F20EFE728463146FFF78BFF2046E9E73D
:10D3500037B506AC184654F8045B00920B460246FB
:10D36000054900200FF0E6FC2246294600200FF078
:10D37000C3FB03B030BD00BF34EA0300034B1860A9
:10D38000034B1960034B1A60704700BF282E002022
:10D39000242E0020302E002010B4054C24681CB12F
:10D3A000A4465DF8044B60475DF8044B704700BF2E
:10D3B000302E002030B585B008AC54F8045B0394DF
:10D3C000CDE90054FFF7E8FF05B030BD037942799D
:10D3D0009B1A00EB03307047431E9BB247F6FE6278
:10D3E000934208D849B14B8858400B8818420CBF6B
:10D3F00001200020704700207047012070478307FC
:10D4000070B504460E46054602D07846FBF710F884
:10D4100026F003063444A54201D1012070BD55F821
:10D42000043B0133F7D00020F8E70000064B984298
:10D4300010B5044603D303F58273984202D97846A7
:10D44000FAF7F6FF201F10BDA43D00201FB50124F0
:10D45000CDE9022101901A46694620468DF8004028
:10D46000FDF796FC04B010BDF8B50C4D01460C4814
:10D47000FCF78BFC6E687EB100272846FDF768FF3D
:10D48000044610B97846FAF7D3FF23682760D3E93A
:10D4900002209047A642F0D1F8BD00BFAC3E00206C
:10D4A000983D002038B503884A6803F18043013B6A
:10D4B0009C001368033323F00303A3420D4605D0F9
:10D4C00009238B606B681C60002038BD00238B60D3
:10D4D0001268011D286810F01AFDF3E713B502A9C0
:10D4E000002482B241F8044D0448FCF76AFB18B9E5
:10D4F0000198043002B010BD2046FBE7983D0020A3
:10D5000008B5FFF793FFBDE80840014602880148CF
:10D51000FCF7A8BB983D0020014B1868FEF77EBEC3
:10D52000B43E002010B50388044613B97846FAF7D4
:10D530007FFF2088074B04EB800030EA030203D012
:10D540006288B2F5FE4F04D11C4004F58054207867
:10D55000204410BD00F0FFFF70B504682378054635
:10D560001C4400214FF6FF762868FFF72FFF844206
:10D5700002D26388B34201D1084670BD2046FFF74E
:10D58000D1FF21460446EFE72DE9F04F934FDFF836
:10D59000708287B03E4698F800203B78022A14D16A
:10D5A000032BFDD8DFE813F00400390011006701F8
:10D5B00006A9002341F8103D8948FCF784FB014689
:10D5C00038B1884B1B6803B19847012007B0BDE80C
:10D5D000F08F029C844B94F80890221D1A6001235E
:10D5E00099453370D7D86568E868FFF7EFFE6B6937
:10D5F000C01AAB68C01AB9F1000F01D1218A8900A5
:10D600008142C8DB6B68002BC5D003232B70606898
:10D6100088F80030FCF7B4FEBDE7734B1C68237933
:10D62000042B00F2D380DFE813F005008A00AD0080
:10D63000ED0017012368DD682846FFF7C7FE2B7849
:10D64000E2890146E81800F02FFF2568AB688246A2
:10D6500073B9D5F80C904846FFF7B8FE99F800303A
:10D66000014647F6FF7209EB030000F01DFFA860BA
:10D670002268A189D2F80890DFF880B129F47F658B
:10D6800025F00F0505F58055A5EB090389008B42B0
:10D6900033D909EB01052146002331F80C2F484608
:10D6A0009200FFF7D3FE10B17846FAF7C1FE4F4B58
:10D6B0004F4904222846FFF7C9FE10B17846FAF711
:10D6C000B7FEBAF1000F10D02268BAF80010536804
:10D6D00003EB810353604749444B04225046FFF754
:10D6E000B5FE10B17846FAF7A3FE0023C4F80890FF
:10D6F0008BF80030022333704DE7D0680193FFF7B9
:10D7000065FE8542019B04D101238BF80030032381
:10D71000F1E78B4202D12B781D44BCE700230422A1
:10D7200035494846FFF792FE10B17846FAF780FE79
:10D7300095F80090A944A58909EB8505ABE7236816
:10D74000DD682846FFF742FE2B78E2890146E8189B
:10D7500000F0AAFE294D10B902232B70D7E72268EA
:10D76000A0600188536803EB8103536021491F4B7C
:10D770000422FFF76BFE60B37846FAF759FE0023E8
:10D780002B70B7E72268637BD56805EB033508216A
:10D790002846FFF734FE90B905F1FF3A04F1070976
:10D7A00004F10F0B1AF8013F19F8012F9A4204D027
:10D7B000FF2B02D07846FAF73BFECB45F2D1082288
:10D7C0000A4BA1182846FFF741FE10B17846FAF738
:10D7D0002FFE0A4B00221A708CE700BFA83E0020E3
:10D7E000983D0020B83E0020C03E0020BE3E0020F4
:10D7F00064EA03005CEA030060EA0300C43E002020
:10D80000BC3E002020680C30FFF7A6FE054610B98C
:10D810007846FAF70DFE6B884BB1554B55490422FB
:10D820002846FFF713FE10B17846FAF701FE2846A6
:10D83000D4F80090FFF776FEC9F808002168C868A0
:10D84000FFF7C4FD8B688342C3D22846FFF76AFE08
:10D85000474B49490422B6E72368D3E90323022151
:10D860001B038DF80810CDE9032302A9404A0120CB
:10D87000FDF78EFAA9E7414C236813B97846FAF709
:10D88000D7FD3F4B246893F80090B9F1000F21D1E8
:10D890002379D4F808A0012B13D00AD3022B1CD073
:10D8A00023792568042B35D8DFE803F01F3B433488
:10D8B00051002146504631F80C2F920010F018FB11
:10D8C00001E0BAF80200B0FA80F040090028E7D180
:10D8D0004FF0030904F10C0AE2E72368607BDB6880
:10D8E0000822A11803EB0030E8E7B9F1000F0BD1D3
:10D8F000A068FFF717FEA860428847F6FF739A42B8
:10D9000002D07846FAF794FDAB691BB14A465146FE
:10D91000284698472046FFF789FDFFF7A5FD00231D
:10D92000E9E6EB69002BF5D04A46E189284698479D
:10D93000F0E72B78012B02D07846FAF779FD237BAC
:10D94000627B013B9A42E5D102232B70E2E7B9F1F9
:10D95000000F02D07846FAF76BFD2B78012B1CBF25
:10D9600000232B702B6A002BD4D028469847D1E790
:10D97000BE3E00205CEA030064EA0300C03E0020D3
:10D98000C43E0020064B1B88934207D1054B1A78F2
:10D99000022A03D103221A70FFF7F6BD704700BFB9
:10D9A000BE3E0020A83E002008B54FF482720F4909
:10D9B0000F48FCF788F80F490120FDF7D9F90E4808
:10D9C000FEF70EFC0D4B0E4A1860002313700D4A33
:10D9D0000D481380FDF798FCFCF768FC0B4B10B169
:10D9E00003221A7008BD0222FBE700BFA43D0020FD
:10D9F000983D002085D9020089D50200B43E002060
:10DA0000A83E0020BE3E0020AC3E0020BC3E0020D0
:10DA100010B504460820FFF761FD042340B12370D0
:10DA200003710460FFF76CFDFFF776FD002010BD69
:10DA30001846FCE72DE9F04F87B08146039101922B
:10DA4000049310B97846FAF7F3FC0120FDF726FAA3
:10DA5000FCF7B8FC0024031D054627464FF00108DB
:10DA6000029347F6FE6BD9F81010A14202D9B8F123
:10DA7000010F06D00020FDF711FA384607B0BDE8C7
:10DA8000F08FD9F80C30286803EB0432904202F58D
:10DA9000805604F1010426D1A14205F5805A20D018
:10DAA000327816447188013989B2594535D900F563
:10DAB000005230460592FFF735FD059A824210D993
:10DAC00086420ED24188013989B25945F2D82E7961
:10DAD000029B42885146981900F0E6FC002818BFC6
:10DAE0008246029A5646137802EB030AB245BADA26
:10DAF000B8F1010FB7D10399BAF80200FFF76CFC37
:10DB000030B1019B01371BB10499504698478046BC
:10DB10005046FFF707FD8246E8E73046D7E70000AA
:10DB20007FB5E8B1E2B1DBB14C1EA4B247F6FE66A8
:10DB3000B44217D80478023C012C15D8CDE9012352
:10DB40000523ADF8021003934FF6FF7401AB074AAB
:10DB5000ADF800406946FFF76DFF039804B070BD53
:10DB60000E20FBE70720F9E70820F7E7A5D402001D
:10DB700070B50D46044610B97846FAF759FC0023F3
:10DB8000294620461A46BDE87040FFF753BF70B5DE
:10DB90000E461446054610B97846FAF749FC731E3E
:10DBA0009BB247F6FE62934206D947F6FF739E4248
:10DBB00002D07846FAF73CFC802C02D97846FAF776
:10DBC00037FC2B780BB9002070BD04F11000FFF773
:10DBD00085FC0028F7D00334A40800230134037126
:10DBE000C681848140F80C5BEEE70000094B984247
:10DBF00010B5044603D303F58273984202D97846E0
:10DC0000FAF716FCA4F10C00FFF77AFCBDE810400F
:10DC1000FFF782BCA43D002038B50C46054610B97C
:10DC20007846FAF705FC631E9BB247F6FE62934204
:10DC300006D947F6FF739C4202D07846FAF7F8FB04
:10DC40001020FFF74BFC60B1012202714FF6FF720A
:10DC5000C48182810560FFF753FCFFF75DFC002063
:10DC600038BD0420FCE700002DE9F84300230370D1
:10DC70000B68C3F30B0304460D4613B17846FAF75D
:10DC8000D7FB6B68FE2B02D97846FAF7D1FB04F17B
:10DC90000C07182229463846002610F038F9C4E946
:10DCA000016623699E4257D32046FCF745FB064692
:10DCB00000287CD1E5682846FFF788FB2B78804652
:10DCC0001D4447F6FF796B88C3F30E024A4572D1B3
:10DCD00066602046FCF730FB10B17846FAF7A8FBE7
:10DCE0003846FFF739FCA060002873D1E3681A7842
:10DCF00013444FF6FF725988914200D1A36002236A
:10DD000023702046FCF718FB10B17846FAF790FB19
:10DD1000E5682B781D44A3689D424AD22846FFF748
:10DD200001FCA3689842064668D16A88531E9BB2DC
:10DD300047F6FE618B423CD8E368187829461844C0
:10DD400000F0B2FB002834D0A84232D041882046EF
:10DD5000BDE8F843FFF760BF3503E3685A195B5D20
:10DD6000083BDBB2F62B15D85379FF2B12D0127972
:10DD7000FF2A0FD09E4202D07846FAF759FBE3689B
:10DD80002B441A7923699A4202D07846FAF750FB5D
:10DD9000013686E701233B4F2370002523699D420E
:10DDA00031D3FFF7B9FBE3680833A36001E0032335
:10DDB0002370002018E013B92B8806EB8306284651
:10DDC000FFF7B0FB804505463FF67DAF7846FAF792
:10DDD0002FFB78E7428847F6FF739A428FD00820DE
:10DDE000FFF77CFB10B90420BDE8F8830322027121
:10DDF0000460FFF785FBFFF78FFB80E73046FFF7F6
:10DE000091FB35468DE7E0682E03304440F6FC7107
:10DE10000430FFF7F4FA90B11020FFF75FFB002801
:10DE2000E1D00222027187604573226902734FF6C6
:10DE3000FF72C2810460FFF763FB0135AEE7E36860
:10DE40009A199B5D083BDBB2F62B05D85379FF2B63
:10DE500002D01379FF2B02D17846FAF7E9FAE3688A
:10DE600033445B799D4202D07846FAF7E1FAE368E1
:10DE70001E44236932799A42DFD07846FAF7D8FAFD
:10DE8000DBE700BF0804101010B5044610B978464F
:10DE9000FAF7CEFAA36813B97846FAF7C9FA2368F5
:10DEA00033B9246021460348BDE81040FDF736BA77
:10DEB00010BD00BFAC3E002008B50648FBF79FFF31
:10DEC00020B1FCF755FA80F00100C0B200F001006B
:10DED00008BD00BF983D002038B5044698B1C5681C
:10DEE0002846FFF773FA2B78014647F6FF72E818C9
:10DEF00000F0DAFAA06010B97846FAF799FA02232E
:10DF0000237000236360054B0549022201201A702B
:10DF1000FCF72EFFBDE83840FFF7FEBABC3E0020FC
:10DF200085D90200FCF74EBA38B50546044C20B13D
:10DF3000236813B17846FAF77BFA256038BD00BF35
:10DF4000B83E002030B503B930BD013B9BB2CC5C7C
:10DF5000D55C6C40C454F6E746DF70472DE9F843C2
:10DF6000858907468846012401F120090DB9BDE8DD
:10DF7000F88363BAA8F81E304046FFF7EDFF102D76
:10DF800004F1FF3CB968B8692E464FEA0C1C28BF63
:10DF9000102633464A4661446044AD1B0134FFF706
:10DFA000D1FFADB2A4B2E1E72DE9F04707460E4636
:10DFB0001446994600F1100500F120080CB9BDE89F
:10DFC000F087C9F1100A544505EB090018DA22461A
:10DFD00031460FF09CFF04EB0900C0F11002002154
:10DFE00028440FF09FFF002410232A46414628466C
:10DFF000FFF7A8FF3846FFF7AFFF4FF00009DDE756
:10E00000103C3146524619FA84F40FF080FFA4B256
:10E010005644E9E770B5838A002B90F820300D460E
:10E02000A3F102034FF0020193FBF1F34FEAC303A4
:10E0300003F03803164643F0010314BF40220022C8
:10E04000134304462B7441680D2205F111000FF0B3
:10E050005EFFA289130A43EA0223EB832846FFF7F7
:10E060007BFFA38A83B1B3F57F4F02D37846FAF7DB
:10E07000DFF9A28A130A43EA02232B82A28A2169CA
:10E0800002232846FFF790FFA28922B10023A1684E
:10E090002846FFF789FF94F8202005F1200130463B
:10E0A000BDE870400FF033BF30B504468DB0016855
:10E0B000102268460FF02BFFE26969462046FFF701
:10E0C000A9FFE569616801230D220DF111008DF8AA
:10E0D00010300FF01CFF00236846ADF81E30FFF72C
:10E0E0003BFF94F8203008AA29462846FFF72AFF6C
:10E0F00069462046FFF732FF0DB030BD70B590F88D
:10E100002030102B90B004460D4602D97846FAF71D
:10E110008FF9102221680DEB02000FF0F8FEA389A1
:10E120007BB1012361688DF820300D220DF12100B3
:10E130000FF0EDFE002304A92046ADF82E30FFF7C6
:10E140000DFFA369A668A3606A4604A92046FFF7ED
:10E1500061FF616801230D220DF121008DF820304F
:10E160000FF0D5FE002304A8ADF82E30FFF7F4FE23
:10E1700094F820300CAA69466846FFF7E3FEA660D3
:10E1800094F82020E16968460FF0B2FEB0FA80F002
:10E190004009287010B070BD70B50B4C03882588FD
:10E1A0009D42064606D001339BB29D4202D078467E
:10E1B000FAF73EF930882368854238BF03F1FF3310
:10E1C0001B0C1B04184470BDC83E00202DE9F84309
:10E1D0000378022B0DD1FCF725FC114EDFF84880A7
:10E1E0000546002400F1FF3933689C4203D30D4BF0
:10E1F0001D60BDE8F88308EBC407B81DFFF7CCFF2E
:10E2000085420BD0484509D03368013B336008EBA9
:10E21000C30393E8030087E80300E5E70134E3E77D
:10E22000CC3E0020C83E0020D03E002008B5FCF7C0
:10E23000F9FB014B186008BDC83E00202DE9F843EA
:10E240001A4D1B4E2B68884691460024A3420CD1E0
:10E25000282B29D0164A02EBC30142F83380013340
:10E260008880A1F806902B6015E0E700F2199188EC
:10E27000814217D1901DFFF78FFF81450ED156F8CF
:10E280003400804594BF0020012028B1374446F86F
:10E290003480A7F806900020BDE8F8838CBF0120E9
:10E2A0000020F2E70134D1E70420F5E7CC3E00205E
:10E2B000D03E0020F8B5114B114E0C461968174698
:10E2C0000025A94201D1002011E006EBC5039A8880
:10E2D000824211D1981DFFF75FFF874208D156F89F
:10E2E0003500844294BF0020012080F00100F8BD79
:10E2F0008CBF01200020F8E70135E2E7CC3E00208A
:10E30000D03E0020034B044800214FF4A072196056
:10E310000FF008BECC3E0020D03E002008B50348D8
:10E32000FCF7DAFFBDE80840FFF7ECBF342E002011
:10E330002DE9F041884616461F460446B0B1C2B1E9
:10E34000013B1B2B15D8FF2913D0BD1CEDB2691C56
:10E3500002F06CF8044648B12B234574837480F8AE
:10E3600013803A46314614300FF0D1FD2046BDE807
:10E37000F0810024FAE70000F0B50E46C7B017465A
:10E38000054610B97846FAF753F8002E7AD02C7863
:10E39000711EC9B2002C57D0012C5CD03A4C2268B7
:10E3A000D20519D5394B1B68012B15DD2F213848B3
:10E3B0000FF088FE002853D02F2135480FF082FE41
:10E3C000411C344B2A78D3F804350192324A00922A
:10E3D00002206D22FEF7EEFF2368DB0532D52B4BC2
:10E3E0001B68032B2EDD2D4B802E196828BF80263D
:10E3F000002305AC15F8012F100902F00F02085C8C
:10E4000004F81300885C04EB430201339E42507011
:10E41000F0D100232F211E4804F816300FF052FED1
:10E4200038B32F211A480FF04DFE411C194B1C4ADE
:10E43000D3F8043501921B4A009202946E22042004
:10E44000FEF7B8FF0B2004E03A46681C0CF068FCAD
:10E45000002047B0F0BD3A46681C00F0AFFDF7E77A
:10E460005C210B480FF02EFE08B15C21A5E708499E
:10E47000A7E75C2106480FF025FE08B15C21D1E733
:10E480000349D3E70920E4E7282E0020242E0020AA
:10E4900068EA03000010014082EA03002C2E0020ED
:10E4A000A8EA0300B2E5030088422DE9F8430746D5
:10E4B0000E46904602D97846F9F7BAFF3C46DFF897
:10E4C0005C901AE0238804EB83039E4221D92388C1
:10E4D00013B97846F9F7ACFF238804EB830333EADA
:10E4E000090203D06288B2F5FE4F01D12B782B448C
:10E4F0009E420ED99F421C460BD26388434509D0E9
:10E5000004EA090505F58055B542E0D3B3F5FE4FA1
:10E51000D8D100242046BDE8F88300BF00F0FFFFFB
:10E52000014B1860704700BF144000202DE9F041F6
:10E530000F46054610B97846F9F77AFF17B97846BD
:10E54000F9F776FF2B78012B02D97846F9F770FF9F
:10E550001E4C236A13B17846F9F76AFF6B681D2BCE
:10E5600002D97846F9F764FF2B78012B09D1EB68C3
:10E570005A1C06D003F50073012B02D97846F9F72F
:10E5800057FF134B1E684FF0010846B9236A1BB1B1
:10E590006B6823700F4B3B60206ABDE8F08116F872
:10E5A000032C2B691A42A6F108000CD056F8083C3F
:10E5B00029461B68984730B916F8043C226A08FAC5
:10E5C00003F3134323623668DFE700BF445800209B
:10E5D0001840002045580020F8B50F4D2B6A13B99C
:10E5E0007846F9F725FF0D4B0D4F1C6801260CB935
:10E5F0002C62F8BD14F8043C2A6A06FA03F31342AD
:10E60000A4F1080005D054F8083C2A785B68394624
:10E6100098472468EBE700BF4458002018400020CA
:10E620004558002070B50D4D2B6A13B97846F9F79F
:10E63000FFFE0B4B1C6801260CB92C6270BD14F850
:10E64000043C2A6A06FA03F31342A4F1080003D03B
:10E6500054F8083C9B6898472468EDE7445800202C
:10E66000184000202DE9F0410E4617469846054611
:10E6700010B97846F9F7DCFE064B1C683CB14346FE
:10E680003A4629793046A446BDE8F0416047BDE8E6
:10E69000F08100BF14400020F8B50E46174604462E
:10E6A00010B97846F9F7C4FE16B97846F9F7C0FEF6
:10E6B0001FB97846F9F7BCFE01E0FF2FF9D03368A7
:10E6C00013B97846F9F7B4FE736813B97846F9F7C9
:10E6D000AFFEB36813B97846F9F7AAFE094D2B7857
:10E6E0001F2B02D97846F9F7A3FE2B7826605A1C17
:10E6F000237167712A7004F108010348BDE8F840EE
:10E70000FEF7BDBD104000201840002007B540F2C4
:10E710000713B3EB104F019002D07846F9F788FE4B
:10E7200003481422002103B05DF804EB0FF0FABB9C
:10E730002840002013B540F20713B3EB104F0190AF
:10E740000C4602D07846F9F773FE0449142220469D
:10E7500002B0BDE810400FF0DABB00BF2840002037
:10E76000F7B540F20713B3EB104F01900F4602D0FC
:10E770007846F9F75DFE3888FCF7C8FB02284AD0D6
:10E780007B68B3F5004F03D94FF6FF72934242D135
:10E79000BB68B3F5803F3ED897F90C30002B3ADBCD
:10E7A0003E460FCE1D4C25460FC533682B603A8878
:10E7B000234612B9C4E901222273194A14785A680F
:10E7C000E4B14FF6FF70111A4A424A41E2B19A6829
:10E7D000D2B1144BB4B1B2F5E16F144628BF4FF477
:10E7E000E164121B1A60FCF7D3FF0F4901FB04011F
:10E7F0000E48FCF7A4FF002003B0F0BD003218BFA4
:10E800000122E3E71C60EEE700240848C3E9014465
:10E81000FCF77EFFEFE70720EEE700BF284000206F
:10E82000704000205440002040420F00584000201B
:10E8300030B50C4DAC688DB08CB90B48FCF768FF57
:10E840002C22214601A8AC600FF06CFB062301A826
:10E850008DF804300295FBF7C5F80DB030BD013CD2
:10E86000AC60FAE7404000207440002010B5037807
:10E870000A2B8CB039D11E4AC4891388A34234D1E3
:10E88000418A5388994230D18368032B2DD19368F4
:10E890005BB35368B3F5004F3CBF0133536041682D
:10E8A000007F05238DF804300B7803F07F038DF88B
:10E8B00008300B78C0F1010003F07F030344DBB2A2
:10E8C0008DF809308978ADF80C4001F00F01ADF8F2
:10E8D0000A1091899BB29942D18988BF938101A87E
:10E8E000994238BFD381FBF77DF80CB010BD00BF53
:10E8F0004040002070B5294C23888EB0002B4BD0AF
:10E90000274D2A6812B97846F9F792FD2B686846B8
:10E910009847054600283FD102AE03220146304603
:10E920000FF000FB9DF80830227B8DF8095023F092
:10E930007F0302F07F0213438DF80830194B1B78D8
:10E940008DF80A30019B13B97846F9F771FD0A2357
:10E950008DF8143000238DF820302088BDF8003069
:10E96000ADF82230ADF82600FCF7D0FA019B0B93EE
:10E9700003230793237B8DF824008DF830306FF04C
:10E980000201FF2305A80D930696FAF78DFC064BAE
:10E99000003018BF012018700EB070BD2840002054
:10E9A0008C400020504000207140002010B40A4AE2
:10E9B000137818420CBF012400248C4209D1434033
:10E9C0001370064BDB89184203D05DF8044BFFF748
:10E9D00091BF5DF8044B7047504000202840002054
:10E9E00082B0C1F30743012B019105D120B9117801
:10E9F000184602B0FFF7DABF02B0704782B001914B
:10EA000020B91178022002B0FFF7D0BF02B07047E2
:10EA10000378012B04D1034B1B780BB1FFF76ABFBE
:10EA2000704700BF7140002038B5114D114C2B8844
:10EA3000DBB16B68CBB1226852B94FF6FF729342DB
:10EA40001CBF03F1FF336B60FFF754FFAB6823601B
:10EA50002368094AB3F5E16F194628BF4FF4E16115
:10EA60004A435B1A2261236001E00023236138BD21
:10EA7000284000205440002040420F0008B50121EA
:10EA80000B48FAF781FF10B17846F9F7D1FC094B32
:10EA9000094ADA60094B0A4A9A600A480A4ADA6067
:10EAA0000A4B0360FAF7C8FF094B01221A7008BD30
:10EAB000C8EA03005440002029EA02007440002004
:10EAC00031E802001C40002040420F0011EA020021
:10EAD00070400020F0B5054691B010B97846F9F7BE
:10EAE000A7FC0DF1020168460BF0DEF8AB68B3F548
:10EAF000803F02D9072011B0F0BD2888FCF706FA44
:10EB000001282FD16888FCF701FA48B16888FCF722
:10EB1000FDF9032804D06A88BDF800309A42E9D193
:10EB20001E4C94E80F0001AE86E80F00AB68FBB9FD
:10EB300000231B482360A360FCF7EAFD2C22002180
:10EB400005A80FF0EFF906238DF81430BDF8063054
:10EB5000002B08BF002605A8CDE90664FAF742FF9E
:10EB60000020C8E72888FCF7D1F90028CAD0C1E7FF
:10EB700029880029DCD06A88002AD9D0084DA360F2
:10EB800021806280EF68FCF703FE39182846FCF705
:10EB9000D6FD7F23E36000236360CFE74040002081
:10EBA00074400020004870474040002000487047F3
:10EBB00028400020034B00221A70034B01461868BE
:10EBC00000F058BC70400020C2EA0300034B1860FC
:10EBD00010B97846F9F72CBC704700BF8C40002074
:10EBE00007B5094B0190012208481A7001F004FC96
:10EBF000FCF7CEFD064BD9680144184603B05DF81A
:10EC000004EBFCF79CBD00BF704100209040002049
:10EC10007441002013B50190000CB0F5837F0C46C1
:10EC200002D07846F9F704FC024B1B78237002B03F
:10EC300010BD00BF7041002037B50190000CB0F549
:10EC4000837F0C4602D07846F9F7F2FB25780E4C0C
:10EC500022787AB955B10D4801F0CEFBFCF798FD4A
:10EC60000B4BD96801441846FCF769FD002025705C
:10EC700003B030BD002DF9D1044801F0D2FB0448A7
:10EC8000FCF746FDF2E700BF7041002090400020F5
:10EC9000744100207FB5089C06461D462078531E0F
:10ECA0005A425A4161F3000062F341000246204695
:10ECB0006FF3870206F1100100F8012B2DBA08222C
:10ECC0000FF025F96B4621463046C4F809500D2255
:10ECD000FDF7D1FB0822694604F10D000FF017F98A
:10ECE00004B070BDF0B595B005460DF13702574937
:10ECF000564C574F00200AF0D7FE26462268002ABD
:10ED000000F0918051680888142300FB03335B08EE
:10ED10009BB2B3F5167F28BF4FF416730A2B38BF8A
:10ED20000A238B80526893780133DBB2022B9370F5
:10ED300006D123685A6800239370226852681380B2
:10ED4000336859688B68EA1A48BF5A1B8B887B4323
:10ED5000934273D8FBF766FE0446FBF77FFE9DF8EF
:10ED600037103368A1F1020C022902460EAF0CBF26
:10ED700003F1300003F10800DCF1000141EB0C016C
:10ED800023460097FFF786FF012115233A463148B5
:10ED9000FFF7CEFA0146002845D0012303712D4824
:10EDA00001F07FFB2C4B1B689B0739D52B4B1B6855
:10EDB000042B35DD2F212A480FF084F9002834D0A8
:10EDC0002F2127480FF07EF9411C9DF83820254B54
:10EDD00002F00100C2F34002D3F8043509929DF815
:10EDE000402008929DF83F2007929DF83E20069211
:10EDF0009DF83D2005929DF83C2004929DF83B2013
:10EE000003929DF83A2002929DF839200192164A09
:10EE10000A900092052040F201120B94FEF7CAFA04
:10EE200033685B689D6015B0F0BD5C210C480FF045
:10EE300049F908B15C21C4E70949C6E70DF1370279
:10EE4000214600200AF030FE58E700BF8C41002028
:10EE500040420F0090400020282E0020242E002049
:10EE6000D4EA030000100140F2EA030008B5FCF701
:10EE70008FFCBDE80840FFF735BFFFF733BF10B583
:10EE800086B002AB0D220C46FDF7F5FA08220DEB19
:10EE9000020168460FF03BF8082204F10D016846B4
:10EEA0000FF026F8B0FA80F0400906B010BD00005F
:10EEB00013B5154A154C002313600421144AE2606F
:10EEC0000DEB0100134AA2602361FCF76FFDFCF714
:10EED0005FFC0199E268B1FBF2F302FB13131844E3
:10EEE00060600D4C0D4A0E493423204601F084FB2E
:10EEF00020464FF47A7101F02AFB0A4A0A4804219D
:10EF0000FDF71DFB02B010BD8C41002074410020B4
:10EF1000809698007BEE0200904000202C4100205B
:10EF20006DEE02006041002035EB030010B5064C89
:10EF300023783BB9054801F05FFA0548FCF7C6FBAA
:10EF40000123237010BD00BF7041002090400020BD
:10EF5000744100201FB504A901F8090D044800F010
:10EF600089FA10B17846F9F763FA05B05DF804FB49
:10EF70000300060107B507480DF1030100F0BAFAD6
:10EF800010B17846F9F754FA9DF8030003B05DF824
:10EF900004FB00BF0300060137B50C461946069B6B
:10EFA00050B14BB1012503F8015B00932346FFF7F5
:10EFB00071FE002003B030BD0E20FBE72DE9F047C5
:10EFC00017469AB0044610B97846F9F731FA00238B
:10EFD0000E93504BD4F809601B689B0736BA30D5A6
:10EFE0004D4B1B68042B2CDD2F214C480FF06AF889
:10EFF000002836D02F2149480FF064F8411C484BB7
:10F00000D3F804350B96227802F00100C2F34002D7
:10F010000A900992227A0892E2790792A2790692DE
:10F020006279059222790492E2780392A2780292A0
:10F03000627801923B4A009205204FF4D572FEF7A8
:10F04000B9F9651C0DF137020EA928460AF02CFD0E
:10F050004FF6FF784FF004090E9B5BB91AB0BDE87C
:10F06000F0875C212D480FF02DF808B15C21C2E734
:10F070002A49C4E75B6813B97846F9F7D9F90E98BD
:10F08000082200F1080A294618300EF031FF50BB63
:10F0900021465046FFF7F3FE28B30E9B08330E9A25
:10F0A00051680A8842451CBF01320A8021468DF80A
:10F0B0003C9011F80D2B1496C2F34000C2F30002ED
:10F0C0008DF855200E9A8DF854000FA8CDE9102325
:10F0D000CDE91271FAF786FC0DF137020EA9284628
:10F0E0000AF0E2FCB8E79DF83730002BF4D00E9818
:10F0F000082200F1300A294640300EF0F9FE0028BF
:10F10000EAD121465046FFF7BAFE0028E4D00E9B14
:10F110003033C4E7282E0020242E0020D4EA030038
:10F12000001001403AEB03002DE9F3410F4C104E63
:10F13000019205460F469846A64202D102B0BDE8AC
:10F14000F08122682B681188188888420CD1518878
:10F150005B888B4208D8EA881A448A4204DD42461A
:10F1600001996368384698470834E5E7E8F90300F1
:10F17000F8F9030038B503685C88C3880C1B9C420F
:10F18000054602D37846F9F753F9A869204438BDFB
:10F1900037B585B20190020C094C0A48844202D16D
:10F1A000002003B030BD03681988A94206D15988F0
:10F1B000914203D8C3880B449342F2DC1C30EDE744
:10F1C000E8F9030008F9030070B58EB00E4601900F
:10F1D0001546FFF7DDFF044688B18388AB4222D88D
:10F1E000C368019831469847F8B9BDF80610204623
:10F1F000FFF7C0FF0223037001200EB070BD022490
:10F200002C22002103A80EF08DFE0198CDF81200EB
:10F21000142303A88DF80C308DF81040CDE9066555
:10F22000FAF7E0FBE8E70024EAE70124E8E700005A
:10F230002DE9F041304C314E314FDFF8CC8092B0A7
:10F24000A4F11C039E4202D112B0BDE8F08154F833
:10F250001C3C1A882B4BBB4205D17846F9F7E8F8DD
:10F2600000239B78FFDE1988914201D00833F2E732
:10F270009B78012B07D0022B01D01C34E0E798F8D3
:10F280000030002BF9D000252BE054F8043C5A5DE7
:10F2900002F00503012B23D154F81C3C18685B884D
:10F2A00001902B4492079BB220D5ADF8063054F85C
:10F2B0000C2C019802A9904734F8182C019802A947
:10F2C00000F0D8FA0028BFD154F8042C535D23F085
:10F2D0000103535554F8042C535D43F00403535574
:10F2E000013534F8163CAB42CFD8C6E7ADF806304E
:10F2F000019800F0E6FAE5E724F90300E8F90300D5
:10F3000000FA0300F8F90300904100202DE9F341D1
:10F31000204C214EA4F11C07A4F11C0846450FD136
:10F320001E4A1F4B1F4900919B1AF61BDB081E4803
:10F330001C21B6FBF1F100F00FFA02B0BDE8F0813C
:10F3400054F81C3C34F8162C5B881344B3F5803F0A
:10F3500002D37846F9F76CF8134DB54201D11C344D
:10F36000DAE74545FBD054F81C2C2B681088198827
:10F3700088420DD150885988EA880A44904207DAB9
:10F3800034F8163C0344994202DA7846F9F750F80B
:10F390001C35E2E724F90300E8F90300F8F903005B
:10F3A00000FA0300EDF3020008F90300014800F041
:10F3B000A3BA00BFC9F1020010B50A4B0A4898422F
:10F3C0000ED0D988002205E09C69A45C14F0050FDA
:10F3D00004D101329142F7D81C33F0E7012010BD6F
:10F3E0000020FCE708F90300E8F9030030B5044603
:10F3F0008DB0D0F80200FFF7CBFE054610B9784675
:10F40000F9F716F82846A188FFF7B4FE03785B07E2
:10F41000054602D47846F9F70BF82B7823F004035D
:10F420002B702378022B0DD12C22002101A80EF085
:10F4300079FDD4F802000290132301A88DF804305E
:10F44000FAF7D0FAFFF7B8FF014618B1FFF7F0FE60
:10F450000DB030BD064B2C22187001A80EF062FDD5
:10F46000122301A88DF80430FAF7BCFAF0E700BFC8
:10F4700090410020F0B585B00E46019089B3FFF7AA
:10F4800087FE054678B30198EB6803903146BDF8D6
:10F4900006709847044608BB39462846FFF76AFEBF
:10F4A0000378124A43F0030303702B6810481F8847
:10F4B0002346D118884203D17846F8F7B9FF05E012
:10F4C0000833D11831F8081CB942F2D1FFF7B0FE69
:10F4D0003346039A00212846FFF726FE204605B052
:10F4E000F0BD0E24FAE70524F8E700BFF8F90300A1
:10F4F00000FA030037B50D460190A9B1FFF748FEA9
:10F50000044698B1037A33B1019823692946984794
:10F51000002003B030BDBDF80610FFF72BFE0378C6
:10F520009B07F1D40820F4E70E20F2E70520F0E76E
:10F5300013B50190FFF72CFE0446D0B1BDF80610BC
:10F54000FFF718FE03789A0715D523F0020343F05E
:10F550000103037063690BB101989847FFF768FED8
:10F5600020460023019A0121FFF7DEFD002002B0B2
:10F5700010BD0520FBE70820F9E700000F4B73B52D
:10F5800001220F4C0F4E1A70A4F11C039E4213D19E
:10F5900002B070BD54F81C3C18685B8801902B4485
:10F5A000ADF806300198FFF7C3FF013534F8163C7B
:10F5B000AB42EFD81C34E7E70025F7E79041002085
:10F5C00024F90300E8F903002DE9F84388460168AF
:10F5D00017460C6842790E790546D2B204EB8606CE
:10F5E0000BB9017949B904EB83040AE011F8043C32
:10F5F00083F08003934204D00C46A64204F1040138
:10F60000F4D80434B44201D3002014E023784345F5
:10F610002CD16378FF2B10D1A378FF2B1CD1E3787A
:10F62000FF2B07D0AB79012B02D07846F8F700FF0B
:10F63000E3786B710120BDE8F8832B68D3F808905C
:10F64000B9F1000F02D17846F8F7F2FE394660783A
:10F65000C8470028E0D1D4E72B68DE6816B97846A1
:10F66000F8F7E6FE3946A078B047D8E71B06C8D5BC
:10F67000CAE72DE9F0470F46064610B97846F8F775
:10F68000D7FE17B97846F8F7D3FE37607B797371E8
:10F690000025B571D7F80090FF243B795FFA85F813
:10F6A000984507D3FF2C02D09C4228BFFF24347119
:10F6B000BDE8F087FF2C4FEA880A06D019F92830F8
:10F6C000002B02DA7846F8F7B3FE19F80A30013554
:10F6D000FF2B08BF4446E0E770B50D4616460446CA
:10F6E00010B97846F8F7A4FEA3790133DBB2A37111
:10F6F0003246002329462046FFF766FF38B92379B2
:10F70000FF2B04D0324629462046FFF75DFFA37940
:10F71000013BDBB2A37170BD8079003018BF0120BE
:10F720007047704730B50A4B1C680A4B19680023B4
:10F730009C4201D1002207E031F83350854201EBB1
:10F74000C30203D153681880104630BD0133EFE780
:10F75000944100209C4100202DE9F84FDDF82880DD
:10F76000894617469A46044610B97846F8F760FE6F
:10F77000B9F1000F02D17846F8F75AFE17B978466A
:10F78000F8F756FEBAF1000F02D17846F8F750FEAE
:10F79000344E354837600023344D354F2B60984543
:10F7A00018BF4046C7F800A000F01EF91C2303FB59
:10F7B00009494C450AD100220023D7F800E03068FF
:10F7C0001C4673453DD14CBBBDE8F88F23681888B3
:10F7D000FFF7A8FF804608B1436813B97846F8F7E9
:10F7E00027FED8F80430A088B3F802B000F082F900
:10F7F000B4F806A000FB0ABABAF5803F02DB7846EF
:10F80000F8F716FED8F80430A3F802A0D8F80420C0
:10F81000E18893880B4493801C34CAE7A37833B102
:10F82000606800F0F5F810B17846F8F701FE204660
:10F8300000F065F92B68228818440132286092B2E2
:10F84000BAE730F833C0944500EBC30108D324B1C4
:10F85000B4F80080E04598BF214601330C46B0E77C
:10F860002146FAE79C41002023F70200984100203E
:10F870009441002073B5164601900D4611B97846A3
:10F88000F8F7D6FD16B97846F8F7D2FDBDF80400B2
:10F89000FFF748FF044610B97846F8F7C9FD6368DA
:10F8A0005B8813B97846F8F7C3FD6368BDF8062096
:10F8B000DA8060683246294602B0BDE8704000F048
:10F8C000D3B813B5019080B2FFF72CFF044610B9EE
:10F8D0007846F8F7ADFD63685B8813B97846F8F7AA
:10F8E000A7FD6368BDF80620DA80606802B0BDE855
:10F8F000104000F0CFB80000F8B5054610B97846C2
:10F90000F8F796FD084E094F00243368A34200D84B
:10F91000F8BD3B6803EBC4039A781AB129465868CE
:10F9200000F0D0F80134F0E7944100209C41002021
:10F9300007B54B684288DA804B681B88ADF8043005
:10F94000438830F8042BADF8063002F18042013ACA
:10F950000B689200014601989847024B185C03B06F
:10F960005DF804FB7DEB030007B5002A0CBF002304
:10F9700002238DF8003030F8083CADF802304B8897
:10F98000ADF80430034B68461B68984703B05DF838
:10F9900004FB00BFA441002007B5002A0CBF0123CF
:10F9A00002238DF8003030F8083CADF80230044BEB
:10F9B000ADF804101B686846984703B05DF804FB77
:10F9C000A4410020704700B58DB02C22002101A871
:10F9D0000EF0A8FA0E2301A88DF80430FAF702F809
:10F9E0000DB05DF804FB000008B5064B00221A704C
:10F9F000054B1860FDF7D8FF0448BDE80840FEF746
:10FA000093BA00BFA0410020A4410020C7F9020022
:10FA100070B5114E448840F6F87304F6F774B4FBE1
:10FA2000F3F4337886B023440546337007F00DFFB6
:10FA30003378A0EB03306B880293084B0393084B99
:10FA40000493CDE90004074B0593694605F10800CE
:10FA5000FEF70AF906B070BDA041002069F9020066
:10FA600099F90200C5F9020070B508300D4630F86A
:10FA7000021C1646FEF78BF8044648B1324629466A
:10FA800004300EF044FA2046FEF7B0F8002070BDB6
:10FA90000420FCE737B54FF6FF7300F10805044674
:10FAA000ADF8043001A9C388ADF806302846FEF74A
:10FAB0005FF828B1E1882846FEF7AEF803B030BD04
:10FAC0000520FBE737B50D46044610B97846F8F730
:10FAD000AFFC15B97846F8F7ABFC6B46044A002139
:10FAE00004F10800CDE90054FDF7A4FF03B030BDD8
:10FAF00031F90200C31D4FF6FC701840704783783F
:10FB0000022B0CD143689A885888642353430330EE
:10FB100003F5FA732922800802FB003070470020A9
:10FB200070470000094B834210B502D07846F8F7C1
:10FB30007FFC074C236813B97846F8F779FC2068F6
:10FB400000F0ABFA0023236010BD00BFA8410020E5
:10FB5000C0410020114B834270B50E46154602D0BD
:10FB60007846F8F765FC0E4C23681B69AB4202D25D
:10FB70007846F8F75DFC20682A46314614300EF0CE
:10FB8000C6F921680748FBF7C9FB00232360064B31
:10FB9000BDE870401868FCF741BB00BFA8410020D9
:10FBA000C0410020B4410020BC410020F0B587B026
:10FBB0001822002168460EF0B5F9032312488DF88B
:10FBC0000030FBF7C5FB114D0F4E044614B9012060
:10FBD00007B0F0BDE368277A0193FBF7D9FDE3682E
:10FBE000024639462846FEF73DFD21696A4604F182
:10FBF0001400FCF773FE3046FBF7AAFB07462046CD
:10FC000000F04BFA3C46E1E7B4410020A841002057
:10FC10000F4B834270B50D4602D07846F8F708FCCA
:10FC20002B699B0610D50B4E34686CB9686814308C
:10FC300000F031FA306048B12B780372EB68C36092
:10FC40006B680361204670BD0120FCE70220FAE7E3
:10FC5000A8410020C041002008B50748FCF7C0FAC1
:10FC6000064B0749186020220648FEF715FD064896
:10FC7000BDE80840FBF748BBADFB0200BC410020DB
:10FC800080EB0300A8410020B441002037B5C0F349
:10FC90000745012D01900C4602D97846F8F7C8FBBC
:10FCA000084AA0206843131819792170125862700D
:10FCB0005B6F4FF47A7203F5FA73B3FBF2F3638070
:10FCC00003B030BDD041002037B5C0F30744023C3B
:10FCD000E4B2012C01900D4602D97846F8F7A8FB52
:10FCE0000448A02303FB040494F82C302B7003B0C9
:10FCF00030BD00BFD041002073B5C0F30745012DD2
:10FD0000019002D97846F8F793FB0E4CA0226A4383
:10FD1000161D22442644127912B9304600F06CFBBD
:10FD2000012D1CBFA0235D434FF0140118BF012318
:10FD300030460CBFC4F8A050635102B0BDE870401B
:10FD400000F005BCD0410020F7B5C0F30746012EF6
:10FD500001900D4602D97846F8F76AFB6B78013BB3
:10FD6000072B22D86B88143BB3F5917F1DD8104F19
:10FD70002978A02474433A19043412793C4471B1AF
:10FD800012B9204600F038FBA02070436B783B503E
:10FD90002046698800F0DBFB002003B0F0BD002A9C
:10FDA000F2D0204600F03DFBEEE70720F5E700BF6C
:10FDB000D041002013B5C0F30744023CE4B2012C4B
:10FDC000019002D97846F8F733FB0548A02303FBDE
:10FDD00004000021043002B0BDE8104000F0D7BBA1
:10FDE000D041002037B5C0F30744023CE4B2012CF7
:10FDF00001900D4602D97846F8F71AFB0548297894
:10FE0000A02303FB0400043000F0C1FB002003B07A
:10FE100030BD00BFD04100201FB5C0F30744043CF3
:10FE2000E4B2012C019002D97846F8F701FB02A850
:10FE300000F0C6FB0448A02303FB040002A9043021
:10FE400000F067FB04B010BDD041002073B5C0F3D3
:10FE50000744043CE4B2012C01900E4602D97846D6
:10FE6000F8F7E6FA307810F0FC050AD10648A0232E
:10FE700003FB04000430314600F04BFB284602B07F
:10FE800070BD0720FBE700BFD041002037B5C0F3AD
:10FE90000744043CE4B2012C01900D4602D9784697
:10FEA000F8F7C6FA0549A02000FB041107226C31BF
:10FEB000284603B0BDE830400EF029B8D0410020FC
:10FEC0000C4B834210B502D07846F8F7B1FA0A4CD1
:10FED000636813B97846F8F7ABFA084B2078616885
:10FEE000A02202FB0030043000F004FB002363601A
:10FEF00010BD00BFC441002010430020D0410020AD
:10FF0000124B834270B50E46154602D07846F8F77C
:10FF10008FFA0F4C636813B97846F8F789FA60686E
:10FF20002A2383746B1C43742A46314613300DF028
:10FF3000EEFF084B20786168A02202FB00300430FD
:10FF400000F0AFFA0023636070BD00BFC441002021
:10FF500010430020D0410020F8B5124B83420D46DB
:10FF600002D07846F8F764FA0F4C636813B178460C
:10FF7000F8F75EFA28780D4F6968A02606FB007036
:10FF80000231043000F052FA606048B1EB6803605F
:10FF90002B785E43BB5903712B7823700020F8BD8A
:10FFA0000220FCE7C441002010430020D041002083
:10FFB000044BC01A044B401158430B46C1B20348CE
:10FFC000FEF750BBD4410020CDCCCCCCC4410020A6
:10FFD000012882B00AD8032300F58070ADF8043000
:10FFE000ADF80600019802B0FFF744BA072002B04E
:10FFF0007047012882B00AD8032300F58070ADF85D
:020000023000CC
:100000000430ADF80600019802B0FFF773BA07207C
:1000100002B0704770B5114C114A124925460126AD
:1000200045F8046B4FF48073284600F0E5FA284643
:1000300000F0E2F9A43444F8046C0B4A0021204695
:10004000802300F0D9FA204600F0D6F9324607495D
:100050000748BDE87040FEF71FBB00BFD04100203D
:100060001E430020B1FF02001E44002098EB030055
:10007000C4410020012810B5044602D97846F8F79B
:10008000D7F9034BA02202FB0434207910BD00BF36
:10009000D041002070470DF01BBF0DF021BF0000C4
:1000A00070B5064618B343680BB34378073BDBB221
:1000B000F72B1ED9104B00781C68A8B90546E8B28A
:1000C000013500F091F8B5F5807FF8D106F108010F
:1000D0000948FDF7D4F82CB9204600F095F8012026
:1000E00000F072F8002003E000F07EF8EEE70E204A
:1000F00070BD0720FCE700BFA04400202DE9F047B9
:10010000DFF85C8006461F460C468D18AC4201D3D2
:10011000BDE8F087D8F8002004F1020942B1617807
:1001200012F8083C994207D033B11268002AF7D17F
:10013000227801321444E9E7082AF9D012F8071CA2
:10014000D2F800A0B14201D0FF2906D1217852F89F
:10015000043C01393A46484698475246DEE700BF1C
:10016000A0440020F0B5174A447D137C063CE4B25D
:1001700000214FF0010C8C4203DCB3FA83F04009FC
:1001800017E04618B57F767F6F0902EB870705F009
:100190001F057F690CFA05F53D4210D0611AB14286
:1001A00004DC536B013353630120F0BD181C18BFEE
:1001B00001200028F9D0936B01339363F5E70136F2
:1001C0003144D8E7A444002030B10548054B4360D2
:1001D0000023037000F0E6BD014800F001BE00BF3F
:1001E000A4440020650103004109064A012300F0F0
:1001F0001F0003FA00F052F82130034342F8213087
:10020000704700BFB8440020012810B5044602D949
:100210007846F8F70DF9014B1C7410BDA44400207A
:1002200010B5044610B97846F8F702F9E36F13B930
:100230007846F8F7FDF8E36FD4E925122046BDE8CB
:100240001040184710B5037813F0FC0F044602D095
:100250007846F8F7EDF8237803F0FE03022B02BF8F
:10026000A37963F03F03A37110BD10B550F8202CA3
:100270001379013BDBB2FD2B04460BD9836D4BB1E7
:100280001368C0E91C315C30FCF702F810B1784605
:10029000F8F7CEF854F8201C0B7943B944F8203C09
:1002A00004F138000439BDE81040F9F76EBD10BD07
:1002B00038B5054607480C46FBF766FBB0FBF4F182
:1002C00001FB1404FBF764FA01192846BDE8384025
:1002D000FBF735BAE0440020F7B500230B650B7837
:1002E0000C46002B4AD091F84030002B33D1CB6F15
:1002F000002B2AD104F15C0500266368002B3FD057
:100300001B79FF2B04D12846F9F724FD002837D1AB
:1003100063681B79002B33D094F87830002B5FD1C1
:1003200065682B7913B97846F8F782F82B79FF2B9B
:100330001CBF03F1FF332B7104F1080000F0FCFC3B
:1003400048B17846F8F774F805E001F18000FBF752
:10035000C1FF0028CED094F84430256F022B02D084
:100360007846F8F765F82048FBF70EFB42F2107369
:10037000B0FBF3F202FB13002844206503B0F0BD8C
:10038000616821B104392846F9F7FFFC666001A9CC
:100390002846F9F798FC0028F0D1019B1A1D0C3370
:1003A00062606362A9E73846FBF7EEFA94F87730AB
:1003B000B0FBF3F202FB1300C3B2AB4209D02544F9
:1003C000204495F8743090F8742085F8742080F8F3
:1003D0007430013694F87730F5B2AB42E3D89FE73A
:1003E0000026014FF6E700BFE04400200148FBF77C
:1003F000FFBA00BFE044002010B5037804467BB983
:1004000001230370436833B1216F04F14400BDE858
:100410001040FFF74DBF5C30F9F782FC0028F3D1A4
:1004200010BD002300F8443BFBF772B92DE9F341FE
:100430000D46064610B97846F7F7FAFF1F2D02D988
:100440007846F7F7F5FF05F1110292B201A906F11E
:100450005C00F9F7B6FB8046E0B9019C237B0222E1
:1004600062F3030306352373657396F86830227BC5
:100470005B0863F38612227306F16901062204F118
:100480000F000DF044FD271DC4F80480384602B06B
:10049000BDE8F081042802D07846F7F7C9FF0027AD
:1004A000F4E738B505460C4601B110B97846F7F7C0
:1004B000BFFF237913B97846F7F7BAFF237A03F021
:1004C000CF036FF3C713237221460023A37231F8C1
:1004D000042D05F15C00F9F7C5FB2B784BB195F8BD
:1004E000443033B9296F05F14400BDE83840FFF7C7
:1004F000DFBE38BD38B504460D4601B110B97846A7
:10050000F7F796FF291F04F15C00BDE83840F9F7C2
:100510003CBC70B50D46044600B111B97846F7F7FA
:1005200087FF2B7813F0FC0F02D07846F7F780FF97
:10053000EFF3108672B668340722294620460DF084
:10054000E6FC2046FFF77EFE06B962B670BD38B500
:100550000D46044610B97846F7F76AFF132D03D805
:100560007846F7F765FF02E0B5F5205FF8D84FF45D
:100570007A7194F84430694321673BB123782BB1F9
:1005800004F14400BDE83840FFF792BE38BD38B5ED
:100590000D46044610B97846F7F74AFF84F828500C
:1005A00038BD10B504465C30F9F7E3FAEFF310827A
:1005B00072B663680BB10021197102B962B610BD41
:1005C00010B54FF080530446D3F8A02003780949B2
:1005D00012F0010214BF62F347036FF34703037085
:1005E000062201300DF093FC2046BDE81040FFF7D5
:1005F00029BE00BFA4000010F8B50D4616461F46E0
:10060000044600B112B97846F7F712FF0A2F02D854
:100610007846F7F70DFFBAB2314604F15C00F9F7FE
:1006200052FA04F16800FFF7CBFF144BE56744F67C
:100630002062C4E91C23124A226325226285032218
:1006400084F82C2084F83C200E4A6263002304F1D5
:1006500074010D4A84F8783084F82830A16363620D
:10066000E264646523703DB1224604F180000749CD
:10067000BDE8F840FBF7F4BDF8BD00BF2526270311
:10068000D6BE898E6B020300D9020300210203004B
:10069000034A136813B1002111601847704700BF67
:1006A0000445002008B50848FAF765FE48B9074B2D
:1006B000186818B1064B187880F0010000F00100AE
:1006C00008BD0120FAE700BFF444002008450020DF
:1006D000F04400201C4B10B501214FF0FF321B4CA1
:1006E00059604FF48060D960C3F808230022C3F832
:1006F0000022C4F880010424C3F84021C3F8401547
:10070000C3F81045C3F80425114CC3F80825114A55
:10071000C2F86045A4F50354383CC2F86445C2F8F9
:1007200004051960D3F840110029FBD00021C3F85B
:1007300040114FF48061C2F80815074AD2F8480505
:10074000D3F84035C01A10BD00A0004000E100E021
:1007500040A1004000F0014000800040F8B5FBF7E8
:1007600005FB00286BD13648FAF705FE054680B137
:100770000468FBF715FB0646FBF70CFB002C40D08A
:10078000E3686433984206D20120BDE8F840FBF7E5
:100790004DBB0446EDE79E4233D92A4E33781BB158
:1007A00000F010FD002333702548FAF7D1FD854293
:1007B00002D07846F7F73CFE002501206561FBF783
:1007C00047FB214B214F1C60214B224E4FF0FF3243
:1007D000C3F80823204B0222C3F88021FFF77AFFD9
:1007E000E3681E4A216935700344136001233B709E
:1007F0002368984733783D700BB3BDE8F84000F0AC
:100800002FB8B6F5FA7F1AD900F0B4FD98B10D4BA8
:100810001A78A2B90E4A4FF0FF31C2F808130E4AF7
:100820000221C2F8801101221A70FFF753FFBDE8C0
:10083000F84000F0B3BCBDE8F840FBF7E9BAF8BDFA
:10084000F444002001450020084500200045002018
:1008500000100040F044002000E100E0FC440020D3
:1008600008B5FBF741FB0C4B1B68C01A002802DBE4
:100870007846F7F7DDFD0020FBF7EAFA074B002288
:100880001A60074B1B781BB1BDE80840FBF7C0BAE4
:10089000BDE80840FFF762BFFC4400200845002087
:1008A0000245002038B5114C2268A2B1936813B9F3
:1008B0007846F7F7BDFD0E4D01232B7023689A682B
:1008C0001869904700232B700A4B1B786BB1BDE869
:1008D0003840FFF7C5BF084B1B7813B97846F7F7C8
:1008E000A7FDBDE8384000F017BD38BD0845002021
:1008F00000450020F04400200145002008B50948CB
:10090000FAF702FD084A00231360084A1370084AE8
:1009100001211170074A1370074A1370074A82F8C1
:100920000A3308BDF444002008450020014500209A
:100930000245002000450020F044002000E100E0D6
:1009400038B50F4B1A7802F0FF04B2B90D4A1060A7
:1009500001221A70FBF736FA054618B1FBF746FA82
:10096000204606E0FBF73AFA044618B1FBF750FAC6
:10097000284638BDFFF78CFEF2E70820F9E700BFF4
:10098000024500200445002008B5094B1B786BB9CF
:1009900000F0F0FC30B1FBF7C5F938B1BDE8084014
:1009A000FBF724BAFFF77EFE0028F4D108BD00BF94
:1009B0000245002010B5054B1A782AB100241C709E
:1009C000FFF7E2FF204610BD0820FCE702450020AB
:1009D00010B5044610B97846F7F72AFD236813B915
:1009E0007846F7F725FDE36813B97846F7F720FD59
:1009F000E2680E4B9A4202D97846F7F719FD63690F
:100A0000A34211D00A48646104F11401FAF786FC8C
:100A1000084B1B7803F0FF0023B9074B1C6824B96F
:100A2000FFF7B2FF002000E0082010BD6085010044
:100A3000F4440020024500200845002010B50E4B6C
:100A40001B6813B97846F7F7F3FCFBF7C1F910B947
:100A50007846F7F7EDFC094C227812B17846F7F7A3
:100A6000E7FC074B1B7813B10123237010BDBDE8D1
:100A70001040FFF7F5BE00BF08450020F0440020FD
:100A80000045002038B5FBF7A3F910B97846F7F711
:100A9000CFFC144C2268A2B1536813B97846F7F71B
:100AA000C7FC114D01232B7023685A6818699047C1
:100AB00000232B700D4B1B7893B1BDE83840FFF736
:100AC000CFBE0B4B1B7813B97846F7F7B1FC00F09B
:100AD00081FB00F04FFC18B9BDE83840FBF798B92E
:100AE00038BD00BF0845002000450020F04400202C
:100AF0000145002008B5FBF76BF910B97846F7F708
:100B000097FC074B1B6853B9064B1B781BB1BDE81C
:100B10000840FBF77DB9BDE80840FFF71FBE08BDE0
:100B2000084500200245002008B5FBF751F910B92F
:100B30007846F7F77DFC084B1B6813B17846F7F74A
:100B400077FC064B4FF480621A6002221A60BDE8FF
:100B50000840FFF703BE00BF0845002000E100E0A9
:100B600038B5FBF735F910B97846F7F761FC134B48
:100B70001B6813B17846F7F75BFC114C23781BB167
:100B800000F020FB002323700E4B0F4D01214FF08E
:100B9000FF3400225960D960C3F80843C3F800222B
:100BA0000A4A4FF48060C2F88001C5F80843022465
:100BB000C2F880411961C2F8800038BD08450020A4
:100BC0000145002000A000400010004000E100E0CE
:100BD000024B1B780BB1FFF75BBD7047024500204D
:100BE00070B5244CD4F81031054613B97846F7F7A0
:100BF0001FFC214E0023C4F81031337801333370C9
:100C000000F03EFD95F8342033789A421DD21B4BFC
:100C1000D3F840651A4B19680E44FBF765F9EB6A87
:100C20000446314605F11C009847FBF75DF9001BAF
:100C3000502802D47846F7F7FBFB00F055FDFFF78C
:100C4000FDFE002385F8383070BD0DD92A6BD05CCD
:100C500000F020F9074BD3F81031002BF4D0784680
:100C6000BDE87040F7F7E4BB0323C4F8003200F09E
:100C700015FDEFE7001000401045002000A00040E7
:100C80000C450020F8B5264A264B274FC3F86025AF
:100C900002F50F423C32C3F864254FF480620D46E2
:100CA000C3F80425044600F0D5F805F1200000F053
:100CB00005F90021A86A00F047F92B6B187800F0BD
:100CC000E9F8012620463E70FBF762F9174B184CF5
:100CD0001860EB69C4F804350023C4F81031102300
:100CE000C4F80433134B5E642660D3F844053146E0
:100CF000304400F069FC95F83430B34209D9072339
:100D0000C4F800323B782A6BD05CBDE8F84000F0B4
:100D1000C1B80323C4F80032BDE8F84000F0BEBCFF
:100D20000411004000F00140104500200C45002057
:100D30000010004000A0004010B5C36A044613B97B
:100D40007846F7F775FB94F838301BBB124B2360DD
:100D5000124B6360E36994F82410587894F83420B7
:100D6000042900F10A0308BF00F10B030C48415CA1
:100D70004B432E3353439833C4E90334012384F89F
:100D800038302046FFF724FE18B17846F7F750FBBD
:100D9000002010BD1120FCE7850C0300E10B0300CF
:100DA000A4EB030010B5044610B97846F7F740FBF2
:100DB000636813B97846F7F73BFB2378012B02D918
:100DC0007846F7F735FB2078044B04F10C0103EB70
:100DD000C000BDE81040FCF752BA00BF1445002027
:100DE00010B5044610B97846F7F722FB2378012B9B
:100DF00002D97846F7F71CFB2078044B04F10C016C
:100E000003EBC000BDE81040FCF75ABA14450020BF
:100E1000F8B506460F4611B97846F7F709FB012EDB
:100E200002D97846F7F704FB094C54F8365035B927
:100E300004EBC6004368013343602846F8BD55E91A
:100E40000231384698470028F8D12D68EFE700BFF7
:100E5000144500200D4B0022C3F8FC2F0122C3F8DB
:100E6000FC2F40F25B62C3F8382540F20312C3F84E
:100E70003425074AC3F83C259622C3F84425D3F805
:100E8000502642F00102C3F850267047001000407F
:100E900055555500272810B5044602D97846F7F76E
:100EA000C7FA044B1A5D044BC3F80825C3F8544530
:100EB00010BD00BFAAEB03000010004010B50446AF
:100EC00010B97846F7F7B4FA2379052B02D978469A
:100ED000F7F7AEFA638813B97846F7F7A9FA63888B
:100EE0000233B3F5817F02D97846F7F7A1FA154BA3
:100EF0002278C3F80C252279C3F81025A27842F095
:100F0000007242F44032C3F818256288252A8CBF4B
:100F100008220622C2F1080142F4807242EA01422C
:100F2000C3F81425D3F8142542F48012C3F814250D
:100F30002279042A02BFD3F8142542F08072C3F844
:100F4000142510BD0010004070B5124DD5F81835AD
:100F5000C3F30243032B04460E4602D07846F7F74C
:100F600067FA36B1012E0BD07846BDE87040F7F72E
:100F70005FBA230E2402C5F82435C5F81C4570BDA0
:100F8000230C044A03F47F432402C2F82435C2F838
:100F90002045F4E700100040EFF3108372B6054AD5
:100FA00052781AB1044A0221C2F8001103B962B69C
:100FB000704700BF2445002000E100E0024B002202
:100FC0001A71FFF7E9BF00BF24450020074B5A798B
:100FD00093F82F100132D2B291425A719CBF002275
:100FE0005A7102221A71FFF7D7BF00BF24450020B3
:100FF000F8B5194D194EFFF72DFF00241848FFF7DB
:101000005DFF0127C5F8304556F8040F48B1214669
:10101000FFF79AFFD5F8302507FA04F31343C5F814
:1010200030350134082CEFD10B4B1122C3F80443A7
:10103000C3F800220022C3F8042103F5F033094A63
:10104000C3F8602502F5DE424432C3F864254FF44C
:101050008062C3F80425F8BD001000405045002010
:10106000404500200411004010B50F4CA36813B197
:101070007846F7F7DDF90D493C2201F17C00F8F7DD
:10108000A0FD031E09BFA268A2690949183213BF57
:101090000132C1F804250120002018BFA2610033ED
:1010A00018BF0123A37010BD244500202C4500204B
:1010B0000010004038B5194BD3F8503513B17846BD
:1010C000F7F7B6F9164D6B792B4493F82C00FFF720
:1010D000E1FEEB781BB1FFF78BFF0023EB70FFF70E
:1010E000C3FFB8B10F4C0D4B012161645960D4F8B6
:1010F0004405084400F096FA00F0D0FA0023C4F842
:101100004431094B4FF48062C3F880214FF400331F
:10111000C4F8043301232B7138BD00BF0010004018
:101120002445002000A0004000E100E070B50B4C19
:101130000B4D012200262261C4F80C61A96821B17F
:1011400005F18400F8F721FEAE60D4F85035002B8D
:10115000FBD1BDE8704000F0C7BA00BF00100040EE
:101160002445002010B5FAF713FB04460948D0E9DE
:1011700009138B4208D16830FAF7CAFA21460648AB
:10118000BDE81040FAF7DBBA21446830FAF7D7FA25
:10119000F4E700BF244500207445002010B5084C3A
:1011A000012363700023E370FFF722FF2378022BF3
:1011B00005D123791BB1BDE81040FFF77BBF10BDFF
:1011C00024450020024B00225A70FFF7AFBF00BF3A
:1011D00024450020F8B54C4B4C4CD3F80C21002A88
:1011E00050D00022C3F80C21D3F80C21D3F80024EE
:1011F000A56822B9236901332361294655E0697E38
:10120000E28B914248D8D3F8482552426A73D3F80A
:10121000082404EB82022E1D126BAA60D3F8543509
:1012200003F03F032B733A4BD3F848753846FAF76F
:10123000AFFE0622686005F11B0105F10F000CF0FE
:1012400066FE2B7EAA7BC3F3801161F34702AA736B
:10125000C3F303036B75E3680133E360D4F89032A2
:10126000F3B931460020FFF7D3FDE8B96A7E29487B
:10127000A1681732F8F7F6FCD4F88000FAF7CEFF31
:101280000023A3602378012B13D0022B15D07846BE
:10129000BDE8F840F7F7CCB8636901336361ACE7A8
:1012A000394630469847DCE7A1681A48F8F76DFDE3
:1012B000E6E7BDE8F840FFF739BF134BD3F85035E8
:1012C000032BE4D8DFE803F002190A1923799BB154
:1012D000022BDCD8BDE8F840FFF7ECBE2479012CE6
:1012E00005D0E6D3022CD2D1FFF720FFF2E7FFF7BB
:1012F000BBFE08B1044B9C60F8BD2379012BFBD0E9
:10130000D7D3022BEFE700BF001000402445002098
:1013100000800040A845002010B50A4CD4F84431A4
:1013200013B97846F7F784F84FF40033C4F808335C
:101330000023C4F84431D4F84431BDE8104000F033
:101340009FB900BF00A0004010B5094C237813B925
:101350007846F7F76DF82378012B07D1FFF702FFE6
:1013600002232370BDE81040FFF70EBB10BD00BF85
:1013700024450020024B1878831E5842584170477C
:101380002445002038B5054610B97846F7F750F8DF
:10139000064C291F04F18400F8F7F7FCA3781BB171
:1013A000BDE83840FFF7F8BD38BD00BF2445002038
:1013B00013B50B4C01A92046F8F785FC08B10020B5
:1013C0000BE0019901200431FFF722FD019B18B1C8
:1013D000181DFFF7D7FFEDE7181D02B010BD00BFC5
:1013E000A84500200148F8F79BBC00BFA845002095
:1013F000884238B504460D4602D27846F7F718F809
:101400000C4B9C4202D97846F7F712F840F6B733F6
:101410009D4202D87846F7F70BF8074BC3E9095409
:101420005C67DC651B78022B03D1BDE83840FFF711
:1014300099BE38BD00007102244500204B1E022BCE
:1014400070B506460C4602D97846F6F7F1FF3246EB
:10145000931BDBB29C420AD912F8013B252BF7D033
:10146000262BF5D0272BF3D07846F6F7E1FF064D73
:101470002246314605F12C000CF049FD00236B712A
:1014800085F82F4070BD00BF244500204B1E072B60
:1014900070B506460D4602D97846F6F7C9FF084CE6
:1014A0002022002104F130000CF03CFDAA0031465E
:1014B00004F130000CF02BFD0123E37070BD00BF80
:1014C0002445002007B50F4B68461A889B78ADF875
:1014D000002003218DF80230FFF7B0FF02A80A4B6D
:1014E00040F8043D0121FFF7D1FF084B08490322D2
:1014F00083F8202008460122DA70FFF779FF03B055
:101500005DF804FBD2EB0300D6BE898E2445002093
:1015100080841E0038B5114C05464FF42572002119
:1015200020460CF0FFFC4FF4007204F1900104F12E
:101530008400F8F7C8FAFFF7C5FF002323772523B7
:10154000E383074B2367074BA365284601232370DA
:101550002371FAF745FEC4F8800038BD2445002009
:10156000BD0F0300CD0F03000278D3070DD59108FE
:10157000012312F0020F03FA01F34FF0A04202D050
:10158000C2F80C357047C2F8083570470023036075
:101590000B4B99781B79CA0002F180429B0002F53F
:1015A000F83203F1804303F5C043C2F81005C2F8D6
:1015B00014350123034A8B40C2F80435704700BF3D
:1015C000B847002000F0014038B5114B5A79054664
:1015D0000C46E2B11A78D10719D599780D4B0E480F
:1015E00012F0020F18BF4FF00313920843EA0223D0
:1015F00001F5A272094900EB840041F82230FFF79F
:10160000C5FF04F5A874064B163543F8245038BDC1
:10161000B84700200300130040A1004000600040D4
:1016200000A0004038B5114B5A7905460C46E2B18E
:101630005A78D10719D599780D4B0E4812F0020F40
:1016400018BF4FF00313920843EA022301F5A27278
:10165000094900EB840041F82230FFF797FF04F5B9
:10166000A874064B163543F8245038BDB8470020FF
:101670000300130040A100400060004000A00040B3
:10168000044B5A792AB19A7801239340024AC2F84E
:1016900008357047B847002000F001400F494B79EA
:1016A000D3B10F4B0022C3F81021C878C20002F159
:1016B000804202F5F83203F58873C2F810350B79D1
:1016C0009B0003F1804303F5C043C2F814350123A6
:1016D000044A8340C2F80435704700BFB847002071
:1016E0000010004000F0014010B50F4C6379CBB101
:1016F000E178A378012202FA03F38A4013430B4AEC
:10170000C2F808352379A2F5C83203F5A273002187
:10171000204642F82310FFF727FF601CBDE8104069
:10172000FFF722BF10BD00BFB847002000F0014006
:1017300076DF70477FDF70478FDF704790DF70473D
:10174000A8DF7047AADF7047AEDF7047B1DF704790
:10175000B5DF704708B508881321FFF7E9FF30F0BF
:10176000080304D07846BDE80840F6F761BE08BD1E
:10177000F0B50E468FB01746054600B111B9784650
:10178000F6F756FE484CFF2384F84D31474BC4F81A
:10179000583104F11C03C4F86031D822444BE36192
:1017A000002104F12C000CF0BDFBD82204F12C0127
:1017B00004F12000F8F787F90622294620460CF0AC
:1017C000A6FBA66101AE2B88ADF804300120A21D56
:1017D00031468DF80600FFF7B3FF10B17846F6F7F3
:1017E00027FE1C22AB88ADF8043000210DEB02006F
:1017F0000CF098FB9DF81C30032243F004030021F9
:1018000068468DF81C300CF08DFB9DF800300122ED
:1018100062F3030362F307138DF800309DF8013083
:1018200062F3030362F307138DF801309DF8023071
:1018300062F3420303F0E70313430021142202A8DA
:101840008DF802300CF06EFB002342220493ADF8B9
:101850001420069302AA174BE088029607A9CDF838
:101860000CD0FFF76FFF10B17846F6F7E1FD1C22B0
:101870006B88ADF8043000210DEB02000CF052FB38
:101880009DF81C30E08843F010038DF81C3002AA4C
:10189000094B07A9FFF756FF10B17846F6F7C8FDC8
:1018A000C4F868710FB0F0BDC047002055170300A1
:1018B000FFFF1400D0470020C8470020F7B50E46B0
:1018C00015461F46044610B17846F6F7B1FD032EC3
:1018D00002D97846F6F7ACFD422D02D97846F6F7E4
:1018E000A7FD14484FF4A6736343C218918B4FF6BB
:1018F000FF72914202D1002003B0F0BD02A9002482
:10190000AA1D203341F8044D92B21844F8F759F952
:1019100048B90198437A4760013566F305030572BB
:1019200043720A30E8E70428E5D07846F6F780FDF0
:101930002046E1E7C047002070B504460E4611B9C5
:101940007846F6F775FD14B17846F6F771FD0C4D43
:101950004FF4A67303FB04539A8B4FF6FF739A421E
:1019600002D17846F6F764FD4FF4A67000FB0450F0
:10197000A6F10A012030BDE87040F8F706BA00BFB2
:10198000C0470020064A08B54FF4A67303FB0020A9
:101990002030F8F734FA80F00100C0B208BD00BF73
:1019A000C047002070B5064610B17846F6F740FDF6
:1019B0004FF4A6757543064C05F5A87020442C44D9
:1019C000F9F7A6FEA08B1321BDE87040FFF7B0BE6B
:1019D000C04700202DE9F04F594E4FF4A67303FB8A
:1019E000006387B0D3F80471054617B97846F6F757
:1019F0001FFD4FF4A67303FB056393F808213B7AA0
:101A00009A4202D37846F6F713FD4FF4A67303FB10
:101A100005633C7A93F80821DB8B002A5DD1A34251
:101A20002CBF4FF000084FF0010808F1FF395FFAB2
:101A300089F9B9F1010F59D9B8F1000F02D0B8F105
:101A4000030F55D1A41AA4B2A34202D27846F6F7E6
:101A5000EFFC4FF4A67A0AFB056A04379AF80831BE
:101A600005330021FA5C68F38712FA5402A81022A9
:101A700007EB030B0CF056FA3389ADF808300DF183
:101A80000603049302A90123BAF81C008DF80A305A
:101A9000ADF80640CDF814B0FFF756FE43F201430F
:101AA000984212D100231A461946BAF81C00FFF7D3
:101AB0004DFE10B17846F6F7BBFC4FF4A67303FB5E
:101AC000056302A9988BFFF73FFE082812D128462C
:101AD000FFF768FF07B0BDE8F08FA4EB0208984558
:101AE000CCBF4FF002084FF003089EE71C46B0E75A
:101AF0000024AEE71328EDD018B9BDF80630A34294
:101B000002D07846F6F794FC4FF4A67303FB056306
:101B1000B9F1010F93F8081101F1FF331C44E4B24D
:101B200006D80531601D0122394438440CF0EFF924
:101B30004FF4A67303FB056585F80841CAE700BFAB
:101B4000C04700202DE9F04180460E4611B9784685
:101B5000F6F76EFCB8F1000F02D07846F6F768FC95
:101B6000194D4FF4A67404FB08F42B199A8B4FF609
:101B7000FF739A4226D0314604F120072F4438469D
:101B800031F80A2DF8F76EF83846F8F7C9F8B8B109
:101B900004F5827129443846F8F795F810B1784673
:101BA000F6F746FC4FF4A67303FB0855D5F804314D
:101BB00013B97846F6F73CFC4046FFF70BFF0020D0
:101BC000BDE8F0810820FBE7C0470020F0B503889E
:101BD000232B89B0044600F0628114D8112B00F049
:101BE000918003D8102B74D009B0F0BD132B00F0F6
:101BF0006781212BF8D108A9002321F8103D8088A6
:101C0000FFF79AFD55E1522B00F0428117D8262BA1
:101C100000F0A680502BE7D1B84D8388AA8B9A425A
:101C2000E2D1C388AA899A4240F0AB80028A022A94
:101C300040F0A780837CDA07D6D5052359E0552BE1
:101C400000F04581572BCFD1AC4B81889A8B9142C4
:101C50001C46C9D1D3F80451002DC5D093F80821F2
:101C60002B7A013B9A4230D1294604F12000F8F743
:101C70008CF800230122C4F8043184F808318DF86F
:101C800010208DF811306B7AD4F86811C3F3050376
:101C90008DF818306B68059304A8A369984704F180
:101CA0002000F8F73DF800289ED004F58271A1F1DC
:101CB000E400F8F708F810B17846F6F7B9FBD4F865
:101CC000043113B97846F6F7B3FB0020FFF782FE24
:101CD0008AE78A4DAA8B4FF6FF739A4284D1838894
:101CE000AB83D82205F12C0105F12000F7F7EBFEBC
:101CF00003238DF8103000238DF81130AB69D5F82F
:101D000068112AE07D4B81889A8B91421C467FF4B2
:101D10006BAF03F5A870F9F7FBFCD4F804110025AC
:101D2000FF2384F84E5184F84D3139B104F120007D
:101D3000F8F72BF8C4F8045184F808517048F7F705
:101D400018FF4FF6FF73A38304238DF81030002390
:101D50008DF81130D4F86811A36904A8984743E7B7
:101D6000037A012B7FF440AF02238DF81030838873
:101D70008DF81130614B04A89A69D3F86811904727
:101D800032E72A8A9A427FF42FAF268A012E1AD987
:101D900095F84E01C0F142039E4214D8A37C03F093
:101DA0003F03032B0FD895F84D21934201D0FF2A12
:101DB00009D1A37C013EB6B29A09002845D0022A77
:101DC00005D0032A1AD00020FFF7ECFD0CE7F9F745
:101DD000DFFC4C4901444C48F9F7B1FC95F84E0141
:101DE00000F58670324604F1130128440CF08FF898
:101DF00095F84E311E4485F84E61F5E600F5867083
:101E0000324604F1130128440CF081F895F84D3165
:101E10008DF8143095F84E313C4FD5F8681106977F
:101E200000241E4404A8AB698DF810408DF81140C1
:101E3000ADF81C60984707F14400F9F769FCFF23EF
:101E400085F84E4185F84D31CEE6A2B1012ABAD1CE
:101E5000F9F79EFC2B4901442B48F9F770FC3246F8
:101E600004F1130129480CF052F8A37CC3F30503D5
:101E700085F84D31BFE7C3F3050313348DF8100027
:101E80008DF811008DF814300694ADF81C6035E71C
:101E900000231A4619468088FFF758FCA4E608225A
:101EA000002104A80CF03EF8002204A9A088FFF746
:101EB00045FC00283FF498AE7846F6F7B9FA93E669
:101EC00000231A4685218088FFF734FCF1E70B4B8D
:101ED000A288988B82427FF487AEE588162D0BD9B5
:101EE000442D94BF2C4645242146FFF731FC06467D
:101EF00070B9033CDC8377E61724F5E7C047002080
:101F0000E0470020002D310110490020CC4800207E
:101F1000154B1B689B067FF567AE144B1B68012BA6
:101F20007FF762AE2F2112480CF0CCF890B12F2130
:101F30000F480CF0C7F8411C0E4B0F4AD3F804357C
:101F40000092CDE90254019640F21B220220FBF7D9
:101F500031FA49E65C2106480CF0B4F808B15C217E
:101F6000E6E70349E8E700BF282E0020242E0020E2
:101F7000D5EB030000100140F2EB0300014B93F896
:101F800044007047AC490020024B1B780B7082B0B4
:101F900002B07047402E0020024B82B001221A701E
:101FA00002B07047402E002010B5C36C044613B930
:101FB0007846F6F73DFA0648064BE16C201A801089
:101FC000584380B2FFF7B8FC0023E36410BD00BFA4
:101FD000AC490020A737BDE910B5044610B97846D2
:101FE000F6F726FAA4F15000BDE81040FFF7DCBF79
:101FF00038B5C36C054613B97846F6F719FA094C9B
:10200000E96C2C1BA310084C5C43A4B22046FFF7DC
:1020100099FD18B1E96C2046FFF78EFC0023EB64B4
:1020200038BD00BFAC490020A737BDE9F8B50D4663
:102030001746044600B111B97846F6F7F9F954F895
:10204000043CA4F1500613B97846F6F7F1F93A4684
:10205000294654F8040C0BF05AFF3046BDE8F8400E
:10206000FFF7C6BF2DE9F0419846C36C04460E4603
:10207000174613B17846F6F7DBF90948094D201ADF
:10208000801068434346BAB2314680B2FFF716FC6F
:102090000028E0640CBF04200020BDE8F08100BFF0
:1020A000AC490020A737BDE938B50D46044600B15C
:1020B00011B97846F6F7BCF914F80C3C0BB90120BD
:1020C00038BDAB68503C5988204600F035FE0028EA
:1020D000F5D0EB686A6800212046FFF7C3FF0028AF
:1020E0000CBF00200220EBE770B5274BDC6993F8AA
:1020F00020208EB00CB1A2B908345D789DB90EAE27
:10210000082206F8145D04F110010DF125000BF012
:10211000FEFE0922314641F62800F5F7B9F90EB066
:1021200070BD3034E9E7012DF9D10DF102016846A7
:1021300007F0BAFDBDF800600622002101A80BF0EF
:10214000F1FE08210DF10A00F9F730FC330A43EAE9
:10215000062305AA01A904F11800ADF81230FAF718
:1021600071F9082207A90DF125008DF824500BF014
:10217000CEFE08220DF10A010DF12D000BF0C7FE75
:10218000112209A9C7E700BF2C49002010B5034C54
:10219000201DF9F7BDFA0023237010BD2C49002043
:1021A000034B93F8440010B10020FFF7EBBB7047DE
:1021B000AC49002013B50B4C00200DF1070204F1CF
:1021C0001C0107F071FCE06950B90DF1070204F140
:1021D0001C0107F069FCE36913B97846F6F728F9A2
:1021E00002B010BD2C49002008B5FFF7E3FFBDE8A1
:1021F0000840FFF779BF000070B5144C227860707A
:1022000005460E460AB1F5F7D5F9AEB1FFF7D2FF94
:10221000F9F7BEFA216901440D48F9F790FA7DB942
:102220004FF448612846F5F7A1F9FFF75DFFF5F790
:10223000B1F90123237070BD0548F9F769FAEEE79B
:102240004FF4A0714EF66020EDE700BF2C4900204E
:102250003049002013B50C4B0C780190187824B14C
:1022600078B901221A7002B010BD50B11C70074B32
:1022700018780028F7D0F5F79DF9FFF787FF20467B
:10228000F1E70820EFE700BF402E00202C49002096
:102290002DE9F743124D95F8444006460F46904607
:1022A0009946B4B10023162201212846FFF7DAFE31
:1022B000044690B9EB6C009342464B463946304693
:1022C000FCF76AFE10B17846F6F7B2F80448FFF75B
:1022D0008FFE204603B0BDE8F0830424F9E700BF79
:1022E000AC49002010B50378042B044615D1C3680F
:1022F0001B78012B11D001690848FAF77AFF60B901
:10230000637E227E6169A068FFF7C2FF28B9216958
:102310000248BDE81040FAF78CBF10BD50490020BC
:1023200037B5154B15491868009000229B88ADF809
:1023300004306846FFF71CFA1148124B0360F8F7A7
:10234000CBFF1148114C08238360114B0360042319
:102350004360FAF73FFF0F4B0F4ADA600F4A1A61EA
:10236000002502220E491D7004F15000FCF794F97B
:1023700084F8445003B030BD36EC0300E124030080
:10238000084A0020E522030050490020AC49002003
:102390006C4900202C490020E92103008096980018
:1023A0001CED030010B50B4B1B7863B10A490A788A
:1023B0005AB9FFF7E3FD044648B9C8610121FFF7A8
:1023C0001BFF204610BD0824FBE70024F9E7144654
:1023D000F7E700BF402E00202C49002037B50C46FF
:1023E00011B97846F6F724F800230DF1030201A98C
:1023F0002046019307F058FB019B13B97846F6F786
:1024000017F8019C9DF803300CB18BB90834F8F72C
:1024100009FB0546F8F722FB9DF803309A1E53424C
:102420005341294602462046FFF732FF03B030BD34
:102430003034ECE710B40A78012A044614D10B8931
:102440000B485C2101FB030090F8443063B190F825
:10245000423004F108011BB95DF8044B00F01ABCCE
:102460005DF8044B00F040BC5DF8044B704700BFC2
:10247000AC490020084B1B7853B1084A13783BB194
:102480005378012B06D118B1D3691A1A534253411C
:10249000184670470023FBE7402E00202C490020FF
:1024A000014B1878704700BF402E002008B5044B40
:1024B000187820B1FFF762FD003018BF012008BD79
:1024C000402E002010B5054C94F844302BB100206C
:1024D000FFF768FA002384F8443010BDAC490020AF
:1024E0002DE9F04F7F4947787F4D0B6802785C24D7
:1024F00017FB04F4B3B080462E1903F0010389469C
:10250000052A00F20183DFE812F003019302D402EE
:10251000060047008F00BBB1744B1B68032B13DD13
:102520002F2173480BF0CEFD68B32F2170480BF0BC
:10253000C9FD411C6F4B704AD3F80435009204204A
:1025400040F25522FAF736FFFFF720FE5C2303FB2B
:102550000757012387F84430304600F07DFB002008
:1025600004F1450204F14801B8642A44294407F003
:102570009BFAFFF703FD18B901210020FFF73CFE8D
:1025800033B0BDE8F08F5C2159480BF09BFD08B1DA
:102590005C21CBE75649CDE7C3B1544B1B68032BF5
:1025A00014DD2F2152480BF08DFD002833D02F2150
:1025B0004F480BF087FD411C4E4B504AD3F8043571
:1025C0000092042040F26522FAF7F4FE5C2303FB3C
:1025D0000755002385F84430494B1B7833B1494BEC
:1025E000187818B90121D861FFF706FE464A13781A
:1025F000002BC5D0FFF7C2FC01460028C0D11070E7
:102600002C2221A80BF08EFC1B2321A88DF88430EE
:10261000F7F7E8F9B4E75C2135480BF053FD08B152
:102620005C21C5E73249C7E7C3B1304B1B68032BB8
:1026300014DD2F212E480BF045FD002846D02F2118
:102640002B480BF03FFD411C2A4B304AD3F8043590
:102650000092042040F27B22FAF7ACFE04F1480815
:102660005C234534A8442C4403FB0755AF6C002F72
:1026700086D095F8453093BB0837F8F7D3F98146F3
:10268000F8F7ECF90023824616220121304695F82E
:1026900045B0FFF7E7FC00287FF472AFEB6C0093C6
:1026A0001BF1000318BF0123524649463846FCF788
:1026B00073FC10B17846F5F7BBFE3046FFF798FC87
:1026C00022464146002007F0EFF9CFE75C21084899
:1026D0000BF0F8FC08B15C21B2E70549B4E73037EC
:1026E000CBE700BF282E0020AC490020242E00207C
:1026F00040EC03000010014059EC030064EC0300BF
:10270000402E00202C490020154A002072EC0300C6
:10271000CBB1BF4B1B68032B15DD2F21BD480BF040
:10272000D1FC002800F08D802F21BA480BF0CAFCA4
:10273000411CB94BB94AD3F80435009204204FF438
:102740002072FAF737FE1822002105A898F804A095
:10275000D8F80840B8F80C800BF0E4FB01238DF8A2
:102760001430F9F715F8731B9A10AD4B06905343CC
:10277000ADF81C30D9F80030DA071AD5A44B1B6825
:10278000032B16DD2F21A3480BF09CFC002861D001
:102790002F21A0480BF096FC411C9F4BA14AD3F877
:1027A00004350092CDE901A840F23B220420FAF75B
:1027B00001FEBAF1010F5CD055D3BAF1020F7FF4DC
:1027C000DFAE08F1FF33412B00F2F78001230093C5
:1027D000224621AB41460BA8FAF7EAFA0446002844
:1027E00040F0C3809DF83730002B00F0BE809DF88C
:1027F0003630002B40F0B980BDF82E30002B40F071
:10280000B48021A8FAF7BCFB814641460BA8FAF731
:10281000ADFB99F80030012B00F1FF3273D02FD3BC
:10282000022B7FF4ADAE402A3FF6AAAED0073FF5AB
:10283000A7AE520811A9A2427ED1304600F054FA48
:1028400029E05C2173480BF03DFC08B15C216CE78A
:1028500070496EE75C216F480BF034FC08B15C21D5
:1028600097E76C4999E705AA41462046FAF736F8FA
:1028700086E605AA5FFA88F12046FBF77DFD7FE634
:10288000012A7FF47DAE99F80110304600F0F0F98E
:1028900000287FF475AE0023152202213046109CDB
:1028A000FFF7E0FB804600287FF46AAE5C2303FB61
:1028B0000755E86CFAF764FB00283FF461AE032388
:1028C000037095F842304370B5F84020130A43EA8C
:1028D000022343801822414611A801270BF022FB56
:1028E0008DF84F70F8F7A4F80DF11201CDE9150439
:1028F00013A807F0D9F914A8F8F732F838B330461E
:10290000FFF752FB3CE6402A3FF63AAED3073FF5CD
:1029100037AE520811A9A24203D1304600F0BAF9ED
:10292000B9E709EB4403B3F80100030A43EA0023C3
:1029300021F814300134EEE709EB4403B3F8010049
:10294000030A43EA002321F81430013473E711A984
:10295000E86CFAF7B6FA11A83B46EA6C0421FAF7DC
:1029600071FA3046FFF744FB0AE6D9F80030D90780
:102970007FF506AE264B1B68032B7FF701AE2F2198
:1029800024480BF09FFB78B12F2122480BF09AFBD3
:10299000411C214B244AD3F804350092042040F214
:1029A0002522FAF707FDEBE55C211A480BF08AFBBC
:1029B00008B15C21E9E71749EBE7D9F80030DA07FD
:1029C0007FF5DEAD124B1B68012B7FF7D9AD2F21B0
:1029D00010480BF077FB88B12F210E480BF072FBEB
:1029E000411C0D4B114AD3F804350092CDF80480F8
:1029F00040F22A220220FAF7DDFCC1E55C210548FD
:102A00000BF060FB08B15C21E7E70249E9E700BF92
:102A1000242E002040EC0300001001407CEC030059
:102A2000A737BDE980EC03009FEC0300B2EC030084
:102A3000BBB1484B1B68032B13DD2F2146480BF01D
:102A400041FB68B32F2144480BF03CFB411C434B36
:102A5000434AD3F80435009204204FF42272FAF767
:102A6000A9FC98F8083073B9D8F804104B1C5E42E2
:102A70005E41F8F78DFE50340246D8F804303146F6
:102A80002819FBF7EFFD374B1B78002B3FF478AD8F
:102A9000FFF786FB00287FF473ADFFF713FD6FE5AA
:102AA0005C212D480BF00EFB08B15C21CBE72A49D5
:102AB000CDE7BBB1274B1B68032B13DD2F21264825
:102AC0000BF000FBB8B12F2123480BF0FBFA411C9F
:102AD000224B254AD3F804350092042040F2A1226B
:102AE000FAF768FC214B00221A70214B1B78002B4F
:102AF0003FF446AD40E55C2117480BF0E3FA08B11E
:102B00005C21E1E71449E3E7002B3FF439AD114BB9
:102B10001B68012B7FF734AD2F210F480BF0D2FA41
:102B200078B12F210C480BF0CDFA411C0B4B98F8D3
:102B30000020D3F8043501920E4A009240F2AB22F5
:102B400058E75C2104480BF0BDFA08B15C21E9E7C5
:102B50000149EBE7242E002040EC03000010014067
:102B6000E1EC0300154A0020EEEC03002C490020A4
:102B7000402E0020FBEC030030B5164C22788DB0BF
:102B800022B3154B1B781BB1F4F714FDFFF7FEFAC7
:102B900000252570FFF7F2F9044668B901462C229A
:102BA00001A80BF0BFF91B2301A88DF80430F6F73C
:102BB00019FF20460DB030BD084B01221A70FFF7F7
:102BC000EFFA044620B9FFF77DFCF2E70824F0E7AE
:102BD0002C46EEE7402E00202C490020154A00200C
:102BE00010B50246FFF7CAF9044658B9064B83F8F8
:102BF0002010B2FA82F149090120DA61FFF7FCFAEC
:102C0000204610BD1124FBE72C49002010B5002000
:102C1000FFF730FC68B1084B1C782CB10121002073
:102C2000FFF7EAFA002010BDF4F7C4FCFFF7AEFA94
:102C3000F8E70820F7E700BF402E002007B5054B56
:102C400002A901F8010D1868FCF714FC03B05DF847
:102C500004FB00BF3CEC030010B5044610B97846F5
:102C6000F5F7E6FB002384F84230A4F8403010BDAD
:102C700038B50D46044610B97846F5F7D9FB012D55
:102C800006D82046FFF7E8FF84F84250002038BD00
:102C90000B20FCE7F8B50D461646044610B97846F9
:102CA000F5F7C6FB15B97846F5F7C2FB0023B3422A
:102CB00003D0B4F840201F2A00D9F8BD35F813100E
:102CC00081B90133F3E734F810708F42F9D0013045
:102CD0009042F8D3511CA4F8401035F8131024F892
:102CE0001210EEE70020F3E770B50C4616460546D5
:102CF00010B97846F5F79CFB14B97846F5F798FBC0
:102D0000214604EB4606B14215D0B5F8403000200C
:102D100000E0013083420CD90C8835F81020944231
:102D2000F7D1013B9BB2A5F8403035F8133025F8B8
:102D300010300231E7E770BD38B50D46044610B9D2
:102D40007846F5F775FBB4F840200023934206D38C
:102D5000002094F842300BB180F0010038BD34F807
:102D60001310A94201D00133F0E70120F1E7000080
:102D700060B10268064B9A4207D8406840F2FB43B4
:102D8000984294BF0020012070470120704700BF87
:102D900080A0370237B515460A890023022A0C465F
:102DA000CDE9003301D0052A11D16368022AB3F9B5
:102DB0000010ADF800100CD1B3F90030ADF80230BE
:102DC0006B6B6A461B6804F10C012846984703B0F8
:102DD00030BDB3F902201879ADF8022000F004F9F3
:102DE0000190EDE710B5044686B0F0B1436BE3B156
:102DF0001A68D2B19A68C2B1C26A0AB90C4AC262F0
:102E00000C4A00920C4A02920122CDE90324ADF84B
:102E100004109B6805932146684603F0D1FF10B962
:102E2000208804F01FFA06B010BD0E20FBE700BF9B
:102E300080969800FFFF031028ED0300F8B50E46BA
:102E400015460446002838D0002936D01046FFF732
:102E50008FFF002833D1208804F0BEFE002830D038
:102E600033886380B3782371A71C25B3286800F0EA
:102E7000DBF86071686800F007F90523A07123830F
:102E8000114A94F83030A37694F83130E376C4E9EF
:102E90000427F8F72DFA2388A3810C4B2362E36AF9
:102EA0006362636BE0615B68A36204F10C00BDE8E0
:102EB000F84004F015BF0323E1E70E20F8BD07201A
:102EC000FCE71120FAE700BF0682FFFF0882FFFF40
:102ED0002DE9F04115461E460446A0B399B31046AD
:102EE000FFF746FF88BB0B68C4F802300B79A3716B
:102EF00004F10208EDB1286800F096F8E071686806
:102F000000F0C2F807232072114A238394F830306E
:102F1000A37694F83130E376C4E90428F8F7E8F9A9
:102F200004F11007E06100250720AE4203D2BDE89E
:102F3000F0810523E8E73946208804F019F80028D5
:102F4000F5D10135F1E70E20F1E70720EFE700BFEB
:102F50000A82FFFFF8B50E4615460446002838D011
:102F6000002936D01046FFF703FF002833D1208810
:102F700004F032FE002830D033886380B3782371A8
:102F8000A71C25B3286800F04FF86071686800F04E
:102F90007BF80523A0712383114A94F83030A3767F
:102FA00094F83130E376C4E90427F8F7A1F92388CF
:102FB000A3810C4B2362E36A6362636BE0615B682D
:102FC000A36204F10C00BDE8F84004F089BE0323BD
:102FD000E1E70E20F8BD0720FCE71120FAE700BF6B
:102FE0000B82FFFF0882FFFF20F0C0033F2B16D0AB
:102FF00000F0C00040280CD002D838B10020704743
:10300000802809D0C028F9D1064800E06420584340
:1030100070474FF47A70FAE742F21070F7E74FF01A
:10302000FF307047C027090041F63803984204D8A2
:103030006423B0FBF3F0C0B270474FF230239842E4
:1030400006D84FF47A73B0FBF3F040F04000F2E79B
:103050000A4B984206D842F21073B0FBF3F060F0CE
:103060007F00E8E7064B984205D8064BB0FBF3F02B
:1030700060F03F00DFE73F20704700BFE0750900C8
:1030800080A03702C0270900FF289DBF0523B0FBA1
:10309000F3F0C0B2FF2070472DE9F04F0C468BB023
:1030A000804600B111B97846F5F7C2F92388252B7F
:1030B00002D87846F5F7BCF959224FF42013CDE930
:1030C0000723002603230A2207A94046ADF824302F
:1030D000ADF80A600AF01BFF0A232380B5B20DF198
:1030E0000E01284604F0BEFA10B17846F5F7A0F9B3
:1030F0000DF10F01284604F0C7FA10B17846F5F734
:1031000097F99DF80E309DF80F20D34243D003A9C4
:10311000284604F097FA10B17846F5F789F90AAA1B
:1031200004230DF1140922F81E3D4946284604F0F7
:1031300003FB10B17846F5F77BF92088042203A938
:1031400040440AF0E4FE27889DF80E300437BFB2F1
:1031500027806BB1BDF80A3001934FF0000A554645
:103160004FF6FF7B019B9A451BD323881D44258086
:103170009DF80F307BB12788BDF80A3001934FF0DE
:10318000000A474455464FF6FF7B019B9A4521D3E1
:1031900023881D4425800136032E9FD10BB0BDE846
:1031A000F08F04A939F81A0004F080FA10B17846BB
:1031B000F5F73EF9BDF810205A4508D1E81902226A
:1031C0000DF1120140440AF0A2FE0235ADB20AF13F
:1031D000010AC7E704A939F81A0004F067FA10B128
:1031E0007846F5F725F9BDF810205A450ED0022291
:1031F00004A978190AF08BFEA81C02220DF1120115
:1032000017FA80F00AF083FE0435ADB20AF1010A24
:10321000BBE70000024B1B6803B11847704700BFB3
:10322000184A002013B5044601A805F00BFDBDF8AF
:103230000400A04208D8201A80B24FF6FF7302287B
:1032400088BF184602B010BD4FF6FF70FAE737B5D9
:103250000446FBF7ABFC0546002301A8009305F0EC
:10326000F1FC6946288A06F053FB30B9009B636085
:10327000BDF80430238003B030BD0520FBE71FB547
:103280000193BDF81830ADF808300023ADF80020E8
:103290008DF80A304FF6FF720223ADF802208DF848
:1032A0000B306A46079B039303F08EFE05B05DF872
:1032B00004FB7FB505460E46002003A98DF80800E3
:1032C000FCF797FE10B17846F5F7B2F89DF80D308F
:1032D0009DF80820013B0A2104AC63F30202BDF80B
:1032E0000E30B3FBF1F3013B63F3C70204F8082D82
:1032F000F7F7FEFF01230190009348F225022346D1
:1033000031462846FFF7BBFF04B070BD7FB50B897F
:10331000012B06460D4631D14C688DF804302378D8
:10332000C3F3020301338DF805302378DA080A234A
:1033300002FB0333142BB8BF142301A90020ADF8FE
:103340000630FCF745FE10B17846F5F771F83046C7
:103350002946FFF7AEFF0023CDE9023311238DF894
:1033600008302378C3F302038DF80C30237802A8C9
:10337000C3F3C4038DF80D30FFF74CFF04B070BDEC
:103380000B890BB9FFF795BF7047000037B50446AE
:103390000D46F7F7ADFF084B1860084B01221A7075
:1033A00000230190009348F24A0229462046FFF785
:1033B00066FF03B030BD00BF204A00201C4A002039
:1033C00030B585B004460D468DF80C20ADF80D30B3
:1033D000F7F78EFF03230190009348F2440203ABFA
:1033E00029462046FFF74BFF05B030BD30B585B00C
:1033F00004460D46002303A90120ADF80830FCF770
:10340000F8FD10B17846F5F713F89DF80C308DF8FB
:1034100008309DF80D309DF80920013B63F302024E
:10342000BDF80E308DF80920142B15D1D2B212F050
:10343000070111D161F3C7028DF80920F7F758FF92
:1034400002230190009348F2280202AB294620464D
:10345000FFF715FF05B030BD0A22B3FBF2F39DF86C
:103460000920013B63F3C702E6E77FB50B89022B16
:1034700005460E463ED14C682378012B3AD803F01E
:1034800001038DF804306378C3F3020301338DF830
:103490000530637883BB1423ADF80630BDF80630E1
:1034A000142B38BF142301A90120ADF80630FCF716
:1034B0008FFD10B17846F4F7BBFF28463146FFF781
:1034C00095FF0023CDE9023312238DF808302378CD
:1034D0005A1E534253418DF80C306378C3F30203F4
:1034E0008DF80D30637802A8C3F3C4038DF80E3055
:1034F000FFF790FE04B070BDDB08013303EB8303DC
:103500005B00C9E70B890BB9FFF770BF704770B557
:1035100086B00D46ADF80F309DF82C30ADF80D207B
:1035200000218B4204460A988DF80C1014BF072620
:103530000926CDF81100F7F7DBFE03ABCDE90060FB
:1035400048F21F0229462046FFF799FE06B070BDDB
:1035500030B587B00446039306AB8DF8142033F8DA
:103560000C2DADF815209B788DF817300D46F7F728
:10357000BFFE04230190009348F2030205AB2946E5
:103580002046FFF77CFE07B030BD2DE9F0410B89E6
:10359000032B86B007460E4627D14D68AB78012B2A
:1035A00023D806AC002344F8083D288805F070FCB9
:1035B0002146804606F090F9D0B104208DF8140021
:1035C0002B88ADF8153070BB0498FEF753FF8DF8CB
:1035D0001700F7F78DFE04230190009348F248028C
:1035E00005AB31463846FFF74AFE06B0BDE8F0812C
:1035F0000DF10F01404605F069FD04460028DCD1BD
:10360000AB78012B0BD1FEF74BFF30B19DF80F10BB
:103610000498FFF7E5FA0028D0D00E20CEE7FFF798
:10362000F5FA2046CAE70020D1E72DE9F0430B89DF
:10363000022B87B081460C4638D14B681F88C7F3F0
:103640000B0005F025FCA38C8342804631D13B461C
:103650000C2221464846FFF7B3FE27E036F8150056
:1036600005F02AFC26F815000135019BAB42F5D880
:103670002EE036F8150004F0CDF810B17846F4F7D6
:10368000D7FE0135019BAB42F3D83B4648460022AA
:103690002146FFF795FE00230293736030461923FD
:1036A0008DF80830ADF80C80FFF7B4FD07B0BDE829
:1036B000F0834FF6FF73984202AEE6D006AA0823C5
:1036C00042F8143D314606F067F805460028CCD094
:1036D000404606F00DF805460028D3D00F28B6D096
:1036E0003B460422B5E70000F0B50B89122B85B0EC
:1036F00007460D4625D14E680A88344648F24003F5
:1037000034F8020B9A42C0F30B001CD121460DF194
:10371000060205F04DFC182304460F2C8DF80830E6
:10372000BDF80630ADF80C3096BF0C4B10221A5D78
:10373000338829463846FFF743FE14B902A8FFF73D
:1037400069FD05B0F0BD05F0A3FB2146ADF806000C
:1037500005F0D6FC1A230446DFE700BF30ED030076
:103760002DE9F0431F460B8847F6E57843449BB2AA
:10377000102B87B005460C46164656D84FF0010967
:1037800009FA03F313F0EF011BD113F4803060D179
:103790005B044AD50146052203A80AF0C3FB63680F
:1037A0008DF80C701A88ADF80D205B88ADF80F30DD
:1037B000F7F79EFD05230093019003AB48F22A0220
:1037C0002FE00922002103A80AF0ACFB23888DF822
:1037D0000C7043449BB2072B0AD809FA03F313F089
:1037E0000B0F09D113F004022DD113F0E00F1FD1FC
:1037F0007846F4F71DFE09E063681A88ADF80D20DD
:103800005A88ADF80F205B68CDF81130002E14BF38
:1038100007260926F7F76CFDCDE9006003AB48F2F7
:103820001F0221462846FFF72AFD07B0BDE8F083B6
:10383000636833F8121BADF80D108DF80F208DF86A
:1038400010201B68E0E7636833F8022BADF80D2009
:10385000F7E7072203A80AF065FB63688DF80C7090
:103860001A88ADF80D209A88ADF811205B88ADF864
:103870000F30F7F73DFD07230093019003AB48F2AB
:103880002C02CEE77FB504AA042322F80A3D02A940
:10389000064603F075FD062825D010B17846F4F7EA
:1038A000C7FD0025BDF80620ABB29A4202D8002021
:1038B00004B070BDACB2640004AB2344304633F8AE
:1038C000081C03F02DFD10B17846F4F7B1FD04ABF0
:1038D0001C4434F8080C05F063FA10B17846F4F78C
:1038E000A7FD0135DEE70820E2E72DE9F0438DB0C2
:1038F0001C46154606460F46092200210DF12500FB
:103900000AF010FB00230DF10B0120468DF820304A
:10391000ADF8215003F04EFE10B17846F4F788FD63
:103920009DF826309DF80B2062F304136FF34713C4
:1039300005A920468DF8263003F0B8FE10B1784670
:10394000F4F776FDBDF81450BDF816304FF6FF724F
:1039500095420DF10E0120460EBFADF82A30ADF8AC
:103960002C30ADF82A5003F05BFB10B17846F4F729
:103970005FFDBDF80E004FF6FF73984218D100238B
:103980008DF823308DF824304FF6FF739D4214BF1D
:103990000E250C25F7F7ACFC08ABCDE9005048F23A
:1039A000190239463046FFF76AFC0DB0BDE8F083D6
:1039B00006A905F0C3F910B17846F4F739FDBDF852
:1039C0001A30ADF8233004A9204603F0B1FD0528D4
:1039D0008046D4D0002848D10DF11201BDF8100066
:1039E00005F07EFA0528814604D18DF823808DF8F4
:1039F0002480C9E70028C7D19DF812308DF8253002
:103A00009DF8133003F00F029DF8263023F00F03CA
:103A100013430DF1270120468DF8263003F0FEFDFB
:103A20000122494603A80AF07DFA0DF10D0203A90F
:103A3000204603F045FB9DF80C209DF80D3002A9AF
:103A400043EA821320468DF8283003F023FB9DF8CB
:103A500008209DF82930C2F3020161F30203D20865
:103A600062F3C7038DF829308EE77846F4F7E0FC5F
:103A70008AE7F0B50B89032B87B007460C4619D1AE
:103A80004D6804238DF80C302B88ADF80D300023E1
:103A90008DF80F302888C0F30B0005F0F9F90DF10F
:103AA0000B01064605F012FBD0B9AB78022B03D010
:103AB000032B32D007B0F0BD9DF80B305A1E012AFF
:103AC000F8D8012B06D1304605F084FB10B17846BA
:103AD000F4F7AEFC00238DF80C3002238DF80F3084
:103AE000F7F706FC04230190009348F2170203AB9A
:103AF00021463846FFF7C3FB9DF80C30002BD9D187
:103B0000CDE9043308238DF8103004A89DF80F3058
:103B10008DF81430FFF77EFBCCE79DF80B30032BBC
:103B2000C8D033B1304605F083FB10B17846F4F7C6
:103B30007FFC00238DF80C30D0E770B50D89012D86
:103B400086B006460C461ED14B6818788DF80F00DB
:103B500003F002FDB8B90523CDE904008DF810305B
:103B600004A89DF80F308DF81430FFF753FBF7F7DA
:103B7000BFFB0DF10F03CDE9005048F20E022146C4
:103B80003046FFF77CFB06B070BD7FB50E4605469C
:103B9000FBF7F0F904AC04F8040DF7F7A9FB0123D7
:103BA0000190009348F20B02234631462846FFF766
:103BB00066FB04B070BD0B890BB9FFF7E6BF704719
:103BC00070B50B89092B8CB006460D465CD14C684C
:103BD0002388ADF81C30A3782BB1102B56D8013BAD
:103BE000012202FA03F30893E37843B1112B9DBF3E
:103BF00003F1FF33012202FA03F34FF0FF3309937D
:103C000023798DF82830B4F8053003F00F03ADF8B0
:103C10002A30B4F80730ADF82C30B4F8070005F0BE
:103C200037F94FF6FF73984237D104238DF81030DF
:103C30002388ADF81130E3788DF81430A3788DF82F
:103C4000133023798DF81530B4F8053003F00F03E5
:103C5000ADF81630B4F80730ADF81830F7F748FB78
:103C60000A2301900093062204AB29463046FFF751
:103C700006FB9DF810303BB914238DF8083002A8DC
:103C800007AB0393FFF7C6FA0CB070BDFF2B4FF6DE
:103C9000FF7318BF4FF0FF33A5E707A8FAF78AFFB5
:103CA00000280CBF00230F23C0E7000037B5F3F74F
:103CB00085F8FAF701F9084D18B903232B7003B002
:103CC00030BD00241C236846CDE900448DF8003047
:103CD000FFF7A0FA2C70F2E71C4A002037B50378F2
:103CE0000E2B1CD01B2B12D0012B16D1134B42686C
:103CF0001B689A4211D1124C2378012B0DD1FEF78B
:103D0000D5FB40B102232370FEF736FF05E00C4BD4
:103D10001B78022B01D1FFF7C9FF03B030BD084D5E
:103D20002B78032BF9D100241C236846CDE90044ED
:103D30008DF80030FFF76EFA2C70EEE7204A002075
:103D40001C4A00207FB504AC022304F8043D05465C
:103D50000E46F7F7CDFA01230190009348F21102C5
:103D6000234631462846FFF78AFA04B070BD0A8917
:103D7000012A05D14B681B78012B01D8FFF7E2BF60
:103D800070470B890BB9FFF7DDBF70477FB50B8913
:103D9000022B06460C461FD14D682888C0F30B0045
:103DA00005F076F80DF10B0105F090F9002303936F
:103DB0002B88ADF80D3088B99DF80B308DF80F3099
:103DC000F7F796FA04230190009348F2170203AB29
:103DD00021463046FFF753FA04B070BD04238DF836
:103DE0000C30EDE77FB50B8906460D4683B9FEF72B
:103DF00057FB04AC04F8040DF7F77AFA012301909D
:103E0000009348F21402234629463046FFF737FA5A
:103E100004B070BD2DE9FF410B89022B80460D4691
:103E200025D104AE00244F6846F8084D388805F0C7
:103E30002FF8314605F050FDA0420CBF2346042365
:103E40008DF80C303A88ADF80D209BB90298FEF73A
:103E500011FB8DF80F00F7F74BFA04230190009344
:103E600048F2480203AB29464046FFF708FA04B07F
:103E7000BDE8F0812046ECE770B50B8988B00646B6
:103E80000D46FBB908A9042341F8143D06A805F026
:103E90006FFA039B9AB25B0803EB430302F0010441
:103EA00004A906A803EB440401F0ACFBF7F720FAE1
:103EB000A4B2CDE9004004AB48F2430229463046A3
:103EC000FFF7DDF908B070BDF0B50B89022B8DB09E
:103ED00006460D4632D14F680CAC0823388844F8AA
:103EE000243DC0F30B0004F0D3FF224608A905F0DF
:103EF00053FC3B88ADF8113018B1052820D01023B1
:103F00001FE0039C8DF81000A2B2640804EB440487
:103F100002F0010304EB430403340DF1130108A87C
:103F2000A4B201F06FFBF7F7E3F904ABCDE9004071
:103F300048F2020229463046FFF7A1F90DB0F0BD64
:103F400004238DF810300324EDE7F0B516460A88F7
:103F50001F4648F218039A4287B005460C4605D022
:103F600048F21A039A4201D0032A2CD10E220021D2
:103F700002A809F0D7FF23888DF8087048F21802CC
:103F8000934209D048F21A0293421ED0032B20D14B
:103F9000636833F8092B02E0636833F8022BADF84D
:103FA00009201B68CDF81230002E14BF0C260E26F7
:103FB000F7F79EF902ABCDE9006048F219022146FD
:103FC0002846FFF75CF907B0F0BD636833F8172B9C
:103FD000E5E77846F4F72CFAE6E77FB50B89012B85
:103FE00006460C4620D14B68187801281CD800F0F2
:103FF0000100FEF723FE30F0080302D07846F4F704
:1040000017FAFEF7CFF9FEF74BFA04AD05F8040DE9
:10401000F7F76EF901230190009348F214022B4642
:1040200021463046FFF72BF904B070BD7FB50B89F0
:1040300006460D4683B903F09BFA04AC04F8010D63
:10404000F7F756F901230190009348F20E02234638
:1040500029463046FFF713F904B070BD37B50B8918
:10406000012B05460C4618D14B681A78012A14D842
:104070000022CDE9002204228DF800201878431E8A
:10408000584258418DF80400FAF764FF284621464B
:10409000FFF77BFD6846FFF7BDF803B030BD70B594
:1040A0000B89012B8EB006460D4618D10EA90023B0
:1040B0008DF81030262321F82A3D0DF11100FEF76E
:1040C000EBFFBDF80E40F7F713F90134A4B2CDE9C8
:1040D000004004AB022229463046FFF7D0F80EB06C
:1040E00070BD00002DE9F0470B89132B88B0804686
:1040F0000C4670D14E68B578707837783388ADF853
:1041000014304FEA051A4AEA101A00F00F0047EA85
:1041100000208DF8165004F0BBFE00238DF81830F7
:10412000F21C07AB01468146504605F0E1F9384BD9
:104130001B685B0406461CD5364B1B68032B18DD39
:104140002F21354809F0BEFFF8B12F21324809F080
:10415000B9FF411C314BBDF81C20D3F80435019246
:104160002F4A0092CDF808A040F275220420F9F7FA
:1041700021F90F2E48D8DFE806F03E4747114049A5
:10418000473347474747474747315C21224809F0B3
:1041900099FF08B15C21D9E71F49DBE70DF1120156
:1041A000BDF81C0004F0B6FE10B17846F4F740F9F3
:1041B000BDF812204A4514BF042200228DF8147065
:1041C0008DF81650059B21464046FFF7C1F916B9F8
:1041D00006A8FFF71FF808B0BDE8F0870622EDE754
:1041E0008DF814708DF81650059B03222146404629
:1041F000FFF7AEF9EFE70022E0E78DF814708DF8D5
:104200001650059B0522F1E71022D7E70422D5E7D7
:10421000282E0020242E002040ED03000010014035
:1042200070ED030073B50D46164603F0A9F8052896
:10423000044607D006281AD0B8B933889C4204D364
:10424000002000E0022002B070BD6946288804F01A
:1042500075FD50B99DF80030023B012B05D8BDF823
:10426000023025F8023B0134E7E71020EBE7082095
:10427000E9E72DE9F0410B89042B8CB006460D4689
:1042800012D14C684FF6FF7867882088ADF80E7021
:10429000ADF80C80FEF7C6FF404508D1012301228E
:1042A00029463046FFF75CFA0CB0BDE8F08102AA5F
:1042B000039903F011FA08B10223F0E70CAA0623D0
:1042C00022F8263D04A9BDF80800FFF7ABFF03461E
:1042D0000028E4D1BDF80A208DF81C002388ADF831
:1042E0001D3004A952000DF12100ADF81F7009F036
:1042F0000EFEBDF80A40F6F7FBFF64000534A4B2D9
:10430000CDE9004007AB48F22A0229463046FEF7C5
:10431000B6FFC9E708B590B1B0F5004F06D8002345
:1043200001334008DBB2FBD1184608BD4FF6FF73DE
:10433000984206D07846F4F77BF81023F4E703465A
:10434000F2E7FF23F0E708B570B1B0F5803F06D87B
:10435000002301334008DBB2FBD1184608BD784684
:10436000F4F766F81123F8E70346F6E770B50C4654
:1043700086B00546FAF71AFC2189064619BB8DF866
:104380000C100388ADF80D304368012B1DD8DBB24B
:10439000B0688DF80F30FFF7D6FF337B8DF8113002
:1043A000F389ADF81230338AADF814308DF810006F
:1043B000F6F79EFF0A2301900093062203AB2146E5
:1043C0002846FEF75CFF06B070BDB3F5004F07D876
:1043D000013B5B08CAB201F10101FAD1931CD6E797
:1043E0004FF6FF72934204D07846F4F721F8102379
:1043F000CEE7FF23CCE7F0B50E8987B007460D4620
:104400002EBBFAF7CFFB8DF80C60038804460BB186
:104410004288F2B900238DF80D308DF80E308DF8FA
:104420000F308DF810308DF811308DF812308DF876
:1044300013308DF81430F6F75BFF092301900093D9
:1044400048F23C0203AB29463846FEF718FF07B096
:10445000F0BDADF80D304388ADF80F304068FFF780
:1044600059FF8DF81200A068FFF76DFFA3898DF842
:1044700013308DF81100E389DBE72DE9F04F0B894C
:10448000132B85B080460D463ED14C68607823885A
:104490002778ADF804304FEA101B002300F00F001E
:1044A000A6788DF80660CDE9023347EA00200123A3
:1044B0008DF8083004F0ECFC4FF6FF7A5045814649
:1044C00033D04BEA061004F0F7FC5045ADF80C0071
:1044D0002DD00DF1020104F01DFD10B17846F3F767
:1044E000A7FFBDF802304B4511D011248DF80470A0
:1044F0008DF80660019B224629464046FFF728F8C2
:1045000014B902A8FEF786FE05B0BDE8F08FE11CE5
:10451000BDF80C0005F082F8052808D0082808D05E
:1045200000280CBF00241024E0E70424DEE7032465
:10453000DCE70B24DAE72DE9F0430A89032A85B08A
:1045400080460D4653D14B689E7819881F785B785A
:10455000ADF80410300140EA13108DF8066003F046
:104560000F048DF8082004F0A7FC4FF6FF794845AA
:10457000ADF80C0024D047EA042004F089FC48453B
:10458000044637D00DF10201BDF80C0004F0C2FC66
:1045900010B17846F3F74CFFBDF80230A34211D1B9
:1045A000BDF80C0003F036F910B17846F3F740FF80
:1045B000BDF80C0005F084F810B17846F3F738FF29
:1045C000002400E011248DF804708DF80660019B32
:1045D000224629464046FEF7BBFF44B9BDF80C20F1
:1045E0004FF6FF739A4202D002A8FEF713FE05B001
:1045F000BDE8F0830424E6E7F0B50B89052B8DB008
:1046000007460D464AD14C681022002108A809F03F
:1046100089FC2388ADF820306388ADF822302379F7
:1046200043B1112B9DBF03F1FF33012202FA03F3C3
:104630004FF0FF3308A80A93FAF74CFA064668BB16
:10464000FAF7B0FA8DF814600388ADF81530044617
:1046500043888068ADF81730FFF775FE8DF81900B4
:104660006068FFF757FEA3898DF81B30E3898DF84A
:104670001C308DF81A00F6F73BFE092301900093D9
:10468000384605AB48F23C022946FEF7F8FD1523F3
:1046900003A88DF80C300494FEF7BCFD0DB0F0BDFE
:1046A0002DE9F347B1F8088028F00203042B0646F1
:1046B0000C4621D14D686B882888B8F1040F9FB251
:1046C0001BBF6A792B79ADF8063043EA02230BBF92
:1046D0004FF001094FF000094FF6FF77ADF80630B3
:1046E000FEF7A0FD4FF6FF7A504508D101234A4658
:1046F00021463046FFF729FC02B0BDE8F087ADF84F
:1047000004700DF10202019902F0E6FF20B9B8F140
:10471000040F03D0574501D10223E8E7BDF802306A
:104720002A8821463046FFF7E0F8E5E72DE9F04713
:10473000B1F8089029F00203042B86B007460D4615
:1047400021D14C6863882088B9F1040F9EB21BBF49
:1047500062792379ADF80E3043EA02230BBF4FF0A4
:1047600001084FF000084FF6FF76ADF80E30FEF767
:1047700059FD4FF6FF7A504508D10123424629469C
:104780003846FEF7EDFF06B0BDE8F087ADF80C60E7
:104790000DF10A02039902F09FFF20B9B9F1040F4D
:1047A00003D0564501D10223E8E7BDF80A00FFF720
:1047B00069F8064608B10346E0E701F0ABFE34F8BD
:1047C000022BCDF8048020680090334638462946F5
:1047D000FEF79DFE0C23CDE9046604A88DF8103089
:1047E000BDF80A30ADF81430FEF714FDCBE72DE923
:1047F000F047B1F8089029F00203142B88B0064660
:104800000D462ED14C68638A2088B9F1140F1FFA27
:1048100083F81BBF627D237DADF80E3043EA02238F
:104820000BBF012700274FF6FF78ADF80E30FEF7DB
:10483000F9FC4FF6FF7A504501D101230CE0ADF8A9
:104840000C8002AA039902F047FF20B9B9F1140FB6
:104850000AD0D04508D102233A4629463046FEF711
:104860007FFF08B0BDE8F08702238DF81030A01C50
:1048700000230DF11201ADF812300590F8F778FC25
:1048800010B17846F3F7D4FD0DF10A0104A804F045
:10489000B3FA0528D1D008B11023DDE7BDF80A101E
:1048A000BDF8080002F03CFD08B10C23D4E7BDF8C8
:1048B0000A0004F075FA10B17846F3F7B9FD01F07B
:1048C00029FE34F8122B01972068BDF812300090B1
:1048D00029463046FEF71BFE0F238DF81830BDF831
:1048E0000830ADF81C3006A8BDF80A30ADF81E300F
:1048F000FEF790FCB5E72DE9F047B1F8089029F0F4
:104900000203142B88B006460D4620D14C68638AFA
:104910002088B9F1140F1FFA83F81BBF627D237D35
:10492000ADF80E3043EA02230BBF012700274FF6F4
:10493000FF78ADF80E30FEF775FC4FF6FF7A504564
:1049400008D101233A4629463046FEF709FF08B050
:10495000BDE8F087ADF80C8002AA039902F0BCFE16
:1049600020B9B9F1140F03D0D04501D10223E9E7F2
:104970000DF10A01A01C04F0C2F920B104280CBFFB
:1049800005231023DEE7BDF80A10BDF8080002F089
:1049900097FC8046BDF80A00B8F1000F0BD004F078
:1049A000FFF910B17846F3F743FDB8F1060F0CBFDD
:1049B00008231023C6E704A904F0C0F910B1784613
:1049C000F3F736FD01F0A6FD34F8122B01972068AD
:1049D000BDF81230009029463046FEF798FD0E23B0
:1049E0008DF81830BDF80830ADF81C3006A8BDF8B9
:1049F0000A30ADF81E30FEF70DFCA8E72DE9F04FA8
:104A0000B1F80880B8F1080F89B006460D4602D00B
:104A1000B8F1060F21D16C68A3882088B8F1060F81
:104A20001FFA83F91BBFE279A379ADF80E3043EA90
:104A300002230BBF012700274FF6FF79ADF80E3098
:104A4000FEF7F0FB4FF6FF7A5045834608D101236D
:104A50003A4629463046FEF783FE09B0BDE8F08F9E
:104A60006088F6F753FA0328F1D1ADF80C9002AA4A
:104A70000399584602F030FE20B9B8F1060F03D072
:104A8000D14501D10223E3E703238DF81030638879
:104A9000ADF812300DF10A01002304A8059304F0CB
:104AA000ABF978BBBDF80A10BDF8080002F038FC7D
:104AB000062801D10823CBE708B11023C8E7BDF8C9
:104AC0000A0004F06DF910B17846F3F7B1FC01F07B
:104AD00021FD638834F8042B019720680090294653
:104AE0003046FEF714FD0B238DF81830BDF8083062
:104AF000ADF81C3006A8BDF80A30ADF81E30FEF740
:104B000089FBAAE70528D8D1E3E72DE9F04FB1F8F2
:104B10000880B8F1080F87B006460D4602D0B8F1FC
:104B2000060F21D16C68A3882088B8F1060F1FFA00
:104B300083FA1BBFE279A379ADF80E3043EA022372
:104B40000BBF012700274FF6FF7AADF80E30FEF7B6
:104B500069FB4FF6FF794845834608D101233A4661
:104B600029463046FEF7FCFD07B0BDE8F08F6088AF
:104B7000F6F7CCF90328F1D163884B45EED0ADF8B8
:104B80000CA002AA0399584602F0A6FD20B9B8F17C
:104B9000060F03D0CA4501D10223E0E70DF10A0157
:104BA000608804F0A9F840B1042804D010280CBF94
:104BB00001231023D3E70523D1E7BDF80A10BDF880
:104BC000080002F07DFB804668B1BDF80A0004F0E1
:104BD000E7F810B17846F3F72BFCB8F1060F0CBFDD
:104BE00008231023BBE701F095FC638834F8042BFD
:104BF00001972068009029463046FEF788FC0A237A
:104C00008DF81030BDF80830ADF8143004A8BDF8A8
:104C10000A30ADF81630FEF7FDFAA5E72DE9F047AA
:104C2000B1F8089029F00203142B88B006460D460F
:104C300020D14C68638A2088B9F1140F1FFA83F8D9
:104C40001BBF627D237DADF80E3043EA02230BBF0C
:104C5000012700274FF6FF78ADF80E30FEF7E2FA95
:104C60004FF6FF7A504508D101233A46294630468F
:104C7000FEF776FD08B0BDE8F087ADF80C8002AA1B
:104C8000039902F029FD20B9B9F1140F03D0D045E2
:104C900001D10223E9E7BDF80800FEF7F3FD034662
:104CA0000028E2D10DF10A01A01C04F028F858B147
:104CB00004280CBF052310233A4629463046FEF748
:104CC0004FFD01F027FCD5E7BDF80A10BDF808003C
:104CD00002F0F6FA8046BDF80A00B8F1000F0CD0D9
:104CE00004F05EF810B17846F3F7A2FBB8F1060FB6
:104CF00001D10823E0E71023DEE704A904F01EF841
:104D000010B17846F3F794FB34F8122B0197206822
:104D1000BDF81230009029463046FEF7F8FB10230C
:104D20008DF81830BDF80830ADF81C3006A8BDF875
:104D30000A30ADF81E30FEF76DFAC2E72DE9F04FEC
:104D40000F8927F00203042B8FB082460D4640F0F6
:104D5000AD804E6874883088042F16BFA0464FF689
:104D6000FF78B488FEF75EFA2A8848F24B039A422D
:104D70004FF6FF7340F0AB80984200F0828048F21B
:104D80004C09ADF81080ADF8124003AA049902F066
:104D9000A3FC28B9042F1FD04FF6FF7398451BD1F1
:104DA00029883388ADF8253048F24B0291424FF004
:104DB00002020CBFADF82740ADF829408DF8242041
:104DC0000EBF0524ADF827800724F6F791FA01906D
:104DD000009409AB4A4665E00EAA082322F82A3D52
:104DE00005A9BDF80C0002F057FB10B17846F3F7A7
:104DF0001FFB4FF0000BBDF80E701FFA8BF39F42A4
:104E000021D829883388ADF8253048F24B029142E9
:104E10004FF000028DF8242027D13A460DF12901E8
:104E200005A8ADF8274000F0EDFB0524F6F760FA81
:104E30007B0803EB430307F0010703EB47073C4400
:104E40000190E4B2C4E71FFA8BF149000EAB0B44AA
:104E500005AA114433F8240C04F042F810B1784646
:104E6000F3F7E6FA0BF1010BC5E73A460DF12B011A
:104E700005A8ADF82940ADF82780072400F0C2FB53
:104E8000D4E73388ADF825300122ADF827408DF8FE
:104E9000242048F24C060524F6F72AFACDE9004012
:104EA00009AB324629465046FEF7E9F90FB0BDE896
:104EB000F08F3388ADF825300122ADF829408DF808
:104EC0002420ADF8278048F24E060724E4E79842F4
:104ED000EFD048F24E0954E72DE9F04FB1F80880C1
:104EE000B8F1080F87B006460D4602D0B8F1060F9C
:104EF00021D16C68A3882088B8F1060F1FFA83F9C6
:104F00001BBFE279A379ADF80E3043EA02230BBF51
:104F1000012700274FF6FF79ADF80E30FEF782F932
:104F20004FF6FF7A5045834608D101233A46294679
:104F30003046FEF715FC07B0BDE8F08F6088F5F746
:104F4000E5FF0328F1D1ADF80C9002AA0399584669
:104F500002F0C2FB20B9B8F1060F03D0D14501D150
:104F60000223E3E7BDF80800FEF78CFC03460028A7
:104F7000DCD10DF10A01608803F0BEFE40B10428C7
:104F800004D010280CBF01231023CFE70523CDE761
:104F9000BDF80A10BDF8080002F092F9804668B129
:104FA000BDF80A0003F0FCFE10B17846F3F740FAB2
:104FB000B8F1060F0CBF08231023B7E701F0AAFAD7
:104FC000638834F8042B0197206800902946304606
:104FD000FEF79DFA0D238DF81030BDF80830ADF8BE
:104FE000143004A8BDF80A30ADF81630FEF712F9F7
:104FF000A1E72DE9F0470B89062B8CB007460E463A
:105000001DD14D682888FEF70DF9B6F80890B9F162
:10501000040F0CBF0124002414D1AB78EA7843EAD2
:105020000223ADF80E304FF6FF784FF6FF7A504569
:1050300011D10123224631463846FEF791FB0CB0D0
:10504000BDE8F0872B796A79B5F8028043EA02233C
:10505000ADF80E30E9E7ADF80C8002AA039902F032
:105060003BFB20B9B9F1040F03D0D04501D1022395
:10507000E0E70CAA062322F8263D04A9BDF80800A3
:10508000FFF7D0F803460028D4D18DF81C002B88F8
:10509000BDF80A40ADF81D30AB88ADF82130640092
:1050A000A4B26B88ADF81F30224604A90DF123008D
:1050B00008F02DFFF6F71CF90734A4B20190009414
:1050C00007AB48F22C0231463846FEF7D8F8B6E76F
:1050D0002DE9F04F0C89082C8FB080460D4601D089
:1050E000062C27D16E68B788062C4FF000031CBF32
:1050F000B946F7888DF82C303388ADF82D30738899
:10510000ADF82F3008BF4FF6FF797368CDF8313016
:10511000062C12D18FB90D238DF82C30F6F7E8F854
:105120000723019000930BAB48F23E02294640460C
:10513000FEF7A5F80FB0BDE8F08F3088FEF772F8E3
:105140004FF6FF73984282460BD10123062C14BF01
:10515000092407248DF82C30F6F7CAF8CDE9004071
:10516000E1E7ADF82090ADF8227007AA089902F0A7
:10517000B3FA4D4B1B689B0483461DD54B4B1B68F4
:10518000032B19DD2F214A4808F09CFFF8B12F218D
:10519000474808F097FF411CBDF81C20454BD3F849
:1051A0000435CDE90392444A0092CDE901A740F6C7
:1051B00089120420F8F7FEF8BBF1000F05D1062C88
:1051C0000ED04FF6FF7399450AD10223BEE75C214A
:1051D000374808F077FF08B15C21D9E73449DBE7AD
:1051E0007088C0F30B0003F067FE2A8848F23D0385
:1051F0009A420646BDF81C0010D1162331468DF8A0
:105200002430ADF82800ADF82A6002F0F5F8052842
:1052100043D0072845D018B310233FE01723314669
:105220008DF82430ADF82800ADF82A6002F00CF9B2
:105230000028ECD10DF11E01BDF81C0002F078F938
:1052400010B17846F3F7F4F8BDF81E30B34207D139
:10525000BDF81C0002F0B2FA10B17846F3F7E8F896
:1052600000238DF82C3001F055F9062C14BF0924C9
:105270000724F6F73DF80BABCDE9004048F23E02BB
:1052800029464046FDF7FBFF9DF82C30002B7FF4AC
:1052900051AF09A8FDF7BEFF4CE702238DF82C3073
:1052A000E3E70323FAE700BF282E0020242E002086
:1052B00040ED030000100140A2ED03002DE9F04F86
:1052C0000A880B89032A89B007460D4627D10D2B82
:1052D00001D00B2B56D16A680B2BB2F8093014BFE2
:1052E000117BADF80E301FFA83FA18BFD37A14463B
:1052F0001CBF43EA0123ADF80E3034F8049BB2F82A
:1053000002800ABF012600264FF6FF7A4846FDF7C5
:1053100089FF4FF6FF7B584524D101232DE048F249
:105320001A018A4203D123F00202192A2AD16C6899
:10533000192BB4F8173014BFA27EADF80E301FFA47
:1053400083FA18BF637E34F8129B15BF43EA022329
:10535000012600264FF6FF7A18BFADF80E304FF049
:105360000008D3E7ADF80CA002AA039902F0B4F943
:1053700010B956B9DA4508D10223324629463846D3
:10538000FEF7E3FD09B0BDE8F08F6378207803F005
:105390000F0340EA032003F08FFD4FF6FF7398429E
:1053A000824601D10323E8E74046ADF80A30F5F71D
:1053B000ADFD2B88032B32D10228AED000F0FD00CA
:1053C000012840F0E1800DF10A01BDF8080001F06C
:1053D00027FE58B10DF10A01404603F043FC0028B6
:1053E0003CD004280CBF05231023C6E704A9BDF850
:1053F0000A0003F0A3FC0028ECD19DF81030022B2A
:1054000003D0BDF81230434528D0BDF80A0003F0A0
:105410004DFC0028DED07846F3F70AF8DAE76B682F
:10542000BDF808000DF10A0103F1020B01F0F8FDCF
:1054300028B10DF10A01584603F034FCCFE704A966
:10544000BDF80A0003F07AFC0028F2D19DF8103074
:10545000022B25D09DF81030022B28D1B8F1000F77
:105460002FD0227994F80380BDF80800C2F302011E
:105470004FF0000B61F3020BD20862F3C70B00225E
:105480004FEA98131146019301F0B6FE08F03F0869
:10549000019B28B306281ED07846F2F7C9FF71E7B2
:1054A00010225946059808F023FD0028D2D0BDF8F7
:1054B0000A0003F0FBFB0028BBD07846F2F7B8FFE8
:1054C000B7E72A8848F21A039A42CAD0BDF8080002
:1054D00002F074F93DE0B8F1000F0ED007234CE75D
:1054E000B8F1000F09D042461946BDF8080001F096
:1054F00083FE10B17846F2F79BFF5946BDF80800CD
:1055000001F0A2FD10B17846F2F792FFBDF80A1043
:10551000BDF8080001F066FD10B17846F2F788FF8B
:105520005146BDF8080001F0E5FF10B17846F2F7EA
:105530007FFF6178BDF80800C1F3001102F01EF88A
:1055400010B17846F2F774FFA178BDF8080002F0B8
:1055500045F810B17846F2F76BFF00F0DBFFBDF8BD
:10556000083038464A462946FEF7BFF90023CDE900
:10557000063302238DF8183006A8BDF80830ADF8C0
:105580001C30FDF747FEFDE6B8F1000F7FF469AF70
:105590009CE7000030B587B01622002105460DF1CA
:1055A000020008F0BFFC0E4B02934FF6FF742E234F
:1055B0000C480393ADF80040F5F78EFE0A48F9F762
:1055C00005FB0A4B1B88A34202D07846F2F730FF56
:1055D000074B06491D60684601F0F2FB07B030BD7D
:1055E000E8ED0300442E00204F320300422E00203D
:1055F000184A0020024B0146188801F0FDBE00BF8A
:10560000422E002030B50024A24200D830BD30F830
:1056100014300B70651CC3F30323AA424B7007D9E7
:1056200000EB44056D8843EA05132D094B708D701E
:1056300002340331E8E7000082B0064B0190C0F36A
:105640000F40A0F50C7080B253F820309B780B709F
:1056500002B07047444A0020C0F30F40A0F50C7020
:1056600080B2044B53F8203082B000229A7002B00E
:10567000704700BF444A002070B5144D2C680026C6
:1056800034B92B6803BB1248BDE87040F6F740B848
:1056900094F8503013B1013B84F8503094F85030F6
:1056A00043B92B689C4208D1636D2B60E36C0021E9
:1056B000204698472646646DE2E716B97846F2F729
:1056C000B7FE636D7365F1E770BD00BF404A00200F
:1056D000244A002030B587B090F850308DF804305F
:1056E0000C4B029301AB03930123ADF81030002360
:1056F0008DF81230022304460D468DF81330F5F76D
:10570000F7FD02AA05902946208801F05DFC07B04C
:1057100030BD00BF0780FFFF0B8913B91046FFF7AC
:10572000D9BF704730B587B083788DF804300C4B03
:10573000029301AB03930123ADF8103000238DF8E1
:105740001230022304460D468DF81330F5F7D0FDD4
:1057500002AA05902946208801F036FC07B030BD2A
:105760003780FFFF0B8913B91046FFF7DBBF704787
:1057700038B504460D46F6F7C3FC94F8503084F86B
:1057800050505BBB55B3E36C012120469847F6F7B8
:10579000B7FCE36C13B97846F2F74AFE94F8503040
:1057A00013B97846F2F744FE0E4B196861651C6028
:1057B00091B90D4C1822204608F0B4FBF5F7E8FF2C
:1057C00000F5742000F51070084B6060E36020461F
:1057D000074BA360F5F77AFFF6F7D2FCBDE8384037
:1057E000F6F7CEBC404A0020244A002040420F0079
:1057F0007956030038B50B89012B0C46154611D19B
:10580000D36C23B14B6810461978FFF7B1FF22889B
:1058100048F205039A4205D121462846BDE83840A2
:10582000FFF758BF38BD000037B50B89012B0D4677
:10583000144626D149680A780E2A0BD92A8848F2DC
:1058400035039A421DD12946204603B0BDE83040B9
:10585000FFF768BF0D4A1068A04214D05068A042FC
:1058600003D09368A3420CD10223032203F50C73E7
:10587000ADF80420ADF806300198F9F7FBFD0028DB
:10588000DCD003B030BD0023EFE700BF444A002066
:105890004B0901F01F024FF0FF31914050F82320D7
:1058A000114049B14A420A4008495143C90E084AC9
:1058B000505C00EB431070470133072B02D850F8BF
:1058C0002310EEE74FF48070704700BF31B57C07BE
:1058D000B4EF03002DE9F043C7B0042905AE437AC5
:1058E00033700CBF00F12C0900F10C094389A6F8B4
:1058F000013005468846484600211746FFF7C8FF95
:105900000024B0F5807F23461BD14FF6FF73ADF81E
:10591000063000238DF80E3003340223ADF80480E6
:105920000296ADF80C408DF80F30F5F7E1FC0490CD
:1059300028888FB101AA394601F046FB47B0BDE87F
:10594000F0833344411C0134FF29E4B2D870DCD821
:105950004846FFF79DFFD4E701A901F009FBEDE7F9
:10596000084600220421FFF7B5BFF8B50B89032BC9
:105970000D46144610D11388834202D07846F2F7C0
:1059800057FD6E686389B6F801108B4204D1207A06
:105990000023DAB2904200D8F8BD626812F833C032
:1059A00002EBC3073278624503F10103F1D17B6852
:1059B00020469847337863722A8848F232039A4225
:1059C000EAD12A4620460521BDE8F840FFF782BF0C
:1059D00038B50B89022B0D46144611D1138883422A
:1059E00002D07846F2F724FD6B681A8863899A42E0
:1059F00006D12A4620460521BDE83840FFF76ABF98
:105A000038BD38B50B89022B0D4614461CD11388BE
:105A1000834202D07846F2F70BFD6B681A886389DF
:105A20009A4211D12022002104F10C0008F07AFAE8
:105A30002A8848F22F039A4206D12A462046052199
:105A4000BDE83840FFF746BF38BD38B500F12C053A
:105A500000212846FFF71CFF0024B0F5807F01D10C
:105A6000E0B238BD411CFF2904F10104F8D82846F2
:105A7000FFF70EFFF1E7000037B50190C0F30F40CC
:105A8000A0F50C700C4B0D7880B253F82040A37831
:105A9000AB420DD0A5702046FFF7D7FF40B10121E2
:105AA000A940208889B203B0BDE8304001F088BB2E
:105AB000002003B030BD00BF444A002070B586B05E
:105AC000C3640A9B436000259DF82C300372044692
:105AD00042810E46457280F85050857045652022FF
:105AE00029460C3008F01EFA2946202204F12C0029
:105AF00008F018FA0B4B00930B4B02930B23CDE9E4
:105B000003342146094BADF804606846059301F063
:105B100057F928B9064B208843F8264001F0A2FB2C
:105B200006B070BDFFFF02005CEF03006159030087
:105B3000444A002038B5837803F003020446032A60
:105B400022D8DFE802F00214191D9B08154A1648F6
:105B5000126813440268A3600021EAB195685D1BD6
:105B6000002D16DAD1B91146E160046038BD9B08FA
:105B700003EB83035B00E9E79B0864225343E5E7FB
:105B80009B0841F27072F9E77846F2F751FC002366
:105B9000DCE71146D268E0E70029E5D0CC60E2609E
:105BA000E4E700BF684A0020704A002008B50328D7
:105BB00009D8DFE800F00D020406064808BD0648D3
:105BC000FCE70648FAE77846F2F732FC0020F5E7F2
:105BD0000348F3E740420F00809698000046C32335
:105BE000A08601002DE9F041574D2B78A3B1574B0A
:105BF000574E5C68F5F7CCFD241A3078FFF7D6FFD6
:105C00003278544B001B002A40D14CF25032904263
:105C10003CD91A6801321A60DFF84881D8F80020B0
:105C2000002A00F087804A4E9378307803F003030F
:105C30008342344664DD474B97681B68FB1A464F26
:105C40005F43FFF7B3FFD8F80030B7FBF0F09F7861
:105C5000C7F30107FBB2022B1FD031D8012B47D16C
:105C60000A22B0FBF2F302FB1300002840D1F5F743
:105C70008FFD00F5742101F5107137702B78002B22
:105C800050D03248BDE8F041F5F759BD1A683249A5
:105C9000B0FBF1F010441860BEE7337863B96422BA
:105CA000B0FBF2F302FB130010BBF5F771FD2B49BB
:105CB000022301442370E1E7012B19D10A22EFE707
:105CC000337863B941F27072B0FBF2F302FB130058
:105CD00070B9F5F75DFD224903230144EAE7012B82
:105CE00002D14FF41672EFE7022B01D13C22EBE711
:105CF000F5F74EFD06462078FFF758FF3118BDE74F
:105D0000F5F746FDD8F800300446987800F0030017
:105D1000FFF74CFFD8F800309B78C3F3010321183C
:105D20003370ABE70948012341602B70BDE8F041B7
:105D3000F5F7CCBC2B7823B10448BDE8F041F5F76A
:105D4000E7BCBDE8F08100BF6C4A0020504A00204B
:105D50006D4A0020684A0020A086010080969800C5
:105D60000046C323704A00202DE9F341244B1B78E1
:105D7000032B2AD8DFE803F0021B1F23214A1368F4
:105D800001331360204B214E1E4D00221A70B04685
:105D900034683CB1A3682A6893421AD02A689B1AD7
:105DA000002B16DBFFF71EFF02B0BDE8F081154A9D
:105DB00013680A33E5E7134A13686433E1E7114ACD
:105DC000136803F5BB531033DBE77846F2F730FB7B
:105DD000D8E72788E368C8F8003002A9002341F813
:105DE000043D384601F0D6FC10B17846F2F720FBAE
:105DF00038466368019998472046FFF79BFEC7E73E
:105E00006D4A0020684A00206C4A0020704A002039
:105E100010B5084C18220021204608F083F8064BE4
:105E2000064AA36000231360054A1360054A1370F5
:105E300010BD00BF504A0020695D0300684A002081
:105E4000704A00206C4A0020F8B50F4616460446FA
:105E500010B97846F2F7ECFA124DF6F751F92B68C3
:105E600000220BB1A34216D1A17867F3010166F3BA
:105E70008701A1709BB1DB6882B92B602EB12046EF
:105E8000FFF758FE2B689C4201D1FFF7ABFEBDE83F
:105E9000F840F6F775B91A46DB68E2E7D360002EE2
:105EA000F5D0ECE7704A00204FF6FF700D49F0B5D1
:105EB00000232424064604FB03129DB292F8397095
:105EC00057B1B0420CD004FB0017126B3F6BD21BD2
:105ED00030EA220028BF28460133042BEBD1F0BD65
:105EE0002846F9E7744A002038B5154C242303FBF3
:105EF0000043054693F8393013B97846F2F798FA1B
:105F0000B4F8A83013B97846F2F792FA242202FBCB
:105F10000543002183F83910B4F8A830013B9BB247
:105F2000A4F8A8301BB94FF6FF73A4F8AA3002FBFF
:105F30000544A06AFAF7B1F80023A36238BD00BF98
:105F4000744A00202DE9F84F2D4DB5F8A8300646CB
:105F500013B97846F2F76CFA2A4C06F57A7B0027DB
:105F60004FF0010948F2111A637C1FFA87F8C3B198
:105F7000A368A3EB0B03002B13DAA3882268A4F118
:105F80001001404600F0FAFE102828D809FA00F364
:105F900013EA0A0F26D11C4A13421FD04046FFF7CE
:105FA000A3FF0137042F04F12404DDD1FFF77CFFA8
:105FB000B5F8A830A5F8AA00FBB1032802D97846A5
:105FC000F2F736FAB5F8AA30242202FB03531B6B12
:105FD0009A1B48BFF21AEA60BDE8F88F10B1784604
:105FE000F2F726FA237C013BDBB22374002BD5D0D9
:105FF000D4E902321344A360D3E7EB60ECE700BFBF
:10600000744A00209C4A0020A002010010B5064CF2
:10601000AC220021204607F085FF044BA3604FF619
:10602000FF73A4F8AA3010BD744A0020455F030036
:106030002DE9F04703280646884617469A46BDF8DC
:10604000209002D97846F2F7F3F9B8F1000F02D1A7
:106050007846F2F7EDF917B97846F2F7E9F998F8CA
:1060600000305B0702D17846F2F7E2F9BAF1000F8F
:1060700002D17846F2F7DCF9B9F1000F02D1784687
:10608000F2F7D6F9274C242303FB064393F8393063
:1060900013B13046FFF728FFF5F77AFB844697E8FF
:1060A0000F00242505FB064505F1180E8EE80F00AC
:1060B000C5F828A0A5F82C9098F80030C3F3020387
:1060C00085F8383098F80000C3084CF2503003FBD4
:1060D0000000012385F83930B4F8A83068636044C3
:1060E00001332863A4F8A830FFF7DEFEB4F8AA3025
:1060F000834201D19E4213D14FF6FF739842A4F818
:10610000AA0002D17846F2F793F9B4F8AA3005480C
:10611000242202FB0344216BBDE8F047F5F70FBBD7
:10612000BDE8F087744A00204A09012301F01F01ED
:1061300003FA01F150F82230194214BF0120002067
:1061400070474FF6FF72B2EB104F82B083B215D199
:1061500013F47F4007D003F44043B3F5004F14BF5E
:106160000020012006E023F07F022AB97F3B18BF00
:106170000123184602B070470346FAE723F03F03B5
:10618000C02BECE703289FBF054B382202FB0030F1
:1061900090F8340094BF00F001000020704700BF69
:1061A000684B0020004700004388C3F30B03032B18
:1061B00002D9002008707047064A12F8331041F0E7
:1061C000010102F8331002EBC3034268D2435A6064
:1061D00001207047484C00204388C3F30B03022B77
:1061E0009FBF06225343044A818893BFD1520020A7
:1061F00008700120704700BF224B002007B51346EE
:106200004FF47042ADF804200122ADF806001A7078
:1062100003480A4601A9F7F70DFC03B05DF804FB3B
:10622000404B002070B51C460B89B3F5BE7F054678
:10623000164606D3092323602068B0FA80F040098F
:1062400070BDFFF79FFF30B10C48382303FB0500FA
:106250008389022B01D90523EDE73EB982884FF6E9
:10626000FF739A4206D0C2889A4203D00868FFF7AB
:1062700068FF08B90723DEE70023DCE7684B00204E
:106280007846F2F7D5B8000008B5094B0948002256
:106290001A70094B01221A70F7F7BAFB20B10748B0
:1062A000BDE80840F7F7F0BD054B187008BD00BF0A
:1062B000654B0020404B0020644B0020602E0020E6
:1062C000204B002010B5E02200210E4807F02AFEE6
:1062D000122200210C4807F025FE202200210B4845
:1062E00007F020FE074B4FF6FF7203F1E001042494
:1062F0000120DA809A80DC819A81988438338B423D
:10630000F7D110BD684B0020224B0020484C0020E4
:106310002DE9F04FD5B0044607A80D4604929946E2
:10632000BDF8788102F08EFC704BBDF81E10049A07
:10633000382000FB04308789B94205D84FF0100A95
:10634000504655B0BDE8F08FBDF81C10049108AE62
:10635000002A00F0968002F10C0103C9B2F81EB0C9
:10636000B2F824A0127F86E80300002A00F099808A
:10637000382202FB0434647CFF2C01D15C4B1C7876
:10638000B9F1000F02D17846F2F752F8B8F1000FD8
:1063900002D17846F2F74CF80AAB184624220021C5
:1063A000059307F0BFFD504610AA594603F034FA92
:1063B000059B82460028C3D1049A9C7296E803008C
:1063C0001744AA7ADA72EA7A1A7383E80300EA6851
:1063D0001F8151461846C3F81090A3F814801A6222
:1063E000F4F778FF82460028AAD1424C2268920432
:1063F0001AD5414B1B68042B16DD2F213F4807F0AF
:1064000061FE00284FD02F213C4807F05BFE411C65
:106410003B4B2A88D3F8043501923A4A0092052072
:106420004FF4CE72F6F7C6FF23689B0488D5324B33
:106430001B68042B84DD2989334B8029186828BF09
:106440008021002313AC8B4236D100222F212B4810
:1064500004F8132007F036FE00283BD02F212748F0
:1064600007F030FE411C264B284AD3F80435019230
:10647000274A0092029440F29D120520F6F79AFFF7
:106480005EE7B0F804B0C0880593314602F056FCD0
:1064900048BB7288002A3FF451AF4FF6FF7A059B44
:1064A00066E714466CE75C21144807F00BFE08B160
:1064B0005C21A9E71149ABE76A68D25C160902F0D2
:1064C0000F02865D04F81360865C04EB430201331F
:1064D0005670B8E75C21094807F0F4FD08B15C216B
:1064E000BDE70649BFE74FF0050A29E7684B0020E2
:1064F000802E0020282E0020242E002086F003006D
:1065000000100140A2F003002C2E0020B6F0030082
:10651000B2E503002DE9F0474F4B1B78002B00F04C
:106520009980F5F7EDFD4D4B1B78C3B94C4C2378A2
:1065300073B9062201214B48F7F729FB78B10322F2
:10654000C280042202818280F7F750FB012323706E
:106550000025454EDFF80C812C46A9B234B14348E2
:10656000F7F792FCBDE8F047F5F70ABE16F83530AC
:1065700003F00303032B4FEAC50711D1042241F4B2
:1065800040514046F7F703FB00285DD0F3195B68E4
:10659000DB434360F7F72AFBBB5D23F00203BB55E7
:1065A0000135042DD9D1324FDFF8B89000254FF0D6
:1065B0000608A9B2002CD2D108FB05FA07EB0A069F
:1065C00073799B0710D5022241F480514846F7F7B2
:1065D000DEFA00283AD03AF807208280F7F706FB67
:1065E000737923F0020373710135032DE1D1DFF8D4
:1065F0008480DFF8709000253827A9B2002CAED136
:1066000007FB058696F8343003F00303032B15D1FE
:10661000142241F400514846F7F7B9FA8246B8B15E
:1066200014223146043007F072FC5046F7F7DEFAC8
:1066300096F8343023F0020386F834300135042D07
:10664000DBD1002C8ED08AE71124A9E71124CBE7F7
:106650001124F3E7BDE8F087204B0020644B0020B5
:10666000654B0020404B0020484C0020702E00203D
:10667000224B0020684B002030B5012A8DB0044623
:106680000D4604D17846F1F7D3FE0DB030BD022A95
:10669000F8D0032AF9D12C22002101A807F042FCEE
:1066A00011238DF8043002238DF80830E368059338
:1066B00001A8236903950693F3F794F9E5E7000031
:1066C0004A0901F01F034FF0FF31994050F8223082
:1066D000194009D04B420B4004495943C90E044BA1
:1066E000585C00EB421070470620704731B57C07BC
:1066F00066F003002DE9F04F85B08146924698463A
:106700000E9F0D4611B97846F1F792FE03AB524643
:1067100029464846FFF786FD18B9039805B0BDE83D
:10672000F08F69882B884FF6FF72914230D1B3F514
:10673000807F34BF4FF0010B4FF0020B2E895E4477
:10674000B6B23046F9F7A7FC044680B36A882B88B6
:106750004FF6FF708242D9B21DD06270120A2170CA
:10676000A2702A89696804EB0B0007F0D0FB009641
:106770002346524629464846FFF7CAFD039018B9FA
:10678000B8F1000F00D077B92046F9F786FCC4E7CE
:106790004FF0030BD2E713F47F4F1DBF1B0A23708A
:1067A00061702170DDE7C8F800403E80B6E7042044
:1067B000B4E7000038B54388C3F30B03032B04464A
:1067C00011D8028A022A0ED81B48382202FB030283
:1067D000D589628A032D09D8954204D1174D15F841
:1067E0003250ED0704D40020087038BD032A06D8C3
:1067F000124D15F8321041F0040105F83210382519
:106800001422211D05FB030007F081FBA188238AC8
:106810004FF6FF7291420A4A4FF0060101FB032333
:106820004FF001000BBF9A78DA78013201320CBFC9
:106830009A70DA70D9E700BF684B0020484C0020FE
:10684000224B00202DE9F04F87B006AB062243F81B
:106850000C2D012104AA5A48F7F762F9044628B121
:10686000584B0120187007B0BDE8F08FBDF812300A
:10687000032B09D0544B1B689B047DD402F036F9DE
:10688000FFF702FD00205EE0BDF81430042BF1D1CB
:10689000BDF81030042BEDD14C4B4D4901221A703C
:1068A0004FF440500DF10B02FFF7A8FC9DF80B30A0
:1068B000002BDFD0474B204603F112015A79987024
:1068C00022F00202D87018805A7106338B42F5D13B
:1068D0000DF10B0240494FF48050FFF78FFC9DF8FB
:1068E0000B30002BC6D00DF10B023C494FF4005089
:1068F000FFF784FC9DF80B300BB300B3384EDFF884
:10690000F4A00027B1464FF6FF78BB46B389434554
:1069100010D0F088404505D002F0A8F910B17846B3
:10692000F1F786FDF589042D11D1382303FB079378
:1069300083F812B00137042F06F13806E6D19DF82E
:106940000B00002896D01F4B01221A708BE70AEB30
:10695000C505043500212846FFF7B2FE0628044687
:10696000E3D0A0B202F0CEF910B17846F1F760FDA5
:10697000611C0529EFD9D8E71A4B1B68002B7FF75C
:106980007DAF2F21184807F09DFB78B12F211648C5
:1069900007F098FB411C154B154AD3F804350092BB
:1069A000012040F2E232F6F705FD67E75C210E4870
:1069B00007F088FB08B15C21E9E70B49EBE700BF72
:1069C000404B0020204B0020282E0020654B00204B
:1069D000A9610300224B0020D9610300B5670300C1
:1069E000684B0020242E002086F003000010014098
:1069F000D4EF0300484C00202DE9F04F00F11404BF
:106A00008FB00546204603F05FF98246002879D012
:106A10004FF6FF73ADF832302B7D012B75D10DA8E9
:106A200002F010F9EB8ABDF834209B1A9BB209934F
:106A30005646554C4FF00009002E7CD0A788099B84
:106A4000FA1A5742574194F82C30E98B03F00103AE
:106A500020460A93FFF768FB29880B90A28C688870
:106A60004FF00008904576D34FF00008C346474BDF
:106A70001B689B0425D5464B1B68062B21DD2F2167
:106A8000444807F01FFB002875D02F21414807F02C
:106A900019FB411C0B9A404BD3F80435CDF818B0C4
:106AA000CDE904720A9A039234F8062C029234F863
:106AB000082C0192394A0092072040F25942F6F719
:106AC00079FC0A9BBBB1B7B10B9BA3B1BBF1000F23
:106AD00011D02B7D012B1FFA89F704D1A26A294618
:106AE000384601F049F8236AA26A03EBC803294635
:106AF0005B683846984709F10109B9F1040F04F1C0
:106B0000380499D10FB0BDE8F08FEB8A04339BB203
:106B1000032B0AD90DF13201204602F06DF940B184
:106B20007846F1F785FC002683E7002306460993A3
:106B30007FE706467DE7E08803280AD8184BBDF8B2
:106B4000321003EBC0000430FFF7EEFA00F001074B
:106B500079E73046FAE7236A03EBC80C33F838309C
:106B60008B4203D1BCF80230834202D008F1010805
:106B700078E7D3467BE75C21064807F0A3FA08B123
:106B80005C2183E7034985E7704B0020282E002015
:106B9000242E002086F0030000100140F6EF0300D1
:106BA000484C00202DE9F04303681D7805F0C00231
:106BB000402AD1B004460FD003D86AB1002635462A
:106BC00010E0802A00F09D80C02AF7D19A785E7884
:106BD000ADB246EA022605E0ADB27F2D00F08E8010
:106BE0004FF6FF765A4B1A6812F4005F984619D098
:106BF000584B1B68042B15DD2F21574807F062FA0C
:106C0000002800F082802F21534807F05BFA411CD6
:106C1000524B534AD3F8043500920195F6220520D1
:106C2000F6F7C8FBE06902F055F98146A06902F069
:106C30003DF94FF6FF739E42ADF81450ADF8166063
:106C400027686BD1FF2D8CBF022301234FF6FF7203
:106C50001F4496420697A38862D1FF2D8CBF022263
:106C600001229B1A227A8DF820206289ADF8222019
:106C7000E2680992227C8DF82820628AADF82A20E9
:106C800062690B9294F820208DF83020626A0D9290
:106C9000D8F80020ADF832909BB29204ADF81C30C9
:106CA000ADF8380027D52B4A1268042A23DD2D4A77
:106CB000802B106828BF802300220FAC9A4231D16C
:106CC00000232F21244804F8123007F0FBF9002894
:106CD00035D02F21204807F0F5F9411C1F4B224ADF
:106CE000D3F804350192214A0092029440F20D1229
:106CF0000520F6F75FFB05A8FFF77EFE51B0BDE863
:106D0000F0835B7843EA05256AE75C21124807F0C7
:106D1000D9F908B15C2177E70F4979E7032395E7B3
:106D200003229EE7B95C0D0901F00F01455D04F8EF
:106D30001250455C04EB420101324D70BEE75C210C
:106D4000054807F0BFF908B15C21C3E70249C5E770
:106D5000282E0020242E002086F003000010014081
:106D60004BF003002C2E00205EF00300B2E5030080
:106D7000037813B90430FFF715BF7047F0B5064626
:106D800085B014461D4681B17AB173B103AB0022C0
:106D9000FFF748FA10B9039805B0F0BD00952346F7
:106DA00000223046FFF7B4FAF6E70E20F4E708B504
:106DB000FFF788FA00F032FFBDE80840FFF764BA39
:106DC0002DE9F0470446002800F0C280002900F0B9
:106DD000BF80C3681BB18368002B00F0B9804FF6F9
:106DE000FF730B80E3681BB9A368002B40F0B280EF
:106DF000A588022D00F2B0805A4B1B7813B10F20EA
:106E0000BDE8F087584A062000FB05208678C07848
:106E1000C64216461CD0B4F800E0B4F802C0534F86
:106E20004FF0380808FB03F2B8181FFA83F9B0F8DE
:106E30000CA0AA457CD1B0F802A0E24578D1D25B83
:106E4000724575D1A1F8009090F83430DB07D6D4A4
:106E5000D4E902870025AF426FD108884FF6FF734F
:106E60009842424B40D10022382505FB023797F863
:106E70003470FF0768D490B24FF6FF77B8420880AD
:106E80006ED0382505FB0030C7800A8805FB02322A
:106E900097800A88A08805FB023290810A88608862
:106EA00005FB023250800A8820886A4398520A887B
:106EB00005FB02356F742088A288B8424FF00600A7
:106EC00000FB02620BBF9078D078013001300CBF1C
:106ED0009070D0700A88382000FB023292F834009B
:106EE00040F0020082F834000A882569382000FB4F
:106EF000023215630A88A56800FB023295620A888F
:106F0000E56800FB023295850A88646900FB02325D
:106F100094610A8800FB0234A2820A8800FB0233D3
:106F2000002093F8342042F0010283F8342067E710
:106F30000133042B7FF476AF8AE758F83500FFF76A
:106F400000F958B1013586E70132042A8DD193E763
:106F50000E2055E7092053E7052051E707204FE7AA
:106F600004204DE7204B0020224B0020684B0020DE
:106F70007FB505460E4619B30DF10A0300220093B2
:106F800003ABADF80A20FFF7B5FB044688B90D48FE
:106F9000039B38226A438118C97C49070CD002F14F
:106FA0001301BDF80A200092014432462846FFF73B
:106FB0003FF8204604B070BD1846F9F76EF8F8E7C0
:106FC0000E24F6E7684B002013B514460A4639B183
:106FD00034B1002300932146FFF78CFB02B010BDB3
:106FE0000E20FBE710B50446FFF7CCF888B1052961
:106FF00011D80A48382303FB0400C3888B4206D00B
:1070000090F83430C18043F0020380F8343000201F
:1070100000E0052010BD0720FCE700BF684B002002
:1070200010B5044651B1FFF7ADF848B1054B382211
:1070300002FB04340020E3880B8010BD0E20FCE727
:107040000520FAE7684B0020032870B51DD8104AC8
:10705000382404FB002494F83430DD0715D5E47C93
:1070600001F0070504F00706AE4204D1C1F3C405E0
:10707000B5EBD40F07D0382404FB002043F0020303
:10708000C17480F83430002000E0052070BD00BFDE
:10709000684B002069B103280DD8084B382202FB49
:1070A000003090F83430DB0705D5C37C0B7000202E
:1070B00070470E2070470520704700BF684B0020C6
:1070C00038B50446154699B192B1FFF75BF888B11F
:1070D0000A48382303FB040083696BB1837CC3F344
:1070E00001030B70837CC3F385032B70002038BD34
:1070F0000E20FCE70520FAE70620F8E7684B0020A1
:107100002DE9F3410DF107020DF106010546FFF7E8
:10711000D7FF10B17846F1F78BF9284E9DF807702C
:107120009DF80610382303FB05633C46B3F8248022
:10713000032923D8DFE801F005021A1E07EB8704B4
:107140006400B4FBF8F3092B1CD8002F33D0012BBB
:1071500038BF0123DFB20021382000FB05603A462A
:107160001430FEF771FE02B0BDE8F081642417FB15
:1071700004F4E6E741F270747C43E2E77846F1F705
:1071800057F9DEE7632B05D80A220121B3FBF2F39E
:10719000DFB2E1E741F26F72934295BF642241F2A0
:1071A0007072B3FBF2F3B3FBF2F399BFDFB20221CB
:1071B000DFB20321D0E73946CEE700BF684B00209D
:1071C000032810B50FD80B4A382404FB002393F88A
:1071D0003420D20707D59A693AB141B19984FFF7B3
:1071E0008FFF002010BD0520FCE70620FAE70720EE
:1071F000F8E700BF684B0020032838B52AD8184CA0
:10720000382303FB004393F8345015F0010F254653
:1072100020D09C6904B33F2A20D803291ED89B7C28
:10722000B2EB930F03D103F003038B4210D0382449
:1072300004FB0054A37C62F3870361F30103A3748E
:10724000FFF75EFF94F8343043F0020384F83430E3
:10725000002000E0052038BD0620FCE70720FAE703
:10726000684B002038B5134B19780446F1B9FEF786
:1072700089FFE8B1104A382303FB04230846DB8961
:10728000042B0ED10D4911F8303013F0010509D14E
:1072900043F0030301F83030382303FB0422D0818C
:1072A000284638BD01300428EDD1FAE70F20F8E771
:1072B0000520F6E7204B0020684B0020484C0020BA
:1072C000F8B504460F46FEF75DFFE0B1124B3822D9
:1072D00002FB0434E689042E17D0052917D80F4C79
:1072E000F50004356019FEF71FFF90B9012303FA7A
:1072F00007F163590B43635114F8363043F002032E
:1073000004F83630F8BD0520FCE70620FAE7072030
:10731000F8E70020F6E700BF684B0020484C00204B
:10732000F8B504460F46FEF72DFFF0B1124B382298
:1073300002FB0434E689042E19D0052919D80F4C14
:10734000F50004356019FEF7EFFE68B1012303FA7A
:1073500007F1635923EA0103635114F8363043F00F
:10736000020304F836300020F8BD0520FCE70620B3
:10737000FAE70720F8E700BF684B0020484C0020E0
:107380002DE9F843064615460F4641B33AB3FEF7DA
:10739000F9FE30B3164B382202FB0636F389042B74
:1073A00021D00024DFF84C90B5F800802C80F089C3
:1073B00003280ED809EBC00021460430FEF7B4FEC6
:1073C00038B12B88984510D927F813402B88013302
:1073D0002B800134062CEAD10020BDE8F8830E2072
:1073E000FBE70520F9E70620F7E70920F5E700BFEE
:1073F000684B0020484C0020F8B506460F46FEF7C3
:10740000C1FEC0B1082918D838250E4C754305F1C6
:107410000806A019FEF788FE88B9012303FA07F1D0
:10742000A3590B43A3512C4494F8343043F0020386
:1074300084F83430F8BD0520FCE70720FAE7002087
:10744000F8E700BF684B0020F8B506460F46FEF788
:1074500099FED0B108291AD838250E4C754305F18C
:107460000806A019FEF760FE70B1012303FA07F1C8
:10747000A35923EA0103A3512C44002094F834308B
:1074800043F0020384F83430F8BD0520FCE7072000
:10749000FAE700BF684B00202DE9F041064615468B
:1074A0000F46F9B1F2B1FEF76DFEE8B1104BB5F839
:1074B00000803822002402FB06362C800836214644
:1074C0003046FEF731FE38B12B8898450ED927F8A3
:1074D00013402B8801332B800134082CEFD100207E
:1074E000BDE8F0810E20FBE70520F9E70920F7E76A
:1074F000684B002010B50446FEF744FE88B1082909
:1075000011D80A48382303FB040083888B4206D035
:1075100090F83430818043F0020380F8343000204A
:1075200000E0052010BD0720FCE700BF684B0020ED
:1075300010B5044651B1FEF725FE48B1054B38227F
:1075400002FB04340020A3880B8010BD0E20FCE752
:107550000520FAE7684B0020030605D4012803D074
:10756000024B18700020704707207047802E0020C3
:10757000014B1878704700BF802E002010B50446DC
:10758000FEF700FE90B10A4A382303FB0423187C5F
:1075900088421EBF93F8340040F0020083F83400A4
:1075A000382303FB04240020217410BD0520FCE7D0
:1075B000684B002010B5044651B1FEF7E3FD48B119
:1075C000054B382202FB04340020237C0B7010BDD5
:1075D0000E20FCE70520FAE7684B002010B50446B2
:1075E000FEF7D0FD98B181F080037E2B11D90A48B7
:1075F000382303FB0400437C8B4206D090F83430E0
:10760000417443F0020380F83430002000E005208C
:1076100010BD0720FCE700BF684B002010B50446F2
:1076200051B1FEF7AFFD48B1054B382202FB0434DF
:107630000020637C0B7010BD0E20FCE70520FAE7EC
:10764000684B002041B1022808D806235843044B58
:107650001B5A0B80002070470E2070470520704792
:10766000224B002049B1022809D8064B062202FB12
:10767000003083780B70002070470E207047052083
:10768000704700BF224B002049B1022809D8064BA1
:10769000062202FB0030C3780B70002070470E20DA
:1076A00070470520704700BF224B002010B50446EC
:1076B00061B1FEF767FD58B1064B382060431A18D8
:1076C00052884A801B5A0B80002010BD0E20FCE718
:1076D0000520FAE7684B00202DE9F34101913AB308
:1076E000022803D9052002B0BDE8F0814FF6FF73F0
:1076F000BDF80660BDF804700E4913804FF0380CD9
:1077000000230CFB03F40D191FFA83FEB5F80C805F
:10771000804509D16D88B54206D1645ABC4203D177
:10772000A2F800E00020DEE70133042BE9D1D9E71D
:107730000E20D8E7684B0020F0B511B30AB3022839
:1077400021D80023124F168813806FF0370C0423C2
:107750001488B44219D20CFB037595F814E11EF09D
:10776000010F0AD0B5F8EC50854206D1C3F10405EB
:1077700021F81450148801341480013BE8D11846D4
:10778000F0BD0E20FCE70520FAE70920F8E700BF6E
:10779000684B002010B5044651B1FEF7F3FC48B128
:1077A000054B382202FB04340020236B0B6010BD14
:1077B0000E20FCE70520FAE7684B002070B506466E
:1077C000FEF7E0FC08B33825114C7543002205F1A3
:1077D000140011462044FEF737FB30466619103579
:1077E00000F04AFA2C44F08801F060FA00204FF0D3
:1077F000FF3373606070A070E07096F83430B0753D
:1078000043F0020386F8343070BD0520FCE700BF6A
:10781000684B0020082873B5054614D80024A6B28A
:107820000DF106013046FFF783FE30B9BDF8063092
:10783000AB4202D13046FFF7C1FF0134042CEED138
:10784000002002B070BD0720FBE708B501F0FAF890
:10785000A0F5805008BD000010B586B00D4B039315
:107860000D4B04930D4B059304230293FFF7EDFF9B
:107870000B4C0090012369460A4801932370F6F7E8
:10788000F3F920B10848F6F7FFFA06B010BD2070F2
:10789000FBE700BF7966030081620300E178030023
:1078A000644B0020404B0020502E002008B5FEF70E
:1078B00009FD0848084B0360F3F70EFD00F0A0F93E
:1078C000FEF7A6FAFEF7A2FBFFF7C6FF034B002266
:1078D0001A7008BD344B0020716D0300204B00204E
:1078E0001449002311F83320D00744BF42F00202AC
:1078F00001F833200133042BF4D10F4900235A5AE5
:1079000022B1C818427942F0020242710633122BAA
:10791000F5D10A480023C118383391F8342012F009
:10792000010F1CBF42F0020281F83420E02BF2D19B
:10793000FFF792BF484C0020224B0020684B0020EC
:107940002DE9F04F5A4DB5F8C83085B0804613B9CF
:107950007846F0F76DFD574CDFF86CA14FF6FF73DA
:1079600008F57A79A5F8CA30002604F1040B94F8DA
:107970002830CBB1A369A3EB0903002B1ADA00234B
:1079800084F82830B5F8C830013BA5F8C83003A901
:107990002088FFF7FFFE10B17846F0F749FDE36954
:1079A00003992088012298470136042E04F12C0403
:1079B000DDD14EE0236AA3EB0902002A66DAA5F8BE
:1079C000CA602C2101FB06B12088FFF7D1FA0746D7
:1079D000E8B1DAF800309B0417D5374B1B68042B4D
:1079E00013DD2F21354806F06DFBE8B12F21334818
:1079F00006F068FB411C324B324AD3F80435009242
:107A0000019780220520F5F7D5FC082F15D1D4E980
:107A100008231A445B0022626362A269236AD31AB4
:107A2000002BC1DA2262BFE75C21244806F04AFB42
:107A300008B15C21DBE72149DDE7042F01D00F2FDE
:107A400020D12C2303FB0656B36B03F51C434033B4
:107A5000B363B5F8C8304BB3B5F8CA30032B02D9BD
:107A60007846F0F7E5FCB5F8CA302C2202FB035348
:107A70009B6BB3EB080248BFA8EB0302EA6005B0BA
:107A8000BDE8F08F7846F0F7D3FCC6E7B5F8CA201A
:107A90004FF6FF718A4206D02C2101FB0252926BF5
:107AA0009B1A002B80DAA5F8CA607DE7EB60E6E759
:107AB000684C0020804C0020242E0020BEF00300E3
:107AC00000100140E3F00300282E0020F8B5284CF8
:107AD0002C2303FB0043054693F8403013B9784646
:107AE000F0F7A6FCB4F8C83013B97846F0F7A0FC5C
:107AF000B4F8C8202C2000FB0541013A002392B2C3
:107B000081F84030A4F8C8205AB3B4F8CA20AA4279
:107B10002CD1896B174A0A444FF6FF7100FB0345CD
:107B20009EB295F840702FB1AD6BAF1A002FBCBF5D
:107B300031462A460133042BF0D14FF6FF739942A8
:107B4000A4F8CA1002D17846F0F772FCB4F8CA3033
:107B500007482C2202FB0344A16BBDE8F840F3F771
:107B6000EEBD0348BDE8F840F3F7D2BDF8BD00BF55
:107B7000684C0020008793030328F8B505460E469D
:107B8000174602D97846F0F753FCF4F7B9FA114BCF
:107B900000202C2202FB003494F8401099B1218B74
:107BA000A94210D1A28D33889A420FD1E28D7388F9
:107BB0009A420BD180B2FFF789FF636B00223946EE
:107BC0002846984702E001300428E3D1BDE8F84098
:107BD000F4F7D6BA684C002010B508490023CA183B
:107BE00092F8404014B1128B824204D02C33B02B57
:107BF000F5D1012010BD0020FCE700BF684C00203B
