:020000022000DC
:1060000000FD00207DBB0300A5BB0300A7BB030070
:10601000A9BB0300ABBB0300ADBB03000000000045
:10602000000000000000000000000000AFBB030003
:10603000B1BB030000000000B3BB0300B5BB03000D
:10604000B7BB0300B7BB0300B7BB0300B7BB03007C
:10605000B7BB0300B7BB03007D900200B7BB0300D2
:10606000B7BB0300B7BB030045170300B7BB030072
:10607000B7BB0300B7BB0300B7BB0300B7BB03004C
:10608000B7BB030035960300F9D40200B7BB030089
:1060900005970300B7BB030025940200B7BB0300BC
:1060A000B7BB0300B7BB0300B7BB0300B7BB03001C
:1060B000B7BB0300B7BB03000000000000000000F6
:1060C000B7BB0300B7BB0300B7BB0300B7BB0300FC
:1060D000B7BB0300B7BB0300B7BB03000000000061
:1060E00000000000000000000000000000000000B0
:1060F00000000000000000000000000000000000A0
:10610000000000000000000000000000000000008F
:10611000000000000000000000000000000000007F
:10612000000000000000000000000000000000006F
:10613000000000000000000000000000000000005F
:10614000000000000000000000000000000000004F
:10615000000000000000000000000000000000003F
:10616000000000000000000000000000000000002F
:10617000000000000000000000000000000000001F
:10618000000000000000000000000000000000000F
:1061900000000000000000000000000000000000FF
:1061A00000000000000000000000000000000000EF
:1061B00000000000000000000000000000000000DF
:1061C00000000000000000000000000000000000CF
:1061D00000000000000000000000000000000000BF
:1061E00000000000000000000000000000000000AF
:1061F000000000000000000000000000000000009F
:1062000010B5054C237833B9044B13B10448AFF3F0
:1062100000800123237010BD382F002000000000F3
:1062200074F3030008B5034B1BB103490348AFF3F4
:10623000008008BD000000003C2F002074F3030024
:10624000154B002B08BF134B9D46A3F5803A002148
:106250008B460F461348144A121A17F093F80F4B47
:10626000002B00D098470E4B002B00D09847002001
:10627000002104000D000D48002802D00C48AFF3A7
:10628000008017F031F82000290000F077FF17F0A8
:1062900017F800BF0000080000FD0020000000000B
:1062A00000000000382F002058550020000000009A
:1062B0000000000041DF704700470000024A7D21D6
:1062C000032015F086BC00BF36D9030070B59E4C84
:1062D00023685E04C6B019D59C4B1B68032B15DDE3
:1062E0002F219B4817F028F9002800F0F6802F2175
:1062F000974817F021F9411C964B974AD3F804357B
:10630000009204204FF4157208F05CF823685D04D5
:1063100020D58E4B1B68032B1CDD2F218C4817F0DA
:106320000BF9002800F0E2802F21894817F004F9CA
:10633000411C8A4A874BD088D3F804350390508893
:10634000029012880192864A0092042040F256225E
:1063500008F038F82368580434D57C4B1B68032BAD
:1063600030DD804B7D4E196805AD0023F21892F8A0
:106370002C20100902F00F02085C05F81300885C5D
:1063800005EB43020133102B5070EFD100232F2176
:106390006F4885F8203017F0CFF8002800F0AF8064
:1063A0002F216B4817F0C8F8411C6A4B6E4AD3F88E
:1063B000043501926D4A0092029540F25722042062
:1063C00008F000F82368590433D5604B1B68032B91
:1063D0002FDD644B614E196805AD0023F218127B66
:1063E000100902F00F02085C05F81300885C05EB49
:1063F00043020133102B5070F0D100232F21544859
:1064000085F8203017F098F8002800F081802F21BF
:106410004F4817F091F8411C4E4B554AD3F80435BC
:106420000192524A009202954FF41672042007F02E
:10643000C9FF23685A0432D5444B1B68032B2EDD59
:10644000484B464E196805AD0023F218127F10091B
:1064500002F00F02085C05F81300885C05EB4302AC
:106460000133102B5070F0D100232F21384885F8CC
:10647000203017F061F8002853D02F21344817F04E
:106480005BF8411C334B3B4AD3F804350192374A41
:106490000092029540F25922042007F093FF2368EE
:1064A0005B0418D5294B1B68032B14DD2F212848CA
:1064B00017F042F800283DD02F21254817F03CF86E
:1064C000411C244B2C4AD3F804350092042040F29E
:1064D0005A2207F077FF46B070BD5C211C4817F0C8
:1064E0002BF808B15C2103E7194905E75C2118483E
:1064F00017F022F808B15C2117E7154919E75C216C
:10650000134817F019F808B15C214AE710494CE725
:106510005C210F4817F010F808B15C2178E70C49AE
:106520007AE75C210A4817F007F808B15C21A5E773
:106530000749A7E75C21064816F0FEFF08B15C2179
:10654000BBE70349BDE700BF402E00203C2E0020E2
:1065500036D903000010014022D70300982F0020F5
:106560003CD70300442E00207DD7030086D70300CC
:106570008ED7030097D70300A0D7030007B5224B9F
:106580001B685B0417D5214B1B68032B13DD2F21E0
:106590001F4816F0D1FF50B32F211D4816F0CCFF35
:1065A000411C1C4B1C4AD3F80435009204204FF4C4
:1065B000017207F007FF194B19484FF0FF321A60BC
:1065C0009A800CF027F920B1114A4FF4037115F0AD
:1065D00000FB144A144800210FF008F880B10C4A5F
:1065E00040F20D2103B05DF804EB15F0F2BA5C2126
:1065F000074816F0A1FF08B15C21CEE70449D0E7B7
:1066000003B05DF804FB00BF402E00203C2E0020AC
:1066100036D903000010014030DA0300542F002067
:106620002D660200B16902005C2F002073B5184B83
:106630001B685B0404460D46164617D5154B1B68B0
:10664000032B13DD2F21144816F076FFB0B12F2154
:10665000114816F071FF411C104B114AD3F8043554
:10666000009204204FF4AF7207F0ACFE3246294688
:10667000204602B0BDE8704002F014B95C21064823
:1066800016F05AFF08B15C21E2E70349E4E700BFD6
:10669000402E00203C2E002036D90300001001407F
:1066A000D0D5030007B5184B1B685B041AD5174BF0
:1066B0001B68032B16DD2F21154816F03DFFD0B1C6
:1066C0002F21134816F038FF411C124A124B5288F2
:1066D000D3F804350192114A0092042040F22312AB
:1066E00007F070FE0E4B00211220197003B05DF808
:1066F00004EB02F027BC5C21054816F01DFF08B131
:106700005C21DEE70249E0E7402E00203C2E00201D
:1067100036D90300982F002000100140E5D5030072
:10672000942F002007B5174B1B685B0417D5164B39
:106730001B68032B13DD2F21144816F0FDFEB8B1A2
:106740002F21124816F0F8FE411C114B114AD3F8C4
:106750000435009204204FF49A7207F033FE0E4B7A
:1067600000211120197003B05DF804EB02F0EABBC0
:106770005C21064816F0E0FE08B15C21E1E7034920
:10678000E3E700BF402E00203C2E002036D9030056
:1067900000100140DAD60300942F002013B51D4BE2
:1067A0001B685B04144616D51B4B1B68032B12DDBC
:1067B0002F211A4816F0C0FEA8B12F21174816F055
:1067C000BBFE411C164B174AD3F804350092042037
:1067D0006D2207F0F7FD012C0ED1784602B0BDE81E
:1067E000104002F023BF5C210C4816F0A5FE08B152
:1067F0005C21E3E70949E5E7022CEED0032C07D141
:10680000064A7621042002B0BDE8104015F0E1B937
:1068100002B010BD402E00203C2E002036D90300CF
:10682000001001407DD9030008B53C220021064834
:1068300016F0A8FD054808F0F3F820B10448BDE8BB
:10684000084008F029BB08BD982F0020702F0020B9
:10685000CC2D002010B53C220121094808F09FF9F9
:10686000044620B9074808F017FB002010BD3C2261
:106870000549043016F07BFD204608F0BFF9F4E727
:10688000702F0020B02D0020982F002007B51D4B41
:106890001B685B0417D51C4B1B68032B13DD2F21D2
:1068A0001A4816F049FE08B32F21184816F044FE86
:1068B000411C174B174AD3F80435009204204FF4BB
:1068C000957207F07FFD0021112002F03BFB0121B2
:1068D000122002F037FBFFF7BDFF80B10B4A40F2F8
:1068E0002F1103B05DF804EB15F073B95C21074874
:1068F00016F022FE08B15C21D7E70449D9E703B0BE
:106900005DF804FB402E00203C2E002036D9030009
:106910000010014009D7030008B5FFF79BFF28B11D
:10692000034AEE21BDE8084015F053B908BD00BF89
:1069300036D9030013B5194B1B685B04044619D5FF
:10694000174B1B68032B15DD2F21164816F0F4FD9D
:10695000C8B12F21134816F0EFFD411C124B2278CD
:10696000D3F804350192114A009204204FF4A97221
:1069700007F028FD23781C2B0ED1002002B0BDE8C3
:10698000104005F09FBD5C21064816F0D5FD08B10A
:106990005C21DFE70349E1E702B010BD402E002093
:1069A0003C2E002036D903000010014022D60300FF
:1069B00030B50B7885B00C4633BB1A4B1B685B04B3
:1069C00022D5194B1B68032B1EDD2F21174816F00B
:1069D000B3FDD8B12F21154816F0AEFD411C6268F9
:1069E000134B50885269D3F804351578247BB5B918
:1069F00092F90D200190CDE902420E4A0092042046
:106A000040F2491207F0DEFC05B030BD5C210748BA
:106A100016F092FD08B15C21DDE70449DFE70022B2
:106A2000E8E700BF402E00203C2E002036D90300AE
:106A3000001001408CD6030013B503780E2B22D131
:106A4000164B1B685B0417D5154B1B68042B13DD15
:106A50002F21144816F070FDB8B12F21114816F0FF
:106A60006BFD411C104B114AD3F8043500920520F0
:106A70004FF4D37207F0A6FC0D4C23781BB9FFF737
:106A800025FC0123237002B010BD5C21054816F0DF
:106A900053FD08B15C21E1E70249E3E7402E002005
:106AA0003C2E002036D9030000100140C1D603005F
:106AB000D42F002007B5134B1B685B0416D5124B6F
:106AC0001B68032B12DD2F21104816F035FD80B115
:106AD0002F210E4816F030FD411C0D4B0D4AD3F806
:106AE000043500920420892207F06CFC03B05DF8A5
:106AF00004FB5C21054816F01FFD08B15C21E8E7A6
:106B00000249EAE7402E00203C2E002036D903003F
:106B10000010014066D9030013B51F49044616F062
:106B2000F1FC10B91D4802B010BD1D49204616F0F9
:106B3000E9FC0028F6D01B49204616F0E3FC40B3E0
:106B4000194B1B685B0416D5184B1B68002B12DB16
:106B50002F21174816F0F0FC90B12F21144816F0A1
:106B6000EBFC411C134B144AD3F80435009200206F
:106B7000FC2207F027FC784602F058FD0020D2E7FF
:106B80005C210B4816F0D8FC08B15C21E6E7084907
:106B9000E8E70A48C7E700BF8BDA030050DA0300D2
:106BA000A6DA0300BFDA0300402E00203C2E0020AE
:106BB00036D9030000100140DFDA03006BDA03006E
:106BC00073B59D4D2B685904044640F1A7819B4E37
:106BD0003268032A40F3A9812F21994816F0ACFCB2
:106BE000B0B12F21964816F0A7FC411C954B621CB2
:106BF000D3F804350192944A009204204FF4EE72C7
:106C000007F0E0FB6CB1032C00F0368102B070BDE0
:106C10005C218B4816F090FC08B15C21E2E78849C2
:106C2000E4E78A4E2B68327803F48043002A40F070
:106C3000E080874C22886188914231D2BBB17F4B82
:106C40001B68032B13DD2F217D4816F075FCF0B176
:106C50002F217B4816F070FC411C7A4B7D4AD3F8FB
:106C60000435009204204FF4B87207F0ABFBA36820
:106C7000A0880193002302210093774A01F086FF48
:106C80000121122002F05EF901233370BEE75C217E
:106C90006B4816F051FC08B15C21DAE76849DCE783
:106CA00062BBBBB1654B1B68032B13DD2F2164480E
:106CB00016F042FCC8B12F21614816F03DFC411C82
:106CC000604B664AD3F80435009204204FF4BD723D
:106CD00007F078FB624A0323E188022001F06CF898
:106CE00001F0EAF801211120CCE75C21544816F0AC
:106CF00023FC08B15C21DFE75149E1E71E2A52D8A5
:106D0000C3B14E4B1B68032B14DD2F214C4816F0EA
:106D100013FC002835D02F21494816F00DFC411CEA
:106D2000484B504AD3F80435009204204FF4C37204
:106D300007F048FBA068FFF7EFFE2A684A4B12F401
:106D4000804F18601D4619D03C4B1B68032B15DD86
:106D50002F213B4816F0F0FBE0B12F21384816F008
:106D6000EBFB411C374B2A68D3F8043501923F4AAC
:106D7000009204204FF4C57207F024FB01233A4A25
:106D8000AAE75C212E4816F0D7FB08B15C21C3E7C7
:106D90002B49C5E75C212A4816F0CEFB08B15C21DF
:106DA000DCE72749DEE7002B3FF430AF234B1B68BD
:106DB000032B7FF72BAF2F21214816F0BDFB78B1B5
:106DC0002F211F4816F0B8FB411C1E4B284AD3F850
:106DD0000435009240F29312042007F0F3FA15E70D
:106DE0005C21174816F0A8FB08B15C21E9E71449BB
:106DF000EBE7002B3FF40AAF104B1B68032B7FF728
:106E000005AF2F210E4816F097FB60B12F210C48DB
:106E100016F092FB411C0B4B164AD3F80435009236
:106E200040F29B12D8E75C21054816F085FB08B1BB
:106E30005C21ECE70249EEE7402E00203C2E0020CA
:106E400036D9030000100140E2D70300942F002040
:106E5000982F0020F5D70300B42F002028D8030076
:106E6000DC2D002057D80300DC2F002086D803003B
:106E70009CD80300B5D803002B685A0417D5336893
:106E8000032B14DD2F212C4816F056FB002833D09D
:106E90002F21294816F050FB411C284B284AD3F8D3
:106EA0000435009204204FF4F57207F08BFAFFF7D7
:106EB000BBFC00F0EBFA0422C8214FF4801002F072
:106EC00057F82B685B047FF5A1AE1E4B1B68032BA4
:106ED0007FF79CAE2F21184816F02EFBA8B12F216A
:106EE000154816F029FB411C144B174AD3F80435FA
:106EF00000924FF4F8726FE75C210F4816F01CFB0C
:106F000008B15C21C5E70C49C7E75C210A4816F0C7
:106F100013FB08B15C21E3E70749E5E700283FF4EC
:106F200080AE03287FF472AEC1E700283FF479AE4B
:106F300003287FF46BAEA2E736D9030000100140AE
:106F4000E3D803003C2E0020FBD80300303804288F
:106F500001D8FFF735BE704737B53F4D3F4C2A6823
:106F600012F4804F1AD03E4B1B68032B16DD2F21E5
:106F70003C4816F0E1FA002837D02F21394816F0A6
:106F8000DBFA411C384B6288D3F804350192374A4A
:106F90000092042040F2071207F014FA0021122098
:106FA00001F0D0FF6388013363800FF05BF8FFF7D7
:106FB00051FC20B12B4A40F20D1114F00AFE6388F7
:106FC0001E2B1BD8A068FFF7A7FD294AE188106097
:106FD0000123022000F0F0FE00F06EFF01211120DD
:106FE00003B0BDE8304001F0ADBF5C211D4816F094
:106FF000A3FA08B15C21C1E71A49C3E72B685B0417
:1070000017D5174B1B68032B13DD2F21154816F0DE
:1070100093FAB8B12F21134816F08EFA411C124B87
:10702000144AD3F804350092042040F21B1207F0F2
:10703000C9F90422C8214FF4F01003B0BDE8304074
:1070400001F096BF5C21074816F076FA08B15C2182
:10705000E1E70449E3E700BF402E0020982F00201D
:107060003C2E002036D90300001001403BD603001F
:10707000D82F00209CD8030000B58BB003A902A82C
:1070800000F050FA18B1204A962114F0A2FD1F4BCF
:1070900007931F4B08931F4B099304230693029BEE
:1070A0001D48A3F58053049304A90123059307F019
:1070B000E3FDE8B1194807F0EFFE194B1B685B04CC
:1070C00016D5184B1B68002B12DD2F210E4816F029
:1070D00033FA80B12F210C4816F02EFA411C124BC6
:1070E000124AD3F8043500920120A32207F06AF96E
:1070F0000BB05DF804FB5C21034816F01DFA08B1E3
:107100005C21E8E70049EAE736D903009D67020001
:10711000BD620200B56A0200702F0020A02D002081
:10712000402E00203C2E00200010014062D60300BB
:1071300010B5104CA18820890FF0DCFE20B10E4A5A
:1071400040F2BD1114F045FDA18820890FF050FFD9
:1071500020B1094A4FF4DF7114F03BFD20880DF097
:1071600067FF30B1044A40F2C111BDE8104014F08D
:1071700030BD10BD542F002036D9030080B5AE4E6F
:10718000AE4A92B004214FF4C04007F0FFF83368D4
:107190005C0419D5AA4B1B68032B15DD2F21A948C8
:1071A00016F0CAF9002800F0DE802F21A54816F05D
:1071B000C3F9411CA44BA54AD3F80435009204201E
:1071C00040F2432207F0FEF812F0E6FB20B19D4AA0
:1071D00040F2452114F0FDFC01F0FCFE9C4801F05A
:1071E00025FF20B1974A40F2492114F0F2FC01F04A
:1071F0007BFF0021202209A816F0C4F801238DF896
:10720000243007238DF8273006238DF82C30914B3E
:107210000D930DF10B01904B119309A800F04EF95D
:1072200020B1884A40F21A2114F0D3FC12AF8B48E7
:107230008B4C4FF03C0805F0EBF8FFF71DFF47F8CB
:107240003C8D874A87483B46012107F071FC054683
:1072500020B142460021204616F094F8002D0CBFC4
:107260000125002500F08880002323604FF48073FF
:10727000E380FFF7EFFA20B1724A40F2D11114F027
:10728000A8FC794B1D76794D0FCD3C460FC495E88F
:10729000030084E80300384600F0CCFE9DF80B3074
:1072A000002B40F098803368590419D5644B1B6853
:1072B000032B15DD2F21634816F03EF9002800F05E
:1072C00081802F215F4816F037F9411C5E4B684AD8
:1072D000D3F80435009204204FF40C7207F072F8D2
:1072E00000F0CCFEFFF724FF0EF0BCFEFFF714FB0E
:1072F0006049614801F0A4FD6421604801F0C2FDCD
:1073000033685B0419D54E4B1B68032B15DD2F2109
:107310004C4816F011F9002800F084802F214948CC
:1073200016F00AF9411C484B554AD3F8043500922F
:1073300004204FF4187207F045F805F011F820B159
:10734000404A40F2662114F044FC00214FF4F01052
:1073500001F004FE0222C8214FF4F01001F008FEF3
:10736000FEF7A8FFFCE75C21364816F0E5F808B107
:107370005C211BE733491DE73368580481D5304B46
:107380001B68032B7FF77DAF2F212E4816F0D4F812
:1073900078B12F212B4816F0CFF8411C2A4B394ADF
:1073A000D3F804350092042040F2D51207F00AF811
:1073B00067E75C21234816F0BFF808B15C21E9E7D4
:1073C0002049EBE75C211F4816F0B6F808B15C21B4
:1073D00078E71C497AE733685A0417D5184B1B68BD
:1073E000032B13DD2F21174816F0A6F888B12F21A3
:1073F000144816F0A1F8411C134B234AD3F8043566
:107400000092042040F2392206F0DCFF00F096FDE5
:107410006EE75C210B4816F08FF808B15C21E7E7B6
:107420000849E9E75C21074816F086F808B15C21B5
:1074300075E7044977E700BF402E002061E30200B2
:107440003C2E002036D903000010014093D90300E0
:10745000C16B0200356902007D650200C02D00206D
:10746000982F0020702F0020542F0020B8D5030043
:10747000DBD90300A5660200596F02004D6F0200C0
:1074800026DA0300C7D9030012DA030008B509F0B1
:107490005DF80FF000FA11F053F8BDE8084004F071
:1074A00087B907B501A811F0F9F8BDF8040000305C
:1074B00018BF012003B05DF804FB000073B50E4651
:1074C000054658B304F0D8FE044620BB11F08CF8F2
:1074D0000FF050FF28690DF07BFD0446D8B92B7FD3
:1074E0000193AB69009301466B690D4859220DF079
:1074F000F5FF044678B92B6A03B1984708F03EFFC0
:1075000010F08EFF0EF01AFF08B10EF0ABFDFFF782
:10751000C8FF06B13070204602B070BD0E24FAE7F5
:10752000E02F002037B50D460446A0B199B168465A
:1075300009F022FA009B53B1236007F0FBFC23689B
:10754000C01A00F580502860002003B030BD0FF055
:10755000E0FE2060F1E70E20F7E700002DE9F04F94
:107560000378C9B004460A2B00F21C81DFE813F04F
:107570000B00F1036A011A011A011A011A01B20380
:107580001A0107035E029C4F3B78012B40F00A81F1
:107590009A4D2B685E0435D5994B1B68032B31DD62
:1075A000984B0430196807AE002310F8012B4FEAFE
:1075B000121C02F00F0211F80CC003F806C011F8FB
:1075C00002C0F2180233202B82F801C0EDD1002353
:1075D0002F218D4886F8203015F0AEFF002800F0EE
:1075E000E4802F21884815F0A7FF411C874B884A6B
:1075F000D3F804350192874A009202968A22042029
:1076000006F0E0FEE3691B78FBB92B6858041CD533
:107610007B4B1B68032B18DD2F217B4815F08CFF5B
:10762000002800F0CB802F21774815F085FF411C02
:10763000E269764B92F90D20D3F804350192764A2F
:10764000009204208E2206F0BDFE637D002B00F028
:10765000A9802B68590435D5694B1B68032B31DD94
:10766000684B04F11600196807AE002310F8012BCF
:107670004FEA121C02F00F0211F80CC003F806C00A
:1076800011F802C0F2180233082B82F801C0EDD1C4
:1076900000232F215C48337215F04EFF002800F0C4
:1076A00096802F21584815F047FF411C574B5B4AE5
:1076B000D3F804350192574A00920296932204208F
:1076C00006F080FEDFF874B1DFF8749100269BF8B5
:1076D0000030B34266D9D9F8003053F826804FEA1B
:1076E000860AB8F1000F00F08480404615F01CFFB8
:1076F00007AA81B2404605F0BAFF042207A904F1A7
:10770000160015F025FE002873D12B685A0417D5F2
:107710003B4B1B68032B13DD2F213B4815F00CFF5F
:1077200000285DD02F21384815F006FF411C374B4B
:107730003B4AD3F8043500920420992206F042FE19
:10774000D9F80030374D53F80A20374B00211A6022
:1077500007A8192215F016FE2B89ADF82C306968A0
:10776000324B0C311B88ADF83230102207A815F0CF
:10777000FEFD2F492F48043412F09EFC18B1224A16
:107780006E2114F026FA0123AA7A2B480093214691
:1077900007AB12F093FC18B11B4A6F2114F019FAD1
:1077A00003233B7049B0BDE8F08F5C21164815F00B
:1077B000C3FE08B15C2115E7134917E75C211248A5
:1077C00015F0BAFE08B15C212EE70F4930E75C21C5
:1077D0000D4815F0B1FE08B15C2163E70A4965E781
:1077E0005C21094815F0A8FE08B15C219BE7064919
:1077F0009DE701366BE700BF58330020402E002084
:107800003C2E0020442E00201ADB03000010014013
:1078100058DB030086D703005EDB030069DB03004F
:1078200073DB03005C330020BC330020B633002040
:107830003C3000207533002024320020BA33002071
:10784000C03300206B4E6C4D336813F4804F1CD056
:107850006A4B1B68032B18DD2F21694815F06CFE5D
:10786000002839D02F21664815F066FE411C654A74
:10787000654B1278D3F8043502922A780192634A54
:1078800000920420A62206F09DFD2B78032B61D1E7
:1078900033685C4E327803F480437AB3B3B1574B0C
:1078A0001B68032B12DD2F21554815F045FEE0B172
:1078B0002F21534815F040FE411C534B544AD3F836
:1078C000043500920420AB2206F07CFD01232B70CE
:1078D0003378013B337065E75C21494815F02CFE95
:1078E00008B15C21BFE74649C1E75C21444815F077
:1078F00023FE08B15C21DCE74149DEE7DBB13F4B09
:107900001B68002B17DD2F213D4815F015FEC0B177
:107910002F213B4815F010FE411C3E4A3A4B12887D
:10792000D3F804350292227A01923B4A0092012058
:10793000B22206F047FD00232B70384B5B69984755
:1079400030E75C212E4815F0F7FD08B15C21E0E737
:107950002B49E2E7022B7FF425AF304C2D4A6368B8
:1079600010881A882E49988001320F881A80DA8888
:10797000B0F5807F3A44DA8002BF2A4A12689A60E2
:10798000E3680F4698472369984733685B041BD523
:107990001A4B1B68032B17DD2F21194815F0CCFD5E
:1079A000F8B12F21164815F0C7FD411C164B3A8837
:1079B000D3F8043502926268928801921A4A0092C2
:1079C0000420C42206F0FEFC6268002493689088BC
:1079D0000193009423461C32022101F0D7F82C7049
:1079E000E0E65C21064815F0A7FD08B15C21D9E767
:1079F0000349DBE7402E0020583300203C2E0020B6
:107A00001ADB0300B53300200010014097DB0300B0
:107A1000DEDB0300B633002000DC03005C33002013
:107A2000B8330020BC33002043DC0300984F3A6891
:107A3000560417D5974B1B68032B13DD2F2196484F
:107A400015F07AFD00287FD02F21934815F074FDA2
:107A5000411C924B924AD3F8043500920420CF2265
:107A600006F0B0FC8F4B02221A703B685D0417D5FC
:107A7000884B1B68032B13DD2F21874815F05CFD15
:107A800000286AD02F21844815F056FD411C834BF5
:107A9000854AD3F8043500920420D42206F092FCE3
:107AA000E3688249D88A10F009FE18B17A4AD621D3
:107AB00014F08FF87E4DE06829687E4BA2684988F3
:107AC000C08A11F059F9A84618B1734ADA2114F0A6
:107AD00080F8784E30880AF009FF18B16E4ADD212F
:107AE00014F077F8714D308829880AF0BBFE18B180
:107AF000694ADF2114F06DF83B6858047FF552AEF7
:107B0000644B1B68032B7FF74DAE2F21624815F0A5
:107B100013FD58B32F21604815F00EFD411C5F4B3B
:107B20003288D3F804350492D8F8002052880392A2
:107B30002A880292E268D28A01925F4A0092042067
:107B4000E52206F03FFC2DE65C21534815F0F4FCDD
:107B500008B15C2179E750497BE75C214E4815F07C
:107B6000EBFC08B15C218EE74B4990E75C214A4869
:107B700015F0E2FC08B15C21CDE74749CFE74F4B58
:107B8000027A1A80012110230022406812F0C2FA02
:107B9000054600283FF406AE3D4C2268510418D536
:107BA0003C4B1B68002B14DD2F213B4815F0C4FC17
:107BB000002833D02F21384815F0BEFC411C374B2C
:107BC0003F4AD3F8043500920195F522012006F0D2
:107BD000F9FB23683B4C334D217803F4804379B3A0
:107BE000B3B12C4B1B68032B12DD2F212A4815F053
:107BF000A3FCE0B12F21284815F09EFC411C274B27
:107C0000314AD3F8043500920420F82206F0DAFB5A
:107C100001232B702378013B2370C3E55C211E48B0
:107C200015F08AFC08B15C21C5E71B49C7E75C2158
:107C3000194815F081FC08B15C21DCE71649DEE744
:107C4000002B3FF478AE134B1B68032B7FF773AE0A
:107C50002F21114815F070FC88B12F210E4815F026
:107C60006BFC411C194A0D4B1288D3F80435019264
:107C7000174A00920420FF2206F0A4FB5BE65C2179
:107C8000054815F059FC08B15C21E7E70249E9E72E
:107C9000402E00203C2E00201ADB03000010014083
:107CA0007ADC0300583300209BDC030038300020CE
:107CB0005C3300203A300020C3DC0300B8330020DE
:107CC00005DD0300B533002035DD0300B6330020A9
:107CD00043DD0300314B07AD03F110061868596806
:107CE0002A4603C20833B3421546F7D1102207A92A
:107CF000606812F01BFA20B1294A4FF4867113F024
:107D000068FF284B1B685A047FF54CAD264B1B6857
:107D1000032B7FF747AD2F21214815F00DFC78B1DB
:107D20002F211F4815F008FC411C204B204AD3F896
:107D30000435009240F20D12042006F043FB31E5B9
:107D40005C21174815F0F8FB08B15C21E9E71449FC
:107D5000EBE7144B1B685B047FF524AD124B1B68EB
:107D6000032B7FF71FAD2F210D4815F0E5FB60B108
:107D70002F210B4815F0E0FB411C0C4B0D4AD3F8AA
:107D8000043500924FF48972D6E75C21044815F05F
:107D9000D3FB08B15C21ECE70149EEE7FADA030016
:107DA0001ADB0300402E00203C2E00200010014072
:107DB000AADD0300CFDD030010B586B002B133BBEE
:107DC0002C4B1B685B0417D52B4B1B68002B13DD5A
:107DD0002F212A4815F0B0FB80B12F21274815F03C
:107DE000ABFB411C264B274AD3F8043500920120F7
:107DF0004FF4907206F0E6FA06B010BD5C211F4801
:107E000015F09AFB08B15C21E8E71C49EAE71E4C33
:107E100020701E481E4C01801E49012008701E491A
:107E20000A601E4A137022780ABB1D4A1068516806
:107E300003AB03C31189927A19809A70194B00938E
:107E4000194A1A491A4803AB12F009F918B10B4A3A
:107E5000782113F0BEFE174813F0F4F801461448D9
:107E600012F016F918B1054A792113F0B2FE012378
:107E70002370C1E7402E00203C2E00201ADB0300B7
:107E8000001001402DDE0300B5330020B633002082
:107E90007433002058330020C0330020BA33002050
:107EA0000ADB03005D7502003C30002075330020C2
:107EB000243200205C30002007B51A4B1B685B049D
:107EC00017D5194B1B68032B13DD2F21174815F00D
:107ED00033FBD0B12F21154815F02EFB411C144B5C
:107EE000144AD3F804350092042040F22F1206F011
:107EF00069FA114812F094F980B10C4A4FF4987164
:107F000003B05DF804EB13F064BE5C21074815F084
:107F100013FB08B15C21DEE70449E0E703B05DF83C
:107F200004FB00BF402E00203C2E00201ADB030083
:107F3000001001407ADE03005D75020070B588B064
:107F400008AD012345F8043D0DF11600294610F057
:107F5000F5FE20B1314A40F23B1113F03AFE079B87
:107F6000012B02D0784601F061FB2D4CBDF81600C4
:107F7000266810F0BDFC236870805A884FF6FF73A6
:107F80009A4202D1784601F051FB23682A46191D16
:107F9000588811F0BFF820B1204A40F23F1113F089
:107FA00018FE06A810F07AFB2168BDF8180010F042
:107FB00071FF20B1194A40F2431113F00AFE194B28
:107FC0001B685B041ED5184B1B68032B1ADD2F2181
:107FD000124815F0B1FAB8B12F21104815F0ACFADB
:107FE000411C2268114B1088D3F804350390908807
:107FF0000290528801920E4A009204204FF4A3721C
:1080000006F0E0F908B070BD5C21044815F094FA60
:1080100008B15C21E1E70149E3E700BF1ADB030097
:108020005C330020402E00203C2E00200010014038
:10803000EEDD030038B5C368044613B9784601F095
:10804000F5FA636913B9784601F0F0FA236913B9B8
:10805000784601F0EBFA0FCC054D0FC5054A002319
:10806000137094E80300044A137085E8030038BDD8
:108070005C33002074330020583300201FB5374B89
:108080001868039003A810F0CDFA20B1344A40F2EA
:10809000591113F09EFD334C606810210C3004F030
:1080A0002BFD606810211C3004F026FD6068102153
:1080B0002C3004F021FDD4E90021002002320C31E3
:1080C00010F09AFC20B1264A40F2611113F081FDB4
:1080D000254B1B685B041AD5244B1B68032B16DD4C
:1080E0002F211F4815F028FA70B32F211C4815F0D6
:1080F00023FA411C22681E4B5288D3F804350192A2
:108100001C4A009204204FF4B17206F05BF9D4E9E6
:10811000001200200B1D1C32498810F0D5FE20B142
:108120000F4A40F2631113F054FDD4E900320120EC
:108130002C32598810F020FE20B1094A4FF4B37157
:1081400013F047FD04B010BD5C21054815F0F4F9AB
:1081500008B15C21CAE70249CCE700BF16DB030087
:108160001ADB03005C330020402E00203C2E002050
:108170000010014067DE030030B50446018085B081
:108180001046154603F08CFF1F4B20711B88A381FE
:108190000023A3731E222374A3741C4BE2730122D9
:1081A00062741A88E580A4F813205B88A4F815305F
:1081B000174B1B685B041BD5164B1B68032B17DD85
:1081C0002F21154815F0B8F9A0B12F21124815F04C
:1081D000B3F9411C114BE288D3F80435029222888E
:1081E00001920F4A009204204FF4947206F0EAF8CC
:1081F00005B030BD5C21084815F09EF908B15C213E
:10820000E4E70549E6E700BFC4330020C633002099
:10821000402E00203C2E0020A8DE0300001001406C
:10822000DEDE030010B5054804F018FB044B054AD8
:108230001A60054BBDE810401B681847E833002062
:10824000E82D00204FE00300D833002030B59B4BD1
:108250001B681B78013B8DB00A2B00F20D83DFE811
:1082600013F00B004D007E00B300E8005901AE0191
:108270000902D702F1026402914B1B685D0417D515
:10828000904B1B68032B13DD2F218F4815F054F9F9
:1082900058B32F218C4815F04FF9411C8B4B8C4A59
:1082A000D3F80435009204204FF4B07206F08AF837
:1082B00000200AF033FB874B02225A8000221A70FA
:1082C0005A60002800F07081834C0AF083FC237808
:1082D000002B00F0D882013B237004F0FFFA7F49A5
:1082E0000144201D04F0D1FA5EE15C21764815F0CE
:1082F00023F908B15C21CDE77349CFE7704B1B68C8
:108300005C041BD56F4B1B68032B17DD2F216E48B8
:1083100015F012F9D0B12F216B4815F00DF9411C61
:108320006A4B02220120D3F80435CDE901206C4AC2
:10833000009204204FF4B57206F044F801210220A7
:108340000AF010FC634B48F22502B6E75C215E4858
:1083500015F0F2F808B15C21DEE75B49E0E7584B25
:108360001B685B0417D5574B1B68032B13DD2F21AC
:10837000554815F0E1F8F0B12F21534815F0DCF81D
:10838000411C524B574AD3F80435009204204FF455
:10839000BA7206F017F8544B1A68544B1988544BAC
:1083A00018880AF0DFFA4B4B48F203025A80022287
:1083B0001A70504A84E75C21434815F0BDF808B1B3
:1083C0005C21DAE74049DCE73D4B1B685D0417D5CB
:1083D0003C4B1B68032B13DD2F213B4815F0ACF8F9
:1083E000F0B12F21384815F0A7F8411C374B424A0D
:1083F000D3F804350092042040F27F1205F0E2FF2A
:108400003A4B3E4A19883E4B069218880AF0DAFB2E
:10841000304B48F23E025A8001221A70394A4FE727
:108420005C21294815F088F808B15C21DAE7264973
:10843000DCE7234B344C1B6813F4804F19D0214BDD
:108440001B68032B15DD2F211F4815F075F858B355
:108450002F211D4815F070F8411C1C4B6288D3F881
:1084600004350192294A009204204FF4C77205F0A6
:10847000A9FF6278237843EA0223ADF81830E27846
:10848000A37843EA0223ADF81A30184B069A1988EC
:108490001B4B18880AF096FB0E4B48F23E025A809E
:1084A00001221A701A4A0BE75C21074815F044F8BC
:1084B00008B15C21CDE70449CFE700BFE82D0020DB
:1084C000402E00203C2E0020A8DE030000100140BA
:1084D0000CDF0300CC330020E4330020404B4C0081
:1084E00026DF030056DF030008340020C4330020D9
:1084F000D433002045E0030065DF0300FFFF0200E6
:10850000CA33002047E003000034002082DF03006C
:1085100048E00300AC4C23881BB9AC4B1B880133EB
:108520002380AB4BAB4D1B6813F4804F1CD0AA4B80
:108530001B68032B18DD2F21A84814F0FDFF00282D
:1085400034D02F21A54814F0F7FF411CA44B2288FA
:10855000D3F8043502926A880192A24A009204205C
:1085600040F2A11205F02EFF6A782B78208843EAAA
:108570000223ADF81830EA78AB7843EA0223ADF86D
:108580001A30994B069A19880AF01CFB974B48F24F
:108590003E025A8001221A70954A5A6000287FF4E0
:1085A00093AE2388013323800DB030BD5C218B480E
:1085B00014F0C2FF08B15C21C4E78849C6E716225F
:1085C00000210DF11A0014F0DDFE804B864A1B8855
:1085D000ADF8183001238DF81C30ADF81E308DF841
:1085E00029304FF0FF338DF82B308DF82C300223DB
:1085F0008DF82D3000238DF82E30754B12881B68B6
:10860000ADF824201E228DF827205C044FF00602CE
:108610008DF828201AD5704B1B68032B16DD2F21EF
:108620006E4814F089FFE0B12F216C4814F084FFEC
:10863000411C6B4BBDF81E20D3F8043501926D4AE6
:10864000009204204FF4E17205F0BCFE06A80AF087
:10865000C1F9664B48F219025A8001221A70664A23
:108660002EE65C215D4814F067FF08B15C21DCE771
:108670005A49DEE7162200210DF11A0014F082FE9D
:10868000524B5E4C1B88ADF81830D80754BF4FF4DE
:10869000817340F20113ADF81E30534B1B88ADF8C7
:1086A000243001221E238DF81C208DF827302288CB
:1086B000ADF82B2001238DF829306288ADF82D20EC
:1086C000434A126851041CD5434B1B68032B18DD29
:1086D0002F21424814F030FFF0B12F213F4814F011
:1086E0002BFF411C3E4BBDF81E20D3F804350292EF
:1086F00062880192424A009204204FF4F27205F01F
:1087000061FE06A80AF066F9384B48F219025A8051
:1087100001221A703B4AD3E55C21304814F00CFF6B
:1087200008B15C21DAE72D49DCE7294B1B685A04C4
:1087300018D5294B1B68032B14DD2F21274814F073
:10874000FBFE002837D02F21244814F0F5FE411CF1
:10875000234B2D4AD3F804350092042040F2EF1247
:1087600005F030FE194B18880023079303238DF87A
:108770001830C3074CBF4CF203034CF20203ADF8B0
:108780001A301E4B59781A7842EA0122ADF81420AB
:108790009A78DB7842EA0323ADF8163006AA059BE7
:1087A00006CA0AF0B9F9114B48F21F025A80012299
:1087B0001A70164A84E55C21084814F0BDFE08B121
:1087C0005C21C1E70549C3E704340020CA33002017
:1087D000402E0020C63300203C2E0020A8DE0300DF
:1087E000001001409FDF0300C4330020CC33002081
:1087F00049E00300CEDF03004AE00300003400201C
:108800000BE003004BE0030030E003004CE003000A
:10881000182200210DEB020014F0B4FD1B4B198847
:1088200001314CF2030289B206A8FFF7A5FC06A8A5
:108830000AF0D0F8164B48F219025A8001221A7039
:10884000144A3DE5182200210DEB020014F09AFDB8
:108850000E4B198802314CF2020289B206A8FFF7CA
:108860008BFC06A80AF0B6F8094B48F219025A80A8
:1088700001221A70084A23E5084A4FF408710520BE
:1088800013F0A7F920E5FFF7CDFC8DE6CA330020F1
:10889000CC3300204DE003004EE00300A8DE0300CF
:1088A000FFF7D4BCF0B50D4685B0002856D19A4DDF
:1088B0002A68560418D5994B1B68032B14DD2F2109
:1088C000974814F039FE002836D02F21944814F030
:1088D00033FE411C934B944AD3F804350092042094
:1088E00040F2762205F06EFD904C2388002B00F0BC
:1088F000CD802B685D0417D5884B1B68032B13DDD7
:108900002F21874814F018FEF8B12F21844814F065
:1089100013FE411C834B864AD3F804350092042091
:1089200040F27A2205F04EFD2388013B238005B0FA
:10893000BDE8F040FFF78ABC5C21794814F0FCFDEB
:1089400008B15C21C2E77649C4E75C21744814F0A1
:10895000F3FD08B15C21D9E77149DBE7022828D192
:1089600011B9784600F062FE724C23681B780BB197
:108970000C2B29D1684B1B6858041AD5674B1B6810
:10898000012B16DD2F21664814F0D6FD98B12F215A
:10899000634814F0D1FD411C2268624B1278D3F871
:1089A00004350192644A0092022040F24E2205F002
:1089B00009FD05B0F0BD5C21594814F0BDFD08B1BA
:1089C0005C21E5E75649E7E75C4E2F887388BB4298
:1089D00027D0514B1B685904EBD5504B1B68002B1B
:1089E000E7DD2F214E4814F0A7FD88B12F214C4818
:1089F00014F0A2FD411C4B4BD3F80435029772884A
:108A000001924F4A00920120E52205F0DBFCD0E7FD
:108A10005C21434814F090FD08B15C21E7E7404930
:108A2000E9E748F219018B426A6806D033D8022B75
:108A30005ED048F203018B4238D115783378002B91
:108A400000F08880344B1B685B0419D5334B1B68DE
:108A5000032B15DD2F21324814F06EFD002852D073
:108A60002F212F4814F068FD411C2E4B354AD3F8B6
:108A700004350092019540F20B12042005F0A2FC8F
:108A8000726830781346991A88425FD805B0BDE8FD
:108A9000F040FFF7C7BB48F225018B4228D048F2CF
:108AA0003E018B42C9D048F21F01C4E71A4B1B6834
:108AB0005A0417D5194B1B68002B13DD2F211848BA
:108AC00014F03AFDB0B12F21154814F035FD411CCA
:108AD000144B1D4AD3F80435009201204FF48172E3
:108AE00005F070FC0E4A40F20311052013F071F8F6
:108AF000FF25A3E75C210A4814F01EFD08B15C21A4
:108B0000E2E70749E4E75C21054814F015FD08B1E8
:108B10005C21A6E70249A8E7402E00203C2E002059
:108B2000A8DE03000010014050E00300E033002005
:108B30007BE00300E82D002086E00300CC3300201A
:108B4000B8E0030002E10300E2E0030013F8011BB8
:108B50008D4298D123680A485A1C5B7822600C2BFE
:108B60004FF0030202707FF4E2AE043003F076FEB1
:108B7000044B2360044B1B6805B0BDE8F040184768
:108B8000E43300204FE00300DC3300202DE9F04304
:108B9000944FDFF8A8823C68247889B03CB3D8F8B9
:108BA0000030580417D5904B1B68002B13DD2F2184
:108BB0008E4814F0C1FC88B12F218C4814F0BCFC05
:108BC000411C8B4B8B4AD3F804350092012040F2B4
:108BD000922205F0F7FB09B0BDE8F0835C218348E1
:108BE00014F0AAFC08B15C21E7E78049E9E7824C70
:108BF000824E20808248834D018083498348C8602B
:108C00004FF0030981F80090814911980A60814A68
:108C100081491380814BBDF840201A8014F072FC0A
:108C2000002840F092800123B3701023F3700022DB
:108C3000AA70EB704FF0FF33337073702B706B7052
:108C4000D8F800305A041BD5674B1B68032B17DD7F
:108C50002F21664814F070FC002800F0B1802F210D
:108C6000624814F069FC411C614B2288D3F804353A
:108C700001926B4A0092042040F2B12205F0A2FB5F
:108C80004FF6FF732288ADF81430ADF8163005A901
:108C9000012306A88DF81830ADF81A200FF0DCFD7E
:108CA00020B1524A4FF4107112F093FF0DF11601EA
:108CB000BDF81A0010F0EEF820B14C4A40F2412104
:108CC00012F087FFBDF8160009F010FE20B1474AE8
:108CD0004FF4117112F07DFFBDF81410BDF81600AD
:108CE00009F0C0FD20B1414A40F2452112F071FF68
:108CF000D8F800305B041ED53B4B1B68032B1ADDF4
:108D00002F213A4814F018FC002862D02F21374850
:108D100014F012FC411C364BBDF81420D3F8043576
:108D20000292BDF8162001923E4A0092042040F2C1
:108D3000462205F047FB2388B3F5807F0CBF3A4BF2
:108D40003A4B3B60FFF782FA45E73949119814F036
:108D5000D9FB00283FF467AF3649119814F0D2FBD5
:108D600028B9102386F80290F370022260E7D8F841
:108D70000030590417D51C4B1B68002B13DD2F2125
:108D80001A4814F0D9FB90B12F21184814F0D4FBE5
:108D9000411C174B284AD3F804350092012040F2B9
:108DA000AA2205F00FFB784600F040FC42E75C2168
:108DB0000E4814F0C1FB08B15C21E6E70B49E8E777
:108DC0005C210A4814F0B8FB08B15C2148E7074968
:108DD0004AE75C21054814F0AFFB08B15C2196E737
:108DE000024998E7E82D00203C2E0020A8DE030071
:108DF000001001401CE10300CA330020C6330020EC
:108E0000E033002000340020E4330020A188020079
:108E100008340020C43300208BDA0300D433002050
:108E200070E103008AE103009EDE0300C0E103005D
:108E3000A6DA0300BFDA030050E10300402E002051
:108E400038B50C46054610B9784600F0EFFB14B96A
:108E5000784600F0EBFB024B1D60024B1C6038BDF6
:108E6000DC330020D833002010B5054C226832B125
:108E700012F0E0FF002802DB23689847F8E710BDF6
:108E80000C340020154B164A10B50C461860012111
:108E9000144810F0DBFD18B1134A4A2112F099FE74
:108EA000610C0023E00341F26F728B4208BF8242E3
:108EB00010D24FF47A72002314F082F80146002297
:108EC0000A4810F0D5FD38B1074A4B21BDE81040E3
:108ED00012F07FBE0521F2E710BD00BF0C34002068
:108EE000698E0200CCE10300D0E1030010340020C1
:108EF00070B5104C206808B912F05EFE4FF0A04526
:108F00000D4ED5F8043532685340C5F80435236852
:108F1000013B236063B9094810F0EEFD3268D5F8D3
:108F2000043523EA0203064A12681343C5F80435E0
:108F300070BD00BF303400203434002038340020AD
:108F400060340020012303FA00F04FF0A04311B178
:108F5000C3F80C057047C3F8080570474FF0A043ED
:108F600011B1C3F80C057047C3F80805704700003D
:108F7000F8B52AB3132923D9124B134D5200013AE5
:108F80004FF0A0441A602860D4F8043518400F4B05
:108F90004FF4FA76186000274FF40040E0FB0167B9
:108FA0004FF47A7200233046394614F009F8002253
:108FB0000146074810F05CFD10B92B68C4F80C3569
:108FC000F8BD00BF3034002034340020603400206D
:108FD0003834002008B54FF0A04303224FF400318D
:108FE000C3F84427C3F808154FF48021C3F8482775
:108FF000C3F808154FF40021C3F84C27C3F808152F
:10900000C3F850274FF48012C3F808250121054A00
:10901000054810F01BFD18B1BDE8084012F0CCBDAA
:1090200008BD00BFF18E0200F4E10300D8B10F4B80
:109030000F4A18604FF0A0430020C3F83427C3F84C
:109040003827C3F83C27C3F840270A4B4FF00042AB
:10905000C3F80423C3F87C01074BC02283F806231E
:1090600040221A6070470E20704700BF583400201D
:109070000C0003000060004000E100E0124B70B5FE
:109080000024124E124DC3F87C414FF0A043A15D65
:10909000D3F8102501238B40934311D00D49D5F807
:1090A00004250B68981A48BFD01A43F2333398420C
:1090B00006D9D5F804350B60074B20461B68984746
:1090C0000134042CE1D170BD00600040F8E10300E0
:1090D000001001405C3400205834002060DF7047ED
:1090E00069DF704703F096B910B588B000F04AF90F
:1090F00008B112F061FD2B4B0393039B04930C22E8
:10910000002105A814F03EF90023049A8DF81430CC
:1091100005A90120FFF7E4FF08B112F04DFD0C2274
:10912000002105A814F02EF9F823049A059305A947
:10913000A120FFF7D5FF08B112F03EFD04A8FFF70C
:10914000CDFF039B049A9A4204461CD0164B1B6821
:109150005B0418D5154B1B68012B14DD2F21144817
:1091600014F0EAF9A8B12F21114814F0E5F9411CD7
:10917000104B049AD3F8043501920F4A0092022052
:10918000A22205F01FF914B1204612F015FD08B017
:1091900010BD5C21064814F0CFF908B15C21E3E76B
:1091A0000349E5E7A02D0020402E00203C2E0020A2
:1091B000FCE10300001001402CE2030070B5EFF366
:1091C000108672B60C4A946801239CB993600B4BCD
:1091D0000B4DD3F8801029401160C3F88050D3F8AC
:1091E000841051604FF0FF32C3F88420047006B938
:1091F00062B670BD0370FAE7AC54002000E100E0F5
:10920000FC06FFBD10B5084B9A685AB150B9EFF390
:10921000108172B6054A1C6814605C6854609860DE
:1092200001B962B610BD00BFAC54002000E100E0FF
:1092300001600B6843604A68934204BF00234360A7
:109240007047436843B1026891680B4443605268B9
:10925000934204BF0023436070474BDF7047000018
:109260001FB50D4C01A8FFF7F8FF70B9214602A801
:10927000FFF7DEFF039B002BF4D00198D3E9002118
:10928000904702A8FFF7DDFFF4E7052801D012F0B0
:1092900093FC04B010BD00BF68E2030061DF7047BB
:1092A00030B5114B1B7891B0E3B1104D34240DF162
:1092B000020103A8ADF80240FFF7F0FF70B929469C
:1092C00001A8FFF7B5FF029B002BF0D003A8D3E95C
:1092D0000021904701A8FFF7B4FFF4E7052801D06B
:1092E00012F06AFC11B030BD6434002074E2030057
:1092F00010DF704713B5044609496846FFF798FF29
:10930000019808B902B010BDD0E900312046984755
:1093100018B16846FFF795FFF2E71120F2E700BFAA
:1093200084E2030013B5044607496846FFF780FF4F
:10933000019B0BB902B010BD2046D3E90021904734
:109340006846FFF77EFFF3E79CE203000B4991F8C4
:1093500016335A09EC231341DB0706D5084B9A68EC
:109360003AB94FF480030B60704742F2020012F0EA
:1093700023BC1A6842F480021A60704700E100E0E2
:10938000AC540020F7B5184F3C785CBB174E012554
:1093900020463570FFF7AEFF112820D02046FFF79A
:1093A000C1FF134B1868019002A800F8054DFFF7A4
:1093B00005FF104901A8FFF79BFF0446B0FA80F0B3
:1093C000400938709DF80300FFF71CFF3CB90A4BB9
:1093D00034701C70FFF7BAFF2846FFF7A3FF204642
:1093E00003B0F0BD0824FAE766340020653400209D
:1093F00080E203002D9402006734002007B508497D
:109400006846FFF715FF019B13B903B05DF804FB35
:10941000D3E9002090476846FFF713FFF3E700BF4A
:1094200090E20300FFF7EABF0620704730B5754BA6
:1094300014461B6841F20102904287B00D4603F4C6
:1094400080437ED01ED8012845D0002B5DD06E4BC6
:109450001B68002B59DD2F216C4814F06DF8002893
:1094600000F0C4802F21694814F066F8411C684B55
:10947000684AD3F80435009201957B22012004F05C
:10948000A1FF42E044F20102904200F0858044F2E4
:1094900002029042D9D1002B37D05B4B1B68002BC6
:1094A00033DD2F21594814F047F800286BD02F21C5
:1094B000564814F041F8411C554B2288D3F8043526
:1094C00003926268CDE90152534A009201206C2256
:1094D00004F078FF19E0C3B14B4B1B68002B14DD7F
:1094E0002F214A4814F028F810B32F21474814F0D0
:1094F00023F8411C464B494AD3F804350092CDE984
:1095000001546022012004F05DFF4FF0A0434FF4AE
:10951000F012C3F81825C3F80C25EFF3108372B6C8
:109520004DF6AD6C3E4A1378002B68D107B030BDC4
:109530005C21364814F000F808B15C21D6E73349C5
:10954000D8E7002BE1D0304B1B68002BDDDD2F214D
:109550002E4813F0F1FF68B12F212C4813F0ECFFD7
:10956000411C2B4B2F4AD3F804350092CDE901540E
:109570006322C7E75C21254813F0DEFF08B15C21B8
:10958000EBE72249EDE75C21204813F0D5FF08B155
:109590005C218DE71D498FE7002BB6D01A4B1B6865
:1095A000002BB2DD2F21194813F0C6FFA8B12F21DF
:1095B000164813F0C1FF411C154B2268D3F804353F
:1095C00004926268CDE90252A2680192164A0092A2
:1095D0000120772204F0F6FE97E75C210B4813F098
:1095E000ABFF08B15C21E3E70849E5E75C210748E8
:1095F00013F0A2FF08B15C2135E7044937E730BF1B
:1096000091E700BF402E00203C2E0020A8E203007E
:10961000001001404CE303000CE30300D0E2030020
:10962000EC2D0020EAE203002BE3030007B5002342
:10963000ADF800300146054B01936A4644F2020042
:10964000FFF7F4FE03B05DF804FB00BFE1D70300B1
:1096500001461022014813F08ABE00BF6834002082
:1096600010B50B4C0B490822204613F080FE08224F
:10967000A018094913F07BFEE379042262F3071373
:10968000E371237A022262F38713237210BD00BFB5
:109690006834002060000010A400001000487047EB
:1096A00068340020064B002203F580715A805A600E
:1096B00003F8082B8B42F9D1024B1A60704700BFA8
:1096C0007834002078350020F0B50C4B0C4C1B682A
:1096D000064620227BB1013B14F8330050B104EB65
:1096E000C3056F88B74202D16D688D4202D0013A3E
:1096F000F0D11046F0BD1F23EEE700BF7835002003
:109700007834002030B5084A084C136804EBC305D0
:109710006960012104F833100B44202B08BF00239B
:109720006880136030BD00BF783500207834002099
:10973000C0F30C038B42084438BFA0F50050C01A98
:1097400070470000F0B50D4B0D4A1E6800218E4297
:1097500012D0156800230AE052F8044C04EBC3074A
:1097600014F83340844201D17868F0BD01339D4242
:10977000F2D101310832EAE70020F6E77C3500201B
:109780008435002000B58DB040B99A1C06D0012266
:1097900001A88DF80420029301F022FA034B186807
:1097A00003F0D4FD0DB05DF804FB00BF8835002048
:1097B00010B50378044613B97846FFF737FFE18800
:1097C000A069FFF7B5FFE1690A060B0A101843F11B
:1097D000000110BD10B50378044613B97846FFF7B1
:1097E00025FF607A431C01209840013810BD00001D
:1097F000F8B5037805460E4613B97846FFF716FF0D
:10980000104AA88A0023144619018F5A874214D19E
:10981000002353520C4A1368591C03F007031B0121
:109820001160AA8AE25206B16E781C442846A670DE
:10983000FFF7BEFFC4E90201F8BD0133082BE3D1F5
:10984000E8E700BF90350020103600202DE9F041F8
:109850000E468EB015461C46074610B97846FFF7EF
:10986000E5FE16B97846FFF7E1FE636AA278023397
:109870000593E378A2F10800002B14BF0121022117
:109880000DF1040842424241434604F10C0003F04A
:1098900090FEA3788DF83430237BADF82050022B56
:1098A00016FA85F5CDE906870B960C950FD123693D
:1098B00013B97846FFF7BAFE23690993102305A868
:1098C000ADF8283003F071FE0EB0BDE8F081002342
:1098D000F5E70000B2F5C07F2DE9F04781468846E4
:1098E000174602D97846FFF7A1FE244B00257022C7
:1098F0009A4602FB053494F8486046B9384607F0AA
:109900001AFBE06638B900242046BDE8F08701352F
:10991000042DEED1F7E730224946204613F027FD0B
:10992000B8F1010FE664A4F84A701DD1144B84F815
:1099300052601B7D84F8513084F8536084F8506085
:10994000D9F8283063656FF00103A3620D4BA4F8CA
:109950005860A3632464012002F01AF9702303FB0A
:1099600005A585F84880CFE76FF00103A362064B99
:10997000A36584F868602466044BEAE72C3600206F
:1099800014360020D59E0200E1A50200CD9E020003
:1099900010B50446C06E07F0D0FA04F1300002F0B2
:1099A0005DFF94F84830022B03D104F1500002F01F
:1099B00055FF20467022002113F0E4FC002084F8BB
:1099C0004800BDE8104002F0E3B810B590F8483008
:1099D000012B8CB0044602D07846FFF727FE012306
:1099E0008DF8043001A8636D029301F0F9F8204668
:1099F000FFF7CEFF0CB010BD10B50446808A02F010
:109A00004FFB01281CD1237BD3B194F91620002AE7
:109A100018DBE27D5AB1022B12D094F90330002BEF
:109A200010DBA378002B0CBF0020072010BDE278CC
:109A30000AB9012B06D1237833B9A378042BF2E7B6
:109A40001020F3E70720F1E70020EFE71FB5002221
:109A50000B468DF80F2028B30230086018460DF130
:109A60000F0103F0A4FD9DF80F30DBB1144B1B6810
:109A70005B0717D5134B1B68032B13DD2F211248EF
:109A800013F05AFD98B12F210F4813F055FD411CDA
:109A90000E4B0F4AD3F804350092042040F23742AF
:109AA00004F090FC9DF80F0005B05DF804FB5C210C
:109AB000054813F041FD08B15C21E5E70249E7E7FD
:109AC000402E00203C2E0020A9E30300001001409E
:109AD000C6E3030070B50446D0E906128CB0808A54
:109AE00005F0B4FB0546A0B12C22002101A8A68AEE
:109AF000E46913F047FC0F238DF804304FF00003A6
:109B000064F3000301A8ADF808608DF80A3001F095
:109B100067F828460CB070BD2DE9F04F99461378D0
:109B2000D2F81880F3B007468A46144623B1D1888C
:109B30004046FFF7FDFD9061E378A278002BA2F18B
:109B4000080003AD14BF0121022104F10C064242BA
:109B50002B464241304603F02CFDA278C4F8188011
:109B6000CDE908571FFA8AF5AB1A9BB21F44ADF82E
:109B70002830E3780E974FF0000812AF0D978DF85C
:109B80003C20ADF83080002B65D04FF0100B04F175
:109B9000240A237BC4F82480022B02BF2369ADF87A
:109BA00030B00B93206A217952460FF093FB606A24
:109BB00030BB237B022B05D13146E0890FF02AFC14
:109BC0000028E6D1374B1B685B0741D5364B1B6835
:109BD000052B3DDD2F21354813F0AEFC002858D071
:109BE0002F21324813F0A8FC411C314B314AD3F8E5
:109BF00004350092062040F20E7204F0E3FB27E0E9
:109C000007A9FFF723FF0028CCD02046FFF762FF0B
:109C1000F0B9A2780B908DF81C0096E80300A38A97
:109C2000ADF82A30AD1A0CAB01228DF8282083E85C
:109C30000300A37D8DF84030236A0E9307A8636A62
:109C40000897ADF824500F93CDF8449000F0C8FF6A
:109C500073B0BDE8F08F227B012AB3D1A046E08922
:109C6000B4F814A048F8243F41460FF067FB07A959
:109C7000606AFFF7EBFE0028C7D16062414650469C
:109C80000FF05CFB07A9606AFFF7E0FE002899D09F
:109C9000BBE75C21054813F04FFC08B15C21A0E74D
:109CA0000249A2E7402E00203C2E0020A9E3030039
:109CB000001001406CE40300C37D0A7830B5002B2E
:109CC0003DD0C37822F07F0203F07F031A430A706D
:109CD0000B78027803F07F0343EAC2130B7003781A
:109CE00063B38378083B5A425A414B7803F07F03B1
:109CF00043EAC2134B708A78C58802F00302C5F3A9
:109D0000861442EA850223F07F032343D2B28A708D
:109D10004B70CB78057A03F01F03C5F3C10422F022
:109D2000030243EA45132243DBB2CB708A70427AC6
:109D300023F01F0302F01F021343CB7030BDC47821
:109D400022F0400343EA8413DBB20B70027923F064
:109D50003F0302F03F0213430B70B9E72DE9F041D6
:109D6000837890461344C27D002A14BF0B220F2231
:109D7000934286B004460F462FD8024612F80C1BB9
:109D80000092002914BF042501252B440293836A05
:109D90000193C36A0393684600238DF8103003F0E3
:109DA000A4FD064670B9059920460D44FFF784FFCF
:109DB000E37D5BB142463946284613F0D8FA68463F
:109DC00003F0B4FD304606B0BDE8F08123464246BC
:109DD00029463846FFF73AFDF1E70926F2E7000089
:109DE00038B590F84830012B044602D07846FFF78A
:109DF0001DFC02F073FD237B074A012B05BFD2E94E
:109E00000315A37DD16805FB0311014404F1300063
:109E1000BDE8384002F039BD1436002070B50D465B
:109E200090B0044610B97846FFF700FC94F848302B
:109E3000022B03D100212046FFF7DAFC2C2200215F
:109E400005A8666D13F09EFA102305A88DF814304E
:109E500006968DF81C5000F0C3FE2046FFF798FDD3
:109E6000154B1B685B071BD5144B1B68032B17DDB9
:109E70002F21134813F060FBA0B12F21104813F0DD
:109E80005BFB411C0F4BD3F80435029594F8482036
:109E900001920D4A0092042040F22E2204F092FA20
:109EA00010B070BD5C21064813F046FB08B15C2180
:109EB000E4E70349E6E700BF402E00203C2E0020E7
:109EC000A9E303000010014078E3030008460021E5
:109ED000FFF7A4BF10B591F84830012B0C4602D013
:109EE0007846FFF7A3FB94F851305BB1013B84F84F
:109EF0005130002384F85030084BBDE810401868FA
:109F000003F024BA217B0129204603D1BDE810408B
:109F1000FFF784BFBDE81040FFF757BD883500202C
:109F20002DE9F04F044689B00F4609B100230B60BC
:109F300004F10C0394F8505001934FF001084FF0D6
:109F4000000B627AAA4203D2002009B0BDE8F08F6C
:109F5000E16C08FA05F30B4259D1E37D2572002B21
:109F60000CBF0C260826954206FB05FA237808BF8D
:109F7000B4F84A608DF818B008BFA6EB0A06002BAB
:109F800014BF4FF004094FF0010906EB09030493D5
:109F9000019B0293A36A039302A8E36A059303F06B
:109FA000A4FC0028D1D1079B994445B994F85330BB
:109FB0002BB9A36984F85380C3F30C03E380E37DDA
:109FC0008BB994F8523073B915B17846FFF72EFB70
:109FD000B4F84A10A2788A1AE16E23460846FFF7C1
:109FE00035FC84F8528007992046FFF765FEE16E44
:109FF00032465144484613F0BAF902A803F096FCE1
:10A0000017B13B6801333B606B1C84F8503001355D
:10A01000EDB296E72DE9F04307468FB0104688462B
:10A0200015469946FFF756FD0446002860D1EE78A4
:10A03000002E40F0AE80B8F1060F59D138787A780A
:10A04000DFF8A8C1830103F4FE5343EA9203D7F873
:10A0500002204FF0700812BA674608FB04C696F853
:10A060004810012925D1B6F814E0E9898E4520D1A0
:10A07000F18899421DD1B6F858E0A98ABEF1000FC7
:10A0800001D08E4515D110F0800F4FF070033BD0FA
:10A0900003FB0473A3F85810702303FB0474E56CEE
:10A0A0001543E564002A61D103213046FFF7B6FE6F
:10A0B0001EE00134042CD0D1464B1B685B0717D53A
:10A0C000454B1B68012B13DD2F21444813F034FA54
:10A0D00088B12F21414813F02FFA411C404B414ACF
:10A0E000D3F804350092022040F2846204F06AF949
:10A0F0000FB0BDE8F0835C21384813F01DFA08B1B9
:10A100005C21E7E73549E9E703FB0473DB898B4210
:10A11000C2D0304B1B685A07EAD52F4B1B68012B66
:10A12000E6DD2F212D4813F007FAB0B12F212B487F
:10A1300013F002FA411C2A4BAA8AD3F80435029282
:10A14000702202FB04740220E2890192264A0092E6
:10A1500040F28C6204F036F9CAE75C211F4813F024
:10A16000EBF908B15C21E2E71C49E4E73046FFF770
:10A1700031FB854203D13046FFF727FCB8E70021C9
:10A1800084F850103046FFF7CBFE3046FFF728FE2C
:10A19000AEE73046FFF7D6FA03460028A8D005F10F
:10A1A0000C012A6A0B9203C9AA8AADF8222009AAD7
:10A1B00082E80300AA7D8DF830202A788DF82020CF
:10A1C000EA6A8DF81460CDE906780D92494605A833
:10A1D00098478DE7402E00203C2E0020A9E3030085
:10A1E00000100140D9E3030007E403002C360020EF
:10A1F000F0B5C37D15468278002B2A4414BF4FF476
:10A2000080734FF4C0739342C7B00E4679D3404C6D
:10A210000023E11891F84870012F08D1B1F814C05B
:10A22000878ABC4503D1CF89C1898F426BD07033F7
:10A23000B3F5E07FEDD10121FFF74CFB0446002888
:10A2400063D02A463146C06E13F091F8002304A96A
:10A2500020460493FFF764FE30F0040506464BD118
:10A26000049B13B12046FFF7BBFD2A4B1B685B071D
:10A2700028D5294B1B68032B24DDB4F84A10274B43
:10A280008029186828BF8021002305AE8B421CD18D
:10A2900000222F21224806F8132013F04DF910B3A5
:10A2A0002F211F4813F048F9411C1E4B1E4AD3F8BA
:10A2B000043501921D4A0092029640F27152042028
:10A2C00004F080F8284647B0F0BDE26ED25C170972
:10A2D00002F00F02C75D06F81370875C06EB4302BD
:10A2E00001335770D2E75C210D4813F025F908B10E
:10A2F0005C21D6E70A49D8E72046FFF749FB3546F7
:10A30000E0E70925DEE70825DCE70425DAE700BFFA
:10A310002C360020402E00203C2E0020442E002011
:10A32000A9E30300001001409BE3030086D703006C
:10A3300010B54FF4E0720021134813F023F8002405
:10A3400004F0F4FF114B12481C602146802213F0E8
:10A3500019F8104B1049114A11489C75C3E90012B5
:10A3600010494CF25032C3E902211A6140F604024E
:10A370009A8202F0CDFF0C4B18600C4B0C481C600D
:10A38000BDE8104005F0D4B82C360020103600206F
:10A39000903500201436002080969800F049020085
:10A3A00015AB020020A10700883500207C35002075
:10A3B0008597020004F042BF30B504468DB00028F6
:10A3C0006CD00369002B69D0C369002B66D0856906
:10A3D000002D63D05A788DF804201A780993838A67
:10A3E00082F001020B2B8DF80320027B43D901215F
:10A3F000022A8DF8001001D1294A927D002A44D109
:10A40000042213448DF802200B330C2293FBF2F349
:10A41000013B8DF8093000238DF8083094E80300E3
:10A4200000238DF8173003AB83E803002389ADF8D0
:10A430001430A37A8DF81630236A0A932046DF235E
:10A4400008950B930FF08CF828B12378012B0CBFE3
:10A450002023FF230B9368462569A48AFFF7CCFAD3
:10A4600038B99DF800302246294668469BB1FFF76F
:10A47000BFFE0DB030BDC17A0029B8D1012A0CBF92
:10A48000012200228DF8002001D10822B9E704231F
:10A490008DF80230C2E7FFF761FCEAE70E20E8E73B
:10A4A00014360020F0B503468DB00F46002843D087
:10A4B0004568002D40D08669002E3DD08468027822
:10A4C0008DF803200B2C4FF00002099294BF027B01
:10A4D000012202F0010100208DF800108DF8020029
:10A4E00032B1E11DC90801398DF809108DF8080055
:10A4F00003F1100103C901228DF8172003AA82E895
:10A500000300DA89ADF814201A7F1B6A08966846A2
:10A510008DF81620CDE90A73FFF76EFA38B99DF869
:10A5200000302246294668461BB1FFF761FE0DB098
:10A53000F0BDFFF713FCFAE70E20F8E770B5067BD5
:10A54000012E8CB004460D4646D10B2200216846F0
:10A5500012F018FF9DF80120E3888DF8055002F0F5
:10A56000030242EA83028DF801202A0E8DF80220B0
:10A570002A0C8DF803202A0A8DF8042062788DF8C1
:10A580001C60911E4A424A41C3F3861343EAC21338
:10A590008DF8003006230593A38AADF81E30002302
:10A5A00008938DF80C308DF81830E389ADF81A3027
:10A5B000E36A0B93A37D226ACDF810D0099243B9C8
:10A5C0006FF0010103A88DF82830FFF76BFF0CB086
:10A5D00070BD024B5B7DF3E70020F8E714360020E6
:10A5E00010B591F84830022B0C4602D07846FFF7A0
:10A5F0001DF8022384F8683094F84830022B06D105
:10A60000E16C2046FFF79AFF08B984F8680010BD96
:10A610002DE9F04F0C469FB090461F460546002896
:10A6200000F0A781002A00F0A48121B90926304654
:10A630001FB0BDE8F08F1822414609A812F097FE1E
:10A640002B78002059B2CA0F81428DF81820ACBF78
:10A650000122042294428DF81900E7D39DF82F605F
:10A66000EEB103F07F0381428DF81B308DF81A00A4
:10A670002EDA6A78AB78920102F4FE5242EA930233
:10A68000ADF81E20DB00EA7803F0180343EA52130A
:10A6900002F01F028DF820308DF8212018E0C3F35E
:10A6A0008010002903F03F038DF81B008DF81C304B
:10A6B00008DA95F90130002BACBF042308238DF88C
:10A6C0001A30D6E704231A4494428DF81A30ADD3D9
:10A6D00000230F933B78032B02D97846FEF7A6FFA1
:10A6E0003A78A54B06A853F822301193FFF784F966
:10A6F000064600289BD1D8E90312B8F8080004F0F8
:10A70000E1FD002893D13146082204A812F03AFE58
:10A7100004A9B8F802000EF07DFE38B19DF819309A
:10A7200043F001038DF81930059B0A939DF8193009
:10A73000002B3FF47CAF9DF81820002A00F0078121
:10A740008E4A4FF0000A934602EB0A0393F8481032
:10A75000022940D00AF1700ABAF5E07FF4D19DF8E1
:10A76000183013B97846FEF761FF06A8FFF720F806
:10A77000BDF82CE0824A4FF0000C4FEA0C1838F874
:10A78000023073453DD19044D8E9029A514508BF43
:10A79000484536D106AD0FCD12AC0FC40FCD0FC456
:10A7A00095E80F0084E80F0098F802308DF84930E2
:10A7B000002B3FF43CAF12A8FFF70CF8014612A89B
:10A7C000FFF7BCFE98F80230DC077FF530AF06A833
:10A7D000FFF780F92BE7988ABDF82C108842B9D191
:10A7E00006A8CDE90232FEF7E3FF029B8046184639
:10A7F0008946FEF7DDFF894508BF8045039AA9D247
:10A8000015E70CF1010CBCF1080FB6D10023702242
:10A8100002FB03BA9AF84810022915D1BAF81410AD
:10A82000714511D106A8FEF7C3FF80465046894600
:10A83000FEF7BEFF494508BF404580F0AD800521C9
:10A840005046FFF7EBFA02E00133042BE0D19DF80C
:10A850002F209DF82130002A0CBF4FF00C084FF03C
:10A86000080803FB08880CBF4FF4C0734FF48073D3
:10A87000984529D9434B1B6858077FF5D8AE424B02
:10A880001B68002B7FF7D3AE2F21404812F054FEF7
:10A8900088B12F213D4812F04FFE411C3C4B3D4AF0
:10A8A000D3F804350092CDF8048040F292320120B2
:10A8B00003F088FDBBE65C21344812F03DFE08B190
:10A8C0005C21E7E73149E9E7BDF81E100C98FEF777
:10A8D0002FFF0D9A0146BDF82C0004F0F3FC002870
:10A8E0007FF4A5AE4246022106A8FEF7F3FF82469A
:10A8F000002851D1014606A8FFF720FE2C22514620
:10A9000012A812F03FFD10238DF8483012A8022340
:10A910008DF8503000F064F989E65C211B4812F094
:10A920000BFE08B15C2146E0184948E0002B0CBF43
:10A930000C2308239C4200F0A28004215046FFF71C
:10A940006DFA74E63B465246FFF7E6F8CDE0DA07CB
:10A950007FF56DAE9DF82F30681C611E23B13B461C
:10A9600006AAFFF757FB62E63B4606AAFFF7D4F8B4
:10A970005DE60E265BE600BF68E303002C36002090
:10A9800090350020402E00203C2E0020A9E303003B
:10A990000010014048E40300584B1B685B071BD5BF
:10A9A000574B1B68032B17DD2F21564812F0C4FDAF
:10A9B0000028B2D02F21534812F0BEFD411C524B4B
:10A9C0009DF82020D3F804350192504A00920420CB
:10A9D0004FF4717203F0F6FC9AF84830022B02D063
:10A9E0007846FEF723FEDFF82881D8F8009001F0C2
:10A9F00075FF09EB00010AF1300001F046FF9AF8FB
:10AA00000C30012B1AD19AF86830BBB99AF848304B
:10AA1000022B02D07846FEF709FED8E9013298F8F9
:10AA2000151002FB013801F059FF00EB08010AF193
:10AA3000500001F02AFF01238AF868309DF82010A9
:10AA4000DAF84C3001228A4013427FF4F0AD134310
:10AA5000CAF84C309DF82F309AF80920002B0CBF13
:10AA60004FF00C084FF008088A42A4F1040408FBD8
:10AA700001F87FF45BAF08EB0403AAF84A30DAF878
:10AA800018200C9B9A420BD20DF1240EBEE80F0049
:10AA90000AF10C0CACE80F009EE803008CE8030000
:10AAA000DAF86C002246291D404412F060FC504642
:10AAB000DAF84C40FEF78EFE84427FF4B8ADDAF847
:10AAC0004C105046FFF73AFD9AF80130D9070CD5E3
:10AAD0009AF81730DAF86C00BAF84A10002B3FF4F5
:10AAE00031AF3B465246FFF795FA50460121FEF73B
:10AAF0007FFE5046FEF74CFF99E500BF402E002038
:10AB00003C2E0020A9E30300001001405CE4030098
:10AB1000143600202DE9F341194E00243746A04693
:10AB2000351995F84830012B0CD102A9284641F877
:10AB3000048DFFF7F5F9042801D0019B13B12846D5
:10AB4000FFF74EF97034B4F5E07FE9D100257C19A8
:10AB500094F84830022B0AD194F86830022B06D1C1
:10AB6000E16C2046FFF7EAFC08B984F8680070350C
:10AB7000B5F5E07FEBD1012002B0BDE8F08100BF68
:10AB80002C3600202DE9F04188460746E8B1124EE8
:10AB90003468C4B92546454507D1104BC3E9007553
:10ABA000012333602046BDE8F08107EBC5035B68F5
:10ABB0005BB117F83500030609D450B1FEF7C2FDAA
:10ABC00038B90135E7E70424ECE70E24EAE70B2463
:10ABD000E8E70F24E6E700BF7C3500208035002041
:10ABE000F8B5074610B97846FEF720FD0F4E3468D9
:10ABF00094B10F4D01232B7023791BB954F8043CF9
:10AC0000384698472468002CF6D12B78022B03D1C4
:10AC10003168064C09B92970F8BD0B790E6813B17B
:10AC2000204603F054FB3146F4E700BFF037002024
:10AC3000EC37002010B5044610B97846FEF7F6FC54
:10AC400000232372211D0248BDE8104003F01EBB03
:10AC5000F03700200B888268D25A073222F00302B4
:10AC6000134402889BB2043A934288BF00230B80AE
:10AC7000704713B58368CB1A02A921F8023DFFF78C
:10AC8000E9FFBDF806308068184402B010BD70B509
:10AC9000064615460C4611BB7846FEF7C7FCFEB1CA
:10ACA0007846FEF7C3FC6B1E2344B3F1005F34D932
:10ACB0004FF08052D2F80C2102F50022B3EB822F24
:10ACC0002ED2042D02D87846FEF7B0FC3580002342
:10ACD000043D7380B380B4602580A37070BD10B94B
:10ACE0007846FEF7A3FCB4F1005F12D94FF0805311
:10ACF000D3F80C3103F50023B4EB832FD3D34FF0FB
:10AD00008053D3F80C3103F50053B4EB832FC7D233
:10AD1000C9E7B4F5000FF2D8C2E7B3F5000F08D9C0
:10AD20004FF08052D2F80C2102F50052B3EB822F83
:10AD3000C7D37846FEF77AFCC3E738B5044610B9A6
:10AD40007846FEF773FC6288A36813449B78012B56
:10AD500002D17846FEF76AFCEFF3108572B6A2685E
:10AD6000A18811448B78032B0AD12046FFF781FF7D
:10AD7000A368C31A63800023837005B962B638BD27
:10AD8000002393706380A380F7E7F8B50E4615465D
:10AD9000044610B97846FEF749FC16B97846FEF726
:10ADA00045FC6288A36813449B78012B02D1784646
:10ADB000FEF73CFC002D37D02388043B9BB29D421C
:10ADC00032D8EFF3108772B66188A388EA1D22F0AB
:10ADD0000302994292B204D25B1A9A4210DD042017
:10ADE00016E018D92088401A904209D29A42F6D823
:10ADF000032881BFA3685B1804229A700023638034
:10AE00006288A1688B188D5201229A7000203360ED
:10AE100007B962B6F8BDA26813449B78002BDED157
:10AE200093706380A380EBE70920F3E7F8B50D4644
:10AE30001646044610B97846FEF7F8FB15B9784671
:10AE4000FEF7F4FBAB78012B02D07846FEF7EEFB61
:10AE50002B88B34202D27846FEF7E8FB16B9784653
:10AE6000FEF7E4FBEFF3108772B60223AB70E11834
:10AE70002E802046FFF7EEFE6288A38893421FBF14
:10AE8000A3689B1800229A7007B962B6F8BD70B526
:10AE90000D46044610B97846FEF7C8FB15B978464A
:10AEA000FEF7C4FBEFF3108672B6A288A3681344C2
:10AEB0009A78042A06D1211D2046FFF7CBFEA288EE
:10AEC000A36813449A78022A03D0032A08D00520E5
:10AED00003E003229A702B60002006B962B670BDB1
:10AEE0007846FEF7A3FBF7E738B5044610B9784675
:10AEF000FEF79CFBEFF3108572B6A088A1680144B1
:10AF00008B78042B03D12046FFF7B3FE01468878E7
:10AF1000831E5842584105B962B638BD38B504465B
:10AF200010B97846FEF782FBEFF3108572B6A08861
:10AF3000A16801448878C31E012B05D9831E58429D
:10AF4000584105B962B638BD2046FFF792FE01466A
:10AF5000F0E7F8B50D46044610B97846FEF766FBF3
:10AF600015B97846FEF762FBEFF3108672B6AB7840
:10AF7000012B19D0032B22D1A288A36813449D4230
:10AF800002D07846FEF752FB0027AF70211D204605
:10AF9000FFF760FEA288A36813449B78042B00D1BE
:10AFA000A78006B962B6F8BD6288A36813449D42C3
:10AFB00002D07846FEF73AFB0023AB70F1E7784603
:10AFC000FEF734FBEDE710B5EFF3108472B682881C
:10AFD000816811448B78042B02D1FFF74AFE0146A9
:10AFE0008878B0FA80F0400904B962B610BD0379E0
:10AFF00042799B1A03F57F2303F6FF7300EB0330BE
:10B000007047000010B5054884681C22002112F02A
:10B01000B9F92046BDE8104003F066BFF4370020C0
:10B0200070B5194CE36813B97846FEF7FFFA237E32
:10B0300013B17846FEF7FAFA6368092B02D978460D
:10B04000FEF7F4FA114D0026636855F8233098474F
:10B05000022811D003280DD0012810D163680133D4
:10B06000092B636002D97846FEF7E0FA237E002BB5
:10B07000EAD004E06660F9E7237E0BB1207070BD72
:10B08000BDE87040FFF7BEBFF437002098E403002E
:10B0900010B50388044613B97846FEF7C7FA20882E
:10B0A000074B04EB800030EA030203D06288B2F55C
:10B0B000FE4F04D11C4004F580542078204410BD7C
:10B0C00000F0FFFF70B504460E4647F6FE65FFF739
:10B0D000DFFFB04207D2844205D24388013B9BB2D6
:10B0E000AB42F4D870BD0020FCE700000B78032BC6
:10B0F000094B04BF00221A761A78012A03D11B7E5D
:10B1000043B9FFF78DBF022A04D10B78032B01D17D
:10B11000FFF778BF704700BFF437002010B50C4C24
:10B12000E3681878002203F58051184404F0C4F94C
:10B1300050B9E1680846FFF75AFF814206D001F591
:10B140008051E160032010BD0120FCE70220FAE7F6
:10B15000F43700201FB50A4B02221B688DF800202F
:10B160000193084A4FF4805369460120029300F08E
:10B17000D9FEB0FA80F0400905B05DF804FB00BFCD
:10B1800014380020103800201FB50123CDE902211A
:10B190000190054A8DF800306946184600F0C2FE5D
:10B1A00005B05DF804FB00BF103800202DE9F04722
:10B1B000254BD86802794179013A91421E4603D164
:10B1C00001205876BDE8F08700F580531F491C78B0
:10B1D0001C440B6813F8045F1D44FFF708FF6388E5
:10B1E000013B9BB247F6FE62934200F580578846CA
:10B1F00004D920463946FFF765FF0446DFF850A022
:10B200004FF001092CB9B4FA84F464097476012072
:10B21000D8E7D8F800106288284601F5805104F07C
:10B220004BF905460028EED004225146204686F808
:10B230001890FFF7A9FF28B920463946FFF742FFCB
:10B240000446DFE70020BDE7F43700201438002073
:10B250005CE6030038B5104CE36818784FF6FF72CF
:10B2600003F58051184404F027F988B1E368197890
:10B270000B4498420CD0657E0849094B0422002DEE
:10B2800008BF1946FFF780FF20B90120207638BD9E
:10B290000120FCE70020FAE7F437002064E6030011
:10B2A00060E6030070B50C4D0C4EE96830680C7810
:10B2B00004302246FFF768FF58B9336804F0FC04F5
:10B2C00004341C44EB686C611A7813442B61012030
:10B2D00070BD0020FCE700BFF437002014380020C8
:10B2E00008B5054B054918680422FFF74DFFB0FA71
:10B2F00080F0400908BD00BF14380020003800204D
:10B3000010B5074B074C1968E06840F6FC72043131
:10B31000FFF73AFF10B90120207610BD0020FCE7AE
:10B3200014380020F437002010B50C4CE1680846B2
:10B33000FFF75DFE81420AD1094B0A4918680422D1
:10B34000FFF722FF40B901232376022010BD01F54B
:10B350008051E1600320F9E70020F7E7F43700208F
:10B3600014380020183800202DE9F74F324C23699B
:10B3700013B97846FEF75AF9636913B97846FEF7B0
:10B3800055F9DFF8B89047F6FE6A6369D4E9030619
:10B3900003EA0908A8EB0308FFF729FE7388013BBD
:10B3A0009BB2534508F5805800F5805B06D93046BE
:10B3B0005946FFF787FE0646002835D03546002758
:10B3C0005D4519D22A8807EB8202904509D986EAA1
:10B3D000050313EA090F04D16B88013B9BB2534567
:10B3E00002D957B9012318E028460192FFF750FE11
:10B3F000019A05461746E3E7E7B13A4631466069E8
:10B40000FFF7C2FE90B963691F44676115B97846BA
:10B41000FEF70CF92561002335B1698847F6FF7204
:10B42000914201D0002BB0D0012000E0002003B0F9
:10B43000BDE8F08F0123EFE7F437002000F0FFFFB5
:10B440001FB50A4B0222DB688DF800200193084AE1
:10B450004FF4805369460120029300F063FDB0FA77
:10B4600080F0400905B05DF804FB00BFF437002010
:10B470001038002010B54FF010235A69013225D042
:10B480005A691AB35B69A3F58053A3F58053174A31
:10B49000196813604B1E033325D8C1F30B0313BB8C
:10B4A000134A1448D1600121117013491376537661
:10B4B000936051F8234084420ED1536001200F491C
:10B4C00000F020FDFFF7ACFD012010BD4FF08052D1
:10B4D000516913694B43D8E701330A2BE9D1784608
:10B4E000FEF7A4F8EAE70020EFE700BF14380020D9
:10B4F000F437002041B4020098E40300EDB00200EC
:10B5000010B5044610B97846FEF790F8094B187844
:10B5100060B1E068D9684379A0EB0333994206D360
:10B52000FFF765FD81428CBF0020012010BD002087
:10B53000FCE700BFF4370020024B1878003018BF3A
:10B5400001207047F437002038B50E4C23780546AB
:10B5500013B17846FEF76AF82B78032B02D07846B1
:10B56000FEF764F8EB68E360012000230649A5605C
:10B57000636023762070637600F0C4FCBDE8384039
:10B58000FFF74EBDF4370020EDB00200014B186804
:10B59000704700BF1438002010B5044610B9784633
:10B5A000FEF744F863681BB123680BB1A36813B9B5
:10B5B0007846FEF73BF8A3685A1E1A4202D0784636
:10B5C000FEF734F80023C4E9033310BD70B50E460E
:10B5D0000446F0B18368F3B1EFF3108572B6D0E999
:10B5E0000331994203D105B962B605250FE04EB18A
:10B5F0008368013B0B40D0E90012304602FB031187
:10B6000011F0B5FE23690133236135B962B62846CE
:10B6100070BD0E25FBE70925F9E70025F7E70000D7
:10B62000024AD2F80034002BFBD0704700E0014002
:10B63000C0F30B0310B5E3B9E9B1104C0223C4F811
:10B640000435FFF7EDFF01F6FF7121F47F6121F072
:10B650000F010144884205D10020C4F80405FFF71A
:10B66000DFFF10BDC4F80805FFF7DAFF00F58050D2
:10B67000F0E71020F5E70920F3E700BF00E0014004
:10B6800070B540EA010414F003041BD1E2B1950740
:10B690001AD10E4E0123C6F804359508FFF7C0FFF6
:10B6A000AC4205D10020C6F80405FFF7B9FF70BD14
:10B6B00051F824305A1C03D040F82430FFF7B0FF73
:10B6C0000134EDE71020F2E70920F0E700E0014047
:10B6D0004388012B05D0022B01D1043008600120E2
:10B6E000704704304860FAE708B50822022109488B
:10B6F00003F055FA20B90848BDE8084003F0CCBB78
:10B70000064A91684160127B0272BDE8084003F06E
:10B7100075BA00BF24380020002E002070380020A9
:10B7200010B5044610B97846FDF780FF2346BDE802
:10B730001040184700B50A4B1A7B9B688DB0012A50
:10B7400008BF03F1FF3303900CA80493022300F811
:10B750002C3D8DF80820FFF743FA0DB05DF804FB8F
:10B760007038002038B50E4D2B78C3B90D4B5C688E
:10B7700004F50054B4F1807F11D8042201210A4855
:10B7800003F00DFA20B90948BDE8384003F084BB46
:10B79000012344602B70BDE8384003F02FBA38BD58
:10B7A000843800207038002024380020F02D00203C
:10B7B00010B501210C4803F037FA80B902210A487C
:10B7C00003F032FA044650B901461422074811F03A
:10B7D000D9FD074B1C70BDE81040FFF7C3BF0548FB
:10B7E00003F05AFBF7E700BF243800207038002030
:10B7F00048380020202E002030B50D468DB07AB993
:10B800004B88012B0AD1124C227812B97846FDF7E9
:10B810000DFF104B6A685A60002323700DB030BDD5
:10B82000032A02D07846FDF701FF2C22002101A84F
:10B8300011F0A8FD11238DF80430074B0395DA6849
:10B840001B69059201A80693FFF7CAF9E6E700BF56
:10B8500084380020703800202438002013B501F00F
:10B86000E7FC00216B46124A1248134CCDE9001147
:10B8700003F0E8F8009B0BB1019A6AB9002323603A
:10B88000A3602373FFF730FF23686360FFF76AFF4D
:10B8900001F00EFD02B010BD1968A1601979217385
:10B8A000934203D91B790BB92360EDE71368FBE7DB
:10B8B000D1B60200243800207038002008B503F00B
:10B8C00039FBA0F5805008BD7FB5002118226846DD
:10B8D00011F058FD00230293FFF7F0FF01230090C1
:10B8E00001936946054B0648039303F0C5F910B16F
:10B8F000044803F0D1FA07B05DF804FBF9B7020081
:10B9000024380020102E002008B5142200210A48F7
:10B9100011F038FD00F0E2FF084B094A09499A602E
:10B9200000225860C3E903125A61074B1A70BDE840
:10B930000840FFF7C9BF00BF703800204C38002016
:10B9400039BA0200008793038538002010B5074CF0
:10B9500023784BB90648074B036000F059FD0648B1
:10B9600000F05AFF0123237010BD00BF20380020D3
:10B97000643800209DBA02004C38002010B501F058
:10B9800057FC104A117B1346C9B9917BB9B9118A8A
:10B9900041F28262914202D80B4A12787AB10122B6
:10B9A0001A739A68002401321C829A60FFF79CFE89
:10B9B0002046FFF7BFFE01F07BFC204610BD0824A7
:10B9C000F9E700BF703800208538002010B501F07D
:10B9D0002FFC174A547B1346BCB1917B21BB118AC3
:10B9E00041F28262914202D8124A1278F2B11A7B75
:10B9F000002058732AB1012A0BD07846FDF716FEB5
:10BA000003E0FFF7BBFF0028F7D101F051FC20460F
:10BA100010BDC3E9000018731882FFF78BFEFFF713
:10BA200063FEFFF79FFEF0E70024EEE71446ECE725
:10BA3000703800208538002010B5164C237B2BB1C0
:10BA4000012B12D07846FDF7F1FD18E0228A41F271
:10BA500082639A4202D8104B1B7883B1FFF7B6FF7E
:10BA6000638A0BB1013B638210BD228A41F282617D
:10BA70008A4208D8084B1B780BB1FFF7A7FF238A2F
:10BA800001332382ECE742F2B0118A42F5D96373A5
:10BA9000E4E700BF703800208538002010B5037837
:10BAA000042B0ED143681B785BB11D4B4269197B97
:10BAB000047E71BB598A01BB012C996802D08A426D
:10BAC00003D810BD4C1CA24219D92A318A42F8D899
:10BAD000997B0029F5D184689A60124A1A61C3E9FA
:10BAE000001159731973FFF7FFFDFFF73BFE04F1D7
:10BAF0001000BDE81040FFF71DBE012CE1D1996890
:10BB000001318A42DDD101225A73BDE81040FFF7AE
:10BB10005DBF0129D5D1012CD3D09968F1E700BFD1
:10BB2000703800200000062D38B5164CD4E90023EB
:10BB30009A4205461FD2207B134B1449012808BFA7
:10BB40000B469A4207D263682268403B9A4208D368
:10BB5000FFF708FE05E001236373FFF737FF0028B6
:10BB6000F1D0EFF3108072B623685A1C22602B606C
:10BB700028B962B638BDFFF7F5FD0F20FAE70020BF
:10BB8000F8E700BF70380020FFFF7F0000E0FF00F3
:10BB900010B50C4A1368144628B101200A49034421
:10BBA0008873136010BD13B97846FDF73FFD236815
:10BBB000013B2360002BF5D1034A9373BDE810408D
:10BBC000FFF704BF1C3800207038002000B58DB08E
:10BBD0000323ADF808000CA88DF8102000F82C3DC8
:10BBE0000391FEF7FDFF0DB05DF804FB014B986873
:10BBF000704700BF70380020034B98681B7B012BF7
:10BC000008BF00F1FF30704770380020044B9B687C
:10BC10005840C20748BF03F1FF331846704700BFC2
:10BC200070380020014B187B704700BF703800202F
:10BC30002DE9F8431D4CDFF87890002602212046BC
:10BC400002F032FA5FFA86F805460027ADB967B10F
:10BC50002946204602F08FFA082806D154F8043C01
:10BC60001BB12A464946404698470136032E04F147
:10BC7000BC04E3D10120BDE8F88354F8043C34F857
:10BC80000C2C13B129464046984734F80C3C02214D
:10BC90000133204624F80C3C02F022FA022120460F
:10BCA00002F002FA01370546D0E700BF9C380020B9
:10BCB000C0E4030038B5012104460C3002F0F4F969
:10BCC000054628B3164BC4F89C300023C4F8A030B6
:10BCD00003786268012B07D0022B1BD07846FDF752
:10BCE000A5FC4FF4FA7307E081688B1A99084FF4AA
:10BCF000A9734B4303F5FA730A4A934294BFC4F8FD
:10BD0000A830C4F8A8200123C4F8AC4084F8B830A7
:10BD1000284638BD83689B1A1A0B034B5343E9E747
:10BD20004DBD020060850100645E010010B504464F
:10BD3000FFF7C0FF48B104F19C0005F075FD20B18C
:10BD40007846BDE81040FDF771BC10BD2DE9F74FF6
:10BD50004A4B1B7880460D463BB105F09BFD002306
:10BD600085F8B83003B0BDE8F08F01F10C09D1F8C7
:10BD7000A8704846012102F097F9064610B97846A6
:10BD8000FDF754FCDFF8FCA0A7F5FA7700244FF488
:10BD9000A97B3378012BA7EB040406D0022B3BD000
:10BDA0007846FDF743FC00231FE06B68B268B4FBE4
:10BDB000FBF4D21AA400944228BF144624B901937C
:10BDC0007846FDF733FC019BF168706823F00303AC
:10BDD000224619441844FFF753FC10B17846FDF78A
:10BDE00025FC6B681C446C60B3686A689A422AD16F
:10BDF00005F050FD4846012102F072F900236B6006
:10BE000085F8B8301E4B186801F0A0FA284603B038
:10BE1000BDE8F04FFFF78ABF6B68B268B4FBFAF475
:10BE2000D21A2403944228BF144624B901937846B9
:10BE3000FDF7FCFB019B706823F0030321461844C7
:10BE4000FFF7F6FBC9E701F0E7F83378B0EB080439
:10BE500048BFA8EB0004012B0DD0022B06D153469E
:10BE60002344BB4295D905F015FDCFE77846FDF791
:10BE7000DDFB0023F4E74FF4A973F1E78C380020D1
:10BE800088380020645E010070B51B481B4C01F02F
:10BE90003FFA1B4B186004F11C0341F2030608250E
:10BEA000636104F10C0004F118032361A681A573FA
:10BEB00002F03DF904F1D803C4F8D03004F1C80011
:10BEC00004F1D403C4F8CC30A4F8C86084F8CA5094
:10BED00002F02DF904F5CA73C4F88C3104F5C87367
:10BEE000A4F8846184F88651C4F8883104F5C270DE
:10BEF000BDE8704002F01BB931BC02009038002050
:10BF000088380020022838B504460D4602D9784604
:10BF1000FDF78CFB024BBC2202FB0434A56038BD4C
:10BF20009038002002282DE9F84F07460C4692462B
:10BF300002D97846FDF77AFB14B97846FDF776FB0F
:10BF40002378012B12D16368990702D07846FDF758
:10BF50006DFBE3689A0702D07846FDF767FBA3689C
:10BF60009B0711D07846FDF761FB0DE0022B0DD148
:10BF70006368C3F30B0313B17846FDF757FBA3685F
:10BF8000C3F30B03002BEDD1A36813B97846FDF77B
:10BF90004DFBEFF3108872B6BC257D43224E05F1B0
:10BFA0000C09B1440021484602F07EF8834690B364
:10BFB0000021484602F094F810222146584611F01C
:10BFC000D6F9BAF1000F03D073195B88AAF80030D4
:10BFD000BC2303FB07677B8897F8B84001337B805D
:10BFE00004BB124B1F78BFB97019FFF763FEB8F19D
:10BFF000000F0ED162B6444640B105F19C003044BA
:10C0000005F012FC10B17846FDF710FB2046BDE8A4
:10C01000F88F3C46F0E70424B8F1000FF6D1A046B3
:10C020000020E7E70024F7E7903800208C38002054
:10C0300070B5EFF3108672B6144C236818BB13B9B1
:10C040007846FDF7F3FA2368013B236093B9104D5E
:10C0500095F8B83013B92846FFF768FE95F87431A3
:10C0600013B90C48FFF762FE95F8303213B90A484D
:10C07000FFF75CFE2368094A003318BF01231370E1
:10C0800006B962B670BD01332360F3E7C43A0020FD
:10C09000903800204C390020083A00208C380020CD
:10C0A00010B1800B014B185C704700BFD0E4030057
:10C0B00012DF704713B5137863B1022B0CBF07234F
:10C0C000002310F8011C292962D005D8162973D045
:10C0D00002B010BD537DF4E72A2927D02B29F7D1D0
:10C0E000022BF5D110F8021C0139C9B203F04CF94A
:10C0F00004460028ECD0374B1B685B06E8D5364B6E
:10C100001B68012BE4DD2F21344811F015FA0028BB
:10C1100049D02F21314811F00FFA411C304B314AE0
:10C12000D3F8043500920194A62224E0022B01D01A
:10C13000072BCDD110F8021C013901F067FC044631
:10C140000028C5D0234B1B685A06C1D5224B1B685B
:10C15000012BBDDD2F21214811F0EEF978B12F21FF
:10C160001E4811F0E9F9411C1D4B1F4AD3F8043554
:10C17000009201949322022002F024F9A8E75C21A6
:10C18000164811F0D9F908B15C21E9E71349EBE74A
:10C19000022B9DD110F8021C0139C9B202B0BDE8D2
:10C1A00010400EF06DBF5C210C4811F0C5F908B1CC
:10C1B0005C21AFE70949B1E701884FF6E463994292
:10C1C00086D110F8021C0230033902B0BDE81040DD
:10C1D000FDF72AB9402E00203C2E0020F9E4030090
:10C1E000001001403EE5030015E5030070B58AB07C
:10C1F00006F00AF80446002834D000238DF81030E9
:10C2000006460FCE05AD0FC533682B60627D052A4B
:10C210000CD9207D00F00F03072B07D004AB063AA2
:10C2200004F11D0100F00F0004F0B8FE114B1A6874
:10C23000AAB104AB0393237DC3F303038DF8043049
:10C24000637D062B89BF063B00238DF8053004F182
:10C250001D0398BF8DF80530029301A89047204632
:10C2600005F0BCFF05F0EAFF80F00100C0B20AB0A3
:10C2700070BD00BFCC3A0020F7B5354F3A7805467F
:10C28000002A5BD100285BD0067A0F2E01D0062E43
:10C2900058D104F04FFEE86800284CD0FDF7D8F9DB
:10C2A0000DF10700FFF704FF0446002840D19DF878
:10C2B0000730012B48D1FDF7F5F900F097FA304629
:10C2C00000F068FFE87800F01DF900F0A9FD05F026
:10C2D00065FA204806F04AF804F0D8FFFFF7D4FDCD
:10C2E00003F0FCFF00F044FC04F0E4FD04F004FC67
:10C2F000284601F0E1FAFEF71BF803F0B9FBFDF761
:10C3000093F808B1062821D1134804F019FE2A2019
:10C3100004F0BAFE2B2004F0B7FE292004F0B4FE8E
:10C32000162004F0B1FE0D4B00221A6001233B7071
:10C33000204603B0F0BDFDF793F9B1E70824F7E715
:10C340000E24F5E70724F3E70224F1E70446EFE7BC
:10C35000C83A0020EDC10200302E0020CC3A002067
:10C3600037B5244D2A78012A05D002D3033A012A91
:10C3700038D9082428E005F013FF01F0AFFAFEF7E2
:10C3800019F8FDF751F8044650B3062828D01A4B87
:10C390001B685B0418D5194B1B68012B14DD2F217A
:10C3A000174811F0C9F890B12F21154811F0C4F8C1
:10C3B000411C144B144AD3F804350092019440F206
:10C3C000A712022001F0FEFF204603B030BD5C2121
:10C3D0000B4811F0B1F808B15C21E6E70849E8E73D
:10C3E00000F004FF05F012FA04460028ECD1022305
:10C3F0002B70E9E7C83A0020402E00203C2E002098
:10C40000F9E4030000100140D4E40300FDF7D4BFB9
:10C41000FEF710BC08B500F0D3FC002008BD704743
:10C42000044B1A680132B2F1704F08BF01221A6042
:10C4300018687047D03A002010B5044610B9784605
:10C44000FDF7F4F80023C4E9003310BD38B50D46FC
:10C45000044610B97846FDF7E9F815B97846FDF7B6
:10C46000E5F800236B60EFF3108372B6226822B9FF
:10C470002560656003B962B638BD62685560F8E74B
:10C4800010B5044610B97846FDF7D0F8EFF31082E6
:10C4900072B6206808B143682360236803B96360FB
:10C4A00002B962B610BD10B5044610B97846FDF762
:10C4B000BDF8206810BD35DF70473CDF70473DDFB9
:10C4C0007047000008B503464FF0FF30FFF7F3FF59
:10C4D000FF210020FFF7F3FF00201946FFF7EDFFD3
:10C4E000BFF34F8F0549064BCA6802F4E06213435D
:10C4F000CB60BFF34F8F00BFFDE700BF00ED00E052
:10C500000400FA0507289ABF024B33F81000FA20FE
:10C51000704700BF6AE50300024B5868103840B20C
:10C52000704700BF00ED00E0084A202390FBF3F3C2
:10C5300052F82330424202F01F0200F01F0058BFA1
:10C54000504223FA00F000F00100704700E100E0E3
:10C5500046DF704730B501F110031032103013F888
:10C56000014D12F8015D8B4284EA050400F8014D8B
:10C57000F5D130BD2DE9F047144690B002F10F051A
:10C58000102288462D1101460DEB0200994604F059
:10C590000F0410F0ECFE002D51D0002C4FD10126DD
:10C5A000B2461022002108A810F0ECFE04A8FFF704
:10C5B000CFFF01220DF13F0110AB13F9100D1F4603
:10C5C00093F800C04FEA4C0C5FFA8CFC83F800C073
:10C5D00013F801EF4CEADE1C994203F801CCEFD1CD
:10C5E0009DF83F305B00DBB20028B8BF83F08703C3
:10C5F0008DF83F30531C9A454FF00202DCD2013DCA
:10C6000008EB0511FEB10CAA6846FFF7A3FF102244
:10C6100000210CA810F0B6FE0024AC4225DB3A46FF
:10C62000694608A8FFF796FF04A8FFF791FF1022BC
:10C630003946484610F09BFE10B0BDE8F087002652
:10C640004FF0020AADE72246684610F090FE10ABAC
:10C650002344802203F8402C0134102C02D10CAA70
:10C660006946D1E70DF80460F6E708EB0412394695
:10C6700008A8FFF76FFF04A8FFF76AFF0134CCE7B3
:10C6800038B5124B1A6804462AB11A6845685268D0
:10C69000AA1A002A0DDA1A6862611C609A880132AF
:10C6A00092B29A8012B97846FCF7C0FF012323703A
:10C6B00038BD19684A691AB15068401B002802DB6E
:10C6C00062614C61EAE71146F4E700BFD83A002006
:10C6D00010B5124B1A68824204461A460BD14269C1
:10C6E0001A609A8892B2511E89B299808AB97846A6
:10C6F000FCF79CFF0DE01B685BB15969A1420BD1AF
:10C700006169596193889BB2591E89B29180002B4F
:10C71000EDD00023237010BD0B46EDE7D83A002082
:10C72000014B186800F012BED43A0020044B1A687E
:10C7300022B11B680349586800F05AB900F0AEB93D
:10C74000D83A002021C702002DE9F04100F0C6F8D8
:10C75000254E054637464FF00008336823B133684D
:10C760005B685B1B642B06D400F0B8F8FFF7DEFFB4
:10C770000120BDE8F08134682378012B02D078468F
:10C78000FCF754FF63693B60BB88C4F814809BB21C
:10C790005A1E92B2BA8013B97846FCF747FFA368D5
:10C7A00013B97846FCF742FF02232846237021691B
:10C7B000A368984700F092F82378022B0546CCD165
:10C7C000E2680AB92270C8E763686FF06301891AEA
:10C7D0001344091AD018C14204D463602046FFF7FD
:10C7E0004FFFBAE70346F5E7D83A002008B508221C
:10C7F0000021064810F0C6FD054800F089FD054BF4
:10C800001860BDE8084000F05CB800BFD83A0020CE
:10C8100049C70200D43A002010B5044600F06EFE6D
:10C8200010B97846FCF702FF14B97846FCF7FEFE13
:10C83000A36813B97846FCF7F9FE2378012B02D1DF
:10C840007846FCF7F3FE002363612046FFF718FFEC
:10C8500000F044F8BDE81040FFF768BF10B504468B
:10C8600000F04CFE10B97846FCF7E0FE14B97846AB
:10C87000FCF7DCFE2046FFF72BFF0023636100F08E
:10C880002DF8BDE81040FFF751BF38B504460D46FE
:10C8900000F034FE10B97846FCF7C8FE14B97846AB
:10C8A000FCF7C4FE2046FFF713FF00236361204618
:10C8B0006560FFF7E5FE00F011F8BDE83840FFF7CE
:10C8C00035BF08B50DF028F938B90DF065F820B17D
:10C8D0007846BDE80840FCF7A9BE08BD10B5EFF3E7
:10C8E000108072B60C4A0D4B1968D2F80435D2F894
:10C8F0000441012C04BFD2F80435013100B962B6FD
:10C90000074843EA01614FF480420023E0FB012322
:10C91000D00B40EA434010BD00100140E03A002037
:10C9200040420F0010B50A4B0A4C4FF40032C3F8D6
:10C930004823C3F80823226812B97846FCF776FE2C
:10C940002468FFF7CBFF2346BDE81040184700BF1F
:10C9500000100140EC3A002010B5EFF3108072B6E1
:10C960001E4B1F490022C3F804210A6801320A60E5
:10C9700000B962B61B4A116809B311680139116028
:10C980001268E2B9184AD3F804051168884217D230
:10C99000EFF3108072B6D3F8041514680131A14288
:10C9A0002ABFD3F8042512680232C3F8442500B91F
:10C9B00062B64FF40032C3F84423C3F8042310BD19
:10C9C0000A4C226812B97846FCF730FE2468FFF75B
:10C9D00085FF2346BDE81040184700BF0010014006
:10C9E000E03A0020E43A0020E83A0020EC3A002047
:10C9F00037B50023044601930D4611B97846FCF77C
:10CA000015FE204B1D60FFF769FF031B002BB8BF0D
:10CA1000241A1D481D4AA8BF00244FF400450021D8
:10CA20000023E5FB040110F0CBFAEFF31083019330
:10CA300072B6174A174CD2F804350228C3F1FF1119
:10CA400001F57F4138BF02208142134910D30344CE
:10CA5000C2F844354FF40033C2F84433C2F804330B
:10CA6000002323600B60019B03B962B603B030BDA5
:10CA700003F17F43013303441A0E0132226023F095
:10CA80007F43EFE7EC3A002020A1070040420F006F
:10CA900000100140E43A0020E83A0020074B4FF430
:10CAA0000032C3F84823C3F80823054A0023136063
:10CAB000044A1360044A1360704700BF001001402D
:10CAC000E43A0020E83A0020EC3A002030DF7047DA
:10CAD00031DF704710B5D0E900238468C168A2EB4C
:10CAE000731283EAF43303600C441344114444602A
:10CAF0008160C360184610BD37B50C46054610B9B5
:10CB00007846FCF793FD00239C4201D803B030BD6A
:10CB10000DF10700FFF7DAFF9DF807100029F7D0A5
:10CB2000E21A914288BF8DF80720E8189DF8071097
:10CB3000FFF7CEFF9DF807201344E5E737B504461D
:10CB400002A8002340F8043D0421FFF7D5FF074B5E
:10CB50002360019BE360C4E9013314252046FFF7FD
:10CB6000B9FF013DFAD103B030BD00BFED5EEAF17F
:10CB7000704748DF704749DF70474ADF7047000061
:10CB8000064A032313741168054B536140F6D862BB
:10CB9000914288BF43F2B0629A6070471C3B00200C
:10CBA0003C3B0020054B1B68A0F17802283358431A
:10CBB000034BB0FBF3F0101A704700BF383B002066
:10CBC00040420F0038B50E4A0E4C012363711368C2
:10CBD000002501331360257400F078FA04F0D0FECC
:10CBE0002068FFF7DFFF084A0146284600F0E2F917
:10CBF00020B17846BDE83840FCF718BD38BD00BF0D
:10CC0000503B00201C3B002081CB020010B41F4B86
:10CC10005A6928B11968DC6811440134DC60196074
:10CC2000996801240131E24001291C7499605A611C
:10CC30001C680ED002291AD05B69154A1C44944224
:10CC400003D840F6D76293421CD85DF8044BFFF737
:10CC5000B9BFB2F5FA7F03D130B900225A61EBE7D0
:10CC600040F6D8618A42E7D840F6D862F6E7DA683B
:10CC7000022A02D1064A121BF0E7012ADCD1002861
:10CC8000EBD0D9E75DF8044B704700BF1C3B002098
:10CC90008096980070B5424C424D012323712B7849
:10CCA0001BB1414B1E78002E5BD000232374042857
:10CCB00053D8DFE800F0034D4A4844003B4DA179CA
:10CCC000AA68C4E9023323682260002934D0012114
:10CCD00021743749002B08BF0B46991AB1F57A7FAA
:10CCE00026D39A4224D8616143F2B06043F6982279
:10CCF000C5E9020201236B71A371237C023B012B66
:10CD00000DD8637943B104F057FE2068FFF74AFF5E
:10CD100000F00EFA00236371234B00221A70237C6B
:10CD20002448022B04BF012323760023237170BD06
:10CD30004FF47A736361D7E7FFF744FFD4E701202C
:10CD4000FFF764FFD9E70020FAE704F0C7FDD4E756
:10CD500000F082F904F0FAFDCFE77846FCF766FCB4
:10CD6000CBE700F059F92B782060022B0FD0032B72
:10CD700006D0012B10D10223237400232B70BCE7B3
:10CD80000A4B0D490D4A5E71C3E90212A6710323D5
:10CD90002374064B6361F0E77846FCF747FCECE749
:10CDA0001C3B00204D3B00204C3B00203C3B002026
:10CDB000809698002C3B0020A0860100FF1FA10751
:10CDC000043808B5042825D8DFE800F016220A0345
:10CDD0000F00114B1B7E012B1CD1FFF7CCFEC8B1FD
:10CDE0007846BDE80840FCF721BC0B4B00221A76C0
:10CDF000BDE8084004F018BE08480123437143F61B
:10CE0000982240F6D863C0E90232FFF7B6FEE6E7A3
:10CE10000248FAE708BD00BF1C3B00203C3B002055
:10CE20000D4A4FF480710023918043F2B06C43F6B9
:10CE300098211370C2E902C1084A1060084A1370B1
:10CE4000084A1370084A1360084A1371537113603B
:10CE500013760123937170473C3B0020383B002040
:10CE60004C3B00204D3B0020503B00201C3B002051
:10CE700010B50E4C227E012A0CD004D3022A0CBF1E
:10CE80001120002010BD0A48FFF773FE10B178464C
:10CE9000FCF7CCFB0748FFF770FE10B17846FCF7B3
:10CEA000C5FB022323760020ECE700BF1C3B0020DB
:10CEB00095CC02003C3B0020074B1B7C023B012B26
:10CEC00007D9064B1878013802288CBF00200120B2
:10CED00070470120704700BF1C3B00204D3B0020E5
:10CEE000014B1868704700BF1C3B002010B5074B72
:10CEF000587948B11868FFF755FE044600F08CF8E1
:10CF00000346201A48BF181B10BD00BF1C3B002061
:10CF1000014B1879704700BF1C3B0020EFF31083D2
:10CF200072B6054A527922B1044A4FF48071C2F8B0
:10CF3000001103B962B670471C3B002000E100E01D
:10CF4000044B1B7E022B04D1034B01221A70FFF706
:10CF5000E5BF70471C3B00204D3B0020064B1B7E6D
:10CF6000022B07D10128054B0CBF032202221A70A5
:10CF7000FFF7D4BF704700BF1C3B00204D3B002093
:10CF8000064B19781A4631B128B90549097811B10B
:10CF90001870FFF7C3BF1070704700BF4C3B0020F4
:10CFA0004D3B0020024B1B6803B962B6704700BFBF
:10CFB000643B0020022810B522D8EFF31084114BF7
:10CFC0001C6072B6104B43F82020104B002243F82F
:10CFD00020200F4B1B787BB1830003F1804303F5C6
:10CFE00000431030C3F84021012202FA00F0094A40
:10CFF000C2F80403C3F84015FFF7D4FF002010BDAA
:10D000000720FCE7643B0020543B0020703B0020DD
:10D01000603B00200080004008B5EFF310820A4B0F
:10D020001A6072B6094B1B7853B1094B0022C3F842
:10D030004C210122DA64D3F84C05FFF7B3FF08BD99
:10D04000044B1868F9E700BF643B0020603B0020F8
:10D0500000800040683B00202DE9F84FDFF8588041
:10D06000DFF858900024A70007F1804505F500453A
:10D07000D5F84031D3B1D8F8043304F110020126B9
:10D080009640334212D057F809B0BBF1000F02D1DD
:10D090007846FCF7CBFA4FF0000A49F807A0C8F829
:10D0A0000863FFF7B9FFD847C5F840A10134032C46
:10D0B000D9D1BDE8F88F00BF00800040543B00206C
:10D0C000014B1B68184470476C3B002008B5134B9C
:10D0D0000022C3F84025C3F84021D3F84011C3F81B
:10D0E0004425C3F84421D3F84411C3F84825C3F8B4
:10D0F0004821D3F848310A4B1B681BB9094B4FF440
:10D1000080721A60084B01221A70FFF7E7FB014694
:10D11000FFF782FF054B081A186008BD0080004029
:10D12000643B002000E100E0603B00206C3B0020FD
:10D130000B4A0C4900231360536093600A4A0B604A
:10D1400010600A4A4B6013708B60094B4FF0FF323E
:10D15000C3F80823074B4FF48072C3F8802170474F
:10D16000703B0020543B0020683B0020603B0020C7
:10D170000080004000E100E0044B1B780F2B1EBF35
:10D18000034B4FF48022C3F800217047C43C0020B9
:10D1900000E100E010B5104C104B20701048036007
:10D1A0001023C0E90133FEF7F7F90E48FFF744F901
:10D1B00023780F2B0AD0072B09D8EC221A41D2076B
:10D1C00005D55B01084ADBB282F8123310BD784600
:10D1D000BDE81040FCF72ABAC43C0020903B002078
:10D1E0007C3B0020C83C002000E100E00D4B1B7898
:10D1F0000F2B0DD00C4991F812335A09EC2313412F
:10D20000DB0706D5094B9A6832B94FF480230B60CF
:10D2100070477846FCF70ABA1A6842F480221A600E
:10D22000704700BFC43C002000E100E0AC54002087
:10D23000F8B5EFF3108772B617480268511C016009
:10D2400002BB164B1B780F2B21D0EFF3108C72B65C
:10D25000134A144C95680123E5B99360124B134EA1
:10D26000D3F8801031401160C3F88060D3F8841087
:10D2700051604FF0FF32C3F884202570BCF1000FDD
:10D2800000D162B6036813B97846FCF7CFF907B945
:10D2900062B6F8BD2370F1E7903C0020C43C00204A
:10D2A000AC540020C53C002000E100E0FC06FFBDBE
:10D2B00038B5EFF3108572B6104C236813B9784671
:10D2C000FCF7B4F92368013B2360A3B90C4B1B782E
:10D2D0000F2B10D00B4B9A686AB10B4A127852B9D7
:10D2E000EFF3108072B609491C680C605C684C60F2
:10D2F0009A6000B962B605B962B638BD903C0020AC
:10D30000C43C0020AC540020C53C002000E100E0FB
:10D3100038B5054610B97846FCF788F9094C2368FA
:10D32000092B02D97846FCF781F9EFF3108372B626
:10D330002068421C2260044A42F8205003B962B6B9
:10D3400038BD00BF943C0020983C002010B50E4B27
:10D350001B688342044602D87846FCF767F9EFF36E
:10D36000108072B6094A6109012304F01F0403FA10
:10D3700004F452F82130234342F82130FFF7FCFE39
:10D3800000B962B610BD00BF943C0020C03C002034
:10D3900070B50D461646044610B97846FCF746F9B6
:10D3A00015B97846FCF742F9EFF3108372B6002204
:10D3B000C4E902562274246003B962B670BD00004D
:10D3C00070B5044610B97846FCF730F9A36813B974
:10D3D0007846FCF72BF9EFF3108672B6237C03F046
:10D3E000FF055BB90123064823742146FFF72EF899
:10D3F000FFF7C2FE284606B962B670BD1120FAE7F3
:10D40000C83C002010B5044610B97846FCF70EF968
:10D41000207C10BD2DE9FF47314E337813B178469B
:10D42000FCF704F90125DFF8C8802E4FDFF8C4901F
:10D4300035700024D8F80030A34212D82A48DFF80B
:10D44000A880FFF71DF8002750BB284C69462046EE
:10D45000FEF7BCF890B300232846337004B0BDE853
:10D46000F087610904F01F020123934057F821203F
:10D47000134213D0EFF3108072B657F8212022EA3E
:10D48000030347F8213000B962B659F824309847B1
:10D49000824618B92046FFF759FF55460134C9E7BF
:10D4A0000468237C13B97846FCF7C0F8D4E902304D
:10D4B000984727744046FEF7E3FFC5E79DF8003024
:10D4C00043B1012BC2D1019B002BBFD0DDE902018A
:10D4D0009847BBE7019B002BB8D002989847B5E767
:10D4E000D03C0020C03C0020C83C00207C3B0020F9
:10D4F000943C0020983C0020FFF78CBF07B5FFF755
:10D500000BF88DF803009DF803301749F02B0DD16F
:10D510000B780F2B25D01220FFF706F880F00100C2
:10D52000C0B200F0010003B05DF804FB9DF80330C9
:10D530005BB2002BADBF03F1604303F00F030B4A56
:10D5400003F56143B4BFD35C93F800335B090193E7
:10D55000019A0B78934204D0019A9342DBD30020C6
:10D56000DFE70120DDE700BFC43C002014ED00E050
:10D5700046DF704730B58DB00D4614460146102287
:10D5800068460FF0F4FE102229460DEB02000FF062
:10D59000EEFE6846FFF7ECFF102208A920460FF0C8
:10D5A000E6FE0DB030BDFEF7E5BF01F085BD01F030
:10D5B000ADBD30B4032956D8DFE801F0022727506B
:10D5C00000241C70817A5A7861F306025A70C17A7D
:10D5D000D2B261F3C7125A70C1680D04C1F3074299
:10D5E00005F47F0501F47F412A430A43C2F3072172
:10D5F0009A70120C1A71D9700189DC710A0A42EA18
:10D600000122A3F805201C7222E01970597801F05C
:10D61000800162F3C7115970C1680C04C1F307425D
:10D6200004F47F0401F47F4122430A439A70C2F359
:10D630000721120C1A71D97001890A0A42EA0122E3
:10D64000A3F8052041880A0A42EA0122A3F807202C
:10D65000026912BAC3F8092030BC704703220024C3
:10D660001A705C70B8E7784630BCFBF7DFBF7FB557
:10D670000E461546044600B112B97846FBF7D6FFB0
:10D680001022002168460FF07DFE2B4632462146CF
:10D690006846FEF76FFF04B070BD2DE9FF410B9D9A
:10D6A000884616461C46074610B10AB103B115B9A3
:10D6B0007846FBF7BBFF6B46424639463046FEF7DD
:10D6C00059FF2B469DF8282021466846FEF752FF59
:10D6D00004B0BDE8F0810000F0B50D468FB01446EF
:10D6E0001F46064608B101B113B97846FBF79EFF05
:10D6F0001CB97846FBF79AFF01E0102CF9D8254BAE
:10D700001868009005AA68460421FFF7B0FF01AB36
:10D71000314605A81022FEF72DFF2246294605A80E
:10D720000FF025FE0EAB2344012203F8242C05AB99
:10D73000A218194601A892B2FEF71CFF9DF82330EB
:10D740003E4603F07F0306F8013B2246294609A81E
:10D750000FF00DFE04F110050EAB1D441134A4B200
:10D76000022305F8243C2246334605A901A8FEF70A
:10D7700001FF3146102205A80FF0F9FD032305F83B
:10D78000243C224607F1110305A901A8FEF7F2FE89
:10D790000FB0F0BD7AE5030070B50D4688B00646BF
:10D7A00000B111B97846FBF741FF114C0421206804
:10D7B000019004AA0DEB0100FFF759FF04AB3146BD
:10D7C00018461022FEF7D6FE234602A953F8040F8E
:10D7D00002901B798DF80C3004AB18460522FEF739
:10D7E000C9FE082206A928460FF0C1FD08B070BD89
:10D7F0007EE5030070B50D4686B0064600B111B94E
:10D800007846FBF713FF0F4C54F8040B009002AA64
:10D8100068460421FFF72BFF02AB31461846102261
:10D82000FEF7A8FE2068019002AB042218460DEB1B
:10D830000201FEF79FFE9DF8173003F03F032B70A7
:10D8400006B070BD87E5030030B50268037CD17A6D
:10D8500087B000298DF8043083680CBF04210821AB
:10D8600009330B44CDE90232436804930446C3688C
:10D870000593694601A801F061FED0B1237C012B1C
:10D880000ED02568FEF7B8F9286120680C30FEF745
:10D890004BF9054620B101F0CDFE284607B030BD5A
:10D8A0002168009800F08DFB009B0933636100251F
:10D8B000F3E70425F1E7000008B5074B40B918600D
:10D8C000FEF722F8FDF7CAFFBDE8084002F0EABA09
:10D8D00042681A60F4E700BFD43C002008B5FEF7A8
:10D8E00035F8BDE8084002F01BBB10B5044610B97E
:10D8F0007846FBF79BFE236813B97846FBF796FE44
:10D9000023685B6913B97846FBF790FE237C012BF3
:10D9100002D97846FBF78AFEE36813B97846FBF72D
:10D9200085FE2046BDE81040FFF78EBF70B5044667
:10D93000C6B010B97846FBF779FE636913B978462B
:10D94000FBF774FE236813B97846FBF76FFE236874
:10D950005B6913B97846FBF769FE606900F08EFBDE
:10D96000234B1B689B0706462FD5224B1B68042BB5
:10D970002BDD214B05AD19680023F25C100902F084
:10D980000F02085C05F81300885C05EB43020133C5
:10D990001D2B5070F1D100232F21184885F83A3003
:10D9A0000FF0CAFDD8B12F2114480FF0C5FD411C5E
:10D9B000134B144AD3F804350192134A009202958E
:10D9C0004FF49472052000F0FDFC00233246A1685C
:10D9D000206800F0B7FA01F007FE46B070BD5C2188
:10D9E00006480FF0A9FD08B15C21DDE70349DFE738
:10D9F000402E00203C2E0020442E0020DAE50300BB
:10DA000000100140F5E5030086D703002DE9F0473B
:10DA10000F46D4B091460546002800F0368100F04C
:10DA20002FFB0DF12C089A4E421B294640460FF061
:10DA30009EFC336899072AD5964B1B68042B26DD7C
:10DA4000954B802F3846196828BF8020002313ACDF
:10DA5000834240F0B18000222F21904804F8132027
:10DA60000FF06AFD002800F0B8802F218B480FF0DE
:10DA700063FD411C8A4B8B4AD3F8043501928A4AD4
:10DA80000092029440F24D12052000F09BFC00230E
:10DA900005AC00932A4643463946204600F008FA72
:10DAA0008246002840F0C3802378002B00F0BF801E
:10DAB000E268B2F1807F80F0BA80E27A12B1022B84
:10DAC00000F0B58094F90A30002BC0F2B0803368C2
:10DAD00013F0020F13AD28D06E4B1B68042B24DD0E
:10DAE0006D4B802F3846196828BF80200023834261
:10DAF0007CD100222F21694805F813200FF01CFD6E
:10DB0000002800F085802F2164480FF015FD411C8E
:10DB1000634B664AD3F804350192634A009202953A
:10DB20004FF4AB72052000F04DFC636913B97846E1
:10DB3000FBF77CFD3946204600F098FAC7B24B4609
:10DB4000224639460DF13500FCF762FDE168824658
:10DB50002089FBF7D7FD294620890BF05BFC0028C4
:10DB600065D1012003F0D6F9002860D0A37A012BFB
:10DB70005DD92378012B54D04D4BA27A1B68002B22
:10DB800059D1A37A2C60013BA3724FF0FF336B6035
:10DB9000DF23EB6028460123AF602B74FFF754FEB0
:10DBA00000284ED13A460DF1350168690FF0DFFBD0
:10DBB0002846FFF7BBFE3AE0EA5C4FEA121C02F08F
:10DBC0000F0211F80CC004F813C011F802C004EBE6
:10DBD0004302013382F801C03AE75C212F480FF07D
:10DBE000ABFC08B15C2141E72C4943E718F803205E
:10DBF0004FEA121C02F00F0211F80CC005F813C016
:10DC000011F802C005EB4302013382F801C06EE750
:10DC10005C2122480FF090FC08B15C2174E71F4999
:10DC200076E7294660880BF0F5FB0028A4D0504623
:10DC300054B0BDE8F0876188208998470028A0D1BA
:10DC4000F5E733689B07F2D5124B1B68012BEEDD1D
:10DC50002F2112480FF070FC70B12F210F480FF0E8
:10DC60006BFC411C0E4B134AD3F804350092022082
:10DC7000A72200F0A7FBDAE75C2108480FF05CFC64
:10DC800008B15C21EAE70549ECE74FF00E0ACEE760
:10DC9000402E00203C2E0020442E0020DAE5030018
:10DCA000001001408FE5030086D703009EE50300C6
:10DCB000D43C0020ADE5030008B510B1012801D126
:10DCC000032008BD7846FBF7B1FC0020F9E770B5EA
:10DCD000064688B00D4614460021052204A80FF020
:10DCE00051FB336907221BBAA9180DF11900CDF8B1
:10DCF00015300FF03CFB70696A46113004A9FFF73C
:10DD000039FCAB1D0DF10600E21D13F8011910F8E6
:10DD1000014DAB4281EA040102F8011DF5D108B0C2
:10DD200070BD00002DE9F041D4B01E4600238DF8EF
:10DD30001730ADF83C300E93D31D0C93F31D1093A8
:10DD40005A9B43610F460DF11808114632460446AE
:10DD5000CDF82C80FFF7BBFF7378DB09E372737893
:10DD600003F07F03A372F378B2781B0243EA024305
:10DD700032791343E3607379B07940EA032020815C
:10DD8000FEF78EF9012869D1E27A002AA7F109038A
:10DD900014BF08220422934260D3E1682089FBF774
:10DDA00093FC0546002859D1E37A9DF86C01002BBD
:10DDB00014BF08230423073F8DF84830FF1A0C9B3B
:10DDC000BFB2ADF834701F441197FFF775FF43469B
:10DDD00001462A462046FFF7ECFB63690DF1170167
:10DDE00001330AA80A93FFF7E2FB9DF81730002BD6
:10DDF00034D0F379307A40EA03206080FEF750F99E
:10DE0000244B20701B689B0728D5234B1B68032BD2
:10DE100024DDBDF83420214B109E1968802A28BFCC
:10DE20008022284613AC90421DD1002304F8103004
:10DE30002F211B480FF080FB10B32F2118480FF043
:10DE40007BFB411C174B184AD3F804350192174A43
:10DE500000920294DF22042000F0B4FA9DF817002B
:10DE600054B0BDE8F081335C1D0903F00F034D5D34
:10DE700004F81050CD5C04EB400301305D70D2E734
:10DE80005C2107480FF058FB08B15C21D6E7044934
:10DE9000D8E700BF402E00203C2E0020442E00205A
:10DEA000FCE50300001001401AE6030086D70300DA
:10DEB0002DE9FF47894615461F469DF830A00646C6
:10DEC00018B112B10BB19A4202D17846FBF7AEFB02
:10DED000A9F10903142B31D82878C009FDF796FE63
:10DEE00000233061736195F80080CDE9023308F0BA
:10DEF0007F0803AA02A940460BF0A4F9029BB3B124
:10DF0000CDE9003A2A463B4649463046FFF70AFF2C
:10DF1000044608B100200EE0039B43B1CDE9003A6E
:10DF20002A463B4649463046FFF7FCFE40B9029B75
:10DF3000002BDED1052004B0BDE8F0870920FAE708
:10DF40002046F8E7F0B50C468FB016461F4605464A
:10DF500010B97846FBF76AFB16B97846FBF766FB03
:10DF6000012F02D97846FBF761FB3846FFF7A4FE84
:10DF700001AF3B46014600222846FFF71AFBEB7A29
:10DF8000002B14BF082304238DF834306B69A11CC7
:10DF90000133CDE9053789B2F31D0022ADF8201019
:10DFA00005A8194407930B93ADF8282009920C910A
:10DFB000FFF7FBFA324631462846FFF788FE0FB0DE
:10DFC000F0BD38B50D46044610B97846FBF72EFB78
:10DFD00015B97846FBF72AFB2889FEF761F8012876
:10DFE00002D07846FBF722FB95F90A30002B02DAC3
:10DFF0007846FBF71BFBEB68B3F1807F02D37846D2
:10E00000FBF714FB6B6913B97846FBF70FFB2B6921
:10E0100003F00102237803F07F0343EAC213237065
:10E020006A69127823F07F0302F07F0213432370A2
:10E030006378EA7A03F07F0343EAC213DBB26370CA
:10E04000AA7A23F07F0302F07F0213436370EB6828
:10E0500023711A0CA2701A0AE2702B89A3711A0A92
:10E0600062716B8823721A0AE27138BDC37A002B81
:10E0700014BF082004200939081A7047093870476E
:10E0800001307047436849B9027880781A441B7898
:10E09000C31A12F8010C1844C0B270475A185B5CDE
:10E0A00012F8010CC01AF7E738B50D46044610B94E
:10E0B0007846FBF7BBFA2378AB4202D87846FBF7E9
:10E0C000B5FA29462046FFF7DDFF40B16368627864
:10E0D000585DA378013B1840A36802FB003038BDAF
:10E0E00038B50C46054610B97846FBF79FFA2B78F1
:10E0F000A34202D87846FBF799FA21462846FFF753
:10E10000C1FF18B16A68135D0133135538BD10B5EE
:10E11000044610B97846FBF789FA0023194622789D
:10E120009A4200D810BD6268D1540133F7E710B5A8
:10E130004378044613B97846FBF778FA2378012B25
:10E1400002D87846FBF772FAA36813B97846FBF752
:10E150006DFA636813B97846FBF768FAA37813B1D0
:10E160005A1E1A4202D07846FBF760FA2046BDE8F4
:10E170001040FFF7CCBF38B50D46044610B97846BD
:10E18000FBF754FA2378AB4202D87846FBF74EFAF5
:10E1900029462046BDE83840FFF774BF08B520B1D6
:10E1A00019B1FFF727FB002008BD0E20FCE713B5CF
:10E1B0000B4650B149B102A9002401F8014D0122DA
:10E1C000FFF78AFA204602B010BD0E20FBE70000E0
:10E1D00030B50C468BB00546E0B1D9B11031FFF730
:10E1E000DBFA0D4B03930D4B186804909B88ADF838
:10E1F000143006AA042103A8FFF739FA0623009376
:10E200002846019404AB06AA1021FFF746FA002025
:10E210000BB030BD0E20FBE76E6B626B2DE603008A
:10E2200030B50C4687B00546F0B1E9B104210F4B7B
:10E2300001930DEB010002AAFFF719FA02AB184691
:10E2400010222946FFF7AFF99DF816309DF81720E8
:10E250001B026FEA424203F47C536FEA52421343BB
:10E260002380002007B030BD0E20FBE77674616488
:10E2700038B50D46044600B111B97846FBF7D6F91A
:10E28000AC421EBF23682B60256038BD38B50C46F4
:10E29000054600B111B97846FBF7C8F92B68A342CF
:10E2A00002D17846FBF7C2F9286840B92C6020609B
:10E2B00038BDA54202D17846FBF7B8F92846056873
:10E2C000002DF6D12146BDE83840FFF7D1BF38B563
:10E2D00005460C4601B110B97846FBF7A7F92B6843
:10E2E00083B1A34205D123682B600020206038BD94
:10E2F00013461A6822B1A242FAD122681A60F4E7E2
:10E30000002CFAD00520F2E7F8B50E461746044671
:10E3100008B101B112B97846FBF788F92368B34216
:10E3200002D17846FBF782F925685DB92660284658
:10E330003560F8BD2C68A64202D17846FBF776F925
:10E340003CB1254631462846B8470028F2D00F2078
:10E35000EFE728463146FFF78BFF2046E9E700004C
:10E3600037B506AC184654F8045B00920B460246DB
:10E37000054900200DF00EFF2246294600200DF031
:10E38000EBFD03B030BD00BF34E60300034B186063
:10E39000034B1960034B1A60704700BF402E0020EA
:10E3A0003C2E0020482E002010B4054C24681CB1DF
:10E3B000A4465DF8044B60475DF8044B704700BF0E
:10E3C000482E002030B585B008AC54F8045B0394A7
:10E3D000CDE90054FFF7E8FF05B030BD037942797D
:10E3E0009B1A00EB03307047431E9BB247F6FE6258
:10E3F000934208D849B14B8858400B8818420CBF4B
:10E4000001200020704700207047012070478307DB
:10E4100070B504460E46054602D07846FBF706F96D
:10E4200026F003063444A54201D1012070BD55F801
:10E43000043B0133F7D00020F8E70000064B984278
:10E4400010B5044603D303F58273984202D9784687
:10E45000FBF7ECF8201F10BDE43C00201FB50124A1
:10E46000CDE9022101901A46694620468DF8004008
:10E47000FDF758FD04B010BDF8B50C4D01460C4831
:10E48000FCF767FD6E687EB100272846FDF7F8FFB0
:10E49000044610B97846FBF7C9F823682760D3E92A
:10E4A00002209047A642F0D1F8BD00BFEC3D00200D
:10E4B000D83C002038B503884A6803F18043013B0B
:10E4C0009C001368033323F00303A3420D4605D0D9
:10E4D00009238B606B681C60002038BD00238B60B3
:10E4E0001268011D28680EF042FFF3E713B502A978
:10E4F000002482B241F8044D0448FCF746FC18B9E8
:10E500000198043002B010BD2046FBE7D83C002043
:10E5100008B5FFF793FFBDE80840014602880148AF
:10E52000FCF784BCD83C0020014B1868FEF70EBFF6
:10E53000F43D002010B50388044613B97846FBF774
:10E5400075F82088074B04EB800030EA030203D003
:10E550006288B2F5FE4F04D11C4004F58054207847
:10E56000204410BD00F0FFFF70B504682378054615
:10E570001C4400214FF6FF762868FFF72FFF8442E6
:10E5800002D26388B34201D1084670BD2046FFF72E
:10E59000D1FF21460446EFE72DE9F04F934FDFF816
:10E5A000708287B03E4698F800203B78022A14D14A
:10E5B000032BFDD8DFE813F00400390011006701D8
:10E5C00006A9002341F8103D8948FCF760FC01468C
:10E5D00038B1884B1B6803B19847012007B0BDE8EC
:10E5E000F08F029C844B94F80890221D1A6001233E
:10E5F00099453370D7D86568E868FFF7EFFE6B6917
:10E60000C01AAB68C01AB9F1000F01D1218A890084
:10E610008142C8DB6B68002BC5D003232B70606878
:10E6200088F80030FCF790FFBDE7734B1C68237936
:10E63000042B00F2D380DFE813F005008A00AD0060
:10E64000ED0017012368DD682846FFF7C7FE2B7829
:10E65000E2890146E81800F02FFF2568AB68824682
:10E6600073B9D5F80C904846FFF7B8FE99F800301A
:10E67000014647F6FF7209EB030000F01DFFA8609A
:10E680002268A189D2F80890DFF880B129F47F656B
:10E6900025F00F0505F58055A5EB090389008B4290
:10E6A00033D909EB01052146002331F80C2F4846E8
:10E6B0009200FFF7D3FE10B17846FAF7B7FF4F4B41
:10E6C0004F4904222846FFF7C9FE10B17846FAF7F1
:10E6D000ADFFBAF1000F10D02268BAF800105368ED
:10E6E00003EB810353604749444B04225046FFF734
:10E6F000B5FE10B17846FAF799FF0023C4F80890E8
:10E700008BF80030022333704DE7D0680193FFF798
:10E7100065FE8542019B04D101238BF80030032361
:10E72000F1E78B4202D12B781D44BCE70023042281
:10E7300035494846FFF792FE10B17846FAF776FF62
:10E7400095F80090A944A58909EB8505ABE72368F6
:10E75000DD682846FFF742FE2B78E2890146E8187B
:10E7600000F0AAFE294D10B902232B70D7E72268CA
:10E77000A0600188536803EB8103536021491F4B5C
:10E780000422FFF76BFE60B37846FAF74FFF0023D1
:10E790002B70B7E72268637BD56805EB033508214A
:10E7A0002846FFF734FE90B905F1FF3A04F1070956
:10E7B00004F10F0B1AF8013F19F8012F9A4204D007
:10E7C000FF2B02D07846FAF731FFCB45F2D1082271
:10E7D0000A4BA1182846FFF741FE10B17846FAF718
:10E7E00025FF0A4B00221A708CE700BFE83D00208D
:10E7F000D83C0020F83D0020003E0020FE3D0020D7
:10E8000064E603005CE6030060E60300043E0020CB
:10E81000FC3D002020680C30FFF7A6FE054610B92D
:10E820007846FAF703FF6B884BB1554B55490422E4
:10E830002846FFF713FE10B17846FAF7F7FE284690
:10E84000D4F80090FFF776FEC9F808002168C86880
:10E85000FFF7C4FD8B688342C3D22846FFF76AFEE8
:10E86000474B49490422B6E72368D3E90323022131
:10E870001B038DF80810CDE9032302A9404A0120AB
:10E88000FDF750FBA9E7414C236813B97846FAF726
:10E89000CDFE3F4B246893F80090B9F1000F21D1D1
:10E8A0002379D4F808A0012B13D00AD3022B1CD053
:10E8B00023792568042B35D8DFE803F01F3B433468
:10E8C00051002146504631F80C2F92000EF040FDC9
:10E8D00001E0BAF80200B0FA80F040090028E7D160
:10E8E0004FF0030904F10C0AE2E72368607BDB6860
:10E8F0000822A11803EB0030E8E7B9F1000F0BD1B3
:10E90000A068FFF717FEA860428847F6FF739A4297
:10E9100002D07846FAF78AFEAB691BB14A465146E7
:10E92000284698472046FFF789FDFFF7A5FD0023FD
:10E93000E9E6EB69002BF5D04A46E189284698477D
:10E94000F0E72B78012B02D07846FAF76FFE237B95
:10E95000627B013B9A42E5D102232B70E2E7B9F1D9
:10E96000000F02D07846FAF761FE2B78012B1CBF0E
:10E9700000232B702B6A002BD4D028469847D1E770
:10E98000FE3D00205CE6030064E60300003E00203C
:10E99000043E0020064B1B88934207D1054B1A7892
:10E9A000022A03D103221A70FFF7F6BD704700BF99
:10E9B000FE3D0020E83D002008B54FF482720F496B
:10E9C0000F48FCF764F90F490120FDF79BFA0E4848
:10E9D000FEF79EFC0D4B0E4A1860002313700D4A83
:10E9E0000D481380FDF728FDFCF744FD0B4B10B1DB
:10E9F00003221A7008BD0222FBE700BFE43C00209E
:10EA0000D83C002095E9020099E50200F43D002081
:10EA1000E83D0020FE3D0020EC3D0020FC3D0020B4
:10EA200010B504460820FFF761FD042340B12370B0
:10EA300003710460FFF76CFDFFF776FD002010BD49
:10EA40001846FCE72DE9F04F87B08146039101920B
:10EA5000049310B97846FAF7E9FD0120FDF7E8FACA
:10EA6000FCF794FD0024031D054627464FF00108DE
:10EA7000029347F6FE6BD9F81010A14202D9B8F103
:10EA8000010F06D00020FDF7D3FA384607B0BDE8E5
:10EA9000F08FD9F80C30286803EB0432904202F56D
:10EAA000805604F1010426D1A14205F5805A20D0F8
:10EAB000327816447188013989B2594535D900F543
:10EAC000005230460592FFF735FD059A824210D973
:10EAD00086420ED24188013989B25945F2D82E7941
:10EAE000029B42885146981900F0E6FC002818BFA6
:10EAF0008246029A5646137802EB030AB245BADA06
:10EB0000B8F1010FB7D10399BAF80200FFF76CFC16
:10EB100030B1019B01371BB104995046984780469C
:10EB20005046FFF707FD8246E8E73046D7E700008A
:10EB30007FB5E8B1E2B1DBB14C1EA4B247F6FE6688
:10EB4000B44217D80478023C012C15D8CDE9012332
:10EB50000523ADF8021003934FF6FF7401AB074A8B
:10EB6000ADF800406946FFF76DFF039804B070BD33
:10EB70000E20FBE70720F9E70820F7E7B5E40200DD
:10EB800070B50D46044610B97846FAF74FFD0023DC
:10EB9000294620461A46BDE87040FFF753BF70B5BE
:10EBA0000E461446054610B97846FAF73FFD731E27
:10EBB0009BB247F6FE62934206D947F6FF739E4228
:10EBC00002D07846FAF732FD802C02D97846FAF75F
:10EBD0002DFD2B780BB9002070BD04F11000FFF75C
:10EBE00085FC0028F7D00334A40800230134037106
:10EBF000C681848140F80C5BEEE70000094B984227
:10EC000010B5044603D303F58273984202D97846BF
:10EC1000FAF70CFDA4F10C00FFF77AFCBDE81040F8
:10EC2000FFF782BCE43C002038B50C46054610B91D
:10EC30007846FAF7FBFC631E9BB247F6FE629342EE
:10EC400006D947F6FF739C4202D07846FAF7EEFCED
:10EC50001020FFF74BFC60B1012202714FF6FF72EA
:10EC6000C48182810560FFF753FCFFF75DFC002043
:10EC700038BD0420FCE700002DE9F84300230370B1
:10EC80000B68C3F30B0304460D4613B17846FAF73D
:10EC9000CDFC6B68FE2B02D97846FAF7C7FC04F16D
:10ECA0000C0718222946384600260EF060FBC4E9FE
:10ECB000016623699E4257D32046FCF721FC064695
:10ECC00000287CD1E5682846FFF788FB2B78804632
:10ECD0001D4447F6FF796B88C3F30E024A4572D193
:10ECE00066602046FCF70CFC10B17846FAF79EFCF3
:10ECF0003846FFF739FCA060002873D1E3681A7822
:10ED000013444FF6FF725988914200D1A360022349
:10ED100023702046FCF7F4FB10B17846FAF786FC26
:10ED2000E5682B781D44A3689D424AD22846FFF728
:10ED300001FCA3689842064668D16A88531E9BB2BC
:10ED400047F6FE618B423CD8E368187829461844A0
:10ED500000F0B2FB002834D0A84232D041882046CF
:10ED6000BDE8F843FFF760BF3503E3685A195B5D00
:10ED7000083BDBB2F62B15D85379FF2B12D0127952
:10ED8000FF2A0FD09E4202D07846FAF74FFCE36884
:10ED90002B441A7923699A4202D07846FAF746FC46
:10EDA000013686E701233B4F2370002523699D42EE
:10EDB00031D3FFF7B9FBE3680833A36001E0032315
:10EDC0002370002018E013B92B8806EB8306284631
:10EDD000FFF7B0FB804505463FF67DAF7846FAF772
:10EDE00025FC78E7428847F6FF739A428FD00820C7
:10EDF000FFF77CFB10B90420BDE8F8830322027101
:10EE00000460FFF785FBFFF78FFB80E73046FFF7D5
:10EE100091FB35468DE7E0682E03304440F6FC71E7
:10EE20000430FFF7F4FA90B11020FFF75FFB0028E1
:10EE3000E1D00222027187604573226902734FF6A6
:10EE4000FF72C2810460FFF763FB0135AEE7E36840
:10EE50009A199B5D083BDBB2F62B05D85379FF2B43
:10EE600002D01379FF2B02D17846FAF7DFFBE36873
:10EE700033445B799D4202D07846FAF7D7FBE368CA
:10EE80001E44236932799A42DFD07846FAF7CEFBE6
:10EE9000DBE700BF0804101010B5044610B978462F
:10EEA000FAF7C4FBA36813B97846FAF7BFFB2368E7
:10EEB00033B9246021460348BDE81040FDF7C6BAC7
:10EEC00010BD00BFEC3D002008B50648FCF77BF8FC
:10EED00020B1FCF731FB80F00100C0B200F001006E
:10EEE00008BD00BFD83C002038B5044698B1C568BD
:10EEF0002846FFF773FA2B78014647F6FF72E818A9
:10EF000000F0DAFAA06010B97846FAF78FFB022316
:10EF1000237000236360054B0549022201201A700B
:10EF2000FCF7F0FFBDE83840FFF7FEBAFC3D0020DB
:10EF300095E90200FCF72ABB38B50546044C20B120
:10EF4000236813B17846FAF771FB256038BD00BF1E
:10EF5000F83D002030B503B930BD013B9BB2CC5C1D
:10EF6000D55C6C40C454F6E746DF70472DE9F843A2
:10EF7000858907468846012401F120090DB9BDE8BD
:10EF8000F88363BAA8F81E304046FFF7EDFF102D56
:10EF900004F1FF3CB968B8692E464FEA0C1C28BF43
:10EFA000102633464A4661446044AD1B0134FFF7E6
:10EFB000D1FFADB2A4B2E1E72DE9F04707460E4616
:10EFC0001446994600F1100500F120080CB9BDE87F
:10EFD000F087C9F1100A544505EB090018DA2246FA
:10EFE00031460EF0C4F904EB0900C0F11002002113
:10EFF00028440EF0C7F9002410232A46414628462B
:10F00000FFF7A8FF3846FFF7AFFF4FF00009DDE735
:10F01000103C3146524619FA84F40EF0A8F9A4B215
:10F020005644E9E770B5838A002B90F820300D46EE
:10F03000A3F102034FF0020193FBF1F34FEAC30384
:10F0400003F03803164643F0010314BF40220022A8
:10F05000134304462B7441680D2205F111000EF094
:10F0600086F9A289130A43EA0223EB832846FFF7B5
:10F070007BFFA38A83B1B3F57F4F02D37846FAF7BB
:10F08000D5FAA28A130A43EA02232B82A28A2169B3
:10F0900002232846FFF790FFA28922B10023A1682E
:10F0A0002846FFF789FF94F8202005F1200130461B
:10F0B000BDE870400EF05BB930B504468DB0016814
:10F0C000102268460EF053F9E26969462046FFF7C0
:10F0D000A9FFE569616801230D220DF111008DF88A
:10F0E00010300EF044F900236846ADF81E30FFF7EB
:10F0F0003BFF94F8203008AA29462846FFF72AFF4C
:10F1000069462046FFF732FF0DB030BD70B590F86C
:10F110002030102B90B004460D4602D97846FAF7FD
:10F1200085FA102221680DEB02000EF020F9A38968
:10F130007BB1012361688DF820300D220DF1210093
:10F140000EF015F9002304A92046ADF82E30FFF784
:10F150000DFFA369A668A3606A4604A92046FFF7CD
:10F1600061FF616801230D220DF121008DF820302F
:10F170000EF0FDF8002304A8ADF82E30FFF7F4FEE2
:10F1800094F820300CAA69466846FFF7E3FEA660B3
:10F1900094F82020E16968460EF0DAF8B0FA80F0C1
:10F1A0004009287010B070BD70B50B4C03882588DD
:10F1B0009D42064606D001339BB29D4202D078465E
:10F1C000FAF734FA30882368854238BF03F1FF33F9
:10F1D0001B0C1B04184470BD083E00202DE9F843A9
:10F1E0000378022B0DD1FCF701FD114EDFF84880AA
:10F1F0000546002400F1FF3933689C4203D30D4BD0
:10F200001D60BDE8F88308EBC407B81DFFF7CCFF0D
:10F2100085420BD0484509D03368013B336008EB89
:10F22000C30393E8030087E80300E5E70134E3E75D
:10F230000C3E0020083E0020103E002008B5FCF7E0
:10F24000D5FC014B186008BD083E00202DE9F843AD
:10F250001A4D1B4E2B68884691460024A3420CD1C0
:10F26000282B29D0164A02EBC30142F83380013320
:10F270008880A1F806902B6015E0E700F2199188CC
:10F28000814217D1901DFFF78FFF81450ED156F8AF
:10F290003400804594BF0020012028B1374446F84F
:10F2A0003480A7F806900020BDE8F8838CBF0120C9
:10F2B0000020F2E70134D1E70420F5E70C3E0020FE
:10F2C000103E0020F8B5114B114E0C461968174638
:10F2D0000025A94201D1002011E006EBC5039A8860
:10F2E000824211D1981DFFF75FFF874208D156F87F
:10F2F0003500844294BF0020012080F00100F8BD59
:10F300008CBF01200020F8E70135E2E70C3E002029
:10F31000103E0020034B044800214FF4A0721960F6
:10F320000EF030B80C3E0020103E002008B5034817
:10F33000FDF76EF8BDE80840FFF7ECBF4C2E00204B
:10F340002DE9F041884616461F460446B0B1C2B1C9
:10F35000013B1B2B15D8FF2913D0BD1CEDB2691C36
:10F3600001F0B4FF044648B12B234574837480F840
:10F3700013803A46314614300DF0F9FF2046BDE8BF
:10F38000F0810024FAE70000F0B50E46C7B017463A
:10F39000054610B97846FAF749F9002E7AD02C784C
:10F3A000711EC9B2002C57D0012C5CD03A4C226897
:10F3B000D20519D5394B1B68012B15DD2F21384893
:10F3C0000EF0BAF8002853D02F2135480EF0B4F8CB
:10F3D000411C344B2A78D3F804350192324A00920A
:10F3E00002206D22FEF7EEFF2368DB0532D52B4BA2
:10F3F0001B68032B2EDD2D4B802E196828BF80261D
:10F40000002305AC15F8012F100902F00F02085C6B
:10F4100004F81300885C04EB430201339E425070F1
:10F42000F0D100232F211E4804F816300EF084F886
:10F4300038B32F211A480EF07FF8411C194B1C4A93
:10F44000D3F8043501921B4A009202946E220420E4
:10F45000FEF7B8FF0B2004E03A46681C0AF094FF60
:10F46000002047B0F0BD3A46681C00F08FFDF7E77A
:10F470005C210B480EF060F808B15C21A5E7084953
:10F48000A7E75C2106480EF057F808B15C21D1E7E8
:10F490000349D3E70920E4E7402E00203C2E00205A
:10F4A00068E603000010014082E60300442E0020BD
:10F4B000A8E6030086D7030088422DE9F8430746F3
:10F4C0000E46904602D97846FAF7B0F83C46DFF887
:10F4D0005C901AE0238804EB83039E4221D92388A1
:10F4E00013B97846FAF7A2F8238804EB830333EACA
:10F4F000090203D06288B2F5FE4F01D12B782B446C
:10F500009E420ED99F421C460BD26388434509D0C8
:10F5100004EA090505F58055B542E0D3B3F5FE4F81
:10F52000D8D100242046BDE8F88300BF00F0FFFFDB
:10F53000014B1860704700BF543F00202DE9F04197
:10F540000F46054610B97846FAF770F817B97846AD
:10F55000FAF76CF82B78012B02D97846FAF766F89F
:10F560001E4C236A13B17846FAF760F86B681D2BBE
:10F5700002D97846FAF75AF82B78012B09D1EB68B3
:10F580005A1C06D003F50073012B02D97846FAF70E
:10F590004DF8134B1E684FF0010846B9236A1BB1A2
:10F5A0006B6823700F4B3B60206ABDE8F08116F852
:10F5B000032C2B691A42A6F108000CD056F8083C1F
:10F5C00029461B68984730B916F8043C226A08FAA5
:10F5D00003F3134323623668DFE700BFB85400200B
:10F5E000583F0020B9540020F8B50F4D2B6A13B9CD
:10F5F0007846FAF71BF80D4B0D4F1C6801260CB925
:10F600002C62F8BD14F8043C2A6A06FA03F313428C
:10F61000A4F1080005D054F8083C2A785B68394604
:10F6200098472468EBE700BFB8540020583F0020FB
:10F63000B954002070B50D4D2B6A13B97846F9F70F
:10F64000F5FF0B4B1C6801260CB92C6270BD14F839
:10F65000043C2A6A06FA03F31342A4F1080003D01B
:10F6600054F8083C9B6898472468EDE7B85400209C
:10F67000583F00202DE9F0410E46174698460546B2
:10F6800010B97846F9F7D2FF064B1C683CB14346E7
:10F690003A4629793046A446BDE8F0416047BDE8C6
:10F6A000F08100BF543F0020F8B50E4617460446CF
:10F6B00010B97846F9F7BAFF16B97846F9F7B6FFE8
:10F6C0001FB97846F9F7B2FF01E0FF2FF9D0336890
:10F6D00013B97846F9F7AAFF736813B97846F9F7B2
:10F6E000A5FFB36813B97846F9F7A0FF094D2B7849
:10F6F0001F2B02D97846F9F799FF2B7826605A1C00
:10F70000237167712A7004F108010348BDE8F840CD
:10F71000FEF7BCBD503F0020583F002007B540F227
:10F720000713B3EB104F019002D07846F9F77EFF34
:10F7300003481422002103B05DF804EB0DF022BE53
:10F74000683F002013B540F20713B3EB104F019050
:10F750000C4602D07846F9F769FF04491422204686
:10F7600002B0BDE810400DF002BE00BF683F0020AF
:10F77000F7B540F20713B3EB104F01900F4602D0DC
:10F780007846F9F753FF3888FCF78AFC02284AD0FC
:10F790007B68B3F5004F03D94FF6FF72934242D115
:10F7A000BB68B3F5803F3ED897F90C30002B3ADBAD
:10F7B0003E460FCE1D4C25460FC533682B603A8858
:10F7C000234612B9C4E901222273194A14785A68EF
:10F7D000E4B14FF6FF70111A4A424A41E2B19A6809
:10F7E000D2B1144BB4B1B2F5E16F144628BF4FF457
:10F7F000E164121B1A60FDF771F80F4901FB040167
:10F800000E48FDF742F8002003B0F0BD003218BFEB
:10F810000122E3E71C60EEE700240848C3E9014445
:10F82000FDF71CF8EFE70720EEE700BF683F002078
:10F83000B03F0020943F002040420F00983F00203E
:10F8400030B50C4DAC688DB08CB90B48FDF706F89F
:10F850002C22214601A8AC600DF094FD062301A8DE
:10F860008DF804300295FBF7BBF90DB030BD013CBB
:10F87000AC60FAE7803F0020B43F002010B5037869
:10F880000A2B8CB039D11E4AC4891388A34234D1C3
:10F89000418A5388994230D18368032B2DD19368D4
:10F8A0005BB35368B3F5004F3CBF0133536041680D
:10F8B000007F05238DF804300B7803F07F038DF86B
:10F8C00008300B78C0F1010003F07F030344DBB282
:10F8D0008DF809308978ADF80C4001F00F01ADF8D2
:10F8E0000A1091899BB29942D18988BF938101A85E
:10F8F000994238BFD381FBF773F90CB010BD00BF3C
:10F90000803F002070B5294C23888EB0002B4BD04F
:10F91000274D2A6812B97846F9F788FE2B686846A1
:10F920009847054600283FD102AE032201463046E3
:10F930000DF028FD9DF80830227B8DF8095023F04A
:10F940007F0302F07F0213438DF80830194B1B78B8
:10F950008DF80A30019B13B97846F9F767FE0A2340
:10F960008DF8143000238DF820302088BDF8003049
:10F97000ADF82230ADF82600FCF792FB019B0B930B
:10F9800003230793237B8DF824008DF830306FF02C
:10F990000201FF2305A80D930696FAF783FD064B97
:10F9A000003018BF012018700EB070BD683F0020F5
:10F9B000CC3F0020903F0020B13F00200378012B76
:10F9C00004D1034B1B780BB1FFF79CBF704700BFFE
:10F9D000B13F002038B5114D114C2B88DBB16B685D
:10F9E000CBB1226852B94FF6FF7293421CBF03F1AC
:10F9F000FF336B60FFF786FFAB6823602368094A1B
:10FA0000B3F5E16F194628BF4FF4E1614A435B1A31
:10FA10002261236001E00023236138BD683F00209C
:10FA2000943F002040420F0017B40191C1F30741F9
:10FA3000012914D198B90C4814780378D94301F0FE
:10FA4000010294420BD183F001030370074BDB8961
:10FA5000DB0704D503B05DF8044BFFF753BF03B0D9
:10FA60005DF8044B704700BF903F0020683F0020C6
:10FA700008B501210B48FBF785F810B17846F9F776
:10FA8000D5FD094B094ADA60094B0A4A9A600A48CF
:10FA90000A4ADA600A4B0360FBF7CCF8094B0122F3
:10FAA0001A7008BDC4E60300943F0020D5F9020097
:10FAB000B43F002041F802005C3F002040420F00AC
:10FAC000BDF90200B03F0020F0B5054691B010B975
:10FAD0007846F9F7ABFD0DF10201684609F030FDFB
:10FAE000AB68B3F5803F02D9072011B0F0BD28887C
:10FAF000FCF7D6FA01282FD16888FCF7D1FA48B173
:10FB00006888FCF7CDFA032804D06A88BDF8003075
:10FB10009A42E9D11E4C94E80F0001AE86E80F002E
:10FB2000AB68FBB900231B482360A360FCF796FE7B
:10FB30002C22002105A80DF025FC06238DF8143099
:10FB4000BDF80630002B08BF002605A8CDE90664E5
:10FB5000FBF746F80020C8E72888FCF7A1FA002840
:10FB6000CAD0C1E729880029DCD06A88002AD9D008
:10FB7000084DA36021806280EF68FCF7AFFE391862
:10FB80002846FCF782FE7F23E36000236360CFE713
:10FB9000803F0020B43F002000487047803F002095
:10FBA00000487047683F0020034B00221A70034B47
:10FBB0000146186800F046BCB03F0020BEE60300D6
:10FBC000034B186010B97846F9F730BD704700BF95
:10FBD000CC3F002007B5094B0190012208481A705C
:10FBE00001F05AFBFCF77AFE064BD968014418462F
:10FBF00003B05DF804EBFCF748BE00BFB040002046
:10FC0000D03F0020B440002013B50190000CB0F5A7
:10FC1000837F0C4602D07846F9F708FD024B1B782B
:10FC2000237002B010BD00BFB040002037B5019076
:10FC3000000CB0F5837F0C4602D07846F9F7F6FC4D
:10FC400025780E4C22787AB955B10D4801F024FB85
:10FC5000FCF744FE0B4BD96801441846FCF715FE2F
:10FC60000020257003B030BD002DF9D1044801F00B
:10FC700028FB0448FCF7F2FDF2E700BFB04000208B
:10FC8000D03F0020B44000207FB5089C06461D46AA
:10FC90002078531E5A425A4161F3000062F341003A
:10FCA000024620466FF3870206F1100100F8012B8F
:10FCB0002DBA08220DF05BFB6B4621463046C4F896
:10FCC00009500D22FDF76FFC0822694604F10D0072
:10FCD0000DF04DFB04B070BDF0B595B005460DF1CB
:10FCE00037025749564C574F002009F043FB264630
:10FCF0002268002A00F0918051680888142300FBD4
:10FD000003335B089BB2B3F5167F28BF4FF416731D
:10FD10000A2B38BF0A238B80526893780133DBB2F9
:10FD2000022B937006D123685A68002393702268CF
:10FD300052681380336859688B68EA1A48BF5A1BA7
:10FD40008B887B43934273D8FBF750FF0446FBF745
:10FD500069FF9DF837103368A1F1020C02290246B1
:10FD60000EAF0CBF03F1200003F10800DCF100012D
:10FD700041EB0C0123460097FFF786FF0121152375
:10FD80003A463148FFF7DCFA0146002845D0012306
:10FD900003712D4801F0D5FA2C4B1B689B0739D510
:10FDA0002B4B1B68042B35DD2F212A480DF0C4FB9B
:10FDB000002834D02F2127480DF0BEFB411C9DF8B0
:10FDC0003820254B02F00100C2F34002D3F804357D
:10FDD00009929DF8402008929DF83F2007929DF8D7
:10FDE0003E2006929DF83D2005929DF83C2004920D
:10FDF0009DF83B2003929DF83A2002929DF839200D
:10FE00000192164A0A900092052040F201120B94CA
:10FE1000FEF7D8FA33685B689D6015B0F0BD5C21D1
:10FE20000C480DF089FB08B15C21C4E70949C6E71D
:10FE30000DF137022146002009F09CFA58E700BF77
:10FE4000CC40002040420F00D03F0020402E002038
:10FE50003C2E0020D0E6030000100140EEE6030037
:10FE600008B5FCF73BFDBDE80840FFF735BFFFF7DD
:10FE700033BF10B586B002AB0D220C46FDF793FBE5
:10FE800008220DEB020168460DF071FA082204F118
:10FE90000D0168460DF05CFAB0FA80F0400906B03A
:10FEA00010BD000013B5154A154C00231360042142
:10FEB000144AE2600DEB0100134AA2602361FCF7D3
:10FEC0001BFEFCF70BFD0199E268B1FBF2F302FBAC
:10FED0001313184460600D4C0D4A0E49342320461C
:10FEE00001F0DAFA20464FF47A7101F080FA0A4AFA
:10FEF0000A480421FDF7BBFB02B010BDCC40002036
:10FF0000B4400020809698006FFE0200D03F002091
:10FF10006C40002061FE0200A040002031E7030099
:10FF200010B5064C23783BB9054801F0B5F90548F2
:10FF3000FCF772FC0123237010BD00BFB04000200D
:10FF4000D03F0020B44000201FB504A901F8090DDE
:10FF5000044800F077FA10B17846F9F767FB05B06E
:10FF60005DF804FB0300060107B507480DF1030126
:10FF700000F0A8FA10B17846F9F758FB9DF8030095
:10FF800003B05DF804FB00BF030006012DE9F04754
:10FF900017469AB0044610B97846F9F747FB002394
:10FFA0000E93504BD4F809601B689B0736BA30D5C6
:10FFB0004D4B1B68042B2CDD2F214C480DF0BCFA57
:10FFC000002836D02F2149480DF0B6FA411C484B85
:10FFD000D3F804350B96227802F00100C2F34002F8
:10FFE0000A900992227A0892E2790792A2790692FF
:10FFF0006279059222790492E2780392A2780292C1
:020000023000CC
:10000000627801923B4A009205204FF4D572FEF7C8
:10001000D9F9651C0DF137020EA9284609F0AAF995
:100020004FF6FF784FF004090E9B5BB91AB0BDE89C
:10003000F0875C212D480DF07FFA08B15C21C2E702
:100040002A49C4E75B6813B97846F9F7EFFA0E98C6
:10005000082200F1080A294618300DF079F950BB42
:1000600021465046FFF705FF28B30E9B08330E9A32
:1000700051680A8842451CBF01320A8021468DF82A
:100080003C9011F80D2B1496C2F34000C2F300020D
:100090008DF855200E9A8DF854000FA8CDE9102345
:1000A000CDE91271FAF79CFD0DF137020EA9284631
:1000B00009F060F9B8E79DF83730002BF4D00E98BE
:1000C000082200F1200A294630300DF041F90028BD
:1000D000EAD121465046FFF7CCFE0028E4D00E9B23
:1000E0002033C4E7402E00203C2E0020D0E6030041
:1000F0000010014036E703002DE9F3410F4C104E8C
:10010000019205460F469846A64202D102B0BDE8CC
:10011000F08122682B681188188888420CD1518898
:100120005B888B4208D8EA881A448A4204DD42463A
:1001300001996368384698470834E5E754F40300AA
:100140005CF4030038B503685C88C3880C1B9C42D0
:10015000054602D37846F9F769FAA869204438BD04
:1001600037B585B20190020C094C0A48844202D18D
:10017000002003B030BD03681988A94206D1598810
:10018000914203D8C3880B449342F2DC1C30EDE764
:1001900054F4030090F3030070B58EB00E46019046
:1001A0001546FFF7DDFF044688B18388AB4222D8AD
:1001B000C368019831469847F8B9BDF80610204643
:1001C000FFF7C0FF0223037001200EB070BD0224B0
:1001D0002C22002103A80DF0D5F80198CDF81200CB
:1001E000142303A88DF80C308DF81040CDE9066576
:1001F000FAF7F6FCE8E70024EAE70124E8E7000064
:100200002DE9F041304C314E314FDFF8CC8092B0C7
:10021000A4F11C039E4202D112B0BDE8F08154F853
:100220001C3C1A882B4BBB4205D17846F9F7FEF9E6
:1002300000239B78FFDE1988914201D00833F2E752
:100240009B78012B07D0022B01D01C34E0E798F8F3
:100250000030002BF9D000252BE054F8043C5A5D07
:1002600002F00503012B23D154F81C3C18685B886D
:1002700001902B4492079BB220D5ADF8063054F87C
:100280000C2C019802A9904734F8182C019802A967
:1002900000F02CFA0028BFD154F8042C535D23F051
:1002A0000103535554F8042C535D43F00403535594
:1002B000013534F8163CAB42CFD8C6E7ADF806306E
:1002C000019800F03AFAE5E7ACF3030054F40300B8
:1002D00064F403005CF40300D04000202DE9F341F6
:1002E000204C214EA4F11C07A4F11C0846450FD157
:1002F0001E4A1F4B1F4900919B1AF61BDB081E4824
:100300001C21B6FBF1F100F063F902B0BDE8F08109
:1003100054F81C3C34F8162C5B881344B3F5803F2A
:1003200002D37846F9F782F9134DB54201D11C3456
:10033000DAE74545FBD054F81C2C2B681088198847
:1003400088420DD150885988EA880A44904207DAD9
:1003500034F8163C0344994202DA7846F9F766F914
:100360001C35E2E7ACF3030054F403005CF4030033
:1003700064F40300BD03030090F30300014800F0A0
:10038000F7B900BF9901030010B50A4B0A4898421B
:100390000ED0D988002205E09C69A45C14F0050FFA
:1003A00004D101329142F7D81C33F0E7012010BD8F
:1003B0000020FCE790F3030054F4030030B504463A
:1003C0008DB0D0F80200FFF7CBFE054610B9784695
:1003D000F9F72CF92846A188FFF7B4FE03785B07EC
:1003E000054602D47846F9F721F92B7823F0040367
:1003F0002B702378022B0DD12C22002101A80CF0A8
:10040000C1FFD4F802000290132301A88DF8043034
:10041000FAF7E6FBFFF7B8FF014618B1FFF7F0FE69
:100420000DB030BD064B2C22187001A80CF0AAFFAD
:10043000122301A88DF80430FAF7D2FBF0E700BFD1
:10044000D0400020F0B585B00E46019089B3FFF78B
:1004500087FE054678B30198EB6803903146BDF8F6
:1004600006709847044608BB39462846FFF76AFEDF
:100470000378124A43F0030303702B6810481F8867
:100480002346D118884203D17846F9F7CFF805E022
:100490000833D11831F8081CB942F2D1FFF7B0FE89
:1004A0003346039A00212846FFF726FE204605B072
:1004B000F0BD0E24FAE70524F8E700BF5CF4030062
:1004C00064F4030037B50D460190A9B1FFF748FE6B
:1004D000044698B1037A33B10198236929469847B5
:1004E000002003B030BDBDF80610FFF72BFE0378E7
:1004F0009B07F1D40820F4E70E20F2E70520F0E78F
:1005000013B50190FFF72CFE0446D0B1BDF80610DC
:10051000FFF718FE03789A0715D523F0020343F07E
:100520000103037063690BB101989847FFF768FEF8
:1005300020460023019A0121FFF7DEFD002002B0D2
:1005400010BD0520FBE70820F9E700000F4B73B54D
:1005500001220F4C0F4E1A70A4F11C039E4213D1BE
:1005600002B070BD54F81C3C18685B8801902B44A5
:10057000ADF806300198FFF7C3FF013534F8163C9B
:10058000AB42EFD81C34E7E70025F7E7D040002066
:10059000ACF3030054F403007047000030B50A4B7D
:1005A0001C680A4B196800239C4201D1002207E015
:1005B00031F83350854201EBC30203D153681880F0
:1005C000104630BD0133EFE7D4400020DC4000206E
:1005D0002DE9F84FDDF82880894617469A460446EB
:1005E00010B97846F9F722F8B9F1000F02D1784630
:1005F000F9F71CF817B97846F9F718F8BAF1000FAF
:1006000002D17846F9F712F8344E354837600023A6
:10061000344D354F2B60984518BF4046C7F800A0B1
:1006200000F01EF91C2303FB09494C450AD10022A6
:100630000023D7F800E030681C4673453DD14CBB21
:10064000BDE8F88F23681888FFF7A8FF804608B137
:10065000436813B97846F8F7E9FFD8F80430A08862
:10066000B3F802B000F082F9B4F806A000FB0ABAB1
:10067000BAF5803F02DB7846F8F7D8FFD8F80430A7
:10068000A3F802A0D8F80420E18893880B44938053
:100690001C34CAE7A37833B1606800F0F5F810B1F4
:1006A0007846F8F7C3FF204600F078F92B682288D7
:1006B00018440132286092B2BAE730F833C094454A
:1006C00000EBC30108D324B1B4F80080E04598BF23
:1006D000214601330C46B0E72146FAE7DC40002012
:1006E00099050300D8400020D440002073B5164679
:1006F00001900D4611B97846F8F798FF16B978467B
:10070000F8F794FFBDF80400FFF748FF044610B95E
:100710007846F8F78BFF63685B8813B97846F8F77B
:1007200085FF6368BDF80620DA8060683246294696
:1007300002B0BDE8704000F0D3B813B5019080B2AC
:10074000FFF72CFF044610B97846F8F76FFF63688F
:100750005B8813B97846F8F769FF6368BDF806202F
:10076000DA80606802B0BDE8104000F0CFB8000049
:10077000F8B5054610B97846F8F758FF084E094F06
:1007800000243368A34200D8F8BD3B6803EBC403E0
:100790009A781AB12946586800F0D0F80134F0E789
:1007A000D4400020DC40002007B54B684288DA8046
:1007B0004B681B88ADF80430438830F8042BADF843
:1007C000063002F18042013A0B689200014601981E
:1007D0009847024B185C03B05DF804FB79E703000F
:1007E00007B5002A0CBF002302238DF8003030F833
:1007F000083CADF802304B88ADF80430034B684636
:100800001B68984703B05DF804FB00BFE44000207C
:1008100007B5002A0CBF012302238DF8003030F801
:10082000083CADF80230044BADF804101B68684674
:10083000984703B05DF804FBE4400020704700B522
:100840008DB02C22002101A80CF09CFD0E2301A8E4
:100850008DF80430FAF7C4F90DB05DF804FB000020
:1008600008B5064B00221A70054B1860FEF7A4F875
:100870000448BDE80840FEF75FBB00BFE040002031
:10088000E44000203F08030070B5114E448840F654
:10089000F87304F6F774B4FBF3F4337886B02344AA
:1008A0000546337006F035FD3378A0EB03306B88D6
:1008B0000293084B0393084B0493CDE90004074BC4
:1008C0000593694605F10800FEF7D6F906B070BD3C
:1008D000E0400020E1070300110803003D08030089
:1008E00070B508300D4630F8021C1646FEF757F971
:1008F000044648B13246294604300CF038FD204603
:10090000FEF77CF9002070BD0420FCE737B54FF6F8
:10091000FF7300F108050446ADF8043001A9C3884F
:10092000ADF806302846FEF72BF928B1E1882846B5
:10093000FEF77AF903B030BD0520FBE737B50D4669
:10094000044610B97846F8F771FE15B97846F8F7FD
:100950006DFE6B46044A002104F10800CDE9005405
:10096000FEF770F803B030BDA9070300C31D4FF6B2
:10097000FC7018407047000010B5044610B9784666
:10098000F8F754FE044B1B781B03636006F0C1FCB0
:100990006368C01A206010BDE04000208378022BFD
:1009A0000DD143689A88588864235343033003F574
:1009B000FA734FF4A972800802FB003070470020E0
:1009C00070470000094B834210B502D07846F8F713
:1009D0002DFE074C236813B97846F8F727FE2068E8
:1009E00000F0ABFA0023236010BD00BFE8400020F8
:1009F00000410020114B834270B50E46154602D0CF
:100A00007846F8F713FE0E4C23681B69AB4202D2FE
:100A10007846F8F70BFE20682A46314614300CF071
:100A2000A6FC21680748FBF711FD00232360064B55
:100A3000BDE870401868FCF789BC00BFE8400020A2
:100A400000410020F4400020FC400020F0B587B0B9
:100A50001822002168460CF095FC032312488DF8FB
:100A60000030FBF70DFD114D0F4E044614B9012067
:100A700007B0F0BDE368277A0193FBF72FFFE36827
:100A8000024639462846FEF7F5FD21696A4604F11B
:100A90001400FCF7BBFF3046FBF7F2FC074620468C
:100AA00000F04BFA3C46E1E7F4400020E84000202B
:100AB0000F4B834270B50D4602D07846F8F7B6FD6D
:100AC0002B699B0610D50B4E34686CB968681430DE
:100AD00000F031FA306048B12B780372EB68C360E4
:100AE0006B680361204670BD0120FCE70220FAE735
:100AF000E84000200041002008B50748FCF708FC4A
:100B0000064B0749186020220648FEF7CDFD06482F
:100B1000BDE80840FBF790BC4D0A0300FC400020F4
:100B20007CE70300E8400020F440002037B5C0F324
:100B30000745012D01900C4602D97846F8F776FD5D
:100B4000084AA0206843131819792170125862705E
:100B50005B6F4FF47A7203F5FA73B3FBF2F36380C1
:100B600003B030BD1041002037B5C0F30744023C4C
:100B7000E4B2012C01900D4602D97846F8F756FDF3
:100B80000448A02303FB040494F82C302B7003B01A
:100B900030BD00BF1041002073B5C0F30745012DE3
:100BA000019002D97846F8F741FD0E4CA0226A4325
:100BB000161D22442644127912B9304600F06CFB0F
:100BC000012D1CBFA0235D434FF0140118BF01236A
:100BD00030460CBFC4F8A050635102B0BDE870406D
:100BE00000F005BC10410020F7B5C0F30746012E08
:100BF00001900D4602D97846F8F718FD6B78013B55
:100C0000072B22D86B88143BB3F5917F1DD8104F6A
:100C10002978A02474433A19043412793C4471B100
:100C200012B9204600F038FBA02070436B783B508F
:100C30002046698800F0DBFB002003B0F0BD002AED
:100C4000F2D0204600F03DFBEEE70720F5E700BFBD
:100C50001041002013B5C0F30744023CE4B2012C5C
:100C6000019002D97846F8F7E1FC0548A02303FB80
:100C700004000021043002B0BDE8104000F0D7BBF2
:100C80001041002037B5C0F30744023CE4B2012C08
:100C900001900D4602D97846F8F7C8FC0548297836
:100CA000A02303FB0400043000F0C1FB002003B0CC
:100CB00030BD00BF104100201FB5C0F30744043C05
:100CC000E4B2012C019002D97846F8F7AFFC02A8F3
:100CD00000F0C6FB0448A02303FB040002A9043073
:100CE00000F067FB04B010BD1041002073B5C0F3E5
:100CF0000744043CE4B2012C01900E4602D9784628
:100D0000F8F794FC307810F0FC050AD10648A023CF
:100D100003FB04000430314600F04BFB284602B0D0
:100D200070BD0720FBE700BF1041002037B5C0F3BE
:100D30000744043CE4B2012C01900D4602D97846E8
:100D4000F8F774FC0549A02000FB041107226C3160
:100D5000284603B0BDE830400CF009BB104100202C
:100D60000C4B834210B502D07846F8F75FFC0A4C72
:100D7000636813B97846F8F759FC084B2078616826
:100D8000A02202FB0030043000F004FB002363606B
:100D900010BD00BF0441002050420020104100203F
:100DA000124B834270B50E46154602D07846F8F7CE
:100DB0003DFC0F4C636813B97846F8F737FC606860
:100DC0002A2383746B1C43742A46314613300CF07B
:100DD000CEFA084B20786168A02202FB0030043074
:100DE00000F0AFFA0023636070BD00BF0441002033
:100DF0005042002010410020F8B5124B83420D46AE
:100E000002D07846F8F712FC0F4C636813B17846AD
:100E1000F8F70CFC28780D4F6968A02606FB0070D7
:100E20000231043000F052FA606048B1EB680360B0
:100E30002B785E43BB5903712B7823700020F8BDDB
:100E40000220FCE704410020504200201041002015
:100E5000044BC01A044B401158430B46C1B203481F
:100E6000FEF708BC14410020CDCCCCCC04410020BE
:100E7000012882B00AD8032300F58070ADF8043051
:100E8000ADF80600019802B0FFF7DCBA072002B007
:100E90007047012882B00AD8032300F58070ADF8AE
:100EA0000430ADF80600019802B0FFF70BBB072035
:100EB00002B0704770B5114C114A124925460126FF
:100EC00045F8046B4FF48073284600F0E5FA284695
:100ED00000F0E2F9A43444F8046C0B4A00212046E7
:100EE000802300F0D9FA204600F0D6F932460749AF
:100EF0000748BDE87040FEF7D7BB00BF1041002097
:100F00005E420020510E03005E43002094E7030080
:100F100004410020012810B5044602D97846F8F7AC
:100F200085FB034BA02202FB0434207910BD00BFD7
:100F30001041002070470CF0FBB90CF001BA000022
:100F400070B5064618B343680BB34378073BDBB272
:100F5000F72B1ED9104B00781C68A8B90546E8B2DB
:100F6000013500F091F8B5F5807FF8D106F1080160
:100F70000948FDF78BF92CB9204600F095F80120BF
:100F800000F072F8002003E000F07EF8EEE70E209B
:100F900070BD0720FCE700BFE04300202DE9F047CB
:100FA000DFF85C8006461F460C468D18AC4201D324
:100FB000BDE8F087D8F8002004F1020942B1617859
:100FC00012F8083C994207D033B11268002AF7D1D1
:100FD000227801321444E9E7082AF9D012F8071CF4
:100FE000D2F800A0B14201D0FF2906D1217852F8F1
:100FF000043C01393A46484698475246DEE700BF6E
:10100000E0430020F0B5174A447D137C063CE4B26F
:1010100000214FF0010C8C4203DCB3FA83F040094D
:1010200017E04618B57F767F6F0902EB870705F05A
:101030001F057F690CFA05F53D4210D0611AB142D7
:1010400004DC536B013353630120F0BD181C18BF3F
:1010500001200028F9D0936B01339363F5E7013643
:101060003144D8E7E443002030B10548054B4360E4
:101070000023037000F0C2BD014800F0DDBD00BFD9
:10108000E4430020051003004109064A012300F053
:101090001F0003FA00F052F82130034342F82130D8
:1010A000704700BFF8430020012810B5044602D95C
:1010B0007846F8F7BBFA014B1C7410BDE4430020DE
:1010C00010B5044610B97846F8F7B0FAE36F13B9D3
:1010D0007846F8F7ABFAE36FD4E925122046BDE86D
:1010E0001040184710B5037813F0FC0F044602D0E7
:1010F0007846F8F79BFA237803F0FE03022B02BF31
:10110000A37963F03F03A37110BD10B550F8202CF4
:101110001379013BDBB2FD2B04460BD9836D4BB138
:101120001368C0E91C315C30FCF74AF910B178460D
:10113000F8F77CFA54F8201C0B7943B944F8203CAA
:1011400004F138000439BDE81040F9F702BF10BDC2
:1011500038B5054607480C46FBF7BCFCB0FBF4F17C
:1011600001FB1404FBF7BAFB01192846BDE838401F
:10117000FBF78BBB20440020F7B500230B650B78F1
:101180000C46002B4AD091F84030002B33D1CB6F66
:10119000002B2AD104F15C0500266368002B3FD0A8
:1011A0001B79FF2B04D12846F9F7B8FE002837D168
:1011B00063681B79002B33D094F87830002B5FD113
:1011C00065682B7913B97846F8F730FA2B79FF2B3D
:1011D0001CBF03F1FF332B7104F1080000F0D8FCB1
:1011E00048B17846F8F722FA05E001F18000FCF7F3
:1011F00009F90028CED094F84430256F022B02D094
:101200007846F8F713FA2048FBF764FC42F21073B3
:10121000B0FBF3F202FB13002844206503B0F0BDDD
:10122000616821B104392846F9F793FE666001A987
:101230002846F9F72CFE0028F0D1019B1A1D0C332B
:1012400062606362A9E73846FBF744FC94F87730A4
:10125000B0FBF3F202FB1300C3B2AB4209D025444A
:10126000204495F8743090F8742085F8742080F844
:101270007430013694F87730F5B2AB42E3D89FE78B
:101280000026014FF6E700BF204400200148FBF78D
:1012900055BC00BF2044002010B5037804467BB93C
:1012A00001230370436833B1216F04F14400BDE8AA
:1012B0001040FFF74DBF5C30F9F716FE0028F3D160
:1012C00010BD002300F8443BFBF7C8BA2DE9F341F9
:1012D0000D46064610B97846F8F7A8F91F2D02D931
:1012E0007846F8F7A3F905F1110292B201A906F1C7
:1012F0005C00F9F74AFD8046E0B9019C237B02229D
:1013000062F3030306352373657396F86830227B16
:101310005B0863F38612227306F16901062204F169
:101320000F000CF024F8271DC4F80480384602B0E2
:10133000BDE8F081042802D07846F8F777F9002755
:10134000F4E738B505460C4601B110B97846F8F710
:101350006DF9237913B97846F8F768F9237A03F021
:10136000CF036FF3C713237221460023A37231F812
:10137000042D05F15C00F9F759FD2B784BB195F878
:10138000443033B9296F05F14400BDE83840FFF718
:10139000DFBE38BD38B504460D4601B110B97846F8
:1013A000F8F744F9291F04F15C00BDE83840F9F76B
:1013B000D0BD70B50D46044600B111B97846F8F7B6
:1013C00035F92B7813F0FC0F02D07846F8F72EF998
:1013D000EFF3108672B668340722294620460BF0D8
:1013E000C6FF2046FFF77EFE06B962B670BD38B56F
:1013F0000D46044610B97846F8F718F9132D03D8AE
:101400007846F8F713F902E0B5F5205FF8D84FF405
:101410007A7194F84430694321673BB123782BB14A
:1014200004F14400BDE83840FFF792BE38BD38B53E
:101430000D46044610B97846F8F7F8F884F82850B5
:1014400038BD10B504465C30F9F777FCEFF3108235
:1014500072B663680BB10021197102B962B610BD92
:1014600010B54FF080530446D3F8A0200378094903
:1014700012F0010214BF62F347036FF347030370D6
:10148000062201300BF073FF2046BDE81040FFF745
:1014900029BE00BFA4000010F8B50D4616461F4631
:1014A000044600B112B97846F8F7C0F80A2F02D8FE
:1014B0007846F8F7BBF8BAB2314604F15C00F9F7A8
:1014C000E6FB04F16800FFF7CBFF144BE56744F639
:1014D0002062C4E91C23124A22632522628503226A
:1014E00084F82C2084F83C200E4A6263002304F127
:1014F00074010D4A84F8783084F82830A16363625F
:10150000E264646523703DB1224604F1800007491E
:10151000BDE8F840FBF73CBFF8BD00BF2526270318
:10152000D6BE898E0B11030079110300C110030090
:10153000034A136813B1002111601847704700BFB8
:101540004444002008B50848FAF7ADFF48B9074BF6
:10155000186818B1064B187880F0010000F00100FF
:1015600008BD0120FAE700BF3444002048440020B1
:10157000304400201C4B10B501214FF0FF321B4CB2
:1015800059604FF48060D960C3F808230022C3F883
:101590000022C4F880010424C3F84021C3F8401598
:1015A000C3F81045C3F80425114CC3F80825114AA7
:1015B000C2F86045A4F50354383CC2F86445C2F84B
:1015C00004051960D3F840110029FBD00021C3F8AD
:1015D00040114FF48061C2F80815074AD2F8480557
:1015E000D3F84035C01A10BD00A0004000E100E073
:1015F00040A1004000F0014000800040F8B5FBF73A
:101600005BFC00286BD13648FAF74DFF054680B1E8
:101610000468FBF76BFC0646FBF762FC002C40D02D
:10162000E3686433984206D20120BDE8F840FBF736
:1016300095BC0446EDE79E4233D92A4E33781BB160
:1016400000F0ECFC002333702548FAF719FF8542BF
:1016500002D07846F7F7EAFF002501206561FBF725
:101660008FFC214B214F1C60214B224E4FF0FF324B
:10167000C3F80823204B0222C3F88021FFF77AFF2A
:10168000E3681E4A216935700344136001233B70EF
:101690002368984733783D700BB3BDE8F84000F0FD
:1016A0002FB8B6F5FA7F1AD900F090FD98B10D4B1E
:1016B0001A78A2B90E4A4FF0FF31C2F808130E4A49
:1016C0000221C2F8801101221A70FFF753FFBDE812
:1016D000F84000F08FBCBDE8F840FBF731BCF8BD26
:1016E000344400204144002048440020404400206D
:1016F000001000403044002000E100E03C440020A5
:1017000008B5FBF789FC0C4B1B68C01A002802DBEC
:101710007846F7F78BFF0020FBF732FC074B0022DF
:101720001A60074B1B781BB1BDE80840FBF708BCEB
:10173000BDE80840FFF762BF3C4400204844002059
:101740004244002038B5114C2268A2B1936813B905
:101750007846F7F76BFF0E4D01232B7023689A68CC
:101760001869904700232B700A4B1B786BB1BDE8BA
:101770003840FFF7C5BF084B1B7813B97846F7F719
:1017800055FFBDE8384000F0F3BC38BD48440020A8
:1017900040440020304400204144002008B509485E
:1017A000FAF74AFE084A00231360084A1370084AF1
:1017B00001211170074A1370074A1370074A82F813
:1017C0000A3308BD3444002048440020414400202E
:1017D00042440020404400203044002000E100E06A
:1017E00008B5094B1B786BB900F0F0FC30B1FBF782
:1017F0003FFB38B1BDE80840FBF790BBFFF7A2FE06
:101800000028F4D108BD00BF4244002010B5054BAC
:101810001A782AB100241C70FFF7E2FF204610BDA1
:101820000820FCE74244002010B5044610B9784671
:10183000F7F7FCFE236813B97846F7F7F7FEE3687D
:1018400013B97846F7F7F2FEE2680E4B9A4202D9D6
:101850007846F7F7EBFE6369A34211D00A4864614A
:1018600004F11401FAF7F2FD084B1B7803F0FF00B6
:1018700023B9074B1C6824B9FFF7B2FF002000E032
:10188000082010BD6085010034440020424400203F
:101890004844002010B50E4B1B6813B97846F7F783
:1018A000C5FEFBF735FB10B97846F7F7BFFE094CCC
:1018B000227812B17846F7F7B9FE074B1B7813B1BF
:1018C0000123237010BDBDE81040FFF719BF00BF12
:1018D00048440020304400204044002038B5FBF745
:1018E00017FB10B97846F7F7A1FE144C2268A2B195
:1018F000536813B97846F7F799FE114D01232B7001
:1019000023685A681869904700232B700D4B1B7889
:1019100093B1BDE83840FFF7F3BE0B4B1B7813B90A
:101920007846F7F783FE00F081FB00F04FFC18B912
:10193000BDE83840FBF704BB38BD00BF4844002079
:1019400040440020304400204144002008B5FBF70B
:10195000DFFA10B97846F7F769FE074B1B6853B9F1
:10196000064B1B781BB1BDE80840FBF7E9BABDE8A0
:101970000840FFF743BE08BD484400204244002011
:1019800008B5FBF7C5FA10B97846F7F74FFE084BD4
:101990001B6813B17846F7F749FE064B4FF4806297
:1019A0001A6002221A60BDE80840FFF727BE00BF98
:1019B0004844002000E100E038B5FBF7A9FA10B96F
:1019C0007846F7F733FE134B1B6813B17846F7F7E9
:1019D0002DFE114C23781BB100F020FB0023237057
:1019E0000E4B0F4D01214FF0FF3400225960D9609A
:1019F000C3F80843C3F800220A4A4FF48060C2F8D3
:101A00008001C5F808430224C2F880411961C2F878
:101A1000800038BD484400204144002000A0004020
:101A20000010004000E100E0024B1B780BB1FFF713
:101A30007FBD70474244002070B5244CD4F810316B
:101A4000054613B97846F7F7F1FD214E0023C4F897
:101A5000103133780133337000F03EFD95F83420B7
:101A600033789A421DD21B4BD3F840651A4B196844
:101A70000E44FBF7D1FAEB6A0446314605F11C002F
:101A80009847FBF7C9FA001B502802D47846F7F7AD
:101A9000CDFD00F055FDFFF7FDFE002385F8383041
:101AA00070BD0DD92A6BD05C00F020F9074BD3F83C
:101AB0001031002BF4D07846BDE87040F7F7B6BD82
:101AC0000323C4F8003200F015FDEFE700100040DA
:101AD0005044002000A000404C440020F8B5264AA5
:101AE000264B274FC3F8602502F50F423C32C3F85E
:101AF00064254FF480620D46C3F80425044600F0C7
:101B0000D5F805F1200000F005F90021A86A00F0E1
:101B100047F92B6B187800F0E9F8012620463E7053
:101B2000FBF7CEFA174B184C1860EB69C4F8043574
:101B30000023C4F810311023C4F80433134B5E643F
:101B40002660D3F844053146304400F069FC95F82E
:101B50003430B34209D90723C4F800323B782A6BEA
:101B6000D05CBDE8F84000F0C1B80323C4F80032EF
:101B7000BDE8F84000F0BEBC0411004000F0014098
:101B8000504400204C4400200010004000A00040C1
:101B900010B5C36A044613B97846F7F747FD94F8C1
:101BA00038301BBB124B2360124B6360E36994F81F
:101BB0002410587894F83420042900F10A0308BF4F
:101BC00000F10B030C48415C4B432E3353439833D5
:101BD000C4E90334012384F838302046FFF724FE9B
:101BE00018B17846F7F722FD002010BD1120FCE760
:101BF000DD1A0300391A0300A0E7030010B50446FC
:101C000010B97846F7F712FD636813B97846F7F70D
:101C10000DFD2378012B02D97846F7F707FD2078D0
:101C2000044B04F10C0103EBC000BDE81040FCF7CD
:101C30002DBB00BF5444002010B5044610B97846AF
:101C4000F7F7F4FC2378012B02D97846F7F7EEFC7E
:101C50002078044B04F10C0103EBC000BDE81040F8
:101C6000FCF735BB54440020F8B506460F4611B9C1
:101C70007846F7F7DBFC012E02D97846F7F7D6FC59
:101C8000094C54F8365035B904EBC60043680133AB
:101C900043602846F8BD55E9023138469847002888
:101CA000F8D12D68EFE700BF544400200D4B00220F
:101CB000C3F8FC2F0122C3F8FC2F40F25B62C3F88B
:101CC000382540F20312C3F83425074AC3F83C25EF
:101CD0009622C3F84425D3F8502642F00102C3F8F7
:101CE000502670470010004055555500272810B564
:101CF000044602D97846F7F799FC044B1A5D044B69
:101D0000C3F80825C3F8544510BD00BFA6E703007B
:101D10000010004010B5044610B97846F7F786FC6D
:101D20002379052B02D97846F7F780FC638813B92D
:101D30007846F7F77BFC63880233B3F5817F02D9DD
:101D40007846F7F773FC154B2278C3F80C252279F7
:101D5000C3F81025A27842F0007242F44032C3F872
:101D600018256288252A8CBF08220622C2F10801A4
:101D700042F4807242EA0142C3F81425D3F81425D4
:101D800042F48012C3F814252279042A02BFD3F842
:101D9000142542F08072C3F8142510BD00100040D5
:101DA00070B5124DD5F81835C3F30243032B044622
:101DB0000E4602D07846F7F739FC36B1012E0BD02B
:101DC0007846BDE87040F7F731BC230E2402C5F811
:101DD0002435C5F81C4570BD230C044A03F47F4329
:101DE0002402C2F82435C2F82045F4E70010004070
:101DF000EFF3108372B6054A52781AB1044A0221F1
:101E0000C2F8001103B962B6704700BF64440020F5
:101E100000E100E0024B00221A71FFF7E9BF00BFAA
:101E200064440020074B5A7993F82F100132D2B244
:101E300091425A719CBF00225A7102221A71FFF717
:101E4000D7BF00BF64440020F8B5194D194EFFF705
:101E50002DFF00241848FFF75DFF0127C5F8304526
:101E600056F8040F48B12146FFF79AFFD5F8302500
:101E700007FA04F31343C5F830350134082CEFD1C9
:101E80000B4B1122C3F80443C3F800220022C3F80D
:101E9000042103F5F033094AC3F8602502F5DE4258
:101EA0004432C3F864254FF48062C3F80425F8BDBA
:101EB00000100040904400208044002004110040A5
:101EC00010B50F4CA36813B17846F7F7AFFB0D4977
:101ED0003C2201F17C00F8F758FF031E09BFA268FD
:101EE000A2690949183213BF0132C1F80425012043
:101EF000002018BFA261003318BF0123A37010BDDA
:101F0000644400206C4400200010004038B5194B98
:101F1000D3F8503513B17846F7F788FB164D6B7937
:101F20002B4493F82C00FFF7E1FEEB781BB1FFF791
:101F30008BFF0023EB70FFF7C3FFB8B10F4C0D4BC5
:101F4000012161645960D4F84405084400F096FA10
:101F500000F0D0FA0023C4F84431094B4FF48062FA
:101F6000C3F880214FF40033C4F8043301232B71EC
:101F700038BD00BF001000406444002000A00040B5
:101F800000E100E070B50B4C0B4D012200262261F0
:101F9000C4F80C61A96821B105F18400F8F7D9FFF4
:101FA000AE60D4F85035002BFBD1BDE8704000F096
:101FB000C7BA00BF001000406444002010B5FAF713
:101FC0008DFC04460948D0E909138B4208D16830DA
:101FD000FAF744FC21460648BDE81040FAF755BC24
:101FE00021446830FAF751FCF4E700BF6444002054
:101FF000B444002010B5084C012363700023E37043
:10200000FFF722FF2378022B05D123791BB1BDE80E
:102010001040FFF77BBF10BD64440020024B00223C
:102020005A70FFF7AFBF00BF64440020F8B54C4BB7
:102030004C4CD3F80C21002A50D00022C3F80C21BC
:10204000D3F80C21D3F80024A56822B92369013301
:102050002361294655E0697EE28B914248D8D3F846
:10206000482552426A73D3F8082404EB82022E1DDD
:10207000126BAA60D3F8543503F03F032B733A4B2D
:10208000D3F848753846FBF71BF80622686005F15F
:102090001B0105F10F000BF06AF92B7EAA7BC3F33D
:1020A000801161F34702AA73C3F303036B75E368FE
:1020B0000133E360D4F89032F3B931460020FFF7E2
:1020C000D3FDE8B96A7E2948A1681732F8F7AEFE59
:1020D000D4F88000FBF73AF90023A3602378012BA2
:1020E00013D0022B15D07846BDE8F840F7F79EBA1A
:1020F000636901336361ACE7394630469847DCE7F2
:10210000A1681A48F8F725FFE6E7BDE8F840FFF7B1
:1021100039BF134BD3F85035032BE4D8DFE803F075
:1021200002190A1923799BB1022BDCD8BDE8F840CB
:10213000FFF7ECBE2479012C05D0E6D3022CD2D1D6
:10214000FFF720FFF2E7FFF7BBFE08B1044B9C60EE
:10215000F8BD2379012BFBD0D7D3022BEFE700BFCB
:10216000001000406444002000800040E84400204B
:1021700010B50A4CD4F8443113B97846F7F756FA3B
:102180004FF40033C4F808330023C4F84431D4F8C2
:102190004431BDE8104000F09FB900BF00A00040EE
:1021A00010B5094C237813B97846F7F73FFA23782E
:1021B000012B07D1FFF702FF02232370BDE8104077
:1021C000FFF70EBB10BD00BF64440020024B18781F
:1021D000831E5842584170476444002038B5054674
:1021E00010B97846F7F722FA064C291F04F184004B
:1021F000F8F7AFFEA3781BB1BDE83840FFF7F8BD94
:1022000038BD00BF6444002013B50B4C01A9204623
:10221000F8F73DFE08B100200BE0019901200431E0
:10222000FFF722FD019B18B1181DFFF7D7FFEDE75F
:10223000181D02B010BD00BFE84400200148F8F7A7
:1022400053BE00BFE8440020884238B504460D461E
:1022500002D27846F7F7EAF90C4B9C4202D978464D
:10226000F7F7E4F940F6B7339D4202D87846F7F71E
:10227000DDF9074BC3E909545C67DC651B78022B69
:1022800003D1BDE83840FFF799BE38BD00007102A8
:10229000644400204B1E022B70B506460C4602D942
:1022A0007846F7F7C3F93246931BDBB29C420AD952
:1022B00012F8013B252BF7D0262BF5D0272BF3D096
:1022C0007846F7F7B3F9064D2246314605F12C0062
:1022D0000BF04DF800236B7185F82F4070BD00BFE7
:1022E000644400204B1E072B70B506460D4602D9EC
:1022F0007846F7F79BF9084C2022002104F13000C2
:102300000BF040F8AA00314604F130000BF02FF832
:102310000123E37070BD00BF6444002007B50F4B7C
:1023200068461A889B78ADF8002003218DF80230AA
:10233000FFF7B0FF02A80A4B40F8043D0121FFF768
:10234000D1FF084B0849032283F8202008460122C8
:10235000DA70FFF779FF03B05DF804FBCEE7030006
:10236000D6BE898E6444002080841E0038B5114C8E
:1023700005464FF42572002120460BF003F84FF478
:10238000007204F1900104F18400F8F780FCFFF77B
:10239000C5FF002323772523E383074B2367074BE0
:1023A000A3652846012323702371FAF7B1FFC4F80F
:1023B000800038BD64440020151E0300251E030064
:1023C0000278D3070DD59108012312F0020F03FA0A
:1023D00001F34FF0A04202D0C2F80C357047C2F8AA
:1023E00008357047002303600B4B99781B79CA00AE
:1023F00002F180429B0002F5F83203F1804303F5BD
:10240000C043C2F81005C2F814350123034A8B40BB
:10241000C2F80435704700BFF846002000F00140C4
:1024200038B5114B5A7905460C46E2B11A78D107F6
:1024300019D599780D4B0E4812F0020F18BF4FF0C6
:102440000313920843EA022301F5A272094900EB43
:10245000840041F82230FFF7C5FF04F5A874064B4D
:10246000163543F8245038BDF84600200300130009
:1024700040A100400060004000A0004038B5114B72
:102480005A7905460C46E2B15A78D10719D59978A0
:102490000D4B0E4812F0020F18BF4FF003139208B5
:1024A00043EA022301F5A272094900EB840041F8D6
:1024B0002230FFF797FF04F5A874064B163543F852
:1024C000245038BDF84600200300130040A100400E
:1024D0000060004000A00040044B5A792AB19A786D
:1024E00001239340024AC2F808357047F84600209D
:1024F00000F001400F494B79D3B10F4B0022C3F8D4
:102500001021C878C20002F1804202F5F83203F5CA
:102510008873C2F810350B799B0003F1804303F5F3
:10252000C043C2F814350123044A8340C2F804357D
:10253000704700BFF84600200010004000F0014046
:1025400010B50F4C6379CBB1E178A378012202FA80
:1025500003F38A4013430B4AC2F808352379A2F5E6
:10256000C83203F5A2730021204642F82310FFF77A
:1025700027FF601CBDE81040FFF722BF10BD00BF61
:10258000F846002000F001402DE9F043194E1A4CA6
:10259000338889B04FF6FF75ADF800304FF0000872
:1025A0002368029302279146ADF80C10ADF806504F
:1025B000ADF804008DF80E808DF80F70F9F730FF3C
:1025C0000E4B0490069368460D4BADF81650ADF8CF
:1025D0001490079305F0D4F8054640B12068FEF743
:1025E000ACFCC4F80080284609B0BDE8F083B770A1
:1025F000F9E700BF00470020084700200087930349
:102600000526030070B5104D2868144618B1FEF772
:1026100094FC00232B6001200C4B8442987007D05F
:1026200011D3022C0BD07846BDE87040F6F7FEBF00
:1026300000225B6811461046BDE870401847002232
:102640005B681146F8E770BD08470020004700208E
:10265000064B9B781BB90823036001207047022BAF
:1026600001D11123F8E70020704700BF0047002088
:1026700073B5144A0C46098800230620154600FB52
:1026800003F6B65A8E4206D00133102BF7D17846A6
:10269000F6F7CCFF0023062101FB0353228959885A
:1026A00091420CD89B88934209D32388ADF800301F
:1026B00063680193044B69465B680220984702B047
:1026C00070BD00BFD2E70300004700202DE9F74F9F
:1026D000164C01929846236882468946170C13B11E
:1026E0007846F6F7A3FFBDF804504FF6FF7B5D4533
:1026F0000CBF062608263046FEF71DFC206088B178
:102700005D45A0F800A0A0F802900EBF8780C780AA
:10271000858048F21F023146404603B0BDE8F04FC5
:10272000FFF732BF042003B0BDE8F08F0847002058
:102730002DE9F74F184DCDE900322B6883468A46C4
:10274000170C13B17846F6F771FFBDF804904FF6F9
:10275000FF78C1450CBF142616263046FEF7EBFB6A
:1027600004462860A0B1514620F802BB10220AF0AE
:10277000FEFD0098C14548F21F0231460EBF678238
:10278000A782A4F8129003B0BDE8F04FFFF7FCBE9B
:10279000042003B0BDE8F08F084700202DE9F04F7A
:1027A00085B0814604A81F460023019240F8043DED
:1027B0008846160CFFF74CFF18B1039805B0BDE82A
:1027C000F08F134C236813B17846F6F72FFFBDF84E
:1027D00004504FF6FF7B5D450CBF4FF0060A4FF0EB
:1027E000080A5046FEF7A7FB206078B15D45A0F8C7
:1027F0000090A0F802800EBF8680C680858048F2D7
:102800003E0251463846FFF7BFFED7E70420D5E722
:102810000847002030B5054687B0D0B1142200210A
:1028200001A80AF0AFFD0C4B00930C4C0C4B02932B
:1028300010230393A37813B17846F6F7F7FE074900
:10284000684604F031F810B90123A370656007B041
:1028500030BD0E20FBE700BFFFFF01000047002056
:1028600034E80300F7B5064602A8002340F8043D0B
:102870000F46FFF7EDFE10B1019803B0F0BD4FF623
:10288000FF7399422BD09E422BD0174C22889A423C
:1028900002D17846F6F7CAFE02A94FF6FF7521F875
:1028A000065D208804F02EF901900028E5D1394614
:1028B000208804F009F901900028DED131462088F3
:1028C00004F096FB019038B1BDF80210A942D3D0B4
:1028D000208804F0F9F8CFE703F0C4FBCCE7102020
:1028E000CBE70720C9E700BF0047002007B5014636
:1028F00002A8002340F8043DFFF7AAFE38B9064BB2
:10290000188804F0F7FA019008B903F0ABFB0198BE
:1029100003B05DF804FB00BF0047002037B5054653
:1029200002A8002340F8043DFFF792FE10B1019881
:1029300003B030BD0A4C226812B17846F6F776FE35
:102940000120FEF7F8FA206038B10570022201215B
:1029500048F20800FFF718FEEAE70420E8E700BFA6
:1029600008470020F7B5054602A8002340F8043DBB
:102970000C461646FFF76CFE10B1019803B0F0BD8F
:1029800012B97846F6F752FE114F3A6812B17846FE
:10299000F6F74CFE1320FEF7CEFA3860A8B1437864
:1029A00005702D0A65F3030364F3071324094370CC
:1029B00084703146102203300AF0D9FC48F2030239
:1029C00013210020FFF7E0FDD8E70420D6E700BF81
:1029D000084700202DE9F743044602A8002340F8E9
:1029E000043DFFF735FE18B1019803B0BDE8F08350
:1029F000002C00F08C802179464A02291368914608
:102A000046D113B17846F6F711FEB4F813804FF6AD
:102A1000FF77B84514BF1B2619263046FEF78BFA00
:102A20000546C9F8000008B90420DEE7238820F82D
:102A3000023B1022A1680AF09AFC237BAB74637BF3
:102A400003F00F03EB74E37B2B75237C03F003028D
:102A5000C3F3850343EA82136B75627CAB7D62F33B
:102A60000203AB75A27C62F3C703AB75B4F81530F3
:102A7000B8451CBFA5F81930B4F81330A5F81730C5
:102A800048F21902314648F21A00FFF77DFDACE723
:102A900013B17846F6F7CAFDB4F813704FF6FF7617
:102AA000B74214BF0D250B252846FEF744FAC9F896
:102AB00000000028B8D023880380E3884380237B6C
:102AC0000371637B03F00F034371E37B8371237C0A
:102AD00003F00302C3F3850343EA8213C371627CEC
:102AE000037A62F302030372A27C62F3C7030372E8
:102AF000B4F81530B7421CBFA0F80B30B4F813304F
:102B0000A0F8093048F2190229460320BDE70E203B
:102B10006BE700BF0847002010B586B0044602A846
:102B200080E8060006A80193002340F8043DFFF763
:102B30008FFD10B1059806B010BD9DF80830022B2E
:102B400007D148F22003019A03992046FFF7F0FDD0
:102B5000F1E748F21B03019ABDF80A102046FFF77F
:102B6000B5FDE8E773B5064602A8002340F8043D2A
:102B70000D46FFF76DFD10B1019802B070BD072E34
:102B80001AD81F2918D80E4C226812B17846F6F7C9
:102B90004DFD0120FEF7CFF9206078B1037866F390
:102BA000020365F3C703037048F22502012148F2CE
:102BB0002400FFF7E9FCE0E70720DEE70420DCE77C
:102BC0000847002082B048F23D03019202B0FFF7AF
:102BD000E5BD0000014B188804F09EBD00470020B1
:102BE0002DE9F04F0C4689B0814600B111B9784605
:102BF000F6F71CFD23881D2B02D87846F6F716FD44
:102C000059224FF42013CDE905230025012305A9FE
:102C10000A224846ADF81C30ADF802500AF0A7FB76
:102C20000A2323800DF10601284604F095FA10B11D
:102C30007846F6F7FBFC0DF10701002004F098FA46
:102C400010B17846F6F7F2FC9DF806309DF80720A3
:102C5000D3423ED001A9002004F072FA10B17846A8
:102C6000F6F7E4FC08AA04230DF10C0822F81E3D37
:102C70004146002004F0C8FA10B17846F6F7D6FCB9
:102C8000208804220DEB020148440AF070FB2688DC
:102C90009DF806300436B6B2268053B10027BDF841
:102CA00002A03D464FF6FF7B574515D323881D44B0
:102CB00025809DF8073063B12388BDF80270002697
:102CC000994435464FF6FF7ABE421DD323881D44F2
:102CD000258009B0BDE8F08F02A938F8170004F08C
:102CE00053FA10B17846F6F7A1FCBDF808305B4501
:102CF00008D1A81902220DF10A0148440AF037FB55
:102D00000235ADB20137CFE702A938F8160004F05A
:102D10003BFA10B17846F6F789FCBDF80830534508
:102D20000FD0022202A909EB05000AF020FBA81C23
:102D300002220DF10A0119FA80F00AF018FB04359D
:102D4000ADB20136C0E70000024B1B6803B1184763
:102D5000704700BF0C47002013B5044601A805F0DA
:102D60009DFCBDF80400001B18BF4FF0FF3080B27F
:102D700002B010BD37B50446FCF712FF054600232C
:102D800001A8009305F08AFC6946288A06F044FAF7
:102D900030B9009B6360BDF80430238003B030BDC0
:102DA0000520FBE71FB50193BDF81830ADF80830DA
:102DB0000023ADF800208DF80A304FF6FF72022391
:102DC000ADF802208DF80B306A46079B039303F0A1
:102DD0006DFE05B05DF804FB7FB505460E4600208C
:102DE00003A98DF80800FEF754F810B17846F6F7FD
:102DF0001DFC9DF80D309DF80820013B0A2104AC14
:102E000063F30202BDF80E30B3FBF1F3013B63F351
:102E1000C70204F8082DF9F703FB01230190009382
:102E200048F22502234631462846FFF7BBFF04B08F
:102E300070BD7FB50B89012B06460D4631D14C681C
:102E40008DF804302378C3F3020301338DF8053085
:102E50002378DA080A2302FB0333142BB8BF1423A8
:102E600001A90020ADF80630FEF702F810B178464F
:102E7000F6F7DCFB30462946FFF7AEFF0023CDE92D
:102E8000023311238DF808302378C3F302038DF841
:102E90000C30237802A8C3F3C4038DF80D30FFF77C
:102EA00053FF04B070BD0B890BB9FFF795BF704796
:102EB00037B504460D46F9F7B3FA084B1860084BCE
:102EC00001221A7000230190009348F24A02294619
:102ED0002046FFF767FF03B030BD00BF1447002056
:102EE0001047002030B50B89032B85B005460C46F2
:102EF00018D14B689A78012A14D800228DF80C203A
:102F00001B88ADF80D3002238DF80F30F9F788FAE1
:102F100004230190009348F2480203AB214628465F
:102F2000FFF740FF05B030BD30B585B004460D4613
:102F30008DF80C20ADF80D30F9F772FA03230190EB
:102F4000009348F2440203AB29462046FFF72AFFCC
:102F500005B030BD30B585B004460D46002303A949
:102F60000120ADF80830FDF794FF10B17846F6F770
:102F70005DFB9DF80C308DF808309DF80D309DF804
:102F80000920013B63F30202BDF80E308DF80920E1
:102F9000142B15D1D2B212F0070111D161F3C7027F
:102FA0008DF80920F9F73CFA02230190009348F2CA
:102FB000280202AB29462046FFF7F4FE05B030BDDB
:102FC0000A22B3FBF2F39DF80920013B63F3C70229
:102FD000E6E77FB50B89022B05460E463ED14C68CD
:102FE0002378012B3AD803F001038DF8043063787D
:102FF000C3F3020301338DF80530637883BB1423D8
:10300000ADF80630BDF80630142B38BF142301A9E3
:103010000120ADF80630FDF72BFF10B17846F6F72A
:1030200005FB28463146FFF795FF0023CDE9023323
:1030300012238DF8083023785A1E534253418DF8DD
:103040000C306378C3F302038DF80D30637802A867
:10305000C3F3C4038DF80E30FFF776FE04B070BDE5
:10306000DB08013303EB83035B00C9E70B890BB972
:10307000FFF770BF704770B586B00D46ADF80F30E2
:103080009DF82C30ADF80D2000218B4204460A98A3
:103090008DF80C1014BF07260926CDF81100F9F79A
:1030A000BFF903ABCDE9006048F21F022946204674
:1030B000FFF778FE06B070BD30B587B004460393C5
:1030C00006AB8DF8142033F80C2DADF815209B7845
:1030D0008DF817300D46F9F7A3F9042301900093FA
:1030E00048F2030205AB29462046FFF75BFE07B016
:1030F00030BD2DE9F0430B89022B85B081460C468B
:1031000038D14B681E88C6F30B0005F0F1FBA38C89
:103110008342074631D133460C2221464846FFF709
:1031200003FF27E038F8150005F0F6FB28F8150036
:103130000135029BAB42F5D82EE038F8150004F0BB
:10314000CDF810B17846F6F771FA0135029BAB4223
:10315000F3D83346484600222146FFF7E5FE002318
:10316000CDE9023302A819238DF80830ADF80C70B0
:10317000FFF7EAFD05B0BDE8F0834FF6FF73984214
:10318000E7D00DF10408012302AA4146029305F09D
:10319000C1FF05460028CCD0384605F07FFF054624
:1031A0000028D3D00F28B6D033460422B5E700005C
:1031B000F0B50B89122B85B007460D4625D14E6818
:1031C0000A88344648F2400334F8020B9A42C0F3AE
:1031D0000B001CD121460DF1060205F00DFC182351
:1031E00004460F2C8DF80830BDF80630ADF80C30D1
:1031F00096BF0C4B10221A5D338829463846FFF7DC
:1032000093FE14B902A8FFF79FFD05B0F0BD05F0CD
:103210006FFB2146ADF8060005F08CFC1A2304462E
:10322000DFE700BFB4E803002DE9F0431F460B8839
:1032300047F6E57843449BB2102B87B005460C4611
:10324000164656D84FF0010909FA03F313F0EF01BF
:103250001BD113F4803060D15B044AD501460522AE
:1032600003A80AF08FF863688DF80C701A88ADF81F
:103270000D205B88ADF80F30F9F7D2F805230093E5
:10328000019003AB48F22A022FE00922002103A893
:103290000AF078F823888DF80C7043449BB2072B12
:1032A0000AD809FA03F313F00B0F09D113F0040243
:1032B0002DD113F0E00F1FD17846F6F7B7F909E0EA
:1032C00063681A88ADF80D205A88ADF80F205B6846
:1032D000CDF81130002E14BF07260926F9F7A0F803
:1032E000CDE9006003AB48F21F0221462846FFF7F4
:1032F00059FD07B0BDE8F083636833F8121BADF8E1
:103300000D108DF80F208DF810201B68E0E7636822
:1033100033F8022BADF80D20F7E7072203A80AF0D7
:1033200031F863688DF80C701A88ADF80D209A8812
:10333000ADF811205B88ADF80F30F9F771F807236D
:103340000093019003AB48F22C02CEE77FB504AAAC
:10335000042322F80A3D02A9064603F08DFD062843
:1033600025D010B17846F6F761F90025BDF80620A2
:10337000ABB29A4202D8002004B070BDACB2640077
:1033800004AB2344304633F8081C03F041FD10B170
:103390007846F6F74BF904AB1C4434F8080C05F0FA
:1033A0002DFA10B17846F6F741F90135DEE708202D
:1033B000E2E72DE9F0438DB01C46154606460F4660
:1033C000092200210DF1250009F0DCFF00230DF199
:1033D0000B0120468DF82030ADF8215003F068FE37
:1033E00010B17846F6F722F99DF826309DF80B20AB
:1033F00062F304136FF3471305A920468DF82630B6
:1034000003F0C2FE10B17846F6F710F9BDF814507B
:10341000BDF816304FF6FF7295420DF10E012046B1
:103420000EBFADF82A30ADF82C30ADF82A5003F0BD
:1034300069FB10B17846F6F7F9F8BDF80E004FF6C3
:10344000FF73984218D100238DF823308DF8243073
:103450004FF6FF739D4214BF0E250C25F8F7E0FFD1
:1034600008ABCDE9005048F2190239463046FFF763
:1034700099FC0DB0BDE8F08306A905F08DF910B1F7
:103480007846F6F7D3F8BDF81A30ADF8233004A922
:10349000204603F0CBFD05288046D4D0002848D133
:1034A0000DF11201BDF8100005F04AFA0528814619
:1034B00004D18DF823808DF82480C9E70028C7D176
:1034C0009DF812308DF825309DF8133003F00F026F
:1034D0009DF8263023F00F0313430DF127012046FA
:1034E0008DF8263003F018FE0122494603A809F0A2
:1034F00049FF0DF10D0203A9204603F053FB9DF88F
:103500000C209DF80D3002A943EA821320468DF865
:10351000283003F031FB9DF808209DF82930C2F3D4
:10352000020161F30203D20862F3C7038DF8293068
:103530008EE77846F6F77AF88AE7F0B50B89032B21
:1035400087B007460C4619D14D6804238DF80C301E
:103550002B88ADF80D3000238DF80F302888C0F38C
:103560000B0005F0C5F90DF10B01064605F0D2FA86
:10357000D0B9AB78022B03D0032B32D007B0F0BD0B
:103580009DF80B305A1E012AF8D8012B06D130467F
:1035900005F01EFB10B17846F6F748F800238DF8C9
:1035A0000C3002238DF80F30F8F73AFF0423019016
:1035B000009348F2170203AB21463846FFF7F2FBAF
:1035C0009DF80C30002BD9D1CDE9043308238DF8B8
:1035D000103004A89DF80F308DF81430FFF7B4FBBD
:1035E000CCE79DF80B30032BC8D033B1304605F043
:1035F00017FB10B17846F6F719F800238DF80C3058
:10360000D0E770B50D89012D86B006460C461ED157
:103610004B6818788DF80F0003F01CFDB8B905232E
:10362000CDE904008DF8103004A89DF80F308DF816
:103630001430FFF789FBF8F7F3FE0DF10F03CDE926
:10364000005048F20E0221463046FFF7ABFB06B0B1
:1036500070BD7FB50E460546FCF786FC04AC04F849
:10366000040DF8F7DDFE01230190009348F20B02F0
:10367000234631462846FFF795FB04B070BD0B8901
:103680000BB9FFF7E6BF704770B50B89092B8CB0FB
:1036900006460D465CD14C682388ADF81C30A378F3
:1036A0002BB1102B56D8013B012202FA03F30893E9
:1036B000E37843B1112B9DBF03F1FF33012202FADE
:1036C00003F34FF0FF33099323798DF82830B4F8D2
:1036D000053003F00F03ADF82A30B4F80730ADF829
:1036E0002C30B4F8070005F003F94FF6FF73984249
:1036F00037D104238DF810302388ADF81130E378EA
:103700008DF81430A3788DF8133023798DF81530A7
:10371000B4F8053003F00F03ADF81630B4F80730F5
:10372000ADF81830F8F77CFE0A23019000930622CA
:1037300004AB29463046FFF735FB9DF810303BB906
:1037400014238DF8083002A807AB0393FFF7FCFAA7
:103750000CB070BDFF2B4FF6FF7318BF4FF0FF3357
:10376000A5E707A8FCF720FA00280CBF00230F23C9
:10377000C0E7000037B50378012B03D00E2B1DD016
:1037800003B030BD154B42681B689A42F8D1144C07
:103790002378012BF4D1F3F779FEFBF795FB10B9F1
:1037A00002232370ECE700251C236846CDE9005571
:1037B0008DF80030FFF7C8FA2570E1E7084D2B7847
:1037C000022BDDD100241C236846CDE900448DF88E
:1037D0000030FFF7B9FA2C70D2E700BF1447002081
:1037E0001047002030B50B89022B85B005460C46EA
:1037F00014D14A6800218DF80C101288ADF80D2004
:103800008DF80F30F8F70CFE04230190009348F276
:10381000480203AB21462846FFF7C4FA05B030BD85
:103820007FB504AC022304F8043D05460E46F8F7C4
:10383000F7FD01230190009348F21402234631461C
:103840002846FFF7AFFA04B070BD0A89012A05D1F6
:103850004B681B78012B01D8FFF7E2BF70470B893B
:103860000BB9FFF7DDBF70477FB504AC022304F846
:10387000043D05460E46F8F7D3FD01230190009361
:1038800048F21102234631462846FFF78BFA04B06E
:1038900070BD0A89012A05D14B681B78012B01D81C
:1038A000FFF7E2BF70470B890BB9FFF7DDBF704729
:1038B00070B50B8986B006460D46FBB906A90123F3
:1038C00041F8043D03A805F039FA059B9AB25B085C
:1038D00003EB430302F0010404A903A803EB44042F
:1038E00001F0AEFBF8F79CFDA4B2CDE9004004ABBB
:1038F00048F2430229463046FFF754FA06B070BD3D
:10390000F0B50B89022B87B006460D4632D14F68C1
:1039100006AC0123388844F80C3DC0F30B0004F0DA
:10392000E7FF224602A905F0F5FB3B88ADF8113010
:1039300018B1052820D010231FE0039C8DF810003B
:10394000A2B2640804EB440402F0010304EB430454
:1039500003340DF1130102A8A4B201F071FBF8F7D2
:103960005FFD04ABCDE9004048F202022946304633
:10397000FFF718FA07B0F0BD04238DF810300324C8
:10398000EDE7F0B516460A881F4648F218039A423A
:1039900087B005460C4605D048F21A039A4201D07A
:1039A000032A2CD10E22002102A809F0EBFC238867
:1039B0008DF8087048F21802934209D048F21A02B2
:1039C00093421ED0032B20D1636833F8092B02E009
:1039D000636833F8022BADF809201B68CDF812306C
:1039E000002E14BF0C260E26F8F71AFD02ABCDE907
:1039F000006048F2190221462846FFF7D3F907B0C4
:103A0000F0BD636833F8172BE5E77846F5F70EFE4F
:103A1000E6E77FB50B89022B06460C461FD14D68A1
:103A20002888C0F30B0004F063FF0DF10B0105F0D3
:103A300071F8002303932B88ADF80D3088B99DF8F9
:103A40000B308DF80F30F8F7EBFC04230190009356
:103A500048F2170203AB21463046FFF7A3F904B042
:103A600070BD04238DF80C30EDE77FB50B89064659
:103A70000D4683B903F0FAFA04AC04F8010DF8F727
:103A8000CFFC01230190009348F20E022346294601
:103A90003046FFF787F904B070BD37B50B89012BAD
:103AA00005460C4618D14B681A78012A14D8002212
:103AB000CDE9002204228DF800201878431E5842D8
:103AC00058418DF80400FCF73FFA28462146FFF7DD
:103AD000C0FD6846FFF738F903B030BD70B50B89FB
:103AE000012B8CB006460D4618D10CA900238DF889
:103AF00010301E2321F8223D0DF11100FFF770F860
:103B0000BDF80E40F8F78CFC0134A4B2CDE90040BA
:103B100004AB022229463046FFF744F90CB070BDD1
:103B20002DE9F0470B89132B88B080460C4670D1E5
:103B30004E68B578707837783388ADF814304FEA2E
:103B4000051A4AEA101A00F00F0047EA00208DF823
:103B5000165004F0CDFE00238DF81830F21C07AB90
:103B600001468146504605F0AFF9384B1B685B04AF
:103B700006461CD5364B1B68032B18DD2F21354814
:103B800009F0DAFCF8B12F21324809F0D5FC411CCC
:103B9000314BBDF81C20D3F8043501922F4A009216
:103BA000CDF808A040F275220420FAF70BFC0F2E86
:103BB00048D8DFE806F03E474711404947334747BA
:103BC0004747474747315C21224809F0B5FC08B117
:103BD0005C21D9E71F49DBE70DF11201BDF81C009C
:103BE00004F0C0FE10B17846F5F720FDBDF81220B4
:103BF0004A4514BF042200228DF814708DF8165027
:103C0000059B21464046FFF757FA16B906A8FFF76D
:103C10009BF808B0BDE8F0870622EDE78DF8147038
:103C20008DF81650059B032221464046FFF744FAC3
:103C3000EFE70022E0E78DF814708DF81650059B31
:103C40000522F1E71022D7E70422D5E7402E002015
:103C50003C2E0020C4E8030000100140F4E80300FB
:103C600073B50D46164603F007F90528044607D03C
:103C700006281AD0B8B933889C4204D3002000E04B
:103C8000022002B070BD6946288804F085FD50B955
:103C90009DF80030023B012B05D8BDF8023025F815
:103CA000023B0134E7E71020EBE70820E9E72DE9C4
:103CB000F0410B89042BAAB006460D4612D14C6880
:103CC0004FF6FF7867882088ADF81270ADF8108045
:103CD000FFF742F8404508D101230122294630462A
:103CE000FFF7A2FA2AB0BDE8F08103AA049903F015
:103CF00061FA08B10223F0E72AAA232322F89A3DA9
:103D000005A9BDF80C00FFF7ABFF03460028E4D17E
:103D1000BDF80E208DF85C002388ADF85D3005A954
:103D200052000DF16100ADF85F7009F020FBBDF8A5
:103D30000E40F8F775FB64000534A4B2CDE90040ED
:103D400017AB48F22A0229463046FFF72BF8C9E79D
:103D500008B590B1B0F5004F06D8002301334008F4
:103D6000DBB2FBD1184608BD4FF6FF73984206D070
:103D70007846F5F75BFC1023F4E70346F2E7FF23F0
:103D8000F0E708B570B1B0F5803F06D800230133E5
:103D90004008DBB2FBD1184608BD7846F5F746FC73
:103DA0001123F8E70346F6E770B50C4686B00546E2
:103DB000FBF7F6FE2189064619BB8DF80C10038827
:103DC000ADF80D304368012B1DD8DBB2B0688DF81B
:103DD0000F30FFF7D6FF337B8DF81130F389ADF844
:103DE0001230338AADF814308DF81000F8F718FB54
:103DF0000A2301900093062203AB21462846FEF7D2
:103E0000D1FF06B070BDB3F5004F07D8013B5B088A
:103E1000CAB201F10101FAD1931CD6E74FF6FF7245
:103E2000934204D07846F5F701FC1023CEE7FF2338
:103E3000CCE7F0B50E8987B007460D462EBBFBF7E1
:103E4000ABFE8DF80C60038804460BB14288F2B9D2
:103E500000238DF80D308DF80E308DF80F308DF871
:103E600010308DF811308DF812308DF813308DF838
:103E70001430F8F7D5FA09230190009348F23C0278
:103E800003AB29463846FEF78DFF07B0F0BDADF80D
:103E90000D304388ADF80F304068FFF759FF8DF8BB
:103EA0001200A068FFF76DFFA3898DF813308DF81D
:103EB0001100E389DBE72DE9F04F0B89132B85B067
:103EC00080460D463ED14C68607823882778ADF84F
:103ED00004304FEA101B002300F00F00A6788DF885
:103EE0000660CDE9023347EA002001238DF808304F
:103EF00004F0FEFC4FF6FF7A5045814633D04BEA82
:103F0000061004F009FD5045ADF80C002DD00DF160
:103F1000020104F027FD10B17846F5F787FBBDF8E4
:103F200002304B4511D011248DF804708DF80660D5
:103F3000019B224629464046FFF7BEF814B902A865
:103F4000FEF702FF05B0BDE8F08FE11CBDF80C00E4
:103F500005F04AF8052808D0082808D000280CBF2A
:103F600000241024E0E70424DEE70324DCE70B242C
:103F7000DAE72DE9F0430A89032A85B080460D4629
:103F800053D14B689E7819881F785B78ADF8041080
:103F9000300140EA13108DF8066003F00F048DF82D
:103FA000082004F0B9FC4FF6FF794845ADF80C0045
:103FB00024D047EA042004F09BFC4845044637D04F
:103FC0000DF10201BDF80C0004F0CCFC10B17846F4
:103FD000F5F72CFBBDF80230A34211D1BDF80C005F
:103FE00003F07CF910B17846F5F720FBBDF80C0022
:103FF00005F040F810B17846F5F718FB002400E012
:1040000011248DF804708DF80660019B2246294624
:104010004046FFF751F844B9BDF80C204FF6FF7346
:104020009A4202D002A8FEF78FFE05B0BDE8F083E9
:104030000424E6E7F0B50B89052B8DB007460D4645
:104040004AD14C681022002108A809F09BF9238866
:10405000ADF820306388ADF82230237943B1112BBD
:104060009DBF03F1FF33012202FA03F34FF0FF3348
:1040700008A80A93FBF728FD064668BBFBF78CFDF2
:104080008DF814600388ADF81530044643888068C5
:10409000ADF81730FFF775FE8DF819006068FFF76F
:1040A00057FEA3898DF81B30E3898DF81C308DF8FD
:1040B0001A00F8F7B5F9092301900093384605ABCB
:1040C00048F23C022946FEF76DFE152303A88DF841
:1040D0000C300494FEF738FE0DB0F0BD2DE9F34727
:1040E000B1F8088028F00203042B06460C4621D1C3
:1040F0004D686B882888B8F1040F9FB21BBF6A799E
:104100002B79ADF8063043EA02230BBF4FF00109CB
:104110004FF000094FF6FF77ADF80630FEF71CFEB2
:104120004FF6FF7A504508D101234A4621463046D2
:10413000FFF727FC02B0BDE8F087ADF804700DF181
:104140000202019903F036F820B9B8F1040F03D048
:10415000574501D10223E8E7BDF802302A882146FD
:104160003046FFF726F9E5E72DE9F047B1F808906A
:1041700029F00203042B86B007460D4621D14C6876
:1041800063882088B9F1040F9EB21BBF627923793E
:10419000ADF80E3043EA02230BBF4FF001084FF099
:1041A00000084FF6FF76ADF80E30FEF7D5FD4FF65E
:1041B000FF7A504508D10123424629463846FFF789
:1041C00033F806B0BDE8F087ADF80C600DF10A02D7
:1041D000039902F0EFFF20B9B9F1040F03D056455F
:1041E00001D10223E8E7BDF80A00FFF7AFF8064661
:1041F00008B10346E0E701F035FF34F8022BCDF8B3
:10420000048020680090334638462946FEF733FF85
:104210000C23CDE9046604A88DF81030BDF80A30EF
:10422000ADF81430FEF790FDCBE72DE9F047B1F87B
:10423000089029F00203142B88B006460D462ED1B3
:104240004C68638A2088B9F1140F1FFA83F81BBFEA
:10425000627D237DADF80E3043EA02230BBF0127B8
:1042600000274FF6FF78ADF80E30FEF775FD4FF6DC
:10427000FF7A504501D101230CE0ADF80C8002AA71
:10428000039902F097FF20B9B9F1140F0AD0D04575
:1042900008D102233A4629463046FEF7C5FF08B04A
:1042A000BDE8F08702238DF81030A01C00230DF12B
:1042B0001201ADF812300590F9F7B2FF10B178464F
:1042C000F5F7B4F90DF10A0104A804F0C5FA0528C0
:1042D000D1D008B11023DDE7BDF80A10BDF8080001
:1042E00002F096FD08B10C23D4E7BDF80A0004F0F3
:1042F00085FA10B17846F5F799F901F0B3FE34F874
:10430000122B01972068BDF81230009029463046E4
:10431000FEF7B1FE0F238DF81830BDF80830ADF868
:104320001C3006A8BDF80A30ADF81E30FEF70CFDB3
:10433000B5E72DE9F047B1F8089029F00203142BF6
:1043400088B006460D4620D14C68638A2088B9F1B2
:10435000140F1FFA83F81BBF627D237DADF80E306A
:1043600043EA02230BBF012700274FF6FF78ADF881
:104370000E30FEF7F1FC4FF6FF7A504508D10123CD
:104380003A4629463046FEF74FFF08B0BDE8F087B1
:10439000ADF80C8002AA039902F00CFF20B9B9F124
:1043A000140F03D0D04501D10223E9E70DF10A0132
:1043B000A01C04F0D2F920B104280CBF052310235F
:1043C000DEE7BDF80A10BDF8080002F0EDFC8046FB
:1043D000BDF80A00B8F1000F0BD004F00FFA10B1CD
:1043E0007846F5F723F9B8F1060F0CBF0823102320
:1043F000C6E704A904F0D0F910B17846F5F716F92C
:1044000001F030FE34F8122B01972068BDF812300D
:10441000009029463046FEF72EFE0E238DF8183008
:10442000BDF80830ADF81C3006A8BDF80A30ADF86C
:104430001E30FEF789FCA8E72DE9F04FB1F808809F
:10444000B8F1080F89B006460D4602D0B8F1060F44
:1044500021D16C68A3882088B8F1060F1FFA83F970
:104460001BBFE279A379ADF80E3043EA02230BBFFC
:10447000012700274FF6FF79ADF80E30FEF76CFCF0
:104480004FF6FF7A5045834608D101233A46294624
:104490003046FEF7C9FE09B0BDE8F08F6088F7F737
:1044A000FFFD0328F1D1ADF80C9002AA03995846FC
:1044B00002F080FE20B9B8F1060F03D0D14501D13A
:1044C0000223E3E703238DF810306388ADF8123040
:1044D0000DF10A01002304A8059304F0BDF978BB8F
:1044E000BDF80A10BDF8080002F092FC062801D1C0
:1044F0000823CBE708B11023C8E7BDF80A0004F091
:104500007DF910B17846F5F791F801F0ABFD6388BD
:1045100034F8042B01972068009029463046FEF7B6
:10452000AAFD0B238DF81830BDF80830ADF81C300B
:1045300006A8BDF80A30ADF81E30FEF705FCAAE764
:104540000528D8D1E3E72DE9F04FB1F80880B8F19C
:10455000080F87B006460D4602D0B8F1060F21D1EC
:104560006C68A3882088B8F1060F1FFA83FA1BBF76
:10457000E279A379ADF80E3043EA02230BBF01279D
:1045800000274FF6FF7AADF80E30FEF7E5FB4FF649
:10459000FF794845834608D101233A4629463046EB
:1045A000FEF742FE07B0BDE8F08F6088F7F778FDB0
:1045B0000328F1D163884B45EED0ADF80CA002AAD8
:1045C0000399584602F0F6FD20B9B8F1060F03D062
:1045D000CA4501D10223E0E70DF10A01608804F029
:1045E000B9F840B1042804D010280CBF01231023CF
:1045F000D3E70523D1E7BDF80A10BDF8080002F0A3
:10460000D3FB804668B1BDF80A0004F0F7F810B19A
:104610007846F5F70BF8B8F1060F0CBF0823102306
:10462000BBE701F01FFD638834F8042B0197206875
:10463000009029463046FEF71EFD0A238DF8103003
:10464000BDF80830ADF8143004A8BDF80A30ADF854
:104650001630FEF779FBA5E72DE9F047B1F8089091
:1046600029F00203142B88B006460D4620D14C6871
:10467000638A2088B9F1140F1FFA83F81BBF627D8B
:10468000237DADF80E3043EA02230BBF012700273C
:104690004FF6FF78ADF80E30FEF75EFB4FF6FF7A6F
:1046A000504508D101233A4629463046FEF7BCFD65
:1046B00008B0BDE8F087ADF80C8002AA039902F0BB
:1046C00079FD20B9B9F1140F03D0D04501D10223EF
:1046D000E9E7BDF80800FEF739FE03460028E2D1FD
:1046E0000DF10A01A01C04F038F858B104280CBFE1
:1046F000052310233A4629463046FEF795FD01F082
:10470000B1FCD5E7BDF80A10BDF8080002F04CFB7B
:104710008046BDF80A00B8F1000F0CD004F06EF826
:1047200010B17846F4F782FFB8F1060F01D10823E3
:10473000E0E71023DEE704A904F02EF810B1784674
:10474000F4F774FF34F8122B01972068BDF812308B
:10475000009029463046FEF78EFC10238DF8183065
:10476000BDF80830ADF81C3006A8BDF80A30ADF829
:104770001E30FEF7E9FAC2E72DE9F04F0F8927F066
:104780000203042B89B082460D4640F0AD804E688E
:1047900074883088042F16BFA0464FF6FF78B4887F
:1047A000FEF7DAFA2A8848F24B039A424FF6FF7373
:1047B00040F0AB80984200F0828048F24C09ADF89E
:1047C0001080ADF8124003AA049902F0F3FC28B956
:1047D000042F1FD04FF6FF7398451BD129883388CB
:1047E000ADF8153048F24B0291424FF002020CBF77
:1047F000ADF81740ADF819408DF814200EBF052410
:10480000ADF817800724F7F70BFE0190009405AB75
:104810004A4665E008AA012322F8123D02A9BDF824
:104820000C0002F0C3FB10B17846F4F7FFFE4FF026
:10483000000BBDF80E701FFA8BF39F4221D8298818
:104840003388ADF8153048F24B0291424FF0000228
:104850008DF8142027D13A460DF1190102A8ADF8C0
:10486000174000F0EDFB0524F7F7DAFD7B0803EBBA
:10487000430307F0010703EB47073C440190E4B210
:10488000C4E71FFA8BF1490008AB0B4402AA11449C
:1048900033F8180C04F054F810B17846F4F7C6FE5B
:1048A0000BF1010BC5E73A460DF11B0102A8ADF86B
:1048B0001940ADF81780072400F0C2FBD4E7338815
:1048C000ADF815300122ADF817408DF8142048F2EC
:1048D0004C060524F7F7A4FDCDE9004005AB3246B0
:1048E00029465046FEF75EFA09B0BDE8F08F3388DE
:1048F000ADF815300122ADF819408DF81420ADF84F
:10490000178048F24E060724E4E79842EFD048F2B9
:104910004E0954E72DE9F04FB1F80880B8F1080FBF
:1049200087B006460D4602D0B8F1060F21D16C685B
:10493000A3882088B8F1060F1FFA83F91BBFE2791C
:10494000A379ADF80E3043EA02230BBF01270027FD
:104950004FF6FF79ADF80E30FEF7FEF94FF6FF7A0D
:104960005045834608D101233A4629463046FEF792
:104970005BFC07B0BDE8F08F6088F7F791FB032878
:10498000F1D1ADF80C9002AA0399584602F012FC3E
:1049900020B9B8F1060F03D0D14501D10223E3E7D6
:1049A000BDF80800FEF7D2FC03460028DCD10DF16B
:1049B0000A01608803F0CEFE40B1042804D010281C
:1049C0000CBF01231023CFE70523CDE7BDF80A1064
:1049D000BDF8080002F0E8F9804668B1BDF80A00A9
:1049E00003F00CFF10B17846F4F720FEB8F1060F83
:1049F0000CBF08231023B7E701F034FB638834F8B9
:104A0000042B01972068009029463046FEF733FBBF
:104A10000D238DF81030BDF80830ADF8143004A81F
:104A2000BDF80A30ADF81630FEF78EF9A1E72DE992
:104A3000F0470B89062BAAB007460E461DD14D68DC
:104A40002888FEF789F9B6F80890B9F1040F0CBF71
:104A50000124002414D1AB78EA7843EA0223ADF8AC
:104A60000E304FF6FF784FF6FF7A504511D10123F3
:104A7000224631463846FEF7D7FB2AB0BDE8F0871C
:104A80002B796A79B5F8028043EA0223ADF80E303B
:104A9000E9E7ADF80C8002AA039902F08BFB20B97C
:104AA000B9F1040F03D0D04501D10223E0E72AAACF
:104AB000232322F89E3D04A9BDF80800FFF7D0F893
:104AC00003460028D4D18DF858002B88BDF80A4041
:104AD000ADF85930AB88ADF85D306400A4B26B8896
:104AE000ADF85B30224604A90DF15F0008F03FFCF1
:104AF000F7F796FC0734A4B20190009416AB48F285
:104B00002C0231463846FEF74DF9B6E72DE9F04F55
:104B10000C89082C8FB080460D4601D0062C27D179
:104B20006E68B788062C4FF000031CBFB946F788A3
:104B30008DF82C303388ADF82D307388ADF82F30D8
:104B400008BF4FF6FF797368CDF83130062C12D1CB
:104B50008FB90D238DF82C30F7F762FC07230190F5
:104B600000930BAB48F23E0229464046FEF71AF985
:104B70000FB0BDE8F08F3088FEF7EEF84FF6FF7308
:104B8000984282460BD10123062C14BF0924072426
:104B90008DF82C30F7F744FCCDE90040E1E7ADF8A3
:104BA0002090ADF8227007AA089902F003FB4D4B44
:104BB0001B689B0483461DD54B4B1B68032B19DDDB
:104BC0002F214A4808F0B8FCF8B12F21474808F0D7
:104BD000B3FC411CBDF81C20454BD3F80435CDE98E
:104BE0000392444A0092CDE901A740F689120420BD
:104BF000F9F7E8FBBBF1000F05D1062C0ED04FF6FC
:104C0000FF7399450AD10223BEE75C21374808F0BB
:104C100093FC08B15C21D9E73449DBE77088C0F325
:104C20000B0003F079FE2A8848F23D039A420646BB
:104C3000BDF81C0010D1162331468DF82430ADF894
:104C40002800ADF82A6002F055F9052843D007285E
:104C500045D018B310233FE0172331468DF8243098
:104C6000ADF82800ADF82A6002F072F90028ECD106
:104C70000DF11E01BDF81C0002F0D8F910B1784604
:104C8000F4F7D4FCBDF81E30B34207D1BDF81C00C8
:104C900002F0F8FA10B17846F4F7C8FC00238DF85A
:104CA0002C3001F0DFF9062C14BF09240724F7F794
:104CB000B7FB0BABCDE9004048F23E022946404627
:104CC000FEF770F89DF82C30002B7FF451AF09A847
:104CD000FEF73AF84CE702238DF82C30E3E7032384
:104CE000FAE700BF402E00203C2E0020C4E803005D
:104CF0000010014026E903002DE9F04F0A880B89D6
:104D0000032A89B007460D4627D10D2B01D00B2B66
:104D100056D16A680B2BB2F8093014BF117BADF87D
:104D20000E301FFA83FA18BFD37A14461CBF43EA29
:104D30000123ADF80E3034F8049BB2F802800ABFAC
:104D4000012600264FF6FF7A4846FEF705F84FF693
:104D5000FF7B584524D101232DE048F21A018A42F5
:104D600003D123F00202192A2AD16C68192BB4F856
:104D7000173014BFA27EADF80E301FFA83FA18BFA9
:104D8000637E34F8129B15BF43EA022301260026F6
:104D90004FF6FF7A18BFADF80E304FF00008D3E79A
:104DA000ADF80CA002AA039902F004FA10B956B9A2
:104DB000DA4508D10223324629463846FEF7E1FD9E
:104DC00009B0BDE8F08F6378207803F00F0340EA64
:104DD000032003F0A1FD4FF6FF739842824601D1F4
:104DE0000323E8E74046ADF80A30F7F759F92B8876
:104DF000032B32D10228AED000F0FD00012840F094
:104E0000E1800DF10A01BDF8080001F07BFE58B108
:104E10000DF10A01404603F051FC00283CD0042863
:104E20000CBF05231023C6E704A9BDF80A0003F050
:104E3000B3FC0028ECD19DF81030022B03D0BDF854
:104E40001230434528D0BDF80A0003F05BFC00286F
:104E5000DED07846F4F7EAFBDAE76B68BDF80800C5
:104E60000DF10A0103F1020B01F04CFE28B10DF126
:104E70000A01584603F042FCCFE704A9BDF80A0036
:104E800003F08AFC0028F2D19DF81030022B25D0C7
:104E90009DF81030022B28D1B8F1000F2FD02279C5
:104EA00094F80380BDF80800C2F302014FF0000B34
:104EB00061F3020BD20862F3C70B00224FEA98138A
:104EC0001146019301F00AFF08F03F08019B28B347
:104ED00006281ED07846F4F7A9FB71E71022594640
:104EE000059808F035FA0028D2D0BDF80A0003F082
:104EF00009FC0028BBD07846F4F798FBB7E72A886E
:104F000048F21A039A42CAD0BDF8080002F0BAF972
:104F10003DE0B8F1000F0ED007234CE7B8F1000FC9
:104F200009D042461946BDF8080001F0D7FE10B17D
:104F30007846F4F77BFB5946BDF8080001F0F6FD12
:104F400010B17846F4F772FBBDF80A10BDF80800FE
:104F500001F0BAFD10B17846F4F768FB5146BDF890
:104F6000080002F045F810B17846F4F75FFB61786D
:104F7000BDF80800C1F3001102F07EF810B17846C8
:104F8000F4F754FBA178BDF8080002F0A5F810B1C1
:104F90007846F4F74BFB01F065F8BDF80830384669
:104FA0004A462946FEF705FA0023CDE906330223D7
:104FB0008DF8183006A8BDF80830ADF81C30FDF7A4
:104FC000C3FEFDE6B8F1000F7FF469AF9CE7000077
:104FD00030B587B01622002105460DF1020008F019
:104FE000D1F90E4B02934FF6FF742E230C48039316
:104FF000ADF80040F7F70CFA0A48FAF7E1FD0A4B62
:105000001B88A34202D07846F4F710FB074B0649F1
:105010001D60684601F048FC07B030BD6CE9030034
:105020005C2E0020752D0300582E00200C47002018
:10503000024B0146188801F05DBF00BF582E0020CA
:1050400030B50024A24200D830BD30F814300B70C7
:10505000651CC3F30323AA424B7007D900EB440538
:105060006D8843EA05132D094B708D7002340331AE
:10507000E8E7000082B0064B0190C0F30F40A0F5B6
:105080000C7080B253F820309B780B7002B07047E0
:1050900038470020C0F30F40A0F50C7080B2044BDD
:1050A00053F8203082B000229A7002B0704700BFDF
:1050B0003847002070B5144D2C68002634B92B6891
:1050C00003BB1248BDE87040F7F7C8BB94F85030F6
:1050D00013B1013B84F8503094F8503043B92B6839
:1050E0009C4208D1636D2B60E36C002120469847F9
:1050F0002646646DE2E716B97846F4F797FA636DD1
:105100007365F1E770BD00BF3447002018470020E9
:1051100030B587B090F850308DF804300C4B0293C6
:1051200001AB03930123ADF8103000238DF812304A
:10513000022304460D468DF81330F7F771F902AAE1
:1051400005902946208801F0B1FC07B030BD00BFB2
:105150000780FFFF0B8913B91046FFF7D9BF7047CF
:1051600030B587B083788DF804300C4B029301ABD7
:1051700003930123ADF8103000238DF81230022381
:1051800004460D468DF81330F7F74AF902AA059048
:105190002946208801F08AFC07B030BD3780FFFF28
:1051A0000B8913B91046FFF7DBBF704738B50446CB
:1051B0000D46F8F73DF894F8503084F850505BBB3A
:1051C00055B3E36C012120469847F8F731F8E36CBA
:1051D00013B97846F4F72AFA94F8503013B97846A0
:1051E000F4F724FA0E4B196861651C6091B90D4CF7
:1051F0001822204608F0C6F8F7F770FB00F5742077
:1052000000F51070084B6060E3602046074BA36018
:10521000F7F702FBF8F74CF8BDE83840F8F748B864
:10522000344700201847002040420F00B5500300CB
:1052300038B50B89012B0C46154611D1D36C23B11F
:105240004B6810461978FFF7B1FF228848F2050332
:105250009A4205D121462846BDE83840FFF758BF9D
:1052600038BD000037B50B89012B0C46154618D107
:1052700049680B780E2B0BD9228848F235039A42E5
:105280000FD12146284603B0BDE83040FFF768BF84
:10529000054B1B68934204D10448FBF7D3F8002860
:1052A000EAD003B030BD00BF384700200300300211
:1052B0004B0901F01F024FF0FF31914050F82320BD
:1052C000114049B14A420A4008495143C90E084AAF
:1052D000505C00EB431070470133072B02D850F8A5
:1052E0002310EEE74FF48070704700BF31B57C07A4
:1052F00038EB03002DE9F043C7B0042905AE437A2B
:1053000033700CBF00F12C0900F10C094389A6F899
:10531000013005468846484600211746FFF7C8FF7A
:105320000024B0F5807F23461BD14FF6FF73ADF804
:10533000063000238DF80E3003340223ADF80480CC
:105340000296ADF80C408DF80F30F7F769F804902D
:1053500028888FB101AA394601F0A8FB47B0BDE803
:10536000F0833344411C0134FF29E4B2D870DCD807
:105370004846FFF79DFFD4E701A901F06BFBEDE77D
:10538000084600220421FFF7B5BFF8B50B89032BAF
:105390000D46144610D11388834202D07846F4F7A4
:1053A00045F96E686389B6F801108B4204D1207A02
:1053B0000023DAB2904200D8F8BD626812F833C018
:1053C00002EBC3073278624503F10103F1D17B6838
:1053D00020469847337863722A8848F232039A420B
:1053E000EAD12A4620460521BDE8F840FFF782BFF2
:1053F00038B50B89022B0D46144611D11388834210
:1054000002D07846F4F712F96B681A8863899A42D9
:1054100006D12A4620460521BDE83840FFF76ABF7D
:1054200038BD38B50B89022B0D4614461CD11388A4
:10543000834202D07846F4F7F9F86B681A886389DA
:105440009A4211D12022002104F10C0007F09AFFAA
:105450002A8848F22F039A4206D12A46204605217F
:10546000BDE83840FFF746BF38BD38B500F12C0520
:1054700000212846FFF71CFF0024B0F5807F01D1F2
:10548000E0B238BD411CFF2904F10104F8D82846D8
:10549000FFF70EFFF1E7000037B50190C0F30F40B2
:1054A000A0F50C700C4B0D7880B253F82040A37817
:1054B000AB420DD0A5702046FFF7D7FF40B10121C8
:1054C000A940208889B203B0BDE8304001F0EABBB2
:1054D000002003B030BD00BF3847002070B586B053
:1054E000C3640A9B436000259DF82C300372044678
:1054F00042810E46457280F85050857045652022E5
:1055000029460C3007F03EFF2946202204F12C00EA
:1055100007F038FF0B4B00930B4B02930B23CDE9A5
:1055200003342146094BADF804606846059301F049
:10553000BBF928B9064B43F82640208801F004FC4B
:1055400006B070BDFFFF0200E0EA030081530300D4
:105550003847002030B50C89022C87B01CD90B8845
:105560004D68042B0CBF002301230C3101918DF8F1
:1055700000302B788DF80830B5F80130ADF80A30DE
:10558000033CE3B28DF80C3003B1EB1CCDE90431E0
:10559000104653686946984707B030BD7FB50B8900
:1055A000012B0CD14B6802200C318DF800000191C9
:1055B0001B788DF80830694653681046984707B045
:1055C0005DF804FB7FB50B89012B0CD14B680320E0
:1055D0000C318DF8000001911B788DF80830694678
:1055E00053681046984707B05DF804FB30B5044691
:1055F00087B00D46DAB1002142600172C16012220B
:105600000DF1060007F0BEFE0A4B00930A4B029311
:10561000214604236846ADF80450CDE9033401F077
:1056200043F910B9208801F08FFB07B030BD0E2080
:10563000FBE700BFFFFF030058EB030038B583789A
:1056400003F003020446032A22D8DFE802F0021422
:10565000191D9B08154A1648126813440268A36076
:105660000021EAB195685D1B002D16DAD1B911460B
:10567000E160046038BD9B0803EB83035B00E9E74E
:105680009B0864225343E5E79B0841F27072F9E7F7
:105690007846F3F7CBFF0023DCE71146D268E0E75A
:1056A0000029E5D0CC60E260E4E700BF5447002069
:1056B0005C47002008B5032809D8DFE800F00D0298
:1056C0000406064808BD0648FCE70648FAE778469F
:1056D000F3F7ACFF0020F5E70348F3E740420F0083
:1056E000809698000046C323A08601002DE9F04172
:1056F000574D2B78A3B1574B574E5C68F7F7EEF830
:10570000241A3078FFF7D6FF3278544B001B002A5A
:1057100040D14CF2503290423CD91A6801321A60A2
:10572000DFF84881D8F80020002A00F087804A4E30
:105730009378307803F003038342344664DD474BAB
:1057400097681B68FB1A464F5F43FFF7B3FFD8F813
:105750000030B7FBF0F09F78C7F30107FBB2022BD4
:105760001FD031D8012B47D10A22B0FBF2F302FB44
:105770001300002840D1F7F7B1F800F5742101F5C6
:10578000107137702B78002B50D03248BDE8F041B3
:10579000F7F77BB81A683249B0FBF1F01044186093
:1057A000BEE7337863B96422B0FBF2F302FB130067
:1057B00010BBF7F793F82B49022301442370E1E76C
:1057C000012B19D10A22EFE7337863B941F27072E5
:1057D000B0FBF2F302FB130070B9F7F77FF8224930
:1057E00003230144EAE7012B02D14FF41672EFE7DD
:1057F000022B01D13C22EBE7F7F770F80646207840
:10580000FFF758FF3118BDE7F7F768F8D8F8003010
:105810000446987800F00300FFF74CFFD8F80030FA
:105820009B78C3F3010321183370ABE709480123C8
:1058300041602B70BDE8F041F6F7EEBF2B7823B145
:105840000448BDE8F041F7F709B8BDE8F08100BFB2
:10585000584700203C47002059470020544700206B
:10586000A0860100809698000046C3235C47002074
:105870002DE9F341244B1B78032B2AD8DFE803F0F2
:10588000021B1F23214A136801331360204B214E52
:105890001E4D00221A70B04634683CB1A3682A68D5
:1058A00093421AD02A689B1A002B16DBFFF71EFFC3
:1058B00002B0BDE8F081154A13680A33E5E7134AE0
:1058C00013686433E1E7114A136803F5BB531033DF
:1058D000DBE77846F3F7AAFED8E72788E368C8F83D
:1058E000003002A9002341F8043D384601F0B6FC1F
:1058F00010B17846F3F79AFE3846636801999847E5
:105900002046FFF79BFEC7E7594700205447002079
:10591000584700205C47002010B5084C1822002191
:10592000204607F02FFD064B064AA36000231360B4
:10593000054A1360054A137010BD00BF3C470020A4
:1059400071580300544700205C470020584700204E
:10595000F8B50F461646044610B97846F3F766FECA
:10596000124DF7F765FC2B6800220BB1A34216D14C
:10597000A17867F3010166F38701A1709BB1DB6831
:1059800082B92B602EB12046FFF758FE2B689C424F
:1059900001D1FFF7ABFEBDE8F840F7F789BC1A4626
:1059A000DB68E2E7D360002EF5D0ECE75C4700202F
:1059B0004FF6FF700D49F0B500232424064604FB82
:1059C00003129DB292F8397057B1B0420CD004FB6B
:1059D0000017126B3F6BD21B30EA220028BF28460B
:1059E0000133042BEBD1F0BD2846F9E760470020D6
:1059F00038B5154C242303FB0043054693F8393092
:105A000013B97846F3F712FEB4F8A83013B9784604
:105A1000F3F70CFE242202FB0543002183F8391022
:105A2000B4F8A830013B9BB2A4F8A8301BB94FF6DC
:105A3000FF73A4F8AA3002FB0544A06AFBF77DFAC5
:105A40000023A36238BD00BF604700202DE9F84F56
:105A50002D4DB5F8A830064613B97846F3F7E6FDA4
:105A60002A4C06F57A7B00274FF0010948F2111AFB
:105A7000637C1FFA87F8C3B1A368A3EB0B03002B69
:105A800013DAA3882268A4F11001404600F0EAFE70
:105A9000102828D809FA00F313EA0A0F26D11C4A65
:105AA00013421FD04046FFF7A3FF0137042F04F134
:105AB0002404DDD1FFF77CFFB5F8A830A5F8AA00D3
:105AC000FBB1032802D97846F3F7B0FDB5F8AA3048
:105AD000242202FB03531B6B9A1B48BFF21AEA6095
:105AE000BDE8F88F10B17846F3F7A0FD237C013BA9
:105AF000DBB22374002BD5D0D4E902321344A36067
:105B0000D3E7EB60ECE700BF604700208847002048
:105B1000A002010010B5064CAC220021204607F07F
:105B200031FC044BA3604FF6FF73A4F8AA3010BDFC
:105B3000604700204D5A03002DE9F0470328064630
:105B4000884617469A46BDF8209002D97846F3F762
:105B50006DFDB8F1000F02D17846F3F767FD17B974
:105B60007846F3F763FD98F800305B0702D178467A
:105B7000F3F75CFDBAF1000F02D17846F3F756FD5A
:105B8000B9F1000F02D17846F3F750FD274C2423DA
:105B900003FB064393F8393013B13046FFF728FF73
:105BA000F6F79CFE844697E80F00242505FB064582
:105BB00005F1180E8EE80F00C5F828A0A5F82C9066
:105BC00098F80030C3F3020385F8383098F80000E5
:105BD000C3084CF2503003FB0000012385F8393034
:105BE000B4F8A8306863604401332863A4F8A8308F
:105BF000FFF7DEFEB4F8AA30834201D19E4213D1F2
:105C00004FF6FF739842A4F8AA0002D17846F3F742
:105C10000DFDB4F8AA300548242202FB0344216B91
:105C2000BDE8F047F6F731BEBDE8F08760470020D9
:105C30004A09012301F01F0103FA01F150F8223053
:105C4000194214BF0120002070474FF6FF72B2EBDB
:105C5000104F82B083B215D113F47F4007D003F404
:105C60004043B3F5004F14BF0020012006E023F0AD
:105C70007F022AB97F3B18BF0123184602B0704744
:105C80000346FAE723F03F03C02BECE703289FBF4E
:105C9000054B3C2202FB003090F8380094BF00F026
:105CA00001000020704700BF484800200047000066
:105CB00010B54388C3F30B02032A02D900200870F1
:105CC00010BD0C2353430749CA5C42F00102CA5479
:105CD000CC184368DB4363608368DB43A360012027
:105CE000EEE700BF384900204388C3F30B0313B12C
:105CF000002008707047024B82881A80012070478C
:105D00000E48002007B513464FF47042ADF804204A
:105D10000122ADF806001A7003480A4601A9F8F7F7
:105D200091FE03B05DF804FB2048002070B51C46CE
:105D30000B89B3F5BE7F0546164606D309232360BB
:105D40002068B0FA80F0400970BDFFF79FFF28B1CE
:105D50000C483C2303FB0500038A0BB10523EEE747
:105D60003EB982884FF6FF739A4206D0C2889A42A3
:105D700003D00868FFF769FF08B90723DFE70023AE
:105D8000DDE700BF484800207846F3F74FBC00002D
:105D900008B5094B094800221A70094B01221A70F4
:105DA000F8F73EFE20B10748BDE80840F9F774B89F
:105DB000054B187008BD00BF454800202048002052
:105DC00044480020782E00200C48002010B5F02216
:105DD00000210E4807F0D6FA062200210C4807F0F1
:105DE000D1FA302200210B4807F0CCFA074B4FF6CE
:105DF000FF7203F1F00104240120DA809A805C82B2
:105E00001A8218853C338B42F7D110BD48480020D8
:105E10000E480020384900202DE9F04FD5B0044647
:105E200007A80D4604929946BDF8788102F036FC29
:105E3000704BBDF81E10049A3C2000FB0430078A0A
:105E4000B94205D84FF0100A504655B0BDE8F08F62
:105E5000BDF81C10049108AE002A00F0968002F1F3
:105E60000C0103C9B2F81EB0B2F824A0127F86E874
:105E70000300002A00F099803C2202FB0434647D78
:105E8000FF2C01D15C4B1C78B9F1000F02D1784690
:105E9000F3F7CCFBB8F1000F02D17846F3F7C6FB5D
:105EA0000AAB184624220021059307F06BFA5046EE
:105EB00010AA594603F056F9059B82460028C3D123
:105EC000049A9C7296E803001744AA7ADA72EA7A76
:105ED0001A7383E80300EA681F8151461846C3F825
:105EE0001090A3F814801A62F6F790FA8246002800
:105EF000AAD1424C226892041AD5414B1B68042B4C
:105F000016DD2F213F4807F017FB00284FD02F2127
:105F10003C4807F011FB411C3B4B2A88D3F8043561
:105F200001923A4A009205204FF4CE72F8F74AFAED
:105F300023689B0488D5324B1B68042B84DD298998
:105F4000334B8029186828BF8021002313AC8B4273
:105F500036D100222F212B4804F8132007F0ECFA49
:105F600000283BD02F21274807F0E6FA411C264B9A
:105F7000284AD3F804350192274A0092029440F24D
:105F80009D120520F8F71EFA5EE7B0F804B0C0884D
:105F90000593314602F000FC48BB7288002A3FF4AA
:105FA00051AF4FF6FF7A059B66E714466CE75C211C
:105FB000144807F0C1FA08B15C21A9E71149ABE721
:105FC0006A68D25C160902F00F02865D04F813605D
:105FD000865C04EB430201335670B8E75C21094844
:105FE00007F0AAFA08B15C21BDE70649BFE74FF008
:105FF000050A29E748480020982E0020402E00205E
:106000003C2E00202AEC03000010014046EC030067
:10601000442E00205AEC030086D7030030B5012A35
:106020008DB004460D4604D17846F3F7FFFA0DB063
:1060300030BD022AF8D0032AF9D12C22002101A870
:1060400007F0A0F911238DF8043002238DF80830F1
:10605000E368059301A8236903950693F4F7C0FD4F
:10606000E5E700002DE9F047494B1B78002B00F0D5
:106070008C80F7F7DDF8474B1B78CBB9464C23787B
:106080006BB9062201214548F8F789FD80B1042249
:106090000125C58002818280F8F7B0FD25700025BA
:1060A0003F4EDFF8F8902C464FF00C08A9B21CB117
:1060B0003C48F8F7F1FE60E008FB05F7BB5D03F034
:1060C0000303032B14D1082241F440514846F8F74A
:1060D00066FD002855D0F1194B68DB4343608B689F
:1060E000DB438360F8F78AFDBB5D23F00203BB55F9
:1060F0000135042DDAD1002CDAD12B4D6B799B07B9
:106100000FD502224FF480512448F8F748FD0028AB
:10611000CED02A888280F8F771FD6B7923F00203D4
:106120006B71DFF88880DFF8749000253C27A9B2F6
:10613000002CBDD107FB058696F8383003F0030329
:10614000032B15D1182241F400514846F8F727FDDA
:106150008246C0B118223146043007F008F9504693
:10616000F8F74CFD96F8383023F0020386F8383003
:106170000135042DDBD1002C9AD1BDE8F047F7F7AB
:1061800097B81124B4E71124F2E7BDE8F08700BF07
:106190000C480020444800204548002020480020AA
:1061A00038490020882E00200E4800204848002052
:1061B0004B0901F01F024FF0FF31914050F82320AE
:1061C000114049B14A420A4006495143C90E064AA4
:1061D000505C00EB4310704713B941680123F0E7AE
:1061E0002320704731B57C070AEC03002DE9F04FFE
:1061F00085B08146924698460E9F0D4611B9784665
:10620000F3F714FA03AB524629464846FFF78EFDD2
:1062100018B9039805B0BDE8F08F69882B884FF650
:10622000FF72914230D1B3F5807F34BF4FF0010B44
:106230004FF0020B2E895E44B6B23046FAF77BFE71
:10624000044680B36A882B884FF6FF708242D9B229
:106250001DD06270120A2170A2702A89696804EB4D
:106260000B0007F084F8009623465246294648461C
:10627000FFF7D2FD039018B9B8F1000F00D077B93D
:106280002046FAF75AFEC4E74FF0030BD2E713F4A7
:106290007F4F1DBF1B0A237061702170DDE7C8F8B6
:1062A00000403E80B6E70420B4E7000070B54388A4
:1062B000C3F30B03032B044611D8828A7AB91C4816
:1062C000E58A3C2202FB0302528A032A0AD8AA4228
:1062D00005D10C226A43174EB25CD20704D40020C9
:1062E000087070BD032D06D80C22124E6A43B15CB3
:1062F00041F00401B1543C251822211D05FB030087
:1063000007F035F8A188A38A4FF6FF7291420A4A36
:106310004FF0060101FB03234FF001000BBF9A78F9
:10632000DA78013201320CBF9A70DA70D9E700BF17
:1063300048480020384900200E4800202DE9F04F41
:1063400087B006AB062243F80C2D012104AA55485C
:10635000F8F7EEFB044628B1534B0120187007B044
:10636000BDE8F08FBDF81230012B09D04F4B1B68F0
:106370009B0475D402F0E4F8FFF70AFD002056E014
:10638000BDF81420042AF1D1BDF81020042AEDD163
:10639000474A484913704FF440500DF10B02FFF784
:1063A000B1FC9DF80B30002BE0D0434B43495A79A8
:1063B0001C8022F002025A715C800DF10B024FF436
:1063C0008050FFF79FFC9DF80B30002BCED00DF1D5
:1063D0000B023B494FF40050FFF794FC9DF80B3043
:1063E0000BB300B3374FDFF8F0A0B9464FF6FF7894
:1063F0004FF00C0B3B8A434510D0F888404505D040
:1064000002F060F910B17846F3F710F97E8A042E95
:1064100011D13C2303FB049300229A750134042C10
:1064200007F13C07E6D19DF80B0000289ED01E4BDB
:1064300001221A7093E70BFB06A6043600213046B2
:10644000FFF7B6FE23280546E3D0A8B202F088F98C
:1064500010B17846F3F7EAF8691C2229EFD9D8E79A
:10646000194B1B68002B85DD2F21184807F064F8B5
:1064700078B12F21154807F05FF8411C144B154ADD
:10648000D3F804350092012040F2E232F7F79AFF88
:1064900070E75C210D4807F04FF808B15C21E9E78F
:1064A0000A49EBE7204800200C480020402E00203D
:1064B00045480020B15C03000E480020E95C030061
:1064C000AD620300484800203C2E00202AEC030067
:1064D0000010014078EB0300384900202DE9F04F0F
:1064E00000F114048FB00546204603F039F88246C7
:1064F000002879D04FF6FF73ADF832302B7D012B99
:1065000075D10DA802F0CAF8EB8ABDF834209B1AA9
:106510009BB209935646564C4FF00009002E7CD092
:106520002789099BFA1A5742574194F83030E98B72
:1065300003F0010320460A93FFF77AFB29880B90AA
:10654000228D68884FF00008904577D34FF00008FF
:10655000C346484B1B689B0425D5474B1B68062B3D
:1065600021DD2F21454806F0E7FF002876D02F21B6
:10657000424806F0E1FF411C0B9A414BD3F8043529
:10658000CDF818B0CDE904720A9A039234F8062CBB
:10659000029234F8082C01923A4A0092072040F205
:1065A0005942F7F70FFF0A9BBBB1B7B10B9BA3B1E1
:1065B000BBF1000F11D02B7D012B1FFA89F704D1FD
:1065C000E26A2946384601F03BF8636AE26A03EB67
:1065D000C80329465B683846984709F10109B9F1B3
:1065E000040F04F13C0499D10FB0BDE8F08FEB8AA1
:1065F00004339BB2032B0AD90DF13201204602F07D
:106600002BF940B17846F3F711F8002683E7002311
:10661000064609937FE706467DE7608903280BD885
:10662000194ABDF832100C2303FB00200430FFF799
:10663000FFFA00F0010778E73046FAE7636A03EBF8
:10664000C80C33F838308B4203D1BCF80230834297
:1066500002D008F1010877E7D3467AE75C210748C2
:1066600006F06AFF08B15C2182E7044984E700BFB5
:1066700050480020402E00203C2E00202AEC030031
:10668000001001409AEB0300384900202DE9F04347
:1066900003681D7805F0C002402AD1B004460FD02F
:1066A00003D86AB10026354610E0802A00F09D80AC
:1066B000C02AF7D19A785E78ADB246EA022605E0A4
:1066C000ADB27F2D00F08E804FF6FF765A4B1A68E0
:1066D00012F4005F984619D0584B1B68042B15DD47
:1066E0002F21574806F028FF002800F082802F2134
:1066F000534806F021FF411C524B534AD3F804354E
:1067000000920195F6220520F7F75CFEE06902F0A1
:1067100011F98146A06902F0F9F84FF6FF739E4225
:10672000ADF81450ADF8166027686BD1FF2D8CBF03
:10673000022301234FF6FF721F4496420697A38857
:1067400062D1FF2D8CBF022201229B1A227A8DF882
:1067500020206289ADF82220E2680992227C8DF81F
:106760002820628AADF82A2062690B9294F82020D2
:106770008DF83020626A0D92D8F80020ADF8329082
:106780009BB29204ADF81C30ADF8380027D52B4AE7
:106790001268042A23DD2D4A802B106828BF80232D
:1067A00000220FAC9A4231D100232F21244804F853
:1067B000123006F0C1FE002835D02F21204806F007
:1067C000BBFE411C1F4B224AD3F804350192214ADB
:1067D0000092029440F20D120520F7F7F3FD05A890
:1067E000FFF77CFE51B0BDE8F0835B7843EA0525F6
:1067F0006AE75C21124806F09FFE08B15C2177E74A
:106800000F4979E7032395E703229EE7B95C0D0959
:1068100001F00F01455D04F81250455C04EB4201A4
:1068200001324D70BEE75C21054806F085FE08B1D7
:106830005C21C3E70249C5E7402E00203C2E002022
:106840002AEC030000100140EFEB0300442E00206F
:1068500002EC030086D70300037813B90430FFF776
:1068600015BF7047F0B5064685B014461D4681B188
:106870007AB173B103AB0022FFF758FA10B903984D
:1068800005B0F0BD0095234600223046FFF7C4FA5C
:10689000F6E70E20F4E708B5FFF798FA00F00EFFD0
:1068A000BDE80840FFF774BA2DE9F8430446002814
:1068B00000F0BF80002900F0BC80C3681BB1836872
:1068C000002B00F0B6804FF6FF730B80E3681BB916
:1068D000A368002B40F0AF80A388002B40F0AD8070
:1068E000594B1B7813B10F20BDE8F883574AD57870
:1068F0009078E84215461CD0B4F800C06788544828
:106900004FF03C0E0EFB03F682191FFA83F8B2F823
:106910001090B9F1000F7CD1B2F80290B94578D14E
:10692000365A664575D1A1F8008092F83830DB07F9
:10693000D9D4D4E902870026B7426FD108884FF630
:10694000FF739842424B40D100223C2606FB02379F
:1069500097F83870FF0768D490B24FF6FF76B042D0
:1069600008806ED03C2202FB0030C680088802FB03
:10697000003086800888A78802FB003007820888DC
:10698000678802FB003047800888278850431F52E1
:10699000088802FB003256752088A288B0424FF06A
:1069A000060000FB02520BBF9078D0780130013016
:1069B0000CBF9070D0700A883C2000FB023292F825
:1069C000380040F0020082F83800088825693C222F
:1069D00002FB003045630888A56802FB0030C562F1
:1069E0000888E56802FB003005860888646902FBB8
:1069F0000030C461088802FB00342083098802FB50
:106A00000133002093F8382042F0010283F8382047
:106A10006AE70133042B7FF475AF8AE758F8360034
:106A2000FFF713F958B1013686E70132042A8DD1F8
:106A300093E70E2058E7092056E7052054E7072082
:106A400052E7042050E700BF0C4800200E48002009
:106A5000484800207FB505460E4619B30DF10A03DC
:106A60000022009303ABADF80A20FFF7BFFB0446FA
:106A700088B90D48039B3C226A438118C97D4907A8
:106A80000CD002F11701BDF80A20009201443246F1
:106A90002846FFF751F8204604B070BD1846FAF7B3
:106AA0004CFAF8E70E24F6E74848002013B51446E0
:106AB0000A4639B134B1002300932146FFF796FB13
:106AC00002B010BD0E20FBE710B50446FFF7DEF85C
:106AD00088B1222911D80A483C2303FB0400C3884B
:106AE0008B4206D090F83830C18043F0020380F822
:106AF0003830002000E0052010BD0720FCE700BF73
:106B00004848002010B5044651B1FFF7BFF848B11E
:106B1000054B3C2202FB04340020E3880B8010BDAF
:106B20000E20FCE70520FAE748480020032870B54E
:106B30001DD8104A3C2404FB002494F83830DD07AB
:106B400015D5E47D01F0070504F00706AE4204D137
:106B5000C1F3C405B5EBD40F07D03C2404FB0020DF
:106B600043F00203C17580F83830002000E00520B2
:106B700070BD00BF4848002069B103280DD8084BFC
:106B80003C2202FB003090F83830DB0705D5C37D8E
:106B90000B70002070470E2070470520704700BF23
:106BA0004848002038B50446154699B192B1FFF720
:106BB0006DF888B10A483C2303FB0400C3696BB13C
:106BC000837DC3F301030B70837DC3F385032B70B7
:106BD000002038BD0E20FCE70520FAE70620F8E784
:106BE000484800202DE9F3410DF107020DF106019F
:106BF0000546FFF7D7FF10B17846F2F717FD284E8C
:106C00009DF807709DF806103C2303FB05633C4686
:106C1000B3F82880032923D8DFE801F005021A1E03
:106C200007EB87046400B4FBF8F3092B1CD8002F92
:106C300033D0012B38BF0123DFB200213C2000FB01
:106C400005603A461830FEF783FE02B0BDE8F081D9
:106C5000642417FB04F4E6E741F270747C43E2E736
:106C60007846F2F7E3FCDEE7632B05D80A22012120
:106C7000B3FBF2F3DFB2E1E741F26F72934295BFEB
:106C8000642241F27072B3FBF2F3B3FBF2F399BFEB
:106C9000DFB20221DFB20321D0E73946CEE700BFE1
:106CA00048480020032810B50FD80B4A3C2404FBA9
:106CB000002393F83820D20707D5DA693AB141B1F9
:106CC0001985FFF78FFF002010BD0520FCE7062087
:106CD000FAE70720F8E700BF48480020032838B546
:106CE0002AD8184C3C2303FB004393F8385015F086
:106CF000010F254620D0DC6904B33F2A20D80329A0
:106D00001ED89B7DB2EB930F03D103F003038B429C
:106D100010D03C2404FB0054A37D62F3870361F38D
:106D20000103A375FFF75EFF94F8383043F00203C8
:106D300084F83830002000E0052038BD0620FCE74C
:106D40000720FAE748480020F8B5144B19780446A4
:106D5000F9B9FEF79BFFF0B1114A3C2303FB042372
:106D600008465B8A042B0FD10E490C2606FB00F562
:106D70006B5C13F0010708D143F003034B553C2330
:106D800003FB042250823846F8BD01300428EDD1BF
:106D9000FAE70F20F8E70520F6E700BF0C480020CF
:106DA0004848002038490020F8B505460C46FEF753
:106DB0006DFF08B3144B3C2202FB05356B8A042B94
:106DC0001CD022291CD80C25104F5D432E1D3E449B
:106DD0003046FEF72DFFA8B96209012304F01F0415
:106DE00003FA04F456F82230234346F822307B5D40
:106DF00043F002037B55F8BD0520FCE70620FAE7C7
:106E00000720F8E70020F6E748480020384900202E
:106E1000F8B505460C46FEF739FF18B3144B3C2273
:106E200002FB05356B8A042B1ED022291ED80C25A7
:106E3000104F5D432E1D3E443046FEF7F9FE80B1F3
:106E40006209012304F01F0403FA04F456F8223007
:106E500023EA040346F822307B5D43F002037B55AE
:106E60000020F8BD0520FCE70620FAE70720F8E738
:106E700048480020384900202DE9F04706461546CD
:106E80000F4651B34AB3FEF701FF40B3174B3C2204
:106E900002FB0636738A042B23D00024DFF85090BF
:106EA000B5F800802C804FF00C0A708A03280ED8A9
:106EB0000AFB009021460430FEF7BAFE38B12B8859
:106EC000984510D927F813402B8801332B800134C3
:106ED000232CEAD10020BDE8F0870E20FBE7052037
:106EE000F9E70620F7E70920F5E700BF484800204A
:106EF00038490020F8B506460C46FEF7C7FEF0B14B
:106F000020291ED83C27114D774307F108062E444F
:106F10003046FEF78DFEB0B96209012304F01F046C
:106F200003FA04F456F82230234346F822303D4455
:106F300095F8383043F0020385F83830F8BD052065
:106F4000FCE70720FAE70020F8E700BF48480020E8
:106F5000F8B506460C46FEF799FE00B3202920D866
:106F60003C27114D774307F108062E443046FEF7C3
:106F70005FFE98B16209012304F01F0403FA04F4D0
:106F800056F8223023EA040346F822303D4400201C
:106F900095F8383043F0020385F83830F8BD052005
:106FA000FCE70720FAE700BF4848002070B5054617
:106FB0001446A9B1A2B1FEF769FE98B10B4B268821
:106FC0003C20002200FB05352280A86810F001005B
:106FD00005D04EB10A80238801332380104670BD4E
:106FE0000E20FCE70520FAE70920F8E748480020D2
:106FF00010B50446FEF74AFE88B1202911D80A4888
:107000003C2303FB040083888B4206D090F8383081
:10701000818043F0020380F83830002000E0052032
:1070200010BD0720FCE700BF4848002010B504460B
:1070300051B1FEF72BFE48B1054B3C2202FB043454
:107040000020A3880B8010BD0E20FCE70520FAE786
:1070500048480020030605D4012803D0024B1870CD
:107060000020704707207047982E0020014B1878A9
:10707000704700BF982E002010B50446FEF706FEAC
:1070800090B10A4A3C2303FB0423187D88421EBFAB
:1070900093F8380040F0020083F838003C2303FBEB
:1070A00004240020217510BD0520FCE7484800207D
:1070B00010B5044651B1FEF7E9FD48B1054B3C223D
:1070C00002FB04340020237D0B7010BD0E20FCE772
:1070D0000520FAE74848002010B50446FEF7D6FD23
:1070E00098B181F080037E2B11D90A483C2303FB21
:1070F0000400437D8B4206D090F83830417543F050
:10710000020380F83830002000E0052010BD072081
:10711000FCE700BF4848002010B5044651B1FEF717
:10712000B5FD48B1054B3C2202FB04340020637DD1
:107130000B7010BD0E20FCE70520FAE74848002040
:1071400021B128B9034B1B880B8070470E20704774
:10715000052070470E48002021B128B9034B9B78C9
:107160000B7070470E207047052070470E480020B6
:1071700021B128B9034BDB780B7070470E207047A4
:10718000052070470E48002010B5044661B1FEF797
:107190007DFD58B1064B3C2060431A1852884A8046
:1071A0001B5A0B80002010BD0E20FCE70520FAE7DB
:1071B00048480020F7B5019112B310B1052003B083
:1071C000F0BD4FF6FF73BDF80660BDF804700D49C1
:1071D00013804FF03C0C0CFB00F40D191FFA80FEDD
:1071E0002B8A4BB96D88B54206D1645ABC4203D193
:1071F000A2F800E01846E2E701300428EBD1DDE711
:107200000E20DCE748480020F0B5F1B1EAB1F0B952
:10721000114E158810806FF03B0704201388AB4295
:1072200017D207FB006494F828C11CF0010F09D0A5
:10723000B4F8004134B9C0F1040421F813401388B4
:10724000013313800138E9D1F0BD0E20FCE70520A1
:10725000FAE70920F8E700BF4848002010B50446C7
:1072600051B1FEF713FD48B1054B3C2202FB04343B
:107270000020636B0B6010BD0E20FCE70520FAE7D1
:107280004848002070B50646FEF700FD08B33C25CF
:10729000114C7543002205F1180011462044FEF7F9
:1072A00057FB30466619103500F036FA2C44F0884A
:1072B00001F028FA00204FF0FF3373606071A07175
:1072C000E07196F83830B07643F0020386F8383033
:1072D00070BD0520FCE700BF48480020202873B59A
:1072E000054614D80024A6B20DF106013046FFF77A
:1072F0009DFE30B9BDF80630AB4202D13046FFF7F3
:10730000C1FF0134042CEED1002002B070BD072073
:10731000FBE708B501F0C2F8A0F5805008BD0000F9
:1073200010B586B00D4B03930D4B04930D4B059395
:1073300004230293FFF7EDFF0B4C009001236946F5
:107340000A4801932370F7F797FC20B10848F7F734
:10735000A3FD06B010BD2070FBE700BF1D60030059
:10736000895D0300A97303004448002020480020E1
:10737000682E002008B5FEF729FD0848084B036079
:10738000F5F746F800F08CF9FEF7C6FAFEF7C2FBF7
:10739000FFF7C6FF034B00221A7008BD14480020F7
:1073A000596803000C480020144910B400230C2431
:1073B00004FB03F00133425C12F0010F1CBF42F0EA
:1073C00002024254042BF3D10D4B1A881AB15A7998
:1073D00042F002025A710B480023C1183C3391F865
:1073E0003820D40744BF42F0020281F83820F02B45
:1073F000F3D15DF8044BFFF793BF00BF384900207D
:107400000E480020484800202DE9F04F5A4DB5F8AD
:10741000C83085B0804613B97846F2F707F9574C63
:10742000DFF86CA14FF6FF7308F57A79A5F8CA303A
:10743000002604F1040B94F82830CBB1A369A3EB28
:107440000903002B1ADA002384F82830B5F8C83075
:10745000013BA5F8C83003A92088FFF7FFFE10B153
:107460007846F2F7E3F8E369039920880122984708
:107470000136042E04F12C04DDD14EE0236AA3EB87
:107480000902002A66DAA5F8CA602C2101FB06B1C0
:107490002088FFF7DFFA0746E8B1DAF800309B04EE
:1074A00017D5374B1B68042B13DD2F21354806F009
:1074B00043F8E8B12F21334806F03EF8411C324B27
:1074C000324AD3F804350092019780220520F6F75E
:1074D00079FF082F15D1D4E908231A445B002262F2
:1074E0006362A269236AD31A002BC1DA2262BFE762
:1074F0005C21244806F020F808B15C21DBE7214933
:10750000DDE7042F01D00F2F20D12C2303FB0656DB
:10751000B36B03F51C434033B363B5F8C8304BB3CA
:10752000B5F8CA30032B02D97846F2F77FF8B5F8E0
:10753000CA302C2202FB03539B6BB3EB080248BFFB
:10754000A8EB0302EA6005B0BDE8F08F7846F2F7D9
:107550006DF8C6E7B5F8CA204FF6FF718A4206D02B
:107560002C2101FB0252926B9B1A002B80DAA5F8AA
:10757000CA607DE7EB60E6E76849002080490020AB
:107580003C2E002062EC03000010014087EC030059
:10759000402E0020F8B5284C2C2303FB0043054661
:1075A00093F8403013B97846F2F740F8B4F8C83091
:1075B00013B97846F2F73AF8B4F8C8202C2000FB4B
:1075C0000541013A002392B281F84030A4F8C82066
:1075D0005AB3B4F8CA20AA422CD1896B174A0A447C
:1075E0004FF6FF7100FB03459EB295F840702FB136
:1075F000AD6BAF1A002FBCBF31462A460133042BB6
:10760000F0D14FF6FF739942A4F8CA1002D1784620
:10761000F2F70CF8B4F8CA3007482C2202FB0344F6
:10762000A16BBDE8F840F5F730B90348BDE8F84074
:10763000F5F714B9F8BD00BF68490020008793032F
:107640000328F8B505460E46174602D97846F1F7E5
:10765000EDFFF5F7EDFD114B00202C2202FB00346D
:1076600094F8401099B1218BA94210D1A28D338892
:107670009A420FD1E28D73889A420BD180B2FFF704
:1076800089FF636B002239462846984702E00130A3
:107690000428E3D1BDE8F840F5F70ABE68490020A8
:1076A00010B5044CCC220021204605F06BFE024BA5
:1076B000A36010BD6849002009740300F7B5154C9C
:1076C000F5F7B6FDB4F8C8302BB100232046A4F876
:1076D000C830F5F7C3F81825601990F828308BB139
:1076E000665BC76900212C2205F04CFE01A93046DB
:1076F000FFF7B4FD10B17846F1F798FF0222019927
:107700003046B8472C35C82DE6D1F5F7D1FD03B08A
:10771000F0BD00BF68490020032873B505462BD88B
:10772000F5F786FD154B00242C211E4601FB043283
:1077300092F84000B8B1128BAA4214D1A0B2FFF760
:1077400029FF01A92846FFF789FD10B17846F1F716
:107750006DFF2C2303FB04640222636B019928460E
:107760009847002403E00134042CDFD10524F5F709
:107770009FFD204602B070BD0524FAE7684900204D
:107780002DE9F7430546002800F0BE80C369002BB1
:1077900000F0BA800388032B00F2B88083695E4A48
:1077A000A3F5F413A3F59063934200F2B1805B4C10
:1077B000F5F73EFDB4F8C830042B4FF6FF764FF0D6
:1077C000040710D800232C20B44600FB034292F893
:1077D0004010002940F08F80664501D19EB20F46CF
:1077E0000133042BF1D1F5F763FD002F7FD1291D63
:1077F0002888FFF72FF930F0040302D0082840F062
:1078000089802C2303FB064393F8403013B178465C
:10781000F1F70CFFF5F762F880462C2000FB0640DC
:1078200029462022183005F0A2FD0DF10701288815
:10783000FFF772FC10B17846F1F7F8FE9DF80730BB
:10784000FF2B03D1FFF712FC8DF80700E988AB8806
:107850004FF6FF72914255D1FF2B8CBF02230123BB
:10786000AA899DF80700134444F620629BB2504356
:107870000B2B00F5433000F5A07088BF0B334FF0A1
:107880002C0982BF0C2193FBF1F302FB0300AB69CF
:1078900009FB064598422A6B28BF1846E863424414
:1078A00040442A63A863F5F7C3FCB4F8C83043B179
:1078B000B4F8CA30AA6B09FB03439B6B9B1A002BDD
:1078C00008DB2C2303FB06431448996BF4F7DDFF18
:1078D000A4F8CA602C2303FB0646012386F8403037
:1078E000B4F8C8300133A4F8C830F5F7E1FC3846E5
:1078F00003B0BDE8F083118B2A8891427FF470AF0A
:10790000082770E70323ABE70E27F0E70527EEE72C
:107910000727ECE70746EAE780027503684900207D
:107920004A09012301F01F0103FA01F150F8223046
:10793000194214BF0120002070474A09012301F0B9
:107940001F0103FA01F150F822300B4340F82230B6
:1079500070474A09012301F01F0103FA01F150F8B1
:10796000223023EA010340F82230704701F11F0260
:10797000520970B5551EA1EB45140121A140002309
:1079800001399A4201D1012070BD9D4250F8234037
:107990000CBF0E464FF0FF36264201D10133F0E70F
:1079A0000020F1E72DE9F0474FF6FF73DFF8448040
:1079B000DFF844900B8007460D4600241E464FF02A
:1079C000160A21464046FFF7ABFF631C40B10AFB95
:1079D00004F434F80920BA4206D12B80BDE8F087C0
:1079E0002A88B24208BF2B80202B1C46E9D10020F8
:1079F000F4E700BF104B0020184B0020024B33F877
:107A000020300B80704700BF544A00202DE9F04120
:107A10005D1E16240D4E6C430746A01D884630445B
:107A20001146102205F0A3FC331900225A710122DD
:107A30002946A3F8028006481A713753FFF77DFFE5
:107A400029460448BDE8F041FFF777BF184B0020F6
:107A5000104B0020144B002010B40C46431C0A1D90
:107A6000208849885DF8044B9BB2FFF7CFBF000028
:107A700070B516244443074E0D46A11D1022314413
:107A8000281D05F074FC325B2A8033195B886B80FB
:107A900070BD00BF184B0020044A0B46142101FBA7
:107AA000002104311022184605F061BCD84E002098
:107AB0000422014805F05BBC124E00200846042257
:107AC000014905F054BC00BF124E00202DE9F041E1
:107AD0004488012C05463ED004F47043B3F5005FA2
:107AE00043D009D8002B39D0B3F5805F3BD078461E
:107AF000F1F79CFD00240BE0B3F5804F07D0B3F500
:107B0000A04F2ED0B3F5405FF1D1032400E0042450
:107B1000174F6E881C2202FB0472052C9289A6EB7B
:107B200002062A8802F57F5202F13F024FEA8202E2
:107B300005F1040895B202D97846F1F777FD1C23C8
:107B400003FB047441463046A3692A4698473146F0
:107B50006068FFF7F2FE0120BDE8F081023CE4B26C
:107B6000D6E70524D4E70124D2E70224D0E700BFFA
:107B7000FCEC030010B5044610B97846F1F756FD49
:107B80002346BDE81040184710B5044610B97846A2
:107B9000F1F74CFD084B93F8642003F122001AB171
:107BA000844207D003F14300241A18BF4FF0FF347A
:107BB000A0B210BD0020FCE72C4E00202DE9F843B8
:107BC0002A255D43164C91468046A81D10220F467B
:107BD000204449461E4605F0CAFB05F11900002164
:107BE0001022204405F0CEFB691D21444846F6F7DB
:107BF000D5FA10B17846F1F719FD2A237343E2183C
