Archive member included to satisfy reference by file (symbol)

external/rtt/librtt_nrf52832_xxAA.a(SEGGER_RTT.c.obj)
                              examples/light_switch/provisioner/CMakeFiles/light_switch_provisioner_nrf52832_xxAA_s132_6.1.1.dir/__/__/__/mesh/core/src/log.c.obj (SEGGER_RTT_Write)
external/rtt/librtt_nrf52832_xxAA.a(SEGGER_RTT_printf.c.obj)
                              examples/light_switch/provisioner/CMakeFiles/light_switch_provisioner_nrf52832_xxAA_s132_6.1.1.dir/__/__/__/mesh/core/src/log.c.obj (SEGGER_RTT_vprintf)
external/micro-ecc/libuECC_nrf52832_xxAA.a(uECC.c.obj)
                              examples/light_switch/provisioner/CMakeFiles/light_switch_provisioner_nrf52832_xxAA_s132_6.1.1.dir/__/__/__/mesh/prov/src/prov_utils.c.obj (uECC_secp256r1)
c:/mesh/arm_gcc/bin/../lib/gcc/arm-none-eabi/7.3.1/thumb/v7e-m/fpv4-sp/hard\libgcc.a(_aeabi_ldivmod.o)
                              examples/light_switch/provisioner/CMakeFiles/light_switch_provisioner_nrf52832_xxAA_s132_6.1.1.dir/__/__/common/src/rtt_input.c.obj (__aeabi_ldivmod)
c:/mesh/arm_gcc/bin/../lib/gcc/arm-none-eabi/7.3.1/thumb/v7e-m/fpv4-sp/hard\libgcc.a(_aeabi_uldivmod.o)
                              examples/light_switch/provisioner/CMakeFiles/light_switch_provisioner_nrf52832_xxAA_s132_6.1.1.dir/__/__/common/src/rtt_input.c.obj (__aeabi_uldivmod)
c:/mesh/arm_gcc/bin/../lib/gcc/arm-none-eabi/7.3.1/thumb/v7e-m/fpv4-sp/hard\libgcc.a(_udivmoddi4.o)
                              c:/mesh/arm_gcc/bin/../lib/gcc/arm-none-eabi/7.3.1/thumb/v7e-m/fpv4-sp/hard\libgcc.a(_aeabi_ldivmod.o) (__udivmoddi4)
c:/mesh/arm_gcc/bin/../lib/gcc/arm-none-eabi/7.3.1/thumb/v7e-m/fpv4-sp/hard\libgcc.a(_dvmd_tls.o)
                              c:/mesh/arm_gcc/bin/../lib/gcc/arm-none-eabi/7.3.1/thumb/v7e-m/fpv4-sp/hard\libgcc.a(_aeabi_ldivmod.o) (__aeabi_ldiv0)
c:/mesh/arm_gcc/bin/../lib/gcc/arm-none-eabi/7.3.1/../../../../arm-none-eabi/lib/thumb/v7e-m/fpv4-sp/hard\libg_nano.a(lib_a-calloc.o)
                              examples/light_switch/provisioner/CMakeFiles/light_switch_provisioner_nrf52832_xxAA_s132_6.1.1.dir/__/__/__/mesh/core/src/mesh_mem_stdlib.c.obj (calloc)
c:/mesh/arm_gcc/bin/../lib/gcc/arm-none-eabi/7.3.1/../../../../arm-none-eabi/lib/thumb/v7e-m/fpv4-sp/hard\libg_nano.a(lib_a-exit.o)
                              c:/mesh/arm_gcc/bin/../lib/gcc/arm-none-eabi/7.3.1/../../../../arm-none-eabi/lib/thumb/v7e-m/fpv4-sp/hard/crt0.o (exit)
c:/mesh/arm_gcc/bin/../lib/gcc/arm-none-eabi/7.3.1/../../../../arm-none-eabi/lib/thumb/v7e-m/fpv4-sp/hard\libg_nano.a(lib_a-impure.o)
                              c:/mesh/arm_gcc/bin/../lib/gcc/arm-none-eabi/7.3.1/../../../../arm-none-eabi/lib/thumb/v7e-m/fpv4-sp/hard\libg_nano.a(lib_a-exit.o) (_global_impure_ptr)
c:/mesh/arm_gcc/bin/../lib/gcc/arm-none-eabi/7.3.1/../../../../arm-none-eabi/lib/thumb/v7e-m/fpv4-sp/hard\libg_nano.a(lib_a-init.o)
                              c:/mesh/arm_gcc/bin/../lib/gcc/arm-none-eabi/7.3.1/../../../../arm-none-eabi/lib/thumb/v7e-m/fpv4-sp/hard/crt0.o (__libc_init_array)
c:/mesh/arm_gcc/bin/../lib/gcc/arm-none-eabi/7.3.1/../../../../arm-none-eabi/lib/thumb/v7e-m/fpv4-sp/hard\libg_nano.a(lib_a-malloc.o)
                              examples/light_switch/provisioner/CMakeFiles/light_switch_provisioner_nrf52832_xxAA_s132_6.1.1.dir/__/__/__/mesh/core/src/mesh_mem_stdlib.c.obj (malloc)
c:/mesh/arm_gcc/bin/../lib/gcc/arm-none-eabi/7.3.1/../../../../arm-none-eabi/lib/thumb/v7e-m/fpv4-sp/hard\libg_nano.a(lib_a-memcmp.o)
                              examples/light_switch/provisioner/CMakeFiles/light_switch_provisioner_nrf52832_xxAA_s132_6.1.1.dir/src/provisioner_helper.c.obj (memcmp)
c:/mesh/arm_gcc/bin/../lib/gcc/arm-none-eabi/7.3.1/../../../../arm-none-eabi/lib/thumb/v7e-m/fpv4-sp/hard\libg_nano.a(lib_a-memcpy-stub.o)
                              examples/light_switch/provisioner/CMakeFiles/light_switch_provisioner_nrf52832_xxAA_s132_6.1.1.dir/src/main.c.obj (memcpy)
c:/mesh/arm_gcc/bin/../lib/gcc/arm-none-eabi/7.3.1/../../../../arm-none-eabi/lib/thumb/v7e-m/fpv4-sp/hard\libg_nano.a(lib_a-memset.o)
                              c:/mesh/arm_gcc/bin/../lib/gcc/arm-none-eabi/7.3.1/../../../../arm-none-eabi/lib/thumb/v7e-m/fpv4-sp/hard/crt0.o (memset)
c:/mesh/arm_gcc/bin/../lib/gcc/arm-none-eabi/7.3.1/../../../../arm-none-eabi/lib/thumb/v7e-m/fpv4-sp/hard\libg_nano.a(lib_a-nano-callocr.o)
                              c:/mesh/arm_gcc/bin/../lib/gcc/arm-none-eabi/7.3.1/../../../../arm-none-eabi/lib/thumb/v7e-m/fpv4-sp/hard\libg_nano.a(lib_a-calloc.o) (_calloc_r)
c:/mesh/arm_gcc/bin/../lib/gcc/arm-none-eabi/7.3.1/../../../../arm-none-eabi/lib/thumb/v7e-m/fpv4-sp/hard\libg_nano.a(lib_a-nano-freer.o)
                              c:/mesh/arm_gcc/bin/../lib/gcc/arm-none-eabi/7.3.1/../../../../arm-none-eabi/lib/thumb/v7e-m/fpv4-sp/hard\libg_nano.a(lib_a-malloc.o) (_free_r)
c:/mesh/arm_gcc/bin/../lib/gcc/arm-none-eabi/7.3.1/../../../../arm-none-eabi/lib/thumb/v7e-m/fpv4-sp/hard\libg_nano.a(lib_a-nano-mallocr.o)
                              c:/mesh/arm_gcc/bin/../lib/gcc/arm-none-eabi/7.3.1/../../../../arm-none-eabi/lib/thumb/v7e-m/fpv4-sp/hard\libg_nano.a(lib_a-malloc.o) (_malloc_r)
c:/mesh/arm_gcc/bin/../lib/gcc/arm-none-eabi/7.3.1/../../../../arm-none-eabi/lib/thumb/v7e-m/fpv4-sp/hard\libg_nano.a(lib_a-sbrkr.o)
                              c:/mesh/arm_gcc/bin/../lib/gcc/arm-none-eabi/7.3.1/../../../../arm-none-eabi/lib/thumb/v7e-m/fpv4-sp/hard\libg_nano.a(lib_a-nano-mallocr.o) (_sbrk_r)
c:/mesh/arm_gcc/bin/../lib/gcc/arm-none-eabi/7.3.1/../../../../arm-none-eabi/lib/thumb/v7e-m/fpv4-sp/hard\libg_nano.a(lib_a-strcmp.o)
                              examples/light_switch/provisioner/CMakeFiles/light_switch_provisioner_nrf52832_xxAA_s132_6.1.1.dir/src/main.c.obj (strcmp)
c:/mesh/arm_gcc/bin/../lib/gcc/arm-none-eabi/7.3.1/../../../../arm-none-eabi/lib/thumb/v7e-m/fpv4-sp/hard\libg_nano.a(lib_a-strcpy.o)
                              external/rtt/librtt_nrf52832_xxAA.a(SEGGER_RTT.c.obj) (strcpy)
c:/mesh/arm_gcc/bin/../lib/gcc/arm-none-eabi/7.3.1/../../../../arm-none-eabi/lib/thumb/v7e-m/fpv4-sp/hard\libg_nano.a(lib_a-strlen.o)
                              examples/light_switch/provisioner/CMakeFiles/light_switch_provisioner_nrf52832_xxAA_s132_6.1.1.dir/src/provisioner_helper.c.obj (strlen)
c:/mesh/arm_gcc/bin/../lib/gcc/arm-none-eabi/7.3.1/../../../../arm-none-eabi/lib/thumb/v7e-m/fpv4-sp/hard\libg_nano.a(lib_a-strrchr.o)
                              examples/light_switch/provisioner/CMakeFiles/light_switch_provisioner_nrf52832_xxAA_s132_6.1.1.dir/src/main.c.obj (strrchr)
c:/mesh/arm_gcc/bin/../lib/gcc/arm-none-eabi/7.3.1/../../../../arm-none-eabi/lib/thumb/v7e-m/fpv4-sp/hard\libg_nano.a(lib_a-mlock.o)
                              c:/mesh/arm_gcc/bin/../lib/gcc/arm-none-eabi/7.3.1/../../../../arm-none-eabi/lib/thumb/v7e-m/fpv4-sp/hard\libg_nano.a(lib_a-nano-freer.o) (__malloc_lock)
c:/mesh/arm_gcc/bin/../lib/gcc/arm-none-eabi/7.3.1/../../../../arm-none-eabi/lib/thumb/v7e-m/fpv4-sp/hard\libg_nano.a(lib_a-reent.o)
                              c:/mesh/arm_gcc/bin/../lib/gcc/arm-none-eabi/7.3.1/../../../../arm-none-eabi/lib/thumb/v7e-m/fpv4-sp/hard\libg_nano.a(lib_a-sbrkr.o) (errno)
c:/mesh/arm_gcc/bin/../lib/gcc/arm-none-eabi/7.3.1/../../../../arm-none-eabi/lib/thumb/v7e-m/fpv4-sp/hard\libg_nano.a(lib_a-strchr.o)
                              c:/mesh/arm_gcc/bin/../lib/gcc/arm-none-eabi/7.3.1/../../../../arm-none-eabi/lib/thumb/v7e-m/fpv4-sp/hard\libg_nano.a(lib_a-strrchr.o) (strchr)
c:/mesh/arm_gcc/bin/../lib/gcc/arm-none-eabi/7.3.1/../../../../arm-none-eabi/lib/thumb/v7e-m/fpv4-sp/hard\libnosys.a(sbrk.o)
                              c:/mesh/arm_gcc/bin/../lib/gcc/arm-none-eabi/7.3.1/../../../../arm-none-eabi/lib/thumb/v7e-m/fpv4-sp/hard\libg_nano.a(lib_a-sbrkr.o) (_sbrk)
c:/mesh/arm_gcc/bin/../lib/gcc/arm-none-eabi/7.3.1/../../../../arm-none-eabi/lib/thumb/v7e-m/fpv4-sp/hard\libnosys.a(_exit.o)
                              c:/mesh/arm_gcc/bin/../lib/gcc/arm-none-eabi/7.3.1/../../../../arm-none-eabi/lib/thumb/v7e-m/fpv4-sp/hard\libg_nano.a(lib_a-exit.o) (_exit)

Allocating common symbols
Common symbol       size              file

nrf_nvic_state      0xc               examples/light_switch/provisioner/CMakeFiles/light_switch_provisioner_nrf52832_xxAA_s132_6.1.1.dir/C_/mesh/deps/nRF5_SDK_15.3.0_59ac345/components/libraries/util/app_util_platform.c.obj
m_packet            0x24              examples/light_switch/provisioner/CMakeFiles/light_switch_provisioner_nrf52832_xxAA_s132_6.1.1.dir/__/__/__/mesh/core/src/core_tx.c.obj
errno               0x4               c:/mesh/arm_gcc/bin/../lib/gcc/arm-none-eabi/7.3.1/../../../../arm-none-eabi/lib/thumb/v7e-m/fpv4-sp/hard\libg_nano.a(lib_a-reent.o)
_SEGGER_RTT         0x78              external/rtt/librtt_nrf52832_xxAA.a(SEGGER_RTT.c.obj)

Discarded input sections

 .text          0x00000000        0x0 c:/mesh/arm_gcc/bin/../lib/gcc/arm-none-eabi/7.3.1/thumb/v7e-m/fpv4-sp/hard/crti.o
 .data          0x00000000        0x0 c:/mesh/arm_gcc/bin/../lib/gcc/arm-none-eabi/7.3.1/thumb/v7e-m/fpv4-sp/hard/crti.o
 .bss           0x00000000        0x0 c:/mesh/arm_gcc/bin/../lib/gcc/arm-none-eabi/7.3.1/thumb/v7e-m/fpv4-sp/hard/crti.o
 .data          0x00000000        0x4 c:/mesh/arm_gcc/bin/../lib/gcc/arm-none-eabi/7.3.1/thumb/v7e-m/fpv4-sp/hard/crtbegin.o
 .data          0x00000000        0x0 c:/mesh/arm_gcc/bin/../lib/gcc/arm-none-eabi/7.3.1/../../../../arm-none-eabi/lib/thumb/v7e-m/fpv4-sp/hard/crt0.o
 .bss           0x00000000        0x0 c:/mesh/arm_gcc/bin/../lib/gcc/arm-none-eabi/7.3.1/../../../../arm-none-eabi/lib/thumb/v7e-m/fpv4-sp/hard/crt0.o
 .ARM.extab     0x00000000        0x0 c:/mesh/arm_gcc/bin/../lib/gcc/arm-none-eabi/7.3.1/../../../../arm-none-eabi/lib/thumb/v7e-m/fpv4-sp/hard/crt0.o
 .text          0x00000000        0x0 examples/light_switch/provisioner/CMakeFiles/light_switch_provisioner_nrf52832_xxAA_s132_6.1.1.dir/src/main.c.obj
 .data          0x00000000        0x0 examples/light_switch/provisioner/CMakeFiles/light_switch_provisioner_nrf52832_xxAA_s132_6.1.1.dir/src/main.c.obj
 .bss           0x00000000        0x0 examples/light_switch/provisioner/CMakeFiles/light_switch_provisioner_nrf52832_xxAA_s132_6.1.1.dir/src/main.c.obj
 .text          0x00000000        0x0 examples/light_switch/provisioner/CMakeFiles/light_switch_provisioner_nrf52832_xxAA_s132_6.1.1.dir/__/__/__/mesh/stack/src/mesh_stack.c.obj
 .data          0x00000000        0x0 examples/light_switch/provisioner/CMakeFiles/light_switch_provisioner_nrf52832_xxAA_s132_6.1.1.dir/__/__/__/mesh/stack/src/mesh_stack.c.obj
 .bss           0x00000000        0x0 examples/light_switch/provisioner/CMakeFiles/light_switch_provisioner_nrf52832_xxAA_s132_6.1.1.dir/__/__/__/mesh/stack/src/mesh_stack.c.obj
 .text.mesh_evt_handler
                0x00000000       0x1c examples/light_switch/provisioner/CMakeFiles/light_switch_provisioner_nrf52832_xxAA_s132_6.1.1.dir/__/__/__/mesh/stack/src/mesh_stack.c.obj
 .text.mesh_stack_start
                0x00000000        0x4 examples/light_switch/provisioner/CMakeFiles/light_switch_provisioner_nrf52832_xxAA_s132_6.1.1.dir/__/__/__/mesh/stack/src/mesh_stack.c.obj
 .text.mesh_stack_provisioning_data_store
Memory Configuration

Name             Origin             Length             Attributes
FLASH            0x00026000         0x00051000         xr
RAM              0x20002da0         0x0000cf60         xrw
*default*        0x00000000         0xffffffff

Linker script and memory map


.text           0x00026000    0x19378
 *(.isr_vector)
 .isr_vector    0x00026000      0x200 examples/light_switch/provisioner/CMakeFiles/light_switch_provisioner_nrf52832_xxAA_s132_6.1.1.dir/C_/mesh/deps/nRF5_SDK_15.3.0_59ac345/modules/nrfx/mdk/gcc_startup_nrf52.S.obj
                0x00026000                __isr_vector
 *(.text*)
 .text          0x00026200       0x40 c:/mesh/arm_gcc/bin/../lib/gcc/arm-none-eabi/7.3.1/thumb/v7e-m/fpv4-sp/hard/crtbegin.o
 .text          0x00026240       0x74 c:/mesh/arm_gcc/bin/../lib/gcc/arm-none-eabi/7.3.1/../../../../arm-none-eabi/lib/thumb/v7e-m/fpv4-sp/hard/crt0.o
                0x00026240                _start
                0x00026240                _mainCRTStartup
 .text.sd_app_evt_wait
                0x000262b4        0x4 examples/light_switch/provisioner/CMakeFiles/light_switch_provisioner_nrf52832_xxAA_s132_6.1.1.dir/src/main.c.obj
 .text.flash_manager_mem_available
                0x000262b8        0x2 examples/light_switch/provisioner/CMakeFiles/light_switch_provisioner_nrf52832_xxAA_s132_6.1.1.dir/src/main.c.obj
 *fill*         0x000262ba        0x2 
 .text.flash_invalidate_complete
                0x000262bc       0x10 examples/light_switch/provisioner/CMakeFiles/light_switch_provisioner_nrf52832_xxAA_s132_6.1.1.dir/src/main.c.obj
 .text.app_start
                0x000262cc      0x2b0 examples/light_switch/provisioner/CMakeFiles/light_switch_provisioner_nrf52832_xxAA_s132_6.1.1.dir/src/main.c.obj
 .text.models_init_cb
                0x0002657c       0xb0 examples/light_switch/provisioner/CMakeFiles/light_switch_provisioner_nrf52832_xxAA_s132_6.1.1.dir/src/main.c.obj
                0x0002657c                models_init_cb
 .text.app_config_client_event_cb
                0x0002662c       0x78 examples/light_switch/provisioner/CMakeFiles/light_switch_provisioner_nrf52832_xxAA_s132_6.1.1.dir/src/main.c.obj
 .text.app_config_failed_cb
                0x000266a4       0x80 examples/light_switch/provisioner/CMakeFiles/light_switch_provisioner_nrf52832_xxAA_s132_6.1.1.dir/src/main.c.obj
 .text.app_prov_failed_cb
                0x00026724       0x78 examples/light_switch/provisioner/CMakeFiles/light_switch_provisioner_nrf52832_xxAA_s132_6.1.1.dir/src/main.c.obj
 .text.flash_write_complete
                0x0002679c       0x8c examples/light_switch/provisioner/CMakeFiles/light_switch_provisioner_nrf52832_xxAA_s132_6.1.1.dir/src/main.c.obj
 .text.clear_app_data
                0x00026828       0x2c examples/light_switch/provisioner/CMakeFiles/light_switch_provisioner_nrf52832_xxAA_s132_6.1.1.dir/src/main.c.obj
 .text.store_app_data
                0x00026854       0x38 examples/light_switch/provisioner/CMakeFiles/light_switch_provisioner_nrf52832_xxAA_s132_6.1.1.dir/src/main.c.obj
 .text.app_prov_success_cb
                0x0002688c       0x8c examples/light_switch/provisioner/CMakeFiles/light_switch_provisioner_nrf52832_xxAA_s132_6.1.1.dir/src/main.c.obj
 .text.app_data_store_cb
                0x00026918       0x1c examples/light_switch/provisioner/CMakeFiles/light_switch_provisioner_nrf52832_xxAA_s132_6.1.1.dir/src/main.c.obj
 .text.app_config_server_event_cb
                0x00026934       0x7c examples/light_switch/provisioner/CMakeFiles/light_switch_provisioner_nrf52832_xxAA_s132_6.1.1.dir/src/main.c.obj
 .text.app_health_event_cb
                0x000269b0       0x88 examples/light_switch/provisioner/CMakeFiles/light_switch_provisioner_nrf52832_xxAA_s132_6.1.1.dir/src/main.c.obj
 .text.app_mesh_core_event_cb
                0x00026a38       0x7c examples/light_switch/provisioner/CMakeFiles/light_switch_provisioner_nrf52832_xxAA_s132_6.1.1.dir/src/main.c.obj
 .text.flash_remove_complete
                0x00026ab4       0x64 examples/light_switch/provisioner/CMakeFiles/light_switch_provisioner_nrf52832_xxAA_s132_6.1.1.dir/src/main.c.obj
 .text.server_uri_index_select
                0x00026b18       0xa8 examples/light_switch/provisioner/CMakeFiles/light_switch_provisioner_nrf52832_xxAA_s132_6.1.1.dir/src/main.c.obj
 .text.button_event_handler
                0x00026bc0      0x38c examples/light_switch/provisioner/CMakeFiles/light_switch_provisioner_nrf52832_xxAA_s132_6.1.1.dir/src/main.c.obj
 .text.app_rtt_input_handler
                0x00026f4c        0xc examples/light_switch/provisioner/CMakeFiles/light_switch_provisioner_nrf52832_xxAA_s132_6.1.1.dir/src/main.c.obj
 .text.app_config_successful_cb
                0x00026f58      0x120 examples/light_switch/provisioner/CMakeFiles/light_switch_provisioner_nrf52832_xxAA_s132_6.1.1.dir/src/main.c.obj
 .text.app_flash_manager_add
                0x00027078       0xb8 examples/light_switch/provisioner/CMakeFiles/light_switch_provisioner_nrf52832_xxAA_s132_6.1.1.dir/src/main.c.obj
 .text.app_default_models_bind_setup
                0x00027130       0x4c examples/light_switch/provisioner/CMakeFiles/light_switch_provisioner_nrf52832_xxAA_s132_6.1.1.dir/src/main.c.obj
                0x00027130                app_default_models_bind_setup
 .text.startup.main
                0x0002717c      0x310 examples/light_switch/provisioner/CMakeFiles/light_switch_provisioner_nrf52832_xxAA_s132_6.1.1.dir/src/main.c.obj
                0x0002717c                main
 .text.mesh_stack_config_clear
                0x0002748c       0x16 examples/light_switch/provisioner/CMakeFiles/light_switch_provisioner_nrf52832_xxAA_s132_6.1.1.dir/__/__/__/mesh/stack/src/mesh_stack.c.obj
                0x0002748c                mesh_stack_config_clear
 .text.mesh_stack_is_device_provisioned
                0x000274a2       0x18 examples/light_switch/provisioner/CMakeFiles/light_switch_provisioner_nrf52832_xxAA_s132_6.1.1.dir/__/__/__/mesh/stack/src/mesh_stack.c.obj
                0x000274a2                mesh_stack_is_device_provisioned
 *fill*         0x000274ba        0x2 
 .text.mesh_stack_init
                0x000274bc       0x68 examples/light_switch/provisioner/CMakeFiles/light_switch_provisioner_nrf52832_xxAA_s132_6.1.1.dir/__/__/__/mesh/stack/src/mesh_stack.c.obj
                0x000274bc                mesh_stack_init
 .text.mesh_stack_persistence_flash_usage
                0x00027524       0x36 examples/light_switch/provisioner/CMakeFiles/light_switch_provisioner_nrf52832_xxAA_s132_6.1.1.dir/__/__/__/mesh/stack/src/mesh_stack.c.obj
                0x00027524                mesh_stack_persistence_flash_usage
 *fill*         0x0002755a        0x2 
 .text.prov_evt_handler
                0x0002755c      0x85c examples/light_switch/provisioner/CMakeFiles/light_switch_provisioner_nrf52832_xxAA_s132_6.1.1.dir/src/provisioner_helper.c.obj
 .text.prov_helper_provision_next_device
                0x00027db8      0x100 examples/light_switch/provisioner/CMakeFiles/light_switch_provisioner_nrf52832_xxAA_s132_6.1.1.dir/src/provisioner_helper.c.obj
                0x00027db8                prov_helper_provision_next_device
 .text.prov_helper_scan_start
                0x00027eb8       0x84 examples/light_switch/provisioner/CMakeFiles/light_switch_provisioner_nrf52832_xxAA_s132_6.1.1.dir/src/provisioner_helper.c.obj
                0x00027eb8                prov_helper_scan_start
 .text.prov_helper_device_handles_load
                0x00027f3c       0xf8 examples/light_switch/provisioner/CMakeFiles/light_switch_provisioner_nrf52832_xxAA_s132_6.1.1.dir/src/provisioner_helper.c.obj
                0x00027f3c                prov_helper_device_handles_load
 .text.prov_helper_init
                0x00028034       0x48 examples/light_switch/provisioner/CMakeFiles/light_switch_provisioner_nrf52832_xxAA_s132_6.1.1.dir/src/provisioner_helper.c.obj
                0x00028034                prov_helper_init
 .text.prov_helper_provision_self
                0x0002807c       0xfc examples/light_switch/provisioner/CMakeFiles/light_switch_provisioner_nrf52832_xxAA_s132_6.1.1.dir/src/provisioner_helper.c.obj
                0x0002807c                prov_helper_provision_self
 .text.client_pub_state_set
                0x00028178       0xac examples/light_switch/provisioner/CMakeFiles/light_switch_provisioner_nrf52832_xxAA_s132_6.1.1.dir/src/node_setup.c.obj
 .text.node_setup_fail
                0x00028224       0x28 examples/light_switch/provisioner/CMakeFiles/light_switch_provisioner_nrf52832_xxAA_s132_6.1.1.dir/src/node_setup.c.obj
 .text.config_step_execute
                0x0002824c      0x654 examples/light_switch/provisioner/CMakeFiles/light_switch_provisioner_nrf52832_xxAA_s132_6.1.1.dir/src/node_setup.c.obj
 .text.client_send_timer_cb
                0x000288a0        0x4 examples/light_switch/provisioner/CMakeFiles/light_switch_provisioner_nrf52832_xxAA_s132_6.1.1.dir/src/node_setup.c.obj
 .text.node_setup_config_client_event_process
                0x000288a4      0x2e8 examples/light_switch/provisioner/CMakeFiles/light_switch_provisioner_nrf52832_xxAA_s132_6.1.1.dir/src/node_setup.c.obj
                0x000288a4                node_setup_config_client_event_process
 .text.node_setup_start
                0x00028b8c      0x2b4 examples/light_switch/provisioner/CMakeFiles/light_switch_provisioner_nrf52832_xxAA_s132_6.1.1.dir/src/node_setup.c.obj
                0x00028b8c                node_setup_start
 .text.node_setup_cb_set
                0x00028e40       0x28 examples/light_switch/provisioner/CMakeFiles/light_switch_provisioner_nrf52832_xxAA_s132_6.1.1.dir/src/node_setup.c.obj
                0x00028e40                node_setup_cb_set
 .text.timeout_handler
                0x00028e68       0x1c examples/light_switch/provisioner/CMakeFiles/light_switch_provisioner_nrf52832_xxAA_s132_6.1.1.dir/__/__/common/src/rtt_input.c.obj
                0x00028e68                timeout_handler
 .text.rtt_input_enable
                0x00028e84       0x6c examples/light_switch/provisioner/CMakeFiles/light_switch_provisioner_nrf52832_xxAA_s132_6.1.1.dir/__/__/common/src/rtt_input.c.obj
                0x00028e84                rtt_input_enable
 .text.led_timeout_handler
                0x00028ef0       0x54 examples/light_switch/provisioner/CMakeFiles/light_switch_provisioner_nrf52832_xxAA_s132_6.1.1.dir/__/__/common/src/simple_hal.c.obj
 .text.hal_led_pin_set
                0x00028f44       0x18 examples/light_switch/provisioner/CMakeFiles/light_switch_provisioner_nrf52832_xxAA_s132_6.1.1.dir/__/__/common/src/simple_hal.c.obj
                0x00028f44                hal_led_pin_set
 .text.hal_led_mask_set
                0x00028f5c       0x12 examples/light_switch/provisioner/CMakeFiles/light_switch_provisioner_nrf52832_xxAA_s132_6.1.1.dir/__/__/common/src/simple_hal.c.obj
                0x00028f5c                hal_led_mask_set
 *fill*         0x00028f6e        0x2 
 .text.hal_led_blink_ms
                0x00028f70       0x64 examples/light_switch/provisioner/CMakeFiles/light_switch_provisioner_nrf52832_xxAA_s132_6.1.1.dir/__/__/common/src/simple_hal.c.obj
                0x00028f70                hal_led_blink_ms
 .text.hal_leds_init
                0x00028fd4       0x58 examples/light_switch/provisioner/CMakeFiles/light_switch_provisioner_nrf52832_xxAA_s132_6.1.1.dir/__/__/common/src/simple_hal.c.obj
                0x00028fd4                hal_leds_init
 .text.hal_buttons_init
                0x0002902c       0x50 examples/light_switch/provisioner/CMakeFiles/light_switch_provisioner_nrf52832_xxAA_s132_6.1.1.dir/__/__/common/src/simple_hal.c.obj
                0x0002902c                hal_buttons_init
 .text.GPIOTE_IRQHandler
                0x0002907c       0x60 examples/light_switch/provisioner/CMakeFiles/light_switch_provisioner_nrf52832_xxAA_s132_6.1.1.dir/__/__/common/src/simple_hal.c.obj
                0x0002907c                GPIOTE_IRQHandler
 .text.sd_ble_enable
                0x000290dc        0x4 examples/light_switch/provisioner/CMakeFiles/light_switch_provisioner_nrf52832_xxAA_s132_6.1.1.dir/__/__/common/src/ble_softdevice_support.c.obj
 .text.sd_ble_cfg_set
                0x000290e0        0x4 examples/light_switch/provisioner/CMakeFiles/light_switch_provisioner_nrf52832_xxAA_s132_6.1.1.dir/__/__/common/src/ble_softdevice_support.c.obj
 .text.on_sd_evt
                0x000290e4        0x4 examples/light_switch/provisioner/CMakeFiles/light_switch_provisioner_nrf52832_xxAA_s132_6.1.1.dir/__/__/common/src/ble_softdevice_support.c.obj
 .text.ble_stack_init
                0x000290e8       0xd4 examples/light_switch/provisioner/CMakeFiles/light_switch_provisioner_nrf52832_xxAA_s132_6.1.1.dir/__/__/common/src/ble_softdevice_support.c.obj
                0x000290e8                ble_stack_init
 .text.app_util_critical_region_enter
                0x000291bc       0x48 examples/light_switch/provisioner/CMakeFiles/light_switch_provisioner_nrf52832_xxAA_s132_6.1.1.dir/C_/mesh/deps/nRF5_SDK_15.3.0_59ac345/components/libraries/util/app_util_platform.c.obj
                0x000291bc                app_util_critical_region_enter
 .text.app_util_critical_region_exit
                0x00029204       0x2c examples/light_switch/provisioner/CMakeFiles/light_switch_provisioner_nrf52832_xxAA_s132_6.1.1.dir/C_/mesh/deps/nRF5_SDK_15.3.0_59ac345/components/libraries/util/app_util_platform.c.obj
                0x00029204                app_util_critical_region_exit
 .text.nrf_section_iter_init
                0x00029230       0x12 examples/light_switch/provisioner/CMakeFiles/light_switch_provisioner_nrf52832_xxAA_s132_6.1.1.dir/3e86024c1d3236e3a52174ea3a2255f8/components/libraries/experimental_section_vars/nrf_section_iter.c.obj
                0x00029230                nrf_section_iter_init
 .text.nrf_section_iter_next
                0x00029242       0x18 examples/light_switch/provisioner/CMakeFiles/light_switch_provisioner_nrf52832_xxAA_s132_6.1.1.dir/3e86024c1d3236e3a52174ea3a2255f8/components/libraries/experimental_section_vars/nrf_section_iter.c.obj
                0x00029242                nrf_section_iter_next
 .text.sd_evt_get
                0x0002925a        0x4 examples/light_switch/provisioner/CMakeFiles/light_switch_provisioner_nrf52832_xxAA_s132_6.1.1.dir/C_/mesh/deps/nRF5_SDK_15.3.0_59ac345/components/softdevice/common/nrf_sdh_soc.c.obj
 *fill*         0x0002925e        0x2 
 .text.nrf_sdh_soc_evts_poll
                0x00029260       0x3c examples/light_switch/provisioner/CMakeFiles/light_switch_provisioner_nrf52832_xxAA_s132_6.1.1.dir/C_/mesh/deps/nRF5_SDK_15.3.0_59ac345/components/softdevice/common/nrf_sdh_soc.c.obj
 .text.sd_ble_evt_get
                0x0002929c        0x4 examples/light_switch/provisioner/CMakeFiles/light_switch_provisioner_nrf52832_xxAA_s132_6.1.1.dir/C_/mesh/deps/nRF5_SDK_15.3.0_59ac345/components/softdevice/common/nrf_sdh_ble.c.obj
 .text.nrf_sdh_ble_evts_poll
                0x000292a0       0x50 examples/light_switch/provisioner/CMakeFiles/light_switch_provisioner_nrf52832_xxAA_s132_6.1.1.dir/C_/mesh/deps/nRF5_SDK_15.3.0_59ac345/components/softdevice/common/nrf_sdh_ble.c.obj
 .text.sd_softdevice_enable
                0x000292f0        0x4 examples/light_switch/provisioner/CMakeFiles/light_switch_provisioner_nrf52832_xxAA_s132_6.1.1.dir/C_/mesh/deps/nRF5_SDK_15.3.0_59ac345/components/softdevice/common/nrf_sdh.c.obj
 .text.sdh_request_observer_notify
                0x000292f4       0x30 examples/light_switch/provisioner/CMakeFiles/light_switch_provisioner_nrf52832_xxAA_s132_6.1.1.dir/C_/mesh/deps/nRF5_SDK_15.3.0_59ac345/components/softdevice/common/nrf_sdh.c.obj
 .text.sdh_state_observer_notify
                0x00029324       0x28 examples/light_switch/provisioner/CMakeFiles/light_switch_provisioner_nrf52832_xxAA_s132_6.1.1.dir/C_/mesh/deps/nRF5_SDK_15.3.0_59ac345/components/softdevice/common/nrf_sdh.c.obj
 .text.softdevices_evt_irq_enable
                0x0002934c       0x38 examples/light_switch/provisioner/CMakeFiles/light_switch_provisioner_nrf52832_xxAA_s132_6.1.1.dir/C_/mesh/deps/nRF5_SDK_15.3.0_59ac345/components/softdevice/common/nrf_sdh.c.obj
 .text.nrf_sdh_enable_request
                0x00029384       0x78 examples/light_switch/provisioner/CMakeFiles/light_switch_provisioner_nrf52832_xxAA_s132_6.1.1.dir/C_/mesh/deps/nRF5_SDK_15.3.0_59ac345/components/softdevice/common/nrf_sdh.c.obj
                0x00029384                nrf_sdh_enable_request
 .text.nrf_sdh_evts_poll
                0x000293fc       0x28 examples/light_switch/provisioner/CMakeFiles/light_switch_provisioner_nrf52832_xxAA_s132_6.1.1.dir/C_/mesh/deps/nRF5_SDK_15.3.0_59ac345/components/softdevice/common/nrf_sdh.c.obj
                0x000293fc                nrf_sdh_evts_poll
 .text.SWI2_EGU2_IRQHandler
                0x00029424        0x4 examples/light_switch/provisioner/CMakeFiles/light_switch_provisioner_nrf52832_xxAA_s132_6.1.1.dir/C_/mesh/deps/nRF5_SDK_15.3.0_59ac345/components/softdevice/common/nrf_sdh.c.obj
                0x00029424                SWI2_EGU2_IRQHandler
 .text._weak_handler
                0x00029428        0x4 examples/light_switch/provisioner/CMakeFiles/light_switch_provisioner_nrf52832_xxAA_s132_6.1.1.dir/__/__/nrf_mesh_weak.c.obj
                0x00029428                nrf_mesh_dfu_init
                0x00029428                nrf_mesh_dfu_jump_to_bootloader
                0x00029428                nrf_mesh_dfu_rx
                0x00029428                nrf_mesh_dfu_bank_info_get
                0x00029428                nrf_mesh_dfu_request
                0x00029428                nrf_mesh_dfu_bank_flash
                0x00029428                nrf_mesh_dfu_enable
                0x00029428                _weak_handler
                0x00029428                prov_provisionee_auth_data
                0x00029428                nrf_mesh_dfu_relay
                0x00029428                prov_provisionee_shared_secret
                0x00029428                nrf_mesh_dfu_abort
                0x00029428                mesh_flash_op_execute
                0x00029428                prov_provisionee_init
                0x00029428                nrf_mesh_dfu_state_get
                0x00029428                prov_provisionee_listen
 .text.app_error_fault_handler
                0x0002942c      0x200 examples/light_switch/provisioner/CMakeFiles/light_switch_provisioner_nrf52832_xxAA_s132_6.1.1.dir/__/__/common/src/app_error_weak.c.obj
                0x0002942c                app_error_fault_handler
 .text.mesh_assertion_handler
                0x0002962c       0x24 examples/light_switch/provisioner/CMakeFiles/light_switch_provisioner_nrf52832_xxAA_s132_6.1.1.dir/__/__/common/src/assertion_handler_weak.c.obj
                0x0002962c                mesh_assertion_handler
 .text.nrf_mesh_configure_device_uuid_set
                0x00029650       0x10 examples/light_switch/provisioner/CMakeFiles/light_switch_provisioner_nrf52832_xxAA_s132_6.1.1.dir/__/__/__/mesh/core/src/nrf_mesh_configure.c.obj
                0x00029650                nrf_mesh_configure_device_uuid_set
 .text.nrf_mesh_configure_device_uuid_reset
                0x00029660       0x3c examples/light_switch/provisioner/CMakeFiles/light_switch_provisioner_nrf52832_xxAA_s132_6.1.1.dir/__/__/__/mesh/core/src/nrf_mesh_configure.c.obj
                0x00029660                nrf_mesh_configure_device_uuid_reset
 .text.nrf_mesh_configure_device_uuid_get
                0x0002969c        0x8 examples/light_switch/provisioner/CMakeFiles/light_switch_provisioner_nrf52832_xxAA_s132_6.1.1.dir/__/__/__/mesh/core/src/nrf_mesh_configure.c.obj
                0x0002969c                nrf_mesh_configure_device_uuid_get
 .text.msg_cache_init
                0x000296a4       0x24 examples/light_switch/provisioner/CMakeFiles/light_switch_provisioner_nrf52832_xxAA_s132_6.1.1.dir/__/__/__/mesh/core/src/msg_cache.c.obj
                0x000296a4                msg_cache_init
 .text.msg_cache_entry_exists
                0x000296c8       0x3c examples/light_switch/provisioner/CMakeFiles/light_switch_provisioner_nrf52832_xxAA_s132_6.1.1.dir/__/__/__/mesh/core/src/msg_cache.c.obj
                0x000296c8                msg_cache_entry_exists
 .text.msg_cache_entry_add
                0x00029704       0x2c examples/light_switch/provisioner/CMakeFiles/light_switch_provisioner_nrf52832_xxAA_s132_6.1.1.dir/__/__/__/mesh/core/src/msg_cache.c.obj
                0x00029704                msg_cache_entry_add
 .text.seqauth_sequence_number_get
                0x00029730       0x12 examples/light_switch/provisioner/CMakeFiles/light_switch_provisioner_nrf52832_xxAA_s132_6.1.1.dir/__/__/__/mesh/core/src/transport.c.obj
 *fill*         0x00029742        0x2 
 .text.control_packet_callback_get
                0x00029744       0x40 examples/light_switch/provisioner/CMakeFiles/light_switch_provisioner_nrf52832_xxAA_s132_6.1.1.dir/__/__/__/mesh/core/src/transport.c.obj
 .text.tx_complete
                0x00029784       0x2c examples/light_switch/provisioner/CMakeFiles/light_switch_provisioner_nrf52832_xxAA_s132_6.1.1.dir/__/__/__/mesh/core/src/transport.c.obj
 .text.seqauth_get
                0x000297b0       0x24 examples/light_switch/provisioner/CMakeFiles/light_switch_provisioner_nrf52832_xxAA_s132_6.1.1.dir/__/__/__/mesh/core/src/transport.c.obj
 .text.block_ack_full
                0x000297d4       0x1a examples/light_switch/provisioner/CMakeFiles/light_switch_provisioner_nrf52832_xxAA_s132_6.1.1.dir/__/__/__/mesh/core/src/transport.c.obj
 *fill*         0x000297ee        0x2 
 .text.sar_rx_session_mark_as_handled
                0x000297f0       0x5c examples/light_switch/provisioner/CMakeFiles/light_switch_provisioner_nrf52832_xxAA_s132_6.1.1.dir/__/__/__/mesh/core/src/transport.c.obj
 .text.upper_trs_packet_encrypt
                0x0002984c       0x86 examples/light_switch/provisioner/CMakeFiles/light_switch_provisioner_nrf52832_xxAA_s132_6.1.1.dir/__/__/__/mesh/core/src/transport.c.obj
 *fill*         0x000298d2        0x2 
 .text.sar_ctx_alloc
                0x000298d4       0xbc examples/light_switch/provisioner/CMakeFiles/light_switch_provisioner_nrf52832_xxAA_s132_6.1.1.dir/__/__/__/mesh/core/src/transport.c.obj
 .text.sar_ctx_free
                0x00029990       0x3a examples/light_switch/provisioner/CMakeFiles/light_switch_provisioner_nrf52832_xxAA_s132_6.1.1.dir/__/__/__/mesh/core/src/transport.c.obj
 .text.sar_ctx_tx_complete
                0x000299ca       0x2e examples/light_switch/provisioner/CMakeFiles/light_switch_provisioner_nrf52832_xxAA_s132_6.1.1.dir/__/__/__/mesh/core/src/transport.c.obj
 .text.transport_metadata_validate
                0x000299f8       0x54 examples/light_switch/provisioner/CMakeFiles/light_switch_provisioner_nrf52832_xxAA_s132_6.1.1.dir/__/__/__/mesh/core/src/transport.c.obj
 .text.test_transport_decrypt
                0x00029a4c       0x88 examples/light_switch/provisioner/CMakeFiles/light_switch_provisioner_nrf52832_xxAA_s132_6.1.1.dir/__/__/__/mesh/core/src/transport.c.obj
 .text.replay_list_add
                0x00029ad4       0x44 examples/light_switch/provisioner/CMakeFiles/light_switch_provisioner_nrf52832_xxAA_s132_6.1.1.dir/__/__/__/mesh/core/src/transport.c.obj
 .text.upper_transport_access_packet_in
                0x00029b18      0x1a0 examples/light_switch/provisioner/CMakeFiles/light_switch_provisioner_nrf52832_xxAA_s132_6.1.1.dir/__/__/__/mesh/core/src/transport.c.obj
 .text.trs_packet_header_build
                0x00029cb8       0xa4 examples/light_switch/provisioner/CMakeFiles/light_switch_provisioner_nrf52832_xxAA_s132_6.1.1.dir/__/__/__/mesh/core/src/transport.c.obj
 .text.unsegmented_packet_tx
                0x00029d5c       0x82 examples/light_switch/provisioner/CMakeFiles/light_switch_provisioner_nrf52832_xxAA_s132_6.1.1.dir/__/__/__/mesh/core/src/transport.c.obj
 *fill*         0x00029dde        0x2 
 .text.tx_retry_timer_reset
                0x00029de0       0x3c examples/light_switch/provisioner/CMakeFiles/light_switch_provisioner_nrf52832_xxAA_s132_6.1.1.dir/__/__/__/mesh/core/src/transport.c.obj
 .text.sar_ctx_cancel
                0x00029e1c       0xb0 examples/light_switch/provisioner/CMakeFiles/light_switch_provisioner_nrf52832_xxAA_s132_6.1.1.dir/__/__/__/mesh/core/src/transport.c.obj
 .text.abort_timeout
                0x00029ecc        0x8 examples/light_switch/provisioner/CMakeFiles/light_switch_provisioner_nrf52832_xxAA_s132_6.1.1.dir/__/__/__/mesh/core/src/transport.c.obj
 .text.retry_timeout
                0x00029ed4       0x4c examples/light_switch/provisioner/CMakeFiles/light_switch_provisioner_nrf52832_xxAA_s132_6.1.1.dir/__/__/__/mesh/core/src/transport.c.obj
 .text.trs_sar_packet_out
                0x00029f20       0xf4 examples/light_switch/provisioner/CMakeFiles/light_switch_provisioner_nrf52832_xxAA_s132_6.1.1.dir/__/__/__/mesh/core/src/transport.c.obj
 .text.transport_control_packet_in
                0x0002a014      0x1dc examples/light_switch/provisioner/CMakeFiles/light_switch_provisioner_nrf52832_xxAA_s132_6.1.1.dir/__/__/__/mesh/core/src/transport.c.obj
 .text.segmented_packet_tx
                0x0002a1f0      0x140 examples/light_switch/provisioner/CMakeFiles/light_switch_provisioner_nrf52832_xxAA_s132_6.1.1.dir/__/__/__/mesh/core/src/transport.c.obj
 .text.transport_init
                0x0002a330       0x84 examples/light_switch/provisioner/CMakeFiles/light_switch_provisioner_nrf52832_xxAA_s132_6.1.1.dir/__/__/__/mesh/core/src/transport.c.obj
                0x0002a330                transport_init
 .text.transport_enable
                0x0002a3b4        0x4 examples/light_switch/provisioner/CMakeFiles/light_switch_provisioner_nrf52832_xxAA_s132_6.1.1.dir/__/__/__/mesh/core/src/transport.c.obj
                0x0002a3b4                transport_enable
 .text.transport_tx
                0x0002a3b8       0xec examples/light_switch/provisioner/CMakeFiles/light_switch_provisioner_nrf52832_xxAA_s132_6.1.1.dir/__/__/__/mesh/core/src/transport.c.obj
                0x0002a3b8                transport_tx
 .text.transport_control_tx
                0x0002a4a4       0x98 examples/light_switch/provisioner/CMakeFiles/light_switch_provisioner_nrf52832_xxAA_s132_6.1.1.dir/__/__/__/mesh/core/src/transport.c.obj
                0x0002a4a4                transport_control_tx
 .text.sar_ack_send
                0x0002a53c       0xa4 examples/light_switch/provisioner/CMakeFiles/light_switch_provisioner_nrf52832_xxAA_s132_6.1.1.dir/__/__/__/mesh/core/src/transport.c.obj
 .text.ack_timeout
                0x0002a5e0       0x30 examples/light_switch/provisioner/CMakeFiles/light_switch_provisioner_nrf52832_xxAA_s132_6.1.1.dir/__/__/__/mesh/core/src/transport.c.obj
 .text.transport_packet_in
                0x0002a610      0x504 examples/light_switch/provisioner/CMakeFiles/light_switch_provisioner_nrf52832_xxAA_s132_6.1.1.dir/__/__/__/mesh/core/src/transport.c.obj
                0x0002a610                transport_packet_in
 .text.transport_sar_process
                0x0002ab14       0x70 examples/light_switch/provisioner/CMakeFiles/light_switch_provisioner_nrf52832_xxAA_s132_6.1.1.dir/__/__/__/mesh/core/src/transport.c.obj
 .text.transport_control_packet_consumer_add
                0x0002ab84       0x5c examples/light_switch/provisioner/CMakeFiles/light_switch_provisioner_nrf52832_xxAA_s132_6.1.1.dir/__/__/__/mesh/core/src/transport.c.obj
                0x0002ab84                transport_control_packet_consumer_add
 .text.event_handle
                0x0002abe0       0x54 examples/light_switch/provisioner/CMakeFiles/light_switch_provisioner_nrf52832_xxAA_s132_6.1.1.dir/__/__/__/mesh/core/src/event.c.obj
                0x0002abe0                event_handle
 .text.event_handler_add
                0x0002ac34       0x20 examples/light_switch/provisioner/CMakeFiles/light_switch_provisioner_nrf52832_xxAA_s132_6.1.1.dir/__/__/__/mesh/core/src/event.c.obj
                0x0002ac34                event_handler_add
 .text.m_index_increment
                0x0002ac54       0x1e examples/light_switch/provisioner/CMakeFiles/light_switch_provisioner_nrf52832_xxAA_s132_6.1.1.dir/__/__/__/mesh/core/src/packet_buffer.c.obj
 .text.m_get_next_packet
                0x0002ac72       0x1c examples/light_switch/provisioner/CMakeFiles/light_switch_provisioner_nrf52832_xxAA_s132_6.1.1.dir/__/__/__/mesh/core/src/packet_buffer.c.obj
 .text.packet_buffer_init
                0x0002ac8e       0xac examples/light_switch/provisioner/CMakeFiles/light_switch_provisioner_nrf52832_xxAA_s132_6.1.1.dir/__/__/__/mesh/core/src/packet_buffer.c.obj
                0x0002ac8e                packet_buffer_init
 .text.packet_buffer_flush
                0x0002ad3a       0x50 examples/light_switch/provisioner/CMakeFiles/light_switch_provisioner_nrf52832_xxAA_s132_6.1.1.dir/__/__/__/mesh/core/src/packet_buffer.c.obj
                0x0002ad3a                packet_buffer_flush
 .text.packet_buffer_reserve
                0x0002ad8a       0xa2 examples/light_switch/provisioner/CMakeFiles/light_switch_provisioner_nrf52832_xxAA_s132_6.1.1.dir/__/__/__/mesh/core/src/packet_buffer.c.obj
                0x0002ad8a                packet_buffer_reserve
 .text.packet_buffer_commit
                0x0002ae2c       0x62 examples/light_switch/provisioner/CMakeFiles/light_switch_provisioner_nrf52832_xxAA_s132_6.1.1.dir/__/__/__/mesh/core/src/packet_buffer.c.obj
                0x0002ae2c                packet_buffer_commit
 .text.packet_buffer_pop
                0x0002ae8e       0x5a examples/light_switch/provisioner/CMakeFiles/light_switch_provisioner_nrf52832_xxAA_s132_6.1.1.dir/__/__/__/mesh/core/src/packet_buffer.c.obj
                0x0002ae8e                packet_buffer_pop
 .text.packet_buffer_can_pop
                0x0002aee8       0x34 examples/light_switch/provisioner/CMakeFiles/light_switch_provisioner_nrf52832_xxAA_s132_6.1.1.dir/__/__/__/mesh/core/src/packet_buffer.c.obj
                0x0002aee8                packet_buffer_can_pop
 .text.packet_buffer_packets_ready_to_pop
                0x0002af1c       0x36 examples/light_switch/provisioner/CMakeFiles/light_switch_provisioner_nrf52832_xxAA_s132_6.1.1.dir/__/__/__/mesh/core/src/packet_buffer.c.obj
                0x0002af1c                packet_buffer_packets_ready_to_pop
 .text.packet_buffer_free
                0x0002af52       0x74 examples/light_switch/provisioner/CMakeFiles/light_switch_provisioner_nrf52832_xxAA_s132_6.1.1.dir/__/__/__/mesh/core/src/packet_buffer.c.obj
                0x0002af52                packet_buffer_free
 .text.packet_buffer_is_empty
                0x0002afc6       0x28 examples/light_switch/provisioner/CMakeFiles/light_switch_provisioner_nrf52832_xxAA_s132_6.1.1.dir/__/__/__/mesh/core/src/packet_buffer.c.obj
                0x0002afc6                packet_buffer_is_empty
 .text.get_last_page
                0x0002afee       0x14 examples/light_switch/provisioner/CMakeFiles/light_switch_provisioner_nrf52832_xxAA_s132_6.1.1.dir/__/__/__/mesh/core/src/flash_manager_defrag.c.obj
 *fill*         0x0002b002        0x2 
 .text.defrag_on_end
                0x0002b004       0x1c examples/light_switch/provisioner/CMakeFiles/light_switch_provisioner_nrf52832_xxAA_s132_6.1.1.dir/__/__/__/mesh/core/src/flash_manager_defrag.c.obj
 .text.execute_procedure_step
                0x0002b020       0x70 examples/light_switch/provisioner/CMakeFiles/light_switch_provisioner_nrf52832_xxAA_s132_6.1.1.dir/__/__/__/mesh/core/src/flash_manager_defrag.c.obj
 .text.get_next_entry
                0x0002b090       0x34 examples/light_switch/provisioner/CMakeFiles/light_switch_provisioner_nrf52832_xxAA_s132_6.1.1.dir/__/__/__/mesh/core/src/flash_manager_defrag.c.obj
 .text.get_next_data_entry
                0x0002b0c4       0x26 examples/light_switch/provisioner/CMakeFiles/light_switch_provisioner_nrf52832_xxAA_s132_6.1.1.dir/__/__/__/mesh/core/src/flash_manager_defrag.c.obj
 *fill*         0x0002b0ea        0x2 
 .text.on_flash_op_end
                0x0002b0ec       0x30 examples/light_switch/provisioner/CMakeFiles/light_switch_provisioner_nrf52832_xxAA_s132_6.1.1.dir/__/__/__/mesh/core/src/flash_manager_defrag.c.obj
 .text.check_for_invalid_entries
                0x0002b11c       0x38 examples/light_switch/provisioner/CMakeFiles/light_switch_provisioner_nrf52832_xxAA_s132_6.1.1.dir/__/__/__/mesh/core/src/flash_manager_defrag.c.obj
 .text.erase_recovery_area
                0x0002b154       0x34 examples/light_switch/provisioner/CMakeFiles/light_switch_provisioner_nrf52832_xxAA_s132_6.1.1.dir/__/__/__/mesh/core/src/flash_manager_defrag.c.obj
 .text.flash.constprop.6
                0x0002b188       0x24 examples/light_switch/provisioner/CMakeFiles/light_switch_provisioner_nrf52832_xxAA_s132_6.1.1.dir/__/__/__/mesh/core/src/flash_manager_defrag.c.obj
 .text.invalidate_duplicate_entries
                0x0002b1ac       0xa8 examples/light_switch/provisioner/CMakeFiles/light_switch_provisioner_nrf52832_xxAA_s132_6.1.1.dir/__/__/__/mesh/core/src/flash_manager_defrag.c.obj
 .text.seal_storage_page
                0x0002b254       0x50 examples/light_switch/provisioner/CMakeFiles/light_switch_provisioner_nrf52832_xxAA_s132_6.1.1.dir/__/__/__/mesh/core/src/flash_manager_defrag.c.obj
 .text.copy_metadata
                0x0002b2a4       0x3c examples/light_switch/provisioner/CMakeFiles/light_switch_provisioner_nrf52832_xxAA_s132_6.1.1.dir/__/__/__/mesh/core/src/flash_manager_defrag.c.obj
 .text.write_defrag_start_pointer
                0x0002b2e0       0x20 examples/light_switch/provisioner/CMakeFiles/light_switch_provisioner_nrf52832_xxAA_s132_6.1.1.dir/__/__/__/mesh/core/src/flash_manager_defrag.c.obj
 .text.write_back
                0x0002b300       0x28 examples/light_switch/provisioner/CMakeFiles/light_switch_provisioner_nrf52832_xxAA_s132_6.1.1.dir/__/__/__/mesh/core/src/flash_manager_defrag.c.obj
 .text.post_process
                0x0002b328       0x40 examples/light_switch/provisioner/CMakeFiles/light_switch_provisioner_nrf52832_xxAA_s132_6.1.1.dir/__/__/__/mesh/core/src/flash_manager_defrag.c.obj
 .text.backup_entries
                0x0002b368       0xd8 examples/light_switch/provisioner/CMakeFiles/light_switch_provisioner_nrf52832_xxAA_s132_6.1.1.dir/__/__/__/mesh/core/src/flash_manager_defrag.c.obj
 .text.erase_source
                0x0002b440       0x34 examples/light_switch/provisioner/CMakeFiles/light_switch_provisioner_nrf52832_xxAA_s132_6.1.1.dir/__/__/__/mesh/core/src/flash_manager_defrag.c.obj
 .text.flash_manager_defrag_init
                0x0002b474       0x8c examples/light_switch/provisioner/CMakeFiles/light_switch_provisioner_nrf52832_xxAA_s132_6.1.1.dir/__/__/__/mesh/core/src/flash_manager_defrag.c.obj
                0x0002b474                flash_manager_defrag_init
 .text.flash_manager_defragging
                0x0002b500       0x38 examples/light_switch/provisioner/CMakeFiles/light_switch_provisioner_nrf52832_xxAA_s132_6.1.1.dir/__/__/__/mesh/core/src/flash_manager_defrag.c.obj
                0x0002b500                flash_manager_defragging
 .text.flash_manager_defrag_is_running
                0x0002b538       0x10 examples/light_switch/provisioner/CMakeFiles/light_switch_provisioner_nrf52832_xxAA_s132_6.1.1.dir/__/__/__/mesh/core/src/flash_manager_defrag.c.obj
                0x0002b538                flash_manager_defrag_is_running
 .text.flash_manager_defrag
                0x0002b548       0x44 examples/light_switch/provisioner/CMakeFiles/light_switch_provisioner_nrf52832_xxAA_s132_6.1.1.dir/__/__/__/mesh/core/src/flash_manager_defrag.c.obj
                0x0002b548                flash_manager_defrag
 .text.flash_manager_defrag_recovery_page_get
                0x0002b58c        0xc examples/light_switch/provisioner/CMakeFiles/light_switch_provisioner_nrf52832_xxAA_s132_6.1.1.dir/__/__/__/mesh/core/src/flash_manager_defrag.c.obj
                0x0002b58c                flash_manager_defrag_recovery_page_get
 .text.fifo_init
                0x0002b598       0x34 examples/light_switch/provisioner/CMakeFiles/light_switch_provisioner_nrf52832_xxAA_s132_6.1.1.dir/__/__/__/mesh/core/src/fifo.c.obj
                0x0002b598                fifo_init
 .text.fifo_pop
                0x0002b5cc       0x52 examples/light_switch/provisioner/CMakeFiles/light_switch_provisioner_nrf52832_xxAA_s132_6.1.1.dir/__/__/__/mesh/core/src/fifo.c.obj
                0x0002b5cc                fifo_pop
 *fill*         0x0002b61e        0x2 
 .text.wait_for_ready
                0x0002b620       0x10 examples/light_switch/provisioner/CMakeFiles/light_switch_provisioner_nrf52832_xxAA_s132_6.1.1.dir/__/__/__/mesh/core/src/nrf_flash.c.obj
 .text.nrf_flash_erase
                0x0002b630       0x50 examples/light_switch/provisioner/CMakeFiles/light_switch_provisioner_nrf52832_xxAA_s132_6.1.1.dir/__/__/__/mesh/core/src/nrf_flash.c.obj
                0x0002b630                nrf_flash_erase
 .text.nrf_flash_write
                0x0002b680       0x50 examples/light_switch/provisioner/CMakeFiles/light_switch_provisioner_nrf52832_xxAA_s132_6.1.1.dir/__/__/__/mesh/core/src/nrf_flash.c.obj
                0x0002b680                nrf_flash_write
 .text.entry_recover_cb
                0x0002b6d0       0x18 examples/light_switch/provisioner/CMakeFiles/light_switch_provisioner_nrf52832_xxAA_s132_6.1.1.dir/__/__/__/mesh/core/src/net_state.c.obj
 .text.flash_store_iv_index
                0x0002b6e8       0x38 examples/light_switch/provisioner/CMakeFiles/light_switch_provisioner_nrf52832_xxAA_s132_6.1.1.dir/__/__/__/mesh/core/src/net_state.c.obj
 .text.flash_mem_available
                0x0002b720       0x14 examples/light_switch/provisioner/CMakeFiles/light_switch_provisioner_nrf52832_xxAA_s132_6.1.1.dir/__/__/__/mesh/core/src/net_state.c.obj
 .text.iv_index_notify
                0x0002b734       0x30 examples/light_switch/provisioner/CMakeFiles/light_switch_provisioner_nrf52832_xxAA_s132_6.1.1.dir/__/__/__/mesh/core/src/net_state.c.obj
 .text.seqnum_block_allocate
                0x0002b764       0x4c examples/light_switch/provisioner/CMakeFiles/light_switch_provisioner_nrf52832_xxAA_s132_6.1.1.dir/__/__/__/mesh/core/src/net_state.c.obj
 .text.net_state_reset
                0x0002b7b0       0x48 examples/light_switch/provisioner/CMakeFiles/light_switch_provisioner_nrf52832_xxAA_s132_6.1.1.dir/__/__/__/mesh/core/src/net_state.c.obj
                0x0002b7b0                net_state_reset
 .text.flash_write_complete
                0x0002b7f8       0x64 examples/light_switch/provisioner/CMakeFiles/light_switch_provisioner_nrf52832_xxAA_s132_6.1.1.dir/__/__/__/mesh/core/src/net_state.c.obj
 .text.net_state_recover_from_flash
                0x0002b85c       0x60 examples/light_switch/provisioner/CMakeFiles/light_switch_provisioner_nrf52832_xxAA_s132_6.1.1.dir/__/__/__/mesh/core/src/net_state.c.obj
                0x0002b85c                net_state_recover_from_flash
 .text.net_state_flash_area_get
                0x0002b8bc        0xc examples/light_switch/provisioner/CMakeFiles/light_switch_provisioner_nrf52832_xxAA_s132_6.1.1.dir/__/__/__/mesh/core/src/net_state.c.obj
                0x0002b8bc                net_state_flash_area_get
 .text.init_flash_storage
                0x0002b8c8       0x40 examples/light_switch/provisioner/CMakeFiles/light_switch_provisioner_nrf52832_xxAA_s132_6.1.1.dir/__/__/__/mesh/core/src/net_state.c.obj
 .text.net_state_init
                0x0002b908       0x44 examples/light_switch/provisioner/CMakeFiles/light_switch_provisioner_nrf52832_xxAA_s132_6.1.1.dir/__/__/__/mesh/core/src/net_state.c.obj
                0x0002b908                net_state_init
 .text.net_state_enable
                0x0002b94c       0x30 examples/light_switch/provisioner/CMakeFiles/light_switch_provisioner_nrf52832_xxAA_s132_6.1.1.dir/__/__/__/mesh/core/src/net_state.c.obj
                0x0002b94c                net_state_enable
 .text.net_state_iv_update_start
                0x0002b97c       0x50 examples/light_switch/provisioner/CMakeFiles/light_switch_provisioner_nrf52832_xxAA_s132_6.1.1.dir/__/__/__/mesh/core/src/net_state.c.obj
                0x0002b97c                net_state_iv_update_start
 .text.iv_update_trigger_if_pending
                0x0002b9cc       0x6c examples/light_switch/provisioner/CMakeFiles/light_switch_provisioner_nrf52832_xxAA_s132_6.1.1.dir/__/__/__/mesh/core/src/net_state.c.obj
 .text.iv_update_timer_handler
                0x0002ba38       0x64 examples/light_switch/provisioner/CMakeFiles/light_switch_provisioner_nrf52832_xxAA_s132_6.1.1.dir/__/__/__/mesh/core/src/net_state.c.obj
 .text.mesh_evt_handler
                0x0002ba9c       0x8c examples/light_switch/provisioner/CMakeFiles/light_switch_provisioner_nrf52832_xxAA_s132_6.1.1.dir/__/__/__/mesh/core/src/net_state.c.obj
 .text.net_state_seqnum_alloc
                0x0002bb28       0x68 examples/light_switch/provisioner/CMakeFiles/light_switch_provisioner_nrf52832_xxAA_s132_6.1.1.dir/__/__/__/mesh/core/src/net_state.c.obj
                0x0002bb28                net_state_seqnum_alloc
 .text.net_state_iv_index_lock
                0x0002bb90       0x3c examples/light_switch/provisioner/CMakeFiles/light_switch_provisioner_nrf52832_xxAA_s132_6.1.1.dir/__/__/__/mesh/core/src/net_state.c.obj
                0x0002bb90                net_state_iv_index_lock
 .text.net_state_key_refresh_phase_changed
                0x0002bbcc       0x20 examples/light_switch/provisioner/CMakeFiles/light_switch_provisioner_nrf52832_xxAA_s132_6.1.1.dir/__/__/__/mesh/core/src/net_state.c.obj
                0x0002bbcc                net_state_key_refresh_phase_changed
 .text.net_state_beacon_iv_index_get
                0x0002bbec        0xc examples/light_switch/provisioner/CMakeFiles/light_switch_provisioner_nrf52832_xxAA_s132_6.1.1.dir/__/__/__/mesh/core/src/net_state.c.obj
                0x0002bbec                net_state_beacon_iv_index_get
 .text.net_state_tx_iv_index_get
                0x0002bbf8       0x14 examples/light_switch/provisioner/CMakeFiles/light_switch_provisioner_nrf52832_xxAA_s132_6.1.1.dir/__/__/__/mesh/core/src/net_state.c.obj
                0x0002bbf8                net_state_tx_iv_index_get
 .text.net_state_rx_iv_index_get
                0x0002bc0c       0x18 examples/light_switch/provisioner/CMakeFiles/light_switch_provisioner_nrf52832_xxAA_s132_6.1.1.dir/__/__/__/mesh/core/src/net_state.c.obj
                0x0002bc0c                net_state_rx_iv_index_get
 .text.net_state_iv_update_get
                0x0002bc24        0xc examples/light_switch/provisioner/CMakeFiles/light_switch_provisioner_nrf52832_xxAA_s132_6.1.1.dir/__/__/__/mesh/core/src/net_state.c.obj
                0x0002bc24                net_state_iv_update_get
 .text.send_end_events
                0x0002bc30       0x84 examples/light_switch/provisioner/CMakeFiles/light_switch_provisioner_nrf52832_xxAA_s132_6.1.1.dir/__/__/__/mesh/core/src/mesh_flash.c.obj
 .text.flash_op_action_prepare
                0x0002bcb4       0x78 examples/light_switch/provisioner/CMakeFiles/light_switch_provisioner_nrf52832_xxAA_s132_6.1.1.dir/__/__/__/mesh/core/src/mesh_flash.c.obj
 .text.flash_op_schedule
                0x0002bd2c       0x20 examples/light_switch/provisioner/CMakeFiles/light_switch_provisioner_nrf52832_xxAA_s132_6.1.1.dir/__/__/__/mesh/core/src/mesh_flash.c.obj
 .text.flash_op_start
                0x0002bd4c      0x13c examples/light_switch/provisioner/CMakeFiles/light_switch_provisioner_nrf52832_xxAA_s132_6.1.1.dir/__/__/__/mesh/core/src/mesh_flash.c.obj
 .text.mesh_flash_init
                0x0002be88       0x7c examples/light_switch/provisioner/CMakeFiles/light_switch_provisioner_nrf52832_xxAA_s132_6.1.1.dir/__/__/__/mesh/core/src/mesh_flash.c.obj
                0x0002be88                mesh_flash_init
 .text.mesh_flash_user_callback_set
                0x0002bf04       0x20 examples/light_switch/provisioner/CMakeFiles/light_switch_provisioner_nrf52832_xxAA_s132_6.1.1.dir/__/__/__/mesh/core/src/mesh_flash.c.obj
                0x0002bf04                mesh_flash_user_callback_set
 .text.mesh_flash_op_push
                0x0002bf24      0x10c examples/light_switch/provisioner/CMakeFiles/light_switch_provisioner_nrf52832_xxAA_s132_6.1.1.dir/__/__/__/mesh/core/src/mesh_flash.c.obj
                0x0002bf24                mesh_flash_op_push
 .text.mesh_flash_set_suspended
                0x0002c030       0x70 examples/light_switch/provisioner/CMakeFiles/light_switch_provisioner_nrf52832_xxAA_s132_6.1.1.dir/__/__/__/mesh/core/src/mesh_flash.c.obj
                0x0002c030                mesh_flash_set_suspended
 .text.nrf_mesh_address_type_get
                0x0002c0a0       0x10 examples/light_switch/provisioner/CMakeFiles/light_switch_provisioner_nrf52832_xxAA_s132_6.1.1.dir/__/__/__/mesh/core/src/nrf_mesh_utils.c.obj
                0x0002c0a0                nrf_mesh_address_type_get
 .text.sd_softdevice_is_enabled
                0x0002c0b0        0x4 examples/light_switch/provisioner/CMakeFiles/light_switch_provisioner_nrf52832_xxAA_s132_6.1.1.dir/__/__/__/mesh/core/src/nrf_mesh.c.obj
 .text.nrf_mesh_listen
                0x0002c0b4      0x138 examples/light_switch/provisioner/CMakeFiles/light_switch_provisioner_nrf52832_xxAA_s132_6.1.1.dir/__/__/__/mesh/core/src/nrf_mesh.c.obj
 .text.scanner_packet_process_cb
                0x0002c1ec       0x8c examples/light_switch/provisioner/CMakeFiles/light_switch_provisioner_nrf52832_xxAA_s132_6.1.1.dir/__/__/__/mesh/core/src/nrf_mesh.c.obj
 .text.nrf_mesh_init
                0x0002c278       0xe8 examples/light_switch/provisioner/CMakeFiles/light_switch_provisioner_nrf52832_xxAA_s132_6.1.1.dir/__/__/__/mesh/core/src/nrf_mesh.c.obj
                0x0002c278                nrf_mesh_init
 .text.nrf_mesh_enable
                0x0002c360       0xac examples/light_switch/provisioner/CMakeFiles/light_switch_provisioner_nrf52832_xxAA_s132_6.1.1.dir/__/__/__/mesh/core/src/nrf_mesh.c.obj
                0x0002c360                nrf_mesh_enable
 .text.nrf_mesh_packet_send
                0x0002c40c        0x4 examples/light_switch/provisioner/CMakeFiles/light_switch_provisioner_nrf52832_xxAA_s132_6.1.1.dir/__/__/__/mesh/core/src/nrf_mesh.c.obj
                0x0002c40c                nrf_mesh_packet_send
 .text.nrf_mesh_evt_handler_add
                0x0002c410        0x4 examples/light_switch/provisioner/CMakeFiles/light_switch_provisioner_nrf52832_xxAA_s132_6.1.1.dir/__/__/__/mesh/core/src/nrf_mesh.c.obj
                0x0002c410                nrf_mesh_evt_handler_add
 .text.nrf_mesh_on_sd_evt
                0x0002c414        0xa examples/light_switch/provisioner/CMakeFiles/light_switch_provisioner_nrf52832_xxAA_s132_6.1.1.dir/__/__/__/mesh/core/src/nrf_mesh.c.obj
                0x0002c414                nrf_mesh_on_sd_evt
 .text.nrf_mesh_subnet_added
                0x0002c41e        0x2 examples/light_switch/provisioner/CMakeFiles/light_switch_provisioner_nrf52832_xxAA_s132_6.1.1.dir/__/__/__/mesh/core/src/nrf_mesh.c.obj
                0x0002c41e                nrf_mesh_subnet_added
 .text.nrf_mesh_unique_token_get
                0x0002c420       0x18 examples/light_switch/provisioner/CMakeFiles/light_switch_provisioner_nrf52832_xxAA_s132_6.1.1.dir/__/__/__/mesh/core/src/nrf_mesh.c.obj
                0x0002c420                nrf_mesh_unique_token_get
 .text.queue_init
                0x0002c438       0x14 examples/light_switch/provisioner/CMakeFiles/light_switch_provisioner_nrf52832_xxAA_s132_6.1.1.dir/__/__/__/mesh/core/src/queue.c.obj
                0x0002c438                queue_init
 .text.queue_push
                0x0002c44c       0x34 examples/light_switch/provisioner/CMakeFiles/light_switch_provisioner_nrf52832_xxAA_s132_6.1.1.dir/__/__/__/mesh/core/src/queue.c.obj
                0x0002c44c                queue_push
 .text.queue_pop
                0x0002c480       0x26 examples/light_switch/provisioner/CMakeFiles/light_switch_provisioner_nrf52832_xxAA_s132_6.1.1.dir/__/__/__/mesh/core/src/queue.c.obj
                0x0002c480                queue_pop
 .text.queue_peek
                0x0002c4a6       0x10 examples/light_switch/provisioner/CMakeFiles/light_switch_provisioner_nrf52832_xxAA_s132_6.1.1.dir/__/__/__/mesh/core/src/queue.c.obj
                0x0002c4a6                queue_peek
 .text.sd_power_reset_reason_clr
                0x0002c4b6        0x4 examples/light_switch/provisioner/CMakeFiles/light_switch_provisioner_nrf52832_xxAA_s132_6.1.1.dir/__/__/__/mesh/core/src/hal.c.obj
 .text.sd_power_gpregret_set
                0x0002c4ba        0x4 examples/light_switch/provisioner/CMakeFiles/light_switch_provisioner_nrf52832_xxAA_s132_6.1.1.dir/__/__/__/mesh/core/src/hal.c.obj
 .text.sd_power_gpregret_clr
                0x0002c4be        0x4 examples/light_switch/provisioner/CMakeFiles/light_switch_provisioner_nrf52832_xxAA_s132_6.1.1.dir/__/__/__/mesh/core/src/hal.c.obj
 *fill*         0x0002c4c2        0x2 
 .text.hal_device_reset
                0x0002c4c4       0x40 examples/light_switch/provisioner/CMakeFiles/light_switch_provisioner_nrf52832_xxAA_s132_6.1.1.dir/__/__/__/mesh/core/src/hal.c.obj
                0x0002c4c4                hal_device_reset
 .text.hal_lfclk_ppm_get
                0x0002c504       0x14 examples/light_switch/provisioner/CMakeFiles/light_switch_provisioner_nrf52832_xxAA_s132_6.1.1.dir/__/__/__/mesh/core/src/hal.c.obj
                0x0002c504                hal_lfclk_ppm_get
 .text.hal_irq_active_get
                0x0002c518       0x10 examples/light_switch/provisioner/CMakeFiles/light_switch_provisioner_nrf52832_xxAA_s132_6.1.1.dir/__/__/__/mesh/core/src/hal.c.obj
                0x0002c518                hal_irq_active_get
 .text.hal_irq_is_enabled
                0x0002c528       0x28 examples/light_switch/provisioner/CMakeFiles/light_switch_provisioner_nrf52832_xxAA_s132_6.1.1.dir/__/__/__/mesh/core/src/hal.c.obj
                0x0002c528                hal_irq_is_enabled
 .text.sd_ecb_block_encrypt
                0x0002c550        0x4 examples/light_switch/provisioner/CMakeFiles/light_switch_provisioner_nrf52832_xxAA_s132_6.1.1.dir/__/__/__/mesh/core/src/aes_cmac.c.obj
 .text.utils_xor.constprop.1
                0x0002c554       0x20 examples/light_switch/provisioner/CMakeFiles/light_switch_provisioner_nrf52832_xxAA_s132_6.1.1.dir/__/__/__/mesh/core/src/aes_cmac.c.obj
 .text.aes_cmac
                0x0002c574      0x10c examples/light_switch/provisioner/CMakeFiles/light_switch_provisioner_nrf52832_xxAA_s132_6.1.1.dir/__/__/__/mesh/core/src/aes_cmac.c.obj
                0x0002c574                aes_cmac
 .text.add_evt  0x0002c680       0x50 examples/light_switch/provisioner/CMakeFiles/light_switch_provisioner_nrf52832_xxAA_s132_6.1.1.dir/__/__/__/mesh/core/src/timer_scheduler.c.obj
 .text.remove_evt
                0x0002c6d0       0x50 examples/light_switch/provisioner/CMakeFiles/light_switch_provisioner_nrf52832_xxAA_s132_6.1.1.dir/__/__/__/mesh/core/src/timer_scheduler.c.obj
 .text.timer_cb
                0x0002c720        0xc examples/light_switch/provisioner/CMakeFiles/light_switch_provisioner_nrf52832_xxAA_s132_6.1.1.dir/__/__/__/mesh/core/src/timer_scheduler.c.obj
 .text.setup_timeout.isra.0
                0x0002c72c       0x1c examples/light_switch/provisioner/CMakeFiles/light_switch_provisioner_nrf52832_xxAA_s132_6.1.1.dir/__/__/__/mesh/core/src/timer_scheduler.c.obj
 .text.flag_event_cb
                0x0002c748       0xa4 examples/light_switch/provisioner/CMakeFiles/light_switch_provisioner_nrf52832_xxAA_s132_6.1.1.dir/__/__/__/mesh/core/src/timer_scheduler.c.obj
 .text.timer_sch_init
                0x0002c7ec       0x2c examples/light_switch/provisioner/CMakeFiles/light_switch_provisioner_nrf52832_xxAA_s132_6.1.1.dir/__/__/__/mesh/core/src/timer_scheduler.c.obj
                0x0002c7ec                timer_sch_init
 .text.timer_sch_schedule
                0x0002c818       0x44 examples/light_switch/provisioner/CMakeFiles/light_switch_provisioner_nrf52832_xxAA_s132_6.1.1.dir/__/__/__/mesh/core/src/timer_scheduler.c.obj
                0x0002c818                timer_sch_schedule
 .text.timer_sch_abort
                0x0002c85c       0x2e examples/light_switch/provisioner/CMakeFiles/light_switch_provisioner_nrf52832_xxAA_s132_6.1.1.dir/__/__/__/mesh/core/src/timer_scheduler.c.obj
                0x0002c85c                timer_sch_abort
 .text.timer_sch_reschedule
                0x0002c88a       0x38 examples/light_switch/provisioner/CMakeFiles/light_switch_provisioner_nrf52832_xxAA_s132_6.1.1.dir/__/__/__/mesh/core/src/timer_scheduler.c.obj
                0x0002c88a                timer_sch_reschedule
 .text.timer_init
                0x0002c8c2       0x1a examples/light_switch/provisioner/CMakeFiles/light_switch_provisioner_nrf52832_xxAA_s132_6.1.1.dir/__/__/__/mesh/core/src/timer.c.obj
                0x0002c8c2                timer_init
 .text.timer_now
                0x0002c8dc       0x48 examples/light_switch/provisioner/CMakeFiles/light_switch_provisioner_nrf52832_xxAA_s132_6.1.1.dir/__/__/__/mesh/core/src/timer.c.obj
                0x0002c8dc                timer_now
 .text.nrf_mesh_timer_tail_handle
                0x0002c924       0x34 examples/light_switch/provisioner/CMakeFiles/light_switch_provisioner_nrf52832_xxAA_s132_6.1.1.dir/__/__/__/mesh/core/src/timer.c.obj
                0x0002c924                nrf_mesh_timer_tail_handle
 .text.nrf_mesh_timer_ovfw_handle
                0x0002c958       0x98 examples/light_switch/provisioner/CMakeFiles/light_switch_provisioner_nrf52832_xxAA_s132_6.1.1.dir/__/__/__/mesh/core/src/timer.c.obj
                0x0002c958                nrf_mesh_timer_ovfw_handle
 .text.timer_start
                0x0002c9f0       0xac examples/light_switch/provisioner/CMakeFiles/light_switch_provisioner_nrf52832_xxAA_s132_6.1.1.dir/__/__/__/mesh/core/src/timer.c.obj
                0x0002c9f0                timer_start
 .text.timer_stop
                0x0002ca9c       0x30 examples/light_switch/provisioner/CMakeFiles/light_switch_provisioner_nrf52832_xxAA_s132_6.1.1.dir/__/__/__/mesh/core/src/timer.c.obj
                0x0002ca9c                timer_stop
 .text.sd_rand_application_bytes_available_get
                0x0002cacc        0x4 examples/light_switch/provisioner/CMakeFiles/light_switch_provisioner_nrf52832_xxAA_s132_6.1.1.dir/__/__/__/mesh/core/src/rand.c.obj
 .text.sd_rand_application_vector_get
                0x0002cad0        0x4 examples/light_switch/provisioner/CMakeFiles/light_switch_provisioner_nrf52832_xxAA_s132_6.1.1.dir/__/__/__/mesh/core/src/rand.c.obj
 .text.rand_prng_get
                0x0002cad4       0x24 examples/light_switch/provisioner/CMakeFiles/light_switch_provisioner_nrf52832_xxAA_s132_6.1.1.dir/__/__/__/mesh/core/src/rand.c.obj
                0x0002cad4                rand_prng_get
 .text.rand_hw_rng_get
                0x0002caf8       0x44 examples/light_switch/provisioner/CMakeFiles/light_switch_provisioner_nrf52832_xxAA_s132_6.1.1.dir/__/__/__/mesh/core/src/rand.c.obj
                0x0002caf8                rand_hw_rng_get
 .text.rand_prng_seed
                0x0002cb3c       0x34 examples/light_switch/provisioner/CMakeFiles/light_switch_provisioner_nrf52832_xxAA_s132_6.1.1.dir/__/__/__/mesh/core/src/rand.c.obj
                0x0002cb3c                rand_prng_seed
 .text.mesh_opt_init
                0x0002cb70        0x2 examples/light_switch/provisioner/CMakeFiles/light_switch_provisioner_nrf52832_xxAA_s132_6.1.1.dir/__/__/__/mesh/core/src/mesh_opt.c.obj
                0x0002cb70                mesh_opt_init
 .text.sd_radio_session_open
                0x0002cb72        0x4 examples/light_switch/provisioner/CMakeFiles/light_switch_provisioner_nrf52832_xxAA_s132_6.1.1.dir/__/__/__/mesh/core/src/timeslot.c.obj
 .text.sd_radio_session_close
                0x0002cb76        0x4 examples/light_switch/provisioner/CMakeFiles/light_switch_provisioner_nrf52832_xxAA_s132_6.1.1.dir/__/__/__/mesh/core/src/timeslot.c.obj
 .text.sd_radio_request
                0x0002cb7a        0x4 examples/light_switch/provisioner/CMakeFiles/light_switch_provisioner_nrf52832_xxAA_s132_6.1.1.dir/__/__/__/mesh/core/src/timeslot.c.obj
 *fill*         0x0002cb7e        0x2 
 .text.end_timer_handler
                0x0002cb80       0x24 examples/light_switch/provisioner/CMakeFiles/light_switch_provisioner_nrf52832_xxAA_s132_6.1.1.dir/__/__/__/mesh/core/src/timeslot.c.obj
 .text.get_end_time.isra.3
                0x0002cba4       0x20 examples/light_switch/provisioner/CMakeFiles/light_switch_provisioner_nrf52832_xxAA_s132_6.1.1.dir/__/__/__/mesh/core/src/timeslot.c.obj
 .text.on_ts_begin.constprop.9
                0x0002cbc4       0x48 examples/light_switch/provisioner/CMakeFiles/light_switch_provisioner_nrf52832_xxAA_s132_6.1.1.dir/__/__/__/mesh/core/src/timeslot.c.obj
 .text.handle_extend_end.constprop.5
                0x0002cc0c       0x88 examples/light_switch/provisioner/CMakeFiles/light_switch_provisioner_nrf52832_xxAA_s132_6.1.1.dir/__/__/__/mesh/core/src/timeslot.c.obj
 .text.radio_signal_callback
                0x0002cc94      0x12c examples/light_switch/provisioner/CMakeFiles/light_switch_provisioner_nrf52832_xxAA_s132_6.1.1.dir/__/__/__/mesh/core/src/timeslot.c.obj
 .text.timeslot_sd_event_handler
                0x0002cdc0       0x60 examples/light_switch/provisioner/CMakeFiles/light_switch_provisioner_nrf52832_xxAA_s132_6.1.1.dir/__/__/__/mesh/core/src/timeslot.c.obj
                0x0002cdc0                timeslot_sd_event_handler
 .text.timeslot_init
                0x0002ce20       0x50 examples/light_switch/provisioner/CMakeFiles/light_switch_provisioner_nrf52832_xxAA_s132_6.1.1.dir/__/__/__/mesh/core/src/timeslot.c.obj
                0x0002ce20                timeslot_init
 .text.timeslot_start
                0x0002ce70       0x48 examples/light_switch/provisioner/CMakeFiles/light_switch_provisioner_nrf52832_xxAA_s132_6.1.1.dir/__/__/__/mesh/core/src/timeslot.c.obj
                0x0002ce70                timeslot_start
 .text.timeslot_end_is_pending
                0x0002ceb8       0x28 examples/light_switch/provisioner/CMakeFiles/light_switch_provisioner_nrf52832_xxAA_s132_6.1.1.dir/__/__/__/mesh/core/src/timeslot.c.obj
                0x0002ceb8                timeslot_end_is_pending
 .text.timeslot_length_get
                0x0002cee0        0xc examples/light_switch/provisioner/CMakeFiles/light_switch_provisioner_nrf52832_xxAA_s132_6.1.1.dir/__/__/__/mesh/core/src/timeslot.c.obj
                0x0002cee0                timeslot_length_get
 .text.timeslot_remaining_time_get
                0x0002ceec       0x24 examples/light_switch/provisioner/CMakeFiles/light_switch_provisioner_nrf52832_xxAA_s132_6.1.1.dir/__/__/__/mesh/core/src/timeslot.c.obj
                0x0002ceec                timeslot_remaining_time_get
 .text.timeslot_is_in_cb
                0x0002cf10        0xc examples/light_switch/provisioner/CMakeFiles/light_switch_provisioner_nrf52832_xxAA_s132_6.1.1.dir/__/__/__/mesh/core/src/timeslot.c.obj
                0x0002cf10                timeslot_is_in_cb
 .text.timeslot_trigger
                0x0002cf1c       0x24 examples/light_switch/provisioner/CMakeFiles/light_switch_provisioner_nrf52832_xxAA_s132_6.1.1.dir/__/__/__/mesh/core/src/timeslot.c.obj
                0x0002cf1c                timeslot_trigger
 .text.timeslot_stop
                0x0002cf40       0x1c examples/light_switch/provisioner/CMakeFiles/light_switch_provisioner_nrf52832_xxAA_s132_6.1.1.dir/__/__/__/mesh/core/src/timeslot.c.obj
                0x0002cf40                timeslot_stop
 .text.timeslot_restart
                0x0002cf5c       0x24 examples/light_switch/provisioner/CMakeFiles/light_switch_provisioner_nrf52832_xxAA_s132_6.1.1.dir/__/__/__/mesh/core/src/timeslot.c.obj
                0x0002cf5c                timeslot_restart
 .text.timeslot_state_lock
                0x0002cf80       0x24 examples/light_switch/provisioner/CMakeFiles/light_switch_provisioner_nrf52832_xxAA_s132_6.1.1.dir/__/__/__/mesh/core/src/timeslot.c.obj
                0x0002cf80                timeslot_state_lock
 .text.timer_mut_unlock
                0x0002cfa4       0x10 examples/light_switch/provisioner/CMakeFiles/light_switch_provisioner_nrf52832_xxAA_s132_6.1.1.dir/__/__/__/mesh/core/src/timeslot_timer.c.obj
 .text.ts_timer_order_cb
                0x0002cfb4       0x64 examples/light_switch/provisioner/CMakeFiles/light_switch_provisioner_nrf52832_xxAA_s132_6.1.1.dir/__/__/__/mesh/core/src/timeslot_timer.c.obj
                0x0002cfb4                ts_timer_order_cb
 .text.ts_timer_now
                0x0002d018       0x40 examples/light_switch/provisioner/CMakeFiles/light_switch_provisioner_nrf52832_xxAA_s132_6.1.1.dir/__/__/__/mesh/core/src/timeslot_timer.c.obj
                0x0002d018                ts_timer_now
 .text.ts_timer_event_handler
                0x0002d058       0x68 examples/light_switch/provisioner/CMakeFiles/light_switch_provisioner_nrf52832_xxAA_s132_6.1.1.dir/__/__/__/mesh/core/src/timeslot_timer.c.obj
                0x0002d058                ts_timer_event_handler
 .text.ts_timer_to_device_time
                0x0002d0c0        0xc examples/light_switch/provisioner/CMakeFiles/light_switch_provisioner_nrf52832_xxAA_s132_6.1.1.dir/__/__/__/mesh/core/src/timeslot_timer.c.obj
                0x0002d0c0                ts_timer_to_device_time
 .text.ts_timer_on_ts_begin
                0x0002d0cc       0x64 examples/light_switch/provisioner/CMakeFiles/light_switch_provisioner_nrf52832_xxAA_s132_6.1.1.dir/__/__/__/mesh/core/src/timeslot_timer.c.obj
                0x0002d0cc                ts_timer_on_ts_begin
 .text.ts_timer_on_ts_end
                0x0002d130       0x48 examples/light_switch/provisioner/CMakeFiles/light_switch_provisioner_nrf52832_xxAA_s132_6.1.1.dir/__/__/__/mesh/core/src/timeslot_timer.c.obj
                0x0002d130                ts_timer_on_ts_end
 .text.trigger_event_handler
                0x0002d178       0x1c examples/light_switch/provisioner/CMakeFiles/light_switch_provisioner_nrf52832_xxAA_s132_6.1.1.dir/__/__/__/mesh/core/src/bearer_event.c.obj
 .text.bearer_event_init
                0x0002d194       0x58 examples/light_switch/provisioner/CMakeFiles/light_switch_provisioner_nrf52832_xxAA_s132_6.1.1.dir/__/__/__/mesh/core/src/bearer_event.c.obj
                0x0002d194                bearer_event_init
 .text.bearer_event_start
                0x0002d1ec       0x44 examples/light_switch/provisioner/CMakeFiles/light_switch_provisioner_nrf52832_xxAA_s132_6.1.1.dir/__/__/__/mesh/core/src/bearer_event.c.obj
                0x0002d1ec                bearer_event_start
 .text.bearer_event_critical_section_begin
                0x0002d230       0x80 examples/light_switch/provisioner/CMakeFiles/light_switch_provisioner_nrf52832_xxAA_s132_6.1.1.dir/__/__/__/mesh/core/src/bearer_event.c.obj
                0x0002d230                bearer_event_critical_section_begin
 .text.bearer_event_critical_section_end
                0x0002d2b0       0x60 examples/light_switch/provisioner/CMakeFiles/light_switch_provisioner_nrf52832_xxAA_s132_6.1.1.dir/__/__/__/mesh/core/src/bearer_event.c.obj
                0x0002d2b0                bearer_event_critical_section_end
 .text.bearer_event_flag_add
                0x0002d310       0x3c examples/light_switch/provisioner/CMakeFiles/light_switch_provisioner_nrf52832_xxAA_s132_6.1.1.dir/__/__/__/mesh/core/src/bearer_event.c.obj
                0x0002d310                bearer_event_flag_add
 .text.bearer_event_flag_set
                0x0002d34c       0x44 examples/light_switch/provisioner/CMakeFiles/light_switch_provisioner_nrf52832_xxAA_s132_6.1.1.dir/__/__/__/mesh/core/src/bearer_event.c.obj
                0x0002d34c                bearer_event_flag_set
 .text.bearer_event_sequential_add
                0x0002d390       0x2e examples/light_switch/provisioner/CMakeFiles/light_switch_provisioner_nrf52832_xxAA_s132_6.1.1.dir/__/__/__/mesh/core/src/bearer_event.c.obj
                0x0002d390                bearer_event_sequential_add
 *fill*         0x0002d3be        0x2 
 .text.bearer_event_sequential_post
                0x0002d3c0       0x44 examples/light_switch/provisioner/CMakeFiles/light_switch_provisioner_nrf52832_xxAA_s132_6.1.1.dir/__/__/__/mesh/core/src/bearer_event.c.obj
                0x0002d3c0                bearer_event_sequential_post
 .text.bearer_event_sequential_pending
                0x0002d404       0x10 examples/light_switch/provisioner/CMakeFiles/light_switch_provisioner_nrf52832_xxAA_s132_6.1.1.dir/__/__/__/mesh/core/src/bearer_event.c.obj
                0x0002d404                bearer_event_sequential_pending
 .text.bearer_event_handler
                0x0002d414       0xe4 examples/light_switch/provisioner/CMakeFiles/light_switch_provisioner_nrf52832_xxAA_s132_6.1.1.dir/__/__/__/mesh/core/src/bearer_event.c.obj
                0x0002d414                bearer_event_handler
 .text.QDEC_IRQHandler
                0x0002d4f8        0x4 examples/light_switch/provisioner/CMakeFiles/light_switch_provisioner_nrf52832_xxAA_s132_6.1.1.dir/__/__/__/mesh/core/src/bearer_event.c.obj
                0x0002d4f8                QDEC_IRQHandler
 .text.bearer_event_in_correct_irq_priority
                0x0002d4fc       0x74 examples/light_switch/provisioner/CMakeFiles/light_switch_provisioner_nrf52832_xxAA_s132_6.1.1.dir/__/__/__/mesh/core/src/bearer_event.c.obj
                0x0002d4fc                bearer_event_in_correct_irq_priority
 .text.sd_ecb_block_encrypt
                0x0002d570        0x4 examples/light_switch/provisioner/CMakeFiles/light_switch_provisioner_nrf52832_xxAA_s132_6.1.1.dir/__/__/__/mesh/core/src/enc.c.obj
 .text.enc_aes_encrypt
                0x0002d574       0x32 examples/light_switch/provisioner/CMakeFiles/light_switch_provisioner_nrf52832_xxAA_s132_6.1.1.dir/__/__/__/mesh/core/src/enc.c.obj
                0x0002d574                enc_aes_encrypt
 .text.enc_aes_cmac
                0x0002d5a6        0x4 examples/light_switch/provisioner/CMakeFiles/light_switch_provisioner_nrf52832_xxAA_s132_6.1.1.dir/__/__/__/mesh/core/src/enc.c.obj
                0x0002d5a6                enc_aes_cmac
 .text.enc_aes_ccm_encrypt
                0x0002d5aa        0x4 examples/light_switch/provisioner/CMakeFiles/light_switch_provisioner_nrf52832_xxAA_s132_6.1.1.dir/__/__/__/mesh/core/src/enc.c.obj
                0x0002d5aa                enc_aes_ccm_encrypt
 .text.enc_aes_ccm_decrypt
                0x0002d5ae        0x4 examples/light_switch/provisioner/CMakeFiles/light_switch_provisioner_nrf52832_xxAA_s132_6.1.1.dir/__/__/__/mesh/core/src/enc.c.obj
                0x0002d5ae                enc_aes_ccm_decrypt
 .text.enc_nonce_generate
                0x0002d5b2       0xbc examples/light_switch/provisioner/CMakeFiles/light_switch_provisioner_nrf52832_xxAA_s132_6.1.1.dir/__/__/__/mesh/core/src/enc.c.obj
                0x0002d5b2                enc_nonce_generate
 .text.enc_s1   0x0002d66e       0x2c examples/light_switch/provisioner/CMakeFiles/light_switch_provisioner_nrf52832_xxAA_s132_6.1.1.dir/__/__/__/mesh/core/src/enc.c.obj
                0x0002d66e                enc_s1
 .text.enc_k1   0x0002d69a       0x3c examples/light_switch/provisioner/CMakeFiles/light_switch_provisioner_nrf52832_xxAA_s132_6.1.1.dir/__/__/__/mesh/core/src/enc.c.obj
                0x0002d69a                enc_k1
 *fill*         0x0002d6d6        0x2 
 .text.enc_k2   0x0002d6d8       0xc0 examples/light_switch/provisioner/CMakeFiles/light_switch_provisioner_nrf52832_xxAA_s132_6.1.1.dir/__/__/__/mesh/core/src/enc.c.obj
                0x0002d6d8                enc_k2
 .text.enc_k3   0x0002d798       0x5c examples/light_switch/provisioner/CMakeFiles/light_switch_provisioner_nrf52832_xxAA_s132_6.1.1.dir/__/__/__/mesh/core/src/enc.c.obj
                0x0002d798                enc_k3
 .text.enc_k4   0x0002d7f4       0x54 examples/light_switch/provisioner/CMakeFiles/light_switch_provisioner_nrf52832_xxAA_s132_6.1.1.dir/__/__/__/mesh/core/src/enc.c.obj
                0x0002d7f4                enc_k4
 .text.allocate_packet
                0x0002d848       0x6e examples/light_switch/provisioner/CMakeFiles/light_switch_provisioner_nrf52832_xxAA_s132_6.1.1.dir/__/__/__/mesh/core/src/network.c.obj
 *fill*         0x0002d8b6        0x2 
 .text.network_init
                0x0002d8b8       0x24 examples/light_switch/provisioner/CMakeFiles/light_switch_provisioner_nrf52832_xxAA_s132_6.1.1.dir/__/__/__/mesh/core/src/network.c.obj
                0x0002d8b8                network_init
 .text.network_enable
                0x0002d8dc        0xe examples/light_switch/provisioner/CMakeFiles/light_switch_provisioner_nrf52832_xxAA_s132_6.1.1.dir/__/__/__/mesh/core/src/network.c.obj
                0x0002d8dc                network_enable
 .text.network_packet_alloc
                0x0002d8ea       0x42 examples/light_switch/provisioner/CMakeFiles/light_switch_provisioner_nrf52832_xxAA_s132_6.1.1.dir/__/__/__/mesh/core/src/network.c.obj
                0x0002d8ea                network_packet_alloc
 .text.network_packet_send
                0x0002d92c       0xe0 examples/light_switch/provisioner/CMakeFiles/light_switch_provisioner_nrf52832_xxAA_s132_6.1.1.dir/__/__/__/mesh/core/src/network.c.obj
                0x0002d92c                network_packet_send
 .text.network_packet_in
                0x0002da0c      0x2ac examples/light_switch/provisioner/CMakeFiles/light_switch_provisioner_nrf52832_xxAA_s132_6.1.1.dir/__/__/__/mesh/core/src/network.c.obj
                0x0002da0c                network_packet_in
 .text.nonce_type_get
                0x0002dcb8       0x16 examples/light_switch/provisioner/CMakeFiles/light_switch_provisioner_nrf52832_xxAA_s132_6.1.1.dir/__/__/__/mesh/core/src/net_packet.c.obj
 .text.header_transfuscate
                0x0002dcce       0x54 examples/light_switch/provisioner/CMakeFiles/light_switch_provisioner_nrf52832_xxAA_s132_6.1.1.dir/__/__/__/mesh/core/src/net_packet.c.obj
 *fill*         0x0002dd22        0x2 
 .text.try_decrypt
                0x0002dd24      0x18c examples/light_switch/provisioner/CMakeFiles/light_switch_provisioner_nrf52832_xxAA_s132_6.1.1.dir/__/__/__/mesh/core/src/net_packet.c.obj
 .text.net_packet_decrypt
                0x0002deb0       0x94 examples/light_switch/provisioner/CMakeFiles/light_switch_provisioner_nrf52832_xxAA_s132_6.1.1.dir/__/__/__/mesh/core/src/net_packet.c.obj
                0x0002deb0                net_packet_decrypt
 .text.net_packet_encrypt
                0x0002df44       0x7e examples/light_switch/provisioner/CMakeFiles/light_switch_provisioner_nrf52832_xxAA_s132_6.1.1.dir/__/__/__/mesh/core/src/net_packet.c.obj
                0x0002df44                net_packet_encrypt
 .text.net_packet_header_set
                0x0002dfc2       0xaa examples/light_switch/provisioner/CMakeFiles/light_switch_provisioner_nrf52832_xxAA_s132_6.1.1.dir/__/__/__/mesh/core/src/net_packet.c.obj
                0x0002dfc2                net_packet_header_set
 .text.net_packet_payload_len_get
                0x0002e06c       0x10 examples/light_switch/provisioner/CMakeFiles/light_switch_provisioner_nrf52832_xxAA_s132_6.1.1.dir/__/__/__/mesh/core/src/net_packet.c.obj
                0x0002e06c                net_packet_payload_len_get
 .text.net_packet_from_payload
                0x0002e07c        0x4 examples/light_switch/provisioner/CMakeFiles/light_switch_provisioner_nrf52832_xxAA_s132_6.1.1.dir/__/__/__/mesh/core/src/net_packet.c.obj
                0x0002e07c                net_packet_from_payload
 .text.net_packet_obfuscation_start_get
                0x0002e080        0x4 examples/light_switch/provisioner/CMakeFiles/light_switch_provisioner_nrf52832_xxAA_s132_6.1.1.dir/__/__/__/mesh/core/src/net_packet.c.obj
                0x0002e080                net_packet_obfuscation_start_get
 .text.stage_get_available
                0x0002e084       0x24 examples/light_switch/provisioner/CMakeFiles/light_switch_provisioner_nrf52832_xxAA_s132_6.1.1.dir/__/__/__/mesh/core/src/msqueue.c.obj
 .text.msq_get  0x0002e0a8       0x38 examples/light_switch/provisioner/CMakeFiles/light_switch_provisioner_nrf52832_xxAA_s132_6.1.1.dir/__/__/__/mesh/core/src/msqueue.c.obj
                0x0002e0a8                msq_get
 .text.msq_move
                0x0002e0e0       0x2e examples/light_switch/provisioner/CMakeFiles/light_switch_provisioner_nrf52832_xxAA_s132_6.1.1.dir/__/__/__/mesh/core/src/msqueue.c.obj
                0x0002e0e0                msq_move
 .text.msq_reset
                0x0002e10e       0x20 examples/light_switch/provisioner/CMakeFiles/light_switch_provisioner_nrf52832_xxAA_s132_6.1.1.dir/__/__/__/mesh/core/src/msqueue.c.obj
                0x0002e10e                msq_reset
 .text.msq_init
                0x0002e12e       0x48 examples/light_switch/provisioner/CMakeFiles/light_switch_provisioner_nrf52832_xxAA_s132_6.1.1.dir/__/__/__/mesh/core/src/msqueue.c.obj
                0x0002e12e                msq_init
 .text.msq_available
                0x0002e176       0x26 examples/light_switch/provisioner/CMakeFiles/light_switch_provisioner_nrf52832_xxAA_s132_6.1.1.dir/__/__/__/mesh/core/src/msqueue.c.obj
                0x0002e176                msq_available
 .text.nrf_mesh_keygen_aid
                0x0002e19c       0x12 examples/light_switch/provisioner/CMakeFiles/light_switch_provisioner_nrf52832_xxAA_s132_6.1.1.dir/__/__/__/mesh/core/src/nrf_mesh_keygen.c.obj
                0x0002e19c                nrf_mesh_keygen_aid
 .text.nrf_mesh_keygen_network_secmat
                0x0002e1ae       0x20 examples/light_switch/provisioner/CMakeFiles/light_switch_provisioner_nrf52832_xxAA_s132_6.1.1.dir/__/__/__/mesh/core/src/nrf_mesh_keygen.c.obj
                0x0002e1ae                nrf_mesh_keygen_network_secmat
 *fill*         0x0002e1ce        0x2 
 .text.nrf_mesh_keygen_beacon_secmat
                0x0002e1d0       0x50 examples/light_switch/provisioner/CMakeFiles/light_switch_provisioner_nrf52832_xxAA_s132_6.1.1.dir/__/__/__/mesh/core/src/nrf_mesh_keygen.c.obj
                0x0002e1d0                nrf_mesh_keygen_beacon_secmat
 .text.nrf_mesh_keygen_virtual_address
                0x0002e220       0x50 examples/light_switch/provisioner/CMakeFiles/light_switch_provisioner_nrf52832_xxAA_s132_6.1.1.dir/__/__/__/mesh/core/src/nrf_mesh_keygen.c.obj
                0x0002e220                nrf_mesh_keygen_virtual_address
 .text.list_insert
                0x0002e270       0x1c examples/light_switch/provisioner/CMakeFiles/light_switch_provisioner_nrf52832_xxAA_s132_6.1.1.dir/__/__/__/mesh/core/src/list.c.obj
 .text.list_add
                0x0002e28c       0x42 examples/light_switch/provisioner/CMakeFiles/light_switch_provisioner_nrf52832_xxAA_s132_6.1.1.dir/__/__/__/mesh/core/src/list.c.obj
                0x0002e28c                list_add
 .text.list_remove
                0x0002e2ce       0x3a examples/light_switch/provisioner/CMakeFiles/light_switch_provisioner_nrf52832_xxAA_s132_6.1.1.dir/__/__/__/mesh/core/src/list.c.obj
                0x0002e2ce                list_remove
 .text.list_compare_add
                0x0002e308       0x56 examples/light_switch/provisioner/CMakeFiles/light_switch_provisioner_nrf52832_xxAA_s132_6.1.1.dir/__/__/__/mesh/core/src/list.c.obj
                0x0002e308                list_compare_add
 *fill*         0x0002e35e        0x2 
 .text.log_callback_rtt
                0x0002e360       0x2c examples/light_switch/provisioner/CMakeFiles/light_switch_provisioner_nrf52832_xxAA_s132_6.1.1.dir/__/__/__/mesh/core/src/log.c.obj
                0x0002e360                log_callback_rtt
 .text.log_init
                0x0002e38c       0x1c examples/light_switch/provisioner/CMakeFiles/light_switch_provisioner_nrf52832_xxAA_s132_6.1.1.dir/__/__/__/mesh/core/src/log.c.obj
                0x0002e38c                log_init
 .text.log_vprintf
                0x0002e3a8       0x1c examples/light_switch/provisioner/CMakeFiles/light_switch_provisioner_nrf52832_xxAA_s132_6.1.1.dir/__/__/__/mesh/core/src/log.c.obj
                0x0002e3a8                log_vprintf
 .text.log_printf
                0x0002e3c4       0x18 examples/light_switch/provisioner/CMakeFiles/light_switch_provisioner_nrf52832_xxAA_s132_6.1.1.dir/__/__/__/mesh/core/src/log.c.obj
                0x0002e3c4                log_printf
 .text.get_area_end
                0x0002e3dc        0xc examples/light_switch/provisioner/CMakeFiles/light_switch_provisioner_nrf52832_xxAA_s132_6.1.1.dir/__/__/__/mesh/core/src/flash_manager.c.obj
 .text.handle_matches_filter
                0x0002e3e8       0x26 examples/light_switch/provisioner/CMakeFiles/light_switch_provisioner_nrf52832_xxAA_s132_6.1.1.dir/__/__/__/mesh/core/src/flash_manager.c.obj
 .text.flash_area_is_blank
                0x0002e40e       0x2c examples/light_switch/provisioner/CMakeFiles/light_switch_provisioner_nrf52832_xxAA_s132_6.1.1.dir/__/__/__/mesh/core/src/flash_manager.c.obj
 *fill*         0x0002e43a        0x2 
 .text.get_packet_buffer
                0x0002e43c       0x20 examples/light_switch/provisioner/CMakeFiles/light_switch_provisioner_nrf52832_xxAA_s132_6.1.1.dir/__/__/__/mesh/core/src/flash_manager.c.obj
 .text.flash    0x0002e45c       0x1c examples/light_switch/provisioner/CMakeFiles/light_switch_provisioner_nrf52832_xxAA_s132_6.1.1.dir/__/__/__/mesh/core/src/flash_manager.c.obj
 .text.free_packet_buffer
                0x0002e478       0x3c examples/light_switch/provisioner/CMakeFiles/light_switch_provisioner_nrf52832_xxAA_s132_6.1.1.dir/__/__/__/mesh/core/src/flash_manager.c.obj
 .text.iterate_callback_entry_copy
                0x0002e4b4       0x38 examples/light_switch/provisioner/CMakeFiles/light_switch_provisioner_nrf52832_xxAA_s132_6.1.1.dir/__/__/__/mesh/core/src/flash_manager.c.obj
 .text.reserve_action_buffer
                0x0002e4ec       0x24 examples/light_switch/provisioner/CMakeFiles/light_switch_provisioner_nrf52832_xxAA_s132_6.1.1.dir/__/__/__/mesh/core/src/flash_manager.c.obj
 .text.commit_action_buffer
                0x0002e510       0x18 examples/light_switch/provisioner/CMakeFiles/light_switch_provisioner_nrf52832_xxAA_s132_6.1.1.dir/__/__/__/mesh/core/src/flash_manager.c.obj
 .text.schedule_processing
                0x0002e528        0xc examples/light_switch/provisioner/CMakeFiles/light_switch_provisioner_nrf52832_xxAA_s132_6.1.1.dir/__/__/__/mesh/core/src/flash_manager.c.obj
 .text.get_next_entry
                0x0002e534       0x34 examples/light_switch/provisioner/CMakeFiles/light_switch_provisioner_nrf52832_xxAA_s132_6.1.1.dir/__/__/__/mesh/core/src/flash_manager.c.obj
 .text.get_last_entry.isra.1
                0x0002e568       0x30 examples/light_switch/provisioner/CMakeFiles/light_switch_provisioner_nrf52832_xxAA_s132_6.1.1.dir/__/__/__/mesh/core/src/flash_manager.c.obj
 .text.process_action_queue
                0x0002e598      0x3fc examples/light_switch/provisioner/CMakeFiles/light_switch_provisioner_nrf52832_xxAA_s132_6.1.1.dir/__/__/__/mesh/core/src/flash_manager.c.obj
 .text.flash_op_ended_callback
                0x0002e994       0x24 examples/light_switch/provisioner/CMakeFiles/light_switch_provisioner_nrf52832_xxAA_s132_6.1.1.dir/__/__/__/mesh/core/src/flash_manager.c.obj
 .text.flash_manager_init
                0x0002e9b8       0x68 examples/light_switch/provisioner/CMakeFiles/light_switch_provisioner_nrf52832_xxAA_s132_6.1.1.dir/__/__/__/mesh/core/src/flash_manager.c.obj
                0x0002e9b8                flash_manager_init
 .text.flash_manager_remove
                0x0002ea20       0x24 examples/light_switch/provisioner/CMakeFiles/light_switch_provisioner_nrf52832_xxAA_s132_6.1.1.dir/__/__/__/mesh/core/src/flash_manager.c.obj
                0x0002ea20                flash_manager_remove
 .text.flash_manager_entries_read
                0x0002ea44       0xea examples/light_switch/provisioner/CMakeFiles/light_switch_provisioner_nrf52832_xxAA_s132_6.1.1.dir/__/__/__/mesh/core/src/flash_manager.c.obj
                0x0002ea44                flash_manager_entries_read
 *fill*         0x0002eb2e        0x2 
 .text.flash_manager_entry_read
                0x0002eb30       0x50 examples/light_switch/provisioner/CMakeFiles/light_switch_provisioner_nrf52832_xxAA_s132_6.1.1.dir/__/__/__/mesh/core/src/flash_manager.c.obj
                0x0002eb30                flash_manager_entry_read
 .text.flash_manager_entry_count_get
                0x0002eb80       0x1e examples/light_switch/provisioner/CMakeFiles/light_switch_provisioner_nrf52832_xxAA_s132_6.1.1.dir/__/__/__/mesh/core/src/flash_manager.c.obj
                0x0002eb80                flash_manager_entry_count_get
 .text.flash_manager_entry_alloc
                0x0002eb9e       0x5c examples/light_switch/provisioner/CMakeFiles/light_switch_provisioner_nrf52832_xxAA_s132_6.1.1.dir/__/__/__/mesh/core/src/flash_manager.c.obj
                0x0002eb9e                flash_manager_entry_alloc
 *fill*         0x0002ebfa        0x2 
 .text.flash_manager_entry_commit
                0x0002ebfc       0x2c examples/light_switch/provisioner/CMakeFiles/light_switch_provisioner_nrf52832_xxAA_s132_6.1.1.dir/__/__/__/mesh/core/src/flash_manager.c.obj
                0x0002ebfc                flash_manager_entry_commit
 .text.flash_manager_entry_invalidate
                0x0002ec28       0x4e examples/light_switch/provisioner/CMakeFiles/light_switch_provisioner_nrf52832_xxAA_s132_6.1.1.dir/__/__/__/mesh/core/src/flash_manager.c.obj
                0x0002ec28                flash_manager_entry_invalidate
 *fill*         0x0002ec76        0x2 
 .text.flash_manager_add
                0x0002ec78      0x220 examples/light_switch/provisioner/CMakeFiles/light_switch_provisioner_nrf52832_xxAA_s132_6.1.1.dir/__/__/__/mesh/core/src/flash_manager.c.obj
                0x0002ec78                flash_manager_add
 .text.flash_manager_mem_listener_register
                0x0002ee98       0x30 examples/light_switch/provisioner/CMakeFiles/light_switch_provisioner_nrf52832_xxAA_s132_6.1.1.dir/__/__/__/mesh/core/src/flash_manager.c.obj
                0x0002ee98                flash_manager_mem_listener_register
 .text.flash_manager_is_stable
                0x0002eec8       0x20 examples/light_switch/provisioner/CMakeFiles/light_switch_provisioner_nrf52832_xxAA_s132_6.1.1.dir/__/__/__/mesh/core/src/flash_manager.c.obj
                0x0002eec8                flash_manager_is_stable
 .text.flash_manager_on_defrag_end
                0x0002eee8       0x4c examples/light_switch/provisioner/CMakeFiles/light_switch_provisioner_nrf52832_xxAA_s132_6.1.1.dir/__/__/__/mesh/core/src/flash_manager.c.obj
                0x0002eee8                flash_manager_on_defrag_end
 .text.flash_manager_recovery_page_get
                0x0002ef34        0x4 examples/light_switch/provisioner/CMakeFiles/light_switch_provisioner_nrf52832_xxAA_s132_6.1.1.dir/__/__/__/mesh/core/src/flash_manager.c.obj
                0x0002ef34                flash_manager_recovery_page_get
 .text.flash_manager_action_queue_empty_cb_set
                0x0002ef38       0x1c examples/light_switch/provisioner/CMakeFiles/light_switch_provisioner_nrf52832_xxAA_s132_6.1.1.dir/__/__/__/mesh/core/src/flash_manager.c.obj
                0x0002ef38                flash_manager_action_queue_empty_cb_set
 .text.utils_xor
                0x0002ef54       0x14 examples/light_switch/provisioner/CMakeFiles/light_switch_provisioner_nrf52832_xxAA_s132_6.1.1.dir/__/__/__/mesh/core/src/ccm_soft.c.obj
 .text.sd_ecb_block_encrypt
                0x0002ef68        0x4 examples/light_switch/provisioner/CMakeFiles/light_switch_provisioner_nrf52832_xxAA_s132_6.1.1.dir/__/__/__/mesh/core/src/ccm_soft.c.obj
 .text.ccm_soft_crypt
                0x0002ef6c       0x4c examples/light_switch/provisioner/CMakeFiles/light_switch_provisioner_nrf52832_xxAA_s132_6.1.1.dir/__/__/__/mesh/core/src/ccm_soft.c.obj
 .text.ccm_soft_authenticate_blocks
                0x0002efb8       0x6c examples/light_switch/provisioner/CMakeFiles/light_switch_provisioner_nrf52832_xxAA_s132_6.1.1.dir/__/__/__/mesh/core/src/ccm_soft.c.obj
 .text.ccm_soft_authenticate
                0x0002f024       0x94 examples/light_switch/provisioner/CMakeFiles/light_switch_provisioner_nrf52832_xxAA_s132_6.1.1.dir/__/__/__/mesh/core/src/ccm_soft.c.obj
 .text.ccm_soft_encrypt
                0x0002f0b8       0x54 examples/light_switch/provisioner/CMakeFiles/light_switch_provisioner_nrf52832_xxAA_s132_6.1.1.dir/__/__/__/mesh/core/src/ccm_soft.c.obj
                0x0002f0b8                ccm_soft_encrypt
 .text.ccm_soft_decrypt
                0x0002f10c       0x9c examples/light_switch/provisioner/CMakeFiles/light_switch_provisioner_nrf52832_xxAA_s132_6.1.1.dir/__/__/__/mesh/core/src/ccm_soft.c.obj
                0x0002f10c                ccm_soft_decrypt
 .text.iv_index_get.isra.0
                0x0002f1a8       0x34 examples/light_switch/provisioner/CMakeFiles/light_switch_provisioner_nrf52832_xxAA_s132_6.1.1.dir/__/__/__/mesh/core/src/replay_cache.c.obj
 .text.evt_handler
                0x0002f1dc       0x60 examples/light_switch/provisioner/CMakeFiles/light_switch_provisioner_nrf52832_xxAA_s132_6.1.1.dir/__/__/__/mesh/core/src/replay_cache.c.obj
 .text.replay_cache_enable
                0x0002f23c       0x10 examples/light_switch/provisioner/CMakeFiles/light_switch_provisioner_nrf52832_xxAA_s132_6.1.1.dir/__/__/__/mesh/core/src/replay_cache.c.obj
                0x0002f23c                replay_cache_enable
 .text.replay_cache_add
                0x0002f24c       0x78 examples/light_switch/provisioner/CMakeFiles/light_switch_provisioner_nrf52832_xxAA_s132_6.1.1.dir/__/__/__/mesh/core/src/replay_cache.c.obj
                0x0002f24c                replay_cache_add
 .text.replay_cache_has_elem
                0x0002f2c4       0x50 examples/light_switch/provisioner/CMakeFiles/light_switch_provisioner_nrf52832_xxAA_s132_6.1.1.dir/__/__/__/mesh/core/src/replay_cache.c.obj
                0x0002f2c4                replay_cache_has_elem
 .text.replay_cache_clear
                0x0002f314       0x18 examples/light_switch/provisioner/CMakeFiles/light_switch_provisioner_nrf52832_xxAA_s132_6.1.1.dir/__/__/__/mesh/core/src/replay_cache.c.obj
                0x0002f314                replay_cache_clear
 .text.replay_cache_init
                0x0002f32c       0x14 examples/light_switch/provisioner/CMakeFiles/light_switch_provisioner_nrf52832_xxAA_s132_6.1.1.dir/__/__/__/mesh/core/src/replay_cache.c.obj
                0x0002f32c                replay_cache_init
 .text.beacon_create
                0x0002f340       0x46 examples/light_switch/provisioner/CMakeFiles/light_switch_provisioner_nrf52832_xxAA_s132_6.1.1.dir/__/__/__/mesh/core/src/beacon.c.obj
                0x0002f340                beacon_create
 *fill*         0x0002f386        0x2 
 .text.beacon_packet_in
                0x0002f388      0x130 examples/light_switch/provisioner/CMakeFiles/light_switch_provisioner_nrf52832_xxAA_s132_6.1.1.dir/__/__/__/mesh/core/src/beacon.c.obj
                0x0002f388                beacon_packet_in
 .text.entry_get
                0x0002f4b8       0x78 examples/light_switch/provisioner/CMakeFiles/light_switch_provisioner_nrf52832_xxAA_s132_6.1.1.dir/__/__/__/mesh/core/src/flash_manager_internal.c.obj
                0x0002f4b8                entry_get
 .text.core_tx_complete_cb_set
                0x0002f530        0xc examples/light_switch/provisioner/CMakeFiles/light_switch_provisioner_nrf52832_xxAA_s132_6.1.1.dir/__/__/__/mesh/core/src/core_tx.c.obj
                0x0002f530                core_tx_complete_cb_set
 .text.core_tx_packet_alloc
                0x0002f53c       0xac examples/light_switch/provisioner/CMakeFiles/light_switch_provisioner_nrf52832_xxAA_s132_6.1.1.dir/__/__/__/mesh/core/src/core_tx.c.obj
                0x0002f53c                core_tx_packet_alloc
 .text.core_tx_packet_send
                0x0002f5e8       0x4c examples/light_switch/provisioner/CMakeFiles/light_switch_provisioner_nrf52832_xxAA_s132_6.1.1.dir/__/__/__/mesh/core/src/core_tx.c.obj
                0x0002f5e8                core_tx_packet_send
 .text.core_tx_packet_discard
                0x0002f634       0x40 examples/light_switch/provisioner/CMakeFiles/light_switch_provisioner_nrf52832_xxAA_s132_6.1.1.dir/__/__/__/mesh/core/src/core_tx.c.obj
                0x0002f634                core_tx_packet_discard
 .text.core_tx_complete
                0x0002f674       0x34 examples/light_switch/provisioner/CMakeFiles/light_switch_provisioner_nrf52832_xxAA_s132_6.1.1.dir/__/__/__/mesh/core/src/core_tx.c.obj
                0x0002f674                core_tx_complete
 .text.core_tx_bearer_add
                0x0002f6a8       0x74 examples/light_switch/provisioner/CMakeFiles/light_switch_provisioner_nrf52832_xxAA_s132_6.1.1.dir/__/__/__/mesh/core/src/core_tx.c.obj
                0x0002f6a8                core_tx_bearer_add
 .text.hb_pub_deleter
                0x0002f71c       0x28 examples/light_switch/provisioner/CMakeFiles/light_switch_provisioner_nrf52832_xxAA_s132_6.1.1.dir/__/__/__/mesh/core/src/heartbeat.c.obj
 .text.hb_pub_getter
                0x0002f744       0x2c examples/light_switch/provisioner/CMakeFiles/light_switch_provisioner_nrf52832_xxAA_s132_6.1.1.dir/__/__/__/mesh/core/src/heartbeat.c.obj
 .text.hb_pub_setter
                0x0002f770       0xd0 examples/light_switch/provisioner/CMakeFiles/light_switch_provisioner_nrf52832_xxAA_s132_6.1.1.dir/__/__/__/mesh/core/src/heartbeat.c.obj
 .text.heartbeat_subscription_timer_cb
                0x0002f840       0x3c examples/light_switch/provisioner/CMakeFiles/light_switch_provisioner_nrf52832_xxAA_s132_6.1.1.dir/__/__/__/mesh/core/src/heartbeat.c.obj
 .text.heartbeat_opcode_handle
                0x0002f87c       0x88 examples/light_switch/provisioner/CMakeFiles/light_switch_provisioner_nrf52832_xxAA_s132_6.1.1.dir/__/__/__/mesh/core/src/heartbeat.c.obj
 .text.heartbeat_publish
                0x0002f904       0xb8 examples/light_switch/provisioner/CMakeFiles/light_switch_provisioner_nrf52832_xxAA_s132_6.1.1.dir/__/__/__/mesh/core/src/heartbeat.c.obj
 .text.heartbeat_core_evt_cb
                0x0002f9bc       0x18 examples/light_switch/provisioner/CMakeFiles/light_switch_provisioner_nrf52832_xxAA_s132_6.1.1.dir/__/__/__/mesh/core/src/heartbeat.c.obj
 .text.heartbeat_publication_timer_cb
                0x0002f9d4       0x54 examples/light_switch/provisioner/CMakeFiles/light_switch_provisioner_nrf52832_xxAA_s132_6.1.1.dir/__/__/__/mesh/core/src/heartbeat.c.obj
 .text.heartbeat_relay_listener_cb
                0x0002fa28       0x48 examples/light_switch/provisioner/CMakeFiles/light_switch_provisioner_nrf52832_xxAA_s132_6.1.1.dir/__/__/__/mesh/core/src/heartbeat.c.obj
 .text.heartbeat_init
                0x0002fa70       0x58 examples/light_switch/provisioner/CMakeFiles/light_switch_provisioner_nrf52832_xxAA_s132_6.1.1.dir/__/__/__/mesh/core/src/heartbeat.c.obj
                0x0002fa70                heartbeat_init
 .text.heartbeat_subscription_set
                0x0002fac8       0xd0 examples/light_switch/provisioner/CMakeFiles/light_switch_provisioner_nrf52832_xxAA_s132_6.1.1.dir/__/__/__/mesh/core/src/heartbeat.c.obj
                0x0002fac8                heartbeat_subscription_set
 .text.heartbeat_subscription_get
                0x0002fb98        0x8 examples/light_switch/provisioner/CMakeFiles/light_switch_provisioner_nrf52832_xxAA_s132_6.1.1.dir/__/__/__/mesh/core/src/heartbeat.c.obj
                0x0002fb98                heartbeat_subscription_get
 .text.heartbeat_publication_get
                0x0002fba0        0x8 examples/light_switch/provisioner/CMakeFiles/light_switch_provisioner_nrf52832_xxAA_s132_6.1.1.dir/__/__/__/mesh/core/src/heartbeat.c.obj
                0x0002fba0                heartbeat_publication_get
 .text.heartbeat_publication_set
                0x0002fba8       0x18 examples/light_switch/provisioner/CMakeFiles/light_switch_provisioner_nrf52832_xxAA_s132_6.1.1.dir/__/__/__/mesh/core/src/heartbeat.c.obj
                0x0002fba8                heartbeat_publication_set
 .text.heartbeat_public_info_getter_register
                0x0002fbc0       0x14 examples/light_switch/provisioner/CMakeFiles/light_switch_provisioner_nrf52832_xxAA_s132_6.1.1.dir/__/__/__/mesh/core/src/heartbeat.c.obj
                0x0002fbc0                heartbeat_public_info_getter_register
 .text.beacon_deleter
                0x0002fbd4       0x34 examples/light_switch/provisioner/CMakeFiles/light_switch_provisioner_nrf52832_xxAA_s132_6.1.1.dir/__/__/__/mesh/core/src/net_beacon.c.obj
 .text.beacon_getter
                0x0002fc08       0x24 examples/light_switch/provisioner/CMakeFiles/light_switch_provisioner_nrf52832_xxAA_s132_6.1.1.dir/__/__/__/mesh/core/src/net_beacon.c.obj
 .text.beacon_setter
                0x0002fc2c       0x5c examples/light_switch/provisioner/CMakeFiles/light_switch_provisioner_nrf52832_xxAA_s132_6.1.1.dir/__/__/__/mesh/core/src/net_beacon.c.obj
 .text.make_network_beacon_packet
                0x0002fc88       0x50 examples/light_switch/provisioner/CMakeFiles/light_switch_provisioner_nrf52832_xxAA_s132_6.1.1.dir/__/__/__/mesh/core/src/net_beacon.c.obj
 .text.beacon_tx
                0x0002fcd8      0x188 examples/light_switch/provisioner/CMakeFiles/light_switch_provisioner_nrf52832_xxAA_s132_6.1.1.dir/__/__/__/mesh/core/src/net_beacon.c.obj
 .text.tx_complete_cb
                0x0002fe60        0xe examples/light_switch/provisioner/CMakeFiles/light_switch_provisioner_nrf52832_xxAA_s132_6.1.1.dir/__/__/__/mesh/core/src/net_beacon.c.obj
 .text.beacon_tx_timeout
                0x0002fe6e        0x4 examples/light_switch/provisioner/CMakeFiles/light_switch_provisioner_nrf52832_xxAA_s132_6.1.1.dir/__/__/__/mesh/core/src/net_beacon.c.obj
 .text.is_valid_beacon_pkt.part.1
                0x0002fe72       0x30 examples/light_switch/provisioner/CMakeFiles/light_switch_provisioner_nrf52832_xxAA_s132_6.1.1.dir/__/__/__/mesh/core/src/net_beacon.c.obj
 *fill*         0x0002fea2        0x2 
 .text.net_beacon_init
                0x0002fea4       0x7c examples/light_switch/provisioner/CMakeFiles/light_switch_provisioner_nrf52832_xxAA_s132_6.1.1.dir/__/__/__/mesh/core/src/net_beacon.c.obj
                0x0002fea4                net_beacon_init
 .text.net_beacon_enable
                0x0002ff20       0x28 examples/light_switch/provisioner/CMakeFiles/light_switch_provisioner_nrf52832_xxAA_s132_6.1.1.dir/__/__/__/mesh/core/src/net_beacon.c.obj
                0x0002ff20                net_beacon_enable
 .text.net_beacon_state_set
                0x0002ff48       0x20 examples/light_switch/provisioner/CMakeFiles/light_switch_provisioner_nrf52832_xxAA_s132_6.1.1.dir/__/__/__/mesh/core/src/net_beacon.c.obj
                0x0002ff48                net_beacon_state_set
 .text.net_beacon_state_get
                0x0002ff68       0x24 examples/light_switch/provisioner/CMakeFiles/light_switch_provisioner_nrf52832_xxAA_s132_6.1.1.dir/__/__/__/mesh/core/src/net_beacon.c.obj
                0x0002ff68                net_beacon_state_get
 .text.net_beacon_packet_in
                0x0002ff8c      0x16c examples/light_switch/provisioner/CMakeFiles/light_switch_provisioner_nrf52832_xxAA_s132_6.1.1.dir/__/__/__/mesh/core/src/net_beacon.c.obj
                0x0002ff8c                net_beacon_packet_in
 .text.listeners_notify
                0x000300f8       0x4c examples/light_switch/provisioner/CMakeFiles/light_switch_provisioner_nrf52832_xxAA_s132_6.1.1.dir/__/__/__/mesh/core/src/mesh_config.c.obj
 .text.entry_flags_get.isra.0
                0x00030144       0x1c examples/light_switch/provisioner/CMakeFiles/light_switch_provisioner_nrf52832_xxAA_s132_6.1.1.dir/__/__/__/mesh/core/src/mesh_config.c.obj
 .text.entry_params_find
                0x00030160       0x38 examples/light_switch/provisioner/CMakeFiles/light_switch_provisioner_nrf52832_xxAA_s132_6.1.1.dir/__/__/__/mesh/core/src/mesh_config.c.obj
 .text.restore_callback
                0x00030198       0x66 examples/light_switch/provisioner/CMakeFiles/light_switch_provisioner_nrf52832_xxAA_s132_6.1.1.dir/__/__/__/mesh/core/src/mesh_config.c.obj
 *fill*         0x000301fe        0x2 
 .text.dirty_entries_process
                0x00030200       0xdc examples/light_switch/provisioner/CMakeFiles/light_switch_provisioner_nrf52832_xxAA_s132_6.1.1.dir/__/__/__/mesh/core/src/mesh_config.c.obj
 .text.mesh_config_init
                0x000302dc       0xa0 examples/light_switch/provisioner/CMakeFiles/light_switch_provisioner_nrf52832_xxAA_s132_6.1.1.dir/__/__/__/mesh/core/src/mesh_config.c.obj
                0x000302dc                mesh_config_init
 .text.mesh_config_load
                0x0003037c        0xc examples/light_switch/provisioner/CMakeFiles/light_switch_provisioner_nrf52832_xxAA_s132_6.1.1.dir/__/__/__/mesh/core/src/mesh_config.c.obj
                0x0003037c                mesh_config_load
 .text.mesh_config_is_busy
                0x00030388       0x34 examples/light_switch/provisioner/CMakeFiles/light_switch_provisioner_nrf52832_xxAA_s132_6.1.1.dir/__/__/__/mesh/core/src/mesh_config.c.obj
                0x00030388                mesh_config_is_busy
 .text.backend_evt_handler
                0x000303bc       0x88 examples/light_switch/provisioner/CMakeFiles/light_switch_provisioner_nrf52832_xxAA_s132_6.1.1.dir/__/__/__/mesh/core/src/mesh_config.c.obj
 .text.mesh_config_entry_set
                0x00030444       0x80 examples/light_switch/provisioner/CMakeFiles/light_switch_provisioner_nrf52832_xxAA_s132_6.1.1.dir/__/__/__/mesh/core/src/mesh_config.c.obj
                0x00030444                mesh_config_entry_set
 .text.mesh_config_entry_get
                0x000304c4       0x3c examples/light_switch/provisioner/CMakeFiles/light_switch_provisioner_nrf52832_xxAA_s132_6.1.1.dir/__/__/__/mesh/core/src/mesh_config.c.obj
                0x000304c4                mesh_config_entry_get
 .text.mesh_config_entry_delete
                0x00030500       0x4a examples/light_switch/provisioner/CMakeFiles/light_switch_provisioner_nrf52832_xxAA_s132_6.1.1.dir/__/__/__/mesh/core/src/mesh_config.c.obj
                0x00030500                mesh_config_entry_delete
 *fill*         0x0003054a        0x2 
 .text.mesh_config_clear
                0x0003054c       0x4c examples/light_switch/provisioner/CMakeFiles/light_switch_provisioner_nrf52832_xxAA_s132_6.1.1.dir/__/__/__/mesh/core/src/mesh_config.c.obj
                0x0003054c                mesh_config_clear
 .text.dummy_event
                0x00030598        0x2 examples/light_switch/provisioner/CMakeFiles/light_switch_provisioner_nrf52832_xxAA_s132_6.1.1.dir/__/__/__/mesh/core/src/mesh_config_backend.c.obj
 *fill*         0x0003059a        0x2 
 .text.file_get
                0x0003059c       0x34 examples/light_switch/provisioner/CMakeFiles/light_switch_provisioner_nrf52832_xxAA_s132_6.1.1.dir/__/__/__/mesh/core/src/mesh_config_backend.c.obj
 .text.mesh_config_backend_init
                0x000305d0      0x11c examples/light_switch/provisioner/CMakeFiles/light_switch_provisioner_nrf52832_xxAA_s132_6.1.1.dir/__/__/__/mesh/core/src/mesh_config_backend.c.obj
                0x000305d0                mesh_config_backend_init
 .text.mesh_config_backend_store
                0x000306ec       0x4e examples/light_switch/provisioner/CMakeFiles/light_switch_provisioner_nrf52832_xxAA_s132_6.1.1.dir/__/__/__/mesh/core/src/mesh_config_backend.c.obj
                0x000306ec                mesh_config_backend_store
 .text.mesh_config_backend_erase
                0x0003073a       0x34 examples/light_switch/provisioner/CMakeFiles/light_switch_provisioner_nrf52832_xxAA_s132_6.1.1.dir/__/__/__/mesh/core/src/mesh_config_backend.c.obj
                0x0003073a                mesh_config_backend_erase
 *fill*         0x0003076e        0x2 
 .text.mesh_config_backend_read_all
                0x00030770       0x38 examples/light_switch/provisioner/CMakeFiles/light_switch_provisioner_nrf52832_xxAA_s132_6.1.1.dir/__/__/__/mesh/core/src/mesh_config_backend.c.obj
                0x00030770                mesh_config_backend_read_all
 .text.entry_read_cb
                0x000307a8       0x38 examples/light_switch/provisioner/CMakeFiles/light_switch_provisioner_nrf52832_xxAA_s132_6.1.1.dir/__/__/__/mesh/core/src/mesh_config_flashman_glue.c.obj
 .text.write_complete_cb
                0x000307e0       0x30 examples/light_switch/provisioner/CMakeFiles/light_switch_provisioner_nrf52832_xxAA_s132_6.1.1.dir/__/__/__/mesh/core/src/mesh_config_flashman_glue.c.obj
 .text.invalidate_complete_cb
                0x00030810       0x2c examples/light_switch/provisioner/CMakeFiles/light_switch_provisioner_nrf52832_xxAA_s132_6.1.1.dir/__/__/__/mesh/core/src/mesh_config_flashman_glue.c.obj
 .text.remove_complete_cb
                0x0003083c        0x2 examples/light_switch/provisioner/CMakeFiles/light_switch_provisioner_nrf52832_xxAA_s132_6.1.1.dir/__/__/__/mesh/core/src/mesh_config_flashman_glue.c.obj
 .text.flash_stable_cb
                0x0003083e       0x20 examples/light_switch/provisioner/CMakeFiles/light_switch_provisioner_nrf52832_xxAA_s132_6.1.1.dir/__/__/__/mesh/core/src/mesh_config_flashman_glue.c.obj
 *fill*         0x0003085e        0x2 
 .text.mesh_config_backend_glue_init
                0x00030860       0x28 examples/light_switch/provisioner/CMakeFiles/light_switch_provisioner_nrf52832_xxAA_s132_6.1.1.dir/__/__/__/mesh/core/src/mesh_config_flashman_glue.c.obj
                0x00030860                mesh_config_backend_glue_init
 .text.mesh_config_backend_file_create
                0x00030888       0x58 examples/light_switch/provisioner/CMakeFiles/light_switch_provisioner_nrf52832_xxAA_s132_6.1.1.dir/__/__/__/mesh/core/src/mesh_config_flashman_glue.c.obj
                0x00030888                mesh_config_backend_file_create
 .text.mesh_config_backend_record_write
                0x000308e0       0x2c examples/light_switch/provisioner/CMakeFiles/light_switch_provisioner_nrf52832_xxAA_s132_6.1.1.dir/__/__/__/mesh/core/src/mesh_config_flashman_glue.c.obj
                0x000308e0                mesh_config_backend_record_write
 .text.mesh_config_backend_record_erase
                0x0003090c       0x30 examples/light_switch/provisioner/CMakeFiles/light_switch_provisioner_nrf52832_xxAA_s132_6.1.1.dir/__/__/__/mesh/core/src/mesh_config_flashman_glue.c.obj
                0x0003090c                mesh_config_backend_record_erase
 .text.mesh_config_backend_records_read
                0x0003093c       0x30 examples/light_switch/provisioner/CMakeFiles/light_switch_provisioner_nrf52832_xxAA_s132_6.1.1.dir/__/__/__/mesh/core/src/mesh_config_flashman_glue.c.obj
                0x0003093c                mesh_config_backend_records_read
 .text.mesh_config_record_size_calculate
                0x0003096c        0xa examples/light_switch/provisioner/CMakeFiles/light_switch_provisioner_nrf52832_xxAA_s132_6.1.1.dir/__/__/__/mesh/core/src/mesh_config_flashman_glue.c.obj
                0x0003096c                mesh_config_record_size_calculate
 *fill*         0x00030976        0x2 
 .text.mesh_config_backend_flash_usage_get
                0x00030978       0x24 examples/light_switch/provisioner/CMakeFiles/light_switch_provisioner_nrf52832_xxAA_s132_6.1.1.dir/__/__/__/mesh/core/src/mesh_config_flashman_glue.c.obj
                0x00030978                mesh_config_backend_flash_usage_get
 .text.mesh_config_backend_file_power_down_time_get
                0x0003099c       0x26 examples/light_switch/provisioner/CMakeFiles/light_switch_provisioner_nrf52832_xxAA_s132_6.1.1.dir/__/__/__/mesh/core/src/mesh_config_flashman_glue.c.obj
                0x0003099c                mesh_config_backend_file_power_down_time_get
 *fill*         0x000309c2        0x2 
 .text.packet_discard
                0x000309c4       0x30 examples/light_switch/provisioner/CMakeFiles/light_switch_provisioner_nrf52832_xxAA_s132_6.1.1.dir/__/__/__/mesh/core/src/core_tx_local.c.obj
 .text.packet_send
                0x000309f4       0x58 examples/light_switch/provisioner/CMakeFiles/light_switch_provisioner_nrf52832_xxAA_s132_6.1.1.dir/__/__/__/mesh/core/src/core_tx_local.c.obj
 .text.loopback_process
                0x00030a4c       0x64 examples/light_switch/provisioner/CMakeFiles/light_switch_provisioner_nrf52832_xxAA_s132_6.1.1.dir/__/__/__/mesh/core/src/core_tx_local.c.obj
 .text.packet_alloc
                0x00030ab0       0x48 examples/light_switch/provisioner/CMakeFiles/light_switch_provisioner_nrf52832_xxAA_s132_6.1.1.dir/__/__/__/mesh/core/src/core_tx_local.c.obj
 .text.core_tx_local_init
                0x00030af8       0x34 examples/light_switch/provisioner/CMakeFiles/light_switch_provisioner_nrf52832_xxAA_s132_6.1.1.dir/__/__/__/mesh/core/src/core_tx_local.c.obj
                0x00030af8                core_tx_local_init
 .text.core_tx_adv_get
                0x00030b2c       0x3c examples/light_switch/provisioner/CMakeFiles/light_switch_provisioner_nrf52832_xxAA_s132_6.1.1.dir/__/__/__/mesh/core/src/core_tx_adv.c.obj
 .text.core_tx_tx_power_get
                0x00030b68       0x30 examples/light_switch/provisioner/CMakeFiles/light_switch_provisioner_nrf52832_xxAA_s132_6.1.1.dir/__/__/__/mesh/core/src/core_tx_adv.c.obj
 .text.core_tx_adv_delete
                0x00030b98       0x50 examples/light_switch/provisioner/CMakeFiles/light_switch_provisioner_nrf52832_xxAA_s132_6.1.1.dir/__/__/__/mesh/core/src/core_tx_adv.c.obj
 .text.core_tx_adv_set
                0x00030be8       0x6c examples/light_switch/provisioner/CMakeFiles/light_switch_provisioner_nrf52832_xxAA_s132_6.1.1.dir/__/__/__/mesh/core/src/core_tx_adv.c.obj
 .text.core_tx_tx_power_delete
                0x00030c54       0x30 examples/light_switch/provisioner/CMakeFiles/light_switch_provisioner_nrf52832_xxAA_s132_6.1.1.dir/__/__/__/mesh/core/src/core_tx_adv.c.obj
 .text.core_tx_tx_power_set
                0x00030c84       0x34 examples/light_switch/provisioner/CMakeFiles/light_switch_provisioner_nrf52832_xxAA_s132_6.1.1.dir/__/__/__/mesh/core/src/core_tx_adv.c.obj
 .text.core_tx_adv_addr_delete
                0x00030cb8       0x34 examples/light_switch/provisioner/CMakeFiles/light_switch_provisioner_nrf52832_xxAA_s132_6.1.1.dir/__/__/__/mesh/core/src/core_tx_adv.c.obj
 .text.core_tx_adv_addr_set
                0x00030cec       0x40 examples/light_switch/provisioner/CMakeFiles/light_switch_provisioner_nrf52832_xxAA_s132_6.1.1.dir/__/__/__/mesh/core/src/core_tx_adv.c.obj
 .text.core_tx_adv_addr_get
                0x00030d2c       0x34 examples/light_switch/provisioner/CMakeFiles/light_switch_provisioner_nrf52832_xxAA_s132_6.1.1.dir/__/__/__/mesh/core/src/core_tx_adv.c.obj
 .text.packet_discard
                0x00030d60       0x40 examples/light_switch/provisioner/CMakeFiles/light_switch_provisioner_nrf52832_xxAA_s132_6.1.1.dir/__/__/__/mesh/core/src/core_tx_adv.c.obj
 .text.packet_send
                0x00030da0       0x58 examples/light_switch/provisioner/CMakeFiles/light_switch_provisioner_nrf52832_xxAA_s132_6.1.1.dir/__/__/__/mesh/core/src/core_tx_adv.c.obj
 .text.packet_alloc
                0x00030df8       0x58 examples/light_switch/provisioner/CMakeFiles/light_switch_provisioner_nrf52832_xxAA_s132_6.1.1.dir/__/__/__/mesh/core/src/core_tx_adv.c.obj
 .text.adv_tx_complete_callback
                0x00030e50       0x20 examples/light_switch/provisioner/CMakeFiles/light_switch_provisioner_nrf52832_xxAA_s132_6.1.1.dir/__/__/__/mesh/core/src/core_tx_adv.c.obj
 .text.mesh_opt_core_adv_set
                0x00030e70       0x22 examples/light_switch/provisioner/CMakeFiles/light_switch_provisioner_nrf52832_xxAA_s132_6.1.1.dir/__/__/__/mesh/core/src/core_tx_adv.c.obj
                0x00030e70                mesh_opt_core_adv_set
 .text.mesh_opt_core_adv_get
                0x00030e92       0x22 examples/light_switch/provisioner/CMakeFiles/light_switch_provisioner_nrf52832_xxAA_s132_6.1.1.dir/__/__/__/mesh/core/src/core_tx_adv.c.obj
                0x00030e92                mesh_opt_core_adv_get
 .text.core_tx_adv_init
                0x00030eb4       0x60 examples/light_switch/provisioner/CMakeFiles/light_switch_provisioner_nrf52832_xxAA_s132_6.1.1.dir/__/__/__/mesh/core/src/core_tx_adv.c.obj
                0x00030eb4                core_tx_adv_init
 .text.core_tx_adv_is_enabled
                0x00030f14       0x20 examples/light_switch/provisioner/CMakeFiles/light_switch_provisioner_nrf52832_xxAA_s132_6.1.1.dir/__/__/__/mesh/core/src/core_tx_adv.c.obj
                0x00030f14                core_tx_adv_is_enabled
 .text.mesh_mem_init
                0x00030f34        0x2 examples/light_switch/provisioner/CMakeFiles/light_switch_provisioner_nrf52832_xxAA_s132_6.1.1.dir/__/__/__/mesh/core/src/mesh_mem_stdlib.c.obj
                0x00030f34                mesh_mem_init
 .text.mesh_mem_alloc
                0x00030f36        0x4 examples/light_switch/provisioner/CMakeFiles/light_switch_provisioner_nrf52832_xxAA_s132_6.1.1.dir/__/__/__/mesh/core/src/mesh_mem_stdlib.c.obj
                0x00030f36                mesh_mem_alloc
 .text.mesh_mem_free
                0x00030f3a        0x4 examples/light_switch/provisioner/CMakeFiles/light_switch_provisioner_nrf52832_xxAA_s132_6.1.1.dir/__/__/__/mesh/core/src/mesh_mem_stdlib.c.obj
                0x00030f3a                mesh_mem_free
 *fill*         0x00030f3e        0x2 
 .text.ad_listener_subscribe
                0x00030f40       0x5c examples/light_switch/provisioner/CMakeFiles/light_switch_provisioner_nrf52832_xxAA_s132_6.1.1.dir/__/__/__/mesh/bearer/src/ad_listener.c.obj
                0x00030f40                ad_listener_subscribe
 .text.ad_listener_process
                0x00030f9c       0x68 examples/light_switch/provisioner/CMakeFiles/light_switch_provisioner_nrf52832_xxAA_s132_6.1.1.dir/__/__/__/mesh/bearer/src/ad_listener.c.obj
                0x00030f9c                ad_listener_process
 .text.adtype_filter_handle
                0x00031004       0x64 examples/light_switch/provisioner/CMakeFiles/light_switch_provisioner_nrf52832_xxAA_s132_6.1.1.dir/__/__/__/mesh/bearer/src/ad_type_filter.c.obj
 .text.bearer_adtype_filtering_set
                0x00031068       0x20 examples/light_switch/provisioner/CMakeFiles/light_switch_provisioner_nrf52832_xxAA_s132_6.1.1.dir/__/__/__/mesh/bearer/src/ad_type_filter.c.obj
                0x00031068                bearer_adtype_filtering_set
 .text.bearer_adtype_add
                0x00031088       0x20 examples/light_switch/provisioner/CMakeFiles/light_switch_provisioner_nrf52832_xxAA_s132_6.1.1.dir/__/__/__/mesh/bearer/src/ad_type_filter.c.obj
                0x00031088                bearer_adtype_add
 .text.bearer_adtype_mode_set
                0x000310a8       0x18 examples/light_switch/provisioner/CMakeFiles/light_switch_provisioner_nrf52832_xxAA_s132_6.1.1.dir/__/__/__/mesh/bearer/src/ad_type_filter.c.obj
                0x000310a8                bearer_adtype_mode_set
 .text.tx_complete_event_callback
                0x000310c0       0x24 examples/light_switch/provisioner/CMakeFiles/light_switch_provisioner_nrf52832_xxAA_s132_6.1.1.dir/__/__/__/mesh/bearer/src/advertiser.c.obj
 .text.set_gap_addr_type
                0x000310e4       0x26 examples/light_switch/provisioner/CMakeFiles/light_switch_provisioner_nrf52832_xxAA_s132_6.1.1.dir/__/__/__/mesh/bearer/src/advertiser.c.obj
 .text.broadcast_complete_cb
                0x0003110a       0x46 examples/light_switch/provisioner/CMakeFiles/light_switch_provisioner_nrf52832_xxAA_s132_6.1.1.dir/__/__/__/mesh/bearer/src/advertiser.c.obj
 .text.schedule_first_time
                0x00031150       0x28 examples/light_switch/provisioner/CMakeFiles/light_switch_provisioner_nrf52832_xxAA_s132_6.1.1.dir/__/__/__/mesh/bearer/src/advertiser.c.obj
 .text.timeout_event
                0x00031178      0x114 examples/light_switch/provisioner/CMakeFiles/light_switch_provisioner_nrf52832_xxAA_s132_6.1.1.dir/__/__/__/mesh/bearer/src/advertiser.c.obj
 .text.advertiser_init
                0x0003128c        0xc examples/light_switch/provisioner/CMakeFiles/light_switch_provisioner_nrf52832_xxAA_s132_6.1.1.dir/__/__/__/mesh/bearer/src/advertiser.c.obj
                0x0003128c                advertiser_init
 .text.advertiser_enable
                0x00031298       0x2a examples/light_switch/provisioner/CMakeFiles/light_switch_provisioner_nrf52832_xxAA_s132_6.1.1.dir/__/__/__/mesh/bearer/src/advertiser.c.obj
                0x00031298                advertiser_enable
 .text.advertiser_disable
                0x000312c2        0xa examples/light_switch/provisioner/CMakeFiles/light_switch_provisioner_nrf52832_xxAA_s132_6.1.1.dir/__/__/__/mesh/bearer/src/advertiser.c.obj
                0x000312c2                advertiser_disable
 .text.advertiser_packet_alloc
                0x000312cc       0x76 examples/light_switch/provisioner/CMakeFiles/light_switch_provisioner_nrf52832_xxAA_s132_6.1.1.dir/__/__/__/mesh/bearer/src/advertiser.c.obj
                0x000312cc                advertiser_packet_alloc
 .text.advertiser_packet_send
                0x00031342       0x52 examples/light_switch/provisioner/CMakeFiles/light_switch_provisioner_nrf52832_xxAA_s132_6.1.1.dir/__/__/__/mesh/bearer/src/advertiser.c.obj
                0x00031342                advertiser_packet_send
 .text.advertiser_packet_discard
                0x00031394       0x1e examples/light_switch/provisioner/CMakeFiles/light_switch_provisioner_nrf52832_xxAA_s132_6.1.1.dir/__/__/__/mesh/bearer/src/advertiser.c.obj
                0x00031394                advertiser_packet_discard
 .text.advertiser_address_set
                0x000313b2       0x3c examples/light_switch/provisioner/CMakeFiles/light_switch_provisioner_nrf52832_xxAA_s132_6.1.1.dir/__/__/__/mesh/bearer/src/advertiser.c.obj
                0x000313b2                advertiser_address_set
 .text.advertiser_interval_set
                0x000313ee       0x40 examples/light_switch/provisioner/CMakeFiles/light_switch_provisioner_nrf52832_xxAA_s132_6.1.1.dir/__/__/__/mesh/bearer/src/advertiser.c.obj
                0x000313ee                advertiser_interval_set
 .text.advertiser_tx_power_set
                0x0003142e       0x14 examples/light_switch/provisioner/CMakeFiles/light_switch_provisioner_nrf52832_xxAA_s132_6.1.1.dir/__/__/__/mesh/bearer/src/advertiser.c.obj
                0x0003142e                advertiser_tx_power_set
 .text.advertiser_flush
                0x00031442       0x1e examples/light_switch/provisioner/CMakeFiles/light_switch_provisioner_nrf52832_xxAA_s132_6.1.1.dir/__/__/__/mesh/bearer/src/advertiser.c.obj
                0x00031442                advertiser_flush
 .text.advertiser_address_default_get
                0x00031460       0x38 examples/light_switch/provisioner/CMakeFiles/light_switch_provisioner_nrf52832_xxAA_s132_6.1.1.dir/__/__/__/mesh/bearer/src/advertiser.c.obj
                0x00031460                advertiser_address_default_get
 .text.advertiser_instance_init
                0x00031498       0x98 examples/light_switch/provisioner/CMakeFiles/light_switch_provisioner_nrf52832_xxAA_s132_6.1.1.dir/__/__/__/mesh/bearer/src/advertiser.c.obj
                0x00031498                advertiser_instance_init
 .text.notify_stop
                0x00031530       0x14 examples/light_switch/provisioner/CMakeFiles/light_switch_provisioner_nrf52832_xxAA_s132_6.1.1.dir/__/__/__/mesh/bearer/src/bearer_handler.c.obj
 .text.action_in_progress
                0x00031544       0x30 examples/light_switch/provisioner/CMakeFiles/light_switch_provisioner_nrf52832_xxAA_s132_6.1.1.dir/__/__/__/mesh/bearer/src/bearer_handler.c.obj
 .text.action_timer_start
                0x00031574       0x88 examples/light_switch/provisioner/CMakeFiles/light_switch_provisioner_nrf52832_xxAA_s132_6.1.1.dir/__/__/__/mesh/bearer/src/bearer_handler.c.obj
 .text.action_switch
                0x000315fc      0x104 examples/light_switch/provisioner/CMakeFiles/light_switch_provisioner_nrf52832_xxAA_s132_6.1.1.dir/__/__/__/mesh/bearer/src/bearer_handler.c.obj
 .text.end_handle
                0x00031700       0x44 examples/light_switch/provisioner/CMakeFiles/light_switch_provisioner_nrf52832_xxAA_s132_6.1.1.dir/__/__/__/mesh/bearer/src/bearer_handler.c.obj
 .text.TIMER2_IRQHandler
                0x00031744       0x58 examples/light_switch/provisioner/CMakeFiles/light_switch_provisioner_nrf52832_xxAA_s132_6.1.1.dir/__/__/__/mesh/bearer/src/bearer_handler.c.obj
                0x00031744                TIMER2_IRQHandler
 .text.bearer_handler_init
                0x0003179c       0x44 examples/light_switch/provisioner/CMakeFiles/light_switch_provisioner_nrf52832_xxAA_s132_6.1.1.dir/__/__/__/mesh/bearer/src/bearer_handler.c.obj
                0x0003179c                bearer_handler_init
 .text.bearer_handler_wake_up
                0x000317e0       0x2c examples/light_switch/provisioner/CMakeFiles/light_switch_provisioner_nrf52832_xxAA_s132_6.1.1.dir/__/__/__/mesh/bearer/src/bearer_handler.c.obj
                0x000317e0                bearer_handler_wake_up
 .text.bearer_handler_start
                0x0003180c       0x1c examples/light_switch/provisioner/CMakeFiles/light_switch_provisioner_nrf52832_xxAA_s132_6.1.1.dir/__/__/__/mesh/bearer/src/bearer_handler.c.obj
                0x0003180c                bearer_handler_start
 .text.bearer_handler_action_enqueue
                0x00031828       0x6c examples/light_switch/provisioner/CMakeFiles/light_switch_provisioner_nrf52832_xxAA_s132_6.1.1.dir/__/__/__/mesh/bearer/src/bearer_handler.c.obj
                0x00031828                bearer_handler_action_enqueue
 .text.bearer_handler_action_end
                0x00031894       0x48 examples/light_switch/provisioner/CMakeFiles/light_switch_provisioner_nrf52832_xxAA_s132_6.1.1.dir/__/__/__/mesh/bearer/src/bearer_handler.c.obj
                0x00031894                bearer_handler_action_end
 .text.bearer_handler_radio_irq_handler
                0x000318dc       0x70 examples/light_switch/provisioner/CMakeFiles/light_switch_provisioner_nrf52832_xxAA_s132_6.1.1.dir/__/__/__/mesh/bearer/src/bearer_handler.c.obj
                0x000318dc                bearer_handler_radio_irq_handler
 .text.bearer_handler_timer_irq_handler
                0x0003194c       0x34 examples/light_switch/provisioner/CMakeFiles/light_switch_provisioner_nrf52832_xxAA_s132_6.1.1.dir/__/__/__/mesh/bearer/src/bearer_handler.c.obj
                0x0003194c                bearer_handler_timer_irq_handler
 .text.bearer_handler_on_ts_begin
                0x00031980       0x38 examples/light_switch/provisioner/CMakeFiles/light_switch_provisioner_nrf52832_xxAA_s132_6.1.1.dir/__/__/__/mesh/bearer/src/bearer_handler.c.obj
                0x00031980                bearer_handler_on_ts_begin
 .text.bearer_handler_on_ts_end
                0x000319b8       0x70 examples/light_switch/provisioner/CMakeFiles/light_switch_provisioner_nrf52832_xxAA_s132_6.1.1.dir/__/__/__/mesh/bearer/src/bearer_handler.c.obj
                0x000319b8                bearer_handler_on_ts_end
 .text.bearer_handler_on_ts_session_closed
                0x00031a28       0x10 examples/light_switch/provisioner/CMakeFiles/light_switch_provisioner_nrf52832_xxAA_s132_6.1.1.dir/__/__/__/mesh/bearer/src/bearer_handler.c.obj
                0x00031a28                bearer_handler_on_ts_session_closed
 .text.radio_irq_handler
                0x00031a38       0xa4 examples/light_switch/provisioner/CMakeFiles/light_switch_provisioner_nrf52832_xxAA_s132_6.1.1.dir/__/__/__/mesh/bearer/src/broadcast.c.obj
 .text.broadcast_start
                0x00031adc       0xb4 examples/light_switch/provisioner/CMakeFiles/light_switch_provisioner_nrf52832_xxAA_s132_6.1.1.dir/__/__/__/mesh/bearer/src/broadcast.c.obj
 .text.broadcast_send
                0x00031b90       0x6c examples/light_switch/provisioner/CMakeFiles/light_switch_provisioner_nrf52832_xxAA_s132_6.1.1.dir/__/__/__/mesh/bearer/src/broadcast.c.obj
                0x00031b90                broadcast_send
 .text.fen_filter_start
                0x00031bfc       0x3c examples/light_switch/provisioner/CMakeFiles/light_switch_provisioner_nrf52832_xxAA_s132_6.1.1.dir/__/__/__/mesh/bearer/src/filter_engine.c.obj
                0x00031bfc                fen_filter_start
 .text.fen_filter_stop
                0x00031c38       0x30 examples/light_switch/provisioner/CMakeFiles/light_switch_provisioner_nrf52832_xxAA_s132_6.1.1.dir/__/__/__/mesh/bearer/src/filter_engine.c.obj
                0x00031c38                fen_filter_stop
 .text.fen_filters_apply
                0x00031c68       0x44 examples/light_switch/provisioner/CMakeFiles/light_switch_provisioner_nrf52832_xxAA_s132_6.1.1.dir/__/__/__/mesh/bearer/src/filter_engine.c.obj
                0x00031c68                fen_filters_apply
 .text.radio_config_reset
                0x00031cac       0x40 examples/light_switch/provisioner/CMakeFiles/light_switch_provisioner_nrf52832_xxAA_s132_6.1.1.dir/__/__/__/mesh/bearer/src/radio_config.c.obj
                0x00031cac                radio_config_reset
 .text.radio_config_channel_set
                0x00031cec       0x28 examples/light_switch/provisioner/CMakeFiles/light_switch_provisioner_nrf52832_xxAA_s132_6.1.1.dir/__/__/__/mesh/bearer/src/radio_config.c.obj
                0x00031cec                radio_config_channel_set
 .text.radio_config_config
                0x00031d14       0x8c examples/light_switch/provisioner/CMakeFiles/light_switch_provisioner_nrf52832_xxAA_s132_6.1.1.dir/__/__/__/mesh/bearer/src/radio_config.c.obj
                0x00031d14                radio_config_config
 .text.radio_config_access_addr_set
                0x00031da0       0x50 examples/light_switch/provisioner/CMakeFiles/light_switch_provisioner_nrf52832_xxAA_s132_6.1.1.dir/__/__/__/mesh/bearer/src/radio_config.c.obj
                0x00031da0                radio_config_access_addr_set
 .text.radio_trigger
                0x00031df0       0x24 examples/light_switch/provisioner/CMakeFiles/light_switch_provisioner_nrf52832_xxAA_s132_6.1.1.dir/__/__/__/mesh/bearer/src/scanner.c.obj
 .text.scan_window_end
                0x00031e14       0x10 examples/light_switch/provisioner/CMakeFiles/light_switch_provisioner_nrf52832_xxAA_s132_6.1.1.dir/__/__/__/mesh/bearer/src/scanner.c.obj
 .text.scan_window_start
                0x00031e24       0x24 examples/light_switch/provisioner/CMakeFiles/light_switch_provisioner_nrf52832_xxAA_s132_6.1.1.dir/__/__/__/mesh/bearer/src/scanner.c.obj
 .text.radio_configure
                0x00031e48       0x78 examples/light_switch/provisioner/CMakeFiles/light_switch_provisioner_nrf52832_xxAA_s132_6.1.1.dir/__/__/__/mesh/bearer/src/scanner.c.obj
 .text.radio_set_packet
                0x00031ec0       0x4c examples/light_switch/provisioner/CMakeFiles/light_switch_provisioner_nrf52832_xxAA_s132_6.1.1.dir/__/__/__/mesh/bearer/src/scanner.c.obj
 .text.radio_start
                0x00031f0c       0x78 examples/light_switch/provisioner/CMakeFiles/light_switch_provisioner_nrf52832_xxAA_s132_6.1.1.dir/__/__/__/mesh/bearer/src/scanner.c.obj
 .text.radio_stop
                0x00031f84       0x38 examples/light_switch/provisioner/CMakeFiles/light_switch_provisioner_nrf52832_xxAA_s132_6.1.1.dir/__/__/__/mesh/bearer/src/scanner.c.obj
 .text.schedule_timers
                0x00031fbc       0x38 examples/light_switch/provisioner/CMakeFiles/light_switch_provisioner_nrf52832_xxAA_s132_6.1.1.dir/__/__/__/mesh/bearer/src/scanner.c.obj
 .text.scanner_radio_start
                0x00031ff4       0x28 examples/light_switch/provisioner/CMakeFiles/light_switch_provisioner_nrf52832_xxAA_s132_6.1.1.dir/__/__/__/mesh/bearer/src/scanner.c.obj
                0x00031ff4                scanner_radio_start
 .text.scanner_radio_stop
                0x0003201c       0x10 examples/light_switch/provisioner/CMakeFiles/light_switch_provisioner_nrf52832_xxAA_s132_6.1.1.dir/__/__/__/mesh/bearer/src/scanner.c.obj
                0x0003201c                scanner_radio_stop
 .text.scanner_radio_irq_handler
                0x0003202c      0x144 examples/light_switch/provisioner/CMakeFiles/light_switch_provisioner_nrf52832_xxAA_s132_6.1.1.dir/__/__/__/mesh/bearer/src/scanner.c.obj
                0x0003202c                scanner_radio_irq_handler
 .text.scanner_timer_irq_handler
                0x00032170       0x30 examples/light_switch/provisioner/CMakeFiles/light_switch_provisioner_nrf52832_xxAA_s132_6.1.1.dir/__/__/__/mesh/bearer/src/scanner.c.obj
                0x00032170                scanner_timer_irq_handler
 .text.scanner_enable
                0x000321a0       0x2c examples/light_switch/provisioner/CMakeFiles/light_switch_provisioner_nrf52832_xxAA_s132_6.1.1.dir/__/__/__/mesh/bearer/src/scanner.c.obj
                0x000321a0                scanner_enable
 .text.scanner_is_enabled
                0x000321cc       0x10 examples/light_switch/provisioner/CMakeFiles/light_switch_provisioner_nrf52832_xxAA_s132_6.1.1.dir/__/__/__/mesh/bearer/src/scanner.c.obj
                0x000321cc                scanner_is_enabled
 .text.scanner_packet_release
                0x000321dc       0x2c examples/light_switch/provisioner/CMakeFiles/light_switch_provisioner_nrf52832_xxAA_s132_6.1.1.dir/__/__/__/mesh/bearer/src/scanner.c.obj
                0x000321dc                scanner_packet_release
 .text.scanner_rx
                0x00032208       0x34 examples/light_switch/provisioner/CMakeFiles/light_switch_provisioner_nrf52832_xxAA_s132_6.1.1.dir/__/__/__/mesh/bearer/src/scanner.c.obj
                0x00032208                scanner_rx
 .text.scanner_rx_pending
                0x0003223c        0xc examples/light_switch/provisioner/CMakeFiles/light_switch_provisioner_nrf52832_xxAA_s132_6.1.1.dir/__/__/__/mesh/bearer/src/scanner.c.obj
                0x0003223c                scanner_rx_pending
 .text.scanner_config_scan_time_set
                0x00032248       0x4c examples/light_switch/provisioner/CMakeFiles/light_switch_provisioner_nrf52832_xxAA_s132_6.1.1.dir/__/__/__/mesh/bearer/src/scanner.c.obj
                0x00032248                scanner_config_scan_time_set
 .text.scanner_config_channels_set
                0x00032294       0x50 examples/light_switch/provisioner/CMakeFiles/light_switch_provisioner_nrf52832_xxAA_s132_6.1.1.dir/__/__/__/mesh/bearer/src/scanner.c.obj
                0x00032294                scanner_config_channels_set
 .text.scanner_config_access_addresses_set
                0x000322e4       0x38 examples/light_switch/provisioner/CMakeFiles/light_switch_provisioner_nrf52832_xxAA_s132_6.1.1.dir/__/__/__/mesh/bearer/src/scanner.c.obj
                0x000322e4                scanner_config_access_addresses_set
 .text.scanner_config_reset
                0x0003231c       0x50 examples/light_switch/provisioner/CMakeFiles/light_switch_provisioner_nrf52832_xxAA_s132_6.1.1.dir/__/__/__/mesh/bearer/src/scanner.c.obj
                0x0003231c                scanner_config_reset
 .text.scanner_init
                0x0003236c       0x54 examples/light_switch/provisioner/CMakeFiles/light_switch_provisioner_nrf52832_xxAA_s132_6.1.1.dir/__/__/__/mesh/bearer/src/scanner.c.obj
                0x0003236c                scanner_init
 .text.pin_clear
                0x000323c0       0x24 examples/light_switch/provisioner/CMakeFiles/light_switch_provisioner_nrf52832_xxAA_s132_6.1.1.dir/__/__/__/mesh/bearer/src/mesh_pa_lna.c.obj
 .text.ppi_setup.isra.0
                0x000323e4       0x3c examples/light_switch/provisioner/CMakeFiles/light_switch_provisioner_nrf52832_xxAA_s132_6.1.1.dir/__/__/__/mesh/bearer/src/mesh_pa_lna.c.obj
 .text.mesh_pa_setup_start
                0x00032420       0x5c examples/light_switch/provisioner/CMakeFiles/light_switch_provisioner_nrf52832_xxAA_s132_6.1.1.dir/__/__/__/mesh/bearer/src/mesh_pa_lna.c.obj
                0x00032420                mesh_pa_setup_start
 .text.mesh_lna_setup_start
                0x0003247c       0x5c examples/light_switch/provisioner/CMakeFiles/light_switch_provisioner_nrf52832_xxAA_s132_6.1.1.dir/__/__/__/mesh/bearer/src/mesh_pa_lna.c.obj
                0x0003247c                mesh_lna_setup_start
 .text.mesh_pa_lna_disable_start
                0x000324d8       0x1c examples/light_switch/provisioner/CMakeFiles/light_switch_provisioner_nrf52832_xxAA_s132_6.1.1.dir/__/__/__/mesh/bearer/src/mesh_pa_lna.c.obj
                0x000324d8                mesh_pa_lna_disable_start
 .text.mesh_pa_lna_setup_stop
                0x000324f4       0x4c examples/light_switch/provisioner/CMakeFiles/light_switch_provisioner_nrf52832_xxAA_s132_6.1.1.dir/__/__/__/mesh/bearer/src/mesh_pa_lna.c.obj
                0x000324f4                mesh_pa_lna_setup_stop
 .text.mesh_pa_lna_cleanup
                0x00032540       0x48 examples/light_switch/provisioner/CMakeFiles/light_switch_provisioner_nrf52832_xxAA_s132_6.1.1.dir/__/__/__/mesh/bearer/src/mesh_pa_lna.c.obj
                0x00032540                mesh_pa_lna_cleanup
 .text.send_reliable
                0x00032588       0x7c examples/light_switch/provisioner/CMakeFiles/light_switch_provisioner_nrf52832_xxAA_s132_6.1.1.dir/__/__/__/models/foundation/config/src/config_client.c.obj
 .text.reliable_status_cb
                0x00032604       0x4c examples/light_switch/provisioner/CMakeFiles/light_switch_provisioner_nrf52832_xxAA_s132_6.1.1.dir/__/__/__/models/foundation/config/src/config_client.c.obj
 .text.client_in_wrong_state.constprop.4
                0x00032650       0x20 examples/light_switch/provisioner/CMakeFiles/light_switch_provisioner_nrf52832_xxAA_s132_6.1.1.dir/__/__/__/models/foundation/config/src/config_client.c.obj
 .text.config_opcode_handler
                0x00032670       0x5c examples/light_switch/provisioner/CMakeFiles/light_switch_provisioner_nrf52832_xxAA_s132_6.1.1.dir/__/__/__/models/foundation/config/src/config_client.c.obj
 .text.subscription_add_del_owr_send.isra.1
                0x000326cc       0x64 examples/light_switch/provisioner/CMakeFiles/light_switch_provisioner_nrf52832_xxAA_s132_6.1.1.dir/__/__/__/models/foundation/config/src/config_client.c.obj
 .text.subscription_virtual_add_del_owr_send.isra.3
                0x00032730       0x6c examples/light_switch/provisioner/CMakeFiles/light_switch_provisioner_nrf52832_xxAA_s132_6.1.1.dir/__/__/__/models/foundation/config/src/config_client.c.obj
 .text.app_bind_unbind_send
                0x0003279c       0x78 examples/light_switch/provisioner/CMakeFiles/light_switch_provisioner_nrf52832_xxAA_s132_6.1.1.dir/__/__/__/models/foundation/config/src/config_client.c.obj
 .text.config_client_init
                0x00032814       0x50 examples/light_switch/provisioner/CMakeFiles/light_switch_provisioner_nrf52832_xxAA_s132_6.1.1.dir/__/__/__/models/foundation/config/src/config_client.c.obj
                0x00032814                config_client_init
 .text.config_client_server_set
                0x00032864       0x88 examples/light_switch/provisioner/CMakeFiles/light_switch_provisioner_nrf52832_xxAA_s132_6.1.1.dir/__/__/__/models/foundation/config/src/config_client.c.obj
                0x00032864                config_client_server_set
 .text.config_client_server_bind
                0x000328ec       0x30 examples/light_switch/provisioner/CMakeFiles/light_switch_provisioner_nrf52832_xxAA_s132_6.1.1.dir/__/__/__/models/foundation/config/src/config_client.c.obj
                0x000328ec                config_client_server_bind
 .text.config_client_composition_data_get
                0x0003291c       0x48 examples/light_switch/provisioner/CMakeFiles/light_switch_provisioner_nrf52832_xxAA_s132_6.1.1.dir/__/__/__/models/foundation/config/src/config_client.c.obj
                0x0003291c                config_client_composition_data_get
 .text.config_client_appkey_add
                0x00032964       0x70 examples/light_switch/provisioner/CMakeFiles/light_switch_provisioner_nrf52832_xxAA_s132_6.1.1.dir/__/__/__/models/foundation/config/src/config_client.c.obj
                0x00032964                config_client_appkey_add
 .text.config_client_model_publication_set
                0x000329d4      0x144 examples/light_switch/provisioner/CMakeFiles/light_switch_provisioner_nrf52832_xxAA_s132_6.1.1.dir/__/__/__/models/foundation/config/src/config_client.c.obj
                0x000329d4                config_client_model_publication_set
 .text.config_client_model_subscription_add
                0x00032b18       0x4c examples/light_switch/provisioner/CMakeFiles/light_switch_provisioner_nrf52832_xxAA_s132_6.1.1.dir/__/__/__/models/foundation/config/src/config_client.c.obj
                0x00032b18                config_client_model_subscription_add
 .text.config_client_network_transmit_set
                0x00032b64       0x60 examples/light_switch/provisioner/CMakeFiles/light_switch_provisioner_nrf52832_xxAA_s132_6.1.1.dir/__/__/__/models/foundation/config/src/config_client.c.obj
                0x00032b64                config_client_network_transmit_set
 .text.config_client_model_app_bind
                0x00032bc4        0xe examples/light_switch/provisioner/CMakeFiles/light_switch_provisioner_nrf52832_xxAA_s132_6.1.1.dir/__/__/__/models/foundation/config/src/config_client.c.obj
                0x00032bc4                config_client_model_app_bind
 *fill*         0x00032bd2        0x2 
 .text.config_client_pending_msg_cancel
                0x00032bd4        0xc examples/light_switch/provisioner/CMakeFiles/light_switch_provisioner_nrf52832_xxAA_s132_6.1.1.dir/__/__/__/models/foundation/config/src/config_client.c.obj
                0x00032bd4                config_client_pending_msg_cancel
 .text.config_composition_data_get
                0x00032be0      0x166 examples/light_switch/provisioner/CMakeFiles/light_switch_provisioner_nrf52832_xxAA_s132_6.1.1.dir/__/__/__/models/foundation/config/src/composition_data.c.obj
                0x00032be0                config_composition_data_get
 *fill*         0x00032d46        0x2 
 .text.app_evt_send
                0x00032d48       0x10 examples/light_switch/provisioner/CMakeFiles/light_switch_provisioner_nrf52832_xxAA_s132_6.1.1.dir/__/__/__/models/foundation/config/src/config_server.c.obj
 .text.get_element_index
                0x00032d58       0x1c examples/light_switch/provisioner/CMakeFiles/light_switch_provisioner_nrf52832_xxAA_s132_6.1.1.dir/__/__/__/models/foundation/config/src/config_server.c.obj
 .text.config_server_heartbeat_publication_params_get
                0x00032d74       0x30 examples/light_switch/provisioner/CMakeFiles/light_switch_provisioner_nrf52832_xxAA_s132_6.1.1.dir/__/__/__/models/foundation/config/src/config_server.c.obj
 .text.send_reply
                0x00032da4       0x34 examples/light_switch/provisioner/CMakeFiles/light_switch_provisioner_nrf52832_xxAA_s132_6.1.1.dir/__/__/__/models/foundation/config/src/config_server.c.obj
 .text.send_network_transmit_status
                0x00032dd8       0x5a examples/light_switch/provisioner/CMakeFiles/light_switch_provisioner_nrf52832_xxAA_s132_6.1.1.dir/__/__/__/models/foundation/config/src/config_server.c.obj
 .text.handle_config_network_transmit_set
                0x00032e32       0x74 examples/light_switch/provisioner/CMakeFiles/light_switch_provisioner_nrf52832_xxAA_s132_6.1.1.dir/__/__/__/models/foundation/config/src/config_server.c.obj
 .text.handle_config_network_transmit_get
                0x00032ea6        0xa examples/light_switch/provisioner/CMakeFiles/light_switch_provisioner_nrf52832_xxAA_s132_6.1.1.dir/__/__/__/models/foundation/config/src/config_server.c.obj
 .text.handle_node_reset
                0x00032eb0       0x34 examples/light_switch/provisioner/CMakeFiles/light_switch_provisioner_nrf52832_xxAA_s132_6.1.1.dir/__/__/__/models/foundation/config/src/config_server.c.obj
 .text.handle_node_identity_set
                0x00032ee4       0x44 examples/light_switch/provisioner/CMakeFiles/light_switch_provisioner_nrf52832_xxAA_s132_6.1.1.dir/__/__/__/models/foundation/config/src/config_server.c.obj
 .text.send_netkey_status
                0x00032f28       0x2c examples/light_switch/provisioner/CMakeFiles/light_switch_provisioner_nrf52832_xxAA_s132_6.1.1.dir/__/__/__/models/foundation/config/src/config_server.c.obj
 .text.send_relay_status
                0x00032f54       0x7e examples/light_switch/provisioner/CMakeFiles/light_switch_provisioner_nrf52832_xxAA_s132_6.1.1.dir/__/__/__/models/foundation/config/src/config_server.c.obj
 .text.handle_config_relay_set
                0x00032fd2       0x9a examples/light_switch/provisioner/CMakeFiles/light_switch_provisioner_nrf52832_xxAA_s132_6.1.1.dir/__/__/__/models/foundation/config/src/config_server.c.obj
 .text.handle_config_relay_get
                0x0003306c        0xa examples/light_switch/provisioner/CMakeFiles/light_switch_provisioner_nrf52832_xxAA_s132_6.1.1.dir/__/__/__/models/foundation/config/src/config_server.c.obj
 .text.send_subscription_status
                0x00033076       0x42 examples/light_switch/provisioner/CMakeFiles/light_switch_provisioner_nrf52832_xxAA_s132_6.1.1.dir/__/__/__/models/foundation/config/src/config_server.c.obj
 .text.send_appkey_status
                0x000330b8       0x3a examples/light_switch/provisioner/CMakeFiles/light_switch_provisioner_nrf52832_xxAA_s132_6.1.1.dir/__/__/__/models/foundation/config/src/config_server.c.obj
 .text.handle_netkey_delete
                0x000330f2       0xbc examples/light_switch/provisioner/CMakeFiles/light_switch_provisioner_nrf52832_xxAA_s132_6.1.1.dir/__/__/__/models/foundation/config/src/config_server.c.obj
 *fill*         0x000331ae        0x2 
 .text.handle_netkey_add_update
                0x000331b0       0x78 examples/light_switch/provisioner/CMakeFiles/light_switch_provisioner_nrf52832_xxAA_s132_6.1.1.dir/__/__/__/models/foundation/config/src/config_server.c.obj
 .text.status_error_sub_send
                0x00033228      0x124 examples/light_switch/provisioner/CMakeFiles/light_switch_provisioner_nrf52832_xxAA_s132_6.1.1.dir/__/__/__/models/foundation/config/src/config_server.c.obj
 .text.delete_all_subscriptions
                0x0003334c       0x66 examples/light_switch/provisioner/CMakeFiles/light_switch_provisioner_nrf52832_xxAA_s132_6.1.1.dir/__/__/__/models/foundation/config/src/config_server.c.obj
 .text.send_publication_status
                0x000333b2      0x188 examples/light_switch/provisioner/CMakeFiles/light_switch_provisioner_nrf52832_xxAA_s132_6.1.1.dir/__/__/__/models/foundation/config/src/config_server.c.obj
 .text.handle_config_key_refresh_phase_set
                0x0003353a       0xc8 examples/light_switch/provisioner/CMakeFiles/light_switch_provisioner_nrf52832_xxAA_s132_6.1.1.dir/__/__/__/models/foundation/config/src/config_server.c.obj
 .text.handle_config_default_ttl_set
                0x00033602       0x50 examples/light_switch/provisioner/CMakeFiles/light_switch_provisioner_nrf52832_xxAA_s132_6.1.1.dir/__/__/__/models/foundation/config/src/config_server.c.obj
 .text.send_net_beacon_state
                0x00033652       0x2c examples/light_switch/provisioner/CMakeFiles/light_switch_provisioner_nrf52832_xxAA_s132_6.1.1.dir/__/__/__/models/foundation/config/src/config_server.c.obj
 .text.handle_config_beacon_get
                0x0003367e        0xa examples/light_switch/provisioner/CMakeFiles/light_switch_provisioner_nrf52832_xxAA_s132_6.1.1.dir/__/__/__/models/foundation/config/src/config_server.c.obj
 .text.handle_heartbeat_publication_set
                0x00033688       0xea examples/light_switch/provisioner/CMakeFiles/light_switch_provisioner_nrf52832_xxAA_s132_6.1.1.dir/__/__/__/models/foundation/config/src/config_server.c.obj
 *fill*         0x00033772        0x2 
 .text.mesh_event_cb
                0x00033774       0x70 examples/light_switch/provisioner/CMakeFiles/light_switch_provisioner_nrf52832_xxAA_s132_6.1.1.dir/__/__/__/models/foundation/config/src/config_server.c.obj
 .text.handle_node_identity_get
                0x000337e4       0x3c examples/light_switch/provisioner/CMakeFiles/light_switch_provisioner_nrf52832_xxAA_s132_6.1.1.dir/__/__/__/models/foundation/config/src/config_server.c.obj
 .text.handle_config_gatt_proxy_set.part.6
                0x00033820       0x2a examples/light_switch/provisioner/CMakeFiles/light_switch_provisioner_nrf52832_xxAA_s132_6.1.1.dir/__/__/__/models/foundation/config/src/config_server.c.obj
 .text.handle_config_gatt_proxy_set
                0x0003384a       0x14 examples/light_switch/provisioner/CMakeFiles/light_switch_provisioner_nrf52832_xxAA_s132_6.1.1.dir/__/__/__/models/foundation/config/src/config_server.c.obj
 .text.handle_config_gatt_proxy_get
                0x0003385e        0xa examples/light_switch/provisioner/CMakeFiles/light_switch_provisioner_nrf52832_xxAA_s132_6.1.1.dir/__/__/__/models/foundation/config/src/config_server.c.obj
 .text.handle_config_friend_set.part.8
                0x00033868       0x2a examples/light_switch/provisioner/CMakeFiles/light_switch_provisioner_nrf52832_xxAA_s132_6.1.1.dir/__/__/__/models/foundation/config/src/config_server.c.obj
 .text.handle_config_friend_set
                0x00033892       0x14 examples/light_switch/provisioner/CMakeFiles/light_switch_provisioner_nrf52832_xxAA_s132_6.1.1.dir/__/__/__/models/foundation/config/src/config_server.c.obj
 .text.handle_config_friend_get
                0x000338a6        0xa examples/light_switch/provisioner/CMakeFiles/light_switch_provisioner_nrf52832_xxAA_s132_6.1.1.dir/__/__/__/models/foundation/config/src/config_server.c.obj
 .text.handle_netkey_get
                0x000338b0       0x50 examples/light_switch/provisioner/CMakeFiles/light_switch_provisioner_nrf52832_xxAA_s132_6.1.1.dir/__/__/__/models/foundation/config/src/config_server.c.obj
 .text.handle_appkey_get
                0x00033900       0x82 examples/light_switch/provisioner/CMakeFiles/light_switch_provisioner_nrf52832_xxAA_s132_6.1.1.dir/__/__/__/models/foundation/config/src/config_server.c.obj
 .text.status_error_pub_send
                0x00033982       0x90 examples/light_switch/provisioner/CMakeFiles/light_switch_provisioner_nrf52832_xxAA_s132_6.1.1.dir/__/__/__/models/foundation/config/src/config_server.c.obj
 .text.handle_config_key_refresh_phase_get
                0x00033a12       0x58 examples/light_switch/provisioner/CMakeFiles/light_switch_provisioner_nrf52832_xxAA_s132_6.1.1.dir/__/__/__/models/foundation/config/src/config_server.c.obj
 .text.handle_config_default_ttl_get
                0x00033a6a       0x30 examples/light_switch/provisioner/CMakeFiles/light_switch_provisioner_nrf52832_xxAA_s132_6.1.1.dir/__/__/__/models/foundation/config/src/config_server.c.obj
 .text.handle_config_beacon_set
                0x00033a9a       0x42 examples/light_switch/provisioner/CMakeFiles/light_switch_provisioner_nrf52832_xxAA_s132_6.1.1.dir/__/__/__/models/foundation/config/src/config_server.c.obj
 .text.handle_composition_data_get
                0x00033adc       0x44 examples/light_switch/provisioner/CMakeFiles/light_switch_provisioner_nrf52832_xxAA_s132_6.1.1.dir/__/__/__/models/foundation/config/src/config_server.c.obj
 .text.handle_appkey_add
                0x00033b20      0x140 examples/light_switch/provisioner/CMakeFiles/light_switch_provisioner_nrf52832_xxAA_s132_6.1.1.dir/__/__/__/models/foundation/config/src/config_server.c.obj
 .text.get_subscription_list.constprop.24
                0x00033c60       0x4e examples/light_switch/provisioner/CMakeFiles/light_switch_provisioner_nrf52832_xxAA_s132_6.1.1.dir/__/__/__/models/foundation/config/src/config_server.c.obj
 .text.handle_config_sig_model_subscription_get
                0x00033cae       0xa2 examples/light_switch/provisioner/CMakeFiles/light_switch_provisioner_nrf52832_xxAA_s132_6.1.1.dir/__/__/__/models/foundation/config/src/config_server.c.obj
 .text.heartbeat_subscription_count_encode
                0x00033d50       0x32 examples/light_switch/provisioner/CMakeFiles/light_switch_provisioner_nrf52832_xxAA_s132_6.1.1.dir/__/__/__/models/foundation/config/src/config_server.c.obj
 .text.heartbeat_pubsub_period_encode
                0x00033d82       0x26 examples/light_switch/provisioner/CMakeFiles/light_switch_provisioner_nrf52832_xxAA_s132_6.1.1.dir/__/__/__/models/foundation/config/src/config_server.c.obj
 .text.handle_heartbeat_publication_get
                0x00033da8       0x8a examples/light_switch/provisioner/CMakeFiles/light_switch_provisioner_nrf52832_xxAA_s132_6.1.1.dir/__/__/__/models/foundation/config/src/config_server.c.obj
 .text.handle_heartbeat_subscription_get
                0x00033e32       0x84 examples/light_switch/provisioner/CMakeFiles/light_switch_provisioner_nrf52832_xxAA_s132_6.1.1.dir/__/__/__/models/foundation/config/src/config_server.c.obj
 .text.handle_appkey_update
                0x00033eb6       0xbc examples/light_switch/provisioner/CMakeFiles/light_switch_provisioner_nrf52832_xxAA_s132_6.1.1.dir/__/__/__/models/foundation/config/src/config_server.c.obj
 .text.handle_appkey_delete
                0x00033f72       0xc2 examples/light_switch/provisioner/CMakeFiles/light_switch_provisioner_nrf52832_xxAA_s132_6.1.1.dir/__/__/__/models/foundation/config/src/config_server.c.obj
 .text.handle_heartbeat_subscription_set
                0x00034034       0xa8 examples/light_switch/provisioner/CMakeFiles/light_switch_provisioner_nrf52832_xxAA_s132_6.1.1.dir/__/__/__/models/foundation/config/src/config_server.c.obj
 .text.handle_config_model_publication_get
                0x000340dc       0x8c examples/light_switch/provisioner/CMakeFiles/light_switch_provisioner_nrf52832_xxAA_s132_6.1.1.dir/__/__/__/models/foundation/config/src/config_server.c.obj
 .text.handle_config_model_subscription_delete_all
                0x00034168       0xc2 examples/light_switch/provisioner/CMakeFiles/light_switch_provisioner_nrf52832_xxAA_s132_6.1.1.dir/__/__/__/models/foundation/config/src/config_server.c.obj
 .text.handle_config_model_subscription_virtual_address_delete
                0x0003422a      0x108 examples/light_switch/provisioner/CMakeFiles/light_switch_provisioner_nrf52832_xxAA_s132_6.1.1.dir/__/__/__/models/foundation/config/src/config_server.c.obj
 .text.handle_config_model_subscription_virtual_address_add
                0x00034332      0x106 examples/light_switch/provisioner/CMakeFiles/light_switch_provisioner_nrf52832_xxAA_s132_6.1.1.dir/__/__/__/models/foundation/config/src/config_server.c.obj
 .text.handle_config_model_subscription_delete
                0x00034438      0x10e examples/light_switch/provisioner/CMakeFiles/light_switch_provisioner_nrf52832_xxAA_s132_6.1.1.dir/__/__/__/models/foundation/config/src/config_server.c.obj
 .text.handle_config_model_subscription_add
                0x00034546      0x112 examples/light_switch/provisioner/CMakeFiles/light_switch_provisioner_nrf52832_xxAA_s132_6.1.1.dir/__/__/__/models/foundation/config/src/config_server.c.obj
 .text.handle_config_model_subscription_virtual_address_overwrite
                0x00034658      0x120 examples/light_switch/provisioner/CMakeFiles/light_switch_provisioner_nrf52832_xxAA_s132_6.1.1.dir/__/__/__/models/foundation/config/src/config_server.c.obj
 .text.handle_model_app_get
                0x00034778      0x19c examples/light_switch/provisioner/CMakeFiles/light_switch_provisioner_nrf52832_xxAA_s132_6.1.1.dir/__/__/__/models/foundation/config/src/config_server.c.obj
 .text.handle_config_model_subscription_overwrite
                0x00034914      0x11a examples/light_switch/provisioner/CMakeFiles/light_switch_provisioner_nrf52832_xxAA_s132_6.1.1.dir/__/__/__/models/foundation/config/src/config_server.c.obj
 .text.handle_config_vendor_model_subscription_get
                0x00034a2e       0xde examples/light_switch/provisioner/CMakeFiles/light_switch_provisioner_nrf52832_xxAA_s132_6.1.1.dir/__/__/__/models/foundation/config/src/config_server.c.obj
 .text.handle_model_app_bind_unbind
                0x00034b0c      0x1ec examples/light_switch/provisioner/CMakeFiles/light_switch_provisioner_nrf52832_xxAA_s132_6.1.1.dir/__/__/__/models/foundation/config/src/config_server.c.obj
 .text.handle_config_model_publication_set
                0x00034cf8      0x2d6 examples/light_switch/provisioner/CMakeFiles/light_switch_provisioner_nrf52832_xxAA_s132_6.1.1.dir/__/__/__/models/foundation/config/src/config_server.c.obj
 *fill*         0x00034fce        0x2 
 .text.config_server_init
                0x00034fd0       0x60 examples/light_switch/provisioner/CMakeFiles/light_switch_provisioner_nrf52832_xxAA_s132_6.1.1.dir/__/__/__/models/foundation/config/src/config_server.c.obj
                0x00034fd0                config_server_init
 .text.config_server_bind
                0x00035030       0x10 examples/light_switch/provisioner/CMakeFiles/light_switch_provisioner_nrf52832_xxAA_s132_6.1.1.dir/__/__/__/models/foundation/config/src/config_server.c.obj
                0x00035030                config_server_bind
 .text.packed_index_list_create
                0x00035040       0x32 examples/light_switch/provisioner/CMakeFiles/light_switch_provisioner_nrf52832_xxAA_s132_6.1.1.dir/__/__/__/models/foundation/config/src/packed_index_list.c.obj
                0x00035040                packed_index_list_create
 *fill*         0x00035072        0x2 
 .text.health_server_fpd_get
                0x00035074       0x20 examples/light_switch/provisioner/CMakeFiles/light_switch_provisioner_nrf52832_xxAA_s132_6.1.1.dir/__/__/__/models/foundation/health/src/health_server.c.obj
 .text.health_server_fpd_delete
                0x00035094       0x20 examples/light_switch/provisioner/CMakeFiles/light_switch_provisioner_nrf52832_xxAA_s132_6.1.1.dir/__/__/__/models/foundation/health/src/health_server.c.obj
 .text.attention_timer_handler
                0x000350b4       0x5c examples/light_switch/provisioner/CMakeFiles/light_switch_provisioner_nrf52832_xxAA_s132_6.1.1.dir/__/__/__/models/foundation/health/src/health_server.c.obj
 .text.send_attention_status
                0x00035110       0x44 examples/light_switch/provisioner/CMakeFiles/light_switch_provisioner_nrf52832_xxAA_s132_6.1.1.dir/__/__/__/models/foundation/health/src/health_server.c.obj
 .text.handle_attention_get
                0x00035154        0xc examples/light_switch/provisioner/CMakeFiles/light_switch_provisioner_nrf52832_xxAA_s132_6.1.1.dir/__/__/__/models/foundation/health/src/health_server.c.obj
 .text.send_period_status
                0x00035160       0x40 examples/light_switch/provisioner/CMakeFiles/light_switch_provisioner_nrf52832_xxAA_s132_6.1.1.dir/__/__/__/models/foundation/health/src/health_server.c.obj
 .text.handle_period_get
                0x000351a0        0xc examples/light_switch/provisioner/CMakeFiles/light_switch_provisioner_nrf52832_xxAA_s132_6.1.1.dir/__/__/__/models/foundation/health/src/health_server.c.obj
 .text.attention_timer_set.part.1
                0x000351ac       0x84 examples/light_switch/provisioner/CMakeFiles/light_switch_provisioner_nrf52832_xxAA_s132_6.1.1.dir/__/__/__/models/foundation/health/src/health_server.c.obj
 .text.handle_attention_set
                0x00035230       0x32 examples/light_switch/provisioner/CMakeFiles/light_switch_provisioner_nrf52832_xxAA_s132_6.1.1.dir/__/__/__/models/foundation/health/src/health_server.c.obj
 *fill*         0x00035262        0x2 
 .text.handle_period_set
                0x00035264       0x4c examples/light_switch/provisioner/CMakeFiles/light_switch_provisioner_nrf52832_xxAA_s132_6.1.1.dir/__/__/__/models/foundation/health/src/health_server.c.obj
 .text.bitfield_next_get.part.0.constprop.10
                0x000352b0       0x44 examples/light_switch/provisioner/CMakeFiles/light_switch_provisioner_nrf52832_xxAA_s132_6.1.1.dir/__/__/__/models/foundation/health/src/health_server.c.obj
 .text.send_fault_status
                0x000352f4       0x8c examples/light_switch/provisioner/CMakeFiles/light_switch_provisioner_nrf52832_xxAA_s132_6.1.1.dir/__/__/__/models/foundation/health/src/health_server.c.obj
 .text.health_publish_timeout_handler
                0x00035380        0xa examples/light_switch/provisioner/CMakeFiles/light_switch_provisioner_nrf52832_xxAA_s132_6.1.1.dir/__/__/__/models/foundation/health/src/health_server.c.obj
 .text.handle_fault_test
                0x0003538a       0x66 examples/light_switch/provisioner/CMakeFiles/light_switch_provisioner_nrf52832_xxAA_s132_6.1.1.dir/__/__/__/models/foundation/health/src/health_server.c.obj
 .text.handle_fault_get
                0x000353f0       0x32 examples/light_switch/provisioner/CMakeFiles/light_switch_provisioner_nrf52832_xxAA_s132_6.1.1.dir/__/__/__/models/foundation/health/src/health_server.c.obj
 .text.handle_fault_clear
                0x00035422       0x48 examples/light_switch/provisioner/CMakeFiles/light_switch_provisioner_nrf52832_xxAA_s132_6.1.1.dir/__/__/__/models/foundation/health/src/health_server.c.obj
 .text.health_server_fault_count_get
                0x0003546a       0x2c examples/light_switch/provisioner/CMakeFiles/light_switch_provisioner_nrf52832_xxAA_s132_6.1.1.dir/__/__/__/models/foundation/health/src/health_server.c.obj
                0x0003546a                health_server_fault_count_get
 *fill*         0x00035496        0x2 
 .text.health_server_fpd_set
                0x00035498       0x44 examples/light_switch/provisioner/CMakeFiles/light_switch_provisioner_nrf52832_xxAA_s132_6.1.1.dir/__/__/__/models/foundation/health/src/health_server.c.obj
 .text.health_server_init
                0x000354dc       0x78 examples/light_switch/provisioner/CMakeFiles/light_switch_provisioner_nrf52832_xxAA_s132_6.1.1.dir/__/__/__/models/foundation/health/src/health_server.c.obj
                0x000354dc                health_server_init
 .text.handle_fault_status
                0x00035554       0x48 examples/light_switch/provisioner/CMakeFiles/light_switch_provisioner_nrf52832_xxAA_s132_6.1.1.dir/__/__/__/models/foundation/health/src/health_client.c.obj
 .text.handle_period_status
                0x0003559c       0x28 examples/light_switch/provisioner/CMakeFiles/light_switch_provisioner_nrf52832_xxAA_s132_6.1.1.dir/__/__/__/models/foundation/health/src/health_client.c.obj
 .text.handle_attention_status
                0x000355c4       0x28 examples/light_switch/provisioner/CMakeFiles/light_switch_provisioner_nrf52832_xxAA_s132_6.1.1.dir/__/__/__/models/foundation/health/src/health_client.c.obj
 .text.health_client_init
                0x000355ec       0x50 examples/light_switch/provisioner/CMakeFiles/light_switch_provisioner_nrf52832_xxAA_s132_6.1.1.dir/__/__/__/models/foundation/health/src/health_client.c.obj
                0x000355ec                health_client_init
 .text.add_to_publication_list
                0x0003563c       0x78 examples/light_switch/provisioner/CMakeFiles/light_switch_provisioner_nrf52832_xxAA_s132_6.1.1.dir/__/__/__/mesh/access/src/access_publish.c.obj
 .text.step_resolution_to_us
                0x000356b4       0x38 examples/light_switch/provisioner/CMakeFiles/light_switch_provisioner_nrf52832_xxAA_s132_6.1.1.dir/__/__/__/mesh/access/src/access_publish.c.obj
 .text.schedule_publication_timer
                0x000356ec      0x184 examples/light_switch/provisioner/CMakeFiles/light_switch_provisioner_nrf52832_xxAA_s132_6.1.1.dir/__/__/__/mesh/access/src/access_publish.c.obj
 .text.publish_timer_tick
                0x00035870       0xa8 examples/light_switch/provisioner/CMakeFiles/light_switch_provisioner_nrf52832_xxAA_s132_6.1.1.dir/__/__/__/mesh/access/src/access_publish.c.obj
 .text.access_publish_init
                0x00035918       0x38 examples/light_switch/provisioner/CMakeFiles/light_switch_provisioner_nrf52832_xxAA_s132_6.1.1.dir/__/__/__/mesh/access/src/access_publish.c.obj
                0x00035918                access_publish_init
 .text.access_publish_period_set
                0x00035950       0x60 examples/light_switch/provisioner/CMakeFiles/light_switch_provisioner_nrf52832_xxAA_s132_6.1.1.dir/__/__/__/mesh/access/src/access_publish.c.obj
                0x00035950                access_publish_period_set
 .text.get_next_timeout_index
                0x000359b0       0x40 examples/light_switch/provisioner/CMakeFiles/light_switch_provisioner_nrf52832_xxAA_s132_6.1.1.dir/__/__/__/mesh/access/src/access_publish_retransmission.c.obj
 .text.message_remove
                0x000359f0       0x5c examples/light_switch/provisioner/CMakeFiles/light_switch_provisioner_nrf52832_xxAA_s132_6.1.1.dir/__/__/__/mesh/access/src/access_publish_retransmission.c.obj
 .text.retransmissions_timer_cb
                0x00035a4c       0xc8 examples/light_switch/provisioner/CMakeFiles/light_switch_provisioner_nrf52832_xxAA_s132_6.1.1.dir/__/__/__/mesh/access/src/access_publish_retransmission.c.obj
 .text.access_publish_retransmission_init
                0x00035b14       0x24 examples/light_switch/provisioner/CMakeFiles/light_switch_provisioner_nrf52832_xxAA_s132_6.1.1.dir/__/__/__/mesh/access/src/access_publish_retransmission.c.obj
                0x00035b14                access_publish_retransmission_init
 .text.access_publish_retransmission_message_add
                0x00035b38       0xf8 examples/light_switch/provisioner/CMakeFiles/light_switch_provisioner_nrf52832_xxAA_s132_6.1.1.dir/__/__/__/mesh/access/src/access_publish_retransmission.c.obj
                0x00035b38                access_publish_retransmission_message_add
 .text.bitfield_get
                0x00035c30       0x1a examples/light_switch/provisioner/CMakeFiles/light_switch_provisioner_nrf52832_xxAA_s132_6.1.1.dir/__/__/__/mesh/access/src/access.c.obj
 .text.is_valid_opcode
                0x00035c4a       0x42 examples/light_switch/provisioner/CMakeFiles/light_switch_provisioner_nrf52832_xxAA_s132_6.1.1.dir/__/__/__/mesh/access/src/access.c.obj
 .text.model_handle_valid_and_allocated
                0x00035c8c       0x20 examples/light_switch/provisioner/CMakeFiles/light_switch_provisioner_nrf52832_xxAA_s132_6.1.1.dir/__/__/__/mesh/access/src/access.c.obj
 .text.flash_manager_mem_available
                0x00035cac        0x2 examples/light_switch/provisioner/CMakeFiles/light_switch_provisioner_nrf52832_xxAA_s132_6.1.1.dir/__/__/__/mesh/access/src/access.c.obj
 *fill*         0x00035cae        0x2 
 .text.restore_acquired_subscription
                0x00035cb0       0x38 examples/light_switch/provisioner/CMakeFiles/light_switch_provisioner_nrf52832_xxAA_s132_6.1.1.dir/__/__/__/mesh/access/src/access.c.obj
 .text.restore_acquired_element
                0x00035ce8       0x1c examples/light_switch/provisioner/CMakeFiles/light_switch_provisioner_nrf52832_xxAA_s132_6.1.1.dir/__/__/__/mesh/access/src/access.c.obj
 .text.restore_flash_data
                0x00035d04       0x28 examples/light_switch/provisioner/CMakeFiles/light_switch_provisioner_nrf52832_xxAA_s132_6.1.1.dir/__/__/__/mesh/access/src/access.c.obj
 .text.check_tx_params
                0x00035d2c       0x5c examples/light_switch/provisioner/CMakeFiles/light_switch_provisioner_nrf52832_xxAA_s132_6.1.1.dir/__/__/__/mesh/access/src/access.c.obj
 .text.flash_invalidate_complete
                0x00035d88        0x6 examples/light_switch/provisioner/CMakeFiles/light_switch_provisioner_nrf52832_xxAA_s132_6.1.1.dir/__/__/__/mesh/access/src/access.c.obj
 *fill*         0x00035d8e        0x2 
 .text.access_flash_config_clear
                0x00035d90       0x3c examples/light_switch/provisioner/CMakeFiles/light_switch_provisioner_nrf52832_xxAA_s132_6.1.1.dir/__/__/__/mesh/access/src/access.c.obj
 .text.access_state_clear
                0x00035dcc       0x4c examples/light_switch/provisioner/CMakeFiles/light_switch_provisioner_nrf52832_xxAA_s132_6.1.1.dir/__/__/__/mesh/access/src/access.c.obj
 .text.packet_tx
                0x00035e18      0x204 examples/light_switch/provisioner/CMakeFiles/light_switch_provisioner_nrf52832_xxAA_s132_6.1.1.dir/__/__/__/mesh/access/src/access.c.obj
 .text.flash_write_complete
                0x0003601c       0x46 examples/light_switch/provisioner/CMakeFiles/light_switch_provisioner_nrf52832_xxAA_s132_6.1.1.dir/__/__/__/mesh/access/src/access.c.obj
 *fill*         0x00036062        0x2 
 .text.access_flash_config_store
                0x00036064      0x14c examples/light_switch/provisioner/CMakeFiles/light_switch_provisioner_nrf52832_xxAA_s132_6.1.1.dir/__/__/__/mesh/access/src/access.c.obj
                0x00036064                access_flash_config_store
 .text.bitfield_next_get.part.0.constprop.10
                0x000361b0       0x3c examples/light_switch/provisioner/CMakeFiles/light_switch_provisioner_nrf52832_xxAA_s132_6.1.1.dir/__/__/__/mesh/access/src/access.c.obj
 .text.packet_alloc_and_tx
                0x000361ec       0xbe examples/light_switch/provisioner/CMakeFiles/light_switch_provisioner_nrf52832_xxAA_s132_6.1.1.dir/__/__/__/mesh/access/src/access.c.obj
 *fill*         0x000362aa        0x2 
 .text.restore_acquired_model
                0x000362ac       0x90 examples/light_switch/provisioner/CMakeFiles/light_switch_provisioner_nrf52832_xxAA_s132_6.1.1.dir/__/__/__/mesh/access/src/access.c.obj
 .text.access_flash_config_load
                0x0003633c      0x1a0 examples/light_switch/provisioner/CMakeFiles/light_switch_provisioner_nrf52832_xxAA_s132_6.1.1.dir/__/__/__/mesh/access/src/access.c.obj
                0x0003633c                access_flash_config_load
 .text.access_incoming_handle
                0x000364dc      0x1b0 examples/light_switch/provisioner/CMakeFiles/light_switch_provisioner_nrf52832_xxAA_s132_6.1.1.dir/__/__/__/mesh/access/src/access.c.obj
                0x000364dc                access_incoming_handle
 .text.mesh_msg_handle
                0x0003668c      0x1cc examples/light_switch/provisioner/CMakeFiles/light_switch_provisioner_nrf52832_xxAA_s132_6.1.1.dir/__/__/__/mesh/access/src/access.c.obj
 .text.mesh_evt_cb
                0x00036858        0xc examples/light_switch/provisioner/CMakeFiles/light_switch_provisioner_nrf52832_xxAA_s132_6.1.1.dir/__/__/__/mesh/access/src/access.c.obj
 .text.access_packet_tx
                0x00036864       0x32 examples/light_switch/provisioner/CMakeFiles/light_switch_provisioner_nrf52832_xxAA_s132_6.1.1.dir/__/__/__/mesh/access/src/access.c.obj
                0x00036864                access_packet_tx
 .text.access_clear
                0x00036896       0x12 examples/light_switch/provisioner/CMakeFiles/light_switch_provisioner_nrf52832_xxAA_s132_6.1.1.dir/__/__/__/mesh/access/src/access.c.obj
                0x00036896                access_clear
 .text.access_model_add
                0x000368a8      0x1ac examples/light_switch/provisioner/CMakeFiles/light_switch_provisioner_nrf52832_xxAA_s132_6.1.1.dir/__/__/__/mesh/access/src/access.c.obj
                0x000368a8                access_model_add
 .text.access_model_publish
                0x00036a54       0x58 examples/light_switch/provisioner/CMakeFiles/light_switch_provisioner_nrf52832_xxAA_s132_6.1.1.dir/__/__/__/mesh/access/src/access.c.obj
                0x00036a54                access_model_publish
 .text.access_model_reply
                0x00036aac       0x1c examples/light_switch/provisioner/CMakeFiles/light_switch_provisioner_nrf52832_xxAA_s132_6.1.1.dir/__/__/__/mesh/access/src/access.c.obj
                0x00036aac                access_model_reply
 .text.access_model_publish_address_set
                0x00036ac8       0x3c examples/light_switch/provisioner/CMakeFiles/light_switch_provisioner_nrf52832_xxAA_s132_6.1.1.dir/__/__/__/mesh/access/src/access.c.obj
                0x00036ac8                access_model_publish_address_set
 .text.access_model_publish_address_get
                0x00036b04       0x28 examples/light_switch/provisioner/CMakeFiles/light_switch_provisioner_nrf52832_xxAA_s132_6.1.1.dir/__/__/__/mesh/access/src/access.c.obj
                0x00036b04                access_model_publish_address_get
 .text.access_model_publish_retransmit_set
                0x00036b2c       0x4c examples/light_switch/provisioner/CMakeFiles/light_switch_provisioner_nrf52832_xxAA_s132_6.1.1.dir/__/__/__/mesh/access/src/access.c.obj
                0x00036b2c                access_model_publish_retransmit_set
 .text.access_model_publish_retransmit_get
                0x00036b78       0x2c examples/light_switch/provisioner/CMakeFiles/light_switch_provisioner_nrf52832_xxAA_s132_6.1.1.dir/__/__/__/mesh/access/src/access.c.obj
                0x00036b78                access_model_publish_retransmit_get
 .text.access_model_publish_period_get
                0x00036ba4       0x40 examples/light_switch/provisioner/CMakeFiles/light_switch_provisioner_nrf52832_xxAA_s132_6.1.1.dir/__/__/__/mesh/access/src/access.c.obj
                0x00036ba4                access_model_publish_period_get
 .text.access_publish_timing_update
                0x00036be4       0xc0 examples/light_switch/provisioner/CMakeFiles/light_switch_provisioner_nrf52832_xxAA_s132_6.1.1.dir/__/__/__/mesh/access/src/access.c.obj
 .text.access_model_publish_period_divisor_set
                0x00036ca4       0x38 examples/light_switch/provisioner/CMakeFiles/light_switch_provisioner_nrf52832_xxAA_s132_6.1.1.dir/__/__/__/mesh/access/src/access.c.obj
                0x00036ca4                access_model_publish_period_divisor_set
 .text.access_model_publish_period_set
                0x00036cdc       0x6c examples/light_switch/provisioner/CMakeFiles/light_switch_provisioner_nrf52832_xxAA_s132_6.1.1.dir/__/__/__/mesh/access/src/access.c.obj
                0x00036cdc                access_model_publish_period_set
 .text.access_model_subscription_list_alloc
                0x00036d48       0x60 examples/light_switch/provisioner/CMakeFiles/light_switch_provisioner_nrf52832_xxAA_s132_6.1.1.dir/__/__/__/mesh/access/src/access.c.obj
                0x00036d48                access_model_subscription_list_alloc
 .text.access_model_subscription_add
                0x00036da8       0x68 examples/light_switch/provisioner/CMakeFiles/light_switch_provisioner_nrf52832_xxAA_s132_6.1.1.dir/__/__/__/mesh/access/src/access.c.obj
                0x00036da8                access_model_subscription_add
 .text.access_model_subscription_remove
                0x00036e10       0x68 examples/light_switch/provisioner/CMakeFiles/light_switch_provisioner_nrf52832_xxAA_s132_6.1.1.dir/__/__/__/mesh/access/src/access.c.obj
                0x00036e10                access_model_subscription_remove
 .text.access_model_subscriptions_get
                0x00036e78       0x7c examples/light_switch/provisioner/CMakeFiles/light_switch_provisioner_nrf52832_xxAA_s132_6.1.1.dir/__/__/__/mesh/access/src/access.c.obj
                0x00036e78                access_model_subscriptions_get
 .text.access_model_application_bind
                0x00036ef4       0x5c examples/light_switch/provisioner/CMakeFiles/light_switch_provisioner_nrf52832_xxAA_s132_6.1.1.dir/__/__/__/mesh/access/src/access.c.obj
                0x00036ef4                access_model_application_bind
 .text.access_model_application_unbind
                0x00036f50       0x5c examples/light_switch/provisioner/CMakeFiles/light_switch_provisioner_nrf52832_xxAA_s132_6.1.1.dir/__/__/__/mesh/access/src/access.c.obj
                0x00036f50                access_model_application_unbind
 .text.access_model_applications_get
                0x00036fac       0x44 examples/light_switch/provisioner/CMakeFiles/light_switch_provisioner_nrf52832_xxAA_s132_6.1.1.dir/__/__/__/mesh/access/src/access.c.obj
                0x00036fac                access_model_applications_get
 .text.access_model_publish_application_set
                0x00036ff0       0x3c examples/light_switch/provisioner/CMakeFiles/light_switch_provisioner_nrf52832_xxAA_s132_6.1.1.dir/__/__/__/mesh/access/src/access.c.obj
                0x00036ff0                access_model_publish_application_set
 .text.access_model_publish_application_get
                0x0003702c       0x28 examples/light_switch/provisioner/CMakeFiles/light_switch_provisioner_nrf52832_xxAA_s132_6.1.1.dir/__/__/__/mesh/access/src/access.c.obj
                0x0003702c                access_model_publish_application_get
 .text.access_default_ttl_set
                0x00037054       0x18 examples/light_switch/provisioner/CMakeFiles/light_switch_provisioner_nrf52832_xxAA_s132_6.1.1.dir/__/__/__/mesh/access/src/access.c.obj
                0x00037054                access_default_ttl_set
 .text.access_default_ttl_get
                0x0003706c        0xc examples/light_switch/provisioner/CMakeFiles/light_switch_provisioner_nrf52832_xxAA_s132_6.1.1.dir/__/__/__/mesh/access/src/access.c.obj
                0x0003706c                access_default_ttl_get
 .text.access_model_publish_friendship_credential_flag_set
                0x00037078       0x38 examples/light_switch/provisioner/CMakeFiles/light_switch_provisioner_nrf52832_xxAA_s132_6.1.1.dir/__/__/__/mesh/access/src/access.c.obj
                0x00037078                access_model_publish_friendship_credential_flag_set
 .text.access_model_publish_friendship_credential_flag_get
                0x000370b0       0x28 examples/light_switch/provisioner/CMakeFiles/light_switch_provisioner_nrf52832_xxAA_s132_6.1.1.dir/__/__/__/mesh/access/src/access.c.obj
                0x000370b0                access_model_publish_friendship_credential_flag_get
 .text.access_model_publish_ttl_set
                0x000370d8       0x40 examples/light_switch/provisioner/CMakeFiles/light_switch_provisioner_nrf52832_xxAA_s132_6.1.1.dir/__/__/__/mesh/access/src/access.c.obj
                0x000370d8                access_model_publish_ttl_set
 .text.access_model_publish_ttl_get
                0x00037118       0x28 examples/light_switch/provisioner/CMakeFiles/light_switch_provisioner_nrf52832_xxAA_s132_6.1.1.dir/__/__/__/mesh/access/src/access.c.obj
                0x00037118                access_model_publish_ttl_get
 .text.access_element_location_get
                0x00037140       0x18 examples/light_switch/provisioner/CMakeFiles/light_switch_provisioner_nrf52832_xxAA_s132_6.1.1.dir/__/__/__/mesh/access/src/access.c.obj
                0x00037140                access_element_location_get
 .text.access_element_sig_model_count_get
                0x00037158       0x18 examples/light_switch/provisioner/CMakeFiles/light_switch_provisioner_nrf52832_xxAA_s132_6.1.1.dir/__/__/__/mesh/access/src/access.c.obj
                0x00037158                access_element_sig_model_count_get
 .text.access_element_vendor_model_count_get
                0x00037170       0x18 examples/light_switch/provisioner/CMakeFiles/light_switch_provisioner_nrf52832_xxAA_s132_6.1.1.dir/__/__/__/mesh/access/src/access.c.obj
                0x00037170                access_element_vendor_model_count_get
 .text.access_model_id_get
                0x00037188       0x2c examples/light_switch/provisioner/CMakeFiles/light_switch_provisioner_nrf52832_xxAA_s132_6.1.1.dir/__/__/__/mesh/access/src/access.c.obj
                0x00037188                access_model_id_get
 .text.access_handle_get
                0x000371b4       0x54 examples/light_switch/provisioner/CMakeFiles/light_switch_provisioner_nrf52832_xxAA_s132_6.1.1.dir/__/__/__/mesh/access/src/access.c.obj
                0x000371b4                access_handle_get
 .text.access_element_models_get
                0x00037208       0x54 examples/light_switch/provisioner/CMakeFiles/light_switch_provisioner_nrf52832_xxAA_s132_6.1.1.dir/__/__/__/mesh/access/src/access.c.obj
                0x00037208                access_element_models_get
 .text.access_model_p_args_get
                0x0003725c       0x28 examples/light_switch/provisioner/CMakeFiles/light_switch_provisioner_nrf52832_xxAA_s132_6.1.1.dir/__/__/__/mesh/access/src/access.c.obj
                0x0003725c                access_model_p_args_get
 .text.access_model_publication_stop
                0x00037284       0x58 examples/light_switch/provisioner/CMakeFiles/light_switch_provisioner_nrf52832_xxAA_s132_6.1.1.dir/__/__/__/mesh/access/src/access.c.obj
                0x00037284                access_model_publication_stop
 .text.access_model_publication_by_appkey_stop
                0x000372dc       0x36 examples/light_switch/provisioner/CMakeFiles/light_switch_provisioner_nrf52832_xxAA_s132_6.1.1.dir/__/__/__/mesh/access/src/access.c.obj
                0x000372dc                access_model_publication_by_appkey_stop
 .text.access_flash_area_get
                0x00037312        0xc examples/light_switch/provisioner/CMakeFiles/light_switch_provisioner_nrf52832_xxAA_s132_6.1.1.dir/__/__/__/mesh/access/src/access.c.obj
                0x00037312                access_flash_area_get
 *fill*         0x0003731e        0x2 
 .text.add_flash_manager
                0x00037320       0x54 examples/light_switch/provisioner/CMakeFiles/light_switch_provisioner_nrf52832_xxAA_s132_6.1.1.dir/__/__/__/mesh/access/src/access.c.obj
 .text.access_init
                0x00037374       0x34 examples/light_switch/provisioner/CMakeFiles/light_switch_provisioner_nrf52832_xxAA_s132_6.1.1.dir/__/__/__/mesh/access/src/access.c.obj
                0x00037374                access_init
 .text.flash_remove_complete
                0x000373a8       0x60 examples/light_switch/provisioner/CMakeFiles/light_switch_provisioner_nrf52832_xxAA_s132_6.1.1.dir/__/__/__/mesh/access/src/access.c.obj
 .text.reliable_timer_cb
                0x00037408      0x18c examples/light_switch/provisioner/CMakeFiles/light_switch_provisioner_nrf52832_xxAA_s132_6.1.1.dir/__/__/__/mesh/access/src/access_reliable.c.obj
 .text.remove_and_reschedule
                0x00037594       0xac examples/light_switch/provisioner/CMakeFiles/light_switch_provisioner_nrf52832_xxAA_s132_6.1.1.dir/__/__/__/mesh/access/src/access_reliable.c.obj
 .text.access_reliable_message_rx_cb
                0x00037640       0x60 examples/light_switch/provisioner/CMakeFiles/light_switch_provisioner_nrf52832_xxAA_s132_6.1.1.dir/__/__/__/mesh/access/src/access_reliable.c.obj
                0x00037640                access_reliable_message_rx_cb
 .text.access_reliable_init
                0x000376a0       0x1c examples/light_switch/provisioner/CMakeFiles/light_switch_provisioner_nrf52832_xxAA_s132_6.1.1.dir/__/__/__/mesh/access/src/access_reliable.c.obj
                0x000376a0                access_reliable_init
 .text.access_reliable_cancel_all
                0x000376bc       0x5c examples/light_switch/provisioner/CMakeFiles/light_switch_provisioner_nrf52832_xxAA_s132_6.1.1.dir/__/__/__/mesh/access/src/access_reliable.c.obj
                0x000376bc                access_reliable_cancel_all
 .text.access_model_reliable_cancel
                0x00037718       0x68 examples/light_switch/provisioner/CMakeFiles/light_switch_provisioner_nrf52832_xxAA_s132_6.1.1.dir/__/__/__/mesh/access/src/access_reliable.c.obj
                0x00037718                access_model_reliable_cancel
 .text.access_model_reliable_publish
                0x00037780      0x1a0 examples/light_switch/provisioner/CMakeFiles/light_switch_provisioner_nrf52832_xxAA_s132_6.1.1.dir/__/__/__/mesh/access/src/access_reliable.c.obj
                0x00037780                access_model_reliable_publish
 .text.bitfield_get
                0x00037920       0x1a examples/light_switch/provisioner/CMakeFiles/light_switch_provisioner_nrf52832_xxAA_s132_6.1.1.dir/__/__/__/mesh/access/src/device_state_manager.c.obj
 .text.bitfield_set
                0x0003793a       0x18 examples/light_switch/provisioner/CMakeFiles/light_switch_provisioner_nrf52832_xxAA_s132_6.1.1.dir/__/__/__/mesh/access/src/device_state_manager.c.obj
 .text.bitfield_clear
                0x00037952       0x1a examples/light_switch/provisioner/CMakeFiles/light_switch_provisioner_nrf52832_xxAA_s132_6.1.1.dir/__/__/__/mesh/access/src/device_state_manager.c.obj
 .text.bitfield_is_all_clear
                0x0003796c       0x38 examples/light_switch/provisioner/CMakeFiles/light_switch_provisioner_nrf52832_xxAA_s132_6.1.1.dir/__/__/__/mesh/access/src/device_state_manager.c.obj
 .text.dev_key_handle_get
                0x000379a4       0x58 examples/light_switch/provisioner/CMakeFiles/light_switch_provisioner_nrf52832_xxAA_s132_6.1.1.dir/__/__/__/mesh/access/src/device_state_manager.c.obj
 .text.addr_nonvirtual_to_flash_entry
                0x000379fc       0x10 examples/light_switch/provisioner/CMakeFiles/light_switch_provisioner_nrf52832_xxAA_s132_6.1.1.dir/__/__/__/mesh/access/src/device_state_manager.c.obj
 .text.devkey_set
                0x00037a0c       0x4c examples/light_switch/provisioner/CMakeFiles/light_switch_provisioner_nrf52832_xxAA_s132_6.1.1.dir/__/__/__/mesh/access/src/device_state_manager.c.obj
 .text.devkey_to_dsm_entry
                0x00037a58       0x16 examples/light_switch/provisioner/CMakeFiles/light_switch_provisioner_nrf52832_xxAA_s132_6.1.1.dir/__/__/__/mesh/access/src/device_state_manager.c.obj
 *fill*         0x00037a6e        0x2 
 .text.devkey_to_flash_entry
                0x00037a70       0x28 examples/light_switch/provisioner/CMakeFiles/light_switch_provisioner_nrf52832_xxAA_s132_6.1.1.dir/__/__/__/mesh/access/src/device_state_manager.c.obj
 .text.addr_virtual_to_flash_entry
                0x00037a98       0x18 examples/light_switch/provisioner/CMakeFiles/light_switch_provisioner_nrf52832_xxAA_s132_6.1.1.dir/__/__/__/mesh/access/src/device_state_manager.c.obj
 .text.addr_unicast_to_dsm_entry
                0x00037ab0        0xc examples/light_switch/provisioner/CMakeFiles/light_switch_provisioner_nrf52832_xxAA_s132_6.1.1.dir/__/__/__/mesh/access/src/device_state_manager.c.obj
 .text.addr_unicast_to_flash_entry
                0x00037abc       0x10 examples/light_switch/provisioner/CMakeFiles/light_switch_provisioner_nrf52832_xxAA_s132_6.1.1.dir/__/__/__/mesh/access/src/device_state_manager.c.obj
 .text.flash_read_callback
                0x00037acc       0xa8 examples/light_switch/provisioner/CMakeFiles/light_switch_provisioner_nrf52832_xxAA_s132_6.1.1.dir/__/__/__/mesh/access/src/device_state_manager.c.obj
 .text.flash_mem_listener_callback
                0x00037b74       0x14 examples/light_switch/provisioner/CMakeFiles/light_switch_provisioner_nrf52832_xxAA_s132_6.1.1.dir/__/__/__/mesh/access/src/device_state_manager.c.obj
 .text.get_subnet_handle
                0x00037b88       0x34 examples/light_switch/provisioner/CMakeFiles/light_switch_provisioner_nrf52832_xxAA_s132_6.1.1.dir/__/__/__/mesh/access/src/device_state_manager.c.obj
 .text.appkey_set
                0x00037bbc       0x70 examples/light_switch/provisioner/CMakeFiles/light_switch_provisioner_nrf52832_xxAA_s132_6.1.1.dir/__/__/__/mesh/access/src/device_state_manager.c.obj
 .text.appkey_to_flash_entry
                0x00037c2c       0x54 examples/light_switch/provisioner/CMakeFiles/light_switch_provisioner_nrf52832_xxAA_s132_6.1.1.dir/__/__/__/mesh/access/src/device_state_manager.c.obj
 .text.subnet_to_flash_entry
                0x00037c80       0x60 examples/light_switch/provisioner/CMakeFiles/light_switch_provisioner_nrf52832_xxAA_s132_6.1.1.dir/__/__/__/mesh/access/src/device_state_manager.c.obj
 .text.bitfield_clear_all
                0x00037ce0        0xe examples/light_switch/provisioner/CMakeFiles/light_switch_provisioner_nrf52832_xxAA_s132_6.1.1.dir/__/__/__/mesh/access/src/device_state_manager.c.obj
 *fill*         0x00037cee        0x2 
 .text.subnet_set
                0x00037cf0       0x98 examples/light_switch/provisioner/CMakeFiles/light_switch_provisioner_nrf52832_xxAA_s132_6.1.1.dir/__/__/__/mesh/access/src/device_state_manager.c.obj
 .text.virtual_address_set
                0x00037d88       0x4c examples/light_switch/provisioner/CMakeFiles/light_switch_provisioner_nrf52832_xxAA_s132_6.1.1.dir/__/__/__/mesh/access/src/device_state_manager.c.obj
 .text.addr_virtual_to_dsm_entry
                0x00037dd4        0xe examples/light_switch/provisioner/CMakeFiles/light_switch_provisioner_nrf52832_xxAA_s132_6.1.1.dir/__/__/__/mesh/access/src/device_state_manager.c.obj
 *fill*         0x00037de2        0x2 
 .text.reset_flash_area
                0x00037de4       0x28 examples/light_switch/provisioner/CMakeFiles/light_switch_provisioner_nrf52832_xxAA_s132_6.1.1.dir/__/__/__/mesh/access/src/device_state_manager.c.obj
 .text.flash_save
                0x00037e0c       0x7c examples/light_switch/provisioner/CMakeFiles/light_switch_provisioner_nrf52832_xxAA_s132_6.1.1.dir/__/__/__/mesh/access/src/device_state_manager.c.obj
 .text.flash_invalidate
                0x00037e88       0x64 examples/light_switch/provisioner/CMakeFiles/light_switch_provisioner_nrf52832_xxAA_s132_6.1.1.dir/__/__/__/mesh/access/src/device_state_manager.c.obj
 .text.flash_update_all
                0x00037eec       0x6c examples/light_switch/provisioner/CMakeFiles/light_switch_provisioner_nrf52832_xxAA_s132_6.1.1.dir/__/__/__/mesh/access/src/device_state_manager.c.obj
 .text.get_subnet_handle_by_beacon_info
                0x00037f58       0x24 examples/light_switch/provisioner/CMakeFiles/light_switch_provisioner_nrf52832_xxAA_s132_6.1.1.dir/__/__/__/mesh/access/src/device_state_manager.c.obj
 .text.get_app_handle
                0x00037f7c       0x40 examples/light_switch/provisioner/CMakeFiles/light_switch_provisioner_nrf52832_xxAA_s132_6.1.1.dir/__/__/__/mesh/access/src/device_state_manager.c.obj
 .text.appkey_to_dsm_entry
                0x00037fbc       0x68 examples/light_switch/provisioner/CMakeFiles/light_switch_provisioner_nrf52832_xxAA_s132_6.1.1.dir/__/__/__/mesh/access/src/device_state_manager.c.obj
 .text.subnet_to_dsm_entry
                0x00038024       0x68 examples/light_switch/provisioner/CMakeFiles/light_switch_provisioner_nrf52832_xxAA_s132_6.1.1.dir/__/__/__/mesh/access/src/device_state_manager.c.obj
 .text.flash_operation_complete
                0x0003808c       0x4c examples/light_switch/provisioner/CMakeFiles/light_switch_provisioner_nrf52832_xxAA_s132_6.1.1.dir/__/__/__/mesh/access/src/device_state_manager.c.obj
 .text.flash_invalidate_complete
                0x000380d8        0x8 examples/light_switch/provisioner/CMakeFiles/light_switch_provisioner_nrf52832_xxAA_s132_6.1.1.dir/__/__/__/mesh/access/src/device_state_manager.c.obj
 .text.flash_write_complete
                0x000380e0        0x8 examples/light_switch/provisioner/CMakeFiles/light_switch_provisioner_nrf52832_xxAA_s132_6.1.1.dir/__/__/__/mesh/access/src/device_state_manager.c.obj
 .text.bitfield_next_get.part.0.constprop.23
                0x000380e8       0x38 examples/light_switch/provisioner/CMakeFiles/light_switch_provisioner_nrf52832_xxAA_s132_6.1.1.dir/__/__/__/mesh/access/src/device_state_manager.c.obj
 .text.add_address
                0x00038120      0x108 examples/light_switch/provisioner/CMakeFiles/light_switch_provisioner_nrf52832_xxAA_s132_6.1.1.dir/__/__/__/mesh/access/src/device_state_manager.c.obj
 .text.virtual_address_uuid_index_get
                0x00038228       0x38 examples/light_switch/provisioner/CMakeFiles/light_switch_provisioner_nrf52832_xxAA_s132_6.1.1.dir/__/__/__/mesh/access/src/device_state_manager.c.obj
 .text.add_address_virtual
                0x00038260       0x74 examples/light_switch/provisioner/CMakeFiles/light_switch_provisioner_nrf52832_xxAA_s132_6.1.1.dir/__/__/__/mesh/access/src/device_state_manager.c.obj
 .text.net_key_handle_get
                0x000382d4       0x30 examples/light_switch/provisioner/CMakeFiles/light_switch_provisioner_nrf52832_xxAA_s132_6.1.1.dir/__/__/__/mesh/access/src/device_state_manager.c.obj
 .text.app_key_handle_get
                0x00038304       0x30 examples/light_switch/provisioner/CMakeFiles/light_switch_provisioner_nrf52832_xxAA_s132_6.1.1.dir/__/__/__/mesh/access/src/device_state_manager.c.obj
 .text.address_handle_virtual_valid
                0x00038334       0x14 examples/light_switch/provisioner/CMakeFiles/light_switch_provisioner_nrf52832_xxAA_s132_6.1.1.dir/__/__/__/mesh/access/src/device_state_manager.c.obj
 .text.address_handle_valid
                0x00038348       0x2c examples/light_switch/provisioner/CMakeFiles/light_switch_provisioner_nrf52832_xxAA_s132_6.1.1.dir/__/__/__/mesh/access/src/device_state_manager.c.obj
 .text.address_delete_if_unused
                0x00038374       0x78 examples/light_switch/provisioner/CMakeFiles/light_switch_provisioner_nrf52832_xxAA_s132_6.1.1.dir/__/__/__/mesh/access/src/device_state_manager.c.obj
 .text.addr_nonvirtual_to_dsm_entry
                0x000383ec       0x34 examples/light_switch/provisioner/CMakeFiles/light_switch_provisioner_nrf52832_xxAA_s132_6.1.1.dir/__/__/__/mesh/access/src/device_state_manager.c.obj
 .text.dsm_flash_config_load
                0x00038420       0x7c examples/light_switch/provisioner/CMakeFiles/light_switch_provisioner_nrf52832_xxAA_s132_6.1.1.dir/__/__/__/mesh/access/src/device_state_manager.c.obj
                0x00038420                dsm_flash_config_load
 .text.dsm_flash_area_get
                0x0003849c        0xc examples/light_switch/provisioner/CMakeFiles/light_switch_provisioner_nrf52832_xxAA_s132_6.1.1.dir/__/__/__/mesh/access/src/device_state_manager.c.obj
                0x0003849c                dsm_flash_area_get
 .text.build_flash_area
                0x000384a8       0x94 examples/light_switch/provisioner/CMakeFiles/light_switch_provisioner_nrf52832_xxAA_s132_6.1.1.dir/__/__/__/mesh/access/src/device_state_manager.c.obj
 .text.flash_remove_complete
                0x0003853c        0x4 examples/light_switch/provisioner/CMakeFiles/light_switch_provisioner_nrf52832_xxAA_s132_6.1.1.dir/__/__/__/mesh/access/src/device_state_manager.c.obj
 .text.dsm_clear
                0x00038540       0xa8 examples/light_switch/provisioner/CMakeFiles/light_switch_provisioner_nrf52832_xxAA_s132_6.1.1.dir/__/__/__/mesh/access/src/device_state_manager.c.obj
                0x00038540                dsm_clear
 .text.dsm_init
                0x000385e8       0x3c examples/light_switch/provisioner/CMakeFiles/light_switch_provisioner_nrf52832_xxAA_s132_6.1.1.dir/__/__/__/mesh/access/src/device_state_manager.c.obj
                0x000385e8                dsm_init
 .text.dsm_local_unicast_addresses_set
                0x00038624       0x78 examples/light_switch/provisioner/CMakeFiles/light_switch_provisioner_nrf52832_xxAA_s132_6.1.1.dir/__/__/__/mesh/access/src/device_state_manager.c.obj
                0x00038624                dsm_local_unicast_addresses_set
 .text.dsm_local_unicast_addresses_get
                0x0003869c       0x20 examples/light_switch/provisioner/CMakeFiles/light_switch_provisioner_nrf52832_xxAA_s132_6.1.1.dir/__/__/__/mesh/access/src/device_state_manager.c.obj
                0x0003869c                dsm_local_unicast_addresses_get
 .text.dsm_address_publish_add
                0x000386bc        0x6 examples/light_switch/provisioner/CMakeFiles/light_switch_provisioner_nrf52832_xxAA_s132_6.1.1.dir/__/__/__/mesh/access/src/device_state_manager.c.obj
                0x000386bc                dsm_address_publish_add
 *fill*         0x000386c2        0x2 
 .text.dsm_address_publish_add_handle
                0x000386c4       0x38 examples/light_switch/provisioner/CMakeFiles/light_switch_provisioner_nrf52832_xxAA_s132_6.1.1.dir/__/__/__/mesh/access/src/device_state_manager.c.obj
                0x000386c4                dsm_address_publish_add_handle
 .text.dsm_address_publish_virtual_add
