:0200000270008C
:1080000000FD002099C50700C1C50700C5AB0700EA
:10801000C5C50700C7C50700C9C5070000000000A7
:10802000000000000000000000000000CBC50700B9
:10803000CDC5070000000000CFC50700D1C507006F
:10804000D3C50700BDB30700D3C50700D3C50700DC
:10805000D3C50700D3C50700D3C50700D3C50700A4
:10806000D3C50700D3C50700D3C507000991070092
:10807000D3C50700D3C50700D3C50700D3C5070084
:10808000D3C50700D3C50700D3C50700D3C5070074
:1080900065B40700D3C50700D3C5070045830700B3
:1080A000D3C50700D3C50700D3C50700D3C5070054
:1080B000D3C50700D3C50700000000000000000082
:1080C000D3C50700D3C50700D3C50700D3C5070034
:1080D000D3C50700D3C50700D3C5070000000000C3
:1080E0000000000000000000000000000000000090
:1080F0000000000000000000000000000000000080
:10810000000000000000000000000000000000006F
:10811000000000000000000000000000000000005F
:10812000000000000000000000000000000000004F
:10813000000000000000000000000000000000003F
:10814000000000000000000000000000000000002F
:10815000000000000000000000000000000000001F
:10816000000000000000000000000000000000000F
:1081700000000000000000000000000000000000FF
:1081800000000000000000000000000000000000EF
:1081900000000000000000000000000000000000DF
:1081A00000000000000000000000000000000000CF
:1081B00000000000000000000000000000000000BF
:1081C00000000000000000000000000000000000AF
:1081D000000000000000000000000000000000009F
:1081E000000000000000000000000000000000008F
:1081F000000000000000000000000000000000007F
:1082000010B5054C237833B9044B13B10448AFF3D0
:1082100000800123237010BD7C00002000000000BE
:108220007CCB07000C4B43B10C480D4910B5AFF3A4
:1082300000800C48036823B910BD0A48036833B9AD
:108240007047094B002BF7D0BDE810401847064B8C
:10825000002BF5D0184700BF000000007CCB0700C2
:10826000800000207800002000000000154B002B4B
:1082700008BF134B9D46A3F5803A00218B460F465D
:108280001348144A121A04F097FB0F4B002B00D02E
:1082900098470E4B002B00D0984700200021040087
:1082A0000D000D48002802D00C48AFF3008004F008
:1082B00045FB2000290002F089FC04F02BFB00BFE5
:1082C0000000080000FD0020000000000000000089
:1082D0007C0000200C0800200000000000000000CE
:1082E00013DF704718DF7047084A0023C2F8443193
:1082F000D2F80435184420F07F404FF40033C2F820
:108300004405C2F80433024B1970704700B00040B6
:10831000310100207FB502F033FD78B182884FF63D
:10832000EF739A420AD902238DF80030031D01939E
:1083300003786846033B029300F0B0FA07B05DF89B
:1083400004FB000070B5324D8AB0002461266946F6
:10835000284602F0DBFBA8B12CB10AA8622300F882
:10836000183D00F09BFA2A4802F023FC40B1294B4B
:108370001B782BB1122000F063FD006800F000FFB5
:108380000AB070BD9DF80030012B04F101042FD11B
:10839000019B990701D002F012FC039B9A0702D0BF
:1083A000002002F00CFC029B9B0702D0002002F090
:1083B00006FC0198B0F1005F14D3034603991A1A22
:1083C000914208D860238DF81030029B059304A8D1
:1083D00000F064FABBE702998A5C19780A4003F856
:1083E000012BEBE70023039A029902F01DFDE9E758
:1083F0000198B0F1005F07D3029AFF2104F0DCFA84
:108400008DF81060019BE1E7029902F0DDFCF7E7CF
:10841000980000203001002030B5214C89B000F0D8
:1084200097FE00211822204604F0C6FA1D4B236057
:108430000825102320466360A56002F031FB1A4B2B
:10844000602283F817234FF400021A6000F0CAFA82
:108450000023012215498DF808300DEB05008DF839
:108460000C2004918DF814208DF815508DF81630DD
:1084700000F014FA08B102F0A2FB0D490D4802F019
:10848000A1FF0DF1070000F0FBFF9DF8073023B1BD
:108490004FF080430022C3F81C2509B030BD00BF57
:1084A00098000020B000002000E100E019860700DD
:1084B000D6BE898E1583070070B58AB00AA801233D
:1084C00000F8183D00F0EAF902F0C2FF01F0A0FE4A
:1084D00030B103214FF4A020FFF706FF0AB070BDB2
:1084E000042000F0ADFC0546122000F0A9FC064671
:1084F000102000F0A5FC0446022000F0E5FF002853
:10850000ECD04FF0FF3300932B785A0706D5336831
:108510001B68013304BF6FF0040300932B78DB0763
:1085200009D523681B68013305D163681BB1009B23
:1085300023F001030093009B013303D0694604201C
:1085400000F083FC01F03EFE05460028C6D000F096
:10855000BBFF0528C2D1022000F072FC044608B916
:1085600002F02DFB012D05D0042D0DD00B2002F0C3
:1085700026FB02E02388ADF804304FF0FF3201A95A
:10858000284601F065FCA9E7201D07C801AB03C31D
:108590001A80F2E700F082B97FB50446122000F09D
:1085A0004FFC0A2C05460AD8012606FA04F340F2CD
:1085B0004340184005D1DB0501D502F000FB72B63F
:1085C000FEE705B301F024FEE8B1114802F0F1FA2C
:1085D000D8B102F053FA02F013FD102200216846D0
:1085E00004F0EAF9022368460093FFF77BFE08B126
:1085F00002F0E5FA2868FFF773FE08B102F0DFFA2F
:10860000286800F0BDFD04B070BD024B1E70FAE793
:10861000980000203001002030B50378252B87B06A
:10862000054600F0F28013D8212B00F0868006D892
:10863000022B00F0B980202B40D0062077E0232BBE
:1086400000F0DF8040F2BB8001214FF4702032E067
:10865000602B3AD022D8502B00F0E580512BECD182
:108660004368990740F0DB8083689A0740F0D78021
:10867000C3689B0740F0D58006AC012304F8183D81
:10868000291D0C2201A804F08CF921466A4802F049
:1086900016FA002800F0CA80042048E0622B48D077
:1086A00001D3702BC9D1A968644AC8030023490CBF
:1086B00003F0A8FF0221FFF717FE04E00079FFF79F
:1086C0006BFF01F051FB002031E006A8002340F8C9
:1086D000183D02F0CDFA0028DED0009802F03CFBF5
:1086E000009B1A78022161F303021A70AB68009AAA
:1086F0000A335370009816238372E423C372FE2357
:108700000373AB6803334372AA6869680D3004F0E1
:1087100048F92B7B6A7BA97B009802F0C9FE0446CE
:10872000009802F0E5FA002C14BF0020032007B0E7
:1087300030BD007902F0F6FEC5E7414B4FF4003240
:10874000C3F808233F4B00221A700379022B07D18C
:1087500006A8232300F8183DFFF71CFF01232B7107
:108760002B79012BAFD1AC1D6979204602F07DF841
:108770000028A8D0022000F063FB08B902F01FFA1D
:108780003148202303704FF0FF3303616B7903718D
:108790002368C0F805306368C0F809302389A0F861
:1087A0000D3000F07BF8C2E70579022D8BD101F086
:1087B0002FFD002887D1284600F086FE83E7037945
:1087C000022B80D11E4B4FF40032C3F808231D4BFF
:1087D00000241C7021238DF80030034653F8072F26
:1087E000CDF805205A681B89ADF80D3083798DF8D6
:1087F00004304369CDF8092068460493FFF7CAFEA8
:1088000061E701214FF4202055E74379042B02D082
:10881000012B7FF458AF0020FFF7BEFE53E7102076
:1088200085E7092083E706AC022327E7074B4FF4CF
:108830000002C3F800217AE79800002040420F00B0
:1088400000B00040310100203401002000E100E0D0
:1088500010B5114C2278022A86B007D0032A11D015
:10886000012A14D123238DF8003005E003238DF86D
:10887000003000238DF80430002368462370FFF792
:1088800089FE02E00020FFF787FE06B010BD082039
:1088900002F095F9F0E700BF3101002030B5037810
:1088A000222B8BB0044615D016D8032B59D009D8EB
:1088B000012B52D034D901894068012201F008FB14
:1088C000054647E0202B5DD062D8042B4CD0062013
:1088D00002F075F906253DE0312B66D00CD8242B2B
:1088E0005FD05BD3302BF2D1808800F0A9FAA06072
:1088F000002834D105252DE0602B60D005D8322B1F
:10890000E5D1808800F0B6FA29E0612B5FD0622BB8
:10891000DDD100F0D9FB00F0FBFD01F0A9FD1EE068
:108920002E4B82681A60837B2D4A83F001031370FB
:10893000037B002B4ED0437B012B4BD94FF4FC2102
:108940004FF4FE2000F016FA0546002844D1607B63
:1089500001F0E8F928460BB030BD01F005FA00251A
:10896000F8E701F017FDFAE70AAD0023011D102218
:1089700002A805F8243D04F014F8184B28461B689B
:1089800098479DE70269411D007901F061FA97E778
:108990000269411D007901F075FA91E701F066FD69
:1089A000DDE7007900F090FD8AE7C2688168808881
:1089B00000F086FAB0F5FE2FD1D21025CAE7406844
:1089C00001F0ECFE6168012000F0F2FAC7E74168AF
:1089D0000220F9E70725BDE70325BBE708FD0020D6
:1089E0000CFD00204FF08053064AD3F80C3103F5FC
:1089F00000239B02002043F8042C034B01221A7031
:108A0000704700BF9D8807000CFD0020024B1B68CB
:108A100003B118470820704708FD002000B58BB04F
:108A200020238DF8080001A88DF80430FFF7EEFF31
:108A30000BB05DF804FB70B58AB006460D461446CF
:108A40000021242201A803F0B7FF512301A88DF8CB
:108A50000430029603950494FFF7D8FF0AB070BD66
:108A600030B58BB005460C462422002101A803F046
:108A7000A3FF502301A88DF8043002950394FFF75B
:108A8000C5FF0BB030BD00B58BB062238DF8080078
:108A900001A88DF80430FFF7B9FF0BB05DF804FBB7
:108AA000024B187880F00100704700BF0CFD0020D9
:108AB00030B50278FF2A17D0024440F6010300F5D2
:108AC000805047F6FF7455888D4201D1101D30BD8E
:108AD000158802EB8502904206D35588A54201D144
:108AE000A14201D1013BEED1002030BD48B1B0F52B
:108AF000002F05D0034B1B685B78A0EB8300704709
:108B00000020704734FD002008B547F6FF71FFF7DD
:108B1000CFFF18B1BDE80840FFF7E8BF08BD00006F
:108B2000830710B5044602D0102002F048F8204612
:108B300004220249BDE81040FFF77DBFE4C90700E9
:108B400010B5064C02230422A16860682370FFF769
:108B500072FF08B10123237610BD00BF10FD002075
:108B6000F8B51B4F4FF6FF763C46BB68FA6803F535
:108B700080539A4204D30123237604232370F8BD43
:108B80005388B342F7D0E3B1158847F6FF7293429A
:108B9000236914BFAD0004255A19636803F5805397
:108BA0009A4202D9032002F00AF82A46E1682069B5
:108BB000FFF741FF0028E2D1E368636123691D44A8
:108BC0002561E3681A8803EB8203E360CDE700BF09
:108BD00010FD002010B50A4C22787AB901232370C9
:108BE000084B60601B78A16023B94FF48051FFF7F8
:108BF00037FF20B101232376002010BD082010BDCF
:108C000010FD00202DFD00200C4A038802F1800198
:108C100000EB83000A4B8842186008BF1A601A688C
:108C2000084B1B689A4208D0A3EB0203C3F38F03DF
:108C300088BF2033138000235380704738FD002005
:108C4000B8FD0020BCFD002038B50B4B1B78012B74
:108C500004460D4602D0002001F0B1FF294620460F
:108C6000FFF726FFFFF742FF18B1BDE83840FFF7D6
:108C700057BF052038BD00BF2CFD00202DE9F74F60
:108C80009DF83080019103334FEA8807924623F024
:108C900003063A1D81463244EFF3108B72B6DFF8BB
:108CA000D0E0DEF8004023889B009A4201D860881B
:108CB00028B1BBF1000F00D162B6042034E02A498C
:108CC0000D68AC42294D32D1CEF800500D609208AB
:108CD00068802A802846FFF797FFBBF1000F41D13B
:108CE00062B62C46B8F1000F08D0A5190822FF2162
:108CF000284603F061FE47F6FF73EB80F51DAB08D5
:108D00002380BDF80430638032465146201D03F0B5
:108D100048FE25F003023A4421464846FFF78BFE01
:108D200008B101F04CFF002003B0BDE8F08F05F161
:108D30008001091B8A420AD95B1A9A42B9D847F6C0
:108D4000FF73890863802180CEF80050BFE7920846
:108D5000608022802046FFF757FFBBF1000FC1D192
:108D600062B6BFE7014CBDE7BCFD002038FD002026
:108D7000B8FD00202DE9F041284F40EA010500230D
:108D8000C5F30B053B70002D41D1DFF8AC80244CBE
:108D9000244E2060802231604046294603F00CFEBC
:108DA000214B2068C3F80080204BC3F800802023AB
:108DB000A8F80030FFF7A8FEDFF880802946C8F841
:108DC00000001C221A4803F0F7FD1A4B1D70D8F85A
:108DD00000303546B3B93068FFF796FE0646C8B195
:108DE0004FF480512068FFF73BFE08B101F0E7FE29
:108DF00029682068C1F104023244FFF71CFE08B163
:108E000001F0DDFE01233B700020BDE8F081102061
:108E1000BDE8F0810B20BDE8F08100BF2CFD0020F3
:108E200034FD002030FD0020B8FD0020BCFD0020F6
:108E300010FD00202DFD002038FD0020C0FD002089
:108E400001464FF4FE20FFF733BE37B50D4604460A
:108E5000FFF7F6FFFFF74AFE50B1038800229B00A0
:108E60000092043B2A462146FFF708FF03B030BDBD
:108E70000520FBE701464FF4FE20FFF7E5BE0000AA
:108E800010B50B4C2378012B02D0002001F097FE87
:108E900004232370074B1968074B0A1D1A60074B00
:108EA0001868FFF797FE08B90323237010BD00BFB1
:108EB0002CFD002034FD0020C0FD002030FD0020EE
:108EC0002DE9F3472E4B1B78012B81468A46164627
:108ED00002D0002001F073FE542E02D9002001F0D0
:108EE0006EFE284D2B689B0702D0002001F067FE24
:108EF0002B68B3F5FE2F02D8002001F060FE484633
:108F0000FFF79EFFFFF7F2FD2C68804634B90E2074
:108F100001F055FE002002B0BDE8F0871A4F3B6813
:108F200004F10802324403F580539A4201D3082029
:108F3000EEE7164A01231370494600935246334622
:108F40002046FFF79BFE08B10420E1E72B680736B7
:108F500026F003061E442E60B8F1000F04D04046F0
:108F6000FFF7DEFD0028EFD12A683B68583203F591
:108F700080539A4201D3FFF783FF201DCBE700BF48
:108F80002CFD0020C0FD002034FD00202DFD002020
:108F9000054B1B78012B05BF044B1878002080F08F
:108FA000010000F0010070472CFD00202DFD002085
:108FB00001282DE9F04106460D4632D13A4FB9421B
:108FC0002FD307F18003994298462AD2374C236861
:108FD000994202D0102001F0F2FDEFF3108272B638
:108FE000236819884FF6FF739942314B18BF2888C0
:108FF00019680B8814BF1B1801330B802B8805EBF5
:109000008303434508BF3B466FF000401968236067
:10901000814204D10433434508BF3B46236002B973
:1090200062B6244C2378013B032B0AD8DFE803F017
:10903000021A2629022E04D163689D4201D1FFF74E
:109040007FFD237863B91C4C2378032B21D11B4B64
:1090500019681B4B1868FFF7BDFD08B9052323707D
:10906000BDE8F081012EECD1A3689D42E9D1032334
:109070002370636804350433E5602361FFF770FDF6
:10908000DFE7012EDDD163699D4204BF0023237019
:10909000D7E7052BE4D10A4B1868FFF735FD094BDC
:1090A00018600123DBE700BF38FD0020BCFD002075
:1090B000B8FD002010FD00202CFD002030FD002018
:1090C00034FD0020C0FD00200C4B002119700C4B1A
:1090D0001B6859800B4B1A7872B1187E60B1012A57
:1090E000197602D0022A05D070474FF48051586893
:1090F000FFF7B6BCFFF724BD704700BF2DFD002071
:10910000B8FD002010FD002010B5104CD4F84031FF
:1091100043B1D4F80433DA0304D50023C4F8403152
:1091200002F020FAD4F8443173B1D4F804339B032D
:109130000AD50023C4F844314FF40033C4F808338F
:10914000BDE81040FFF784BB10BD00BF00B0004079
:10915000094B0022C3F808254FF44032C3F84423DA
:1091600001229A601A60054B202283F80B234FF4EA
:1091700000621A60704700BF00B0004000E100E0EC
:10918000F0B50346186880F308885868FF2464B275
:10919000EFF30585002D01D1A6460047254606467A
:1091A00021273FBAF0B40024002500260027F0B4A0
:1091B000F92040B2004700BFF0BD00BF18DF704784
:1091C0002DE9F041A94D2C68C0B0002C6FD0EFF311
:1091D000108772B65422214601A803F0E2FBE37C1B
:1091E000F83B072B61D8DFE813F03701600060001F
:1091F0006000BC006000150008009D4B01221A7041
:10920000FE238DF817309B4B187801A92030FFF70B
:109210001CFE4AE0974D964E012333702B7840A9EF
:10922000DB4341F8A83D0420FFF70FFE95F80080CE
:10923000B8F1020F1ED0B8F1040F3BD0B8F1010F06
:1092400040F08B8010202668FFF7FAFD6268016805
:10925000304603F097FB00287AD001F00FFC62B68D
:10926000CDF8AC8023682C9363689B082E934FF451
:10927000805313E011202668FFF7E2FD6268016861
:10928000304603F07FFB002862D001F0F7FB62B6A6
:1092900000232B9323682C9363689B082BA82D93A2
:1092A000FFF78CFF08B101F08AFC07B962B640B045
:1092B000BDE8F081FFF7F4FBB8B101F0DFFB4FF040
:1092C00080434FF00F12C3F800240022C3F81C257E
:1092D000BFF34F8F6849694BCA6802F4E0621343D9
:1092E000CB60BFF34F8F00BFFDE71220FFF7A8FD53
:1092F000804608B901F063FCD8F80030C3F30B03D3
:1093000013B1002001F05BFC50238DF8AC30D8F88D
:1093100000302C93636803F6FF7323F47F6323F01C
:109320000F032BA82D93FFF771FB10B101233370AE
:10933000BBE751238DF8AC3023682D9363682E93DF
:10934000D8F800302C932BA8FFF760FB0028EDD154
:10935000FC238DF81730287857E70B2001F02FFCFD
:10936000F6E70220FFF76CFD06460420FFF768FDD4
:10937000804616B9304601F022FC0E22314616A86E
:1093800003F00FFB0422B8F1000F20D1FF212BA81E
:1093900003F012FB374E3378022B1DD0042B2AD05A
:1093A000012B3AD12389ADF858309DF8AC3043F009
:1093B00001038DF8AC304FF01A080E2216A90220D6
:1093C000FFF77EFD78BB2A4B01221A706DE74146FC
:1093D0002BA803F0E6FADDE7237A8DF85A30637A9A
:1093E0008DF85B309DF8AC3043F002038DF8AC3063
:1093F0004FF01B08E1E7A3681793A389ADF860302D
:10940000D4F80E30CDF862309DF8AC3043F0040350
:109410008DF8AC304FF01C08CFE70B2001F0CFFBEC
:109420004FF00008C9E7A37C3BB1402204F11401CE
:109430004046FFF745FD0028C5D004222BA9104661
:10944000FFF73EFD0028BED03078F82301A9203078
:109450008DF81730FFF7F9FC064B18782030FFF72E
:1094600009FD0028AFD128601FE700BFACFE002037
:10947000A9FE0020A8FE002000ED00E00400FA058F
:1094800070B505460324012606F1200080B2FFF7DF
:10949000D7FC60B1C37CFF2B09D0094B1E70094B70
:1094A0001860FFF78DFE55B101232B7070BD013C94
:1094B0004FEA4606E8D1034B1C6005B12C7070BD25
:1094C000A8FE0020ACFE0020431E012B70B505460F
:1094D00001D9042812D10C4E34688CB905F1200052
:1094E000FFF7AEFC70B103681B6801330AD0074B6D
:1094F00030601D70FFF764FE204670BD072070BD10
:10950000082070BD052070BDACFE0020A8FE002024
:10951000054B1B6833B1054B1A781AB100221A703B
:10952000FFF74EBE704700BFACFE0020A9FE002032
:10953000024B1868003018BF01207047ACFE0020B5
:109540008268531CC36808BF00229B0002F00F0210
:10955000013B1344028A1B0901330AB103EB1213C6
:109560004FF6FF70984228BF1846704710B5042088
:10957000FFF766FC154C20610220FFF761FC2060BC
:109580001220FFF75DFCE0601120FFF759FCA0609E
:109590001020FFF755FC60600120FFF751FC0C4BD9
:1095A000226960619A420BD922689A4208D9E2681E
:1095B0009A4205D962689A4202D9A2689A4204D8AE
:1095C0000820BDE81040FFF729BA10BDC4FD0020F7
:1095D000FFEF070030B591B001AC0546182200211D
:1095E000204603F0E9F96B1E022B26D84FF6FD73D7
:1095F000ADF80430304B9DF80720197961F3020271
:1096000093F8711061F3C302196802912B4909782C
:10961000C81F4142414161F304128DF8072053F8FD
:10962000660F59681B8903AA03C201211380032D09
:1096300040D8DFE805F00429323B0221F7E74FF676
:10964000FE73ADF804301E4B1B680DF1060203F1EA
:109650000C0053F8045B42F8045B8342F9D11B8889
:10966000138010230993FF2360228DF8293007A867
:1096700000238DF81C2008948DF828108DF82A30CE
:10968000FFF7C4F911B030BD9DF80630042262F333
:1096900003038DF806301223E4E79DF8063001221B
:1096A00062F303038DF806300A23DBE79DF80630EA
:1096B0000222F5E70023D5E700FE002000FD002090
:1096C000C4FD002008B50020FFF784FF044B0548C7
:1096D00001221A7000217422BDE8084003F06CB921
:1096E00000FD002000FE002000B58BB08278212311
:1096F0008DF804300A4BC2F303021B788DF8092061
:1097000000F1080102F00F020DF10A008DF8083097
:1097100001F050F801A8FFF779F90BB05DF804FBF0
:1097200000FD002030B5104C104D23782D789D425F
:109730008BB000D90BB90123237060238DF804305E
:10974000002302908DF8103001A8237803918DF842
:1097500011208DF81230FFF759F910B92378013331
:1097600023700BB030BD00BF01FD002074FE00204F
:1097700038B502884FF6FC739A4204460ED14388EE
:10978000002B14BF032206222046FFF7CBFF05461D
:1097900010B9204601F03EF9284638BD0322F3E710
:1097A00038B50546114800244FF6FF7304718461F3
:1097B0008460A0F86230A0F8644080F87040C46112
:1097C000046045712A466630013D00F0F3FFEDB2BA
:1097D000074B032D4FF002021A7096BF054B20462F
:1097E000585DBDE83840FFF7F5BE00BF00FE002021
:1097F00000FD0020E8C907002DE9F04FB84C426891
:1098000023689A42A9B00546884640F0808201F05C
:10981000EBF80746002840F07C82B24A1378033BFD
:109820009146052B00F27D81DFE813F006007D01F3
:109830007B017B0132025E026E88002E40F06A815D
:109840006379022B50D0042B04D0012B4FD1A64BAF
:109850005E6801E0A44BDE68AB682361D5F808A020
:109860002846BAF1FF3F08BFD6F800A0FFF768FE10
:1098700080B2A4F86200A4F86400C4F808A0EB6801
:109880009A489B00A3612B8AE361AB7C0021C3F360
:10989000C003102284F87030616184F8601003F016
:1098A0008BF801F0CBF8E3685A1C26D16379022BC0
:1098B00021D18D4BDA680CCA1A444FF01023596934
:1098C0008A4288BF5A69A169894B23EA010313447C
:1098D000E360A068E268904220D0A369194601F0D5
:1098E000BBF8D8B10D2010E07F4B9E68B4E706208E
:1098F00001F065F9B0E7A368EAE74FF01022A1692B
:1099000052690B449342E4D90C20FFF787F8FFF724
:10991000D9FE284601F07EF80026B4E1A26833683B
:109920009A42C0F0EF80A1690A4471680B449A42E0
:1099300000F2E8800422FF2113A889F8002003F038
:109940003BF86379022B00F08780042B7FD0012B3A
:1099500040F087809DF84C306FF300038DF84C3059
:10996000E268A3689A423CD02120FFF769FA0A9086
:109970002220FFF765FA0B902420FFF761FA4FF0E1
:10998000FF370C9000260DF1280A4FF0010B5AF812
:109990002690B9F1000F14D0A369E26899E803009A
:1099A00001F05AF840B10BFA06F0203080B2FFF710
:1099B00061FA08B101F003F9D9F800309F4228BFDD
:1099C0001F460136032EE2D1474AE368A169566873
:1099D000D2F808E0D2F80CC019448B4201D2BB4245
:1099E00043D3A268E368434E9A4209D13E4F3B6994
:1099F000002B6AD1042213A91046FFF761FA3861DF
:109A000094F87030A269E168A06800F07DFD00283C
:109A100072D162238DF8080001A88DF80430FEF79A
:109A2000F5FF23238DF8283001238DF82C3063793E
:109A30008DF82D303368CDF82E307368CDF8323084
:109A40003389ADF836300AA8FEF7E0FF58E09DF8FC
:109A50004C306FF3820381E79DF84C306FF3410384
:109A60007CE7072001F0ABF87AE71A6801322AD0C8
:109A70003068984209D27268024493423EBF9DF812
:109A80004C206FF300028DF84C20DEF8000083427A
:109A90000AD9DEF80420024493423EBF9DF84C20D0
:109AA0006FF341028DF84C20DCF8002093420AD974
:109AB000DCF80400024493423EBF9DF84C206FF353
:109AC00082028DF84C20043387E713A90420FFF7A6
:109AD000BCF9002894D031466079FFF761FE8FE72A
:109AE00000FE002000FD0020C4FD0020EEFD00204F
:109AF00000F0FFFF66FE002087496079FFF750FE07
:109B0000012706E7686800F031FF83496079FFF7B5
:109B100047FEFEE6206800F029FF7F496079FFF7E5
:109B20003FFE0826B0E06B88002B00F09980B4F867
:109B300064209A42C0F09480784A118899429246F3
:109B400009D10023138013A862228DF84C208DF8D0
:109B50005030FEF75BFFE369B4F8642068881B09A6
:109B6000D11A88420CD8A16800F075FEA8F108024D
:109B700092B205F1080100F007FDD8B1002670E0AF
:109B80005E1EB61A0644B342F8D994F860303341E9
:109B9000DB07F3D404EB0610A8F1080205F1080175
:109BA000203002F0FEFE0120B04094F860600643D1
:109BB00084F86060B4F864306A88ADF852302421CB
:109BC00013A88DF84C10ADF85020FEF71FFFB4F825
:109BD0006230013BA4F86230BAF80030002B3DD16E
:109BE00028AA6E88606942F89C3D6946009300F09F
:109BF0008DFD98B3A06820F00F030098C01A60EBA9
:109C00000001030943EA01730133721E934203D337
:109C1000B4F86420B24221D1ADF82A3023680B9306
:109C200060238DF84C300AAB14930823159302235C
:109C30008DF85830FF234FF6FB728DF8593013A87A
:109C40000023ADF828208DF85A30FEF7DFFE28B942
:109C5000009B6361BDF82A30AAF8003001278DE728
:109C60000B26B4F862305BB970228DF84C2013A833
:109C70002B4A14931592FEF7C9FE052389F800308C
:109C8000002E3FF446AE57BB304629B0BDE8F08FFA
:109C90006B8823B92846FFF753FCA4F86400082317
:109CA000002089F80030FEF7EEFE23238DF84C30BB
:109CB00002238DF85030184B1A68CDF852205A689C
:109CC0001B89ADF85A3013A86379CDF856208DF86A
:109CD0005130FEF79BFE064600283FF411AF414687
:109CE0002846FFF745FDCFE76B8823B92846FFF7E5
:109CF00027FCA4F864006A88B4F86430ADF85020FA
:109D000024218DF84C10ADF8523013A89CE60B2698
:109D1000BAE70026B8E700BF66FE0020ECFD002091
:109D200080C3C90138B500240A4B05462146742278
:109D300009481C7002F040FE21461022074802F03C
:109D40003BFE074B1C70074B1D70BDE83840FFF70A
:109D50000DBC00BF00FD002000FE0020EEFD002035
:109D6000FEFD002074FE00202DE9F043742291B026
:109D70000021314802F020FE102200212F4802F07D
:109D80001BFE2F4B00241C702E4B1C80FFF7EEFB9C
:109D90002223ADF808302123ADF80A302423ADF892
:109DA0000C3001238DF8053004238DF80630264B46
:109DB0001B6805930222991804338DF8042004913E
:109DC00006930DF1080817460DF1040938F8140040
:109DD000FFF736F80546E8B114F809608DF81C70F5
:109DE00000F1080132460DF122008DF8206000F0EC
:109DF000E1FC04AB0BA853F82410324600F0DAFC67
:109E00002B680E936B680F93AB7C8DF8213007A8FD
:109E1000FEF7FCFD0134032CD8D100F00FFEFFF754
:109E200087FB20B9FFF74EFC11B0BDE8F083074B6C
:109E300000221A70F8E700BF00FE0020EEFD0020AF
:109E4000FEFD0020ECFD0020C4FD002000FD0020F0
:109E500008B50A4B1B78012B0CD14FF010235B691E
:109E6000934201D8531C07D1054BDA60FFF798FCE9
:109E7000002008BD082008BD102008BD00FD0020FE
:109E800000FE002038B505460E480378013B012B43
:109E900015D80D4C072303702046657140F8662BDA
:109EA0002A4600F087FC6379013BDBB2032B96BFA7
:109EB000064A0020D05CFFF78DFB002038BD08204B
:109EC00038BD00BF00FD002000FE0020E8C90700EB
:109ED0002DE9F0410388A3F57F43FA3B8AB004469D
:109EE0000D46042B2DD8DFE813F03E01E3005901A5
:109EF00051000500AD4D2F78012FA84640F0538149
:109F00000379407943EA002000F00AFDA0B1212343
:109F10008DF8043002238DF8093023798DF80A304A
:109F200063798DF80B302B788DF8083001A8FEF797
:109F30006DFD0AB0BDE8F081A61D304600F0D8FCEA
:109F400008B90B20F5E763884FF6FE718B420CD001
:109F5000974909680988994207D021228DF8042081
:109F60008DF80970ADF80A30DDE721238DF8043053
:109F70000A2204238DF80930314698F800308DF814
:109F800008300DEB020002F00CFDCFE7874F3B7865
:109F9000013B062B00F20781DFE813F05E000700AB
:109FA00007000501050105016900824E717906F17E
:109FB000660200F0F9FC354606F16601002842D041
:109FC000E378327903F00703934206DC01D00020E6
:109FD000AFE7626833689A42F9D9A378C3F3030301
:109FE0006B71D8B2234653F8082FC5F866205A681B
:109FF0004A601B890B8122884FF6FD739A4207D174
:10A00000E3785A0704D0A37803F00F03834202D009
:10A01000072000F0D4FD63682B60E378C3F30203EC
:10A020002B71E378C3F3C00385F8713003233B70D1
:10A030006B79013BDBB2032B96BF5F4A0020D05CFB
:10A04000FFF7C8FAC3E7A278737902F00F029A42C9
:10A0500006D0E3785B07BAD02046FFF745FB68E7F8
:10A0600004F1080000F0CBFB0028F2D0AFE7514D1F
:10A0700082786B7902F00F029A42A8D100F10801B0
:10A0800005F1660000F0A5FB0028A0D0E3782A794E
:10A0900003F007039A4204DB99D163682A689A4265
:10A0A00095D263682B60E378C3F302032B71BFE79B
:10A0B000404A4168136899427FF443AF3B4B1D7897
:10A0C000082D08D100F090FC002880D129462046B8
:10A0D000FFF74EFB2DE7394D418800232E4635F81A
:10A0E00023708F424FEA830036D105446B88591C98
:10A0F000072B69807FF66BAF63889068012B1EBFCA
:10A1000020F00F0003F1FF3300EB0310102203A92E
:10A1100000F0D0FA28B34FF6FA73E278ADF80430C5
:10A12000A37843EA0223ADF8063003226368029362
:10A13000182101A8FFF7F6FA58B955B9204A137843
:10A14000591C117003F00303628826F8232006EBE4
:10A15000830500236B80ECE60133042BBFD100257F
:10A16000CAE70520F5E7114B1B78082B16D100F044
:10A170003BFC00287FF42BAF0E48B0F86420B0F809
:10A180006210ADF80A20531C5B1A01A824218DF837
:10A190000410ADF80830FEF739FC97E72946204651
:10A1A000FFF72AFBC5E60820C3E600BF00FD00203C
:10A1B000C4FD002000FE0020E8C90700EEFD0020DD
:10A1C000FEFD002070B50220FEF73AFE0646042090
:10A1D000FEF736FE05461020FEF732FE044612203A
:10A1E000FEF72EFE32882B782AB1DA070CD52268CA
:10A1F0001268013208D05B0708D503681B68013379
:10A200000CBF0420002070BD012070BD042070BD73
:10A2100010B50220FEF714FE04461220FEF710FED1
:10A2200074B150B103685A1C0AD01B68013307D0BF
:10A23000D4F80A0008B100F08AFB00F0010010BD5C
:10A240000020FAE730B54E4D4E4C2968ABB00E22D7
:10A25000684602F0A6FBE268A3689A4242D0542204
:10A26000FF210DEB020002F0A7FB627904F1660109
:10A2700017A800F09FFAA3691693E3681593FF23CC
:10A280008DF8673000238DF86630E3699BB140227A
:10A2900004F120011AA802F084FB01238DF8663036
:10A2A00054226379022B17D0042B06D0012B16D130
:10A2B00015A9212003E01422F3E715A92420FEF7B5
:10A2C000FFFD314B06221A70FEF7DAFD002855D04B
:10A2D00000F075FC002003E015A92220EFE70B2019
:10A2E0002BB030BD2B6913B90E2000F068FC04229E
:10A2F000296915A802F055FB6279022A2FD0042A99
:10A300000ED0012A38D102222049684602F049FBCA
:10A310009DF8543043F001038DF854301A200BE0BF
:10A320000A221A4901A802F03CFB9DF8543043F080
:10A3300004038DF854301C20E3691BB140221449FA
:10A34000FEF7BEFD0E2269460220FEF7B9FD04228B
:10A35000286015A91046FEF7B3FD2861B1E70B4947
:10A360000DF1020002F01DFB9DF8543043F0020392
:10A370008DF854301B20DFE70020DDE7B0E700BF99
:10A38000C4FD002000FE002000FD002066FE00202D
:10A3900020FE002030B5314B1B78013BA7B0072BC6
:10A3A00011D8DFE803F00408080A121058580120F9
:10A3B000FEF734FB07E00520FAE7294B03F16601BD
:10A3C0005879FFF7EDF927B030BD264D6A69002AAC
:10A3D0003CD0234CE369002B3BD00AA801F08CFE53
:10A3E0000122611D0AA801F0B7FE042204F1100148
:10A3F0000AA801F0B1FE042204F118010AA801F034
:10A40000ABFE26A90023012201F8913D0AA801F024
:10A41000A3FE6279022A06D0042A03D0012A07D1BA
:10A42000022200E00A2204F166010AA801F094FE6B
:10A430000AA800F0A3F9002202A90AA801F0B0FEC0
:10A44000094A686902A901F023FC10B1FFF7FAFE7E
:10A45000B9E70420ACE70020AAE700BF00FD002018
:10A4600000FE0020C4FD002020FE0020FFF72AB9D6
:10A4700000B5114B1B78062B8BB01AD1FEF788FD67
:10A48000B8B10E4925234A798DF80430663101238D
:10A490000DF10A008DF808308DF8092000F08AF9D6
:10A4A00001A8FEF7B3FA00F077F9FFF75FF8FFF7BE
:10A4B0005BFC0BB05DF804FB00FD002000FE0020FB
:10A4C00008B5094B1A8D824209D3121A402A08D8BE
:10A4D000D3E9040102F07EF800F0010008BD01207C
:10A4E00008BD002008BD00BF78FE002010B5054C57
:10A4F00030220021204602F05FFA4FF6FF732385D9
:10A5000010BD00BF78FE00202DE9F84305468946BE
:10A5100049EA0504C4F30B0417461E46FFF7E6FF9D
:10A520005CBBDFF86080164BB9F1000F14BF4846E2
:10A53000284607F6FF71C8F8040019401840FEF7D6
:10A540008FFAE819C8F80050002225F00F05002303
:10A5500020F00F00401BC8E9042300094FF6FF73E9
:10A56000A8F8080088F80A60C8F80C70A8F82A3023
:10A57000A8F828402046BDE8F8831020BDE8F883FD
:10A5800000F0FFFF78FE00202DE9F74F474D2E8D9C
:10A5900082464FF6FF7086420F46934600F0848055
:10A5A0001AF00F0F7AD12A68924577D3EB680AEB3D
:10A5B0000B011344994271D8BBF1100F70D81BF0F6
:10A5C000030F6DD16B8D83426CD122F00F02BAEB79
:10A5D000020214090134A4B22046FFF771FF0028DB
:10A5E00062D0A6424CD2A31B9EB23246012000216B
:10A5F00001F0FCFF10F1FF3241F1FF33CDE9002300
:10A60000DDE90001C6F1400201F0F0FFD5E904895F
:10A6100000EA080001EA090150EA010309D04FF6F7
:10A62000FF7303202B85FEF7F9F9052003B0BDE881
:10A63000F08F32464046494601F0D8FFDDE900235D
:10A6400002430B43194622F00100C5E904012C85A1
:10A650005A46394616486C8502F0A3F968682B689B
:10A660001349C01A5A465044FEF7E5F90028DDD0D8
:10A670004FF6FF7307202B85FEF7D0F90320D5E7AF
:10A68000361B0123B6B203FA06F6D5E90423F643D6
:10A69000324003EAE673C5E90423D9E71020C5E791
:10A6A0000920C3E71120C1E70820BFE778FE00209A
:10A6B00090FE0020F8B5144F16463A8D4FF6FF7302
:10A6C0009A420D461DD03B6823F00F03C01A0409BF
:10A6D0000134A4B2A24214D32046FFF7F1FE80B9A0
:10A6E0006DB166B17968012C1EBF21F00F0104F134
:10A6F000FF3401EB04113246284602F052F90120E2
:10A70000F8BD0020F8BD00BF78FE00202DE9F74F0E
:10A710001346194A158D8B464FF6FF718D428246BE
:10A7200028D01668D2E9048926F00F073F24224674
:10A7300040464946019301F04DFF002100F0010021
:10A7400050EA0103019B12D02A1B92B2012A1ABFC0
:10A7500002F1FF3207EB02123246924507D8CBF8DE
:10A76000002010221A60012003B0BDE8F08F14F120
:10A77000FF34DCD20020F7E778FE0020054B198D6E
:10A780004FF6FF72914203D0DA68596801F0E4BCD9
:10A790000820704778FE0020FFF7A8BE044B03F1A5
:10A7A0001802824204BF4FF6FF725A85704700BFFD
:10A7B00078FE0020022A30B408D0042A05D0012AED
:10A7C00001D10B88038030BC70470A2230BC02F0F4
:10A7D000E8B8022A38B50AD0042A07D0012A0CD1D9
:10A7E00000880B88C31A5842584138BD0A2202F02B
:10A7F000C9F8B0FA80F0400938BD002038BD022AFF
:10A8000010D0042A04D0012A0FD100880B8805E05B
:10A8100082888B889A4208D100680B68C31A584214
:10A820005841704700780B78F8E700207047022AFB
:10A830000CD0042A04D0012A0BD100880B8803E035
:10A84000D0F80600D1F80630C01A704700780B78AF
:10A85000FAE70020704701281EBF00F1FF3021F009
:10A860000F0101EB00110846704770B50546022044
:10A870000E46FEF7E5FA04460420FEF7E1FA022E42
:10A8800023D0042E0CD0012E30D12A8823889A425E
:10A890002CD160B3007880F0010000F0010070BDA1
:10A8A000AA8823899A4221D12A6863689A421DD1D5
:10A8B000D5F80620D4F80A309A4215D8B8B10078F5
:10A8C00080F00400C0F3800070BD2A78A3789A421B
:10A8D0000CD16A78E3789A4206D840B1007880F0CB
:10A8E0000200C0F3400070BD012070BD002070BDAB
:10A8F00010B504460220FEF7A3FAA28803899A4203
:10A900000CD1226843689A4208D1D0F80A00D4F8E2
:10A910000630834294BF0020012010BD002010BDEE
:10A9200007B5ADF804000220FEF78AFA9DF804206E
:10A9300083789A4209D1C0789DF80530834294BF4C
:10A940000020012003B05DF804FB0020FAE708B501
:10A950000420FEF775FA30B1007800F00700C31F3D
:10A960005842584108BD012008BD0000044A137830
:10A97000591C117003F00703024A42F82300704784
:10A9800014FF0020F4FE0020064A002352F8231092
:10A99000814204D00133082BF8D1002070470120F8
:10A9A000704700BFF4FE002070B5837803F00F03FA
:10A9B0008B4204460D46164600D091B96068FFF7F9
:10A9C000E3FF70B908342A4631462046FFF717FFE7
:10A9D00040B12A4631462046FFF729FFC043C00F49
:10A9E00070BD002070BD000030B5094A0188002309
:10A9F0009C5A8C4204D1D41865884488A54204D05E
:10AA00000433402BF4D1002030BD012030BD00BF05
:10AA1000B0FE002030B50749074A0B68058803F0EF
:10AA20000F04013322F8245002EB84024088508046
:10AA30000B6030BDF0FE0020B0FE002008B54022C3
:10AA40000021034801F0B8FF024B00221A6008BD44
:10AA5000B0FE0020F0FE0020904204D31344984240
:10AA600007D3904207D8084482428CBF00200120BF
:10AA700070470120704700207047000010B5074A5A
:10AA800010680023012404FA03F1014203F10103D9
:10AA900018BFC2F88010202BF5D110BD00E100E0F6
:10AAA00081682023013B21FA03F2D207FAD5012263
:10AAB00002FA03F383600023C3600361704770B53B
:10AAC0000446F9B1EFF3108572B680682269E66832
:10AAD0000244B24203D105B962B604250DE02368F1
:10AAE00062680138304002FB003063693BB198472F
:10AAF000E3680133E3603DB962B6284670BD01F0FA
:10AB000050FFF5E70E25F8E70025F6E770B5044697
:10AB10000846EFF3108572B62669E3689E4203D1BA
:10AB200005B962B60E250FE049B1A3686268591EE7
:10AB30002368314002FB013163693BB198472369C7
:10AB4000013323612DB962B6284670BD01F029FF9B
:10AB5000F5E70025F8E7F8B503461546084611B9AC
:10AB60000E242046F8BDEFF3108472B61F69DE682C
:10AB7000F61BB24203D3002CF2D162B6F0E799681B
:10AB80005A683D44013929401D685B6902FB015147
:10AB90001BB1984724B962B6E3E701F002FFF9E779
:10ABA0000024DEE70022FFF7D6BFC2680069101A52
:10ABB00070470269C068131A58425841704772B60C
:10ABC00000BEFEE772B600BEFEE7000008B54FF01B
:10ABD0008043D3F8082442B901221A60D3F8002137
:10ABE000002AFBD00022C3F800214FF08043D3F8A5
:10ABF000142442B901229A60D3F80421002AFBD020
:10AC00000022C3F804214FF0804301221A61D3F8D7
:10AC10000C21002AFBD00022C3F80C210E4B40224D
:10AC200083F816234FF480021A6062B6FDF7F4FB36
:10AC3000FEF77EFC70B94FF080431C46D3F81C250C
:10AC40000AB9FDF7A9FC0023C4F81C35FDF734FC54
:10AC500020BFFDE720BFEBE700E100E00023034A4F
:10AC6000194699540133202BFBD170474C06002024
:10AC70000C4A30B500230446EFF3108172B6985C9D
:10AC800048B90120D054084A282505FB0323236036
:10AC900039B962B630BD01B962B60133202BEBD1B0
:10ACA000002030BD4C0600204C01002070B50E4C39
:10ACB000041B2820B4FBF0F41F2C12D8EFF31086ED
:10ACC00072B60A4D2B5D013BDBB2FD2B02D904208D
:10ACD000FFF775FF2B5D01332B5506B962B60120D6
:10ACE00070BD002070BD00BF4C0100204C0600204C
:10ACF0000F4BC01A2823B0FBF3F01F2810B501D961
:10AD0000002010BDEFF3108472B60A4B1A5C32B902
:10AD10000820FFF754FF002CF2D162B6F0E7013AA9
:10AD20001A5404B962B6185C003018BF012010BD77
:10AD30004C0100204C060020054BC01A2823B0FB14
:10AD4000F3F01F289ABF034B185C0020704700BF28
:10AD50004C0100204C06002010B50622044607498D
:10AD6000033001F01EFE4FF080530020D3F8A020E6
:10AD7000237862F38613237010BD00BFA400001077
:10AD800070B5F8B14278D31F1E2B00F1090419D811
:10AD9000961F033223464FF6E46510445A78162A6C
:10ADA00004D15A88AA4201D1184670BD1A78191BDD
:10ADB0001144B14206D8834204D20132C2EB42129E
:10ADC0001344EBE70023EFE7F0B54FF08052022683
:10ADD000136914699BB2013B1944A4B2114BB1FB36
:10ADE000F4F10024C9B22746E5B2A94200D8F0BD6B
:10ADF000C3F80465D3F80054002DFBD0C3F8080550
:10AE0000D3F80054002DFBD0C3F80475D3F80054D8
:10AE1000002DFBD01569C5F38D0500EB85000134CD
:10AE2000E2E700BF00E0014023F003032DE9F04119
:10AE300018440024174F184B0A4426464FF0010CC3
:10AE4000A046914201D1BDE8F08111F801EB07F86D
:10AE500006E0751CEDB264EA0E04042DE4B203D1E1
:10AE600024B90024043025462E46EAE7C3F804C579
:10AE7000D3F80044002CFBD03C680460D3F80044B5
:10AE8000002CFBD0C3F80485D3F80044002CFBD081
:10AE9000E7E700BF6C06002000E00140384B2DE9D9
:10AEA000F04700240F46904601210322C3F8FC4FCF
:10AEB000C3F8FC1FC3F80C45C3F810250222C3F8E1
:10AEC00008252522C3F85425E522C3F82425064683
:10AED0002C4A2D48C3F81C250068D3F82425050EFC
:10AEE00042EA0522C3F824250002284AC3F82005B7
:10AEF000C3F82C45C3F83015C3F81425244AC3F809
:10AF0000182540F25B62C3F8382540F20312C3F8FB
:10AF10003425204AC3F83C251F4D9422C3F844250C
:10AF20002A78032A08D11D481D4A446108238360FA
:10AF300080E80C00FFF7B4FD114BDFF87490174860
:10AF4000022400222C70C3F80C21164D164BC5F8B4
:10AF500080412C601F60154BC9F80060C3F8008069
:10AF6000FFF727FE20B1D9F80030BDE8F0471847B9
:10AF700000F026FA08B1C5F80041BDE8F08700BF2F
:10AF80000010004000363FAB040000200601020024
:10AF900025000302555555000800002074060020C6
:10AFA0008C06002000E100E0CC060020D006002046
:10AFB0007006002038B50146C0B1437913B9037952
:10AFC000012B15D80C48FFF77AFD044690B9EFF332
:10AFD000108572B600F0F4F918B1084B0222C3F8DC
:10AFE00000210DB962B62C46204638BD0E24FBE781
:10AFF0001024F9E70424F7E77406002000E100E0DC
:10B00000074B00224FF0FF31C3F80022C3F80813AA
:10B0100001211961C3F80425024B02221A707047FE
:10B0200000100040080000202DE9F041614CD4F8E8
:10B030000C3186B02246002B74D0D4F80064D4F8CA
:10B040000C74D4F81C31002B65D00023C4F81C31DB
:10B05000D4F84845E4B20023C2F80C3103A956489D
:10B06000FFF754FD08B1FFF7AAFD9DF81130013B31
:10B07000012B52D8514B03981D68311C23463A4688
:10B0800018BF0121A8474E4B02221A704C4C23785E
:10B09000023B012B3CD801A94748FFF783FD00285C
:10B0A00040F08480434D1323C5F800329DF80A30E8
:10B0B0000A2B5ED89A1C5200C5F8082503F07F02BF
:10B0C0003C4B4049C3F85425019AC3F80425082293
:10B0D000C3F804230022C3F80C210968D3F82425FF
:10B0E000080E42EA0022C3F824250A02C3F82025EC
:10B0F0009DF809001A46002849D19DF80820C3F898
:10B100002C259DF80B20C3F80C2501221A60227013
:10B1100006B0BDE8F08164249DE72B4B03981B68C3
:10B120009847B0E72448244E244FFFF73EFDA04641
:10B130000546012DAAD903A93046FFF733FD014684
:10B140000028A3D19DF81130022B9FD13046FFF784
:10B15000DDFCFFF755FFD8F850150029FBD1C8F8E2
:10B160000C1164234FF0FF3203983C68A047013D67
:10B17000DFE7242B01D8DA1C9DE7144A07CA06AE84
:10B1800006E9070006EB830252F8A02C94E7104B67
:10B19000994218BF03214FF001030CBFC2F83035AC
:10B1A000C2F83015536000232370B1E7094B1B68C8
:10B1B0009847ADE70010004074060020CC06002040
:10B1C0000800002004000020D0060020ECC9070081
:10B1D000363FABE57006002010B5034605C89C68F5
:10B1E000D968A0EB721082EAF4320C440144104496
:10B1F0001A605C609960D86010BD00000A4B0122A3
:10B2000010B51A60002219B901225A60084610BD13
:10B21000D3F80041002CFBD0013989B2D3F808459E
:10B220004454C3F80021EEE700D0004073B5044653
:10B2300002A8002340F8043D0421FFF7DFFF064683
:10B2400058B9074B2360019B6360A360E36014253A
:10B250002046FFF7C1FF013DFAD1304602B070BD74
:10B26000ED5EEAF1F0B5164B164ED3F80425501EEC
:10B2700020F07F40014600239C595CB1F4186768B8
:10B280008C1ABD1A25F07F4524F07F44A54238BFB3
:10B2900027F07F411033802BEED1094B81424FF4D0
:10B2A00080301FBFC3F804030020C3F84001C3F877
:10B2B000401516BF044BC3F808031A60F0BD00BF69
:10B2C00000B000408807002084070020FFF710BD71
:10B2D00007B5019061B101A90748FFF7F0FB38B944
:10B2E000064B4FF48012C3F8002103B05DF804FB55
:10B2F0000198FFF7FDFCF8E7EC06002000E100E014
:10B3000007B5022368468DF80530FFF7B1FC78B128
:10B3100000238DF80430684625238DF80630FFF7AA
:10B3200049FE10B16846FFF7E3FC03B05DF804FB8B
:10B33000014B1870F9E700BFE4060020024B1B78B0
:10B340000BB1FFF7DDBF7047E40600202DE9F041A7
:10B35000837B457B87680646CBB940F6CD4202FA2F
:10B3600005F30135AA40A3F6CD44D51A12483C4452
:10B37000FFF732FFC5F356031C44B0FBF3F202FBA8
:10B380001300044424F07F447460BDE8F081022B74
:10B3900041F69A1408480CBF4FF00A084FF0010814
:10B3A0006C43FFF719FF40F6CD4308FB04F403FBA1
:10B3B00008F31C443C44E0E7D4060020FFF734BE09
:10B3C00001207047174B10B500241C70164B1860F5
:10B3D000164B17481C808022214601F0EDFA1548D3
:10B3E000154B036004234360202383604461FFF70F
:10B3F00057FBFFF733FC1148FFF718FF08B1FFF7C1
:10B40000DEFB0F4B0F491048402283F814234FF402
:10B4100080121A60002283F80123BDE810400B4A15
:10B42000FFF73CBDE4060020E806002008080020E5
:10B4300088070020EC06002004070020D406002026
:10B4400000E100E0D1B207003DB30700CDB2070034
:10B45000034B1A781AB901221A70FFF751BF7047CF
:10B46000E406002073B50F4D0F4E01A92846FFF7E3
:10B470004DFB044630B10D4B1B780BB9FFF7E8FFCD
:10B4800002B070BD0198FFF757FC012802D020469A
:10B49000FFF795FB0198336898470198FFF728FC60
:10B4A000E3E700BFEC060020E8060020E4060020E9
:10B4B0002DE9F047044617461E460BB90C2A29D839
:10B4C00044B3072926D8EFF3108872B6134B0D0149
:10B4D00003EB011958599A4608B1FFF709FC2046B9
:10B4E000FFF7E4FB0AEB0502002353734AF805401B
:10B4F0000B4B1773D3F80435936096734846FFF7E8
:10B5000025FFFFF7AFFEB8F1000F00D162B60120B2
:10B51000BDE8F0870020BDE8F08700BF8807002065
:10B5200000B0004038B50D4B4FF4006207280446C8
:10B53000C3F880200CD80301094DE858FFF7D8FB69
:10B540001022002105EB041001F036FAFFF78AFE05
:10B55000024B4FF400621A6038BD00BF00E100E00A
:10B5600088070020F7B52C4B2C4CD3F804552C4FF2
:10B57000023504F18006216861B36368EB1A23F099
:10B580007F423B68EB1A23F07F439A4222D8002384
:10B590008DF805308DF804308DF80730E37B00918D
:10B5A000022B1ED90023E373637B5A1CD2B2FF2BFC
:10B5B000627307D1A36803F5CC1303F5D05323F0CE
:10B5C0007F43A360237B9A4201D3FF2B1BD12046EC
:10B5D000FFF7BCFE1034B442CDD1FFF743FE03B0F9
:10B5E000F0BD25238DF806309DF80630272BD9D8DD
:10B5F0006846FFF7DFFC10B92068FFF757FB9DF89E
:10B6000006300133EEE72068FFF772FB10220021BD
:10B61000204601F0D1F9DDE700B0004088070020A6
:10B6200084070020031F00221C3043F8042F8342AC
:10B63000FBD17047031F1C3053F8042F1AB9834203
:10B64000FAD101207047002070474A11012350F8B9
:10B65000220001F01F0103FA01F1084070470B1F9F
:10B6600004381C3153F8042F40F8042F8B42F9D1D1
:10B67000704710B500F12003203153F8044D51F804
:10B68000042D944204D805D38342F6D1002010BD86
:10B69000012010BD4FF0FF3010BD00F1200300224B
:10B6A000834200D1704753F8041C42EA510243F828
:10B6B000042DCA07F4E7002370B50646184651F872
:10B6C000235052F823402C440444A54202D08CBF9E
:10B6D0000120002046F823400133082BEFD170BD34
:10B6E000002370B50646184651F8235052F82340FF
:10B6F0002C1B241AA54202D034BF0120002046F89A
:10B7000023400133082BEFD170BD10B50438A1F1EF
:10B7100020024B7F0C7F1B0443EA0463CC7F23434E
:10B720008C7F043943EA04238A4240F8043FF0D175
:10B7300010BD70B50646A0B008461446FFF77AFF64
:10B7400020B13046FFF76EFF20B070BD6846FFF7AE
:10B7500086FF214608A8FFF782FF10A8FFF762FFC7
:10B76000012318A81093FFF75DFF08A96846FFF7AB
:10B7700080FF20B910A93046FFF771FFE4E7009B76
:10B78000DA0716D46846FFF788FF109810F0010515
:10B7900005D010A922460846FFF78DFF054610A8E0
:10B7A000FFF77BFF002DE0D0179B43F0004317937A
:10B7B000DBE7089BDB0716D408A8FFF76EFF189895
:10B7C00010F0010505D018A922460846FFF773FFBF
:10B7D000054618A8FFF761FF002DC6D01F9B43F058
:10B7E00000431F93C1E7002818DD08AA6946684690
:10B7F000FFF776FF6846FFF750FF18A910A8FFF77C
:10B8000038FF002804DA10A922460846FFF753FF44
:10B8100010A918AA0846FFF763FFB6E708A96A4609
:10B820000846FFF75DFF08A8FFF737FF10A918A823
:10B83000FFF71FFF002804DA18A922460846FFF781
:10B840003AFF18A910AA0846FFF74AFFB7E7000019
:10B8500010B50446FFF744FF30B121462046034AA5
:10B86000BDE81040FFF727BF10BD00BF58CA070052
:10B8700010B50446FFF71FFF28B907492046FFF718
:10B88000F8FE002806DB21462046034ABDE81040AA
:10B89000FFF726BF10BD00BF58CA0700072250F8A7
:10B8A000223013B912F1FF32F9D2531C0AD050F8EA
:10B8B0002210002219B9581E02EB401070474908A7
:10B8C0000132F7E7184670472DE9F04F0023934601
:10B8D00085B081468E469A461A4655469A460023BA
:10B8E0000BEB82061C465EF8241056F80479CDF85E
:10B8F00004A0A7FB017800210091DDE9000140EAE6
:10B900000500C01941EB0801414508BFB84204F1E8
:10B91000010434BF0125002594422B448A46054684
:10B92000E1D949F822000132082AD6D109F11C07D1
:10B930000122D4460BF120089A46164600235EF8F1
:10B94000264058F8041DCDF80CA0A4FB01450021A9
:10B950000291DDE9020140EA0C0000196941A942A7
:10B9600008BFA04206F1010634BF01240024082EBE
:10B9700023448A468446E2D10132082A47F8040F5C
:10B98000D7D1C9F83C1005B0BDE8F08F70B598B0BC
:10B99000054608A8FFF798FF08A92846FFF75FFEAD
:10B9A000139B0393149B0493159B0593169B06937B
:10B9B0000026179B07936A466946684602960196D9
:10B9C0000096FFF778FE6A46044629462846FFF7A8
:10B9D00072FE149B0393159B0493169B05930444DA
:10B9E000179B06936A46694668460796FFF763FE0B
:10B9F0006A46044429462846FFF75DFE109B0093E3
:10BA0000119B0193129B0293169B06930444179B70
:10BA100005966A4629462846049603960793FFF73B
:10BA20004AFE119B0093129B169A0193139B02935B
:10BA30000492159B179A03930444059206936A4651
:10BA4000109B079329462846FFF735FE139B00936A
:10BA5000149B0193159B0293109B06930444129B25
:10BA600005966A4629462846049603960793FFF7EB
:10BA700037FE149B0093159B0193169B0293179B13
:10BA80000393119B0693241A139B05966A46294635
:10BA9000284604960793FFF723FE159B0093169BF9
:10BAA0000193179B0293109B0393119B0493129B8A
:10BAB0000593241A149B06966A462946284607933E
:10BAC000FFF70EFE169B0093179B0193119B0393A8
:10BAD000129B0493139B0593241A159B02966A46A6
:10BAE0002946284606960793FFF7FAFD241A0C4EBE
:10BAF0000DD42CB929463046FFF7BBFD01280DD0E7
:10BB0000324629462846FFF7EBFD241AF1E7324674
:10BB100029462846FFF7CFFD2418F8D418B070BD89
:10BB200058CA070070B588B006460D4668461146EB
:10BB30001446FFF72BFF6A4631463046FFF726FFD3
:10BB4000224669466846FFF721FF6A46294628468D
:10BB5000FFF71CFF08B070BDF0B5144689B006466B
:10BB60000F460246214668461D46FFF771FE6A46AB
:10BB700069466846FFF70AFF6A4631463046FFF7D6
:10BB800005FF6A4621462046FFF700FF3A46294650
:10BB90002846FFF75DFE2A4629466846FFF7F6FE6F
:10BBA000324669466846FFF753FE224669466846B4
:10BBB000FFF74EFE324621462046FFF749FE224659
:10BBC00039463846FFF7E2FE6A4631462046FFF71F
:10BBD0003FFE224629462846FFF7D8FE3A46294628
:10BBE0002846FFF735FE69462046FFF738FD09B0C5
:10BBF000F0BD0000F0B5B3B022AB054602A800933B
:10BC0000019012AEFFF760FE20491AA8FFF727FD4A
:10BC10003046FFF707FD40F20117012432AAC4F1B4
:10BC2000010302EB8303002153F8C8EC02EB840309
:10BC300053F8C8CC0B465CF8230056F82320821A30
:10BC4000521A904202D034BF012100214EF8232025
:10BC50000133102BEFD10B1B5C4230465C41FFF7E8
:10BC60001CFD199B1A9A1AA843EAC2731993FFF78D
:10BC700014FD013FD2D132AB03EB8404284654F8C3
:10BC8000C81CFFF7ECFC33B0F0BD00BF38CA07009A
:10BC90002DE9F043ADF5057D44AF0DF5C8780646B6
:10BCA00000248946014640461546FC615394FFF73F
:10BCB0002CFD06F120016CA8FFF727FD2946384628
:10BCC000FFF723FD05F120014CA8FFF71EFD3846C4
:10BCD000FFF7B0FC0146002840F0B3804CA8FFF706
:10BCE000A9FC0446002840F063813946B148FFF7BB
:10BCF000C0FC012840F0A5804CA9AE48FFF7B9FC74
:10BD00000128064640F09D80AA4A4CA914A8FFF7D6
:10BD100010FD494604A80B94FFF7F7FC04A9084658
:10BD200014AAFFF767FF74AD14AA39460CA8FFF7F1
:10BD300061FFDFF8889241462846FFF790FC6CA926
:10BD40007CA8FFF78CFC49462CA8FFF788FC09F17A
:10BD5000200134A8FFF783FC29462CAA14A8FFF77A
:10BD600077FD7CAB2A4634A92CA8FFF7F5FE14A971
:10BD70000846914AFFF7DDFC14AA7CA92846FFF784
:10BD8000D1FE04A88DE81002CDF808800395FFF7D6
:10BD900085FD05460CA8FFF781FD8542B8BF054625
:10BDA00005F1FF38414604A8FFF74FFC414610F16A
:10BDB00000090CA818BF4FF00109FFF746FC002846
:10BDC00014BF0220002040EA09000DF190085DF840
:10BDD00020901CA84946FFF742FC09F1200140468B
:10BDE000FFF73DFCDFF8D09114A8FFF71BFC023DE4
:10BDF00014964646002D29DA14A908466E4A1CAD51
:10BE0000FFF797FC14AA24A92846FFF78BFE2946C2
:10BE10006848FFF72EFC012804D0664A29462846C8
:10BE2000FFF75EFC072355F8232057F8231013F182
:10BE3000FF3382EA010244EA0204F4D2B4FA84F441
:10BE4000640920460DF5057DBDE8F08314A8FFF7D1
:10BE5000F1FB002870D13246314654A8FFF796FD19
:10BE600054AA1CA95CA8FFF791FD54AA11461046DC
:10BE7000FFF78CFD14AA31463046FFF787FD14AA60
:10BE800011461046FFF782FD1CA9084614AAFFF7C9
:10BE9000EFFC14AA11461046FFF7EAFC14AA10465C
:10BEA0001CA9FFF7D5FC1CA9084614AAFFF76EFDD4
:10BEB0001CAA114614A8FFF7DBFC1CA914AA08460B
:10BEC000FFF7D6FC1C9BDB076ED51CA94A4608462B
:10BED000FFF7F1FB80461CA8FFF7DFFB239840EA41
:10BEE000C87023901CAA114614A8FFF74FFD14A98F
:10BEF00008465CAAFFF7ACFC14A908465CAAFFF749
:10BF0000A7FC5CA9084614AAFFF7A2FC1CA90846D6
:10BF10005CAAFFF73BFD54AA10461CA9FFF798FC4A
:10BF200014A91CA8FFF79BFB314614A8FFF797FB49
:10BF300054A93046FFF793FB294604A8FFF785FB79
:10BF4000294610F100080CA818BF4FF00108FFF7B0
:10BF50007CFB002814BF0220002040EA08005DF8A6
:10BF60002080B8F1000F1DD041462CA8FFF777FBC9
:10BF700008F1200134A8FFF772FB14AA34A92CA8F9
:10BF8000FFF7D0FD2CAA1CA93CA8FFF761FC1CAA56
:10BF900034A92CA83346FFF7DFFD14A93CAA0846B4
:10BFA000FFF7F4FC013D25E71CA8FFF776FB99E7B6
:10BFB0000C4646E738CA070058CA0700F8C9070008
:10BFC0002DE9F04F0022C9B04B780C781B0443EAEE
:10BFD0000463CC7823438C7843EA042308AC04310F
:10BFE000A3500432402AEFD1234638AD996B1E4648
:10BFF0004FEAF14282EA714282EA9122716A36681E
:10C0000053F8044F31440A444FEAB44181EAF41131
:10C0100081EAD4010A449D42DA63E7D1036D0093BB
:10C02000436D0193836D0293C36D0393036E049379
:10C03000436E0593836E069304A991E80250C36E84
:10C04000DDF80C80029DDFF8AC9007939DE850006E
:10C050009B4600274FEAF12383EAB11383EA716A12
:10C0600059F827301A4608AB53F827301A441346BC
:10C0700053442EEA010201EA0C0A82EA0A021A4437
:10C080004FEA743A85EA06035A448AEAB40A06EA91
:10C09000050B234083EA0B038AEAB45A01379A441A
:10C0A000402F02EB0803F3465244A8461AD1009FE2
:10C0B0001744019A076522444265029A3244826518
:10C0C000039A2A44C265049A1A44059B02660B44EB
:10C0D0004366069B63448366079B7344C36649B00B
:10C0E000BDE8F08FE64635468C462646194614468E
:10C0F000B0E700BF78CA070030B5E0B10F4A02656B
:10C100000F4A42650F4A82650F4AC2650F4A0266AE
:10C110000F4A42660F4A82660024002502F17452DB
:10C12000C0E91245A2F523020023A2F6924203645D
:10C13000C266184630BD0E2030BD00BF67E6096AF2
:10C1400085AE67BB72F36E3C3AF54FA57F520E5138
:10C150008C68059BABD9831FF8B50446F0B10AB9CA
:10C160000020F8BDD1B10D468E180027B542F7D09A
:10C17000236C15F8012BE2540133402B2364F5D1D5
:10C1800021462046FFF71CFFD4E9120110F500708C
:10C1900041F10001C4E912012764E7E70E20F8BD70
:10C1A00070B50D4616460446002800F0868000292A
:10C1B00000F08380026C8021372A00EB0203815457
:10C1C0004BD800F13802002101339A4243D1D4E91F
:10C1D0001223206C0821E1FB002322FA01F1C4E9BB
:10C1E000122384F83F2084F83E10110C120E84F8BC
:10C1F0003C201A0A84F83B3084F83A201A0C1B0EB3
:10C2000084F83D1084F83920214684F838302046DF
:10C21000FFF7D6FE691E8EB30023E26EDA4001F806
:10C22000012FA26EDA400A71626EDA400A72226E43
:10C23000DA400A73E26DDA400A74A26DDA400A75D8
:10C24000626DDA400A76226DDA400833202B0A77D5
:10C25000E3D1002070BD1970B6E7002101331A1B2D
:10C260003F2A09D921462046FFF7AAFE382200219D
:10C27000204600F0A1FBAAE71970EFE71823226D12
:10C28000DA4001F8012F626DDA400A71A26DDA40DE
:10C290000A72E26DDA400A73226EDA400A74626E44
:10C2A000DA400A75A26EDA400A76E26EDA40083B9E
:10C2B00013F1080F0A77E2D1CBE70E2070BD000022
:10C2C000094B1B78062B0CD1084B1B681A0708D1A9
:10C2D000074B186800F0F000A0F1300358425841B5
:10C2E00070470020704700BFE00F00F0E40F00F03F
:10C2F000E80F00F00C4B1B78062B10D10B4B1B6882
:10C300001A070CD10A4B186800F0F003302B08D044
:10C3100000F0E000A0F1400358425841704700206F
:10C3200070470120704700BFE00F00F0E40F00F0FD
:10C33000E80F00F008B5FFF7DDFF28B17F4B804A1A
:10C340001B68C3F304231360FFF7BAFF10B17D4BE2
:10C350007D4A1A60FFF7CEFF28B17C4B7C4A1B68F0
:10C36000C3F342331360FFF7ABFF20B1794AD368C0
:10C3700023F08073D360FFF7BDFF40B14FF08043DF
:10C380000022C3F80C21C3F81021C3F83825FFF7A9
:10C3900097FF10B1704B03221A60FFF791FF40B175
:10C3A0006E4B05221A6001229A6700229A603F2292
:10C3B0005A606B4B1B78062B09D16A4B1B68190717
:10C3C00005D1694B1B6803F0F003502B67D0FFF7D2
:10C3D00091FF28B1654B664A1B6803F04F03136059
:10C3E000FFF788FF48B14FF08043D3F80024D2070D
:10C3F00044BF6FF00102C3F800245E4B1B68062B9C
:10C4000004D15D4B1B68062B00F091805B4AD2F88B
:10C41000883043F47003C2F88830BFF34F8FBFF306
:10C420006F8F4FF01023D3F80022002A03DBD3F8DC
:10C430000432002B2FDA524B0122C3F80425D3F823
:10C440000024002AFBD04FF010221521C2F8001260
:10C45000D3F80024002AFBD04FF010231522C3F894
:10C460000422474B1A46D3F800140029FBD00021C0
:10C47000C3F80415D2F80034002BFBD0BFF34F8F64
:10C480003E49404BCA6802F4E0621343CB60BFF3FD
:10C490004F8F00BFFDE73C4B3C4A1A6008BD4FF090
:10C4A00080523B4BD2F80414C3F82015D2F808147C
:10C4B000C3F82415D2F80C14C3F82815D2F81014B8
:10C4C000C3F82C15D2F81414C3F83015D2F8181488
:10C4D000C3F83415D2F81C14C3F84015D2F8201450
:10C4E000C3F84415D2F82414C3F84815D2F8281418
:10C4F000C3F84C15D2F82C14C3F85015D2F83014E8
:10C50000C3F85415D2F83414C3F86015D2F83814AF
:10C51000C3F86415D2F83C14C3F86815D2F8401477
:10C52000C3F86C15D2F84424C3F870254FE7194AB4
:10C53000136843F48063136068E700BF24030010AE
:10C540004035014074C007400DF0ADBA4402001000
:10C550003C050040F0ED00E0A00500401056004012
:10C56000E00F00F0E40F00F0E80F00F058020010B8
:10C57000E40E0040300100103401001000ED00E036
:10C5800000E001400400FA050C0000200090D003F8
:10C5900000C000403C1700400649074A074B9B1A61
:10C5A00003DD043BC858D050FBDCFFF7C3FEFBF7AC
:10C5B0005DFE000088CB0700040000207C00002006
:10C5C000FEE7FEE7FEE7FEE7FEE7FEE7FEE7FEE743
:10C5D000FEE7FEE7D0400B1CD1409C46203AD340FA
:10C5E0001843524263469340184370479140031CDE
:10C5F00090409C46203A9340194352426346D340B0
:10C600001943704753B94AB9002908BF00281CBF15
:10C610004FF0FF314FF0FF3000F07AB9ADF1080C68
:10C620006DE904CE00F006F8DDF804E0DDE9022350
:10C6300004B070472DE9F0478C460D460446089E2D
:10C64000002B51D18A4217466DD9B2FA82FEBEF153
:10C65000000F0BD0CEF1200C01FA0EF520FA0CFCE5
:10C6600002FA0EF74CEA050C00FA0EF44FEA174AEC
:10C67000250CBCFBFAF81FFA87F90AFB18CC45EA2F
:10C680000C4508FB09F3AB420AD9ED1908F1FF325A
:10C6900080F02381AB4240F22081A8F102083D44A2
:10C6A000ED1AA4B2B5FBFAF00AFB105544EA0544B2
:10C6B00000FB09F9A14509D9E41900F1FF3380F025
:10C6C0000A81A14540F2078102383C44A4EB0904E9
:10C6D00040EA08400021002E61D024FA0EF4002325
:10C6E00034607360BDE8F0878B4207D9002E54D0C8
:10C6F000002186E821000846BDE8F087B3FA83F1FF
:10C70000002940F08E80AB4202D3824200F2FA80D0
:10C71000841A65EB03050120AC46002E3FD086E865
:10C720001010BDE8F08712B90127B7FBF2F7B7FA8E
:10C7300087FEBEF1000F34D1EB1B3A0C1FFA87FCC9
:10C740000121B3FBF2F8250C02FB183345EA03453F
:10C750000CFB08F3AB4207D9ED1908F1FF3002D208
:10C76000AB4200F2D1808046ED1AA3B2B5FBF2F0E5
:10C7700002FB105543EA05440CFB00FCA44507D915
:10C78000E41900F1FF3302D2A44500F2B880184644
:10C79000A4EB0C0440EA08409DE731463046BDE872
:10C7A000F087CEF1200405FA0EF307FA0EF720FA0F
:10C7B00004F83A0C25FA04F448EA0308B4FBF2F151
:10C7C0004FEA184502FB11441FFA87FC45EA04456D
:10C7D00001FB0CF3AB4200FA0EF409D9ED1901F19B
:10C7E000FF3080F08A80AB4240F2878002393D44BE
:10C7F000EB1A1FFA88F5B3FBF2F002FB103345EA9F
:10C80000034500FB0CF3AB4207D9ED1900F1FF38EB
:10C810006FD2AB426DD902383D44EB1A40EA014178
:10C820008FE7C1F1200722FA07F88B4005FA01F4DF
:10C8300048EA030320FA07FE4FEA134CFD404EEA94
:10C84000040EB5FBFCF94FEA1E440CFB19551FFA08
:10C8500083F844EA054509FB08F4AC4202FA01F208
:10C8600000FA01FA08D9ED1809F1FF3043D2AC42C1
:10C8700041D9A9F102091D442D1B1FFA8EFEB5FBFB
:10C88000FCF00CFB10554EEA054400FB08F8A045EF
:10C8900007D9E41800F1FF3529D2A04527D902387D
:10C8A0001C4440EA0940A4EB0804A0FB02894C4563
:10C8B000C6464D4615D312D056B1BAEB0E0364EB03
:10C8C000050404FA07F7CB401F43CC40376074607F
:10C8D0000021BDE8F0871846F8E69046E0E6C2453C
:10C8E000EAD2B8EB020E69EB03050138E4E728460B
:10C8F000D7E7404691E78146BEE7014678E7023830
:10C900003C4445E7084608E7A8F102083D442BE708
:10C91000704700BF08B5074B044613B10021AFF3C1
:10C920000080054B1868836A03B19847204600F0E1
:10C930004BF800BF0000000078CB070070B50D4E2B
:10C940000D4CA41BA4100025A54209D10B4E0C4C84
:10C9500000F03CF8A41BA4100025A54205D170BD31
:10C9600056F8253098470135EEE756F825309847B8
:10C970000135F2E7700000207000002070000020F8
:10C980007400002010B501390244904201D100200A
:10C9900010BD10F8013B11F8014FA342F5D0181B50
:10C9A00010BD10B5431E0A44914200D110BD11F8CC
:10C9B000014B03F8014FF7E702440346934200D1CD
:10C9C000704703F8011BF9E7FEE700BFF8B500BFA9
:10C9D000F8BC08BC9E467047F8B500BFF8BC08BC60
:10C9E0009E467047FFFF00000203000102000000A6
:10C9F0001A0000005000000096C298D84539A1F4F2
:10CA0000A033EB2D817D0377F240A463E5E6BCF80B
:10CA100047422CE1F2D1176BF551BF376840B6CBD6
:10CA2000CE5E316B5733CE2B169E0F7C4AEBE78ED2
:10CA30009B7F1AFEE242E34F512563FCC2CAB9F361
:10CA4000849E17A7ADFAE6BCFFFFFFFFFFFFFFFFC5
:10CA500000000000FFFFFFFFFFFFFFFFFFFFFFFFE2
:10CA6000FFFFFFFF000000000000000000000000CA
:10CA700001000000FFFFFFFF982F8A4291443771A9
:10CA8000CFFBC0B5A5DBB5E95BC25639F111F15951
:10CA9000A4823F92D55E1CAB98AA07D8015B831293
:10CAA000BE853124C37D0C55745DBE72FEB1DE803F
:10CAB000A706DC9B74F19BC1C1699BE48647BEEF6E
:10CAC000C69DC10FCCA10C246F2CE92DAA84744AF9
:10CAD000DCA9B05CDA88F97652513E986DC631A86F
:10CAE000C82703B0C77F59BFF30BE0C64791A7D54E
:10CAF0005163CA0667292914850AB72738211B2ED6
:10CB0000FC6D2C4D130D385354730A65BB0A6A76BD
:10CB10002EC9C281852C7292A1E8BFA24B661AA8C9
:10CB2000708B4BC2A3516CC719E892D1240699D6D9
:10CB300085350EF470A06A1016C1A419086C371E52
:10CB40004C774827B5BCB034B30C1C394AAAD84E30
:10CB50004FCA9C5BF36F2E68EE828F746F63A5786B
:10CB60001478C8840802C78CFAFFBE90EB6C50A4FE
:10CB7000F7A3F9BEF27871C6100000200000000093
:08CB8000ECB6FF7F010000008C
:10CB8800363FABE5030000000090D0030000000032
:10CB9800000000000000000000000000000000008D
:10CBA800000000000000000000000000000000007D
:10CBB800000000000000000000000000000000006D
:10CBC800000000000000000000000000000000005D
:10CBD800000000000000000000000000000000004D
:10CBE800000000000000000000000000258207008F
:08CBF8000182070000000000AB
:020000020000FC
:020000041000EA
:041014000080070051
:04101800007007005D
:040000037000C5992B
:00000001FF
