:020000022000DC
:1060000000FD0320A5CF0300CDCF0300CFCF0300B9
:10601000D1CF0300D3CF0300D5CF03000000000091
:10602000000000000000000000000000D7CF0300C7
:10603000D9CF030000000000DBCF0300DDCF030059
:10604000DFCF0300DFCF0300DFCF0300DFCF03008C
:10605000DFCF0300DFCF03008D7B0200DFCF030023
:10606000DFCF0300DFCF030059110300DFCF0300B0
:10607000DFCF0300DFCF0300DFCF0300DFCF03005C
:10608000DFCF030025A6030059CC0200DFCF0300B9
:10609000F5A60300DFCF03002D880200DFCF030049
:1060A000DFCF0300DFCF0300DFCF0300DFCF03002C
:1060B000DFCF0300DFCF030000000000000000007E
:1060C000DFCF0300DFCF0300DFCF0300DFCF03000C
:1060D000DFCF0300DFCF0300DFCF0300DFCF0300FC
:1060E000DFCF0300DFCF0300DFCF0300000000009D
:1060F00000000000DFCF030000000000DFCF03003E
:10610000000000000000000000000000000000008F
:10611000000000000000000000000000000000007F
:10612000000000000000000000000000000000006F
:10613000000000000000000000000000000000005F
:10614000000000000000000000000000000000004F
:10615000000000000000000000000000000000003F
:10616000000000000000000000000000000000002F
:10617000000000000000000000000000000000001F
:10618000000000000000000000000000000000000F
:1061900000000000000000000000000000000000FF
:1061A00000000000000000000000000000000000EF
:1061B00000000000000000000000000000000000DF
:1061C00000000000000000000000000000000000CF
:1061D00000000000000000000000000000000000BF
:1061E00000000000000000000000000000000000AF
:1061F000000000000000000000000000000000009F
:1062000010B5054C237833B9044B13B10448AFF3F0
:1062100000800123237010BD482F002000000000E3
:106220006402040008B5034B1BB103490348AFF3F4
:10623000008008BD000000004C2F00206402040014
:10624000154B002B08BF134B9D46A3F5803A002148
:106250008B460F461348144A121A18F0A7FA0F4B30
:10626000002B00D098470E4B002B00D09847002001
:10627000002104000D000D48002802D00C48AFF3A7
:10628000008018F045FA2000290000F0A7FD18F062
:106290002BFA00BF0000080000FD032000000000F2
:1062A00000000000482F00204C5A00200000000091
:1062B0000000000041DF704730B52E4B14461B68CC
:1062C000526887B00D4603F480435AB3FBB12A4BA2
:1062D0001B68032B1BDD2F21284818F037FBC0B1AA
:1062E0002F21264818F032FB411C254B6268D3F859
:1062F0000435049262780392227802926A880192AD
:10630000204A009204204FF4A07207F09BFC07B0D3
:1063100030BD5C21194818F019FB08B15C21E0E799
:106320001649E2E7002BF2D0134B1B68032BEEDD7E
:106330002F21124818F00AFB98B12F210F4818F0AE
:1063400005FB411C0E4B2278D3F8043502926A8873
:1063500001920D4A0092042040F2451207F072FCAF
:10636000D5E75C21054818F0F1FA08B15C21E5E7B2
:106370000249E7E7542E0020502E0020A8EB03002E
:1063800000100140CEEB030020EC0300012A07B50A
:1063900033D00AD3022A59D03E4A40F233110320A7
:1063A00003B05DF804EB16F028BE3B4B1B685904A4
:1063B00017D53A4B1B68032B13DD2F21354818F0F6
:1063C000C5FA88B12F21334818F0C0FA411C344B6C
:1063D000344AD3F8043500924FF49372042007F046
:1063E00031FC03B05DF804FB5C212A4818F0AEFADA
:1063F00008B15C21E7E72749E9E7062232214FF49B
:10640000F03001F02DFB244B1B685A04E9D5234BD7
:106410001B68032BE5DD2F211E4818F097FA60B1A9
:106420002F211C4818F092FA411C1D4B1E4AD3F82C
:106430000435009240F22B12D0E75C21154818F089
:1064400085FA08B15C21ECE71249EEE7124B1B68B4
:106450005B04C6D5114B1B68032BC2DD2F210D48F1
:1064600018F074FA60B12F210A4818F06FFA411C35
:106470000B4B0E4AD3F80435009240F22F12ADE7D1
:106480005C21044818F062FA08B15C21ECE701498C
:10649000EEE700BFA8EB0300542E0020502E002092
:1064A0000010014046EB030066EB030086EB03009F
:1064B00007B538223849012000F0CAFF374B1B6866
:1064C00020BB5B0416D5364B1B68032B12DD2F2136
:1064D000344818F03BFA80B12F21324818F036FAD0
:1064E000411C314B314AD3F80435009286220420F6
:1064F00007F0A8FB03B05DF804FB5C21294818F005
:1065000025FA08B15C21E8E72649EAE7062803F402
:1065100080431FD1002BEDD0214B1B68032BE9DDFD
:106520002F21204818F012FA58B12F211D4818F0D9
:106530000DFA411C1C4B1E4AD3F8043500928A22E6
:10654000D5E75C21174818F001FA08B15C21EDE7A6
:106550001449EFE7002BCDD0114B1B68002BC9DD90
:106560002F21104818F0F2F960B12F210D4818F0D2
:10657000EDF9411C0C4B0F4AD3F804350092012071
:106580008E22B5E75C21074818F0E0F908B15C21DC
:10659000ECE70449EEE700BF842F0020542E0020D2
:1065A000502E0020A8EB030000100140E4E9030096
:1065B00008EA030036EA030007B5184B1B685B04C2
:1065C00017D5174B1B68032B13DD2F21154818F027
:1065D000BDF9C8B12F21134818F0B8F9411C124B6E
:1065E000124AD3F804350092042040F24B1207F00F
:1065F00029FB0322C8214FF4F03001F031FA03B037
:106600005DF804EB01F052B85C21064818F09EF9E1
:1066100008B15C21DFE70349E1E700BF542E002009
:10662000502E0020A8EB0300001001400EED0300E7
:1066300013B51F4B1B685B04044618D51D4B1B6824
:10664000032B14DD2F211C4818F080F9A8B12F214D
:10665000194818F07BF9411C184B194AD3F8043536
:106660000092019440F25D12042007F0EBFA012C35
:106670000CD0032C0FD002B010BD5C210E4818F0D6
:1066800065F908B15C21E3E70B49E5E702B0BDE835
:106690001040FFF70DBF0CF0C9FE3821094800F08B
:1066A0001DFF00F0A5FF02B0BDE81040FFF784BF5A
:1066B000542E0020502E0020A8EB030000100140B3
:1066C0009FEC0300842F00203038032801D8FFF707
:1066D000AFBF704700F03CBC37B5274B1B685B046D
:1066E00018D5264B1B68032B14DD2F21244818F0E6
:1066F0002DF9002835D02F21214818F027F9411C09
:10670000204B214AD3F804350092042040F297121E
:1067100007F098FA1D4C1E4D2563002301212046E9
:10672000A36284F82C3084F82D300CF09FFF20B148
:10673000134A40F2A11116F060FC00230221154813
:106740006566E36584F8603084F861300CF08EFF94
:1067500080B10B4A40F2A11103B0BDE8304016F001
:106760004CBC5C21064818F0F1F808B15C21C3E785
:106770000349C5E703B030BD542E0020502E002041
:10678000A8EB030000100140EEEC0300BC2F00203A
:10679000B4EC0300F02F002010B5044600214FF4A4
:1067A000F03004EB840401F051F9620032214FF41F
:1067B000C030BDE8104001F053B901F083B90000CA
:1067C0001FB5314C2268520418D5304B1B68032B7F
:1067D00014DD2F212E4818F0B9F8002842D02F21BF
:1067E0002B4818F0B3F8411C2A4B2B4AD3F8043538
:1067F000009204204FF4DA7207F024FA01F08EFBC5
:1068000001F0B4FB03A812F047FE23685B041AD51D
:106810001E4B1B68032B16DD2F211D4818F096F820
:1068200048B32F211A4818F091F8411C194BBDF8B4
:106830000C20D3F804350192184A0092042040F24B
:10684000BF1207F0FFF901F03DF900214FF4F030DD
:1068500001F0FCF80422C8214FF4F03001F000F9F7
:1068600004B010BD5C210A4818F070F808B15C2132
:10687000B6E70749B8E75C21054818F067F808B1A2
:106880005C21CFE70249D1E7542E0020502E002092
:10689000A8EB03000010014027ED030041ED0300C9
:1068A00007B5144B1B685B0417D5134B1B68012BF2
:1068B00013DD2F21114818F049F888B12F210F4816
:1068C00018F044F8411C0E4B0E4AD3F804350092E0
:1068D00002204FF48C7207F0B5F903B05DF804FBA9
:1068E0005C21064818F032F808B15C21E7E703495B
:1068F000E9E700BF542E0020502E0020A8EB030033
:106900000010014027EB03002DE9F0430378012B31
:106910008BB0054640F0FF809E4F3B685C0422D55B
:106920009D4B1B68032B1EDD2F219C4818F00EF891
:10693000002800F0B3802F21984818F007F8411C78
:10694000974B2A7BD3F8043505926A7A04922A7A07
:106950000392EA7A0292AA7A0192924A0092042061
:10696000F52207F06FF9DFF85C82DFF8609200240F
:1069700098F80030E6B2B34209D93301062259F83B
:106980000310686817F0F8FE01340028F0D105F014
:1069900047FB854A13788DF81D30591C0446642343
:1069A0003220CDE908302B7B1170012B40F0EF80B5
:1069B000AB7A002B7BD07D4B31015A58A01A48BFCF
:1069C000101B7B4A904272D95C5001210D208DF83A
:1069D0001C1001F02FF808AA07A976480CF072FEE7
:1069E000E8B93B6859041AD56B4B1B68032B16DDBD
:1069F0002F216A4817F0AAFF002869D02F21674885
:106A000017F0A4FF411C664B9DF81C20D3F80435F9
:106A10000192694A00920420CC2207F013F92B7AE4
:106A2000002B5ED0614B31015A189268A01A48BF02
:106A3000101B5F4A904254D90B4401219C600E20E8
:106A40008DF81C1000F0F6FF022308AA07A95B4886
:106A50000CF088FE002840F09A803B685A0440F110
:106A600096804D4B1B68032B40F391802F214B48A0
:106A700017F06CFF002845D02F21484817F066FF1B
:106A8000411C474B9DF81C20D3F8043501924C4A19
:106A900000920420E22207F0D5F878E05C213F481C
:106AA00017F054FF08B15C2146E73C4948E7EB7A10
:106AB000002BB4D03D4B31015A185268A01A48BF80
:106AC000101B3B4A9042AAD90B4400215C607DE731
:106AD0005C21324817F03AFF08B15C218FE72F495B
:106AE00091E76B7A002B52D0304B36019A19D2685D
:106AF000A11A48BF111B2E4A914248D91E440021B9
:106B0000F4609CE75C21254817F020FF08B15C2168
:106B1000B3E72249B5E7002B39D12A4E3078012856
:106B200056D8294CAA681C2707FB0043C0EBC000BD
:106B30009A616968062204EB800017F02CFE307819
:106B4000E96807FB00401022063017F024FEFFF72B
:106B5000AFFC32781D4910B2C0EBC00312019B009C
:106B60008F1803F1180525447D60E51806331C4491
:106B70008D5001EB0010BC6000F0E4FA3378042281
:106B80000133C8214FF4F030337000F069FF0BB0CF
:106B9000BDE8F083542E0020502E0020A8EB030007
:106BA000001001406FEA0300493000202830002027
:106BB00020A10700BC2F00209FEA0300F02F002037
:106BC000C5EA030025300020842F0020642F002018
:106BD000124B1B685B04DAD5114B1B68002BD6DD0A
:106BE0002F21104817F0B2FE78B12F210D4817F071
:106BF000ADFE411C0C4B0222D3F8043501920B4A26
:106C0000009201204FF4887245E75C21054817F097
:106C10009DFE08B15C21E9E70249EBE7542E002014
:106C2000502E0020A8EB030000100140EBEA030007
:106C300008B503781C2B07D13821044800F04EFC1E
:106C4000BDE80840FFF7B8BC08BD00BF842F002096
:106C50002DE9F74F03780E2B40F08380524E3368B6
:106C6000590418D5514B1B68042B14DD2F215048B3
:106C700017F06CFE002877D02F214D4817F066FEE4
:106C8000411C4C4B4C4AD3F80435009205204FF47C
:106C9000C27206F0D7FF494F3B78002B61D13368B1
:106CA0005A0418D5414B1B68032B14DD2F21404893
:106CB00017F04CFE002860D02F213D4817F046FE0B
:106CC000411C3C4B3E4AD3F804350092042040F26C
:106CD000FB1206F0B7FF38223A49DFF8FC800120AA
:106CE00000F09EFB00285AD1DFF8D890364DDFF82F
:106CF000C4B0044609F1060A09EB04032B600AEB51
:106D00000403AB60314B23446B6098F80030284695
:106D1000013388F8003000F015FA33685B0416D5AB
:106D2000224B1B68032B12DD2F21214817F00EFE8A
:106D300060B32F211E4817F009FE411C244ADBF8DE
:106D400004350092042040F2072206F07BFF1C3439
:106D5000382C05F11005CFD11E4804F009FF01239E
:106D60003B7003B0BDE8F08F5C21114817F0EEFDD9
:106D700008B15C2181E70E4983E75C210C4817F0DC
:106D8000E5FD08B15C2198E709499AE75C210848CC
:106D900017F0DCFD08B15C21CCE70549CEE7002304
:106DA00088F80030D8E700BF542E0020502E002075
:106DB000A8EB03000010014049EC0300483000201C
:106DC00062EC0300842F0020642F00209C2F002001
:106DD00079EC0300D56602002530002000B54E4A4C
:106DE0008DB0042146F2010006F010FF4B4B1B68EA
:106DF0005B0418D54A4B1B68032B14DD2F2149482F
:106E000017F0A4FD00287DD02F21464817F09EFDE5
:106E1000411C454B454AD3F804350092042040F20A
:106E2000E31206F00FFF13F0AFFD20B13D4A40F230
:106E3000E51116F0E2F800F055FE3D4800F07EFE48
:106E400020B1384A40F2E91116F0D7F801F04CF8B9
:106E500001F064F801F08AF80021202203A817F05D
:106E6000A5FC01238DF80C3007238DF80F30062385
:106E70008DF814302F4B07932F49304B0B9303A8F9
:106E800000F0CEFB20B1274A40F2D91116F0B5F838
:106E90002B4804F063FE00F035FA2A4800F062F94E
:106EA0006421294800F066FD234B1B7883B9274DE8
:106EB0000FCD03AC0FC495E8030084E8030003A8DA
:106EC00000F000FD20B1174A4FF4097116F095F853
:106ED00000214FF4F03000F0B9FD0222C8214FF438
:106EE000F03000F0BDFD01F01DFF00F07FFE00F06E
:106EF000CFFB20B10B4A4FF40C7116F07EF8FFF770
:106F0000D9F9FCE75C21074817F020FD08B15C21A6
:106F10007BE704497DE700BFE1DB0200542E00203F
:106F2000502E0020A8EB030000100140C0EC03002D
:106F300031660200316C020024300020D966020064
:106F4000A02D002009690200C9660200CCE90300F7
:106F50002DE9F04F44686378FF2B99B040F0B3807F
:106F60002378102B00F2A180628840F2DA339A4233
:106F700040F0CE8090F801A063680293AAF1040863
:106F80005FFA88F804EB08030393012387688DF800
:106F90002430654BDFF8A8B11D680F370A97002D24
:106FA00000F0B680B8F10D0F7DD8062255F80C1C04
:106FB000384617F0E1FB0646002874D10DF114099C
:106FC00006223946484617F0E6FB0422A1180DF1C7
:106FD0001A0017F0E0FB032231460DF11E0017F0F6
:106FE000E5FB55F8043C1196CDE90F39039B169348
:106FF0000DF1130104230FA88DF85C30ADF8486043
:107000001394ADF85080159605F081FE9DF813306D
:10701000002B48D055F8083C02991A688A4242D29F
:107020001960424B94F808901B685B0409F01F0636
:1070300018D53F4B1B68032B14DD2F213D4817F05B
:1070400085FC002867D02F213A4817F07FFC411CAF
:10705000394B3A4AD3F804350092042040F22B12FF
:1070600006F0F0FDC6F340038DF82E30C6F3800322
:107070008DF82F30C6F3C0038DF82C3004F10903CE
:107080000D93AAF10D03DBB2360909F00109042BB7
:107090008DF82D608DF830908DF8383038D8DBF8C9
:1070A000003009A898472D6879E71D2B30D16288F8
:1070B00040F2DA339A422BD1676804F1080618349B
:1070C000194B1D6819E0082B22D1237AFF2B1FD101
:1070D000B4F8092040F2DA339A4219D1D4F80B708F
:1070E00004F10F0684680F34EAE70622214655F8BA
:1070F0000C0C17F041FB58B12D68002DF5D1104B49
:107100008DF82450CDE90A470C961B6809A89847CA
:1071100019B0BDE8F08F5C21064817F017FC08B1E4
:107120005C2191E7034993E750300020542E002062
:10713000502E002081ED030000100140AAED030055
:107140004C30002010B5044610B9784601F0B2FD6D
:1071500004F10C010248BDE8104006F0D8BC00BFA5
:107160005030002010B5044610B9784601F0A2FD59
:10717000014B1C6010BD00BF4C300020024A48216A
:10718000032015F03ABF00BFFEED030013B5154B09
:107190001B685B04044616D5134B1B68032B12DDDA
:1071A0002F21124817F0D2FB90B12F210F4817F072
:1071B000CDFB411C0E4B0F4AD3F80435009204203E
:1071C0004D2206F03FFD234602B0BDE810401847AF
:1071D0005C21064817F0BAFB08B15C21E6E70349D9
:1071E000E8E700BF542E0020502E0020FEED0300E3
:1071F000001001402CEE030013B51D4B1B685B040F
:10720000144616D51B4B1B68032B12DD2F211A4881
:1072100017F09CFBA8B12F21174817F097FB411CD2
:10722000164B174AD3F8043500920420382206F092
:1072300009FD012C0ED1784602B0BDE8104001F0E6
:1072400039BD5C210C4817F081FB08B15C21E3E7F4
:107250000949E5E7022CEED0032C07D1064A41216B
:10726000042002B0BDE8104015F0C7BE02B010BD4A
:10727000542E0020502E0020FEED0300001001408F
:1072800067EE030007B5184B1B685B0416D5174B58
:107290001B68032B12DD2F21154817F057FBB8B1DF
:1072A0002F21134817F052FB411C124B124AD3F8FE
:1072B0000435009204205E2206F0C4FC0F4806F05C
:1072C000EFFF70B10E4803B05DF804EB07F024BA8D
:1072D0005C21074817F03AFB08B15C21E1E704495B
:1072E000E3E703B05DF804FB542E0020502E00208D
:1072F000FEED03000010014058EE03005430002062
:10730000BC2D002000B58BB003A902A800F0DEF967
:1073100018B1204A702115F070FE1F4B07931F4BC8
:1073200008931F4B099304230693029B1D48A3F562
:107330008053049304A90123059307F0DDF8E8B115
:10734000194807F0E9F9194B1B685B0416D5184B6F
:107350001B68002B12DD2F210E4817F0F7FA80B1C1
:107360002F210C4817F0F2FA411C124B124AD3F8A5
:107370000435009201207E2206F064FC0BB05DF81B
:1073800004FB5C21034817F0E1FA08B15C21E8E74F
:107390000049EAE7FEED0300F97102007D71020089
:1073A000BD73020054300020AC2D0020542E00206C
:1073B000502E002000100140D4ED030007B5134B00
:1073C0001B685B0416D5124B1B68032B12DD2F21A3
:1073D000104817F0BBFA80B12F210E4817F0B6FA0B
:1073E000411C0D4B0D4AD3F8043500920420542261
:1073F00006F028FC03B05DF804FB5C21054817F09B
:10740000A5FA08B15C21E8E70249EAE7542E00201A
:10741000502E0020FEED03000010014041EE03005D
:1074200073B502AB0D4643F8042D16460A460146D5
:10743000064806F0BDFF044620B13246002128462A
:1074400017F0B4F9204602B070BD00BF54300020E0
:1074500073B50D4601461B48164606F0E0FF1A4B71
:107460001B685B04044616D5184B1B68032B12DD02
:107470002F21174817F06AFAC8B12F21144817F0C6
:1074800065FA411C134B144AD3F8043500920420CA
:10749000922206F0D7FB9CB132462946201D17F0F8
:1074A0007AF9204606F0EAFF002002B070BD5C21A8
:1074B000074817F04BFA08B15C21DFE70449E1E720
:1074C0001120F2E754300020542E0020502E0020CE
:1074D000FEED030000100140C6ED030008B50A46AA
:1074E000002117F063F9BDE80840FFF7CBBE10B5E7
:1074F000044607F029F938B123780E2B04D1002077
:10750000BDE8104004F08ABB10BD000070B5837D5B
:10751000C27D86B043EA0223ADF81430044603234B
:1075200005A80E46ADF8163011F07AFF0546002882
:1075300047D104AA2146208A12F068F9054600289E
:107540003FD10DF112033246BDF81010E08A12F05F
:107550006BFB0546002834D1217ED4F8120001F0DF
:10756000010103F0C3FE10B1784601F0A3FBBDF8A2
:1075700012000EF047FC054618BB184B1B681B0396
:107580001DD5174B1B68062B19DD2F21154817F049
:10759000DDF9C8B12F21134817F0D8F9411C227E1C
:1075A000114B02F00102D3F804350292D4F81220F4
:1075B00001920E4A00920720C32206F043FB0FF00F
:1075C000B1FB284606B070BD5C21064817F0BEF935
:1075D00008B15C21DFE70349E1E700BF542E00203A
:1075E000502E00207DEE0300001001409CEE0300B1
:1075F00008B508F00BFC0FF0E2FF11F099FEBDE8B2
:10760000084003F033BC07B501A811F045FFBDF8F1
:107610000400003018BF012003B05DF804FB000037
:1076200073B50E46054678B304F0B6F9044640BB80
:1076300011F0D8FE10F042FD28690EF0B3FB0446AD
:10764000F8B92B7F0193AB69009301466B690F4832
:1076500059220EF03BFE044698B92B6A03B19847B5
:1076600008F0ECFA11F0D2FD0FF0F4FC08B10FF0C5
:1076700059FBFFF7C8FF054608B10BF0ABFA06B19E
:107680003570204602B070BD0E24FAE77830002035
:1076900008B5FFF7B8FF20B10BF05CFB08B10BF0A9
:1076A000DBFABDE8084004F0EBB9000008B507F0CC
:1076B0004BF820B10020BDE8084004F0AFBA024802
:1076C000BDE8084004F04ABACC2D002037B50D467D
:1076D0000446A0B199B1684608F05AFE009B53B128
:1076E000236007F067F82368C01A00F5805028600F
:1076F000002003B030BD10F0B0FC2060F1E70E2098
:10770000F7E7000030B5274D297885B019B1012879
:1077100003D003283FD005B030BD04AC002344F8AB
:10772000083D214600F030FF08B115F059FC204615
:1077300000F094FF08B115F053FC04A9012341F8AF
:10774000043D0DF1060012F041FA08B115F048FCB5
:10775000BDF8060011F0CAFF0DF1050112F0E4F8C2
:1077600008B115F03DFC0BF035FA9DF8051000202E
:107770000BF090FE10B1784601F09CFA04F080F90D
:1077800008B115F02DFC00232B70074B1B68002B54
:10779000C1D09847BFE700F0C9FF0028BBD015F063
:1077A0001FFCB8E7D2300020D430002008B50378A1
:1077B0001C2B0CD1064B1B784BB100F0F3FF08B12A
:1077C00015F00EFC0348BDE8084004F0C9B908BD37
:1077D000D2300020D82D002010B50749074813F0FB
:1077E00053FD024638B90649064809690323BDE836
:1077F000104013F062BD10BDEC3000205834002062
:10780000D43000202433002010B50378023B082B2D
:107810004AD8DFE803F01E051249493849493F00BC
:10782000224B5B68002B3FD0007A00283CD0204AD6
:1078300001211170BDE8104018471C4B9B68002BBC
:1078400032D01B4A117879B300211170BDE8104085
:107850001847184B1A784AB9144BDB6813B114490E
:107860000A709847BDE81040FFF7B6BF124B1348A7
:1078700001221A7004F072F904F058F9A0B1BDE8C1
:10788000104015F0ADBB094B0D485969102213F09B
:1078900059FDF3E7D0E90210FFF738FE08B115F003
:1078A0009FFB044B01221A7010BD00BFD430002092
:1078B000D0300020D1300020D2300020D82D002040
:1078C0002433002070B51C4A1C4E5168044686B013
:1078D000106803AB03C31189927A19809A700FCC98
:1078E00035460FC594E8030085E80300736903B3C8
:1078F000134B0093134A1449144803AB13F096FC3E
:10790000A8B9134814F0A2FC0146104813F0A8FCD3
:1079100068B9104815F01EFA48B90E4815F04CFA2F
:1079200001460A4813F09CFC08B9FFF755FF06B062
:1079300070BD0720FBE700BFBCEE0300D430002081
:1079400009780200EC300020583400202433002055
:107950000C310020D432002010B5054C226832B121
:1079600015F07CFC002802DB23689847F8E710BD7F
:1079700098340020154B164A10B50C4618600121AA
:10798000144813F05BF818B1134A4A2115F035FB7F
:10799000610C0023E00341F26F728B4208BF824208
:1079A00010D24FF47A72002316F01EFD0146002219
:1079B0000A4813F055F838B1074A4B21BDE810408A
:1079C00015F01BBB0521F2E710BD00BF9834002065
:1079D00059790200C8EE0300CCEE03009C3400206D
:1079E00070B5104C206808B915F0FAFA4FF0A045B0
:1079F0000D4ED5F8043532685340C5F80435236878
:107A0000013B236063B9094813F06EF83268D5F87A
:107A1000043523EA0203064A12681343C5F8043505
:107A200070BD00BFBC340020C0340020C43400202E
:107A3000EC340020012303FA00F04FF0A04311B111
:107A4000C3F80C057047C3F8080570474FF0A04312
:107A500011B1C3F80C057047C3F808057047000062
:107A6000F8B52AB3132923D9124B134D5200013A0A
:107A70004FF0A0441A602860D4F8043518400F4B2A
:107A80004FF4FA76186000274FF40040E0FB0167DE
:107A90004FF47A7200233046394616F0A5FC0022D6
:107AA0000146074812F0DCFF10B92B68C4F80C350A
:107AB000F8BD00BFBC340020C0340020EC340020EE
:107AC000C434002008B5054813F00EF8044B1A68BA
:107AD0004FF0A043C3F8082508BD00BFC434002000
:107AE000C034002008B54FF0A04303224FF40051EA
:107AF000C3F83427C3F808154FF48041C3F838277A
:107B0000C3F808154FF40041C3F83C27C3F8081523
:107B1000C3F840274FF48032C3F808250121054AF5
:107B2000054812F08BFF18B1BDE8084015F058BAAF
:107B300008BD00BFE1790200F0EE0300D8B10F4BA1
:107B40000F4A18604FF0A0430020C3F82C27C3F859
:107B50003027C3F86027C3F864270A4B4FF0004270
:107B6000C3F80423C3F87C01074BC02283F8062323
:107B700040221A6070470E20704700BFE434002096
:107B80000C0003000060004000E100E0124B70B503
:107B90000024124E124DC3F87C414FF0A043A15D6A
:107BA000D3F8102501238B40934311D00D49D5F80C
:107BB00004250B68981A48BFD01A43F23333984211
:107BC00006D9D5F804350B60074B20461B6898474B
:107BD0000134042CE1D170BD00600040F4EE0300DC
:107BE00000100140E8340020E434002070B5044661
:107BF000CEB0002864D03C4D2A6852042FD53B4BB0
:107C00001B68032B2BDD3A4B0DAE19680023E25C99
:107C1000100902F00F02085C06F81300885C06EBFE
:107C200043020133102B5070F1D100232F21314832
:107C300086F8203016F08AFE002843D02F212D48E8
:107C400016F084FE411C2C4B2C4AD3F804350192CB
:107C50002B4A009202964122042005F0F3FF2B6884
:107C60005B042DD5214B1B68032B29DD2F212148D7
:107C700016F06CFE00282ED02F211E4816F066FE4E
:107C8000411C1D4BE27BD3F804350B92A27B0A9278
:107C9000627B0992227B0892E27A0792A27A06928C
:107CA000627A0592227A0492E2880392A288029272
:107CB00022680192134A00920420462205F0C2FF76
:107CC0004EB070BD5C210B4816F040FE08B15C213F
:107CD000B5E70849B7E75C21064816F037FE08B15A
:107CE0005C21CAE70349CCE7542E0020502E002027
:107CF000582E0020F8EE03000010014020EF030092
:107D000032EF03003AEF030072DF704773DF704712
:107D100074DF7047F0B52F4CA3B005460E461746EA
:107D200000211022204616F041FD2B482B4A0378F3
:107D30002B49C3EB431C62440133614403F001034C
:107D4000A2601F2203702160A280A28100213C2238
:107D500004A816F02BFD062301AA8DF813300E920D
:107D600001233C22002113A88DF80230ADF8203009
:107D70008DF83C30ADF80050CDF824D0ADF804506B
:107D8000ADF80870039616F011FD0223221D21683C
:107D90008DF84C3004A800F0CBF908B115F020F9AB
:107DA000104AA16813A800F0C3F908B115F018F93A
:107DB0000D4A08490D48FFF7A7FF082804D1002203
:107DC00004490A48FFF7A0FF08B115F009F923B0EC
:107DD000F0BD00BF30350020F034002040350020D9
:107DE000F13400203C350020E82D0020E42D002057
:107DF000B0F5202F0AD20A23B0FBF3F310B1002B09
:107E000008BF0123034A9381916070474FF6FF73C7
:107E1000F8E700BFE82D002008B5064B01211878CF
:107E2000FFF774FF08B115F0DBF80020BDE808404B
:107E300004F044BCE42D002008B5054B1878FFF78A
:107E400067FF18B1BDE8084015F0CAB808BD00BF0B
:107E5000E42D002076DF70477ADF70477CDF7047C3
:107E600015F0BEB803F07EBE07B503784BB93B21D1
:107E70004088FFF7EFFF08B303B05DF804EB15F09F
:107E8000AFB8012B1AD1134B1B685B0416D5124BEC
:107E90001B68032B12DD2F21104816F057FD80B10F
:107EA0002F210E4816F052FD411C0D4B0D4AD3F800
:107EB000043500920420682205F0C4FE03B05DF88A
:107EC00004FB5C21054816F041FD08B15C21E8E7A0
:107ED0000249EAE7542E0020502E002098EF0300BC
:107EE00000100140C8EF030013B500F01FFC08B1FB
:107EF00015F076F802AC002344F8043D0120214639
:107F000000F042FB08B115F06BF8204600F0A6FB2C
:107F100008B115F065F802B010BD00001FB504AC43
:107F20001123104804F80C3D16F008FD0D4982B2EB
:107F30002046FFF793FF08B115F052F808220DEB29
:107F40000200002116F032FC074A4FF0C87302A865
:107F5000CDE90223FFF780FF08B115F041F804B026
:107F600010BD00BF7AEF03007800C80010B58AB0DA
:107F700001AC08220021204616F018FC124A4FF0EE
:107F8000C873CDE9012300211C2203A816F00EFCC2
:107F90004FF4803340F6CD41CDE9041303238DF82F
:107FA00018300023ADF81A308DF81C30074B0893B9
:107FB00003A8074B0394099300F03CFD08B115F0AA
:107FC0000FF80AB010BD00BF7800C800697E02003B
:107FD000617E020070B5EFF3108672B60C4A9468A9
:107FE00001239CB993600B4B0B4DD3F880102940B3
:107FF0001160C3F88050D3F8841051604FF0FF3205
:10800000C3F88420047006B962B670BD0370FAE745
:10801000A059002000E100E0FC06FFBD10B5084BB0
:108020009A685AB150B9EFF3108172B6054A1C68CC
:1080300014605C685460986001B962B610BD00BFFE
:10804000A059002000E100E06DDF704779DF704744
:108050007DDF704764DF70472DE9F74F0C9CBDF85A
:1080600034B02788002580468A4691462E46B8F8C7
:108070000020B2420BDC35B12288013AD21B92B209
:10808000FF2A39D8DA55002003B0BDE8F08FD8F8C0
:10809000042052F82600019000220DF1030101A8EE
:1080A000FFF7D8FF0028EFD19DF803204A4521D1E2
:1080B0002288002D14BF0020022002EB0901014498
:1080C000594519DC3DB9013292B2228003F802A071
:1080D00022880132228022880DF103011A4401A86E
:1080E000FFF7B8FF0028CFD121889DF803200A446C
:1080F000228001250136BAE70C20C5E72DE9F341BE
:10810000089CBDF824501746CDE9004502220646DA
:10811000FFF7A2FF48B9102239463046CDE908459D
:1081200002B0BDE8F041FFF797BF02B0BDE8F081B3
:108130002DE9F04F00231688138090F82D3085B07C
:1081400007460D46144653B3082E01D80C2026E1ED
:1081500002A8FFF779FF002840F021811388082248
:10816000CA54238801339BB21B222380CA5420881F
:10817000013080B2208006220DF10901284416F05A
:108180000AFB23889DF8082006339BB212F0FE02FA
:1081900018BF01222380EA54238801332380BB784F
:1081A000FBB123880433B342D0D802A8FFF74EFFB7
:1081B000002840F0F48023880322EA542388013306
:1081C0009BB219222380EA542388BDF8082001338A
:1081D0009BB2E9182380EA54120A4A7023880233BA
:1081E0002380FA789AB12388D91CB142AED80221F3
:1081F000E954238801339BB201212380E954238869
:108200000B449BB22380EA5423880B4423807A6872
:10821000AAB12388D91CB14298D8022192F9002032
:10822000E954238801339BB20A212380E95423882F
:1082300001339BB22380EA542388013323803B8996
:10824000002B40F0A0803B8A5BB1CDE900462B4675
:108250000722032107F11000FFF750FF002840F02C
:108260009E803B8B5BB1CDE900462B461522142145
:1082700007F11800FFF742FF002840F090803A6AAB
:10828000002A40F08F80D7F82480B8F1000F30D05A
:10829000B8F804302188981C8A1C0244B2423FF688
:1082A00055AFFE283FF652AF03336B54238801339A
:1082B0009BB2FF222380EA54238801339BB22380A0
:1082C000B8F80020EA54E918120A4A7020880230EF
:1082D00080B22080B8F804205AB1D8F808100029DC
:1082E0006AD0284416F057FA2388B8F804201344BB
:1082F000238097F82C30002B40F0998038780028A4
:108300004DD03B88012B57D021888A1CB2423FF6C2
:108310001DAF012805D17B7802330B449E42FFF448
:1083200015AF023E761A04A9B6B221F8086DA81856
:10833000FFF78EFE98BB3978BDF80820022900F0BF
:10834000BB807B78934202D3B24240F2B3800129D2
:1083500040F0B4809BB29E42C0F0B080ADF80830CF
:108360000821BDF80830FE2B3FF6F0AE228801331D
:10837000AB542288013292B22280A954228813443D
:10838000238000200BE0CDE900462B460622022187
:1083900007F10800FFF7B2FE00283FF454AF05B024
:1083A000BDE8F08FB4F800C00CF10603B3423FF60D
:1083B000CDAE1188052901D80720F0E76FF4486E8B
:1083C00001EB0E039BB24FF27D3E7345F4D9538807
:1083D000052BF1D96FF44860181880B27045EBD9BD
:1083E0004FF6FF70814203D0834201D09942E3D817
:1083F000052305F80C30238801339BB2122123801A
:10840000E954238801339BB223801188E954E8188A
:10841000090A4170238802339BB223805288EA54B0
:10842000E918120A4A702388023323802BE7BB6ABB
:10843000002BC1D04FF000094FF00C0A4FF0160B83
:1084400097F82C305FFA89F293427FF657AFB96AFA
:108450000AFB02F201EB0208B8F80430981CFE286F
:108460003FF674AE208803332B54238801339BB22C
:10847000238005F803B0238801339BB223808A5AF6
:10848000EA54E918120A4A702088023080B220802B
:10849000B8F804205AB1D8F8081000298CD0284424
:1084A00016F079F92388B8F804201344238009F1E1
:1084B0000109C5E7092154E7B242FBD9ADF80860CC
:1084C0004EE701600B6843604A68934204BF002393
:1084D00043607047436843B1026891680B4443604E
:1084E0005268934204BF0023436070474BDF7047DC
:1084F0001FB50D4C01A8FFF7F9FF70B9214602A87E
:10850000FFF7DFFF039B002BF4D00198D3E9002194
:10851000904702A8FFF7DEFFF4E7052801D014F02A
:108520005FFD04B010BD00BFF4EF030060DF7047D3
:1085300069DF704761DF704730B5114B1B78A9B018
:10854000E3B1104D94240DF1020103A8ADF80240EF
:10855000FFF7F0FF70B9294601A8FFF7B2FF029BB1
:10856000002BF0D003A8D3E90021904701A8FFF722
:10857000B1FFF4E7052801D014F032FD29B030BD79
:108580007E35002000F00300F0B5074685B00D46AB
:1085900000295ED0304B0B600C22002101A816F0A0
:1085A00005F9012606232A68ADF8083001A9202024
:1085B0008DF804708DF80660FFF7BAFF0C220021D9
:1085C00001A816F0F3F800242A688DF8056001A9C7
:1085D00040208DF806408DF80740FFF7A9FF0C22D8
:1085E000214601A816F0E2F845232A68ADF80630C6
:1085F00001A923208DF80470FFF79AFF0C22214671
:1086000001A816F0D3F82A688DF8044001A9304675
:10861000FFF78EFF0C22214601A816F0C7F84FF491
:10862000B0632A68019301A9A120FFF781FF0C2202
:10863000214601A816F0BAF89DF804302A683343A1
:1086400001A9A0208DF80430FFF772FF204605B085
:10865000F0BD0E20FBE700BFA02D002008B5FFF7FE
:1086600065FF10B9014B01221A7008BD7E3500204C
:1086700010DF704711DF704713B50446094968469B
:10868000FFF71FFF019808B902B010BDD0E9003113
:108690002046984718B16846FFF71CFFF2E7112003
:1086A000F2E700BF10F0030013B50446074968461F
:1086B000FFF707FF019B0BB902B010BD2046D3E9BD
:1086C000002190476846FFF705FFF3E728F0030015
:1086D000064B9A6822B11A6822F480021A60704729
:1086E000034B4FF48002C3F880207047A05900204C
:1086F00000E100E00B4991F816335A09EC231341CD
:10870000DB0706D5084B9A683AB94FF480030B6033
:10871000704742F2020014F063BC1A6842F480020F
:108720001A60704700E100E0A0590020F7B5184F2B
:108730003C785CBB174E012520463570FFF79CFF47
:10874000112820D02046FFF7AFFF134B1868019087
:1087500002A800F8054DFFF73DFC104901A8FFF7FE
:1087600087FF0446B0FA80F0400938709DF8030096
:10877000FFF754FC3CB90A4B34701C70FFF7BAFF8A
:108780002846FFF791FF204603B0F0BD0824FAE722
:10879000803500207F3500200CF00300B58A0200F0
:1087A00081350020F7B5154F3B7813B3144E0120E7
:1087B0003070FFF761FF11284FF000051BD0022039
:1087C000FFF772FF02A800F8015DFFF703FCFFF757
:1087D00051FF04469DF807003D70FFF71FFC2CB9C0
:1087E0003470FFF775FF0320FFF75EFF204603B0EC
:1087F000F0BD0824FAE72C46F8E700BF80350020DA
:108800007F35002007B508496846FFF75AFE019BEF
:1088100013B903B05DF804FBD3E900209047684624
:10882000FFF758FEF3E700BF1CF00300FFF7EABFB5
:1088300075DF704776DF70477ADF70477BDF704700
:10884000034B1A8882420CBF18460020704700BFB5
:10885000A0350020024B9B6903B11847704700BF49
:108860008435002037B585B22846FFF7E9FF034677
:1088700070B1164C017A227B91420BD200F10A01B1
:108880002846FFF7D5FFE8B1112801D0FFF7E2FF36
:1088900003B030BD237C0022027243B13B21284645
:1088A000FFF7C8FF30F0080301D0FFF7D3FF63697B
:1088B000002BEDD000228DF80420ADF8065001A861
:1088C0009847E5E71A7A01321A72E1E78435002009
:1088D00013B50B46497A0F4C024669B9D4E9011029
:1088E0001C7A002C18BF0146586812F0B9F808B17C
:1088F000FFF7B0FF02B010BD002119726369002BB1
:10890000F8D00121ADF806008DF8041001A89847B1
:10891000F0E700BF8435002030B583880588B3F5C3
:10892000FA7F24BF6FF4F9729C184A8838BF00247C
:1089300095420CD84088904209D38A88A24206D337
:1089400003F2F310904234BF0020012030BD00201C
:10895000FCE7000070B50388112B014648D002D80F
:10896000102B1ED070BD122B52D0502BFAD12F4B92
:10897000C288DB899A42F5D1038A022BF2D186881C
:108980003046FFF75DFF05460028EBD001F11200ED
:1089900000F08AF830BB686812F0A6F80028E1D031
:1089A00009E0C37B012BDDD14FF6FF70FFF748FFD5
:1089B000054620B90420BDE87040FFF74BBF8E8804
:1089C0001B4A0680002303721368C5F80A300A3078
:1089D000536843601031FFF79FFF144B6872DB89C7
:1089E000002BBFD129463046BDE87040FFF770BF6D
:1089F0008088FFF725FF04460028B3D0406812F0B6
:108A000073F808B1FFF726FF4FF6FF732380A9E73D
:108A100086883046FFF714FF05460028A2D00831AB
:108A20000A30FFF779FF6872DCE700BF8435002069
:108A3000B4350020F8B5064650B305460FCD154FA6
:108A40003C460FC495E8070084E807003068124BE5
:108A50003B60B8B1FFF7F0FEC8B931680A681A6028
:108A60004A685A600D480E4A4FF6FF7303800D4B5B
:108A700040F8043F002111F0E1FF002814BF03205B
:108A8000002004E01846FFF7D9FE0028EAD0F8BD20
:108A90000E20FCE784350020B4350020A0350020EE
:108AA00065880200BC350020007800F001007047A6
:108AB0000620704730B5754B14461B6841F2010221
:108AC000904287B00D4603F480437ED01ED8012823
:108AD00045D0002B5DD06E4B1B68002B59DD2F213C
:108AE0006C4815F033FF002800F0C4802F2169483E
:108AF00015F02CFF411C684B684AD3F804350092EE
:108B000001957B22012005F09DF842E044F201022C
:108B1000904200F0858044F202029042D9D1002BAD
:108B200037D05B4B1B68002B33DD2F21594815F0E4
:108B30000DFF00286BD02F21564815F007FF411C70
:108B4000554B2288D3F8043503926268CDE901526F
:108B5000534A009201206C2205F074F819E0C3B169
:108B60004B4B1B68002B14DD2F214A4815F0EEFEFD
:108B700010B32F21474815F0E9FE411C464B494AE6
:108B8000D3F804350092CDE901546022012005F0AC
:108B900059F84FF0A0434FF4F032C3F81825C3F84A
:108BA0000C25EFF3108372B64DF6AD6C3E4A137888
:108BB000002B68D107B030BD5C21364815F0C6FEE9
:108BC00008B15C21D6E73349D8E7002BE1D0304B20
:108BD0001B68002BDDDD2F212E4815F0B7FE68B194
:108BE0002F212C4815F0B2FE411C2B4B2F4AD3F8F5
:108BF00004350092CDE901546322C7E75C21254882
:108C000015F0A4FE08B15C21EBE72249EDE75C21F9
:108C1000204815F09BFE08B15C218DE71D498FE7C8
:108C2000002BB6D01A4B1B68002BB2DD2F21194840
:108C300015F08CFEA8B12F21164815F087FE411CB7
:108C4000154B2268D3F8043504926268CDE90252CC
:108C5000A2680192164A00920120772204F0F2FFE6
:108C600097E75C210B4815F071FE08B15C21E3E742
:108C70000849E5E75C21074815F068FE08B15C216A
:108C800035E7044937E730BF91E700BF542E002095
:108C9000502E002034F0030000100140D8F00300F3
:108CA00098F003005CF00300002E002076F0030033
:108CB000B7F0030007B50023ADF800300146054BBF
:108CC00001936A4644F20200FFF7F4FE03B05DF838
:108CD00004FB00BF6EEA030001461022014815F0B4
:108CE0005ABD00BFDC35002010B50B4C0B490822E3
:108CF000204615F050FD0822A018094915F04BFD3B
:108D0000E379042262F30713E371237A022262F308
:108D10008713237210BD00BFDC35002060000010F7
:108D2000A400001000487047DC350020064B0022EC
:108D300003F580715A805A6003F8082B8B42F9D1F1
:108D4000024B1A60704700BFEC350020EC36002063
:108D5000F0B50C4B0C4C1B68064620227BB1013B46
:108D600014F8330050B104EBC3056F88B74202D149
:108D70006D688D4202D0013AF0D11046F0BD1F233C
:108D8000EEE700BFEC360020EC35002030B5084A95
:108D9000084C136804EBC3056960012104F8331023
:108DA0000B44202B08BF00236880136030BD00BF38
:108DB000EC360020EC350020C0F30C038B42084455
:108DC00038BFA0F50050C01A70470000F0B50D4B39
:108DD0000D4A1E6800218E4212D0156800230AE059
:108DE00052F8044C04EBC30714F83340844201D119
:108DF0007868F0BD01339D42F2D101310832EAE7D3
:108E00000020F6E7F0360020F836002000B58DB0DF
:108E100040B99A1C06D0012201A88DF804200293C3
:108E200001F022FA034B186803F040FE0DB05DF824
:108E300004FB00BFFC36002010B50378044613B9CC
:108E40007846FFF737FFE188A069FFF7B5FFE169D2
:108E50000A060B0A101843F1000110BD10B5037883
:108E6000044613B97846FFF725FF607A431C0120BA
:108E70009840013810BD0000F8B5037805460E464D
:108E800013B97846FFF716FF104AA88A0023144644
:108E900019018F5A874214D1002353520C4A136888
:108EA000591C03F007031B011160AA8AE25206B1A4
:108EB0006E781C442846A670FFF7BEFFC4E9020185
:108EC000F8BD0133082BE3D1E8E700BF00370020ED
:108ED000803700202DE9F0410E468EB015461C4625
:108EE000074610B97846FFF7E5FE16B97846FFF752
:108EF000E1FE636AA27802330593E378A2F10800E9
:108F0000002B14BF012102210DF10408424242410D
:108F1000434604F10C0003F0FCFEA3788DF83430D6
:108F2000237BADF82050022B16FA85F5CDE9068794
:108F30000B960C950FD1236913B97846FFF7BAFE4B
:108F400023690993102305A8ADF8283003F0DDFE4E
:108F50000EB0BDE8F0810023F5E70000B2F5C07F58
:108F60002DE9F04781468846174602D97846FFF733
:108F7000A1FE244B002570229A4602FB053494F88A
:108F8000486046B9384607F0E0FCE06638B900248E
:108F90002046BDE8F0870135042DEED1F7E73022F9
:108FA0004946204615F0F7FBB8F1010FE664A4F836
:108FB0004A701DD1144B84F852601B7D84F85130E7
:108FC00084F8536084F85060D9F8283063656FF0F6
:108FD0000103A3620D4BA4F85860A363246401202D
:108FE00002F034F9702303FB05A585F84880CFE72C
:108FF0006FF00103A362064BA36584F868602466E2
:10900000044BEAE79C370020843700205D9502007E
:10901000699C02005595020010B50446C06E07F029
:1090200096FC04F1300002F0BBFF94F84830022BAC
:1090300003D104F1500002F0B3FF2046702200215A
:1090400015F0B4FB002084F84800BDE8104002F0A1
:10905000FDB810B590F84830012B8CB0044602D012
:109060007846FFF727FE01238DF8043001A8636DD1
:10907000029301F0F9F82046FFF7CEFF0CB010BDC7
:1090800010B50446808A02F083FB01281CD1237BA3
:10909000D3B194F91620002A18DBE27D5AB1022BD5
:1090A00012D094F90330002B10DBA378002B0CBFF7
:1090B0000020072010BDE2780AB9012B06D12378E1
:1090C00033B9A378042BF2E71020F3E70720F1E788
:1090D0000020EFE71FB500220B468DF80F2028B3C4
:1090E0000230086018460DF10F0103F010FE9DF8E4
:1090F0000F30DBB1144B1B685B0717D5134B1B6894
:10910000032B13DD2F21124815F020FC98B12F21DD
:109110000F4815F01BFC411C0E4B0F4AD3F80435C9
:109120000092042040F2374204F08CFD9DF80F00BD
:1091300005B05DF804FB5C21054815F007FC08B19B
:109140005C21E5E70249E7E7542E0020502E00207D
:1091500035F103000010014052F1030070B50446E0
:10916000D0E906128CB0808A05F0B0FC0546A0B1AB
:109170002C22002101A8A68AE46915F017FB0F2311
:109180008DF804304FF0000364F3000301A8ADF83C
:1091900008608DF80A3001F067F828460CB070BD01
:1091A0002DE9F04F99461378D2F81880F3B00746AE
:1091B0008A46144623B1D1884046FFF7FDFD9061F1
:1091C000E378A278002BA2F1080003AD14BF0121BF
:1091D000022104F10C0642422B464241304603F084
:1091E00098FDA278C4F81880CDE908571FFA8AF5CF
:1091F000AB1A9BB21F44ADF82830E3780E974FF0BE
:10920000000812AF0D978DF83C20ADF83080002B90
:1092100065D04FF0100B04F1240A237BC4F824809E
:10922000022B02BF2369ADF830B00B93206A21797D
:10923000524611F00DF8606A30BB237B022B05D13A
:109240003146E08911F0C6F80028E6D1374B1B689B
:109250005B0741D5364B1B68052B3DDD2F2135487B
:1092600015F074FB002858D02F21324815F06EFB02
:10927000411C314B314AD3F804350092062040F2AC
:109280000E7204F0DFFC27E007A9FFF723FF002898
:10929000CCD02046FFF762FFF0B9A2780B908DF892
:1092A0001C0096E80300A38AADF82A30AD1A0CAB77
:1092B00001228DF8282083E80300A37D8DF840303B
:1092C000236A0E9307A8636A0897ADF824500F939A
:1092D000CDF8449000F0C8FF73B0BDE8F08F227B5A
:1092E000012AB3D1A046E089B4F814A048F8243F7D
:1092F000414610F0F3FF07A9606AFFF7EBFE002874
:10930000C7D160624146504610F0E8FF07A9606A85
:10931000FFF7E0FE002899D0BBE75C21054815F077
:1093200015FB08B15C21A0E70249A2E7542E0020FA
:10933000502E002035F1030000100140F8F1030029
:10934000C37D0A7830B5002B3DD0C37822F07F0270
:1093500003F07F031A430A700B78027803F07F034F
:1093600043EAC2130B70037863B38378083B5A4215
:109370005A414B7803F07F0343EAC2134B708A785B
:10938000C58802F00302C5F3861442EA850223F081
:109390007F032343D2B28A704B70CB78057A03F0F7
:1093A0001F03C5F3C10422F0030243EA451322431D
:1093B000DBB2CB708A70427A23F01F0302F01F02E7
:1093C0001343CB7030BDC47822F0400343EA8413CA
:1093D000DBB20B70027923F03F0302F03F0213432C
:1093E0000B70B9E72DE9F041837890461344C27DB4
:1093F000002A14BF0B220F22934286B004460F4668
:109400002FD8024612F80C1B0092002914BF042525
:1094100001252B440293836A0193C36A0393684630
:1094200000238DF8103003F010FE064670B9059940
:1094300020460D44FFF784FFE37D5BB14246394689
:10944000284615F0A8F9684603F020FE304606B01D
:10945000BDE8F0812346424629463846FFF73AFDEB
:10946000F1E70926F2E7000038B590F84830012B03
:10947000044602D07846FFF71DFC02F0D1FD237BA5
:10948000074A012B05BFD2E90315A37DD16805FB6F
:109490000311014404F13000BDE8384002F097BDEB
:1094A0008437002070B50D4690B0044610B9784658
:1094B000FFF700FC94F84830022B03D1002120462E
:1094C000FFF7DAFC2C22002105A8666D15F06EF975
:1094D000102305A88DF8143006968DF81C5000F066
:1094E000C3FE2046FFF798FD154B1B685B071BD595
:1094F000144B1B68032B17DD2F21134815F026FA98
:10950000A0B12F21104815F021FA411C0F4BD3F8C0
:109510000435029594F8482001920D4A00920420E7
:1095200040F22E2204F08EFB10B070BD5C21064884
:1095300015F00CFA08B15C21E4E70349E6E700BF47
:10954000542E0020502E002035F103000010014061
:1095500004F1030008460021FFF7A4BF10B591F8FD
:109560004830012B0C4602D07846FFF7A3FB94F855
:1095700051305BB1013B84F85130002384F8503006
:10958000084BBDE81040186803F090BA217B012910
:10959000204603D1BDE81040FFF784BFBDE810406E
:1095A000FFF757BDFC3600202DE9F04F044689B087
:1095B0000F4609B100230B6004F10C0394F85050DE
:1095C00001934FF001084FF0000B627AAA4203D2D8
:1095D000002009B0BDE8F08FE16C08FA05F30B42FA
:1095E00059D1E37D2572002B0CBF0C26082695422D
:1095F00006FB05FA237808BFB4F84A608DF818B066
:1096000008BFA6EB0A06002B14BF4FF004094FF069
:10961000010906EB09030493019B0293A36A0393D8
:1096200002A8E36A059303F010FD0028D1D1079B3F
:10963000994445B994F853302BB9A36984F8538001
:10964000C3F30C03E380E37D8BB994F8523073B914
:1096500015B17846FFF72EFBB4F84A10A2788A1AA3
:10966000E16E23460846FFF735FC84F852800799DF
:109670002046FFF765FEE16E32465144484615F03C
:109680008AF802A803F002FD17B13B6801333B6082
:109690006B1C84F850300135EDB296E72DE9F043AC
:1096A00007468FB01046884615469946FFF756FD87
:1096B0000446002860D1EE78002E40F0AE80B8F16C
:1096C000060F59D138787A78DFF8A8C1830103F4FE
:1096D000FE5343EA9203D7F802204FF0700812BA03
:1096E000674608FB04C696F84810012925D1B6F84C
:1096F00014E0E9898E4520D1F18899421DD1B6F850
:1097000058E0A98ABEF1000F01D08E4515D110F0A6
:10971000800F4FF070033BD003FB0473A3F8581085
:10972000702303FB0474E56C1543E564002A61D1E2
:1097300003213046FFF7B6FE1EE00134042CD0D1E1
:10974000464B1B685B0717D5454B1B68012B13DD88
:109750002F21444815F0FAF888B12F21414815F01F
:10976000F5F8411C404B414AD3F8043500920220E1
:1097700040F2846204F066FA0FB0BDE8F0835C2129
:10978000384815F0E3F808B15C21E7E73549E9E727
:1097900003FB0473DB898B42C2D0304B1B685A0732
:1097A000EAD52F4B1B68012BE6DD2F212D4815F044
:1097B000CDF8B0B12F212B4815F0C8F8411C2A4B29
:1097C000AA8AD3F804350292702202FB04740220A4
:1097D000E2890192264A009240F28C6204F032FA49
:1097E000CAE75C211F4815F0B1F808B15C21E2E737
:1097F0001C49E4E73046FFF731FB854203D1304690
:10980000FFF727FCB8E7002184F850103046FFF737
:10981000CBFE3046FFF728FEAEE73046FFF7D6FA1C
:1098200003460028A8D005F10C012A6A0B9203C94F
:10983000AA8AADF8222009AA82E80300AA7D8DF841
:1098400030202A788DF82020EA6A8DF81460CDE95E
:1098500006780D92494605A898478DE7542E0020BA
:10986000502E002035F103000010014065F1030087
:1098700093F103009C370020F0B5C37D1546827834
:10988000002B2A4414BF4FF480734FF4C0739342EB
:10989000C7B00E4679D3404C0023E11891F84870C8
:1098A000012F08D1B1F814C0878ABC4503D1CF89F4
:1098B000C1898F426BD07033B3F5E07FEDD10121C8
:1098C000FFF74CFB0446002863D02A463146C06EA1
:1098D00014F061FF002304A920460493FFF764FEFF
:1098E00030F0040506464BD1049B13B12046FFF728
:1098F000BBFD2A4B1B685B0728D5294B1B68032B34
:1099000024DDB4F84A10274B8029186828BF80212D
:10991000002305AE8B421CD100222F21224806F8DD
:10992000132015F013F810B32F211F4815F00EF86F
:10993000411C1E4B1E4AD3F8043501921D4A009269
:10994000029640F27152042004F07CF9284647B098
:10995000F0BDE26ED25C170902F00F02C75D06F897
:109960001370875C06EB430201335770D2E75C212A
:109970000D4814F0EBFF08B15C21D6E70A49D8E79F
:109980002046FFF749FB3546E0E70925DEE70825D5
:10999000DCE70425DAE700BF9C370020542E0020C6
:1099A000502E0020582E002035F1030000100140F9
:1099B00027F1030032EF030010B54FF4E0720021ED
:1099C000134814F0F3FE002405F0F0F8114B124890
:1099D0001C602146802214F0E9FE104B1049114A08
:1099E00011489C75C3E9001210494CF25032C3E98A
:1099F00002211A6140F604029A8203F039F80C4BF6
:109A000018600C4B0C481C60BDE8104005F0D0B944
:109A10009C3700208037002000370020843700204A
:109A200080969800F04902009DA1020020A1070045
:109A3000FC360020F03600200D8E020005F03EB806
:109A400030B504468DB000286CD00369002B69D076
:109A5000C369002B66D08569002D63D05A788DF8D4
:109A600004201A780993838A82F001020B2B8DF867
:109A70000320027B43D90121022A8DF8001001D175
:109A8000294A927D002A44D1042213448DF80220F1
:109A90000B330C2293FBF2F3013B8DF809300023CA
:109AA0008DF8083094E8030000238DF8173003ABDD
:109AB00083E803002389ADF81430A37A8DF81630BB
:109AC000236A0A932046DF2308950B9310F040FD8C
:109AD00028B12378012B0CBF2023FF230B9368466A
:109AE0002569A48AFFF7CCFA38B99DF800302246E0
:109AF000294668469BB1FFF7BFFE0DB030BDC17A65
:109B00000029B8D1012A0CBF012200228DF80020C3
:109B100001D10822B9E704238DF80230C2E7FFF72C
:109B200061FCEAE70E20E8E784370020F0B5034641
:109B30008DB00F46002843D04568002D40D086697F
:109B4000002E3DD0846802788DF803200B2C4FF056
:109B50000002099294BF027B012202F00101002061
:109B60008DF800108DF8020032B1E11DC9080139ED
:109B70008DF809108DF8080003F1100103C90122C6
:109B80008DF8172003AA82E80300DA89ADF81420C3
:109B90001A7F1B6A089668468DF81620CDE90A736D
:109BA000FFF76EFA38B99DF800302246294668461C
:109BB0001BB1FFF761FE0DB0F0BDFFF713FCFAE734
:109BC0000E20F8E770B5067B012E8CB004460D46DA
:109BD00046D10B220021684614F0E8FD9DF80120D3
:109BE000E3888DF8055002F0030242EA83028DF803
:109BF00001202A0E8DF802202A0C8DF803202A0A53
:109C00008DF8042062788DF81C60911E4A424A410A
:109C1000C3F3861343EAC2138DF80030062305937D
:109C2000A38AADF81E30002308938DF80C308DF810
:109C30001830E389ADF81A30E36A0B93A37D226AEA
:109C4000CDF810D0099243B96FF0010103A88DF847
:109C50002830FFF76BFF0CB070BD024B5B7DF3E764
:109C60000020F8E78437002010B591F84830022B27
:109C70000C4602D07846FFF71DF8022384F86830BE
:109C800094F84830022B06D1E16C2046FFF79AFF8A
:109C900008B984F8680010BD2DE9F04F0C469FB05C
:109CA00090461F460546002800F0A781002A00F0D4
:109CB000A48121B9092630461FB0BDE8F08F1822D3
:109CC000414609A814F067FD2B78002059B2CA0F4D
:109CD00081428DF81820ACBF0122042294428DF8F5
:109CE0001900E7D39DF82F60EEB103F07F038142A6
:109CF0008DF81B308DF81A002EDA6A78AB78920155
:109D000002F4FE5242EA9302ADF81E20DB00EA782C
:109D100003F0180343EA521302F01F028DF82030BB
:109D20008DF8212018E0C3F38010002903F03F03D1
:109D30008DF81B008DF81C3008DA95F90130002BE6
:109D4000ACBF042308238DF81A30D6E704231A4445
:109D500094428DF81A30ADD300230F933B78032B38
:109D600002D97846FEF7A6FF3A78A54B06A853F825
:109D700022301193FFF784F9064600289BD1D8E9D9
:109D80000312B8F8080004F0DDFE002893D1314634
:109D9000082204A814F00AFD04A9B8F8020010F083
:109DA00019FB38B19DF8193043F001038DF81930D3
:109DB000059B0A939DF81930002B3FF47CAF9DF86A
:109DC0001820002A00F007818E4A4FF0000A9346BF
:109DD00002EB0A0393F84810022940D00AF1700AF6
:109DE000BAF5E07FF4D19DF8183013B97846FEF744
:109DF00061FF06A8FFF720F8BDF82CE0824A4FF07B
:109E0000000C4FEA0C1838F8023073453DD19044ED
:109E1000D8E9029A514508BF484536D106AD0FCD65
:109E200012AC0FC40FCD0FC495E80F0084E80F00EB
:109E300098F802308DF84930002B3FF43CAF12A85F
:109E4000FFF70CF8014612A8FFF7BCFE98F80230A5
:109E5000DC077FF530AF06A8FFF780F92BE7988A7B
:109E6000BDF82C108842B9D106A8CDE90232FEF720
:109E7000E3FF029B804618468946FEF7DDFF8945D1
:109E800008BF8045039AA9D215E70CF1010CBCF17B
:109E9000080FB6D10023702202FB03BA9AF84810CB
:109EA000022915D1BAF81410714511D106A8FEF790
:109EB000C3FF804650468946FEF7BEFF494508BFAE
:109EC000404580F0AD8005215046FFF7EBFA02E0F7
:109ED0000133042BE0D19DF82F209DF82130002A7A
:109EE0000CBF4FF00C084FF0080803FB08880CBFAC
:109EF0004FF4C0734FF48073984529D9434B1B68C6
:109F000058077FF5D8AE424B1B68002B7FF7D3AEC6
:109F10002F21404814F01AFD88B12F213D4814F03C
:109F200015FD411C3C4B3D4AD3F804350092CDF859
:109F3000048040F29232012003F084FEBBE65C21F3
:109F4000344814F003FD08B15C21E7E73149E9E743
:109F5000BDF81E100C98FEF72FFF0D9A0146BDF8B4
:109F60002C0004F0EFFD00287FF4A5AE424602214C
:109F700006A8FEF7F3FF8246002851D1014606A845
:109F8000FFF720FE2C22514612A814F00FFC1023DC
:109F90008DF8483012A802238DF8503000F064F993
:109FA00089E65C211B4814F0D1FC08B15C2146E035
:109FB000184948E0002B0CBF0C2308239C4200F0FA
:109FC000A28004215046FFF76DFA74E63B465246E4
:109FD000FFF7E6F8CDE0DA077FF56DAE9DF82F309C
:109FE000681C611E23B13B4606AAFFF757FB62E6D9
:109FF0003B4606AAFFF7D4F85DE60E265BE600BFF7
:10A00000F4F003009C37002000370020542E00207D
:10A01000502E002035F1030000100140D4F1030060
:10A02000584B1B685B071BD5574B1B68032B17DD71
:10A030002F21564814F08AFC0028B2D02F21534813
:10A0400014F084FC411C524B9DF82020D3F80435B9
:10A050000192504A009204204FF4717203F0F2FD15
:10A060009AF84830022B02D07846FEF723FEDFF83C
:10A070002881D8F8009001F0D3FF09EB00010AF124
:10A08000300001F0A4FF9AF80C30012B1AD19AF895
:10A090006830BBB99AF84830022B02D07846FEF7F8
:10A0A00009FED8E9013298F8151002FB013801F0D9
:10A0B000B7FF00EB08010AF1500001F088FF01230F
:10A0C0008AF868309DF82010DAF84C3001228A4076
:10A0D00013427FF4F0AD1343CAF84C309DF82F3093
:10A0E0009AF80920002B0CBF4FF00C084FF008081D
:10A0F0008A42A4F1040408FB01F87FF45BAF08EB8B
:10A100000403AAF84A30DAF818200C9B9A420BD2C2
:10A110000DF1240EBEE80F000AF10C0CACE80F00A4
:10A120009EE803008CE80300DAF86C002246291D43
:10A13000404414F030FB5046DAF84C40FEF78EFEF7
:10A1400084427FF4B8ADDAF84C105046FFF73AFD80
:10A150009AF80130D9070CD59AF81730DAF86C0064
:10A16000BAF84A10002B3FF431AF3B465246FFF796
:10A1700095FA50460121FEF77FFE5046FEF74CFF50
:10A1800099E500BF542E0020502E002035F1030029
:10A1900000100140E8F10300843700202DE9F3416D
:10A1A000194E00243746A046351995F84830012B42
:10A1B0000CD102A9284641F8048DFFF7F5F90428CF
:10A1C00001D0019B13B12846FFF74EF97034B4F566
:10A1D000E07FE9D100257C1994F84830022B0AD1A0
:10A1E00094F86830022B06D1E16C2046FFF7EAFCB8
:10A1F00008B984F868007035B5F5E07FEBD101202F
:10A2000002B0BDE8F08100BF9C3700202DE9F0418D
:10A2100088460746E8B1124E3468C4B9254645451C
:10A2200007D1104BC3E90075012333602046BDE818
:10A23000F08107EBC5035B685BB117F835000306D7
:10A2400009D450B1FEF7C2FD38B90135E7E704245F
:10A25000ECE70E24EAE70B24E8E70F24E6E700BF6B
:10A26000F0360020F4360020F8B5074610B97846DD
:10A27000FEF720FD0F4E346894B10F4D01232B7073
:10A2800023791BB954F8043C384698472468002CBD
:10A29000F6D12B78022B03D13168064C09B929700D
:10A2A000F8BD0B790E6813B1204603F051FC31461E
:10A2B000F4E700BF603900205C39002010B5044687
:10A2C00010B97846FEF7F6FC00232372211D0248E0
:10A2D000BDE8104003F01BBC6039002010B50446F7
:10A2E00010B97846FEF7E6FC074A1378013B012BCC
:10A2F00004D8022313700123237210BD211D0348CB
:10A30000BDE8104003F024BC5C3900206039002017
:10A310000B888268D25A073222F003021344028863
:10A320009BB2043A934288BF00230B80704713B559
:10A330008368CB1A02A921F8023DFFF7E9FFBDF8B7
:10A3400006308068184402B010BD70B50646154648
:10A350000C4611BB7846FEF7ADFCFEB17846FEF721
:10A36000A9FC6B1E2344B3F1005F34D94FF0805237
:10A37000D2F80C2102F50022B3EB822F2ED2042D4D
:10A3800002D87846FEF796FC35800023043D7380A2
:10A39000B380B4602580A37070BD10B97846FEF715
:10A3A00089FCB4F1005F12D94FF08053D3F80C311F
:10A3B00003F50023B4EB832FD3D34FF08053D3F8AE
:10A3C0000C3103F50053B4EB832FC7D2C9E7B4F5C2
:10A3D000000FF2D8C2E7B3F5000F08D94FF0805252
:10A3E000D2F80C2102F50052B3EB822FC7D3784686
:10A3F000FEF760FCC3E738B5044610B97846FEF7AF
:10A4000059FC6288A36813449B78012B02D17846DB
:10A41000FEF750FCEFF3108572B6A268A1881144D4
:10A420008B78032B0AD12046FFF781FFA368C31A5C
:10A4300063800023837005B962B638BD0023937032
:10A440006380A380F7E7F8B50E461546044610B9B9
:10A450007846FEF72FFC16B97846FEF72BFC62888B
:10A46000A36813449B78012B02D17846FEF722FCA7
:10A47000002D37D02388043B9BB29D4232D8EFF3A6
:10A48000108772B66188A388EA1D22F00302994200
:10A4900092B204D25B1A9A4210DD042016E018D959
:10A4A0002088401A904209D29A42F6D8032881BFE8
:10A4B000A3685B1804229A70002363806288A168F5
:10A4C0008B188D5201229A700020336007B962B652
:10A4D000F8BDA26813449B78002BDED19370638093
:10A4E000A380EBE70920F3E7F8B50D4616460446CE
:10A4F00010B97846FEF7DEFB15B97846FEF7DAFBB1
:10A50000AB78012B02D07846FEF7D4FB2B88B34200
:10A5100002D27846FEF7CEFB16B97846FEF7CAFBA4
:10A52000EFF3108772B60223AB70E1182E8020463D
:10A53000FFF7EEFE6288A38893421FBFA3689B18B3
:10A5400000229A7007B962B6F8BD70B50D46044690
:10A5500010B97846FEF7AEFB15B97846FEF7AAFBB0
:10A56000EFF3108672B6A288A36813449A78042A7F
:10A5700006D1211D2046FFF7CBFEA288A368134415
:10A580009A78022A03D0032A08D0052003E0032288
:10A590009A702B60002006B962B670BD7846FEF74F
:10A5A00089FBF7E738B5044610B97846FEF782FB19
:10A5B000EFF3108572B6A088A16801448B78042B54
:10A5C00003D12046FFF7B3FE01468878831E584228
:10A5D000584105B962B638BD38B5044610B9784659
:10A5E000FEF768FBEFF3108572B6A088A1680144FE
:10A5F0008878C31E012B05D9831E5842584105B9DE
:10A6000062B638BD2046FFF792FE0146F0E7F8B586
:10A610000D46044610B97846FEF74CFB15B978464E
:10A62000FEF748FBEFF3108672B6AB78012B19D01A
:10A63000032B22D1A288A36813449D4202D07846FE
:10A64000FEF738FB0027AF70211D2046FFF760FEA4
:10A65000A288A36813449B78042B00D1A78006B975
:10A6600062B6F8BD6288A36813449D4202D0784662
:10A67000FEF720FB0023AB70F1E77846FEF71AFBEC
:10A68000EDE710B5EFF3108472B68288816811444B
:10A690008B78042B02D1FFF74AFE01468878B0FA86
:10A6A00080F0400904B962B610BD037942799B1A63
:10A6B00003F57F2303F6FF7300EB033070470000C0
:10A6C00010B5054884681C22002114F06FF820465C
:10A6D000BDE8104004F048B86439002070B5194C4A
:10A6E000E36813B97846FEF7E5FA237E13B178469E
:10A6F000FEF7E0FA6368092B02D97846FEF7DAFA2A
:10A70000114D0026636855F823309847022811D070
:10A7100003280DD0012810D163680133092B636031
:10A7200002D97846FEF7C6FA237E002BEAD004E071
:10A730006660F9E7237E0BB1207070BDBDE8704004
:10A74000FFF7BEBF6439002024F2030010B5038870
:10A75000044613B97846FEF7ADFA2088074B04EBA0
:10A76000800030EA030203D06288B2F5FE4F04D1C4
:10A770001C4004F580542078204410BD00F0FFFFF9
:10A7800070B504460E4647F6FE65FFF7DFFFB042A0
:10A7900007D2844205D24388013B9BB2AB42F4D836
:10A7A00070BD0020FCE700000B78032B094B04BFB1
:10A7B00000221A761A78012A03D11B7E43B9FFF7CB
:10A7C0008DBF022A04D10B78032B01D1FFF778BF8C
:10A7D000704700BF6439002010B50C4CE36818784E
:10A7E000002203F58051184404F0A6FA50B9E1683C
:10A7F0000846FFF75AFF814206D001F58051E1601B
:10A80000032010BD0120FCE70220FAE76439002094
:10A810001FB50A4B02221B688DF800200193084ADD
:10A820004FF4805369460120029300F0F3FEB0FA22
:10A8300080F0400905B05DF804FB00BF84390020BA
:10A84000803900201FB50123CDE902210190054A7E
:10A850008DF800306946184600F0DCFE05B05DF862
:10A8600004FB00BF803900202DE9F047254BD86854
:10A8700002794179013A91421E4603D1012058766E
:10A88000BDE8F08700F580531F491C781C440B6815
:10A8900013F8045F1D44FFF708FF6388013B9BB278
:10A8A00047F6FE62934200F58057884604D9204659
:10A8B0003946FFF765FF0446DFF850A04FF0010965
:10A8C0002CB9B4FA84F4640974760120D8E7D8F876
:10A8D00000106288284601F5805104F02DFA0546E3
:10A8E0000028EED004225146204686F81890FFF743
:10A8F000A9FF28B920463946FFF742FF0446DFE7A3
:10A900000020BDE76439002084390020E8F303000B
:10A9100038B5104CE36818784FF6FF7203F5805194
:10A92000184404F009FA88B1E36819780B44984296
:10A930000CD0657E0849094B0422002D08BF19463A
:10A94000FFF780FF20B90120207638BD0120FCE709
:10A950000020FAE764390020F0F30300ECF3030071
:10A9600070B50C4D0C4EE96830680C780430224606
:10A97000FFF768FF58B9336804F0FC0404341C4442
:10A98000EB686C611A7813442B61012070BD0020C4
:10A99000FCE700BF643900208439002008B5054B6E
:10A9A000054918680422FFF74DFFB0FA80F040090E
:10A9B00008BD00BF843900207039002010B5074B56
:10A9C000074C1968E06840F6FC720431FFF73AFF63
:10A9D00010B90120207610BD0020FCE7843900204A
:10A9E0006439002010B50C4CE1680846FFF75DFEA5
:10A9F00081420AD1094B0A4918680422FFF722FF55
:10AA000040B901232376022010BD01F58051E16099
:10AA10000320F9E70020F7E764390020843900209B
:10AA2000883900202DE9F74F324C236913B9784655
:10AA3000FEF740F9636913B97846FEF73BF9DFF892
:10AA4000B89047F6FE6A6369D4E9030603EA090889
:10AA5000A8EB0308FFF729FE7388013B9BB253451F
:10AA600008F5805800F5805B06D930465946FFF757
:10AA700087FE0646002835D0354600275D4519D2A9
:10AA80002A8807EB8202904509D986EA050313EA72
:10AA9000090F04D16B88013B9BB2534502D957B9CA
:10AAA000012318E028460192FFF750FE019A05465F
:10AAB0001746E3E7E7B13A4631466069FFF7C2FE61
:10AAC00090B963691F44676115B97846FEF7F2F8DB
:10AAD0002561002335B1698847F6FF72914201D0A4
:10AAE000002BB0D0012000E0002003B0BDE8F08FC3
:10AAF0000123EFE76439002000F0FFFF1FB50A4B88
:10AB00000222DB688DF800200193084A4FF480533D
:10AB100069460120029300F07DFDB0FA80F0400903
:10AB200005B05DF804FB00BF6439002080390020C7
:10AB300010B54FF010235A69013225D05A691AB363
:10AB40005B69A3F58053A3F58053174A1968136016
:10AB50004B1E033325D8C1F30B0313BB134A144810
:10AB6000D16001211170134913765376936051F827
:10AB7000234084420ED1536001200F4900F03AFD7A
:10AB8000FFF7ACFD012010BD4FF0805251691369F1
:10AB90004B43D8E701330A2BE9D17846FEF78AF810
:10ABA000EAE70020EFE700BF843900206439002085
:10ABB000FDAA020024F20300A9A7020010B5044672
:10ABC00010B97846FEF776F8094B187860B1E0685E
:10ABD000D9684379A0EB0333994206D3FFF765FDAB
:10ABE00081428CBF0020012010BD0020FCE700BF87
:10ABF00064390020024B1878003018BF01207047DC
:10AC00006439002038B50E4C2378054613B17846D8
:10AC1000FEF750F82B78032B02D07846FEF74AF85F
:10AC2000EB68E360012000230649A560636023769A
:10AC30002070637600F0DEFCBDE83840FFF74EBDC3
:10AC400064390020A9A70200014B1868704700BFB3
:10AC50008439002010B5044610B97846FEF72AF86A
:10AC600063681BB123680BB1A36813B97846FEF77C
:10AC700021F8A3685A1E1A4202D07846FEF71AF845
:10AC80000023C4E9033310BD70B50E460446F0B18D
:10AC90008368F3B1EFF3108572B6D0E903319942BE
:10ACA00003D105B962B605250FE04EB18368013BBB
:10ACB0000B40D0E90012304602FB031113F06BFD8C
:10ACC00023690133236135B962B6284670BD0E256C
:10ACD000FBE70925F9E70025F7E70000024AD2F86B
:10ACE0000034002BFBD0704700E00140C0F30B03A1
:10ACF00010B5E3B9E9B1104C0223C4F80435FFF7ED
:10AD0000EDFF01F6FF7121F47F6121F00F01014495
:10AD1000884205D10020C4F80405FFF7DFFF10BD0D
:10AD2000C4F80805FFF7DAFF00F58050F0E71020BF
:10AD3000F5E70920F3E700BF00E0014070B540EA05
:10AD4000010414F003041BD1E2B195071AD10E4E91
:10AD50000123C6F804359508FFF7C0FFAC4205D1C2
:10AD60000020C6F80405FFF7B9FF70BD51F8243084
:10AD70005A1C03D040F82430FFF7B0FF0134EDE750
:10AD80001020F2E70920F0E700E001404388012BA2
:10AD900005D0022B01D10430086001207047043037
:10ADA0004860FAE708B508220221094803F037FB9A
:10ADB00020B90848BDE8084003F0AEBC064A9168D7
:10ADC0004160127B0272BDE8084003F057BB00BF30
:10ADD00094390020142E0020E039002010B50446DC
:10ADE00010B97846FDF766FF2346BDE810401847C6
:10ADF00000B50A4B1A7B9B688DB0012A08BF03F18E
:10AE0000FF3303900CA80493022300F82C3D8DF827
:10AE10000820FFF729FA0DB05DF804FBE0390020A7
:10AE200038B50E4D2B78C3B90D4B5C6804F5005452
:10AE3000B4F1807F11D8042201210A4803F0EFFA0F
:10AE400020B90948BDE8384003F066BC01234460DE
:10AE50002B70BDE8384003F011BB38BDF439002039
:10AE6000E039002094390020042E002010B5012183
:10AE70000C4803F019FB80B902210A4803F014FBC7
:10AE8000044650B901461422074813F08FFC074BC3
:10AE90001C70BDE81040FFF7C3BF054803F03CFC41
:10AEA000F7E700BF94390020E0390020B8390020CE
:10AEB000342E002030B50D468DB07AB94B88012B69
:10AEC0000AD1124C227812B97846FDF7F3FE104BE6
:10AED0006A685A60002323700DB030BD032A02D087
:10AEE0007846FDF7E7FE2C22002101A813F05EFC56
:10AEF00011238DF80430074B0395DA681B6905921E
:10AF000001A80693FFF7B0F9E6E700BFF439002087
:10AF1000E03900209439002013B501F039FD0021FB
:10AF20006B46124A1248134CCDE9001103F0CAF9DE
:10AF3000009B0BB1019A6AB900232360A3602373BD
:10AF4000FFF730FF23686360FFF76AFF01F060FDE1
:10AF500002B010BD1968A16019792173934203D919
:10AF60001B790BB92360EDE71368FBE78DAD020099
:10AF700094390020E039002008B503F01BFCA0F54F
:10AF8000805008BD7FB500211822684613F00EFCE2
:10AF900000230293FFF7F0FF01230090019369461D
:10AFA000054B0648039303F0A7FA10B1044803F0D9
:10AFB000B3FB07B05DF804FBB5AE02009439002086
:10AFC000242E002008B5142200210A4813F0EEFBBD
:10AFD00001F026F8084B094A09499A600022586096
:10AFE000C3E903125A61074B1A70BDE80840FFF726
:10AFF000C9BF00BFE0390020BC390020F5B0020015
:10B0000000879303F539002010B5074C23784BB91E
:10B010000648074B036000F0A1FD064800F09EFFC4
:10B020000123237010BD00BF90390020D4390020C7
:10B0300059B10200BC39002010B501F0A9FC104A3A
:10B04000117B1346C9B9917BB9B9118A41F2826269
:10B05000914202D80B4A12787AB101221A739A6887
:10B06000002401321C829A60FFF79CFE2046FFF705
:10B07000BFFE01F0CDFC204610BD0824F9E700BF5B
:10B08000E0390020F539002010B501F081FC174AA5
:10B09000547B1346BCB1917B21BB118A41F2826281
:10B0A000914202D8124A1278F2B11A7B00205873EA
:10B0B0002AB1012A0BD07846FDF7FCFD03E0FFF72B
:10B0C000BBFF0028F7D101F0A3FC204610BDC3E967
:10B0D000000018731882FFF78BFEFFF763FEFFF77F
:10B0E0009FFEF0E70024EEE71446ECE7E03900208D
:10B0F000F539002010B5164C237B2BB1012B12D053
:10B100007846FDF7D7FD18E0228A41F282639A4221
:10B1100002D8104B1B7883B1FFF7B6FF638A0BB1DF
:10B12000013B638210BD228A41F282618A4208D8C3
:10B13000084B1B780BB1FFF7A7FF238A013323824B
:10B14000ECE742F2B0118A42F5D96373E4E700BF3D
:10B15000E0390020F539002010B50378042B0ED11A
:10B1600043681B785BB11D4B4269197B047E71BB40
:10B17000598A01BB012C996802D08A4203D810BDBC
:10B180004C1CA24219D92A318A42F8D8997B00294D
:10B19000F5D184689A60124A1A61C3E900115973A3
:10B1A0001973FFF7FFFDFFF73BFE04F11000BDE848
:10B1B0001040FFF71DBE012CE1D1996801318A4290
:10B1C000DDD101225A73BDE81040FFF75DBF0129B0
:10B1D000D5D1012CD3D09968F1E700BFE039002028
:10B1E0000000062D38B5164CD4E900239A420546D6
:10B1F0001FD2207B134B1449012808BF0B469A42EB
:10B2000007D263682268403B9A4208D3FFF708FEE2
:10B2100005E001236373FFF737FF0028F1D0EFF358
:10B22000108072B623685A1C22602B6028B962B65F
:10B2300038BDFFF7F5FD0F20FAE70020F8E700BF63
:10B24000E0390020FFFF7F0000E0FF0010B50C4A4E
:10B250001368144628B101200A4903448873136017
:10B2600010BD13B97846FDF725FD2368013B236027
:10B27000002BF5D1034A9373BDE81040FFF704BFDC
:10B280008C390020E039002000B58DB00323ADF8E3
:10B2900008000CA88DF8102000F82C3D0391FEF753
:10B2A000E3FF0DB05DF804FB014B9868704700BFE9
:10B2B000E0390020034B98681B7B012B08BF00F18D
:10B2C000FF307047E0390020044B9B685840C207AC
:10B2D00048BF03F1FF331846704700BFE039002034
:10B2E000014B187B704700BFE039002038B50A4B8E
:10B2F0001C787CB9094D01221A702973A860FFF7E8
:10B3000051FD2046FFF774FDC5E90044FFF788FDB5
:10B31000204638BD0820FCE7B8390020E03900207D
:10B320002DE9F8431D4CDFF87890002602212046D5
:10B3300002F084FA5FFA86F805460027ADB967B1D6
:10B340002946204602F0E1FA082806D154F8043CC8
:10B350001BB12A464946404698470136032E04F160
:10B36000BC04E3D10120BDE8F88354F8043C34F870
:10B370000C2C13B129464046984734F80C3C022166
:10B380000133204624F80C3C02F074FA02212046D6
:10B3900002F054FA01370546D0E700BF0C3A00200E
:10B3A0004CF2030038B5012104460C3002F046FA95
:10B3B000054620B3164BC4F89C300023C4F8A030D7
:10B3C00003786268012B07D0022B1AD07846FDF76C
:10B3D00071FC4FF4FA7306E081688B1A99082923EF
:10B3E0004B4303F5FA730B4A934294BFC4F8A83059
:10B3F000C4F8A8200123C4F8AC4084F8B83028462B
:10B4000038BD83689B1A1A0B034B5343E9E700BF0F
:10B410003DB4020060850100084C010010B50446EF
:10B42000FFF7C0FF48B104F19C0005F02BFF20B1ED
:10B430007846BDE81040FDF73DBC10BD2DE9F74F43
:10B440004A4B1B7880460D463BB105F051FF002367
:10B4500085F8B83003B0BDE8F08F01F10C09D1F8E0
:10B46000A8704846012102F0E9F9064610B978466D
:10B47000FDF720FCDFF8FCA0A7F5FA7700244FF0D9
:10B48000290B3378012BA7EB040406D0022B3BD009
:10B490007846FDF70FFC00231FE06B68B268B4FB31
:10B4A000FBF4D21AA400944228BF144624B9019395
:10B4B0007846FDF7FFFB019BF168706823F00303FA
:10B4C000224619441844FFF739FC10B17846FDF7BD
:10B4D000F1FB6B681C446C60B3686A689A422AD1BD
:10B4E00005F006FF4846012102F0C4F900236B6015
:10B4F00085F8B8301E4B186801F0D8FA284603B01A
:10B50000BDE8F04FFFF78ABF6B68B268B4FBFAF48E
:10B51000D21A2403944228BF144624B901937846D2
:10B52000FDF7C8FB019B706823F003032146184414
:10B53000FFF7DCFBC9E701F01FF93378B0EB080433
:10B5400048BFA8EB0004012B0DD0022B06D15346B7
:10B550002344BB4295D905F0CBFECFE77846FDF7F3
:10B56000A9FB0023F4E72923F2E700BFFC39002000
:10B57000F8390020084C010070B51B481B4C01F045
:10B5800077FA1B4B186004F11C0341F203060825EF
:10B59000636104F10C0004F118032361A681A57313
:10B5A00002F08FF904F1D803C4F8D03004F1C800D8
:10B5B00004F1D403C4F8CC30A4F8C86084F8CA50AD
:10B5C00002F07FF904F5CA73C4F88C3104F5C8732E
:10B5D000A4F8846184F88651C4F8883104F5C270F7
:10B5E000BDE8704002F06DB921B30200003A0020BE
:10B5F000F8390020022838B504460D4602D97846AD
:10B60000FDF758FB024BBC2202FB0434A56038BD99
:10B61000003A002002282DE9F84F07460C469246D2
:10B6200002D97846FDF746FB14B97846FDF742FB90
:10B630002378012B12D16368990702D07846FDF771
:10B6400039FBE3689A0702D07846FDF733FBA3681D
:10B650009B0711D07846FDF72DFB0DE0022B0DD195
:10B660006368C3F30B0313B17846FDF723FBA368AC
:10B67000C3F30B03002BEDD1A36813B97846FDF794
:10B6800019FBEFF3108872B6BC257D43224E05F1FD
:10B690000C09B1440021484602F0D0F8834690B32B
:10B6A0000021484602F0E6F810222146584613F0E1
:10B6B00072F8BAF1000F03D073195B88AAF8003052
:10B6C000BC2303FB07677B8897F8B84001337B8076
:10B6D00004BB124B1F78BFB97019FFF763FEB8F1B6
:10B6E000000F0ED162B6444640B105F19C003044D3
:10B6F00005F0C8FD10B17846FDF7DCFA2046BDE83C
:10B70000F88F3C46F0E70424B8F1000FF6D1A046CC
:10B710000020E7E70024F7E7003A0020FC3900208A
:10B7200070B5EFF3108672B6144C236818BB13B9CA
:10B730007846FDF7BFFA2368013B236093B9104DAB
:10B7400095F8B83013B92846FFF768FE95F87431BC
:10B7500013B90C48FFF762FE95F8303213B90A4866
:10B76000FFF75CFE2368094A003318BF01231370FA
:10B7700006B962B670BD01332360F3E7343C0020A4
:10B78000003A0020BC3A0020783B0020FC39002021
:10B7900010B1800B014B185C704700BF5CF20300D6
:10B7A00012DF704713B5137863B1022B0CBF072368
:10B7B000002310F8011C292962D005D8162973D05E
:10B7C00002B010BD537DF4E72A2927D02B29F7D1E9
:10B7D000022BF5D110F8021C0139C9B203F014FA9A
:10B7E00004460028ECD0374B1B685B06E8D5364B87
:10B7F0001B68012BE4DD2F21344813F0A7F8002843
:10B8000049D02F21314813F0A1F8411C304B314A67
:10B81000D3F8043500920194A62224E0022B01D033
:10B82000072BCDD110F8021C013901F09FFC044612
:10B830000028C5D0234B1B685A06C1D5224B1B6874
:10B84000012BBDDD2F21214813F080F878B12F2185
:10B850001E4813F07BF8411C1D4B1F4AD3F80435DA
:10B86000009201949322022002F0ECF9A8E75C21F7
:10B87000164813F06BF808B15C21E9E71349EBE7D0
:10B88000022B9DD110F8021C0139C9B202B0BDE8EB
:10B89000104010F0F9BC5C210C4813F057F808B1C7
:10B8A0005C21AFE70949B1E701884FF6E4639942AB
:10B8B00086D110F8021C0230033902B0BDE81040F6
:10B8C000FDF7F6B8542E0020502E002085F203001C
:10B8D00000100140CAF20300A1F2030070B58AB063
:10B8E00006F0C0F90446002834D000238DF810304B
:10B8F00006460FCE05AD0FC533682B60627D052A65
:10B900000CD9207D00F00F03072B07D004AB063ABB
:10B9100004F11D0100F00F0005F04AF8114B1A6800
:10B92000AAB104AB0393237DC3F303038DF8043062
:10B93000637D062B89BF063B00238DF8053004F19B
:10B940001D0398BF8DF80530029301A8904720464B
:10B9500006F072F906F0A0F980F00100C0B20AB05A
:10B9600070BD00BF3C3C002000B50A4B1A78032A8A
:10B970008DB00CD104221A7000212C2201A812F0E3
:10B9800015FF1C2301A88DF80430FEF76DFC0DB0E7
:10B990005DF804FB383C0020F7B5354F3A78054692
:10B9A000002A5BD100285BD0067A0F2E01D0062E2C
:10B9B00058D104F0C9FFE86800284CD0FDF78CF995
:10B9C0000DF10700FFF7ECFE0446002840D19DF87A
:10B9D0000730012B48D1FDF7A9F900F0A9FA30464C
:10B9E00000F088FFE87800F02FF900F0BBFD05F0CB
:10B9F000DFFB204806F0E8F905F052F9FFF7BCFD3F
:10BA000004F0CCF800F056FC04F05EFF04F07EFD7C
:10BA1000284601F001FBFDF7CFFF03F077FCFDF7AF
:10BA200047F808B1062821D1134804F093FF2A20D3
:10BA300005F034F82B2005F031F8292005F02EF818
:10BA4000162005F02BF80D4B00221A6001233B70E5
:10BA5000204603B0F0BDFDF747F9B1E70824F7E74A
:10BA60000E24F5E70724F3E70224F1E70446EFE7A5
:10BA7000383C0020DDB80200442E00203C3C002071
:10BA800037B5244D2A78012A05D002D3033A012A7A
:10BA900038D9082428E006F0B1F801F0CFFAFDF714
:10BAA000CDFFFDF705F8044650B3062828D01A4B01
:10BAB0001B685B0418D5194B1B68012B14DD2F2163
:10BAC000174812F043FF90B12F21154812F03EFFA6
:10BAD000411C144B144AD3F804350092019440F2EF
:10BAE000A712022002F0AEF8204603B030BD5C2160
:10BAF0000B4812F02BFF08B15C21E6E70849E8E7A4
:10BB000000F024FF05F0B0FB04460028ECD102232E
:10BB10002B70E9E7383C0020542E0020502E0020E6
:10BB200085F203000010014060F2030008B5084BE5
:10BB30001A78022A0AD1032206481A7005F05AFB25
:10BB400018B17846FDF7B6F8002008BD0820FCE7DC
:10BB5000383C002069B90200FDF772BFFEF7AEBBAA
:10BB6000FEF7BCBB08B500F0CDFC002008BD00000E
:10BB7000014B1860704700BF3C3C002007F088B8BC
:10BB8000044B1A680132B2F1704F08BF01221A60EB
:10BB900018687047403C002010B5044610B978463C
:10BBA000FDF788F80023C4E9003310BD38B50D4611
:10BBB000044610B97846FDF77DF815B97846FDF7CB
:10BBC00079F800236B60EFF3108372B6226822B914
:10BBD0002560656003B962B638BD62685560F8E7F4
:10BBE00010B5044610B97846FDF764F8EFF31082FB
:10BBF00072B6206808B143682360236803B96360A4
:10BC000002B962B610BD10B5044610B97846FDF70A
:10BC100051F8206810BD35DF7047000008B54FF0BF
:10BC2000FF30FFF7F8FFBFF34F8F0549054BCA6898
:10BC300002F4E0621343CB60BFF34F8F00BFFDE718
:10BC400000ED00E00400FA0507289ABF024B33F824
:10BC50001000FA20704700BFF6F20300024B58684C
:10BC6000103840B2704700BF00ED00E0084A2023C2
:10BC700090FBF3F352F82330424202F01F0200F02F
:10BC80001F0058BF504223FA00F000F00100704737
:10BC900000E100E046DF704730B501F110031032DB
:10BCA000103013F8014D12F8015D8B4284EA05044F
:10BCB00000F8014DF5D130BD2DE9F047144690B0A4
:10BCC00002F10F05102288462D1101460DEB0200EE
:10BCD000994604F00F0412F05EFD002D51D0002CA7
:10BCE0004FD10126B2461022002108A812F05EFDB5
:10BCF00004A8FFF7CFFF01220DF13F0110AB13F9AC
:10BD0000100D1F4693F800C04FEA4C0C5FFA8CFCF4
:10BD100083F800C013F801EF4CEADE1C994203F8E7
:10BD200001CCEFD19DF83F305B00DBB20028B8BFFB
:10BD300083F087038DF83F30531C9A454FF0020281
:10BD4000DCD2013D08EB0511FEB10CAA6846FFF7F5
:10BD5000A3FF102200210CA812F028FD0024AC4201
:10BD600025DB3A46694608A8FFF796FF04A8FFF7C7
:10BD700091FF10223946484612F00DFD10B0BDE883
:10BD8000F08700264FF0020AADE72246684612F01F
:10BD900002FD10AB2344802203F8402C0134102C08
:10BDA00002D10CAA6946D1E70DF80460F6E708EB6A
:10BDB0000412394608A8FFF76FFF04A8FFF76AFFCF
:10BDC0000134CCE738B5124B1A6804462AB11A6818
:10BDD00045685268AA1A002A0DDA1A6862611C6066
:10BDE0009A88013292B29A8012B97846FCF762FFC3
:10BDF0000123237038BD19684A691AB15068401B85
:10BE0000002802DB62614C61EAE71146F4E700BFFB
:10BE1000483C002010B5124B1A68824204461A466C
:10BE20000BD142691A609A8892B2511E89B29980E8
:10BE30008AB97846FCF73EFF0DE01B685BB1596993
:10BE4000A1420BD16169596193889BB2591E89B295
:10BE50009180002BEDD00023237010BD0B46EDE741
:10BE6000483C0020014B186800F020BE443C0020F4
:10BE7000044B1A6822B11B680349586800F05AB98C
:10BE800000F0AEB9483C002065BE02002DE9F0414B
:10BE900000F0C6F8254E054637464FF000083368D7
:10BEA00023B133685B685B1B642B06D400F0B8F8E1
:10BEB000FFF7DEFF0120BDE8F08134682378012B15
:10BEC00002D07846FCF7F6FE63693B60BB88C4F895
:10BED00014809BB25A1E92B2BA8013B97846FCF70E
:10BEE000E9FEA36813B97846FCF7E4FE022328466E
:10BEF00023702169A368984700F092F82378022BF9
:10BF00000546CCD1E2680AB92270C8E763686FF0D1
:10BF10006301891A1344091AD018C14204D463601A
:10BF20002046FFF74FFFBAE70346F5E7483C0020FD
:10BF300008B508220021064812F038FC054800F038
:10BF400097FD054B1860BDE8084000F05CB800BFE5
:10BF5000483C00208DBE0200443C002010B5044641
:10BF600000F07CFE10B97846FCF7A4FE14B97846C0
:10BF7000FCF7A0FEA36813B97846FCF79BFE237874
:10BF8000012B02D17846FCF795FE00236361204621
:10BF9000FFF718FF00F044F8BDE81040FFF768BF56
:10BFA00010B5044600F05AFE10B97846FCF782FE40
:10BFB00014B97846FCF77EFE2046FFF72BFF0023DE
:10BFC000636100F02DF8BDE81040FFF751BF38B5B0
:10BFD00004460D4600F042FE10B97846FCF76AFEB2
:10BFE00014B97846FCF766FE2046FFF713FF0023DE
:10BFF000636120466560FFF7E5FE00F011F8BDE8DB
:10C000003840FFF735BF08B50EF07EFD38B90EF0A9
:10C01000BBFC20B17846BDE80840FCF74BBE08BD2C
:10C0200010B5EFF3108072B60C4A0D4B1968D2F8B8
:10C030000435D2F80441012C04BFD2F80435013193
:10C0400000B962B6074843EA01614FF48042002319
:10C05000E0FB0123D00B40EA434010BD001001403B
:10C06000503C002040420F0010B50A4B0A4C4FF4E0
:10C070000032C3F84823C3F80823226812B978466F
:10C08000FCF718FE2468FFF7CBFF2346BDE81040FD
:10C09000184700BF001001405C3C002010B5EFF3D2
:10C0A000108072B61E4B1F490022C3F804210A6893
:10C0B00001320A6000B962B61B4A116809B31168FF
:10C0C000013911601268E2B9184AD3F80405116801
:10C0D000884217D2EFF3108072B6D3F804151468B3
:10C0E0000131A1422ABFD3F8042512680232C3F8F5
:10C0F000442500B962B64FF40032C3F84423C3F8B4
:10C10000042310BD0A4C226812B97846FCF7D2FD10
:10C110002468FFF785FF2346BDE81040184700BF9D
:10C1200000100140503C0020543C0020583C0020AE
:10C130005C3C002037B50023044601930D4611B93D
:10C140007846FCF7B7FD204B1D60FFF769FF031B26
:10C15000002BB8BF241A1D481D4AA8BF00244FF465
:10C16000004500210023E5FB040112F03DF9EFF347
:10C170001083019372B6174A174CD2F8043502287F
:10C18000C3F1FF1101F57F4138BF022081421349FD
:10C1900010D30344C2F844354FF40033C2F844339B
:10C1A000C2F80433002323600B60019B03B962B61D
:10C1B00003B030BD03F17F43013303441A0E013253
:10C1C000226023F07F43EFE75C3C002020A10700C2
:10C1D00040420F0000100140543C0020583C002019
:10C1E000074B4FF40032C3F84823C3F80823054A2D
:10C1F00000231360044A1360044A1360704700BFB1
:10C2000000100140543C0020583C00205C3C0020C1
:10C2100030DF704731DF704710B5D0E90023846804
:10C22000C168A2EB731283EAF43303600C44134435
:10C23000114444608160C360184610BD37B50C4698
:10C24000054610B97846FCF735FD00239C4201D81D
:10C2500003B030BD0DF10700FFF7DAFF9DF80710BE
:10C260000029F7D0E21A914288BF8DF80720E8181C
:10C270009DF80710FFF7CEFF9DF807201344E5E770
:10C2800037B5044602A8002340F8043D0421FFF717
:10C29000D5FF074B2360019BE360C4E901331425FC
:10C2A0002046FFF7B9FF013DFAD103B030BD00BF12
:10C2B000ED5EEAF1704748DF704749DF70474ADFBB
:10C2C00070470000064A032313741168054B53613D
:10C2D00040F6D862914288BF43F2B0629A607047DC
:10C2E0008C3C0020AC3C0020054B1B68A0F1780280
:10C2F00028335843034BB0FBF3F0101A704700BFCC
:10C30000A83C002040420F0038B50E4A0E4C0123D5
:10C3100063711368002501331360257400F086FAF9
:10C3200005F05CF82068FFF7DFFF084A0146284661
:10C3300000F0F0F920B17846BDE83840FCF7BABC0F
:10C3400038BD00BFC03C00208C3C0020C5C20200AC
:10C3500010B41F4B5A6928B11968DC6811440134C4
:10C36000DC601960996801240131E24001291C74E4
:10C3700099605A611C680ED002291AD05B69154A6F
:10C380001C44944203D840F6D76293421CD85DF80F
:10C39000044BFFF7B9BFB2F5FA7F03D130B90022E1
:10C3A0005A61EBE740F6D8618A42E7D840F6D86296
:10C3B000F6E7DA68022A02D1064A121BF0E7012AE0
:10C3C000DCD10028EBD0D9E75DF8044B704700BF03
:10C3D0008C3C00208096980070B5424C424D012361
:10C3E00023712B781BB1414B1E78002E5BD00023AC
:10C3F0002374042853D8DFE800F0034D4A48440072
:10C400003B4DA179AA68C4E9023323682260002960
:10C4100034D0012121743749002B08BF0B46991AEB
:10C42000B1F57A7F26D39A4224D8616143F2B06095
:10C4300043F69822C5E9020201236B71A371237CA4
:10C44000023B012B0DD8637943B104F0E3FF206870
:10C45000FFF74AFF00F01CFA00236371234B002210
:10C460001A70237C2448022B04BF01232376002367
:10C47000237170BD4FF47A736361D7E7FFF744FF10
:10C48000D4E70120FFF764FFD9E70020FAE704F0C2
:10C4900053FFD4E700F090F904F086FFCFE7784629
:10C4A000FCF708FCCBE700F067F92B782060022B43
:10C4B0000FD0032B06D0012B10D1022323740023AD
:10C4C0002B70BCE70A4B0D490D4A5E71C3E902129D
:10C4D000A67103232374064B6361F0E77846FCF7EB
:10C4E000E9FBECE78C3C0020BD3C0020BC3C00207C
:10C4F000AC3C0020809698009C3C0020A086010067
:10C50000FF1FA107043808B5042825D8DFE800F08C
:10C5100016220A030F00114B1B7E012B1CD1FFF7C3
:10C52000CCFEC8B17846BDE80840FCF7C3BB0B4B56
:10C5300000221A76BDE8084004F0A4BF0848012391
:10C54000437143F6982240F6D863C0E90232FFF700
:10C55000B6FEE6E70248FAE708BD00BF8C3C0020C3
:10C56000AC3C00200D4A4FF480710023918043F2CF
:10C57000B06C43F698211370C2E902C1084A1060FA
:10C58000084A1370084A1370084A1360084A137166
:10C59000537113601376012393717047AC3C0020F4
:10C5A000A83C0020BC3C0020BD3C0020C03C00203A
:10C5B0008C3C002010B50E4C227E012A0CD004D3F6
:10C5C000022A0CBF1120002010BD0A48FFF773FE9D
:10C5D00010B17846FCF76EFB0748FFF770FE10B10C
:10C5E0007846FCF767FB022323760020ECE700BFC8
:10C5F0008C3C0020D9C30200AC3C0020074B1B7CC4
:10C60000023B012B07D9064B1878013802288CBF52
:10C610000020012070470120704700BF8C3C0020A3
:10C62000BD3C0020014B1868704700BF8C3C0020C7
:10C6300010B5074B587948B11868FFF755FE044606
:10C6400000F09AF80346201A48BF181B10BD00BF1F
:10C650008C3C0020014B5879704700BF8C3C002077
:10C66000014B1879704700BF8C3C0020024B187EAC
:10C67000003018BF012070478C3C0020EFF310837E
:10C6800072B6054A527922B1044A4FF48071C2F859
:10C69000001103B962B670478C3C002000E100E055
:10C6A000044B1B7E022B04D1034B01221A70FFF7AF
:10C6B000E5BF70478C3C0020BD3C0020064B1B7E34
:10C6C000022B07D10128054B0CBF032202221A704E
:10C6D000FFF7D4BF704700BF8C3C0020BD3C00205A
:10C6E000064B19781A4631B128B90549097811B1B4
:10C6F0001870FFF7C3BF1070704700BFBC3C00202C
:10C70000BD3C0020024B1B6803B962B6704700BFF6
:10C71000D43C0020022810B522D8EFF31084114B2E
:10C720001C6072B6104B43F82020104B002243F8D7
:10C7300020200F4B1B787BB1830003F1804303F56E
:10C7400000431030C3F84021012202FA00F0094AE8
:10C75000C2F80403C3F84015FFF7D4FF002010BD52
:10C760000720FCE7D43C0020C43C0020E03C002033
:10C77000D03C00200080004008B5EFF310820A4B47
:10C780001A6072B6094B1B7853B1094B0022C3F8EB
:10C790004C210122DA64D3F84C05FFF7B3FF08BD42
:10C7A000044B1868F9E700BFD43C0020D03C0020BF
:10C7B00000800040D83C00202DE9F84FDFF8588079
:10C7C000DFF858900024A70007F1804505F50045E3
:10C7D000D5F84031D3B1D8F8043304F11002012662
:10C7E0009640334212D057F809B0BBF1000F02D186
:10C7F0007846FCF75FFA4FF0000A49F807A0C8F83E
:10C800000863FFF7B9FFD847C5F840A10134032CEE
:10C81000D9D1BDE8F88F00BF00800040C43C0020A3
:10C82000014B1B6818447047DC3C002008B5134BD3
:10C830000022C3F84025C3F84021D3F84011C3F8C3
:10C840004425C3F84421D3F84411C3F84825C3F85C
:10C850004821D3F848310A4B1B681BB9094B4FF4E8
:10C8600080721A60084B01221A70FFF7D9FB01464B
:10C87000FFF782FF054B081A186008BD00800040D2
:10C88000D43C002000E100E0D03C0020DC3C002053
:10C890000B4A0C4900231360536093600A4A0B60F3
:10C8A00010600A4A4B6013708B60094B4FF0FF32E7
:10C8B000C3F80823074B4FF48072C3F880217047F8
:10C8C000E03C0020C43C0020D83C0020D03C0020AC
:10C8D0000080004000E100E0044B1B780F2B1EBFDE
:10C8E000034B4FF48022C3F800217047343E0020F0
:10C8F00000E100E010B5104C104B207010480360B0
:10C900001023C0E90133FEF7A5F90E48FFF744F9FB
:10C9100023780F2B0AD0072B09D8EC221A41D20713
:10C9200005D55B01084ADBB282F8123310BD7846A8
:10C93000BDE81040FCF7BEB9343E0020003D0020A9
:10C94000EC3C0020383E002000E100E00D4B1B785D
:10C950000F2B0DD00C4991F812335A09EC231341D7
:10C96000DB0706D5094B9A6832B94FF480230B6078
:10C9700070477846FCF79EB91A6842F480221A6024
:10C98000704700BF343E002000E100E0A0590020C5
:10C99000F8B5EFF3108772B617480268511C0160B2
:10C9A00002BB164B1B780F2B21D0EFF3108C72B605
:10C9B000134A144C95680123E5B99360124B134E4A
:10C9C000D3F8801031401160C3F88060D3F8841030
:10C9D00051604FF0FF32C3F884202570BCF1000F86
:10C9E00000D162B6036813B97846FCF763F907B95A
:10C9F00062B6F8BD2370F1E7003E0020343E00200F
:10CA0000A0590020353E002000E100E0FC06FFBDFB
:10CA100038B5EFF3108572B6104C236813B9784619
:10CA2000FCF748F92368013B2360A3B90C4B1B7842
:10CA30000F2B10D00B4B9A686AB10B4A127852B97F
:10CA4000EFF3108072B609491C680C605C684C609A
:10CA50009A6000B962B605B962B638BD003E0020E2
:10CA6000343E0020A0590020353E002000E100E0C7
:10CA700038B5054610B97846FCF71CF9094C23680F
:10CA8000092B02D97846FCF715F9EFF3108372B63B
:10CA90002068421C2260044A42F8205003B962B662
:10CAA00038BD00BF043E0020083E002010B50E4BEC
:10CAB0001B688342044602D87846FCF7FBF8EFF384
:10CAC000108072B6094A6109012304F01F0403FAB9
:10CAD00004F452F82130234342F82130FFF7FCFEE2
:10CAE00000B962B610BD00BF043E0020303E0020F9
:10CAF00070B50D461646044610B97846FCF7DAF8CC
:10CB000015B97846FCF7D6F8EFF3108372B6002219
:10CB1000C4E902562274246003B962B670BD0000F5
:10CB200070B5044610B97846FCF7C4F8A36813B989
:10CB30007846FCF7BFF8EFF3108672B6237C03F05B
:10CB4000FF055BB90123064823742146FFF72EF841
:10CB5000FFF7C2FE284606B962B670BD1120FAE79B
:10CB6000383E002010B5044610B97846FCF7A2F80C
:10CB7000207C10BD2DE9FF47314E337813B1784644
:10CB8000FCF798F80125DFF8C8802E4FDFF8C49035
:10CB900035700024D8F80030A34212D82A48DFF8B4
:10CBA000A880FFF71DF8002750BB284C6946204697
:10CBB000FEF76AF890B300232846337004B0BDE84E
:10CBC000F087610904F01F020123934057F82120E8
:10CBD000134213D0EFF3108072B657F8212022EAE7
:10CBE000030347F8213000B962B659F8243098475A
:10CBF000824618B92046FFF759FF55460134C9E768
:10CC00000468237C13B97846FCF754F8D4E9023061
:10CC1000984727744046FEF7E3FFC5E79DF80030CC
:10CC200043B1012BC2D1019B002BBFD0DDE9020132
:10CC30009847BBE7019B002BB8D002989847B5E70F
:10CC4000403E0020303E0020383E0020EC3C0020DA
:10CC5000043E0020083E0020FFF78CBF07B5FEF71A
:10CC6000FDFF8DF803009DF803301749F02B0DD11F
:10CC70000B780F2B25D01220FEF7F8FF80F0010073
:10CC8000C0B200F0010003B05DF804FB9DF8033072
:10CC90005BB2002BADBF03F1604303F00F030B4AFF
:10CCA00003F56143B4BFD35C93F800335B09019390
:10CCB000019A0B78934204D0019A9342DBD300206F
:10CCC000DFE70120DDE700BF343E002014ED00E087
:10CCD00046DF704730B58DB00D4614460146102230
:10CCE000684611F058FD102229460DEB020011F0A4
:10CCF00052FD6846FFF7ECFF102208A9204611F00C
:10CD00004AFD0DB030BDFEF7D7BF01F015BE01F0F2
:10CD10003DBE30B4032956D8DFE801F00227275082
:10CD200000241C70817A5A7861F306025A70C17A25
:10CD3000D2B261F3C7125A70C1680D04C1F3074241
:10CD400005F47F0501F47F412A430A43C2F307211A
:10CD50009A70120C1A71D9700189DC710A0A42EAC0
:10CD60000122A3F805201C7222E01970597801F005
:10CD7000800162F3C7115970C1680C04C1F3074206
:10CD800004F47F0401F47F4122430A439A70C2F302
:10CD90000721120C1A71D97001890A0A42EA01228C
:10CDA000A3F8052041880A0A42EA0122A3F80720D5
:10CDB000026912BAC3F8092030BC7047032200246C
:10CDC0001A705C70B8E7784630BCFBF773BF7FB56C
:10CDD0000E461546044600B112B97846FBF76AFFC5
:10CDE00010220021684611F0E1FC2B463246214614
:10CDF0006846FEF761FF04B070BD2DE9FF410B9D51
:10CE0000884616461C46074610B10AB103B115B94B
:10CE10007846FBF74FFF6B46424639463046FEF7F1
:10CE20004BFF2B469DF8282021466846FEF744FF1D
:10CE300004B0BDE8F0810000F0B50D468FB0144697
:10CE40001F46064608B101B113B97846FBF732FF19
:10CE50001CB97846FBF72EFF01E0102CF9D8254BC2
:10CE60001868009005AA68460421FFF7B0FF01ABDF
:10CE7000314605A81022FEF71FFF2246294605A8C5
:10CE800011F089FC0EAB2344012203F8242C05ABDE
:10CE9000A218194601A892B2FEF70EFF9DF82330A2
:10CEA0003E4603F07F0306F8013B2246294609A8C7
:10CEB00011F071FC04F110050EAB1D441134A4B245
:10CEC000022305F8243C2246334605A901A8FEF7B3
:10CED000F3FE3146102205A811F05DFC032305F88E
:10CEE000243C224607F1110305A901A8FEF7E4FE40
:10CEF0000FB0F0BD06F3030070B50D4688B00646CE
:10CF000000B111B97846FBF7D5FE114C0421206819
:10CF1000019004AA0DEB0100FFF759FF04AB314665
:10CF200018461022FEF7C8FE234602A953F8040F44
:10CF300002901B798DF80C3004AB18460522FEF7E1
:10CF4000BBFE082206A9284611F025FC08B070BDDA
:10CF50000AF3030070B50D4686B0064600B111B95C
:10CF60007846FBF7A7FE0F4C54F8040B009002AA7A
:10CF700068460421FFF72BFF02AB3146184610220A
:10CF8000FEF79AFE2068019002AB042218460DEBD2
:10CF90000201FEF791FE9DF8173003F03F032B705E
:10CFA00006B070BD13F3030030B50268037CD17A7C
:10CFB00087B000298DF8043083680CBF0421082154
:10CFC00009330B44CDE90232436804930446C36835
:10CFD0000593694601A801F0F1FED0B1237C012B35
:10CFE0000ED02568FEF766F9286120680C30FEF740
:10CFF000F9F8054620B101F05DFF284607B030BDC5
:10D000002168009800F0A5FB009B093363610025AF
:10D01000F3E70425F1E7000008B5074B40B91860B5
:10D02000FDF7D0FFFDF778FFBDE8084002F088BBB0
:10D0300042681A60F4E700BF443E002008B5FDF7DF
:10D04000E3FFBDE8084002F0B9BB10B5044610B9D3
:10D050007846FBF72FFE236813B97846FBF72AFEC4
:10D0600023685B6913B97846FBF724FE237C012B08
:10D0700002D97846FBF71EFEE36813B97846FBF742
:10D0800019FE2046BDE81040FFF78EBF70B504467C
:10D09000C6B010B97846FBF70DFE636913B9784640
:10D0A000FBF708FE236813B97846FBF703FE2368F5
:10D0B0005B6913B97846FBF7FDFD606900F0A6FBDC
:10D0C000234B1B689B0706462FD5224B1B68042B5E
:10D0D0002BDD214B05AD19680023F25C100902F02D
:10D0E0000F02085C05F81300885C05EB430201336E
:10D0F0001D2B5070F1D100232F21184885F83A30AC
:10D1000011F024FCD8B12F21144811F01FFC411C50
:10D11000134B144AD3F804350192134A0092029536
:10D120004FF49472052000F08DFD00233246A16873
:10D13000206800F0CFFA01F097FE46B070BD5C2188
:10D14000064811F003FC08B15C21DDE70349DFE785
:10D15000542E0020502E0020582E002066F303008D
:10D160000010014081F3030032EF03002DE9F04786
:10D170008846D4B017460546002800F04E8100F0DE
:10D1800049FB0DF12C09A64E421B2946484611F0D9
:10D1900002FB336899072AD5A24B1B68042B26DDB6
:10D1A0004046A14B8028196828BF8020002313AC7B
:10D1B000834240F0C98000222F219C4804F81320AC
:10D1C00011F0C4FB002800F0D0802F21974811F007
:10D1D000BDFB411C964B974AD3F804350192964A01
:10D1E0000092029440F24D12052000F02BFD002326
:10D1F00005AC00932A464B464146204600F020FAF3
:10D200008246002840F0DB802378002B00F0D78096
:10D21000E268B2F1807F80F0D280E27A12B1022B14
:10D2200000F0CD8094F90A30002BC0F2C88033683A
:10D2300013F0020F13AD29D07A4B1B68042B25DDA8
:10D240004046794B8028196828BF802000238342FC
:10D2500040F0948000222F21744805F8132011F02B
:10D2600075FB002800F09C802F21704811F06EFBA8
:10D27000411C6F4B714AD3F8043501926E4A0092FB
:10D2800002954FF4AB72052000F0DCFC636913B922
:10D290007846FBF70FFD3946204605F025FD41464F
:10D2A000204600F0ABFA5FFA80F83B462246414642
:10D2B0000DF13500FCF7F0FCE16882462089FBF7B0
:10D2C00065FD294620890DF085F8002877D10120D9
:10D2D00003F02AFB002872D0A37A012B6FD92378A0
:10D2E000012B66D03B78012B03D105F033FD0028DC
:10D2F00065D0534BA27A1B68002B64D1A37A2C60B3
:10D30000013BA3724FF0FF336B60DF23EB6001231F
:10D310002B743B78C5F80880012B06D005F01AFD68
:10D3200018B9EB6883F00203EB602846FFF73CFE78
:10D3300000284ED142460DF13501686911F02BFAF3
:10D340002846FFF7A3FE3AE0EA5C4FEA121C02F01F
:10D350000F0211F80CC004F813C011F802C004EB5E
:10D360004302013382F801C022E75C212F4811F00B
:10D37000EDFA08B15C2129E72C492BE719F80320C5
:10D380004FEA121C02F00F0211F80CC005F813C08E
:10D3900011F802C005EB4302013382F801C056E7E1
:10D3A0005C21224811F0D2FA08B15C215DE71F49E7
:10D3B0005FE7294660880DF00DF8002892D05046AE
:10D3C00054B0BDE8F087618820899847002895D13E
:10D3D000F5E733689B07F2D5124B1B68012BEEDD96
:10D3E0002F21124811F0B2FA70B12F210F4811F01D
:10D3F000ADFA411C0E4B134AD3F8043500920220BB
:10D40000A72200F01FFCDAE75C21084811F09EFA21
:10D4100008B15C21EAE70549ECE74FF00E0ACEE7D8
:10D42000542E0020502E0020582E002066F30300BA
:10D43000001001401BF3030032EF03002AF3030046
:10D44000443E002039F3030008B510B1012801D192
:10D45000032008BD7846FBF72DFC0020F9E770B5E6
:10D46000064688B00D4614460021052204A811F096
:10D470009DF9336907221BBAA9180DF11900CDF8DF
:10D48000153011F088F970696A46113004A9FFF768
:10D4900021FCAB1D0DF10600E21D13F8011910F877
:10D4A000014DAB4281EA040102F8011DF5D108B03B
:10D4B00070BD00002DE9F041D4B01E4600238DF868
:10D4C0001730ADF83C300E93D31D0C93F31D109321
:10D4D0005A9B43610F460DF1180811463246044627
:10D4E000CDF82C80FFF7BBFF7378DB09E37273780C
:10D4F00003F07F03A372F378B2781B0243EA02437E
:10D5000032791343E3607379B07940EA03202081D4
:10D51000FEF73EF9012869D1E27A002AA7F1090352
:10D5200014BF08220422934260D3E1682089FBF7EC
:10D530000FFC0546002859D1E37A9DF86C01002BB9
:10D5400014BF08230423073F8DF84830FF1A0C9BB3
:10D55000BFB2ADF834701F441197FFF775FF434613
:10D5600001462A462046FFF7D4FB63690DF11701F7
:10D5700001330AA80A93FFF7CAFB9DF81730002B66
:10D5800034D0F379307A40EA03206080FEF700F966
:10D59000244B20701B689B0728D5234B1B68032B4B
:10D5A00024DDBDF83420214B109E1968802A28BF45
:10D5B0008022284613AC90421DD1002304F810307D
:10D5C0002F211B4811F0C2F910B32F21184811F078
:10D5D000BDF9411C174B184AD3F804350192174A7C
:10D5E00000920294DF22042000F02CFB9DF817002B
:10D5F00054B0BDE8F081335C1D0903F00F034D5DAD
:10D6000004F81050CD5C04EB400301305D70D2E7AC
:10D610005C21074811F09AF908B15C21D6E704496A
:10D62000D8E700BF542E0020502E0020582E002096
:10D6300088F3030000100140A6F3030032EF03005B
:10D640002DE9FF47894615461F469DF830A006463E
:10D6500018B112B10BB19A4202D17846FBF72AFBFE
:10D66000A9F10903142B31D82878C009FDF72CFE45
:10D6700000233061736195F80080CDE9023308F032
:10D680007F0803AA02A940460CF08EFD029BB3B1AD
:10D69000CDE9003A2A463B4649463046FFF70AFFA5
:10D6A000044608B100200EE0039B43B1CDE9003AE7
:10D6B0002A463B4649463046FFF7FCFE40B9029BEE
:10D6C000002BDED1052004B0BDE8F0870920FAE781
:10D6D0002046F8E7F0B50C468FB016461F460546C3
:10D6E00010B97846FBF7E6FA16B97846FBF7E2FA86
:10D6F000012F02D97846FBF7DDFA3846FFF7A4FE82
:10D7000001AF3B46014600222846FFF702FBEB7AB9
:10D71000002B14BF082304238DF834306B69A11C3F
:10D720000133CDE9053789B2F31D0022ADF8201091
:10D7300005A8194407930B93ADF8282009920C9182
:10D74000FFF7E3FA324631462846FFF788FE0FB06E
:10D75000F0BD38B50D46044610B97846FBF7AAFA75
:10D7600015B97846FBF7A6FA2889FEF711F80128C3
:10D7700002D07846FBF79EFA95F90A30002B02DAC0
:10D780007846FBF797FAEB68B3F1807F02D37846CF
:10D79000FBF790FA6B6913B97846FBF78BFA2B69A4
:10D7A00003F00102237803F07F0343EAC2132370DE
:10D7B0006A69127823F07F0302F07F02134323701B
:10D7C0006378EA7A03F07F0343EAC213DBB2637043
:10D7D000AA7A23F07F0302F07F0213436370EB68A1
:10D7E00023711A0CA2701A0AE2702B89A3711A0A0B
:10D7F00062716B8823721A0AE27138BDC37A002BFA
:10D8000014BF082004200939081A704709387047E6
:10D810000930704701307047436849B90278807811
:10D820001A441B78C31A12F8010C1844C0B270478E
:10D830005A185B5C12F8010CC01AF7E738B50D46B0
:10D84000044610B97846FBF735FA2378AB4202D884
:10D850007846FBF72FFA29462046FFF7DDFF40B157
:10D8600063686278585DA378013B1840A36802FBA7
:10D87000003038BD38B50C46054610B97846FBF780
:10D8800019FA2B78A34202D87846FBF713FA2146FF
:10D890002846FFF7C1FF18B16A68135D01331355BD
:10D8A00038BD10B5044610B97846FBF703FA0023DB
:10D8B000194622789A4200D810BD6268D1540133CB
:10D8C000F7E710B54378044613B97846FBF7F2F949
:10D8D0002378012B02D87846FBF7ECF9A36813B93B
:10D8E0007846FBF7E7F9636813B97846FBF7E2F986
:10D8F000A37813B15A1E1A4202D07846FBF7DAF920
:10D900002046BDE81040FFF7CCBF38B50D460446B1
:10D9100010B97846FBF7CEF92378AB4202D87846A7
:10D92000FBF7C8F929462046BDE83840FFF774BF29
:10D9300008B520B119B1FFF70DFB002008BD0E207E
:10D94000FCE713B50B4650B149B102A9002401F818
:10D95000014D0122FFF770FA204602B010BD0E20E3
:10D96000FBE7000030B50C468BB00546E0B1D9B1FD
:10D970001031FFF7C1FA0D4B03930D4B186804905B
:10D980009B88ADF8143006AA042103A8FFF71FFAFC
:10D99000062300932846019404AB06AA1021FFF742
:10D9A0002CFA00200BB030BD0E20FBE76E6B626BD3
:10D9B000B9F3030030B50D468BB00446C8B1C1B110
:10D9C0000D4B03930D4B186804909B88ADF81430F1
:10D9D00006AA042103A8FFF7FAF9062300932046BC
:10D9E000019504AB06AA1021FFF707FA00200BB03F
:10D9F00030BD0E20FBE700BF6E6B696BB9F303000F
:10DA000030B50C4687B00546F0B1E9B104210F4BA3
:10DA100001930DEB010002AAFFF7D9F902AB1846FA
:10DA200010222946FFF76FF99DF816309DF8172050
:10DA30001B026FEA424203F47C536FEA52421343E3
:10DA40002380002007B030BD0E20FBE776746164B0
:10DA50008369D0E9000201FB020003B118471946AF
:10DA600010F0A4BE38B505460024AB68A34202D826
:10DA7000013BEB6038BD21462846FFF7E9FF013442
:10DA8000F3E7F8B5C56804460F460026A368B3421D
:10DA900001D8002012E0D4E90012636902FB0511ED
:10DAA000384633B1984740B9A36845B1013D0136C6
:10DAB000ECE710F061FE0028F6D10120F8BD5D1EF4
:10DAC000F5E710B4C3688268046901339342C36008
:10DAD00004BF0023C3604268C368006803FB020000
:10DAE0001CB123465DF8044B18475DF8044B10F059
:10DAF00052BE38B50D46044600B111B97846FBF761
:10DB0000D9F8AC421EBF23682B60256038BD38B5FC
:10DB10000C46054600B111B97846FBF7CBF82B68E7
:10DB2000A34202D17846FBF7C5F8286840B92C60BB
:10DB3000206038BDA54202D17846FBF7BBF82846E5
:10DB40000568002DF6D12146BDE83840FFF7D1BF6A
:10DB500038B505460C4601B110B97846FBF7AAF86E
:10DB60002B6883B1A34205D123682B60002020607D
:10DB700038BD13461A6822B1A242FAD122681A604F
:10DB8000F4E7002CFAD00520F2E7F8B50E46174668
:10DB9000044608B101B112B97846FBF78BF8236847
:10DBA000B34202D17846FBF785F825685DB9266057
:10DBB00028463560F8BD2C68A64202D17846FBF7AE
:10DBC00079F83CB1254631462846B8470028F2D0BE
:10DBD0000F20EFE728463146FFF78BFF2046E9E7A5
:10DBE00037B506AC184654F8045B00920B46024663
:10DBF000054900200FF0E2FC2246294600200FF0E4
:10DC0000BFFB03B030BD00BFC0F30300034B18607F
:10DC1000034B1960034B1A60704700BF542E00205D
:10DC2000502E00205C2E002010B4054C24681CB13E
:10DC3000A4465DF8044B60475DF8044B704700BF95
:10DC40005C2E002030B585B008AC54F8045B03941A
:10DC5000CDE90054FFF7E8FF05B030BD0379427904
:10DC60009B1A00EB03307047431E9BB247F6FE62DF
:10DC7000934208D849B14B8858400B8818420CBFD2
:10DC80000120002070470020704701207047830763
:10DC900070B504460E46054602D07846FBF70AF8F2
:10DCA00026F003063444A54201D1012070BD55F889
:10DCB000043B0133F7D00020F8E70000064B984200
:10DCC00010B5044603D303F58273984202D978460F
:10DCD000FAF7F0FF201F10BD543E00201FB50124AD
:10DCE000CDE9022101901A46694620468DF8004090
:10DCF000FDF790FC04B010BDF8B50C4D01460C4882
:10DD0000FCF785FC6E687EB100272846FDF768FFAA
:10DD1000044610B97846FAF7CDFF23682760D3E9A7
:10DD200002209047A642F0D1F8BD00BF5C3F002022
:10DD3000483E002038B503884A6803F18043013B20
:10DD40009C001368033323F00303A3420D4605D060
:10DD500009238B606B681C60002038BD00238B603A
:10DD60001268011D286810F016FDF3E713B502A92B
:10DD7000002482B241F8044D0448FCF764FB18B952
:10DD80000198043002B010BD2046FBE7483E002059
:10DD900008B5FFF793FFBDE8084001460288014837
:10DDA000FCF7A2BB483E0020014B1868FEF77EBE80
:10DDB000643F002010B50388044613B97846FAF78B
:10DDC00079FF2088074B04EB800030EA030203D080
:10DDD0006288B2F5FE4F04D11C4004F580542078CF
:10DDE000204410BD00F0FFFF70B50468237805469D
:10DDF0001C4400214FF6FF762868FFF72FFF84426E
:10DE000002D26388B34201D1084670BD2046FFF7B5
:10DE1000D1FF21460446EFE72DE9F04F934FDFF89D
:10DE2000708287B03E4698F800203B78022A14D1D1
:10DE3000032BFDD8DFE813F004003900110067015F
:10DE400006A9002341F8103D8948FCF77EFB0146F6
:10DE500038B1884B1B6803B19847012007B0BDE873
:10DE6000F08F029C844B94F80890221D1A600123C5
:10DE700099453370D7D86568E868FFF7EFFE6B699E
:10DE8000C01AAB68C01AB9F1000F01D1218A89000C
:10DE90008142C8DB6B68002BC5D003232B70606800
:10DEA00088F80030FCF7AEFEBDE7734B1C682379A1
:10DEB000042B00F2D380DFE813F005008A00AD00E8
:10DEC000ED0017012368DD682846FFF7C7FE2B78B1
:10DED000E2890146E81800F02FFF2568AB6882460A
:10DEE00073B9D5F80C904846FFF7B8FE99F80030A2
:10DEF000014647F6FF7209EB030000F01DFFA86022
:10DF00002268A189D2F80890DFF880B129F47F65F2
:10DF100025F00F0505F58055A5EB090389008B4217
:10DF200033D909EB01052146002331F80C2F48466F
:10DF30009200FFF7D3FE10B17846FAF7BBFE4F4BC5
:10DF40004F4904222846FFF7C9FE10B17846FAF778
:10DF5000B1FEBAF1000F10D02268BAF80010536871
:10DF600003EB810353604749444B04225046FFF7BB
:10DF7000B5FE10B17846FAF79DFE0023C4F808906C
:10DF80008BF80030022333704DE7D0680193FFF720
:10DF900065FE8542019B04D101238BF800300323E9
:10DFA000F1E78B4202D12B781D44BCE70023042209
:10DFB00035494846FFF792FE10B17846FAF77AFEE7
:10DFC00095F80090A944A58909EB8505ABE723687E
:10DFD000DD682846FFF742FE2B78E2890146E81803
:10DFE00000F0AAFE294D10B902232B70D7E7226852
:10DFF000A0600188536803EB8103536021491F4BE4
:10E000000422FFF76BFE60B37846FAF753FE002355
:10E010002B70B7E72268637BD56805EB03350821D1
:10E020002846FFF734FE90B905F1FF3A04F10709DD
:10E0300004F10F0B1AF8013F19F8012F9A4204D08E
:10E04000FF2B02D07846FAF735FECB45F2D10822F5
:10E050000A4BA1182846FFF741FE10B17846FAF79F
:10E0600029FE0A4B00221A708CE700BF583F00209F
:10E07000483E0020683F0020703F00206E3F002097
:10E08000F0F30300E8F30300ECF30300743F002017
:10E090006C3F002020680C30FFF7A6FE054610B943
:10E0A0007846FAF707FE6B884BB1554B5549042269
:10E0B0002846FFF713FE10B17846FAF7FBFD284615
:10E0C000D4F80090FFF776FEC9F808002168C86808
:10E0D000FFF7C4FD8B688342C3D22846FFF76AFE70
:10E0E000474B49490422B6E72368D3E903230221B9
:10E0F0001B038DF80810CDE9032302A9404A012033
:10E10000FDF788FAA9E7414C236813B97846FAF776
:10E11000D1FD3F4B246893F80090B9F1000F21D155
:10E120002379D4F808A0012B13D00AD3022B1CD0DA
:10E1300023792568042B35D8DFE803F01F3B4334EF
:10E1400051002146504631F80C2F920010F014FB7C
:10E1500001E0BAF80200B0FA80F040090028E7D1E7
:10E160004FF0030904F10C0AE2E72368607BDB68E7
:10E170000822A11803EB0030E8E7B9F1000F0BD13A
:10E18000A068FFF717FEA860428847F6FF739A421F
:10E1900002D07846FAF78EFDAB691BB14A4651466C
:10E1A000284698472046FFF789FDFFF7A5FD002385
:10E1B000E9E6EB69002BF5D04A46E1892846984705
:10E1C000F0E72B78012B02D07846FAF773FD237B1A
:10E1D000627B013B9A42E5D102232B70E2E7B9F161
:10E1E000000F02D07846FAF765FD2B78012B1CBF93
:10E1F00000232B702B6A002BD4D028469847D1E7F8
:10E200006E3F0020E8F30300F0F30300703F0020AE
:10E21000743F0020064B1B88934207D1054B1A78A8
:10E22000022A03D103221A70FFF7F6BD704700BF20
:10E230006E3F0020583F002008B54FF482720F490E
:10E240000F48FCF782F80F490120FDF7D3F90E487B
:10E25000FEF70EFC0D4B0E4A1860002313700D4A9A
:10E260000D481380FDF798FCFCF762FC0B4B10B1D6
:10E2700003221A7008BD0222FBE700BF543E0020B3
:10E28000483E002015E2020019DE0200643F002033
:10E29000583F00206E3F00205C3F00206C3F002074
:10E2A00010B504460820FFF761FD042340B1237038
:10E2B00003710460FFF76CFDFFF776FD002010BDD1
:10E2C0001846FCE72DE9F04F87B081460391019293
:10E2D000049310B97846FAF7EDFC0120FDF720FA17
:10E2E000FCF7B2FC0024031D054627464FF0010849
:10E2F000029347F6FE6BD9F81010A14202D9B8F18B
:10E30000010F06D00020FDF70BFA384607B0BDE834
:10E31000F08FD9F80C30286803EB0432904202F5F4
:10E32000805604F1010426D1A14205F5805A20D07F
:10E33000327816447188013989B2594535D900F5CA
:10E34000005230460592FFF735FD059A824210D9FA
:10E3500086420ED24188013989B25945F2D82E79C8
:10E36000029B42885146981900F0E6FC002818BF2D
:10E370008246029A5646137802EB030AB245BADA8D
:10E38000B8F1010FB7D10399BAF80200FFF76CFC9E
:10E3900030B1019B01371BB1049950469847804624
:10E3A0005046FFF707FD8246E8E73046D7E7000012
:10E3B0007FB5E8B1E2B1DBB14C1EA4B247F6FE6610
:10E3C000B44217D80478023C012C15D8CDE90123BA
:10E3D0000523ADF8021003934FF6FF7401AB074A13
:10E3E000ADF800406946FFF76DFF039804B070BDBB
:10E3F0000E20FBE70720F9E70820F7E735DD0200EC
:10E4000070B50D46044610B97846FAF753FC002360
:10E41000294620461A46BDE87040FFF753BF70B545
:10E420000E461446054610B97846FAF743FC731EAB
:10E430009BB247F6FE62934206D947F6FF739E42AF
:10E4400002D07846FAF736FC802C02D97846FAF7E3
:10E4500031FC2B780BB9002070BD04F11000FFF7E0
:10E4600085FC0028F7D00334A4080023013403718D
:10E47000C681848140F80C5BEEE70000094B9842AE
:10E4800010B5044603D303F58273984202D9784647
:10E49000FAF710FCA4F10C00FFF77AFCBDE810407D
:10E4A000FFF782BC543E002038B50C46054610B933
:10E4B0007846FAF7FFFB631E9BB247F6FE62934273
:10E4C00006D947F6FF739C4202D07846FAF7F2FB72
:10E4D0001020FFF74BFC60B1012202714FF6FF7272
:10E4E000C48182810560FFF753FCFFF75DFC0020CB
:10E4F00038BD0420FCE700002DE9F8430023037039
:10E500000B68C3F30B0304460D4613B17846FAF7C4
:10E51000D1FB6B68FE2B02D97846FAF7CBFB04F1EE
:10E520000C07182229463846002610F034F9C4E9B1
:10E53000016623699E4257D32046FCF73FFB0646FF
:10E5400000287CD1E5682846FFF788FB2B788046B9
:10E550001D4447F6FF796B88C3F30E024A4572D11A
:10E5600066602046FCF72AFB10B17846FAF7A2FB5A
:10E570003846FFF739FCA060002873D1E3681A78A9
:10E5800013444FF6FF725988914200D1A3600223D1
:10E5900023702046FCF712FB10B17846FAF78AFB8D
:10E5A000E5682B781D44A3689D424AD22846FFF7B0
:10E5B00001FCA3689842064668D16A88531E9BB244
:10E5C00047F6FE618B423CD8E36818782946184428
:10E5D00000F0B2FB002834D0A84232D04188204657
:10E5E000BDE8F843FFF760BF3503E3685A195B5D88
:10E5F000083BDBB2F62B15D85379FF2B12D01279DA
:10E60000FF2A0FD09E4202D07846FAF753FBE36808
:10E610002B441A7923699A4202D07846FAF74AFBCA
:10E62000013686E701233B4F2370002523699D4275
:10E6300031D3FFF7B9FBE3680833A36001E003239C
:10E640002370002018E013B92B8806EB83062846B8
:10E65000FFF7B0FB804505463FF67DAF7846FAF7F9
:10E6600029FB78E7428847F6FF739A428FD008204B
:10E67000FFF77CFB10B90420BDE8F8830322027188
:10E680000460FFF785FBFFF78FFB80E73046FFF75D
:10E6900091FB35468DE7E0682E03304440F6FC716F
:10E6A0000430FFF7F4FA90B11020FFF75FFB002869
:10E6B000E1D00222027187604573226902734FF62E
:10E6C000FF72C2810460FFF763FB0135AEE7E368C8
:10E6D0009A199B5D083BDBB2F62B05D85379FF2BCB
:10E6E00002D01379FF2B02D17846FAF7E3FAE368F8
:10E6F00033445B799D4202D07846FAF7DBFAE3684F
:10E700001E44236932799A42DFD07846FAF7D2FA6A
:10E71000DBE700BF0804101010B5044610B97846B6
:10E72000FAF7C8FAA36813B97846FAF7C3FA236868
:10E7300033B9246021460348BDE81040FDF736BADE
:10E7400010BD00BF5C3F002008B50648FBF799FFED
:10E7500020B1FCF74FFA80F00100C0B200F00100D8
:10E7600008BD00BF483E002038B5044698B1C568D2
:10E770002846FFF773FA2B78014647F6FF72E81830
:10E7800000F0DAFAA06010B97846FAF793FA02239B
:10E79000237000236360054B0549022201201A7093
:10E7A000FCF728FFBDE83840FFF7FEBA6C3F0020B9
:10E7B00015E20200FCF748BA38B50546044C20B112
:10E7C000236813B17846FAF775FA256038BD00BFA3
:10E7D000683F002030B503B930BD013B9BB2CC5C33
:10E7E000D55C6C40C454F6E746DF70472DE9F8432A
:10E7F000858907468846012401F120090DB9BDE845
:10E80000F88363BAA8F81E304046FFF7EDFF102DDD
:10E8100004F1FF3CB968B8692E464FEA0C1C28BFCA
:10E82000102633464A4661446044AD1B0134FFF76D
:10E83000D1FFADB2A4B2E1E72DE9F04707460E469D
:10E840001446994600F1100500F120080CB9BDE806
:10E85000F087C9F1100A544505EB090018DA224681
:10E8600031460FF098FF04EB0900C0F110020021BF
:10E8700028440FF09BFF002410232A4641462846D7
:10E88000FFF7A8FF3846FFF7AFFF4FF00009DDE7BD
:10E89000103C3146524619FA84F40FF07CFFA4B2C2
:10E8A0005644E9E770B5838A002B90F820300D4676
:10E8B000A3F102034FF0020193FBF1F34FEAC3030C
:10E8C00003F03803164643F0010314BF4022002230
:10E8D000134304462B7441680D2205F111000FF01B
:10E8E0005AFFA289130A43EA0223EB832846FFF763
:10E8F0007BFFA38A83B1B3F57F4F02D37846FAF743
:10E90000D9F9A28A130A43EA02232B82A28A216937
:10E9100002232846FFF790FFA28922B10023A168B5
:10E920002846FFF789FF94F8202005F120013046A2
:10E93000BDE870400FF02FBF30B504468DB00168C0
:10E94000102268460FF027FFE26969462046FFF76C
:10E95000A9FFE569616801230D220DF111008DF811
:10E9600010300FF018FF00236846ADF81E30FFF797
:10E970003BFF94F8203008AA29462846FFF72AFFD3
:10E9800069462046FFF732FF0DB030BD70B590F8F4
:10E990002030102B90B004460D4602D97846FAF785
:10E9A00089F9102221680DEB02000FF0F4FEA38913
:10E9B0007BB1012361688DF820300D220DF121001B
:10E9C0000FF0E9FE002304A92046ADF82E30FFF732
:10E9D0000DFFA369A668A3606A4604A92046FFF755
:10E9E00061FF616801230D220DF121008DF82030B7
:10E9F0000FF0D1FE002304A8ADF82E30FFF7F4FE8F
:10EA000094F820300CAA69466846FFF7E3FEA6603A
:10EA100094F82020E16968460FF0AEFEB0FA80F06D
:10EA20004009287010B070BD70B50B4C0388258864
:10EA30009D42064606D001339BB29D4202D07846E5
:10EA4000FAF738F930882368854238BF03F1FF337D
:10EA50001B0C1B04184470BD783F00202DE9F843BF
:10EA60000378022B0DD1FCF71FFC114EDFF8488014
:10EA70000546002400F1FF3933689C4203D30D4B57
:10EA80001D60BDE8F88308EBC407B81DFFF7CCFF95
:10EA900085420BD0484509D03368013B336008EB11
:10EAA000C30393E8030087E80300E5E70134E3E7E5
:10EAB0007C3F0020783F0020803F002008B5FCF715
:10EAC000F3FB014B186008BD783F00202DE9F843A7
:10EAD0001A4D1B4E2B68884691460024A3420CD148
:10EAE000282B29D0164A02EBC30142F833800133A8
:10EAF0008880A1F806902B6015E0E700F219918854
:10EB0000814217D1901DFFF78FFF81450ED156F836
:10EB10003400804594BF0020012028B1374446F8D6
:10EB20003480A7F806900020BDE8F8838CBF012050
:10EB30000020F2E70134D1E70420F5E77C3F002014
:10EB4000803F0020F8B5114B114E0C46196817464E
:10EB50000025A94201D1002011E006EBC5039A88E7
:10EB6000824211D1981DFFF75FFF874208D156F806
:10EB70003500844294BF0020012080F00100F8BDE0
:10EB80008CBF01200020F8E70135E2E77C3F002040
:10EB9000803F0020034B044800214FF4A07219600D
:10EBA0000FF004BE7C3F0020803F002008B50348E2
:10EBB000FCF7D4FFBDE80840FFF7ECBF602E002053
:10EBC0002DE9F041884616461F460446B0B1C2B151
:10EBD000013B1B2B15D8FF2913D0BD1CEDB2691CBE
:10EBE00002F07EF8044648B12B234574837480F804
:10EBF00013803A46314614300FF0CDFD2046BDE873
:10EC0000F0810024FAE70000F0B50E46C7B01746C1
:10EC1000054610B97846FAF74DF8002E7AD02C78D0
:10EC2000711EC9B2002C57D0012C5CD03A4C22681E
:10EC3000D20519D5394B1B68012B15DD2F2138481A
:10EC40000FF084FE002853D02F2135480FF07EFEB0
:10EC5000411C344B2A78D3F804350192324A009291
:10EC600002206D22FEF7EEFF2368DB0532D52B4B29
:10EC70001B68032B2EDD2D4B802E196828BF8026A4
:10EC8000002305AC15F8012F100902F00F02085CF3
:10EC900004F81300885C04EB430201339E42507079
:10ECA000F0D100232F211E4804F816300FF04EFE3D
:10ECB00038B32F211A480FF049FE411C194B1C4A4A
:10ECC000D3F8043501921B4A009202946E2204206C
:10ECD000FEF7B8FF0B2004E03A46681C0CF064FC19
:10ECE000002047B0F0BD3A46681C00F0AFFDF7E7E2
:10ECF0005C210B480FF02AFE08B15C21A5E708490A
:10ED0000A7E75C2106480FF021FE08B15C21D1E79E
:10ED10000349D3E70920E4E7542E0020502E0020B9
:10ED2000F4F30300001001400EF40300582E0020FD
:10ED300034F4030032EF030088422DE9F84307461C
:10ED40000E46904602D97846F9F7B4FF3C46DFF804
:10ED50005C901AE0238804EB83039E4221D9238828
:10ED600013B97846F9F7A6FF238804EB830333EA47
:10ED7000090203D06288B2F5FE4F01D12B782B44F3
:10ED80009E420ED99F421C460BD26388434509D050
:10ED900004EA090505F58055B542E0D3B3F5FE4F09
:10EDA000D8D100242046BDE8F88300BF00F0FFFF63
:10EDB000014B1860704700BFC44000202DE9F041AE
:10EDC0000F46054610B97846F9F774FF17B978462B
:10EDD000F9F770FF2B78012B02D97846F9F76AFF13
:10EDE0001E4C236A13B17846F9F764FF6B681D2B3C
:10EDF00002D97846F9F75EFF2B78012B09D1EB6831
:10EE00005A1C06D003F50073012B02D97846F9F796
:10EE100051FF134B1E684FF0010846B9236A1BB11E
:10EE20006B6823700F4B3B60206ABDE8F08116F8D9
:10EE3000032C2B691A42A6F108000CD056F8083CA6
:10EE400029461B68984730B916F8043C226A08FA2C
:10EE500003F3134323623668DFE700BFAC59002099
:10EE6000C8400020AD590020F8B50F4D2B6A13B9EA
:10EE70007846F9F71FFF0D4B0D4F1C6801260CB9A2
:10EE80002C62F8BD14F8043C2A6A06FA03F3134214
:10EE9000A4F1080005D054F8083C2A785B6839468C
:10EEA00098472468EBE700BFAC590020C840002019
:10EEB000AD59002070B50D4D2B6A13B97846F9F79E
:10EEC000F9FE0B4B1C6801260CB92C6270BD14F8BE
:10EED000043C2A6A06FA03F31342A4F1080003D0A3
:10EEE00054F8083C9B6898472468EDE7AC5900202B
:10EEF000C84000202DE9F0410E46174698460546C9
:10EF000010B97846F9F7D6FE064B1C683CB143466B
:10EF10003A4629793046A446BDE8F0416047BDE84D
:10EF2000F08100BFC4400020F8B50E4617460446E5
:10EF300010B97846F9F7BEFE16B97846F9F7BAFE69
:10EF40001FB97846F9F7B6FE01E0FF2FF9D0336814
:10EF500013B97846F9F7AEFE736813B97846F9F736
:10EF6000A9FEB36813B97846F9F7A4FE094D2B78CA
:10EF70001F2B02D97846F9F79DFE2B7826605A1C84
:10EF8000237167712A7004F108010348BDE8F84055
:10EF9000FEF7BDBDC0400020C840002007B540F2CC
:10EFA0000713B3EB104F019002D07846F9F782FEB9
:10EFB00003481422002103B05DF804EB0FF0F6BB08
:10EFC000D840002013B540F20713B3EB104F019067
:10EFD0000C4602D07846F9F76DFE0449142220460B
:10EFE00002B0BDE810400FF0D6BB00BFD8400020F3
:10EFF000F7B540F20713B3EB104F01900F4602D064
:10F000007846F9F757FE3888FCF7C2FB02284AD049
:10F010007B68B3F5004F03D94FF6FF72934242D19C
:10F02000BB68B3F5803F3ED897F90C30002B3ADB34
:10F030003E460FCE1D4C25460FC533682B603A88DF
:10F04000234612B9C4E901222273194A14785A6876
:10F05000E4B14FF6FF70111A4A424A41E2B19A6890
:10F06000D2B1144BB4B1B2F5E16F144628BF4FF4DE
:10F07000E164121B1A60FCF7D3FF0F4901FB040186
:10F080000E48FCF7A4FF002003B0F0BD003218BF0B
:10F090000122E3E71C60EEE700240848C3E90144CD
:10F0A000FCF77EFFEFE70720EEE700BFD840002027
:10F0B000204100200441002040420F000841002070
:10F0C00030B50C4DAC688DB08CB90B48FCF768FFBF
:10F0D0002C22214601A8AC600FF068FB062301A892
:10F0E0008DF804300295FBF7BFF80DB030BD013C40
:10F0F000AC60FAE7F04000202441002010B503780E
:10F100000A2B8CB039D11E4AC4891388A34234D14A
:10F11000418A5388994230D18368032B2DD193685B
:10F120005BB35368B3F5004F3CBF01335360416894
:10F13000007F05238DF804300B7803F07F038DF8F2
:10F1400008300B78C0F1010003F07F030344DBB209
:10F150008DF809308978ADF80C4001F00F01ADF859
:10F160000A1091899BB29942D18988BF938101A8E5
:10F17000994238BFD381FBF777F80CB010BD00BFC0
:10F18000F040002070B5294C23888EB0002B4BD066
:10F19000274D2A6812B97846F9F78CFD2B68684626
:10F1A0009847054600283FD102AE0322014630466B
:10F1B0000FF0FCFA9DF80830227B8DF8095023F0FF
:10F1C0007F0302F07F0213438DF80830194B1B7840
:10F1D0008DF80A30019B13B97846F9F76BFD0A23C5
:10F1E0008DF8143000238DF820302088BDF80030D1
:10F1F000ADF82230ADF82600FCF7CAFA019B0B935C
:10F2000003230793237B8DF824008DF830306FF0B3
:10F210000201FF2305A80D930696FAF787FC064B1B
:10F22000003018BF012018700EB070BDD84000200B
:10F230003C410020004100202141002010B40A4A36
:10F24000137818420CBF012400248C4209D143409A
:10F250001370064BDB89184203D05DF8044BFFF7AF
:10F2600091BF5DF8044B704700410020D84000205A
:10F2700082B0C1F30743012B019105D120B9117868
:10F28000184602B0FFF7DABF02B0704782B00191B2
:10F2900020B91178022002B0FFF7D0BF02B070474A
:10F2A0000378012B04D1034B1B780BB1FFF76ABF26
:10F2B000704700BF2141002038B5114D114C2B88FB
:10F2C000DBB16B68CBB1226852B94FF6FF72934243
:10F2D0001CBF03F1FF336B60FFF754FFAB68236083
:10F2E0002368094AB3F5E16F194628BF4FF4E1617D
:10F2F0004A435B1A2261236001E00023236138BD89
:10F30000D84000200441002040420F0008B50121F0
:10F310000B48FAF77BFF10B17846F9F7CBFC094BA5
:10F32000094ADA60094B0A4A9A600A480A4ADA60CE
:10F330000A4B0360FAF7C2FF094B01221A7008BD9D
:10F3400054F4030004410020B9F2020024410020DB
:10F35000C1F00200CC40002040420F00A1F20200A8
:10F3600020410020F0B5054691B010B97846F9F774
:10F37000A1FC0DF1020168460BF0DAF8AB68B3F5B9
:10F38000803F02D9072011B0F0BD2888FCF700FAB1
:10F3900001282FD16888FCF7FBF948B16888FCF791
:10F3A000F7F9032804D06A88BDF800309A42E9D101
:10F3B0001E4C94E80F0001AE86E80F00AB68FBB965
:10F3C00000231B482360A360FCF7EAFD2C220021E8
:10F3D00005A80FF0EBF906238DF81430BDF80630C0
:10F3E000002B08BF002605A8CDE90664FAF73CFF0C
:10F3F0000020C8E72888FCF7CBF90028CAD0C1E76D
:10F4000029880029DCD06A88002AD9D0084DA36059
:10F4100021806280EF68FCF703FE39182846FCF76C
:10F42000D6FD7F23E36000236360CFE7F040002038
:10F430002441002000487047F040002000487047F9
:10F44000D8400020034B00221A70034B0146186875
:10F4500000F058BC204100204EF40300034B18601C
:10F4600010B97846F9F726BC704700BF3C41002030
:10F4700007B5094B0190012208481A7001F016FCEB
:10F48000FCF7CEFD064BD9680144184603B05DF881
:10F4900004EBFCF79CBD00BF20420020404100204F
:10F4A0002442002013B50190000CB0F5837F0C4678
:10F4B00002D07846F9F7FEFB024B1B78237002B0AE
:10F4C00010BD00BF2042002037B50190000CB0F500
:10F4D000837F0C4602D07846F9F7ECFB25780E4C7A
:10F4E00022787AB955B10D4801F0E0FBFCF798FDA0
:10F4F0000B4BD96801441846FCF769FD00202570C4
:10F5000003B030BD002DF9D1044801F0E4FB0448FC
:10F51000FCF746FDF2E700BF2042002040410020FA
:10F52000244200207FB5089C06461D462078531EC5
:10F530005A425A4161F3000062F3410002462046FC
:10F540006FF3870206F1100100F8012B2DBA082293
:10F550000FF021F96B4621463046C4F809500D22C0
:10F56000FDF7D1FB0822694604F10D000FF013F9F5
:10F5700004B070BDF0B595B005460DF1370257499E
:10F58000564C574F00200AF0BDFE26462268002A3E
:10F5900000F0918051680888142300FB03335B0856
:10F5A0009BB2B3F5167F28BF4FF416730A2B38BFF2
:10F5B0000A238B80526893780133DBB2022B93705D
:10F5C00006D123685A68002393702268526813801A
:10F5D000336859688B68EA1A48BF5A1B8B887B438B
:10F5E000934273D8FBF760FE0446FBF779FE9DF863
:10F5F00037103368A1F1020C022902460EAF0CBF8E
:10F6000003F1300003F10800DCF1000141EB0C01D3
:10F6100023460097FFF786FF012115233A4631481C
:10F62000FFF7CEFA0146002845D0012303712D488B
:10F6300001F091FB2C4B1B689B0739D52B4B1B68AA
:10F64000042B35DD2F212A480FF080F9002834D013
:10F650002F2127480FF07AF9411C9DF83820254BBF
:10F6600002F00100C2F34002D3F8043509929DF87C
:10F67000402008929DF83F2007929DF83E20069278
:10F680009DF83D2005929DF83C2004929DF83B207A
:10F6900003929DF83A2002929DF839200192164A71
:10F6A0000A900092052040F201120B94FEF7CAFA6C
:10F6B00033685B689D6015B0F0BD5C210C480FF0AD
:10F6C00045F908B15C21C4E70949C6E70DF13702E5
:10F6D000214600200AF016FE58E700BF3C420020F9
:10F6E00040420F0040410020542E0020502E0020A8
:10F6F00060F40300001001407EF4030008B5FCF73D
:10F700008FFCBDE80840FFF735BFFFF733BF10B5EA
:10F7100086B002AB0D220C46FDF7F5FA08220DEB80
:10F72000020168460FF037F8082204F10D0168461F
:10F730000FF022F8B0FA80F0400906B010BD0000CA
:10F7400013B5154A154C002313600421144AE260D6
:10F750000DEB0100134AA2602361FCF76FFDFCF77B
:10F760005FFC0199E268B1FBF2F302FB131318444A
:10F7700060600D4C0D4A0E493423204601F096FB83
:10F7800020464FF47A7101F03CFB0A4A0A480421F2
:10F79000FDF71DFB02B010BD3C42002024420020BA
:10F7A000809698000BF7020040410020DC410020C9
:10F7B000FDF6020010420020C1F4030010B5064C13
:10F7C00023783BB9054801F071FA0548FCF7C6FB00
:10F7D0000123237010BD00BF2042002040410020C3
:10F7E000244200201FB504A901F8090D044800F0C7
:10F7F00089FA10B17846F9F75DFA05B05DF804FBB7
:10F800000300060107B507480DF1030100F0BAFA3D
:10F8100010B17846F9F74EFA9DF8030003B05DF891
:10F8200004FB00BF0300060137B50C461946069BD2
:10F8300050B14BB1012503F8015B00932346FFF75C
:10F8400071FE002003B030BD0E20FBE72DE9F0472C
:10F8500017469AB0044610B97846F9F72BFA0023F8
:10F860000E93504BD4F809601B689B0736BA30D50D
:10F870004D4B1B68042B2CDD2F214C480FF066F8F4
:10F88000002836D02F2149480FF060F8411C484B22
:10F89000D3F804350B96227802F00100C2F340023F
:10F8A0000A900992227A0892E2790792A279069246
:10F8B0006279059222790492E2780392A278029208
:10F8C000627801923B4A009205204FF4D572FEF710
:10F8D000B9F9651C0DF137020EA928460AF012FD90
:10F8E0004FF6FF784FF004090E9B5BB91AB0BDE8E4
:10F8F000F0875C212D480FF029F808B15C21C2E7A0
:10F900002A49C4E75B6813B97846F9F7D3F90E982A
:10F91000082200F1080A294618300EF02DFF50BBCE
:10F9200021465046FFF7F3FE28B30E9B08330E9A8C
:10F9300051680A8842451CBF01320A8021468DF871
:10F940003C9011F80D2B1496C2F34000C2F3000254
:10F950008DF855200E9A8DF854000FA8CDE910238C
:10F96000CDE91271FAF780FC0DF137020EA9284695
:10F970000AF0C8FCB8E79DF83730002BF4D00E9899
:10F98000082200F1300A294640300EF0F5FE00282A
:10F99000EAD121465046FFF7BAFE0028E4D00E9B7C
:10F9A0003033C4E7542E0020502E002060F40300B2
:10F9B00000100140C6F403002DE9F3410F4C104E36
:10F9C000019205460F469846A64202D102B0BDE814
:10F9D000F08122682B681188188888420CD15188E0
:10F9E0005B888B4208D8EA881A448A4204DD424682
:10F9F00001996368384698470834E5E778030400BE
:10FA00008803040038B503685C88C3880C1B9C42DB
:10FA1000054602D37846F9F74DF9A869204438BD68
:10FA200037B585B20190020C094C0A48844202D1D4
:10FA3000002003B030BD03681988A94206D1598857
:10FA4000914203D8C3880B449342F2DC1C30EDE7AB
:10FA5000780304009802040070B58EB00E46019041
:10FA60001546FFF7DDFF044688B18388AB4222D8F4
:10FA7000C368019831469847F8B9BDF8061020468A
:10FA8000FFF7C0FF0223037001200EB070BD0224F7
:10FA90002C22002103A80EF089FE0198CDF8120057
:10FAA000142303A88DF80C308DF81040CDE90665BD
:10FAB000FAF7DAFBE8E70024EAE70124E8E70000C8
:10FAC0002DE9F041304C314E314FDFF8CC8092B00F
:10FAD000A4F11C039E4202D112B0BDE8F08154F89B
:10FAE0001C3C1A882B4BBB4205D17846F9F7E2F84B
:10FAF00000239B78FFDE1988914201D00833F2E79A
:10FB00009B78012B07D0022B01D01C34E0E798F83A
:10FB10000030002BF9D000252BE054F8043C5A5D4E
:10FB200002F00503012B23D154F81C3C18685B88B4
:10FB300001902B4492079BB220D5ADF8063054F8C3
:10FB40000C2C019802A9904734F8182C019802A9AE
:10FB500000F0D8FA0028BFD154F8042C535D23F0EC
:10FB60000103535554F8042C535D43F004035355DB
:10FB7000013534F8163CAB42CFD8C6E7ADF80630B5
:10FB8000019800F0E6FAE5E7B40204007803040007
:10FB90009003040088030400404200202DE9F34153
:10FBA000204C214EA4F11C07A4F11C0846450FD19E
:10FBB0001E4A1F4B1F4900919B1AF61BDB081E486B
:10FBC0001C21B6FBF1F100F00FFA02B0BDE8F081A4
:10FBD00054F81C3C34F8162C5B881344B3F5803F72
:10FBE00002D37846F9F766F8134DB54201D11C34BB
:10FBF000DAE74545FBD054F81C2C2B68108819888F
:10FC000088420DD150885988EA880A44904207DA20
:10FC100034F8163C0344994202DA7846F9F74AF878
:10FC20001C35E2E7B40204007803040088030400F2
:10FC3000900304007DFC020098020400014800F0DB
:10FC4000A3BA00BF59FA020010B50A4B0A489842FD
:10FC50000ED0D988002205E09C69A45C14F0050F41
:10FC600004D101329142F7D81C33F0E7012010BDD6
:10FC70000020FCE7980204007803040030B5044635
:10FC80008DB0D0F80200FFF7CBFE054610B97846DC
:10FC9000F9F710F82846A188FFF7B4FE03785B0750
:10FCA000054602D47846F9F705F82B7823F00403CB
:10FCB0002B702378022B0DD12C22002101A80EF0ED
:10FCC00075FDD4F802000290132301A88DF80430CA
:10FCD000FAF7CAFAFFF7B8FF014618B1FFF7F0FECE
:10FCE0000DB030BD064B2C22187001A80EF05EFD41
:10FCF000122301A88DF80430FAF7B6FAF0E700BF36
:10FD000040420020F0B585B00E46019089B3FFF760
:10FD100087FE054678B30198EB6803903146BDF83D
:10FD200006709847044608BB39462846FFF76AFE26
:10FD30000378124A43F0030303702B6810481F88AE
:10FD40002346D118884203D17846F8F7B3FF05E07F
:10FD50000833D11831F8081CB942F2D1FFF7B0FED0
:10FD60003346039A00212846FFF726FE204605B0B9
:10FD7000F0BD0E24FAE70524F8E700BF880304006D
:10FD80009003040037B50D460190A9B1FFF748FE76
:10FD9000044698B1037A33B10198236929469847FC
:10FDA000002003B030BDBDF80610FFF72BFE03782E
:10FDB0009B07F1D40820F4E70E20F2E70520F0E7D6
:10FDC00013B50190FFF72CFE0446D0B1BDF8061024
:10FDD000FFF718FE03789A0715D523F0020343F0C6
:10FDE0000103037063690BB101989847FFF768FE40
:10FDF00020460023019A0121FFF7DEFD002002B01A
:10FE000010BD0520FBE70820F9E700000F4B73B594
:10FE100001220F4C0F4E1A70A4F11C039E4213D105
:10FE200002B070BD54F81C3C18685B8801902B44EC
:10FE3000ADF806300198FFF7C3FF013534F8163CE2
:10FE4000AB42EFD81C34E7E70025F7E7404200203B
:10FE5000B4020400780304002DE9F84388460168E1
:10FE600017460C6842790E790546D2B204EB860635
:10FE70000BB9017949B904EB83040AE011F8043C99
:10FE800083F08003934204D00C46A64204F104019F
:10FE9000F4D80434B44201D3002014E0237843455D
:10FEA0002CD16378FF2B10D1A378FF2B1CD1E378E2
:10FEB000FF2B07D0AB79012B02D07846F8F7FAFE7A
:10FEC000E3786B710120BDE8F8832B68D3F80890C4
:10FED000B9F1000F02D17846F8F7ECFE39466078A8
:10FEE000C8470028E0D1D4E72B68DE6816B9784609
:10FEF000F8F7E0FE3946A078B047D8E71B06C8D52A
:10FF0000CAE72DE9F0470F46064610B97846F8F7DC
:10FF1000D1FE17B97846F8F7CDFE37607B7973715B
:10FF20000025B571D7F80090FF243B795FFA85F87A
:10FF3000984507D3FF2C02D09C4228BFFF24347180
:10FF4000BDE8F087FF2C4FEA880A06D019F928305F
:10FF5000002B02DA7846F8F7ADFE19F80A300135C1
:10FF6000FF2B08BF4446E0E770B50D461646044631
:10FF700010B97846F8F79EFEA3790133DBB2A3717E
:10FF80003246002329462046FFF766FF38B9237919
:10FF9000FF2B04D0324629462046FFF75DFFA379A8
:10FFA000013BDBB2A37170BD8079003018BF012026
:10FFB0007047704730B50A4B1C680A4B196800231C
:10FFC0009C4201D1002207E031F83350854201EB19
:10FFD000C30203D153681880104630BD0133EFE7E8
:10FFE000444200204C4200202DE9F84FDDF82880E3
:10FFF000894617469A46044610B97846F8F75AFEDD
:020000023000CC
:10000000B9F1000F02D17846F8F754FE17B97846D7
:10001000F8F750FEBAF1000F02D17846F8F74AFE21
:10002000344E354837600023344D354F2B609845AA
:1000300018BF4046C7F800A000F01EF91C2303FBC0
:1000400009494C450AD100220023D7F800E0306866
:100050001C4673453DD14CBBBDE8F88F236818881A
:10006000FFF7A8FF804608B1436813B97846F8F750
:1000700021FED8F80430A088B3F802B000F082F96D
:10008000B4F806A000FB0ABABAF5803F02DB784656
:10009000F8F710FED8F80430A3F802A0D8F804202E
:1000A000E18893880B4493801C34CAE7A37833B16A
:1000B000606800F0F5F810B17846F8F7FBFD2046CF
:1000C00000F078F92B68228818440132286092B237
:1000D000BAE730F833C0944500EBC30108D324B12C
:1000E000B4F80080E04598BF214601330C46B0E7E4
:1000F0002146FAE74C420020B3FF020048420020AC
:100100004442002073B5164601900D4611B9784659
:10011000F8F7D0FD16B97846F8F7CCFDBDF8040025
:10012000FFF748FF044610B97846F8F7C3FD636847
:100130005B8813B97846F8F7BDFD6368BDF8062003
:10014000DA8060683246294602B0BDE8704000F0AF
:10015000D3B813B5019080B2FFF72CFF044610B955
:100160007846F8F7A7FD63685B8813B97846F8F717
:10017000A1FD6368BDF80620DA80606802B0BDE8C2
:10018000104000F0CFB80000F8B5054610B9784629
:10019000F8F790FD084E094F00243368A34200D8B9
:1001A000F8BD3B6803EBC4039A781AB12946586836
:1001B00000F0D0F80134F0E7444200204C42002027
:1001C00007B54B684288DA804B681B88ADF804306D
:1001D000438830F8042BADF8063002F18042013A32
:1001E0000B689200014601989847024B185C03B0D7
:1001F0005DF804FB09F5030007B5002A0CBF0023D6
:1002000002238DF8003030F8083CADF802304B88FE
:10021000ADF80430034B68461B68984703B05DF89F
:1002200004FB00BF5442002007B5002A0CBF012385
:1002300002238DF8003030F8083CADF80230044B52
:10024000ADF804101B686846984703B05DF804FBDE
:1002500054420020704700B58DB02C22002101A827
:100260000EF0A4FA0E2301A88DF80430F9F7FCFF74
:100270000DB05DF804FB000008B5064B00221A70B3
:10028000054B1860FDF7D8FF0448BDE80840FEF7AD
:1002900093BA00BF5042002054420020570203008E
:1002A00070B5114E448840F6F87304F6F774B4FB49
:1002B000F3F4337886B023440546337007F0CDFE5F
:1002C0003378A0EB03306B880293084B0393084B01
:1002D0000493CDE90004074B0593694605F1080036
:1002E000FEF70AF906B070BD50420020F901030084
:1002F000290203005502030070B508300D4630F89E
:10030000021C1646FEF78BF8044648B132462946D1
:1003100004300EF040FA2046FEF7B0F8002070BD21
:100320000420FCE737B54FF6FF7300F108050446DB
:10033000ADF8043001A9C388ADF806302846FEF7B1
:100340005FF828B1E1882846FEF7AEF803B030BD6B
:100350000520FBE737B50D46044610B97846F8F797
:10036000A9FC15B97846F8F7A5FC6B46044A0021AC
:1003700004F10800CDE90054FDF7A4FF03B030BD3F
:10038000C1010300C31D4FF6FC7018407047000008
:1003900010B5044610B97846F8F78CFC044B1B786E
:1003A0001B03636007F059FE6368C01A206010BD2C
:1003B000504200208378022B0CD143689A885888D9
:1003C00064235343033003F5FA732922800802FBA8
:1003D0000030704700207047094B834210B502D0AF
:1003E0007846F8F767FC074C236813B97846F8F7A6
:1003F00061FC206800F0ABFA0023236010BD00BF51
:100400005842002070420020114B834270B50E46C6
:10041000154602D07846F8F74DFC0E4C23681B6950
:10042000AB4202D27846F8F745FC20682A463146AE
:1004300014300EF0B0F921680748FBF7B7FB002332
:100440002360064BBDE870401868FCF72FBB00BF67
:100450005842002070420020644200206C4200207C
:10046000F0B587B01822002168460EF09FF90323EB
:1004700012488DF80030FBF7B3FB114D0F4E0446C8
:1004800014B9012007B0F0BDE368277A0193FBF7A8
:10049000C7FDE368024639462846FEF72BFD216971
:1004A0006A4604F11400FCF761FE3046FBF798FB46
:1004B0000746204600F04BFA3C46E1E76442002044
:1004C000584200200F4B834270B50D4602D078464B
:1004D000F8F7F0FB2B699B0610D50B4E34686CB90E
:1004E0006868143000F031FA306048B12B7803723C
:1004F000EB68C3606B680361204670BD0120FCE7B8
:100500000220FAE7584200207042002008B5074850
:10051000FCF7AEFA064B0749186020220648FEF7A2
:1005200003FD0648BDE80840FBF736BB6104030045
:100530006C4200200CF50300584200206442002069
:1005400037B5C0F30745012D01900C4602D9784616
:10055000F8F7B0FB084AA0206843131819792170F6
:10056000125862705B6F4FF47A7203F5FA73B3FB43
:10057000F2F3638003B030BD8042002037B5C0F392
:100580000744023CE4B2012C01900D4602D97846A2
:10059000F8F790FB0448A02303FB040494F82C30E4
:1005A0002B7003B030BD00BF8042002073B5C0F394
:1005B0000745012D019002D97846F8F77BFB0E4CD8
:1005C000A0226A43161D22442644127912B93046ED
:1005D00000F06CFB012D1CBFA0235D434FF0140104
:1005E00018BF012330460CBFC4F8A050635102B0BD
:1005F000BDE8704000F005BC80420020F7B5C0F3B4
:100600000746012E01900D4602D97846F8F752FBB5
:100610006B78013B072B22D86B88143BB3F5917F95
:100620001DD8104F2978A02474433A190434127944
:100630003C4471B112B9204600F038FBA020704351
:100640006B783B502046698800F0DBFB002003B04C
:10065000F0BD002AF2D0204600F03DFBEEE7072077
:10066000F5E700BF8042002013B5C0F30744023C09
:10067000E4B2012C019002D97846F8F71BFB05483B
:10068000A02303FB04000021043002B0BDE81040A9
:1006900000F0D7BB8042002037B5C0F30744023CCE
:1006A000E4B2012C01900D4602D97846F8F702FB1E
:1006B00005482978A02303FB0400043000F0C1FBA7
:1006C000002003B030BD00BF804200201FB5C0F342
:1006D0000744043CE4B2012C019002D97846F8F7B3
:1006E000E9FA02A800F0C6FB0448A02303FB0400BB
:1006F00002A9043000F067FB04B010BD8042002066
:1007000073B5C0F30744043CE4B2012C01900E46DB
:1007100002D97846F8F7CEFA307810F0FC050AD105
:100720000648A02303FB04000430314600F04BFBD5
:10073000284602B070BD0720FBE700BF80420020C2
:1007400037B5C0F30744043CE4B2012C01900D46D8
:1007500002D97846F8F7AEFA0549A02000FB04114B
:1007600007226C31284603B0BDE830400EF013B8C4
:10077000804200200C4B834210B502D07846F8F737
:1007800099FA0A4C636813B97846F8F793FA084B5C
:1007900020786168A02202FB0030043000F004FBE6
:1007A0000023636010BD00BF74420020C0430020DE
:1007B00080420020124B834270B50E46154602D08F
:1007C0007846F8F777FA0F4C636813B97846F8F76C
:1007D00071FA60682A2383746B1C43742A4631467D
:1007E00013300DF0D8FF084B20786168A02202FB7F
:1007F0000030043000F0AFFA0023636070BD00BF2A
:1008000074420020C043002080420020F8B5124B03
:1008100083420D4602D07846F8F74CFA0F4C6368D5
:1008200013B17846F8F746FA28780D4F6968A02684
:1008300006FB00700231043000F052FA606048B1EB
:10084000EB6803602B785E43BB5903712B782370F0
:100850000020F8BD0220FCE774420020C0430020C5
:1008600080420020044BC01A044B401158430B46F1
:10087000C1B20348FEF73EBB84420020CDCCCCCCB5
:1008800074420020012882B00AD8032300F580704A
:10089000ADF80430ADF80600019802B0FFF732BAA7
:1008A000072002B07047012882B00AD8032300F560
:1008B0008070ADF80430ADF80600019802B0FFF783
:1008C00061BA072002B0704770B5114C114A124945
:1008D0002546012645F8046B4FF48073284600F046
:1008E000E5FA284600F0E2F9A43444F8046C0B4A17
:1008F00000212046802300F0D9FA204600F0D6F9E6
:10090000324607490748BDE87040FEF70DBB00BFFF
:1009100080420020CE43002065080300CE44002022
:1009200024F5030074420020012810B5044602D9C2
:100930007846F8F7BFF9034BA02202FB0434207974
:1009400010BD00BF8042002070470DF005BF0DF0C4
:100950000BBF000070B5064618B343680BB343786D
:10096000073BDBB2F72B1ED9104B00781C68A8B9E7
:100970000546E8B2013500F091F8B5F5807FF8D171
:1009800006F108010948FDF7C2F82CB9204600F02D
:1009900095F8012000F072F8002003E000F07EF8E6
:1009A000EEE70E2070BD0720FCE700BF5045002099
:1009B0002DE9F047DFF85C8006461F460C468D188F
:1009C000AC4201D3BDE8F087D8F8002004F1020959
:1009D00042B1617812F8083C994207D033B11268ED
:1009E000002AF7D1227801321444E9E7082AF9D025
:1009F00012F8071CD2F800A0B14201D0FF2906D19D
:100A0000217852F8043C01393A4648469847524604
:100A1000DEE700BF50450020F0B5174A447D137C47
:100A2000063CE4B200214FF0010C8C4203DCB3FA27
:100A300083F0400917E04618B57F767F6F0902EB17
:100A4000870705F01F057F690CFA05F53D4210D0B8
:100A5000611AB14204DC536B013353630120F0BDD2
:100A6000181C18BF01200028F9D0936B0133936341
:100A7000F5E701363144D8E75445002030B1054848
:100A8000054B43600023037000F0E6BD014800F011
:100A900001BE00BF54450020190A03004109064A5F
:100AA000012300F01F0003FA00F052F82130034345
:100AB00042F82130704700BF68450020012810B57A
:100AC000044602D97846F8F7F5F8014B1C7410BDBE
:100AD0005445002010B5044610B97846F8F7EAF8F6
:100AE000E36F13B97846F8F7E5F8E36FD4E9251218
:100AF0002046BDE81040184710B5037813F0FC0FEE
:100B0000044602D07846F8F7D5F8237803F0FE03C0
:100B1000022B02BFA37963F03F03A37110BD10B590
:100B200050F8202C1379013BDBB2FD2B04460BD986
:100B3000836D4BB11368C0E91C315C30FBF7F0FFEB
:100B400010B17846F8F7B6F854F8201C0B7943B981
:100B500044F8203C04F138000439BDE81040F9F7AE
:100B600056BD10BD38B5054607480C46FBF754FB8B
:100B7000B0FBF4F101FB1404FBF752FA011928460B
:100B8000BDE83840FBF723BA90450020F7B50023B5
:100B90000B650B780C46002B4AD091F84030002BA7
:100BA00033D1CB6F002B2AD104F15C05002663689A
:100BB000002B3FD01B79FF2B04D12846F9F70CFD01
:100BC000002837D163681B79002B33D094F8783034
:100BD000002B5FD165682B7913B97846F8F76AF86E
:100BE0002B79FF2B1CBF03F1FF332B7104F108009D
:100BF00000F0FCFC48B17846F8F75CF805E001F13C
:100C00008000FBF7AFFF0028CED094F84430256F6A
:100C1000022B02D07846F8F74DF82048FBF7FCFA93
:100C200042F21073B0FBF3F202FB1300284420657C
:100C300003B0F0BD616821B104392846F9F7E7FC3B
:100C4000666001A92846F9F780FC0028F0D1019BD5
:100C50001A1D0C3362606362A9E73846FBF7DCFAC1
:100C600094F87730B0FBF3F202FB1300C3B2AB424F
:100C700009D02544204495F8743090F8742085F804
:100C8000742080F87430013694F87730F5B2AB42B6
:100C9000E3D89FE70026014FF6E700BF904500200C
:100CA0000148FBF7EDBA00BF9045002010B503786E
:100CB00004467BB901230370436833B1216F04F10B
:100CC0004400BDE81040FFF74DBF5C30F9F76AFC07
:100CD0000028F3D110BD002300F8443BFBF760B9B6
:100CE0002DE9F3410D46064610B97846F7F7E2FFC5
:100CF0001F2D02D97846F7F7DDFF05F1110292B2F8
:100D000001A906F15C00F9F79EFB8046E0B9019C61
:100D1000237B022262F3030306352373657396F87F
:100D20006830227B5B0863F38612227306F1690147
:100D3000062204F10F000DF02EFD271DC4F80480DB
:100D4000384602B0BDE8F081042802D07846F7F7B3
:100D5000B1FF0027F4E738B505460C4601B110B9DC
:100D60007846F7F7A7FF237913B97846F7F7A2FF7C
:100D7000237A03F0CF036FF3C713237221460023B6
:100D8000A37231F8042D05F15C00F9F7ADFB2B7867
:100D90004BB195F8443033B9296F05F14400BDE8F3
:100DA0003840FFF7DFBE38BD38B504460D4601B107
:100DB00010B97846F7F77EFF291F04F15C00BDE803
:100DC0003840F9F724BC70B50D46044600B111B99E
:100DD0007846F7F76FFF2B7813F0FC0F02D07846B8
:100DE000F7F768FFEFF3108672B6683407222946DA
:100DF00020460DF0D0FC2046FFF77EFE06B962B615
:100E000070BD38B50D46044610B97846F7F752FF65
:100E1000132D03D87846F7F74DFF02E0B5F5205FB4
:100E2000F8D84FF47A7194F84430694321673BB1A4
:100E300023782BB104F14400BDE83840FFF792BE9F
:100E400038BD38B50D46044610B97846F7F732FF7D
:100E500084F8285038BD10B504465C30F9F7CBFA59
:100E6000EFF3108272B663680BB10021197102B9F9
:100E700062B610BD10B54FF080530446D3F8A020E1
:100E80000378094912F0010214BF62F347036FF3BC
:100E900047030370062201300DF07DFC2046BDE8BB
:100EA0001040FFF729BE00BFA4000010F8B50D46A2
:100EB00016461F46044600B112B97846F7F7FAFE07
:100EC0000A2F02D87846F7F7F5FEBAB2314604F198
:100ED0005C00F9F73AFA04F16800FFF7CBFF144B16
:100EE000E56744F62062C4E91C23124A22632522E6
:100EF0006285032284F82C2084F83C200E4A626329
:100F0000002304F174010D4A84F8783084F8283005
:100F1000A1636362E264646523703DB1224604F11B
:100F200080000749BDE8F840FBF7E2BDF8BD00BF0F
:100F300025262703D6BE898E1F0B03008D0B0300C9
:100F4000D50A0300034A136813B100211160184742
:100F5000704700BFB445002008B50848FAF753FEB3
:100F600048B9074B186818B1064B187880F0010093
:100F700000F0010008BD0120FAE700BFA4450020F1
:100F8000B8450020A04500201C4B10B501214FF0B2
:100F9000FF321B4C59604FF48060D960C3F80823BE
:100FA0000022C3F80022C4F880010424C3F84021C1
:100FB000C3F84015C3F81045C3F80425114CC3F815
:100FC0000825114AC2F86045A4F50354383CC2F81C
:100FD0006445C2F804051960D3F840110029FBD01C
:100FE0000021C3F840114FF48061C2F80815074A88
:100FF000D2F84805D3F84035C01A10BD00A0004013
:1010000000E100E040A1004000F00140008000400D
:10101000F8B5FBF7F3FA00286BD13648FAF7F3FD81
:10102000054680B10468FBF703FB0646FBF7FAFAB6
:10103000002C40D0E3686433984206D20120BDE81A
:10104000F840FBF73BBB0446EDE79E4233D92A4EFE
:1010500033781BB100F010FD002333702548FAF7F8
:10106000BFFD854202D07846F7F724FE0025012017
:101070006561FBF735FB214B214F1C60214B224E54
:101080004FF0FF32C3F80823204B0222C3F880211F
:10109000FFF77AFFE3681E4A216935700344136045
:1010A00001233B702368984733783D700BB3BDE84C
:1010B000F84000F02FB8B6F5FA7F1AD900F0B4FD69
:1010C00098B10D4B1A78A2B90E4A4FF0FF31C2F811
:1010D00008130E4A0221C2F8801101221A70FFF78C
:1010E00053FFBDE8F84000F0B3BCBDE8F840FBF7A3
:1010F000D7BAF8BDA4450020B1450020B84500206E
:10110000B045002000100040A045002000E100E0B4
:10111000AC45002008B5FBF72FFB0C4B1B68C01A31
:10112000002802DB7846F7F7C5FD0020FBF7D8FA68
:10113000074B00221A60074B1B781BB1BDE8084023
:10114000FBF7AEBABDE80840FFF762BFAC45002030
:10115000B8450020B245002038B5114C2268A2B134
:10116000936813B97846F7F7A5FD0E4D01232B7050
:1011700023689A681869904700232B700A4B1B78E4
:101180006BB1BDE83840FFF7C5BF084B1B7813B9FA
:101190007846F7F78FFDBDE8384000F017BD38BD41
:1011A000B8450020B0450020A0450020B1450020F2
:1011B00008B50948FAF7F0FC084A00231360084A0A
:1011C0001370084A01211170074A1370074A1370FF
:1011D000074A82F80A3308BDA4450020B84500201C
:1011E000B1450020B2450020B0450020A0450020B8
:1011F00000E100E038B50F4B1A7802F0FF04B2B9F5
:101200000D4A106001221A70FBF724FA054618B146
:10121000FBF734FA204606E0FBF728FA044618B13B
:10122000FBF73EFA284638BDFFF78CFEF2E70820B0
:10123000F9E700BFB2450020B445002008B5094BCE
:101240001B786BB900F0F0FC30B1FBF7B3F938B1A3
:10125000BDE80840FBF712BAFFF77EFE0028F4D184
:1012600008BD00BFB245002010B5054B1A782AB161
:1012700000241C70FFF7E2FF204610BD0820FCE7A9
:10128000B245002010B5044610B97846F7F712FDB4
:10129000236813B97846F7F70DFDE36813B978466C
:1012A000F7F708FDE2680E4B9A4202D97846F7F745
:1012B00001FD6369A34211D00A48646104F114017D
:1012C000FAF774FC084B1B7803F0FF0023B9074BB7
:1012D0001C6824B9FFF7B2FF002000E0082010BD11
:1012E00060850100A4450020B2450020B8450020DB
:1012F00010B50E4B1B6813B97846F7F7DBFCFBF70C
:10130000AFF910B97846F7F7D5FC094C227812B13D
:101310007846F7F7CFFC074B1B7813B101232370F6
:1013200010BDBDE81040FFF7F5BE00BFB845002076
:10133000A0450020B045002038B5FBF791F910B961
:101340007846F7F7B7FC144C2268A2B1536813B97A
:101350007846F7F7AFFC114D01232B7023685A68CC
:101360001869904700232B700D4B1B7893B1BDE893
:101370003840FFF7CFBE0B4B1B7813B97846F7F711
:1013800099FC00F081FB00F04FFC18B9BDE8384033
:10139000FBF786B938BD00BFB8450020B045002036
:1013A000A0450020B145002008B5FBF759F910B958
:1013B0007846F7F77FFC074B1B6853B9064B1B7841
:1013C0001BB1BDE80840FBF76BB9BDE80840FFF76B
:1013D0001FBE08BDB8450020B245002008B5FBF788
:1013E0003FF910B97846F7F765FC084B1B6813B155
:1013F0007846F7F75FFC064B4FF480621A600222D2
:101400001A60BDE80840FFF703BE00BFB8450020E2
:1014100000E100E038B5FBF723F910B97846F7F79B
:1014200049FC134B1B6813B17846F7F743FC114C8A
:1014300023781BB100F020FB002323700E4B0F4DCF
:1014400001214FF0FF3400225960D960C3F80843EE
:10145000C3F800220A4A4FF48060C2F88001C5F840
:1014600008430224C2F880411961C2F8800038BDE7
:10147000B8450020B145002000A000400010004009
:1014800000E100E0024B1B780BB1FFF75BBD70473A
:10149000B245002070B5244CD4F81031054613B97C
:1014A0007846F7F707FC214E0023C4F81031337853
:1014B0000133337000F03EFD95F8342033789A42C2
:1014C0001DD21B4BD3F840651A4B19680E44FBF72D
:1014D00053F9EB6A0446314605F11C009847FBF7C7
:1014E0004BF9001B502802D47846F7F7E3FB00F0D5
:1014F00055FDFFF7FDFE002385F8383070BD0DD98E
:101500002A6BD05C00F020F9074BD3F81031002B88
:10151000F4D07846BDE87040F7F7CCBB0323C4F89D
:10152000003200F015FDEFE700100040C04500203C
:1015300000A00040BC450020F8B5264A264B274FA6
:10154000C3F8602502F50F423C32C3F864254FF41E
:1015500080620D46C3F80425044600F0D5F805F175
:10156000200000F005F90021A86A00F047F92B6B74
:10157000187800F0E9F8012620463E70FBF750F994
:10158000174B184C1860EB69C4F804350023C4F8F5
:1015900010311023C4F80433134B5E642660D3F873
:1015A00044053146304400F069FC95F83430B342CC
:1015B00009D90723C4F800323B782A6BD05CBDE818
:1015C000F84000F0C1B80323C4F80032BDE8F84089
:1015D00000F0BEBC0411004000F00140C0450020F6
:1015E000BC4500200010004000A0004010B5C36AB8
:1015F000044613B97846F7F75DFB94F838301BBB07
:10160000124B2360124B6360E36994F824105878FE
:1016100094F83420042900F10A0308BF00F10B03F9
:101620000C48415C4B432E3353439833C4E9033495
:10163000012384F838302046FFF724FE18B178469D
:10164000F7F738FB002010BD1120FCE73915030027
:101650009514030030F5030010B5044610B9784620
:10166000F7F728FB636813B97846F7F723FB23786D
:10167000012B02D97846F7F71DFB2078044B04F1C3
:101680000C0103EBC000BDE81040FCF740BA00BFFE
:10169000C445002010B5044610B97846F7F70AFB98
:1016A0002378012B02D97846F7F704FB2078044B06
:1016B00004F10C0103EBC000BDE81040FCF748BA90
:1016C000C4450020F8B506460F4611B97846F7F72D
:1016D000F1FA012E02D97846F7F7ECFA094C54F8E2
:1016E000365035B904EBC6004368013343602846E1
:1016F000F8BD55E90231384698470028F8D12D68E1
:10170000EFE700BFC44500200D4B0022C3F8FC2FBB
:101710000122C3F8FC2F40F25B62C3F8382540F287
:101720000312C3F83425074AC3F83C259622C3F8B0
:101730004425D3F8502642F00102C3F850267047E2
:101740000010004055555500272810B5044602D911
:101750007846F7F7AFFA044B1A5D044BC3F8082537
:10176000C3F8544510BD00BF36F50300001000401B
:1017700010B5044610B97846F7F79CFA2379052B83
:1017800002D97846F7F796FA638813B97846F7F7DF
:1017900091FA63880233B3F5817F02D97846F7F76F
:1017A00089FA154B2278C3F80C252279C3F8102545
:1017B000A27842F0007242F44032C3F818256288E1
:1017C000252A8CBF08220622C2F1080142F4807249
:1017D00042EA0142C3F81425D3F8142542F48012DA
:1017E000C3F814252279042A02BFD3F8142542F045
:1017F0008072C3F8142510BD0010004070B5124D62
:10180000D5F81835C3F30243032B04460E4602D025
:101810007846F7F74FFA36B1012E0BD07846BDE87F
:101820007040F7F747BA230E2402C5F82435C5F8EF
:101830001C4570BD230C044A03F47F432402C2F804
:101840002435C2F82045F4E700100040EFF3108380
:1018500072B6054A52781AB1044A0221C2F8001140
:1018600003B962B6704700BFD445002000E100E034
:10187000024B00221A71FFF7E9BF00BFD4450020D8
:10188000074B5A7993F82F100132D2B291425A7114
:101890009CBF00225A7102221A71FFF7D7BF00BF06
:1018A000D4450020F8B5194D194EFFF72DFF00243F
:1018B0001848FFF75DFF0127C5F8304556F8040FBB
:1018C00048B12146FFF79AFFD5F8302507FA04F30F
:1018D0001343C5F830350134082CEFD10B4B1122DE
:1018E000C3F80443C3F800220022C3F8042103F51F
:1018F000F033094AC3F8602502F5DE424432C3F8EA
:1019000064254FF48062C3F80425F8BD0010004040
:1019100000460020F04500200411004010B50F4C97
:10192000A36813B17846F7F7C5F90D493C2201F1D8
:101930007C00F8F788FD031E09BFA268A269094967
:10194000183213BF0132C1F804250120002018BF4E
:10195000A261003318BF0123A37010BDD44500203D
:10196000DC4500200010004038B5194BD3F8503545
:1019700013B17846F7F79EF9164D6B792B4493F81F
:101980002C00FFF7E1FEEB781BB1FFF78BFF002384
:10199000EB70FFF7C3FFB8B10F4C0D4B0121616431
:1019A0005960D4F84405084400F096FA00F0D0FAE3
:1019B0000023C4F84431094B4FF48062C3F88021FE
:1019C0004FF40033C4F8043301232B7138BD00BF3A
:1019D00000100040D445002000A0004000E100E0DD
:1019E00070B50B4C0B4D012200262261C4F80C612E
:1019F000A96821B105F18400F8F709FEAE60D4F8BA
:101A00005035002BFBD1BDE8704000F0C7BA00BFD5
:101A100000100040D445002010B5FAF701FB044641
:101A20000948D0E909138B4208D16830FAF7B8FAAF
:101A300021460648BDE81040FAF7C9BA214468308B
:101A4000FAF7C5FAF4E700BFD44500202446002089
:101A500010B5084C012363700023E370FFF722FFE9
:101A60002378022B05D123791BB1BDE81040FFF785
:101A70007BBF10BDD4450020024B00225A70FFF7F7
:101A8000AFBF00BFD4450020F8B54C4B4C4CD3F849
:101A90000C21002A50D00022C3F80C21D3F80C21CD
:101AA000D3F80024A56822B92369013323612946AC
:101AB00055E0697EE28B914248D8D3F848255242DE
:101AC0006A73D3F8082404EB82022E1D126BAA60FD
:101AD000D3F8543503F03F032B733A4BD3F84875D2
:101AE0003846FAF79DFE0622686005F11B0105F1F4
:101AF0000F000CF050FE2B7EAA7BC3F3801161F324
:101B00004702AA73C3F303036B75E3680133E36011
:101B1000D4F89032F3B931460020FFF7D3FDE8B98D
:101B20006A7E2948A1681732F8F7DEFCD4F88000F5
:101B3000FAF7BCFF0023A3602378012B13D0022BFC
:101B400015D07846BDE8F840F7F7B4B863690133BB
:101B50006361ACE7394630469847DCE7A1681A482C
:101B6000F8F755FDE6E7BDE8F840FFF739BF134B3E
:101B7000D3F85035032BE4D8DFE803F002190A1933
:101B800023799BB1022BDCD8BDE8F840FFF7ECBE0F
:101B90002479012C05D0E6D3022CD2D1FFF720FF07
:101BA000F2E7FFF7BBFE08B1044B9C60F8BD237958
:101BB000012BFBD0D7D3022BEFE700BF0010004072
:101BC000D4450020008000405846002010B50A4C43
:101BD000D4F8443113B97846F7F76CF84FF4003372
:101BE000C4F808330023C4F84431D4F84431BDE8C4
:101BF000104000F09FB900BF00A0004010B5094C94
:101C0000237813B97846F7F755F82378012B07D1D5
:101C1000FFF702FF02232370BDE81040FFF70EBB61
:101C200010BD00BFD4450020024B1878831E5842D7
:101C300058417047D445002038B5054610B978465C
:101C4000F7F738F8064C291F04F18400F8F7DFFC99
:101C5000A3781BB1BDE83840FFF7F8BD38BD00BF21
:101C6000D445002013B50B4C01A92046F8F76DFCB4
:101C700008B100200BE0019901200431FFF722FD9B
:101C8000019B18B1181DFFF7D7FFEDE7181D02B033
:101C900010BD00BF584600200148F8F783BC00BFC4
:101CA00058460020884238B504460D4602D2784690
:101CB000F7F700F80C4B9C4202D97846F6F7FAFF8A
:101CC00040F6B7339D4202D87846F6F7F3FF074B4C
:101CD000C3E909545C67DC651B78022B03D1BDE8BE
:101CE0003840FFF799BE38BD00007102D44500208E
:101CF0004B1E022B70B506460C4602D97846F6F705
:101D0000D9FF3246931BDBB29C420AD912F8013B41
:101D1000252BF7D0262BF5D0272BF3D07846F6F7D6
:101D2000C9FF064D2246314605F12C000CF033FD6B
:101D300000236B7185F82F4070BD00BFD445002093
:101D40004B1E072B70B506460D4602D97846F6F7AE
:101D5000B1FF084C2022002104F130000CF026FDD8
:101D6000AA00314604F130000CF015FD0123E370A8
:101D700070BD00BFD445002007B50F4B68461A88D8
:101D80009B78ADF8002003218DF80230FFF7B0FFFB
:101D900002A80A4B40F8043D0121FFF7D1FF084B90
:101DA0000849032283F8202008460122DA70FFF751
:101DB00079FF03B05DF804FB5EF50300D6BE898EA3
:101DC000D445002080841E0038B5114C05464FF4E0
:101DD0002572002120460CF0E9FC4FF4007204F15A
:101DE000900104F18400F8F7B0FAFFF7C5FF002373
:101DF00023772523E383074B2367074BA3652846F7
:101E0000012323702371FAF733FEC4F8800038BD34
:101E1000D445002071180300811803000278D3070D
:101E20000DD59108012312F0020F03FA01F34FF0D0
:101E3000A04202D0C2F80C357047C2F8083570478E
:101E4000002303600B4B99781B79CA0002F1804292
:101E50009B0002F5F83203F1804303F5C043C2F85A
:101E60001005C2F814350123034A8B40C2F804352B
:101E7000704700BF6848002000F0014038B5114BA2
:101E80005A7905460C46E2B11A78D10719D59978E6
:101E90000D4B0E4812F0020F18BF4FF003139208BB
:101EA00043EA022301F5A272094900EB840041F8DC
:101EB0002230FFF7C5FF04F5A874064B163543F82A
:101EC000245038BD684800200300130040A10040A2
:101ED0000060004000A0004038B5114B5A7905461B
:101EE0000C46E2B15A78D10719D599780D4B0E48B6
:101EF00012F0020F18BF4FF00313920843EA0223B7
:101F000001F5A272094900EB840041F82230FFF785
:101F100097FF04F5A874064B163543F8245038BDD6
:101F2000684800200300130040A10040006000400A
:101F300000A00040044B5A792AB19A7801239340BB
:101F4000024AC2F8083570476848002000F0014096
:101F50000F494B79D3B10F4B0022C3F81021C87839
:101F6000C20002F1804202F5F83203F58873C2F82C
:101F700010350B799B0003F1804303F5C043C2F891
:101F800014350123044A8340C2F80435704700BF6A
:101F9000684800200010004000F0014010B50F4CD0
:101FA0006379CBB1E178A378012202FA03F38A4086
:101FB00013430B4AC2F808352379A2F5C83203F55A
:101FC000A2730021204642F82310FFF727FF601C70
:101FD000BDE81040FFF722BF10BD00BF68480020D9
:101FE00000F0014076DF70477FDF70478FDF70477A
:101FF00090DF7047A8DF7047AADF7047AEDF7047F9
:10200000B1DF7047B5DF704708B508881321FFF7C7
:10201000E9FF30F0080304D07846BDE80840F6F741
:1020200049BE08BDF0B50E468FB01746054600B153
:1020300011B97846F6F73EFE484CFF2384F84D313F
:10204000474BC4F8583104F11C03C4F86031D8225E
:10205000444BE361002104F12C000CF0A7FBD822D3
:1020600004F12C0104F12000F8F76FF9062229464B
:1020700020460CF090FBA66101AE2B88ADF8043031
:102080000120A21D31468DF80600FFF7B3FF10B105
:102090007846F6F70FFE1C22AB88ADF8043000211D
:1020A0000DEB02000CF082FB9DF81C30032243F084
:1020B0000403002168468DF81C300CF077FB9DF876
:1020C0000030012262F3030362F307138DF800303E
:1020D0009DF8013062F3030362F307138DF80130BA
:1020E0009DF8023062F3420303F0E703134300213B
:1020F000142202A88DF802300CF058FB0023422273
:102100000493ADF81420069302AA174BE0880296B8
:1021100007A9CDF80CD0FFF76FFF10B17846F6F79E
:10212000C9FD1C226B88ADF8043000210DEB0200C4
:102130000CF03CFB9DF81C30E08843F010038DF858
:102140001C3002AA094B07A9FFF756FF10B17846C9
:10215000F6F7B0FDC4F868710FB0F0BD704800200C
:1021600009200300FFFF1400804800207848002069
:10217000F7B50E4615461F46044610B17846F6F7E9
:1021800099FD032E02D97846F6F794FD422D02D927
:102190007846F6F78FFD14484FF4A6736343C218D0
:1021A000918B4FF6FF72914202D1002003B0F0BD37
:1021B00002A90024AA1D203341F8044D92B218440C
:1021C000F8F741F948B90198437A4760013566F359
:1021D0000503057243720A30E8E70428E5D0784623
:1021E000F6F768FD2046E1E77048002070B5044628
:1021F0000E4611B97846F6F75DFD14B17846F6F74C
:1022000059FD0C4D4FF4A67303FB04539A8B4FF604
:10221000FF739A4202D17846F6F74CFD4FF4A67050
:1022200000FB0450A6F10A012030BDE87040F8F729
:10223000EEB900BF70480020064A08B54FF4A673F7
:1022400003FB00202030F8F71CFA80F00100C0B238
:1022500008BD00BF7048002070B5064610B1784632
:10226000F6F728FD4FF4A6757543064C05F5A870E2
:1022700020442C44F9F794FEA08B1321BDE8704054
:10228000FFF7B0BE704800202DE9F04F594E4FF4D3
:10229000A67303FB006387B0D3F80471054617B932
:1022A0007846F6F707FD4FF4A67303FB056393F832
:1022B00008213B7A9A4202D37846F6F7FBFC4FF4AA
:1022C000A67303FB05633C7A93F80821DB8B002A95
:1022D0005DD1A3422CBF4FF000084FF0010808F178
:1022E000FF395FFA89F9B9F1010F59D9B8F1000F37
:1022F00002D0B8F1030F55D1A41AA4B2A34202D25E
:102300007846F6F7D7FC4FF4A67A0AFB056A04373D
:102310009AF8083105330021FA5C68F38712FA5401
:1023200002A8102207EB030B0CF040FA3389ADF83A
:1023300008300DF10603049302A90123BAF81C002A
:102340008DF80A30ADF80640CDF814B0FFF756FE10
:1023500043F20143984212D100231A461946BAF8B3
:102360001C00FFF74DFE10B17846F6F7A3FC4FF4C2
:10237000A67303FB056302A9988BFFF73FFE0828AD
:1023800012D12846FFF768FF07B0BDE8F08FA4EB35
:1023900002089845CCBF4FF002084FF003089EE7B3
:1023A0001C46B0E70024AEE71328EDD018B9BDF8FD
:1023B0000630A34202D07846F6F77CFC4FF4A673B1
:1023C00003FB0563B9F1010F93F8081101F1FF3325
:1023D0001C44E4B206D80531601D0122394438445A
:1023E0000CF0D9F94FF4A67303FB056585F8084195
:1023F000CAE700BF704800202DE9F04180460E4634
:1024000011B97846F6F756FCB8F1000F02D07846BD
:10241000F6F750FC194D4FF4A67404FB08F42B1981
:102420009A8B4FF6FF739A4226D0314604F120076B
:102430002F44384631F80A2DF8F756F83846F8F7A1
:10244000B1F8B8B104F5827129443846F8F77DF83F
:1024500010B17846F6F72EFC4FF4A67303FB08552F
:10246000D5F8043113B97846F6F724FC4046FFF757
:102470000BFF0020BDE8F0810820FBE7704800203A
:10248000F0B50388232B89B0044600F0628114D88C
:10249000112B00F0918003D8102B74D009B0F0BD3F
:1024A000132B00F06781212BF8D108A9002321F814
:1024B000103D8088FFF79AFD55E1522B00F04281D4
:1024C00017D8262B00F0A680502BE7D1B84D838873
:1024D000AA8B9A42E2D1C388AA899A4240F0AB8083
:1024E000028A022A40F0A780837CDA07D6D505232A
:1024F00059E0552B00F04581572BCFD1AC4B81884B
:102500009A8B91421C46C9D1D3F80451002DC5D0F5
:1025100093F808212B7A013B9A4230D1294604F1E5
:102520002000F8F774F800230122C4F8043184F87D
:1025300008318DF810208DF811306B7AD4F86811BD
:10254000C3F305038DF818306B68059304A8A369DD
:10255000984704F12000F8F725F800289ED004F5EC
:102560008271A1F1E400F7F7F0FF10B17846F6F7B9
:10257000A1FBD4F8043113B97846F6F79BFB002091
:10258000FFF782FE8AE78A4DAA8B4FF6FF739A42C5
:1025900084D18388AB83D82205F12C0105F120007A
:1025A000F7F7D3FE03238DF8103000238DF8113098
:1025B000AB69D5F868112AE07D4B81889A8B9142EE
:1025C0001C467FF46BAF03F5A870F9F7E9FCD4F86B
:1025D00004110025FF2384F84E5184F84D3139B1A0
:1025E00004F12000F8F713F8C4F8045184F80851F6
:1025F0007048F7F700FF4FF6FF73A38304238DF8AD
:10260000103000238DF81130D4F86811A36904A8A4
:10261000984743E7037A012B7FF440AF02238DF8FC
:10262000103083888DF81130614B04A89A69D3F873
:102630006811904732E72A8A9A427FF42FAF268AA0
:10264000012E1AD995F84E01C0F142039E4214D8CA
:10265000A37C03F03F03032B0FD895F84D21934241
:1026600001D0FF2A09D1A37C013EB6B29A09002805
:1026700045D0022A05D0032A1AD00020FFF7ECFD2E
:102680000CE7F9F7CDFC4C4901444C48F9F79FFCA5
:1026900095F84E0100F58670324604F11301284486
:1026A0000CF079F895F84E311E4485F84E61F5E648
:1026B00000F58670324604F1130128440CF06BF8E3
:1026C00095F84D318DF8143095F84E313C4FD5F8D2
:1026D0006811069700241E4404A8AB698DF81040C9
:1026E0008DF81140ADF81C60984707F14400F9F7E8
:1026F00057FCFF2385F84E4185F84D31CEE6A2B157
:10270000012ABAD1F9F78CFC2B4901442B48F9F77F
:102710005EFC324604F1130129480CF03CF8A37C1E
:10272000C3F3050385F84D31BFE7C3F30503133445
:102730008DF810008DF811008DF814300694ADF866
:102740001C6035E700231A4619468088FFF758FCBD
:10275000A4E60822002104A80CF028F8002204A90D
:10276000A088FFF745FC00283FF498AE7846F6F7BE
:10277000A1FA93E600231A4685218088FFF734FCEE
:10278000F1E70B4BA288988B82427FF487AEE588F5
:10279000162D0BD9442D94BF2C4645242146FFF716
:1027A00031FC064670B9033CDC8377E61724F5E775
:1027B0007048002090480020002D3101C0490020C1
:1027C0007C490020154B1B689B067FF567AE144BB8
:1027D0001B68012B7FF762AE2F2112480CF0B6F870
:1027E00090B12F210F480CF0B1F8411C0E4B0F4A4D
:1027F000D3F804350092CDE90254019640F21B2231
:102800000220FBF71FFA49E65C2106480CF09EF80F
:1028100008B15C21E6E70349E8E700BF542E002039
:10282000502E002061F50300001001407EF50300EA
:10283000014B93F8440070475C4A0020024B1B7820
:102840000B7082B002B070476C2E0020024B82B039
:1028500001221A7002B070476C2E002010B5C36CB4
:10286000044613B97846F6F725FA0648064BE16C9C
:10287000201A8010584380B2FFF7B8FC0023E364AD
:1028800010BD00BF5C4A0020A737BDE910B5044663
:1028900010B97846F6F70EFAA4F15000BDE81040E2
:1028A000FFF7DCBF38B5C36C054613B97846F6F7B9
:1028B00001FA094CE96C2C1BA310084C5C43A4B230
:1028C0002046FFF799FD18B1E96C2046FFF78EFC12
:1028D0000023EB6438BD00BF5C4A0020A737BDE988
:1028E000F8B50D461746044600B111B97846F6F71B
:1028F000E1F954F8043CA4F1500613B97846F6F710
:10290000D9F93A46294654F8040C0BF044FF3046F6
:10291000BDE8F840FFF7C6BF2DE9F0419846C36C0B
:1029200004460E46174613B17846F6F7C3F9094830
:10293000094D201A801068434346BAB2314680B22E
:10294000FFF716FC0028E0640CBF04200020BDE85F
:10295000F08100BF5C4A0020A737BDE938B50D46BD
:10296000044600B111B97846F6F7A4F914F80C3C06
:102970000BB9012038BDAB68503C5988204600F0A7
:1029800035FE0028F5D0EB686A6800212046FFF785
:10299000C3FF00280CBF00200220EBE770B5274BD7
:1029A000DC6993F820208EB00CB1A2B908345D78B0
:1029B0009DB90EAE082206F8145D04F110010DF168
:1029C00025000BF0E8FE0922314641F62800F5F714
:1029D000A1F90EB070BD3034E9E7012DF9D10DF148
:1029E0000201684607F0A4FDBDF800600622002140
:1029F00001A80BF0DBFE08210DF10A00F9F71EFC1F
:102A0000330A43EA062305AA01A904F11800ADF828
:102A10001230FAF75FF9082207A90DF125008DF8A9
:102A200024500BF0B8FE08220DF10A010DF12D0023
:102A30000BF0B1FE112209A9C7E700BFDC49002055
:102A400010B5034C201DF9F7ABFA0023237010BD1D
:102A5000DC490020034B93F8440010B10020FFF73D
:102A6000EBBB70475C4A002013B50B4C00200DF106
:102A7000070204F11C0107F045FCE06950B90DF1B3
:102A8000070204F11C0107F03DFCE36913B9784625
:102A9000F6F710F902B010BDDC49002008B5FFF7C9
:102AA000E3FFBDE80840FFF779BF000070B5144CA4
:102AB0002278607005460E460AB1F5F7BDF9AEB151
:102AC000FFF7D2FFF9F7ACFA216901440D48F9F795
:102AD0007EFA7DB94FF448612846F5F789F9FFF78A
:102AE0005DFFF5F799F90123237070BD0548F9F7EB
:102AF00057FAEEE74FF4A0714EF66020EDE700BF05
:102B0000DC490020E049002013B50C4B0C78019003
:102B1000187824B178B901221A7002B010BD50B1F2
:102B20001C70074B18780028F7D0F5F785F9FFF7E8
:102B300087FF2046F1E70820EFE700BF6C2E00205A
:102B4000DC4900202DE9F743124D95F84440064634
:102B50000F4690469946B4B100231622012128461B
:102B6000FFF7DAFE044690B9EB6C009342464B4601
:102B700039463046FCF758FE10B17846F6F79AF819
:102B80000448FFF78FFE204603B0BDE8F08304241D
:102B9000F9E700BF5C4A002010B50378042B044617
:102BA00015D1C3681B78012B11D001690848FAF7C9
:102BB00068FF60B9637E227E6169A068FFF7C2FF8B
:102BC00028B921690248BDE81040FAF77ABF10BD64
:102BD000004A002037B5154B1549186800900022AF
:102BE0009B88ADF804306846FFF71CFA1148124B79
:102BF0000360F8F7B3FF1148114C08238360114BB1
:102C0000036004234360FAF72DFF0F4B0F4ADA608D
:102C10000F4A1A61002502220E491D7004F150006E
:102C2000FCF782F984F8445003B030BDC2F50300CC
:102C3000952D0300B84A0020992B0300004A00207C
:102C40005C4A00201C4A0020DC4900209D2A030029
:102C500080969800A8F6030010B50B4B1B7863B163
:102C60000A490A785AB9FFF7E3FD044648B9C86132
:102C70000121FFF71BFF204610BD0824FBE70024BD
:102C8000F9E71446F7E700BF6C2E0020DC4900206E
:102C900037B50C4611B97846F6F70CF800230DF15C
:102CA000030201A92046019307F02CFB019B13B9F5
:102CB0007846F5F7FFFF019C9DF803300CB18BB906
:102CC0000834F8F7F1FA0546F8F70AFB9DF80330E7
:102CD0009A1E53425341294602462046FFF732FFCF
:102CE00003B030BD3034ECE710B40A78012A044652
:102CF00014D10B890B485C2101FB030090F8443090
:102D000063B190F8423004F108011BB95DF8044B3F
:102D100000F01ABC5DF8044B00F040BC5DF8044BB9
:102D2000704700BF5C4A0020084B1B7853B1084A2B
:102D300013783BB15378012B06D118B1D3691A1A15
:102D400053425341184670470023FBE76C2E002086
:102D5000DC490020014B1878704700BF6C2E002022
:102D600008B5044B187820B1FFF762FD003018BF9A
:102D7000012008BD6C2E002010B5054C94F844309D
:102D80002BB10020FFF768FA002384F8443010BD0F
:102D90005C4A00202DE9F04F7F4947787F4D0B6852
:102DA00002785C2417FB04F4B3B080462E1903F0BC
:102DB00001038946052A00F20183DFE812F00301CE
:102DC0009302D402060047008F00BBB1744B1B680E
:102DD000032B13DD2F2173480BF0B8FD68B32F21AF
:102DE00070480BF0B3FD411C6F4B704AD3F80435AB
:102DF0000092042040F25522FAF724FFFFF720FE4C
:102E00005C2303FB0757012387F84430304600F06A
:102E10007DFB002004F1450204F14801B8642A4416
:102E2000294407F06FFAFFF703FD18B901210020CC
:102E3000FFF73CFE33B0BDE8F08F5C2159480BF042
:102E400085FD08B15C21CBE75649CDE7C3B1544BB2
:102E50001B68032B14DD2F2152480BF077FD00284F
:102E600033D02F214F480BF071FD411C4E4B504A7F
:102E7000D3F804350092042040F26522FAF7E2FE0E
:102E80005C2303FB0755002385F84430494B1B782E
:102E900033B1494B187818B90121D861FFF706FE04
:102EA000464A1378002BC5D0FFF7C2FC0146002824
:102EB000C0D110702C2221A80BF078FC1B2321A874
:102EC0008DF88430F7F7D0F9B4E75C2135480BF082
:102ED0003DFD08B15C21C5E73249C7E7C3B1304BBE
:102EE0001B68032B14DD2F212E480BF02FFD00282B
:102EF00046D02F212B480BF029FD411C2A4B304A8C
:102F0000D3F804350092042040F27B22FAF79AFEAF
:102F100004F148085C234534A8442C4403FB0755BE
:102F2000AF6C002F86D095F8453093BB0837F8F783
:102F3000BBF98146F8F7D4F9002382461622012115
:102F4000304695F845B0FFF7E7FC00287FF472AFF4
:102F5000EB6C00931BF1000318BF01235246494656
:102F60003846FCF761FC10B17846F5F7A3FE304611
:102F7000FFF798FC22464146002007F0C3F9CFE74F
:102F80005C2108480BF0E2FC08B15C21B2E705497E
:102F9000B4E73037CBE700BF542E00205C4A002056
:102FA000502E0020CCF5030000100140E5F5030091
:102FB000F0F503006C2E0020DC490020C54A0020FB
:102FC000FEF50300CBB1BF4B1B68032B15DD2F2192
:102FD000BD480BF0BBFC002800F08D802F21BA48C3
:102FE0000BF0B4FC411CB94BB94AD3F8043500923C
:102FF00004204FF42072FAF725FE1822002105A8BC
:1030000098F804A0D8F80840B8F80C800BF0CEFB74
:1030100001238DF81430F9F703F8731B9A10AD4BA8
:1030200006905343ADF81C30D9F80030DA071AD5B2
:10303000A44B1B68032B16DD2F21A3480BF086FC45
:10304000002861D02F21A0480BF080FC411C9F4B31
:10305000A14AD3F804350092CDE901A840F23B2201
:103060000420FAF7EFFDBAF1010F5CD055D3BAF1A5
:10307000020F7FF4DFAE08F1FF33412B00F2F7803F
:1030800001230093224621AB41460BA8FAF7D8FA58
:103090000446002840F0C3809DF83730002B00F034
:1030A000BE809DF83630002B40F0B980BDF82E3040
:1030B000002B40F0B48021A8FAF7AAFB81464146D4
:1030C0000BA8FAF79BFB99F80030012B00F1FF32B7
:1030D00073D02FD3022B7FF4ADAE402A3FF6AAAEB9
:1030E000D0073FF5A7AE520811A9A2427ED13046C3
:1030F00000F054FA29E05C2173480BF027FC08B17A
:103100005C216CE770496EE75C216F480BF01EFC98
:1031100008B15C2197E76C4999E705AA414620462A
:10312000FAF724F886E605AA5FFA88F12046FBF74D
:103130006BFD7FE6012A7FF47DAE99F801103046E1
:1031400000F0F0F900287FF475AE0023152202216B
:103150003046109CFFF7E0FB804600287FF46AAE03
:103160005C2303FB0755E86CFAF752FB00283FF499
:1031700061AE0323037095F842304370B5F84020E8
:10318000130A43EA022343801822414611A801276B
:103190000BF00CFB8DF84F70F8F78CF80DF1120165
:1031A000CDE9150413A807F0C3F914A8F8F71AF825
:1031B00038B33046FFF752FB3CE6402A3FF63AAEC2
:1031C000D3073FF537AE520811A9A24203D13046CA
:1031D00000F0BAF9B9E709EB4403B3F80100030AB8
:1031E00043EA002321F814300134EEE709EB4403ED
:1031F000B3F80100030A43EA002321F81430013434
:1032000073E711A9E86CFAF7A4FA11A83B46EA6C37
:103210000421FAF75FFA3046FFF744FB0AE6D9F8D3
:103220000030D9077FF506AE264B1B68032B7FF7CE
:1032300001AE2F2124480BF089FB78B12F212248C1
:103240000BF084FB411C214B244AD3F80435009237
:10325000042040F22522FAF7F5FCEBE55C211A4840
:103260000BF074FB08B15C21E9E71749EBE7D9F8EB
:103270000030DA077FF5DEAD124B1B68012B7FF7BC
:10328000D9AD2F2110480BF061FB88B12F210E48DA
:103290000BF05CFB411C0D4B114AD3F80435009236
:1032A000CDF8048040F22A220220FAF7CBFCC1E5D7
:1032B0005C2105480BF04AFB08B15C21E7E70249B5
:1032C000E9E700BF502E0020CCF5030000100140BC
:1032D00008F60300A737BDE90CF603002BF6030040
:1032E0003EF60300BBB1484B1B68032B13DD2F21B7
:1032F00046480BF02BFB68B32F2144480BF026FB0C
:10330000411C434B434AD3F80435009204204FF448
:103310002272FAF797FC98F8083073B9D8F80410BD
:103320004B1C5E425E41F8F77BFE50340246D8F8F3
:10333000043031462819FBF7DDFD374B1B78002B95
:103340003FF478ADFFF786FB00287FF473ADFFF7FD
:1033500013FD6FE55C212D480BF0F8FA08B15C21F4
:10336000CBE72A49CDE7BBB1274B1B68032B13DD05
:103370002F2126480BF0EAFAB8B12F2123480BF091
:10338000E5FA411C224B254AD3F80435009204206B
:1033900040F2A122FAF756FC214B00221A70214B71
:1033A0001B78002B3FF446AD40E55C2117480BF03D
:1033B000CDFA08B15C21E1E71449E3E7002B3FF4C3
:1033C00039AD114B1B68012B7FF734AD2F210F480E
:1033D0000BF0BCFA78B12F210C480BF0B7FA411C66
:1033E0000B4B98F80020D3F8043501920E4A009256
:1033F00040F2AB2258E75C2104480BF0A7FA08B171
:103400005C21E9E70149EBE7502E0020CCF50300F1
:10341000001001406DF60300C54A00207AF6030053
:10342000DC4900206C2E002087F6030030B5164CD6
:1034300022788DB022B3154B1B781BB1F4F7FCFC3E
:10344000FFF7FEFA00252570FFF7F2F9044668B988
:1034500001462C2201A80BF0A9F91B2301A88DF825
:103460000430F6F701FF20460DB030BD084B0122B5
:103470001A70FFF7EFFA044620B9FFF77DFCF2E778
:103480000824F0E72C46EEE76C2E0020DC490020F3
:10349000C54A002010B50246FFF7CAF9044658B9DC
:1034A000064B83F82010B2FA82F149090120DA6153
:1034B000FFF7FCFA204610BD1124FBE7DC49002091
:1034C00010B50020FFF730FC68B1084B1C782CB118
:1034D00001210020FFF7EAFA002010BDF4F7ACFC50
:1034E000FFF7AEFAF8E70820F7E700BF6C2E0020E0
:1034F00007B5054B02A901F8010D1868FCF702FC9D
:1035000003B05DF804FB00BFC8F5030010B5044626
:1035100010B97846F5F7CEFB002384F84230A4F8C2
:10352000403010BD38B50D46044610B97846F5F761
:10353000C1FB012D06D82046FFF7E8FF84F8425072
:10354000002038BD0B20FCE7F8B50D4616460446B2
:1035500010B97846F5F7AEFB15B97846F5F7AAFB32
:103560000023B34203D0B4F840201F2A00D9F8BD8D
:1035700035F8131081B90133F3E734F810708F4236
:10358000F9D001309042F8D3511CA4F8401035F81E
:10359000131024F81210EEE70020F3E770B50C4684
:1035A0001646054610B97846F5F784FB14B97846F7
:1035B000F5F780FB214604EB4606B14215D0B5F87D
:1035C0004030002000E0013083420CD90C8835F8EF
:1035D00010209442F7D1013B9BB2A5F8403035F85A
:1035E000133025F810300231E7E770BD38B50D46CD
:1035F000044610B97846F5F75DFBB4F84020002387
:10360000934206D3002094F842300BB180F00100C1
:1036100038BD34F81310A94201D00133F0E701207E
:10362000F1E737B50C4609890023CDE9003321F0D5
:103630000203012B15460FD1636801291A788DF812
:1036400000200BD11B788DF801302B6B6A461B686C
:1036500004F10C012846984703B030BD5A78987899
:103660008DF8012000F0C8F80190EEE710B504468F
:1036700086B0F0B1036BE3B11A68D2B19A68C2B1F7
:10368000826A0AB90C4A82620C4A00920C4A02927F
:103690000122CDE90324ADF804109B68059321466F
:1036A000684603F095FF10B9208804F0E3F906B0EE
:1036B00010BD0E20FBE700BF80969800FFFF0110B1
:1036C000B4F60300F8B50E461546044600283DD072
:1036D00000293BD042B112681F4B9A4238D86A6821
:1036E00040F2FB439A4233D8208804F07DFE002844
:1036F00030D03378A3707378E370A71C25B32868A3
:1037000000F09AF82071686800F0C6F80423607130
:10371000A382124A94F82C30A37594F82D30E375E7
:10372000C4E90327F8F72CFA238823810C4BE361C3
:10373000A36A2362236BA0615B68636204F10800E3
:10374000BDE8F84004F0D4BE0223E1E70E20F8BD46
:103750000720FCE71120FAE780A037020282FFFF72
:103760000482FFFF2DE9F04115461E46044600285D
:103770003AD0002938D042B112681D4B9A4235D850
:103780006A6840F2FB439A4230D80B78A3704B78BA
:10379000E37004F10208EDB1286800F04DF82071E3
:1037A000686800F079F804236071124AA38294F8E3
:1037B0002C30A37594F82D30E375C4E90328F8F78D
:1037C000DFF904F10C07A06100250320AE4203D20B
:1037D000BDE8F0810223E8E73946208803F0D0FFF6
:1037E0000028F5D10135F1E70E20F1E70720EFE7DA
:1037F00080A037020382FFFF20F0C0033F2B16D0CA
:1038000000F0C00040280CD002D838B1002070472A
:10381000802809D0C028F9D1064800E06420584328
:1038200070474FF47A70FAE742F21070F7E74FF002
:10383000FF307047C027090041F63803984204D88A
:103840006423B0FBF3F0C0B270474FF230239842CC
:1038500006D84FF47A73B0FBF3F040F04000F2E783
:103860000A4B984206D842F21073B0FBF3F060F0B6
:103870007F00E8E7064B984205D8064BB0FBF3F013
:1038800060F03F00DFE73F20704700BFE0750900B0
:1038900080A03702C0270900FF289DBF0523B0FB89
:1038A000F3F0C0B2FF2070472DE9F04F0C468BB00B
:1038B000804600B111B97846F5F7FCF92388252B2D
:1038C00002D87846F5F7F6F959224FF42013CDE9DE
:1038D0000723002603230A2207A94046ADF8243017
:1038E000ADF80A600AF057FF0A232380B5B20DF144
:1038F0000E01284604F0BEFA10B17846F5F7DAF961
:103900000DF10F01284604F0C7FA10B17846F5F71B
:10391000D1F99DF80E309DF80F20D34243D003A972
:10392000284604F097FA10B17846F5F7C3F90AAAC9
:1039300004230DF1140922F81E3D4946284604F0DF
:1039400003FB10B17846F5F7B5F92088042203A9E6
:1039500040440AF020FF27889DF80E300437BFB29C
:1039600027806BB1BDF80A3001934FF0000A55462D
:103970004FF6FF7B019B9A451BD323881D4425806E
:103980009DF80F307BB12788BDF80A3001934FF0C6
:10399000000A474455464FF6FF7B019B9A4521D3C9
:1039A00023881D4425800136032E9FD10BB0BDE82E
:1039B000F08F04A939F81A0004F080FA10B17846A3
:1039C000F5F778F9BDF810205A4508D1E819022218
:1039D0000DF1120140440AF0DEFE0235ADB20AF1EB
:1039E000010AC7E704A939F81A0004F067FA10B110
:1039F0007846F5F75FF9BDF810205A450ED002223F
:103A000004A978190AF0C7FEA81C02220DF11201C0
:103A100017FA80F00AF0BFFE0435ADB20AF1010AD0
:103A2000BBE70000024B1B6803B11847704700BF9B
:103A3000C84A002013B5044601A805F02DFDBDF8C5
:103A40000400A04208D8201A80B24FF6FF73022863
:103A500088BF184602B010BD4FF6FF70FAE737B5C1
:103A60000446FBF7EBFC0546002301A8009305F094
:103A700013FD6946288A06F079FB30B9009B636024
:103A8000BDF80430238003B030BD0520FBE71FB52F
:103A90000193BDF81830ADF808300023ADF80020D0
:103AA0008DF80A304FF6FF720223ADF802208DF830
:103AB0000B306A46079B039303F08EFE05B05DF85A
:103AC00004FB7FB505460E46002003A98DF80800CB
:103AD000FCF7E9FE10B17846F5F7ECF89DF80D30EB
:103AE0009DF80820013B0A2104AC63F30202BDF8F3
:103AF0000E30B3FBF1F3013B63F3C70204F8082D6A
:103B0000F8F73EF801230190009348F2250223467E
:103B100031462846FFF7BBFF04B070BD7FB50B8967
:103B2000012B06460D4631D14C688DF804302378C0
:103B3000C3F3020301338DF805302378DA080A2332
:103B400002FB0333142BB8BF142301A90020ADF8E6
:103B50000630FCF797FE10B17846F5F7ABF8304623
:103B60002946FFF7AEFF0023CDE9023311238DF87C
:103B700008302378C3F302038DF80C30237802A8B1
:103B8000C3F3C4038DF80D30FFF74CFF04B070BDD4
:103B90000B890BB9FFF795BF7047000037B5044696
:103BA0000D46F7F7EDFF084B1860084B01221A701D
:103BB00000230190009348F24A0229462046FFF76D
:103BC00066FF03B030BD00BFD04A0020CC4A0020C1
:103BD00030B585B004460D468DF80C20ADF80D309B
:103BE000F7F7CEFF03230190009348F2440203ABA2
:103BF00029462046FFF74BFF05B030BD30B585B0F4
:103C000004460D46002303A90120ADF80830FCF757
:103C10004AFE10B17846F5F74DF89DF80C308DF856
:103C200008309DF80D309DF80920013B63F3020236
:103C3000BDF80E308DF80920142B15D1D2B212F038
:103C4000070111D161F3C7028DF80920F7F798FF3A
:103C500002230190009348F2280202AB2946204635
:103C6000FFF715FF05B030BD0A22B3FBF2F39DF854
:103C70000920013B63F3C702E6E77FB50B89022BFE
:103C800005460E463ED14C682378012B3AD803F006
:103C900001038DF804306378C3F3020301338DF818
:103CA0000530637883BB1423ADF80630BDF80630C9
:103CB000142B38BF142301A90120ADF80630FCF7FE
:103CC000E1FD10B17846F4F7F5FF28463146FFF7DD
:103CD00095FF0023CDE9023312238DF808302378B5
:103CE0005A1E534253418DF80C306378C3F30203DC
:103CF0008DF80D30637802A8C3F3C4038DF80E303D
:103D0000FFF790FE04B070BDDB08013303EB8303C3
:103D10005B00C9E70B890BB9FFF770BF704770B53F
:103D200086B00D46ADF80F309DF82C30ADF80D2063
:103D300000218B4204460A988DF80C1014BF072608
:103D40000926CDF81100F7F71BFF03ABCDE90060A2
:103D500048F21F0229462046FFF799FE06B070BDC3
:103D600030B587B00446039306AB8DF8142033F8C2
:103D70000C2DADF815209B788DF817300D46F7F710
:103D8000FFFE04230190009348F2030205AB29468D
:103D90002046FFF77CFE07B030BD2DE9F0410B89CE
:103DA000032B86B007460E4627D14D68AB78012B12
:103DB00023D806AC002344F8083D288805F096FC7B
:103DC0002146804606F0B6F9D0B104208DF81400E3
:103DD0002B88ADF8153070BB0498FEF7A5FF8DF861
:103DE0001700F7F7CDFE04230190009348F2480234
:103DF00005AB31463846FFF74AFE06B0BDE8F08114
:103E00000DF10F01404605F08FFD04460028DCD17E
:103E1000AB78012B0BD1FEF79DFF30B19DF80F1051
:103E20000498FFF737FB0028D0D00E20CEE7FFF72D
:103E300047FB2046CAE70020D1E72DE9F0430B8974
:103E4000022B87B081460C4638D14B681F88C7F3D8
:103E50000B0005F04BFCA38C8342804631D13B46DE
:103E60000C2221464846FFF7B3FE27E036F815003E
:103E700005F050FC26F815000135019BAB42F5D842
:103E80002EE036F8150004F0CDF810B17846F4F7BE
:103E900011FF0135019BAB42F3D83B464846002257
:103EA0002146FFF795FE00230293736030461923E5
:103EB0008DF80830ADF80C80FFF7B4FD07B0BDE811
:103EC000F0834FF6FF73984202AEE6D006AA0823AD
:103ED00042F8143D314606F08DF805460028CCD056
:103EE000404606F033F805460028D3D00F28B6D058
:103EF0003B460422B5E70000F0B50B89122B85B0D4
:103F000007460D4625D14E680A88344648F24003DC
:103F100034F8020B9A42C0F30B001CD121460DF17C
:103F2000060205F073FC182304460F2C8DF80830A8
:103F3000BDF80630ADF80C3096BF0C4B10221A5D60
:103F4000338829463846FFF743FE14B902A8FFF725
:103F500069FD05B0F0BD05F0C9FB2146ADF80600CE
:103F600005F0FCFC1A230446DFE700BFBCF60300A3
:103F70002DE9F0431F460B8847F6E57843449BB292
:103F8000102B87B005460C46164656D84FF001094F
:103F900009FA03F313F0EF011BD113F4803060D161
:103FA0005B044AD50146052203A80AF0FFFB6368BB
:103FB0008DF80C701A88ADF80D205B88ADF80F30C5
:103FC000F7F7DEFD05230093019003AB48F22A02C8
:103FD0002FE00922002103A80AF0E8FB23888DF8CE
:103FE0000C7043449BB2072B0AD809FA03F313F071
:103FF0000B0F09D113F004022DD113F0E00F1FD1E4
:104000007846F4F757FE09E063681A88ADF80D208A
:104010005A88ADF80F205B68CDF81130002E14BF20
:1040200007260926F7F7ACFDCDE9006003AB48F29F
:104030001F0221462846FFF72AFD07B0BDE8F0839E
:10404000636833F8121BADF80D108DF80F208DF852
:1040500010201B68E0E7636833F8022BADF80D20F1
:10406000F7E7072203A80AF0A1FB63688DF80C703C
:104070001A88ADF80D209A88ADF811205B88ADF84C
:104080000F30F7F77DFD07230093019003AB48F253
:104090002C02CEE77FB504AA042322F80A3D02A928
:1040A000064603F075FD062825D010B17846F4F7D2
:1040B00001FE0025BDF80620ABB29A4202D80020CE
:1040C00004B070BDACB2640004AB2344304633F896
:1040D000081C03F02DFD10B17846F4F7EBFD04AB9E
:1040E0001C4434F8080C05F087FA10B17846F4F750
:1040F000E1FD0135DEE70820E2E72DE9F0438DB070
:104100001C46154606460F46092200210DF12500E2
:104110000AF04CFB00230DF10B0120468DF82030F6
:10412000ADF8215003F04EFE10B17846F4F7C2FD11
:104130009DF826309DF80B2062F304136FF34713AC
:1041400005A920468DF8263003F0B8FE10B1784658
:10415000F4F7B0FDBDF81450BDF816304FF6FF72FD
:1041600095420DF10E0120460EBFADF82A30ADF894
:104170002C30ADF82A5003F05BFB10B17846F4F711
:1041800099FDBDF80E004FF6FF73984218D1002339
:104190008DF823308DF824304FF6FF739D4214BF05
:1041A0000E250C25F7F7ECFC08ABCDE9005048F2E2
:1041B000190239463046FFF76AFC0DB0BDE8F083BE
:1041C00006A905F0E7F910B17846F4F773FDBDF8DC
:1041D0001A30ADF8233004A9204603F0B1FD0528BC
:1041E0008046D4D0002848D10DF11201BDF810004E
:1041F00005F0A4FA0528814604D18DF823808DF8B6
:104200002480C9E70028C7D19DF812308DF82530E9
:104210009DF8133003F00F029DF8263023F00F03B2
:1042200013430DF1270120468DF8263003F0FEFDE3
:104230000122494603A80AF0B9FA0DF10D0203A9BB
:10424000204603F045FB9DF80C209DF80D3002A997
:1042500043EA821320468DF8283003F023FB9DF8B3
:1042600008209DF82930C2F3020161F30203D2084D
:1042700062F3C7038DF829308EE77846F4F71AFD0C
:104280008AE7F0B50B89032B87B007460C4619D196
:104290004D6804238DF80C302B88ADF80D300023C9
:1042A0008DF80F302888C0F30B0005F01FFA0DF1D0
:1042B0000B01064605F038FBD0B9AB78022B03D0D2
:1042C000032B32D007B0F0BD9DF80B305A1E012AE7
:1042D000F8D8012B06D1304605F0AAFB10B178467C
:1042E000F4F7E8FC00238DF80C3002238DF80F3032
:1042F000F7F746FC04230190009348F2170203AB42
:1043000021463846FFF7C3FB9DF80C30002BD9D16E
:10431000CDE9043308238DF8103004A89DF80F3040
:104320008DF81430FFF77EFBCCE79DF80B30032BA4
:10433000C8D033B1304605F0A9FB10B17846F4F788
:10434000B9FC00238DF80C30D0E770B50D89012D34
:1043500086B006460C461ED14B6818788DF80F00C3
:1043600003F002FDB8B90523CDE904008DF8103043
:1043700004A89DF80F308DF81430FFF753FBF7F7C2
:10438000FFFB0DF10F03CDE9005048F20E0221466C
:104390003046FFF77CFB06B070BD7FB50E46054684
:1043A000FBF730FA04AC04F8040DF7F7E9FB01233E
:1043B0000190009348F20B02234631462846FFF74E
:1043C00066FB04B070BD0B890BB9FFF7E6BF704701
:1043D00070B50B89092B8CB006460D465CD14C6834
:1043E0002388ADF81C30A3782BB1102B56D8013B95
:1043F000012202FA03F30893E37843B1112B9DBF26
:1044000003F1FF33012202FA03F34FF0FF33099364
:1044100023798DF82830B4F8053003F00F03ADF898
:104420002A30B4F80730ADF82C30B4F8070005F0A6
:104430005DF94FF6FF73984237D104238DF81030A1
:104440002388ADF81130E3788DF81430A3788DF817
:10445000133023798DF81530B4F8053003F00F03CD
:10446000ADF81630B4F80730ADF81830F7F788FB20
:104470000A2301900093062204AB29463046FFF739
:1044800006FB9DF810303BB914238DF8083002A8C4
:1044900007AB0393FFF7C6FA0CB070BDFF2B4FF6C6
:1044A000FF7318BF4FF0FF33A5E707A8FAF7CAFF5D
:1044B00000280CBF00230F23C0E7000037B5F3F737
:1044C00097F8FAF741F9084D18B903232B7003B098
:1044D00030BD00241C236846CDE900448DF800302F
:1044E000FFF7A0FA2C70F2E7CC4A002037B503782A
:1044F0000E2B1CD01B2B12D0012B16D1134B426854
:104500001B689A4211D1124C2378012B0DD1FEF772
:1045100027FC40B102232370FEF788FF05E00C4B17
:104520001B78022B01D1FFF7C9FF03B030BD084D46
:104530002B78032BF9D100241C236846CDE90044D5
:104540008DF80030FFF76EFA2C70EEE7D04A0020AD
:10455000CC4A00207FB504AC022304F8043D054694
:104560000E46F7F70DFB01230190009348F211026C
:10457000234631462846FFF78AFA04B070BD0A89FF
:10458000012A05D14B681B78012B01D8FFF7E2BF48
:1045900070470B890BB9FFF7DDBF70477FB50B89FB
:1045A000022B06460C461FD14D682888C0F30B002D
:1045B00005F09CF80DF10B0105F0B6F9002303930B
:1045C0002B88ADF80D3088B99DF80B308DF80F3081
:1045D000F7F7D6FA04230190009348F2170203ABD1
:1045E00021463046FFF753FA04B070BD04238DF81E
:1045F0000C30EDE77FB50B8906460D4683B9FEF713
:10460000A9FB04AC04F8040DF7F7BAFA01230190F2
:10461000009348F21402234629463046FFF737FA42
:1046200004B070BD2DE9FF410B89022B80460D4679
:1046300025D104AE00244F6846F8084D388805F0AF
:1046400055F8314605F076FDA0420CBF2346042301
:104650008DF80C303A88ADF80D209BB90298FEF722
:1046600063FB8DF80F00F7F78BFA0423019000939A
:1046700048F2480203AB29464046FFF708FA04B067
:10468000BDE8F0812046ECE770B50B8988B006469E
:104690000D46FBB908A9042341F8143D06A805F00E
:1046A00095FA039B9AB25B0803EB430302F0010403
:1046B00004A906A803EB440401F0ACFBF7F760FA89
:1046C000A4B2CDE9004004AB48F24302294630468B
:1046D000FFF7DDF908B070BDF0B50B89022B8DB086
:1046E00006460D4632D14F680CAC0823388844F892
:1046F000243DC0F30B0004F0F9FF224608A905F0A1
:1047000079FC3B88ADF8113018B1052820D0102372
:104710001FE0039C8DF81000A2B2640804EB44046F
:1047200002F0010304EB430403340DF1130108A864
:10473000A4B201F06FFBF7F723FA04ABCDE9004018
:1047400048F2020229463046FFF7A1F90DB0F0BD4C
:1047500004238DF810300324EDE7F0B516460A88DF
:104760001F4648F218039A4287B005460C4605D00A
:1047700048F21A039A4201D0032A2CD10E220021BA
:1047800002A80AF013F823888DF8087048F218027E
:10479000934209D048F21A0293421ED0032B20D133
:1047A000636833F8092B02E0636833F8022BADF835
:1047B00009201B68CDF81230002E14BF0C260E26DF
:1047C000F7F7DEF902ABCDE9006048F219022146A5
:1047D0002846FFF75CF907B0F0BD636833F8172B84
:1047E000E5E77846F4F766FAE6E77FB50B89012B33
:1047F00006460C4620D14B68187801281CD800F0DA
:104800000100FEF775FE30F0080302D07846F4F799
:1048100051FAFEF721FAFEF79DFA04AD05F8040DF2
:10482000F7F7AEF901230190009348F214022B46EA
:1048300021463046FFF72BF904B070BD7FB50B89D8
:1048400006460D4683B903F09BFA04AC04F8010D4B
:10485000F7F796F901230190009348F20E022346E0
:1048600029463046FFF713F904B070BD37B50B8900
:10487000012B05460C4618D14B681A78012A14D82A
:104880000022CDE9002204228DF800201878431E72
:10489000584258418DF80400FAF7A4FF28462146F3
:1048A000FFF77BFD6846FFF7BDF803B030BD70B57C
:1048B0000B89012B8EB006460D4618D10EA9002398
:1048C0008DF81030262321F82A3D0DF11100FEF756
:1048D000EBFFBDF80E40F7F753F90134A4B2CDE970
:1048E000004004AB022229463046FFF7D0F80EB054
:1048F00070BD00002DE9F0470B89132B88B080466E
:104900000C4670D14E68B578707837783388ADF83A
:1049100014304FEA051A4AEA101A00F00F0047EA6D
:1049200000208DF8165004F0E1FE00238DF81830B9
:10493000F21C07AB01468146504605F007FA384B9A
:104940001B685B0406461CD5364B1B68032B18DD21
:104950002F21354809F0FAFFF8B12F21324809F02C
:10496000F5FF411C314BBDF81C20D3F804350192F2
:104970002F4A0092CDF808A040F275220420F9F7E2
:1049800061F90F2E48D8DFE806F03E47471140494D
:10499000473347474747474747315C21224809F09B
:1049A000D5FF08B15C21D9E71F49DBE70DF1120102
:1049B000BDF81C0004F0DCFE10B17846F4F77AF97B
:1049C000BDF812204A4514BF042200228DF814704D
:1049D0008DF81650059B21464046FFF7C1F916B9E0
:1049E00006A8FFF71FF808B0BDE8F0870622EDE73C
:1049F0008DF814708DF81650059B03222146404611
:104A0000FFF7AEF9EFE70022E0E78DF814708DF8BC
:104A10001650059B0522F1E71022D7E70422D5E7BF
:104A2000542E0020502E0020CCF603000010014030
:104A3000FCF6030073B50D46164603F0A9F80528E9
:104A4000044607D006281AD0B8B933889C4204D34C
:104A5000002000E0022002B070BD6946288804F002
:104A600099FD50B99DF80030023B012B05D8BDF8E7
:104A7000023025F8023B0134E7E71020EBE708207D
:104A8000E9E72DE9F0410B89042B9EB006460D465F
:104A900012D14C684FF6FF7867882088ADF80E7009
:104AA000ADF80C80FEF7C6FF404508D10123012276
:104AB00029463046FFF75CFA1EB0BDE8F08102AA35
:104AC000039903F011FA08B10223F0E71EAA182394
:104AD00022F86E3D04A9BDF80800FFF7ABFF0346BE
:104AE0000028E4D1BDF80A208DF840002388ADF8F5
:104AF000413004A952000DF14500ADF8437009F0B2
:104B00004AFEBDF80A40F7F73BF864000534A4B24A
:104B1000CDE9004010AB48F22A0229463046FEF7A4
:104B2000B6FFC9E708B590B1B0F5004F06D800232D
:104B300001334008DBB2FBD1184608BD4FF6FF73C6
:104B4000984206D07846F4F7B5F81023F4E7034608
:104B5000F2E7FF23F0E708B570B1B0F5803F06D863
:104B6000002301334008DBB2FBD1184608BD78466C
:104B7000F4F7A0F81123F8E70346F6E770B50C4602
:104B800086B00546FAF75AFC2189064619BB8DF80E
:104B90000C100388ADF80D304368012B1DD8DBB233
:104BA000B0688DF80F30FFF7D6FF337B8DF81130EA
:104BB000F389ADF81230338AADF814308DF8100057
:104BC000F6F7DEFF0A2301900093062203AB21468D
:104BD0002846FEF75CFF06B070BDB3F5004F07D85E
:104BE000013B5B08CAB201F10101FAD1931CD6E77F
:104BF0004FF6FF72934204D07846F4F75BF8102327
:104C0000CEE7FF23CCE7F0B50E8987B007460D4607
:104C10002EBBFAF70FFC8DF80C60038804460BB12D
:104C20004288F2B900238DF80D308DF80E308DF8E2
:104C30000F308DF810308DF811308DF812308DF85E
:104C400013308DF81430F6F79BFF09230190009381
:104C500048F23C0203AB29463846FEF718FF07B07E
:104C6000F0BDADF80D304388ADF80F304068FFF768
:104C700059FF8DF81200A068FFF76DFFA3898DF82A
:104C800013308DF81100E389DBE72DE9F04F0B8934
:104C9000132B85B080460D463ED14C686078238842
:104CA0002778ADF804304FEA101B002300F00F0006
:104CB000A6788DF80660CDE9023347EA002001238B
:104CC0008DF8083004F012FD4FF6FF7A504581460A
:104CD00033D04BEA061004F01DFD5045ADF80C0032
:104CE0002DD00DF1020104F043FD10B17846F3F729
:104CF000E1FFBDF802304B4511D011248DF804704E
:104D00008DF80660019B224629464046FFF728F8A9
:104D100014B902A8FEF786FE05B0BDE8F08FE11CCD
:104D2000BDF80C0005F0A8F8052808D0082808D020
:104D300000280CBF00241024E0E70424DEE703244D
:104D4000DCE70B24DAE72DE9F0430A89032A85B072
:104D500080460D4653D14B689E7819881F785B7842
:104D6000ADF80410300140EA13108DF8066003F02E
:104D70000F048DF8082004F0CDFC4FF6FF7948456C
:104D8000ADF80C0024D047EA042004F0AFFC4845FD
:104D9000044637D00DF10201BDF80C0004F0E8FC28
:104DA00010B17846F3F786FFBDF80230A34211D167
:104DB000BDF80C0003F036F910B17846F3F77AFF2E
:104DC000BDF80C0005F0AAF810B17846F3F772FFB1
:104DD000002400E011248DF804708DF80660019B1A
:104DE000224629464046FEF7BBFF44B9BDF80C20D9
:104DF0004FF6FF739A4202D002A8FEF713FE05B0E9
:104E0000BDE8F0830424E6E7F0B50B89052B8DB0EF
:104E100007460D464AD14C681022002108A809F027
:104E2000C5FC2388ADF820306388ADF822302379A3
:104E300043B1112B9DBF03F1FF33012202FA03F3AB
:104E40004FF0FF3308A80A93FAF78CFA064668BBBE
:104E5000FAF7F0FA8DF814600388ADF815300446BF
:104E600043888068ADF81730FFF775FE8DF819009C
:104E70006068FFF757FEA3898DF81B30E3898DF832
:104E80001C308DF81A00F6F77BFE09230190009381
:104E9000384605AB48F23C022946FEF7F8FD1523DB
:104EA00003A88DF80C300494FEF7BCFD0DB0F0BDE6
:104EB0002DE9F347B1F8088028F00203042B0646D9
:104EC0000C4621D14D686B882888B8F1040F9FB239
:104ED0001BBF6A792B79ADF8063043EA02230BBF7A
:104EE0004FF001094FF000094FF6FF77ADF806309B
:104EF000FEF7A0FD4FF6FF7A504508D101234A4640
:104F000021463046FFF729FC02B0BDE8F087ADF836
:104F100004700DF10202019902F0E6FF20B9B8F128
:104F2000040F03D0574501D10223E8E7BDF8023052
:104F30002A8821463046FFF7E0F8E5E72DE9F047FB
:104F4000B1F8089029F00203042B86B007460D46FD
:104F500021D14C6863882088B9F1040F9EB21BBF31
:104F600062792379ADF80E3043EA02230BBF4FF08C
:104F700001084FF000084FF6FF76ADF80E30FEF74F
:104F800059FD4FF6FF7A504508D101234246294684
:104F90003846FEF7EDFF06B0BDE8F087ADF80C60CF
:104FA0000DF10A02039902F09FFF20B9B9F1040F35
:104FB00003D0564501D10223E8E7BDF80A00FFF708
:104FC00069F8064608B10346E0E701F0ABFE34F8A5
:104FD000022BCDF8048020680090334638462946DD
:104FE000FEF79DFE0C23CDE9046604A88DF8103071
:104FF000BDF80A30ADF81430FEF714FDCBE72DE90B
:10500000F047B1F8089029F00203142B88B0064647
:105010000D462ED14C68638A2088B9F1140F1FFA0F
:1050200083F81BBF627D237DADF80E3043EA022377
:105030000BBF012700274FF6FF78ADF80E30FEF7C3
:10504000F9FC4FF6FF7A504501D101230CE0ADF891
:105050000C8002AA039902F047FF20B9B9F1140F9E
:105060000AD0D04508D102233A4629463046FEF7F9
:105070007FFF08B0BDE8F08702238DF81030A01C38
:1050800000230DF11201ADF812300590F8F7B8FCCD
:1050900010B17846F3F70EFE0DF10A0104A804F0F2
:1050A000D9FA0528D1D008B11023DDE7BDF80A10E0
:1050B000BDF8080002F03CFD08B10C23D4E7BDF8B0
:1050C0000A0004F099FA10B17846F3F7F3FD01F005
:1050D00029FE34F8122B01972068BDF81230009099
:1050E00029463046FEF71BFE0F238DF81830BDF819
:1050F0000830ADF81C3006A8BDF80A30ADF81E30F7
:10510000FEF790FCB5E72DE9F047B1F8089029F0DB
:105110000203142B88B006460D4620D14C68638AE2
:105120002088B9F1140F1FFA83F81BBF627D237D1D
:10513000ADF80E3043EA02230BBF012700274FF6DC
:10514000FF78ADF80E30FEF775FC4FF6FF7A50454C
:1051500008D101233A4629463046FEF709FF08B038
:10516000BDE8F087ADF80C8002AA039902F0BCFEFE
:1051700020B9B9F1140F03D0D04501D10223E9E7DA
:105180000DF10A01A01C04F0E6F920B104280CBFBF
:1051900005231023DEE7BDF80A10BDF8080002F071
:1051A00097FC8046BDF80A00B8F1000F0BD004F060
:1051B00023FA10B17846F3F77DFDB8F1060F0CBF66
:1051C00008231023C6E704A904F0E4F910B17846D7
:1051D000F3F770FD01F0A6FD34F8122B019720685B
:1051E000BDF81230009029463046FEF798FD0E2398
:1051F0008DF81830BDF80830ADF81C3006A8BDF8A1
:105200000A30ADF81E30FEF70DFCA8E72DE9F04F8F
:10521000B1F80880B8F1080F89B006460D4602D0F3
:10522000B8F1060F21D16C68A3882088B8F1060F69
:105230001FFA83F91BBFE279A379ADF80E3043EA78
:1052400002230BBF012700274FF6FF79ADF80E3080
:10525000FEF7F0FB4FF6FF7A5045834608D1012355
:105260003A4629463046FEF783FE09B0BDE8F08F86
:105270006088F6F78DFA0328F1D1ADF80C9002AAF8
:105280000399584602F030FE20B9B8F1060F03D05A
:10529000D14501D10223E3E703238DF81030638861
:1052A000ADF812300DF10A01002304A8059304F0B3
:1052B000D1F978BBBDF80A10BDF8080002F038FC3F
:1052C000062801D10823CBE708B11023C8E7BDF8B1
:1052D0000A0004F091F910B17846F3F7EBFC01F005
:1052E00021FD638834F8042B01972068009029463B
:1052F0003046FEF714FD0B238DF81830BDF808304A
:10530000ADF81C3006A8BDF80A30ADF81E30FEF727
:1053100089FBAAE70528D8D1E3E72DE9F04FB1F8DA
:105320000880B8F1080F87B006460D4602D0B8F1E4
:10533000060F21D16C68A3882088B8F1060F1FFAE8
:1053400083FA1BBFE279A379ADF80E3043EA02235A
:105350000BBF012700274FF6FF7AADF80E30FEF79E
:1053600069FB4FF6FF794845834608D101233A4649
:1053700029463046FEF7FCFD07B0BDE8F08F608897
:10538000F6F706FA0328F1D163884B45EED0ADF865
:105390000CA002AA0399584602F0A6FD20B9B8F164
:1053A000060F03D0CA4501D10223E0E70DF10A013F
:1053B000608804F0CDF840B1042804D010280CBF58
:1053C00001231023D3E70523D1E7BDF80A10BDF868
:1053D000080002F07DFB804668B1BDF80A0004F0C9
:1053E0000BF910B17846F3F765FCB8F1060F0CBF66
:1053F00008231023BBE701F095FC638834F8042BE5
:1054000001972068009029463046FEF788FC0A2361
:105410008DF81030BDF80830ADF8143004A8BDF890
:105420000A30ADF81630FEF7FDFAA5E72DE9F04792
:10543000B1F8089029F00203142B88B006460D46F7
:1054400020D14C68638A2088B9F1140F1FFA83F8C1
:105450001BBF627D237DADF80E3043EA02230BBFF4
:10546000012700274FF6FF78ADF80E30FEF7E2FA7D
:105470004FF6FF7A504508D101233A462946304677
:10548000FEF776FD08B0BDE8F087ADF80C8002AA03
:10549000039902F029FD20B9B9F1140F03D0D045CA
:1054A00001D10223E9E7BDF80800FEF7F3FD03464A
:1054B0000028E2D10DF10A01A01C04F04CF858B10B
:1054C00004280CBF052310233A4629463046FEF730
:1054D0004FFD01F027FCD5E7BDF80A10BDF8080024
:1054E00002F0F6FA8046BDF80A00B8F1000F0CD0C1
:1054F00004F082F810B17846F3F7DCFBB8F1060F40
:1055000001D10823E0E71023DEE704A904F042F804
:1055100010B17846F3F7CEFB34F8122B01972068D0
:10552000BDF81230009029463046FEF7F8FB1023F4
:105530008DF81830BDF80830ADF81C3006A8BDF85D
:105540000A30ADF81E30FEF76DFAC2E72DE9F04FD4
:105550000F8927F00203042B8FB082460D4640F0DE
:10556000AD804E6874883088042F16BFA0464FF671
:10557000FF78B488FEF75EFA2A8848F24B039A4215
:105580004FF6FF7340F0AB80984200F0828048F203
:105590004C09ADF81080ADF8124003AA049902F04E
:1055A000A3FC28B9042F1FD04FF6FF7398451BD1D9
:1055B00029883388ADF8253048F24B0291424FF0EC
:1055C00002020CBFADF82740ADF829408DF8242029
:1055D0000EBF0524ADF827800724F6F7D1FA019015
:1055E000009409AB4A4665E00EAA082322F82A3D3A
:1055F00005A9BDF80C0002F057FB10B17846F3F78F
:1056000059FB4FF0000BBDF80E701FFA8BF39F4251
:1056100021D829883388ADF8253048F24B029142D1
:105620004FF000028DF8242027D13A460DF12901D0
:1056300005A8ADF8274000F0EDFB0524F6F7A0FA29
:105640007B0803EB430307F0010703EB47073C44E8
:105650000190E4B2C4E71FFA8BF149000EAB0B4492
:1056600005AA114433F8240C04F068F810B1784608
:10567000F3F720FB0BF1010BC5E73A460DF12B01C7
:1056800005A8ADF82940ADF82780072400F0C2FB3B
:10569000D4E73388ADF825300122ADF827408DF8E6
:1056A000242048F24C060524F6F76AFACDE90040BA
:1056B00009AB324629465046FEF7E9F90FB0BDE87E
:1056C000F08F3388ADF825300122ADF829408DF8F0
:1056D0002420ADF8278048F24E060724E4E79842DC
:1056E000EFD048F24E0954E72DE9F04FB1F80880A9
:1056F000B8F1080F87B006460D4602D0B8F1060F84
:1057000021D16C68A3882088B8F1060F1FFA83F9AD
:105710001BBFE279A379ADF80E3043EA02230BBF39
:10572000012700274FF6FF79ADF80E30FEF782F91A
:105730004FF6FF7A5045834608D101233A46294661
:105740003046FEF715FC07B0BDE8F08F6088F6F72D
:105750001FF80328F1D1ADF80C9002AA039958461E
:1057600002F0C2FB20B9B8F1060F03D0D14501D138
:105770000223E3E7BDF80800FEF78CFC034600288F
:10578000DCD10DF10A01608803F0E2FE40B104288B
:1057900004D010280CBF01231023CFE70523CDE749
:1057A000BDF80A10BDF8080002F092F9804668B111
:1057B000BDF80A0003F020FF10B17846F3F77AFA3B
:1057C000B8F1060F0CBF08231023B7E701F0AAFABF
:1057D000638834F8042B01972068009029463046EE
:1057E000FEF79DFA0D238DF81030BDF80830ADF8A6
:1057F000143004A8BDF80A30ADF81630FEF712F9DF
:10580000A1E72DE9F0470B89062B9EB007460E460F
:105810001DD14D682888FEF70DF9B6F80890B9F14A
:10582000040F0CBF0124002414D1AB78EA7843EABA
:105830000223ADF80E304FF6FF784FF6FF7A504551
:1058400011D10123224631463846FEF791FB1EB0A6
:10585000BDE8F0872B796A79B5F8028043EA022324
:10586000ADF80E30E9E7ADF80C8002AA039902F01A
:105870003BFB20B9B9F1040F03D0D04501D102237D
:10588000E0E71EAA182322F86E3D04A9BDF808001F
:10589000FFF7D0F803460028D4D18DF840002B88BC
:1058A000BDF80A40ADF84130AB88ADF84530640032
:1058B000A4B26B88ADF84330224604A90DF147002D
:1058C00008F069FFF6F75CF90734A4B20190009480
:1058D00010AB48F22C0231463846FEF7D8F8B6E74E
:1058E0002DE9F04F0C89082C8FB080460D4601D071
:1058F000062C27D16E68B788062C4FF000031CBF1A
:10590000B946F7888DF82C303388ADF82D30738880
:10591000ADF82F3008BF4FF6FF797368CDF83130FE
:10592000062C12D18FB90D238DF82C30F6F728F9FB
:105930000723019000930BAB48F23E0229464046F4
:10594000FEF7A5F80FB0BDE8F08F3088FEF772F8CB
:105950004FF6FF73984282460BD10123062C14BFE9
:10596000092407248DF82C30F6F70AF9CDE9004018
:10597000E1E7ADF82090ADF8227007AA089902F08F
:10598000B3FA4D4B1B689B0483461DD54B4B1B68DC
:10599000032B19DD2F214A4808F0D8FFF8B12F2139
:1059A000474808F0D3FF411CBDF81C20454BD3F8F5
:1059B0000435CDE90392444A0092CDE901A740F6AF
:1059C00089120420F8F73EF9BBF1000F05D1062C2F
:1059D0000ED04FF6FF7399450AD10223BEE75C2132
:1059E000374808F0B3FF08B15C21D9E73449DBE759
:1059F0007088C0F30B0003F08DFE2A8848F23D0347
:105A00009A420646BDF81C0010D1162331468DF887
:105A10002430ADF82800ADF82A6002F0F5F805282A
:105A200043D0072845D018B310233FE01723314651
:105A30008DF82430ADF82800ADF82A6002F00CF99A
:105A40000028ECD10DF11E01BDF81C0002F078F920
:105A500010B17846F3F72EF9BDF81E30B34207D1E6
:105A6000BDF81C0002F0B2FA10B17846F3F722F943
:105A700000238DF82C3001F055F9062C14BF0924B1
:105A80000724F6F77DF80BABCDE9004048F23E0263
:105A900029464046FDF7FBFF9DF82C30002B7FF494
:105AA00051AF09A8FDF7BEFF4CE702238DF82C305B
:105AB000E3E70323FAE700BF542E0020502E002016
:105AC000CCF60300001001402EF703002DE9F04F43
:105AD0000A880B89032A89B007460D4627D10D2B6A
:105AE00001D00B2B56D16A680B2BB2F8093014BFCA
:105AF000117BADF80E301FFA83FA18BFD37A144623
:105B00001CBF43EA0123ADF80E3034F8049BB2F811
:105B100002800ABF012600264FF6FF7A4846FDF7AD
:105B200089FF4FF6FF7B584524D101232DE048F231
:105B30001A018A4203D123F00202192A2AD16C6881
:105B4000192BB4F8173014BFA27EADF80E301FFA2F
:105B500083FA18BF637E34F8129B15BF43EA022311
:105B6000012600264FF6FF7A18BFADF80E304FF031
:105B70000008D3E7ADF80CA002AA039902F0B4F92B
:105B800010B956B9DA4508D10223324629463846BB
:105B9000FEF7E3FD09B0BDE8F08F6378207803F0ED
:105BA0000F0340EA032003F0B5FD4FF6FF73984260
:105BB000824601D10323E8E74046ADF80A30F5F705
:105BC000E7FD2B88032B32D10228AED000F0FD0078
:105BD000012840F0E1800DF10A01BDF8080001F054
:105BE00027FE58B10DF10A01404603F065FC00287C
:105BF0003CD004280CBF05231023C6E704A9BDF838
:105C00000A0003F0C7FC0028ECD19DF81030022BED
:105C100003D0BDF81230434528D0BDF80A0003F088
:105C20006FFC0028DED07846F3F744F8DAE76B68BB
:105C3000BDF808000DF10A0103F1020B01F0F8FDB7
:105C400028B10DF10A01584603F056FCCFE704A92C
:105C5000BDF80A0003F09EFC0028F2D19DF8103038
:105C6000022B25D09DF81030022B28D1B8F1000F5F
:105C70002FD0227994F80380BDF80800C2F3020106
:105C80004FF0000B61F3020BD20862F3C70B002246
:105C90004FEA98131146019301F0B6FE08F03F0851
:105CA000019B28B306281ED07846F3F703F871E766
:105CB00010225946059808F05FFD0028D2D0BDF8A3
:105CC0000A0003F01DFC0028BBD07846F2F7F2FF73
:105CD000B7E72A8848F21A039A42CAD0BDF80800EA
:105CE00002F074F93DE0B8F1000F0ED007234CE745
:105CF000B8F1000F09D042461946BDF8080001F07E
:105D000083FE10B17846F2F7D5FF5946BDF808007A
:105D100001F0A2FD10B17846F2F7CCFFBDF80A10F1
:105D2000BDF8080001F066FD10B17846F2F7C2FF39
:105D30005146BDF8080001F0E5FF10B17846F2F7D2
:105D4000B9FF6178BDF80800C1F3001102F01EF838
:105D500010B17846F2F7AEFFA178BDF8080002F066
:105D600045F810B17846F2F7A5FF00F0DBFFBDF86B
:105D7000083038464A462946FEF7BFF90023CDE9E8
:105D8000063302238DF8183006A8BDF80830ADF8A8
:105D90001C30FDF747FEFDE6B8F1000F7FF469AF58
:105DA0009CE7000030B587B01622002105460DF1B2
:105DB000020008F0FBFC0E4B02934FF6FF742E23FB
:105DC0000C480393ADF80040F5F7C8FE0A48F9F710
:105DD00045FB0A4B1B88A34202D07846F2F76AFFC4
:105DE000074B06491D60684601F0F2FB07B030BD65
:105DF00074F70300702E00205F3A03006E2E00201F
:105E0000C84A0020024B0146188801F0FDBE00BFC1
:105E10006E2E002030B50024A24200D830BD30F8EC
:105E200014300B70651CC3F30323AA424B7007D9CF
:105E300000EB44056D8843EA05132D094B708D7006
:105E400002340331E8E7000082B0064B0190C0F352
:105E50000F40A0F50C7080B253F820309B780B7087
:105E600002B07047F44A0020C0F30F40A0F50C7058
:105E700080B2044B53F8203082B000229A7002B0F6
:105E8000704700BFF44A002070B5144D2C680026FE
:105E900034B92B6803BB1248BDE87040F6F780B8F0
:105EA00094F8503013B1013B84F8503094F85030DE
:105EB00043B92B689C4208D1636D2B60E36C0021D1
:105EC000204698472646646DE2E716B97846F2F711
:105ED000F1FE636D7365F1E770BD00BFF04A00200D
:105EE000D44A002030B587B090F850308DF8043097
:105EF0000C4B029301AB03930123ADF81030002348
:105F00008DF81230022304460D468DF81330F5F754
:105F100037FE02AA05902946208801F05DFC07B0F3
:105F200030BD00BF0780FFFF0B8913B91046FFF794
:105F3000D9BF704730B587B083788DF804300C4BEB
:105F4000029301AB03930123ADF8103000238DF8C9
:105F50001230022304460D468DF81330F5F710FE7B
:105F600002AA05902946208801F036FC07B030BD12
:105F70003780FFFF0B8913B91046FFF7DBBF70476F
:105F800038B504460D46F6F703FD94F8503084F812
:105F900050505BBB55B3E36C012120469847F6F7A0
:105FA000F7FCE36C13B97846F2F784FE94F85030AE
:105FB00013B97846F2F77EFE0E4B196861651C60D6
:105FC00091B90D4C1822204608F0F0FBF6F728F89E
:105FD00000F5742000F51070084B6060E360204607
:105FE000074BA360F5F7BAFFF6F712FDBDE838409E
:105FF000F6F70EBDF04A0020D44A002040420F00C0
:10600000895E030038B50B89012B0C46154611D16A
:10601000D36C23B14B6810461978FFF7B1FF228883
:1060200048F205039A4205D121462846BDE838408A
:10603000FFF758BF38BD000037B50B89012B0D465F
:10604000144626D149680A780E2A0BD92A8848F2C4
:1060500035039A421DD12946204603B0BDE83040A1
:10606000FFF768BF0D4A1068A04214D05068A042E4
:1060700003D09368A3420CD10223032203F50C73CF
:10608000ADF80420ADF806300198F9F73BFE002882
:10609000DCD003B030BD0023EFE700BFF44A00209E
:1060A0004B0901F01F024FF0FF31914050F82320BF
:1060B000114049B14A420A4008495143C90E084AB1
:1060C000505C00EB431070470133072B02D850F8A7
:1060D0002310EEE74FF48070704700BF31B57C07A6
:1060E00040F903002DE9F043C7B0042905AE437A17
:1060F00033700CBF00F12C0900F10C094389A6F89C
:10610000013005468846484600211746FFF7C8FF7C
:106110000024B0F5807F23461BD14FF6FF73ADF806
:10612000063000238DF80E3003340223ADF80480CE
:106130000296ADF80C408DF80F30F5F721FD049074
:1061400028888FB101AA394601F046FB47B0BDE867
:10615000F0833344411C0134FF29E4B2D870DCD809
:106160004846FFF79DFFD4E701A901F009FBEDE7E1
:10617000084600220421FFF7B5BFF8B50B89032BB1
:106180000D46144610D11388834202D07846F2F7A8
:1061900091FD6E686389B6F801108B4204D1207AB4
:1061A0000023DAB2904200D8F8BD626812F833C01A
:1061B00002EBC3073278624503F10103F1D17B683A
:1061C00020469847337863722A8848F232039A420D
:1061D000EAD12A4620460521BDE8F840FFF782BFF4
:1061E00038B50B89022B0D46144611D11388834212
:1061F00002D07846F2F75EFD6B681A8863899A428E
:1062000006D12A4620460521BDE83840FFF76ABF7F
:1062100038BD38B50B89022B0D4614461CD11388A6
:10622000834202D07846F2F745FD6B681A8863898D
:106230009A4211D12022002104F10C0008F0B6FA94
:106240002A8848F22F039A4206D12A462046052181
:10625000BDE83840FFF746BF38BD38B500F12C0522
:1062600000212846FFF71CFF0024B0F5807F01D1F4
:10627000E0B238BD411CFF2904F10104F8D82846DA
:10628000FFF70EFFF1E7000037B50190C0F30F40B4
:10629000A0F50C700C4B0D7880B253F82040A37819
:1062A000AB420DD0A5702046FFF7D7FF40B10121CA
:1062B000A940208889B203B0BDE8304001F088BB16
:1062C000002003B030BD00BFF44A002070B586B096
:1062D000C3640A9B436000259DF82C30037204467A
:1062E00042810E46457280F85050857045652022E7
:1062F00029460C3008F05AFA2946202204F12C00D5
:1063000008F054FA0B4B00930B4B02930B23CDE98F
:1063100003342146094BADF804606846059301F04B
:1063200057F928B9064B208843F8264001F0A2FB14
:1063300006B070BDFFFF0200E8F8030071610300C2
:10634000F44A002038B5837803F003020446032A98
:1063500022D8DFE802F00214191D9B08154A1648DE
:10636000126813440268A3600021EAB195685D1BBE
:10637000002D16DAD1B91146E160046038BD9B08E2
:1063800003EB83035B00E9E79B0864225343E5E7E3
:106390009B0841F27072F9E77846F2F78BFC002314
:1063A000DCE71146D268E0E70029E5D0CC60E26086
:1063B000E4E700BF184B0020204B002008B503285D
:1063C00009D8DFE800F00D020406064808BD0648BB
:1063D000FCE70648FAE77846F2F76CFC0020F5E7A0
:1063E0000348F3E740420F00809698000046C3231D
:1063F000A08601002DE9F041574D2B78A3B1574BF2
:10640000574E5C68F5F70CFE241A3078FFF7D6FF7C
:106410003278544B001B002A40D14CF2503290424B
:106420003CD91A6801321A60DFF84881D8F8002098
:10643000002A00F087804A4E9378307803F00303F7
:106440008342344664DD474B97681B68FB1A464F0E
:106450005F43FFF7B3FFD8F80030B7FBF0F09F7849
:10646000C7F30107FBB2022B1FD031D8012B47D154
:106470000A22B0FBF2F302FB1300002840D1F5F72B
:10648000CFFD00F5742101F5107137702B78002BCA
:1064900050D03248BDE8F041F5F799BD1A6832494D
:1064A000B0FBF1F010441860BEE7337863B96422A2
:1064B000B0FBF2F302FB130010BBF5F7B1FD2B4963
:1064C000022301442370E1E7012B19D10A22EFE7EF
:1064D000337863B941F27072B0FBF2F302FB130040
:1064E00070B9F5F79DFD224903230144EAE7012B2A
:1064F00002D14FF41672EFE7022B01D13C22EBE7F9
:10650000F5F78EFD06462078FFF758FF3118BDE7F6
:10651000F5F786FDD8F800300446987800F00300BF
:10652000FFF74CFFD8F800309B78C3F30103211824
:106530003370ABE70948012341602B70BDE8F0419F
:10654000F5F70CBD2B7823B10448BDE8F041F5F711
:1065500027BDBDE8F08100BF1C4B0020004B002090
:106560001D4B0020184B0020A0860100809698004B
:106570000046C323204B00202DE9F341244B1B7818
:10658000032B2AD8DFE803F0021B1F23214A1368DC
:1065900001331360204B214E1E4D00221A70B0466D
:1065A00034683CB1A3682A6893421AD02A689B1ABF
:1065B000002B16DBFFF71EFF02B0BDE8F081154A85
:1065C00013680A33E5E7134A13686433E1E7114AB5
:1065D000136803F5BB531033DBE77846F2F76AFB29
:1065E000D8E72788E368C8F8003002A9002341F8FB
:1065F000043D384601F0D6FC10B17846F2F75AFB5C
:1066000038466368019998472046FFF79BFEC7E725
:106610001D4B0020184B00201C4B0020204B00205D
:1066200010B5084C18220021204608F0BFF8064B90
:10663000064AA36000231360054A1360054A1370DD
:1066400010BD00BF004B002079650300184B0020EF
:10665000204B00201C4B0020F8B50F461646044680
:1066600010B97846F2F726FB124DF6F791F92B6830
:1066700000220BB1A34216D1A17867F3010166F3A2
:106680008701A1709BB1DB6882B92B602EB12046D7
:10669000FFF758FE2B689C4201D1FFF7ABFEBDE827
:1066A000F840F6F7B5B91A46DB68E2E7D360002E8A
:1066B000F5D0ECE7204B00204FF6FF700D49F0B508
:1066C00000232424064604FB03129DB292F839707D
:1066D00057B1B0420CD004FB0017126B3F6BD21BBA
:1066E00030EA220028BF28460133042BEBD1F0BD4D
:1066F0002846F9E7244B002038B5154C242303FB2A
:106700000043054693F8393013B97846F2F7D2FAC8
:10671000B4F8A83013B97846F2F7CCFA242202FB79
:106720000543002183F83910B4F8A830013B9BB22F
:10673000A4F8A8301BB94FF6FF73A4F8AA3002FBE7
:106740000544A06AFAF703F90023A36238BD00BF2D
:10675000244B00202DE9F84F2D4DB5F8A830064602
:1067600013B97846F2F7A6FA2A4C06F57A7B002789
:106770004FF0010948F2111A637C1FFA87F8C3B180
:10678000A368A3EB0B03002B13DAA3882268A4F100
:106790001001404600F0FAFE102828D809FA00F34C
:1067A00013EA0A0F26D11C4A13421FD04046FFF7B6
:1067B000A3FF0137042F04F12404DDD1FFF77CFF90
:1067C000B5F8A830A5F8AA00FBB1032802D978468D
:1067D000F2F770FAB5F8AA30242202FB03531B6BC0
:1067E0009A1B48BFF21AEA60BDE8F88F10B17846EC
:1067F000F2F760FA237C013BDBB22374002BD5D087
:10680000D4E902321344A360D3E7EB60ECE700BFA6
:10681000244B00204C4B0020A002010010B5064C78
:10682000AC220021204607F0C1FF044BA3604FF6C5
:10683000FF73A4F8AA3010BD244B00205567030055
:106840002DE9F04703280646884617469A46BDF8C4
:10685000209002D97846F2F72DFAB8F1000F02D154
:106860007846F2F727FA17B97846F2F723FA98F83C
:1068700000305B0702D17846F2F71CFABAF1000F3C
:1068800002D17846F2F716FAB9F1000F02D1784634
:10689000F2F710FA274C242303FB064393F8393010
:1068A00013B13046FFF728FFF5F7BAFB844697E8A7
:1068B0000F00242505FB064505F1180E8EE80F0094
:1068C000C5F828A0A5F82C9098F80030C3F302036F
:1068D00085F8383098F80000C3084CF2503003FBBC
:1068E0000000012385F83930B4F8A83068636044AB
:1068F00001332863A4F8A830FFF7DEFEB4F8AA300D
:10690000834201D19E4213D14FF6FF739842A4F8FF
:10691000AA0002D17846F2F7CDF9B4F8AA300548BA
:10692000242202FB0344216BBDE8F047F5F74FBB7F
:10693000BDE8F087244B00204A09012301F01F0124
:1069400003FA01F150F82230194214BF012000204F
:1069500070474FF6FF72B2EB104F82B083B215D181
:1069600013F47F4007D003F44043B3F5004F14BF46
:106970000020012006E023F07F022AB97F3B18BFE8
:106980000123184602B070470346FAE723F03F039D
:10699000C02BECE703289FBF054B382202FB0030D9
:1069A00090F8340094BF00F001000020704700BF51
:1069B000184C0020004700004388C3F30B03032B4F
:1069C00002D9002008707047064A12F8331041F0CF
:1069D000010102F8331002EBC3034268D2435A604C
:1069E00001207047F84C00204388C3F30B03022BAF
:1069F0009FBF06225343044A818893BFD15200208F
:106A000008700120704700BFD24B002007B5134625
:106A10004FF47042ADF804200122ADF806001A7060
:106A200003480A4601A9F7F74DFC03B05DF804FBE3
:106A3000F04B002070B51C460B89B3F5BE7F0546B0
:106A4000164606D3092323602068B0FA80F0400977
:106A500070BDFFF79FFF30B10C48382303FB0500E2
:106A60008389022B01D90523EDE73EB982884FF6D1
:106A7000FF739A4206D0C2889A4203D00868FFF793
:106A800068FF08B90723DEE70023DCE7184C002085
:106A90007846F2F70FB9000008B5094B0948002203
:106AA0001A70094B01221A70F7F7FAFB20B1074858
:106AB000BDE80840F7F730BE054B187008BD00BFB1
:106AC000154C0020F04B0020144C00208C2E002090
:106AD000D04B002010B5E02200210E4807F066FEE2
:106AE000122200210C4807F061FE202200210B48F1
:106AF00007F05CFE074B4FF6FF7203F1E001042440
:106B00000120DA809A80DC819A81988438338B4224
:106B1000F7D110BD184C0020D24B0020F84C0020BB
:106B20002DE9F04FD5B0044607A80D4604929946CA
:106B3000BDF8788102F0B0FC704BBDF81E10049ACD
:106B4000382000FB04308789B94205D84FF0100A7D
:106B5000504655B0BDE8F08FBDF81C10049108AE4A
:106B6000002A00F0968002F10C0103C9B2F81EB0B1
:106B7000B2F824A0127F86E80300002A00F0998072
:106B8000382202FB0434647CFF2C01D15C4B1C785E
:106B9000B9F1000F02D17846F2F78CF8B8F1000F86
:106BA00002D17846F2F786F80AAB18462422002173
:106BB000059307F0FBFD504610AA594603F05AFA18
:106BC000059B82460028C3D1049A9C7296E8030074
:106BD0001744AA7ADA72EA7A1A7383E80300EA6839
:106BE0001F8151461846C3F81090A3F814801A620A
:106BF000F4F7B2FF82460028AAD1424C22689204E0
:106C00001AD5414B1B68042B16DD2F213F4807F096
:106C10009DFE00284FD02F213C4807F097FE411CD5
:106C20003B4B2A88D3F8043501923A4A009205205A
:106C30004FF4CE72F7F706F823689B0488D5324BE1
:106C40001B68042B84DD2989334B8029186828BFF1
:106C50008021002313AC8B4236D100222F212B48F8
:106C600004F8132007F072FE00283BD02F2127489C
:106C700007F06CFE411C264B284AD3F804350192DC
:106C8000274A0092029440F29D120520F6F7DAFF9F
:106C90005EE7B0F804B0C0880593314602F07AFC94
:106CA00048BB7288002A3FF451AF4FF6FF7A059B2C
:106CB00066E714466CE75C21144807F047FE08B10C
:106CC0005C21A9E71149ABE76A68D25C160902F0BA
:106CD0000F02865D04F81360865C04EB4302013307
:106CE0005670B8E75C21094807F030FE08B15C2116
:106CF000BDE70649BFE74FF0050A29E7184C002019
:106D0000AC2E0020542E0020502E002012FA03003A
:106D1000001001402EFA0300582E002042FA030012
:106D200032EF03002DE9F0474F4B1B78002B00F0AA
:106D30009980F5F72DFE4D4B1B78C3B94C4C237849
:106D400073B9062201214B48F7F769FB78B103229A
:106D5000C280042202818280F7F790FB0123237016
:106D60000025454EDFF80C812C46A9B234B14348CA
:106D7000F7F7D2FCBDE8F047F5F74ABE16F8353014
:106D800003F00303032B4FEAC50711D1042241F49A
:106D900040514046F7F743FB00285DD0F3195B688C
:106DA000DB434360F7F76AFBBB5D23F00203BB558F
:106DB0000135042DD9D1324FDFF8B89000254FF0BE
:106DC0000608A9B2002CD2D108FB05FA07EB0A0687
:106DD00073799B0710D5022241F480514846F7F79A
:106DE0001EFB00283AD03AF807208280F7F746FBCE
:106DF000737923F0020373710135032DE1D1DFF8BC
:106E00008480DFF8709000253827A9B2002CAED11D
:106E100007FB058696F8343003F00303032B15D1E6
:106E2000142241F400514846F7F7F9FA8246B8B106
:106E300014223146043007F0AEFC5046F7F71EFB33
:106E400096F8343023F0020386F834300135042DEF
:106E5000DBD1002C8ED08AE71124A9E71124CBE7DF
:106E60001124F3E7BDE8F087D04B0020144C00203C
:106E7000154C0020F04B0020F84C00209C2E0020E8
:106E8000D24B0020184C002030B5012A8DB00446AA
:106E90000D4604D17846F1F70DFF0DB030BD022A42
:106EA000F8D0032AF9D12C22002101A807F07EFC9A
:106EB00011238DF8043002238DF80830E368059320
:106EC00001A8236903950693F3F7CEF9E5E70000DF
:106ED0004A0901F01F034FF0FF31994050F822306A
:106EE000194009D04B420B4004495943C90E044B89
:106EF000585C00EB421070471820704731B57C0792
:106F0000F2F903002DE9F04F85B08146924698468C
:106F10000E9F0D4611B97846F1F7CCFE03AB5246F1
:106F200029464846FFF786FD18B9039805B0BDE825
:106F3000F08F69882B884FF6FF72914230D1B3F5FC
:106F4000807F34BF4FF0010B4FF0020B2E895E445F
:106F5000B6B23046F9F7F9FC044680B36A882B884C
:106F60004FF6FF708242D9B21DD06270120A2170B2
:106F7000A2702A89696804EB0B0007F00CFC0096EC
:106F80002346524629464846FFF7CAFD039018B9E2
:106F9000B8F1000F00D077B92046F9F7D8FCC4E764
:106FA0004FF0030BD2E713F47F4F1DBF1B0A237072
:106FB00061702170DDE7C8F800403E80B6E704202C
:106FC000B4E7000038B54388C3F30B03032B044632
:106FD00011D8028A022A0ED81B48382202FB03026B
:106FE000D589628A032D09D8954204D1174D15F829
:106FF0003250ED0704D40020087038BD032A06D8AB
:10700000124D15F8321041F0040105F83210382500
:107010001422211D05FB030007F0BDFBA188238A74
:107020004FF6FF7291420A4A4FF0060101FB03231B
:107030004FF001000BBF9A78DA78013201320CBFB1
:107040009A70DA70D9E700BF184C0020F84C002085
:10705000D24B00202DE9F04F87B006AB062243F853
:107060000C2D012104AA5A48F7F7A2F9044628B1C9
:10707000584B0120187007B0BDE8F08FBDF81230F2
:10708000032B09D0544B1B689B047DD402F050F9AC
:10709000FFF702FD00205EE0BDF81430042BF1D1B3
:1070A000BDF81030042BEDD14C4B4D4901221A7024
:1070B0004FF440500DF10B02FFF7A8FC9DF80B3088
:1070C000002BDFD0474B204603F112015A7998700C
:1070D00022F00202D87018805A7106338B42F5D123
:1070E0000DF10B0240494FF48050FFF78FFC9DF8E3
:1070F0000B30002BC6D00DF10B023C494FF4005071
:10710000FFF784FC9DF80B300BB300B3384EDFF86B
:10711000F4A00027B1464FF6FF78BB46B38943453C
:1071200010D0F088404505D002F0CAF910B1784679
:10713000F1F7C0FDF589042D11D1382303FB079326
:1071400083F812B00137042F06F13806E6D19DF816
:107150000B00002896D01F4B01221A708BE70AEB18
:10716000C505043500212846FFF7B2FE182804465D
:10717000E3D0A0B202F0F2F910B17846F1F79AFD2F
:10718000611C1729EFD9D8E71A4B1B68002B7FF732
:107190007DAF2F21184807F0D9FB78B12F21164871
:1071A00007F0D4FB411C154B154AD3F80435009267
:1071B000012040F2E232F6F745FD67E75C210E4818
:1071C00007F0C4FB08B15C21E9E70B49EBE700BF1E
:1071D000F04B0020D04B0020542E0020154C0020F6
:1071E000B9690300D24B0020E9690300C56F0300B1
:1071F000184C0020502E002012FA0300001001400D
:1072000060F90300F84C00202DE9F04F00F1140460
:107210008FB00546204603F09BF98246002879D0BE
:107220004FF6FF73ADF832302B7D012B75D10DA8D1
:1072300002F032F9EB8ABDF834209B1A9BB2099315
:107240005646554C4FF00009002E7CD0A788099B6C
:10725000FA1A5742574194F82C30E98B03F0010396
:1072600020460A93FFF768FB29880B90A28C688858
:107270004FF00008904576D34FF00008C346474BC7
:107280001B689B0425D5464B1B68062B21DD2F214F
:10729000444807F05BFB002875D02F21414807F0D8
:1072A00055FB411C0B9A404BD3F80435CDF818B070
:1072B000CDE904720A9A039234F8062C029234F84B
:1072C000082C0192394A0092072040F25942F6F701
:1072D000B9FC0A9BBBB1B7B10B9BA3B1BBF1000FCB
:1072E00011D02B7D012B1FFA89F704D1A26A294600
:1072F000384601F049F8236AA26A03EBC80329461D
:107300005B683846984709F10109B9F1040F04F1A7
:10731000380499D10FB0BDE8F08FEB8A04339BB2EB
:10732000032B0AD90DF13201204602F093F940B146
:107330007846F1F7BFFC002683E700230646099351
:107340007FE706467DE7E08803280AD8184BBDF89A
:10735000321003EBC0000430FFF7EEFA00F0010733
:1073600079E73046FAE7236A03EBC80C33F8383084
:107370008B4203D1BCF80230834202D008F10108ED
:1073800078E7D3467BE75C21064807F0DFFA08B1CF
:107390005C2183E7034985E7204C0020542E002020
:1073A000502E002012FA03000010014082F9030061
:1073B000F84C00202DE9F04303681D7805F0C00269
:1073C000402AD1B004460FD003D86AB10026354612
:1073D00010E0802A00F09D80C02AF7D19A785E786C
:1073E000ADB246EA022605E0ADB27F2D00F08E80F8
:1073F0004FF6FF765A4B1A6812F4005F984619D080
:10740000584B1B68042B15DD2F21574807F09EFAB7
:10741000002800F082802F21534807F097FA411C82
:10742000524B534AD3F8043500920195F6220520B9
:10743000F6F708FCE06902F07BF98146A06902F0EA
:1074400063F94FF6FF739E42ADF81450ADF8166025
:1074500027686BD1FF2D8CBF022301234FF6FF72EB
:107460001F4496420697A38862D1FF2D8CBF02224B
:1074700001229B1A227A8DF820206289ADF8222001
:10748000E2680992227C8DF82820628AADF82A20D1
:1074900062690B9294F820208DF83020626A0D9278
:1074A000D8F80020ADF832909BB29204ADF81C30B1
:1074B000ADF8380027D52B4A1268042A23DD2D4A5F
:1074C000802B106828BF802300220FAC9A4231D154
:1074D00000232F21244804F8123007F037FA00283F
:1074E00035D02F21204807F031FA411C1F4B224A8A
:1074F000D3F804350192214A0092029440F20D1211
:107500000520F6F79FFB05A8FFF77EFE51B0BDE80A
:10751000F0835B7843EA05256AE75C21124807F0AF
:1075200015FA08B15C2177E70F4979E7032395E75E
:1075300003229EE7B95C0D0901F00F01455D04F8D7
:107540001250455C04EB420101324D70BEE75C21F4
:10755000054807F0FBF908B15C21C3E70249C5E71C
:10756000542E0020502E002012FA0300001001407B
:10757000D7F90300582E0020EAF9030032EF030088
:10758000037813B90430FFF715BF7047F0B506460E
:1075900085B014461D4681B17AB173B103AB0022A8
:1075A000FFF748FA10B9039805B0F0BD00952346DF
:1075B00000223046FFF7B4FAF6E70E20F4E708B5EC
:1075C000FFF788FA00F032FFBDE80840FFF764BA21
:1075D0002DE9F0470446002800F0C280002900F0A1
:1075E000BF80C3681BB18368002B00F0B9804FF6E1
:1075F000FF730B80E3681BB9A368002B40F0B280D7
:10760000A588022D00F2B0805A4B1B7813B10F20D1
:10761000BDE8F087584A062000FB05208678C07830
:10762000C64216461CD0B4F800E0B4F802C0534F6E
:107630004FF0380808FB03F2B8181FFA83F9B0F8C6
:107640000CA0AA457CD1B0F802A0E24578D1D25B6B
:10765000724575D1A1F8009090F83430DB07D6D48C
:10766000D4E902870025AF426FD108884FF6FF7337
:107670009842424B40D10022382505FB023797F84B
:107680003470FF0768D490B24FF6FF77B842088095
:107690006ED0382505FB0030C7800A8805FB023212
:1076A00097800A88A08805FB023290810A8860884A
:1076B00005FB023250800A8820886A4398520A8863
:1076C00005FB02356F742088A288B8424FF006008F
:1076D00000FB02620BBF9078D078013001300CBF04
:1076E0009070D0700A88382000FB023292F8340083
:1076F00040F0020082F834000A882569382000FB37
:10770000023215630A88A56800FB023295620A8876
:10771000E56800FB023295850A88646900FB023245
:1077200094610A8800FB0234A2820A8800FB0233BB
:10773000002093F8342042F0010283F8342067E7F8
:107740000133042B7FF476AF8AE758F83500FFF752
:1077500000F958B1013586E70132042A8DD193E74B
:107760000E2055E7092053E7052051E707204FE792
:1077700004204DE7D04B0020D24B0020184C0020B5
:107780007FB505460E4619B30DF10A03002200939A
:1077900003ABADF80A20FFF7B5FB044688B90D48E6
:1077A000039B38226A438118C97C49070CD002F137
:1077B0001301BDF80A200092014432462846FFF723
:1077C0003FF8204604B070BD1846F9F7C0F8F8E756
:1077D0000E24F6E7184C002013B514460A4639B1BA
:1077E00034B1002300932146FFF78CFB02B010BD9B
:1077F0000E20FBE710B50446FFF7CCF888B1172937
:1078000011D80A48382303FB0400C3888B4206D0F2
:1078100090F83430C18043F0020380F83430002007
:1078200000E0052010BD0720FCE700BF184C002039
:1078300010B5044651B1FFF7ADF848B1054B3822F9
:1078400002FB04340020E3880B8010BD0E20FCE70F
:107850000520FAE7184C0020032870B51DD8104AFF
:10786000382404FB002494F83430DD0715D5E47C7B
:1078700001F0070504F00706AE4204D1C1F3C405C8
:10788000B5EBD40F07D0382404FB002043F00203EB
:10789000C17480F83430002000E0052070BD00BFC6
:1078A000184C002069B103280DD8084B382202FB80
:1078B000003090F83430DB0705D5C37C0B70002016
:1078C00070470E2070470520704700BF184C0020FD
:1078D00038B50446154699B192B1FFF75BF888B107
:1078E0000A48382303FB040083696BB1837CC3F32C
:1078F00001030B70837CC3F385032B70002038BD1C
:107900000E20FCE70520FAE70620F8E7184C0020D7
:107910002DE9F3410DF107020DF106010546FFF7D0
:10792000D7FF10B17846F1F7C5F9284E9DF80770DA
:107930009DF80610382303FB05633C46B3F824800A
:10794000032923D8DFE801F005021A1E07EB87049C
:107950006400B4FBF8F3092B1CD8002F33D0012BA3
:1079600038BF0123DFB20021382000FB05603A4612
:107970001430FEF771FE02B0BDE8F081642417FBFD
:1079800004F4E6E741F270747C43E2E77846F1F7ED
:1079900091F9DEE7632B05D80A220121B3FBF2F34C
:1079A000DFB2E1E741F26F72934295BF642241F288
:1079B0007072B3FBF2F3B3FBF2F399BFDFB20221B3
:1079C000DFB20321D0E73946CEE700BF184C0020D4
:1079D000032810B50FD80B4A382404FB002393F872
:1079E0003420D20707D59A693AB141B19984FFF79B
:1079F0008FFF002010BD0520FCE70620FAE70720D6
:107A0000F8E700BF184C0020032838B52AD8184CD6
:107A1000382303FB004393F8345015F0010F25463B
:107A200020D09C6904B33F2A20D803291ED89B7C10
:107A3000B2EB930F03D103F003038B4210D0382431
:107A400004FB0054A37C62F3870361F30103A37476
:107A5000FFF75EFF94F8343043F0020384F83430CB
:107A6000002000E0052038BD0620FCE70720FAE7EB
:107A7000184C002038B5134B19780446F1B9FEF7BD
:107A800089FFE8B1104A382303FB04230846DB8949
:107A9000042B0ED10D4911F8303013F0010509D136
:107AA00043F0030301F83030382303FB0422D08174
:107AB000284638BD01300428EDD1FAE70F20F8E759
:107AC0000520F6E7D04B0020184C0020F84C002091
:107AD000F8B504460F46FEF75DFFE0B1124B3822C1
:107AE00002FB0434E689042E17D0172917D80F4C4F
:107AF000F50004356019FEF71FFF90B9012303FA62
:107B000007F163590B43635114F8363043F0020315
:107B100004F83630F8BD0520FCE70620FAE7072018
:107B2000F8E70020F6E700BF184C0020F84C0020D2
:107B3000F8B504460F46FEF72DFFF0B1124B382280
:107B400002FB0434E689042E19D0172919D80F4CEA
:107B5000F50004356019FEF7EFFE68B1012303FA62
:107B600007F1635923EA0103635114F8363043F0F7
:107B7000020304F836300020F8BD0520FCE706209B
:107B8000FAE70720F8E700BF184C0020F84C002067
:107B90002DE9F843064615460F4641B33AB3FEF7C2
:107BA000F9FE30B3164B382202FB0636F389042B5C
:107BB00021D00024DFF84C90B5F800802C80F089AB
:107BC00003280ED809EBC00021460430FEF7B4FEAE
:107BD00038B12B88984510D927F813402B880133EA
:107BE0002B800134182CEAD10020BDE8F8830E2048
:107BF000FBE70520F9E70620F7E70920F5E700BFD6
