Archive member included to satisfy reference by file (symbol)

external/rtt/librtt_nrf52840_xxAA.a(SEGGER_RTT.c.obj)
                              examples/enocean_switch/CMakeFiles/enocean_switch_nrf52840_xxAA_s140_6.1.1.dir/__/__/mesh/core/src/log.c.obj (SEGGER_RTT_Write)
external/rtt/librtt_nrf52840_xxAA.a(SEGGER_RTT_printf.c.obj)
                              examples/enocean_switch/CMakeFiles/enocean_switch_nrf52840_xxAA_s140_6.1.1.dir/__/__/mesh/core/src/log.c.obj (SEGGER_RTT_vprintf)
external/micro-ecc/libuECC_nrf52840_xxAA.a(uECC.c.obj)
                              examples/enocean_switch/CMakeFiles/enocean_switch_nrf52840_xxAA_s140_6.1.1.dir/__/__/mesh/prov/src/prov_utils.c.obj (uECC_secp256r1)
c:/mesh/arm_gcc/bin/../lib/gcc/arm-none-eabi/7.3.1/thumb/v7e-m/fpv4-sp/hard\libgcc.a(_aeabi_ldivmod.o)
                              examples/enocean_switch/CMakeFiles/enocean_switch_nrf52840_xxAA_s140_6.1.1.dir/__/common/src/rtt_input.c.obj (__aeabi_ldivmod)
c:/mesh/arm_gcc/bin/../lib/gcc/arm-none-eabi/7.3.1/thumb/v7e-m/fpv4-sp/hard\libgcc.a(_aeabi_uldivmod.o)
                              examples/enocean_switch/CMakeFiles/enocean_switch_nrf52840_xxAA_s140_6.1.1.dir/__/common/src/rtt_input.c.obj (__aeabi_uldivmod)
c:/mesh/arm_gcc/bin/../lib/gcc/arm-none-eabi/7.3.1/thumb/v7e-m/fpv4-sp/hard\libgcc.a(_udivmoddi4.o)
                              c:/mesh/arm_gcc/bin/../lib/gcc/arm-none-eabi/7.3.1/thumb/v7e-m/fpv4-sp/hard\libgcc.a(_aeabi_ldivmod.o) (__udivmoddi4)
c:/mesh/arm_gcc/bin/../lib/gcc/arm-none-eabi/7.3.1/thumb/v7e-m/fpv4-sp/hard\libgcc.a(_dvmd_tls.o)
                              c:/mesh/arm_gcc/bin/../lib/gcc/arm-none-eabi/7.3.1/thumb/v7e-m/fpv4-sp/hard\libgcc.a(_aeabi_ldivmod.o) (__aeabi_ldiv0)
c:/mesh/arm_gcc/bin/../lib/gcc/arm-none-eabi/7.3.1/../../../../arm-none-eabi/lib/thumb/v7e-m/fpv4-sp/hard\libg_nano.a(lib_a-calloc.o)
                              examples/enocean_switch/CMakeFiles/enocean_switch_nrf52840_xxAA_s140_6.1.1.dir/__/__/mesh/core/src/mesh_mem_stdlib.c.obj (calloc)
c:/mesh/arm_gcc/bin/../lib/gcc/arm-none-eabi/7.3.1/../../../../arm-none-eabi/lib/thumb/v7e-m/fpv4-sp/hard\libg_nano.a(lib_a-exit.o)
                              c:/mesh/arm_gcc/bin/../lib/gcc/arm-none-eabi/7.3.1/../../../../arm-none-eabi/lib/thumb/v7e-m/fpv4-sp/hard/crt0.o (exit)
c:/mesh/arm_gcc/bin/../lib/gcc/arm-none-eabi/7.3.1/../../../../arm-none-eabi/lib/thumb/v7e-m/fpv4-sp/hard\libg_nano.a(lib_a-impure.o)
                              c:/mesh/arm_gcc/bin/../lib/gcc/arm-none-eabi/7.3.1/../../../../arm-none-eabi/lib/thumb/v7e-m/fpv4-sp/hard\libg_nano.a(lib_a-exit.o) (_global_impure_ptr)
c:/mesh/arm_gcc/bin/../lib/gcc/arm-none-eabi/7.3.1/../../../../arm-none-eabi/lib/thumb/v7e-m/fpv4-sp/hard\libg_nano.a(lib_a-init.o)
                              c:/mesh/arm_gcc/bin/../lib/gcc/arm-none-eabi/7.3.1/../../../../arm-none-eabi/lib/thumb/v7e-m/fpv4-sp/hard/crt0.o (__libc_init_array)
c:/mesh/arm_gcc/bin/../lib/gcc/arm-none-eabi/7.3.1/../../../../arm-none-eabi/lib/thumb/v7e-m/fpv4-sp/hard\libg_nano.a(lib_a-malloc.o)
                              examples/enocean_switch/CMakeFiles/enocean_switch_nrf52840_xxAA_s140_6.1.1.dir/__/__/mesh/core/src/mesh_mem_stdlib.c.obj (malloc)
c:/mesh/arm_gcc/bin/../lib/gcc/arm-none-eabi/7.3.1/../../../../arm-none-eabi/lib/thumb/v7e-m/fpv4-sp/hard\libg_nano.a(lib_a-memcmp.o)
                              examples/enocean_switch/CMakeFiles/enocean_switch_nrf52840_xxAA_s140_6.1.1.dir/src/main.c.obj (memcmp)
c:/mesh/arm_gcc/bin/../lib/gcc/arm-none-eabi/7.3.1/../../../../arm-none-eabi/lib/thumb/v7e-m/fpv4-sp/hard\libg_nano.a(lib_a-memcpy-stub.o)
                              examples/enocean_switch/CMakeFiles/enocean_switch_nrf52840_xxAA_s140_6.1.1.dir/src/main.c.obj (memcpy)
c:/mesh/arm_gcc/bin/../lib/gcc/arm-none-eabi/7.3.1/../../../../arm-none-eabi/lib/thumb/v7e-m/fpv4-sp/hard\libg_nano.a(lib_a-memset.o)
                              c:/mesh/arm_gcc/bin/../lib/gcc/arm-none-eabi/7.3.1/../../../../arm-none-eabi/lib/thumb/v7e-m/fpv4-sp/hard/crt0.o (memset)
c:/mesh/arm_gcc/bin/../lib/gcc/arm-none-eabi/7.3.1/../../../../arm-none-eabi/lib/thumb/v7e-m/fpv4-sp/hard\libg_nano.a(lib_a-nano-callocr.o)
                              c:/mesh/arm_gcc/bin/../lib/gcc/arm-none-eabi/7.3.1/../../../../arm-none-eabi/lib/thumb/v7e-m/fpv4-sp/hard\libg_nano.a(lib_a-calloc.o) (_calloc_r)
c:/mesh/arm_gcc/bin/../lib/gcc/arm-none-eabi/7.3.1/../../../../arm-none-eabi/lib/thumb/v7e-m/fpv4-sp/hard\libg_nano.a(lib_a-nano-freer.o)
                              c:/mesh/arm_gcc/bin/../lib/gcc/arm-none-eabi/7.3.1/../../../../arm-none-eabi/lib/thumb/v7e-m/fpv4-sp/hard\libg_nano.a(lib_a-malloc.o) (_free_r)
c:/mesh/arm_gcc/bin/../lib/gcc/arm-none-eabi/7.3.1/../../../../arm-none-eabi/lib/thumb/v7e-m/fpv4-sp/hard\libg_nano.a(lib_a-nano-mallocr.o)
                              c:/mesh/arm_gcc/bin/../lib/gcc/arm-none-eabi/7.3.1/../../../../arm-none-eabi/lib/thumb/v7e-m/fpv4-sp/hard\libg_nano.a(lib_a-malloc.o) (_malloc_r)
c:/mesh/arm_gcc/bin/../lib/gcc/arm-none-eabi/7.3.1/../../../../arm-none-eabi/lib/thumb/v7e-m/fpv4-sp/hard\libg_nano.a(lib_a-sbrkr.o)
                              c:/mesh/arm_gcc/bin/../lib/gcc/arm-none-eabi/7.3.1/../../../../arm-none-eabi/lib/thumb/v7e-m/fpv4-sp/hard\libg_nano.a(lib_a-nano-mallocr.o) (_sbrk_r)
c:/mesh/arm_gcc/bin/../lib/gcc/arm-none-eabi/7.3.1/../../../../arm-none-eabi/lib/thumb/v7e-m/fpv4-sp/hard\libg_nano.a(lib_a-strcpy.o)
                              external/rtt/librtt_nrf52840_xxAA.a(SEGGER_RTT.c.obj) (strcpy)
c:/mesh/arm_gcc/bin/../lib/gcc/arm-none-eabi/7.3.1/../../../../arm-none-eabi/lib/thumb/v7e-m/fpv4-sp/hard\libg_nano.a(lib_a-strlen.o)
                              examples/enocean_switch/CMakeFiles/enocean_switch_nrf52840_xxAA_s140_6.1.1.dir/__/common/src/ble_softdevice_support.c.obj (strlen)
c:/mesh/arm_gcc/bin/../lib/gcc/arm-none-eabi/7.3.1/../../../../arm-none-eabi/lib/thumb/v7e-m/fpv4-sp/hard\libg_nano.a(lib_a-strrchr.o)
                              examples/enocean_switch/CMakeFiles/enocean_switch_nrf52840_xxAA_s140_6.1.1.dir/src/main.c.obj (strrchr)
c:/mesh/arm_gcc/bin/../lib/gcc/arm-none-eabi/7.3.1/../../../../arm-none-eabi/lib/thumb/v7e-m/fpv4-sp/hard\libg_nano.a(lib_a-mlock.o)
                              c:/mesh/arm_gcc/bin/../lib/gcc/arm-none-eabi/7.3.1/../../../../arm-none-eabi/lib/thumb/v7e-m/fpv4-sp/hard\libg_nano.a(lib_a-nano-freer.o) (__malloc_lock)
c:/mesh/arm_gcc/bin/../lib/gcc/arm-none-eabi/7.3.1/../../../../arm-none-eabi/lib/thumb/v7e-m/fpv4-sp/hard\libg_nano.a(lib_a-reent.o)
                              c:/mesh/arm_gcc/bin/../lib/gcc/arm-none-eabi/7.3.1/../../../../arm-none-eabi/lib/thumb/v7e-m/fpv4-sp/hard\libg_nano.a(lib_a-sbrkr.o) (errno)
c:/mesh/arm_gcc/bin/../lib/gcc/arm-none-eabi/7.3.1/../../../../arm-none-eabi/lib/thumb/v7e-m/fpv4-sp/hard\libg_nano.a(lib_a-strchr.o)
                              c:/mesh/arm_gcc/bin/../lib/gcc/arm-none-eabi/7.3.1/../../../../arm-none-eabi/lib/thumb/v7e-m/fpv4-sp/hard\libg_nano.a(lib_a-strrchr.o) (strchr)
c:/mesh/arm_gcc/bin/../lib/gcc/arm-none-eabi/7.3.1/../../../../arm-none-eabi/lib/thumb/v7e-m/fpv4-sp/hard\libnosys.a(sbrk.o)
                              c:/mesh/arm_gcc/bin/../lib/gcc/arm-none-eabi/7.3.1/../../../../arm-none-eabi/lib/thumb/v7e-m/fpv4-sp/hard\libg_nano.a(lib_a-sbrkr.o) (_sbrk)
c:/mesh/arm_gcc/bin/../lib/gcc/arm-none-eabi/7.3.1/../../../../arm-none-eabi/lib/thumb/v7e-m/fpv4-sp/hard\libnosys.a(_exit.o)
                              c:/mesh/arm_gcc/bin/../lib/gcc/arm-none-eabi/7.3.1/../../../../arm-none-eabi/lib/thumb/v7e-m/fpv4-sp/hard\libg_nano.a(lib_a-exit.o) (_exit)

Allocating common symbols
Common symbol       size              file

nrf_nvic_state      0xc               examples/enocean_switch/CMakeFiles/enocean_switch_nrf52840_xxAA_s140_6.1.1.dir/C_/mesh/deps/nRF5_SDK_15.3.0_59ac345/components/libraries/util/app_util_platform.c.obj
m_packet            0x24              examples/enocean_switch/CMakeFiles/enocean_switch_nrf52840_xxAA_s140_6.1.1.dir/__/__/mesh/core/src/core_tx.c.obj
errno               0x4               c:/mesh/arm_gcc/bin/../lib/gcc/arm-none-eabi/7.3.1/../../../../arm-none-eabi/lib/thumb/v7e-m/fpv4-sp/hard\libg_nano.a(lib_a-reent.o)
_SEGGER_RTT         0x78              external/rtt/librtt_nrf52840_xxAA.a(SEGGER_RTT.c.obj)

Discarded input sections

 .text          0x00000000        0x0 c:/mesh/arm_gcc/bin/../lib/gcc/arm-none-eabi/7.3.1/thumb/v7e-m/fpv4-sp/hard/crti.o
 .data          0x00000000        0x0 c:/mesh/arm_gcc/bin/../lib/gcc/arm-none-eabi/7.3.1/thumb/v7e-m/fpv4-sp/hard/crti.o
 .bss           0x00000000        0x0 c:/mesh/arm_gcc/bin/../lib/gcc/arm-none-eabi/7.3.1/thumb/v7e-m/fpv4-sp/hard/crti.o
 .data          0x00000000        0x4 c:/mesh/arm_gcc/bin/../lib/gcc/arm-none-eabi/7.3.1/thumb/v7e-m/fpv4-sp/hard/crtbegin.o
 .data          0x00000000        0x0 c:/mesh/arm_gcc/bin/../lib/gcc/arm-none-eabi/7.3.1/../../../../arm-none-eabi/lib/thumb/v7e-m/fpv4-sp/hard/crt0.o
 .bss           0x00000000        0x0 c:/mesh/arm_gcc/bin/../lib/gcc/arm-none-eabi/7.3.1/../../../../arm-none-eabi/lib/thumb/v7e-m/fpv4-sp/hard/crt0.o
 .ARM.extab     0x00000000        0x0 c:/mesh/arm_gcc/bin/../lib/gcc/arm-none-eabi/7.3.1/../../../../arm-none-eabi/lib/thumb/v7e-m/fpv4-sp/hard/crt0.o
 .text          0x00000000        0x0 examples/enocean_switch/CMakeFiles/enocean_switch_nrf52840_xxAA_s140_6.1.1.dir/src/main.c.obj
 .data          0x00000000        0x0 examples/enocean_switch/CMakeFiles/enocean_switch_nrf52840_xxAA_s140_6.1.1.dir/src/main.c.obj
 .bss           0x00000000        0x0 examples/enocean_switch/CMakeFiles/enocean_switch_nrf52840_xxAA_s140_6.1.1.dir/src/main.c.obj
 .text          0x00000000        0x0 examples/enocean_switch/CMakeFiles/enocean_switch_nrf52840_xxAA_s140_6.1.1.dir/src/enocean.c.obj
 .data          0x00000000        0x0 examples/enocean_switch/CMakeFiles/enocean_switch_nrf52840_xxAA_s140_6.1.1.dir/src/enocean.c.obj
 .bss           0x00000000        0x0 examples/enocean_switch/CMakeFiles/enocean_switch_nrf52840_xxAA_s140_6.1.1.dir/src/enocean.c.obj
 .text          0x00000000        0x0 examples/enocean_switch/CMakeFiles/enocean_switch_nrf52840_xxAA_s140_6.1.1.dir/src/flash_helper.c.obj
 .data          0x00000000        0x0 examples/enocean_switch/CMakeFiles/enocean_switch_nrf52840_xxAA_s140_6.1.1.dir/src/flash_helper.c.obj
 .bss           0x00000000        0x0 examples/enocean_switch/CMakeFiles/enocean_switch_nrf52840_xxAA_s140_6.1.1.dir/src/flash_helper.c.obj
 .text          0x00000000        0x0 examples/enocean_switch/CMakeFiles/enocean_switch_nrf52840_xxAA_s140_6.1.1.dir/__/__/mesh/stack/src/mesh_stack.c.obj
 .data          0x00000000        0x0 examples/enocean_switch/CMakeFiles/enocean_switch_nrf52840_xxAA_s140_6.1.1.dir/__/__/mesh/stack/src/mesh_stack.c.obj
Memory Configuration

Name             Origin             Length             Attributes
FLASH            0x00026000         0x000d1000         xr
RAM              0x20002da0         0x0003cf60         xrw
*default*        0x00000000         0xffffffff

Linker script and memory map


.text           0x00026000    0x1a268
 *(.isr_vector)
 .isr_vector    0x00026000      0x200 examples/enocean_switch/CMakeFiles/enocean_switch_nrf52840_xxAA_s140_6.1.1.dir/C_/mesh/deps/nRF5_SDK_15.3.0_59ac345/modules/nrfx/mdk/gcc_startup_nrf52840.S.obj
                0x00026000                __isr_vector
 *(.text*)
 .text          0x00026200       0x40 c:/mesh/arm_gcc/bin/../lib/gcc/arm-none-eabi/7.3.1/thumb/v7e-m/fpv4-sp/hard/crtbegin.o
 .text          0x00026240       0x74 c:/mesh/arm_gcc/bin/../lib/gcc/arm-none-eabi/7.3.1/../../../../arm-none-eabi/lib/thumb/v7e-m/fpv4-sp/hard/crt0.o
                0x00026240                _start
                0x00026240                _mainCRTStartup
 .text.sd_app_evt_wait
                0x000262b4        0x4 examples/enocean_switch/CMakeFiles/enocean_switch_nrf52840_xxAA_s140_6.1.1.dir/src/main.c.obj
 .text.app_generic_onoff_client_status_cb
                0x000262b8       0xd4 examples/enocean_switch/CMakeFiles/enocean_switch_nrf52840_xxAA_s140_6.1.1.dir/src/main.c.obj
 .text.app_gen_onoff_client_transaction_status_cb
                0x0002638c      0x124 examples/enocean_switch/CMakeFiles/enocean_switch_nrf52840_xxAA_s140_6.1.1.dir/src/main.c.obj
 .text.app_data_store_try
                0x000264b0      0x108 examples/enocean_switch/CMakeFiles/enocean_switch_nrf52840_xxAA_s140_6.1.1.dir/src/main.c.obj
 .text.node_reset
                0x000265b8       0x78 examples/enocean_switch/CMakeFiles/enocean_switch_nrf52840_xxAA_s140_6.1.1.dir/src/main.c.obj
 .text.button_event_handler
                0x00026630       0x98 examples/enocean_switch/CMakeFiles/enocean_switch_nrf52840_xxAA_s140_6.1.1.dir/src/main.c.obj
 .text.app_rtt_input_handler
                0x000266c8        0xc examples/enocean_switch/CMakeFiles/enocean_switch_nrf52840_xxAA_s140_6.1.1.dir/src/main.c.obj
 .text.rx_callback
                0x000266d4        0x4 examples/enocean_switch/CMakeFiles/enocean_switch_nrf52840_xxAA_s140_6.1.1.dir/src/main.c.obj
 .text.models_init_cb
                0x000266d8       0xc0 examples/enocean_switch/CMakeFiles/enocean_switch_nrf52840_xxAA_s140_6.1.1.dir/src/main.c.obj
 .text.device_identification_start_cb
                0x00026798       0x22 examples/enocean_switch/CMakeFiles/enocean_switch_nrf52840_xxAA_s140_6.1.1.dir/src/main.c.obj
 .text.provisioning_aborted_cb
                0x000267ba        0x4 examples/enocean_switch/CMakeFiles/enocean_switch_nrf52840_xxAA_s140_6.1.1.dir/src/main.c.obj
 *fill*         0x000267be        0x2 
 .text.provisioning_complete_cb
                0x000267c0       0xe0 examples/enocean_switch/CMakeFiles/enocean_switch_nrf52840_xxAA_s140_6.1.1.dir/src/main.c.obj
 .text.app_gen_onoff_client_publish_interval_cb
                0x000268a0       0x68 examples/enocean_switch/CMakeFiles/enocean_switch_nrf52840_xxAA_s140_6.1.1.dir/src/main.c.obj
 .text.app_enocean_cb
                0x00026908      0x328 examples/enocean_switch/CMakeFiles/enocean_switch_nrf52840_xxAA_s140_6.1.1.dir/src/main.c.obj
 .text.config_server_evt_cb
                0x00026c30       0x20 examples/enocean_switch/CMakeFiles/enocean_switch_nrf52840_xxAA_s140_6.1.1.dir/src/main.c.obj
 .text.app_mesh_core_event_cb
                0x00026c50      0x18c examples/enocean_switch/CMakeFiles/enocean_switch_nrf52840_xxAA_s140_6.1.1.dir/src/main.c.obj
 .text.startup.main
                0x00026ddc      0x174 examples/enocean_switch/CMakeFiles/enocean_switch_nrf52840_xxAA_s140_6.1.1.dir/src/main.c.obj
                0x00026ddc                main
 .text.enocean_packet_process
                0x00026f50      0x1f4 examples/enocean_switch/CMakeFiles/enocean_switch_nrf52840_xxAA_s140_6.1.1.dir/src/enocean.c.obj
                0x00026f50                enocean_packet_process
 .text.enocean_secmat_add
                0x00027144       0x20 examples/enocean_switch/CMakeFiles/enocean_switch_nrf52840_xxAA_s140_6.1.1.dir/src/enocean.c.obj
                0x00027144                enocean_secmat_add
 .text.enocean_translator_init
                0x00027164       0x18 examples/enocean_switch/CMakeFiles/enocean_switch_nrf52840_xxAA_s140_6.1.1.dir/src/enocean.c.obj
                0x00027164                enocean_translator_init
 .text.flash_invalidate_complete
                0x0002717c       0x10 examples/enocean_switch/CMakeFiles/enocean_switch_nrf52840_xxAA_s140_6.1.1.dir/src/flash_helper.c.obj
 .text.flash_manager_mem_available
                0x0002718c       0x6c examples/enocean_switch/CMakeFiles/enocean_switch_nrf52840_xxAA_s140_6.1.1.dir/src/flash_helper.c.obj
 .text.flash_write_complete
                0x000271f8       0x8c examples/enocean_switch/CMakeFiles/enocean_switch_nrf52840_xxAA_s140_6.1.1.dir/src/flash_helper.c.obj
 .text.flash_reset
                0x00027284       0x80 examples/enocean_switch/CMakeFiles/enocean_switch_nrf52840_xxAA_s140_6.1.1.dir/src/flash_helper.c.obj
 .text.app_flash_init
                0x00027304       0xb8 examples/enocean_switch/CMakeFiles/enocean_switch_nrf52840_xxAA_s140_6.1.1.dir/src/flash_helper.c.obj
                0x00027304                app_flash_init
 .text.flash_remove_complete
                0x000273bc       0x64 examples/enocean_switch/CMakeFiles/enocean_switch_nrf52840_xxAA_s140_6.1.1.dir/src/flash_helper.c.obj
 .text.app_flash_data_load
                0x00027420       0x30 examples/enocean_switch/CMakeFiles/enocean_switch_nrf52840_xxAA_s140_6.1.1.dir/src/flash_helper.c.obj
                0x00027420                app_flash_data_load
 .text.app_flash_data_store
                0x00027450       0x8c examples/enocean_switch/CMakeFiles/enocean_switch_nrf52840_xxAA_s140_6.1.1.dir/src/flash_helper.c.obj
                0x00027450                app_flash_data_store
 .text.app_flash_clear
                0x000274dc       0x12 examples/enocean_switch/CMakeFiles/enocean_switch_nrf52840_xxAA_s140_6.1.1.dir/src/flash_helper.c.obj
                0x000274dc                app_flash_clear
 .text.mesh_evt_handler
                0x000274ee       0x1c examples/enocean_switch/CMakeFiles/enocean_switch_nrf52840_xxAA_s140_6.1.1.dir/__/__/mesh/stack/src/mesh_stack.c.obj
 *fill*         0x0002750a        0x2 
 .text.mesh_stack_provisioning_data_store
                0x0002750c       0xe4 examples/enocean_switch/CMakeFiles/enocean_switch_nrf52840_xxAA_s140_6.1.1.dir/__/__/mesh/stack/src/mesh_stack.c.obj
                0x0002750c                mesh_stack_provisioning_data_store
 .text.mesh_stack_config_clear
                0x000275f0       0x16 examples/enocean_switch/CMakeFiles/enocean_switch_nrf52840_xxAA_s140_6.1.1.dir/__/__/mesh/stack/src/mesh_stack.c.obj
                0x000275f0                mesh_stack_config_clear
 .text.mesh_stack_is_device_provisioned
                0x00027606       0x18 examples/enocean_switch/CMakeFiles/enocean_switch_nrf52840_xxAA_s140_6.1.1.dir/__/__/mesh/stack/src/mesh_stack.c.obj
                0x00027606                mesh_stack_is_device_provisioned
 *fill*         0x0002761e        0x2 
 .text.mesh_stack_init
                0x00027620       0x70 examples/enocean_switch/CMakeFiles/enocean_switch_nrf52840_xxAA_s140_6.1.1.dir/__/__/mesh/stack/src/mesh_stack.c.obj
                0x00027620                mesh_stack_init
 .text.mesh_stack_start
                0x00027690       0x1a examples/enocean_switch/CMakeFiles/enocean_switch_nrf52840_xxAA_s140_6.1.1.dir/__/__/mesh/stack/src/mesh_stack.c.obj
                0x00027690                mesh_stack_start
 *fill*         0x000276aa        0x2 
 .text.mesh_stack_device_reset
                0x000276ac       0x20 examples/enocean_switch/CMakeFiles/enocean_switch_nrf52840_xxAA_s140_6.1.1.dir/__/__/mesh/stack/src/mesh_stack.c.obj
                0x000276ac                mesh_stack_device_reset
 .text.mesh_stack_persistence_flash_usage
                0x000276cc       0x36 examples/enocean_switch/CMakeFiles/enocean_switch_nrf52840_xxAA_s140_6.1.1.dir/__/__/mesh/stack/src/mesh_stack.c.obj
                0x000276cc                mesh_stack_persistence_flash_usage
 *fill*         0x00027702        0x2 
 .text.sd_state_evt_handler
                0x00027704       0xa8 examples/enocean_switch/CMakeFiles/enocean_switch_nrf52840_xxAA_s140_6.1.1.dir/__/common/src/mesh_provisionee.c.obj
 .text.mesh_evt_handler
                0x000277ac       0x2c examples/enocean_switch/CMakeFiles/enocean_switch_nrf52840_xxAA_s140_6.1.1.dir/__/common/src/mesh_provisionee.c.obj
 .text.provisionee_start
                0x000277d8       0x30 examples/enocean_switch/CMakeFiles/enocean_switch_nrf52840_xxAA_s140_6.1.1.dir/__/common/src/mesh_provisionee.c.obj
 .text.prov_evt_handler
                0x00027808       0xbc examples/enocean_switch/CMakeFiles/enocean_switch_nrf52840_xxAA_s140_6.1.1.dir/__/common/src/mesh_provisionee.c.obj
 .text.mesh_provisionee_prov_start
                0x000278c4       0x94 examples/enocean_switch/CMakeFiles/enocean_switch_nrf52840_xxAA_s140_6.1.1.dir/__/common/src/mesh_provisionee.c.obj
                0x000278c4                mesh_provisionee_prov_start
 .text.timeout_handler
                0x00027958       0x1c examples/enocean_switch/CMakeFiles/enocean_switch_nrf52840_xxAA_s140_6.1.1.dir/__/common/src/rtt_input.c.obj
                0x00027958                timeout_handler
 .text.rtt_input_enable
                0x00027974       0x6c examples/enocean_switch/CMakeFiles/enocean_switch_nrf52840_xxAA_s140_6.1.1.dir/__/common/src/rtt_input.c.obj
                0x00027974                rtt_input_enable
 .text.led_timeout_handler
                0x000279e0       0x54 examples/enocean_switch/CMakeFiles/enocean_switch_nrf52840_xxAA_s140_6.1.1.dir/__/common/src/simple_hal.c.obj
 .text.hal_led_pin_set
                0x00027a34       0x18 examples/enocean_switch/CMakeFiles/enocean_switch_nrf52840_xxAA_s140_6.1.1.dir/__/common/src/simple_hal.c.obj
                0x00027a34                hal_led_pin_set
 .text.hal_led_mask_set
                0x00027a4c       0x12 examples/enocean_switch/CMakeFiles/enocean_switch_nrf52840_xxAA_s140_6.1.1.dir/__/common/src/simple_hal.c.obj
                0x00027a4c                hal_led_mask_set
 *fill*         0x00027a5e        0x2 
 .text.hal_led_blink_ms
                0x00027a60       0x64 examples/enocean_switch/CMakeFiles/enocean_switch_nrf52840_xxAA_s140_6.1.1.dir/__/common/src/simple_hal.c.obj
                0x00027a60                hal_led_blink_ms
 .text.hal_led_blink_stop
                0x00027ac4       0x20 examples/enocean_switch/CMakeFiles/enocean_switch_nrf52840_xxAA_s140_6.1.1.dir/__/common/src/simple_hal.c.obj
                0x00027ac4                hal_led_blink_stop
 .text.hal_leds_init
                0x00027ae4       0x58 examples/enocean_switch/CMakeFiles/enocean_switch_nrf52840_xxAA_s140_6.1.1.dir/__/common/src/simple_hal.c.obj
                0x00027ae4                hal_leds_init
 .text.hal_buttons_init
                0x00027b3c       0x50 examples/enocean_switch/CMakeFiles/enocean_switch_nrf52840_xxAA_s140_6.1.1.dir/__/common/src/simple_hal.c.obj
                0x00027b3c                hal_buttons_init
 .text.GPIOTE_IRQHandler
                0x00027b8c       0x60 examples/enocean_switch/CMakeFiles/enocean_switch_nrf52840_xxAA_s140_6.1.1.dir/__/common/src/simple_hal.c.obj
                0x00027b8c                GPIOTE_IRQHandler
 .text.mesh_app_uuid_print
                0x00027bec      0x11c examples/enocean_switch/CMakeFiles/enocean_switch_nrf52840_xxAA_s140_6.1.1.dir/__/common/src/mesh_app_utils.c.obj
                0x00027bec                mesh_app_uuid_print
 .text.sd_ble_gap_adv_set_configure
                0x00027d08        0x4 examples/enocean_switch/CMakeFiles/enocean_switch_nrf52840_xxAA_s140_6.1.1.dir/__/common/src/mesh_adv.c.obj
 .text.sd_ble_gap_adv_start
                0x00027d0c        0x4 examples/enocean_switch/CMakeFiles/enocean_switch_nrf52840_xxAA_s140_6.1.1.dir/__/common/src/mesh_adv.c.obj
 .text.sd_ble_gap_adv_stop
                0x00027d10        0x4 examples/enocean_switch/CMakeFiles/enocean_switch_nrf52840_xxAA_s140_6.1.1.dir/__/common/src/mesh_adv.c.obj
 .text.mesh_adv_data_set
                0x00027d14       0xdc examples/enocean_switch/CMakeFiles/enocean_switch_nrf52840_xxAA_s140_6.1.1.dir/__/common/src/mesh_adv.c.obj
                0x00027d14                mesh_adv_data_set
 .text.mesh_adv_params_set
                0x00027df0       0x28 examples/enocean_switch/CMakeFiles/enocean_switch_nrf52840_xxAA_s140_6.1.1.dir/__/common/src/mesh_adv.c.obj
                0x00027df0                mesh_adv_params_set
 .text.mesh_adv_start
                0x00027e18       0x20 examples/enocean_switch/CMakeFiles/enocean_switch_nrf52840_xxAA_s140_6.1.1.dir/__/common/src/mesh_adv.c.obj
                0x00027e18                mesh_adv_start
 .text.mesh_adv_stop
                0x00027e38       0x1c examples/enocean_switch/CMakeFiles/enocean_switch_nrf52840_xxAA_s140_6.1.1.dir/__/common/src/mesh_adv.c.obj
                0x00027e38                mesh_adv_stop
 .text.sd_ble_gap_disconnect
                0x00027e54        0x4 examples/enocean_switch/CMakeFiles/enocean_switch_nrf52840_xxAA_s140_6.1.1.dir/__/common/src/ble_softdevice_support.c.obj
 .text.sd_ble_gap_ppcp_set
                0x00027e58        0x4 examples/enocean_switch/CMakeFiles/enocean_switch_nrf52840_xxAA_s140_6.1.1.dir/__/common/src/ble_softdevice_support.c.obj
 .text.sd_ble_gap_device_name_set
                0x00027e5c        0x4 examples/enocean_switch/CMakeFiles/enocean_switch_nrf52840_xxAA_s140_6.1.1.dir/__/common/src/ble_softdevice_support.c.obj
 .text.conn_params_error_handler
                0x00027e60        0x4 examples/enocean_switch/CMakeFiles/enocean_switch_nrf52840_xxAA_s140_6.1.1.dir/__/common/src/ble_softdevice_support.c.obj
 .text.on_sd_evt
                0x00027e64        0x4 examples/enocean_switch/CMakeFiles/enocean_switch_nrf52840_xxAA_s140_6.1.1.dir/__/common/src/ble_softdevice_support.c.obj
 .text.on_conn_params_evt
                0x00027e68       0x80 examples/enocean_switch/CMakeFiles/enocean_switch_nrf52840_xxAA_s140_6.1.1.dir/__/common/src/ble_softdevice_support.c.obj
 .text.ble_stack_init
                0x00027ee8       0x32 examples/enocean_switch/CMakeFiles/enocean_switch_nrf52840_xxAA_s140_6.1.1.dir/__/common/src/ble_softdevice_support.c.obj
                0x00027ee8                ble_stack_init
 *fill*         0x00027f1a        0x2 
 .text.gap_params_init
                0x00027f1c       0x50 examples/enocean_switch/CMakeFiles/enocean_switch_nrf52840_xxAA_s140_6.1.1.dir/__/common/src/ble_softdevice_support.c.obj
                0x00027f1c                gap_params_init
 .text.conn_params_init
                0x00027f6c       0x68 examples/enocean_switch/CMakeFiles/enocean_switch_nrf52840_xxAA_s140_6.1.1.dir/__/common/src/ble_softdevice_support.c.obj
                0x00027f6c                conn_params_init
 .text.app_util_critical_region_enter
                0x00027fd4       0x48 examples/enocean_switch/CMakeFiles/enocean_switch_nrf52840_xxAA_s140_6.1.1.dir/C_/mesh/deps/nRF5_SDK_15.3.0_59ac345/components/libraries/util/app_util_platform.c.obj
                0x00027fd4                app_util_critical_region_enter
 .text.app_util_critical_region_exit
                0x0002801c       0x2c examples/enocean_switch/CMakeFiles/enocean_switch_nrf52840_xxAA_s140_6.1.1.dir/C_/mesh/deps/nRF5_SDK_15.3.0_59ac345/components/libraries/util/app_util_platform.c.obj
                0x0002801c                app_util_critical_region_exit
 .text.sd_ble_gap_addr_get
                0x00028048        0x4 examples/enocean_switch/CMakeFiles/enocean_switch_nrf52840_xxAA_s140_6.1.1.dir/C_/mesh/deps/nRF5_SDK_15.3.0_59ac345/components/ble/common/ble_advdata.c.obj
 .text.sd_ble_gap_appearance_get
                0x0002804c        0x4 examples/enocean_switch/CMakeFiles/enocean_switch_nrf52840_xxAA_s140_6.1.1.dir/C_/mesh/deps/nRF5_SDK_15.3.0_59ac345/components/ble/common/ble_advdata.c.obj
 .text.sd_ble_gap_device_name_get
                0x00028050        0x4 examples/enocean_switch/CMakeFiles/enocean_switch_nrf52840_xxAA_s140_6.1.1.dir/C_/mesh/deps/nRF5_SDK_15.3.0_59ac345/components/ble/common/ble_advdata.c.obj
 .text.sd_ble_uuid_encode
                0x00028054        0x4 examples/enocean_switch/CMakeFiles/enocean_switch_nrf52840_xxAA_s140_6.1.1.dir/C_/mesh/deps/nRF5_SDK_15.3.0_59ac345/components/ble/common/ble_advdata.c.obj
 .text.uuid_list_sized_encode
                0x00028058       0xa4 examples/enocean_switch/CMakeFiles/enocean_switch_nrf52840_xxAA_s140_6.1.1.dir/C_/mesh/deps/nRF5_SDK_15.3.0_59ac345/components/ble/common/ble_advdata.c.obj
 .text.uuid_list_encode
                0x000280fc       0x34 examples/enocean_switch/CMakeFiles/enocean_switch_nrf52840_xxAA_s140_6.1.1.dir/C_/mesh/deps/nRF5_SDK_15.3.0_59ac345/components/ble/common/ble_advdata.c.obj
 .text.ble_advdata_encode
                0x00028130      0x392 examples/enocean_switch/CMakeFiles/enocean_switch_nrf52840_xxAA_s140_6.1.1.dir/C_/mesh/deps/nRF5_SDK_15.3.0_59ac345/components/ble/common/ble_advdata.c.obj
                0x00028130                ble_advdata_encode
 .text.nrf_section_iter_init
                0x000284c2       0x12 examples/enocean_switch/CMakeFiles/enocean_switch_nrf52840_xxAA_s140_6.1.1.dir/C_/mesh/deps/nRF5_SDK_15.3.0_59ac345/components/libraries/experimental_section_vars/nrf_section_iter.c.obj
                0x000284c2                nrf_section_iter_init
 .text.nrf_section_iter_next
                0x000284d4       0x18 examples/enocean_switch/CMakeFiles/enocean_switch_nrf52840_xxAA_s140_6.1.1.dir/C_/mesh/deps/nRF5_SDK_15.3.0_59ac345/components/libraries/experimental_section_vars/nrf_section_iter.c.obj
                0x000284d4                nrf_section_iter_next
 .text.sd_evt_get
                0x000284ec        0x4 examples/enocean_switch/CMakeFiles/enocean_switch_nrf52840_xxAA_s140_6.1.1.dir/C_/mesh/deps/nRF5_SDK_15.3.0_59ac345/components/softdevice/common/nrf_sdh_soc.c.obj
 .text.nrf_sdh_soc_evts_poll
                0x000284f0       0x3c examples/enocean_switch/CMakeFiles/enocean_switch_nrf52840_xxAA_s140_6.1.1.dir/C_/mesh/deps/nRF5_SDK_15.3.0_59ac345/components/softdevice/common/nrf_sdh_soc.c.obj
 .text.sd_ble_enable
                0x0002852c        0x4 examples/enocean_switch/CMakeFiles/enocean_switch_nrf52840_xxAA_s140_6.1.1.dir/C_/mesh/deps/nRF5_SDK_15.3.0_59ac345/components/softdevice/common/nrf_sdh_ble.c.obj
 .text.sd_ble_cfg_set
                0x00028530        0x4 examples/enocean_switch/CMakeFiles/enocean_switch_nrf52840_xxAA_s140_6.1.1.dir/C_/mesh/deps/nRF5_SDK_15.3.0_59ac345/components/softdevice/common/nrf_sdh_ble.c.obj
 .text.sd_ble_evt_get
                0x00028534        0x4 examples/enocean_switch/CMakeFiles/enocean_switch_nrf52840_xxAA_s140_6.1.1.dir/C_/mesh/deps/nRF5_SDK_15.3.0_59ac345/components/softdevice/common/nrf_sdh_ble.c.obj
 .text.nrf_sdh_ble_evts_poll
                0x00028538       0x50 examples/enocean_switch/CMakeFiles/enocean_switch_nrf52840_xxAA_s140_6.1.1.dir/C_/mesh/deps/nRF5_SDK_15.3.0_59ac345/components/softdevice/common/nrf_sdh_ble.c.obj
 .text.nrf_sdh_ble_default_cfg_set
                0x00028588       0xd4 examples/enocean_switch/CMakeFiles/enocean_switch_nrf52840_xxAA_s140_6.1.1.dir/C_/mesh/deps/nRF5_SDK_15.3.0_59ac345/components/softdevice/common/nrf_sdh_ble.c.obj
                0x00028588                nrf_sdh_ble_default_cfg_set
 .text.nrf_sdh_ble_enable
                0x0002865c       0x14 examples/enocean_switch/CMakeFiles/enocean_switch_nrf52840_xxAA_s140_6.1.1.dir/C_/mesh/deps/nRF5_SDK_15.3.0_59ac345/components/softdevice/common/nrf_sdh_ble.c.obj
                0x0002865c                nrf_sdh_ble_enable
 .text.sd_softdevice_enable
                0x00028670        0x4 examples/enocean_switch/CMakeFiles/enocean_switch_nrf52840_xxAA_s140_6.1.1.dir/C_/mesh/deps/nRF5_SDK_15.3.0_59ac345/components/softdevice/common/nrf_sdh.c.obj
 .text.sd_softdevice_disable
                0x00028674        0x4 examples/enocean_switch/CMakeFiles/enocean_switch_nrf52840_xxAA_s140_6.1.1.dir/C_/mesh/deps/nRF5_SDK_15.3.0_59ac345/components/softdevice/common/nrf_sdh.c.obj
 .text.sdh_request_observer_notify
                0x00028678       0x30 examples/enocean_switch/CMakeFiles/enocean_switch_nrf52840_xxAA_s140_6.1.1.dir/C_/mesh/deps/nRF5_SDK_15.3.0_59ac345/components/softdevice/common/nrf_sdh.c.obj
 .text.sdh_state_observer_notify
                0x000286a8       0x28 examples/enocean_switch/CMakeFiles/enocean_switch_nrf52840_xxAA_s140_6.1.1.dir/C_/mesh/deps/nRF5_SDK_15.3.0_59ac345/components/softdevice/common/nrf_sdh.c.obj
 .text.softdevice_evt_irq_disable
                0x000286d0       0x24 examples/enocean_switch/CMakeFiles/enocean_switch_nrf52840_xxAA_s140_6.1.1.dir/C_/mesh/deps/nRF5_SDK_15.3.0_59ac345/components/softdevice/common/nrf_sdh.c.obj
 .text.softdevices_evt_irq_enable
                0x000286f4       0x38 examples/enocean_switch/CMakeFiles/enocean_switch_nrf52840_xxAA_s140_6.1.1.dir/C_/mesh/deps/nRF5_SDK_15.3.0_59ac345/components/softdevice/common/nrf_sdh.c.obj
 .text.nrf_sdh_enable_request
                0x0002872c       0x78 examples/enocean_switch/CMakeFiles/enocean_switch_nrf52840_xxAA_s140_6.1.1.dir/C_/mesh/deps/nRF5_SDK_15.3.0_59ac345/components/softdevice/common/nrf_sdh.c.obj
                0x0002872c                nrf_sdh_enable_request
 .text.nrf_sdh_disable_request
                0x000287a4       0x60 examples/enocean_switch/CMakeFiles/enocean_switch_nrf52840_xxAA_s140_6.1.1.dir/C_/mesh/deps/nRF5_SDK_15.3.0_59ac345/components/softdevice/common/nrf_sdh.c.obj
                0x000287a4                nrf_sdh_disable_request
 .text.nrf_sdh_evts_poll
                0x00028804       0x28 examples/enocean_switch/CMakeFiles/enocean_switch_nrf52840_xxAA_s140_6.1.1.dir/C_/mesh/deps/nRF5_SDK_15.3.0_59ac345/components/softdevice/common/nrf_sdh.c.obj
                0x00028804                nrf_sdh_evts_poll
 .text.SWI2_EGU2_IRQHandler
                0x0002882c        0x4 examples/enocean_switch/CMakeFiles/enocean_switch_nrf52840_xxAA_s140_6.1.1.dir/C_/mesh/deps/nRF5_SDK_15.3.0_59ac345/components/softdevice/common/nrf_sdh.c.obj
                0x0002882c                SWI2_EGU2_IRQHandler
 .text.sd_ble_gap_conn_param_update
                0x00028830        0x4 examples/enocean_switch/CMakeFiles/enocean_switch_nrf52840_xxAA_s140_6.1.1.dir/C_/mesh/deps/nRF5_SDK_15.3.0_59ac345/components/ble/common/ble_conn_params.c.obj
 .text.sd_ble_gap_disconnect
                0x00028834        0x4 examples/enocean_switch/CMakeFiles/enocean_switch_nrf52840_xxAA_s140_6.1.1.dir/C_/mesh/deps/nRF5_SDK_15.3.0_59ac345/components/ble/common/ble_conn_params.c.obj
 .text.sd_ble_gap_ppcp_set
                0x00028838        0x4 examples/enocean_switch/CMakeFiles/enocean_switch_nrf52840_xxAA_s140_6.1.1.dir/C_/mesh/deps/nRF5_SDK_15.3.0_59ac345/components/ble/common/ble_conn_params.c.obj
 .text.sd_ble_gap_ppcp_get
                0x0002883c        0x4 examples/enocean_switch/CMakeFiles/enocean_switch_nrf52840_xxAA_s140_6.1.1.dir/C_/mesh/deps/nRF5_SDK_15.3.0_59ac345/components/ble/common/ble_conn_params.c.obj
 .text.instance_get
                0x00028840       0x14 examples/enocean_switch/CMakeFiles/enocean_switch_nrf52840_xxAA_s140_6.1.1.dir/C_/mesh/deps/nRF5_SDK_15.3.0_59ac345/components/ble/common/ble_conn_params.c.obj
 .text.send_error_evt
                0x00028854       0x10 examples/enocean_switch/CMakeFiles/enocean_switch_nrf52840_xxAA_s140_6.1.1.dir/C_/mesh/deps/nRF5_SDK_15.3.0_59ac345/components/ble/common/ble_conn_params.c.obj
 .text.update_timeout_handler
                0x00028864       0x6c examples/enocean_switch/CMakeFiles/enocean_switch_nrf52840_xxAA_s140_6.1.1.dir/C_/mesh/deps/nRF5_SDK_15.3.0_59ac345/components/ble/common/ble_conn_params.c.obj
 .text.conn_params_negotiation
                0x000288d0       0x48 examples/enocean_switch/CMakeFiles/enocean_switch_nrf52840_xxAA_s140_6.1.1.dir/C_/mesh/deps/nRF5_SDK_15.3.0_59ac345/components/ble/common/ble_conn_params.c.obj
 .text.is_conn_params_ok.constprop.3
                0x00028918       0x3a examples/enocean_switch/CMakeFiles/enocean_switch_nrf52840_xxAA_s140_6.1.1.dir/C_/mesh/deps/nRF5_SDK_15.3.0_59ac345/components/ble/common/ble_conn_params.c.obj
 *fill*         0x00028952        0x2 
 .text.ble_evt_handler
                0x00028954       0xe0 examples/enocean_switch/CMakeFiles/enocean_switch_nrf52840_xxAA_s140_6.1.1.dir/C_/mesh/deps/nRF5_SDK_15.3.0_59ac345/components/ble/common/ble_conn_params.c.obj
 .text.ble_conn_params_init
                0x00028a34       0x74 examples/enocean_switch/CMakeFiles/enocean_switch_nrf52840_xxAA_s140_6.1.1.dir/C_/mesh/deps/nRF5_SDK_15.3.0_59ac345/components/ble/common/ble_conn_params.c.obj
                0x00028a34                ble_conn_params_init
 .text.ble_srv_is_notification_enabled
                0x00028aa8        0x8 examples/enocean_switch/CMakeFiles/enocean_switch_nrf52840_xxAA_s140_6.1.1.dir/C_/mesh/deps/nRF5_SDK_15.3.0_59ac345/components/ble/common/ble_srv_common.c.obj
                0x00028aa8                ble_srv_is_notification_enabled
 .text._weak_handler
                0x00028ab0        0x4 examples/enocean_switch/CMakeFiles/enocean_switch_nrf52840_xxAA_s140_6.1.1.dir/__/nrf_mesh_weak.c.obj
                0x00028ab0                nrf_mesh_dfu_init
                0x00028ab0                nrf_mesh_dfu_jump_to_bootloader
                0x00028ab0                nrf_mesh_dfu_rx
                0x00028ab0                prov_provisioner_provision
                0x00028ab0                nrf_mesh_dfu_bank_info_get
                0x00028ab0                prov_provisioner_oob_pubkey
                0x00028ab0                nrf_mesh_dfu_request
                0x00028ab0                nrf_mesh_dfu_bank_flash
                0x00028ab0                nrf_mesh_dfu_enable
                0x00028ab0                _weak_handler
                0x00028ab0                nrf_mesh_dfu_relay
                0x00028ab0                nrf_mesh_dfu_abort
                0x00028ab0                mesh_flash_op_execute
                0x00028ab0                prov_provisionee_init
                0x00028ab0                nrf_mesh_dfu_state_get
                0x00028ab0                prov_provisioner_shared_secret
                0x00028ab0                prov_provisioner_auth_data
                0x00028ab0                prov_provisioner_oob_use
 .text.app_error_fault_handler
                0x00028ab4      0x200 examples/enocean_switch/CMakeFiles/enocean_switch_nrf52840_xxAA_s140_6.1.1.dir/__/common/src/app_error_weak.c.obj
                0x00028ab4                app_error_fault_handler
 .text.mesh_assertion_handler
                0x00028cb4       0x24 examples/enocean_switch/CMakeFiles/enocean_switch_nrf52840_xxAA_s140_6.1.1.dir/__/common/src/assertion_handler_weak.c.obj
                0x00028cb4                mesh_assertion_handler
 .text.nrf_mesh_configure_device_uuid_set
                0x00028cd8       0x10 examples/enocean_switch/CMakeFiles/enocean_switch_nrf52840_xxAA_s140_6.1.1.dir/__/__/mesh/core/src/nrf_mesh_configure.c.obj
                0x00028cd8                nrf_mesh_configure_device_uuid_set
 .text.nrf_mesh_configure_device_uuid_reset
                0x00028ce8       0x3c examples/enocean_switch/CMakeFiles/enocean_switch_nrf52840_xxAA_s140_6.1.1.dir/__/__/mesh/core/src/nrf_mesh_configure.c.obj
                0x00028ce8                nrf_mesh_configure_device_uuid_reset
 .text.nrf_mesh_configure_device_uuid_get
                0x00028d24        0x8 examples/enocean_switch/CMakeFiles/enocean_switch_nrf52840_xxAA_s140_6.1.1.dir/__/__/mesh/core/src/nrf_mesh_configure.c.obj
                0x00028d24                nrf_mesh_configure_device_uuid_get
 .text.msg_cache_init
                0x00028d2c       0x24 examples/enocean_switch/CMakeFiles/enocean_switch_nrf52840_xxAA_s140_6.1.1.dir/__/__/mesh/core/src/msg_cache.c.obj
                0x00028d2c                msg_cache_init
 .text.msg_cache_entry_exists
                0x00028d50       0x3c examples/enocean_switch/CMakeFiles/enocean_switch_nrf52840_xxAA_s140_6.1.1.dir/__/__/mesh/core/src/msg_cache.c.obj
                0x00028d50                msg_cache_entry_exists
 .text.msg_cache_entry_add
                0x00028d8c       0x2c examples/enocean_switch/CMakeFiles/enocean_switch_nrf52840_xxAA_s140_6.1.1.dir/__/__/mesh/core/src/msg_cache.c.obj
                0x00028d8c                msg_cache_entry_add
 .text.seqauth_sequence_number_get
                0x00028db8       0x12 examples/enocean_switch/CMakeFiles/enocean_switch_nrf52840_xxAA_s140_6.1.1.dir/__/__/mesh/core/src/transport.c.obj
 *fill*         0x00028dca        0x2 
 .text.control_packet_callback_get
                0x00028dcc       0x40 examples/enocean_switch/CMakeFiles/enocean_switch_nrf52840_xxAA_s140_6.1.1.dir/__/__/mesh/core/src/transport.c.obj
 .text.tx_complete
                0x00028e0c       0x2c examples/enocean_switch/CMakeFiles/enocean_switch_nrf52840_xxAA_s140_6.1.1.dir/__/__/mesh/core/src/transport.c.obj
 .text.seqauth_get
                0x00028e38       0x24 examples/enocean_switch/CMakeFiles/enocean_switch_nrf52840_xxAA_s140_6.1.1.dir/__/__/mesh/core/src/transport.c.obj
 .text.block_ack_full
                0x00028e5c       0x1a examples/enocean_switch/CMakeFiles/enocean_switch_nrf52840_xxAA_s140_6.1.1.dir/__/__/mesh/core/src/transport.c.obj
 *fill*         0x00028e76        0x2 
 .text.sar_rx_session_mark_as_handled
                0x00028e78       0x5c examples/enocean_switch/CMakeFiles/enocean_switch_nrf52840_xxAA_s140_6.1.1.dir/__/__/mesh/core/src/transport.c.obj
 .text.upper_trs_packet_encrypt
                0x00028ed4       0x86 examples/enocean_switch/CMakeFiles/enocean_switch_nrf52840_xxAA_s140_6.1.1.dir/__/__/mesh/core/src/transport.c.obj
 *fill*         0x00028f5a        0x2 
 .text.sar_ctx_alloc
                0x00028f5c       0xbc examples/enocean_switch/CMakeFiles/enocean_switch_nrf52840_xxAA_s140_6.1.1.dir/__/__/mesh/core/src/transport.c.obj
 .text.sar_ctx_free
                0x00029018       0x3a examples/enocean_switch/CMakeFiles/enocean_switch_nrf52840_xxAA_s140_6.1.1.dir/__/__/mesh/core/src/transport.c.obj
 .text.sar_ctx_tx_complete
                0x00029052       0x2e examples/enocean_switch/CMakeFiles/enocean_switch_nrf52840_xxAA_s140_6.1.1.dir/__/__/mesh/core/src/transport.c.obj
 .text.transport_metadata_validate
                0x00029080       0x54 examples/enocean_switch/CMakeFiles/enocean_switch_nrf52840_xxAA_s140_6.1.1.dir/__/__/mesh/core/src/transport.c.obj
 .text.test_transport_decrypt
                0x000290d4       0x88 examples/enocean_switch/CMakeFiles/enocean_switch_nrf52840_xxAA_s140_6.1.1.dir/__/__/mesh/core/src/transport.c.obj
 .text.replay_list_add
                0x0002915c       0x44 examples/enocean_switch/CMakeFiles/enocean_switch_nrf52840_xxAA_s140_6.1.1.dir/__/__/mesh/core/src/transport.c.obj
 .text.upper_transport_access_packet_in
                0x000291a0      0x1a0 examples/enocean_switch/CMakeFiles/enocean_switch_nrf52840_xxAA_s140_6.1.1.dir/__/__/mesh/core/src/transport.c.obj
 .text.trs_packet_header_build
                0x00029340       0xa4 examples/enocean_switch/CMakeFiles/enocean_switch_nrf52840_xxAA_s140_6.1.1.dir/__/__/mesh/core/src/transport.c.obj
 .text.unsegmented_packet_tx
                0x000293e4       0x82 examples/enocean_switch/CMakeFiles/enocean_switch_nrf52840_xxAA_s140_6.1.1.dir/__/__/mesh/core/src/transport.c.obj
 *fill*         0x00029466        0x2 
 .text.tx_retry_timer_reset
                0x00029468       0x3c examples/enocean_switch/CMakeFiles/enocean_switch_nrf52840_xxAA_s140_6.1.1.dir/__/__/mesh/core/src/transport.c.obj
 .text.sar_ctx_cancel
                0x000294a4       0xb0 examples/enocean_switch/CMakeFiles/enocean_switch_nrf52840_xxAA_s140_6.1.1.dir/__/__/mesh/core/src/transport.c.obj
 .text.abort_timeout
                0x00029554        0x8 examples/enocean_switch/CMakeFiles/enocean_switch_nrf52840_xxAA_s140_6.1.1.dir/__/__/mesh/core/src/transport.c.obj
 .text.retry_timeout
                0x0002955c       0x4c examples/enocean_switch/CMakeFiles/enocean_switch_nrf52840_xxAA_s140_6.1.1.dir/__/__/mesh/core/src/transport.c.obj
 .text.trs_sar_packet_out
                0x000295a8       0xf4 examples/enocean_switch/CMakeFiles/enocean_switch_nrf52840_xxAA_s140_6.1.1.dir/__/__/mesh/core/src/transport.c.obj
 .text.transport_control_packet_in
                0x0002969c      0x1dc examples/enocean_switch/CMakeFiles/enocean_switch_nrf52840_xxAA_s140_6.1.1.dir/__/__/mesh/core/src/transport.c.obj
 .text.segmented_packet_tx
                0x00029878      0x140 examples/enocean_switch/CMakeFiles/enocean_switch_nrf52840_xxAA_s140_6.1.1.dir/__/__/mesh/core/src/transport.c.obj
 .text.transport_init
                0x000299b8       0x84 examples/enocean_switch/CMakeFiles/enocean_switch_nrf52840_xxAA_s140_6.1.1.dir/__/__/mesh/core/src/transport.c.obj
                0x000299b8                transport_init
 .text.transport_enable
                0x00029a3c        0x4 examples/enocean_switch/CMakeFiles/enocean_switch_nrf52840_xxAA_s140_6.1.1.dir/__/__/mesh/core/src/transport.c.obj
                0x00029a3c                transport_enable
 .text.transport_tx
                0x00029a40       0xec examples/enocean_switch/CMakeFiles/enocean_switch_nrf52840_xxAA_s140_6.1.1.dir/__/__/mesh/core/src/transport.c.obj
                0x00029a40                transport_tx
 .text.transport_control_tx
                0x00029b2c       0x98 examples/enocean_switch/CMakeFiles/enocean_switch_nrf52840_xxAA_s140_6.1.1.dir/__/__/mesh/core/src/transport.c.obj
                0x00029b2c                transport_control_tx
 .text.sar_ack_send
                0x00029bc4       0xa4 examples/enocean_switch/CMakeFiles/enocean_switch_nrf52840_xxAA_s140_6.1.1.dir/__/__/mesh/core/src/transport.c.obj
 .text.ack_timeout
                0x00029c68       0x30 examples/enocean_switch/CMakeFiles/enocean_switch_nrf52840_xxAA_s140_6.1.1.dir/__/__/mesh/core/src/transport.c.obj
 .text.transport_packet_in
                0x00029c98      0x504 examples/enocean_switch/CMakeFiles/enocean_switch_nrf52840_xxAA_s140_6.1.1.dir/__/__/mesh/core/src/transport.c.obj
                0x00029c98                transport_packet_in
 .text.transport_sar_process
                0x0002a19c       0x70 examples/enocean_switch/CMakeFiles/enocean_switch_nrf52840_xxAA_s140_6.1.1.dir/__/__/mesh/core/src/transport.c.obj
 .text.transport_control_packet_consumer_add
                0x0002a20c       0x5c examples/enocean_switch/CMakeFiles/enocean_switch_nrf52840_xxAA_s140_6.1.1.dir/__/__/mesh/core/src/transport.c.obj
                0x0002a20c                transport_control_packet_consumer_add
 .text.event_handle
                0x0002a268       0x54 examples/enocean_switch/CMakeFiles/enocean_switch_nrf52840_xxAA_s140_6.1.1.dir/__/__/mesh/core/src/event.c.obj
                0x0002a268                event_handle
 .text.event_handler_add
                0x0002a2bc       0x20 examples/enocean_switch/CMakeFiles/enocean_switch_nrf52840_xxAA_s140_6.1.1.dir/__/__/mesh/core/src/event.c.obj
                0x0002a2bc                event_handler_add
 .text.event_handler_remove
                0x0002a2dc       0x34 examples/enocean_switch/CMakeFiles/enocean_switch_nrf52840_xxAA_s140_6.1.1.dir/__/__/mesh/core/src/event.c.obj
                0x0002a2dc                event_handler_remove
 .text.m_index_increment
                0x0002a310       0x1e examples/enocean_switch/CMakeFiles/enocean_switch_nrf52840_xxAA_s140_6.1.1.dir/__/__/mesh/core/src/packet_buffer.c.obj
 .text.m_get_next_packet
                0x0002a32e       0x1c examples/enocean_switch/CMakeFiles/enocean_switch_nrf52840_xxAA_s140_6.1.1.dir/__/__/mesh/core/src/packet_buffer.c.obj
 .text.packet_buffer_init
                0x0002a34a       0xac examples/enocean_switch/CMakeFiles/enocean_switch_nrf52840_xxAA_s140_6.1.1.dir/__/__/mesh/core/src/packet_buffer.c.obj
                0x0002a34a                packet_buffer_init
 .text.packet_buffer_flush
                0x0002a3f6       0x50 examples/enocean_switch/CMakeFiles/enocean_switch_nrf52840_xxAA_s140_6.1.1.dir/__/__/mesh/core/src/packet_buffer.c.obj
                0x0002a3f6                packet_buffer_flush
 .text.packet_buffer_reserve
                0x0002a446       0xa2 examples/enocean_switch/CMakeFiles/enocean_switch_nrf52840_xxAA_s140_6.1.1.dir/__/__/mesh/core/src/packet_buffer.c.obj
                0x0002a446                packet_buffer_reserve
 .text.packet_buffer_commit
                0x0002a4e8       0x62 examples/enocean_switch/CMakeFiles/enocean_switch_nrf52840_xxAA_s140_6.1.1.dir/__/__/mesh/core/src/packet_buffer.c.obj
                0x0002a4e8                packet_buffer_commit
 .text.packet_buffer_pop
                0x0002a54a       0x5a examples/enocean_switch/CMakeFiles/enocean_switch_nrf52840_xxAA_s140_6.1.1.dir/__/__/mesh/core/src/packet_buffer.c.obj
                0x0002a54a                packet_buffer_pop
 .text.packet_buffer_can_pop
                0x0002a5a4       0x34 examples/enocean_switch/CMakeFiles/enocean_switch_nrf52840_xxAA_s140_6.1.1.dir/__/__/mesh/core/src/packet_buffer.c.obj
                0x0002a5a4                packet_buffer_can_pop
 .text.packet_buffer_packets_ready_to_pop
                0x0002a5d8       0x36 examples/enocean_switch/CMakeFiles/enocean_switch_nrf52840_xxAA_s140_6.1.1.dir/__/__/mesh/core/src/packet_buffer.c.obj
                0x0002a5d8                packet_buffer_packets_ready_to_pop
 .text.packet_buffer_free
                0x0002a60e       0x74 examples/enocean_switch/CMakeFiles/enocean_switch_nrf52840_xxAA_s140_6.1.1.dir/__/__/mesh/core/src/packet_buffer.c.obj
                0x0002a60e                packet_buffer_free
 .text.packet_buffer_is_empty
                0x0002a682       0x28 examples/enocean_switch/CMakeFiles/enocean_switch_nrf52840_xxAA_s140_6.1.1.dir/__/__/mesh/core/src/packet_buffer.c.obj
                0x0002a682                packet_buffer_is_empty
 .text.get_last_page
                0x0002a6aa       0x14 examples/enocean_switch/CMakeFiles/enocean_switch_nrf52840_xxAA_s140_6.1.1.dir/__/__/mesh/core/src/flash_manager_defrag.c.obj
 *fill*         0x0002a6be        0x2 
 .text.defrag_on_end
                0x0002a6c0       0x1c examples/enocean_switch/CMakeFiles/enocean_switch_nrf52840_xxAA_s140_6.1.1.dir/__/__/mesh/core/src/flash_manager_defrag.c.obj
 .text.execute_procedure_step
                0x0002a6dc       0x70 examples/enocean_switch/CMakeFiles/enocean_switch_nrf52840_xxAA_s140_6.1.1.dir/__/__/mesh/core/src/flash_manager_defrag.c.obj
 .text.get_next_entry
                0x0002a74c       0x34 examples/enocean_switch/CMakeFiles/enocean_switch_nrf52840_xxAA_s140_6.1.1.dir/__/__/mesh/core/src/flash_manager_defrag.c.obj
 .text.get_next_data_entry
                0x0002a780       0x26 examples/enocean_switch/CMakeFiles/enocean_switch_nrf52840_xxAA_s140_6.1.1.dir/__/__/mesh/core/src/flash_manager_defrag.c.obj
 *fill*         0x0002a7a6        0x2 
 .text.on_flash_op_end
                0x0002a7a8       0x30 examples/enocean_switch/CMakeFiles/enocean_switch_nrf52840_xxAA_s140_6.1.1.dir/__/__/mesh/core/src/flash_manager_defrag.c.obj
 .text.check_for_invalid_entries
                0x0002a7d8       0x38 examples/enocean_switch/CMakeFiles/enocean_switch_nrf52840_xxAA_s140_6.1.1.dir/__/__/mesh/core/src/flash_manager_defrag.c.obj
 .text.erase_recovery_area
                0x0002a810       0x34 examples/enocean_switch/CMakeFiles/enocean_switch_nrf52840_xxAA_s140_6.1.1.dir/__/__/mesh/core/src/flash_manager_defrag.c.obj
 .text.flash.constprop.6
                0x0002a844       0x24 examples/enocean_switch/CMakeFiles/enocean_switch_nrf52840_xxAA_s140_6.1.1.dir/__/__/mesh/core/src/flash_manager_defrag.c.obj
 .text.invalidate_duplicate_entries
                0x0002a868       0xa8 examples/enocean_switch/CMakeFiles/enocean_switch_nrf52840_xxAA_s140_6.1.1.dir/__/__/mesh/core/src/flash_manager_defrag.c.obj
 .text.seal_storage_page
                0x0002a910       0x50 examples/enocean_switch/CMakeFiles/enocean_switch_nrf52840_xxAA_s140_6.1.1.dir/__/__/mesh/core/src/flash_manager_defrag.c.obj
 .text.copy_metadata
                0x0002a960       0x3c examples/enocean_switch/CMakeFiles/enocean_switch_nrf52840_xxAA_s140_6.1.1.dir/__/__/mesh/core/src/flash_manager_defrag.c.obj
 .text.write_defrag_start_pointer
                0x0002a99c       0x20 examples/enocean_switch/CMakeFiles/enocean_switch_nrf52840_xxAA_s140_6.1.1.dir/__/__/mesh/core/src/flash_manager_defrag.c.obj
 .text.write_back
                0x0002a9bc       0x28 examples/enocean_switch/CMakeFiles/enocean_switch_nrf52840_xxAA_s140_6.1.1.dir/__/__/mesh/core/src/flash_manager_defrag.c.obj
 .text.post_process
                0x0002a9e4       0x40 examples/enocean_switch/CMakeFiles/enocean_switch_nrf52840_xxAA_s140_6.1.1.dir/__/__/mesh/core/src/flash_manager_defrag.c.obj
 .text.backup_entries
                0x0002aa24       0xd8 examples/enocean_switch/CMakeFiles/enocean_switch_nrf52840_xxAA_s140_6.1.1.dir/__/__/mesh/core/src/flash_manager_defrag.c.obj
 .text.erase_source
                0x0002aafc       0x34 examples/enocean_switch/CMakeFiles/enocean_switch_nrf52840_xxAA_s140_6.1.1.dir/__/__/mesh/core/src/flash_manager_defrag.c.obj
 .text.flash_manager_defrag_init
                0x0002ab30       0x8c examples/enocean_switch/CMakeFiles/enocean_switch_nrf52840_xxAA_s140_6.1.1.dir/__/__/mesh/core/src/flash_manager_defrag.c.obj
                0x0002ab30                flash_manager_defrag_init
 .text.flash_manager_defragging
                0x0002abbc       0x38 examples/enocean_switch/CMakeFiles/enocean_switch_nrf52840_xxAA_s140_6.1.1.dir/__/__/mesh/core/src/flash_manager_defrag.c.obj
                0x0002abbc                flash_manager_defragging
 .text.flash_manager_defrag_is_running
                0x0002abf4       0x10 examples/enocean_switch/CMakeFiles/enocean_switch_nrf52840_xxAA_s140_6.1.1.dir/__/__/mesh/core/src/flash_manager_defrag.c.obj
                0x0002abf4                flash_manager_defrag_is_running
 .text.flash_manager_defrag
                0x0002ac04       0x44 examples/enocean_switch/CMakeFiles/enocean_switch_nrf52840_xxAA_s140_6.1.1.dir/__/__/mesh/core/src/flash_manager_defrag.c.obj
                0x0002ac04                flash_manager_defrag
 .text.flash_manager_defrag_recovery_page_get
                0x0002ac48        0xc examples/enocean_switch/CMakeFiles/enocean_switch_nrf52840_xxAA_s140_6.1.1.dir/__/__/mesh/core/src/flash_manager_defrag.c.obj
                0x0002ac48                flash_manager_defrag_recovery_page_get
 .text.fifo_init
                0x0002ac54       0x34 examples/enocean_switch/CMakeFiles/enocean_switch_nrf52840_xxAA_s140_6.1.1.dir/__/__/mesh/core/src/fifo.c.obj
                0x0002ac54                fifo_init
 .text.fifo_pop
                0x0002ac88       0x52 examples/enocean_switch/CMakeFiles/enocean_switch_nrf52840_xxAA_s140_6.1.1.dir/__/__/mesh/core/src/fifo.c.obj
                0x0002ac88                fifo_pop
 *fill*         0x0002acda        0x2 
 .text.wait_for_ready
                0x0002acdc       0x10 examples/enocean_switch/CMakeFiles/enocean_switch_nrf52840_xxAA_s140_6.1.1.dir/__/__/mesh/core/src/nrf_flash.c.obj
 .text.nrf_flash_erase
                0x0002acec       0x50 examples/enocean_switch/CMakeFiles/enocean_switch_nrf52840_xxAA_s140_6.1.1.dir/__/__/mesh/core/src/nrf_flash.c.obj
                0x0002acec                nrf_flash_erase
 .text.nrf_flash_write
                0x0002ad3c       0x50 examples/enocean_switch/CMakeFiles/enocean_switch_nrf52840_xxAA_s140_6.1.1.dir/__/__/mesh/core/src/nrf_flash.c.obj
                0x0002ad3c                nrf_flash_write
 .text.entry_recover_cb
                0x0002ad8c       0x18 examples/enocean_switch/CMakeFiles/enocean_switch_nrf52840_xxAA_s140_6.1.1.dir/__/__/mesh/core/src/net_state.c.obj
 .text.flash_store_iv_index
                0x0002ada4       0x38 examples/enocean_switch/CMakeFiles/enocean_switch_nrf52840_xxAA_s140_6.1.1.dir/__/__/mesh/core/src/net_state.c.obj
 .text.flash_mem_available
                0x0002addc       0x14 examples/enocean_switch/CMakeFiles/enocean_switch_nrf52840_xxAA_s140_6.1.1.dir/__/__/mesh/core/src/net_state.c.obj
 .text.iv_index_notify
                0x0002adf0       0x30 examples/enocean_switch/CMakeFiles/enocean_switch_nrf52840_xxAA_s140_6.1.1.dir/__/__/mesh/core/src/net_state.c.obj
 .text.seqnum_block_allocate
                0x0002ae20       0x4c examples/enocean_switch/CMakeFiles/enocean_switch_nrf52840_xxAA_s140_6.1.1.dir/__/__/mesh/core/src/net_state.c.obj
 .text.net_state_reset
                0x0002ae6c       0x48 examples/enocean_switch/CMakeFiles/enocean_switch_nrf52840_xxAA_s140_6.1.1.dir/__/__/mesh/core/src/net_state.c.obj
                0x0002ae6c                net_state_reset
 .text.flash_write_complete
                0x0002aeb4       0x64 examples/enocean_switch/CMakeFiles/enocean_switch_nrf52840_xxAA_s140_6.1.1.dir/__/__/mesh/core/src/net_state.c.obj
 .text.net_state_recover_from_flash
                0x0002af18       0x60 examples/enocean_switch/CMakeFiles/enocean_switch_nrf52840_xxAA_s140_6.1.1.dir/__/__/mesh/core/src/net_state.c.obj
                0x0002af18                net_state_recover_from_flash
 .text.net_state_flash_area_get
                0x0002af78        0xc examples/enocean_switch/CMakeFiles/enocean_switch_nrf52840_xxAA_s140_6.1.1.dir/__/__/mesh/core/src/net_state.c.obj
                0x0002af78                net_state_flash_area_get
 .text.init_flash_storage
                0x0002af84       0x40 examples/enocean_switch/CMakeFiles/enocean_switch_nrf52840_xxAA_s140_6.1.1.dir/__/__/mesh/core/src/net_state.c.obj
 .text.net_state_init
                0x0002afc4       0x44 examples/enocean_switch/CMakeFiles/enocean_switch_nrf52840_xxAA_s140_6.1.1.dir/__/__/mesh/core/src/net_state.c.obj
                0x0002afc4                net_state_init
 .text.net_state_enable
                0x0002b008       0x30 examples/enocean_switch/CMakeFiles/enocean_switch_nrf52840_xxAA_s140_6.1.1.dir/__/__/mesh/core/src/net_state.c.obj
                0x0002b008                net_state_enable
 .text.net_state_iv_update_start
                0x0002b038       0x50 examples/enocean_switch/CMakeFiles/enocean_switch_nrf52840_xxAA_s140_6.1.1.dir/__/__/mesh/core/src/net_state.c.obj
                0x0002b038                net_state_iv_update_start
 .text.iv_update_trigger_if_pending
                0x0002b088       0x6c examples/enocean_switch/CMakeFiles/enocean_switch_nrf52840_xxAA_s140_6.1.1.dir/__/__/mesh/core/src/net_state.c.obj
 .text.iv_update_timer_handler
                0x0002b0f4       0x64 examples/enocean_switch/CMakeFiles/enocean_switch_nrf52840_xxAA_s140_6.1.1.dir/__/__/mesh/core/src/net_state.c.obj
 .text.mesh_evt_handler
                0x0002b158       0x8c examples/enocean_switch/CMakeFiles/enocean_switch_nrf52840_xxAA_s140_6.1.1.dir/__/__/mesh/core/src/net_state.c.obj
 .text.net_state_seqnum_alloc
                0x0002b1e4       0x68 examples/enocean_switch/CMakeFiles/enocean_switch_nrf52840_xxAA_s140_6.1.1.dir/__/__/mesh/core/src/net_state.c.obj
                0x0002b1e4                net_state_seqnum_alloc
 .text.net_state_iv_index_lock
                0x0002b24c       0x3c examples/enocean_switch/CMakeFiles/enocean_switch_nrf52840_xxAA_s140_6.1.1.dir/__/__/mesh/core/src/net_state.c.obj
                0x0002b24c                net_state_iv_index_lock
 .text.net_state_key_refresh_phase_changed
                0x0002b288       0x20 examples/enocean_switch/CMakeFiles/enocean_switch_nrf52840_xxAA_s140_6.1.1.dir/__/__/mesh/core/src/net_state.c.obj
                0x0002b288                net_state_key_refresh_phase_changed
 .text.net_state_beacon_iv_index_get
                0x0002b2a8        0xc examples/enocean_switch/CMakeFiles/enocean_switch_nrf52840_xxAA_s140_6.1.1.dir/__/__/mesh/core/src/net_state.c.obj
                0x0002b2a8                net_state_beacon_iv_index_get
 .text.net_state_tx_iv_index_get
                0x0002b2b4       0x14 examples/enocean_switch/CMakeFiles/enocean_switch_nrf52840_xxAA_s140_6.1.1.dir/__/__/mesh/core/src/net_state.c.obj
                0x0002b2b4                net_state_tx_iv_index_get
 .text.net_state_rx_iv_index_get
                0x0002b2c8       0x18 examples/enocean_switch/CMakeFiles/enocean_switch_nrf52840_xxAA_s140_6.1.1.dir/__/__/mesh/core/src/net_state.c.obj
                0x0002b2c8                net_state_rx_iv_index_get
 .text.net_state_iv_update_get
                0x0002b2e0        0xc examples/enocean_switch/CMakeFiles/enocean_switch_nrf52840_xxAA_s140_6.1.1.dir/__/__/mesh/core/src/net_state.c.obj
                0x0002b2e0                net_state_iv_update_get
 .text.net_state_iv_index_set
                0x0002b2ec       0x34 examples/enocean_switch/CMakeFiles/enocean_switch_nrf52840_xxAA_s140_6.1.1.dir/__/__/mesh/core/src/net_state.c.obj
                0x0002b2ec                net_state_iv_index_set
 .text.send_end_events
                0x0002b320       0x84 examples/enocean_switch/CMakeFiles/enocean_switch_nrf52840_xxAA_s140_6.1.1.dir/__/__/mesh/core/src/mesh_flash.c.obj
 .text.flash_op_action_prepare
                0x0002b3a4       0x78 examples/enocean_switch/CMakeFiles/enocean_switch_nrf52840_xxAA_s140_6.1.1.dir/__/__/mesh/core/src/mesh_flash.c.obj
 .text.flash_op_schedule
                0x0002b41c       0x20 examples/enocean_switch/CMakeFiles/enocean_switch_nrf52840_xxAA_s140_6.1.1.dir/__/__/mesh/core/src/mesh_flash.c.obj
 .text.flash_op_start
                0x0002b43c      0x13c examples/enocean_switch/CMakeFiles/enocean_switch_nrf52840_xxAA_s140_6.1.1.dir/__/__/mesh/core/src/mesh_flash.c.obj
 .text.mesh_flash_init
                0x0002b578       0x7c examples/enocean_switch/CMakeFiles/enocean_switch_nrf52840_xxAA_s140_6.1.1.dir/__/__/mesh/core/src/mesh_flash.c.obj
                0x0002b578                mesh_flash_init
 .text.mesh_flash_user_callback_set
                0x0002b5f4       0x20 examples/enocean_switch/CMakeFiles/enocean_switch_nrf52840_xxAA_s140_6.1.1.dir/__/__/mesh/core/src/mesh_flash.c.obj
                0x0002b5f4                mesh_flash_user_callback_set
 .text.mesh_flash_op_push
                0x0002b614      0x10c examples/enocean_switch/CMakeFiles/enocean_switch_nrf52840_xxAA_s140_6.1.1.dir/__/__/mesh/core/src/mesh_flash.c.obj
                0x0002b614                mesh_flash_op_push
 .text.mesh_flash_set_suspended
                0x0002b720       0x70 examples/enocean_switch/CMakeFiles/enocean_switch_nrf52840_xxAA_s140_6.1.1.dir/__/__/mesh/core/src/mesh_flash.c.obj
                0x0002b720                mesh_flash_set_suspended
 .text.nrf_mesh_address_type_get
                0x0002b790       0x10 examples/enocean_switch/CMakeFiles/enocean_switch_nrf52840_xxAA_s140_6.1.1.dir/__/__/mesh/core/src/nrf_mesh_utils.c.obj
                0x0002b790                nrf_mesh_address_type_get
 .text.sd_softdevice_is_enabled
                0x0002b7a0        0x4 examples/enocean_switch/CMakeFiles/enocean_switch_nrf52840_xxAA_s140_6.1.1.dir/__/__/mesh/core/src/nrf_mesh.c.obj
 .text.nrf_mesh_listen
                0x0002b7a4      0x138 examples/enocean_switch/CMakeFiles/enocean_switch_nrf52840_xxAA_s140_6.1.1.dir/__/__/mesh/core/src/nrf_mesh.c.obj
 .text.scanner_packet_process_cb
                0x0002b8dc       0x8c examples/enocean_switch/CMakeFiles/enocean_switch_nrf52840_xxAA_s140_6.1.1.dir/__/__/mesh/core/src/nrf_mesh.c.obj
 .text.bearer_stopped_cb
                0x0002b968       0x30 examples/enocean_switch/CMakeFiles/enocean_switch_nrf52840_xxAA_s140_6.1.1.dir/__/__/mesh/core/src/nrf_mesh.c.obj
 .text.nrf_mesh_init
                0x0002b998       0xe8 examples/enocean_switch/CMakeFiles/enocean_switch_nrf52840_xxAA_s140_6.1.1.dir/__/__/mesh/core/src/nrf_mesh.c.obj
                0x0002b998                nrf_mesh_init
 .text.nrf_mesh_enable
                0x0002ba80       0xac examples/enocean_switch/CMakeFiles/enocean_switch_nrf52840_xxAA_s140_6.1.1.dir/__/__/mesh/core/src/nrf_mesh.c.obj
                0x0002ba80                nrf_mesh_enable
 .text.nrf_mesh_disable
                0x0002bb2c       0x2c examples/enocean_switch/CMakeFiles/enocean_switch_nrf52840_xxAA_s140_6.1.1.dir/__/__/mesh/core/src/nrf_mesh.c.obj
                0x0002bb2c                nrf_mesh_disable
 .text.nrf_mesh_packet_send
                0x0002bb58        0x4 examples/enocean_switch/CMakeFiles/enocean_switch_nrf52840_xxAA_s140_6.1.1.dir/__/__/mesh/core/src/nrf_mesh.c.obj
                0x0002bb58                nrf_mesh_packet_send
 .text.nrf_mesh_evt_handler_add
                0x0002bb5c        0x4 examples/enocean_switch/CMakeFiles/enocean_switch_nrf52840_xxAA_s140_6.1.1.dir/__/__/mesh/core/src/nrf_mesh.c.obj
                0x0002bb5c                nrf_mesh_evt_handler_add
 .text.nrf_mesh_evt_handler_remove
                0x0002bb60        0x4 examples/enocean_switch/CMakeFiles/enocean_switch_nrf52840_xxAA_s140_6.1.1.dir/__/__/mesh/core/src/nrf_mesh.c.obj
                0x0002bb60                nrf_mesh_evt_handler_remove
 .text.nrf_mesh_on_sd_evt
                0x0002bb64        0xa examples/enocean_switch/CMakeFiles/enocean_switch_nrf52840_xxAA_s140_6.1.1.dir/__/__/mesh/core/src/nrf_mesh.c.obj
                0x0002bb64                nrf_mesh_on_sd_evt
 *fill*         0x0002bb6e        0x2 
 .text.nrf_mesh_rx_cb_set
                0x0002bb70        0xc examples/enocean_switch/CMakeFiles/enocean_switch_nrf52840_xxAA_s140_6.1.1.dir/__/__/mesh/core/src/nrf_mesh.c.obj
                0x0002bb70                nrf_mesh_rx_cb_set
 .text.nrf_mesh_subnet_added
                0x0002bb7c        0x4 examples/enocean_switch/CMakeFiles/enocean_switch_nrf52840_xxAA_s140_6.1.1.dir/__/__/mesh/core/src/nrf_mesh.c.obj
                0x0002bb7c                nrf_mesh_subnet_added
 .text.nrf_mesh_unique_token_get
                0x0002bb80       0x18 examples/enocean_switch/CMakeFiles/enocean_switch_nrf52840_xxAA_s140_6.1.1.dir/__/__/mesh/core/src/nrf_mesh.c.obj
                0x0002bb80                nrf_mesh_unique_token_get
 .text.queue_init
                0x0002bb98       0x14 examples/enocean_switch/CMakeFiles/enocean_switch_nrf52840_xxAA_s140_6.1.1.dir/__/__/mesh/core/src/queue.c.obj
                0x0002bb98                queue_init
 .text.queue_push
                0x0002bbac       0x34 examples/enocean_switch/CMakeFiles/enocean_switch_nrf52840_xxAA_s140_6.1.1.dir/__/__/mesh/core/src/queue.c.obj
                0x0002bbac                queue_push
 .text.queue_pop
                0x0002bbe0       0x26 examples/enocean_switch/CMakeFiles/enocean_switch_nrf52840_xxAA_s140_6.1.1.dir/__/__/mesh/core/src/queue.c.obj
                0x0002bbe0                queue_pop
 .text.queue_peek
                0x0002bc06       0x10 examples/enocean_switch/CMakeFiles/enocean_switch_nrf52840_xxAA_s140_6.1.1.dir/__/__/mesh/core/src/queue.c.obj
                0x0002bc06                queue_peek
 .text.sd_power_reset_reason_clr
                0x0002bc16        0x4 examples/enocean_switch/CMakeFiles/enocean_switch_nrf52840_xxAA_s140_6.1.1.dir/__/__/mesh/core/src/hal.c.obj
 *fill*         0x0002bc1a        0x2 
 .text.hal_device_reset
                0x0002bc1c       0x2c examples/enocean_switch/CMakeFiles/enocean_switch_nrf52840_xxAA_s140_6.1.1.dir/__/__/mesh/core/src/hal.c.obj
                0x0002bc1c                hal_device_reset
 .text.hal_lfclk_ppm_get
                0x0002bc48       0x14 examples/enocean_switch/CMakeFiles/enocean_switch_nrf52840_xxAA_s140_6.1.1.dir/__/__/mesh/core/src/hal.c.obj
                0x0002bc48                hal_lfclk_ppm_get
 .text.hal_irq_active_get
                0x0002bc5c       0x10 examples/enocean_switch/CMakeFiles/enocean_switch_nrf52840_xxAA_s140_6.1.1.dir/__/__/mesh/core/src/hal.c.obj
                0x0002bc5c                hal_irq_active_get
 .text.hal_irq_is_enabled
                0x0002bc6c       0x28 examples/enocean_switch/CMakeFiles/enocean_switch_nrf52840_xxAA_s140_6.1.1.dir/__/__/mesh/core/src/hal.c.obj
                0x0002bc6c                hal_irq_is_enabled
 .text.sd_ecb_block_encrypt
                0x0002bc94        0x4 examples/enocean_switch/CMakeFiles/enocean_switch_nrf52840_xxAA_s140_6.1.1.dir/__/__/mesh/core/src/aes_cmac.c.obj
 .text.utils_xor.constprop.1
                0x0002bc98       0x20 examples/enocean_switch/CMakeFiles/enocean_switch_nrf52840_xxAA_s140_6.1.1.dir/__/__/mesh/core/src/aes_cmac.c.obj
 .text.aes_cmac
                0x0002bcb8      0x10c examples/enocean_switch/CMakeFiles/enocean_switch_nrf52840_xxAA_s140_6.1.1.dir/__/__/mesh/core/src/aes_cmac.c.obj
                0x0002bcb8                aes_cmac
 .text.add_evt  0x0002bdc4       0x50 examples/enocean_switch/CMakeFiles/enocean_switch_nrf52840_xxAA_s140_6.1.1.dir/__/__/mesh/core/src/timer_scheduler.c.obj
 .text.remove_evt
                0x0002be14       0x50 examples/enocean_switch/CMakeFiles/enocean_switch_nrf52840_xxAA_s140_6.1.1.dir/__/__/mesh/core/src/timer_scheduler.c.obj
 .text.timer_cb
                0x0002be64        0xc examples/enocean_switch/CMakeFiles/enocean_switch_nrf52840_xxAA_s140_6.1.1.dir/__/__/mesh/core/src/timer_scheduler.c.obj
 .text.setup_timeout.isra.0
                0x0002be70       0x1c examples/enocean_switch/CMakeFiles/enocean_switch_nrf52840_xxAA_s140_6.1.1.dir/__/__/mesh/core/src/timer_scheduler.c.obj
 .text.flag_event_cb
                0x0002be8c       0xa4 examples/enocean_switch/CMakeFiles/enocean_switch_nrf52840_xxAA_s140_6.1.1.dir/__/__/mesh/core/src/timer_scheduler.c.obj
 .text.timer_sch_init
                0x0002bf30       0x2c examples/enocean_switch/CMakeFiles/enocean_switch_nrf52840_xxAA_s140_6.1.1.dir/__/__/mesh/core/src/timer_scheduler.c.obj
                0x0002bf30                timer_sch_init
 .text.timer_sch_schedule
                0x0002bf5c       0x44 examples/enocean_switch/CMakeFiles/enocean_switch_nrf52840_xxAA_s140_6.1.1.dir/__/__/mesh/core/src/timer_scheduler.c.obj
                0x0002bf5c                timer_sch_schedule
 .text.timer_sch_abort
                0x0002bfa0       0x2e examples/enocean_switch/CMakeFiles/enocean_switch_nrf52840_xxAA_s140_6.1.1.dir/__/__/mesh/core/src/timer_scheduler.c.obj
                0x0002bfa0                timer_sch_abort
 .text.timer_sch_reschedule
                0x0002bfce       0x38 examples/enocean_switch/CMakeFiles/enocean_switch_nrf52840_xxAA_s140_6.1.1.dir/__/__/mesh/core/src/timer_scheduler.c.obj
                0x0002bfce                timer_sch_reschedule
 .text.timer_init
                0x0002c006       0x1a examples/enocean_switch/CMakeFiles/enocean_switch_nrf52840_xxAA_s140_6.1.1.dir/__/__/mesh/core/src/timer.c.obj
                0x0002c006                timer_init
 .text.timer_now
                0x0002c020       0x48 examples/enocean_switch/CMakeFiles/enocean_switch_nrf52840_xxAA_s140_6.1.1.dir/__/__/mesh/core/src/timer.c.obj
                0x0002c020                timer_now
 .text.nrf_mesh_timer_tail_handle
                0x0002c068       0x34 examples/enocean_switch/CMakeFiles/enocean_switch_nrf52840_xxAA_s140_6.1.1.dir/__/__/mesh/core/src/timer.c.obj
                0x0002c068                nrf_mesh_timer_tail_handle
 .text.nrf_mesh_timer_ovfw_handle
                0x0002c09c       0x98 examples/enocean_switch/CMakeFiles/enocean_switch_nrf52840_xxAA_s140_6.1.1.dir/__/__/mesh/core/src/timer.c.obj
                0x0002c09c                nrf_mesh_timer_ovfw_handle
 .text.timer_start
                0x0002c134       0xac examples/enocean_switch/CMakeFiles/enocean_switch_nrf52840_xxAA_s140_6.1.1.dir/__/__/mesh/core/src/timer.c.obj
                0x0002c134                timer_start
 .text.timer_stop
                0x0002c1e0       0x30 examples/enocean_switch/CMakeFiles/enocean_switch_nrf52840_xxAA_s140_6.1.1.dir/__/__/mesh/core/src/timer.c.obj
                0x0002c1e0                timer_stop
 .text.sd_rand_application_bytes_available_get
                0x0002c210        0x4 examples/enocean_switch/CMakeFiles/enocean_switch_nrf52840_xxAA_s140_6.1.1.dir/__/__/mesh/core/src/rand.c.obj
 .text.sd_rand_application_vector_get
                0x0002c214        0x4 examples/enocean_switch/CMakeFiles/enocean_switch_nrf52840_xxAA_s140_6.1.1.dir/__/__/mesh/core/src/rand.c.obj
 .text.rand_prng_get
                0x0002c218       0x24 examples/enocean_switch/CMakeFiles/enocean_switch_nrf52840_xxAA_s140_6.1.1.dir/__/__/mesh/core/src/rand.c.obj
                0x0002c218                rand_prng_get
 .text.rand_hw_rng_get
                0x0002c23c       0x44 examples/enocean_switch/CMakeFiles/enocean_switch_nrf52840_xxAA_s140_6.1.1.dir/__/__/mesh/core/src/rand.c.obj
                0x0002c23c                rand_hw_rng_get
 .text.rand_prng_seed
                0x0002c280       0x34 examples/enocean_switch/CMakeFiles/enocean_switch_nrf52840_xxAA_s140_6.1.1.dir/__/__/mesh/core/src/rand.c.obj
                0x0002c280                rand_prng_seed
 .text.mesh_opt_init
                0x0002c2b4        0x2 examples/enocean_switch/CMakeFiles/enocean_switch_nrf52840_xxAA_s140_6.1.1.dir/__/__/mesh/core/src/mesh_opt.c.obj
                0x0002c2b4                mesh_opt_init
 .text.sd_radio_session_open
                0x0002c2b6        0x4 examples/enocean_switch/CMakeFiles/enocean_switch_nrf52840_xxAA_s140_6.1.1.dir/__/__/mesh/core/src/timeslot.c.obj
 .text.sd_radio_session_close
                0x0002c2ba        0x4 examples/enocean_switch/CMakeFiles/enocean_switch_nrf52840_xxAA_s140_6.1.1.dir/__/__/mesh/core/src/timeslot.c.obj
 .text.sd_radio_request
                0x0002c2be        0x4 examples/enocean_switch/CMakeFiles/enocean_switch_nrf52840_xxAA_s140_6.1.1.dir/__/__/mesh/core/src/timeslot.c.obj
 *fill*         0x0002c2c2        0x2 
 .text.end_timer_handler
                0x0002c2c4       0x24 examples/enocean_switch/CMakeFiles/enocean_switch_nrf52840_xxAA_s140_6.1.1.dir/__/__/mesh/core/src/timeslot.c.obj
 .text.get_end_time.isra.3
                0x0002c2e8       0x20 examples/enocean_switch/CMakeFiles/enocean_switch_nrf52840_xxAA_s140_6.1.1.dir/__/__/mesh/core/src/timeslot.c.obj
 .text.on_ts_begin.constprop.9
                0x0002c308       0x48 examples/enocean_switch/CMakeFiles/enocean_switch_nrf52840_xxAA_s140_6.1.1.dir/__/__/mesh/core/src/timeslot.c.obj
 .text.handle_extend_end.constprop.5
                0x0002c350       0x88 examples/enocean_switch/CMakeFiles/enocean_switch_nrf52840_xxAA_s140_6.1.1.dir/__/__/mesh/core/src/timeslot.c.obj
 .text.radio_signal_callback
                0x0002c3d8      0x12c examples/enocean_switch/CMakeFiles/enocean_switch_nrf52840_xxAA_s140_6.1.1.dir/__/__/mesh/core/src/timeslot.c.obj
 .text.timeslot_sd_event_handler
                0x0002c504       0x60 examples/enocean_switch/CMakeFiles/enocean_switch_nrf52840_xxAA_s140_6.1.1.dir/__/__/mesh/core/src/timeslot.c.obj
                0x0002c504                timeslot_sd_event_handler
 .text.timeslot_init
                0x0002c564       0x50 examples/enocean_switch/CMakeFiles/enocean_switch_nrf52840_xxAA_s140_6.1.1.dir/__/__/mesh/core/src/timeslot.c.obj
                0x0002c564                timeslot_init
 .text.timeslot_start
                0x0002c5b4       0x48 examples/enocean_switch/CMakeFiles/enocean_switch_nrf52840_xxAA_s140_6.1.1.dir/__/__/mesh/core/src/timeslot.c.obj
                0x0002c5b4                timeslot_start
 .text.timeslot_end_is_pending
                0x0002c5fc       0x28 examples/enocean_switch/CMakeFiles/enocean_switch_nrf52840_xxAA_s140_6.1.1.dir/__/__/mesh/core/src/timeslot.c.obj
                0x0002c5fc                timeslot_end_is_pending
 .text.timeslot_length_get
                0x0002c624        0xc examples/enocean_switch/CMakeFiles/enocean_switch_nrf52840_xxAA_s140_6.1.1.dir/__/__/mesh/core/src/timeslot.c.obj
                0x0002c624                timeslot_length_get
 .text.timeslot_remaining_time_get
                0x0002c630       0x24 examples/enocean_switch/CMakeFiles/enocean_switch_nrf52840_xxAA_s140_6.1.1.dir/__/__/mesh/core/src/timeslot.c.obj
                0x0002c630                timeslot_remaining_time_get
 .text.timeslot_is_in_ts
                0x0002c654        0xc examples/enocean_switch/CMakeFiles/enocean_switch_nrf52840_xxAA_s140_6.1.1.dir/__/__/mesh/core/src/timeslot.c.obj
                0x0002c654                timeslot_is_in_ts
 .text.timeslot_is_in_cb
                0x0002c660        0xc examples/enocean_switch/CMakeFiles/enocean_switch_nrf52840_xxAA_s140_6.1.1.dir/__/__/mesh/core/src/timeslot.c.obj
                0x0002c660                timeslot_is_in_cb
 .text.timeslot_session_is_active
                0x0002c66c       0x10 examples/enocean_switch/CMakeFiles/enocean_switch_nrf52840_xxAA_s140_6.1.1.dir/__/__/mesh/core/src/timeslot.c.obj
                0x0002c66c                timeslot_session_is_active
 .text.timeslot_trigger
                0x0002c67c       0x24 examples/enocean_switch/CMakeFiles/enocean_switch_nrf52840_xxAA_s140_6.1.1.dir/__/__/mesh/core/src/timeslot.c.obj
                0x0002c67c                timeslot_trigger
 .text.timeslot_stop
                0x0002c6a0       0x1c examples/enocean_switch/CMakeFiles/enocean_switch_nrf52840_xxAA_s140_6.1.1.dir/__/__/mesh/core/src/timeslot.c.obj
                0x0002c6a0                timeslot_stop
 .text.timeslot_restart
                0x0002c6bc       0x24 examples/enocean_switch/CMakeFiles/enocean_switch_nrf52840_xxAA_s140_6.1.1.dir/__/__/mesh/core/src/timeslot.c.obj
                0x0002c6bc                timeslot_restart
 .text.timeslot_state_lock
                0x0002c6e0       0x24 examples/enocean_switch/CMakeFiles/enocean_switch_nrf52840_xxAA_s140_6.1.1.dir/__/__/mesh/core/src/timeslot.c.obj
                0x0002c6e0                timeslot_state_lock
 .text.timer_mut_unlock
                0x0002c704       0x10 examples/enocean_switch/CMakeFiles/enocean_switch_nrf52840_xxAA_s140_6.1.1.dir/__/__/mesh/core/src/timeslot_timer.c.obj
 .text.ts_timer_order_cb
                0x0002c714       0x64 examples/enocean_switch/CMakeFiles/enocean_switch_nrf52840_xxAA_s140_6.1.1.dir/__/__/mesh/core/src/timeslot_timer.c.obj
                0x0002c714                ts_timer_order_cb
 .text.ts_timer_now
                0x0002c778       0x40 examples/enocean_switch/CMakeFiles/enocean_switch_nrf52840_xxAA_s140_6.1.1.dir/__/__/mesh/core/src/timeslot_timer.c.obj
                0x0002c778                ts_timer_now
 .text.ts_timer_event_handler
                0x0002c7b8       0x68 examples/enocean_switch/CMakeFiles/enocean_switch_nrf52840_xxAA_s140_6.1.1.dir/__/__/mesh/core/src/timeslot_timer.c.obj
                0x0002c7b8                ts_timer_event_handler
 .text.ts_timer_to_device_time
                0x0002c820        0xc examples/enocean_switch/CMakeFiles/enocean_switch_nrf52840_xxAA_s140_6.1.1.dir/__/__/mesh/core/src/timeslot_timer.c.obj
                0x0002c820                ts_timer_to_device_time
 .text.ts_timer_on_ts_begin
                0x0002c82c       0x64 examples/enocean_switch/CMakeFiles/enocean_switch_nrf52840_xxAA_s140_6.1.1.dir/__/__/mesh/core/src/timeslot_timer.c.obj
                0x0002c82c                ts_timer_on_ts_begin
 .text.ts_timer_on_ts_end
                0x0002c890       0x48 examples/enocean_switch/CMakeFiles/enocean_switch_nrf52840_xxAA_s140_6.1.1.dir/__/__/mesh/core/src/timeslot_timer.c.obj
                0x0002c890                ts_timer_on_ts_end
 .text.trigger_event_handler
                0x0002c8d8       0x1c examples/enocean_switch/CMakeFiles/enocean_switch_nrf52840_xxAA_s140_6.1.1.dir/__/__/mesh/core/src/bearer_event.c.obj
 .text.bearer_event_init
                0x0002c8f4       0x58 examples/enocean_switch/CMakeFiles/enocean_switch_nrf52840_xxAA_s140_6.1.1.dir/__/__/mesh/core/src/bearer_event.c.obj
                0x0002c8f4                bearer_event_init
 .text.bearer_event_start
                0x0002c94c       0x44 examples/enocean_switch/CMakeFiles/enocean_switch_nrf52840_xxAA_s140_6.1.1.dir/__/__/mesh/core/src/bearer_event.c.obj
                0x0002c94c                bearer_event_start
 .text.bearer_event_critical_section_begin
                0x0002c990       0x80 examples/enocean_switch/CMakeFiles/enocean_switch_nrf52840_xxAA_s140_6.1.1.dir/__/__/mesh/core/src/bearer_event.c.obj
                0x0002c990                bearer_event_critical_section_begin
 .text.bearer_event_critical_section_end
                0x0002ca10       0x60 examples/enocean_switch/CMakeFiles/enocean_switch_nrf52840_xxAA_s140_6.1.1.dir/__/__/mesh/core/src/bearer_event.c.obj
                0x0002ca10                bearer_event_critical_section_end
 .text.bearer_event_flag_add
                0x0002ca70       0x3c examples/enocean_switch/CMakeFiles/enocean_switch_nrf52840_xxAA_s140_6.1.1.dir/__/__/mesh/core/src/bearer_event.c.obj
                0x0002ca70                bearer_event_flag_add
 .text.bearer_event_flag_set
                0x0002caac       0x44 examples/enocean_switch/CMakeFiles/enocean_switch_nrf52840_xxAA_s140_6.1.1.dir/__/__/mesh/core/src/bearer_event.c.obj
                0x0002caac                bearer_event_flag_set
 .text.bearer_event_sequential_add
                0x0002caf0       0x2e examples/enocean_switch/CMakeFiles/enocean_switch_nrf52840_xxAA_s140_6.1.1.dir/__/__/mesh/core/src/bearer_event.c.obj
                0x0002caf0                bearer_event_sequential_add
 *fill*         0x0002cb1e        0x2 
 .text.bearer_event_sequential_post
                0x0002cb20       0x44 examples/enocean_switch/CMakeFiles/enocean_switch_nrf52840_xxAA_s140_6.1.1.dir/__/__/mesh/core/src/bearer_event.c.obj
                0x0002cb20                bearer_event_sequential_post
 .text.bearer_event_sequential_pending
                0x0002cb64       0x10 examples/enocean_switch/CMakeFiles/enocean_switch_nrf52840_xxAA_s140_6.1.1.dir/__/__/mesh/core/src/bearer_event.c.obj
                0x0002cb64                bearer_event_sequential_pending
 .text.bearer_event_handler
                0x0002cb74       0xe4 examples/enocean_switch/CMakeFiles/enocean_switch_nrf52840_xxAA_s140_6.1.1.dir/__/__/mesh/core/src/bearer_event.c.obj
                0x0002cb74                bearer_event_handler
 .text.QDEC_IRQHandler
                0x0002cc58        0x4 examples/enocean_switch/CMakeFiles/enocean_switch_nrf52840_xxAA_s140_6.1.1.dir/__/__/mesh/core/src/bearer_event.c.obj
                0x0002cc58                QDEC_IRQHandler
 .text.bearer_event_in_correct_irq_priority
                0x0002cc5c       0x74 examples/enocean_switch/CMakeFiles/enocean_switch_nrf52840_xxAA_s140_6.1.1.dir/__/__/mesh/core/src/bearer_event.c.obj
                0x0002cc5c                bearer_event_in_correct_irq_priority
 .text.sd_ecb_block_encrypt
                0x0002ccd0        0x4 examples/enocean_switch/CMakeFiles/enocean_switch_nrf52840_xxAA_s140_6.1.1.dir/__/__/mesh/core/src/enc.c.obj
 .text.enc_aes_encrypt
                0x0002ccd4       0x32 examples/enocean_switch/CMakeFiles/enocean_switch_nrf52840_xxAA_s140_6.1.1.dir/__/__/mesh/core/src/enc.c.obj
                0x0002ccd4                enc_aes_encrypt
 .text.enc_aes_cmac
                0x0002cd06        0x4 examples/enocean_switch/CMakeFiles/enocean_switch_nrf52840_xxAA_s140_6.1.1.dir/__/__/mesh/core/src/enc.c.obj
                0x0002cd06                enc_aes_cmac
 .text.enc_aes_ccm_encrypt
                0x0002cd0a        0x4 examples/enocean_switch/CMakeFiles/enocean_switch_nrf52840_xxAA_s140_6.1.1.dir/__/__/mesh/core/src/enc.c.obj
                0x0002cd0a                enc_aes_ccm_encrypt
 .text.enc_aes_ccm_decrypt
                0x0002cd0e        0x4 examples/enocean_switch/CMakeFiles/enocean_switch_nrf52840_xxAA_s140_6.1.1.dir/__/__/mesh/core/src/enc.c.obj
                0x0002cd0e                enc_aes_ccm_decrypt
 .text.enc_nonce_generate
                0x0002cd12       0xbc examples/enocean_switch/CMakeFiles/enocean_switch_nrf52840_xxAA_s140_6.1.1.dir/__/__/mesh/core/src/enc.c.obj
                0x0002cd12                enc_nonce_generate
 .text.enc_s1   0x0002cdce       0x2c examples/enocean_switch/CMakeFiles/enocean_switch_nrf52840_xxAA_s140_6.1.1.dir/__/__/mesh/core/src/enc.c.obj
                0x0002cdce                enc_s1
 .text.enc_k1   0x0002cdfa       0x3c examples/enocean_switch/CMakeFiles/enocean_switch_nrf52840_xxAA_s140_6.1.1.dir/__/__/mesh/core/src/enc.c.obj
                0x0002cdfa                enc_k1
 *fill*         0x0002ce36        0x2 
 .text.enc_k2   0x0002ce38       0xc0 examples/enocean_switch/CMakeFiles/enocean_switch_nrf52840_xxAA_s140_6.1.1.dir/__/__/mesh/core/src/enc.c.obj
                0x0002ce38                enc_k2
 .text.enc_k3   0x0002cef8       0x5c examples/enocean_switch/CMakeFiles/enocean_switch_nrf52840_xxAA_s140_6.1.1.dir/__/__/mesh/core/src/enc.c.obj
                0x0002cef8                enc_k3
 .text.enc_k4   0x0002cf54       0x54 examples/enocean_switch/CMakeFiles/enocean_switch_nrf52840_xxAA_s140_6.1.1.dir/__/__/mesh/core/src/enc.c.obj
                0x0002cf54                enc_k4
 .text.allocate_packet
                0x0002cfa8       0x6e examples/enocean_switch/CMakeFiles/enocean_switch_nrf52840_xxAA_s140_6.1.1.dir/__/__/mesh/core/src/network.c.obj
 *fill*         0x0002d016        0x2 
 .text.network_init
                0x0002d018       0x24 examples/enocean_switch/CMakeFiles/enocean_switch_nrf52840_xxAA_s140_6.1.1.dir/__/__/mesh/core/src/network.c.obj
                0x0002d018                network_init
 .text.network_enable
                0x0002d03c        0xe examples/enocean_switch/CMakeFiles/enocean_switch_nrf52840_xxAA_s140_6.1.1.dir/__/__/mesh/core/src/network.c.obj
                0x0002d03c                network_enable
 .text.network_packet_alloc
                0x0002d04a       0x42 examples/enocean_switch/CMakeFiles/enocean_switch_nrf52840_xxAA_s140_6.1.1.dir/__/__/mesh/core/src/network.c.obj
                0x0002d04a                network_packet_alloc
 .text.network_packet_send
                0x0002d08c       0xe0 examples/enocean_switch/CMakeFiles/enocean_switch_nrf52840_xxAA_s140_6.1.1.dir/__/__/mesh/core/src/network.c.obj
                0x0002d08c                network_packet_send
 .text.network_packet_in
                0x0002d16c      0x2dc examples/enocean_switch/CMakeFiles/enocean_switch_nrf52840_xxAA_s140_6.1.1.dir/__/__/mesh/core/src/network.c.obj
                0x0002d16c                network_packet_in
 .text.nonce_type_get
                0x0002d448       0x16 examples/enocean_switch/CMakeFiles/enocean_switch_nrf52840_xxAA_s140_6.1.1.dir/__/__/mesh/core/src/net_packet.c.obj
 .text.header_transfuscate
                0x0002d45e       0x54 examples/enocean_switch/CMakeFiles/enocean_switch_nrf52840_xxAA_s140_6.1.1.dir/__/__/mesh/core/src/net_packet.c.obj
 *fill*         0x0002d4b2        0x2 
 .text.try_decrypt
                0x0002d4b4      0x18c examples/enocean_switch/CMakeFiles/enocean_switch_nrf52840_xxAA_s140_6.1.1.dir/__/__/mesh/core/src/net_packet.c.obj
 .text.net_packet_decrypt
                0x0002d640       0x94 examples/enocean_switch/CMakeFiles/enocean_switch_nrf52840_xxAA_s140_6.1.1.dir/__/__/mesh/core/src/net_packet.c.obj
                0x0002d640                net_packet_decrypt
 .text.net_packet_encrypt
                0x0002d6d4       0x7e examples/enocean_switch/CMakeFiles/enocean_switch_nrf52840_xxAA_s140_6.1.1.dir/__/__/mesh/core/src/net_packet.c.obj
                0x0002d6d4                net_packet_encrypt
 .text.net_packet_header_set
                0x0002d752       0xaa examples/enocean_switch/CMakeFiles/enocean_switch_nrf52840_xxAA_s140_6.1.1.dir/__/__/mesh/core/src/net_packet.c.obj
                0x0002d752                net_packet_header_set
 .text.net_packet_payload_len_get
                0x0002d7fc       0x10 examples/enocean_switch/CMakeFiles/enocean_switch_nrf52840_xxAA_s140_6.1.1.dir/__/__/mesh/core/src/net_packet.c.obj
                0x0002d7fc                net_packet_payload_len_get
 .text.net_packet_from_payload
                0x0002d80c        0x4 examples/enocean_switch/CMakeFiles/enocean_switch_nrf52840_xxAA_s140_6.1.1.dir/__/__/mesh/core/src/net_packet.c.obj
                0x0002d80c                net_packet_from_payload
 .text.net_packet_payload_get
                0x0002d810        0x4 examples/enocean_switch/CMakeFiles/enocean_switch_nrf52840_xxAA_s140_6.1.1.dir/__/__/mesh/core/src/net_packet.c.obj
                0x0002d810                net_packet_payload_get
 .text.net_packet_obfuscation_start_get
                0x0002d814        0x4 examples/enocean_switch/CMakeFiles/enocean_switch_nrf52840_xxAA_s140_6.1.1.dir/__/__/mesh/core/src/net_packet.c.obj
                0x0002d814                net_packet_obfuscation_start_get
 .text.stage_get_available
                0x0002d818       0x24 examples/enocean_switch/CMakeFiles/enocean_switch_nrf52840_xxAA_s140_6.1.1.dir/__/__/mesh/core/src/msqueue.c.obj
 .text.msq_get  0x0002d83c       0x38 examples/enocean_switch/CMakeFiles/enocean_switch_nrf52840_xxAA_s140_6.1.1.dir/__/__/mesh/core/src/msqueue.c.obj
                0x0002d83c                msq_get
 .text.msq_move
                0x0002d874       0x2e examples/enocean_switch/CMakeFiles/enocean_switch_nrf52840_xxAA_s140_6.1.1.dir/__/__/mesh/core/src/msqueue.c.obj
                0x0002d874                msq_move
 .text.msq_reset
                0x0002d8a2       0x20 examples/enocean_switch/CMakeFiles/enocean_switch_nrf52840_xxAA_s140_6.1.1.dir/__/__/mesh/core/src/msqueue.c.obj
                0x0002d8a2                msq_reset
 .text.msq_init
                0x0002d8c2       0x48 examples/enocean_switch/CMakeFiles/enocean_switch_nrf52840_xxAA_s140_6.1.1.dir/__/__/mesh/core/src/msqueue.c.obj
                0x0002d8c2                msq_init
 .text.msq_available
                0x0002d90a       0x26 examples/enocean_switch/CMakeFiles/enocean_switch_nrf52840_xxAA_s140_6.1.1.dir/__/__/mesh/core/src/msqueue.c.obj
                0x0002d90a                msq_available
 .text.nrf_mesh_keygen_aid
                0x0002d930       0x12 examples/enocean_switch/CMakeFiles/enocean_switch_nrf52840_xxAA_s140_6.1.1.dir/__/__/mesh/core/src/nrf_mesh_keygen.c.obj
                0x0002d930                nrf_mesh_keygen_aid
 .text.nrf_mesh_keygen_network_secmat
                0x0002d942       0x20 examples/enocean_switch/CMakeFiles/enocean_switch_nrf52840_xxAA_s140_6.1.1.dir/__/__/mesh/core/src/nrf_mesh_keygen.c.obj
                0x0002d942                nrf_mesh_keygen_network_secmat
 *fill*         0x0002d962        0x2 
 .text.nrf_mesh_keygen_beacon_secmat
                0x0002d964       0x50 examples/enocean_switch/CMakeFiles/enocean_switch_nrf52840_xxAA_s140_6.1.1.dir/__/__/mesh/core/src/nrf_mesh_keygen.c.obj
                0x0002d964                nrf_mesh_keygen_beacon_secmat
 .text.nrf_mesh_keygen_identitykey
                0x0002d9b4       0x4c examples/enocean_switch/CMakeFiles/enocean_switch_nrf52840_xxAA_s140_6.1.1.dir/__/__/mesh/core/src/nrf_mesh_keygen.c.obj
                0x0002d9b4                nrf_mesh_keygen_identitykey
 .text.nrf_mesh_keygen_virtual_address
                0x0002da00       0x50 examples/enocean_switch/CMakeFiles/enocean_switch_nrf52840_xxAA_s140_6.1.1.dir/__/__/mesh/core/src/nrf_mesh_keygen.c.obj
                0x0002da00                nrf_mesh_keygen_virtual_address
 .text.erase_at
                0x0002da50       0x14 examples/enocean_switch/CMakeFiles/enocean_switch_nrf52840_xxAA_s140_6.1.1.dir/__/__/mesh/core/src/cache.c.obj
 .text.cache_init
                0x0002da64       0x1e examples/enocean_switch/CMakeFiles/enocean_switch_nrf52840_xxAA_s140_6.1.1.dir/__/__/mesh/core/src/cache.c.obj
                0x0002da64                cache_init
 .text.cache_has_elem
                0x0002da82       0x40 examples/enocean_switch/CMakeFiles/enocean_switch_nrf52840_xxAA_s140_6.1.1.dir/__/__/mesh/core/src/cache.c.obj
                0x0002da82                cache_has_elem
 .text.cache_put
                0x0002dac2       0x30 examples/enocean_switch/CMakeFiles/enocean_switch_nrf52840_xxAA_s140_6.1.1.dir/__/__/mesh/core/src/cache.c.obj
                0x0002dac2                cache_put
 .text.list_insert
                0x0002daf2       0x1c examples/enocean_switch/CMakeFiles/enocean_switch_nrf52840_xxAA_s140_6.1.1.dir/__/__/mesh/core/src/list.c.obj
 .text.list_add
                0x0002db0e       0x42 examples/enocean_switch/CMakeFiles/enocean_switch_nrf52840_xxAA_s140_6.1.1.dir/__/__/mesh/core/src/list.c.obj
                0x0002db0e                list_add
 .text.list_remove
                0x0002db50       0x3a examples/enocean_switch/CMakeFiles/enocean_switch_nrf52840_xxAA_s140_6.1.1.dir/__/__/mesh/core/src/list.c.obj
                0x0002db50                list_remove
 .text.list_compare_add
                0x0002db8a       0x56 examples/enocean_switch/CMakeFiles/enocean_switch_nrf52840_xxAA_s140_6.1.1.dir/__/__/mesh/core/src/list.c.obj
                0x0002db8a                list_compare_add
 .text.log_callback_rtt
                0x0002dbe0       0x2c examples/enocean_switch/CMakeFiles/enocean_switch_nrf52840_xxAA_s140_6.1.1.dir/__/__/mesh/core/src/log.c.obj
                0x0002dbe0                log_callback_rtt
 .text.log_init
                0x0002dc0c       0x1c examples/enocean_switch/CMakeFiles/enocean_switch_nrf52840_xxAA_s140_6.1.1.dir/__/__/mesh/core/src/log.c.obj
                0x0002dc0c                log_init
 .text.log_vprintf
                0x0002dc28       0x1c examples/enocean_switch/CMakeFiles/enocean_switch_nrf52840_xxAA_s140_6.1.1.dir/__/__/mesh/core/src/log.c.obj
                0x0002dc28                log_vprintf
 .text.log_printf
                0x0002dc44       0x18 examples/enocean_switch/CMakeFiles/enocean_switch_nrf52840_xxAA_s140_6.1.1.dir/__/__/mesh/core/src/log.c.obj
                0x0002dc44                log_printf
 .text.get_area_end
                0x0002dc5c        0xc examples/enocean_switch/CMakeFiles/enocean_switch_nrf52840_xxAA_s140_6.1.1.dir/__/__/mesh/core/src/flash_manager.c.obj
 .text.handle_matches_filter
                0x0002dc68       0x26 examples/enocean_switch/CMakeFiles/enocean_switch_nrf52840_xxAA_s140_6.1.1.dir/__/__/mesh/core/src/flash_manager.c.obj
 .text.flash_area_is_blank
                0x0002dc8e       0x2c examples/enocean_switch/CMakeFiles/enocean_switch_nrf52840_xxAA_s140_6.1.1.dir/__/__/mesh/core/src/flash_manager.c.obj
 *fill*         0x0002dcba        0x2 
 .text.get_packet_buffer
                0x0002dcbc       0x20 examples/enocean_switch/CMakeFiles/enocean_switch_nrf52840_xxAA_s140_6.1.1.dir/__/__/mesh/core/src/flash_manager.c.obj
 .text.flash    0x0002dcdc       0x1c examples/enocean_switch/CMakeFiles/enocean_switch_nrf52840_xxAA_s140_6.1.1.dir/__/__/mesh/core/src/flash_manager.c.obj
 .text.free_packet_buffer
                0x0002dcf8       0x3c examples/enocean_switch/CMakeFiles/enocean_switch_nrf52840_xxAA_s140_6.1.1.dir/__/__/mesh/core/src/flash_manager.c.obj
 .text.iterate_callback_entry_copy
                0x0002dd34       0x38 examples/enocean_switch/CMakeFiles/enocean_switch_nrf52840_xxAA_s140_6.1.1.dir/__/__/mesh/core/src/flash_manager.c.obj
 .text.reserve_action_buffer
                0x0002dd6c       0x24 examples/enocean_switch/CMakeFiles/enocean_switch_nrf52840_xxAA_s140_6.1.1.dir/__/__/mesh/core/src/flash_manager.c.obj
 .text.commit_action_buffer
                0x0002dd90       0x18 examples/enocean_switch/CMakeFiles/enocean_switch_nrf52840_xxAA_s140_6.1.1.dir/__/__/mesh/core/src/flash_manager.c.obj
 .text.schedule_processing
                0x0002dda8        0xc examples/enocean_switch/CMakeFiles/enocean_switch_nrf52840_xxAA_s140_6.1.1.dir/__/__/mesh/core/src/flash_manager.c.obj
 .text.get_next_entry
                0x0002ddb4       0x34 examples/enocean_switch/CMakeFiles/enocean_switch_nrf52840_xxAA_s140_6.1.1.dir/__/__/mesh/core/src/flash_manager.c.obj
 .text.get_last_entry.isra.1
                0x0002dde8       0x30 examples/enocean_switch/CMakeFiles/enocean_switch_nrf52840_xxAA_s140_6.1.1.dir/__/__/mesh/core/src/flash_manager.c.obj
 .text.process_action_queue
                0x0002de18      0x3fc examples/enocean_switch/CMakeFiles/enocean_switch_nrf52840_xxAA_s140_6.1.1.dir/__/__/mesh/core/src/flash_manager.c.obj
 .text.flash_op_ended_callback
                0x0002e214       0x24 examples/enocean_switch/CMakeFiles/enocean_switch_nrf52840_xxAA_s140_6.1.1.dir/__/__/mesh/core/src/flash_manager.c.obj
 .text.flash_manager_init
                0x0002e238       0x68 examples/enocean_switch/CMakeFiles/enocean_switch_nrf52840_xxAA_s140_6.1.1.dir/__/__/mesh/core/src/flash_manager.c.obj
                0x0002e238                flash_manager_init
 .text.flash_manager_remove
                0x0002e2a0       0x24 examples/enocean_switch/CMakeFiles/enocean_switch_nrf52840_xxAA_s140_6.1.1.dir/__/__/mesh/core/src/flash_manager.c.obj
                0x0002e2a0                flash_manager_remove
 .text.flash_manager_entries_read
                0x0002e2c4       0xea examples/enocean_switch/CMakeFiles/enocean_switch_nrf52840_xxAA_s140_6.1.1.dir/__/__/mesh/core/src/flash_manager.c.obj
                0x0002e2c4                flash_manager_entries_read
 *fill*         0x0002e3ae        0x2 
 .text.flash_manager_entry_read
                0x0002e3b0       0x50 examples/enocean_switch/CMakeFiles/enocean_switch_nrf52840_xxAA_s140_6.1.1.dir/__/__/mesh/core/src/flash_manager.c.obj
                0x0002e3b0                flash_manager_entry_read
 .text.flash_manager_entry_count_get
                0x0002e400       0x1e examples/enocean_switch/CMakeFiles/enocean_switch_nrf52840_xxAA_s140_6.1.1.dir/__/__/mesh/core/src/flash_manager.c.obj
                0x0002e400                flash_manager_entry_count_get
 .text.flash_manager_entry_alloc
                0x0002e41e       0x5c examples/enocean_switch/CMakeFiles/enocean_switch_nrf52840_xxAA_s140_6.1.1.dir/__/__/mesh/core/src/flash_manager.c.obj
                0x0002e41e                flash_manager_entry_alloc
 *fill*         0x0002e47a        0x2 
 .text.flash_manager_entry_commit
                0x0002e47c       0x2c examples/enocean_switch/CMakeFiles/enocean_switch_nrf52840_xxAA_s140_6.1.1.dir/__/__/mesh/core/src/flash_manager.c.obj
                0x0002e47c                flash_manager_entry_commit
 .text.flash_manager_entry_invalidate
                0x0002e4a8       0x4e examples/enocean_switch/CMakeFiles/enocean_switch_nrf52840_xxAA_s140_6.1.1.dir/__/__/mesh/core/src/flash_manager.c.obj
                0x0002e4a8                flash_manager_entry_invalidate
 *fill*         0x0002e4f6        0x2 
 .text.flash_manager_add
                0x0002e4f8      0x220 examples/enocean_switch/CMakeFiles/enocean_switch_nrf52840_xxAA_s140_6.1.1.dir/__/__/mesh/core/src/flash_manager.c.obj
                0x0002e4f8                flash_manager_add
 .text.flash_manager_mem_listener_register
                0x0002e718       0x30 examples/enocean_switch/CMakeFiles/enocean_switch_nrf52840_xxAA_s140_6.1.1.dir/__/__/mesh/core/src/flash_manager.c.obj
                0x0002e718                flash_manager_mem_listener_register
 .text.flash_manager_is_stable
                0x0002e748       0x20 examples/enocean_switch/CMakeFiles/enocean_switch_nrf52840_xxAA_s140_6.1.1.dir/__/__/mesh/core/src/flash_manager.c.obj
                0x0002e748                flash_manager_is_stable
 .text.flash_manager_on_defrag_end
                0x0002e768       0x4c examples/enocean_switch/CMakeFiles/enocean_switch_nrf52840_xxAA_s140_6.1.1.dir/__/__/mesh/core/src/flash_manager.c.obj
                0x0002e768                flash_manager_on_defrag_end
 .text.flash_manager_recovery_page_get
                0x0002e7b4        0x4 examples/enocean_switch/CMakeFiles/enocean_switch_nrf52840_xxAA_s140_6.1.1.dir/__/__/mesh/core/src/flash_manager.c.obj
                0x0002e7b4                flash_manager_recovery_page_get
 .text.flash_manager_action_queue_empty_cb_set
                0x0002e7b8       0x1c examples/enocean_switch/CMakeFiles/enocean_switch_nrf52840_xxAA_s140_6.1.1.dir/__/__/mesh/core/src/flash_manager.c.obj
                0x0002e7b8                flash_manager_action_queue_empty_cb_set
 .text.utils_xor
                0x0002e7d4       0x14 examples/enocean_switch/CMakeFiles/enocean_switch_nrf52840_xxAA_s140_6.1.1.dir/__/__/mesh/core/src/ccm_soft.c.obj
 .text.sd_ecb_block_encrypt
                0x0002e7e8        0x4 examples/enocean_switch/CMakeFiles/enocean_switch_nrf52840_xxAA_s140_6.1.1.dir/__/__/mesh/core/src/ccm_soft.c.obj
 .text.ccm_soft_crypt
                0x0002e7ec       0x4c examples/enocean_switch/CMakeFiles/enocean_switch_nrf52840_xxAA_s140_6.1.1.dir/__/__/mesh/core/src/ccm_soft.c.obj
 .text.ccm_soft_authenticate_blocks
                0x0002e838       0x6c examples/enocean_switch/CMakeFiles/enocean_switch_nrf52840_xxAA_s140_6.1.1.dir/__/__/mesh/core/src/ccm_soft.c.obj
 .text.ccm_soft_authenticate
                0x0002e8a4       0x94 examples/enocean_switch/CMakeFiles/enocean_switch_nrf52840_xxAA_s140_6.1.1.dir/__/__/mesh/core/src/ccm_soft.c.obj
 .text.ccm_soft_encrypt
                0x0002e938       0x54 examples/enocean_switch/CMakeFiles/enocean_switch_nrf52840_xxAA_s140_6.1.1.dir/__/__/mesh/core/src/ccm_soft.c.obj
                0x0002e938                ccm_soft_encrypt
 .text.ccm_soft_decrypt
                0x0002e98c       0x9c examples/enocean_switch/CMakeFiles/enocean_switch_nrf52840_xxAA_s140_6.1.1.dir/__/__/mesh/core/src/ccm_soft.c.obj
                0x0002e98c                ccm_soft_decrypt
 .text.iv_index_get.isra.0
                0x0002ea28       0x34 examples/enocean_switch/CMakeFiles/enocean_switch_nrf52840_xxAA_s140_6.1.1.dir/__/__/mesh/core/src/replay_cache.c.obj
 .text.evt_handler
                0x0002ea5c       0x60 examples/enocean_switch/CMakeFiles/enocean_switch_nrf52840_xxAA_s140_6.1.1.dir/__/__/mesh/core/src/replay_cache.c.obj
 .text.replay_cache_enable
                0x0002eabc       0x10 examples/enocean_switch/CMakeFiles/enocean_switch_nrf52840_xxAA_s140_6.1.1.dir/__/__/mesh/core/src/replay_cache.c.obj
                0x0002eabc                replay_cache_enable
 .text.replay_cache_add
                0x0002eacc       0x78 examples/enocean_switch/CMakeFiles/enocean_switch_nrf52840_xxAA_s140_6.1.1.dir/__/__/mesh/core/src/replay_cache.c.obj
                0x0002eacc                replay_cache_add
 .text.replay_cache_has_elem
                0x0002eb44       0x50 examples/enocean_switch/CMakeFiles/enocean_switch_nrf52840_xxAA_s140_6.1.1.dir/__/__/mesh/core/src/replay_cache.c.obj
                0x0002eb44                replay_cache_has_elem
 .text.replay_cache_clear
                0x0002eb94       0x18 examples/enocean_switch/CMakeFiles/enocean_switch_nrf52840_xxAA_s140_6.1.1.dir/__/__/mesh/core/src/replay_cache.c.obj
                0x0002eb94                replay_cache_clear
 .text.replay_cache_init
                0x0002ebac       0x14 examples/enocean_switch/CMakeFiles/enocean_switch_nrf52840_xxAA_s140_6.1.1.dir/__/__/mesh/core/src/replay_cache.c.obj
                0x0002ebac                replay_cache_init
 .text.beacon_create
                0x0002ebc0       0x46 examples/enocean_switch/CMakeFiles/enocean_switch_nrf52840_xxAA_s140_6.1.1.dir/__/__/mesh/core/src/beacon.c.obj
                0x0002ebc0                beacon_create
 *fill*         0x0002ec06        0x2 
 .text.beacon_packet_in
                0x0002ec08      0x130 examples/enocean_switch/CMakeFiles/enocean_switch_nrf52840_xxAA_s140_6.1.1.dir/__/__/mesh/core/src/beacon.c.obj
                0x0002ec08                beacon_packet_in
 .text.entry_get
                0x0002ed38       0x78 examples/enocean_switch/CMakeFiles/enocean_switch_nrf52840_xxAA_s140_6.1.1.dir/__/__/mesh/core/src/flash_manager_internal.c.obj
                0x0002ed38                entry_get
 .text.core_tx_complete_cb_set
                0x0002edb0        0xc examples/enocean_switch/CMakeFiles/enocean_switch_nrf52840_xxAA_s140_6.1.1.dir/__/__/mesh/core/src/core_tx.c.obj
                0x0002edb0                core_tx_complete_cb_set
 .text.core_tx_packet_alloc
                0x0002edbc       0xac examples/enocean_switch/CMakeFiles/enocean_switch_nrf52840_xxAA_s140_6.1.1.dir/__/__/mesh/core/src/core_tx.c.obj
                0x0002edbc                core_tx_packet_alloc
 .text.core_tx_packet_send
                0x0002ee68       0x4c examples/enocean_switch/CMakeFiles/enocean_switch_nrf52840_xxAA_s140_6.1.1.dir/__/__/mesh/core/src/core_tx.c.obj
                0x0002ee68                core_tx_packet_send
 .text.core_tx_packet_discard
                0x0002eeb4       0x40 examples/enocean_switch/CMakeFiles/enocean_switch_nrf52840_xxAA_s140_6.1.1.dir/__/__/mesh/core/src/core_tx.c.obj
                0x0002eeb4                core_tx_packet_discard
 .text.core_tx_complete
                0x0002eef4       0x34 examples/enocean_switch/CMakeFiles/enocean_switch_nrf52840_xxAA_s140_6.1.1.dir/__/__/mesh/core/src/core_tx.c.obj
                0x0002eef4                core_tx_complete
 .text.core_tx_bearer_add
                0x0002ef28       0x74 examples/enocean_switch/CMakeFiles/enocean_switch_nrf52840_xxAA_s140_6.1.1.dir/__/__/mesh/core/src/core_tx.c.obj
                0x0002ef28                core_tx_bearer_add
 .text.hb_pub_deleter
                0x0002ef9c       0x28 examples/enocean_switch/CMakeFiles/enocean_switch_nrf52840_xxAA_s140_6.1.1.dir/__/__/mesh/core/src/heartbeat.c.obj
 .text.hb_pub_getter
                0x0002efc4       0x2c examples/enocean_switch/CMakeFiles/enocean_switch_nrf52840_xxAA_s140_6.1.1.dir/__/__/mesh/core/src/heartbeat.c.obj
 .text.hb_pub_setter
                0x0002eff0       0xd0 examples/enocean_switch/CMakeFiles/enocean_switch_nrf52840_xxAA_s140_6.1.1.dir/__/__/mesh/core/src/heartbeat.c.obj
 .text.heartbeat_subscription_timer_cb
                0x0002f0c0       0x3c examples/enocean_switch/CMakeFiles/enocean_switch_nrf52840_xxAA_s140_6.1.1.dir/__/__/mesh/core/src/heartbeat.c.obj
 .text.heartbeat_opcode_handle
                0x0002f0fc       0x88 examples/enocean_switch/CMakeFiles/enocean_switch_nrf52840_xxAA_s140_6.1.1.dir/__/__/mesh/core/src/heartbeat.c.obj
 .text.heartbeat_publish
                0x0002f184       0xb8 examples/enocean_switch/CMakeFiles/enocean_switch_nrf52840_xxAA_s140_6.1.1.dir/__/__/mesh/core/src/heartbeat.c.obj
 .text.on_feature_update
                0x0002f23c       0x34 examples/enocean_switch/CMakeFiles/enocean_switch_nrf52840_xxAA_s140_6.1.1.dir/__/__/mesh/core/src/heartbeat.c.obj
 .text.heartbeat_relay_listener_cb
                0x0002f270       0x1c examples/enocean_switch/CMakeFiles/enocean_switch_nrf52840_xxAA_s140_6.1.1.dir/__/__/mesh/core/src/heartbeat.c.obj
 .text.heartbeat_proxy_listener_cb
                0x0002f28c       0x14 examples/enocean_switch/CMakeFiles/enocean_switch_nrf52840_xxAA_s140_6.1.1.dir/__/__/mesh/core/src/heartbeat.c.obj
 .text.heartbeat_core_evt_cb
                0x0002f2a0       0x18 examples/enocean_switch/CMakeFiles/enocean_switch_nrf52840_xxAA_s140_6.1.1.dir/__/__/mesh/core/src/heartbeat.c.obj
 .text.heartbeat_publication_timer_cb
                0x0002f2b8       0x54 examples/enocean_switch/CMakeFiles/enocean_switch_nrf52840_xxAA_s140_6.1.1.dir/__/__/mesh/core/src/heartbeat.c.obj
 .text.heartbeat_init
                0x0002f30c       0x58 examples/enocean_switch/CMakeFiles/enocean_switch_nrf52840_xxAA_s140_6.1.1.dir/__/__/mesh/core/src/heartbeat.c.obj
                0x0002f30c                heartbeat_init
 .text.heartbeat_subscription_set
                0x0002f364       0xd0 examples/enocean_switch/CMakeFiles/enocean_switch_nrf52840_xxAA_s140_6.1.1.dir/__/__/mesh/core/src/heartbeat.c.obj
                0x0002f364                heartbeat_subscription_set
 .text.heartbeat_subscription_get
                0x0002f434        0x8 examples/enocean_switch/CMakeFiles/enocean_switch_nrf52840_xxAA_s140_6.1.1.dir/__/__/mesh/core/src/heartbeat.c.obj
                0x0002f434                heartbeat_subscription_get
 .text.heartbeat_publication_get
                0x0002f43c        0x8 examples/enocean_switch/CMakeFiles/enocean_switch_nrf52840_xxAA_s140_6.1.1.dir/__/__/mesh/core/src/heartbeat.c.obj
                0x0002f43c                heartbeat_publication_get
 .text.heartbeat_publication_set
                0x0002f444       0x18 examples/enocean_switch/CMakeFiles/enocean_switch_nrf52840_xxAA_s140_6.1.1.dir/__/__/mesh/core/src/heartbeat.c.obj
                0x0002f444                heartbeat_publication_set
 .text.heartbeat_public_info_getter_register
                0x0002f45c       0x14 examples/enocean_switch/CMakeFiles/enocean_switch_nrf52840_xxAA_s140_6.1.1.dir/__/__/mesh/core/src/heartbeat.c.obj
                0x0002f45c                heartbeat_public_info_getter_register
 .text.beacon_deleter
                0x0002f470       0x34 examples/enocean_switch/CMakeFiles/enocean_switch_nrf52840_xxAA_s140_6.1.1.dir/__/__/mesh/core/src/net_beacon.c.obj
 .text.beacon_getter
                0x0002f4a4       0x24 examples/enocean_switch/CMakeFiles/enocean_switch_nrf52840_xxAA_s140_6.1.1.dir/__/__/mesh/core/src/net_beacon.c.obj
 .text.beacon_setter
                0x0002f4c8       0x5c examples/enocean_switch/CMakeFiles/enocean_switch_nrf52840_xxAA_s140_6.1.1.dir/__/__/mesh/core/src/net_beacon.c.obj
 .text.make_network_beacon_packet
                0x0002f524       0x50 examples/enocean_switch/CMakeFiles/enocean_switch_nrf52840_xxAA_s140_6.1.1.dir/__/__/mesh/core/src/net_beacon.c.obj
 .text.beacon_tx
                0x0002f574      0x188 examples/enocean_switch/CMakeFiles/enocean_switch_nrf52840_xxAA_s140_6.1.1.dir/__/__/mesh/core/src/net_beacon.c.obj
 .text.tx_complete_cb
                0x0002f6fc        0xe examples/enocean_switch/CMakeFiles/enocean_switch_nrf52840_xxAA_s140_6.1.1.dir/__/__/mesh/core/src/net_beacon.c.obj
 .text.beacon_tx_timeout
                0x0002f70a        0x4 examples/enocean_switch/CMakeFiles/enocean_switch_nrf52840_xxAA_s140_6.1.1.dir/__/__/mesh/core/src/net_beacon.c.obj
 .text.is_valid_beacon_pkt.part.1
                0x0002f70e       0x30 examples/enocean_switch/CMakeFiles/enocean_switch_nrf52840_xxAA_s140_6.1.1.dir/__/__/mesh/core/src/net_beacon.c.obj
 *fill*         0x0002f73e        0x2 
 .text.net_beacon_init
                0x0002f740       0x7c examples/enocean_switch/CMakeFiles/enocean_switch_nrf52840_xxAA_s140_6.1.1.dir/__/__/mesh/core/src/net_beacon.c.obj
                0x0002f740                net_beacon_init
 .text.net_beacon_enable
                0x0002f7bc       0x28 examples/enocean_switch/CMakeFiles/enocean_switch_nrf52840_xxAA_s140_6.1.1.dir/__/__/mesh/core/src/net_beacon.c.obj
                0x0002f7bc                net_beacon_enable
 .text.net_beacon_state_set
                0x0002f7e4       0x20 examples/enocean_switch/CMakeFiles/enocean_switch_nrf52840_xxAA_s140_6.1.1.dir/__/__/mesh/core/src/net_beacon.c.obj
                0x0002f7e4                net_beacon_state_set
 .text.net_beacon_state_get
                0x0002f804       0x24 examples/enocean_switch/CMakeFiles/enocean_switch_nrf52840_xxAA_s140_6.1.1.dir/__/__/mesh/core/src/net_beacon.c.obj
                0x0002f804                net_beacon_state_get
 .text.net_beacon_build
                0x0002f828       0x24 examples/enocean_switch/CMakeFiles/enocean_switch_nrf52840_xxAA_s140_6.1.1.dir/__/__/mesh/core/src/net_beacon.c.obj
                0x0002f828                net_beacon_build
 .text.net_beacon_packet_in
                0x0002f84c      0x16c examples/enocean_switch/CMakeFiles/enocean_switch_nrf52840_xxAA_s140_6.1.1.dir/__/__/mesh/core/src/net_beacon.c.obj
                0x0002f84c                net_beacon_packet_in
 .text.listeners_notify
                0x0002f9b8       0x4c examples/enocean_switch/CMakeFiles/enocean_switch_nrf52840_xxAA_s140_6.1.1.dir/__/__/mesh/core/src/mesh_config.c.obj
 .text.entry_flags_get.isra.0
                0x0002fa04       0x1c examples/enocean_switch/CMakeFiles/enocean_switch_nrf52840_xxAA_s140_6.1.1.dir/__/__/mesh/core/src/mesh_config.c.obj
 .text.entry_params_find
                0x0002fa20       0x38 examples/enocean_switch/CMakeFiles/enocean_switch_nrf52840_xxAA_s140_6.1.1.dir/__/__/mesh/core/src/mesh_config.c.obj
 .text.restore_callback
                0x0002fa58       0x66 examples/enocean_switch/CMakeFiles/enocean_switch_nrf52840_xxAA_s140_6.1.1.dir/__/__/mesh/core/src/mesh_config.c.obj
 *fill*         0x0002fabe        0x2 
 .text.dirty_entries_process
                0x0002fac0       0xdc examples/enocean_switch/CMakeFiles/enocean_switch_nrf52840_xxAA_s140_6.1.1.dir/__/__/mesh/core/src/mesh_config.c.obj
 .text.mesh_config_init
                0x0002fb9c       0xa0 examples/enocean_switch/CMakeFiles/enocean_switch_nrf52840_xxAA_s140_6.1.1.dir/__/__/mesh/core/src/mesh_config.c.obj
                0x0002fb9c                mesh_config_init
 .text.mesh_config_load
                0x0002fc3c        0xc examples/enocean_switch/CMakeFiles/enocean_switch_nrf52840_xxAA_s140_6.1.1.dir/__/__/mesh/core/src/mesh_config.c.obj
                0x0002fc3c                mesh_config_load
 .text.mesh_config_is_busy
                0x0002fc48       0x34 examples/enocean_switch/CMakeFiles/enocean_switch_nrf52840_xxAA_s140_6.1.1.dir/__/__/mesh/core/src/mesh_config.c.obj
                0x0002fc48                mesh_config_is_busy
 .text.backend_evt_handler
                0x0002fc7c       0x88 examples/enocean_switch/CMakeFiles/enocean_switch_nrf52840_xxAA_s140_6.1.1.dir/__/__/mesh/core/src/mesh_config.c.obj
 .text.mesh_config_entry_set
                0x0002fd04       0x80 examples/enocean_switch/CMakeFiles/enocean_switch_nrf52840_xxAA_s140_6.1.1.dir/__/__/mesh/core/src/mesh_config.c.obj
                0x0002fd04                mesh_config_entry_set
 .text.mesh_config_entry_get
                0x0002fd84       0x3c examples/enocean_switch/CMakeFiles/enocean_switch_nrf52840_xxAA_s140_6.1.1.dir/__/__/mesh/core/src/mesh_config.c.obj
                0x0002fd84                mesh_config_entry_get
 .text.mesh_config_entry_delete
                0x0002fdc0       0x4a examples/enocean_switch/CMakeFiles/enocean_switch_nrf52840_xxAA_s140_6.1.1.dir/__/__/mesh/core/src/mesh_config.c.obj
                0x0002fdc0                mesh_config_entry_delete
 *fill*         0x0002fe0a        0x2 
 .text.mesh_config_clear
                0x0002fe0c       0x4c examples/enocean_switch/CMakeFiles/enocean_switch_nrf52840_xxAA_s140_6.1.1.dir/__/__/mesh/core/src/mesh_config.c.obj
                0x0002fe0c                mesh_config_clear
 .text.fsm_event_post_try
                0x0002fe58       0xaa examples/enocean_switch/CMakeFiles/enocean_switch_nrf52840_xxAA_s140_6.1.1.dir/__/__/mesh/core/src/fsm.c.obj
 .text.fsm_init
                0x0002ff02       0x66 examples/enocean_switch/CMakeFiles/enocean_switch_nrf52840_xxAA_s140_6.1.1.dir/__/__/mesh/core/src/fsm.c.obj
                0x0002ff02                fsm_init
 .text.fsm_event_post
                0x0002ff68       0x40 examples/enocean_switch/CMakeFiles/enocean_switch_nrf52840_xxAA_s140_6.1.1.dir/__/__/mesh/core/src/fsm.c.obj
                0x0002ff68                fsm_event_post
 .text.fsm_is_processing
                0x0002ffa8        0xa examples/enocean_switch/CMakeFiles/enocean_switch_nrf52840_xxAA_s140_6.1.1.dir/__/__/mesh/core/src/fsm.c.obj
                0x0002ffa8                fsm_is_processing
 .text.dummy_event
                0x0002ffb2        0x2 examples/enocean_switch/CMakeFiles/enocean_switch_nrf52840_xxAA_s140_6.1.1.dir/__/__/mesh/core/src/mesh_config_backend.c.obj
 .text.file_get
                0x0002ffb4       0x34 examples/enocean_switch/CMakeFiles/enocean_switch_nrf52840_xxAA_s140_6.1.1.dir/__/__/mesh/core/src/mesh_config_backend.c.obj
 .text.mesh_config_backend_init
                0x0002ffe8      0x11c examples/enocean_switch/CMakeFiles/enocean_switch_nrf52840_xxAA_s140_6.1.1.dir/__/__/mesh/core/src/mesh_config_backend.c.obj
                0x0002ffe8                mesh_config_backend_init
 .text.mesh_config_backend_store
                0x00030104       0x4e examples/enocean_switch/CMakeFiles/enocean_switch_nrf52840_xxAA_s140_6.1.1.dir/__/__/mesh/core/src/mesh_config_backend.c.obj
                0x00030104                mesh_config_backend_store
 .text.mesh_config_backend_erase
                0x00030152       0x34 examples/enocean_switch/CMakeFiles/enocean_switch_nrf52840_xxAA_s140_6.1.1.dir/__/__/mesh/core/src/mesh_config_backend.c.obj
                0x00030152                mesh_config_backend_erase
 *fill*         0x00030186        0x2 
 .text.mesh_config_backend_read_all
                0x00030188       0x38 examples/enocean_switch/CMakeFiles/enocean_switch_nrf52840_xxAA_s140_6.1.1.dir/__/__/mesh/core/src/mesh_config_backend.c.obj
                0x00030188                mesh_config_backend_read_all
 .text.entry_read_cb
                0x000301c0       0x38 examples/enocean_switch/CMakeFiles/enocean_switch_nrf52840_xxAA_s140_6.1.1.dir/__/__/mesh/core/src/mesh_config_flashman_glue.c.obj
 .text.write_complete_cb
                0x000301f8       0x30 examples/enocean_switch/CMakeFiles/enocean_switch_nrf52840_xxAA_s140_6.1.1.dir/__/__/mesh/core/src/mesh_config_flashman_glue.c.obj
 .text.invalidate_complete_cb
                0x00030228       0x2c examples/enocean_switch/CMakeFiles/enocean_switch_nrf52840_xxAA_s140_6.1.1.dir/__/__/mesh/core/src/mesh_config_flashman_glue.c.obj
 .text.remove_complete_cb
                0x00030254        0x2 examples/enocean_switch/CMakeFiles/enocean_switch_nrf52840_xxAA_s140_6.1.1.dir/__/__/mesh/core/src/mesh_config_flashman_glue.c.obj
 .text.flash_stable_cb
                0x00030256       0x20 examples/enocean_switch/CMakeFiles/enocean_switch_nrf52840_xxAA_s140_6.1.1.dir/__/__/mesh/core/src/mesh_config_flashman_glue.c.obj
 *fill*         0x00030276        0x2 
 .text.mesh_config_backend_glue_init
                0x00030278       0x28 examples/enocean_switch/CMakeFiles/enocean_switch_nrf52840_xxAA_s140_6.1.1.dir/__/__/mesh/core/src/mesh_config_flashman_glue.c.obj
                0x00030278                mesh_config_backend_glue_init
 .text.mesh_config_backend_file_create
                0x000302a0       0x58 examples/enocean_switch/CMakeFiles/enocean_switch_nrf52840_xxAA_s140_6.1.1.dir/__/__/mesh/core/src/mesh_config_flashman_glue.c.obj
                0x000302a0                mesh_config_backend_file_create
 .text.mesh_config_backend_record_write
                0x000302f8       0x2c examples/enocean_switch/CMakeFiles/enocean_switch_nrf52840_xxAA_s140_6.1.1.dir/__/__/mesh/core/src/mesh_config_flashman_glue.c.obj
                0x000302f8                mesh_config_backend_record_write
 .text.mesh_config_backend_record_erase
                0x00030324       0x30 examples/enocean_switch/CMakeFiles/enocean_switch_nrf52840_xxAA_s140_6.1.1.dir/__/__/mesh/core/src/mesh_config_flashman_glue.c.obj
                0x00030324                mesh_config_backend_record_erase
 .text.mesh_config_backend_records_read
                0x00030354       0x30 examples/enocean_switch/CMakeFiles/enocean_switch_nrf52840_xxAA_s140_6.1.1.dir/__/__/mesh/core/src/mesh_config_flashman_glue.c.obj
                0x00030354                mesh_config_backend_records_read
 .text.mesh_config_record_size_calculate
                0x00030384        0xa examples/enocean_switch/CMakeFiles/enocean_switch_nrf52840_xxAA_s140_6.1.1.dir/__/__/mesh/core/src/mesh_config_flashman_glue.c.obj
                0x00030384                mesh_config_record_size_calculate
 *fill*         0x0003038e        0x2 
 .text.mesh_config_backend_flash_usage_get
                0x00030390       0x24 examples/enocean_switch/CMakeFiles/enocean_switch_nrf52840_xxAA_s140_6.1.1.dir/__/__/mesh/core/src/mesh_config_flashman_glue.c.obj
                0x00030390                mesh_config_backend_flash_usage_get
 .text.mesh_config_backend_file_power_down_time_get
                0x000303b4       0x24 examples/enocean_switch/CMakeFiles/enocean_switch_nrf52840_xxAA_s140_6.1.1.dir/__/__/mesh/core/src/mesh_config_flashman_glue.c.obj
                0x000303b4                mesh_config_backend_file_power_down_time_get
 .text.packet_discard
                0x000303d8       0x30 examples/enocean_switch/CMakeFiles/enocean_switch_nrf52840_xxAA_s140_6.1.1.dir/__/__/mesh/core/src/core_tx_local.c.obj
 .text.packet_send
                0x00030408       0x58 examples/enocean_switch/CMakeFiles/enocean_switch_nrf52840_xxAA_s140_6.1.1.dir/__/__/mesh/core/src/core_tx_local.c.obj
 .text.loopback_process
                0x00030460       0x64 examples/enocean_switch/CMakeFiles/enocean_switch_nrf52840_xxAA_s140_6.1.1.dir/__/__/mesh/core/src/core_tx_local.c.obj
 .text.packet_alloc
                0x000304c4       0x48 examples/enocean_switch/CMakeFiles/enocean_switch_nrf52840_xxAA_s140_6.1.1.dir/__/__/mesh/core/src/core_tx_local.c.obj
 .text.core_tx_local_init
                0x0003050c       0x34 examples/enocean_switch/CMakeFiles/enocean_switch_nrf52840_xxAA_s140_6.1.1.dir/__/__/mesh/core/src/core_tx_local.c.obj
                0x0003050c                core_tx_local_init
 .text.core_tx_adv_get
                0x00030540       0x3c examples/enocean_switch/CMakeFiles/enocean_switch_nrf52840_xxAA_s140_6.1.1.dir/__/__/mesh/core/src/core_tx_adv.c.obj
 .text.core_tx_tx_power_get
                0x0003057c       0x30 examples/enocean_switch/CMakeFiles/enocean_switch_nrf52840_xxAA_s140_6.1.1.dir/__/__/mesh/core/src/core_tx_adv.c.obj
 .text.core_tx_adv_delete
                0x000305ac       0x50 examples/enocean_switch/CMakeFiles/enocean_switch_nrf52840_xxAA_s140_6.1.1.dir/__/__/mesh/core/src/core_tx_adv.c.obj
 .text.core_tx_adv_set
                0x000305fc       0x6c examples/enocean_switch/CMakeFiles/enocean_switch_nrf52840_xxAA_s140_6.1.1.dir/__/__/mesh/core/src/core_tx_adv.c.obj
 .text.core_tx_tx_power_delete
                0x00030668       0x30 examples/enocean_switch/CMakeFiles/enocean_switch_nrf52840_xxAA_s140_6.1.1.dir/__/__/mesh/core/src/core_tx_adv.c.obj
 .text.core_tx_tx_power_set
                0x00030698       0x34 examples/enocean_switch/CMakeFiles/enocean_switch_nrf52840_xxAA_s140_6.1.1.dir/__/__/mesh/core/src/core_tx_adv.c.obj
 .text.core_tx_adv_addr_delete
                0x000306cc       0x34 examples/enocean_switch/CMakeFiles/enocean_switch_nrf52840_xxAA_s140_6.1.1.dir/__/__/mesh/core/src/core_tx_adv.c.obj
 .text.core_tx_adv_addr_set
                0x00030700       0x40 examples/enocean_switch/CMakeFiles/enocean_switch_nrf52840_xxAA_s140_6.1.1.dir/__/__/mesh/core/src/core_tx_adv.c.obj
 .text.core_tx_adv_addr_get
                0x00030740       0x34 examples/enocean_switch/CMakeFiles/enocean_switch_nrf52840_xxAA_s140_6.1.1.dir/__/__/mesh/core/src/core_tx_adv.c.obj
 .text.packet_discard
                0x00030774       0x40 examples/enocean_switch/CMakeFiles/enocean_switch_nrf52840_xxAA_s140_6.1.1.dir/__/__/mesh/core/src/core_tx_adv.c.obj
 .text.packet_send
                0x000307b4       0x58 examples/enocean_switch/CMakeFiles/enocean_switch_nrf52840_xxAA_s140_6.1.1.dir/__/__/mesh/core/src/core_tx_adv.c.obj
 .text.packet_alloc
                0x0003080c       0x58 examples/enocean_switch/CMakeFiles/enocean_switch_nrf52840_xxAA_s140_6.1.1.dir/__/__/mesh/core/src/core_tx_adv.c.obj
 .text.adv_tx_complete_callback
                0x00030864       0x20 examples/enocean_switch/CMakeFiles/enocean_switch_nrf52840_xxAA_s140_6.1.1.dir/__/__/mesh/core/src/core_tx_adv.c.obj
 .text.mesh_opt_core_adv_set
                0x00030884       0x22 examples/enocean_switch/CMakeFiles/enocean_switch_nrf52840_xxAA_s140_6.1.1.dir/__/__/mesh/core/src/core_tx_adv.c.obj
                0x00030884                mesh_opt_core_adv_set
 .text.mesh_opt_core_adv_get
                0x000308a6       0x22 examples/enocean_switch/CMakeFiles/enocean_switch_nrf52840_xxAA_s140_6.1.1.dir/__/__/mesh/core/src/core_tx_adv.c.obj
                0x000308a6                mesh_opt_core_adv_get
 .text.core_tx_adv_init
                0x000308c8       0x60 examples/enocean_switch/CMakeFiles/enocean_switch_nrf52840_xxAA_s140_6.1.1.dir/__/__/mesh/core/src/core_tx_adv.c.obj
                0x000308c8                core_tx_adv_init
 .text.core_tx_adv_is_enabled
                0x00030928       0x20 examples/enocean_switch/CMakeFiles/enocean_switch_nrf52840_xxAA_s140_6.1.1.dir/__/__/mesh/core/src/core_tx_adv.c.obj
                0x00030928                core_tx_adv_is_enabled
 .text.mesh_mem_init
                0x00030948        0x2 examples/enocean_switch/CMakeFiles/enocean_switch_nrf52840_xxAA_s140_6.1.1.dir/__/__/mesh/core/src/mesh_mem_stdlib.c.obj
                0x00030948                mesh_mem_init
 .text.mesh_mem_alloc
                0x0003094a        0x4 examples/enocean_switch/CMakeFiles/enocean_switch_nrf52840_xxAA_s140_6.1.1.dir/__/__/mesh/core/src/mesh_mem_stdlib.c.obj
                0x0003094a                mesh_mem_alloc
 .text.mesh_mem_free
                0x0003094e        0x4 examples/enocean_switch/CMakeFiles/enocean_switch_nrf52840_xxAA_s140_6.1.1.dir/__/__/mesh/core/src/mesh_mem_stdlib.c.obj
                0x0003094e                mesh_mem_free
 *fill*         0x00030952        0x2 
 .text.ad_listener_subscribe
                0x00030954       0x5c examples/enocean_switch/CMakeFiles/enocean_switch_nrf52840_xxAA_s140_6.1.1.dir/__/__/mesh/bearer/src/ad_listener.c.obj
                0x00030954                ad_listener_subscribe
 .text.ad_listener_process
                0x000309b0       0x68 examples/enocean_switch/CMakeFiles/enocean_switch_nrf52840_xxAA_s140_6.1.1.dir/__/__/mesh/bearer/src/ad_listener.c.obj
                0x000309b0                ad_listener_process
 .text.adtype_filter_handle
                0x00030a18       0x64 examples/enocean_switch/CMakeFiles/enocean_switch_nrf52840_xxAA_s140_6.1.1.dir/__/__/mesh/bearer/src/ad_type_filter.c.obj
 .text.bearer_adtype_filtering_set
                0x00030a7c       0x20 examples/enocean_switch/CMakeFiles/enocean_switch_nrf52840_xxAA_s140_6.1.1.dir/__/__/mesh/bearer/src/ad_type_filter.c.obj
                0x00030a7c                bearer_adtype_filtering_set
 .text.bearer_adtype_add
                0x00030a9c       0x20 examples/enocean_switch/CMakeFiles/enocean_switch_nrf52840_xxAA_s140_6.1.1.dir/__/__/mesh/bearer/src/ad_type_filter.c.obj
                0x00030a9c                bearer_adtype_add
 .text.bearer_adtype_mode_set
                0x00030abc       0x18 examples/enocean_switch/CMakeFiles/enocean_switch_nrf52840_xxAA_s140_6.1.1.dir/__/__/mesh/bearer/src/ad_type_filter.c.obj
                0x00030abc                bearer_adtype_mode_set
 .text.tx_complete_event_callback
                0x00030ad4       0x24 examples/enocean_switch/CMakeFiles/enocean_switch_nrf52840_xxAA_s140_6.1.1.dir/__/__/mesh/bearer/src/advertiser.c.obj
 .text.set_gap_addr_type
                0x00030af8       0x26 examples/enocean_switch/CMakeFiles/enocean_switch_nrf52840_xxAA_s140_6.1.1.dir/__/__/mesh/bearer/src/advertiser.c.obj
 .text.broadcast_complete_cb
                0x00030b1e       0x46 examples/enocean_switch/CMakeFiles/enocean_switch_nrf52840_xxAA_s140_6.1.1.dir/__/__/mesh/bearer/src/advertiser.c.obj
 .text.schedule_first_time
                0x00030b64       0x28 examples/enocean_switch/CMakeFiles/enocean_switch_nrf52840_xxAA_s140_6.1.1.dir/__/__/mesh/bearer/src/advertiser.c.obj
 .text.timeout_event
                0x00030b8c      0x114 examples/enocean_switch/CMakeFiles/enocean_switch_nrf52840_xxAA_s140_6.1.1.dir/__/__/mesh/bearer/src/advertiser.c.obj
 .text.advertiser_init
                0x00030ca0        0xc examples/enocean_switch/CMakeFiles/enocean_switch_nrf52840_xxAA_s140_6.1.1.dir/__/__/mesh/bearer/src/advertiser.c.obj
                0x00030ca0                advertiser_init
 .text.advertiser_enable
                0x00030cac       0x2a examples/enocean_switch/CMakeFiles/enocean_switch_nrf52840_xxAA_s140_6.1.1.dir/__/__/mesh/bearer/src/advertiser.c.obj
                0x00030cac                advertiser_enable
 .text.advertiser_disable
                0x00030cd6        0xa examples/enocean_switch/CMakeFiles/enocean_switch_nrf52840_xxAA_s140_6.1.1.dir/__/__/mesh/bearer/src/advertiser.c.obj
                0x00030cd6                advertiser_disable
 .text.advertiser_packet_alloc
                0x00030ce0       0x76 examples/enocean_switch/CMakeFiles/enocean_switch_nrf52840_xxAA_s140_6.1.1.dir/__/__/mesh/bearer/src/advertiser.c.obj
                0x00030ce0                advertiser_packet_alloc
 .text.advertiser_packet_send
                0x00030d56       0x52 examples/enocean_switch/CMakeFiles/enocean_switch_nrf52840_xxAA_s140_6.1.1.dir/__/__/mesh/bearer/src/advertiser.c.obj
                0x00030d56                advertiser_packet_send
 .text.advertiser_packet_discard
                0x00030da8       0x1e examples/enocean_switch/CMakeFiles/enocean_switch_nrf52840_xxAA_s140_6.1.1.dir/__/__/mesh/bearer/src/advertiser.c.obj
                0x00030da8                advertiser_packet_discard
 .text.advertiser_address_set
                0x00030dc6       0x3c examples/enocean_switch/CMakeFiles/enocean_switch_nrf52840_xxAA_s140_6.1.1.dir/__/__/mesh/bearer/src/advertiser.c.obj
                0x00030dc6                advertiser_address_set
 .text.advertiser_interval_set
                0x00030e02       0x40 examples/enocean_switch/CMakeFiles/enocean_switch_nrf52840_xxAA_s140_6.1.1.dir/__/__/mesh/bearer/src/advertiser.c.obj
                0x00030e02                advertiser_interval_set
 .text.advertiser_tx_power_set
                0x00030e42       0x14 examples/enocean_switch/CMakeFiles/enocean_switch_nrf52840_xxAA_s140_6.1.1.dir/__/__/mesh/bearer/src/advertiser.c.obj
                0x00030e42                advertiser_tx_power_set
 .text.advertiser_flush
                0x00030e56       0x1e examples/enocean_switch/CMakeFiles/enocean_switch_nrf52840_xxAA_s140_6.1.1.dir/__/__/mesh/bearer/src/advertiser.c.obj
                0x00030e56                advertiser_flush
 .text.advertiser_address_default_get
                0x00030e74       0x38 examples/enocean_switch/CMakeFiles/enocean_switch_nrf52840_xxAA_s140_6.1.1.dir/__/__/mesh/bearer/src/advertiser.c.obj
                0x00030e74                advertiser_address_default_get
 .text.advertiser_instance_init
                0x00030eac       0x98 examples/enocean_switch/CMakeFiles/enocean_switch_nrf52840_xxAA_s140_6.1.1.dir/__/__/mesh/bearer/src/advertiser.c.obj
                0x00030eac                advertiser_instance_init
 .text.notify_stop
                0x00030f44       0x14 examples/enocean_switch/CMakeFiles/enocean_switch_nrf52840_xxAA_s140_6.1.1.dir/__/__/mesh/bearer/src/bearer_handler.c.obj
 .text.action_in_progress
                0x00030f58       0x30 examples/enocean_switch/CMakeFiles/enocean_switch_nrf52840_xxAA_s140_6.1.1.dir/__/__/mesh/bearer/src/bearer_handler.c.obj
 .text.action_timer_start
                0x00030f88       0x88 examples/enocean_switch/CMakeFiles/enocean_switch_nrf52840_xxAA_s140_6.1.1.dir/__/__/mesh/bearer/src/bearer_handler.c.obj
 .text.action_switch
                0x00031010      0x104 examples/enocean_switch/CMakeFiles/enocean_switch_nrf52840_xxAA_s140_6.1.1.dir/__/__/mesh/bearer/src/bearer_handler.c.obj
 .text.end_handle
                0x00031114       0x44 examples/enocean_switch/CMakeFiles/enocean_switch_nrf52840_xxAA_s140_6.1.1.dir/__/__/mesh/bearer/src/bearer_handler.c.obj
 .text.TIMER2_IRQHandler
                0x00031158       0x58 examples/enocean_switch/CMakeFiles/enocean_switch_nrf52840_xxAA_s140_6.1.1.dir/__/__/mesh/bearer/src/bearer_handler.c.obj
                0x00031158                TIMER2_IRQHandler
 .text.bearer_handler_init
                0x000311b0       0x44 examples/enocean_switch/CMakeFiles/enocean_switch_nrf52840_xxAA_s140_6.1.1.dir/__/__/mesh/bearer/src/bearer_handler.c.obj
                0x000311b0                bearer_handler_init
 .text.bearer_handler_stop
                0x000311f4       0x48 examples/enocean_switch/CMakeFiles/enocean_switch_nrf52840_xxAA_s140_6.1.1.dir/__/__/mesh/bearer/src/bearer_handler.c.obj
                0x000311f4                bearer_handler_stop
 .text.bearer_handler_wake_up
                0x0003123c       0x2c examples/enocean_switch/CMakeFiles/enocean_switch_nrf52840_xxAA_s140_6.1.1.dir/__/__/mesh/bearer/src/bearer_handler.c.obj
                0x0003123c                bearer_handler_wake_up
 .text.bearer_handler_start
                0x00031268       0x1c examples/enocean_switch/CMakeFiles/enocean_switch_nrf52840_xxAA_s140_6.1.1.dir/__/__/mesh/bearer/src/bearer_handler.c.obj
                0x00031268                bearer_handler_start
 .text.bearer_handler_action_enqueue
                0x00031284       0x6c examples/enocean_switch/CMakeFiles/enocean_switch_nrf52840_xxAA_s140_6.1.1.dir/__/__/mesh/bearer/src/bearer_handler.c.obj
                0x00031284                bearer_handler_action_enqueue
 .text.bearer_handler_action_end
                0x000312f0       0x48 examples/enocean_switch/CMakeFiles/enocean_switch_nrf52840_xxAA_s140_6.1.1.dir/__/__/mesh/bearer/src/bearer_handler.c.obj
                0x000312f0                bearer_handler_action_end
 .text.bearer_handler_radio_irq_handler
                0x00031338       0x70 examples/enocean_switch/CMakeFiles/enocean_switch_nrf52840_xxAA_s140_6.1.1.dir/__/__/mesh/bearer/src/bearer_handler.c.obj
                0x00031338                bearer_handler_radio_irq_handler
 .text.bearer_handler_timer_irq_handler
                0x000313a8       0x34 examples/enocean_switch/CMakeFiles/enocean_switch_nrf52840_xxAA_s140_6.1.1.dir/__/__/mesh/bearer/src/bearer_handler.c.obj
                0x000313a8                bearer_handler_timer_irq_handler
 .text.bearer_handler_on_ts_begin
                0x000313dc       0x38 examples/enocean_switch/CMakeFiles/enocean_switch_nrf52840_xxAA_s140_6.1.1.dir/__/__/mesh/bearer/src/bearer_handler.c.obj
                0x000313dc                bearer_handler_on_ts_begin
 .text.bearer_handler_on_ts_end
                0x00031414       0x70 examples/enocean_switch/CMakeFiles/enocean_switch_nrf52840_xxAA_s140_6.1.1.dir/__/__/mesh/bearer/src/bearer_handler.c.obj
                0x00031414                bearer_handler_on_ts_end
 .text.bearer_handler_on_ts_session_closed
                0x00031484       0x10 examples/enocean_switch/CMakeFiles/enocean_switch_nrf52840_xxAA_s140_6.1.1.dir/__/__/mesh/bearer/src/bearer_handler.c.obj
                0x00031484                bearer_handler_on_ts_session_closed
 .text.radio_irq_handler
                0x00031494       0xa4 examples/enocean_switch/CMakeFiles/enocean_switch_nrf52840_xxAA_s140_6.1.1.dir/__/__/mesh/bearer/src/broadcast.c.obj
 .text.broadcast_start
                0x00031538       0xb4 examples/enocean_switch/CMakeFiles/enocean_switch_nrf52840_xxAA_s140_6.1.1.dir/__/__/mesh/bearer/src/broadcast.c.obj
 .text.broadcast_send
                0x000315ec       0x6c examples/enocean_switch/CMakeFiles/enocean_switch_nrf52840_xxAA_s140_6.1.1.dir/__/__/mesh/bearer/src/broadcast.c.obj
                0x000315ec                broadcast_send
 .text.fen_filter_start
                0x00031658       0x3c examples/enocean_switch/CMakeFiles/enocean_switch_nrf52840_xxAA_s140_6.1.1.dir/__/__/mesh/bearer/src/filter_engine.c.obj
                0x00031658                fen_filter_start
 .text.fen_filter_stop
                0x00031694       0x30 examples/enocean_switch/CMakeFiles/enocean_switch_nrf52840_xxAA_s140_6.1.1.dir/__/__/mesh/bearer/src/filter_engine.c.obj
                0x00031694                fen_filter_stop
 .text.fen_filters_apply
                0x000316c4       0x44 examples/enocean_switch/CMakeFiles/enocean_switch_nrf52840_xxAA_s140_6.1.1.dir/__/__/mesh/bearer/src/filter_engine.c.obj
                0x000316c4                fen_filters_apply
 .text.radio_config_reset
                0x00031708       0x40 examples/enocean_switch/CMakeFiles/enocean_switch_nrf52840_xxAA_s140_6.1.1.dir/__/__/mesh/bearer/src/radio_config.c.obj
                0x00031708                radio_config_reset
 .text.radio_config_channel_set
                0x00031748       0x28 examples/enocean_switch/CMakeFiles/enocean_switch_nrf52840_xxAA_s140_6.1.1.dir/__/__/mesh/bearer/src/radio_config.c.obj
                0x00031748                radio_config_channel_set
 .text.radio_config_config
                0x00031770       0x8c examples/enocean_switch/CMakeFiles/enocean_switch_nrf52840_xxAA_s140_6.1.1.dir/__/__/mesh/bearer/src/radio_config.c.obj
                0x00031770                radio_config_config
 .text.radio_config_access_addr_set
                0x000317fc       0x50 examples/enocean_switch/CMakeFiles/enocean_switch_nrf52840_xxAA_s140_6.1.1.dir/__/__/mesh/bearer/src/radio_config.c.obj
                0x000317fc                radio_config_access_addr_set
 .text.radio_trigger
                0x0003184c       0x24 examples/enocean_switch/CMakeFiles/enocean_switch_nrf52840_xxAA_s140_6.1.1.dir/__/__/mesh/bearer/src/scanner.c.obj
 .text.scan_window_end
                0x00031870       0x10 examples/enocean_switch/CMakeFiles/enocean_switch_nrf52840_xxAA_s140_6.1.1.dir/__/__/mesh/bearer/src/scanner.c.obj
 .text.scan_window_start
                0x00031880       0x24 examples/enocean_switch/CMakeFiles/enocean_switch_nrf52840_xxAA_s140_6.1.1.dir/__/__/mesh/bearer/src/scanner.c.obj
 .text.radio_configure
                0x000318a4       0x78 examples/enocean_switch/CMakeFiles/enocean_switch_nrf52840_xxAA_s140_6.1.1.dir/__/__/mesh/bearer/src/scanner.c.obj
 .text.radio_set_packet
                0x0003191c       0x4c examples/enocean_switch/CMakeFiles/enocean_switch_nrf52840_xxAA_s140_6.1.1.dir/__/__/mesh/bearer/src/scanner.c.obj
 .text.radio_start
                0x00031968       0x78 examples/enocean_switch/CMakeFiles/enocean_switch_nrf52840_xxAA_s140_6.1.1.dir/__/__/mesh/bearer/src/scanner.c.obj
 .text.radio_stop
                0x000319e0       0x38 examples/enocean_switch/CMakeFiles/enocean_switch_nrf52840_xxAA_s140_6.1.1.dir/__/__/mesh/bearer/src/scanner.c.obj
 .text.schedule_timers
                0x00031a18       0x38 examples/enocean_switch/CMakeFiles/enocean_switch_nrf52840_xxAA_s140_6.1.1.dir/__/__/mesh/bearer/src/scanner.c.obj
 .text.scanner_radio_start
                0x00031a50       0x28 examples/enocean_switch/CMakeFiles/enocean_switch_nrf52840_xxAA_s140_6.1.1.dir/__/__/mesh/bearer/src/scanner.c.obj
                0x00031a50                scanner_radio_start
 .text.scanner_radio_stop
                0x00031a78       0x10 examples/enocean_switch/CMakeFiles/enocean_switch_nrf52840_xxAA_s140_6.1.1.dir/__/__/mesh/bearer/src/scanner.c.obj
                0x00031a78                scanner_radio_stop
 .text.scanner_radio_irq_handler
                0x00031a88      0x144 examples/enocean_switch/CMakeFiles/enocean_switch_nrf52840_xxAA_s140_6.1.1.dir/__/__/mesh/bearer/src/scanner.c.obj
                0x00031a88                scanner_radio_irq_handler
 .text.scanner_timer_irq_handler
                0x00031bcc       0x30 examples/enocean_switch/CMakeFiles/enocean_switch_nrf52840_xxAA_s140_6.1.1.dir/__/__/mesh/bearer/src/scanner.c.obj
                0x00031bcc                scanner_timer_irq_handler
 .text.scanner_enable
                0x00031bfc       0x2c examples/enocean_switch/CMakeFiles/enocean_switch_nrf52840_xxAA_s140_6.1.1.dir/__/__/mesh/bearer/src/scanner.c.obj
                0x00031bfc                scanner_enable
 .text.scanner_is_enabled
                0x00031c28       0x10 examples/enocean_switch/CMakeFiles/enocean_switch_nrf52840_xxAA_s140_6.1.1.dir/__/__/mesh/bearer/src/scanner.c.obj
                0x00031c28                scanner_is_enabled
 .text.scanner_packet_release
                0x00031c38       0x2c examples/enocean_switch/CMakeFiles/enocean_switch_nrf52840_xxAA_s140_6.1.1.dir/__/__/mesh/bearer/src/scanner.c.obj
                0x00031c38                scanner_packet_release
 .text.scanner_rx
                0x00031c64       0x34 examples/enocean_switch/CMakeFiles/enocean_switch_nrf52840_xxAA_s140_6.1.1.dir/__/__/mesh/bearer/src/scanner.c.obj
                0x00031c64                scanner_rx
 .text.scanner_rx_pending
                0x00031c98        0xc examples/enocean_switch/CMakeFiles/enocean_switch_nrf52840_xxAA_s140_6.1.1.dir/__/__/mesh/bearer/src/scanner.c.obj
                0x00031c98                scanner_rx_pending
 .text.scanner_config_scan_time_set
                0x00031ca4       0x4c examples/enocean_switch/CMakeFiles/enocean_switch_nrf52840_xxAA_s140_6.1.1.dir/__/__/mesh/bearer/src/scanner.c.obj
                0x00031ca4                scanner_config_scan_time_set
 .text.scanner_config_channels_set
                0x00031cf0       0x50 examples/enocean_switch/CMakeFiles/enocean_switch_nrf52840_xxAA_s140_6.1.1.dir/__/__/mesh/bearer/src/scanner.c.obj
                0x00031cf0                scanner_config_channels_set
 .text.scanner_config_access_addresses_set
                0x00031d40       0x38 examples/enocean_switch/CMakeFiles/enocean_switch_nrf52840_xxAA_s140_6.1.1.dir/__/__/mesh/bearer/src/scanner.c.obj
                0x00031d40                scanner_config_access_addresses_set
 .text.scanner_config_reset
                0x00031d78       0x50 examples/enocean_switch/CMakeFiles/enocean_switch_nrf52840_xxAA_s140_6.1.1.dir/__/__/mesh/bearer/src/scanner.c.obj
                0x00031d78                scanner_config_reset
 .text.scanner_init
                0x00031dc8       0x54 examples/enocean_switch/CMakeFiles/enocean_switch_nrf52840_xxAA_s140_6.1.1.dir/__/__/mesh/bearer/src/scanner.c.obj
                0x00031dc8                scanner_init
 .text.pin_clear
                0x00031e1c       0x24 examples/enocean_switch/CMakeFiles/enocean_switch_nrf52840_xxAA_s140_6.1.1.dir/__/__/mesh/bearer/src/mesh_pa_lna.c.obj
 .text.ppi_setup.isra.0
                0x00031e40       0x3c examples/enocean_switch/CMakeFiles/enocean_switch_nrf52840_xxAA_s140_6.1.1.dir/__/__/mesh/bearer/src/mesh_pa_lna.c.obj
 .text.mesh_pa_setup_start
                0x00031e7c       0x5c examples/enocean_switch/CMakeFiles/enocean_switch_nrf52840_xxAA_s140_6.1.1.dir/__/__/mesh/bearer/src/mesh_pa_lna.c.obj
                0x00031e7c                mesh_pa_setup_start
 .text.mesh_lna_setup_start
                0x00031ed8       0x5c examples/enocean_switch/CMakeFiles/enocean_switch_nrf52840_xxAA_s140_6.1.1.dir/__/__/mesh/bearer/src/mesh_pa_lna.c.obj
                0x00031ed8                mesh_lna_setup_start
 .text.mesh_pa_lna_disable_start
                0x00031f34       0x1c examples/enocean_switch/CMakeFiles/enocean_switch_nrf52840_xxAA_s140_6.1.1.dir/__/__/mesh/bearer/src/mesh_pa_lna.c.obj
                0x00031f34                mesh_pa_lna_disable_start
 .text.mesh_pa_lna_setup_stop
                0x00031f50       0x4c examples/enocean_switch/CMakeFiles/enocean_switch_nrf52840_xxAA_s140_6.1.1.dir/__/__/mesh/bearer/src/mesh_pa_lna.c.obj
                0x00031f50                mesh_pa_lna_setup_stop
 .text.mesh_pa_lna_cleanup
                0x00031f9c       0x48 examples/enocean_switch/CMakeFiles/enocean_switch_nrf52840_xxAA_s140_6.1.1.dir/__/__/mesh/bearer/src/mesh_pa_lna.c.obj
                0x00031f9c                mesh_pa_lna_cleanup
 .text.sd_ble_gap_disconnect
                0x00031fe4        0x4 examples/enocean_switch/CMakeFiles/enocean_switch_nrf52840_xxAA_s140_6.1.1.dir/__/__/mesh/gatt/src/mesh_gatt.c.obj
 .text.sd_ble_gap_sec_params_reply
                0x00031fe8        0x4 examples/enocean_switch/CMakeFiles/enocean_switch_nrf52840_xxAA_s140_6.1.1.dir/__/__/mesh/gatt/src/mesh_gatt.c.obj
 .text.sd_ble_gap_phy_update
                0x00031fec        0x4 examples/enocean_switch/CMakeFiles/enocean_switch_nrf52840_xxAA_s140_6.1.1.dir/__/__/mesh/gatt/src/mesh_gatt.c.obj
 .text.sd_ble_gap_data_length_update
                0x00031ff0        0x4 examples/enocean_switch/CMakeFiles/enocean_switch_nrf52840_xxAA_s140_6.1.1.dir/__/__/mesh/gatt/src/mesh_gatt.c.obj
 .text.sd_ble_gatts_service_add
                0x00031ff4        0x4 examples/enocean_switch/CMakeFiles/enocean_switch_nrf52840_xxAA_s140_6.1.1.dir/__/__/mesh/gatt/src/mesh_gatt.c.obj
 .text.sd_ble_gatts_characteristic_add
                0x00031ff8        0x4 examples/enocean_switch/CMakeFiles/enocean_switch_nrf52840_xxAA_s140_6.1.1.dir/__/__/mesh/gatt/src/mesh_gatt.c.obj
 .text.sd_ble_gatts_hvx
                0x00031ffc        0x4 examples/enocean_switch/CMakeFiles/enocean_switch_nrf52840_xxAA_s140_6.1.1.dir/__/__/mesh/gatt/src/mesh_gatt.c.obj
 .text.sd_ble_gatts_sys_attr_set
                0x00032000        0x4 examples/enocean_switch/CMakeFiles/enocean_switch_nrf52840_xxAA_s140_6.1.1.dir/__/__/mesh/gatt/src/mesh_gatt.c.obj
 .text.sd_ble_gatts_exchange_mtu_reply
                0x00032004        0x4 examples/enocean_switch/CMakeFiles/enocean_switch_nrf52840_xxAA_s140_6.1.1.dir/__/__/mesh/gatt/src/mesh_gatt.c.obj
 .text.timeout_cb
                0x00032008       0x1c examples/enocean_switch/CMakeFiles/enocean_switch_nrf52840_xxAA_s140_6.1.1.dir/__/__/mesh/gatt/src/mesh_gatt.c.obj
 .text.mesh_gatt_init
                0x00032024      0x14c examples/enocean_switch/CMakeFiles/enocean_switch_nrf52840_xxAA_s140_6.1.1.dir/__/__/mesh/gatt/src/mesh_gatt.c.obj
                0x00032024                mesh_gatt_init
 .text.mesh_gatt_packet_alloc
                0x00032170       0x7c examples/enocean_switch/CMakeFiles/enocean_switch_nrf52840_xxAA_s140_6.1.1.dir/__/__/mesh/gatt/src/mesh_gatt.c.obj
                0x00032170                mesh_gatt_packet_alloc
 .text.mesh_gatt_packet_discard
                0x000321ec       0x4c examples/enocean_switch/CMakeFiles/enocean_switch_nrf52840_xxAA_s140_6.1.1.dir/__/__/mesh/gatt/src/mesh_gatt.c.obj
                0x000321ec                mesh_gatt_packet_discard
 .text.mesh_gatt_packet_is_pending
                0x00032238       0x20 examples/enocean_switch/CMakeFiles/enocean_switch_nrf52840_xxAA_s140_6.1.1.dir/__/__/mesh/gatt/src/mesh_gatt.c.obj
                0x00032238                mesh_gatt_packet_is_pending
 .text.mesh_gatt_disconnect
                0x00032258       0x30 examples/enocean_switch/CMakeFiles/enocean_switch_nrf52840_xxAA_s140_6.1.1.dir/__/__/mesh/gatt/src/mesh_gatt.c.obj
                0x00032258                mesh_gatt_disconnect
 .text.mesh_gatt_pdu_send
                0x00032288      0x170 examples/enocean_switch/CMakeFiles/enocean_switch_nrf52840_xxAA_s140_6.1.1.dir/__/__/mesh/gatt/src/mesh_gatt.c.obj
 .text.mesh_gatt_packet_send
                0x000323f8       0x88 examples/enocean_switch/CMakeFiles/enocean_switch_nrf52840_xxAA_s140_6.1.1.dir/__/__/mesh/gatt/src/mesh_gatt.c.obj
                0x000323f8                mesh_gatt_packet_send
 .text.mesh_gatt_on_ble_evt
                0x00032480      0x3b0 examples/enocean_switch/CMakeFiles/enocean_switch_nrf52840_xxAA_s140_6.1.1.dir/__/__/mesh/gatt/src/mesh_gatt.c.obj
                0x00032480                mesh_gatt_on_ble_evt
 .text.active_connection_count
                0x00032830        0xc examples/enocean_switch/CMakeFiles/enocean_switch_nrf52840_xxAA_s140_6.1.1.dir/__/__/mesh/gatt/src/proxy.c.obj
 .text.proxy_get
                0x0003283c       0x10 examples/enocean_switch/CMakeFiles/enocean_switch_nrf52840_xxAA_s140_6.1.1.dir/__/__/mesh/gatt/src/proxy.c.obj
 .text.proxy_delete
                0x0003284c       0x10 examples/enocean_switch/CMakeFiles/enocean_switch_nrf52840_xxAA_s140_6.1.1.dir/__/__/mesh/gatt/src/proxy.c.obj
 .text.packet_discard
                0x0003285c       0x30 examples/enocean_switch/CMakeFiles/enocean_switch_nrf52840_xxAA_s140_6.1.1.dir/__/__/mesh/gatt/src/proxy.c.obj
 .text.core_tx_packet_discard_cb
                0x0003288c       0x18 examples/enocean_switch/CMakeFiles/enocean_switch_nrf52840_xxAA_s140_6.1.1.dir/__/__/mesh/gatt/src/proxy.c.obj
 .text.packet_send
                0x000328a4       0x3c examples/enocean_switch/CMakeFiles/enocean_switch_nrf52840_xxAA_s140_6.1.1.dir/__/__/mesh/gatt/src/proxy.c.obj
 .text.core_tx_packet_send_cb
                0x000328e0       0x38 examples/enocean_switch/CMakeFiles/enocean_switch_nrf52840_xxAA_s140_6.1.1.dir/__/__/mesh/gatt/src/proxy.c.obj
 .text.packet_alloc
                0x00032918       0x44 examples/enocean_switch/CMakeFiles/enocean_switch_nrf52840_xxAA_s140_6.1.1.dir/__/__/mesh/gatt/src/proxy.c.obj
 .text.core_tx_packet_alloc_cb
                0x0003295c       0x40 examples/enocean_switch/CMakeFiles/enocean_switch_nrf52840_xxAA_s140_6.1.1.dir/__/__/mesh/gatt/src/proxy.c.obj
 .text.adv_data_set
                0x0003299c       0xa4 examples/enocean_switch/CMakeFiles/enocean_switch_nrf52840_xxAA_s140_6.1.1.dir/__/__/mesh/gatt/src/proxy.c.obj
 .text.on_adv_end
                0x00032a40       0x14 examples/enocean_switch/CMakeFiles/enocean_switch_nrf52840_xxAA_s140_6.1.1.dir/__/__/mesh/gatt/src/proxy.c.obj
 .text.has_pending_packets
                0x00032a54       0x14 examples/enocean_switch/CMakeFiles/enocean_switch_nrf52840_xxAA_s140_6.1.1.dir/__/__/mesh/gatt/src/proxy.c.obj
 .text.adv_net_iterate
                0x00032a68       0x34 examples/enocean_switch/CMakeFiles/enocean_switch_nrf52840_xxAA_s140_6.1.1.dir/__/__/mesh/gatt/src/proxy.c.obj
 .text.adv_timer_handler
                0x00032a9c        0xe examples/enocean_switch/CMakeFiles/enocean_switch_nrf52840_xxAA_s140_6.1.1.dir/__/__/mesh/gatt/src/proxy.c.obj
 *fill*         0x00032aaa        0x2 
 .text.adv_start
                0x00032aac       0x5c examples/enocean_switch/CMakeFiles/enocean_switch_nrf52840_xxAA_s140_6.1.1.dir/__/__/mesh/gatt/src/proxy.c.obj
 .text.proxy_set
                0x00032b08       0x3c examples/enocean_switch/CMakeFiles/enocean_switch_nrf52840_xxAA_s140_6.1.1.dir/__/__/mesh/gatt/src/proxy.c.obj
 .text.beacon_packet_send_to_all
                0x00032b44       0x54 examples/enocean_switch/CMakeFiles/enocean_switch_nrf52840_xxAA_s140_6.1.1.dir/__/__/mesh/gatt/src/proxy.c.obj
 .text.mesh_evt_handle
                0x00032b98       0x3c examples/enocean_switch/CMakeFiles/enocean_switch_nrf52840_xxAA_s140_6.1.1.dir/__/__/mesh/gatt/src/proxy.c.obj
 .text.proxy_init
                0x00032bd4       0x84 examples/enocean_switch/CMakeFiles/enocean_switch_nrf52840_xxAA_s140_6.1.1.dir/__/__/mesh/gatt/src/proxy.c.obj
                0x00032bd4                proxy_init
 .text.proxy_start
                0x00032c58       0x38 examples/enocean_switch/CMakeFiles/enocean_switch_nrf52840_xxAA_s140_6.1.1.dir/__/__/mesh/gatt/src/proxy.c.obj
                0x00032c58                proxy_start
 .text.proxy_subnet_added
                0x00032c90       0x58 examples/enocean_switch/CMakeFiles/enocean_switch_nrf52840_xxAA_s140_6.1.1.dir/__/__/mesh/gatt/src/proxy.c.obj
                0x00032c90                proxy_subnet_added
 .text.proxy_net_packet_processed
                0x00032ce8       0x40 examples/enocean_switch/CMakeFiles/enocean_switch_nrf52840_xxAA_s140_6.1.1.dir/__/__/mesh/gatt/src/proxy.c.obj
                0x00032ce8                proxy_net_packet_processed
 .text.proxy_node_id_is_enabled
                0x00032d28       0x2c examples/enocean_switch/CMakeFiles/enocean_switch_nrf52840_xxAA_s140_6.1.1.dir/__/__/mesh/gatt/src/proxy.c.obj
                0x00032d28                proxy_node_id_is_enabled
 .text.proxy_is_enabled
                0x00032d54        0xc examples/enocean_switch/CMakeFiles/enocean_switch_nrf52840_xxAA_s140_6.1.1.dir/__/__/mesh/gatt/src/proxy.c.obj
                0x00032d54                proxy_is_enabled
 .text.proxy_is_connected
                0x00032d60       0x18 examples/enocean_switch/CMakeFiles/enocean_switch_nrf52840_xxAA_s140_6.1.1.dir/__/__/mesh/gatt/src/proxy.c.obj
                0x00032d60                proxy_is_connected
 .text.proxy_disconnect
                0x00032d78       0x1c examples/enocean_switch/CMakeFiles/enocean_switch_nrf52840_xxAA_s140_6.1.1.dir/__/__/mesh/gatt/src/proxy.c.obj
                0x00032d78                proxy_disconnect
 .text.gatt_evt_handler
                0x00032d94      0x698 examples/enocean_switch/CMakeFiles/enocean_switch_nrf52840_xxAA_s140_6.1.1.dir/__/__/mesh/gatt/src/proxy.c.obj
 .text.proxy_stop
                0x0003342c       0x68 examples/enocean_switch/CMakeFiles/enocean_switch_nrf52840_xxAA_s140_6.1.1.dir/__/__/mesh/gatt/src/proxy.c.obj
                0x0003342c                proxy_stop
 .text.proxy_node_id_enable
                0x00033494       0x2c examples/enocean_switch/CMakeFiles/enocean_switch_nrf52840_xxAA_s140_6.1.1.dir/__/__/mesh/gatt/src/proxy.c.obj
                0x00033494                proxy_node_id_enable
 .text.proxy_node_id_disable
                0x000334c0       0x30 examples/enocean_switch/CMakeFiles/enocean_switch_nrf52840_xxAA_s140_6.1.1.dir/__/__/mesh/gatt/src/proxy.c.obj
                0x000334c0                proxy_node_id_disable
 .text.mesh_opt_gatt_proxy_set
                0x000334f0       0x1c examples/enocean_switch/CMakeFiles/enocean_switch_nrf52840_xxAA_s140_6.1.1.dir/__/__/mesh/gatt/src/proxy.c.obj
                0x000334f0                mesh_opt_gatt_proxy_set
 .text.proxy_filter_clear
                0x0003350c       0x18 examples/enocean_switch/CMakeFiles/enocean_switch_nrf52840_xxAA_s140_6.1.1.dir/__/__/mesh/gatt/src/proxy_filter.c.obj
                0x0003350c                proxy_filter_clear
 .text.proxy_filter_type_set
                0x00033524       0x24 examples/enocean_switch/CMakeFiles/enocean_switch_nrf52840_xxAA_s140_6.1.1.dir/__/__/mesh/gatt/src/proxy_filter.c.obj
                0x00033524                proxy_filter_type_set
 .text.proxy_filter_add
                0x00033548       0x54 examples/enocean_switch/CMakeFiles/enocean_switch_nrf52840_xxAA_s140_6.1.1.dir/__/__/mesh/gatt/src/proxy_filter.c.obj
                0x00033548                proxy_filter_add
 .text.proxy_filter_remove
                0x0003359c       0x50 examples/enocean_switch/CMakeFiles/enocean_switch_nrf52840_xxAA_s140_6.1.1.dir/__/__/mesh/gatt/src/proxy_filter.c.obj
                0x0003359c                proxy_filter_remove
 .text.proxy_filter_accept
                0x000335ec       0x36 examples/enocean_switch/CMakeFiles/enocean_switch_nrf52840_xxAA_s140_6.1.1.dir/__/__/mesh/gatt/src/proxy_filter.c.obj
                0x000335ec                proxy_filter_accept
 .text.status_handle
                0x00033622       0x4a examples/enocean_switch/CMakeFiles/enocean_switch_nrf52840_xxAA_s140_6.1.1.dir/__/__/models/model_spec/generic_onoff/src/generic_onoff_client.c.obj
 .text.generic_onoff_client_init
                0x0003366c       0x58 examples/enocean_switch/CMakeFiles/enocean_switch_nrf52840_xxAA_s140_6.1.1.dir/__/__/models/model_spec/generic_onoff/src/generic_onoff_client.c.obj
                0x0003366c                generic_onoff_client_init
 .text.generic_onoff_client_set
                0x000336c4       0xa0 examples/enocean_switch/CMakeFiles/enocean_switch_nrf52840_xxAA_s140_6.1.1.dir/__/__/models/model_spec/generic_onoff/src/generic_onoff_client.c.obj
                0x000336c4                generic_onoff_client_set
 .text.generic_onoff_client_set_unack
                0x00033764       0x94 examples/enocean_switch/CMakeFiles/enocean_switch_nrf52840_xxAA_s140_6.1.1.dir/__/__/models/model_spec/generic_onoff/src/generic_onoff_client.c.obj
                0x00033764                generic_onoff_client_set_unack
 .text.model_transition_time_decode
                0x000337f8       0x40 examples/enocean_switch/CMakeFiles/enocean_switch_nrf52840_xxAA_s140_6.1.1.dir/__/__/models/model_spec/common/src/model_common.c.obj
                0x000337f8                model_transition_time_decode
 .text.model_transition_time_encode
                0x00033838       0x60 examples/enocean_switch/CMakeFiles/enocean_switch_nrf52840_xxAA_s140_6.1.1.dir/__/__/models/model_spec/common/src/model_common.c.obj
                0x00033838                model_transition_time_encode
 .text.model_delay_encode
                0x00033898       0x10 examples/enocean_switch/CMakeFiles/enocean_switch_nrf52840_xxAA_s140_6.1.1.dir/__/__/models/model_spec/common/src/model_common.c.obj
                0x00033898                model_delay_encode
 .text.config_composition_data_get
                0x000338a8      0x17a examples/enocean_switch/CMakeFiles/enocean_switch_nrf52840_xxAA_s140_6.1.1.dir/__/__/models/foundation/config/src/composition_data.c.obj
                0x000338a8                config_composition_data_get
 *fill*         0x00033a22        0x2 
 .text.app_evt_send
                0x00033a24       0x10 examples/enocean_switch/CMakeFiles/enocean_switch_nrf52840_xxAA_s140_6.1.1.dir/__/__/models/foundation/config/src/config_server.c.obj
 .text.get_element_index
                0x00033a34       0x2a examples/enocean_switch/CMakeFiles/enocean_switch_nrf52840_xxAA_s140_6.1.1.dir/__/__/models/foundation/config/src/config_server.c.obj
 .text.config_server_heartbeat_publication_params_get
                0x00033a5e       0x30 examples/enocean_switch/CMakeFiles/enocean_switch_nrf52840_xxAA_s140_6.1.1.dir/__/__/models/foundation/config/src/config_server.c.obj
 .text.send_reply
                0x00033a8e       0x34 examples/enocean_switch/CMakeFiles/enocean_switch_nrf52840_xxAA_s140_6.1.1.dir/__/__/models/foundation/config/src/config_server.c.obj
 .text.send_network_transmit_status
                0x00033ac2       0x5a examples/enocean_switch/CMakeFiles/enocean_switch_nrf52840_xxAA_s140_6.1.1.dir/__/__/models/foundation/config/src/config_server.c.obj
 .text.handle_config_network_transmit_set
                0x00033b1c       0x74 examples/enocean_switch/CMakeFiles/enocean_switch_nrf52840_xxAA_s140_6.1.1.dir/__/__/models/foundation/config/src/config_server.c.obj
 .text.handle_config_network_transmit_get
                0x00033b90        0xa examples/enocean_switch/CMakeFiles/enocean_switch_nrf52840_xxAA_s140_6.1.1.dir/__/__/models/foundation/config/src/config_server.c.obj
 *fill*         0x00033b9a        0x2 
 .text.handle_node_reset
                0x00033b9c       0x34 examples/enocean_switch/CMakeFiles/enocean_switch_nrf52840_xxAA_s140_6.1.1.dir/__/__/models/foundation/config/src/config_server.c.obj
 .text.send_netkey_status
                0x00033bd0       0x2c examples/enocean_switch/CMakeFiles/enocean_switch_nrf52840_xxAA_s140_6.1.1.dir/__/__/models/foundation/config/src/config_server.c.obj
 .text.send_relay_status
                0x00033bfc       0x7e examples/enocean_switch/CMakeFiles/enocean_switch_nrf52840_xxAA_s140_6.1.1.dir/__/__/models/foundation/config/src/config_server.c.obj
 .text.handle_config_relay_set
                0x00033c7a       0x9a examples/enocean_switch/CMakeFiles/enocean_switch_nrf52840_xxAA_s140_6.1.1.dir/__/__/models/foundation/config/src/config_server.c.obj
 .text.handle_config_relay_get
                0x00033d14        0xa examples/enocean_switch/CMakeFiles/enocean_switch_nrf52840_xxAA_s140_6.1.1.dir/__/__/models/foundation/config/src/config_server.c.obj
 .text.send_subscription_status
                0x00033d1e       0x42 examples/enocean_switch/CMakeFiles/enocean_switch_nrf52840_xxAA_s140_6.1.1.dir/__/__/models/foundation/config/src/config_server.c.obj
 .text.send_appkey_status
                0x00033d60       0x3a examples/enocean_switch/CMakeFiles/enocean_switch_nrf52840_xxAA_s140_6.1.1.dir/__/__/models/foundation/config/src/config_server.c.obj
 .text.handle_node_identity_set
                0x00033d9a       0xa0 examples/enocean_switch/CMakeFiles/enocean_switch_nrf52840_xxAA_s140_6.1.1.dir/__/__/models/foundation/config/src/config_server.c.obj
 .text.handle_netkey_delete
                0x00033e3a       0xbc examples/enocean_switch/CMakeFiles/enocean_switch_nrf52840_xxAA_s140_6.1.1.dir/__/__/models/foundation/config/src/config_server.c.obj
 *fill*         0x00033ef6        0x2 
 .text.handle_netkey_add_update
                0x00033ef8       0x78 examples/enocean_switch/CMakeFiles/enocean_switch_nrf52840_xxAA_s140_6.1.1.dir/__/__/models/foundation/config/src/config_server.c.obj
 .text.status_error_sub_send
                0x00033f70      0x124 examples/enocean_switch/CMakeFiles/enocean_switch_nrf52840_xxAA_s140_6.1.1.dir/__/__/models/foundation/config/src/config_server.c.obj
 .text.delete_all_subscriptions
                0x00034094       0x66 examples/enocean_switch/CMakeFiles/enocean_switch_nrf52840_xxAA_s140_6.1.1.dir/__/__/models/foundation/config/src/config_server.c.obj
 .text.send_publication_status
                0x000340fa      0x188 examples/enocean_switch/CMakeFiles/enocean_switch_nrf52840_xxAA_s140_6.1.1.dir/__/__/models/foundation/config/src/config_server.c.obj
 .text.handle_config_key_refresh_phase_set
                0x00034282       0xc8 examples/enocean_switch/CMakeFiles/enocean_switch_nrf52840_xxAA_s140_6.1.1.dir/__/__/models/foundation/config/src/config_server.c.obj
 .text.handle_config_default_ttl_set
                0x0003434a       0x50 examples/enocean_switch/CMakeFiles/enocean_switch_nrf52840_xxAA_s140_6.1.1.dir/__/__/models/foundation/config/src/config_server.c.obj
 .text.send_net_beacon_state
                0x0003439a       0x2c examples/enocean_switch/CMakeFiles/enocean_switch_nrf52840_xxAA_s140_6.1.1.dir/__/__/models/foundation/config/src/config_server.c.obj
 .text.handle_config_beacon_get
                0x000343c6        0xa examples/enocean_switch/CMakeFiles/enocean_switch_nrf52840_xxAA_s140_6.1.1.dir/__/__/models/foundation/config/src/config_server.c.obj
 .text.handle_heartbeat_publication_set
                0x000343d0       0xea examples/enocean_switch/CMakeFiles/enocean_switch_nrf52840_xxAA_s140_6.1.1.dir/__/__/models/foundation/config/src/config_server.c.obj
 *fill*         0x000344ba        0x2 
 .text.apply_reset
                0x000344bc       0x30 examples/enocean_switch/CMakeFiles/enocean_switch_nrf52840_xxAA_s140_6.1.1.dir/__/__/models/foundation/config/src/config_server.c.obj
 .text.mesh_event_cb
                0x000344ec       0x68 examples/enocean_switch/CMakeFiles/enocean_switch_nrf52840_xxAA_s140_6.1.1.dir/__/__/models/foundation/config/src/config_server.c.obj
 .text.handle_config_friend_set.part.6
                0x00034554       0x2a examples/enocean_switch/CMakeFiles/enocean_switch_nrf52840_xxAA_s140_6.1.1.dir/__/__/models/foundation/config/src/config_server.c.obj
 .text.handle_config_friend_set
                0x0003457e       0x14 examples/enocean_switch/CMakeFiles/enocean_switch_nrf52840_xxAA_s140_6.1.1.dir/__/__/models/foundation/config/src/config_server.c.obj
 .text.handle_config_friend_get
                0x00034592        0xa examples/enocean_switch/CMakeFiles/enocean_switch_nrf52840_xxAA_s140_6.1.1.dir/__/__/models/foundation/config/src/config_server.c.obj
 .text.handle_config_key_refresh_phase_get
                0x0003459c       0x58 examples/enocean_switch/CMakeFiles/enocean_switch_nrf52840_xxAA_s140_6.1.1.dir/__/__/models/foundation/config/src/config_server.c.obj
 .text.handle_config_gatt_proxy_get
                0x000345f4       0x30 examples/enocean_switch/CMakeFiles/enocean_switch_nrf52840_xxAA_s140_6.1.1.dir/__/__/models/foundation/config/src/config_server.c.obj
 .text.handle_node_identity_get
                0x00034624       0x64 examples/enocean_switch/CMakeFiles/enocean_switch_nrf52840_xxAA_s140_6.1.1.dir/__/__/models/foundation/config/src/config_server.c.obj
 .text.handle_netkey_get
                0x00034688       0x50 examples/enocean_switch/CMakeFiles/enocean_switch_nrf52840_xxAA_s140_6.1.1.dir/__/__/models/foundation/config/src/config_server.c.obj
 .text.handle_appkey_get
                0x000346d8       0x82 examples/enocean_switch/CMakeFiles/enocean_switch_nrf52840_xxAA_s140_6.1.1.dir/__/__/models/foundation/config/src/config_server.c.obj
 .text.status_error_pub_send
                0x0003475a       0x90 examples/enocean_switch/CMakeFiles/enocean_switch_nrf52840_xxAA_s140_6.1.1.dir/__/__/models/foundation/config/src/config_server.c.obj
 .text.handle_config_gatt_proxy_set
                0x000347ea       0x52 examples/enocean_switch/CMakeFiles/enocean_switch_nrf52840_xxAA_s140_6.1.1.dir/__/__/models/foundation/config/src/config_server.c.obj
 .text.handle_config_default_ttl_get
                0x0003483c       0x30 examples/enocean_switch/CMakeFiles/enocean_switch_nrf52840_xxAA_s140_6.1.1.dir/__/__/models/foundation/config/src/config_server.c.obj
 .text.handle_config_beacon_set
                0x0003486c       0x42 examples/enocean_switch/CMakeFiles/enocean_switch_nrf52840_xxAA_s140_6.1.1.dir/__/__/models/foundation/config/src/config_server.c.obj
 .text.handle_composition_data_get
                0x000348ae       0x44 examples/enocean_switch/CMakeFiles/enocean_switch_nrf52840_xxAA_s140_6.1.1.dir/__/__/models/foundation/config/src/config_server.c.obj
 *fill*         0x000348f2        0x2 
 .text.handle_appkey_add
                0x000348f4      0x140 examples/enocean_switch/CMakeFiles/enocean_switch_nrf52840_xxAA_s140_6.1.1.dir/__/__/models/foundation/config/src/config_server.c.obj
 .text.get_subscription_list.constprop.25
                0x00034a34       0x4e examples/enocean_switch/CMakeFiles/enocean_switch_nrf52840_xxAA_s140_6.1.1.dir/__/__/models/foundation/config/src/config_server.c.obj
 .text.handle_config_sig_model_subscription_get
                0x00034a82       0xa2 examples/enocean_switch/CMakeFiles/enocean_switch_nrf52840_xxAA_s140_6.1.1.dir/__/__/models/foundation/config/src/config_server.c.obj
 .text.heartbeat_subscription_count_encode
                0x00034b24       0x32 examples/enocean_switch/CMakeFiles/enocean_switch_nrf52840_xxAA_s140_6.1.1.dir/__/__/models/foundation/config/src/config_server.c.obj
 .text.heartbeat_pubsub_period_encode
                0x00034b56       0x26 examples/enocean_switch/CMakeFiles/enocean_switch_nrf52840_xxAA_s140_6.1.1.dir/__/__/models/foundation/config/src/config_server.c.obj
 .text.handle_heartbeat_publication_get
                0x00034b7c       0x8a examples/enocean_switch/CMakeFiles/enocean_switch_nrf52840_xxAA_s140_6.1.1.dir/__/__/models/foundation/config/src/config_server.c.obj
 .text.handle_heartbeat_subscription_get
                0x00034c06       0x84 examples/enocean_switch/CMakeFiles/enocean_switch_nrf52840_xxAA_s140_6.1.1.dir/__/__/models/foundation/config/src/config_server.c.obj
 .text.handle_appkey_update
                0x00034c8a       0xbc examples/enocean_switch/CMakeFiles/enocean_switch_nrf52840_xxAA_s140_6.1.1.dir/__/__/models/foundation/config/src/config_server.c.obj
 .text.handle_appkey_delete
                0x00034d46       0xc2 examples/enocean_switch/CMakeFiles/enocean_switch_nrf52840_xxAA_s140_6.1.1.dir/__/__/models/foundation/config/src/config_server.c.obj
 .text.handle_heartbeat_subscription_set
                0x00034e08       0xa8 examples/enocean_switch/CMakeFiles/enocean_switch_nrf52840_xxAA_s140_6.1.1.dir/__/__/models/foundation/config/src/config_server.c.obj
 .text.handle_config_model_publication_get
                0x00034eb0       0x8c examples/enocean_switch/CMakeFiles/enocean_switch_nrf52840_xxAA_s140_6.1.1.dir/__/__/models/foundation/config/src/config_server.c.obj
 .text.handle_config_model_subscription_delete_all
                0x00034f3c       0xc2 examples/enocean_switch/CMakeFiles/enocean_switch_nrf52840_xxAA_s140_6.1.1.dir/__/__/models/foundation/config/src/config_server.c.obj
 .text.handle_config_model_subscription_virtual_address_delete
                0x00034ffe      0x108 examples/enocean_switch/CMakeFiles/enocean_switch_nrf52840_xxAA_s140_6.1.1.dir/__/__/models/foundation/config/src/config_server.c.obj
 .text.handle_config_model_subscription_virtual_address_add
                0x00035106      0x106 examples/enocean_switch/CMakeFiles/enocean_switch_nrf52840_xxAA_s140_6.1.1.dir/__/__/models/foundation/config/src/config_server.c.obj
 .text.handle_config_model_subscription_delete
                0x0003520c      0x10e examples/enocean_switch/CMakeFiles/enocean_switch_nrf52840_xxAA_s140_6.1.1.dir/__/__/models/foundation/config/src/config_server.c.obj
 .text.handle_config_model_subscription_add
                0x0003531a      0x112 examples/enocean_switch/CMakeFiles/enocean_switch_nrf52840_xxAA_s140_6.1.1.dir/__/__/models/foundation/config/src/config_server.c.obj
 .text.handle_config_model_subscription_virtual_address_overwrite
                0x0003542c      0x120 examples/enocean_switch/CMakeFiles/enocean_switch_nrf52840_xxAA_s140_6.1.1.dir/__/__/models/foundation/config/src/config_server.c.obj
 .text.handle_model_app_get
                0x0003554c      0x19c examples/enocean_switch/CMakeFiles/enocean_switch_nrf52840_xxAA_s140_6.1.1.dir/__/__/models/foundation/config/src/config_server.c.obj
 .text.handle_config_model_subscription_overwrite
                0x000356e8      0x11a examples/enocean_switch/CMakeFiles/enocean_switch_nrf52840_xxAA_s140_6.1.1.dir/__/__/models/foundation/config/src/config_server.c.obj
 .text.handle_config_vendor_model_subscription_get
                0x00035802       0xde examples/enocean_switch/CMakeFiles/enocean_switch_nrf52840_xxAA_s140_6.1.1.dir/__/__/models/foundation/config/src/config_server.c.obj
 .text.handle_model_app_bind_unbind
                0x000358e0      0x1ec examples/enocean_switch/CMakeFiles/enocean_switch_nrf52840_xxAA_s140_6.1.1.dir/__/__/models/foundation/config/src/config_server.c.obj
 .text.handle_config_model_publication_set
                0x00035acc      0x2d6 examples/enocean_switch/CMakeFiles/enocean_switch_nrf52840_xxAA_s140_6.1.1.dir/__/__/models/foundation/config/src/config_server.c.obj
 *fill*         0x00035da2        0x2 
 .text.config_server_init
                0x00035da4       0x60 examples/enocean_switch/CMakeFiles/enocean_switch_nrf52840_xxAA_s140_6.1.1.dir/__/__/models/foundation/config/src/config_server.c.obj
                0x00035da4                config_server_init
 .text.config_server_bind
                0x00035e04       0x10 examples/enocean_switch/CMakeFiles/enocean_switch_nrf52840_xxAA_s140_6.1.1.dir/__/__/models/foundation/config/src/config_server.c.obj
                0x00035e04                config_server_bind
 .text.packed_index_list_create
                0x00035e14       0x32 examples/enocean_switch/CMakeFiles/enocean_switch_nrf52840_xxAA_s140_6.1.1.dir/__/__/models/foundation/config/src/packed_index_list.c.obj
                0x00035e14                packed_index_list_create
 *fill*         0x00035e46        0x2 
 .text.health_server_fpd_get
                0x00035e48       0x20 examples/enocean_switch/CMakeFiles/enocean_switch_nrf52840_xxAA_s140_6.1.1.dir/__/__/models/foundation/health/src/health_server.c.obj
 .text.health_server_fpd_delete
                0x00035e68       0x20 examples/enocean_switch/CMakeFiles/enocean_switch_nrf52840_xxAA_s140_6.1.1.dir/__/__/models/foundation/health/src/health_server.c.obj
 .text.attention_timer_handler
                0x00035e88       0x5c examples/enocean_switch/CMakeFiles/enocean_switch_nrf52840_xxAA_s140_6.1.1.dir/__/__/models/foundation/health/src/health_server.c.obj
 .text.send_attention_status
                0x00035ee4       0x44 examples/enocean_switch/CMakeFiles/enocean_switch_nrf52840_xxAA_s140_6.1.1.dir/__/__/models/foundation/health/src/health_server.c.obj
 .text.handle_attention_get
                0x00035f28        0xc examples/enocean_switch/CMakeFiles/enocean_switch_nrf52840_xxAA_s140_6.1.1.dir/__/__/models/foundation/health/src/health_server.c.obj
 .text.send_period_status
                0x00035f34       0x40 examples/enocean_switch/CMakeFiles/enocean_switch_nrf52840_xxAA_s140_6.1.1.dir/__/__/models/foundation/health/src/health_server.c.obj
 .text.handle_period_get
                0x00035f74        0xc examples/enocean_switch/CMakeFiles/enocean_switch_nrf52840_xxAA_s140_6.1.1.dir/__/__/models/foundation/health/src/health_server.c.obj
 .text.attention_timer_set.part.1
                0x00035f80       0x84 examples/enocean_switch/CMakeFiles/enocean_switch_nrf52840_xxAA_s140_6.1.1.dir/__/__/models/foundation/health/src/health_server.c.obj
 .text.handle_attention_set
                0x00036004       0x32 examples/enocean_switch/CMakeFiles/enocean_switch_nrf52840_xxAA_s140_6.1.1.dir/__/__/models/foundation/health/src/health_server.c.obj
 *fill*         0x00036036        0x2 
 .text.handle_period_set
                0x00036038       0x68 examples/enocean_switch/CMakeFiles/enocean_switch_nrf52840_xxAA_s140_6.1.1.dir/__/__/models/foundation/health/src/health_server.c.obj
 .text.bitfield_next_get.part.0.constprop.10
                0x000360a0       0x44 examples/enocean_switch/CMakeFiles/enocean_switch_nrf52840_xxAA_s140_6.1.1.dir/__/__/models/foundation/health/src/health_server.c.obj
 .text.send_fault_status
                0x000360e4       0x8c examples/enocean_switch/CMakeFiles/enocean_switch_nrf52840_xxAA_s140_6.1.1.dir/__/__/models/foundation/health/src/health_server.c.obj
 .text.health_publish_timeout_handler
                0x00036170        0xa examples/enocean_switch/CMakeFiles/enocean_switch_nrf52840_xxAA_s140_6.1.1.dir/__/__/models/foundation/health/src/health_server.c.obj
 .text.handle_fault_test
                0x0003617a       0x66 examples/enocean_switch/CMakeFiles/enocean_switch_nrf52840_xxAA_s140_6.1.1.dir/__/__/models/foundation/health/src/health_server.c.obj
 .text.handle_fault_get
                0x000361e0       0x32 examples/enocean_switch/CMakeFiles/enocean_switch_nrf52840_xxAA_s140_6.1.1.dir/__/__/models/foundation/health/src/health_server.c.obj
 .text.handle_fault_clear
                0x00036212       0x48 examples/enocean_switch/CMakeFiles/enocean_switch_nrf52840_xxAA_s140_6.1.1.dir/__/__/models/foundation/health/src/health_server.c.obj
 .text.health_server_fault_count_get
                0x0003625a       0x2c examples/enocean_switch/CMakeFiles/enocean_switch_nrf52840_xxAA_s140_6.1.1.dir/__/__/models/foundation/health/src/health_server.c.obj
                0x0003625a                health_server_fault_count_get
 *fill*         0x00036286        0x2 
 .text.health_server_fpd_set
                0x00036288       0x44 examples/enocean_switch/CMakeFiles/enocean_switch_nrf52840_xxAA_s140_6.1.1.dir/__/__/models/foundation/health/src/health_server.c.obj
 .text.health_server_init
                0x000362cc       0x78 examples/enocean_switch/CMakeFiles/enocean_switch_nrf52840_xxAA_s140_6.1.1.dir/__/__/models/foundation/health/src/health_server.c.obj
                0x000362cc                health_server_init
 .text.add_to_publication_list
                0x00036344       0x78 examples/enocean_switch/CMakeFiles/enocean_switch_nrf52840_xxAA_s140_6.1.1.dir/__/__/mesh/access/src/access_publish.c.obj
 .text.step_resolution_to_us
                0x000363bc       0x38 examples/enocean_switch/CMakeFiles/enocean_switch_nrf52840_xxAA_s140_6.1.1.dir/__/__/mesh/access/src/access_publish.c.obj
 .text.schedule_publication_timer
                0x000363f4      0x184 examples/enocean_switch/CMakeFiles/enocean_switch_nrf52840_xxAA_s140_6.1.1.dir/__/__/mesh/access/src/access_publish.c.obj
 .text.publish_timer_tick
                0x00036578       0xa8 examples/enocean_switch/CMakeFiles/enocean_switch_nrf52840_xxAA_s140_6.1.1.dir/__/__/mesh/access/src/access_publish.c.obj
 .text.access_publish_init
                0x00036620       0x38 examples/enocean_switch/CMakeFiles/enocean_switch_nrf52840_xxAA_s140_6.1.1.dir/__/__/mesh/access/src/access_publish.c.obj
                0x00036620                access_publish_init
 .text.access_publish_period_set
                0x00036658       0x60 examples/enocean_switch/CMakeFiles/enocean_switch_nrf52840_xxAA_s140_6.1.1.dir/__/__/mesh/access/src/access_publish.c.obj
                0x00036658                access_publish_period_set
 .text.get_next_timeout_index
                0x000366b8       0x40 examples/enocean_switch/CMakeFiles/enocean_switch_nrf52840_xxAA_s140_6.1.1.dir/__/__/mesh/access/src/access_publish_retransmission.c.obj
 .text.message_remove
                0x000366f8       0x5c examples/enocean_switch/CMakeFiles/enocean_switch_nrf52840_xxAA_s140_6.1.1.dir/__/__/mesh/access/src/access_publish_retransmission.c.obj
 .text.retransmissions_timer_cb
                0x00036754       0xc8 examples/enocean_switch/CMakeFiles/enocean_switch_nrf52840_xxAA_s140_6.1.1.dir/__/__/mesh/access/src/access_publish_retransmission.c.obj
 .text.access_publish_retransmission_init
                0x0003681c       0x24 examples/enocean_switch/CMakeFiles/enocean_switch_nrf52840_xxAA_s140_6.1.1.dir/__/__/mesh/access/src/access_publish_retransmission.c.obj
                0x0003681c                access_publish_retransmission_init
 .text.access_publish_retransmission_message_add
                0x00036840       0xf8 examples/enocean_switch/CMakeFiles/enocean_switch_nrf52840_xxAA_s140_6.1.1.dir/__/__/mesh/access/src/access_publish_retransmission.c.obj
                0x00036840                access_publish_retransmission_message_add
 .text.bitfield_get
                0x00036938       0x1a examples/enocean_switch/CMakeFiles/enocean_switch_nrf52840_xxAA_s140_6.1.1.dir/__/__/mesh/access/src/access.c.obj
 .text.is_valid_opcode
                0x00036952       0x42 examples/enocean_switch/CMakeFiles/enocean_switch_nrf52840_xxAA_s140_6.1.1.dir/__/__/mesh/access/src/access.c.obj
 .text.model_handle_valid_and_allocated
                0x00036994       0x20 examples/enocean_switch/CMakeFiles/enocean_switch_nrf52840_xxAA_s140_6.1.1.dir/__/__/mesh/access/src/access.c.obj
 .text.flash_manager_mem_available
                0x000369b4        0x2 examples/enocean_switch/CMakeFiles/enocean_switch_nrf52840_xxAA_s140_6.1.1.dir/__/__/mesh/access/src/access.c.obj
 *fill*         0x000369b6        0x2 
 .text.restore_acquired_subscription
                0x000369b8       0x30 examples/enocean_switch/CMakeFiles/enocean_switch_nrf52840_xxAA_s140_6.1.1.dir/__/__/mesh/access/src/access.c.obj
 .text.restore_acquired_element
                0x000369e8       0x24 examples/enocean_switch/CMakeFiles/enocean_switch_nrf52840_xxAA_s140_6.1.1.dir/__/__/mesh/access/src/access.c.obj
 .text.restore_flash_data
                0x00036a0c       0x28 examples/enocean_switch/CMakeFiles/enocean_switch_nrf52840_xxAA_s140_6.1.1.dir/__/__/mesh/access/src/access.c.obj
 .text.check_tx_params
                0x00036a34       0x5c examples/enocean_switch/CMakeFiles/enocean_switch_nrf52840_xxAA_s140_6.1.1.dir/__/__/mesh/access/src/access.c.obj
 .text.flash_invalidate_complete
                0x00036a90        0x6 examples/enocean_switch/CMakeFiles/enocean_switch_nrf52840_xxAA_s140_6.1.1.dir/__/__/mesh/access/src/access.c.obj
 *fill*         0x00036a96        0x2 
 .text.access_flash_config_clear
                0x00036a98       0x3c examples/enocean_switch/CMakeFiles/enocean_switch_nrf52840_xxAA_s140_6.1.1.dir/__/__/mesh/access/src/access.c.obj
 .text.access_state_clear
                0x00036ad4       0x4c examples/enocean_switch/CMakeFiles/enocean_switch_nrf52840_xxAA_s140_6.1.1.dir/__/__/mesh/access/src/access.c.obj
 .text.packet_tx
                0x00036b20      0x204 examples/enocean_switch/CMakeFiles/enocean_switch_nrf52840_xxAA_s140_6.1.1.dir/__/__/mesh/access/src/access.c.obj
 .text.access_flash_config_store
                0x00036d24      0x164 examples/enocean_switch/CMakeFiles/enocean_switch_nrf52840_xxAA_s140_6.1.1.dir/__/__/mesh/access/src/access.c.obj
                0x00036d24                access_flash_config_store
 .text.flash_write_complete
                0x00036e88       0x46 examples/enocean_switch/CMakeFiles/enocean_switch_nrf52840_xxAA_s140_6.1.1.dir/__/__/mesh/access/src/access.c.obj
 *fill*         0x00036ece        0x2 
 .text.bitfield_next_get.part.0.constprop.8
                0x00036ed0       0x34 examples/enocean_switch/CMakeFiles/enocean_switch_nrf52840_xxAA_s140_6.1.1.dir/__/__/mesh/access/src/access.c.obj
 .text.packet_alloc_and_tx
                0x00036f04       0xbe examples/enocean_switch/CMakeFiles/enocean_switch_nrf52840_xxAA_s140_6.1.1.dir/__/__/mesh/access/src/access.c.obj
 *fill*         0x00036fc2        0x2 
 .text.restore_acquired_model
                0x00036fc4       0x90 examples/enocean_switch/CMakeFiles/enocean_switch_nrf52840_xxAA_s140_6.1.1.dir/__/__/mesh/access/src/access.c.obj
 .text.access_flash_config_load
                0x00037054      0x1b4 examples/enocean_switch/CMakeFiles/enocean_switch_nrf52840_xxAA_s140_6.1.1.dir/__/__/mesh/access/src/access.c.obj
                0x00037054                access_flash_config_load
 .text.access_incoming_handle
                0x00037208      0x1ac examples/enocean_switch/CMakeFiles/enocean_switch_nrf52840_xxAA_s140_6.1.1.dir/__/__/mesh/access/src/access.c.obj
                0x00037208                access_incoming_handle
 .text.mesh_msg_handle
                0x000373b4      0x1cc examples/enocean_switch/CMakeFiles/enocean_switch_nrf52840_xxAA_s140_6.1.1.dir/__/__/mesh/access/src/access.c.obj
 .text.mesh_evt_cb
                0x00037580        0xc examples/enocean_switch/CMakeFiles/enocean_switch_nrf52840_xxAA_s140_6.1.1.dir/__/__/mesh/access/src/access.c.obj
 .text.access_packet_tx
                0x0003758c       0x32 examples/enocean_switch/CMakeFiles/enocean_switch_nrf52840_xxAA_s140_6.1.1.dir/__/__/mesh/access/src/access.c.obj
                0x0003758c                access_packet_tx
 .text.access_clear
                0x000375be       0x12 examples/enocean_switch/CMakeFiles/enocean_switch_nrf52840_xxAA_s140_6.1.1.dir/__/__/mesh/access/src/access.c.obj
                0x000375be                access_clear
 .text.access_model_add
                0x000375d0      0x1b0 examples/enocean_switch/CMakeFiles/enocean_switch_nrf52840_xxAA_s140_6.1.1.dir/__/__/mesh/access/src/access.c.obj
                0x000375d0                access_model_add
 .text.access_model_publish
                0x00037780       0x58 examples/enocean_switch/CMakeFiles/enocean_switch_nrf52840_xxAA_s140_6.1.1.dir/__/__/mesh/access/src/access.c.obj
                0x00037780                access_model_publish
 .text.access_model_reply
                0x000377d8       0x1c examples/enocean_switch/CMakeFiles/enocean_switch_nrf52840_xxAA_s140_6.1.1.dir/__/__/mesh/access/src/access.c.obj
                0x000377d8                access_model_reply
 .text.access_model_publish_address_set
                0x000377f4       0x3c examples/enocean_switch/CMakeFiles/enocean_switch_nrf52840_xxAA_s140_6.1.1.dir/__/__/mesh/access/src/access.c.obj
                0x000377f4                access_model_publish_address_set
 .text.access_model_publish_address_get
                0x00037830       0x28 examples/enocean_switch/CMakeFiles/enocean_switch_nrf52840_xxAA_s140_6.1.1.dir/__/__/mesh/access/src/access.c.obj
                0x00037830                access_model_publish_address_get
 .text.access_model_publish_retransmit_set
                0x00037858       0x4c examples/enocean_switch/CMakeFiles/enocean_switch_nrf52840_xxAA_s140_6.1.1.dir/__/__/mesh/access/src/access.c.obj
                0x00037858                access_model_publish_retransmit_set
 .text.access_model_publish_retransmit_get
                0x000378a4       0x2c examples/enocean_switch/CMakeFiles/enocean_switch_nrf52840_xxAA_s140_6.1.1.dir/__/__/mesh/access/src/access.c.obj
                0x000378a4                access_model_publish_retransmit_get
 .text.access_model_publish_period_get
                0x000378d0       0x40 examples/enocean_switch/CMakeFiles/enocean_switch_nrf52840_xxAA_s140_6.1.1.dir/__/__/mesh/access/src/access.c.obj
                0x000378d0                access_model_publish_period_get
 .text.access_publish_timing_update
                0x00037910       0xc0 examples/enocean_switch/CMakeFiles/enocean_switch_nrf52840_xxAA_s140_6.1.1.dir/__/__/mesh/access/src/access.c.obj
 .text.access_model_publish_period_divisor_set
                0x000379d0       0x38 examples/enocean_switch/CMakeFiles/enocean_switch_nrf52840_xxAA_s140_6.1.1.dir/__/__/mesh/access/src/access.c.obj
                0x000379d0                access_model_publish_period_divisor_set
 .text.access_model_publish_period_set
                0x00037a08       0x6c examples/enocean_switch/CMakeFiles/enocean_switch_nrf52840_xxAA_s140_6.1.1.dir/__/__/mesh/access/src/access.c.obj
                0x00037a08                access_model_publish_period_set
 .text.access_model_subscription_list_alloc
                0x00037a74       0x5c examples/enocean_switch/CMakeFiles/enocean_switch_nrf52840_xxAA_s140_6.1.1.dir/__/__/mesh/access/src/access.c.obj
                0x00037a74                access_model_subscription_list_alloc
 .text.access_model_subscription_add
                0x00037ad0       0x60 examples/enocean_switch/CMakeFiles/enocean_switch_nrf52840_xxAA_s140_6.1.1.dir/__/__/mesh/access/src/access.c.obj
                0x00037ad0                access_model_subscription_add
 .text.access_model_subscription_remove
                0x00037b30       0x60 examples/enocean_switch/CMakeFiles/enocean_switch_nrf52840_xxAA_s140_6.1.1.dir/__/__/mesh/access/src/access.c.obj
                0x00037b30                access_model_subscription_remove
 .text.access_model_subscriptions_get
                0x00037b90       0x78 examples/enocean_switch/CMakeFiles/enocean_switch_nrf52840_xxAA_s140_6.1.1.dir/__/__/mesh/access/src/access.c.obj
                0x00037b90                access_model_subscriptions_get
 .text.access_model_application_bind
                0x00037c08       0x50 examples/enocean_switch/CMakeFiles/enocean_switch_nrf52840_xxAA_s140_6.1.1.dir/__/__/mesh/access/src/access.c.obj
                0x00037c08                access_model_application_bind
 .text.access_model_application_unbind
                0x00037c58       0x50 examples/enocean_switch/CMakeFiles/enocean_switch_nrf52840_xxAA_s140_6.1.1.dir/__/__/mesh/access/src/access.c.obj
                0x00037c58                access_model_application_unbind
 .text.access_model_applications_get
                0x00037ca8       0x5c examples/enocean_switch/CMakeFiles/enocean_switch_nrf52840_xxAA_s140_6.1.1.dir/__/__/mesh/access/src/access.c.obj
                0x00037ca8                access_model_applications_get
 .text.access_model_publish_application_set
                0x00037d04       0x3c examples/enocean_switch/CMakeFiles/enocean_switch_nrf52840_xxAA_s140_6.1.1.dir/__/__/mesh/access/src/access.c.obj
                0x00037d04                access_model_publish_application_set
 .text.access_model_publish_application_get
                0x00037d40       0x28 examples/enocean_switch/CMakeFiles/enocean_switch_nrf52840_xxAA_s140_6.1.1.dir/__/__/mesh/access/src/access.c.obj
                0x00037d40                access_model_publish_application_get
 .text.access_default_ttl_set
                0x00037d68       0x18 examples/enocean_switch/CMakeFiles/enocean_switch_nrf52840_xxAA_s140_6.1.1.dir/__/__/mesh/access/src/access.c.obj
                0x00037d68                access_default_ttl_set
 .text.access_default_ttl_get
                0x00037d80        0xc examples/enocean_switch/CMakeFiles/enocean_switch_nrf52840_xxAA_s140_6.1.1.dir/__/__/mesh/access/src/access.c.obj
                0x00037d80                access_default_ttl_get
 .text.access_model_publish_friendship_credential_flag_set
                0x00037d8c       0x38 examples/enocean_switch/CMakeFiles/enocean_switch_nrf52840_xxAA_s140_6.1.1.dir/__/__/mesh/access/src/access.c.obj
                0x00037d8c                access_model_publish_friendship_credential_flag_set
 .text.access_model_publish_friendship_credential_flag_get
                0x00037dc4       0x28 examples/enocean_switch/CMakeFiles/enocean_switch_nrf52840_xxAA_s140_6.1.1.dir/__/__/mesh/access/src/access.c.obj
                0x00037dc4                access_model_publish_friendship_credential_flag_get
 .text.access_model_publish_ttl_set
                0x00037dec       0x40 examples/enocean_switch/CMakeFiles/enocean_switch_nrf52840_xxAA_s140_6.1.1.dir/__/__/mesh/access/src/access.c.obj
                0x00037dec                access_model_publish_ttl_set
 .text.access_model_publish_ttl_get
                0x00037e2c       0x28 examples/enocean_switch/CMakeFiles/enocean_switch_nrf52840_xxAA_s140_6.1.1.dir/__/__/mesh/access/src/access.c.obj
                0x00037e2c                access_model_publish_ttl_get
 .text.access_element_location_get
                0x00037e54       0x20 examples/enocean_switch/CMakeFiles/enocean_switch_nrf52840_xxAA_s140_6.1.1.dir/__/__/mesh/access/src/access.c.obj
                0x00037e54                access_element_location_get
 .text.access_element_sig_model_count_get
                0x00037e74       0x24 examples/enocean_switch/CMakeFiles/enocean_switch_nrf52840_xxAA_s140_6.1.1.dir/__/__/mesh/access/src/access.c.obj
                0x00037e74                access_element_sig_model_count_get
 .text.access_element_vendor_model_count_get
                0x00037e98       0x24 examples/enocean_switch/CMakeFiles/enocean_switch_nrf52840_xxAA_s140_6.1.1.dir/__/__/mesh/access/src/access.c.obj
                0x00037e98                access_element_vendor_model_count_get
 .text.access_model_id_get
                0x00037ebc       0x2c examples/enocean_switch/CMakeFiles/enocean_switch_nrf52840_xxAA_s140_6.1.1.dir/__/__/mesh/access/src/access.c.obj
                0x00037ebc                access_model_id_get
 .text.access_handle_get
                0x00037ee8       0x60 examples/enocean_switch/CMakeFiles/enocean_switch_nrf52840_xxAA_s140_6.1.1.dir/__/__/mesh/access/src/access.c.obj
                0x00037ee8                access_handle_get
 .text.access_element_models_get
                0x00037f48       0x5c examples/enocean_switch/CMakeFiles/enocean_switch_nrf52840_xxAA_s140_6.1.1.dir/__/__/mesh/access/src/access.c.obj
                0x00037f48                access_element_models_get
 .text.access_model_p_args_get
                0x00037fa4       0x28 examples/enocean_switch/CMakeFiles/enocean_switch_nrf52840_xxAA_s140_6.1.1.dir/__/__/mesh/access/src/access.c.obj
                0x00037fa4                access_model_p_args_get
 .text.access_model_publication_stop
                0x00037fcc       0x58 examples/enocean_switch/CMakeFiles/enocean_switch_nrf52840_xxAA_s140_6.1.1.dir/__/__/mesh/access/src/access.c.obj
                0x00037fcc                access_model_publication_stop
 .text.access_model_publication_by_appkey_stop
                0x00038024       0x36 examples/enocean_switch/CMakeFiles/enocean_switch_nrf52840_xxAA_s140_6.1.1.dir/__/__/mesh/access/src/access.c.obj
                0x00038024                access_model_publication_by_appkey_stop
 .text.access_flash_area_get
                0x0003805a        0xc examples/enocean_switch/CMakeFiles/enocean_switch_nrf52840_xxAA_s140_6.1.1.dir/__/__/mesh/access/src/access.c.obj
                0x0003805a                access_flash_area_get
 *fill*         0x00038066        0x2 
 .text.add_flash_manager
                0x00038068       0x54 examples/enocean_switch/CMakeFiles/enocean_switch_nrf52840_xxAA_s140_6.1.1.dir/__/__/mesh/access/src/access.c.obj
 .text.access_init
                0x000380bc       0x34 examples/enocean_switch/CMakeFiles/enocean_switch_nrf52840_xxAA_s140_6.1.1.dir/__/__/mesh/access/src/access.c.obj
                0x000380bc                access_init
 .text.flash_remove_complete
                0x000380f0       0x60 examples/enocean_switch/CMakeFiles/enocean_switch_nrf52840_xxAA_s140_6.1.1.dir/__/__/mesh/access/src/access.c.obj
 .text.reliable_timer_cb
                0x00038150      0x18c examples/enocean_switch/CMakeFiles/enocean_switch_nrf52840_xxAA_s140_6.1.1.dir/__/__/mesh/access/src/access_reliable.c.obj
 .text.remove_and_reschedule
                0x000382dc       0xac examples/enocean_switch/CMakeFiles/enocean_switch_nrf52840_xxAA_s140_6.1.1.dir/__/__/mesh/access/src/access_reliable.c.obj
 .text.access_reliable_message_rx_cb
                0x00038388       0x60 examples/enocean_switch/CMakeFiles/enocean_switch_nrf52840_xxAA_s140_6.1.1.dir/__/__/mesh/access/src/access_reliable.c.obj
                0x00038388                access_reliable_message_rx_cb
 .text.access_reliable_model_is_free
                0x000383e8       0x28 examples/enocean_switch/CMakeFiles/enocean_switch_nrf52840_xxAA_s140_6.1.1.dir/__/__/mesh/access/src/access_reliable.c.obj
                0x000383e8                access_reliable_model_is_free
 .text.access_reliable_init
                0x00038410       0x1c examples/enocean_switch/CMakeFiles/enocean_switch_nrf52840_xxAA_s140_6.1.1.dir/__/__/mesh/access/src/access_reliable.c.obj
                0x00038410                access_reliable_init
 .text.access_reliable_cancel_all
                0x0003842c       0x5c examples/enocean_switch/CMakeFiles/enocean_switch_nrf52840_xxAA_s140_6.1.1.dir/__/__/mesh/access/src/access_reliable.c.obj
                0x0003842c                access_reliable_cancel_all
 .text.access_model_reliable_cancel
                0x00038488       0x68 examples/enocean_switch/CMakeFiles/enocean_switch_nrf52840_xxAA_s140_6.1.1.dir/__/__/mesh/access/src/access_reliable.c.obj
                0x00038488                access_model_reliable_cancel
 .text.access_model_reliable_publish
                0x000384f0      0x1a0 examples/enocean_switch/CMakeFiles/enocean_switch_nrf52840_xxAA_s140_6.1.1.dir/__/__/mesh/access/src/access_reliable.c.obj
                0x000384f0                access_model_reliable_publish
 .text.bitfield_get
                0x00038690       0x1a examples/enocean_switch/CMakeFiles/enocean_switch_nrf52840_xxAA_s140_6.1.1.dir/__/__/mesh/access/src/device_state_manager.c.obj
 .text.bitfield_set
                0x000386aa       0x18 examples/enocean_switch/CMakeFiles/enocean_switch_nrf52840_xxAA_s140_6.1.1.dir/__/__/mesh/access/src/device_state_manager.c.obj
 .text.bitfield_clear
                0x000386c2       0x1a examples/enocean_switch/CMakeFiles/enocean_switch_nrf52840_xxAA_s140_6.1.1.dir/__/__/mesh/access/src/device_state_manager.c.obj
 .text.bitfield_is_all_clear
                0x000386dc       0x38 examples/enocean_switch/CMakeFiles/enocean_switch_nrf52840_xxAA_s140_6.1.1.dir/__/__/mesh/access/src/device_state_manager.c.obj
 .text.address_handle_virtual_valid
                0x00038714       0x18 examples/enocean_switch/CMakeFiles/enocean_switch_nrf52840_xxAA_s140_6.1.1.dir/__/__/mesh/access/src/device_state_manager.c.obj
 .text.net_key_handle_get
                0x0003872c       0x54 examples/enocean_switch/CMakeFiles/enocean_switch_nrf52840_xxAA_s140_6.1.1.dir/__/__/mesh/access/src/device_state_manager.c.obj
 .text.app_key_handle_get
                0x00038780       0x54 examples/enocean_switch/CMakeFiles/enocean_switch_nrf52840_xxAA_s140_6.1.1.dir/__/__/mesh/access/src/device_state_manager.c.obj
 .text.addr_nonvirtual_to_flash_entry
                0x000387d4       0x10 examples/enocean_switch/CMakeFiles/enocean_switch_nrf52840_xxAA_s140_6.1.1.dir/__/__/mesh/access/src/device_state_manager.c.obj
 .text.devkey_set
                0x000387e4       0x50 examples/enocean_switch/CMakeFiles/enocean_switch_nrf52840_xxAA_s140_6.1.1.dir/__/__/mesh/access/src/device_state_manager.c.obj
 .text.devkey_to_dsm_entry
                0x00038834       0x18 examples/enocean_switch/CMakeFiles/enocean_switch_nrf52840_xxAA_s140_6.1.1.dir/__/__/mesh/access/src/device_state_manager.c.obj
 .text.devkey_to_flash_entry
                0x0003884c       0x28 examples/enocean_switch/CMakeFiles/enocean_switch_nrf52840_xxAA_s140_6.1.1.dir/__/__/mesh/access/src/device_state_manager.c.obj
 .text.addr_virtual_to_flash_entry
                0x00038874       0x18 examples/enocean_switch/CMakeFiles/enocean_switch_nrf52840_xxAA_s140_6.1.1.dir/__/__/mesh/access/src/device_state_manager.c.obj
 .text.addr_unicast_to_dsm_entry
                0x0003888c        0xc examples/enocean_switch/CMakeFiles/enocean_switch_nrf52840_xxAA_s140_6.1.1.dir/__/__/mesh/access/src/device_state_manager.c.obj
 .text.addr_unicast_to_flash_entry
                0x00038898       0x10 examples/enocean_switch/CMakeFiles/enocean_switch_nrf52840_xxAA_s140_6.1.1.dir/__/__/mesh/access/src/device_state_manager.c.obj
 .text.flash_read_callback
                0x000388a8       0xa8 examples/enocean_switch/CMakeFiles/enocean_switch_nrf52840_xxAA_s140_6.1.1.dir/__/__/mesh/access/src/device_state_manager.c.obj
 .text.flash_mem_listener_callback
                0x00038950       0x14 examples/enocean_switch/CMakeFiles/enocean_switch_nrf52840_xxAA_s140_6.1.1.dir/__/__/mesh/access/src/device_state_manager.c.obj
 .text.get_subnet_handle
                0x00038964       0x3c examples/enocean_switch/CMakeFiles/enocean_switch_nrf52840_xxAA_s140_6.1.1.dir/__/__/mesh/access/src/device_state_manager.c.obj
 .text.appkey_set
                0x000389a0       0x70 examples/enocean_switch/CMakeFiles/enocean_switch_nrf52840_xxAA_s140_6.1.1.dir/__/__/mesh/access/src/device_state_manager.c.obj
 .text.appkey_to_flash_entry
                0x00038a10       0x54 examples/enocean_switch/CMakeFiles/enocean_switch_nrf52840_xxAA_s140_6.1.1.dir/__/__/mesh/access/src/device_state_manager.c.obj
 .text.subnet_to_flash_entry
                0x00038a64       0x60 examples/enocean_switch/CMakeFiles/enocean_switch_nrf52840_xxAA_s140_6.1.1.dir/__/__/mesh/access/src/device_state_manager.c.obj
 .text.bitfield_clear_all
                0x00038ac4        0xe examples/enocean_switch/CMakeFiles/enocean_switch_nrf52840_xxAA_s140_6.1.1.dir/__/__/mesh/access/src/device_state_manager.c.obj
 *fill*         0x00038ad2        0x2 
 .text.subnet_set
                0x00038ad4       0xac examples/enocean_switch/CMakeFiles/enocean_switch_nrf52840_xxAA_s140_6.1.1.dir/__/__/mesh/access/src/device_state_manager.c.obj
 .text.virtual_address_set
                0x00038b80       0x4c examples/enocean_switch/CMakeFiles/enocean_switch_nrf52840_xxAA_s140_6.1.1.dir/__/__/mesh/access/src/device_state_manager.c.obj
 .text.addr_virtual_to_dsm_entry
                0x00038bcc        0xe examples/enocean_switch/CMakeFiles/enocean_switch_nrf52840_xxAA_s140_6.1.1.dir/__/__/mesh/access/src/device_state_manager.c.obj
 *fill*         0x00038bda        0x2 
 .text.reset_flash_area
                0x00038bdc       0x28 examples/enocean_switch/CMakeFiles/enocean_switch_nrf52840_xxAA_s140_6.1.1.dir/__/__/mesh/access/src/device_state_manager.c.obj
 .text.flash_save
                0x00038c04       0x7c examples/enocean_switch/CMakeFiles/enocean_switch_nrf52840_xxAA_s140_6.1.1.dir/__/__/mesh/access/src/device_state_manager.c.obj
 .text.flash_invalidate
                0x00038c80       0x64 examples/enocean_switch/CMakeFiles/enocean_switch_nrf52840_xxAA_s140_6.1.1.dir/__/__/mesh/access/src/device_state_manager.c.obj
 .text.flash_update_all
                0x00038ce4       0x6c examples/enocean_switch/CMakeFiles/enocean_switch_nrf52840_xxAA_s140_6.1.1.dir/__/__/mesh/access/src/device_state_manager.c.obj
 .text.add_address
                0x00038d50      0x108 examples/enocean_switch/CMakeFiles/enocean_switch_nrf52840_xxAA_s140_6.1.1.dir/__/__/mesh/access/src/device_state_manager.c.obj
 .text.virtual_address_uuid_index_get
                0x00038e58       0x60 examples/enocean_switch/CMakeFiles/enocean_switch_nrf52840_xxAA_s140_6.1.1.dir/__/__/mesh/access/src/device_state_manager.c.obj
 .text.add_address_virtual
                0x00038eb8       0x74 examples/enocean_switch/CMakeFiles/enocean_switch_nrf52840_xxAA_s140_6.1.1.dir/__/__/mesh/access/src/device_state_manager.c.obj
 .text.get_subnet_handle_by_beacon_info
                0x00038f2c       0x30 examples/enocean_switch/CMakeFiles/enocean_switch_nrf52840_xxAA_s140_6.1.1.dir/__/__/mesh/access/src/device_state_manager.c.obj
 .text.get_app_handle
                0x00038f5c       0x44 examples/enocean_switch/CMakeFiles/enocean_switch_nrf52840_xxAA_s140_6.1.1.dir/__/__/mesh/access/src/device_state_manager.c.obj
 .text.appkey_to_dsm_entry
