Archive member included to satisfy reference by file (symbol)

external/rtt/librtt_nrf52832_xxAA.a(SEGGER_RTT.c.obj)
                              examples/enocean_switch/CMakeFiles/enocean_switch_nrf52832_xxAA_s132_6.1.1.dir/__/__/mesh/core/src/log.c.obj (SEGGER_RTT_Write)
external/rtt/librtt_nrf52832_xxAA.a(SEGGER_RTT_printf.c.obj)
                              examples/enocean_switch/CMakeFiles/enocean_switch_nrf52832_xxAA_s132_6.1.1.dir/__/__/mesh/core/src/log.c.obj (SEGGER_RTT_vprintf)
external/micro-ecc/libuECC_nrf52832_xxAA.a(uECC.c.obj)
                              examples/enocean_switch/CMakeFiles/enocean_switch_nrf52832_xxAA_s132_6.1.1.dir/__/__/mesh/prov/src/prov_utils.c.obj (uECC_secp256r1)
c:/mesh/arm_gcc/bin/../lib/gcc/arm-none-eabi/7.3.1/thumb/v7e-m/fpv4-sp/hard\libgcc.a(_aeabi_ldivmod.o)
                              examples/enocean_switch/CMakeFiles/enocean_switch_nrf52832_xxAA_s132_6.1.1.dir/__/common/src/rtt_input.c.obj (__aeabi_ldivmod)
c:/mesh/arm_gcc/bin/../lib/gcc/arm-none-eabi/7.3.1/thumb/v7e-m/fpv4-sp/hard\libgcc.a(_aeabi_uldivmod.o)
                              examples/enocean_switch/CMakeFiles/enocean_switch_nrf52832_xxAA_s132_6.1.1.dir/__/common/src/rtt_input.c.obj (__aeabi_uldivmod)
c:/mesh/arm_gcc/bin/../lib/gcc/arm-none-eabi/7.3.1/thumb/v7e-m/fpv4-sp/hard\libgcc.a(_udivmoddi4.o)
                              c:/mesh/arm_gcc/bin/../lib/gcc/arm-none-eabi/7.3.1/thumb/v7e-m/fpv4-sp/hard\libgcc.a(_aeabi_ldivmod.o) (__udivmoddi4)
c:/mesh/arm_gcc/bin/../lib/gcc/arm-none-eabi/7.3.1/thumb/v7e-m/fpv4-sp/hard\libgcc.a(_dvmd_tls.o)
                              c:/mesh/arm_gcc/bin/../lib/gcc/arm-none-eabi/7.3.1/thumb/v7e-m/fpv4-sp/hard\libgcc.a(_aeabi_ldivmod.o) (__aeabi_ldiv0)
c:/mesh/arm_gcc/bin/../lib/gcc/arm-none-eabi/7.3.1/../../../../arm-none-eabi/lib/thumb/v7e-m/fpv4-sp/hard\libg_nano.a(lib_a-calloc.o)
                              examples/enocean_switch/CMakeFiles/enocean_switch_nrf52832_xxAA_s132_6.1.1.dir/__/__/mesh/core/src/mesh_mem_stdlib.c.obj (calloc)
c:/mesh/arm_gcc/bin/../lib/gcc/arm-none-eabi/7.3.1/../../../../arm-none-eabi/lib/thumb/v7e-m/fpv4-sp/hard\libg_nano.a(lib_a-exit.o)
                              c:/mesh/arm_gcc/bin/../lib/gcc/arm-none-eabi/7.3.1/../../../../arm-none-eabi/lib/thumb/v7e-m/fpv4-sp/hard/crt0.o (exit)
c:/mesh/arm_gcc/bin/../lib/gcc/arm-none-eabi/7.3.1/../../../../arm-none-eabi/lib/thumb/v7e-m/fpv4-sp/hard\libg_nano.a(lib_a-impure.o)
                              c:/mesh/arm_gcc/bin/../lib/gcc/arm-none-eabi/7.3.1/../../../../arm-none-eabi/lib/thumb/v7e-m/fpv4-sp/hard\libg_nano.a(lib_a-exit.o) (_global_impure_ptr)
c:/mesh/arm_gcc/bin/../lib/gcc/arm-none-eabi/7.3.1/../../../../arm-none-eabi/lib/thumb/v7e-m/fpv4-sp/hard\libg_nano.a(lib_a-init.o)
                              c:/mesh/arm_gcc/bin/../lib/gcc/arm-none-eabi/7.3.1/../../../../arm-none-eabi/lib/thumb/v7e-m/fpv4-sp/hard/crt0.o (__libc_init_array)
c:/mesh/arm_gcc/bin/../lib/gcc/arm-none-eabi/7.3.1/../../../../arm-none-eabi/lib/thumb/v7e-m/fpv4-sp/hard\libg_nano.a(lib_a-malloc.o)
                              examples/enocean_switch/CMakeFiles/enocean_switch_nrf52832_xxAA_s132_6.1.1.dir/__/__/mesh/core/src/mesh_mem_stdlib.c.obj (malloc)
c:/mesh/arm_gcc/bin/../lib/gcc/arm-none-eabi/7.3.1/../../../../arm-none-eabi/lib/thumb/v7e-m/fpv4-sp/hard\libg_nano.a(lib_a-memcmp.o)
                              examples/enocean_switch/CMakeFiles/enocean_switch_nrf52832_xxAA_s132_6.1.1.dir/src/main.c.obj (memcmp)
c:/mesh/arm_gcc/bin/../lib/gcc/arm-none-eabi/7.3.1/../../../../arm-none-eabi/lib/thumb/v7e-m/fpv4-sp/hard\libg_nano.a(lib_a-memcpy-stub.o)
                              examples/enocean_switch/CMakeFiles/enocean_switch_nrf52832_xxAA_s132_6.1.1.dir/src/main.c.obj (memcpy)
c:/mesh/arm_gcc/bin/../lib/gcc/arm-none-eabi/7.3.1/../../../../arm-none-eabi/lib/thumb/v7e-m/fpv4-sp/hard\libg_nano.a(lib_a-memset.o)
                              c:/mesh/arm_gcc/bin/../lib/gcc/arm-none-eabi/7.3.1/../../../../arm-none-eabi/lib/thumb/v7e-m/fpv4-sp/hard/crt0.o (memset)
c:/mesh/arm_gcc/bin/../lib/gcc/arm-none-eabi/7.3.1/../../../../arm-none-eabi/lib/thumb/v7e-m/fpv4-sp/hard\libg_nano.a(lib_a-nano-callocr.o)
                              c:/mesh/arm_gcc/bin/../lib/gcc/arm-none-eabi/7.3.1/../../../../arm-none-eabi/lib/thumb/v7e-m/fpv4-sp/hard\libg_nano.a(lib_a-calloc.o) (_calloc_r)
c:/mesh/arm_gcc/bin/../lib/gcc/arm-none-eabi/7.3.1/../../../../arm-none-eabi/lib/thumb/v7e-m/fpv4-sp/hard\libg_nano.a(lib_a-nano-freer.o)
                              c:/mesh/arm_gcc/bin/../lib/gcc/arm-none-eabi/7.3.1/../../../../arm-none-eabi/lib/thumb/v7e-m/fpv4-sp/hard\libg_nano.a(lib_a-malloc.o) (_free_r)
c:/mesh/arm_gcc/bin/../lib/gcc/arm-none-eabi/7.3.1/../../../../arm-none-eabi/lib/thumb/v7e-m/fpv4-sp/hard\libg_nano.a(lib_a-nano-mallocr.o)
                              c:/mesh/arm_gcc/bin/../lib/gcc/arm-none-eabi/7.3.1/../../../../arm-none-eabi/lib/thumb/v7e-m/fpv4-sp/hard\libg_nano.a(lib_a-malloc.o) (_malloc_r)
c:/mesh/arm_gcc/bin/../lib/gcc/arm-none-eabi/7.3.1/../../../../arm-none-eabi/lib/thumb/v7e-m/fpv4-sp/hard\libg_nano.a(lib_a-sbrkr.o)
                              c:/mesh/arm_gcc/bin/../lib/gcc/arm-none-eabi/7.3.1/../../../../arm-none-eabi/lib/thumb/v7e-m/fpv4-sp/hard\libg_nano.a(lib_a-nano-mallocr.o) (_sbrk_r)
c:/mesh/arm_gcc/bin/../lib/gcc/arm-none-eabi/7.3.1/../../../../arm-none-eabi/lib/thumb/v7e-m/fpv4-sp/hard\libg_nano.a(lib_a-strcpy.o)
                              external/rtt/librtt_nrf52832_xxAA.a(SEGGER_RTT.c.obj) (strcpy)
c:/mesh/arm_gcc/bin/../lib/gcc/arm-none-eabi/7.3.1/../../../../arm-none-eabi/lib/thumb/v7e-m/fpv4-sp/hard\libg_nano.a(lib_a-strlen.o)
                              examples/enocean_switch/CMakeFiles/enocean_switch_nrf52832_xxAA_s132_6.1.1.dir/__/common/src/ble_softdevice_support.c.obj (strlen)
c:/mesh/arm_gcc/bin/../lib/gcc/arm-none-eabi/7.3.1/../../../../arm-none-eabi/lib/thumb/v7e-m/fpv4-sp/hard\libg_nano.a(lib_a-strrchr.o)
                              examples/enocean_switch/CMakeFiles/enocean_switch_nrf52832_xxAA_s132_6.1.1.dir/src/main.c.obj (strrchr)
c:/mesh/arm_gcc/bin/../lib/gcc/arm-none-eabi/7.3.1/../../../../arm-none-eabi/lib/thumb/v7e-m/fpv4-sp/hard\libg_nano.a(lib_a-mlock.o)
                              c:/mesh/arm_gcc/bin/../lib/gcc/arm-none-eabi/7.3.1/../../../../arm-none-eabi/lib/thumb/v7e-m/fpv4-sp/hard\libg_nano.a(lib_a-nano-freer.o) (__malloc_lock)
c:/mesh/arm_gcc/bin/../lib/gcc/arm-none-eabi/7.3.1/../../../../arm-none-eabi/lib/thumb/v7e-m/fpv4-sp/hard\libg_nano.a(lib_a-reent.o)
                              c:/mesh/arm_gcc/bin/../lib/gcc/arm-none-eabi/7.3.1/../../../../arm-none-eabi/lib/thumb/v7e-m/fpv4-sp/hard\libg_nano.a(lib_a-sbrkr.o) (errno)
c:/mesh/arm_gcc/bin/../lib/gcc/arm-none-eabi/7.3.1/../../../../arm-none-eabi/lib/thumb/v7e-m/fpv4-sp/hard\libg_nano.a(lib_a-strchr.o)
                              c:/mesh/arm_gcc/bin/../lib/gcc/arm-none-eabi/7.3.1/../../../../arm-none-eabi/lib/thumb/v7e-m/fpv4-sp/hard\libg_nano.a(lib_a-strrchr.o) (strchr)
c:/mesh/arm_gcc/bin/../lib/gcc/arm-none-eabi/7.3.1/../../../../arm-none-eabi/lib/thumb/v7e-m/fpv4-sp/hard\libnosys.a(sbrk.o)
                              c:/mesh/arm_gcc/bin/../lib/gcc/arm-none-eabi/7.3.1/../../../../arm-none-eabi/lib/thumb/v7e-m/fpv4-sp/hard\libg_nano.a(lib_a-sbrkr.o) (_sbrk)
c:/mesh/arm_gcc/bin/../lib/gcc/arm-none-eabi/7.3.1/../../../../arm-none-eabi/lib/thumb/v7e-m/fpv4-sp/hard\libnosys.a(_exit.o)
                              c:/mesh/arm_gcc/bin/../lib/gcc/arm-none-eabi/7.3.1/../../../../arm-none-eabi/lib/thumb/v7e-m/fpv4-sp/hard\libg_nano.a(lib_a-exit.o) (_exit)

Allocating common symbols
Common symbol       size              file

nrf_nvic_state      0xc               examples/enocean_switch/CMakeFiles/enocean_switch_nrf52832_xxAA_s132_6.1.1.dir/C_/mesh/deps/nRF5_SDK_15.3.0_59ac345/components/libraries/util/app_util_platform.c.obj
m_packet            0x24              examples/enocean_switch/CMakeFiles/enocean_switch_nrf52832_xxAA_s132_6.1.1.dir/__/__/mesh/core/src/core_tx.c.obj
errno               0x4               c:/mesh/arm_gcc/bin/../lib/gcc/arm-none-eabi/7.3.1/../../../../arm-none-eabi/lib/thumb/v7e-m/fpv4-sp/hard\libg_nano.a(lib_a-reent.o)
_SEGGER_RTT         0x78              external/rtt/librtt_nrf52832_xxAA.a(SEGGER_RTT.c.obj)

Discarded input sections

 .text          0x00000000        0x0 c:/mesh/arm_gcc/bin/../lib/gcc/arm-none-eabi/7.3.1/thumb/v7e-m/fpv4-sp/hard/crti.o
 .data          0x00000000        0x0 c:/mesh/arm_gcc/bin/../lib/gcc/arm-none-eabi/7.3.1/thumb/v7e-m/fpv4-sp/hard/crti.o
 .bss           0x00000000        0x0 c:/mesh/arm_gcc/bin/../lib/gcc/arm-none-eabi/7.3.1/thumb/v7e-m/fpv4-sp/hard/crti.o
 .data          0x00000000        0x4 c:/mesh/arm_gcc/bin/../lib/gcc/arm-none-eabi/7.3.1/thumb/v7e-m/fpv4-sp/hard/crtbegin.o
 .data          0x00000000        0x0 c:/mesh/arm_gcc/bin/../lib/gcc/arm-none-eabi/7.3.1/../../../../arm-none-eabi/lib/thumb/v7e-m/fpv4-sp/hard/crt0.o
 .bss           0x00000000        0x0 c:/mesh/arm_gcc/bin/../lib/gcc/arm-none-eabi/7.3.1/../../../../arm-none-eabi/lib/thumb/v7e-m/fpv4-sp/hard/crt0.o
 .ARM.extab     0x00000000        0x0 c:/mesh/arm_gcc/bin/../lib/gcc/arm-none-eabi/7.3.1/../../../../arm-none-eabi/lib/thumb/v7e-m/fpv4-sp/hard/crt0.o
 .text          0x00000000        0x0 examples/enocean_switch/CMakeFiles/enocean_switch_nrf52832_xxAA_s132_6.1.1.dir/src/main.c.obj
 .data          0x00000000        0x0 examples/enocean_switch/CMakeFiles/enocean_switch_nrf52832_xxAA_s132_6.1.1.dir/src/main.c.obj
 .bss           0x00000000        0x0 examples/enocean_switch/CMakeFiles/enocean_switch_nrf52832_xxAA_s132_6.1.1.dir/src/main.c.obj
 .text          0x00000000        0x0 examples/enocean_switch/CMakeFiles/enocean_switch_nrf52832_xxAA_s132_6.1.1.dir/src/enocean.c.obj
 .data          0x00000000        0x0 examples/enocean_switch/CMakeFiles/enocean_switch_nrf52832_xxAA_s132_6.1.1.dir/src/enocean.c.obj
 .bss           0x00000000        0x0 examples/enocean_switch/CMakeFiles/enocean_switch_nrf52832_xxAA_s132_6.1.1.dir/src/enocean.c.obj
 .text          0x00000000        0x0 examples/enocean_switch/CMakeFiles/enocean_switch_nrf52832_xxAA_s132_6.1.1.dir/src/flash_helper.c.obj
 .data          0x00000000        0x0 examples/enocean_switch/CMakeFiles/enocean_switch_nrf52832_xxAA_s132_6.1.1.dir/src/flash_helper.c.obj
 .bss           0x00000000        0x0 examples/enocean_switch/CMakeFiles/enocean_switch_nrf52832_xxAA_s132_6.1.1.dir/src/flash_helper.c.obj
 .text          0x00000000        0x0 examples/enocean_switch/CMakeFiles/enocean_switch_nrf52832_xxAA_s132_6.1.1.dir/__/__/mesh/stack/src/mesh_stack.c.obj
 .data          0x00000000        0x0 examples/enocean_switch/CMakeFiles/enocean_switch_nrf52832_xxAA_s132_6.1.1.dir/__/__/mesh/stack/src/mesh_stack.c.obj
Memory Configuration

Name             Origin             Length             Attributes
FLASH            0x00026000         0x00051000         xr
RAM              0x20002da0         0x0000cf60         xrw
*default*        0x00000000         0xffffffff

Linker script and memory map


.text           0x00026000    0x1a388
 *(.isr_vector)
 .isr_vector    0x00026000      0x200 examples/enocean_switch/CMakeFiles/enocean_switch_nrf52832_xxAA_s132_6.1.1.dir/C_/mesh/deps/nRF5_SDK_15.3.0_59ac345/modules/nrfx/mdk/gcc_startup_nrf52.S.obj
                0x00026000                __isr_vector
 *(.text*)
 .text          0x00026200       0x40 c:/mesh/arm_gcc/bin/../lib/gcc/arm-none-eabi/7.3.1/thumb/v7e-m/fpv4-sp/hard/crtbegin.o
 .text          0x00026240       0x74 c:/mesh/arm_gcc/bin/../lib/gcc/arm-none-eabi/7.3.1/../../../../arm-none-eabi/lib/thumb/v7e-m/fpv4-sp/hard/crt0.o
                0x00026240                _start
                0x00026240                _mainCRTStartup
 .text.sd_app_evt_wait
                0x000262b4        0x4 examples/enocean_switch/CMakeFiles/enocean_switch_nrf52832_xxAA_s132_6.1.1.dir/src/main.c.obj
 .text.app_generic_onoff_client_status_cb
                0x000262b8       0xd4 examples/enocean_switch/CMakeFiles/enocean_switch_nrf52832_xxAA_s132_6.1.1.dir/src/main.c.obj
 .text.app_gen_onoff_client_transaction_status_cb
                0x0002638c      0x124 examples/enocean_switch/CMakeFiles/enocean_switch_nrf52832_xxAA_s132_6.1.1.dir/src/main.c.obj
 .text.app_data_store_try
                0x000264b0      0x108 examples/enocean_switch/CMakeFiles/enocean_switch_nrf52832_xxAA_s132_6.1.1.dir/src/main.c.obj
 .text.node_reset
                0x000265b8       0x78 examples/enocean_switch/CMakeFiles/enocean_switch_nrf52832_xxAA_s132_6.1.1.dir/src/main.c.obj
 .text.button_event_handler
                0x00026630       0x98 examples/enocean_switch/CMakeFiles/enocean_switch_nrf52832_xxAA_s132_6.1.1.dir/src/main.c.obj
 .text.app_rtt_input_handler
                0x000266c8        0xc examples/enocean_switch/CMakeFiles/enocean_switch_nrf52832_xxAA_s132_6.1.1.dir/src/main.c.obj
 .text.rx_callback
                0x000266d4        0x4 examples/enocean_switch/CMakeFiles/enocean_switch_nrf52832_xxAA_s132_6.1.1.dir/src/main.c.obj
 .text.models_init_cb
                0x000266d8       0xc0 examples/enocean_switch/CMakeFiles/enocean_switch_nrf52832_xxAA_s132_6.1.1.dir/src/main.c.obj
 .text.device_identification_start_cb
                0x00026798       0x22 examples/enocean_switch/CMakeFiles/enocean_switch_nrf52832_xxAA_s132_6.1.1.dir/src/main.c.obj
 .text.provisioning_aborted_cb
                0x000267ba        0x4 examples/enocean_switch/CMakeFiles/enocean_switch_nrf52832_xxAA_s132_6.1.1.dir/src/main.c.obj
 *fill*         0x000267be        0x2 
 .text.provisioning_complete_cb
                0x000267c0       0xe0 examples/enocean_switch/CMakeFiles/enocean_switch_nrf52832_xxAA_s132_6.1.1.dir/src/main.c.obj
 .text.app_gen_onoff_client_publish_interval_cb
                0x000268a0       0x68 examples/enocean_switch/CMakeFiles/enocean_switch_nrf52832_xxAA_s132_6.1.1.dir/src/main.c.obj
 .text.app_enocean_cb
                0x00026908      0x328 examples/enocean_switch/CMakeFiles/enocean_switch_nrf52832_xxAA_s132_6.1.1.dir/src/main.c.obj
 .text.config_server_evt_cb
                0x00026c30       0x20 examples/enocean_switch/CMakeFiles/enocean_switch_nrf52832_xxAA_s132_6.1.1.dir/src/main.c.obj
 .text.app_mesh_core_event_cb
                0x00026c50      0x18c examples/enocean_switch/CMakeFiles/enocean_switch_nrf52832_xxAA_s132_6.1.1.dir/src/main.c.obj
 .text.startup.main
                0x00026ddc      0x174 examples/enocean_switch/CMakeFiles/enocean_switch_nrf52832_xxAA_s132_6.1.1.dir/src/main.c.obj
                0x00026ddc                main
 .text.enocean_packet_process
                0x00026f50      0x1f4 examples/enocean_switch/CMakeFiles/enocean_switch_nrf52832_xxAA_s132_6.1.1.dir/src/enocean.c.obj
                0x00026f50                enocean_packet_process
 .text.enocean_secmat_add
                0x00027144       0x20 examples/enocean_switch/CMakeFiles/enocean_switch_nrf52832_xxAA_s132_6.1.1.dir/src/enocean.c.obj
                0x00027144                enocean_secmat_add
 .text.enocean_translator_init
                0x00027164       0x18 examples/enocean_switch/CMakeFiles/enocean_switch_nrf52832_xxAA_s132_6.1.1.dir/src/enocean.c.obj
                0x00027164                enocean_translator_init
 .text.flash_invalidate_complete
                0x0002717c       0x10 examples/enocean_switch/CMakeFiles/enocean_switch_nrf52832_xxAA_s132_6.1.1.dir/src/flash_helper.c.obj
 .text.flash_manager_mem_available
                0x0002718c       0x6c examples/enocean_switch/CMakeFiles/enocean_switch_nrf52832_xxAA_s132_6.1.1.dir/src/flash_helper.c.obj
 .text.flash_write_complete
                0x000271f8       0x8c examples/enocean_switch/CMakeFiles/enocean_switch_nrf52832_xxAA_s132_6.1.1.dir/src/flash_helper.c.obj
 .text.flash_reset
                0x00027284       0x80 examples/enocean_switch/CMakeFiles/enocean_switch_nrf52832_xxAA_s132_6.1.1.dir/src/flash_helper.c.obj
 .text.app_flash_init
                0x00027304       0xb8 examples/enocean_switch/CMakeFiles/enocean_switch_nrf52832_xxAA_s132_6.1.1.dir/src/flash_helper.c.obj
                0x00027304                app_flash_init
 .text.flash_remove_complete
                0x000273bc       0x64 examples/enocean_switch/CMakeFiles/enocean_switch_nrf52832_xxAA_s132_6.1.1.dir/src/flash_helper.c.obj
 .text.app_flash_data_load
                0x00027420       0x30 examples/enocean_switch/CMakeFiles/enocean_switch_nrf52832_xxAA_s132_6.1.1.dir/src/flash_helper.c.obj
                0x00027420                app_flash_data_load
 .text.app_flash_data_store
                0x00027450       0x8c examples/enocean_switch/CMakeFiles/enocean_switch_nrf52832_xxAA_s132_6.1.1.dir/src/flash_helper.c.obj
                0x00027450                app_flash_data_store
 .text.app_flash_clear
                0x000274dc       0x12 examples/enocean_switch/CMakeFiles/enocean_switch_nrf52832_xxAA_s132_6.1.1.dir/src/flash_helper.c.obj
                0x000274dc                app_flash_clear
 .text.mesh_evt_handler
                0x000274ee       0x1c examples/enocean_switch/CMakeFiles/enocean_switch_nrf52832_xxAA_s132_6.1.1.dir/__/__/mesh/stack/src/mesh_stack.c.obj
 *fill*         0x0002750a        0x2 
 .text.mesh_stack_provisioning_data_store
                0x0002750c       0xe4 examples/enocean_switch/CMakeFiles/enocean_switch_nrf52832_xxAA_s132_6.1.1.dir/__/__/mesh/stack/src/mesh_stack.c.obj
                0x0002750c                mesh_stack_provisioning_data_store
 .text.mesh_stack_config_clear
                0x000275f0       0x16 examples/enocean_switch/CMakeFiles/enocean_switch_nrf52832_xxAA_s132_6.1.1.dir/__/__/mesh/stack/src/mesh_stack.c.obj
                0x000275f0                mesh_stack_config_clear
 .text.mesh_stack_is_device_provisioned
                0x00027606       0x18 examples/enocean_switch/CMakeFiles/enocean_switch_nrf52832_xxAA_s132_6.1.1.dir/__/__/mesh/stack/src/mesh_stack.c.obj
                0x00027606                mesh_stack_is_device_provisioned
 *fill*         0x0002761e        0x2 
 .text.mesh_stack_init
                0x00027620       0x70 examples/enocean_switch/CMakeFiles/enocean_switch_nrf52832_xxAA_s132_6.1.1.dir/__/__/mesh/stack/src/mesh_stack.c.obj
                0x00027620                mesh_stack_init
 .text.mesh_stack_start
                0x00027690       0x1a examples/enocean_switch/CMakeFiles/enocean_switch_nrf52832_xxAA_s132_6.1.1.dir/__/__/mesh/stack/src/mesh_stack.c.obj
                0x00027690                mesh_stack_start
 *fill*         0x000276aa        0x2 
 .text.mesh_stack_device_reset
                0x000276ac       0x20 examples/enocean_switch/CMakeFiles/enocean_switch_nrf52832_xxAA_s132_6.1.1.dir/__/__/mesh/stack/src/mesh_stack.c.obj
                0x000276ac                mesh_stack_device_reset
 .text.mesh_stack_persistence_flash_usage
                0x000276cc       0x36 examples/enocean_switch/CMakeFiles/enocean_switch_nrf52832_xxAA_s132_6.1.1.dir/__/__/mesh/stack/src/mesh_stack.c.obj
                0x000276cc                mesh_stack_persistence_flash_usage
 *fill*         0x00027702        0x2 
 .text.sd_state_evt_handler
                0x00027704       0xa8 examples/enocean_switch/CMakeFiles/enocean_switch_nrf52832_xxAA_s132_6.1.1.dir/__/common/src/mesh_provisionee.c.obj
 .text.mesh_evt_handler
                0x000277ac       0x2c examples/enocean_switch/CMakeFiles/enocean_switch_nrf52832_xxAA_s132_6.1.1.dir/__/common/src/mesh_provisionee.c.obj
 .text.provisionee_start
                0x000277d8       0x30 examples/enocean_switch/CMakeFiles/enocean_switch_nrf52832_xxAA_s132_6.1.1.dir/__/common/src/mesh_provisionee.c.obj
 .text.prov_evt_handler
                0x00027808       0xbc examples/enocean_switch/CMakeFiles/enocean_switch_nrf52832_xxAA_s132_6.1.1.dir/__/common/src/mesh_provisionee.c.obj
 .text.mesh_provisionee_prov_start
                0x000278c4       0x94 examples/enocean_switch/CMakeFiles/enocean_switch_nrf52832_xxAA_s132_6.1.1.dir/__/common/src/mesh_provisionee.c.obj
                0x000278c4                mesh_provisionee_prov_start
 .text.timeout_handler
                0x00027958       0x1c examples/enocean_switch/CMakeFiles/enocean_switch_nrf52832_xxAA_s132_6.1.1.dir/__/common/src/rtt_input.c.obj
                0x00027958                timeout_handler
 .text.rtt_input_enable
                0x00027974       0x6c examples/enocean_switch/CMakeFiles/enocean_switch_nrf52832_xxAA_s132_6.1.1.dir/__/common/src/rtt_input.c.obj
                0x00027974                rtt_input_enable
 .text.led_timeout_handler
                0x000279e0       0x54 examples/enocean_switch/CMakeFiles/enocean_switch_nrf52832_xxAA_s132_6.1.1.dir/__/common/src/simple_hal.c.obj
 .text.hal_led_pin_set
                0x00027a34       0x18 examples/enocean_switch/CMakeFiles/enocean_switch_nrf52832_xxAA_s132_6.1.1.dir/__/common/src/simple_hal.c.obj
                0x00027a34                hal_led_pin_set
 .text.hal_led_mask_set
                0x00027a4c       0x12 examples/enocean_switch/CMakeFiles/enocean_switch_nrf52832_xxAA_s132_6.1.1.dir/__/common/src/simple_hal.c.obj
                0x00027a4c                hal_led_mask_set
 *fill*         0x00027a5e        0x2 
 .text.hal_led_blink_ms
                0x00027a60       0x64 examples/enocean_switch/CMakeFiles/enocean_switch_nrf52832_xxAA_s132_6.1.1.dir/__/common/src/simple_hal.c.obj
                0x00027a60                hal_led_blink_ms
 .text.hal_led_blink_stop
                0x00027ac4       0x20 examples/enocean_switch/CMakeFiles/enocean_switch_nrf52832_xxAA_s132_6.1.1.dir/__/common/src/simple_hal.c.obj
                0x00027ac4                hal_led_blink_stop
 .text.hal_leds_init
                0x00027ae4       0x58 examples/enocean_switch/CMakeFiles/enocean_switch_nrf52832_xxAA_s132_6.1.1.dir/__/common/src/simple_hal.c.obj
                0x00027ae4                hal_leds_init
 .text.hal_buttons_init
                0x00027b3c       0x50 examples/enocean_switch/CMakeFiles/enocean_switch_nrf52832_xxAA_s132_6.1.1.dir/__/common/src/simple_hal.c.obj
                0x00027b3c                hal_buttons_init
 .text.GPIOTE_IRQHandler
                0x00027b8c       0x60 examples/enocean_switch/CMakeFiles/enocean_switch_nrf52832_xxAA_s132_6.1.1.dir/__/common/src/simple_hal.c.obj
                0x00027b8c                GPIOTE_IRQHandler
 .text.mesh_app_uuid_print
                0x00027bec      0x11c examples/enocean_switch/CMakeFiles/enocean_switch_nrf52832_xxAA_s132_6.1.1.dir/__/common/src/mesh_app_utils.c.obj
                0x00027bec                mesh_app_uuid_print
 .text.sd_ble_gap_adv_set_configure
                0x00027d08        0x4 examples/enocean_switch/CMakeFiles/enocean_switch_nrf52832_xxAA_s132_6.1.1.dir/__/common/src/mesh_adv.c.obj
 .text.sd_ble_gap_adv_start
                0x00027d0c        0x4 examples/enocean_switch/CMakeFiles/enocean_switch_nrf52832_xxAA_s132_6.1.1.dir/__/common/src/mesh_adv.c.obj
 .text.sd_ble_gap_adv_stop
                0x00027d10        0x4 examples/enocean_switch/CMakeFiles/enocean_switch_nrf52832_xxAA_s132_6.1.1.dir/__/common/src/mesh_adv.c.obj
 .text.mesh_adv_data_set
                0x00027d14       0xdc examples/enocean_switch/CMakeFiles/enocean_switch_nrf52832_xxAA_s132_6.1.1.dir/__/common/src/mesh_adv.c.obj
                0x00027d14                mesh_adv_data_set
 .text.mesh_adv_params_set
                0x00027df0       0x28 examples/enocean_switch/CMakeFiles/enocean_switch_nrf52832_xxAA_s132_6.1.1.dir/__/common/src/mesh_adv.c.obj
                0x00027df0                mesh_adv_params_set
 .text.mesh_adv_start
                0x00027e18       0x20 examples/enocean_switch/CMakeFiles/enocean_switch_nrf52832_xxAA_s132_6.1.1.dir/__/common/src/mesh_adv.c.obj
                0x00027e18                mesh_adv_start
 .text.mesh_adv_stop
                0x00027e38       0x1c examples/enocean_switch/CMakeFiles/enocean_switch_nrf52832_xxAA_s132_6.1.1.dir/__/common/src/mesh_adv.c.obj
                0x00027e38                mesh_adv_stop
 .text.sd_ble_gap_disconnect
                0x00027e54        0x4 examples/enocean_switch/CMakeFiles/enocean_switch_nrf52832_xxAA_s132_6.1.1.dir/__/common/src/ble_softdevice_support.c.obj
 .text.sd_ble_gap_ppcp_set
                0x00027e58        0x4 examples/enocean_switch/CMakeFiles/enocean_switch_nrf52832_xxAA_s132_6.1.1.dir/__/common/src/ble_softdevice_support.c.obj
 .text.sd_ble_gap_device_name_set
                0x00027e5c        0x4 examples/enocean_switch/CMakeFiles/enocean_switch_nrf52832_xxAA_s132_6.1.1.dir/__/common/src/ble_softdevice_support.c.obj
 .text.conn_params_error_handler
                0x00027e60        0x4 examples/enocean_switch/CMakeFiles/enocean_switch_nrf52832_xxAA_s132_6.1.1.dir/__/common/src/ble_softdevice_support.c.obj
 .text.on_sd_evt
                0x00027e64        0x4 examples/enocean_switch/CMakeFiles/enocean_switch_nrf52832_xxAA_s132_6.1.1.dir/__/common/src/ble_softdevice_support.c.obj
 .text.on_conn_params_evt
                0x00027e68       0x80 examples/enocean_switch/CMakeFiles/enocean_switch_nrf52832_xxAA_s132_6.1.1.dir/__/common/src/ble_softdevice_support.c.obj
 .text.ble_stack_init
                0x00027ee8       0x32 examples/enocean_switch/CMakeFiles/enocean_switch_nrf52832_xxAA_s132_6.1.1.dir/__/common/src/ble_softdevice_support.c.obj
                0x00027ee8                ble_stack_init
 *fill*         0x00027f1a        0x2 
 .text.gap_params_init
                0x00027f1c       0x50 examples/enocean_switch/CMakeFiles/enocean_switch_nrf52832_xxAA_s132_6.1.1.dir/__/common/src/ble_softdevice_support.c.obj
                0x00027f1c                gap_params_init
 .text.conn_params_init
                0x00027f6c       0x68 examples/enocean_switch/CMakeFiles/enocean_switch_nrf52832_xxAA_s132_6.1.1.dir/__/common/src/ble_softdevice_support.c.obj
                0x00027f6c                conn_params_init
 .text.app_util_critical_region_enter
                0x00027fd4       0x48 examples/enocean_switch/CMakeFiles/enocean_switch_nrf52832_xxAA_s132_6.1.1.dir/C_/mesh/deps/nRF5_SDK_15.3.0_59ac345/components/libraries/util/app_util_platform.c.obj
                0x00027fd4                app_util_critical_region_enter
 .text.app_util_critical_region_exit
                0x0002801c       0x2c examples/enocean_switch/CMakeFiles/enocean_switch_nrf52832_xxAA_s132_6.1.1.dir/C_/mesh/deps/nRF5_SDK_15.3.0_59ac345/components/libraries/util/app_util_platform.c.obj
                0x0002801c                app_util_critical_region_exit
 .text.sd_ble_gap_addr_get
                0x00028048        0x4 examples/enocean_switch/CMakeFiles/enocean_switch_nrf52832_xxAA_s132_6.1.1.dir/C_/mesh/deps/nRF5_SDK_15.3.0_59ac345/components/ble/common/ble_advdata.c.obj
 .text.sd_ble_gap_appearance_get
                0x0002804c        0x4 examples/enocean_switch/CMakeFiles/enocean_switch_nrf52832_xxAA_s132_6.1.1.dir/C_/mesh/deps/nRF5_SDK_15.3.0_59ac345/components/ble/common/ble_advdata.c.obj
 .text.sd_ble_gap_device_name_get
                0x00028050        0x4 examples/enocean_switch/CMakeFiles/enocean_switch_nrf52832_xxAA_s132_6.1.1.dir/C_/mesh/deps/nRF5_SDK_15.3.0_59ac345/components/ble/common/ble_advdata.c.obj
 .text.sd_ble_uuid_encode
                0x00028054        0x4 examples/enocean_switch/CMakeFiles/enocean_switch_nrf52832_xxAA_s132_6.1.1.dir/C_/mesh/deps/nRF5_SDK_15.3.0_59ac345/components/ble/common/ble_advdata.c.obj
 .text.uuid_list_sized_encode
                0x00028058       0xa4 examples/enocean_switch/CMakeFiles/enocean_switch_nrf52832_xxAA_s132_6.1.1.dir/C_/mesh/deps/nRF5_SDK_15.3.0_59ac345/components/ble/common/ble_advdata.c.obj
 .text.uuid_list_encode
                0x000280fc       0x34 examples/enocean_switch/CMakeFiles/enocean_switch_nrf52832_xxAA_s132_6.1.1.dir/C_/mesh/deps/nRF5_SDK_15.3.0_59ac345/components/ble/common/ble_advdata.c.obj
 .text.ble_advdata_encode
                0x00028130      0x392 examples/enocean_switch/CMakeFiles/enocean_switch_nrf52832_xxAA_s132_6.1.1.dir/C_/mesh/deps/nRF5_SDK_15.3.0_59ac345/components/ble/common/ble_advdata.c.obj
                0x00028130                ble_advdata_encode
 .text.nrf_section_iter_init
                0x000284c2       0x12 examples/enocean_switch/CMakeFiles/enocean_switch_nrf52832_xxAA_s132_6.1.1.dir/C_/mesh/deps/nRF5_SDK_15.3.0_59ac345/components/libraries/experimental_section_vars/nrf_section_iter.c.obj
                0x000284c2                nrf_section_iter_init
 .text.nrf_section_iter_next
                0x000284d4       0x18 examples/enocean_switch/CMakeFiles/enocean_switch_nrf52832_xxAA_s132_6.1.1.dir/C_/mesh/deps/nRF5_SDK_15.3.0_59ac345/components/libraries/experimental_section_vars/nrf_section_iter.c.obj
                0x000284d4                nrf_section_iter_next
 .text.sd_evt_get
                0x000284ec        0x4 examples/enocean_switch/CMakeFiles/enocean_switch_nrf52832_xxAA_s132_6.1.1.dir/C_/mesh/deps/nRF5_SDK_15.3.0_59ac345/components/softdevice/common/nrf_sdh_soc.c.obj
 .text.nrf_sdh_soc_evts_poll
                0x000284f0       0x3c examples/enocean_switch/CMakeFiles/enocean_switch_nrf52832_xxAA_s132_6.1.1.dir/C_/mesh/deps/nRF5_SDK_15.3.0_59ac345/components/softdevice/common/nrf_sdh_soc.c.obj
 .text.sd_ble_enable
                0x0002852c        0x4 examples/enocean_switch/CMakeFiles/enocean_switch_nrf52832_xxAA_s132_6.1.1.dir/C_/mesh/deps/nRF5_SDK_15.3.0_59ac345/components/softdevice/common/nrf_sdh_ble.c.obj
 .text.sd_ble_cfg_set
                0x00028530        0x4 examples/enocean_switch/CMakeFiles/enocean_switch_nrf52832_xxAA_s132_6.1.1.dir/C_/mesh/deps/nRF5_SDK_15.3.0_59ac345/components/softdevice/common/nrf_sdh_ble.c.obj
 .text.sd_ble_evt_get
                0x00028534        0x4 examples/enocean_switch/CMakeFiles/enocean_switch_nrf52832_xxAA_s132_6.1.1.dir/C_/mesh/deps/nRF5_SDK_15.3.0_59ac345/components/softdevice/common/nrf_sdh_ble.c.obj
 .text.nrf_sdh_ble_evts_poll
                0x00028538       0x50 examples/enocean_switch/CMakeFiles/enocean_switch_nrf52832_xxAA_s132_6.1.1.dir/C_/mesh/deps/nRF5_SDK_15.3.0_59ac345/components/softdevice/common/nrf_sdh_ble.c.obj
 .text.nrf_sdh_ble_default_cfg_set
                0x00028588       0xd4 examples/enocean_switch/CMakeFiles/enocean_switch_nrf52832_xxAA_s132_6.1.1.dir/C_/mesh/deps/nRF5_SDK_15.3.0_59ac345/components/softdevice/common/nrf_sdh_ble.c.obj
                0x00028588                nrf_sdh_ble_default_cfg_set
 .text.nrf_sdh_ble_enable
                0x0002865c       0x14 examples/enocean_switch/CMakeFiles/enocean_switch_nrf52832_xxAA_s132_6.1.1.dir/C_/mesh/deps/nRF5_SDK_15.3.0_59ac345/components/softdevice/common/nrf_sdh_ble.c.obj
                0x0002865c                nrf_sdh_ble_enable
 .text.sd_softdevice_enable
                0x00028670        0x4 examples/enocean_switch/CMakeFiles/enocean_switch_nrf52832_xxAA_s132_6.1.1.dir/C_/mesh/deps/nRF5_SDK_15.3.0_59ac345/components/softdevice/common/nrf_sdh.c.obj
 .text.sd_softdevice_disable
                0x00028674        0x4 examples/enocean_switch/CMakeFiles/enocean_switch_nrf52832_xxAA_s132_6.1.1.dir/C_/mesh/deps/nRF5_SDK_15.3.0_59ac345/components/softdevice/common/nrf_sdh.c.obj
 .text.sdh_request_observer_notify
                0x00028678       0x30 examples/enocean_switch/CMakeFiles/enocean_switch_nrf52832_xxAA_s132_6.1.1.dir/C_/mesh/deps/nRF5_SDK_15.3.0_59ac345/components/softdevice/common/nrf_sdh.c.obj
 .text.sdh_state_observer_notify
                0x000286a8       0x28 examples/enocean_switch/CMakeFiles/enocean_switch_nrf52832_xxAA_s132_6.1.1.dir/C_/mesh/deps/nRF5_SDK_15.3.0_59ac345/components/softdevice/common/nrf_sdh.c.obj
 .text.softdevice_evt_irq_disable
                0x000286d0       0x24 examples/enocean_switch/CMakeFiles/enocean_switch_nrf52832_xxAA_s132_6.1.1.dir/C_/mesh/deps/nRF5_SDK_15.3.0_59ac345/components/softdevice/common/nrf_sdh.c.obj
 .text.softdevices_evt_irq_enable
                0x000286f4       0x38 examples/enocean_switch/CMakeFiles/enocean_switch_nrf52832_xxAA_s132_6.1.1.dir/C_/mesh/deps/nRF5_SDK_15.3.0_59ac345/components/softdevice/common/nrf_sdh.c.obj
 .text.nrf_sdh_enable_request
                0x0002872c       0x78 examples/enocean_switch/CMakeFiles/enocean_switch_nrf52832_xxAA_s132_6.1.1.dir/C_/mesh/deps/nRF5_SDK_15.3.0_59ac345/components/softdevice/common/nrf_sdh.c.obj
                0x0002872c                nrf_sdh_enable_request
 .text.nrf_sdh_disable_request
                0x000287a4       0x60 examples/enocean_switch/CMakeFiles/enocean_switch_nrf52832_xxAA_s132_6.1.1.dir/C_/mesh/deps/nRF5_SDK_15.3.0_59ac345/components/softdevice/common/nrf_sdh.c.obj
                0x000287a4                nrf_sdh_disable_request
 .text.nrf_sdh_evts_poll
                0x00028804       0x28 examples/enocean_switch/CMakeFiles/enocean_switch_nrf52832_xxAA_s132_6.1.1.dir/C_/mesh/deps/nRF5_SDK_15.3.0_59ac345/components/softdevice/common/nrf_sdh.c.obj
                0x00028804                nrf_sdh_evts_poll
 .text.SWI2_EGU2_IRQHandler
                0x0002882c        0x4 examples/enocean_switch/CMakeFiles/enocean_switch_nrf52832_xxAA_s132_6.1.1.dir/C_/mesh/deps/nRF5_SDK_15.3.0_59ac345/components/softdevice/common/nrf_sdh.c.obj
                0x0002882c                SWI2_EGU2_IRQHandler
 .text.sd_ble_gap_conn_param_update
                0x00028830        0x4 examples/enocean_switch/CMakeFiles/enocean_switch_nrf52832_xxAA_s132_6.1.1.dir/C_/mesh/deps/nRF5_SDK_15.3.0_59ac345/components/ble/common/ble_conn_params.c.obj
 .text.sd_ble_gap_disconnect
                0x00028834        0x4 examples/enocean_switch/CMakeFiles/enocean_switch_nrf52832_xxAA_s132_6.1.1.dir/C_/mesh/deps/nRF5_SDK_15.3.0_59ac345/components/ble/common/ble_conn_params.c.obj
 .text.sd_ble_gap_ppcp_set
                0x00028838        0x4 examples/enocean_switch/CMakeFiles/enocean_switch_nrf52832_xxAA_s132_6.1.1.dir/C_/mesh/deps/nRF5_SDK_15.3.0_59ac345/components/ble/common/ble_conn_params.c.obj
 .text.sd_ble_gap_ppcp_get
                0x0002883c        0x4 examples/enocean_switch/CMakeFiles/enocean_switch_nrf52832_xxAA_s132_6.1.1.dir/C_/mesh/deps/nRF5_SDK_15.3.0_59ac345/components/ble/common/ble_conn_params.c.obj
 .text.instance_get
                0x00028840       0x14 examples/enocean_switch/CMakeFiles/enocean_switch_nrf52832_xxAA_s132_6.1.1.dir/C_/mesh/deps/nRF5_SDK_15.3.0_59ac345/components/ble/common/ble_conn_params.c.obj
 .text.send_error_evt
                0x00028854       0x10 examples/enocean_switch/CMakeFiles/enocean_switch_nrf52832_xxAA_s132_6.1.1.dir/C_/mesh/deps/nRF5_SDK_15.3.0_59ac345/components/ble/common/ble_conn_params.c.obj
 .text.update_timeout_handler
                0x00028864       0x6c examples/enocean_switch/CMakeFiles/enocean_switch_nrf52832_xxAA_s132_6.1.1.dir/C_/mesh/deps/nRF5_SDK_15.3.0_59ac345/components/ble/common/ble_conn_params.c.obj
 .text.conn_params_negotiation
                0x000288d0       0x48 examples/enocean_switch/CMakeFiles/enocean_switch_nrf52832_xxAA_s132_6.1.1.dir/C_/mesh/deps/nRF5_SDK_15.3.0_59ac345/components/ble/common/ble_conn_params.c.obj
 .text.is_conn_params_ok.constprop.3
                0x00028918       0x3a examples/enocean_switch/CMakeFiles/enocean_switch_nrf52832_xxAA_s132_6.1.1.dir/C_/mesh/deps/nRF5_SDK_15.3.0_59ac345/components/ble/common/ble_conn_params.c.obj
 *fill*         0x00028952        0x2 
 .text.ble_evt_handler
                0x00028954       0xe0 examples/enocean_switch/CMakeFiles/enocean_switch_nrf52832_xxAA_s132_6.1.1.dir/C_/mesh/deps/nRF5_SDK_15.3.0_59ac345/components/ble/common/ble_conn_params.c.obj
 .text.ble_conn_params_init
                0x00028a34       0x74 examples/enocean_switch/CMakeFiles/enocean_switch_nrf52832_xxAA_s132_6.1.1.dir/C_/mesh/deps/nRF5_SDK_15.3.0_59ac345/components/ble/common/ble_conn_params.c.obj
                0x00028a34                ble_conn_params_init
 .text.ble_srv_is_notification_enabled
                0x00028aa8        0x8 examples/enocean_switch/CMakeFiles/enocean_switch_nrf52832_xxAA_s132_6.1.1.dir/C_/mesh/deps/nRF5_SDK_15.3.0_59ac345/components/ble/common/ble_srv_common.c.obj
                0x00028aa8                ble_srv_is_notification_enabled
 .text._weak_handler
                0x00028ab0        0x4 examples/enocean_switch/CMakeFiles/enocean_switch_nrf52832_xxAA_s132_6.1.1.dir/__/nrf_mesh_weak.c.obj
                0x00028ab0                nrf_mesh_dfu_init
                0x00028ab0                nrf_mesh_dfu_jump_to_bootloader
                0x00028ab0                nrf_mesh_dfu_rx
                0x00028ab0                prov_provisioner_provision
                0x00028ab0                nrf_mesh_dfu_bank_info_get
                0x00028ab0                prov_provisioner_oob_pubkey
                0x00028ab0                nrf_mesh_dfu_request
                0x00028ab0                nrf_mesh_dfu_bank_flash
                0x00028ab0                nrf_mesh_dfu_enable
                0x00028ab0                _weak_handler
                0x00028ab0                nrf_mesh_dfu_relay
                0x00028ab0                nrf_mesh_dfu_abort
                0x00028ab0                mesh_flash_op_execute
                0x00028ab0                prov_provisionee_init
                0x00028ab0                nrf_mesh_dfu_state_get
                0x00028ab0                prov_provisioner_shared_secret
                0x00028ab0                prov_provisioner_auth_data
                0x00028ab0                prov_provisioner_oob_use
 .text.app_error_fault_handler
                0x00028ab4      0x200 examples/enocean_switch/CMakeFiles/enocean_switch_nrf52832_xxAA_s132_6.1.1.dir/__/common/src/app_error_weak.c.obj
                0x00028ab4                app_error_fault_handler
 .text.mesh_assertion_handler
                0x00028cb4       0x24 examples/enocean_switch/CMakeFiles/enocean_switch_nrf52832_xxAA_s132_6.1.1.dir/__/common/src/assertion_handler_weak.c.obj
                0x00028cb4                mesh_assertion_handler
 .text.nrf_mesh_configure_device_uuid_set
                0x00028cd8       0x10 examples/enocean_switch/CMakeFiles/enocean_switch_nrf52832_xxAA_s132_6.1.1.dir/__/__/mesh/core/src/nrf_mesh_configure.c.obj
                0x00028cd8                nrf_mesh_configure_device_uuid_set
 .text.nrf_mesh_configure_device_uuid_reset
                0x00028ce8       0x3c examples/enocean_switch/CMakeFiles/enocean_switch_nrf52832_xxAA_s132_6.1.1.dir/__/__/mesh/core/src/nrf_mesh_configure.c.obj
                0x00028ce8                nrf_mesh_configure_device_uuid_reset
 .text.nrf_mesh_configure_device_uuid_get
                0x00028d24        0x8 examples/enocean_switch/CMakeFiles/enocean_switch_nrf52832_xxAA_s132_6.1.1.dir/__/__/mesh/core/src/nrf_mesh_configure.c.obj
                0x00028d24                nrf_mesh_configure_device_uuid_get
 .text.msg_cache_init
                0x00028d2c       0x24 examples/enocean_switch/CMakeFiles/enocean_switch_nrf52832_xxAA_s132_6.1.1.dir/__/__/mesh/core/src/msg_cache.c.obj
                0x00028d2c                msg_cache_init
 .text.msg_cache_entry_exists
                0x00028d50       0x3c examples/enocean_switch/CMakeFiles/enocean_switch_nrf52832_xxAA_s132_6.1.1.dir/__/__/mesh/core/src/msg_cache.c.obj
                0x00028d50                msg_cache_entry_exists
 .text.msg_cache_entry_add
                0x00028d8c       0x2c examples/enocean_switch/CMakeFiles/enocean_switch_nrf52832_xxAA_s132_6.1.1.dir/__/__/mesh/core/src/msg_cache.c.obj
                0x00028d8c                msg_cache_entry_add
 .text.seqauth_sequence_number_get
                0x00028db8       0x12 examples/enocean_switch/CMakeFiles/enocean_switch_nrf52832_xxAA_s132_6.1.1.dir/__/__/mesh/core/src/transport.c.obj
 *fill*         0x00028dca        0x2 
 .text.control_packet_callback_get
                0x00028dcc       0x40 examples/enocean_switch/CMakeFiles/enocean_switch_nrf52832_xxAA_s132_6.1.1.dir/__/__/mesh/core/src/transport.c.obj
 .text.tx_complete
                0x00028e0c       0x2c examples/enocean_switch/CMakeFiles/enocean_switch_nrf52832_xxAA_s132_6.1.1.dir/__/__/mesh/core/src/transport.c.obj
 .text.seqauth_get
                0x00028e38       0x24 examples/enocean_switch/CMakeFiles/enocean_switch_nrf52832_xxAA_s132_6.1.1.dir/__/__/mesh/core/src/transport.c.obj
 .text.block_ack_full
                0x00028e5c       0x1a examples/enocean_switch/CMakeFiles/enocean_switch_nrf52832_xxAA_s132_6.1.1.dir/__/__/mesh/core/src/transport.c.obj
 *fill*         0x00028e76        0x2 
 .text.sar_rx_session_mark_as_handled
                0x00028e78       0x5c examples/enocean_switch/CMakeFiles/enocean_switch_nrf52832_xxAA_s132_6.1.1.dir/__/__/mesh/core/src/transport.c.obj
 .text.upper_trs_packet_encrypt
                0x00028ed4       0x86 examples/enocean_switch/CMakeFiles/enocean_switch_nrf52832_xxAA_s132_6.1.1.dir/__/__/mesh/core/src/transport.c.obj
 *fill*         0x00028f5a        0x2 
 .text.sar_ctx_alloc
                0x00028f5c       0xbc examples/enocean_switch/CMakeFiles/enocean_switch_nrf52832_xxAA_s132_6.1.1.dir/__/__/mesh/core/src/transport.c.obj
 .text.sar_ctx_free
                0x00029018       0x3a examples/enocean_switch/CMakeFiles/enocean_switch_nrf52832_xxAA_s132_6.1.1.dir/__/__/mesh/core/src/transport.c.obj
 .text.sar_ctx_tx_complete
                0x00029052       0x2e examples/enocean_switch/CMakeFiles/enocean_switch_nrf52832_xxAA_s132_6.1.1.dir/__/__/mesh/core/src/transport.c.obj
 .text.transport_metadata_validate
                0x00029080       0x54 examples/enocean_switch/CMakeFiles/enocean_switch_nrf52832_xxAA_s132_6.1.1.dir/__/__/mesh/core/src/transport.c.obj
 .text.test_transport_decrypt
                0x000290d4       0x88 examples/enocean_switch/CMakeFiles/enocean_switch_nrf52832_xxAA_s132_6.1.1.dir/__/__/mesh/core/src/transport.c.obj
 .text.replay_list_add
                0x0002915c       0x44 examples/enocean_switch/CMakeFiles/enocean_switch_nrf52832_xxAA_s132_6.1.1.dir/__/__/mesh/core/src/transport.c.obj
 .text.upper_transport_access_packet_in
                0x000291a0      0x1a0 examples/enocean_switch/CMakeFiles/enocean_switch_nrf52832_xxAA_s132_6.1.1.dir/__/__/mesh/core/src/transport.c.obj
 .text.trs_packet_header_build
                0x00029340       0xa4 examples/enocean_switch/CMakeFiles/enocean_switch_nrf52832_xxAA_s132_6.1.1.dir/__/__/mesh/core/src/transport.c.obj
 .text.unsegmented_packet_tx
                0x000293e4       0x82 examples/enocean_switch/CMakeFiles/enocean_switch_nrf52832_xxAA_s132_6.1.1.dir/__/__/mesh/core/src/transport.c.obj
 *fill*         0x00029466        0x2 
 .text.tx_retry_timer_reset
                0x00029468       0x3c examples/enocean_switch/CMakeFiles/enocean_switch_nrf52832_xxAA_s132_6.1.1.dir/__/__/mesh/core/src/transport.c.obj
 .text.sar_ctx_cancel
                0x000294a4       0xb0 examples/enocean_switch/CMakeFiles/enocean_switch_nrf52832_xxAA_s132_6.1.1.dir/__/__/mesh/core/src/transport.c.obj
 .text.abort_timeout
                0x00029554        0x8 examples/enocean_switch/CMakeFiles/enocean_switch_nrf52832_xxAA_s132_6.1.1.dir/__/__/mesh/core/src/transport.c.obj
 .text.retry_timeout
                0x0002955c       0x4c examples/enocean_switch/CMakeFiles/enocean_switch_nrf52832_xxAA_s132_6.1.1.dir/__/__/mesh/core/src/transport.c.obj
 .text.trs_sar_packet_out
                0x000295a8       0xf4 examples/enocean_switch/CMakeFiles/enocean_switch_nrf52832_xxAA_s132_6.1.1.dir/__/__/mesh/core/src/transport.c.obj
 .text.transport_control_packet_in
                0x0002969c      0x1dc examples/enocean_switch/CMakeFiles/enocean_switch_nrf52832_xxAA_s132_6.1.1.dir/__/__/mesh/core/src/transport.c.obj
 .text.segmented_packet_tx
                0x00029878      0x140 examples/enocean_switch/CMakeFiles/enocean_switch_nrf52832_xxAA_s132_6.1.1.dir/__/__/mesh/core/src/transport.c.obj
 .text.transport_init
                0x000299b8       0x84 examples/enocean_switch/CMakeFiles/enocean_switch_nrf52832_xxAA_s132_6.1.1.dir/__/__/mesh/core/src/transport.c.obj
                0x000299b8                transport_init
 .text.transport_enable
                0x00029a3c        0x4 examples/enocean_switch/CMakeFiles/enocean_switch_nrf52832_xxAA_s132_6.1.1.dir/__/__/mesh/core/src/transport.c.obj
                0x00029a3c                transport_enable
 .text.transport_tx
                0x00029a40       0xec examples/enocean_switch/CMakeFiles/enocean_switch_nrf52832_xxAA_s132_6.1.1.dir/__/__/mesh/core/src/transport.c.obj
                0x00029a40                transport_tx
 .text.transport_control_tx
                0x00029b2c       0x98 examples/enocean_switch/CMakeFiles/enocean_switch_nrf52832_xxAA_s132_6.1.1.dir/__/__/mesh/core/src/transport.c.obj
                0x00029b2c                transport_control_tx
 .text.sar_ack_send
                0x00029bc4       0xa4 examples/enocean_switch/CMakeFiles/enocean_switch_nrf52832_xxAA_s132_6.1.1.dir/__/__/mesh/core/src/transport.c.obj
 .text.ack_timeout
                0x00029c68       0x30 examples/enocean_switch/CMakeFiles/enocean_switch_nrf52832_xxAA_s132_6.1.1.dir/__/__/mesh/core/src/transport.c.obj
 .text.transport_packet_in
                0x00029c98      0x504 examples/enocean_switch/CMakeFiles/enocean_switch_nrf52832_xxAA_s132_6.1.1.dir/__/__/mesh/core/src/transport.c.obj
                0x00029c98                transport_packet_in
 .text.transport_sar_process
                0x0002a19c       0x70 examples/enocean_switch/CMakeFiles/enocean_switch_nrf52832_xxAA_s132_6.1.1.dir/__/__/mesh/core/src/transport.c.obj
 .text.transport_control_packet_consumer_add
                0x0002a20c       0x5c examples/enocean_switch/CMakeFiles/enocean_switch_nrf52832_xxAA_s132_6.1.1.dir/__/__/mesh/core/src/transport.c.obj
                0x0002a20c                transport_control_packet_consumer_add
 .text.event_handle
                0x0002a268       0x54 examples/enocean_switch/CMakeFiles/enocean_switch_nrf52832_xxAA_s132_6.1.1.dir/__/__/mesh/core/src/event.c.obj
                0x0002a268                event_handle
 .text.event_handler_add
                0x0002a2bc       0x20 examples/enocean_switch/CMakeFiles/enocean_switch_nrf52832_xxAA_s132_6.1.1.dir/__/__/mesh/core/src/event.c.obj
                0x0002a2bc                event_handler_add
 .text.event_handler_remove
                0x0002a2dc       0x34 examples/enocean_switch/CMakeFiles/enocean_switch_nrf52832_xxAA_s132_6.1.1.dir/__/__/mesh/core/src/event.c.obj
                0x0002a2dc                event_handler_remove
 .text.m_index_increment
                0x0002a310       0x1e examples/enocean_switch/CMakeFiles/enocean_switch_nrf52832_xxAA_s132_6.1.1.dir/__/__/mesh/core/src/packet_buffer.c.obj
 .text.m_get_next_packet
                0x0002a32e       0x1c examples/enocean_switch/CMakeFiles/enocean_switch_nrf52832_xxAA_s132_6.1.1.dir/__/__/mesh/core/src/packet_buffer.c.obj
 .text.packet_buffer_init
                0x0002a34a       0xac examples/enocean_switch/CMakeFiles/enocean_switch_nrf52832_xxAA_s132_6.1.1.dir/__/__/mesh/core/src/packet_buffer.c.obj
                0x0002a34a                packet_buffer_init
 .text.packet_buffer_flush
                0x0002a3f6       0x50 examples/enocean_switch/CMakeFiles/enocean_switch_nrf52832_xxAA_s132_6.1.1.dir/__/__/mesh/core/src/packet_buffer.c.obj
                0x0002a3f6                packet_buffer_flush
 .text.packet_buffer_reserve
                0x0002a446       0xa2 examples/enocean_switch/CMakeFiles/enocean_switch_nrf52832_xxAA_s132_6.1.1.dir/__/__/mesh/core/src/packet_buffer.c.obj
                0x0002a446                packet_buffer_reserve
 .text.packet_buffer_commit
                0x0002a4e8       0x62 examples/enocean_switch/CMakeFiles/enocean_switch_nrf52832_xxAA_s132_6.1.1.dir/__/__/mesh/core/src/packet_buffer.c.obj
                0x0002a4e8                packet_buffer_commit
 .text.packet_buffer_pop
                0x0002a54a       0x5a examples/enocean_switch/CMakeFiles/enocean_switch_nrf52832_xxAA_s132_6.1.1.dir/__/__/mesh/core/src/packet_buffer.c.obj
                0x0002a54a                packet_buffer_pop
 .text.packet_buffer_can_pop
                0x0002a5a4       0x34 examples/enocean_switch/CMakeFiles/enocean_switch_nrf52832_xxAA_s132_6.1.1.dir/__/__/mesh/core/src/packet_buffer.c.obj
                0x0002a5a4                packet_buffer_can_pop
 .text.packet_buffer_packets_ready_to_pop
                0x0002a5d8       0x36 examples/enocean_switch/CMakeFiles/enocean_switch_nrf52832_xxAA_s132_6.1.1.dir/__/__/mesh/core/src/packet_buffer.c.obj
                0x0002a5d8                packet_buffer_packets_ready_to_pop
 .text.packet_buffer_free
                0x0002a60e       0x74 examples/enocean_switch/CMakeFiles/enocean_switch_nrf52832_xxAA_s132_6.1.1.dir/__/__/mesh/core/src/packet_buffer.c.obj
                0x0002a60e                packet_buffer_free
 .text.packet_buffer_is_empty
                0x0002a682       0x28 examples/enocean_switch/CMakeFiles/enocean_switch_nrf52832_xxAA_s132_6.1.1.dir/__/__/mesh/core/src/packet_buffer.c.obj
                0x0002a682                packet_buffer_is_empty
 .text.get_last_page
                0x0002a6aa       0x14 examples/enocean_switch/CMakeFiles/enocean_switch_nrf52832_xxAA_s132_6.1.1.dir/__/__/mesh/core/src/flash_manager_defrag.c.obj
 *fill*         0x0002a6be        0x2 
 .text.defrag_on_end
                0x0002a6c0       0x1c examples/enocean_switch/CMakeFiles/enocean_switch_nrf52832_xxAA_s132_6.1.1.dir/__/__/mesh/core/src/flash_manager_defrag.c.obj
 .text.execute_procedure_step
                0x0002a6dc       0x70 examples/enocean_switch/CMakeFiles/enocean_switch_nrf52832_xxAA_s132_6.1.1.dir/__/__/mesh/core/src/flash_manager_defrag.c.obj
 .text.get_next_entry
                0x0002a74c       0x34 examples/enocean_switch/CMakeFiles/enocean_switch_nrf52832_xxAA_s132_6.1.1.dir/__/__/mesh/core/src/flash_manager_defrag.c.obj
 .text.get_next_data_entry
                0x0002a780       0x26 examples/enocean_switch/CMakeFiles/enocean_switch_nrf52832_xxAA_s132_6.1.1.dir/__/__/mesh/core/src/flash_manager_defrag.c.obj
 *fill*         0x0002a7a6        0x2 
 .text.on_flash_op_end
                0x0002a7a8       0x30 examples/enocean_switch/CMakeFiles/enocean_switch_nrf52832_xxAA_s132_6.1.1.dir/__/__/mesh/core/src/flash_manager_defrag.c.obj
 .text.check_for_invalid_entries
                0x0002a7d8       0x38 examples/enocean_switch/CMakeFiles/enocean_switch_nrf52832_xxAA_s132_6.1.1.dir/__/__/mesh/core/src/flash_manager_defrag.c.obj
 .text.erase_recovery_area
                0x0002a810       0x34 examples/enocean_switch/CMakeFiles/enocean_switch_nrf52832_xxAA_s132_6.1.1.dir/__/__/mesh/core/src/flash_manager_defrag.c.obj
 .text.flash.constprop.6
                0x0002a844       0x24 examples/enocean_switch/CMakeFiles/enocean_switch_nrf52832_xxAA_s132_6.1.1.dir/__/__/mesh/core/src/flash_manager_defrag.c.obj
 .text.invalidate_duplicate_entries
                0x0002a868       0xa8 examples/enocean_switch/CMakeFiles/enocean_switch_nrf52832_xxAA_s132_6.1.1.dir/__/__/mesh/core/src/flash_manager_defrag.c.obj
 .text.seal_storage_page
                0x0002a910       0x50 examples/enocean_switch/CMakeFiles/enocean_switch_nrf52832_xxAA_s132_6.1.1.dir/__/__/mesh/core/src/flash_manager_defrag.c.obj
 .text.copy_metadata
                0x0002a960       0x3c examples/enocean_switch/CMakeFiles/enocean_switch_nrf52832_xxAA_s132_6.1.1.dir/__/__/mesh/core/src/flash_manager_defrag.c.obj
 .text.write_defrag_start_pointer
                0x0002a99c       0x20 examples/enocean_switch/CMakeFiles/enocean_switch_nrf52832_xxAA_s132_6.1.1.dir/__/__/mesh/core/src/flash_manager_defrag.c.obj
 .text.write_back
                0x0002a9bc       0x28 examples/enocean_switch/CMakeFiles/enocean_switch_nrf52832_xxAA_s132_6.1.1.dir/__/__/mesh/core/src/flash_manager_defrag.c.obj
 .text.post_process
                0x0002a9e4       0x40 examples/enocean_switch/CMakeFiles/enocean_switch_nrf52832_xxAA_s132_6.1.1.dir/__/__/mesh/core/src/flash_manager_defrag.c.obj
 .text.backup_entries
                0x0002aa24       0xd8 examples/enocean_switch/CMakeFiles/enocean_switch_nrf52832_xxAA_s132_6.1.1.dir/__/__/mesh/core/src/flash_manager_defrag.c.obj
 .text.erase_source
                0x0002aafc       0x34 examples/enocean_switch/CMakeFiles/enocean_switch_nrf52832_xxAA_s132_6.1.1.dir/__/__/mesh/core/src/flash_manager_defrag.c.obj
 .text.flash_manager_defrag_init
                0x0002ab30       0x8c examples/enocean_switch/CMakeFiles/enocean_switch_nrf52832_xxAA_s132_6.1.1.dir/__/__/mesh/core/src/flash_manager_defrag.c.obj
                0x0002ab30                flash_manager_defrag_init
 .text.flash_manager_defragging
                0x0002abbc       0x38 examples/enocean_switch/CMakeFiles/enocean_switch_nrf52832_xxAA_s132_6.1.1.dir/__/__/mesh/core/src/flash_manager_defrag.c.obj
                0x0002abbc                flash_manager_defragging
 .text.flash_manager_defrag_is_running
                0x0002abf4       0x10 examples/enocean_switch/CMakeFiles/enocean_switch_nrf52832_xxAA_s132_6.1.1.dir/__/__/mesh/core/src/flash_manager_defrag.c.obj
                0x0002abf4                flash_manager_defrag_is_running
 .text.flash_manager_defrag
                0x0002ac04       0x44 examples/enocean_switch/CMakeFiles/enocean_switch_nrf52832_xxAA_s132_6.1.1.dir/__/__/mesh/core/src/flash_manager_defrag.c.obj
                0x0002ac04                flash_manager_defrag
 .text.flash_manager_defrag_recovery_page_get
                0x0002ac48        0xc examples/enocean_switch/CMakeFiles/enocean_switch_nrf52832_xxAA_s132_6.1.1.dir/__/__/mesh/core/src/flash_manager_defrag.c.obj
                0x0002ac48                flash_manager_defrag_recovery_page_get
 .text.fifo_init
                0x0002ac54       0x34 examples/enocean_switch/CMakeFiles/enocean_switch_nrf52832_xxAA_s132_6.1.1.dir/__/__/mesh/core/src/fifo.c.obj
                0x0002ac54                fifo_init
 .text.fifo_pop
                0x0002ac88       0x52 examples/enocean_switch/CMakeFiles/enocean_switch_nrf52832_xxAA_s132_6.1.1.dir/__/__/mesh/core/src/fifo.c.obj
                0x0002ac88                fifo_pop
 *fill*         0x0002acda        0x2 
 .text.wait_for_ready
                0x0002acdc       0x10 examples/enocean_switch/CMakeFiles/enocean_switch_nrf52832_xxAA_s132_6.1.1.dir/__/__/mesh/core/src/nrf_flash.c.obj
 .text.nrf_flash_erase
                0x0002acec       0x50 examples/enocean_switch/CMakeFiles/enocean_switch_nrf52832_xxAA_s132_6.1.1.dir/__/__/mesh/core/src/nrf_flash.c.obj
                0x0002acec                nrf_flash_erase
 .text.nrf_flash_write
                0x0002ad3c       0x50 examples/enocean_switch/CMakeFiles/enocean_switch_nrf52832_xxAA_s132_6.1.1.dir/__/__/mesh/core/src/nrf_flash.c.obj
                0x0002ad3c                nrf_flash_write
 .text.entry_recover_cb
                0x0002ad8c       0x18 examples/enocean_switch/CMakeFiles/enocean_switch_nrf52832_xxAA_s132_6.1.1.dir/__/__/mesh/core/src/net_state.c.obj
 .text.flash_store_iv_index
                0x0002ada4       0x38 examples/enocean_switch/CMakeFiles/enocean_switch_nrf52832_xxAA_s132_6.1.1.dir/__/__/mesh/core/src/net_state.c.obj
 .text.flash_mem_available
                0x0002addc       0x14 examples/enocean_switch/CMakeFiles/enocean_switch_nrf52832_xxAA_s132_6.1.1.dir/__/__/mesh/core/src/net_state.c.obj
 .text.iv_index_notify
                0x0002adf0       0x30 examples/enocean_switch/CMakeFiles/enocean_switch_nrf52832_xxAA_s132_6.1.1.dir/__/__/mesh/core/src/net_state.c.obj
 .text.seqnum_block_allocate
                0x0002ae20       0x4c examples/enocean_switch/CMakeFiles/enocean_switch_nrf52832_xxAA_s132_6.1.1.dir/__/__/mesh/core/src/net_state.c.obj
 .text.net_state_reset
                0x0002ae6c       0x48 examples/enocean_switch/CMakeFiles/enocean_switch_nrf52832_xxAA_s132_6.1.1.dir/__/__/mesh/core/src/net_state.c.obj
                0x0002ae6c                net_state_reset
 .text.flash_write_complete
                0x0002aeb4       0x64 examples/enocean_switch/CMakeFiles/enocean_switch_nrf52832_xxAA_s132_6.1.1.dir/__/__/mesh/core/src/net_state.c.obj
 .text.net_state_recover_from_flash
                0x0002af18       0x60 examples/enocean_switch/CMakeFiles/enocean_switch_nrf52832_xxAA_s132_6.1.1.dir/__/__/mesh/core/src/net_state.c.obj
                0x0002af18                net_state_recover_from_flash
 .text.net_state_flash_area_get
                0x0002af78        0xc examples/enocean_switch/CMakeFiles/enocean_switch_nrf52832_xxAA_s132_6.1.1.dir/__/__/mesh/core/src/net_state.c.obj
                0x0002af78                net_state_flash_area_get
 .text.init_flash_storage
                0x0002af84       0x40 examples/enocean_switch/CMakeFiles/enocean_switch_nrf52832_xxAA_s132_6.1.1.dir/__/__/mesh/core/src/net_state.c.obj
 .text.net_state_init
                0x0002afc4       0x44 examples/enocean_switch/CMakeFiles/enocean_switch_nrf52832_xxAA_s132_6.1.1.dir/__/__/mesh/core/src/net_state.c.obj
                0x0002afc4                net_state_init
 .text.net_state_enable
                0x0002b008       0x30 examples/enocean_switch/CMakeFiles/enocean_switch_nrf52832_xxAA_s132_6.1.1.dir/__/__/mesh/core/src/net_state.c.obj
                0x0002b008                net_state_enable
 .text.net_state_iv_update_start
                0x0002b038       0x50 examples/enocean_switch/CMakeFiles/enocean_switch_nrf52832_xxAA_s132_6.1.1.dir/__/__/mesh/core/src/net_state.c.obj
                0x0002b038                net_state_iv_update_start
 .text.iv_update_trigger_if_pending
                0x0002b088       0x6c examples/enocean_switch/CMakeFiles/enocean_switch_nrf52832_xxAA_s132_6.1.1.dir/__/__/mesh/core/src/net_state.c.obj
 .text.iv_update_timer_handler
                0x0002b0f4       0x64 examples/enocean_switch/CMakeFiles/enocean_switch_nrf52832_xxAA_s132_6.1.1.dir/__/__/mesh/core/src/net_state.c.obj
 .text.mesh_evt_handler
                0x0002b158       0x8c examples/enocean_switch/CMakeFiles/enocean_switch_nrf52832_xxAA_s132_6.1.1.dir/__/__/mesh/core/src/net_state.c.obj
 .text.net_state_seqnum_alloc
                0x0002b1e4       0x68 examples/enocean_switch/CMakeFiles/enocean_switch_nrf52832_xxAA_s132_6.1.1.dir/__/__/mesh/core/src/net_state.c.obj
                0x0002b1e4                net_state_seqnum_alloc
 .text.net_state_iv_index_lock
                0x0002b24c       0x3c examples/enocean_switch/CMakeFiles/enocean_switch_nrf52832_xxAA_s132_6.1.1.dir/__/__/mesh/core/src/net_state.c.obj
                0x0002b24c                net_state_iv_index_lock
 .text.net_state_key_refresh_phase_changed
                0x0002b288       0x20 examples/enocean_switch/CMakeFiles/enocean_switch_nrf52832_xxAA_s132_6.1.1.dir/__/__/mesh/core/src/net_state.c.obj
                0x0002b288                net_state_key_refresh_phase_changed
 .text.net_state_beacon_iv_index_get
                0x0002b2a8        0xc examples/enocean_switch/CMakeFiles/enocean_switch_nrf52832_xxAA_s132_6.1.1.dir/__/__/mesh/core/src/net_state.c.obj
                0x0002b2a8                net_state_beacon_iv_index_get
 .text.net_state_tx_iv_index_get
                0x0002b2b4       0x14 examples/enocean_switch/CMakeFiles/enocean_switch_nrf52832_xxAA_s132_6.1.1.dir/__/__/mesh/core/src/net_state.c.obj
                0x0002b2b4                net_state_tx_iv_index_get
 .text.net_state_rx_iv_index_get
                0x0002b2c8       0x18 examples/enocean_switch/CMakeFiles/enocean_switch_nrf52832_xxAA_s132_6.1.1.dir/__/__/mesh/core/src/net_state.c.obj
                0x0002b2c8                net_state_rx_iv_index_get
 .text.net_state_iv_update_get
                0x0002b2e0        0xc examples/enocean_switch/CMakeFiles/enocean_switch_nrf52832_xxAA_s132_6.1.1.dir/__/__/mesh/core/src/net_state.c.obj
                0x0002b2e0                net_state_iv_update_get
 .text.net_state_iv_index_set
                0x0002b2ec       0x34 examples/enocean_switch/CMakeFiles/enocean_switch_nrf52832_xxAA_s132_6.1.1.dir/__/__/mesh/core/src/net_state.c.obj
                0x0002b2ec                net_state_iv_index_set
 .text.send_end_events
                0x0002b320       0x84 examples/enocean_switch/CMakeFiles/enocean_switch_nrf52832_xxAA_s132_6.1.1.dir/__/__/mesh/core/src/mesh_flash.c.obj
 .text.flash_op_action_prepare
                0x0002b3a4       0x78 examples/enocean_switch/CMakeFiles/enocean_switch_nrf52832_xxAA_s132_6.1.1.dir/__/__/mesh/core/src/mesh_flash.c.obj
 .text.flash_op_schedule
                0x0002b41c       0x20 examples/enocean_switch/CMakeFiles/enocean_switch_nrf52832_xxAA_s132_6.1.1.dir/__/__/mesh/core/src/mesh_flash.c.obj
 .text.flash_op_start
                0x0002b43c      0x13c examples/enocean_switch/CMakeFiles/enocean_switch_nrf52832_xxAA_s132_6.1.1.dir/__/__/mesh/core/src/mesh_flash.c.obj
 .text.mesh_flash_init
                0x0002b578       0x7c examples/enocean_switch/CMakeFiles/enocean_switch_nrf52832_xxAA_s132_6.1.1.dir/__/__/mesh/core/src/mesh_flash.c.obj
                0x0002b578                mesh_flash_init
 .text.mesh_flash_user_callback_set
                0x0002b5f4       0x20 examples/enocean_switch/CMakeFiles/enocean_switch_nrf52832_xxAA_s132_6.1.1.dir/__/__/mesh/core/src/mesh_flash.c.obj
                0x0002b5f4                mesh_flash_user_callback_set
 .text.mesh_flash_op_push
                0x0002b614      0x10c examples/enocean_switch/CMakeFiles/enocean_switch_nrf52832_xxAA_s132_6.1.1.dir/__/__/mesh/core/src/mesh_flash.c.obj
                0x0002b614                mesh_flash_op_push
 .text.mesh_flash_set_suspended
                0x0002b720       0x70 examples/enocean_switch/CMakeFiles/enocean_switch_nrf52832_xxAA_s132_6.1.1.dir/__/__/mesh/core/src/mesh_flash.c.obj
                0x0002b720                mesh_flash_set_suspended
 .text.nrf_mesh_address_type_get
                0x0002b790       0x10 examples/enocean_switch/CMakeFiles/enocean_switch_nrf52832_xxAA_s132_6.1.1.dir/__/__/mesh/core/src/nrf_mesh_utils.c.obj
                0x0002b790                nrf_mesh_address_type_get
 .text.sd_softdevice_is_enabled
                0x0002b7a0        0x4 examples/enocean_switch/CMakeFiles/enocean_switch_nrf52832_xxAA_s132_6.1.1.dir/__/__/mesh/core/src/nrf_mesh.c.obj
 .text.nrf_mesh_listen
                0x0002b7a4      0x138 examples/enocean_switch/CMakeFiles/enocean_switch_nrf52832_xxAA_s132_6.1.1.dir/__/__/mesh/core/src/nrf_mesh.c.obj
 .text.scanner_packet_process_cb
                0x0002b8dc       0x8c examples/enocean_switch/CMakeFiles/enocean_switch_nrf52832_xxAA_s132_6.1.1.dir/__/__/mesh/core/src/nrf_mesh.c.obj
 .text.bearer_stopped_cb
                0x0002b968       0x30 examples/enocean_switch/CMakeFiles/enocean_switch_nrf52832_xxAA_s132_6.1.1.dir/__/__/mesh/core/src/nrf_mesh.c.obj
 .text.nrf_mesh_init
                0x0002b998       0xe8 examples/enocean_switch/CMakeFiles/enocean_switch_nrf52832_xxAA_s132_6.1.1.dir/__/__/mesh/core/src/nrf_mesh.c.obj
                0x0002b998                nrf_mesh_init
 .text.nrf_mesh_enable
                0x0002ba80       0xac examples/enocean_switch/CMakeFiles/enocean_switch_nrf52832_xxAA_s132_6.1.1.dir/__/__/mesh/core/src/nrf_mesh.c.obj
                0x0002ba80                nrf_mesh_enable
 .text.nrf_mesh_disable
                0x0002bb2c       0x2c examples/enocean_switch/CMakeFiles/enocean_switch_nrf52832_xxAA_s132_6.1.1.dir/__/__/mesh/core/src/nrf_mesh.c.obj
                0x0002bb2c                nrf_mesh_disable
 .text.nrf_mesh_packet_send
                0x0002bb58        0x4 examples/enocean_switch/CMakeFiles/enocean_switch_nrf52832_xxAA_s132_6.1.1.dir/__/__/mesh/core/src/nrf_mesh.c.obj
                0x0002bb58                nrf_mesh_packet_send
 .text.nrf_mesh_evt_handler_add
                0x0002bb5c        0x4 examples/enocean_switch/CMakeFiles/enocean_switch_nrf52832_xxAA_s132_6.1.1.dir/__/__/mesh/core/src/nrf_mesh.c.obj
                0x0002bb5c                nrf_mesh_evt_handler_add
 .text.nrf_mesh_evt_handler_remove
                0x0002bb60        0x4 examples/enocean_switch/CMakeFiles/enocean_switch_nrf52832_xxAA_s132_6.1.1.dir/__/__/mesh/core/src/nrf_mesh.c.obj
                0x0002bb60                nrf_mesh_evt_handler_remove
 .text.nrf_mesh_on_sd_evt
                0x0002bb64        0xa examples/enocean_switch/CMakeFiles/enocean_switch_nrf52832_xxAA_s132_6.1.1.dir/__/__/mesh/core/src/nrf_mesh.c.obj
                0x0002bb64                nrf_mesh_on_sd_evt
 *fill*         0x0002bb6e        0x2 
 .text.nrf_mesh_rx_cb_set
                0x0002bb70        0xc examples/enocean_switch/CMakeFiles/enocean_switch_nrf52832_xxAA_s132_6.1.1.dir/__/__/mesh/core/src/nrf_mesh.c.obj
                0x0002bb70                nrf_mesh_rx_cb_set
 .text.nrf_mesh_subnet_added
                0x0002bb7c        0x4 examples/enocean_switch/CMakeFiles/enocean_switch_nrf52832_xxAA_s132_6.1.1.dir/__/__/mesh/core/src/nrf_mesh.c.obj
                0x0002bb7c                nrf_mesh_subnet_added
 .text.nrf_mesh_unique_token_get
                0x0002bb80       0x18 examples/enocean_switch/CMakeFiles/enocean_switch_nrf52832_xxAA_s132_6.1.1.dir/__/__/mesh/core/src/nrf_mesh.c.obj
                0x0002bb80                nrf_mesh_unique_token_get
 .text.queue_init
                0x0002bb98       0x14 examples/enocean_switch/CMakeFiles/enocean_switch_nrf52832_xxAA_s132_6.1.1.dir/__/__/mesh/core/src/queue.c.obj
                0x0002bb98                queue_init
 .text.queue_push
                0x0002bbac       0x34 examples/enocean_switch/CMakeFiles/enocean_switch_nrf52832_xxAA_s132_6.1.1.dir/__/__/mesh/core/src/queue.c.obj
                0x0002bbac                queue_push
 .text.queue_pop
                0x0002bbe0       0x26 examples/enocean_switch/CMakeFiles/enocean_switch_nrf52832_xxAA_s132_6.1.1.dir/__/__/mesh/core/src/queue.c.obj
                0x0002bbe0                queue_pop
 .text.queue_peek
                0x0002bc06       0x10 examples/enocean_switch/CMakeFiles/enocean_switch_nrf52832_xxAA_s132_6.1.1.dir/__/__/mesh/core/src/queue.c.obj
                0x0002bc06                queue_peek
 .text.sd_power_reset_reason_clr
                0x0002bc16        0x4 examples/enocean_switch/CMakeFiles/enocean_switch_nrf52832_xxAA_s132_6.1.1.dir/__/__/mesh/core/src/hal.c.obj
 .text.sd_power_gpregret_set
                0x0002bc1a        0x4 examples/enocean_switch/CMakeFiles/enocean_switch_nrf52832_xxAA_s132_6.1.1.dir/__/__/mesh/core/src/hal.c.obj
 .text.sd_power_gpregret_clr
                0x0002bc1e        0x4 examples/enocean_switch/CMakeFiles/enocean_switch_nrf52832_xxAA_s132_6.1.1.dir/__/__/mesh/core/src/hal.c.obj
 *fill*         0x0002bc22        0x2 
 .text.hal_device_reset
                0x0002bc24       0x40 examples/enocean_switch/CMakeFiles/enocean_switch_nrf52832_xxAA_s132_6.1.1.dir/__/__/mesh/core/src/hal.c.obj
                0x0002bc24                hal_device_reset
 .text.hal_lfclk_ppm_get
                0x0002bc64       0x14 examples/enocean_switch/CMakeFiles/enocean_switch_nrf52832_xxAA_s132_6.1.1.dir/__/__/mesh/core/src/hal.c.obj
                0x0002bc64                hal_lfclk_ppm_get
 .text.hal_irq_active_get
                0x0002bc78       0x10 examples/enocean_switch/CMakeFiles/enocean_switch_nrf52832_xxAA_s132_6.1.1.dir/__/__/mesh/core/src/hal.c.obj
                0x0002bc78                hal_irq_active_get
 .text.hal_irq_is_enabled
                0x0002bc88       0x28 examples/enocean_switch/CMakeFiles/enocean_switch_nrf52832_xxAA_s132_6.1.1.dir/__/__/mesh/core/src/hal.c.obj
                0x0002bc88                hal_irq_is_enabled
 .text.sd_ecb_block_encrypt
                0x0002bcb0        0x4 examples/enocean_switch/CMakeFiles/enocean_switch_nrf52832_xxAA_s132_6.1.1.dir/__/__/mesh/core/src/aes_cmac.c.obj
 .text.utils_xor.constprop.1
                0x0002bcb4       0x20 examples/enocean_switch/CMakeFiles/enocean_switch_nrf52832_xxAA_s132_6.1.1.dir/__/__/mesh/core/src/aes_cmac.c.obj
 .text.aes_cmac
                0x0002bcd4      0x10c examples/enocean_switch/CMakeFiles/enocean_switch_nrf52832_xxAA_s132_6.1.1.dir/__/__/mesh/core/src/aes_cmac.c.obj
                0x0002bcd4                aes_cmac
 .text.add_evt  0x0002bde0       0x50 examples/enocean_switch/CMakeFiles/enocean_switch_nrf52832_xxAA_s132_6.1.1.dir/__/__/mesh/core/src/timer_scheduler.c.obj
 .text.remove_evt
                0x0002be30       0x50 examples/enocean_switch/CMakeFiles/enocean_switch_nrf52832_xxAA_s132_6.1.1.dir/__/__/mesh/core/src/timer_scheduler.c.obj
 .text.timer_cb
                0x0002be80        0xc examples/enocean_switch/CMakeFiles/enocean_switch_nrf52832_xxAA_s132_6.1.1.dir/__/__/mesh/core/src/timer_scheduler.c.obj
 .text.setup_timeout.isra.0
                0x0002be8c       0x1c examples/enocean_switch/CMakeFiles/enocean_switch_nrf52832_xxAA_s132_6.1.1.dir/__/__/mesh/core/src/timer_scheduler.c.obj
 .text.flag_event_cb
                0x0002bea8       0xa4 examples/enocean_switch/CMakeFiles/enocean_switch_nrf52832_xxAA_s132_6.1.1.dir/__/__/mesh/core/src/timer_scheduler.c.obj
 .text.timer_sch_init
                0x0002bf4c       0x2c examples/enocean_switch/CMakeFiles/enocean_switch_nrf52832_xxAA_s132_6.1.1.dir/__/__/mesh/core/src/timer_scheduler.c.obj
                0x0002bf4c                timer_sch_init
 .text.timer_sch_schedule
                0x0002bf78       0x44 examples/enocean_switch/CMakeFiles/enocean_switch_nrf52832_xxAA_s132_6.1.1.dir/__/__/mesh/core/src/timer_scheduler.c.obj
                0x0002bf78                timer_sch_schedule
 .text.timer_sch_abort
                0x0002bfbc       0x2e examples/enocean_switch/CMakeFiles/enocean_switch_nrf52832_xxAA_s132_6.1.1.dir/__/__/mesh/core/src/timer_scheduler.c.obj
                0x0002bfbc                timer_sch_abort
 .text.timer_sch_reschedule
                0x0002bfea       0x38 examples/enocean_switch/CMakeFiles/enocean_switch_nrf52832_xxAA_s132_6.1.1.dir/__/__/mesh/core/src/timer_scheduler.c.obj
                0x0002bfea                timer_sch_reschedule
 .text.timer_init
                0x0002c022       0x1a examples/enocean_switch/CMakeFiles/enocean_switch_nrf52832_xxAA_s132_6.1.1.dir/__/__/mesh/core/src/timer.c.obj
                0x0002c022                timer_init
 .text.timer_now
                0x0002c03c       0x48 examples/enocean_switch/CMakeFiles/enocean_switch_nrf52832_xxAA_s132_6.1.1.dir/__/__/mesh/core/src/timer.c.obj
                0x0002c03c                timer_now
 .text.nrf_mesh_timer_tail_handle
                0x0002c084       0x34 examples/enocean_switch/CMakeFiles/enocean_switch_nrf52832_xxAA_s132_6.1.1.dir/__/__/mesh/core/src/timer.c.obj
                0x0002c084                nrf_mesh_timer_tail_handle
 .text.nrf_mesh_timer_ovfw_handle
                0x0002c0b8       0x98 examples/enocean_switch/CMakeFiles/enocean_switch_nrf52832_xxAA_s132_6.1.1.dir/__/__/mesh/core/src/timer.c.obj
                0x0002c0b8                nrf_mesh_timer_ovfw_handle
 .text.timer_start
                0x0002c150       0xac examples/enocean_switch/CMakeFiles/enocean_switch_nrf52832_xxAA_s132_6.1.1.dir/__/__/mesh/core/src/timer.c.obj
                0x0002c150                timer_start
 .text.timer_stop
                0x0002c1fc       0x30 examples/enocean_switch/CMakeFiles/enocean_switch_nrf52832_xxAA_s132_6.1.1.dir/__/__/mesh/core/src/timer.c.obj
                0x0002c1fc                timer_stop
 .text.sd_rand_application_bytes_available_get
                0x0002c22c        0x4 examples/enocean_switch/CMakeFiles/enocean_switch_nrf52832_xxAA_s132_6.1.1.dir/__/__/mesh/core/src/rand.c.obj
 .text.sd_rand_application_vector_get
                0x0002c230        0x4 examples/enocean_switch/CMakeFiles/enocean_switch_nrf52832_xxAA_s132_6.1.1.dir/__/__/mesh/core/src/rand.c.obj
 .text.rand_prng_get
                0x0002c234       0x24 examples/enocean_switch/CMakeFiles/enocean_switch_nrf52832_xxAA_s132_6.1.1.dir/__/__/mesh/core/src/rand.c.obj
                0x0002c234                rand_prng_get
 .text.rand_hw_rng_get
                0x0002c258       0x44 examples/enocean_switch/CMakeFiles/enocean_switch_nrf52832_xxAA_s132_6.1.1.dir/__/__/mesh/core/src/rand.c.obj
                0x0002c258                rand_hw_rng_get
 .text.rand_prng_seed
                0x0002c29c       0x34 examples/enocean_switch/CMakeFiles/enocean_switch_nrf52832_xxAA_s132_6.1.1.dir/__/__/mesh/core/src/rand.c.obj
                0x0002c29c                rand_prng_seed
 .text.mesh_opt_init
                0x0002c2d0        0x2 examples/enocean_switch/CMakeFiles/enocean_switch_nrf52832_xxAA_s132_6.1.1.dir/__/__/mesh/core/src/mesh_opt.c.obj
                0x0002c2d0                mesh_opt_init
 .text.sd_radio_session_open
                0x0002c2d2        0x4 examples/enocean_switch/CMakeFiles/enocean_switch_nrf52832_xxAA_s132_6.1.1.dir/__/__/mesh/core/src/timeslot.c.obj
 .text.sd_radio_session_close
                0x0002c2d6        0x4 examples/enocean_switch/CMakeFiles/enocean_switch_nrf52832_xxAA_s132_6.1.1.dir/__/__/mesh/core/src/timeslot.c.obj
 .text.sd_radio_request
                0x0002c2da        0x4 examples/enocean_switch/CMakeFiles/enocean_switch_nrf52832_xxAA_s132_6.1.1.dir/__/__/mesh/core/src/timeslot.c.obj
 *fill*         0x0002c2de        0x2 
 .text.end_timer_handler
                0x0002c2e0       0x24 examples/enocean_switch/CMakeFiles/enocean_switch_nrf52832_xxAA_s132_6.1.1.dir/__/__/mesh/core/src/timeslot.c.obj
 .text.get_end_time.isra.3
                0x0002c304       0x20 examples/enocean_switch/CMakeFiles/enocean_switch_nrf52832_xxAA_s132_6.1.1.dir/__/__/mesh/core/src/timeslot.c.obj
 .text.on_ts_begin.constprop.9
                0x0002c324       0x48 examples/enocean_switch/CMakeFiles/enocean_switch_nrf52832_xxAA_s132_6.1.1.dir/__/__/mesh/core/src/timeslot.c.obj
 .text.handle_extend_end.constprop.5
                0x0002c36c       0x88 examples/enocean_switch/CMakeFiles/enocean_switch_nrf52832_xxAA_s132_6.1.1.dir/__/__/mesh/core/src/timeslot.c.obj
 .text.radio_signal_callback
                0x0002c3f4      0x12c examples/enocean_switch/CMakeFiles/enocean_switch_nrf52832_xxAA_s132_6.1.1.dir/__/__/mesh/core/src/timeslot.c.obj
 .text.timeslot_sd_event_handler
                0x0002c520       0x60 examples/enocean_switch/CMakeFiles/enocean_switch_nrf52832_xxAA_s132_6.1.1.dir/__/__/mesh/core/src/timeslot.c.obj
                0x0002c520                timeslot_sd_event_handler
 .text.timeslot_init
                0x0002c580       0x50 examples/enocean_switch/CMakeFiles/enocean_switch_nrf52832_xxAA_s132_6.1.1.dir/__/__/mesh/core/src/timeslot.c.obj
                0x0002c580                timeslot_init
 .text.timeslot_start
                0x0002c5d0       0x48 examples/enocean_switch/CMakeFiles/enocean_switch_nrf52832_xxAA_s132_6.1.1.dir/__/__/mesh/core/src/timeslot.c.obj
                0x0002c5d0                timeslot_start
 .text.timeslot_end_is_pending
                0x0002c618       0x28 examples/enocean_switch/CMakeFiles/enocean_switch_nrf52832_xxAA_s132_6.1.1.dir/__/__/mesh/core/src/timeslot.c.obj
                0x0002c618                timeslot_end_is_pending
 .text.timeslot_length_get
                0x0002c640        0xc examples/enocean_switch/CMakeFiles/enocean_switch_nrf52832_xxAA_s132_6.1.1.dir/__/__/mesh/core/src/timeslot.c.obj
                0x0002c640                timeslot_length_get
 .text.timeslot_remaining_time_get
                0x0002c64c       0x24 examples/enocean_switch/CMakeFiles/enocean_switch_nrf52832_xxAA_s132_6.1.1.dir/__/__/mesh/core/src/timeslot.c.obj
                0x0002c64c                timeslot_remaining_time_get
 .text.timeslot_is_in_ts
                0x0002c670        0xc examples/enocean_switch/CMakeFiles/enocean_switch_nrf52832_xxAA_s132_6.1.1.dir/__/__/mesh/core/src/timeslot.c.obj
                0x0002c670                timeslot_is_in_ts
 .text.timeslot_is_in_cb
                0x0002c67c        0xc examples/enocean_switch/CMakeFiles/enocean_switch_nrf52832_xxAA_s132_6.1.1.dir/__/__/mesh/core/src/timeslot.c.obj
                0x0002c67c                timeslot_is_in_cb
 .text.timeslot_session_is_active
                0x0002c688       0x10 examples/enocean_switch/CMakeFiles/enocean_switch_nrf52832_xxAA_s132_6.1.1.dir/__/__/mesh/core/src/timeslot.c.obj
                0x0002c688                timeslot_session_is_active
 .text.timeslot_trigger
                0x0002c698       0x24 examples/enocean_switch/CMakeFiles/enocean_switch_nrf52832_xxAA_s132_6.1.1.dir/__/__/mesh/core/src/timeslot.c.obj
                0x0002c698                timeslot_trigger
 .text.timeslot_stop
                0x0002c6bc       0x1c examples/enocean_switch/CMakeFiles/enocean_switch_nrf52832_xxAA_s132_6.1.1.dir/__/__/mesh/core/src/timeslot.c.obj
                0x0002c6bc                timeslot_stop
 .text.timeslot_restart
                0x0002c6d8       0x24 examples/enocean_switch/CMakeFiles/enocean_switch_nrf52832_xxAA_s132_6.1.1.dir/__/__/mesh/core/src/timeslot.c.obj
                0x0002c6d8                timeslot_restart
 .text.timeslot_state_lock
                0x0002c6fc       0x24 examples/enocean_switch/CMakeFiles/enocean_switch_nrf52832_xxAA_s132_6.1.1.dir/__/__/mesh/core/src/timeslot.c.obj
                0x0002c6fc                timeslot_state_lock
 .text.timer_mut_unlock
                0x0002c720       0x10 examples/enocean_switch/CMakeFiles/enocean_switch_nrf52832_xxAA_s132_6.1.1.dir/__/__/mesh/core/src/timeslot_timer.c.obj
 .text.ts_timer_order_cb
                0x0002c730       0x64 examples/enocean_switch/CMakeFiles/enocean_switch_nrf52832_xxAA_s132_6.1.1.dir/__/__/mesh/core/src/timeslot_timer.c.obj
                0x0002c730                ts_timer_order_cb
 .text.ts_timer_now
                0x0002c794       0x40 examples/enocean_switch/CMakeFiles/enocean_switch_nrf52832_xxAA_s132_6.1.1.dir/__/__/mesh/core/src/timeslot_timer.c.obj
                0x0002c794                ts_timer_now
 .text.ts_timer_event_handler
                0x0002c7d4       0x68 examples/enocean_switch/CMakeFiles/enocean_switch_nrf52832_xxAA_s132_6.1.1.dir/__/__/mesh/core/src/timeslot_timer.c.obj
                0x0002c7d4                ts_timer_event_handler
 .text.ts_timer_to_device_time
                0x0002c83c        0xc examples/enocean_switch/CMakeFiles/enocean_switch_nrf52832_xxAA_s132_6.1.1.dir/__/__/mesh/core/src/timeslot_timer.c.obj
                0x0002c83c                ts_timer_to_device_time
 .text.ts_timer_on_ts_begin
                0x0002c848       0x64 examples/enocean_switch/CMakeFiles/enocean_switch_nrf52832_xxAA_s132_6.1.1.dir/__/__/mesh/core/src/timeslot_timer.c.obj
                0x0002c848                ts_timer_on_ts_begin
 .text.ts_timer_on_ts_end
                0x0002c8ac       0x48 examples/enocean_switch/CMakeFiles/enocean_switch_nrf52832_xxAA_s132_6.1.1.dir/__/__/mesh/core/src/timeslot_timer.c.obj
                0x0002c8ac                ts_timer_on_ts_end
 .text.trigger_event_handler
                0x0002c8f4       0x1c examples/enocean_switch/CMakeFiles/enocean_switch_nrf52832_xxAA_s132_6.1.1.dir/__/__/mesh/core/src/bearer_event.c.obj
 .text.bearer_event_init
                0x0002c910       0x58 examples/enocean_switch/CMakeFiles/enocean_switch_nrf52832_xxAA_s132_6.1.1.dir/__/__/mesh/core/src/bearer_event.c.obj
                0x0002c910                bearer_event_init
 .text.bearer_event_start
                0x0002c968       0x44 examples/enocean_switch/CMakeFiles/enocean_switch_nrf52832_xxAA_s132_6.1.1.dir/__/__/mesh/core/src/bearer_event.c.obj
                0x0002c968                bearer_event_start
 .text.bearer_event_critical_section_begin
                0x0002c9ac       0x80 examples/enocean_switch/CMakeFiles/enocean_switch_nrf52832_xxAA_s132_6.1.1.dir/__/__/mesh/core/src/bearer_event.c.obj
                0x0002c9ac                bearer_event_critical_section_begin
 .text.bearer_event_critical_section_end
                0x0002ca2c       0x60 examples/enocean_switch/CMakeFiles/enocean_switch_nrf52832_xxAA_s132_6.1.1.dir/__/__/mesh/core/src/bearer_event.c.obj
                0x0002ca2c                bearer_event_critical_section_end
 .text.bearer_event_flag_add
                0x0002ca8c       0x3c examples/enocean_switch/CMakeFiles/enocean_switch_nrf52832_xxAA_s132_6.1.1.dir/__/__/mesh/core/src/bearer_event.c.obj
                0x0002ca8c                bearer_event_flag_add
 .text.bearer_event_flag_set
                0x0002cac8       0x44 examples/enocean_switch/CMakeFiles/enocean_switch_nrf52832_xxAA_s132_6.1.1.dir/__/__/mesh/core/src/bearer_event.c.obj
                0x0002cac8                bearer_event_flag_set
 .text.bearer_event_sequential_add
                0x0002cb0c       0x2e examples/enocean_switch/CMakeFiles/enocean_switch_nrf52832_xxAA_s132_6.1.1.dir/__/__/mesh/core/src/bearer_event.c.obj
                0x0002cb0c                bearer_event_sequential_add
 *fill*         0x0002cb3a        0x2 
 .text.bearer_event_sequential_post
                0x0002cb3c       0x44 examples/enocean_switch/CMakeFiles/enocean_switch_nrf52832_xxAA_s132_6.1.1.dir/__/__/mesh/core/src/bearer_event.c.obj
                0x0002cb3c                bearer_event_sequential_post
 .text.bearer_event_sequential_pending
                0x0002cb80       0x10 examples/enocean_switch/CMakeFiles/enocean_switch_nrf52832_xxAA_s132_6.1.1.dir/__/__/mesh/core/src/bearer_event.c.obj
                0x0002cb80                bearer_event_sequential_pending
 .text.bearer_event_handler
                0x0002cb90       0xe4 examples/enocean_switch/CMakeFiles/enocean_switch_nrf52832_xxAA_s132_6.1.1.dir/__/__/mesh/core/src/bearer_event.c.obj
                0x0002cb90                bearer_event_handler
 .text.QDEC_IRQHandler
                0x0002cc74        0x4 examples/enocean_switch/CMakeFiles/enocean_switch_nrf52832_xxAA_s132_6.1.1.dir/__/__/mesh/core/src/bearer_event.c.obj
                0x0002cc74                QDEC_IRQHandler
 .text.bearer_event_in_correct_irq_priority
                0x0002cc78       0x74 examples/enocean_switch/CMakeFiles/enocean_switch_nrf52832_xxAA_s132_6.1.1.dir/__/__/mesh/core/src/bearer_event.c.obj
                0x0002cc78                bearer_event_in_correct_irq_priority
 .text.sd_ecb_block_encrypt
                0x0002ccec        0x4 examples/enocean_switch/CMakeFiles/enocean_switch_nrf52832_xxAA_s132_6.1.1.dir/__/__/mesh/core/src/enc.c.obj
 .text.enc_aes_encrypt
                0x0002ccf0       0x32 examples/enocean_switch/CMakeFiles/enocean_switch_nrf52832_xxAA_s132_6.1.1.dir/__/__/mesh/core/src/enc.c.obj
                0x0002ccf0                enc_aes_encrypt
 .text.enc_aes_cmac
                0x0002cd22        0x4 examples/enocean_switch/CMakeFiles/enocean_switch_nrf52832_xxAA_s132_6.1.1.dir/__/__/mesh/core/src/enc.c.obj
                0x0002cd22                enc_aes_cmac
 .text.enc_aes_ccm_encrypt
                0x0002cd26        0x4 examples/enocean_switch/CMakeFiles/enocean_switch_nrf52832_xxAA_s132_6.1.1.dir/__/__/mesh/core/src/enc.c.obj
                0x0002cd26                enc_aes_ccm_encrypt
 .text.enc_aes_ccm_decrypt
                0x0002cd2a        0x4 examples/enocean_switch/CMakeFiles/enocean_switch_nrf52832_xxAA_s132_6.1.1.dir/__/__/mesh/core/src/enc.c.obj
                0x0002cd2a                enc_aes_ccm_decrypt
 .text.enc_nonce_generate
                0x0002cd2e       0xbc examples/enocean_switch/CMakeFiles/enocean_switch_nrf52832_xxAA_s132_6.1.1.dir/__/__/mesh/core/src/enc.c.obj
                0x0002cd2e                enc_nonce_generate
 .text.enc_s1   0x0002cdea       0x2c examples/enocean_switch/CMakeFiles/enocean_switch_nrf52832_xxAA_s132_6.1.1.dir/__/__/mesh/core/src/enc.c.obj
                0x0002cdea                enc_s1
 .text.enc_k1   0x0002ce16       0x3c examples/enocean_switch/CMakeFiles/enocean_switch_nrf52832_xxAA_s132_6.1.1.dir/__/__/mesh/core/src/enc.c.obj
                0x0002ce16                enc_k1
 *fill*         0x0002ce52        0x2 
 .text.enc_k2   0x0002ce54       0xc0 examples/enocean_switch/CMakeFiles/enocean_switch_nrf52832_xxAA_s132_6.1.1.dir/__/__/mesh/core/src/enc.c.obj
                0x0002ce54                enc_k2
 .text.enc_k3   0x0002cf14       0x5c examples/enocean_switch/CMakeFiles/enocean_switch_nrf52832_xxAA_s132_6.1.1.dir/__/__/mesh/core/src/enc.c.obj
                0x0002cf14                enc_k3
 .text.enc_k4   0x0002cf70       0x54 examples/enocean_switch/CMakeFiles/enocean_switch_nrf52832_xxAA_s132_6.1.1.dir/__/__/mesh/core/src/enc.c.obj
                0x0002cf70                enc_k4
 .text.allocate_packet
                0x0002cfc4       0x6e examples/enocean_switch/CMakeFiles/enocean_switch_nrf52832_xxAA_s132_6.1.1.dir/__/__/mesh/core/src/network.c.obj
 *fill*         0x0002d032        0x2 
 .text.network_init
                0x0002d034       0x24 examples/enocean_switch/CMakeFiles/enocean_switch_nrf52832_xxAA_s132_6.1.1.dir/__/__/mesh/core/src/network.c.obj
                0x0002d034                network_init
 .text.network_enable
                0x0002d058        0xe examples/enocean_switch/CMakeFiles/enocean_switch_nrf52832_xxAA_s132_6.1.1.dir/__/__/mesh/core/src/network.c.obj
                0x0002d058                network_enable
 .text.network_packet_alloc
                0x0002d066       0x42 examples/enocean_switch/CMakeFiles/enocean_switch_nrf52832_xxAA_s132_6.1.1.dir/__/__/mesh/core/src/network.c.obj
                0x0002d066                network_packet_alloc
 .text.network_packet_send
                0x0002d0a8       0xe0 examples/enocean_switch/CMakeFiles/enocean_switch_nrf52832_xxAA_s132_6.1.1.dir/__/__/mesh/core/src/network.c.obj
                0x0002d0a8                network_packet_send
 .text.network_packet_in
                0x0002d188      0x2dc examples/enocean_switch/CMakeFiles/enocean_switch_nrf52832_xxAA_s132_6.1.1.dir/__/__/mesh/core/src/network.c.obj
                0x0002d188                network_packet_in
 .text.nonce_type_get
                0x0002d464       0x16 examples/enocean_switch/CMakeFiles/enocean_switch_nrf52832_xxAA_s132_6.1.1.dir/__/__/mesh/core/src/net_packet.c.obj
 .text.header_transfuscate
                0x0002d47a       0x54 examples/enocean_switch/CMakeFiles/enocean_switch_nrf52832_xxAA_s132_6.1.1.dir/__/__/mesh/core/src/net_packet.c.obj
 *fill*         0x0002d4ce        0x2 
 .text.try_decrypt
                0x0002d4d0      0x18c examples/enocean_switch/CMakeFiles/enocean_switch_nrf52832_xxAA_s132_6.1.1.dir/__/__/mesh/core/src/net_packet.c.obj
 .text.net_packet_decrypt
                0x0002d65c       0x94 examples/enocean_switch/CMakeFiles/enocean_switch_nrf52832_xxAA_s132_6.1.1.dir/__/__/mesh/core/src/net_packet.c.obj
                0x0002d65c                net_packet_decrypt
 .text.net_packet_encrypt
                0x0002d6f0       0x7e examples/enocean_switch/CMakeFiles/enocean_switch_nrf52832_xxAA_s132_6.1.1.dir/__/__/mesh/core/src/net_packet.c.obj
                0x0002d6f0                net_packet_encrypt
 .text.net_packet_header_set
                0x0002d76e       0xaa examples/enocean_switch/CMakeFiles/enocean_switch_nrf52832_xxAA_s132_6.1.1.dir/__/__/mesh/core/src/net_packet.c.obj
                0x0002d76e                net_packet_header_set
 .text.net_packet_payload_len_get
                0x0002d818       0x10 examples/enocean_switch/CMakeFiles/enocean_switch_nrf52832_xxAA_s132_6.1.1.dir/__/__/mesh/core/src/net_packet.c.obj
                0x0002d818                net_packet_payload_len_get
 .text.net_packet_from_payload
                0x0002d828        0x4 examples/enocean_switch/CMakeFiles/enocean_switch_nrf52832_xxAA_s132_6.1.1.dir/__/__/mesh/core/src/net_packet.c.obj
                0x0002d828                net_packet_from_payload
 .text.net_packet_payload_get
                0x0002d82c        0x4 examples/enocean_switch/CMakeFiles/enocean_switch_nrf52832_xxAA_s132_6.1.1.dir/__/__/mesh/core/src/net_packet.c.obj
                0x0002d82c                net_packet_payload_get
 .text.net_packet_obfuscation_start_get
                0x0002d830        0x4 examples/enocean_switch/CMakeFiles/enocean_switch_nrf52832_xxAA_s132_6.1.1.dir/__/__/mesh/core/src/net_packet.c.obj
                0x0002d830                net_packet_obfuscation_start_get
 .text.stage_get_available
                0x0002d834       0x24 examples/enocean_switch/CMakeFiles/enocean_switch_nrf52832_xxAA_s132_6.1.1.dir/__/__/mesh/core/src/msqueue.c.obj
 .text.msq_get  0x0002d858       0x38 examples/enocean_switch/CMakeFiles/enocean_switch_nrf52832_xxAA_s132_6.1.1.dir/__/__/mesh/core/src/msqueue.c.obj
                0x0002d858                msq_get
 .text.msq_move
                0x0002d890       0x2e examples/enocean_switch/CMakeFiles/enocean_switch_nrf52832_xxAA_s132_6.1.1.dir/__/__/mesh/core/src/msqueue.c.obj
                0x0002d890                msq_move
 .text.msq_reset
                0x0002d8be       0x20 examples/enocean_switch/CMakeFiles/enocean_switch_nrf52832_xxAA_s132_6.1.1.dir/__/__/mesh/core/src/msqueue.c.obj
                0x0002d8be                msq_reset
 .text.msq_init
                0x0002d8de       0x48 examples/enocean_switch/CMakeFiles/enocean_switch_nrf52832_xxAA_s132_6.1.1.dir/__/__/mesh/core/src/msqueue.c.obj
                0x0002d8de                msq_init
 .text.msq_available
                0x0002d926       0x26 examples/enocean_switch/CMakeFiles/enocean_switch_nrf52832_xxAA_s132_6.1.1.dir/__/__/mesh/core/src/msqueue.c.obj
                0x0002d926                msq_available
 .text.nrf_mesh_keygen_aid
                0x0002d94c       0x12 examples/enocean_switch/CMakeFiles/enocean_switch_nrf52832_xxAA_s132_6.1.1.dir/__/__/mesh/core/src/nrf_mesh_keygen.c.obj
                0x0002d94c                nrf_mesh_keygen_aid
 .text.nrf_mesh_keygen_network_secmat
                0x0002d95e       0x20 examples/enocean_switch/CMakeFiles/enocean_switch_nrf52832_xxAA_s132_6.1.1.dir/__/__/mesh/core/src/nrf_mesh_keygen.c.obj
                0x0002d95e                nrf_mesh_keygen_network_secmat
 *fill*         0x0002d97e        0x2 
 .text.nrf_mesh_keygen_beacon_secmat
                0x0002d980       0x50 examples/enocean_switch/CMakeFiles/enocean_switch_nrf52832_xxAA_s132_6.1.1.dir/__/__/mesh/core/src/nrf_mesh_keygen.c.obj
                0x0002d980                nrf_mesh_keygen_beacon_secmat
 .text.nrf_mesh_keygen_identitykey
                0x0002d9d0       0x4c examples/enocean_switch/CMakeFiles/enocean_switch_nrf52832_xxAA_s132_6.1.1.dir/__/__/mesh/core/src/nrf_mesh_keygen.c.obj
                0x0002d9d0                nrf_mesh_keygen_identitykey
 .text.nrf_mesh_keygen_virtual_address
                0x0002da1c       0x50 examples/enocean_switch/CMakeFiles/enocean_switch_nrf52832_xxAA_s132_6.1.1.dir/__/__/mesh/core/src/nrf_mesh_keygen.c.obj
                0x0002da1c                nrf_mesh_keygen_virtual_address
 .text.erase_at
                0x0002da6c       0x14 examples/enocean_switch/CMakeFiles/enocean_switch_nrf52832_xxAA_s132_6.1.1.dir/__/__/mesh/core/src/cache.c.obj
 .text.cache_init
                0x0002da80       0x1e examples/enocean_switch/CMakeFiles/enocean_switch_nrf52832_xxAA_s132_6.1.1.dir/__/__/mesh/core/src/cache.c.obj
                0x0002da80                cache_init
 .text.cache_has_elem
                0x0002da9e       0x40 examples/enocean_switch/CMakeFiles/enocean_switch_nrf52832_xxAA_s132_6.1.1.dir/__/__/mesh/core/src/cache.c.obj
                0x0002da9e                cache_has_elem
 .text.cache_put
                0x0002dade       0x30 examples/enocean_switch/CMakeFiles/enocean_switch_nrf52832_xxAA_s132_6.1.1.dir/__/__/mesh/core/src/cache.c.obj
                0x0002dade                cache_put
 .text.list_insert
                0x0002db0e       0x1c examples/enocean_switch/CMakeFiles/enocean_switch_nrf52832_xxAA_s132_6.1.1.dir/__/__/mesh/core/src/list.c.obj
 .text.list_add
                0x0002db2a       0x42 examples/enocean_switch/CMakeFiles/enocean_switch_nrf52832_xxAA_s132_6.1.1.dir/__/__/mesh/core/src/list.c.obj
                0x0002db2a                list_add
 .text.list_remove
                0x0002db6c       0x3a examples/enocean_switch/CMakeFiles/enocean_switch_nrf52832_xxAA_s132_6.1.1.dir/__/__/mesh/core/src/list.c.obj
                0x0002db6c                list_remove
 .text.list_compare_add
                0x0002dba6       0x56 examples/enocean_switch/CMakeFiles/enocean_switch_nrf52832_xxAA_s132_6.1.1.dir/__/__/mesh/core/src/list.c.obj
                0x0002dba6                list_compare_add
 .text.log_callback_rtt
                0x0002dbfc       0x2c examples/enocean_switch/CMakeFiles/enocean_switch_nrf52832_xxAA_s132_6.1.1.dir/__/__/mesh/core/src/log.c.obj
                0x0002dbfc                log_callback_rtt
 .text.log_init
                0x0002dc28       0x1c examples/enocean_switch/CMakeFiles/enocean_switch_nrf52832_xxAA_s132_6.1.1.dir/__/__/mesh/core/src/log.c.obj
                0x0002dc28                log_init
 .text.log_vprintf
                0x0002dc44       0x1c examples/enocean_switch/CMakeFiles/enocean_switch_nrf52832_xxAA_s132_6.1.1.dir/__/__/mesh/core/src/log.c.obj
                0x0002dc44                log_vprintf
 .text.log_printf
                0x0002dc60       0x18 examples/enocean_switch/CMakeFiles/enocean_switch_nrf52832_xxAA_s132_6.1.1.dir/__/__/mesh/core/src/log.c.obj
                0x0002dc60                log_printf
 .text.get_area_end
                0x0002dc78        0xc examples/enocean_switch/CMakeFiles/enocean_switch_nrf52832_xxAA_s132_6.1.1.dir/__/__/mesh/core/src/flash_manager.c.obj
 .text.handle_matches_filter
                0x0002dc84       0x26 examples/enocean_switch/CMakeFiles/enocean_switch_nrf52832_xxAA_s132_6.1.1.dir/__/__/mesh/core/src/flash_manager.c.obj
 .text.flash_area_is_blank
                0x0002dcaa       0x2c examples/enocean_switch/CMakeFiles/enocean_switch_nrf52832_xxAA_s132_6.1.1.dir/__/__/mesh/core/src/flash_manager.c.obj
 *fill*         0x0002dcd6        0x2 
 .text.get_packet_buffer
                0x0002dcd8       0x20 examples/enocean_switch/CMakeFiles/enocean_switch_nrf52832_xxAA_s132_6.1.1.dir/__/__/mesh/core/src/flash_manager.c.obj
 .text.flash    0x0002dcf8       0x1c examples/enocean_switch/CMakeFiles/enocean_switch_nrf52832_xxAA_s132_6.1.1.dir/__/__/mesh/core/src/flash_manager.c.obj
 .text.free_packet_buffer
                0x0002dd14       0x3c examples/enocean_switch/CMakeFiles/enocean_switch_nrf52832_xxAA_s132_6.1.1.dir/__/__/mesh/core/src/flash_manager.c.obj
 .text.iterate_callback_entry_copy
                0x0002dd50       0x38 examples/enocean_switch/CMakeFiles/enocean_switch_nrf52832_xxAA_s132_6.1.1.dir/__/__/mesh/core/src/flash_manager.c.obj
 .text.reserve_action_buffer
                0x0002dd88       0x24 examples/enocean_switch/CMakeFiles/enocean_switch_nrf52832_xxAA_s132_6.1.1.dir/__/__/mesh/core/src/flash_manager.c.obj
 .text.commit_action_buffer
                0x0002ddac       0x18 examples/enocean_switch/CMakeFiles/enocean_switch_nrf52832_xxAA_s132_6.1.1.dir/__/__/mesh/core/src/flash_manager.c.obj
 .text.schedule_processing
                0x0002ddc4        0xc examples/enocean_switch/CMakeFiles/enocean_switch_nrf52832_xxAA_s132_6.1.1.dir/__/__/mesh/core/src/flash_manager.c.obj
 .text.get_next_entry
                0x0002ddd0       0x34 examples/enocean_switch/CMakeFiles/enocean_switch_nrf52832_xxAA_s132_6.1.1.dir/__/__/mesh/core/src/flash_manager.c.obj
 .text.get_last_entry.isra.1
                0x0002de04       0x30 examples/enocean_switch/CMakeFiles/enocean_switch_nrf52832_xxAA_s132_6.1.1.dir/__/__/mesh/core/src/flash_manager.c.obj
 .text.process_action_queue
                0x0002de34      0x3fc examples/enocean_switch/CMakeFiles/enocean_switch_nrf52832_xxAA_s132_6.1.1.dir/__/__/mesh/core/src/flash_manager.c.obj
 .text.flash_op_ended_callback
                0x0002e230       0x24 examples/enocean_switch/CMakeFiles/enocean_switch_nrf52832_xxAA_s132_6.1.1.dir/__/__/mesh/core/src/flash_manager.c.obj
 .text.flash_manager_init
                0x0002e254       0x68 examples/enocean_switch/CMakeFiles/enocean_switch_nrf52832_xxAA_s132_6.1.1.dir/__/__/mesh/core/src/flash_manager.c.obj
                0x0002e254                flash_manager_init
 .text.flash_manager_remove
                0x0002e2bc       0x24 examples/enocean_switch/CMakeFiles/enocean_switch_nrf52832_xxAA_s132_6.1.1.dir/__/__/mesh/core/src/flash_manager.c.obj
                0x0002e2bc                flash_manager_remove
 .text.flash_manager_entries_read
                0x0002e2e0       0xea examples/enocean_switch/CMakeFiles/enocean_switch_nrf52832_xxAA_s132_6.1.1.dir/__/__/mesh/core/src/flash_manager.c.obj
                0x0002e2e0                flash_manager_entries_read
 *fill*         0x0002e3ca        0x2 
 .text.flash_manager_entry_read
                0x0002e3cc       0x50 examples/enocean_switch/CMakeFiles/enocean_switch_nrf52832_xxAA_s132_6.1.1.dir/__/__/mesh/core/src/flash_manager.c.obj
                0x0002e3cc                flash_manager_entry_read
 .text.flash_manager_entry_count_get
                0x0002e41c       0x1e examples/enocean_switch/CMakeFiles/enocean_switch_nrf52832_xxAA_s132_6.1.1.dir/__/__/mesh/core/src/flash_manager.c.obj
                0x0002e41c                flash_manager_entry_count_get
 .text.flash_manager_entry_alloc
                0x0002e43a       0x5c examples/enocean_switch/CMakeFiles/enocean_switch_nrf52832_xxAA_s132_6.1.1.dir/__/__/mesh/core/src/flash_manager.c.obj
                0x0002e43a                flash_manager_entry_alloc
 *fill*         0x0002e496        0x2 
 .text.flash_manager_entry_commit
                0x0002e498       0x2c examples/enocean_switch/CMakeFiles/enocean_switch_nrf52832_xxAA_s132_6.1.1.dir/__/__/mesh/core/src/flash_manager.c.obj
                0x0002e498                flash_manager_entry_commit
 .text.flash_manager_entry_invalidate
                0x0002e4c4       0x4e examples/enocean_switch/CMakeFiles/enocean_switch_nrf52832_xxAA_s132_6.1.1.dir/__/__/mesh/core/src/flash_manager.c.obj
                0x0002e4c4                flash_manager_entry_invalidate
 *fill*         0x0002e512        0x2 
 .text.flash_manager_add
                0x0002e514      0x220 examples/enocean_switch/CMakeFiles/enocean_switch_nrf52832_xxAA_s132_6.1.1.dir/__/__/mesh/core/src/flash_manager.c.obj
                0x0002e514                flash_manager_add
 .text.flash_manager_mem_listener_register
                0x0002e734       0x30 examples/enocean_switch/CMakeFiles/enocean_switch_nrf52832_xxAA_s132_6.1.1.dir/__/__/mesh/core/src/flash_manager.c.obj
                0x0002e734                flash_manager_mem_listener_register
 .text.flash_manager_is_stable
                0x0002e764       0x20 examples/enocean_switch/CMakeFiles/enocean_switch_nrf52832_xxAA_s132_6.1.1.dir/__/__/mesh/core/src/flash_manager.c.obj
                0x0002e764                flash_manager_is_stable
 .text.flash_manager_on_defrag_end
                0x0002e784       0x4c examples/enocean_switch/CMakeFiles/enocean_switch_nrf52832_xxAA_s132_6.1.1.dir/__/__/mesh/core/src/flash_manager.c.obj
                0x0002e784                flash_manager_on_defrag_end
 .text.flash_manager_recovery_page_get
                0x0002e7d0        0x4 examples/enocean_switch/CMakeFiles/enocean_switch_nrf52832_xxAA_s132_6.1.1.dir/__/__/mesh/core/src/flash_manager.c.obj
                0x0002e7d0                flash_manager_recovery_page_get
 .text.flash_manager_action_queue_empty_cb_set
                0x0002e7d4       0x1c examples/enocean_switch/CMakeFiles/enocean_switch_nrf52832_xxAA_s132_6.1.1.dir/__/__/mesh/core/src/flash_manager.c.obj
                0x0002e7d4                flash_manager_action_queue_empty_cb_set
 .text.utils_xor
                0x0002e7f0       0x14 examples/enocean_switch/CMakeFiles/enocean_switch_nrf52832_xxAA_s132_6.1.1.dir/__/__/mesh/core/src/ccm_soft.c.obj
 .text.sd_ecb_block_encrypt
                0x0002e804        0x4 examples/enocean_switch/CMakeFiles/enocean_switch_nrf52832_xxAA_s132_6.1.1.dir/__/__/mesh/core/src/ccm_soft.c.obj
 .text.ccm_soft_crypt
                0x0002e808       0x4c examples/enocean_switch/CMakeFiles/enocean_switch_nrf52832_xxAA_s132_6.1.1.dir/__/__/mesh/core/src/ccm_soft.c.obj
 .text.ccm_soft_authenticate_blocks
                0x0002e854       0x6c examples/enocean_switch/CMakeFiles/enocean_switch_nrf52832_xxAA_s132_6.1.1.dir/__/__/mesh/core/src/ccm_soft.c.obj
 .text.ccm_soft_authenticate
                0x0002e8c0       0x94 examples/enocean_switch/CMakeFiles/enocean_switch_nrf52832_xxAA_s132_6.1.1.dir/__/__/mesh/core/src/ccm_soft.c.obj
 .text.ccm_soft_encrypt
                0x0002e954       0x54 examples/enocean_switch/CMakeFiles/enocean_switch_nrf52832_xxAA_s132_6.1.1.dir/__/__/mesh/core/src/ccm_soft.c.obj
                0x0002e954                ccm_soft_encrypt
 .text.ccm_soft_decrypt
                0x0002e9a8       0x9c examples/enocean_switch/CMakeFiles/enocean_switch_nrf52832_xxAA_s132_6.1.1.dir/__/__/mesh/core/src/ccm_soft.c.obj
                0x0002e9a8                ccm_soft_decrypt
 .text.iv_index_get.isra.0
                0x0002ea44       0x34 examples/enocean_switch/CMakeFiles/enocean_switch_nrf52832_xxAA_s132_6.1.1.dir/__/__/mesh/core/src/replay_cache.c.obj
 .text.evt_handler
                0x0002ea78       0x60 examples/enocean_switch/CMakeFiles/enocean_switch_nrf52832_xxAA_s132_6.1.1.dir/__/__/mesh/core/src/replay_cache.c.obj
 .text.replay_cache_enable
                0x0002ead8       0x10 examples/enocean_switch/CMakeFiles/enocean_switch_nrf52832_xxAA_s132_6.1.1.dir/__/__/mesh/core/src/replay_cache.c.obj
                0x0002ead8                replay_cache_enable
 .text.replay_cache_add
                0x0002eae8       0x78 examples/enocean_switch/CMakeFiles/enocean_switch_nrf52832_xxAA_s132_6.1.1.dir/__/__/mesh/core/src/replay_cache.c.obj
                0x0002eae8                replay_cache_add
 .text.replay_cache_has_elem
                0x0002eb60       0x50 examples/enocean_switch/CMakeFiles/enocean_switch_nrf52832_xxAA_s132_6.1.1.dir/__/__/mesh/core/src/replay_cache.c.obj
                0x0002eb60                replay_cache_has_elem
 .text.replay_cache_clear
                0x0002ebb0       0x18 examples/enocean_switch/CMakeFiles/enocean_switch_nrf52832_xxAA_s132_6.1.1.dir/__/__/mesh/core/src/replay_cache.c.obj
                0x0002ebb0                replay_cache_clear
 .text.replay_cache_init
                0x0002ebc8       0x14 examples/enocean_switch/CMakeFiles/enocean_switch_nrf52832_xxAA_s132_6.1.1.dir/__/__/mesh/core/src/replay_cache.c.obj
                0x0002ebc8                replay_cache_init
 .text.beacon_create
                0x0002ebdc       0x46 examples/enocean_switch/CMakeFiles/enocean_switch_nrf52832_xxAA_s132_6.1.1.dir/__/__/mesh/core/src/beacon.c.obj
                0x0002ebdc                beacon_create
 *fill*         0x0002ec22        0x2 
 .text.beacon_packet_in
                0x0002ec24      0x130 examples/enocean_switch/CMakeFiles/enocean_switch_nrf52832_xxAA_s132_6.1.1.dir/__/__/mesh/core/src/beacon.c.obj
                0x0002ec24                beacon_packet_in
 .text.entry_get
                0x0002ed54       0x78 examples/enocean_switch/CMakeFiles/enocean_switch_nrf52832_xxAA_s132_6.1.1.dir/__/__/mesh/core/src/flash_manager_internal.c.obj
                0x0002ed54                entry_get
 .text.core_tx_complete_cb_set
                0x0002edcc        0xc examples/enocean_switch/CMakeFiles/enocean_switch_nrf52832_xxAA_s132_6.1.1.dir/__/__/mesh/core/src/core_tx.c.obj
                0x0002edcc                core_tx_complete_cb_set
 .text.core_tx_packet_alloc
                0x0002edd8       0xac examples/enocean_switch/CMakeFiles/enocean_switch_nrf52832_xxAA_s132_6.1.1.dir/__/__/mesh/core/src/core_tx.c.obj
                0x0002edd8                core_tx_packet_alloc
 .text.core_tx_packet_send
                0x0002ee84       0x4c examples/enocean_switch/CMakeFiles/enocean_switch_nrf52832_xxAA_s132_6.1.1.dir/__/__/mesh/core/src/core_tx.c.obj
                0x0002ee84                core_tx_packet_send
 .text.core_tx_packet_discard
                0x0002eed0       0x40 examples/enocean_switch/CMakeFiles/enocean_switch_nrf52832_xxAA_s132_6.1.1.dir/__/__/mesh/core/src/core_tx.c.obj
                0x0002eed0                core_tx_packet_discard
 .text.core_tx_complete
                0x0002ef10       0x34 examples/enocean_switch/CMakeFiles/enocean_switch_nrf52832_xxAA_s132_6.1.1.dir/__/__/mesh/core/src/core_tx.c.obj
                0x0002ef10                core_tx_complete
 .text.core_tx_bearer_add
                0x0002ef44       0x74 examples/enocean_switch/CMakeFiles/enocean_switch_nrf52832_xxAA_s132_6.1.1.dir/__/__/mesh/core/src/core_tx.c.obj
                0x0002ef44                core_tx_bearer_add
 .text.hb_pub_deleter
                0x0002efb8       0x28 examples/enocean_switch/CMakeFiles/enocean_switch_nrf52832_xxAA_s132_6.1.1.dir/__/__/mesh/core/src/heartbeat.c.obj
 .text.hb_pub_getter
                0x0002efe0       0x2c examples/enocean_switch/CMakeFiles/enocean_switch_nrf52832_xxAA_s132_6.1.1.dir/__/__/mesh/core/src/heartbeat.c.obj
 .text.hb_pub_setter
                0x0002f00c       0xd0 examples/enocean_switch/CMakeFiles/enocean_switch_nrf52832_xxAA_s132_6.1.1.dir/__/__/mesh/core/src/heartbeat.c.obj
 .text.heartbeat_subscription_timer_cb
                0x0002f0dc       0x3c examples/enocean_switch/CMakeFiles/enocean_switch_nrf52832_xxAA_s132_6.1.1.dir/__/__/mesh/core/src/heartbeat.c.obj
 .text.heartbeat_opcode_handle
                0x0002f118       0x88 examples/enocean_switch/CMakeFiles/enocean_switch_nrf52832_xxAA_s132_6.1.1.dir/__/__/mesh/core/src/heartbeat.c.obj
 .text.heartbeat_publish
                0x0002f1a0       0xb8 examples/enocean_switch/CMakeFiles/enocean_switch_nrf52832_xxAA_s132_6.1.1.dir/__/__/mesh/core/src/heartbeat.c.obj
 .text.on_feature_update
                0x0002f258       0x34 examples/enocean_switch/CMakeFiles/enocean_switch_nrf52832_xxAA_s132_6.1.1.dir/__/__/mesh/core/src/heartbeat.c.obj
 .text.heartbeat_relay_listener_cb
                0x0002f28c       0x1c examples/enocean_switch/CMakeFiles/enocean_switch_nrf52832_xxAA_s132_6.1.1.dir/__/__/mesh/core/src/heartbeat.c.obj
 .text.heartbeat_proxy_listener_cb
                0x0002f2a8       0x14 examples/enocean_switch/CMakeFiles/enocean_switch_nrf52832_xxAA_s132_6.1.1.dir/__/__/mesh/core/src/heartbeat.c.obj
 .text.heartbeat_core_evt_cb
                0x0002f2bc       0x18 examples/enocean_switch/CMakeFiles/enocean_switch_nrf52832_xxAA_s132_6.1.1.dir/__/__/mesh/core/src/heartbeat.c.obj
 .text.heartbeat_publication_timer_cb
                0x0002f2d4       0x54 examples/enocean_switch/CMakeFiles/enocean_switch_nrf52832_xxAA_s132_6.1.1.dir/__/__/mesh/core/src/heartbeat.c.obj
 .text.heartbeat_init
                0x0002f328       0x58 examples/enocean_switch/CMakeFiles/enocean_switch_nrf52832_xxAA_s132_6.1.1.dir/__/__/mesh/core/src/heartbeat.c.obj
                0x0002f328                heartbeat_init
 .text.heartbeat_subscription_set
                0x0002f380       0xd0 examples/enocean_switch/CMakeFiles/enocean_switch_nrf52832_xxAA_s132_6.1.1.dir/__/__/mesh/core/src/heartbeat.c.obj
                0x0002f380                heartbeat_subscription_set
 .text.heartbeat_subscription_get
                0x0002f450        0x8 examples/enocean_switch/CMakeFiles/enocean_switch_nrf52832_xxAA_s132_6.1.1.dir/__/__/mesh/core/src/heartbeat.c.obj
                0x0002f450                heartbeat_subscription_get
 .text.heartbeat_publication_get
                0x0002f458        0x8 examples/enocean_switch/CMakeFiles/enocean_switch_nrf52832_xxAA_s132_6.1.1.dir/__/__/mesh/core/src/heartbeat.c.obj
                0x0002f458                heartbeat_publication_get
 .text.heartbeat_publication_set
                0x0002f460       0x18 examples/enocean_switch/CMakeFiles/enocean_switch_nrf52832_xxAA_s132_6.1.1.dir/__/__/mesh/core/src/heartbeat.c.obj
                0x0002f460                heartbeat_publication_set
 .text.heartbeat_public_info_getter_register
                0x0002f478       0x14 examples/enocean_switch/CMakeFiles/enocean_switch_nrf52832_xxAA_s132_6.1.1.dir/__/__/mesh/core/src/heartbeat.c.obj
                0x0002f478                heartbeat_public_info_getter_register
 .text.beacon_deleter
                0x0002f48c       0x34 examples/enocean_switch/CMakeFiles/enocean_switch_nrf52832_xxAA_s132_6.1.1.dir/__/__/mesh/core/src/net_beacon.c.obj
 .text.beacon_getter
                0x0002f4c0       0x24 examples/enocean_switch/CMakeFiles/enocean_switch_nrf52832_xxAA_s132_6.1.1.dir/__/__/mesh/core/src/net_beacon.c.obj
 .text.beacon_setter
                0x0002f4e4       0x5c examples/enocean_switch/CMakeFiles/enocean_switch_nrf52832_xxAA_s132_6.1.1.dir/__/__/mesh/core/src/net_beacon.c.obj
 .text.make_network_beacon_packet
                0x0002f540       0x50 examples/enocean_switch/CMakeFiles/enocean_switch_nrf52832_xxAA_s132_6.1.1.dir/__/__/mesh/core/src/net_beacon.c.obj
 .text.beacon_tx
                0x0002f590      0x188 examples/enocean_switch/CMakeFiles/enocean_switch_nrf52832_xxAA_s132_6.1.1.dir/__/__/mesh/core/src/net_beacon.c.obj
 .text.tx_complete_cb
                0x0002f718        0xe examples/enocean_switch/CMakeFiles/enocean_switch_nrf52832_xxAA_s132_6.1.1.dir/__/__/mesh/core/src/net_beacon.c.obj
 .text.beacon_tx_timeout
                0x0002f726        0x4 examples/enocean_switch/CMakeFiles/enocean_switch_nrf52832_xxAA_s132_6.1.1.dir/__/__/mesh/core/src/net_beacon.c.obj
 .text.is_valid_beacon_pkt.part.1
                0x0002f72a       0x30 examples/enocean_switch/CMakeFiles/enocean_switch_nrf52832_xxAA_s132_6.1.1.dir/__/__/mesh/core/src/net_beacon.c.obj
 *fill*         0x0002f75a        0x2 
 .text.net_beacon_init
                0x0002f75c       0x7c examples/enocean_switch/CMakeFiles/enocean_switch_nrf52832_xxAA_s132_6.1.1.dir/__/__/mesh/core/src/net_beacon.c.obj
                0x0002f75c                net_beacon_init
 .text.net_beacon_enable
                0x0002f7d8       0x28 examples/enocean_switch/CMakeFiles/enocean_switch_nrf52832_xxAA_s132_6.1.1.dir/__/__/mesh/core/src/net_beacon.c.obj
                0x0002f7d8                net_beacon_enable
 .text.net_beacon_state_set
                0x0002f800       0x20 examples/enocean_switch/CMakeFiles/enocean_switch_nrf52832_xxAA_s132_6.1.1.dir/__/__/mesh/core/src/net_beacon.c.obj
                0x0002f800                net_beacon_state_set
 .text.net_beacon_state_get
                0x0002f820       0x24 examples/enocean_switch/CMakeFiles/enocean_switch_nrf52832_xxAA_s132_6.1.1.dir/__/__/mesh/core/src/net_beacon.c.obj
                0x0002f820                net_beacon_state_get
 .text.net_beacon_build
                0x0002f844       0x24 examples/enocean_switch/CMakeFiles/enocean_switch_nrf52832_xxAA_s132_6.1.1.dir/__/__/mesh/core/src/net_beacon.c.obj
                0x0002f844                net_beacon_build
 .text.net_beacon_packet_in
                0x0002f868      0x16c examples/enocean_switch/CMakeFiles/enocean_switch_nrf52832_xxAA_s132_6.1.1.dir/__/__/mesh/core/src/net_beacon.c.obj
                0x0002f868                net_beacon_packet_in
 .text.listeners_notify
                0x0002f9d4       0x4c examples/enocean_switch/CMakeFiles/enocean_switch_nrf52832_xxAA_s132_6.1.1.dir/__/__/mesh/core/src/mesh_config.c.obj
 .text.entry_flags_get.isra.0
                0x0002fa20       0x1c examples/enocean_switch/CMakeFiles/enocean_switch_nrf52832_xxAA_s132_6.1.1.dir/__/__/mesh/core/src/mesh_config.c.obj
 .text.entry_params_find
                0x0002fa3c       0x38 examples/enocean_switch/CMakeFiles/enocean_switch_nrf52832_xxAA_s132_6.1.1.dir/__/__/mesh/core/src/mesh_config.c.obj
 .text.restore_callback
                0x0002fa74       0x66 examples/enocean_switch/CMakeFiles/enocean_switch_nrf52832_xxAA_s132_6.1.1.dir/__/__/mesh/core/src/mesh_config.c.obj
 *fill*         0x0002fada        0x2 
 .text.dirty_entries_process
                0x0002fadc       0xdc examples/enocean_switch/CMakeFiles/enocean_switch_nrf52832_xxAA_s132_6.1.1.dir/__/__/mesh/core/src/mesh_config.c.obj
 .text.mesh_config_init
                0x0002fbb8       0xa0 examples/enocean_switch/CMakeFiles/enocean_switch_nrf52832_xxAA_s132_6.1.1.dir/__/__/mesh/core/src/mesh_config.c.obj
                0x0002fbb8                mesh_config_init
 .text.mesh_config_load
                0x0002fc58        0xc examples/enocean_switch/CMakeFiles/enocean_switch_nrf52832_xxAA_s132_6.1.1.dir/__/__/mesh/core/src/mesh_config.c.obj
                0x0002fc58                mesh_config_load
 .text.mesh_config_is_busy
                0x0002fc64       0x34 examples/enocean_switch/CMakeFiles/enocean_switch_nrf52832_xxAA_s132_6.1.1.dir/__/__/mesh/core/src/mesh_config.c.obj
                0x0002fc64                mesh_config_is_busy
 .text.backend_evt_handler
                0x0002fc98       0x88 examples/enocean_switch/CMakeFiles/enocean_switch_nrf52832_xxAA_s132_6.1.1.dir/__/__/mesh/core/src/mesh_config.c.obj
 .text.mesh_config_entry_set
                0x0002fd20       0x80 examples/enocean_switch/CMakeFiles/enocean_switch_nrf52832_xxAA_s132_6.1.1.dir/__/__/mesh/core/src/mesh_config.c.obj
                0x0002fd20                mesh_config_entry_set
 .text.mesh_config_entry_get
                0x0002fda0       0x3c examples/enocean_switch/CMakeFiles/enocean_switch_nrf52832_xxAA_s132_6.1.1.dir/__/__/mesh/core/src/mesh_config.c.obj
                0x0002fda0                mesh_config_entry_get
 .text.mesh_config_entry_delete
                0x0002fddc       0x4a examples/enocean_switch/CMakeFiles/enocean_switch_nrf52832_xxAA_s132_6.1.1.dir/__/__/mesh/core/src/mesh_config.c.obj
                0x0002fddc                mesh_config_entry_delete
 *fill*         0x0002fe26        0x2 
 .text.mesh_config_clear
                0x0002fe28       0x4c examples/enocean_switch/CMakeFiles/enocean_switch_nrf52832_xxAA_s132_6.1.1.dir/__/__/mesh/core/src/mesh_config.c.obj
                0x0002fe28                mesh_config_clear
 .text.fsm_event_post_try
                0x0002fe74       0xaa examples/enocean_switch/CMakeFiles/enocean_switch_nrf52832_xxAA_s132_6.1.1.dir/__/__/mesh/core/src/fsm.c.obj
 .text.fsm_init
                0x0002ff1e       0x66 examples/enocean_switch/CMakeFiles/enocean_switch_nrf52832_xxAA_s132_6.1.1.dir/__/__/mesh/core/src/fsm.c.obj
                0x0002ff1e                fsm_init
 .text.fsm_event_post
                0x0002ff84       0x40 examples/enocean_switch/CMakeFiles/enocean_switch_nrf52832_xxAA_s132_6.1.1.dir/__/__/mesh/core/src/fsm.c.obj
                0x0002ff84                fsm_event_post
 .text.fsm_is_processing
                0x0002ffc4        0xa examples/enocean_switch/CMakeFiles/enocean_switch_nrf52832_xxAA_s132_6.1.1.dir/__/__/mesh/core/src/fsm.c.obj
                0x0002ffc4                fsm_is_processing
 .text.dummy_event
                0x0002ffce        0x2 examples/enocean_switch/CMakeFiles/enocean_switch_nrf52832_xxAA_s132_6.1.1.dir/__/__/mesh/core/src/mesh_config_backend.c.obj
 .text.file_get
                0x0002ffd0       0x34 examples/enocean_switch/CMakeFiles/enocean_switch_nrf52832_xxAA_s132_6.1.1.dir/__/__/mesh/core/src/mesh_config_backend.c.obj
 .text.mesh_config_backend_init
                0x00030004      0x11c examples/enocean_switch/CMakeFiles/enocean_switch_nrf52832_xxAA_s132_6.1.1.dir/__/__/mesh/core/src/mesh_config_backend.c.obj
                0x00030004                mesh_config_backend_init
 .text.mesh_config_backend_store
                0x00030120       0x4e examples/enocean_switch/CMakeFiles/enocean_switch_nrf52832_xxAA_s132_6.1.1.dir/__/__/mesh/core/src/mesh_config_backend.c.obj
                0x00030120                mesh_config_backend_store
 .text.mesh_config_backend_erase
                0x0003016e       0x34 examples/enocean_switch/CMakeFiles/enocean_switch_nrf52832_xxAA_s132_6.1.1.dir/__/__/mesh/core/src/mesh_config_backend.c.obj
                0x0003016e                mesh_config_backend_erase
 *fill*         0x000301a2        0x2 
 .text.mesh_config_backend_read_all
                0x000301a4       0x38 examples/enocean_switch/CMakeFiles/enocean_switch_nrf52832_xxAA_s132_6.1.1.dir/__/__/mesh/core/src/mesh_config_backend.c.obj
                0x000301a4                mesh_config_backend_read_all
 .text.entry_read_cb
                0x000301dc       0x38 examples/enocean_switch/CMakeFiles/enocean_switch_nrf52832_xxAA_s132_6.1.1.dir/__/__/mesh/core/src/mesh_config_flashman_glue.c.obj
 .text.write_complete_cb
                0x00030214       0x30 examples/enocean_switch/CMakeFiles/enocean_switch_nrf52832_xxAA_s132_6.1.1.dir/__/__/mesh/core/src/mesh_config_flashman_glue.c.obj
 .text.invalidate_complete_cb
                0x00030244       0x2c examples/enocean_switch/CMakeFiles/enocean_switch_nrf52832_xxAA_s132_6.1.1.dir/__/__/mesh/core/src/mesh_config_flashman_glue.c.obj
 .text.remove_complete_cb
                0x00030270        0x2 examples/enocean_switch/CMakeFiles/enocean_switch_nrf52832_xxAA_s132_6.1.1.dir/__/__/mesh/core/src/mesh_config_flashman_glue.c.obj
 .text.flash_stable_cb
                0x00030272       0x20 examples/enocean_switch/CMakeFiles/enocean_switch_nrf52832_xxAA_s132_6.1.1.dir/__/__/mesh/core/src/mesh_config_flashman_glue.c.obj
 *fill*         0x00030292        0x2 
 .text.mesh_config_backend_glue_init
                0x00030294       0x28 examples/enocean_switch/CMakeFiles/enocean_switch_nrf52832_xxAA_s132_6.1.1.dir/__/__/mesh/core/src/mesh_config_flashman_glue.c.obj
                0x00030294                mesh_config_backend_glue_init
 .text.mesh_config_backend_file_create
                0x000302bc       0x58 examples/enocean_switch/CMakeFiles/enocean_switch_nrf52832_xxAA_s132_6.1.1.dir/__/__/mesh/core/src/mesh_config_flashman_glue.c.obj
                0x000302bc                mesh_config_backend_file_create
 .text.mesh_config_backend_record_write
                0x00030314       0x2c examples/enocean_switch/CMakeFiles/enocean_switch_nrf52832_xxAA_s132_6.1.1.dir/__/__/mesh/core/src/mesh_config_flashman_glue.c.obj
                0x00030314                mesh_config_backend_record_write
 .text.mesh_config_backend_record_erase
                0x00030340       0x30 examples/enocean_switch/CMakeFiles/enocean_switch_nrf52832_xxAA_s132_6.1.1.dir/__/__/mesh/core/src/mesh_config_flashman_glue.c.obj
                0x00030340                mesh_config_backend_record_erase
 .text.mesh_config_backend_records_read
                0x00030370       0x30 examples/enocean_switch/CMakeFiles/enocean_switch_nrf52832_xxAA_s132_6.1.1.dir/__/__/mesh/core/src/mesh_config_flashman_glue.c.obj
                0x00030370                mesh_config_backend_records_read
 .text.mesh_config_record_size_calculate
                0x000303a0        0xa examples/enocean_switch/CMakeFiles/enocean_switch_nrf52832_xxAA_s132_6.1.1.dir/__/__/mesh/core/src/mesh_config_flashman_glue.c.obj
                0x000303a0                mesh_config_record_size_calculate
 *fill*         0x000303aa        0x2 
 .text.mesh_config_backend_flash_usage_get
                0x000303ac       0x24 examples/enocean_switch/CMakeFiles/enocean_switch_nrf52832_xxAA_s132_6.1.1.dir/__/__/mesh/core/src/mesh_config_flashman_glue.c.obj
                0x000303ac                mesh_config_backend_flash_usage_get
 .text.mesh_config_backend_file_power_down_time_get
                0x000303d0       0x26 examples/enocean_switch/CMakeFiles/enocean_switch_nrf52832_xxAA_s132_6.1.1.dir/__/__/mesh/core/src/mesh_config_flashman_glue.c.obj
                0x000303d0                mesh_config_backend_file_power_down_time_get
 *fill*         0x000303f6        0x2 
 .text.packet_discard
                0x000303f8       0x30 examples/enocean_switch/CMakeFiles/enocean_switch_nrf52832_xxAA_s132_6.1.1.dir/__/__/mesh/core/src/core_tx_local.c.obj
 .text.packet_send
                0x00030428       0x58 examples/enocean_switch/CMakeFiles/enocean_switch_nrf52832_xxAA_s132_6.1.1.dir/__/__/mesh/core/src/core_tx_local.c.obj
 .text.loopback_process
                0x00030480       0x64 examples/enocean_switch/CMakeFiles/enocean_switch_nrf52832_xxAA_s132_6.1.1.dir/__/__/mesh/core/src/core_tx_local.c.obj
 .text.packet_alloc
                0x000304e4       0x48 examples/enocean_switch/CMakeFiles/enocean_switch_nrf52832_xxAA_s132_6.1.1.dir/__/__/mesh/core/src/core_tx_local.c.obj
 .text.core_tx_local_init
                0x0003052c       0x34 examples/enocean_switch/CMakeFiles/enocean_switch_nrf52832_xxAA_s132_6.1.1.dir/__/__/mesh/core/src/core_tx_local.c.obj
                0x0003052c                core_tx_local_init
 .text.core_tx_adv_get
                0x00030560       0x3c examples/enocean_switch/CMakeFiles/enocean_switch_nrf52832_xxAA_s132_6.1.1.dir/__/__/mesh/core/src/core_tx_adv.c.obj
 .text.core_tx_tx_power_get
                0x0003059c       0x30 examples/enocean_switch/CMakeFiles/enocean_switch_nrf52832_xxAA_s132_6.1.1.dir/__/__/mesh/core/src/core_tx_adv.c.obj
 .text.core_tx_adv_delete
                0x000305cc       0x50 examples/enocean_switch/CMakeFiles/enocean_switch_nrf52832_xxAA_s132_6.1.1.dir/__/__/mesh/core/src/core_tx_adv.c.obj
 .text.core_tx_adv_set
                0x0003061c       0x6c examples/enocean_switch/CMakeFiles/enocean_switch_nrf52832_xxAA_s132_6.1.1.dir/__/__/mesh/core/src/core_tx_adv.c.obj
 .text.core_tx_tx_power_delete
                0x00030688       0x30 examples/enocean_switch/CMakeFiles/enocean_switch_nrf52832_xxAA_s132_6.1.1.dir/__/__/mesh/core/src/core_tx_adv.c.obj
 .text.core_tx_tx_power_set
                0x000306b8       0x34 examples/enocean_switch/CMakeFiles/enocean_switch_nrf52832_xxAA_s132_6.1.1.dir/__/__/mesh/core/src/core_tx_adv.c.obj
 .text.core_tx_adv_addr_delete
                0x000306ec       0x34 examples/enocean_switch/CMakeFiles/enocean_switch_nrf52832_xxAA_s132_6.1.1.dir/__/__/mesh/core/src/core_tx_adv.c.obj
 .text.core_tx_adv_addr_set
                0x00030720       0x40 examples/enocean_switch/CMakeFiles/enocean_switch_nrf52832_xxAA_s132_6.1.1.dir/__/__/mesh/core/src/core_tx_adv.c.obj
 .text.core_tx_adv_addr_get
                0x00030760       0x34 examples/enocean_switch/CMakeFiles/enocean_switch_nrf52832_xxAA_s132_6.1.1.dir/__/__/mesh/core/src/core_tx_adv.c.obj
 .text.packet_discard
                0x00030794       0x40 examples/enocean_switch/CMakeFiles/enocean_switch_nrf52832_xxAA_s132_6.1.1.dir/__/__/mesh/core/src/core_tx_adv.c.obj
 .text.packet_send
                0x000307d4       0x58 examples/enocean_switch/CMakeFiles/enocean_switch_nrf52832_xxAA_s132_6.1.1.dir/__/__/mesh/core/src/core_tx_adv.c.obj
 .text.packet_alloc
                0x0003082c       0x58 examples/enocean_switch/CMakeFiles/enocean_switch_nrf52832_xxAA_s132_6.1.1.dir/__/__/mesh/core/src/core_tx_adv.c.obj
 .text.adv_tx_complete_callback
                0x00030884       0x20 examples/enocean_switch/CMakeFiles/enocean_switch_nrf52832_xxAA_s132_6.1.1.dir/__/__/mesh/core/src/core_tx_adv.c.obj
 .text.mesh_opt_core_adv_set
                0x000308a4       0x22 examples/enocean_switch/CMakeFiles/enocean_switch_nrf52832_xxAA_s132_6.1.1.dir/__/__/mesh/core/src/core_tx_adv.c.obj
                0x000308a4                mesh_opt_core_adv_set
 .text.mesh_opt_core_adv_get
                0x000308c6       0x22 examples/enocean_switch/CMakeFiles/enocean_switch_nrf52832_xxAA_s132_6.1.1.dir/__/__/mesh/core/src/core_tx_adv.c.obj
                0x000308c6                mesh_opt_core_adv_get
 .text.core_tx_adv_init
                0x000308e8       0x60 examples/enocean_switch/CMakeFiles/enocean_switch_nrf52832_xxAA_s132_6.1.1.dir/__/__/mesh/core/src/core_tx_adv.c.obj
                0x000308e8                core_tx_adv_init
 .text.core_tx_adv_is_enabled
                0x00030948       0x20 examples/enocean_switch/CMakeFiles/enocean_switch_nrf52832_xxAA_s132_6.1.1.dir/__/__/mesh/core/src/core_tx_adv.c.obj
                0x00030948                core_tx_adv_is_enabled
 .text.mesh_mem_init
                0x00030968        0x2 examples/enocean_switch/CMakeFiles/enocean_switch_nrf52832_xxAA_s132_6.1.1.dir/__/__/mesh/core/src/mesh_mem_stdlib.c.obj
                0x00030968                mesh_mem_init
 .text.mesh_mem_alloc
                0x0003096a        0x4 examples/enocean_switch/CMakeFiles/enocean_switch_nrf52832_xxAA_s132_6.1.1.dir/__/__/mesh/core/src/mesh_mem_stdlib.c.obj
                0x0003096a                mesh_mem_alloc
 .text.mesh_mem_free
                0x0003096e        0x4 examples/enocean_switch/CMakeFiles/enocean_switch_nrf52832_xxAA_s132_6.1.1.dir/__/__/mesh/core/src/mesh_mem_stdlib.c.obj
                0x0003096e                mesh_mem_free
 *fill*         0x00030972        0x2 
 .text.ad_listener_subscribe
                0x00030974       0x5c examples/enocean_switch/CMakeFiles/enocean_switch_nrf52832_xxAA_s132_6.1.1.dir/__/__/mesh/bearer/src/ad_listener.c.obj
                0x00030974                ad_listener_subscribe
 .text.ad_listener_process
                0x000309d0       0x68 examples/enocean_switch/CMakeFiles/enocean_switch_nrf52832_xxAA_s132_6.1.1.dir/__/__/mesh/bearer/src/ad_listener.c.obj
                0x000309d0                ad_listener_process
 .text.adtype_filter_handle
                0x00030a38       0x64 examples/enocean_switch/CMakeFiles/enocean_switch_nrf52832_xxAA_s132_6.1.1.dir/__/__/mesh/bearer/src/ad_type_filter.c.obj
 .text.bearer_adtype_filtering_set
                0x00030a9c       0x20 examples/enocean_switch/CMakeFiles/enocean_switch_nrf52832_xxAA_s132_6.1.1.dir/__/__/mesh/bearer/src/ad_type_filter.c.obj
                0x00030a9c                bearer_adtype_filtering_set
 .text.bearer_adtype_add
                0x00030abc       0x20 examples/enocean_switch/CMakeFiles/enocean_switch_nrf52832_xxAA_s132_6.1.1.dir/__/__/mesh/bearer/src/ad_type_filter.c.obj
                0x00030abc                bearer_adtype_add
 .text.bearer_adtype_mode_set
                0x00030adc       0x18 examples/enocean_switch/CMakeFiles/enocean_switch_nrf52832_xxAA_s132_6.1.1.dir/__/__/mesh/bearer/src/ad_type_filter.c.obj
                0x00030adc                bearer_adtype_mode_set
 .text.tx_complete_event_callback
                0x00030af4       0x24 examples/enocean_switch/CMakeFiles/enocean_switch_nrf52832_xxAA_s132_6.1.1.dir/__/__/mesh/bearer/src/advertiser.c.obj
 .text.set_gap_addr_type
                0x00030b18       0x26 examples/enocean_switch/CMakeFiles/enocean_switch_nrf52832_xxAA_s132_6.1.1.dir/__/__/mesh/bearer/src/advertiser.c.obj
 .text.broadcast_complete_cb
                0x00030b3e       0x46 examples/enocean_switch/CMakeFiles/enocean_switch_nrf52832_xxAA_s132_6.1.1.dir/__/__/mesh/bearer/src/advertiser.c.obj
 .text.schedule_first_time
                0x00030b84       0x28 examples/enocean_switch/CMakeFiles/enocean_switch_nrf52832_xxAA_s132_6.1.1.dir/__/__/mesh/bearer/src/advertiser.c.obj
 .text.timeout_event
                0x00030bac      0x114 examples/enocean_switch/CMakeFiles/enocean_switch_nrf52832_xxAA_s132_6.1.1.dir/__/__/mesh/bearer/src/advertiser.c.obj
 .text.advertiser_init
                0x00030cc0        0xc examples/enocean_switch/CMakeFiles/enocean_switch_nrf52832_xxAA_s132_6.1.1.dir/__/__/mesh/bearer/src/advertiser.c.obj
                0x00030cc0                advertiser_init
 .text.advertiser_enable
                0x00030ccc       0x2a examples/enocean_switch/CMakeFiles/enocean_switch_nrf52832_xxAA_s132_6.1.1.dir/__/__/mesh/bearer/src/advertiser.c.obj
                0x00030ccc                advertiser_enable
 .text.advertiser_disable
                0x00030cf6        0xa examples/enocean_switch/CMakeFiles/enocean_switch_nrf52832_xxAA_s132_6.1.1.dir/__/__/mesh/bearer/src/advertiser.c.obj
                0x00030cf6                advertiser_disable
 .text.advertiser_packet_alloc
                0x00030d00       0x76 examples/enocean_switch/CMakeFiles/enocean_switch_nrf52832_xxAA_s132_6.1.1.dir/__/__/mesh/bearer/src/advertiser.c.obj
                0x00030d00                advertiser_packet_alloc
 .text.advertiser_packet_send
                0x00030d76       0x52 examples/enocean_switch/CMakeFiles/enocean_switch_nrf52832_xxAA_s132_6.1.1.dir/__/__/mesh/bearer/src/advertiser.c.obj
                0x00030d76                advertiser_packet_send
 .text.advertiser_packet_discard
                0x00030dc8       0x1e examples/enocean_switch/CMakeFiles/enocean_switch_nrf52832_xxAA_s132_6.1.1.dir/__/__/mesh/bearer/src/advertiser.c.obj
                0x00030dc8                advertiser_packet_discard
 .text.advertiser_address_set
                0x00030de6       0x3c examples/enocean_switch/CMakeFiles/enocean_switch_nrf52832_xxAA_s132_6.1.1.dir/__/__/mesh/bearer/src/advertiser.c.obj
                0x00030de6                advertiser_address_set
 .text.advertiser_interval_set
                0x00030e22       0x40 examples/enocean_switch/CMakeFiles/enocean_switch_nrf52832_xxAA_s132_6.1.1.dir/__/__/mesh/bearer/src/advertiser.c.obj
                0x00030e22                advertiser_interval_set
 .text.advertiser_tx_power_set
                0x00030e62       0x14 examples/enocean_switch/CMakeFiles/enocean_switch_nrf52832_xxAA_s132_6.1.1.dir/__/__/mesh/bearer/src/advertiser.c.obj
                0x00030e62                advertiser_tx_power_set
 .text.advertiser_flush
                0x00030e76       0x1e examples/enocean_switch/CMakeFiles/enocean_switch_nrf52832_xxAA_s132_6.1.1.dir/__/__/mesh/bearer/src/advertiser.c.obj
                0x00030e76                advertiser_flush
 .text.advertiser_address_default_get
                0x00030e94       0x38 examples/enocean_switch/CMakeFiles/enocean_switch_nrf52832_xxAA_s132_6.1.1.dir/__/__/mesh/bearer/src/advertiser.c.obj
                0x00030e94                advertiser_address_default_get
 .text.advertiser_instance_init
                0x00030ecc       0x98 examples/enocean_switch/CMakeFiles/enocean_switch_nrf52832_xxAA_s132_6.1.1.dir/__/__/mesh/bearer/src/advertiser.c.obj
                0x00030ecc                advertiser_instance_init
 .text.notify_stop
                0x00030f64       0x14 examples/enocean_switch/CMakeFiles/enocean_switch_nrf52832_xxAA_s132_6.1.1.dir/__/__/mesh/bearer/src/bearer_handler.c.obj
 .text.action_in_progress
                0x00030f78       0x30 examples/enocean_switch/CMakeFiles/enocean_switch_nrf52832_xxAA_s132_6.1.1.dir/__/__/mesh/bearer/src/bearer_handler.c.obj
 .text.action_timer_start
                0x00030fa8       0x88 examples/enocean_switch/CMakeFiles/enocean_switch_nrf52832_xxAA_s132_6.1.1.dir/__/__/mesh/bearer/src/bearer_handler.c.obj
 .text.action_switch
                0x00031030      0x104 examples/enocean_switch/CMakeFiles/enocean_switch_nrf52832_xxAA_s132_6.1.1.dir/__/__/mesh/bearer/src/bearer_handler.c.obj
 .text.end_handle
                0x00031134       0x44 examples/enocean_switch/CMakeFiles/enocean_switch_nrf52832_xxAA_s132_6.1.1.dir/__/__/mesh/bearer/src/bearer_handler.c.obj
 .text.TIMER2_IRQHandler
                0x00031178       0x58 examples/enocean_switch/CMakeFiles/enocean_switch_nrf52832_xxAA_s132_6.1.1.dir/__/__/mesh/bearer/src/bearer_handler.c.obj
                0x00031178                TIMER2_IRQHandler
 .text.bearer_handler_init
                0x000311d0       0x44 examples/enocean_switch/CMakeFiles/enocean_switch_nrf52832_xxAA_s132_6.1.1.dir/__/__/mesh/bearer/src/bearer_handler.c.obj
                0x000311d0                bearer_handler_init
 .text.bearer_handler_stop
                0x00031214       0x48 examples/enocean_switch/CMakeFiles/enocean_switch_nrf52832_xxAA_s132_6.1.1.dir/__/__/mesh/bearer/src/bearer_handler.c.obj
                0x00031214                bearer_handler_stop
 .text.bearer_handler_wake_up
                0x0003125c       0x2c examples/enocean_switch/CMakeFiles/enocean_switch_nrf52832_xxAA_s132_6.1.1.dir/__/__/mesh/bearer/src/bearer_handler.c.obj
                0x0003125c                bearer_handler_wake_up
 .text.bearer_handler_start
                0x00031288       0x1c examples/enocean_switch/CMakeFiles/enocean_switch_nrf52832_xxAA_s132_6.1.1.dir/__/__/mesh/bearer/src/bearer_handler.c.obj
                0x00031288                bearer_handler_start
 .text.bearer_handler_action_enqueue
                0x000312a4       0x6c examples/enocean_switch/CMakeFiles/enocean_switch_nrf52832_xxAA_s132_6.1.1.dir/__/__/mesh/bearer/src/bearer_handler.c.obj
                0x000312a4                bearer_handler_action_enqueue
 .text.bearer_handler_action_end
                0x00031310       0x48 examples/enocean_switch/CMakeFiles/enocean_switch_nrf52832_xxAA_s132_6.1.1.dir/__/__/mesh/bearer/src/bearer_handler.c.obj
                0x00031310                bearer_handler_action_end
 .text.bearer_handler_radio_irq_handler
                0x00031358       0x70 examples/enocean_switch/CMakeFiles/enocean_switch_nrf52832_xxAA_s132_6.1.1.dir/__/__/mesh/bearer/src/bearer_handler.c.obj
                0x00031358                bearer_handler_radio_irq_handler
 .text.bearer_handler_timer_irq_handler
                0x000313c8       0x34 examples/enocean_switch/CMakeFiles/enocean_switch_nrf52832_xxAA_s132_6.1.1.dir/__/__/mesh/bearer/src/bearer_handler.c.obj
                0x000313c8                bearer_handler_timer_irq_handler
 .text.bearer_handler_on_ts_begin
                0x000313fc       0x38 examples/enocean_switch/CMakeFiles/enocean_switch_nrf52832_xxAA_s132_6.1.1.dir/__/__/mesh/bearer/src/bearer_handler.c.obj
                0x000313fc                bearer_handler_on_ts_begin
 .text.bearer_handler_on_ts_end
                0x00031434       0x70 examples/enocean_switch/CMakeFiles/enocean_switch_nrf52832_xxAA_s132_6.1.1.dir/__/__/mesh/bearer/src/bearer_handler.c.obj
                0x00031434                bearer_handler_on_ts_end
 .text.bearer_handler_on_ts_session_closed
                0x000314a4       0x10 examples/enocean_switch/CMakeFiles/enocean_switch_nrf52832_xxAA_s132_6.1.1.dir/__/__/mesh/bearer/src/bearer_handler.c.obj
                0x000314a4                bearer_handler_on_ts_session_closed
 .text.radio_irq_handler
                0x000314b4       0xa4 examples/enocean_switch/CMakeFiles/enocean_switch_nrf52832_xxAA_s132_6.1.1.dir/__/__/mesh/bearer/src/broadcast.c.obj
 .text.broadcast_start
                0x00031558       0xb4 examples/enocean_switch/CMakeFiles/enocean_switch_nrf52832_xxAA_s132_6.1.1.dir/__/__/mesh/bearer/src/broadcast.c.obj
 .text.broadcast_send
                0x0003160c       0x6c examples/enocean_switch/CMakeFiles/enocean_switch_nrf52832_xxAA_s132_6.1.1.dir/__/__/mesh/bearer/src/broadcast.c.obj
                0x0003160c                broadcast_send
 .text.fen_filter_start
                0x00031678       0x3c examples/enocean_switch/CMakeFiles/enocean_switch_nrf52832_xxAA_s132_6.1.1.dir/__/__/mesh/bearer/src/filter_engine.c.obj
                0x00031678                fen_filter_start
 .text.fen_filter_stop
                0x000316b4       0x30 examples/enocean_switch/CMakeFiles/enocean_switch_nrf52832_xxAA_s132_6.1.1.dir/__/__/mesh/bearer/src/filter_engine.c.obj
                0x000316b4                fen_filter_stop
 .text.fen_filters_apply
                0x000316e4       0x44 examples/enocean_switch/CMakeFiles/enocean_switch_nrf52832_xxAA_s132_6.1.1.dir/__/__/mesh/bearer/src/filter_engine.c.obj
                0x000316e4                fen_filters_apply
 .text.radio_config_reset
                0x00031728       0x40 examples/enocean_switch/CMakeFiles/enocean_switch_nrf52832_xxAA_s132_6.1.1.dir/__/__/mesh/bearer/src/radio_config.c.obj
                0x00031728                radio_config_reset
 .text.radio_config_channel_set
                0x00031768       0x28 examples/enocean_switch/CMakeFiles/enocean_switch_nrf52832_xxAA_s132_6.1.1.dir/__/__/mesh/bearer/src/radio_config.c.obj
                0x00031768                radio_config_channel_set
 .text.radio_config_config
                0x00031790       0x8c examples/enocean_switch/CMakeFiles/enocean_switch_nrf52832_xxAA_s132_6.1.1.dir/__/__/mesh/bearer/src/radio_config.c.obj
                0x00031790                radio_config_config
 .text.radio_config_access_addr_set
                0x0003181c       0x50 examples/enocean_switch/CMakeFiles/enocean_switch_nrf52832_xxAA_s132_6.1.1.dir/__/__/mesh/bearer/src/radio_config.c.obj
                0x0003181c                radio_config_access_addr_set
 .text.radio_trigger
                0x0003186c       0x24 examples/enocean_switch/CMakeFiles/enocean_switch_nrf52832_xxAA_s132_6.1.1.dir/__/__/mesh/bearer/src/scanner.c.obj
 .text.scan_window_end
                0x00031890       0x10 examples/enocean_switch/CMakeFiles/enocean_switch_nrf52832_xxAA_s132_6.1.1.dir/__/__/mesh/bearer/src/scanner.c.obj
 .text.scan_window_start
                0x000318a0       0x24 examples/enocean_switch/CMakeFiles/enocean_switch_nrf52832_xxAA_s132_6.1.1.dir/__/__/mesh/bearer/src/scanner.c.obj
 .text.radio_configure
                0x000318c4       0x78 examples/enocean_switch/CMakeFiles/enocean_switch_nrf52832_xxAA_s132_6.1.1.dir/__/__/mesh/bearer/src/scanner.c.obj
 .text.radio_set_packet
                0x0003193c       0x4c examples/enocean_switch/CMakeFiles/enocean_switch_nrf52832_xxAA_s132_6.1.1.dir/__/__/mesh/bearer/src/scanner.c.obj
 .text.radio_start
                0x00031988       0x78 examples/enocean_switch/CMakeFiles/enocean_switch_nrf52832_xxAA_s132_6.1.1.dir/__/__/mesh/bearer/src/scanner.c.obj
 .text.radio_stop
                0x00031a00       0x38 examples/enocean_switch/CMakeFiles/enocean_switch_nrf52832_xxAA_s132_6.1.1.dir/__/__/mesh/bearer/src/scanner.c.obj
 .text.schedule_timers
                0x00031a38       0x38 examples/enocean_switch/CMakeFiles/enocean_switch_nrf52832_xxAA_s132_6.1.1.dir/__/__/mesh/bearer/src/scanner.c.obj
 .text.scanner_radio_start
                0x00031a70       0x28 examples/enocean_switch/CMakeFiles/enocean_switch_nrf52832_xxAA_s132_6.1.1.dir/__/__/mesh/bearer/src/scanner.c.obj
                0x00031a70                scanner_radio_start
 .text.scanner_radio_stop
                0x00031a98       0x10 examples/enocean_switch/CMakeFiles/enocean_switch_nrf52832_xxAA_s132_6.1.1.dir/__/__/mesh/bearer/src/scanner.c.obj
                0x00031a98                scanner_radio_stop
 .text.scanner_radio_irq_handler
                0x00031aa8      0x144 examples/enocean_switch/CMakeFiles/enocean_switch_nrf52832_xxAA_s132_6.1.1.dir/__/__/mesh/bearer/src/scanner.c.obj
                0x00031aa8                scanner_radio_irq_handler
 .text.scanner_timer_irq_handler
                0x00031bec       0x30 examples/enocean_switch/CMakeFiles/enocean_switch_nrf52832_xxAA_s132_6.1.1.dir/__/__/mesh/bearer/src/scanner.c.obj
                0x00031bec                scanner_timer_irq_handler
 .text.scanner_enable
                0x00031c1c       0x2c examples/enocean_switch/CMakeFiles/enocean_switch_nrf52832_xxAA_s132_6.1.1.dir/__/__/mesh/bearer/src/scanner.c.obj
                0x00031c1c                scanner_enable
 .text.scanner_is_enabled
                0x00031c48       0x10 examples/enocean_switch/CMakeFiles/enocean_switch_nrf52832_xxAA_s132_6.1.1.dir/__/__/mesh/bearer/src/scanner.c.obj
                0x00031c48                scanner_is_enabled
 .text.scanner_packet_release
                0x00031c58       0x2c examples/enocean_switch/CMakeFiles/enocean_switch_nrf52832_xxAA_s132_6.1.1.dir/__/__/mesh/bearer/src/scanner.c.obj
                0x00031c58                scanner_packet_release
 .text.scanner_rx
                0x00031c84       0x34 examples/enocean_switch/CMakeFiles/enocean_switch_nrf52832_xxAA_s132_6.1.1.dir/__/__/mesh/bearer/src/scanner.c.obj
                0x00031c84                scanner_rx
 .text.scanner_rx_pending
                0x00031cb8        0xc examples/enocean_switch/CMakeFiles/enocean_switch_nrf52832_xxAA_s132_6.1.1.dir/__/__/mesh/bearer/src/scanner.c.obj
                0x00031cb8                scanner_rx_pending
 .text.scanner_config_scan_time_set
                0x00031cc4       0x4c examples/enocean_switch/CMakeFiles/enocean_switch_nrf52832_xxAA_s132_6.1.1.dir/__/__/mesh/bearer/src/scanner.c.obj
                0x00031cc4                scanner_config_scan_time_set
 .text.scanner_config_channels_set
                0x00031d10       0x50 examples/enocean_switch/CMakeFiles/enocean_switch_nrf52832_xxAA_s132_6.1.1.dir/__/__/mesh/bearer/src/scanner.c.obj
                0x00031d10                scanner_config_channels_set
 .text.scanner_config_access_addresses_set
                0x00031d60       0x38 examples/enocean_switch/CMakeFiles/enocean_switch_nrf52832_xxAA_s132_6.1.1.dir/__/__/mesh/bearer/src/scanner.c.obj
                0x00031d60                scanner_config_access_addresses_set
 .text.scanner_config_reset
                0x00031d98       0x50 examples/enocean_switch/CMakeFiles/enocean_switch_nrf52832_xxAA_s132_6.1.1.dir/__/__/mesh/bearer/src/scanner.c.obj
                0x00031d98                scanner_config_reset
 .text.scanner_init
                0x00031de8       0x54 examples/enocean_switch/CMakeFiles/enocean_switch_nrf52832_xxAA_s132_6.1.1.dir/__/__/mesh/bearer/src/scanner.c.obj
                0x00031de8                scanner_init
 .text.pin_clear
                0x00031e3c       0x24 examples/enocean_switch/CMakeFiles/enocean_switch_nrf52832_xxAA_s132_6.1.1.dir/__/__/mesh/bearer/src/mesh_pa_lna.c.obj
 .text.ppi_setup.isra.0
                0x00031e60       0x3c examples/enocean_switch/CMakeFiles/enocean_switch_nrf52832_xxAA_s132_6.1.1.dir/__/__/mesh/bearer/src/mesh_pa_lna.c.obj
 .text.mesh_pa_setup_start
                0x00031e9c       0x5c examples/enocean_switch/CMakeFiles/enocean_switch_nrf52832_xxAA_s132_6.1.1.dir/__/__/mesh/bearer/src/mesh_pa_lna.c.obj
                0x00031e9c                mesh_pa_setup_start
 .text.mesh_lna_setup_start
                0x00031ef8       0x5c examples/enocean_switch/CMakeFiles/enocean_switch_nrf52832_xxAA_s132_6.1.1.dir/__/__/mesh/bearer/src/mesh_pa_lna.c.obj
                0x00031ef8                mesh_lna_setup_start
 .text.mesh_pa_lna_disable_start
                0x00031f54       0x1c examples/enocean_switch/CMakeFiles/enocean_switch_nrf52832_xxAA_s132_6.1.1.dir/__/__/mesh/bearer/src/mesh_pa_lna.c.obj
                0x00031f54                mesh_pa_lna_disable_start
 .text.mesh_pa_lna_setup_stop
                0x00031f70       0x4c examples/enocean_switch/CMakeFiles/enocean_switch_nrf52832_xxAA_s132_6.1.1.dir/__/__/mesh/bearer/src/mesh_pa_lna.c.obj
                0x00031f70                mesh_pa_lna_setup_stop
 .text.mesh_pa_lna_cleanup
                0x00031fbc       0x48 examples/enocean_switch/CMakeFiles/enocean_switch_nrf52832_xxAA_s132_6.1.1.dir/__/__/mesh/bearer/src/mesh_pa_lna.c.obj
                0x00031fbc                mesh_pa_lna_cleanup
 .text.sd_ble_gap_disconnect
                0x00032004        0x4 examples/enocean_switch/CMakeFiles/enocean_switch_nrf52832_xxAA_s132_6.1.1.dir/__/__/mesh/gatt/src/mesh_gatt.c.obj
 .text.sd_ble_gap_sec_params_reply
                0x00032008        0x4 examples/enocean_switch/CMakeFiles/enocean_switch_nrf52832_xxAA_s132_6.1.1.dir/__/__/mesh/gatt/src/mesh_gatt.c.obj
 .text.sd_ble_gap_phy_update
                0x0003200c        0x4 examples/enocean_switch/CMakeFiles/enocean_switch_nrf52832_xxAA_s132_6.1.1.dir/__/__/mesh/gatt/src/mesh_gatt.c.obj
 .text.sd_ble_gap_data_length_update
                0x00032010        0x4 examples/enocean_switch/CMakeFiles/enocean_switch_nrf52832_xxAA_s132_6.1.1.dir/__/__/mesh/gatt/src/mesh_gatt.c.obj
 .text.sd_ble_gatts_service_add
                0x00032014        0x4 examples/enocean_switch/CMakeFiles/enocean_switch_nrf52832_xxAA_s132_6.1.1.dir/__/__/mesh/gatt/src/mesh_gatt.c.obj
 .text.sd_ble_gatts_characteristic_add
                0x00032018        0x4 examples/enocean_switch/CMakeFiles/enocean_switch_nrf52832_xxAA_s132_6.1.1.dir/__/__/mesh/gatt/src/mesh_gatt.c.obj
 .text.sd_ble_gatts_hvx
                0x0003201c        0x4 examples/enocean_switch/CMakeFiles/enocean_switch_nrf52832_xxAA_s132_6.1.1.dir/__/__/mesh/gatt/src/mesh_gatt.c.obj
 .text.sd_ble_gatts_sys_attr_set
                0x00032020        0x4 examples/enocean_switch/CMakeFiles/enocean_switch_nrf52832_xxAA_s132_6.1.1.dir/__/__/mesh/gatt/src/mesh_gatt.c.obj
 .text.sd_ble_gatts_exchange_mtu_reply
                0x00032024        0x4 examples/enocean_switch/CMakeFiles/enocean_switch_nrf52832_xxAA_s132_6.1.1.dir/__/__/mesh/gatt/src/mesh_gatt.c.obj
 .text.timeout_cb
                0x00032028       0x1c examples/enocean_switch/CMakeFiles/enocean_switch_nrf52832_xxAA_s132_6.1.1.dir/__/__/mesh/gatt/src/mesh_gatt.c.obj
 .text.mesh_gatt_init
                0x00032044      0x14c examples/enocean_switch/CMakeFiles/enocean_switch_nrf52832_xxAA_s132_6.1.1.dir/__/__/mesh/gatt/src/mesh_gatt.c.obj
                0x00032044                mesh_gatt_init
 .text.mesh_gatt_packet_alloc
                0x00032190       0x7c examples/enocean_switch/CMakeFiles/enocean_switch_nrf52832_xxAA_s132_6.1.1.dir/__/__/mesh/gatt/src/mesh_gatt.c.obj
                0x00032190                mesh_gatt_packet_alloc
 .text.mesh_gatt_packet_discard
                0x0003220c       0x4c examples/enocean_switch/CMakeFiles/enocean_switch_nrf52832_xxAA_s132_6.1.1.dir/__/__/mesh/gatt/src/mesh_gatt.c.obj
                0x0003220c                mesh_gatt_packet_discard
 .text.mesh_gatt_packet_is_pending
                0x00032258       0x20 examples/enocean_switch/CMakeFiles/enocean_switch_nrf52832_xxAA_s132_6.1.1.dir/__/__/mesh/gatt/src/mesh_gatt.c.obj
                0x00032258                mesh_gatt_packet_is_pending
 .text.mesh_gatt_disconnect
                0x00032278       0x30 examples/enocean_switch/CMakeFiles/enocean_switch_nrf52832_xxAA_s132_6.1.1.dir/__/__/mesh/gatt/src/mesh_gatt.c.obj
                0x00032278                mesh_gatt_disconnect
 .text.mesh_gatt_pdu_send
                0x000322a8      0x170 examples/enocean_switch/CMakeFiles/enocean_switch_nrf52832_xxAA_s132_6.1.1.dir/__/__/mesh/gatt/src/mesh_gatt.c.obj
 .text.mesh_gatt_packet_send
                0x00032418       0x88 examples/enocean_switch/CMakeFiles/enocean_switch_nrf52832_xxAA_s132_6.1.1.dir/__/__/mesh/gatt/src/mesh_gatt.c.obj
                0x00032418                mesh_gatt_packet_send
 .text.mesh_gatt_on_ble_evt
                0x000324a0      0x3b0 examples/enocean_switch/CMakeFiles/enocean_switch_nrf52832_xxAA_s132_6.1.1.dir/__/__/mesh/gatt/src/mesh_gatt.c.obj
                0x000324a0                mesh_gatt_on_ble_evt
 .text.active_connection_count
                0x00032850        0xc examples/enocean_switch/CMakeFiles/enocean_switch_nrf52832_xxAA_s132_6.1.1.dir/__/__/mesh/gatt/src/proxy.c.obj
 .text.proxy_get
                0x0003285c       0x10 examples/enocean_switch/CMakeFiles/enocean_switch_nrf52832_xxAA_s132_6.1.1.dir/__/__/mesh/gatt/src/proxy.c.obj
 .text.proxy_delete
                0x0003286c       0x10 examples/enocean_switch/CMakeFiles/enocean_switch_nrf52832_xxAA_s132_6.1.1.dir/__/__/mesh/gatt/src/proxy.c.obj
 .text.packet_discard
                0x0003287c       0x30 examples/enocean_switch/CMakeFiles/enocean_switch_nrf52832_xxAA_s132_6.1.1.dir/__/__/mesh/gatt/src/proxy.c.obj
 .text.core_tx_packet_discard_cb
                0x000328ac       0x18 examples/enocean_switch/CMakeFiles/enocean_switch_nrf52832_xxAA_s132_6.1.1.dir/__/__/mesh/gatt/src/proxy.c.obj
 .text.packet_send
                0x000328c4       0x3c examples/enocean_switch/CMakeFiles/enocean_switch_nrf52832_xxAA_s132_6.1.1.dir/__/__/mesh/gatt/src/proxy.c.obj
 .text.core_tx_packet_send_cb
                0x00032900       0x38 examples/enocean_switch/CMakeFiles/enocean_switch_nrf52832_xxAA_s132_6.1.1.dir/__/__/mesh/gatt/src/proxy.c.obj
 .text.packet_alloc
                0x00032938       0x44 examples/enocean_switch/CMakeFiles/enocean_switch_nrf52832_xxAA_s132_6.1.1.dir/__/__/mesh/gatt/src/proxy.c.obj
 .text.core_tx_packet_alloc_cb
                0x0003297c       0x40 examples/enocean_switch/CMakeFiles/enocean_switch_nrf52832_xxAA_s132_6.1.1.dir/__/__/mesh/gatt/src/proxy.c.obj
 .text.adv_data_set
                0x000329bc       0xa4 examples/enocean_switch/CMakeFiles/enocean_switch_nrf52832_xxAA_s132_6.1.1.dir/__/__/mesh/gatt/src/proxy.c.obj
 .text.on_adv_end
                0x00032a60       0x14 examples/enocean_switch/CMakeFiles/enocean_switch_nrf52832_xxAA_s132_6.1.1.dir/__/__/mesh/gatt/src/proxy.c.obj
 .text.has_pending_packets
                0x00032a74       0x14 examples/enocean_switch/CMakeFiles/enocean_switch_nrf52832_xxAA_s132_6.1.1.dir/__/__/mesh/gatt/src/proxy.c.obj
 .text.adv_net_iterate
                0x00032a88       0x34 examples/enocean_switch/CMakeFiles/enocean_switch_nrf52832_xxAA_s132_6.1.1.dir/__/__/mesh/gatt/src/proxy.c.obj
 .text.adv_timer_handler
                0x00032abc        0xe examples/enocean_switch/CMakeFiles/enocean_switch_nrf52832_xxAA_s132_6.1.1.dir/__/__/mesh/gatt/src/proxy.c.obj
 *fill*         0x00032aca        0x2 
 .text.adv_start
                0x00032acc       0x5c examples/enocean_switch/CMakeFiles/enocean_switch_nrf52832_xxAA_s132_6.1.1.dir/__/__/mesh/gatt/src/proxy.c.obj
 .text.proxy_set
                0x00032b28       0x3c examples/enocean_switch/CMakeFiles/enocean_switch_nrf52832_xxAA_s132_6.1.1.dir/__/__/mesh/gatt/src/proxy.c.obj
 .text.beacon_packet_send_to_all
                0x00032b64       0x54 examples/enocean_switch/CMakeFiles/enocean_switch_nrf52832_xxAA_s132_6.1.1.dir/__/__/mesh/gatt/src/proxy.c.obj
 .text.mesh_evt_handle
                0x00032bb8       0x3c examples/enocean_switch/CMakeFiles/enocean_switch_nrf52832_xxAA_s132_6.1.1.dir/__/__/mesh/gatt/src/proxy.c.obj
 .text.proxy_init
                0x00032bf4       0x84 examples/enocean_switch/CMakeFiles/enocean_switch_nrf52832_xxAA_s132_6.1.1.dir/__/__/mesh/gatt/src/proxy.c.obj
                0x00032bf4                proxy_init
 .text.proxy_start
                0x00032c78       0x38 examples/enocean_switch/CMakeFiles/enocean_switch_nrf52832_xxAA_s132_6.1.1.dir/__/__/mesh/gatt/src/proxy.c.obj
                0x00032c78                proxy_start
 .text.proxy_subnet_added
                0x00032cb0       0x58 examples/enocean_switch/CMakeFiles/enocean_switch_nrf52832_xxAA_s132_6.1.1.dir/__/__/mesh/gatt/src/proxy.c.obj
                0x00032cb0                proxy_subnet_added
 .text.proxy_net_packet_processed
                0x00032d08       0x40 examples/enocean_switch/CMakeFiles/enocean_switch_nrf52832_xxAA_s132_6.1.1.dir/__/__/mesh/gatt/src/proxy.c.obj
                0x00032d08                proxy_net_packet_processed
 .text.proxy_node_id_is_enabled
                0x00032d48       0x2c examples/enocean_switch/CMakeFiles/enocean_switch_nrf52832_xxAA_s132_6.1.1.dir/__/__/mesh/gatt/src/proxy.c.obj
                0x00032d48                proxy_node_id_is_enabled
 .text.proxy_is_enabled
                0x00032d74        0xc examples/enocean_switch/CMakeFiles/enocean_switch_nrf52832_xxAA_s132_6.1.1.dir/__/__/mesh/gatt/src/proxy.c.obj
                0x00032d74                proxy_is_enabled
 .text.proxy_is_connected
                0x00032d80       0x18 examples/enocean_switch/CMakeFiles/enocean_switch_nrf52832_xxAA_s132_6.1.1.dir/__/__/mesh/gatt/src/proxy.c.obj
                0x00032d80                proxy_is_connected
 .text.proxy_disconnect
                0x00032d98       0x1c examples/enocean_switch/CMakeFiles/enocean_switch_nrf52832_xxAA_s132_6.1.1.dir/__/__/mesh/gatt/src/proxy.c.obj
                0x00032d98                proxy_disconnect
 .text.gatt_evt_handler
                0x00032db4      0x698 examples/enocean_switch/CMakeFiles/enocean_switch_nrf52832_xxAA_s132_6.1.1.dir/__/__/mesh/gatt/src/proxy.c.obj
 .text.proxy_stop
                0x0003344c       0x68 examples/enocean_switch/CMakeFiles/enocean_switch_nrf52832_xxAA_s132_6.1.1.dir/__/__/mesh/gatt/src/proxy.c.obj
                0x0003344c                proxy_stop
 .text.proxy_node_id_enable
                0x000334b4       0x2c examples/enocean_switch/CMakeFiles/enocean_switch_nrf52832_xxAA_s132_6.1.1.dir/__/__/mesh/gatt/src/proxy.c.obj
                0x000334b4                proxy_node_id_enable
 .text.proxy_node_id_disable
                0x000334e0       0x30 examples/enocean_switch/CMakeFiles/enocean_switch_nrf52832_xxAA_s132_6.1.1.dir/__/__/mesh/gatt/src/proxy.c.obj
                0x000334e0                proxy_node_id_disable
 .text.mesh_opt_gatt_proxy_set
                0x00033510       0x1c examples/enocean_switch/CMakeFiles/enocean_switch_nrf52832_xxAA_s132_6.1.1.dir/__/__/mesh/gatt/src/proxy.c.obj
                0x00033510                mesh_opt_gatt_proxy_set
 .text.proxy_filter_clear
                0x0003352c       0x18 examples/enocean_switch/CMakeFiles/enocean_switch_nrf52832_xxAA_s132_6.1.1.dir/__/__/mesh/gatt/src/proxy_filter.c.obj
                0x0003352c                proxy_filter_clear
 .text.proxy_filter_type_set
                0x00033544       0x24 examples/enocean_switch/CMakeFiles/enocean_switch_nrf52832_xxAA_s132_6.1.1.dir/__/__/mesh/gatt/src/proxy_filter.c.obj
                0x00033544                proxy_filter_type_set
 .text.proxy_filter_add
                0x00033568       0x54 examples/enocean_switch/CMakeFiles/enocean_switch_nrf52832_xxAA_s132_6.1.1.dir/__/__/mesh/gatt/src/proxy_filter.c.obj
                0x00033568                proxy_filter_add
 .text.proxy_filter_remove
                0x000335bc       0x50 examples/enocean_switch/CMakeFiles/enocean_switch_nrf52832_xxAA_s132_6.1.1.dir/__/__/mesh/gatt/src/proxy_filter.c.obj
                0x000335bc                proxy_filter_remove
 .text.proxy_filter_accept
                0x0003360c       0x36 examples/enocean_switch/CMakeFiles/enocean_switch_nrf52832_xxAA_s132_6.1.1.dir/__/__/mesh/gatt/src/proxy_filter.c.obj
                0x0003360c                proxy_filter_accept
 .text.status_handle
                0x00033642       0x4a examples/enocean_switch/CMakeFiles/enocean_switch_nrf52832_xxAA_s132_6.1.1.dir/__/__/models/model_spec/generic_onoff/src/generic_onoff_client.c.obj
 .text.generic_onoff_client_init
                0x0003368c       0x58 examples/enocean_switch/CMakeFiles/enocean_switch_nrf52832_xxAA_s132_6.1.1.dir/__/__/models/model_spec/generic_onoff/src/generic_onoff_client.c.obj
                0x0003368c                generic_onoff_client_init
 .text.generic_onoff_client_set
                0x000336e4       0xa0 examples/enocean_switch/CMakeFiles/enocean_switch_nrf52832_xxAA_s132_6.1.1.dir/__/__/models/model_spec/generic_onoff/src/generic_onoff_client.c.obj
                0x000336e4                generic_onoff_client_set
 .text.generic_onoff_client_set_unack
                0x00033784       0x94 examples/enocean_switch/CMakeFiles/enocean_switch_nrf52832_xxAA_s132_6.1.1.dir/__/__/models/model_spec/generic_onoff/src/generic_onoff_client.c.obj
                0x00033784                generic_onoff_client_set_unack
 .text.model_transition_time_decode
                0x00033818       0x40 examples/enocean_switch/CMakeFiles/enocean_switch_nrf52832_xxAA_s132_6.1.1.dir/__/__/models/model_spec/common/src/model_common.c.obj
                0x00033818                model_transition_time_decode
 .text.model_transition_time_encode
                0x00033858       0x60 examples/enocean_switch/CMakeFiles/enocean_switch_nrf52832_xxAA_s132_6.1.1.dir/__/__/models/model_spec/common/src/model_common.c.obj
                0x00033858                model_transition_time_encode
 .text.model_delay_encode
                0x000338b8       0x10 examples/enocean_switch/CMakeFiles/enocean_switch_nrf52832_xxAA_s132_6.1.1.dir/__/__/models/model_spec/common/src/model_common.c.obj
                0x000338b8                model_delay_encode
 .text.config_composition_data_get
                0x000338c8      0x17a examples/enocean_switch/CMakeFiles/enocean_switch_nrf52832_xxAA_s132_6.1.1.dir/__/__/models/foundation/config/src/composition_data.c.obj
                0x000338c8                config_composition_data_get
 *fill*         0x00033a42        0x2 
 .text.app_evt_send
                0x00033a44       0x10 examples/enocean_switch/CMakeFiles/enocean_switch_nrf52832_xxAA_s132_6.1.1.dir/__/__/models/foundation/config/src/config_server.c.obj
 .text.get_element_index
                0x00033a54       0x2a examples/enocean_switch/CMakeFiles/enocean_switch_nrf52832_xxAA_s132_6.1.1.dir/__/__/models/foundation/config/src/config_server.c.obj
 .text.config_server_heartbeat_publication_params_get
                0x00033a7e       0x30 examples/enocean_switch/CMakeFiles/enocean_switch_nrf52832_xxAA_s132_6.1.1.dir/__/__/models/foundation/config/src/config_server.c.obj
 .text.send_reply
                0x00033aae       0x34 examples/enocean_switch/CMakeFiles/enocean_switch_nrf52832_xxAA_s132_6.1.1.dir/__/__/models/foundation/config/src/config_server.c.obj
 .text.send_network_transmit_status
                0x00033ae2       0x5a examples/enocean_switch/CMakeFiles/enocean_switch_nrf52832_xxAA_s132_6.1.1.dir/__/__/models/foundation/config/src/config_server.c.obj
 .text.handle_config_network_transmit_set
                0x00033b3c       0x74 examples/enocean_switch/CMakeFiles/enocean_switch_nrf52832_xxAA_s132_6.1.1.dir/__/__/models/foundation/config/src/config_server.c.obj
 .text.handle_config_network_transmit_get
                0x00033bb0        0xa examples/enocean_switch/CMakeFiles/enocean_switch_nrf52832_xxAA_s132_6.1.1.dir/__/__/models/foundation/config/src/config_server.c.obj
 *fill*         0x00033bba        0x2 
 .text.handle_node_reset
                0x00033bbc       0x34 examples/enocean_switch/CMakeFiles/enocean_switch_nrf52832_xxAA_s132_6.1.1.dir/__/__/models/foundation/config/src/config_server.c.obj
 .text.send_netkey_status
                0x00033bf0       0x2c examples/enocean_switch/CMakeFiles/enocean_switch_nrf52832_xxAA_s132_6.1.1.dir/__/__/models/foundation/config/src/config_server.c.obj
 .text.send_relay_status
                0x00033c1c       0x7e examples/enocean_switch/CMakeFiles/enocean_switch_nrf52832_xxAA_s132_6.1.1.dir/__/__/models/foundation/config/src/config_server.c.obj
 .text.handle_config_relay_set
                0x00033c9a       0x9a examples/enocean_switch/CMakeFiles/enocean_switch_nrf52832_xxAA_s132_6.1.1.dir/__/__/models/foundation/config/src/config_server.c.obj
 .text.handle_config_relay_get
                0x00033d34        0xa examples/enocean_switch/CMakeFiles/enocean_switch_nrf52832_xxAA_s132_6.1.1.dir/__/__/models/foundation/config/src/config_server.c.obj
 .text.send_subscription_status
                0x00033d3e       0x42 examples/enocean_switch/CMakeFiles/enocean_switch_nrf52832_xxAA_s132_6.1.1.dir/__/__/models/foundation/config/src/config_server.c.obj
 .text.send_appkey_status
                0x00033d80       0x3a examples/enocean_switch/CMakeFiles/enocean_switch_nrf52832_xxAA_s132_6.1.1.dir/__/__/models/foundation/config/src/config_server.c.obj
 .text.handle_node_identity_set
                0x00033dba       0xa0 examples/enocean_switch/CMakeFiles/enocean_switch_nrf52832_xxAA_s132_6.1.1.dir/__/__/models/foundation/config/src/config_server.c.obj
 .text.handle_netkey_delete
                0x00033e5a       0xbc examples/enocean_switch/CMakeFiles/enocean_switch_nrf52832_xxAA_s132_6.1.1.dir/__/__/models/foundation/config/src/config_server.c.obj
 *fill*         0x00033f16        0x2 
 .text.handle_netkey_add_update
                0x00033f18       0x78 examples/enocean_switch/CMakeFiles/enocean_switch_nrf52832_xxAA_s132_6.1.1.dir/__/__/models/foundation/config/src/config_server.c.obj
 .text.status_error_sub_send
                0x00033f90      0x124 examples/enocean_switch/CMakeFiles/enocean_switch_nrf52832_xxAA_s132_6.1.1.dir/__/__/models/foundation/config/src/config_server.c.obj
 .text.delete_all_subscriptions
                0x000340b4       0x66 examples/enocean_switch/CMakeFiles/enocean_switch_nrf52832_xxAA_s132_6.1.1.dir/__/__/models/foundation/config/src/config_server.c.obj
 .text.send_publication_status
                0x0003411a      0x188 examples/enocean_switch/CMakeFiles/enocean_switch_nrf52832_xxAA_s132_6.1.1.dir/__/__/models/foundation/config/src/config_server.c.obj
 .text.handle_config_key_refresh_phase_set
                0x000342a2       0xc8 examples/enocean_switch/CMakeFiles/enocean_switch_nrf52832_xxAA_s132_6.1.1.dir/__/__/models/foundation/config/src/config_server.c.obj
 .text.handle_config_default_ttl_set
                0x0003436a       0x50 examples/enocean_switch/CMakeFiles/enocean_switch_nrf52832_xxAA_s132_6.1.1.dir/__/__/models/foundation/config/src/config_server.c.obj
 .text.send_net_beacon_state
                0x000343ba       0x2c examples/enocean_switch/CMakeFiles/enocean_switch_nrf52832_xxAA_s132_6.1.1.dir/__/__/models/foundation/config/src/config_server.c.obj
 .text.handle_config_beacon_get
                0x000343e6        0xa examples/enocean_switch/CMakeFiles/enocean_switch_nrf52832_xxAA_s132_6.1.1.dir/__/__/models/foundation/config/src/config_server.c.obj
 .text.handle_heartbeat_publication_set
                0x000343f0       0xea examples/enocean_switch/CMakeFiles/enocean_switch_nrf52832_xxAA_s132_6.1.1.dir/__/__/models/foundation/config/src/config_server.c.obj
 *fill*         0x000344da        0x2 
 .text.apply_reset
                0x000344dc       0x30 examples/enocean_switch/CMakeFiles/enocean_switch_nrf52832_xxAA_s132_6.1.1.dir/__/__/models/foundation/config/src/config_server.c.obj
 .text.mesh_event_cb
                0x0003450c       0x68 examples/enocean_switch/CMakeFiles/enocean_switch_nrf52832_xxAA_s132_6.1.1.dir/__/__/models/foundation/config/src/config_server.c.obj
 .text.handle_config_friend_set.part.6
                0x00034574       0x2a examples/enocean_switch/CMakeFiles/enocean_switch_nrf52832_xxAA_s132_6.1.1.dir/__/__/models/foundation/config/src/config_server.c.obj
 .text.handle_config_friend_set
                0x0003459e       0x14 examples/enocean_switch/CMakeFiles/enocean_switch_nrf52832_xxAA_s132_6.1.1.dir/__/__/models/foundation/config/src/config_server.c.obj
 .text.handle_config_friend_get
                0x000345b2        0xa examples/enocean_switch/CMakeFiles/enocean_switch_nrf52832_xxAA_s132_6.1.1.dir/__/__/models/foundation/config/src/config_server.c.obj
 .text.handle_config_key_refresh_phase_get
                0x000345bc       0x58 examples/enocean_switch/CMakeFiles/enocean_switch_nrf52832_xxAA_s132_6.1.1.dir/__/__/models/foundation/config/src/config_server.c.obj
 .text.handle_config_gatt_proxy_get
                0x00034614       0x30 examples/enocean_switch/CMakeFiles/enocean_switch_nrf52832_xxAA_s132_6.1.1.dir/__/__/models/foundation/config/src/config_server.c.obj
 .text.handle_node_identity_get
                0x00034644       0x64 examples/enocean_switch/CMakeFiles/enocean_switch_nrf52832_xxAA_s132_6.1.1.dir/__/__/models/foundation/config/src/config_server.c.obj
 .text.handle_netkey_get
                0x000346a8       0x50 examples/enocean_switch/CMakeFiles/enocean_switch_nrf52832_xxAA_s132_6.1.1.dir/__/__/models/foundation/config/src/config_server.c.obj
 .text.handle_appkey_get
                0x000346f8       0x82 examples/enocean_switch/CMakeFiles/enocean_switch_nrf52832_xxAA_s132_6.1.1.dir/__/__/models/foundation/config/src/config_server.c.obj
 .text.status_error_pub_send
                0x0003477a       0x90 examples/enocean_switch/CMakeFiles/enocean_switch_nrf52832_xxAA_s132_6.1.1.dir/__/__/models/foundation/config/src/config_server.c.obj
 .text.handle_config_gatt_proxy_set
                0x0003480a       0x52 examples/enocean_switch/CMakeFiles/enocean_switch_nrf52832_xxAA_s132_6.1.1.dir/__/__/models/foundation/config/src/config_server.c.obj
 .text.handle_config_default_ttl_get
                0x0003485c       0x30 examples/enocean_switch/CMakeFiles/enocean_switch_nrf52832_xxAA_s132_6.1.1.dir/__/__/models/foundation/config/src/config_server.c.obj
 .text.handle_config_beacon_set
                0x0003488c       0x42 examples/enocean_switch/CMakeFiles/enocean_switch_nrf52832_xxAA_s132_6.1.1.dir/__/__/models/foundation/config/src/config_server.c.obj
 .text.handle_composition_data_get
                0x000348ce       0x44 examples/enocean_switch/CMakeFiles/enocean_switch_nrf52832_xxAA_s132_6.1.1.dir/__/__/models/foundation/config/src/config_server.c.obj
 *fill*         0x00034912        0x2 
 .text.handle_appkey_add
                0x00034914      0x140 examples/enocean_switch/CMakeFiles/enocean_switch_nrf52832_xxAA_s132_6.1.1.dir/__/__/models/foundation/config/src/config_server.c.obj
 .text.get_subscription_list.constprop.25
                0x00034a54       0x4e examples/enocean_switch/CMakeFiles/enocean_switch_nrf52832_xxAA_s132_6.1.1.dir/__/__/models/foundation/config/src/config_server.c.obj
 .text.handle_config_sig_model_subscription_get
                0x00034aa2       0xa2 examples/enocean_switch/CMakeFiles/enocean_switch_nrf52832_xxAA_s132_6.1.1.dir/__/__/models/foundation/config/src/config_server.c.obj
 .text.heartbeat_subscription_count_encode
                0x00034b44       0x32 examples/enocean_switch/CMakeFiles/enocean_switch_nrf52832_xxAA_s132_6.1.1.dir/__/__/models/foundation/config/src/config_server.c.obj
 .text.heartbeat_pubsub_period_encode
                0x00034b76       0x26 examples/enocean_switch/CMakeFiles/enocean_switch_nrf52832_xxAA_s132_6.1.1.dir/__/__/models/foundation/config/src/config_server.c.obj
 .text.handle_heartbeat_publication_get
                0x00034b9c       0x8a examples/enocean_switch/CMakeFiles/enocean_switch_nrf52832_xxAA_s132_6.1.1.dir/__/__/models/foundation/config/src/config_server.c.obj
 .text.handle_heartbeat_subscription_get
                0x00034c26       0x84 examples/enocean_switch/CMakeFiles/enocean_switch_nrf52832_xxAA_s132_6.1.1.dir/__/__/models/foundation/config/src/config_server.c.obj
 .text.handle_appkey_update
                0x00034caa       0xbc examples/enocean_switch/CMakeFiles/enocean_switch_nrf52832_xxAA_s132_6.1.1.dir/__/__/models/foundation/config/src/config_server.c.obj
 .text.handle_appkey_delete
                0x00034d66       0xc2 examples/enocean_switch/CMakeFiles/enocean_switch_nrf52832_xxAA_s132_6.1.1.dir/__/__/models/foundation/config/src/config_server.c.obj
 .text.handle_heartbeat_subscription_set
                0x00034e28       0xa8 examples/enocean_switch/CMakeFiles/enocean_switch_nrf52832_xxAA_s132_6.1.1.dir/__/__/models/foundation/config/src/config_server.c.obj
 .text.handle_config_model_publication_get
                0x00034ed0       0x8c examples/enocean_switch/CMakeFiles/enocean_switch_nrf52832_xxAA_s132_6.1.1.dir/__/__/models/foundation/config/src/config_server.c.obj
 .text.handle_config_model_subscription_delete_all
                0x00034f5c       0xc2 examples/enocean_switch/CMakeFiles/enocean_switch_nrf52832_xxAA_s132_6.1.1.dir/__/__/models/foundation/config/src/config_server.c.obj
 .text.handle_config_model_subscription_virtual_address_delete
                0x0003501e      0x108 examples/enocean_switch/CMakeFiles/enocean_switch_nrf52832_xxAA_s132_6.1.1.dir/__/__/models/foundation/config/src/config_server.c.obj
 .text.handle_config_model_subscription_virtual_address_add
                0x00035126      0x106 examples/enocean_switch/CMakeFiles/enocean_switch_nrf52832_xxAA_s132_6.1.1.dir/__/__/models/foundation/config/src/config_server.c.obj
 .text.handle_config_model_subscription_delete
                0x0003522c      0x10e examples/enocean_switch/CMakeFiles/enocean_switch_nrf52832_xxAA_s132_6.1.1.dir/__/__/models/foundation/config/src/config_server.c.obj
 .text.handle_config_model_subscription_add
                0x0003533a      0x112 examples/enocean_switch/CMakeFiles/enocean_switch_nrf52832_xxAA_s132_6.1.1.dir/__/__/models/foundation/config/src/config_server.c.obj
 .text.handle_config_model_subscription_virtual_address_overwrite
                0x0003544c      0x120 examples/enocean_switch/CMakeFiles/enocean_switch_nrf52832_xxAA_s132_6.1.1.dir/__/__/models/foundation/config/src/config_server.c.obj
 .text.handle_model_app_get
                0x0003556c      0x19c examples/enocean_switch/CMakeFiles/enocean_switch_nrf52832_xxAA_s132_6.1.1.dir/__/__/models/foundation/config/src/config_server.c.obj
 .text.handle_config_model_subscription_overwrite
                0x00035708      0x11a examples/enocean_switch/CMakeFiles/enocean_switch_nrf52832_xxAA_s132_6.1.1.dir/__/__/models/foundation/config/src/config_server.c.obj
 .text.handle_config_vendor_model_subscription_get
                0x00035822       0xde examples/enocean_switch/CMakeFiles/enocean_switch_nrf52832_xxAA_s132_6.1.1.dir/__/__/models/foundation/config/src/config_server.c.obj
 .text.handle_model_app_bind_unbind
                0x00035900      0x1ec examples/enocean_switch/CMakeFiles/enocean_switch_nrf52832_xxAA_s132_6.1.1.dir/__/__/models/foundation/config/src/config_server.c.obj
 .text.handle_config_model_publication_set
                0x00035aec      0x2d6 examples/enocean_switch/CMakeFiles/enocean_switch_nrf52832_xxAA_s132_6.1.1.dir/__/__/models/foundation/config/src/config_server.c.obj
 *fill*         0x00035dc2        0x2 
 .text.config_server_init
                0x00035dc4       0x60 examples/enocean_switch/CMakeFiles/enocean_switch_nrf52832_xxAA_s132_6.1.1.dir/__/__/models/foundation/config/src/config_server.c.obj
                0x00035dc4                config_server_init
 .text.config_server_bind
                0x00035e24       0x10 examples/enocean_switch/CMakeFiles/enocean_switch_nrf52832_xxAA_s132_6.1.1.dir/__/__/models/foundation/config/src/config_server.c.obj
                0x00035e24                config_server_bind
 .text.packed_index_list_create
                0x00035e34       0x32 examples/enocean_switch/CMakeFiles/enocean_switch_nrf52832_xxAA_s132_6.1.1.dir/__/__/models/foundation/config/src/packed_index_list.c.obj
                0x00035e34                packed_index_list_create
 *fill*         0x00035e66        0x2 
 .text.health_server_fpd_get
                0x00035e68       0x20 examples/enocean_switch/CMakeFiles/enocean_switch_nrf52832_xxAA_s132_6.1.1.dir/__/__/models/foundation/health/src/health_server.c.obj
 .text.health_server_fpd_delete
                0x00035e88       0x20 examples/enocean_switch/CMakeFiles/enocean_switch_nrf52832_xxAA_s132_6.1.1.dir/__/__/models/foundation/health/src/health_server.c.obj
 .text.attention_timer_handler
                0x00035ea8       0x5c examples/enocean_switch/CMakeFiles/enocean_switch_nrf52832_xxAA_s132_6.1.1.dir/__/__/models/foundation/health/src/health_server.c.obj
 .text.send_attention_status
                0x00035f04       0x44 examples/enocean_switch/CMakeFiles/enocean_switch_nrf52832_xxAA_s132_6.1.1.dir/__/__/models/foundation/health/src/health_server.c.obj
 .text.handle_attention_get
                0x00035f48        0xc examples/enocean_switch/CMakeFiles/enocean_switch_nrf52832_xxAA_s132_6.1.1.dir/__/__/models/foundation/health/src/health_server.c.obj
 .text.send_period_status
                0x00035f54       0x40 examples/enocean_switch/CMakeFiles/enocean_switch_nrf52832_xxAA_s132_6.1.1.dir/__/__/models/foundation/health/src/health_server.c.obj
 .text.handle_period_get
                0x00035f94        0xc examples/enocean_switch/CMakeFiles/enocean_switch_nrf52832_xxAA_s132_6.1.1.dir/__/__/models/foundation/health/src/health_server.c.obj
 .text.attention_timer_set.part.1
                0x00035fa0       0x84 examples/enocean_switch/CMakeFiles/enocean_switch_nrf52832_xxAA_s132_6.1.1.dir/__/__/models/foundation/health/src/health_server.c.obj
 .text.handle_attention_set
                0x00036024       0x32 examples/enocean_switch/CMakeFiles/enocean_switch_nrf52832_xxAA_s132_6.1.1.dir/__/__/models/foundation/health/src/health_server.c.obj
 *fill*         0x00036056        0x2 
 .text.handle_period_set
                0x00036058       0x68 examples/enocean_switch/CMakeFiles/enocean_switch_nrf52832_xxAA_s132_6.1.1.dir/__/__/models/foundation/health/src/health_server.c.obj
 .text.bitfield_next_get.part.0.constprop.10
                0x000360c0       0x44 examples/enocean_switch/CMakeFiles/enocean_switch_nrf52832_xxAA_s132_6.1.1.dir/__/__/models/foundation/health/src/health_server.c.obj
 .text.send_fault_status
                0x00036104       0x8c examples/enocean_switch/CMakeFiles/enocean_switch_nrf52832_xxAA_s132_6.1.1.dir/__/__/models/foundation/health/src/health_server.c.obj
 .text.health_publish_timeout_handler
                0x00036190        0xa examples/enocean_switch/CMakeFiles/enocean_switch_nrf52832_xxAA_s132_6.1.1.dir/__/__/models/foundation/health/src/health_server.c.obj
 .text.handle_fault_test
                0x0003619a       0x66 examples/enocean_switch/CMakeFiles/enocean_switch_nrf52832_xxAA_s132_6.1.1.dir/__/__/models/foundation/health/src/health_server.c.obj
 .text.handle_fault_get
                0x00036200       0x32 examples/enocean_switch/CMakeFiles/enocean_switch_nrf52832_xxAA_s132_6.1.1.dir/__/__/models/foundation/health/src/health_server.c.obj
 .text.handle_fault_clear
                0x00036232       0x48 examples/enocean_switch/CMakeFiles/enocean_switch_nrf52832_xxAA_s132_6.1.1.dir/__/__/models/foundation/health/src/health_server.c.obj
 .text.health_server_fault_count_get
                0x0003627a       0x2c examples/enocean_switch/CMakeFiles/enocean_switch_nrf52832_xxAA_s132_6.1.1.dir/__/__/models/foundation/health/src/health_server.c.obj
                0x0003627a                health_server_fault_count_get
 *fill*         0x000362a6        0x2 
 .text.health_server_fpd_set
                0x000362a8       0x44 examples/enocean_switch/CMakeFiles/enocean_switch_nrf52832_xxAA_s132_6.1.1.dir/__/__/models/foundation/health/src/health_server.c.obj
 .text.health_server_init
                0x000362ec       0x78 examples/enocean_switch/CMakeFiles/enocean_switch_nrf52832_xxAA_s132_6.1.1.dir/__/__/models/foundation/health/src/health_server.c.obj
                0x000362ec                health_server_init
 .text.add_to_publication_list
                0x00036364       0x78 examples/enocean_switch/CMakeFiles/enocean_switch_nrf52832_xxAA_s132_6.1.1.dir/__/__/mesh/access/src/access_publish.c.obj
 .text.step_resolution_to_us
                0x000363dc       0x38 examples/enocean_switch/CMakeFiles/enocean_switch_nrf52832_xxAA_s132_6.1.1.dir/__/__/mesh/access/src/access_publish.c.obj
 .text.schedule_publication_timer
                0x00036414      0x184 examples/enocean_switch/CMakeFiles/enocean_switch_nrf52832_xxAA_s132_6.1.1.dir/__/__/mesh/access/src/access_publish.c.obj
 .text.publish_timer_tick
                0x00036598       0xa8 examples/enocean_switch/CMakeFiles/enocean_switch_nrf52832_xxAA_s132_6.1.1.dir/__/__/mesh/access/src/access_publish.c.obj
 .text.access_publish_init
                0x00036640       0x38 examples/enocean_switch/CMakeFiles/enocean_switch_nrf52832_xxAA_s132_6.1.1.dir/__/__/mesh/access/src/access_publish.c.obj
                0x00036640                access_publish_init
 .text.access_publish_period_set
                0x00036678       0x60 examples/enocean_switch/CMakeFiles/enocean_switch_nrf52832_xxAA_s132_6.1.1.dir/__/__/mesh/access/src/access_publish.c.obj
                0x00036678                access_publish_period_set
 .text.get_next_timeout_index
                0x000366d8       0x40 examples/enocean_switch/CMakeFiles/enocean_switch_nrf52832_xxAA_s132_6.1.1.dir/__/__/mesh/access/src/access_publish_retransmission.c.obj
 .text.message_remove
                0x00036718       0x5c examples/enocean_switch/CMakeFiles/enocean_switch_nrf52832_xxAA_s132_6.1.1.dir/__/__/mesh/access/src/access_publish_retransmission.c.obj
 .text.retransmissions_timer_cb
                0x00036774       0xc8 examples/enocean_switch/CMakeFiles/enocean_switch_nrf52832_xxAA_s132_6.1.1.dir/__/__/mesh/access/src/access_publish_retransmission.c.obj
 .text.access_publish_retransmission_init
                0x0003683c       0x24 examples/enocean_switch/CMakeFiles/enocean_switch_nrf52832_xxAA_s132_6.1.1.dir/__/__/mesh/access/src/access_publish_retransmission.c.obj
                0x0003683c                access_publish_retransmission_init
 .text.access_publish_retransmission_message_add
                0x00036860       0xf8 examples/enocean_switch/CMakeFiles/enocean_switch_nrf52832_xxAA_s132_6.1.1.dir/__/__/mesh/access/src/access_publish_retransmission.c.obj
                0x00036860                access_publish_retransmission_message_add
 .text.bitfield_get
                0x00036958       0x1a examples/enocean_switch/CMakeFiles/enocean_switch_nrf52832_xxAA_s132_6.1.1.dir/__/__/mesh/access/src/access.c.obj
 .text.is_valid_opcode
                0x00036972       0x42 examples/enocean_switch/CMakeFiles/enocean_switch_nrf52832_xxAA_s132_6.1.1.dir/__/__/mesh/access/src/access.c.obj
 .text.model_handle_valid_and_allocated
                0x000369b4       0x20 examples/enocean_switch/CMakeFiles/enocean_switch_nrf52832_xxAA_s132_6.1.1.dir/__/__/mesh/access/src/access.c.obj
 .text.flash_manager_mem_available
                0x000369d4        0x2 examples/enocean_switch/CMakeFiles/enocean_switch_nrf52832_xxAA_s132_6.1.1.dir/__/__/mesh/access/src/access.c.obj
 *fill*         0x000369d6        0x2 
 .text.restore_acquired_subscription
                0x000369d8       0x30 examples/enocean_switch/CMakeFiles/enocean_switch_nrf52832_xxAA_s132_6.1.1.dir/__/__/mesh/access/src/access.c.obj
 .text.restore_acquired_element
                0x00036a08       0x24 examples/enocean_switch/CMakeFiles/enocean_switch_nrf52832_xxAA_s132_6.1.1.dir/__/__/mesh/access/src/access.c.obj
 .text.restore_flash_data
                0x00036a2c       0x28 examples/enocean_switch/CMakeFiles/enocean_switch_nrf52832_xxAA_s132_6.1.1.dir/__/__/mesh/access/src/access.c.obj
 .text.check_tx_params
                0x00036a54       0x5c examples/enocean_switch/CMakeFiles/enocean_switch_nrf52832_xxAA_s132_6.1.1.dir/__/__/mesh/access/src/access.c.obj
 .text.flash_invalidate_complete
                0x00036ab0        0x6 examples/enocean_switch/CMakeFiles/enocean_switch_nrf52832_xxAA_s132_6.1.1.dir/__/__/mesh/access/src/access.c.obj
 *fill*         0x00036ab6        0x2 
 .text.access_flash_config_clear
                0x00036ab8       0x3c examples/enocean_switch/CMakeFiles/enocean_switch_nrf52832_xxAA_s132_6.1.1.dir/__/__/mesh/access/src/access.c.obj
 .text.access_state_clear
                0x00036af4       0x4c examples/enocean_switch/CMakeFiles/enocean_switch_nrf52832_xxAA_s132_6.1.1.dir/__/__/mesh/access/src/access.c.obj
 .text.packet_tx
                0x00036b40      0x204 examples/enocean_switch/CMakeFiles/enocean_switch_nrf52832_xxAA_s132_6.1.1.dir/__/__/mesh/access/src/access.c.obj
 .text.access_flash_config_store
                0x00036d44      0x164 examples/enocean_switch/CMakeFiles/enocean_switch_nrf52832_xxAA_s132_6.1.1.dir/__/__/mesh/access/src/access.c.obj
                0x00036d44                access_flash_config_store
 .text.flash_write_complete
                0x00036ea8       0x46 examples/enocean_switch/CMakeFiles/enocean_switch_nrf52832_xxAA_s132_6.1.1.dir/__/__/mesh/access/src/access.c.obj
 *fill*         0x00036eee        0x2 
 .text.bitfield_next_get.part.0.constprop.8
                0x00036ef0       0x34 examples/enocean_switch/CMakeFiles/enocean_switch_nrf52832_xxAA_s132_6.1.1.dir/__/__/mesh/access/src/access.c.obj
 .text.packet_alloc_and_tx
                0x00036f24       0xbe examples/enocean_switch/CMakeFiles/enocean_switch_nrf52832_xxAA_s132_6.1.1.dir/__/__/mesh/access/src/access.c.obj
 *fill*         0x00036fe2        0x2 
 .text.restore_acquired_model
                0x00036fe4       0x90 examples/enocean_switch/CMakeFiles/enocean_switch_nrf52832_xxAA_s132_6.1.1.dir/__/__/mesh/access/src/access.c.obj
 .text.access_flash_config_load
                0x00037074      0x1b4 examples/enocean_switch/CMakeFiles/enocean_switch_nrf52832_xxAA_s132_6.1.1.dir/__/__/mesh/access/src/access.c.obj
                0x00037074                access_flash_config_load
 .text.access_incoming_handle
                0x00037228      0x1ac examples/enocean_switch/CMakeFiles/enocean_switch_nrf52832_xxAA_s132_6.1.1.dir/__/__/mesh/access/src/access.c.obj
                0x00037228                access_incoming_handle
 .text.mesh_msg_handle
                0x000373d4      0x1cc examples/enocean_switch/CMakeFiles/enocean_switch_nrf52832_xxAA_s132_6.1.1.dir/__/__/mesh/access/src/access.c.obj
 .text.mesh_evt_cb
                0x000375a0        0xc examples/enocean_switch/CMakeFiles/enocean_switch_nrf52832_xxAA_s132_6.1.1.dir/__/__/mesh/access/src/access.c.obj
 .text.access_packet_tx
                0x000375ac       0x32 examples/enocean_switch/CMakeFiles/enocean_switch_nrf52832_xxAA_s132_6.1.1.dir/__/__/mesh/access/src/access.c.obj
                0x000375ac                access_packet_tx
 .text.access_clear
                0x000375de       0x12 examples/enocean_switch/CMakeFiles/enocean_switch_nrf52832_xxAA_s132_6.1.1.dir/__/__/mesh/access/src/access.c.obj
                0x000375de                access_clear
 .text.access_model_add
                0x000375f0      0x1b0 examples/enocean_switch/CMakeFiles/enocean_switch_nrf52832_xxAA_s132_6.1.1.dir/__/__/mesh/access/src/access.c.obj
                0x000375f0                access_model_add
 .text.access_model_publish
                0x000377a0       0x58 examples/enocean_switch/CMakeFiles/enocean_switch_nrf52832_xxAA_s132_6.1.1.dir/__/__/mesh/access/src/access.c.obj
                0x000377a0                access_model_publish
 .text.access_model_reply
                0x000377f8       0x1c examples/enocean_switch/CMakeFiles/enocean_switch_nrf52832_xxAA_s132_6.1.1.dir/__/__/mesh/access/src/access.c.obj
                0x000377f8                access_model_reply
 .text.access_model_publish_address_set
                0x00037814       0x3c examples/enocean_switch/CMakeFiles/enocean_switch_nrf52832_xxAA_s132_6.1.1.dir/__/__/mesh/access/src/access.c.obj
                0x00037814                access_model_publish_address_set
 .text.access_model_publish_address_get
                0x00037850       0x28 examples/enocean_switch/CMakeFiles/enocean_switch_nrf52832_xxAA_s132_6.1.1.dir/__/__/mesh/access/src/access.c.obj
                0x00037850                access_model_publish_address_get
 .text.access_model_publish_retransmit_set
                0x00037878       0x4c examples/enocean_switch/CMakeFiles/enocean_switch_nrf52832_xxAA_s132_6.1.1.dir/__/__/mesh/access/src/access.c.obj
                0x00037878                access_model_publish_retransmit_set
 .text.access_model_publish_retransmit_get
                0x000378c4       0x2c examples/enocean_switch/CMakeFiles/enocean_switch_nrf52832_xxAA_s132_6.1.1.dir/__/__/mesh/access/src/access.c.obj
                0x000378c4                access_model_publish_retransmit_get
 .text.access_model_publish_period_get
                0x000378f0       0x40 examples/enocean_switch/CMakeFiles/enocean_switch_nrf52832_xxAA_s132_6.1.1.dir/__/__/mesh/access/src/access.c.obj
                0x000378f0                access_model_publish_period_get
 .text.access_publish_timing_update
                0x00037930       0xc0 examples/enocean_switch/CMakeFiles/enocean_switch_nrf52832_xxAA_s132_6.1.1.dir/__/__/mesh/access/src/access.c.obj
 .text.access_model_publish_period_divisor_set
                0x000379f0       0x38 examples/enocean_switch/CMakeFiles/enocean_switch_nrf52832_xxAA_s132_6.1.1.dir/__/__/mesh/access/src/access.c.obj
                0x000379f0                access_model_publish_period_divisor_set
 .text.access_model_publish_period_set
                0x00037a28       0x6c examples/enocean_switch/CMakeFiles/enocean_switch_nrf52832_xxAA_s132_6.1.1.dir/__/__/mesh/access/src/access.c.obj
                0x00037a28                access_model_publish_period_set
 .text.access_model_subscription_list_alloc
                0x00037a94       0x5c examples/enocean_switch/CMakeFiles/enocean_switch_nrf52832_xxAA_s132_6.1.1.dir/__/__/mesh/access/src/access.c.obj
                0x00037a94                access_model_subscription_list_alloc
 .text.access_model_subscription_add
                0x00037af0       0x60 examples/enocean_switch/CMakeFiles/enocean_switch_nrf52832_xxAA_s132_6.1.1.dir/__/__/mesh/access/src/access.c.obj
                0x00037af0                access_model_subscription_add
 .text.access_model_subscription_remove
                0x00037b50       0x60 examples/enocean_switch/CMakeFiles/enocean_switch_nrf52832_xxAA_s132_6.1.1.dir/__/__/mesh/access/src/access.c.obj
                0x00037b50                access_model_subscription_remove
 .text.access_model_subscriptions_get
                0x00037bb0       0x78 examples/enocean_switch/CMakeFiles/enocean_switch_nrf52832_xxAA_s132_6.1.1.dir/__/__/mesh/access/src/access.c.obj
                0x00037bb0                access_model_subscriptions_get
 .text.access_model_application_bind
                0x00037c28       0x50 examples/enocean_switch/CMakeFiles/enocean_switch_nrf52832_xxAA_s132_6.1.1.dir/__/__/mesh/access/src/access.c.obj
                0x00037c28                access_model_application_bind
 .text.access_model_application_unbind
                0x00037c78       0x50 examples/enocean_switch/CMakeFiles/enocean_switch_nrf52832_xxAA_s132_6.1.1.dir/__/__/mesh/access/src/access.c.obj
                0x00037c78                access_model_application_unbind
 .text.access_model_applications_get
                0x00037cc8       0x5c examples/enocean_switch/CMakeFiles/enocean_switch_nrf52832_xxAA_s132_6.1.1.dir/__/__/mesh/access/src/access.c.obj
                0x00037cc8                access_model_applications_get
 .text.access_model_publish_application_set
                0x00037d24       0x3c examples/enocean_switch/CMakeFiles/enocean_switch_nrf52832_xxAA_s132_6.1.1.dir/__/__/mesh/access/src/access.c.obj
                0x00037d24                access_model_publish_application_set
 .text.access_model_publish_application_get
                0x00037d60       0x28 examples/enocean_switch/CMakeFiles/enocean_switch_nrf52832_xxAA_s132_6.1.1.dir/__/__/mesh/access/src/access.c.obj
                0x00037d60                access_model_publish_application_get
 .text.access_default_ttl_set
                0x00037d88       0x18 examples/enocean_switch/CMakeFiles/enocean_switch_nrf52832_xxAA_s132_6.1.1.dir/__/__/mesh/access/src/access.c.obj
                0x00037d88                access_default_ttl_set
 .text.access_default_ttl_get
                0x00037da0        0xc examples/enocean_switch/CMakeFiles/enocean_switch_nrf52832_xxAA_s132_6.1.1.dir/__/__/mesh/access/src/access.c.obj
                0x00037da0                access_default_ttl_get
 .text.access_model_publish_friendship_credential_flag_set
                0x00037dac       0x38 examples/enocean_switch/CMakeFiles/enocean_switch_nrf52832_xxAA_s132_6.1.1.dir/__/__/mesh/access/src/access.c.obj
                0x00037dac                access_model_publish_friendship_credential_flag_set
 .text.access_model_publish_friendship_credential_flag_get
                0x00037de4       0x28 examples/enocean_switch/CMakeFiles/enocean_switch_nrf52832_xxAA_s132_6.1.1.dir/__/__/mesh/access/src/access.c.obj
                0x00037de4                access_model_publish_friendship_credential_flag_get
 .text.access_model_publish_ttl_set
                0x00037e0c       0x40 examples/enocean_switch/CMakeFiles/enocean_switch_nrf52832_xxAA_s132_6.1.1.dir/__/__/mesh/access/src/access.c.obj
                0x00037e0c                access_model_publish_ttl_set
 .text.access_model_publish_ttl_get
                0x00037e4c       0x28 examples/enocean_switch/CMakeFiles/enocean_switch_nrf52832_xxAA_s132_6.1.1.dir/__/__/mesh/access/src/access.c.obj
                0x00037e4c                access_model_publish_ttl_get
 .text.access_element_location_get
                0x00037e74       0x20 examples/enocean_switch/CMakeFiles/enocean_switch_nrf52832_xxAA_s132_6.1.1.dir/__/__/mesh/access/src/access.c.obj
                0x00037e74                access_element_location_get
 .text.access_element_sig_model_count_get
                0x00037e94       0x24 examples/enocean_switch/CMakeFiles/enocean_switch_nrf52832_xxAA_s132_6.1.1.dir/__/__/mesh/access/src/access.c.obj
                0x00037e94                access_element_sig_model_count_get
 .text.access_element_vendor_model_count_get
                0x00037eb8       0x24 examples/enocean_switch/CMakeFiles/enocean_switch_nrf52832_xxAA_s132_6.1.1.dir/__/__/mesh/access/src/access.c.obj
                0x00037eb8                access_element_vendor_model_count_get
 .text.access_model_id_get
                0x00037edc       0x2c examples/enocean_switch/CMakeFiles/enocean_switch_nrf52832_xxAA_s132_6.1.1.dir/__/__/mesh/access/src/access.c.obj
                0x00037edc                access_model_id_get
 .text.access_handle_get
                0x00037f08       0x60 examples/enocean_switch/CMakeFiles/enocean_switch_nrf52832_xxAA_s132_6.1.1.dir/__/__/mesh/access/src/access.c.obj
                0x00037f08                access_handle_get
 .text.access_element_models_get
                0x00037f68       0x5c examples/enocean_switch/CMakeFiles/enocean_switch_nrf52832_xxAA_s132_6.1.1.dir/__/__/mesh/access/src/access.c.obj
                0x00037f68                access_element_models_get
 .text.access_model_p_args_get
                0x00037fc4       0x28 examples/enocean_switch/CMakeFiles/enocean_switch_nrf52832_xxAA_s132_6.1.1.dir/__/__/mesh/access/src/access.c.obj
                0x00037fc4                access_model_p_args_get
 .text.access_model_publication_stop
                0x00037fec       0x58 examples/enocean_switch/CMakeFiles/enocean_switch_nrf52832_xxAA_s132_6.1.1.dir/__/__/mesh/access/src/access.c.obj
                0x00037fec                access_model_publication_stop
 .text.access_model_publication_by_appkey_stop
                0x00038044       0x36 examples/enocean_switch/CMakeFiles/enocean_switch_nrf52832_xxAA_s132_6.1.1.dir/__/__/mesh/access/src/access.c.obj
                0x00038044                access_model_publication_by_appkey_stop
 .text.access_flash_area_get
                0x0003807a        0xc examples/enocean_switch/CMakeFiles/enocean_switch_nrf52832_xxAA_s132_6.1.1.dir/__/__/mesh/access/src/access.c.obj
                0x0003807a                access_flash_area_get
 *fill*         0x00038086        0x2 
 .text.add_flash_manager
                0x00038088       0x54 examples/enocean_switch/CMakeFiles/enocean_switch_nrf52832_xxAA_s132_6.1.1.dir/__/__/mesh/access/src/access.c.obj
 .text.access_init
                0x000380dc       0x34 examples/enocean_switch/CMakeFiles/enocean_switch_nrf52832_xxAA_s132_6.1.1.dir/__/__/mesh/access/src/access.c.obj
                0x000380dc                access_init
 .text.flash_remove_complete
                0x00038110       0x60 examples/enocean_switch/CMakeFiles/enocean_switch_nrf52832_xxAA_s132_6.1.1.dir/__/__/mesh/access/src/access.c.obj
 .text.reliable_timer_cb
                0x00038170      0x18c examples/enocean_switch/CMakeFiles/enocean_switch_nrf52832_xxAA_s132_6.1.1.dir/__/__/mesh/access/src/access_reliable.c.obj
 .text.remove_and_reschedule
                0x000382fc       0xac examples/enocean_switch/CMakeFiles/enocean_switch_nrf52832_xxAA_s132_6.1.1.dir/__/__/mesh/access/src/access_reliable.c.obj
 .text.access_reliable_message_rx_cb
                0x000383a8       0x60 examples/enocean_switch/CMakeFiles/enocean_switch_nrf52832_xxAA_s132_6.1.1.dir/__/__/mesh/access/src/access_reliable.c.obj
                0x000383a8                access_reliable_message_rx_cb
 .text.access_reliable_model_is_free
                0x00038408       0x28 examples/enocean_switch/CMakeFiles/enocean_switch_nrf52832_xxAA_s132_6.1.1.dir/__/__/mesh/access/src/access_reliable.c.obj
                0x00038408                access_reliable_model_is_free
 .text.access_reliable_init
                0x00038430       0x1c examples/enocean_switch/CMakeFiles/enocean_switch_nrf52832_xxAA_s132_6.1.1.dir/__/__/mesh/access/src/access_reliable.c.obj
                0x00038430                access_reliable_init
 .text.access_reliable_cancel_all
                0x0003844c       0x5c examples/enocean_switch/CMakeFiles/enocean_switch_nrf52832_xxAA_s132_6.1.1.dir/__/__/mesh/access/src/access_reliable.c.obj
                0x0003844c                access_reliable_cancel_all
 .text.access_model_reliable_cancel
                0x000384a8       0x68 examples/enocean_switch/CMakeFiles/enocean_switch_nrf52832_xxAA_s132_6.1.1.dir/__/__/mesh/access/src/access_reliable.c.obj
                0x000384a8                access_model_reliable_cancel
 .text.access_model_reliable_publish
                0x00038510      0x1a0 examples/enocean_switch/CMakeFiles/enocean_switch_nrf52832_xxAA_s132_6.1.1.dir/__/__/mesh/access/src/access_reliable.c.obj
                0x00038510                access_model_reliable_publish
 .text.bitfield_get
                0x000386b0       0x1a examples/enocean_switch/CMakeFiles/enocean_switch_nrf52832_xxAA_s132_6.1.1.dir/__/__/mesh/access/src/device_state_manager.c.obj
 .text.bitfield_set
                0x000386ca       0x18 examples/enocean_switch/CMakeFiles/enocean_switch_nrf52832_xxAA_s132_6.1.1.dir/__/__/mesh/access/src/device_state_manager.c.obj
 .text.bitfield_clear
                0x000386e2       0x1a examples/enocean_switch/CMakeFiles/enocean_switch_nrf52832_xxAA_s132_6.1.1.dir/__/__/mesh/access/src/device_state_manager.c.obj
 .text.bitfield_is_all_clear
                0x000386fc       0x38 examples/enocean_switch/CMakeFiles/enocean_switch_nrf52832_xxAA_s132_6.1.1.dir/__/__/mesh/access/src/device_state_manager.c.obj
 .text.address_handle_virtual_valid
                0x00038734       0x18 examples/enocean_switch/CMakeFiles/enocean_switch_nrf52832_xxAA_s132_6.1.1.dir/__/__/mesh/access/src/device_state_manager.c.obj
 .text.net_key_handle_get
                0x0003874c       0x54 examples/enocean_switch/CMakeFiles/enocean_switch_nrf52832_xxAA_s132_6.1.1.dir/__/__/mesh/access/src/device_state_manager.c.obj
 .text.app_key_handle_get
                0x000387a0       0x54 examples/enocean_switch/CMakeFiles/enocean_switch_nrf52832_xxAA_s132_6.1.1.dir/__/__/mesh/access/src/device_state_manager.c.obj
 .text.addr_nonvirtual_to_flash_entry
                0x000387f4       0x10 examples/enocean_switch/CMakeFiles/enocean_switch_nrf52832_xxAA_s132_6.1.1.dir/__/__/mesh/access/src/device_state_manager.c.obj
 .text.devkey_set
                0x00038804       0x50 examples/enocean_switch/CMakeFiles/enocean_switch_nrf52832_xxAA_s132_6.1.1.dir/__/__/mesh/access/src/device_state_manager.c.obj
 .text.devkey_to_dsm_entry
                0x00038854       0x18 examples/enocean_switch/CMakeFiles/enocean_switch_nrf52832_xxAA_s132_6.1.1.dir/__/__/mesh/access/src/device_state_manager.c.obj
 .text.devkey_to_flash_entry
                0x0003886c       0x28 examples/enocean_switch/CMakeFiles/enocean_switch_nrf52832_xxAA_s132_6.1.1.dir/__/__/mesh/access/src/device_state_manager.c.obj
 .text.addr_virtual_to_flash_entry
                0x00038894       0x18 examples/enocean_switch/CMakeFiles/enocean_switch_nrf52832_xxAA_s132_6.1.1.dir/__/__/mesh/access/src/device_state_manager.c.obj
 .text.addr_unicast_to_dsm_entry
                0x000388ac        0xc examples/enocean_switch/CMakeFiles/enocean_switch_nrf52832_xxAA_s132_6.1.1.dir/__/__/mesh/access/src/device_state_manager.c.obj
 .text.addr_unicast_to_flash_entry
                0x000388b8       0x10 examples/enocean_switch/CMakeFiles/enocean_switch_nrf52832_xxAA_s132_6.1.1.dir/__/__/mesh/access/src/device_state_manager.c.obj
 .text.flash_read_callback
                0x000388c8       0xa8 examples/enocean_switch/CMakeFiles/enocean_switch_nrf52832_xxAA_s132_6.1.1.dir/__/__/mesh/access/src/device_state_manager.c.obj
 .text.flash_mem_listener_callback
                0x00038970       0x14 examples/enocean_switch/CMakeFiles/enocean_switch_nrf52832_xxAA_s132_6.1.1.dir/__/__/mesh/access/src/device_state_manager.c.obj
 .text.get_subnet_handle
                0x00038984       0x3c examples/enocean_switch/CMakeFiles/enocean_switch_nrf52832_xxAA_s132_6.1.1.dir/__/__/mesh/access/src/device_state_manager.c.obj
 .text.appkey_set
                0x000389c0       0x70 examples/enocean_switch/CMakeFiles/enocean_switch_nrf52832_xxAA_s132_6.1.1.dir/__/__/mesh/access/src/device_state_manager.c.obj
 .text.appkey_to_flash_entry
                0x00038a30       0x54 examples/enocean_switch/CMakeFiles/enocean_switch_nrf52832_xxAA_s132_6.1.1.dir/__/__/mesh/access/src/device_state_manager.c.obj
 .text.subnet_to_flash_entry
                0x00038a84       0x60 examples/enocean_switch/CMakeFiles/enocean_switch_nrf52832_xxAA_s132_6.1.1.dir/__/__/mesh/access/src/device_state_manager.c.obj
 .text.bitfield_clear_all
                0x00038ae4        0xe examples/enocean_switch/CMakeFiles/enocean_switch_nrf52832_xxAA_s132_6.1.1.dir/__/__/mesh/access/src/device_state_manager.c.obj
 *fill*         0x00038af2        0x2 
 .text.subnet_set
                0x00038af4       0xac examples/enocean_switch/CMakeFiles/enocean_switch_nrf52832_xxAA_s132_6.1.1.dir/__/__/mesh/access/src/device_state_manager.c.obj
 .text.virtual_address_set
                0x00038ba0       0x4c examples/enocean_switch/CMakeFiles/enocean_switch_nrf52832_xxAA_s132_6.1.1.dir/__/__/mesh/access/src/device_state_manager.c.obj
 .text.addr_virtual_to_dsm_entry
                0x00038bec        0xe examples/enocean_switch/CMakeFiles/enocean_switch_nrf52832_xxAA_s132_6.1.1.dir/__/__/mesh/access/src/device_state_manager.c.obj
 *fill*         0x00038bfa        0x2 
 .text.reset_flash_area
                0x00038bfc       0x28 examples/enocean_switch/CMakeFiles/enocean_switch_nrf52832_xxAA_s132_6.1.1.dir/__/__/mesh/access/src/device_state_manager.c.obj
 .text.flash_save
                0x00038c24       0x7c examples/enocean_switch/CMakeFiles/enocean_switch_nrf52832_xxAA_s132_6.1.1.dir/__/__/mesh/access/src/device_state_manager.c.obj
 .text.flash_invalidate
                0x00038ca0       0x64 examples/enocean_switch/CMakeFiles/enocean_switch_nrf52832_xxAA_s132_6.1.1.dir/__/__/mesh/access/src/device_state_manager.c.obj
 .text.flash_update_all
                0x00038d04       0x6c examples/enocean_switch/CMakeFiles/enocean_switch_nrf52832_xxAA_s132_6.1.1.dir/__/__/mesh/access/src/device_state_manager.c.obj
 .text.add_address
                0x00038d70      0x108 examples/enocean_switch/CMakeFiles/enocean_switch_nrf52832_xxAA_s132_6.1.1.dir/__/__/mesh/access/src/device_state_manager.c.obj
 .text.virtual_address_uuid_index_get
                0x00038e78       0x60 examples/enocean_switch/CMakeFiles/enocean_switch_nrf52832_xxAA_s132_6.1.1.dir/__/__/mesh/access/src/device_state_manager.c.obj
 .text.add_address_virtual
                0x00038ed8       0x74 examples/enocean_switch/CMakeFiles/enocean_switch_nrf52832_xxAA_s132_6.1.1.dir/__/__/mesh/access/src/device_state_manager.c.obj
 .text.get_subnet_handle_by_beacon_info
