:020000022000DC
:1060000000FD0020DDE9030005EA030007EA0300C4
:1060100009EA03000BEA03000DEA03000000000098
:106020000000000000000000000000000FEA030074
:1060300011EA03000000000013EA030015EA030060
:1060400017EA030017EA030017EA030017EA030040
:1060500017EA030017EA03007D72020017EA030043
:1060600017EA030017EA0300E109030017EA030037
:1060700017EA030017EA030017EA030017EA030010
:1060800017EA030005A203008DC4020017EA03000B
:10609000D5A2030017EA03001D7F020017EA0300E0
:1060A00017EA030017EA030017EA030017EA0300E0
:1060B00017EA030017EA03000000000000000000D8
:1060C00017EA030017EA030017EA030017EA0300C0
:1060D00017EA030017EA030017EA030000000000B4
:1060E00000000000000000000000000000000000B0
:1060F00000000000000000000000000000000000A0
:10610000000000000000000000000000000000008F
:10611000000000000000000000000000000000007F
:10612000000000000000000000000000000000006F
:10613000000000000000000000000000000000005F
:10614000000000000000000000000000000000004F
:10615000000000000000000000000000000000003F
:10616000000000000000000000000000000000002F
:10617000000000000000000000000000000000001F
:10618000000000000000000000000000000000000F
:1061900000000000000000000000000000000000FF
:1061A00000000000000000000000000000000000EF
:1061B00000000000000000000000000000000000DF
:1061C00000000000000000000000000000000000CF
:1061D00000000000000000000000000000000000BF
:1061E00000000000000000000000000000000000AF
:1061F000000000000000000000000000000000009F
:1062000010B5054C237833B9044B13B10448AFF3F0
:1062100000800123237010BD702F002000000000BB
:10622000C41E040008B5034B1BB103490348AFF378
:10623000008008BD00000000742F0020C41E040070
:10624000154B002B08BF134B9D46A3F5803A002148
:106250008B460F461348144A121A19F0C3FF0F4B0E
:10626000002B00D098470E4B002B00D09847002001
:10627000002104000D000D48002802D00C48AFF3A7
:10628000008019F061FF2000290000F029FA19F0C0
:1062900047FF00BF0000080000FD002000000000D4
:1062A00000000000702F00200C61002000000000A2
:1062B0000000000041DF704710B511200C4600F0CF
:1062C00025FF207010BD000013B5164B1B685B0442
:1062D0000C4617D5144B1B68032B13DD2F211348D5
:1062E0001AF050F8A8B12F2110481AF04BF8411CB1
:1062F0000F4B104AD3F80435009201946022042019
:1063000007F0ECF82146112002B0BDE8104000F083
:1063100009BF5C2105481AF035F808B15C21E3E7B4
:106320000249E5E7782E0020742E00201C040400AA
:10633000001001404704040007B5174B1B685B04BD
:1063400016D5164B1B68032B12DD2F2114481AF0AB
:1063500019F8C0B12F2112481AF014F8411C114B42
:10636000114AD3F8043500920420782207F0B6F8D9
:106370000322C8214FF4F01000F0EAFE03B05DF8EC
:1063800004EB00F01BBD5C21054819F0FBFF08B1D0
:106390005C21E0E70249E2E7782E0020742E00201D
:1063A0001C040400001001402705040073B54A4D89
:1063B0002B685904044640F18880484E3268032A0D
:1063C00040F386802F21464819F0DCFFF0B12F21E1
:1063D000434819F0D7FF411C424B434AD3F80435D8
:1063E000009201948822042007F078F8BCB1032CB5
:1063F00060D100F086FC002842D00CF05BFC00F07D
:1064000075FC02B0BDE87040FFF796BF5C213448D0
:1064100019F0B8FF08B15C21DAE73149DCE72B68F5
:106420005A0415D53368032B12DD2F212C4819F09F
:10643000A9FFE0B12F212A4819F0A4FF411C294BE4
:106440002A4AD3F8043500920420902207F046F837
:10645000112000F05BFE80F00101C9B2112000F0B4
:1064600061FE234802B0BDE8704000F081BB5C21B2
:106470001B4819F087FF08B15C21DCE71849DEE70B
:106480002B685B0416D5154B1B68032B12DD2F21DF
:10649000134819F077FF78B12F21114819F072FFD6
:1064A000411C104B134AD3F8043500920420A42257
:1064B00007F014F802B070BD5C21094819F062FFC2
:1064C00008B15C21E9E70649EBE700288FD1BFE777
:1064D00000288CD1A6E700BF782E0020742E002063
:1064E0001C040400001001405F0404007204040056
:1064F000A02D0020800404003038042801D8FFF7C4
:1065000055BF704703781C2B01D1FFF715BF7047AB
:1065100013B52B4C2268520417D52A4B1B68032B4A
:1065200013DD2F21284819F02DFF002835D02F2109
:10653000254819F027FF411C244B254AD3F8043580
:1065400000920420DA2206F0C9FF0021214800F061
:1065500031FB18B11C4A702118F06BFA23685B04F8
:1065600019D5184B1B68032B15DD2F21164819F080
:1065700009FFD8B12F21144819F004FF411C154A16
:10658000124B1288D3F804350192134A009204206A
:10659000712206F0A3FF02B010BD5C210A4819F079
:1065A000F1FE08B15C21C3E70749C5E75C21064855
:1065B00019F0E8FE08B15C21DDE70349DFE700BF21
:1065C000782E0020742E00201C04040000100140CE
:1065D000EB040400A02D00200B05040010B50446B8
:1065E00000214FF4F01004EB840400F0A7FD6200DA
:1065F00032214FF4C010BDE8104000F0A9BD00F0FA
:10660000D9BD00001FB5304C2268520417D52F4B5E
:106610001B68032B13DD2F212D4819F0B3FE002832
:1066200040D02F212A4819F0ADFE411C294B2A4A9F
:10663000D3F8043500920420C62206F04FFF00F084
:10664000E5FF01F00BF803A812F0A2FB23685B043E
:1066500019D51E4B1B68032B15DD2F211C4819F083
:1066600091FE40B32F211A4819F08CFE411C194BA2
:10667000BDF80C20D3F804350192184A009204208A
:10668000D12206F02BFF00F095FD00214FF4F01011
:1066900000F054FD0422C8214FF4F01000F058FD22
:1066A00004B010BD5C210A4819F06CFE08B15C21F1
:1066B000B8E70749BAE75C21054819F063FE08B15D
:1066C0005C21D0E70249D2E7782E0020742E00200A
:1066D0001C04040000100140400504005A05040099
:1066E00000B5484A8DB005214FF4103006F0DAFEAF
:1066F000454B1B685B0417D5444B1B68032B13DD0C
:106700002F21434819F03EFE002871D02F21404828
:1067100019F038FE411C3F4B3F4AD3F80435009234
:106720000420EE2206F0DAFE13F01EFF18B1384AFC
:10673000F02118F07EF900F04DFD384800F076FDAC
:1067400018B1334AF42118F074F900F045FF00F055
:106750005DFF00F083FF0021202203A819F042FD15
:1067600001238DF80C3007238DF80F3006238DF8A8
:1067700014302B4B07932B492B4B0B9303A800F0A2
:10678000CDFA18B1224AE82118F053F964212748BC
:1067900000F05CFC234B1B7883B9254D0FCD03AC77
:1067A0000FC495E8030084E8030003A800F0F6FB9B
:1067B00020B1174A40F2111118F03BF901F02AFEFE
:1067C00000F08CFD00F0EAFA20B1114A4FF48B7111
:1067D00018F02FF900214FF4F01000F0AFFC022266
:1067E000C8214FF4F01000F0B3FCFFF763FDFCE7A5
:1067F0005C21074819F0C6FD08B15C2187E7044910
:1068000089E700BF79D40200782E0020742E002082
:106810001C04040000100140BC040400AD6302002D
:10682000056502008C2F002011650200F96402004A
:106830000404040037B5244B1B685B04044615466A
:1068400016D5224B1B68032B12DD2F21204819F08F
:1068500099FD68B32F211E4819F094FD411C1D4B72
:106860001D4AD3F8043500920420AA2206F036FE11
:10687000A36B04F13C012046984794F83C302B7000
:1068800094F83D306B70236CE3B1626CD2B913F0B5
:106890002BFFA16C13F02EFF4FF47A735843236C37
:1068A000C00B83420DD360B1181A686003B030BDCD
:1068B0005C21074819F066FD08B15C21CBE704496B
:1068C000CDE700236B60F1E7782E0020742E0020C6
:1068D0009C05040000100140BF050400F7B5036BE0
:1068E0000446186813F0F0FE616C002933D04FF4B1
:1068F00000404FF4FA760027E0FB01674FF47A720C
:1069000000233046394619F08BFA236B01462246A4
:10691000186813F095FE0546DDB1264B1B685B0435
:1069200017D5254B1B68002B13DD2F21234819F0A9
:1069300029FD002834D02F21204819F023FD411CC7
:106940001F4B204AD3F8043500920120682206F03C
:10695000C5FD03B0F0BD216C0029FAD04FF4004012
:106960004FF4FA760027E0FB01674FF47A720023B8
:106970003046394619F054FA236B0146B1F1807F55
:106980001868224608D36FF07F4113F059FE054680
:1069900013F0AAFEA064BFE7042998BF0521F4E71D
:1069A0005C21064819F0EEFC08B15C21C4E70349FC
:1069B000C6E700BF782E0020742E00209C0504003E
:1069C00000100140E005040010B5436C88B0044697
:1069D000D3B9026C90F83D3002B1ABB184F83C30D1
:1069E00006A920468DF818308DF8193007920FF05F
:1069F0001FF994F84C303BB9636B94F83C10204677
:106A00009847012384F84C30174B1B685B0420D552
:106A1000164B1B68042B1CDD2F21154819F0B2FC06
:106A2000C8B12F21124819F0ADFC411C114B226C4A
:106A3000D3F804350492626C039294F83D200292DC
:106A400094F83C2001920C4A00920520852206F021
:106A500045FD08B010BD5C21054819F093FC08B154
:106A60005C21DFE70249E1E7782E0020742E002048
:106A70009C05040000100140FE050400F7B51D460A
:106A8000234B089E1B685B040446174618D5214B10
:106A90001B68032B14DD2F211F4819F073FC48B32A
:106AA0002F211D4819F06EFC411C1C4B3A78D3F87D
:106AB000043501921A4A00920420CC2206F00EFD01
:106AC000002384F84C303B7884F83D30DDB9C4E9CC
:106AD00010552046FFF778FF2046FFF7FFFE3EB136
:106AE00094F83C30337094F83D307370236C7360CD
:106AF00003B0F0BD5C21084819F044FC08B15C21EA
:106B0000CFE70549D1E76B6863642B682364E0E74E
:106B1000782E0020742E00209C05040000100140F7
:106B2000CA050400F8B5466C044626B10023436448
:106B3000FFF74AFF14E0056C95B14FF400474FF49E
:106B4000FA7000214FF47A720023E7FB050119F077
:106B500067F9B0F1807F08D36FF4FF731D4425649B
:106B60002046BDE8F840FFF7B9BE26642046DFE7BF
:106B700013B5044600F13C01836B984794F83C3010
:106B800084F83D300023C4E91033236B186813F0F8
:106B90009BFD94F83C308DF8003094F83D308DF832
:106BA00001306946236C019320460FF041F802B092
:106BB00010BD000010B5044608B90E2010BD094BE9
:106BC000C362436B002BF8D0836B002BF5D00FF022
:106BD00007F80028F2D10146034A206BBDE81040B7
:106BE00013F01CBDD8050400256B020010B5044647
:106BF00007F0F6F938B123780E2B04D10020BDE858
:106C0000104004F01BBC10BD70B5837DC27D86B002
:106C100043EA0223ADF814300446012305A80E46CA
:106C2000ADF8163012F078F80546002847D104AACE
:106C30002146208A12F072FA054600283FD10DF154
:106C400012033246BDF81010E08A12F0D5FC05465A
:106C5000002834D1217ED4F8120001F0010103F0A4
:106C6000FDFE10B1784601F09DFBBDF812000EF05C
:106C700009FC054618BB184B1B681B031DD5174B99
:106C80001B68062B19DD2F21154819F07BFBC8B1B5
:106C90002F21134819F076FB411C227E114B02F084
:106CA0000102D3F804350292D4F8122001920E4A60
:106CB00000920720C32206F011FC0FF05DFD28466C
:106CC00006B070BD5C21064819F05CFB08B15C2180
:106CD000DFE70349E1E700BF782E0020742E002093
:106CE0003E060400001001405D06040008B508F0EF
:106CF000E3FC10F04EF911F08DFFBDE8084003F001
:106D00006DBC07B501A812F043F8BDF804000030CF
:106D100018BF012003B05DF804FB000073B50E46F8
:106D20000546002835D004F0EFF9044670BB11F099
:106D3000CBFF10F097FE28690EF074FB044628BBC9
:106D40002B7F0193AB69009301466B69124859226E
:106D50000EF0EEFD0446C8B92B6A03B1984708F05F
:106D6000C3FB11F0C5FE0FF069FE08B10FF004FD82
:106D7000FFF7C7FF054608B10BF070FB17F024F8CA
:106D800010B1784601F00EFB06B13570204602B016
:106D900070BD0E24FAE700BFB02F002008B5FFF742
:106DA000B0FF20B10BF01AFC08B10BF099FB17F003
:106DB0008FF8BDE8084004F01BBA000008B507F0E2
:106DC0000FF920B10020BDE8084004F037BB0248AD
:106DD000BDE8084004F07ABAF02D002030B5274D08
:106DE000297885B019B1012803D003283FD005B018
:106DF00030BD04AC002344F8083D214600F03CFFC0
:106E000008B117F009FE204600F0A0FF08B117F006
:106E100003FE04A9012341F8043D0DF1060012F020
:106E2000BDFB08B117F0F8FDBDF8060012F0D6F86A
:106E30000DF1050112F000FA08B117F0EDFD0BF0AD
:106E40000DFB9DF8051000200BF068FF10B178468F
:106E500001F0A8FA04F0CCF908B117F0DDFD002329
:106E60002B70074B1B68002BC1D09847BFE700F081
:106E7000D5FF0028BBD017F0CFFDB8E70A300020BF
:106E80000C30002008B503781C2B0CD1064B1B7866
:106E90004BB100F0FFFF08B117F0BEFD0348BDE89D
:106EA000084004F015BA08BD0A300020FC2D00206F
:106EB00010B50749074813F0E1FF024638B9064903
:106EC000064809690323BDE8104013F0F0BF10BD68
:106ED00024300020903300200C3000205C32002051
:106EE00010B50378023B082B4AD8DFE803F01E05F3
:106EF0001249493849493F00224B5B68002B3FD07B
:106F0000007A00283CD0204A01211170BDE81040D1
:106F100018471C4B9B68002B32D01B4A117879B361
:106F200000211170BDE810401847184B1A784AB973
:106F3000144BDB6813B114490A709847BDE8104040
:106F4000FFF7B6BF124B134801221A7004F0BEF9C6
:106F500004F0A4F9A0B1BDE8104017F05DBD094BE5
:106F60000D485969102213F0E7FFF3E7D0E902104A
:106F7000FFF74AFE08B117F04FFD044B01221A70CB
:106F800010BD00BF0C300020083000200930002068
:106F90000A300020FC2D00205C32002070B51C4A15
:106FA0001C4E5168044686B0106803AB03C31189B8
:106FB000927A19809A700FCC35460FC594E8030079
:106FC00085E80300736903B3134B0093134A144914
:106FD000144803AB13F024FFA8B9134814F030FF92
:106FE0000146104813F036FF68B9104815F0ACFCA4
:106FF00048B90E4815F0DAFC01460A4813F02AFF9A
:1070000008B9FFF755FF06B070BD0720FBE700BFCA
:107010007D0604000C300020E16E020024300020C8
:10702000903300205C320020443000200C320020DD
:1070300010B5054C226832B117F02CFE002802DB97
:1070400023689847F8E710BDD0330020154B164A47
:1070500010B50C4618600121144813F0DFFA18B17E
:10706000134A4A2117F0E5FC610C0023E00341F2CA
:107070006F728B4208BF824210D24FF47A720023A3
:1070800018F0CEFE014600220A4813F0D9FA38B1B2
:10709000074A4B21BDE8104017F0CBBC0521F2E7B1
:1070A00010BD00BFD03300203170020088060400FC
:1070B0008C060400D433002070B5104C206808B949
:1070C00017F0AAFC4FF0A0450D4ED5F804353268F4
:1070D0005340C5F804352368013B236063B9094870
:1070E00013F0F2FA3268D5F8043523EA0203064AAF
:1070F00012681343C5F8043570BD00BFF433002097
:10710000F8330020FC330020243400204FF0A0434B
:10711000D3F80425012303FA00F010420CBF1846EF
:1071200000207047012303FA00F04FF0A04311B193
:10713000C3F80C057047C3F8080570474FF0A0432B
:1071400011B1C3F80C057047C3F80805704700007B
:10715000F8B52AB3132923D9124B134D5200013A23
:107160004FF0A0441A602860D4F8043518400F4B43
:107170004FF4FA76186000274FF40040E0FB0167F7
:107180004FF47A7200233046394618F049FE002247
:107190000146074813F054FA10B92B68C4F80C35AF
:1071A000F8BD00BFF4330020F83300202434002061
:1071B000FC33002008B5054813F086FA044B1A6822
:1071C0004FF0A043C3F8082508BD00BFFC330020E2
:1071D000F833002008B54FF0A04303224FF40031EC
:1071E000C3F84427C3F808154FF48021C3F8482793
:1071F000C3F808154FF40021C3F84C27C3F808154D
:10720000C3F850274FF48012C3F808250121054A1E
:10721000054813F003FA18B1BDE8084017F0FCBBAD
:1072200008BD00BFB9700200B0060400D8B10F4B12
:107230000F4A18604FF0A0430020C3F83427C3F86A
:107240003827C3F83C27C3F840270A4B4FF00042C9
:10725000C3F80423C3F87C01074BC02283F806233C
:1072600040221A6070470E20704700BF1C34002077
:107270000C0003000060004000E100E0124B70B51C
:107280000024124E124DC3F87C414FF0A043A15D83
:10729000D3F8102501238B40934311D00D49D5F825
:1072A00004250B68981A48BFD01A43F2333398422A
:1072B00006D9D5F804350B60074B20461B68984764
:1072C0000134042CE1D170BD00600040B40604001C
:1072D00000100140203400201C34002070B504460A
:1072E000CEB0002864D03C4D2A6852042FD53B4BC9
:1072F0001B68032B2BDD3A4B0DAE19680023E25CB3
:10730000100902F00F02085C06F81300885C06EB17
:1073100043020133102B5070F1D100232F2131484B
:1073200086F8203019F02EF8002843D02F212D4860
:1073300019F028F8411C2C4B2C4AD3F80435019243
:107340002B4A009202964122042006F0C7F82B68CF
:107350005B042DD5214B1B68032B29DD2F212148F0
:1073600019F010F800282ED02F211E4819F00AF825
:10737000411C1D4BE27BD3F804350B92A27B0A9291
:10738000627B0992227B0892E27A0792A27A0692A5
:10739000627A0592227A0492E2880392A28802928B
:1073A00022680192134A00920420462206F096F8C1
:1073B0004EB070BD5C210B4818F0E4FF08B15C21B1
:1073C000B5E70849B7E75C21064818F0DBFF08B1CC
:1073D0005C21CAE70349CCE7782E0020742E0020F8
:1073E0007C2E0020B806040000100140E0060400D6
:1073F000F2060400FA06040072DF704773DF70477C
:1074000074DF7047F0B52F4CA3B005460E46174603
:1074100000211022204618F0E5FE2B482B4A037865
:107420002B49C3EB431C62440133614403F0010365
:10743000A2601F2203702160A280A28100213C2251
:1074400004A818F0CFFE062301AA8DF813300E927F
:1074500001233C22002113A88DF80230ADF8203022
:107460008DF83C30ADF80050CDF824D0ADF8045084
:10747000ADF80870039618F0B5FE0223221D2168AE
:107480008DF84C3004A800F0CBF908B117F0C4FA1D
:10749000104AA16813A800F0C3F908B117F0BCFAAC
:1074A0000D4A08490D48FFF7A7FF082804D100221C
:1074B00004490A48FFF7A0FF08B117F0ADFA23B05E
:1074C000F0BD00BF6834002028340020783400204C
:1074D00029340020743400200C2E0020082E0020B7
:1074E000B0F5202F0AD20A23B0FBF3F310B1002B22
:1074F00008BF0123034A9381916070474FF6FF73E1
:10750000F8E700BF0C2E002008B5064B01211878C3
:10751000FFF774FF08B117F07FFA0020BDE80840BC
:1075200004F0E6BC082E002008B5054B1878FFF7DC
:1075300067FF18B1BDE8084017F06EBA08BD00BF7C
:10754000082E002076DF70477ADF70477CDF7047B7
:1075500017F062BA03F0BEBE07B503784BB93B2102
:107560004088FFF7EFFF08B303B05DF804EB17F0B6
:1075700053BA012B1AD1134B1B685B0416D5124B5F
:107580001B68032B12DD2F21104818F0FBFE80B181
:107590002F210E4818F0F6FE411C0D4B0D4AD3F872
:1075A000043500920420682205F098FF03B05DF8CE
:1075B00004FB5C21054818F0E5FE08B15C21E8E712
:1075C0000249EAE7782E0020742E00204B070400C1
:1075D000001001407B07040013B500F01FFC08B148
:1075E00017F01AFA02AC002344F8043D01202146AA
:1075F00000F042FB08B117F00FFA204600F0A6FB9E
:1076000008B117F009FA02B010BD00001FB504ACB4
:107610001123104804F80C3D18F0ACFE0D4982B25D
:107620002046FFF793FF08B117F0F6F908220DEB9B
:107630000200002118F0D6FD074A4FF0C87302A8D7
:10764000CDE90223FFF780FF08B117F0E5F904B098
:1076500010BD00BF3A0704007800C80010B58AB01A
:1076600001AC08220021204618F0BCFD124A4FF060
:10767000C873CDE9012300211C2203A818F0B2FD34
:107680004FF4803340F6CD41CDE9041303238DF848
:1076900018300023ADF81A308DF81C30074B0893D2
:1076A00003A8074B0394099300F03CFD08B117F0C1
:1076B000B3F90AB010BD00BF7800C80059750200C8
:1076C0005175020070B5EFF3108672B60C4A9468DB
:1076D00001239CB993600B4B0B4DD3F880102940CC
:1076E0001160C3F88050D3F8841051604FF0FF321E
:1076F000C3F88420047006B962B670BD0370FAE75F
:107700006060002000E100E0FC06FFBD10B5084B02
:107710009A685AB150B9EFF3108172B6054A1C68E5
:1077200014605C685460986001B962B610BD00BF17
:107730006060002000E100E06DDF704779DF704796
:107740007DDF704764DF70472DE9F74F0C9CBDF873
:1077500034B02788002580468A4691462E46B8F8E0
:107760000020B2420BDC35B12288013AD21B92B222
:10777000FF2A39D8DA55002003B0BDE8F08FD8F8D9
:10778000042052F82600019000220DF1030101A807
:10779000FFF7D8FF0028EFD19DF803204A4521D1FB
:1077A0002288002D14BF0020022002EB09010144B1
:1077B000594519DC3DB9013292B2228003F802A08A
:1077C00022880132228022880DF103011A4401A887
:1077D000FFF7B8FF0028CFD121889DF803200A4485
:1077E000228001250136BAE70C20C5E72DE9F341D7
:1077F000089CBDF824501746CDE9004502220646F4
:10780000FFF7A2FF48B9102239463046CDE90845B6
:1078100002B0BDE8F041FFF797BF02B0BDE8F081CC
:107820002DE9F04F00231688138090F82D3085B095
:1078300007460D46144653B3082E01D80C2026E106
:1078400002A8FFF779FF002840F021811388082261
:10785000CA54238801339BB21B222380CA54208838
:10786000013080B2208006220DF10901284418F071
:10787000AEFC23889DF8082006339BB212F0FE026E
:1078800018BF01222380EA54238801332380BB7868
:10789000FBB123880433B342D0D802A8FFF74EFFD0
:1078A000002840F0F48023880322EA54238801331F
:1078B0009BB219222380EA542388BDF808200133A3
:1078C0009BB2E9182380EA54120A4A7023880233D3
:1078D0002380FA789AB12388D91CB142AED802210C
:1078E000E954238801339BB201212380E954238882
:1078F0000B449BB22380EA5423880B4423807A688C
:10790000AAB12388D91CB14298D8022192F900204B
:10791000E954238801339BB20A212380E954238848
:1079200001339BB22380EA542388013323803B89AF
:10793000002B40F0A0803B8A5BB1CDE900462B468E
:107940000722032107F11000FFF750FF002840F045
:107950009E803B8B5BB1CDE900462B46152214215E
:1079600007F11800FFF742FF002840F090803A6AC4
:10797000002A40F08F80D7F82480B8F1000F30D073
:10798000B8F804302188981C8A1C0244B2423FF6A1
:1079900055AFFE283FF652AF03336B5423880133B3
:1079A0009BB2FF222380EA54238801339BB22380B9
:1079B000B8F80020EA54E918120A4A702088023008
:1079C00080B22080B8F804205AB1D8F808100029F5
:1079D0006AD0284418F0FBFB2388B8F8042013442D
:1079E000238097F82C30002B40F0998038780028BD
:1079F0004DD03B88012B57D021888A1CB2423FF6DC
:107A00001DAF012805D17B7802330B449E42FFF461
:107A100015AF023E761A04A9B6B221F8086DA8186F
:107A2000FFF78EFE98BB3978BDF80820022900F0D8
:107A3000BB807B78934202D3B24240F2B3800129EB
:107A400040F0B4809BB29E42C0F0B080ADF80830E8
:107A50000821BDF80830FE2B3FF6F0AE2288013336
:107A6000AB542288013292B22280A9542288134456
:107A7000238000200BE0CDE900462B4606220221A0
:107A800007F10800FFF7B2FE00283FF454AF05B03D
:107A9000BDE8F08FB4F800C00CF10603B3423FF626
:107AA000CDAE1188052901D80720F0E76FF4486EA4
:107AB00001EB0E039BB24FF27D3E7345F4D9538820
:107AC000052BF1D96FF44860181880B27045EBD9D6
:107AD0004FF6FF70814203D0834201D09942E3D830
:107AE000052305F80C30238801339BB21221238033
:107AF000E954238801339BB223801188E954E818A4
:107B0000090A4170238802339BB223805288EA54C9
:107B1000E918120A4A702388023323802BE7BB6AD4
:107B2000002BC1D04FF000094FF00C0A4FF0160B9C
:107B300097F82C305FFA89F293427FF657AFB96A13
:107B40000AFB02F201EB0208B8F80430981CFE2888
:107B50003FF674AE208803332B54238801339BB245
:107B6000238005F803B0238801339BB223808A5A0F
:107B7000EA54E918120A4A702088023080B2208044
:107B8000B8F804205AB1D8F8081000298CD028443D
:107B900018F01DFB2388B8F804201344238009F152
:107BA0000109C5E7092154E7B242FBD9ADF80860E5
:107BB0004EE701600B6843604A68934204BF0023AC
:107BC00043607047436843B1026891680B44436067
:107BD0005268934204BF0023436070474BDF7047F5
:107BE0001FB50D4C01A8FFF7F9FF70B9214602A897
:107BF000FFF7DFFF039B002BF4D00198D3E90021AE
:107C0000904702A8FFF7DEFFF4E7052801D016F041
:107C100003FF04B010BD00BFA807040060DF704779
:107C200069DF704761DF704730B5114B1B78A9B031
:107C3000E3B1104D94240DF1020103A8ADF8024008
:107C4000FFF7F0FF70B9294601A8FFF7B2FF029BCA
:107C5000002BF0D003A8D3E90021904701A8FFF73B
:107C6000B1FFF4E7052801D016F0D6FE29B030BDEB
:107C7000B6340020B4070400F0B5074685B00D46C1
:107C800000295ED0304B0B600C22002101A818F0B7
:107C9000A9FA012606232A68ADF8083001A9202098
:107CA0008DF804708DF80660FFF7BAFF0C220021F2
:107CB00001A818F097FA00242A688DF8056001A938
:107CC00040208DF806408DF80740FFF7A9FF0C22F1
:107CD000214601A818F086FA45232A68ADF8063037
:107CE00001A923208DF80470FFF79AFF0C2221468A
:107CF00001A818F077FA2A688DF8044001A93046E7
:107D0000FFF78EFF0C22214601A818F06BFA4FF402
:107D1000B0632A68019301A9A120FFF781FF0C221B
:107D2000214601A818F05EFA9DF804302A68334312
:107D300001A9A0208DF80430FFF772FF204605B09E
:107D4000F0BD0E20FBE700BFA02D002008B5FFF717
:107D500065FF10B9014B01221A7008BDB63400202E
:107D600010DF704711DF704713B5044609496846B4
:107D7000FFF71FFF019808B902B010BDD0E900312C
:107D80002046984718B16846FFF71CFFF2E711201C
:107D9000F2E700BFC407040013B50446074968466C
:107DA000FFF707FF019B0BB902B010BD2046D3E9D6
:107DB000002190476846FFF705FFF3E7DC07040062
:107DC000064B9A6822B11A6822F480021A60704742
:107DD000034B4FF48002C3F880207047606000209E
:107DE00000E100E00B4991F816335A09EC231341E6
:107DF000DB0706D5084B9A683AB94FF480030B604D
:107E0000704742F2020016F007BE1A6842F4800280
:107E10001A60704700E100E060600020F7B5184F7D
:107E20003C785CBB174E012520463570FFF79CFF60
:107E3000112820D02046FFF7AFFF134B18680190A0
:107E400002A800F8054DFFF73DFC104901A8FFF717
:107E500087FF0446B0FA80F0400938709DF80300AF
:107E6000FFF754FC3CB90A4B34701C70FFF7BAFFA3
:107E70002846FFF791FF204603B0F0BD0824FAE73B
:107E8000B8340020B7340020C0070400A5810200E8
:107E9000B9340020F7B5154F3B7813B3144E0120C9
:107EA0003070FFF761FF11284FF000051BD0022052
:107EB000FFF772FF02A800F8015DFFF703FCFFF770
:107EC00051FF04469DF807003D70FFF71FFC2CB9D9
:107ED0003470FFF775FF0320FFF75EFF204603B005
:107EE000F0BD0824FAE72C46F8E700BFB8340020BC
:107EF000B734002007B508496846FFF75AFE019BD2
:107F000013B903B05DF804FBD3E90020904768463D
:107F1000FFF758FEF3E700BFD0070400FFF7EABF02
:107F200075DF704776DF70477ADF70477BDF704719
:107F3000034B1A8882420CBF18460020704700BFCE
:107F4000D8340020024B9B6903B11847704700BF2B
:107F5000BC34002037B585B22846FFF7E9FF034659
:107F600070B1164C017A227B91420BD200F10A01CA
:107F70002846FFF7D5FFE8B1112801D0FFF7E2FF4F
:107F800003B030BD237C0022027243B13B2128465E
:107F9000FFF7C8FF30F0080301D0FFF7D3FF636994
:107FA000002BEDD000228DF80420ADF8065001A87A
:107FB0009847E5E71A7A01321A72E1E7BC340020EB
:107FC00013B50B46497A0F4C024669B9D4E9011042
:107FD0001C7A002C18BF0146586812F031FB08B11A
:107FE000FFF7B0FF02B010BD002119726369002BCA
:107FF000F8D00121ADF806008DF8041001A89847CB
:10800000F0E700BFBC34002030B583880588B3F5A5
:10801000FA7F24BF6FF4F9729C184A8838BF002495
:1080200095420CD84088904209D38A88A24206D350
:1080300003F2F310904234BF0020012030BD002035
:10804000FCE7000070B50388112B014648D002D828
:10805000102B1ED070BD122B52D0502BFAD12F4BAB
:10806000C288DB899A42F5D1038A022BF2D1868835
:108070003046FFF75DFF05460028EBD001F1120006
:1080800000F08AF830BB686812F01EFB0028E1D0CF
:1080900009E0C37B012BDDD14FF6FF70FFF748FFEE
:1080A000054620B90420BDE87040FFF74BBF8E881D
:1080B0001B4A0680002303721368C5F80A300A3091
:1080C000536843601031FFF79FFF144B6872DB89E0
:1080D000002BBFD129463046BDE87040FFF770BF86
:1080E0008088FFF725FF04460028B3D0406812F0CF
:1080F000EBFA08B1FFF726FF4FF6FF732380A9E7DD
:1081000086883046FFF714FF05460028A2D00831C4
:108110000A30FFF779FF6872DCE700BFBC3400204B
:10812000EC340020F8B5064650B305460FCD154F88
:108130003C460FC495E8070084E807003068124BFE
:108140003B60B8B1FFF7F0FEC8B931680A681A6041
:108150004A685A600D480E4A4FF6FF7303800D4B74
:1081600040F8043F002112F059FA002814BF032000
:10817000002004E01846FFF7D9FE0028EAD0F8BD39
:108180000E20FCE7BC340020EC340020D834002062
:10819000557F0200F4340020007800F001007047A1
:1081A0000620704730B5754B14461B6841F201023A
:1081B000904287B00D4603F480437ED01ED801283C
:1081C00045D0002B5DD06E4B1B68002B59DD2F2155
:1081D0006C4818F0D7F8002800F0C4802F216948B7
:1081E00018F0D0F8411C684B684AD3F80435009267
:1081F00001957B22012005F071F942E044F2010271
:10820000904200F0858044F202029042D9D1002BC6
:1082100037D05B4B1B68002B33DD2F21594818F0FA
:10822000B1F800286BD02F21564818F0ABF8411C4C
:10823000554B2288D3F8043503926268CDE9015288
:10824000534A009201206C2205F048F919E0C3B1AD
:108250004B4B1B68002B14DD2F214A4818F092F875
:1082600010B32F21474818F08DF8411C464B494A5E
:10827000D3F804350092CDE901546022012005F0C5
:108280002DF94FF0A0434FF4F012C3F81825C3F8AE
:108290000C25EFF3108372B64DF6AD6C3E4A1378A1
:1082A000002B68D107B030BD5C21364818F06AF861
:1082B00008B15C21D6E73349D8E7002BE1D0304B39
:1082C0001B68002BDDDD2F212E4818F05BF868B10C
:1082D0002F212C4818F056F8411C2B4B2F4AD3F86D
:1082E00004350092CDE901546322C7E75C2125489B
:1082F00018F048F808B15C21EBE72249EDE75C2172
:10830000204818F03FF808B15C218DE71D498FE740
:10831000002BB6D01A4B1B68002BB2DD2F21194859
:1083200018F030F8A8B12F21164818F02BF8411C8E
:10833000154B2268D3F8043504926268CDE90252E5
:10834000A2680192164A00920120772205F0C6F831
:1083500097E75C210B4818F015F808B15C21E3E7BA
:108360000849E5E75C21074818F00CF808B15C21E2
:1083700035E7044937E730BF91E700BF782E00208A
:10838000742E0020E8070400001001408C0804004F
:108390004C08040010080400242E00202A080400C1
:1083A0006B08040007B50023ADF800300146054B0B
:1083B00001936A4644F20200FFF7F4FE03B05DF851
:1083C00004FB00BFC905040001461022014817F054
:1083D000FEBE00BF1435002010B50B4C0B4908221F
:1083E000204617F0F4FE0822A018094917F0EFFE06
:1083F000E379042262F30713E371237A022262F322
:108400008713237210BD00BF1435002060000010D8
:10841000A40000100048704714350020064B0022CD
:1084200003F580715A805A6003F8082B8B42F9D10A
:10843000024B1A60704700BF24350020243600200C
:10844000F0B50C4B0C4C1B68064620227BB1013B5F
:1084500014F8330050B104EBC3056F88B74202D162
:108460006D688D4202D0013AF0D11046F0BD1F2355
:10847000EEE700BF243600202435002030B5084A3E
:10848000084C136804EBC3056960012104F833103C
:108490000B44202B08BF00236880136030BD00BF51
:1084A0002436002024350020C0F30C038B420844FE
:1084B00038BFA0F50050C01A70470000F0B50D4B52
:1084C0000D4A1E6800218E4212D0156800230AE072
:1084D00052F8044C04EBC30714F83340844201D132
:1084E0007868F0BD01339D42F2D101310832EAE7EC
:1084F0000020F6E7283600203036002000B58DB089
:1085000040B99A1C06D0012201A88DF804200293DC
:1085100001F062FA034B186803F0E2FE0DB05DF85B
:1085200004FB00BF3C36002010B50378044613B9A5
:108530007846FFF737FFE188A069FFF7B5FFE169EB
:108540000A060B0A101843F1000110BD10B503789C
:10855000044613B97846FFF725FF607A431C0120D3
:108560009840013810BD0000F8B5037805460E4666
:1085700013B97846FFF716FF104AA88A002314465D
:1085800019018F5A874214D1002353520C4A1368A1
:10859000591C03F007031B011160AA8AE25206B1BD
:1085A0006E781C442846A670FFF7BEFFC4E902019E
:1085B000F8BD0133082BE3D1E8E700BF40360020C7
:1085C000C03600202DE9F0410E468EB015461C46FF
:1085D000074610B97846FFF7E5FE16B97846FFF76B
:1085E000E1FE636AA27802330593E378A2F1080002
:1085F000002B14BF012102210DF104084242424127
:10860000434604F10C0003F09EFFA3788DF834304C
:10861000237BADF82050022B16FA85F5CDE90687AD
:108620000B960C950FD1236913B97846FFF7BAFE64
:1086300023690993102305A8ADF8283003F07FFFC4
:108640000EB0BDE8F0810023F5E70000B2F5C07F71
:108650002DE9F04781468846174602D97846FFF74C
:10866000A1FE244B002570229A4602FB053494F8A3
:10867000486046B9384607F0ACFDE06638B90024DA
:108680002046BDE8F0870135042DEED1F7E7302212
:108690004946204617F09BFDB8F1010FE664A4F8A7
:1086A0004A701DD1144B84F852601B7D84F8513000
:1086B00084F8536084F85060D9F8283063656FF00F
:1086C0000103A3620D4BA4F85860A3632464012046
:1086D00002F074F9702303FB05A585F84880CFE705
:1086E0006FF00103A362064BA36584F868602466FB
:1086F000044BEAE7DC360020C4360020998E0200E5
:1087000081930200918E020010B50446C06E07F0FE
:1087100062FD04F1300003F05DF894F84830022B5C
:1087200003D104F1500003F055F8204670220021D7
:1087300017F058FD002084F84800BDE8104002F012
:108740003DB910B590F84830012B8CB0044602D0EA
:108750007846FFF727FE01238DF8043001A8636DEA
:10876000029301F039F92046FFF7CEFF0CB010BD9F
:1087700010B50446808A02F0C3FB01281CD1237B7C
:10878000D3B194F91620002A18DBE27D5AB1022BEE
:1087900012D094F90330002B10DBA378002B0CBF10
:1087A0000020072010BDE2780AB9012B06D12378FA
:1087B00033B9A378042BF2E71020F3E70720F1E7A1
:1087C0000020EFE71FB500220B468DF80F2028B3DD
:1087D0000230086018460DF10F0103F0B2FE9DF85B
:1087E0000F30DBB1144B1B685B0717D5134B1B68AD
:1087F000032B13DD2F21124817F0C4FD98B12F2150
:108800000F4817F0BFFD411C0E4B0F4AD3F804353B
:108810000092042040F2374204F060FE9DF80F0001
:1088200005B05DF804FB5C21054817F0ABFD08B10D
:108830005C21E5E70249E7E7782E0020742E00204E
:10884000E9080400001001400609040070B5044660
:10885000D0E906128CB0808A05F084FD0546A0B1EF
:108860002C22002101A8A68AE46917F0BBFC0F2383
:108870008DF804304FF0000364F3000301A8ADF855
:1088800008608DF80A3001F0A7F828460CB070BDDA
:108890002DE9F04F99461378D2F81880F3B00746C7
:1088A0008A46144623B1D1884046FFF7FDFD90610A
:1088B000E378A278002BA2F1080003AD14BF0121D8
:1088C000022104F10C0642422B464241304603F09D
:1088D0003AFEA278C4F81880CDE908571FFA8AF545
:1088E000AB1A9BB21F44ADF82830E3780E974FF0D7
:1088F000000812AF0D978DF83C20ADF83080002BAA
:1089000065D04FF0100B04F1240A237BC4F82480B7
:10891000022B02BF2369ADF830B00B93206A217996
:10892000524611F097F9606A30BB237B022B05D1C8
:108930003146E08911F050FA0028E6D1374B1B6828
:108940005B0741D5364B1B68052B3DDD2F21354894
:1089500017F018FD002858D02F21324817F012FDCB
:10896000411C314B314AD3F804350092062040F2C5
:108970000E7204F0B3FD27E007A9FFF723FF0028DC
:10898000CCD02046FFF762FFF0B9A2780B908DF8AB
:108990001C0096E80300A38AADF82A30AD1A0CAB90
:1089A00001228DF8282083E80300A37D8DF8403054
:1089B000236A0E9307A8636A0897ADF824500F93B3
:1089C000CDF8449001F008F873B0BDE8F08F227B39
:1089D000012AB3D1A046E089B4F814A048F8243F96
:1089E000414611F07DF907A9606AFFF7EBFE002808
:1089F000C7D160624146504611F072F907A9606A1A
:108A0000FFF7E0FE002899D0BBE75C21054817F08E
:108A1000B9FC08B15C21A0E70249A2E7782E00204A
:108A2000742E0020E908040000100140AC09040085
:108A3000C37D0A7830B5002B3DD0C37822F07F0289
:108A400003F07F031A430A700B78027803F07F0368
:108A500043EAC2130B70037863B38378083B5A422E
:108A60005A414B7803F07F0343EAC2134B708A7874
:108A7000C58802F00302C5F3861442EA850223F09A
:108A80007F032343D2B28A704B70CB78057A03F010
:108A90001F03C5F3C10422F0030243EA4513224336
:108AA000DBB2CB708A70427A23F01F0302F01F0200
:108AB0001343CB7030BDC47822F0400343EA8413E3
:108AC000DBB20B70027923F03F0302F03F02134345
:108AD0000B70B9E72DE9F041837890461344C27DCD
:108AE000002A14BF0B220F22934286B004460F4681
:108AF0002FD8024612F80C1B0092002914BF04253F
:108B000001252B440293836A0193C36A0393684649
:108B100000238DF8103003F0B2FE064670B90599B7
:108B200020460D44FFF784FFE37D5BB142463946A2
:108B3000284617F04CFB684603F0C2FE304606B0EC
:108B4000BDE8F0812346424629463846FFF73AFD04
:108B5000F1E70926F2E7000038B590F84830012B1C
:108B6000044602D07846FFF71DFC02F073FE237B1B
:108B7000074A012B05BFD2E90315A37DD16805FB88
:108B80000311014404F13000BDE8384002F039BE61
:108B9000C43600202DE9F04F044689B00F4609B1D4
:108BA00000230B6004F10C0394F8505001934FF034
:108BB00001084FF0000B627AAA4203D2002009B0EC
:108BC000BDE8F08FE16C08FA05F30B4259D1E37D63
:108BD0002572002B0CBF0C260826954206FB05FAD1
:108BE000237808BFB4F84A608DF818B008BFA6EB28
:108BF0000A06002B14BF4FF004094FF0010906EBE1
:108C000009030493019B0293A36A039302A8E36AF6
:108C1000059303F034FE0028D1D1079B994445B950
:108C200094F853302BB9A36984F85380C3F30C0331
:108C3000E380E37D8BB994F8523073B915B178466F
:108C4000FFF7B0FBB4F84A10A2788A1AE16E234607
:108C50000846FFF7B7FC84F8528007992046FFF7D3
:108C6000E7FEE16E32465144484617F0B0FA02A8DA
:108C700003F026FE17B13B6801333B606B1C84F8A0
:108C800050300135EDB296E7F0B5C37D15468278D8
:108C9000002B2A4414BF4FF480734FF4C0739342E7
:108CA000C7B00E4679D3404C0023E11891F84870C4
:108CB000012F08D1B1F814C0878ABC4503D1CF89F0
:108CC000C1898F426BD07033B3F5E07FEDD10121C4
:108CD000FFF7BCFC0446002863D02A463146C06E2C
:108CE00017F075FA002304A920460493FFF752FFFA
:108CF00030F0040506464BD1049B13B12046FFF724
:108D00002BFF2A4B1B685B0728D5294B1B68032BBD
:108D100024DDB4F84A10274B8029186828BF802129
:108D2000002305AE8B421CD100222F21224806F8D9
:108D3000132017F027FB10B32F211F4817F022FB39
:108D4000411C1E4B1E4AD3F8043501921D4A009265
:108D5000029640F27152042004F0C0FB284647B04E
:108D6000F0BDE26ED25C170902F00F02C75D06F893
:108D70001370875C06EB430201335770D2E75C2126
:108D80000D4817F0FFFA08B15C21D6E70A49D8E789
:108D90002046FFF7B9FC3546E0E70925DEE7082560
:108DA000DCE70425DAE700BFDC360020782E00205F
:108DB000742E00207C2E0020E908040000100140E1
:108DC000DB080400F206040070B50D4690B00446BE
:108DD00010B97846FFF7E6FA94F84830022B07D12D
:108DE00063789A0704D50022E188A08A15F07AF901
:108DF00094F84830022B03D100212046FFF7B4FB42
:108E00002C22002105A8666D17F0ECF9102305A8A7
:108E10008DF8143006968DF81C5000F0DDFD2046CC
:108E2000FFF772FC154B1B685B071BD5144B1B68C7
:108E3000032B17DD2F21134817F0A4FAA0B12F211F
:108E4000104817F09FFA411C0F4BD3F804350295D8
:108E500094F8482001920D4A0092042040F22E22FC
:108E600004F03CFB10B070BD5C21064817F08AFA94
:108E700008B15C21E4E70349E6E700BF782E002053
:108E8000742E0020E908040000100140B808040016
:108E900008460021FFF798BF10B591F84830012B24
:108EA0000C4602D07846FFF77DFA94F851305BB15A
:108EB000013B84F85130002384F85030084BBDE862
:108EC0001040186803F00CBA217B0129204603D119
:108ED000BDE81040FFF778BFBDE81040FFF731BC98
:108EE0003C3600202DE9F04307468FB010468846F7
:108EF00015469946FFF7AAFC0446002860D1EE7893
:108F0000002E40F0AE80B8F1060F59D138787A784B
:108F1000DFF8A8C1830103F4FE5343EA9203D7F8B4
:108F200002204FF0700812BA674608FB04C696F894
:108F30004810012925D1B6F814E0E9898E4520D1E1
:108F4000F18899421DD1B6F858E0A98ABEF1000F08
:108F500001D08E4515D110F0800F4FF070033BD03B
:108F600003FB0473A3F85810702303FB0474E56C2F
:108F70001543E564002A61D103213046FFF724FF41
:108F80001EE00134042CD0D1464B1B685B0717D57B
:108F9000454B1B68012B13DD2F21444817F0F2F9D4
:108FA00088B12F21414817F0EDF9411C404B414A4F
:108FB000D3F804350092022040F2846204F08EFA65
:108FC0000FB0BDE8F0835C21384817F0DBF908B139
:108FD0005C21E7E73549E9E703FB0473DB898B4252
:108FE000C2D0304B1B685A07EAD52F4B1B68012BA8
:108FF000E6DD2F212D4817F0C5F9B0B12F212B4800
:1090000017F0C0F9411C2A4BAA8AD3F80435029202
:10901000702202FB04740220E2890192264A009227
:1090200040F28C6204F05AFACAE75C211F4817F03C
:10903000A9F908B15C21E2E71C49E4E73046FFF7F3
:1090400085FA854203D13046FFF77BFBB8E7002164
:1090500084F850103046FFF79DFD3046FFF77CFD49
:10906000AEE73046FFF72AFA03460028A8D005F1FC
:109070000C012A6A0B9203C9AA8AADF8222009AA18
:1090800082E80300AA7D8DF830202A788DF8202010
:10909000EA6A8DF81460CDE906780D92494605A874
:1090A00098478DE7782E0020742E0020E9080400F0
:1090B000001001401909040047090400DC360020B3
:1090C00010B54FF4E0720021134817F08BF800241C
:1090D00005F0B8F9114B12481C602146802217F0A8
:1090E00081F8104B1049114A11489C75C3E90012D0
:1090F00010494CF25032C3E902211A6140F60402D1
:109100009A8203F0CFF80C4B18600C4B0C481C6093
:10911000BDE8104005F098BADC360020C0360020CB
:1091200040360020C436002080969800F0490200A6
:109130000599020020A107003C36002028360020B7
:10914000FD84020005F006B930B504468DB0002854
:1091500074D00369002B71D0C369002B6ED0856970
:10916000002D6BD05A788DF804201A780993838AE1
:1091700082F001020B2B8DF80320027B4BD90121D9
:10918000022A8DF8001001D12D4A927D002A4CD17F
:10919000042213448DF802200B330C2293FBF2F3CC
:1091A000013B8DF8093000238DF8083094E8030066
:1091B00000238DF8173003AB83E803002389ADF853
:1091C0001430A37A8DF81630236A0A932046DF23E1
:1091D00008950B9310F0ACFF28B12378012B0CBF3E
:1091E0002023FF230B93684614F038FF18B10B9B24
:1091F00043F020030B9368462569A48AFFF7B8FA69
:1092000038B99DF800302246294668469BB1FFF7E1
:109210003BFD0DB030BDC17A0029B0D1012A0CBF91
:10922000012200228DF8002001D10822B1E7042399
:109230008DF80230BAE7FFF74DFCEAE70E20E8E7C9
:10924000C4360020F0B503468DB00F46002843D049
:109250004568002D40D08669002E3DD08468027894
:109260008DF803200B2C4FF00002099294BF027B73
:10927000012202F0010100208DF800108DF802009B
:1092800032B1E11DC90801398DF809108DF80800C7
:1092900003F1100103C901228DF8172003AA82E807
:1092A0000300DA89ADF814201A7F1B6A0896684615
:1092B0008DF81620CDE90A73FFF75AFA38B99DF8F0
:1092C00000302246294668461BB1FFF7DDFC0DB091
:1092D000F0BDFFF7FFFBFAE70E20F8E770B5067B5D
:1092E000012E8CB004460D4646D10B220021684663
:1092F00016F078FF9DF80120E3888DF8055002F004
:10930000030242EA83028DF801202A0E8DF8022022
:109310002A0C8DF803202A0A8DF8042062788DF833
:109320001C60911E4A424A41C3F3861343EAC213AA
:109330008DF8003006230593A38AADF81E30002374
:1093400008938DF80C308DF81830E389ADF81A3099
:10935000E36A0B93A37D226ACDF810D0099243B93A
:109360006FF0010103A88DF82830FFF76BFF0CB0F8
:1093700070BD024B5B7DF3E70020F8E7C4360020A8
:1093800010B591F84830022B0C4602D07846FFF712
:1093900009F8022384F8683094F84830022B06D18B
:1093A000E16C2046FFF79AFF08B984F8680010BD09
:1093B0002DE9F04F0D469FB090461E46044600280A
:1093C00000F0BB81002A00F0B88121B90927384696
:1093D0001FB0BDE8F08F1822414609A816F0F7FE2D
:1093E0002378002059B2CA0F81428DF81820ACBFF3
:1093F0000122042295428DF81900E7D39DF82F70C1
:10940000EFB103F07F0381428DF81B308DF81A0015
:109410002EDA6278A378920102F4FE5242EA9302B5
:10942000ADF81E20DB00E27803F0180343EA521384
:1094300002F01F028DF820308DF8212018E0C3F3D0
:109440008010002903F03F038DF81B008DF81C30BD
:1094500008DA94F90130002BACBF042308238DF8FF
:109460001A30D6E704231A4495428DF81A30ADD34A
:1094700000230F933378032B02D97846FEF792FF2F
:109480003278AF4B06A853F822301193FFF770F9EA
:10949000074600289BD1D8E90312B8F8080004F069
:1094A0009DFF002893D106A814F0D8FD28B19DF89F
:1094B000193043F002038DF819300021082204A866
:1094C00016F090FE04A9B8F8020010F085FC38B13F
:1094D0009DF8193043F001038DF81930059B0A936C
:1094E0009DF81930002B3FF472AF9DF81820002A28
:1094F00000F00781934A4FF0000A934602EB0A03FB
:1095000093F84810022940D00AF1700ABAF5E07FBA
:10951000F4D19DF8183013B97846FEF743FF06A83A
:10952000FFF702F8BDF82CE0874A4FF0000C4FEA35
:109530000C1838F8023073453DD19044D8E9029AAE
:10954000514508BF484536D106AD0FCD12AC0FC40A
:109550000FCD0FC495E80F0084E80F0098F8023093
:109560008DF84930002B3FF432AF12A8FEF7EEFF22
:10957000014612A8FFF7B2FE98F80230D9077FF52E
:1095800026AF06A8FFF762F921E7988ABDF82C10EC
:109590008842B9D106A8CDE90232FEF7C5FF029B89
:1095A000804618468946FEF7BFFF894508BF8045BB
:1095B000039AA9D20BE70CF1010CBCF1080FB6D14C
:1095C0000023702202FB03BA9AF84810022915D131
:1095D000BAF81410714511D106A8FEF7A5FF804610
:1095E00050468946FEF7A0FF494508BF404580F038
:1095F000B78005215046FFF7E7FB02E00133042B5B
:10960000E0D19DF82F209DF82130002A0CBF4FF0AB
:109610000C084FF0080803FB08880CBF4FF4C07318
:109620004FF48073984529D9484B1B685A077FF53A
:10963000CEAE474B1B68002B7FF7C9AE2F214548A4
:1096400016F0A0FE88B12F21424816F09BFE411C67
:10965000414B424AD3F804350092CDF8048040F2E1
:109660009232012003F03AFFB1E65C21394816F04E
:1096700089FE08B15C21E7E73649E9E7BDF81E102D
:109680000C98FEF711FF0D9A0146BDF82C0004F06E
:10969000A5FE00287FF49BAE4246022106A8FEF7F5
:1096A000D5FF824600285BD1014606A8FFF716FECB
:1096B0002C22514612A816F095FD10238DF8483043
:1096C00012A802238DF8503000F086F97FE65C2165
:1096D000204816F057FE08B15C2150E01D4952E0C9
:1096E000002B0CBF0C230823994500F0AC8004210B
:1096F0005046FFF769FB6AE633465246FFF7C8F863
:10970000ECE0990705D5012306AAE9B2204614F03A
:10971000FFFB9DF81930DA077FF559AE9DF82F3021
:10972000601C691E23B1334606AAFFF7DBFB4EE639
:10973000334606AAFFF7ACF849E60E2747E600BF16
:10974000A8080400DC36002040360020782E0020D7
:10975000742E0020E908040000100140880904006C
:10976000624B1B685B071BD5614B1B68032B17DD26
:109770002F21604816F006FE0028A8D02F215D4852
:1097800016F000FE411C5C4B9DF82020D3F80435F8
:1097900001925A4A009204204FF4717203F09EFE27
:1097A0009AF84830022B02D07846FEF7FBFDDFF82E
:1097B0005081D8F8009002F04DF809EB00010AF151
:1097C000300002F01EF89AF80C30012B1AD19AF8EA
:1097D0006830BBB99AF84830022B02D07846FEF7C1
:1097E000E1FDD8E9013298F8151002FB013802F0CA
:1097F00031F800EB08010AF1500002F002F80123F1
:109800008AF868309DF82010DAF84C3001228A403E
:1098100013427FF4DCAD1343CAF84C309DF82F306F
:109820009AF80920002B0CBF4FF00C084FF00808E5
:109830008A42A5F1040908FB01F87FF451AF08EB57
:109840000903AAF84A30DAF818200C9B9A420BD286
:109850000DF1240EBEE80F000AF10C0CACE80F006D
:109860009EE803008CE80300DAF86C004A46211DEC
:10987000404416F0ACFC9DF819309B0705D5012338
:1098800006AAE9B2204614F043FB5046DAF84C40F1
:10989000FEF75CFE84427FF49AADDAF84C10504635
:1098A000FFF71CFD9DF819309C0706D50122BDF875
:1098B0001E10BDF82C0014F015FC9AF80130D807E2
:1098C0000CD59AF81730DAF86C00BAF84A10002B69
:1098D0003FF412AF33465246FFF704FB50460121D6
:1098E000FEF742FE5046FEF70FFF70E5782E00208F
:1098F000742E0020E9080400001001409C090400B7
:10990000C43600202DE9F341194E00243746A04605
:10991000351995F84830012B0CD102A9284641F899
:10992000048DFFF737F9042801D0019B13B12846B5
:10993000FFF712F97034B4F5E07FE9D100257C1906
:1099400094F84830022B0AD194F86830022B06D1E3
:10995000E16C2046FFF7C2FC08B984F86800703556
:10996000B5F5E07FEBD1012002B0BDE8F08100BF8A
:10997000DC3600202DE9F0418846074608B3144E36
:109980003468012C1BD8002545450AD1114B43F8FA
:10999000347003EBC40301345D6034600020BDE823
:1099A000F08107EBC5035B685BB117F83500030670
:1099B00009D450B1FEF782FD38B90135E4E704203F
:1099C000EDE70E20EBE70B20E9E70F20E7E700BF0C
:1099D000283600202C360020F8B5074610B9784606
:1099E000FEF7E0FC0F4E346894B10F4D01232B704D
:1099F00023791BB954F8043C384698472468002C56
:109A0000F6D12B78022B03D13168064C09B92970A5
:109A1000F8BD0B790E6813B1204603F0E5FC314622
:109A2000F4E700BFA03800209C38002010B50446A1
:109A300010B97846FEF7B6FC00232372211D0248B8
:109A4000BDE8104003F0AFBCA038002010B50446BC
:109A500010B97846FEF7A6FC074A1378013B012BA4
:109A600004D8022313700123237210BD211D034863
:109A7000BDE8104003F0B8BC9C380020A03800209E
:109A80000B888268D25A073222F0030213440288FC
:109A90009BB2043A934288BF00230B80704713B5F2
:109AA0008368CB1A02A921F8023DFFF7E9FFBDF850
:109AB00006308068184402B010BD70B506461546E1
:109AC0000C4611BB7846FEF76DFCFEB17846FEF7FA
:109AD00069FC6B1E2344B3F1005F34D94FF0805210
:109AE000D2F80C2102F50022B3EB822F2ED2042DE6
:109AF00002D87846FEF756FC35800023043D73807B
:109B0000B380B4602580A37070BD10B97846FEF7AD
:109B100049FCB4F1005F12D94FF08053D3F80C31F7
:109B200003F50023B4EB832FD3D34FF08053D3F846
:109B30000C3103F50053B4EB832FC7D2C9E7B4F55A
:109B4000000FF2D8C2E7B3F5000F08D94FF08052EA
:109B5000D2F80C2102F50052B3EB822FC7D378461E
:109B6000FEF720FCC3E738B5044610B97846FEF787
:109B700019FC6288A36813449B78012B02D17846B4
:109B8000FEF710FCEFF3108572B6A268A1881144AD
:109B90008B78032B0AD12046FFF781FFA368C31AF5
:109BA00063800023837005B962B638BD00239370CB
:109BB0006380A380F7E7F8B50E461546044610B952
:109BC0007846FEF7EFFB16B97846FEF7EBFB6288A6
:109BD000A36813449B78012B02D17846FEF7E2FB81
:109BE000002D37D02388043B9BB29D4232D8EFF33F
:109BF000108772B66188A388EA1D22F00302994299
:109C000092B204D25B1A9A4210DD042016E018D9F1
:109C10002088401A904209D29A42F6D8032881BF80
:109C2000A3685B1804229A70002363806288A1688D
:109C30008B188D5201229A700020336007B962B6EA
:109C4000F8BDA26813449B78002BDED1937063802B
:109C5000A380EBE70920F3E7F8B50D461646044666
:109C600010B97846FEF79EFB15B97846FEF79AFBC9
:109C7000AB78012B02D07846FEF794FB2B88B342D9
:109C800002D27846FEF78EFB16B97846FEF78AFBBD
:109C9000EFF3108772B60223AB70E1182E802046D6
:109CA000FFF7EEFE6288A38893421FBFA3689B184C
:109CB00000229A7007B962B6F8BD70B50D46044629
:109CC00010B97846FEF76EFB15B97846FEF76AFBC9
:109CD000EFF3108672B6A288A36813449A78042A18
:109CE00006D1211D2046FFF7CBFEA288A3681344AE
:109CF0009A78022A03D0032A08D0052003E0032221
:109D00009A702B60002006B962B670BD7846FEF7E7
:109D100049FBF7E738B5044610B97846FEF742FB31
:109D2000EFF3108572B6A088A16801448B78042BEC
:109D300003D12046FFF7B3FE01468878831E5842C0
:109D4000584105B962B638BD38B5044610B97846F1
:109D5000FEF728FBEFF3108572B6A088A1680144D6
:109D60008878C31E012B05D9831E5842584105B976
:109D700062B638BD2046FFF792FE0146F0E7F8B51F
:109D80000D46044610B97846FEF70CFB15B9784627
:109D9000FEF708FBEFF3108672B6AB78012B19D0F3
:109DA000032B22D1A288A36813449D4202D0784697
:109DB000FEF7F8FA0027AF70211D2046FFF760FE7E
:109DC000A288A36813449B78042B00D1A78006B90E
:109DD00062B6F8BD6288A36813449D4202D07846FB
:109DE000FEF7E0FA0023AB70F1E77846FEF7DAFA07
:109DF000EDE710B5EFF3108472B6828881681144E4
:109E00008B78042B02D1FFF74AFE01468878B0FA1E
:109E100080F0400904B962B610BD037942799B1AFB
:109E200003F57F2303F6FF7300EB03307047000058
:109E300010B5054884681C22002116F0D3F920468D
:109E4000BDE8104004F0DCB8A438002070B5194C0F
:109E5000E36813B97846FEF7A5FA237E13B1784676
:109E6000FEF7A0FA6368092B02D97846FEF79AFA42
:109E7000114D0026636855F823309847022811D009
:109E800003280DD0012810D163680133092B6360CA
:109E900002D97846FEF786FA237E002BEAD004E04A
:109EA0006660F9E7237E0BB1207070BDBDE870409D
:109EB000FFF7BEBFA4380020D809040010B50388FE
:109EC000044613B97846FEF76DFA2088074B04EB79
:109ED000800030EA030203D06288B2F5FE4F04D15D
:109EE0001C4004F580542078204410BD00F0FFFF92
:109EF00070B504460E4647F6FE65FFF7DFFFB04239
:109F000007D2844205D24388013B9BB2AB42F4D8CE
:109F100070BD0020FCE700000B78032B094B04BF49
:109F200000221A761A78012A03D11B7E43B9FFF763
:109F30008DBF022A04D10B78032B01D1FFF778BF24
:109F4000704700BFA438002010B50C4CE3681878A7
:109F5000002203F58051184404F03AFB50B9E1683F
:109F60000846FFF75AFF814206D001F58051E160B3
:109F7000032010BD0120FCE70220FAE7A4380020EE
:109F80001FB50A4B02221B688DF800200193084A76
:109F90004FF4805369460120029300F0F3FEB0FABB
:109FA00080F0400905B05DF804FB00BFC438002014
:109FB000C03800201FB50123CDE902210190054AD8
:109FC0008DF800306946184600F0DCFE05B05DF8FB
:109FD00004FB00BFC03800202DE9F047254BD868AE
:109FE00002794179013A91421E4603D10120587607
:109FF000BDE8F08700F580531F491C781C440B68AE
:10A0000013F8045F1D44FFF708FF6388013B9BB210
:10A0100047F6FE62934200F58057884604D92046F1
:10A020003946FFF765FF0446DFF850A04FF00109FD
:10A030002CB9B4FA84F4640974760120D8E7D8F80E
:10A0400000106288284601F5805104F0C1FA0546E7
:10A050000028EED004225146204686F81890FFF7DB
:10A06000A9FF28B920463946FFF742FF0446DFE73B
:10A070000020BDE7A4380020C43800209C0B040059
:10A0800038B5104CE36818784FF6FF7203F580512D
:10A09000184404F09DFA88B1E36819780B4498429B
:10A0A0000CD0657E0849094B0422002D08BF1946D3
:10A0B000FFF780FF20B90120207638BD0120FCE7A2
:10A0C0000020FAE7A4380020A40B0400A00B040031
:10A0D00070B50C4D0C4EE96830680C78043022469F
:10A0E000FFF768FF58B9336804F0FC0404341C44DB
:10A0F000EB686C611A7813442B61012070BD00205D
:10A10000FCE700BFA4380020C438002008B5054B88
:10A11000054918680422FFF74DFFB0FA80F04009A6
:10A1200008BD00BFC4380020B038002010B5074B70
:10A13000074C1968E06840F6FC720431FFF73AFFFB
:10A1400010B90120207610BD0020FCE7C4380020A3
:10A15000A438002010B50C4CE1680846FFF75DFEFE
:10A1600081420AD1094B0A4918680422FFF722FFED
:10A1700040B901232376022010BD01F58051E16032
:10A180000320F9E70020F7E7A4380020C4380020B6
:10A19000C83800202DE9F74F324C236913B97846AF
:10A1A000FEF700F9636913B97846FEF7FBF8DFF8AC
:10A1B000B89047F6FE6A6369D4E9030603EA090822
:10A1C000A8EB0308FFF729FE7388013B9BB25345B8
:10A1D00008F5805800F5805B06D930465946FFF7F0
:10A1E00087FE0646002835D0354600275D4519D242
:10A1F0002A8807EB8202904509D986EA050313EA0B
:10A20000090F04D16B88013B9BB2534502D957B962
:10A21000012318E028460192FFF750FE019A0546F7
:10A220001746E3E7E7B13A4631466069FFF7C2FEF9
:10A2300090B963691F44676115B97846FEF7B2F8B3
:10A240002561002335B1698847F6FF72914201D03C
:10A25000002BB0D0012000E0002003B0BDE8F08F5B
:10A260000123EFE7A438002000F0FFFF1FB50A4BE1
:10A270000222DB688DF800200193084A4FF48053D6
:10A2800069460120029300F07DFDB0FA80F040099C
:10A2900005B05DF804FB00BFA4380020C0380020E2
:10A2A00010B54FF010235A69013225D05A691AB3FC
:10A2B0005B69A3F58053A3F58053174A19681360AF
:10A2C0004B1E033325D8C1F30B0313BB134A1448A9
:10A2D000D16001211170134913765376936051F8C0
:10A2E000234084420ED1536001200F4900F03AFD13
:10A2F000FFF7ACFD012010BD4FF08052516913698A
:10A300004B43D8E701330A2BE9D17846FEF74AF8E8
:10A31000EAE70020EFE700BFC4380020A43800209F
:10A320006DA20200D8090400199F020010B504466E
:10A3300010B97846FEF736F8094B187860B1E06836
:10A34000D9684379A0EB0333994206D3FFF765FD43
:10A3500081428CBF0020012010BD0020FCE700BF1F
:10A36000A4380020024B1878003018BF0120704735
:10A37000A438002038B50E4C2378054613B1784632
:10A38000FEF710F82B78032B02D07846FEF70AF878
:10A39000EB68E360012000230649A5606360237633
:10A3A0002070637600F0DEFCBDE83840FFF74EBD5C
:10A3B000A4380020199F0200014B1868704700BFA5
:10A3C000C438002010B5044610B97846FDF7EAFFFE
:10A3D00063681BB123680BB1A36813B97846FDF716
:10A3E000E1FFA3685A1E1A4202D07846FDF7DAFF51
:10A3F0000023C4E9033310BD70B50E460446F0B126
:10A400008368F3B1EFF3108572B6D0E90331994256
:10A4100003D105B962B605250FE04EB18368013B53
:10A420000B40D0E90012304602FB031115F0CFFEBD
:10A4300023690133236135B962B6284670BD0E2504
:10A44000FBE70925F9E70025F7E70000024AD2F803
:10A450000034002BFBD0704700E00140C0F30B0339
:10A4600010B5E3B9E9B1104C0223C4F80435FFF785
:10A47000EDFF01F6FF7121F47F6121F00F0101442E
:10A48000884205D10020C4F80405FFF7DFFF10BDA6
:10A49000C4F80805FFF7DAFF00F58050F0E7102058
:10A4A000F5E70920F3E700BF00E0014070B540EA9E
:10A4B000010414F003041BD1E2B195071AD10E4E2A
:10A4C0000123C6F804359508FFF7C0FFAC4205D15B
:10A4D0000020C6F80405FFF7B9FF70BD51F824301D
:10A4E0005A1C03D040F82430FFF7B0FF0134EDE7E9
:10A4F0001020F2E70920F0E700E001404388012B3B
:10A5000005D0022B01D104300860012070470430CF
:10A510004860FAE708B508220221094803F0CBFB9E
:10A5200020B90848BDE8084003F042BD064A9168DA
:10A530004160127B0272BDE8084003F0EBBB00BF34
:10A54000D4380020382E00202039002010B50446D1
:10A5500010B97846FDF726FF2346BDE8104018479E
:10A5600000B50A4B1A7B9B688DB0012A08BF03F126
:10A57000FF3303900CA80493022300F82C3D8DF8C0
:10A580000820FFF729FA0DB05DF804FB2039002000
:10A5900038B50E4D2B78C3B90D4B5C6804F50054EB
:10A5A000B4F1807F11D8042201210A4803F083FB13
:10A5B00020B90948BDE8384003F0FABC01234460E3
:10A5C0002B70BDE8384003F0A5BB38BD34390020FE
:10A5D00020390020D4380020282E002010B5012179
:10A5E0000C4803F0ADFB80B902210A4803F0A8FB38
:10A5F000044650B901461422074815F0F3FD074BF5
:10A600001C70BDE81040FFF7C3BF054803F0D0FC45
:10A61000F7E700BFD438002020390020F8380020A8
:10A62000582E002030B50D468DB07AB94B88012BDD
:10A630000AD1124C227812B97846FDF7B3FE104BBE
:10A640006A685A60002323700DB030BD032A02D01F
:10A650007846FDF7A7FE2C22002101A815F0C2FDC7
:10A6600011238DF80430074B0395DA681B690592B6
:10A6700001A80693FFF7B0F9E6E700BF34390020E0
:10A6800020390020D438002013B501F09BFD0021B3
:10A690006B46124A1248134CCDE9001103F05EFAE2
:10A6A000009B0BB1019A6AB900232360A360237356
:10A6B000FFF730FF23686360FFF76AFF01F0C2FD18
:10A6C00002B010BD1968A16019792173934203D9B2
:10A6D0001B790BB92360EDE71368FBE7FDA40200CB
:10A6E000D43800202039002008B503F0AFFCA0F5D5
:10A6F000805008BD7FB500211822684615F072FD14
:10A7000000230293FFF7F0FF0123009001936946B5
:10A71000054B0648039303F03BFB10B1044803F0DC
:10A7200047FC07B05DF804FB25A60200D4380020E2
:10A73000482E002008B5142200210A4815F052FDC9
:10A7400001F088F8084B094A09499A6000225860CC
:10A75000C3E903125A61074B1A70BDE80840FFF7BE
:10A76000C9BF00BF20390020FC38002065A80200C6
:10A77000008793033539002010B5074C23784BB977
:10A780000648074B036000F0A1FD064801F000F801
:10A790000123237010BD00BFD038002014390020E1
:10A7A000C9A80200FC38002010B501F00BFD104ACA
:10A7B000117B1346C9B9917BB9B9118A41F2826202
:10A7C000914202D80B4A12787AB101221A739A6820
:10A7D000002401321C829A60FFF79CFE2046FFF79E
:10A7E000BFFE01F02FFD204610BD0824F9E700BF91
:10A7F000203900203539002010B501F0E3FC174A5C
:10A80000547B1346BCB1917B21BB118A41F2826219
:10A81000914202D8124A1278F2B11A7B0020587382
:10A820002AB1012A0BD07846FDF7BCFD03E0FFF703
:10A83000BBFF0028F7D101F005FD204610BDC3E99C
:10A84000000018731882FFF78BFEFFF763FEFFF717
:10A850009FFEF0E70024EEE71446ECE720390020E5
:10A860003539002010B5164C237B2BB1012B12D0AB
:10A870007846FDF797FD18E0228A41F282639A42FA
:10A8800002D8104B1B7883B1FFF7B6FF638A0BB178
:10A89000013B638210BD228A41F282618A4208D85C
:10A8A000084B1B780BB1FFF7A7FF238A01332382E4
:10A8B000ECE742F2B0118A42F5D96373E4E700BFD6
:10A8C000203900203539002010B50378042B0ED133
:10A8D00043681B785BB11D4B4269197B047E71BBD9
:10A8E000598A01BB012C996802D08A4203D810BD55
:10A8F0004C1CA24219D92A318A42F8D8997B0029E6
:10A90000F5D184689A60124A1A61C3E9001159733B
:10A910001973FFF7FFFDFFF73BFE04F11000BDE8E0
:10A920001040FFF71DBE012CE1D1996801318A4228
:10A93000DDD101225A73BDE81040FFF75DBF012948
:10A94000D5D1012CD3D09968F1E700BF2039002080
:10A950000000062D38B5164CD4E900239A4205466E
:10A960001FD2207B134B1449012808BF0B469A4283
:10A9700007D263682268403B9A4208D3FFF708FE7B
:10A9800005E001236373FFF737FF0028F1D0EFF3F1
:10A99000108072B623685A1C22602B6028B962B6F8
:10A9A00038BDFFF7F5FD0F20FAE70020F8E700BFFC
:10A9B00020390020FFFF7F0000E0FF0010B50C4AA7
:10A9C0001368144628B101200A49034488731360B0
:10A9D00010BD13B97846FDF7E5FC2368013B236001
:10A9E000002BF5D1034A9373BDE81040FFF704BF75
:10A9F000CC3800202039002000B58DB00323ADF8FD
:10AA000008000CA88DF8102000F82C3D0391FEF7EB
:10AA1000E3FF0DB05DF804FB014B9868704700BF81
:10AA200020390020034B98681B7B012B08BF00F1E5
:10AA3000FF30704720390020044B9B685840C20704
:10AA400048BF03F1FF331846704700BF203900208C
:10AA5000014B187B704700BF2039002038B50A4BE6
:10AA60001C787CB9094D01221A702973A860FFF780
:10AA700051FD2046FFF774FDC5E90044FFF788FD4E
:10AA8000204638BD0820FCE7F83800202039002097
:10AA90002DE9F8431D4CDFF878900026022120466E
:10AAA00002F0F0FA5FFA86F805460027ADB967B103
:10AAB0002946204602F04DFB082806D154F8043CF4
:10AAC0001BB12A464946404698470136032E04F1F9
:10AAD000BC04E3D10120BDE8F88354F8043C34F809
:10AAE0000C2C13B129464046984734F80C3C0221FF
:10AAF0000133204624F80C3C02F0E0FA0221204603
:10AB000002F0C0FA01370546D0E700BF4C390020FB
:10AB1000000A040038B5012104460C3002F0B2FAF4
:10AB2000054628B3164BC4F89C300023C4F8A03067
:10AB300003786268012B07D0022B1BD07846FDF703
:10AB400031FC4FF4FA7307E081688B1A99084FF4CF
:10AB5000A9734B4303F5FA730A4A934294BFC4F8AE
:10AB6000A830C4F8A8200123C4F8AC4084F8B83059
:10AB7000284638BD83689B1A1A0B034B5343E9E7F9
:10AB8000ADAB020060850100645E010010B50446B3
:10AB9000FFF7C0FF48B104F19C0005F0B7FF20B1FA
:10ABA0007846BDE81040FDF7FDBB10BD2DE9F74F1D
:10ABB0004A4B1B7880460D463BB105F0DDFF002374
:10ABC00085F8B83003B0BDE8F08F01F10C09D1F879
:10ABD000A8704846012102F055FA064610B9784699
:10ABE000FDF7E0FBDFF8FCA0A7F5FA7700244FF4AF
:10ABF000A97B3378012BA7EB040406D0022B3BD0B2
:10AC00007846FDF7CFFB00231FE06B68B268B4FB0A
:10AC1000FBF4D21AA400944228BF144624B901932D
:10AC20007846FDF7BFFB019BF168706823F00303D2
:10AC3000224619441844FFF739FC10B17846FDF755
:10AC4000B1FB6B681C446C60B3686A689A422AD195
:10AC500005F092FF4846012102F030FA00236B60B4
:10AC600085F8B8301E4B186801F03AFB284603B04F
:10AC7000BDE8F04FFFF78ABF6B68B268B4FBFAF427
:10AC8000D21A2403944228BF144624B9019378466B
:10AC9000FDF788FB019B706823F0030321461844ED
:10ACA000FFF7DCFBC9E701F081F93378B0EB08046A
:10ACB00048BFA8EB0004012B0DD0022B06D1534650
:10ACC0002344BB4295D905F057FFCFE77846FDF7FF
:10ACD00069FB0023F4E74FF4A973F1E73C39002046
:10ACE00038390020645E010070B51B481B4C01F030
:10ACF000D9FA1B4B186004F11C0341F20306082526
:10AD0000636104F10C0004F118032361A681A573AB
:10AD100002F0FBF904F1D803C4F8D03004F1C80004
:10AD200004F1D403C4F8CC30A4F8C86084F8CA5045
:10AD300002F0EBF904F5CA73C4F88C3104F5C8735A
:10AD4000A4F8846184F88651C4F8883104F5C2708F
:10AD5000BDE8704002F0D9B991AA02004039002044
:10AD600038390020022838B504460D4602D9784605
:10AD7000FDF718FB024BBC2202FB0434A56038BD72
:10AD80004039002002282DE9F84F07460C4692462C
:10AD900002D97846FDF706FB14B97846FDF702FBA9
:10ADA0002378012B12D16368990702D07846FDF70A
:10ADB000F9FAE3689A0702D07846FDF7F3FAA36838
:10ADC0009B0711D07846FDF7EDFA0DE0022B0DD16F
:10ADD0006368C3F30B0313B17846FDF7E3FAA36886
:10ADE000C3F30B03002BEDD1A36813B97846FDF72D
:10ADF000D9FAEFF3108872B6BC257D43224E05F1D7
:10AE00000C09B1440021484602F03CF9834690B356
:10AE10000021484602F052F910222146584615F00A
:10AE2000D6F9BAF1000F03D073195B88AAF8003085
:10AE3000BC2303FB07677B8897F8B84001337B800E
:10AE400004BB124B1F78BFB97019FFF763FEB8F14E
:10AE5000000F0ED162B6444640B105F19C0030446B
:10AE600005F054FE10B17846FDF79CFA2046BDE887
:10AE7000F88F3C46F0E70424B8F1000FF6D1A04665
:10AE80000020E7E70024F7E7403900203C390020A4
:10AE900070B5EFF3108672B6144C236818BB13B963
:10AEA0007846FDF77FFA2368013B236093B9104D84
:10AEB00095F8B83013B92846FFF768FE95F8743155
:10AEC00013B90C48FFF762FE95F8303213B90A48FF
:10AED000FFF75CFE2368094A003318BF0123137093
:10AEE00006B962B670BD01332360F3E7743B0020FE
:10AEF00040390020FC390020B83A00203C390020BD
:10AF000010B1800B014B185C704700BF100A0400A1
:10AF100012DF704713B5137863B1022B0CBF072300
:10AF2000002310F8011C292962D005D8162973D0F6
:10AF300002B010BD537DF4E72A2927D02B29F7D181
:10AF4000022BF5D110F8021C0139C9B203F0A8FA9E
:10AF500004460028ECD0374B1B685B06E8D5364B1F
:10AF60001B68012BE4DD2F21344815F00BFA002873
:10AF700049D02F21314815F005FA411C304B314A98
:10AF8000D3F8043500920194A62224E0022B01D0CC
:10AF9000072BCDD110F8021C013901F001FD044648
:10AFA0000028C5D0234B1B685A06C1D5224B1B680D
:10AFB000012BBDDD2F21214815F0E4F978B12F21B7
:10AFC0001E4815F0DFF9411C1D4B1F4AD3F804350C
:10AFD000009201949322022002F080FAA8E75C21FB
:10AFE000164815F0CFF908B15C21E9E71349EBE702
:10AFF000022B9DD110F8021C0139C9B202B0BDE884
:10B00000104010F03BBF5C210C4815F0BBF908B1B3
:10B010005C21AFE70949B1E701884FF6E463994243
:10B0200086D110F8021C0230033902B0BDE810408E
:10B03000FDF7B6B8782E0020742E0020390A0400DF
:10B04000001001407E0A0400550A040070B58AB061
:10B0500006F04CFA0446002834D000238DF8103056
:10B0600006460FCE05AD0FC533682B60627D052AFD
:10B070000CD9207D00F00F03072B07D004AB063A54
:10B0800004F11D0100F00F0005F0D6F8114B1A680D
:10B09000AAB104AB0393237DC3F303038DF80430FB
:10B0A000637D062B89BF063B00238DF8053004F134
:10B0B0001D0398BF8DF80530029301A890472046E4
:10B0C00006F0FEF906F02CFA80F00100C0B20AB0DA
:10B0D00070BD00BF7C3B002000B50A4B1A78032AE4
:10B0E0008DB00CD104221A7000212C2201A815F079
:10B0F00079F81C2301A88DF80430FEF76DFC0DB023
:10B100005DF804FB783B0020F7B5354F3A780546EB
:10B11000002A5BD100285BD0067A0F2E01D0062EC4
:10B1200058D105F055F8E86800284CD0FDF74CF9E7
:10B130000DF10700FFF7ECFE0446002840D19DF812
:10B140000730012B48D1FDF769F900F00BFB3046C1
:10B1500000F0EAFFE87800F091F900F01DFE05F03C
:10B160006BFC204806F074FA05F0DEF9FFF7BCFD31
:10B1700004F06AF900F0B8FC04F0EAFF04F00AFEFB
:10B18000284601F063FBFDF79BFF03F015FDFDF77B
:10B1900007F808B1062821D1134805F01FF82A2026
:10B1A00005F0C0F82B2005F0BDF8292005F0BAF80D
:10B1B000162005F0B7F80D4B00221A6001233B70F2
:10B1C000204603B0F0BDFDF707F9B1E70824F7E723
:10B1D0000E24F5E70724F3E70224F1E70446EFE73E
:10B1E000783B00204DB00200682E00207C3B002000
:10B1F00037B5244D2A78012A05D002D3033A012A13
:10B2000038D9082428E006F03DF901F031FBFDF7BC
:10B2100099FFFCF7C5FF044650B3062828D01A4B07
:10B220001B685B0418D5194B1B68012B14DD2F21FB
:10B23000174815F0A7F890B12F21154815F0A2F87E
:10B24000411C144B144AD3F804350092019440F287
:10B25000A712022002F042F9204603B030BD5C2163
:10B260000B4815F08FF808B15C21E6E70849E8E7DC
:10B2700000F086FF05F03CFC04460028ECD10223D8
:10B280002B70E9E7783B0020782E0020742E0020F8
:10B29000390A040000100140140A040008B5084BE4
:10B2A0001A78022A0AD1032206481A7005F0E6FB32
:10B2B00018B17846FDF776F8002008BD0820FCE7B5
:10B2C000783B0020D9B00200FDF73EBFFEF7AEBBD1
:10B2D000FEF7BCBB08B500F02FFD002008BD07F04D
:10B2E0001BB90000044B1A680132B2F1704F08BF5D
:10B2F00001221A6018687047803B002010B5044690
:10B3000010B97846FDF74EF80023C4E9003310BDAC
:10B3100038B50D46044610B97846FDF743F815B91F
:10B320007846FDF73FF800236B60EFF3108372B6A9
:10B33000226822B92560656003B962B638BD6268CB
:10B340005560F8E710B5044610B97846FDF72AF8BD
:10B35000EFF3108272B6206808B143682360236857
:10B3600003B9636002B962B610BD10B5044610B9E6
:10B370007846FDF717F8206810BD38B50C4605462D
:10B3800010B97846FDF70EF814B97846FDF70AF8BB
:10B390002046FFF7EAFF90B12846FFF7E6FF40B9E5
:10B3A00094E8030085E803002046BDE83840FFF735
:10B3B000A5BF6B6822685A6063686B60F4E738BDAC
:10B3C000037A13B100230372704743681B68043388
:10B3D000436070471FB5036802464068191D8842E4
:10B3E00008D1CDE9013300238DF80C30029B516860
:10B3F0001B6893B9D2E900131C684868844205D1E0
:10B400008B420BBF0021043B59604B6053681968A5
:10B41000496819600123137205E00968994201A87F
:10B4200003D1FFF7D7FF04B010BDFFF7C9FFDDE779
:10B4300035DF70473CDF70473DDF704708B5034696
:10B440004FF0FF30FFF7F4FFFF210020FFF7F4FF7C
:10B4500000201946FFF7EEFFBFF34F8F0549064B5B
:10B46000CA6802F4E0621343CB60BFF34F8F00BFA2
:10B47000FDE700BF00ED00E00400FA0507289ABFD1
:10B48000024B33F81000FA20704700BFAA0A0400EC
:10B49000024B5868103840B2704700BF00ED00E022
:10B4A000084A202390FBF3F352F82330424202F083
:10B4B0001F0200F01F0058BF504223FA00F000F0B6
:10B4C0000100704700E100E046DF704730B501F150
:10B4D00010031032103013F8014D12F8015D8B4249
:10B4E00084EA050400F8014DF5D130BD2DE9F0479F
:10B4F000144690B002F10F05102288462D11014626
:10B500000DEB0200994604F00F0414F060FE002DCC
:10B5100051D0002C4FD10126B2461022002108A89C
:10B5200014F060FE04A8FFF7CFFF01220DF13F01E8
:10B5300010AB13F9100D1F4693F800C04FEA4C0CE6
:10B540005FFA8CFC83F800C013F801EF4CEADE1CB4
:10B55000994203F801CCEFD19DF83F305B00DBB29C
:10B560000028B8BF83F087038DF83F30531C9A45FD
:10B570004FF00202DCD2013D08EB0511FEB10CAA2E
:10B580006846FFF7A3FF102200210CA814F02AFE42
:10B590000024AC4225DB3A46694608A8FFF796FF2F
:10B5A00004A8FFF791FF10223946484614F00FFE19
:10B5B00010B0BDE8F08700264FF0020AADE7224642
:10B5C000684614F004FE10AB2344802203F8402C9C
:10B5D0000134102C02D10CAA6946D1E70DF80460A1
:10B5E000F6E708EB0412394608A8FFF76FFF04A836
:10B5F000FFF76AFF0134CCE738B5124B1A680446EE
:10B600002AB11A6845685268AA1A002A0DDA1A681F
:10B6100062611C609A88013292B29A8012B97846AF
:10B62000FCF7C0FE0123237038BD19684A691AB1BE
:10B630005068401B002802DB62614C61EAE711465A
:10B64000F4E700BF883B002010B5124B1A68824215
:10B6500004461A460BD142691A609A8892B2511E6A
:10B6600089B299808AB97846FCF79CFE0DE01B6888
:10B670005BB15969A1420BD16169596193889BB251
:10B68000591E89B29180002BEDD00023237010BD8C
:10B690000B46EDE7883B0020014B186800F020BE08
:10B6A000843B0020044B1A6822B11B680349586888
:10B6B00000F05AB900F0AEB9883B002099B60200FC
:10B6C0002DE9F04100F0C6F8254E054637464FF00B
:10B6D0000008336823B133685B685B1B642B06D4B6
:10B6E00000F0B8F8FFF7DEFF0120BDE8F081346814
:10B6F0002378012B02D07846FCF754FE63693B6047
:10B70000BB88C4F814809BB25A1E92B2BA8013B997
:10B710007846FCF747FEA36813B97846FCF742FE6B
:10B720000223284623702169A368984700F092F805
:10B730002378022B0546CCD1E2680AB92270C8E70B
:10B7400063686FF06301891A1344091AD018C14263
:10B7500004D463602046FFF74FFFBAE70346F5E7DE
:10B76000883B002008B508220021064814F03AFD65
:10B77000054800F097FD054B1860BDE8084000F053
:10B780005CB800BF883B0020C1B60200843B0020AB
:10B7900010B5044600F07CFE10B97846FCF702FEB6
:10B7A00014B97846FCF7FEFDA36813B97846FCF798
:10B7B000F9FD2378012B02D17846FCF7F3FD002335
:10B7C00063612046FFF718FF00F044F8BDE8104021
:10B7D000FFF768BF10B5044600F05AFE10B978466E
:10B7E000FCF7E0FD14B97846FCF7DCFD2046FFF7D6
:10B7F0002BFF0023636100F02DF8BDE81040FFF738
:10B8000051BF38B504460D4600F042FE10B97846E7
:10B81000FCF7C8FD14B97846FCF7C4FD2046FFF7D5
:10B8200013FF0023636120466560FFF7E5FE00F02B
:10B8300011F8BDE83840FFF735BF08B50EF05EFFE0
:10B8400038B90EF091FE20B17846BDE80840FCF70B
:10B85000A9BD08BD10B5EFF3108072B60C4A0D4BB0
:10B860001968D2F80435D2F80441012C04BFD2F88B
:10B870000435013100B962B6074843EA01614FF46B
:10B8800080420023E0FB0123D00B40EA434010BD7F
:10B8900000100140903B002040420F0010B50A4BC1
:10B8A0000A4C4FF40032C3F84823C3F80823226837
:10B8B00012B97846FCF776FD2468FFF7CBFF2346E4
:10B8C000BDE81040184700BF001001409C3B00201D
:10B8D00010B5EFF3108072B61E4B1F490022C3F85B
:10B8E00004210A6801320A6000B962B61B4A116875
:10B8F00009B31168013911601268E2B9184AD3F826
:10B9000004051168884217D2EFF3108072B6D3F89D
:10B91000041514680131A1422ABFD3F80425126826
:10B920000232C3F8442500B962B64FF40032C3F8BE
:10B930004423C3F8042310BD0A4C226812B9784688
:10B94000FCF730FD2468FFF785FF2346BDE8104073
:10B95000184700BF00100140903B0020943B00209E
:10B96000983B00209C3B002037B500230446019300
:10B970000D4611B97846FCF715FD204B1D60FFF709
:10B9800069FF031B002BB8BF241A1D481D4AA8BF1E
:10B9900000244FF4004500210023E5FB040114F0CE
:10B9A0003FFAEFF31083019372B6174A174CD2F89F
:10B9B00004350228C3F1FF1101F57F4138BF022091
:10B9C0008142134910D30344C2F844354FF4003385
:10B9D000C2F84433C2F80433002323600B60019B98
:10B9E00003B962B603B030BD03F17F4301330344B2
:10B9F0001A0E0132226023F07F43EFE79C3B0020C8
:10BA000020A1070040420F0000100140943B00209D
:10BA1000983B0020074B4FF40032C3F84823C3F88B
:10BA20000823054A00231360044A1360044A136084
:10BA3000704700BF00100140943B0020983B00205D
:10BA40009C3B002030DF704731DF704710B5D0E9F4
:10BA500000238468C168A2EB731283EAF4330360A5
:10BA60000C441344114444608160C360184610BD07
:10BA700037B50C46054610B97846FCF793FC002311
:10BA80009C4201D803B030BD0DF10700FFF7DAFF8B
:10BA90009DF807100029F7D0E21A914288BF8DF86F
:10BAA0000720E8189DF80710FFF7CEFF9DF8072044
:10BAB0001344E5E737B5044602A8002340F8043DE7
:10BAC0000421FFF7D5FF074B2360019BE360C4E926
:10BAD000013314252046FFF7B9FF013DFAD103B029
:10BAE00030BD00BFED5EEAF1704748DF704749DFC7
:10BAF00070474ADF70470000064A03231374116839
:10BB0000054B536140F6D862914288BF43F2B06260
:10BB10009A607047CC3B0020EC3B0020054B1B6833
:10BB2000A0F1780228335843034BB0FBF3F0101A0E
:10BB3000704700BFE83B002040420F0038B50E4A76
:10BB40000E4C0123637113680025013313602574C3
:10BB500000F086FA05F086F82068FFF7DFFF084A54
:10BB60000146284600F0F0F920B17846BDE838409B
:10BB7000FCF718BC38BD00BF003C0020CC3B0020C7
:10BB8000F9BA020010B41F4B5A6928B11968DC6871
:10BB900011440134DC601960996801240131E240EC
:10BBA00001291C7499605A611C680ED002291AD0B0
:10BBB0005B69154A1C44944203D840F6D76293420D
:10BBC0001CD85DF8044BFFF7B9BFB2F5FA7F03D17B
:10BBD00030B900225A61EBE740F6D8618A42E7D8D3
:10BBE00040F6D862F6E7DA68022A02D1064A121B4A
:10BBF000F0E7012ADCD10028EBD0D9E75DF8044B4F
:10BC0000704700BFCC3B00208096980070B5424C36
:10BC1000424D012323712B781BB1414B1E78002E1E
:10BC20005BD000232374042853D8DFE800F0034DD1
:10BC30004A4844003B4DA179AA68C4E9023323680D
:10BC40002260002934D0012121743749002B08BF1C
:10BC50000B46991AB1F57A7F26D39A4224D86161AE
:10BC600043F2B06043F69822C5E9020201236B71EA
:10BC7000A371237C023B012B0DD8637943B105F0FE
:10BC80000DF82068FFF74AFF00F01CFA00236371EB
:10BC9000234B00221A70237C2448022B04BF01236B
:10BCA00023760023237170BD4FF47A736361D7E765
:10BCB000FFF744FFD4E70120FFF764FFD9E7002036
:10BCC000FAE704F07DFFD4E700F090F904F0B0FF4C
:10BCD000CFE77846FCF766FBCBE700F067F92B78F7
:10BCE0002060022B0FD0032B06D0012B10D1022392
:10BCF000237400232B70BCE70A4B0D490D4A5E717B
:10BD0000C3E90212A67103232374064B6361F0E7B3
:10BD10007846FCF747FBECE7CC3B0020FD3B0020DE
:10BD2000FC3B0020EC3B002080969800DC3B002090
:10BD3000A0860100FF1FA107043808B5042825D8F4
:10BD4000DFE800F016220A030F00114B1B7E012BC7
:10BD50001CD1FFF7CCFEC8B17846BDE80840FCF71F
:10BD600021BB0B4B00221A76BDE8084004F0CEBF81
:10BD700008480123437143F6982240F6D863C0E98E
:10BD80000232FFF7B6FEE6E70248FAE708BD00BF59
:10BD9000CC3B0020EC3B00200D4A4FF48071002387
:10BDA000918043F2B06C43F698211370C2E902C14E
:10BDB000084A1060084A1370084A1370084A136052
:10BDC000084A1371537113601376012393717047FE
:10BDD000EC3B0020E83B0020FC3B0020FD3B00202A
:10BDE000003C0020CC3B002010B50E4C227E012AE6
:10BDF0000CD004D3022A0CBF1120002010BD0A4829
:10BE0000FFF773FE10B17846FCF7CCFA0748FFF74E
:10BE100070FE10B17846FCF7C5FA022323760020A5
:10BE2000ECE700BFCC3B00200DBC0200EC3B002047
:10BE3000074B1B7C023B012B07D9064B18780138B6
:10BE400002288CBF0020012070470120704700BFEE
:10BE5000CC3B0020FD3B0020014B1868704700BF21
:10BE6000CC3B002010B5074B587948B11868FFF754
:10BE700055FE044600F09AF80346201A48BF181BE6
:10BE800010BD00BFCC3B0020014B5879704700BF6C
:10BE9000CC3B0020014B1879704700BFCC3B002001
:10BEA000024B187E003018BF01207047CC3B0020A9
:10BEB000EFF3108372B6054A527922B1044A4FF467
:10BEC0008071C2F8001103B962B67047CC3B002004
:10BED00000E100E0044B1B7E022B04D1034B012246
:10BEE0001A70FFF7E5BF7047CC3B0020FD3B0020F8
:10BEF000064B1B7E022B07D10128054B0CBF0322EA
:10BF000002221A70FFF7D4BF704700BFCC3B00205D
:10BF1000FD3B0020064B19781A4631B128B9054976
:10BF2000097811B11870FFF7C3BF1070704700BFD8
:10BF3000FC3B0020FD3B0020024B1B6803B962B6AE
:10BF4000704700BF143C0020022810B522D8EFF340
:10BF50001084114B1C6072B6104B43F82020104B1C
:10BF6000002243F820200F4B1B787BB1830003F1A4
:10BF7000804303F500431030C3F84021012202FA48
:10BF800000F0094AC2F80403C3F84015FFF7D4FFD4
:10BF9000002010BD0720FCE7143C0020043C0020DA
:10BFA000203C0020103C00200080004008B5EFF34A
:10BFB00010820A4B1A6072B6094B1B7853B1094BB9
:10BFC0000022C3F84C210122DA64D3F84C05FFF7B4
:10BFD000B3FF08BD044B1868F9E700BF143C00200C
:10BFE000103C002000800040183C00202DE9F84F54
:10BFF000DFF85880DFF858900024A70007F180454B
:10C0000005F50045D5F84031D3B1D8F8043304F133
:10C01000100201269640334212D057F809B0BBF106
:10C02000000F02D17846FCF7BDF94FF0000A49F83D
:10C0300007A0C8F80863FFF7B9FFD847C5F840A1C3
:10C040000134032CD9D1BDE8F88F00BF0080004037
:10C05000043C0020014B1B68184470471C3C002026
:10C0600008B5134B0022C3F84025C3F84021D3F88C
:10C070004011C3F84425C3F84421D3F84411C3F850
:10C080004825C3F84821D3F848310A4B1B681BB92F
:10C09000094B4FF480721A60084B01221A70FFF7A7
:10C0A000D9FB0146FFF782FF054B081A186008BD4F
:10C0B00000800040143C002000E100E0103C002023
:10C0C0001C3C00200B4A0C49002313605360936012
:10C0D0000A4A0B6010600A4A4B6013708B60094B70
:10C0E0004FF0FF32C3F80823074B4FF48072C3F8B8
:10C0F00080217047203C0020043C0020183C002098
:10C10000103C00200080004000E100E0044B1B7860
:10C110000F2B1EBF034B4FF48022C3F80021704742
:10C12000743D002000E100E010B5104C104B207071
:10C13000104803601023C0E90133FEF743F90E48AD
:10C14000FFF7DCF823780F2B0AD0072B09D8EC2255
:10C150001A41D20705D55B01084ADBB282F81233D7
:10C1600010BD7846BDE81040FCF71CB9743D0020B6
:10C17000403C00202C3C0020783D002000E100E005
:10C180000D4B1B780F2B0DD00C4991F812335A0927
:10C19000EC231341DB0706D5094B9A6832B94FF4FB
:10C1A00080230B6070477846FCF7FCB81A6842F4AD
:10C1B00080221A60704700BF743D002000E100E05B
:10C1C00060600020F8B5EFF3108772B61748026878
:10C1D000511C016002BB164B1B780F2B21D0EFF3D3
:10C1E000108C72B6134A144C95680123E5B993601C
:10C1F000124B134ED3F8801031401160C3F88060A9
:10C20000D3F8841051604FF0FF32C3F884202570BA
:10C21000BCF1000F00D162B6036813B97846FCF791
:10C22000C1F807B962B6F8BD2370F1E7403D0020C0
:10C23000743D002060600020753D002000E100E0BA
:10C24000FC06FFBD38B5EFF3108572B6104C2368BD
:10C2500013B97846FCF7A6F82368013B2360A3B91D
:10C260000C4B1B780F2B10D00B4B9A686AB10B4A02
:10C27000127852B9EFF3108072B609491C680C604D
:10C280005C684C609A6000B962B605B962B638BDA8
:10C29000403D0020743D002060600020753D00207E
:10C2A00000E100E038B5054610B97846FCF77AF8A9
:10C2B000094C2368092B02D97846FCF773F8EFF391
:10C2C000108372B62068421C2260044A42F8205053
:10C2D00003B962B638BD00BF443D0020483D002090
:10C2E00010B50E4B1B688342044602D87846FCF713
:10C2F00059F8EFF3108072B6094A6109012304F07E
:10C300001F0403FA04F452F82130234342F8213089
:10C31000FFF7FCFE00B962B610BD00BF443D00202F
:10C32000703D002070B50D461646044610B978469B
:10C33000FCF738F815B97846FCF734F8EFF31083BA
:10C3400072B60022C4E902562274246003B962B6B0
:10C3500070BD000070B5044610B97846FCF722F8AD
:10C36000A36813B97846FCF71DF8EFF3108672B690
:10C37000237C03F0FF055BB90123064823742146A3
:10C38000FEF7C6FFFFF7C2FE284606B962B670BDCB
:10C390001120FAE7783D002010B5044610B9784620
:10C3A000FCF700F8207C10BD2DE9FF47314E3378B3
:10C3B00013B17846FBF7F6FF0125DFF8C8802E4F52
:10C3C000DFF8C49035700024D8F80030A34212D8AA
:10C3D0002A48DFF8A880FEF7B5FF002750BB284C9D
:10C3E00069462046FEF708F890B3002328463370CC
:10C3F00004B0BDE8F087610904F01F0201239340F7
:10C4000057F82120134213D0EFF3108072B657F87B
:10C41000212022EA030347F8213000B962B659F817
:10C4200024309847824618B92046FFF759FF5546F1
:10C430000134C9E70468237C13B97846FBF7B2FFDF
:10C44000D4E90230984727744046FEF77BFFC5E7E2
:10C450009DF8003043B1012BC2D1019B002BBFD00E
:10C46000DDE902019847BBE7019B002BB8D0029899
:10C470009847B5E7803D0020703D0020783D0020C2
:10C480002C3C0020443D0020483D0020FFF78CBF9D
:10C4900007B5FEF7FDFF8DF803009DF8033017493F
:10C4A000F02B0DD10B780F2B25D01220FEF7F8FFC3
:10C4B00080F00100C0B200F0010003B05DF804FBA1
:10C4C0009DF803305BB2002BADBF03F1604303F076
:10C4D0000F030B4A03F56143B4BFD35C93F80033F9
:10C4E0005B090193019A0B78934204D0019A93421D
:10C4F000DBD30020DFE70120DDE700BF743D002033
:10C5000014ED00E046DF704730B58DB00D4614469F
:10C5100001461022684613F05AFE102229460DEB00
:10C52000020013F054FE6846FFF7ECFF102208A942
:10C53000204613F04CFE0DB030BDFEF7D7BF01F022
:10C5400047BE01F06FBE30B4032956D8DFE801F0D2
:10C550000227275000241C70817A5A7861F3060262
:10C560005A70C17AD2B261F3C7125A70C1680D0411
:10C57000C1F3074205F47F0501F47F412A430A43D2
:10C58000C2F307219A70120C1A71D9700189DC71FB
:10C590000A0A42EA0122A3F805201C7222E019705F
:10C5A000597801F0800162F3C7115970C1680C0419
:10C5B000C1F3074204F47F0401F47F4122430A439C
:10C5C0009A70C2F30721120C1A71D97001890A0AF4
:10C5D00042EA0122A3F8052041880A0A42EA012220
:10C5E000A3F80720026912BAC3F8092030BC7047CB
:10C5F000032200241A705C70B8E7784630BCFBF761
:10C60000D1BE7FB50E461546044600B112B9784634
:10C61000FBF7C8FE10220021684613F0E3FD2B460D
:10C62000324621466846FEF761FF04B070BD2DE931
:10C63000FF410B9D884616461C46074610B10AB1BD
:10C6400003B115B97846FBF7ADFE6B464246394655
:10C650003046FEF74BFF2B469DF8282021466846C2
:10C66000FEF744FF04B0BDE8F0810000F0B50D46D0
:10C670008FB014461F46064608B101B113B978467B
:10C68000FBF790FE1CB97846FBF78CFE01E0102CFE
:10C69000F9D8254B1868009005AA68460421FFF7D1
:10C6A000B0FF01AB314605A81022FEF71FFF22465E
:10C6B000294605A813F08BFD0EAB2344012203F895
:10C6C000242C05ABA218194601A892B2FEF70EFF62
:10C6D0009DF823303E4603F07F0306F8013B2246D7
:10C6E000294609A813F073FD04F110050EAB1D4493
:10C6F0001134A4B2022305F8243C2246334605A98E
:10C7000001A8FEF7F3FE3146102205A813F05FFDE5
:10C71000032305F8243C224607F1110305A901A8CB
:10C72000FEF7E4FE0FB0F0BDBA0A040070B50D4686
:10C7300088B0064600B111B97846FBF733FE114CBC
:10C7400004212068019004AA0DEB0100FFF759FFB6
:10C7500004AB314618461022FEF7C8FE234602A954
:10C7600053F8040F02901B798DF80C3004AB184677
:10C770000522FEF7BBFE082206A9284613F027FD76
:10C7800008B070BDBE0A040070B50D4686B00646FE
:10C7900000B111B97846FBF705FE0F4C54F8040BB5
:10C7A000009002AA68460421FFF72BFF02AB314636
:10C7B00018461022FEF79AFE2068019002AB042270
:10C7C00018460DEB0201FEF791FE9DF8173003F0BD
:10C7D0003F032B7006B070BDC70A040030B5026875
:10C7E000037CD17A87B000298DF8043083680CBFB0
:10C7F0000421082109330B44CDE902324368049334
:10C800000446C3680593694601A801F023FFD0B12F
:10C81000237C012B0ED02568FEF704F928612068DF
:10C820000C30FEF797F8054620B101F08FFF28463F
:10C8300007B030BD2168009800F0AFFB009B0933C2
:10C8400063610025F3E70425F1E7000008B5074B15
:10C8500040B91860FDF76EFFFDF716FFBDE8084010
:10C8600002F0C4BB42681A60F4E700BF843D0020B8
:10C8700008B5FDF781FFBDE8084002F0F5BB10B533
:10C88000044610B97846FBF78DFD236813B9784646
:10C89000FBF788FD23685B6913B97846FBF782FDD7
:10C8A000237C012B02D97846FBF77CFDE36813B9A2
:10C8B0007846FBF777FD2046BDE81040FFF78EBFB6
:10C8C00070B50446C6B010B97846FBF76BFD6369D6
:10C8D00013B97846FBF766FD236813B97846FBF772
:10C8E00061FD23685B6913B97846FBF75BFD6069FE
:10C8F00000F0B0FB234B1B689B0706462FD5224B4D
:10C900001B68042B2BDD214B05AD19680023F25C5D
:10C91000100902F00F02085C05F81300885C05EBB3
:10C92000430201331D2B5070F1D100232F211848F1
:10C9300085F83A3013F026FDD8B12F21144813F0B2
:10C9400021FD411C134B144AD3F804350192134ABC
:10C95000009202954FF49472052000F0BFFD002371
:10C960003246A168206800F0D9FA01F0C9FE46B04D
:10C9700070BD5C21064813F005FD08B15C21DDE7C0
:10C980000349DFE7782E0020742E00207C2E002043
:10C990001A0B040000100140350B0400F2060400DD
:10C9A0002DE9F0478846D4B017460546002800F028
:10C9B000578100F053FB0DF12C09AB4E421B294669
:10C9C000484613F004FC336899072AD5A74B1B6827
:10C9D000042B26DD4046A64B8028196828BF8020FE
:10C9E000002313AC834240F0D28000222F21A148C3
:10C9F00004F8132013F0C6FC002800F0D9802F2182
:10CA00009C4813F0BFFC411C9B4B9C4AD3F8043557
:10CA100001929B4A0092029440F24D12052000F0D0
:10CA20005DFD002305AC00932A464B464146204657
:10CA300000F02AFA8246002840F0E4802378002B98
:10CA400000F0E080E268B2F1807F80F0DB80E27A83
:10CA500012B1022B00F0D68094F90A30002BC0F2FC
:10CA6000D180336813F0020F13AD29D07F4B1B68C0
:10CA7000042B25DD40467E4B8028196828BF802086
:10CA80000023834240F09D8000222F21794805F841
:10CA9000132013F077FC002800F0A5802F217548A3
:10CAA00013F070FC411C744B764AD3F804350192A4
:10CAB000734A009202954FF4AB72052000F00EFD10
:10CAC000636913B97846FBF76DFC3946204605F0DB
:10CAD0004FFD4146204600F0B5FA5FFA80F83B462C
:10CAE000224641460DF13500FCF762FCE1688246C2
:10CAF0002089FBF7C3FC208911F014FB20B1606989
:10CB00000DF088FA00B16061294620890DF064F9C2
:10CB1000002877D1012003F04BFB002872D0A37AC4
:10CB2000012B6FD92378012B66D03B78012B03D1E1
:10CB300005F054FD002865D0534BA27A1B68002BEA
:10CB400064D1A37A2C60013BA3724FF0FF336B607A
:10CB5000DF23EB6001232B743B78C5F80880012BA1
:10CB600006D005F03BFD18B9EB6883F00203EB60DB
:10CB70002846FFF733FE00284ED142460DF135011D
:10CB8000686913F024FB2846FFF79AFE3AE0EA5C56
:10CB90004FEA121C02F00F0211F80CC004F813C087
:10CBA00011F802C004EB4302013382F801C019E717
:10CBB0005C21304813F0E6FB08B15C2120E72D49E9
:10CBC00022E719F803204FEA121C02F00F0211F8B5
:10CBD0000CC005F813C011F802C005EB4302013385
:10CBE00082F801C04DE75C21224813F0CBFB08B16D
:10CBF0005C2154E71F4956E7294660880DF0ECF8A0
:10CC0000002892D0504654B0BDE8F0876188208952
:10CC10009847002895D1F5E733689B07F2D5134B69
:10CC20001B68012BEEDD2F21124813F0ABFB70B116
:10CC30002F21104813F0A6FB411C0F4B134AD3F8C9
:10CC4000043500920220A72200F048FCDAE75C21BC
:10CC5000084813F097FB08B15C21EAE70549ECE7C7
:10CC60004FF00E0ACEE700BF782E0020742E002071
:10CC70007C2E00201A0B040000100140CF0A040093
:10CC8000F2060400DE0A0400843D0020ED0A0400E0
:10CC900008B510B1012801D1032008BD7846FBF783
:10CCA00081FB0020F9E770B5064688B00D461446B2
:10CCB0000021052204A813F095FA336907221BBA54
:10CCC000A9180DF11900CDF8153013F080FA70692C
:10CCD0006A46113004A9FFF717FCAB1D0DF10600E1
:10CCE000E21D13F8011910F8014DAB4281EA04016D
:10CCF00002F8011DF5D108B070BD00002DE9F0412A
:10CD0000D4B01E4600238DF81730ADF83C300E939A
:10CD1000D31D0C93F31D10935A9B43610F460DF1E5
:10CD20001808114632460446CDF82C80FFF7BBFFA9
:10CD30007378DB09E372737803F07F03A372F378EF
:10CD4000B2781B0243EA024332791343E3607379FA
:10CD5000B07940EA03202081FEF7D2F8012869D19A
:10CD6000E27A002AA7F1090314BF082204229342A1
:10CD700060D3E1682089FBF763FB0546002859D1A1
:10CD8000E37A9DF86C01002B14BF08230423073FAE
:10CD90008DF84830FF1A0C9BBFB2ADF834701F44B9
:10CDA0001197FFF775FF434601462A462046FFF7D5
:10CDB000CAFB63690DF1170101330AA80A93FFF753
:10CDC000C0FB9DF81730002B34D0F379307A40EA5D
:10CDD00003206080FEF794F8244B20701B689B07AB
:10CDE00028D5234B1B68032B24DDBDF83420214BB1
:10CDF000109E1968802A28BF8022284613AC9042D2
:10CE00001DD1002304F810302F211B4813F0BAFA6B
:10CE100010B32F21184813F0B5FA411C174B184ACC
:10CE2000D3F804350192174A00920294DF220420BD
:10CE300000F054FB9DF8170054B0BDE8F081335C5E
:10CE40001D0903F00F034D5D04F81050CD5C04EB99
:10CE5000400301305D70D2E75C21074813F092FA7D
:10CE600008B15C21D6E70449D8E700BF782E00203E
:10CE7000742E00207C2E00203C0B0400001001408A
:10CE80005A0B0400F20604002DE9FF4789461546B7
:10CE90001F469DF830A0064618B112B10BB19A4258
:10CEA00002D17846FBF77EFAA9F10903142B31D899
:10CEB0002878C009FDF7C0FD00233061736195F843
:10CEC0000080CDE9023308F07F0803AA02A940469A
:10CED0000CF026FE029BB3B1CDE9003A2A463B4650
:10CEE00049463046FFF70AFF044608B100200EE02D
:10CEF000039B43B1CDE9003A2A463B4649463046BA
:10CF0000FFF7FCFE40B9029B002BDED1052004B0E8
:10CF1000BDE8F0870920FAE72046F8E7F0B50C46AF
:10CF20008FB016461F46054610B97846FBF73AFA09
:10CF300016B97846FBF736FA012F02D97846FBF787
:10CF400031FA3846FFF7A4FE01AF3B460146002206
:10CF50002846FFF7F8FAEB7A002B14BF08230423C6
:10CF60008DF834306B69A11C0133CDE9053789B2E6
:10CF7000F31D0022ADF8201005A8194407930B9368
:10CF8000ADF8282009920C91FFF7D9FA32463146C4
:10CF90002846FFF788FE0FB0F0BD38B50D460446B1
:10CFA00010B97846FBF7FEF915B97846FBF7FAF9A0
:10CFB0002889FDF7A5FF012802D07846FBF7F2F992
:10CFC00095F90A30002B02DA7846FBF7EBF9EB68AB
:10CFD000B3F1807F02D37846FBF7E4F96B6913B9AC
:10CFE0007846FBF7DFF92B6903F00102237803F0A1
:10CFF0007F0343EAC21323706A69127823F07F0328
:10D0000002F07F02134323706378EA7A03F07F0310
:10D0100043EAC213DBB26370AA7A23F07F0302F003
:10D020007F0213436370EB6823711A0CA2701A0A13
:10D03000E2702B89A3711A0A62716B8823721A0A33
:10D04000E27138BDC37A002B14BF082004200939CF
:10D05000081A704709387047093070470130704727
:10D06000436849B9027880781A441B78C31A12F8C9
:10D07000010C1844C0B270475A185B5C12F8010CDE
:10D08000C01AF7E738B50D46044610B97846FBF7E5
:10D0900089F92378AB4202D87846FBF783F9294611
:10D0A0002046FFF7DDFF40B163686278585DA378E2
:10D0B000013B1840A36802FB003038BD38B50C4670
:10D0C000054610B97846FBF76DF92B78A34202D8D4
:10D0D0007846FBF767F921462846FFF7C1FF18B1EC
:10D0E0006A68135D0133135538BD10B5044610B995
:10D0F0007846FBF757F90023194622789A4200D860
:10D1000010BD6268D1540133F7E710B54378044687
:10D1100013B97846FBF746F92378012B02D87846F5
:10D12000FBF740F9A36813B97846FBF73BF963684E
:10D1300013B97846FBF736F9A37813B15A1E1A4291
:10D1400002D07846FBF72EF92046BDE81040FFF7E5
:10D15000CCBF38B50D46044610B97846FBF722F926
:10D160002378AB4202D87846FBF71CF929462046C3
:10D17000BDE83840FFF774BF08B520B119B1FFF71B
:10D1800003FB002008BD0E20FCE713B50B4650B191
:10D1900049B102A9002401F8014D0122FFF766FA06
:10D1A000204602B010BD0E20FBE71FB5134618B392
:10D1B00011B30AB301228DF804200A88140A44EA44
:10D1C00002244A88ADF80540140A44EA02248A88F9
:10D1D000ADF80740140A44EA0224CA88ADF80940B1
:10D1E000110A41EA0221ADF80B10092201A9FFF74B
:10D1F0003DFA002004B010BD0E20FBE730B50C4610
:10D200008BB00546E0B1D9B11031FFF78FFA0D4B65
:10D2100003930D4B186804909B88ADF8143006AA50
:10D22000042103A8FFF7EDF9062300932846019493
:10D2300004AB06AA1021FFF7FAF900200BB030BDAD
:10D240000E20FBE76E6B626B6D0B040030B50D4674
:10D250008BB00446C8B1C1B10D4B03930D4B186898
:10D2600004909B88ADF8143006AA042103A8FFF7A8
:10D27000C8F9062300932046019504AB06AA1021A5
:10D28000FFF7D5F900200BB030BD0E20FBE700BF43
:10D290006E6B696B6D0B040030B50C4687B00546AC
:10D2A000F0B1E9B104210F4B01930DEB010002AA8B
:10D2B000FFF7A7F902AB184610222946FFF73DF900
:10D2C0009DF816309DF817201B026FEA424203F4C6
:10D2D0007C536FEA524213432380002007B030BDD5
:10D2E0000E20FBE7767461648369D0E9000201FBDC
:10D2F000020003B11847194612F074BF38B505464D
:10D300000024AB68A34202D8013BEB6038BD214644
:10D310002846FFF7E9FF0134F3E7F8B5C56804468E
:10D320000F460026A368B34201D8002012E0D4E9DA
:10D330000012636902FB0511384633B1984740B9C2
:10D34000A36845B1013D0136ECE712F031FF00283A
:10D35000F6D10120F8BD5D1EF5E710B4C368826800
:10D36000046901339342C36004BF0023C360426871
:10D37000C368006803FB02001CB123465DF8044B40
:10D3800018475DF8044B12F022BF38B50D4604462D
:10D3900000B111B97846FBF705F8AC421EBF23680F
:10D3A0002B60256038BD38B50C46054600B111B973
:10D3B0007846FAF7F7FF2B68A34202D17846FAF7CE
:10D3C000F1FF286840B92C60206038BDA54202D129
:10D3D0007846FAF7E7FF28460568002DF6D1214682
:10D3E000BDE83840FFF7D1BF38B505460C4601B15E
:10D3F00010B97846FAF7D6FF2B6883B1A34205D15E
:10D4000023682B600020206038BD13461A6822B1C3
:10D41000A242FAD122681A60F4E7002CFAD0052063
:10D42000F2E7F8B50E461746044608B101B112B945
:10D430007846FAF7B7FF2368B34202D17846FAF785
:10D44000B1FF25685DB9266028463560F8BD2C68B7
:10D45000A64202D17846FAF7A5FF3CB125463146EF
:10D460002846B8470028F2D00F20EFE7284631467B
:10D47000FFF78BFF2046E9E737B506AC184654F8AE
:10D48000045B00920B4602460549002011F0B2FDF4
:10D4900022462946002011F08FFC03B030BD00BFAA
:10D4A000740B0400034B1860034B1960034B1A60A4
:10D4B000704700BF782E0020742E0020802E0020A0
:10D4C00010B4054C24681CB1A4465DF8044B6047B9
:10D4D0005DF8044B704700BF802E002030B585B04A
:10D4E00008AC54F8045B0394CDE90054FFF7E8FF5F
:10D4F00005B030BD037942799B1A00EB03307047C9
:10D50000431E9BB247F6FE62934208D849B14B884E
:10D5100058400B8818420CBF0120002070470020A3
:10D52000704701207047830770B504460E460546D4
:10D5300002D07846FAF736FF26F003063444A542B7
:10D5400001D1012070BD55F8043B0133F7D0002014
:10D55000F8E70000064B984210B5044603D303F5E4
:10D560008273984202D97846FAF71CFF201F10BD3B
:10D57000943D00201FB50124CDE9022101901A46F7
:10D58000694620468DF80040FDF7FCFB04B010BD55
:10D59000F8B50C4D01460C48FCF7F1FB6E687EB106
:10D5A00000272846FDF7CEFE044610B97846FAF764
:10D5B000F9FE23682760D3E902209047A642F0D104
:10D5C000F8BD00BF9C3E0020883D002038B5038890
:10D5D0004A6803F18043013B9C001368033323F046
:10D5E0000303A3420D4605D009238B606B681C60C2
:10D5F000002038BD00238B601268011D286812F0DE
:10D60000E6FDF3E713B502A9002482B241F8044D08
:10D610000448FCF7D0FA18B90198043002B010BDE4
:10D620002046FBE7883D002008B5FFF793FFBDE8E3
:10D630000840014602880148FCF70EBB883D0020E7
:10D64000014B1868FEF74CBEA43E002010B50388BD
:10D65000044613B97846FAF7A5FE2088074B04EB79
:10D66000800030EA030203D06288B2F5FE4F04D195
:10D670001C4004F580542078204410BD00F0FFFFCA
:10D6800070B50468237805461C4400214FF6FF76E8
:10D690002868FFF72FFF844202D26388B34201D18A
:10D6A000084670BD2046FFF7D1FF21460446EFE74C
:10D6B0002DE9F04F934FDFF8708287B03E4698F81F
:10D6C00000203B78022A14D1032BFDD8DFE813F0A9
:10D6D000040039001100670106A9002341F8103D3C
:10D6E0008948FCF7EAFA014638B1884B1B6803B158
:10D6F0009847012007B0BDE8F08F029C844B94F856
:10D700000890221D1A60012399453370D7D86568A7
:10D71000E868FFF7EFFE6B69C01AAB68C01AB9F191
:10D72000000F01D1218A89008142C8DB6B68002B80
:10D73000C5D003232B70606888F80030FCF71AFE10
:10D74000BDE7734B1C682379042B00F2D380DFE81C
:10D7500013F005008A00AD00ED0017012368DD68B5
:10D760002846FFF7C7FE2B78E2890146E81800F04B
:10D770002FFF2568AB68824673B9D5F80C904846F0
:10D78000FFF7B8FE99F80030014647F6FF7209EB43
:10D79000030000F01DFFA8602268A189D2F808905C
:10D7A000DFF880B129F47F6525F00F0505F5805578
:10D7B000A5EB090389008B4233D909EB010521460A
:10D7C000002331F80C2F48469200FFF7D3FE10B12A
:10D7D0007846FAF7E7FD4F4B4F4904222846FFF7FA
:10D7E000C9FE10B17846FAF7DDFDBAF1000F10D08E
:10D7F0002268BAF80010536803EB8103536047496D
:10D80000444B04225046FFF7B5FE10B17846FAF7B4
:10D81000C9FD0023C4F808908BF800300223337050
:10D820004DE7D0680193FFF765FE8542019B04D167
:10D8300001238BF800300323F1E78B4202D12B78D0
:10D840001D44BCE70023042235494846FFF792FEF9
:10D8500010B17846FAF7A6FD95F80090A944A5897D
:10D8600009EB8505ABE72368DD682846FFF742FE34
:10D870002B78E2890146E81800F0AAFE294D10B97C
:10D8800002232B70D7E72268A0600188536803EB5E
:10D890008103536021491F4B0422FFF76BFE60B3E5
:10D8A0007846FAF77FFD00232B70B7E72268637B89
:10D8B000D56805EB033508212846FFF734FE90B9FB
:10D8C00005F1FF3A04F1070904F10F0B1AF8013FC3
:10D8D00019F8012F9A4204D0FF2B02D07846FAF7AC
:10D8E00061FDCB45F2D108220A4BA1182846FFF76B
:10D8F00041FE10B17846FAF755FD0A4B00221A7026
:10D900008CE700BF983E0020883D0020A83E002004
:10D91000B03E0020AE3E0020A40B04009C0B04008F
:10D92000A00B0400B43E0020AC3E002020680C3068
:10D93000FFF7A6FE054610B97846FAF733FD6B8867
:10D940004BB1554B554904222846FFF713FE10B141
:10D950007846FAF727FD2846D4F80090FFF776FEC0
:10D96000C9F808002168C868FFF7C4FD8B688342C6
:10D97000C3D22846FFF76AFE474B49490422B6E75F
:10D980002368D3E9032302211B038DF80810CDE996
:10D99000032302A9404A0120FDF7F4F9A9E7414C0D
:10D9A000236813B97846FAF7FDFC3F4B246893F8D7
:10D9B0000090B9F1000F21D12379D4F808A0012BF0
:10D9C00013D00AD3022B1CD023792568042B35D819
:10D9D000DFE803F01F3B433451002146504631F845
:10D9E0000C2F920012F0E4FB01E0BAF80200B0FA4A
:10D9F00080F040090028E7D14FF0030904F10C0A38
:10DA0000E2E72368607BDB680822A11803EB0030A3
:10DA1000E8E7B9F1000F0BD1A068FFF717FEA86087
:10DA2000428847F6FF739A4202D07846FAF7BAFC6A
:10DA3000AB691BB14A465146284698472046FFF736
:10DA400089FDFFF7A5FD0023E9E6EB69002BF5D082
:10DA50004A46E18928469847F0E72B78012B02D007
:10DA60007846FAF79FFC237B627B013B9A42E5D123
:10DA700002232B70E2E7B9F1000F02D07846FAF7E3
:10DA800091FC2B78012B1CBF00232B702B6A002BE1
:10DA9000D4D028469847D1E7AE3E00209C0B040026
:10DAA000A40B0400B03E0020B43E0020064B1B88AF
:10DAB000934207D1054B1A78022A03D103221A7028
:10DAC000FFF7F6BD704700BFAE3E0020983E002035
:10DAD00008B54FF482720F490F48FBF7EEFF0F496C
:10DAE0000120FDF73FF90E48FEF7DCFB0D4B0E4A17
:10DAF0001860002313700D4A0D481380FDF7FEFBDC
:10DB0000FCF7CEFB0B4B10B103221A7008BD0222AA
:10DB1000FBE700BF943D0020883D0020ADDA020005
:10DB2000B1D60200A43E0020983E0020AE3E002068
:10DB30009C3E0020AC3E002010B504460820FFF7B4
:10DB400061FD042340B1237003710460FFF76CFD95
:10DB5000FFF776FD002010BD1846FCE72DE9F04FD9
:10DB600087B0814603910192049310B97846FAF781
:10DB700019FC0120FDF78CF9FCF71EFC0024031DA5
:10DB8000054627464FF00108029347F6FE6BD9F889
:10DB90001010A14202D9B8F1010F06D00020FDF704
:10DBA00077F9384607B0BDE8F08FD9F80C3028680F
:10DBB00003EB0432904202F5805604F1010426D1B1
:10DBC000A14205F5805A20D0327816447188013977
:10DBD00089B2594535D900F5005230460592FFF714
:10DBE00035FD059A824210D986420ED2418801390C
:10DBF00089B25945F2D82E79029B4288514698192C
:10DC000000F0E6FC002818BF8246029A56461378B8
:10DC100002EB030AB245BADAB8F1010FB7D10399A2
:10DC2000BAF80200FFF76CFC30B1019B01371BB161
:10DC300004995046984780465046FFF707FD8246B4
:10DC4000E8E73046D7E700007FB5E8B1E2B1DBB1E5
:10DC50004C1EA4B247F6FE66B44217D80478023CC4
:10DC6000012C15D8CDE901230523ADF8021003934B
:10DC70004FF6FF7401AB074AADF800406946FFF765
:10DC80006DFF039804B070BD0E20FBE70720F9E795
:10DC90000820F7E7CDD5020070B50D46044610B94F
:10DCA0007846FAF77FFB0023294620461A46BDE84E
:10DCB0007040FFF753BF70B50E461446054610B9C5
:10DCC0007846FAF76FFB731E9BB247F6FE629342EB
:10DCD00006D947F6FF739E4202D07846FAF762FBF8
:10DCE000802C02D97846FAF75DFB2B780BB900201F
:10DCF00070BD04F11000FFF785FC0028F7D0033455
:10DD0000A408002301340371C681848140F80C5BB0
:10DD1000EEE70000094B984210B5044603D303F523
:10DD20008273984202D97846FAF73CFBA4F10C00C2
:10DD3000FFF77AFCBDE81040FFF782BC943D00205D
:10DD400038B50C46054610B97846FAF72BFB631E2A
:10DD50009BB247F6FE62934206D947F6FF739C4298
:10DD600002D07846FAF71EFB1020FFF74BFC60B19B
:10DD7000012202714FF6FF72C48182810560FFF7B4
:10DD800053FCFFF75DFC002038BD0420FCE70000D9
:10DD90002DE9F843002303700B68C3F30B0304461B
:10DDA0000D4613B17846FAF7FDFA6B68FE2B02D9DF
:10DDB0007846FAF7F7FA04F10C0718222946384694
:10DDC000002612F004FAC4E9016623699E4257D383
:10DDD0002046FCF7ABFA064600287CD1E5682846C9
:10DDE000FFF788FB2B7880461D4447F6FF796B8848
:10DDF000C3F30E024A4572D166602046FCF796FADC
:10DE000010B17846FAF7CEFA3846FFF739FCA06031
:10DE1000002873D1E3681A7813444FF6FF725988CB
:10DE2000914200D1A360022323702046FCF77EFAC2
:10DE300010B17846FAF7B6FAE5682B781D44A36866
:10DE40009D424AD22846FFF701FCA3689842064645
:10DE500068D16A88531E9BB247F6FE618B423CD85C
:10DE6000E36818782946184400F0B2FB002834D043
:10DE7000A84232D041882046BDE8F843FFF760BF92
:10DE80003503E3685A195B5D083BDBB2F62B15D806
:10DE90005379FF2B12D01279FF2A0FD09E4202D065
:10DEA0007846FAF77FFAE3682B441A7923699A4295
:10DEB00002D07846FAF776FA013686E701233B4F1F
:10DEC0002370002523699D4231D3FFF7B9FBE36836
:10DED0000833A36001E003232370002018E013B986
:10DEE0002B8806EB83062846FFF7B0FB80450546E6
:10DEF0003FF67DAF7846FAF755FA78E7428847F65D
:10DF0000FF739A428FD00820FFF77CFB10B90420E2
:10DF1000BDE8F883032202710460FFF785FBFFF779
:10DF20008FFB80E73046FFF791FB35468DE7E068D1
:10DF30002E03304440F6FC710430FFF7F4FA90B140
:10DF40001020FFF75FFB0028E1D0022202718760FA
:10DF50004573226902734FF6FF72C2810460FFF7B6
:10DF600063FB0135AEE7E3689A199B5D083BDBB2C2
:10DF7000F62B05D85379FF2B02D01379FF2B02D152
:10DF80007846FAF70FFAE36833445B799D4202D092
:10DF90007846FAF707FAE3681E44236932799A4211
:10DFA000DFD07846FAF7FEF9DBE700BF080410106F
:10DFB00010B5044610B97846FAF7F4F9A36813B916
:10DFC0007846FAF7EFF9236833B92460214603480D
:10DFD000BDE81040FDF79CB910BD00BF9C3E00207D
:10DFE00008B50648FBF705FF20B1FCF7BBF980F048
:10DFF0000100C0B200F0010008BD00BF883D002054
:10E0000038B5044698B1C5682846FFF773FA2B78EF
:10E01000014647F6FF72E81800F0DAFAA06010B97E
:10E020007846FAF7BFF90223237000236360054B9B
:10E030000549022201201A70FCF794FEBDE8384021
:10E04000FFF7FEBAAC3E0020ADDA0200FCF7B4B92F
:10E0500038B50546044C20B1236813B17846FAF769
:10E06000A1F9256038BD00BFA83E002030B503B936
:10E0700030BD013B9BB2CC5CD55C6C40C454F6E730
:10E0800046DF70472DE9F843858907468846012415
:10E0900001F120090DB9BDE8F88363BAA8F81E3074
:10E0A0004046FFF7EDFF102D04F1FF3CB968B86959
:10E0B0002E464FEA0C1C28BF102633464A466144C0
:10E0C0006044AD1B0134FFF7D1FFADB2A4B2E1E76C
:10E0D0002DE9F04707460E461446994600F1100513
:10E0E00000F120080CB9BDE8F087C9F1100A5445C9
:10E0F00005EB090018DA2246314612F068F804EB05
:10E100000900C0F110020021284412F06BF800242D
:10E1100010232A4641462846FFF7A8FF3846FFF756
:10E12000AFFF4FF00009DDE7103C3146524619FAC7
:10E1300084F412F04CF8A4B25644E9E770B5838A2F
:10E14000002B90F820300D46A3F102034FF002019E
:10E1500093FBF1F34FEAC30303F03803164643F091
:10E16000010314BF40220022134304462B7441686C
:10E170000D2205F1110012F02AF8A289130A43EAD0
:10E180000223EB832846FFF77BFFA38A83B1B3F515
:10E190007F4F02D37846FAF705F9A28A130A43EAB9
:10E1A00002232B82A28A216902232846FFF790FFCF
:10E1B000A28922B10023A1682846FFF789FF94F8BD
:10E1C000202005F120013046BDE8704011F0FFBF6E
:10E1D00030B504468DB001681022684611F0F7FF93
:10E1E000E26969462046FFF7A9FFE56961680123F6
:10E1F0000D220DF111008DF8103011F0E8FF002311
:10E200006846ADF81E30FFF73BFF94F8203008AAAF
:10E2100029462846FFF72AFF69462046FFF732FFC6
:10E220000DB030BD70B590F82030102B90B0044682
:10E230000D4602D97846FAF7B5F8102221680DEBA1
:10E24000020011F0C4FFA3897BB1012361688DF83E
:10E2500020300D220DF1210011F0B9FF002304A997
:10E260002046ADF82E30FFF70DFFA369A668A36026
:10E270006A4604A92046FFF761FF616801230D2269
:10E280000DF121008DF8203011F0A1FF002304A82A
:10E29000ADF82E30FFF7F4FE94F820300CAA694652
:10E2A0006846FFF7E3FEA66094F82020E16968461F
:10E2B00011F07EFFB0FA80F04009287010B070BDF8
:10E2C00070B50B4C038825889D42064606D0013365
:10E2D0009BB29D4202D07846FAF764F830882368F2
:10E2E000854238BF03F1FF331B0C1B04184470BD7B
:10E2F000B83E00202DE9F8430378022B0DD1FCF73E
:10E300008BFB114EDFF848800546002400F1FF39F1
:10E3100033689C4203D30D4B1D60BDE8F88308EBC6
:10E32000C407B81DFFF7CCFF85420BD0484509D084
:10E330003368013B336008EBC30393E8030087E8CD
:10E340000300E5E70134E3E7BC3E0020B83E0020CF
:10E35000C03E002008B5FCF75FFB014B186008BD0C
:10E36000B83E00202DE9F8431A4D1B4E2B68884615
:10E3700091460024A3420CD1282B29D0164A02EB47
:10E38000C30142F8338001338880A1F806902B60E6
:10E3900015E0E700F2199188814217D1901DFFF72F
:10E3A0008FFF81450ED156F83400804594BF002080
:10E3B000012028B1374446F83480A7F806900020A1
:10E3C000BDE8F8838CBF01200020F2E70134D1E7DB
:10E3D0000420F5E7BC3E0020C03E0020F8B5114BFC
:10E3E000114E0C46196817460025A94201D100209C
:10E3F00011E006EBC5039A88824211D1981DFFF700
:10E400005FFF874208D156F83500844294BF002050
:10E41000012080F00100F8BD8CBF01200020F8E74A
:10E420000135E2E7BC3E0020C03E0020034B04481B
:10E4300000214FF4A072196011F0D4BEBC3E002040
:10E44000C03E002008B50348FCF740FFBDE8084087
:10E45000FFF7ECBF842E00202DE9F04188461646D8
:10E460001F460446B0B1C2B1013B1B2B15D8FF2992
:10E4700013D0BD1CEDB2691C02F076F8044648B119
:10E480002B234574837480F813803A463146143048
:10E4900011F09DFE2046BDE8F0810024FAE700005F
:10E4A000F0B50E46C7B01746054610B97846F9F7DD
:10E4B00079FF002E7AD02C78711EC9B2002C57D06B
:10E4C000012C5CD03A4C2268D20519D5394B1B6817
:10E4D000012B15DD2F21384811F054FF002853D0AF
:10E4E0002F21354811F04EFF411C344B2A78D3F8C8
:10E4F00004350192324A009202206D22FEF7EEFFAF
:10E500002368DB0532D52B4B1B68032B2EDD2D4BEF
:10E51000802E196828BF8026002305AC15F8012F2E
:10E52000100902F00F02085C04F81300885C04EB89
:10E53000430201339E425070F0D100232F211E4828
:10E5400004F8163011F01EFF38B32F211A4811F0CD
:10E5500019FF411C194B1C4AD3F8043501921B4A80
:10E56000009202946E220420FEF7B8FF0B2004E014
:10E570003A46681C0CF012FE002047B0F0BD3A4647
:10E58000681C00F0B9FDF7E75C210B4811F0FAFEBA
:10E5900008B15C21A5E70849A7E75C21064811F00E
:10E5A000F1FE08B15C21D1E70349D3E70920E4E794
:10E5B000782E0020742E0020A80B040000100140CB
:10E5C000C20B04007C2E0020E80B0400F2060400BD
:10E5D00088422DE9F84307460E46904602D9784610
:10E5E000F9F7E0FE3C46DFF85C901AE0238804EB84
:10E5F00083039E4221D9238813B97846F9F7D2FEC6
:10E60000238804EB830333EA090203D06288B2F55E
:10E61000FE4F01D12B782B449E420ED99F421C46BF
:10E620000BD26388434509D004EA090505F58055F6
:10E63000B542E0D3B3F5FE4FD8D100242046BDE863
:10E64000F88300BF00F0FFFF014B1860704700BF68
:10E65000044000202DE9F0410F46054610B97846E8
:10E66000F9F7A0FE17B97846F9F79CFE2B78012B35
:10E6700002D97846F9F796FE1E4C236A13B1784604
:10E68000F9F790FE6B681D2B02D97846F9F78AFEE0
:10E690002B78012B09D1EB685A1C06D003F50073C7
:10E6A000012B02D97846F9F77DFE134B1E684FF017
:10E6B000010846B9236A1BB16B6823700F4B3B609E
:10E6C000206ABDE8F08116F8032C2B691A42A6F1E6
:10E6D00008000CD056F8083C29461B68984730B90A
:10E6E00016F8043C226A08FA03F3134323623668DF
:10E6F000DFE700BF6C600020084000206D60002054
:10E70000F8B50F4D2B6A13B97846F9F74BFE0D4B50
:10E710000D4F1C6801260CB92C62F8BD14F8043C9E
:10E720002A6A06FA03F31342A4F1080005D054F84C
:10E73000083C2A785B68394698472468EBE700BFB5
:10E740006C600020084000206D60002070B50D4D09
:10E750002B6A13B97846F9F725FE0B4B1C68012686
:10E760000CB92C6270BD14F8043C2A6A06FA03F353
:10E770001342A4F1080003D054F8083C9B68984762
:10E780002468EDE76C600020084000202DE9F0418E
:10E790000E4617469846054610B97846F9F702FE28
:10E7A000064B1C683CB143463A4629793046A4469C
:10E7B000BDE8F0416047BDE8F08100BF04400020A3
:10E7C000F8B50E461746044610B97846F9F7EAFD43
:10E7D00016B97846F9F7E6FD1FB97846F9F7E2FD74
:10E7E00001E0FF2FF9D0336813B97846F9F7DAFD65
:10E7F000736813B97846F9F7D5FDB36813B978464D
:10E80000F9F7D0FD094D2B781F2B02D97846F9F77F
:10E81000C9FD2B7826605A1C237167712A7004F198
:10E8200008010348BDE8F840FEF7BDBD00400020E8
:10E830000840002007B540F20713B3EB104F0190DA
:10E8400002D07846F9F7AEFD03481422002103B048
:10E850005DF804EB11F0C6BC1840002013B540F27F
:10E860000713B3EB104F01900C4602D07846F9F72E
:10E8700099FD04491422204602B0BDE8104011F071
:10E88000A6BC00BF18400020F7B540F20713B3EB59
:10E89000104F01900F4602D07846F9F783FD388873
:10E8A000FCF72EFB02284AD07B68B3F5004F03D952
:10E8B0004FF6FF72934242D1BB68B3F5803F3ED81A
:10E8C00097F90C30002B3ADB3E460FCE1D4C254607
:10E8D0000FC533682B603A88234612B9C4E9012278
:10E8E0002273194A14785A68E4B14FF6FF70111A6E
:10E8F0004A424A41E2B19A68D2B1144BB4B1B2F57E
:10E90000E16F144628BF4FF4E164121B1A60FCF754
:10E91000A1FF0F4901FB04010E48FCF772FF002024
:10E9200003B0F0BD003218BF0122E3E71C60EEE740
:10E9300000240848C3E90144FCF74CFFEFE7072037
:10E94000EEE700BF18400020604000204440002057
:10E9500040420F004840002030B50C4DAC688DB0EF
:10E960008CB90B48FCF736FF2C22214601A8AC607D
:10E9700011F038FC062301A88DF804300295FBF74E
:10E980002BF80DB030BD013CAC60FAE73040002000
:10E990006440002010B503780A2B8CB039D11E4A90
:10E9A000C4891388A34234D1418A5388994230D113
:10E9B0008368032B2DD193685BB35368B3F5004F85
:10E9C0003CBF013353604168007F05238DF804305C
:10E9D0000B7803F07F038DF808300B78C0F101004D
:10E9E00003F07F030344DBB28DF809308978ADF87A
:10E9F0000C4001F00F01ADF80A1091899BB29942C9
:10EA0000D18988BF938101A8994238BFD381FAF791
:10EA1000E3FF0CB010BD00BF3040002070B5294CA2
:10EA200023888EB0002B4BD0274D2A6812B9784628
:10EA3000F9F7B8FC2B6868469847054600283FD18F
:10EA400002AE03220146304611F0CCFB9DF808309F
:10EA5000227B8DF8095023F07F0302F07F021343DD
:10EA60008DF80830194B1B788DF80A30019B13B9CB
:10EA70007846F9F797FC0A238DF8143000238DF8B7
:10EA800020302088BDF80030ADF82230ADF82600E7
:10EA9000FCF736FA019B0B9303230793237B8DF836
:10EAA00024008DF830306FF00201FF2305A80D938C
:10EAB0000696FAF7C7FB064B003018BF0120187006
:10EAC0000EB070BD184000207C4000204040002067
:10EAD0006140002010B40A4A137818420CBF012488
:10EAE00000248C4209D143401370064BDB89184245
:10EAF00003D05DF8044BFFF791BF5DF8044B7047FE
:10EB0000404000201840002082B0C1F30743012B91
:10EB1000019105D120B91178184602B0FFF7DABF8C
:10EB200002B0704782B0019120B91178022002B082
:10EB3000FFF7D0BF02B0704782B0019120B91178C1
:10EB4000042002B0FFF7C6BF02B070470378012B64
:10EB500004D1034B1B780BB1FFF760BF704700BFB8
:10EB60006140002038B5114D114C2B88DBB16B682A
:10EB7000CBB1226852B94FF6FF7293421CBF03F12A
:10EB8000FF336B60FFF74AFFAB6823602368094AD5
:10EB9000B3F5E16F194628BF4FF4E1614A435B1AB0
:10EBA0002261236001E00023236138BD184000206A
:10EBB0004440002040420F0008B501210B48FAF7FD
:10EBC000D9FE10B17846F9F7EDFB094B094ADA6036
:10EBD000094B0A4A9A600A480A4ADA600A4B0360FB
:10EBE000FAF724FF094B01221A7008BD0C0C04002F
:10EBF0004440002065EB02006440002059E9020017
:10EC00000C40002040420F004DEB0200604000200D
:10EC1000F0B5054691B010B97846F9F7C3FB0DF190
:10EC2000020168460BF072F9AB68B3F5803F02D978
:10EC3000072011B0F0BD2888FCF762F901282FD118
:10EC40006888FCF75DF948B16888FCF759F9032832
:10EC500004D06A88BDF800309A42E9D11E4C94E88D
:10EC60000F0001AE86E80F00AB68FBB900231B481C
:10EC70002360A360FCF7AEFD2C22002105A811F053
:10EC8000B1FA06238DF81430BDF80630002B08BF0A
:10EC9000002605A8CDE90664FAF79EFE0020C8E725
:10ECA0002888FCF72DF90028CAD0C1E72988002957
:10ECB000DCD06A88002AD9D0084DA3602180628008
:10ECC000EF68FCF7C7FD39182846FCF79AFD7F234B
:10ECD000E36000236360CFE7304000206440002001
:10ECE000004870473040002000487047184000201E
:10ECF000034B00221A70034B0146186800F058BC01
:10ED000060400020060C0400034B186010B97846E0
:10ED1000F9F748BB704700BF7C40002007B5094B9E
:10ED20000190012208481A7001F004FCFCF792FDE2
:10ED3000064BD9680144184603B05DF804EBFCF7B4
:10ED400060BD00BF60410020804000206441002081
:10ED500013B50190000CB0F5837F0C4602D07846C5
:10ED6000F9F720FB024B1B78237002B010BD00BFE7
:10ED70006041002037B50190000CB0F5837F0C4650
:10ED800002D07846F9F70EFB25780E4C22787AB936
:10ED900055B10D4801F0CEFBFCF75CFD0B4BD9687B
:10EDA00001441846FCF72DFD0020257003B030BD4E
:10EDB000002DF9D1044801F0D2FB0448FCF70AFD0C
:10EDC000F2E700BF60410020804000206441002045
:10EDD0007FB5089C06461D462078531E5A425A416C
:10EDE00061F3000062F34100024620466FF38702A0
:10EDF00006F1100100F8012B2DBA082211F0E7F9F5
:10EE00006B4621463046C4F809500D22FDF795FBAC
:10EE10000822694604F10D0011F0D9F904B070BD63
:10EE2000F0B595B005460DF137025749564C574F8E
:10EE300000200AF069FF26462268002A00F091802F
:10EE400051680888142300FB03335B089BB2B3F5B9
:10EE5000167F28BF4FF416730A2B38BF0A238B8006
:10EE6000526893780133DBB2022B937006D123688A
:10EE70005A68002393702268526813803368596877
:10EE80008B68EA1A48BF5A1B8B887B43934273D81E
:10EE9000FBF7C2FD0446FBF7DBFD9DF83710336836
:10EEA000A1F1020C022902460EAF0CBF03F13000A3
:10EEB00003F10800DCF1000141EB0C01234600974F
:10EEC000FFF786FF012115233A463148FFF7C4FAC0
:10EED0000146002845D0012303712D4801F07FFB36
:10EEE0002C4B1B689B0739D52B4B1B68042B35DD3E
:10EEF0002F212A4811F046FA002834D02F21274824
:10EF000011F040FA411C9DF83820254B02F0010019
:10EF1000C2F34002D3F8043509929DF840200892CC
:10EF20009DF83F2007929DF83E2006929DF83D20D7
:10EF300005929DF83C2004929DF83B2003929DF899
:10EF40003A2002929DF839200192164A0A900092C6
:10EF5000052040F201120B94FEF7C0FA33685B689B
:10EF60009D6015B0F0BD5C210C4811F00BFA08B1A2
:10EF70005C21C4E70949C6E70DF1370221460020AC
:10EF80000AF0C2FE58E700BF7C41002040420F005B
:10EF900080400020782E0020742E0020180C0400E1
:10EFA00000100140360C040008B5FCF753FCBDE826
:10EFB0000840FFF735BFFFF733BF10B586B002AB8F
:10EFC0000D220C46FDF7B9FA08220DEB0201684646
:10EFD00011F0FDF8082204F10D01684611F0E8F87F
:10EFE000B0FA80F0400906B010BD000013B5154A14
:10EFF000154C002313600421144AE2600DEB01005C
:10F00000134AA2602361FCF733FDFCF723FC01994E
:10F01000E268B1FBF2F302FB1313184460600D4C7D
:10F020000D4A0E493423204601F084FB20464FF45C
:10F030007A7101F02AFB0A4A0A480421FDF7E1FA35
:10F0400002B010BD7C4100206441002080969800F1
:10F05000B7EF0200804000201C410020A9EF020011
:10F0600050410020790C040010B5064C23783BB9C0
:10F07000054801F05FFA0548FCF78AFB012323707D
:10F0800010BD00BF6041002080400020644100208E
:10F090001FB504A901F8090D044800F089FA10B160
:10F0A0007846F9F77FF905B05DF804FB0300060127
:10F0B00007B507480DF1030100F0BAFA10B1784620
:10F0C000F9F770F99DF8030003B05DF804FB00BF89
:10F0D0000300060137B50C461946069B50B14BB1EB
:10F0E000012503F8015B00932346FFF771FE002022
:10F0F00003B030BD0E20FBE72DE9F04717469AB06C
:10F10000044610B97846F9F74DF900230E93504B99
:10F11000D4F809601B689B0736BA30D54D4B1B6885
:10F12000042B2CDD2F214C4811F02CF9002836D06F
:10F130002F21494811F026F9411C484BD3F80435DA
:10F140000B96227802F00100C2F340020A90099265
:10F15000227A0892E2790792A27906926279059260
:10F1600022790492E2780392A27802926278019264
:10F170003B4A009205204FF4D572FEF7AFF9651CAB
:10F180000DF137020EA928460AF0BEFD4FF6FF78B2
:10F190004FF004090E9B5BB91AB0BDE8F0875C2103
:10F1A0002D4811F0EFF808B15C21C2E72A49C4E705
:10F1B0005B6813B97846F9F7F5F80E98082200F164
:10F1C000080A2946183010F0F3FF50BB214650467C
:10F1D000FFF7F3FE28B30E9B08330E9A51680A8896
:10F1E00042451CBF01320A8021468DF83C9011F83F
:10F1F0000D2B1496C2F34000C2F300028DF8552087
:10F200000E9A8DF854000FA8CDE91023CDE91271A4
:10F21000FAF7E2FB0DF137020EA928460AF074FD59
:10F22000B8E79DF83730002BF4D00E98082200F193
:10F23000300A2946403010F0BBFF0028EAD12146B1
:10F240005046FFF7BAFE0028E4D00E9B3033C4E7E7
:10F25000782E0020742E0020180C040000100140AD
:10F260007E0C04002DE9F3410F4C104E019205462F
:10F270000F469846A64202D102B0BDE8F08122684E
:10F280002B681188188888420CD151885B888B4282
:10F2900008D8EA881A448A4204DD42460199636824
:10F2A000384698470834E5E7F41F04000C200400B2
:10F2B00038B503685C88C3880C1B9C42054602D3A2
:10F2C0007846F9F76FF8A869204438BD37B585B29C
:10F2D0000190020C094C0A48844202D1002003B07C
:10F2E00030BD03681988A94206D15988914203D8D4
:10F2F000C3880B449342F2DC1C30EDE7F41F04009A
:10F30000F81E040070B58EB00E4601901546FFF74A
:10F31000DDFF044688B18388AB4222D8C3680198D8
:10F3200031469847F8B9BDF806102046FFF7C0FFF0
:10F330000223037001200EB070BD02242C22002194
:10F3400003A810F04FFF0198CDF81200142303A872
:10F350008DF80C308DF81040CDE90665FAF73CFBCE
:10F36000E8E70024EAE70124E8E700002DE9F0419E
:10F37000304C314E314FDFF8CC8092B0A4F11C03F9
:10F380009E4202D112B0BDE8F08154F81C3C1A88AC
:10F390002B4BBB4205D17846F9F704F800239B7844
:10F3A000FFDE1988914201D00833F2E79B78012BE8
:10F3B00007D0022B01D01C34E0E798F80030002B76
:10F3C000F9D000252BE054F8043C5A5D02F0050307
:10F3D000012B23D154F81C3C18685B8801902B4406
:10F3E00092079BB220D5ADF8063054F80C2C01984A
:10F3F00002A9904734F8182C019802A900F0D8FA15
:10F400000028BFD154F8042C535D23F00103535559
:10F4100054F8042C535D43F004035355013534F87C
:10F42000163CAB42CFD8C6E7ADF80630019800F0E5
:10F43000E6FAE5E7141F0400F41F0400142004009A
:10F440000C200400804100202DE9F341204C214E86
:10F45000A4F11C07A4F11C0846450FD11E4A1F4BFE
:10F460001F4900919B1AF61BDB081E481C21B6FBA6
:10F47000F1F100F00FFA02B0BDE8F08154F81C3C45
:10F4800034F8162C5B881344B3F5803F02D37846DA
:10F49000F8F788FF134DB54201D11C34DAE7454532
:10F4A000FBD054F81C2C2B681088198888420DD189
:10F4B00050885988EA880A44904207DA34F8163CA2
:10F4C0000344994202DA7846F8F76CFF1C35E2E70C
:10F4D000141F0400F41F04000C2004001420040076
:10F4E00029F50200F81E0400014800F0A3BA00BF8D
:10F4F00005F3020010B50A4B0A4898420ED0D9888D
:10F50000002205E09C69A45C14F0050F04D10132CF
:10F510009142F7D81C33F0E7012010BD0020FCE732
:10F52000F81E0400F41F040030B504468DB0D0F876
:10F530000200FFF7CBFE054610B97846F8F732FF18
:10F540002846A188FFF7B4FE03785B07054602D47E
:10F550007846F8F727FF2B7823F004032B702378E5
:10F56000022B0DD12C22002101A810F03BFED4F873
:10F5700002000290132301A88DF80430FAF72CFA48
:10F58000FFF7B8FF014618B1FFF7F0FE0DB030BD30
:10F59000064B2C22187001A810F024FE122301A89B
:10F5A0008DF80430FAF718FAF0E700BF8041002028
:10F5B000F0B585B00E46019089B3FFF787FE05468A
:10F5C00078B30198EB6803903146BDF80670984710
:10F5D000044608BB39462846FFF76AFE0378124AFC
:10F5E00043F0030303702B6810481F882346D1188B
:10F5F000884203D17846F8F7D5FE05E00833D118E4
:10F6000031F8081CB942F2D1FFF7B0FE3346039A35
:10F6100000212846FFF726FE204605B0F0BD0E2447
:10F62000FAE70524F8E700BF0C20040014200400CA
:10F6300037B50D460190A9B1FFF748FE044698B1D1
:10F64000037A33B10198236929469847002003B013
:10F6500030BDBDF80610FFF72BFE03789B07F1D4F1
:10F660000820F4E70E20F2E70520F0E713B501903B
:10F67000FFF72CFE0446D0B1BDF80610FFF718FEC8
:10F6800003789A0715D523F0020343F001030370B2
:10F6900063690BB101989847FFF768FE2046002385
:10F6A000019A0121FFF7DEFD002002B010BD052008
:10F6B000FBE70820F9E700000F4B73B501220F4C60
:10F6C0000F4E1A70A4F11C039E4213D102B070BDFC
:10F6D00054F81C3C18685B8801902B44ADF8063048
:10F6E0000198FFF7C3FF013534F8163CAB42EFD861
:10F6F0001C34E7E70025F7E780410020141F0400D1
:10F70000F41F04002DE9F8438846016817460C6889
:10F7100042790E790546D2B204EB86060BB901791F
:10F7200049B904EB83040AE011F8043C83F0800338
:10F73000934204D00C46A64204F10401F4D80434E8
:10F74000B44201D3002014E0237843452CD16378E0
:10F75000FF2B10D1A378FF2B1CD1E378FF2B07D010
:10F76000AB79012B02D07846F8F71CFEE3786B7179
:10F770000120BDE8F8832B68D3F80890B9F1000F99
:10F7800002D17846F8F70EFE39466078C84700285F
:10F79000E0D1D4E72B68DE6816B97846F8F702FEA8
:10F7A0003946A078B047D8E71B06C8D5CAE72DE987
:10F7B000F0470F46064610B97846F8F7F3FD17B93B
:10F7C0007846F8F7EFFD37607B7973710025B571E6
:10F7D000D7F80090FF243B795FFA85F8984507D366
:10F7E000FF2C02D09C4228BFFF243471BDE8F08773
:10F7F000FF2C4FEA880A06D019F92830002B02DACC
:10F800007846F8F7CFFD19F80A300135FF2B08BF0D
:10F810004446E0E770B50D461646044610B97846F2
:10F82000F8F7C0FDA3790133DBB2A37132460023A0
:10F8300029462046FFF766FF38B92379FF2B04D00D
:10F84000324629462046FFF75DFFA379013BDBB234
:10F85000A37170BD8079003018BF012070477047D8
:10F8600030B50A4B1C680A4B196800239C4201D131
:10F87000002207E031F83350854201EBC30203D187
:10F8800053681880104630BD0133EFE784410020F3
:10F890008C4100202DE9F84FDDF828808946174675
:10F8A0009A46044610B97846F8F77CFDB9F1000F86
:10F8B00002D17846F8F776FD17B97846F8F772FD69
:10F8C000BAF1000F02D17846F8F76CFD344E354896
:10F8D00037600023344D354F2B60984518BF4046A4
:10F8E000C7F800A000F01EF91C2303FB09494C4592
:10F8F0000AD100220023D7F800E030681C46734587
:10F900003DD14CBBBDE8F88F23681888FFF7A8FFEE
:10F91000804608B1436813B97846F8F743FDD8F834
:10F920000430A088B3F802B000F082F9B4F806A061
:10F9300000FB0ABABAF5803F02DB7846F8F732FDE1
:10F94000D8F80430A3F802A0D8F80420E1889388FE
:10F950000B4493801C34CAE7A37833B1606800F08D
:10F96000F5F810B17846F8F71DFD204600F065F96E
:10F970002B68228818440132286092B2BAE730F826
:10F9800033C0944500EBC30108D324B1B4F8008020
:10F99000E04598BF214601330C46B0E72146FAE71F
:10F9A0008C4100205FF80200884100208441002043
:10F9B00073B5164601900D4611B97846F8F7F2FC7A
:10F9C00016B97846F8F7EEFCBDF80400FFF748FFDB
:10F9D000044610B97846F8F7E5FC63685B8813B90C
:10F9E0007846F8F7DFFC6368BDF80620DA806068C7
:10F9F0003246294602B0BDE8704000F0D3B813B5D6
:10FA0000019080B2FFF72CFF044610B97846F8F752
:10FA1000C9FC63685B8813B97846F8F7C3FC636870
:10FA2000BDF80620DA80606802B0BDE8104000F042
:10FA3000CFB80000F8B5054610B97846F8F7B2FC23
:10FA4000084E094F00243368A34200D8F8BD3B6834
:10FA500003EBC4039A781AB12946586800F0D0F82D
:10FA60000134F0E7844100208C41002007B54B6849
:10FA70004288DA804B681B88ADF80430438830F840
:10FA8000042BADF8063002F18042013A0B68920077
:10FA9000014601989847024B185C03B05DF804FBDF
:10FAA000C10C040007B5002A0CBF002302238DF807
:10FAB000003030F8083CADF802304B88ADF8043027
:10FAC000034B68461B68984703B05DF804FB00BF12
:10FAD0009441002007B5002A0CBF012302238DF8B2
:10FAE000003030F8083CADF80230044BADF804109B
:10FAF0001B686846984703B05DF804FB94410020FA
:10FB0000704700B58DB02C22002101A810F06AFBCF
:10FB10000E2301A88DF80430F9F75EFF0DB05DF8F3
:10FB200004FB000008B5064B00221A70054B186054
:10FB3000FDF7CEFF0448BDE80840FEF789BA00BFD4
:10FB4000904100209441002003FB020070B5114E4B
:10FB5000448840F6F87304F6F774B4FBF3F4337892
:10FB600086B023440546337007F04BFF3378A0EB93
:10FB700003306B880293084B0393084B0493CDE941
:10FB80000004074B0593694605F10800FEF700F9EC
:10FB900006B070BD90410020A5FA0200D5FA02001F
:10FBA00001FB020070B508300D4630F8021C164605
:10FBB000FEF781F8044648B132462946043010F079
:10FBC00006FB2046FEF7A6F8002070BD0420FCE7E7
:10FBD00037B54FF6FF7300F108050446ADF8043061
:10FBE00001A9C388ADF806302846FEF755F828B1BC
:10FBF000E1882846FEF7A4F803B030BD0520FBE7F6
:10FC000037B50D46044610B97846F8F7CBFB15B961
:10FC10007846F8F7C7FB6B46044A002104F1080058
:10FC2000CDE90054FDF79AFF03B030BD6DFA020034
:10FC3000C31D4FF6FC70184070478378022B0DD11E
:10FC400043689A88588864235343033003F5FA7352
:10FC50004FF4A972800802FB003070470020704703
:10FC6000094B834210B502D07846F8F79BFB074C4E
:10FC7000236813B97846F8F795FB206800F0ABFAD3
:10FC80000023236010BD00BF98410020B041002038
:10FC9000114B834270B50E46154602D07846F8F7F0
:10FCA00081FB0E4C23681B69AB4202D27846F8F701
:10FCB00079FB20682A463146143010F088FA216812
:10FCC0000748FBF725FB00232360064BBDE8704087
:10FCD0001868FCF705BB00BF98410020B041002028
:10FCE000A4410020AC410020F0B587B018220021CB
:10FCF000684610F077FA032312488DF80030FBF7BE
:10FD000021FB114D0F4E044614B9012007B0F0BD80
:10FD1000E368277A0193FBF79DFDE36802463946C5
:10FD20002846FEF733FD21696A4604F11400FCF70A
:10FD300037FE3046FBF706FB0746204600F04BFA3D
:10FD40003C46E1E7A4410020984100200F4B83424C
:10FD500070B50D4602D07846F8F724FB2B699B0658
:10FD600010D50B4E34686CB96868143000F031FA65
:10FD7000306048B12B780372EB68C3606B68036135
:10FD8000204670BD0120FCE70220FAE798410020E0
:10FD9000B041002008B50748FCF784FA064B074934
:10FDA000186020220648FEF70BFD0648BDE8084013
:10FDB000FBF7A4BAE9FC0200AC410020C40C04002B
:10FDC00098410020A441002037B5C0F30745012D1C
:10FDD00001900C4602D97846F8F7E4FA084AA020C8
:10FDE0006843131819792170125862705B6F4FF4D1
:10FDF0007A7203F5FA73B3FBF2F3638003B030BD9C
:10FE0000C041002037B5C0F30744023CE4B2012CE6
:10FE100001900D4602D97846F8F7C4FA0448A023A9
:10FE200003FB040494F82C302B7003B030BD00BFEA
:10FE3000C041002073B5C0F30745012D019002D9E0
:10FE40007846F8F7AFFA0E4CA0226A43161D2244FA
:10FE50002644127912B9304600F06CFB012D1CBF0C
:10FE6000A0235D434FF0140118BF012330460CBF9F
:10FE7000C4F8A050635102B0BDE8704000F005BC6A
:10FE8000C0410020F7B5C0F30746012E01900D4692
:10FE900002D97846F8F786FA6B78013B072B22D80F
:10FEA0006B88143BB3F5917F1DD8104F2978A0249F
:10FEB00074433A19043412793C4471B112B92046A2
:10FEC00000F038FBA02070436B783B5020466988D7
:10FED00000F0DBFB002003B0F0BD002AF2D020468A
:10FEE00000F03DFBEEE70720F5E700BFC041002032
:10FEF00013B5C0F30744023CE4B2012C019002D9CF
:10FF00007846F8F74FFA0548A02303FB04000021C8
:10FF1000043002B0BDE8104000F0D7BBC041002063
:10FF200037B5C0F30744023CE4B2012C01900D4602
:10FF300002D97846F8F736FA05482978A02303FB5A
:10FF40000400043000F0C1FB002003B030BD00BF4E
:10FF5000C04100201FB5C0F30744043CE4B2012CAB
:10FF6000019002D97846F8F71DFA02A800F0C6FB06
:10FF70000448A02303FB040002A9043000F067FB3F
:10FF800004B010BDC041002073B5C0F30744043C69
:10FF9000E4B2012C01900E4602D97846F8F702FA35
:10FFA000307810F0FC050AD10648A02303FB0400BA
:10FFB0000430314600F04BFB284602B070BD0720EC
:10FFC000FBE700BFC041002037B5C0F30744043C45
:10FFD000E4B2012C01900D4602D97846F8F7E2F917
:10FFE0000549A02000FB041107226C31284603B00C
:10FFF000BDE8304010F0EBB8C04100200C4B83420C
:020000023000CC
:1000000010B502D07846F8F7CDF90A4C636813B9F9
:100010007846F8F7C7F9084B20786168A02202FB00
:100020000030043000F004FB0023636010BD00BF0B
:10003000B441002000430020C0410020124B834205
:1000400070B50E46154602D07846F8F7ABF90F4C5E
:10005000636813B97846F8F7A5F960682A238374B2
:100060006B1C43742A463146133010F0B0F8084B2D
:1000700020786168A02202FB0030043000F0AFFA63
:100080000023636070BD00BFB44100200043002026
:10009000C0410020F8B5124B83420D4602D078468D
:1000A000F8F780F90F4C636813B17846F8F77AF9DE
:1000B00028780D4F6968A02606FB007002310430D5
:1000C00000F052FA606048B1EB6803602B785E4341
:1000D000BB5903712B7823700020F8BD0220FCE788
:1000E000B441002000430020C0410020044BC01A4E
:1000F000044B401158430B46C1B20348FEF746BBC0
:10010000C4410020CDCCCCCCB4410020012882B029
:100110000AD8032300F58070ADF80430ADF806006E
:10012000019802B0FFF744BA072002B070470128D7
:1001300082B00AD8032300F58070ADF80430ADF822
:100140000600019802B0FFF773BA072002B07047AB
:1001500070B5114C114A12492546012645F8046B29
:100160004FF48073284600F0E5FA284600F0E2F9E3
:10017000A43444F8046C0B4A00212046802300F08C
:10018000D9FA204600F0D6F9324607490748BDE8BB
:100190007040FEF715BB00BFC04100200E43002099
:1001A000ED0003000E440020DC0C0400B4410020EC
:1001B000012810B5044602D97846F8F7F3F8034B46
:1001C000A02202FB0434207910BD00BFC0410020F2
:1001D00070470FF0DDBF0FF0E3BF000070B50646BB
:1001E00018B343680BB34378073BDBB2F72B1ED938
:1001F000104B00781C68A8B90546E8B2013500F03C
:1002000091F8B5F5807FF8D106F108010948FDF7AE
:10021000CAF82CB9204600F095F8012000F072F8D9
:10022000002003E000F07EF8EEE70E2070BD07200E
:10023000FCE700BF904400202DE9F047DFF85C8028
:1002400006461F460C468D18AC4201D3BDE8F08728
:10025000D8F8002004F1020942B1617812F8083C94
:10026000994207D033B11268002AF7D122780132BF
:100270001444E9E7082AF9D012F8071CD2F800A0C4
:10028000B14201D0FF2906D1217852F8043C01394E
:100290003A46484698475246DEE700BF9044002061
:1002A000F0B5174A447D137C063CE4B200214FF0C0
:1002B000010C8C4203DCB3FA83F0400917E04618C6
:1002C000B57F767F6F0902EB870705F01F057F6911
:1002D0000CFA05F53D4210D0611AB14204DC536BB3
:1002E000013353630120F0BD181C18BF0120002802
:1002F000F9D0936B01339363F5E701363144D8E7C6
:100300009444002030B10548054B4360002303703E
:1003100000F0E6BD014800F001BE00BF944400209B
:10032000A10203004109064A012300F01F0003FA5D
:1003300000F052F82130034342F82130704700BFEB
:10034000A8440020012810B5044602D97846F8F7E1
:1003500029F8014B1C7410BD9444002010B50446CC
:1003600010B97846F8F71EF8E36F13B97846F8F736
:1003700019F8E36FD4E925122046BDE8104018476C
:1003800010B5037813F0FC0F044602D07846F8F756
:1003900009F8237803F0FE03022B02BFA37963F070
:1003A0003F03A37110BD10B550F8202C1379013B09
:1003B000DBB2FD2B04460BD9836D4BB11368C0E94A
:1003C0001C315C30FBF7C6FF10B17846F7F7EAFF47
:1003D00054F8201C0B7943B944F8203C04F1380050
:1003E0000439BDE81040F9F7CABC10BD38B5054660
:1003F00007480C46FBF72AFBB0FBF4F101FB1404A1
:10040000FBF728FA01192846BDE83840FBF7F9B98F
:10041000D0440020F7B500230B650B780C46002B69
:100420004AD091F84030002B33D1CB6F002B2AD12A
:1004300004F15C0500266368002B3FD01B79FF2B7D
:1004400004D12846F9F780FC002837D163681B796E
:10045000002B33D094F87830002B5FD165682B796E
:1004600013B97846F7F79EFF2B79FF2B1CBF03F1DA
:10047000FF332B7104F1080000F0FCFC48B1784612
:10048000F7F790FF05E001F18000FBF785FF0028FA
:10049000CED094F84430256F022B02D07846F7F77F
:1004A00081FF2048FBF7D2FA42F21073B0FBF3F25F
:1004B00002FB13002844206503B0F0BD616821B140
:1004C00004392846F9F75BFC666001A92846F9F76C
:1004D000F4FB0028F0D1019B1A1D0C3362606362AB
:1004E000A9E73846FBF7B2FA94F87730B0FBF3F29D
:1004F00002FB1300C3B2AB4209D02544204495F857
:10050000743090F8742085F8742080F874300136C7
:1005100094F87730F5B2AB42E3D89FE70026014F5D
:10052000F6E700BFD04400200148FBF7C3BA00BF84
:10053000D044002010B5037804467BB90123037032
:10054000436833B1216F04F14400BDE81040FFF768
:100550004DBF5C30F9F7DEFB0028F3D110BD00235E
:1005600000F8443BFBF736B92DE9F3410D4606464A
:1005700010B97846F7F716FF1F2D02D97846F7F71E
:1005800011FF05F1110292B201A906F15C00F9F721
:1005900012FB8046E0B9019C237B022262F3030335
:1005A00006352373657396F86830227B5B0863F326
:1005B0008612227306F16901062204F10F000FF082
:1005C00006FE271DC4F80480384602B0BDE8F0815D
:1005D000042802D07846F7F7E5FE0027F4E738B59F
:1005E00005460C4601B110B97846F7F7DBFE2379D2
:1005F00013B97846F7F7D6FE237A03F0CF036FF3EB
:10060000C713237221460023A37231F8042D05F18C
:100610005C00F9F721FB2B784BB195F8443033B9E6
:10062000296F05F14400BDE83840FFF7DFBE38BD53
:1006300038B504460D4601B110B97846F7F7B2FE59
:10064000291F04F15C00BDE83840F9F798BB70B58C
:100650000D46044600B111B97846F7F7A3FE2B7892
:1006600013F0FC0F02D07846F7F79CFEEFF31086EC
:1006700072B668340722294620460FF0A8FD2046AE
:10068000FFF77EFE06B962B670BD38B50D4604466A
:1006900010B97846F7F786FE132D03D87846F7F79A
:1006A00081FE02E0B5F5205FF8D84FF47A7194F836
:1006B0004430694321673BB123782BB104F14400F6
:1006C000BDE83840FFF792BE38BD38B50D46044648
:1006D00010B97846F7F766FE84F8285038BD10B593
:1006E00004465C30F9F73FFAEFF3108272B66368A4
:1006F0000BB10021197102B962B610BD10B54FF0EF
:1007000080530446D3F8A0200378094912F001026F
:1007100014BF62F347036FF34703037006220130EF
:100720000FF055FD2046BDE81040FFF729BE00BF81
:10073000A4000010F8B50D4616461F46044600B149
:1007400012B97846F7F72EFE0A2F02D87846F7F747
:1007500029FEBAB2314604F15C00F9F7AEF904F1B2
:100760006800FFF7CBFF144BE56744F62062C4E94D
:100770001C23124A226325226285032284F82C203E
:1007800084F83C200E4A6263002304F174010D4A90
:1007900084F8783084F82830A1636362E264646589
:1007A00023703DB1224604F180000749BDE8F840BE
:1007B000FBF7B8BDF8BD00BF25262703D6BE898E3E
:1007C000A7030300150403005D030300034A136835
:1007D00013B1002111601847704700BFF444002096
:1007E00008B50848FAF7C1FD48B9074B186818B1B1
:1007F000064B187880F0010000F0010008BD0120D0
:10080000FAE700BFE4440020F8440020E044002060
:100810001C4B10B501214FF0FF321B4C59604FF4B7
:100820008060D960C3F808230022C3F80022C4F80E
:1008300080010424C3F84021C3F84015C3F81045D3
:10084000C3F80425114CC3F80825114AC2F86045C5
:10085000A4F50354383CC2F86445C2F80405196095
:10086000D3F840110029FBD00021C3F840114FF408
:100870008061C2F80815074AD2F84805D3F8403518
:10088000C01A10BD00A0004000E100E040A10040FF
:1008900000F0014000800040F8B5FBF7C9FA0028DD
:1008A0006BD13648FAF761FD054680B10468FBF765
:1008B000D9FA0646FBF7D0FA002C40D0E36864333F
:1008C000984206D20120BDE8F840FBF711BB044670
:1008D000EDE79E4233D92A4E33781BB100F010FD6C
:1008E000002333702548FAF72DFD854202D0784663
:1008F000F7F758FD002501206561FBF70BFB214B45
:10090000214F1C60214B224E4FF0FF32C3F80823C9
:10091000204B0222C3F88021FFF77AFFE3681E4ACA
:10092000216935700344136001233B7023689847A5
:1009300033783D700BB3BDE8F84000F02FB8B6F542
:10094000FA7F1AD900F0B4FD98B10D4B1A78A2B90C
:100950000E4A4FF0FF31C2F808130E4A0221C2F8C6
:10096000801101221A70FFF753FFBDE8F84000F034
:10097000B3BCBDE8F840FBF7ADBAF8BDE4440020D5
:10098000F1440020F8440020F04400200010004012
:10099000E044002000E100E0EC44002008B5FBF753
:1009A00005FB0C4B1B68C01A002802DB7846F7F7E2
:1009B000F9FC0020FBF7AEFA074B00221A60074B48
:1009C0001B781BB1BDE80840FBF784BABDE80840BE
:1009D000FFF762BFEC440020F8440020F2440020FE
:1009E00038B5114C2268A2B1936813B97846F7F76D
:1009F000D9FC0E4D01232B7023689A681869904723
:100A000000232B700A4B1B786BB1BDE83840FFF711
:100A1000C5BF084B1B7813B97846F7F7C3FCBDE890
:100A2000384000F017BD38BDF8440020F0440020E5
:100A3000E0440020F144002008B50948FAF75EFCC4
:100A4000084A00231360084A1370084A01211170F4
:100A5000074A1370074A1370074A82F80A3308BD21
:100A6000E4440020F8440020F1440020F244002037
:100A7000F0440020E044002000E100E038B50F4BD6
:100A80001A7802F0FF04B2B90D4A106001221A7000
:100A9000FBF7FAF9054618B1FBF70AFA204606E01B
:100AA000FBF7FEF9044618B1FBF714FA284638BDE7
:100AB000FFF78CFEF2E70820F9E700BFF2440020C0
:100AC000F444002008B5094B1B786BB900F0F0FC2A
:100AD00030B1FBF789F938B1BDE80840FBF7E8B958
:100AE000FFF77EFE0028F4D108BD00BFF2440020CD
:100AF00010B5054B1A782AB100241C70FFF7E2FFED
:100B0000204610BD0820FCE7F244002010B5044642
:100B100010B97846F7F746FC236813B97846F7F71B
:100B200041FCE36813B97846F7F73CFCE2680E4BEA
:100B30009A4202D97846F7F735FC6369A34211D08F
:100B40000A48646104F11401FAF7E2FB084B1B78D0
:100B500003F0FF0023B9074B1C6824B9FFF7B2FF6D
:100B6000002000E0082010BD60850100E444002062
:100B7000F2440020F844002010B50E4B1B6813B956
:100B80007846F7F70FFCFBF785F910B97846F7F7C9
:100B900009FC094C227812B17846F7F703FC074BA1
:100BA0001B7813B10123237010BDBDE81040FFF77F
:100BB000F5BE00BFF8440020E0440020F0440020CF
:100BC00038B5FBF767F910B97846F7F7EBFB144C2B
:100BD0002268A2B1536813B97846F7F7E3FB114DC9
:100BE00001232B7023685A681869904700232B70E3
:100BF0000D4B1B7893B1BDE83840FFF7CFBE0B4BD0
:100C00001B7813B97846F7F7CDFB00F081FB00F0B5
:100C10004FFC18B9BDE83840FBF75CB938BD00BFE0
:100C2000F8440020F0440020E0440020F14400207B
:100C300008B5FBF72FF910B97846F7F7B3FB074B68
:100C40001B6853B9064B1B781BB1BDE80840FBF786
:100C500041B9BDE80840FFF71FBE08BDF8440020B9
:100C6000F244002008B5FBF715F910B97846F7F7FC
:100C700099FB084B1B6813B17846F7F793FB064BBB
:100C80004FF480621A6002221A60BDE80840FFF744
:100C900003BE00BFF844002000E100E038B5FBF7D8
:100CA000F9F810B97846F7F77DFB134B1B6813B1C1
:100CB0007846F7F777FB114C23781BB100F020FB47
:100CC000002323700E4B0F4D01214FF0FF34002203
:100CD0005960D960C3F80843C3F800220A4A4FF4A8
:100CE0008060C2F88001C5F808430224C2F8804140
:100CF0001961C2F8800038BDF8440020F14400209A
:100D000000A000400010004000E100E0024B1B7812
:100D10000BB1FFF75BBD7047F244002070B5244C67
:100D2000D4F81031054613B97846F7F73BFB214E4E
:100D30000023C4F8103133780133337000F03EFDE6
:100D400095F8342033789A421DD21B4BD3F8406576
:100D50001A4B19680E44FBF729F9EB6A0446314631
:100D600005F11C009847FBF721F9001B502802D41D
:100D70007846F7F717FB00F055FDFFF7FDFE00235F
:100D800085F8383070BD0DD92A6BD05C00F020F9A1
:100D9000074BD3F81031002BF4D07846BDE87040F3
:100DA000F7F700BB0323C4F8003200F015FDEFE7AE
:100DB000001000400045002000A00040FC4400203E
:100DC000F8B5264A264B274FC3F8602502F50F4297
:100DD0003C32C3F864254FF480620D46C3F8042505
:100DE000044600F0D5F805F1200000F005F90021D7
:100DF000A86A00F047F92B6B187800F0E9F8012693
:100E000020463E70FBF726F9174B184C1860EB692B
:100E1000C4F804350023C4F810311023C4F8043397
:100E2000134B5E642660D3F844053146304400F02D
:100E300069FC95F83430B34209D90723C4F800326D
:100E40003B782A6BD05CBDE8F84000F0C1B80323C2
:100E5000C4F80032BDE8F84000F0BEBC0411004008
:100E600000F0014000450020FC440020001000403C
:100E700000A0004010B5C36A044613B97846F7F7DE
:100E800091FA94F838301BBB124B2360124B63600D
:100E9000E36994F82410587894F83420042900F178
:100EA0000A0308BF00F10B030C48415C4B432E338F
:100EB00053439833C4E90334012384F8383020467F
:100EC000FFF724FE18B17846F7F76CFA002010BD42
:100ED0001120FCE7C10D03001D0D0300E80C040008
:100EE00010B5044610B97846F7F75CFA636813B991
:100EF0007846F7F757FA2378012B02D97846F7F7A7
:100F000051FA2078044B04F10C0103EBC000BDE85A
:100F10001040FCF748BA00BF0445002010B5044655
:100F200010B97846F7F73EFA2378012B02D97846B4
:100F3000F7F738FA2078044B04F10C0103EBC000FA
:100F4000BDE81040FCF750BA04450020F8B506464D
:100F50000F4611B97846F7F725FA012E02D97846DF
:100F6000F7F720FA094C54F8365035B904EBC600AF
:100F70004368013343602846F8BD55E902313846DD
:100F800098470028F8D12D68EFE700BF04450020FE
:100F90000D4B0022C3F8FC2F0122C3F8FC2F40F2B6
:100FA0005B62C3F8382540F20312C3F83425074AC0
:100FB000C3F83C259622C3F84425D3F8502642F0C6
:100FC0000102C3F8502670470010004055555500E7
:100FD000272810B5044602D97846F7F7E3F9044B01
:100FE0001A5D044BC3F80825C3F8544510BD00BF73
:100FF000EE0C04000010004010B5044610B978460D
:10100000F7F7D0F92379052B02D97846F7F7CAF913
:10101000638813B97846F7F7C5F963880233B3F5E7
:10102000817F02D97846F7F7BDF9154B2278C3F8CE
:101030000C252279C3F81025A27842F0007242F400
:101040004032C3F818256288252A8CBF0822062260
:10105000C2F1080142F4807242EA0142C3F8142549
:10106000D3F8142542F48012C3F814252279042AF7
:1010700002BFD3F8142542F08072C3F8142510BDC6
:101080000010004070B5124DD5F81835C3F3024377
:10109000032B04460E4602D07846F7F783F936B1A3
:1010A000012E0BD07846BDE87040F7F77BB9230ED0
:1010B0002402C5F82435C5F81C4570BD230C044A2C
:1010C00003F47F432402C2F82435C2F82045F4E734
:1010D00000100040EFF3108372B6054A52781AB13F
:1010E000044A0221C2F8001103B962B6704700BF7A
:1010F0001445002000E100E0024B00221A71FFF7C6
:10110000E9BF00BF14450020074B5A7993F82F1010
:101110000132D2B291425A719CBF00225A7102220E
:101120001A71FFF7D7BF00BF14450020F8B5194D5D
:10113000194EFFF72DFF00241848FFF75DFF012728
:10114000C5F8304556F8040F48B12146FFF79AFF1D
:10115000D5F8302507FA04F31343C5F830350134C8
:10116000082CEFD10B4B1122C3F80443C3F8002223
:101170000022C3F8042103F5F033094AC3F86025BF
:1011800002F5DE424432C3F864254FF48062C3F8AE
:101190000425F8BD001000404045002030450020E7
:1011A0000411004010B50F4CA36813B17846F7F74F
:1011B000F9F80D493C2201F17C00F8F7FCFC031E14
:1011C00009BFA268A2690949183213BF0132C1F8E8
:1011D00004250120002018BFA261003318BF01239D
:1011E000A37010BD144500201C45002000100040D5
:1011F00038B5194BD3F8503513B17846F7F7D2F814
:10120000164D6B792B4493F82C00FFF7E1FEEB7839
:101210001BB1FFF78BFF0023EB70FFF7C3FFB8B1E3
:101220000F4C0D4B012161645960D4F8440508440A
:1012300000F096FA00F0D0FA0023C4F84431094BCC
:101240004FF48062C3F880214FF40033C4F80433B4
:1012500001232B7138BD00BF001000401445002051
:1012600000A0004000E100E070B50B4C0B4D0122E6
:1012700000262261C4F80C61A96821B105F184003F
:10128000F8F77DFDAE60D4F85035002BFBD1BDE8FA
:10129000704000F0C7BA00BF0010004014450020A5
:1012A00010B5FAF7D7FA04460948D0E909138B427A
:1012B00008D16830FAF78EFA21460648BDE810409A
:1012C000FAF79FBA21446830FAF79BFAF4E700BFB7
:1012D000144500206445002010B5084C01236370BC
:1012E0000023E370FFF722FF2378022B05D1237937
:1012F0001BB1BDE81040FFF77BBF10BD14450020B7
:10130000024B00225A70FFF7AFBF00BF1445002008
:10131000F8B54C4B4C4CD3F80C21002A50D000228D
:10132000C3F80C21D3F80C21D3F80024A56822B906
:10133000236901332361294655E0697EE28B91429E
:1013400048D8D3F8482552426A73D3F8082404EBEE
:1013500082022E1D126BAA60D3F8543503F03F03AE
:101360002B733A4BD3F848753846FAF773FE0622CA
:10137000686005F11B0105F10F000EF028FF2B7EC0
:10138000AA7BC3F3801161F34702AA73C3F303037B
:101390006B75E3680133E360D4F89032F3B93146FA
:1013A0000020FFF7D3FDE8B96A7E2948A16817320B
:1013B000F8F752FCD4F88000FAF792FF0023A360FC
:1013C0002378012B13D0022B15D07846BDE8F840C6
:1013D000F6F7E8BF636901336361ACE7394630462D
:1013E0009847DCE7A1681A48F8F7C9FCE6E7BDE8CA
:1013F000F840FFF739BF134BD3F85035032BE4D82F
:10140000DFE803F002190A1923799BB1022BDCD81B
:10141000BDE8F840FFF7ECBE2479012C05D0E6D3F7
:10142000022CD2D1FFF720FFF2E7FFF7BBFE08B195
:10143000044B9C60F8BD2379012BFBD0D7D3022B42
:10144000EFE700BF0010004014450020008000407E
:101450009845002010B50A4CD4F8443113B97846A9
:10146000F6F7A0FF4FF40033C4F808330023C4F8A4
:101470004431D4F84431BDE8104000F09FB900BFBA
:1014800000A0004010B5094C237813B97846F6F750
:1014900089FF2378012B07D1FFF702FF0223237076
:1014A000BDE81040FFF70EBB10BD00BF1445002083
:1014B000024B1878831E584258417047144500204B
:1014C00038B5054610B97846F6F76CFF064C291F6B
:1014D00004F18400F8F753FCA3781BB1BDE8384051
:1014E000FFF7F8BD38BD00BF1445002013B50B4C05
:1014F00001A92046F8F7E1FB08B100200BE00199B3
:1015000001200431FFF722FD019B18B1181DFFF7E0
:10151000D7FFEDE7181D02B010BD00BF98450020B1
:101520000148F8F7F7BB00BF98450020884238B55E
:1015300004460D4602D27846F6F734FF0C4B9C4227
:1015400002D97846F6F72EFF40F6B7339D4202D80F
:101550007846F6F727FF074BC3E909545C67DC655B
:101560001B78022B03D1BDE83840FFF799BE38BD88
:1015700000007102144500204B1E022B70B5064678
:101580000C4602D97846F6F70DFF3246931BDBB2C4
:101590009C420AD912F8013B252BF7D0262BF5D017
:1015A000272BF3D07846F6F7FDFE064D224631464E
:1015B00005F12C000EF00BFE00236B7185F82F4017
:1015C00070BD00BF144500204B1E072B70B50646AA
:1015D0000D4602D97846F6F7E5FE084C2022002198
:1015E00004F130000EF0FEFDAA00314604F1300097
:1015F0000EF0EDFD0123E37070BD00BF1445002027
:1016000007B50F4B68461A889B78ADF80020032178
:101610008DF80230FFF7B0FF02A80A4B40F8043DF6
:101620000121FFF7D1FF084B0849032283F820204E
:1016300008460122DA70FFF779FF03B05DF804FB7A
:10164000160D0400D6BE898E1445002080841E002D
:1016500038B5114C05464FF42572002120460EF096
:10166000C1FD4FF4007204F1900104F18400F8F719
:1016700024FAFFF7C5FF002323772523E383074BD5
:101680002367074BA3652846012323702371FAF7CC
:1016900009FEC4F8800038BD14450020F91003008D
:1016A000091103000278D3070DD59108012312F028
:1016B000020F03FA01F34FF0A04202D0C2F80C353A
:1016C0007047C2F808357047002303600B4B9978C8
:1016D0001B79CA0002F180429B0002F5F83203F147
:1016E000804303F5C043C2F81005C2F81435012346
:1016F000034A8B40C2F80435704700BFA84700205A
:1017000000F0014038B5114B5A7905460C46E2B15C
:101710001A78D10719D599780D4B0E4812F0020F9F
:1017200018BF4FF00313920843EA022301F5A27297
:10173000094900EB840041F82230FFF7C5FF04F5AA
:10174000A874064B163543F8245038BDA84700202E
:101750000300130040A100400060004000A00040D2
:1017600038B5114B5A7905460C46E2B15A78D10783
:1017700019D599780D4B0E4812F0020F18BF4FF093
:101780000313920843EA022301F5A272094900EB10
:10179000840041F82230FFF797FF04F5A874064B48
:1017A000163543F8245038BDA84700200300130025
:1017B00040A100400060004000A00040044B5A7966
:1017C0002AB19A7801239340024AC2F8083570473B
:1017D000A847002000F001400F494B79D3B10F4BCF
:1017E0000022C3F81021C878C20002F1804202F53D
:1017F000F83203F58873C2F810350B799B0003F1BA
:10180000804303F5C043C2F814350123044A8340E2
:10181000C2F80435704700BFA84700200010004000
:1018200000F0014010B50F4C6379CBB1E178A3789B
:10183000012202FA03F38A4013430B4AC2F8083527
:101840002379A2F5C83203F5A2730021204642F89D
:101850002310FFF727FF601CBDE81040FFF722BFF1
:1018600010BD00BFA847002000F0014076DF7047A0
:101870007FDF70478FDF704790DF7047A8DF7047CA
:10188000AADF7047AEDF7047B1DF7047B5DF704742
:1018900008B508881321FFF7E9FF30F0080304D0EA
:1018A0007846BDE80840F6F77DBD08BDF0B50E46A8
:1018B0008FB01746054600B111B97846F6F772FDAC
:1018C000484CFF2384F84D31474BC4F8583104F19C
:1018D0001C03C4F86031D822444BE361002104F1B9
:1018E0002C000EF07FFCD82204F12C0104F1200022
:1018F000F8F7E3F80622294620460EF068FCA661B8
:1019000001AE2B88ADF804300120A21D31468DF8C0
:101910000600FFF7B3FF10B17846F6F743FD1C222F
:10192000AB88ADF8043000210DEB02000EF05AFC3C
:101930009DF81C30032243F00403002168468DF813
:101940001C300EF04FFC9DF80030012262F30303BF
:1019500062F307138DF800309DF8013062F3030342
:1019600062F307138DF801309DF8023062F34203F1
:1019700003F0E70313430021142202A88DF802307C
:101980000EF030FC002342220493ADF8142006939D
:1019900002AA174BE088029607A9CDF80CD0FFF7F2
:1019A0006FFF10B17846F6F7FDFC1C226B88ADF88E
:1019B000043000210DEB02000EF014FC9DF81C30E9
:1019C000E08843F010038DF81C3002AA094B07A9E8
:1019D000FFF756FF10B17846F6F7E4FCC4F86871DB
:1019E0000FB0F0BDB047002091180300FFFF1400B6
:1019F000C0470020B8470020F7B50E4615461F46E1
:101A0000044610B17846F6F7CDFC032E02D978468D
:101A1000F6F7C8FC422D02D97846F6F7C3FC144805
:101A20004FF4A6736343C218918B4FF6FF72914235
:101A300002D1002003B0F0BD02A90024AA1D20336A
:101A400041F8044D92B21844F8F7B5F848B9019836
:101A5000437A4760013566F30503057243720A3025
:101A6000E8E70428E5D07846F6F79CFC2046E1E755
:101A7000B047002070B504460E4611B97846F6F717
:101A800091FC14B17846F6F78DFC0C4D4FF4A6731B
:101A900003FB04539A8B4FF6FF739A4202D17846A8
:101AA000F6F780FC4FF4A67000FB0450A6F10A0183
:101AB0002030BDE87040F8F762B900BFB0470020A1
:101AC000064A08B54FF4A67303FB00202030F8F750
:101AD00090F980F00100C0B208BD00BFB0470020FF
:101AE00070B5064610B17846F6F75CFC4FF4A67563
:101AF0007543064C05F5A87020442C44F9F76AFE9E
:101B0000A08B1321BDE87040FFF7B0BEB0470020A6
:101B10002DE9F04F594E4FF4A67303FB006387B0D5
:101B2000D3F80471054617B97846F6F73BFC4FF435
:101B3000A67303FB056393F808213B7A9A4202D30C
:101B40007846F6F72FFC4FF4A67303FB05633C7A47
:101B500093F80821DB8B002A5DD1A3422CBF4FF004
:101B600000084FF0010808F1FF395FFA89F9B9F16F
:101B7000010F59D9B8F1000F02D0B8F1030F55D1B8
:101B8000A41AA4B2A34202D27846F6F70BFC4FF493
:101B9000A67A0AFB056A04379AF808310533002152
:101BA000FA5C68F38712FA5402A8102207EB030BC1
:101BB0000EF018FB3389ADF808300DF106030493DD
:101BC00002A90123BAF81C008DF80A30ADF80640CE
:101BD000CDF814B0FFF756FE43F20143984212D1FC
:101BE00000231A461946BAF81C00FFF74DFE10B143
:101BF0007846F6F7D7FB4FF4A67303FB056302A9FB
:101C0000988BFFF73FFE082812D12846FFF768FFA0
:101C100007B0BDE8F08FA4EB02089845CCBF4FF0A9
:101C200002084FF003089EE71C46B0E70024AEE729
:101C30001328EDD018B9BDF80630A34202D078467B
:101C4000F6F7B0FB4FF4A67303FB0563B9F1010F80
:101C500093F8081101F1FF331C44E4B206D80531B2
:101C6000601D0122394438440EF0B1FA4FF4A673D6
:101C700003FB056585F80841CAE700BFB0470020AF
:101C80002DE9F04180460E4611B97846F6F78AFBF9
:101C9000B8F1000F02D07846F6F784FB194D4FF4E7
:101CA000A67404FB08F42B199A8B4FF6FF739A4223
:101CB00026D0314604F120072F44384631F80A2D4A
:101CC000F7F7CAFF3846F8F725F8B8B104F582717E
:101CD00029443846F7F7F1FF10B17846F6F762FB72
:101CE0004FF4A67303FB0855D5F8043113B97846B1
:101CF000F6F758FB4046FFF70BFF0020BDE8F081E8
:101D00000820FBE7B0470020F0B50388232B89B0FB
:101D1000044600F0628114D8112B00F0918003D8A2
:101D2000102B74D009B0F0BD132B00F06781212B6C
:101D3000F8D108A9002321F8103D8088FFF79AFD0B
:101D400055E1522B00F0428117D8262B00F0A680D7
:101D5000502BE7D1B84D8388AA8B9A42E2D1C38831
:101D6000AA899A4240F0AB80028A022A40F0A780FA
:101D7000837CDA07D6D5052359E0552B00F0458141
:101D8000572BCFD1AC4B81889A8B91421C46C9D13D
:101D9000D3F80451002DC5D093F808212B7A013BCC
:101DA0009A4230D1294604F12000F7F7E8FF0023DA
:101DB0000122C4F8043184F808318DF810208DF820
:101DC00011306B7AD4F86811C3F305038DF818301D
:101DD0006B68059304A8A369984704F12000F7F7FE
:101DE00099FF00289ED004F58271A1F1E400F7F775
:101DF00064FF10B17846F6F7D5FAD4F8043113B978
:101E00007846F6F7CFFA0020FFF782FE8AE78A4D80
:101E1000AA8B4FF6FF739A4284D18388AB83D82272
:101E200005F12C0105F12000F7F747FE03238DF89B
:101E3000103000238DF81130AB69D5F868112AE015
:101E40007D4B81889A8B91421C467FF46BAF03F5E2
:101E5000A870F9F7BFFCD4F804110025FF2384F81B
:101E60004E5184F84D3139B104F12000F7F787FF66
:101E7000C4F8045184F808517048F7F774FE4FF61F
:101E8000FF73A38304238DF8103000238DF81130E5
:101E9000D4F86811A36904A8984743E7037A012B93
:101EA0007FF440AF02238DF8103083888DF8113015
:101EB000614B04A89A69D3F86811904732E72A8ADF
:101EC0009A427FF42FAF268A012E1AD995F84E0137
:101ED000C0F142039E4214D8A37C03F03F03032BBE
:101EE0000FD895F84D21934201D0FF2A09D1A37C48
:101EF000013EB6B29A09002845D0022A05D0032A2D
:101F00001AD00020FFF7ECFD0CE7F9F7A3FC4C49D1
:101F100001444C48F9F775FC95F84E0100F58670C0
:101F2000324604F1130128440EF051F995F84E3170
:101F30001E4485F84E61F5E600F58670324604F1E0
:101F4000130128440EF043F995F84D318DF8143003
:101F500095F84E313C4FD5F86811069700241E4481
:101F600004A8AB698DF810408DF81140ADF81C60E5
:101F7000984707F14400F9F72DFCFF2385F84E41FF
:101F800085F84D31CEE6A2B1012ABAD1F9F762FC4B
:101F90002B4901442B48F9F734FC324604F1130174
:101FA00029480EF014F9A37CC3F3050385F84D31DD
:101FB000BFE7C3F3050313348DF810008DF811004B
:101FC0008DF814300694ADF81C6035E700231A46EE
:101FD00019468088FFF758FCA4E60822002104A8CF
:101FE0000EF000F9002204A9A088FFF745FC0028A4
:101FF0003FF498AE7846F6F7D5F993E600231A46F3
:1020000085218088FFF734FCF1E70B4BA288988B81
:1020100082427FF487AEE588162D0BD9442D94BFFC
:102020002C4645242146FFF731FC064670B9033C97
:10203000DC8377E61724F5E7B0470020D04700207F
:10204000002D310100490020BC480020154B1B68C1
:102050009B067FF567AE144B1B68012B7FF762AEC2
:102060002F2112480EF08EF990B12F210F480EF05B
:1020700089F9411C0E4B0F4AD3F804350092CDE983
:102080000254019640F21B220220FBF727FA49E690
:102090005C2106480EF076F908B15C21E6E70349B9
:1020A000E8E700BF782E0020742E0020190D0400F0
:1020B00000100140360D0400014B93F844007047B6
:1020C0009C490020024B1B780B7082B002B0704715
:1020D000902E0020024B82B001221A7002B070478D
:1020E000902E002010B5C36C044613B97846F6F75D
:1020F00059F90648064BE16C201A8010584380B20B
:10210000FFF7B8FC0023E36410BD00BF9C4900202A
:10211000A737BDE910B5044610B97846F6F742F97D
:10212000A4F15000BDE81040FFF7DCBF38B5C36C28
:10213000054613B97846F6F735F9094CE96C2C1BBE
:10214000A310084C5C43A4B22046FFF799FD18B1D8
:10215000E96C2046FFF78EFC0023EB6438BD00BF1E
:102160009C490020A737BDE9F8B50D46174604463F
:1021700000B111B97846F6F715F954F8043CA4F10A
:10218000500613B97846F6F70DF93A46294654F841
:10219000040C0EF01CF83046BDE8F840FFF7C6BF4F
:1021A0002DE9F0419846C36C04460E46174613B11C
:1021B0007846F6F7F7F80948094D201A8010684369
:1021C0004346BAB2314680B2FFF716FC0028E064FD
:1021D0000CBF04200020BDE8F08100BF9C49002016
:1021E000A737BDE938B50D46044600B111B97846A8
:1021F000F6F7D8F814F80C3C0BB9012038BDAB68E1
:10220000503C5988204600F035FE0028F5D0EB6898
:102210006A6800212046FFF7C3FF00280CBF00209A
:102220000220EBE770B5274BDC6993F820208EB0D5
:102230000CB1A2B908345D789DB90EAE082206F83B
:10224000145D04F110010DF125000DF0C0FF09220D
:10225000314641F62800F5F7D5F80EB070BD3034A0
:10226000E9E7012DF9D10DF10201684607F04EFEB4
:10227000BDF800600622002101A80DF0B3FF08217F
:102280000DF10A00F9F7F4FB330A43EA062305AA25
:1022900001A904F11800ADF81230FAF735F9082257
:1022A00007A90DF125008DF824500DF090FF0822AC
:1022B0000DF10A010DF12D000DF089FF112209A980
:1022C000C7E700BF1C49002010B5034C201DF9F7DB
:1022D00081FA0023237010BD1C490020034B93F8A2
:1022E000440010B10020FFF7EBBB70479C49002071
:1022F00013B50B4C00200DF1070204F11C0107F08F
:1023000003FDE06950B90DF1070204F11C0107F06B
:10231000FBFCE36913B97846F6F744F802B010BD48
:102320001C49002008B5FFF7E3FFBDE80840FFF7B0
:1023300079BF000070B5144C2278607005460E46D7
:102340000AB1F5F7F1F8AEB1FFF7D2FFF9F782FA6B
:10235000216901440D48F9F754FA7DB94FF44861F9
:102360002846F5F7BDF8FFF75DFFF5F7CDF8012337
:10237000237070BD0548F9F72DFAEEE74FF4A07110
:102380004EF66020EDE700BF1C49002020490020E8
:1023900013B50C4B0C780190187824B178B9012250
:1023A0001A7002B010BD50B11C70074B187800288D
:1023B000F7D0F5F7B9F8FFF787FF2046F1E70820D7
:1023C000EFE700BF902E00201C4900202DE9F743C5
:1023D000124D95F8444006460F4690469946B4B1D2
:1023E0000023162201212846FFF7DAFE044690B9A1
:1023F000EB6C009342464B4639463046FCF76AFE8A
:1024000010B17846F5F7CEFF0448FFF78FFE20465F
:1024100003B0BDE8F0830424F9E700BF9C49002025
:1024200010B50378042B044615D1C3681B78012B23
:1024300011D001690848FAF770FF60B9637E227E07
:102440006169A068FFF7C2FF28B921690248BDE8A9
:102450001040FAF782BF10BD4049002037B5154B38
:1024600015491868009000229B88ADF80430684632
:10247000FFF71CFA1148124B0360F8F727FF1148C9
:10248000114C08238360114B036004234360FAF767
:1024900035FF0F4B0F4ADA600F4A1A6100250222FE
:1024A0000E491D7004F15000FCF78AF984F844507D
:1024B00003B030BD7A0D04001D260300F84900204A
:1024C00021240300404900209C4900205C49002051
:1024D0001C4900202523030080969800600E04000C
:1024E00010B50B4B1B7863B10A490A785AB9FFF74C
:1024F000E3FD044648B9C8610121FFF71BFF2046F0
:1025000010BD0824FBE70024F9E71446F7E700BFF5
:10251000902E00201C49002037B50C4611B9784692
:10252000F5F740FF00230DF1030201A920460193B6
:1025300007F0EAFB019B13B97846F5F733FF019CDE
:102540009DF803300CB18BB90834F8F765FA0546ED
:10255000F8F77EFA9DF803309A1E534253412946FC
:1025600002462046FFF732FF03B030BD3034ECE7BF
:1025700010B40A78012A044614D10B890B485C2157
:1025800001FB030090F8443063B190F8423004F14D
:1025900008011BB95DF8044B00F01ABC5DF8044B50
:1025A00000F040BC5DF8044B704700BF9C49002020
:1025B000084B1B7853B1084A13783BB15378012B71
:1025C00006D118B1D3691A1A5342534118467047BD
:1025D0000023FBE7902E00201C490020014B1878B7
:1025E000704700BF902E002008B5044B187820B12A
:1025F000FFF762FD003018BF012008BD902E0020BB
:1026000010B5054C94F844302BB10020FFF768FA60
:10261000002384F8443010BD9C4900202DE9F04F80
:102620007F4947787F4D0B6802785C2417FB04F4E0
:10263000B3B080462E1903F001038946052A00F243
:102640000183DFE812F003019302D4020600470081
:102650008F00BBB1744B1B68032B13DD2F21734814
:102660000DF090FE68B32F2170480DF08BFE411CD9
:102670006F4B704AD3F804350092042040F2552283
:10268000FAF72CFFFFF720FE5C2303FB075701231B
:1026900087F84430304600F07DFB002004F145020D
:1026A00004F14801B8642A44294407F02DFBFFF7E0
:1026B00003FD18B901210020FFF73CFE33B0BDE84F
:1026C000F08F5C2159480DF05DFE08B15C21CBE72D
:1026D0005649CDE7C3B1544B1B68032B14DD2F21A2
:1026E00052480DF04FFE002833D02F214F480DF0F7
:1026F00049FE411C4E4B504AD3F804350092042049
:1027000040F26522FAF7EAFE5C2303FB075500233B
:1027100085F84430494B1B7833B1494B187818B9C8
:102720000121D861FFF706FE464A1378002BC5D079
:10273000FFF7C2FC01460028C0D110702C2221A84E
:102740000DF050FD1B2321A88DF88430F7F744F9D4
:10275000B4E75C2135480DF015FE08B15C21C5E7F2
:102760003249C7E7C3B1304B1B68032B14DD2F215F
:102770002E480DF007FE002846D02F212B480DF0E3
:1027800001FE411C2A4B304AD3F804350092042044
:1027900040F27B22FAF7A2FE04F148085C2345349C
:1027A000A8442C4403FB0755AF6C002F86D095F846
:1027B000453093BB0837F8F72FF98146F8F748F909
:1027C0000023824616220121304695F845B0FFF7D6
:1027D000E7FC00287FF472AFEB6C00931BF1000361
:1027E00018BF0123524649463846FCF773FC10B126
:1027F0007846F5F7D7FD3046FFF798FC224641466C
:10280000002007F081FACFE75C2108480DF0BAFDFF
:1028100008B15C21B2E70549B4E73037CBE700BF28
:10282000782E00209C490020742E0020840D040086
:10283000001001409D0D0400A80D0400902E002002
:102840001C490020054A0020B60D0400CBB1BF4B47
:102850001B68032B15DD2F21BD480DF093FD0028CB
:1028600000F08D802F21BA480DF08CFD411CB94B32
:10287000B94AD3F80435009204204FF42072FAF7D5
:102880002DFE1822002105A898F804A0D8F80840C9
:10289000B8F80C800DF0A6FC01238DF81430F8F781
:1028A000D9FF731B9A10AD4B06905343ADF81C3003
:1028B000D9F80030DA071AD5A44B1B68032B16DDB4
:1028C0002F21A3480DF05EFD002861D02F21A048E4
:1028D0000DF058FD411C9F4BA14AD3F804350092DE
:1028E000CDE901A840F23B220420FAF7F7FDBAF146
:1028F000010F5CD055D3BAF1020F7FF4DFAE08F1BF
:10290000FF33412B00F2F78001230093224621ABD5
:1029100041460BA8FAF7B8FA0446002840F0C380F5
:102920009DF83730002B00F0BE809DF83630002B2C
:1029300040F0B980BDF82E30002B40F0B48021A8C3
:10294000FAF78AFB814641460BA8FAF77BFB99F818
:102950000030012B00F1FF3273D02FD3022B7FF414
:10296000ADAE402A3FF6AAAED0073FF5A7AE52085B
:1029700011A9A2427ED1304600F054FA29E05C2130
:1029800073480DF0FFFC08B15C216CE770496EE7FD
:102990005C216F480DF0F6FC08B15C2197E76C49AB
:1029A00099E705AA41462046F9F7FAFF86E605AA07
:1029B0005FFA88F12046FBF773FD7FE6012A7FF47A
:1029C0007DAE99F80110304600F0F0F900287FF450
:1029D00075AE0023152202213046109CFFF7E0FB64
:1029E000804600287FF46AAE5C2303FB0755E86C41
:1029F000FAF732FB00283FF461AE0323037095F829
:102A000042304370B5F84020130A43EA0223438062
:102A10001822414611A801270DF0E4FB8DF84F70F4
:102A2000F8F700F80DF11201CDE9150413A807F02D
:102A30006DFA14A8F7F78EFF38B33046FFF752FB54
:102A40003CE6402A3FF63AAED3073FF537AE520890
:102A500011A9A24203D1304600F0BAF9B9E709EB57
:102A60004403B3F80100030A43EA002321F81430B9
:102A70000134EEE709EB4403B3F80100030A43EA2B
:102A8000002321F81430013473E711A9E86CFAF738
:102A900084FA11A83B46EA6C0421FAF73FFA304663
:102AA000FFF744FB0AE6D9F80030D9077FF506AEF8
:102AB000264B1B68032B7FF701AE2F2124480DF016
:102AC00061FC78B12F2122480DF05CFC411C214BA8
:102AD000244AD3F804350092042040F22522FAF764
:102AE000FDFCEBE55C211A480DF04CFC08B15C21C3
:102AF000E9E71749EBE7D9F80030DA077FF5DEADF3
:102B0000124B1B68012B7FF7D9AD2F2110480DF018
:102B100039FC88B12F210E480DF034FC411C0D4BBF
:102B2000114AD3F804350092CDF8048040F22A22ED
:102B30000220FAF7D3FCC1E55C2105480DF022FC28
:102B400008B15C21E7E70249E9E700BF742E0020E5
:102B5000840D040000100140C00D0400A737BDE93A
:102B6000C40D0400E30D0400F60D0400BBB1484B96
:102B70001B68032B13DD2F2146480DF003FC68B3BF
:102B80002F2144480DF0FEFB411C434B434AD3F830
:102B90000435009204204FF42272FAF79FFC98F853
:102BA000083073B9D8F804104B1C5E425E41F8F748
:102BB00051FE50340246D8F8043031462819FBF74C
:102BC000E5FD374B1B78002B3FF478ADFFF786FB14
:102BD00000287FF473ADFFF713FD6FE55C212D48EE
:102BE0000DF0D0FB08B15C21CBE72A49CDE7BBB1A2
:102BF000274B1B68032B13DD2F2126480DF0C2FB4A
:102C0000B8B12F2123480DF0BDFB411C224B254AB2
:102C1000D3F804350092042040F2A122FAF75EFCBA
:102C2000214B00221A70214B1B78002B3FF446AD3C
:102C300040E55C2117480DF0A5FB08B15C21E1E7F8
:102C40001449E3E7002B3FF439AD114B1B68012B0E
:102C50007FF734AD2F210F480DF094FB78B12F2171
:102C60000C480DF08FFB411C0B4B98F80020D3F85B
:102C7000043501920E4A009240F2AB2258E75C21E3
:102C800004480DF07FFB08B15C21E9E70149EBE75F
:102C9000742E0020840D040000100140250E040055
:102CA000054A0020320E04001C490020902E00200E
:102CB0003F0E040030B5164C22788DB022B3154B70
:102CC0001B781BB1F4F730FCFFF7FEFA00252570E6
:102CD000FFF7F2F9044668B901462C2201A80DF06D
:102CE00081FA1B2301A88DF80430F6F775FE204603
:102CF0000DB030BD084B01221A70FFF7EFFA044601
:102D000020B9FFF77DFCF2E70824F0E72C46EEE758
:102D1000902E00201C490020054A002010B50246D4
:102D2000FFF7CAF9044658B9064B83F82010B2FAE7
:102D300082F149090120DA61FFF7FCFA204610BD53
:102D40001124FBE71C49002010B50020FFF730FCE0
:102D500068B1084B1C782CB101210020FFF7EAFA7A
:102D6000002010BDF4F7E0FBFFF7AEFAF8E708200B
:102D7000F7E700BF902E002007B5054B02A901F828
:102D8000010D1868FCF714FC03B05DF804FB00BFEC
:102D9000800D040010B5044610B97846F5F702FB23
:102DA000002384F84230A4F8403010BD38B50D46F9
:102DB000044610B97846F5F7F5FA012D06D82046F5
:102DC000FFF7E8FF84F84250002038BD0B20FCE7F5
:102DD000F8B50D461646044610B97846F5F7E2FAFE
:102DE00015B97846F5F7DEFA0023B34203D0B4F8FC
:102DF00040201F2A00D9F8BD35F8131081B90133DE
:102E0000F3E734F810708F42F9D001309042F8D3D4
:102E1000511CA4F8401035F8131024F81210EEE7F6
:102E20000020F3E770B50C461646054610B9784603
:102E3000F5F7B8FA14B97846F5F7B4FA214604EB79
:102E40004606B14215D0B5F84030002000E0013010
:102E500083420CD90C8835F810209442F7D1013BFD
:102E60009BB2A5F8403035F8133025F81030023108
:102E7000E7E770BD38B50D46044610B97846F5F75A
:102E800091FAB4F840200023934206D3002094F82E
:102E900042300BB180F0010038BD34F81310A94264
:102EA00001D00133F0E70120F1E72DE9F04F0C46A6
:102EB00089B0814600B111B97846F5F773FA2388D5
:102EC000192B02D87846F5F76DFA59224FF42013E2
:102ED000CDE905230025032305A90A224846ADF8BC
:102EE0001C30ADF802500DF072F90A2323800DF169
:102EF0000601284604F0A8FC10B17846F5F752FA0E
:102F00000DF10701002004F0ABFC10B17846F5F795
:102F100049FA9DF806309DF80720D3423ED001A91A
:102F2000002004F085FC10B17846F5F73BFA08AABA
:102F300003230DF10C0822F81E3D4146002004F049
:102F4000DBFC10B17846F5F72DFA208804220DEB52
:102F5000020148440DF03BF926889DF806300436FE
:102F6000B6B2268053B10027BDF802A03D464FF609
:102F7000FF7B574515D323881D4425809DF80730D6
:102F800063B12388BDF802700026994435464FF698
:102F9000FF7ABE421DD323881D44258009B0BDE8B9
:102FA000F08F02A938F8170004F066FC10B17846DB
:102FB000F5F7F8F9BDF808305B4508D1A8190222E9
:102FC0000DF10A0148440DF002F90235ADB20137A6
:102FD000CFE702A938F8160004F04EFC10B178468D
:102FE000F5F7E0F9BDF8083053450FD0022202A9E9
:102FF00009EB05000DF0EBF8A81C02220DF10A0107
:1030000019FA80F00DF0E3F80435ADB20136C0E7EF
:10301000024B1B6803B11847704700BF084A0020E5
:1030200013B5044601A805F0B3FEBDF80400001B6B
:1030300018BF4FF0FF3080B202B010BD37B5044664
:10304000FBF752FE0546002301A8009305F0A0FE01
:103050006946288A06F046FD30B9009B6360BDF8DA
:103060000430238003B030BD0520FBE71FB501937A
:10307000BDF81830ADF808300023ADF800208DF809
:103080000A304FF6FF720223ADF802208DF80B30A4
:103090006A46079B039304F087F805B05DF804FBCC
:1030A0007FB505460E46002003A98DF80800FDF700
:1030B0003EF810B17846F5F775F99DF80D309DF89A
:1030C0000820013B0A2104AC63F30202BDF80E3074
:1030D000B3FBF1F3013B63F3C70204F8082DF8F7E3
:1030E00001F901230190009348F22502234631465D
:1030F0002846FFF7BBFF04B070BD7FB50B89012BDD
:1031000006460D4631D14C688DF804302378C3F360
:10311000020301338DF805302378DA080A2302FB15
:103120000333142BB8BF142301A90020ADF80630D7
:10313000FCF7ECFF10B17846F5F734F93046294634
:10314000FFF7AEFF0023CDE9023311238DF80830DD
:103150002378C3F302038DF80C30237802A8C3F35D
:10316000C4038DF80D30FFF753FF04B070BD0B8919
:103170000BB9FFF795BF704737B504460D46F8F712
:10318000B1F8084B1860084B01221A700023019017
:10319000009348F24A0229462046FFF767FF03B032
:1031A00030BD00BF104A00200C4A002030B585B069
:1031B00004460D468DF80C20ADF80D30F8F792F866
:1031C00003230190009348F2440203AB29462046B2
:1031D000FFF74CFF05B030BD30B585B004460D4655
:1031E000002303A90120ADF80830FCF7A0FF10B1BF
:1031F0007846F5F7D7F89DF80C308DF808309DF833
:103200000D309DF80920013B63F30202BDF80E303A
:103210008DF80920142B15D1D2B212F0070111D16B
:1032200061F3C7028DF80920F8F75CF802230190DA
:10323000009348F2280202AB29462046FFF716FF0A
:1032400005B030BD0A22B3FBF2F39DF80920013B23
:1032500063F3C702E6E77FB50B89022B05460E46EE
:103260003ED14C682378012B3AD803F001038DF846
:1032700004306378C3F3020301338DF805306378BB
:1032800083BB1423ADF80630BDF80630142B38BFCD
:10329000142301A90120ADF80630FCF737FF10B167
:1032A0007846F5F77FF828463146FFF795FF00236B
:1032B000CDE9023312238DF8083023785A1E534289
:1032C00053418DF80C306378C3F302038DF80D3051
:1032D000637802A8C3F3C4038DF80E30FFF798FE9D
:1032E00004B070BDDB08013303EB83035B00C9E767
:1032F0000B890BB9FFF770BF704770B586B00D46EC
:10330000ADF80F309DF82C30ADF80D2000218B4228
:1033100004460A988DF80C1014BF07260926CDF82C
:103320001100F7F7DFFF03ABCDE9006048F21F02A1
:1033300029462046FFF79AFE06B070BD30B587B02B
:103340000446039306AB8DF8142033F80C2DADF82A
:1033500015209B788DF817300D46F7F7C3FF04232F
:103360000190009348F2030205AB29462046FFF77F
:103370007DFE07B030BDF0B50C8924F00204A4B284
:1033800085B007460D461CBB4E683088F7F7B8FD80
:1033900001281DD13388ADF80830ADF80A408DF80A
:1033A0000C4030880AF0CEFE030A8DF80A00000CAB
:1033B0008DF80B308DF80C00F7F794FF0523019082
:1033C000009348F22E0202AB29463846FFF74EFE24
:1033D00005B0F0BD2DE9F0410B89032B86B00746FF
:1033E0000E4627D14D68AB78012B23D806AC0023BD
:1033F00044F8083D288805F0F1FD2146804606F096
:1034000055FBD0B104208DF814002B88ADF8153091
:1034100070BB0498FFF7CCF88DF81700F7F762FF40
:1034200004230190009348F2480205AB3146384628
:10343000FFF71CFE06B0BDE8F0810DF10F0140461C
:1034400005F0FAFE04460028DCD1AB78012B0BD145
:10345000FFF7C4F830B19DF80F100498FFF75EFC39
:103460000028D0D00E20CEE7FFF76EFC2046CAE73A
:103470000020D1E72DE9F0430B89022B87B081466C
:103480000C4638D14B681F88C7F30B0005F0A6FD2A
:10349000A38C8342804631D13B460C2221464846CC
:1034A000FFF784FE27E036F8150005F0BBFD26F88F
:1034B00015000135019BAB42F5D82EE036F815001A
:1034C00004F084FA10B17846F4F76CFF0135019BE3
:1034D000AB42F3D83B46484600222146FFF766FE42
:1034E000002302937360304619238DF80830ADF83D
:1034F0000C80FFF78DFD07B0BDE8F0834FF6FF733A
:10350000984202AEE6D006AA082342F8143D31469E
:1035100006F06AFA05460028CCD0404606F0FEF9CF
:1035200005460028D3D00F28B6D03B460422B5E785
:10353000F0B50B89122B85B007460D4625D14E6894
:103540000A88344648F2400334F8020B9A42C0F32A
:103550000B001CD121460DF1060205F0DFFD1823FA
:1035600004460F2C8DF80830BDF80630ADF80C304D
:1035700096BF0C4B10221A5D338829463846FFF758
:1035800015FE14B902A8FFF743FD05B0F0BD05F024
:1035900025FD2146ADF8060005F068FE1A23044615
:1035A000DFE700BF6C0E04002DE9F0431F460B88D7
:1035B00047F6E57843449BB2102B87B005460C468E
:1035C000164656D84FF0010909FA03F313F0EF013C
:1035D0001BD113F4803060D15B044AD5014605222B
:1035E00003A80CF0FFFD63688DF80C701A88ADF825
:1035F0000D205B88ADF80F30F7F774FE05230093BC
:10360000019003AB48F22A022FE00922002103A80F
:103610000CF0E8FD23888DF80C7043449BB2072B17
:103620000AD809FA03F313F00B0F09D113F00402BF
:103630002DD113F0E00F1FD17846F4F7B3FE09E067
:1036400063681A88ADF80D205A88ADF80F205B68C2
:10365000CDF81130002E14BF07260926F7F742FED9
:10366000CDE9006003AB48F21F0221462846FFF770
:10367000FDFC07B0BDE8F083636833F8121BADF8BA
:103680000D108DF80F208DF810201B68E0E763689F
:1036900033F8022BADF80D20F7E7072203A80CF052
:1036A000A1FD63688DF80C701A88ADF80D209A881A
:1036B000ADF811205B88ADF80F30F7F713FE072344
:1036C0000093019003AB48F22C02CEE77FB504AA29
:1036D000032322F80A3D02A9064603F047FF062805
:1036E00025D010B17846F4F75DFE0025BDF8062020
:1036F000ABB29A4202D8002004B070BDACB26400F4
:1037000004AB2344304633F8081C03F0FFFE10B12D
:103710007846F4F747FE04AB1C4434F8080C05F077
:10372000E5FB10B17846F4F73DFE0135DEE70820F1
:10373000E2E72DE9F0438DB01C46154606460F46DC
:10374000092200210DF125000CF04CFD00230DF1A4
:103750000B0120468DF82030ADF8215004F020F800
:1037600010B17846F4F71EFE9DF826309DF80B2028
:1037700062F304136FF3471305A920468DF8263032
:1037800004F07AF810B17846F4F70CFEBDF8145046
:10379000BDF816304FF6FF7295420DF10E0120462E
:1037A0000EBFADF82A30ADF82C30ADF82A5003F03A
:1037B00027FD10B17846F4F7F5FDBDF80E004FF681
:1037C000FF73984218D100238DF823308DF82430F0
:1037D0004FF6FF739D4214BF0E250C25F7F782FDAF
:1037E00008ABCDE9005048F2190239463046FFF7E0
:1037F0003DFC0DB0BDE8F08306A905F045FB10B116
:103800007846F4F7CFFDBDF81A30ADF8233004A99F
:10381000204603F083FF05288046D4D0002848D1F5
:103820000DF11201BDF8100005F010FC05288146CD
:1038300004D18DF823808DF82480C9E70028C7D1F2
:103840009DF812308DF825309DF8133003F00F02EB
:103850009DF8263023F00F0313430DF12701204676
:103860008DF8263003F0D0FF0122494603A80CF062
:10387000B9FC0DF10D0203A9204603F011FD9DF8DE
:103880000C209DF80D3002A943EA821320468DF8E2
:10389000283003F0EFFC9DF808209DF82930C2F392
:1038A000020161F30203D20862F3C7038DF82930E5
:1038B0008EE77846F4F776FD8AE7F0B50B89032B9F
:1038C00087B007460C4619D14D6804238DF80C309B
:1038D0002B88ADF80D3000238DF80F302888C0F309
:1038E0000B0005F07BFB0DF10B01064605F0A4FC77
:1038F000D0B9AB78022B03D0032B32D007B0F0BD88
:103900009DF80B305A1E012AF8D8012B06D13046FB
:1039100005F036FD10B17846F4F744FD00238DF82C
:103920000C3002238DF80F30F7F7DCFC04230190F4
:10393000009348F2170203AB21463846FFF796FB87
:103940009DF80C30002BD9D1CDE9043308238DF834
:10395000103004A89DF80F308DF81430FFF758FB95
:10396000CCE79DF80B30032BC8D033B1304605F0BF
:1039700035FD10B17846F4F715FD00238DF80C30B5
:10398000D0E77FB50B89012B06460C4621D14B6849
:103990001A78012A1DD802228DF80C201B782BB131
:1039A000012B18D07846F4F7FDFC01E00AF09BFAF1
:1039B0000AF062FA04AD05F8040DF7F793FC012351
:1039C0000190009348F211022B4621463046FFF742
:1039D0004DFB04B070BD0AF07BFAE9E770B50D89C4
:1039E000012D86B006460C461ED14B6818788DF81E
:1039F0000F0003F0A7FEB8B90523CDE904008DF848
:103A0000103004A89DF80F308DF81430FFF700FB3C
:103A1000F7F768FC0DF10F03CDE9005048F20E02F4
:103A200021463046FFF722FB06B070BD7FB50E463B
:103A30000546FBF73DFB04AC04F8040DF7F752FC18
:103A400001230190009348F20B0223463146284699
:103A5000FFF70CFB04B070BD0B890BB9FFF7E6BF95
:103A6000704770B50B89092B8CB006460D465CD1AA
:103A70004C682388ADF81C30A3782BB1102B56D896
:103A8000013B012202FA03F30893E37843B1112BBF
:103A90009DBF03F1FF33012202FA03F34FF0FF331E
:103AA000099323798DF82830B4F8053003F00F031B
:103AB000ADF82A30B4F80730ADF82C30B4F8070070
:103AC00005F08CFA4FF6FF73984237D104238DF836
:103AD00010302388ADF81130E3788DF81430A378D6
:103AE0008DF8133023798DF81530B4F8053003F0D4
:103AF0000F03ADF81630B4F80730ADF81830F7F70B
:103B0000F1FB0A2301900093062204AB29463046BC
:103B1000FFF7ACFA9DF810303BB914238DF808304C
:103B200002A807AB0393FFF773FA0CB070BDFF2B2D
:103B30004FF6FF7318BF4FF0FF33A5E707A8FBF759
:103B4000D7F800280CBF00230F23C0E737B5F3F7E1
:103B5000CDF8FAF745FA084D18B903232B7003B0D6
:103B600030BD00241C236846CDE900448DF80030A8
:103B7000FFF74EFA2C70F2E70C4A002037B50378B5
:103B80000E2B1CD01B2B12D0012B16D1134B4268CD
:103B90001B689A4211D1124C2378012B0DD1FEF7EC
:103BA00023FD40B102232370FFF784F805E00C4B9E
:103BB0001B78022B01D1FFF7C9FF03B030BD084DC0
:103BC0002B78032BF9D100241C236846CDE900444F
:103BD0008DF80030FFF71CFA2C70EEE7104A002039
:103BE0000C4A00207FB50B89022B06460C461FD1DC
:103BF0004D682888C0F30B0005F0F0F90DF10B01BA
:103C000005F01AFB002303932B88ADF80D3088B91B
:103C10009DF80B308DF80F30F7F764FB042301900B
:103C2000009348F2170203AB21463046FFF71EFA15
:103C300004B070BD04238DF80C30EDE77FB50B891F
:103C400006460D4683B9FEF7C9FC04AC04F8040D22
:103C5000F7F748FB01230190009348F21402234632
:103C600029463046FFF702FA04B070BD2DE9FF4146
:103C70000B89022B80460D4625D104AE00244F68E7
:103C800046F8084D388805F0A9F9314605F00EFFD1
:103C9000A0420CBF234604238DF80C303A88ADF8BF
:103CA0000D209BB90298FEF783FC8DF80F00F7F703
:103CB00019FB04230190009348F2480203AB294604
:103CC0004046FFF7D3F904B0BDE8F0812046ECE7A9
:103CD00070B50B8988B006460D46FBB908A90423C8
:103CE00041F8143D06A805F059FC039B9AB25B0805
:103CF00003EB430302F0010404A906A803EB440408
:103D000001F0C8FBF7F7EEFAA4B2CDE9004004AB2E
:103D100048F2430229463046FFF7A8F908B070BDC3
:103D2000F0B50B89022B8DB006460D4632D14F6897
:103D30000CAC0823388844F8243DC0F30B0005F090
:103D40004DF9224608A905F04FFE3B88ADF8113029
:103D500018B1052820D010231FE0039C8DF8100017
:103D6000A2B2640804EB440402F0010304EB430430
:103D700003340DF1130108A8A4B201F08BFBF7F78F
:103D8000B1FA04ABCDE9004048F2020229463046C0
:103D9000FFF76CF90DB0F0BD04238DF8103003244B
:103DA000EDE7F0B516460A881F4648F218039A4216
:103DB00087B005460C4605D048F21A039A4201D056
:103DC000032A2CD10E22002102A80CF00BFA238822
:103DD0008DF8087048F21802934209D048F21A028E
:103DE00093421ED0032B20D1636833F8092B02E0E5
:103DF000636833F8022BADF809201B68CDF8123048
:103E0000002E14BF0C260E26F7F76CFA02ABCDE994
:103E1000006048F2190221462846FFF727F907B04B
:103E2000F0BD636833F8172BE5E77846F4F7BAFA84
:103E3000E6E77FB50B89012B06460C4620D14B687F
:103E4000187801281CD800F00100FEF795FF30F02B
:103E5000080302D07846F4F7A5FAFEF741FBFEF717
:103E6000BDFB04AD05F8040DF7F73CFA0123019002
:103E7000009348F214022B4621463046FFF7F6F82D
:103E800004B070BD7FB50B8906460D469BB9022371
:103E90008DF80C3009F0F0FF04AC04F8040DF7F7CE
:103EA00021FA01230190009348F21102234629468A
:103EB0003046FFF7DBF804B070BD7FB50B890646CE
:103EC0000D4683B903F04AFC04AC04F8010DF7F782
:103ED00009FA01230190009348F20E022346294675
:103EE0003046FFF7C3F804B070BD37B50B89012B1E
:103EF00005460C4618D14B681A78012A14D80022BE
:103F0000CDE9002204228DF800201878431E584283
:103F100058418DF80400FBF7BBF828462146FFF70F
:103F200085FD6846FFF774F803B030BD70B50B89A6
:103F3000012B8AB006460D4618D10AA900238DF838
:103F40000C301A2321F81E3D0DF10D00FEF7ADFFD8
:103F5000BDF80A40F7F7C6F90134A4B2CDE9004034
:103F600003AB022229463046FFF780F80AB070BD45
:103F70002DE9F0470B89132B88B080460C4670D191
:103F80004E68B578707837783388ADF814304FEADA
:103F9000051A4AEA101A00F00F0047EA00208DF8CF
:103FA000165005F01BF800238DF81830F21C07ABF3
:103FB00001468146504605F0B1FB384B1B685B0457
:103FC00006461CD5364B1B68032B18DD2F213548C0
:103FD0000CF0D8F9F8B12F2132480CF0D3F9411C7C
:103FE000314BBDF81C20D3F8043501922F4A0092C2
:103FF000CDF808A040F275220420F9F76FFA0F2ED1
:1040000048D8DFE806F03E47471140494733474765
:104010004747474747315C2122480CF0B3F908B1C4
:104020005C21D9E71F49DBE70DF11201BDF81C0047
:1040300005F026F810B17846F4F7B4F9BDF812206F
:104040004A4514BF042200228DF814708DF81650D2
:10405000059B21464046FFF771F916B906A8FEF701
:10406000D7FF08B0BDE8F0870622EDE78DF81470A1
:104070008DF81650059B032221464046FFF75EF956
:10408000EFE70022E0E78DF814708DF81650059BDD
:104090000522F1E71022D7E70422D5E7782E002089
:1040A000742E00207C0E040000100140AC0E0400B1
:1040B00073B50D46164603F059FA0528044607D095
:1040C00006281AD0B8B933889C4204D3002000E0F7
:1040D000022002B070BD6946288804F0D5FE50B9B0
:1040E0009DF80030023B012B05D8BDF8023025F8C1
:1040F000023B0134E7E71020EBE70820E9E72DE970
:10410000F043B1F80880B8F1040F8BB006460D46B5
:1041100012D14C684FF6FF7967882088ADF80E7091
:10412000ADF80C90FEF77CFF484508D10123012231
:1041300029463046FFF738FA0BB0BDE8F08302AAF3
:10414000039903F0AFFB08B10223F0E70AAA04A920
:1041500022F81E8DBDF80800FFF7AAFF03460028CD
:10416000E5D1BDF80A208DF818002388ADF8193084
:1041700004A952000DF11D00ADF81B700CF027F8DA
:10418000BDF80A40F7F7AEF864000534A4B2CDE9F3
:10419000004006AB48F22A0229463046FEF766FF89
:1041A000CAE708B590B1B0F5004F06D80023013337
:1041B0004008DBB2FBD1184608BD4FF6FF739842AA
:1041C00006D07846F4F7EEF81023F4E70346F2E75A
:1041D000FF23F0E708B570B1B0F5803F06D80023A3
:1041E00001334008DBB2FBD1184608BD7846F4F72E
:1041F000D9F81123F8E70346F6E770B50C4686B008
:104200000546FAF771FD2189064619BB8DF80C1099
:104210000388ADF80D304368012B1DD8DBB2B068C0
:104220008DF80F30FFF7D6FF337B8DF81130F3890F
:10423000ADF81230338AADF814308DF81000F7F76E
:1042400051F80A2301900093062203AB2146284629
:10425000FEF70CFF06B070BDB3F5004F07D8013B69
:104260005B08CAB201F10101FAD1931CD6E74FF6FF
:10427000FF72934204D07846F4F794F81023CEE707
:10428000FF23CCE7F0B50E8987B007460D462EBB5D
:10429000FAF726FD8DF80C60038804460BB14288BE
:1042A000F2B900238DF80D308DF80E308DF80F30F7
:1042B0008DF810308DF811308DF812308DF81330E4
:1042C0008DF81430F7F70EF809230190009348F2A7
:1042D0003C0203AB29463846FEF7C8FE07B0F0BDE6
:1042E000ADF80D304388ADF80F304068FFF759FF47
:1042F0008DF81200A068FFF76DFFA3898DF81330C9
:104300008DF81100E389DBE72DE9F04F0B89132BC2
:1043100085B080460D463ED14C686078238827786A
:10432000ADF804304FEA101B002300F00F00A67810
:104330008DF80660CDE9023347EA002001238DF8AD
:10434000083004F04BFE4FF6FF7A5045814633D0DB
:104350004BEA061004F066FE5045ADF80C002DD077
:104360000DF1020104F08CFE10B17846F4F71AF852
:10437000BDF802304B4511D011248DF804708DF832
:104380000660019B224629464046FEF7D7FF14B936
:1043900002A8FEF73DFE05B0BDE8F08FE11CBDF8B8
:1043A0000C0005F051FA052808D0082808D000288C
:1043B0000CBF00241024E0E70424DEE70324DCE73C
:1043C0000B24DAE72DE9F0430A89032A85B08046F9
:1043D0000D4653D14B689E7819881F785B78ADF8ED
:1043E0000410300140EA13108DF8066003F00F044A
:1043F0008DF8082004F016FE4FF6FF794845ADF819
:104400000C0024D047EA042004F0E8FD48450446A7
:1044100037D00DF10201BDF80C0004F031FE10B1EF
:104420007846F3F7BFFFBDF80230A34211D1BDF8C3
:104430000C0003F0CBFA10B17846F3F7B3FFBDF8E8
:104440000C0005F053FA10B17846F3F7ABFF0024E7
:1044500000E011248DF804708DF80660019B22465F
:1044600029464046FEF76AFF44B9BDF80C204FF6D6
:10447000FF739A4202D002A8FEF7CAFD05B0BDE85C
:10448000F0830424E6E7F0B50B89052B8DB00746D1
:104490000D464AD14C681022002108A80BF0A2FE5C
:1044A0002388ADF820306388ADF82230237943B1FA
:1044B000112B9DBF03F1FF33012202FA03F34FF0EA
:1044C000FF3308A80A93FAF7A3FB064668BBFAF77E
:1044D00007FC8DF814600388ADF815300446438856
:1044E0008068ADF81730FFF775FE8DF81900606829
:1044F000FFF757FEA3898DF81B30E3898DF81C3038
:104500008DF81A00F6F7EEFE092301900093384665
:1045100005AB48F23C022946FEF7A8FD152303A887
:104520008DF80C300494FEF773FD0DB0F0BD2DE94D
:10453000F347B1F8088028F00203042B06460C4626
:1045400021D14D686B882888B8F1040F9FB21BBF3A
:104550006A792B79ADF8063043EA02230BBF4FF09E
:1045600001094FF000094FF6FF77ADF80630FEF76E
:1045700057FD4FF6FF7A504508D101234A462146A0
:104580003046FFF70EFC02B0BDE8F087ADF80470CE
:104590000DF10202019903F085F920B9B8F1040F79
:1045A00003D0574501D10223E8E7BDF802302A883D
:1045B00021463046FFF7BDF8E5E72DE9F047B1F8B1
:1045C000089029F00203042B86B007460D4621D13E
:1045D0004C6863882088B9F1040F9EB21BBF6279D2
:1045E0002379ADF80E3043EA02230BBF4FF00108E8
:1045F0004FF000084FF6FF76ADF80E30FEF710FDD5
:104600004FF6FF7A504508D10123424629463846E5
:10461000FEF7CAFF06B0BDE8F087ADF80C600DF1FB
:104620000A02039903F03EF920B9B9F1040F03D04F
:10463000564501D10223E8E7BDF80A00FFF746F826
:10464000064608B10346E0E702F096F834F8022B7C
:10465000CDF8048020680090334638462946FEF79E
:104660004CFE0C23CDE9046604A88DF81030BDF88B
:104670000A30ADF81430FEF7CBFCCBE72DE9F0475C
:10468000B1F8089029F00203142B88B006460D46B5
:104690002ED14C68638A2088B9F1140F1FFA83F871
:1046A0001BBF627D237DADF80E3043EA02230BBFB2
:1046B000012700274FF6FF78ADF80E30FEF7B0FC6B
:1046C0004FF6FF7A504501D101230CE0ADF80C8084
:1046D00002AA039903F0E6F820B9B9F1140F0AD041
:1046E000D04508D102233A4629463046FEF75CFF02
:1046F00008B0BDE8F08702238DF81030A01C00231D
:104700000DF11201ADF812300590F8F7C5FD10B1AA
:104710007846F3F747FE0DF10A0104A804F012FCF5
:104720000528D1D008B11023DDE7BDF80A10BDF887
:10473000080002F0EBFE08B10C23D4E7BDF80A0034
:1047400004F0D4FB10B17846F3F72CFE02F014F815
:1047500034F8122B01972068BDF8123000902946DA
:104760003046FEF7CAFD0F238DF81830BDF808302B
:10477000ADF81C3006A8BDF80A30ADF81E30FEF7C3
:1047800047FCB5E72DE9F047B1F8089029F002039E
:10479000142B88B006460D4620D14C68638A2088C9
:1047A000B9F1140F1FFA83F81BBF627D237DADF8AA
:1047B0000E3043EA02230BBF012700274FF6FF7894
:1047C000ADF80E30FEF72CFC4FF6FF7A504508D1BD
:1047D00001233A4629463046FEF7E6FE08B0BDE81A
:1047E000F087ADF80C8002AA039903F05BF820B9BA
:1047F000B9F1140F03D0D04501D10223E9E70DF13F
:104800000A01A01C04F021FB20B104280CBF0523E1
:104810001023DEE7BDF80A10BDF8080002F046FEDE
:104820008046BDF80A00B8F1000F0BD004F05EFB23
:1048300010B17846F3F7B6FDB8F1060F0CBF0823A8
:104840001023C6E704A904F01FFB10B17846F3F764
:10485000A9FD01F091FF34F8122B01972068BDF8F3
:104860001230009029463046FEF747FD0E238DF8A2
:104870001830BDF80830ADF81C3006A8BDF80A3075
:10488000ADF81E30FEF7C4FBA8E72DE9F04FB1F8F4
:104890000880B8F1080F89B006460D4602D0B8F17D
:1048A000060F21D16C68A3882088B8F1060F1FFA83
:1048B00083F91BBFE279A379ADF80E3043EA0223F6
:1048C0000BBF012700274FF6FF79ADF80E30FEF73A
:1048D000A7FB4FF6FF7A5045834608D101233A469D
:1048E00029463046FEF760FE09B0BDE8F08F6088CB
:1048F000F6F706FB0328F1D1ADF80C9002AA039954
:10490000584602F0CFFF20B9B8F1060F03D0D145C9
:1049100001D10223E3E703238DF810306388ADF85B
:1049200012300DF10A01002304A8059304F00AFBDC
:1049300078BBBDF80A10BDF8080002F0E7FD0628B4
:1049400001D10823CBE708B11023C8E7BDF80A005E
:1049500004F0CCFA10B17846F3F724FD01F00CFF17
:10496000638834F8042B019720680090294630466C
:10497000FEF7C3FC0B238DF81830BDF80830ADF8F6
:104980001C3006A8BDF80A30ADF81E30FEF740FB1B
:10499000AAE70528D8D1E3E72DE9F04FB1F8088060
:1049A000B8F1080F87B006460D4602D0B8F1060FE1
:1049B00021D16C68A3882088B8F1060F1FFA83FA0A
:1049C0001BBFE279A379ADF80E3043EA02230BBF97
:1049D000012700274FF6FF7AADF80E30FEF720FBD7
:1049E0004FF6FF794845834608D101233A462946C8
:1049F0003046FEF7D9FD07B0BDE8F08F6088F6F7C6
:104A00007FFA0328F1D163884B45EED0ADF80CA0B6
:104A100002AA0399584602F045FF20B9B8F1060FE3
:104A200003D0CA4501D10223E0E70DF10A016088F5
:104A300004F008FA40B1042804D010280CBF012368
:104A40001023D3E70523D1E7BDF80A10BDF808000D
:104A500002F02CFD804668B1BDF80A0004F046FA69
:104A600010B17846F3F79EFCB8F1060F0CBF08238F
:104A70001023BBE701F080FE638834F8042B019714
:104A80002068009029463046FEF737FC0A238DF84F
:104A90001030BDF80830ADF8143004A8BDF80A3065
:104AA000ADF81630FEF7B4FAA5E72DE9F047B1F8F6
:104AB000089029F00203142B88B006460D4620D139
:104AC0004C68638A2088B9F1140F1FFA83F81BBF62
:104AD000627D237DADF80E3043EA02230BBF012730
:104AE00000274FF6FF78ADF80E30FEF799FA4FF633
:104AF000FF7A504508D101233A4629463046FEF751
:104B000053FD08B0BDE8F087ADF80C8002AA039908
:104B100002F0C8FE20B9B9F1140F03D0D04501D17D
:104B20000223E9E7BDF80800FEF7D0FD03460028A0
:104B3000E2D10DF10A01A01C04F087F958B1042854
:104B40000CBF052310233A4629463046FEF72CFDBC
:104B500001F012FED5E7BDF80A10BDF8080002F01A
:104B6000A5FC8046BDF80A00B8F1000F0CD004F097
:104B7000BDF910B17846F3F715FCB8F1060F01D175
:104B80000823E0E71023DEE704A904F07DF910B163
:104B90007846F3F707FC34F8122B01972068BDF82C
:104BA0001230009029463046FEF7A7FB10238DF8FF
:104BB0001830BDF80830ADF81C3006A8BDF80A3032
:104BC000ADF81E30FEF724FAC2E72DE9F04F0F8949
:104BD00027F00203042B8FB082460D4640F0AD80D3
:104BE0004E6874883088042F16BFA0464FF6FF78B1
:104BF000B488FEF715FA2A8848F24B039A424FF61A
:104C0000FF7340F0AB80984200F0828048F24C097C
:104C1000ADF81080ADF8124003AA049902F042FEEC
:104C200028B9042F1FD04FF6FF7398451BD1298850
:104C30003388ADF8253048F24B0291424FF0020222
:104C40000CBFADF82740ADF829408DF824200EBFE9
:104C50000524ADF827800724F6F744FB0190009463
:104C600009AB4A4665E00EAA082322F82A3D05A9A9
:104C7000BDF80C0002F006FD10B17846F3F792FB88
:104C80004FF0000BBDF80E701FFA8BF39F4221D836
:104C900029883388ADF8253048F24B0291424FF015
:104CA00000028DF8242027D13A460DF1290105A8EC
:104CB000ADF8274000F0EEFB0524F6F713FB7B0868
:104CC00003EB430307F0010703EB47073C44019064
:104CD000E4B2C4E71FFA8BF149000EAB0B4405AAFE
:104CE000114433F8240C04F0B1F910B17846F3F70D
:104CF00059FB0BF1010BC5E73A460DF12B0105A855
:104D0000ADF82940ADF82780072400F0C3FBD4E7B5
:104D10003388ADF825300122ADF827408DF82420E6
:104D200048F24C060524F6F7DDFACDE9004009AB60
:104D3000324629465046FEF799F90FB0BDE8F08F8C
:104D40003388ADF825300122ADF829408DF82420B4
:104D5000ADF8278048F24E060724E4E79842EFD0EA
:104D600048F24E0954E72DE9F04FB1F80880B8F148
:104D7000080F87B006460D4602D0B8F1060F21D1C4
:104D80006C68A3882088B8F1060F1FFA83F91BBF4F
:104D9000E279A379ADF80E3043EA02230BBF012775
:104DA00000274FF6FF79ADF80E30FEF739F94FF6D0
:104DB000FF7A5045834608D101233A4629463046BA
:104DC000FEF7F2FB07B0BDE8F08F6088F6F798F8C1
:104DD0000328F1D1ADF80C9002AA0399584602F0CD
:104DE00061FD20B9B8F1060F03D0D14501D10223EE
:104DF000E3E7BDF80800FEF769FC03460028DCD1B4
:104E00000DF10A01608804F01DF840B1042804D0B7
:104E100010280CBF01231023CFE70523CDE7BDF8F1
:104E20000A10BDF8080002F041FB804668B1BDF8E9
:104E30000A0004F05BF810B17846F3F7B3FAB8F162
:104E4000060F0CBF08231023B7E701F095FC638819
:104E500034F8042B01972068009029463046FEF76D
:104E60004CFA0D238DF81030BDF80830ADF8143031
:104E700004A8BDF80A30ADF81630FEF7C9F8A1E76E
:104E80002DE9F0470B89062B8AB007460E461DD147
:104E90004D682888FEF7C4F8B6F80890B9F1040FF9
:104EA0000CBF0124002414D1AB78EA7843EA022332
:104EB000ADF80E304FF6FF784FF6FF7A504511D11E
:104EC0000123224631463846FEF76EFB0AB0BDE8A4
:104ED000F0872B796A79B5F8028043EA0223ADF8AE
:104EE0000E30E9E7ADF80C8002AA039902F0DAFC73
:104EF00020B9B9F1040F03D0D04501D10223E0E776
:104F00000AAA042322F81E3D04A9BDF80800FFF7F1
:104F1000CFF803460028D4D18DF818002B88BDF8AF
:104F20000A40ADF81930AB88ADF81D306400A4B26A
:104F30006B88ADF81B30224604A90DF11F000BF061
:104F400046F9F6F7CFF90734A4B20190009406AB06
:104F500048F22C0231463846FEF788F8B6E70000E2
:104F60002DE9F04F0C89082C8FB080460D4601D0FA
:104F7000062C27D16E68B788062C4FF000031CBFA3
:104F8000B946F7888DF82C303388ADF82D3073880A
:104F9000ADF82F3008BF4FF6FF797368CDF8313088
:104FA000062C12D18FB90D238DF82C30F6F79AF913
:104FB0000723019000930BAB48F23E02294640467E
:104FC000FEF754F80FB0BDE8F08F3088FEF728F8F0
:104FD0004FF6FF73984282460BD10123062C14BF73
:104FE000092407248DF82C30F6F77CF9CDE9004030
:104FF000E1E7ADF82090ADF8227007AA089902F019
:1050000051FC4D4B1B689B0483461DD54B4B1B68C5
:10501000032B19DD2F214A480BF0B4F9F8B12F21E9
:1050200047480BF0AFF9411CBDF81C20454BD3F8A5
:105030000435CDE90392444A0092CDE901A740F638
:1050400089120420F8F74AFABBF1000F05D1062CAB
:105050000ED04FF6FF7399450AD10223BEE75C21BB
:1050600037480BF08FF908B15C21D9E73449DBE709
:105070007088C0F30B0003F0D5FF2A8848F23D0387
:105080009A420646BDF81C0010D1162331468DF811
:105090002430ADF82800ADF82A6002F0A3FA052804
:1050A00043D0072845D018B310233FE017233146DB
:1050B0008DF82430ADF82800ADF82A6002F0BAFA75
:1050C0000028ECD10DF11E01BDF81C0002F026FBFA
:1050D00010B17846F3F766F9BDF81E30B34207D138
:1050E000BDF81C0002F046FC10B17846F3F75AF9FF
:1050F00000238DF82C3001F03FFB062C14BF09244F
:105100000724F6F7EFF80BABCDE9004048F23E027A
:1051100029464046FDF7AAFF9DF82C30002B7FF46E
:1051200051AF09A8FDF774FF4CE702238DF82C302E
:10513000E3E70323FAE700BF782E0020742E002057
:105140007C0E040000100140DE0E04002DE9F04F3B
:105150000A880B89032A89B007460D4627D10D2BF3
:1051600001D00B2B56D16A680B2BB2F8093014BF53
:10517000117BADF80E301FFA83FA18BFD37A1446AC
:105180001CBF43EA0123ADF80E3034F8049BB2F89B
:1051900002800ABF012600264FF6FF7A4846FDF737
:1051A0003FFF4FF6FF7B584524D101232DE048F205
:1051B0001A018A4203D123F00202192A2AD16C680B
:1051C000192BB4F8173014BFA27EADF80E301FFAB9
:1051D00083FA18BF637E34F8129B15BF43EA02239B
:1051E000012600264FF6FF7A18BFADF80E304FF0BB
:1051F0000008D3E7ADF80CA002AA039902F052FB15
:1052000010B956B9DA4508D1022332462946384644
:10521000FEF7C7FD09B0BDE8F08F6378207803F092
:105220000F0340EA032003F0FDFE4FF6FF739842A0
:10523000824601D10323E8E74046ADF80A30F5F78E
:105240005FFE2B88032B32D10228AED000F0FD0088
:10525000012840F0E1800DF10A01BDF8080001F0DD
:10526000CFFF58B10DF10A01404603F0A1FD00281F
:105270003CD004280CBF05231023C6E704A9BDF8C1
:105280000A0003F001FE0028ECD19DF81030022B3B
:1052900003D0BDF81230434528D0BDF80A0003F012
:1052A000ABFD0028DED07846F3F77CF8DAE76B68D0
:1052B000BDF808000DF10A0103F1020B01F0A0FF97
:1052C00028B10DF10A01584603F092FDCFE704A979
:1052D000BDF80A0003F0D8FD0028F2D19DF8103087
:1052E000022B25D09DF81030022B28D1B8F1000FE9
:1052F0002FD0227994F80380BDF80800C2F3020190
:105300004FF0000B61F3020BD20862F3C70B0022CF
:105310004FEA98131146019302F05EF808F03F0837
:10532000019B28B306281ED07846F3F73BF871E7B7
:105330001022594605980AF03BFF0028D2D0BDF84C
:105340000A0003F059FD0028BBD07846F3F72AF88D
:10535000B7E72A8848F21A039A42CAD0BDF8080073
:1053600002F008FB3DE0B8F1000F0ED007234CE738
:10537000B8F1000F09D042461946BDF8080002F006
:105380002BF810B17846F3F70DF85946BDF8080030
:1053900001F04AFF10B17846F3F704F8BDF80A109F
:1053A000BDF8080001F00EFF10B17846F2F7FAFFE1
:1053B0005146BDF8080002F093F910B17846F2F7B3
:1053C000F1FF6178BDF80800C1F3001102F0CCF9DB
:1053D00010B17846F2F7E6FFA178BDF8080002F0B8
:1053E000F3F910B17846F2F7DDFF01F0C5F9BDF829
:1053F000083038464A462946FEF79BF90023CDE996
:10540000063302238DF8183006A8BDF80830ADF831
:105410001C30FDF7FDFDFDE6B8F1000F7FF469AF2C
:105420009CE7000030B587B01622002105460DF13B
:1054300002000AF0D7FE0E4B02934FF6FF742F23A3
:105440000C480393ADF80040F5F740FF0A48F9F720
:105450005BFC0A4B1B88A34202D07846F2F7A2FFFE
:10546000074B06491D60684601F09CFD07B030BD42
:10547000240F0400942E00203D300300922E0020C3
:10548000084A0020024B0146188802F0ABB800BF62
:10549000922E002030B50024A24200D830BD30F852
:1054A00014300B70651CC3F30323AA424B7007D959
:1054B00000EB44056D8843EA05132D094B708D7090
:1054C00002340331E8E7000082B0064B0190C0F3DC
:1054D0000F40A0F50C7080B253F820309B780B7011
:1054E00002B07047344A0020C0F30F40A0F50C70A2
:1054F00080B2044B53F8203082B000229A7002B080
:10550000704700BF344A002070B5144D2C68002647
:1055100034B92B6803BB1248BDE87040F6F75AB99E
:1055200094F8503013B1013B84F8503094F8503067
:1055300043B92B689C4208D1636D2B60E36C00215A
:10554000204698472646646DE2E716B97846F2F79A
:1055500029FF636D7365F1E770BD00BF304A00201D
:10556000144A002030B587B090F850308DF80430E0
:105570000C4B029301AB03930123ADF810300023D1
:105580008DF81230022304460D468DF81330F5F7DE
:10559000A9FE02AA05902946208801F005FE07B061
:1055A00030BD00BF0780FFFF0B8913B91046FFF71E
:1055B000D9BF704730B587B083788DF804300C4B75
:1055C000029301AB03930123ADF8103000238DF853
:1055D0001230022304460D468DF81330F5F782FE93
:1055E00002AA05902946208801F0DEFD07B030BDF3
:1055F0003780FFFF0B8913B91046FFF7DBBF7047F9
:1056000038B504460D46F6F7DDFD94F8503084F8C1
:1056100050505BBB55B3E36C012120469847F6F729
:10562000D1FDE36C13B97846F2F7BCFE94F8503024
:1056300013B97846F2F7B6FE0E4B196861651C6027
:1056400091B90D4C182220460AF0CCFDF6F702F96C
:1056500000F5742000F51070084B6060E360204690
:10566000074BA360F6F794F8F6F7ECFDBDE8384079
:10567000F6F7E8BD304A0020144A002040420F00EF
:105680000955030038B50B89012B0C46154611D17D
:10569000D36C23B14B6810461978FFF7B1FF22880D
:1056A00048F205039A4205D121462846BDE8384014
:1056B000FFF758BF38BD000037B50B89012B0C46EA
:1056C000154618D149680B780E2B0BD9228848F261
:1056D00035039A420FD12146284603B0BDE8304039
:1056E000FFF768BF054B1B68934204D10448F9F7E4
:1056F0005FFF0028EAD003B030BD00BF344A00206D
:10570000030030024B0901F01F024FF0FF319140BE
:1057100050F82320114049B14A420A4008495143F8
:10572000C90E084A505C00EB431070470133072B49
:1057300002D850F82310EEE74FF48070704700BF96
:1057400031B57C07F81004002DE9F043C7B00429F7
:1057500005AE437A33700CBF00F12C0900F10C093F
:105760004389A6F801300546884648460021174679
:10577000FFF7C8FF0024B0F5807F23461BD14FF60A
:10578000FF73ADF8063000238DF80E30033402238A
:10579000ADF804800296ADF80C408DF80F30F5F7A7
:1057A000A1FD049028888FB101AA394601F0FCFCC4
:1057B00047B0BDE8F0833344411C0134FF29E4B213
:1057C000D870DCD84846FFF79DFFD4E701A901F067
:1057D000BFFCEDE7084600220421FFF7B5BFF8B58E
:1057E0000B89032B0D46144610D11388834202D037
:1057F0007846F2F7D7FD6E686389B6F801108B42E0
:1058000004D1207A0023DAB2904200D8F8BD626851
:1058100012F833C002EBC3073278624503F101038B
:10582000F1D17B6820469847337863722A8848F222
:1058300032039A42EAD12A4620460521BDE8F840C3
:10584000FFF782BF38B50B89022B0D46144611D1E4
:105850001388834202D07846F2F7A4FD6B681A8859
:1058600063899A4206D12A4620460521BDE8384080
:10587000FFF76ABF38BD38B50B89022B0D461446B9
:105880001CD11388834202D07846F2F78BFD6B68F7
:105890001A8863899A4211D12022002104F10C0058
:1058A0000AF0A0FC2A8848F22F039A4206D12A4621
:1058B00020460521BDE83840FFF746BF38BD38B562
:1058C00000F12C0500212846FFF71CFF0024B0F54D
:1058D000807F01D1E0B238BD411CFF2904F10104F1
:1058E000F8D82846FFF70EFFF1E7000037B5019022
:1058F000C0F30F40A0F50C700C4B0D7880B253F83C
:105900002040A378AB420DD0A5702046FFF7D7FF0B
:1059100040B10121A940208889B203B0BDE83040E0
:1059200001F03EBD002003B030BD00BF344A00206E
:1059300070B586B0C3640A9B436000259DF82C3087
:105940000372044642810E46457280F850508570BD
:105950004565202229460C300AF044FC29462022C5
:1059600004F12C000AF03EFC0B4B00930B4B02930E
:105970000B23CDE903342146094BADF8046068469A
:10598000059301F00FFB28B9064B43F82640208809
:1059900001F058FD06B070BDFFFF0200A01004002A
:1059A000D5570300344A002070B514461278012AF6
:1059B00086B005460E4630D86378012B2DD8606836
:1059C0001749884229D88DF8042028B18DF8053070
:1059D00000F088F98DF8060000230593114B02931F
:1059E00001AB039363682888002B0CBF01230323BA
:1059F000ADF8103095F828308DF8123095F8293030
:105A00008DF8133026B902A901F0A2FB06B070BDD3
:105A100002AA314601F0C8FBF8E70720F6E700BF0D
:105A200080A037020482FFFF37B50024CDE900448F
:105A3000CB6A0D465B686A462146284698476A4607
:105A400021462846FFF7B0FF03B030BD37B500232D
:105A5000CDE900330B890D46144653B9D36A0C3196
:105A60006A4620465B6898476A4629462046FFF703
:105A70009BFF03B030BD00002DE9F04389B00B89D6
:105A800004AF0DF118081646022B4FF000020C4629
:105A9000ADF80C2004927A600692C8F8042001D078
:105AA000042B7BD165682B78012B77D803F0010399
:105AB00004F10C098DF80C3048F202226B788DF855
:105AC0000D304946301D00F0BFF8002866D023890C
:105AD000042B47D1A87800F035F900285ED0A878CB
:105AE00000F0E0F80490E878374D00F031F92A68CA
:105AF0000590520419D5354B1B68032B15DD2F215A
:105B000033480AF03FFC00284BD02F2130480AF0E0
:105B100039FC411C2F4B049AD3F8043501922E4ACC
:105B2000009204208822F7F7D9FC2B685B0419D572
:105B3000264B1B68032B15DD2F2125480AF022FC7C
:105B4000002837D02F2122480AF01CFC411C214B91
:105B5000059AD3F804350192204A00920420892244
:105B6000F7F7BCFCF36A22881D682389022B18BF53
:105B70003B4648F2022708BF0023BA420CBF424608
:105B800000220092494603AA3046A8472388BB4218
:105B900004D1424621463046FFF706FF09B0BDE872
:105BA000F0835C210A480AF0EDFB08B15C21ADE707
:105BB0000749AFE75C2106480AF0E4FB08B15C2125
:105BC000C1E70349C3E700BF782E0020742E0020F0
:105BD0001811040000100140561104007711040050
:105BE00010B5044686B0D0B1C36AC3B11A68B2B169
:105BF0005B68A3B10B4B00930B4B02930323CDE9DE
:105C00000330ADF80410094B05930146684601F0D6
:105C1000C9F910B9208801F015FC06B010BD0E209E
:105C2000FBE700BFFFFF001090110400295A03009A
:105C30000A4618B111B10021FFF7B6BE0E20704719
:105C400000234B617047000070B5044648882588E2
:105C500085420BD166884D89AE4207D1257A9D4297
:105C600004D16568954201D16569BDB92080498933
:105C700023720023A3610A4B636161806260E46167
:105C8000F5F7E8FD00F5B70101F5586104F10C00E6
:105C9000F5F7B7FD01236372607A70BD0023FAE760
:105CA000415C030020F0C0033F2B16D000F0C00081
:105CB00040280CD002D838B100207047802809D085
:105CC000C028F9D1064800E06420584370474FF4DB
:105CD0007A70FAE742F21070F7E74FF0FF30704742
:105CE000C027090041F63803984204D86423B0FB6A
:105CF000F3F0C0B270474FF23023984206D84FF409
:105D00007A73B0FBF3F040F04000F2E70A4B9842A0
:105D100006D842F21073B0FBF3F060F07F00E8E7C2
:105D2000064B984205D8064BB0FBF3F060F03F00FD
:105D3000DFE73F20704700BFE075090080A0370211
:105D4000C027090000F03F003F3818BF012070470E
:105D500000EB80007047000038B5837803F0030241
:105D60000446032A22D8DFE802F00214191D9B081A
:105D7000154A1648126813440268A3600021EAB16C
:105D800095685D1B002D16DAD1B91146E1600460FB
:105D900038BD9B0803EB83035B00E9E79B086422A3
:105DA0005343E5E79B0841F27072F9E77846F2F752
:105DB000F9FA0023DCE71146D268E0E70029E5D0D4
:105DC000CC60E260E4E700BF504A0020584A00205F
:105DD00008B5032809D8DFE800F00D0204060648DC
:105DE00008BD0648FCE70648FAE77846F2F7DAFA13
:105DF0000020F5E70348F3E740420F008096980043
:105E00000046C323A08601002DE9F041574D2B78B1
:105E1000A3B1574B574E5C68F5F71CFD241A307838
:105E2000FFF7D6FF3278544B001B002A40D14CF2CA
:105E3000503290423CD91A6801321A60DFF848812A
:105E4000D8F80020002A00F087804A4E93783078F6
:105E500003F003038342344664DD474B97681B68B5
:105E6000FB1A464F5F43FFF7B3FFD8F80030B7FB8C
:105E7000F0F09F78C7F30107FBB2022B1FD031D897
:105E8000012B47D10A22B0FBF2F302FB13000028DA
:105E900040D1F5F7DFFC00F5742101F51071377082
:105EA0002B78002B50D03248BDE8F041F5F7A9BC63
:105EB0001A683249B0FBF1F010441860BEE733783D
:105EC00063B96422B0FBF2F302FB130010BBF5F7D9
:105ED000C1FC2B49022301442370E1E7012B19D1B6
:105EE0000A22EFE7337863B941F27072B0FBF2F344
:105EF00002FB130070B9F5F7ADFC224903230144FE
:105F0000EAE7012B02D14FF41672EFE7022B01D121
:105F10003C22EBE7F5F79EFC06462078FFF758FF9A
:105F20003118BDE7F5F796FCD8F8003004469878AC
:105F300000F00300FFF74CFFD8F800309B78C3F364
:105F4000010321183370ABE70948012341602B702E
:105F5000BDE8F041F5F71CBC2B7823B10448BDE83F
:105F6000F041F5F737BCBDE8F08100BF544A00208E
:105F7000384A0020554A0020504A0020A0860100DF
:105F8000809698000046C323584A00202DE9F3412B
:105F9000244B1B78032B2AD8DFE803F0021B1F23B6
:105FA000214A136801331360204B214E1E4D0022FD
:105FB0001A70B04634683CB1A3682A6893421AD07C
:105FC0002A689B1A002B16DBFFF71EFF02B0BDE804
:105FD000F081154A13680A33E5E7134A13686433FE
:105FE000E1E7114A136803F5BB531033DBE778464A
:105FF000F2F7D8F9D8E72788E368C8F8003002A993
:10600000002341F8043D384601F0A0FC10B1784669
:10601000F2F7C8F938466368019998472046FFF7B8
:106020009BFEC7E7554A0020504A0020544A0020F2
:10603000584A002010B5084C1822002120460AF0CA
:10604000D1F8064B064AA36000231360054A13608B
:10605000054A137010BD00BF384A00208D5F030051
:10606000504A0020584A0020544A0020F8B50F46F4
:106070001646044610B97846F2F794F9124DF6F731
:10608000A1F82B6800220BB1A34216D1A17867F3C7
:10609000010166F38701A1709BB1DB6882B92B60B7
:1060A0002EB12046FFF758FE2B689C4201D1FFF726
:1060B000ABFEBDE8F840F6F7C5B81A46DB68E2E784
:1060C000D360002EF5D0ECE7584A00204FF6FF7061
:1060D0000D49F0B500232424064604FB03129DB2AB
:1060E00092F8397057B1B0420CD004FB0017126B14
:1060F0003F6BD21B30EA220028BF28460133032B16
:10610000EBD1F0BD2846F9E75C4A002038B5154CC4
:10611000242303FB0043054693F8393013B978462E
:10612000F2F740F9B4F8843013B97846F2F73AF947
:10613000242202FB0543002183F83910B4F884308F
:10614000013B9BB2A4F884301BB94FF6FF73A4F84F
:10615000863002FB0544A06AFAF73DF80023A362EB
:1061600038BD00BF5C4A00202DE9F84F2D4DB5F831
:106170008430064613B97846F2F714F92A4C06F52E
:106180007A7B00274FF0010948F2111A637C1FFA4D
:1061900087F8C3B1A368A3EB0B03002B13DAA38822
:1061A0002268A4F11001404600F0DAFE102828D839
:1061B00009FA00F313EA0A0F26D11C4A13421FD032
:1061C0004046FFF7A3FF0137032F04F12404DDD17C
:1061D000FFF77CFFB5F88430A5F88600FBB10228F4
:1061E00002D97846F2F7DEF8B5F88630242202FBB1
:1061F00003531B6B9A1B48BFF21AEA60BDE8F88F85
:1062000010B17846F2F7CEF8237C013BDBB2237461
:10621000002BD5D0D4E902321344A360D3E7EB605E
:10622000ECE700BF5C4A0020844A0020A002010085
:1062300010B5064C88220021204609F0D3FF044BFC
:10624000A3604FF6FF73A4F8863010BD5C4A0020AF
:10625000696103002DE9F047022806468846174683
:106260009A46BDF8209002D97846F2F79BF8B8F12B
:10627000000F02D17846F2F795F817B97846F2F791
:1062800091F898F800305B0702D17846F2F78AF867
:10629000BAF1000F02D17846F2F784F8B9F1000F95
:1062A00002D17846F2F77EF8274C242303FB0643FD
:1062B00093F8393013B13046FFF728FFF5F7CAFAE3
:1062C000844697E80F00242505FB064505F1180EC6
:1062D0008EE80F00C5F828A0A5F82C9098F800309B
:1062E000C3F3020385F8383098F80000C3084CF275
:1062F000503003FB0000012385F83930B4F88430B6
:106300006863604401332863A4F88430FFF7DEFE3D
:10631000B4F88630834201D19E4213D14FF6FF7309
:106320009842A4F8860002D17846F2F73BF8B4F818
:1063300086300548242202FB0344216BBDE8F04768
:10634000F5F75FBABDE8F0875C4A00204A090123EF
:1063500001F01F0103FA01F150F82230194214BF75
:106360000120002070474FF6FF72B2EB104F82B051
:1063700083B215D113F47F4007D003F44043B3F543
:10638000004F14BF0020012006E023F07F022AB94D
:106390007F3B18BF0123184602B070470346FAE757
:1063A00023F03F03C02BECE702289FBF054B3822A8
:1063B00002FB003090F8340094BF00F00100002090
:1063C000704700BF204B0020004700004388C3F304
:1063D0000B03022B02D9002008707047064A12F8FE
:1063E000331041F0010102F8331002EBC30342689D
:1063F000D2435A6001207047C84B00204388C3F342
:106400000B0313B1002008707047024B82881A807A
:1064100001207047E64A002007B513464FF470424A
:10642000ADF804200122ADF806001A7003480A46B0
:1064300001A9F7F793FB03B05DF804FBF84A0020CD
:1064400070B51C460B89B3F5BE7F0546164606D3CC
:10645000092323602068B0FA80F0400970BDFFF77F
:10646000A3FF28B10C48382303FB050083890BB137
:106470000523EEE73EB982884FF6FF739A4206D0B5
:10648000C2889A4203D00868FFF76DFF08B9072356
:10649000DFE70023DDE700BF204B00207846F1F75F
:1064A00081BF000008B5094B094800221A70094B4A
:1064B00001221A70F7F740FB20B10748BDE80840F9
:1064C000F7F776BD054B187008BD00BF1D4B0020C7
:1064D000F84A00201C4B0020B02E0020E44A002087
:1064E00010B5A82200210E4809F07CFE06220021EA
:1064F0000C4809F077FE182200210B4809F072FEC3
:10650000074B4FF6FF7203F1A80103240120DA8044
:106510009A80DC819A81988438338B42F7D110BD00
:10652000204B0020E64A0020C84B00202DE9F04F08
:10653000D5B0044607A80D4604929946BDF8788167
:1065400002F026FC704BBDF81E10049A382000FBA8
:1065500004308789B94205D84FF0100A504655B02B
:10656000BDE8F08FBDF81C10049108AE002A00F0C1
:10657000968002F10C0103C9B2F81EB0B2F824A053
:10658000127F86E80300002A00F09980382202FB7F
:106590000434647CFF2C01D15C4B1C78B9F1000FF2
:1065A00002D17846F1F7FEFEB8F1000F02D178462D
:1065B000F1F7F8FE0AAB184624220021059309F0F2
:1065C00011FE504610AA594603F04EFA059B82462A
:1065D0000028C3D1049A9C7296E803001744AA7A53
:1065E000DA72EA7A1A7383E80300EA681F81514677
:1065F0001846C3F81090A3F814801A62F4F764FEEA
:1066000082460028AAD1424C226892041AD5414BF6
:106610001B68042B16DD2F213F4809F0B3FE00282C
:106620004FD02F213C4809F0ADFE411C3B4B2A883E
:10663000D3F8043501923A4A009205204FF4CE7205
:10664000F6F74CFF23689B0488D5324B1B68042B5C
:1066500084DD2989334B8029186828BF80210023D5
:1066600013AC8B4236D100222F212B4804F8132083
:1066700009F088FE00283BD02F21274809F082FE30
:10668000411C264B284AD3F804350192274A009230
:10669000029440F29D120520F6F720FF5EE7B0F865
:1066A00004B0C0880593314602F0EEFB48BB728807
:1066B000002A3FF451AF4FF6FF7A059B66E7144678
:1066C0006CE75C21144809F05DFE08B15C21A9E784
:1066D0001149ABE76A68D25C160902F00F02865DC9
:1066E00004F81360865C04EB430201335670B8E78C
:1066F0005C21094809F046FE08B15C21BDE7064966
:10670000BFE74FF0050A29E7204B0020D02E0020DC
:10671000782E0020742E00205A1204000010014030
:10672000761204007C2E00208A120400F206040077
:1067300030B5012A8DB004460D4604D17846F1F7F4
:1067400031FE0DB030BD022AF8D0032AF9D12C2237
:10675000002101A809F046FD11238DF80430022321
:106760008DF80830E368059301A823690395069323
:10677000F3F732F9E5E700002DE9F047474B1B78C6
:10678000002B00F08880F5F71DFD454B1B78BBB949
:10679000444C23786BB9062201214348F7F78BFA62
:1067A00070B103220125C58002818280F7F7B2FA19
:1067B000257000243D4EDFF8F0802546A1B21DB1C2
:1067C0003B48F7F7F5FB5EE016F8343003F00303BF
:1067D000032B4FEAC40711D1042241F44051404633
:1067E000F7F769FA002852D0F3195B68DB4343607E
:1067F000F7F790FABB5D23F00203BB550134032C7D
:10680000DCD1002DDCD12B4C63799B070FD5022204
:106810004FF480512448F7F74EFA0028D0D0228850
:106820008280F7F777FA637923F002036371DFF868
:106830008880DFF8749000243827A1B2002DBFD1E2
:1068400007FB048696F8343003F00303032B15D1BD
:10685000142241F400514846F7F72DFA8246C0B1A0
:1068600014223146043009F0B2FC5046F7F752FAD0
:1068700096F8343023F0020386F834300134032CC8
:10688000DBD1002D9CD1BDE8F047F5F7DBBC11252D
:10689000B4E71125F2E7BDE8F08700BFE44A002025
:1068A0001C4B00201D4B0020F84A0020C84B002044
:1068B000C02E0020E64A0020204B00204A0901F0AB
:1068C0001F034FF0FF31994050F82230194009D092
:1068D0004B420B4004495943C90E044B585C00EB32
:1068E000421070470420704731B57C073A1204000B
:1068F0002DE9F04F85B08146924698460E9F0D4691
:1069000011B97846F1F74EFD03AB52462946484689
:10691000FFF796FD18B9039805B0BDE8F08F6988B8
:106920002B884FF6FF72914230D1B3F5807F34BF90
:106930004FF0010B4FF0020B2E895E44B6B2304689
:10694000F9F747FC044680B36A882B884FF6FF703E
:106950008242D9B21DD06270120A2170A2702A89B7
:10696000696804EB0B0009F032FC0096234652469E
:1069700029464846FFF7DAFD039018B9B8F1000F31
:1069800000D077B92046F9F726FCC4E74FF0030B97
:10699000D2E713F47F4F1DBF1B0A23706170217073
:1069A000DDE7C8F800403E80B6E70420B4E7000009
:1069B00038B54388C3F30B03022B044610D8028A70
:1069C00072B91B48382202FB0302D589628A022D64
:1069D00009D8954204D1174D15F83250ED0704D46B
:1069E0000020087038BD022A06D8124D15F8321062
:1069F00041F0040105F8321038251422211D05FB51
:106A0000030009F0E4FBA188238A4FF6FF7291424C
:106A1000094A4FF0060101FB03234FF001000BBFB1
:106A20009A78DA78013201320CBF9A70DA70D9E7BD
:106A3000204B0020C84B0020E64A00202DE9F04FF3
:106A400087B006AB062243F80C2D012104AA554855
:106A5000F7F7FAF8044628B1534B0120187007B035
:106A6000BDE8F08FBDF81230012B09D04F4B1B68E9
:106A70009B0474D402F0CEF8FFF714FD002055E01B
:106A8000BDF81420032AF1D1BDF81020032AEDD15E
:106A9000474A484913704FF440500DF10B02FFF77D
:106AA000BBFC9DF80B30002BE0D0434B43495A7997
:106AB0001C8022F002025A715C800DF10B024FF42F
:106AC0008050FFF7A9FC9DF80B30002BCED00DF1C4
:106AD0000B023B494FF40050FFF79EFC9DF80B3032
:106AE00003B3F8B1374FDFF8F0A0B9464FF6FF789F
:106AF000A346BB89434510D0F888404505D002F035
:106B00005BF910B17846F1F74DFCFE89032E11D1E7
:106B1000382303FB049383F812B00134032C07F1EC
:106B20003807E6D19DF80B0000289FD01E4B0122AC
:106B30001A7094E70AEBC606043600213046FFF7C8
:106B4000BDFE04280546E3D0A8B202F081F910B1D9
:106B50007846F1F727FC691C0329EFD9D8E71A4BCF
:106B60001B68002B86DD2F21184809F00BFC78B13B
:106B70002F21164809F006FC411C154B154AD3F885
:106B800004350092012040F2E232F6F7A7FC71E7EB
:106B90005C210E4809F0F6FB08B15C21E9E70B49DE
:106BA000EBE700BFF84A0020E44A0020782E0020DE
:106BB0001D4B0020CD630300E64A0020FD63030067
:106BC000B1690300204B0020742E00205A120400EB
:106BD00000100140A8110400C84B00202DE9F04F1F
:106BE00000F114048FB00546204603F0A1FA824656
:106BF000002879D04FF6FF73ADF832302B7D012B92
:106C000075D10DA802F0C4F8EB8ABDF834209B1AA8
:106C10009BB209935646554C4FF00009002E7CD08C
:106C2000A788099BFA1A5742574194F82C30E98BF0
:106C300003F0010320460A93FFF788FB29880B9095
:106C4000A28C68884FF00008904576D34FF000087A
:106C5000C346474B1B689B0425D5464B1B68062B38
:106C600021DD2F21444809F08DFB002875D02F210C
:106C7000414809F087FB411C0B9A404BD3F804357F
:106C8000CDF818B0CDE904720A9A039234F8062CB4
:106C9000029234F8082C0192394A0092072040F2FF
:106CA0005942F6F71BFC0A9BBBB1B7B10B9BA3B1D2
:106CB000BBF1000F11D02B7D012B1FFA89F704D1F6
:106CC000A26A2946384601F02FF8236AA26A03EB2C
:106CD000C80329465B683846984709F10109B9F1AC
:106CE000030F04F1380499D10FB0BDE8F08FEB8A9F
:106CF00004339BB2032B0AD90DF13201204602F076
:106D000021F940B17846F1F74DFB002683E70023D7
:106D1000064609937FE706467DE7E08802280AD801
:106D2000184BBDF8321003EBC0000430FFF70EFB28
:106D300000F0010779E73046FAE7236A03EBC80C55
:106D400033F838308B4203D1BCF80230834202D092
:106D500008F1010878E7D3467BE75C21064809F093
:106D600011FB08B15C2183E7034985E7284B00202C
:106D7000782E0020742E00205A12040000100140CA
:106D8000CA110400C84B00202DE9F04303681D78A8
:106D900005F0C002402AD1B004460FD003D86AB132
:106DA0000026354610E0802A00F09D80C02AF7D1E9
:106DB0009A785E78ADB246EA022605E0ADB27F2D44
:106DC00000F08E804FF6FF765A4B1A6812F4005F7F
:106DD000984619D0584B1B68042B15DD2F215748B6
:106DE00009F0D0FA002800F082802F21534809F0E2
:106DF000C9FA411C524B534AD3F80435009201950D
:106E0000F6220520F6F76AFBE06902F019F98146DF
:106E1000A06902F0F1F84FF6FF739E42ADF81450EE
:106E2000ADF8166027686BD1FF2D8CBF02230123BC
:106E30004FF6FF721F4496420697A38862D1FF2D3A
:106E40008CBF022201229B1A227A8DF820206289AF
:106E5000ADF82220E2680992227C8DF82820628A0F
:106E6000ADF82A2062690B9294F820208DF830202A
:106E7000626A0D92D8F80020ADF832909BB292046D
:106E8000ADF81C30ADF8380027D52B4A1268042A1B
:106E900023DD2D4A802B106828BF802300220FACF1
:106EA0009A4231D100232F21244804F8123009F0EE
:106EB00069FA002835D02F21204809F063FA411CD7
:106EC0001F4B224AD3F804350192214A00920294C2
:106ED00040F20D120520F6F701FB05A8FFF77EFE34
:106EE00051B0BDE8F0835B7843EA05256AE75C2191
:106EF000124809F047FA08B15C2177E70F4979E7B2
:106F0000032395E703229EE7B95C0D0901F00F0109
:106F1000455D04F81250455C04EB420101324D70AE
:106F2000BEE75C21054809F02DFA08B15C21C3E7F2
:106F30000249C5E7782E0020742E00205A12040062
:106F4000001001401F1204007C2E002032120400A9
:106F5000F2060400037813B90430FFF715BF704739
:106F6000F0B5064685B014461D4681B17AB173B1BD
:106F700003AB0022FFF764FA10B9039805B0F0BD27
:106F80000095234600223046FFF7D0FAF6E70E20A0
:106F9000F4E708B5FFF7A4FA00F004FFBDE80840E5
:106FA000FFF780BA2DE9F8430446002800F0C080BE
:106FB000002900F0BD80C3681BB18368002B00F07E
:106FC000B7804FF6FF730B80E3681BB9A368002BF3
:106FD00040F0B080A388002B40F0AE80594B1B7866
:106FE00013B10F20BDE8F883574AD5789078E8426E
:106FF00015461CD0B4F800C0678854484FF0380ECE
:107000000EFB03F682191FFA83F8B2F80C90B9F15F
:10701000000F7FD1B2F80290B9457BD1365A664550
:1070200078D1A1F8008092F83430DE07D9D4D4E9C1
:1070300002870026B74272D10A884FF6FF739A4240
:10704000424B43D193F8342012F0010208D093F858
:107050006C20D0076AD593F8A420D20770D40222FE
:1070600038200A8000FB02324FF6FF76D6800A886D
:1070700000FB023296800A88A78800FB02329781C3
:107080000A88678800FB023257800A8827884243B3
:107090009F520A8800FB023046742088A288B042C2
:1070A0004FF0060000FB02520BBF9078D078013001
:1070B00001300CBF9070D0700A88382000FB02327B
:1070C00092F8340040F0020082F834000888256904
:1070D000382202FB003005630888A56802FB0030F7
:1070E00085620888E56802FB003085850888646948
:1070F00002FB00308461088802FB0034A08209880A
:1071000002FB0133002093F8342042F0010283F89F
:10711000342067E70133032B7FF472AF87E758F819
:107120003600FFF720F948B1013683E7012297E7DF
:107130000E2057E7092055E7052053E7072051E7C0
:1071400004204FE7E44A0020E64A0020204B0020BC
:107150007FB505460E4619B30DF10A0300220093D0
:1071600003ABADF80A20FFF7C3FB044688B90D480E
:10717000039B38226A438118C97C49070CD002F16D
:107180001301BDF80A200092014432462846FFF759
:1071900061F8204604B070BD1846F9F71CF8F8E70E
:1071A0000E24F6E7204B002013B514460A4639B1E9
:1071B00034B1002300932146FFF79AFB02B010BDC3
:1071C0000E20FBE710B50446FFF7EEF888B103295F
:1071D00011D80A48382303FB0400C3888B4206D029
:1071E00090F83430C18043F0020380F8343000203E
:1071F00000E0052010BD0720FCE700BF204B002069
:1072000010B5044651B1FFF7CFF848B1054B38220D
:1072100002FB04340020E3880B8010BD0E20FCE745
:107220000520FAE7204B0020022870B51DD8104A2F
:10723000382404FB002494F83430DD0715D5E47CB1
:1072400001F0070504F00706AE4204D1C1F3C405FE
:10725000B5EBD40F07D0382404FB002043F0020321
:10726000C17480F83430002000E0052070BD00BFFC
:10727000204B002069B102280DD8084B382202FBB0
:10728000003090F83430DB0705D5C37C0B7000204C
:1072900070470E2070470520704700BF204B00202C
:1072A00038B50446154699B192B1FFF77DF888B11B
:1072B0000A48382303FB040083696BB1837CC3F362
:1072C00001030B70837CC3F385032B70002038BD52
:1072D0000E20FCE70520FAE70620F8E7204B002007
:1072E0002DE9F3410DF107020DF106010546FFF707
:1072F000D7FF10B17846F1F755F8284E9DF8077082
:107300009DF80610382303FB05633C46B3F8248040
:10731000032923D8DFE801F005021A1E07EB8704D2
:107320006400B4FBF8F3092B1CD8002F33D0012BD9
:1073300038BF0123DFB20021382000FB05603A4648
:107340001430FEF793FE02B0BDE8F081642417FB11
:1073500004F4E6E741F270747C43E2E77846F1F723
:1073600021F8DEE7632B05D80A220121B3FBF2F3F3
:10737000DFB2E1E741F26F72934295BF642241F2BE
:107380007072B3FBF2F3B3FBF2F399BFDFB20221E9
:10739000DFB20321D0E73946CEE700BF204B002003
:1073A000022810B50FD80B4A382404FB002393F8A9
:1073B0003420D20707D59A693AB141B19984FFF7D1
:1073C0008FFF002010BD0520FCE70620FAE707200C
:1073D000F8E700BF204B0020022838B52AD8184C07
:1073E000382303FB004393F8345015F0010F254672
:1073F00020D09C6904B33F2A20D803291ED89B7C47
:10740000B2EB930F03D103F003038B4210D0382467
:1074100004FB0054A37C62F3870361F30103A374AC
:10742000FFF75EFF94F8343043F0020384F8343001
:10743000002000E0052038BD0620FCE70720FAE721
:10744000204B002010B5164B1978044609BBFEF7F7
:10745000ABFF00B31348382202FB0402D289032A8F
:1074600013D111490B7813F0010206D00B7ADA0719
:107470000DD50B7CDA0710D4022243F0030301F888
:107480003230382303FB0404E281002010BD0122C6
:10749000F3E70F20FAE70520F8E70420F6E700BF3E
:1074A000E44A0020204B0020C84B0020F8B50446D9
:1074B0000F46FEF779FFE0B1124B382202FB04348D
:1074C000E689032E17D0032917D80F4CF500043591
:1074D0006019FEF73BFF90B9012303FA07F16359E6
:1074E0000B43635114F8363043F0020304F836308E
:1074F000F8BD0520FCE70620FAE70720F8E70020A2
:10750000F6E700BF204B0020C84B0020F8B504462A
:107510000F46FEF749FFF0B1124B382202FB04344C
:10752000E689032E19D0032919D80F4CF50004352C
:107530006019FEF70BFF68B1012303FA07F16359E5
:1075400023EA0103635114F8363043F0020304F8D0
:1075500036300020F8BD0520FCE70620FAE70720BA
:10756000F8E700BF204B0020C84B00202DE9F8436E
:10757000064615460F4641B33AB3FEF715FF30B342
:10758000164B382202FB0636F389032B21D0002448
:10759000DFF84C90B5F800802C80F08902280ED8D6
:1075A00009EBC00021460430FEF7D0FE38B12B882D
:1075B000984510D927F813402B8801332B800134CC
:1075C000042CEAD10020BDE8F8830E20FBE705205B
:1075D000F9E70620F7E70920F5E700BF204B002078
:1075E000C84B0020F8B506460F46FEF7DDFEC0B1D9
:1075F000082918D838250E4C754305F10806A0193E
:10760000FEF7A4FE88B9012303FA07F1A3590B433F
:10761000A3512C4494F8343043F0020384F83430FE
:10762000F8BD0520FCE70720FAE70020F8E700BFD7
:10763000204B0020F8B506460F46FEF7B5FED0B148
:1076400008291AD838250E4C754305F10806A019EB
:10765000FEF77CFE70B1012303FA07F1A35923EA78
:107660000103A3512C44002094F8343043F002036A
:1076700084F83430F8BD0520FCE70720FAE700BFA6
:10768000204B00202DE9F041064615460F46F9B182
:10769000F2B1FEF789FEE8B1104BB5F80080382250
:1076A000002402FB06362C80083621463046FEF7C1
:1076B0004DFE38B12B8898450ED927F813402B88FA
:1076C00001332B800134082CEFD10020BDE8F0817C
:1076D0000E20FBE70520F9E70920F7E7204B002003
:1076E00010B50446FEF760FE88B1082911D80A4893
:1076F000382303FB040083888B4206D090F8343093
:10770000818043F0020380F83430002000E005203F
:1077100010BD0720FCE700BF204B002010B5044639
:1077200051B1FEF741FE48B1054B382202FB04344B
:107730000020A3880B8010BD0E20FCE70520FAE78F
:10774000204B0020030605D4012803D0024B1870FB
:107750000020704707207047D02E0020014B18787A
:10776000704700BFD02E002010B50446FEF71CFE67
:1077700090B10A4A382303FB0423187C88421EBFB9
:1077800093F8340040F0020083F83400382303FB00
:1077900004240020217410BD0520FCE7204B0020AC
:1077A00010B5044651B1FEF7FFFD48B1054B382234
:1077B00002FB04340020237C0B7010BD0E20FCE77C
:1077C0000520FAE7204B002010B50446FEF7ECFD3B
:1077D00098B181F080037E2B11D90A48382303FB2E
:1077E0000400437C8B4206D090F83430417443F05F
:1077F000020380F83430002000E0052010BD07208F
:10780000FCE700BF204B002010B5044651B1FEF745
:10781000CBFD48B1054B382202FB04340020637CC9
:107820000B7010BD0E20FCE70520FAE7204B00206E
:1078300021B128B9034B1B880B8070470E2070477D
:1078400005207047E64A002021B128B9034B9B78F8
:107850000B7070470E20704705207047E64A0020E5
:1078600021B128B9034BDB780B7070470E207047AD
:1078700005207047E64A002010B5044661B1FEF7C6
:1078800093FD58B1064B382060431A1852884A803D
:107890001B5A0B80002010BD0E20FCE70520FAE7E4
:1078A000204B0020F7B5019112B310B1052003B0B1
:1078B000F0BD4FF6FF73BDF80660BDF804700D49CA
:1078C00013804FF0380C0CFB00F40D191FFA80FEEA
:1078D000AB894BB96D88B54206D1645ABC4203D11D
:1078E000A2F800E01846E2E701300328EBD1DDE71B
:1078F0000E20DCE7204B0020F0B5F1B1EAB1F0B981
:10790000114E158810806FF0370703201388AB42A3
:1079100017D207FB006494F8DCC01CF0010F09D0FB
:10792000B4F8B44034B9C0F1030421F8134013880B
:10793000013313800138E9D1F0BD0E20FCE70520AA
:10794000FAE70920F8E700BF204B002010B50446F5
:1079500051B1FEF729FD48B1054B382202FB043432
:107960000020236B0B6010BD0E20FCE70520FAE71A
:10797000204B002070B50646FEF716FD08B33825EB
:10798000114C7543002205F1140011462044FEF706
:107990006DFB30466619103500F032FA2C44F08841
:1079A00001F02AFA00204FF0FF3373606070A0707E
:1079B000E07096F83430B07543F0020386F8343046
:1079C00070BD0520FCE700BF204B0020082873B5E0
:1079D000054614D80024A6B20DF106013046FFF783
:1079E0009DFE30B9BDF80630AB4202D13046FFF7FC
:1079F000C1FF0134032CEED1002002B070BD07207E
:107A0000FBE708B501F0B2F8A0F5805008BD000012
:107A100010B586B00D4B03930D4B04930D4B05939E
:107A200004230293FFF7EDFF0B4C009001236946FE
:107A30000A4801932370F6F7ABF920B10848F6F72E
:107A4000B7FA06B010BD2070FBE700BF3167030036
:107A50009D640300997A03001C4B0020F84A002023
:107A6000A02E002008B5FEF73BFD0848084B036038
:107A7000F3F72CFC00F088F9FEF7DCFAFEF7D8FBF0
:107A8000FFF7C6FF034B00221A7008BDEC4A002026
:107A9000556F0300E44A00201249002311F83320F7
:107AA000D00744BF42F0020201F833200133032B18
:107AB000F4D10D4B1A881AB15A7942F002025A7168
:107AC0000A480023C118383391F8342012F0010F0E
:107AD0001CBF42F0020281F83420A82BF2D1FFF73C
:107AE00097BF00BFC84B0020E64A0020204B002073
:107AF0002DE9F04F5A4DB5F89C3085B0804613B94A
:107B00007846F0F74FFC574CDFF86CA14FF6FF7347
:107B100008F57A79A5F89E30002604F1040B94F854
:107B20002830CBB1A369A3EB0903002B1ADA002399
:107B300084F82830B5F89C30013BA5F89C3003A9A7
:107B40002088FFF703FF10B17846F0F72BFCE369BC
:107B500003992088012298470136032E04F12C0452
:107B6000DDD14EE0236AA3EB0902002A66DAA5F80C
:107B70009E602C2101FB06B12088FFF7E9FA074639
:107B8000E8B1DAF800309B0417D5374B1B68042B9B
:107B900013DD2F21354808F0F5FBE8B12F213348DC
:107BA00008F0F0FB411C324B324AD3F80435009206
:107BB000019780220520F5F791FC082F15D1D4E913
:107BC00008231A445B0022626362A269236AD31A03
:107BD000002BC1DA2262BFE75C21244808F0D2FB07
:107BE00008B15C21DBE72149DDE7042F01D00F2F2D
:107BF00020D12C2303FB0656B36B03F51C43403303
